{
	"chapter02/9type3.sol": {
		"type6": {
			"abi": [
				{
					"inputs": [],
					"name": "i3",
					"outputs": [
						{
							"internalType": "uint256",
							"name": "",
							"type": "uint256"
						}
					],
					"stateMutability": "view",
					"type": "function"
				}
			],
			"devdoc": {
				"kind": "dev",
				"methods": {},
				"version": 1
			},
			"evm": {
				"assembly": "    /* \"chapter02/9type3.sol\":3727:3806  contract type6{... */\n  mstore(0x40, 0x80)\n    /* \"chapter02/9type3.sol\":3757:3758  5 */\n  0x05\n    /* \"chapter02/9type3.sol\":3747:3758  uint i1 = 5 */\n  0x00\n  sstore\n    /* \"chapter02/9type3.sol\":3774:3775  2 */\n  0x02\n    /* \"chapter02/9type3.sol\":3764:3775  uint i2 = 2 */\n  0x01\n  sstore\n    /* \"chapter02/9type3.sol\":3801:3803  i2 */\n  sload(0x01)\n    /* \"chapter02/9type3.sol\":3798:3800  i1 */\n  sload(0x00)\n    /* \"chapter02/9type3.sol\":3798:3803  i1%i2 */\n  tag_1\n  swap2\n  swap1\n  tag_2\n  jump\t// in\ntag_1:\n    /* \"chapter02/9type3.sol\":3781:3803  uint public i3 = i1%i2 */\n  0x02\n  sstore\n    /* \"chapter02/9type3.sol\":3727:3806  contract type6{... */\n  callvalue\n  dup1\n  iszero\n  tag_3\n  jumpi\n  0x00\n  dup1\n  revert\ntag_3:\n  pop\n  jump(tag_4)\n    /* \"#utility.yul\":7:84   */\ntag_6:\n    /* \"#utility.yul\":44:51   */\n  0x00\n    /* \"#utility.yul\":73:78   */\n  dup2\n    /* \"#utility.yul\":62:78   */\n  swap1\n  pop\n    /* \"#utility.yul\":7:84   */\n  swap2\n  swap1\n  pop\n  jump\t// out\n    /* \"#utility.yul\":90:266   */\ntag_2:\n    /* \"#utility.yul\":122:123   */\n  0x00\n    /* \"#utility.yul\":139:159   */\n  tag_9\n    /* \"#utility.yul\":157:158   */\n  dup3\n    /* \"#utility.yul\":139:159   */\n  tag_6\n  jump\t// in\ntag_9:\n    /* \"#utility.yul\":134:159   */\n  swap2\n  pop\n    /* \"#utility.yul\":173:193   */\n  tag_10\n    /* \"#utility.yul\":191:192   */\n  dup4\n    /* \"#utility.yul\":173:193   */\n  tag_6\n  jump\t// in\ntag_10:\n    /* \"#utility.yul\":168:193   */\n  swap3\n  pop\n    /* \"#utility.yul\":212:213   */\n  dup3\n    /* \"#utility.yul\":202:237   */\n  tag_11\n  jumpi\n    /* \"#utility.yul\":217:235   */\n  tag_12\n  tag_13\n  jump\t// in\ntag_12:\n    /* \"#utility.yul\":202:237   */\ntag_11:\n    /* \"#utility.yul\":258:259   */\n  dup3\n    /* \"#utility.yul\":255:256   */\n  dup3\n    /* \"#utility.yul\":251:260   */\n  mod\n    /* \"#utility.yul\":246:260   */\n  swap1\n  pop\n    /* \"#utility.yul\":90:266   */\n  swap3\n  swap2\n  pop\n  pop\n  jump\t// out\n    /* \"#utility.yul\":272:452   */\ntag_13:\n    /* \"#utility.yul\":320:397   */\n  0x4e487b7100000000000000000000000000000000000000000000000000000000\n    /* \"#utility.yul\":317:318   */\n  0x00\n    /* \"#utility.yul\":310:398   */\n  mstore\n    /* \"#utility.yul\":417:421   */\n  0x12\n    /* \"#utility.yul\":414:415   */\n  0x04\n    /* \"#utility.yul\":407:422   */\n  mstore\n    /* \"#utility.yul\":441:445   */\n  0x24\n    /* \"#utility.yul\":438:439   */\n  0x00\n    /* \"#utility.yul\":431:446   */\n  revert\n    /* \"chapter02/9type3.sol\":3727:3806  contract type6{... */\ntag_4:\n  dataSize(sub_0)\n  dup1\n  dataOffset(sub_0)\n  0x00\n  codecopy\n  0x00\n  return\nstop\n\nsub_0: assembly {\n        /* \"chapter02/9type3.sol\":3727:3806  contract type6{... */\n      mstore(0x40, 0x80)\n      callvalue\n      dup1\n      iszero\n      tag_1\n      jumpi\n      0x00\n      dup1\n      revert\n    tag_1:\n      pop\n      jumpi(tag_2, lt(calldatasize, 0x04))\n      shr(0xe0, calldataload(0x00))\n      dup1\n      0xa0792ba7\n      eq\n      tag_3\n      jumpi\n    tag_2:\n      0x00\n      dup1\n      revert\n        /* \"chapter02/9type3.sol\":3781:3803  uint public i3 = i1%i2 */\n    tag_3:\n      tag_4\n      tag_5\n      jump\t// in\n    tag_4:\n      mload(0x40)\n      tag_6\n      swap2\n      swap1\n      tag_7\n      jump\t// in\n    tag_6:\n      mload(0x40)\n      dup1\n      swap2\n      sub\n      swap1\n      return\n    tag_5:\n      sload(0x02)\n      dup2\n      jump\t// out\n        /* \"#utility.yul\":7:125   */\n    tag_9:\n        /* \"#utility.yul\":94:118   */\n      tag_11\n        /* \"#utility.yul\":112:117   */\n      dup2\n        /* \"#utility.yul\":94:118   */\n      tag_12\n      jump\t// in\n    tag_11:\n        /* \"#utility.yul\":89:92   */\n      dup3\n        /* \"#utility.yul\":82:119   */\n      mstore\n        /* \"#utility.yul\":7:125   */\n      pop\n      pop\n      jump\t// out\n        /* \"#utility.yul\":131:353   */\n    tag_7:\n        /* \"#utility.yul\":224:228   */\n      0x00\n        /* \"#utility.yul\":262:264   */\n      0x20\n        /* \"#utility.yul\":251:260   */\n      dup3\n        /* \"#utility.yul\":247:265   */\n      add\n        /* \"#utility.yul\":239:265   */\n      swap1\n      pop\n        /* \"#utility.yul\":275:346   */\n      tag_14\n        /* \"#utility.yul\":343:344   */\n      0x00\n        /* \"#utility.yul\":332:341   */\n      dup4\n        /* \"#utility.yul\":328:345   */\n      add\n        /* \"#utility.yul\":319:325   */\n      dup5\n        /* \"#utility.yul\":275:346   */\n      tag_9\n      jump\t// in\n    tag_14:\n        /* \"#utility.yul\":131:353   */\n      swap3\n      swap2\n      pop\n      pop\n      jump\t// out\n        /* \"#utility.yul\":359:436   */\n    tag_12:\n        /* \"#utility.yul\":396:403   */\n      0x00\n        /* \"#utility.yul\":425:430   */\n      dup2\n        /* \"#utility.yul\":414:430   */\n      swap1\n      pop\n        /* \"#utility.yul\":359:436   */\n      swap2\n      swap1\n      pop\n      jump\t// out\n\n    auxdata: 0xa264697066735822122041f42b77a4de8554c02575c3a1e395e01af9a7edd0eb2a47919b9ab09c77ed5664736f6c63430008070033\n}\n",
				"bytecode": {
					"linkReferences": {},
					"object": "60806040526005600055600260015560015460005461001e919061003d565b60025534801561002d57600080fd5b5061009d565b6000819050919050565b600061004882610033565b915061005383610033565b9250826100635761006261006e565b5b828206905092915050565b7f4e487b7100000000000000000000000000000000000000000000000000000000600052601260045260246000fd5b60b3806100ab6000396000f3fe6080604052348015600f57600080fd5b506004361060285760003560e01c8063a0792ba714602d575b600080fd5b60336047565b604051603e9190605a565b60405180910390f35b60025481565b6054816073565b82525050565b6000602082019050606d6000830184604d565b92915050565b600081905091905056fea264697066735822122041f42b77a4de8554c02575c3a1e395e01af9a7edd0eb2a47919b9ab09c77ed5664736f6c63430008070033",
					"opcodes": "PUSH1 0x80 PUSH1 0x40 MSTORE PUSH1 0x5 PUSH1 0x0 SSTORE PUSH1 0x2 PUSH1 0x1 SSTORE PUSH1 0x1 SLOAD PUSH1 0x0 SLOAD PUSH2 0x1E SWAP2 SWAP1 PUSH2 0x3D JUMP JUMPDEST PUSH1 0x2 SSTORE CALLVALUE DUP1 ISZERO PUSH2 0x2D JUMPI PUSH1 0x0 DUP1 REVERT JUMPDEST POP PUSH2 0x9D JUMP JUMPDEST PUSH1 0x0 DUP2 SWAP1 POP SWAP2 SWAP1 POP JUMP JUMPDEST PUSH1 0x0 PUSH2 0x48 DUP3 PUSH2 0x33 JUMP JUMPDEST SWAP2 POP PUSH2 0x53 DUP4 PUSH2 0x33 JUMP JUMPDEST SWAP3 POP DUP3 PUSH2 0x63 JUMPI PUSH2 0x62 PUSH2 0x6E JUMP JUMPDEST JUMPDEST DUP3 DUP3 MOD SWAP1 POP SWAP3 SWAP2 POP POP JUMP JUMPDEST PUSH32 0x4E487B7100000000000000000000000000000000000000000000000000000000 PUSH1 0x0 MSTORE PUSH1 0x12 PUSH1 0x4 MSTORE PUSH1 0x24 PUSH1 0x0 REVERT JUMPDEST PUSH1 0xB3 DUP1 PUSH2 0xAB PUSH1 0x0 CODECOPY PUSH1 0x0 RETURN INVALID PUSH1 0x80 PUSH1 0x40 MSTORE CALLVALUE DUP1 ISZERO PUSH1 0xF JUMPI PUSH1 0x0 DUP1 REVERT JUMPDEST POP PUSH1 0x4 CALLDATASIZE LT PUSH1 0x28 JUMPI PUSH1 0x0 CALLDATALOAD PUSH1 0xE0 SHR DUP1 PUSH4 0xA0792BA7 EQ PUSH1 0x2D JUMPI JUMPDEST PUSH1 0x0 DUP1 REVERT JUMPDEST PUSH1 0x33 PUSH1 0x47 JUMP JUMPDEST PUSH1 0x40 MLOAD PUSH1 0x3E SWAP2 SWAP1 PUSH1 0x5A JUMP JUMPDEST PUSH1 0x40 MLOAD DUP1 SWAP2 SUB SWAP1 RETURN JUMPDEST PUSH1 0x2 SLOAD DUP2 JUMP JUMPDEST PUSH1 0x54 DUP2 PUSH1 0x73 JUMP JUMPDEST DUP3 MSTORE POP POP JUMP JUMPDEST PUSH1 0x0 PUSH1 0x20 DUP3 ADD SWAP1 POP PUSH1 0x6D PUSH1 0x0 DUP4 ADD DUP5 PUSH1 0x4D JUMP JUMPDEST SWAP3 SWAP2 POP POP JUMP JUMPDEST PUSH1 0x0 DUP2 SWAP1 POP SWAP2 SWAP1 POP JUMP INVALID LOG2 PUSH5 0x6970667358 0x22 SLT KECCAK256 COINBASE DELEGATECALL 0x2B PUSH24 0xA4DE8554C02575C3A1E395E01AF9A7EDD0EB2A47919B9AB0 SWAP13 PUSH24 0xED5664736F6C634300080700330000000000000000000000 "
				},
				"gasEstimates": {
					"creation": {
						"codeDepositCost": "35800",
						"executionCost": "infinite",
						"totalCost": "infinite"
					},
					"external": {
						"i3()": "2407"
					}
				},
				"methodIdentifiers": {
					"i3()": "a0792ba7"
				}
			},
			"storageLayout": {
				"storage": [
					{
						"astId": 304,
						"contract": "chapter02/9type3.sol:type6",
						"label": "i1",
						"offset": 0,
						"slot": "0",
						"type": "t_uint256"
					},
					{
						"astId": 307,
						"contract": "chapter02/9type3.sol:type6",
						"label": "i2",
						"offset": 0,
						"slot": "1",
						"type": "t_uint256"
					},
					{
						"astId": 312,
						"contract": "chapter02/9type3.sol:type6",
						"label": "i3",
						"offset": 0,
						"slot": "2",
						"type": "t_uint256"
					}
				],
				"types": {
					"t_uint256": {
						"encoding": "inplace",
						"label": "uint256",
						"numberOfBytes": "32"
					}
				}
			},
			"userdoc": {
				"kind": "user",
				"methods": {},
				"version": 1
			}
		}
	}
}