{
	"chapter02/9type3.sol": {
		"CallHello": {
			"abi": [
				{
					"inputs": [
						{
							"internalType": "address",
							"name": "_addr",
							"type": "address"
						}
					],
					"stateMutability": "nonpayable",
					"type": "constructor"
				},
				{
					"inputs": [],
					"name": "f",
					"outputs": [
						{
							"internalType": "string",
							"name": "",
							"type": "string"
						}
					],
					"stateMutability": "view",
					"type": "function"
				},
				{
					"inputs": [],
					"name": "g",
					"outputs": [
						{
							"internalType": "address",
							"name": "",
							"type": "address"
						}
					],
					"stateMutability": "view",
					"type": "function"
				},
				{
					"inputs": [],
					"name": "hello",
					"outputs": [
						{
							"internalType": "contract HelloWorld",
							"name": "",
							"type": "address"
						}
					],
					"stateMutability": "view",
					"type": "function"
				}
			],
			"devdoc": {
				"kind": "dev",
				"methods": {},
				"version": 1
			},
			"evm": {
				"assembly": "    /* \"chapter02/9type3.sol\":242:538  contract CallHello {... */\n  mstore(0x40, 0x80)\n    /* \"chapter02/9type3.sol\":296:364  constructor(address _addr){... */\n  callvalue\n  dup1\n  iszero\n  tag_1\n  jumpi\n  0x00\n  dup1\n  revert\ntag_1:\n  pop\n  mload(0x40)\n  sub(codesize, bytecodeSize)\n  dup1\n  bytecodeSize\n  dup4\n  codecopy\n  dup2\n  dup2\n  add\n  0x40\n  mstore\n  dup2\n  add\n  swap1\n  tag_2\n  swap2\n  swap1\n  tag_3\n  jump\t// in\ntag_2:\n    /* \"chapter02/9type3.sol\":351:356  _addr */\n  dup1\n    /* \"chapter02/9type3.sol\":332:337  hello */\n  0x00\n  dup1\n    /* \"chapter02/9type3.sol\":332:357  hello = HelloWorld(_addr) */\n  0x0100\n  exp\n  dup2\n  sload\n  dup2\n  0xffffffffffffffffffffffffffffffffffffffff\n  mul\n  not\n  and\n  swap1\n  dup4\n  0xffffffffffffffffffffffffffffffffffffffff\n  and\n  mul\n  or\n  swap1\n  sstore\n  pop\n    /* \"chapter02/9type3.sol\":296:364  constructor(address _addr){... */\n  pop\n    /* \"chapter02/9type3.sol\":242:538  contract CallHello {... */\n  jump(tag_6)\n    /* \"#utility.yul\":7:150   */\ntag_8:\n    /* \"#utility.yul\":64:69   */\n  0x00\n    /* \"#utility.yul\":95:101   */\n  dup2\n    /* \"#utility.yul\":89:102   */\n  mload\n    /* \"#utility.yul\":80:102   */\n  swap1\n  pop\n    /* \"#utility.yul\":111:144   */\n  tag_10\n    /* \"#utility.yul\":138:143   */\n  dup2\n    /* \"#utility.yul\":111:144   */\n  tag_11\n  jump\t// in\ntag_10:\n    /* \"#utility.yul\":7:150   */\n  swap3\n  swap2\n  pop\n  pop\n  jump\t// out\n    /* \"#utility.yul\":156:507   */\ntag_3:\n    /* \"#utility.yul\":226:232   */\n  0x00\n    /* \"#utility.yul\":275:277   */\n  0x20\n    /* \"#utility.yul\":263:272   */\n  dup3\n    /* \"#utility.yul\":254:261   */\n  dup5\n    /* \"#utility.yul\":250:273   */\n  sub\n    /* \"#utility.yul\":246:278   */\n  slt\n    /* \"#utility.yul\":243:362   */\n  iszero\n  tag_13\n  jumpi\n    /* \"#utility.yul\":281:360   */\n  tag_14\n  tag_15\n  jump\t// in\ntag_14:\n    /* \"#utility.yul\":243:362   */\ntag_13:\n    /* \"#utility.yul\":401:402   */\n  0x00\n    /* \"#utility.yul\":426:490   */\n  tag_16\n    /* \"#utility.yul\":482:489   */\n  dup5\n    /* \"#utility.yul\":473:479   */\n  dup3\n    /* \"#utility.yul\":462:471   */\n  dup6\n    /* \"#utility.yul\":458:480   */\n  add\n    /* \"#utility.yul\":426:490   */\n  tag_8\n  jump\t// in\ntag_16:\n    /* \"#utility.yul\":416:490   */\n  swap2\n  pop\n    /* \"#utility.yul\":372:500   */\n  pop\n    /* \"#utility.yul\":156:507   */\n  swap3\n  swap2\n  pop\n  pop\n  jump\t// out\n    /* \"#utility.yul\":594:690   */\ntag_19:\n    /* \"#utility.yul\":631:638   */\n  0x00\n    /* \"#utility.yul\":660:684   */\n  tag_21\n    /* \"#utility.yul\":678:683   */\n  dup3\n    /* \"#utility.yul\":660:684   */\n  tag_22\n  jump\t// in\ntag_21:\n    /* \"#utility.yul\":649:684   */\n  swap1\n  pop\n    /* \"#utility.yul\":594:690   */\n  swap2\n  swap1\n  pop\n  jump\t// out\n    /* \"#utility.yul\":696:822   */\ntag_22:\n    /* \"#utility.yul\":733:740   */\n  0x00\n    /* \"#utility.yul\":773:815   */\n  0xffffffffffffffffffffffffffffffffffffffff\n    /* \"#utility.yul\":766:771   */\n  dup3\n    /* \"#utility.yul\":762:816   */\n  and\n    /* \"#utility.yul\":751:816   */\n  swap1\n  pop\n    /* \"#utility.yul\":696:822   */\n  swap2\n  swap1\n  pop\n  jump\t// out\n    /* \"#utility.yul\":951:1068   */\ntag_15:\n    /* \"#utility.yul\":1060:1061   */\n  0x00\n    /* \"#utility.yul\":1057:1058   */\n  dup1\n    /* \"#utility.yul\":1050:1062   */\n  revert\n    /* \"#utility.yul\":1074:1196   */\ntag_11:\n    /* \"#utility.yul\":1147:1171   */\n  tag_28\n    /* \"#utility.yul\":1165:1170   */\n  dup2\n    /* \"#utility.yul\":1147:1171   */\n  tag_19\n  jump\t// in\ntag_28:\n    /* \"#utility.yul\":1140:1145   */\n  dup2\n    /* \"#utility.yul\":1137:1172   */\n  eq\n    /* \"#utility.yul\":1127:1190   */\n  tag_29\n  jumpi\n    /* \"#utility.yul\":1186:1187   */\n  0x00\n    /* \"#utility.yul\":1183:1184   */\n  dup1\n    /* \"#utility.yul\":1176:1188   */\n  revert\n    /* \"#utility.yul\":1127:1190   */\ntag_29:\n    /* \"#utility.yul\":1074:1196   */\n  pop\n  jump\t// out\n    /* \"chapter02/9type3.sol\":242:538  contract CallHello {... */\ntag_6:\n  dataSize(sub_0)\n  dup1\n  dataOffset(sub_0)\n  0x00\n  codecopy\n  0x00\n  return\nstop\n\nsub_0: assembly {\n        /* \"chapter02/9type3.sol\":242:538  contract CallHello {... */\n      mstore(0x40, 0x80)\n      callvalue\n      dup1\n      iszero\n      tag_1\n      jumpi\n      0x00\n      dup1\n      revert\n    tag_1:\n      pop\n      jumpi(tag_2, lt(calldatasize, 0x04))\n      shr(0xe0, calldataload(0x00))\n      dup1\n      0x19ff1d21\n      eq\n      tag_3\n      jumpi\n      dup1\n      0x26121ff0\n      eq\n      tag_4\n      jumpi\n      dup1\n      0xe2179b8e\n      eq\n      tag_5\n      jumpi\n    tag_2:\n      0x00\n      dup1\n      revert\n        /* \"chapter02/9type3.sol\":267:290  HelloWorld public hello */\n    tag_3:\n      tag_6\n      tag_7\n      jump\t// in\n    tag_6:\n      mload(0x40)\n      tag_8\n      swap2\n      swap1\n      tag_9\n      jump\t// in\n    tag_8:\n      mload(0x40)\n      dup1\n      swap2\n      sub\n      swap1\n      return\n        /* \"chapter02/9type3.sol\":369:453  function f()public view returns(string memory){... */\n    tag_4:\n      tag_10\n      tag_11\n      jump\t// in\n    tag_10:\n      mload(0x40)\n      tag_12\n      swap2\n      swap1\n      tag_13\n      jump\t// in\n    tag_12:\n      mload(0x40)\n      dup1\n      swap2\n      sub\n      swap1\n      return\n        /* \"chapter02/9type3.sol\":458:536  function g()public view returns(address){... */\n    tag_5:\n      tag_14\n      tag_15\n      jump\t// in\n    tag_14:\n      mload(0x40)\n      tag_16\n      swap2\n      swap1\n      tag_17\n      jump\t// in\n    tag_16:\n      mload(0x40)\n      dup1\n      swap2\n      sub\n      swap1\n      return\n        /* \"chapter02/9type3.sol\":267:290  HelloWorld public hello */\n    tag_7:\n      0x00\n      dup1\n      sload\n      swap1\n      0x0100\n      exp\n      swap1\n      div\n      0xffffffffffffffffffffffffffffffffffffffff\n      and\n      dup2\n      jump\t// out\n        /* \"chapter02/9type3.sol\":369:453  function f()public view returns(string memory){... */\n    tag_11:\n        /* \"chapter02/9type3.sol\":401:414  string memory */\n      0x60\n        /* \"chapter02/9type3.sol\":432:437  hello */\n      0x00\n      dup1\n      sload\n      swap1\n      0x0100\n      exp\n      swap1\n      div\n      0xffffffffffffffffffffffffffffffffffffffff\n      and\n        /* \"chapter02/9type3.sol\":432:444  hello.getstr */\n      0xffffffffffffffffffffffffffffffffffffffff\n      and\n      0xab5170b2\n        /* \"chapter02/9type3.sol\":432:446  hello.getstr() */\n      mload(0x40)\n      dup2\n      0xffffffff\n      and\n      0xe0\n      shl\n      dup2\n      mstore\n      0x04\n      add\n      0x00\n      mload(0x40)\n      dup1\n      dup4\n      sub\n      dup2\n      dup7\n      dup1\n      extcodesize\n      iszero\n      dup1\n      iszero\n      tag_19\n      jumpi\n      0x00\n      dup1\n      revert\n    tag_19:\n      pop\n      gas\n      staticcall\n      iszero\n      dup1\n      iszero\n      tag_21\n      jumpi\n      returndatasize\n      0x00\n      dup1\n      returndatacopy\n      revert(0x00, returndatasize)\n    tag_21:\n      pop\n      pop\n      pop\n      pop\n      mload(0x40)\n      returndatasize\n      0x00\n      dup3\n      returndatacopy\n      returndatasize\n      not(0x1f)\n      0x1f\n      dup3\n      add\n      and\n      dup3\n      add\n      dup1\n      0x40\n      mstore\n      pop\n      dup2\n      add\n      swap1\n      tag_22\n      swap2\n      swap1\n      tag_23\n      jump\t// in\n    tag_22:\n        /* \"chapter02/9type3.sol\":425:446  return hello.getstr() */\n      swap1\n      pop\n        /* \"chapter02/9type3.sol\":369:453  function f()public view returns(string memory){... */\n      swap1\n      jump\t// out\n        /* \"chapter02/9type3.sol\":458:536  function g()public view returns(address){... */\n    tag_15:\n        /* \"chapter02/9type3.sol\":490:497  address */\n      0x00\n        /* \"chapter02/9type3.sol\":523:528  hello */\n      dup1\n      0x00\n      swap1\n      sload\n      swap1\n      0x0100\n      exp\n      swap1\n      div\n      0xffffffffffffffffffffffffffffffffffffffff\n      and\n        /* \"chapter02/9type3.sol\":508:529  return address(hello) */\n      swap1\n      pop\n        /* \"chapter02/9type3.sol\":458:536  function g()public view returns(address){... */\n      swap1\n      jump\t// out\n        /* \"#utility.yul\":7:428   */\n    tag_26:\n        /* \"#utility.yul\":96:101   */\n      0x00\n        /* \"#utility.yul\":121:187   */\n      tag_28\n        /* \"#utility.yul\":137:186   */\n      tag_29\n        /* \"#utility.yul\":179:185   */\n      dup5\n        /* \"#utility.yul\":137:186   */\n      tag_30\n      jump\t// in\n    tag_29:\n        /* \"#utility.yul\":121:187   */\n      tag_31\n      jump\t// in\n    tag_28:\n        /* \"#utility.yul\":112:187   */\n      swap1\n      pop\n        /* \"#utility.yul\":210:216   */\n      dup3\n        /* \"#utility.yul\":203:208   */\n      dup2\n        /* \"#utility.yul\":196:217   */\n      mstore\n        /* \"#utility.yul\":248:252   */\n      0x20\n        /* \"#utility.yul\":241:246   */\n      dup2\n        /* \"#utility.yul\":237:253   */\n      add\n        /* \"#utility.yul\":286:289   */\n      dup5\n        /* \"#utility.yul\":277:283   */\n      dup5\n        /* \"#utility.yul\":272:275   */\n      dup5\n        /* \"#utility.yul\":268:284   */\n      add\n        /* \"#utility.yul\":265:290   */\n      gt\n        /* \"#utility.yul\":262:374   */\n      iszero\n      tag_32\n      jumpi\n        /* \"#utility.yul\":293:372   */\n      tag_33\n      tag_34\n      jump\t// in\n    tag_33:\n        /* \"#utility.yul\":262:374   */\n    tag_32:\n        /* \"#utility.yul\":383:422   */\n      tag_35\n        /* \"#utility.yul\":415:421   */\n      dup5\n        /* \"#utility.yul\":410:413   */\n      dup3\n        /* \"#utility.yul\":405:408   */\n      dup6\n        /* \"#utility.yul\":383:422   */\n      tag_36\n      jump\t// in\n    tag_35:\n        /* \"#utility.yul\":102:428   */\n      pop\n        /* \"#utility.yul\":7:428   */\n      swap4\n      swap3\n      pop\n      pop\n      pop\n      jump\t// out\n        /* \"#utility.yul\":448:803   */\n    tag_37:\n        /* \"#utility.yul\":515:520   */\n      0x00\n        /* \"#utility.yul\":564:567   */\n      dup3\n        /* \"#utility.yul\":557:561   */\n      0x1f\n        /* \"#utility.yul\":549:555   */\n      dup4\n        /* \"#utility.yul\":545:562   */\n      add\n        /* \"#utility.yul\":541:568   */\n      slt\n        /* \"#utility.yul\":531:653   */\n      tag_39\n      jumpi\n        /* \"#utility.yul\":572:651   */\n      tag_40\n      tag_41\n      jump\t// in\n    tag_40:\n        /* \"#utility.yul\":531:653   */\n    tag_39:\n        /* \"#utility.yul\":682:688   */\n      dup2\n        /* \"#utility.yul\":676:689   */\n      mload\n        /* \"#utility.yul\":707:797   */\n      tag_42\n        /* \"#utility.yul\":793:796   */\n      dup5\n        /* \"#utility.yul\":785:791   */\n      dup3\n        /* \"#utility.yul\":778:782   */\n      0x20\n        /* \"#utility.yul\":770:776   */\n      dup7\n        /* \"#utility.yul\":766:783   */\n      add\n        /* \"#utility.yul\":707:797   */\n      tag_26\n      jump\t// in\n    tag_42:\n        /* \"#utility.yul\":698:797   */\n      swap2\n      pop\n        /* \"#utility.yul\":521:803   */\n      pop\n        /* \"#utility.yul\":448:803   */\n      swap3\n      swap2\n      pop\n      pop\n      jump\t// out\n        /* \"#utility.yul\":809:1333   */\n    tag_23:\n        /* \"#utility.yul\":889:895   */\n      0x00\n        /* \"#utility.yul\":938:940   */\n      0x20\n        /* \"#utility.yul\":926:935   */\n      dup3\n        /* \"#utility.yul\":917:924   */\n      dup5\n        /* \"#utility.yul\":913:936   */\n      sub\n        /* \"#utility.yul\":909:941   */\n      slt\n        /* \"#utility.yul\":906:1025   */\n      iszero\n      tag_44\n      jumpi\n        /* \"#utility.yul\":944:1023   */\n      tag_45\n      tag_46\n      jump\t// in\n    tag_45:\n        /* \"#utility.yul\":906:1025   */\n    tag_44:\n        /* \"#utility.yul\":1085:1086   */\n      0x00\n        /* \"#utility.yul\":1074:1083   */\n      dup3\n        /* \"#utility.yul\":1070:1087   */\n      add\n        /* \"#utility.yul\":1064:1088   */\n      mload\n        /* \"#utility.yul\":1115:1133   */\n      0xffffffffffffffff\n        /* \"#utility.yul\":1107:1113   */\n      dup2\n        /* \"#utility.yul\":1104:1134   */\n      gt\n        /* \"#utility.yul\":1101:1218   */\n      iszero\n      tag_47\n      jumpi\n        /* \"#utility.yul\":1137:1216   */\n      tag_48\n      tag_49\n      jump\t// in\n    tag_48:\n        /* \"#utility.yul\":1101:1218   */\n    tag_47:\n        /* \"#utility.yul\":1242:1316   */\n      tag_50\n        /* \"#utility.yul\":1308:1315   */\n      dup5\n        /* \"#utility.yul\":1299:1305   */\n      dup3\n        /* \"#utility.yul\":1288:1297   */\n      dup6\n        /* \"#utility.yul\":1284:1306   */\n      add\n        /* \"#utility.yul\":1242:1316   */\n      tag_37\n      jump\t// in\n    tag_50:\n        /* \"#utility.yul\":1232:1316   */\n      swap2\n      pop\n        /* \"#utility.yul\":1035:1326   */\n      pop\n        /* \"#utility.yul\":809:1333   */\n      swap3\n      swap2\n      pop\n      pop\n      jump\t// out\n        /* \"#utility.yul\":1339:1457   */\n    tag_51:\n        /* \"#utility.yul\":1426:1450   */\n      tag_53\n        /* \"#utility.yul\":1444:1449   */\n      dup2\n        /* \"#utility.yul\":1426:1450   */\n      tag_54\n      jump\t// in\n    tag_53:\n        /* \"#utility.yul\":1421:1424   */\n      dup3\n        /* \"#utility.yul\":1414:1451   */\n      mstore\n        /* \"#utility.yul\":1339:1457   */\n      pop\n      pop\n      jump\t// out\n        /* \"#utility.yul\":1463:1628   */\n    tag_55:\n        /* \"#utility.yul\":1567:1621   */\n      tag_57\n        /* \"#utility.yul\":1615:1620   */\n      dup2\n        /* \"#utility.yul\":1567:1621   */\n      tag_58\n      jump\t// in\n    tag_57:\n        /* \"#utility.yul\":1562:1565   */\n      dup3\n        /* \"#utility.yul\":1555:1622   */\n      mstore\n        /* \"#utility.yul\":1463:1628   */\n      pop\n      pop\n      jump\t// out\n        /* \"#utility.yul\":1634:1998   */\n    tag_59:\n        /* \"#utility.yul\":1722:1725   */\n      0x00\n        /* \"#utility.yul\":1750:1789   */\n      tag_61\n        /* \"#utility.yul\":1783:1788   */\n      dup3\n        /* \"#utility.yul\":1750:1789   */\n      tag_62\n      jump\t// in\n    tag_61:\n        /* \"#utility.yul\":1805:1876   */\n      tag_63\n        /* \"#utility.yul\":1869:1875   */\n      dup2\n        /* \"#utility.yul\":1864:1867   */\n      dup6\n        /* \"#utility.yul\":1805:1876   */\n      tag_64\n      jump\t// in\n    tag_63:\n        /* \"#utility.yul\":1798:1876   */\n      swap4\n      pop\n        /* \"#utility.yul\":1885:1937   */\n      tag_65\n        /* \"#utility.yul\":1930:1936   */\n      dup2\n        /* \"#utility.yul\":1925:1928   */\n      dup6\n        /* \"#utility.yul\":1918:1922   */\n      0x20\n        /* \"#utility.yul\":1911:1916   */\n      dup7\n        /* \"#utility.yul\":1907:1923   */\n      add\n        /* \"#utility.yul\":1885:1937   */\n      tag_36\n      jump\t// in\n    tag_65:\n        /* \"#utility.yul\":1962:1991   */\n      tag_66\n        /* \"#utility.yul\":1984:1990   */\n      dup2\n        /* \"#utility.yul\":1962:1991   */\n      tag_67\n      jump\t// in\n    tag_66:\n        /* \"#utility.yul\":1957:1960   */\n      dup5\n        /* \"#utility.yul\":1953:1992   */\n      add\n        /* \"#utility.yul\":1946:1992   */\n      swap2\n      pop\n        /* \"#utility.yul\":1726:1998   */\n      pop\n        /* \"#utility.yul\":1634:1998   */\n      swap3\n      swap2\n      pop\n      pop\n      jump\t// out\n        /* \"#utility.yul\":2004:2226   */\n    tag_17:\n        /* \"#utility.yul\":2097:2101   */\n      0x00\n        /* \"#utility.yul\":2135:2137   */\n      0x20\n        /* \"#utility.yul\":2124:2133   */\n      dup3\n        /* \"#utility.yul\":2120:2138   */\n      add\n        /* \"#utility.yul\":2112:2138   */\n      swap1\n      pop\n        /* \"#utility.yul\":2148:2219   */\n      tag_69\n        /* \"#utility.yul\":2216:2217   */\n      0x00\n        /* \"#utility.yul\":2205:2214   */\n      dup4\n        /* \"#utility.yul\":2201:2218   */\n      add\n        /* \"#utility.yul\":2192:2198   */\n      dup5\n        /* \"#utility.yul\":2148:2219   */\n      tag_51\n      jump\t// in\n    tag_69:\n        /* \"#utility.yul\":2004:2226   */\n      swap3\n      swap2\n      pop\n      pop\n      jump\t// out\n        /* \"#utility.yul\":2232:2488   */\n    tag_9:\n        /* \"#utility.yul\":2342:2346   */\n      0x00\n        /* \"#utility.yul\":2380:2382   */\n      0x20\n        /* \"#utility.yul\":2369:2378   */\n      dup3\n        /* \"#utility.yul\":2365:2383   */\n      add\n        /* \"#utility.yul\":2357:2383   */\n      swap1\n      pop\n        /* \"#utility.yul\":2393:2481   */\n      tag_71\n        /* \"#utility.yul\":2478:2479   */\n      0x00\n        /* \"#utility.yul\":2467:2476   */\n      dup4\n        /* \"#utility.yul\":2463:2480   */\n      add\n        /* \"#utility.yul\":2454:2460   */\n      dup5\n        /* \"#utility.yul\":2393:2481   */\n      tag_55\n      jump\t// in\n    tag_71:\n        /* \"#utility.yul\":2232:2488   */\n      swap3\n      swap2\n      pop\n      pop\n      jump\t// out\n        /* \"#utility.yul\":2494:2807   */\n    tag_13:\n        /* \"#utility.yul\":2607:2611   */\n      0x00\n        /* \"#utility.yul\":2645:2647   */\n      0x20\n        /* \"#utility.yul\":2634:2643   */\n      dup3\n        /* \"#utility.yul\":2630:2648   */\n      add\n        /* \"#utility.yul\":2622:2648   */\n      swap1\n      pop\n        /* \"#utility.yul\":2694:2703   */\n      dup2\n        /* \"#utility.yul\":2688:2692   */\n      dup2\n        /* \"#utility.yul\":2684:2704   */\n      sub\n        /* \"#utility.yul\":2680:2681   */\n      0x00\n        /* \"#utility.yul\":2669:2678   */\n      dup4\n        /* \"#utility.yul\":2665:2682   */\n      add\n        /* \"#utility.yul\":2658:2705   */\n      mstore\n        /* \"#utility.yul\":2722:2800   */\n      tag_73\n        /* \"#utility.yul\":2795:2799   */\n      dup2\n        /* \"#utility.yul\":2786:2792   */\n      dup5\n        /* \"#utility.yul\":2722:2800   */\n      tag_59\n      jump\t// in\n    tag_73:\n        /* \"#utility.yul\":2714:2800   */\n      swap1\n      pop\n        /* \"#utility.yul\":2494:2807   */\n      swap3\n      swap2\n      pop\n      pop\n      jump\t// out\n        /* \"#utility.yul\":2813:2942   */\n    tag_31:\n        /* \"#utility.yul\":2847:2853   */\n      0x00\n        /* \"#utility.yul\":2874:2894   */\n      tag_75\n      tag_76\n      jump\t// in\n    tag_75:\n        /* \"#utility.yul\":2864:2894   */\n      swap1\n      pop\n        /* \"#utility.yul\":2903:2936   */\n      tag_77\n        /* \"#utility.yul\":2931:2935   */\n      dup3\n        /* \"#utility.yul\":2923:2929   */\n      dup3\n        /* \"#utility.yul\":2903:2936   */\n      tag_78\n      jump\t// in\n    tag_77:\n        /* \"#utility.yul\":2813:2942   */\n      swap2\n      swap1\n      pop\n      jump\t// out\n        /* \"#utility.yul\":2948:3023   */\n    tag_76:\n        /* \"#utility.yul\":2981:2987   */\n      0x00\n        /* \"#utility.yul\":3014:3016   */\n      0x40\n        /* \"#utility.yul\":3008:3017   */\n      mload\n        /* \"#utility.yul\":2998:3017   */\n      swap1\n      pop\n        /* \"#utility.yul\":2948:3023   */\n      swap1\n      jump\t// out\n        /* \"#utility.yul\":3029:3337   */\n    tag_30:\n        /* \"#utility.yul\":3091:3095   */\n      0x00\n        /* \"#utility.yul\":3181:3199   */\n      0xffffffffffffffff\n        /* \"#utility.yul\":3173:3179   */\n      dup3\n        /* \"#utility.yul\":3170:3200   */\n      gt\n        /* \"#utility.yul\":3167:3223   */\n      iszero\n      tag_81\n      jumpi\n        /* \"#utility.yul\":3203:3221   */\n      tag_82\n      tag_83\n      jump\t// in\n    tag_82:\n        /* \"#utility.yul\":3167:3223   */\n    tag_81:\n        /* \"#utility.yul\":3241:3270   */\n      tag_84\n        /* \"#utility.yul\":3263:3269   */\n      dup3\n        /* \"#utility.yul\":3241:3270   */\n      tag_67\n      jump\t// in\n    tag_84:\n        /* \"#utility.yul\":3233:3270   */\n      swap1\n      pop\n        /* \"#utility.yul\":3325:3329   */\n      0x20\n        /* \"#utility.yul\":3319:3323   */\n      dup2\n        /* \"#utility.yul\":3315:3330   */\n      add\n        /* \"#utility.yul\":3307:3330   */\n      swap1\n      pop\n        /* \"#utility.yul\":3029:3337   */\n      swap2\n      swap1\n      pop\n      jump\t// out\n        /* \"#utility.yul\":3343:3442   */\n    tag_62:\n        /* \"#utility.yul\":3395:3401   */\n      0x00\n        /* \"#utility.yul\":3429:3434   */\n      dup2\n        /* \"#utility.yul\":3423:3435   */\n      mload\n        /* \"#utility.yul\":3413:3435   */\n      swap1\n      pop\n        /* \"#utility.yul\":3343:3442   */\n      swap2\n      swap1\n      pop\n      jump\t// out\n        /* \"#utility.yul\":3448:3617   */\n    tag_64:\n        /* \"#utility.yul\":3532:3543   */\n      0x00\n        /* \"#utility.yul\":3566:3572   */\n      dup3\n        /* \"#utility.yul\":3561:3564   */\n      dup3\n        /* \"#utility.yul\":3554:3573   */\n      mstore\n        /* \"#utility.yul\":3606:3610   */\n      0x20\n        /* \"#utility.yul\":3601:3604   */\n      dup3\n        /* \"#utility.yul\":3597:3611   */\n      add\n        /* \"#utility.yul\":3582:3611   */\n      swap1\n      pop\n        /* \"#utility.yul\":3448:3617   */\n      swap3\n      swap2\n      pop\n      pop\n      jump\t// out\n        /* \"#utility.yul\":3623:3719   */\n    tag_54:\n        /* \"#utility.yul\":3660:3667   */\n      0x00\n        /* \"#utility.yul\":3689:3713   */\n      tag_88\n        /* \"#utility.yul\":3707:3712   */\n      dup3\n        /* \"#utility.yul\":3689:3713   */\n      tag_89\n      jump\t// in\n    tag_88:\n        /* \"#utility.yul\":3678:3713   */\n      swap1\n      pop\n        /* \"#utility.yul\":3623:3719   */\n      swap2\n      swap1\n      pop\n      jump\t// out\n        /* \"#utility.yul\":3725:3851   */\n    tag_89:\n        /* \"#utility.yul\":3762:3769   */\n      0x00\n        /* \"#utility.yul\":3802:3844   */\n      0xffffffffffffffffffffffffffffffffffffffff\n        /* \"#utility.yul\":3795:3800   */\n      dup3\n        /* \"#utility.yul\":3791:3845   */\n      and\n        /* \"#utility.yul\":3780:3845   */\n      swap1\n      pop\n        /* \"#utility.yul\":3725:3851   */\n      swap2\n      swap1\n      pop\n      jump\t// out\n        /* \"#utility.yul\":3857:4000   */\n    tag_58:\n        /* \"#utility.yul\":3924:3933   */\n      0x00\n        /* \"#utility.yul\":3957:3994   */\n      tag_92\n        /* \"#utility.yul\":3988:3993   */\n      dup3\n        /* \"#utility.yul\":3957:3994   */\n      tag_93\n      jump\t// in\n    tag_92:\n        /* \"#utility.yul\":3944:3994   */\n      swap1\n      pop\n        /* \"#utility.yul\":3857:4000   */\n      swap2\n      swap1\n      pop\n      jump\t// out\n        /* \"#utility.yul\":4006:4132   */\n    tag_93:\n        /* \"#utility.yul\":4056:4065   */\n      0x00\n        /* \"#utility.yul\":4089:4126   */\n      tag_95\n        /* \"#utility.yul\":4120:4125   */\n      dup3\n        /* \"#utility.yul\":4089:4126   */\n      tag_96\n      jump\t// in\n    tag_95:\n        /* \"#utility.yul\":4076:4126   */\n      swap1\n      pop\n        /* \"#utility.yul\":4006:4132   */\n      swap2\n      swap1\n      pop\n      jump\t// out\n        /* \"#utility.yul\":4138:4251   */\n    tag_96:\n        /* \"#utility.yul\":4188:4197   */\n      0x00\n        /* \"#utility.yul\":4221:4245   */\n      tag_98\n        /* \"#utility.yul\":4239:4244   */\n      dup3\n        /* \"#utility.yul\":4221:4245   */\n      tag_89\n      jump\t// in\n    tag_98:\n        /* \"#utility.yul\":4208:4245   */\n      swap1\n      pop\n        /* \"#utility.yul\":4138:4251   */\n      swap2\n      swap1\n      pop\n      jump\t// out\n        /* \"#utility.yul\":4257:4564   */\n    tag_36:\n        /* \"#utility.yul\":4325:4326   */\n      0x00\n        /* \"#utility.yul\":4335:4448   */\n    tag_100:\n        /* \"#utility.yul\":4349:4355   */\n      dup4\n        /* \"#utility.yul\":4346:4347   */\n      dup2\n        /* \"#utility.yul\":4343:4356   */\n      lt\n        /* \"#utility.yul\":4335:4448   */\n      iszero\n      tag_102\n      jumpi\n        /* \"#utility.yul\":4434:4435   */\n      dup1\n        /* \"#utility.yul\":4429:4432   */\n      dup3\n        /* \"#utility.yul\":4425:4436   */\n      add\n        /* \"#utility.yul\":4419:4437   */\n      mload\n        /* \"#utility.yul\":4415:4416   */\n      dup2\n        /* \"#utility.yul\":4410:4413   */\n      dup5\n        /* \"#utility.yul\":4406:4417   */\n      add\n        /* \"#utility.yul\":4399:4438   */\n      mstore\n        /* \"#utility.yul\":4371:4373   */\n      0x20\n        /* \"#utility.yul\":4368:4369   */\n      dup2\n        /* \"#utility.yul\":4364:4374   */\n      add\n        /* \"#utility.yul\":4359:4374   */\n      swap1\n      pop\n        /* \"#utility.yul\":4335:4448   */\n      jump(tag_100)\n    tag_102:\n        /* \"#utility.yul\":4466:4472   */\n      dup4\n        /* \"#utility.yul\":4463:4464   */\n      dup2\n        /* \"#utility.yul\":4460:4473   */\n      gt\n        /* \"#utility.yul\":4457:4558   */\n      iszero\n      tag_103\n      jumpi\n        /* \"#utility.yul\":4546:4547   */\n      0x00\n        /* \"#utility.yul\":4537:4543   */\n      dup5\n        /* \"#utility.yul\":4532:4535   */\n      dup5\n        /* \"#utility.yul\":4528:4544   */\n      add\n        /* \"#utility.yul\":4521:4548   */\n      mstore\n        /* \"#utility.yul\":4457:4558   */\n    tag_103:\n        /* \"#utility.yul\":4306:4564   */\n      pop\n        /* \"#utility.yul\":4257:4564   */\n      pop\n      pop\n      pop\n      jump\t// out\n        /* \"#utility.yul\":4570:4851   */\n    tag_78:\n        /* \"#utility.yul\":4653:4680   */\n      tag_105\n        /* \"#utility.yul\":4675:4679   */\n      dup3\n        /* \"#utility.yul\":4653:4680   */\n      tag_67\n      jump\t// in\n    tag_105:\n        /* \"#utility.yul\":4645:4651   */\n      dup2\n        /* \"#utility.yul\":4641:4681   */\n      add\n        /* \"#utility.yul\":4783:4789   */\n      dup2\n        /* \"#utility.yul\":4771:4781   */\n      dup2\n        /* \"#utility.yul\":4768:4790   */\n      lt\n        /* \"#utility.yul\":4747:4765   */\n      0xffffffffffffffff\n        /* \"#utility.yul\":4735:4745   */\n      dup3\n        /* \"#utility.yul\":4732:4766   */\n      gt\n        /* \"#utility.yul\":4729:4791   */\n      or\n        /* \"#utility.yul\":4726:4814   */\n      iszero\n      tag_106\n      jumpi\n        /* \"#utility.yul\":4794:4812   */\n      tag_107\n      tag_83\n      jump\t// in\n    tag_107:\n        /* \"#utility.yul\":4726:4814   */\n    tag_106:\n        /* \"#utility.yul\":4834:4844   */\n      dup1\n        /* \"#utility.yul\":4830:4832   */\n      0x40\n        /* \"#utility.yul\":4823:4845   */\n      mstore\n        /* \"#utility.yul\":4613:4851   */\n      pop\n        /* \"#utility.yul\":4570:4851   */\n      pop\n      pop\n      jump\t// out\n        /* \"#utility.yul\":4857:5037   */\n    tag_83:\n        /* \"#utility.yul\":4905:4982   */\n      0x4e487b7100000000000000000000000000000000000000000000000000000000\n        /* \"#utility.yul\":4902:4903   */\n      0x00\n        /* \"#utility.yul\":4895:4983   */\n      mstore\n        /* \"#utility.yul\":5002:5006   */\n      0x41\n        /* \"#utility.yul\":4999:5000   */\n      0x04\n        /* \"#utility.yul\":4992:5007   */\n      mstore\n        /* \"#utility.yul\":5026:5030   */\n      0x24\n        /* \"#utility.yul\":5023:5024   */\n      0x00\n        /* \"#utility.yul\":5016:5031   */\n      revert\n        /* \"#utility.yul\":5043:5160   */\n    tag_41:\n        /* \"#utility.yul\":5152:5153   */\n      0x00\n        /* \"#utility.yul\":5149:5150   */\n      dup1\n        /* \"#utility.yul\":5142:5154   */\n      revert\n        /* \"#utility.yul\":5166:5283   */\n    tag_34:\n        /* \"#utility.yul\":5275:5276   */\n      0x00\n        /* \"#utility.yul\":5272:5273   */\n      dup1\n        /* \"#utility.yul\":5265:5277   */\n      revert\n        /* \"#utility.yul\":5289:5406   */\n    tag_49:\n        /* \"#utility.yul\":5398:5399   */\n      0x00\n        /* \"#utility.yul\":5395:5396   */\n      dup1\n        /* \"#utility.yul\":5388:5400   */\n      revert\n        /* \"#utility.yul\":5412:5529   */\n    tag_46:\n        /* \"#utility.yul\":5521:5522   */\n      0x00\n        /* \"#utility.yul\":5518:5519   */\n      dup1\n        /* \"#utility.yul\":5511:5523   */\n      revert\n        /* \"#utility.yul\":5535:5637   */\n    tag_67:\n        /* \"#utility.yul\":5576:5582   */\n      0x00\n        /* \"#utility.yul\":5627:5629   */\n      0x1f\n        /* \"#utility.yul\":5623:5630   */\n      not\n        /* \"#utility.yul\":5618:5620   */\n      0x1f\n        /* \"#utility.yul\":5611:5616   */\n      dup4\n        /* \"#utility.yul\":5607:5621   */\n      add\n        /* \"#utility.yul\":5603:5631   */\n      and\n        /* \"#utility.yul\":5593:5631   */\n      swap1\n      pop\n        /* \"#utility.yul\":5535:5637   */\n      swap2\n      swap1\n      pop\n      jump\t// out\n\n    auxdata: 0xa26469706673582212201fbbd664687c3195e2aebc94218053ccaf878c8856552403ad5894d96c190d0464736f6c63430008070033\n}\n",
				"bytecode": {
					"linkReferences": {},
					"object": "608060405234801561001057600080fd5b506040516105de3803806105de8339818101604052810190610032919061008d565b806000806101000a81548173ffffffffffffffffffffffffffffffffffffffff021916908373ffffffffffffffffffffffffffffffffffffffff16021790555050610108565b600081519050610087816100f1565b92915050565b6000602082840312156100a3576100a26100ec565b5b60006100b184828501610078565b91505092915050565b60006100c5826100cc565b9050919050565b600073ffffffffffffffffffffffffffffffffffffffff82169050919050565b600080fd5b6100fa816100ba565b811461010557600080fd5b50565b6104c7806101176000396000f3fe608060405234801561001057600080fd5b50600436106100415760003560e01c806319ff1d211461004657806326121ff014610064578063e2179b8e14610082575b600080fd5b61004e6100a0565b60405161005b91906102c2565b60405180910390f35b61006c6100c4565b60405161007991906102dd565b60405180910390f35b61008a61016e565b60405161009791906102a7565b60405180910390f35b60008054906101000a900473ffffffffffffffffffffffffffffffffffffffff1681565b606060008054906101000a900473ffffffffffffffffffffffffffffffffffffffff1673ffffffffffffffffffffffffffffffffffffffff1663ab5170b26040518163ffffffff1660e01b815260040160006040518083038186803b15801561012c57600080fd5b505afa158015610140573d6000803e3d6000fd5b505050506040513d6000823e3d601f19601f820116820180604052508101906101699190610207565b905090565b60008060009054906101000a900473ffffffffffffffffffffffffffffffffffffffff16905090565b60006101aa6101a584610324565b6102ff565b9050828152602081018484840111156101c6576101c5610471565b5b6101d18482856103d9565b509392505050565b600082601f8301126101ee576101ed61046c565b5b81516101fe848260208601610197565b91505092915050565b60006020828403121561021d5761021c61047b565b5b600082015167ffffffffffffffff81111561023b5761023a610476565b5b610247848285016101d9565b91505092915050565b61025981610371565b82525050565b610268816103a3565b82525050565b600061027982610355565b6102838185610360565b93506102938185602086016103d9565b61029c81610480565b840191505092915050565b60006020820190506102bc6000830184610250565b92915050565b60006020820190506102d7600083018461025f565b92915050565b600060208201905081810360008301526102f7818461026e565b905092915050565b600061030961031a565b9050610315828261040c565b919050565b6000604051905090565b600067ffffffffffffffff82111561033f5761033e61043d565b5b61034882610480565b9050602081019050919050565b600081519050919050565b600082825260208201905092915050565b600061037c82610383565b9050919050565b600073ffffffffffffffffffffffffffffffffffffffff82169050919050565b60006103ae826103b5565b9050919050565b60006103c0826103c7565b9050919050565b60006103d282610383565b9050919050565b60005b838110156103f75780820151818401526020810190506103dc565b83811115610406576000848401525b50505050565b61041582610480565b810181811067ffffffffffffffff821117156104345761043361043d565b5b80604052505050565b7f4e487b7100000000000000000000000000000000000000000000000000000000600052604160045260246000fd5b600080fd5b600080fd5b600080fd5b600080fd5b6000601f19601f830116905091905056fea26469706673582212201fbbd664687c3195e2aebc94218053ccaf878c8856552403ad5894d96c190d0464736f6c63430008070033",
					"opcodes": "PUSH1 0x80 PUSH1 0x40 MSTORE CALLVALUE DUP1 ISZERO PUSH2 0x10 JUMPI PUSH1 0x0 DUP1 REVERT JUMPDEST POP PUSH1 0x40 MLOAD PUSH2 0x5DE CODESIZE SUB DUP1 PUSH2 0x5DE DUP4 CODECOPY DUP2 DUP2 ADD PUSH1 0x40 MSTORE DUP2 ADD SWAP1 PUSH2 0x32 SWAP2 SWAP1 PUSH2 0x8D JUMP JUMPDEST DUP1 PUSH1 0x0 DUP1 PUSH2 0x100 EXP DUP2 SLOAD DUP2 PUSH20 0xFFFFFFFFFFFFFFFFFFFFFFFFFFFFFFFFFFFFFFFF MUL NOT AND SWAP1 DUP4 PUSH20 0xFFFFFFFFFFFFFFFFFFFFFFFFFFFFFFFFFFFFFFFF AND MUL OR SWAP1 SSTORE POP POP PUSH2 0x108 JUMP JUMPDEST PUSH1 0x0 DUP2 MLOAD SWAP1 POP PUSH2 0x87 DUP2 PUSH2 0xF1 JUMP JUMPDEST SWAP3 SWAP2 POP POP JUMP JUMPDEST PUSH1 0x0 PUSH1 0x20 DUP3 DUP5 SUB SLT ISZERO PUSH2 0xA3 JUMPI PUSH2 0xA2 PUSH2 0xEC JUMP JUMPDEST JUMPDEST PUSH1 0x0 PUSH2 0xB1 DUP5 DUP3 DUP6 ADD PUSH2 0x78 JUMP JUMPDEST SWAP2 POP POP SWAP3 SWAP2 POP POP JUMP JUMPDEST PUSH1 0x0 PUSH2 0xC5 DUP3 PUSH2 0xCC JUMP JUMPDEST SWAP1 POP SWAP2 SWAP1 POP JUMP JUMPDEST PUSH1 0x0 PUSH20 0xFFFFFFFFFFFFFFFFFFFFFFFFFFFFFFFFFFFFFFFF DUP3 AND SWAP1 POP SWAP2 SWAP1 POP JUMP JUMPDEST PUSH1 0x0 DUP1 REVERT JUMPDEST PUSH2 0xFA DUP2 PUSH2 0xBA JUMP JUMPDEST DUP2 EQ PUSH2 0x105 JUMPI PUSH1 0x0 DUP1 REVERT JUMPDEST POP JUMP JUMPDEST PUSH2 0x4C7 DUP1 PUSH2 0x117 PUSH1 0x0 CODECOPY PUSH1 0x0 RETURN INVALID PUSH1 0x80 PUSH1 0x40 MSTORE CALLVALUE DUP1 ISZERO PUSH2 0x10 JUMPI PUSH1 0x0 DUP1 REVERT JUMPDEST POP PUSH1 0x4 CALLDATASIZE LT PUSH2 0x41 JUMPI PUSH1 0x0 CALLDATALOAD PUSH1 0xE0 SHR DUP1 PUSH4 0x19FF1D21 EQ PUSH2 0x46 JUMPI DUP1 PUSH4 0x26121FF0 EQ PUSH2 0x64 JUMPI DUP1 PUSH4 0xE2179B8E EQ PUSH2 0x82 JUMPI JUMPDEST PUSH1 0x0 DUP1 REVERT JUMPDEST PUSH2 0x4E PUSH2 0xA0 JUMP JUMPDEST PUSH1 0x40 MLOAD PUSH2 0x5B SWAP2 SWAP1 PUSH2 0x2C2 JUMP JUMPDEST PUSH1 0x40 MLOAD DUP1 SWAP2 SUB SWAP1 RETURN JUMPDEST PUSH2 0x6C PUSH2 0xC4 JUMP JUMPDEST PUSH1 0x40 MLOAD PUSH2 0x79 SWAP2 SWAP1 PUSH2 0x2DD JUMP JUMPDEST PUSH1 0x40 MLOAD DUP1 SWAP2 SUB SWAP1 RETURN JUMPDEST PUSH2 0x8A PUSH2 0x16E JUMP JUMPDEST PUSH1 0x40 MLOAD PUSH2 0x97 SWAP2 SWAP1 PUSH2 0x2A7 JUMP JUMPDEST PUSH1 0x40 MLOAD DUP1 SWAP2 SUB SWAP1 RETURN JUMPDEST PUSH1 0x0 DUP1 SLOAD SWAP1 PUSH2 0x100 EXP SWAP1 DIV PUSH20 0xFFFFFFFFFFFFFFFFFFFFFFFFFFFFFFFFFFFFFFFF AND DUP2 JUMP JUMPDEST PUSH1 0x60 PUSH1 0x0 DUP1 SLOAD SWAP1 PUSH2 0x100 EXP SWAP1 DIV PUSH20 0xFFFFFFFFFFFFFFFFFFFFFFFFFFFFFFFFFFFFFFFF AND PUSH20 0xFFFFFFFFFFFFFFFFFFFFFFFFFFFFFFFFFFFFFFFF AND PUSH4 0xAB5170B2 PUSH1 0x40 MLOAD DUP2 PUSH4 0xFFFFFFFF AND PUSH1 0xE0 SHL DUP2 MSTORE PUSH1 0x4 ADD PUSH1 0x0 PUSH1 0x40 MLOAD DUP1 DUP4 SUB DUP2 DUP7 DUP1 EXTCODESIZE ISZERO DUP1 ISZERO PUSH2 0x12C JUMPI PUSH1 0x0 DUP1 REVERT JUMPDEST POP GAS STATICCALL ISZERO DUP1 ISZERO PUSH2 0x140 JUMPI RETURNDATASIZE PUSH1 0x0 DUP1 RETURNDATACOPY RETURNDATASIZE PUSH1 0x0 REVERT JUMPDEST POP POP POP POP PUSH1 0x40 MLOAD RETURNDATASIZE PUSH1 0x0 DUP3 RETURNDATACOPY RETURNDATASIZE PUSH1 0x1F NOT PUSH1 0x1F DUP3 ADD AND DUP3 ADD DUP1 PUSH1 0x40 MSTORE POP DUP2 ADD SWAP1 PUSH2 0x169 SWAP2 SWAP1 PUSH2 0x207 JUMP JUMPDEST SWAP1 POP SWAP1 JUMP JUMPDEST PUSH1 0x0 DUP1 PUSH1 0x0 SWAP1 SLOAD SWAP1 PUSH2 0x100 EXP SWAP1 DIV PUSH20 0xFFFFFFFFFFFFFFFFFFFFFFFFFFFFFFFFFFFFFFFF AND SWAP1 POP SWAP1 JUMP JUMPDEST PUSH1 0x0 PUSH2 0x1AA PUSH2 0x1A5 DUP5 PUSH2 0x324 JUMP JUMPDEST PUSH2 0x2FF JUMP JUMPDEST SWAP1 POP DUP3 DUP2 MSTORE PUSH1 0x20 DUP2 ADD DUP5 DUP5 DUP5 ADD GT ISZERO PUSH2 0x1C6 JUMPI PUSH2 0x1C5 PUSH2 0x471 JUMP JUMPDEST JUMPDEST PUSH2 0x1D1 DUP5 DUP3 DUP6 PUSH2 0x3D9 JUMP JUMPDEST POP SWAP4 SWAP3 POP POP POP JUMP JUMPDEST PUSH1 0x0 DUP3 PUSH1 0x1F DUP4 ADD SLT PUSH2 0x1EE JUMPI PUSH2 0x1ED PUSH2 0x46C JUMP JUMPDEST JUMPDEST DUP2 MLOAD PUSH2 0x1FE DUP5 DUP3 PUSH1 0x20 DUP7 ADD PUSH2 0x197 JUMP JUMPDEST SWAP2 POP POP SWAP3 SWAP2 POP POP JUMP JUMPDEST PUSH1 0x0 PUSH1 0x20 DUP3 DUP5 SUB SLT ISZERO PUSH2 0x21D JUMPI PUSH2 0x21C PUSH2 0x47B JUMP JUMPDEST JUMPDEST PUSH1 0x0 DUP3 ADD MLOAD PUSH8 0xFFFFFFFFFFFFFFFF DUP2 GT ISZERO PUSH2 0x23B JUMPI PUSH2 0x23A PUSH2 0x476 JUMP JUMPDEST JUMPDEST PUSH2 0x247 DUP5 DUP3 DUP6 ADD PUSH2 0x1D9 JUMP JUMPDEST SWAP2 POP POP SWAP3 SWAP2 POP POP JUMP JUMPDEST PUSH2 0x259 DUP2 PUSH2 0x371 JUMP JUMPDEST DUP3 MSTORE POP POP JUMP JUMPDEST PUSH2 0x268 DUP2 PUSH2 0x3A3 JUMP JUMPDEST DUP3 MSTORE POP POP JUMP JUMPDEST PUSH1 0x0 PUSH2 0x279 DUP3 PUSH2 0x355 JUMP JUMPDEST PUSH2 0x283 DUP2 DUP6 PUSH2 0x360 JUMP JUMPDEST SWAP4 POP PUSH2 0x293 DUP2 DUP6 PUSH1 0x20 DUP7 ADD PUSH2 0x3D9 JUMP JUMPDEST PUSH2 0x29C DUP2 PUSH2 0x480 JUMP JUMPDEST DUP5 ADD SWAP2 POP POP SWAP3 SWAP2 POP POP JUMP JUMPDEST PUSH1 0x0 PUSH1 0x20 DUP3 ADD SWAP1 POP PUSH2 0x2BC PUSH1 0x0 DUP4 ADD DUP5 PUSH2 0x250 JUMP JUMPDEST SWAP3 SWAP2 POP POP JUMP JUMPDEST PUSH1 0x0 PUSH1 0x20 DUP3 ADD SWAP1 POP PUSH2 0x2D7 PUSH1 0x0 DUP4 ADD DUP5 PUSH2 0x25F JUMP JUMPDEST SWAP3 SWAP2 POP POP JUMP JUMPDEST PUSH1 0x0 PUSH1 0x20 DUP3 ADD SWAP1 POP DUP2 DUP2 SUB PUSH1 0x0 DUP4 ADD MSTORE PUSH2 0x2F7 DUP2 DUP5 PUSH2 0x26E JUMP JUMPDEST SWAP1 POP SWAP3 SWAP2 POP POP JUMP JUMPDEST PUSH1 0x0 PUSH2 0x309 PUSH2 0x31A JUMP JUMPDEST SWAP1 POP PUSH2 0x315 DUP3 DUP3 PUSH2 0x40C JUMP JUMPDEST SWAP2 SWAP1 POP JUMP JUMPDEST PUSH1 0x0 PUSH1 0x40 MLOAD SWAP1 POP SWAP1 JUMP JUMPDEST PUSH1 0x0 PUSH8 0xFFFFFFFFFFFFFFFF DUP3 GT ISZERO PUSH2 0x33F JUMPI PUSH2 0x33E PUSH2 0x43D JUMP JUMPDEST JUMPDEST PUSH2 0x348 DUP3 PUSH2 0x480 JUMP JUMPDEST SWAP1 POP PUSH1 0x20 DUP2 ADD SWAP1 POP SWAP2 SWAP1 POP JUMP JUMPDEST PUSH1 0x0 DUP2 MLOAD SWAP1 POP SWAP2 SWAP1 POP JUMP JUMPDEST PUSH1 0x0 DUP3 DUP3 MSTORE PUSH1 0x20 DUP3 ADD SWAP1 POP SWAP3 SWAP2 POP POP JUMP JUMPDEST PUSH1 0x0 PUSH2 0x37C DUP3 PUSH2 0x383 JUMP JUMPDEST SWAP1 POP SWAP2 SWAP1 POP JUMP JUMPDEST PUSH1 0x0 PUSH20 0xFFFFFFFFFFFFFFFFFFFFFFFFFFFFFFFFFFFFFFFF DUP3 AND SWAP1 POP SWAP2 SWAP1 POP JUMP JUMPDEST PUSH1 0x0 PUSH2 0x3AE DUP3 PUSH2 0x3B5 JUMP JUMPDEST SWAP1 POP SWAP2 SWAP1 POP JUMP JUMPDEST PUSH1 0x0 PUSH2 0x3C0 DUP3 PUSH2 0x3C7 JUMP JUMPDEST SWAP1 POP SWAP2 SWAP1 POP JUMP JUMPDEST PUSH1 0x0 PUSH2 0x3D2 DUP3 PUSH2 0x383 JUMP JUMPDEST SWAP1 POP SWAP2 SWAP1 POP JUMP JUMPDEST PUSH1 0x0 JUMPDEST DUP4 DUP2 LT ISZERO PUSH2 0x3F7 JUMPI DUP1 DUP3 ADD MLOAD DUP2 DUP5 ADD MSTORE PUSH1 0x20 DUP2 ADD SWAP1 POP PUSH2 0x3DC JUMP JUMPDEST DUP4 DUP2 GT ISZERO PUSH2 0x406 JUMPI PUSH1 0x0 DUP5 DUP5 ADD MSTORE JUMPDEST POP POP POP POP JUMP JUMPDEST PUSH2 0x415 DUP3 PUSH2 0x480 JUMP JUMPDEST DUP2 ADD DUP2 DUP2 LT PUSH8 0xFFFFFFFFFFFFFFFF DUP3 GT OR ISZERO PUSH2 0x434 JUMPI PUSH2 0x433 PUSH2 0x43D JUMP JUMPDEST JUMPDEST DUP1 PUSH1 0x40 MSTORE POP POP POP JUMP JUMPDEST PUSH32 0x4E487B7100000000000000000000000000000000000000000000000000000000 PUSH1 0x0 MSTORE PUSH1 0x41 PUSH1 0x4 MSTORE PUSH1 0x24 PUSH1 0x0 REVERT JUMPDEST PUSH1 0x0 DUP1 REVERT JUMPDEST PUSH1 0x0 DUP1 REVERT JUMPDEST PUSH1 0x0 DUP1 REVERT JUMPDEST PUSH1 0x0 DUP1 REVERT JUMPDEST PUSH1 0x0 PUSH1 0x1F NOT PUSH1 0x1F DUP4 ADD AND SWAP1 POP SWAP2 SWAP1 POP JUMP INVALID LOG2 PUSH5 0x6970667358 0x22 SLT KECCAK256 0x1F 0xBB 0xD6 PUSH5 0x687C3195E2 0xAE 0xBC SWAP5 0x21 DUP1 MSTORE8 0xCC 0xAF DUP8 DUP13 DUP9 JUMP SSTORE 0x24 SUB 0xAD PC SWAP5 0xD9 PUSH13 0x190D0464736F6C634300080700 CALLER "
				},
				"gasEstimates": {
					"creation": {
						"codeDepositCost": "244600",
						"executionCost": "infinite",
						"totalCost": "infinite"
					},
					"external": {
						"f()": "infinite",
						"g()": "2544",
						"hello()": "2575"
					}
				},
				"methodIdentifiers": {
					"f()": "26121ff0",
					"g()": "e2179b8e",
					"hello()": "19ff1d21"
				}
			},
			"storageLayout": {
				"storage": [
					{
						"astId": 17,
						"contract": "chapter02/9type3.sol:CallHello",
						"label": "hello",
						"offset": 0,
						"slot": "0",
						"type": "t_contract(HelloWorld)13"
					}
				],
				"types": {
					"t_contract(HelloWorld)13": {
						"encoding": "inplace",
						"label": "contract HelloWorld",
						"numberOfBytes": "20"
					}
				}
			},
			"userdoc": {
				"kind": "user",
				"methods": {},
				"version": 1
			}
		}
	}
}