{
	"chapter02/9type3.sol": {
		"type14": {
			"abi": [
				{
					"inputs": [],
					"name": "by",
					"outputs": [
						{
							"internalType": "bytes",
							"name": "",
							"type": "bytes"
						}
					],
					"stateMutability": "view",
					"type": "function"
				},
				{
					"inputs": [],
					"name": "contractaddr",
					"outputs": [
						{
							"internalType": "address",
							"name": "",
							"type": "address"
						}
					],
					"stateMutability": "view",
					"type": "function"
				},
				{
					"inputs": [
						{
							"internalType": "uint256",
							"name": "_a",
							"type": "uint256"
						}
					],
					"name": "setA",
					"outputs": [],
					"stateMutability": "nonpayable",
					"type": "function"
				},
				{
					"inputs": [],
					"name": "str",
					"outputs": [
						{
							"internalType": "string",
							"name": "",
							"type": "string"
						}
					],
					"stateMutability": "view",
					"type": "function"
				},
				{
					"inputs": [],
					"name": "str1",
					"outputs": [
						{
							"internalType": "string",
							"name": "",
							"type": "string"
						}
					],
					"stateMutability": "view",
					"type": "function"
				}
			],
			"devdoc": {
				"kind": "dev",
				"methods": {},
				"version": 1
			},
			"evm": {
				"assembly": "    /* \"chapter02/9type3.sol\":771:1140  contract type14{... */\n  mstore(0x40, 0x80)\n    /* \"chapter02/9type3.sol\":841:853  new type13() */\n  mload(0x40)\n  tag_1\n  swap1\n  tag_2\n  jump\t// in\ntag_1:\n  mload(0x40)\n  dup1\n  swap2\n  sub\n  swap1\n  0x00\n  create\n  dup1\n  iszero\n  dup1\n  iszero\n  tag_3\n  jumpi\n  returndatasize\n  0x00\n  dup1\n  returndatacopy\n  revert(0x00, returndatasize)\ntag_3:\n  pop\n    /* \"chapter02/9type3.sol\":830:853  type13 t = new type13() */\n  0x00\n  dup1\n  0x0100\n  exp\n  dup2\n  sload\n  dup2\n  0xffffffffffffffffffffffffffffffffffffffff\n  mul\n  not\n  and\n  swap1\n  dup4\n  0xffffffffffffffffffffffffffffffffffffffff\n  and\n  mul\n  or\n  swap1\n  sstore\n  pop\n    /* \"chapter02/9type3.sol\":897:898  t */\n  0x00\n  dup1\n  sload\n  swap1\n  0x0100\n  exp\n  swap1\n  div\n  0xffffffffffffffffffffffffffffffffffffffff\n  and\n    /* \"chapter02/9type3.sol\":859:899  address public contractaddr = address(t) */\n  0x01\n  exp(0x0100, 0x00)\n  dup2\n  sload\n  dup2\n  0xffffffffffffffffffffffffffffffffffffffff\n  mul\n  not\n  and\n  swap1\n  dup4\n  0xffffffffffffffffffffffffffffffffffffffff\n  and\n  mul\n  or\n  swap1\n  sstore\n  pop\n    /* \"chapter02/9type3.sol\":962:963  t */\n  0x00\n  dup1\n  sload\n  swap1\n  0x0100\n  exp\n  swap1\n  div\n  0xffffffffffffffffffffffffffffffffffffffff\n  and\n    /* \"chapter02/9type3.sol\":962:979  t.getContractName */\n  0xffffffffffffffffffffffffffffffffffffffff\n  and\n  0xf5f5ba72\n    /* \"chapter02/9type3.sol\":962:981  t.getContractName() */\n  mload(0x40)\n  dup2\n  0xffffffff\n  and\n  0xe0\n  shl\n  dup2\n  mstore\n  0x04\n  add\n  0x00\n  mload(0x40)\n  dup1\n  dup4\n  sub\n  dup2\n  dup7\n  dup1\n  extcodesize\n  iszero\n  dup1\n  iszero\n  tag_4\n  jumpi\n  0x00\n  dup1\n  revert\ntag_4:\n  pop\n  gas\n  staticcall\n  iszero\n  dup1\n  iszero\n  tag_6\n  jumpi\n  returndatasize\n  0x00\n  dup1\n  returndatacopy\n  revert(0x00, returndatasize)\ntag_6:\n  pop\n  pop\n  pop\n  pop\n  mload(0x40)\n  returndatasize\n  0x00\n  dup3\n  returndatacopy\n  returndatasize\n  not(0x1f)\n  0x1f\n  dup3\n  add\n  and\n  dup3\n  add\n  dup1\n  0x40\n  mstore\n  pop\n  dup2\n  add\n  swap1\n  tag_7\n  swap2\n  swap1\n  tag_8\n  jump\t// in\ntag_7:\n    /* \"chapter02/9type3.sol\":942:981  string public str = t.getContractName() */\n  0x02\n  swap1\n  dup1\n  mload\n  swap1\n  0x20\n  add\n  swap1\n  tag_9\n  swap3\n  swap2\n  swap1\n  tag_10\n  jump\t// in\ntag_9:\n  pop\n    /* \"chapter02/9type3.sol\":1071:1088  type(type13).name */\n  mload(0x40)\n  dup1\n  0x40\n  add\n  0x40\n  mstore\n  0x06\n  dup2\n  mstore\n  dup1\n  0x20\n  add\n  0x7479706531330000000000000000000000000000000000000000000000000000\n  dup2\n  mstore\n  pop\n    /* \"chapter02/9type3.sol\":1050:1088  string public str1 = type(type13).name */\n  0x03\n  swap1\n  dup1\n  mload\n  swap1\n  0x20\n  add\n  swap1\n  tag_11\n  swap3\n  swap2\n  swap1\n  tag_10\n  jump\t// in\ntag_11:\n  pop\n    /* \"chapter02/9type3.sol\":1112:1137  type(type13).creationCode */\n  mload(0x40)\n  dup1\n  0x20\n  add\n  tag_12\n  swap1\n  tag_2\n  jump\t// in\ntag_12:\n  0x20\n  dup3\n  add\n  dup2\n  sub\n  dup3\n  mstore\n  not(0x1f)\n  0x1f\n  dup3\n  add\n  and\n  0x40\n  mstore\n  pop\n    /* \"chapter02/9type3.sol\":1094:1137  bytes public by = type(type13).creationCode */\n  0x04\n  swap1\n  dup1\n  mload\n  swap1\n  0x20\n  add\n  swap1\n  tag_13\n  swap3\n  swap2\n  swap1\n  tag_14\n  jump\t// in\ntag_13:\n  pop\n    /* \"chapter02/9type3.sol\":771:1140  contract type14{... */\n  callvalue\n  dup1\n  iszero\n  tag_15\n  jumpi\n  0x00\n  dup1\n  revert\ntag_15:\n  pop\n  jump(tag_16)\ntag_2:\n  dataSize(sub_1)\n  dup1\n  dataOffset(sub_1)\n  dup4\n  codecopy\n  add\n  swap1\n  jump\t// out\ntag_10:\n  dup3\n  dup1\n  sload\n  tag_17\n  swap1\n  tag_18\n  jump\t// in\ntag_17:\n  swap1\n  0x00\n  mstore\n  keccak256(0x00, 0x20)\n  swap1\n  0x1f\n  add\n  0x20\n  swap1\n  div\n  dup2\n  add\n  swap3\n  dup3\n  tag_20\n  jumpi\n  0x00\n  dup6\n  sstore\n  jump(tag_19)\ntag_20:\n  dup3\n  0x1f\n  lt\n  tag_21\n  jumpi\n  dup1\n  mload\n  not(0xff)\n  and\n  dup4\n  dup1\n  add\n  or\n  dup6\n  sstore\n  jump(tag_19)\ntag_21:\n  dup3\n  dup1\n  add\n  0x01\n  add\n  dup6\n  sstore\n  dup3\n  iszero\n  tag_19\n  jumpi\n  swap2\n  dup3\n  add\ntag_22:\n  dup3\n  dup2\n  gt\n  iszero\n  tag_23\n  jumpi\n  dup3\n  mload\n  dup3\n  sstore\n  swap2\n  0x20\n  add\n  swap2\n  swap1\n  0x01\n  add\n  swap1\n  jump(tag_22)\ntag_23:\ntag_19:\n  pop\n  swap1\n  pop\n  tag_24\n  swap2\n  swap1\n  tag_25\n  jump\t// in\ntag_24:\n  pop\n  swap1\n  jump\t// out\ntag_14:\n  dup3\n  dup1\n  sload\n  tag_26\n  swap1\n  tag_18\n  jump\t// in\ntag_26:\n  swap1\n  0x00\n  mstore\n  keccak256(0x00, 0x20)\n  swap1\n  0x1f\n  add\n  0x20\n  swap1\n  div\n  dup2\n  add\n  swap3\n  dup3\n  tag_28\n  jumpi\n  0x00\n  dup6\n  sstore\n  jump(tag_27)\ntag_28:\n  dup3\n  0x1f\n  lt\n  tag_29\n  jumpi\n  dup1\n  mload\n  not(0xff)\n  and\n  dup4\n  dup1\n  add\n  or\n  dup6\n  sstore\n  jump(tag_27)\ntag_29:\n  dup3\n  dup1\n  add\n  0x01\n  add\n  dup6\n  sstore\n  dup3\n  iszero\n  tag_27\n  jumpi\n  swap2\n  dup3\n  add\ntag_30:\n  dup3\n  dup2\n  gt\n  iszero\n  tag_31\n  jumpi\n  dup3\n  mload\n  dup3\n  sstore\n  swap2\n  0x20\n  add\n  swap2\n  swap1\n  0x01\n  add\n  swap1\n  jump(tag_30)\ntag_31:\ntag_27:\n  pop\n  swap1\n  pop\n  tag_32\n  swap2\n  swap1\n  tag_25\n  jump\t// in\ntag_32:\n  pop\n  swap1\n  jump\t// out\ntag_25:\ntag_33:\n  dup1\n  dup3\n  gt\n  iszero\n  tag_34\n  jumpi\n  0x00\n  dup2\n  0x00\n  swap1\n  sstore\n  pop\n  0x01\n  add\n  jump(tag_33)\ntag_34:\n  pop\n  swap1\n  jump\t// out\n    /* \"#utility.yul\":7:428   */\ntag_36:\n    /* \"#utility.yul\":96:101   */\n  0x00\n    /* \"#utility.yul\":121:187   */\n  tag_38\n    /* \"#utility.yul\":137:186   */\n  tag_39\n    /* \"#utility.yul\":179:185   */\n  dup5\n    /* \"#utility.yul\":137:186   */\n  tag_40\n  jump\t// in\ntag_39:\n    /* \"#utility.yul\":121:187   */\n  tag_41\n  jump\t// in\ntag_38:\n    /* \"#utility.yul\":112:187   */\n  swap1\n  pop\n    /* \"#utility.yul\":210:216   */\n  dup3\n    /* \"#utility.yul\":203:208   */\n  dup2\n    /* \"#utility.yul\":196:217   */\n  mstore\n    /* \"#utility.yul\":248:252   */\n  0x20\n    /* \"#utility.yul\":241:246   */\n  dup2\n    /* \"#utility.yul\":237:253   */\n  add\n    /* \"#utility.yul\":286:289   */\n  dup5\n    /* \"#utility.yul\":277:283   */\n  dup5\n    /* \"#utility.yul\":272:275   */\n  dup5\n    /* \"#utility.yul\":268:284   */\n  add\n    /* \"#utility.yul\":265:290   */\n  gt\n    /* \"#utility.yul\":262:374   */\n  iszero\n  tag_42\n  jumpi\n    /* \"#utility.yul\":293:372   */\n  tag_43\n  tag_44\n  jump\t// in\ntag_43:\n    /* \"#utility.yul\":262:374   */\ntag_42:\n    /* \"#utility.yul\":383:422   */\n  tag_45\n    /* \"#utility.yul\":415:421   */\n  dup5\n    /* \"#utility.yul\":410:413   */\n  dup3\n    /* \"#utility.yul\":405:408   */\n  dup6\n    /* \"#utility.yul\":383:422   */\n  tag_46\n  jump\t// in\ntag_45:\n    /* \"#utility.yul\":102:428   */\n  pop\n    /* \"#utility.yul\":7:428   */\n  swap4\n  swap3\n  pop\n  pop\n  pop\n  jump\t// out\n    /* \"#utility.yul\":448:803   */\ntag_47:\n    /* \"#utility.yul\":515:520   */\n  0x00\n    /* \"#utility.yul\":564:567   */\n  dup3\n    /* \"#utility.yul\":557:561   */\n  0x1f\n    /* \"#utility.yul\":549:555   */\n  dup4\n    /* \"#utility.yul\":545:562   */\n  add\n    /* \"#utility.yul\":541:568   */\n  slt\n    /* \"#utility.yul\":531:653   */\n  tag_49\n  jumpi\n    /* \"#utility.yul\":572:651   */\n  tag_50\n  tag_51\n  jump\t// in\ntag_50:\n    /* \"#utility.yul\":531:653   */\ntag_49:\n    /* \"#utility.yul\":682:688   */\n  dup2\n    /* \"#utility.yul\":676:689   */\n  mload\n    /* \"#utility.yul\":707:797   */\n  tag_52\n    /* \"#utility.yul\":793:796   */\n  dup5\n    /* \"#utility.yul\":785:791   */\n  dup3\n    /* \"#utility.yul\":778:782   */\n  0x20\n    /* \"#utility.yul\":770:776   */\n  dup7\n    /* \"#utility.yul\":766:783   */\n  add\n    /* \"#utility.yul\":707:797   */\n  tag_36\n  jump\t// in\ntag_52:\n    /* \"#utility.yul\":698:797   */\n  swap2\n  pop\n    /* \"#utility.yul\":521:803   */\n  pop\n    /* \"#utility.yul\":448:803   */\n  swap3\n  swap2\n  pop\n  pop\n  jump\t// out\n    /* \"#utility.yul\":809:1333   */\ntag_8:\n    /* \"#utility.yul\":889:895   */\n  0x00\n    /* \"#utility.yul\":938:940   */\n  0x20\n    /* \"#utility.yul\":926:935   */\n  dup3\n    /* \"#utility.yul\":917:924   */\n  dup5\n    /* \"#utility.yul\":913:936   */\n  sub\n    /* \"#utility.yul\":909:941   */\n  slt\n    /* \"#utility.yul\":906:1025   */\n  iszero\n  tag_54\n  jumpi\n    /* \"#utility.yul\":944:1023   */\n  tag_55\n  tag_56\n  jump\t// in\ntag_55:\n    /* \"#utility.yul\":906:1025   */\ntag_54:\n    /* \"#utility.yul\":1085:1086   */\n  0x00\n    /* \"#utility.yul\":1074:1083   */\n  dup3\n    /* \"#utility.yul\":1070:1087   */\n  add\n    /* \"#utility.yul\":1064:1088   */\n  mload\n    /* \"#utility.yul\":1115:1133   */\n  0xffffffffffffffff\n    /* \"#utility.yul\":1107:1113   */\n  dup2\n    /* \"#utility.yul\":1104:1134   */\n  gt\n    /* \"#utility.yul\":1101:1218   */\n  iszero\n  tag_57\n  jumpi\n    /* \"#utility.yul\":1137:1216   */\n  tag_58\n  tag_59\n  jump\t// in\ntag_58:\n    /* \"#utility.yul\":1101:1218   */\ntag_57:\n    /* \"#utility.yul\":1242:1316   */\n  tag_60\n    /* \"#utility.yul\":1308:1315   */\n  dup5\n    /* \"#utility.yul\":1299:1305   */\n  dup3\n    /* \"#utility.yul\":1288:1297   */\n  dup6\n    /* \"#utility.yul\":1284:1306   */\n  add\n    /* \"#utility.yul\":1242:1316   */\n  tag_47\n  jump\t// in\ntag_60:\n    /* \"#utility.yul\":1232:1316   */\n  swap2\n  pop\n    /* \"#utility.yul\":1035:1326   */\n  pop\n    /* \"#utility.yul\":809:1333   */\n  swap3\n  swap2\n  pop\n  pop\n  jump\t// out\n    /* \"#utility.yul\":1339:1468   */\ntag_41:\n    /* \"#utility.yul\":1373:1379   */\n  0x00\n    /* \"#utility.yul\":1400:1420   */\n  tag_62\n  tag_63\n  jump\t// in\ntag_62:\n    /* \"#utility.yul\":1390:1420   */\n  swap1\n  pop\n    /* \"#utility.yul\":1429:1462   */\n  tag_64\n    /* \"#utility.yul\":1457:1461   */\n  dup3\n    /* \"#utility.yul\":1449:1455   */\n  dup3\n    /* \"#utility.yul\":1429:1462   */\n  tag_65\n  jump\t// in\ntag_64:\n    /* \"#utility.yul\":1339:1468   */\n  swap2\n  swap1\n  pop\n  jump\t// out\n    /* \"#utility.yul\":1474:1549   */\ntag_63:\n    /* \"#utility.yul\":1507:1513   */\n  0x00\n    /* \"#utility.yul\":1540:1542   */\n  0x40\n    /* \"#utility.yul\":1534:1543   */\n  mload\n    /* \"#utility.yul\":1524:1543   */\n  swap1\n  pop\n    /* \"#utility.yul\":1474:1549   */\n  swap1\n  jump\t// out\n    /* \"#utility.yul\":1555:1863   */\ntag_40:\n    /* \"#utility.yul\":1617:1621   */\n  0x00\n    /* \"#utility.yul\":1707:1725   */\n  0xffffffffffffffff\n    /* \"#utility.yul\":1699:1705   */\n  dup3\n    /* \"#utility.yul\":1696:1726   */\n  gt\n    /* \"#utility.yul\":1693:1749   */\n  iszero\n  tag_68\n  jumpi\n    /* \"#utility.yul\":1729:1747   */\n  tag_69\n  tag_70\n  jump\t// in\ntag_69:\n    /* \"#utility.yul\":1693:1749   */\ntag_68:\n    /* \"#utility.yul\":1767:1796   */\n  tag_71\n    /* \"#utility.yul\":1789:1795   */\n  dup3\n    /* \"#utility.yul\":1767:1796   */\n  tag_72\n  jump\t// in\ntag_71:\n    /* \"#utility.yul\":1759:1796   */\n  swap1\n  pop\n    /* \"#utility.yul\":1851:1855   */\n  0x20\n    /* \"#utility.yul\":1845:1849   */\n  dup2\n    /* \"#utility.yul\":1841:1856   */\n  add\n    /* \"#utility.yul\":1833:1856   */\n  swap1\n  pop\n    /* \"#utility.yul\":1555:1863   */\n  swap2\n  swap1\n  pop\n  jump\t// out\n    /* \"#utility.yul\":1869:2176   */\ntag_46:\n    /* \"#utility.yul\":1937:1938   */\n  0x00\n    /* \"#utility.yul\":1947:2060   */\ntag_74:\n    /* \"#utility.yul\":1961:1967   */\n  dup4\n    /* \"#utility.yul\":1958:1959   */\n  dup2\n    /* \"#utility.yul\":1955:1968   */\n  lt\n    /* \"#utility.yul\":1947:2060   */\n  iszero\n  tag_76\n  jumpi\n    /* \"#utility.yul\":2046:2047   */\n  dup1\n    /* \"#utility.yul\":2041:2044   */\n  dup3\n    /* \"#utility.yul\":2037:2048   */\n  add\n    /* \"#utility.yul\":2031:2049   */\n  mload\n    /* \"#utility.yul\":2027:2028   */\n  dup2\n    /* \"#utility.yul\":2022:2025   */\n  dup5\n    /* \"#utility.yul\":2018:2029   */\n  add\n    /* \"#utility.yul\":2011:2050   */\n  mstore\n    /* \"#utility.yul\":1983:1985   */\n  0x20\n    /* \"#utility.yul\":1980:1981   */\n  dup2\n    /* \"#utility.yul\":1976:1986   */\n  add\n    /* \"#utility.yul\":1971:1986   */\n  swap1\n  pop\n    /* \"#utility.yul\":1947:2060   */\n  jump(tag_74)\ntag_76:\n    /* \"#utility.yul\":2078:2084   */\n  dup4\n    /* \"#utility.yul\":2075:2076   */\n  dup2\n    /* \"#utility.yul\":2072:2085   */\n  gt\n    /* \"#utility.yul\":2069:2170   */\n  iszero\n  tag_77\n  jumpi\n    /* \"#utility.yul\":2158:2159   */\n  0x00\n    /* \"#utility.yul\":2149:2155   */\n  dup5\n    /* \"#utility.yul\":2144:2147   */\n  dup5\n    /* \"#utility.yul\":2140:2156   */\n  add\n    /* \"#utility.yul\":2133:2160   */\n  mstore\n    /* \"#utility.yul\":2069:2170   */\ntag_77:\n    /* \"#utility.yul\":1918:2176   */\n  pop\n    /* \"#utility.yul\":1869:2176   */\n  pop\n  pop\n  pop\n  jump\t// out\n    /* \"#utility.yul\":2182:2502   */\ntag_18:\n    /* \"#utility.yul\":2226:2232   */\n  0x00\n    /* \"#utility.yul\":2263:2264   */\n  0x02\n    /* \"#utility.yul\":2257:2261   */\n  dup3\n    /* \"#utility.yul\":2253:2265   */\n  div\n    /* \"#utility.yul\":2243:2265   */\n  swap1\n  pop\n    /* \"#utility.yul\":2310:2311   */\n  0x01\n    /* \"#utility.yul\":2304:2308   */\n  dup3\n    /* \"#utility.yul\":2300:2312   */\n  and\n    /* \"#utility.yul\":2331:2349   */\n  dup1\n    /* \"#utility.yul\":2321:2402   */\n  tag_79\n  jumpi\n    /* \"#utility.yul\":2387:2391   */\n  0x7f\n    /* \"#utility.yul\":2379:2385   */\n  dup3\n    /* \"#utility.yul\":2375:2392   */\n  and\n    /* \"#utility.yul\":2365:2392   */\n  swap2\n  pop\n    /* \"#utility.yul\":2321:2402   */\ntag_79:\n    /* \"#utility.yul\":2449:2451   */\n  0x20\n    /* \"#utility.yul\":2441:2447   */\n  dup3\n    /* \"#utility.yul\":2438:2452   */\n  lt\n    /* \"#utility.yul\":2418:2436   */\n  dup2\n    /* \"#utility.yul\":2415:2453   */\n  eq\n    /* \"#utility.yul\":2412:2496   */\n  iszero\n  tag_80\n  jumpi\n    /* \"#utility.yul\":2468:2486   */\n  tag_81\n  tag_82\n  jump\t// in\ntag_81:\n    /* \"#utility.yul\":2412:2496   */\ntag_80:\n    /* \"#utility.yul\":2233:2502   */\n  pop\n    /* \"#utility.yul\":2182:2502   */\n  swap2\n  swap1\n  pop\n  jump\t// out\n    /* \"#utility.yul\":2508:2789   */\ntag_65:\n    /* \"#utility.yul\":2591:2618   */\n  tag_84\n    /* \"#utility.yul\":2613:2617   */\n  dup3\n    /* \"#utility.yul\":2591:2618   */\n  tag_72\n  jump\t// in\ntag_84:\n    /* \"#utility.yul\":2583:2589   */\n  dup2\n    /* \"#utility.yul\":2579:2619   */\n  add\n    /* \"#utility.yul\":2721:2727   */\n  dup2\n    /* \"#utility.yul\":2709:2719   */\n  dup2\n    /* \"#utility.yul\":2706:2728   */\n  lt\n    /* \"#utility.yul\":2685:2703   */\n  0xffffffffffffffff\n    /* \"#utility.yul\":2673:2683   */\n  dup3\n    /* \"#utility.yul\":2670:2704   */\n  gt\n    /* \"#utility.yul\":2667:2729   */\n  or\n    /* \"#utility.yul\":2664:2752   */\n  iszero\n  tag_85\n  jumpi\n    /* \"#utility.yul\":2732:2750   */\n  tag_86\n  tag_70\n  jump\t// in\ntag_86:\n    /* \"#utility.yul\":2664:2752   */\ntag_85:\n    /* \"#utility.yul\":2772:2782   */\n  dup1\n    /* \"#utility.yul\":2768:2770   */\n  0x40\n    /* \"#utility.yul\":2761:2783   */\n  mstore\n    /* \"#utility.yul\":2551:2789   */\n  pop\n    /* \"#utility.yul\":2508:2789   */\n  pop\n  pop\n  jump\t// out\n    /* \"#utility.yul\":2795:2975   */\ntag_82:\n    /* \"#utility.yul\":2843:2920   */\n  0x4e487b7100000000000000000000000000000000000000000000000000000000\n    /* \"#utility.yul\":2840:2841   */\n  0x00\n    /* \"#utility.yul\":2833:2921   */\n  mstore\n    /* \"#utility.yul\":2940:2944   */\n  0x22\n    /* \"#utility.yul\":2937:2938   */\n  0x04\n    /* \"#utility.yul\":2930:2945   */\n  mstore\n    /* \"#utility.yul\":2964:2968   */\n  0x24\n    /* \"#utility.yul\":2961:2962   */\n  0x00\n    /* \"#utility.yul\":2954:2969   */\n  revert\n    /* \"#utility.yul\":2981:3161   */\ntag_70:\n    /* \"#utility.yul\":3029:3106   */\n  0x4e487b7100000000000000000000000000000000000000000000000000000000\n    /* \"#utility.yul\":3026:3027   */\n  0x00\n    /* \"#utility.yul\":3019:3107   */\n  mstore\n    /* \"#utility.yul\":3126:3130   */\n  0x41\n    /* \"#utility.yul\":3123:3124   */\n  0x04\n    /* \"#utility.yul\":3116:3131   */\n  mstore\n    /* \"#utility.yul\":3150:3154   */\n  0x24\n    /* \"#utility.yul\":3147:3148   */\n  0x00\n    /* \"#utility.yul\":3140:3155   */\n  revert\n    /* \"#utility.yul\":3167:3284   */\ntag_51:\n    /* \"#utility.yul\":3276:3277   */\n  0x00\n    /* \"#utility.yul\":3273:3274   */\n  dup1\n    /* \"#utility.yul\":3266:3278   */\n  revert\n    /* \"#utility.yul\":3290:3407   */\ntag_44:\n    /* \"#utility.yul\":3399:3400   */\n  0x00\n    /* \"#utility.yul\":3396:3397   */\n  dup1\n    /* \"#utility.yul\":3389:3401   */\n  revert\n    /* \"#utility.yul\":3413:3530   */\ntag_59:\n    /* \"#utility.yul\":3522:3523   */\n  0x00\n    /* \"#utility.yul\":3519:3520   */\n  dup1\n    /* \"#utility.yul\":3512:3524   */\n  revert\n    /* \"#utility.yul\":3536:3653   */\ntag_56:\n    /* \"#utility.yul\":3645:3646   */\n  0x00\n    /* \"#utility.yul\":3642:3643   */\n  dup1\n    /* \"#utility.yul\":3635:3647   */\n  revert\n    /* \"#utility.yul\":3659:3761   */\ntag_72:\n    /* \"#utility.yul\":3700:3706   */\n  0x00\n    /* \"#utility.yul\":3751:3753   */\n  0x1f\n    /* \"#utility.yul\":3747:3754   */\n  not\n    /* \"#utility.yul\":3742:3744   */\n  0x1f\n    /* \"#utility.yul\":3735:3740   */\n  dup4\n    /* \"#utility.yul\":3731:3745   */\n  add\n    /* \"#utility.yul\":3727:3755   */\n  and\n    /* \"#utility.yul\":3717:3755   */\n  swap1\n  pop\n    /* \"#utility.yul\":3659:3761   */\n  swap2\n  swap1\n  pop\n  jump\t// out\n    /* \"chapter02/9type3.sol\":771:1140  contract type14{... */\ntag_16:\n  dataSize(sub_0)\n  dup1\n  dataOffset(sub_0)\n  0x00\n  codecopy\n  0x00\n  return\nstop\n\nsub_0: assembly {\n        /* \"chapter02/9type3.sol\":771:1140  contract type14{... */\n      mstore(0x40, 0x80)\n      callvalue\n      dup1\n      iszero\n      tag_1\n      jumpi\n      0x00\n      dup1\n      revert\n    tag_1:\n      pop\n      jumpi(tag_2, lt(calldatasize, 0x04))\n      shr(0xe0, calldataload(0x00))\n      dup1\n      0x7c000138\n      eq\n      tag_3\n      jumpi\n      dup1\n      0xc15bae84\n      eq\n      tag_4\n      jumpi\n      dup1\n      0xd01bb4d5\n      eq\n      tag_5\n      jumpi\n      dup1\n      0xd118d187\n      eq\n      tag_6\n      jumpi\n      dup1\n      0xee919d50\n      eq\n      tag_7\n      jumpi\n    tag_2:\n      0x00\n      dup1\n      revert\n        /* \"chapter02/9type3.sol\":1094:1137  bytes public by = type(type13).creationCode */\n    tag_3:\n      tag_8\n      tag_9\n      jump\t// in\n    tag_8:\n      mload(0x40)\n      tag_10\n      swap2\n      swap1\n      tag_11\n      jump\t// in\n    tag_10:\n      mload(0x40)\n      dup1\n      swap2\n      sub\n      swap1\n      return\n        /* \"chapter02/9type3.sol\":942:981  string public str = t.getContractName() */\n    tag_4:\n      tag_12\n      tag_13\n      jump\t// in\n    tag_12:\n      mload(0x40)\n      tag_14\n      swap2\n      swap1\n      tag_15\n      jump\t// in\n    tag_14:\n      mload(0x40)\n      dup1\n      swap2\n      sub\n      swap1\n      return\n        /* \"chapter02/9type3.sol\":859:899  address public contractaddr = address(t) */\n    tag_5:\n      tag_16\n      tag_17\n      jump\t// in\n    tag_16:\n      mload(0x40)\n      tag_18\n      swap2\n      swap1\n      tag_19\n      jump\t// in\n    tag_18:\n      mload(0x40)\n      dup1\n      swap2\n      sub\n      swap1\n      return\n        /* \"chapter02/9type3.sol\":1050:1088  string public str1 = type(type13).name */\n    tag_6:\n      tag_20\n      tag_21\n      jump\t// in\n    tag_20:\n      mload(0x40)\n      tag_22\n      swap2\n      swap1\n      tag_15\n      jump\t// in\n    tag_22:\n      mload(0x40)\n      dup1\n      swap2\n      sub\n      swap1\n      return\n        /* \"chapter02/9type3.sol\":987:1045  function setA(uint _a)external {... */\n    tag_7:\n      tag_23\n      0x04\n      dup1\n      calldatasize\n      sub\n      dup2\n      add\n      swap1\n      tag_24\n      swap2\n      swap1\n      tag_25\n      jump\t// in\n    tag_24:\n      tag_26\n      jump\t// in\n    tag_23:\n      stop\n        /* \"chapter02/9type3.sol\":1094:1137  bytes public by = type(type13).creationCode */\n    tag_9:\n      0x04\n      dup1\n      sload\n      tag_27\n      swap1\n      tag_28\n      jump\t// in\n    tag_27:\n      dup1\n      0x1f\n      add\n      0x20\n      dup1\n      swap2\n      div\n      mul\n      0x20\n      add\n      mload(0x40)\n      swap1\n      dup2\n      add\n      0x40\n      mstore\n      dup1\n      swap3\n      swap2\n      swap1\n      dup2\n      dup2\n      mstore\n      0x20\n      add\n      dup3\n      dup1\n      sload\n      tag_29\n      swap1\n      tag_28\n      jump\t// in\n    tag_29:\n      dup1\n      iszero\n      tag_30\n      jumpi\n      dup1\n      0x1f\n      lt\n      tag_31\n      jumpi\n      0x0100\n      dup1\n      dup4\n      sload\n      div\n      mul\n      dup4\n      mstore\n      swap2\n      0x20\n      add\n      swap2\n      jump(tag_30)\n    tag_31:\n      dup3\n      add\n      swap2\n      swap1\n      0x00\n      mstore\n      keccak256(0x00, 0x20)\n      swap1\n    tag_32:\n      dup2\n      sload\n      dup2\n      mstore\n      swap1\n      0x01\n      add\n      swap1\n      0x20\n      add\n      dup1\n      dup4\n      gt\n      tag_32\n      jumpi\n      dup3\n      swap1\n      sub\n      0x1f\n      and\n      dup3\n      add\n      swap2\n    tag_30:\n      pop\n      pop\n      pop\n      pop\n      pop\n      dup2\n      jump\t// out\n        /* \"chapter02/9type3.sol\":942:981  string public str = t.getContractName() */\n    tag_13:\n      0x02\n      dup1\n      sload\n      tag_33\n      swap1\n      tag_28\n      jump\t// in\n    tag_33:\n      dup1\n      0x1f\n      add\n      0x20\n      dup1\n      swap2\n      div\n      mul\n      0x20\n      add\n      mload(0x40)\n      swap1\n      dup2\n      add\n      0x40\n      mstore\n      dup1\n      swap3\n      swap2\n      swap1\n      dup2\n      dup2\n      mstore\n      0x20\n      add\n      dup3\n      dup1\n      sload\n      tag_34\n      swap1\n      tag_28\n      jump\t// in\n    tag_34:\n      dup1\n      iszero\n      tag_35\n      jumpi\n      dup1\n      0x1f\n      lt\n      tag_36\n      jumpi\n      0x0100\n      dup1\n      dup4\n      sload\n      div\n      mul\n      dup4\n      mstore\n      swap2\n      0x20\n      add\n      swap2\n      jump(tag_35)\n    tag_36:\n      dup3\n      add\n      swap2\n      swap1\n      0x00\n      mstore\n      keccak256(0x00, 0x20)\n      swap1\n    tag_37:\n      dup2\n      sload\n      dup2\n      mstore\n      swap1\n      0x01\n      add\n      swap1\n      0x20\n      add\n      dup1\n      dup4\n      gt\n      tag_37\n      jumpi\n      dup3\n      swap1\n      sub\n      0x1f\n      and\n      dup3\n      add\n      swap2\n    tag_35:\n      pop\n      pop\n      pop\n      pop\n      pop\n      dup2\n      jump\t// out\n        /* \"chapter02/9type3.sol\":859:899  address public contractaddr = address(t) */\n    tag_17:\n      0x01\n      0x00\n      swap1\n      sload\n      swap1\n      0x0100\n      exp\n      swap1\n      div\n      0xffffffffffffffffffffffffffffffffffffffff\n      and\n      dup2\n      jump\t// out\n        /* \"chapter02/9type3.sol\":1050:1088  string public str1 = type(type13).name */\n    tag_21:\n      0x03\n      dup1\n      sload\n      tag_38\n      swap1\n      tag_28\n      jump\t// in\n    tag_38:\n      dup1\n      0x1f\n      add\n      0x20\n      dup1\n      swap2\n      div\n      mul\n      0x20\n      add\n      mload(0x40)\n      swap1\n      dup2\n      add\n      0x40\n      mstore\n      dup1\n      swap3\n      swap2\n      swap1\n      dup2\n      dup2\n      mstore\n      0x20\n      add\n      dup3\n      dup1\n      sload\n      tag_39\n      swap1\n      tag_28\n      jump\t// in\n    tag_39:\n      dup1\n      iszero\n      tag_40\n      jumpi\n      dup1\n      0x1f\n      lt\n      tag_41\n      jumpi\n      0x0100\n      dup1\n      dup4\n      sload\n      div\n      mul\n      dup4\n      mstore\n      swap2\n      0x20\n      add\n      swap2\n      jump(tag_40)\n    tag_41:\n      dup3\n      add\n      swap2\n      swap1\n      0x00\n      mstore\n      keccak256(0x00, 0x20)\n      swap1\n    tag_42:\n      dup2\n      sload\n      dup2\n      mstore\n      swap1\n      0x01\n      add\n      swap1\n      0x20\n      add\n      dup1\n      dup4\n      gt\n      tag_42\n      jumpi\n      dup3\n      swap1\n      sub\n      0x1f\n      and\n      dup3\n      add\n      swap2\n    tag_40:\n      pop\n      pop\n      pop\n      pop\n      pop\n      dup2\n      jump\t// out\n        /* \"chapter02/9type3.sol\":987:1045  function setA(uint _a)external {... */\n    tag_26:\n        /* \"chapter02/9type3.sol\":1028:1029  t */\n      0x00\n      dup1\n      sload\n      swap1\n      0x0100\n      exp\n      swap1\n      div\n      0xffffffffffffffffffffffffffffffffffffffff\n      and\n        /* \"chapter02/9type3.sol\":1028:1034  t.setA */\n      0xffffffffffffffffffffffffffffffffffffffff\n      and\n      0xee919d50\n        /* \"chapter02/9type3.sol\":1035:1037  _a */\n      dup3\n        /* \"chapter02/9type3.sol\":1028:1038  t.setA(_a) */\n      mload(0x40)\n      dup3\n      0xffffffff\n      and\n      0xe0\n      shl\n      dup2\n      mstore\n      0x04\n      add\n      tag_44\n      swap2\n      swap1\n      tag_45\n      jump\t// in\n    tag_44:\n      0x00\n      mload(0x40)\n      dup1\n      dup4\n      sub\n      dup2\n      0x00\n      dup8\n      dup1\n      extcodesize\n      iszero\n      dup1\n      iszero\n      tag_46\n      jumpi\n      0x00\n      dup1\n      revert\n    tag_46:\n      pop\n      gas\n      call\n      iszero\n      dup1\n      iszero\n      tag_48\n      jumpi\n      returndatasize\n      0x00\n      dup1\n      returndatacopy\n      revert(0x00, returndatasize)\n    tag_48:\n      pop\n      pop\n      pop\n      pop\n        /* \"chapter02/9type3.sol\":987:1045  function setA(uint _a)external {... */\n      pop\n      jump\t// out\n        /* \"#utility.yul\":7:146   */\n    tag_50:\n        /* \"#utility.yul\":53:58   */\n      0x00\n        /* \"#utility.yul\":91:97   */\n      dup2\n        /* \"#utility.yul\":78:98   */\n      calldataload\n        /* \"#utility.yul\":69:98   */\n      swap1\n      pop\n        /* \"#utility.yul\":107:140   */\n      tag_52\n        /* \"#utility.yul\":134:139   */\n      dup2\n        /* \"#utility.yul\":107:140   */\n      tag_53\n      jump\t// in\n    tag_52:\n        /* \"#utility.yul\":7:146   */\n      swap3\n      swap2\n      pop\n      pop\n      jump\t// out\n        /* \"#utility.yul\":152:481   */\n    tag_25:\n        /* \"#utility.yul\":211:217   */\n      0x00\n        /* \"#utility.yul\":260:262   */\n      0x20\n        /* \"#utility.yul\":248:257   */\n      dup3\n        /* \"#utility.yul\":239:246   */\n      dup5\n        /* \"#utility.yul\":235:258   */\n      sub\n        /* \"#utility.yul\":231:263   */\n      slt\n        /* \"#utility.yul\":228:347   */\n      iszero\n      tag_55\n      jumpi\n        /* \"#utility.yul\":266:345   */\n      tag_56\n      tag_57\n      jump\t// in\n    tag_56:\n        /* \"#utility.yul\":228:347   */\n    tag_55:\n        /* \"#utility.yul\":386:387   */\n      0x00\n        /* \"#utility.yul\":411:464   */\n      tag_58\n        /* \"#utility.yul\":456:463   */\n      dup5\n        /* \"#utility.yul\":447:453   */\n      dup3\n        /* \"#utility.yul\":436:445   */\n      dup6\n        /* \"#utility.yul\":432:454   */\n      add\n        /* \"#utility.yul\":411:464   */\n      tag_50\n      jump\t// in\n    tag_58:\n        /* \"#utility.yul\":401:464   */\n      swap2\n      pop\n        /* \"#utility.yul\":357:474   */\n      pop\n        /* \"#utility.yul\":152:481   */\n      swap3\n      swap2\n      pop\n      pop\n      jump\t// out\n        /* \"#utility.yul\":487:605   */\n    tag_59:\n        /* \"#utility.yul\":574:598   */\n      tag_61\n        /* \"#utility.yul\":592:597   */\n      dup2\n        /* \"#utility.yul\":574:598   */\n      tag_62\n      jump\t// in\n    tag_61:\n        /* \"#utility.yul\":569:572   */\n      dup3\n        /* \"#utility.yul\":562:599   */\n      mstore\n        /* \"#utility.yul\":487:605   */\n      pop\n      pop\n      jump\t// out\n        /* \"#utility.yul\":611:971   */\n    tag_63:\n        /* \"#utility.yul\":697:700   */\n      0x00\n        /* \"#utility.yul\":725:763   */\n      tag_65\n        /* \"#utility.yul\":757:762   */\n      dup3\n        /* \"#utility.yul\":725:763   */\n      tag_66\n      jump\t// in\n    tag_65:\n        /* \"#utility.yul\":779:849   */\n      tag_67\n        /* \"#utility.yul\":842:848   */\n      dup2\n        /* \"#utility.yul\":837:840   */\n      dup6\n        /* \"#utility.yul\":779:849   */\n      tag_68\n      jump\t// in\n    tag_67:\n        /* \"#utility.yul\":772:849   */\n      swap4\n      pop\n        /* \"#utility.yul\":858:910   */\n      tag_69\n        /* \"#utility.yul\":903:909   */\n      dup2\n        /* \"#utility.yul\":898:901   */\n      dup6\n        /* \"#utility.yul\":891:895   */\n      0x20\n        /* \"#utility.yul\":884:889   */\n      dup7\n        /* \"#utility.yul\":880:896   */\n      add\n        /* \"#utility.yul\":858:910   */\n      tag_70\n      jump\t// in\n    tag_69:\n        /* \"#utility.yul\":935:964   */\n      tag_71\n        /* \"#utility.yul\":957:963   */\n      dup2\n        /* \"#utility.yul\":935:964   */\n      tag_72\n      jump\t// in\n    tag_71:\n        /* \"#utility.yul\":930:933   */\n      dup5\n        /* \"#utility.yul\":926:965   */\n      add\n        /* \"#utility.yul\":919:965   */\n      swap2\n      pop\n        /* \"#utility.yul\":701:971   */\n      pop\n        /* \"#utility.yul\":611:971   */\n      swap3\n      swap2\n      pop\n      pop\n      jump\t// out\n        /* \"#utility.yul\":977:1341   */\n    tag_73:\n        /* \"#utility.yul\":1065:1068   */\n      0x00\n        /* \"#utility.yul\":1093:1132   */\n      tag_75\n        /* \"#utility.yul\":1126:1131   */\n      dup3\n        /* \"#utility.yul\":1093:1132   */\n      tag_76\n      jump\t// in\n    tag_75:\n        /* \"#utility.yul\":1148:1219   */\n      tag_77\n        /* \"#utility.yul\":1212:1218   */\n      dup2\n        /* \"#utility.yul\":1207:1210   */\n      dup6\n        /* \"#utility.yul\":1148:1219   */\n      tag_78\n      jump\t// in\n    tag_77:\n        /* \"#utility.yul\":1141:1219   */\n      swap4\n      pop\n        /* \"#utility.yul\":1228:1280   */\n      tag_79\n        /* \"#utility.yul\":1273:1279   */\n      dup2\n        /* \"#utility.yul\":1268:1271   */\n      dup6\n        /* \"#utility.yul\":1261:1265   */\n      0x20\n        /* \"#utility.yul\":1254:1259   */\n      dup7\n        /* \"#utility.yul\":1250:1266   */\n      add\n        /* \"#utility.yul\":1228:1280   */\n      tag_70\n      jump\t// in\n    tag_79:\n        /* \"#utility.yul\":1305:1334   */\n      tag_80\n        /* \"#utility.yul\":1327:1333   */\n      dup2\n        /* \"#utility.yul\":1305:1334   */\n      tag_72\n      jump\t// in\n    tag_80:\n        /* \"#utility.yul\":1300:1303   */\n      dup5\n        /* \"#utility.yul\":1296:1335   */\n      add\n        /* \"#utility.yul\":1289:1335   */\n      swap2\n      pop\n        /* \"#utility.yul\":1069:1341   */\n      pop\n        /* \"#utility.yul\":977:1341   */\n      swap3\n      swap2\n      pop\n      pop\n      jump\t// out\n        /* \"#utility.yul\":1347:1465   */\n    tag_81:\n        /* \"#utility.yul\":1434:1458   */\n      tag_83\n        /* \"#utility.yul\":1452:1457   */\n      dup2\n        /* \"#utility.yul\":1434:1458   */\n      tag_84\n      jump\t// in\n    tag_83:\n        /* \"#utility.yul\":1429:1432   */\n      dup3\n        /* \"#utility.yul\":1422:1459   */\n      mstore\n        /* \"#utility.yul\":1347:1465   */\n      pop\n      pop\n      jump\t// out\n        /* \"#utility.yul\":1471:1693   */\n    tag_19:\n        /* \"#utility.yul\":1564:1568   */\n      0x00\n        /* \"#utility.yul\":1602:1604   */\n      0x20\n        /* \"#utility.yul\":1591:1600   */\n      dup3\n        /* \"#utility.yul\":1587:1605   */\n      add\n        /* \"#utility.yul\":1579:1605   */\n      swap1\n      pop\n        /* \"#utility.yul\":1615:1686   */\n      tag_86\n        /* \"#utility.yul\":1683:1684   */\n      0x00\n        /* \"#utility.yul\":1672:1681   */\n      dup4\n        /* \"#utility.yul\":1668:1685   */\n      add\n        /* \"#utility.yul\":1659:1665   */\n      dup5\n        /* \"#utility.yul\":1615:1686   */\n      tag_59\n      jump\t// in\n    tag_86:\n        /* \"#utility.yul\":1471:1693   */\n      swap3\n      swap2\n      pop\n      pop\n      jump\t// out\n        /* \"#utility.yul\":1699:2008   */\n    tag_11:\n        /* \"#utility.yul\":1810:1814   */\n      0x00\n        /* \"#utility.yul\":1848:1850   */\n      0x20\n        /* \"#utility.yul\":1837:1846   */\n      dup3\n        /* \"#utility.yul\":1833:1851   */\n      add\n        /* \"#utility.yul\":1825:1851   */\n      swap1\n      pop\n        /* \"#utility.yul\":1897:1906   */\n      dup2\n        /* \"#utility.yul\":1891:1895   */\n      dup2\n        /* \"#utility.yul\":1887:1907   */\n      sub\n        /* \"#utility.yul\":1883:1884   */\n      0x00\n        /* \"#utility.yul\":1872:1881   */\n      dup4\n        /* \"#utility.yul\":1868:1885   */\n      add\n        /* \"#utility.yul\":1861:1908   */\n      mstore\n        /* \"#utility.yul\":1925:2001   */\n      tag_88\n        /* \"#utility.yul\":1996:2000   */\n      dup2\n        /* \"#utility.yul\":1987:1993   */\n      dup5\n        /* \"#utility.yul\":1925:2001   */\n      tag_63\n      jump\t// in\n    tag_88:\n        /* \"#utility.yul\":1917:2001   */\n      swap1\n      pop\n        /* \"#utility.yul\":1699:2008   */\n      swap3\n      swap2\n      pop\n      pop\n      jump\t// out\n        /* \"#utility.yul\":2014:2327   */\n    tag_15:\n        /* \"#utility.yul\":2127:2131   */\n      0x00\n        /* \"#utility.yul\":2165:2167   */\n      0x20\n        /* \"#utility.yul\":2154:2163   */\n      dup3\n        /* \"#utility.yul\":2150:2168   */\n      add\n        /* \"#utility.yul\":2142:2168   */\n      swap1\n      pop\n        /* \"#utility.yul\":2214:2223   */\n      dup2\n        /* \"#utility.yul\":2208:2212   */\n      dup2\n        /* \"#utility.yul\":2204:2224   */\n      sub\n        /* \"#utility.yul\":2200:2201   */\n      0x00\n        /* \"#utility.yul\":2189:2198   */\n      dup4\n        /* \"#utility.yul\":2185:2202   */\n      add\n        /* \"#utility.yul\":2178:2225   */\n      mstore\n        /* \"#utility.yul\":2242:2320   */\n      tag_90\n        /* \"#utility.yul\":2315:2319   */\n      dup2\n        /* \"#utility.yul\":2306:2312   */\n      dup5\n        /* \"#utility.yul\":2242:2320   */\n      tag_73\n      jump\t// in\n    tag_90:\n        /* \"#utility.yul\":2234:2320   */\n      swap1\n      pop\n        /* \"#utility.yul\":2014:2327   */\n      swap3\n      swap2\n      pop\n      pop\n      jump\t// out\n        /* \"#utility.yul\":2333:2555   */\n    tag_45:\n        /* \"#utility.yul\":2426:2430   */\n      0x00\n        /* \"#utility.yul\":2464:2466   */\n      0x20\n        /* \"#utility.yul\":2453:2462   */\n      dup3\n        /* \"#utility.yul\":2449:2467   */\n      add\n        /* \"#utility.yul\":2441:2467   */\n      swap1\n      pop\n        /* \"#utility.yul\":2477:2548   */\n      tag_92\n        /* \"#utility.yul\":2545:2546   */\n      0x00\n        /* \"#utility.yul\":2534:2543   */\n      dup4\n        /* \"#utility.yul\":2530:2547   */\n      add\n        /* \"#utility.yul\":2521:2527   */\n      dup5\n        /* \"#utility.yul\":2477:2548   */\n      tag_81\n      jump\t// in\n    tag_92:\n        /* \"#utility.yul\":2333:2555   */\n      swap3\n      swap2\n      pop\n      pop\n      jump\t// out\n        /* \"#utility.yul\":2642:2740   */\n    tag_66:\n        /* \"#utility.yul\":2693:2699   */\n      0x00\n        /* \"#utility.yul\":2727:2732   */\n      dup2\n        /* \"#utility.yul\":2721:2733   */\n      mload\n        /* \"#utility.yul\":2711:2733   */\n      swap1\n      pop\n        /* \"#utility.yul\":2642:2740   */\n      swap2\n      swap1\n      pop\n      jump\t// out\n        /* \"#utility.yul\":2746:2845   */\n    tag_76:\n        /* \"#utility.yul\":2798:2804   */\n      0x00\n        /* \"#utility.yul\":2832:2837   */\n      dup2\n        /* \"#utility.yul\":2826:2838   */\n      mload\n        /* \"#utility.yul\":2816:2838   */\n      swap1\n      pop\n        /* \"#utility.yul\":2746:2845   */\n      swap2\n      swap1\n      pop\n      jump\t// out\n        /* \"#utility.yul\":2851:3019   */\n    tag_68:\n        /* \"#utility.yul\":2934:2945   */\n      0x00\n        /* \"#utility.yul\":2968:2974   */\n      dup3\n        /* \"#utility.yul\":2963:2966   */\n      dup3\n        /* \"#utility.yul\":2956:2975   */\n      mstore\n        /* \"#utility.yul\":3008:3012   */\n      0x20\n        /* \"#utility.yul\":3003:3006   */\n      dup3\n        /* \"#utility.yul\":2999:3013   */\n      add\n        /* \"#utility.yul\":2984:3013   */\n      swap1\n      pop\n        /* \"#utility.yul\":2851:3019   */\n      swap3\n      swap2\n      pop\n      pop\n      jump\t// out\n        /* \"#utility.yul\":3025:3194   */\n    tag_78:\n        /* \"#utility.yul\":3109:3120   */\n      0x00\n        /* \"#utility.yul\":3143:3149   */\n      dup3\n        /* \"#utility.yul\":3138:3141   */\n      dup3\n        /* \"#utility.yul\":3131:3150   */\n      mstore\n        /* \"#utility.yul\":3183:3187   */\n      0x20\n        /* \"#utility.yul\":3178:3181   */\n      dup3\n        /* \"#utility.yul\":3174:3188   */\n      add\n        /* \"#utility.yul\":3159:3188   */\n      swap1\n      pop\n        /* \"#utility.yul\":3025:3194   */\n      swap3\n      swap2\n      pop\n      pop\n      jump\t// out\n        /* \"#utility.yul\":3200:3296   */\n    tag_62:\n        /* \"#utility.yul\":3237:3244   */\n      0x00\n        /* \"#utility.yul\":3266:3290   */\n      tag_100\n        /* \"#utility.yul\":3284:3289   */\n      dup3\n        /* \"#utility.yul\":3266:3290   */\n      tag_101\n      jump\t// in\n    tag_100:\n        /* \"#utility.yul\":3255:3290   */\n      swap1\n      pop\n        /* \"#utility.yul\":3200:3296   */\n      swap2\n      swap1\n      pop\n      jump\t// out\n        /* \"#utility.yul\":3302:3428   */\n    tag_101:\n        /* \"#utility.yul\":3339:3346   */\n      0x00\n        /* \"#utility.yul\":3379:3421   */\n      0xffffffffffffffffffffffffffffffffffffffff\n        /* \"#utility.yul\":3372:3377   */\n      dup3\n        /* \"#utility.yul\":3368:3422   */\n      and\n        /* \"#utility.yul\":3357:3422   */\n      swap1\n      pop\n        /* \"#utility.yul\":3302:3428   */\n      swap2\n      swap1\n      pop\n      jump\t// out\n        /* \"#utility.yul\":3434:3511   */\n    tag_84:\n        /* \"#utility.yul\":3471:3478   */\n      0x00\n        /* \"#utility.yul\":3500:3505   */\n      dup2\n        /* \"#utility.yul\":3489:3505   */\n      swap1\n      pop\n        /* \"#utility.yul\":3434:3511   */\n      swap2\n      swap1\n      pop\n      jump\t// out\n        /* \"#utility.yul\":3517:3824   */\n    tag_70:\n        /* \"#utility.yul\":3585:3586   */\n      0x00\n        /* \"#utility.yul\":3595:3708   */\n    tag_105:\n        /* \"#utility.yul\":3609:3615   */\n      dup4\n        /* \"#utility.yul\":3606:3607   */\n      dup2\n        /* \"#utility.yul\":3603:3616   */\n      lt\n        /* \"#utility.yul\":3595:3708   */\n      iszero\n      tag_107\n      jumpi\n        /* \"#utility.yul\":3694:3695   */\n      dup1\n        /* \"#utility.yul\":3689:3692   */\n      dup3\n        /* \"#utility.yul\":3685:3696   */\n      add\n        /* \"#utility.yul\":3679:3697   */\n      mload\n        /* \"#utility.yul\":3675:3676   */\n      dup2\n        /* \"#utility.yul\":3670:3673   */\n      dup5\n        /* \"#utility.yul\":3666:3677   */\n      add\n        /* \"#utility.yul\":3659:3698   */\n      mstore\n        /* \"#utility.yul\":3631:3633   */\n      0x20\n        /* \"#utility.yul\":3628:3629   */\n      dup2\n        /* \"#utility.yul\":3624:3634   */\n      add\n        /* \"#utility.yul\":3619:3634   */\n      swap1\n      pop\n        /* \"#utility.yul\":3595:3708   */\n      jump(tag_105)\n    tag_107:\n        /* \"#utility.yul\":3726:3732   */\n      dup4\n        /* \"#utility.yul\":3723:3724   */\n      dup2\n        /* \"#utility.yul\":3720:3733   */\n      gt\n        /* \"#utility.yul\":3717:3818   */\n      iszero\n      tag_108\n      jumpi\n        /* \"#utility.yul\":3806:3807   */\n      0x00\n        /* \"#utility.yul\":3797:3803   */\n      dup5\n        /* \"#utility.yul\":3792:3795   */\n      dup5\n        /* \"#utility.yul\":3788:3804   */\n      add\n        /* \"#utility.yul\":3781:3808   */\n      mstore\n        /* \"#utility.yul\":3717:3818   */\n    tag_108:\n        /* \"#utility.yul\":3566:3824   */\n      pop\n        /* \"#utility.yul\":3517:3824   */\n      pop\n      pop\n      pop\n      jump\t// out\n        /* \"#utility.yul\":3830:4150   */\n    tag_28:\n        /* \"#utility.yul\":3874:3880   */\n      0x00\n        /* \"#utility.yul\":3911:3912   */\n      0x02\n        /* \"#utility.yul\":3905:3909   */\n      dup3\n        /* \"#utility.yul\":3901:3913   */\n      div\n        /* \"#utility.yul\":3891:3913   */\n      swap1\n      pop\n        /* \"#utility.yul\":3958:3959   */\n      0x01\n        /* \"#utility.yul\":3952:3956   */\n      dup3\n        /* \"#utility.yul\":3948:3960   */\n      and\n        /* \"#utility.yul\":3979:3997   */\n      dup1\n        /* \"#utility.yul\":3969:4050   */\n      tag_110\n      jumpi\n        /* \"#utility.yul\":4035:4039   */\n      0x7f\n        /* \"#utility.yul\":4027:4033   */\n      dup3\n        /* \"#utility.yul\":4023:4040   */\n      and\n        /* \"#utility.yul\":4013:4040   */\n      swap2\n      pop\n        /* \"#utility.yul\":3969:4050   */\n    tag_110:\n        /* \"#utility.yul\":4097:4099   */\n      0x20\n        /* \"#utility.yul\":4089:4095   */\n      dup3\n        /* \"#utility.yul\":4086:4100   */\n      lt\n        /* \"#utility.yul\":4066:4084   */\n      dup2\n        /* \"#utility.yul\":4063:4101   */\n      eq\n        /* \"#utility.yul\":4060:4144   */\n      iszero\n      tag_111\n      jumpi\n        /* \"#utility.yul\":4116:4134   */\n      tag_112\n      tag_113\n      jump\t// in\n    tag_112:\n        /* \"#utility.yul\":4060:4144   */\n    tag_111:\n        /* \"#utility.yul\":3881:4150   */\n      pop\n        /* \"#utility.yul\":3830:4150   */\n      swap2\n      swap1\n      pop\n      jump\t// out\n        /* \"#utility.yul\":4156:4336   */\n    tag_113:\n        /* \"#utility.yul\":4204:4281   */\n      0x4e487b7100000000000000000000000000000000000000000000000000000000\n        /* \"#utility.yul\":4201:4202   */\n      0x00\n        /* \"#utility.yul\":4194:4282   */\n      mstore\n        /* \"#utility.yul\":4301:4305   */\n      0x22\n        /* \"#utility.yul\":4298:4299   */\n      0x04\n        /* \"#utility.yul\":4291:4306   */\n      mstore\n        /* \"#utility.yul\":4325:4329   */\n      0x24\n        /* \"#utility.yul\":4322:4323   */\n      0x00\n        /* \"#utility.yul\":4315:4330   */\n      revert\n        /* \"#utility.yul\":4465:4582   */\n    tag_57:\n        /* \"#utility.yul\":4574:4575   */\n      0x00\n        /* \"#utility.yul\":4571:4572   */\n      dup1\n        /* \"#utility.yul\":4564:4576   */\n      revert\n        /* \"#utility.yul\":4588:4690   */\n    tag_72:\n        /* \"#utility.yul\":4629:4635   */\n      0x00\n        /* \"#utility.yul\":4680:4682   */\n      0x1f\n        /* \"#utility.yul\":4676:4683   */\n      not\n        /* \"#utility.yul\":4671:4673   */\n      0x1f\n        /* \"#utility.yul\":4664:4669   */\n      dup4\n        /* \"#utility.yul\":4660:4674   */\n      add\n        /* \"#utility.yul\":4656:4684   */\n      and\n        /* \"#utility.yul\":4646:4684   */\n      swap1\n      pop\n        /* \"#utility.yul\":4588:4690   */\n      swap2\n      swap1\n      pop\n      jump\t// out\n        /* \"#utility.yul\":4696:4818   */\n    tag_53:\n        /* \"#utility.yul\":4769:4793   */\n      tag_120\n        /* \"#utility.yul\":4787:4792   */\n      dup2\n        /* \"#utility.yul\":4769:4793   */\n      tag_84\n      jump\t// in\n    tag_120:\n        /* \"#utility.yul\":4762:4767   */\n      dup2\n        /* \"#utility.yul\":4759:4794   */\n      eq\n        /* \"#utility.yul\":4749:4812   */\n      tag_121\n      jumpi\n        /* \"#utility.yul\":4808:4809   */\n      0x00\n        /* \"#utility.yul\":4805:4806   */\n      dup1\n        /* \"#utility.yul\":4798:4810   */\n      revert\n        /* \"#utility.yul\":4749:4812   */\n    tag_121:\n        /* \"#utility.yul\":4696:4818   */\n      pop\n      jump\t// out\n\n    auxdata: 0xa2646970667358221220dd1a1bc282c2a129f1ac52c9f7762d01e7297ee4128f0338e9a0a180d04f16b464736f6c63430008070033\n}\n\nsub_1: assembly {\n        /* \"chapter02/9type3.sol\":543:770  contract type13{... */\n      mstore(0x40, 0x80)\n      callvalue\n      dup1\n      iszero\n      tag_1\n      jumpi\n      0x00\n      dup1\n      revert\n    tag_1:\n      pop\n      dataSize(sub_0)\n      dup1\n      dataOffset(sub_0)\n      0x00\n      codecopy\n      0x00\n      return\n    stop\n\n    sub_0: assembly {\n            /* \"chapter02/9type3.sol\":543:770  contract type13{... */\n          mstore(0x40, 0x80)\n          jumpi(tag_1, lt(calldatasize, 0x04))\n          shr(0xe0, calldataload(0x00))\n          dup1\n          0x0dbe671f\n          eq\n          tag_3\n          jumpi\n          dup1\n          0xee919d50\n          eq\n          tag_4\n          jumpi\n          dup1\n          0xf5f5ba72\n          eq\n          tag_5\n          jumpi\n          jump(tag_2)\n        tag_1:\n          jumpi(tag_2, calldatasize)\n          stop\n        tag_2:\n          0x00\n          dup1\n          revert\n            /* \"chapter02/9type3.sol\":597:610  uint public a */\n        tag_3:\n          callvalue\n          dup1\n          iszero\n          tag_8\n          jumpi\n          0x00\n          dup1\n          revert\n        tag_8:\n          pop\n          tag_9\n          tag_10\n          jump\t// in\n        tag_9:\n          mload(0x40)\n          tag_11\n          swap2\n          swap1\n          tag_12\n          jump\t// in\n        tag_11:\n          mload(0x40)\n          dup1\n          swap2\n          sub\n          swap1\n          return\n            /* \"chapter02/9type3.sol\":715:768  function setA(uint _a)external{... */\n        tag_4:\n          callvalue\n          dup1\n          iszero\n          tag_13\n          jumpi\n          0x00\n          dup1\n          revert\n        tag_13:\n          pop\n          tag_14\n          0x04\n          dup1\n          calldatasize\n          sub\n          dup2\n          add\n          swap1\n          tag_15\n          swap2\n          swap1\n          tag_16\n          jump\t// in\n        tag_15:\n          tag_17\n          jump\t// in\n        tag_14:\n          stop\n            /* \"chapter02/9type3.sol\":616:710  function getContractName()external pure returns(string memory){... */\n        tag_5:\n          callvalue\n          dup1\n          iszero\n          tag_18\n          jumpi\n          0x00\n          dup1\n          revert\n        tag_18:\n          pop\n          tag_19\n          tag_20\n          jump\t// in\n        tag_19:\n          mload(0x40)\n          tag_21\n          swap2\n          swap1\n          tag_22\n          jump\t// in\n        tag_21:\n          mload(0x40)\n          dup1\n          swap2\n          sub\n          swap1\n          return\n            /* \"chapter02/9type3.sol\":597:610  uint public a */\n        tag_10:\n          sload(0x00)\n          dup2\n          jump\t// out\n            /* \"chapter02/9type3.sol\":715:768  function setA(uint _a)external{... */\n        tag_17:\n            /* \"chapter02/9type3.sol\":759:761  _a */\n          dup1\n            /* \"chapter02/9type3.sol\":755:756  a */\n          0x00\n            /* \"chapter02/9type3.sol\":755:761  a = _a */\n          dup2\n          swap1\n          sstore\n          pop\n            /* \"chapter02/9type3.sol\":715:768  function setA(uint _a)external{... */\n          pop\n          jump\t// out\n            /* \"chapter02/9type3.sol\":616:710  function getContractName()external pure returns(string memory){... */\n        tag_20:\n            /* \"chapter02/9type3.sol\":664:677  string memory */\n          0x60\n            /* \"chapter02/9type3.sol\":688:703  return \"type13\" */\n          mload(0x40)\n          dup1\n          0x40\n          add\n          0x40\n          mstore\n          dup1\n          0x06\n          dup2\n          mstore\n          0x20\n          add\n          0x7479706531330000000000000000000000000000000000000000000000000000\n          dup2\n          mstore\n          pop\n          swap1\n          pop\n            /* \"chapter02/9type3.sol\":616:710  function getContractName()external pure returns(string memory){... */\n          swap1\n          jump\t// out\n            /* \"#utility.yul\":7:146   */\n        tag_26:\n            /* \"#utility.yul\":53:58   */\n          0x00\n            /* \"#utility.yul\":91:97   */\n          dup2\n            /* \"#utility.yul\":78:98   */\n          calldataload\n            /* \"#utility.yul\":69:98   */\n          swap1\n          pop\n            /* \"#utility.yul\":107:140   */\n          tag_28\n            /* \"#utility.yul\":134:139   */\n          dup2\n            /* \"#utility.yul\":107:140   */\n          tag_29\n          jump\t// in\n        tag_28:\n            /* \"#utility.yul\":7:146   */\n          swap3\n          swap2\n          pop\n          pop\n          jump\t// out\n            /* \"#utility.yul\":152:481   */\n        tag_16:\n            /* \"#utility.yul\":211:217   */\n          0x00\n            /* \"#utility.yul\":260:262   */\n          0x20\n            /* \"#utility.yul\":248:257   */\n          dup3\n            /* \"#utility.yul\":239:246   */\n          dup5\n            /* \"#utility.yul\":235:258   */\n          sub\n            /* \"#utility.yul\":231:263   */\n          slt\n            /* \"#utility.yul\":228:347   */\n          iszero\n          tag_31\n          jumpi\n            /* \"#utility.yul\":266:345   */\n          tag_32\n          tag_33\n          jump\t// in\n        tag_32:\n            /* \"#utility.yul\":228:347   */\n        tag_31:\n            /* \"#utility.yul\":386:387   */\n          0x00\n            /* \"#utility.yul\":411:464   */\n          tag_34\n            /* \"#utility.yul\":456:463   */\n          dup5\n            /* \"#utility.yul\":447:453   */\n          dup3\n            /* \"#utility.yul\":436:445   */\n          dup6\n            /* \"#utility.yul\":432:454   */\n          add\n            /* \"#utility.yul\":411:464   */\n          tag_26\n          jump\t// in\n        tag_34:\n            /* \"#utility.yul\":401:464   */\n          swap2\n          pop\n            /* \"#utility.yul\":357:474   */\n          pop\n            /* \"#utility.yul\":152:481   */\n          swap3\n          swap2\n          pop\n          pop\n          jump\t// out\n            /* \"#utility.yul\":487:851   */\n        tag_35:\n            /* \"#utility.yul\":575:578   */\n          0x00\n            /* \"#utility.yul\":603:642   */\n          tag_37\n            /* \"#utility.yul\":636:641   */\n          dup3\n            /* \"#utility.yul\":603:642   */\n          tag_38\n          jump\t// in\n        tag_37:\n            /* \"#utility.yul\":658:729   */\n          tag_39\n            /* \"#utility.yul\":722:728   */\n          dup2\n            /* \"#utility.yul\":717:720   */\n          dup6\n            /* \"#utility.yul\":658:729   */\n          tag_40\n          jump\t// in\n        tag_39:\n            /* \"#utility.yul\":651:729   */\n          swap4\n          pop\n            /* \"#utility.yul\":738:790   */\n          tag_41\n            /* \"#utility.yul\":783:789   */\n          dup2\n            /* \"#utility.yul\":778:781   */\n          dup6\n            /* \"#utility.yul\":771:775   */\n          0x20\n            /* \"#utility.yul\":764:769   */\n          dup7\n            /* \"#utility.yul\":760:776   */\n          add\n            /* \"#utility.yul\":738:790   */\n          tag_42\n          jump\t// in\n        tag_41:\n            /* \"#utility.yul\":815:844   */\n          tag_43\n            /* \"#utility.yul\":837:843   */\n          dup2\n            /* \"#utility.yul\":815:844   */\n          tag_44\n          jump\t// in\n        tag_43:\n            /* \"#utility.yul\":810:813   */\n          dup5\n            /* \"#utility.yul\":806:845   */\n          add\n            /* \"#utility.yul\":799:845   */\n          swap2\n          pop\n            /* \"#utility.yul\":579:851   */\n          pop\n            /* \"#utility.yul\":487:851   */\n          swap3\n          swap2\n          pop\n          pop\n          jump\t// out\n            /* \"#utility.yul\":857:975   */\n        tag_45:\n            /* \"#utility.yul\":944:968   */\n          tag_47\n            /* \"#utility.yul\":962:967   */\n          dup2\n            /* \"#utility.yul\":944:968   */\n          tag_48\n          jump\t// in\n        tag_47:\n            /* \"#utility.yul\":939:942   */\n          dup3\n            /* \"#utility.yul\":932:969   */\n          mstore\n            /* \"#utility.yul\":857:975   */\n          pop\n          pop\n          jump\t// out\n            /* \"#utility.yul\":981:1294   */\n        tag_22:\n            /* \"#utility.yul\":1094:1098   */\n          0x00\n            /* \"#utility.yul\":1132:1134   */\n          0x20\n            /* \"#utility.yul\":1121:1130   */\n          dup3\n            /* \"#utility.yul\":1117:1135   */\n          add\n            /* \"#utility.yul\":1109:1135   */\n          swap1\n          pop\n            /* \"#utility.yul\":1181:1190   */\n          dup2\n            /* \"#utility.yul\":1175:1179   */\n          dup2\n            /* \"#utility.yul\":1171:1191   */\n          sub\n            /* \"#utility.yul\":1167:1168   */\n          0x00\n            /* \"#utility.yul\":1156:1165   */\n          dup4\n            /* \"#utility.yul\":1152:1169   */\n          add\n            /* \"#utility.yul\":1145:1192   */\n          mstore\n            /* \"#utility.yul\":1209:1287   */\n          tag_50\n            /* \"#utility.yul\":1282:1286   */\n          dup2\n            /* \"#utility.yul\":1273:1279   */\n          dup5\n            /* \"#utility.yul\":1209:1287   */\n          tag_35\n          jump\t// in\n        tag_50:\n            /* \"#utility.yul\":1201:1287   */\n          swap1\n          pop\n            /* \"#utility.yul\":981:1294   */\n          swap3\n          swap2\n          pop\n          pop\n          jump\t// out\n            /* \"#utility.yul\":1300:1522   */\n        tag_12:\n            /* \"#utility.yul\":1393:1397   */\n          0x00\n            /* \"#utility.yul\":1431:1433   */\n          0x20\n            /* \"#utility.yul\":1420:1429   */\n          dup3\n            /* \"#utility.yul\":1416:1434   */\n          add\n            /* \"#utility.yul\":1408:1434   */\n          swap1\n          pop\n            /* \"#utility.yul\":1444:1515   */\n          tag_52\n            /* \"#utility.yul\":1512:1513   */\n          0x00\n            /* \"#utility.yul\":1501:1510   */\n          dup4\n            /* \"#utility.yul\":1497:1514   */\n          add\n            /* \"#utility.yul\":1488:1494   */\n          dup5\n            /* \"#utility.yul\":1444:1515   */\n          tag_45\n          jump\t// in\n        tag_52:\n            /* \"#utility.yul\":1300:1522   */\n          swap3\n          swap2\n          pop\n          pop\n          jump\t// out\n            /* \"#utility.yul\":1609:1708   */\n        tag_38:\n            /* \"#utility.yul\":1661:1667   */\n          0x00\n            /* \"#utility.yul\":1695:1700   */\n          dup2\n            /* \"#utility.yul\":1689:1701   */\n          mload\n            /* \"#utility.yul\":1679:1701   */\n          swap1\n          pop\n            /* \"#utility.yul\":1609:1708   */\n          swap2\n          swap1\n          pop\n          jump\t// out\n            /* \"#utility.yul\":1714:1883   */\n        tag_40:\n            /* \"#utility.yul\":1798:1809   */\n          0x00\n            /* \"#utility.yul\":1832:1838   */\n          dup3\n            /* \"#utility.yul\":1827:1830   */\n          dup3\n            /* \"#utility.yul\":1820:1839   */\n          mstore\n            /* \"#utility.yul\":1872:1876   */\n          0x20\n            /* \"#utility.yul\":1867:1870   */\n          dup3\n            /* \"#utility.yul\":1863:1877   */\n          add\n            /* \"#utility.yul\":1848:1877   */\n          swap1\n          pop\n            /* \"#utility.yul\":1714:1883   */\n          swap3\n          swap2\n          pop\n          pop\n          jump\t// out\n            /* \"#utility.yul\":1889:1966   */\n        tag_48:\n            /* \"#utility.yul\":1926:1933   */\n          0x00\n            /* \"#utility.yul\":1955:1960   */\n          dup2\n            /* \"#utility.yul\":1944:1960   */\n          swap1\n          pop\n            /* \"#utility.yul\":1889:1966   */\n          swap2\n          swap1\n          pop\n          jump\t// out\n            /* \"#utility.yul\":1972:2279   */\n        tag_42:\n            /* \"#utility.yul\":2040:2041   */\n          0x00\n            /* \"#utility.yul\":2050:2163   */\n        tag_59:\n            /* \"#utility.yul\":2064:2070   */\n          dup4\n            /* \"#utility.yul\":2061:2062   */\n          dup2\n            /* \"#utility.yul\":2058:2071   */\n          lt\n            /* \"#utility.yul\":2050:2163   */\n          iszero\n          tag_61\n          jumpi\n            /* \"#utility.yul\":2149:2150   */\n          dup1\n            /* \"#utility.yul\":2144:2147   */\n          dup3\n            /* \"#utility.yul\":2140:2151   */\n          add\n            /* \"#utility.yul\":2134:2152   */\n          mload\n            /* \"#utility.yul\":2130:2131   */\n          dup2\n            /* \"#utility.yul\":2125:2128   */\n          dup5\n            /* \"#utility.yul\":2121:2132   */\n          add\n            /* \"#utility.yul\":2114:2153   */\n          mstore\n            /* \"#utility.yul\":2086:2088   */\n          0x20\n            /* \"#utility.yul\":2083:2084   */\n          dup2\n            /* \"#utility.yul\":2079:2089   */\n          add\n            /* \"#utility.yul\":2074:2089   */\n          swap1\n          pop\n            /* \"#utility.yul\":2050:2163   */\n          jump(tag_59)\n        tag_61:\n            /* \"#utility.yul\":2181:2187   */\n          dup4\n            /* \"#utility.yul\":2178:2179   */\n          dup2\n            /* \"#utility.yul\":2175:2188   */\n          gt\n            /* \"#utility.yul\":2172:2273   */\n          iszero\n          tag_62\n          jumpi\n            /* \"#utility.yul\":2261:2262   */\n          0x00\n            /* \"#utility.yul\":2252:2258   */\n          dup5\n            /* \"#utility.yul\":2247:2250   */\n          dup5\n            /* \"#utility.yul\":2243:2259   */\n          add\n            /* \"#utility.yul\":2236:2263   */\n          mstore\n            /* \"#utility.yul\":2172:2273   */\n        tag_62:\n            /* \"#utility.yul\":2021:2279   */\n          pop\n            /* \"#utility.yul\":1972:2279   */\n          pop\n          pop\n          pop\n          jump\t// out\n            /* \"#utility.yul\":2408:2525   */\n        tag_33:\n            /* \"#utility.yul\":2517:2518   */\n          0x00\n            /* \"#utility.yul\":2514:2515   */\n          dup1\n            /* \"#utility.yul\":2507:2519   */\n          revert\n            /* \"#utility.yul\":2531:2633   */\n        tag_44:\n            /* \"#utility.yul\":2572:2578   */\n          0x00\n            /* \"#utility.yul\":2623:2625   */\n          0x1f\n            /* \"#utility.yul\":2619:2626   */\n          not\n            /* \"#utility.yul\":2614:2616   */\n          0x1f\n            /* \"#utility.yul\":2607:2612   */\n          dup4\n            /* \"#utility.yul\":2603:2617   */\n          add\n            /* \"#utility.yul\":2599:2627   */\n          and\n            /* \"#utility.yul\":2589:2627   */\n          swap1\n          pop\n            /* \"#utility.yul\":2531:2633   */\n          swap2\n          swap1\n          pop\n          jump\t// out\n            /* \"#utility.yul\":2639:2761   */\n        tag_29:\n            /* \"#utility.yul\":2712:2736   */\n          tag_68\n            /* \"#utility.yul\":2730:2735   */\n          dup2\n            /* \"#utility.yul\":2712:2736   */\n          tag_48\n          jump\t// in\n        tag_68:\n            /* \"#utility.yul\":2705:2710   */\n          dup2\n            /* \"#utility.yul\":2702:2737   */\n          eq\n            /* \"#utility.yul\":2692:2755   */\n          tag_69\n          jumpi\n            /* \"#utility.yul\":2751:2752   */\n          0x00\n            /* \"#utility.yul\":2748:2749   */\n          dup1\n            /* \"#utility.yul\":2741:2753   */\n          revert\n            /* \"#utility.yul\":2692:2755   */\n        tag_69:\n            /* \"#utility.yul\":2639:2761   */\n          pop\n          jump\t// out\n\n        auxdata: 0xa264697066735822122034ac7c631c8c113b301d2f3f2f2bfb262eeeaec904cd9225742109c0d2d27e9664736f6c63430008070033\n    }\n}\n",
				"bytecode": {
					"linkReferences": {},
					"object": "608060405260405162000012906200022f565b604051809103906000f0801580156200002f573d6000803e3d6000fd5b506000806101000a81548173ffffffffffffffffffffffffffffffffffffffff021916908373ffffffffffffffffffffffffffffffffffffffff16021790555060008054906101000a900473ffffffffffffffffffffffffffffffffffffffff16600160006101000a81548173ffffffffffffffffffffffffffffffffffffffff021916908373ffffffffffffffffffffffffffffffffffffffff16021790555060008054906101000a900473ffffffffffffffffffffffffffffffffffffffff1673ffffffffffffffffffffffffffffffffffffffff1663f5f5ba726040518163ffffffff1660e01b815260040160006040518083038186803b1580156200013757600080fd5b505afa1580156200014c573d6000803e3d6000fd5b505050506040513d6000823e3d601f19601f82011682018060405250810190620001779190620003fc565b600290805190602001906200018e9291906200023d565b506040518060400160405260068152806020017f747970653133000000000000000000000000000000000000000000000000000081525060039080519060200190620001dc9291906200023d565b5060405180602001620001ef906200022f565b6020820181038252601f19601f82011660405250600490805190602001906200021a929190620002ce565b503480156200022857600080fd5b50620005d1565b6102b38062000be683390190565b8280546200024b90620004e2565b90600052602060002090601f0160209004810192826200026f5760008555620002bb565b82601f106200028a57805160ff1916838001178555620002bb565b82800160010185558215620002bb579182015b82811115620002ba5782518255916020019190600101906200029d565b5b509050620002ca91906200035f565b5090565b828054620002dc90620004e2565b90600052602060002090601f0160209004810192826200030057600085556200034c565b82601f106200031b57805160ff19168380011785556200034c565b828001600101855582156200034c579182015b828111156200034b5782518255916020019190600101906200032e565b5b5090506200035b91906200035f565b5090565b5b808211156200037a57600081600090555060010162000360565b5090565b6000620003956200038f8462000476565b6200044d565b905082815260208101848484011115620003b457620003b3620005b1565b5b620003c1848285620004ac565b509392505050565b600082601f830112620003e157620003e0620005ac565b5b8151620003f38482602086016200037e565b91505092915050565b600060208284031215620004155762000414620005bb565b5b600082015167ffffffffffffffff811115620004365762000435620005b6565b5b6200044484828501620003c9565b91505092915050565b6000620004596200046c565b905062000467828262000518565b919050565b6000604051905090565b600067ffffffffffffffff8211156200049457620004936200057d565b5b6200049f82620005c0565b9050602081019050919050565b60005b83811015620004cc578082015181840152602081019050620004af565b83811115620004dc576000848401525b50505050565b60006002820490506001821680620004fb57607f821691505b602082108114156200051257620005116200054e565b5b50919050565b6200052382620005c0565b810181811067ffffffffffffffff821117156200054557620005446200057d565b5b80604052505050565b7f4e487b7100000000000000000000000000000000000000000000000000000000600052602260045260246000fd5b7f4e487b7100000000000000000000000000000000000000000000000000000000600052604160045260246000fd5b600080fd5b600080fd5b600080fd5b600080fd5b6000601f19601f8301169050919050565b61060580620005e16000396000f3fe608060405234801561001057600080fd5b50600436106100575760003560e01c80637c0001381461005c578063c15bae841461007a578063d01bb4d514610098578063d118d187146100b6578063ee919d50146100d4575b600080fd5b6100646100f0565b604051610071919061043b565b60405180910390f35b61008261017e565b60405161008f919061045d565b60405180910390f35b6100a061020c565b6040516100ad9190610420565b60405180910390f35b6100be610232565b6040516100cb919061045d565b60405180910390f35b6100ee60048036038101906100e99190610363565b6102c0565b005b600480546100fd90610541565b80601f016020809104026020016040519081016040528092919081815260200182805461012990610541565b80156101765780601f1061014b57610100808354040283529160200191610176565b820191906000526020600020905b81548152906001019060200180831161015957829003601f168201915b505050505081565b6002805461018b90610541565b80601f01602080910402602001604051908101604052809291908181526020018280546101b790610541565b80156102045780601f106101d957610100808354040283529160200191610204565b820191906000526020600020905b8154815290600101906020018083116101e757829003601f168201915b505050505081565b600160009054906101000a900473ffffffffffffffffffffffffffffffffffffffff1681565b6003805461023f90610541565b80601f016020809104026020016040519081016040528092919081815260200182805461026b90610541565b80156102b85780601f1061028d576101008083540402835291602001916102b8565b820191906000526020600020905b81548152906001019060200180831161029b57829003601f168201915b505050505081565b60008054906101000a900473ffffffffffffffffffffffffffffffffffffffff1673ffffffffffffffffffffffffffffffffffffffff1663ee919d50826040518263ffffffff1660e01b8152600401610319919061047f565b600060405180830381600087803b15801561033357600080fd5b505af1158015610347573d6000803e3d6000fd5b5050505050565b60008135905061035d816105b8565b92915050565b600060208284031215610379576103786105a2565b5b60006103878482850161034e565b91505092915050565b610399816104d2565b82525050565b60006103aa8261049a565b6103b481856104b0565b93506103c481856020860161050e565b6103cd816105a7565b840191505092915050565b60006103e3826104a5565b6103ed81856104c1565b93506103fd81856020860161050e565b610406816105a7565b840191505092915050565b61041a81610504565b82525050565b60006020820190506104356000830184610390565b92915050565b60006020820190508181036000830152610455818461039f565b905092915050565b6000602082019050818103600083015261047781846103d8565b905092915050565b60006020820190506104946000830184610411565b92915050565b600081519050919050565b600081519050919050565b600082825260208201905092915050565b600082825260208201905092915050565b60006104dd826104e4565b9050919050565b600073ffffffffffffffffffffffffffffffffffffffff82169050919050565b6000819050919050565b60005b8381101561052c578082015181840152602081019050610511565b8381111561053b576000848401525b50505050565b6000600282049050600182168061055957607f821691505b6020821081141561056d5761056c610573565b5b50919050565b7f4e487b7100000000000000000000000000000000000000000000000000000000600052602260045260246000fd5b600080fd5b6000601f19601f8301169050919050565b6105c181610504565b81146105cc57600080fd5b5056fea2646970667358221220dd1a1bc282c2a129f1ac52c9f7762d01e7297ee4128f0338e9a0a180d04f16b464736f6c63430008070033608060405234801561001057600080fd5b50610293806100206000396000f3fe6080604052600436106100385760003560e01c80630dbe671f14610044578063ee919d501461006f578063f5f5ba72146100985761003f565b3661003f57005b600080fd5b34801561005057600080fd5b506100596100c3565b60405161006691906101bc565b60405180910390f35b34801561007b57600080fd5b5061009660048036038101906100919190610125565b6100c9565b005b3480156100a457600080fd5b506100ad6100d3565b6040516100ba919061019a565b60405180910390f35b60005481565b8060008190555050565b60606040518060400160405280600681526020017f7479706531330000000000000000000000000000000000000000000000000000815250905090565b60008135905061011f81610246565b92915050565b60006020828403121561013b5761013a610230565b5b600061014984828501610110565b91505092915050565b600061015d826101d7565b61016781856101e2565b93506101778185602086016101fd565b61018081610235565b840191505092915050565b610194816101f3565b82525050565b600060208201905081810360008301526101b48184610152565b905092915050565b60006020820190506101d1600083018461018b565b92915050565b600081519050919050565b600082825260208201905092915050565b6000819050919050565b60005b8381101561021b578082015181840152602081019050610200565b8381111561022a576000848401525b50505050565b600080fd5b6000601f19601f8301169050919050565b61024f816101f3565b811461025a57600080fd5b5056fea264697066735822122034ac7c631c8c113b301d2f3f2f2bfb262eeeaec904cd9225742109c0d2d27e9664736f6c63430008070033",
					"opcodes": "PUSH1 0x80 PUSH1 0x40 MSTORE PUSH1 0x40 MLOAD PUSH3 0x12 SWAP1 PUSH3 0x22F JUMP JUMPDEST PUSH1 0x40 MLOAD DUP1 SWAP2 SUB SWAP1 PUSH1 0x0 CREATE DUP1 ISZERO DUP1 ISZERO PUSH3 0x2F JUMPI RETURNDATASIZE PUSH1 0x0 DUP1 RETURNDATACOPY RETURNDATASIZE PUSH1 0x0 REVERT JUMPDEST POP PUSH1 0x0 DUP1 PUSH2 0x100 EXP DUP2 SLOAD DUP2 PUSH20 0xFFFFFFFFFFFFFFFFFFFFFFFFFFFFFFFFFFFFFFFF MUL NOT AND SWAP1 DUP4 PUSH20 0xFFFFFFFFFFFFFFFFFFFFFFFFFFFFFFFFFFFFFFFF AND MUL OR SWAP1 SSTORE POP PUSH1 0x0 DUP1 SLOAD SWAP1 PUSH2 0x100 EXP SWAP1 DIV PUSH20 0xFFFFFFFFFFFFFFFFFFFFFFFFFFFFFFFFFFFFFFFF AND PUSH1 0x1 PUSH1 0x0 PUSH2 0x100 EXP DUP2 SLOAD DUP2 PUSH20 0xFFFFFFFFFFFFFFFFFFFFFFFFFFFFFFFFFFFFFFFF MUL NOT AND SWAP1 DUP4 PUSH20 0xFFFFFFFFFFFFFFFFFFFFFFFFFFFFFFFFFFFFFFFF AND MUL OR SWAP1 SSTORE POP PUSH1 0x0 DUP1 SLOAD SWAP1 PUSH2 0x100 EXP SWAP1 DIV PUSH20 0xFFFFFFFFFFFFFFFFFFFFFFFFFFFFFFFFFFFFFFFF AND PUSH20 0xFFFFFFFFFFFFFFFFFFFFFFFFFFFFFFFFFFFFFFFF AND PUSH4 0xF5F5BA72 PUSH1 0x40 MLOAD DUP2 PUSH4 0xFFFFFFFF AND PUSH1 0xE0 SHL DUP2 MSTORE PUSH1 0x4 ADD PUSH1 0x0 PUSH1 0x40 MLOAD DUP1 DUP4 SUB DUP2 DUP7 DUP1 EXTCODESIZE ISZERO DUP1 ISZERO PUSH3 0x137 JUMPI PUSH1 0x0 DUP1 REVERT JUMPDEST POP GAS STATICCALL ISZERO DUP1 ISZERO PUSH3 0x14C JUMPI RETURNDATASIZE PUSH1 0x0 DUP1 RETURNDATACOPY RETURNDATASIZE PUSH1 0x0 REVERT JUMPDEST POP POP POP POP PUSH1 0x40 MLOAD RETURNDATASIZE PUSH1 0x0 DUP3 RETURNDATACOPY RETURNDATASIZE PUSH1 0x1F NOT PUSH1 0x1F DUP3 ADD AND DUP3 ADD DUP1 PUSH1 0x40 MSTORE POP DUP2 ADD SWAP1 PUSH3 0x177 SWAP2 SWAP1 PUSH3 0x3FC JUMP JUMPDEST PUSH1 0x2 SWAP1 DUP1 MLOAD SWAP1 PUSH1 0x20 ADD SWAP1 PUSH3 0x18E SWAP3 SWAP2 SWAP1 PUSH3 0x23D JUMP JUMPDEST POP PUSH1 0x40 MLOAD DUP1 PUSH1 0x40 ADD PUSH1 0x40 MSTORE PUSH1 0x6 DUP2 MSTORE DUP1 PUSH1 0x20 ADD PUSH32 0x7479706531330000000000000000000000000000000000000000000000000000 DUP2 MSTORE POP PUSH1 0x3 SWAP1 DUP1 MLOAD SWAP1 PUSH1 0x20 ADD SWAP1 PUSH3 0x1DC SWAP3 SWAP2 SWAP1 PUSH3 0x23D JUMP JUMPDEST POP PUSH1 0x40 MLOAD DUP1 PUSH1 0x20 ADD PUSH3 0x1EF SWAP1 PUSH3 0x22F JUMP JUMPDEST PUSH1 0x20 DUP3 ADD DUP2 SUB DUP3 MSTORE PUSH1 0x1F NOT PUSH1 0x1F DUP3 ADD AND PUSH1 0x40 MSTORE POP PUSH1 0x4 SWAP1 DUP1 MLOAD SWAP1 PUSH1 0x20 ADD SWAP1 PUSH3 0x21A SWAP3 SWAP2 SWAP1 PUSH3 0x2CE JUMP JUMPDEST POP CALLVALUE DUP1 ISZERO PUSH3 0x228 JUMPI PUSH1 0x0 DUP1 REVERT JUMPDEST POP PUSH3 0x5D1 JUMP JUMPDEST PUSH2 0x2B3 DUP1 PUSH3 0xBE6 DUP4 CODECOPY ADD SWAP1 JUMP JUMPDEST DUP3 DUP1 SLOAD PUSH3 0x24B SWAP1 PUSH3 0x4E2 JUMP JUMPDEST SWAP1 PUSH1 0x0 MSTORE PUSH1 0x20 PUSH1 0x0 KECCAK256 SWAP1 PUSH1 0x1F ADD PUSH1 0x20 SWAP1 DIV DUP2 ADD SWAP3 DUP3 PUSH3 0x26F JUMPI PUSH1 0x0 DUP6 SSTORE PUSH3 0x2BB JUMP JUMPDEST DUP3 PUSH1 0x1F LT PUSH3 0x28A JUMPI DUP1 MLOAD PUSH1 0xFF NOT AND DUP4 DUP1 ADD OR DUP6 SSTORE PUSH3 0x2BB JUMP JUMPDEST DUP3 DUP1 ADD PUSH1 0x1 ADD DUP6 SSTORE DUP3 ISZERO PUSH3 0x2BB JUMPI SWAP2 DUP3 ADD JUMPDEST DUP3 DUP2 GT ISZERO PUSH3 0x2BA JUMPI DUP3 MLOAD DUP3 SSTORE SWAP2 PUSH1 0x20 ADD SWAP2 SWAP1 PUSH1 0x1 ADD SWAP1 PUSH3 0x29D JUMP JUMPDEST JUMPDEST POP SWAP1 POP PUSH3 0x2CA SWAP2 SWAP1 PUSH3 0x35F JUMP JUMPDEST POP SWAP1 JUMP JUMPDEST DUP3 DUP1 SLOAD PUSH3 0x2DC SWAP1 PUSH3 0x4E2 JUMP JUMPDEST SWAP1 PUSH1 0x0 MSTORE PUSH1 0x20 PUSH1 0x0 KECCAK256 SWAP1 PUSH1 0x1F ADD PUSH1 0x20 SWAP1 DIV DUP2 ADD SWAP3 DUP3 PUSH3 0x300 JUMPI PUSH1 0x0 DUP6 SSTORE PUSH3 0x34C JUMP JUMPDEST DUP3 PUSH1 0x1F LT PUSH3 0x31B JUMPI DUP1 MLOAD PUSH1 0xFF NOT AND DUP4 DUP1 ADD OR DUP6 SSTORE PUSH3 0x34C JUMP JUMPDEST DUP3 DUP1 ADD PUSH1 0x1 ADD DUP6 SSTORE DUP3 ISZERO PUSH3 0x34C JUMPI SWAP2 DUP3 ADD JUMPDEST DUP3 DUP2 GT ISZERO PUSH3 0x34B JUMPI DUP3 MLOAD DUP3 SSTORE SWAP2 PUSH1 0x20 ADD SWAP2 SWAP1 PUSH1 0x1 ADD SWAP1 PUSH3 0x32E JUMP JUMPDEST JUMPDEST POP SWAP1 POP PUSH3 0x35B SWAP2 SWAP1 PUSH3 0x35F JUMP JUMPDEST POP SWAP1 JUMP JUMPDEST JUMPDEST DUP1 DUP3 GT ISZERO PUSH3 0x37A JUMPI PUSH1 0x0 DUP2 PUSH1 0x0 SWAP1 SSTORE POP PUSH1 0x1 ADD PUSH3 0x360 JUMP JUMPDEST POP SWAP1 JUMP JUMPDEST PUSH1 0x0 PUSH3 0x395 PUSH3 0x38F DUP5 PUSH3 0x476 JUMP JUMPDEST PUSH3 0x44D JUMP JUMPDEST SWAP1 POP DUP3 DUP2 MSTORE PUSH1 0x20 DUP2 ADD DUP5 DUP5 DUP5 ADD GT ISZERO PUSH3 0x3B4 JUMPI PUSH3 0x3B3 PUSH3 0x5B1 JUMP JUMPDEST JUMPDEST PUSH3 0x3C1 DUP5 DUP3 DUP6 PUSH3 0x4AC JUMP JUMPDEST POP SWAP4 SWAP3 POP POP POP JUMP JUMPDEST PUSH1 0x0 DUP3 PUSH1 0x1F DUP4 ADD SLT PUSH3 0x3E1 JUMPI PUSH3 0x3E0 PUSH3 0x5AC JUMP JUMPDEST JUMPDEST DUP2 MLOAD PUSH3 0x3F3 DUP5 DUP3 PUSH1 0x20 DUP7 ADD PUSH3 0x37E JUMP JUMPDEST SWAP2 POP POP SWAP3 SWAP2 POP POP JUMP JUMPDEST PUSH1 0x0 PUSH1 0x20 DUP3 DUP5 SUB SLT ISZERO PUSH3 0x415 JUMPI PUSH3 0x414 PUSH3 0x5BB JUMP JUMPDEST JUMPDEST PUSH1 0x0 DUP3 ADD MLOAD PUSH8 0xFFFFFFFFFFFFFFFF DUP2 GT ISZERO PUSH3 0x436 JUMPI PUSH3 0x435 PUSH3 0x5B6 JUMP JUMPDEST JUMPDEST PUSH3 0x444 DUP5 DUP3 DUP6 ADD PUSH3 0x3C9 JUMP JUMPDEST SWAP2 POP POP SWAP3 SWAP2 POP POP JUMP JUMPDEST PUSH1 0x0 PUSH3 0x459 PUSH3 0x46C JUMP JUMPDEST SWAP1 POP PUSH3 0x467 DUP3 DUP3 PUSH3 0x518 JUMP JUMPDEST SWAP2 SWAP1 POP JUMP JUMPDEST PUSH1 0x0 PUSH1 0x40 MLOAD SWAP1 POP SWAP1 JUMP JUMPDEST PUSH1 0x0 PUSH8 0xFFFFFFFFFFFFFFFF DUP3 GT ISZERO PUSH3 0x494 JUMPI PUSH3 0x493 PUSH3 0x57D JUMP JUMPDEST JUMPDEST PUSH3 0x49F DUP3 PUSH3 0x5C0 JUMP JUMPDEST SWAP1 POP PUSH1 0x20 DUP2 ADD SWAP1 POP SWAP2 SWAP1 POP JUMP JUMPDEST PUSH1 0x0 JUMPDEST DUP4 DUP2 LT ISZERO PUSH3 0x4CC JUMPI DUP1 DUP3 ADD MLOAD DUP2 DUP5 ADD MSTORE PUSH1 0x20 DUP2 ADD SWAP1 POP PUSH3 0x4AF JUMP JUMPDEST DUP4 DUP2 GT ISZERO PUSH3 0x4DC JUMPI PUSH1 0x0 DUP5 DUP5 ADD MSTORE JUMPDEST POP POP POP POP JUMP JUMPDEST PUSH1 0x0 PUSH1 0x2 DUP3 DIV SWAP1 POP PUSH1 0x1 DUP3 AND DUP1 PUSH3 0x4FB JUMPI PUSH1 0x7F DUP3 AND SWAP2 POP JUMPDEST PUSH1 0x20 DUP3 LT DUP2 EQ ISZERO PUSH3 0x512 JUMPI PUSH3 0x511 PUSH3 0x54E JUMP JUMPDEST JUMPDEST POP SWAP2 SWAP1 POP JUMP JUMPDEST PUSH3 0x523 DUP3 PUSH3 0x5C0 JUMP JUMPDEST DUP2 ADD DUP2 DUP2 LT PUSH8 0xFFFFFFFFFFFFFFFF DUP3 GT OR ISZERO PUSH3 0x545 JUMPI PUSH3 0x544 PUSH3 0x57D JUMP JUMPDEST JUMPDEST DUP1 PUSH1 0x40 MSTORE POP POP POP JUMP JUMPDEST PUSH32 0x4E487B7100000000000000000000000000000000000000000000000000000000 PUSH1 0x0 MSTORE PUSH1 0x22 PUSH1 0x4 MSTORE PUSH1 0x24 PUSH1 0x0 REVERT JUMPDEST PUSH32 0x4E487B7100000000000000000000000000000000000000000000000000000000 PUSH1 0x0 MSTORE PUSH1 0x41 PUSH1 0x4 MSTORE PUSH1 0x24 PUSH1 0x0 REVERT JUMPDEST PUSH1 0x0 DUP1 REVERT JUMPDEST PUSH1 0x0 DUP1 REVERT JUMPDEST PUSH1 0x0 DUP1 REVERT JUMPDEST PUSH1 0x0 DUP1 REVERT JUMPDEST PUSH1 0x0 PUSH1 0x1F NOT PUSH1 0x1F DUP4 ADD AND SWAP1 POP SWAP2 SWAP1 POP JUMP JUMPDEST PUSH2 0x605 DUP1 PUSH3 0x5E1 PUSH1 0x0 CODECOPY PUSH1 0x0 RETURN INVALID PUSH1 0x80 PUSH1 0x40 MSTORE CALLVALUE DUP1 ISZERO PUSH2 0x10 JUMPI PUSH1 0x0 DUP1 REVERT JUMPDEST POP PUSH1 0x4 CALLDATASIZE LT PUSH2 0x57 JUMPI PUSH1 0x0 CALLDATALOAD PUSH1 0xE0 SHR DUP1 PUSH4 0x7C000138 EQ PUSH2 0x5C JUMPI DUP1 PUSH4 0xC15BAE84 EQ PUSH2 0x7A JUMPI DUP1 PUSH4 0xD01BB4D5 EQ PUSH2 0x98 JUMPI DUP1 PUSH4 0xD118D187 EQ PUSH2 0xB6 JUMPI DUP1 PUSH4 0xEE919D50 EQ PUSH2 0xD4 JUMPI JUMPDEST PUSH1 0x0 DUP1 REVERT JUMPDEST PUSH2 0x64 PUSH2 0xF0 JUMP JUMPDEST PUSH1 0x40 MLOAD PUSH2 0x71 SWAP2 SWAP1 PUSH2 0x43B JUMP JUMPDEST PUSH1 0x40 MLOAD DUP1 SWAP2 SUB SWAP1 RETURN JUMPDEST PUSH2 0x82 PUSH2 0x17E JUMP JUMPDEST PUSH1 0x40 MLOAD PUSH2 0x8F SWAP2 SWAP1 PUSH2 0x45D JUMP JUMPDEST PUSH1 0x40 MLOAD DUP1 SWAP2 SUB SWAP1 RETURN JUMPDEST PUSH2 0xA0 PUSH2 0x20C JUMP JUMPDEST PUSH1 0x40 MLOAD PUSH2 0xAD SWAP2 SWAP1 PUSH2 0x420 JUMP JUMPDEST PUSH1 0x40 MLOAD DUP1 SWAP2 SUB SWAP1 RETURN JUMPDEST PUSH2 0xBE PUSH2 0x232 JUMP JUMPDEST PUSH1 0x40 MLOAD PUSH2 0xCB SWAP2 SWAP1 PUSH2 0x45D JUMP JUMPDEST PUSH1 0x40 MLOAD DUP1 SWAP2 SUB SWAP1 RETURN JUMPDEST PUSH2 0xEE PUSH1 0x4 DUP1 CALLDATASIZE SUB DUP2 ADD SWAP1 PUSH2 0xE9 SWAP2 SWAP1 PUSH2 0x363 JUMP JUMPDEST PUSH2 0x2C0 JUMP JUMPDEST STOP JUMPDEST PUSH1 0x4 DUP1 SLOAD PUSH2 0xFD SWAP1 PUSH2 0x541 JUMP JUMPDEST DUP1 PUSH1 0x1F ADD PUSH1 0x20 DUP1 SWAP2 DIV MUL PUSH1 0x20 ADD PUSH1 0x40 MLOAD SWAP1 DUP2 ADD PUSH1 0x40 MSTORE DUP1 SWAP3 SWAP2 SWAP1 DUP2 DUP2 MSTORE PUSH1 0x20 ADD DUP3 DUP1 SLOAD PUSH2 0x129 SWAP1 PUSH2 0x541 JUMP JUMPDEST DUP1 ISZERO PUSH2 0x176 JUMPI DUP1 PUSH1 0x1F LT PUSH2 0x14B JUMPI PUSH2 0x100 DUP1 DUP4 SLOAD DIV MUL DUP4 MSTORE SWAP2 PUSH1 0x20 ADD SWAP2 PUSH2 0x176 JUMP JUMPDEST DUP3 ADD SWAP2 SWAP1 PUSH1 0x0 MSTORE PUSH1 0x20 PUSH1 0x0 KECCAK256 SWAP1 JUMPDEST DUP2 SLOAD DUP2 MSTORE SWAP1 PUSH1 0x1 ADD SWAP1 PUSH1 0x20 ADD DUP1 DUP4 GT PUSH2 0x159 JUMPI DUP3 SWAP1 SUB PUSH1 0x1F AND DUP3 ADD SWAP2 JUMPDEST POP POP POP POP POP DUP2 JUMP JUMPDEST PUSH1 0x2 DUP1 SLOAD PUSH2 0x18B SWAP1 PUSH2 0x541 JUMP JUMPDEST DUP1 PUSH1 0x1F ADD PUSH1 0x20 DUP1 SWAP2 DIV MUL PUSH1 0x20 ADD PUSH1 0x40 MLOAD SWAP1 DUP2 ADD PUSH1 0x40 MSTORE DUP1 SWAP3 SWAP2 SWAP1 DUP2 DUP2 MSTORE PUSH1 0x20 ADD DUP3 DUP1 SLOAD PUSH2 0x1B7 SWAP1 PUSH2 0x541 JUMP JUMPDEST DUP1 ISZERO PUSH2 0x204 JUMPI DUP1 PUSH1 0x1F LT PUSH2 0x1D9 JUMPI PUSH2 0x100 DUP1 DUP4 SLOAD DIV MUL DUP4 MSTORE SWAP2 PUSH1 0x20 ADD SWAP2 PUSH2 0x204 JUMP JUMPDEST DUP3 ADD SWAP2 SWAP1 PUSH1 0x0 MSTORE PUSH1 0x20 PUSH1 0x0 KECCAK256 SWAP1 JUMPDEST DUP2 SLOAD DUP2 MSTORE SWAP1 PUSH1 0x1 ADD SWAP1 PUSH1 0x20 ADD DUP1 DUP4 GT PUSH2 0x1E7 JUMPI DUP3 SWAP1 SUB PUSH1 0x1F AND DUP3 ADD SWAP2 JUMPDEST POP POP POP POP POP DUP2 JUMP JUMPDEST PUSH1 0x1 PUSH1 0x0 SWAP1 SLOAD SWAP1 PUSH2 0x100 EXP SWAP1 DIV PUSH20 0xFFFFFFFFFFFFFFFFFFFFFFFFFFFFFFFFFFFFFFFF AND DUP2 JUMP JUMPDEST PUSH1 0x3 DUP1 SLOAD PUSH2 0x23F SWAP1 PUSH2 0x541 JUMP JUMPDEST DUP1 PUSH1 0x1F ADD PUSH1 0x20 DUP1 SWAP2 DIV MUL PUSH1 0x20 ADD PUSH1 0x40 MLOAD SWAP1 DUP2 ADD PUSH1 0x40 MSTORE DUP1 SWAP3 SWAP2 SWAP1 DUP2 DUP2 MSTORE PUSH1 0x20 ADD DUP3 DUP1 SLOAD PUSH2 0x26B SWAP1 PUSH2 0x541 JUMP JUMPDEST DUP1 ISZERO PUSH2 0x2B8 JUMPI DUP1 PUSH1 0x1F LT PUSH2 0x28D JUMPI PUSH2 0x100 DUP1 DUP4 SLOAD DIV MUL DUP4 MSTORE SWAP2 PUSH1 0x20 ADD SWAP2 PUSH2 0x2B8 JUMP JUMPDEST DUP3 ADD SWAP2 SWAP1 PUSH1 0x0 MSTORE PUSH1 0x20 PUSH1 0x0 KECCAK256 SWAP1 JUMPDEST DUP2 SLOAD DUP2 MSTORE SWAP1 PUSH1 0x1 ADD SWAP1 PUSH1 0x20 ADD DUP1 DUP4 GT PUSH2 0x29B JUMPI DUP3 SWAP1 SUB PUSH1 0x1F AND DUP3 ADD SWAP2 JUMPDEST POP POP POP POP POP DUP2 JUMP JUMPDEST PUSH1 0x0 DUP1 SLOAD SWAP1 PUSH2 0x100 EXP SWAP1 DIV PUSH20 0xFFFFFFFFFFFFFFFFFFFFFFFFFFFFFFFFFFFFFFFF AND PUSH20 0xFFFFFFFFFFFFFFFFFFFFFFFFFFFFFFFFFFFFFFFF AND PUSH4 0xEE919D50 DUP3 PUSH1 0x40 MLOAD DUP3 PUSH4 0xFFFFFFFF AND PUSH1 0xE0 SHL DUP2 MSTORE PUSH1 0x4 ADD PUSH2 0x319 SWAP2 SWAP1 PUSH2 0x47F JUMP JUMPDEST PUSH1 0x0 PUSH1 0x40 MLOAD DUP1 DUP4 SUB DUP2 PUSH1 0x0 DUP8 DUP1 EXTCODESIZE ISZERO DUP1 ISZERO PUSH2 0x333 JUMPI PUSH1 0x0 DUP1 REVERT JUMPDEST POP GAS CALL ISZERO DUP1 ISZERO PUSH2 0x347 JUMPI RETURNDATASIZE PUSH1 0x0 DUP1 RETURNDATACOPY RETURNDATASIZE PUSH1 0x0 REVERT JUMPDEST POP POP POP POP POP JUMP JUMPDEST PUSH1 0x0 DUP2 CALLDATALOAD SWAP1 POP PUSH2 0x35D DUP2 PUSH2 0x5B8 JUMP JUMPDEST SWAP3 SWAP2 POP POP JUMP JUMPDEST PUSH1 0x0 PUSH1 0x20 DUP3 DUP5 SUB SLT ISZERO PUSH2 0x379 JUMPI PUSH2 0x378 PUSH2 0x5A2 JUMP JUMPDEST JUMPDEST PUSH1 0x0 PUSH2 0x387 DUP5 DUP3 DUP6 ADD PUSH2 0x34E JUMP JUMPDEST SWAP2 POP POP SWAP3 SWAP2 POP POP JUMP JUMPDEST PUSH2 0x399 DUP2 PUSH2 0x4D2 JUMP JUMPDEST DUP3 MSTORE POP POP JUMP JUMPDEST PUSH1 0x0 PUSH2 0x3AA DUP3 PUSH2 0x49A JUMP JUMPDEST PUSH2 0x3B4 DUP2 DUP6 PUSH2 0x4B0 JUMP JUMPDEST SWAP4 POP PUSH2 0x3C4 DUP2 DUP6 PUSH1 0x20 DUP7 ADD PUSH2 0x50E JUMP JUMPDEST PUSH2 0x3CD DUP2 PUSH2 0x5A7 JUMP JUMPDEST DUP5 ADD SWAP2 POP POP SWAP3 SWAP2 POP POP JUMP JUMPDEST PUSH1 0x0 PUSH2 0x3E3 DUP3 PUSH2 0x4A5 JUMP JUMPDEST PUSH2 0x3ED DUP2 DUP6 PUSH2 0x4C1 JUMP JUMPDEST SWAP4 POP PUSH2 0x3FD DUP2 DUP6 PUSH1 0x20 DUP7 ADD PUSH2 0x50E JUMP JUMPDEST PUSH2 0x406 DUP2 PUSH2 0x5A7 JUMP JUMPDEST DUP5 ADD SWAP2 POP POP SWAP3 SWAP2 POP POP JUMP JUMPDEST PUSH2 0x41A DUP2 PUSH2 0x504 JUMP JUMPDEST DUP3 MSTORE POP POP JUMP JUMPDEST PUSH1 0x0 PUSH1 0x20 DUP3 ADD SWAP1 POP PUSH2 0x435 PUSH1 0x0 DUP4 ADD DUP5 PUSH2 0x390 JUMP JUMPDEST SWAP3 SWAP2 POP POP JUMP JUMPDEST PUSH1 0x0 PUSH1 0x20 DUP3 ADD SWAP1 POP DUP2 DUP2 SUB PUSH1 0x0 DUP4 ADD MSTORE PUSH2 0x455 DUP2 DUP5 PUSH2 0x39F JUMP JUMPDEST SWAP1 POP SWAP3 SWAP2 POP POP JUMP JUMPDEST PUSH1 0x0 PUSH1 0x20 DUP3 ADD SWAP1 POP DUP2 DUP2 SUB PUSH1 0x0 DUP4 ADD MSTORE PUSH2 0x477 DUP2 DUP5 PUSH2 0x3D8 JUMP JUMPDEST SWAP1 POP SWAP3 SWAP2 POP POP JUMP JUMPDEST PUSH1 0x0 PUSH1 0x20 DUP3 ADD SWAP1 POP PUSH2 0x494 PUSH1 0x0 DUP4 ADD DUP5 PUSH2 0x411 JUMP JUMPDEST SWAP3 SWAP2 POP POP JUMP JUMPDEST PUSH1 0x0 DUP2 MLOAD SWAP1 POP SWAP2 SWAP1 POP JUMP JUMPDEST PUSH1 0x0 DUP2 MLOAD SWAP1 POP SWAP2 SWAP1 POP JUMP JUMPDEST PUSH1 0x0 DUP3 DUP3 MSTORE PUSH1 0x20 DUP3 ADD SWAP1 POP SWAP3 SWAP2 POP POP JUMP JUMPDEST PUSH1 0x0 DUP3 DUP3 MSTORE PUSH1 0x20 DUP3 ADD SWAP1 POP SWAP3 SWAP2 POP POP JUMP JUMPDEST PUSH1 0x0 PUSH2 0x4DD DUP3 PUSH2 0x4E4 JUMP JUMPDEST SWAP1 POP SWAP2 SWAP1 POP JUMP JUMPDEST PUSH1 0x0 PUSH20 0xFFFFFFFFFFFFFFFFFFFFFFFFFFFFFFFFFFFFFFFF DUP3 AND SWAP1 POP SWAP2 SWAP1 POP JUMP JUMPDEST PUSH1 0x0 DUP2 SWAP1 POP SWAP2 SWAP1 POP JUMP JUMPDEST PUSH1 0x0 JUMPDEST DUP4 DUP2 LT ISZERO PUSH2 0x52C JUMPI DUP1 DUP3 ADD MLOAD DUP2 DUP5 ADD MSTORE PUSH1 0x20 DUP2 ADD SWAP1 POP PUSH2 0x511 JUMP JUMPDEST DUP4 DUP2 GT ISZERO PUSH2 0x53B JUMPI PUSH1 0x0 DUP5 DUP5 ADD MSTORE JUMPDEST POP POP POP POP JUMP JUMPDEST PUSH1 0x0 PUSH1 0x2 DUP3 DIV SWAP1 POP PUSH1 0x1 DUP3 AND DUP1 PUSH2 0x559 JUMPI PUSH1 0x7F DUP3 AND SWAP2 POP JUMPDEST PUSH1 0x20 DUP3 LT DUP2 EQ ISZERO PUSH2 0x56D JUMPI PUSH2 0x56C PUSH2 0x573 JUMP JUMPDEST JUMPDEST POP SWAP2 SWAP1 POP JUMP JUMPDEST PUSH32 0x4E487B7100000000000000000000000000000000000000000000000000000000 PUSH1 0x0 MSTORE PUSH1 0x22 PUSH1 0x4 MSTORE PUSH1 0x24 PUSH1 0x0 REVERT JUMPDEST PUSH1 0x0 DUP1 REVERT JUMPDEST PUSH1 0x0 PUSH1 0x1F NOT PUSH1 0x1F DUP4 ADD AND SWAP1 POP SWAP2 SWAP1 POP JUMP JUMPDEST PUSH2 0x5C1 DUP2 PUSH2 0x504 JUMP JUMPDEST DUP2 EQ PUSH2 0x5CC JUMPI PUSH1 0x0 DUP1 REVERT JUMPDEST POP JUMP INVALID LOG2 PUSH5 0x6970667358 0x22 SLT KECCAK256 0xDD BYTE SHL 0xC2 DUP3 0xC2 LOG1 0x29 CALL 0xAC MSTORE 0xC9 0xF7 PUSH23 0x2D01E7297EE4128F0338E9A0A180D04F16B464736F6C63 NUMBER STOP ADDMOD SMOD STOP CALLER PUSH1 0x80 PUSH1 0x40 MSTORE CALLVALUE DUP1 ISZERO PUSH2 0x10 JUMPI PUSH1 0x0 DUP1 REVERT JUMPDEST POP PUSH2 0x293 DUP1 PUSH2 0x20 PUSH1 0x0 CODECOPY PUSH1 0x0 RETURN INVALID PUSH1 0x80 PUSH1 0x40 MSTORE PUSH1 0x4 CALLDATASIZE LT PUSH2 0x38 JUMPI PUSH1 0x0 CALLDATALOAD PUSH1 0xE0 SHR DUP1 PUSH4 0xDBE671F EQ PUSH2 0x44 JUMPI DUP1 PUSH4 0xEE919D50 EQ PUSH2 0x6F JUMPI DUP1 PUSH4 0xF5F5BA72 EQ PUSH2 0x98 JUMPI PUSH2 0x3F JUMP JUMPDEST CALLDATASIZE PUSH2 0x3F JUMPI STOP JUMPDEST PUSH1 0x0 DUP1 REVERT JUMPDEST CALLVALUE DUP1 ISZERO PUSH2 0x50 JUMPI PUSH1 0x0 DUP1 REVERT JUMPDEST POP PUSH2 0x59 PUSH2 0xC3 JUMP JUMPDEST PUSH1 0x40 MLOAD PUSH2 0x66 SWAP2 SWAP1 PUSH2 0x1BC JUMP JUMPDEST PUSH1 0x40 MLOAD DUP1 SWAP2 SUB SWAP1 RETURN JUMPDEST CALLVALUE DUP1 ISZERO PUSH2 0x7B JUMPI PUSH1 0x0 DUP1 REVERT JUMPDEST POP PUSH2 0x96 PUSH1 0x4 DUP1 CALLDATASIZE SUB DUP2 ADD SWAP1 PUSH2 0x91 SWAP2 SWAP1 PUSH2 0x125 JUMP JUMPDEST PUSH2 0xC9 JUMP JUMPDEST STOP JUMPDEST CALLVALUE DUP1 ISZERO PUSH2 0xA4 JUMPI PUSH1 0x0 DUP1 REVERT JUMPDEST POP PUSH2 0xAD PUSH2 0xD3 JUMP JUMPDEST PUSH1 0x40 MLOAD PUSH2 0xBA SWAP2 SWAP1 PUSH2 0x19A JUMP JUMPDEST PUSH1 0x40 MLOAD DUP1 SWAP2 SUB SWAP1 RETURN JUMPDEST PUSH1 0x0 SLOAD DUP2 JUMP JUMPDEST DUP1 PUSH1 0x0 DUP2 SWAP1 SSTORE POP POP JUMP JUMPDEST PUSH1 0x60 PUSH1 0x40 MLOAD DUP1 PUSH1 0x40 ADD PUSH1 0x40 MSTORE DUP1 PUSH1 0x6 DUP2 MSTORE PUSH1 0x20 ADD PUSH32 0x7479706531330000000000000000000000000000000000000000000000000000 DUP2 MSTORE POP SWAP1 POP SWAP1 JUMP JUMPDEST PUSH1 0x0 DUP2 CALLDATALOAD SWAP1 POP PUSH2 0x11F DUP2 PUSH2 0x246 JUMP JUMPDEST SWAP3 SWAP2 POP POP JUMP JUMPDEST PUSH1 0x0 PUSH1 0x20 DUP3 DUP5 SUB SLT ISZERO PUSH2 0x13B JUMPI PUSH2 0x13A PUSH2 0x230 JUMP JUMPDEST JUMPDEST PUSH1 0x0 PUSH2 0x149 DUP5 DUP3 DUP6 ADD PUSH2 0x110 JUMP JUMPDEST SWAP2 POP POP SWAP3 SWAP2 POP POP JUMP JUMPDEST PUSH1 0x0 PUSH2 0x15D DUP3 PUSH2 0x1D7 JUMP JUMPDEST PUSH2 0x167 DUP2 DUP6 PUSH2 0x1E2 JUMP JUMPDEST SWAP4 POP PUSH2 0x177 DUP2 DUP6 PUSH1 0x20 DUP7 ADD PUSH2 0x1FD JUMP JUMPDEST PUSH2 0x180 DUP2 PUSH2 0x235 JUMP JUMPDEST DUP5 ADD SWAP2 POP POP SWAP3 SWAP2 POP POP JUMP JUMPDEST PUSH2 0x194 DUP2 PUSH2 0x1F3 JUMP JUMPDEST DUP3 MSTORE POP POP JUMP JUMPDEST PUSH1 0x0 PUSH1 0x20 DUP3 ADD SWAP1 POP DUP2 DUP2 SUB PUSH1 0x0 DUP4 ADD MSTORE PUSH2 0x1B4 DUP2 DUP5 PUSH2 0x152 JUMP JUMPDEST SWAP1 POP SWAP3 SWAP2 POP POP JUMP JUMPDEST PUSH1 0x0 PUSH1 0x20 DUP3 ADD SWAP1 POP PUSH2 0x1D1 PUSH1 0x0 DUP4 ADD DUP5 PUSH2 0x18B JUMP JUMPDEST SWAP3 SWAP2 POP POP JUMP JUMPDEST PUSH1 0x0 DUP2 MLOAD SWAP1 POP SWAP2 SWAP1 POP JUMP JUMPDEST PUSH1 0x0 DUP3 DUP3 MSTORE PUSH1 0x20 DUP3 ADD SWAP1 POP SWAP3 SWAP2 POP POP JUMP JUMPDEST PUSH1 0x0 DUP2 SWAP1 POP SWAP2 SWAP1 POP JUMP JUMPDEST PUSH1 0x0 JUMPDEST DUP4 DUP2 LT ISZERO PUSH2 0x21B JUMPI DUP1 DUP3 ADD MLOAD DUP2 DUP5 ADD MSTORE PUSH1 0x20 DUP2 ADD SWAP1 POP PUSH2 0x200 JUMP JUMPDEST DUP4 DUP2 GT ISZERO PUSH2 0x22A JUMPI PUSH1 0x0 DUP5 DUP5 ADD MSTORE JUMPDEST POP POP POP POP JUMP JUMPDEST PUSH1 0x0 DUP1 REVERT JUMPDEST PUSH1 0x0 PUSH1 0x1F NOT PUSH1 0x1F DUP4 ADD AND SWAP1 POP SWAP2 SWAP1 POP JUMP JUMPDEST PUSH2 0x24F DUP2 PUSH2 0x1F3 JUMP JUMPDEST DUP2 EQ PUSH2 0x25A JUMPI PUSH1 0x0 DUP1 REVERT JUMPDEST POP JUMP INVALID LOG2 PUSH5 0x6970667358 0x22 SLT KECCAK256 CALLVALUE 0xAC PUSH29 0x631C8C113B301D2F3F2F2BFB262EEEAEC904CD9225742109C0D2D27E96 PUSH5 0x736F6C6343 STOP ADDMOD SMOD STOP CALLER "
				},
				"gasEstimates": {
					"creation": {
						"codeDepositCost": "308200",
						"executionCost": "infinite",
						"totalCost": "infinite"
					},
					"external": {
						"by()": "infinite",
						"contractaddr()": "2536",
						"setA(uint256)": "infinite",
						"str()": "infinite",
						"str1()": "infinite"
					}
				},
				"methodIdentifiers": {
					"by()": "7c000138",
					"contractaddr()": "d01bb4d5",
					"setA(uint256)": "ee919d50",
					"str()": "c15bae84",
					"str1()": "d118d187"
				}
			},
			"storageLayout": {
				"storage": [
					{
						"astId": 83,
						"contract": "chapter02/9type3.sol:type14",
						"label": "t",
						"offset": 0,
						"slot": "0",
						"type": "t_contract(type13)76"
					},
					{
						"astId": 89,
						"contract": "chapter02/9type3.sol:type14",
						"label": "contractaddr",
						"offset": 0,
						"slot": "1",
						"type": "t_address"
					},
					{
						"astId": 94,
						"contract": "chapter02/9type3.sol:type14",
						"label": "str",
						"offset": 0,
						"slot": "2",
						"type": "t_string_storage"
					},
					{
						"astId": 112,
						"contract": "chapter02/9type3.sol:type14",
						"label": "str1",
						"offset": 0,
						"slot": "3",
						"type": "t_string_storage"
					},
					{
						"astId": 118,
						"contract": "chapter02/9type3.sol:type14",
						"label": "by",
						"offset": 0,
						"slot": "4",
						"type": "t_bytes_storage"
					}
				],
				"types": {
					"t_address": {
						"encoding": "inplace",
						"label": "address",
						"numberOfBytes": "20"
					},
					"t_bytes_storage": {
						"encoding": "bytes",
						"label": "bytes",
						"numberOfBytes": "32"
					},
					"t_contract(type13)76": {
						"encoding": "inplace",
						"label": "contract type13",
						"numberOfBytes": "20"
					},
					"t_string_storage": {
						"encoding": "bytes",
						"label": "string",
						"numberOfBytes": "32"
					}
				}
			},
			"userdoc": {
				"kind": "user",
				"methods": {},
				"version": 1
			}
		}
	}
}