{
	"chapter02/9type3.sol": {
		"type2": {
			"abi": [
				{
					"inputs": [],
					"name": "i1",
					"outputs": [
						{
							"internalType": "uint256",
							"name": "",
							"type": "uint256"
						}
					],
					"stateMutability": "view",
					"type": "function"
				},
				{
					"inputs": [],
					"name": "max",
					"outputs": [
						{
							"internalType": "uint256",
							"name": "",
							"type": "uint256"
						}
					],
					"stateMutability": "view",
					"type": "function"
				},
				{
					"inputs": [],
					"name": "maxI",
					"outputs": [
						{
							"internalType": "int256",
							"name": "",
							"type": "int256"
						}
					],
					"stateMutability": "view",
					"type": "function"
				},
				{
					"inputs": [],
					"name": "min",
					"outputs": [
						{
							"internalType": "uint256",
							"name": "",
							"type": "uint256"
						}
					],
					"stateMutability": "view",
					"type": "function"
				},
				{
					"inputs": [],
					"name": "minI",
					"outputs": [
						{
							"internalType": "int256",
							"name": "",
							"type": "int256"
						}
					],
					"stateMutability": "view",
					"type": "function"
				},
				{
					"inputs": [
						{
							"internalType": "uint256",
							"name": "_i1",
							"type": "uint256"
						}
					],
					"name": "setI1",
					"outputs": [],
					"stateMutability": "nonpayable",
					"type": "function"
				}
			],
			"devdoc": {
				"kind": "dev",
				"methods": {},
				"version": 1
			},
			"evm": {
				"assembly": "    /* \"chapter02/9type3.sol\":2994:3313  contract type2{... */\n  mstore(0x40, 0x80)\n    /* \"chapter02/9type3.sol\":3063:3077  type(uint).max */\n  0xffffffffffffffffffffffffffffffffffffffffffffffffffffffffffffffff\n    /* \"chapter02/9type3.sol\":3045:3077  uint public max = type(uint).max */\n  0x00\n  sstore\n    /* \"chapter02/9type3.sol\":3101:3115  type(uint).min */\n  0x00\n    /* \"chapter02/9type3.sol\":3083:3115  uint public min = type(uint).min */\n  0x01\n  sstore\n    /* \"chapter02/9type3.sol\":3140:3153  type(int).max */\n  0x7fffffffffffffffffffffffffffffffffffffffffffffffffffffffffffffff\n    /* \"chapter02/9type3.sol\":3123:3153  int public maxI= type(int).max */\n  0x02\n  sstore\n    /* \"chapter02/9type3.sol\":3176:3189  type(int).min */\n  0x8000000000000000000000000000000000000000000000000000000000000000\n    /* \"chapter02/9type3.sol\":3159:3189  int public minI= type(int).min */\n  0x03\n  sstore\n    /* \"chapter02/9type3.sol\":2994:3313  contract type2{... */\n  callvalue\n  dup1\n  iszero\n  tag_1\n  jumpi\n  0x00\n  dup1\n  revert\ntag_1:\n  pop\n  dataSize(sub_0)\n  dup1\n  dataOffset(sub_0)\n  0x00\n  codecopy\n  0x00\n  return\nstop\n\nsub_0: assembly {\n        /* \"chapter02/9type3.sol\":2994:3313  contract type2{... */\n      mstore(0x40, 0x80)\n      callvalue\n      dup1\n      iszero\n      tag_1\n      jumpi\n      0x00\n      dup1\n      revert\n    tag_1:\n      pop\n      jumpi(tag_2, lt(calldatasize, 0x04))\n      shr(0xe0, calldataload(0x00))\n      dup1\n      0x28897238\n      eq\n      tag_3\n      jumpi\n      dup1\n      0x6ac5db19\n      eq\n      tag_4\n      jumpi\n      dup1\n      0xc90817dd\n      eq\n      tag_5\n      jumpi\n      dup1\n      0xefeb19a9\n      eq\n      tag_6\n      jumpi\n      dup1\n      0xf57afaf8\n      eq\n      tag_7\n      jumpi\n      dup1\n      0xf8897945\n      eq\n      tag_8\n      jumpi\n    tag_2:\n      0x00\n      dup1\n      revert\n        /* \"chapter02/9type3.sol\":3196:3210  uint public i1 */\n    tag_3:\n      tag_9\n      tag_10\n      jump\t// in\n    tag_9:\n      mload(0x40)\n      tag_11\n      swap2\n      swap1\n      tag_12\n      jump\t// in\n    tag_11:\n      mload(0x40)\n      dup1\n      swap2\n      sub\n      swap1\n      return\n        /* \"chapter02/9type3.sol\":3045:3077  uint public max = type(uint).max */\n    tag_4:\n      tag_13\n      tag_14\n      jump\t// in\n    tag_13:\n      mload(0x40)\n      tag_15\n      swap2\n      swap1\n      tag_12\n      jump\t// in\n    tag_15:\n      mload(0x40)\n      dup1\n      swap2\n      sub\n      swap1\n      return\n        /* \"chapter02/9type3.sol\":3123:3153  int public maxI= type(int).max */\n    tag_5:\n      tag_16\n      tag_17\n      jump\t// in\n    tag_16:\n      mload(0x40)\n      tag_18\n      swap2\n      swap1\n      tag_19\n      jump\t// in\n    tag_18:\n      mload(0x40)\n      dup1\n      swap2\n      sub\n      swap1\n      return\n        /* \"chapter02/9type3.sol\":3159:3189  int public minI= type(int).min */\n    tag_6:\n      tag_20\n      tag_21\n      jump\t// in\n    tag_20:\n      mload(0x40)\n      tag_22\n      swap2\n      swap1\n      tag_19\n      jump\t// in\n    tag_22:\n      mload(0x40)\n      dup1\n      swap2\n      sub\n      swap1\n      return\n        /* \"chapter02/9type3.sol\":3216:3311  function setI1(uint _i1)external {... */\n    tag_7:\n      tag_23\n      0x04\n      dup1\n      calldatasize\n      sub\n      dup2\n      add\n      swap1\n      tag_24\n      swap2\n      swap1\n      tag_25\n      jump\t// in\n    tag_24:\n      tag_26\n      jump\t// in\n    tag_23:\n      stop\n        /* \"chapter02/9type3.sol\":3083:3115  uint public min = type(uint).min */\n    tag_8:\n      tag_27\n      tag_28\n      jump\t// in\n    tag_27:\n      mload(0x40)\n      tag_29\n      swap2\n      swap1\n      tag_12\n      jump\t// in\n    tag_29:\n      mload(0x40)\n      dup1\n      swap2\n      sub\n      swap1\n      return\n        /* \"chapter02/9type3.sol\":3196:3210  uint public i1 */\n    tag_10:\n      sload(0x04)\n      dup2\n      jump\t// out\n        /* \"chapter02/9type3.sol\":3045:3077  uint public max = type(uint).max */\n    tag_14:\n      sload(0x00)\n      dup2\n      jump\t// out\n        /* \"chapter02/9type3.sol\":3123:3153  int public maxI= type(int).max */\n    tag_17:\n      sload(0x02)\n      dup2\n      jump\t// out\n        /* \"chapter02/9type3.sol\":3159:3189  int public minI= type(int).min */\n    tag_21:\n      sload(0x03)\n      dup2\n      jump\t// out\n        /* \"chapter02/9type3.sol\":3216:3311  function setI1(uint _i1)external {... */\n    tag_26:\n        /* \"chapter02/9type3.sol\":3272:3275  max */\n      sload(0x00)\n        /* \"chapter02/9type3.sol\":3267:3270  _i1 */\n      dup2\n        /* \"chapter02/9type3.sol\":3267:3275  _i1<=max */\n      gt\n      iszero\n        /* \"chapter02/9type3.sol\":3259:3286  require(_i1<=max,\"up over\") */\n      tag_31\n      jumpi\n      mload(0x40)\n      0x08c379a000000000000000000000000000000000000000000000000000000000\n      dup2\n      mstore\n      0x04\n      add\n      tag_32\n      swap1\n      tag_33\n      jump\t// in\n    tag_32:\n      mload(0x40)\n      dup1\n      swap2\n      sub\n      swap1\n      revert\n    tag_31:\n        /* \"chapter02/9type3.sol\":3301:3304  _i1 */\n      dup1\n        /* \"chapter02/9type3.sol\":3296:3298  i1 */\n      0x04\n        /* \"chapter02/9type3.sol\":3296:3304  i1 = _i1 */\n      dup2\n      swap1\n      sstore\n      pop\n        /* \"chapter02/9type3.sol\":3216:3311  function setI1(uint _i1)external {... */\n      pop\n      jump\t// out\n        /* \"chapter02/9type3.sol\":3083:3115  uint public min = type(uint).min */\n    tag_28:\n      sload(0x01)\n      dup2\n      jump\t// out\n        /* \"#utility.yul\":7:84   */\n    tag_34:\n        /* \"#utility.yul\":44:51   */\n      0x00\n        /* \"#utility.yul\":73:78   */\n      dup2\n        /* \"#utility.yul\":62:78   */\n      swap1\n      pop\n        /* \"#utility.yul\":7:84   */\n      swap2\n      swap1\n      pop\n      jump\t// out\n        /* \"#utility.yul\":90:208   */\n    tag_35:\n        /* \"#utility.yul\":177:201   */\n      tag_49\n        /* \"#utility.yul\":195:200   */\n      dup2\n        /* \"#utility.yul\":177:201   */\n      tag_34\n      jump\t// in\n    tag_49:\n        /* \"#utility.yul\":172:175   */\n      dup3\n        /* \"#utility.yul\":165:202   */\n      mstore\n        /* \"#utility.yul\":90:208   */\n      pop\n      pop\n      jump\t// out\n        /* \"#utility.yul\":214:436   */\n    tag_12:\n        /* \"#utility.yul\":307:311   */\n      0x00\n        /* \"#utility.yul\":345:347   */\n      0x20\n        /* \"#utility.yul\":334:343   */\n      dup3\n        /* \"#utility.yul\":330:348   */\n      add\n        /* \"#utility.yul\":322:348   */\n      swap1\n      pop\n        /* \"#utility.yul\":358:429   */\n      tag_51\n        /* \"#utility.yul\":426:427   */\n      0x00\n        /* \"#utility.yul\":415:424   */\n      dup4\n        /* \"#utility.yul\":411:428   */\n      add\n        /* \"#utility.yul\":402:408   */\n      dup5\n        /* \"#utility.yul\":358:429   */\n      tag_35\n      jump\t// in\n    tag_51:\n        /* \"#utility.yul\":214:436   */\n      swap3\n      swap2\n      pop\n      pop\n      jump\t// out\n        /* \"#utility.yul\":442:518   */\n    tag_36:\n        /* \"#utility.yul\":478:485   */\n      0x00\n        /* \"#utility.yul\":507:512   */\n      dup2\n        /* \"#utility.yul\":496:512   */\n      swap1\n      pop\n        /* \"#utility.yul\":442:518   */\n      swap2\n      swap1\n      pop\n      jump\t// out\n        /* \"#utility.yul\":524:639   */\n    tag_37:\n        /* \"#utility.yul\":609:632   */\n      tag_54\n        /* \"#utility.yul\":626:631   */\n      dup2\n        /* \"#utility.yul\":609:632   */\n      tag_36\n      jump\t// in\n    tag_54:\n        /* \"#utility.yul\":604:607   */\n      dup3\n        /* \"#utility.yul\":597:633   */\n      mstore\n        /* \"#utility.yul\":524:639   */\n      pop\n      pop\n      jump\t// out\n        /* \"#utility.yul\":645:863   */\n    tag_19:\n        /* \"#utility.yul\":736:740   */\n      0x00\n        /* \"#utility.yul\":774:776   */\n      0x20\n        /* \"#utility.yul\":763:772   */\n      dup3\n        /* \"#utility.yul\":759:777   */\n      add\n        /* \"#utility.yul\":751:777   */\n      swap1\n      pop\n        /* \"#utility.yul\":787:856   */\n      tag_56\n        /* \"#utility.yul\":853:854   */\n      0x00\n        /* \"#utility.yul\":842:851   */\n      dup4\n        /* \"#utility.yul\":838:855   */\n      add\n        /* \"#utility.yul\":829:835   */\n      dup5\n        /* \"#utility.yul\":787:856   */\n      tag_37\n      jump\t// in\n    tag_56:\n        /* \"#utility.yul\":645:863   */\n      swap3\n      swap2\n      pop\n      pop\n      jump\t// out\n        /* \"#utility.yul\":950:1067   */\n    tag_39:\n        /* \"#utility.yul\":1059:1060   */\n      0x00\n        /* \"#utility.yul\":1056:1057   */\n      dup1\n        /* \"#utility.yul\":1049:1061   */\n      revert\n        /* \"#utility.yul\":1196:1318   */\n    tag_41:\n        /* \"#utility.yul\":1269:1293   */\n      tag_61\n        /* \"#utility.yul\":1287:1292   */\n      dup2\n        /* \"#utility.yul\":1269:1293   */\n      tag_34\n      jump\t// in\n    tag_61:\n        /* \"#utility.yul\":1262:1267   */\n      dup2\n        /* \"#utility.yul\":1259:1294   */\n      eq\n        /* \"#utility.yul\":1249:1312   */\n      tag_62\n      jumpi\n        /* \"#utility.yul\":1308:1309   */\n      0x00\n        /* \"#utility.yul\":1305:1306   */\n      dup1\n        /* \"#utility.yul\":1298:1310   */\n      revert\n        /* \"#utility.yul\":1249:1312   */\n    tag_62:\n        /* \"#utility.yul\":1196:1318   */\n      pop\n      jump\t// out\n        /* \"#utility.yul\":1324:1463   */\n    tag_42:\n        /* \"#utility.yul\":1370:1375   */\n      0x00\n        /* \"#utility.yul\":1408:1414   */\n      dup2\n        /* \"#utility.yul\":1395:1415   */\n      calldataload\n        /* \"#utility.yul\":1386:1415   */\n      swap1\n      pop\n        /* \"#utility.yul\":1424:1457   */\n      tag_64\n        /* \"#utility.yul\":1451:1456   */\n      dup2\n        /* \"#utility.yul\":1424:1457   */\n      tag_41\n      jump\t// in\n    tag_64:\n        /* \"#utility.yul\":1324:1463   */\n      swap3\n      swap2\n      pop\n      pop\n      jump\t// out\n        /* \"#utility.yul\":1469:1798   */\n    tag_25:\n        /* \"#utility.yul\":1528:1534   */\n      0x00\n        /* \"#utility.yul\":1577:1579   */\n      0x20\n        /* \"#utility.yul\":1565:1574   */\n      dup3\n        /* \"#utility.yul\":1556:1563   */\n      dup5\n        /* \"#utility.yul\":1552:1575   */\n      sub\n        /* \"#utility.yul\":1548:1580   */\n      slt\n        /* \"#utility.yul\":1545:1664   */\n      iszero\n      tag_66\n      jumpi\n        /* \"#utility.yul\":1583:1662   */\n      tag_67\n      tag_39\n      jump\t// in\n    tag_67:\n        /* \"#utility.yul\":1545:1664   */\n    tag_66:\n        /* \"#utility.yul\":1703:1704   */\n      0x00\n        /* \"#utility.yul\":1728:1781   */\n      tag_68\n        /* \"#utility.yul\":1773:1780   */\n      dup5\n        /* \"#utility.yul\":1764:1770   */\n      dup3\n        /* \"#utility.yul\":1753:1762   */\n      dup6\n        /* \"#utility.yul\":1749:1771   */\n      add\n        /* \"#utility.yul\":1728:1781   */\n      tag_42\n      jump\t// in\n    tag_68:\n        /* \"#utility.yul\":1718:1781   */\n      swap2\n      pop\n        /* \"#utility.yul\":1674:1791   */\n      pop\n        /* \"#utility.yul\":1469:1798   */\n      swap3\n      swap2\n      pop\n      pop\n      jump\t// out\n        /* \"#utility.yul\":1804:1973   */\n    tag_43:\n        /* \"#utility.yul\":1888:1899   */\n      0x00\n        /* \"#utility.yul\":1922:1928   */\n      dup3\n        /* \"#utility.yul\":1917:1920   */\n      dup3\n        /* \"#utility.yul\":1910:1929   */\n      mstore\n        /* \"#utility.yul\":1962:1966   */\n      0x20\n        /* \"#utility.yul\":1957:1960   */\n      dup3\n        /* \"#utility.yul\":1953:1967   */\n      add\n        /* \"#utility.yul\":1938:1967   */\n      swap1\n      pop\n        /* \"#utility.yul\":1804:1973   */\n      swap3\n      swap2\n      pop\n      pop\n      jump\t// out\n        /* \"#utility.yul\":1979:2136   */\n    tag_44:\n        /* \"#utility.yul\":2119:2128   */\n      0x7570206f76657200000000000000000000000000000000000000000000000000\n        /* \"#utility.yul\":2115:2116   */\n      0x00\n        /* \"#utility.yul\":2107:2113   */\n      dup3\n        /* \"#utility.yul\":2103:2117   */\n      add\n        /* \"#utility.yul\":2096:2129   */\n      mstore\n        /* \"#utility.yul\":1979:2136   */\n      pop\n      jump\t// out\n        /* \"#utility.yul\":2142:2507   */\n    tag_45:\n        /* \"#utility.yul\":2284:2287   */\n      0x00\n        /* \"#utility.yul\":2305:2371   */\n      tag_72\n        /* \"#utility.yul\":2369:2370   */\n      0x07\n        /* \"#utility.yul\":2364:2367   */\n      dup4\n        /* \"#utility.yul\":2305:2371   */\n      tag_43\n      jump\t// in\n    tag_72:\n        /* \"#utility.yul\":2298:2371   */\n      swap2\n      pop\n        /* \"#utility.yul\":2380:2473   */\n      tag_73\n        /* \"#utility.yul\":2469:2472   */\n      dup3\n        /* \"#utility.yul\":2380:2473   */\n      tag_44\n      jump\t// in\n    tag_73:\n        /* \"#utility.yul\":2498:2500   */\n      0x20\n        /* \"#utility.yul\":2493:2496   */\n      dup3\n        /* \"#utility.yul\":2489:2501   */\n      add\n        /* \"#utility.yul\":2482:2501   */\n      swap1\n      pop\n        /* \"#utility.yul\":2142:2507   */\n      swap2\n      swap1\n      pop\n      jump\t// out\n        /* \"#utility.yul\":2513:2932   */\n    tag_33:\n        /* \"#utility.yul\":2679:2683   */\n      0x00\n        /* \"#utility.yul\":2717:2719   */\n      0x20\n        /* \"#utility.yul\":2706:2715   */\n      dup3\n        /* \"#utility.yul\":2702:2720   */\n      add\n        /* \"#utility.yul\":2694:2720   */\n      swap1\n      pop\n        /* \"#utility.yul\":2766:2775   */\n      dup2\n        /* \"#utility.yul\":2760:2764   */\n      dup2\n        /* \"#utility.yul\":2756:2776   */\n      sub\n        /* \"#utility.yul\":2752:2753   */\n      0x00\n        /* \"#utility.yul\":2741:2750   */\n      dup4\n        /* \"#utility.yul\":2737:2754   */\n      add\n        /* \"#utility.yul\":2730:2777   */\n      mstore\n        /* \"#utility.yul\":2794:2925   */\n      tag_75\n        /* \"#utility.yul\":2920:2924   */\n      dup2\n        /* \"#utility.yul\":2794:2925   */\n      tag_45\n      jump\t// in\n    tag_75:\n        /* \"#utility.yul\":2786:2925   */\n      swap1\n      pop\n        /* \"#utility.yul\":2513:2932   */\n      swap2\n      swap1\n      pop\n      jump\t// out\n\n    auxdata: 0xa2646970667358221220c17fc099c0ae8b30ae7b815b11fdb4f15e3b65a0ac416bee7c1a5e31a6e68e7464736f6c634300080f0033\n}\n",
				"bytecode": {
					"linkReferences": {},
					"object": "60806040527fffffffffffffffffffffffffffffffffffffffffffffffffffffffffffffffff60005560006001557f7fffffffffffffffffffffffffffffffffffffffffffffffffffffffffffffff6002557f800000000000000000000000000000000000000000000000000000000000000060035534801561008157600080fd5b506102ff806100916000396000f3fe608060405234801561001057600080fd5b50600436106100625760003560e01c806328897238146100675780636ac5db1914610085578063c90817dd146100a3578063efeb19a9146100c1578063f57afaf8146100df578063f8897945146100fb575b600080fd5b61006f610119565b60405161007c919061019f565b60405180910390f35b61008d61011f565b60405161009a919061019f565b60405180910390f35b6100ab610125565b6040516100b891906101d3565b60405180910390f35b6100c961012b565b6040516100d691906101d3565b60405180910390f35b6100f960048036038101906100f4919061021f565b610131565b005b610103610180565b604051610110919061019f565b60405180910390f35b60045481565b60005481565b60025481565b60035481565b600054811115610176576040517f08c379a000000000000000000000000000000000000000000000000000000000815260040161016d906102a9565b60405180910390fd5b8060048190555050565b60015481565b6000819050919050565b61019981610186565b82525050565b60006020820190506101b46000830184610190565b92915050565b6000819050919050565b6101cd816101ba565b82525050565b60006020820190506101e860008301846101c4565b92915050565b600080fd5b6101fc81610186565b811461020757600080fd5b50565b600081359050610219816101f3565b92915050565b600060208284031215610235576102346101ee565b5b60006102438482850161020a565b91505092915050565b600082825260208201905092915050565b7f7570206f76657200000000000000000000000000000000000000000000000000600082015250565b600061029360078361024c565b915061029e8261025d565b602082019050919050565b600060208201905081810360008301526102c281610286565b905091905056fea2646970667358221220c17fc099c0ae8b30ae7b815b11fdb4f15e3b65a0ac416bee7c1a5e31a6e68e7464736f6c634300080f0033",
					"opcodes": "PUSH1 0x80 PUSH1 0x40 MSTORE PUSH32 0xFFFFFFFFFFFFFFFFFFFFFFFFFFFFFFFFFFFFFFFFFFFFFFFFFFFFFFFFFFFFFFFF PUSH1 0x0 SSTORE PUSH1 0x0 PUSH1 0x1 SSTORE PUSH32 0x7FFFFFFFFFFFFFFFFFFFFFFFFFFFFFFFFFFFFFFFFFFFFFFFFFFFFFFFFFFFFFFF PUSH1 0x2 SSTORE PUSH32 0x8000000000000000000000000000000000000000000000000000000000000000 PUSH1 0x3 SSTORE CALLVALUE DUP1 ISZERO PUSH2 0x81 JUMPI PUSH1 0x0 DUP1 REVERT JUMPDEST POP PUSH2 0x2FF DUP1 PUSH2 0x91 PUSH1 0x0 CODECOPY PUSH1 0x0 RETURN INVALID PUSH1 0x80 PUSH1 0x40 MSTORE CALLVALUE DUP1 ISZERO PUSH2 0x10 JUMPI PUSH1 0x0 DUP1 REVERT JUMPDEST POP PUSH1 0x4 CALLDATASIZE LT PUSH2 0x62 JUMPI PUSH1 0x0 CALLDATALOAD PUSH1 0xE0 SHR DUP1 PUSH4 0x28897238 EQ PUSH2 0x67 JUMPI DUP1 PUSH4 0x6AC5DB19 EQ PUSH2 0x85 JUMPI DUP1 PUSH4 0xC90817DD EQ PUSH2 0xA3 JUMPI DUP1 PUSH4 0xEFEB19A9 EQ PUSH2 0xC1 JUMPI DUP1 PUSH4 0xF57AFAF8 EQ PUSH2 0xDF JUMPI DUP1 PUSH4 0xF8897945 EQ PUSH2 0xFB JUMPI JUMPDEST PUSH1 0x0 DUP1 REVERT JUMPDEST PUSH2 0x6F PUSH2 0x119 JUMP JUMPDEST PUSH1 0x40 MLOAD PUSH2 0x7C SWAP2 SWAP1 PUSH2 0x19F JUMP JUMPDEST PUSH1 0x40 MLOAD DUP1 SWAP2 SUB SWAP1 RETURN JUMPDEST PUSH2 0x8D PUSH2 0x11F JUMP JUMPDEST PUSH1 0x40 MLOAD PUSH2 0x9A SWAP2 SWAP1 PUSH2 0x19F JUMP JUMPDEST PUSH1 0x40 MLOAD DUP1 SWAP2 SUB SWAP1 RETURN JUMPDEST PUSH2 0xAB PUSH2 0x125 JUMP JUMPDEST PUSH1 0x40 MLOAD PUSH2 0xB8 SWAP2 SWAP1 PUSH2 0x1D3 JUMP JUMPDEST PUSH1 0x40 MLOAD DUP1 SWAP2 SUB SWAP1 RETURN JUMPDEST PUSH2 0xC9 PUSH2 0x12B JUMP JUMPDEST PUSH1 0x40 MLOAD PUSH2 0xD6 SWAP2 SWAP1 PUSH2 0x1D3 JUMP JUMPDEST PUSH1 0x40 MLOAD DUP1 SWAP2 SUB SWAP1 RETURN JUMPDEST PUSH2 0xF9 PUSH1 0x4 DUP1 CALLDATASIZE SUB DUP2 ADD SWAP1 PUSH2 0xF4 SWAP2 SWAP1 PUSH2 0x21F JUMP JUMPDEST PUSH2 0x131 JUMP JUMPDEST STOP JUMPDEST PUSH2 0x103 PUSH2 0x180 JUMP JUMPDEST PUSH1 0x40 MLOAD PUSH2 0x110 SWAP2 SWAP1 PUSH2 0x19F JUMP JUMPDEST PUSH1 0x40 MLOAD DUP1 SWAP2 SUB SWAP1 RETURN JUMPDEST PUSH1 0x4 SLOAD DUP2 JUMP JUMPDEST PUSH1 0x0 SLOAD DUP2 JUMP JUMPDEST PUSH1 0x2 SLOAD DUP2 JUMP JUMPDEST PUSH1 0x3 SLOAD DUP2 JUMP JUMPDEST PUSH1 0x0 SLOAD DUP2 GT ISZERO PUSH2 0x176 JUMPI PUSH1 0x40 MLOAD PUSH32 0x8C379A000000000000000000000000000000000000000000000000000000000 DUP2 MSTORE PUSH1 0x4 ADD PUSH2 0x16D SWAP1 PUSH2 0x2A9 JUMP JUMPDEST PUSH1 0x40 MLOAD DUP1 SWAP2 SUB SWAP1 REVERT JUMPDEST DUP1 PUSH1 0x4 DUP2 SWAP1 SSTORE POP POP JUMP JUMPDEST PUSH1 0x1 SLOAD DUP2 JUMP JUMPDEST PUSH1 0x0 DUP2 SWAP1 POP SWAP2 SWAP1 POP JUMP JUMPDEST PUSH2 0x199 DUP2 PUSH2 0x186 JUMP JUMPDEST DUP3 MSTORE POP POP JUMP JUMPDEST PUSH1 0x0 PUSH1 0x20 DUP3 ADD SWAP1 POP PUSH2 0x1B4 PUSH1 0x0 DUP4 ADD DUP5 PUSH2 0x190 JUMP JUMPDEST SWAP3 SWAP2 POP POP JUMP JUMPDEST PUSH1 0x0 DUP2 SWAP1 POP SWAP2 SWAP1 POP JUMP JUMPDEST PUSH2 0x1CD DUP2 PUSH2 0x1BA JUMP JUMPDEST DUP3 MSTORE POP POP JUMP JUMPDEST PUSH1 0x0 PUSH1 0x20 DUP3 ADD SWAP1 POP PUSH2 0x1E8 PUSH1 0x0 DUP4 ADD DUP5 PUSH2 0x1C4 JUMP JUMPDEST SWAP3 SWAP2 POP POP JUMP JUMPDEST PUSH1 0x0 DUP1 REVERT JUMPDEST PUSH2 0x1FC DUP2 PUSH2 0x186 JUMP JUMPDEST DUP2 EQ PUSH2 0x207 JUMPI PUSH1 0x0 DUP1 REVERT JUMPDEST POP JUMP JUMPDEST PUSH1 0x0 DUP2 CALLDATALOAD SWAP1 POP PUSH2 0x219 DUP2 PUSH2 0x1F3 JUMP JUMPDEST SWAP3 SWAP2 POP POP JUMP JUMPDEST PUSH1 0x0 PUSH1 0x20 DUP3 DUP5 SUB SLT ISZERO PUSH2 0x235 JUMPI PUSH2 0x234 PUSH2 0x1EE JUMP JUMPDEST JUMPDEST PUSH1 0x0 PUSH2 0x243 DUP5 DUP3 DUP6 ADD PUSH2 0x20A JUMP JUMPDEST SWAP2 POP POP SWAP3 SWAP2 POP POP JUMP JUMPDEST PUSH1 0x0 DUP3 DUP3 MSTORE PUSH1 0x20 DUP3 ADD SWAP1 POP SWAP3 SWAP2 POP POP JUMP JUMPDEST PUSH32 0x7570206F76657200000000000000000000000000000000000000000000000000 PUSH1 0x0 DUP3 ADD MSTORE POP JUMP JUMPDEST PUSH1 0x0 PUSH2 0x293 PUSH1 0x7 DUP4 PUSH2 0x24C JUMP JUMPDEST SWAP2 POP PUSH2 0x29E DUP3 PUSH2 0x25D JUMP JUMPDEST PUSH1 0x20 DUP3 ADD SWAP1 POP SWAP2 SWAP1 POP JUMP JUMPDEST PUSH1 0x0 PUSH1 0x20 DUP3 ADD SWAP1 POP DUP2 DUP2 SUB PUSH1 0x0 DUP4 ADD MSTORE PUSH2 0x2C2 DUP2 PUSH2 0x286 JUMP JUMPDEST SWAP1 POP SWAP2 SWAP1 POP JUMP INVALID LOG2 PUSH5 0x6970667358 0x22 SLT KECCAK256 0xC1 PUSH32 0xC099C0AE8B30AE7B815B11FDB4F15E3B65A0AC416BEE7C1A5E31A6E68E746473 PUSH16 0x6C634300080F00330000000000000000 "
				},
				"gasEstimates": {
					"creation": {
						"codeDepositCost": "153400",
						"executionCost": "71520",
						"totalCost": "224920"
					},
					"external": {
						"i1()": "2407",
						"max()": "2429",
						"maxI()": "2451",
						"min()": "2517",
						"minI()": "2473",
						"setI1(uint256)": "24712"
					}
				},
				"methodIdentifiers": {
					"i1()": "28897238",
					"max()": "6ac5db19",
					"maxI()": "c90817dd",
					"min()": "f8897945",
					"minI()": "efeb19a9",
					"setI1(uint256)": "f57afaf8"
				}
			},
			"storageLayout": {
				"storage": [
					{
						"astId": 255,
						"contract": "chapter02/9type3.sol:type2",
						"label": "max",
						"offset": 0,
						"slot": "0",
						"type": "t_uint256"
					},
					{
						"astId": 262,
						"contract": "chapter02/9type3.sol:type2",
						"label": "min",
						"offset": 0,
						"slot": "1",
						"type": "t_uint256"
					},
					{
						"astId": 269,
						"contract": "chapter02/9type3.sol:type2",
						"label": "maxI",
						"offset": 0,
						"slot": "2",
						"type": "t_int256"
					},
					{
						"astId": 276,
						"contract": "chapter02/9type3.sol:type2",
						"label": "minI",
						"offset": 0,
						"slot": "3",
						"type": "t_int256"
					},
					{
						"astId": 278,
						"contract": "chapter02/9type3.sol:type2",
						"label": "i1",
						"offset": 0,
						"slot": "4",
						"type": "t_uint256"
					}
				],
				"types": {
					"t_int256": {
						"encoding": "inplace",
						"label": "int256",
						"numberOfBytes": "32"
					},
					"t_uint256": {
						"encoding": "inplace",
						"label": "uint256",
						"numberOfBytes": "32"
					}
				}
			},
			"userdoc": {
				"kind": "user",
				"methods": {},
				"version": 1
			}
		}
	}
}