{
	"chapter02/9type3.sol": {
		"type3": {
			"abi": [
				{
					"inputs": [],
					"name": "i1",
					"outputs": [
						{
							"internalType": "uint256",
							"name": "",
							"type": "uint256"
						}
					],
					"stateMutability": "view",
					"type": "function"
				},
				{
					"inputs": [],
					"name": "testWithNoUncheck",
					"outputs": [
						{
							"internalType": "uint256",
							"name": "",
							"type": "uint256"
						}
					],
					"stateMutability": "pure",
					"type": "function"
				},
				{
					"inputs": [],
					"name": "testWithUncheck",
					"outputs": [
						{
							"internalType": "uint256",
							"name": "",
							"type": "uint256"
						}
					],
					"stateMutability": "pure",
					"type": "function"
				}
			],
			"devdoc": {
				"kind": "dev",
				"methods": {},
				"version": 1
			},
			"evm": {
				"assembly": "    /* \"chapter02/9type3.sol\":2597:3000  contract type3{... */\n  mstore(0x40, 0x80)\n    /* \"chapter02/9type3.sol\":2649:2650  1 */\n  0x01\n    /* \"chapter02/9type3.sol\":2634:2648  type(uint).min */\n  0x00\n    /* \"chapter02/9type3.sol\":2634:2650  type(uint).min-1 */\n  tag_1\n  swap2\n  swap1\n  tag_2\n  jump\t// in\ntag_1:\n    /* \"chapter02/9type3.sol\":2617:2650  uint public i1 = type(uint).min-1 */\n  0x00\n  sstore\n    /* \"chapter02/9type3.sol\":2597:3000  contract type3{... */\n  callvalue\n  dup1\n  iszero\n  tag_3\n  jumpi\n  0x00\n  dup1\n  revert\ntag_3:\n  pop\n  jump(tag_4)\n    /* \"#utility.yul\":7:84   */\ntag_5:\n    /* \"#utility.yul\":44:51   */\n  0x00\n    /* \"#utility.yul\":73:78   */\n  dup2\n    /* \"#utility.yul\":62:78   */\n  swap1\n  pop\n    /* \"#utility.yul\":7:84   */\n  swap2\n  swap1\n  pop\n  jump\t// out\n    /* \"#utility.yul\":90:270   */\ntag_6:\n    /* \"#utility.yul\":138:215   */\n  0x4e487b7100000000000000000000000000000000000000000000000000000000\n    /* \"#utility.yul\":135:136   */\n  0x00\n    /* \"#utility.yul\":128:216   */\n  mstore\n    /* \"#utility.yul\":235:239   */\n  0x11\n    /* \"#utility.yul\":232:233   */\n  0x04\n    /* \"#utility.yul\":225:240   */\n  mstore\n    /* \"#utility.yul\":259:263   */\n  0x24\n    /* \"#utility.yul\":256:257   */\n  0x00\n    /* \"#utility.yul\":249:264   */\n  revert\n    /* \"#utility.yul\":276:467   */\ntag_2:\n    /* \"#utility.yul\":316:320   */\n  0x00\n    /* \"#utility.yul\":336:356   */\n  tag_11\n    /* \"#utility.yul\":354:355   */\n  dup3\n    /* \"#utility.yul\":336:356   */\n  tag_5\n  jump\t// in\ntag_11:\n    /* \"#utility.yul\":331:356   */\n  swap2\n  pop\n    /* \"#utility.yul\":370:390   */\n  tag_12\n    /* \"#utility.yul\":388:389   */\n  dup4\n    /* \"#utility.yul\":370:390   */\n  tag_5\n  jump\t// in\ntag_12:\n    /* \"#utility.yul\":365:390   */\n  swap3\n  pop\n    /* \"#utility.yul\":409:410   */\n  dup3\n    /* \"#utility.yul\":406:407   */\n  dup3\n    /* \"#utility.yul\":403:411   */\n  lt\n    /* \"#utility.yul\":400:434   */\n  iszero\n  tag_13\n  jumpi\n    /* \"#utility.yul\":414:432   */\n  tag_14\n  tag_6\n  jump\t// in\ntag_14:\n    /* \"#utility.yul\":400:434   */\ntag_13:\n    /* \"#utility.yul\":459:460   */\n  dup3\n    /* \"#utility.yul\":456:457   */\n  dup3\n    /* \"#utility.yul\":452:461   */\n  sub\n    /* \"#utility.yul\":444:461   */\n  swap1\n  pop\n    /* \"#utility.yul\":276:467   */\n  swap3\n  swap2\n  pop\n  pop\n  jump\t// out\n    /* \"chapter02/9type3.sol\":2597:3000  contract type3{... */\ntag_4:\n  dataSize(sub_0)\n  dup1\n  dataOffset(sub_0)\n  0x00\n  codecopy\n  0x00\n  return\nstop\n\nsub_0: assembly {\n        /* \"chapter02/9type3.sol\":2597:3000  contract type3{... */\n      mstore(0x40, 0x80)\n      callvalue\n      dup1\n      iszero\n      tag_1\n      jumpi\n      0x00\n      dup1\n      revert\n    tag_1:\n      pop\n      jumpi(tag_2, lt(calldatasize, 0x04))\n      shr(0xe0, calldataload(0x00))\n      dup1\n      0x28897238\n      eq\n      tag_3\n      jumpi\n      dup1\n      0x36d79ce0\n      eq\n      tag_4\n      jumpi\n      dup1\n      0xa0949d85\n      eq\n      tag_5\n      jumpi\n    tag_2:\n      0x00\n      dup1\n      revert\n        /* \"chapter02/9type3.sol\":2617:2650  uint public i1 = type(uint).min-1 */\n    tag_3:\n      tag_6\n      tag_7\n      jump\t// in\n    tag_6:\n      mload(0x40)\n      tag_8\n      swap2\n      swap1\n      tag_9\n      jump\t// in\n    tag_8:\n      mload(0x40)\n      dup1\n      swap2\n      sub\n      swap1\n      return\n        /* \"chapter02/9type3.sol\":2712:2842  function testWithNoUncheck() public pure returns(uint) {... */\n    tag_4:\n      tag_10\n      tag_11\n      jump\t// in\n    tag_10:\n      mload(0x40)\n      tag_12\n      swap2\n      swap1\n      tag_9\n      jump\t// in\n    tag_12:\n      mload(0x40)\n      dup1\n      swap2\n      sub\n      swap1\n      return\n        /* \"chapter02/9type3.sol\":2846:2998  function testWithUncheck()public pure returns(uint){... */\n    tag_5:\n      tag_13\n      tag_14\n      jump\t// in\n    tag_13:\n      mload(0x40)\n      tag_15\n      swap2\n      swap1\n      tag_9\n      jump\t// in\n    tag_15:\n      mload(0x40)\n      dup1\n      swap2\n      sub\n      swap1\n      return\n        /* \"chapter02/9type3.sol\":2617:2650  uint public i1 = type(uint).min-1 */\n    tag_7:\n      sload(0x00)\n      dup2\n      jump\t// out\n        /* \"chapter02/9type3.sol\":2712:2842  function testWithNoUncheck() public pure returns(uint) {... */\n    tag_11:\n        /* \"chapter02/9type3.sol\":2761:2765  uint */\n      0x00\n        /* \"chapter02/9type3.sol\":2776:2782  uint a */\n      dup1\n        /* \"chapter02/9type3.sol\":2785:2786  0 */\n      0x00\n        /* \"chapter02/9type3.sol\":2776:2786  uint a = 0 */\n      swap1\n      pop\n        /* \"chapter02/9type3.sol\":2795:2798  a-- */\n      dup1\n      dup1\n      tag_17\n      swap1\n      tag_18\n      jump\t// in\n    tag_17:\n      swap2\n      pop\n      pop\n        /* \"chapter02/9type3.sol\":2835:2836  a */\n      dup1\n        /* \"chapter02/9type3.sol\":2828:2836  return a */\n      swap2\n      pop\n      pop\n        /* \"chapter02/9type3.sol\":2712:2842  function testWithNoUncheck() public pure returns(uint) {... */\n      swap1\n      jump\t// out\n        /* \"chapter02/9type3.sol\":2846:2998  function testWithUncheck()public pure returns(uint){... */\n    tag_14:\n        /* \"chapter02/9type3.sol\":2892:2896  uint */\n      0x00\n        /* \"chapter02/9type3.sol\":2906:2912  uint a */\n      dup1\n        /* \"chapter02/9type3.sol\":2915:2916  0 */\n      0x00\n        /* \"chapter02/9type3.sol\":2906:2916  uint a = 0 */\n      swap1\n      pop\n        /* \"chapter02/9type3.sol\":2935:2938  a-- */\n      dup1\n      dup1\n      0x01\n      swap1\n      sub\n      swap2\n      pop\n      pop\n        /* \"chapter02/9type3.sol\":2991:2992  a */\n      dup1\n        /* \"chapter02/9type3.sol\":2983:2992  return  a */\n      swap2\n      pop\n      pop\n        /* \"chapter02/9type3.sol\":2846:2998  function testWithUncheck()public pure returns(uint){... */\n      swap1\n      jump\t// out\n        /* \"#utility.yul\":7:84   */\n    tag_20:\n        /* \"#utility.yul\":44:51   */\n      0x00\n        /* \"#utility.yul\":73:78   */\n      dup2\n        /* \"#utility.yul\":62:78   */\n      swap1\n      pop\n        /* \"#utility.yul\":7:84   */\n      swap2\n      swap1\n      pop\n      jump\t// out\n        /* \"#utility.yul\":90:208   */\n    tag_21:\n        /* \"#utility.yul\":177:201   */\n      tag_26\n        /* \"#utility.yul\":195:200   */\n      dup2\n        /* \"#utility.yul\":177:201   */\n      tag_20\n      jump\t// in\n    tag_26:\n        /* \"#utility.yul\":172:175   */\n      dup3\n        /* \"#utility.yul\":165:202   */\n      mstore\n        /* \"#utility.yul\":90:208   */\n      pop\n      pop\n      jump\t// out\n        /* \"#utility.yul\":214:436   */\n    tag_9:\n        /* \"#utility.yul\":307:311   */\n      0x00\n        /* \"#utility.yul\":345:347   */\n      0x20\n        /* \"#utility.yul\":334:343   */\n      dup3\n        /* \"#utility.yul\":330:348   */\n      add\n        /* \"#utility.yul\":322:348   */\n      swap1\n      pop\n        /* \"#utility.yul\":358:429   */\n      tag_28\n        /* \"#utility.yul\":426:427   */\n      0x00\n        /* \"#utility.yul\":415:424   */\n      dup4\n        /* \"#utility.yul\":411:428   */\n      add\n        /* \"#utility.yul\":402:408   */\n      dup5\n        /* \"#utility.yul\":358:429   */\n      tag_21\n      jump\t// in\n    tag_28:\n        /* \"#utility.yul\":214:436   */\n      swap3\n      swap2\n      pop\n      pop\n      jump\t// out\n        /* \"#utility.yul\":442:622   */\n    tag_22:\n        /* \"#utility.yul\":490:567   */\n      0x4e487b7100000000000000000000000000000000000000000000000000000000\n        /* \"#utility.yul\":487:488   */\n      0x00\n        /* \"#utility.yul\":480:568   */\n      mstore\n        /* \"#utility.yul\":587:591   */\n      0x11\n        /* \"#utility.yul\":584:585   */\n      0x04\n        /* \"#utility.yul\":577:592   */\n      mstore\n        /* \"#utility.yul\":611:615   */\n      0x24\n        /* \"#utility.yul\":608:609   */\n      0x00\n        /* \"#utility.yul\":601:616   */\n      revert\n        /* \"#utility.yul\":628:799   */\n    tag_18:\n        /* \"#utility.yul\":667:670   */\n      0x00\n        /* \"#utility.yul\":690:714   */\n      tag_31\n        /* \"#utility.yul\":708:713   */\n      dup3\n        /* \"#utility.yul\":690:714   */\n      tag_20\n      jump\t// in\n    tag_31:\n        /* \"#utility.yul\":681:714   */\n      swap2\n      pop\n        /* \"#utility.yul\":736:740   */\n      0x00\n        /* \"#utility.yul\":729:734   */\n      dup3\n        /* \"#utility.yul\":726:741   */\n      sub\n        /* \"#utility.yul\":723:764   */\n      tag_32\n      jumpi\n        /* \"#utility.yul\":744:762   */\n      tag_33\n      tag_22\n      jump\t// in\n    tag_33:\n        /* \"#utility.yul\":723:764   */\n    tag_32:\n        /* \"#utility.yul\":791:792   */\n      0x01\n        /* \"#utility.yul\":784:789   */\n      dup3\n        /* \"#utility.yul\":780:793   */\n      sub\n        /* \"#utility.yul\":773:793   */\n      swap1\n      pop\n        /* \"#utility.yul\":628:799   */\n      swap2\n      swap1\n      pop\n      jump\t// out\n\n    auxdata: 0xa2646970667358221220efa8485d2a06d9a3029bb8e7a990c4845e1cb1dc8722cdcc9a2d7d5951614c2764736f6c634300080f0033\n}\n",
				"bytecode": {
					"linkReferences": {},
					"object": "6080604052600160006100129190610060565b60005534801561002157600080fd5b50610094565b6000819050919050565b7f4e487b7100000000000000000000000000000000000000000000000000000000600052601160045260246000fd5b600061006b82610027565b915061007683610027565b92508282101561008957610088610031565b5b828203905092915050565b61019b806100a36000396000f3fe608060405234801561001057600080fd5b50600436106100415760003560e01c8063288972381461004657806336d79ce014610064578063a0949d8514610082575b600080fd5b61004e6100a0565b60405161005b91906100f2565b60405180910390f35b61006c6100a6565b60405161007991906100f2565b60405180910390f35b61008a6100c2565b60405161009791906100f2565b60405180910390f35b60005481565b6000806000905080806100b89061013c565b9150508091505090565b600080600090508080600190039150508091505090565b6000819050919050565b6100ec816100d9565b82525050565b600060208201905061010760008301846100e3565b92915050565b7f4e487b7100000000000000000000000000000000000000000000000000000000600052601160045260246000fd5b6000610147826100d9565b91506000820361015a5761015961010d565b5b60018203905091905056fea2646970667358221220efa8485d2a06d9a3029bb8e7a990c4845e1cb1dc8722cdcc9a2d7d5951614c2764736f6c634300080f0033",
					"opcodes": "PUSH1 0x80 PUSH1 0x40 MSTORE PUSH1 0x1 PUSH1 0x0 PUSH2 0x12 SWAP2 SWAP1 PUSH2 0x60 JUMP JUMPDEST PUSH1 0x0 SSTORE CALLVALUE DUP1 ISZERO PUSH2 0x21 JUMPI PUSH1 0x0 DUP1 REVERT JUMPDEST POP PUSH2 0x94 JUMP JUMPDEST PUSH1 0x0 DUP2 SWAP1 POP SWAP2 SWAP1 POP JUMP JUMPDEST PUSH32 0x4E487B7100000000000000000000000000000000000000000000000000000000 PUSH1 0x0 MSTORE PUSH1 0x11 PUSH1 0x4 MSTORE PUSH1 0x24 PUSH1 0x0 REVERT JUMPDEST PUSH1 0x0 PUSH2 0x6B DUP3 PUSH2 0x27 JUMP JUMPDEST SWAP2 POP PUSH2 0x76 DUP4 PUSH2 0x27 JUMP JUMPDEST SWAP3 POP DUP3 DUP3 LT ISZERO PUSH2 0x89 JUMPI PUSH2 0x88 PUSH2 0x31 JUMP JUMPDEST JUMPDEST DUP3 DUP3 SUB SWAP1 POP SWAP3 SWAP2 POP POP JUMP JUMPDEST PUSH2 0x19B DUP1 PUSH2 0xA3 PUSH1 0x0 CODECOPY PUSH1 0x0 RETURN INVALID PUSH1 0x80 PUSH1 0x40 MSTORE CALLVALUE DUP1 ISZERO PUSH2 0x10 JUMPI PUSH1 0x0 DUP1 REVERT JUMPDEST POP PUSH1 0x4 CALLDATASIZE LT PUSH2 0x41 JUMPI PUSH1 0x0 CALLDATALOAD PUSH1 0xE0 SHR DUP1 PUSH4 0x28897238 EQ PUSH2 0x46 JUMPI DUP1 PUSH4 0x36D79CE0 EQ PUSH2 0x64 JUMPI DUP1 PUSH4 0xA0949D85 EQ PUSH2 0x82 JUMPI JUMPDEST PUSH1 0x0 DUP1 REVERT JUMPDEST PUSH2 0x4E PUSH2 0xA0 JUMP JUMPDEST PUSH1 0x40 MLOAD PUSH2 0x5B SWAP2 SWAP1 PUSH2 0xF2 JUMP JUMPDEST PUSH1 0x40 MLOAD DUP1 SWAP2 SUB SWAP1 RETURN JUMPDEST PUSH2 0x6C PUSH2 0xA6 JUMP JUMPDEST PUSH1 0x40 MLOAD PUSH2 0x79 SWAP2 SWAP1 PUSH2 0xF2 JUMP JUMPDEST PUSH1 0x40 MLOAD DUP1 SWAP2 SUB SWAP1 RETURN JUMPDEST PUSH2 0x8A PUSH2 0xC2 JUMP JUMPDEST PUSH1 0x40 MLOAD PUSH2 0x97 SWAP2 SWAP1 PUSH2 0xF2 JUMP JUMPDEST PUSH1 0x40 MLOAD DUP1 SWAP2 SUB SWAP1 RETURN JUMPDEST PUSH1 0x0 SLOAD DUP2 JUMP JUMPDEST PUSH1 0x0 DUP1 PUSH1 0x0 SWAP1 POP DUP1 DUP1 PUSH2 0xB8 SWAP1 PUSH2 0x13C JUMP JUMPDEST SWAP2 POP POP DUP1 SWAP2 POP POP SWAP1 JUMP JUMPDEST PUSH1 0x0 DUP1 PUSH1 0x0 SWAP1 POP DUP1 DUP1 PUSH1 0x1 SWAP1 SUB SWAP2 POP POP DUP1 SWAP2 POP POP SWAP1 JUMP JUMPDEST PUSH1 0x0 DUP2 SWAP1 POP SWAP2 SWAP1 POP JUMP JUMPDEST PUSH2 0xEC DUP2 PUSH2 0xD9 JUMP JUMPDEST DUP3 MSTORE POP POP JUMP JUMPDEST PUSH1 0x0 PUSH1 0x20 DUP3 ADD SWAP1 POP PUSH2 0x107 PUSH1 0x0 DUP4 ADD DUP5 PUSH2 0xE3 JUMP JUMPDEST SWAP3 SWAP2 POP POP JUMP JUMPDEST PUSH32 0x4E487B7100000000000000000000000000000000000000000000000000000000 PUSH1 0x0 MSTORE PUSH1 0x11 PUSH1 0x4 MSTORE PUSH1 0x24 PUSH1 0x0 REVERT JUMPDEST PUSH1 0x0 PUSH2 0x147 DUP3 PUSH2 0xD9 JUMP JUMPDEST SWAP2 POP PUSH1 0x0 DUP3 SUB PUSH2 0x15A JUMPI PUSH2 0x159 PUSH2 0x10D JUMP JUMPDEST JUMPDEST PUSH1 0x1 DUP3 SUB SWAP1 POP SWAP2 SWAP1 POP JUMP INVALID LOG2 PUSH5 0x6970667358 0x22 SLT KECCAK256 0xEF 0xA8 BASEFEE 0x5D 0x2A MOD 0xD9 LOG3 MUL SWAP12 0xB8 0xE7 0xA9 SWAP1 0xC4 DUP5 0x5E SHR 0xB1 0xDC DUP8 0x22 0xCD 0xCC SWAP11 0x2D PUSH30 0x5951614C2764736F6C634300080F00330000000000000000000000000000 "
				},
				"gasEstimates": {
					"creation": {
						"codeDepositCost": "82200",
						"executionCost": "infinite",
						"totalCost": "infinite"
					},
					"external": {
						"i1()": "2407",
						"testWithNoUncheck()": "288",
						"testWithUncheck()": "394"
					}
				},
				"methodIdentifiers": {
					"i1()": "28897238",
					"testWithNoUncheck()": "36d79ce0",
					"testWithUncheck()": "a0949d85"
				}
			},
			"storageLayout": {
				"storage": [
					{
						"astId": 217,
						"contract": "chapter02/9type3.sol:type3",
						"label": "i1",
						"offset": 0,
						"slot": "0",
						"type": "t_uint256"
					}
				],
				"types": {
					"t_uint256": {
						"encoding": "inplace",
						"label": "uint256",
						"numberOfBytes": "32"
					}
				}
			},
			"userdoc": {
				"kind": "user",
				"methods": {},
				"version": 1
			}
		}
	}
}