{
	"contract/chapter02/useAbicodeV2.sol": {
		"useAbicodeV2": {
			"abi": [
				{
					"inputs": [],
					"name": "_setAllPeopleName",
					"outputs": [
						{
							"components": [
								{
									"internalType": "string",
									"name": "name",
									"type": "string"
								}
							],
							"internalType": "struct useAbicodeV2.People[]",
							"name": "p",
							"type": "tuple[]"
						}
					],
					"stateMutability": "view",
					"type": "function"
				},
				{
					"inputs": [],
					"name": "addPeople",
					"outputs": [],
					"stateMutability": "nonpayable",
					"type": "function"
				},
				{
					"inputs": [
						{
							"internalType": "uint256",
							"name": "",
							"type": "uint256"
						}
					],
					"name": "peoples",
					"outputs": [
						{
							"internalType": "string",
							"name": "name",
							"type": "string"
						}
					],
					"stateMutability": "view",
					"type": "function"
				}
			],
			"devdoc": {
				"kind": "dev",
				"methods": {},
				"version": 1
			},
			"evm": {
				"assembly": "    /* \"contract/chapter02/useAbicodeV2.sol\":80:544  contract useAbicodeV2{\r... */\n  mstore(0x40, 0x80)\n  callvalue\n  dup1\n  iszero\n  tag_1\n  jumpi\n  0x00\n  dup1\n  revert\ntag_1:\n  pop\n  dataSize(sub_0)\n  dup1\n  dataOffset(sub_0)\n  0x00\n  codecopy\n  0x00\n  return\nstop\n\nsub_0: assembly {\n        /* \"contract/chapter02/useAbicodeV2.sol\":80:544  contract useAbicodeV2{\r... */\n      mstore(0x40, 0x80)\n      callvalue\n      dup1\n      iszero\n      tag_1\n      jumpi\n      0x00\n      dup1\n      revert\n    tag_1:\n      pop\n      jumpi(tag_2, lt(calldatasize, 0x04))\n      shr(0xe0, calldataload(0x00))\n      dup1\n      0x1f1094e7\n      eq\n      tag_3\n      jumpi\n      dup1\n      0x223f461b\n      eq\n      tag_4\n      jumpi\n      dup1\n      0xeccdc03f\n      eq\n      tag_5\n      jumpi\n    tag_2:\n      0x00\n      dup1\n      revert\n        /* \"contract/chapter02/useAbicodeV2.sol\":163:186  People[] public peoples */\n    tag_3:\n      tag_6\n      0x04\n      dup1\n      calldatasize\n      sub\n      dup2\n      add\n      swap1\n      tag_7\n      swap2\n      swap1\n      tag_8\n      jump\t// in\n    tag_7:\n      tag_9\n      jump\t// in\n    tag_6:\n      mload(0x40)\n      tag_10\n      swap2\n      swap1\n      tag_11\n      jump\t// in\n    tag_10:\n      mload(0x40)\n      dup1\n      swap2\n      sub\n      swap1\n      return\n        /* \"contract/chapter02/useAbicodeV2.sol\":195:380  function _setAllPeopleName()public view returns(People[] memory p){\r... */\n    tag_4:\n      tag_12\n      tag_13\n      jump\t// in\n    tag_12:\n      mload(0x40)\n      tag_14\n      swap2\n      swap1\n      tag_15\n      jump\t// in\n    tag_14:\n      mload(0x40)\n      dup1\n      swap2\n      sub\n      swap1\n      return\n        /* \"contract/chapter02/useAbicodeV2.sol\":388:541  function addPeople()public {\r... */\n    tag_5:\n      tag_16\n      tag_17\n      jump\t// in\n    tag_16:\n      stop\n        /* \"contract/chapter02/useAbicodeV2.sol\":163:186  People[] public peoples */\n    tag_9:\n      0x00\n      dup2\n      dup2\n      sload\n      dup2\n      lt\n      tag_18\n      jumpi\n      0x00\n      dup1\n      revert\n    tag_18:\n      swap1\n      0x00\n      mstore\n      keccak256(0x00, 0x20)\n      add\n      0x00\n      swap2\n      pop\n      swap1\n      pop\n      dup1\n      0x00\n      add\n      dup1\n      sload\n      tag_20\n      swap1\n      tag_21\n      jump\t// in\n    tag_20:\n      dup1\n      0x1f\n      add\n      0x20\n      dup1\n      swap2\n      div\n      mul\n      0x20\n      add\n      mload(0x40)\n      swap1\n      dup2\n      add\n      0x40\n      mstore\n      dup1\n      swap3\n      swap2\n      swap1\n      dup2\n      dup2\n      mstore\n      0x20\n      add\n      dup3\n      dup1\n      sload\n      tag_22\n      swap1\n      tag_21\n      jump\t// in\n    tag_22:\n      dup1\n      iszero\n      tag_23\n      jumpi\n      dup1\n      0x1f\n      lt\n      tag_24\n      jumpi\n      0x0100\n      dup1\n      dup4\n      sload\n      div\n      mul\n      dup4\n      mstore\n      swap2\n      0x20\n      add\n      swap2\n      jump(tag_23)\n    tag_24:\n      dup3\n      add\n      swap2\n      swap1\n      0x00\n      mstore\n      keccak256(0x00, 0x20)\n      swap1\n    tag_25:\n      dup2\n      sload\n      dup2\n      mstore\n      swap1\n      0x01\n      add\n      swap1\n      0x20\n      add\n      dup1\n      dup4\n      gt\n      tag_25\n      jumpi\n      dup3\n      swap1\n      sub\n      0x1f\n      and\n      dup3\n      add\n      swap2\n    tag_23:\n      pop\n      pop\n      pop\n      pop\n      pop\n      swap1\n      pop\n      dup2\n      jump\t// out\n        /* \"contract/chapter02/useAbicodeV2.sol\":195:380  function _setAllPeopleName()public view returns(People[] memory p){\r... */\n    tag_13:\n        /* \"contract/chapter02/useAbicodeV2.sol\":243:260  People[] memory p */\n      0x60\n        /* \"contract/chapter02/useAbicodeV2.sol\":276:283  peoples */\n      0x00\n        /* \"contract/chapter02/useAbicodeV2.sol\":272:283  p = peoples */\n      dup1\n      sload\n      dup1\n      0x20\n      mul\n      0x20\n      add\n      mload(0x40)\n      swap1\n      dup2\n      add\n      0x40\n      mstore\n      dup1\n      swap3\n      swap2\n      swap1\n      dup2\n      dup2\n      mstore\n      0x20\n      add\n      0x00\n      swap1\n    tag_27:\n      dup3\n      dup3\n      lt\n      iszero\n      tag_28\n      jumpi\n      dup4\n      dup3\n      swap1\n      0x00\n      mstore\n      keccak256(0x00, 0x20)\n      add\n      mload(0x40)\n      dup1\n      0x20\n      add\n      0x40\n      mstore\n      swap1\n      dup2\n      0x00\n      dup3\n      add\n      dup1\n      sload\n      tag_30\n      swap1\n      tag_21\n      jump\t// in\n    tag_30:\n      dup1\n      0x1f\n      add\n      0x20\n      dup1\n      swap2\n      div\n      mul\n      0x20\n      add\n      mload(0x40)\n      swap1\n      dup2\n      add\n      0x40\n      mstore\n      dup1\n      swap3\n      swap2\n      swap1\n      dup2\n      dup2\n      mstore\n      0x20\n      add\n      dup3\n      dup1\n      sload\n      tag_31\n      swap1\n      tag_21\n      jump\t// in\n    tag_31:\n      dup1\n      iszero\n      tag_32\n      jumpi\n      dup1\n      0x1f\n      lt\n      tag_33\n      jumpi\n      0x0100\n      dup1\n      dup4\n      sload\n      div\n      mul\n      dup4\n      mstore\n      swap2\n      0x20\n      add\n      swap2\n      jump(tag_32)\n    tag_33:\n      dup3\n      add\n      swap2\n      swap1\n      0x00\n      mstore\n      keccak256(0x00, 0x20)\n      swap1\n    tag_34:\n      dup2\n      sload\n      dup2\n      mstore\n      swap1\n      0x01\n      add\n      swap1\n      0x20\n      add\n      dup1\n      dup4\n      gt\n      tag_34\n      jumpi\n      dup3\n      swap1\n      sub\n      0x1f\n      and\n      dup3\n      add\n      swap2\n    tag_32:\n      pop\n      pop\n      pop\n      pop\n      pop\n      dup2\n      mstore\n      pop\n      pop\n      dup2\n      mstore\n      0x20\n      add\n      swap1\n      0x01\n      add\n      swap1\n      jump(tag_27)\n    tag_28:\n      pop\n      pop\n      pop\n      pop\n      swap1\n      pop\n        /* \"contract/chapter02/useAbicodeV2.sol\":298:304  uint i */\n      0x00\n        /* \"contract/chapter02/useAbicodeV2.sol\":294:373  for(uint i = 0;i<p.length;i++){\r... */\n    tag_35:\n        /* \"contract/chapter02/useAbicodeV2.sol\":311:312  p */\n      dup2\n        /* \"contract/chapter02/useAbicodeV2.sol\":311:319  p.length */\n      mload\n        /* \"contract/chapter02/useAbicodeV2.sol\":309:310  i */\n      dup2\n        /* \"contract/chapter02/useAbicodeV2.sol\":309:319  i<p.length */\n      lt\n        /* \"contract/chapter02/useAbicodeV2.sol\":294:373  for(uint i = 0;i<p.length;i++){\r... */\n      iszero\n      tag_36\n      jumpi\n        /* \"contract/chapter02/useAbicodeV2.sol\":339:361  p[i].name=\"metamarvel\" */\n      mload(0x40)\n      dup1\n      0x40\n      add\n      0x40\n      mstore\n      dup1\n      0x0a\n      dup2\n      mstore\n      0x20\n      add\n      0x6d6574616d617276656c00000000000000000000000000000000000000000000\n      dup2\n      mstore\n      pop\n        /* \"contract/chapter02/useAbicodeV2.sol\":339:340  p */\n      dup3\n        /* \"contract/chapter02/useAbicodeV2.sol\":341:342  i */\n      dup3\n        /* \"contract/chapter02/useAbicodeV2.sol\":339:343  p[i] */\n      dup2\n      mload\n      dup2\n      lt\n      tag_38\n      jumpi\n      tag_39\n      tag_40\n      jump\t// in\n    tag_39:\n    tag_38:\n      0x20\n      mul\n      0x20\n      add\n      add\n      mload\n        /* \"contract/chapter02/useAbicodeV2.sol\":339:348  p[i].name */\n      0x00\n      add\n        /* \"contract/chapter02/useAbicodeV2.sol\":339:361  p[i].name=\"metamarvel\" */\n      dup2\n      swap1\n      mstore\n      pop\n        /* \"contract/chapter02/useAbicodeV2.sol\":320:323  i++ */\n      dup1\n      dup1\n      tag_41\n      swap1\n      tag_42\n      jump\t// in\n    tag_41:\n      swap2\n      pop\n      pop\n        /* \"contract/chapter02/useAbicodeV2.sol\":294:373  for(uint i = 0;i<p.length;i++){\r... */\n      jump(tag_35)\n    tag_36:\n      pop\n        /* \"contract/chapter02/useAbicodeV2.sol\":195:380  function _setAllPeopleName()public view returns(People[] memory p){\r... */\n      swap1\n      jump\t// out\n        /* \"contract/chapter02/useAbicodeV2.sol\":388:541  function addPeople()public {\r... */\n    tag_17:\n        /* \"contract/chapter02/useAbicodeV2.sol\":426:441  People memory a */\n      0x00\n        /* \"contract/chapter02/useAbicodeV2.sol\":444:456  People(\"wp\") */\n      mload(0x40)\n      dup1\n      0x20\n      add\n      0x40\n      mstore\n      dup1\n      mload(0x40)\n      dup1\n      0x40\n      add\n      0x40\n      mstore\n      dup1\n      0x02\n      dup2\n      mstore\n      0x20\n      add\n      0x7770000000000000000000000000000000000000000000000000000000000000\n      dup2\n      mstore\n      pop\n      dup2\n      mstore\n      pop\n        /* \"contract/chapter02/useAbicodeV2.sol\":426:456  People memory a = People(\"wp\") */\n      swap1\n      pop\n        /* \"contract/chapter02/useAbicodeV2.sol\":467:482  People memory b */\n      0x00\n        /* \"contract/chapter02/useAbicodeV2.sol\":485:497  People(\"zt\") */\n      mload(0x40)\n      dup1\n      0x20\n      add\n      0x40\n      mstore\n      dup1\n      mload(0x40)\n      dup1\n      0x40\n      add\n      0x40\n      mstore\n      dup1\n      0x02\n      dup2\n      mstore\n      0x20\n      add\n      0x7a74000000000000000000000000000000000000000000000000000000000000\n      dup2\n      mstore\n      pop\n      dup2\n      mstore\n      pop\n        /* \"contract/chapter02/useAbicodeV2.sol\":467:497  People memory b = People(\"zt\") */\n      swap1\n      pop\n        /* \"contract/chapter02/useAbicodeV2.sol\":508:515  peoples */\n      0x00\n        /* \"contract/chapter02/useAbicodeV2.sol\":521:522  a */\n      dup3\n        /* \"contract/chapter02/useAbicodeV2.sol\":508:523  peoples.push(a) */\n      swap1\n      dup1\n      0x01\n      dup2\n      sload\n      add\n      dup1\n      dup3\n      sstore\n      dup1\n      swap2\n      pop\n      pop\n      0x01\n      swap1\n      sub\n      swap1\n      0x00\n      mstore\n      keccak256(0x00, 0x20)\n      add\n      0x00\n      swap1\n      swap2\n      swap1\n      swap2\n      swap1\n      swap2\n      pop\n      0x00\n      dup3\n      add\n      mload\n      dup2\n      0x00\n      add\n      swap1\n      dup1\n      mload\n      swap1\n      0x20\n      add\n      swap1\n      tag_45\n      swap3\n      swap2\n      swap1\n      tag_46\n      jump\t// in\n    tag_45:\n      pop\n      pop\n      pop\n        /* \"contract/chapter02/useAbicodeV2.sol\":415:541  {\r... */\n      pop\n      pop\n        /* \"contract/chapter02/useAbicodeV2.sol\":388:541  function addPeople()public {\r... */\n      jump\t// out\n    tag_46:\n      dup3\n      dup1\n      sload\n      tag_47\n      swap1\n      tag_21\n      jump\t// in\n    tag_47:\n      swap1\n      0x00\n      mstore\n      keccak256(0x00, 0x20)\n      swap1\n      0x1f\n      add\n      0x20\n      swap1\n      div\n      dup2\n      add\n      swap3\n      dup3\n      tag_49\n      jumpi\n      0x00\n      dup6\n      sstore\n      jump(tag_48)\n    tag_49:\n      dup3\n      0x1f\n      lt\n      tag_50\n      jumpi\n      dup1\n      mload\n      not(0xff)\n      and\n      dup4\n      dup1\n      add\n      or\n      dup6\n      sstore\n      jump(tag_48)\n    tag_50:\n      dup3\n      dup1\n      add\n      0x01\n      add\n      dup6\n      sstore\n      dup3\n      iszero\n      tag_48\n      jumpi\n      swap2\n      dup3\n      add\n    tag_51:\n      dup3\n      dup2\n      gt\n      iszero\n      tag_52\n      jumpi\n      dup3\n      mload\n      dup3\n      sstore\n      swap2\n      0x20\n      add\n      swap2\n      swap1\n      0x01\n      add\n      swap1\n      jump(tag_51)\n    tag_52:\n    tag_48:\n      pop\n      swap1\n      pop\n      tag_53\n      swap2\n      swap1\n      tag_54\n      jump\t// in\n    tag_53:\n      pop\n      swap1\n      jump\t// out\n    tag_54:\n    tag_55:\n      dup1\n      dup3\n      gt\n      iszero\n      tag_56\n      jumpi\n      0x00\n      dup2\n      0x00\n      swap1\n      sstore\n      pop\n      0x01\n      add\n      jump(tag_55)\n    tag_56:\n      pop\n      swap1\n      jump\t// out\n        /* \"#utility.yul\":7:146   */\n    tag_58:\n        /* \"#utility.yul\":53:58   */\n      0x00\n        /* \"#utility.yul\":91:97   */\n      dup2\n        /* \"#utility.yul\":78:98   */\n      calldataload\n        /* \"#utility.yul\":69:98   */\n      swap1\n      pop\n        /* \"#utility.yul\":107:140   */\n      tag_60\n        /* \"#utility.yul\":134:139   */\n      dup2\n        /* \"#utility.yul\":107:140   */\n      tag_61\n      jump\t// in\n    tag_60:\n        /* \"#utility.yul\":7:146   */\n      swap3\n      swap2\n      pop\n      pop\n      jump\t// out\n        /* \"#utility.yul\":152:481   */\n    tag_8:\n        /* \"#utility.yul\":211:217   */\n      0x00\n        /* \"#utility.yul\":260:262   */\n      0x20\n        /* \"#utility.yul\":248:257   */\n      dup3\n        /* \"#utility.yul\":239:246   */\n      dup5\n        /* \"#utility.yul\":235:258   */\n      sub\n        /* \"#utility.yul\":231:263   */\n      slt\n        /* \"#utility.yul\":228:347   */\n      iszero\n      tag_63\n      jumpi\n        /* \"#utility.yul\":266:345   */\n      tag_64\n      tag_65\n      jump\t// in\n    tag_64:\n        /* \"#utility.yul\":228:347   */\n    tag_63:\n        /* \"#utility.yul\":386:387   */\n      0x00\n        /* \"#utility.yul\":411:464   */\n      tag_66\n        /* \"#utility.yul\":456:463   */\n      dup5\n        /* \"#utility.yul\":447:453   */\n      dup3\n        /* \"#utility.yul\":436:445   */\n      dup6\n        /* \"#utility.yul\":432:454   */\n      add\n        /* \"#utility.yul\":411:464   */\n      tag_58\n      jump\t// in\n    tag_66:\n        /* \"#utility.yul\":401:464   */\n      swap2\n      pop\n        /* \"#utility.yul\":357:474   */\n      pop\n        /* \"#utility.yul\":152:481   */\n      swap3\n      swap2\n      pop\n      pop\n      jump\t// out\n        /* \"#utility.yul\":487:727   */\n    tag_67:\n        /* \"#utility.yul\":598:608   */\n      0x00\n        /* \"#utility.yul\":633:721   */\n      tag_69\n        /* \"#utility.yul\":717:720   */\n      dup4\n        /* \"#utility.yul\":709:715   */\n      dup4\n        /* \"#utility.yul\":633:721   */\n      tag_70\n      jump\t// in\n    tag_69:\n        /* \"#utility.yul\":619:721   */\n      swap1\n      pop\n        /* \"#utility.yul\":487:727   */\n      swap3\n      swap2\n      pop\n      pop\n      jump\t// out\n        /* \"#utility.yul\":801:1880   */\n    tag_71:\n        /* \"#utility.yul\":962:965   */\n      0x00\n        /* \"#utility.yul\":991:1066   */\n      tag_73\n        /* \"#utility.yul\":1060:1065   */\n      dup3\n        /* \"#utility.yul\":991:1066   */\n      tag_74\n      jump\t// in\n    tag_73:\n        /* \"#utility.yul\":1082:1189   */\n      tag_75\n        /* \"#utility.yul\":1182:1188   */\n      dup2\n        /* \"#utility.yul\":1177:1180   */\n      dup6\n        /* \"#utility.yul\":1082:1189   */\n      tag_76\n      jump\t// in\n    tag_75:\n        /* \"#utility.yul\":1075:1189   */\n      swap4\n      pop\n        /* \"#utility.yul\":1215:1218   */\n      dup4\n        /* \"#utility.yul\":1260:1264   */\n      0x20\n        /* \"#utility.yul\":1252:1258   */\n      dup3\n        /* \"#utility.yul\":1248:1265   */\n      mul\n        /* \"#utility.yul\":1243:1246   */\n      dup6\n        /* \"#utility.yul\":1239:1266   */\n      add\n        /* \"#utility.yul\":1290:1367   */\n      tag_77\n        /* \"#utility.yul\":1361:1366   */\n      dup6\n        /* \"#utility.yul\":1290:1367   */\n      tag_78\n      jump\t// in\n    tag_77:\n        /* \"#utility.yul\":1390:1397   */\n      dup1\n        /* \"#utility.yul\":1421:1422   */\n      0x00\n        /* \"#utility.yul\":1406:1835   */\n    tag_79:\n        /* \"#utility.yul\":1431:1437   */\n      dup6\n        /* \"#utility.yul\":1428:1429   */\n      dup2\n        /* \"#utility.yul\":1425:1438   */\n      lt\n        /* \"#utility.yul\":1406:1835   */\n      iszero\n      tag_81\n      jumpi\n        /* \"#utility.yul\":1502:1511   */\n      dup5\n        /* \"#utility.yul\":1496:1500   */\n      dup5\n        /* \"#utility.yul\":1492:1512   */\n      sub\n        /* \"#utility.yul\":1487:1490   */\n      dup10\n        /* \"#utility.yul\":1480:1513   */\n      mstore\n        /* \"#utility.yul\":1553:1559   */\n      dup2\n        /* \"#utility.yul\":1547:1560   */\n      mload\n        /* \"#utility.yul\":1581:1687   */\n      tag_82\n        /* \"#utility.yul\":1682:1686   */\n      dup6\n        /* \"#utility.yul\":1667:1680   */\n      dup3\n        /* \"#utility.yul\":1581:1687   */\n      tag_67\n      jump\t// in\n    tag_82:\n        /* \"#utility.yul\":1573:1687   */\n      swap5\n      pop\n        /* \"#utility.yul\":1710:1791   */\n      tag_83\n        /* \"#utility.yul\":1784:1790   */\n      dup4\n        /* \"#utility.yul\":1710:1791   */\n      tag_84\n      jump\t// in\n    tag_83:\n        /* \"#utility.yul\":1700:1791   */\n      swap3\n      pop\n        /* \"#utility.yul\":1820:1824   */\n      0x20\n        /* \"#utility.yul\":1815:1818   */\n      dup11\n        /* \"#utility.yul\":1811:1825   */\n      add\n        /* \"#utility.yul\":1804:1825   */\n      swap10\n      pop\n        /* \"#utility.yul\":1466:1835   */\n      pop\n        /* \"#utility.yul\":1453:1454   */\n      0x01\n        /* \"#utility.yul\":1450:1451   */\n      dup2\n        /* \"#utility.yul\":1446:1455   */\n      add\n        /* \"#utility.yul\":1441:1455   */\n      swap1\n      pop\n        /* \"#utility.yul\":1406:1835   */\n      jump(tag_79)\n    tag_81:\n        /* \"#utility.yul\":1410:1424   */\n      pop\n        /* \"#utility.yul\":1851:1855   */\n      dup3\n        /* \"#utility.yul\":1844:1855   */\n      swap8\n      pop\n        /* \"#utility.yul\":1871:1874   */\n      dup8\n        /* \"#utility.yul\":1864:1874   */\n      swap6\n      pop\n        /* \"#utility.yul\":967:1880   */\n      pop\n      pop\n      pop\n      pop\n      pop\n        /* \"#utility.yul\":801:1880   */\n      swap3\n      swap2\n      pop\n      pop\n      jump\t// out\n        /* \"#utility.yul\":1886:2230   */\n    tag_85:\n        /* \"#utility.yul\":1964:1967   */\n      0x00\n        /* \"#utility.yul\":1992:2031   */\n      tag_87\n        /* \"#utility.yul\":2025:2030   */\n      dup3\n        /* \"#utility.yul\":1992:2031   */\n      tag_88\n      jump\t// in\n    tag_87:\n        /* \"#utility.yul\":2047:2108   */\n      tag_89\n        /* \"#utility.yul\":2101:2107   */\n      dup2\n        /* \"#utility.yul\":2096:2099   */\n      dup6\n        /* \"#utility.yul\":2047:2108   */\n      tag_90\n      jump\t// in\n    tag_89:\n        /* \"#utility.yul\":2040:2108   */\n      swap4\n      pop\n        /* \"#utility.yul\":2117:2169   */\n      tag_91\n        /* \"#utility.yul\":2162:2168   */\n      dup2\n        /* \"#utility.yul\":2157:2160   */\n      dup6\n        /* \"#utility.yul\":2150:2154   */\n      0x20\n        /* \"#utility.yul\":2143:2148   */\n      dup7\n        /* \"#utility.yul\":2139:2155   */\n      add\n        /* \"#utility.yul\":2117:2169   */\n      tag_92\n      jump\t// in\n    tag_91:\n        /* \"#utility.yul\":2194:2223   */\n      tag_93\n        /* \"#utility.yul\":2216:2222   */\n      dup2\n        /* \"#utility.yul\":2194:2223   */\n      tag_94\n      jump\t// in\n    tag_93:\n        /* \"#utility.yul\":2189:2192   */\n      dup5\n        /* \"#utility.yul\":2185:2224   */\n      add\n        /* \"#utility.yul\":2178:2224   */\n      swap2\n      pop\n        /* \"#utility.yul\":1968:2230   */\n      pop\n        /* \"#utility.yul\":1886:2230   */\n      swap3\n      swap2\n      pop\n      pop\n      jump\t// out\n        /* \"#utility.yul\":2236:2600   */\n    tag_95:\n        /* \"#utility.yul\":2324:2327   */\n      0x00\n        /* \"#utility.yul\":2352:2391   */\n      tag_97\n        /* \"#utility.yul\":2385:2390   */\n      dup3\n        /* \"#utility.yul\":2352:2391   */\n      tag_88\n      jump\t// in\n    tag_97:\n        /* \"#utility.yul\":2407:2478   */\n      tag_98\n        /* \"#utility.yul\":2471:2477   */\n      dup2\n        /* \"#utility.yul\":2466:2469   */\n      dup6\n        /* \"#utility.yul\":2407:2478   */\n      tag_99\n      jump\t// in\n    tag_98:\n        /* \"#utility.yul\":2400:2478   */\n      swap4\n      pop\n        /* \"#utility.yul\":2487:2539   */\n      tag_100\n        /* \"#utility.yul\":2532:2538   */\n      dup2\n        /* \"#utility.yul\":2527:2530   */\n      dup6\n        /* \"#utility.yul\":2520:2524   */\n      0x20\n        /* \"#utility.yul\":2513:2518   */\n      dup7\n        /* \"#utility.yul\":2509:2525   */\n      add\n        /* \"#utility.yul\":2487:2539   */\n      tag_92\n      jump\t// in\n    tag_100:\n        /* \"#utility.yul\":2564:2593   */\n      tag_101\n        /* \"#utility.yul\":2586:2592   */\n      dup2\n        /* \"#utility.yul\":2564:2593   */\n      tag_94\n      jump\t// in\n    tag_101:\n        /* \"#utility.yul\":2559:2562   */\n      dup5\n        /* \"#utility.yul\":2555:2594   */\n      add\n        /* \"#utility.yul\":2548:2594   */\n      swap2\n      pop\n        /* \"#utility.yul\":2328:2600   */\n      pop\n        /* \"#utility.yul\":2236:2600   */\n      swap3\n      swap2\n      pop\n      pop\n      jump\t// out\n        /* \"#utility.yul\":2670:3084   */\n    tag_70:\n        /* \"#utility.yul\":2771:2774   */\n      0x00\n        /* \"#utility.yul\":2807:2811   */\n      0x20\n        /* \"#utility.yul\":2802:2805   */\n      dup4\n        /* \"#utility.yul\":2798:2812   */\n      add\n        /* \"#utility.yul\":2894:2898   */\n      0x00\n        /* \"#utility.yul\":2887:2892   */\n      dup4\n        /* \"#utility.yul\":2883:2899   */\n      add\n        /* \"#utility.yul\":2877:2900   */\n      mload\n        /* \"#utility.yul\":2947:2950   */\n      dup5\n        /* \"#utility.yul\":2941:2945   */\n      dup3\n        /* \"#utility.yul\":2937:2951   */\n      sub\n        /* \"#utility.yul\":2930:2934   */\n      0x00\n        /* \"#utility.yul\":2925:2928   */\n      dup7\n        /* \"#utility.yul\":2921:2935   */\n      add\n        /* \"#utility.yul\":2914:2952   */\n      mstore\n        /* \"#utility.yul\":2973:3046   */\n      tag_103\n        /* \"#utility.yul\":3041:3045   */\n      dup3\n        /* \"#utility.yul\":3027:3039   */\n      dup3\n        /* \"#utility.yul\":2973:3046   */\n      tag_85\n      jump\t// in\n    tag_103:\n        /* \"#utility.yul\":2965:3046   */\n      swap2\n      pop\n        /* \"#utility.yul\":2822:3057   */\n      pop\n        /* \"#utility.yul\":3074:3078   */\n      dup1\n        /* \"#utility.yul\":3067:3078   */\n      swap2\n      pop\n        /* \"#utility.yul\":2776:3084   */\n      pop\n        /* \"#utility.yul\":2670:3084   */\n      swap3\n      swap2\n      pop\n      pop\n      jump\t// out\n        /* \"#utility.yul\":3090:3547   */\n    tag_15:\n        /* \"#utility.yul\":3275:3279   */\n      0x00\n        /* \"#utility.yul\":3313:3315   */\n      0x20\n        /* \"#utility.yul\":3302:3311   */\n      dup3\n        /* \"#utility.yul\":3298:3316   */\n      add\n        /* \"#utility.yul\":3290:3316   */\n      swap1\n      pop\n        /* \"#utility.yul\":3362:3371   */\n      dup2\n        /* \"#utility.yul\":3356:3360   */\n      dup2\n        /* \"#utility.yul\":3352:3372   */\n      sub\n        /* \"#utility.yul\":3348:3349   */\n      0x00\n        /* \"#utility.yul\":3337:3346   */\n      dup4\n        /* \"#utility.yul\":3333:3350   */\n      add\n        /* \"#utility.yul\":3326:3373   */\n      mstore\n        /* \"#utility.yul\":3390:3540   */\n      tag_105\n        /* \"#utility.yul\":3535:3539   */\n      dup2\n        /* \"#utility.yul\":3526:3532   */\n      dup5\n        /* \"#utility.yul\":3390:3540   */\n      tag_71\n      jump\t// in\n    tag_105:\n        /* \"#utility.yul\":3382:3540   */\n      swap1\n      pop\n        /* \"#utility.yul\":3090:3547   */\n      swap3\n      swap2\n      pop\n      pop\n      jump\t// out\n        /* \"#utility.yul\":3553:3866   */\n    tag_11:\n        /* \"#utility.yul\":3666:3670   */\n      0x00\n        /* \"#utility.yul\":3704:3706   */\n      0x20\n        /* \"#utility.yul\":3693:3702   */\n      dup3\n        /* \"#utility.yul\":3689:3707   */\n      add\n        /* \"#utility.yul\":3681:3707   */\n      swap1\n      pop\n        /* \"#utility.yul\":3753:3762   */\n      dup2\n        /* \"#utility.yul\":3747:3751   */\n      dup2\n        /* \"#utility.yul\":3743:3763   */\n      sub\n        /* \"#utility.yul\":3739:3740   */\n      0x00\n        /* \"#utility.yul\":3728:3737   */\n      dup4\n        /* \"#utility.yul\":3724:3741   */\n      add\n        /* \"#utility.yul\":3717:3764   */\n      mstore\n        /* \"#utility.yul\":3781:3859   */\n      tag_107\n        /* \"#utility.yul\":3854:3858   */\n      dup2\n        /* \"#utility.yul\":3845:3851   */\n      dup5\n        /* \"#utility.yul\":3781:3859   */\n      tag_95\n      jump\t// in\n    tag_107:\n        /* \"#utility.yul\":3773:3859   */\n      swap1\n      pop\n        /* \"#utility.yul\":3553:3866   */\n      swap3\n      swap2\n      pop\n      pop\n      jump\t// out\n        /* \"#utility.yul\":3953:4106   */\n    tag_78:\n        /* \"#utility.yul\":4041:4045   */\n      0x00\n        /* \"#utility.yul\":4064:4067   */\n      dup2\n        /* \"#utility.yul\":4056:4067   */\n      swap1\n      pop\n        /* \"#utility.yul\":4094:4098   */\n      0x20\n        /* \"#utility.yul\":4089:4092   */\n      dup3\n        /* \"#utility.yul\":4085:4099   */\n      add\n        /* \"#utility.yul\":4077:4099   */\n      swap1\n      pop\n        /* \"#utility.yul\":3953:4106   */\n      swap2\n      swap1\n      pop\n      jump\t// out\n        /* \"#utility.yul\":4112:4247   */\n    tag_74:\n        /* \"#utility.yul\":4200:4206   */\n      0x00\n        /* \"#utility.yul\":4234:4239   */\n      dup2\n        /* \"#utility.yul\":4228:4240   */\n      mload\n        /* \"#utility.yul\":4218:4240   */\n      swap1\n      pop\n        /* \"#utility.yul\":4112:4247   */\n      swap2\n      swap1\n      pop\n      jump\t// out\n        /* \"#utility.yul\":4253:4352   */\n    tag_88:\n        /* \"#utility.yul\":4305:4311   */\n      0x00\n        /* \"#utility.yul\":4339:4344   */\n      dup2\n        /* \"#utility.yul\":4333:4345   */\n      mload\n        /* \"#utility.yul\":4323:4345   */\n      swap1\n      pop\n        /* \"#utility.yul\":4253:4352   */\n      swap2\n      swap1\n      pop\n      jump\t// out\n        /* \"#utility.yul\":4358:4492   */\n    tag_84:\n        /* \"#utility.yul\":4449:4453   */\n      0x00\n        /* \"#utility.yul\":4481:4485   */\n      0x20\n        /* \"#utility.yul\":4476:4479   */\n      dup3\n        /* \"#utility.yul\":4472:4486   */\n      add\n        /* \"#utility.yul\":4464:4486   */\n      swap1\n      pop\n        /* \"#utility.yul\":4358:4492   */\n      swap2\n      swap1\n      pop\n      jump\t// out\n        /* \"#utility.yul\":4498:4703   */\n    tag_76:\n        /* \"#utility.yul\":4618:4629   */\n      0x00\n        /* \"#utility.yul\":4652:4658   */\n      dup3\n        /* \"#utility.yul\":4647:4650   */\n      dup3\n        /* \"#utility.yul\":4640:4659   */\n      mstore\n        /* \"#utility.yul\":4692:4696   */\n      0x20\n        /* \"#utility.yul\":4687:4690   */\n      dup3\n        /* \"#utility.yul\":4683:4697   */\n      add\n        /* \"#utility.yul\":4668:4697   */\n      swap1\n      pop\n        /* \"#utility.yul\":4498:4703   */\n      swap3\n      swap2\n      pop\n      pop\n      jump\t// out\n        /* \"#utility.yul\":4709:4868   */\n    tag_90:\n        /* \"#utility.yul\":4783:4794   */\n      0x00\n        /* \"#utility.yul\":4817:4823   */\n      dup3\n        /* \"#utility.yul\":4812:4815   */\n      dup3\n        /* \"#utility.yul\":4805:4824   */\n      mstore\n        /* \"#utility.yul\":4857:4861   */\n      0x20\n        /* \"#utility.yul\":4852:4855   */\n      dup3\n        /* \"#utility.yul\":4848:4862   */\n      add\n        /* \"#utility.yul\":4833:4862   */\n      swap1\n      pop\n        /* \"#utility.yul\":4709:4868   */\n      swap3\n      swap2\n      pop\n      pop\n      jump\t// out\n        /* \"#utility.yul\":4874:5043   */\n    tag_99:\n        /* \"#utility.yul\":4958:4969   */\n      0x00\n        /* \"#utility.yul\":4992:4998   */\n      dup3\n        /* \"#utility.yul\":4987:4990   */\n      dup3\n        /* \"#utility.yul\":4980:4999   */\n      mstore\n        /* \"#utility.yul\":5032:5036   */\n      0x20\n        /* \"#utility.yul\":5027:5030   */\n      dup3\n        /* \"#utility.yul\":5023:5037   */\n      add\n        /* \"#utility.yul\":5008:5037   */\n      swap1\n      pop\n        /* \"#utility.yul\":4874:5043   */\n      swap3\n      swap2\n      pop\n      pop\n      jump\t// out\n        /* \"#utility.yul\":5049:5126   */\n    tag_117:\n        /* \"#utility.yul\":5086:5093   */\n      0x00\n        /* \"#utility.yul\":5115:5120   */\n      dup2\n        /* \"#utility.yul\":5104:5120   */\n      swap1\n      pop\n        /* \"#utility.yul\":5049:5126   */\n      swap2\n      swap1\n      pop\n      jump\t// out\n        /* \"#utility.yul\":5132:5439   */\n    tag_92:\n        /* \"#utility.yul\":5200:5201   */\n      0x00\n        /* \"#utility.yul\":5210:5323   */\n    tag_120:\n        /* \"#utility.yul\":5224:5230   */\n      dup4\n        /* \"#utility.yul\":5221:5222   */\n      dup2\n        /* \"#utility.yul\":5218:5231   */\n      lt\n        /* \"#utility.yul\":5210:5323   */\n      iszero\n      tag_122\n      jumpi\n        /* \"#utility.yul\":5309:5310   */\n      dup1\n        /* \"#utility.yul\":5304:5307   */\n      dup3\n        /* \"#utility.yul\":5300:5311   */\n      add\n        /* \"#utility.yul\":5294:5312   */\n      mload\n        /* \"#utility.yul\":5290:5291   */\n      dup2\n        /* \"#utility.yul\":5285:5288   */\n      dup5\n        /* \"#utility.yul\":5281:5292   */\n      add\n        /* \"#utility.yul\":5274:5313   */\n      mstore\n        /* \"#utility.yul\":5246:5248   */\n      0x20\n        /* \"#utility.yul\":5243:5244   */\n      dup2\n        /* \"#utility.yul\":5239:5249   */\n      add\n        /* \"#utility.yul\":5234:5249   */\n      swap1\n      pop\n        /* \"#utility.yul\":5210:5323   */\n      jump(tag_120)\n    tag_122:\n        /* \"#utility.yul\":5341:5347   */\n      dup4\n        /* \"#utility.yul\":5338:5339   */\n      dup2\n        /* \"#utility.yul\":5335:5348   */\n      gt\n        /* \"#utility.yul\":5332:5433   */\n      iszero\n      tag_123\n      jumpi\n        /* \"#utility.yul\":5421:5422   */\n      0x00\n        /* \"#utility.yul\":5412:5418   */\n      dup5\n        /* \"#utility.yul\":5407:5410   */\n      dup5\n        /* \"#utility.yul\":5403:5419   */\n      add\n        /* \"#utility.yul\":5396:5423   */\n      mstore\n        /* \"#utility.yul\":5332:5433   */\n    tag_123:\n        /* \"#utility.yul\":5181:5439   */\n      pop\n        /* \"#utility.yul\":5132:5439   */\n      pop\n      pop\n      pop\n      jump\t// out\n        /* \"#utility.yul\":5445:5765   */\n    tag_21:\n        /* \"#utility.yul\":5489:5495   */\n      0x00\n        /* \"#utility.yul\":5526:5527   */\n      0x02\n        /* \"#utility.yul\":5520:5524   */\n      dup3\n        /* \"#utility.yul\":5516:5528   */\n      div\n        /* \"#utility.yul\":5506:5528   */\n      swap1\n      pop\n        /* \"#utility.yul\":5573:5574   */\n      0x01\n        /* \"#utility.yul\":5567:5571   */\n      dup3\n        /* \"#utility.yul\":5563:5575   */\n      and\n        /* \"#utility.yul\":5594:5612   */\n      dup1\n        /* \"#utility.yul\":5584:5665   */\n      tag_125\n      jumpi\n        /* \"#utility.yul\":5650:5654   */\n      0x7f\n        /* \"#utility.yul\":5642:5648   */\n      dup3\n        /* \"#utility.yul\":5638:5655   */\n      and\n        /* \"#utility.yul\":5628:5655   */\n      swap2\n      pop\n        /* \"#utility.yul\":5584:5665   */\n    tag_125:\n        /* \"#utility.yul\":5712:5714   */\n      0x20\n        /* \"#utility.yul\":5704:5710   */\n      dup3\n        /* \"#utility.yul\":5701:5715   */\n      lt\n        /* \"#utility.yul\":5681:5699   */\n      dup2\n        /* \"#utility.yul\":5678:5716   */\n      eq\n        /* \"#utility.yul\":5675:5759   */\n      iszero\n      tag_126\n      jumpi\n        /* \"#utility.yul\":5731:5749   */\n      tag_127\n      tag_128\n      jump\t// in\n    tag_127:\n        /* \"#utility.yul\":5675:5759   */\n    tag_126:\n        /* \"#utility.yul\":5496:5765   */\n      pop\n        /* \"#utility.yul\":5445:5765   */\n      swap2\n      swap1\n      pop\n      jump\t// out\n        /* \"#utility.yul\":5771:6004   */\n    tag_42:\n        /* \"#utility.yul\":5810:5813   */\n      0x00\n        /* \"#utility.yul\":5833:5857   */\n      tag_130\n        /* \"#utility.yul\":5851:5856   */\n      dup3\n        /* \"#utility.yul\":5833:5857   */\n      tag_117\n      jump\t// in\n    tag_130:\n        /* \"#utility.yul\":5824:5857   */\n      swap2\n      pop\n        /* \"#utility.yul\":5879:5945   */\n      0xffffffffffffffffffffffffffffffffffffffffffffffffffffffffffffffff\n        /* \"#utility.yul\":5872:5877   */\n      dup3\n        /* \"#utility.yul\":5869:5946   */\n      eq\n        /* \"#utility.yul\":5866:5969   */\n      iszero\n      tag_131\n      jumpi\n        /* \"#utility.yul\":5949:5967   */\n      tag_132\n      tag_133\n      jump\t// in\n    tag_132:\n        /* \"#utility.yul\":5866:5969   */\n    tag_131:\n        /* \"#utility.yul\":5996:5997   */\n      0x01\n        /* \"#utility.yul\":5989:5994   */\n      dup3\n        /* \"#utility.yul\":5985:5998   */\n      add\n        /* \"#utility.yul\":5978:5998   */\n      swap1\n      pop\n        /* \"#utility.yul\":5771:6004   */\n      swap2\n      swap1\n      pop\n      jump\t// out\n        /* \"#utility.yul\":6010:6190   */\n    tag_133:\n        /* \"#utility.yul\":6058:6135   */\n      0x4e487b7100000000000000000000000000000000000000000000000000000000\n        /* \"#utility.yul\":6055:6056   */\n      0x00\n        /* \"#utility.yul\":6048:6136   */\n      mstore\n        /* \"#utility.yul\":6155:6159   */\n      0x11\n        /* \"#utility.yul\":6152:6153   */\n      0x04\n        /* \"#utility.yul\":6145:6160   */\n      mstore\n        /* \"#utility.yul\":6179:6183   */\n      0x24\n        /* \"#utility.yul\":6176:6177   */\n      0x00\n        /* \"#utility.yul\":6169:6184   */\n      revert\n        /* \"#utility.yul\":6196:6376   */\n    tag_128:\n        /* \"#utility.yul\":6244:6321   */\n      0x4e487b7100000000000000000000000000000000000000000000000000000000\n        /* \"#utility.yul\":6241:6242   */\n      0x00\n        /* \"#utility.yul\":6234:6322   */\n      mstore\n        /* \"#utility.yul\":6341:6345   */\n      0x22\n        /* \"#utility.yul\":6338:6339   */\n      0x04\n        /* \"#utility.yul\":6331:6346   */\n      mstore\n        /* \"#utility.yul\":6365:6369   */\n      0x24\n        /* \"#utility.yul\":6362:6363   */\n      0x00\n        /* \"#utility.yul\":6355:6370   */\n      revert\n        /* \"#utility.yul\":6382:6562   */\n    tag_40:\n        /* \"#utility.yul\":6430:6507   */\n      0x4e487b7100000000000000000000000000000000000000000000000000000000\n        /* \"#utility.yul\":6427:6428   */\n      0x00\n        /* \"#utility.yul\":6420:6508   */\n      mstore\n        /* \"#utility.yul\":6527:6531   */\n      0x32\n        /* \"#utility.yul\":6524:6525   */\n      0x04\n        /* \"#utility.yul\":6517:6532   */\n      mstore\n        /* \"#utility.yul\":6551:6555   */\n      0x24\n        /* \"#utility.yul\":6548:6549   */\n      0x00\n        /* \"#utility.yul\":6541:6556   */\n      revert\n        /* \"#utility.yul\":6691:6808   */\n    tag_65:\n        /* \"#utility.yul\":6800:6801   */\n      0x00\n        /* \"#utility.yul\":6797:6798   */\n      dup1\n        /* \"#utility.yul\":6790:6802   */\n      revert\n        /* \"#utility.yul\":6814:6916   */\n    tag_94:\n        /* \"#utility.yul\":6855:6861   */\n      0x00\n        /* \"#utility.yul\":6906:6908   */\n      0x1f\n        /* \"#utility.yul\":6902:6909   */\n      not\n        /* \"#utility.yul\":6897:6899   */\n      0x1f\n        /* \"#utility.yul\":6890:6895   */\n      dup4\n        /* \"#utility.yul\":6886:6900   */\n      add\n        /* \"#utility.yul\":6882:6910   */\n      and\n        /* \"#utility.yul\":6872:6910   */\n      swap1\n      pop\n        /* \"#utility.yul\":6814:6916   */\n      swap2\n      swap1\n      pop\n      jump\t// out\n        /* \"#utility.yul\":6922:7044   */\n    tag_61:\n        /* \"#utility.yul\":6995:7019   */\n      tag_142\n        /* \"#utility.yul\":7013:7018   */\n      dup2\n        /* \"#utility.yul\":6995:7019   */\n      tag_117\n      jump\t// in\n    tag_142:\n        /* \"#utility.yul\":6988:6993   */\n      dup2\n        /* \"#utility.yul\":6985:7020   */\n      eq\n        /* \"#utility.yul\":6975:7038   */\n      tag_143\n      jumpi\n        /* \"#utility.yul\":7034:7035   */\n      0x00\n        /* \"#utility.yul\":7031:7032   */\n      dup1\n        /* \"#utility.yul\":7024:7036   */\n      revert\n        /* \"#utility.yul\":6975:7038   */\n    tag_143:\n        /* \"#utility.yul\":6922:7044   */\n      pop\n      jump\t// out\n\n    auxdata: 0xa26469706673582212201f78af8490eefab5aa1224d369aebd7e4c37f25fac3a15c0fc0a178ed18da04864736f6c63430008070033\n}\n",
				"bytecode": {
					"linkReferences": {},
					"object": "608060405234801561001057600080fd5b506107ec806100206000396000f3fe608060405234801561001057600080fd5b50600436106100415760003560e01c80631f1094e714610046578063223f461b14610076578063eccdc03f14610094575b600080fd5b610060600480360381019061005b9190610448565b61009e565b60405161006d91906105bc565b60405180910390f35b61007e610150565b60405161008b919061059a565b60405180910390f35b61009c6102b5565b005b600081815481106100ae57600080fd5b906000526020600020016000915090508060000180546100cd90610681565b80601f01602080910402602001604051908101604052809291908181526020018280546100f990610681565b80156101465780601f1061011b57610100808354040283529160200191610146565b820191906000526020600020905b81548152906001019060200180831161012957829003601f168201915b5050505050905081565b60606000805480602002602001604051908101604052809291908181526020016000905b82821015610234578382906000526020600020016040518060200160405290816000820180546101a390610681565b80601f01602080910402602001604051908101604052809291908181526020018280546101cf90610681565b801561021c5780601f106101f15761010080835404028352916020019161021c565b820191906000526020600020905b8154815290600101906020018083116101ff57829003601f168201915b50505050508152505081526020019060010190610174565b50505050905060005b81518110156102b1576040518060400160405280600a81526020017f6d6574616d617276656c0000000000000000000000000000000000000000000081525082828151811061028f5761028e61075a565b5b60200260200101516000018190525080806102a9906106b3565b91505061023d565b5090565b600060405180602001604052806040518060400160405280600281526020017f77700000000000000000000000000000000000000000000000000000000000008152508152509050600060405180602001604052806040518060400160405280600281526020017f7a740000000000000000000000000000000000000000000000000000000000008152508152509050600082908060018154018082558091505060019003906000526020600020016000909190919091506000820151816000019080519060200190610389929190610390565b5050505050565b82805461039c90610681565b90600052602060002090601f0160209004810192826103be5760008555610405565b82601f106103d757805160ff1916838001178555610405565b82800160010185558215610405579182015b828111156104045782518255916020019190600101906103e9565b5b5090506104129190610416565b5090565b5b8082111561042f576000816000905550600101610417565b5090565b6000813590506104428161079f565b92915050565b60006020828403121561045e5761045d610789565b5b600061046c84828501610433565b91505092915050565b60006104818383610570565b905092915050565b6000610494826105ee565b61049e8185610611565b9350836020820285016104b0856105de565b8060005b858110156104ec57848403895281516104cd8582610475565b94506104d883610604565b925060208a019950506001810190506104b4565b50829750879550505050505092915050565b6000610509826105f9565b6105138185610622565b935061052381856020860161064e565b61052c8161078e565b840191505092915050565b6000610542826105f9565b61054c8185610633565b935061055c81856020860161064e565b6105658161078e565b840191505092915050565b6000602083016000830151848203600086015261058d82826104fe565b9150508091505092915050565b600060208201905081810360008301526105b48184610489565b905092915050565b600060208201905081810360008301526105d68184610537565b905092915050565b6000819050602082019050919050565b600081519050919050565b600081519050919050565b6000602082019050919050565b600082825260208201905092915050565b600082825260208201905092915050565b600082825260208201905092915050565b6000819050919050565b60005b8381101561066c578082015181840152602081019050610651565b8381111561067b576000848401525b50505050565b6000600282049050600182168061069957607f821691505b602082108114156106ad576106ac61072b565b5b50919050565b60006106be82610644565b91507fffffffffffffffffffffffffffffffffffffffffffffffffffffffffffffffff8214156106f1576106f06106fc565b5b600182019050919050565b7f4e487b7100000000000000000000000000000000000000000000000000000000600052601160045260246000fd5b7f4e487b7100000000000000000000000000000000000000000000000000000000600052602260045260246000fd5b7f4e487b7100000000000000000000000000000000000000000000000000000000600052603260045260246000fd5b600080fd5b6000601f19601f8301169050919050565b6107a881610644565b81146107b357600080fd5b5056fea26469706673582212201f78af8490eefab5aa1224d369aebd7e4c37f25fac3a15c0fc0a178ed18da04864736f6c63430008070033",
					"opcodes": "PUSH1 0x80 PUSH1 0x40 MSTORE CALLVALUE DUP1 ISZERO PUSH2 0x10 JUMPI PUSH1 0x0 DUP1 REVERT JUMPDEST POP PUSH2 0x7EC DUP1 PUSH2 0x20 PUSH1 0x0 CODECOPY PUSH1 0x0 RETURN INVALID PUSH1 0x80 PUSH1 0x40 MSTORE CALLVALUE DUP1 ISZERO PUSH2 0x10 JUMPI PUSH1 0x0 DUP1 REVERT JUMPDEST POP PUSH1 0x4 CALLDATASIZE LT PUSH2 0x41 JUMPI PUSH1 0x0 CALLDATALOAD PUSH1 0xE0 SHR DUP1 PUSH4 0x1F1094E7 EQ PUSH2 0x46 JUMPI DUP1 PUSH4 0x223F461B EQ PUSH2 0x76 JUMPI DUP1 PUSH4 0xECCDC03F EQ PUSH2 0x94 JUMPI JUMPDEST PUSH1 0x0 DUP1 REVERT JUMPDEST PUSH2 0x60 PUSH1 0x4 DUP1 CALLDATASIZE SUB DUP2 ADD SWAP1 PUSH2 0x5B SWAP2 SWAP1 PUSH2 0x448 JUMP JUMPDEST PUSH2 0x9E JUMP JUMPDEST PUSH1 0x40 MLOAD PUSH2 0x6D SWAP2 SWAP1 PUSH2 0x5BC JUMP JUMPDEST PUSH1 0x40 MLOAD DUP1 SWAP2 SUB SWAP1 RETURN JUMPDEST PUSH2 0x7E PUSH2 0x150 JUMP JUMPDEST PUSH1 0x40 MLOAD PUSH2 0x8B SWAP2 SWAP1 PUSH2 0x59A JUMP JUMPDEST PUSH1 0x40 MLOAD DUP1 SWAP2 SUB SWAP1 RETURN JUMPDEST PUSH2 0x9C PUSH2 0x2B5 JUMP JUMPDEST STOP JUMPDEST PUSH1 0x0 DUP2 DUP2 SLOAD DUP2 LT PUSH2 0xAE JUMPI PUSH1 0x0 DUP1 REVERT JUMPDEST SWAP1 PUSH1 0x0 MSTORE PUSH1 0x20 PUSH1 0x0 KECCAK256 ADD PUSH1 0x0 SWAP2 POP SWAP1 POP DUP1 PUSH1 0x0 ADD DUP1 SLOAD PUSH2 0xCD SWAP1 PUSH2 0x681 JUMP JUMPDEST DUP1 PUSH1 0x1F ADD PUSH1 0x20 DUP1 SWAP2 DIV MUL PUSH1 0x20 ADD PUSH1 0x40 MLOAD SWAP1 DUP2 ADD PUSH1 0x40 MSTORE DUP1 SWAP3 SWAP2 SWAP1 DUP2 DUP2 MSTORE PUSH1 0x20 ADD DUP3 DUP1 SLOAD PUSH2 0xF9 SWAP1 PUSH2 0x681 JUMP JUMPDEST DUP1 ISZERO PUSH2 0x146 JUMPI DUP1 PUSH1 0x1F LT PUSH2 0x11B JUMPI PUSH2 0x100 DUP1 DUP4 SLOAD DIV MUL DUP4 MSTORE SWAP2 PUSH1 0x20 ADD SWAP2 PUSH2 0x146 JUMP JUMPDEST DUP3 ADD SWAP2 SWAP1 PUSH1 0x0 MSTORE PUSH1 0x20 PUSH1 0x0 KECCAK256 SWAP1 JUMPDEST DUP2 SLOAD DUP2 MSTORE SWAP1 PUSH1 0x1 ADD SWAP1 PUSH1 0x20 ADD DUP1 DUP4 GT PUSH2 0x129 JUMPI DUP3 SWAP1 SUB PUSH1 0x1F AND DUP3 ADD SWAP2 JUMPDEST POP POP POP POP POP SWAP1 POP DUP2 JUMP JUMPDEST PUSH1 0x60 PUSH1 0x0 DUP1 SLOAD DUP1 PUSH1 0x20 MUL PUSH1 0x20 ADD PUSH1 0x40 MLOAD SWAP1 DUP2 ADD PUSH1 0x40 MSTORE DUP1 SWAP3 SWAP2 SWAP1 DUP2 DUP2 MSTORE PUSH1 0x20 ADD PUSH1 0x0 SWAP1 JUMPDEST DUP3 DUP3 LT ISZERO PUSH2 0x234 JUMPI DUP4 DUP3 SWAP1 PUSH1 0x0 MSTORE PUSH1 0x20 PUSH1 0x0 KECCAK256 ADD PUSH1 0x40 MLOAD DUP1 PUSH1 0x20 ADD PUSH1 0x40 MSTORE SWAP1 DUP2 PUSH1 0x0 DUP3 ADD DUP1 SLOAD PUSH2 0x1A3 SWAP1 PUSH2 0x681 JUMP JUMPDEST DUP1 PUSH1 0x1F ADD PUSH1 0x20 DUP1 SWAP2 DIV MUL PUSH1 0x20 ADD PUSH1 0x40 MLOAD SWAP1 DUP2 ADD PUSH1 0x40 MSTORE DUP1 SWAP3 SWAP2 SWAP1 DUP2 DUP2 MSTORE PUSH1 0x20 ADD DUP3 DUP1 SLOAD PUSH2 0x1CF SWAP1 PUSH2 0x681 JUMP JUMPDEST DUP1 ISZERO PUSH2 0x21C JUMPI DUP1 PUSH1 0x1F LT PUSH2 0x1F1 JUMPI PUSH2 0x100 DUP1 DUP4 SLOAD DIV MUL DUP4 MSTORE SWAP2 PUSH1 0x20 ADD SWAP2 PUSH2 0x21C JUMP JUMPDEST DUP3 ADD SWAP2 SWAP1 PUSH1 0x0 MSTORE PUSH1 0x20 PUSH1 0x0 KECCAK256 SWAP1 JUMPDEST DUP2 SLOAD DUP2 MSTORE SWAP1 PUSH1 0x1 ADD SWAP1 PUSH1 0x20 ADD DUP1 DUP4 GT PUSH2 0x1FF JUMPI DUP3 SWAP1 SUB PUSH1 0x1F AND DUP3 ADD SWAP2 JUMPDEST POP POP POP POP POP DUP2 MSTORE POP POP DUP2 MSTORE PUSH1 0x20 ADD SWAP1 PUSH1 0x1 ADD SWAP1 PUSH2 0x174 JUMP JUMPDEST POP POP POP POP SWAP1 POP PUSH1 0x0 JUMPDEST DUP2 MLOAD DUP2 LT ISZERO PUSH2 0x2B1 JUMPI PUSH1 0x40 MLOAD DUP1 PUSH1 0x40 ADD PUSH1 0x40 MSTORE DUP1 PUSH1 0xA DUP2 MSTORE PUSH1 0x20 ADD PUSH32 0x6D6574616D617276656C00000000000000000000000000000000000000000000 DUP2 MSTORE POP DUP3 DUP3 DUP2 MLOAD DUP2 LT PUSH2 0x28F JUMPI PUSH2 0x28E PUSH2 0x75A JUMP JUMPDEST JUMPDEST PUSH1 0x20 MUL PUSH1 0x20 ADD ADD MLOAD PUSH1 0x0 ADD DUP2 SWAP1 MSTORE POP DUP1 DUP1 PUSH2 0x2A9 SWAP1 PUSH2 0x6B3 JUMP JUMPDEST SWAP2 POP POP PUSH2 0x23D JUMP JUMPDEST POP SWAP1 JUMP JUMPDEST PUSH1 0x0 PUSH1 0x40 MLOAD DUP1 PUSH1 0x20 ADD PUSH1 0x40 MSTORE DUP1 PUSH1 0x40 MLOAD DUP1 PUSH1 0x40 ADD PUSH1 0x40 MSTORE DUP1 PUSH1 0x2 DUP2 MSTORE PUSH1 0x20 ADD PUSH32 0x7770000000000000000000000000000000000000000000000000000000000000 DUP2 MSTORE POP DUP2 MSTORE POP SWAP1 POP PUSH1 0x0 PUSH1 0x40 MLOAD DUP1 PUSH1 0x20 ADD PUSH1 0x40 MSTORE DUP1 PUSH1 0x40 MLOAD DUP1 PUSH1 0x40 ADD PUSH1 0x40 MSTORE DUP1 PUSH1 0x2 DUP2 MSTORE PUSH1 0x20 ADD PUSH32 0x7A74000000000000000000000000000000000000000000000000000000000000 DUP2 MSTORE POP DUP2 MSTORE POP SWAP1 POP PUSH1 0x0 DUP3 SWAP1 DUP1 PUSH1 0x1 DUP2 SLOAD ADD DUP1 DUP3 SSTORE DUP1 SWAP2 POP POP PUSH1 0x1 SWAP1 SUB SWAP1 PUSH1 0x0 MSTORE PUSH1 0x20 PUSH1 0x0 KECCAK256 ADD PUSH1 0x0 SWAP1 SWAP2 SWAP1 SWAP2 SWAP1 SWAP2 POP PUSH1 0x0 DUP3 ADD MLOAD DUP2 PUSH1 0x0 ADD SWAP1 DUP1 MLOAD SWAP1 PUSH1 0x20 ADD SWAP1 PUSH2 0x389 SWAP3 SWAP2 SWAP1 PUSH2 0x390 JUMP JUMPDEST POP POP POP POP POP JUMP JUMPDEST DUP3 DUP1 SLOAD PUSH2 0x39C SWAP1 PUSH2 0x681 JUMP JUMPDEST SWAP1 PUSH1 0x0 MSTORE PUSH1 0x20 PUSH1 0x0 KECCAK256 SWAP1 PUSH1 0x1F ADD PUSH1 0x20 SWAP1 DIV DUP2 ADD SWAP3 DUP3 PUSH2 0x3BE JUMPI PUSH1 0x0 DUP6 SSTORE PUSH2 0x405 JUMP JUMPDEST DUP3 PUSH1 0x1F LT PUSH2 0x3D7 JUMPI DUP1 MLOAD PUSH1 0xFF NOT AND DUP4 DUP1 ADD OR DUP6 SSTORE PUSH2 0x405 JUMP JUMPDEST DUP3 DUP1 ADD PUSH1 0x1 ADD DUP6 SSTORE DUP3 ISZERO PUSH2 0x405 JUMPI SWAP2 DUP3 ADD JUMPDEST DUP3 DUP2 GT ISZERO PUSH2 0x404 JUMPI DUP3 MLOAD DUP3 SSTORE SWAP2 PUSH1 0x20 ADD SWAP2 SWAP1 PUSH1 0x1 ADD SWAP1 PUSH2 0x3E9 JUMP JUMPDEST JUMPDEST POP SWAP1 POP PUSH2 0x412 SWAP2 SWAP1 PUSH2 0x416 JUMP JUMPDEST POP SWAP1 JUMP JUMPDEST JUMPDEST DUP1 DUP3 GT ISZERO PUSH2 0x42F JUMPI PUSH1 0x0 DUP2 PUSH1 0x0 SWAP1 SSTORE POP PUSH1 0x1 ADD PUSH2 0x417 JUMP JUMPDEST POP SWAP1 JUMP JUMPDEST PUSH1 0x0 DUP2 CALLDATALOAD SWAP1 POP PUSH2 0x442 DUP2 PUSH2 0x79F JUMP JUMPDEST SWAP3 SWAP2 POP POP JUMP JUMPDEST PUSH1 0x0 PUSH1 0x20 DUP3 DUP5 SUB SLT ISZERO PUSH2 0x45E JUMPI PUSH2 0x45D PUSH2 0x789 JUMP JUMPDEST JUMPDEST PUSH1 0x0 PUSH2 0x46C DUP5 DUP3 DUP6 ADD PUSH2 0x433 JUMP JUMPDEST SWAP2 POP POP SWAP3 SWAP2 POP POP JUMP JUMPDEST PUSH1 0x0 PUSH2 0x481 DUP4 DUP4 PUSH2 0x570 JUMP JUMPDEST SWAP1 POP SWAP3 SWAP2 POP POP JUMP JUMPDEST PUSH1 0x0 PUSH2 0x494 DUP3 PUSH2 0x5EE JUMP JUMPDEST PUSH2 0x49E DUP2 DUP6 PUSH2 0x611 JUMP JUMPDEST SWAP4 POP DUP4 PUSH1 0x20 DUP3 MUL DUP6 ADD PUSH2 0x4B0 DUP6 PUSH2 0x5DE JUMP JUMPDEST DUP1 PUSH1 0x0 JUMPDEST DUP6 DUP2 LT ISZERO PUSH2 0x4EC JUMPI DUP5 DUP5 SUB DUP10 MSTORE DUP2 MLOAD PUSH2 0x4CD DUP6 DUP3 PUSH2 0x475 JUMP JUMPDEST SWAP5 POP PUSH2 0x4D8 DUP4 PUSH2 0x604 JUMP JUMPDEST SWAP3 POP PUSH1 0x20 DUP11 ADD SWAP10 POP POP PUSH1 0x1 DUP2 ADD SWAP1 POP PUSH2 0x4B4 JUMP JUMPDEST POP DUP3 SWAP8 POP DUP8 SWAP6 POP POP POP POP POP POP SWAP3 SWAP2 POP POP JUMP JUMPDEST PUSH1 0x0 PUSH2 0x509 DUP3 PUSH2 0x5F9 JUMP JUMPDEST PUSH2 0x513 DUP2 DUP6 PUSH2 0x622 JUMP JUMPDEST SWAP4 POP PUSH2 0x523 DUP2 DUP6 PUSH1 0x20 DUP7 ADD PUSH2 0x64E JUMP JUMPDEST PUSH2 0x52C DUP2 PUSH2 0x78E JUMP JUMPDEST DUP5 ADD SWAP2 POP POP SWAP3 SWAP2 POP POP JUMP JUMPDEST PUSH1 0x0 PUSH2 0x542 DUP3 PUSH2 0x5F9 JUMP JUMPDEST PUSH2 0x54C DUP2 DUP6 PUSH2 0x633 JUMP JUMPDEST SWAP4 POP PUSH2 0x55C DUP2 DUP6 PUSH1 0x20 DUP7 ADD PUSH2 0x64E JUMP JUMPDEST PUSH2 0x565 DUP2 PUSH2 0x78E JUMP JUMPDEST DUP5 ADD SWAP2 POP POP SWAP3 SWAP2 POP POP JUMP JUMPDEST PUSH1 0x0 PUSH1 0x20 DUP4 ADD PUSH1 0x0 DUP4 ADD MLOAD DUP5 DUP3 SUB PUSH1 0x0 DUP7 ADD MSTORE PUSH2 0x58D DUP3 DUP3 PUSH2 0x4FE JUMP JUMPDEST SWAP2 POP POP DUP1 SWAP2 POP POP SWAP3 SWAP2 POP POP JUMP JUMPDEST PUSH1 0x0 PUSH1 0x20 DUP3 ADD SWAP1 POP DUP2 DUP2 SUB PUSH1 0x0 DUP4 ADD MSTORE PUSH2 0x5B4 DUP2 DUP5 PUSH2 0x489 JUMP JUMPDEST SWAP1 POP SWAP3 SWAP2 POP POP JUMP JUMPDEST PUSH1 0x0 PUSH1 0x20 DUP3 ADD SWAP1 POP DUP2 DUP2 SUB PUSH1 0x0 DUP4 ADD MSTORE PUSH2 0x5D6 DUP2 DUP5 PUSH2 0x537 JUMP JUMPDEST SWAP1 POP SWAP3 SWAP2 POP POP JUMP JUMPDEST PUSH1 0x0 DUP2 SWAP1 POP PUSH1 0x20 DUP3 ADD SWAP1 POP SWAP2 SWAP1 POP JUMP JUMPDEST PUSH1 0x0 DUP2 MLOAD SWAP1 POP SWAP2 SWAP1 POP JUMP JUMPDEST PUSH1 0x0 DUP2 MLOAD SWAP1 POP SWAP2 SWAP1 POP JUMP JUMPDEST PUSH1 0x0 PUSH1 0x20 DUP3 ADD SWAP1 POP SWAP2 SWAP1 POP JUMP JUMPDEST PUSH1 0x0 DUP3 DUP3 MSTORE PUSH1 0x20 DUP3 ADD SWAP1 POP SWAP3 SWAP2 POP POP JUMP JUMPDEST PUSH1 0x0 DUP3 DUP3 MSTORE PUSH1 0x20 DUP3 ADD SWAP1 POP SWAP3 SWAP2 POP POP JUMP JUMPDEST PUSH1 0x0 DUP3 DUP3 MSTORE PUSH1 0x20 DUP3 ADD SWAP1 POP SWAP3 SWAP2 POP POP JUMP JUMPDEST PUSH1 0x0 DUP2 SWAP1 POP SWAP2 SWAP1 POP JUMP JUMPDEST PUSH1 0x0 JUMPDEST DUP4 DUP2 LT ISZERO PUSH2 0x66C JUMPI DUP1 DUP3 ADD MLOAD DUP2 DUP5 ADD MSTORE PUSH1 0x20 DUP2 ADD SWAP1 POP PUSH2 0x651 JUMP JUMPDEST DUP4 DUP2 GT ISZERO PUSH2 0x67B JUMPI PUSH1 0x0 DUP5 DUP5 ADD MSTORE JUMPDEST POP POP POP POP JUMP JUMPDEST PUSH1 0x0 PUSH1 0x2 DUP3 DIV SWAP1 POP PUSH1 0x1 DUP3 AND DUP1 PUSH2 0x699 JUMPI PUSH1 0x7F DUP3 AND SWAP2 POP JUMPDEST PUSH1 0x20 DUP3 LT DUP2 EQ ISZERO PUSH2 0x6AD JUMPI PUSH2 0x6AC PUSH2 0x72B JUMP JUMPDEST JUMPDEST POP SWAP2 SWAP1 POP JUMP JUMPDEST PUSH1 0x0 PUSH2 0x6BE DUP3 PUSH2 0x644 JUMP JUMPDEST SWAP2 POP PUSH32 0xFFFFFFFFFFFFFFFFFFFFFFFFFFFFFFFFFFFFFFFFFFFFFFFFFFFFFFFFFFFFFFFF DUP3 EQ ISZERO PUSH2 0x6F1 JUMPI PUSH2 0x6F0 PUSH2 0x6FC JUMP JUMPDEST JUMPDEST PUSH1 0x1 DUP3 ADD SWAP1 POP SWAP2 SWAP1 POP JUMP JUMPDEST PUSH32 0x4E487B7100000000000000000000000000000000000000000000000000000000 PUSH1 0x0 MSTORE PUSH1 0x11 PUSH1 0x4 MSTORE PUSH1 0x24 PUSH1 0x0 REVERT JUMPDEST PUSH32 0x4E487B7100000000000000000000000000000000000000000000000000000000 PUSH1 0x0 MSTORE PUSH1 0x22 PUSH1 0x4 MSTORE PUSH1 0x24 PUSH1 0x0 REVERT JUMPDEST PUSH32 0x4E487B7100000000000000000000000000000000000000000000000000000000 PUSH1 0x0 MSTORE PUSH1 0x32 PUSH1 0x4 MSTORE PUSH1 0x24 PUSH1 0x0 REVERT JUMPDEST PUSH1 0x0 DUP1 REVERT JUMPDEST PUSH1 0x0 PUSH1 0x1F NOT PUSH1 0x1F DUP4 ADD AND SWAP1 POP SWAP2 SWAP1 POP JUMP JUMPDEST PUSH2 0x7A8 DUP2 PUSH2 0x644 JUMP JUMPDEST DUP2 EQ PUSH2 0x7B3 JUMPI PUSH1 0x0 DUP1 REVERT JUMPDEST POP JUMP INVALID LOG2 PUSH5 0x6970667358 0x22 SLT KECCAK256 0x1F PUSH25 0xAF8490EEFAB5AA1224D369AEBD7E4C37F25FAC3A15C0FC0A17 DUP15 0xD1 DUP14 LOG0 BASEFEE PUSH5 0x736F6C6343 STOP ADDMOD SMOD STOP CALLER "
				},
				"gasEstimates": {
					"creation": {
						"codeDepositCost": "405600",
						"executionCost": "443",
						"totalCost": "406043"
					},
					"external": {
						"_setAllPeopleName()": "infinite",
						"addPeople()": "infinite",
						"peoples(uint256)": "infinite"
					}
				},
				"methodIdentifiers": {
					"_setAllPeopleName()": "223f461b",
					"addPeople()": "eccdc03f",
					"peoples(uint256)": "1f1094e7"
				}
			},
			"storageLayout": {
				"storage": [
					{
						"astId": 9,
						"contract": "contract/chapter02/useAbicodeV2.sol:useAbicodeV2",
						"label": "peoples",
						"offset": 0,
						"slot": "0",
						"type": "t_array(t_struct(People)5_storage)dyn_storage"
					}
				],
				"types": {
					"t_array(t_struct(People)5_storage)dyn_storage": {
						"base": "t_struct(People)5_storage",
						"encoding": "dynamic_array",
						"label": "struct useAbicodeV2.People[]",
						"numberOfBytes": "32"
					},
					"t_string_storage": {
						"encoding": "bytes",
						"label": "string",
						"numberOfBytes": "32"
					},
					"t_struct(People)5_storage": {
						"encoding": "inplace",
						"label": "struct useAbicodeV2.People",
						"members": [
							{
								"astId": 4,
								"contract": "contract/chapter02/useAbicodeV2.sol:useAbicodeV2",
								"label": "name",
								"offset": 0,
								"slot": "0",
								"type": "t_string_storage"
							}
						],
						"numberOfBytes": "32"
					}
				}
			},
			"userdoc": {
				"kind": "user",
				"methods": {},
				"version": 1
			}
		}
	}
}