{
	"chapter02/4conversion.sol": {
		"test1": {
			"abi": [
				{
					"inputs": [],
					"name": "a",
					"outputs": [
						{
							"internalType": "uint8",
							"name": "",
							"type": "uint8"
						}
					],
					"stateMutability": "view",
					"type": "function"
				},
				{
					"inputs": [],
					"name": "b",
					"outputs": [
						{
							"internalType": "uint16",
							"name": "",
							"type": "uint16"
						}
					],
					"stateMutability": "view",
					"type": "function"
				},
				{
					"inputs": [],
					"name": "c",
					"outputs": [
						{
							"internalType": "uint16",
							"name": "",
							"type": "uint16"
						}
					],
					"stateMutability": "view",
					"type": "function"
				}
			],
			"devdoc": {
				"kind": "dev",
				"methods": {},
				"version": 1
			},
			"evm": {
				"assembly": "    /* \"chapter02/4conversion.sol\":349:571  contract test1{... */\n  mstore(0x40, 0x80)\n    /* \"chapter02/4conversion.sol\":386:389  100 */\n  0x64\n    /* \"chapter02/4conversion.sol\":369:389  uint8 public a = 100 */\n  0x00\n  dup1\n  0x0100\n  exp\n  dup2\n  sload\n  dup2\n  0xff\n  mul\n  not\n  and\n  swap1\n  dup4\n  0xff\n  and\n  mul\n  or\n  swap1\n  sstore\n  pop\n    /* \"chapter02/4conversion.sol\":413:414  a */\n  0x00\n  dup1\n  sload\n  swap1\n  0x0100\n  exp\n  swap1\n  div\n  0xff\n  and\n    /* \"chapter02/4conversion.sol\":395:414  uint16 public b = a */\n  0xff\n  and\n  0x00\n  exp(0x0100, 0x01)\n  dup2\n  sload\n  dup2\n  0xffff\n  mul\n  not\n  and\n  swap1\n  dup4\n  0xffff\n  and\n  mul\n  or\n  swap1\n  sstore\n  pop\n    /* \"chapter02/4conversion.sol\":461:463  10 */\n  0x0a\n    /* \"chapter02/4conversion.sol\":444:463  uint16 public c= 10 */\n  0x00\n  exp(0x0100, 0x03)\n  dup2\n  sload\n  dup2\n  0xffff\n  mul\n  not\n  and\n  swap1\n  dup4\n  0xffff\n  and\n  mul\n  or\n  swap1\n  sstore\n  pop\n    /* \"chapter02/4conversion.sol\":349:571  contract test1{... */\n  callvalue\n  dup1\n  iszero\n  tag_1\n  jumpi\n  0x00\n  dup1\n  revert\ntag_1:\n  pop\n  dataSize(sub_0)\n  dup1\n  dataOffset(sub_0)\n  0x00\n  codecopy\n  0x00\n  return\nstop\n\nsub_0: assembly {\n        /* \"chapter02/4conversion.sol\":349:571  contract test1{... */\n      mstore(0x40, 0x80)\n      callvalue\n      dup1\n      iszero\n      tag_1\n      jumpi\n      0x00\n      dup1\n      revert\n    tag_1:\n      pop\n      jumpi(tag_2, lt(calldatasize, 0x04))\n      shr(0xe0, calldataload(0x00))\n      dup1\n      0x0dbe671f\n      eq\n      tag_3\n      jumpi\n      dup1\n      0x4df7e3d0\n      eq\n      tag_4\n      jumpi\n      dup1\n      0xc3da42b8\n      eq\n      tag_5\n      jumpi\n    tag_2:\n      0x00\n      dup1\n      revert\n        /* \"chapter02/4conversion.sol\":369:389  uint8 public a = 100 */\n    tag_3:\n      tag_6\n      tag_7\n      jump\t// in\n    tag_6:\n      mload(0x40)\n      tag_8\n      swap2\n      swap1\n      tag_9\n      jump\t// in\n    tag_8:\n      mload(0x40)\n      dup1\n      swap2\n      sub\n      swap1\n      return\n        /* \"chapter02/4conversion.sol\":395:414  uint16 public b = a */\n    tag_4:\n      tag_10\n      tag_11\n      jump\t// in\n    tag_10:\n      mload(0x40)\n      tag_12\n      swap2\n      swap1\n      tag_13\n      jump\t// in\n    tag_12:\n      mload(0x40)\n      dup1\n      swap2\n      sub\n      swap1\n      return\n        /* \"chapter02/4conversion.sol\":444:463  uint16 public c= 10 */\n    tag_5:\n      tag_14\n      tag_15\n      jump\t// in\n    tag_14:\n      mload(0x40)\n      tag_16\n      swap2\n      swap1\n      tag_13\n      jump\t// in\n    tag_16:\n      mload(0x40)\n      dup1\n      swap2\n      sub\n      swap1\n      return\n        /* \"chapter02/4conversion.sol\":369:389  uint8 public a = 100 */\n    tag_7:\n      0x00\n      dup1\n      sload\n      swap1\n      0x0100\n      exp\n      swap1\n      div\n      0xff\n      and\n      dup2\n      jump\t// out\n        /* \"chapter02/4conversion.sol\":395:414  uint16 public b = a */\n    tag_11:\n      0x00\n      0x01\n      swap1\n      sload\n      swap1\n      0x0100\n      exp\n      swap1\n      div\n      0xffff\n      and\n      dup2\n      jump\t// out\n        /* \"chapter02/4conversion.sol\":444:463  uint16 public c= 10 */\n    tag_15:\n      0x00\n      0x03\n      swap1\n      sload\n      swap1\n      0x0100\n      exp\n      swap1\n      div\n      0xffff\n      and\n      dup2\n      jump\t// out\n        /* \"#utility.yul\":7:93   */\n    tag_17:\n        /* \"#utility.yul\":42:49   */\n      0x00\n        /* \"#utility.yul\":82:86   */\n      0xff\n        /* \"#utility.yul\":75:80   */\n      dup3\n        /* \"#utility.yul\":71:87   */\n      and\n        /* \"#utility.yul\":60:87   */\n      swap1\n      pop\n        /* \"#utility.yul\":7:93   */\n      swap2\n      swap1\n      pop\n      jump\t// out\n        /* \"#utility.yul\":99:211   */\n    tag_18:\n        /* \"#utility.yul\":182:204   */\n      tag_24\n        /* \"#utility.yul\":198:203   */\n      dup2\n        /* \"#utility.yul\":182:204   */\n      tag_17\n      jump\t// in\n    tag_24:\n        /* \"#utility.yul\":177:180   */\n      dup3\n        /* \"#utility.yul\":170:205   */\n      mstore\n        /* \"#utility.yul\":99:211   */\n      pop\n      pop\n      jump\t// out\n        /* \"#utility.yul\":217:431   */\n    tag_9:\n        /* \"#utility.yul\":306:310   */\n      0x00\n        /* \"#utility.yul\":344:346   */\n      0x20\n        /* \"#utility.yul\":333:342   */\n      dup3\n        /* \"#utility.yul\":329:347   */\n      add\n        /* \"#utility.yul\":321:347   */\n      swap1\n      pop\n        /* \"#utility.yul\":357:424   */\n      tag_26\n        /* \"#utility.yul\":421:422   */\n      0x00\n        /* \"#utility.yul\":410:419   */\n      dup4\n        /* \"#utility.yul\":406:423   */\n      add\n        /* \"#utility.yul\":397:403   */\n      dup5\n        /* \"#utility.yul\":357:424   */\n      tag_18\n      jump\t// in\n    tag_26:\n        /* \"#utility.yul\":217:431   */\n      swap3\n      swap2\n      pop\n      pop\n      jump\t// out\n        /* \"#utility.yul\":437:526   */\n    tag_19:\n        /* \"#utility.yul\":473:480   */\n      0x00\n        /* \"#utility.yul\":513:519   */\n      0xffff\n        /* \"#utility.yul\":506:511   */\n      dup3\n        /* \"#utility.yul\":502:520   */\n      and\n        /* \"#utility.yul\":491:520   */\n      swap1\n      pop\n        /* \"#utility.yul\":437:526   */\n      swap2\n      swap1\n      pop\n      jump\t// out\n        /* \"#utility.yul\":532:647   */\n    tag_20:\n        /* \"#utility.yul\":617:640   */\n      tag_29\n        /* \"#utility.yul\":634:639   */\n      dup2\n        /* \"#utility.yul\":617:640   */\n      tag_19\n      jump\t// in\n    tag_29:\n        /* \"#utility.yul\":612:615   */\n      dup3\n        /* \"#utility.yul\":605:641   */\n      mstore\n        /* \"#utility.yul\":532:647   */\n      pop\n      pop\n      jump\t// out\n        /* \"#utility.yul\":653:871   */\n    tag_13:\n        /* \"#utility.yul\":744:748   */\n      0x00\n        /* \"#utility.yul\":782:784   */\n      0x20\n        /* \"#utility.yul\":771:780   */\n      dup3\n        /* \"#utility.yul\":767:785   */\n      add\n        /* \"#utility.yul\":759:785   */\n      swap1\n      pop\n        /* \"#utility.yul\":795:864   */\n      tag_31\n        /* \"#utility.yul\":861:862   */\n      0x00\n        /* \"#utility.yul\":850:859   */\n      dup4\n        /* \"#utility.yul\":846:863   */\n      add\n        /* \"#utility.yul\":837:843   */\n      dup5\n        /* \"#utility.yul\":795:864   */\n      tag_20\n      jump\t// in\n    tag_31:\n        /* \"#utility.yul\":653:871   */\n      swap3\n      swap2\n      pop\n      pop\n      jump\t// out\n\n    auxdata: 0xa2646970667358221220d77ae25da090991e24f153e0beb3e11e0e502462f5912bd23d3f8ee0665b83e364736f6c634300080f0033\n}\n",
				"bytecode": {
					"linkReferences": {},
					"object": "608060405260646000806101000a81548160ff021916908360ff16021790555060008054906101000a900460ff1660ff16600060016101000a81548161ffff021916908361ffff160217905550600a600060036101000a81548161ffff021916908361ffff16021790555034801561007657600080fd5b5061017e806100866000396000f3fe608060405234801561001057600080fd5b50600436106100415760003560e01c80630dbe671f146100465780634df7e3d014610064578063c3da42b814610082575b600080fd5b61004e6100a0565b60405161005b91906100f5565b60405180910390f35b61006c6100b1565b604051610079919061012d565b60405180910390f35b61008a6100c5565b604051610097919061012d565b60405180910390f35b60008054906101000a900460ff1681565b600060019054906101000a900461ffff1681565b600060039054906101000a900461ffff1681565b600060ff82169050919050565b6100ef816100d9565b82525050565b600060208201905061010a60008301846100e6565b92915050565b600061ffff82169050919050565b61012781610110565b82525050565b6000602082019050610142600083018461011e565b9291505056fea2646970667358221220d77ae25da090991e24f153e0beb3e11e0e502462f5912bd23d3f8ee0665b83e364736f6c634300080f0033",
					"opcodes": "PUSH1 0x80 PUSH1 0x40 MSTORE PUSH1 0x64 PUSH1 0x0 DUP1 PUSH2 0x100 EXP DUP2 SLOAD DUP2 PUSH1 0xFF MUL NOT AND SWAP1 DUP4 PUSH1 0xFF AND MUL OR SWAP1 SSTORE POP PUSH1 0x0 DUP1 SLOAD SWAP1 PUSH2 0x100 EXP SWAP1 DIV PUSH1 0xFF AND PUSH1 0xFF AND PUSH1 0x0 PUSH1 0x1 PUSH2 0x100 EXP DUP2 SLOAD DUP2 PUSH2 0xFFFF MUL NOT AND SWAP1 DUP4 PUSH2 0xFFFF AND MUL OR SWAP1 SSTORE POP PUSH1 0xA PUSH1 0x0 PUSH1 0x3 PUSH2 0x100 EXP DUP2 SLOAD DUP2 PUSH2 0xFFFF MUL NOT AND SWAP1 DUP4 PUSH2 0xFFFF AND MUL OR SWAP1 SSTORE POP CALLVALUE DUP1 ISZERO PUSH2 0x76 JUMPI PUSH1 0x0 DUP1 REVERT JUMPDEST POP PUSH2 0x17E DUP1 PUSH2 0x86 PUSH1 0x0 CODECOPY PUSH1 0x0 RETURN INVALID PUSH1 0x80 PUSH1 0x40 MSTORE CALLVALUE DUP1 ISZERO PUSH2 0x10 JUMPI PUSH1 0x0 DUP1 REVERT JUMPDEST POP PUSH1 0x4 CALLDATASIZE LT PUSH2 0x41 JUMPI PUSH1 0x0 CALLDATALOAD PUSH1 0xE0 SHR DUP1 PUSH4 0xDBE671F EQ PUSH2 0x46 JUMPI DUP1 PUSH4 0x4DF7E3D0 EQ PUSH2 0x64 JUMPI DUP1 PUSH4 0xC3DA42B8 EQ PUSH2 0x82 JUMPI JUMPDEST PUSH1 0x0 DUP1 REVERT JUMPDEST PUSH2 0x4E PUSH2 0xA0 JUMP JUMPDEST PUSH1 0x40 MLOAD PUSH2 0x5B SWAP2 SWAP1 PUSH2 0xF5 JUMP JUMPDEST PUSH1 0x40 MLOAD DUP1 SWAP2 SUB SWAP1 RETURN JUMPDEST PUSH2 0x6C PUSH2 0xB1 JUMP JUMPDEST PUSH1 0x40 MLOAD PUSH2 0x79 SWAP2 SWAP1 PUSH2 0x12D JUMP JUMPDEST PUSH1 0x40 MLOAD DUP1 SWAP2 SUB SWAP1 RETURN JUMPDEST PUSH2 0x8A PUSH2 0xC5 JUMP JUMPDEST PUSH1 0x40 MLOAD PUSH2 0x97 SWAP2 SWAP1 PUSH2 0x12D JUMP JUMPDEST PUSH1 0x40 MLOAD DUP1 SWAP2 SUB SWAP1 RETURN JUMPDEST PUSH1 0x0 DUP1 SLOAD SWAP1 PUSH2 0x100 EXP SWAP1 DIV PUSH1 0xFF AND DUP2 JUMP JUMPDEST PUSH1 0x0 PUSH1 0x1 SWAP1 SLOAD SWAP1 PUSH2 0x100 EXP SWAP1 DIV PUSH2 0xFFFF AND DUP2 JUMP JUMPDEST PUSH1 0x0 PUSH1 0x3 SWAP1 SLOAD SWAP1 PUSH2 0x100 EXP SWAP1 DIV PUSH2 0xFFFF AND DUP2 JUMP JUMPDEST PUSH1 0x0 PUSH1 0xFF DUP3 AND SWAP1 POP SWAP2 SWAP1 POP JUMP JUMPDEST PUSH2 0xEF DUP2 PUSH2 0xD9 JUMP JUMPDEST DUP3 MSTORE POP POP JUMP JUMPDEST PUSH1 0x0 PUSH1 0x20 DUP3 ADD SWAP1 POP PUSH2 0x10A PUSH1 0x0 DUP4 ADD DUP5 PUSH2 0xE6 JUMP JUMPDEST SWAP3 SWAP2 POP POP JUMP JUMPDEST PUSH1 0x0 PUSH2 0xFFFF DUP3 AND SWAP1 POP SWAP2 SWAP1 POP JUMP JUMPDEST PUSH2 0x127 DUP2 PUSH2 0x110 JUMP JUMPDEST DUP3 MSTORE POP POP JUMP JUMPDEST PUSH1 0x0 PUSH1 0x20 DUP3 ADD SWAP1 POP PUSH2 0x142 PUSH1 0x0 DUP4 ADD DUP5 PUSH2 0x11E JUMP JUMPDEST SWAP3 SWAP2 POP POP JUMP INVALID LOG2 PUSH5 0x6970667358 0x22 SLT KECCAK256 0xD7 PUSH27 0xE25DA090991E24F153E0BEB3E11E0E502462F5912BD23D3F8EE066 JUMPDEST DUP4 0xE3 PUSH5 0x736F6C6343 STOP ADDMOD 0xF STOP CALLER "
				},
				"gasEstimates": {
					"creation": {
						"codeDepositCost": "76400",
						"executionCost": "75163",
						"totalCost": "151563"
					},
					"external": {
						"a()": "2446",
						"b()": "2521",
						"c()": "2543"
					}
				},
				"methodIdentifiers": {
					"a()": "0dbe671f",
					"b()": "4df7e3d0",
					"c()": "c3da42b8"
				}
			},
			"storageLayout": {
				"storage": [
					{
						"astId": 33,
						"contract": "chapter02/4conversion.sol:test1",
						"label": "a",
						"offset": 0,
						"slot": "0",
						"type": "t_uint8"
					},
					{
						"astId": 36,
						"contract": "chapter02/4conversion.sol:test1",
						"label": "b",
						"offset": 1,
						"slot": "0",
						"type": "t_uint16"
					},
					{
						"astId": 39,
						"contract": "chapter02/4conversion.sol:test1",
						"label": "c",
						"offset": 3,
						"slot": "0",
						"type": "t_uint16"
					}
				],
				"types": {
					"t_uint16": {
						"encoding": "inplace",
						"label": "uint16",
						"numberOfBytes": "2"
					},
					"t_uint8": {
						"encoding": "inplace",
						"label": "uint8",
						"numberOfBytes": "1"
					}
				}
			},
			"userdoc": {
				"kind": "user",
				"methods": {},
				"version": 1
			}
		}
	}
}