{
	"chapter02/4conversion.sol": {
		"test2": {
			"abi": [
				{
					"inputs": [],
					"name": "a",
					"outputs": [
						{
							"internalType": "uint32",
							"name": "",
							"type": "uint32"
						}
					],
					"stateMutability": "view",
					"type": "function"
				},
				{
					"inputs": [],
					"name": "a1",
					"outputs": [
						{
							"internalType": "uint16",
							"name": "",
							"type": "uint16"
						}
					],
					"stateMutability": "view",
					"type": "function"
				},
				{
					"inputs": [],
					"name": "b",
					"outputs": [
						{
							"internalType": "uint16",
							"name": "",
							"type": "uint16"
						}
					],
					"stateMutability": "view",
					"type": "function"
				},
				{
					"inputs": [],
					"name": "b1",
					"outputs": [
						{
							"internalType": "uint32",
							"name": "",
							"type": "uint32"
						}
					],
					"stateMutability": "view",
					"type": "function"
				},
				{
					"inputs": [],
					"name": "x",
					"outputs": [
						{
							"internalType": "uint8",
							"name": "",
							"type": "uint8"
						}
					],
					"stateMutability": "view",
					"type": "function"
				},
				{
					"inputs": [],
					"name": "y",
					"outputs": [
						{
							"internalType": "int8",
							"name": "",
							"type": "int8"
						}
					],
					"stateMutability": "view",
					"type": "function"
				}
			],
			"devdoc": {
				"kind": "dev",
				"methods": {},
				"version": 1
			},
			"evm": {
				"assembly": "    /* \"chapter02/4conversion.sol\":53:345  contract test2{... */\n  mstore(0x40, 0x80)\n    /* \"chapter02/4conversion.sol\":88:90  -3 */\n  0xfffffffffffffffffffffffffffffffffffffffffffffffffffffffffffffffd\n    /* \"chapter02/4conversion.sol\":72:90  int8 public y = -3 */\n  0x00\n  dup1\n  0x0100\n  exp\n  dup2\n  sload\n  dup2\n  0xff\n  mul\n  not\n  and\n  swap1\n  dup4\n  0x00\n  signextend\n  0xff\n  and\n  mul\n  or\n  swap1\n  sstore\n  pop\n    /* \"chapter02/4conversion.sol\":129:130  y */\n  0x00\n  dup1\n  sload\n  swap1\n  0x0100\n  exp\n  swap1\n  div\n  0x00\n  signextend\n    /* \"chapter02/4conversion.sol\":106:131  uint8 public x = uint8(y) */\n  0x00\n  exp(0x0100, 0x01)\n  dup2\n  sload\n  dup2\n  0xff\n  mul\n  not\n  and\n  swap1\n  dup4\n  0xff\n  and\n  mul\n  or\n  swap1\n  sstore\n  pop\n    /* \"chapter02/4conversion.sol\":193:203  0x12345678 */\n  0x12345678\n    /* \"chapter02/4conversion.sol\":175:203  uint32 public a = 0x12345678 */\n  0x00\n  exp(0x0100, 0x02)\n  dup2\n  sload\n  dup2\n  0xffffffff\n  mul\n  not\n  and\n  swap1\n  dup4\n  0xffffffff\n  and\n  mul\n  or\n  swap1\n  sstore\n  pop\n    /* \"chapter02/4conversion.sol\":233:234  a */\n  0x00\n  0x02\n  swap1\n  sload\n  swap1\n  0x0100\n  exp\n  swap1\n  div\n  0xffffffff\n  and\n    /* \"chapter02/4conversion.sol\":208:235  uint16 public b = uint16(a) */\n  0x00\n  exp(0x0100, 0x06)\n  dup2\n  sload\n  dup2\n  0xffff\n  mul\n  not\n  and\n  swap1\n  dup4\n  0xffff\n  and\n  mul\n  or\n  swap1\n  sstore\n  pop\n    /* \"chapter02/4conversion.sol\":278:284  0x1234 */\n  0x1234\n    /* \"chapter02/4conversion.sol\":259:284  uint16 public a1 = 0x1234 */\n  0x00\n  exp(0x0100, 0x08)\n  dup2\n  sload\n  dup2\n  0xffff\n  mul\n  not\n  and\n  swap1\n  dup4\n  0xffff\n  and\n  mul\n  or\n  swap1\n  sstore\n  pop\n    /* \"chapter02/4conversion.sol\":315:317  a1 */\n  0x00\n  0x08\n  swap1\n  sload\n  swap1\n  0x0100\n  exp\n  swap1\n  div\n  0xffff\n  and\n    /* \"chapter02/4conversion.sol\":308:318  uint32(a1) */\n  0xffff\n  and\n    /* \"chapter02/4conversion.sol\":289:318  uint32 public b1 = uint32(a1) */\n  0x00\n  exp(0x0100, 0x0a)\n  dup2\n  sload\n  dup2\n  0xffffffff\n  mul\n  not\n  and\n  swap1\n  dup4\n  0xffffffff\n  and\n  mul\n  or\n  swap1\n  sstore\n  pop\n    /* \"chapter02/4conversion.sol\":53:345  contract test2{... */\n  callvalue\n  dup1\n  iszero\n  tag_1\n  jumpi\n  0x00\n  dup1\n  revert\ntag_1:\n  pop\n  dataSize(sub_0)\n  dup1\n  dataOffset(sub_0)\n  0x00\n  codecopy\n  0x00\n  return\nstop\n\nsub_0: assembly {\n        /* \"chapter02/4conversion.sol\":53:345  contract test2{... */\n      mstore(0x40, 0x80)\n      callvalue\n      dup1\n      iszero\n      tag_1\n      jumpi\n      0x00\n      dup1\n      revert\n    tag_1:\n      pop\n      jumpi(tag_2, lt(calldatasize, 0x04))\n      shr(0xe0, calldataload(0x00))\n      dup1\n      0x0c55699c\n      eq\n      tag_3\n      jumpi\n      dup1\n      0x0dbe671f\n      eq\n      tag_4\n      jumpi\n      dup1\n      0x119552a1\n      eq\n      tag_5\n      jumpi\n      dup1\n      0x4df7e3d0\n      eq\n      tag_6\n      jumpi\n      dup1\n      0xa56dfe4a\n      eq\n      tag_7\n      jumpi\n      dup1\n      0xee495002\n      eq\n      tag_8\n      jumpi\n    tag_2:\n      0x00\n      dup1\n      revert\n        /* \"chapter02/4conversion.sol\":106:131  uint8 public x = uint8(y) */\n    tag_3:\n      tag_9\n      tag_10\n      jump\t// in\n    tag_9:\n      mload(0x40)\n      tag_11\n      swap2\n      swap1\n      tag_12\n      jump\t// in\n    tag_11:\n      mload(0x40)\n      dup1\n      swap2\n      sub\n      swap1\n      return\n        /* \"chapter02/4conversion.sol\":175:203  uint32 public a = 0x12345678 */\n    tag_4:\n      tag_13\n      tag_14\n      jump\t// in\n    tag_13:\n      mload(0x40)\n      tag_15\n      swap2\n      swap1\n      tag_16\n      jump\t// in\n    tag_15:\n      mload(0x40)\n      dup1\n      swap2\n      sub\n      swap1\n      return\n        /* \"chapter02/4conversion.sol\":259:284  uint16 public a1 = 0x1234 */\n    tag_5:\n      tag_17\n      tag_18\n      jump\t// in\n    tag_17:\n      mload(0x40)\n      tag_19\n      swap2\n      swap1\n      tag_20\n      jump\t// in\n    tag_19:\n      mload(0x40)\n      dup1\n      swap2\n      sub\n      swap1\n      return\n        /* \"chapter02/4conversion.sol\":208:235  uint16 public b = uint16(a) */\n    tag_6:\n      tag_21\n      tag_22\n      jump\t// in\n    tag_21:\n      mload(0x40)\n      tag_23\n      swap2\n      swap1\n      tag_20\n      jump\t// in\n    tag_23:\n      mload(0x40)\n      dup1\n      swap2\n      sub\n      swap1\n      return\n        /* \"chapter02/4conversion.sol\":72:90  int8 public y = -3 */\n    tag_7:\n      tag_24\n      tag_25\n      jump\t// in\n    tag_24:\n      mload(0x40)\n      tag_26\n      swap2\n      swap1\n      tag_27\n      jump\t// in\n    tag_26:\n      mload(0x40)\n      dup1\n      swap2\n      sub\n      swap1\n      return\n        /* \"chapter02/4conversion.sol\":289:318  uint32 public b1 = uint32(a1) */\n    tag_8:\n      tag_28\n      tag_29\n      jump\t// in\n    tag_28:\n      mload(0x40)\n      tag_30\n      swap2\n      swap1\n      tag_16\n      jump\t// in\n    tag_30:\n      mload(0x40)\n      dup1\n      swap2\n      sub\n      swap1\n      return\n        /* \"chapter02/4conversion.sol\":106:131  uint8 public x = uint8(y) */\n    tag_10:\n      0x00\n      0x01\n      swap1\n      sload\n      swap1\n      0x0100\n      exp\n      swap1\n      div\n      0xff\n      and\n      dup2\n      jump\t// out\n        /* \"chapter02/4conversion.sol\":175:203  uint32 public a = 0x12345678 */\n    tag_14:\n      0x00\n      0x02\n      swap1\n      sload\n      swap1\n      0x0100\n      exp\n      swap1\n      div\n      0xffffffff\n      and\n      dup2\n      jump\t// out\n        /* \"chapter02/4conversion.sol\":259:284  uint16 public a1 = 0x1234 */\n    tag_18:\n      0x00\n      0x08\n      swap1\n      sload\n      swap1\n      0x0100\n      exp\n      swap1\n      div\n      0xffff\n      and\n      dup2\n      jump\t// out\n        /* \"chapter02/4conversion.sol\":208:235  uint16 public b = uint16(a) */\n    tag_22:\n      0x00\n      0x06\n      swap1\n      sload\n      swap1\n      0x0100\n      exp\n      swap1\n      div\n      0xffff\n      and\n      dup2\n      jump\t// out\n        /* \"chapter02/4conversion.sol\":72:90  int8 public y = -3 */\n    tag_25:\n      0x00\n      dup1\n      sload\n      swap1\n      0x0100\n      exp\n      swap1\n      div\n      0x00\n      signextend\n      dup2\n      jump\t// out\n        /* \"chapter02/4conversion.sol\":289:318  uint32 public b1 = uint32(a1) */\n    tag_29:\n      0x00\n      0x0a\n      swap1\n      sload\n      swap1\n      0x0100\n      exp\n      swap1\n      div\n      0xffffffff\n      and\n      dup2\n      jump\t// out\n        /* \"#utility.yul\":7:93   */\n    tag_31:\n        /* \"#utility.yul\":42:49   */\n      0x00\n        /* \"#utility.yul\":82:86   */\n      0xff\n        /* \"#utility.yul\":75:80   */\n      dup3\n        /* \"#utility.yul\":71:87   */\n      and\n        /* \"#utility.yul\":60:87   */\n      swap1\n      pop\n        /* \"#utility.yul\":7:93   */\n      swap2\n      swap1\n      pop\n      jump\t// out\n        /* \"#utility.yul\":99:211   */\n    tag_32:\n        /* \"#utility.yul\":182:204   */\n      tag_42\n        /* \"#utility.yul\":198:203   */\n      dup2\n        /* \"#utility.yul\":182:204   */\n      tag_31\n      jump\t// in\n    tag_42:\n        /* \"#utility.yul\":177:180   */\n      dup3\n        /* \"#utility.yul\":170:205   */\n      mstore\n        /* \"#utility.yul\":99:211   */\n      pop\n      pop\n      jump\t// out\n        /* \"#utility.yul\":217:431   */\n    tag_12:\n        /* \"#utility.yul\":306:310   */\n      0x00\n        /* \"#utility.yul\":344:346   */\n      0x20\n        /* \"#utility.yul\":333:342   */\n      dup3\n        /* \"#utility.yul\":329:347   */\n      add\n        /* \"#utility.yul\":321:347   */\n      swap1\n      pop\n        /* \"#utility.yul\":357:424   */\n      tag_44\n        /* \"#utility.yul\":421:422   */\n      0x00\n        /* \"#utility.yul\":410:419   */\n      dup4\n        /* \"#utility.yul\":406:423   */\n      add\n        /* \"#utility.yul\":397:403   */\n      dup5\n        /* \"#utility.yul\":357:424   */\n      tag_32\n      jump\t// in\n    tag_44:\n        /* \"#utility.yul\":217:431   */\n      swap3\n      swap2\n      pop\n      pop\n      jump\t// out\n        /* \"#utility.yul\":437:530   */\n    tag_33:\n        /* \"#utility.yul\":473:480   */\n      0x00\n        /* \"#utility.yul\":513:523   */\n      0xffffffff\n        /* \"#utility.yul\":506:511   */\n      dup3\n        /* \"#utility.yul\":502:524   */\n      and\n        /* \"#utility.yul\":491:524   */\n      swap1\n      pop\n        /* \"#utility.yul\":437:530   */\n      swap2\n      swap1\n      pop\n      jump\t// out\n        /* \"#utility.yul\":536:651   */\n    tag_34:\n        /* \"#utility.yul\":621:644   */\n      tag_47\n        /* \"#utility.yul\":638:643   */\n      dup2\n        /* \"#utility.yul\":621:644   */\n      tag_33\n      jump\t// in\n    tag_47:\n        /* \"#utility.yul\":616:619   */\n      dup3\n        /* \"#utility.yul\":609:645   */\n      mstore\n        /* \"#utility.yul\":536:651   */\n      pop\n      pop\n      jump\t// out\n        /* \"#utility.yul\":657:875   */\n    tag_16:\n        /* \"#utility.yul\":748:752   */\n      0x00\n        /* \"#utility.yul\":786:788   */\n      0x20\n        /* \"#utility.yul\":775:784   */\n      dup3\n        /* \"#utility.yul\":771:789   */\n      add\n        /* \"#utility.yul\":763:789   */\n      swap1\n      pop\n        /* \"#utility.yul\":799:868   */\n      tag_49\n        /* \"#utility.yul\":865:866   */\n      0x00\n        /* \"#utility.yul\":854:863   */\n      dup4\n        /* \"#utility.yul\":850:867   */\n      add\n        /* \"#utility.yul\":841:847   */\n      dup5\n        /* \"#utility.yul\":799:868   */\n      tag_34\n      jump\t// in\n    tag_49:\n        /* \"#utility.yul\":657:875   */\n      swap3\n      swap2\n      pop\n      pop\n      jump\t// out\n        /* \"#utility.yul\":881:970   */\n    tag_35:\n        /* \"#utility.yul\":917:924   */\n      0x00\n        /* \"#utility.yul\":957:963   */\n      0xffff\n        /* \"#utility.yul\":950:955   */\n      dup3\n        /* \"#utility.yul\":946:964   */\n      and\n        /* \"#utility.yul\":935:964   */\n      swap1\n      pop\n        /* \"#utility.yul\":881:970   */\n      swap2\n      swap1\n      pop\n      jump\t// out\n        /* \"#utility.yul\":976:1091   */\n    tag_36:\n        /* \"#utility.yul\":1061:1084   */\n      tag_52\n        /* \"#utility.yul\":1078:1083   */\n      dup2\n        /* \"#utility.yul\":1061:1084   */\n      tag_35\n      jump\t// in\n    tag_52:\n        /* \"#utility.yul\":1056:1059   */\n      dup3\n        /* \"#utility.yul\":1049:1085   */\n      mstore\n        /* \"#utility.yul\":976:1091   */\n      pop\n      pop\n      jump\t// out\n        /* \"#utility.yul\":1097:1315   */\n    tag_20:\n        /* \"#utility.yul\":1188:1192   */\n      0x00\n        /* \"#utility.yul\":1226:1228   */\n      0x20\n        /* \"#utility.yul\":1215:1224   */\n      dup3\n        /* \"#utility.yul\":1211:1229   */\n      add\n        /* \"#utility.yul\":1203:1229   */\n      swap1\n      pop\n        /* \"#utility.yul\":1239:1308   */\n      tag_54\n        /* \"#utility.yul\":1305:1306   */\n      0x00\n        /* \"#utility.yul\":1294:1303   */\n      dup4\n        /* \"#utility.yul\":1290:1307   */\n      add\n        /* \"#utility.yul\":1281:1287   */\n      dup5\n        /* \"#utility.yul\":1239:1308   */\n      tag_36\n      jump\t// in\n    tag_54:\n        /* \"#utility.yul\":1097:1315   */\n      swap3\n      swap2\n      pop\n      pop\n      jump\t// out\n        /* \"#utility.yul\":1321:1410   */\n    tag_37:\n        /* \"#utility.yul\":1355:1362   */\n      0x00\n        /* \"#utility.yul\":1398:1403   */\n      dup2\n        /* \"#utility.yul\":1395:1396   */\n      0x00\n        /* \"#utility.yul\":1384:1404   */\n      signextend\n        /* \"#utility.yul\":1373:1404   */\n      swap1\n      pop\n        /* \"#utility.yul\":1321:1410   */\n      swap2\n      swap1\n      pop\n      jump\t// out\n        /* \"#utility.yul\":1416:1525   */\n    tag_38:\n        /* \"#utility.yul\":1497:1518   */\n      tag_57\n        /* \"#utility.yul\":1512:1517   */\n      dup2\n        /* \"#utility.yul\":1497:1518   */\n      tag_37\n      jump\t// in\n    tag_57:\n        /* \"#utility.yul\":1492:1495   */\n      dup3\n        /* \"#utility.yul\":1485:1519   */\n      mstore\n        /* \"#utility.yul\":1416:1525   */\n      pop\n      pop\n      jump\t// out\n        /* \"#utility.yul\":1531:1741   */\n    tag_27:\n        /* \"#utility.yul\":1618:1622   */\n      0x00\n        /* \"#utility.yul\":1656:1658   */\n      0x20\n        /* \"#utility.yul\":1645:1654   */\n      dup3\n        /* \"#utility.yul\":1641:1659   */\n      add\n        /* \"#utility.yul\":1633:1659   */\n      swap1\n      pop\n        /* \"#utility.yul\":1669:1734   */\n      tag_59\n        /* \"#utility.yul\":1731:1732   */\n      0x00\n        /* \"#utility.yul\":1720:1729   */\n      dup4\n        /* \"#utility.yul\":1716:1733   */\n      add\n        /* \"#utility.yul\":1707:1713   */\n      dup5\n        /* \"#utility.yul\":1669:1734   */\n      tag_38\n      jump\t// in\n    tag_59:\n        /* \"#utility.yul\":1531:1741   */\n      swap3\n      swap2\n      pop\n      pop\n      jump\t// out\n\n    auxdata: 0xa2646970667358221220b4f1fea1e977baffdc58b5e574f47d63f466040f5a05cc73ddf80ec3d1b29bb564736f6c634300080f0033\n}\n",
				"bytecode": {
					"linkReferences": {},
					"object": "60806040527ffffffffffffffffffffffffffffffffffffffffffffffffffffffffffffffffd6000806101000a81548160ff021916908360000b60ff16021790555060008054906101000a900460000b600060016101000a81548160ff021916908360ff1602179055506312345678600060026101000a81548163ffffffff021916908363ffffffff160217905550600060029054906101000a900463ffffffff16600060066101000a81548161ffff021916908361ffff160217905550611234600060086101000a81548161ffff021916908361ffff160217905550600060089054906101000a900461ffff1661ffff166000600a6101000a81548163ffffffff021916908363ffffffff16021790555034801561011d57600080fd5b506102a98061012d6000396000f3fe608060405234801561001057600080fd5b50600436106100625760003560e01c80630c55699c146100675780630dbe671f14610085578063119552a1146100a35780634df7e3d0146100c1578063a56dfe4a146100df578063ee495002146100fd575b600080fd5b61006f61011b565b60405161007c91906101af565b60405180910390f35b61008d61012e565b60405161009a91906101e9565b60405180910390f35b6100ab610144565b6040516100b89190610221565b60405180910390f35b6100c9610158565b6040516100d69190610221565b60405180910390f35b6100e761016c565b6040516100f49190610258565b60405180910390f35b61010561017d565b60405161011291906101e9565b60405180910390f35b600060019054906101000a900460ff1681565b600060029054906101000a900463ffffffff1681565b600060089054906101000a900461ffff1681565b600060069054906101000a900461ffff1681565b60008054906101000a900460000b81565b6000600a9054906101000a900463ffffffff1681565b600060ff82169050919050565b6101a981610193565b82525050565b60006020820190506101c460008301846101a0565b92915050565b600063ffffffff82169050919050565b6101e3816101ca565b82525050565b60006020820190506101fe60008301846101da565b92915050565b600061ffff82169050919050565b61021b81610204565b82525050565b60006020820190506102366000830184610212565b92915050565b60008160000b9050919050565b6102528161023c565b82525050565b600060208201905061026d6000830184610249565b9291505056fea2646970667358221220b4f1fea1e977baffdc58b5e574f47d63f466040f5a05cc73ddf80ec3d1b29bb564736f6c634300080f0033",
					"opcodes": "PUSH1 0x80 PUSH1 0x40 MSTORE PUSH32 0xFFFFFFFFFFFFFFFFFFFFFFFFFFFFFFFFFFFFFFFFFFFFFFFFFFFFFFFFFFFFFFFD PUSH1 0x0 DUP1 PUSH2 0x100 EXP DUP2 SLOAD DUP2 PUSH1 0xFF MUL NOT AND SWAP1 DUP4 PUSH1 0x0 SIGNEXTEND PUSH1 0xFF AND MUL OR SWAP1 SSTORE POP PUSH1 0x0 DUP1 SLOAD SWAP1 PUSH2 0x100 EXP SWAP1 DIV PUSH1 0x0 SIGNEXTEND PUSH1 0x0 PUSH1 0x1 PUSH2 0x100 EXP DUP2 SLOAD DUP2 PUSH1 0xFF MUL NOT AND SWAP1 DUP4 PUSH1 0xFF AND MUL OR SWAP1 SSTORE POP PUSH4 0x12345678 PUSH1 0x0 PUSH1 0x2 PUSH2 0x100 EXP DUP2 SLOAD DUP2 PUSH4 0xFFFFFFFF MUL NOT AND SWAP1 DUP4 PUSH4 0xFFFFFFFF AND MUL OR SWAP1 SSTORE POP PUSH1 0x0 PUSH1 0x2 SWAP1 SLOAD SWAP1 PUSH2 0x100 EXP SWAP1 DIV PUSH4 0xFFFFFFFF AND PUSH1 0x0 PUSH1 0x6 PUSH2 0x100 EXP DUP2 SLOAD DUP2 PUSH2 0xFFFF MUL NOT AND SWAP1 DUP4 PUSH2 0xFFFF AND MUL OR SWAP1 SSTORE POP PUSH2 0x1234 PUSH1 0x0 PUSH1 0x8 PUSH2 0x100 EXP DUP2 SLOAD DUP2 PUSH2 0xFFFF MUL NOT AND SWAP1 DUP4 PUSH2 0xFFFF AND MUL OR SWAP1 SSTORE POP PUSH1 0x0 PUSH1 0x8 SWAP1 SLOAD SWAP1 PUSH2 0x100 EXP SWAP1 DIV PUSH2 0xFFFF AND PUSH2 0xFFFF AND PUSH1 0x0 PUSH1 0xA PUSH2 0x100 EXP DUP2 SLOAD DUP2 PUSH4 0xFFFFFFFF MUL NOT AND SWAP1 DUP4 PUSH4 0xFFFFFFFF AND MUL OR SWAP1 SSTORE POP CALLVALUE DUP1 ISZERO PUSH2 0x11D JUMPI PUSH1 0x0 DUP1 REVERT JUMPDEST POP PUSH2 0x2A9 DUP1 PUSH2 0x12D PUSH1 0x0 CODECOPY PUSH1 0x0 RETURN INVALID PUSH1 0x80 PUSH1 0x40 MSTORE CALLVALUE DUP1 ISZERO PUSH2 0x10 JUMPI PUSH1 0x0 DUP1 REVERT JUMPDEST POP PUSH1 0x4 CALLDATASIZE LT PUSH2 0x62 JUMPI PUSH1 0x0 CALLDATALOAD PUSH1 0xE0 SHR DUP1 PUSH4 0xC55699C EQ PUSH2 0x67 JUMPI DUP1 PUSH4 0xDBE671F EQ PUSH2 0x85 JUMPI DUP1 PUSH4 0x119552A1 EQ PUSH2 0xA3 JUMPI DUP1 PUSH4 0x4DF7E3D0 EQ PUSH2 0xC1 JUMPI DUP1 PUSH4 0xA56DFE4A EQ PUSH2 0xDF JUMPI DUP1 PUSH4 0xEE495002 EQ PUSH2 0xFD JUMPI JUMPDEST PUSH1 0x0 DUP1 REVERT JUMPDEST PUSH2 0x6F PUSH2 0x11B JUMP JUMPDEST PUSH1 0x40 MLOAD PUSH2 0x7C SWAP2 SWAP1 PUSH2 0x1AF JUMP JUMPDEST PUSH1 0x40 MLOAD DUP1 SWAP2 SUB SWAP1 RETURN JUMPDEST PUSH2 0x8D PUSH2 0x12E JUMP JUMPDEST PUSH1 0x40 MLOAD PUSH2 0x9A SWAP2 SWAP1 PUSH2 0x1E9 JUMP JUMPDEST PUSH1 0x40 MLOAD DUP1 SWAP2 SUB SWAP1 RETURN JUMPDEST PUSH2 0xAB PUSH2 0x144 JUMP JUMPDEST PUSH1 0x40 MLOAD PUSH2 0xB8 SWAP2 SWAP1 PUSH2 0x221 JUMP JUMPDEST PUSH1 0x40 MLOAD DUP1 SWAP2 SUB SWAP1 RETURN JUMPDEST PUSH2 0xC9 PUSH2 0x158 JUMP JUMPDEST PUSH1 0x40 MLOAD PUSH2 0xD6 SWAP2 SWAP1 PUSH2 0x221 JUMP JUMPDEST PUSH1 0x40 MLOAD DUP1 SWAP2 SUB SWAP1 RETURN JUMPDEST PUSH2 0xE7 PUSH2 0x16C JUMP JUMPDEST PUSH1 0x40 MLOAD PUSH2 0xF4 SWAP2 SWAP1 PUSH2 0x258 JUMP JUMPDEST PUSH1 0x40 MLOAD DUP1 SWAP2 SUB SWAP1 RETURN JUMPDEST PUSH2 0x105 PUSH2 0x17D JUMP JUMPDEST PUSH1 0x40 MLOAD PUSH2 0x112 SWAP2 SWAP1 PUSH2 0x1E9 JUMP JUMPDEST PUSH1 0x40 MLOAD DUP1 SWAP2 SUB SWAP1 RETURN JUMPDEST PUSH1 0x0 PUSH1 0x1 SWAP1 SLOAD SWAP1 PUSH2 0x100 EXP SWAP1 DIV PUSH1 0xFF AND DUP2 JUMP JUMPDEST PUSH1 0x0 PUSH1 0x2 SWAP1 SLOAD SWAP1 PUSH2 0x100 EXP SWAP1 DIV PUSH4 0xFFFFFFFF AND DUP2 JUMP JUMPDEST PUSH1 0x0 PUSH1 0x8 SWAP1 SLOAD SWAP1 PUSH2 0x100 EXP SWAP1 DIV PUSH2 0xFFFF AND DUP2 JUMP JUMPDEST PUSH1 0x0 PUSH1 0x6 SWAP1 SLOAD SWAP1 PUSH2 0x100 EXP SWAP1 DIV PUSH2 0xFFFF AND DUP2 JUMP JUMPDEST PUSH1 0x0 DUP1 SLOAD SWAP1 PUSH2 0x100 EXP SWAP1 DIV PUSH1 0x0 SIGNEXTEND DUP2 JUMP JUMPDEST PUSH1 0x0 PUSH1 0xA SWAP1 SLOAD SWAP1 PUSH2 0x100 EXP SWAP1 DIV PUSH4 0xFFFFFFFF AND DUP2 JUMP JUMPDEST PUSH1 0x0 PUSH1 0xFF DUP3 AND SWAP1 POP SWAP2 SWAP1 POP JUMP JUMPDEST PUSH2 0x1A9 DUP2 PUSH2 0x193 JUMP JUMPDEST DUP3 MSTORE POP POP JUMP JUMPDEST PUSH1 0x0 PUSH1 0x20 DUP3 ADD SWAP1 POP PUSH2 0x1C4 PUSH1 0x0 DUP4 ADD DUP5 PUSH2 0x1A0 JUMP JUMPDEST SWAP3 SWAP2 POP POP JUMP JUMPDEST PUSH1 0x0 PUSH4 0xFFFFFFFF DUP3 AND SWAP1 POP SWAP2 SWAP1 POP JUMP JUMPDEST PUSH2 0x1E3 DUP2 PUSH2 0x1CA JUMP JUMPDEST DUP3 MSTORE POP POP JUMP JUMPDEST PUSH1 0x0 PUSH1 0x20 DUP3 ADD SWAP1 POP PUSH2 0x1FE PUSH1 0x0 DUP4 ADD DUP5 PUSH2 0x1DA JUMP JUMPDEST SWAP3 SWAP2 POP POP JUMP JUMPDEST PUSH1 0x0 PUSH2 0xFFFF DUP3 AND SWAP1 POP SWAP2 SWAP1 POP JUMP JUMPDEST PUSH2 0x21B DUP2 PUSH2 0x204 JUMP JUMPDEST DUP3 MSTORE POP POP JUMP JUMPDEST PUSH1 0x0 PUSH1 0x20 DUP3 ADD SWAP1 POP PUSH2 0x236 PUSH1 0x0 DUP4 ADD DUP5 PUSH2 0x212 JUMP JUMPDEST SWAP3 SWAP2 POP POP JUMP JUMPDEST PUSH1 0x0 DUP2 PUSH1 0x0 SIGNEXTEND SWAP1 POP SWAP2 SWAP1 POP JUMP JUMPDEST PUSH2 0x252 DUP2 PUSH2 0x23C JUMP JUMPDEST DUP3 MSTORE POP POP JUMP JUMPDEST PUSH1 0x0 PUSH1 0x20 DUP3 ADD SWAP1 POP PUSH2 0x26D PUSH1 0x0 DUP4 ADD DUP5 PUSH2 0x249 JUMP JUMPDEST SWAP3 SWAP2 POP POP JUMP INVALID LOG2 PUSH5 0x6970667358 0x22 SLT KECCAK256 0xB4 CALL INVALID LOG1 0xE9 PUSH24 0xBAFFDC58B5E574F47D63F466040F5A05CC73DDF80EC3D1B2 SWAP12 0xB5 PUSH5 0x736F6C6343 STOP ADDMOD 0xF STOP CALLER "
				},
				"gasEstimates": {
					"creation": {
						"codeDepositCost": "136200",
						"executionCost": "152556",
						"totalCost": "288756"
					},
					"external": {
						"a()": "2521",
						"a1()": "2543",
						"b()": "2565",
						"b1()": "2609",
						"x()": "2499",
						"y()": "2538"
					}
				},
				"methodIdentifiers": {
					"a()": "0dbe671f",
					"a1()": "119552a1",
					"b()": "4df7e3d0",
					"b1()": "ee495002",
					"x()": "0c55699c",
					"y()": "a56dfe4a"
				}
			},
			"storageLayout": {
				"storage": [
					{
						"astId": 5,
						"contract": "chapter02/4conversion.sol:test2",
						"label": "y",
						"offset": 0,
						"slot": "0",
						"type": "t_int8"
					},
					{
						"astId": 11,
						"contract": "chapter02/4conversion.sol:test2",
						"label": "x",
						"offset": 1,
						"slot": "0",
						"type": "t_uint8"
					},
					{
						"astId": 14,
						"contract": "chapter02/4conversion.sol:test2",
						"label": "a",
						"offset": 2,
						"slot": "0",
						"type": "t_uint32"
					},
					{
						"astId": 20,
						"contract": "chapter02/4conversion.sol:test2",
						"label": "b",
						"offset": 6,
						"slot": "0",
						"type": "t_uint16"
					},
					{
						"astId": 23,
						"contract": "chapter02/4conversion.sol:test2",
						"label": "a1",
						"offset": 8,
						"slot": "0",
						"type": "t_uint16"
					},
					{
						"astId": 29,
						"contract": "chapter02/4conversion.sol:test2",
						"label": "b1",
						"offset": 10,
						"slot": "0",
						"type": "t_uint32"
					}
				],
				"types": {
					"t_int8": {
						"encoding": "inplace",
						"label": "int8",
						"numberOfBytes": "1"
					},
					"t_uint16": {
						"encoding": "inplace",
						"label": "uint16",
						"numberOfBytes": "2"
					},
					"t_uint32": {
						"encoding": "inplace",
						"label": "uint32",
						"numberOfBytes": "4"
					},
					"t_uint8": {
						"encoding": "inplace",
						"label": "uint8",
						"numberOfBytes": "1"
					}
				}
			},
			"userdoc": {
				"kind": "user",
				"methods": {},
				"version": 1
			}
		}
	}
}