{
	"chapter02/9type3.sol": {
		"type12": {
			"abi": [
				{
					"inputs": [],
					"name": "addr",
					"outputs": [
						{
							"internalType": "address payable",
							"name": "",
							"type": "address"
						}
					],
					"stateMutability": "view",
					"type": "function"
				},
				{
					"inputs": [],
					"name": "addrNotPayable",
					"outputs": [
						{
							"internalType": "address",
							"name": "",
							"type": "address"
						}
					],
					"stateMutability": "view",
					"type": "function"
				},
				{
					"inputs": [],
					"name": "contractAddr",
					"outputs": [
						{
							"internalType": "address",
							"name": "",
							"type": "address"
						}
					],
					"stateMutability": "view",
					"type": "function"
				},
				{
					"inputs": [
						{
							"internalType": "address",
							"name": "_account",
							"type": "address"
						}
					],
					"name": "getBalance",
					"outputs": [
						{
							"internalType": "uint256",
							"name": "",
							"type": "uint256"
						}
					],
					"stateMutability": "view",
					"type": "function"
				},
				{
					"inputs": [
						{
							"internalType": "address payable",
							"name": "_to",
							"type": "address"
						},
						{
							"internalType": "uint256",
							"name": "_amount",
							"type": "uint256"
						}
					],
					"name": "mySend",
					"outputs": [],
					"stateMutability": "nonpayable",
					"type": "function"
				},
				{
					"inputs": [
						{
							"internalType": "address payable",
							"name": "_to",
							"type": "address"
						},
						{
							"internalType": "uint256",
							"name": "_amount",
							"type": "uint256"
						}
					],
					"name": "myTransfer",
					"outputs": [],
					"stateMutability": "nonpayable",
					"type": "function"
				},
				{
					"stateMutability": "payable",
					"type": "receive"
				}
			],
			"devdoc": {
				"kind": "dev",
				"methods": {},
				"version": 1
			},
			"evm": {
				"assembly": "    /* \"chapter02/9type3.sol\":1465:2395  contract type12{... */\n  mstore(0x40, 0x80)\n    /* \"chapter02/9type3.sol\":1552:1594  0x5B38Da6a701c568545dCfcB03FcB875f56beddC4 */\n  0x5b38da6a701c568545dcfcb03fcb875f56beddc4\n    /* \"chapter02/9type3.sol\":1520:1594  address public addrNotPayable = 0x5B38Da6a701c568545dCfcB03FcB875f56beddC4 */\n  0x00\n  dup1\n  0x0100\n  exp\n  dup2\n  sload\n  dup2\n  0xffffffffffffffffffffffffffffffffffffffff\n  mul\n  not\n  and\n  swap1\n  dup4\n  0xffffffffffffffffffffffffffffffffffffffff\n  and\n  mul\n  or\n  swap1\n  sstore\n  pop\n    /* \"chapter02/9type3.sol\":1637:1679  0x5B38Da6a701c568545dCfcB03FcB875f56beddC4 */\n  0x5b38da6a701c568545dcfcb03fcb875f56beddc4\n    /* \"chapter02/9type3.sol\":1600:1680  address payable public addr =payable(0x5B38Da6a701c568545dCfcB03FcB875f56beddC4) */\n  0x01\n  exp(0x0100, 0x00)\n  dup2\n  sload\n  dup2\n  0xffffffffffffffffffffffffffffffffffffffff\n  mul\n  not\n  and\n  swap1\n  dup4\n  0xffffffffffffffffffffffffffffffffffffffff\n  and\n  mul\n  or\n  swap1\n  sstore\n  pop\n    /* \"chapter02/9type3.sol\":1724:1728  this */\n  address\n    /* \"chapter02/9type3.sol\":1686:1729  address public contractAddr = address(this) */\n  0x02\n  exp(0x0100, 0x00)\n  dup2\n  sload\n  dup2\n  0xffffffffffffffffffffffffffffffffffffffff\n  mul\n  not\n  and\n  swap1\n  dup4\n  0xffffffffffffffffffffffffffffffffffffffff\n  and\n  mul\n  or\n  swap1\n  sstore\n  pop\n    /* \"chapter02/9type3.sol\":1465:2395  contract type12{... */\n  callvalue\n  dup1\n  iszero\n  tag_1\n  jumpi\n  0x00\n  dup1\n  revert\ntag_1:\n  pop\n  dataSize(sub_0)\n  dup1\n  dataOffset(sub_0)\n  0x00\n  codecopy\n  0x00\n  return\nstop\n\nsub_0: assembly {\n        /* \"chapter02/9type3.sol\":1465:2395  contract type12{... */\n      mstore(0x40, 0x80)\n      jumpi(tag_1, lt(calldatasize, 0x04))\n      shr(0xe0, calldataload(0x00))\n      dup1\n      0x15a5d9d8\n      eq\n      tag_3\n      jumpi\n      dup1\n      0x28ba20af\n      eq\n      tag_4\n      jumpi\n      dup1\n      0x767800de\n      eq\n      tag_5\n      jumpi\n      dup1\n      0xda41114c\n      eq\n      tag_6\n      jumpi\n      dup1\n      0xf8b2cb4f\n      eq\n      tag_7\n      jumpi\n      dup1\n      0xfa20eb7c\n      eq\n      tag_8\n      jumpi\n      jump(tag_2)\n    tag_1:\n      jumpi(tag_2, calldatasize)\n      stop\n    tag_2:\n      0x00\n      dup1\n      revert\n        /* \"chapter02/9type3.sol\":1686:1729  address public contractAddr = address(this) */\n    tag_3:\n      callvalue\n      dup1\n      iszero\n      tag_11\n      jumpi\n      0x00\n      dup1\n      revert\n    tag_11:\n      pop\n      tag_12\n      tag_13\n      jump\t// in\n    tag_12:\n      mload(0x40)\n      tag_14\n      swap2\n      swap1\n      tag_15\n      jump\t// in\n    tag_14:\n      mload(0x40)\n      dup1\n      swap2\n      sub\n      swap1\n      return\n        /* \"chapter02/9type3.sol\":2086:2393  function mySend(address payable _to,uint _amount)external {... */\n    tag_4:\n      callvalue\n      dup1\n      iszero\n      tag_16\n      jumpi\n      0x00\n      dup1\n      revert\n    tag_16:\n      pop\n      tag_17\n      0x04\n      dup1\n      calldatasize\n      sub\n      dup2\n      add\n      swap1\n      tag_18\n      swap2\n      swap1\n      tag_19\n      jump\t// in\n    tag_18:\n      tag_20\n      jump\t// in\n    tag_17:\n      stop\n        /* \"chapter02/9type3.sol\":1600:1680  address payable public addr =payable(0x5B38Da6a701c568545dCfcB03FcB875f56beddC4) */\n    tag_5:\n      callvalue\n      dup1\n      iszero\n      tag_21\n      jumpi\n      0x00\n      dup1\n      revert\n    tag_21:\n      pop\n      tag_22\n      tag_23\n      jump\t// in\n    tag_22:\n      mload(0x40)\n      tag_24\n      swap2\n      swap1\n      tag_25\n      jump\t// in\n    tag_24:\n      mload(0x40)\n      dup1\n      swap2\n      sub\n      swap1\n      return\n        /* \"chapter02/9type3.sol\":1846:2081  function myTransfer(address payable _to,uint _amount)external {... */\n    tag_6:\n      callvalue\n      dup1\n      iszero\n      tag_26\n      jumpi\n      0x00\n      dup1\n      revert\n    tag_26:\n      pop\n      tag_27\n      0x04\n      dup1\n      calldatasize\n      sub\n      dup2\n      add\n      swap1\n      tag_28\n      swap2\n      swap1\n      tag_19\n      jump\t// in\n    tag_28:\n      tag_29\n      jump\t// in\n    tag_27:\n      stop\n        /* \"chapter02/9type3.sol\":1736:1840  function getBalance(address _account)external view returns(uint){... */\n    tag_7:\n      callvalue\n      dup1\n      iszero\n      tag_30\n      jumpi\n      0x00\n      dup1\n      revert\n    tag_30:\n      pop\n      tag_31\n      0x04\n      dup1\n      calldatasize\n      sub\n      dup2\n      add\n      swap1\n      tag_32\n      swap2\n      swap1\n      tag_33\n      jump\t// in\n    tag_32:\n      tag_34\n      jump\t// in\n    tag_31:\n      mload(0x40)\n      tag_35\n      swap2\n      swap1\n      tag_36\n      jump\t// in\n    tag_35:\n      mload(0x40)\n      dup1\n      swap2\n      sub\n      swap1\n      return\n        /* \"chapter02/9type3.sol\":1520:1594  address public addrNotPayable = 0x5B38Da6a701c568545dCfcB03FcB875f56beddC4 */\n    tag_8:\n      callvalue\n      dup1\n      iszero\n      tag_37\n      jumpi\n      0x00\n      dup1\n      revert\n    tag_37:\n      pop\n      tag_38\n      tag_39\n      jump\t// in\n    tag_38:\n      mload(0x40)\n      tag_40\n      swap2\n      swap1\n      tag_15\n      jump\t// in\n    tag_40:\n      mload(0x40)\n      dup1\n      swap2\n      sub\n      swap1\n      return\n        /* \"chapter02/9type3.sol\":1686:1729  address public contractAddr = address(this) */\n    tag_13:\n      0x02\n      0x00\n      swap1\n      sload\n      swap1\n      0x0100\n      exp\n      swap1\n      div\n      0xffffffffffffffffffffffffffffffffffffffff\n      and\n      dup2\n      jump\t// out\n        /* \"chapter02/9type3.sol\":2086:2393  function mySend(address payable _to,uint _amount)external {... */\n    tag_20:\n        /* \"chapter02/9type3.sol\":2285:2288  _to */\n      dup2\n        /* \"chapter02/9type3.sol\":2285:2293  _to.send */\n      0xffffffffffffffffffffffffffffffffffffffff\n      and\n        /* \"chapter02/9type3.sol\":2285:2302  _to.send(_amount) */\n      0x08fc\n        /* \"chapter02/9type3.sol\":2294:2301  _amount */\n      dup3\n        /* \"chapter02/9type3.sol\":2285:2302  _to.send(_amount) */\n      swap1\n      dup2\n      iszero\n      mul\n      swap1\n      mload(0x40)\n      0x00\n      mload(0x40)\n      dup1\n      dup4\n      sub\n      dup2\n      dup6\n      dup9\n      dup9\n      call\n      swap4\n      pop\n      pop\n      pop\n      pop\n      pop\n        /* \"chapter02/9type3.sol\":2086:2393  function mySend(address payable _to,uint _amount)external {... */\n      pop\n      pop\n      jump\t// out\n        /* \"chapter02/9type3.sol\":1600:1680  address payable public addr =payable(0x5B38Da6a701c568545dCfcB03FcB875f56beddC4) */\n    tag_23:\n      0x01\n      0x00\n      swap1\n      sload\n      swap1\n      0x0100\n      exp\n      swap1\n      div\n      0xffffffffffffffffffffffffffffffffffffffff\n      and\n      dup2\n      jump\t// out\n        /* \"chapter02/9type3.sol\":1846:2081  function myTransfer(address payable _to,uint _amount)external {... */\n    tag_29:\n        /* \"chapter02/9type3.sol\":2053:2056  _to */\n      dup2\n        /* \"chapter02/9type3.sol\":2053:2065  _to.transfer */\n      0xffffffffffffffffffffffffffffffffffffffff\n      and\n        /* \"chapter02/9type3.sol\":2053:2074  _to.transfer(_amount) */\n      0x08fc\n        /* \"chapter02/9type3.sol\":2066:2073  _amount */\n      dup3\n        /* \"chapter02/9type3.sol\":2053:2074  _to.transfer(_amount) */\n      swap1\n      dup2\n      iszero\n      mul\n      swap1\n      mload(0x40)\n      0x00\n      mload(0x40)\n      dup1\n      dup4\n      sub\n      dup2\n      dup6\n      dup9\n      dup9\n      call\n      swap4\n      pop\n      pop\n      pop\n      pop\n      iszero\n      dup1\n      iszero\n      tag_45\n      jumpi\n      returndatasize\n      0x00\n      dup1\n      returndatacopy\n      revert(0x00, returndatasize)\n    tag_45:\n      pop\n        /* \"chapter02/9type3.sol\":1846:2081  function myTransfer(address payable _to,uint _amount)external {... */\n      pop\n      pop\n      jump\t// out\n        /* \"chapter02/9type3.sol\":1736:1840  function getBalance(address _account)external view returns(uint){... */\n    tag_34:\n        /* \"chapter02/9type3.sol\":1795:1799  uint */\n      0x00\n        /* \"chapter02/9type3.sol\":1817:1825  _account */\n      dup2\n        /* \"chapter02/9type3.sol\":1817:1833  _account.balance */\n      0xffffffffffffffffffffffffffffffffffffffff\n      and\n      balance\n        /* \"chapter02/9type3.sol\":1810:1833  return _account.balance */\n      swap1\n      pop\n        /* \"chapter02/9type3.sol\":1736:1840  function getBalance(address _account)external view returns(uint){... */\n      swap2\n      swap1\n      pop\n      jump\t// out\n        /* \"chapter02/9type3.sol\":1520:1594  address public addrNotPayable = 0x5B38Da6a701c568545dCfcB03FcB875f56beddC4 */\n    tag_39:\n      0x00\n      dup1\n      sload\n      swap1\n      0x0100\n      exp\n      swap1\n      div\n      0xffffffffffffffffffffffffffffffffffffffff\n      and\n      dup2\n      jump\t// out\n        /* \"#utility.yul\":7:146   */\n    tag_48:\n      0x00\n        /* \"#utility.yul\":91:97   */\n      dup2\n        /* \"#utility.yul\":78:98   */\n      calldataload\n        /* \"#utility.yul\":69:98   */\n      swap1\n      pop\n        /* \"#utility.yul\":107:140   */\n      tag_50\n        /* \"#utility.yul\":134:139   */\n      dup2\n        /* \"#utility.yul\":107:140   */\n      tag_51\n      jump\t// in\n    tag_50:\n        /* \"#utility.yul\":59:146   */\n      swap3\n      swap2\n      pop\n      pop\n      jump\t// out\n        /* \"#utility.yul\":152:307   */\n    tag_52:\n      0x00\n        /* \"#utility.yul\":244:250   */\n      dup2\n        /* \"#utility.yul\":231:251   */\n      calldataload\n        /* \"#utility.yul\":222:251   */\n      swap1\n      pop\n        /* \"#utility.yul\":260:301   */\n      tag_54\n        /* \"#utility.yul\":295:300   */\n      dup2\n        /* \"#utility.yul\":260:301   */\n      tag_55\n      jump\t// in\n    tag_54:\n        /* \"#utility.yul\":212:307   */\n      swap3\n      swap2\n      pop\n      pop\n      jump\t// out\n        /* \"#utility.yul\":313:452   */\n    tag_56:\n      0x00\n        /* \"#utility.yul\":397:403   */\n      dup2\n        /* \"#utility.yul\":384:404   */\n      calldataload\n        /* \"#utility.yul\":375:404   */\n      swap1\n      pop\n        /* \"#utility.yul\":413:446   */\n      tag_58\n        /* \"#utility.yul\":440:445   */\n      dup2\n        /* \"#utility.yul\":413:446   */\n      tag_59\n      jump\t// in\n    tag_58:\n        /* \"#utility.yul\":365:452   */\n      swap3\n      swap2\n      pop\n      pop\n      jump\t// out\n        /* \"#utility.yul\":458:720   */\n    tag_33:\n      0x00\n        /* \"#utility.yul\":566:568   */\n      0x20\n        /* \"#utility.yul\":554:563   */\n      dup3\n        /* \"#utility.yul\":545:552   */\n      dup5\n        /* \"#utility.yul\":541:564   */\n      sub\n        /* \"#utility.yul\":537:569   */\n      slt\n        /* \"#utility.yul\":534:536   */\n      iszero\n      tag_61\n      jumpi\n        /* \"#utility.yul\":582:583   */\n      0x00\n        /* \"#utility.yul\":579:580   */\n      dup1\n        /* \"#utility.yul\":572:584   */\n      revert\n        /* \"#utility.yul\":534:536   */\n    tag_61:\n        /* \"#utility.yul\":625:626   */\n      0x00\n        /* \"#utility.yul\":650:703   */\n      tag_62\n        /* \"#utility.yul\":695:702   */\n      dup5\n        /* \"#utility.yul\":686:692   */\n      dup3\n        /* \"#utility.yul\":675:684   */\n      dup6\n        /* \"#utility.yul\":671:693   */\n      add\n        /* \"#utility.yul\":650:703   */\n      tag_48\n      jump\t// in\n    tag_62:\n        /* \"#utility.yul\":640:703   */\n      swap2\n      pop\n        /* \"#utility.yul\":596:713   */\n      pop\n        /* \"#utility.yul\":524:720   */\n      swap3\n      swap2\n      pop\n      pop\n      jump\t// out\n        /* \"#utility.yul\":726:1149   */\n    tag_19:\n      0x00\n      dup1\n        /* \"#utility.yul\":859:861   */\n      0x40\n        /* \"#utility.yul\":847:856   */\n      dup4\n        /* \"#utility.yul\":838:845   */\n      dup6\n        /* \"#utility.yul\":834:857   */\n      sub\n        /* \"#utility.yul\":830:862   */\n      slt\n        /* \"#utility.yul\":827:829   */\n      iszero\n      tag_64\n      jumpi\n        /* \"#utility.yul\":875:876   */\n      0x00\n        /* \"#utility.yul\":872:873   */\n      dup1\n        /* \"#utility.yul\":865:877   */\n      revert\n        /* \"#utility.yul\":827:829   */\n    tag_64:\n        /* \"#utility.yul\":918:919   */\n      0x00\n        /* \"#utility.yul\":943:1004   */\n      tag_65\n        /* \"#utility.yul\":996:1003   */\n      dup6\n        /* \"#utility.yul\":987:993   */\n      dup3\n        /* \"#utility.yul\":976:985   */\n      dup7\n        /* \"#utility.yul\":972:994   */\n      add\n        /* \"#utility.yul\":943:1004   */\n      tag_52\n      jump\t// in\n    tag_65:\n        /* \"#utility.yul\":933:1004   */\n      swap3\n      pop\n        /* \"#utility.yul\":889:1014   */\n      pop\n        /* \"#utility.yul\":1053:1055   */\n      0x20\n        /* \"#utility.yul\":1079:1132   */\n      tag_66\n        /* \"#utility.yul\":1124:1131   */\n      dup6\n        /* \"#utility.yul\":1115:1121   */\n      dup3\n        /* \"#utility.yul\":1104:1113   */\n      dup7\n        /* \"#utility.yul\":1100:1122   */\n      add\n        /* \"#utility.yul\":1079:1132   */\n      tag_56\n      jump\t// in\n    tag_66:\n        /* \"#utility.yul\":1069:1132   */\n      swap2\n      pop\n        /* \"#utility.yul\":1024:1142   */\n      pop\n        /* \"#utility.yul\":817:1149   */\n      swap3\n      pop\n      swap3\n      swap1\n      pop\n      jump\t// out\n        /* \"#utility.yul\":1155:1297   */\n    tag_67:\n        /* \"#utility.yul\":1258:1290   */\n      tag_69\n        /* \"#utility.yul\":1284:1289   */\n      dup2\n        /* \"#utility.yul\":1258:1290   */\n      tag_70\n      jump\t// in\n    tag_69:\n        /* \"#utility.yul\":1253:1256   */\n      dup3\n        /* \"#utility.yul\":1246:1291   */\n      mstore\n        /* \"#utility.yul\":1236:1297   */\n      pop\n      pop\n      jump\t// out\n        /* \"#utility.yul\":1303:1421   */\n    tag_71:\n        /* \"#utility.yul\":1390:1414   */\n      tag_73\n        /* \"#utility.yul\":1408:1413   */\n      dup2\n        /* \"#utility.yul\":1390:1414   */\n      tag_74\n      jump\t// in\n    tag_73:\n        /* \"#utility.yul\":1385:1388   */\n      dup3\n        /* \"#utility.yul\":1378:1415   */\n      mstore\n        /* \"#utility.yul\":1368:1421   */\n      pop\n      pop\n      jump\t// out\n        /* \"#utility.yul\":1427:1545   */\n    tag_75:\n        /* \"#utility.yul\":1514:1538   */\n      tag_77\n        /* \"#utility.yul\":1532:1537   */\n      dup2\n        /* \"#utility.yul\":1514:1538   */\n      tag_78\n      jump\t// in\n    tag_77:\n        /* \"#utility.yul\":1509:1512   */\n      dup3\n        /* \"#utility.yul\":1502:1539   */\n      mstore\n        /* \"#utility.yul\":1492:1545   */\n      pop\n      pop\n      jump\t// out\n        /* \"#utility.yul\":1551:1773   */\n    tag_15:\n      0x00\n        /* \"#utility.yul\":1682:1684   */\n      0x20\n        /* \"#utility.yul\":1671:1680   */\n      dup3\n        /* \"#utility.yul\":1667:1685   */\n      add\n        /* \"#utility.yul\":1659:1685   */\n      swap1\n      pop\n        /* \"#utility.yul\":1695:1766   */\n      tag_80\n        /* \"#utility.yul\":1763:1764   */\n      0x00\n        /* \"#utility.yul\":1752:1761   */\n      dup4\n        /* \"#utility.yul\":1748:1765   */\n      add\n        /* \"#utility.yul\":1739:1745   */\n      dup5\n        /* \"#utility.yul\":1695:1766   */\n      tag_71\n      jump\t// in\n    tag_80:\n        /* \"#utility.yul\":1649:1773   */\n      swap3\n      swap2\n      pop\n      pop\n      jump\t// out\n        /* \"#utility.yul\":1779:2033   */\n    tag_25:\n      0x00\n        /* \"#utility.yul\":1926:1928   */\n      0x20\n        /* \"#utility.yul\":1915:1924   */\n      dup3\n        /* \"#utility.yul\":1911:1929   */\n      add\n        /* \"#utility.yul\":1903:1929   */\n      swap1\n      pop\n        /* \"#utility.yul\":1939:2026   */\n      tag_82\n        /* \"#utility.yul\":2023:2024   */\n      0x00\n        /* \"#utility.yul\":2012:2021   */\n      dup4\n        /* \"#utility.yul\":2008:2025   */\n      add\n        /* \"#utility.yul\":1999:2005   */\n      dup5\n        /* \"#utility.yul\":1939:2026   */\n      tag_67\n      jump\t// in\n    tag_82:\n        /* \"#utility.yul\":1893:2033   */\n      swap3\n      swap2\n      pop\n      pop\n      jump\t// out\n        /* \"#utility.yul\":2039:2261   */\n    tag_36:\n      0x00\n        /* \"#utility.yul\":2170:2172   */\n      0x20\n        /* \"#utility.yul\":2159:2168   */\n      dup3\n        /* \"#utility.yul\":2155:2173   */\n      add\n        /* \"#utility.yul\":2147:2173   */\n      swap1\n      pop\n        /* \"#utility.yul\":2183:2254   */\n      tag_84\n        /* \"#utility.yul\":2251:2252   */\n      0x00\n        /* \"#utility.yul\":2240:2249   */\n      dup4\n        /* \"#utility.yul\":2236:2253   */\n      add\n        /* \"#utility.yul\":2227:2233   */\n      dup5\n        /* \"#utility.yul\":2183:2254   */\n      tag_75\n      jump\t// in\n    tag_84:\n        /* \"#utility.yul\":2137:2261   */\n      swap3\n      swap2\n      pop\n      pop\n      jump\t// out\n        /* \"#utility.yul\":2267:2363   */\n    tag_74:\n      0x00\n        /* \"#utility.yul\":2333:2357   */\n      tag_86\n        /* \"#utility.yul\":2351:2356   */\n      dup3\n        /* \"#utility.yul\":2333:2357   */\n      tag_87\n      jump\t// in\n    tag_86:\n        /* \"#utility.yul\":2322:2357   */\n      swap1\n      pop\n        /* \"#utility.yul\":2312:2363   */\n      swap2\n      swap1\n      pop\n      jump\t// out\n        /* \"#utility.yul\":2369:2473   */\n    tag_70:\n      0x00\n        /* \"#utility.yul\":2443:2467   */\n      tag_89\n        /* \"#utility.yul\":2461:2466   */\n      dup3\n        /* \"#utility.yul\":2443:2467   */\n      tag_87\n      jump\t// in\n    tag_89:\n        /* \"#utility.yul\":2432:2467   */\n      swap1\n      pop\n        /* \"#utility.yul\":2422:2473   */\n      swap2\n      swap1\n      pop\n      jump\t// out\n        /* \"#utility.yul\":2479:2605   */\n    tag_87:\n      0x00\n        /* \"#utility.yul\":2556:2598   */\n      0xffffffffffffffffffffffffffffffffffffffff\n        /* \"#utility.yul\":2549:2554   */\n      dup3\n        /* \"#utility.yul\":2545:2599   */\n      and\n        /* \"#utility.yul\":2534:2599   */\n      swap1\n      pop\n        /* \"#utility.yul\":2524:2605   */\n      swap2\n      swap1\n      pop\n      jump\t// out\n        /* \"#utility.yul\":2611:2688   */\n    tag_78:\n      0x00\n        /* \"#utility.yul\":2677:2682   */\n      dup2\n        /* \"#utility.yul\":2666:2682   */\n      swap1\n      pop\n        /* \"#utility.yul\":2656:2688   */\n      swap2\n      swap1\n      pop\n      jump\t// out\n        /* \"#utility.yul\":2694:2816   */\n    tag_51:\n        /* \"#utility.yul\":2767:2791   */\n      tag_93\n        /* \"#utility.yul\":2785:2790   */\n      dup2\n        /* \"#utility.yul\":2767:2791   */\n      tag_74\n      jump\t// in\n    tag_93:\n        /* \"#utility.yul\":2760:2765   */\n      dup2\n        /* \"#utility.yul\":2757:2792   */\n      eq\n        /* \"#utility.yul\":2747:2749   */\n      tag_94\n      jumpi\n        /* \"#utility.yul\":2806:2807   */\n      0x00\n        /* \"#utility.yul\":2803:2804   */\n      dup1\n        /* \"#utility.yul\":2796:2808   */\n      revert\n        /* \"#utility.yul\":2747:2749   */\n    tag_94:\n        /* \"#utility.yul\":2737:2816   */\n      pop\n      jump\t// out\n        /* \"#utility.yul\":2822:2960   */\n    tag_55:\n        /* \"#utility.yul\":2903:2935   */\n      tag_96\n        /* \"#utility.yul\":2929:2934   */\n      dup2\n        /* \"#utility.yul\":2903:2935   */\n      tag_70\n      jump\t// in\n    tag_96:\n        /* \"#utility.yul\":2896:2901   */\n      dup2\n        /* \"#utility.yul\":2893:2936   */\n      eq\n        /* \"#utility.yul\":2883:2885   */\n      tag_97\n      jumpi\n        /* \"#utility.yul\":2950:2951   */\n      0x00\n        /* \"#utility.yul\":2947:2948   */\n      dup1\n        /* \"#utility.yul\":2940:2952   */\n      revert\n        /* \"#utility.yul\":2883:2885   */\n    tag_97:\n        /* \"#utility.yul\":2873:2960   */\n      pop\n      jump\t// out\n        /* \"#utility.yul\":2966:3088   */\n    tag_59:\n        /* \"#utility.yul\":3039:3063   */\n      tag_99\n        /* \"#utility.yul\":3057:3062   */\n      dup2\n        /* \"#utility.yul\":3039:3063   */\n      tag_78\n      jump\t// in\n    tag_99:\n        /* \"#utility.yul\":3032:3037   */\n      dup2\n        /* \"#utility.yul\":3029:3064   */\n      eq\n        /* \"#utility.yul\":3019:3021   */\n      tag_100\n      jumpi\n        /* \"#utility.yul\":3078:3079   */\n      0x00\n        /* \"#utility.yul\":3075:3076   */\n      dup1\n        /* \"#utility.yul\":3068:3080   */\n      revert\n        /* \"#utility.yul\":3019:3021   */\n    tag_100:\n        /* \"#utility.yul\":3009:3088   */\n      pop\n      jump\t// out\n\n    auxdata: 0xa26469706673582212201b3c0a1f42c8441280d6fe1be8ebcc3aeeb1fa2e5d4029825c98ede9ea1df59664736f6c63430008000033\n}\n",
				"bytecode": {
					"linkReferences": {},
					"object": "6080604052735b38da6a701c568545dcfcb03fcb875f56beddc46000806101000a81548173ffffffffffffffffffffffffffffffffffffffff021916908373ffffffffffffffffffffffffffffffffffffffff160217905550735b38da6a701c568545dcfcb03fcb875f56beddc4600160006101000a81548173ffffffffffffffffffffffffffffffffffffffff021916908373ffffffffffffffffffffffffffffffffffffffff16021790555030600260006101000a81548173ffffffffffffffffffffffffffffffffffffffff021916908373ffffffffffffffffffffffffffffffffffffffff1602179055503480156100fa57600080fd5b506104768061010a6000396000f3fe6080604052600436106100595760003560e01c806315a5d9d81461006557806328ba20af14610090578063767800de146100b9578063da41114c146100e4578063f8b2cb4f1461010d578063fa20eb7c1461014a57610060565b3661006057005b600080fd5b34801561007157600080fd5b5061007a610175565b604051610087919061035c565b60405180910390f35b34801561009c57600080fd5b506100b760048036038101906100b291906102f3565b61019b565b005b3480156100c557600080fd5b506100ce6101d5565b6040516100db9190610377565b60405180910390f35b3480156100f057600080fd5b5061010b600480360381019061010691906102f3565b6101fb565b005b34801561011957600080fd5b50610134600480360381019061012f91906102ca565b610246565b6040516101419190610392565b60405180910390f35b34801561015657600080fd5b5061015f610267565b60405161016c919061035c565b60405180910390f35b600260009054906101000a900473ffffffffffffffffffffffffffffffffffffffff1681565b8173ffffffffffffffffffffffffffffffffffffffff166108fc829081150290604051600060405180830381858888f19350505050505050565b600160009054906101000a900473ffffffffffffffffffffffffffffffffffffffff1681565b8173ffffffffffffffffffffffffffffffffffffffff166108fc829081150290604051600060405180830381858888f19350505050158015610241573d6000803e3d6000fd5b505050565b60008173ffffffffffffffffffffffffffffffffffffffff16319050919050565b60008054906101000a900473ffffffffffffffffffffffffffffffffffffffff1681565b60008135905061029a816103fb565b92915050565b6000813590506102af81610412565b92915050565b6000813590506102c481610429565b92915050565b6000602082840312156102dc57600080fd5b60006102ea8482850161028b565b91505092915050565b6000806040838503121561030657600080fd5b6000610314858286016102a0565b9250506020610325858286016102b5565b9150509250929050565b610338816103bf565b82525050565b610347816103ad565b82525050565b610356816103f1565b82525050565b6000602082019050610371600083018461033e565b92915050565b600060208201905061038c600083018461032f565b92915050565b60006020820190506103a7600083018461034d565b92915050565b60006103b8826103d1565b9050919050565b60006103ca826103d1565b9050919050565b600073ffffffffffffffffffffffffffffffffffffffff82169050919050565b6000819050919050565b610404816103ad565b811461040f57600080fd5b50565b61041b816103bf565b811461042657600080fd5b50565b610432816103f1565b811461043d57600080fd5b5056fea26469706673582212201b3c0a1f42c8441280d6fe1be8ebcc3aeeb1fa2e5d4029825c98ede9ea1df59664736f6c63430008000033",
					"opcodes": "PUSH1 0x80 PUSH1 0x40 MSTORE PUSH20 0x5B38DA6A701C568545DCFCB03FCB875F56BEDDC4 PUSH1 0x0 DUP1 PUSH2 0x100 EXP DUP2 SLOAD DUP2 PUSH20 0xFFFFFFFFFFFFFFFFFFFFFFFFFFFFFFFFFFFFFFFF MUL NOT AND SWAP1 DUP4 PUSH20 0xFFFFFFFFFFFFFFFFFFFFFFFFFFFFFFFFFFFFFFFF AND MUL OR SWAP1 SSTORE POP PUSH20 0x5B38DA6A701C568545DCFCB03FCB875F56BEDDC4 PUSH1 0x1 PUSH1 0x0 PUSH2 0x100 EXP DUP2 SLOAD DUP2 PUSH20 0xFFFFFFFFFFFFFFFFFFFFFFFFFFFFFFFFFFFFFFFF MUL NOT AND SWAP1 DUP4 PUSH20 0xFFFFFFFFFFFFFFFFFFFFFFFFFFFFFFFFFFFFFFFF AND MUL OR SWAP1 SSTORE POP ADDRESS PUSH1 0x2 PUSH1 0x0 PUSH2 0x100 EXP DUP2 SLOAD DUP2 PUSH20 0xFFFFFFFFFFFFFFFFFFFFFFFFFFFFFFFFFFFFFFFF MUL NOT AND SWAP1 DUP4 PUSH20 0xFFFFFFFFFFFFFFFFFFFFFFFFFFFFFFFFFFFFFFFF AND MUL OR SWAP1 SSTORE POP CALLVALUE DUP1 ISZERO PUSH2 0xFA JUMPI PUSH1 0x0 DUP1 REVERT JUMPDEST POP PUSH2 0x476 DUP1 PUSH2 0x10A PUSH1 0x0 CODECOPY PUSH1 0x0 RETURN INVALID PUSH1 0x80 PUSH1 0x40 MSTORE PUSH1 0x4 CALLDATASIZE LT PUSH2 0x59 JUMPI PUSH1 0x0 CALLDATALOAD PUSH1 0xE0 SHR DUP1 PUSH4 0x15A5D9D8 EQ PUSH2 0x65 JUMPI DUP1 PUSH4 0x28BA20AF EQ PUSH2 0x90 JUMPI DUP1 PUSH4 0x767800DE EQ PUSH2 0xB9 JUMPI DUP1 PUSH4 0xDA41114C EQ PUSH2 0xE4 JUMPI DUP1 PUSH4 0xF8B2CB4F EQ PUSH2 0x10D JUMPI DUP1 PUSH4 0xFA20EB7C EQ PUSH2 0x14A JUMPI PUSH2 0x60 JUMP JUMPDEST CALLDATASIZE PUSH2 0x60 JUMPI STOP JUMPDEST PUSH1 0x0 DUP1 REVERT JUMPDEST CALLVALUE DUP1 ISZERO PUSH2 0x71 JUMPI PUSH1 0x0 DUP1 REVERT JUMPDEST POP PUSH2 0x7A PUSH2 0x175 JUMP JUMPDEST PUSH1 0x40 MLOAD PUSH2 0x87 SWAP2 SWAP1 PUSH2 0x35C JUMP JUMPDEST PUSH1 0x40 MLOAD DUP1 SWAP2 SUB SWAP1 RETURN JUMPDEST CALLVALUE DUP1 ISZERO PUSH2 0x9C JUMPI PUSH1 0x0 DUP1 REVERT JUMPDEST POP PUSH2 0xB7 PUSH1 0x4 DUP1 CALLDATASIZE SUB DUP2 ADD SWAP1 PUSH2 0xB2 SWAP2 SWAP1 PUSH2 0x2F3 JUMP JUMPDEST PUSH2 0x19B JUMP JUMPDEST STOP JUMPDEST CALLVALUE DUP1 ISZERO PUSH2 0xC5 JUMPI PUSH1 0x0 DUP1 REVERT JUMPDEST POP PUSH2 0xCE PUSH2 0x1D5 JUMP JUMPDEST PUSH1 0x40 MLOAD PUSH2 0xDB SWAP2 SWAP1 PUSH2 0x377 JUMP JUMPDEST PUSH1 0x40 MLOAD DUP1 SWAP2 SUB SWAP1 RETURN JUMPDEST CALLVALUE DUP1 ISZERO PUSH2 0xF0 JUMPI PUSH1 0x0 DUP1 REVERT JUMPDEST POP PUSH2 0x10B PUSH1 0x4 DUP1 CALLDATASIZE SUB DUP2 ADD SWAP1 PUSH2 0x106 SWAP2 SWAP1 PUSH2 0x2F3 JUMP JUMPDEST PUSH2 0x1FB JUMP JUMPDEST STOP JUMPDEST CALLVALUE DUP1 ISZERO PUSH2 0x119 JUMPI PUSH1 0x0 DUP1 REVERT JUMPDEST POP PUSH2 0x134 PUSH1 0x4 DUP1 CALLDATASIZE SUB DUP2 ADD SWAP1 PUSH2 0x12F SWAP2 SWAP1 PUSH2 0x2CA JUMP JUMPDEST PUSH2 0x246 JUMP JUMPDEST PUSH1 0x40 MLOAD PUSH2 0x141 SWAP2 SWAP1 PUSH2 0x392 JUMP JUMPDEST PUSH1 0x40 MLOAD DUP1 SWAP2 SUB SWAP1 RETURN JUMPDEST CALLVALUE DUP1 ISZERO PUSH2 0x156 JUMPI PUSH1 0x0 DUP1 REVERT JUMPDEST POP PUSH2 0x15F PUSH2 0x267 JUMP JUMPDEST PUSH1 0x40 MLOAD PUSH2 0x16C SWAP2 SWAP1 PUSH2 0x35C JUMP JUMPDEST PUSH1 0x40 MLOAD DUP1 SWAP2 SUB SWAP1 RETURN JUMPDEST PUSH1 0x2 PUSH1 0x0 SWAP1 SLOAD SWAP1 PUSH2 0x100 EXP SWAP1 DIV PUSH20 0xFFFFFFFFFFFFFFFFFFFFFFFFFFFFFFFFFFFFFFFF AND DUP2 JUMP JUMPDEST DUP2 PUSH20 0xFFFFFFFFFFFFFFFFFFFFFFFFFFFFFFFFFFFFFFFF AND PUSH2 0x8FC DUP3 SWAP1 DUP2 ISZERO MUL SWAP1 PUSH1 0x40 MLOAD PUSH1 0x0 PUSH1 0x40 MLOAD DUP1 DUP4 SUB DUP2 DUP6 DUP9 DUP9 CALL SWAP4 POP POP POP POP POP POP POP JUMP JUMPDEST PUSH1 0x1 PUSH1 0x0 SWAP1 SLOAD SWAP1 PUSH2 0x100 EXP SWAP1 DIV PUSH20 0xFFFFFFFFFFFFFFFFFFFFFFFFFFFFFFFFFFFFFFFF AND DUP2 JUMP JUMPDEST DUP2 PUSH20 0xFFFFFFFFFFFFFFFFFFFFFFFFFFFFFFFFFFFFFFFF AND PUSH2 0x8FC DUP3 SWAP1 DUP2 ISZERO MUL SWAP1 PUSH1 0x40 MLOAD PUSH1 0x0 PUSH1 0x40 MLOAD DUP1 DUP4 SUB DUP2 DUP6 DUP9 DUP9 CALL SWAP4 POP POP POP POP ISZERO DUP1 ISZERO PUSH2 0x241 JUMPI RETURNDATASIZE PUSH1 0x0 DUP1 RETURNDATACOPY RETURNDATASIZE PUSH1 0x0 REVERT JUMPDEST POP POP POP JUMP JUMPDEST PUSH1 0x0 DUP2 PUSH20 0xFFFFFFFFFFFFFFFFFFFFFFFFFFFFFFFFFFFFFFFF AND BALANCE SWAP1 POP SWAP2 SWAP1 POP JUMP JUMPDEST PUSH1 0x0 DUP1 SLOAD SWAP1 PUSH2 0x100 EXP SWAP1 DIV PUSH20 0xFFFFFFFFFFFFFFFFFFFFFFFFFFFFFFFFFFFFFFFF AND DUP2 JUMP JUMPDEST PUSH1 0x0 DUP2 CALLDATALOAD SWAP1 POP PUSH2 0x29A DUP2 PUSH2 0x3FB JUMP JUMPDEST SWAP3 SWAP2 POP POP JUMP JUMPDEST PUSH1 0x0 DUP2 CALLDATALOAD SWAP1 POP PUSH2 0x2AF DUP2 PUSH2 0x412 JUMP JUMPDEST SWAP3 SWAP2 POP POP JUMP JUMPDEST PUSH1 0x0 DUP2 CALLDATALOAD SWAP1 POP PUSH2 0x2C4 DUP2 PUSH2 0x429 JUMP JUMPDEST SWAP3 SWAP2 POP POP JUMP JUMPDEST PUSH1 0x0 PUSH1 0x20 DUP3 DUP5 SUB SLT ISZERO PUSH2 0x2DC JUMPI PUSH1 0x0 DUP1 REVERT JUMPDEST PUSH1 0x0 PUSH2 0x2EA DUP5 DUP3 DUP6 ADD PUSH2 0x28B JUMP JUMPDEST SWAP2 POP POP SWAP3 SWAP2 POP POP JUMP JUMPDEST PUSH1 0x0 DUP1 PUSH1 0x40 DUP4 DUP6 SUB SLT ISZERO PUSH2 0x306 JUMPI PUSH1 0x0 DUP1 REVERT JUMPDEST PUSH1 0x0 PUSH2 0x314 DUP6 DUP3 DUP7 ADD PUSH2 0x2A0 JUMP JUMPDEST SWAP3 POP POP PUSH1 0x20 PUSH2 0x325 DUP6 DUP3 DUP7 ADD PUSH2 0x2B5 JUMP JUMPDEST SWAP2 POP POP SWAP3 POP SWAP3 SWAP1 POP JUMP JUMPDEST PUSH2 0x338 DUP2 PUSH2 0x3BF JUMP JUMPDEST DUP3 MSTORE POP POP JUMP JUMPDEST PUSH2 0x347 DUP2 PUSH2 0x3AD JUMP JUMPDEST DUP3 MSTORE POP POP JUMP JUMPDEST PUSH2 0x356 DUP2 PUSH2 0x3F1 JUMP JUMPDEST DUP3 MSTORE POP POP JUMP JUMPDEST PUSH1 0x0 PUSH1 0x20 DUP3 ADD SWAP1 POP PUSH2 0x371 PUSH1 0x0 DUP4 ADD DUP5 PUSH2 0x33E JUMP JUMPDEST SWAP3 SWAP2 POP POP JUMP JUMPDEST PUSH1 0x0 PUSH1 0x20 DUP3 ADD SWAP1 POP PUSH2 0x38C PUSH1 0x0 DUP4 ADD DUP5 PUSH2 0x32F JUMP JUMPDEST SWAP3 SWAP2 POP POP JUMP JUMPDEST PUSH1 0x0 PUSH1 0x20 DUP3 ADD SWAP1 POP PUSH2 0x3A7 PUSH1 0x0 DUP4 ADD DUP5 PUSH2 0x34D JUMP JUMPDEST SWAP3 SWAP2 POP POP JUMP JUMPDEST PUSH1 0x0 PUSH2 0x3B8 DUP3 PUSH2 0x3D1 JUMP JUMPDEST SWAP1 POP SWAP2 SWAP1 POP JUMP JUMPDEST PUSH1 0x0 PUSH2 0x3CA DUP3 PUSH2 0x3D1 JUMP JUMPDEST SWAP1 POP SWAP2 SWAP1 POP JUMP JUMPDEST PUSH1 0x0 PUSH20 0xFFFFFFFFFFFFFFFFFFFFFFFFFFFFFFFFFFFFFFFF DUP3 AND SWAP1 POP SWAP2 SWAP1 POP JUMP JUMPDEST PUSH1 0x0 DUP2 SWAP1 POP SWAP2 SWAP1 POP JUMP JUMPDEST PUSH2 0x404 DUP2 PUSH2 0x3AD JUMP JUMPDEST DUP2 EQ PUSH2 0x40F JUMPI PUSH1 0x0 DUP1 REVERT JUMPDEST POP JUMP JUMPDEST PUSH2 0x41B DUP2 PUSH2 0x3BF JUMP JUMPDEST DUP2 EQ PUSH2 0x426 JUMPI PUSH1 0x0 DUP1 REVERT JUMPDEST POP JUMP JUMPDEST PUSH2 0x432 DUP2 PUSH2 0x3F1 JUMP JUMPDEST DUP2 EQ PUSH2 0x43D JUMPI PUSH1 0x0 DUP1 REVERT JUMPDEST POP JUMP INVALID LOG2 PUSH5 0x6970667358 0x22 SLT KECCAK256 SHL EXTCODECOPY EXP 0x1F TIMESTAMP 0xC8 DIFFICULTY SLT DUP1 0xD6 INVALID SHL 0xE8 0xEB 0xCC GASPRICE 0xEE 0xB1 STATICCALL 0x2E 0x5D BLOCKHASH 0x29 DUP3 0x5C SWAP9 0xED 0xE9 0xEA SAR CREATE2 SWAP7 PUSH5 0x736F6C6343 STOP ADDMOD STOP STOP CALLER "
				},
				"gasEstimates": {
					"creation": {
						"codeDepositCost": "228400",
						"executionCost": "62869",
						"totalCost": "291269"
					},
					"external": {
						"addr()": "1236",
						"addrNotPayable()": "1299",
						"contractAddr()": "1192",
						"getBalance(address)": "1423",
						"mySend(address,uint256)": "infinite",
						"myTransfer(address,uint256)": "infinite"
					}
				},
				"methodIdentifiers": {
					"addr()": "767800de",
					"addrNotPayable()": "fa20eb7c",
					"contractAddr()": "15a5d9d8",
					"getBalance(address)": "f8b2cb4f",
					"mySend(address,uint256)": "28ba20af",
					"myTransfer(address,uint256)": "da41114c"
				}
			},
			"storageLayout": {
				"storage": [
					{
						"astId": 133,
						"contract": "chapter02/9type3.sol:type12",
						"label": "addrNotPayable",
						"offset": 0,
						"slot": "0",
						"type": "t_address"
					},
					{
						"astId": 139,
						"contract": "chapter02/9type3.sol:type12",
						"label": "addr",
						"offset": 0,
						"slot": "1",
						"type": "t_address_payable"
					},
					{
						"astId": 145,
						"contract": "chapter02/9type3.sol:type12",
						"label": "contractAddr",
						"offset": 0,
						"slot": "2",
						"type": "t_address"
					}
				],
				"types": {
					"t_address": {
						"encoding": "inplace",
						"label": "address",
						"numberOfBytes": "20"
					},
					"t_address_payable": {
						"encoding": "inplace",
						"label": "address payable",
						"numberOfBytes": "20"
					}
				}
			},
			"userdoc": {
				"kind": "user",
				"methods": {},
				"version": 1
			}
		}
	}
}