{
	"chapter02/9type3.sol": {
		"type5": {
			"abi": [
				{
					"inputs": [
						{
							"internalType": "uint256",
							"name": "_param",
							"type": "uint256"
						}
					],
					"name": "mycal",
					"outputs": [
						{
							"internalType": "uint256",
							"name": "",
							"type": "uint256"
						}
					],
					"stateMutability": "view",
					"type": "function"
				}
			],
			"devdoc": {
				"kind": "dev",
				"methods": {},
				"version": 1
			},
			"evm": {
				"assembly": "    /* \"chapter02/9type3.sol\":4667:4904  contract type5{... */\n  mstore(0x40, 0x80)\n    /* \"chapter02/9type3.sol\":4729:4736  1000000 */\n  0x0f4240\n    /* \"chapter02/9type3.sol\":4719:4736  uint i1 = 1000000 */\n  0x00\n  sstore\n    /* \"chapter02/9type3.sol\":4667:4904  contract type5{... */\n  callvalue\n  dup1\n  iszero\n  tag_1\n  jumpi\n  0x00\n  dup1\n  revert\ntag_1:\n  pop\n  dataSize(sub_0)\n  dup1\n  dataOffset(sub_0)\n  0x00\n  codecopy\n  0x00\n  return\nstop\n\nsub_0: assembly {\n        /* \"chapter02/9type3.sol\":4667:4904  contract type5{... */\n      mstore(0x40, 0x80)\n      callvalue\n      dup1\n      iszero\n      tag_1\n      jumpi\n      0x00\n      dup1\n      revert\n    tag_1:\n      pop\n      jumpi(tag_2, lt(calldatasize, 0x04))\n      shr(0xe0, calldataload(0x00))\n      dup1\n      0x98cedaf5\n      eq\n      tag_3\n      jumpi\n    tag_2:\n      0x00\n      dup1\n      revert\n        /* \"chapter02/9type3.sol\":4742:4829  function mycal(uint _param)external view returns(uint){... */\n    tag_3:\n      tag_4\n      0x04\n      dup1\n      calldatasize\n      sub\n      dup2\n      add\n      swap1\n      tag_5\n      swap2\n      swap1\n      tag_6\n      jump\t// in\n    tag_5:\n      tag_7\n      jump\t// in\n    tag_4:\n      mload(0x40)\n      tag_8\n      swap2\n      swap1\n      tag_9\n      jump\t// in\n    tag_8:\n      mload(0x40)\n      dup1\n      swap2\n      sub\n      swap1\n      return\n    tag_7:\n        /* \"chapter02/9type3.sol\":4791:4795  uint */\n      0x00\n        /* \"chapter02/9type3.sol\":4816:4822  _param */\n      dup2\n        /* \"chapter02/9type3.sol\":4813:4815  i1 */\n      sload(0x00)\n        /* \"chapter02/9type3.sol\":4813:4822  i1/_param */\n      tag_11\n      swap2\n      swap1\n      tag_12\n      jump\t// in\n    tag_11:\n        /* \"chapter02/9type3.sol\":4806:4822  return i1/_param */\n      swap1\n      pop\n        /* \"chapter02/9type3.sol\":4742:4829  function mycal(uint _param)external view returns(uint){... */\n      swap2\n      swap1\n      pop\n      jump\t// out\n        /* \"#utility.yul\":7:146   */\n    tag_14:\n      0x00\n        /* \"#utility.yul\":91:97   */\n      dup2\n        /* \"#utility.yul\":78:98   */\n      calldataload\n        /* \"#utility.yul\":69:98   */\n      swap1\n      pop\n        /* \"#utility.yul\":107:140   */\n      tag_16\n        /* \"#utility.yul\":134:139   */\n      dup2\n        /* \"#utility.yul\":107:140   */\n      tag_17\n      jump\t// in\n    tag_16:\n        /* \"#utility.yul\":59:146   */\n      swap3\n      swap2\n      pop\n      pop\n      jump\t// out\n        /* \"#utility.yul\":152:414   */\n    tag_6:\n      0x00\n        /* \"#utility.yul\":260:262   */\n      0x20\n        /* \"#utility.yul\":248:257   */\n      dup3\n        /* \"#utility.yul\":239:246   */\n      dup5\n        /* \"#utility.yul\":235:258   */\n      sub\n        /* \"#utility.yul\":231:263   */\n      slt\n        /* \"#utility.yul\":228:230   */\n      iszero\n      tag_19\n      jumpi\n        /* \"#utility.yul\":276:277   */\n      0x00\n        /* \"#utility.yul\":273:274   */\n      dup1\n        /* \"#utility.yul\":266:278   */\n      revert\n        /* \"#utility.yul\":228:230   */\n    tag_19:\n        /* \"#utility.yul\":319:320   */\n      0x00\n        /* \"#utility.yul\":344:397   */\n      tag_20\n        /* \"#utility.yul\":389:396   */\n      dup5\n        /* \"#utility.yul\":380:386   */\n      dup3\n        /* \"#utility.yul\":369:378   */\n      dup6\n        /* \"#utility.yul\":365:387   */\n      add\n        /* \"#utility.yul\":344:397   */\n      tag_14\n      jump\t// in\n    tag_20:\n        /* \"#utility.yul\":334:397   */\n      swap2\n      pop\n        /* \"#utility.yul\":290:407   */\n      pop\n        /* \"#utility.yul\":218:414   */\n      swap3\n      swap2\n      pop\n      pop\n      jump\t// out\n        /* \"#utility.yul\":420:538   */\n    tag_21:\n        /* \"#utility.yul\":507:531   */\n      tag_23\n        /* \"#utility.yul\":525:530   */\n      dup2\n        /* \"#utility.yul\":507:531   */\n      tag_24\n      jump\t// in\n    tag_23:\n        /* \"#utility.yul\":502:505   */\n      dup3\n        /* \"#utility.yul\":495:532   */\n      mstore\n        /* \"#utility.yul\":485:538   */\n      pop\n      pop\n      jump\t// out\n        /* \"#utility.yul\":544:766   */\n    tag_9:\n      0x00\n        /* \"#utility.yul\":675:677   */\n      0x20\n        /* \"#utility.yul\":664:673   */\n      dup3\n        /* \"#utility.yul\":660:678   */\n      add\n        /* \"#utility.yul\":652:678   */\n      swap1\n      pop\n        /* \"#utility.yul\":688:759   */\n      tag_26\n        /* \"#utility.yul\":756:757   */\n      0x00\n        /* \"#utility.yul\":745:754   */\n      dup4\n        /* \"#utility.yul\":741:758   */\n      add\n        /* \"#utility.yul\":732:738   */\n      dup5\n        /* \"#utility.yul\":688:759   */\n      tag_21\n      jump\t// in\n    tag_26:\n        /* \"#utility.yul\":642:766   */\n      swap3\n      swap2\n      pop\n      pop\n      jump\t// out\n        /* \"#utility.yul\":772:957   */\n    tag_12:\n      0x00\n        /* \"#utility.yul\":829:849   */\n      tag_28\n        /* \"#utility.yul\":847:848   */\n      dup3\n        /* \"#utility.yul\":829:849   */\n      tag_24\n      jump\t// in\n    tag_28:\n        /* \"#utility.yul\":824:849   */\n      swap2\n      pop\n        /* \"#utility.yul\":863:883   */\n      tag_29\n        /* \"#utility.yul\":881:882   */\n      dup4\n        /* \"#utility.yul\":863:883   */\n      tag_24\n      jump\t// in\n    tag_29:\n        /* \"#utility.yul\":858:883   */\n      swap3\n      pop\n        /* \"#utility.yul\":902:903   */\n      dup3\n        /* \"#utility.yul\":892:894   */\n      tag_30\n      jumpi\n        /* \"#utility.yul\":907:925   */\n      tag_31\n      tag_32\n      jump\t// in\n    tag_31:\n        /* \"#utility.yul\":892:894   */\n    tag_30:\n        /* \"#utility.yul\":949:950   */\n      dup3\n        /* \"#utility.yul\":946:947   */\n      dup3\n        /* \"#utility.yul\":942:951   */\n      div\n        /* \"#utility.yul\":937:951   */\n      swap1\n      pop\n        /* \"#utility.yul\":814:957   */\n      swap3\n      swap2\n      pop\n      pop\n      jump\t// out\n        /* \"#utility.yul\":963:1040   */\n    tag_24:\n      0x00\n        /* \"#utility.yul\":1029:1034   */\n      dup2\n        /* \"#utility.yul\":1018:1034   */\n      swap1\n      pop\n        /* \"#utility.yul\":1008:1040   */\n      swap2\n      swap1\n      pop\n      jump\t// out\n        /* \"#utility.yul\":1232:1412   */\n    tag_32:\n        /* \"#utility.yul\":1280:1357   */\n      0x4e487b7100000000000000000000000000000000000000000000000000000000\n        /* \"#utility.yul\":1277:1278   */\n      0x00\n        /* \"#utility.yul\":1270:1358   */\n      mstore\n        /* \"#utility.yul\":1377:1381   */\n      0x12\n        /* \"#utility.yul\":1374:1375   */\n      0x04\n        /* \"#utility.yul\":1367:1382   */\n      mstore\n        /* \"#utility.yul\":1401:1405   */\n      0x24\n        /* \"#utility.yul\":1398:1399   */\n      0x00\n        /* \"#utility.yul\":1391:1406   */\n      revert\n        /* \"#utility.yul\":1418:1540   */\n    tag_17:\n        /* \"#utility.yul\":1491:1515   */\n      tag_38\n        /* \"#utility.yul\":1509:1514   */\n      dup2\n        /* \"#utility.yul\":1491:1515   */\n      tag_24\n      jump\t// in\n    tag_38:\n        /* \"#utility.yul\":1484:1489   */\n      dup2\n        /* \"#utility.yul\":1481:1516   */\n      eq\n        /* \"#utility.yul\":1471:1473   */\n      tag_39\n      jumpi\n        /* \"#utility.yul\":1530:1531   */\n      0x00\n        /* \"#utility.yul\":1527:1528   */\n      dup1\n        /* \"#utility.yul\":1520:1532   */\n      revert\n        /* \"#utility.yul\":1471:1473   */\n    tag_39:\n        /* \"#utility.yul\":1461:1540   */\n      pop\n      jump\t// out\n\n    auxdata: 0xa264697066735822122074bebc27ffca77d4bdb63c4a713b71ae099a32b3dbe9068a1afbe37d0ea4efdc64736f6c63430008000033\n}\n",
				"bytecode": {
					"linkReferences": {},
					"object": "6080604052620f424060005534801561001757600080fd5b50610196806100276000396000f3fe608060405234801561001057600080fd5b506004361061002b5760003560e01c806398cedaf514610030575b600080fd5b61004a6004803603810190610045919061008c565b610060565b60405161005791906100c4565b60405180910390f35b60008160005461007091906100df565b9050919050565b60008135905061008681610149565b92915050565b60006020828403121561009e57600080fd5b60006100ac84828501610077565b91505092915050565b6100be81610110565b82525050565b60006020820190506100d960008301846100b5565b92915050565b60006100ea82610110565b91506100f583610110565b9250826101055761010461011a565b5b828204905092915050565b6000819050919050565b7f4e487b7100000000000000000000000000000000000000000000000000000000600052601260045260246000fd5b61015281610110565b811461015d57600080fd5b5056fea264697066735822122074bebc27ffca77d4bdb63c4a713b71ae099a32b3dbe9068a1afbe37d0ea4efdc64736f6c63430008000033",
					"opcodes": "PUSH1 0x80 PUSH1 0x40 MSTORE PUSH3 0xF4240 PUSH1 0x0 SSTORE CALLVALUE DUP1 ISZERO PUSH2 0x17 JUMPI PUSH1 0x0 DUP1 REVERT JUMPDEST POP PUSH2 0x196 DUP1 PUSH2 0x27 PUSH1 0x0 CODECOPY PUSH1 0x0 RETURN INVALID PUSH1 0x80 PUSH1 0x40 MSTORE CALLVALUE DUP1 ISZERO PUSH2 0x10 JUMPI PUSH1 0x0 DUP1 REVERT JUMPDEST POP PUSH1 0x4 CALLDATASIZE LT PUSH2 0x2B JUMPI PUSH1 0x0 CALLDATALOAD PUSH1 0xE0 SHR DUP1 PUSH4 0x98CEDAF5 EQ PUSH2 0x30 JUMPI JUMPDEST PUSH1 0x0 DUP1 REVERT JUMPDEST PUSH2 0x4A PUSH1 0x4 DUP1 CALLDATASIZE SUB DUP2 ADD SWAP1 PUSH2 0x45 SWAP2 SWAP1 PUSH2 0x8C JUMP JUMPDEST PUSH2 0x60 JUMP JUMPDEST PUSH1 0x40 MLOAD PUSH2 0x57 SWAP2 SWAP1 PUSH2 0xC4 JUMP JUMPDEST PUSH1 0x40 MLOAD DUP1 SWAP2 SUB SWAP1 RETURN JUMPDEST PUSH1 0x0 DUP2 PUSH1 0x0 SLOAD PUSH2 0x70 SWAP2 SWAP1 PUSH2 0xDF JUMP JUMPDEST SWAP1 POP SWAP2 SWAP1 POP JUMP JUMPDEST PUSH1 0x0 DUP2 CALLDATALOAD SWAP1 POP PUSH2 0x86 DUP2 PUSH2 0x149 JUMP JUMPDEST SWAP3 SWAP2 POP POP JUMP JUMPDEST PUSH1 0x0 PUSH1 0x20 DUP3 DUP5 SUB SLT ISZERO PUSH2 0x9E JUMPI PUSH1 0x0 DUP1 REVERT JUMPDEST PUSH1 0x0 PUSH2 0xAC DUP5 DUP3 DUP6 ADD PUSH2 0x77 JUMP JUMPDEST SWAP2 POP POP SWAP3 SWAP2 POP POP JUMP JUMPDEST PUSH2 0xBE DUP2 PUSH2 0x110 JUMP JUMPDEST DUP3 MSTORE POP POP JUMP JUMPDEST PUSH1 0x0 PUSH1 0x20 DUP3 ADD SWAP1 POP PUSH2 0xD9 PUSH1 0x0 DUP4 ADD DUP5 PUSH2 0xB5 JUMP JUMPDEST SWAP3 SWAP2 POP POP JUMP JUMPDEST PUSH1 0x0 PUSH2 0xEA DUP3 PUSH2 0x110 JUMP JUMPDEST SWAP2 POP PUSH2 0xF5 DUP4 PUSH2 0x110 JUMP JUMPDEST SWAP3 POP DUP3 PUSH2 0x105 JUMPI PUSH2 0x104 PUSH2 0x11A JUMP JUMPDEST JUMPDEST DUP3 DUP3 DIV SWAP1 POP SWAP3 SWAP2 POP POP JUMP JUMPDEST PUSH1 0x0 DUP2 SWAP1 POP SWAP2 SWAP1 POP JUMP JUMPDEST PUSH32 0x4E487B7100000000000000000000000000000000000000000000000000000000 PUSH1 0x0 MSTORE PUSH1 0x12 PUSH1 0x4 MSTORE PUSH1 0x24 PUSH1 0x0 REVERT JUMPDEST PUSH2 0x152 DUP2 PUSH2 0x110 JUMP JUMPDEST DUP2 EQ PUSH2 0x15D JUMPI PUSH1 0x0 DUP1 REVERT JUMPDEST POP JUMP INVALID LOG2 PUSH5 0x6970667358 0x22 SLT KECCAK256 PUSH21 0xBEBC27FFCA77D4BDB63C4A713B71AE099A32B3DBE9 MOD DUP11 BYTE 0xFB 0xE3 PUSH30 0xEA4EFDC64736F6C63430008000033000000000000000000000000000000 "
				},
				"gasEstimates": {
					"creation": {
						"codeDepositCost": "81200",
						"executionCost": "20135",
						"totalCost": "101335"
					},
					"external": {
						"mycal(uint256)": "infinite"
					}
				},
				"methodIdentifiers": {
					"mycal(uint256)": "98cedaf5"
				}
			},
			"storageLayout": {
				"storage": [
					{
						"astId": 379,
						"contract": "chapter02/9type3.sol:type5",
						"label": "i1",
						"offset": 0,
						"slot": "0",
						"type": "t_uint256"
					}
				],
				"types": {
					"t_uint256": {
						"encoding": "inplace",
						"label": "uint256",
						"numberOfBytes": "32"
					}
				}
			},
			"userdoc": {
				"kind": "user",
				"methods": {},
				"version": 1
			}
		}
	}
}