{
	"chapter02/9type3.sol": {
		"type13": {
			"abi": [
				{
					"inputs": [],
					"name": "a",
					"outputs": [
						{
							"internalType": "uint256",
							"name": "",
							"type": "uint256"
						}
					],
					"stateMutability": "view",
					"type": "function"
				},
				{
					"inputs": [],
					"name": "getContractName",
					"outputs": [
						{
							"internalType": "string",
							"name": "",
							"type": "string"
						}
					],
					"stateMutability": "pure",
					"type": "function"
				},
				{
					"inputs": [
						{
							"internalType": "uint256",
							"name": "_a",
							"type": "uint256"
						}
					],
					"name": "setA",
					"outputs": [],
					"stateMutability": "nonpayable",
					"type": "function"
				},
				{
					"stateMutability": "payable",
					"type": "receive"
				}
			],
			"devdoc": {
				"kind": "dev",
				"methods": {},
				"version": 1
			},
			"evm": {
				"assembly": "    /* \"chapter02/9type3.sol\":688:915  contract type13{... */\n  mstore(0x40, 0x80)\n  callvalue\n  dup1\n  iszero\n  tag_1\n  jumpi\n  0x00\n  dup1\n  revert\ntag_1:\n  pop\n  dataSize(sub_0)\n  dup1\n  dataOffset(sub_0)\n  0x00\n  codecopy\n  0x00\n  return\nstop\n\nsub_0: assembly {\n        /* \"chapter02/9type3.sol\":688:915  contract type13{... */\n      mstore(0x40, 0x80)\n      jumpi(tag_1, lt(calldatasize, 0x04))\n      shr(0xe0, calldataload(0x00))\n      dup1\n      0x0dbe671f\n      eq\n      tag_3\n      jumpi\n      dup1\n      0xee919d50\n      eq\n      tag_4\n      jumpi\n      dup1\n      0xf5f5ba72\n      eq\n      tag_5\n      jumpi\n      jump(tag_2)\n    tag_1:\n      jumpi(tag_2, calldatasize)\n      stop\n    tag_2:\n      0x00\n      dup1\n      revert\n        /* \"chapter02/9type3.sol\":742:755  uint public a */\n    tag_3:\n      callvalue\n      dup1\n      iszero\n      tag_8\n      jumpi\n      0x00\n      dup1\n      revert\n    tag_8:\n      pop\n      tag_9\n      tag_10\n      jump\t// in\n    tag_9:\n      mload(0x40)\n      tag_11\n      swap2\n      swap1\n      tag_12\n      jump\t// in\n    tag_11:\n      mload(0x40)\n      dup1\n      swap2\n      sub\n      swap1\n      return\n        /* \"chapter02/9type3.sol\":860:913  function setA(uint _a)external{... */\n    tag_4:\n      callvalue\n      dup1\n      iszero\n      tag_13\n      jumpi\n      0x00\n      dup1\n      revert\n    tag_13:\n      pop\n      tag_14\n      0x04\n      dup1\n      calldatasize\n      sub\n      dup2\n      add\n      swap1\n      tag_15\n      swap2\n      swap1\n      tag_16\n      jump\t// in\n    tag_15:\n      tag_17\n      jump\t// in\n    tag_14:\n      stop\n        /* \"chapter02/9type3.sol\":761:855  function getContractName()external pure returns(string memory){... */\n    tag_5:\n      callvalue\n      dup1\n      iszero\n      tag_18\n      jumpi\n      0x00\n      dup1\n      revert\n    tag_18:\n      pop\n      tag_19\n      tag_20\n      jump\t// in\n    tag_19:\n      mload(0x40)\n      tag_21\n      swap2\n      swap1\n      tag_22\n      jump\t// in\n    tag_21:\n      mload(0x40)\n      dup1\n      swap2\n      sub\n      swap1\n      return\n        /* \"chapter02/9type3.sol\":742:755  uint public a */\n    tag_10:\n      sload(0x00)\n      dup2\n      jump\t// out\n        /* \"chapter02/9type3.sol\":860:913  function setA(uint _a)external{... */\n    tag_17:\n        /* \"chapter02/9type3.sol\":904:906  _a */\n      dup1\n        /* \"chapter02/9type3.sol\":900:901  a */\n      0x00\n        /* \"chapter02/9type3.sol\":900:906  a = _a */\n      dup2\n      swap1\n      sstore\n      pop\n        /* \"chapter02/9type3.sol\":860:913  function setA(uint _a)external{... */\n      pop\n      jump\t// out\n        /* \"chapter02/9type3.sol\":761:855  function getContractName()external pure returns(string memory){... */\n    tag_20:\n        /* \"chapter02/9type3.sol\":809:822  string memory */\n      0x60\n        /* \"chapter02/9type3.sol\":833:848  return \"type13\" */\n      mload(0x40)\n      dup1\n      0x40\n      add\n      0x40\n      mstore\n      dup1\n      0x06\n      dup2\n      mstore\n      0x20\n      add\n      0x7479706531330000000000000000000000000000000000000000000000000000\n      dup2\n      mstore\n      pop\n      swap1\n      pop\n        /* \"chapter02/9type3.sol\":761:855  function getContractName()external pure returns(string memory){... */\n      swap1\n      jump\t// out\n        /* \"#utility.yul\":7:146   */\n    tag_26:\n      0x00\n        /* \"#utility.yul\":91:97   */\n      dup2\n        /* \"#utility.yul\":78:98   */\n      calldataload\n        /* \"#utility.yul\":69:98   */\n      swap1\n      pop\n        /* \"#utility.yul\":107:140   */\n      tag_28\n        /* \"#utility.yul\":134:139   */\n      dup2\n        /* \"#utility.yul\":107:140   */\n      tag_29\n      jump\t// in\n    tag_28:\n        /* \"#utility.yul\":59:146   */\n      swap3\n      swap2\n      pop\n      pop\n      jump\t// out\n        /* \"#utility.yul\":152:414   */\n    tag_16:\n      0x00\n        /* \"#utility.yul\":260:262   */\n      0x20\n        /* \"#utility.yul\":248:257   */\n      dup3\n        /* \"#utility.yul\":239:246   */\n      dup5\n        /* \"#utility.yul\":235:258   */\n      sub\n        /* \"#utility.yul\":231:263   */\n      slt\n        /* \"#utility.yul\":228:230   */\n      iszero\n      tag_31\n      jumpi\n        /* \"#utility.yul\":276:277   */\n      0x00\n        /* \"#utility.yul\":273:274   */\n      dup1\n        /* \"#utility.yul\":266:278   */\n      revert\n        /* \"#utility.yul\":228:230   */\n    tag_31:\n        /* \"#utility.yul\":319:320   */\n      0x00\n        /* \"#utility.yul\":344:397   */\n      tag_32\n        /* \"#utility.yul\":389:396   */\n      dup5\n        /* \"#utility.yul\":380:386   */\n      dup3\n        /* \"#utility.yul\":369:378   */\n      dup6\n        /* \"#utility.yul\":365:387   */\n      add\n        /* \"#utility.yul\":344:397   */\n      tag_26\n      jump\t// in\n    tag_32:\n        /* \"#utility.yul\":334:397   */\n      swap2\n      pop\n        /* \"#utility.yul\":290:407   */\n      pop\n        /* \"#utility.yul\":218:414   */\n      swap3\n      swap2\n      pop\n      pop\n      jump\t// out\n        /* \"#utility.yul\":420:784   */\n    tag_33:\n      0x00\n        /* \"#utility.yul\":536:575   */\n      tag_35\n        /* \"#utility.yul\":569:574   */\n      dup3\n        /* \"#utility.yul\":536:575   */\n      tag_36\n      jump\t// in\n    tag_35:\n        /* \"#utility.yul\":591:662   */\n      tag_37\n        /* \"#utility.yul\":655:661   */\n      dup2\n        /* \"#utility.yul\":650:653   */\n      dup6\n        /* \"#utility.yul\":591:662   */\n      tag_38\n      jump\t// in\n    tag_37:\n        /* \"#utility.yul\":584:662   */\n      swap4\n      pop\n        /* \"#utility.yul\":671:723   */\n      tag_39\n        /* \"#utility.yul\":716:722   */\n      dup2\n        /* \"#utility.yul\":711:714   */\n      dup6\n        /* \"#utility.yul\":704:708   */\n      0x20\n        /* \"#utility.yul\":697:702   */\n      dup7\n        /* \"#utility.yul\":693:709   */\n      add\n        /* \"#utility.yul\":671:723   */\n      tag_40\n      jump\t// in\n    tag_39:\n        /* \"#utility.yul\":748:777   */\n      tag_41\n        /* \"#utility.yul\":770:776   */\n      dup2\n        /* \"#utility.yul\":748:777   */\n      tag_42\n      jump\t// in\n    tag_41:\n        /* \"#utility.yul\":743:746   */\n      dup5\n        /* \"#utility.yul\":739:778   */\n      add\n        /* \"#utility.yul\":732:778   */\n      swap2\n      pop\n        /* \"#utility.yul\":512:784   */\n      pop\n      swap3\n      swap2\n      pop\n      pop\n      jump\t// out\n        /* \"#utility.yul\":790:908   */\n    tag_43:\n        /* \"#utility.yul\":877:901   */\n      tag_45\n        /* \"#utility.yul\":895:900   */\n      dup2\n        /* \"#utility.yul\":877:901   */\n      tag_46\n      jump\t// in\n    tag_45:\n        /* \"#utility.yul\":872:875   */\n      dup3\n        /* \"#utility.yul\":865:902   */\n      mstore\n        /* \"#utility.yul\":855:908   */\n      pop\n      pop\n      jump\t// out\n        /* \"#utility.yul\":914:1227   */\n    tag_22:\n      0x00\n        /* \"#utility.yul\":1065:1067   */\n      0x20\n        /* \"#utility.yul\":1054:1063   */\n      dup3\n        /* \"#utility.yul\":1050:1068   */\n      add\n        /* \"#utility.yul\":1042:1068   */\n      swap1\n      pop\n        /* \"#utility.yul\":1114:1123   */\n      dup2\n        /* \"#utility.yul\":1108:1112   */\n      dup2\n        /* \"#utility.yul\":1104:1124   */\n      sub\n        /* \"#utility.yul\":1100:1101   */\n      0x00\n        /* \"#utility.yul\":1089:1098   */\n      dup4\n        /* \"#utility.yul\":1085:1102   */\n      add\n        /* \"#utility.yul\":1078:1125   */\n      mstore\n        /* \"#utility.yul\":1142:1220   */\n      tag_48\n        /* \"#utility.yul\":1215:1219   */\n      dup2\n        /* \"#utility.yul\":1206:1212   */\n      dup5\n        /* \"#utility.yul\":1142:1220   */\n      tag_33\n      jump\t// in\n    tag_48:\n        /* \"#utility.yul\":1134:1220   */\n      swap1\n      pop\n        /* \"#utility.yul\":1032:1227   */\n      swap3\n      swap2\n      pop\n      pop\n      jump\t// out\n        /* \"#utility.yul\":1233:1455   */\n    tag_12:\n      0x00\n        /* \"#utility.yul\":1364:1366   */\n      0x20\n        /* \"#utility.yul\":1353:1362   */\n      dup3\n        /* \"#utility.yul\":1349:1367   */\n      add\n        /* \"#utility.yul\":1341:1367   */\n      swap1\n      pop\n        /* \"#utility.yul\":1377:1448   */\n      tag_50\n        /* \"#utility.yul\":1445:1446   */\n      0x00\n        /* \"#utility.yul\":1434:1443   */\n      dup4\n        /* \"#utility.yul\":1430:1447   */\n      add\n        /* \"#utility.yul\":1421:1427   */\n      dup5\n        /* \"#utility.yul\":1377:1448   */\n      tag_43\n      jump\t// in\n    tag_50:\n        /* \"#utility.yul\":1331:1455   */\n      swap3\n      swap2\n      pop\n      pop\n      jump\t// out\n        /* \"#utility.yul\":1461:1560   */\n    tag_36:\n      0x00\n        /* \"#utility.yul\":1547:1552   */\n      dup2\n        /* \"#utility.yul\":1541:1553   */\n      mload\n        /* \"#utility.yul\":1531:1553   */\n      swap1\n      pop\n        /* \"#utility.yul\":1520:1560   */\n      swap2\n      swap1\n      pop\n      jump\t// out\n        /* \"#utility.yul\":1566:1735   */\n    tag_38:\n      0x00\n        /* \"#utility.yul\":1684:1690   */\n      dup3\n        /* \"#utility.yul\":1679:1682   */\n      dup3\n        /* \"#utility.yul\":1672:1691   */\n      mstore\n        /* \"#utility.yul\":1724:1728   */\n      0x20\n        /* \"#utility.yul\":1719:1722   */\n      dup3\n        /* \"#utility.yul\":1715:1729   */\n      add\n        /* \"#utility.yul\":1700:1729   */\n      swap1\n      pop\n        /* \"#utility.yul\":1662:1735   */\n      swap3\n      swap2\n      pop\n      pop\n      jump\t// out\n        /* \"#utility.yul\":1741:1818   */\n    tag_46:\n      0x00\n        /* \"#utility.yul\":1807:1812   */\n      dup2\n        /* \"#utility.yul\":1796:1812   */\n      swap1\n      pop\n        /* \"#utility.yul\":1786:1818   */\n      swap2\n      swap1\n      pop\n      jump\t// out\n        /* \"#utility.yul\":1824:2131   */\n    tag_40:\n        /* \"#utility.yul\":1892:1893   */\n      0x00\n        /* \"#utility.yul\":1902:2015   */\n    tag_55:\n        /* \"#utility.yul\":1916:1922   */\n      dup4\n        /* \"#utility.yul\":1913:1914   */\n      dup2\n        /* \"#utility.yul\":1910:1923   */\n      lt\n        /* \"#utility.yul\":1902:2015   */\n      iszero\n      tag_57\n      jumpi\n        /* \"#utility.yul\":2001:2002   */\n      dup1\n        /* \"#utility.yul\":1996:1999   */\n      dup3\n        /* \"#utility.yul\":1992:2003   */\n      add\n        /* \"#utility.yul\":1986:2004   */\n      mload\n        /* \"#utility.yul\":1982:1983   */\n      dup2\n        /* \"#utility.yul\":1977:1980   */\n      dup5\n        /* \"#utility.yul\":1973:1984   */\n      add\n        /* \"#utility.yul\":1966:2005   */\n      mstore\n        /* \"#utility.yul\":1938:1940   */\n      0x20\n        /* \"#utility.yul\":1935:1936   */\n      dup2\n        /* \"#utility.yul\":1931:1941   */\n      add\n        /* \"#utility.yul\":1926:1941   */\n      swap1\n      pop\n        /* \"#utility.yul\":1902:2015   */\n      jump(tag_55)\n    tag_57:\n        /* \"#utility.yul\":2033:2039   */\n      dup4\n        /* \"#utility.yul\":2030:2031   */\n      dup2\n        /* \"#utility.yul\":2027:2040   */\n      gt\n        /* \"#utility.yul\":2024:2026   */\n      iszero\n      tag_58\n      jumpi\n        /* \"#utility.yul\":2113:2114   */\n      0x00\n        /* \"#utility.yul\":2104:2110   */\n      dup5\n        /* \"#utility.yul\":2099:2102   */\n      dup5\n        /* \"#utility.yul\":2095:2111   */\n      add\n        /* \"#utility.yul\":2088:2115   */\n      mstore\n        /* \"#utility.yul\":2024:2026   */\n    tag_58:\n        /* \"#utility.yul\":1873:2131   */\n      pop\n      pop\n      pop\n      pop\n      jump\t// out\n        /* \"#utility.yul\":2137:2239   */\n    tag_42:\n      0x00\n        /* \"#utility.yul\":2229:2231   */\n      0x1f\n        /* \"#utility.yul\":2225:2232   */\n      not\n        /* \"#utility.yul\":2220:2222   */\n      0x1f\n        /* \"#utility.yul\":2213:2218   */\n      dup4\n        /* \"#utility.yul\":2209:2223   */\n      add\n        /* \"#utility.yul\":2205:2233   */\n      and\n        /* \"#utility.yul\":2195:2233   */\n      swap1\n      pop\n        /* \"#utility.yul\":2185:2239   */\n      swap2\n      swap1\n      pop\n      jump\t// out\n        /* \"#utility.yul\":2245:2367   */\n    tag_29:\n        /* \"#utility.yul\":2318:2342   */\n      tag_61\n        /* \"#utility.yul\":2336:2341   */\n      dup2\n        /* \"#utility.yul\":2318:2342   */\n      tag_46\n      jump\t// in\n    tag_61:\n        /* \"#utility.yul\":2311:2316   */\n      dup2\n        /* \"#utility.yul\":2308:2343   */\n      eq\n        /* \"#utility.yul\":2298:2300   */\n      tag_62\n      jumpi\n        /* \"#utility.yul\":2357:2358   */\n      0x00\n        /* \"#utility.yul\":2354:2355   */\n      dup1\n        /* \"#utility.yul\":2347:2359   */\n      revert\n        /* \"#utility.yul\":2298:2300   */\n    tag_62:\n        /* \"#utility.yul\":2288:2367   */\n      pop\n      jump\t// out\n\n    auxdata: 0xa2646970667358221220142a83046317bc914e8f581e431affc8a9a13ed836a9eeeb1a23f91544e6b9ac64736f6c63430008000033\n}\n",
				"bytecode": {
					"linkReferences": {},
					"object": "608060405234801561001057600080fd5b5061028a806100206000396000f3fe6080604052600436106100385760003560e01c80630dbe671f14610044578063ee919d501461006f578063f5f5ba72146100985761003f565b3661003f57005b600080fd5b34801561005057600080fd5b506100596100c3565b60405161006691906101b8565b60405180910390f35b34801561007b57600080fd5b5061009660048036038101906100919190610125565b6100c9565b005b3480156100a457600080fd5b506100ad6100d3565b6040516100ba9190610196565b60405180910390f35b60005481565b8060008190555050565b60606040518060400160405280600681526020017f7479706531330000000000000000000000000000000000000000000000000000815250905090565b60008135905061011f8161023d565b92915050565b60006020828403121561013757600080fd5b600061014584828501610110565b91505092915050565b6000610159826101d3565b61016381856101de565b93506101738185602086016101f9565b61017c8161022c565b840191505092915050565b610190816101ef565b82525050565b600060208201905081810360008301526101b0818461014e565b905092915050565b60006020820190506101cd6000830184610187565b92915050565b600081519050919050565b600082825260208201905092915050565b6000819050919050565b60005b838110156102175780820151818401526020810190506101fc565b83811115610226576000848401525b50505050565b6000601f19601f8301169050919050565b610246816101ef565b811461025157600080fd5b5056fea2646970667358221220142a83046317bc914e8f581e431affc8a9a13ed836a9eeeb1a23f91544e6b9ac64736f6c63430008000033",
					"opcodes": "PUSH1 0x80 PUSH1 0x40 MSTORE CALLVALUE DUP1 ISZERO PUSH2 0x10 JUMPI PUSH1 0x0 DUP1 REVERT JUMPDEST POP PUSH2 0x28A DUP1 PUSH2 0x20 PUSH1 0x0 CODECOPY PUSH1 0x0 RETURN INVALID PUSH1 0x80 PUSH1 0x40 MSTORE PUSH1 0x4 CALLDATASIZE LT PUSH2 0x38 JUMPI PUSH1 0x0 CALLDATALOAD PUSH1 0xE0 SHR DUP1 PUSH4 0xDBE671F EQ PUSH2 0x44 JUMPI DUP1 PUSH4 0xEE919D50 EQ PUSH2 0x6F JUMPI DUP1 PUSH4 0xF5F5BA72 EQ PUSH2 0x98 JUMPI PUSH2 0x3F JUMP JUMPDEST CALLDATASIZE PUSH2 0x3F JUMPI STOP JUMPDEST PUSH1 0x0 DUP1 REVERT JUMPDEST CALLVALUE DUP1 ISZERO PUSH2 0x50 JUMPI PUSH1 0x0 DUP1 REVERT JUMPDEST POP PUSH2 0x59 PUSH2 0xC3 JUMP JUMPDEST PUSH1 0x40 MLOAD PUSH2 0x66 SWAP2 SWAP1 PUSH2 0x1B8 JUMP JUMPDEST PUSH1 0x40 MLOAD DUP1 SWAP2 SUB SWAP1 RETURN JUMPDEST CALLVALUE DUP1 ISZERO PUSH2 0x7B JUMPI PUSH1 0x0 DUP1 REVERT JUMPDEST POP PUSH2 0x96 PUSH1 0x4 DUP1 CALLDATASIZE SUB DUP2 ADD SWAP1 PUSH2 0x91 SWAP2 SWAP1 PUSH2 0x125 JUMP JUMPDEST PUSH2 0xC9 JUMP JUMPDEST STOP JUMPDEST CALLVALUE DUP1 ISZERO PUSH2 0xA4 JUMPI PUSH1 0x0 DUP1 REVERT JUMPDEST POP PUSH2 0xAD PUSH2 0xD3 JUMP JUMPDEST PUSH1 0x40 MLOAD PUSH2 0xBA SWAP2 SWAP1 PUSH2 0x196 JUMP JUMPDEST PUSH1 0x40 MLOAD DUP1 SWAP2 SUB SWAP1 RETURN JUMPDEST PUSH1 0x0 SLOAD DUP2 JUMP JUMPDEST DUP1 PUSH1 0x0 DUP2 SWAP1 SSTORE POP POP JUMP JUMPDEST PUSH1 0x60 PUSH1 0x40 MLOAD DUP1 PUSH1 0x40 ADD PUSH1 0x40 MSTORE DUP1 PUSH1 0x6 DUP2 MSTORE PUSH1 0x20 ADD PUSH32 0x7479706531330000000000000000000000000000000000000000000000000000 DUP2 MSTORE POP SWAP1 POP SWAP1 JUMP JUMPDEST PUSH1 0x0 DUP2 CALLDATALOAD SWAP1 POP PUSH2 0x11F DUP2 PUSH2 0x23D JUMP JUMPDEST SWAP3 SWAP2 POP POP JUMP JUMPDEST PUSH1 0x0 PUSH1 0x20 DUP3 DUP5 SUB SLT ISZERO PUSH2 0x137 JUMPI PUSH1 0x0 DUP1 REVERT JUMPDEST PUSH1 0x0 PUSH2 0x145 DUP5 DUP3 DUP6 ADD PUSH2 0x110 JUMP JUMPDEST SWAP2 POP POP SWAP3 SWAP2 POP POP JUMP JUMPDEST PUSH1 0x0 PUSH2 0x159 DUP3 PUSH2 0x1D3 JUMP JUMPDEST PUSH2 0x163 DUP2 DUP6 PUSH2 0x1DE JUMP JUMPDEST SWAP4 POP PUSH2 0x173 DUP2 DUP6 PUSH1 0x20 DUP7 ADD PUSH2 0x1F9 JUMP JUMPDEST PUSH2 0x17C DUP2 PUSH2 0x22C JUMP JUMPDEST DUP5 ADD SWAP2 POP POP SWAP3 SWAP2 POP POP JUMP JUMPDEST PUSH2 0x190 DUP2 PUSH2 0x1EF JUMP JUMPDEST DUP3 MSTORE POP POP JUMP JUMPDEST PUSH1 0x0 PUSH1 0x20 DUP3 ADD SWAP1 POP DUP2 DUP2 SUB PUSH1 0x0 DUP4 ADD MSTORE PUSH2 0x1B0 DUP2 DUP5 PUSH2 0x14E JUMP JUMPDEST SWAP1 POP SWAP3 SWAP2 POP POP JUMP JUMPDEST PUSH1 0x0 PUSH1 0x20 DUP3 ADD SWAP1 POP PUSH2 0x1CD PUSH1 0x0 DUP4 ADD DUP5 PUSH2 0x187 JUMP JUMPDEST SWAP3 SWAP2 POP POP JUMP JUMPDEST PUSH1 0x0 DUP2 MLOAD SWAP1 POP SWAP2 SWAP1 POP JUMP JUMPDEST PUSH1 0x0 DUP3 DUP3 MSTORE PUSH1 0x20 DUP3 ADD SWAP1 POP SWAP3 SWAP2 POP POP JUMP JUMPDEST PUSH1 0x0 DUP2 SWAP1 POP SWAP2 SWAP1 POP JUMP JUMPDEST PUSH1 0x0 JUMPDEST DUP4 DUP2 LT ISZERO PUSH2 0x217 JUMPI DUP1 DUP3 ADD MLOAD DUP2 DUP5 ADD MSTORE PUSH1 0x20 DUP2 ADD SWAP1 POP PUSH2 0x1FC JUMP JUMPDEST DUP4 DUP2 GT ISZERO PUSH2 0x226 JUMPI PUSH1 0x0 DUP5 DUP5 ADD MSTORE JUMPDEST POP POP POP POP JUMP JUMPDEST PUSH1 0x0 PUSH1 0x1F NOT PUSH1 0x1F DUP4 ADD AND SWAP1 POP SWAP2 SWAP1 POP JUMP JUMPDEST PUSH2 0x246 DUP2 PUSH2 0x1EF JUMP JUMPDEST DUP2 EQ PUSH2 0x251 JUMPI PUSH1 0x0 DUP1 REVERT JUMPDEST POP JUMP INVALID LOG2 PUSH5 0x6970667358 0x22 SLT KECCAK256 EQ 0x2A DUP4 DIV PUSH4 0x17BC914E DUP16 PC 0x1E NUMBER BYTE SELFDESTRUCT 0xC8 0xA9 LOG1 RETURNDATACOPY 0xD8 CALLDATASIZE 0xA9 0xEE 0xEB BYTE 0x23 0xF9 ISZERO DIFFICULTY 0xE6 0xB9 0xAC PUSH5 0x736F6C6343 STOP ADDMOD STOP STOP CALLER "
				},
				"gasEstimates": {
					"creation": {
						"codeDepositCost": "130000",
						"executionCost": "177",
						"totalCost": "130177"
					},
					"external": {
						"a()": "1107",
						"getContractName()": "infinite",
						"setA(uint256)": "20420"
					}
				},
				"methodIdentifiers": {
					"a()": "0dbe671f",
					"getContractName()": "f5f5ba72",
					"setA(uint256)": "ee919d50"
				}
			},
			"storageLayout": {
				"storage": [
					{
						"astId": 62,
						"contract": "chapter02/9type3.sol:type13",
						"label": "a",
						"offset": 0,
						"slot": "0",
						"type": "t_uint256"
					}
				],
				"types": {
					"t_uint256": {
						"encoding": "inplace",
						"label": "uint256",
						"numberOfBytes": "32"
					}
				}
			},
			"userdoc": {
				"kind": "user",
				"methods": {},
				"version": 1
			}
		}
	}
}