{
	"chapter02/9type3.sol": {
		"type4": {
			"abi": [
				{
					"inputs": [],
					"name": "accuracy",
					"outputs": [
						{
							"internalType": "uint256",
							"name": "",
							"type": "uint256"
						}
					],
					"stateMutability": "view",
					"type": "function"
				},
				{
					"inputs": [],
					"name": "i1",
					"outputs": [
						{
							"internalType": "uint256",
							"name": "",
							"type": "uint256"
						}
					],
					"stateMutability": "view",
					"type": "function"
				},
				{
					"inputs": [
						{
							"internalType": "uint256",
							"name": "_param",
							"type": "uint256"
						}
					],
					"name": "mycal",
					"outputs": [
						{
							"internalType": "uint256",
							"name": "",
							"type": "uint256"
						}
					],
					"stateMutability": "view",
					"type": "function"
				},
				{
					"inputs": [
						{
							"internalType": "uint256",
							"name": "_param",
							"type": "uint256"
						}
					],
					"name": "mycalPlus",
					"outputs": [
						{
							"internalType": "uint256",
							"name": "",
							"type": "uint256"
						}
					],
					"stateMutability": "view",
					"type": "function"
				}
			],
			"devdoc": {
				"kind": "dev",
				"methods": {},
				"version": 1
			},
			"evm": {
				"assembly": "    /* \"chapter02/9type3.sol\":1343:1780  contract type4{... */\n  mstore(0x40, 0x80)\n    /* \"chapter02/9type3.sol\":1412:1413  1 */\n  0x01\n    /* \"chapter02/9type3.sol\":1395:1413  uint public i1 = 1 */\n  0x00\n  sstore\n    /* \"chapter02/9type3.sol\":1554:1557  100 */\n  0x64\n    /* \"chapter02/9type3.sol\":1532:1557  uint public accuracy =100 */\n  0x01\n  sstore\n    /* \"chapter02/9type3.sol\":1343:1780  contract type4{... */\n  callvalue\n  dup1\n  iszero\n  tag_1\n  jumpi\n  0x00\n  dup1\n  revert\ntag_1:\n  pop\n  dataSize(sub_0)\n  dup1\n  dataOffset(sub_0)\n  0x00\n  codecopy\n  0x00\n  return\nstop\n\nsub_0: assembly {\n        /* \"chapter02/9type3.sol\":1343:1780  contract type4{... */\n      mstore(0x40, 0x80)\n      callvalue\n      dup1\n      iszero\n      tag_1\n      jumpi\n      0x00\n      dup1\n      revert\n    tag_1:\n      pop\n      jumpi(tag_2, lt(calldatasize, 0x04))\n      shr(0xe0, calldataload(0x00))\n      dup1\n      0x28897238\n      eq\n      tag_3\n      jumpi\n      dup1\n      0x83835c01\n      eq\n      tag_4\n      jumpi\n      dup1\n      0x98cedaf5\n      eq\n      tag_5\n      jumpi\n      dup1\n      0xe07d5acb\n      eq\n      tag_6\n      jumpi\n    tag_2:\n      0x00\n      dup1\n      revert\n        /* \"chapter02/9type3.sol\":1395:1413  uint public i1 = 1 */\n    tag_3:\n      tag_7\n      tag_8\n      jump\t// in\n    tag_7:\n      mload(0x40)\n      tag_9\n      swap2\n      swap1\n      tag_10\n      jump\t// in\n    tag_9:\n      mload(0x40)\n      dup1\n      swap2\n      sub\n      swap1\n      return\n        /* \"chapter02/9type3.sol\":1532:1557  uint public accuracy =100 */\n    tag_4:\n      tag_11\n      tag_12\n      jump\t// in\n    tag_11:\n      mload(0x40)\n      tag_13\n      swap2\n      swap1\n      tag_10\n      jump\t// in\n    tag_13:\n      mload(0x40)\n      dup1\n      swap2\n      sub\n      swap1\n      return\n        /* \"chapter02/9type3.sol\":1420:1514  function mycal(uint _param)external view returns(uint){... */\n    tag_5:\n      tag_14\n      0x04\n      dup1\n      calldatasize\n      sub\n      dup2\n      add\n      swap1\n      tag_15\n      swap2\n      swap1\n      tag_16\n      jump\t// in\n    tag_15:\n      tag_17\n      jump\t// in\n    tag_14:\n      mload(0x40)\n      tag_18\n      swap2\n      swap1\n      tag_10\n      jump\t// in\n    tag_18:\n      mload(0x40)\n      dup1\n      swap2\n      sub\n      swap1\n      return\n        /* \"chapter02/9type3.sol\":1658:1778  function mycalPlus(uint _param)external view returns(uint){... */\n    tag_6:\n      tag_19\n      0x04\n      dup1\n      calldatasize\n      sub\n      dup2\n      add\n      swap1\n      tag_20\n      swap2\n      swap1\n      tag_16\n      jump\t// in\n    tag_20:\n      tag_21\n      jump\t// in\n    tag_19:\n      mload(0x40)\n      tag_22\n      swap2\n      swap1\n      tag_10\n      jump\t// in\n    tag_22:\n      mload(0x40)\n      dup1\n      swap2\n      sub\n      swap1\n      return\n        /* \"chapter02/9type3.sol\":1395:1413  uint public i1 = 1 */\n    tag_8:\n      sload(0x00)\n      dup2\n      jump\t// out\n        /* \"chapter02/9type3.sol\":1532:1557  uint public accuracy =100 */\n    tag_12:\n      sload(0x01)\n      dup2\n      jump\t// out\n        /* \"chapter02/9type3.sol\":1420:1514  function mycal(uint _param)external view returns(uint){... */\n    tag_17:\n        /* \"chapter02/9type3.sol\":1469:1473  uint */\n      0x00\n        /* \"chapter02/9type3.sol\":1501:1507  _param */\n      dup2\n        /* \"chapter02/9type3.sol\":1494:1500  _param */\n      dup3\n        /* \"chapter02/9type3.sol\":1491:1493  i1 */\n      sload(0x00)\n        /* \"chapter02/9type3.sol\":1491:1500  i1/_param */\n      tag_24\n      swap2\n      swap1\n      tag_25\n      jump\t// in\n    tag_24:\n        /* \"chapter02/9type3.sol\":1491:1507  i1/_param*_param */\n      tag_26\n      swap2\n      swap1\n      tag_27\n      jump\t// in\n    tag_26:\n        /* \"chapter02/9type3.sol\":1484:1507  return i1/_param*_param */\n      swap1\n      pop\n        /* \"chapter02/9type3.sol\":1420:1514  function mycal(uint _param)external view returns(uint){... */\n      swap2\n      swap1\n      pop\n      jump\t// out\n        /* \"chapter02/9type3.sol\":1658:1778  function mycalPlus(uint _param)external view returns(uint){... */\n    tag_21:\n        /* \"chapter02/9type3.sol\":1711:1715  uint */\n      0x00\n        /* \"chapter02/9type3.sol\":1763:1771  accuracy */\n      sload(0x01)\n        /* \"chapter02/9type3.sol\":1756:1762  _param */\n      dup3\n        /* \"chapter02/9type3.sol\":1749:1755  _param */\n      dup4\n        /* \"chapter02/9type3.sol\":1740:1748  accuracy */\n      sload(0x01)\n        /* \"chapter02/9type3.sol\":1737:1739  i1 */\n      sload(0x00)\n        /* \"chapter02/9type3.sol\":1737:1748  i1*accuracy */\n      tag_29\n      swap2\n      swap1\n      tag_27\n      jump\t// in\n    tag_29:\n        /* \"chapter02/9type3.sol\":1737:1755  i1*accuracy/_param */\n      tag_30\n      swap2\n      swap1\n      tag_25\n      jump\t// in\n    tag_30:\n        /* \"chapter02/9type3.sol\":1737:1762  i1*accuracy/_param*_param */\n      tag_31\n      swap2\n      swap1\n      tag_27\n      jump\t// in\n    tag_31:\n        /* \"chapter02/9type3.sol\":1737:1771  i1*accuracy/_param*_param/accuracy */\n      tag_32\n      swap2\n      swap1\n      tag_25\n      jump\t// in\n    tag_32:\n        /* \"chapter02/9type3.sol\":1730:1771  return i1*accuracy/_param*_param/accuracy */\n      swap1\n      pop\n        /* \"chapter02/9type3.sol\":1658:1778  function mycalPlus(uint _param)external view returns(uint){... */\n      swap2\n      swap1\n      pop\n      jump\t// out\n        /* \"#utility.yul\":7:84   */\n    tag_33:\n        /* \"#utility.yul\":44:51   */\n      0x00\n        /* \"#utility.yul\":73:78   */\n      dup2\n        /* \"#utility.yul\":62:78   */\n      swap1\n      pop\n        /* \"#utility.yul\":7:84   */\n      swap2\n      swap1\n      pop\n      jump\t// out\n        /* \"#utility.yul\":90:208   */\n    tag_34:\n        /* \"#utility.yul\":177:201   */\n      tag_45\n        /* \"#utility.yul\":195:200   */\n      dup2\n        /* \"#utility.yul\":177:201   */\n      tag_33\n      jump\t// in\n    tag_45:\n        /* \"#utility.yul\":172:175   */\n      dup3\n        /* \"#utility.yul\":165:202   */\n      mstore\n        /* \"#utility.yul\":90:208   */\n      pop\n      pop\n      jump\t// out\n        /* \"#utility.yul\":214:436   */\n    tag_10:\n        /* \"#utility.yul\":307:311   */\n      0x00\n        /* \"#utility.yul\":345:347   */\n      0x20\n        /* \"#utility.yul\":334:343   */\n      dup3\n        /* \"#utility.yul\":330:348   */\n      add\n        /* \"#utility.yul\":322:348   */\n      swap1\n      pop\n        /* \"#utility.yul\":358:429   */\n      tag_47\n        /* \"#utility.yul\":426:427   */\n      0x00\n        /* \"#utility.yul\":415:424   */\n      dup4\n        /* \"#utility.yul\":411:428   */\n      add\n        /* \"#utility.yul\":402:408   */\n      dup5\n        /* \"#utility.yul\":358:429   */\n      tag_34\n      jump\t// in\n    tag_47:\n        /* \"#utility.yul\":214:436   */\n      swap3\n      swap2\n      pop\n      pop\n      jump\t// out\n        /* \"#utility.yul\":523:640   */\n    tag_36:\n        /* \"#utility.yul\":632:633   */\n      0x00\n        /* \"#utility.yul\":629:630   */\n      dup1\n        /* \"#utility.yul\":622:634   */\n      revert\n        /* \"#utility.yul\":769:891   */\n    tag_38:\n        /* \"#utility.yul\":842:866   */\n      tag_52\n        /* \"#utility.yul\":860:865   */\n      dup2\n        /* \"#utility.yul\":842:866   */\n      tag_33\n      jump\t// in\n    tag_52:\n        /* \"#utility.yul\":835:840   */\n      dup2\n        /* \"#utility.yul\":832:867   */\n      eq\n        /* \"#utility.yul\":822:885   */\n      tag_53\n      jumpi\n        /* \"#utility.yul\":881:882   */\n      0x00\n        /* \"#utility.yul\":878:879   */\n      dup1\n        /* \"#utility.yul\":871:883   */\n      revert\n        /* \"#utility.yul\":822:885   */\n    tag_53:\n        /* \"#utility.yul\":769:891   */\n      pop\n      jump\t// out\n        /* \"#utility.yul\":897:1036   */\n    tag_39:\n        /* \"#utility.yul\":943:948   */\n      0x00\n        /* \"#utility.yul\":981:987   */\n      dup2\n        /* \"#utility.yul\":968:988   */\n      calldataload\n        /* \"#utility.yul\":959:988   */\n      swap1\n      pop\n        /* \"#utility.yul\":997:1030   */\n      tag_55\n        /* \"#utility.yul\":1024:1029   */\n      dup2\n        /* \"#utility.yul\":997:1030   */\n      tag_38\n      jump\t// in\n    tag_55:\n        /* \"#utility.yul\":897:1036   */\n      swap3\n      swap2\n      pop\n      pop\n      jump\t// out\n        /* \"#utility.yul\":1042:1371   */\n    tag_16:\n        /* \"#utility.yul\":1101:1107   */\n      0x00\n        /* \"#utility.yul\":1150:1152   */\n      0x20\n        /* \"#utility.yul\":1138:1147   */\n      dup3\n        /* \"#utility.yul\":1129:1136   */\n      dup5\n        /* \"#utility.yul\":1125:1148   */\n      sub\n        /* \"#utility.yul\":1121:1153   */\n      slt\n        /* \"#utility.yul\":1118:1237   */\n      iszero\n      tag_57\n      jumpi\n        /* \"#utility.yul\":1156:1235   */\n      tag_58\n      tag_36\n      jump\t// in\n    tag_58:\n        /* \"#utility.yul\":1118:1237   */\n    tag_57:\n        /* \"#utility.yul\":1276:1277   */\n      0x00\n        /* \"#utility.yul\":1301:1354   */\n      tag_59\n        /* \"#utility.yul\":1346:1353   */\n      dup5\n        /* \"#utility.yul\":1337:1343   */\n      dup3\n        /* \"#utility.yul\":1326:1335   */\n      dup6\n        /* \"#utility.yul\":1322:1344   */\n      add\n        /* \"#utility.yul\":1301:1354   */\n      tag_39\n      jump\t// in\n    tag_59:\n        /* \"#utility.yul\":1291:1354   */\n      swap2\n      pop\n        /* \"#utility.yul\":1247:1364   */\n      pop\n        /* \"#utility.yul\":1042:1371   */\n      swap3\n      swap2\n      pop\n      pop\n      jump\t// out\n        /* \"#utility.yul\":1377:1557   */\n    tag_40:\n        /* \"#utility.yul\":1425:1502   */\n      0x4e487b7100000000000000000000000000000000000000000000000000000000\n        /* \"#utility.yul\":1422:1423   */\n      0x00\n        /* \"#utility.yul\":1415:1503   */\n      mstore\n        /* \"#utility.yul\":1522:1526   */\n      0x12\n        /* \"#utility.yul\":1519:1520   */\n      0x04\n        /* \"#utility.yul\":1512:1527   */\n      mstore\n        /* \"#utility.yul\":1546:1550   */\n      0x24\n        /* \"#utility.yul\":1543:1544   */\n      0x00\n        /* \"#utility.yul\":1536:1551   */\n      revert\n        /* \"#utility.yul\":1563:1743   */\n    tag_41:\n        /* \"#utility.yul\":1611:1688   */\n      0x4e487b7100000000000000000000000000000000000000000000000000000000\n        /* \"#utility.yul\":1608:1609   */\n      0x00\n        /* \"#utility.yul\":1601:1689   */\n      mstore\n        /* \"#utility.yul\":1708:1712   */\n      0x11\n        /* \"#utility.yul\":1705:1706   */\n      0x04\n        /* \"#utility.yul\":1698:1713   */\n      mstore\n        /* \"#utility.yul\":1732:1736   */\n      0x24\n        /* \"#utility.yul\":1729:1730   */\n      0x00\n        /* \"#utility.yul\":1722:1737   */\n      revert\n        /* \"#utility.yul\":1749:1934   */\n    tag_25:\n        /* \"#utility.yul\":1789:1790   */\n      0x00\n        /* \"#utility.yul\":1806:1826   */\n      tag_63\n        /* \"#utility.yul\":1824:1825   */\n      dup3\n        /* \"#utility.yul\":1806:1826   */\n      tag_33\n      jump\t// in\n    tag_63:\n        /* \"#utility.yul\":1801:1826   */\n      swap2\n      pop\n        /* \"#utility.yul\":1840:1860   */\n      tag_64\n        /* \"#utility.yul\":1858:1859   */\n      dup4\n        /* \"#utility.yul\":1840:1860   */\n      tag_33\n      jump\t// in\n    tag_64:\n        /* \"#utility.yul\":1835:1860   */\n      swap3\n      pop\n        /* \"#utility.yul\":1879:1880   */\n      dup3\n        /* \"#utility.yul\":1869:1904   */\n      tag_65\n      jumpi\n        /* \"#utility.yul\":1884:1902   */\n      tag_66\n      tag_40\n      jump\t// in\n    tag_66:\n        /* \"#utility.yul\":1869:1904   */\n    tag_65:\n        /* \"#utility.yul\":1926:1927   */\n      dup3\n        /* \"#utility.yul\":1923:1924   */\n      dup3\n        /* \"#utility.yul\":1919:1928   */\n      div\n        /* \"#utility.yul\":1914:1928   */\n      swap1\n      pop\n        /* \"#utility.yul\":1749:1934   */\n      swap3\n      swap2\n      pop\n      pop\n      jump\t// out\n        /* \"#utility.yul\":1940:2288   */\n    tag_27:\n        /* \"#utility.yul\":1980:1987   */\n      0x00\n        /* \"#utility.yul\":2003:2023   */\n      tag_68\n        /* \"#utility.yul\":2021:2022   */\n      dup3\n        /* \"#utility.yul\":2003:2023   */\n      tag_33\n      jump\t// in\n    tag_68:\n        /* \"#utility.yul\":1998:2023   */\n      swap2\n      pop\n        /* \"#utility.yul\":2037:2057   */\n      tag_69\n        /* \"#utility.yul\":2055:2056   */\n      dup4\n        /* \"#utility.yul\":2037:2057   */\n      tag_33\n      jump\t// in\n    tag_69:\n        /* \"#utility.yul\":2032:2057   */\n      swap3\n      pop\n        /* \"#utility.yul\":2225:2226   */\n      dup2\n        /* \"#utility.yul\":2157:2223   */\n      0xffffffffffffffffffffffffffffffffffffffffffffffffffffffffffffffff\n        /* \"#utility.yul\":2153:2227   */\n      div\n        /* \"#utility.yul\":2150:2151   */\n      dup4\n        /* \"#utility.yul\":2147:2228   */\n      gt\n        /* \"#utility.yul\":2142:2143   */\n      dup3\n        /* \"#utility.yul\":2135:2144   */\n      iszero\n        /* \"#utility.yul\":2128:2145   */\n      iszero\n        /* \"#utility.yul\":2124:2229   */\n      and\n        /* \"#utility.yul\":2121:2252   */\n      iszero\n      tag_70\n      jumpi\n        /* \"#utility.yul\":2232:2250   */\n      tag_71\n      tag_41\n      jump\t// in\n    tag_71:\n        /* \"#utility.yul\":2121:2252   */\n    tag_70:\n        /* \"#utility.yul\":2280:2281   */\n      dup3\n        /* \"#utility.yul\":2277:2278   */\n      dup3\n        /* \"#utility.yul\":2273:2282   */\n      mul\n        /* \"#utility.yul\":2262:2282   */\n      swap1\n      pop\n        /* \"#utility.yul\":1940:2288   */\n      swap3\n      swap2\n      pop\n      pop\n      jump\t// out\n\n    auxdata: 0xa264697066735822122010f8c94266dbd572e2d6da94fceddb7e3ad8ffc99bb6a183be206c97a34fae6a64736f6c634300080f0033\n}\n",
				"bytecode": {
					"linkReferences": {},
					"object": "60806040526001600055606460015534801561001a57600080fd5b506103088061002a6000396000f3fe608060405234801561001057600080fd5b506004361061004c5760003560e01c8063288972381461005157806383835c011461006f57806398cedaf51461008d578063e07d5acb146100bd575b600080fd5b6100596100ed565b6040516100669190610170565b60405180910390f35b6100776100f3565b6040516100849190610170565b60405180910390f35b6100a760048036038101906100a291906101bc565b6100f9565b6040516100b49190610170565b60405180910390f35b6100d760048036038101906100d291906101bc565b61011b565b6040516100e49190610170565b60405180910390f35b60005481565b60015481565b6000818260005461010a9190610247565b6101149190610278565b9050919050565b600060015482836001546000546101329190610278565b61013c9190610247565b6101469190610278565b6101509190610247565b9050919050565b6000819050919050565b61016a81610157565b82525050565b60006020820190506101856000830184610161565b92915050565b600080fd5b61019981610157565b81146101a457600080fd5b50565b6000813590506101b681610190565b92915050565b6000602082840312156101d2576101d161018b565b5b60006101e0848285016101a7565b91505092915050565b7f4e487b7100000000000000000000000000000000000000000000000000000000600052601260045260246000fd5b7f4e487b7100000000000000000000000000000000000000000000000000000000600052601160045260246000fd5b600061025282610157565b915061025d83610157565b92508261026d5761026c6101e9565b5b828204905092915050565b600061028382610157565b915061028e83610157565b9250817fffffffffffffffffffffffffffffffffffffffffffffffffffffffffffffffff04831182151516156102c7576102c6610218565b5b82820290509291505056fea264697066735822122010f8c94266dbd572e2d6da94fceddb7e3ad8ffc99bb6a183be206c97a34fae6a64736f6c634300080f0033",
					"opcodes": "PUSH1 0x80 PUSH1 0x40 MSTORE PUSH1 0x1 PUSH1 0x0 SSTORE PUSH1 0x64 PUSH1 0x1 SSTORE CALLVALUE DUP1 ISZERO PUSH2 0x1A JUMPI PUSH1 0x0 DUP1 REVERT JUMPDEST POP PUSH2 0x308 DUP1 PUSH2 0x2A PUSH1 0x0 CODECOPY PUSH1 0x0 RETURN INVALID PUSH1 0x80 PUSH1 0x40 MSTORE CALLVALUE DUP1 ISZERO PUSH2 0x10 JUMPI PUSH1 0x0 DUP1 REVERT JUMPDEST POP PUSH1 0x4 CALLDATASIZE LT PUSH2 0x4C JUMPI PUSH1 0x0 CALLDATALOAD PUSH1 0xE0 SHR DUP1 PUSH4 0x28897238 EQ PUSH2 0x51 JUMPI DUP1 PUSH4 0x83835C01 EQ PUSH2 0x6F JUMPI DUP1 PUSH4 0x98CEDAF5 EQ PUSH2 0x8D JUMPI DUP1 PUSH4 0xE07D5ACB EQ PUSH2 0xBD JUMPI JUMPDEST PUSH1 0x0 DUP1 REVERT JUMPDEST PUSH2 0x59 PUSH2 0xED JUMP JUMPDEST PUSH1 0x40 MLOAD PUSH2 0x66 SWAP2 SWAP1 PUSH2 0x170 JUMP JUMPDEST PUSH1 0x40 MLOAD DUP1 SWAP2 SUB SWAP1 RETURN JUMPDEST PUSH2 0x77 PUSH2 0xF3 JUMP JUMPDEST PUSH1 0x40 MLOAD PUSH2 0x84 SWAP2 SWAP1 PUSH2 0x170 JUMP JUMPDEST PUSH1 0x40 MLOAD DUP1 SWAP2 SUB SWAP1 RETURN JUMPDEST PUSH2 0xA7 PUSH1 0x4 DUP1 CALLDATASIZE SUB DUP2 ADD SWAP1 PUSH2 0xA2 SWAP2 SWAP1 PUSH2 0x1BC JUMP JUMPDEST PUSH2 0xF9 JUMP JUMPDEST PUSH1 0x40 MLOAD PUSH2 0xB4 SWAP2 SWAP1 PUSH2 0x170 JUMP JUMPDEST PUSH1 0x40 MLOAD DUP1 SWAP2 SUB SWAP1 RETURN JUMPDEST PUSH2 0xD7 PUSH1 0x4 DUP1 CALLDATASIZE SUB DUP2 ADD SWAP1 PUSH2 0xD2 SWAP2 SWAP1 PUSH2 0x1BC JUMP JUMPDEST PUSH2 0x11B JUMP JUMPDEST PUSH1 0x40 MLOAD PUSH2 0xE4 SWAP2 SWAP1 PUSH2 0x170 JUMP JUMPDEST PUSH1 0x40 MLOAD DUP1 SWAP2 SUB SWAP1 RETURN JUMPDEST PUSH1 0x0 SLOAD DUP2 JUMP JUMPDEST PUSH1 0x1 SLOAD DUP2 JUMP JUMPDEST PUSH1 0x0 DUP2 DUP3 PUSH1 0x0 SLOAD PUSH2 0x10A SWAP2 SWAP1 PUSH2 0x247 JUMP JUMPDEST PUSH2 0x114 SWAP2 SWAP1 PUSH2 0x278 JUMP JUMPDEST SWAP1 POP SWAP2 SWAP1 POP JUMP JUMPDEST PUSH1 0x0 PUSH1 0x1 SLOAD DUP3 DUP4 PUSH1 0x1 SLOAD PUSH1 0x0 SLOAD PUSH2 0x132 SWAP2 SWAP1 PUSH2 0x278 JUMP JUMPDEST PUSH2 0x13C SWAP2 SWAP1 PUSH2 0x247 JUMP JUMPDEST PUSH2 0x146 SWAP2 SWAP1 PUSH2 0x278 JUMP JUMPDEST PUSH2 0x150 SWAP2 SWAP1 PUSH2 0x247 JUMP JUMPDEST SWAP1 POP SWAP2 SWAP1 POP JUMP JUMPDEST PUSH1 0x0 DUP2 SWAP1 POP SWAP2 SWAP1 POP JUMP JUMPDEST PUSH2 0x16A DUP2 PUSH2 0x157 JUMP JUMPDEST DUP3 MSTORE POP POP JUMP JUMPDEST PUSH1 0x0 PUSH1 0x20 DUP3 ADD SWAP1 POP PUSH2 0x185 PUSH1 0x0 DUP4 ADD DUP5 PUSH2 0x161 JUMP JUMPDEST SWAP3 SWAP2 POP POP JUMP JUMPDEST PUSH1 0x0 DUP1 REVERT JUMPDEST PUSH2 0x199 DUP2 PUSH2 0x157 JUMP JUMPDEST DUP2 EQ PUSH2 0x1A4 JUMPI PUSH1 0x0 DUP1 REVERT JUMPDEST POP JUMP JUMPDEST PUSH1 0x0 DUP2 CALLDATALOAD SWAP1 POP PUSH2 0x1B6 DUP2 PUSH2 0x190 JUMP JUMPDEST SWAP3 SWAP2 POP POP JUMP JUMPDEST PUSH1 0x0 PUSH1 0x20 DUP3 DUP5 SUB SLT ISZERO PUSH2 0x1D2 JUMPI PUSH2 0x1D1 PUSH2 0x18B JUMP JUMPDEST JUMPDEST PUSH1 0x0 PUSH2 0x1E0 DUP5 DUP3 DUP6 ADD PUSH2 0x1A7 JUMP JUMPDEST SWAP2 POP POP SWAP3 SWAP2 POP POP JUMP JUMPDEST PUSH32 0x4E487B7100000000000000000000000000000000000000000000000000000000 PUSH1 0x0 MSTORE PUSH1 0x12 PUSH1 0x4 MSTORE PUSH1 0x24 PUSH1 0x0 REVERT JUMPDEST PUSH32 0x4E487B7100000000000000000000000000000000000000000000000000000000 PUSH1 0x0 MSTORE PUSH1 0x11 PUSH1 0x4 MSTORE PUSH1 0x24 PUSH1 0x0 REVERT JUMPDEST PUSH1 0x0 PUSH2 0x252 DUP3 PUSH2 0x157 JUMP JUMPDEST SWAP2 POP PUSH2 0x25D DUP4 PUSH2 0x157 JUMP JUMPDEST SWAP3 POP DUP3 PUSH2 0x26D JUMPI PUSH2 0x26C PUSH2 0x1E9 JUMP JUMPDEST JUMPDEST DUP3 DUP3 DIV SWAP1 POP SWAP3 SWAP2 POP POP JUMP JUMPDEST PUSH1 0x0 PUSH2 0x283 DUP3 PUSH2 0x157 JUMP JUMPDEST SWAP2 POP PUSH2 0x28E DUP4 PUSH2 0x157 JUMP JUMPDEST SWAP3 POP DUP2 PUSH32 0xFFFFFFFFFFFFFFFFFFFFFFFFFFFFFFFFFFFFFFFFFFFFFFFFFFFFFFFFFFFFFFFF DIV DUP4 GT DUP3 ISZERO ISZERO AND ISZERO PUSH2 0x2C7 JUMPI PUSH2 0x2C6 PUSH2 0x218 JUMP JUMPDEST JUMPDEST DUP3 DUP3 MUL SWAP1 POP SWAP3 SWAP2 POP POP JUMP INVALID LOG2 PUSH5 0x6970667358 0x22 SLT KECCAK256 LT 0xF8 0xC9 TIMESTAMP PUSH7 0xDBD572E2D6DA94 0xFC 0xED 0xDB PUSH31 0x3AD8FFC99BB6A183BE206C97A34FAE6A64736F6C634300080F003300000000 "
				},
				"gasEstimates": {
					"creation": {
						"codeDepositCost": "155200",
						"executionCost": "44414",
						"totalCost": "199614"
					},
					"external": {
						"accuracy()": "2429",
						"i1()": "2407",
						"mycal(uint256)": "infinite",
						"mycalPlus(uint256)": "infinite"
					}
				},
				"methodIdentifiers": {
					"accuracy()": "83835c01",
					"i1()": "28897238",
					"mycal(uint256)": "98cedaf5",
					"mycalPlus(uint256)": "e07d5acb"
				}
			},
			"storageLayout": {
				"storage": [
					{
						"astId": 98,
						"contract": "chapter02/9type3.sol:type4",
						"label": "i1",
						"offset": 0,
						"slot": "0",
						"type": "t_uint256"
					},
					{
						"astId": 115,
						"contract": "chapter02/9type3.sol:type4",
						"label": "accuracy",
						"offset": 0,
						"slot": "1",
						"type": "t_uint256"
					}
				],
				"types": {
					"t_uint256": {
						"encoding": "inplace",
						"label": "uint256",
						"numberOfBytes": "32"
					}
				}
			},
			"userdoc": {
				"kind": "user",
				"methods": {},
				"version": 1
			}
		}
	}
}