{
	"chapter02/9type3.sol": {
		"type3": {
			"abi": [
				{
					"inputs": [],
					"name": "i1",
					"outputs": [
						{
							"internalType": "uint256",
							"name": "",
							"type": "uint256"
						}
					],
					"stateMutability": "view",
					"type": "function"
				},
				{
					"inputs": [],
					"name": "testWithNoUncheck",
					"outputs": [
						{
							"internalType": "uint256",
							"name": "",
							"type": "uint256"
						}
					],
					"stateMutability": "pure",
					"type": "function"
				},
				{
					"inputs": [],
					"name": "testWithUncheck",
					"outputs": [
						{
							"internalType": "uint256",
							"name": "",
							"type": "uint256"
						}
					],
					"stateMutability": "pure",
					"type": "function"
				}
			],
			"devdoc": {
				"kind": "dev",
				"methods": {},
				"version": 1
			},
			"evm": {
				"assembly": "    /* \"chapter02/9type3.sol\":6071:6474  contract type3{... */\n  mstore(0x40, 0x80)\n    /* \"chapter02/9type3.sol\":6123:6124  1 */\n  0x01\n    /* \"chapter02/9type3.sol\":6108:6122  type(uint).min */\n  0x00\n    /* \"chapter02/9type3.sol\":6108:6124  type(uint).min-1 */\n  tag_1\n  swap2\n  swap1\n  tag_2\n  jump\t// in\ntag_1:\n    /* \"chapter02/9type3.sol\":6091:6124  uint public i1 = type(uint).min-1 */\n  0x00\n  sstore\n    /* \"chapter02/9type3.sol\":6071:6474  contract type3{... */\n  callvalue\n  dup1\n  iszero\n  tag_3\n  jumpi\n  0x00\n  dup1\n  revert\ntag_3:\n  pop\n  jump(tag_4)\n    /* \"#utility.yul\":7:198   */\ntag_2:\n  0x00\n    /* \"#utility.yul\":67:87   */\n  tag_7\n    /* \"#utility.yul\":85:86   */\n  dup3\n    /* \"#utility.yul\":67:87   */\n  tag_8\n  jump\t// in\ntag_7:\n    /* \"#utility.yul\":62:87   */\n  swap2\n  pop\n    /* \"#utility.yul\":101:121   */\n  tag_9\n    /* \"#utility.yul\":119:120   */\n  dup4\n    /* \"#utility.yul\":101:121   */\n  tag_8\n  jump\t// in\ntag_9:\n    /* \"#utility.yul\":96:121   */\n  swap3\n  pop\n    /* \"#utility.yul\":140:141   */\n  dup3\n    /* \"#utility.yul\":137:138   */\n  dup3\n    /* \"#utility.yul\":134:142   */\n  lt\n    /* \"#utility.yul\":131:133   */\n  iszero\n  tag_10\n  jumpi\n    /* \"#utility.yul\":145:163   */\n  tag_11\n  tag_12\n  jump\t// in\ntag_11:\n    /* \"#utility.yul\":131:133   */\ntag_10:\n    /* \"#utility.yul\":190:191   */\n  dup3\n    /* \"#utility.yul\":187:188   */\n  dup3\n    /* \"#utility.yul\":183:192   */\n  sub\n    /* \"#utility.yul\":175:192   */\n  swap1\n  pop\n    /* \"#utility.yul\":52:198   */\n  swap3\n  swap2\n  pop\n  pop\n  jump\t// out\n    /* \"#utility.yul\":204:281   */\ntag_8:\n  0x00\n    /* \"#utility.yul\":270:275   */\n  dup2\n    /* \"#utility.yul\":259:275   */\n  swap1\n  pop\n    /* \"#utility.yul\":249:281   */\n  swap2\n  swap1\n  pop\n  jump\t// out\n    /* \"#utility.yul\":287:467   */\ntag_12:\n    /* \"#utility.yul\":335:412   */\n  0x4e487b7100000000000000000000000000000000000000000000000000000000\n    /* \"#utility.yul\":332:333   */\n  0x00\n    /* \"#utility.yul\":325:413   */\n  mstore\n    /* \"#utility.yul\":432:436   */\n  0x11\n    /* \"#utility.yul\":429:430   */\n  0x04\n    /* \"#utility.yul\":422:437   */\n  mstore\n    /* \"#utility.yul\":456:460   */\n  0x24\n    /* \"#utility.yul\":453:454   */\n  0x00\n    /* \"#utility.yul\":446:461   */\n  revert\n    /* \"chapter02/9type3.sol\":6071:6474  contract type3{... */\ntag_4:\n  dataSize(sub_0)\n  dup1\n  dataOffset(sub_0)\n  0x00\n  codecopy\n  0x00\n  return\nstop\n\nsub_0: assembly {\n        /* \"chapter02/9type3.sol\":6071:6474  contract type3{... */\n      mstore(0x40, 0x80)\n      callvalue\n      dup1\n      iszero\n      tag_1\n      jumpi\n      0x00\n      dup1\n      revert\n    tag_1:\n      pop\n      jumpi(tag_2, lt(calldatasize, 0x04))\n      shr(0xe0, calldataload(0x00))\n      dup1\n      0x28897238\n      eq\n      tag_3\n      jumpi\n      dup1\n      0x36d79ce0\n      eq\n      tag_4\n      jumpi\n      dup1\n      0xa0949d85\n      eq\n      tag_5\n      jumpi\n    tag_2:\n      0x00\n      dup1\n      revert\n        /* \"chapter02/9type3.sol\":6091:6124  uint public i1 = type(uint).min-1 */\n    tag_3:\n      tag_6\n      tag_7\n      jump\t// in\n    tag_6:\n      mload(0x40)\n      tag_8\n      swap2\n      swap1\n      tag_9\n      jump\t// in\n    tag_8:\n      mload(0x40)\n      dup1\n      swap2\n      sub\n      swap1\n      return\n        /* \"chapter02/9type3.sol\":6186:6316  function testWithNoUncheck() public pure returns(uint) {... */\n    tag_4:\n      tag_10\n      tag_11\n      jump\t// in\n    tag_10:\n      mload(0x40)\n      tag_12\n      swap2\n      swap1\n      tag_9\n      jump\t// in\n    tag_12:\n      mload(0x40)\n      dup1\n      swap2\n      sub\n      swap1\n      return\n        /* \"chapter02/9type3.sol\":6320:6472  function testWithUncheck()public pure returns(uint){... */\n    tag_5:\n      tag_13\n      tag_14\n      jump\t// in\n    tag_13:\n      mload(0x40)\n      tag_15\n      swap2\n      swap1\n      tag_9\n      jump\t// in\n    tag_15:\n      mload(0x40)\n      dup1\n      swap2\n      sub\n      swap1\n      return\n        /* \"chapter02/9type3.sol\":6091:6124  uint public i1 = type(uint).min-1 */\n    tag_7:\n      sload(0x00)\n      dup2\n      jump\t// out\n        /* \"chapter02/9type3.sol\":6186:6316  function testWithNoUncheck() public pure returns(uint) {... */\n    tag_11:\n        /* \"chapter02/9type3.sol\":6235:6239  uint */\n      0x00\n        /* \"chapter02/9type3.sol\":6250:6256  uint a */\n      dup1\n        /* \"chapter02/9type3.sol\":6259:6260  0 */\n      0x00\n        /* \"chapter02/9type3.sol\":6250:6260  uint a = 0 */\n      swap1\n      pop\n        /* \"chapter02/9type3.sol\":6269:6272  a-- */\n      dup1\n      dup1\n      tag_17\n      swap1\n      tag_18\n      jump\t// in\n    tag_17:\n      swap2\n      pop\n      pop\n        /* \"chapter02/9type3.sol\":6309:6310  a */\n      dup1\n        /* \"chapter02/9type3.sol\":6302:6310  return a */\n      swap2\n      pop\n      pop\n        /* \"chapter02/9type3.sol\":6186:6316  function testWithNoUncheck() public pure returns(uint) {... */\n      swap1\n      jump\t// out\n        /* \"chapter02/9type3.sol\":6320:6472  function testWithUncheck()public pure returns(uint){... */\n    tag_14:\n        /* \"chapter02/9type3.sol\":6366:6370  uint */\n      0x00\n        /* \"chapter02/9type3.sol\":6380:6386  uint a */\n      dup1\n        /* \"chapter02/9type3.sol\":6389:6390  0 */\n      0x00\n        /* \"chapter02/9type3.sol\":6380:6390  uint a = 0 */\n      swap1\n      pop\n        /* \"chapter02/9type3.sol\":6409:6412  a-- */\n      dup1\n      dup1\n      0x01\n      swap1\n      sub\n      swap2\n      pop\n      pop\n        /* \"chapter02/9type3.sol\":6465:6466  a */\n      dup1\n        /* \"chapter02/9type3.sol\":6457:6466  return  a */\n      swap2\n      pop\n      pop\n        /* \"chapter02/9type3.sol\":6320:6472  function testWithUncheck()public pure returns(uint){... */\n      swap1\n      jump\t// out\n        /* \"#utility.yul\":7:125   */\n    tag_21:\n        /* \"#utility.yul\":94:118   */\n      tag_23\n        /* \"#utility.yul\":112:117   */\n      dup2\n        /* \"#utility.yul\":94:118   */\n      tag_24\n      jump\t// in\n    tag_23:\n        /* \"#utility.yul\":89:92   */\n      dup3\n        /* \"#utility.yul\":82:119   */\n      mstore\n        /* \"#utility.yul\":72:125   */\n      pop\n      pop\n      jump\t// out\n        /* \"#utility.yul\":131:353   */\n    tag_9:\n      0x00\n        /* \"#utility.yul\":262:264   */\n      0x20\n        /* \"#utility.yul\":251:260   */\n      dup3\n        /* \"#utility.yul\":247:265   */\n      add\n        /* \"#utility.yul\":239:265   */\n      swap1\n      pop\n        /* \"#utility.yul\":275:346   */\n      tag_26\n        /* \"#utility.yul\":343:344   */\n      0x00\n        /* \"#utility.yul\":332:341   */\n      dup4\n        /* \"#utility.yul\":328:345   */\n      add\n        /* \"#utility.yul\":319:325   */\n      dup5\n        /* \"#utility.yul\":275:346   */\n      tag_21\n      jump\t// in\n    tag_26:\n        /* \"#utility.yul\":229:353   */\n      swap3\n      swap2\n      pop\n      pop\n      jump\t// out\n        /* \"#utility.yul\":359:436   */\n    tag_24:\n      0x00\n        /* \"#utility.yul\":425:430   */\n      dup2\n        /* \"#utility.yul\":414:430   */\n      swap1\n      pop\n        /* \"#utility.yul\":404:436   */\n      swap2\n      swap1\n      pop\n      jump\t// out\n        /* \"#utility.yul\":442:613   */\n    tag_18:\n      0x00\n        /* \"#utility.yul\":504:528   */\n      tag_29\n        /* \"#utility.yul\":522:527   */\n      dup3\n        /* \"#utility.yul\":504:528   */\n      tag_24\n      jump\t// in\n    tag_29:\n        /* \"#utility.yul\":495:528   */\n      swap2\n      pop\n        /* \"#utility.yul\":550:554   */\n      0x00\n        /* \"#utility.yul\":543:548   */\n      dup3\n        /* \"#utility.yul\":540:555   */\n      eq\n        /* \"#utility.yul\":537:539   */\n      iszero\n      tag_30\n      jumpi\n        /* \"#utility.yul\":558:576   */\n      tag_31\n      tag_32\n      jump\t// in\n    tag_31:\n        /* \"#utility.yul\":537:539   */\n    tag_30:\n        /* \"#utility.yul\":605:606   */\n      0x01\n        /* \"#utility.yul\":598:603   */\n      dup3\n        /* \"#utility.yul\":594:607   */\n      sub\n        /* \"#utility.yul\":587:607   */\n      swap1\n      pop\n        /* \"#utility.yul\":485:613   */\n      swap2\n      swap1\n      pop\n      jump\t// out\n        /* \"#utility.yul\":619:799   */\n    tag_32:\n        /* \"#utility.yul\":667:744   */\n      0x4e487b7100000000000000000000000000000000000000000000000000000000\n        /* \"#utility.yul\":664:665   */\n      0x00\n        /* \"#utility.yul\":657:745   */\n      mstore\n        /* \"#utility.yul\":764:768   */\n      0x11\n        /* \"#utility.yul\":761:762   */\n      0x04\n        /* \"#utility.yul\":754:769   */\n      mstore\n        /* \"#utility.yul\":788:792   */\n      0x24\n        /* \"#utility.yul\":785:786   */\n      0x00\n        /* \"#utility.yul\":778:793   */\n      revert\n\n    auxdata: 0xa26469706673582212201e2138e390a16c76aa86df7548a2d67a7bd349c3c4b20487b13cbc281b1cf76a64736f6c63430008000033\n}\n",
				"bytecode": {
					"linkReferences": {},
					"object": "6080604052600160006100129190610027565b60005534801561002157600080fd5b50610094565b60006100328261005b565b915061003d8361005b565b9250828210156100505761004f610065565b5b828203905092915050565b6000819050919050565b7f4e487b7100000000000000000000000000000000000000000000000000000000600052601160045260246000fd5b61019c806100a36000396000f3fe608060405234801561001057600080fd5b50600436106100415760003560e01c8063288972381461004657806336d79ce014610064578063a0949d8514610082575b600080fd5b61004e6100a0565b60405161005b91906100e8565b60405180910390f35b61006c6100a6565b60405161007991906100e8565b60405180910390f35b61008a6100c2565b60405161009791906100e8565b60405180910390f35b60005481565b6000806000905080806100b89061010d565b9150508091505090565b600080600090508080600190039150508091505090565b6100e281610103565b82525050565b60006020820190506100fd60008301846100d9565b92915050565b6000819050919050565b600061011882610103565b9150600082141561012c5761012b610137565b5b600182039050919050565b7f4e487b7100000000000000000000000000000000000000000000000000000000600052601160045260246000fdfea26469706673582212201e2138e390a16c76aa86df7548a2d67a7bd349c3c4b20487b13cbc281b1cf76a64736f6c63430008000033",
					"opcodes": "PUSH1 0x80 PUSH1 0x40 MSTORE PUSH1 0x1 PUSH1 0x0 PUSH2 0x12 SWAP2 SWAP1 PUSH2 0x27 JUMP JUMPDEST PUSH1 0x0 SSTORE CALLVALUE DUP1 ISZERO PUSH2 0x21 JUMPI PUSH1 0x0 DUP1 REVERT JUMPDEST POP PUSH2 0x94 JUMP JUMPDEST PUSH1 0x0 PUSH2 0x32 DUP3 PUSH2 0x5B JUMP JUMPDEST SWAP2 POP PUSH2 0x3D DUP4 PUSH2 0x5B JUMP JUMPDEST SWAP3 POP DUP3 DUP3 LT ISZERO PUSH2 0x50 JUMPI PUSH2 0x4F PUSH2 0x65 JUMP JUMPDEST JUMPDEST DUP3 DUP3 SUB SWAP1 POP SWAP3 SWAP2 POP POP JUMP JUMPDEST PUSH1 0x0 DUP2 SWAP1 POP SWAP2 SWAP1 POP JUMP JUMPDEST PUSH32 0x4E487B7100000000000000000000000000000000000000000000000000000000 PUSH1 0x0 MSTORE PUSH1 0x11 PUSH1 0x4 MSTORE PUSH1 0x24 PUSH1 0x0 REVERT JUMPDEST PUSH2 0x19C DUP1 PUSH2 0xA3 PUSH1 0x0 CODECOPY PUSH1 0x0 RETURN INVALID PUSH1 0x80 PUSH1 0x40 MSTORE CALLVALUE DUP1 ISZERO PUSH2 0x10 JUMPI PUSH1 0x0 DUP1 REVERT JUMPDEST POP PUSH1 0x4 CALLDATASIZE LT PUSH2 0x41 JUMPI PUSH1 0x0 CALLDATALOAD PUSH1 0xE0 SHR DUP1 PUSH4 0x28897238 EQ PUSH2 0x46 JUMPI DUP1 PUSH4 0x36D79CE0 EQ PUSH2 0x64 JUMPI DUP1 PUSH4 0xA0949D85 EQ PUSH2 0x82 JUMPI JUMPDEST PUSH1 0x0 DUP1 REVERT JUMPDEST PUSH2 0x4E PUSH2 0xA0 JUMP JUMPDEST PUSH1 0x40 MLOAD PUSH2 0x5B SWAP2 SWAP1 PUSH2 0xE8 JUMP JUMPDEST PUSH1 0x40 MLOAD DUP1 SWAP2 SUB SWAP1 RETURN JUMPDEST PUSH2 0x6C PUSH2 0xA6 JUMP JUMPDEST PUSH1 0x40 MLOAD PUSH2 0x79 SWAP2 SWAP1 PUSH2 0xE8 JUMP JUMPDEST PUSH1 0x40 MLOAD DUP1 SWAP2 SUB SWAP1 RETURN JUMPDEST PUSH2 0x8A PUSH2 0xC2 JUMP JUMPDEST PUSH1 0x40 MLOAD PUSH2 0x97 SWAP2 SWAP1 PUSH2 0xE8 JUMP JUMPDEST PUSH1 0x40 MLOAD DUP1 SWAP2 SUB SWAP1 RETURN JUMPDEST PUSH1 0x0 SLOAD DUP2 JUMP JUMPDEST PUSH1 0x0 DUP1 PUSH1 0x0 SWAP1 POP DUP1 DUP1 PUSH2 0xB8 SWAP1 PUSH2 0x10D JUMP JUMPDEST SWAP2 POP POP DUP1 SWAP2 POP POP SWAP1 JUMP JUMPDEST PUSH1 0x0 DUP1 PUSH1 0x0 SWAP1 POP DUP1 DUP1 PUSH1 0x1 SWAP1 SUB SWAP2 POP POP DUP1 SWAP2 POP POP SWAP1 JUMP JUMPDEST PUSH2 0xE2 DUP2 PUSH2 0x103 JUMP JUMPDEST DUP3 MSTORE POP POP JUMP JUMPDEST PUSH1 0x0 PUSH1 0x20 DUP3 ADD SWAP1 POP PUSH2 0xFD PUSH1 0x0 DUP4 ADD DUP5 PUSH2 0xD9 JUMP JUMPDEST SWAP3 SWAP2 POP POP JUMP JUMPDEST PUSH1 0x0 DUP2 SWAP1 POP SWAP2 SWAP1 POP JUMP JUMPDEST PUSH1 0x0 PUSH2 0x118 DUP3 PUSH2 0x103 JUMP JUMPDEST SWAP2 POP PUSH1 0x0 DUP3 EQ ISZERO PUSH2 0x12C JUMPI PUSH2 0x12B PUSH2 0x137 JUMP JUMPDEST JUMPDEST PUSH1 0x1 DUP3 SUB SWAP1 POP SWAP2 SWAP1 POP JUMP JUMPDEST PUSH32 0x4E487B7100000000000000000000000000000000000000000000000000000000 PUSH1 0x0 MSTORE PUSH1 0x11 PUSH1 0x4 MSTORE PUSH1 0x24 PUSH1 0x0 REVERT INVALID LOG2 PUSH5 0x6970667358 0x22 SLT KECCAK256 0x1E 0x21 CODESIZE 0xE3 SWAP1 LOG1 PUSH13 0x76AA86DF7548A2D67A7BD349C3 0xC4 0xB2 DIV DUP8 0xB1 EXTCODECOPY 0xBC 0x28 SHL SHR 0xF7 PUSH11 0x64736F6C63430008000033 "
				},
				"gasEstimates": {
					"creation": {
						"codeDepositCost": "82400",
						"executionCost": "infinite",
						"totalCost": "infinite"
					},
					"external": {
						"i1()": "1107",
						"testWithNoUncheck()": "291",
						"testWithUncheck()": "394"
					}
				},
				"methodIdentifiers": {
					"i1()": "28897238",
					"testWithNoUncheck()": "36d79ce0",
					"testWithUncheck()": "a0949d85"
				}
			},
			"storageLayout": {
				"storage": [
					{
						"astId": 496,
						"contract": "chapter02/9type3.sol:type3",
						"label": "i1",
						"offset": 0,
						"slot": "0",
						"type": "t_uint256"
					}
				],
				"types": {
					"t_uint256": {
						"encoding": "inplace",
						"label": "uint256",
						"numberOfBytes": "32"
					}
				}
			},
			"userdoc": {
				"kind": "user",
				"methods": {},
				"version": 1
			}
		}
	}
}