{
	"chapter02/9type3.sol": {
		"type15": {
			"abi": [
				{
					"inputs": [],
					"name": "foo",
					"outputs": [
						{
							"internalType": "uint256",
							"name": "",
							"type": "uint256"
						}
					],
					"stateMutability": "pure",
					"type": "function"
				},
				{
					"inputs": [],
					"name": "getAddr",
					"outputs": [
						{
							"internalType": "address",
							"name": "",
							"type": "address"
						}
					],
					"stateMutability": "view",
					"type": "function"
				},
				{
					"inputs": [],
					"name": "getSekector",
					"outputs": [
						{
							"internalType": "bytes4",
							"name": "",
							"type": "bytes4"
						}
					],
					"stateMutability": "view",
					"type": "function"
				}
			],
			"devdoc": {
				"kind": "dev",
				"methods": {},
				"version": 1
			},
			"evm": {
				"assembly": "    /* \"chapter02/9type3.sol\":322:793  contract type15{... */\n  mstore(0x40, 0x80)\n    /* \"chapter02/9type3.sol\":469:473  this */\n  address\n    /* \"chapter02/9type3.sol\":469:477  this.foo */\n  0xffffffffffffffffffffffffffffffffffffffff\n  and\n  0xc2985578\n    /* \"chapter02/9type3.sol\":432:477  function () external returns(uint) f=this.foo */\n  0x00\n  dup1\n  0x0100\n  exp\n  dup2\n  sload\n  dup2\n  0xffffffffffffffffffffffffffffffffffffffffffffffff\n  mul\n  not\n  and\n  swap1\n  dup5\n  dup5\n  0xffffffff\n  and\n  swap1\n  0xffffffffffffffffffffffffffffffffffffffff\n  and\n  0x20\n  shl\n  or\n  mul\n  or\n  swap1\n  sstore\n  pop\n  pop\n    /* \"chapter02/9type3.sol\":322:793  contract type15{... */\n  callvalue\n  dup1\n  iszero\n  tag_1\n  jumpi\n  0x00\n  dup1\n  revert\ntag_1:\n  pop\n  dataSize(sub_0)\n  dup1\n  dataOffset(sub_0)\n  0x00\n  codecopy\n  0x00\n  return\nstop\n\nsub_0: assembly {\n        /* \"chapter02/9type3.sol\":322:793  contract type15{... */\n      mstore(0x40, 0x80)\n      callvalue\n      dup1\n      iszero\n      tag_1\n      jumpi\n      0x00\n      dup1\n      revert\n    tag_1:\n      pop\n      jumpi(tag_2, lt(calldatasize, 0x04))\n      shr(0xe0, calldataload(0x00))\n      dup1\n      0x64fcfba1\n      eq\n      tag_3\n      jumpi\n      dup1\n      0xa74c2bb6\n      eq\n      tag_4\n      jumpi\n      dup1\n      0xc2985578\n      eq\n      tag_5\n      jumpi\n    tag_2:\n      0x00\n      dup1\n      revert\n        /* \"chapter02/9type3.sol\":670:790  function getSekector() public view returns(bytes4){... */\n    tag_3:\n      tag_6\n      tag_7\n      jump\t// in\n    tag_6:\n      mload(0x40)\n      tag_8\n      swap2\n      swap1\n      tag_9\n      jump\t// in\n    tag_8:\n      mload(0x40)\n      dup1\n      swap2\n      sub\n      swap1\n      return\n        /* \"chapter02/9type3.sol\":549:665  function getAddr()external view returns(address){... */\n    tag_4:\n      tag_10\n      tag_11\n      jump\t// in\n    tag_10:\n      mload(0x40)\n      tag_12\n      swap2\n      swap1\n      tag_13\n      jump\t// in\n    tag_12:\n      mload(0x40)\n      dup1\n      swap2\n      sub\n      swap1\n      return\n        /* \"chapter02/9type3.sol\":343:427  function foo() public pure returns(uint){... */\n    tag_5:\n      tag_14\n      tag_15\n      jump\t// in\n    tag_14:\n      mload(0x40)\n      tag_16\n      swap2\n      swap1\n      tag_17\n      jump\t// in\n    tag_16:\n      mload(0x40)\n      dup1\n      swap2\n      sub\n      swap1\n      return\n        /* \"chapter02/9type3.sol\":670:790  function getSekector() public view returns(bytes4){... */\n    tag_7:\n        /* \"chapter02/9type3.sol\":713:719  bytes4 */\n      0x00\n        /* \"chapter02/9type3.sol\":773:774  f */\n      dup1\n      0x00\n      swap1\n      sload\n      swap1\n      0x0100\n      exp\n      swap1\n      div\n      dup1\n      0x20\n      shr\n      0xffffffffffffffffffffffffffffffffffffffff\n      and\n      swap1\n      0xffffffff\n      and\n        /* \"chapter02/9type3.sol\":773:783  f.selector */\n      swap1\n      pop\n      0xe0\n      shl\n        /* \"chapter02/9type3.sol\":766:783  return f.selector */\n      swap1\n      pop\n        /* \"chapter02/9type3.sol\":670:790  function getSekector() public view returns(bytes4){... */\n      swap1\n      jump\t// out\n        /* \"chapter02/9type3.sol\":549:665  function getAddr()external view returns(address){... */\n    tag_11:\n        /* \"chapter02/9type3.sol\":589:596  address */\n      0x00\n        /* \"chapter02/9type3.sol\":614:618  this */\n      address\n        /* \"chapter02/9type3.sol\":614:622  this.foo */\n      0xffffffffffffffffffffffffffffffffffffffff\n      and\n        /* \"chapter02/9type3.sol\":607:630  return this.foo.address */\n      swap1\n      pop\n        /* \"chapter02/9type3.sol\":549:665  function getAddr()external view returns(address){... */\n      swap1\n      jump\t// out\n        /* \"chapter02/9type3.sol\":343:427  function foo() public pure returns(uint){... */\n    tag_15:\n        /* \"chapter02/9type3.sol\":378:382  uint */\n      0x00\n        /* \"chapter02/9type3.sol\":393:399  uint a */\n      dup1\n        /* \"chapter02/9type3.sol\":401:402  5 */\n      0x05\n        /* \"chapter02/9type3.sol\":393:402  uint a =5 */\n      swap1\n      pop\n        /* \"chapter02/9type3.sol\":419:420  a */\n      dup1\n        /* \"chapter02/9type3.sol\":412:420  return a */\n      swap2\n      pop\n      pop\n        /* \"chapter02/9type3.sol\":343:427  function foo() public pure returns(uint){... */\n      swap1\n      jump\t// out\n        /* \"#utility.yul\":7:125   */\n    tag_22:\n        /* \"#utility.yul\":94:118   */\n      tag_24\n        /* \"#utility.yul\":112:117   */\n      dup2\n        /* \"#utility.yul\":94:118   */\n      tag_25\n      jump\t// in\n    tag_24:\n        /* \"#utility.yul\":89:92   */\n      dup3\n        /* \"#utility.yul\":82:119   */\n      mstore\n        /* \"#utility.yul\":72:125   */\n      pop\n      pop\n      jump\t// out\n        /* \"#utility.yul\":131:246   */\n    tag_26:\n        /* \"#utility.yul\":216:239   */\n      tag_28\n        /* \"#utility.yul\":233:238   */\n      dup2\n        /* \"#utility.yul\":216:239   */\n      tag_29\n      jump\t// in\n    tag_28:\n        /* \"#utility.yul\":211:214   */\n      dup3\n        /* \"#utility.yul\":204:240   */\n      mstore\n        /* \"#utility.yul\":194:246   */\n      pop\n      pop\n      jump\t// out\n        /* \"#utility.yul\":252:370   */\n    tag_30:\n        /* \"#utility.yul\":339:363   */\n      tag_32\n        /* \"#utility.yul\":357:362   */\n      dup2\n        /* \"#utility.yul\":339:363   */\n      tag_33\n      jump\t// in\n    tag_32:\n        /* \"#utility.yul\":334:337   */\n      dup3\n        /* \"#utility.yul\":327:364   */\n      mstore\n        /* \"#utility.yul\":317:370   */\n      pop\n      pop\n      jump\t// out\n        /* \"#utility.yul\":376:598   */\n    tag_13:\n      0x00\n        /* \"#utility.yul\":507:509   */\n      0x20\n        /* \"#utility.yul\":496:505   */\n      dup3\n        /* \"#utility.yul\":492:510   */\n      add\n        /* \"#utility.yul\":484:510   */\n      swap1\n      pop\n        /* \"#utility.yul\":520:591   */\n      tag_35\n        /* \"#utility.yul\":588:589   */\n      0x00\n        /* \"#utility.yul\":577:586   */\n      dup4\n        /* \"#utility.yul\":573:590   */\n      add\n        /* \"#utility.yul\":564:570   */\n      dup5\n        /* \"#utility.yul\":520:591   */\n      tag_22\n      jump\t// in\n    tag_35:\n        /* \"#utility.yul\":474:598   */\n      swap3\n      swap2\n      pop\n      pop\n      jump\t// out\n        /* \"#utility.yul\":604:822   */\n    tag_9:\n      0x00\n        /* \"#utility.yul\":733:735   */\n      0x20\n        /* \"#utility.yul\":722:731   */\n      dup3\n        /* \"#utility.yul\":718:736   */\n      add\n        /* \"#utility.yul\":710:736   */\n      swap1\n      pop\n        /* \"#utility.yul\":746:815   */\n      tag_37\n        /* \"#utility.yul\":812:813   */\n      0x00\n        /* \"#utility.yul\":801:810   */\n      dup4\n        /* \"#utility.yul\":797:814   */\n      add\n        /* \"#utility.yul\":788:794   */\n      dup5\n        /* \"#utility.yul\":746:815   */\n      tag_26\n      jump\t// in\n    tag_37:\n        /* \"#utility.yul\":700:822   */\n      swap3\n      swap2\n      pop\n      pop\n      jump\t// out\n        /* \"#utility.yul\":828:1050   */\n    tag_17:\n      0x00\n        /* \"#utility.yul\":959:961   */\n      0x20\n        /* \"#utility.yul\":948:957   */\n      dup3\n        /* \"#utility.yul\":944:962   */\n      add\n        /* \"#utility.yul\":936:962   */\n      swap1\n      pop\n        /* \"#utility.yul\":972:1043   */\n      tag_39\n        /* \"#utility.yul\":1040:1041   */\n      0x00\n        /* \"#utility.yul\":1029:1038   */\n      dup4\n        /* \"#utility.yul\":1025:1042   */\n      add\n        /* \"#utility.yul\":1016:1022   */\n      dup5\n        /* \"#utility.yul\":972:1043   */\n      tag_30\n      jump\t// in\n    tag_39:\n        /* \"#utility.yul\":926:1050   */\n      swap3\n      swap2\n      pop\n      pop\n      jump\t// out\n        /* \"#utility.yul\":1056:1152   */\n    tag_25:\n      0x00\n        /* \"#utility.yul\":1122:1146   */\n      tag_41\n        /* \"#utility.yul\":1140:1145   */\n      dup3\n        /* \"#utility.yul\":1122:1146   */\n      tag_42\n      jump\t// in\n    tag_41:\n        /* \"#utility.yul\":1111:1146   */\n      swap1\n      pop\n        /* \"#utility.yul\":1101:1152   */\n      swap2\n      swap1\n      pop\n      jump\t// out\n        /* \"#utility.yul\":1158:1307   */\n    tag_29:\n      0x00\n        /* \"#utility.yul\":1234:1300   */\n      0xffffffff00000000000000000000000000000000000000000000000000000000\n        /* \"#utility.yul\":1227:1232   */\n      dup3\n        /* \"#utility.yul\":1223:1301   */\n      and\n        /* \"#utility.yul\":1212:1301   */\n      swap1\n      pop\n        /* \"#utility.yul\":1202:1307   */\n      swap2\n      swap1\n      pop\n      jump\t// out\n        /* \"#utility.yul\":1313:1439   */\n    tag_42:\n      0x00\n        /* \"#utility.yul\":1390:1432   */\n      0xffffffffffffffffffffffffffffffffffffffff\n        /* \"#utility.yul\":1383:1388   */\n      dup3\n        /* \"#utility.yul\":1379:1433   */\n      and\n        /* \"#utility.yul\":1368:1433   */\n      swap1\n      pop\n        /* \"#utility.yul\":1358:1439   */\n      swap2\n      swap1\n      pop\n      jump\t// out\n        /* \"#utility.yul\":1445:1522   */\n    tag_33:\n      0x00\n        /* \"#utility.yul\":1511:1516   */\n      dup2\n        /* \"#utility.yul\":1500:1516   */\n      swap1\n      pop\n        /* \"#utility.yul\":1490:1522   */\n      swap2\n      swap1\n      pop\n      jump\t// out\n\n    auxdata: 0xa264697066735822122042e3ce790fe80aa634f917cec8add683a88c3cf40d84ab340bfe299b5dd23ff164736f6c63430008000033\n}\n",
				"bytecode": {
					"linkReferences": {},
					"object": "60806040523073ffffffffffffffffffffffffffffffffffffffff1663c29855786000806101000a81548177ffffffffffffffffffffffffffffffffffffffffffffffff02191690848463ffffffff169073ffffffffffffffffffffffffffffffffffffffff1660201b1702179055505034801561007c57600080fd5b506102218061008c6000396000f3fe608060405234801561001057600080fd5b50600436106100415760003560e01c806364fcfba114610046578063a74c2bb614610064578063c298557814610082575b600080fd5b61004e6100a0565b60405161005b919061014d565b60405180910390f35b61006c6100d9565b6040516100799190610132565b60405180910390f35b61008a6100f7565b6040516100979190610168565b60405180910390f35b60008060009054906101000a90048060201c73ffffffffffffffffffffffffffffffffffffffff169063ffffffff16905060e01b905090565b60003073ffffffffffffffffffffffffffffffffffffffff16905090565b600080600590508091505090565b61010e81610183565b82525050565b61011d81610195565b82525050565b61012c816101e1565b82525050565b60006020820190506101476000830184610105565b92915050565b60006020820190506101626000830184610114565b92915050565b600060208201905061017d6000830184610123565b92915050565b600061018e826101c1565b9050919050565b60007fffffffff0000000000000000000000000000000000000000000000000000000082169050919050565b600073ffffffffffffffffffffffffffffffffffffffff82169050919050565b600081905091905056fea264697066735822122042e3ce790fe80aa634f917cec8add683a88c3cf40d84ab340bfe299b5dd23ff164736f6c63430008000033",
					"opcodes": "PUSH1 0x80 PUSH1 0x40 MSTORE ADDRESS PUSH20 0xFFFFFFFFFFFFFFFFFFFFFFFFFFFFFFFFFFFFFFFF AND PUSH4 0xC2985578 PUSH1 0x0 DUP1 PUSH2 0x100 EXP DUP2 SLOAD DUP2 PUSH24 0xFFFFFFFFFFFFFFFFFFFFFFFFFFFFFFFFFFFFFFFFFFFFFFFF MUL NOT AND SWAP1 DUP5 DUP5 PUSH4 0xFFFFFFFF AND SWAP1 PUSH20 0xFFFFFFFFFFFFFFFFFFFFFFFFFFFFFFFFFFFFFFFF AND PUSH1 0x20 SHL OR MUL OR SWAP1 SSTORE POP POP CALLVALUE DUP1 ISZERO PUSH2 0x7C JUMPI PUSH1 0x0 DUP1 REVERT JUMPDEST POP PUSH2 0x221 DUP1 PUSH2 0x8C PUSH1 0x0 CODECOPY PUSH1 0x0 RETURN INVALID PUSH1 0x80 PUSH1 0x40 MSTORE CALLVALUE DUP1 ISZERO PUSH2 0x10 JUMPI PUSH1 0x0 DUP1 REVERT JUMPDEST POP PUSH1 0x4 CALLDATASIZE LT PUSH2 0x41 JUMPI PUSH1 0x0 CALLDATALOAD PUSH1 0xE0 SHR DUP1 PUSH4 0x64FCFBA1 EQ PUSH2 0x46 JUMPI DUP1 PUSH4 0xA74C2BB6 EQ PUSH2 0x64 JUMPI DUP1 PUSH4 0xC2985578 EQ PUSH2 0x82 JUMPI JUMPDEST PUSH1 0x0 DUP1 REVERT JUMPDEST PUSH2 0x4E PUSH2 0xA0 JUMP JUMPDEST PUSH1 0x40 MLOAD PUSH2 0x5B SWAP2 SWAP1 PUSH2 0x14D JUMP JUMPDEST PUSH1 0x40 MLOAD DUP1 SWAP2 SUB SWAP1 RETURN JUMPDEST PUSH2 0x6C PUSH2 0xD9 JUMP JUMPDEST PUSH1 0x40 MLOAD PUSH2 0x79 SWAP2 SWAP1 PUSH2 0x132 JUMP JUMPDEST PUSH1 0x40 MLOAD DUP1 SWAP2 SUB SWAP1 RETURN JUMPDEST PUSH2 0x8A PUSH2 0xF7 JUMP JUMPDEST PUSH1 0x40 MLOAD PUSH2 0x97 SWAP2 SWAP1 PUSH2 0x168 JUMP JUMPDEST PUSH1 0x40 MLOAD DUP1 SWAP2 SUB SWAP1 RETURN JUMPDEST PUSH1 0x0 DUP1 PUSH1 0x0 SWAP1 SLOAD SWAP1 PUSH2 0x100 EXP SWAP1 DIV DUP1 PUSH1 0x20 SHR PUSH20 0xFFFFFFFFFFFFFFFFFFFFFFFFFFFFFFFFFFFFFFFF AND SWAP1 PUSH4 0xFFFFFFFF AND SWAP1 POP PUSH1 0xE0 SHL SWAP1 POP SWAP1 JUMP JUMPDEST PUSH1 0x0 ADDRESS PUSH20 0xFFFFFFFFFFFFFFFFFFFFFFFFFFFFFFFFFFFFFFFF AND SWAP1 POP SWAP1 JUMP JUMPDEST PUSH1 0x0 DUP1 PUSH1 0x5 SWAP1 POP DUP1 SWAP2 POP POP SWAP1 JUMP JUMPDEST PUSH2 0x10E DUP2 PUSH2 0x183 JUMP JUMPDEST DUP3 MSTORE POP POP JUMP JUMPDEST PUSH2 0x11D DUP2 PUSH2 0x195 JUMP JUMPDEST DUP3 MSTORE POP POP JUMP JUMPDEST PUSH2 0x12C DUP2 PUSH2 0x1E1 JUMP JUMPDEST DUP3 MSTORE POP POP JUMP JUMPDEST PUSH1 0x0 PUSH1 0x20 DUP3 ADD SWAP1 POP PUSH2 0x147 PUSH1 0x0 DUP4 ADD DUP5 PUSH2 0x105 JUMP JUMPDEST SWAP3 SWAP2 POP POP JUMP JUMPDEST PUSH1 0x0 PUSH1 0x20 DUP3 ADD SWAP1 POP PUSH2 0x162 PUSH1 0x0 DUP4 ADD DUP5 PUSH2 0x114 JUMP JUMPDEST SWAP3 SWAP2 POP POP JUMP JUMPDEST PUSH1 0x0 PUSH1 0x20 DUP3 ADD SWAP1 POP PUSH2 0x17D PUSH1 0x0 DUP4 ADD DUP5 PUSH2 0x123 JUMP JUMPDEST SWAP3 SWAP2 POP POP JUMP JUMPDEST PUSH1 0x0 PUSH2 0x18E DUP3 PUSH2 0x1C1 JUMP JUMPDEST SWAP1 POP SWAP2 SWAP1 POP JUMP JUMPDEST PUSH1 0x0 PUSH32 0xFFFFFFFF00000000000000000000000000000000000000000000000000000000 DUP3 AND SWAP1 POP SWAP2 SWAP1 POP JUMP JUMPDEST PUSH1 0x0 PUSH20 0xFFFFFFFFFFFFFFFFFFFFFFFFFFFFFFFFFFFFFFFF DUP3 AND SWAP1 POP SWAP2 SWAP1 POP JUMP JUMPDEST PUSH1 0x0 DUP2 SWAP1 POP SWAP2 SWAP1 POP JUMP INVALID LOG2 PUSH5 0x6970667358 0x22 SLT KECCAK256 TIMESTAMP 0xE3 0xCE PUSH26 0xFE80AA634F917CEC8ADD683A88C3CF40D84AB340BFE299B5DD2 EXTCODEHASH CALL PUSH5 0x736F6C6343 STOP ADDMOD STOP STOP CALLER "
				},
				"gasEstimates": {
					"creation": {
						"codeDepositCost": "109000",
						"executionCost": "21057",
						"totalCost": "130057"
					},
					"external": {
						"foo()": "372",
						"getAddr()": "391",
						"getSekector()": "1186"
					}
				},
				"methodIdentifiers": {
					"foo()": "c2985578",
					"getAddr()": "a74c2bb6",
					"getSekector()": "64fcfba1"
				}
			},
			"storageLayout": {
				"storage": [
					{
						"astId": 38,
						"contract": "chapter02/9type3.sol:type15",
						"label": "f",
						"offset": 0,
						"slot": "0",
						"type": "t_function_external_nonpayable()returns(t_uint256)"
					}
				],
				"types": {
					"t_function_external_nonpayable()returns(t_uint256)": {
						"encoding": "inplace",
						"label": "function () external returns (uint256)",
						"numberOfBytes": "24"
					}
				}
			},
			"userdoc": {
				"kind": "user",
				"methods": {},
				"version": 1
			}
		}
	}
}