{
	"chapter02/4testImport.sol": {
		"testImport2": {
			"abi": [
				{
					"inputs": [],
					"name": "Test",
					"outputs": [
						{
							"internalType": "string",
							"name": "",
							"type": "string"
						}
					],
					"stateMutability": "pure",
					"type": "function"
				},
				{
					"inputs": [],
					"name": "a",
					"outputs": [
						{
							"internalType": "uint256",
							"name": "",
							"type": "uint256"
						}
					],
					"stateMutability": "view",
					"type": "function"
				},
				{
					"inputs": [],
					"name": "getTest",
					"outputs": [
						{
							"internalType": "string",
							"name": "",
							"type": "string"
						}
					],
					"stateMutability": "pure",
					"type": "function"
				},
				{
					"inputs": [],
					"name": "getValue",
					"outputs": [
						{
							"internalType": "uint256",
							"name": "",
							"type": "uint256"
						}
					],
					"stateMutability": "view",
					"type": "function"
				}
			],
			"devdoc": {
				"kind": "dev",
				"methods": {},
				"version": 1
			},
			"evm": {
				"assembly": "    /* \"chapter02/4testImport.sol\":406:615  contract testImport2 is FatherImp {... */\n  mstore(0x40, 0x80)\n    /* \"chapter02/4fatherImp.sol\":97:100  100 */\n  0x64\n    /* \"chapter02/4fatherImp.sol\":80:100  uint  public a = 100 */\n  0x00\n  sstore\n    /* \"chapter02/4testImport.sol\":406:615  contract testImport2 is FatherImp {... */\n  callvalue\n  dup1\n  iszero\n  tag_1\n  jumpi\n  0x00\n  dup1\n  revert\ntag_1:\n  pop\n  dataSize(sub_0)\n  dup1\n  dataOffset(sub_0)\n  0x00\n  codecopy\n  0x00\n  return\nstop\n\nsub_0: assembly {\n        /* \"chapter02/4testImport.sol\":406:615  contract testImport2 is FatherImp {... */\n      mstore(0x40, 0x80)\n      callvalue\n      dup1\n      iszero\n      tag_1\n      jumpi\n      0x00\n      dup1\n      revert\n    tag_1:\n      pop\n      jumpi(tag_2, lt(calldatasize, 0x04))\n      shr(0xe0, calldataload(0x00))\n      dup1\n      0x0dbe671f\n      eq\n      tag_3\n      jumpi\n      dup1\n      0x20965255\n      eq\n      tag_4\n      jumpi\n      dup1\n      0xa163a624\n      eq\n      tag_5\n      jumpi\n      dup1\n      0xa8cd0a80\n      eq\n      tag_6\n      jumpi\n    tag_2:\n      0x00\n      dup1\n      revert\n        /* \"chapter02/4fatherImp.sol\":80:100  uint  public a = 100 */\n    tag_3:\n      tag_7\n      tag_8\n      jump\t// in\n    tag_7:\n      mload(0x40)\n      tag_9\n      swap2\n      swap1\n      tag_10\n      jump\t// in\n    tag_9:\n      mload(0x40)\n      dup1\n      swap2\n      sub\n      swap1\n      return\n        /* \"chapter02/4testImport.sol\":451:522  function getValue()external view returns(uint){... */\n    tag_4:\n      tag_11\n      tag_12\n      jump\t// in\n    tag_11:\n      mload(0x40)\n      tag_13\n      swap2\n      swap1\n      tag_10\n      jump\t// in\n    tag_13:\n      mload(0x40)\n      dup1\n      swap2\n      sub\n      swap1\n      return\n        /* \"chapter02/4fatherImp.sol\":106:196  function Test()public pure returns(string memory ){... */\n    tag_5:\n      tag_14\n      tag_15\n      jump\t// in\n    tag_14:\n      mload(0x40)\n      tag_16\n      swap2\n      swap1\n      tag_17\n      jump\t// in\n    tag_16:\n      mload(0x40)\n      dup1\n      swap2\n      sub\n      swap1\n      return\n        /* \"chapter02/4testImport.sol\":527:610  function getTest()public pure returns(string memory){... */\n    tag_6:\n      tag_18\n      tag_19\n      jump\t// in\n    tag_18:\n      mload(0x40)\n      tag_20\n      swap2\n      swap1\n      tag_17\n      jump\t// in\n    tag_20:\n      mload(0x40)\n      dup1\n      swap2\n      sub\n      swap1\n      return\n        /* \"chapter02/4fatherImp.sol\":80:100  uint  public a = 100 */\n    tag_8:\n      sload(0x00)\n      dup2\n      jump\t// out\n        /* \"chapter02/4testImport.sol\":451:522  function getValue()external view returns(uint){... */\n    tag_12:\n        /* \"chapter02/4testImport.sol\":492:496  uint */\n      0x00\n        /* \"chapter02/4testImport.sol\":514:515  a */\n      dup1\n      sload\n        /* \"chapter02/4testImport.sol\":507:515  return a */\n      swap1\n      pop\n        /* \"chapter02/4testImport.sol\":451:522  function getValue()external view returns(uint){... */\n      swap1\n      jump\t// out\n        /* \"chapter02/4fatherImp.sol\":106:196  function Test()public pure returns(string memory ){... */\n    tag_15:\n        /* \"chapter02/4fatherImp.sol\":141:154  string memory */\n      0x60\n        /* \"chapter02/4fatherImp.sol\":166:189  return \"this is a test\" */\n      mload(0x40)\n      dup1\n      0x40\n      add\n      0x40\n      mstore\n      dup1\n      0x0e\n      dup2\n      mstore\n      0x20\n      add\n      0x7468697320697320612074657374000000000000000000000000000000000000\n      dup2\n      mstore\n      pop\n      swap1\n      pop\n        /* \"chapter02/4fatherImp.sol\":106:196  function Test()public pure returns(string memory ){... */\n      swap1\n      jump\t// out\n        /* \"chapter02/4testImport.sol\":527:610  function getTest()public pure returns(string memory){... */\n    tag_19:\n        /* \"chapter02/4testImport.sol\":565:578  string memory */\n      0x60\n        /* \"chapter02/4testImport.sol\":596:602  Test() */\n      tag_24\n        /* \"chapter02/4testImport.sol\":596:600  Test */\n      tag_15\n        /* \"chapter02/4testImport.sol\":596:602  Test() */\n      jump\t// in\n    tag_24:\n        /* \"chapter02/4testImport.sol\":589:602  return Test() */\n      swap1\n      pop\n        /* \"chapter02/4testImport.sol\":527:610  function getTest()public pure returns(string memory){... */\n      swap1\n      jump\t// out\n        /* \"#utility.yul\":7:84   */\n    tag_25:\n        /* \"#utility.yul\":44:51   */\n      0x00\n        /* \"#utility.yul\":73:78   */\n      dup2\n        /* \"#utility.yul\":62:78   */\n      swap1\n      pop\n        /* \"#utility.yul\":7:84   */\n      swap2\n      swap1\n      pop\n      jump\t// out\n        /* \"#utility.yul\":90:208   */\n    tag_26:\n        /* \"#utility.yul\":177:201   */\n      tag_35\n        /* \"#utility.yul\":195:200   */\n      dup2\n        /* \"#utility.yul\":177:201   */\n      tag_25\n      jump\t// in\n    tag_35:\n        /* \"#utility.yul\":172:175   */\n      dup3\n        /* \"#utility.yul\":165:202   */\n      mstore\n        /* \"#utility.yul\":90:208   */\n      pop\n      pop\n      jump\t// out\n        /* \"#utility.yul\":214:436   */\n    tag_10:\n        /* \"#utility.yul\":307:311   */\n      0x00\n        /* \"#utility.yul\":345:347   */\n      0x20\n        /* \"#utility.yul\":334:343   */\n      dup3\n        /* \"#utility.yul\":330:348   */\n      add\n        /* \"#utility.yul\":322:348   */\n      swap1\n      pop\n        /* \"#utility.yul\":358:429   */\n      tag_37\n        /* \"#utility.yul\":426:427   */\n      0x00\n        /* \"#utility.yul\":415:424   */\n      dup4\n        /* \"#utility.yul\":411:428   */\n      add\n        /* \"#utility.yul\":402:408   */\n      dup5\n        /* \"#utility.yul\":358:429   */\n      tag_26\n      jump\t// in\n    tag_37:\n        /* \"#utility.yul\":214:436   */\n      swap3\n      swap2\n      pop\n      pop\n      jump\t// out\n        /* \"#utility.yul\":442:541   */\n    tag_27:\n        /* \"#utility.yul\":494:500   */\n      0x00\n        /* \"#utility.yul\":528:533   */\n      dup2\n        /* \"#utility.yul\":522:534   */\n      mload\n        /* \"#utility.yul\":512:534   */\n      swap1\n      pop\n        /* \"#utility.yul\":442:541   */\n      swap2\n      swap1\n      pop\n      jump\t// out\n        /* \"#utility.yul\":547:716   */\n    tag_28:\n        /* \"#utility.yul\":631:642   */\n      0x00\n        /* \"#utility.yul\":665:671   */\n      dup3\n        /* \"#utility.yul\":660:663   */\n      dup3\n        /* \"#utility.yul\":653:672   */\n      mstore\n        /* \"#utility.yul\":705:709   */\n      0x20\n        /* \"#utility.yul\":700:703   */\n      dup3\n        /* \"#utility.yul\":696:710   */\n      add\n        /* \"#utility.yul\":681:710   */\n      swap1\n      pop\n        /* \"#utility.yul\":547:716   */\n      swap3\n      swap2\n      pop\n      pop\n      jump\t// out\n        /* \"#utility.yul\":722:1029   */\n    tag_29:\n        /* \"#utility.yul\":790:791   */\n      0x00\n        /* \"#utility.yul\":800:913   */\n    tag_41:\n        /* \"#utility.yul\":814:820   */\n      dup4\n        /* \"#utility.yul\":811:812   */\n      dup2\n        /* \"#utility.yul\":808:821   */\n      lt\n        /* \"#utility.yul\":800:913   */\n      iszero\n      tag_43\n      jumpi\n        /* \"#utility.yul\":899:900   */\n      dup1\n        /* \"#utility.yul\":894:897   */\n      dup3\n        /* \"#utility.yul\":890:901   */\n      add\n        /* \"#utility.yul\":884:902   */\n      mload\n        /* \"#utility.yul\":880:881   */\n      dup2\n        /* \"#utility.yul\":875:878   */\n      dup5\n        /* \"#utility.yul\":871:882   */\n      add\n        /* \"#utility.yul\":864:903   */\n      mstore\n        /* \"#utility.yul\":836:838   */\n      0x20\n        /* \"#utility.yul\":833:834   */\n      dup2\n        /* \"#utility.yul\":829:839   */\n      add\n        /* \"#utility.yul\":824:839   */\n      swap1\n      pop\n        /* \"#utility.yul\":800:913   */\n      jump(tag_41)\n    tag_43:\n        /* \"#utility.yul\":931:937   */\n      dup4\n        /* \"#utility.yul\":928:929   */\n      dup2\n        /* \"#utility.yul\":925:938   */\n      gt\n        /* \"#utility.yul\":922:1023   */\n      iszero\n      tag_44\n      jumpi\n        /* \"#utility.yul\":1011:1012   */\n      0x00\n        /* \"#utility.yul\":1002:1008   */\n      dup5\n        /* \"#utility.yul\":997:1000   */\n      dup5\n        /* \"#utility.yul\":993:1009   */\n      add\n        /* \"#utility.yul\":986:1013   */\n      mstore\n        /* \"#utility.yul\":922:1023   */\n    tag_44:\n        /* \"#utility.yul\":771:1029   */\n      pop\n        /* \"#utility.yul\":722:1029   */\n      pop\n      pop\n      pop\n      jump\t// out\n        /* \"#utility.yul\":1035:1137   */\n    tag_30:\n        /* \"#utility.yul\":1076:1082   */\n      0x00\n        /* \"#utility.yul\":1127:1129   */\n      0x1f\n        /* \"#utility.yul\":1123:1130   */\n      not\n        /* \"#utility.yul\":1118:1120   */\n      0x1f\n        /* \"#utility.yul\":1111:1116   */\n      dup4\n        /* \"#utility.yul\":1107:1121   */\n      add\n        /* \"#utility.yul\":1103:1131   */\n      and\n        /* \"#utility.yul\":1093:1131   */\n      swap1\n      pop\n        /* \"#utility.yul\":1035:1137   */\n      swap2\n      swap1\n      pop\n      jump\t// out\n        /* \"#utility.yul\":1143:1507   */\n    tag_31:\n        /* \"#utility.yul\":1231:1234   */\n      0x00\n        /* \"#utility.yul\":1259:1298   */\n      tag_47\n        /* \"#utility.yul\":1292:1297   */\n      dup3\n        /* \"#utility.yul\":1259:1298   */\n      tag_27\n      jump\t// in\n    tag_47:\n        /* \"#utility.yul\":1314:1385   */\n      tag_48\n        /* \"#utility.yul\":1378:1384   */\n      dup2\n        /* \"#utility.yul\":1373:1376   */\n      dup6\n        /* \"#utility.yul\":1314:1385   */\n      tag_28\n      jump\t// in\n    tag_48:\n        /* \"#utility.yul\":1307:1385   */\n      swap4\n      pop\n        /* \"#utility.yul\":1394:1446   */\n      tag_49\n        /* \"#utility.yul\":1439:1445   */\n      dup2\n        /* \"#utility.yul\":1434:1437   */\n      dup6\n        /* \"#utility.yul\":1427:1431   */\n      0x20\n        /* \"#utility.yul\":1420:1425   */\n      dup7\n        /* \"#utility.yul\":1416:1432   */\n      add\n        /* \"#utility.yul\":1394:1446   */\n      tag_29\n      jump\t// in\n    tag_49:\n        /* \"#utility.yul\":1471:1500   */\n      tag_50\n        /* \"#utility.yul\":1493:1499   */\n      dup2\n        /* \"#utility.yul\":1471:1500   */\n      tag_30\n      jump\t// in\n    tag_50:\n        /* \"#utility.yul\":1466:1469   */\n      dup5\n        /* \"#utility.yul\":1462:1501   */\n      add\n        /* \"#utility.yul\":1455:1501   */\n      swap2\n      pop\n        /* \"#utility.yul\":1235:1507   */\n      pop\n        /* \"#utility.yul\":1143:1507   */\n      swap3\n      swap2\n      pop\n      pop\n      jump\t// out\n        /* \"#utility.yul\":1513:1826   */\n    tag_17:\n        /* \"#utility.yul\":1626:1630   */\n      0x00\n        /* \"#utility.yul\":1664:1666   */\n      0x20\n        /* \"#utility.yul\":1653:1662   */\n      dup3\n        /* \"#utility.yul\":1649:1667   */\n      add\n        /* \"#utility.yul\":1641:1667   */\n      swap1\n      pop\n        /* \"#utility.yul\":1713:1722   */\n      dup2\n        /* \"#utility.yul\":1707:1711   */\n      dup2\n        /* \"#utility.yul\":1703:1723   */\n      sub\n        /* \"#utility.yul\":1699:1700   */\n      0x00\n        /* \"#utility.yul\":1688:1697   */\n      dup4\n        /* \"#utility.yul\":1684:1701   */\n      add\n        /* \"#utility.yul\":1677:1724   */\n      mstore\n        /* \"#utility.yul\":1741:1819   */\n      tag_52\n        /* \"#utility.yul\":1814:1818   */\n      dup2\n        /* \"#utility.yul\":1805:1811   */\n      dup5\n        /* \"#utility.yul\":1741:1819   */\n      tag_31\n      jump\t// in\n    tag_52:\n        /* \"#utility.yul\":1733:1819   */\n      swap1\n      pop\n        /* \"#utility.yul\":1513:1826   */\n      swap3\n      swap2\n      pop\n      pop\n      jump\t// out\n\n    auxdata: 0xa26469706673582212200e0d58614165e9962301af88492ed5d1025b8d488ac754ab2d81322d88bd4d5b64736f6c634300080f0033\n}\n",
				"bytecode": {
					"linkReferences": {},
					"object": "6080604052606460005534801561001557600080fd5b50610249806100256000396000f3fe608060405234801561001057600080fd5b506004361061004c5760003560e01c80630dbe671f14610051578063209652551461006f578063a163a6241461008d578063a8cd0a80146100ab575b600080fd5b6100596100c9565b604051610066919061013d565b60405180910390f35b6100776100cf565b604051610084919061013d565b60405180910390f35b6100956100d8565b6040516100a291906101f1565b60405180910390f35b6100b3610115565b6040516100c091906101f1565b60405180910390f35b60005481565b60008054905090565b60606040518060400160405280600e81526020017f7468697320697320612074657374000000000000000000000000000000000000815250905090565b606061011f6100d8565b905090565b6000819050919050565b61013781610124565b82525050565b6000602082019050610152600083018461012e565b92915050565b600081519050919050565b600082825260208201905092915050565b60005b83811015610192578082015181840152602081019050610177565b838111156101a1576000848401525b50505050565b6000601f19601f8301169050919050565b60006101c382610158565b6101cd8185610163565b93506101dd818560208601610174565b6101e6816101a7565b840191505092915050565b6000602082019050818103600083015261020b81846101b8565b90509291505056fea26469706673582212200e0d58614165e9962301af88492ed5d1025b8d488ac754ab2d81322d88bd4d5b64736f6c634300080f0033",
					"opcodes": "PUSH1 0x80 PUSH1 0x40 MSTORE PUSH1 0x64 PUSH1 0x0 SSTORE CALLVALUE DUP1 ISZERO PUSH2 0x15 JUMPI PUSH1 0x0 DUP1 REVERT JUMPDEST POP PUSH2 0x249 DUP1 PUSH2 0x25 PUSH1 0x0 CODECOPY PUSH1 0x0 RETURN INVALID PUSH1 0x80 PUSH1 0x40 MSTORE CALLVALUE DUP1 ISZERO PUSH2 0x10 JUMPI PUSH1 0x0 DUP1 REVERT JUMPDEST POP PUSH1 0x4 CALLDATASIZE LT PUSH2 0x4C JUMPI PUSH1 0x0 CALLDATALOAD PUSH1 0xE0 SHR DUP1 PUSH4 0xDBE671F EQ PUSH2 0x51 JUMPI DUP1 PUSH4 0x20965255 EQ PUSH2 0x6F JUMPI DUP1 PUSH4 0xA163A624 EQ PUSH2 0x8D JUMPI DUP1 PUSH4 0xA8CD0A80 EQ PUSH2 0xAB JUMPI JUMPDEST PUSH1 0x0 DUP1 REVERT JUMPDEST PUSH2 0x59 PUSH2 0xC9 JUMP JUMPDEST PUSH1 0x40 MLOAD PUSH2 0x66 SWAP2 SWAP1 PUSH2 0x13D JUMP JUMPDEST PUSH1 0x40 MLOAD DUP1 SWAP2 SUB SWAP1 RETURN JUMPDEST PUSH2 0x77 PUSH2 0xCF JUMP JUMPDEST PUSH1 0x40 MLOAD PUSH2 0x84 SWAP2 SWAP1 PUSH2 0x13D JUMP JUMPDEST PUSH1 0x40 MLOAD DUP1 SWAP2 SUB SWAP1 RETURN JUMPDEST PUSH2 0x95 PUSH2 0xD8 JUMP JUMPDEST PUSH1 0x40 MLOAD PUSH2 0xA2 SWAP2 SWAP1 PUSH2 0x1F1 JUMP JUMPDEST PUSH1 0x40 MLOAD DUP1 SWAP2 SUB SWAP1 RETURN JUMPDEST PUSH2 0xB3 PUSH2 0x115 JUMP JUMPDEST PUSH1 0x40 MLOAD PUSH2 0xC0 SWAP2 SWAP1 PUSH2 0x1F1 JUMP JUMPDEST PUSH1 0x40 MLOAD DUP1 SWAP2 SUB SWAP1 RETURN JUMPDEST PUSH1 0x0 SLOAD DUP2 JUMP JUMPDEST PUSH1 0x0 DUP1 SLOAD SWAP1 POP SWAP1 JUMP JUMPDEST PUSH1 0x60 PUSH1 0x40 MLOAD DUP1 PUSH1 0x40 ADD PUSH1 0x40 MSTORE DUP1 PUSH1 0xE DUP2 MSTORE PUSH1 0x20 ADD PUSH32 0x7468697320697320612074657374000000000000000000000000000000000000 DUP2 MSTORE POP SWAP1 POP SWAP1 JUMP JUMPDEST PUSH1 0x60 PUSH2 0x11F PUSH2 0xD8 JUMP JUMPDEST SWAP1 POP SWAP1 JUMP JUMPDEST PUSH1 0x0 DUP2 SWAP1 POP SWAP2 SWAP1 POP JUMP JUMPDEST PUSH2 0x137 DUP2 PUSH2 0x124 JUMP JUMPDEST DUP3 MSTORE POP POP JUMP JUMPDEST PUSH1 0x0 PUSH1 0x20 DUP3 ADD SWAP1 POP PUSH2 0x152 PUSH1 0x0 DUP4 ADD DUP5 PUSH2 0x12E JUMP JUMPDEST SWAP3 SWAP2 POP POP JUMP JUMPDEST PUSH1 0x0 DUP2 MLOAD SWAP1 POP SWAP2 SWAP1 POP JUMP JUMPDEST PUSH1 0x0 DUP3 DUP3 MSTORE PUSH1 0x20 DUP3 ADD SWAP1 POP SWAP3 SWAP2 POP POP JUMP JUMPDEST PUSH1 0x0 JUMPDEST DUP4 DUP2 LT ISZERO PUSH2 0x192 JUMPI DUP1 DUP3 ADD MLOAD DUP2 DUP5 ADD MSTORE PUSH1 0x20 DUP2 ADD SWAP1 POP PUSH2 0x177 JUMP JUMPDEST DUP4 DUP2 GT ISZERO PUSH2 0x1A1 JUMPI PUSH1 0x0 DUP5 DUP5 ADD MSTORE JUMPDEST POP POP POP POP JUMP JUMPDEST PUSH1 0x0 PUSH1 0x1F NOT PUSH1 0x1F DUP4 ADD AND SWAP1 POP SWAP2 SWAP1 POP JUMP JUMPDEST PUSH1 0x0 PUSH2 0x1C3 DUP3 PUSH2 0x158 JUMP JUMPDEST PUSH2 0x1CD DUP2 DUP6 PUSH2 0x163 JUMP JUMPDEST SWAP4 POP PUSH2 0x1DD DUP2 DUP6 PUSH1 0x20 DUP7 ADD PUSH2 0x174 JUMP JUMPDEST PUSH2 0x1E6 DUP2 PUSH2 0x1A7 JUMP JUMPDEST DUP5 ADD SWAP2 POP POP SWAP3 SWAP2 POP POP JUMP JUMPDEST PUSH1 0x0 PUSH1 0x20 DUP3 ADD SWAP1 POP DUP2 DUP2 SUB PUSH1 0x0 DUP4 ADD MSTORE PUSH2 0x20B DUP2 DUP5 PUSH2 0x1B8 JUMP JUMPDEST SWAP1 POP SWAP3 SWAP2 POP POP JUMP INVALID LOG2 PUSH5 0x6970667358 0x22 SLT KECCAK256 0xE 0xD PC PUSH2 0x4165 0xE9 SWAP7 0x23 ADD 0xAF DUP9 0x49 0x2E 0xD5 0xD1 MUL JUMPDEST DUP14 BASEFEE DUP11 0xC7 SLOAD 0xAB 0x2D DUP2 ORIGIN 0x2D DUP9 0xBD 0x4D JUMPDEST PUSH5 0x736F6C6343 STOP ADDMOD 0xF STOP CALLER "
				},
				"gasEstimates": {
					"creation": {
						"codeDepositCost": "117000",
						"executionCost": "22271",
						"totalCost": "139271"
					},
					"external": {
						"Test()": "infinite",
						"a()": "2407",
						"getTest()": "infinite",
						"getValue()": "2437"
					}
				},
				"methodIdentifiers": {
					"Test()": "a163a624",
					"a()": "0dbe671f",
					"getTest()": "a8cd0a80",
					"getValue()": "20965255"
				}
			},
			"storageLayout": {
				"storage": [
					{
						"astId": 4,
						"contract": "chapter02/4testImport.sol:testImport2",
						"label": "a",
						"offset": 0,
						"slot": "0",
						"type": "t_uint256"
					}
				],
				"types": {
					"t_uint256": {
						"encoding": "inplace",
						"label": "uint256",
						"numberOfBytes": "32"
					}
				}
			},
			"userdoc": {
				"kind": "user",
				"methods": {},
				"version": 1
			}
		}
	}
}