{
	"chapter02/4testImport.sol": {
		"testImport1": {
			"abi": [
				{
					"inputs": [],
					"name": "getTest",
					"outputs": [
						{
							"internalType": "string",
							"name": "",
							"type": "string"
						}
					],
					"stateMutability": "view",
					"type": "function"
				},
				{
					"inputs": [],
					"name": "getValue",
					"outputs": [
						{
							"internalType": "uint256",
							"name": "",
							"type": "uint256"
						}
					],
					"stateMutability": "view",
					"type": "function"
				}
			],
			"devdoc": {
				"kind": "dev",
				"methods": {},
				"version": 1
			},
			"evm": {
				"assembly": "    /* \"chapter02/4testImport.sol\":112:373  contract testImport1{... */\n  mstore(0x40, 0x80)\n    /* \"chapter02/4testImport.sol\":165:180  new FatherImp() */\n  mload(0x40)\n  tag_1\n  swap1\n  tag_2\n  jump\t// in\ntag_1:\n  mload(0x40)\n  dup1\n  swap2\n  sub\n  swap1\n  0x00\n  create\n  dup1\n  iszero\n  dup1\n  iszero\n  tag_3\n  jumpi\n  returndatasize\n  0x00\n  dup1\n  returndatacopy\n  revert(0x00, returndatasize)\ntag_3:\n  pop\n    /* \"chapter02/4testImport.sol\":143:180  FatherImp fatherimp = new FatherImp() */\n  0x00\n  dup1\n  0x0100\n  exp\n  dup2\n  sload\n  dup2\n  0xffffffffffffffffffffffffffffffffffffffff\n  mul\n  not\n  and\n  swap1\n  dup4\n  0xffffffffffffffffffffffffffffffffffffffff\n  and\n  mul\n  or\n  swap1\n  sstore\n  pop\n    /* \"chapter02/4testImport.sol\":112:373  contract testImport1{... */\n  callvalue\n  dup1\n  iszero\n  tag_4\n  jumpi\n  0x00\n  dup1\n  revert\ntag_4:\n  pop\n  jump(tag_5)\ntag_2:\n  dataSize(sub_1)\n  dup1\n  dataOffset(sub_1)\n  dup4\n  codecopy\n  add\n  swap1\n  jump\t// out\ntag_5:\n  dataSize(sub_0)\n  dup1\n  dataOffset(sub_0)\n  0x00\n  codecopy\n  0x00\n  return\nstop\n\nsub_0: assembly {\n        /* \"chapter02/4testImport.sol\":112:373  contract testImport1{... */\n      mstore(0x40, 0x80)\n      callvalue\n      dup1\n      iszero\n      tag_1\n      jumpi\n      0x00\n      dup1\n      revert\n    tag_1:\n      pop\n      jumpi(tag_2, lt(calldatasize, 0x04))\n      shr(0xe0, calldataload(0x00))\n      dup1\n      0x20965255\n      eq\n      tag_3\n      jumpi\n      dup1\n      0xa8cd0a80\n      eq\n      tag_4\n      jumpi\n    tag_2:\n      0x00\n      dup1\n      revert\n        /* \"chapter02/4testImport.sol\":187:270  function getValue()external view returns(uint){... */\n    tag_3:\n      tag_5\n      tag_6\n      jump\t// in\n    tag_5:\n      mload(0x40)\n      tag_7\n      swap2\n      swap1\n      tag_8\n      jump\t// in\n    tag_7:\n      mload(0x40)\n      dup1\n      swap2\n      sub\n      swap1\n      return\n        /* \"chapter02/4testImport.sol\":276:368  function getTest()public view returns(string memory){... */\n    tag_4:\n      tag_9\n      tag_10\n      jump\t// in\n    tag_9:\n      mload(0x40)\n      tag_11\n      swap2\n      swap1\n      tag_12\n      jump\t// in\n    tag_11:\n      mload(0x40)\n      dup1\n      swap2\n      sub\n      swap1\n      return\n        /* \"chapter02/4testImport.sol\":187:270  function getValue()external view returns(uint){... */\n    tag_6:\n        /* \"chapter02/4testImport.sol\":228:232  uint */\n      0x00\n        /* \"chapter02/4testImport.sol\":250:259  fatherimp */\n      dup1\n      0x00\n      swap1\n      sload\n      swap1\n      0x0100\n      exp\n      swap1\n      div\n      0xffffffffffffffffffffffffffffffffffffffff\n      and\n        /* \"chapter02/4testImport.sol\":250:261  fatherimp.a */\n      0xffffffffffffffffffffffffffffffffffffffff\n      and\n      0x0dbe671f\n        /* \"chapter02/4testImport.sol\":250:263  fatherimp.a() */\n      mload(0x40)\n      dup2\n      0xffffffff\n      and\n      0xe0\n      shl\n      dup2\n      mstore\n      0x04\n      add\n      0x20\n      mload(0x40)\n      dup1\n      dup4\n      sub\n      dup2\n      dup7\n      gas\n      staticcall\n      iszero\n      dup1\n      iszero\n      tag_15\n      jumpi\n      returndatasize\n      0x00\n      dup1\n      returndatacopy\n      revert(0x00, returndatasize)\n    tag_15:\n      pop\n      pop\n      pop\n      pop\n      mload(0x40)\n      returndatasize\n      not(0x1f)\n      0x1f\n      dup3\n      add\n      and\n      dup3\n      add\n      dup1\n      0x40\n      mstore\n      pop\n      dup2\n      add\n      swap1\n      tag_16\n      swap2\n      swap1\n      tag_17\n      jump\t// in\n    tag_16:\n        /* \"chapter02/4testImport.sol\":243:263  return fatherimp.a() */\n      swap1\n      pop\n        /* \"chapter02/4testImport.sol\":187:270  function getValue()external view returns(uint){... */\n      swap1\n      jump\t// out\n        /* \"chapter02/4testImport.sol\":276:368  function getTest()public view returns(string memory){... */\n    tag_10:\n        /* \"chapter02/4testImport.sol\":314:327  string memory */\n      0x60\n        /* \"chapter02/4testImport.sol\":345:354  fatherimp */\n      0x00\n      dup1\n      sload\n      swap1\n      0x0100\n      exp\n      swap1\n      div\n      0xffffffffffffffffffffffffffffffffffffffff\n      and\n        /* \"chapter02/4testImport.sol\":345:359  fatherimp.Test */\n      0xffffffffffffffffffffffffffffffffffffffff\n      and\n      0xa163a624\n        /* \"chapter02/4testImport.sol\":345:361  fatherimp.Test() */\n      mload(0x40)\n      dup2\n      0xffffffff\n      and\n      0xe0\n      shl\n      dup2\n      mstore\n      0x04\n      add\n      0x00\n      mload(0x40)\n      dup1\n      dup4\n      sub\n      dup2\n      dup7\n      gas\n      staticcall\n      iszero\n      dup1\n      iszero\n      tag_20\n      jumpi\n      returndatasize\n      0x00\n      dup1\n      returndatacopy\n      revert(0x00, returndatasize)\n    tag_20:\n      pop\n      pop\n      pop\n      pop\n      mload(0x40)\n      returndatasize\n      0x00\n      dup3\n      returndatacopy\n      returndatasize\n      not(0x1f)\n      0x1f\n      dup3\n      add\n      and\n      dup3\n      add\n      dup1\n      0x40\n      mstore\n      pop\n      dup2\n      add\n      swap1\n      tag_21\n      swap2\n      swap1\n      tag_22\n      jump\t// in\n    tag_21:\n        /* \"chapter02/4testImport.sol\":338:361  return fatherimp.Test() */\n      swap1\n      pop\n        /* \"chapter02/4testImport.sol\":276:368  function getTest()public view returns(string memory){... */\n      swap1\n      jump\t// out\n        /* \"#utility.yul\":7:84   */\n    tag_23:\n        /* \"#utility.yul\":44:51   */\n      0x00\n        /* \"#utility.yul\":73:78   */\n      dup2\n        /* \"#utility.yul\":62:78   */\n      swap1\n      pop\n        /* \"#utility.yul\":7:84   */\n      swap2\n      swap1\n      pop\n      jump\t// out\n        /* \"#utility.yul\":90:208   */\n    tag_24:\n        /* \"#utility.yul\":177:201   */\n      tag_46\n        /* \"#utility.yul\":195:200   */\n      dup2\n        /* \"#utility.yul\":177:201   */\n      tag_23\n      jump\t// in\n    tag_46:\n        /* \"#utility.yul\":172:175   */\n      dup3\n        /* \"#utility.yul\":165:202   */\n      mstore\n        /* \"#utility.yul\":90:208   */\n      pop\n      pop\n      jump\t// out\n        /* \"#utility.yul\":214:436   */\n    tag_8:\n        /* \"#utility.yul\":307:311   */\n      0x00\n        /* \"#utility.yul\":345:347   */\n      0x20\n        /* \"#utility.yul\":334:343   */\n      dup3\n        /* \"#utility.yul\":330:348   */\n      add\n        /* \"#utility.yul\":322:348   */\n      swap1\n      pop\n        /* \"#utility.yul\":358:429   */\n      tag_48\n        /* \"#utility.yul\":426:427   */\n      0x00\n        /* \"#utility.yul\":415:424   */\n      dup4\n        /* \"#utility.yul\":411:428   */\n      add\n        /* \"#utility.yul\":402:408   */\n      dup5\n        /* \"#utility.yul\":358:429   */\n      tag_24\n      jump\t// in\n    tag_48:\n        /* \"#utility.yul\":214:436   */\n      swap3\n      swap2\n      pop\n      pop\n      jump\t// out\n        /* \"#utility.yul\":442:541   */\n    tag_25:\n        /* \"#utility.yul\":494:500   */\n      0x00\n        /* \"#utility.yul\":528:533   */\n      dup2\n        /* \"#utility.yul\":522:534   */\n      mload\n        /* \"#utility.yul\":512:534   */\n      swap1\n      pop\n        /* \"#utility.yul\":442:541   */\n      swap2\n      swap1\n      pop\n      jump\t// out\n        /* \"#utility.yul\":547:716   */\n    tag_26:\n        /* \"#utility.yul\":631:642   */\n      0x00\n        /* \"#utility.yul\":665:671   */\n      dup3\n        /* \"#utility.yul\":660:663   */\n      dup3\n        /* \"#utility.yul\":653:672   */\n      mstore\n        /* \"#utility.yul\":705:709   */\n      0x20\n        /* \"#utility.yul\":700:703   */\n      dup3\n        /* \"#utility.yul\":696:710   */\n      add\n        /* \"#utility.yul\":681:710   */\n      swap1\n      pop\n        /* \"#utility.yul\":547:716   */\n      swap3\n      swap2\n      pop\n      pop\n      jump\t// out\n        /* \"#utility.yul\":722:1029   */\n    tag_27:\n        /* \"#utility.yul\":790:791   */\n      0x00\n        /* \"#utility.yul\":800:913   */\n    tag_52:\n        /* \"#utility.yul\":814:820   */\n      dup4\n        /* \"#utility.yul\":811:812   */\n      dup2\n        /* \"#utility.yul\":808:821   */\n      lt\n        /* \"#utility.yul\":800:913   */\n      iszero\n      tag_54\n      jumpi\n        /* \"#utility.yul\":899:900   */\n      dup1\n        /* \"#utility.yul\":894:897   */\n      dup3\n        /* \"#utility.yul\":890:901   */\n      add\n        /* \"#utility.yul\":884:902   */\n      mload\n        /* \"#utility.yul\":880:881   */\n      dup2\n        /* \"#utility.yul\":875:878   */\n      dup5\n        /* \"#utility.yul\":871:882   */\n      add\n        /* \"#utility.yul\":864:903   */\n      mstore\n        /* \"#utility.yul\":836:838   */\n      0x20\n        /* \"#utility.yul\":833:834   */\n      dup2\n        /* \"#utility.yul\":829:839   */\n      add\n        /* \"#utility.yul\":824:839   */\n      swap1\n      pop\n        /* \"#utility.yul\":800:913   */\n      jump(tag_52)\n    tag_54:\n        /* \"#utility.yul\":931:937   */\n      dup4\n        /* \"#utility.yul\":928:929   */\n      dup2\n        /* \"#utility.yul\":925:938   */\n      gt\n        /* \"#utility.yul\":922:1023   */\n      iszero\n      tag_55\n      jumpi\n        /* \"#utility.yul\":1011:1012   */\n      0x00\n        /* \"#utility.yul\":1002:1008   */\n      dup5\n        /* \"#utility.yul\":997:1000   */\n      dup5\n        /* \"#utility.yul\":993:1009   */\n      add\n        /* \"#utility.yul\":986:1013   */\n      mstore\n        /* \"#utility.yul\":922:1023   */\n    tag_55:\n        /* \"#utility.yul\":771:1029   */\n      pop\n        /* \"#utility.yul\":722:1029   */\n      pop\n      pop\n      pop\n      jump\t// out\n        /* \"#utility.yul\":1035:1137   */\n    tag_28:\n        /* \"#utility.yul\":1076:1082   */\n      0x00\n        /* \"#utility.yul\":1127:1129   */\n      0x1f\n        /* \"#utility.yul\":1123:1130   */\n      not\n        /* \"#utility.yul\":1118:1120   */\n      0x1f\n        /* \"#utility.yul\":1111:1116   */\n      dup4\n        /* \"#utility.yul\":1107:1121   */\n      add\n        /* \"#utility.yul\":1103:1131   */\n      and\n        /* \"#utility.yul\":1093:1131   */\n      swap1\n      pop\n        /* \"#utility.yul\":1035:1137   */\n      swap2\n      swap1\n      pop\n      jump\t// out\n        /* \"#utility.yul\":1143:1507   */\n    tag_29:\n        /* \"#utility.yul\":1231:1234   */\n      0x00\n        /* \"#utility.yul\":1259:1298   */\n      tag_58\n        /* \"#utility.yul\":1292:1297   */\n      dup3\n        /* \"#utility.yul\":1259:1298   */\n      tag_25\n      jump\t// in\n    tag_58:\n        /* \"#utility.yul\":1314:1385   */\n      tag_59\n        /* \"#utility.yul\":1378:1384   */\n      dup2\n        /* \"#utility.yul\":1373:1376   */\n      dup6\n        /* \"#utility.yul\":1314:1385   */\n      tag_26\n      jump\t// in\n    tag_59:\n        /* \"#utility.yul\":1307:1385   */\n      swap4\n      pop\n        /* \"#utility.yul\":1394:1446   */\n      tag_60\n        /* \"#utility.yul\":1439:1445   */\n      dup2\n        /* \"#utility.yul\":1434:1437   */\n      dup6\n        /* \"#utility.yul\":1427:1431   */\n      0x20\n        /* \"#utility.yul\":1420:1425   */\n      dup7\n        /* \"#utility.yul\":1416:1432   */\n      add\n        /* \"#utility.yul\":1394:1446   */\n      tag_27\n      jump\t// in\n    tag_60:\n        /* \"#utility.yul\":1471:1500   */\n      tag_61\n        /* \"#utility.yul\":1493:1499   */\n      dup2\n        /* \"#utility.yul\":1471:1500   */\n      tag_28\n      jump\t// in\n    tag_61:\n        /* \"#utility.yul\":1466:1469   */\n      dup5\n        /* \"#utility.yul\":1462:1501   */\n      add\n        /* \"#utility.yul\":1455:1501   */\n      swap2\n      pop\n        /* \"#utility.yul\":1235:1507   */\n      pop\n        /* \"#utility.yul\":1143:1507   */\n      swap3\n      swap2\n      pop\n      pop\n      jump\t// out\n        /* \"#utility.yul\":1513:1826   */\n    tag_12:\n        /* \"#utility.yul\":1626:1630   */\n      0x00\n        /* \"#utility.yul\":1664:1666   */\n      0x20\n        /* \"#utility.yul\":1653:1662   */\n      dup3\n        /* \"#utility.yul\":1649:1667   */\n      add\n        /* \"#utility.yul\":1641:1667   */\n      swap1\n      pop\n        /* \"#utility.yul\":1713:1722   */\n      dup2\n        /* \"#utility.yul\":1707:1711   */\n      dup2\n        /* \"#utility.yul\":1703:1723   */\n      sub\n        /* \"#utility.yul\":1699:1700   */\n      0x00\n        /* \"#utility.yul\":1688:1697   */\n      dup4\n        /* \"#utility.yul\":1684:1701   */\n      add\n        /* \"#utility.yul\":1677:1724   */\n      mstore\n        /* \"#utility.yul\":1741:1819   */\n      tag_63\n        /* \"#utility.yul\":1814:1818   */\n      dup2\n        /* \"#utility.yul\":1805:1811   */\n      dup5\n        /* \"#utility.yul\":1741:1819   */\n      tag_29\n      jump\t// in\n    tag_63:\n        /* \"#utility.yul\":1733:1819   */\n      swap1\n      pop\n        /* \"#utility.yul\":1513:1826   */\n      swap3\n      swap2\n      pop\n      pop\n      jump\t// out\n        /* \"#utility.yul\":1832:1907   */\n    tag_30:\n        /* \"#utility.yul\":1865:1871   */\n      0x00\n        /* \"#utility.yul\":1898:1900   */\n      0x40\n        /* \"#utility.yul\":1892:1901   */\n      mload\n        /* \"#utility.yul\":1882:1901   */\n      swap1\n      pop\n        /* \"#utility.yul\":1832:1907   */\n      swap1\n      jump\t// out\n        /* \"#utility.yul\":1913:2030   */\n    tag_31:\n        /* \"#utility.yul\":2022:2023   */\n      0x00\n        /* \"#utility.yul\":2019:2020   */\n      dup1\n        /* \"#utility.yul\":2012:2024   */\n      revert\n        /* \"#utility.yul\":2036:2153   */\n    tag_32:\n        /* \"#utility.yul\":2145:2146   */\n      0x00\n        /* \"#utility.yul\":2142:2143   */\n      dup1\n        /* \"#utility.yul\":2135:2147   */\n      revert\n        /* \"#utility.yul\":2159:2281   */\n    tag_33:\n        /* \"#utility.yul\":2232:2256   */\n      tag_68\n        /* \"#utility.yul\":2250:2255   */\n      dup2\n        /* \"#utility.yul\":2232:2256   */\n      tag_23\n      jump\t// in\n    tag_68:\n        /* \"#utility.yul\":2225:2230   */\n      dup2\n        /* \"#utility.yul\":2222:2257   */\n      eq\n        /* \"#utility.yul\":2212:2275   */\n      tag_69\n      jumpi\n        /* \"#utility.yul\":2271:2272   */\n      0x00\n        /* \"#utility.yul\":2268:2269   */\n      dup1\n        /* \"#utility.yul\":2261:2273   */\n      revert\n        /* \"#utility.yul\":2212:2275   */\n    tag_69:\n        /* \"#utility.yul\":2159:2281   */\n      pop\n      jump\t// out\n        /* \"#utility.yul\":2287:2430   */\n    tag_34:\n        /* \"#utility.yul\":2344:2349   */\n      0x00\n        /* \"#utility.yul\":2375:2381   */\n      dup2\n        /* \"#utility.yul\":2369:2382   */\n      mload\n        /* \"#utility.yul\":2360:2382   */\n      swap1\n      pop\n        /* \"#utility.yul\":2391:2424   */\n      tag_71\n        /* \"#utility.yul\":2418:2423   */\n      dup2\n        /* \"#utility.yul\":2391:2424   */\n      tag_33\n      jump\t// in\n    tag_71:\n        /* \"#utility.yul\":2287:2430   */\n      swap3\n      swap2\n      pop\n      pop\n      jump\t// out\n        /* \"#utility.yul\":2436:2787   */\n    tag_17:\n        /* \"#utility.yul\":2506:2512   */\n      0x00\n        /* \"#utility.yul\":2555:2557   */\n      0x20\n        /* \"#utility.yul\":2543:2552   */\n      dup3\n        /* \"#utility.yul\":2534:2541   */\n      dup5\n        /* \"#utility.yul\":2530:2553   */\n      sub\n        /* \"#utility.yul\":2526:2558   */\n      slt\n        /* \"#utility.yul\":2523:2642   */\n      iszero\n      tag_73\n      jumpi\n        /* \"#utility.yul\":2561:2640   */\n      tag_74\n      tag_31\n      jump\t// in\n    tag_74:\n        /* \"#utility.yul\":2523:2642   */\n    tag_73:\n        /* \"#utility.yul\":2681:2682   */\n      0x00\n        /* \"#utility.yul\":2706:2770   */\n      tag_75\n        /* \"#utility.yul\":2762:2769   */\n      dup5\n        /* \"#utility.yul\":2753:2759   */\n      dup3\n        /* \"#utility.yul\":2742:2751   */\n      dup6\n        /* \"#utility.yul\":2738:2760   */\n      add\n        /* \"#utility.yul\":2706:2770   */\n      tag_34\n      jump\t// in\n    tag_75:\n        /* \"#utility.yul\":2696:2770   */\n      swap2\n      pop\n        /* \"#utility.yul\":2652:2780   */\n      pop\n        /* \"#utility.yul\":2436:2787   */\n      swap3\n      swap2\n      pop\n      pop\n      jump\t// out\n        /* \"#utility.yul\":2793:2910   */\n    tag_35:\n        /* \"#utility.yul\":2902:2903   */\n      0x00\n        /* \"#utility.yul\":2899:2900   */\n      dup1\n        /* \"#utility.yul\":2892:2904   */\n      revert\n        /* \"#utility.yul\":2916:3033   */\n    tag_36:\n        /* \"#utility.yul\":3025:3026   */\n      0x00\n        /* \"#utility.yul\":3022:3023   */\n      dup1\n        /* \"#utility.yul\":3015:3027   */\n      revert\n        /* \"#utility.yul\":3039:3219   */\n    tag_37:\n        /* \"#utility.yul\":3087:3164   */\n      0x4e487b7100000000000000000000000000000000000000000000000000000000\n        /* \"#utility.yul\":3084:3085   */\n      0x00\n        /* \"#utility.yul\":3077:3165   */\n      mstore\n        /* \"#utility.yul\":3184:3188   */\n      0x41\n        /* \"#utility.yul\":3181:3182   */\n      0x04\n        /* \"#utility.yul\":3174:3189   */\n      mstore\n        /* \"#utility.yul\":3208:3212   */\n      0x24\n        /* \"#utility.yul\":3205:3206   */\n      0x00\n        /* \"#utility.yul\":3198:3213   */\n      revert\n        /* \"#utility.yul\":3225:3506   */\n    tag_38:\n        /* \"#utility.yul\":3308:3335   */\n      tag_80\n        /* \"#utility.yul\":3330:3334   */\n      dup3\n        /* \"#utility.yul\":3308:3335   */\n      tag_28\n      jump\t// in\n    tag_80:\n        /* \"#utility.yul\":3300:3306   */\n      dup2\n        /* \"#utility.yul\":3296:3336   */\n      add\n        /* \"#utility.yul\":3438:3444   */\n      dup2\n        /* \"#utility.yul\":3426:3436   */\n      dup2\n        /* \"#utility.yul\":3423:3445   */\n      lt\n        /* \"#utility.yul\":3402:3420   */\n      0xffffffffffffffff\n        /* \"#utility.yul\":3390:3400   */\n      dup3\n        /* \"#utility.yul\":3387:3421   */\n      gt\n        /* \"#utility.yul\":3384:3446   */\n      or\n        /* \"#utility.yul\":3381:3469   */\n      iszero\n      tag_81\n      jumpi\n        /* \"#utility.yul\":3449:3467   */\n      tag_82\n      tag_37\n      jump\t// in\n    tag_82:\n        /* \"#utility.yul\":3381:3469   */\n    tag_81:\n        /* \"#utility.yul\":3489:3499   */\n      dup1\n        /* \"#utility.yul\":3485:3487   */\n      0x40\n        /* \"#utility.yul\":3478:3500   */\n      mstore\n        /* \"#utility.yul\":3268:3506   */\n      pop\n        /* \"#utility.yul\":3225:3506   */\n      pop\n      pop\n      jump\t// out\n        /* \"#utility.yul\":3512:3641   */\n    tag_39:\n        /* \"#utility.yul\":3546:3552   */\n      0x00\n        /* \"#utility.yul\":3573:3593   */\n      tag_84\n      tag_30\n      jump\t// in\n    tag_84:\n        /* \"#utility.yul\":3563:3593   */\n      swap1\n      pop\n        /* \"#utility.yul\":3602:3635   */\n      tag_85\n        /* \"#utility.yul\":3630:3634   */\n      dup3\n        /* \"#utility.yul\":3622:3628   */\n      dup3\n        /* \"#utility.yul\":3602:3635   */\n      tag_38\n      jump\t// in\n    tag_85:\n        /* \"#utility.yul\":3512:3641   */\n      swap2\n      swap1\n      pop\n      jump\t// out\n        /* \"#utility.yul\":3647:3955   */\n    tag_40:\n        /* \"#utility.yul\":3709:3713   */\n      0x00\n        /* \"#utility.yul\":3799:3817   */\n      0xffffffffffffffff\n        /* \"#utility.yul\":3791:3797   */\n      dup3\n        /* \"#utility.yul\":3788:3818   */\n      gt\n        /* \"#utility.yul\":3785:3841   */\n      iszero\n      tag_87\n      jumpi\n        /* \"#utility.yul\":3821:3839   */\n      tag_88\n      tag_37\n      jump\t// in\n    tag_88:\n        /* \"#utility.yul\":3785:3841   */\n    tag_87:\n        /* \"#utility.yul\":3859:3888   */\n      tag_89\n        /* \"#utility.yul\":3881:3887   */\n      dup3\n        /* \"#utility.yul\":3859:3888   */\n      tag_28\n      jump\t// in\n    tag_89:\n        /* \"#utility.yul\":3851:3888   */\n      swap1\n      pop\n        /* \"#utility.yul\":3943:3947   */\n      0x20\n        /* \"#utility.yul\":3937:3941   */\n      dup2\n        /* \"#utility.yul\":3933:3948   */\n      add\n        /* \"#utility.yul\":3925:3948   */\n      swap1\n      pop\n        /* \"#utility.yul\":3647:3955   */\n      swap2\n      swap1\n      pop\n      jump\t// out\n        /* \"#utility.yul\":3961:4382   */\n    tag_41:\n        /* \"#utility.yul\":4050:4055   */\n      0x00\n        /* \"#utility.yul\":4075:4141   */\n      tag_91\n        /* \"#utility.yul\":4091:4140   */\n      tag_92\n        /* \"#utility.yul\":4133:4139   */\n      dup5\n        /* \"#utility.yul\":4091:4140   */\n      tag_40\n      jump\t// in\n    tag_92:\n        /* \"#utility.yul\":4075:4141   */\n      tag_39\n      jump\t// in\n    tag_91:\n        /* \"#utility.yul\":4066:4141   */\n      swap1\n      pop\n        /* \"#utility.yul\":4164:4170   */\n      dup3\n        /* \"#utility.yul\":4157:4162   */\n      dup2\n        /* \"#utility.yul\":4150:4171   */\n      mstore\n        /* \"#utility.yul\":4202:4206   */\n      0x20\n        /* \"#utility.yul\":4195:4200   */\n      dup2\n        /* \"#utility.yul\":4191:4207   */\n      add\n        /* \"#utility.yul\":4240:4243   */\n      dup5\n        /* \"#utility.yul\":4231:4237   */\n      dup5\n        /* \"#utility.yul\":4226:4229   */\n      dup5\n        /* \"#utility.yul\":4222:4238   */\n      add\n        /* \"#utility.yul\":4219:4244   */\n      gt\n        /* \"#utility.yul\":4216:4328   */\n      iszero\n      tag_93\n      jumpi\n        /* \"#utility.yul\":4247:4326   */\n      tag_94\n      tag_36\n      jump\t// in\n    tag_94:\n        /* \"#utility.yul\":4216:4328   */\n    tag_93:\n        /* \"#utility.yul\":4337:4376   */\n      tag_95\n        /* \"#utility.yul\":4369:4375   */\n      dup5\n        /* \"#utility.yul\":4364:4367   */\n      dup3\n        /* \"#utility.yul\":4359:4362   */\n      dup6\n        /* \"#utility.yul\":4337:4376   */\n      tag_27\n      jump\t// in\n    tag_95:\n        /* \"#utility.yul\":4056:4382   */\n      pop\n        /* \"#utility.yul\":3961:4382   */\n      swap4\n      swap3\n      pop\n      pop\n      pop\n      jump\t// out\n        /* \"#utility.yul\":4402:4757   */\n    tag_42:\n        /* \"#utility.yul\":4469:4474   */\n      0x00\n        /* \"#utility.yul\":4518:4521   */\n      dup3\n        /* \"#utility.yul\":4511:4515   */\n      0x1f\n        /* \"#utility.yul\":4503:4509   */\n      dup4\n        /* \"#utility.yul\":4499:4516   */\n      add\n        /* \"#utility.yul\":4495:4522   */\n      slt\n        /* \"#utility.yul\":4485:4607   */\n      tag_97\n      jumpi\n        /* \"#utility.yul\":4526:4605   */\n      tag_98\n      tag_35\n      jump\t// in\n    tag_98:\n        /* \"#utility.yul\":4485:4607   */\n    tag_97:\n        /* \"#utility.yul\":4636:4642   */\n      dup2\n        /* \"#utility.yul\":4630:4643   */\n      mload\n        /* \"#utility.yul\":4661:4751   */\n      tag_99\n        /* \"#utility.yul\":4747:4750   */\n      dup5\n        /* \"#utility.yul\":4739:4745   */\n      dup3\n        /* \"#utility.yul\":4732:4736   */\n      0x20\n        /* \"#utility.yul\":4724:4730   */\n      dup7\n        /* \"#utility.yul\":4720:4737   */\n      add\n        /* \"#utility.yul\":4661:4751   */\n      tag_41\n      jump\t// in\n    tag_99:\n        /* \"#utility.yul\":4652:4751   */\n      swap2\n      pop\n        /* \"#utility.yul\":4475:4757   */\n      pop\n        /* \"#utility.yul\":4402:4757   */\n      swap3\n      swap2\n      pop\n      pop\n      jump\t// out\n        /* \"#utility.yul\":4763:5287   */\n    tag_22:\n        /* \"#utility.yul\":4843:4849   */\n      0x00\n        /* \"#utility.yul\":4892:4894   */\n      0x20\n        /* \"#utility.yul\":4880:4889   */\n      dup3\n        /* \"#utility.yul\":4871:4878   */\n      dup5\n        /* \"#utility.yul\":4867:4890   */\n      sub\n        /* \"#utility.yul\":4863:4895   */\n      slt\n        /* \"#utility.yul\":4860:4979   */\n      iszero\n      tag_101\n      jumpi\n        /* \"#utility.yul\":4898:4977   */\n      tag_102\n      tag_31\n      jump\t// in\n    tag_102:\n        /* \"#utility.yul\":4860:4979   */\n    tag_101:\n        /* \"#utility.yul\":5039:5040   */\n      0x00\n        /* \"#utility.yul\":5028:5037   */\n      dup3\n        /* \"#utility.yul\":5024:5041   */\n      add\n        /* \"#utility.yul\":5018:5042   */\n      mload\n        /* \"#utility.yul\":5069:5087   */\n      0xffffffffffffffff\n        /* \"#utility.yul\":5061:5067   */\n      dup2\n        /* \"#utility.yul\":5058:5088   */\n      gt\n        /* \"#utility.yul\":5055:5172   */\n      iszero\n      tag_103\n      jumpi\n        /* \"#utility.yul\":5091:5170   */\n      tag_104\n      tag_32\n      jump\t// in\n    tag_104:\n        /* \"#utility.yul\":5055:5172   */\n    tag_103:\n        /* \"#utility.yul\":5196:5270   */\n      tag_105\n        /* \"#utility.yul\":5262:5269   */\n      dup5\n        /* \"#utility.yul\":5253:5259   */\n      dup3\n        /* \"#utility.yul\":5242:5251   */\n      dup6\n        /* \"#utility.yul\":5238:5260   */\n      add\n        /* \"#utility.yul\":5196:5270   */\n      tag_42\n      jump\t// in\n    tag_105:\n        /* \"#utility.yul\":5186:5270   */\n      swap2\n      pop\n        /* \"#utility.yul\":4989:5280   */\n      pop\n        /* \"#utility.yul\":4763:5287   */\n      swap3\n      swap2\n      pop\n      pop\n      jump\t// out\n\n    auxdata: 0xa2646970667358221220e0952859556c933f5a4becc8287a0ed1af934f6e15feaead2662a7d40c2a86d664736f6c634300080f0033\n}\n\nsub_1: assembly {\n        /* \"chapter02/4fatherImp.sol\":56:198  contract FatherImp{... */\n      mstore(0x40, 0x80)\n        /* \"chapter02/4fatherImp.sol\":97:100  100 */\n      0x64\n        /* \"chapter02/4fatherImp.sol\":80:100  uint  public a = 100 */\n      0x00\n      sstore\n        /* \"chapter02/4fatherImp.sol\":56:198  contract FatherImp{... */\n      callvalue\n      dup1\n      iszero\n      tag_1\n      jumpi\n      0x00\n      dup1\n      revert\n    tag_1:\n      pop\n      dataSize(sub_0)\n      dup1\n      dataOffset(sub_0)\n      0x00\n      codecopy\n      0x00\n      return\n    stop\n\n    sub_0: assembly {\n            /* \"chapter02/4fatherImp.sol\":56:198  contract FatherImp{... */\n          mstore(0x40, 0x80)\n          callvalue\n          dup1\n          iszero\n          tag_1\n          jumpi\n          0x00\n          dup1\n          revert\n        tag_1:\n          pop\n          jumpi(tag_2, lt(calldatasize, 0x04))\n          shr(0xe0, calldataload(0x00))\n          dup1\n          0x0dbe671f\n          eq\n          tag_3\n          jumpi\n          dup1\n          0xa163a624\n          eq\n          tag_4\n          jumpi\n        tag_2:\n          0x00\n          dup1\n          revert\n            /* \"chapter02/4fatherImp.sol\":80:100  uint  public a = 100 */\n        tag_3:\n          tag_5\n          tag_6\n          jump\t// in\n        tag_5:\n          mload(0x40)\n          tag_7\n          swap2\n          swap1\n          tag_8\n          jump\t// in\n        tag_7:\n          mload(0x40)\n          dup1\n          swap2\n          sub\n          swap1\n          return\n            /* \"chapter02/4fatherImp.sol\":106:196  function Test()public pure returns(string memory ){... */\n        tag_4:\n          tag_9\n          tag_10\n          jump\t// in\n        tag_9:\n          mload(0x40)\n          tag_11\n          swap2\n          swap1\n          tag_12\n          jump\t// in\n        tag_11:\n          mload(0x40)\n          dup1\n          swap2\n          sub\n          swap1\n          return\n            /* \"chapter02/4fatherImp.sol\":80:100  uint  public a = 100 */\n        tag_6:\n          sload(0x00)\n          dup2\n          jump\t// out\n            /* \"chapter02/4fatherImp.sol\":106:196  function Test()public pure returns(string memory ){... */\n        tag_10:\n            /* \"chapter02/4fatherImp.sol\":141:154  string memory */\n          0x60\n            /* \"chapter02/4fatherImp.sol\":166:189  return \"this is a test\" */\n          mload(0x40)\n          dup1\n          0x40\n          add\n          0x40\n          mstore\n          dup1\n          0x0e\n          dup2\n          mstore\n          0x20\n          add\n          0x7468697320697320612074657374000000000000000000000000000000000000\n          dup2\n          mstore\n          pop\n          swap1\n          pop\n            /* \"chapter02/4fatherImp.sol\":106:196  function Test()public pure returns(string memory ){... */\n          swap1\n          jump\t// out\n            /* \"#utility.yul\":7:84   */\n        tag_14:\n            /* \"#utility.yul\":44:51   */\n          0x00\n            /* \"#utility.yul\":73:78   */\n          dup2\n            /* \"#utility.yul\":62:78   */\n          swap1\n          pop\n            /* \"#utility.yul\":7:84   */\n          swap2\n          swap1\n          pop\n          jump\t// out\n            /* \"#utility.yul\":90:208   */\n        tag_15:\n            /* \"#utility.yul\":177:201   */\n          tag_24\n            /* \"#utility.yul\":195:200   */\n          dup2\n            /* \"#utility.yul\":177:201   */\n          tag_14\n          jump\t// in\n        tag_24:\n            /* \"#utility.yul\":172:175   */\n          dup3\n            /* \"#utility.yul\":165:202   */\n          mstore\n            /* \"#utility.yul\":90:208   */\n          pop\n          pop\n          jump\t// out\n            /* \"#utility.yul\":214:436   */\n        tag_8:\n            /* \"#utility.yul\":307:311   */\n          0x00\n            /* \"#utility.yul\":345:347   */\n          0x20\n            /* \"#utility.yul\":334:343   */\n          dup3\n            /* \"#utility.yul\":330:348   */\n          add\n            /* \"#utility.yul\":322:348   */\n          swap1\n          pop\n            /* \"#utility.yul\":358:429   */\n          tag_26\n            /* \"#utility.yul\":426:427   */\n          0x00\n            /* \"#utility.yul\":415:424   */\n          dup4\n            /* \"#utility.yul\":411:428   */\n          add\n            /* \"#utility.yul\":402:408   */\n          dup5\n            /* \"#utility.yul\":358:429   */\n          tag_15\n          jump\t// in\n        tag_26:\n            /* \"#utility.yul\":214:436   */\n          swap3\n          swap2\n          pop\n          pop\n          jump\t// out\n            /* \"#utility.yul\":442:541   */\n        tag_16:\n            /* \"#utility.yul\":494:500   */\n          0x00\n            /* \"#utility.yul\":528:533   */\n          dup2\n            /* \"#utility.yul\":522:534   */\n          mload\n            /* \"#utility.yul\":512:534   */\n          swap1\n          pop\n            /* \"#utility.yul\":442:541   */\n          swap2\n          swap1\n          pop\n          jump\t// out\n            /* \"#utility.yul\":547:716   */\n        tag_17:\n            /* \"#utility.yul\":631:642   */\n          0x00\n            /* \"#utility.yul\":665:671   */\n          dup3\n            /* \"#utility.yul\":660:663   */\n          dup3\n            /* \"#utility.yul\":653:672   */\n          mstore\n            /* \"#utility.yul\":705:709   */\n          0x20\n            /* \"#utility.yul\":700:703   */\n          dup3\n            /* \"#utility.yul\":696:710   */\n          add\n            /* \"#utility.yul\":681:710   */\n          swap1\n          pop\n            /* \"#utility.yul\":547:716   */\n          swap3\n          swap2\n          pop\n          pop\n          jump\t// out\n            /* \"#utility.yul\":722:1029   */\n        tag_18:\n            /* \"#utility.yul\":790:791   */\n          0x00\n            /* \"#utility.yul\":800:913   */\n        tag_30:\n            /* \"#utility.yul\":814:820   */\n          dup4\n            /* \"#utility.yul\":811:812   */\n          dup2\n            /* \"#utility.yul\":808:821   */\n          lt\n            /* \"#utility.yul\":800:913   */\n          iszero\n          tag_32\n          jumpi\n            /* \"#utility.yul\":899:900   */\n          dup1\n            /* \"#utility.yul\":894:897   */\n          dup3\n            /* \"#utility.yul\":890:901   */\n          add\n            /* \"#utility.yul\":884:902   */\n          mload\n            /* \"#utility.yul\":880:881   */\n          dup2\n            /* \"#utility.yul\":875:878   */\n          dup5\n            /* \"#utility.yul\":871:882   */\n          add\n            /* \"#utility.yul\":864:903   */\n          mstore\n            /* \"#utility.yul\":836:838   */\n          0x20\n            /* \"#utility.yul\":833:834   */\n          dup2\n            /* \"#utility.yul\":829:839   */\n          add\n            /* \"#utility.yul\":824:839   */\n          swap1\n          pop\n            /* \"#utility.yul\":800:913   */\n          jump(tag_30)\n        tag_32:\n            /* \"#utility.yul\":931:937   */\n          dup4\n            /* \"#utility.yul\":928:929   */\n          dup2\n            /* \"#utility.yul\":925:938   */\n          gt\n            /* \"#utility.yul\":922:1023   */\n          iszero\n          tag_33\n          jumpi\n            /* \"#utility.yul\":1011:1012   */\n          0x00\n            /* \"#utility.yul\":1002:1008   */\n          dup5\n            /* \"#utility.yul\":997:1000   */\n          dup5\n            /* \"#utility.yul\":993:1009   */\n          add\n            /* \"#utility.yul\":986:1013   */\n          mstore\n            /* \"#utility.yul\":922:1023   */\n        tag_33:\n            /* \"#utility.yul\":771:1029   */\n          pop\n            /* \"#utility.yul\":722:1029   */\n          pop\n          pop\n          pop\n          jump\t// out\n            /* \"#utility.yul\":1035:1137   */\n        tag_19:\n            /* \"#utility.yul\":1076:1082   */\n          0x00\n            /* \"#utility.yul\":1127:1129   */\n          0x1f\n            /* \"#utility.yul\":1123:1130   */\n          not\n            /* \"#utility.yul\":1118:1120   */\n          0x1f\n            /* \"#utility.yul\":1111:1116   */\n          dup4\n            /* \"#utility.yul\":1107:1121   */\n          add\n            /* \"#utility.yul\":1103:1131   */\n          and\n            /* \"#utility.yul\":1093:1131   */\n          swap1\n          pop\n            /* \"#utility.yul\":1035:1137   */\n          swap2\n          swap1\n          pop\n          jump\t// out\n            /* \"#utility.yul\":1143:1507   */\n        tag_20:\n            /* \"#utility.yul\":1231:1234   */\n          0x00\n            /* \"#utility.yul\":1259:1298   */\n          tag_36\n            /* \"#utility.yul\":1292:1297   */\n          dup3\n            /* \"#utility.yul\":1259:1298   */\n          tag_16\n          jump\t// in\n        tag_36:\n            /* \"#utility.yul\":1314:1385   */\n          tag_37\n            /* \"#utility.yul\":1378:1384   */\n          dup2\n            /* \"#utility.yul\":1373:1376   */\n          dup6\n            /* \"#utility.yul\":1314:1385   */\n          tag_17\n          jump\t// in\n        tag_37:\n            /* \"#utility.yul\":1307:1385   */\n          swap4\n          pop\n            /* \"#utility.yul\":1394:1446   */\n          tag_38\n            /* \"#utility.yul\":1439:1445   */\n          dup2\n            /* \"#utility.yul\":1434:1437   */\n          dup6\n            /* \"#utility.yul\":1427:1431   */\n          0x20\n            /* \"#utility.yul\":1420:1425   */\n          dup7\n            /* \"#utility.yul\":1416:1432   */\n          add\n            /* \"#utility.yul\":1394:1446   */\n          tag_18\n          jump\t// in\n        tag_38:\n            /* \"#utility.yul\":1471:1500   */\n          tag_39\n            /* \"#utility.yul\":1493:1499   */\n          dup2\n            /* \"#utility.yul\":1471:1500   */\n          tag_19\n          jump\t// in\n        tag_39:\n            /* \"#utility.yul\":1466:1469   */\n          dup5\n            /* \"#utility.yul\":1462:1501   */\n          add\n            /* \"#utility.yul\":1455:1501   */\n          swap2\n          pop\n            /* \"#utility.yul\":1235:1507   */\n          pop\n            /* \"#utility.yul\":1143:1507   */\n          swap3\n          swap2\n          pop\n          pop\n          jump\t// out\n            /* \"#utility.yul\":1513:1826   */\n        tag_12:\n            /* \"#utility.yul\":1626:1630   */\n          0x00\n            /* \"#utility.yul\":1664:1666   */\n          0x20\n            /* \"#utility.yul\":1653:1662   */\n          dup3\n            /* \"#utility.yul\":1649:1667   */\n          add\n            /* \"#utility.yul\":1641:1667   */\n          swap1\n          pop\n            /* \"#utility.yul\":1713:1722   */\n          dup2\n            /* \"#utility.yul\":1707:1711   */\n          dup2\n            /* \"#utility.yul\":1703:1723   */\n          sub\n            /* \"#utility.yul\":1699:1700   */\n          0x00\n            /* \"#utility.yul\":1688:1697   */\n          dup4\n            /* \"#utility.yul\":1684:1701   */\n          add\n            /* \"#utility.yul\":1677:1724   */\n          mstore\n            /* \"#utility.yul\":1741:1819   */\n          tag_41\n            /* \"#utility.yul\":1814:1818   */\n          dup2\n            /* \"#utility.yul\":1805:1811   */\n          dup5\n            /* \"#utility.yul\":1741:1819   */\n          tag_20\n          jump\t// in\n        tag_41:\n            /* \"#utility.yul\":1733:1819   */\n          swap1\n          pop\n            /* \"#utility.yul\":1513:1826   */\n          swap3\n          swap2\n          pop\n          pop\n          jump\t// out\n\n        auxdata: 0xa26469706673582212201d5c51775d5b3a065ccf49e7ac8946868dca5870616ec65786badb17652f5e2f64736f6c634300080f0033\n    }\n}\n",
				"bytecode": {
					"linkReferences": {},
					"object": "60806040526040516100109061007e565b604051809103906000f08015801561002c573d6000803e3d6000fd5b506000806101000a81548173ffffffffffffffffffffffffffffffffffffffff021916908373ffffffffffffffffffffffffffffffffffffffff16021790555034801561007857600080fd5b5061008b565b6102048061054483390190565b6104aa8061009a6000396000f3fe608060405234801561001057600080fd5b50600436106100365760003560e01c8063209652551461003b578063a8cd0a8014610059575b600080fd5b610043610077565b60405161005091906101c2565b60405180910390f35b61006161010e565b60405161006e9190610276565b60405180910390f35b60008060009054906101000a900473ffffffffffffffffffffffffffffffffffffffff1673ffffffffffffffffffffffffffffffffffffffff16630dbe671f6040518163ffffffff1660e01b8152600401602060405180830381865afa1580156100e5573d6000803e3d6000fd5b505050506040513d601f19601f8201168201806040525081019061010991906102d8565b905090565b606060008054906101000a900473ffffffffffffffffffffffffffffffffffffffff1673ffffffffffffffffffffffffffffffffffffffff1663a163a6246040518163ffffffff1660e01b8152600401600060405180830381865afa15801561017b573d6000803e3d6000fd5b505050506040513d6000823e3d601f19601f820116820180604052508101906101a4919061042b565b905090565b6000819050919050565b6101bc816101a9565b82525050565b60006020820190506101d760008301846101b3565b92915050565b600081519050919050565b600082825260208201905092915050565b60005b838110156102175780820151818401526020810190506101fc565b83811115610226576000848401525b50505050565b6000601f19601f8301169050919050565b6000610248826101dd565b61025281856101e8565b93506102628185602086016101f9565b61026b8161022c565b840191505092915050565b60006020820190508181036000830152610290818461023d565b905092915050565b6000604051905090565b600080fd5b600080fd5b6102b5816101a9565b81146102c057600080fd5b50565b6000815190506102d2816102ac565b92915050565b6000602082840312156102ee576102ed6102a2565b5b60006102fc848285016102c3565b91505092915050565b600080fd5b600080fd5b7f4e487b7100000000000000000000000000000000000000000000000000000000600052604160045260246000fd5b6103478261022c565b810181811067ffffffffffffffff821117156103665761036561030f565b5b80604052505050565b6000610379610298565b9050610385828261033e565b919050565b600067ffffffffffffffff8211156103a5576103a461030f565b5b6103ae8261022c565b9050602081019050919050565b60006103ce6103c98461038a565b61036f565b9050828152602081018484840111156103ea576103e961030a565b5b6103f58482856101f9565b509392505050565b600082601f83011261041257610411610305565b5b81516104228482602086016103bb565b91505092915050565b600060208284031215610441576104406102a2565b5b600082015167ffffffffffffffff81111561045f5761045e6102a7565b5b61046b848285016103fd565b9150509291505056fea2646970667358221220e0952859556c933f5a4becc8287a0ed1af934f6e15feaead2662a7d40c2a86d664736f6c634300080f00336080604052606460005534801561001557600080fd5b506101df806100256000396000f3fe608060405234801561001057600080fd5b50600436106100365760003560e01c80630dbe671f1461003b578063a163a62414610059575b600080fd5b610043610077565b60405161005091906100d3565b60405180910390f35b61006161007d565b60405161006e9190610187565b60405180910390f35b60005481565b60606040518060400160405280600e81526020017f7468697320697320612074657374000000000000000000000000000000000000815250905090565b6000819050919050565b6100cd816100ba565b82525050565b60006020820190506100e860008301846100c4565b92915050565b600081519050919050565b600082825260208201905092915050565b60005b8381101561012857808201518184015260208101905061010d565b83811115610137576000848401525b50505050565b6000601f19601f8301169050919050565b6000610159826100ee565b61016381856100f9565b935061017381856020860161010a565b61017c8161013d565b840191505092915050565b600060208201905081810360008301526101a1818461014e565b90509291505056fea26469706673582212201d5c51775d5b3a065ccf49e7ac8946868dca5870616ec65786badb17652f5e2f64736f6c634300080f0033",
					"opcodes": "PUSH1 0x80 PUSH1 0x40 MSTORE PUSH1 0x40 MLOAD PUSH2 0x10 SWAP1 PUSH2 0x7E JUMP JUMPDEST PUSH1 0x40 MLOAD DUP1 SWAP2 SUB SWAP1 PUSH1 0x0 CREATE DUP1 ISZERO DUP1 ISZERO PUSH2 0x2C JUMPI RETURNDATASIZE PUSH1 0x0 DUP1 RETURNDATACOPY RETURNDATASIZE PUSH1 0x0 REVERT JUMPDEST POP PUSH1 0x0 DUP1 PUSH2 0x100 EXP DUP2 SLOAD DUP2 PUSH20 0xFFFFFFFFFFFFFFFFFFFFFFFFFFFFFFFFFFFFFFFF MUL NOT AND SWAP1 DUP4 PUSH20 0xFFFFFFFFFFFFFFFFFFFFFFFFFFFFFFFFFFFFFFFF AND MUL OR SWAP1 SSTORE POP CALLVALUE DUP1 ISZERO PUSH2 0x78 JUMPI PUSH1 0x0 DUP1 REVERT JUMPDEST POP PUSH2 0x8B JUMP JUMPDEST PUSH2 0x204 DUP1 PUSH2 0x544 DUP4 CODECOPY ADD SWAP1 JUMP JUMPDEST PUSH2 0x4AA DUP1 PUSH2 0x9A PUSH1 0x0 CODECOPY PUSH1 0x0 RETURN INVALID PUSH1 0x80 PUSH1 0x40 MSTORE CALLVALUE DUP1 ISZERO PUSH2 0x10 JUMPI PUSH1 0x0 DUP1 REVERT JUMPDEST POP PUSH1 0x4 CALLDATASIZE LT PUSH2 0x36 JUMPI PUSH1 0x0 CALLDATALOAD PUSH1 0xE0 SHR DUP1 PUSH4 0x20965255 EQ PUSH2 0x3B JUMPI DUP1 PUSH4 0xA8CD0A80 EQ PUSH2 0x59 JUMPI JUMPDEST PUSH1 0x0 DUP1 REVERT JUMPDEST PUSH2 0x43 PUSH2 0x77 JUMP JUMPDEST PUSH1 0x40 MLOAD PUSH2 0x50 SWAP2 SWAP1 PUSH2 0x1C2 JUMP JUMPDEST PUSH1 0x40 MLOAD DUP1 SWAP2 SUB SWAP1 RETURN JUMPDEST PUSH2 0x61 PUSH2 0x10E JUMP JUMPDEST PUSH1 0x40 MLOAD PUSH2 0x6E SWAP2 SWAP1 PUSH2 0x276 JUMP JUMPDEST PUSH1 0x40 MLOAD DUP1 SWAP2 SUB SWAP1 RETURN JUMPDEST PUSH1 0x0 DUP1 PUSH1 0x0 SWAP1 SLOAD SWAP1 PUSH2 0x100 EXP SWAP1 DIV PUSH20 0xFFFFFFFFFFFFFFFFFFFFFFFFFFFFFFFFFFFFFFFF AND PUSH20 0xFFFFFFFFFFFFFFFFFFFFFFFFFFFFFFFFFFFFFFFF AND PUSH4 0xDBE671F PUSH1 0x40 MLOAD DUP2 PUSH4 0xFFFFFFFF AND PUSH1 0xE0 SHL DUP2 MSTORE PUSH1 0x4 ADD PUSH1 0x20 PUSH1 0x40 MLOAD DUP1 DUP4 SUB DUP2 DUP7 GAS STATICCALL ISZERO DUP1 ISZERO PUSH2 0xE5 JUMPI RETURNDATASIZE PUSH1 0x0 DUP1 RETURNDATACOPY RETURNDATASIZE PUSH1 0x0 REVERT JUMPDEST POP POP POP POP PUSH1 0x40 MLOAD RETURNDATASIZE PUSH1 0x1F NOT PUSH1 0x1F DUP3 ADD AND DUP3 ADD DUP1 PUSH1 0x40 MSTORE POP DUP2 ADD SWAP1 PUSH2 0x109 SWAP2 SWAP1 PUSH2 0x2D8 JUMP JUMPDEST SWAP1 POP SWAP1 JUMP JUMPDEST PUSH1 0x60 PUSH1 0x0 DUP1 SLOAD SWAP1 PUSH2 0x100 EXP SWAP1 DIV PUSH20 0xFFFFFFFFFFFFFFFFFFFFFFFFFFFFFFFFFFFFFFFF AND PUSH20 0xFFFFFFFFFFFFFFFFFFFFFFFFFFFFFFFFFFFFFFFF AND PUSH4 0xA163A624 PUSH1 0x40 MLOAD DUP2 PUSH4 0xFFFFFFFF AND PUSH1 0xE0 SHL DUP2 MSTORE PUSH1 0x4 ADD PUSH1 0x0 PUSH1 0x40 MLOAD DUP1 DUP4 SUB DUP2 DUP7 GAS STATICCALL ISZERO DUP1 ISZERO PUSH2 0x17B JUMPI RETURNDATASIZE PUSH1 0x0 DUP1 RETURNDATACOPY RETURNDATASIZE PUSH1 0x0 REVERT JUMPDEST POP POP POP POP PUSH1 0x40 MLOAD RETURNDATASIZE PUSH1 0x0 DUP3 RETURNDATACOPY RETURNDATASIZE PUSH1 0x1F NOT PUSH1 0x1F DUP3 ADD AND DUP3 ADD DUP1 PUSH1 0x40 MSTORE POP DUP2 ADD SWAP1 PUSH2 0x1A4 SWAP2 SWAP1 PUSH2 0x42B JUMP JUMPDEST SWAP1 POP SWAP1 JUMP JUMPDEST PUSH1 0x0 DUP2 SWAP1 POP SWAP2 SWAP1 POP JUMP JUMPDEST PUSH2 0x1BC DUP2 PUSH2 0x1A9 JUMP JUMPDEST DUP3 MSTORE POP POP JUMP JUMPDEST PUSH1 0x0 PUSH1 0x20 DUP3 ADD SWAP1 POP PUSH2 0x1D7 PUSH1 0x0 DUP4 ADD DUP5 PUSH2 0x1B3 JUMP JUMPDEST SWAP3 SWAP2 POP POP JUMP JUMPDEST PUSH1 0x0 DUP2 MLOAD SWAP1 POP SWAP2 SWAP1 POP JUMP JUMPDEST PUSH1 0x0 DUP3 DUP3 MSTORE PUSH1 0x20 DUP3 ADD SWAP1 POP SWAP3 SWAP2 POP POP JUMP JUMPDEST PUSH1 0x0 JUMPDEST DUP4 DUP2 LT ISZERO PUSH2 0x217 JUMPI DUP1 DUP3 ADD MLOAD DUP2 DUP5 ADD MSTORE PUSH1 0x20 DUP2 ADD SWAP1 POP PUSH2 0x1FC JUMP JUMPDEST DUP4 DUP2 GT ISZERO PUSH2 0x226 JUMPI PUSH1 0x0 DUP5 DUP5 ADD MSTORE JUMPDEST POP POP POP POP JUMP JUMPDEST PUSH1 0x0 PUSH1 0x1F NOT PUSH1 0x1F DUP4 ADD AND SWAP1 POP SWAP2 SWAP1 POP JUMP JUMPDEST PUSH1 0x0 PUSH2 0x248 DUP3 PUSH2 0x1DD JUMP JUMPDEST PUSH2 0x252 DUP2 DUP6 PUSH2 0x1E8 JUMP JUMPDEST SWAP4 POP PUSH2 0x262 DUP2 DUP6 PUSH1 0x20 DUP7 ADD PUSH2 0x1F9 JUMP JUMPDEST PUSH2 0x26B DUP2 PUSH2 0x22C JUMP JUMPDEST DUP5 ADD SWAP2 POP POP SWAP3 SWAP2 POP POP JUMP JUMPDEST PUSH1 0x0 PUSH1 0x20 DUP3 ADD SWAP1 POP DUP2 DUP2 SUB PUSH1 0x0 DUP4 ADD MSTORE PUSH2 0x290 DUP2 DUP5 PUSH2 0x23D JUMP JUMPDEST SWAP1 POP SWAP3 SWAP2 POP POP JUMP JUMPDEST PUSH1 0x0 PUSH1 0x40 MLOAD SWAP1 POP SWAP1 JUMP JUMPDEST PUSH1 0x0 DUP1 REVERT JUMPDEST PUSH1 0x0 DUP1 REVERT JUMPDEST PUSH2 0x2B5 DUP2 PUSH2 0x1A9 JUMP JUMPDEST DUP2 EQ PUSH2 0x2C0 JUMPI PUSH1 0x0 DUP1 REVERT JUMPDEST POP JUMP JUMPDEST PUSH1 0x0 DUP2 MLOAD SWAP1 POP PUSH2 0x2D2 DUP2 PUSH2 0x2AC JUMP JUMPDEST SWAP3 SWAP2 POP POP JUMP JUMPDEST PUSH1 0x0 PUSH1 0x20 DUP3 DUP5 SUB SLT ISZERO PUSH2 0x2EE JUMPI PUSH2 0x2ED PUSH2 0x2A2 JUMP JUMPDEST JUMPDEST PUSH1 0x0 PUSH2 0x2FC DUP5 DUP3 DUP6 ADD PUSH2 0x2C3 JUMP JUMPDEST SWAP2 POP POP SWAP3 SWAP2 POP POP JUMP JUMPDEST PUSH1 0x0 DUP1 REVERT JUMPDEST PUSH1 0x0 DUP1 REVERT JUMPDEST PUSH32 0x4E487B7100000000000000000000000000000000000000000000000000000000 PUSH1 0x0 MSTORE PUSH1 0x41 PUSH1 0x4 MSTORE PUSH1 0x24 PUSH1 0x0 REVERT JUMPDEST PUSH2 0x347 DUP3 PUSH2 0x22C JUMP JUMPDEST DUP2 ADD DUP2 DUP2 LT PUSH8 0xFFFFFFFFFFFFFFFF DUP3 GT OR ISZERO PUSH2 0x366 JUMPI PUSH2 0x365 PUSH2 0x30F JUMP JUMPDEST JUMPDEST DUP1 PUSH1 0x40 MSTORE POP POP POP JUMP JUMPDEST PUSH1 0x0 PUSH2 0x379 PUSH2 0x298 JUMP JUMPDEST SWAP1 POP PUSH2 0x385 DUP3 DUP3 PUSH2 0x33E JUMP JUMPDEST SWAP2 SWAP1 POP JUMP JUMPDEST PUSH1 0x0 PUSH8 0xFFFFFFFFFFFFFFFF DUP3 GT ISZERO PUSH2 0x3A5 JUMPI PUSH2 0x3A4 PUSH2 0x30F JUMP JUMPDEST JUMPDEST PUSH2 0x3AE DUP3 PUSH2 0x22C JUMP JUMPDEST SWAP1 POP PUSH1 0x20 DUP2 ADD SWAP1 POP SWAP2 SWAP1 POP JUMP JUMPDEST PUSH1 0x0 PUSH2 0x3CE PUSH2 0x3C9 DUP5 PUSH2 0x38A JUMP JUMPDEST PUSH2 0x36F JUMP JUMPDEST SWAP1 POP DUP3 DUP2 MSTORE PUSH1 0x20 DUP2 ADD DUP5 DUP5 DUP5 ADD GT ISZERO PUSH2 0x3EA JUMPI PUSH2 0x3E9 PUSH2 0x30A JUMP JUMPDEST JUMPDEST PUSH2 0x3F5 DUP5 DUP3 DUP6 PUSH2 0x1F9 JUMP JUMPDEST POP SWAP4 SWAP3 POP POP POP JUMP JUMPDEST PUSH1 0x0 DUP3 PUSH1 0x1F DUP4 ADD SLT PUSH2 0x412 JUMPI PUSH2 0x411 PUSH2 0x305 JUMP JUMPDEST JUMPDEST DUP2 MLOAD PUSH2 0x422 DUP5 DUP3 PUSH1 0x20 DUP7 ADD PUSH2 0x3BB JUMP JUMPDEST SWAP2 POP POP SWAP3 SWAP2 POP POP JUMP JUMPDEST PUSH1 0x0 PUSH1 0x20 DUP3 DUP5 SUB SLT ISZERO PUSH2 0x441 JUMPI PUSH2 0x440 PUSH2 0x2A2 JUMP JUMPDEST JUMPDEST PUSH1 0x0 DUP3 ADD MLOAD PUSH8 0xFFFFFFFFFFFFFFFF DUP2 GT ISZERO PUSH2 0x45F JUMPI PUSH2 0x45E PUSH2 0x2A7 JUMP JUMPDEST JUMPDEST PUSH2 0x46B DUP5 DUP3 DUP6 ADD PUSH2 0x3FD JUMP JUMPDEST SWAP2 POP POP SWAP3 SWAP2 POP POP JUMP INVALID LOG2 PUSH5 0x6970667358 0x22 SLT KECCAK256 0xE0 SWAP6 0x28 MSIZE SSTORE PUSH13 0x933F5A4BECC8287A0ED1AF934F PUSH15 0x15FEAEAD2662A7D40C2A86D664736F PUSH13 0x634300080F0033608060405260 PUSH5 0x6000553480 ISZERO PUSH2 0x15 JUMPI PUSH1 0x0 DUP1 REVERT JUMPDEST POP PUSH2 0x1DF DUP1 PUSH2 0x25 PUSH1 0x0 CODECOPY PUSH1 0x0 RETURN INVALID PUSH1 0x80 PUSH1 0x40 MSTORE CALLVALUE DUP1 ISZERO PUSH2 0x10 JUMPI PUSH1 0x0 DUP1 REVERT JUMPDEST POP PUSH1 0x4 CALLDATASIZE LT PUSH2 0x36 JUMPI PUSH1 0x0 CALLDATALOAD PUSH1 0xE0 SHR DUP1 PUSH4 0xDBE671F EQ PUSH2 0x3B JUMPI DUP1 PUSH4 0xA163A624 EQ PUSH2 0x59 JUMPI JUMPDEST PUSH1 0x0 DUP1 REVERT JUMPDEST PUSH2 0x43 PUSH2 0x77 JUMP JUMPDEST PUSH1 0x40 MLOAD PUSH2 0x50 SWAP2 SWAP1 PUSH2 0xD3 JUMP JUMPDEST PUSH1 0x40 MLOAD DUP1 SWAP2 SUB SWAP1 RETURN JUMPDEST PUSH2 0x61 PUSH2 0x7D JUMP JUMPDEST PUSH1 0x40 MLOAD PUSH2 0x6E SWAP2 SWAP1 PUSH2 0x187 JUMP JUMPDEST PUSH1 0x40 MLOAD DUP1 SWAP2 SUB SWAP1 RETURN JUMPDEST PUSH1 0x0 SLOAD DUP2 JUMP JUMPDEST PUSH1 0x60 PUSH1 0x40 MLOAD DUP1 PUSH1 0x40 ADD PUSH1 0x40 MSTORE DUP1 PUSH1 0xE DUP2 MSTORE PUSH1 0x20 ADD PUSH32 0x7468697320697320612074657374000000000000000000000000000000000000 DUP2 MSTORE POP SWAP1 POP SWAP1 JUMP JUMPDEST PUSH1 0x0 DUP2 SWAP1 POP SWAP2 SWAP1 POP JUMP JUMPDEST PUSH2 0xCD DUP2 PUSH2 0xBA JUMP JUMPDEST DUP3 MSTORE POP POP JUMP JUMPDEST PUSH1 0x0 PUSH1 0x20 DUP3 ADD SWAP1 POP PUSH2 0xE8 PUSH1 0x0 DUP4 ADD DUP5 PUSH2 0xC4 JUMP JUMPDEST SWAP3 SWAP2 POP POP JUMP JUMPDEST PUSH1 0x0 DUP2 MLOAD SWAP1 POP SWAP2 SWAP1 POP JUMP JUMPDEST PUSH1 0x0 DUP3 DUP3 MSTORE PUSH1 0x20 DUP3 ADD SWAP1 POP SWAP3 SWAP2 POP POP JUMP JUMPDEST PUSH1 0x0 JUMPDEST DUP4 DUP2 LT ISZERO PUSH2 0x128 JUMPI DUP1 DUP3 ADD MLOAD DUP2 DUP5 ADD MSTORE PUSH1 0x20 DUP2 ADD SWAP1 POP PUSH2 0x10D JUMP JUMPDEST DUP4 DUP2 GT ISZERO PUSH2 0x137 JUMPI PUSH1 0x0 DUP5 DUP5 ADD MSTORE JUMPDEST POP POP POP POP JUMP JUMPDEST PUSH1 0x0 PUSH1 0x1F NOT PUSH1 0x1F DUP4 ADD AND SWAP1 POP SWAP2 SWAP1 POP JUMP JUMPDEST PUSH1 0x0 PUSH2 0x159 DUP3 PUSH2 0xEE JUMP JUMPDEST PUSH2 0x163 DUP2 DUP6 PUSH2 0xF9 JUMP JUMPDEST SWAP4 POP PUSH2 0x173 DUP2 DUP6 PUSH1 0x20 DUP7 ADD PUSH2 0x10A JUMP JUMPDEST PUSH2 0x17C DUP2 PUSH2 0x13D JUMP JUMPDEST DUP5 ADD SWAP2 POP POP SWAP3 SWAP2 POP POP JUMP JUMPDEST PUSH1 0x0 PUSH1 0x20 DUP3 ADD SWAP1 POP DUP2 DUP2 SUB PUSH1 0x0 DUP4 ADD MSTORE PUSH2 0x1A1 DUP2 DUP5 PUSH2 0x14E JUMP JUMPDEST SWAP1 POP SWAP3 SWAP2 POP POP JUMP INVALID LOG2 PUSH5 0x6970667358 0x22 SLT KECCAK256 SAR 0x5C MLOAD PUSH24 0x5D5B3A065CCF49E7AC8946868DCA5870616EC65786BADB17 PUSH6 0x2F5E2F64736F PUSH13 0x634300080F0033000000000000 "
				},
				"gasEstimates": {
					"creation": {
						"codeDepositCost": "238800",
						"executionCost": "infinite",
						"totalCost": "infinite"
					},
					"external": {
						"getTest()": "infinite",
						"getValue()": "infinite"
					}
				},
				"methodIdentifiers": {
					"getTest()": "a8cd0a80",
					"getValue()": "20965255"
				}
			},
			"storageLayout": {
				"storage": [
					{
						"astId": 23,
						"contract": "chapter02/4testImport.sol:testImport1",
						"label": "fatherimp",
						"offset": 0,
						"slot": "0",
						"type": "t_contract(FatherImp)13"
					}
				],
				"types": {
					"t_contract(FatherImp)13": {
						"encoding": "inplace",
						"label": "contract FatherImp",
						"numberOfBytes": "20"
					}
				}
			},
			"userdoc": {
				"kind": "user",
				"methods": {},
				"version": 1
			}
		}
	}
}