{
	"study/chapter02/dataPosition.sol": {
		"dataPosition": {
			"abi": [
				{
					"inputs": [
						{
							"internalType": "uint256",
							"name": "",
							"type": "uint256"
						}
					],
					"name": "a",
					"outputs": [
						{
							"internalType": "uint256",
							"name": "",
							"type": "uint256"
						}
					],
					"stateMutability": "view",
					"type": "function"
				},
				{
					"inputs": [
						{
							"internalType": "string",
							"name": "",
							"type": "string"
						}
					],
					"name": "example",
					"outputs": [
						{
							"internalType": "string",
							"name": "",
							"type": "string"
						},
						{
							"internalType": "string",
							"name": "",
							"type": "string"
						}
					],
					"stateMutability": "pure",
					"type": "function"
				},
				{
					"inputs": [],
					"name": "pushOne",
					"outputs": [],
					"stateMutability": "nonpayable",
					"type": "function"
				}
			],
			"devdoc": {
				"kind": "dev",
				"methods": {},
				"version": 1
			},
			"evm": {
				"assembly": "    /* \"study/chapter02/dataPosition.sol\":56:582  contract dataPosition{... */\n  mstore(0x40, 0x80)\n  callvalue\n  dup1\n  iszero\n  tag_1\n  jumpi\n  0x00\n  dup1\n  revert\ntag_1:\n  pop\n  dataSize(sub_0)\n  dup1\n  dataOffset(sub_0)\n  0x00\n  codecopy\n  0x00\n  return\nstop\n\nsub_0: assembly {\n        /* \"study/chapter02/dataPosition.sol\":56:582  contract dataPosition{... */\n      mstore(0x40, 0x80)\n      callvalue\n      dup1\n      iszero\n      tag_1\n      jumpi\n      0x00\n      dup1\n      revert\n    tag_1:\n      pop\n      jumpi(tag_2, lt(calldatasize, 0x04))\n      shr(0xe0, calldataload(0x00))\n      dup1\n      0x784fa0bd\n      eq\n      tag_3\n      jumpi\n      dup1\n      0xbd1c9157\n      eq\n      tag_4\n      jumpi\n      dup1\n      0xf0fdf834\n      eq\n      tag_5\n      jumpi\n    tag_2:\n      0x00\n      dup1\n      revert\n        /* \"study/chapter02/dataPosition.sol\":105:433  function pushOne()public {... */\n    tag_3:\n      tag_6\n      tag_7\n      jump\t// in\n    tag_6:\n      stop\n        /* \"study/chapter02/dataPosition.sol\":439:580  function example(string calldata)external pure returns(string memory,string memory){... */\n    tag_4:\n      tag_8\n      0x04\n      dup1\n      calldatasize\n      sub\n      dup2\n      add\n      swap1\n      tag_9\n      swap2\n      swap1\n      tag_10\n      jump\t// in\n    tag_9:\n      tag_11\n      jump\t// in\n    tag_8:\n      mload(0x40)\n      tag_12\n      swap3\n      swap2\n      swap1\n      tag_13\n      jump\t// in\n    tag_12:\n      mload(0x40)\n      dup1\n      swap2\n      sub\n      swap1\n      return\n        /* \"study/chapter02/dataPosition.sol\":83:98  uint[] public a */\n    tag_5:\n      tag_14\n      0x04\n      dup1\n      calldatasize\n      sub\n      dup2\n      add\n      swap1\n      tag_15\n      swap2\n      swap1\n      tag_16\n      jump\t// in\n    tag_15:\n      tag_17\n      jump\t// in\n    tag_14:\n      mload(0x40)\n      tag_18\n      swap2\n      swap1\n      tag_19\n      jump\t// in\n    tag_18:\n      mload(0x40)\n      dup1\n      swap2\n      sub\n      swap1\n      return\n        /* \"study/chapter02/dataPosition.sol\":105:433  function pushOne()public {... */\n    tag_7:\n        /* \"study/chapter02/dataPosition.sol\":140:157  uint[] storage _a */\n      0x00\n        /* \"study/chapter02/dataPosition.sol\":256:258  _a */\n      dup1\n        /* \"study/chapter02/dataPosition.sol\":264:265  1 */\n      0x01\n        /* \"study/chapter02/dataPosition.sol\":256:266  _a.push(1) */\n      swap1\n      dup1\n      0x01\n      dup2\n      sload\n      add\n      dup1\n      dup3\n      sstore\n      dup1\n      swap2\n      pop\n      pop\n      0x01\n      swap1\n      sub\n      swap1\n      0x00\n      mstore\n      keccak256(0x00, 0x20)\n      add\n      0x00\n      swap1\n      swap2\n      swap1\n      swap2\n      swap1\n      swap2\n      pop\n      sstore\n        /* \"study/chapter02/dataPosition.sol\":276:292  uint[] memory _b */\n      0x00\n        /* \"study/chapter02/dataPosition.sol\":306:307  5 */\n      0x05\n        /* \"study/chapter02/dataPosition.sol\":295:308  new uint[](5) */\n      0xffffffffffffffff\n      dup2\n      gt\n      iszero\n      tag_22\n      jumpi\n      tag_23\n      tag_24\n      jump\t// in\n    tag_23:\n    tag_22:\n      mload(0x40)\n      swap1\n      dup1\n      dup3\n      mstore\n      dup1\n      0x20\n      mul\n      0x20\n      add\n      dup3\n      add\n      0x40\n      mstore\n      dup1\n      iszero\n      tag_25\n      jumpi\n      dup2\n      0x20\n      add\n      0x20\n      dup3\n      mul\n      dup1\n      calldatasize\n      dup4\n      calldatacopy\n      dup1\n      dup3\n      add\n      swap2\n      pop\n      pop\n      swap1\n      pop\n    tag_25:\n      pop\n        /* \"study/chapter02/dataPosition.sol\":276:308  uint[] memory _b = new uint[](5) */\n      swap1\n      pop\n        /* \"study/chapter02/dataPosition.sol\":402:404  _a */\n      dup2\n        /* \"study/chapter02/dataPosition.sol\":399:404  _b=_a */\n      dup1\n      sload\n      dup1\n      0x20\n      mul\n      0x20\n      add\n      mload(0x40)\n      swap1\n      dup2\n      add\n      0x40\n      mstore\n      dup1\n      swap3\n      swap2\n      swap1\n      dup2\n      dup2\n      mstore\n      0x20\n      add\n      dup3\n      dup1\n      sload\n      dup1\n      iszero\n      tag_26\n      jumpi\n      0x20\n      mul\n      dup3\n      add\n      swap2\n      swap1\n      0x00\n      mstore\n      keccak256(0x00, 0x20)\n      swap1\n    tag_27:\n      dup2\n      sload\n      dup2\n      mstore\n      0x20\n      add\n      swap1\n      0x01\n      add\n      swap1\n      dup1\n      dup4\n      gt\n      tag_27\n      jumpi\n    tag_26:\n      pop\n      pop\n      pop\n      pop\n      pop\n      swap1\n      pop\n        /* \"study/chapter02/dataPosition.sol\":422:425  100 */\n      0x64\n        /* \"study/chapter02/dataPosition.sol\":414:416  _b */\n      dup2\n        /* \"study/chapter02/dataPosition.sol\":417:418  0 */\n      0x00\n        /* \"study/chapter02/dataPosition.sol\":414:419  _b[0] */\n      dup2\n      mload\n      dup2\n      lt\n      tag_28\n      jumpi\n      tag_29\n      tag_30\n      jump\t// in\n    tag_29:\n    tag_28:\n      0x20\n      mul\n      0x20\n      add\n      add\n        /* \"study/chapter02/dataPosition.sol\":414:425  _b[0] = 100 */\n      dup2\n      dup2\n      mstore\n      pop\n      pop\n        /* \"study/chapter02/dataPosition.sol\":130:433  {... */\n      pop\n      pop\n        /* \"study/chapter02/dataPosition.sol\":105:433  function pushOne()public {... */\n      jump\t// out\n        /* \"study/chapter02/dataPosition.sol\":439:580  function example(string calldata)external pure returns(string memory,string memory){... */\n    tag_11:\n        /* \"study/chapter02/dataPosition.sol\":494:507  string memory */\n      0x60\n        /* \"study/chapter02/dataPosition.sol\":508:521  string memory */\n      dup1\n        /* \"study/chapter02/dataPosition.sol\":532:573  return(\"i am example\",\"i am example too\") */\n      mload(0x40)\n      dup1\n      0x40\n      add\n      0x40\n      mstore\n      dup1\n      0x0c\n      dup2\n      mstore\n      0x20\n      add\n      0x6920616d206578616d706c650000000000000000000000000000000000000000\n      dup2\n      mstore\n      pop\n      mload(0x40)\n      dup1\n      0x40\n      add\n      0x40\n      mstore\n      dup1\n      0x10\n      dup2\n      mstore\n      0x20\n      add\n      0x6920616d206578616d706c6520746f6f00000000000000000000000000000000\n      dup2\n      mstore\n      pop\n      swap2\n      pop\n      swap2\n      pop\n        /* \"study/chapter02/dataPosition.sol\":439:580  function example(string calldata)external pure returns(string memory,string memory){... */\n      swap3\n      pop\n      swap3\n      swap1\n      pop\n      jump\t// out\n        /* \"study/chapter02/dataPosition.sol\":83:98  uint[] public a */\n    tag_17:\n      0x00\n      dup2\n      dup2\n      sload\n      dup2\n      lt\n      tag_32\n      jumpi\n      0x00\n      dup1\n      revert\n    tag_32:\n      swap1\n      0x00\n      mstore\n      keccak256(0x00, 0x20)\n      add\n      0x00\n      swap2\n      pop\n      swap1\n      pop\n      sload\n      dup2\n      jump\t// out\n        /* \"#utility.yul\":21:574   */\n    tag_35:\n        /* \"#utility.yul\":79:87   */\n      0x00\n        /* \"#utility.yul\":89:95   */\n      dup1\n        /* \"#utility.yul\":139:142   */\n      dup4\n        /* \"#utility.yul\":132:136   */\n      0x1f\n        /* \"#utility.yul\":124:130   */\n      dup5\n        /* \"#utility.yul\":120:137   */\n      add\n        /* \"#utility.yul\":116:143   */\n      slt\n        /* \"#utility.yul\":106:228   */\n      tag_37\n      jumpi\n        /* \"#utility.yul\":147:226   */\n      tag_38\n      tag_39\n      jump\t// in\n    tag_38:\n        /* \"#utility.yul\":106:228   */\n    tag_37:\n        /* \"#utility.yul\":260:266   */\n      dup3\n        /* \"#utility.yul\":247:267   */\n      calldataload\n        /* \"#utility.yul\":237:267   */\n      swap1\n      pop\n        /* \"#utility.yul\":290:308   */\n      0xffffffffffffffff\n        /* \"#utility.yul\":282:288   */\n      dup2\n        /* \"#utility.yul\":279:309   */\n      gt\n        /* \"#utility.yul\":276:393   */\n      iszero\n      tag_40\n      jumpi\n        /* \"#utility.yul\":312:391   */\n      tag_41\n      tag_42\n      jump\t// in\n    tag_41:\n        /* \"#utility.yul\":276:393   */\n    tag_40:\n        /* \"#utility.yul\":426:430   */\n      0x20\n        /* \"#utility.yul\":418:424   */\n      dup4\n        /* \"#utility.yul\":414:431   */\n      add\n        /* \"#utility.yul\":402:431   */\n      swap2\n      pop\n        /* \"#utility.yul\":480:483   */\n      dup4\n        /* \"#utility.yul\":472:476   */\n      0x01\n        /* \"#utility.yul\":464:470   */\n      dup3\n        /* \"#utility.yul\":460:477   */\n      mul\n        /* \"#utility.yul\":450:458   */\n      dup4\n        /* \"#utility.yul\":446:478   */\n      add\n        /* \"#utility.yul\":443:484   */\n      gt\n        /* \"#utility.yul\":440:568   */\n      iszero\n      tag_43\n      jumpi\n        /* \"#utility.yul\":487:566   */\n      tag_44\n      tag_45\n      jump\t// in\n    tag_44:\n        /* \"#utility.yul\":440:568   */\n    tag_43:\n        /* \"#utility.yul\":21:574   */\n      swap3\n      pop\n      swap3\n      swap1\n      pop\n      jump\t// out\n        /* \"#utility.yul\":580:719   */\n    tag_46:\n        /* \"#utility.yul\":626:631   */\n      0x00\n        /* \"#utility.yul\":664:670   */\n      dup2\n        /* \"#utility.yul\":651:671   */\n      calldataload\n        /* \"#utility.yul\":642:671   */\n      swap1\n      pop\n        /* \"#utility.yul\":680:713   */\n      tag_48\n        /* \"#utility.yul\":707:712   */\n      dup2\n        /* \"#utility.yul\":680:713   */\n      tag_49\n      jump\t// in\n    tag_48:\n        /* \"#utility.yul\":580:719   */\n      swap3\n      swap2\n      pop\n      pop\n      jump\t// out\n        /* \"#utility.yul\":725:1254   */\n    tag_10:\n        /* \"#utility.yul\":796:802   */\n      0x00\n        /* \"#utility.yul\":804:810   */\n      dup1\n        /* \"#utility.yul\":853:855   */\n      0x20\n        /* \"#utility.yul\":841:850   */\n      dup4\n        /* \"#utility.yul\":832:839   */\n      dup6\n        /* \"#utility.yul\":828:851   */\n      sub\n        /* \"#utility.yul\":824:856   */\n      slt\n        /* \"#utility.yul\":821:940   */\n      iszero\n      tag_51\n      jumpi\n        /* \"#utility.yul\":859:938   */\n      tag_52\n      tag_53\n      jump\t// in\n    tag_52:\n        /* \"#utility.yul\":821:940   */\n    tag_51:\n        /* \"#utility.yul\":1007:1008   */\n      0x00\n        /* \"#utility.yul\":996:1005   */\n      dup4\n        /* \"#utility.yul\":992:1009   */\n      add\n        /* \"#utility.yul\":979:1010   */\n      calldataload\n        /* \"#utility.yul\":1037:1055   */\n      0xffffffffffffffff\n        /* \"#utility.yul\":1029:1035   */\n      dup2\n        /* \"#utility.yul\":1026:1056   */\n      gt\n        /* \"#utility.yul\":1023:1140   */\n      iszero\n      tag_54\n      jumpi\n        /* \"#utility.yul\":1059:1138   */\n      tag_55\n      tag_56\n      jump\t// in\n    tag_55:\n        /* \"#utility.yul\":1023:1140   */\n    tag_54:\n        /* \"#utility.yul\":1172:1237   */\n      tag_57\n        /* \"#utility.yul\":1229:1236   */\n      dup6\n        /* \"#utility.yul\":1220:1226   */\n      dup3\n        /* \"#utility.yul\":1209:1218   */\n      dup7\n        /* \"#utility.yul\":1205:1227   */\n      add\n        /* \"#utility.yul\":1172:1237   */\n      tag_35\n      jump\t// in\n    tag_57:\n        /* \"#utility.yul\":1154:1237   */\n      swap3\n      pop\n      swap3\n      pop\n        /* \"#utility.yul\":950:1247   */\n      pop\n        /* \"#utility.yul\":725:1254   */\n      swap3\n      pop\n      swap3\n      swap1\n      pop\n      jump\t// out\n        /* \"#utility.yul\":1260:1589   */\n    tag_16:\n        /* \"#utility.yul\":1319:1325   */\n      0x00\n        /* \"#utility.yul\":1368:1370   */\n      0x20\n        /* \"#utility.yul\":1356:1365   */\n      dup3\n        /* \"#utility.yul\":1347:1354   */\n      dup5\n        /* \"#utility.yul\":1343:1366   */\n      sub\n        /* \"#utility.yul\":1339:1371   */\n      slt\n        /* \"#utility.yul\":1336:1455   */\n      iszero\n      tag_59\n      jumpi\n        /* \"#utility.yul\":1374:1453   */\n      tag_60\n      tag_53\n      jump\t// in\n    tag_60:\n        /* \"#utility.yul\":1336:1455   */\n    tag_59:\n        /* \"#utility.yul\":1494:1495   */\n      0x00\n        /* \"#utility.yul\":1519:1572   */\n      tag_61\n        /* \"#utility.yul\":1564:1571   */\n      dup5\n        /* \"#utility.yul\":1555:1561   */\n      dup3\n        /* \"#utility.yul\":1544:1553   */\n      dup6\n        /* \"#utility.yul\":1540:1562   */\n      add\n        /* \"#utility.yul\":1519:1572   */\n      tag_46\n      jump\t// in\n    tag_61:\n        /* \"#utility.yul\":1509:1572   */\n      swap2\n      pop\n        /* \"#utility.yul\":1465:1582   */\n      pop\n        /* \"#utility.yul\":1260:1589   */\n      swap3\n      swap2\n      pop\n      pop\n      jump\t// out\n        /* \"#utility.yul\":1595:1959   */\n    tag_62:\n        /* \"#utility.yul\":1683:1686   */\n      0x00\n        /* \"#utility.yul\":1711:1750   */\n      tag_64\n        /* \"#utility.yul\":1744:1749   */\n      dup3\n        /* \"#utility.yul\":1711:1750   */\n      tag_65\n      jump\t// in\n    tag_64:\n        /* \"#utility.yul\":1766:1837   */\n      tag_66\n        /* \"#utility.yul\":1830:1836   */\n      dup2\n        /* \"#utility.yul\":1825:1828   */\n      dup6\n        /* \"#utility.yul\":1766:1837   */\n      tag_67\n      jump\t// in\n    tag_66:\n        /* \"#utility.yul\":1759:1837   */\n      swap4\n      pop\n        /* \"#utility.yul\":1846:1898   */\n      tag_68\n        /* \"#utility.yul\":1891:1897   */\n      dup2\n        /* \"#utility.yul\":1886:1889   */\n      dup6\n        /* \"#utility.yul\":1879:1883   */\n      0x20\n        /* \"#utility.yul\":1872:1877   */\n      dup7\n        /* \"#utility.yul\":1868:1884   */\n      add\n        /* \"#utility.yul\":1846:1898   */\n      tag_69\n      jump\t// in\n    tag_68:\n        /* \"#utility.yul\":1923:1952   */\n      tag_70\n        /* \"#utility.yul\":1945:1951   */\n      dup2\n        /* \"#utility.yul\":1923:1952   */\n      tag_71\n      jump\t// in\n    tag_70:\n        /* \"#utility.yul\":1918:1921   */\n      dup5\n        /* \"#utility.yul\":1914:1953   */\n      add\n        /* \"#utility.yul\":1907:1953   */\n      swap2\n      pop\n        /* \"#utility.yul\":1687:1959   */\n      pop\n        /* \"#utility.yul\":1595:1959   */\n      swap3\n      swap2\n      pop\n      pop\n      jump\t// out\n        /* \"#utility.yul\":1965:2083   */\n    tag_72:\n        /* \"#utility.yul\":2052:2076   */\n      tag_74\n        /* \"#utility.yul\":2070:2075   */\n      dup2\n        /* \"#utility.yul\":2052:2076   */\n      tag_75\n      jump\t// in\n    tag_74:\n        /* \"#utility.yul\":2047:2050   */\n      dup3\n        /* \"#utility.yul\":2040:2077   */\n      mstore\n        /* \"#utility.yul\":1965:2083   */\n      pop\n      pop\n      jump\t// out\n        /* \"#utility.yul\":2089:2603   */\n    tag_13:\n        /* \"#utility.yul\":2250:2254   */\n      0x00\n        /* \"#utility.yul\":2288:2290   */\n      0x40\n        /* \"#utility.yul\":2277:2286   */\n      dup3\n        /* \"#utility.yul\":2273:2291   */\n      add\n        /* \"#utility.yul\":2265:2291   */\n      swap1\n      pop\n        /* \"#utility.yul\":2337:2346   */\n      dup2\n        /* \"#utility.yul\":2331:2335   */\n      dup2\n        /* \"#utility.yul\":2327:2347   */\n      sub\n        /* \"#utility.yul\":2323:2324   */\n      0x00\n        /* \"#utility.yul\":2312:2321   */\n      dup4\n        /* \"#utility.yul\":2308:2325   */\n      add\n        /* \"#utility.yul\":2301:2348   */\n      mstore\n        /* \"#utility.yul\":2365:2443   */\n      tag_77\n        /* \"#utility.yul\":2438:2442   */\n      dup2\n        /* \"#utility.yul\":2429:2435   */\n      dup6\n        /* \"#utility.yul\":2365:2443   */\n      tag_62\n      jump\t// in\n    tag_77:\n        /* \"#utility.yul\":2357:2443   */\n      swap1\n      pop\n        /* \"#utility.yul\":2490:2499   */\n      dup2\n        /* \"#utility.yul\":2484:2488   */\n      dup2\n        /* \"#utility.yul\":2480:2500   */\n      sub\n        /* \"#utility.yul\":2475:2477   */\n      0x20\n        /* \"#utility.yul\":2464:2473   */\n      dup4\n        /* \"#utility.yul\":2460:2478   */\n      add\n        /* \"#utility.yul\":2453:2501   */\n      mstore\n        /* \"#utility.yul\":2518:2596   */\n      tag_78\n        /* \"#utility.yul\":2591:2595   */\n      dup2\n        /* \"#utility.yul\":2582:2588   */\n      dup5\n        /* \"#utility.yul\":2518:2596   */\n      tag_62\n      jump\t// in\n    tag_78:\n        /* \"#utility.yul\":2510:2596   */\n      swap1\n      pop\n        /* \"#utility.yul\":2089:2603   */\n      swap4\n      swap3\n      pop\n      pop\n      pop\n      jump\t// out\n        /* \"#utility.yul\":2609:2831   */\n    tag_19:\n        /* \"#utility.yul\":2702:2706   */\n      0x00\n        /* \"#utility.yul\":2740:2742   */\n      0x20\n        /* \"#utility.yul\":2729:2738   */\n      dup3\n        /* \"#utility.yul\":2725:2743   */\n      add\n        /* \"#utility.yul\":2717:2743   */\n      swap1\n      pop\n        /* \"#utility.yul\":2753:2824   */\n      tag_80\n        /* \"#utility.yul\":2821:2822   */\n      0x00\n        /* \"#utility.yul\":2810:2819   */\n      dup4\n        /* \"#utility.yul\":2806:2823   */\n      add\n        /* \"#utility.yul\":2797:2803   */\n      dup5\n        /* \"#utility.yul\":2753:2824   */\n      tag_72\n      jump\t// in\n    tag_80:\n        /* \"#utility.yul\":2609:2831   */\n      swap3\n      swap2\n      pop\n      pop\n      jump\t// out\n        /* \"#utility.yul\":2918:3017   */\n    tag_65:\n        /* \"#utility.yul\":2970:2976   */\n      0x00\n        /* \"#utility.yul\":3004:3009   */\n      dup2\n        /* \"#utility.yul\":2998:3010   */\n      mload\n        /* \"#utility.yul\":2988:3010   */\n      swap1\n      pop\n        /* \"#utility.yul\":2918:3017   */\n      swap2\n      swap1\n      pop\n      jump\t// out\n        /* \"#utility.yul\":3023:3192   */\n    tag_67:\n        /* \"#utility.yul\":3107:3118   */\n      0x00\n        /* \"#utility.yul\":3141:3147   */\n      dup3\n        /* \"#utility.yul\":3136:3139   */\n      dup3\n        /* \"#utility.yul\":3129:3148   */\n      mstore\n        /* \"#utility.yul\":3181:3185   */\n      0x20\n        /* \"#utility.yul\":3176:3179   */\n      dup3\n        /* \"#utility.yul\":3172:3186   */\n      add\n        /* \"#utility.yul\":3157:3186   */\n      swap1\n      pop\n        /* \"#utility.yul\":3023:3192   */\n      swap3\n      swap2\n      pop\n      pop\n      jump\t// out\n        /* \"#utility.yul\":3198:3275   */\n    tag_75:\n        /* \"#utility.yul\":3235:3242   */\n      0x00\n        /* \"#utility.yul\":3264:3269   */\n      dup2\n        /* \"#utility.yul\":3253:3269   */\n      swap1\n      pop\n        /* \"#utility.yul\":3198:3275   */\n      swap2\n      swap1\n      pop\n      jump\t// out\n        /* \"#utility.yul\":3281:3588   */\n    tag_69:\n        /* \"#utility.yul\":3349:3350   */\n      0x00\n        /* \"#utility.yul\":3359:3472   */\n    tag_87:\n        /* \"#utility.yul\":3373:3379   */\n      dup4\n        /* \"#utility.yul\":3370:3371   */\n      dup2\n        /* \"#utility.yul\":3367:3380   */\n      lt\n        /* \"#utility.yul\":3359:3472   */\n      iszero\n      tag_89\n      jumpi\n        /* \"#utility.yul\":3458:3459   */\n      dup1\n        /* \"#utility.yul\":3453:3456   */\n      dup3\n        /* \"#utility.yul\":3449:3460   */\n      add\n        /* \"#utility.yul\":3443:3461   */\n      mload\n        /* \"#utility.yul\":3439:3440   */\n      dup2\n        /* \"#utility.yul\":3434:3437   */\n      dup5\n        /* \"#utility.yul\":3430:3441   */\n      add\n        /* \"#utility.yul\":3423:3462   */\n      mstore\n        /* \"#utility.yul\":3395:3397   */\n      0x20\n        /* \"#utility.yul\":3392:3393   */\n      dup2\n        /* \"#utility.yul\":3388:3398   */\n      add\n        /* \"#utility.yul\":3383:3398   */\n      swap1\n      pop\n        /* \"#utility.yul\":3359:3472   */\n      jump(tag_87)\n    tag_89:\n        /* \"#utility.yul\":3490:3496   */\n      dup4\n        /* \"#utility.yul\":3487:3488   */\n      dup2\n        /* \"#utility.yul\":3484:3497   */\n      gt\n        /* \"#utility.yul\":3481:3582   */\n      iszero\n      tag_90\n      jumpi\n        /* \"#utility.yul\":3570:3571   */\n      0x00\n        /* \"#utility.yul\":3561:3567   */\n      dup5\n        /* \"#utility.yul\":3556:3559   */\n      dup5\n        /* \"#utility.yul\":3552:3568   */\n      add\n        /* \"#utility.yul\":3545:3572   */\n      mstore\n        /* \"#utility.yul\":3481:3582   */\n    tag_90:\n        /* \"#utility.yul\":3330:3588   */\n      pop\n        /* \"#utility.yul\":3281:3588   */\n      pop\n      pop\n      pop\n      jump\t// out\n        /* \"#utility.yul\":3594:3774   */\n    tag_30:\n        /* \"#utility.yul\":3642:3719   */\n      0x4e487b7100000000000000000000000000000000000000000000000000000000\n        /* \"#utility.yul\":3639:3640   */\n      0x00\n        /* \"#utility.yul\":3632:3720   */\n      mstore\n        /* \"#utility.yul\":3739:3743   */\n      0x32\n        /* \"#utility.yul\":3736:3737   */\n      0x04\n        /* \"#utility.yul\":3729:3744   */\n      mstore\n        /* \"#utility.yul\":3763:3767   */\n      0x24\n        /* \"#utility.yul\":3760:3761   */\n      0x00\n        /* \"#utility.yul\":3753:3768   */\n      revert\n        /* \"#utility.yul\":3780:3960   */\n    tag_24:\n        /* \"#utility.yul\":3828:3905   */\n      0x4e487b7100000000000000000000000000000000000000000000000000000000\n        /* \"#utility.yul\":3825:3826   */\n      0x00\n        /* \"#utility.yul\":3818:3906   */\n      mstore\n        /* \"#utility.yul\":3925:3929   */\n      0x41\n        /* \"#utility.yul\":3922:3923   */\n      0x04\n        /* \"#utility.yul\":3915:3930   */\n      mstore\n        /* \"#utility.yul\":3949:3953   */\n      0x24\n        /* \"#utility.yul\":3946:3947   */\n      0x00\n        /* \"#utility.yul\":3939:3954   */\n      revert\n        /* \"#utility.yul\":3966:4083   */\n    tag_42:\n        /* \"#utility.yul\":4075:4076   */\n      0x00\n        /* \"#utility.yul\":4072:4073   */\n      dup1\n        /* \"#utility.yul\":4065:4077   */\n      revert\n        /* \"#utility.yul\":4089:4206   */\n    tag_39:\n        /* \"#utility.yul\":4198:4199   */\n      0x00\n        /* \"#utility.yul\":4195:4196   */\n      dup1\n        /* \"#utility.yul\":4188:4200   */\n      revert\n        /* \"#utility.yul\":4212:4329   */\n    tag_45:\n        /* \"#utility.yul\":4321:4322   */\n      0x00\n        /* \"#utility.yul\":4318:4319   */\n      dup1\n        /* \"#utility.yul\":4311:4323   */\n      revert\n        /* \"#utility.yul\":4335:4452   */\n    tag_56:\n        /* \"#utility.yul\":4444:4445   */\n      0x00\n        /* \"#utility.yul\":4441:4442   */\n      dup1\n        /* \"#utility.yul\":4434:4446   */\n      revert\n        /* \"#utility.yul\":4458:4575   */\n    tag_53:\n        /* \"#utility.yul\":4567:4568   */\n      0x00\n        /* \"#utility.yul\":4564:4565   */\n      dup1\n        /* \"#utility.yul\":4557:4569   */\n      revert\n        /* \"#utility.yul\":4581:4683   */\n    tag_71:\n        /* \"#utility.yul\":4622:4628   */\n      0x00\n        /* \"#utility.yul\":4673:4675   */\n      0x1f\n        /* \"#utility.yul\":4669:4676   */\n      not\n        /* \"#utility.yul\":4664:4666   */\n      0x1f\n        /* \"#utility.yul\":4657:4662   */\n      dup4\n        /* \"#utility.yul\":4653:4667   */\n      add\n        /* \"#utility.yul\":4649:4677   */\n      and\n        /* \"#utility.yul\":4639:4677   */\n      swap1\n      pop\n        /* \"#utility.yul\":4581:4683   */\n      swap2\n      swap1\n      pop\n      jump\t// out\n        /* \"#utility.yul\":4689:4811   */\n    tag_49:\n        /* \"#utility.yul\":4762:4786   */\n      tag_100\n        /* \"#utility.yul\":4780:4785   */\n      dup2\n        /* \"#utility.yul\":4762:4786   */\n      tag_75\n      jump\t// in\n    tag_100:\n        /* \"#utility.yul\":4755:4760   */\n      dup2\n        /* \"#utility.yul\":4752:4787   */\n      eq\n        /* \"#utility.yul\":4742:4805   */\n      tag_101\n      jumpi\n        /* \"#utility.yul\":4801:4802   */\n      0x00\n        /* \"#utility.yul\":4798:4799   */\n      dup1\n        /* \"#utility.yul\":4791:4803   */\n      revert\n        /* \"#utility.yul\":4742:4805   */\n    tag_101:\n        /* \"#utility.yul\":4689:4811   */\n      pop\n      jump\t// out\n\n    auxdata: 0xa26469706673582212204bc8a819ded8de67feb32e8f60da9c723ef83ed9e26b365e3867966196e69b1764736f6c63430008070033\n}\n",
				"bytecode": {
					"linkReferences": {},
					"object": "608060405234801561001057600080fd5b506104ed806100206000396000f3fe608060405234801561001057600080fd5b50600436106100415760003560e01c8063784fa0bd14610046578063bd1c915714610050578063f0fdf83414610081575b600080fd5b61004e6100b1565b005b61006a600480360381019061006591906102ab565b6101a2565b60405161007892919061036d565b60405180910390f35b61009b600480360381019061009691906102f8565b61021c565b6040516100a891906103a4565b60405180910390f35b600080600190806001815401808255809150506001900390600052602060002001600090919091909150556000600567ffffffffffffffff8111156100f9576100f8610447565b5b6040519080825280602002602001820160405280156101275781602001602082028036833780820191505090505b5090508180548060200260200160405190810160405280929190818152602001828054801561017557602002820191906000526020600020905b815481526020019060010190808311610161575b5050505050905060648160008151811061019257610191610418565b5b6020026020010181815250505050565b6060806040518060400160405280600c81526020017f6920616d206578616d706c6500000000000000000000000000000000000000008152506040518060400160405280601081526020017f6920616d206578616d706c6520746f6f00000000000000000000000000000000815250915091509250929050565b6000818154811061022c57600080fd5b906000526020600020016000915090505481565b60008083601f8401126102565761025561047b565b5b8235905067ffffffffffffffff81111561027357610272610476565b5b60208301915083600182028301111561028f5761028e610480565b5b9250929050565b6000813590506102a5816104a0565b92915050565b600080602083850312156102c2576102c161048a565b5b600083013567ffffffffffffffff8111156102e0576102df610485565b5b6102ec85828601610240565b92509250509250929050565b60006020828403121561030e5761030d61048a565b5b600061031c84828501610296565b91505092915050565b6000610330826103bf565b61033a81856103ca565b935061034a8185602086016103e5565b6103538161048f565b840191505092915050565b610367816103db565b82525050565b600060408201905081810360008301526103878185610325565b9050818103602083015261039b8184610325565b90509392505050565b60006020820190506103b9600083018461035e565b92915050565b600081519050919050565b600082825260208201905092915050565b6000819050919050565b60005b838110156104035780820151818401526020810190506103e8565b83811115610412576000848401525b50505050565b7f4e487b7100000000000000000000000000000000000000000000000000000000600052603260045260246000fd5b7f4e487b7100000000000000000000000000000000000000000000000000000000600052604160045260246000fd5b600080fd5b600080fd5b600080fd5b600080fd5b600080fd5b6000601f19601f8301169050919050565b6104a9816103db565b81146104b457600080fd5b5056fea26469706673582212204bc8a819ded8de67feb32e8f60da9c723ef83ed9e26b365e3867966196e69b1764736f6c63430008070033",
					"opcodes": "PUSH1 0x80 PUSH1 0x40 MSTORE CALLVALUE DUP1 ISZERO PUSH2 0x10 JUMPI PUSH1 0x0 DUP1 REVERT JUMPDEST POP PUSH2 0x4ED DUP1 PUSH2 0x20 PUSH1 0x0 CODECOPY PUSH1 0x0 RETURN INVALID PUSH1 0x80 PUSH1 0x40 MSTORE CALLVALUE DUP1 ISZERO PUSH2 0x10 JUMPI PUSH1 0x0 DUP1 REVERT JUMPDEST POP PUSH1 0x4 CALLDATASIZE LT PUSH2 0x41 JUMPI PUSH1 0x0 CALLDATALOAD PUSH1 0xE0 SHR DUP1 PUSH4 0x784FA0BD EQ PUSH2 0x46 JUMPI DUP1 PUSH4 0xBD1C9157 EQ PUSH2 0x50 JUMPI DUP1 PUSH4 0xF0FDF834 EQ PUSH2 0x81 JUMPI JUMPDEST PUSH1 0x0 DUP1 REVERT JUMPDEST PUSH2 0x4E PUSH2 0xB1 JUMP JUMPDEST STOP JUMPDEST PUSH2 0x6A PUSH1 0x4 DUP1 CALLDATASIZE SUB DUP2 ADD SWAP1 PUSH2 0x65 SWAP2 SWAP1 PUSH2 0x2AB JUMP JUMPDEST PUSH2 0x1A2 JUMP JUMPDEST PUSH1 0x40 MLOAD PUSH2 0x78 SWAP3 SWAP2 SWAP1 PUSH2 0x36D JUMP JUMPDEST PUSH1 0x40 MLOAD DUP1 SWAP2 SUB SWAP1 RETURN JUMPDEST PUSH2 0x9B PUSH1 0x4 DUP1 CALLDATASIZE SUB DUP2 ADD SWAP1 PUSH2 0x96 SWAP2 SWAP1 PUSH2 0x2F8 JUMP JUMPDEST PUSH2 0x21C JUMP JUMPDEST PUSH1 0x40 MLOAD PUSH2 0xA8 SWAP2 SWAP1 PUSH2 0x3A4 JUMP JUMPDEST PUSH1 0x40 MLOAD DUP1 SWAP2 SUB SWAP1 RETURN JUMPDEST PUSH1 0x0 DUP1 PUSH1 0x1 SWAP1 DUP1 PUSH1 0x1 DUP2 SLOAD ADD DUP1 DUP3 SSTORE DUP1 SWAP2 POP POP PUSH1 0x1 SWAP1 SUB SWAP1 PUSH1 0x0 MSTORE PUSH1 0x20 PUSH1 0x0 KECCAK256 ADD PUSH1 0x0 SWAP1 SWAP2 SWAP1 SWAP2 SWAP1 SWAP2 POP SSTORE PUSH1 0x0 PUSH1 0x5 PUSH8 0xFFFFFFFFFFFFFFFF DUP2 GT ISZERO PUSH2 0xF9 JUMPI PUSH2 0xF8 PUSH2 0x447 JUMP JUMPDEST JUMPDEST PUSH1 0x40 MLOAD SWAP1 DUP1 DUP3 MSTORE DUP1 PUSH1 0x20 MUL PUSH1 0x20 ADD DUP3 ADD PUSH1 0x40 MSTORE DUP1 ISZERO PUSH2 0x127 JUMPI DUP2 PUSH1 0x20 ADD PUSH1 0x20 DUP3 MUL DUP1 CALLDATASIZE DUP4 CALLDATACOPY DUP1 DUP3 ADD SWAP2 POP POP SWAP1 POP JUMPDEST POP SWAP1 POP DUP2 DUP1 SLOAD DUP1 PUSH1 0x20 MUL PUSH1 0x20 ADD PUSH1 0x40 MLOAD SWAP1 DUP2 ADD PUSH1 0x40 MSTORE DUP1 SWAP3 SWAP2 SWAP1 DUP2 DUP2 MSTORE PUSH1 0x20 ADD DUP3 DUP1 SLOAD DUP1 ISZERO PUSH2 0x175 JUMPI PUSH1 0x20 MUL DUP3 ADD SWAP2 SWAP1 PUSH1 0x0 MSTORE PUSH1 0x20 PUSH1 0x0 KECCAK256 SWAP1 JUMPDEST DUP2 SLOAD DUP2 MSTORE PUSH1 0x20 ADD SWAP1 PUSH1 0x1 ADD SWAP1 DUP1 DUP4 GT PUSH2 0x161 JUMPI JUMPDEST POP POP POP POP POP SWAP1 POP PUSH1 0x64 DUP2 PUSH1 0x0 DUP2 MLOAD DUP2 LT PUSH2 0x192 JUMPI PUSH2 0x191 PUSH2 0x418 JUMP JUMPDEST JUMPDEST PUSH1 0x20 MUL PUSH1 0x20 ADD ADD DUP2 DUP2 MSTORE POP POP POP POP JUMP JUMPDEST PUSH1 0x60 DUP1 PUSH1 0x40 MLOAD DUP1 PUSH1 0x40 ADD PUSH1 0x40 MSTORE DUP1 PUSH1 0xC DUP2 MSTORE PUSH1 0x20 ADD PUSH32 0x6920616D206578616D706C650000000000000000000000000000000000000000 DUP2 MSTORE POP PUSH1 0x40 MLOAD DUP1 PUSH1 0x40 ADD PUSH1 0x40 MSTORE DUP1 PUSH1 0x10 DUP2 MSTORE PUSH1 0x20 ADD PUSH32 0x6920616D206578616D706C6520746F6F00000000000000000000000000000000 DUP2 MSTORE POP SWAP2 POP SWAP2 POP SWAP3 POP SWAP3 SWAP1 POP JUMP JUMPDEST PUSH1 0x0 DUP2 DUP2 SLOAD DUP2 LT PUSH2 0x22C JUMPI PUSH1 0x0 DUP1 REVERT JUMPDEST SWAP1 PUSH1 0x0 MSTORE PUSH1 0x20 PUSH1 0x0 KECCAK256 ADD PUSH1 0x0 SWAP2 POP SWAP1 POP SLOAD DUP2 JUMP JUMPDEST PUSH1 0x0 DUP1 DUP4 PUSH1 0x1F DUP5 ADD SLT PUSH2 0x256 JUMPI PUSH2 0x255 PUSH2 0x47B JUMP JUMPDEST JUMPDEST DUP3 CALLDATALOAD SWAP1 POP PUSH8 0xFFFFFFFFFFFFFFFF DUP2 GT ISZERO PUSH2 0x273 JUMPI PUSH2 0x272 PUSH2 0x476 JUMP JUMPDEST JUMPDEST PUSH1 0x20 DUP4 ADD SWAP2 POP DUP4 PUSH1 0x1 DUP3 MUL DUP4 ADD GT ISZERO PUSH2 0x28F JUMPI PUSH2 0x28E PUSH2 0x480 JUMP JUMPDEST JUMPDEST SWAP3 POP SWAP3 SWAP1 POP JUMP JUMPDEST PUSH1 0x0 DUP2 CALLDATALOAD SWAP1 POP PUSH2 0x2A5 DUP2 PUSH2 0x4A0 JUMP JUMPDEST SWAP3 SWAP2 POP POP JUMP JUMPDEST PUSH1 0x0 DUP1 PUSH1 0x20 DUP4 DUP6 SUB SLT ISZERO PUSH2 0x2C2 JUMPI PUSH2 0x2C1 PUSH2 0x48A JUMP JUMPDEST JUMPDEST PUSH1 0x0 DUP4 ADD CALLDATALOAD PUSH8 0xFFFFFFFFFFFFFFFF DUP2 GT ISZERO PUSH2 0x2E0 JUMPI PUSH2 0x2DF PUSH2 0x485 JUMP JUMPDEST JUMPDEST PUSH2 0x2EC DUP6 DUP3 DUP7 ADD PUSH2 0x240 JUMP JUMPDEST SWAP3 POP SWAP3 POP POP SWAP3 POP SWAP3 SWAP1 POP JUMP JUMPDEST PUSH1 0x0 PUSH1 0x20 DUP3 DUP5 SUB SLT ISZERO PUSH2 0x30E JUMPI PUSH2 0x30D PUSH2 0x48A JUMP JUMPDEST JUMPDEST PUSH1 0x0 PUSH2 0x31C DUP5 DUP3 DUP6 ADD PUSH2 0x296 JUMP JUMPDEST SWAP2 POP POP SWAP3 SWAP2 POP POP JUMP JUMPDEST PUSH1 0x0 PUSH2 0x330 DUP3 PUSH2 0x3BF JUMP JUMPDEST PUSH2 0x33A DUP2 DUP6 PUSH2 0x3CA JUMP JUMPDEST SWAP4 POP PUSH2 0x34A DUP2 DUP6 PUSH1 0x20 DUP7 ADD PUSH2 0x3E5 JUMP JUMPDEST PUSH2 0x353 DUP2 PUSH2 0x48F JUMP JUMPDEST DUP5 ADD SWAP2 POP POP SWAP3 SWAP2 POP POP JUMP JUMPDEST PUSH2 0x367 DUP2 PUSH2 0x3DB JUMP JUMPDEST DUP3 MSTORE POP POP JUMP JUMPDEST PUSH1 0x0 PUSH1 0x40 DUP3 ADD SWAP1 POP DUP2 DUP2 SUB PUSH1 0x0 DUP4 ADD MSTORE PUSH2 0x387 DUP2 DUP6 PUSH2 0x325 JUMP JUMPDEST SWAP1 POP DUP2 DUP2 SUB PUSH1 0x20 DUP4 ADD MSTORE PUSH2 0x39B DUP2 DUP5 PUSH2 0x325 JUMP JUMPDEST SWAP1 POP SWAP4 SWAP3 POP POP POP JUMP JUMPDEST PUSH1 0x0 PUSH1 0x20 DUP3 ADD SWAP1 POP PUSH2 0x3B9 PUSH1 0x0 DUP4 ADD DUP5 PUSH2 0x35E JUMP JUMPDEST SWAP3 SWAP2 POP POP JUMP JUMPDEST PUSH1 0x0 DUP2 MLOAD SWAP1 POP SWAP2 SWAP1 POP JUMP JUMPDEST PUSH1 0x0 DUP3 DUP3 MSTORE PUSH1 0x20 DUP3 ADD SWAP1 POP SWAP3 SWAP2 POP POP JUMP JUMPDEST PUSH1 0x0 DUP2 SWAP1 POP SWAP2 SWAP1 POP JUMP JUMPDEST PUSH1 0x0 JUMPDEST DUP4 DUP2 LT ISZERO PUSH2 0x403 JUMPI DUP1 DUP3 ADD MLOAD DUP2 DUP5 ADD MSTORE PUSH1 0x20 DUP2 ADD SWAP1 POP PUSH2 0x3E8 JUMP JUMPDEST DUP4 DUP2 GT ISZERO PUSH2 0x412 JUMPI PUSH1 0x0 DUP5 DUP5 ADD MSTORE JUMPDEST POP POP POP POP JUMP JUMPDEST PUSH32 0x4E487B7100000000000000000000000000000000000000000000000000000000 PUSH1 0x0 MSTORE PUSH1 0x32 PUSH1 0x4 MSTORE PUSH1 0x24 PUSH1 0x0 REVERT JUMPDEST PUSH32 0x4E487B7100000000000000000000000000000000000000000000000000000000 PUSH1 0x0 MSTORE PUSH1 0x41 PUSH1 0x4 MSTORE PUSH1 0x24 PUSH1 0x0 REVERT JUMPDEST PUSH1 0x0 DUP1 REVERT JUMPDEST PUSH1 0x0 DUP1 REVERT JUMPDEST PUSH1 0x0 DUP1 REVERT JUMPDEST PUSH1 0x0 DUP1 REVERT JUMPDEST PUSH1 0x0 DUP1 REVERT JUMPDEST PUSH1 0x0 PUSH1 0x1F NOT PUSH1 0x1F DUP4 ADD AND SWAP1 POP SWAP2 SWAP1 POP JUMP JUMPDEST PUSH2 0x4A9 DUP2 PUSH2 0x3DB JUMP JUMPDEST DUP2 EQ PUSH2 0x4B4 JUMPI PUSH1 0x0 DUP1 REVERT JUMPDEST POP JUMP INVALID LOG2 PUSH5 0x6970667358 0x22 SLT KECCAK256 0x4B 0xC8 0xA8 NOT 0xDE 0xD8 0xDE PUSH8 0xFEB32E8F60DA9C72 RETURNDATACOPY 0xF8 RETURNDATACOPY 0xD9 0xE2 PUSH12 0x365E3867966196E69B176473 PUSH16 0x6C634300080700330000000000000000 "
				},
				"gasEstimates": {
					"creation": {
						"codeDepositCost": "252200",
						"executionCost": "294",
						"totalCost": "252494"
					},
					"external": {
						"a(uint256)": "infinite",
						"example(string)": "infinite",
						"pushOne()": "infinite"
					}
				},
				"methodIdentifiers": {
					"a(uint256)": "f0fdf834",
					"example(string)": "bd1c9157",
					"pushOne()": "784fa0bd"
				}
			},
			"storageLayout": {
				"storage": [
					{
						"astId": 4,
						"contract": "study/chapter02/dataPosition.sol:dataPosition",
						"label": "a",
						"offset": 0,
						"slot": "0",
						"type": "t_array(t_uint256)dyn_storage"
					}
				],
				"types": {
					"t_array(t_uint256)dyn_storage": {
						"base": "t_uint256",
						"encoding": "dynamic_array",
						"label": "uint256[]",
						"numberOfBytes": "32"
					},
					"t_uint256": {
						"encoding": "inplace",
						"label": "uint256",
						"numberOfBytes": "32"
					}
				}
			},
			"userdoc": {
				"kind": "user",
				"methods": {},
				"version": 1
			}
		}
	}
}