{
	"contract/chapter02/useAbicodeV2.sol": {
		"useAbicodeV2": {
			"abi": [
				{
					"inputs": [
						{
							"components": [
								{
									"internalType": "string",
									"name": "name",
									"type": "string"
								}
							],
							"internalType": "struct useAbicodeV2.People[]",
							"name": "p",
							"type": "tuple[]"
						}
					],
					"name": "setAllPeopleName",
					"outputs": [],
					"stateMutability": "nonpayable",
					"type": "function"
				}
			],
			"devdoc": {
				"kind": "dev",
				"methods": {},
				"version": 1
			},
			"evm": {
				"assembly": "    /* \"contract/chapter02/useAbicodeV2.sol\":80:264  contract useAbicodeV2{\r... */\n  mstore(0x40, 0x80)\n  callvalue\n  dup1\n  iszero\n  tag_1\n  jumpi\n  0x00\n  dup1\n  revert\ntag_1:\n  pop\n  dataSize(sub_0)\n  dup1\n  dataOffset(sub_0)\n  0x00\n  codecopy\n  0x00\n  return\nstop\n\nsub_0: assembly {\n        /* \"contract/chapter02/useAbicodeV2.sol\":80:264  contract useAbicodeV2{\r... */\n      mstore(0x40, 0x80)\n      callvalue\n      dup1\n      iszero\n      tag_1\n      jumpi\n      0x00\n      dup1\n      revert\n    tag_1:\n      pop\n      jumpi(tag_2, lt(calldatasize, 0x04))\n      shr(0xe0, calldataload(0x00))\n      dup1\n      0x87418760\n      eq\n      tag_3\n      jumpi\n    tag_2:\n      0x00\n      dup1\n      revert\n        /* \"contract/chapter02/useAbicodeV2.sol\":163:259  function setAllPeopleName(People[] memory p)public{\r... */\n    tag_3:\n      tag_4\n      0x04\n      dup1\n      calldatasize\n      sub\n      dup2\n      add\n      swap1\n      tag_5\n      swap2\n      swap1\n      tag_6\n      jump\t// in\n    tag_5:\n      tag_7\n      jump\t// in\n    tag_4:\n      stop\n    tag_7:\n        /* \"contract/chapter02/useAbicodeV2.sol\":224:230  uint a */\n      0x00\n        /* \"contract/chapter02/useAbicodeV2.sol\":233:234  p */\n      dup2\n        /* \"contract/chapter02/useAbicodeV2.sol\":233:241  p.length */\n      mload\n        /* \"contract/chapter02/useAbicodeV2.sol\":224:241  uint a = p.length */\n      swap1\n      pop\n        /* \"contract/chapter02/useAbicodeV2.sol\":213:259  {\r... */\n      pop\n        /* \"contract/chapter02/useAbicodeV2.sol\":163:259  function setAllPeopleName(People[] memory p)public{\r... */\n      pop\n      jump\t// out\n        /* \"#utility.yul\":43:1033   */\n    tag_10:\n        /* \"#utility.yul\":160:165   */\n      0x00\n        /* \"#utility.yul\":185:287   */\n      tag_12\n        /* \"#utility.yul\":201:286   */\n      tag_13\n        /* \"#utility.yul\":279:285   */\n      dup5\n        /* \"#utility.yul\":201:286   */\n      tag_14\n      jump\t// in\n    tag_13:\n        /* \"#utility.yul\":185:287   */\n      tag_15\n      jump\t// in\n    tag_12:\n        /* \"#utility.yul\":176:287   */\n      swap1\n      pop\n        /* \"#utility.yul\":307:312   */\n      dup1\n        /* \"#utility.yul\":336:342   */\n      dup4\n        /* \"#utility.yul\":329:334   */\n      dup3\n        /* \"#utility.yul\":322:343   */\n      mstore\n        /* \"#utility.yul\":370:374   */\n      0x20\n        /* \"#utility.yul\":363:368   */\n      dup3\n        /* \"#utility.yul\":359:375   */\n      add\n        /* \"#utility.yul\":352:375   */\n      swap1\n      pop\n        /* \"#utility.yul\":396:402   */\n      dup3\n        /* \"#utility.yul\":446:449   */\n      dup6\n        /* \"#utility.yul\":438:442   */\n      0x20\n        /* \"#utility.yul\":430:436   */\n      dup7\n        /* \"#utility.yul\":426:443   */\n      mul\n        /* \"#utility.yul\":421:424   */\n      dup3\n        /* \"#utility.yul\":417:444   */\n      add\n        /* \"#utility.yul\":414:450   */\n      gt\n        /* \"#utility.yul\":411:554   */\n      iszero\n      tag_16\n      jumpi\n        /* \"#utility.yul\":465:544   */\n      tag_17\n      tag_18\n      jump\t// in\n    tag_17:\n        /* \"#utility.yul\":411:554   */\n    tag_16:\n        /* \"#utility.yul\":578:579   */\n      0x00\n        /* \"#utility.yul\":563:1027   */\n    tag_19:\n        /* \"#utility.yul\":588:594   */\n      dup6\n        /* \"#utility.yul\":585:586   */\n      dup2\n        /* \"#utility.yul\":582:595   */\n      lt\n        /* \"#utility.yul\":563:1027   */\n      iszero\n      tag_21\n      jumpi\n        /* \"#utility.yul\":670:673   */\n      dup2\n        /* \"#utility.yul\":657:674   */\n      calldataload\n        /* \"#utility.yul\":706:724   */\n      0xffffffffffffffff\n        /* \"#utility.yul\":693:704   */\n      dup2\n        /* \"#utility.yul\":690:725   */\n      gt\n        /* \"#utility.yul\":687:809   */\n      iszero\n      tag_22\n      jumpi\n        /* \"#utility.yul\":728:807   */\n      tag_23\n      tag_24\n      jump\t// in\n    tag_23:\n        /* \"#utility.yul\":687:809   */\n    tag_22:\n        /* \"#utility.yul\":852:863   */\n      dup1\n        /* \"#utility.yul\":844:850   */\n      dup7\n        /* \"#utility.yul\":840:864   */\n      add\n        /* \"#utility.yul\":890:948   */\n      tag_25\n        /* \"#utility.yul\":944:947   */\n      dup10\n        /* \"#utility.yul\":932:942   */\n      dup3\n        /* \"#utility.yul\":890:948   */\n      tag_26\n      jump\t// in\n    tag_25:\n        /* \"#utility.yul\":885:888   */\n      dup6\n        /* \"#utility.yul\":878:949   */\n      mstore\n        /* \"#utility.yul\":978:982   */\n      0x20\n        /* \"#utility.yul\":973:976   */\n      dup6\n        /* \"#utility.yul\":969:983   */\n      add\n        /* \"#utility.yul\":962:983   */\n      swap5\n      pop\n        /* \"#utility.yul\":1012:1016   */\n      0x20\n        /* \"#utility.yul\":1007:1010   */\n      dup5\n        /* \"#utility.yul\":1003:1017   */\n      add\n        /* \"#utility.yul\":996:1017   */\n      swap4\n      pop\n        /* \"#utility.yul\":623:1027   */\n      pop\n      pop\n        /* \"#utility.yul\":610:611   */\n      0x01\n        /* \"#utility.yul\":607:608   */\n      dup2\n        /* \"#utility.yul\":603:612   */\n      add\n        /* \"#utility.yul\":598:612   */\n      swap1\n      pop\n        /* \"#utility.yul\":563:1027   */\n      jump(tag_19)\n    tag_21:\n        /* \"#utility.yul\":567:581   */\n      pop\n        /* \"#utility.yul\":166:1033   */\n      pop\n      pop\n        /* \"#utility.yul\":43:1033   */\n      swap4\n      swap3\n      pop\n      pop\n      pop\n      jump\t// out\n        /* \"#utility.yul\":1039:1451   */\n    tag_27:\n        /* \"#utility.yul\":1117:1122   */\n      0x00\n        /* \"#utility.yul\":1142:1208   */\n      tag_29\n        /* \"#utility.yul\":1158:1207   */\n      tag_30\n        /* \"#utility.yul\":1200:1206   */\n      dup5\n        /* \"#utility.yul\":1158:1207   */\n      tag_31\n      jump\t// in\n    tag_30:\n        /* \"#utility.yul\":1142:1208   */\n      tag_15\n      jump\t// in\n    tag_29:\n        /* \"#utility.yul\":1133:1208   */\n      swap1\n      pop\n        /* \"#utility.yul\":1231:1237   */\n      dup3\n        /* \"#utility.yul\":1224:1229   */\n      dup2\n        /* \"#utility.yul\":1217:1238   */\n      mstore\n        /* \"#utility.yul\":1269:1273   */\n      0x20\n        /* \"#utility.yul\":1262:1267   */\n      dup2\n        /* \"#utility.yul\":1258:1274   */\n      add\n        /* \"#utility.yul\":1307:1310   */\n      dup5\n        /* \"#utility.yul\":1298:1304   */\n      dup5\n        /* \"#utility.yul\":1293:1296   */\n      dup5\n        /* \"#utility.yul\":1289:1305   */\n      add\n        /* \"#utility.yul\":1286:1311   */\n      gt\n        /* \"#utility.yul\":1283:1395   */\n      iszero\n      tag_32\n      jumpi\n        /* \"#utility.yul\":1314:1393   */\n      tag_33\n      tag_34\n      jump\t// in\n    tag_33:\n        /* \"#utility.yul\":1283:1395   */\n    tag_32:\n        /* \"#utility.yul\":1404:1445   */\n      tag_35\n        /* \"#utility.yul\":1438:1444   */\n      dup5\n        /* \"#utility.yul\":1433:1436   */\n      dup3\n        /* \"#utility.yul\":1428:1431   */\n      dup6\n        /* \"#utility.yul\":1404:1445   */\n      tag_36\n      jump\t// in\n    tag_35:\n        /* \"#utility.yul\":1123:1451   */\n      pop\n        /* \"#utility.yul\":1039:1451   */\n      swap4\n      swap3\n      pop\n      pop\n      pop\n      jump\t// out\n        /* \"#utility.yul\":1493:1905   */\n    tag_37:\n        /* \"#utility.yul\":1585:1590   */\n      0x00\n        /* \"#utility.yul\":1634:1637   */\n      dup3\n        /* \"#utility.yul\":1627:1631   */\n      0x1f\n        /* \"#utility.yul\":1619:1625   */\n      dup4\n        /* \"#utility.yul\":1615:1632   */\n      add\n        /* \"#utility.yul\":1611:1638   */\n      slt\n        /* \"#utility.yul\":1601:1723   */\n      tag_39\n      jumpi\n        /* \"#utility.yul\":1642:1721   */\n      tag_40\n      tag_24\n      jump\t// in\n    tag_40:\n        /* \"#utility.yul\":1601:1723   */\n    tag_39:\n        /* \"#utility.yul\":1759:1765   */\n      dup2\n        /* \"#utility.yul\":1746:1766   */\n      calldataload\n        /* \"#utility.yul\":1784:1899   */\n      tag_41\n        /* \"#utility.yul\":1895:1898   */\n      dup5\n        /* \"#utility.yul\":1887:1893   */\n      dup3\n        /* \"#utility.yul\":1880:1884   */\n      0x20\n        /* \"#utility.yul\":1872:1878   */\n      dup7\n        /* \"#utility.yul\":1868:1885   */\n      add\n        /* \"#utility.yul\":1784:1899   */\n      tag_10\n      jump\t// in\n    tag_41:\n        /* \"#utility.yul\":1775:1899   */\n      swap2\n      pop\n        /* \"#utility.yul\":1591:1905   */\n      pop\n        /* \"#utility.yul\":1493:1905   */\n      swap3\n      swap2\n      pop\n      pop\n      jump\t// out\n        /* \"#utility.yul\":1925:2265   */\n    tag_42:\n        /* \"#utility.yul\":1981:1986   */\n      0x00\n        /* \"#utility.yul\":2030:2033   */\n      dup3\n        /* \"#utility.yul\":2023:2027   */\n      0x1f\n        /* \"#utility.yul\":2015:2021   */\n      dup4\n        /* \"#utility.yul\":2011:2028   */\n      add\n        /* \"#utility.yul\":2007:2034   */\n      slt\n        /* \"#utility.yul\":1997:2119   */\n      tag_44\n      jumpi\n        /* \"#utility.yul\":2038:2117   */\n      tag_45\n      tag_24\n      jump\t// in\n    tag_45:\n        /* \"#utility.yul\":1997:2119   */\n    tag_44:\n        /* \"#utility.yul\":2155:2161   */\n      dup2\n        /* \"#utility.yul\":2142:2162   */\n      calldataload\n        /* \"#utility.yul\":2180:2259   */\n      tag_46\n        /* \"#utility.yul\":2255:2258   */\n      dup5\n        /* \"#utility.yul\":2247:2253   */\n      dup3\n        /* \"#utility.yul\":2240:2244   */\n      0x20\n        /* \"#utility.yul\":2232:2238   */\n      dup7\n        /* \"#utility.yul\":2228:2245   */\n      add\n        /* \"#utility.yul\":2180:2259   */\n      tag_27\n      jump\t// in\n    tag_46:\n        /* \"#utility.yul\":2171:2259   */\n      swap2\n      pop\n        /* \"#utility.yul\":1987:2265   */\n      pop\n        /* \"#utility.yul\":1925:2265   */\n      swap3\n      swap2\n      pop\n      pop\n      jump\t// out\n        /* \"#utility.yul\":2305:2884   */\n    tag_26:\n        /* \"#utility.yul\":2375:2380   */\n      0x00\n        /* \"#utility.yul\":2419:2423   */\n      0x20\n        /* \"#utility.yul\":2407:2416   */\n      dup3\n        /* \"#utility.yul\":2402:2405   */\n      dup5\n        /* \"#utility.yul\":2398:2417   */\n      sub\n        /* \"#utility.yul\":2394:2424   */\n      slt\n        /* \"#utility.yul\":2391:2508   */\n      iszero\n      tag_48\n      jumpi\n        /* \"#utility.yul\":2427:2506   */\n      tag_49\n      tag_50\n      jump\t// in\n    tag_49:\n        /* \"#utility.yul\":2391:2508   */\n    tag_48:\n        /* \"#utility.yul\":2526:2547   */\n      tag_51\n        /* \"#utility.yul\":2542:2546   */\n      0x20\n        /* \"#utility.yul\":2526:2547   */\n      tag_15\n      jump\t// in\n    tag_51:\n        /* \"#utility.yul\":2517:2547   */\n      swap1\n      pop\n        /* \"#utility.yul\":2634:2635   */\n      0x00\n        /* \"#utility.yul\":2623:2632   */\n      dup3\n        /* \"#utility.yul\":2619:2636   */\n      add\n        /* \"#utility.yul\":2606:2637   */\n      calldataload\n        /* \"#utility.yul\":2664:2682   */\n      0xffffffffffffffff\n        /* \"#utility.yul\":2656:2662   */\n      dup2\n        /* \"#utility.yul\":2653:2683   */\n      gt\n        /* \"#utility.yul\":2650:2767   */\n      iszero\n      tag_52\n      jumpi\n        /* \"#utility.yul\":2686:2765   */\n      tag_53\n      tag_54\n      jump\t// in\n    tag_53:\n        /* \"#utility.yul\":2650:2767   */\n    tag_52:\n        /* \"#utility.yul\":2806:2865   */\n      tag_55\n        /* \"#utility.yul\":2861:2864   */\n      dup5\n        /* \"#utility.yul\":2852:2858   */\n      dup3\n        /* \"#utility.yul\":2841:2850   */\n      dup6\n        /* \"#utility.yul\":2837:2859   */\n      add\n        /* \"#utility.yul\":2806:2865   */\n      tag_42\n      jump\t// in\n    tag_55:\n        /* \"#utility.yul\":2799:2803   */\n      0x00\n        /* \"#utility.yul\":2792:2797   */\n      dup4\n        /* \"#utility.yul\":2788:2804   */\n      add\n        /* \"#utility.yul\":2781:2866   */\n      mstore\n        /* \"#utility.yul\":2557:2877   */\n      pop\n        /* \"#utility.yul\":2305:2884   */\n      swap3\n      swap2\n      pop\n      pop\n      jump\t// out\n        /* \"#utility.yul\":2890:3471   */\n    tag_6:\n        /* \"#utility.yul\":2995:3001   */\n      0x00\n        /* \"#utility.yul\":3044:3046   */\n      0x20\n        /* \"#utility.yul\":3032:3041   */\n      dup3\n        /* \"#utility.yul\":3023:3030   */\n      dup5\n        /* \"#utility.yul\":3019:3042   */\n      sub\n        /* \"#utility.yul\":3015:3047   */\n      slt\n        /* \"#utility.yul\":3012:3131   */\n      iszero\n      tag_57\n      jumpi\n        /* \"#utility.yul\":3050:3129   */\n      tag_58\n      tag_59\n      jump\t// in\n    tag_58:\n        /* \"#utility.yul\":3012:3131   */\n    tag_57:\n        /* \"#utility.yul\":3198:3199   */\n      0x00\n        /* \"#utility.yul\":3187:3196   */\n      dup3\n        /* \"#utility.yul\":3183:3200   */\n      add\n        /* \"#utility.yul\":3170:3201   */\n      calldataload\n        /* \"#utility.yul\":3228:3246   */\n      0xffffffffffffffff\n        /* \"#utility.yul\":3220:3226   */\n      dup2\n        /* \"#utility.yul\":3217:3247   */\n      gt\n        /* \"#utility.yul\":3214:3331   */\n      iszero\n      tag_60\n      jumpi\n        /* \"#utility.yul\":3250:3329   */\n      tag_61\n      tag_62\n      jump\t// in\n    tag_61:\n        /* \"#utility.yul\":3214:3331   */\n    tag_60:\n        /* \"#utility.yul\":3355:3454   */\n      tag_63\n        /* \"#utility.yul\":3446:3453   */\n      dup5\n        /* \"#utility.yul\":3437:3443   */\n      dup3\n        /* \"#utility.yul\":3426:3435   */\n      dup6\n        /* \"#utility.yul\":3422:3444   */\n      add\n        /* \"#utility.yul\":3355:3454   */\n      tag_37\n      jump\t// in\n    tag_63:\n        /* \"#utility.yul\":3345:3454   */\n      swap2\n      pop\n        /* \"#utility.yul\":3141:3464   */\n      pop\n        /* \"#utility.yul\":2890:3471   */\n      swap3\n      swap2\n      pop\n      pop\n      jump\t// out\n        /* \"#utility.yul\":3477:3606   */\n    tag_15:\n        /* \"#utility.yul\":3511:3517   */\n      0x00\n        /* \"#utility.yul\":3538:3558   */\n      tag_65\n      tag_66\n      jump\t// in\n    tag_65:\n        /* \"#utility.yul\":3528:3558   */\n      swap1\n      pop\n        /* \"#utility.yul\":3567:3600   */\n      tag_67\n        /* \"#utility.yul\":3595:3599   */\n      dup3\n        /* \"#utility.yul\":3587:3593   */\n      dup3\n        /* \"#utility.yul\":3567:3600   */\n      tag_68\n      jump\t// in\n    tag_67:\n        /* \"#utility.yul\":3477:3606   */\n      swap2\n      swap1\n      pop\n      jump\t// out\n        /* \"#utility.yul\":3612:3687   */\n    tag_66:\n        /* \"#utility.yul\":3645:3651   */\n      0x00\n        /* \"#utility.yul\":3678:3680   */\n      0x40\n        /* \"#utility.yul\":3672:3681   */\n      mload\n        /* \"#utility.yul\":3662:3681   */\n      swap1\n      pop\n        /* \"#utility.yul\":3612:3687   */\n      swap1\n      jump\t// out\n        /* \"#utility.yul\":3693:4025   */\n    tag_14:\n        /* \"#utility.yul\":3791:3795   */\n      0x00\n        /* \"#utility.yul\":3881:3899   */\n      0xffffffffffffffff\n        /* \"#utility.yul\":3873:3879   */\n      dup3\n        /* \"#utility.yul\":3870:3900   */\n      gt\n        /* \"#utility.yul\":3867:3923   */\n      iszero\n      tag_71\n      jumpi\n        /* \"#utility.yul\":3903:3921   */\n      tag_72\n      tag_73\n      jump\t// in\n    tag_72:\n        /* \"#utility.yul\":3867:3923   */\n    tag_71:\n        /* \"#utility.yul\":3953:3957   */\n      0x20\n        /* \"#utility.yul\":3945:3951   */\n      dup3\n        /* \"#utility.yul\":3941:3958   */\n      mul\n        /* \"#utility.yul\":3933:3958   */\n      swap1\n      pop\n        /* \"#utility.yul\":4013:4017   */\n      0x20\n        /* \"#utility.yul\":4007:4011   */\n      dup2\n        /* \"#utility.yul\":4003:4018   */\n      add\n        /* \"#utility.yul\":3995:4018   */\n      swap1\n      pop\n        /* \"#utility.yul\":3693:4025   */\n      swap2\n      swap1\n      pop\n      jump\t// out\n        /* \"#utility.yul\":4031:4339   */\n    tag_31:\n        /* \"#utility.yul\":4093:4097   */\n      0x00\n        /* \"#utility.yul\":4183:4201   */\n      0xffffffffffffffff\n        /* \"#utility.yul\":4175:4181   */\n      dup3\n        /* \"#utility.yul\":4172:4202   */\n      gt\n        /* \"#utility.yul\":4169:4225   */\n      iszero\n      tag_75\n      jumpi\n        /* \"#utility.yul\":4205:4223   */\n      tag_76\n      tag_73\n      jump\t// in\n    tag_76:\n        /* \"#utility.yul\":4169:4225   */\n    tag_75:\n        /* \"#utility.yul\":4243:4272   */\n      tag_77\n        /* \"#utility.yul\":4265:4271   */\n      dup3\n        /* \"#utility.yul\":4243:4272   */\n      tag_78\n      jump\t// in\n    tag_77:\n        /* \"#utility.yul\":4235:4272   */\n      swap1\n      pop\n        /* \"#utility.yul\":4327:4331   */\n      0x20\n        /* \"#utility.yul\":4321:4325   */\n      dup2\n        /* \"#utility.yul\":4317:4332   */\n      add\n        /* \"#utility.yul\":4309:4332   */\n      swap1\n      pop\n        /* \"#utility.yul\":4031:4339   */\n      swap2\n      swap1\n      pop\n      jump\t// out\n        /* \"#utility.yul\":4345:4499   */\n    tag_36:\n        /* \"#utility.yul\":4429:4435   */\n      dup3\n        /* \"#utility.yul\":4424:4427   */\n      dup2\n        /* \"#utility.yul\":4419:4422   */\n      dup4\n        /* \"#utility.yul\":4406:4436   */\n      calldatacopy\n        /* \"#utility.yul\":4491:4492   */\n      0x00\n        /* \"#utility.yul\":4482:4488   */\n      dup4\n        /* \"#utility.yul\":4477:4480   */\n      dup4\n        /* \"#utility.yul\":4473:4489   */\n      add\n        /* \"#utility.yul\":4466:4493   */\n      mstore\n        /* \"#utility.yul\":4345:4499   */\n      pop\n      pop\n      pop\n      jump\t// out\n        /* \"#utility.yul\":4505:4786   */\n    tag_68:\n        /* \"#utility.yul\":4588:4615   */\n      tag_81\n        /* \"#utility.yul\":4610:4614   */\n      dup3\n        /* \"#utility.yul\":4588:4615   */\n      tag_78\n      jump\t// in\n    tag_81:\n        /* \"#utility.yul\":4580:4586   */\n      dup2\n        /* \"#utility.yul\":4576:4616   */\n      add\n        /* \"#utility.yul\":4718:4724   */\n      dup2\n        /* \"#utility.yul\":4706:4716   */\n      dup2\n        /* \"#utility.yul\":4703:4725   */\n      lt\n        /* \"#utility.yul\":4682:4700   */\n      0xffffffffffffffff\n        /* \"#utility.yul\":4670:4680   */\n      dup3\n        /* \"#utility.yul\":4667:4701   */\n      gt\n        /* \"#utility.yul\":4664:4726   */\n      or\n        /* \"#utility.yul\":4661:4749   */\n      iszero\n      tag_82\n      jumpi\n        /* \"#utility.yul\":4729:4747   */\n      tag_83\n      tag_73\n      jump\t// in\n    tag_83:\n        /* \"#utility.yul\":4661:4749   */\n    tag_82:\n        /* \"#utility.yul\":4769:4779   */\n      dup1\n        /* \"#utility.yul\":4765:4767   */\n      0x40\n        /* \"#utility.yul\":4758:4780   */\n      mstore\n        /* \"#utility.yul\":4548:4786   */\n      pop\n        /* \"#utility.yul\":4505:4786   */\n      pop\n      pop\n      jump\t// out\n        /* \"#utility.yul\":4792:4972   */\n    tag_73:\n        /* \"#utility.yul\":4840:4917   */\n      0x4e487b7100000000000000000000000000000000000000000000000000000000\n        /* \"#utility.yul\":4837:4838   */\n      0x00\n        /* \"#utility.yul\":4830:4918   */\n      mstore\n        /* \"#utility.yul\":4937:4941   */\n      0x41\n        /* \"#utility.yul\":4934:4935   */\n      0x04\n        /* \"#utility.yul\":4927:4942   */\n      mstore\n        /* \"#utility.yul\":4961:4965   */\n      0x24\n        /* \"#utility.yul\":4958:4959   */\n      0x00\n        /* \"#utility.yul\":4951:4966   */\n      revert\n        /* \"#utility.yul\":4978:5095   */\n    tag_24:\n        /* \"#utility.yul\":5087:5088   */\n      0x00\n        /* \"#utility.yul\":5084:5085   */\n      dup1\n        /* \"#utility.yul\":5077:5089   */\n      revert\n        /* \"#utility.yul\":5101:5218   */\n    tag_50:\n        /* \"#utility.yul\":5210:5211   */\n      0x00\n        /* \"#utility.yul\":5207:5208   */\n      dup1\n        /* \"#utility.yul\":5200:5212   */\n      revert\n        /* \"#utility.yul\":5224:5341   */\n    tag_54:\n        /* \"#utility.yul\":5333:5334   */\n      0x00\n        /* \"#utility.yul\":5330:5331   */\n      dup1\n        /* \"#utility.yul\":5323:5335   */\n      revert\n        /* \"#utility.yul\":5347:5464   */\n    tag_18:\n        /* \"#utility.yul\":5456:5457   */\n      0x00\n        /* \"#utility.yul\":5453:5454   */\n      dup1\n        /* \"#utility.yul\":5446:5458   */\n      revert\n        /* \"#utility.yul\":5470:5587   */\n    tag_34:\n        /* \"#utility.yul\":5579:5580   */\n      0x00\n        /* \"#utility.yul\":5576:5577   */\n      dup1\n        /* \"#utility.yul\":5569:5581   */\n      revert\n        /* \"#utility.yul\":5593:5710   */\n    tag_62:\n        /* \"#utility.yul\":5702:5703   */\n      0x00\n        /* \"#utility.yul\":5699:5700   */\n      dup1\n        /* \"#utility.yul\":5692:5704   */\n      revert\n        /* \"#utility.yul\":5716:5833   */\n    tag_59:\n        /* \"#utility.yul\":5825:5826   */\n      0x00\n        /* \"#utility.yul\":5822:5823   */\n      dup1\n        /* \"#utility.yul\":5815:5827   */\n      revert\n        /* \"#utility.yul\":5839:5941   */\n    tag_78:\n        /* \"#utility.yul\":5880:5886   */\n      0x00\n        /* \"#utility.yul\":5931:5933   */\n      0x1f\n        /* \"#utility.yul\":5927:5934   */\n      not\n        /* \"#utility.yul\":5922:5924   */\n      0x1f\n        /* \"#utility.yul\":5915:5920   */\n      dup4\n        /* \"#utility.yul\":5911:5925   */\n      add\n        /* \"#utility.yul\":5907:5935   */\n      and\n        /* \"#utility.yul\":5897:5935   */\n      swap1\n      pop\n        /* \"#utility.yul\":5839:5941   */\n      swap2\n      swap1\n      pop\n      jump\t// out\n\n    auxdata: 0xa26469706673582212204b1c6bd37264697ebde2ee09c7593760f639d3a1bc62f72737b494b9bf9836bf64736f6c63430008070033\n}\n",
				"bytecode": {
					"linkReferences": {},
					"object": "608060405234801561001057600080fd5b5061037e806100206000396000f3fe608060405234801561001057600080fd5b506004361061002b5760003560e01c80638741876014610030575b600080fd5b61004a600480360381019061004591906101da565b61004c565b005b6000815190505050565b600061006961006484610248565b610223565b9050808382526020820190508285602086028201111561008c5761008b610323565b5b60005b858110156100da57813567ffffffffffffffff8111156100b2576100b1610314565b5b8086016100bf8982610182565b8552602085019450602084019350505060018101905061008f565b5050509392505050565b60006100f76100f284610274565b610223565b90508281526020810184848401111561011357610112610328565b5b61011e8482856102a5565b509392505050565b600082601f83011261013b5761013a610314565b5b813561014b848260208601610056565b91505092915050565b600082601f83011261016957610168610314565b5b81356101798482602086016100e4565b91505092915050565b60006020828403121561019857610197610319565b5b6101a26020610223565b9050600082013567ffffffffffffffff8111156101c2576101c161031e565b5b6101ce84828501610154565b60008301525092915050565b6000602082840312156101f0576101ef610332565b5b600082013567ffffffffffffffff81111561020e5761020d61032d565b5b61021a84828501610126565b91505092915050565b600061022d61023e565b905061023982826102b4565b919050565b6000604051905090565b600067ffffffffffffffff821115610263576102626102e5565b5b602082029050602081019050919050565b600067ffffffffffffffff82111561028f5761028e6102e5565b5b61029882610337565b9050602081019050919050565b82818337600083830152505050565b6102bd82610337565b810181811067ffffffffffffffff821117156102dc576102db6102e5565b5b80604052505050565b7f4e487b7100000000000000000000000000000000000000000000000000000000600052604160045260246000fd5b600080fd5b600080fd5b600080fd5b600080fd5b600080fd5b600080fd5b600080fd5b6000601f19601f830116905091905056fea26469706673582212204b1c6bd37264697ebde2ee09c7593760f639d3a1bc62f72737b494b9bf9836bf64736f6c63430008070033",
					"opcodes": "PUSH1 0x80 PUSH1 0x40 MSTORE CALLVALUE DUP1 ISZERO PUSH2 0x10 JUMPI PUSH1 0x0 DUP1 REVERT JUMPDEST POP PUSH2 0x37E DUP1 PUSH2 0x20 PUSH1 0x0 CODECOPY PUSH1 0x0 RETURN INVALID PUSH1 0x80 PUSH1 0x40 MSTORE CALLVALUE DUP1 ISZERO PUSH2 0x10 JUMPI PUSH1 0x0 DUP1 REVERT JUMPDEST POP PUSH1 0x4 CALLDATASIZE LT PUSH2 0x2B JUMPI PUSH1 0x0 CALLDATALOAD PUSH1 0xE0 SHR DUP1 PUSH4 0x87418760 EQ PUSH2 0x30 JUMPI JUMPDEST PUSH1 0x0 DUP1 REVERT JUMPDEST PUSH2 0x4A PUSH1 0x4 DUP1 CALLDATASIZE SUB DUP2 ADD SWAP1 PUSH2 0x45 SWAP2 SWAP1 PUSH2 0x1DA JUMP JUMPDEST PUSH2 0x4C JUMP JUMPDEST STOP JUMPDEST PUSH1 0x0 DUP2 MLOAD SWAP1 POP POP POP JUMP JUMPDEST PUSH1 0x0 PUSH2 0x69 PUSH2 0x64 DUP5 PUSH2 0x248 JUMP JUMPDEST PUSH2 0x223 JUMP JUMPDEST SWAP1 POP DUP1 DUP4 DUP3 MSTORE PUSH1 0x20 DUP3 ADD SWAP1 POP DUP3 DUP6 PUSH1 0x20 DUP7 MUL DUP3 ADD GT ISZERO PUSH2 0x8C JUMPI PUSH2 0x8B PUSH2 0x323 JUMP JUMPDEST JUMPDEST PUSH1 0x0 JUMPDEST DUP6 DUP2 LT ISZERO PUSH2 0xDA JUMPI DUP2 CALLDATALOAD PUSH8 0xFFFFFFFFFFFFFFFF DUP2 GT ISZERO PUSH2 0xB2 JUMPI PUSH2 0xB1 PUSH2 0x314 JUMP JUMPDEST JUMPDEST DUP1 DUP7 ADD PUSH2 0xBF DUP10 DUP3 PUSH2 0x182 JUMP JUMPDEST DUP6 MSTORE PUSH1 0x20 DUP6 ADD SWAP5 POP PUSH1 0x20 DUP5 ADD SWAP4 POP POP POP PUSH1 0x1 DUP2 ADD SWAP1 POP PUSH2 0x8F JUMP JUMPDEST POP POP POP SWAP4 SWAP3 POP POP POP JUMP JUMPDEST PUSH1 0x0 PUSH2 0xF7 PUSH2 0xF2 DUP5 PUSH2 0x274 JUMP JUMPDEST PUSH2 0x223 JUMP JUMPDEST SWAP1 POP DUP3 DUP2 MSTORE PUSH1 0x20 DUP2 ADD DUP5 DUP5 DUP5 ADD GT ISZERO PUSH2 0x113 JUMPI PUSH2 0x112 PUSH2 0x328 JUMP JUMPDEST JUMPDEST PUSH2 0x11E DUP5 DUP3 DUP6 PUSH2 0x2A5 JUMP JUMPDEST POP SWAP4 SWAP3 POP POP POP JUMP JUMPDEST PUSH1 0x0 DUP3 PUSH1 0x1F DUP4 ADD SLT PUSH2 0x13B JUMPI PUSH2 0x13A PUSH2 0x314 JUMP JUMPDEST JUMPDEST DUP2 CALLDATALOAD PUSH2 0x14B DUP5 DUP3 PUSH1 0x20 DUP7 ADD PUSH2 0x56 JUMP JUMPDEST SWAP2 POP POP SWAP3 SWAP2 POP POP JUMP JUMPDEST PUSH1 0x0 DUP3 PUSH1 0x1F DUP4 ADD SLT PUSH2 0x169 JUMPI PUSH2 0x168 PUSH2 0x314 JUMP JUMPDEST JUMPDEST DUP2 CALLDATALOAD PUSH2 0x179 DUP5 DUP3 PUSH1 0x20 DUP7 ADD PUSH2 0xE4 JUMP JUMPDEST SWAP2 POP POP SWAP3 SWAP2 POP POP JUMP JUMPDEST PUSH1 0x0 PUSH1 0x20 DUP3 DUP5 SUB SLT ISZERO PUSH2 0x198 JUMPI PUSH2 0x197 PUSH2 0x319 JUMP JUMPDEST JUMPDEST PUSH2 0x1A2 PUSH1 0x20 PUSH2 0x223 JUMP JUMPDEST SWAP1 POP PUSH1 0x0 DUP3 ADD CALLDATALOAD PUSH8 0xFFFFFFFFFFFFFFFF DUP2 GT ISZERO PUSH2 0x1C2 JUMPI PUSH2 0x1C1 PUSH2 0x31E JUMP JUMPDEST JUMPDEST PUSH2 0x1CE DUP5 DUP3 DUP6 ADD PUSH2 0x154 JUMP JUMPDEST PUSH1 0x0 DUP4 ADD MSTORE POP SWAP3 SWAP2 POP POP JUMP JUMPDEST PUSH1 0x0 PUSH1 0x20 DUP3 DUP5 SUB SLT ISZERO PUSH2 0x1F0 JUMPI PUSH2 0x1EF PUSH2 0x332 JUMP JUMPDEST JUMPDEST PUSH1 0x0 DUP3 ADD CALLDATALOAD PUSH8 0xFFFFFFFFFFFFFFFF DUP2 GT ISZERO PUSH2 0x20E JUMPI PUSH2 0x20D PUSH2 0x32D JUMP JUMPDEST JUMPDEST PUSH2 0x21A DUP5 DUP3 DUP6 ADD PUSH2 0x126 JUMP JUMPDEST SWAP2 POP POP SWAP3 SWAP2 POP POP JUMP JUMPDEST PUSH1 0x0 PUSH2 0x22D PUSH2 0x23E JUMP JUMPDEST SWAP1 POP PUSH2 0x239 DUP3 DUP3 PUSH2 0x2B4 JUMP JUMPDEST SWAP2 SWAP1 POP JUMP JUMPDEST PUSH1 0x0 PUSH1 0x40 MLOAD SWAP1 POP SWAP1 JUMP JUMPDEST PUSH1 0x0 PUSH8 0xFFFFFFFFFFFFFFFF DUP3 GT ISZERO PUSH2 0x263 JUMPI PUSH2 0x262 PUSH2 0x2E5 JUMP JUMPDEST JUMPDEST PUSH1 0x20 DUP3 MUL SWAP1 POP PUSH1 0x20 DUP2 ADD SWAP1 POP SWAP2 SWAP1 POP JUMP JUMPDEST PUSH1 0x0 PUSH8 0xFFFFFFFFFFFFFFFF DUP3 GT ISZERO PUSH2 0x28F JUMPI PUSH2 0x28E PUSH2 0x2E5 JUMP JUMPDEST JUMPDEST PUSH2 0x298 DUP3 PUSH2 0x337 JUMP JUMPDEST SWAP1 POP PUSH1 0x20 DUP2 ADD SWAP1 POP SWAP2 SWAP1 POP JUMP JUMPDEST DUP3 DUP2 DUP4 CALLDATACOPY PUSH1 0x0 DUP4 DUP4 ADD MSTORE POP POP POP JUMP JUMPDEST PUSH2 0x2BD DUP3 PUSH2 0x337 JUMP JUMPDEST DUP2 ADD DUP2 DUP2 LT PUSH8 0xFFFFFFFFFFFFFFFF DUP3 GT OR ISZERO PUSH2 0x2DC JUMPI PUSH2 0x2DB PUSH2 0x2E5 JUMP JUMPDEST JUMPDEST DUP1 PUSH1 0x40 MSTORE POP POP POP JUMP JUMPDEST PUSH32 0x4E487B7100000000000000000000000000000000000000000000000000000000 PUSH1 0x0 MSTORE PUSH1 0x41 PUSH1 0x4 MSTORE PUSH1 0x24 PUSH1 0x0 REVERT JUMPDEST PUSH1 0x0 DUP1 REVERT JUMPDEST PUSH1 0x0 DUP1 REVERT JUMPDEST PUSH1 0x0 DUP1 REVERT JUMPDEST PUSH1 0x0 DUP1 REVERT JUMPDEST PUSH1 0x0 DUP1 REVERT JUMPDEST PUSH1 0x0 DUP1 REVERT JUMPDEST PUSH1 0x0 DUP1 REVERT JUMPDEST PUSH1 0x0 PUSH1 0x1F NOT PUSH1 0x1F DUP4 ADD AND SWAP1 POP SWAP2 SWAP1 POP JUMP INVALID LOG2 PUSH5 0x6970667358 0x22 SLT KECCAK256 0x4B SHR PUSH12 0xD37264697EBDE2EE09C75937 PUSH1 0xF6 CODECOPY 0xD3 LOG1 0xBC PUSH3 0xF72737 0xB4 SWAP5 0xB9 0xBF SWAP9 CALLDATASIZE 0xBF PUSH5 0x736F6C6343 STOP ADDMOD SMOD STOP CALLER "
				},
				"gasEstimates": {
					"creation": {
						"codeDepositCost": "178800",
						"executionCost": "220",
						"totalCost": "179020"
					},
					"external": {
						"setAllPeopleName((string)[])": "infinite"
					}
				},
				"methodIdentifiers": {
					"setAllPeopleName((string)[])": "87418760"
				}
			},
			"storageLayout": {
				"storage": [],
				"types": null
			},
			"userdoc": {
				"kind": "user",
				"methods": {},
				"version": 1
			}
		}
	}
}