{
	"code0/create2.sol": {
		"Create2": {
			"abi": [
				{
					"inputs": [
						{
							"internalType": "bytes32",
							"name": "salt",
							"type": "bytes32"
						},
						{
							"internalType": "uint256",
							"name": "arg",
							"type": "uint256"
						}
					],
					"name": "createDSalted",
					"outputs": [],
					"stateMutability": "nonpayable",
					"type": "function"
				},
				{
					"inputs": [],
					"name": "deployedAddr",
					"outputs": [
						{
							"internalType": "address",
							"name": "",
							"type": "address"
						}
					],
					"stateMutability": "view",
					"type": "function"
				},
				{
					"inputs": [
						{
							"internalType": "uint256",
							"name": "slat",
							"type": "uint256"
						},
						{
							"internalType": "uint256",
							"name": "arg",
							"type": "uint256"
						}
					],
					"name": "getAddress",
					"outputs": [
						{
							"internalType": "address",
							"name": "",
							"type": "address"
						}
					],
					"stateMutability": "view",
					"type": "function"
				},
				{
					"inputs": [
						{
							"internalType": "uint256",
							"name": "slat",
							"type": "uint256"
						}
					],
					"name": "getBytes32",
					"outputs": [
						{
							"internalType": "bytes32",
							"name": "",
							"type": "bytes32"
						}
					],
					"stateMutability": "pure",
					"type": "function"
				}
			],
			"devdoc": {
				"kind": "dev",
				"methods": {},
				"version": 1
			},
			"evm": {
				"assembly": "    /* \"code0/create2.sol\":150:812  contract Create2{... */\n  mstore(0x40, 0x80)\n  callvalue\n  dup1\n  iszero\n  tag_1\n  jumpi\n  0x00\n  dup1\n  revert\ntag_1:\n  pop\n  dataSize(sub_0)\n  dup1\n  dataOffset(sub_0)\n  0x00\n  codecopy\n  0x00\n  return\nstop\n\nsub_0: assembly {\n        /* \"code0/create2.sol\":150:812  contract Create2{... */\n      mstore(0x40, 0x80)\n      callvalue\n      dup1\n      iszero\n      tag_1\n      jumpi\n      0x00\n      dup1\n      revert\n    tag_1:\n      pop\n      jumpi(tag_2, lt(calldatasize, 0x04))\n      shr(0xe0, calldataload(0x00))\n      dup1\n      0x0bd38f2f\n      eq\n      tag_3\n      jumpi\n      dup1\n      0x24dfc9d7\n      eq\n      tag_4\n      jumpi\n      dup1\n      0x9262d759\n      eq\n      tag_5\n      jumpi\n      dup1\n      0xd1524f74\n      eq\n      tag_6\n      jumpi\n    tag_2:\n      0x00\n      dup1\n      revert\n        /* \"code0/create2.sol\":679:810  function createDSalted(bytes32 salt,uint arg)public{... */\n    tag_3:\n      tag_7\n      0x04\n      dup1\n      calldatasize\n      sub\n      dup2\n      add\n      swap1\n      tag_8\n      swap2\n      swap1\n      tag_9\n      jump\t// in\n    tag_8:\n      tag_10\n      jump\t// in\n    tag_7:\n      stop\n        /* \"code0/create2.sol\":172:269  function getBytes32(uint slat)external pure returns(bytes32){... */\n    tag_4:\n      tag_11\n      0x04\n      dup1\n      calldatasize\n      sub\n      dup2\n      add\n      swap1\n      tag_12\n      swap2\n      swap1\n      tag_13\n      jump\t// in\n    tag_12:\n      tag_14\n      jump\t// in\n    tag_11:\n      mload(0x40)\n      tag_15\n      swap2\n      swap1\n      tag_16\n      jump\t// in\n    tag_15:\n      mload(0x40)\n      dup1\n      swap2\n      sub\n      swap1\n      return\n        /* \"code0/create2.sol\":274:641  function getAddress(uint slat,uint arg) external view returns(address){... */\n    tag_5:\n      tag_17\n      0x04\n      dup1\n      calldatasize\n      sub\n      dup2\n      add\n      swap1\n      tag_18\n      swap2\n      swap1\n      tag_19\n      jump\t// in\n    tag_18:\n      tag_20\n      jump\t// in\n    tag_17:\n      mload(0x40)\n      tag_21\n      swap2\n      swap1\n      tag_22\n      jump\t// in\n    tag_21:\n      mload(0x40)\n      dup1\n      swap2\n      sub\n      swap1\n      return\n        /* \"code0/create2.sol\":646:673  address public deployedAddr */\n    tag_6:\n      tag_23\n      tag_24\n      jump\t// in\n    tag_23:\n      mload(0x40)\n      tag_25\n      swap2\n      swap1\n      tag_22\n      jump\t// in\n    tag_25:\n      mload(0x40)\n      dup1\n      swap2\n      sub\n      swap1\n      return\n        /* \"code0/create2.sol\":679:810  function createDSalted(bytes32 salt,uint arg)public{... */\n    tag_10:\n        /* \"code0/create2.sol\":740:743  D d */\n      0x00\n        /* \"code0/create2.sol\":758:762  salt */\n      dup3\n        /* \"code0/create2.sol\":764:767  arg */\n      dup3\n        /* \"code0/create2.sol\":746:768  new D{salt: salt}(arg) */\n      mload(0x40)\n      tag_27\n      swap1\n      tag_28\n      jump\t// in\n    tag_27:\n      tag_29\n      swap2\n      swap1\n      tag_30\n      jump\t// in\n    tag_29:\n      dup2\n      swap1\n      mload(0x40)\n      dup1\n      swap2\n      sub\n      swap1\n      0x00\n      create2\n      swap1\n      pop\n      dup1\n      iszero\n      dup1\n      iszero\n      tag_31\n      jumpi\n      returndatasize\n      0x00\n      dup1\n      returndatacopy\n      revert(0x00, returndatasize)\n    tag_31:\n      pop\n        /* \"code0/create2.sol\":740:768  D d = new D{salt: salt}(arg) */\n      swap1\n      pop\n        /* \"code0/create2.sol\":801:802  d */\n      dup1\n        /* \"code0/create2.sol\":778:790  deployedAddr */\n      0x00\n      dup1\n        /* \"code0/create2.sol\":778:803  deployedAddr = address(d) */\n      0x0100\n      exp\n      dup2\n      sload\n      dup2\n      0xffffffffffffffffffffffffffffffffffffffff\n      mul\n      not\n      and\n      swap1\n      dup4\n      0xffffffffffffffffffffffffffffffffffffffff\n      and\n      mul\n      or\n      swap1\n      sstore\n      pop\n        /* \"code0/create2.sol\":730:810  {... */\n      pop\n        /* \"code0/create2.sol\":679:810  function createDSalted(bytes32 salt,uint arg)public{... */\n      pop\n      pop\n      jump\t// out\n        /* \"code0/create2.sol\":172:269  function getBytes32(uint slat)external pure returns(bytes32){... */\n    tag_14:\n        /* \"code0/create2.sol\":224:231  bytes32 */\n      0x00\n        /* \"code0/create2.sol\":257:261  slat */\n      dup2\n        /* \"code0/create2.sol\":249:262  bytes32(slat) */\n      0x00\n      shl\n        /* \"code0/create2.sol\":242:262  return bytes32(slat) */\n      swap1\n      pop\n        /* \"code0/create2.sol\":172:269  function getBytes32(uint slat)external pure returns(bytes32){... */\n      swap2\n      swap1\n      pop\n      jump\t// out\n        /* \"code0/create2.sol\":274:641  function getAddress(uint slat,uint arg) external view returns(address){... */\n    tag_20:\n        /* \"code0/create2.sol\":336:343  address */\n      0x00\n        /* \"code0/create2.sol\":354:365  address add */\n      dup1\n        /* \"code0/create2.sol\":436:440  0xff */\n      0xff\n        /* \"code0/create2.sol\":429:441  bytes1(0xff) */\n      0xf8\n      shl\n        /* \"code0/create2.sol\":463:467  this */\n      address\n        /* \"code0/create2.sol\":482:486  slat */\n      dup6\n        /* \"code0/create2.sol\":544:564  type(D).creationCode */\n      mload(0x40)\n      dup1\n      0x20\n      add\n      tag_34\n      swap1\n      tag_28\n      jump\t// in\n    tag_34:\n      0x20\n      dup3\n      add\n      dup2\n      sub\n      dup3\n      mstore\n      not(0x1f)\n      0x1f\n      dup3\n      add\n      and\n      0x40\n      mstore\n      pop\n        /* \"code0/create2.sol\":582:585  arg */\n      dup7\n        /* \"code0/create2.sol\":510:599  abi.encodePacked(... */\n      add(0x20, mload(0x40))\n      tag_35\n      swap3\n      swap2\n      swap1\n      tag_36\n      jump\t// in\n    tag_35:\n      mload(0x40)\n      0x20\n      dup2\n      dup4\n      sub\n      sub\n      dup2\n      mstore\n      swap1\n      0x40\n      mstore\n        /* \"code0/create2.sol\":500:600  keccak256(abi.encodePacked(... */\n      dup1\n      mload\n      swap1\n      0x20\n      add\n      keccak256\n        /* \"code0/create2.sol\":399:610  abi.encodePacked(... */\n      add(0x20, mload(0x40))\n      tag_37\n      swap5\n      swap4\n      swap3\n      swap2\n      swap1\n      tag_38\n      jump\t// in\n    tag_37:\n      mload(0x40)\n      0x20\n      dup2\n      dup4\n      sub\n      sub\n      dup2\n      mstore\n      swap1\n      0x40\n      mstore\n        /* \"code0/create2.sol\":389:611  keccak256(abi.encodePacked(... */\n      dup1\n      mload\n      swap1\n      0x20\n      add\n      keccak256\n        /* \"code0/create2.sol\":384:612  uint(keccak256(abi.encodePacked(... */\n      0x00\n      shr\n        /* \"code0/create2.sol\":354:614  address add = address(uint160(uint(keccak256(abi.encodePacked(... */\n      swap1\n      pop\n        /* \"code0/create2.sol\":631:634  add */\n      dup1\n        /* \"code0/create2.sol\":624:634  return add */\n      swap2\n      pop\n      pop\n        /* \"code0/create2.sol\":274:641  function getAddress(uint slat,uint arg) external view returns(address){... */\n      swap3\n      swap2\n      pop\n      pop\n      jump\t// out\n        /* \"code0/create2.sol\":646:673  address public deployedAddr */\n    tag_24:\n      0x00\n      dup1\n      sload\n      swap1\n      0x0100\n      exp\n      swap1\n      div\n      0xffffffffffffffffffffffffffffffffffffffff\n      and\n      dup2\n      jump\t// out\n    tag_28:\n      dataSize(sub_0)\n      dup1\n      dataOffset(sub_0)\n      dup4\n      codecopy\n      add\n      swap1\n      jump\t// out\n        /* \"#utility.yul\":88:205   */\n    tag_40:\n        /* \"#utility.yul\":197:198   */\n      0x00\n        /* \"#utility.yul\":194:195   */\n      dup1\n        /* \"#utility.yul\":187:199   */\n      revert\n        /* \"#utility.yul\":334:411   */\n    tag_42:\n        /* \"#utility.yul\":371:378   */\n      0x00\n        /* \"#utility.yul\":400:405   */\n      dup2\n        /* \"#utility.yul\":389:405   */\n      swap1\n      pop\n        /* \"#utility.yul\":334:411   */\n      swap2\n      swap1\n      pop\n      jump\t// out\n        /* \"#utility.yul\":417:539   */\n    tag_43:\n        /* \"#utility.yul\":490:514   */\n      tag_74\n        /* \"#utility.yul\":508:513   */\n      dup2\n        /* \"#utility.yul\":490:514   */\n      tag_42\n      jump\t// in\n    tag_74:\n        /* \"#utility.yul\":483:488   */\n      dup2\n        /* \"#utility.yul\":480:515   */\n      eq\n        /* \"#utility.yul\":470:533   */\n      tag_75\n      jumpi\n        /* \"#utility.yul\":529:530   */\n      0x00\n        /* \"#utility.yul\":526:527   */\n      dup1\n        /* \"#utility.yul\":519:531   */\n      revert\n        /* \"#utility.yul\":470:533   */\n    tag_75:\n        /* \"#utility.yul\":417:539   */\n      pop\n      jump\t// out\n        /* \"#utility.yul\":545:684   */\n    tag_44:\n        /* \"#utility.yul\":591:596   */\n      0x00\n        /* \"#utility.yul\":629:635   */\n      dup2\n        /* \"#utility.yul\":616:636   */\n      calldataload\n        /* \"#utility.yul\":607:636   */\n      swap1\n      pop\n        /* \"#utility.yul\":645:678   */\n      tag_77\n        /* \"#utility.yul\":672:677   */\n      dup2\n        /* \"#utility.yul\":645:678   */\n      tag_43\n      jump\t// in\n    tag_77:\n        /* \"#utility.yul\":545:684   */\n      swap3\n      swap2\n      pop\n      pop\n      jump\t// out\n        /* \"#utility.yul\":690:767   */\n    tag_45:\n        /* \"#utility.yul\":727:734   */\n      0x00\n        /* \"#utility.yul\":756:761   */\n      dup2\n        /* \"#utility.yul\":745:761   */\n      swap1\n      pop\n        /* \"#utility.yul\":690:767   */\n      swap2\n      swap1\n      pop\n      jump\t// out\n        /* \"#utility.yul\":773:895   */\n    tag_46:\n        /* \"#utility.yul\":846:870   */\n      tag_80\n        /* \"#utility.yul\":864:869   */\n      dup2\n        /* \"#utility.yul\":846:870   */\n      tag_45\n      jump\t// in\n    tag_80:\n        /* \"#utility.yul\":839:844   */\n      dup2\n        /* \"#utility.yul\":836:871   */\n      eq\n        /* \"#utility.yul\":826:889   */\n      tag_81\n      jumpi\n        /* \"#utility.yul\":885:886   */\n      0x00\n        /* \"#utility.yul\":882:883   */\n      dup1\n        /* \"#utility.yul\":875:887   */\n      revert\n        /* \"#utility.yul\":826:889   */\n    tag_81:\n        /* \"#utility.yul\":773:895   */\n      pop\n      jump\t// out\n        /* \"#utility.yul\":901:1040   */\n    tag_47:\n        /* \"#utility.yul\":947:952   */\n      0x00\n        /* \"#utility.yul\":985:991   */\n      dup2\n        /* \"#utility.yul\":972:992   */\n      calldataload\n        /* \"#utility.yul\":963:992   */\n      swap1\n      pop\n        /* \"#utility.yul\":1001:1034   */\n      tag_83\n        /* \"#utility.yul\":1028:1033   */\n      dup2\n        /* \"#utility.yul\":1001:1034   */\n      tag_46\n      jump\t// in\n    tag_83:\n        /* \"#utility.yul\":901:1040   */\n      swap3\n      swap2\n      pop\n      pop\n      jump\t// out\n        /* \"#utility.yul\":1046:1520   */\n    tag_9:\n        /* \"#utility.yul\":1114:1120   */\n      0x00\n        /* \"#utility.yul\":1122:1128   */\n      dup1\n        /* \"#utility.yul\":1171:1173   */\n      0x40\n        /* \"#utility.yul\":1159:1168   */\n      dup4\n        /* \"#utility.yul\":1150:1157   */\n      dup6\n        /* \"#utility.yul\":1146:1169   */\n      sub\n        /* \"#utility.yul\":1142:1174   */\n      slt\n        /* \"#utility.yul\":1139:1258   */\n      iszero\n      tag_85\n      jumpi\n        /* \"#utility.yul\":1177:1256   */\n      tag_86\n      tag_40\n      jump\t// in\n    tag_86:\n        /* \"#utility.yul\":1139:1258   */\n    tag_85:\n        /* \"#utility.yul\":1297:1298   */\n      0x00\n        /* \"#utility.yul\":1322:1375   */\n      tag_87\n        /* \"#utility.yul\":1367:1374   */\n      dup6\n        /* \"#utility.yul\":1358:1364   */\n      dup3\n        /* \"#utility.yul\":1347:1356   */\n      dup7\n        /* \"#utility.yul\":1343:1365   */\n      add\n        /* \"#utility.yul\":1322:1375   */\n      tag_44\n      jump\t// in\n    tag_87:\n        /* \"#utility.yul\":1312:1375   */\n      swap3\n      pop\n        /* \"#utility.yul\":1268:1385   */\n      pop\n        /* \"#utility.yul\":1424:1426   */\n      0x20\n        /* \"#utility.yul\":1450:1503   */\n      tag_88\n        /* \"#utility.yul\":1495:1502   */\n      dup6\n        /* \"#utility.yul\":1486:1492   */\n      dup3\n        /* \"#utility.yul\":1475:1484   */\n      dup7\n        /* \"#utility.yul\":1471:1493   */\n      add\n        /* \"#utility.yul\":1450:1503   */\n      tag_47\n      jump\t// in\n    tag_88:\n        /* \"#utility.yul\":1440:1503   */\n      swap2\n      pop\n        /* \"#utility.yul\":1395:1513   */\n      pop\n        /* \"#utility.yul\":1046:1520   */\n      swap3\n      pop\n      swap3\n      swap1\n      pop\n      jump\t// out\n        /* \"#utility.yul\":1526:1855   */\n    tag_13:\n        /* \"#utility.yul\":1585:1591   */\n      0x00\n        /* \"#utility.yul\":1634:1636   */\n      0x20\n        /* \"#utility.yul\":1622:1631   */\n      dup3\n        /* \"#utility.yul\":1613:1620   */\n      dup5\n        /* \"#utility.yul\":1609:1632   */\n      sub\n        /* \"#utility.yul\":1605:1637   */\n      slt\n        /* \"#utility.yul\":1602:1721   */\n      iszero\n      tag_90\n      jumpi\n        /* \"#utility.yul\":1640:1719   */\n      tag_91\n      tag_40\n      jump\t// in\n    tag_91:\n        /* \"#utility.yul\":1602:1721   */\n    tag_90:\n        /* \"#utility.yul\":1760:1761   */\n      0x00\n        /* \"#utility.yul\":1785:1838   */\n      tag_92\n        /* \"#utility.yul\":1830:1837   */\n      dup5\n        /* \"#utility.yul\":1821:1827   */\n      dup3\n        /* \"#utility.yul\":1810:1819   */\n      dup6\n        /* \"#utility.yul\":1806:1828   */\n      add\n        /* \"#utility.yul\":1785:1838   */\n      tag_47\n      jump\t// in\n    tag_92:\n        /* \"#utility.yul\":1775:1838   */\n      swap2\n      pop\n        /* \"#utility.yul\":1731:1848   */\n      pop\n        /* \"#utility.yul\":1526:1855   */\n      swap3\n      swap2\n      pop\n      pop\n      jump\t// out\n        /* \"#utility.yul\":1861:1979   */\n    tag_48:\n        /* \"#utility.yul\":1948:1972   */\n      tag_94\n        /* \"#utility.yul\":1966:1971   */\n      dup2\n        /* \"#utility.yul\":1948:1972   */\n      tag_42\n      jump\t// in\n    tag_94:\n        /* \"#utility.yul\":1943:1946   */\n      dup3\n        /* \"#utility.yul\":1936:1973   */\n      mstore\n        /* \"#utility.yul\":1861:1979   */\n      pop\n      pop\n      jump\t// out\n        /* \"#utility.yul\":1985:2207   */\n    tag_16:\n        /* \"#utility.yul\":2078:2082   */\n      0x00\n        /* \"#utility.yul\":2116:2118   */\n      0x20\n        /* \"#utility.yul\":2105:2114   */\n      dup3\n        /* \"#utility.yul\":2101:2119   */\n      add\n        /* \"#utility.yul\":2093:2119   */\n      swap1\n      pop\n        /* \"#utility.yul\":2129:2200   */\n      tag_96\n        /* \"#utility.yul\":2197:2198   */\n      0x00\n        /* \"#utility.yul\":2186:2195   */\n      dup4\n        /* \"#utility.yul\":2182:2199   */\n      add\n        /* \"#utility.yul\":2173:2179   */\n      dup5\n        /* \"#utility.yul\":2129:2200   */\n      tag_48\n      jump\t// in\n    tag_96:\n        /* \"#utility.yul\":1985:2207   */\n      swap3\n      swap2\n      pop\n      pop\n      jump\t// out\n        /* \"#utility.yul\":2213:2687   */\n    tag_19:\n        /* \"#utility.yul\":2281:2287   */\n      0x00\n        /* \"#utility.yul\":2289:2295   */\n      dup1\n        /* \"#utility.yul\":2338:2340   */\n      0x40\n        /* \"#utility.yul\":2326:2335   */\n      dup4\n        /* \"#utility.yul\":2317:2324   */\n      dup6\n        /* \"#utility.yul\":2313:2336   */\n      sub\n        /* \"#utility.yul\":2309:2341   */\n      slt\n        /* \"#utility.yul\":2306:2425   */\n      iszero\n      tag_98\n      jumpi\n        /* \"#utility.yul\":2344:2423   */\n      tag_99\n      tag_40\n      jump\t// in\n    tag_99:\n        /* \"#utility.yul\":2306:2425   */\n    tag_98:\n        /* \"#utility.yul\":2464:2465   */\n      0x00\n        /* \"#utility.yul\":2489:2542   */\n      tag_100\n        /* \"#utility.yul\":2534:2541   */\n      dup6\n        /* \"#utility.yul\":2525:2531   */\n      dup3\n        /* \"#utility.yul\":2514:2523   */\n      dup7\n        /* \"#utility.yul\":2510:2532   */\n      add\n        /* \"#utility.yul\":2489:2542   */\n      tag_47\n      jump\t// in\n    tag_100:\n        /* \"#utility.yul\":2479:2542   */\n      swap3\n      pop\n        /* \"#utility.yul\":2435:2552   */\n      pop\n        /* \"#utility.yul\":2591:2593   */\n      0x20\n        /* \"#utility.yul\":2617:2670   */\n      tag_101\n        /* \"#utility.yul\":2662:2669   */\n      dup6\n        /* \"#utility.yul\":2653:2659   */\n      dup3\n        /* \"#utility.yul\":2642:2651   */\n      dup7\n        /* \"#utility.yul\":2638:2660   */\n      add\n        /* \"#utility.yul\":2617:2670   */\n      tag_47\n      jump\t// in\n    tag_101:\n        /* \"#utility.yul\":2607:2670   */\n      swap2\n      pop\n        /* \"#utility.yul\":2562:2680   */\n      pop\n        /* \"#utility.yul\":2213:2687   */\n      swap3\n      pop\n      swap3\n      swap1\n      pop\n      jump\t// out\n        /* \"#utility.yul\":2693:2819   */\n    tag_49:\n        /* \"#utility.yul\":2730:2737   */\n      0x00\n        /* \"#utility.yul\":2770:2812   */\n      0xffffffffffffffffffffffffffffffffffffffff\n        /* \"#utility.yul\":2763:2768   */\n      dup3\n        /* \"#utility.yul\":2759:2813   */\n      and\n        /* \"#utility.yul\":2748:2813   */\n      swap1\n      pop\n        /* \"#utility.yul\":2693:2819   */\n      swap2\n      swap1\n      pop\n      jump\t// out\n        /* \"#utility.yul\":2825:2921   */\n    tag_50:\n        /* \"#utility.yul\":2862:2869   */\n      0x00\n        /* \"#utility.yul\":2891:2915   */\n      tag_104\n        /* \"#utility.yul\":2909:2914   */\n      dup3\n        /* \"#utility.yul\":2891:2915   */\n      tag_49\n      jump\t// in\n    tag_104:\n        /* \"#utility.yul\":2880:2915   */\n      swap1\n      pop\n        /* \"#utility.yul\":2825:2921   */\n      swap2\n      swap1\n      pop\n      jump\t// out\n        /* \"#utility.yul\":2927:3045   */\n    tag_51:\n        /* \"#utility.yul\":3014:3038   */\n      tag_106\n        /* \"#utility.yul\":3032:3037   */\n      dup2\n        /* \"#utility.yul\":3014:3038   */\n      tag_50\n      jump\t// in\n    tag_106:\n        /* \"#utility.yul\":3009:3012   */\n      dup3\n        /* \"#utility.yul\":3002:3039   */\n      mstore\n        /* \"#utility.yul\":2927:3045   */\n      pop\n      pop\n      jump\t// out\n        /* \"#utility.yul\":3051:3273   */\n    tag_22:\n        /* \"#utility.yul\":3144:3148   */\n      0x00\n        /* \"#utility.yul\":3182:3184   */\n      0x20\n        /* \"#utility.yul\":3171:3180   */\n      dup3\n        /* \"#utility.yul\":3167:3185   */\n      add\n        /* \"#utility.yul\":3159:3185   */\n      swap1\n      pop\n        /* \"#utility.yul\":3195:3266   */\n      tag_108\n        /* \"#utility.yul\":3263:3264   */\n      0x00\n        /* \"#utility.yul\":3252:3261   */\n      dup4\n        /* \"#utility.yul\":3248:3265   */\n      add\n        /* \"#utility.yul\":3239:3245   */\n      dup5\n        /* \"#utility.yul\":3195:3266   */\n      tag_51\n      jump\t// in\n    tag_108:\n        /* \"#utility.yul\":3051:3273   */\n      swap3\n      swap2\n      pop\n      pop\n      jump\t// out\n        /* \"#utility.yul\":3279:3397   */\n    tag_52:\n        /* \"#utility.yul\":3366:3390   */\n      tag_110\n        /* \"#utility.yul\":3384:3389   */\n      dup2\n        /* \"#utility.yul\":3366:3390   */\n      tag_45\n      jump\t// in\n    tag_110:\n        /* \"#utility.yul\":3361:3364   */\n      dup3\n        /* \"#utility.yul\":3354:3391   */\n      mstore\n        /* \"#utility.yul\":3279:3397   */\n      pop\n      pop\n      jump\t// out\n        /* \"#utility.yul\":3403:3625   */\n    tag_30:\n        /* \"#utility.yul\":3496:3500   */\n      0x00\n        /* \"#utility.yul\":3534:3536   */\n      0x20\n        /* \"#utility.yul\":3523:3532   */\n      dup3\n        /* \"#utility.yul\":3519:3537   */\n      add\n        /* \"#utility.yul\":3511:3537   */\n      swap1\n      pop\n        /* \"#utility.yul\":3547:3618   */\n      tag_112\n        /* \"#utility.yul\":3615:3616   */\n      0x00\n        /* \"#utility.yul\":3604:3613   */\n      dup4\n        /* \"#utility.yul\":3600:3617   */\n      add\n        /* \"#utility.yul\":3591:3597   */\n      dup5\n        /* \"#utility.yul\":3547:3618   */\n      tag_52\n      jump\t// in\n    tag_112:\n        /* \"#utility.yul\":3403:3625   */\n      swap3\n      swap2\n      pop\n      pop\n      jump\t// out\n        /* \"#utility.yul\":3631:3729   */\n    tag_53:\n        /* \"#utility.yul\":3682:3688   */\n      0x00\n        /* \"#utility.yul\":3716:3721   */\n      dup2\n        /* \"#utility.yul\":3710:3722   */\n      mload\n        /* \"#utility.yul\":3700:3722   */\n      swap1\n      pop\n        /* \"#utility.yul\":3631:3729   */\n      swap2\n      swap1\n      pop\n      jump\t// out\n        /* \"#utility.yul\":3735:3882   */\n    tag_54:\n        /* \"#utility.yul\":3836:3847   */\n      0x00\n        /* \"#utility.yul\":3873:3876   */\n      dup2\n        /* \"#utility.yul\":3858:3876   */\n      swap1\n      pop\n        /* \"#utility.yul\":3735:3882   */\n      swap3\n      swap2\n      pop\n      pop\n      jump\t// out\n        /* \"#utility.yul\":3888:4195   */\n    tag_55:\n        /* \"#utility.yul\":3956:3957   */\n      0x00\n        /* \"#utility.yul\":3966:4079   */\n    tag_116:\n        /* \"#utility.yul\":3980:3986   */\n      dup4\n        /* \"#utility.yul\":3977:3978   */\n      dup2\n        /* \"#utility.yul\":3974:3987   */\n      lt\n        /* \"#utility.yul\":3966:4079   */\n      iszero\n      tag_118\n      jumpi\n        /* \"#utility.yul\":4065:4066   */\n      dup1\n        /* \"#utility.yul\":4060:4063   */\n      dup3\n        /* \"#utility.yul\":4056:4067   */\n      add\n        /* \"#utility.yul\":4050:4068   */\n      mload\n        /* \"#utility.yul\":4046:4047   */\n      dup2\n        /* \"#utility.yul\":4041:4044   */\n      dup5\n        /* \"#utility.yul\":4037:4048   */\n      add\n        /* \"#utility.yul\":4030:4069   */\n      mstore\n        /* \"#utility.yul\":4002:4004   */\n      0x20\n        /* \"#utility.yul\":3999:4000   */\n      dup2\n        /* \"#utility.yul\":3995:4005   */\n      add\n        /* \"#utility.yul\":3990:4005   */\n      swap1\n      pop\n        /* \"#utility.yul\":3966:4079   */\n      jump(tag_116)\n    tag_118:\n        /* \"#utility.yul\":4097:4103   */\n      dup4\n        /* \"#utility.yul\":4094:4095   */\n      dup2\n        /* \"#utility.yul\":4091:4104   */\n      gt\n        /* \"#utility.yul\":4088:4189   */\n      iszero\n      tag_119\n      jumpi\n        /* \"#utility.yul\":4177:4178   */\n      0x00\n        /* \"#utility.yul\":4168:4174   */\n      dup5\n        /* \"#utility.yul\":4163:4166   */\n      dup5\n        /* \"#utility.yul\":4159:4175   */\n      add\n        /* \"#utility.yul\":4152:4179   */\n      mstore\n        /* \"#utility.yul\":4088:4189   */\n    tag_119:\n        /* \"#utility.yul\":3937:4195   */\n      pop\n        /* \"#utility.yul\":3888:4195   */\n      pop\n      pop\n      pop\n      jump\t// out\n        /* \"#utility.yul\":4201:4574   */\n    tag_56:\n        /* \"#utility.yul\":4305:4308   */\n      0x00\n        /* \"#utility.yul\":4333:4371   */\n      tag_121\n        /* \"#utility.yul\":4365:4370   */\n      dup3\n        /* \"#utility.yul\":4333:4371   */\n      tag_53\n      jump\t// in\n    tag_121:\n        /* \"#utility.yul\":4387:4475   */\n      tag_122\n        /* \"#utility.yul\":4468:4474   */\n      dup2\n        /* \"#utility.yul\":4463:4466   */\n      dup6\n        /* \"#utility.yul\":4387:4475   */\n      tag_54\n      jump\t// in\n    tag_122:\n        /* \"#utility.yul\":4380:4475   */\n      swap4\n      pop\n        /* \"#utility.yul\":4484:4536   */\n      tag_123\n        /* \"#utility.yul\":4529:4535   */\n      dup2\n        /* \"#utility.yul\":4524:4527   */\n      dup6\n        /* \"#utility.yul\":4517:4521   */\n      0x20\n        /* \"#utility.yul\":4510:4515   */\n      dup7\n        /* \"#utility.yul\":4506:4522   */\n      add\n        /* \"#utility.yul\":4484:4536   */\n      tag_55\n      jump\t// in\n    tag_123:\n        /* \"#utility.yul\":4561:4567   */\n      dup1\n        /* \"#utility.yul\":4556:4559   */\n      dup5\n        /* \"#utility.yul\":4552:4568   */\n      add\n        /* \"#utility.yul\":4545:4568   */\n      swap2\n      pop\n        /* \"#utility.yul\":4309:4574   */\n      pop\n        /* \"#utility.yul\":4201:4574   */\n      swap3\n      swap2\n      pop\n      pop\n      jump\t// out\n        /* \"#utility.yul\":4580:4659   */\n    tag_57:\n        /* \"#utility.yul\":4619:4626   */\n      0x00\n        /* \"#utility.yul\":4648:4653   */\n      dup2\n        /* \"#utility.yul\":4637:4653   */\n      swap1\n      pop\n        /* \"#utility.yul\":4580:4659   */\n      swap2\n      swap1\n      pop\n      jump\t// out\n        /* \"#utility.yul\":4665:4822   */\n    tag_58:\n        /* \"#utility.yul\":4770:4815   */\n      tag_126\n        /* \"#utility.yul\":4790:4814   */\n      tag_127\n        /* \"#utility.yul\":4808:4813   */\n      dup3\n        /* \"#utility.yul\":4790:4814   */\n      tag_45\n      jump\t// in\n    tag_127:\n        /* \"#utility.yul\":4770:4815   */\n      tag_57\n      jump\t// in\n    tag_126:\n        /* \"#utility.yul\":4765:4768   */\n      dup3\n        /* \"#utility.yul\":4758:4816   */\n      mstore\n        /* \"#utility.yul\":4665:4822   */\n      pop\n      pop\n      jump\t// out\n        /* \"#utility.yul\":4828:5240   */\n    tag_36:\n        /* \"#utility.yul\":4986:4989   */\n      0x00\n        /* \"#utility.yul\":5008:5101   */\n      tag_129\n        /* \"#utility.yul\":5097:5100   */\n      dup3\n        /* \"#utility.yul\":5088:5094   */\n      dup6\n        /* \"#utility.yul\":5008:5101   */\n      tag_56\n      jump\t// in\n    tag_129:\n        /* \"#utility.yul\":5001:5101   */\n      swap2\n      pop\n        /* \"#utility.yul\":5111:5186   */\n      tag_130\n        /* \"#utility.yul\":5182:5185   */\n      dup3\n        /* \"#utility.yul\":5173:5179   */\n      dup5\n        /* \"#utility.yul\":5111:5186   */\n      tag_58\n      jump\t// in\n    tag_130:\n        /* \"#utility.yul\":5211:5213   */\n      0x20\n        /* \"#utility.yul\":5206:5209   */\n      dup3\n        /* \"#utility.yul\":5202:5214   */\n      add\n        /* \"#utility.yul\":5195:5214   */\n      swap2\n      pop\n        /* \"#utility.yul\":5231:5234   */\n      dup2\n        /* \"#utility.yul\":5224:5234   */\n      swap1\n      pop\n        /* \"#utility.yul\":4828:5240   */\n      swap4\n      swap3\n      pop\n      pop\n      pop\n      jump\t// out\n        /* \"#utility.yul\":5246:5395   */\n    tag_59:\n        /* \"#utility.yul\":5282:5289   */\n      0x00\n        /* \"#utility.yul\":5322:5388   */\n      0xff00000000000000000000000000000000000000000000000000000000000000\n        /* \"#utility.yul\":5315:5320   */\n      dup3\n        /* \"#utility.yul\":5311:5389   */\n      and\n        /* \"#utility.yul\":5300:5389   */\n      swap1\n      pop\n        /* \"#utility.yul\":5246:5395   */\n      swap2\n      swap1\n      pop\n      jump\t// out\n        /* \"#utility.yul\":5401:5479   */\n    tag_60:\n        /* \"#utility.yul\":5439:5446   */\n      0x00\n        /* \"#utility.yul\":5468:5473   */\n      dup2\n        /* \"#utility.yul\":5457:5473   */\n      swap1\n      pop\n        /* \"#utility.yul\":5401:5479   */\n      swap2\n      swap1\n      pop\n      jump\t// out\n        /* \"#utility.yul\":5485:5638   */\n    tag_61:\n        /* \"#utility.yul\":5588:5631   */\n      tag_134\n        /* \"#utility.yul\":5607:5630   */\n      tag_135\n        /* \"#utility.yul\":5624:5629   */\n      dup3\n        /* \"#utility.yul\":5607:5630   */\n      tag_59\n      jump\t// in\n    tag_135:\n        /* \"#utility.yul\":5588:5631   */\n      tag_60\n      jump\t// in\n    tag_134:\n        /* \"#utility.yul\":5583:5586   */\n      dup3\n        /* \"#utility.yul\":5576:5632   */\n      mstore\n        /* \"#utility.yul\":5485:5638   */\n      pop\n      pop\n      jump\t// out\n        /* \"#utility.yul\":5644:5738   */\n    tag_62:\n        /* \"#utility.yul\":5677:5685   */\n      0x00\n        /* \"#utility.yul\":5725:5730   */\n      dup2\n        /* \"#utility.yul\":5721:5723   */\n      0x60\n        /* \"#utility.yul\":5717:5731   */\n      shl\n        /* \"#utility.yul\":5696:5731   */\n      swap1\n      pop\n        /* \"#utility.yul\":5644:5738   */\n      swap2\n      swap1\n      pop\n      jump\t// out\n        /* \"#utility.yul\":5744:5838   */\n    tag_63:\n        /* \"#utility.yul\":5783:5790   */\n      0x00\n        /* \"#utility.yul\":5812:5832   */\n      tag_138\n        /* \"#utility.yul\":5826:5831   */\n      dup3\n        /* \"#utility.yul\":5812:5832   */\n      tag_62\n      jump\t// in\n    tag_138:\n        /* \"#utility.yul\":5801:5832   */\n      swap1\n      pop\n        /* \"#utility.yul\":5744:5838   */\n      swap2\n      swap1\n      pop\n      jump\t// out\n        /* \"#utility.yul\":5844:5944   */\n    tag_64:\n        /* \"#utility.yul\":5883:5890   */\n      0x00\n        /* \"#utility.yul\":5912:5938   */\n      tag_140\n        /* \"#utility.yul\":5932:5937   */\n      dup3\n        /* \"#utility.yul\":5912:5938   */\n      tag_63\n      jump\t// in\n    tag_140:\n        /* \"#utility.yul\":5901:5938   */\n      swap1\n      pop\n        /* \"#utility.yul\":5844:5944   */\n      swap2\n      swap1\n      pop\n      jump\t// out\n        /* \"#utility.yul\":5950:6107   */\n    tag_65:\n        /* \"#utility.yul\":6055:6100   */\n      tag_142\n        /* \"#utility.yul\":6075:6099   */\n      tag_143\n        /* \"#utility.yul\":6093:6098   */\n      dup3\n        /* \"#utility.yul\":6075:6099   */\n      tag_50\n      jump\t// in\n    tag_143:\n        /* \"#utility.yul\":6055:6100   */\n      tag_64\n      jump\t// in\n    tag_142:\n        /* \"#utility.yul\":6050:6053   */\n      dup3\n        /* \"#utility.yul\":6043:6101   */\n      mstore\n        /* \"#utility.yul\":5950:6107   */\n      pop\n      pop\n      jump\t// out\n        /* \"#utility.yul\":6113:6192   */\n    tag_66:\n        /* \"#utility.yul\":6152:6159   */\n      0x00\n        /* \"#utility.yul\":6181:6186   */\n      dup2\n        /* \"#utility.yul\":6170:6186   */\n      swap1\n      pop\n        /* \"#utility.yul\":6113:6192   */\n      swap2\n      swap1\n      pop\n      jump\t// out\n        /* \"#utility.yul\":6198:6355   */\n    tag_67:\n        /* \"#utility.yul\":6303:6348   */\n      tag_146\n        /* \"#utility.yul\":6323:6347   */\n      tag_147\n        /* \"#utility.yul\":6341:6346   */\n      dup3\n        /* \"#utility.yul\":6323:6347   */\n      tag_42\n      jump\t// in\n    tag_147:\n        /* \"#utility.yul\":6303:6348   */\n      tag_66\n      jump\t// in\n    tag_146:\n        /* \"#utility.yul\":6298:6301   */\n      dup3\n        /* \"#utility.yul\":6291:6349   */\n      mstore\n        /* \"#utility.yul\":6198:6355   */\n      pop\n      pop\n      jump\t// out\n        /* \"#utility.yul\":6361:7035   */\n    tag_38:\n        /* \"#utility.yul\":6555:6558   */\n      0x00\n        /* \"#utility.yul\":6570:6643   */\n      tag_149\n        /* \"#utility.yul\":6639:6642   */\n      dup3\n        /* \"#utility.yul\":6630:6636   */\n      dup8\n        /* \"#utility.yul\":6570:6643   */\n      tag_61\n      jump\t// in\n    tag_149:\n        /* \"#utility.yul\":6668:6669   */\n      0x01\n        /* \"#utility.yul\":6663:6666   */\n      dup3\n        /* \"#utility.yul\":6659:6670   */\n      add\n        /* \"#utility.yul\":6652:6670   */\n      swap2\n      pop\n        /* \"#utility.yul\":6680:6755   */\n      tag_150\n        /* \"#utility.yul\":6751:6754   */\n      dup3\n        /* \"#utility.yul\":6742:6748   */\n      dup7\n        /* \"#utility.yul\":6680:6755   */\n      tag_65\n      jump\t// in\n    tag_150:\n        /* \"#utility.yul\":6780:6782   */\n      0x14\n        /* \"#utility.yul\":6775:6778   */\n      dup3\n        /* \"#utility.yul\":6771:6783   */\n      add\n        /* \"#utility.yul\":6764:6783   */\n      swap2\n      pop\n        /* \"#utility.yul\":6793:6868   */\n      tag_151\n        /* \"#utility.yul\":6864:6867   */\n      dup3\n        /* \"#utility.yul\":6855:6861   */\n      dup6\n        /* \"#utility.yul\":6793:6868   */\n      tag_58\n      jump\t// in\n    tag_151:\n        /* \"#utility.yul\":6893:6895   */\n      0x20\n        /* \"#utility.yul\":6888:6891   */\n      dup3\n        /* \"#utility.yul\":6884:6896   */\n      add\n        /* \"#utility.yul\":6877:6896   */\n      swap2\n      pop\n        /* \"#utility.yul\":6906:6981   */\n      tag_152\n        /* \"#utility.yul\":6977:6980   */\n      dup3\n        /* \"#utility.yul\":6968:6974   */\n      dup5\n        /* \"#utility.yul\":6906:6981   */\n      tag_67\n      jump\t// in\n    tag_152:\n        /* \"#utility.yul\":7006:7008   */\n      0x20\n        /* \"#utility.yul\":7001:7004   */\n      dup3\n        /* \"#utility.yul\":6997:7009   */\n      add\n        /* \"#utility.yul\":6990:7009   */\n      swap2\n      pop\n        /* \"#utility.yul\":7026:7029   */\n      dup2\n        /* \"#utility.yul\":7019:7029   */\n      swap1\n      pop\n        /* \"#utility.yul\":6361:7035   */\n      swap6\n      swap5\n      pop\n      pop\n      pop\n      pop\n      pop\n      jump\t// out\n    stop\n\n    sub_0: assembly {\n            /* \"code0/create2.sol\":55:148  contract D{... */\n          mstore(0x40, 0x80)\n            /* \"code0/create2.sol\":94:145  constructor(uint _arg){... */\n          callvalue\n          dup1\n          iszero\n          tag_1\n          jumpi\n          0x00\n          dup1\n          revert\n        tag_1:\n          pop\n          mload(0x40)\n          sub(codesize, bytecodeSize)\n          dup1\n          bytecodeSize\n          dup4\n          codecopy\n          dup2\n          dup2\n          add\n          0x40\n          mstore\n          dup2\n          add\n          swap1\n          tag_2\n          swap2\n          swap1\n          tag_3\n          jump\t// in\n        tag_2:\n            /* \"code0/create2.sol\":133:137  _arg */\n          dup1\n            /* \"code0/create2.sol\":127:130  arg */\n          0x00\n            /* \"code0/create2.sol\":127:137  arg = _arg */\n          dup2\n          swap1\n          sstore\n          pop\n            /* \"code0/create2.sol\":94:145  constructor(uint _arg){... */\n          pop\n            /* \"code0/create2.sol\":55:148  contract D{... */\n          jump(tag_6)\n            /* \"#utility.yul\":88:205   */\n        tag_8:\n            /* \"#utility.yul\":197:198   */\n          0x00\n            /* \"#utility.yul\":194:195   */\n          dup1\n            /* \"#utility.yul\":187:199   */\n          revert\n            /* \"#utility.yul\":334:411   */\n        tag_10:\n            /* \"#utility.yul\":371:378   */\n          0x00\n            /* \"#utility.yul\":400:405   */\n          dup2\n            /* \"#utility.yul\":389:405   */\n          swap1\n          pop\n            /* \"#utility.yul\":334:411   */\n          swap2\n          swap1\n          pop\n          jump\t// out\n            /* \"#utility.yul\":417:539   */\n        tag_11:\n            /* \"#utility.yul\":490:514   */\n          tag_19\n            /* \"#utility.yul\":508:513   */\n          dup2\n            /* \"#utility.yul\":490:514   */\n          tag_10\n          jump\t// in\n        tag_19:\n            /* \"#utility.yul\":483:488   */\n          dup2\n            /* \"#utility.yul\":480:515   */\n          eq\n            /* \"#utility.yul\":470:533   */\n          tag_20\n          jumpi\n            /* \"#utility.yul\":529:530   */\n          0x00\n            /* \"#utility.yul\":526:527   */\n          dup1\n            /* \"#utility.yul\":519:531   */\n          revert\n            /* \"#utility.yul\":470:533   */\n        tag_20:\n            /* \"#utility.yul\":417:539   */\n          pop\n          jump\t// out\n            /* \"#utility.yul\":545:688   */\n        tag_12:\n            /* \"#utility.yul\":602:607   */\n          0x00\n            /* \"#utility.yul\":633:639   */\n          dup2\n            /* \"#utility.yul\":627:640   */\n          mload\n            /* \"#utility.yul\":618:640   */\n          swap1\n          pop\n            /* \"#utility.yul\":649:682   */\n          tag_22\n            /* \"#utility.yul\":676:681   */\n          dup2\n            /* \"#utility.yul\":649:682   */\n          tag_11\n          jump\t// in\n        tag_22:\n            /* \"#utility.yul\":545:688   */\n          swap3\n          swap2\n          pop\n          pop\n          jump\t// out\n            /* \"#utility.yul\":694:1045   */\n        tag_3:\n            /* \"#utility.yul\":764:770   */\n          0x00\n            /* \"#utility.yul\":813:815   */\n          0x20\n            /* \"#utility.yul\":801:810   */\n          dup3\n            /* \"#utility.yul\":792:799   */\n          dup5\n            /* \"#utility.yul\":788:811   */\n          sub\n            /* \"#utility.yul\":784:816   */\n          slt\n            /* \"#utility.yul\":781:900   */\n          iszero\n          tag_24\n          jumpi\n            /* \"#utility.yul\":819:898   */\n          tag_25\n          tag_8\n          jump\t// in\n        tag_25:\n            /* \"#utility.yul\":781:900   */\n        tag_24:\n            /* \"#utility.yul\":939:940   */\n          0x00\n            /* \"#utility.yul\":964:1028   */\n          tag_26\n            /* \"#utility.yul\":1020:1027   */\n          dup5\n            /* \"#utility.yul\":1011:1017   */\n          dup3\n            /* \"#utility.yul\":1000:1009   */\n          dup6\n            /* \"#utility.yul\":996:1018   */\n          add\n            /* \"#utility.yul\":964:1028   */\n          tag_12\n          jump\t// in\n        tag_26:\n            /* \"#utility.yul\":954:1028   */\n          swap2\n          pop\n            /* \"#utility.yul\":910:1038   */\n          pop\n            /* \"#utility.yul\":694:1045   */\n          swap3\n          swap2\n          pop\n          pop\n          jump\t// out\n            /* \"code0/create2.sol\":55:148  contract D{... */\n        tag_6:\n          dataSize(sub_0)\n          dup1\n          dataOffset(sub_0)\n          0x00\n          codecopy\n          0x00\n          return\n        stop\n\n        sub_0: assembly {\n                /* \"code0/create2.sol\":55:148  contract D{... */\n              mstore(0x40, 0x80)\n              callvalue\n              dup1\n              iszero\n              tag_1\n              jumpi\n              0x00\n              dup1\n              revert\n            tag_1:\n              pop\n              jumpi(tag_2, lt(calldatasize, 0x04))\n              shr(0xe0, calldataload(0x00))\n              dup1\n              0x7435e911\n              eq\n              tag_3\n              jumpi\n            tag_2:\n              0x00\n              dup1\n              revert\n                /* \"code0/create2.sol\":72:87  uint public arg */\n            tag_3:\n              tag_4\n              tag_5\n              jump\t// in\n            tag_4:\n              mload(0x40)\n              tag_6\n              swap2\n              swap1\n              tag_7\n              jump\t// in\n            tag_6:\n              mload(0x40)\n              dup1\n              swap2\n              sub\n              swap1\n              return\n            tag_5:\n              sload(0x00)\n              dup2\n              jump\t// out\n                /* \"#utility.yul\":7:84   */\n            tag_8:\n                /* \"#utility.yul\":44:51   */\n              0x00\n                /* \"#utility.yul\":73:78   */\n              dup2\n                /* \"#utility.yul\":62:78   */\n              swap1\n              pop\n                /* \"#utility.yul\":7:84   */\n              swap2\n              swap1\n              pop\n              jump\t// out\n                /* \"#utility.yul\":90:208   */\n            tag_9:\n                /* \"#utility.yul\":177:201   */\n              tag_13\n                /* \"#utility.yul\":195:200   */\n              dup2\n                /* \"#utility.yul\":177:201   */\n              tag_8\n              jump\t// in\n            tag_13:\n                /* \"#utility.yul\":172:175   */\n              dup3\n                /* \"#utility.yul\":165:202   */\n              mstore\n                /* \"#utility.yul\":90:208   */\n              pop\n              pop\n              jump\t// out\n                /* \"#utility.yul\":214:436   */\n            tag_7:\n                /* \"#utility.yul\":307:311   */\n              0x00\n                /* \"#utility.yul\":345:347   */\n              0x20\n                /* \"#utility.yul\":334:343   */\n              dup3\n                /* \"#utility.yul\":330:348   */\n              add\n                /* \"#utility.yul\":322:348   */\n              swap1\n              pop\n                /* \"#utility.yul\":358:429   */\n              tag_15\n                /* \"#utility.yul\":426:427   */\n              0x00\n                /* \"#utility.yul\":415:424   */\n              dup4\n                /* \"#utility.yul\":411:428   */\n              add\n                /* \"#utility.yul\":402:408   */\n              dup5\n                /* \"#utility.yul\":358:429   */\n              tag_9\n              jump\t// in\n            tag_15:\n                /* \"#utility.yul\":214:436   */\n              swap3\n              swap2\n              pop\n              pop\n              jump\t// out\n\n            auxdata: 0xa26469706673582212207cee53d0fbce0bc6c1d9f7407e88a93813b8dffc34eb2893a6a753f4c2de64dd64736f6c634300080f0033\n        }\n    }\n\n    auxdata: 0xa264697066735822122039255fafcc64f2f0d6f24ca9d9957e357da3450acb383b5690f40b3e44bb06b664736f6c634300080f0033\n}\n",
				"bytecode": {
					"linkReferences": {},
					"object": "608060405234801561001057600080fd5b5061076c806100206000396000f3fe608060405234801561001057600080fd5b506004361061004c5760003560e01c80630bd38f2f1461005157806324dfc9d71461006d5780639262d7591461009d578063d1524f74146100cd575b600080fd5b61006b600480360381019061006691906102aa565b6100eb565b005b610087600480360381019061008291906102ea565b61016d565b6040516100949190610326565b60405180910390f35b6100b760048036038101906100b29190610341565b61017a565b6040516100c491906103c2565b60405180910390f35b6100d5610208565b6040516100e291906103c2565b60405180910390f35b600082826040516100fb9061022c565b61010591906103ec565b8190604051809103906000f5905080158015610125573d6000803e3d6000fd5b509050806000806101000a81548173ffffffffffffffffffffffffffffffffffffffff021916908373ffffffffffffffffffffffffffffffffffffffff160217905550505050565b60008160001b9050919050565b60008060ff60f81b3085604051806020016101949061022c565b6020820181038252601f19601f82011660405250866040516020016101ba9291906104a2565b604051602081830303815290604052805190602001206040516020016101e39493929190610580565b6040516020818303038152906040528051906020012060001c90508091505092915050565b60008054906101000a900473ffffffffffffffffffffffffffffffffffffffff1681565b610168806105cf83390190565b600080fd5b6000819050919050565b6102518161023e565b811461025c57600080fd5b50565b60008135905061026e81610248565b92915050565b6000819050919050565b61028781610274565b811461029257600080fd5b50565b6000813590506102a48161027e565b92915050565b600080604083850312156102c1576102c0610239565b5b60006102cf8582860161025f565b92505060206102e085828601610295565b9150509250929050565b600060208284031215610300576102ff610239565b5b600061030e84828501610295565b91505092915050565b6103208161023e565b82525050565b600060208201905061033b6000830184610317565b92915050565b6000806040838503121561035857610357610239565b5b600061036685828601610295565b925050602061037785828601610295565b9150509250929050565b600073ffffffffffffffffffffffffffffffffffffffff82169050919050565b60006103ac82610381565b9050919050565b6103bc816103a1565b82525050565b60006020820190506103d760008301846103b3565b92915050565b6103e681610274565b82525050565b600060208201905061040160008301846103dd565b92915050565b600081519050919050565b600081905092915050565b60005b8381101561043b578082015181840152602081019050610420565b8381111561044a576000848401525b50505050565b600061045b82610407565b6104658185610412565b935061047581856020860161041d565b80840191505092915050565b6000819050919050565b61049c61049782610274565b610481565b82525050565b60006104ae8285610450565b91506104ba828461048b565b6020820191508190509392505050565b60007fff0000000000000000000000000000000000000000000000000000000000000082169050919050565b6000819050919050565b61051161050c826104ca565b6104f6565b82525050565b60008160601b9050919050565b600061052f82610517565b9050919050565b600061054182610524565b9050919050565b610559610554826103a1565b610536565b82525050565b6000819050919050565b61057a6105758261023e565b61055f565b82525050565b600061058c8287610500565b60018201915061059c8286610548565b6014820191506105ac828561048b565b6020820191506105bc8284610569565b6020820191508190509594505050505056fe608060405234801561001057600080fd5b506040516101683803806101688339818101604052810190610032919061007a565b80600081905550506100a7565b600080fd5b6000819050919050565b61005781610044565b811461006257600080fd5b50565b6000815190506100748161004e565b92915050565b6000602082840312156100905761008f61003f565b5b600061009e84828501610065565b91505092915050565b60b3806100b56000396000f3fe6080604052348015600f57600080fd5b506004361060285760003560e01c80637435e91114602d575b600080fd5b60336047565b604051603e91906064565b60405180910390f35b60005481565b6000819050919050565b605e81604d565b82525050565b6000602082019050607760008301846057565b9291505056fea26469706673582212207cee53d0fbce0bc6c1d9f7407e88a93813b8dffc34eb2893a6a753f4c2de64dd64736f6c634300080f0033a264697066735822122039255fafcc64f2f0d6f24ca9d9957e357da3450acb383b5690f40b3e44bb06b664736f6c634300080f0033",
					"opcodes": "PUSH1 0x80 PUSH1 0x40 MSTORE CALLVALUE DUP1 ISZERO PUSH2 0x10 JUMPI PUSH1 0x0 DUP1 REVERT JUMPDEST POP PUSH2 0x76C DUP1 PUSH2 0x20 PUSH1 0x0 CODECOPY PUSH1 0x0 RETURN INVALID PUSH1 0x80 PUSH1 0x40 MSTORE CALLVALUE DUP1 ISZERO PUSH2 0x10 JUMPI PUSH1 0x0 DUP1 REVERT JUMPDEST POP PUSH1 0x4 CALLDATASIZE LT PUSH2 0x4C JUMPI PUSH1 0x0 CALLDATALOAD PUSH1 0xE0 SHR DUP1 PUSH4 0xBD38F2F EQ PUSH2 0x51 JUMPI DUP1 PUSH4 0x24DFC9D7 EQ PUSH2 0x6D JUMPI DUP1 PUSH4 0x9262D759 EQ PUSH2 0x9D JUMPI DUP1 PUSH4 0xD1524F74 EQ PUSH2 0xCD JUMPI JUMPDEST PUSH1 0x0 DUP1 REVERT JUMPDEST PUSH2 0x6B PUSH1 0x4 DUP1 CALLDATASIZE SUB DUP2 ADD SWAP1 PUSH2 0x66 SWAP2 SWAP1 PUSH2 0x2AA JUMP JUMPDEST PUSH2 0xEB JUMP JUMPDEST STOP JUMPDEST PUSH2 0x87 PUSH1 0x4 DUP1 CALLDATASIZE SUB DUP2 ADD SWAP1 PUSH2 0x82 SWAP2 SWAP1 PUSH2 0x2EA JUMP JUMPDEST PUSH2 0x16D JUMP JUMPDEST PUSH1 0x40 MLOAD PUSH2 0x94 SWAP2 SWAP1 PUSH2 0x326 JUMP JUMPDEST PUSH1 0x40 MLOAD DUP1 SWAP2 SUB SWAP1 RETURN JUMPDEST PUSH2 0xB7 PUSH1 0x4 DUP1 CALLDATASIZE SUB DUP2 ADD SWAP1 PUSH2 0xB2 SWAP2 SWAP1 PUSH2 0x341 JUMP JUMPDEST PUSH2 0x17A JUMP JUMPDEST PUSH1 0x40 MLOAD PUSH2 0xC4 SWAP2 SWAP1 PUSH2 0x3C2 JUMP JUMPDEST PUSH1 0x40 MLOAD DUP1 SWAP2 SUB SWAP1 RETURN JUMPDEST PUSH2 0xD5 PUSH2 0x208 JUMP JUMPDEST PUSH1 0x40 MLOAD PUSH2 0xE2 SWAP2 SWAP1 PUSH2 0x3C2 JUMP JUMPDEST PUSH1 0x40 MLOAD DUP1 SWAP2 SUB SWAP1 RETURN JUMPDEST PUSH1 0x0 DUP3 DUP3 PUSH1 0x40 MLOAD PUSH2 0xFB SWAP1 PUSH2 0x22C JUMP JUMPDEST PUSH2 0x105 SWAP2 SWAP1 PUSH2 0x3EC JUMP JUMPDEST DUP2 SWAP1 PUSH1 0x40 MLOAD DUP1 SWAP2 SUB SWAP1 PUSH1 0x0 CREATE2 SWAP1 POP DUP1 ISZERO DUP1 ISZERO PUSH2 0x125 JUMPI RETURNDATASIZE PUSH1 0x0 DUP1 RETURNDATACOPY RETURNDATASIZE PUSH1 0x0 REVERT JUMPDEST POP SWAP1 POP DUP1 PUSH1 0x0 DUP1 PUSH2 0x100 EXP DUP2 SLOAD DUP2 PUSH20 0xFFFFFFFFFFFFFFFFFFFFFFFFFFFFFFFFFFFFFFFF MUL NOT AND SWAP1 DUP4 PUSH20 0xFFFFFFFFFFFFFFFFFFFFFFFFFFFFFFFFFFFFFFFF AND MUL OR SWAP1 SSTORE POP POP POP POP JUMP JUMPDEST PUSH1 0x0 DUP2 PUSH1 0x0 SHL SWAP1 POP SWAP2 SWAP1 POP JUMP JUMPDEST PUSH1 0x0 DUP1 PUSH1 0xFF PUSH1 0xF8 SHL ADDRESS DUP6 PUSH1 0x40 MLOAD DUP1 PUSH1 0x20 ADD PUSH2 0x194 SWAP1 PUSH2 0x22C JUMP JUMPDEST PUSH1 0x20 DUP3 ADD DUP2 SUB DUP3 MSTORE PUSH1 0x1F NOT PUSH1 0x1F DUP3 ADD AND PUSH1 0x40 MSTORE POP DUP7 PUSH1 0x40 MLOAD PUSH1 0x20 ADD PUSH2 0x1BA SWAP3 SWAP2 SWAP1 PUSH2 0x4A2 JUMP JUMPDEST PUSH1 0x40 MLOAD PUSH1 0x20 DUP2 DUP4 SUB SUB DUP2 MSTORE SWAP1 PUSH1 0x40 MSTORE DUP1 MLOAD SWAP1 PUSH1 0x20 ADD KECCAK256 PUSH1 0x40 MLOAD PUSH1 0x20 ADD PUSH2 0x1E3 SWAP5 SWAP4 SWAP3 SWAP2 SWAP1 PUSH2 0x580 JUMP JUMPDEST PUSH1 0x40 MLOAD PUSH1 0x20 DUP2 DUP4 SUB SUB DUP2 MSTORE SWAP1 PUSH1 0x40 MSTORE DUP1 MLOAD SWAP1 PUSH1 0x20 ADD KECCAK256 PUSH1 0x0 SHR SWAP1 POP DUP1 SWAP2 POP POP SWAP3 SWAP2 POP POP JUMP JUMPDEST PUSH1 0x0 DUP1 SLOAD SWAP1 PUSH2 0x100 EXP SWAP1 DIV PUSH20 0xFFFFFFFFFFFFFFFFFFFFFFFFFFFFFFFFFFFFFFFF AND DUP2 JUMP JUMPDEST PUSH2 0x168 DUP1 PUSH2 0x5CF DUP4 CODECOPY ADD SWAP1 JUMP JUMPDEST PUSH1 0x0 DUP1 REVERT JUMPDEST PUSH1 0x0 DUP2 SWAP1 POP SWAP2 SWAP1 POP JUMP JUMPDEST PUSH2 0x251 DUP2 PUSH2 0x23E JUMP JUMPDEST DUP2 EQ PUSH2 0x25C JUMPI PUSH1 0x0 DUP1 REVERT JUMPDEST POP JUMP JUMPDEST PUSH1 0x0 DUP2 CALLDATALOAD SWAP1 POP PUSH2 0x26E DUP2 PUSH2 0x248 JUMP JUMPDEST SWAP3 SWAP2 POP POP JUMP JUMPDEST PUSH1 0x0 DUP2 SWAP1 POP SWAP2 SWAP1 POP JUMP JUMPDEST PUSH2 0x287 DUP2 PUSH2 0x274 JUMP JUMPDEST DUP2 EQ PUSH2 0x292 JUMPI PUSH1 0x0 DUP1 REVERT JUMPDEST POP JUMP JUMPDEST PUSH1 0x0 DUP2 CALLDATALOAD SWAP1 POP PUSH2 0x2A4 DUP2 PUSH2 0x27E JUMP JUMPDEST SWAP3 SWAP2 POP POP JUMP JUMPDEST PUSH1 0x0 DUP1 PUSH1 0x40 DUP4 DUP6 SUB SLT ISZERO PUSH2 0x2C1 JUMPI PUSH2 0x2C0 PUSH2 0x239 JUMP JUMPDEST JUMPDEST PUSH1 0x0 PUSH2 0x2CF DUP6 DUP3 DUP7 ADD PUSH2 0x25F JUMP JUMPDEST SWAP3 POP POP PUSH1 0x20 PUSH2 0x2E0 DUP6 DUP3 DUP7 ADD PUSH2 0x295 JUMP JUMPDEST SWAP2 POP POP SWAP3 POP SWAP3 SWAP1 POP JUMP JUMPDEST PUSH1 0x0 PUSH1 0x20 DUP3 DUP5 SUB SLT ISZERO PUSH2 0x300 JUMPI PUSH2 0x2FF PUSH2 0x239 JUMP JUMPDEST JUMPDEST PUSH1 0x0 PUSH2 0x30E DUP5 DUP3 DUP6 ADD PUSH2 0x295 JUMP JUMPDEST SWAP2 POP POP SWAP3 SWAP2 POP POP JUMP JUMPDEST PUSH2 0x320 DUP2 PUSH2 0x23E JUMP JUMPDEST DUP3 MSTORE POP POP JUMP JUMPDEST PUSH1 0x0 PUSH1 0x20 DUP3 ADD SWAP1 POP PUSH2 0x33B PUSH1 0x0 DUP4 ADD DUP5 PUSH2 0x317 JUMP JUMPDEST SWAP3 SWAP2 POP POP JUMP JUMPDEST PUSH1 0x0 DUP1 PUSH1 0x40 DUP4 DUP6 SUB SLT ISZERO PUSH2 0x358 JUMPI PUSH2 0x357 PUSH2 0x239 JUMP JUMPDEST JUMPDEST PUSH1 0x0 PUSH2 0x366 DUP6 DUP3 DUP7 ADD PUSH2 0x295 JUMP JUMPDEST SWAP3 POP POP PUSH1 0x20 PUSH2 0x377 DUP6 DUP3 DUP7 ADD PUSH2 0x295 JUMP JUMPDEST SWAP2 POP POP SWAP3 POP SWAP3 SWAP1 POP JUMP JUMPDEST PUSH1 0x0 PUSH20 0xFFFFFFFFFFFFFFFFFFFFFFFFFFFFFFFFFFFFFFFF DUP3 AND SWAP1 POP SWAP2 SWAP1 POP JUMP JUMPDEST PUSH1 0x0 PUSH2 0x3AC DUP3 PUSH2 0x381 JUMP JUMPDEST SWAP1 POP SWAP2 SWAP1 POP JUMP JUMPDEST PUSH2 0x3BC DUP2 PUSH2 0x3A1 JUMP JUMPDEST DUP3 MSTORE POP POP JUMP JUMPDEST PUSH1 0x0 PUSH1 0x20 DUP3 ADD SWAP1 POP PUSH2 0x3D7 PUSH1 0x0 DUP4 ADD DUP5 PUSH2 0x3B3 JUMP JUMPDEST SWAP3 SWAP2 POP POP JUMP JUMPDEST PUSH2 0x3E6 DUP2 PUSH2 0x274 JUMP JUMPDEST DUP3 MSTORE POP POP JUMP JUMPDEST PUSH1 0x0 PUSH1 0x20 DUP3 ADD SWAP1 POP PUSH2 0x401 PUSH1 0x0 DUP4 ADD DUP5 PUSH2 0x3DD JUMP JUMPDEST SWAP3 SWAP2 POP POP JUMP JUMPDEST PUSH1 0x0 DUP2 MLOAD SWAP1 POP SWAP2 SWAP1 POP JUMP JUMPDEST PUSH1 0x0 DUP2 SWAP1 POP SWAP3 SWAP2 POP POP JUMP JUMPDEST PUSH1 0x0 JUMPDEST DUP4 DUP2 LT ISZERO PUSH2 0x43B JUMPI DUP1 DUP3 ADD MLOAD DUP2 DUP5 ADD MSTORE PUSH1 0x20 DUP2 ADD SWAP1 POP PUSH2 0x420 JUMP JUMPDEST DUP4 DUP2 GT ISZERO PUSH2 0x44A JUMPI PUSH1 0x0 DUP5 DUP5 ADD MSTORE JUMPDEST POP POP POP POP JUMP JUMPDEST PUSH1 0x0 PUSH2 0x45B DUP3 PUSH2 0x407 JUMP JUMPDEST PUSH2 0x465 DUP2 DUP6 PUSH2 0x412 JUMP JUMPDEST SWAP4 POP PUSH2 0x475 DUP2 DUP6 PUSH1 0x20 DUP7 ADD PUSH2 0x41D JUMP JUMPDEST DUP1 DUP5 ADD SWAP2 POP POP SWAP3 SWAP2 POP POP JUMP JUMPDEST PUSH1 0x0 DUP2 SWAP1 POP SWAP2 SWAP1 POP JUMP JUMPDEST PUSH2 0x49C PUSH2 0x497 DUP3 PUSH2 0x274 JUMP JUMPDEST PUSH2 0x481 JUMP JUMPDEST DUP3 MSTORE POP POP JUMP JUMPDEST PUSH1 0x0 PUSH2 0x4AE DUP3 DUP6 PUSH2 0x450 JUMP JUMPDEST SWAP2 POP PUSH2 0x4BA DUP3 DUP5 PUSH2 0x48B JUMP JUMPDEST PUSH1 0x20 DUP3 ADD SWAP2 POP DUP2 SWAP1 POP SWAP4 SWAP3 POP POP POP JUMP JUMPDEST PUSH1 0x0 PUSH32 0xFF00000000000000000000000000000000000000000000000000000000000000 DUP3 AND SWAP1 POP SWAP2 SWAP1 POP JUMP JUMPDEST PUSH1 0x0 DUP2 SWAP1 POP SWAP2 SWAP1 POP JUMP JUMPDEST PUSH2 0x511 PUSH2 0x50C DUP3 PUSH2 0x4CA JUMP JUMPDEST PUSH2 0x4F6 JUMP JUMPDEST DUP3 MSTORE POP POP JUMP JUMPDEST PUSH1 0x0 DUP2 PUSH1 0x60 SHL SWAP1 POP SWAP2 SWAP1 POP JUMP JUMPDEST PUSH1 0x0 PUSH2 0x52F DUP3 PUSH2 0x517 JUMP JUMPDEST SWAP1 POP SWAP2 SWAP1 POP JUMP JUMPDEST PUSH1 0x0 PUSH2 0x541 DUP3 PUSH2 0x524 JUMP JUMPDEST SWAP1 POP SWAP2 SWAP1 POP JUMP JUMPDEST PUSH2 0x559 PUSH2 0x554 DUP3 PUSH2 0x3A1 JUMP JUMPDEST PUSH2 0x536 JUMP JUMPDEST DUP3 MSTORE POP POP JUMP JUMPDEST PUSH1 0x0 DUP2 SWAP1 POP SWAP2 SWAP1 POP JUMP JUMPDEST PUSH2 0x57A PUSH2 0x575 DUP3 PUSH2 0x23E JUMP JUMPDEST PUSH2 0x55F JUMP JUMPDEST DUP3 MSTORE POP POP JUMP JUMPDEST PUSH1 0x0 PUSH2 0x58C DUP3 DUP8 PUSH2 0x500 JUMP JUMPDEST PUSH1 0x1 DUP3 ADD SWAP2 POP PUSH2 0x59C DUP3 DUP7 PUSH2 0x548 JUMP JUMPDEST PUSH1 0x14 DUP3 ADD SWAP2 POP PUSH2 0x5AC DUP3 DUP6 PUSH2 0x48B JUMP JUMPDEST PUSH1 0x20 DUP3 ADD SWAP2 POP PUSH2 0x5BC DUP3 DUP5 PUSH2 0x569 JUMP JUMPDEST PUSH1 0x20 DUP3 ADD SWAP2 POP DUP2 SWAP1 POP SWAP6 SWAP5 POP POP POP POP POP JUMP INVALID PUSH1 0x80 PUSH1 0x40 MSTORE CALLVALUE DUP1 ISZERO PUSH2 0x10 JUMPI PUSH1 0x0 DUP1 REVERT JUMPDEST POP PUSH1 0x40 MLOAD PUSH2 0x168 CODESIZE SUB DUP1 PUSH2 0x168 DUP4 CODECOPY DUP2 DUP2 ADD PUSH1 0x40 MSTORE DUP2 ADD SWAP1 PUSH2 0x32 SWAP2 SWAP1 PUSH2 0x7A JUMP JUMPDEST DUP1 PUSH1 0x0 DUP2 SWAP1 SSTORE POP POP PUSH2 0xA7 JUMP JUMPDEST PUSH1 0x0 DUP1 REVERT JUMPDEST PUSH1 0x0 DUP2 SWAP1 POP SWAP2 SWAP1 POP JUMP JUMPDEST PUSH2 0x57 DUP2 PUSH2 0x44 JUMP JUMPDEST DUP2 EQ PUSH2 0x62 JUMPI PUSH1 0x0 DUP1 REVERT JUMPDEST POP JUMP JUMPDEST PUSH1 0x0 DUP2 MLOAD SWAP1 POP PUSH2 0x74 DUP2 PUSH2 0x4E JUMP JUMPDEST SWAP3 SWAP2 POP POP JUMP JUMPDEST PUSH1 0x0 PUSH1 0x20 DUP3 DUP5 SUB SLT ISZERO PUSH2 0x90 JUMPI PUSH2 0x8F PUSH2 0x3F JUMP JUMPDEST JUMPDEST PUSH1 0x0 PUSH2 0x9E DUP5 DUP3 DUP6 ADD PUSH2 0x65 JUMP JUMPDEST SWAP2 POP POP SWAP3 SWAP2 POP POP JUMP JUMPDEST PUSH1 0xB3 DUP1 PUSH2 0xB5 PUSH1 0x0 CODECOPY PUSH1 0x0 RETURN INVALID PUSH1 0x80 PUSH1 0x40 MSTORE CALLVALUE DUP1 ISZERO PUSH1 0xF JUMPI PUSH1 0x0 DUP1 REVERT JUMPDEST POP PUSH1 0x4 CALLDATASIZE LT PUSH1 0x28 JUMPI PUSH1 0x0 CALLDATALOAD PUSH1 0xE0 SHR DUP1 PUSH4 0x7435E911 EQ PUSH1 0x2D JUMPI JUMPDEST PUSH1 0x0 DUP1 REVERT JUMPDEST PUSH1 0x33 PUSH1 0x47 JUMP JUMPDEST PUSH1 0x40 MLOAD PUSH1 0x3E SWAP2 SWAP1 PUSH1 0x64 JUMP JUMPDEST PUSH1 0x40 MLOAD DUP1 SWAP2 SUB SWAP1 RETURN JUMPDEST PUSH1 0x0 SLOAD DUP2 JUMP JUMPDEST PUSH1 0x0 DUP2 SWAP1 POP SWAP2 SWAP1 POP JUMP JUMPDEST PUSH1 0x5E DUP2 PUSH1 0x4D JUMP JUMPDEST DUP3 MSTORE POP POP JUMP JUMPDEST PUSH1 0x0 PUSH1 0x20 DUP3 ADD SWAP1 POP PUSH1 0x77 PUSH1 0x0 DUP4 ADD DUP5 PUSH1 0x57 JUMP JUMPDEST SWAP3 SWAP2 POP POP JUMP INVALID LOG2 PUSH5 0x6970667358 0x22 SLT KECCAK256 PUSH29 0xEE53D0FBCE0BC6C1D9F7407E88A93813B8DFFC34EB2893A6A753F4C2DE PUSH5 0xDD64736F6C PUSH4 0x4300080F STOP CALLER LOG2 PUSH5 0x6970667358 0x22 SLT KECCAK256 CODECOPY 0x25 0x5F 0xAF 0xCC PUSH5 0xF2F0D6F24C 0xA9 0xD9 SWAP6 PUSH31 0x357DA3450ACB383B5690F40B3E44BB06B664736F6C634300080F0033000000 "
				},
				"gasEstimates": {
					"creation": {
						"codeDepositCost": "380000",
						"executionCost": "418",
						"totalCost": "380418"
					},
					"external": {
						"createDSalted(bytes32,uint256)": "infinite",
						"deployedAddr()": "2555",
						"getAddress(uint256,uint256)": "infinite",
						"getBytes32(uint256)": "608"
					}
				},
				"methodIdentifiers": {
					"createDSalted(bytes32,uint256)": "0bd38f2f",
					"deployedAddr()": "d1524f74",
					"getAddress(uint256,uint256)": "9262d759",
					"getBytes32(uint256)": "24dfc9d7"
				}
			},
			"storageLayout": {
				"storage": [
					{
						"astId": 77,
						"contract": "code0/create2.sol:Create2",
						"label": "deployedAddr",
						"offset": 0,
						"slot": "0",
						"type": "t_address"
					}
				],
				"types": {
					"t_address": {
						"encoding": "inplace",
						"label": "address",
						"numberOfBytes": "20"
					}
				}
			},
			"userdoc": {
				"kind": "user",
				"methods": {},
				"version": 1
			}
		}
	}
}