{
	"code1/safemath.sol": {
		"safemath": {
			"abi": [
				{
					"inputs": [],
					"name": "testWithNoUncheck",
					"outputs": [
						{
							"internalType": "uint256",
							"name": "",
							"type": "uint256"
						}
					],
					"stateMutability": "pure",
					"type": "function"
				}
			],
			"devdoc": {
				"kind": "dev",
				"methods": {},
				"version": 1
			},
			"evm": {
				"assembly": "    /* \"code1/safemath.sol\":23:160  contract safemath{... */\n  mstore(0x40, 0x80)\n  callvalue\n  dup1\n  iszero\n  tag_1\n  jumpi\n  0x00\n  dup1\n  revert\ntag_1:\n  pop\n  dataSize(sub_0)\n  dup1\n  dataOffset(sub_0)\n  0x00\n  codecopy\n  0x00\n  return\nstop\n\nsub_0: assembly {\n        /* \"code1/safemath.sol\":23:160  contract safemath{... */\n      mstore(0x40, 0x80)\n      callvalue\n      dup1\n      iszero\n      tag_1\n      jumpi\n      0x00\n      dup1\n      revert\n    tag_1:\n      pop\n      jumpi(tag_2, lt(calldatasize, 0x04))\n      shr(0xe0, calldataload(0x00))\n      dup1\n      0x36d79ce0\n      eq\n      tag_3\n      jumpi\n    tag_2:\n      0x00\n      dup1\n      revert\n        /* \"code1/safemath.sol\":45:154  function testWithNoUncheck() public pure returns(uint) {... */\n    tag_3:\n      tag_4\n      tag_5\n      jump\t// in\n    tag_4:\n      mload(0x40)\n      tag_6\n      swap2\n      swap1\n      tag_7\n      jump\t// in\n    tag_6:\n      mload(0x40)\n      dup1\n      swap2\n      sub\n      swap1\n      return\n    tag_5:\n        /* \"code1/safemath.sol\":94:98  uint */\n      0x00\n        /* \"code1/safemath.sol\":109:115  uint a */\n      dup1\n        /* \"code1/safemath.sol\":118:119  0 */\n      0x00\n        /* \"code1/safemath.sol\":109:119  uint a = 0 */\n      swap1\n      pop\n        /* \"code1/safemath.sol\":128:131  a-- */\n      dup1\n      dup1\n      tag_9\n      swap1\n      tag_10\n      jump\t// in\n    tag_9:\n      swap2\n      pop\n      pop\n        /* \"code1/safemath.sol\":147:148  a */\n      dup1\n        /* \"code1/safemath.sol\":140:148  return a */\n      swap2\n      pop\n      pop\n        /* \"code1/safemath.sol\":45:154  function testWithNoUncheck() public pure returns(uint) {... */\n      swap1\n      jump\t// out\n        /* \"#utility.yul\":7:84   */\n    tag_11:\n        /* \"#utility.yul\":44:51   */\n      0x00\n        /* \"#utility.yul\":73:78   */\n      dup2\n        /* \"#utility.yul\":62:78   */\n      swap1\n      pop\n        /* \"#utility.yul\":7:84   */\n      swap2\n      swap1\n      pop\n      jump\t// out\n        /* \"#utility.yul\":90:208   */\n    tag_12:\n        /* \"#utility.yul\":177:201   */\n      tag_17\n        /* \"#utility.yul\":195:200   */\n      dup2\n        /* \"#utility.yul\":177:201   */\n      tag_11\n      jump\t// in\n    tag_17:\n        /* \"#utility.yul\":172:175   */\n      dup3\n        /* \"#utility.yul\":165:202   */\n      mstore\n        /* \"#utility.yul\":90:208   */\n      pop\n      pop\n      jump\t// out\n        /* \"#utility.yul\":214:436   */\n    tag_7:\n        /* \"#utility.yul\":307:311   */\n      0x00\n        /* \"#utility.yul\":345:347   */\n      0x20\n        /* \"#utility.yul\":334:343   */\n      dup3\n        /* \"#utility.yul\":330:348   */\n      add\n        /* \"#utility.yul\":322:348   */\n      swap1\n      pop\n        /* \"#utility.yul\":358:429   */\n      tag_19\n        /* \"#utility.yul\":426:427   */\n      0x00\n        /* \"#utility.yul\":415:424   */\n      dup4\n        /* \"#utility.yul\":411:428   */\n      add\n        /* \"#utility.yul\":402:408   */\n      dup5\n        /* \"#utility.yul\":358:429   */\n      tag_12\n      jump\t// in\n    tag_19:\n        /* \"#utility.yul\":214:436   */\n      swap3\n      swap2\n      pop\n      pop\n      jump\t// out\n        /* \"#utility.yul\":442:622   */\n    tag_13:\n        /* \"#utility.yul\":490:567   */\n      0x4e487b7100000000000000000000000000000000000000000000000000000000\n        /* \"#utility.yul\":487:488   */\n      0x00\n        /* \"#utility.yul\":480:568   */\n      mstore\n        /* \"#utility.yul\":587:591   */\n      0x11\n        /* \"#utility.yul\":584:585   */\n      0x04\n        /* \"#utility.yul\":577:592   */\n      mstore\n        /* \"#utility.yul\":611:615   */\n      0x24\n        /* \"#utility.yul\":608:609   */\n      0x00\n        /* \"#utility.yul\":601:616   */\n      revert\n        /* \"#utility.yul\":628:799   */\n    tag_10:\n        /* \"#utility.yul\":667:670   */\n      0x00\n        /* \"#utility.yul\":690:714   */\n      tag_22\n        /* \"#utility.yul\":708:713   */\n      dup3\n        /* \"#utility.yul\":690:714   */\n      tag_11\n      jump\t// in\n    tag_22:\n        /* \"#utility.yul\":681:714   */\n      swap2\n      pop\n        /* \"#utility.yul\":736:740   */\n      0x00\n        /* \"#utility.yul\":729:734   */\n      dup3\n        /* \"#utility.yul\":726:741   */\n      eq\n        /* \"#utility.yul\":723:764   */\n      iszero\n      tag_23\n      jumpi\n        /* \"#utility.yul\":744:762   */\n      tag_24\n      tag_13\n      jump\t// in\n    tag_24:\n        /* \"#utility.yul\":723:764   */\n    tag_23:\n        /* \"#utility.yul\":791:792   */\n      0x01\n        /* \"#utility.yul\":784:789   */\n      dup3\n        /* \"#utility.yul\":780:793   */\n      sub\n        /* \"#utility.yul\":773:793   */\n      swap1\n      pop\n        /* \"#utility.yul\":628:799   */\n      swap2\n      swap1\n      pop\n      jump\t// out\n\n    auxdata: 0xa26469706673582212206e8023d5ab54491fc531c591be9438c7984380b5952881843179ffa358a8cfca64736f6c634300080a0033\n}\n",
				"bytecode": {
					"linkReferences": {},
					"object": "608060405234801561001057600080fd5b5061011b806100206000396000f3fe6080604052348015600f57600080fd5b506004361060285760003560e01c806336d79ce014602d575b600080fd5b60336047565b604051603e91906078565b60405180910390f35b60008060009050808060579060c0565b9150508091505090565b6000819050919050565b6072816061565b82525050565b6000602082019050608b6000830184606b565b92915050565b7f4e487b7100000000000000000000000000000000000000000000000000000000600052601160045260246000fd5b600060c9826061565b9150600082141560da5760d96091565b5b60018203905091905056fea26469706673582212206e8023d5ab54491fc531c591be9438c7984380b5952881843179ffa358a8cfca64736f6c634300080a0033",
					"opcodes": "PUSH1 0x80 PUSH1 0x40 MSTORE CALLVALUE DUP1 ISZERO PUSH2 0x10 JUMPI PUSH1 0x0 DUP1 REVERT JUMPDEST POP PUSH2 0x11B DUP1 PUSH2 0x20 PUSH1 0x0 CODECOPY PUSH1 0x0 RETURN INVALID PUSH1 0x80 PUSH1 0x40 MSTORE CALLVALUE DUP1 ISZERO PUSH1 0xF JUMPI PUSH1 0x0 DUP1 REVERT JUMPDEST POP PUSH1 0x4 CALLDATASIZE LT PUSH1 0x28 JUMPI PUSH1 0x0 CALLDATALOAD PUSH1 0xE0 SHR DUP1 PUSH4 0x36D79CE0 EQ PUSH1 0x2D JUMPI JUMPDEST PUSH1 0x0 DUP1 REVERT JUMPDEST PUSH1 0x33 PUSH1 0x47 JUMP JUMPDEST PUSH1 0x40 MLOAD PUSH1 0x3E SWAP2 SWAP1 PUSH1 0x78 JUMP JUMPDEST PUSH1 0x40 MLOAD DUP1 SWAP2 SUB SWAP1 RETURN JUMPDEST PUSH1 0x0 DUP1 PUSH1 0x0 SWAP1 POP DUP1 DUP1 PUSH1 0x57 SWAP1 PUSH1 0xC0 JUMP JUMPDEST SWAP2 POP POP DUP1 SWAP2 POP POP SWAP1 JUMP JUMPDEST PUSH1 0x0 DUP2 SWAP1 POP SWAP2 SWAP1 POP JUMP JUMPDEST PUSH1 0x72 DUP2 PUSH1 0x61 JUMP JUMPDEST DUP3 MSTORE POP POP JUMP JUMPDEST PUSH1 0x0 PUSH1 0x20 DUP3 ADD SWAP1 POP PUSH1 0x8B PUSH1 0x0 DUP4 ADD DUP5 PUSH1 0x6B JUMP JUMPDEST SWAP3 SWAP2 POP POP JUMP JUMPDEST PUSH32 0x4E487B7100000000000000000000000000000000000000000000000000000000 PUSH1 0x0 MSTORE PUSH1 0x11 PUSH1 0x4 MSTORE PUSH1 0x24 PUSH1 0x0 REVERT JUMPDEST PUSH1 0x0 PUSH1 0xC9 DUP3 PUSH1 0x61 JUMP JUMPDEST SWAP2 POP PUSH1 0x0 DUP3 EQ ISZERO PUSH1 0xDA JUMPI PUSH1 0xD9 PUSH1 0x91 JUMP JUMPDEST JUMPDEST PUSH1 0x1 DUP3 SUB SWAP1 POP SWAP2 SWAP1 POP JUMP INVALID LOG2 PUSH5 0x6970667358 0x22 SLT KECCAK256 PUSH15 0x8023D5AB54491FC531C591BE9438C7 SWAP9 NUMBER DUP1 0xB5 SWAP6 0x28 DUP2 DUP5 BALANCE PUSH26 0xFFA358A8CFCA64736F6C634300080A0033000000000000000000 "
				},
				"gasEstimates": {
					"creation": {
						"codeDepositCost": "56600",
						"executionCost": "105",
						"totalCost": "56705"
					},
					"external": {
						"testWithNoUncheck()": "269"
					}
				},
				"methodIdentifiers": {
					"testWithNoUncheck()": "36d79ce0"
				}
			},
			"storageLayout": {
				"storage": [],
				"types": null
			},
			"userdoc": {
				"kind": "user",
				"methods": {},
				"version": 1
			}
		}
	}
}