{
	"code6/2delete.sol": {
		"testArry": {
			"abi": [
				{
					"inputs": [
						{
							"internalType": "uint256",
							"name": "",
							"type": "uint256"
						}
					],
					"name": "arr",
					"outputs": [
						{
							"internalType": "uint256",
							"name": "",
							"type": "uint256"
						}
					],
					"stateMutability": "view",
					"type": "function"
				},
				{
					"inputs": [],
					"name": "example",
					"outputs": [],
					"stateMutability": "nonpayable",
					"type": "function"
				},
				{
					"inputs": [
						{
							"internalType": "uint256",
							"name": "_index",
							"type": "uint256"
						}
					],
					"name": "remove",
					"outputs": [],
					"stateMutability": "nonpayable",
					"type": "function"
				}
			],
			"devdoc": {
				"kind": "dev",
				"methods": {},
				"version": 1
			},
			"evm": {
				"assembly": "    /* \"code6/2delete.sol\":55:409  contract testArry{... */\n  mstore(0x40, 0x80)\n  callvalue\n  dup1\n  iszero\n  tag_1\n  jumpi\n  0x00\n  dup1\n  revert\ntag_1:\n  pop\n  dataSize(sub_0)\n  dup1\n  dataOffset(sub_0)\n  0x00\n  codecopy\n  0x00\n  return\nstop\n\nsub_0: assembly {\n        /* \"code6/2delete.sol\":55:409  contract testArry{... */\n      mstore(0x40, 0x80)\n      callvalue\n      dup1\n      iszero\n      tag_1\n      jumpi\n      0x00\n      dup1\n      revert\n    tag_1:\n      pop\n      jumpi(tag_2, lt(calldatasize, 0x04))\n      shr(0xe0, calldataload(0x00))\n      dup1\n      0x4cc82215\n      eq\n      tag_3\n      jumpi\n      dup1\n      0x54353f2f\n      eq\n      tag_4\n      jumpi\n      dup1\n      0x71e5ee5f\n      eq\n      tag_5\n      jumpi\n    tag_2:\n      0x00\n      dup1\n      revert\n        /* \"code6/2delete.sol\":312:406  function remove(uint _index)external{... */\n    tag_3:\n      tag_6\n      0x04\n      dup1\n      calldatasize\n      sub\n      dup2\n      add\n      swap1\n      tag_7\n      swap2\n      swap1\n      tag_8\n      jump\t// in\n    tag_7:\n      tag_9\n      jump\t// in\n    tag_6:\n      stop\n        /* \"code6/2delete.sol\":101:197  function example()external {... */\n    tag_4:\n      tag_10\n      tag_11\n      jump\t// in\n    tag_10:\n      stop\n        /* \"code6/2delete.sol\":78:95  uint[] public arr */\n    tag_5:\n      tag_12\n      0x04\n      dup1\n      calldatasize\n      sub\n      dup2\n      add\n      swap1\n      tag_13\n      swap2\n      swap1\n      tag_8\n      jump\t// in\n    tag_13:\n      tag_14\n      jump\t// in\n    tag_12:\n      mload(0x40)\n      tag_15\n      swap2\n      swap1\n      tag_16\n      jump\t// in\n    tag_15:\n      mload(0x40)\n      dup1\n      swap2\n      sub\n      swap1\n      return\n        /* \"code6/2delete.sol\":312:406  function remove(uint _index)external{... */\n    tag_9:\n        /* \"code6/2delete.sol\":373:376  arr */\n      0x00\n        /* \"code6/2delete.sol\":373:383  arr.length */\n      dup1\n      sload\n      swap1\n      pop\n        /* \"code6/2delete.sol\":366:372  _index */\n      dup2\n        /* \"code6/2delete.sol\":366:383  _index<arr.length */\n      lt\n        /* \"code6/2delete.sol\":358:399  require(_index<arr.length,\"error _index\") */\n      tag_18\n      jumpi\n      mload(0x40)\n      0x08c379a000000000000000000000000000000000000000000000000000000000\n      dup2\n      mstore\n      0x04\n      add\n      tag_19\n      swap1\n      tag_20\n      jump\t// in\n    tag_19:\n      mload(0x40)\n      dup1\n      swap2\n      sub\n      swap1\n      revert\n    tag_18:\n        /* \"code6/2delete.sol\":312:406  function remove(uint _index)external{... */\n      pop\n      jump\t// out\n        /* \"code6/2delete.sol\":101:197  function example()external {... */\n    tag_11:\n        /* \"code6/2delete.sol\":138:150  arr= [1,2,3] */\n      mload(0x40)\n      dup1\n      0x60\n      add\n      0x40\n      mstore\n      dup1\n        /* \"code6/2delete.sol\":144:145  1 */\n      0x01\n        /* \"code6/2delete.sol\":138:150  arr= [1,2,3] */\n      0xff\n      and\n      dup2\n      mstore\n      0x20\n      add\n        /* \"code6/2delete.sol\":146:147  2 */\n      0x02\n        /* \"code6/2delete.sol\":138:150  arr= [1,2,3] */\n      0xff\n      and\n      dup2\n      mstore\n      0x20\n      add\n        /* \"code6/2delete.sol\":148:149  3 */\n      0x03\n        /* \"code6/2delete.sol\":138:150  arr= [1,2,3] */\n      0xff\n      and\n      dup2\n      mstore\n      pop\n        /* \"code6/2delete.sol\":138:141  arr */\n      0x00\n        /* \"code6/2delete.sol\":138:150  arr= [1,2,3] */\n      swap1\n      0x03\n      tag_22\n      swap3\n      swap2\n      swap1\n      tag_23\n      jump\t// in\n    tag_22:\n      pop\n        /* \"code6/2delete.sol\":167:170  arr */\n      0x00\n        /* \"code6/2delete.sol\":171:172  1 */\n      0x01\n        /* \"code6/2delete.sol\":167:173  arr[1] */\n      dup2\n      sload\n      dup2\n      lt\n      tag_24\n      jumpi\n      tag_25\n      tag_26\n      jump\t// in\n    tag_25:\n    tag_24:\n      swap1\n      0x00\n      mstore\n      keccak256(0x00, 0x20)\n      add\n        /* \"code6/2delete.sol\":160:173  delete arr[1] */\n      0x00\n      swap1\n      sstore\n        /* \"code6/2delete.sol\":101:197  function example()external {... */\n      jump\t// out\n        /* \"code6/2delete.sol\":78:95  uint[] public arr */\n    tag_14:\n      0x00\n      dup2\n      dup2\n      sload\n      dup2\n      lt\n      tag_28\n      jumpi\n      0x00\n      dup1\n      revert\n    tag_28:\n      swap1\n      0x00\n      mstore\n      keccak256(0x00, 0x20)\n      add\n      0x00\n      swap2\n      pop\n      swap1\n      pop\n      sload\n      dup2\n      jump\t// out\n    tag_23:\n      dup3\n      dup1\n      sload\n      dup3\n      dup3\n      sstore\n      swap1\n      0x00\n      mstore\n      keccak256(0x00, 0x20)\n      swap1\n      dup2\n      add\n      swap3\n      dup3\n      iszero\n      tag_30\n      jumpi\n      swap2\n      0x20\n      mul\n      dup3\n      add\n    tag_31:\n      dup3\n      dup2\n      gt\n      iszero\n      tag_32\n      jumpi\n      dup3\n      mload\n      dup3\n      swap1\n      0xff\n      and\n      swap1\n      sstore\n      swap2\n      0x20\n      add\n      swap2\n      swap1\n      0x01\n      add\n      swap1\n      jump(tag_31)\n    tag_32:\n    tag_30:\n      pop\n      swap1\n      pop\n      tag_33\n      swap2\n      swap1\n      tag_34\n      jump\t// in\n    tag_33:\n      pop\n      swap1\n      jump\t// out\n    tag_34:\n    tag_35:\n      dup1\n      dup3\n      gt\n      iszero\n      tag_36\n      jumpi\n      0x00\n      dup2\n      0x00\n      swap1\n      sstore\n      pop\n      0x01\n      add\n      jump(tag_35)\n    tag_36:\n      pop\n      swap1\n      jump\t// out\n        /* \"#utility.yul\":7:146   */\n    tag_38:\n        /* \"#utility.yul\":53:58   */\n      0x00\n        /* \"#utility.yul\":91:97   */\n      dup2\n        /* \"#utility.yul\":78:98   */\n      calldataload\n        /* \"#utility.yul\":69:98   */\n      swap1\n      pop\n        /* \"#utility.yul\":107:140   */\n      tag_40\n        /* \"#utility.yul\":134:139   */\n      dup2\n        /* \"#utility.yul\":107:140   */\n      tag_41\n      jump\t// in\n    tag_40:\n        /* \"#utility.yul\":7:146   */\n      swap3\n      swap2\n      pop\n      pop\n      jump\t// out\n        /* \"#utility.yul\":152:481   */\n    tag_8:\n        /* \"#utility.yul\":211:217   */\n      0x00\n        /* \"#utility.yul\":260:262   */\n      0x20\n        /* \"#utility.yul\":248:257   */\n      dup3\n        /* \"#utility.yul\":239:246   */\n      dup5\n        /* \"#utility.yul\":235:258   */\n      sub\n        /* \"#utility.yul\":231:263   */\n      slt\n        /* \"#utility.yul\":228:347   */\n      iszero\n      tag_43\n      jumpi\n        /* \"#utility.yul\":266:345   */\n      tag_44\n      tag_45\n      jump\t// in\n    tag_44:\n        /* \"#utility.yul\":228:347   */\n    tag_43:\n        /* \"#utility.yul\":386:387   */\n      0x00\n        /* \"#utility.yul\":411:464   */\n      tag_46\n        /* \"#utility.yul\":456:463   */\n      dup5\n        /* \"#utility.yul\":447:453   */\n      dup3\n        /* \"#utility.yul\":436:445   */\n      dup6\n        /* \"#utility.yul\":432:454   */\n      add\n        /* \"#utility.yul\":411:464   */\n      tag_38\n      jump\t// in\n    tag_46:\n        /* \"#utility.yul\":401:464   */\n      swap2\n      pop\n        /* \"#utility.yul\":357:474   */\n      pop\n        /* \"#utility.yul\":152:481   */\n      swap3\n      swap2\n      pop\n      pop\n      jump\t// out\n        /* \"#utility.yul\":487:853   */\n    tag_47:\n        /* \"#utility.yul\":629:632   */\n      0x00\n        /* \"#utility.yul\":650:717   */\n      tag_49\n        /* \"#utility.yul\":714:716   */\n      0x0c\n        /* \"#utility.yul\":709:712   */\n      dup4\n        /* \"#utility.yul\":650:717   */\n      tag_50\n      jump\t// in\n    tag_49:\n        /* \"#utility.yul\":643:717   */\n      swap2\n      pop\n        /* \"#utility.yul\":726:819   */\n      tag_51\n        /* \"#utility.yul\":815:818   */\n      dup3\n        /* \"#utility.yul\":726:819   */\n      tag_52\n      jump\t// in\n    tag_51:\n        /* \"#utility.yul\":844:846   */\n      0x20\n        /* \"#utility.yul\":839:842   */\n      dup3\n        /* \"#utility.yul\":835:847   */\n      add\n        /* \"#utility.yul\":828:847   */\n      swap1\n      pop\n        /* \"#utility.yul\":487:853   */\n      swap2\n      swap1\n      pop\n      jump\t// out\n        /* \"#utility.yul\":859:977   */\n    tag_53:\n        /* \"#utility.yul\":946:970   */\n      tag_55\n        /* \"#utility.yul\":964:969   */\n      dup2\n        /* \"#utility.yul\":946:970   */\n      tag_56\n      jump\t// in\n    tag_55:\n        /* \"#utility.yul\":941:944   */\n      dup3\n        /* \"#utility.yul\":934:971   */\n      mstore\n        /* \"#utility.yul\":859:977   */\n      pop\n      pop\n      jump\t// out\n        /* \"#utility.yul\":983:1402   */\n    tag_20:\n        /* \"#utility.yul\":1149:1153   */\n      0x00\n        /* \"#utility.yul\":1187:1189   */\n      0x20\n        /* \"#utility.yul\":1176:1185   */\n      dup3\n        /* \"#utility.yul\":1172:1190   */\n      add\n        /* \"#utility.yul\":1164:1190   */\n      swap1\n      pop\n        /* \"#utility.yul\":1236:1245   */\n      dup2\n        /* \"#utility.yul\":1230:1234   */\n      dup2\n        /* \"#utility.yul\":1226:1246   */\n      sub\n        /* \"#utility.yul\":1222:1223   */\n      0x00\n        /* \"#utility.yul\":1211:1220   */\n      dup4\n        /* \"#utility.yul\":1207:1224   */\n      add\n        /* \"#utility.yul\":1200:1247   */\n      mstore\n        /* \"#utility.yul\":1264:1395   */\n      tag_58\n        /* \"#utility.yul\":1390:1394   */\n      dup2\n        /* \"#utility.yul\":1264:1395   */\n      tag_47\n      jump\t// in\n    tag_58:\n        /* \"#utility.yul\":1256:1395   */\n      swap1\n      pop\n        /* \"#utility.yul\":983:1402   */\n      swap2\n      swap1\n      pop\n      jump\t// out\n        /* \"#utility.yul\":1408:1630   */\n    tag_16:\n        /* \"#utility.yul\":1501:1505   */\n      0x00\n        /* \"#utility.yul\":1539:1541   */\n      0x20\n        /* \"#utility.yul\":1528:1537   */\n      dup3\n        /* \"#utility.yul\":1524:1542   */\n      add\n        /* \"#utility.yul\":1516:1542   */\n      swap1\n      pop\n        /* \"#utility.yul\":1552:1623   */\n      tag_60\n        /* \"#utility.yul\":1620:1621   */\n      0x00\n        /* \"#utility.yul\":1609:1618   */\n      dup4\n        /* \"#utility.yul\":1605:1622   */\n      add\n        /* \"#utility.yul\":1596:1602   */\n      dup5\n        /* \"#utility.yul\":1552:1623   */\n      tag_53\n      jump\t// in\n    tag_60:\n        /* \"#utility.yul\":1408:1630   */\n      swap3\n      swap2\n      pop\n      pop\n      jump\t// out\n        /* \"#utility.yul\":1717:1886   */\n    tag_50:\n        /* \"#utility.yul\":1801:1812   */\n      0x00\n        /* \"#utility.yul\":1835:1841   */\n      dup3\n        /* \"#utility.yul\":1830:1833   */\n      dup3\n        /* \"#utility.yul\":1823:1842   */\n      mstore\n        /* \"#utility.yul\":1875:1879   */\n      0x20\n        /* \"#utility.yul\":1870:1873   */\n      dup3\n        /* \"#utility.yul\":1866:1880   */\n      add\n        /* \"#utility.yul\":1851:1880   */\n      swap1\n      pop\n        /* \"#utility.yul\":1717:1886   */\n      swap3\n      swap2\n      pop\n      pop\n      jump\t// out\n        /* \"#utility.yul\":1892:1969   */\n    tag_56:\n        /* \"#utility.yul\":1929:1936   */\n      0x00\n        /* \"#utility.yul\":1958:1963   */\n      dup2\n        /* \"#utility.yul\":1947:1963   */\n      swap1\n      pop\n        /* \"#utility.yul\":1892:1969   */\n      swap2\n      swap1\n      pop\n      jump\t// out\n        /* \"#utility.yul\":1975:2155   */\n    tag_26:\n        /* \"#utility.yul\":2023:2100   */\n      0x4e487b7100000000000000000000000000000000000000000000000000000000\n        /* \"#utility.yul\":2020:2021   */\n      0x00\n        /* \"#utility.yul\":2013:2101   */\n      mstore\n        /* \"#utility.yul\":2120:2124   */\n      0x32\n        /* \"#utility.yul\":2117:2118   */\n      0x04\n        /* \"#utility.yul\":2110:2125   */\n      mstore\n        /* \"#utility.yul\":2144:2148   */\n      0x24\n        /* \"#utility.yul\":2141:2142   */\n      0x00\n        /* \"#utility.yul\":2134:2149   */\n      revert\n        /* \"#utility.yul\":2284:2401   */\n    tag_45:\n        /* \"#utility.yul\":2393:2394   */\n      0x00\n        /* \"#utility.yul\":2390:2391   */\n      dup1\n        /* \"#utility.yul\":2383:2395   */\n      revert\n        /* \"#utility.yul\":2407:2569   */\n    tag_52:\n        /* \"#utility.yul\":2547:2561   */\n      0x6572726f72205f696e6465780000000000000000000000000000000000000000\n        /* \"#utility.yul\":2543:2544   */\n      0x00\n        /* \"#utility.yul\":2535:2541   */\n      dup3\n        /* \"#utility.yul\":2531:2545   */\n      add\n        /* \"#utility.yul\":2524:2562   */\n      mstore\n        /* \"#utility.yul\":2407:2569   */\n      pop\n      jump\t// out\n        /* \"#utility.yul\":2575:2697   */\n    tag_41:\n        /* \"#utility.yul\":2648:2672   */\n      tag_71\n        /* \"#utility.yul\":2666:2671   */\n      dup2\n        /* \"#utility.yul\":2648:2672   */\n      tag_56\n      jump\t// in\n    tag_71:\n        /* \"#utility.yul\":2641:2646   */\n      dup2\n        /* \"#utility.yul\":2638:2673   */\n      eq\n        /* \"#utility.yul\":2628:2691   */\n      tag_72\n      jumpi\n        /* \"#utility.yul\":2687:2688   */\n      0x00\n        /* \"#utility.yul\":2684:2685   */\n      dup1\n        /* \"#utility.yul\":2677:2689   */\n      revert\n        /* \"#utility.yul\":2628:2691   */\n    tag_72:\n        /* \"#utility.yul\":2575:2697   */\n      pop\n      jump\t// out\n\n    auxdata: 0xa2646970667358221220028554e2e374c58ea10446c418efa908123415350f3f91dad4f097470b5f3f3a64736f6c63430008070033\n}\n",
				"bytecode": {
					"linkReferences": {},
					"object": "608060405234801561001057600080fd5b5061034a806100206000396000f3fe608060405234801561001057600080fd5b50600436106100415760003560e01c80634cc822151461004657806354353f2f1461006257806371e5ee5f1461006c575b600080fd5b610060600480360381019061005b91906101eb565b61009c565b005b61006a6100e6565b005b610086600480360381019061008191906101eb565b610143565b604051610093919061026a565b60405180910390f35b60008054905081106100e3576040517f08c379a00000000000000000000000000000000000000000000000000000000081526004016100da9061024a565b60405180910390fd5b50565b6040518060600160405280600160ff168152602001600260ff168152602001600360ff16815250600090600361011d929190610167565b506000600181548110610133576101326102a0565b5b9060005260206000200160009055565b6000818154811061015357600080fd5b906000526020600020016000915090505481565b8280548282559060005260206000209081019282156101a8579160200282015b828111156101a7578251829060ff16905591602001919060010190610187565b5b5090506101b591906101b9565b5090565b5b808211156101d25760008160009055506001016101ba565b5090565b6000813590506101e5816102fd565b92915050565b600060208284031215610201576102006102cf565b5b600061020f848285016101d6565b91505092915050565b6000610225600c83610285565b9150610230826102d4565b602082019050919050565b61024481610296565b82525050565b6000602082019050818103600083015261026381610218565b9050919050565b600060208201905061027f600083018461023b565b92915050565b600082825260208201905092915050565b6000819050919050565b7f4e487b7100000000000000000000000000000000000000000000000000000000600052603260045260246000fd5b600080fd5b7f6572726f72205f696e6465780000000000000000000000000000000000000000600082015250565b61030681610296565b811461031157600080fd5b5056fea2646970667358221220028554e2e374c58ea10446c418efa908123415350f3f91dad4f097470b5f3f3a64736f6c63430008070033",
					"opcodes": "PUSH1 0x80 PUSH1 0x40 MSTORE CALLVALUE DUP1 ISZERO PUSH2 0x10 JUMPI PUSH1 0x0 DUP1 REVERT JUMPDEST POP PUSH2 0x34A DUP1 PUSH2 0x20 PUSH1 0x0 CODECOPY PUSH1 0x0 RETURN INVALID PUSH1 0x80 PUSH1 0x40 MSTORE CALLVALUE DUP1 ISZERO PUSH2 0x10 JUMPI PUSH1 0x0 DUP1 REVERT JUMPDEST POP PUSH1 0x4 CALLDATASIZE LT PUSH2 0x41 JUMPI PUSH1 0x0 CALLDATALOAD PUSH1 0xE0 SHR DUP1 PUSH4 0x4CC82215 EQ PUSH2 0x46 JUMPI DUP1 PUSH4 0x54353F2F EQ PUSH2 0x62 JUMPI DUP1 PUSH4 0x71E5EE5F EQ PUSH2 0x6C JUMPI JUMPDEST PUSH1 0x0 DUP1 REVERT JUMPDEST PUSH2 0x60 PUSH1 0x4 DUP1 CALLDATASIZE SUB DUP2 ADD SWAP1 PUSH2 0x5B SWAP2 SWAP1 PUSH2 0x1EB JUMP JUMPDEST PUSH2 0x9C JUMP JUMPDEST STOP JUMPDEST PUSH2 0x6A PUSH2 0xE6 JUMP JUMPDEST STOP JUMPDEST PUSH2 0x86 PUSH1 0x4 DUP1 CALLDATASIZE SUB DUP2 ADD SWAP1 PUSH2 0x81 SWAP2 SWAP1 PUSH2 0x1EB JUMP JUMPDEST PUSH2 0x143 JUMP JUMPDEST PUSH1 0x40 MLOAD PUSH2 0x93 SWAP2 SWAP1 PUSH2 0x26A JUMP JUMPDEST PUSH1 0x40 MLOAD DUP1 SWAP2 SUB SWAP1 RETURN JUMPDEST PUSH1 0x0 DUP1 SLOAD SWAP1 POP DUP2 LT PUSH2 0xE3 JUMPI PUSH1 0x40 MLOAD PUSH32 0x8C379A000000000000000000000000000000000000000000000000000000000 DUP2 MSTORE PUSH1 0x4 ADD PUSH2 0xDA SWAP1 PUSH2 0x24A JUMP JUMPDEST PUSH1 0x40 MLOAD DUP1 SWAP2 SUB SWAP1 REVERT JUMPDEST POP JUMP JUMPDEST PUSH1 0x40 MLOAD DUP1 PUSH1 0x60 ADD PUSH1 0x40 MSTORE DUP1 PUSH1 0x1 PUSH1 0xFF AND DUP2 MSTORE PUSH1 0x20 ADD PUSH1 0x2 PUSH1 0xFF AND DUP2 MSTORE PUSH1 0x20 ADD PUSH1 0x3 PUSH1 0xFF AND DUP2 MSTORE POP PUSH1 0x0 SWAP1 PUSH1 0x3 PUSH2 0x11D SWAP3 SWAP2 SWAP1 PUSH2 0x167 JUMP JUMPDEST POP PUSH1 0x0 PUSH1 0x1 DUP2 SLOAD DUP2 LT PUSH2 0x133 JUMPI PUSH2 0x132 PUSH2 0x2A0 JUMP JUMPDEST JUMPDEST SWAP1 PUSH1 0x0 MSTORE PUSH1 0x20 PUSH1 0x0 KECCAK256 ADD PUSH1 0x0 SWAP1 SSTORE JUMP JUMPDEST PUSH1 0x0 DUP2 DUP2 SLOAD DUP2 LT PUSH2 0x153 JUMPI PUSH1 0x0 DUP1 REVERT JUMPDEST SWAP1 PUSH1 0x0 MSTORE PUSH1 0x20 PUSH1 0x0 KECCAK256 ADD PUSH1 0x0 SWAP2 POP SWAP1 POP SLOAD DUP2 JUMP JUMPDEST DUP3 DUP1 SLOAD DUP3 DUP3 SSTORE SWAP1 PUSH1 0x0 MSTORE PUSH1 0x20 PUSH1 0x0 KECCAK256 SWAP1 DUP2 ADD SWAP3 DUP3 ISZERO PUSH2 0x1A8 JUMPI SWAP2 PUSH1 0x20 MUL DUP3 ADD JUMPDEST DUP3 DUP2 GT ISZERO PUSH2 0x1A7 JUMPI DUP3 MLOAD DUP3 SWAP1 PUSH1 0xFF AND SWAP1 SSTORE SWAP2 PUSH1 0x20 ADD SWAP2 SWAP1 PUSH1 0x1 ADD SWAP1 PUSH2 0x187 JUMP JUMPDEST JUMPDEST POP SWAP1 POP PUSH2 0x1B5 SWAP2 SWAP1 PUSH2 0x1B9 JUMP JUMPDEST POP SWAP1 JUMP JUMPDEST JUMPDEST DUP1 DUP3 GT ISZERO PUSH2 0x1D2 JUMPI PUSH1 0x0 DUP2 PUSH1 0x0 SWAP1 SSTORE POP PUSH1 0x1 ADD PUSH2 0x1BA JUMP JUMPDEST POP SWAP1 JUMP JUMPDEST PUSH1 0x0 DUP2 CALLDATALOAD SWAP1 POP PUSH2 0x1E5 DUP2 PUSH2 0x2FD JUMP JUMPDEST SWAP3 SWAP2 POP POP JUMP JUMPDEST PUSH1 0x0 PUSH1 0x20 DUP3 DUP5 SUB SLT ISZERO PUSH2 0x201 JUMPI PUSH2 0x200 PUSH2 0x2CF JUMP JUMPDEST JUMPDEST PUSH1 0x0 PUSH2 0x20F DUP5 DUP3 DUP6 ADD PUSH2 0x1D6 JUMP JUMPDEST SWAP2 POP POP SWAP3 SWAP2 POP POP JUMP JUMPDEST PUSH1 0x0 PUSH2 0x225 PUSH1 0xC DUP4 PUSH2 0x285 JUMP JUMPDEST SWAP2 POP PUSH2 0x230 DUP3 PUSH2 0x2D4 JUMP JUMPDEST PUSH1 0x20 DUP3 ADD SWAP1 POP SWAP2 SWAP1 POP JUMP JUMPDEST PUSH2 0x244 DUP2 PUSH2 0x296 JUMP JUMPDEST DUP3 MSTORE POP POP JUMP JUMPDEST PUSH1 0x0 PUSH1 0x20 DUP3 ADD SWAP1 POP DUP2 DUP2 SUB PUSH1 0x0 DUP4 ADD MSTORE PUSH2 0x263 DUP2 PUSH2 0x218 JUMP JUMPDEST SWAP1 POP SWAP2 SWAP1 POP JUMP JUMPDEST PUSH1 0x0 PUSH1 0x20 DUP3 ADD SWAP1 POP PUSH2 0x27F PUSH1 0x0 DUP4 ADD DUP5 PUSH2 0x23B JUMP JUMPDEST SWAP3 SWAP2 POP POP JUMP JUMPDEST PUSH1 0x0 DUP3 DUP3 MSTORE PUSH1 0x20 DUP3 ADD SWAP1 POP SWAP3 SWAP2 POP POP JUMP JUMPDEST PUSH1 0x0 DUP2 SWAP1 POP SWAP2 SWAP1 POP JUMP JUMPDEST PUSH32 0x4E487B7100000000000000000000000000000000000000000000000000000000 PUSH1 0x0 MSTORE PUSH1 0x32 PUSH1 0x4 MSTORE PUSH1 0x24 PUSH1 0x0 REVERT JUMPDEST PUSH1 0x0 DUP1 REVERT JUMPDEST PUSH32 0x6572726F72205F696E6465780000000000000000000000000000000000000000 PUSH1 0x0 DUP3 ADD MSTORE POP JUMP JUMPDEST PUSH2 0x306 DUP2 PUSH2 0x296 JUMP JUMPDEST DUP2 EQ PUSH2 0x311 JUMPI PUSH1 0x0 DUP1 REVERT JUMPDEST POP JUMP INVALID LOG2 PUSH5 0x6970667358 0x22 SLT KECCAK256 MUL DUP6 SLOAD 0xE2 0xE3 PUSH21 0xC58EA10446C418EFA908123415350F3F91DAD4F097 SELFBALANCE SIGNEXTEND 0x5F EXTCODEHASH GASPRICE PUSH5 0x736F6C6343 STOP ADDMOD SMOD STOP CALLER "
				},
				"gasEstimates": {
					"creation": {
						"codeDepositCost": "168400",
						"executionCost": "214",
						"totalCost": "168614"
					},
					"external": {
						"arr(uint256)": "infinite",
						"example()": "infinite",
						"remove(uint256)": "2802"
					}
				},
				"methodIdentifiers": {
					"arr(uint256)": "71e5ee5f",
					"example()": "54353f2f",
					"remove(uint256)": "4cc82215"
				}
			},
			"storageLayout": {
				"storage": [
					{
						"astId": 4,
						"contract": "code6/2delete.sol:testArry",
						"label": "arr",
						"offset": 0,
						"slot": "0",
						"type": "t_array(t_uint256)dyn_storage"
					}
				],
				"types": {
					"t_array(t_uint256)dyn_storage": {
						"base": "t_uint256",
						"encoding": "dynamic_array",
						"label": "uint256[]",
						"numberOfBytes": "32"
					},
					"t_uint256": {
						"encoding": "inplace",
						"label": "uint256",
						"numberOfBytes": "32"
					}
				}
			},
			"userdoc": {
				"kind": "user",
				"methods": {},
				"version": 1
			}
		}
	}
}