{
	"code6/1array.sol": {
		"testArray": {
			"abi": [
				{
					"inputs": [],
					"name": "example",
					"outputs": [],
					"stateMutability": "nonpayable",
					"type": "function"
				},
				{
					"inputs": [
						{
							"internalType": "uint256",
							"name": "",
							"type": "uint256"
						}
					],
					"name": "num",
					"outputs": [
						{
							"internalType": "uint256",
							"name": "",
							"type": "uint256"
						}
					],
					"stateMutability": "view",
					"type": "function"
				},
				{
					"inputs": [
						{
							"internalType": "uint256",
							"name": "",
							"type": "uint256"
						}
					],
					"name": "num1",
					"outputs": [
						{
							"internalType": "uint256",
							"name": "",
							"type": "uint256"
						}
					],
					"stateMutability": "view",
					"type": "function"
				},
				{
					"inputs": [
						{
							"internalType": "uint256",
							"name": "",
							"type": "uint256"
						}
					],
					"name": "numFixed",
					"outputs": [
						{
							"internalType": "uint256",
							"name": "",
							"type": "uint256"
						}
					],
					"stateMutability": "view",
					"type": "function"
				},
				{
					"inputs": [
						{
							"internalType": "uint256",
							"name": "",
							"type": "uint256"
						}
					],
					"name": "numFixed1",
					"outputs": [
						{
							"internalType": "uint256",
							"name": "",
							"type": "uint256"
						}
					],
					"stateMutability": "view",
					"type": "function"
				},
				{
					"inputs": [],
					"name": "returnArr",
					"outputs": [
						{
							"internalType": "uint256[]",
							"name": "a",
							"type": "uint256[]"
						}
					],
					"stateMutability": "view",
					"type": "function"
				}
			],
			"devdoc": {
				"kind": "dev",
				"methods": {},
				"version": 1
			},
			"evm": {
				"assembly": "    /* \"code6/1array.sol\":55:1369  contract testArray{... */\n  mstore(0x40, 0x80)\n    /* \"code6/1array.sol\":168:194  uint[] public num1 = [1,2] */\n  mload(0x40)\n  dup1\n  0x40\n  add\n  0x40\n  mstore\n  dup1\n    /* \"code6/1array.sol\":190:191  1 */\n  0x01\n    /* \"code6/1array.sol\":168:194  uint[] public num1 = [1,2] */\n  0xff\n  and\n  dup2\n  mstore\n  0x20\n  add\n    /* \"code6/1array.sol\":192:193  2 */\n  0x02\n    /* \"code6/1array.sol\":168:194  uint[] public num1 = [1,2] */\n  0xff\n  and\n  dup2\n  mstore\n  pop\n  0x04\n  swap1\n  0x02\n  tag_1\n  swap3\n  swap2\n  swap1\n  tag_2\n  jump\t// in\ntag_1:\n  pop\n    /* \"code6/1array.sol\":200:234  uint[3] public numFixed1 = [3,4,5] */\n  mload(0x40)\n  dup1\n  0x60\n  add\n  0x40\n  mstore\n  dup1\n    /* \"code6/1array.sol\":228:229  3 */\n  0x03\n    /* \"code6/1array.sol\":200:234  uint[3] public numFixed1 = [3,4,5] */\n  0xff\n  and\n  dup2\n  mstore\n  0x20\n  add\n    /* \"code6/1array.sol\":230:231  4 */\n  0x04\n    /* \"code6/1array.sol\":200:234  uint[3] public numFixed1 = [3,4,5] */\n  0xff\n  and\n  dup2\n  mstore\n  0x20\n  add\n    /* \"code6/1array.sol\":232:233  5 */\n  0x05\n    /* \"code6/1array.sol\":200:234  uint[3] public numFixed1 = [3,4,5] */\n  0xff\n  and\n  dup2\n  mstore\n  pop\n  0x05\n  swap1\n  0x03\n  tag_3\n  swap3\n  swap2\n  swap1\n  tag_4\n  jump\t// in\ntag_3:\n  pop\n    /* \"code6/1array.sol\":55:1369  contract testArray{... */\n  callvalue\n  dup1\n  iszero\n  tag_5\n  jumpi\n  0x00\n  dup1\n  revert\ntag_5:\n  pop\n  jump(tag_6)\ntag_2:\n  dup3\n  dup1\n  sload\n  dup3\n  dup3\n  sstore\n  swap1\n  0x00\n  mstore\n  keccak256(0x00, 0x20)\n  swap1\n  dup2\n  add\n  swap3\n  dup3\n  iszero\n  tag_7\n  jumpi\n  swap2\n  0x20\n  mul\n  dup3\n  add\ntag_8:\n  dup3\n  dup2\n  gt\n  iszero\n  tag_9\n  jumpi\n  dup3\n  mload\n  dup3\n  swap1\n  0xff\n  and\n  swap1\n  sstore\n  swap2\n  0x20\n  add\n  swap2\n  swap1\n  0x01\n  add\n  swap1\n  jump(tag_8)\ntag_9:\ntag_7:\n  pop\n  swap1\n  pop\n  tag_10\n  swap2\n  swap1\n  tag_11\n  jump\t// in\ntag_10:\n  pop\n  swap1\n  jump\t// out\ntag_4:\n  dup3\n  0x03\n  dup2\n  add\n  swap3\n  dup3\n  iszero\n  tag_12\n  jumpi\n  swap2\n  0x20\n  mul\n  dup3\n  add\ntag_13:\n  dup3\n  dup2\n  gt\n  iszero\n  tag_14\n  jumpi\n  dup3\n  mload\n  dup3\n  swap1\n  0xff\n  and\n  swap1\n  sstore\n  swap2\n  0x20\n  add\n  swap2\n  swap1\n  0x01\n  add\n  swap1\n  jump(tag_13)\ntag_14:\ntag_12:\n  pop\n  swap1\n  pop\n  tag_15\n  swap2\n  swap1\n  tag_11\n  jump\t// in\ntag_15:\n  pop\n  swap1\n  jump\t// out\ntag_11:\ntag_16:\n  dup1\n  dup3\n  gt\n  iszero\n  tag_17\n  jumpi\n  0x00\n  dup2\n  0x00\n  swap1\n  sstore\n  pop\n  0x01\n  add\n  jump(tag_16)\ntag_17:\n  pop\n  swap1\n  jump\t// out\ntag_6:\n  dataSize(sub_0)\n  dup1\n  dataOffset(sub_0)\n  0x00\n  codecopy\n  0x00\n  return\nstop\n\nsub_0: assembly {\n        /* \"code6/1array.sol\":55:1369  contract testArray{... */\n      mstore(0x40, 0x80)\n      callvalue\n      dup1\n      iszero\n      tag_1\n      jumpi\n      0x00\n      dup1\n      revert\n    tag_1:\n      pop\n      jumpi(tag_2, lt(calldatasize, 0x04))\n      shr(0xe0, calldataload(0x00))\n      dup1\n      0x5331fdeb\n      eq\n      tag_3\n      jumpi\n      dup1\n      0x54353f2f\n      eq\n      tag_4\n      jumpi\n      dup1\n      0x88046c6a\n      eq\n      tag_5\n      jumpi\n      dup1\n      0x8e3abf4e\n      eq\n      tag_6\n      jumpi\n      dup1\n      0xaa228b75\n      eq\n      tag_7\n      jumpi\n      dup1\n      0xb5e9c6c9\n      eq\n      tag_8\n      jumpi\n    tag_2:\n      0x00\n      dup1\n      revert\n        /* \"code6/1array.sol\":102:125  uint[3] public numFixed */\n    tag_3:\n      tag_9\n      0x04\n      dup1\n      calldatasize\n      sub\n      dup2\n      add\n      swap1\n      tag_10\n      swap2\n      swap1\n      tag_11\n      jump\t// in\n    tag_10:\n      tag_12\n      jump\t// in\n    tag_9:\n      mload(0x40)\n      tag_13\n      swap2\n      swap1\n      tag_14\n      jump\t// in\n    tag_13:\n      mload(0x40)\n      dup1\n      swap2\n      sub\n      swap1\n      return\n        /* \"code6/1array.sol\":246:1060  function example()external{... */\n    tag_4:\n      tag_15\n      tag_16\n      jump\t// in\n    tag_15:\n      stop\n        /* \"code6/1array.sol\":1066:1366  function returnArr()external view returns(uint[] memory a){... */\n    tag_5:\n      tag_17\n      tag_18\n      jump\t// in\n    tag_17:\n      mload(0x40)\n      tag_19\n      swap2\n      swap1\n      tag_20\n      jump\t// in\n    tag_19:\n      mload(0x40)\n      dup1\n      swap2\n      sub\n      swap1\n      return\n        /* \"code6/1array.sol\":168:194  uint[] public num1 = [1,2] */\n    tag_6:\n      tag_21\n      0x04\n      dup1\n      calldatasize\n      sub\n      dup2\n      add\n      swap1\n      tag_22\n      swap2\n      swap1\n      tag_11\n      jump\t// in\n    tag_22:\n      tag_23\n      jump\t// in\n    tag_21:\n      mload(0x40)\n      tag_24\n      swap2\n      swap1\n      tag_14\n      jump\t// in\n    tag_24:\n      mload(0x40)\n      dup1\n      swap2\n      sub\n      swap1\n      return\n        /* \"code6/1array.sol\":79:96  uint[] public num */\n    tag_7:\n      tag_25\n      0x04\n      dup1\n      calldatasize\n      sub\n      dup2\n      add\n      swap1\n      tag_26\n      swap2\n      swap1\n      tag_11\n      jump\t// in\n    tag_26:\n      tag_27\n      jump\t// in\n    tag_25:\n      mload(0x40)\n      tag_28\n      swap2\n      swap1\n      tag_14\n      jump\t// in\n    tag_28:\n      mload(0x40)\n      dup1\n      swap2\n      sub\n      swap1\n      return\n        /* \"code6/1array.sol\":200:234  uint[3] public numFixed1 = [3,4,5] */\n    tag_8:\n      tag_29\n      0x04\n      dup1\n      calldatasize\n      sub\n      dup2\n      add\n      swap1\n      tag_30\n      swap2\n      swap1\n      tag_11\n      jump\t// in\n    tag_30:\n      tag_31\n      jump\t// in\n    tag_29:\n      mload(0x40)\n      tag_32\n      swap2\n      swap1\n      tag_14\n      jump\t// in\n    tag_32:\n      mload(0x40)\n      dup1\n      swap2\n      sub\n      swap1\n      return\n        /* \"code6/1array.sol\":102:125  uint[3] public numFixed */\n    tag_12:\n      0x01\n      dup2\n      0x03\n      dup2\n      lt\n      tag_33\n      jumpi\n      0x00\n      dup1\n      revert\n    tag_33:\n      add\n      0x00\n      swap2\n      pop\n      swap1\n      pop\n      sload\n      dup2\n      jump\t// out\n        /* \"code6/1array.sol\":246:1060  function example()external{... */\n    tag_16:\n      jump\t// out\n        /* \"code6/1array.sol\":1066:1366  function returnArr()external view returns(uint[] memory a){... */\n    tag_18:\n        /* \"code6/1array.sol\":1108:1123  uint[] memory a */\n      0x60\n        /* \"code6/1array.sol\":1141:1144  num */\n      0x00\n        /* \"code6/1array.sol\":1134:1144  return num */\n      dup1\n      sload\n      dup1\n      0x20\n      mul\n      0x20\n      add\n      mload(0x40)\n      swap1\n      dup2\n      add\n      0x40\n      mstore\n      dup1\n      swap3\n      swap2\n      swap1\n      dup2\n      dup2\n      mstore\n      0x20\n      add\n      dup3\n      dup1\n      sload\n      dup1\n      iszero\n      tag_37\n      jumpi\n      0x20\n      mul\n      dup3\n      add\n      swap2\n      swap1\n      0x00\n      mstore\n      keccak256(0x00, 0x20)\n      swap1\n    tag_38:\n      dup2\n      sload\n      dup2\n      mstore\n      0x20\n      add\n      swap1\n      0x01\n      add\n      swap1\n      dup1\n      dup4\n      gt\n      tag_38\n      jumpi\n    tag_37:\n      pop\n      pop\n      pop\n      pop\n      pop\n      swap1\n      pop\n        /* \"code6/1array.sol\":1066:1366  function returnArr()external view returns(uint[] memory a){... */\n      swap1\n      jump\t// out\n        /* \"code6/1array.sol\":168:194  uint[] public num1 = [1,2] */\n    tag_23:\n      0x04\n      dup2\n      dup2\n      sload\n      dup2\n      lt\n      tag_39\n      jumpi\n      0x00\n      dup1\n      revert\n    tag_39:\n      swap1\n      0x00\n      mstore\n      keccak256(0x00, 0x20)\n      add\n      0x00\n      swap2\n      pop\n      swap1\n      pop\n      sload\n      dup2\n      jump\t// out\n        /* \"code6/1array.sol\":79:96  uint[] public num */\n    tag_27:\n      0x00\n      dup2\n      dup2\n      sload\n      dup2\n      lt\n      tag_41\n      jumpi\n      0x00\n      dup1\n      revert\n    tag_41:\n      swap1\n      0x00\n      mstore\n      keccak256(0x00, 0x20)\n      add\n      0x00\n      swap2\n      pop\n      swap1\n      pop\n      sload\n      dup2\n      jump\t// out\n        /* \"code6/1array.sol\":200:234  uint[3] public numFixed1 = [3,4,5] */\n    tag_31:\n      0x05\n      dup2\n      0x03\n      dup2\n      lt\n      tag_43\n      jumpi\n      0x00\n      dup1\n      revert\n    tag_43:\n      add\n      0x00\n      swap2\n      pop\n      swap1\n      pop\n      sload\n      dup2\n      jump\t// out\n        /* \"#utility.yul\":7:146   */\n    tag_46:\n        /* \"#utility.yul\":53:58   */\n      0x00\n        /* \"#utility.yul\":91:97   */\n      dup2\n        /* \"#utility.yul\":78:98   */\n      calldataload\n        /* \"#utility.yul\":69:98   */\n      swap1\n      pop\n        /* \"#utility.yul\":107:140   */\n      tag_48\n        /* \"#utility.yul\":134:139   */\n      dup2\n        /* \"#utility.yul\":107:140   */\n      tag_49\n      jump\t// in\n    tag_48:\n        /* \"#utility.yul\":7:146   */\n      swap3\n      swap2\n      pop\n      pop\n      jump\t// out\n        /* \"#utility.yul\":152:481   */\n    tag_11:\n        /* \"#utility.yul\":211:217   */\n      0x00\n        /* \"#utility.yul\":260:262   */\n      0x20\n        /* \"#utility.yul\":248:257   */\n      dup3\n        /* \"#utility.yul\":239:246   */\n      dup5\n        /* \"#utility.yul\":235:258   */\n      sub\n        /* \"#utility.yul\":231:263   */\n      slt\n        /* \"#utility.yul\":228:347   */\n      iszero\n      tag_51\n      jumpi\n        /* \"#utility.yul\":266:345   */\n      tag_52\n      tag_53\n      jump\t// in\n    tag_52:\n        /* \"#utility.yul\":228:347   */\n    tag_51:\n        /* \"#utility.yul\":386:387   */\n      0x00\n        /* \"#utility.yul\":411:464   */\n      tag_54\n        /* \"#utility.yul\":456:463   */\n      dup5\n        /* \"#utility.yul\":447:453   */\n      dup3\n        /* \"#utility.yul\":436:445   */\n      dup6\n        /* \"#utility.yul\":432:454   */\n      add\n        /* \"#utility.yul\":411:464   */\n      tag_46\n      jump\t// in\n    tag_54:\n        /* \"#utility.yul\":401:464   */\n      swap2\n      pop\n        /* \"#utility.yul\":357:474   */\n      pop\n        /* \"#utility.yul\":152:481   */\n      swap3\n      swap2\n      pop\n      pop\n      jump\t// out\n        /* \"#utility.yul\":487:666   */\n    tag_55:\n        /* \"#utility.yul\":556:566   */\n      0x00\n        /* \"#utility.yul\":577:623   */\n      tag_57\n        /* \"#utility.yul\":619:622   */\n      dup4\n        /* \"#utility.yul\":611:617   */\n      dup4\n        /* \"#utility.yul\":577:623   */\n      tag_58\n      jump\t// in\n    tag_57:\n        /* \"#utility.yul\":655:659   */\n      0x20\n        /* \"#utility.yul\":650:653   */\n      dup4\n        /* \"#utility.yul\":646:660   */\n      add\n        /* \"#utility.yul\":632:660   */\n      swap1\n      pop\n        /* \"#utility.yul\":487:666   */\n      swap3\n      swap2\n      pop\n      pop\n      jump\t// out\n        /* \"#utility.yul\":702:1434   */\n    tag_59:\n        /* \"#utility.yul\":821:824   */\n      0x00\n        /* \"#utility.yul\":850:904   */\n      tag_61\n        /* \"#utility.yul\":898:903   */\n      dup3\n        /* \"#utility.yul\":850:904   */\n      tag_62\n      jump\t// in\n    tag_61:\n        /* \"#utility.yul\":920:1006   */\n      tag_63\n        /* \"#utility.yul\":999:1005   */\n      dup2\n        /* \"#utility.yul\":994:997   */\n      dup6\n        /* \"#utility.yul\":920:1006   */\n      tag_64\n      jump\t// in\n    tag_63:\n        /* \"#utility.yul\":913:1006   */\n      swap4\n      pop\n        /* \"#utility.yul\":1030:1086   */\n      tag_65\n        /* \"#utility.yul\":1080:1085   */\n      dup4\n        /* \"#utility.yul\":1030:1086   */\n      tag_66\n      jump\t// in\n    tag_65:\n        /* \"#utility.yul\":1109:1116   */\n      dup1\n        /* \"#utility.yul\":1140:1141   */\n      0x00\n        /* \"#utility.yul\":1125:1409   */\n    tag_67:\n        /* \"#utility.yul\":1150:1156   */\n      dup4\n        /* \"#utility.yul\":1147:1148   */\n      dup2\n        /* \"#utility.yul\":1144:1157   */\n      lt\n        /* \"#utility.yul\":1125:1409   */\n      iszero\n      tag_69\n      jumpi\n        /* \"#utility.yul\":1226:1232   */\n      dup2\n        /* \"#utility.yul\":1220:1233   */\n      mload\n        /* \"#utility.yul\":1253:1316   */\n      tag_70\n        /* \"#utility.yul\":1312:1315   */\n      dup9\n        /* \"#utility.yul\":1297:1310   */\n      dup3\n        /* \"#utility.yul\":1253:1316   */\n      tag_55\n      jump\t// in\n    tag_70:\n        /* \"#utility.yul\":1246:1316   */\n      swap8\n      pop\n        /* \"#utility.yul\":1339:1399   */\n      tag_71\n        /* \"#utility.yul\":1392:1398   */\n      dup4\n        /* \"#utility.yul\":1339:1399   */\n      tag_72\n      jump\t// in\n    tag_71:\n        /* \"#utility.yul\":1329:1399   */\n      swap3\n      pop\n        /* \"#utility.yul\":1185:1409   */\n      pop\n        /* \"#utility.yul\":1172:1173   */\n      0x01\n        /* \"#utility.yul\":1169:1170   */\n      dup2\n        /* \"#utility.yul\":1165:1174   */\n      add\n        /* \"#utility.yul\":1160:1174   */\n      swap1\n      pop\n        /* \"#utility.yul\":1125:1409   */\n      jump(tag_67)\n    tag_69:\n        /* \"#utility.yul\":1129:1143   */\n      pop\n        /* \"#utility.yul\":1425:1428   */\n      dup6\n        /* \"#utility.yul\":1418:1428   */\n      swap4\n      pop\n        /* \"#utility.yul\":826:1434   */\n      pop\n      pop\n      pop\n        /* \"#utility.yul\":702:1434   */\n      swap3\n      swap2\n      pop\n      pop\n      jump\t// out\n        /* \"#utility.yul\":1440:1548   */\n    tag_58:\n        /* \"#utility.yul\":1517:1541   */\n      tag_74\n        /* \"#utility.yul\":1535:1540   */\n      dup2\n        /* \"#utility.yul\":1517:1541   */\n      tag_75\n      jump\t// in\n    tag_74:\n        /* \"#utility.yul\":1512:1515   */\n      dup3\n        /* \"#utility.yul\":1505:1542   */\n      mstore\n        /* \"#utility.yul\":1440:1548   */\n      pop\n      pop\n      jump\t// out\n        /* \"#utility.yul\":1554:1672   */\n    tag_76:\n        /* \"#utility.yul\":1641:1665   */\n      tag_78\n        /* \"#utility.yul\":1659:1664   */\n      dup2\n        /* \"#utility.yul\":1641:1665   */\n      tag_75\n      jump\t// in\n    tag_78:\n        /* \"#utility.yul\":1636:1639   */\n      dup3\n        /* \"#utility.yul\":1629:1666   */\n      mstore\n        /* \"#utility.yul\":1554:1672   */\n      pop\n      pop\n      jump\t// out\n        /* \"#utility.yul\":1678:2051   */\n    tag_20:\n        /* \"#utility.yul\":1821:1825   */\n      0x00\n        /* \"#utility.yul\":1859:1861   */\n      0x20\n        /* \"#utility.yul\":1848:1857   */\n      dup3\n        /* \"#utility.yul\":1844:1862   */\n      add\n        /* \"#utility.yul\":1836:1862   */\n      swap1\n      pop\n        /* \"#utility.yul\":1908:1917   */\n      dup2\n        /* \"#utility.yul\":1902:1906   */\n      dup2\n        /* \"#utility.yul\":1898:1918   */\n      sub\n        /* \"#utility.yul\":1894:1895   */\n      0x00\n        /* \"#utility.yul\":1883:1892   */\n      dup4\n        /* \"#utility.yul\":1879:1896   */\n      add\n        /* \"#utility.yul\":1872:1919   */\n      mstore\n        /* \"#utility.yul\":1936:2044   */\n      tag_80\n        /* \"#utility.yul\":2039:2043   */\n      dup2\n        /* \"#utility.yul\":2030:2036   */\n      dup5\n        /* \"#utility.yul\":1936:2044   */\n      tag_59\n      jump\t// in\n    tag_80:\n        /* \"#utility.yul\":1928:2044   */\n      swap1\n      pop\n        /* \"#utility.yul\":1678:2051   */\n      swap3\n      swap2\n      pop\n      pop\n      jump\t// out\n        /* \"#utility.yul\":2057:2279   */\n    tag_14:\n        /* \"#utility.yul\":2150:2154   */\n      0x00\n        /* \"#utility.yul\":2188:2190   */\n      0x20\n        /* \"#utility.yul\":2177:2186   */\n      dup3\n        /* \"#utility.yul\":2173:2191   */\n      add\n        /* \"#utility.yul\":2165:2191   */\n      swap1\n      pop\n        /* \"#utility.yul\":2201:2272   */\n      tag_82\n        /* \"#utility.yul\":2269:2270   */\n      0x00\n        /* \"#utility.yul\":2258:2267   */\n      dup4\n        /* \"#utility.yul\":2254:2271   */\n      add\n        /* \"#utility.yul\":2245:2251   */\n      dup5\n        /* \"#utility.yul\":2201:2272   */\n      tag_76\n      jump\t// in\n    tag_82:\n        /* \"#utility.yul\":2057:2279   */\n      swap3\n      swap2\n      pop\n      pop\n      jump\t// out\n        /* \"#utility.yul\":2366:2498   */\n    tag_66:\n        /* \"#utility.yul\":2433:2437   */\n      0x00\n        /* \"#utility.yul\":2456:2459   */\n      dup2\n        /* \"#utility.yul\":2448:2459   */\n      swap1\n      pop\n        /* \"#utility.yul\":2486:2490   */\n      0x20\n        /* \"#utility.yul\":2481:2484   */\n      dup3\n        /* \"#utility.yul\":2477:2491   */\n      add\n        /* \"#utility.yul\":2469:2491   */\n      swap1\n      pop\n        /* \"#utility.yul\":2366:2498   */\n      swap2\n      swap1\n      pop\n      jump\t// out\n        /* \"#utility.yul\":2504:2618   */\n    tag_62:\n        /* \"#utility.yul\":2571:2577   */\n      0x00\n        /* \"#utility.yul\":2605:2610   */\n      dup2\n        /* \"#utility.yul\":2599:2611   */\n      mload\n        /* \"#utility.yul\":2589:2611   */\n      swap1\n      pop\n        /* \"#utility.yul\":2504:2618   */\n      swap2\n      swap1\n      pop\n      jump\t// out\n        /* \"#utility.yul\":2624:2737   */\n    tag_72:\n        /* \"#utility.yul\":2694:2698   */\n      0x00\n        /* \"#utility.yul\":2726:2730   */\n      0x20\n        /* \"#utility.yul\":2721:2724   */\n      dup3\n        /* \"#utility.yul\":2717:2731   */\n      add\n        /* \"#utility.yul\":2709:2731   */\n      swap1\n      pop\n        /* \"#utility.yul\":2624:2737   */\n      swap2\n      swap1\n      pop\n      jump\t// out\n        /* \"#utility.yul\":2743:2927   */\n    tag_64:\n        /* \"#utility.yul\":2842:2853   */\n      0x00\n        /* \"#utility.yul\":2876:2882   */\n      dup3\n        /* \"#utility.yul\":2871:2874   */\n      dup3\n        /* \"#utility.yul\":2864:2883   */\n      mstore\n        /* \"#utility.yul\":2916:2920   */\n      0x20\n        /* \"#utility.yul\":2911:2914   */\n      dup3\n        /* \"#utility.yul\":2907:2921   */\n      add\n        /* \"#utility.yul\":2892:2921   */\n      swap1\n      pop\n        /* \"#utility.yul\":2743:2927   */\n      swap3\n      swap2\n      pop\n      pop\n      jump\t// out\n        /* \"#utility.yul\":2933:3010   */\n    tag_75:\n        /* \"#utility.yul\":2970:2977   */\n      0x00\n        /* \"#utility.yul\":2999:3004   */\n      dup2\n        /* \"#utility.yul\":2988:3004   */\n      swap1\n      pop\n        /* \"#utility.yul\":2933:3010   */\n      swap2\n      swap1\n      pop\n      jump\t// out\n        /* \"#utility.yul\":3139:3256   */\n    tag_53:\n        /* \"#utility.yul\":3248:3249   */\n      0x00\n        /* \"#utility.yul\":3245:3246   */\n      dup1\n        /* \"#utility.yul\":3238:3250   */\n      revert\n        /* \"#utility.yul\":3262:3384   */\n    tag_49:\n        /* \"#utility.yul\":3335:3359   */\n      tag_94\n        /* \"#utility.yul\":3353:3358   */\n      dup2\n        /* \"#utility.yul\":3335:3359   */\n      tag_75\n      jump\t// in\n    tag_94:\n        /* \"#utility.yul\":3328:3333   */\n      dup2\n        /* \"#utility.yul\":3325:3360   */\n      eq\n        /* \"#utility.yul\":3315:3378   */\n      tag_95\n      jumpi\n        /* \"#utility.yul\":3374:3375   */\n      0x00\n        /* \"#utility.yul\":3371:3372   */\n      dup1\n        /* \"#utility.yul\":3364:3376   */\n      revert\n        /* \"#utility.yul\":3315:3378   */\n    tag_95:\n        /* \"#utility.yul\":3262:3384   */\n      pop\n      jump\t// out\n\n    auxdata: 0xa2646970667358221220ec364bb2c443b70aca9e553940a94a065e0425482c992dd08454ee4bdf7c517264736f6c63430008070033\n}\n",
				"bytecode": {
					"linkReferences": {},
					"object": "60806040526040518060400160405280600160ff168152602001600260ff16815250600490600261003192919061007c565b506040518060600160405280600360ff168152602001600460ff168152602001600560ff1681525060059060036100699291906100ce565b5034801561007657600080fd5b50610130565b8280548282559060005260206000209081019282156100bd579160200282015b828111156100bc578251829060ff1690559160200191906001019061009c565b5b5090506100ca9190610113565b5090565b8260038101928215610102579160200282015b82811115610101578251829060ff169055916020019190600101906100e1565b5b50905061010f9190610113565b5090565b5b8082111561012c576000816000905550600101610114565b5090565b6103cf8061013f6000396000f3fe608060405234801561001057600080fd5b50600436106100625760003560e01c80635331fdeb1461006757806354353f2f1461009757806388046c6a146100a15780638e3abf4e146100bf578063aa228b75146100ef578063b5e9c6c91461011f575b600080fd5b610081600480360381019061007c919061023c565b61014f565b60405161008e919061031f565b60405180910390f35b61009f61016a565b005b6100a961016c565b6040516100b691906102fd565b60405180910390f35b6100d960048036038101906100d4919061023c565b6101c4565b6040516100e6919061031f565b60405180910390f35b6101096004803603810190610104919061023c565b6101e8565b604051610116919061031f565b60405180910390f35b6101396004803603810190610134919061023c565b61020c565b604051610146919061031f565b60405180910390f35b6001816003811061015f57600080fd5b016000915090505481565b565b606060008054806020026020016040519081016040528092919081815260200182805480156101ba57602002820191906000526020600020905b8154815260200190600101908083116101a6575b5050505050905090565b600481815481106101d457600080fd5b906000526020600020016000915090505481565b600081815481106101f857600080fd5b906000526020600020016000915090505481565b6005816003811061021c57600080fd5b016000915090505481565b60008135905061023681610382565b92915050565b6000602082840312156102525761025161037d565b5b600061026084828501610227565b91505092915050565b600061027583836102df565b60208301905092915050565b600061028c8261034a565b6102968185610362565b93506102a18361033a565b8060005b838110156102d25781516102b98882610269565b97506102c483610355565b9250506001810190506102a5565b5085935050505092915050565b6102e881610373565b82525050565b6102f781610373565b82525050565b600060208201905081810360008301526103178184610281565b905092915050565b600060208201905061033460008301846102ee565b92915050565b6000819050602082019050919050565b600081519050919050565b6000602082019050919050565b600082825260208201905092915050565b6000819050919050565b600080fd5b61038b81610373565b811461039657600080fd5b5056fea2646970667358221220ec364bb2c443b70aca9e553940a94a065e0425482c992dd08454ee4bdf7c517264736f6c63430008070033",
					"opcodes": "PUSH1 0x80 PUSH1 0x40 MSTORE PUSH1 0x40 MLOAD DUP1 PUSH1 0x40 ADD PUSH1 0x40 MSTORE DUP1 PUSH1 0x1 PUSH1 0xFF AND DUP2 MSTORE PUSH1 0x20 ADD PUSH1 0x2 PUSH1 0xFF AND DUP2 MSTORE POP PUSH1 0x4 SWAP1 PUSH1 0x2 PUSH2 0x31 SWAP3 SWAP2 SWAP1 PUSH2 0x7C JUMP JUMPDEST POP PUSH1 0x40 MLOAD DUP1 PUSH1 0x60 ADD PUSH1 0x40 MSTORE DUP1 PUSH1 0x3 PUSH1 0xFF AND DUP2 MSTORE PUSH1 0x20 ADD PUSH1 0x4 PUSH1 0xFF AND DUP2 MSTORE PUSH1 0x20 ADD PUSH1 0x5 PUSH1 0xFF AND DUP2 MSTORE POP PUSH1 0x5 SWAP1 PUSH1 0x3 PUSH2 0x69 SWAP3 SWAP2 SWAP1 PUSH2 0xCE JUMP JUMPDEST POP CALLVALUE DUP1 ISZERO PUSH2 0x76 JUMPI PUSH1 0x0 DUP1 REVERT JUMPDEST POP PUSH2 0x130 JUMP JUMPDEST DUP3 DUP1 SLOAD DUP3 DUP3 SSTORE SWAP1 PUSH1 0x0 MSTORE PUSH1 0x20 PUSH1 0x0 KECCAK256 SWAP1 DUP2 ADD SWAP3 DUP3 ISZERO PUSH2 0xBD JUMPI SWAP2 PUSH1 0x20 MUL DUP3 ADD JUMPDEST DUP3 DUP2 GT ISZERO PUSH2 0xBC JUMPI DUP3 MLOAD DUP3 SWAP1 PUSH1 0xFF AND SWAP1 SSTORE SWAP2 PUSH1 0x20 ADD SWAP2 SWAP1 PUSH1 0x1 ADD SWAP1 PUSH2 0x9C JUMP JUMPDEST JUMPDEST POP SWAP1 POP PUSH2 0xCA SWAP2 SWAP1 PUSH2 0x113 JUMP JUMPDEST POP SWAP1 JUMP JUMPDEST DUP3 PUSH1 0x3 DUP2 ADD SWAP3 DUP3 ISZERO PUSH2 0x102 JUMPI SWAP2 PUSH1 0x20 MUL DUP3 ADD JUMPDEST DUP3 DUP2 GT ISZERO PUSH2 0x101 JUMPI DUP3 MLOAD DUP3 SWAP1 PUSH1 0xFF AND SWAP1 SSTORE SWAP2 PUSH1 0x20 ADD SWAP2 SWAP1 PUSH1 0x1 ADD SWAP1 PUSH2 0xE1 JUMP JUMPDEST JUMPDEST POP SWAP1 POP PUSH2 0x10F SWAP2 SWAP1 PUSH2 0x113 JUMP JUMPDEST POP SWAP1 JUMP JUMPDEST JUMPDEST DUP1 DUP3 GT ISZERO PUSH2 0x12C JUMPI PUSH1 0x0 DUP2 PUSH1 0x0 SWAP1 SSTORE POP PUSH1 0x1 ADD PUSH2 0x114 JUMP JUMPDEST POP SWAP1 JUMP JUMPDEST PUSH2 0x3CF DUP1 PUSH2 0x13F PUSH1 0x0 CODECOPY PUSH1 0x0 RETURN INVALID PUSH1 0x80 PUSH1 0x40 MSTORE CALLVALUE DUP1 ISZERO PUSH2 0x10 JUMPI PUSH1 0x0 DUP1 REVERT JUMPDEST POP PUSH1 0x4 CALLDATASIZE LT PUSH2 0x62 JUMPI PUSH1 0x0 CALLDATALOAD PUSH1 0xE0 SHR DUP1 PUSH4 0x5331FDEB EQ PUSH2 0x67 JUMPI DUP1 PUSH4 0x54353F2F EQ PUSH2 0x97 JUMPI DUP1 PUSH4 0x88046C6A EQ PUSH2 0xA1 JUMPI DUP1 PUSH4 0x8E3ABF4E EQ PUSH2 0xBF JUMPI DUP1 PUSH4 0xAA228B75 EQ PUSH2 0xEF JUMPI DUP1 PUSH4 0xB5E9C6C9 EQ PUSH2 0x11F JUMPI JUMPDEST PUSH1 0x0 DUP1 REVERT JUMPDEST PUSH2 0x81 PUSH1 0x4 DUP1 CALLDATASIZE SUB DUP2 ADD SWAP1 PUSH2 0x7C SWAP2 SWAP1 PUSH2 0x23C JUMP JUMPDEST PUSH2 0x14F JUMP JUMPDEST PUSH1 0x40 MLOAD PUSH2 0x8E SWAP2 SWAP1 PUSH2 0x31F JUMP JUMPDEST PUSH1 0x40 MLOAD DUP1 SWAP2 SUB SWAP1 RETURN JUMPDEST PUSH2 0x9F PUSH2 0x16A JUMP JUMPDEST STOP JUMPDEST PUSH2 0xA9 PUSH2 0x16C JUMP JUMPDEST PUSH1 0x40 MLOAD PUSH2 0xB6 SWAP2 SWAP1 PUSH2 0x2FD JUMP JUMPDEST PUSH1 0x40 MLOAD DUP1 SWAP2 SUB SWAP1 RETURN JUMPDEST PUSH2 0xD9 PUSH1 0x4 DUP1 CALLDATASIZE SUB DUP2 ADD SWAP1 PUSH2 0xD4 SWAP2 SWAP1 PUSH2 0x23C JUMP JUMPDEST PUSH2 0x1C4 JUMP JUMPDEST PUSH1 0x40 MLOAD PUSH2 0xE6 SWAP2 SWAP1 PUSH2 0x31F JUMP JUMPDEST PUSH1 0x40 MLOAD DUP1 SWAP2 SUB SWAP1 RETURN JUMPDEST PUSH2 0x109 PUSH1 0x4 DUP1 CALLDATASIZE SUB DUP2 ADD SWAP1 PUSH2 0x104 SWAP2 SWAP1 PUSH2 0x23C JUMP JUMPDEST PUSH2 0x1E8 JUMP JUMPDEST PUSH1 0x40 MLOAD PUSH2 0x116 SWAP2 SWAP1 PUSH2 0x31F JUMP JUMPDEST PUSH1 0x40 MLOAD DUP1 SWAP2 SUB SWAP1 RETURN JUMPDEST PUSH2 0x139 PUSH1 0x4 DUP1 CALLDATASIZE SUB DUP2 ADD SWAP1 PUSH2 0x134 SWAP2 SWAP1 PUSH2 0x23C JUMP JUMPDEST PUSH2 0x20C JUMP JUMPDEST PUSH1 0x40 MLOAD PUSH2 0x146 SWAP2 SWAP1 PUSH2 0x31F JUMP JUMPDEST PUSH1 0x40 MLOAD DUP1 SWAP2 SUB SWAP1 RETURN JUMPDEST PUSH1 0x1 DUP2 PUSH1 0x3 DUP2 LT PUSH2 0x15F JUMPI PUSH1 0x0 DUP1 REVERT JUMPDEST ADD PUSH1 0x0 SWAP2 POP SWAP1 POP SLOAD DUP2 JUMP JUMPDEST JUMP JUMPDEST PUSH1 0x60 PUSH1 0x0 DUP1 SLOAD DUP1 PUSH1 0x20 MUL PUSH1 0x20 ADD PUSH1 0x40 MLOAD SWAP1 DUP2 ADD PUSH1 0x40 MSTORE DUP1 SWAP3 SWAP2 SWAP1 DUP2 DUP2 MSTORE PUSH1 0x20 ADD DUP3 DUP1 SLOAD DUP1 ISZERO PUSH2 0x1BA JUMPI PUSH1 0x20 MUL DUP3 ADD SWAP2 SWAP1 PUSH1 0x0 MSTORE PUSH1 0x20 PUSH1 0x0 KECCAK256 SWAP1 JUMPDEST DUP2 SLOAD DUP2 MSTORE PUSH1 0x20 ADD SWAP1 PUSH1 0x1 ADD SWAP1 DUP1 DUP4 GT PUSH2 0x1A6 JUMPI JUMPDEST POP POP POP POP POP SWAP1 POP SWAP1 JUMP JUMPDEST PUSH1 0x4 DUP2 DUP2 SLOAD DUP2 LT PUSH2 0x1D4 JUMPI PUSH1 0x0 DUP1 REVERT JUMPDEST SWAP1 PUSH1 0x0 MSTORE PUSH1 0x20 PUSH1 0x0 KECCAK256 ADD PUSH1 0x0 SWAP2 POP SWAP1 POP SLOAD DUP2 JUMP JUMPDEST PUSH1 0x0 DUP2 DUP2 SLOAD DUP2 LT PUSH2 0x1F8 JUMPI PUSH1 0x0 DUP1 REVERT JUMPDEST SWAP1 PUSH1 0x0 MSTORE PUSH1 0x20 PUSH1 0x0 KECCAK256 ADD PUSH1 0x0 SWAP2 POP SWAP1 POP SLOAD DUP2 JUMP JUMPDEST PUSH1 0x5 DUP2 PUSH1 0x3 DUP2 LT PUSH2 0x21C JUMPI PUSH1 0x0 DUP1 REVERT JUMPDEST ADD PUSH1 0x0 SWAP2 POP SWAP1 POP SLOAD DUP2 JUMP JUMPDEST PUSH1 0x0 DUP2 CALLDATALOAD SWAP1 POP PUSH2 0x236 DUP2 PUSH2 0x382 JUMP JUMPDEST SWAP3 SWAP2 POP POP JUMP JUMPDEST PUSH1 0x0 PUSH1 0x20 DUP3 DUP5 SUB SLT ISZERO PUSH2 0x252 JUMPI PUSH2 0x251 PUSH2 0x37D JUMP JUMPDEST JUMPDEST PUSH1 0x0 PUSH2 0x260 DUP5 DUP3 DUP6 ADD PUSH2 0x227 JUMP JUMPDEST SWAP2 POP POP SWAP3 SWAP2 POP POP JUMP JUMPDEST PUSH1 0x0 PUSH2 0x275 DUP4 DUP4 PUSH2 0x2DF JUMP JUMPDEST PUSH1 0x20 DUP4 ADD SWAP1 POP SWAP3 SWAP2 POP POP JUMP JUMPDEST PUSH1 0x0 PUSH2 0x28C DUP3 PUSH2 0x34A JUMP JUMPDEST PUSH2 0x296 DUP2 DUP6 PUSH2 0x362 JUMP JUMPDEST SWAP4 POP PUSH2 0x2A1 DUP4 PUSH2 0x33A JUMP JUMPDEST DUP1 PUSH1 0x0 JUMPDEST DUP4 DUP2 LT ISZERO PUSH2 0x2D2 JUMPI DUP2 MLOAD PUSH2 0x2B9 DUP9 DUP3 PUSH2 0x269 JUMP JUMPDEST SWAP8 POP PUSH2 0x2C4 DUP4 PUSH2 0x355 JUMP JUMPDEST SWAP3 POP POP PUSH1 0x1 DUP2 ADD SWAP1 POP PUSH2 0x2A5 JUMP JUMPDEST POP DUP6 SWAP4 POP POP POP POP SWAP3 SWAP2 POP POP JUMP JUMPDEST PUSH2 0x2E8 DUP2 PUSH2 0x373 JUMP JUMPDEST DUP3 MSTORE POP POP JUMP JUMPDEST PUSH2 0x2F7 DUP2 PUSH2 0x373 JUMP JUMPDEST DUP3 MSTORE POP POP JUMP JUMPDEST PUSH1 0x0 PUSH1 0x20 DUP3 ADD SWAP1 POP DUP2 DUP2 SUB PUSH1 0x0 DUP4 ADD MSTORE PUSH2 0x317 DUP2 DUP5 PUSH2 0x281 JUMP JUMPDEST SWAP1 POP SWAP3 SWAP2 POP POP JUMP JUMPDEST PUSH1 0x0 PUSH1 0x20 DUP3 ADD SWAP1 POP PUSH2 0x334 PUSH1 0x0 DUP4 ADD DUP5 PUSH2 0x2EE JUMP JUMPDEST SWAP3 SWAP2 POP POP JUMP JUMPDEST PUSH1 0x0 DUP2 SWAP1 POP PUSH1 0x20 DUP3 ADD SWAP1 POP SWAP2 SWAP1 POP JUMP JUMPDEST PUSH1 0x0 DUP2 MLOAD SWAP1 POP SWAP2 SWAP1 POP JUMP JUMPDEST PUSH1 0x0 PUSH1 0x20 DUP3 ADD SWAP1 POP SWAP2 SWAP1 POP JUMP JUMPDEST PUSH1 0x0 DUP3 DUP3 MSTORE PUSH1 0x20 DUP3 ADD SWAP1 POP SWAP3 SWAP2 POP POP JUMP JUMPDEST PUSH1 0x0 DUP2 SWAP1 POP SWAP2 SWAP1 POP JUMP JUMPDEST PUSH1 0x0 DUP1 REVERT JUMPDEST PUSH2 0x38B DUP2 PUSH2 0x373 JUMP JUMPDEST DUP2 EQ PUSH2 0x396 JUMPI PUSH1 0x0 DUP1 REVERT JUMPDEST POP JUMP INVALID LOG2 PUSH5 0x6970667358 0x22 SLT KECCAK256 0xEC CALLDATASIZE 0x4B 0xB2 0xC4 NUMBER 0xB7 EXP 0xCA SWAP15 SSTORE CODECOPY BLOCKHASH 0xA9 0x4A MOD 0x5E DIV 0x25 BASEFEE 0x2C SWAP10 0x2D 0xD0 DUP5 SLOAD 0xEE 0x4B 0xDF PUSH29 0x517264736F6C6343000807003300000000000000000000000000000000 "
				},
				"gasEstimates": {
					"creation": {
						"codeDepositCost": "195000",
						"executionCost": "infinite",
						"totalCost": "infinite"
					},
					"external": {
						"example()": "144",
						"num(uint256)": "infinite",
						"num1(uint256)": "infinite",
						"numFixed(uint256)": "infinite",
						"numFixed1(uint256)": "infinite",
						"returnArr()": "infinite"
					}
				},
				"methodIdentifiers": {
					"example()": "54353f2f",
					"num(uint256)": "aa228b75",
					"num1(uint256)": "8e3abf4e",
					"numFixed(uint256)": "5331fdeb",
					"numFixed1(uint256)": "b5e9c6c9",
					"returnArr()": "88046c6a"
				}
			},
			"storageLayout": {
				"storage": [
					{
						"astId": 4,
						"contract": "code6/1array.sol:testArray",
						"label": "num",
						"offset": 0,
						"slot": "0",
						"type": "t_array(t_uint256)dyn_storage"
					},
					{
						"astId": 8,
						"contract": "code6/1array.sol:testArray",
						"label": "numFixed",
						"offset": 0,
						"slot": "1",
						"type": "t_array(t_uint256)3_storage"
					},
					{
						"astId": 14,
						"contract": "code6/1array.sol:testArray",
						"label": "num1",
						"offset": 0,
						"slot": "4",
						"type": "t_array(t_uint256)dyn_storage"
					},
					{
						"astId": 22,
						"contract": "code6/1array.sol:testArray",
						"label": "numFixed1",
						"offset": 0,
						"slot": "5",
						"type": "t_array(t_uint256)3_storage"
					}
				],
				"types": {
					"t_array(t_uint256)3_storage": {
						"base": "t_uint256",
						"encoding": "inplace",
						"label": "uint256[3]",
						"numberOfBytes": "96"
					},
					"t_array(t_uint256)dyn_storage": {
						"base": "t_uint256",
						"encoding": "dynamic_array",
						"label": "uint256[]",
						"numberOfBytes": "32"
					},
					"t_uint256": {
						"encoding": "inplace",
						"label": "uint256",
						"numberOfBytes": "32"
					}
				}
			},
			"userdoc": {
				"kind": "user",
				"methods": {},
				"version": 1
			}
		}
	}
}