{
	"code6/2delete.sol": {
		"testArry": {
			"abi": [
				{
					"inputs": [
						{
							"internalType": "uint256",
							"name": "",
							"type": "uint256"
						}
					],
					"name": "arr",
					"outputs": [
						{
							"internalType": "uint256",
							"name": "",
							"type": "uint256"
						}
					],
					"stateMutability": "view",
					"type": "function"
				},
				{
					"inputs": [],
					"name": "example",
					"outputs": [],
					"stateMutability": "nonpayable",
					"type": "function"
				},
				{
					"inputs": [
						{
							"internalType": "uint256",
							"name": "_index",
							"type": "uint256"
						}
					],
					"name": "remove",
					"outputs": [],
					"stateMutability": "nonpayable",
					"type": "function"
				},
				{
					"inputs": [],
					"name": "test",
					"outputs": [],
					"stateMutability": "nonpayable",
					"type": "function"
				}
			],
			"devdoc": {
				"kind": "dev",
				"methods": {},
				"version": 1
			},
			"evm": {
				"assembly": "    /* \"code6/2delete.sol\":55:559  contract testArry{... */\n  mstore(0x40, 0x80)\n  callvalue\n  dup1\n  iszero\n  tag_1\n  jumpi\n  0x00\n  dup1\n  revert\ntag_1:\n  pop\n  dataSize(sub_0)\n  dup1\n  dataOffset(sub_0)\n  0x00\n  codecopy\n  0x00\n  return\nstop\n\nsub_0: assembly {\n        /* \"code6/2delete.sol\":55:559  contract testArry{... */\n      mstore(0x40, 0x80)\n      callvalue\n      dup1\n      iszero\n      tag_1\n      jumpi\n      0x00\n      dup1\n      revert\n    tag_1:\n      pop\n      jumpi(tag_2, lt(calldatasize, 0x04))\n      shr(0xe0, calldataload(0x00))\n      dup1\n      0x4cc82215\n      eq\n      tag_3\n      jumpi\n      dup1\n      0x54353f2f\n      eq\n      tag_4\n      jumpi\n      dup1\n      0x71e5ee5f\n      eq\n      tag_5\n      jumpi\n      dup1\n      0xf8a8fd6d\n      eq\n      tag_6\n      jumpi\n    tag_2:\n      0x00\n      dup1\n      revert\n        /* \"code6/2delete.sol\":312:511  function remove(uint _index)external{... */\n    tag_3:\n      tag_7\n      0x04\n      dup1\n      calldatasize\n      sub\n      dup2\n      add\n      swap1\n      tag_8\n      swap2\n      swap1\n      tag_9\n      jump\t// in\n    tag_8:\n      tag_10\n      jump\t// in\n    tag_7:\n      stop\n        /* \"code6/2delete.sol\":101:197  function example()external {... */\n    tag_4:\n      tag_11\n      tag_12\n      jump\t// in\n    tag_11:\n      stop\n        /* \"code6/2delete.sol\":78:95  uint[] public arr */\n    tag_5:\n      tag_13\n      0x04\n      dup1\n      calldatasize\n      sub\n      dup2\n      add\n      swap1\n      tag_14\n      swap2\n      swap1\n      tag_9\n      jump\t// in\n    tag_14:\n      tag_15\n      jump\t// in\n    tag_13:\n      mload(0x40)\n      tag_16\n      swap2\n      swap1\n      tag_17\n      jump\t// in\n    tag_16:\n      mload(0x40)\n      dup1\n      swap2\n      sub\n      swap1\n      return\n        /* \"code6/2delete.sol\":518:557  function test()external{... */\n    tag_6:\n      tag_18\n      tag_19\n      jump\t// in\n    tag_18:\n      stop\n        /* \"code6/2delete.sol\":312:511  function remove(uint _index)external{... */\n    tag_10:\n        /* \"code6/2delete.sol\":373:376  arr */\n      0x00\n        /* \"code6/2delete.sol\":373:383  arr.length */\n      dup1\n      sload\n      swap1\n      pop\n        /* \"code6/2delete.sol\":366:372  _index */\n      dup2\n        /* \"code6/2delete.sol\":366:383  _index<arr.length */\n      lt\n        /* \"code6/2delete.sol\":358:399  require(_index<arr.length,\"error _index\") */\n      tag_21\n      jumpi\n      mload(0x40)\n      0x08c379a000000000000000000000000000000000000000000000000000000000\n      dup2\n      mstore\n      0x04\n      add\n      tag_22\n      swap1\n      tag_23\n      jump\t// in\n    tag_22:\n      mload(0x40)\n      dup1\n      swap2\n      sub\n      swap1\n      revert\n    tag_21:\n        /* \"code6/2delete.sol\":414:420  uint i */\n      0x00\n        /* \"code6/2delete.sol\":422:428  _index */\n      dup2\n        /* \"code6/2delete.sol\":414:428  uint i =_index */\n      swap1\n      pop\n        /* \"code6/2delete.sol\":409:486  for (uint i =_index;i<arr.length;i++){... */\n    tag_24:\n        /* \"code6/2delete.sol\":431:434  arr */\n      0x00\n        /* \"code6/2delete.sol\":431:441  arr.length */\n      dup1\n      sload\n      swap1\n      pop\n        /* \"code6/2delete.sol\":429:430  i */\n      dup2\n        /* \"code6/2delete.sol\":429:441  i<arr.length */\n      lt\n        /* \"code6/2delete.sol\":409:486  for (uint i =_index;i<arr.length;i++){... */\n      iszero\n      tag_25\n      jumpi\n        /* \"code6/2delete.sol\":467:470  arr */\n      0x00\n        /* \"code6/2delete.sol\":473:474  1 */\n      0x01\n        /* \"code6/2delete.sol\":471:472  i */\n      dup3\n        /* \"code6/2delete.sol\":471:474  i+1 */\n      tag_27\n      swap2\n      swap1\n      tag_28\n      jump\t// in\n    tag_27:\n        /* \"code6/2delete.sol\":467:475  arr[i+1] */\n      dup2\n      sload\n      dup2\n      lt\n      tag_29\n      jumpi\n      tag_30\n      tag_31\n      jump\t// in\n    tag_30:\n    tag_29:\n      swap1\n      0x00\n      mstore\n      keccak256(0x00, 0x20)\n      add\n      sload\n        /* \"code6/2delete.sol\":460:463  arr */\n      0x00\n        /* \"code6/2delete.sol\":464:465  i */\n      dup3\n        /* \"code6/2delete.sol\":460:466  arr[i] */\n      dup2\n      sload\n      dup2\n      lt\n      tag_33\n      jumpi\n      tag_34\n      tag_31\n      jump\t// in\n    tag_34:\n    tag_33:\n      swap1\n      0x00\n      mstore\n      keccak256(0x00, 0x20)\n      add\n        /* \"code6/2delete.sol\":460:475  arr[i]=arr[i+1] */\n      dup2\n      swap1\n      sstore\n      pop\n        /* \"code6/2delete.sol\":442:445  i++ */\n      dup1\n      dup1\n      tag_36\n      swap1\n      tag_37\n      jump\t// in\n    tag_36:\n      swap2\n      pop\n      pop\n        /* \"code6/2delete.sol\":409:486  for (uint i =_index;i<arr.length;i++){... */\n      jump(tag_24)\n    tag_25:\n      pop\n        /* \"code6/2delete.sol\":495:498  arr */\n      0x00\n        /* \"code6/2delete.sol\":495:504  arr.pop() */\n      dup1\n      sload\n      dup1\n      tag_38\n      jumpi\n      tag_39\n      tag_40\n      jump\t// in\n    tag_39:\n    tag_38:\n      0x01\n      swap1\n      sub\n      dup2\n      dup2\n      swap1\n      0x00\n      mstore\n      keccak256(0x00, 0x20)\n      add\n      0x00\n      swap1\n      sstore\n      swap1\n      sstore\n        /* \"code6/2delete.sol\":312:511  function remove(uint _index)external{... */\n      pop\n      jump\t// out\n        /* \"code6/2delete.sol\":101:197  function example()external {... */\n    tag_12:\n        /* \"code6/2delete.sol\":138:150  arr= [1,2,3] */\n      mload(0x40)\n      dup1\n      0x60\n      add\n      0x40\n      mstore\n      dup1\n        /* \"code6/2delete.sol\":144:145  1 */\n      0x01\n        /* \"code6/2delete.sol\":138:150  arr= [1,2,3] */\n      0xff\n      and\n      dup2\n      mstore\n      0x20\n      add\n        /* \"code6/2delete.sol\":146:147  2 */\n      0x02\n        /* \"code6/2delete.sol\":138:150  arr= [1,2,3] */\n      0xff\n      and\n      dup2\n      mstore\n      0x20\n      add\n        /* \"code6/2delete.sol\":148:149  3 */\n      0x03\n        /* \"code6/2delete.sol\":138:150  arr= [1,2,3] */\n      0xff\n      and\n      dup2\n      mstore\n      pop\n        /* \"code6/2delete.sol\":138:141  arr */\n      0x00\n        /* \"code6/2delete.sol\":138:150  arr= [1,2,3] */\n      swap1\n      0x03\n      tag_43\n      swap3\n      swap2\n      swap1\n      tag_44\n      jump\t// in\n    tag_43:\n      pop\n        /* \"code6/2delete.sol\":167:170  arr */\n      0x00\n        /* \"code6/2delete.sol\":171:172  1 */\n      0x01\n        /* \"code6/2delete.sol\":167:173  arr[1] */\n      dup2\n      sload\n      dup2\n      lt\n      tag_45\n      jumpi\n      tag_46\n      tag_31\n      jump\t// in\n    tag_46:\n    tag_45:\n      swap1\n      0x00\n      mstore\n      keccak256(0x00, 0x20)\n      add\n        /* \"code6/2delete.sol\":160:173  delete arr[1] */\n      0x00\n      swap1\n      sstore\n        /* \"code6/2delete.sol\":101:197  function example()external {... */\n      jump\t// out\n        /* \"code6/2delete.sol\":78:95  uint[] public arr */\n    tag_15:\n      0x00\n      dup2\n      dup2\n      sload\n      dup2\n      lt\n      tag_48\n      jumpi\n      0x00\n      dup1\n      revert\n    tag_48:\n      swap1\n      0x00\n      mstore\n      keccak256(0x00, 0x20)\n      add\n      0x00\n      swap2\n      pop\n      swap1\n      pop\n      sload\n      dup2\n      jump\t// out\n        /* \"code6/2delete.sol\":518:557  function test()external{... */\n    tag_19:\n      jump\t// out\n    tag_44:\n      dup3\n      dup1\n      sload\n      dup3\n      dup3\n      sstore\n      swap1\n      0x00\n      mstore\n      keccak256(0x00, 0x20)\n      swap1\n      dup2\n      add\n      swap3\n      dup3\n      iszero\n      tag_51\n      jumpi\n      swap2\n      0x20\n      mul\n      dup3\n      add\n    tag_52:\n      dup3\n      dup2\n      gt\n      iszero\n      tag_53\n      jumpi\n      dup3\n      mload\n      dup3\n      swap1\n      0xff\n      and\n      swap1\n      sstore\n      swap2\n      0x20\n      add\n      swap2\n      swap1\n      0x01\n      add\n      swap1\n      jump(tag_52)\n    tag_53:\n    tag_51:\n      pop\n      swap1\n      pop\n      tag_54\n      swap2\n      swap1\n      tag_55\n      jump\t// in\n    tag_54:\n      pop\n      swap1\n      jump\t// out\n    tag_55:\n    tag_56:\n      dup1\n      dup3\n      gt\n      iszero\n      tag_57\n      jumpi\n      0x00\n      dup2\n      0x00\n      swap1\n      sstore\n      pop\n      0x01\n      add\n      jump(tag_56)\n    tag_57:\n      pop\n      swap1\n      jump\t// out\n        /* \"#utility.yul\":7:146   */\n    tag_59:\n        /* \"#utility.yul\":53:58   */\n      0x00\n        /* \"#utility.yul\":91:97   */\n      dup2\n        /* \"#utility.yul\":78:98   */\n      calldataload\n        /* \"#utility.yul\":69:98   */\n      swap1\n      pop\n        /* \"#utility.yul\":107:140   */\n      tag_61\n        /* \"#utility.yul\":134:139   */\n      dup2\n        /* \"#utility.yul\":107:140   */\n      tag_62\n      jump\t// in\n    tag_61:\n        /* \"#utility.yul\":7:146   */\n      swap3\n      swap2\n      pop\n      pop\n      jump\t// out\n        /* \"#utility.yul\":152:481   */\n    tag_9:\n        /* \"#utility.yul\":211:217   */\n      0x00\n        /* \"#utility.yul\":260:262   */\n      0x20\n        /* \"#utility.yul\":248:257   */\n      dup3\n        /* \"#utility.yul\":239:246   */\n      dup5\n        /* \"#utility.yul\":235:258   */\n      sub\n        /* \"#utility.yul\":231:263   */\n      slt\n        /* \"#utility.yul\":228:347   */\n      iszero\n      tag_64\n      jumpi\n        /* \"#utility.yul\":266:345   */\n      tag_65\n      tag_66\n      jump\t// in\n    tag_65:\n        /* \"#utility.yul\":228:347   */\n    tag_64:\n        /* \"#utility.yul\":386:387   */\n      0x00\n        /* \"#utility.yul\":411:464   */\n      tag_67\n        /* \"#utility.yul\":456:463   */\n      dup5\n        /* \"#utility.yul\":447:453   */\n      dup3\n        /* \"#utility.yul\":436:445   */\n      dup6\n        /* \"#utility.yul\":432:454   */\n      add\n        /* \"#utility.yul\":411:464   */\n      tag_59\n      jump\t// in\n    tag_67:\n        /* \"#utility.yul\":401:464   */\n      swap2\n      pop\n        /* \"#utility.yul\":357:474   */\n      pop\n        /* \"#utility.yul\":152:481   */\n      swap3\n      swap2\n      pop\n      pop\n      jump\t// out\n        /* \"#utility.yul\":487:853   */\n    tag_68:\n        /* \"#utility.yul\":629:632   */\n      0x00\n        /* \"#utility.yul\":650:717   */\n      tag_70\n        /* \"#utility.yul\":714:716   */\n      0x0c\n        /* \"#utility.yul\":709:712   */\n      dup4\n        /* \"#utility.yul\":650:717   */\n      tag_71\n      jump\t// in\n    tag_70:\n        /* \"#utility.yul\":643:717   */\n      swap2\n      pop\n        /* \"#utility.yul\":726:819   */\n      tag_72\n        /* \"#utility.yul\":815:818   */\n      dup3\n        /* \"#utility.yul\":726:819   */\n      tag_73\n      jump\t// in\n    tag_72:\n        /* \"#utility.yul\":844:846   */\n      0x20\n        /* \"#utility.yul\":839:842   */\n      dup3\n        /* \"#utility.yul\":835:847   */\n      add\n        /* \"#utility.yul\":828:847   */\n      swap1\n      pop\n        /* \"#utility.yul\":487:853   */\n      swap2\n      swap1\n      pop\n      jump\t// out\n        /* \"#utility.yul\":859:977   */\n    tag_74:\n        /* \"#utility.yul\":946:970   */\n      tag_76\n        /* \"#utility.yul\":964:969   */\n      dup2\n        /* \"#utility.yul\":946:970   */\n      tag_77\n      jump\t// in\n    tag_76:\n        /* \"#utility.yul\":941:944   */\n      dup3\n        /* \"#utility.yul\":934:971   */\n      mstore\n        /* \"#utility.yul\":859:977   */\n      pop\n      pop\n      jump\t// out\n        /* \"#utility.yul\":983:1402   */\n    tag_23:\n        /* \"#utility.yul\":1149:1153   */\n      0x00\n        /* \"#utility.yul\":1187:1189   */\n      0x20\n        /* \"#utility.yul\":1176:1185   */\n      dup3\n        /* \"#utility.yul\":1172:1190   */\n      add\n        /* \"#utility.yul\":1164:1190   */\n      swap1\n      pop\n        /* \"#utility.yul\":1236:1245   */\n      dup2\n        /* \"#utility.yul\":1230:1234   */\n      dup2\n        /* \"#utility.yul\":1226:1246   */\n      sub\n        /* \"#utility.yul\":1222:1223   */\n      0x00\n        /* \"#utility.yul\":1211:1220   */\n      dup4\n        /* \"#utility.yul\":1207:1224   */\n      add\n        /* \"#utility.yul\":1200:1247   */\n      mstore\n        /* \"#utility.yul\":1264:1395   */\n      tag_79\n        /* \"#utility.yul\":1390:1394   */\n      dup2\n        /* \"#utility.yul\":1264:1395   */\n      tag_68\n      jump\t// in\n    tag_79:\n        /* \"#utility.yul\":1256:1395   */\n      swap1\n      pop\n        /* \"#utility.yul\":983:1402   */\n      swap2\n      swap1\n      pop\n      jump\t// out\n        /* \"#utility.yul\":1408:1630   */\n    tag_17:\n        /* \"#utility.yul\":1501:1505   */\n      0x00\n        /* \"#utility.yul\":1539:1541   */\n      0x20\n        /* \"#utility.yul\":1528:1537   */\n      dup3\n        /* \"#utility.yul\":1524:1542   */\n      add\n        /* \"#utility.yul\":1516:1542   */\n      swap1\n      pop\n        /* \"#utility.yul\":1552:1623   */\n      tag_81\n        /* \"#utility.yul\":1620:1621   */\n      0x00\n        /* \"#utility.yul\":1609:1618   */\n      dup4\n        /* \"#utility.yul\":1605:1622   */\n      add\n        /* \"#utility.yul\":1596:1602   */\n      dup5\n        /* \"#utility.yul\":1552:1623   */\n      tag_74\n      jump\t// in\n    tag_81:\n        /* \"#utility.yul\":1408:1630   */\n      swap3\n      swap2\n      pop\n      pop\n      jump\t// out\n        /* \"#utility.yul\":1717:1886   */\n    tag_71:\n        /* \"#utility.yul\":1801:1812   */\n      0x00\n        /* \"#utility.yul\":1835:1841   */\n      dup3\n        /* \"#utility.yul\":1830:1833   */\n      dup3\n        /* \"#utility.yul\":1823:1842   */\n      mstore\n        /* \"#utility.yul\":1875:1879   */\n      0x20\n        /* \"#utility.yul\":1870:1873   */\n      dup3\n        /* \"#utility.yul\":1866:1880   */\n      add\n        /* \"#utility.yul\":1851:1880   */\n      swap1\n      pop\n        /* \"#utility.yul\":1717:1886   */\n      swap3\n      swap2\n      pop\n      pop\n      jump\t// out\n        /* \"#utility.yul\":1892:2197   */\n    tag_28:\n        /* \"#utility.yul\":1932:1935   */\n      0x00\n        /* \"#utility.yul\":1951:1971   */\n      tag_86\n        /* \"#utility.yul\":1969:1970   */\n      dup3\n        /* \"#utility.yul\":1951:1971   */\n      tag_77\n      jump\t// in\n    tag_86:\n        /* \"#utility.yul\":1946:1971   */\n      swap2\n      pop\n        /* \"#utility.yul\":1985:2005   */\n      tag_87\n        /* \"#utility.yul\":2003:2004   */\n      dup4\n        /* \"#utility.yul\":1985:2005   */\n      tag_77\n      jump\t// in\n    tag_87:\n        /* \"#utility.yul\":1980:2005   */\n      swap3\n      pop\n        /* \"#utility.yul\":2139:2140   */\n      dup3\n        /* \"#utility.yul\":2071:2137   */\n      0xffffffffffffffffffffffffffffffffffffffffffffffffffffffffffffffff\n        /* \"#utility.yul\":2067:2141   */\n      sub\n        /* \"#utility.yul\":2064:2065   */\n      dup3\n        /* \"#utility.yul\":2061:2142   */\n      gt\n        /* \"#utility.yul\":2058:2165   */\n      iszero\n      tag_88\n      jumpi\n        /* \"#utility.yul\":2145:2163   */\n      tag_89\n      tag_90\n      jump\t// in\n    tag_89:\n        /* \"#utility.yul\":2058:2165   */\n    tag_88:\n        /* \"#utility.yul\":2189:2190   */\n      dup3\n        /* \"#utility.yul\":2186:2187   */\n      dup3\n        /* \"#utility.yul\":2182:2191   */\n      add\n        /* \"#utility.yul\":2175:2191   */\n      swap1\n      pop\n        /* \"#utility.yul\":1892:2197   */\n      swap3\n      swap2\n      pop\n      pop\n      jump\t// out\n        /* \"#utility.yul\":2203:2280   */\n    tag_77:\n        /* \"#utility.yul\":2240:2247   */\n      0x00\n        /* \"#utility.yul\":2269:2274   */\n      dup2\n        /* \"#utility.yul\":2258:2274   */\n      swap1\n      pop\n        /* \"#utility.yul\":2203:2280   */\n      swap2\n      swap1\n      pop\n      jump\t// out\n        /* \"#utility.yul\":2286:2519   */\n    tag_37:\n        /* \"#utility.yul\":2325:2328   */\n      0x00\n        /* \"#utility.yul\":2348:2372   */\n      tag_93\n        /* \"#utility.yul\":2366:2371   */\n      dup3\n        /* \"#utility.yul\":2348:2372   */\n      tag_77\n      jump\t// in\n    tag_93:\n        /* \"#utility.yul\":2339:2372   */\n      swap2\n      pop\n        /* \"#utility.yul\":2394:2460   */\n      0xffffffffffffffffffffffffffffffffffffffffffffffffffffffffffffffff\n        /* \"#utility.yul\":2387:2392   */\n      dup3\n        /* \"#utility.yul\":2384:2461   */\n      eq\n        /* \"#utility.yul\":2381:2484   */\n      iszero\n      tag_94\n      jumpi\n        /* \"#utility.yul\":2464:2482   */\n      tag_95\n      tag_90\n      jump\t// in\n    tag_95:\n        /* \"#utility.yul\":2381:2484   */\n    tag_94:\n        /* \"#utility.yul\":2511:2512   */\n      0x01\n        /* \"#utility.yul\":2504:2509   */\n      dup3\n        /* \"#utility.yul\":2500:2513   */\n      add\n        /* \"#utility.yul\":2493:2513   */\n      swap1\n      pop\n        /* \"#utility.yul\":2286:2519   */\n      swap2\n      swap1\n      pop\n      jump\t// out\n        /* \"#utility.yul\":2525:2705   */\n    tag_90:\n        /* \"#utility.yul\":2573:2650   */\n      0x4e487b7100000000000000000000000000000000000000000000000000000000\n        /* \"#utility.yul\":2570:2571   */\n      0x00\n        /* \"#utility.yul\":2563:2651   */\n      mstore\n        /* \"#utility.yul\":2670:2674   */\n      0x11\n        /* \"#utility.yul\":2667:2668   */\n      0x04\n        /* \"#utility.yul\":2660:2675   */\n      mstore\n        /* \"#utility.yul\":2694:2698   */\n      0x24\n        /* \"#utility.yul\":2691:2692   */\n      0x00\n        /* \"#utility.yul\":2684:2699   */\n      revert\n        /* \"#utility.yul\":2711:2891   */\n    tag_40:\n        /* \"#utility.yul\":2759:2836   */\n      0x4e487b7100000000000000000000000000000000000000000000000000000000\n        /* \"#utility.yul\":2756:2757   */\n      0x00\n        /* \"#utility.yul\":2749:2837   */\n      mstore\n        /* \"#utility.yul\":2856:2860   */\n      0x31\n        /* \"#utility.yul\":2853:2854   */\n      0x04\n        /* \"#utility.yul\":2846:2861   */\n      mstore\n        /* \"#utility.yul\":2880:2884   */\n      0x24\n        /* \"#utility.yul\":2877:2878   */\n      0x00\n        /* \"#utility.yul\":2870:2885   */\n      revert\n        /* \"#utility.yul\":2897:3077   */\n    tag_31:\n        /* \"#utility.yul\":2945:3022   */\n      0x4e487b7100000000000000000000000000000000000000000000000000000000\n        /* \"#utility.yul\":2942:2943   */\n      0x00\n        /* \"#utility.yul\":2935:3023   */\n      mstore\n        /* \"#utility.yul\":3042:3046   */\n      0x32\n        /* \"#utility.yul\":3039:3040   */\n      0x04\n        /* \"#utility.yul\":3032:3047   */\n      mstore\n        /* \"#utility.yul\":3066:3070   */\n      0x24\n        /* \"#utility.yul\":3063:3064   */\n      0x00\n        /* \"#utility.yul\":3056:3071   */\n      revert\n        /* \"#utility.yul\":3206:3323   */\n    tag_66:\n        /* \"#utility.yul\":3315:3316   */\n      0x00\n        /* \"#utility.yul\":3312:3313   */\n      dup1\n        /* \"#utility.yul\":3305:3317   */\n      revert\n        /* \"#utility.yul\":3329:3491   */\n    tag_73:\n        /* \"#utility.yul\":3469:3483   */\n      0x6572726f72205f696e6465780000000000000000000000000000000000000000\n        /* \"#utility.yul\":3465:3466   */\n      0x00\n        /* \"#utility.yul\":3457:3463   */\n      dup3\n        /* \"#utility.yul\":3453:3467   */\n      add\n        /* \"#utility.yul\":3446:3484   */\n      mstore\n        /* \"#utility.yul\":3329:3491   */\n      pop\n      jump\t// out\n        /* \"#utility.yul\":3497:3619   */\n    tag_62:\n        /* \"#utility.yul\":3570:3594   */\n      tag_104\n        /* \"#utility.yul\":3588:3593   */\n      dup2\n        /* \"#utility.yul\":3570:3594   */\n      tag_77\n      jump\t// in\n    tag_104:\n        /* \"#utility.yul\":3563:3568   */\n      dup2\n        /* \"#utility.yul\":3560:3595   */\n      eq\n        /* \"#utility.yul\":3550:3613   */\n      tag_105\n      jumpi\n        /* \"#utility.yul\":3609:3610   */\n      0x00\n        /* \"#utility.yul\":3606:3607   */\n      dup1\n        /* \"#utility.yul\":3599:3611   */\n      revert\n        /* \"#utility.yul\":3550:3613   */\n    tag_105:\n        /* \"#utility.yul\":3497:3619   */\n      pop\n      jump\t// out\n\n    auxdata: 0xa2646970667358221220187ccd7580ba92a88844031bf47e81622594b9a110eb4c79d5b062cef2d9241f64736f6c63430008070033\n}\n",
				"bytecode": {
					"linkReferences": {},
					"object": "608060405234801561001057600080fd5b506104fa806100206000396000f3fe608060405234801561001057600080fd5b506004361061004c5760003560e01c80634cc822151461005157806354353f2f1461006d57806371e5ee5f14610077578063f8a8fd6d146100a7575b600080fd5b61006b6004803603810190610066919061029e565b6100b1565b005b610075610197565b005b610091600480360381019061008c919061029e565b6101f4565b60405161009e919061031d565b60405180910390f35b6100af610218565b005b60008054905081106100f8576040517f08c379a00000000000000000000000000000000000000000000000000000000081526004016100ef906102fd565b60405180910390fd5b60008190505b60008054905081101561016b57600060018261011a9190610349565b8154811061012b5761012a610450565b5b90600052602060002001546000828154811061014a57610149610450565b5b90600052602060002001819055508080610163906103a9565b9150506100fe565b50600080548061017e5761017d610421565b5b6001900381819060005260206000200160009055905550565b6040518060600160405280600160ff168152602001600260ff168152602001600360ff1681525060009060036101ce92919061021a565b5060006001815481106101e4576101e3610450565b5b9060005260206000200160009055565b6000818154811061020457600080fd5b906000526020600020016000915090505481565b565b82805482825590600052602060002090810192821561025b579160200282015b8281111561025a578251829060ff1690559160200191906001019061023a565b5b509050610268919061026c565b5090565b5b8082111561028557600081600090555060010161026d565b5090565b600081359050610298816104ad565b92915050565b6000602082840312156102b4576102b361047f565b5b60006102c284828501610289565b91505092915050565b60006102d8600c83610338565b91506102e382610484565b602082019050919050565b6102f78161039f565b82525050565b60006020820190508181036000830152610316816102cb565b9050919050565b600060208201905061033260008301846102ee565b92915050565b600082825260208201905092915050565b60006103548261039f565b915061035f8361039f565b9250827fffffffffffffffffffffffffffffffffffffffffffffffffffffffffffffffff03821115610394576103936103f2565b5b828201905092915050565b6000819050919050565b60006103b48261039f565b91507fffffffffffffffffffffffffffffffffffffffffffffffffffffffffffffffff8214156103e7576103e66103f2565b5b600182019050919050565b7f4e487b7100000000000000000000000000000000000000000000000000000000600052601160045260246000fd5b7f4e487b7100000000000000000000000000000000000000000000000000000000600052603160045260246000fd5b7f4e487b7100000000000000000000000000000000000000000000000000000000600052603260045260246000fd5b600080fd5b7f6572726f72205f696e6465780000000000000000000000000000000000000000600082015250565b6104b68161039f565b81146104c157600080fd5b5056fea2646970667358221220187ccd7580ba92a88844031bf47e81622594b9a110eb4c79d5b062cef2d9241f64736f6c63430008070033",
					"opcodes": "PUSH1 0x80 PUSH1 0x40 MSTORE CALLVALUE DUP1 ISZERO PUSH2 0x10 JUMPI PUSH1 0x0 DUP1 REVERT JUMPDEST POP PUSH2 0x4FA DUP1 PUSH2 0x20 PUSH1 0x0 CODECOPY PUSH1 0x0 RETURN INVALID PUSH1 0x80 PUSH1 0x40 MSTORE CALLVALUE DUP1 ISZERO PUSH2 0x10 JUMPI PUSH1 0x0 DUP1 REVERT JUMPDEST POP PUSH1 0x4 CALLDATASIZE LT PUSH2 0x4C JUMPI PUSH1 0x0 CALLDATALOAD PUSH1 0xE0 SHR DUP1 PUSH4 0x4CC82215 EQ PUSH2 0x51 JUMPI DUP1 PUSH4 0x54353F2F EQ PUSH2 0x6D JUMPI DUP1 PUSH4 0x71E5EE5F EQ PUSH2 0x77 JUMPI DUP1 PUSH4 0xF8A8FD6D EQ PUSH2 0xA7 JUMPI JUMPDEST PUSH1 0x0 DUP1 REVERT JUMPDEST PUSH2 0x6B PUSH1 0x4 DUP1 CALLDATASIZE SUB DUP2 ADD SWAP1 PUSH2 0x66 SWAP2 SWAP1 PUSH2 0x29E JUMP JUMPDEST PUSH2 0xB1 JUMP JUMPDEST STOP JUMPDEST PUSH2 0x75 PUSH2 0x197 JUMP JUMPDEST STOP JUMPDEST PUSH2 0x91 PUSH1 0x4 DUP1 CALLDATASIZE SUB DUP2 ADD SWAP1 PUSH2 0x8C SWAP2 SWAP1 PUSH2 0x29E JUMP JUMPDEST PUSH2 0x1F4 JUMP JUMPDEST PUSH1 0x40 MLOAD PUSH2 0x9E SWAP2 SWAP1 PUSH2 0x31D JUMP JUMPDEST PUSH1 0x40 MLOAD DUP1 SWAP2 SUB SWAP1 RETURN JUMPDEST PUSH2 0xAF PUSH2 0x218 JUMP JUMPDEST STOP JUMPDEST PUSH1 0x0 DUP1 SLOAD SWAP1 POP DUP2 LT PUSH2 0xF8 JUMPI PUSH1 0x40 MLOAD PUSH32 0x8C379A000000000000000000000000000000000000000000000000000000000 DUP2 MSTORE PUSH1 0x4 ADD PUSH2 0xEF SWAP1 PUSH2 0x2FD JUMP JUMPDEST PUSH1 0x40 MLOAD DUP1 SWAP2 SUB SWAP1 REVERT JUMPDEST PUSH1 0x0 DUP2 SWAP1 POP JUMPDEST PUSH1 0x0 DUP1 SLOAD SWAP1 POP DUP2 LT ISZERO PUSH2 0x16B JUMPI PUSH1 0x0 PUSH1 0x1 DUP3 PUSH2 0x11A SWAP2 SWAP1 PUSH2 0x349 JUMP JUMPDEST DUP2 SLOAD DUP2 LT PUSH2 0x12B JUMPI PUSH2 0x12A PUSH2 0x450 JUMP JUMPDEST JUMPDEST SWAP1 PUSH1 0x0 MSTORE PUSH1 0x20 PUSH1 0x0 KECCAK256 ADD SLOAD PUSH1 0x0 DUP3 DUP2 SLOAD DUP2 LT PUSH2 0x14A JUMPI PUSH2 0x149 PUSH2 0x450 JUMP JUMPDEST JUMPDEST SWAP1 PUSH1 0x0 MSTORE PUSH1 0x20 PUSH1 0x0 KECCAK256 ADD DUP2 SWAP1 SSTORE POP DUP1 DUP1 PUSH2 0x163 SWAP1 PUSH2 0x3A9 JUMP JUMPDEST SWAP2 POP POP PUSH2 0xFE JUMP JUMPDEST POP PUSH1 0x0 DUP1 SLOAD DUP1 PUSH2 0x17E JUMPI PUSH2 0x17D PUSH2 0x421 JUMP JUMPDEST JUMPDEST PUSH1 0x1 SWAP1 SUB DUP2 DUP2 SWAP1 PUSH1 0x0 MSTORE PUSH1 0x20 PUSH1 0x0 KECCAK256 ADD PUSH1 0x0 SWAP1 SSTORE SWAP1 SSTORE POP JUMP JUMPDEST PUSH1 0x40 MLOAD DUP1 PUSH1 0x60 ADD PUSH1 0x40 MSTORE DUP1 PUSH1 0x1 PUSH1 0xFF AND DUP2 MSTORE PUSH1 0x20 ADD PUSH1 0x2 PUSH1 0xFF AND DUP2 MSTORE PUSH1 0x20 ADD PUSH1 0x3 PUSH1 0xFF AND DUP2 MSTORE POP PUSH1 0x0 SWAP1 PUSH1 0x3 PUSH2 0x1CE SWAP3 SWAP2 SWAP1 PUSH2 0x21A JUMP JUMPDEST POP PUSH1 0x0 PUSH1 0x1 DUP2 SLOAD DUP2 LT PUSH2 0x1E4 JUMPI PUSH2 0x1E3 PUSH2 0x450 JUMP JUMPDEST JUMPDEST SWAP1 PUSH1 0x0 MSTORE PUSH1 0x20 PUSH1 0x0 KECCAK256 ADD PUSH1 0x0 SWAP1 SSTORE JUMP JUMPDEST PUSH1 0x0 DUP2 DUP2 SLOAD DUP2 LT PUSH2 0x204 JUMPI PUSH1 0x0 DUP1 REVERT JUMPDEST SWAP1 PUSH1 0x0 MSTORE PUSH1 0x20 PUSH1 0x0 KECCAK256 ADD PUSH1 0x0 SWAP2 POP SWAP1 POP SLOAD DUP2 JUMP JUMPDEST JUMP JUMPDEST DUP3 DUP1 SLOAD DUP3 DUP3 SSTORE SWAP1 PUSH1 0x0 MSTORE PUSH1 0x20 PUSH1 0x0 KECCAK256 SWAP1 DUP2 ADD SWAP3 DUP3 ISZERO PUSH2 0x25B JUMPI SWAP2 PUSH1 0x20 MUL DUP3 ADD JUMPDEST DUP3 DUP2 GT ISZERO PUSH2 0x25A JUMPI DUP3 MLOAD DUP3 SWAP1 PUSH1 0xFF AND SWAP1 SSTORE SWAP2 PUSH1 0x20 ADD SWAP2 SWAP1 PUSH1 0x1 ADD SWAP1 PUSH2 0x23A JUMP JUMPDEST JUMPDEST POP SWAP1 POP PUSH2 0x268 SWAP2 SWAP1 PUSH2 0x26C JUMP JUMPDEST POP SWAP1 JUMP JUMPDEST JUMPDEST DUP1 DUP3 GT ISZERO PUSH2 0x285 JUMPI PUSH1 0x0 DUP2 PUSH1 0x0 SWAP1 SSTORE POP PUSH1 0x1 ADD PUSH2 0x26D JUMP JUMPDEST POP SWAP1 JUMP JUMPDEST PUSH1 0x0 DUP2 CALLDATALOAD SWAP1 POP PUSH2 0x298 DUP2 PUSH2 0x4AD JUMP JUMPDEST SWAP3 SWAP2 POP POP JUMP JUMPDEST PUSH1 0x0 PUSH1 0x20 DUP3 DUP5 SUB SLT ISZERO PUSH2 0x2B4 JUMPI PUSH2 0x2B3 PUSH2 0x47F JUMP JUMPDEST JUMPDEST PUSH1 0x0 PUSH2 0x2C2 DUP5 DUP3 DUP6 ADD PUSH2 0x289 JUMP JUMPDEST SWAP2 POP POP SWAP3 SWAP2 POP POP JUMP JUMPDEST PUSH1 0x0 PUSH2 0x2D8 PUSH1 0xC DUP4 PUSH2 0x338 JUMP JUMPDEST SWAP2 POP PUSH2 0x2E3 DUP3 PUSH2 0x484 JUMP JUMPDEST PUSH1 0x20 DUP3 ADD SWAP1 POP SWAP2 SWAP1 POP JUMP JUMPDEST PUSH2 0x2F7 DUP2 PUSH2 0x39F JUMP JUMPDEST DUP3 MSTORE POP POP JUMP JUMPDEST PUSH1 0x0 PUSH1 0x20 DUP3 ADD SWAP1 POP DUP2 DUP2 SUB PUSH1 0x0 DUP4 ADD MSTORE PUSH2 0x316 DUP2 PUSH2 0x2CB JUMP JUMPDEST SWAP1 POP SWAP2 SWAP1 POP JUMP JUMPDEST PUSH1 0x0 PUSH1 0x20 DUP3 ADD SWAP1 POP PUSH2 0x332 PUSH1 0x0 DUP4 ADD DUP5 PUSH2 0x2EE JUMP JUMPDEST SWAP3 SWAP2 POP POP JUMP JUMPDEST PUSH1 0x0 DUP3 DUP3 MSTORE PUSH1 0x20 DUP3 ADD SWAP1 POP SWAP3 SWAP2 POP POP JUMP JUMPDEST PUSH1 0x0 PUSH2 0x354 DUP3 PUSH2 0x39F JUMP JUMPDEST SWAP2 POP PUSH2 0x35F DUP4 PUSH2 0x39F JUMP JUMPDEST SWAP3 POP DUP3 PUSH32 0xFFFFFFFFFFFFFFFFFFFFFFFFFFFFFFFFFFFFFFFFFFFFFFFFFFFFFFFFFFFFFFFF SUB DUP3 GT ISZERO PUSH2 0x394 JUMPI PUSH2 0x393 PUSH2 0x3F2 JUMP JUMPDEST JUMPDEST DUP3 DUP3 ADD SWAP1 POP SWAP3 SWAP2 POP POP JUMP JUMPDEST PUSH1 0x0 DUP2 SWAP1 POP SWAP2 SWAP1 POP JUMP JUMPDEST PUSH1 0x0 PUSH2 0x3B4 DUP3 PUSH2 0x39F JUMP JUMPDEST SWAP2 POP PUSH32 0xFFFFFFFFFFFFFFFFFFFFFFFFFFFFFFFFFFFFFFFFFFFFFFFFFFFFFFFFFFFFFFFF DUP3 EQ ISZERO PUSH2 0x3E7 JUMPI PUSH2 0x3E6 PUSH2 0x3F2 JUMP JUMPDEST JUMPDEST PUSH1 0x1 DUP3 ADD SWAP1 POP SWAP2 SWAP1 POP JUMP JUMPDEST PUSH32 0x4E487B7100000000000000000000000000000000000000000000000000000000 PUSH1 0x0 MSTORE PUSH1 0x11 PUSH1 0x4 MSTORE PUSH1 0x24 PUSH1 0x0 REVERT JUMPDEST PUSH32 0x4E487B7100000000000000000000000000000000000000000000000000000000 PUSH1 0x0 MSTORE PUSH1 0x31 PUSH1 0x4 MSTORE PUSH1 0x24 PUSH1 0x0 REVERT JUMPDEST PUSH32 0x4E487B7100000000000000000000000000000000000000000000000000000000 PUSH1 0x0 MSTORE PUSH1 0x32 PUSH1 0x4 MSTORE PUSH1 0x24 PUSH1 0x0 REVERT JUMPDEST PUSH1 0x0 DUP1 REVERT JUMPDEST PUSH32 0x6572726F72205F696E6465780000000000000000000000000000000000000000 PUSH1 0x0 DUP3 ADD MSTORE POP JUMP JUMPDEST PUSH2 0x4B6 DUP2 PUSH2 0x39F JUMP JUMPDEST DUP2 EQ PUSH2 0x4C1 JUMPI PUSH1 0x0 DUP1 REVERT JUMPDEST POP JUMP INVALID LOG2 PUSH5 0x6970667358 0x22 SLT KECCAK256 XOR PUSH29 0xCD7580BA92A88844031BF47E81622594B9A110EB4C79D5B062CEF2D924 0x1F PUSH5 0x736F6C6343 STOP ADDMOD SMOD STOP CALLER "
				},
				"gasEstimates": {
					"creation": {
						"codeDepositCost": "254800",
						"executionCost": "294",
						"totalCost": "255094"
					},
					"external": {
						"arr(uint256)": "infinite",
						"example()": "infinite",
						"remove(uint256)": "infinite",
						"test()": "188"
					}
				},
				"methodIdentifiers": {
					"arr(uint256)": "71e5ee5f",
					"example()": "54353f2f",
					"remove(uint256)": "4cc82215",
					"test()": "f8a8fd6d"
				}
			},
			"storageLayout": {
				"storage": [
					{
						"astId": 4,
						"contract": "code6/2delete.sol:testArry",
						"label": "arr",
						"offset": 0,
						"slot": "0",
						"type": "t_array(t_uint256)dyn_storage"
					}
				],
				"types": {
					"t_array(t_uint256)dyn_storage": {
						"base": "t_uint256",
						"encoding": "dynamic_array",
						"label": "uint256[]",
						"numberOfBytes": "32"
					},
					"t_uint256": {
						"encoding": "inplace",
						"label": "uint256",
						"numberOfBytes": "32"
					}
				}
			},
			"userdoc": {
				"kind": "user",
				"methods": {},
				"version": 1
			}
		}
	}
}