{
	"data": {
		"bytecode": {
			"linkReferences": {},
			"object": "608060405234801561001057600080fd5b5061041e806100206000396000f3fe608060405234801561001057600080fd5b50600436106100365760003560e01c80632b3847761461003b57806354353f2f14610057575b600080fd5b610055600480360381019061005091906101c3565b610061565b005b61005f6100cd565b005b8273ffffffffffffffffffffffffffffffffffffffff163373ffffffffffffffffffffffffffffffffffffffff167fb3dbe9e9894ca2c11cb6c80bd0b0bccb9f5b41d612dbeeda0d5474de40b874fe84846040516100c09291906102ac565b60405180910390a3505050565b7fdd970dd9b5bfe707922155b058a407655cb18288b807e2216442bca8ad83d6b5613a986040516100fe91906102d0565b60405180910390a13373ffffffffffffffffffffffffffffffffffffffff167f498ad7cd4214d8ac7be140823454bc075f6e9c33cf81a1b50218e1307e2ea07f6132c860405161014e9190610291565b60405180910390a2565b600081359050610167816103d1565b92915050565b60008083601f84011261018357610182610383565b5b8235905067ffffffffffffffff8111156101a05761019f61037e565b5b6020830191508360018202830111156101bc576101bb610388565b5b9250929050565b6000806000604084860312156101dc576101db610392565b5b60006101ea86828701610158565b935050602084013567ffffffffffffffff81111561020b5761020a61038d565b5b6102178682870161016d565b92509250509250925092565b61022c8161034b565b82525050565b61023b8161035d565b82525050565b600061024d83856102fe565b935061025a83858461036f565b61026383610397565b840190509392505050565b600061027b6002836102fe565b9150610286826103a8565b602082019050919050565b60006020820190506102a66000830184610223565b92915050565b600060208201905081810360008301526102c7818486610241565b90509392505050565b600060408201905081810360008301526102e98161026e565b90506102f86020830184610232565b92915050565b600082825260208201905092915050565b600061031a82610321565b9050919050565b600073ffffffffffffffffffffffffffffffffffffffff82169050919050565b6000819050919050565b600061035682610341565b9050919050565b600061036882610341565b9050919050565b82818337600083830152505050565b600080fd5b600080fd5b600080fd5b600080fd5b600080fd5b6000601f19601f8301169050919050565b7f7770000000000000000000000000000000000000000000000000000000000000600082015250565b6103da8161030f565b81146103e557600080fd5b5056fea2646970667358221220903e5b9629a5f2279866fd3c807edb6e06da4a33d7a640e5b698f5dc4231622664736f6c63430008060033",
			"opcodes": "PUSH1 0x80 PUSH1 0x40 MSTORE CALLVALUE DUP1 ISZERO PUSH2 0x10 JUMPI PUSH1 0x0 DUP1 REVERT JUMPDEST POP PUSH2 0x41E DUP1 PUSH2 0x20 PUSH1 0x0 CODECOPY PUSH1 0x0 RETURN INVALID PUSH1 0x80 PUSH1 0x40 MSTORE CALLVALUE DUP1 ISZERO PUSH2 0x10 JUMPI PUSH1 0x0 DUP1 REVERT JUMPDEST POP PUSH1 0x4 CALLDATASIZE LT PUSH2 0x36 JUMPI PUSH1 0x0 CALLDATALOAD PUSH1 0xE0 SHR DUP1 PUSH4 0x2B384776 EQ PUSH2 0x3B JUMPI DUP1 PUSH4 0x54353F2F EQ PUSH2 0x57 JUMPI JUMPDEST PUSH1 0x0 DUP1 REVERT JUMPDEST PUSH2 0x55 PUSH1 0x4 DUP1 CALLDATASIZE SUB DUP2 ADD SWAP1 PUSH2 0x50 SWAP2 SWAP1 PUSH2 0x1C3 JUMP JUMPDEST PUSH2 0x61 JUMP JUMPDEST STOP JUMPDEST PUSH2 0x5F PUSH2 0xCD JUMP JUMPDEST STOP JUMPDEST DUP3 PUSH20 0xFFFFFFFFFFFFFFFFFFFFFFFFFFFFFFFFFFFFFFFF AND CALLER PUSH20 0xFFFFFFFFFFFFFFFFFFFFFFFFFFFFFFFFFFFFFFFF AND PUSH32 0xB3DBE9E9894CA2C11CB6C80BD0B0BCCB9F5B41D612DBEEDA0D5474DE40B874FE DUP5 DUP5 PUSH1 0x40 MLOAD PUSH2 0xC0 SWAP3 SWAP2 SWAP1 PUSH2 0x2AC JUMP JUMPDEST PUSH1 0x40 MLOAD DUP1 SWAP2 SUB SWAP1 LOG3 POP POP POP JUMP JUMPDEST PUSH32 0xDD970DD9B5BFE707922155B058A407655CB18288B807E2216442BCA8AD83D6B5 PUSH2 0x3A98 PUSH1 0x40 MLOAD PUSH2 0xFE SWAP2 SWAP1 PUSH2 0x2D0 JUMP JUMPDEST PUSH1 0x40 MLOAD DUP1 SWAP2 SUB SWAP1 LOG1 CALLER PUSH20 0xFFFFFFFFFFFFFFFFFFFFFFFFFFFFFFFFFFFFFFFF AND PUSH32 0x498AD7CD4214D8AC7BE140823454BC075F6E9C33CF81A1B50218E1307E2EA07F PUSH2 0x32C8 PUSH1 0x40 MLOAD PUSH2 0x14E SWAP2 SWAP1 PUSH2 0x291 JUMP JUMPDEST PUSH1 0x40 MLOAD DUP1 SWAP2 SUB SWAP1 LOG2 JUMP JUMPDEST PUSH1 0x0 DUP2 CALLDATALOAD SWAP1 POP PUSH2 0x167 DUP2 PUSH2 0x3D1 JUMP JUMPDEST SWAP3 SWAP2 POP POP JUMP JUMPDEST PUSH1 0x0 DUP1 DUP4 PUSH1 0x1F DUP5 ADD SLT PUSH2 0x183 JUMPI PUSH2 0x182 PUSH2 0x383 JUMP JUMPDEST JUMPDEST DUP3 CALLDATALOAD SWAP1 POP PUSH8 0xFFFFFFFFFFFFFFFF DUP2 GT ISZERO PUSH2 0x1A0 JUMPI PUSH2 0x19F PUSH2 0x37E JUMP JUMPDEST JUMPDEST PUSH1 0x20 DUP4 ADD SWAP2 POP DUP4 PUSH1 0x1 DUP3 MUL DUP4 ADD GT ISZERO PUSH2 0x1BC JUMPI PUSH2 0x1BB PUSH2 0x388 JUMP JUMPDEST JUMPDEST SWAP3 POP SWAP3 SWAP1 POP JUMP JUMPDEST PUSH1 0x0 DUP1 PUSH1 0x0 PUSH1 0x40 DUP5 DUP7 SUB SLT ISZERO PUSH2 0x1DC JUMPI PUSH2 0x1DB PUSH2 0x392 JUMP JUMPDEST JUMPDEST PUSH1 0x0 PUSH2 0x1EA DUP7 DUP3 DUP8 ADD PUSH2 0x158 JUMP JUMPDEST SWAP4 POP POP PUSH1 0x20 DUP5 ADD CALLDATALOAD PUSH8 0xFFFFFFFFFFFFFFFF DUP2 GT ISZERO PUSH2 0x20B JUMPI PUSH2 0x20A PUSH2 0x38D JUMP JUMPDEST JUMPDEST PUSH2 0x217 DUP7 DUP3 DUP8 ADD PUSH2 0x16D JUMP JUMPDEST SWAP3 POP SWAP3 POP POP SWAP3 POP SWAP3 POP SWAP3 JUMP JUMPDEST PUSH2 0x22C DUP2 PUSH2 0x34B JUMP JUMPDEST DUP3 MSTORE POP POP JUMP JUMPDEST PUSH2 0x23B DUP2 PUSH2 0x35D JUMP JUMPDEST DUP3 MSTORE POP POP JUMP JUMPDEST PUSH1 0x0 PUSH2 0x24D DUP4 DUP6 PUSH2 0x2FE JUMP JUMPDEST SWAP4 POP PUSH2 0x25A DUP4 DUP6 DUP5 PUSH2 0x36F JUMP JUMPDEST PUSH2 0x263 DUP4 PUSH2 0x397 JUMP JUMPDEST DUP5 ADD SWAP1 POP SWAP4 SWAP3 POP POP POP JUMP JUMPDEST PUSH1 0x0 PUSH2 0x27B PUSH1 0x2 DUP4 PUSH2 0x2FE JUMP JUMPDEST SWAP2 POP PUSH2 0x286 DUP3 PUSH2 0x3A8 JUMP JUMPDEST PUSH1 0x20 DUP3 ADD SWAP1 POP SWAP2 SWAP1 POP JUMP JUMPDEST PUSH1 0x0 PUSH1 0x20 DUP3 ADD SWAP1 POP PUSH2 0x2A6 PUSH1 0x0 DUP4 ADD DUP5 PUSH2 0x223 JUMP JUMPDEST SWAP3 SWAP2 POP POP JUMP JUMPDEST PUSH1 0x0 PUSH1 0x20 DUP3 ADD SWAP1 POP DUP2 DUP2 SUB PUSH1 0x0 DUP4 ADD MSTORE PUSH2 0x2C7 DUP2 DUP5 DUP7 PUSH2 0x241 JUMP JUMPDEST SWAP1 POP SWAP4 SWAP3 POP POP POP JUMP JUMPDEST PUSH1 0x0 PUSH1 0x40 DUP3 ADD SWAP1 POP DUP2 DUP2 SUB PUSH1 0x0 DUP4 ADD MSTORE PUSH2 0x2E9 DUP2 PUSH2 0x26E JUMP JUMPDEST SWAP1 POP PUSH2 0x2F8 PUSH1 0x20 DUP4 ADD DUP5 PUSH2 0x232 JUMP JUMPDEST SWAP3 SWAP2 POP POP JUMP JUMPDEST PUSH1 0x0 DUP3 DUP3 MSTORE PUSH1 0x20 DUP3 ADD SWAP1 POP SWAP3 SWAP2 POP POP JUMP JUMPDEST PUSH1 0x0 PUSH2 0x31A DUP3 PUSH2 0x321 JUMP JUMPDEST SWAP1 POP SWAP2 SWAP1 POP JUMP JUMPDEST PUSH1 0x0 PUSH20 0xFFFFFFFFFFFFFFFFFFFFFFFFFFFFFFFFFFFFFFFF DUP3 AND SWAP1 POP SWAP2 SWAP1 POP JUMP JUMPDEST PUSH1 0x0 DUP2 SWAP1 POP SWAP2 SWAP1 POP JUMP JUMPDEST PUSH1 0x0 PUSH2 0x356 DUP3 PUSH2 0x341 JUMP JUMPDEST SWAP1 POP SWAP2 SWAP1 POP JUMP JUMPDEST PUSH1 0x0 PUSH2 0x368 DUP3 PUSH2 0x341 JUMP JUMPDEST SWAP1 POP SWAP2 SWAP1 POP JUMP JUMPDEST DUP3 DUP2 DUP4 CALLDATACOPY PUSH1 0x0 DUP4 DUP4 ADD MSTORE POP POP POP JUMP JUMPDEST PUSH1 0x0 DUP1 REVERT JUMPDEST PUSH1 0x0 DUP1 REVERT JUMPDEST PUSH1 0x0 DUP1 REVERT JUMPDEST PUSH1 0x0 DUP1 REVERT JUMPDEST PUSH1 0x0 DUP1 REVERT JUMPDEST PUSH1 0x0 PUSH1 0x1F NOT PUSH1 0x1F DUP4 ADD AND SWAP1 POP SWAP2 SWAP1 POP JUMP JUMPDEST PUSH32 0x7770000000000000000000000000000000000000000000000000000000000000 PUSH1 0x0 DUP3 ADD MSTORE POP JUMP JUMPDEST PUSH2 0x3DA DUP2 PUSH2 0x30F JUMP JUMPDEST DUP2 EQ PUSH2 0x3E5 JUMPI PUSH1 0x0 DUP1 REVERT JUMPDEST POP JUMP INVALID LOG2 PUSH5 0x6970667358 0x22 SLT KECCAK256 SWAP1 RETURNDATACOPY JUMPDEST SWAP7 0x29 0xA5 CALLCODE 0x27 SWAP9 PUSH7 0xFD3C807EDB6E06 0xDA 0x4A CALLER 0xD7 0xA6 BLOCKHASH 0xE5 0xB6 SWAP9 CREATE2 0xDC TIMESTAMP BALANCE PUSH3 0x266473 PUSH16 0x6C634300080600330000000000000000 "
		},
		"gasEstimates": {
			"creation": {
				"codeDepositCost": "210800",
				"executionCost": "251",
				"totalCost": "211051"
			},
			"external": {
				"example()": "infinite",
				"example1(address,string)": "infinite"
			}
		},
		"methodIdentifiers": {
			"example()": "54353f2f",
			"example1(address,string)": "2b384776"
		}
	},
	"abi": [
		{
			"anonymous": false,
			"inputs": [
				{
					"indexed": false,
					"internalType": "string",
					"name": "message",
					"type": "string"
				},
				{
					"indexed": false,
					"internalType": "uint256",
					"name": "val",
					"type": "uint256"
				}
			],
			"name": "Log",
			"type": "event"
		},
		{
			"anonymous": false,
			"inputs": [
				{
					"indexed": true,
					"internalType": "address",
					"name": "_from",
					"type": "address"
				},
				{
					"indexed": true,
					"internalType": "address",
					"name": "_to",
					"type": "address"
				},
				{
					"indexed": false,
					"internalType": "string",
					"name": "message",
					"type": "string"
				}
			],
			"name": "Message",
			"type": "event"
		},
		{
			"anonymous": false,
			"inputs": [
				{
					"indexed": true,
					"internalType": "address",
					"name": "sender",
					"type": "address"
				},
				{
					"indexed": false,
					"internalType": "uint256",
					"name": "val",
					"type": "uint256"
				}
			],
			"name": "indexedLog",
			"type": "event"
		},
		{
			"inputs": [],
			"name": "example",
			"outputs": [],
			"stateMutability": "nonpayable",
			"type": "function"
		},
		{
			"inputs": [
				{
					"internalType": "address",
					"name": "_to",
					"type": "address"
				},
				{
					"internalType": "string",
					"name": "_message",
					"type": "string"
				}
			],
			"name": "example1",
			"outputs": [],
			"stateMutability": "nonpayable",
			"type": "function"
		}
	]
}