{
	"code94/2CCC.sol": {
		"callContract": {
			"abi": [
				{
					"inputs": [
						{
							"internalType": "address",
							"name": "_test",
							"type": "address"
						},
						{
							"internalType": "uint256",
							"name": "_x",
							"type": "uint256"
						}
					],
					"name": "setX",
					"outputs": [],
					"stateMutability": "nonpayable",
					"type": "function"
				},
				{
					"inputs": [
						{
							"internalType": "address",
							"name": "_test",
							"type": "address"
						},
						{
							"internalType": "uint256",
							"name": "_x",
							"type": "uint256"
						}
					],
					"name": "setXx",
					"outputs": [],
					"stateMutability": "nonpayable",
					"type": "function"
				}
			],
			"devdoc": {
				"kind": "dev",
				"methods": {},
				"version": 1
			},
			"evm": {
				"assembly": "    /* \"code94/2CCC.sol\":55:522  contract callContract{... */\n  mstore(0x40, 0x80)\n  callvalue\n  dup1\n  iszero\n  tag_1\n  jumpi\n  0x00\n  dup1\n  revert\ntag_1:\n  pop\n  dataSize(sub_0)\n  dup1\n  dataOffset(sub_0)\n  0x00\n  codecopy\n  0x00\n  return\nstop\n\nsub_0: assembly {\n        /* \"code94/2CCC.sol\":55:522  contract callContract{... */\n      mstore(0x40, 0x80)\n      callvalue\n      dup1\n      iszero\n      tag_1\n      jumpi\n      0x00\n      dup1\n      revert\n    tag_1:\n      pop\n      jumpi(tag_2, lt(calldatasize, 0x04))\n      shr(0xe0, calldataload(0x00))\n      dup1\n      0x4a2ad99f\n      eq\n      tag_3\n      jumpi\n      dup1\n      0x5ada6dd4\n      eq\n      tag_4\n      jumpi\n    tag_2:\n      0x00\n      dup1\n      revert\n        /* \"code94/2CCC.sol\":82:297  function setX(address _test,uint _x)external{... */\n    tag_3:\n      tag_5\n      0x04\n      dup1\n      calldatasize\n      sub\n      dup2\n      add\n      swap1\n      tag_6\n      swap2\n      swap1\n      tag_7\n      jump\t// in\n    tag_6:\n      tag_8\n      jump\t// in\n    tag_5:\n      stop\n        /* \"code94/2CCC.sol\":302:518  function setXx(address _test,uint _x)external{... */\n    tag_4:\n      tag_9\n      0x04\n      dup1\n      calldatasize\n      sub\n      dup2\n      add\n      swap1\n      tag_10\n      swap2\n      swap1\n      tag_7\n      jump\t// in\n    tag_10:\n      tag_11\n      jump\t// in\n    tag_9:\n      stop\n        /* \"code94/2CCC.sol\":82:297  function setX(address _test,uint _x)external{... */\n    tag_8:\n        /* \"code94/2CCC.sol\":149:154  _test */\n      dup2\n        /* \"code94/2CCC.sol\":136:160  TestContract(_test).setX */\n      0xffffffffffffffffffffffffffffffffffffffff\n      and\n      0x4018d9aa\n        /* \"code94/2CCC.sol\":161:163  _x */\n      dup3\n        /* \"code94/2CCC.sol\":136:164  TestContract(_test).setX(_x) */\n      mload(0x40)\n      dup3\n      0xffffffff\n      and\n      0xe0\n      shl\n      dup2\n      mstore\n      0x04\n      add\n      tag_13\n      swap2\n      swap1\n      tag_14\n      jump\t// in\n    tag_13:\n      0x00\n      mload(0x40)\n      dup1\n      dup4\n      sub\n      dup2\n      0x00\n      dup8\n      dup1\n      extcodesize\n      iszero\n      dup1\n      iszero\n      tag_15\n      jumpi\n      0x00\n      dup1\n      revert\n    tag_15:\n      pop\n      gas\n      call\n      iszero\n      dup1\n      iszero\n      tag_17\n      jumpi\n      returndatasize\n      0x00\n      dup1\n      returndatacopy\n      revert(0x00, returndatasize)\n    tag_17:\n      pop\n      pop\n      pop\n      pop\n        /* \"code94/2CCC.sol\":82:297  function setX(address _test,uint _x)external{... */\n      pop\n      pop\n      jump\t// out\n        /* \"code94/2CCC.sol\":302:518  function setXx(address _test,uint _x)external{... */\n    tag_11:\n        /* \"code94/2CCC.sol\":370:375  _test */\n      dup2\n        /* \"code94/2CCC.sol\":357:381  TestContract(_test).setX */\n      0xffffffffffffffffffffffffffffffffffffffff\n      and\n      0x4018d9aa\n        /* \"code94/2CCC.sol\":382:384  _x */\n      dup3\n        /* \"code94/2CCC.sol\":357:385  TestContract(_test).setX(_x) */\n      mload(0x40)\n      dup3\n      0xffffffff\n      and\n      0xe0\n      shl\n      dup2\n      mstore\n      0x04\n      add\n      tag_19\n      swap2\n      swap1\n      tag_14\n      jump\t// in\n    tag_19:\n      0x00\n      mload(0x40)\n      dup1\n      dup4\n      sub\n      dup2\n      0x00\n      dup8\n      dup1\n      extcodesize\n      iszero\n      dup1\n      iszero\n      tag_20\n      jumpi\n      0x00\n      dup1\n      revert\n    tag_20:\n      pop\n      gas\n      call\n      iszero\n      dup1\n      iszero\n      tag_22\n      jumpi\n      returndatasize\n      0x00\n      dup1\n      returndatacopy\n      revert(0x00, returndatasize)\n    tag_22:\n      pop\n      pop\n      pop\n      pop\n        /* \"code94/2CCC.sol\":302:518  function setXx(address _test,uint _x)external{... */\n      pop\n      pop\n      jump\t// out\n        /* \"#utility.yul\":7:146   */\n    tag_24:\n        /* \"#utility.yul\":53:58   */\n      0x00\n        /* \"#utility.yul\":91:97   */\n      dup2\n        /* \"#utility.yul\":78:98   */\n      calldataload\n        /* \"#utility.yul\":69:98   */\n      swap1\n      pop\n        /* \"#utility.yul\":107:140   */\n      tag_26\n        /* \"#utility.yul\":134:139   */\n      dup2\n        /* \"#utility.yul\":107:140   */\n      tag_27\n      jump\t// in\n    tag_26:\n        /* \"#utility.yul\":7:146   */\n      swap3\n      swap2\n      pop\n      pop\n      jump\t// out\n        /* \"#utility.yul\":152:291   */\n    tag_28:\n        /* \"#utility.yul\":198:203   */\n      0x00\n        /* \"#utility.yul\":236:242   */\n      dup2\n        /* \"#utility.yul\":223:243   */\n      calldataload\n        /* \"#utility.yul\":214:243   */\n      swap1\n      pop\n        /* \"#utility.yul\":252:285   */\n      tag_30\n        /* \"#utility.yul\":279:284   */\n      dup2\n        /* \"#utility.yul\":252:285   */\n      tag_31\n      jump\t// in\n    tag_30:\n        /* \"#utility.yul\":152:291   */\n      swap3\n      swap2\n      pop\n      pop\n      jump\t// out\n        /* \"#utility.yul\":297:771   */\n    tag_7:\n        /* \"#utility.yul\":365:371   */\n      0x00\n        /* \"#utility.yul\":373:379   */\n      dup1\n        /* \"#utility.yul\":422:424   */\n      0x40\n        /* \"#utility.yul\":410:419   */\n      dup4\n        /* \"#utility.yul\":401:408   */\n      dup6\n        /* \"#utility.yul\":397:420   */\n      sub\n        /* \"#utility.yul\":393:425   */\n      slt\n        /* \"#utility.yul\":390:509   */\n      iszero\n      tag_33\n      jumpi\n        /* \"#utility.yul\":428:507   */\n      tag_34\n      tag_35\n      jump\t// in\n    tag_34:\n        /* \"#utility.yul\":390:509   */\n    tag_33:\n        /* \"#utility.yul\":548:549   */\n      0x00\n        /* \"#utility.yul\":573:626   */\n      tag_36\n        /* \"#utility.yul\":618:625   */\n      dup6\n        /* \"#utility.yul\":609:615   */\n      dup3\n        /* \"#utility.yul\":598:607   */\n      dup7\n        /* \"#utility.yul\":594:616   */\n      add\n        /* \"#utility.yul\":573:626   */\n      tag_24\n      jump\t// in\n    tag_36:\n        /* \"#utility.yul\":563:626   */\n      swap3\n      pop\n        /* \"#utility.yul\":519:636   */\n      pop\n        /* \"#utility.yul\":675:677   */\n      0x20\n        /* \"#utility.yul\":701:754   */\n      tag_37\n        /* \"#utility.yul\":746:753   */\n      dup6\n        /* \"#utility.yul\":737:743   */\n      dup3\n        /* \"#utility.yul\":726:735   */\n      dup7\n        /* \"#utility.yul\":722:744   */\n      add\n        /* \"#utility.yul\":701:754   */\n      tag_28\n      jump\t// in\n    tag_37:\n        /* \"#utility.yul\":691:754   */\n      swap2\n      pop\n        /* \"#utility.yul\":646:764   */\n      pop\n        /* \"#utility.yul\":297:771   */\n      swap3\n      pop\n      swap3\n      swap1\n      pop\n      jump\t// out\n        /* \"#utility.yul\":777:895   */\n    tag_38:\n        /* \"#utility.yul\":864:888   */\n      tag_40\n        /* \"#utility.yul\":882:887   */\n      dup2\n        /* \"#utility.yul\":864:888   */\n      tag_41\n      jump\t// in\n    tag_40:\n        /* \"#utility.yul\":859:862   */\n      dup3\n        /* \"#utility.yul\":852:889   */\n      mstore\n        /* \"#utility.yul\":777:895   */\n      pop\n      pop\n      jump\t// out\n        /* \"#utility.yul\":901:1123   */\n    tag_14:\n        /* \"#utility.yul\":994:998   */\n      0x00\n        /* \"#utility.yul\":1032:1034   */\n      0x20\n        /* \"#utility.yul\":1021:1030   */\n      dup3\n        /* \"#utility.yul\":1017:1035   */\n      add\n        /* \"#utility.yul\":1009:1035   */\n      swap1\n      pop\n        /* \"#utility.yul\":1045:1116   */\n      tag_43\n        /* \"#utility.yul\":1113:1114   */\n      0x00\n        /* \"#utility.yul\":1102:1111   */\n      dup4\n        /* \"#utility.yul\":1098:1115   */\n      add\n        /* \"#utility.yul\":1089:1095   */\n      dup5\n        /* \"#utility.yul\":1045:1116   */\n      tag_38\n      jump\t// in\n    tag_43:\n        /* \"#utility.yul\":901:1123   */\n      swap3\n      swap2\n      pop\n      pop\n      jump\t// out\n        /* \"#utility.yul\":1210:1306   */\n    tag_46:\n        /* \"#utility.yul\":1247:1254   */\n      0x00\n        /* \"#utility.yul\":1276:1300   */\n      tag_48\n        /* \"#utility.yul\":1294:1299   */\n      dup3\n        /* \"#utility.yul\":1276:1300   */\n      tag_49\n      jump\t// in\n    tag_48:\n        /* \"#utility.yul\":1265:1300   */\n      swap1\n      pop\n        /* \"#utility.yul\":1210:1306   */\n      swap2\n      swap1\n      pop\n      jump\t// out\n        /* \"#utility.yul\":1312:1438   */\n    tag_49:\n        /* \"#utility.yul\":1349:1356   */\n      0x00\n        /* \"#utility.yul\":1389:1431   */\n      0xffffffffffffffffffffffffffffffffffffffff\n        /* \"#utility.yul\":1382:1387   */\n      dup3\n        /* \"#utility.yul\":1378:1432   */\n      and\n        /* \"#utility.yul\":1367:1432   */\n      swap1\n      pop\n        /* \"#utility.yul\":1312:1438   */\n      swap2\n      swap1\n      pop\n      jump\t// out\n        /* \"#utility.yul\":1444:1521   */\n    tag_41:\n        /* \"#utility.yul\":1481:1488   */\n      0x00\n        /* \"#utility.yul\":1510:1515   */\n      dup2\n        /* \"#utility.yul\":1499:1515   */\n      swap1\n      pop\n        /* \"#utility.yul\":1444:1521   */\n      swap2\n      swap1\n      pop\n      jump\t// out\n        /* \"#utility.yul\":1650:1767   */\n    tag_35:\n        /* \"#utility.yul\":1759:1760   */\n      0x00\n        /* \"#utility.yul\":1756:1757   */\n      dup1\n        /* \"#utility.yul\":1749:1761   */\n      revert\n        /* \"#utility.yul\":1773:1895   */\n    tag_27:\n        /* \"#utility.yul\":1846:1870   */\n      tag_56\n        /* \"#utility.yul\":1864:1869   */\n      dup2\n        /* \"#utility.yul\":1846:1870   */\n      tag_46\n      jump\t// in\n    tag_56:\n        /* \"#utility.yul\":1839:1844   */\n      dup2\n        /* \"#utility.yul\":1836:1871   */\n      eq\n        /* \"#utility.yul\":1826:1889   */\n      tag_57\n      jumpi\n        /* \"#utility.yul\":1885:1886   */\n      0x00\n        /* \"#utility.yul\":1882:1883   */\n      dup1\n        /* \"#utility.yul\":1875:1887   */\n      revert\n        /* \"#utility.yul\":1826:1889   */\n    tag_57:\n        /* \"#utility.yul\":1773:1895   */\n      pop\n      jump\t// out\n        /* \"#utility.yul\":1901:2023   */\n    tag_31:\n        /* \"#utility.yul\":1974:1998   */\n      tag_59\n        /* \"#utility.yul\":1992:1997   */\n      dup2\n        /* \"#utility.yul\":1974:1998   */\n      tag_41\n      jump\t// in\n    tag_59:\n        /* \"#utility.yul\":1967:1972   */\n      dup2\n        /* \"#utility.yul\":1964:1999   */\n      eq\n        /* \"#utility.yul\":1954:2017   */\n      tag_60\n      jumpi\n        /* \"#utility.yul\":2013:2014   */\n      0x00\n        /* \"#utility.yul\":2010:2011   */\n      dup1\n        /* \"#utility.yul\":2003:2015   */\n      revert\n        /* \"#utility.yul\":1954:2017   */\n    tag_60:\n        /* \"#utility.yul\":1901:2023   */\n      pop\n      jump\t// out\n\n    auxdata: 0xa26469706673582212205d69ce9ad4cb2bed2ec6466ae4c78013f0593eb1d3b8dde7172f720d9656d5f864736f6c63430008070033\n}\n",
				"bytecode": {
					"linkReferences": {},
					"object": "608060405234801561001057600080fd5b5061028a806100206000396000f3fe608060405234801561001057600080fd5b50600436106100365760003560e01c80634a2ad99f1461003b5780635ada6dd414610057575b600080fd5b6100556004803603810190610050919061017b565b610073565b005b610071600480360381019061006c919061017b565b6100e2565b005b8173ffffffffffffffffffffffffffffffffffffffff16634018d9aa826040518263ffffffff1660e01b81526004016100ac91906101ca565b600060405180830381600087803b1580156100c657600080fd5b505af11580156100da573d6000803e3d6000fd5b505050505050565b8173ffffffffffffffffffffffffffffffffffffffff16634018d9aa826040518263ffffffff1660e01b815260040161011b91906101ca565b600060405180830381600087803b15801561013557600080fd5b505af1158015610149573d6000803e3d6000fd5b505050505050565b60008135905061016081610226565b92915050565b6000813590506101758161023d565b92915050565b6000806040838503121561019257610191610221565b5b60006101a085828601610151565b92505060206101b185828601610166565b9150509250929050565b6101c481610217565b82525050565b60006020820190506101df60008301846101bb565b92915050565b60006101f0826101f7565b9050919050565b600073ffffffffffffffffffffffffffffffffffffffff82169050919050565b6000819050919050565b600080fd5b61022f816101e5565b811461023a57600080fd5b50565b61024681610217565b811461025157600080fd5b5056fea26469706673582212205d69ce9ad4cb2bed2ec6466ae4c78013f0593eb1d3b8dde7172f720d9656d5f864736f6c63430008070033",
					"opcodes": "PUSH1 0x80 PUSH1 0x40 MSTORE CALLVALUE DUP1 ISZERO PUSH2 0x10 JUMPI PUSH1 0x0 DUP1 REVERT JUMPDEST POP PUSH2 0x28A DUP1 PUSH2 0x20 PUSH1 0x0 CODECOPY PUSH1 0x0 RETURN INVALID PUSH1 0x80 PUSH1 0x40 MSTORE CALLVALUE DUP1 ISZERO PUSH2 0x10 JUMPI PUSH1 0x0 DUP1 REVERT JUMPDEST POP PUSH1 0x4 CALLDATASIZE LT PUSH2 0x36 JUMPI PUSH1 0x0 CALLDATALOAD PUSH1 0xE0 SHR DUP1 PUSH4 0x4A2AD99F EQ PUSH2 0x3B JUMPI DUP1 PUSH4 0x5ADA6DD4 EQ PUSH2 0x57 JUMPI JUMPDEST PUSH1 0x0 DUP1 REVERT JUMPDEST PUSH2 0x55 PUSH1 0x4 DUP1 CALLDATASIZE SUB DUP2 ADD SWAP1 PUSH2 0x50 SWAP2 SWAP1 PUSH2 0x17B JUMP JUMPDEST PUSH2 0x73 JUMP JUMPDEST STOP JUMPDEST PUSH2 0x71 PUSH1 0x4 DUP1 CALLDATASIZE SUB DUP2 ADD SWAP1 PUSH2 0x6C SWAP2 SWAP1 PUSH2 0x17B JUMP JUMPDEST PUSH2 0xE2 JUMP JUMPDEST STOP JUMPDEST DUP2 PUSH20 0xFFFFFFFFFFFFFFFFFFFFFFFFFFFFFFFFFFFFFFFF AND PUSH4 0x4018D9AA DUP3 PUSH1 0x40 MLOAD DUP3 PUSH4 0xFFFFFFFF AND PUSH1 0xE0 SHL DUP2 MSTORE PUSH1 0x4 ADD PUSH2 0xAC SWAP2 SWAP1 PUSH2 0x1CA JUMP JUMPDEST PUSH1 0x0 PUSH1 0x40 MLOAD DUP1 DUP4 SUB DUP2 PUSH1 0x0 DUP8 DUP1 EXTCODESIZE ISZERO DUP1 ISZERO PUSH2 0xC6 JUMPI PUSH1 0x0 DUP1 REVERT JUMPDEST POP GAS CALL ISZERO DUP1 ISZERO PUSH2 0xDA JUMPI RETURNDATASIZE PUSH1 0x0 DUP1 RETURNDATACOPY RETURNDATASIZE PUSH1 0x0 REVERT JUMPDEST POP POP POP POP POP POP JUMP JUMPDEST DUP2 PUSH20 0xFFFFFFFFFFFFFFFFFFFFFFFFFFFFFFFFFFFFFFFF AND PUSH4 0x4018D9AA DUP3 PUSH1 0x40 MLOAD DUP3 PUSH4 0xFFFFFFFF AND PUSH1 0xE0 SHL DUP2 MSTORE PUSH1 0x4 ADD PUSH2 0x11B SWAP2 SWAP1 PUSH2 0x1CA JUMP JUMPDEST PUSH1 0x0 PUSH1 0x40 MLOAD DUP1 DUP4 SUB DUP2 PUSH1 0x0 DUP8 DUP1 EXTCODESIZE ISZERO DUP1 ISZERO PUSH2 0x135 JUMPI PUSH1 0x0 DUP1 REVERT JUMPDEST POP GAS CALL ISZERO DUP1 ISZERO PUSH2 0x149 JUMPI RETURNDATASIZE PUSH1 0x0 DUP1 RETURNDATACOPY RETURNDATASIZE PUSH1 0x0 REVERT JUMPDEST POP POP POP POP POP POP JUMP JUMPDEST PUSH1 0x0 DUP2 CALLDATALOAD SWAP1 POP PUSH2 0x160 DUP2 PUSH2 0x226 JUMP JUMPDEST SWAP3 SWAP2 POP POP JUMP JUMPDEST PUSH1 0x0 DUP2 CALLDATALOAD SWAP1 POP PUSH2 0x175 DUP2 PUSH2 0x23D JUMP JUMPDEST SWAP3 SWAP2 POP POP JUMP JUMPDEST PUSH1 0x0 DUP1 PUSH1 0x40 DUP4 DUP6 SUB SLT ISZERO PUSH2 0x192 JUMPI PUSH2 0x191 PUSH2 0x221 JUMP JUMPDEST JUMPDEST PUSH1 0x0 PUSH2 0x1A0 DUP6 DUP3 DUP7 ADD PUSH2 0x151 JUMP JUMPDEST SWAP3 POP POP PUSH1 0x20 PUSH2 0x1B1 DUP6 DUP3 DUP7 ADD PUSH2 0x166 JUMP JUMPDEST SWAP2 POP POP SWAP3 POP SWAP3 SWAP1 POP JUMP JUMPDEST PUSH2 0x1C4 DUP2 PUSH2 0x217 JUMP JUMPDEST DUP3 MSTORE POP POP JUMP JUMPDEST PUSH1 0x0 PUSH1 0x20 DUP3 ADD SWAP1 POP PUSH2 0x1DF PUSH1 0x0 DUP4 ADD DUP5 PUSH2 0x1BB JUMP JUMPDEST SWAP3 SWAP2 POP POP JUMP JUMPDEST PUSH1 0x0 PUSH2 0x1F0 DUP3 PUSH2 0x1F7 JUMP JUMPDEST SWAP1 POP SWAP2 SWAP1 POP JUMP JUMPDEST PUSH1 0x0 PUSH20 0xFFFFFFFFFFFFFFFFFFFFFFFFFFFFFFFFFFFFFFFF DUP3 AND SWAP1 POP SWAP2 SWAP1 POP JUMP JUMPDEST PUSH1 0x0 DUP2 SWAP1 POP SWAP2 SWAP1 POP JUMP JUMPDEST PUSH1 0x0 DUP1 REVERT JUMPDEST PUSH2 0x22F DUP2 PUSH2 0x1E5 JUMP JUMPDEST DUP2 EQ PUSH2 0x23A JUMPI PUSH1 0x0 DUP1 REVERT JUMPDEST POP JUMP JUMPDEST PUSH2 0x246 DUP2 PUSH2 0x217 JUMP JUMPDEST DUP2 EQ PUSH2 0x251 JUMPI PUSH1 0x0 DUP1 REVERT JUMPDEST POP JUMP INVALID LOG2 PUSH5 0x6970667358 0x22 SLT KECCAK256 0x5D PUSH10 0xCE9AD4CB2BED2EC6466A 0xE4 0xC7 DUP1 SGT CREATE MSIZE RETURNDATACOPY 0xB1 0xD3 0xB8 0xDD 0xE7 OR 0x2F PUSH19 0xD9656D5F864736F6C63430008070033000000 "
				},
				"gasEstimates": {
					"creation": {
						"codeDepositCost": "130000",
						"executionCost": "177",
						"totalCost": "130177"
					},
					"external": {
						"setX(address,uint256)": "infinite",
						"setXx(address,uint256)": "infinite"
					}
				},
				"methodIdentifiers": {
					"setX(address,uint256)": "4a2ad99f",
					"setXx(address,uint256)": "5ada6dd4"
				}
			},
			"storageLayout": {
				"storage": [],
				"types": null
			},
			"userdoc": {
				"kind": "user",
				"methods": {},
				"version": 1
			}
		}
	}
}