{
	"study/chapter09/mappingbasic.sol": {
		"testMapping": {
			"abi": [
				{
					"inputs": [
						{
							"internalType": "contract testMapping",
							"name": "",
							"type": "address"
						}
					],
					"name": "IsInit",
					"outputs": [
						{
							"internalType": "bool",
							"name": "",
							"type": "bool"
						}
					],
					"stateMutability": "view",
					"type": "function"
				},
				{
					"inputs": [
						{
							"internalType": "address",
							"name": "",
							"type": "address"
						}
					],
					"name": "balance",
					"outputs": [
						{
							"internalType": "uint256",
							"name": "",
							"type": "uint256"
						}
					],
					"stateMutability": "view",
					"type": "function"
				}
			],
			"devdoc": {
				"kind": "dev",
				"methods": {},
				"version": 1
			},
			"evm": {
				"assembly": "    /* \"study/chapter09/mappingbasic.sol\":55:171  contract testMapping{... */\n  mstore(0x40, 0x80)\n  callvalue\n  dup1\n  iszero\n  tag_1\n  jumpi\n  0x00\n  dup1\n  revert\ntag_1:\n  pop\n  dataSize(sub_0)\n  dup1\n  dataOffset(sub_0)\n  0x00\n  codecopy\n  0x00\n  return\nstop\n\nsub_0: assembly {\n        /* \"study/chapter09/mappingbasic.sol\":55:171  contract testMapping{... */\n      mstore(0x40, 0x80)\n      callvalue\n      dup1\n      iszero\n      tag_1\n      jumpi\n      0x00\n      dup1\n      revert\n    tag_1:\n      pop\n      jumpi(tag_2, lt(calldatasize, 0x04))\n      shr(0xe0, calldataload(0x00))\n      dup1\n      0x0642c001\n      eq\n      tag_3\n      jumpi\n      dup1\n      0xe3d670d7\n      eq\n      tag_4\n      jumpi\n    tag_2:\n      0x00\n      dup1\n      revert\n        /* \"study/chapter09/mappingbasic.sol\":124:164  mapping(testMapping=>bool) public IsInit */\n    tag_3:\n      tag_5\n      0x04\n      dup1\n      calldatasize\n      sub\n      dup2\n      add\n      swap1\n      tag_6\n      swap2\n      swap1\n      tag_7\n      jump\t// in\n    tag_6:\n      tag_8\n      jump\t// in\n    tag_5:\n      mload(0x40)\n      tag_9\n      swap2\n      swap1\n      tag_10\n      jump\t// in\n    tag_9:\n      mload(0x40)\n      dup1\n      swap2\n      sub\n      swap1\n      return\n        /* \"study/chapter09/mappingbasic.sol\":81:118  mapping(address=>uint) public balance */\n    tag_4:\n      tag_11\n      0x04\n      dup1\n      calldatasize\n      sub\n      dup2\n      add\n      swap1\n      tag_12\n      swap2\n      swap1\n      tag_13\n      jump\t// in\n    tag_12:\n      tag_14\n      jump\t// in\n    tag_11:\n      mload(0x40)\n      tag_15\n      swap2\n      swap1\n      tag_16\n      jump\t// in\n    tag_15:\n      mload(0x40)\n      dup1\n      swap2\n      sub\n      swap1\n      return\n        /* \"study/chapter09/mappingbasic.sol\":124:164  mapping(testMapping=>bool) public IsInit */\n    tag_8:\n      mstore(0x20, 0x01)\n      dup1\n      0x00\n      mstore\n      keccak256(0x00, 0x40)\n      0x00\n      swap2\n      pop\n      sload\n      swap1\n      0x0100\n      exp\n      swap1\n      div\n      0xff\n      and\n      dup2\n      jump\t// out\n        /* \"study/chapter09/mappingbasic.sol\":81:118  mapping(address=>uint) public balance */\n    tag_14:\n      mstore(0x20, 0x00)\n      dup1\n      0x00\n      mstore\n      keccak256(0x00, 0x40)\n      0x00\n      swap2\n      pop\n      swap1\n      pop\n      sload\n      dup2\n      jump\t// out\n        /* \"#utility.yul\":7:146   */\n    tag_18:\n        /* \"#utility.yul\":53:58   */\n      0x00\n        /* \"#utility.yul\":91:97   */\n      dup2\n        /* \"#utility.yul\":78:98   */\n      calldataload\n        /* \"#utility.yul\":69:98   */\n      swap1\n      pop\n        /* \"#utility.yul\":107:140   */\n      tag_20\n        /* \"#utility.yul\":134:139   */\n      dup2\n        /* \"#utility.yul\":107:140   */\n      tag_21\n      jump\t// in\n    tag_20:\n        /* \"#utility.yul\":7:146   */\n      swap3\n      swap2\n      pop\n      pop\n      jump\t// out\n        /* \"#utility.yul\":152:327   */\n    tag_22:\n        /* \"#utility.yul\":216:221   */\n      0x00\n        /* \"#utility.yul\":254:260   */\n      dup2\n        /* \"#utility.yul\":241:261   */\n      calldataload\n        /* \"#utility.yul\":232:261   */\n      swap1\n      pop\n        /* \"#utility.yul\":270:321   */\n      tag_24\n        /* \"#utility.yul\":315:320   */\n      dup2\n        /* \"#utility.yul\":270:321   */\n      tag_25\n      jump\t// in\n    tag_24:\n        /* \"#utility.yul\":152:327   */\n      swap3\n      swap2\n      pop\n      pop\n      jump\t// out\n        /* \"#utility.yul\":333:662   */\n    tag_13:\n        /* \"#utility.yul\":392:398   */\n      0x00\n        /* \"#utility.yul\":441:443   */\n      0x20\n        /* \"#utility.yul\":429:438   */\n      dup3\n        /* \"#utility.yul\":420:427   */\n      dup5\n        /* \"#utility.yul\":416:439   */\n      sub\n        /* \"#utility.yul\":412:444   */\n      slt\n        /* \"#utility.yul\":409:528   */\n      iszero\n      tag_27\n      jumpi\n        /* \"#utility.yul\":447:526   */\n      tag_28\n      tag_29\n      jump\t// in\n    tag_28:\n        /* \"#utility.yul\":409:528   */\n    tag_27:\n        /* \"#utility.yul\":567:568   */\n      0x00\n        /* \"#utility.yul\":592:645   */\n      tag_30\n        /* \"#utility.yul\":637:644   */\n      dup5\n        /* \"#utility.yul\":628:634   */\n      dup3\n        /* \"#utility.yul\":617:626   */\n      dup6\n        /* \"#utility.yul\":613:635   */\n      add\n        /* \"#utility.yul\":592:645   */\n      tag_18\n      jump\t// in\n    tag_30:\n        /* \"#utility.yul\":582:645   */\n      swap2\n      pop\n        /* \"#utility.yul\":538:655   */\n      pop\n        /* \"#utility.yul\":333:662   */\n      swap3\n      swap2\n      pop\n      pop\n      jump\t// out\n        /* \"#utility.yul\":668:1033   */\n    tag_7:\n        /* \"#utility.yul\":745:751   */\n      0x00\n        /* \"#utility.yul\":794:796   */\n      0x20\n        /* \"#utility.yul\":782:791   */\n      dup3\n        /* \"#utility.yul\":773:780   */\n      dup5\n        /* \"#utility.yul\":769:792   */\n      sub\n        /* \"#utility.yul\":765:797   */\n      slt\n        /* \"#utility.yul\":762:881   */\n      iszero\n      tag_32\n      jumpi\n        /* \"#utility.yul\":800:879   */\n      tag_33\n      tag_29\n      jump\t// in\n    tag_33:\n        /* \"#utility.yul\":762:881   */\n    tag_32:\n        /* \"#utility.yul\":920:921   */\n      0x00\n        /* \"#utility.yul\":945:1016   */\n      tag_34\n        /* \"#utility.yul\":1008:1015   */\n      dup5\n        /* \"#utility.yul\":999:1005   */\n      dup3\n        /* \"#utility.yul\":988:997   */\n      dup6\n        /* \"#utility.yul\":984:1006   */\n      add\n        /* \"#utility.yul\":945:1016   */\n      tag_22\n      jump\t// in\n    tag_34:\n        /* \"#utility.yul\":935:1016   */\n      swap2\n      pop\n        /* \"#utility.yul\":891:1026   */\n      pop\n        /* \"#utility.yul\":668:1033   */\n      swap3\n      swap2\n      pop\n      pop\n      jump\t// out\n        /* \"#utility.yul\":1039:1148   */\n    tag_35:\n        /* \"#utility.yul\":1120:1141   */\n      tag_37\n        /* \"#utility.yul\":1135:1140   */\n      dup2\n        /* \"#utility.yul\":1120:1141   */\n      tag_38\n      jump\t// in\n    tag_37:\n        /* \"#utility.yul\":1115:1118   */\n      dup3\n        /* \"#utility.yul\":1108:1142   */\n      mstore\n        /* \"#utility.yul\":1039:1148   */\n      pop\n      pop\n      jump\t// out\n        /* \"#utility.yul\":1154:1272   */\n    tag_39:\n        /* \"#utility.yul\":1241:1265   */\n      tag_41\n        /* \"#utility.yul\":1259:1264   */\n      dup2\n        /* \"#utility.yul\":1241:1265   */\n      tag_42\n      jump\t// in\n    tag_41:\n        /* \"#utility.yul\":1236:1239   */\n      dup3\n        /* \"#utility.yul\":1229:1266   */\n      mstore\n        /* \"#utility.yul\":1154:1272   */\n      pop\n      pop\n      jump\t// out\n        /* \"#utility.yul\":1278:1488   */\n    tag_10:\n        /* \"#utility.yul\":1365:1369   */\n      0x00\n        /* \"#utility.yul\":1403:1405   */\n      0x20\n        /* \"#utility.yul\":1392:1401   */\n      dup3\n        /* \"#utility.yul\":1388:1406   */\n      add\n        /* \"#utility.yul\":1380:1406   */\n      swap1\n      pop\n        /* \"#utility.yul\":1416:1481   */\n      tag_44\n        /* \"#utility.yul\":1478:1479   */\n      0x00\n        /* \"#utility.yul\":1467:1476   */\n      dup4\n        /* \"#utility.yul\":1463:1480   */\n      add\n        /* \"#utility.yul\":1454:1460   */\n      dup5\n        /* \"#utility.yul\":1416:1481   */\n      tag_35\n      jump\t// in\n    tag_44:\n        /* \"#utility.yul\":1278:1488   */\n      swap3\n      swap2\n      pop\n      pop\n      jump\t// out\n        /* \"#utility.yul\":1494:1716   */\n    tag_16:\n        /* \"#utility.yul\":1587:1591   */\n      0x00\n        /* \"#utility.yul\":1625:1627   */\n      0x20\n        /* \"#utility.yul\":1614:1623   */\n      dup3\n        /* \"#utility.yul\":1610:1628   */\n      add\n        /* \"#utility.yul\":1602:1628   */\n      swap1\n      pop\n        /* \"#utility.yul\":1638:1709   */\n      tag_46\n        /* \"#utility.yul\":1706:1707   */\n      0x00\n        /* \"#utility.yul\":1695:1704   */\n      dup4\n        /* \"#utility.yul\":1691:1708   */\n      add\n        /* \"#utility.yul\":1682:1688   */\n      dup5\n        /* \"#utility.yul\":1638:1709   */\n      tag_39\n      jump\t// in\n    tag_46:\n        /* \"#utility.yul\":1494:1716   */\n      swap3\n      swap2\n      pop\n      pop\n      jump\t// out\n        /* \"#utility.yul\":1803:1899   */\n    tag_49:\n        /* \"#utility.yul\":1840:1847   */\n      0x00\n        /* \"#utility.yul\":1869:1893   */\n      tag_51\n        /* \"#utility.yul\":1887:1892   */\n      dup3\n        /* \"#utility.yul\":1869:1893   */\n      tag_52\n      jump\t// in\n    tag_51:\n        /* \"#utility.yul\":1858:1893   */\n      swap1\n      pop\n        /* \"#utility.yul\":1803:1899   */\n      swap2\n      swap1\n      pop\n      jump\t// out\n        /* \"#utility.yul\":1905:1995   */\n    tag_38:\n        /* \"#utility.yul\":1939:1946   */\n      0x00\n        /* \"#utility.yul\":1982:1987   */\n      dup2\n        /* \"#utility.yul\":1975:1988   */\n      iszero\n        /* \"#utility.yul\":1968:1989   */\n      iszero\n        /* \"#utility.yul\":1957:1989   */\n      swap1\n      pop\n        /* \"#utility.yul\":1905:1995   */\n      swap2\n      swap1\n      pop\n      jump\t// out\n        /* \"#utility.yul\":2001:2115   */\n    tag_54:\n        /* \"#utility.yul\":2056:2063   */\n      0x00\n        /* \"#utility.yul\":2085:2109   */\n      tag_56\n        /* \"#utility.yul\":2103:2108   */\n      dup3\n        /* \"#utility.yul\":2085:2109   */\n      tag_49\n      jump\t// in\n    tag_56:\n        /* \"#utility.yul\":2074:2109   */\n      swap1\n      pop\n        /* \"#utility.yul\":2001:2115   */\n      swap2\n      swap1\n      pop\n      jump\t// out\n        /* \"#utility.yul\":2121:2247   */\n    tag_52:\n        /* \"#utility.yul\":2158:2165   */\n      0x00\n        /* \"#utility.yul\":2198:2240   */\n      0xffffffffffffffffffffffffffffffffffffffff\n        /* \"#utility.yul\":2191:2196   */\n      dup3\n        /* \"#utility.yul\":2187:2241   */\n      and\n        /* \"#utility.yul\":2176:2241   */\n      swap1\n      pop\n        /* \"#utility.yul\":2121:2247   */\n      swap2\n      swap1\n      pop\n      jump\t// out\n        /* \"#utility.yul\":2253:2330   */\n    tag_42:\n        /* \"#utility.yul\":2290:2297   */\n      0x00\n        /* \"#utility.yul\":2319:2324   */\n      dup2\n        /* \"#utility.yul\":2308:2324   */\n      swap1\n      pop\n        /* \"#utility.yul\":2253:2330   */\n      swap2\n      swap1\n      pop\n      jump\t// out\n        /* \"#utility.yul\":2459:2576   */\n    tag_29:\n        /* \"#utility.yul\":2568:2569   */\n      0x00\n        /* \"#utility.yul\":2565:2566   */\n      dup1\n        /* \"#utility.yul\":2558:2570   */\n      revert\n        /* \"#utility.yul\":2582:2704   */\n    tag_21:\n        /* \"#utility.yul\":2655:2679   */\n      tag_63\n        /* \"#utility.yul\":2673:2678   */\n      dup2\n        /* \"#utility.yul\":2655:2679   */\n      tag_49\n      jump\t// in\n    tag_63:\n        /* \"#utility.yul\":2648:2653   */\n      dup2\n        /* \"#utility.yul\":2645:2680   */\n      eq\n        /* \"#utility.yul\":2635:2698   */\n      tag_64\n      jumpi\n        /* \"#utility.yul\":2694:2695   */\n      0x00\n        /* \"#utility.yul\":2691:2692   */\n      dup1\n        /* \"#utility.yul\":2684:2696   */\n      revert\n        /* \"#utility.yul\":2635:2698   */\n    tag_64:\n        /* \"#utility.yul\":2582:2704   */\n      pop\n      jump\t// out\n        /* \"#utility.yul\":2710:2868   */\n    tag_25:\n        /* \"#utility.yul\":2801:2843   */\n      tag_66\n        /* \"#utility.yul\":2837:2842   */\n      dup2\n        /* \"#utility.yul\":2801:2843   */\n      tag_54\n      jump\t// in\n    tag_66:\n        /* \"#utility.yul\":2794:2799   */\n      dup2\n        /* \"#utility.yul\":2791:2844   */\n      eq\n        /* \"#utility.yul\":2781:2862   */\n      tag_67\n      jumpi\n        /* \"#utility.yul\":2858:2859   */\n      0x00\n        /* \"#utility.yul\":2855:2856   */\n      dup1\n        /* \"#utility.yul\":2848:2860   */\n      revert\n        /* \"#utility.yul\":2781:2862   */\n    tag_67:\n        /* \"#utility.yul\":2710:2868   */\n      pop\n      jump\t// out\n\n    auxdata: 0xa26469706673582212204f2922e6cea111374d923928289225c3616435918309e67f97187512566d9c7364736f6c63430008070033\n}\n",
				"bytecode": {
					"linkReferences": {},
					"object": "608060405234801561001057600080fd5b5061026e806100206000396000f3fe608060405234801561001057600080fd5b50600436106100365760003560e01c80630642c0011461003b578063e3d670d71461006b575b600080fd5b6100556004803603810190610050919061012a565b61009b565b6040516100629190610175565b60405180910390f35b610085600480360381019061008091906100fd565b6100bb565b6040516100929190610190565b60405180910390f35b60016020528060005260406000206000915054906101000a900460ff1681565b60006020528060005260406000206000915090505481565b6000813590506100e28161020a565b92915050565b6000813590506100f781610221565b92915050565b60006020828403121561011357610112610205565b5b6000610121848285016100d3565b91505092915050565b6000602082840312156101405761013f610205565b5b600061014e848285016100e8565b91505092915050565b610160816101bd565b82525050565b61016f816101fb565b82525050565b600060208201905061018a6000830184610157565b92915050565b60006020820190506101a56000830184610166565b92915050565b60006101b6826101db565b9050919050565b60008115159050919050565b60006101d4826101ab565b9050919050565b600073ffffffffffffffffffffffffffffffffffffffff82169050919050565b6000819050919050565b600080fd5b610213816101ab565b811461021e57600080fd5b50565b61022a816101c9565b811461023557600080fd5b5056fea26469706673582212204f2922e6cea111374d923928289225c3616435918309e67f97187512566d9c7364736f6c63430008070033",
					"opcodes": "PUSH1 0x80 PUSH1 0x40 MSTORE CALLVALUE DUP1 ISZERO PUSH2 0x10 JUMPI PUSH1 0x0 DUP1 REVERT JUMPDEST POP PUSH2 0x26E DUP1 PUSH2 0x20 PUSH1 0x0 CODECOPY PUSH1 0x0 RETURN INVALID PUSH1 0x80 PUSH1 0x40 MSTORE CALLVALUE DUP1 ISZERO PUSH2 0x10 JUMPI PUSH1 0x0 DUP1 REVERT JUMPDEST POP PUSH1 0x4 CALLDATASIZE LT PUSH2 0x36 JUMPI PUSH1 0x0 CALLDATALOAD PUSH1 0xE0 SHR DUP1 PUSH4 0x642C001 EQ PUSH2 0x3B JUMPI DUP1 PUSH4 0xE3D670D7 EQ PUSH2 0x6B JUMPI JUMPDEST PUSH1 0x0 DUP1 REVERT JUMPDEST PUSH2 0x55 PUSH1 0x4 DUP1 CALLDATASIZE SUB DUP2 ADD SWAP1 PUSH2 0x50 SWAP2 SWAP1 PUSH2 0x12A JUMP JUMPDEST PUSH2 0x9B JUMP JUMPDEST PUSH1 0x40 MLOAD PUSH2 0x62 SWAP2 SWAP1 PUSH2 0x175 JUMP JUMPDEST PUSH1 0x40 MLOAD DUP1 SWAP2 SUB SWAP1 RETURN JUMPDEST PUSH2 0x85 PUSH1 0x4 DUP1 CALLDATASIZE SUB DUP2 ADD SWAP1 PUSH2 0x80 SWAP2 SWAP1 PUSH2 0xFD JUMP JUMPDEST PUSH2 0xBB JUMP JUMPDEST PUSH1 0x40 MLOAD PUSH2 0x92 SWAP2 SWAP1 PUSH2 0x190 JUMP JUMPDEST PUSH1 0x40 MLOAD DUP1 SWAP2 SUB SWAP1 RETURN JUMPDEST PUSH1 0x1 PUSH1 0x20 MSTORE DUP1 PUSH1 0x0 MSTORE PUSH1 0x40 PUSH1 0x0 KECCAK256 PUSH1 0x0 SWAP2 POP SLOAD SWAP1 PUSH2 0x100 EXP SWAP1 DIV PUSH1 0xFF AND DUP2 JUMP JUMPDEST PUSH1 0x0 PUSH1 0x20 MSTORE DUP1 PUSH1 0x0 MSTORE PUSH1 0x40 PUSH1 0x0 KECCAK256 PUSH1 0x0 SWAP2 POP SWAP1 POP SLOAD DUP2 JUMP JUMPDEST PUSH1 0x0 DUP2 CALLDATALOAD SWAP1 POP PUSH2 0xE2 DUP2 PUSH2 0x20A JUMP JUMPDEST SWAP3 SWAP2 POP POP JUMP JUMPDEST PUSH1 0x0 DUP2 CALLDATALOAD SWAP1 POP PUSH2 0xF7 DUP2 PUSH2 0x221 JUMP JUMPDEST SWAP3 SWAP2 POP POP JUMP JUMPDEST PUSH1 0x0 PUSH1 0x20 DUP3 DUP5 SUB SLT ISZERO PUSH2 0x113 JUMPI PUSH2 0x112 PUSH2 0x205 JUMP JUMPDEST JUMPDEST PUSH1 0x0 PUSH2 0x121 DUP5 DUP3 DUP6 ADD PUSH2 0xD3 JUMP JUMPDEST SWAP2 POP POP SWAP3 SWAP2 POP POP JUMP JUMPDEST PUSH1 0x0 PUSH1 0x20 DUP3 DUP5 SUB SLT ISZERO PUSH2 0x140 JUMPI PUSH2 0x13F PUSH2 0x205 JUMP JUMPDEST JUMPDEST PUSH1 0x0 PUSH2 0x14E DUP5 DUP3 DUP6 ADD PUSH2 0xE8 JUMP JUMPDEST SWAP2 POP POP SWAP3 SWAP2 POP POP JUMP JUMPDEST PUSH2 0x160 DUP2 PUSH2 0x1BD JUMP JUMPDEST DUP3 MSTORE POP POP JUMP JUMPDEST PUSH2 0x16F DUP2 PUSH2 0x1FB JUMP JUMPDEST DUP3 MSTORE POP POP JUMP JUMPDEST PUSH1 0x0 PUSH1 0x20 DUP3 ADD SWAP1 POP PUSH2 0x18A PUSH1 0x0 DUP4 ADD DUP5 PUSH2 0x157 JUMP JUMPDEST SWAP3 SWAP2 POP POP JUMP JUMPDEST PUSH1 0x0 PUSH1 0x20 DUP3 ADD SWAP1 POP PUSH2 0x1A5 PUSH1 0x0 DUP4 ADD DUP5 PUSH2 0x166 JUMP JUMPDEST SWAP3 SWAP2 POP POP JUMP JUMPDEST PUSH1 0x0 PUSH2 0x1B6 DUP3 PUSH2 0x1DB JUMP JUMPDEST SWAP1 POP SWAP2 SWAP1 POP JUMP JUMPDEST PUSH1 0x0 DUP2 ISZERO ISZERO SWAP1 POP SWAP2 SWAP1 POP JUMP JUMPDEST PUSH1 0x0 PUSH2 0x1D4 DUP3 PUSH2 0x1AB JUMP JUMPDEST SWAP1 POP SWAP2 SWAP1 POP JUMP JUMPDEST PUSH1 0x0 PUSH20 0xFFFFFFFFFFFFFFFFFFFFFFFFFFFFFFFFFFFFFFFF DUP3 AND SWAP1 POP SWAP2 SWAP1 POP JUMP JUMPDEST PUSH1 0x0 DUP2 SWAP1 POP SWAP2 SWAP1 POP JUMP JUMPDEST PUSH1 0x0 DUP1 REVERT JUMPDEST PUSH2 0x213 DUP2 PUSH2 0x1AB JUMP JUMPDEST DUP2 EQ PUSH2 0x21E JUMPI PUSH1 0x0 DUP1 REVERT JUMPDEST POP JUMP JUMPDEST PUSH2 0x22A DUP2 PUSH2 0x1C9 JUMP JUMPDEST DUP2 EQ PUSH2 0x235 JUMPI PUSH1 0x0 DUP1 REVERT JUMPDEST POP JUMP INVALID LOG2 PUSH5 0x6970667358 0x22 SLT KECCAK256 0x4F 0x29 0x22 0xE6 0xCE LOG1 GT CALLDATACOPY 0x4D SWAP3 CODECOPY 0x28 0x28 SWAP3 0x25 0xC3 PUSH2 0x6435 SWAP2 DUP4 MULMOD 0xE6 PUSH32 0x97187512566D9C7364736F6C6343000807003300000000000000000000000000 "
				},
				"gasEstimates": {
					"creation": {
						"codeDepositCost": "124400",
						"executionCost": "171",
						"totalCost": "124571"
					},
					"external": {
						"IsInit(address)": "2866",
						"balance(address)": "2814"
					}
				},
				"methodIdentifiers": {
					"IsInit(address)": "0642c001",
					"balance(address)": "e3d670d7"
				}
			},
			"storageLayout": {
				"storage": [
					{
						"astId": 5,
						"contract": "study/chapter09/mappingbasic.sol:testMapping",
						"label": "balance",
						"offset": 0,
						"slot": "0",
						"type": "t_mapping(t_address,t_uint256)"
					},
					{
						"astId": 10,
						"contract": "study/chapter09/mappingbasic.sol:testMapping",
						"label": "IsInit",
						"offset": 0,
						"slot": "1",
						"type": "t_mapping(t_contract(testMapping)11,t_bool)"
					}
				],
				"types": {
					"t_address": {
						"encoding": "inplace",
						"label": "address",
						"numberOfBytes": "20"
					},
					"t_bool": {
						"encoding": "inplace",
						"label": "bool",
						"numberOfBytes": "1"
					},
					"t_contract(testMapping)11": {
						"encoding": "inplace",
						"label": "contract testMapping",
						"numberOfBytes": "20"
					},
					"t_mapping(t_address,t_uint256)": {
						"encoding": "mapping",
						"key": "t_address",
						"label": "mapping(address => uint256)",
						"numberOfBytes": "32",
						"value": "t_uint256"
					},
					"t_mapping(t_contract(testMapping)11,t_bool)": {
						"encoding": "mapping",
						"key": "t_contract(testMapping)11",
						"label": "mapping(contract testMapping => bool)",
						"numberOfBytes": "32",
						"value": "t_bool"
					},
					"t_uint256": {
						"encoding": "inplace",
						"label": "uint256",
						"numberOfBytes": "32"
					}
				}
			},
			"userdoc": {
				"kind": "user",
				"methods": {},
				"version": 1
			}
		}
	}
}