{
	"study/chapter09/position.sol": {
		"testP": {
			"abi": [
				{
					"inputs": [],
					"name": "m",
					"outputs": [
						{
							"internalType": "string",
							"name": "Name",
							"type": "string"
						},
						{
							"internalType": "uint256",
							"name": "Age",
							"type": "uint256"
						}
					],
					"stateMutability": "view",
					"type": "function"
				},
				{
					"inputs": [],
					"name": "p",
					"outputs": [
						{
							"internalType": "string",
							"name": "Name",
							"type": "string"
						},
						{
							"internalType": "uint256",
							"name": "Age",
							"type": "uint256"
						}
					],
					"stateMutability": "view",
					"type": "function"
				},
				{
					"inputs": [],
					"name": "p1",
					"outputs": [
						{
							"internalType": "string",
							"name": "Name",
							"type": "string"
						},
						{
							"internalType": "uint256",
							"name": "Age",
							"type": "uint256"
						}
					],
					"stateMutability": "view",
					"type": "function"
				}
			],
			"devdoc": {
				"kind": "dev",
				"methods": {},
				"version": 1
			},
			"evm": {
				"assembly": "    /* \"study/chapter09/position.sol\":104:354  contract testP{... */\n  mstore(0x40, 0x80)\n    /* \"study/chapter09/position.sol\":267:282  People(\"wp\",25) */\n  mload(0x40)\n  dup1\n  0x40\n  add\n  0x40\n  mstore\n  dup1\n  mload(0x40)\n  dup1\n  0x40\n  add\n  0x40\n  mstore\n  dup1\n  0x02\n  dup2\n  mstore\n  0x20\n  add\n  0x7770000000000000000000000000000000000000000000000000000000000000\n  dup2\n  mstore\n  pop\n  dup2\n  mstore\n  0x20\n  add\n    /* \"study/chapter09/position.sol\":279:281  25 */\n  0x19\n    /* \"study/chapter09/position.sol\":267:282  People(\"wp\",25) */\n  dup2\n  mstore\n  pop\n    /* \"study/chapter09/position.sol\":249:282  People public p = People(\"wp\",25) */\n  0x00\n  dup1\n  dup3\n  add\n  mload\n  dup2\n  0x00\n  add\n  swap1\n  dup1\n  mload\n  swap1\n  0x20\n  add\n  swap1\n  tag_1\n  swap3\n  swap2\n  swap1\n  tag_2\n  jump\t// in\ntag_1:\n  pop\n  0x20\n  dup3\n  add\n  mload\n  dup2\n  0x01\n  add\n  sstore\n  pop\n  pop\n    /* \"study/chapter09/position.sol\":307:332  People({Name:\"no\",Age:0}) */\n  mload(0x40)\n  dup1\n  0x40\n  add\n  0x40\n  mstore\n  dup1\n  mload(0x40)\n  dup1\n  0x40\n  add\n  0x40\n  mstore\n  dup1\n  0x02\n  dup2\n  mstore\n  0x20\n  add\n  0x6e6f000000000000000000000000000000000000000000000000000000000000\n  dup2\n  mstore\n  pop\n  dup2\n  mstore\n  0x20\n  add\n    /* \"study/chapter09/position.sol\":329:330  0 */\n  0x00\n    /* \"study/chapter09/position.sol\":307:332  People({Name:\"no\",Age:0}) */\n  dup2\n  mstore\n  pop\n    /* \"study/chapter09/position.sol\":288:332  People public p1 = People({Name:\"no\",Age:0}) */\n  0x02\n  0x00\n  dup3\n  add\n  mload\n  dup2\n  0x00\n  add\n  swap1\n  dup1\n  mload\n  swap1\n  0x20\n  add\n  swap1\n  tag_3\n  swap3\n  swap2\n  swap1\n  tag_2\n  jump\t// in\ntag_3:\n  pop\n  0x20\n  dup3\n  add\n  mload\n  dup2\n  0x01\n  add\n  sstore\n  pop\n  pop\n    /* \"study/chapter09/position.sol\":104:354  contract testP{... */\n  callvalue\n  dup1\n  iszero\n  tag_4\n  jumpi\n  0x00\n  dup1\n  revert\ntag_4:\n  pop\n  jump(tag_5)\ntag_2:\n  dup3\n  dup1\n  sload\n  tag_6\n  swap1\n  tag_7\n  jump\t// in\ntag_6:\n  swap1\n  0x00\n  mstore\n  keccak256(0x00, 0x20)\n  swap1\n  0x1f\n  add\n  0x20\n  swap1\n  div\n  dup2\n  add\n  swap3\n  dup3\n  tag_9\n  jumpi\n  0x00\n  dup6\n  sstore\n  jump(tag_8)\ntag_9:\n  dup3\n  0x1f\n  lt\n  tag_10\n  jumpi\n  dup1\n  mload\n  not(0xff)\n  and\n  dup4\n  dup1\n  add\n  or\n  dup6\n  sstore\n  jump(tag_8)\ntag_10:\n  dup3\n  dup1\n  add\n  0x01\n  add\n  dup6\n  sstore\n  dup3\n  iszero\n  tag_8\n  jumpi\n  swap2\n  dup3\n  add\ntag_11:\n  dup3\n  dup2\n  gt\n  iszero\n  tag_12\n  jumpi\n  dup3\n  mload\n  dup3\n  sstore\n  swap2\n  0x20\n  add\n  swap2\n  swap1\n  0x01\n  add\n  swap1\n  jump(tag_11)\ntag_12:\ntag_8:\n  pop\n  swap1\n  pop\n  tag_13\n  swap2\n  swap1\n  tag_14\n  jump\t// in\ntag_13:\n  pop\n  swap1\n  jump\t// out\ntag_14:\ntag_15:\n  dup1\n  dup3\n  gt\n  iszero\n  tag_16\n  jumpi\n  0x00\n  dup2\n  0x00\n  swap1\n  sstore\n  pop\n  0x01\n  add\n  jump(tag_15)\ntag_16:\n  pop\n  swap1\n  jump\t// out\n    /* \"#utility.yul\":7:327   */\ntag_7:\n    /* \"#utility.yul\":51:57   */\n  0x00\n    /* \"#utility.yul\":88:89   */\n  0x02\n    /* \"#utility.yul\":82:86   */\n  dup3\n    /* \"#utility.yul\":78:90   */\n  div\n    /* \"#utility.yul\":68:90   */\n  swap1\n  pop\n    /* \"#utility.yul\":135:136   */\n  0x01\n    /* \"#utility.yul\":129:133   */\n  dup3\n    /* \"#utility.yul\":125:137   */\n  and\n    /* \"#utility.yul\":156:174   */\n  dup1\n    /* \"#utility.yul\":146:227   */\n  tag_19\n  jumpi\n    /* \"#utility.yul\":212:216   */\n  0x7f\n    /* \"#utility.yul\":204:210   */\n  dup3\n    /* \"#utility.yul\":200:217   */\n  and\n    /* \"#utility.yul\":190:217   */\n  swap2\n  pop\n    /* \"#utility.yul\":146:227   */\ntag_19:\n    /* \"#utility.yul\":274:276   */\n  0x20\n    /* \"#utility.yul\":266:272   */\n  dup3\n    /* \"#utility.yul\":263:277   */\n  lt\n    /* \"#utility.yul\":243:261   */\n  dup2\n    /* \"#utility.yul\":240:278   */\n  eq\n    /* \"#utility.yul\":237:321   */\n  iszero\n  tag_20\n  jumpi\n    /* \"#utility.yul\":293:311   */\n  tag_21\n  tag_22\n  jump\t// in\ntag_21:\n    /* \"#utility.yul\":237:321   */\ntag_20:\n    /* \"#utility.yul\":58:327   */\n  pop\n    /* \"#utility.yul\":7:327   */\n  swap2\n  swap1\n  pop\n  jump\t// out\n    /* \"#utility.yul\":333:513   */\ntag_22:\n    /* \"#utility.yul\":381:458   */\n  0x4e487b7100000000000000000000000000000000000000000000000000000000\n    /* \"#utility.yul\":378:379   */\n  0x00\n    /* \"#utility.yul\":371:459   */\n  mstore\n    /* \"#utility.yul\":478:482   */\n  0x22\n    /* \"#utility.yul\":475:476   */\n  0x04\n    /* \"#utility.yul\":468:483   */\n  mstore\n    /* \"#utility.yul\":502:506   */\n  0x24\n    /* \"#utility.yul\":499:500   */\n  0x00\n    /* \"#utility.yul\":492:507   */\n  revert\n    /* \"study/chapter09/position.sol\":104:354  contract testP{... */\ntag_5:\n  dataSize(sub_0)\n  dup1\n  dataOffset(sub_0)\n  0x00\n  codecopy\n  0x00\n  return\nstop\n\nsub_0: assembly {\n        /* \"study/chapter09/position.sol\":104:354  contract testP{... */\n      mstore(0x40, 0x80)\n      callvalue\n      dup1\n      iszero\n      tag_1\n      jumpi\n      0x00\n      dup1\n      revert\n    tag_1:\n      pop\n      jumpi(tag_2, lt(calldatasize, 0x04))\n      shr(0xe0, calldataload(0x00))\n      dup1\n      0x5a2ee019\n      eq\n      tag_3\n      jumpi\n      dup1\n      0x9ae8886a\n      eq\n      tag_4\n      jumpi\n      dup1\n      0xc2a2747b\n      eq\n      tag_5\n      jumpi\n    tag_2:\n      0x00\n      dup1\n      revert\n        /* \"study/chapter09/position.sol\":339:351  Man public m */\n    tag_3:\n      tag_6\n      tag_7\n      jump\t// in\n    tag_6:\n      mload(0x40)\n      tag_8\n      swap3\n      swap2\n      swap1\n      tag_9\n      jump\t// in\n    tag_8:\n      mload(0x40)\n      dup1\n      swap2\n      sub\n      swap1\n      return\n        /* \"study/chapter09/position.sol\":249:282  People public p = People(\"wp\",25) */\n    tag_4:\n      tag_10\n      tag_11\n      jump\t// in\n    tag_10:\n      mload(0x40)\n      tag_12\n      swap3\n      swap2\n      swap1\n      tag_9\n      jump\t// in\n    tag_12:\n      mload(0x40)\n      dup1\n      swap2\n      sub\n      swap1\n      return\n        /* \"study/chapter09/position.sol\":288:332  People public p1 = People({Name:\"no\",Age:0}) */\n    tag_5:\n      tag_13\n      tag_14\n      jump\t// in\n    tag_13:\n      mload(0x40)\n      tag_15\n      swap3\n      swap2\n      swap1\n      tag_9\n      jump\t// in\n    tag_15:\n      mload(0x40)\n      dup1\n      swap2\n      sub\n      swap1\n      return\n        /* \"study/chapter09/position.sol\":339:351  Man public m */\n    tag_7:\n      0x04\n      dup1\n      0x00\n      add\n      dup1\n      sload\n      tag_16\n      swap1\n      tag_17\n      jump\t// in\n    tag_16:\n      dup1\n      0x1f\n      add\n      0x20\n      dup1\n      swap2\n      div\n      mul\n      0x20\n      add\n      mload(0x40)\n      swap1\n      dup2\n      add\n      0x40\n      mstore\n      dup1\n      swap3\n      swap2\n      swap1\n      dup2\n      dup2\n      mstore\n      0x20\n      add\n      dup3\n      dup1\n      sload\n      tag_18\n      swap1\n      tag_17\n      jump\t// in\n    tag_18:\n      dup1\n      iszero\n      tag_19\n      jumpi\n      dup1\n      0x1f\n      lt\n      tag_20\n      jumpi\n      0x0100\n      dup1\n      dup4\n      sload\n      div\n      mul\n      dup4\n      mstore\n      swap2\n      0x20\n      add\n      swap2\n      jump(tag_19)\n    tag_20:\n      dup3\n      add\n      swap2\n      swap1\n      0x00\n      mstore\n      keccak256(0x00, 0x20)\n      swap1\n    tag_21:\n      dup2\n      sload\n      dup2\n      mstore\n      swap1\n      0x01\n      add\n      swap1\n      0x20\n      add\n      dup1\n      dup4\n      gt\n      tag_21\n      jumpi\n      dup3\n      swap1\n      sub\n      0x1f\n      and\n      dup3\n      add\n      swap2\n    tag_19:\n      pop\n      pop\n      pop\n      pop\n      pop\n      swap1\n      dup1\n      0x01\n      add\n      sload\n      swap1\n      pop\n      dup3\n      jump\t// out\n        /* \"study/chapter09/position.sol\":249:282  People public p = People(\"wp\",25) */\n    tag_11:\n      0x00\n      dup1\n      0x00\n      add\n      dup1\n      sload\n      tag_22\n      swap1\n      tag_17\n      jump\t// in\n    tag_22:\n      dup1\n      0x1f\n      add\n      0x20\n      dup1\n      swap2\n      div\n      mul\n      0x20\n      add\n      mload(0x40)\n      swap1\n      dup2\n      add\n      0x40\n      mstore\n      dup1\n      swap3\n      swap2\n      swap1\n      dup2\n      dup2\n      mstore\n      0x20\n      add\n      dup3\n      dup1\n      sload\n      tag_23\n      swap1\n      tag_17\n      jump\t// in\n    tag_23:\n      dup1\n      iszero\n      tag_24\n      jumpi\n      dup1\n      0x1f\n      lt\n      tag_25\n      jumpi\n      0x0100\n      dup1\n      dup4\n      sload\n      div\n      mul\n      dup4\n      mstore\n      swap2\n      0x20\n      add\n      swap2\n      jump(tag_24)\n    tag_25:\n      dup3\n      add\n      swap2\n      swap1\n      0x00\n      mstore\n      keccak256(0x00, 0x20)\n      swap1\n    tag_26:\n      dup2\n      sload\n      dup2\n      mstore\n      swap1\n      0x01\n      add\n      swap1\n      0x20\n      add\n      dup1\n      dup4\n      gt\n      tag_26\n      jumpi\n      dup3\n      swap1\n      sub\n      0x1f\n      and\n      dup3\n      add\n      swap2\n    tag_24:\n      pop\n      pop\n      pop\n      pop\n      pop\n      swap1\n      dup1\n      0x01\n      add\n      sload\n      swap1\n      pop\n      dup3\n      jump\t// out\n        /* \"study/chapter09/position.sol\":288:332  People public p1 = People({Name:\"no\",Age:0}) */\n    tag_14:\n      0x02\n      dup1\n      0x00\n      add\n      dup1\n      sload\n      tag_27\n      swap1\n      tag_17\n      jump\t// in\n    tag_27:\n      dup1\n      0x1f\n      add\n      0x20\n      dup1\n      swap2\n      div\n      mul\n      0x20\n      add\n      mload(0x40)\n      swap1\n      dup2\n      add\n      0x40\n      mstore\n      dup1\n      swap3\n      swap2\n      swap1\n      dup2\n      dup2\n      mstore\n      0x20\n      add\n      dup3\n      dup1\n      sload\n      tag_28\n      swap1\n      tag_17\n      jump\t// in\n    tag_28:\n      dup1\n      iszero\n      tag_29\n      jumpi\n      dup1\n      0x1f\n      lt\n      tag_30\n      jumpi\n      0x0100\n      dup1\n      dup4\n      sload\n      div\n      mul\n      dup4\n      mstore\n      swap2\n      0x20\n      add\n      swap2\n      jump(tag_29)\n    tag_30:\n      dup3\n      add\n      swap2\n      swap1\n      0x00\n      mstore\n      keccak256(0x00, 0x20)\n      swap1\n    tag_31:\n      dup2\n      sload\n      dup2\n      mstore\n      swap1\n      0x01\n      add\n      swap1\n      0x20\n      add\n      dup1\n      dup4\n      gt\n      tag_31\n      jumpi\n      dup3\n      swap1\n      sub\n      0x1f\n      and\n      dup3\n      add\n      swap2\n    tag_29:\n      pop\n      pop\n      pop\n      pop\n      pop\n      swap1\n      dup1\n      0x01\n      add\n      sload\n      swap1\n      pop\n      dup3\n      jump\t// out\n        /* \"#utility.yul\":7:371   */\n    tag_33:\n        /* \"#utility.yul\":95:98   */\n      0x00\n        /* \"#utility.yul\":123:162   */\n      tag_35\n        /* \"#utility.yul\":156:161   */\n      dup3\n        /* \"#utility.yul\":123:162   */\n      tag_36\n      jump\t// in\n    tag_35:\n        /* \"#utility.yul\":178:249   */\n      tag_37\n        /* \"#utility.yul\":242:248   */\n      dup2\n        /* \"#utility.yul\":237:240   */\n      dup6\n        /* \"#utility.yul\":178:249   */\n      tag_38\n      jump\t// in\n    tag_37:\n        /* \"#utility.yul\":171:249   */\n      swap4\n      pop\n        /* \"#utility.yul\":258:310   */\n      tag_39\n        /* \"#utility.yul\":303:309   */\n      dup2\n        /* \"#utility.yul\":298:301   */\n      dup6\n        /* \"#utility.yul\":291:295   */\n      0x20\n        /* \"#utility.yul\":284:289   */\n      dup7\n        /* \"#utility.yul\":280:296   */\n      add\n        /* \"#utility.yul\":258:310   */\n      tag_40\n      jump\t// in\n    tag_39:\n        /* \"#utility.yul\":335:364   */\n      tag_41\n        /* \"#utility.yul\":357:363   */\n      dup2\n        /* \"#utility.yul\":335:364   */\n      tag_42\n      jump\t// in\n    tag_41:\n        /* \"#utility.yul\":330:333   */\n      dup5\n        /* \"#utility.yul\":326:365   */\n      add\n        /* \"#utility.yul\":319:365   */\n      swap2\n      pop\n        /* \"#utility.yul\":99:371   */\n      pop\n        /* \"#utility.yul\":7:371   */\n      swap3\n      swap2\n      pop\n      pop\n      jump\t// out\n        /* \"#utility.yul\":377:495   */\n    tag_43:\n        /* \"#utility.yul\":464:488   */\n      tag_45\n        /* \"#utility.yul\":482:487   */\n      dup2\n        /* \"#utility.yul\":464:488   */\n      tag_46\n      jump\t// in\n    tag_45:\n        /* \"#utility.yul\":459:462   */\n      dup3\n        /* \"#utility.yul\":452:489   */\n      mstore\n        /* \"#utility.yul\":377:495   */\n      pop\n      pop\n      jump\t// out\n        /* \"#utility.yul\":501:924   */\n    tag_9:\n        /* \"#utility.yul\":642:646   */\n      0x00\n        /* \"#utility.yul\":680:682   */\n      0x40\n        /* \"#utility.yul\":669:678   */\n      dup3\n        /* \"#utility.yul\":665:683   */\n      add\n        /* \"#utility.yul\":657:683   */\n      swap1\n      pop\n        /* \"#utility.yul\":729:738   */\n      dup2\n        /* \"#utility.yul\":723:727   */\n      dup2\n        /* \"#utility.yul\":719:739   */\n      sub\n        /* \"#utility.yul\":715:716   */\n      0x00\n        /* \"#utility.yul\":704:713   */\n      dup4\n        /* \"#utility.yul\":700:717   */\n      add\n        /* \"#utility.yul\":693:740   */\n      mstore\n        /* \"#utility.yul\":757:835   */\n      tag_48\n        /* \"#utility.yul\":830:834   */\n      dup2\n        /* \"#utility.yul\":821:827   */\n      dup6\n        /* \"#utility.yul\":757:835   */\n      tag_33\n      jump\t// in\n    tag_48:\n        /* \"#utility.yul\":749:835   */\n      swap1\n      pop\n        /* \"#utility.yul\":845:917   */\n      tag_49\n        /* \"#utility.yul\":913:915   */\n      0x20\n        /* \"#utility.yul\":902:911   */\n      dup4\n        /* \"#utility.yul\":898:916   */\n      add\n        /* \"#utility.yul\":889:895   */\n      dup5\n        /* \"#utility.yul\":845:917   */\n      tag_43\n      jump\t// in\n    tag_49:\n        /* \"#utility.yul\":501:924   */\n      swap4\n      swap3\n      pop\n      pop\n      pop\n      jump\t// out\n        /* \"#utility.yul\":930:1029   */\n    tag_36:\n        /* \"#utility.yul\":982:988   */\n      0x00\n        /* \"#utility.yul\":1016:1021   */\n      dup2\n        /* \"#utility.yul\":1010:1022   */\n      mload\n        /* \"#utility.yul\":1000:1022   */\n      swap1\n      pop\n        /* \"#utility.yul\":930:1029   */\n      swap2\n      swap1\n      pop\n      jump\t// out\n        /* \"#utility.yul\":1035:1204   */\n    tag_38:\n        /* \"#utility.yul\":1119:1130   */\n      0x00\n        /* \"#utility.yul\":1153:1159   */\n      dup3\n        /* \"#utility.yul\":1148:1151   */\n      dup3\n        /* \"#utility.yul\":1141:1160   */\n      mstore\n        /* \"#utility.yul\":1193:1197   */\n      0x20\n        /* \"#utility.yul\":1188:1191   */\n      dup3\n        /* \"#utility.yul\":1184:1198   */\n      add\n        /* \"#utility.yul\":1169:1198   */\n      swap1\n      pop\n        /* \"#utility.yul\":1035:1204   */\n      swap3\n      swap2\n      pop\n      pop\n      jump\t// out\n        /* \"#utility.yul\":1210:1287   */\n    tag_46:\n        /* \"#utility.yul\":1247:1254   */\n      0x00\n        /* \"#utility.yul\":1276:1281   */\n      dup2\n        /* \"#utility.yul\":1265:1281   */\n      swap1\n      pop\n        /* \"#utility.yul\":1210:1287   */\n      swap2\n      swap1\n      pop\n      jump\t// out\n        /* \"#utility.yul\":1293:1600   */\n    tag_40:\n        /* \"#utility.yul\":1361:1362   */\n      0x00\n        /* \"#utility.yul\":1371:1484   */\n    tag_54:\n        /* \"#utility.yul\":1385:1391   */\n      dup4\n        /* \"#utility.yul\":1382:1383   */\n      dup2\n        /* \"#utility.yul\":1379:1392   */\n      lt\n        /* \"#utility.yul\":1371:1484   */\n      iszero\n      tag_56\n      jumpi\n        /* \"#utility.yul\":1470:1471   */\n      dup1\n        /* \"#utility.yul\":1465:1468   */\n      dup3\n        /* \"#utility.yul\":1461:1472   */\n      add\n        /* \"#utility.yul\":1455:1473   */\n      mload\n        /* \"#utility.yul\":1451:1452   */\n      dup2\n        /* \"#utility.yul\":1446:1449   */\n      dup5\n        /* \"#utility.yul\":1442:1453   */\n      add\n        /* \"#utility.yul\":1435:1474   */\n      mstore\n        /* \"#utility.yul\":1407:1409   */\n      0x20\n        /* \"#utility.yul\":1404:1405   */\n      dup2\n        /* \"#utility.yul\":1400:1410   */\n      add\n        /* \"#utility.yul\":1395:1410   */\n      swap1\n      pop\n        /* \"#utility.yul\":1371:1484   */\n      jump(tag_54)\n    tag_56:\n        /* \"#utility.yul\":1502:1508   */\n      dup4\n        /* \"#utility.yul\":1499:1500   */\n      dup2\n        /* \"#utility.yul\":1496:1509   */\n      gt\n        /* \"#utility.yul\":1493:1594   */\n      iszero\n      tag_57\n      jumpi\n        /* \"#utility.yul\":1582:1583   */\n      0x00\n        /* \"#utility.yul\":1573:1579   */\n      dup5\n        /* \"#utility.yul\":1568:1571   */\n      dup5\n        /* \"#utility.yul\":1564:1580   */\n      add\n        /* \"#utility.yul\":1557:1584   */\n      mstore\n        /* \"#utility.yul\":1493:1594   */\n    tag_57:\n        /* \"#utility.yul\":1342:1600   */\n      pop\n        /* \"#utility.yul\":1293:1600   */\n      pop\n      pop\n      pop\n      jump\t// out\n        /* \"#utility.yul\":1606:1926   */\n    tag_17:\n        /* \"#utility.yul\":1650:1656   */\n      0x00\n        /* \"#utility.yul\":1687:1688   */\n      0x02\n        /* \"#utility.yul\":1681:1685   */\n      dup3\n        /* \"#utility.yul\":1677:1689   */\n      div\n        /* \"#utility.yul\":1667:1689   */\n      swap1\n      pop\n        /* \"#utility.yul\":1734:1735   */\n      0x01\n        /* \"#utility.yul\":1728:1732   */\n      dup3\n        /* \"#utility.yul\":1724:1736   */\n      and\n        /* \"#utility.yul\":1755:1773   */\n      dup1\n        /* \"#utility.yul\":1745:1826   */\n      tag_59\n      jumpi\n        /* \"#utility.yul\":1811:1815   */\n      0x7f\n        /* \"#utility.yul\":1803:1809   */\n      dup3\n        /* \"#utility.yul\":1799:1816   */\n      and\n        /* \"#utility.yul\":1789:1816   */\n      swap2\n      pop\n        /* \"#utility.yul\":1745:1826   */\n    tag_59:\n        /* \"#utility.yul\":1873:1875   */\n      0x20\n        /* \"#utility.yul\":1865:1871   */\n      dup3\n        /* \"#utility.yul\":1862:1876   */\n      lt\n        /* \"#utility.yul\":1842:1860   */\n      dup2\n        /* \"#utility.yul\":1839:1877   */\n      eq\n        /* \"#utility.yul\":1836:1920   */\n      iszero\n      tag_60\n      jumpi\n        /* \"#utility.yul\":1892:1910   */\n      tag_61\n      tag_62\n      jump\t// in\n    tag_61:\n        /* \"#utility.yul\":1836:1920   */\n    tag_60:\n        /* \"#utility.yul\":1657:1926   */\n      pop\n        /* \"#utility.yul\":1606:1926   */\n      swap2\n      swap1\n      pop\n      jump\t// out\n        /* \"#utility.yul\":1932:2112   */\n    tag_62:\n        /* \"#utility.yul\":1980:2057   */\n      0x4e487b7100000000000000000000000000000000000000000000000000000000\n        /* \"#utility.yul\":1977:1978   */\n      0x00\n        /* \"#utility.yul\":1970:2058   */\n      mstore\n        /* \"#utility.yul\":2077:2081   */\n      0x22\n        /* \"#utility.yul\":2074:2075   */\n      0x04\n        /* \"#utility.yul\":2067:2082   */\n      mstore\n        /* \"#utility.yul\":2101:2105   */\n      0x24\n        /* \"#utility.yul\":2098:2099   */\n      0x00\n        /* \"#utility.yul\":2091:2106   */\n      revert\n        /* \"#utility.yul\":2118:2220   */\n    tag_42:\n        /* \"#utility.yul\":2159:2165   */\n      0x00\n        /* \"#utility.yul\":2210:2212   */\n      0x1f\n        /* \"#utility.yul\":2206:2213   */\n      not\n        /* \"#utility.yul\":2201:2203   */\n      0x1f\n        /* \"#utility.yul\":2194:2199   */\n      dup4\n        /* \"#utility.yul\":2190:2204   */\n      add\n        /* \"#utility.yul\":2186:2214   */\n      and\n        /* \"#utility.yul\":2176:2214   */\n      swap1\n      pop\n        /* \"#utility.yul\":2118:2220   */\n      swap2\n      swap1\n      pop\n      jump\t// out\n\n    auxdata: 0xa26469706673582212207d8a42ac453cac592d224c7afd1ddcc5fbea65351a26b22af8850361c9f1e67264736f6c63430008070033\n}\n",
				"bytecode": {
					"linkReferences": {},
					"object": "608060405260405180604001604052806040518060400160405280600281526020017f77700000000000000000000000000000000000000000000000000000000000008152508152602001601981525060008082015181600001908051906020019061006c929190610101565b5060208201518160010155505060405180604001604052806040518060400160405280600281526020017f6e6f00000000000000000000000000000000000000000000000000000000000081525081526020016000815250600260008201518160000190805190602001906100e2929190610101565b506020820151816001015550503480156100fb57600080fd5b50610205565b82805461010d906101a4565b90600052602060002090601f01602090048101928261012f5760008555610176565b82601f1061014857805160ff1916838001178555610176565b82800160010185558215610176579182015b8281111561017557825182559160200191906001019061015a565b5b5090506101839190610187565b5090565b5b808211156101a0576000816000905550600101610188565b5090565b600060028204905060018216806101bc57607f821691505b602082108114156101d0576101cf6101d6565b5b50919050565b7f4e487b7100000000000000000000000000000000000000000000000000000000600052602260045260246000fd5b6103ea806102146000396000f3fe608060405234801561001057600080fd5b50600436106100415760003560e01c80635a2ee019146100465780639ae8886a14610065578063c2a2747b14610084575b600080fd5b61004e6100a3565b60405161005c9291906102b9565b60405180910390f35b61006d61013d565b60405161007b9291906102b9565b60405180910390f35b61008c6101d7565b60405161009a9291906102b9565b60405180910390f35b60048060000180546100b490610342565b80601f01602080910402602001604051908101604052809291908181526020018280546100e090610342565b801561012d5780601f106101025761010080835404028352916020019161012d565b820191906000526020600020905b81548152906001019060200180831161011057829003601f168201915b5050505050908060010154905082565b600080600001805461014e90610342565b80601f016020809104026020016040519081016040528092919081815260200182805461017a90610342565b80156101c75780601f1061019c576101008083540402835291602001916101c7565b820191906000526020600020905b8154815290600101906020018083116101aa57829003601f168201915b5050505050908060010154905082565b60028060000180546101e890610342565b80601f016020809104026020016040519081016040528092919081815260200182805461021490610342565b80156102615780601f1061023657610100808354040283529160200191610261565b820191906000526020600020905b81548152906001019060200180831161024457829003601f168201915b5050505050908060010154905082565b600061027c826102e9565b61028681856102f4565b935061029681856020860161030f565b61029f816103a3565b840191505092915050565b6102b381610305565b82525050565b600060408201905081810360008301526102d38185610271565b90506102e260208301846102aa565b9392505050565b600081519050919050565b600082825260208201905092915050565b6000819050919050565b60005b8381101561032d578082015181840152602081019050610312565b8381111561033c576000848401525b50505050565b6000600282049050600182168061035a57607f821691505b6020821081141561036e5761036d610374565b5b50919050565b7f4e487b7100000000000000000000000000000000000000000000000000000000600052602260045260246000fd5b6000601f19601f830116905091905056fea26469706673582212207d8a42ac453cac592d224c7afd1ddcc5fbea65351a26b22af8850361c9f1e67264736f6c63430008070033",
					"opcodes": "PUSH1 0x80 PUSH1 0x40 MSTORE PUSH1 0x40 MLOAD DUP1 PUSH1 0x40 ADD PUSH1 0x40 MSTORE DUP1 PUSH1 0x40 MLOAD DUP1 PUSH1 0x40 ADD PUSH1 0x40 MSTORE DUP1 PUSH1 0x2 DUP2 MSTORE PUSH1 0x20 ADD PUSH32 0x7770000000000000000000000000000000000000000000000000000000000000 DUP2 MSTORE POP DUP2 MSTORE PUSH1 0x20 ADD PUSH1 0x19 DUP2 MSTORE POP PUSH1 0x0 DUP1 DUP3 ADD MLOAD DUP2 PUSH1 0x0 ADD SWAP1 DUP1 MLOAD SWAP1 PUSH1 0x20 ADD SWAP1 PUSH2 0x6C SWAP3 SWAP2 SWAP1 PUSH2 0x101 JUMP JUMPDEST POP PUSH1 0x20 DUP3 ADD MLOAD DUP2 PUSH1 0x1 ADD SSTORE POP POP PUSH1 0x40 MLOAD DUP1 PUSH1 0x40 ADD PUSH1 0x40 MSTORE DUP1 PUSH1 0x40 MLOAD DUP1 PUSH1 0x40 ADD PUSH1 0x40 MSTORE DUP1 PUSH1 0x2 DUP2 MSTORE PUSH1 0x20 ADD PUSH32 0x6E6F000000000000000000000000000000000000000000000000000000000000 DUP2 MSTORE POP DUP2 MSTORE PUSH1 0x20 ADD PUSH1 0x0 DUP2 MSTORE POP PUSH1 0x2 PUSH1 0x0 DUP3 ADD MLOAD DUP2 PUSH1 0x0 ADD SWAP1 DUP1 MLOAD SWAP1 PUSH1 0x20 ADD SWAP1 PUSH2 0xE2 SWAP3 SWAP2 SWAP1 PUSH2 0x101 JUMP JUMPDEST POP PUSH1 0x20 DUP3 ADD MLOAD DUP2 PUSH1 0x1 ADD SSTORE POP POP CALLVALUE DUP1 ISZERO PUSH2 0xFB JUMPI PUSH1 0x0 DUP1 REVERT JUMPDEST POP PUSH2 0x205 JUMP JUMPDEST DUP3 DUP1 SLOAD PUSH2 0x10D SWAP1 PUSH2 0x1A4 JUMP JUMPDEST SWAP1 PUSH1 0x0 MSTORE PUSH1 0x20 PUSH1 0x0 KECCAK256 SWAP1 PUSH1 0x1F ADD PUSH1 0x20 SWAP1 DIV DUP2 ADD SWAP3 DUP3 PUSH2 0x12F JUMPI PUSH1 0x0 DUP6 SSTORE PUSH2 0x176 JUMP JUMPDEST DUP3 PUSH1 0x1F LT PUSH2 0x148 JUMPI DUP1 MLOAD PUSH1 0xFF NOT AND DUP4 DUP1 ADD OR DUP6 SSTORE PUSH2 0x176 JUMP JUMPDEST DUP3 DUP1 ADD PUSH1 0x1 ADD DUP6 SSTORE DUP3 ISZERO PUSH2 0x176 JUMPI SWAP2 DUP3 ADD JUMPDEST DUP3 DUP2 GT ISZERO PUSH2 0x175 JUMPI DUP3 MLOAD DUP3 SSTORE SWAP2 PUSH1 0x20 ADD SWAP2 SWAP1 PUSH1 0x1 ADD SWAP1 PUSH2 0x15A JUMP JUMPDEST JUMPDEST POP SWAP1 POP PUSH2 0x183 SWAP2 SWAP1 PUSH2 0x187 JUMP JUMPDEST POP SWAP1 JUMP JUMPDEST JUMPDEST DUP1 DUP3 GT ISZERO PUSH2 0x1A0 JUMPI PUSH1 0x0 DUP2 PUSH1 0x0 SWAP1 SSTORE POP PUSH1 0x1 ADD PUSH2 0x188 JUMP JUMPDEST POP SWAP1 JUMP JUMPDEST PUSH1 0x0 PUSH1 0x2 DUP3 DIV SWAP1 POP PUSH1 0x1 DUP3 AND DUP1 PUSH2 0x1BC JUMPI PUSH1 0x7F DUP3 AND SWAP2 POP JUMPDEST PUSH1 0x20 DUP3 LT DUP2 EQ ISZERO PUSH2 0x1D0 JUMPI PUSH2 0x1CF PUSH2 0x1D6 JUMP JUMPDEST JUMPDEST POP SWAP2 SWAP1 POP JUMP JUMPDEST PUSH32 0x4E487B7100000000000000000000000000000000000000000000000000000000 PUSH1 0x0 MSTORE PUSH1 0x22 PUSH1 0x4 MSTORE PUSH1 0x24 PUSH1 0x0 REVERT JUMPDEST PUSH2 0x3EA DUP1 PUSH2 0x214 PUSH1 0x0 CODECOPY PUSH1 0x0 RETURN INVALID PUSH1 0x80 PUSH1 0x40 MSTORE CALLVALUE DUP1 ISZERO PUSH2 0x10 JUMPI PUSH1 0x0 DUP1 REVERT JUMPDEST POP PUSH1 0x4 CALLDATASIZE LT PUSH2 0x41 JUMPI PUSH1 0x0 CALLDATALOAD PUSH1 0xE0 SHR DUP1 PUSH4 0x5A2EE019 EQ PUSH2 0x46 JUMPI DUP1 PUSH4 0x9AE8886A EQ PUSH2 0x65 JUMPI DUP1 PUSH4 0xC2A2747B EQ PUSH2 0x84 JUMPI JUMPDEST PUSH1 0x0 DUP1 REVERT JUMPDEST PUSH2 0x4E PUSH2 0xA3 JUMP JUMPDEST PUSH1 0x40 MLOAD PUSH2 0x5C SWAP3 SWAP2 SWAP1 PUSH2 0x2B9 JUMP JUMPDEST PUSH1 0x40 MLOAD DUP1 SWAP2 SUB SWAP1 RETURN JUMPDEST PUSH2 0x6D PUSH2 0x13D JUMP JUMPDEST PUSH1 0x40 MLOAD PUSH2 0x7B SWAP3 SWAP2 SWAP1 PUSH2 0x2B9 JUMP JUMPDEST PUSH1 0x40 MLOAD DUP1 SWAP2 SUB SWAP1 RETURN JUMPDEST PUSH2 0x8C PUSH2 0x1D7 JUMP JUMPDEST PUSH1 0x40 MLOAD PUSH2 0x9A SWAP3 SWAP2 SWAP1 PUSH2 0x2B9 JUMP JUMPDEST PUSH1 0x40 MLOAD DUP1 SWAP2 SUB SWAP1 RETURN JUMPDEST PUSH1 0x4 DUP1 PUSH1 0x0 ADD DUP1 SLOAD PUSH2 0xB4 SWAP1 PUSH2 0x342 JUMP JUMPDEST DUP1 PUSH1 0x1F ADD PUSH1 0x20 DUP1 SWAP2 DIV MUL PUSH1 0x20 ADD PUSH1 0x40 MLOAD SWAP1 DUP2 ADD PUSH1 0x40 MSTORE DUP1 SWAP3 SWAP2 SWAP1 DUP2 DUP2 MSTORE PUSH1 0x20 ADD DUP3 DUP1 SLOAD PUSH2 0xE0 SWAP1 PUSH2 0x342 JUMP JUMPDEST DUP1 ISZERO PUSH2 0x12D JUMPI DUP1 PUSH1 0x1F LT PUSH2 0x102 JUMPI PUSH2 0x100 DUP1 DUP4 SLOAD DIV MUL DUP4 MSTORE SWAP2 PUSH1 0x20 ADD SWAP2 PUSH2 0x12D JUMP JUMPDEST DUP3 ADD SWAP2 SWAP1 PUSH1 0x0 MSTORE PUSH1 0x20 PUSH1 0x0 KECCAK256 SWAP1 JUMPDEST DUP2 SLOAD DUP2 MSTORE SWAP1 PUSH1 0x1 ADD SWAP1 PUSH1 0x20 ADD DUP1 DUP4 GT PUSH2 0x110 JUMPI DUP3 SWAP1 SUB PUSH1 0x1F AND DUP3 ADD SWAP2 JUMPDEST POP POP POP POP POP SWAP1 DUP1 PUSH1 0x1 ADD SLOAD SWAP1 POP DUP3 JUMP JUMPDEST PUSH1 0x0 DUP1 PUSH1 0x0 ADD DUP1 SLOAD PUSH2 0x14E SWAP1 PUSH2 0x342 JUMP JUMPDEST DUP1 PUSH1 0x1F ADD PUSH1 0x20 DUP1 SWAP2 DIV MUL PUSH1 0x20 ADD PUSH1 0x40 MLOAD SWAP1 DUP2 ADD PUSH1 0x40 MSTORE DUP1 SWAP3 SWAP2 SWAP1 DUP2 DUP2 MSTORE PUSH1 0x20 ADD DUP3 DUP1 SLOAD PUSH2 0x17A SWAP1 PUSH2 0x342 JUMP JUMPDEST DUP1 ISZERO PUSH2 0x1C7 JUMPI DUP1 PUSH1 0x1F LT PUSH2 0x19C JUMPI PUSH2 0x100 DUP1 DUP4 SLOAD DIV MUL DUP4 MSTORE SWAP2 PUSH1 0x20 ADD SWAP2 PUSH2 0x1C7 JUMP JUMPDEST DUP3 ADD SWAP2 SWAP1 PUSH1 0x0 MSTORE PUSH1 0x20 PUSH1 0x0 KECCAK256 SWAP1 JUMPDEST DUP2 SLOAD DUP2 MSTORE SWAP1 PUSH1 0x1 ADD SWAP1 PUSH1 0x20 ADD DUP1 DUP4 GT PUSH2 0x1AA JUMPI DUP3 SWAP1 SUB PUSH1 0x1F AND DUP3 ADD SWAP2 JUMPDEST POP POP POP POP POP SWAP1 DUP1 PUSH1 0x1 ADD SLOAD SWAP1 POP DUP3 JUMP JUMPDEST PUSH1 0x2 DUP1 PUSH1 0x0 ADD DUP1 SLOAD PUSH2 0x1E8 SWAP1 PUSH2 0x342 JUMP JUMPDEST DUP1 PUSH1 0x1F ADD PUSH1 0x20 DUP1 SWAP2 DIV MUL PUSH1 0x20 ADD PUSH1 0x40 MLOAD SWAP1 DUP2 ADD PUSH1 0x40 MSTORE DUP1 SWAP3 SWAP2 SWAP1 DUP2 DUP2 MSTORE PUSH1 0x20 ADD DUP3 DUP1 SLOAD PUSH2 0x214 SWAP1 PUSH2 0x342 JUMP JUMPDEST DUP1 ISZERO PUSH2 0x261 JUMPI DUP1 PUSH1 0x1F LT PUSH2 0x236 JUMPI PUSH2 0x100 DUP1 DUP4 SLOAD DIV MUL DUP4 MSTORE SWAP2 PUSH1 0x20 ADD SWAP2 PUSH2 0x261 JUMP JUMPDEST DUP3 ADD SWAP2 SWAP1 PUSH1 0x0 MSTORE PUSH1 0x20 PUSH1 0x0 KECCAK256 SWAP1 JUMPDEST DUP2 SLOAD DUP2 MSTORE SWAP1 PUSH1 0x1 ADD SWAP1 PUSH1 0x20 ADD DUP1 DUP4 GT PUSH2 0x244 JUMPI DUP3 SWAP1 SUB PUSH1 0x1F AND DUP3 ADD SWAP2 JUMPDEST POP POP POP POP POP SWAP1 DUP1 PUSH1 0x1 ADD SLOAD SWAP1 POP DUP3 JUMP JUMPDEST PUSH1 0x0 PUSH2 0x27C DUP3 PUSH2 0x2E9 JUMP JUMPDEST PUSH2 0x286 DUP2 DUP6 PUSH2 0x2F4 JUMP JUMPDEST SWAP4 POP PUSH2 0x296 DUP2 DUP6 PUSH1 0x20 DUP7 ADD PUSH2 0x30F JUMP JUMPDEST PUSH2 0x29F DUP2 PUSH2 0x3A3 JUMP JUMPDEST DUP5 ADD SWAP2 POP POP SWAP3 SWAP2 POP POP JUMP JUMPDEST PUSH2 0x2B3 DUP2 PUSH2 0x305 JUMP JUMPDEST DUP3 MSTORE POP POP JUMP JUMPDEST PUSH1 0x0 PUSH1 0x40 DUP3 ADD SWAP1 POP DUP2 DUP2 SUB PUSH1 0x0 DUP4 ADD MSTORE PUSH2 0x2D3 DUP2 DUP6 PUSH2 0x271 JUMP JUMPDEST SWAP1 POP PUSH2 0x2E2 PUSH1 0x20 DUP4 ADD DUP5 PUSH2 0x2AA JUMP JUMPDEST SWAP4 SWAP3 POP POP POP JUMP JUMPDEST PUSH1 0x0 DUP2 MLOAD SWAP1 POP SWAP2 SWAP1 POP JUMP JUMPDEST PUSH1 0x0 DUP3 DUP3 MSTORE PUSH1 0x20 DUP3 ADD SWAP1 POP SWAP3 SWAP2 POP POP JUMP JUMPDEST PUSH1 0x0 DUP2 SWAP1 POP SWAP2 SWAP1 POP JUMP JUMPDEST PUSH1 0x0 JUMPDEST DUP4 DUP2 LT ISZERO PUSH2 0x32D JUMPI DUP1 DUP3 ADD MLOAD DUP2 DUP5 ADD MSTORE PUSH1 0x20 DUP2 ADD SWAP1 POP PUSH2 0x312 JUMP JUMPDEST DUP4 DUP2 GT ISZERO PUSH2 0x33C JUMPI PUSH1 0x0 DUP5 DUP5 ADD MSTORE JUMPDEST POP POP POP POP JUMP JUMPDEST PUSH1 0x0 PUSH1 0x2 DUP3 DIV SWAP1 POP PUSH1 0x1 DUP3 AND DUP1 PUSH2 0x35A JUMPI PUSH1 0x7F DUP3 AND SWAP2 POP JUMPDEST PUSH1 0x20 DUP3 LT DUP2 EQ ISZERO PUSH2 0x36E JUMPI PUSH2 0x36D PUSH2 0x374 JUMP JUMPDEST JUMPDEST POP SWAP2 SWAP1 POP JUMP JUMPDEST PUSH32 0x4E487B7100000000000000000000000000000000000000000000000000000000 PUSH1 0x0 MSTORE PUSH1 0x22 PUSH1 0x4 MSTORE PUSH1 0x24 PUSH1 0x0 REVERT JUMPDEST PUSH1 0x0 PUSH1 0x1F NOT PUSH1 0x1F DUP4 ADD AND SWAP1 POP SWAP2 SWAP1 POP JUMP INVALID LOG2 PUSH5 0x6970667358 0x22 SLT KECCAK256 PUSH30 0x8A42AC453CAC592D224C7AFD1DDCC5FBEA65351A26B22AF8850361C9F1E6 PUSH19 0x64736F6C634300080700330000000000000000 "
				},
				"gasEstimates": {
					"creation": {
						"codeDepositCost": "200400",
						"executionCost": "infinite",
						"totalCost": "infinite"
					},
					"external": {
						"m()": "infinite",
						"p()": "infinite",
						"p1()": "infinite"
					}
				},
				"methodIdentifiers": {
					"m()": "5a2ee019",
					"p()": "9ae8886a",
					"p1()": "c2a2747b"
				}
			},
			"storageLayout": {
				"storage": [
					{
						"astId": 18,
						"contract": "study/chapter09/position.sol:testP",
						"label": "p",
						"offset": 0,
						"slot": "0",
						"type": "t_struct(People)6_storage"
					},
					{
						"astId": 25,
						"contract": "study/chapter09/position.sol:testP",
						"label": "p1",
						"offset": 0,
						"slot": "2",
						"type": "t_struct(People)6_storage"
					},
					{
						"astId": 28,
						"contract": "study/chapter09/position.sol:testP",
						"label": "m",
						"offset": 0,
						"slot": "4",
						"type": "t_struct(Man)11_storage"
					}
				],
				"types": {
					"t_string_storage": {
						"encoding": "bytes",
						"label": "string",
						"numberOfBytes": "32"
					},
					"t_struct(Man)11_storage": {
						"encoding": "inplace",
						"label": "struct testP.Man",
						"members": [
							{
								"astId": 8,
								"contract": "study/chapter09/position.sol:testP",
								"label": "Name",
								"offset": 0,
								"slot": "0",
								"type": "t_string_storage"
							},
							{
								"astId": 10,
								"contract": "study/chapter09/position.sol:testP",
								"label": "Age",
								"offset": 0,
								"slot": "1",
								"type": "t_uint256"
							}
						],
						"numberOfBytes": "64"
					},
					"t_struct(People)6_storage": {
						"encoding": "inplace",
						"label": "struct People",
						"members": [
							{
								"astId": 3,
								"contract": "study/chapter09/position.sol:testP",
								"label": "Name",
								"offset": 0,
								"slot": "0",
								"type": "t_string_storage"
							},
							{
								"astId": 5,
								"contract": "study/chapter09/position.sol:testP",
								"label": "Age",
								"offset": 0,
								"slot": "1",
								"type": "t_uint256"
							}
						],
						"numberOfBytes": "64"
					},
					"t_uint256": {
						"encoding": "inplace",
						"label": "uint256",
						"numberOfBytes": "32"
					}
				}
			},
			"userdoc": {
				"kind": "user",
				"methods": {},
				"version": 1
			}
		}
	}
}