{
	"data": {
		"bytecode": {
			"linkReferences": {},
			"object": "6080604052348015600f57600080fd5b50606d80601d6000396000f3fe6080604052348015600f57600080fd5b506004361060285760003560e01c8063c298557814602d575b600080fd5b60336035565b005b56fea2646970667358221220970b4cc3d8eaa2ba3a18a0d4016236a25bfa5503359ac06dfbb695e001e3865164736f6c63430008010033",
			"opcodes": "PUSH1 0x80 PUSH1 0x40 MSTORE CALLVALUE DUP1 ISZERO PUSH1 0xF JUMPI PUSH1 0x0 DUP1 REVERT JUMPDEST POP PUSH1 0x6D DUP1 PUSH1 0x1D PUSH1 0x0 CODECOPY PUSH1 0x0 RETURN INVALID PUSH1 0x80 PUSH1 0x40 MSTORE CALLVALUE DUP1 ISZERO PUSH1 0xF JUMPI PUSH1 0x0 DUP1 REVERT JUMPDEST POP PUSH1 0x4 CALLDATASIZE LT PUSH1 0x28 JUMPI PUSH1 0x0 CALLDATALOAD PUSH1 0xE0 SHR DUP1 PUSH4 0xC2985578 EQ PUSH1 0x2D JUMPI JUMPDEST PUSH1 0x0 DUP1 REVERT JUMPDEST PUSH1 0x33 PUSH1 0x35 JUMP JUMPDEST STOP JUMPDEST JUMP INVALID LOG2 PUSH5 0x6970667358 0x22 SLT KECCAK256 SWAP8 SIGNEXTEND 0x4C 0xC3 0xD8 0xEA LOG2 0xBA GASPRICE XOR LOG0 0xD4 ADD PUSH3 0x36A25B STATICCALL SSTORE SUB CALLDATALOAD SWAP11 0xC0 PUSH14 0xFBB695E001E3865164736F6C6343 STOP ADDMOD ADD STOP CALLER "
		},
		"gasEstimates": {
			"creation": {
				"codeDepositCost": "21800",
				"executionCost": "75",
				"totalCost": "21875"
			},
			"external": {
				"foo()": "122"
			}
		},
		"methodIdentifiers": {
			"foo()": "c2985578"
		}
	},
	"abi": [
		{
			"inputs": [],
			"name": "foo",
			"outputs": [],
			"stateMutability": "nonpayable",
			"type": "function"
		}
	]
}