{
	"data": {
		"bytecode": {
			"linkReferences": {
				"study/chapter10/usingfor.sol": {
					"Set": [
						{
							"length": 20,
							"start": 112
						}
					]
				}
			},
			"object": "608060405234801561001057600080fd5b50610211806100206000396000f3fe608060405234801561001057600080fd5b506004361061002b5760003560e01c8063f207564e14610030575b600080fd5b61004a6004803603810190610045919061012f565b61004c565b005b600073__$05878496b0d6f6a8b363b799b0288d5f64$__633ab90ad89091836040518363ffffffff1660e01b815260040161008892919061016e565b60206040518083038186803b1580156100a057600080fd5b505af41580156100b4573d6000803e3d6000fd5b505050506040513d601f19601f820116820180604052508101906100d89190610106565b5050565b6000815190506100eb816101ad565b92915050565b600081359050610100816101c4565b92915050565b60006020828403121561011857600080fd5b6000610126848285016100dc565b91505092915050565b60006020828403121561014157600080fd5b600061014f848285016100f1565b91505092915050565b8082525050565b610168816101a3565b82525050565b60006040820190506101836000830185610158565b610190602083018461015f565b9392505050565b60008115159050919050565b6000819050919050565b6101b681610197565b81146101c157600080fd5b50565b6101cd816101a3565b81146101d857600080fd5b5056fea2646970667358221220fbe88f300d1ba4b8aa0055b89e294890be7228d012e03339494e39ef8652f42464736f6c63430008010033",
			"opcodes": "PUSH1 0x80 PUSH1 0x40 MSTORE CALLVALUE DUP1 ISZERO PUSH2 0x10 JUMPI PUSH1 0x0 DUP1 REVERT JUMPDEST POP PUSH2 0x211 DUP1 PUSH2 0x20 PUSH1 0x0 CODECOPY PUSH1 0x0 RETURN INVALID PUSH1 0x80 PUSH1 0x40 MSTORE CALLVALUE DUP1 ISZERO PUSH2 0x10 JUMPI PUSH1 0x0 DUP1 REVERT JUMPDEST POP PUSH1 0x4 CALLDATASIZE LT PUSH2 0x2B JUMPI PUSH1 0x0 CALLDATALOAD PUSH1 0xE0 SHR DUP1 PUSH4 0xF207564E EQ PUSH2 0x30 JUMPI JUMPDEST PUSH1 0x0 DUP1 REVERT JUMPDEST PUSH2 0x4A PUSH1 0x4 DUP1 CALLDATASIZE SUB DUP2 ADD SWAP1 PUSH2 0x45 SWAP2 SWAP1 PUSH2 0x12F JUMP JUMPDEST PUSH2 0x4C JUMP JUMPDEST STOP JUMPDEST PUSH1 0x0 PUSH20 0x0 PUSH4 0x3AB90AD8 SWAP1 SWAP2 DUP4 PUSH1 0x40 MLOAD DUP4 PUSH4 0xFFFFFFFF AND PUSH1 0xE0 SHL DUP2 MSTORE PUSH1 0x4 ADD PUSH2 0x88 SWAP3 SWAP2 SWAP1 PUSH2 0x16E JUMP JUMPDEST PUSH1 0x20 PUSH1 0x40 MLOAD DUP1 DUP4 SUB DUP2 DUP7 DUP1 EXTCODESIZE ISZERO DUP1 ISZERO PUSH2 0xA0 JUMPI PUSH1 0x0 DUP1 REVERT JUMPDEST POP GAS DELEGATECALL ISZERO DUP1 ISZERO PUSH2 0xB4 JUMPI RETURNDATASIZE PUSH1 0x0 DUP1 RETURNDATACOPY RETURNDATASIZE PUSH1 0x0 REVERT JUMPDEST POP POP POP POP PUSH1 0x40 MLOAD RETURNDATASIZE PUSH1 0x1F NOT PUSH1 0x1F DUP3 ADD AND DUP3 ADD DUP1 PUSH1 0x40 MSTORE POP DUP2 ADD SWAP1 PUSH2 0xD8 SWAP2 SWAP1 PUSH2 0x106 JUMP JUMPDEST POP POP JUMP JUMPDEST PUSH1 0x0 DUP2 MLOAD SWAP1 POP PUSH2 0xEB DUP2 PUSH2 0x1AD JUMP JUMPDEST SWAP3 SWAP2 POP POP JUMP JUMPDEST PUSH1 0x0 DUP2 CALLDATALOAD SWAP1 POP PUSH2 0x100 DUP2 PUSH2 0x1C4 JUMP JUMPDEST SWAP3 SWAP2 POP POP JUMP JUMPDEST PUSH1 0x0 PUSH1 0x20 DUP3 DUP5 SUB SLT ISZERO PUSH2 0x118 JUMPI PUSH1 0x0 DUP1 REVERT JUMPDEST PUSH1 0x0 PUSH2 0x126 DUP5 DUP3 DUP6 ADD PUSH2 0xDC JUMP JUMPDEST SWAP2 POP POP SWAP3 SWAP2 POP POP JUMP JUMPDEST PUSH1 0x0 PUSH1 0x20 DUP3 DUP5 SUB SLT ISZERO PUSH2 0x141 JUMPI PUSH1 0x0 DUP1 REVERT JUMPDEST PUSH1 0x0 PUSH2 0x14F DUP5 DUP3 DUP6 ADD PUSH2 0xF1 JUMP JUMPDEST SWAP2 POP POP SWAP3 SWAP2 POP POP JUMP JUMPDEST DUP1 DUP3 MSTORE POP POP JUMP JUMPDEST PUSH2 0x168 DUP2 PUSH2 0x1A3 JUMP JUMPDEST DUP3 MSTORE POP POP JUMP JUMPDEST PUSH1 0x0 PUSH1 0x40 DUP3 ADD SWAP1 POP PUSH2 0x183 PUSH1 0x0 DUP4 ADD DUP6 PUSH2 0x158 JUMP JUMPDEST PUSH2 0x190 PUSH1 0x20 DUP4 ADD DUP5 PUSH2 0x15F JUMP JUMPDEST SWAP4 SWAP3 POP POP POP JUMP JUMPDEST PUSH1 0x0 DUP2 ISZERO ISZERO SWAP1 POP SWAP2 SWAP1 POP JUMP JUMPDEST PUSH1 0x0 DUP2 SWAP1 POP SWAP2 SWAP1 POP JUMP JUMPDEST PUSH2 0x1B6 DUP2 PUSH2 0x197 JUMP JUMPDEST DUP2 EQ PUSH2 0x1C1 JUMPI PUSH1 0x0 DUP1 REVERT JUMPDEST POP JUMP JUMPDEST PUSH2 0x1CD DUP2 PUSH2 0x1A3 JUMP JUMPDEST DUP2 EQ PUSH2 0x1D8 JUMPI PUSH1 0x0 DUP1 REVERT JUMPDEST POP JUMP INVALID LOG2 PUSH5 0x6970667358 0x22 SLT KECCAK256 0xFB 0xE8 DUP16 ADDRESS 0xD SHL LOG4 0xB8 0xAA STOP SSTORE 0xB8 SWAP15 0x29 0x48 SWAP1 0xBE PUSH19 0x28D012E03339494E39EF8652F42464736F6C63 NUMBER STOP ADDMOD ADD STOP CALLER "
		},
		"gasEstimates": {
			"creation": {
				"codeDepositCost": "105800",
				"executionCost": "153",
				"totalCost": "105953"
			},
			"external": {
				"register(uint256)": "infinite"
			}
		},
		"methodIdentifiers": {
			"register(uint256)": "f207564e"
		}
	},
	"abi": [
		{
			"inputs": [
				{
					"internalType": "uint256",
					"name": "value",
					"type": "uint256"
				}
			],
			"name": "register",
			"outputs": [],
			"stateMutability": "nonpayable",
			"type": "function"
		}
	]
}