{
	"code1/9VariableModifier.sol": {
		"VM": {
			"abi": [
				{
					"inputs": [
						{
							"internalType": "uint256[]",
							"name": "y",
							"type": "uint256[]"
						},
						{
							"internalType": "string",
							"name": "s",
							"type": "string"
						}
					],
					"name": "example",
					"outputs": [
						{
							"internalType": "uint256",
							"name": "",
							"type": "uint256"
						}
					],
					"stateMutability": "nonpayable",
					"type": "function"
				},
				{
					"inputs": [
						{
							"internalType": "address",
							"name": "",
							"type": "address"
						}
					],
					"name": "myStructs",
					"outputs": [
						{
							"internalType": "uint256",
							"name": "foo",
							"type": "uint256"
						},
						{
							"internalType": "string",
							"name": "text",
							"type": "string"
						}
					],
					"stateMutability": "view",
					"type": "function"
				}
			],
			"devdoc": {
				"kind": "dev",
				"methods": {},
				"version": 1
			},
			"evm": {
				"assembly": "    /* \"code1/9VariableModifier.sol\":54:477  contract VM{... */\n  mstore(0x40, 0x80)\n  callvalue\n  dup1\n  iszero\n  tag_1\n  jumpi\n  0x00\n  dup1\n  revert\ntag_1:\n  pop\n  dataSize(sub_0)\n  dup1\n  dataOffset(sub_0)\n  0x00\n  codecopy\n  0x00\n  return\nstop\n\nsub_0: assembly {\n        /* \"code1/9VariableModifier.sol\":54:477  contract VM{... */\n      mstore(0x40, 0x80)\n      callvalue\n      dup1\n      iszero\n      tag_1\n      jumpi\n      0x00\n      dup1\n      revert\n    tag_1:\n      pop\n      jumpi(tag_2, lt(calldatasize, 0x04))\n      shr(0xe0, calldataload(0x00))\n      dup1\n      0x9837ae1a\n      eq\n      tag_3\n      jumpi\n      dup1\n      0xb43c5d33\n      eq\n      tag_4\n      jumpi\n    tag_2:\n      0x00\n      dup1\n      revert\n        /* \"code1/9VariableModifier.sol\":187:475  function example(uint[] memory y,string memory s)external returns(uint){... */\n    tag_3:\n      tag_5\n      0x04\n      dup1\n      calldatasize\n      sub\n      dup2\n      add\n      swap1\n      tag_6\n      swap2\n      swap1\n      tag_7\n      jump\t// in\n    tag_6:\n      tag_8\n      jump\t// in\n    tag_5:\n      mload(0x40)\n      tag_9\n      swap2\n      swap1\n      tag_10\n      jump\t// in\n    tag_9:\n      mload(0x40)\n      dup1\n      swap2\n      sub\n      swap1\n      return\n        /* \"code1/9VariableModifier.sol\":137:180  mapping(address=>MyStruct) public myStructs */\n    tag_4:\n      tag_11\n      0x04\n      dup1\n      calldatasize\n      sub\n      dup2\n      add\n      swap1\n      tag_12\n      swap2\n      swap1\n      tag_13\n      jump\t// in\n    tag_12:\n      tag_14\n      jump\t// in\n    tag_11:\n      mload(0x40)\n      tag_15\n      swap3\n      swap2\n      swap1\n      tag_16\n      jump\t// in\n    tag_15:\n      mload(0x40)\n      dup1\n      swap2\n      sub\n      swap1\n      return\n        /* \"code1/9VariableModifier.sol\":187:475  function example(uint[] memory y,string memory s)external returns(uint){... */\n    tag_8:\n        /* \"code1/9VariableModifier.sol\":253:257  uint */\n      0x00\n        /* \"code1/9VariableModifier.sol\":290:319  MyStruct({foo:123,text:\"wp\"}) */\n      mload(0x40)\n      dup1\n      0x40\n      add\n      0x40\n      mstore\n      dup1\n        /* \"code1/9VariableModifier.sol\":304:307  123 */\n      0x7b\n        /* \"code1/9VariableModifier.sol\":290:319  MyStruct({foo:123,text:\"wp\"}) */\n      dup2\n      mstore\n      0x20\n      add\n      mload(0x40)\n      dup1\n      0x40\n      add\n      0x40\n      mstore\n      dup1\n      0x02\n      dup2\n      mstore\n      0x20\n      add\n      0x7770000000000000000000000000000000000000000000000000000000000000\n      dup2\n      mstore\n      pop\n      dup2\n      mstore\n      pop\n        /* \"code1/9VariableModifier.sol\":268:277  myStructs */\n      0x00\n        /* \"code1/9VariableModifier.sol\":268:289  myStructs[msg.sender] */\n      dup1\n        /* \"code1/9VariableModifier.sol\":278:288  msg.sender */\n      caller\n        /* \"code1/9VariableModifier.sol\":268:289  myStructs[msg.sender] */\n      0xffffffffffffffffffffffffffffffffffffffff\n      and\n      0xffffffffffffffffffffffffffffffffffffffff\n      and\n      dup2\n      mstore\n      0x20\n      add\n      swap1\n      dup2\n      mstore\n      0x20\n      add\n      0x00\n      keccak256\n        /* \"code1/9VariableModifier.sol\":268:319  myStructs[msg.sender]=MyStruct({foo:123,text:\"wp\"}) */\n      0x00\n      dup3\n      add\n      mload\n      dup2\n      0x00\n      add\n      sstore\n      0x20\n      dup3\n      add\n      mload\n      dup2\n      0x01\n      add\n      swap1\n      dup1\n      mload\n      swap1\n      0x20\n      add\n      swap1\n      tag_18\n      swap3\n      swap2\n      swap1\n      tag_19\n      jump\t// in\n    tag_18:\n      pop\n      swap1\n      pop\n      pop\n        /* \"code1/9VariableModifier.sol\":329:348  MyStruct storage my */\n      0x00\n        /* \"code1/9VariableModifier.sol\":351:360  myStructs */\n      dup1\n        /* \"code1/9VariableModifier.sol\":351:372  myStructs[msg.sender] */\n      0x00\n        /* \"code1/9VariableModifier.sol\":361:371  msg.sender */\n      caller\n        /* \"code1/9VariableModifier.sol\":351:372  myStructs[msg.sender] */\n      0xffffffffffffffffffffffffffffffffffffffff\n      and\n      0xffffffffffffffffffffffffffffffffffffffff\n      and\n      dup2\n      mstore\n      0x20\n      add\n      swap1\n      dup2\n      mstore\n      0x20\n      add\n      0x00\n      keccak256\n        /* \"code1/9VariableModifier.sol\":329:372  MyStruct storage my = myStructs[msg.sender] */\n      swap1\n      pop\n        /* \"code1/9VariableModifier.sol\":391:394  567 */\n      0x0237\n        /* \"code1/9VariableModifier.sol\":382:384  my */\n      dup2\n        /* \"code1/9VariableModifier.sol\":382:388  my.foo */\n      0x00\n      add\n        /* \"code1/9VariableModifier.sol\":382:394  my.foo = 567 */\n      dup2\n      swap1\n      sstore\n      pop\n        /* \"code1/9VariableModifier.sol\":404:423  MyStruct memory my1 */\n      0x00\n        /* \"code1/9VariableModifier.sol\":426:435  myStructs */\n      dup1\n        /* \"code1/9VariableModifier.sol\":426:447  myStructs[msg.sender] */\n      0x00\n        /* \"code1/9VariableModifier.sol\":436:446  msg.sender */\n      caller\n        /* \"code1/9VariableModifier.sol\":426:447  myStructs[msg.sender] */\n      0xffffffffffffffffffffffffffffffffffffffff\n      and\n      0xffffffffffffffffffffffffffffffffffffffff\n      and\n      dup2\n      mstore\n      0x20\n      add\n      swap1\n      dup2\n      mstore\n      0x20\n      add\n      0x00\n      keccak256\n        /* \"code1/9VariableModifier.sol\":404:447  MyStruct memory my1 = myStructs[msg.sender] */\n      mload(0x40)\n      dup1\n      0x40\n      add\n      0x40\n      mstore\n      swap1\n      dup2\n      0x00\n      dup3\n      add\n      sload\n      dup2\n      mstore\n      0x20\n      add\n      0x01\n      dup3\n      add\n      dup1\n      sload\n      tag_20\n      swap1\n      tag_21\n      jump\t// in\n    tag_20:\n      dup1\n      0x1f\n      add\n      0x20\n      dup1\n      swap2\n      div\n      mul\n      0x20\n      add\n      mload(0x40)\n      swap1\n      dup2\n      add\n      0x40\n      mstore\n      dup1\n      swap3\n      swap2\n      swap1\n      dup2\n      dup2\n      mstore\n      0x20\n      add\n      dup3\n      dup1\n      sload\n      tag_22\n      swap1\n      tag_21\n      jump\t// in\n    tag_22:\n      dup1\n      iszero\n      tag_23\n      jumpi\n      dup1\n      0x1f\n      lt\n      tag_24\n      jumpi\n      0x0100\n      dup1\n      dup4\n      sload\n      div\n      mul\n      dup4\n      mstore\n      swap2\n      0x20\n      add\n      swap2\n      jump(tag_23)\n    tag_24:\n      dup3\n      add\n      swap2\n      swap1\n      0x00\n      mstore\n      keccak256(0x00, 0x20)\n      swap1\n    tag_25:\n      dup2\n      sload\n      dup2\n      mstore\n      swap1\n      0x01\n      add\n      swap1\n      0x20\n      add\n      dup1\n      dup4\n      gt\n      tag_25\n      jumpi\n      dup3\n      swap1\n      sub\n      0x1f\n      and\n      dup3\n      add\n      swap2\n    tag_23:\n      pop\n      pop\n      pop\n      pop\n      pop\n      dup2\n      mstore\n      pop\n      pop\n      swap1\n      pop\n        /* \"code1/9VariableModifier.sol\":465:468  890 */\n      0x037a\n        /* \"code1/9VariableModifier.sol\":457:460  my1 */\n      dup2\n        /* \"code1/9VariableModifier.sol\":457:464  my1.foo */\n      0x00\n      add\n        /* \"code1/9VariableModifier.sol\":457:468  my1.foo=890 */\n      dup2\n      dup2\n      mstore\n      pop\n      pop\n        /* \"code1/9VariableModifier.sol\":258:475  {... */\n      pop\n      pop\n        /* \"code1/9VariableModifier.sol\":187:475  function example(uint[] memory y,string memory s)external returns(uint){... */\n      swap3\n      swap2\n      pop\n      pop\n      jump\t// out\n        /* \"code1/9VariableModifier.sol\":137:180  mapping(address=>MyStruct) public myStructs */\n    tag_14:\n      mstore(0x20, 0x00)\n      dup1\n      0x00\n      mstore\n      keccak256(0x00, 0x40)\n      0x00\n      swap2\n      pop\n      swap1\n      pop\n      dup1\n      0x00\n      add\n      sload\n      swap1\n      dup1\n      0x01\n      add\n      dup1\n      sload\n      tag_26\n      swap1\n      tag_21\n      jump\t// in\n    tag_26:\n      dup1\n      0x1f\n      add\n      0x20\n      dup1\n      swap2\n      div\n      mul\n      0x20\n      add\n      mload(0x40)\n      swap1\n      dup2\n      add\n      0x40\n      mstore\n      dup1\n      swap3\n      swap2\n      swap1\n      dup2\n      dup2\n      mstore\n      0x20\n      add\n      dup3\n      dup1\n      sload\n      tag_27\n      swap1\n      tag_21\n      jump\t// in\n    tag_27:\n      dup1\n      iszero\n      tag_28\n      jumpi\n      dup1\n      0x1f\n      lt\n      tag_29\n      jumpi\n      0x0100\n      dup1\n      dup4\n      sload\n      div\n      mul\n      dup4\n      mstore\n      swap2\n      0x20\n      add\n      swap2\n      jump(tag_28)\n    tag_29:\n      dup3\n      add\n      swap2\n      swap1\n      0x00\n      mstore\n      keccak256(0x00, 0x20)\n      swap1\n    tag_30:\n      dup2\n      sload\n      dup2\n      mstore\n      swap1\n      0x01\n      add\n      swap1\n      0x20\n      add\n      dup1\n      dup4\n      gt\n      tag_30\n      jumpi\n      dup3\n      swap1\n      sub\n      0x1f\n      and\n      dup3\n      add\n      swap2\n    tag_28:\n      pop\n      pop\n      pop\n      pop\n      pop\n      swap1\n      pop\n      dup3\n      jump\t// out\n    tag_19:\n      dup3\n      dup1\n      sload\n      tag_31\n      swap1\n      tag_21\n      jump\t// in\n    tag_31:\n      swap1\n      0x00\n      mstore\n      keccak256(0x00, 0x20)\n      swap1\n      0x1f\n      add\n      0x20\n      swap1\n      div\n      dup2\n      add\n      swap3\n      dup3\n      tag_33\n      jumpi\n      0x00\n      dup6\n      sstore\n      jump(tag_32)\n    tag_33:\n      dup3\n      0x1f\n      lt\n      tag_34\n      jumpi\n      dup1\n      mload\n      not(0xff)\n      and\n      dup4\n      dup1\n      add\n      or\n      dup6\n      sstore\n      jump(tag_32)\n    tag_34:\n      dup3\n      dup1\n      add\n      0x01\n      add\n      dup6\n      sstore\n      dup3\n      iszero\n      tag_32\n      jumpi\n      swap2\n      dup3\n      add\n    tag_35:\n      dup3\n      dup2\n      gt\n      iszero\n      tag_36\n      jumpi\n      dup3\n      mload\n      dup3\n      sstore\n      swap2\n      0x20\n      add\n      swap2\n      swap1\n      0x01\n      add\n      swap1\n      jump(tag_35)\n    tag_36:\n    tag_32:\n      pop\n      swap1\n      pop\n      tag_37\n      swap2\n      swap1\n      tag_38\n      jump\t// in\n    tag_37:\n      pop\n      swap1\n      jump\t// out\n    tag_38:\n    tag_39:\n      dup1\n      dup3\n      gt\n      iszero\n      tag_40\n      jumpi\n      0x00\n      dup2\n      0x00\n      swap1\n      sstore\n      pop\n      0x01\n      add\n      jump(tag_39)\n    tag_40:\n      pop\n      swap1\n      jump\t// out\n        /* \"#utility.yul\":24:746   */\n    tag_42:\n        /* \"#utility.yul\":120:125   */\n      0x00\n        /* \"#utility.yul\":145:226   */\n      tag_44\n        /* \"#utility.yul\":161:225   */\n      tag_45\n        /* \"#utility.yul\":218:224   */\n      dup5\n        /* \"#utility.yul\":161:225   */\n      tag_46\n      jump\t// in\n    tag_45:\n        /* \"#utility.yul\":145:226   */\n      tag_47\n      jump\t// in\n    tag_44:\n        /* \"#utility.yul\":136:226   */\n      swap1\n      pop\n        /* \"#utility.yul\":246:251   */\n      dup1\n        /* \"#utility.yul\":275:281   */\n      dup4\n        /* \"#utility.yul\":268:273   */\n      dup3\n        /* \"#utility.yul\":261:282   */\n      mstore\n        /* \"#utility.yul\":309:313   */\n      0x20\n        /* \"#utility.yul\":302:307   */\n      dup3\n        /* \"#utility.yul\":298:314   */\n      add\n        /* \"#utility.yul\":291:314   */\n      swap1\n      pop\n        /* \"#utility.yul\":335:341   */\n      dup3\n        /* \"#utility.yul\":385:388   */\n      dup6\n        /* \"#utility.yul\":377:381   */\n      0x20\n        /* \"#utility.yul\":369:375   */\n      dup7\n        /* \"#utility.yul\":365:382   */\n      mul\n        /* \"#utility.yul\":360:363   */\n      dup3\n        /* \"#utility.yul\":356:383   */\n      add\n        /* \"#utility.yul\":353:389   */\n      gt\n        /* \"#utility.yul\":350:493   */\n      iszero\n      tag_48\n      jumpi\n        /* \"#utility.yul\":404:483   */\n      tag_49\n      tag_50\n      jump\t// in\n    tag_49:\n        /* \"#utility.yul\":350:493   */\n    tag_48:\n        /* \"#utility.yul\":517:518   */\n      0x00\n        /* \"#utility.yul\":502:740   */\n    tag_51:\n        /* \"#utility.yul\":527:533   */\n      dup6\n        /* \"#utility.yul\":524:525   */\n      dup2\n        /* \"#utility.yul\":521:534   */\n      lt\n        /* \"#utility.yul\":502:740   */\n      iszero\n      tag_53\n      jumpi\n        /* \"#utility.yul\":595:598   */\n      dup2\n        /* \"#utility.yul\":624:661   */\n      tag_54\n        /* \"#utility.yul\":657:660   */\n      dup9\n        /* \"#utility.yul\":645:655   */\n      dup3\n        /* \"#utility.yul\":624:661   */\n      tag_55\n      jump\t// in\n    tag_54:\n        /* \"#utility.yul\":619:622   */\n      dup5\n        /* \"#utility.yul\":612:662   */\n      mstore\n        /* \"#utility.yul\":691:695   */\n      0x20\n        /* \"#utility.yul\":686:689   */\n      dup5\n        /* \"#utility.yul\":682:696   */\n      add\n        /* \"#utility.yul\":675:696   */\n      swap4\n      pop\n        /* \"#utility.yul\":725:729   */\n      0x20\n        /* \"#utility.yul\":720:723   */\n      dup4\n        /* \"#utility.yul\":716:730   */\n      add\n        /* \"#utility.yul\":709:730   */\n      swap3\n      pop\n        /* \"#utility.yul\":562:740   */\n      pop\n        /* \"#utility.yul\":549:550   */\n      0x01\n        /* \"#utility.yul\":546:547   */\n      dup2\n        /* \"#utility.yul\":542:551   */\n      add\n        /* \"#utility.yul\":537:551   */\n      swap1\n      pop\n        /* \"#utility.yul\":502:740   */\n      jump(tag_51)\n    tag_53:\n        /* \"#utility.yul\":506:520   */\n      pop\n        /* \"#utility.yul\":126:746   */\n      pop\n      pop\n        /* \"#utility.yul\":24:746   */\n      swap4\n      swap3\n      pop\n      pop\n      pop\n      jump\t// out\n        /* \"#utility.yul\":752:1164   */\n    tag_56:\n        /* \"#utility.yul\":830:835   */\n      0x00\n        /* \"#utility.yul\":855:921   */\n      tag_58\n        /* \"#utility.yul\":871:920   */\n      tag_59\n        /* \"#utility.yul\":913:919   */\n      dup5\n        /* \"#utility.yul\":871:920   */\n      tag_60\n      jump\t// in\n    tag_59:\n        /* \"#utility.yul\":855:921   */\n      tag_47\n      jump\t// in\n    tag_58:\n        /* \"#utility.yul\":846:921   */\n      swap1\n      pop\n        /* \"#utility.yul\":944:950   */\n      dup3\n        /* \"#utility.yul\":937:942   */\n      dup2\n        /* \"#utility.yul\":930:951   */\n      mstore\n        /* \"#utility.yul\":982:986   */\n      0x20\n        /* \"#utility.yul\":975:980   */\n      dup2\n        /* \"#utility.yul\":971:987   */\n      add\n        /* \"#utility.yul\":1020:1023   */\n      dup5\n        /* \"#utility.yul\":1011:1017   */\n      dup5\n        /* \"#utility.yul\":1006:1009   */\n      dup5\n        /* \"#utility.yul\":1002:1018   */\n      add\n        /* \"#utility.yul\":999:1024   */\n      gt\n        /* \"#utility.yul\":996:1108   */\n      iszero\n      tag_61\n      jumpi\n        /* \"#utility.yul\":1027:1106   */\n      tag_62\n      tag_63\n      jump\t// in\n    tag_62:\n        /* \"#utility.yul\":996:1108   */\n    tag_61:\n        /* \"#utility.yul\":1117:1158   */\n      tag_64\n        /* \"#utility.yul\":1151:1157   */\n      dup5\n        /* \"#utility.yul\":1146:1149   */\n      dup3\n        /* \"#utility.yul\":1141:1144   */\n      dup6\n        /* \"#utility.yul\":1117:1158   */\n      tag_65\n      jump\t// in\n    tag_64:\n        /* \"#utility.yul\":836:1164   */\n      pop\n        /* \"#utility.yul\":752:1164   */\n      swap4\n      swap3\n      pop\n      pop\n      pop\n      jump\t// out\n        /* \"#utility.yul\":1170:1309   */\n    tag_66:\n        /* \"#utility.yul\":1216:1221   */\n      0x00\n        /* \"#utility.yul\":1254:1260   */\n      dup2\n        /* \"#utility.yul\":1241:1261   */\n      calldataload\n        /* \"#utility.yul\":1232:1261   */\n      swap1\n      pop\n        /* \"#utility.yul\":1270:1303   */\n      tag_68\n        /* \"#utility.yul\":1297:1302   */\n      dup2\n        /* \"#utility.yul\":1270:1303   */\n      tag_69\n      jump\t// in\n    tag_68:\n        /* \"#utility.yul\":1170:1309   */\n      swap3\n      swap2\n      pop\n      pop\n      jump\t// out\n        /* \"#utility.yul\":1332:1702   */\n    tag_70:\n        /* \"#utility.yul\":1403:1408   */\n      0x00\n        /* \"#utility.yul\":1452:1455   */\n      dup3\n        /* \"#utility.yul\":1445:1449   */\n      0x1f\n        /* \"#utility.yul\":1437:1443   */\n      dup4\n        /* \"#utility.yul\":1433:1450   */\n      add\n        /* \"#utility.yul\":1429:1456   */\n      slt\n        /* \"#utility.yul\":1419:1541   */\n      tag_72\n      jumpi\n        /* \"#utility.yul\":1460:1539   */\n      tag_73\n      tag_74\n      jump\t// in\n    tag_73:\n        /* \"#utility.yul\":1419:1541   */\n    tag_72:\n        /* \"#utility.yul\":1577:1583   */\n      dup2\n        /* \"#utility.yul\":1564:1584   */\n      calldataload\n        /* \"#utility.yul\":1602:1696   */\n      tag_75\n        /* \"#utility.yul\":1692:1695   */\n      dup5\n        /* \"#utility.yul\":1684:1690   */\n      dup3\n        /* \"#utility.yul\":1677:1681   */\n      0x20\n        /* \"#utility.yul\":1669:1675   */\n      dup7\n        /* \"#utility.yul\":1665:1682   */\n      add\n        /* \"#utility.yul\":1602:1696   */\n      tag_42\n      jump\t// in\n    tag_75:\n        /* \"#utility.yul\":1593:1696   */\n      swap2\n      pop\n        /* \"#utility.yul\":1409:1702   */\n      pop\n        /* \"#utility.yul\":1332:1702   */\n      swap3\n      swap2\n      pop\n      pop\n      jump\t// out\n        /* \"#utility.yul\":1722:2062   */\n    tag_76:\n        /* \"#utility.yul\":1778:1783   */\n      0x00\n        /* \"#utility.yul\":1827:1830   */\n      dup3\n        /* \"#utility.yul\":1820:1824   */\n      0x1f\n        /* \"#utility.yul\":1812:1818   */\n      dup4\n        /* \"#utility.yul\":1808:1825   */\n      add\n        /* \"#utility.yul\":1804:1831   */\n      slt\n        /* \"#utility.yul\":1794:1916   */\n      tag_78\n      jumpi\n        /* \"#utility.yul\":1835:1914   */\n      tag_79\n      tag_74\n      jump\t// in\n    tag_79:\n        /* \"#utility.yul\":1794:1916   */\n    tag_78:\n        /* \"#utility.yul\":1952:1958   */\n      dup2\n        /* \"#utility.yul\":1939:1959   */\n      calldataload\n        /* \"#utility.yul\":1977:2056   */\n      tag_80\n        /* \"#utility.yul\":2052:2055   */\n      dup5\n        /* \"#utility.yul\":2044:2050   */\n      dup3\n        /* \"#utility.yul\":2037:2041   */\n      0x20\n        /* \"#utility.yul\":2029:2035   */\n      dup7\n        /* \"#utility.yul\":2025:2042   */\n      add\n        /* \"#utility.yul\":1977:2056   */\n      tag_56\n      jump\t// in\n    tag_80:\n        /* \"#utility.yul\":1968:2056   */\n      swap2\n      pop\n        /* \"#utility.yul\":1784:2062   */\n      pop\n        /* \"#utility.yul\":1722:2062   */\n      swap3\n      swap2\n      pop\n      pop\n      jump\t// out\n        /* \"#utility.yul\":2068:2207   */\n    tag_55:\n        /* \"#utility.yul\":2114:2119   */\n      0x00\n        /* \"#utility.yul\":2152:2158   */\n      dup2\n        /* \"#utility.yul\":2139:2159   */\n      calldataload\n        /* \"#utility.yul\":2130:2159   */\n      swap1\n      pop\n        /* \"#utility.yul\":2168:2201   */\n      tag_82\n        /* \"#utility.yul\":2195:2200   */\n      dup2\n        /* \"#utility.yul\":2168:2201   */\n      tag_83\n      jump\t// in\n    tag_82:\n        /* \"#utility.yul\":2068:2207   */\n      swap3\n      swap2\n      pop\n      pop\n      jump\t// out\n        /* \"#utility.yul\":2213:2542   */\n    tag_13:\n        /* \"#utility.yul\":2272:2278   */\n      0x00\n        /* \"#utility.yul\":2321:2323   */\n      0x20\n        /* \"#utility.yul\":2309:2318   */\n      dup3\n        /* \"#utility.yul\":2300:2307   */\n      dup5\n        /* \"#utility.yul\":2296:2319   */\n      sub\n        /* \"#utility.yul\":2292:2324   */\n      slt\n        /* \"#utility.yul\":2289:2408   */\n      iszero\n      tag_85\n      jumpi\n        /* \"#utility.yul\":2327:2406   */\n      tag_86\n      tag_87\n      jump\t// in\n    tag_86:\n        /* \"#utility.yul\":2289:2408   */\n    tag_85:\n        /* \"#utility.yul\":2447:2448   */\n      0x00\n        /* \"#utility.yul\":2472:2525   */\n      tag_88\n        /* \"#utility.yul\":2517:2524   */\n      dup5\n        /* \"#utility.yul\":2508:2514   */\n      dup3\n        /* \"#utility.yul\":2497:2506   */\n      dup6\n        /* \"#utility.yul\":2493:2515   */\n      add\n        /* \"#utility.yul\":2472:2525   */\n      tag_66\n      jump\t// in\n    tag_88:\n        /* \"#utility.yul\":2462:2525   */\n      swap2\n      pop\n        /* \"#utility.yul\":2418:2535   */\n      pop\n        /* \"#utility.yul\":2213:2542   */\n      swap3\n      swap2\n      pop\n      pop\n      jump\t// out\n        /* \"#utility.yul\":2548:3412   */\n    tag_7:\n        /* \"#utility.yul\":2651:2657   */\n      0x00\n        /* \"#utility.yul\":2659:2665   */\n      dup1\n        /* \"#utility.yul\":2708:2710   */\n      0x40\n        /* \"#utility.yul\":2696:2705   */\n      dup4\n        /* \"#utility.yul\":2687:2694   */\n      dup6\n        /* \"#utility.yul\":2683:2706   */\n      sub\n        /* \"#utility.yul\":2679:2711   */\n      slt\n        /* \"#utility.yul\":2676:2795   */\n      iszero\n      tag_90\n      jumpi\n        /* \"#utility.yul\":2714:2793   */\n      tag_91\n      tag_87\n      jump\t// in\n    tag_91:\n        /* \"#utility.yul\":2676:2795   */\n    tag_90:\n        /* \"#utility.yul\":2862:2863   */\n      0x00\n        /* \"#utility.yul\":2851:2860   */\n      dup4\n        /* \"#utility.yul\":2847:2864   */\n      add\n        /* \"#utility.yul\":2834:2865   */\n      calldataload\n        /* \"#utility.yul\":2892:2910   */\n      0xffffffffffffffff\n        /* \"#utility.yul\":2884:2890   */\n      dup2\n        /* \"#utility.yul\":2881:2911   */\n      gt\n        /* \"#utility.yul\":2878:2995   */\n      iszero\n      tag_92\n      jumpi\n        /* \"#utility.yul\":2914:2993   */\n      tag_93\n      tag_94\n      jump\t// in\n    tag_93:\n        /* \"#utility.yul\":2878:2995   */\n    tag_92:\n        /* \"#utility.yul\":3019:3097   */\n      tag_95\n        /* \"#utility.yul\":3089:3096   */\n      dup6\n        /* \"#utility.yul\":3080:3086   */\n      dup3\n        /* \"#utility.yul\":3069:3078   */\n      dup7\n        /* \"#utility.yul\":3065:3087   */\n      add\n        /* \"#utility.yul\":3019:3097   */\n      tag_70\n      jump\t// in\n    tag_95:\n        /* \"#utility.yul\":3009:3097   */\n      swap3\n      pop\n        /* \"#utility.yul\":2805:3107   */\n      pop\n        /* \"#utility.yul\":3174:3176   */\n      0x20\n        /* \"#utility.yul\":3163:3172   */\n      dup4\n        /* \"#utility.yul\":3159:3177   */\n      add\n        /* \"#utility.yul\":3146:3178   */\n      calldataload\n        /* \"#utility.yul\":3205:3223   */\n      0xffffffffffffffff\n        /* \"#utility.yul\":3197:3203   */\n      dup2\n        /* \"#utility.yul\":3194:3224   */\n      gt\n        /* \"#utility.yul\":3191:3308   */\n      iszero\n      tag_96\n      jumpi\n        /* \"#utility.yul\":3227:3306   */\n      tag_97\n      tag_94\n      jump\t// in\n    tag_97:\n        /* \"#utility.yul\":3191:3308   */\n    tag_96:\n        /* \"#utility.yul\":3332:3395   */\n      tag_98\n        /* \"#utility.yul\":3387:3394   */\n      dup6\n        /* \"#utility.yul\":3378:3384   */\n      dup3\n        /* \"#utility.yul\":3367:3376   */\n      dup7\n        /* \"#utility.yul\":3363:3385   */\n      add\n        /* \"#utility.yul\":3332:3395   */\n      tag_76\n      jump\t// in\n    tag_98:\n        /* \"#utility.yul\":3322:3395   */\n      swap2\n      pop\n        /* \"#utility.yul\":3117:3405   */\n      pop\n        /* \"#utility.yul\":2548:3412   */\n      swap3\n      pop\n      swap3\n      swap1\n      pop\n      jump\t// out\n        /* \"#utility.yul\":3418:3782   */\n    tag_99:\n        /* \"#utility.yul\":3506:3509   */\n      0x00\n        /* \"#utility.yul\":3534:3573   */\n      tag_101\n        /* \"#utility.yul\":3567:3572   */\n      dup3\n        /* \"#utility.yul\":3534:3573   */\n      tag_102\n      jump\t// in\n    tag_101:\n        /* \"#utility.yul\":3589:3660   */\n      tag_103\n        /* \"#utility.yul\":3653:3659   */\n      dup2\n        /* \"#utility.yul\":3648:3651   */\n      dup6\n        /* \"#utility.yul\":3589:3660   */\n      tag_104\n      jump\t// in\n    tag_103:\n        /* \"#utility.yul\":3582:3660   */\n      swap4\n      pop\n        /* \"#utility.yul\":3669:3721   */\n      tag_105\n        /* \"#utility.yul\":3714:3720   */\n      dup2\n        /* \"#utility.yul\":3709:3712   */\n      dup6\n        /* \"#utility.yul\":3702:3706   */\n      0x20\n        /* \"#utility.yul\":3695:3700   */\n      dup7\n        /* \"#utility.yul\":3691:3707   */\n      add\n        /* \"#utility.yul\":3669:3721   */\n      tag_106\n      jump\t// in\n    tag_105:\n        /* \"#utility.yul\":3746:3775   */\n      tag_107\n        /* \"#utility.yul\":3768:3774   */\n      dup2\n        /* \"#utility.yul\":3746:3775   */\n      tag_108\n      jump\t// in\n    tag_107:\n        /* \"#utility.yul\":3741:3744   */\n      dup5\n        /* \"#utility.yul\":3737:3776   */\n      add\n        /* \"#utility.yul\":3730:3776   */\n      swap2\n      pop\n        /* \"#utility.yul\":3510:3782   */\n      pop\n        /* \"#utility.yul\":3418:3782   */\n      swap3\n      swap2\n      pop\n      pop\n      jump\t// out\n        /* \"#utility.yul\":3788:3906   */\n    tag_109:\n        /* \"#utility.yul\":3875:3899   */\n      tag_111\n        /* \"#utility.yul\":3893:3898   */\n      dup2\n        /* \"#utility.yul\":3875:3899   */\n      tag_112\n      jump\t// in\n    tag_111:\n        /* \"#utility.yul\":3870:3873   */\n      dup3\n        /* \"#utility.yul\":3863:3900   */\n      mstore\n        /* \"#utility.yul\":3788:3906   */\n      pop\n      pop\n      jump\t// out\n        /* \"#utility.yul\":3912:4134   */\n    tag_10:\n        /* \"#utility.yul\":4005:4009   */\n      0x00\n        /* \"#utility.yul\":4043:4045   */\n      0x20\n        /* \"#utility.yul\":4032:4041   */\n      dup3\n        /* \"#utility.yul\":4028:4046   */\n      add\n        /* \"#utility.yul\":4020:4046   */\n      swap1\n      pop\n        /* \"#utility.yul\":4056:4127   */\n      tag_114\n        /* \"#utility.yul\":4124:4125   */\n      0x00\n        /* \"#utility.yul\":4113:4122   */\n      dup4\n        /* \"#utility.yul\":4109:4126   */\n      add\n        /* \"#utility.yul\":4100:4106   */\n      dup5\n        /* \"#utility.yul\":4056:4127   */\n      tag_109\n      jump\t// in\n    tag_114:\n        /* \"#utility.yul\":3912:4134   */\n      swap3\n      swap2\n      pop\n      pop\n      jump\t// out\n        /* \"#utility.yul\":4140:4563   */\n    tag_16:\n        /* \"#utility.yul\":4281:4285   */\n      0x00\n        /* \"#utility.yul\":4319:4321   */\n      0x40\n        /* \"#utility.yul\":4308:4317   */\n      dup3\n        /* \"#utility.yul\":4304:4322   */\n      add\n        /* \"#utility.yul\":4296:4322   */\n      swap1\n      pop\n        /* \"#utility.yul\":4332:4403   */\n      tag_116\n        /* \"#utility.yul\":4400:4401   */\n      0x00\n        /* \"#utility.yul\":4389:4398   */\n      dup4\n        /* \"#utility.yul\":4385:4402   */\n      add\n        /* \"#utility.yul\":4376:4382   */\n      dup6\n        /* \"#utility.yul\":4332:4403   */\n      tag_109\n      jump\t// in\n    tag_116:\n        /* \"#utility.yul\":4450:4459   */\n      dup2\n        /* \"#utility.yul\":4444:4448   */\n      dup2\n        /* \"#utility.yul\":4440:4460   */\n      sub\n        /* \"#utility.yul\":4435:4437   */\n      0x20\n        /* \"#utility.yul\":4424:4433   */\n      dup4\n        /* \"#utility.yul\":4420:4438   */\n      add\n        /* \"#utility.yul\":4413:4461   */\n      mstore\n        /* \"#utility.yul\":4478:4556   */\n      tag_117\n        /* \"#utility.yul\":4551:4555   */\n      dup2\n        /* \"#utility.yul\":4542:4548   */\n      dup5\n        /* \"#utility.yul\":4478:4556   */\n      tag_99\n      jump\t// in\n    tag_117:\n        /* \"#utility.yul\":4470:4556   */\n      swap1\n      pop\n        /* \"#utility.yul\":4140:4563   */\n      swap4\n      swap3\n      pop\n      pop\n      pop\n      jump\t// out\n        /* \"#utility.yul\":4569:4698   */\n    tag_47:\n        /* \"#utility.yul\":4603:4609   */\n      0x00\n        /* \"#utility.yul\":4630:4650   */\n      tag_119\n      tag_120\n      jump\t// in\n    tag_119:\n        /* \"#utility.yul\":4620:4650   */\n      swap1\n      pop\n        /* \"#utility.yul\":4659:4692   */\n      tag_121\n        /* \"#utility.yul\":4687:4691   */\n      dup3\n        /* \"#utility.yul\":4679:4685   */\n      dup3\n        /* \"#utility.yul\":4659:4692   */\n      tag_122\n      jump\t// in\n    tag_121:\n        /* \"#utility.yul\":4569:4698   */\n      swap2\n      swap1\n      pop\n      jump\t// out\n        /* \"#utility.yul\":4704:4779   */\n    tag_120:\n        /* \"#utility.yul\":4737:4743   */\n      0x00\n        /* \"#utility.yul\":4770:4772   */\n      0x40\n        /* \"#utility.yul\":4764:4773   */\n      mload\n        /* \"#utility.yul\":4754:4773   */\n      swap1\n      pop\n        /* \"#utility.yul\":4704:4779   */\n      swap1\n      jump\t// out\n        /* \"#utility.yul\":4785:5096   */\n    tag_46:\n        /* \"#utility.yul\":4862:4866   */\n      0x00\n        /* \"#utility.yul\":4952:4970   */\n      0xffffffffffffffff\n        /* \"#utility.yul\":4944:4950   */\n      dup3\n        /* \"#utility.yul\":4941:4971   */\n      gt\n        /* \"#utility.yul\":4938:4994   */\n      iszero\n      tag_125\n      jumpi\n        /* \"#utility.yul\":4974:4992   */\n      tag_126\n      tag_127\n      jump\t// in\n    tag_126:\n        /* \"#utility.yul\":4938:4994   */\n    tag_125:\n        /* \"#utility.yul\":5024:5028   */\n      0x20\n        /* \"#utility.yul\":5016:5022   */\n      dup3\n        /* \"#utility.yul\":5012:5029   */\n      mul\n        /* \"#utility.yul\":5004:5029   */\n      swap1\n      pop\n        /* \"#utility.yul\":5084:5088   */\n      0x20\n        /* \"#utility.yul\":5078:5082   */\n      dup2\n        /* \"#utility.yul\":5074:5089   */\n      add\n        /* \"#utility.yul\":5066:5089   */\n      swap1\n      pop\n        /* \"#utility.yul\":4785:5096   */\n      swap2\n      swap1\n      pop\n      jump\t// out\n        /* \"#utility.yul\":5102:5410   */\n    tag_60:\n        /* \"#utility.yul\":5164:5168   */\n      0x00\n        /* \"#utility.yul\":5254:5272   */\n      0xffffffffffffffff\n        /* \"#utility.yul\":5246:5252   */\n      dup3\n        /* \"#utility.yul\":5243:5273   */\n      gt\n        /* \"#utility.yul\":5240:5296   */\n      iszero\n      tag_129\n      jumpi\n        /* \"#utility.yul\":5276:5294   */\n      tag_130\n      tag_127\n      jump\t// in\n    tag_130:\n        /* \"#utility.yul\":5240:5296   */\n    tag_129:\n        /* \"#utility.yul\":5314:5343   */\n      tag_131\n        /* \"#utility.yul\":5336:5342   */\n      dup3\n        /* \"#utility.yul\":5314:5343   */\n      tag_108\n      jump\t// in\n    tag_131:\n        /* \"#utility.yul\":5306:5343   */\n      swap1\n      pop\n        /* \"#utility.yul\":5398:5402   */\n      0x20\n        /* \"#utility.yul\":5392:5396   */\n      dup2\n        /* \"#utility.yul\":5388:5403   */\n      add\n        /* \"#utility.yul\":5380:5403   */\n      swap1\n      pop\n        /* \"#utility.yul\":5102:5410   */\n      swap2\n      swap1\n      pop\n      jump\t// out\n        /* \"#utility.yul\":5416:5515   */\n    tag_102:\n        /* \"#utility.yul\":5468:5474   */\n      0x00\n        /* \"#utility.yul\":5502:5507   */\n      dup2\n        /* \"#utility.yul\":5496:5508   */\n      mload\n        /* \"#utility.yul\":5486:5508   */\n      swap1\n      pop\n        /* \"#utility.yul\":5416:5515   */\n      swap2\n      swap1\n      pop\n      jump\t// out\n        /* \"#utility.yul\":5521:5690   */\n    tag_104:\n        /* \"#utility.yul\":5605:5616   */\n      0x00\n        /* \"#utility.yul\":5639:5645   */\n      dup3\n        /* \"#utility.yul\":5634:5637   */\n      dup3\n        /* \"#utility.yul\":5627:5646   */\n      mstore\n        /* \"#utility.yul\":5679:5683   */\n      0x20\n        /* \"#utility.yul\":5674:5677   */\n      dup3\n        /* \"#utility.yul\":5670:5684   */\n      add\n        /* \"#utility.yul\":5655:5684   */\n      swap1\n      pop\n        /* \"#utility.yul\":5521:5690   */\n      swap3\n      swap2\n      pop\n      pop\n      jump\t// out\n        /* \"#utility.yul\":5696:5792   */\n    tag_134:\n        /* \"#utility.yul\":5733:5740   */\n      0x00\n        /* \"#utility.yul\":5762:5786   */\n      tag_136\n        /* \"#utility.yul\":5780:5785   */\n      dup3\n        /* \"#utility.yul\":5762:5786   */\n      tag_137\n      jump\t// in\n    tag_136:\n        /* \"#utility.yul\":5751:5786   */\n      swap1\n      pop\n        /* \"#utility.yul\":5696:5792   */\n      swap2\n      swap1\n      pop\n      jump\t// out\n        /* \"#utility.yul\":5798:5924   */\n    tag_137:\n        /* \"#utility.yul\":5835:5842   */\n      0x00\n        /* \"#utility.yul\":5875:5917   */\n      0xffffffffffffffffffffffffffffffffffffffff\n        /* \"#utility.yul\":5868:5873   */\n      dup3\n        /* \"#utility.yul\":5864:5918   */\n      and\n        /* \"#utility.yul\":5853:5918   */\n      swap1\n      pop\n        /* \"#utility.yul\":5798:5924   */\n      swap2\n      swap1\n      pop\n      jump\t// out\n        /* \"#utility.yul\":5930:6007   */\n    tag_112:\n        /* \"#utility.yul\":5967:5974   */\n      0x00\n        /* \"#utility.yul\":5996:6001   */\n      dup2\n        /* \"#utility.yul\":5985:6001   */\n      swap1\n      pop\n        /* \"#utility.yul\":5930:6007   */\n      swap2\n      swap1\n      pop\n      jump\t// out\n        /* \"#utility.yul\":6013:6167   */\n    tag_65:\n        /* \"#utility.yul\":6097:6103   */\n      dup3\n        /* \"#utility.yul\":6092:6095   */\n      dup2\n        /* \"#utility.yul\":6087:6090   */\n      dup4\n        /* \"#utility.yul\":6074:6104   */\n      calldatacopy\n        /* \"#utility.yul\":6159:6160   */\n      0x00\n        /* \"#utility.yul\":6150:6156   */\n      dup4\n        /* \"#utility.yul\":6145:6148   */\n      dup4\n        /* \"#utility.yul\":6141:6157   */\n      add\n        /* \"#utility.yul\":6134:6161   */\n      mstore\n        /* \"#utility.yul\":6013:6167   */\n      pop\n      pop\n      pop\n      jump\t// out\n        /* \"#utility.yul\":6173:6480   */\n    tag_106:\n        /* \"#utility.yul\":6241:6242   */\n      0x00\n        /* \"#utility.yul\":6251:6364   */\n    tag_142:\n        /* \"#utility.yul\":6265:6271   */\n      dup4\n        /* \"#utility.yul\":6262:6263   */\n      dup2\n        /* \"#utility.yul\":6259:6272   */\n      lt\n        /* \"#utility.yul\":6251:6364   */\n      iszero\n      tag_144\n      jumpi\n        /* \"#utility.yul\":6350:6351   */\n      dup1\n        /* \"#utility.yul\":6345:6348   */\n      dup3\n        /* \"#utility.yul\":6341:6352   */\n      add\n        /* \"#utility.yul\":6335:6353   */\n      mload\n        /* \"#utility.yul\":6331:6332   */\n      dup2\n        /* \"#utility.yul\":6326:6329   */\n      dup5\n        /* \"#utility.yul\":6322:6333   */\n      add\n        /* \"#utility.yul\":6315:6354   */\n      mstore\n        /* \"#utility.yul\":6287:6289   */\n      0x20\n        /* \"#utility.yul\":6284:6285   */\n      dup2\n        /* \"#utility.yul\":6280:6290   */\n      add\n        /* \"#utility.yul\":6275:6290   */\n      swap1\n      pop\n        /* \"#utility.yul\":6251:6364   */\n      jump(tag_142)\n    tag_144:\n        /* \"#utility.yul\":6382:6388   */\n      dup4\n        /* \"#utility.yul\":6379:6380   */\n      dup2\n        /* \"#utility.yul\":6376:6389   */\n      gt\n        /* \"#utility.yul\":6373:6474   */\n      iszero\n      tag_145\n      jumpi\n        /* \"#utility.yul\":6462:6463   */\n      0x00\n        /* \"#utility.yul\":6453:6459   */\n      dup5\n        /* \"#utility.yul\":6448:6451   */\n      dup5\n        /* \"#utility.yul\":6444:6460   */\n      add\n        /* \"#utility.yul\":6437:6464   */\n      mstore\n        /* \"#utility.yul\":6373:6474   */\n    tag_145:\n        /* \"#utility.yul\":6222:6480   */\n      pop\n        /* \"#utility.yul\":6173:6480   */\n      pop\n      pop\n      pop\n      jump\t// out\n        /* \"#utility.yul\":6486:6806   */\n    tag_21:\n        /* \"#utility.yul\":6530:6536   */\n      0x00\n        /* \"#utility.yul\":6567:6568   */\n      0x02\n        /* \"#utility.yul\":6561:6565   */\n      dup3\n        /* \"#utility.yul\":6557:6569   */\n      div\n        /* \"#utility.yul\":6547:6569   */\n      swap1\n      pop\n        /* \"#utility.yul\":6614:6615   */\n      0x01\n        /* \"#utility.yul\":6608:6612   */\n      dup3\n        /* \"#utility.yul\":6604:6616   */\n      and\n        /* \"#utility.yul\":6635:6653   */\n      dup1\n        /* \"#utility.yul\":6625:6706   */\n      tag_147\n      jumpi\n        /* \"#utility.yul\":6691:6695   */\n      0x7f\n        /* \"#utility.yul\":6683:6689   */\n      dup3\n        /* \"#utility.yul\":6679:6696   */\n      and\n        /* \"#utility.yul\":6669:6696   */\n      swap2\n      pop\n        /* \"#utility.yul\":6625:6706   */\n    tag_147:\n        /* \"#utility.yul\":6753:6755   */\n      0x20\n        /* \"#utility.yul\":6745:6751   */\n      dup3\n        /* \"#utility.yul\":6742:6756   */\n      lt\n        /* \"#utility.yul\":6722:6740   */\n      dup2\n        /* \"#utility.yul\":6719:6757   */\n      eq\n        /* \"#utility.yul\":6716:6800   */\n      iszero\n      tag_148\n      jumpi\n        /* \"#utility.yul\":6772:6790   */\n      tag_149\n      tag_150\n      jump\t// in\n    tag_149:\n        /* \"#utility.yul\":6716:6800   */\n    tag_148:\n        /* \"#utility.yul\":6537:6806   */\n      pop\n        /* \"#utility.yul\":6486:6806   */\n      swap2\n      swap1\n      pop\n      jump\t// out\n        /* \"#utility.yul\":6812:7093   */\n    tag_122:\n        /* \"#utility.yul\":6895:6922   */\n      tag_152\n        /* \"#utility.yul\":6917:6921   */\n      dup3\n        /* \"#utility.yul\":6895:6922   */\n      tag_108\n      jump\t// in\n    tag_152:\n        /* \"#utility.yul\":6887:6893   */\n      dup2\n        /* \"#utility.yul\":6883:6923   */\n      add\n        /* \"#utility.yul\":7025:7031   */\n      dup2\n        /* \"#utility.yul\":7013:7023   */\n      dup2\n        /* \"#utility.yul\":7010:7032   */\n      lt\n        /* \"#utility.yul\":6989:7007   */\n      0xffffffffffffffff\n        /* \"#utility.yul\":6977:6987   */\n      dup3\n        /* \"#utility.yul\":6974:7008   */\n      gt\n        /* \"#utility.yul\":6971:7033   */\n      or\n        /* \"#utility.yul\":6968:7056   */\n      iszero\n      tag_153\n      jumpi\n        /* \"#utility.yul\":7036:7054   */\n      tag_154\n      tag_127\n      jump\t// in\n    tag_154:\n        /* \"#utility.yul\":6968:7056   */\n    tag_153:\n        /* \"#utility.yul\":7076:7086   */\n      dup1\n        /* \"#utility.yul\":7072:7074   */\n      0x40\n        /* \"#utility.yul\":7065:7087   */\n      mstore\n        /* \"#utility.yul\":6855:7093   */\n      pop\n        /* \"#utility.yul\":6812:7093   */\n      pop\n      pop\n      jump\t// out\n        /* \"#utility.yul\":7099:7279   */\n    tag_150:\n        /* \"#utility.yul\":7147:7224   */\n      0x4e487b7100000000000000000000000000000000000000000000000000000000\n        /* \"#utility.yul\":7144:7145   */\n      0x00\n        /* \"#utility.yul\":7137:7225   */\n      mstore\n        /* \"#utility.yul\":7244:7248   */\n      0x22\n        /* \"#utility.yul\":7241:7242   */\n      0x04\n        /* \"#utility.yul\":7234:7249   */\n      mstore\n        /* \"#utility.yul\":7268:7272   */\n      0x24\n        /* \"#utility.yul\":7265:7266   */\n      0x00\n        /* \"#utility.yul\":7258:7273   */\n      revert\n        /* \"#utility.yul\":7285:7465   */\n    tag_127:\n        /* \"#utility.yul\":7333:7410   */\n      0x4e487b7100000000000000000000000000000000000000000000000000000000\n        /* \"#utility.yul\":7330:7331   */\n      0x00\n        /* \"#utility.yul\":7323:7411   */\n      mstore\n        /* \"#utility.yul\":7430:7434   */\n      0x41\n        /* \"#utility.yul\":7427:7428   */\n      0x04\n        /* \"#utility.yul\":7420:7435   */\n      mstore\n        /* \"#utility.yul\":7454:7458   */\n      0x24\n        /* \"#utility.yul\":7451:7452   */\n      0x00\n        /* \"#utility.yul\":7444:7459   */\n      revert\n        /* \"#utility.yul\":7471:7588   */\n    tag_74:\n        /* \"#utility.yul\":7580:7581   */\n      0x00\n        /* \"#utility.yul\":7577:7578   */\n      dup1\n        /* \"#utility.yul\":7570:7582   */\n      revert\n        /* \"#utility.yul\":7594:7711   */\n    tag_50:\n        /* \"#utility.yul\":7703:7704   */\n      0x00\n        /* \"#utility.yul\":7700:7701   */\n      dup1\n        /* \"#utility.yul\":7693:7705   */\n      revert\n        /* \"#utility.yul\":7717:7834   */\n    tag_63:\n        /* \"#utility.yul\":7826:7827   */\n      0x00\n        /* \"#utility.yul\":7823:7824   */\n      dup1\n        /* \"#utility.yul\":7816:7828   */\n      revert\n        /* \"#utility.yul\":7840:7957   */\n    tag_94:\n        /* \"#utility.yul\":7949:7950   */\n      0x00\n        /* \"#utility.yul\":7946:7947   */\n      dup1\n        /* \"#utility.yul\":7939:7951   */\n      revert\n        /* \"#utility.yul\":7963:8080   */\n    tag_87:\n        /* \"#utility.yul\":8072:8073   */\n      0x00\n        /* \"#utility.yul\":8069:8070   */\n      dup1\n        /* \"#utility.yul\":8062:8074   */\n      revert\n        /* \"#utility.yul\":8086:8188   */\n    tag_108:\n        /* \"#utility.yul\":8127:8133   */\n      0x00\n        /* \"#utility.yul\":8178:8180   */\n      0x1f\n        /* \"#utility.yul\":8174:8181   */\n      not\n        /* \"#utility.yul\":8169:8171   */\n      0x1f\n        /* \"#utility.yul\":8162:8167   */\n      dup4\n        /* \"#utility.yul\":8158:8172   */\n      add\n        /* \"#utility.yul\":8154:8182   */\n      and\n        /* \"#utility.yul\":8144:8182   */\n      swap1\n      pop\n        /* \"#utility.yul\":8086:8188   */\n      swap2\n      swap1\n      pop\n      jump\t// out\n        /* \"#utility.yul\":8194:8316   */\n    tag_69:\n        /* \"#utility.yul\":8267:8291   */\n      tag_164\n        /* \"#utility.yul\":8285:8290   */\n      dup2\n        /* \"#utility.yul\":8267:8291   */\n      tag_134\n      jump\t// in\n    tag_164:\n        /* \"#utility.yul\":8260:8265   */\n      dup2\n        /* \"#utility.yul\":8257:8292   */\n      eq\n        /* \"#utility.yul\":8247:8310   */\n      tag_165\n      jumpi\n        /* \"#utility.yul\":8306:8307   */\n      0x00\n        /* \"#utility.yul\":8303:8304   */\n      dup1\n        /* \"#utility.yul\":8296:8308   */\n      revert\n        /* \"#utility.yul\":8247:8310   */\n    tag_165:\n        /* \"#utility.yul\":8194:8316   */\n      pop\n      jump\t// out\n        /* \"#utility.yul\":8322:8444   */\n    tag_83:\n        /* \"#utility.yul\":8395:8419   */\n      tag_167\n        /* \"#utility.yul\":8413:8418   */\n      dup2\n        /* \"#utility.yul\":8395:8419   */\n      tag_112\n      jump\t// in\n    tag_167:\n        /* \"#utility.yul\":8388:8393   */\n      dup2\n        /* \"#utility.yul\":8385:8420   */\n      eq\n        /* \"#utility.yul\":8375:8438   */\n      tag_168\n      jumpi\n        /* \"#utility.yul\":8434:8435   */\n      0x00\n        /* \"#utility.yul\":8431:8432   */\n      dup1\n        /* \"#utility.yul\":8424:8436   */\n      revert\n        /* \"#utility.yul\":8375:8438   */\n    tag_168:\n        /* \"#utility.yul\":8322:8444   */\n      pop\n      jump\t// out\n\n    auxdata: 0xa26469706673582212208555d9f260978a314f6da6e2194e5f09c15c01371be61754ecfb1c7bed92849a64736f6c63430008070033\n}\n",
				"bytecode": {
					"linkReferences": {},
					"object": "608060405234801561001057600080fd5b506108c5806100206000396000f3fe608060405234801561001057600080fd5b50600436106100365760003560e01c80639837ae1a1461003b578063b43c5d331461006b575b600080fd5b6100556004803603810190610050919061054f565b61009c565b604051610062919061060f565b60405180910390f35b61008560048036038101906100809190610522565b61029b565b60405161009392919061062a565b60405180910390f35b60006040518060400160405280607b81526020016040518060400160405280600281526020017f77700000000000000000000000000000000000000000000000000000000000008152508152506000803373ffffffffffffffffffffffffffffffffffffffff1673ffffffffffffffffffffffffffffffffffffffff16815260200190815260200160002060008201518160000155602082015181600101908051906020019061014d929190610347565b5090505060008060003373ffffffffffffffffffffffffffffffffffffffff1673ffffffffffffffffffffffffffffffffffffffff1681526020019081526020016000209050610237816000018190555060008060003373ffffffffffffffffffffffffffffffffffffffff1673ffffffffffffffffffffffffffffffffffffffff1681526020019081526020016000206040518060400160405290816000820154815260200160018201805461020390610776565b80601f016020809104026020016040519081016040528092919081815260200182805461022f90610776565b801561027c5780601f106102515761010080835404028352916020019161027c565b820191906000526020600020905b81548152906001019060200180831161025f57829003601f168201915b505050505081525050905061037a816000018181525050505092915050565b60006020528060005260406000206000915090508060000154908060010180546102c490610776565b80601f01602080910402602001604051908101604052809291908181526020018280546102f090610776565b801561033d5780601f106103125761010080835404028352916020019161033d565b820191906000526020600020905b81548152906001019060200180831161032057829003601f168201915b5050505050905082565b82805461035390610776565b90600052602060002090601f01602090048101928261037557600085556103bc565b82601f1061038e57805160ff19168380011785556103bc565b828001600101855582156103bc579182015b828111156103bb5782518255916020019190600101906103a0565b5b5090506103c991906103cd565b5090565b5b808211156103e65760008160009055506001016103ce565b5090565b60006103fd6103f88461067f565b61065a565b905080838252602082019050828560208602820111156104205761041f61083c565b5b60005b858110156104505781610436888261050d565b845260208401935060208301925050600181019050610423565b5050509392505050565b600061046d610468846106ab565b61065a565b90508281526020810184848401111561048957610488610841565b5b610494848285610734565b509392505050565b6000813590506104ab81610861565b92915050565b600082601f8301126104c6576104c5610837565b5b81356104d68482602086016103ea565b91505092915050565b600082601f8301126104f4576104f3610837565b5b813561050484826020860161045a565b91505092915050565b60008135905061051c81610878565b92915050565b6000602082840312156105385761053761084b565b5b60006105468482850161049c565b91505092915050565b600080604083850312156105665761056561084b565b5b600083013567ffffffffffffffff81111561058457610583610846565b5b610590858286016104b1565b925050602083013567ffffffffffffffff8111156105b1576105b0610846565b5b6105bd858286016104df565b9150509250929050565b60006105d2826106dc565b6105dc81856106e7565b93506105ec818560208601610743565b6105f581610850565b840191505092915050565b6106098161072a565b82525050565b60006020820190506106246000830184610600565b92915050565b600060408201905061063f6000830185610600565b818103602083015261065181846105c7565b90509392505050565b6000610664610675565b905061067082826107a8565b919050565b6000604051905090565b600067ffffffffffffffff82111561069a57610699610808565b5b602082029050602081019050919050565b600067ffffffffffffffff8211156106c6576106c5610808565b5b6106cf82610850565b9050602081019050919050565b600081519050919050565b600082825260208201905092915050565b60006107038261070a565b9050919050565b600073ffffffffffffffffffffffffffffffffffffffff82169050919050565b6000819050919050565b82818337600083830152505050565b60005b83811015610761578082015181840152602081019050610746565b83811115610770576000848401525b50505050565b6000600282049050600182168061078e57607f821691505b602082108114156107a2576107a16107d9565b5b50919050565b6107b182610850565b810181811067ffffffffffffffff821117156107d0576107cf610808565b5b80604052505050565b7f4e487b7100000000000000000000000000000000000000000000000000000000600052602260045260246000fd5b7f4e487b7100000000000000000000000000000000000000000000000000000000600052604160045260246000fd5b600080fd5b600080fd5b600080fd5b600080fd5b600080fd5b6000601f19601f8301169050919050565b61086a816106f8565b811461087557600080fd5b50565b6108818161072a565b811461088c57600080fd5b5056fea26469706673582212208555d9f260978a314f6da6e2194e5f09c15c01371be61754ecfb1c7bed92849a64736f6c63430008070033",
					"opcodes": "PUSH1 0x80 PUSH1 0x40 MSTORE CALLVALUE DUP1 ISZERO PUSH2 0x10 JUMPI PUSH1 0x0 DUP1 REVERT JUMPDEST POP PUSH2 0x8C5 DUP1 PUSH2 0x20 PUSH1 0x0 CODECOPY PUSH1 0x0 RETURN INVALID PUSH1 0x80 PUSH1 0x40 MSTORE CALLVALUE DUP1 ISZERO PUSH2 0x10 JUMPI PUSH1 0x0 DUP1 REVERT JUMPDEST POP PUSH1 0x4 CALLDATASIZE LT PUSH2 0x36 JUMPI PUSH1 0x0 CALLDATALOAD PUSH1 0xE0 SHR DUP1 PUSH4 0x9837AE1A EQ PUSH2 0x3B JUMPI DUP1 PUSH4 0xB43C5D33 EQ PUSH2 0x6B JUMPI JUMPDEST PUSH1 0x0 DUP1 REVERT JUMPDEST PUSH2 0x55 PUSH1 0x4 DUP1 CALLDATASIZE SUB DUP2 ADD SWAP1 PUSH2 0x50 SWAP2 SWAP1 PUSH2 0x54F JUMP JUMPDEST PUSH2 0x9C JUMP JUMPDEST PUSH1 0x40 MLOAD PUSH2 0x62 SWAP2 SWAP1 PUSH2 0x60F JUMP JUMPDEST PUSH1 0x40 MLOAD DUP1 SWAP2 SUB SWAP1 RETURN JUMPDEST PUSH2 0x85 PUSH1 0x4 DUP1 CALLDATASIZE SUB DUP2 ADD SWAP1 PUSH2 0x80 SWAP2 SWAP1 PUSH2 0x522 JUMP JUMPDEST PUSH2 0x29B JUMP JUMPDEST PUSH1 0x40 MLOAD PUSH2 0x93 SWAP3 SWAP2 SWAP1 PUSH2 0x62A JUMP JUMPDEST PUSH1 0x40 MLOAD DUP1 SWAP2 SUB SWAP1 RETURN JUMPDEST PUSH1 0x0 PUSH1 0x40 MLOAD DUP1 PUSH1 0x40 ADD PUSH1 0x40 MSTORE DUP1 PUSH1 0x7B DUP2 MSTORE PUSH1 0x20 ADD PUSH1 0x40 MLOAD DUP1 PUSH1 0x40 ADD PUSH1 0x40 MSTORE DUP1 PUSH1 0x2 DUP2 MSTORE PUSH1 0x20 ADD PUSH32 0x7770000000000000000000000000000000000000000000000000000000000000 DUP2 MSTORE POP DUP2 MSTORE POP PUSH1 0x0 DUP1 CALLER PUSH20 0xFFFFFFFFFFFFFFFFFFFFFFFFFFFFFFFFFFFFFFFF AND PUSH20 0xFFFFFFFFFFFFFFFFFFFFFFFFFFFFFFFFFFFFFFFF AND DUP2 MSTORE PUSH1 0x20 ADD SWAP1 DUP2 MSTORE PUSH1 0x20 ADD PUSH1 0x0 KECCAK256 PUSH1 0x0 DUP3 ADD MLOAD DUP2 PUSH1 0x0 ADD SSTORE PUSH1 0x20 DUP3 ADD MLOAD DUP2 PUSH1 0x1 ADD SWAP1 DUP1 MLOAD SWAP1 PUSH1 0x20 ADD SWAP1 PUSH2 0x14D SWAP3 SWAP2 SWAP1 PUSH2 0x347 JUMP JUMPDEST POP SWAP1 POP POP PUSH1 0x0 DUP1 PUSH1 0x0 CALLER PUSH20 0xFFFFFFFFFFFFFFFFFFFFFFFFFFFFFFFFFFFFFFFF AND PUSH20 0xFFFFFFFFFFFFFFFFFFFFFFFFFFFFFFFFFFFFFFFF AND DUP2 MSTORE PUSH1 0x20 ADD SWAP1 DUP2 MSTORE PUSH1 0x20 ADD PUSH1 0x0 KECCAK256 SWAP1 POP PUSH2 0x237 DUP2 PUSH1 0x0 ADD DUP2 SWAP1 SSTORE POP PUSH1 0x0 DUP1 PUSH1 0x0 CALLER PUSH20 0xFFFFFFFFFFFFFFFFFFFFFFFFFFFFFFFFFFFFFFFF AND PUSH20 0xFFFFFFFFFFFFFFFFFFFFFFFFFFFFFFFFFFFFFFFF AND DUP2 MSTORE PUSH1 0x20 ADD SWAP1 DUP2 MSTORE PUSH1 0x20 ADD PUSH1 0x0 KECCAK256 PUSH1 0x40 MLOAD DUP1 PUSH1 0x40 ADD PUSH1 0x40 MSTORE SWAP1 DUP2 PUSH1 0x0 DUP3 ADD SLOAD DUP2 MSTORE PUSH1 0x20 ADD PUSH1 0x1 DUP3 ADD DUP1 SLOAD PUSH2 0x203 SWAP1 PUSH2 0x776 JUMP JUMPDEST DUP1 PUSH1 0x1F ADD PUSH1 0x20 DUP1 SWAP2 DIV MUL PUSH1 0x20 ADD PUSH1 0x40 MLOAD SWAP1 DUP2 ADD PUSH1 0x40 MSTORE DUP1 SWAP3 SWAP2 SWAP1 DUP2 DUP2 MSTORE PUSH1 0x20 ADD DUP3 DUP1 SLOAD PUSH2 0x22F SWAP1 PUSH2 0x776 JUMP JUMPDEST DUP1 ISZERO PUSH2 0x27C JUMPI DUP1 PUSH1 0x1F LT PUSH2 0x251 JUMPI PUSH2 0x100 DUP1 DUP4 SLOAD DIV MUL DUP4 MSTORE SWAP2 PUSH1 0x20 ADD SWAP2 PUSH2 0x27C JUMP JUMPDEST DUP3 ADD SWAP2 SWAP1 PUSH1 0x0 MSTORE PUSH1 0x20 PUSH1 0x0 KECCAK256 SWAP1 JUMPDEST DUP2 SLOAD DUP2 MSTORE SWAP1 PUSH1 0x1 ADD SWAP1 PUSH1 0x20 ADD DUP1 DUP4 GT PUSH2 0x25F JUMPI DUP3 SWAP1 SUB PUSH1 0x1F AND DUP3 ADD SWAP2 JUMPDEST POP POP POP POP POP DUP2 MSTORE POP POP SWAP1 POP PUSH2 0x37A DUP2 PUSH1 0x0 ADD DUP2 DUP2 MSTORE POP POP POP POP SWAP3 SWAP2 POP POP JUMP JUMPDEST PUSH1 0x0 PUSH1 0x20 MSTORE DUP1 PUSH1 0x0 MSTORE PUSH1 0x40 PUSH1 0x0 KECCAK256 PUSH1 0x0 SWAP2 POP SWAP1 POP DUP1 PUSH1 0x0 ADD SLOAD SWAP1 DUP1 PUSH1 0x1 ADD DUP1 SLOAD PUSH2 0x2C4 SWAP1 PUSH2 0x776 JUMP JUMPDEST DUP1 PUSH1 0x1F ADD PUSH1 0x20 DUP1 SWAP2 DIV MUL PUSH1 0x20 ADD PUSH1 0x40 MLOAD SWAP1 DUP2 ADD PUSH1 0x40 MSTORE DUP1 SWAP3 SWAP2 SWAP1 DUP2 DUP2 MSTORE PUSH1 0x20 ADD DUP3 DUP1 SLOAD PUSH2 0x2F0 SWAP1 PUSH2 0x776 JUMP JUMPDEST DUP1 ISZERO PUSH2 0x33D JUMPI DUP1 PUSH1 0x1F LT PUSH2 0x312 JUMPI PUSH2 0x100 DUP1 DUP4 SLOAD DIV MUL DUP4 MSTORE SWAP2 PUSH1 0x20 ADD SWAP2 PUSH2 0x33D JUMP JUMPDEST DUP3 ADD SWAP2 SWAP1 PUSH1 0x0 MSTORE PUSH1 0x20 PUSH1 0x0 KECCAK256 SWAP1 JUMPDEST DUP2 SLOAD DUP2 MSTORE SWAP1 PUSH1 0x1 ADD SWAP1 PUSH1 0x20 ADD DUP1 DUP4 GT PUSH2 0x320 JUMPI DUP3 SWAP1 SUB PUSH1 0x1F AND DUP3 ADD SWAP2 JUMPDEST POP POP POP POP POP SWAP1 POP DUP3 JUMP JUMPDEST DUP3 DUP1 SLOAD PUSH2 0x353 SWAP1 PUSH2 0x776 JUMP JUMPDEST SWAP1 PUSH1 0x0 MSTORE PUSH1 0x20 PUSH1 0x0 KECCAK256 SWAP1 PUSH1 0x1F ADD PUSH1 0x20 SWAP1 DIV DUP2 ADD SWAP3 DUP3 PUSH2 0x375 JUMPI PUSH1 0x0 DUP6 SSTORE PUSH2 0x3BC JUMP JUMPDEST DUP3 PUSH1 0x1F LT PUSH2 0x38E JUMPI DUP1 MLOAD PUSH1 0xFF NOT AND DUP4 DUP1 ADD OR DUP6 SSTORE PUSH2 0x3BC JUMP JUMPDEST DUP3 DUP1 ADD PUSH1 0x1 ADD DUP6 SSTORE DUP3 ISZERO PUSH2 0x3BC JUMPI SWAP2 DUP3 ADD JUMPDEST DUP3 DUP2 GT ISZERO PUSH2 0x3BB JUMPI DUP3 MLOAD DUP3 SSTORE SWAP2 PUSH1 0x20 ADD SWAP2 SWAP1 PUSH1 0x1 ADD SWAP1 PUSH2 0x3A0 JUMP JUMPDEST JUMPDEST POP SWAP1 POP PUSH2 0x3C9 SWAP2 SWAP1 PUSH2 0x3CD JUMP JUMPDEST POP SWAP1 JUMP JUMPDEST JUMPDEST DUP1 DUP3 GT ISZERO PUSH2 0x3E6 JUMPI PUSH1 0x0 DUP2 PUSH1 0x0 SWAP1 SSTORE POP PUSH1 0x1 ADD PUSH2 0x3CE JUMP JUMPDEST POP SWAP1 JUMP JUMPDEST PUSH1 0x0 PUSH2 0x3FD PUSH2 0x3F8 DUP5 PUSH2 0x67F JUMP JUMPDEST PUSH2 0x65A JUMP JUMPDEST SWAP1 POP DUP1 DUP4 DUP3 MSTORE PUSH1 0x20 DUP3 ADD SWAP1 POP DUP3 DUP6 PUSH1 0x20 DUP7 MUL DUP3 ADD GT ISZERO PUSH2 0x420 JUMPI PUSH2 0x41F PUSH2 0x83C JUMP JUMPDEST JUMPDEST PUSH1 0x0 JUMPDEST DUP6 DUP2 LT ISZERO PUSH2 0x450 JUMPI DUP2 PUSH2 0x436 DUP9 DUP3 PUSH2 0x50D JUMP JUMPDEST DUP5 MSTORE PUSH1 0x20 DUP5 ADD SWAP4 POP PUSH1 0x20 DUP4 ADD SWAP3 POP POP PUSH1 0x1 DUP2 ADD SWAP1 POP PUSH2 0x423 JUMP JUMPDEST POP POP POP SWAP4 SWAP3 POP POP POP JUMP JUMPDEST PUSH1 0x0 PUSH2 0x46D PUSH2 0x468 DUP5 PUSH2 0x6AB JUMP JUMPDEST PUSH2 0x65A JUMP JUMPDEST SWAP1 POP DUP3 DUP2 MSTORE PUSH1 0x20 DUP2 ADD DUP5 DUP5 DUP5 ADD GT ISZERO PUSH2 0x489 JUMPI PUSH2 0x488 PUSH2 0x841 JUMP JUMPDEST JUMPDEST PUSH2 0x494 DUP5 DUP3 DUP6 PUSH2 0x734 JUMP JUMPDEST POP SWAP4 SWAP3 POP POP POP JUMP JUMPDEST PUSH1 0x0 DUP2 CALLDATALOAD SWAP1 POP PUSH2 0x4AB DUP2 PUSH2 0x861 JUMP JUMPDEST SWAP3 SWAP2 POP POP JUMP JUMPDEST PUSH1 0x0 DUP3 PUSH1 0x1F DUP4 ADD SLT PUSH2 0x4C6 JUMPI PUSH2 0x4C5 PUSH2 0x837 JUMP JUMPDEST JUMPDEST DUP2 CALLDATALOAD PUSH2 0x4D6 DUP5 DUP3 PUSH1 0x20 DUP7 ADD PUSH2 0x3EA JUMP JUMPDEST SWAP2 POP POP SWAP3 SWAP2 POP POP JUMP JUMPDEST PUSH1 0x0 DUP3 PUSH1 0x1F DUP4 ADD SLT PUSH2 0x4F4 JUMPI PUSH2 0x4F3 PUSH2 0x837 JUMP JUMPDEST JUMPDEST DUP2 CALLDATALOAD PUSH2 0x504 DUP5 DUP3 PUSH1 0x20 DUP7 ADD PUSH2 0x45A JUMP JUMPDEST SWAP2 POP POP SWAP3 SWAP2 POP POP JUMP JUMPDEST PUSH1 0x0 DUP2 CALLDATALOAD SWAP1 POP PUSH2 0x51C DUP2 PUSH2 0x878 JUMP JUMPDEST SWAP3 SWAP2 POP POP JUMP JUMPDEST PUSH1 0x0 PUSH1 0x20 DUP3 DUP5 SUB SLT ISZERO PUSH2 0x538 JUMPI PUSH2 0x537 PUSH2 0x84B JUMP JUMPDEST JUMPDEST PUSH1 0x0 PUSH2 0x546 DUP5 DUP3 DUP6 ADD PUSH2 0x49C JUMP JUMPDEST SWAP2 POP POP SWAP3 SWAP2 POP POP JUMP JUMPDEST PUSH1 0x0 DUP1 PUSH1 0x40 DUP4 DUP6 SUB SLT ISZERO PUSH2 0x566 JUMPI PUSH2 0x565 PUSH2 0x84B JUMP JUMPDEST JUMPDEST PUSH1 0x0 DUP4 ADD CALLDATALOAD PUSH8 0xFFFFFFFFFFFFFFFF DUP2 GT ISZERO PUSH2 0x584 JUMPI PUSH2 0x583 PUSH2 0x846 JUMP JUMPDEST JUMPDEST PUSH2 0x590 DUP6 DUP3 DUP7 ADD PUSH2 0x4B1 JUMP JUMPDEST SWAP3 POP POP PUSH1 0x20 DUP4 ADD CALLDATALOAD PUSH8 0xFFFFFFFFFFFFFFFF DUP2 GT ISZERO PUSH2 0x5B1 JUMPI PUSH2 0x5B0 PUSH2 0x846 JUMP JUMPDEST JUMPDEST PUSH2 0x5BD DUP6 DUP3 DUP7 ADD PUSH2 0x4DF JUMP JUMPDEST SWAP2 POP POP SWAP3 POP SWAP3 SWAP1 POP JUMP JUMPDEST PUSH1 0x0 PUSH2 0x5D2 DUP3 PUSH2 0x6DC JUMP JUMPDEST PUSH2 0x5DC DUP2 DUP6 PUSH2 0x6E7 JUMP JUMPDEST SWAP4 POP PUSH2 0x5EC DUP2 DUP6 PUSH1 0x20 DUP7 ADD PUSH2 0x743 JUMP JUMPDEST PUSH2 0x5F5 DUP2 PUSH2 0x850 JUMP JUMPDEST DUP5 ADD SWAP2 POP POP SWAP3 SWAP2 POP POP JUMP JUMPDEST PUSH2 0x609 DUP2 PUSH2 0x72A JUMP JUMPDEST DUP3 MSTORE POP POP JUMP JUMPDEST PUSH1 0x0 PUSH1 0x20 DUP3 ADD SWAP1 POP PUSH2 0x624 PUSH1 0x0 DUP4 ADD DUP5 PUSH2 0x600 JUMP JUMPDEST SWAP3 SWAP2 POP POP JUMP JUMPDEST PUSH1 0x0 PUSH1 0x40 DUP3 ADD SWAP1 POP PUSH2 0x63F PUSH1 0x0 DUP4 ADD DUP6 PUSH2 0x600 JUMP JUMPDEST DUP2 DUP2 SUB PUSH1 0x20 DUP4 ADD MSTORE PUSH2 0x651 DUP2 DUP5 PUSH2 0x5C7 JUMP JUMPDEST SWAP1 POP SWAP4 SWAP3 POP POP POP JUMP JUMPDEST PUSH1 0x0 PUSH2 0x664 PUSH2 0x675 JUMP JUMPDEST SWAP1 POP PUSH2 0x670 DUP3 DUP3 PUSH2 0x7A8 JUMP JUMPDEST SWAP2 SWAP1 POP JUMP JUMPDEST PUSH1 0x0 PUSH1 0x40 MLOAD SWAP1 POP SWAP1 JUMP JUMPDEST PUSH1 0x0 PUSH8 0xFFFFFFFFFFFFFFFF DUP3 GT ISZERO PUSH2 0x69A JUMPI PUSH2 0x699 PUSH2 0x808 JUMP JUMPDEST JUMPDEST PUSH1 0x20 DUP3 MUL SWAP1 POP PUSH1 0x20 DUP2 ADD SWAP1 POP SWAP2 SWAP1 POP JUMP JUMPDEST PUSH1 0x0 PUSH8 0xFFFFFFFFFFFFFFFF DUP3 GT ISZERO PUSH2 0x6C6 JUMPI PUSH2 0x6C5 PUSH2 0x808 JUMP JUMPDEST JUMPDEST PUSH2 0x6CF DUP3 PUSH2 0x850 JUMP JUMPDEST SWAP1 POP PUSH1 0x20 DUP2 ADD SWAP1 POP SWAP2 SWAP1 POP JUMP JUMPDEST PUSH1 0x0 DUP2 MLOAD SWAP1 POP SWAP2 SWAP1 POP JUMP JUMPDEST PUSH1 0x0 DUP3 DUP3 MSTORE PUSH1 0x20 DUP3 ADD SWAP1 POP SWAP3 SWAP2 POP POP JUMP JUMPDEST PUSH1 0x0 PUSH2 0x703 DUP3 PUSH2 0x70A JUMP JUMPDEST SWAP1 POP SWAP2 SWAP1 POP JUMP JUMPDEST PUSH1 0x0 PUSH20 0xFFFFFFFFFFFFFFFFFFFFFFFFFFFFFFFFFFFFFFFF DUP3 AND SWAP1 POP SWAP2 SWAP1 POP JUMP JUMPDEST PUSH1 0x0 DUP2 SWAP1 POP SWAP2 SWAP1 POP JUMP JUMPDEST DUP3 DUP2 DUP4 CALLDATACOPY PUSH1 0x0 DUP4 DUP4 ADD MSTORE POP POP POP JUMP JUMPDEST PUSH1 0x0 JUMPDEST DUP4 DUP2 LT ISZERO PUSH2 0x761 JUMPI DUP1 DUP3 ADD MLOAD DUP2 DUP5 ADD MSTORE PUSH1 0x20 DUP2 ADD SWAP1 POP PUSH2 0x746 JUMP JUMPDEST DUP4 DUP2 GT ISZERO PUSH2 0x770 JUMPI PUSH1 0x0 DUP5 DUP5 ADD MSTORE JUMPDEST POP POP POP POP JUMP JUMPDEST PUSH1 0x0 PUSH1 0x2 DUP3 DIV SWAP1 POP PUSH1 0x1 DUP3 AND DUP1 PUSH2 0x78E JUMPI PUSH1 0x7F DUP3 AND SWAP2 POP JUMPDEST PUSH1 0x20 DUP3 LT DUP2 EQ ISZERO PUSH2 0x7A2 JUMPI PUSH2 0x7A1 PUSH2 0x7D9 JUMP JUMPDEST JUMPDEST POP SWAP2 SWAP1 POP JUMP JUMPDEST PUSH2 0x7B1 DUP3 PUSH2 0x850 JUMP JUMPDEST DUP2 ADD DUP2 DUP2 LT PUSH8 0xFFFFFFFFFFFFFFFF DUP3 GT OR ISZERO PUSH2 0x7D0 JUMPI PUSH2 0x7CF PUSH2 0x808 JUMP JUMPDEST JUMPDEST DUP1 PUSH1 0x40 MSTORE POP POP POP JUMP JUMPDEST PUSH32 0x4E487B7100000000000000000000000000000000000000000000000000000000 PUSH1 0x0 MSTORE PUSH1 0x22 PUSH1 0x4 MSTORE PUSH1 0x24 PUSH1 0x0 REVERT JUMPDEST PUSH32 0x4E487B7100000000000000000000000000000000000000000000000000000000 PUSH1 0x0 MSTORE PUSH1 0x41 PUSH1 0x4 MSTORE PUSH1 0x24 PUSH1 0x0 REVERT JUMPDEST PUSH1 0x0 DUP1 REVERT JUMPDEST PUSH1 0x0 DUP1 REVERT JUMPDEST PUSH1 0x0 DUP1 REVERT JUMPDEST PUSH1 0x0 DUP1 REVERT JUMPDEST PUSH1 0x0 DUP1 REVERT JUMPDEST PUSH1 0x0 PUSH1 0x1F NOT PUSH1 0x1F DUP4 ADD AND SWAP1 POP SWAP2 SWAP1 POP JUMP JUMPDEST PUSH2 0x86A DUP2 PUSH2 0x6F8 JUMP JUMPDEST DUP2 EQ PUSH2 0x875 JUMPI PUSH1 0x0 DUP1 REVERT JUMPDEST POP JUMP JUMPDEST PUSH2 0x881 DUP2 PUSH2 0x72A JUMP JUMPDEST DUP2 EQ PUSH2 0x88C JUMPI PUSH1 0x0 DUP1 REVERT JUMPDEST POP JUMP INVALID LOG2 PUSH5 0x6970667358 0x22 SLT KECCAK256 DUP6 SSTORE 0xD9 CALLCODE PUSH1 0x97 DUP11 BALANCE 0x4F PUSH14 0xA6E2194E5F09C15C01371BE61754 0xEC 0xFB SHR PUSH28 0xED92849A64736F6C6343000807003300000000000000000000000000 "
				},
				"gasEstimates": {
					"creation": {
						"codeDepositCost": "449000",
						"executionCost": "486",
						"totalCost": "449486"
					},
					"external": {
						"example(uint256[],string)": "infinite",
						"myStructs(address)": "infinite"
					}
				},
				"methodIdentifiers": {
					"example(uint256[],string)": "9837ae1a",
					"myStructs(address)": "b43c5d33"
				}
			},
			"storageLayout": {
				"storage": [
					{
						"astId": 11,
						"contract": "code1/9VariableModifier.sol:VM",
						"label": "myStructs",
						"offset": 0,
						"slot": "0",
						"type": "t_mapping(t_address,t_struct(MyStruct)6_storage)"
					}
				],
				"types": {
					"t_address": {
						"encoding": "inplace",
						"label": "address",
						"numberOfBytes": "20"
					},
					"t_mapping(t_address,t_struct(MyStruct)6_storage)": {
						"encoding": "mapping",
						"key": "t_address",
						"label": "mapping(address => struct VM.MyStruct)",
						"numberOfBytes": "32",
						"value": "t_struct(MyStruct)6_storage"
					},
					"t_string_storage": {
						"encoding": "bytes",
						"label": "string",
						"numberOfBytes": "32"
					},
					"t_struct(MyStruct)6_storage": {
						"encoding": "inplace",
						"label": "struct VM.MyStruct",
						"members": [
							{
								"astId": 3,
								"contract": "code1/9VariableModifier.sol:VM",
								"label": "foo",
								"offset": 0,
								"slot": "0",
								"type": "t_uint256"
							},
							{
								"astId": 5,
								"contract": "code1/9VariableModifier.sol:VM",
								"label": "text",
								"offset": 0,
								"slot": "1",
								"type": "t_string_storage"
							}
						],
						"numberOfBytes": "64"
					},
					"t_uint256": {
						"encoding": "inplace",
						"label": "uint256",
						"numberOfBytes": "32"
					}
				}
			},
			"userdoc": {
				"kind": "user",
				"methods": {},
				"version": 1
			}
		}
	}
}