{
	"chapter02/9type3.sol": {
		"type5": {
			"abi": [
				{
					"inputs": [
						{
							"internalType": "uint256",
							"name": "_param",
							"type": "uint256"
						}
					],
					"name": "mycal",
					"outputs": [
						{
							"internalType": "uint256",
							"name": "",
							"type": "uint256"
						}
					],
					"stateMutability": "view",
					"type": "function"
				}
			],
			"devdoc": {
				"kind": "dev",
				"methods": {},
				"version": 1
			},
			"evm": {
				"assembly": "    /* \"chapter02/9type3.sol\":1825:2062  contract type5{... */\n  mstore(0x40, 0x80)\n    /* \"chapter02/9type3.sol\":1887:1894  1000000 */\n  0x0f4240\n    /* \"chapter02/9type3.sol\":1877:1894  uint i1 = 1000000 */\n  0x00\n  sstore\n    /* \"chapter02/9type3.sol\":1825:2062  contract type5{... */\n  callvalue\n  dup1\n  iszero\n  tag_1\n  jumpi\n  0x00\n  dup1\n  revert\ntag_1:\n  pop\n  dataSize(sub_0)\n  dup1\n  dataOffset(sub_0)\n  0x00\n  codecopy\n  0x00\n  return\nstop\n\nsub_0: assembly {\n        /* \"chapter02/9type3.sol\":1825:2062  contract type5{... */\n      mstore(0x40, 0x80)\n      callvalue\n      dup1\n      iszero\n      tag_1\n      jumpi\n      0x00\n      dup1\n      revert\n    tag_1:\n      pop\n      jumpi(tag_2, lt(calldatasize, 0x04))\n      shr(0xe0, calldataload(0x00))\n      dup1\n      0x98cedaf5\n      eq\n      tag_3\n      jumpi\n    tag_2:\n      0x00\n      dup1\n      revert\n        /* \"chapter02/9type3.sol\":1900:1987  function mycal(uint _param)external view returns(uint){... */\n    tag_3:\n      tag_4\n      0x04\n      dup1\n      calldatasize\n      sub\n      dup2\n      add\n      swap1\n      tag_5\n      swap2\n      swap1\n      tag_6\n      jump\t// in\n    tag_5:\n      tag_7\n      jump\t// in\n    tag_4:\n      mload(0x40)\n      tag_8\n      swap2\n      swap1\n      tag_9\n      jump\t// in\n    tag_8:\n      mload(0x40)\n      dup1\n      swap2\n      sub\n      swap1\n      return\n    tag_7:\n        /* \"chapter02/9type3.sol\":1949:1953  uint */\n      0x00\n        /* \"chapter02/9type3.sol\":1974:1980  _param */\n      dup2\n        /* \"chapter02/9type3.sol\":1971:1973  i1 */\n      sload(0x00)\n        /* \"chapter02/9type3.sol\":1971:1980  i1/_param */\n      tag_11\n      swap2\n      swap1\n      tag_12\n      jump\t// in\n    tag_11:\n        /* \"chapter02/9type3.sol\":1964:1980  return i1/_param */\n      swap1\n      pop\n        /* \"chapter02/9type3.sol\":1900:1987  function mycal(uint _param)external view returns(uint){... */\n      swap2\n      swap1\n      pop\n      jump\t// out\n        /* \"#utility.yul\":88:205   */\n    tag_14:\n        /* \"#utility.yul\":197:198   */\n      0x00\n        /* \"#utility.yul\":194:195   */\n      dup1\n        /* \"#utility.yul\":187:199   */\n      revert\n        /* \"#utility.yul\":334:411   */\n    tag_16:\n        /* \"#utility.yul\":371:378   */\n      0x00\n        /* \"#utility.yul\":400:405   */\n      dup2\n        /* \"#utility.yul\":389:405   */\n      swap1\n      pop\n        /* \"#utility.yul\":334:411   */\n      swap2\n      swap1\n      pop\n      jump\t// out\n        /* \"#utility.yul\":417:539   */\n    tag_17:\n        /* \"#utility.yul\":490:514   */\n      tag_28\n        /* \"#utility.yul\":508:513   */\n      dup2\n        /* \"#utility.yul\":490:514   */\n      tag_16\n      jump\t// in\n    tag_28:\n        /* \"#utility.yul\":483:488   */\n      dup2\n        /* \"#utility.yul\":480:515   */\n      eq\n        /* \"#utility.yul\":470:533   */\n      tag_29\n      jumpi\n        /* \"#utility.yul\":529:530   */\n      0x00\n        /* \"#utility.yul\":526:527   */\n      dup1\n        /* \"#utility.yul\":519:531   */\n      revert\n        /* \"#utility.yul\":470:533   */\n    tag_29:\n        /* \"#utility.yul\":417:539   */\n      pop\n      jump\t// out\n        /* \"#utility.yul\":545:684   */\n    tag_18:\n        /* \"#utility.yul\":591:596   */\n      0x00\n        /* \"#utility.yul\":629:635   */\n      dup2\n        /* \"#utility.yul\":616:636   */\n      calldataload\n        /* \"#utility.yul\":607:636   */\n      swap1\n      pop\n        /* \"#utility.yul\":645:678   */\n      tag_31\n        /* \"#utility.yul\":672:677   */\n      dup2\n        /* \"#utility.yul\":645:678   */\n      tag_17\n      jump\t// in\n    tag_31:\n        /* \"#utility.yul\":545:684   */\n      swap3\n      swap2\n      pop\n      pop\n      jump\t// out\n        /* \"#utility.yul\":690:1019   */\n    tag_6:\n        /* \"#utility.yul\":749:755   */\n      0x00\n        /* \"#utility.yul\":798:800   */\n      0x20\n        /* \"#utility.yul\":786:795   */\n      dup3\n        /* \"#utility.yul\":777:784   */\n      dup5\n        /* \"#utility.yul\":773:796   */\n      sub\n        /* \"#utility.yul\":769:801   */\n      slt\n        /* \"#utility.yul\":766:885   */\n      iszero\n      tag_33\n      jumpi\n        /* \"#utility.yul\":804:883   */\n      tag_34\n      tag_14\n      jump\t// in\n    tag_34:\n        /* \"#utility.yul\":766:885   */\n    tag_33:\n        /* \"#utility.yul\":924:925   */\n      0x00\n        /* \"#utility.yul\":949:1002   */\n      tag_35\n        /* \"#utility.yul\":994:1001   */\n      dup5\n        /* \"#utility.yul\":985:991   */\n      dup3\n        /* \"#utility.yul\":974:983   */\n      dup6\n        /* \"#utility.yul\":970:992   */\n      add\n        /* \"#utility.yul\":949:1002   */\n      tag_18\n      jump\t// in\n    tag_35:\n        /* \"#utility.yul\":939:1002   */\n      swap2\n      pop\n        /* \"#utility.yul\":895:1012   */\n      pop\n        /* \"#utility.yul\":690:1019   */\n      swap3\n      swap2\n      pop\n      pop\n      jump\t// out\n        /* \"#utility.yul\":1025:1143   */\n    tag_19:\n        /* \"#utility.yul\":1112:1136   */\n      tag_37\n        /* \"#utility.yul\":1130:1135   */\n      dup2\n        /* \"#utility.yul\":1112:1136   */\n      tag_16\n      jump\t// in\n    tag_37:\n        /* \"#utility.yul\":1107:1110   */\n      dup3\n        /* \"#utility.yul\":1100:1137   */\n      mstore\n        /* \"#utility.yul\":1025:1143   */\n      pop\n      pop\n      jump\t// out\n        /* \"#utility.yul\":1149:1371   */\n    tag_9:\n        /* \"#utility.yul\":1242:1246   */\n      0x00\n        /* \"#utility.yul\":1280:1282   */\n      0x20\n        /* \"#utility.yul\":1269:1278   */\n      dup3\n        /* \"#utility.yul\":1265:1283   */\n      add\n        /* \"#utility.yul\":1257:1283   */\n      swap1\n      pop\n        /* \"#utility.yul\":1293:1364   */\n      tag_39\n        /* \"#utility.yul\":1361:1362   */\n      0x00\n        /* \"#utility.yul\":1350:1359   */\n      dup4\n        /* \"#utility.yul\":1346:1363   */\n      add\n        /* \"#utility.yul\":1337:1343   */\n      dup5\n        /* \"#utility.yul\":1293:1364   */\n      tag_19\n      jump\t// in\n    tag_39:\n        /* \"#utility.yul\":1149:1371   */\n      swap3\n      swap2\n      pop\n      pop\n      jump\t// out\n        /* \"#utility.yul\":1377:1557   */\n    tag_20:\n        /* \"#utility.yul\":1425:1502   */\n      0x4e487b7100000000000000000000000000000000000000000000000000000000\n        /* \"#utility.yul\":1422:1423   */\n      0x00\n        /* \"#utility.yul\":1415:1503   */\n      mstore\n        /* \"#utility.yul\":1522:1526   */\n      0x12\n        /* \"#utility.yul\":1519:1520   */\n      0x04\n        /* \"#utility.yul\":1512:1527   */\n      mstore\n        /* \"#utility.yul\":1546:1550   */\n      0x24\n        /* \"#utility.yul\":1543:1544   */\n      0x00\n        /* \"#utility.yul\":1536:1551   */\n      revert\n        /* \"#utility.yul\":1749:1934   */\n    tag_12:\n        /* \"#utility.yul\":1789:1790   */\n      0x00\n        /* \"#utility.yul\":1806:1826   */\n      tag_43\n        /* \"#utility.yul\":1824:1825   */\n      dup3\n        /* \"#utility.yul\":1806:1826   */\n      tag_16\n      jump\t// in\n    tag_43:\n        /* \"#utility.yul\":1801:1826   */\n      swap2\n      pop\n        /* \"#utility.yul\":1840:1860   */\n      tag_44\n        /* \"#utility.yul\":1858:1859   */\n      dup4\n        /* \"#utility.yul\":1840:1860   */\n      tag_16\n      jump\t// in\n    tag_44:\n        /* \"#utility.yul\":1835:1860   */\n      swap3\n      pop\n        /* \"#utility.yul\":1879:1880   */\n      dup3\n        /* \"#utility.yul\":1869:1904   */\n      tag_45\n      jumpi\n        /* \"#utility.yul\":1884:1902   */\n      tag_46\n      tag_20\n      jump\t// in\n    tag_46:\n        /* \"#utility.yul\":1869:1904   */\n    tag_45:\n        /* \"#utility.yul\":1926:1927   */\n      dup3\n        /* \"#utility.yul\":1923:1924   */\n      dup3\n        /* \"#utility.yul\":1919:1928   */\n      div\n        /* \"#utility.yul\":1914:1928   */\n      swap1\n      pop\n        /* \"#utility.yul\":1749:1934   */\n      swap3\n      swap2\n      pop\n      pop\n      jump\t// out\n\n    auxdata: 0xa2646970667358221220deeac0696fe59c5c15dbd1f7a2da9784305fda9cc4224952c693435ea95736b664736f6c634300080f0033\n}\n",
				"bytecode": {
					"linkReferences": {},
					"object": "6080604052620f424060005534801561001757600080fd5b5061019f806100276000396000f3fe608060405234801561001057600080fd5b506004361061002b5760003560e01c806398cedaf514610030575b600080fd5b61004a600480360381019061004591906100b2565b610060565b60405161005791906100ee565b60405180910390f35b6000816000546100709190610138565b9050919050565b600080fd5b6000819050919050565b61008f8161007c565b811461009a57600080fd5b50565b6000813590506100ac81610086565b92915050565b6000602082840312156100c8576100c7610077565b5b60006100d68482850161009d565b91505092915050565b6100e88161007c565b82525050565b600060208201905061010360008301846100df565b92915050565b7f4e487b7100000000000000000000000000000000000000000000000000000000600052601260045260246000fd5b60006101438261007c565b915061014e8361007c565b92508261015e5761015d610109565b5b82820490509291505056fea2646970667358221220deeac0696fe59c5c15dbd1f7a2da9784305fda9cc4224952c693435ea95736b664736f6c634300080f0033",
					"opcodes": "PUSH1 0x80 PUSH1 0x40 MSTORE PUSH3 0xF4240 PUSH1 0x0 SSTORE CALLVALUE DUP1 ISZERO PUSH2 0x17 JUMPI PUSH1 0x0 DUP1 REVERT JUMPDEST POP PUSH2 0x19F DUP1 PUSH2 0x27 PUSH1 0x0 CODECOPY PUSH1 0x0 RETURN INVALID PUSH1 0x80 PUSH1 0x40 MSTORE CALLVALUE DUP1 ISZERO PUSH2 0x10 JUMPI PUSH1 0x0 DUP1 REVERT JUMPDEST POP PUSH1 0x4 CALLDATASIZE LT PUSH2 0x2B JUMPI PUSH1 0x0 CALLDATALOAD PUSH1 0xE0 SHR DUP1 PUSH4 0x98CEDAF5 EQ PUSH2 0x30 JUMPI JUMPDEST PUSH1 0x0 DUP1 REVERT JUMPDEST PUSH2 0x4A PUSH1 0x4 DUP1 CALLDATASIZE SUB DUP2 ADD SWAP1 PUSH2 0x45 SWAP2 SWAP1 PUSH2 0xB2 JUMP JUMPDEST PUSH2 0x60 JUMP JUMPDEST PUSH1 0x40 MLOAD PUSH2 0x57 SWAP2 SWAP1 PUSH2 0xEE JUMP JUMPDEST PUSH1 0x40 MLOAD DUP1 SWAP2 SUB SWAP1 RETURN JUMPDEST PUSH1 0x0 DUP2 PUSH1 0x0 SLOAD PUSH2 0x70 SWAP2 SWAP1 PUSH2 0x138 JUMP JUMPDEST SWAP1 POP SWAP2 SWAP1 POP JUMP JUMPDEST PUSH1 0x0 DUP1 REVERT JUMPDEST PUSH1 0x0 DUP2 SWAP1 POP SWAP2 SWAP1 POP JUMP JUMPDEST PUSH2 0x8F DUP2 PUSH2 0x7C JUMP JUMPDEST DUP2 EQ PUSH2 0x9A JUMPI PUSH1 0x0 DUP1 REVERT JUMPDEST POP JUMP JUMPDEST PUSH1 0x0 DUP2 CALLDATALOAD SWAP1 POP PUSH2 0xAC DUP2 PUSH2 0x86 JUMP JUMPDEST SWAP3 SWAP2 POP POP JUMP JUMPDEST PUSH1 0x0 PUSH1 0x20 DUP3 DUP5 SUB SLT ISZERO PUSH2 0xC8 JUMPI PUSH2 0xC7 PUSH2 0x77 JUMP JUMPDEST JUMPDEST PUSH1 0x0 PUSH2 0xD6 DUP5 DUP3 DUP6 ADD PUSH2 0x9D JUMP JUMPDEST SWAP2 POP POP SWAP3 SWAP2 POP POP JUMP JUMPDEST PUSH2 0xE8 DUP2 PUSH2 0x7C JUMP JUMPDEST DUP3 MSTORE POP POP JUMP JUMPDEST PUSH1 0x0 PUSH1 0x20 DUP3 ADD SWAP1 POP PUSH2 0x103 PUSH1 0x0 DUP4 ADD DUP5 PUSH2 0xDF JUMP JUMPDEST SWAP3 SWAP2 POP POP JUMP JUMPDEST PUSH32 0x4E487B7100000000000000000000000000000000000000000000000000000000 PUSH1 0x0 MSTORE PUSH1 0x12 PUSH1 0x4 MSTORE PUSH1 0x24 PUSH1 0x0 REVERT JUMPDEST PUSH1 0x0 PUSH2 0x143 DUP3 PUSH2 0x7C JUMP JUMPDEST SWAP2 POP PUSH2 0x14E DUP4 PUSH2 0x7C JUMP JUMPDEST SWAP3 POP DUP3 PUSH2 0x15E JUMPI PUSH2 0x15D PUSH2 0x109 JUMP JUMPDEST JUMPDEST DUP3 DUP3 DIV SWAP1 POP SWAP3 SWAP2 POP POP JUMP INVALID LOG2 PUSH5 0x6970667358 0x22 SLT KECCAK256 0xDE 0xEA 0xC0 PUSH10 0x6FE59C5C15DBD1F7A2DA SWAP8 DUP5 ADDRESS 0x5F 0xDA SWAP13 0xC4 0x22 0x49 MSTORE 0xC6 SWAP4 NUMBER 0x5E 0xA9 JUMPI CALLDATASIZE 0xB6 PUSH5 0x736F6C6343 STOP ADDMOD 0xF STOP CALLER "
				},
				"gasEstimates": {
					"creation": {
						"codeDepositCost": "83000",
						"executionCost": "22235",
						"totalCost": "105235"
					},
					"external": {
						"mycal(uint256)": "infinite"
					}
				},
				"methodIdentifiers": {
					"mycal(uint256)": "98cedaf5"
				}
			},
			"storageLayout": {
				"storage": [
					{
						"astId": 147,
						"contract": "chapter02/9type3.sol:type5",
						"label": "i1",
						"offset": 0,
						"slot": "0",
						"type": "t_uint256"
					}
				],
				"types": {
					"t_uint256": {
						"encoding": "inplace",
						"label": "uint256",
						"numberOfBytes": "32"
					}
				}
			},
			"userdoc": {
				"kind": "user",
				"methods": {},
				"version": 1
			}
		}
	}
}