{
	"chapter02/9type3.sol": {
		"type10": {
			"abi": [
				{
					"inputs": [],
					"name": "a",
					"outputs": [
						{
							"internalType": "bytes1",
							"name": "",
							"type": "bytes1"
						}
					],
					"stateMutability": "view",
					"type": "function"
				},
				{
					"inputs": [],
					"name": "len",
					"outputs": [
						{
							"internalType": "uint256",
							"name": "",
							"type": "uint256"
						}
					],
					"stateMutability": "view",
					"type": "function"
				}
			],
			"devdoc": {
				"kind": "dev",
				"methods": {},
				"version": 1
			},
			"evm": {
				"assembly": "    /* \"chapter02/9type3.sol\":147:254  contract type10{... */\n  mstore(0x40, 0x80)\n    /* \"chapter02/9type3.sol\":185:189  0x11 */\n  0x11\n    /* \"chapter02/9type3.sol\":167:189  bytes1 public a = 0x11 */\n  0xf8\n  shl\n  0x00\n  dup1\n  0x0100\n  exp\n  dup2\n  sload\n  dup2\n  0xff\n  mul\n  not\n  and\n  swap1\n  dup4\n  0xf8\n  shr\n  mul\n  or\n  swap1\n  sstore\n  pop\n    /* \"chapter02/9type3.sol\":242:243  a */\n  0x00\n  dup1\n  sload\n  swap1\n  0x0100\n  exp\n  swap1\n  pop\n  pop\n    /* \"chapter02/9type3.sol\":242:250  a.length */\n  0x01\n    /* \"chapter02/9type3.sol\":223:250  uint public len =  a.length */\n  0xff\n  and\n  0x01\n  sstore\n    /* \"chapter02/9type3.sol\":147:254  contract type10{... */\n  callvalue\n  dup1\n  iszero\n  tag_1\n  jumpi\n  0x00\n  dup1\n  revert\ntag_1:\n  pop\n  dataSize(sub_0)\n  dup1\n  dataOffset(sub_0)\n  0x00\n  codecopy\n  0x00\n  return\nstop\n\nsub_0: assembly {\n        /* \"chapter02/9type3.sol\":147:254  contract type10{... */\n      mstore(0x40, 0x80)\n      callvalue\n      dup1\n      iszero\n      tag_1\n      jumpi\n      0x00\n      dup1\n      revert\n    tag_1:\n      pop\n      jumpi(tag_2, lt(calldatasize, 0x04))\n      shr(0xe0, calldataload(0x00))\n      dup1\n      0x0dbe671f\n      eq\n      tag_3\n      jumpi\n      dup1\n      0x56d88e27\n      eq\n      tag_4\n      jumpi\n    tag_2:\n      0x00\n      dup1\n      revert\n        /* \"chapter02/9type3.sol\":167:189  bytes1 public a = 0x11 */\n    tag_3:\n      tag_5\n      tag_6\n      jump\t// in\n    tag_5:\n      mload(0x40)\n      tag_7\n      swap2\n      swap1\n      tag_8\n      jump\t// in\n    tag_7:\n      mload(0x40)\n      dup1\n      swap2\n      sub\n      swap1\n      return\n        /* \"chapter02/9type3.sol\":223:250  uint public len =  a.length */\n    tag_4:\n      tag_9\n      tag_10\n      jump\t// in\n    tag_9:\n      mload(0x40)\n      tag_11\n      swap2\n      swap1\n      tag_12\n      jump\t// in\n    tag_11:\n      mload(0x40)\n      dup1\n      swap2\n      sub\n      swap1\n      return\n        /* \"chapter02/9type3.sol\":167:189  bytes1 public a = 0x11 */\n    tag_6:\n      0x00\n      dup1\n      sload\n      swap1\n      0x0100\n      exp\n      swap1\n      div\n      0xf8\n      shl\n      dup2\n      jump\t// out\n        /* \"chapter02/9type3.sol\":223:250  uint public len =  a.length */\n    tag_10:\n      sload(0x01)\n      dup2\n      jump\t// out\n        /* \"#utility.yul\":7:156   */\n    tag_13:\n        /* \"#utility.yul\":43:50   */\n      0x00\n        /* \"#utility.yul\":83:149   */\n      0xff00000000000000000000000000000000000000000000000000000000000000\n        /* \"#utility.yul\":76:81   */\n      dup3\n        /* \"#utility.yul\":72:150   */\n      and\n        /* \"#utility.yul\":61:150   */\n      swap1\n      pop\n        /* \"#utility.yul\":7:156   */\n      swap2\n      swap1\n      pop\n      jump\t// out\n        /* \"#utility.yul\":162:277   */\n    tag_14:\n        /* \"#utility.yul\":247:270   */\n      tag_20\n        /* \"#utility.yul\":264:269   */\n      dup2\n        /* \"#utility.yul\":247:270   */\n      tag_13\n      jump\t// in\n    tag_20:\n        /* \"#utility.yul\":242:245   */\n      dup3\n        /* \"#utility.yul\":235:271   */\n      mstore\n        /* \"#utility.yul\":162:277   */\n      pop\n      pop\n      jump\t// out\n        /* \"#utility.yul\":283:501   */\n    tag_8:\n        /* \"#utility.yul\":374:378   */\n      0x00\n        /* \"#utility.yul\":412:414   */\n      0x20\n        /* \"#utility.yul\":401:410   */\n      dup3\n        /* \"#utility.yul\":397:415   */\n      add\n        /* \"#utility.yul\":389:415   */\n      swap1\n      pop\n        /* \"#utility.yul\":425:494   */\n      tag_22\n        /* \"#utility.yul\":491:492   */\n      0x00\n        /* \"#utility.yul\":480:489   */\n      dup4\n        /* \"#utility.yul\":476:493   */\n      add\n        /* \"#utility.yul\":467:473   */\n      dup5\n        /* \"#utility.yul\":425:494   */\n      tag_14\n      jump\t// in\n    tag_22:\n        /* \"#utility.yul\":283:501   */\n      swap3\n      swap2\n      pop\n      pop\n      jump\t// out\n        /* \"#utility.yul\":507:584   */\n    tag_15:\n        /* \"#utility.yul\":544:551   */\n      0x00\n        /* \"#utility.yul\":573:578   */\n      dup2\n        /* \"#utility.yul\":562:578   */\n      swap1\n      pop\n        /* \"#utility.yul\":507:584   */\n      swap2\n      swap1\n      pop\n      jump\t// out\n        /* \"#utility.yul\":590:708   */\n    tag_16:\n        /* \"#utility.yul\":677:701   */\n      tag_25\n        /* \"#utility.yul\":695:700   */\n      dup2\n        /* \"#utility.yul\":677:701   */\n      tag_15\n      jump\t// in\n    tag_25:\n        /* \"#utility.yul\":672:675   */\n      dup3\n        /* \"#utility.yul\":665:702   */\n      mstore\n        /* \"#utility.yul\":590:708   */\n      pop\n      pop\n      jump\t// out\n        /* \"#utility.yul\":714:936   */\n    tag_12:\n        /* \"#utility.yul\":807:811   */\n      0x00\n        /* \"#utility.yul\":845:847   */\n      0x20\n        /* \"#utility.yul\":834:843   */\n      dup3\n        /* \"#utility.yul\":830:848   */\n      add\n        /* \"#utility.yul\":822:848   */\n      swap1\n      pop\n        /* \"#utility.yul\":858:929   */\n      tag_27\n        /* \"#utility.yul\":926:927   */\n      0x00\n        /* \"#utility.yul\":915:924   */\n      dup4\n        /* \"#utility.yul\":911:928   */\n      add\n        /* \"#utility.yul\":902:908   */\n      dup5\n        /* \"#utility.yul\":858:929   */\n      tag_16\n      jump\t// in\n    tag_27:\n        /* \"#utility.yul\":714:936   */\n      swap3\n      swap2\n      pop\n      pop\n      jump\t// out\n\n    auxdata: 0xa2646970667358221220dc949bb92e87f0b890d7eb4a3fffc22f50e6925bbad56d598722b5828d75b85364736f6c634300080f0033\n}\n",
				"bytecode": {
					"linkReferences": {},
					"object": "6080604052601160f81b6000806101000a81548160ff021916908360f81c021790555060008054906101000a905050600160ff1660015534801561004257600080fd5b5061014e806100526000396000f3fe608060405234801561001057600080fd5b50600436106100365760003560e01c80630dbe671f1461003b57806356d88e2714610059575b600080fd5b610043610077565b60405161005091906100c9565b60405180910390f35b610061610088565b60405161006e91906100fd565b60405180910390f35b60008054906101000a900460f81b81565b60015481565b60007fff0000000000000000000000000000000000000000000000000000000000000082169050919050565b6100c38161008e565b82525050565b60006020820190506100de60008301846100ba565b92915050565b6000819050919050565b6100f7816100e4565b82525050565b600060208201905061011260008301846100ee565b9291505056fea2646970667358221220dc949bb92e87f0b890d7eb4a3fffc22f50e6925bbad56d598722b5828d75b85364736f6c634300080f0033",
					"opcodes": "PUSH1 0x80 PUSH1 0x40 MSTORE PUSH1 0x11 PUSH1 0xF8 SHL PUSH1 0x0 DUP1 PUSH2 0x100 EXP DUP2 SLOAD DUP2 PUSH1 0xFF MUL NOT AND SWAP1 DUP4 PUSH1 0xF8 SHR MUL OR SWAP1 SSTORE POP PUSH1 0x0 DUP1 SLOAD SWAP1 PUSH2 0x100 EXP SWAP1 POP POP PUSH1 0x1 PUSH1 0xFF AND PUSH1 0x1 SSTORE CALLVALUE DUP1 ISZERO PUSH2 0x42 JUMPI PUSH1 0x0 DUP1 REVERT JUMPDEST POP PUSH2 0x14E DUP1 PUSH2 0x52 PUSH1 0x0 CODECOPY PUSH1 0x0 RETURN INVALID PUSH1 0x80 PUSH1 0x40 MSTORE CALLVALUE DUP1 ISZERO PUSH2 0x10 JUMPI PUSH1 0x0 DUP1 REVERT JUMPDEST POP PUSH1 0x4 CALLDATASIZE LT PUSH2 0x36 JUMPI PUSH1 0x0 CALLDATALOAD PUSH1 0xE0 SHR DUP1 PUSH4 0xDBE671F EQ PUSH2 0x3B JUMPI DUP1 PUSH4 0x56D88E27 EQ PUSH2 0x59 JUMPI JUMPDEST PUSH1 0x0 DUP1 REVERT JUMPDEST PUSH2 0x43 PUSH2 0x77 JUMP JUMPDEST PUSH1 0x40 MLOAD PUSH2 0x50 SWAP2 SWAP1 PUSH2 0xC9 JUMP JUMPDEST PUSH1 0x40 MLOAD DUP1 SWAP2 SUB SWAP1 RETURN JUMPDEST PUSH2 0x61 PUSH2 0x88 JUMP JUMPDEST PUSH1 0x40 MLOAD PUSH2 0x6E SWAP2 SWAP1 PUSH2 0xFD JUMP JUMPDEST PUSH1 0x40 MLOAD DUP1 SWAP2 SUB SWAP1 RETURN JUMPDEST PUSH1 0x0 DUP1 SLOAD SWAP1 PUSH2 0x100 EXP SWAP1 DIV PUSH1 0xF8 SHL DUP2 JUMP JUMPDEST PUSH1 0x1 SLOAD DUP2 JUMP JUMPDEST PUSH1 0x0 PUSH32 0xFF00000000000000000000000000000000000000000000000000000000000000 DUP3 AND SWAP1 POP SWAP2 SWAP1 POP JUMP JUMPDEST PUSH2 0xC3 DUP2 PUSH2 0x8E JUMP JUMPDEST DUP3 MSTORE POP POP JUMP JUMPDEST PUSH1 0x0 PUSH1 0x20 DUP3 ADD SWAP1 POP PUSH2 0xDE PUSH1 0x0 DUP4 ADD DUP5 PUSH2 0xBA JUMP JUMPDEST SWAP3 SWAP2 POP POP JUMP JUMPDEST PUSH1 0x0 DUP2 SWAP1 POP SWAP2 SWAP1 POP JUMP JUMPDEST PUSH2 0xF7 DUP2 PUSH2 0xE4 JUMP JUMPDEST DUP3 MSTORE POP POP JUMP JUMPDEST PUSH1 0x0 PUSH1 0x20 DUP3 ADD SWAP1 POP PUSH2 0x112 PUSH1 0x0 DUP4 ADD DUP5 PUSH2 0xEE JUMP JUMPDEST SWAP3 SWAP2 POP POP JUMP INVALID LOG2 PUSH5 0x6970667358 0x22 SLT KECCAK256 0xDC SWAP5 SWAP12 0xB9 0x2E DUP8 CREATE 0xB8 SWAP1 0xD7 0xEB 0x4A EXTCODEHASH SELFDESTRUCT 0xC2 0x2F POP 0xE6 SWAP3 JUMPDEST 0xBA 0xD5 PUSH14 0x598722B5828D75B85364736F6C63 NUMBER STOP ADDMOD 0xF STOP CALLER "
				},
				"gasEstimates": {
					"creation": {
						"codeDepositCost": "66800",
						"executionCost": "48631",
						"totalCost": "115431"
					},
					"external": {
						"a()": "2446",
						"len()": "2429"
					}
				},
				"methodIdentifiers": {
					"a()": "0dbe671f",
					"len()": "56d88e27"
				}
			},
			"storageLayout": {
				"storage": [
					{
						"astId": 9,
						"contract": "chapter02/9type3.sol:type10",
						"label": "a",
						"offset": 0,
						"slot": "0",
						"type": "t_bytes1"
					},
					{
						"astId": 13,
						"contract": "chapter02/9type3.sol:type10",
						"label": "len",
						"offset": 0,
						"slot": "1",
						"type": "t_uint256"
					}
				],
				"types": {
					"t_bytes1": {
						"encoding": "inplace",
						"label": "bytes1",
						"numberOfBytes": "1"
					},
					"t_uint256": {
						"encoding": "inplace",
						"label": "uint256",
						"numberOfBytes": "32"
					}
				}
			},
			"userdoc": {
				"kind": "user",
				"methods": {},
				"version": 1
			}
		}
	}
}