{
	"chapter02/9type3.sol": {
		"type6": {
			"abi": [
				{
					"inputs": [],
					"name": "i3",
					"outputs": [
						{
							"internalType": "uint256",
							"name": "",
							"type": "uint256"
						}
					],
					"stateMutability": "view",
					"type": "function"
				}
			],
			"devdoc": {
				"kind": "dev",
				"methods": {},
				"version": 1
			},
			"evm": {
				"assembly": "    /* \"chapter02/9type3.sol\":1828:1907  contract type6{... */\n  mstore(0x40, 0x80)\n    /* \"chapter02/9type3.sol\":1858:1859  5 */\n  0x05\n    /* \"chapter02/9type3.sol\":1848:1859  uint i1 = 5 */\n  0x00\n  sstore\n    /* \"chapter02/9type3.sol\":1875:1876  2 */\n  0x02\n    /* \"chapter02/9type3.sol\":1865:1876  uint i2 = 2 */\n  0x01\n  sstore\n    /* \"chapter02/9type3.sol\":1902:1904  i2 */\n  sload(0x01)\n    /* \"chapter02/9type3.sol\":1899:1901  i1 */\n  sload(0x00)\n    /* \"chapter02/9type3.sol\":1899:1904  i1%i2 */\n  tag_1\n  swap2\n  swap1\n  tag_2\n  jump\t// in\ntag_1:\n    /* \"chapter02/9type3.sol\":1882:1904  uint public i3 = i1%i2 */\n  0x02\n  sstore\n    /* \"chapter02/9type3.sol\":1828:1907  contract type6{... */\n  callvalue\n  dup1\n  iszero\n  tag_3\n  jumpi\n  0x00\n  dup1\n  revert\ntag_3:\n  pop\n  jump(tag_4)\n    /* \"#utility.yul\":7:84   */\ntag_5:\n    /* \"#utility.yul\":44:51   */\n  0x00\n    /* \"#utility.yul\":73:78   */\n  dup2\n    /* \"#utility.yul\":62:78   */\n  swap1\n  pop\n    /* \"#utility.yul\":7:84   */\n  swap2\n  swap1\n  pop\n  jump\t// out\n    /* \"#utility.yul\":90:270   */\ntag_6:\n    /* \"#utility.yul\":138:215   */\n  0x4e487b7100000000000000000000000000000000000000000000000000000000\n    /* \"#utility.yul\":135:136   */\n  0x00\n    /* \"#utility.yul\":128:216   */\n  mstore\n    /* \"#utility.yul\":235:239   */\n  0x12\n    /* \"#utility.yul\":232:233   */\n  0x04\n    /* \"#utility.yul\":225:240   */\n  mstore\n    /* \"#utility.yul\":259:263   */\n  0x24\n    /* \"#utility.yul\":256:257   */\n  0x00\n    /* \"#utility.yul\":249:264   */\n  revert\n    /* \"#utility.yul\":276:452   */\ntag_2:\n    /* \"#utility.yul\":308:309   */\n  0x00\n    /* \"#utility.yul\":325:345   */\n  tag_11\n    /* \"#utility.yul\":343:344   */\n  dup3\n    /* \"#utility.yul\":325:345   */\n  tag_5\n  jump\t// in\ntag_11:\n    /* \"#utility.yul\":320:345   */\n  swap2\n  pop\n    /* \"#utility.yul\":359:379   */\n  tag_12\n    /* \"#utility.yul\":377:378   */\n  dup4\n    /* \"#utility.yul\":359:379   */\n  tag_5\n  jump\t// in\ntag_12:\n    /* \"#utility.yul\":354:379   */\n  swap3\n  pop\n    /* \"#utility.yul\":398:399   */\n  dup3\n    /* \"#utility.yul\":388:423   */\n  tag_13\n  jumpi\n    /* \"#utility.yul\":403:421   */\n  tag_14\n  tag_6\n  jump\t// in\ntag_14:\n    /* \"#utility.yul\":388:423   */\ntag_13:\n    /* \"#utility.yul\":444:445   */\n  dup3\n    /* \"#utility.yul\":441:442   */\n  dup3\n    /* \"#utility.yul\":437:446   */\n  mod\n    /* \"#utility.yul\":432:446   */\n  swap1\n  pop\n    /* \"#utility.yul\":276:452   */\n  swap3\n  swap2\n  pop\n  pop\n  jump\t// out\n    /* \"chapter02/9type3.sol\":1828:1907  contract type6{... */\ntag_4:\n  dataSize(sub_0)\n  dup1\n  dataOffset(sub_0)\n  0x00\n  codecopy\n  0x00\n  return\nstop\n\nsub_0: assembly {\n        /* \"chapter02/9type3.sol\":1828:1907  contract type6{... */\n      mstore(0x40, 0x80)\n      callvalue\n      dup1\n      iszero\n      tag_1\n      jumpi\n      0x00\n      dup1\n      revert\n    tag_1:\n      pop\n      jumpi(tag_2, lt(calldatasize, 0x04))\n      shr(0xe0, calldataload(0x00))\n      dup1\n      0xa0792ba7\n      eq\n      tag_3\n      jumpi\n    tag_2:\n      0x00\n      dup1\n      revert\n        /* \"chapter02/9type3.sol\":1882:1904  uint public i3 = i1%i2 */\n    tag_3:\n      tag_4\n      tag_5\n      jump\t// in\n    tag_4:\n      mload(0x40)\n      tag_6\n      swap2\n      swap1\n      tag_7\n      jump\t// in\n    tag_6:\n      mload(0x40)\n      dup1\n      swap2\n      sub\n      swap1\n      return\n    tag_5:\n      sload(0x02)\n      dup2\n      jump\t// out\n        /* \"#utility.yul\":7:84   */\n    tag_8:\n        /* \"#utility.yul\":44:51   */\n      0x00\n        /* \"#utility.yul\":73:78   */\n      dup2\n        /* \"#utility.yul\":62:78   */\n      swap1\n      pop\n        /* \"#utility.yul\":7:84   */\n      swap2\n      swap1\n      pop\n      jump\t// out\n        /* \"#utility.yul\":90:208   */\n    tag_9:\n        /* \"#utility.yul\":177:201   */\n      tag_13\n        /* \"#utility.yul\":195:200   */\n      dup2\n        /* \"#utility.yul\":177:201   */\n      tag_8\n      jump\t// in\n    tag_13:\n        /* \"#utility.yul\":172:175   */\n      dup3\n        /* \"#utility.yul\":165:202   */\n      mstore\n        /* \"#utility.yul\":90:208   */\n      pop\n      pop\n      jump\t// out\n        /* \"#utility.yul\":214:436   */\n    tag_7:\n        /* \"#utility.yul\":307:311   */\n      0x00\n        /* \"#utility.yul\":345:347   */\n      0x20\n        /* \"#utility.yul\":334:343   */\n      dup3\n        /* \"#utility.yul\":330:348   */\n      add\n        /* \"#utility.yul\":322:348   */\n      swap1\n      pop\n        /* \"#utility.yul\":358:429   */\n      tag_15\n        /* \"#utility.yul\":426:427   */\n      0x00\n        /* \"#utility.yul\":415:424   */\n      dup4\n        /* \"#utility.yul\":411:428   */\n      add\n        /* \"#utility.yul\":402:408   */\n      dup5\n        /* \"#utility.yul\":358:429   */\n      tag_9\n      jump\t// in\n    tag_15:\n        /* \"#utility.yul\":214:436   */\n      swap3\n      swap2\n      pop\n      pop\n      jump\t// out\n\n    auxdata: 0xa2646970667358221220c948f4f0f87389b94331b7c35a9efbdf770baa523bcc1a075f5a645e8b1b321e64736f6c634300080f0033\n}\n",
				"bytecode": {
					"linkReferences": {},
					"object": "60806040526005600055600260015560015460005461001e919061006c565b60025534801561002d57600080fd5b5061009d565b6000819050919050565b7f4e487b7100000000000000000000000000000000000000000000000000000000600052601260045260246000fd5b600061007782610033565b915061008283610033565b9250826100925761009161003d565b5b828206905092915050565b60b3806100ab6000396000f3fe6080604052348015600f57600080fd5b506004361060285760003560e01c8063a0792ba714602d575b600080fd5b60336047565b604051603e91906064565b60405180910390f35b60025481565b6000819050919050565b605e81604d565b82525050565b6000602082019050607760008301846057565b9291505056fea2646970667358221220c948f4f0f87389b94331b7c35a9efbdf770baa523bcc1a075f5a645e8b1b321e64736f6c634300080f0033",
					"opcodes": "PUSH1 0x80 PUSH1 0x40 MSTORE PUSH1 0x5 PUSH1 0x0 SSTORE PUSH1 0x2 PUSH1 0x1 SSTORE PUSH1 0x1 SLOAD PUSH1 0x0 SLOAD PUSH2 0x1E SWAP2 SWAP1 PUSH2 0x6C JUMP JUMPDEST PUSH1 0x2 SSTORE CALLVALUE DUP1 ISZERO PUSH2 0x2D JUMPI PUSH1 0x0 DUP1 REVERT JUMPDEST POP PUSH2 0x9D JUMP JUMPDEST PUSH1 0x0 DUP2 SWAP1 POP SWAP2 SWAP1 POP JUMP JUMPDEST PUSH32 0x4E487B7100000000000000000000000000000000000000000000000000000000 PUSH1 0x0 MSTORE PUSH1 0x12 PUSH1 0x4 MSTORE PUSH1 0x24 PUSH1 0x0 REVERT JUMPDEST PUSH1 0x0 PUSH2 0x77 DUP3 PUSH2 0x33 JUMP JUMPDEST SWAP2 POP PUSH2 0x82 DUP4 PUSH2 0x33 JUMP JUMPDEST SWAP3 POP DUP3 PUSH2 0x92 JUMPI PUSH2 0x91 PUSH2 0x3D JUMP JUMPDEST JUMPDEST DUP3 DUP3 MOD SWAP1 POP SWAP3 SWAP2 POP POP JUMP JUMPDEST PUSH1 0xB3 DUP1 PUSH2 0xAB PUSH1 0x0 CODECOPY PUSH1 0x0 RETURN INVALID PUSH1 0x80 PUSH1 0x40 MSTORE CALLVALUE DUP1 ISZERO PUSH1 0xF JUMPI PUSH1 0x0 DUP1 REVERT JUMPDEST POP PUSH1 0x4 CALLDATASIZE LT PUSH1 0x28 JUMPI PUSH1 0x0 CALLDATALOAD PUSH1 0xE0 SHR DUP1 PUSH4 0xA0792BA7 EQ PUSH1 0x2D JUMPI JUMPDEST PUSH1 0x0 DUP1 REVERT JUMPDEST PUSH1 0x33 PUSH1 0x47 JUMP JUMPDEST PUSH1 0x40 MLOAD PUSH1 0x3E SWAP2 SWAP1 PUSH1 0x64 JUMP JUMPDEST PUSH1 0x40 MLOAD DUP1 SWAP2 SUB SWAP1 RETURN JUMPDEST PUSH1 0x2 SLOAD DUP2 JUMP JUMPDEST PUSH1 0x0 DUP2 SWAP1 POP SWAP2 SWAP1 POP JUMP JUMPDEST PUSH1 0x5E DUP2 PUSH1 0x4D JUMP JUMPDEST DUP3 MSTORE POP POP JUMP JUMPDEST PUSH1 0x0 PUSH1 0x20 DUP3 ADD SWAP1 POP PUSH1 0x77 PUSH1 0x0 DUP4 ADD DUP5 PUSH1 0x57 JUMP JUMPDEST SWAP3 SWAP2 POP POP JUMP INVALID LOG2 PUSH5 0x6970667358 0x22 SLT KECCAK256 0xC9 BASEFEE DELEGATECALL CREATE 0xF8 PUSH20 0x89B94331B7C35A9EFBDF770BAA523BCC1A075F5A PUSH5 0x5E8B1B321E PUSH5 0x736F6C6343 STOP ADDMOD 0xF STOP CALLER "
				},
				"gasEstimates": {
					"creation": {
						"codeDepositCost": "35800",
						"executionCost": "infinite",
						"totalCost": "infinite"
					},
					"external": {
						"i3()": "2407"
					}
				},
				"methodIdentifiers": {
					"i3()": "a0792ba7"
				}
			},
			"storageLayout": {
				"storage": [
					{
						"astId": 144,
						"contract": "chapter02/9type3.sol:type6",
						"label": "i1",
						"offset": 0,
						"slot": "0",
						"type": "t_uint256"
					},
					{
						"astId": 147,
						"contract": "chapter02/9type3.sol:type6",
						"label": "i2",
						"offset": 0,
						"slot": "1",
						"type": "t_uint256"
					},
					{
						"astId": 152,
						"contract": "chapter02/9type3.sol:type6",
						"label": "i3",
						"offset": 0,
						"slot": "2",
						"type": "t_uint256"
					}
				],
				"types": {
					"t_uint256": {
						"encoding": "inplace",
						"label": "uint256",
						"numberOfBytes": "32"
					}
				}
			},
			"userdoc": {
				"kind": "user",
				"methods": {},
				"version": 1
			}
		}
	}
}