{
	"chapter02/9type3.sol": {
		"type11": {
			"abi": [
				{
					"inputs": [],
					"name": "addr",
					"outputs": [
						{
							"internalType": "address",
							"name": "",
							"type": "address"
						}
					],
					"stateMutability": "view",
					"type": "function"
				},
				{
					"inputs": [],
					"name": "addrNotPayable",
					"outputs": [
						{
							"internalType": "address",
							"name": "",
							"type": "address"
						}
					],
					"stateMutability": "view",
					"type": "function"
				},
				{
					"inputs": [],
					"name": "balance1",
					"outputs": [
						{
							"internalType": "uint256",
							"name": "",
							"type": "uint256"
						}
					],
					"stateMutability": "view",
					"type": "function"
				},
				{
					"inputs": [],
					"name": "balance2",
					"outputs": [
						{
							"internalType": "uint256",
							"name": "",
							"type": "uint256"
						}
					],
					"stateMutability": "view",
					"type": "function"
				},
				{
					"inputs": [],
					"name": "balance3",
					"outputs": [
						{
							"internalType": "uint256",
							"name": "",
							"type": "uint256"
						}
					],
					"stateMutability": "view",
					"type": "function"
				},
				{
					"inputs": [],
					"name": "contractAddr",
					"outputs": [
						{
							"internalType": "address",
							"name": "",
							"type": "address"
						}
					],
					"stateMutability": "view",
					"type": "function"
				},
				{
					"inputs": [],
					"name": "getByte",
					"outputs": [
						{
							"internalType": "bytes",
							"name": "",
							"type": "bytes"
						}
					],
					"stateMutability": "view",
					"type": "function"
				}
			],
			"devdoc": {
				"kind": "dev",
				"methods": {},
				"version": 1
			},
			"evm": {
				"assembly": "    /* \"chapter02/9type3.sol\":55:495  contract type11{... */\n  mstore(0x40, 0x80)\n    /* \"chapter02/9type3.sol\":107:149  0x5B38Da6a701c568545dCfcB03FcB875f56beddC4 */\n  0x5b38da6a701c568545dcfcb03fcb875f56beddc4\n    /* \"chapter02/9type3.sol\":75:149  address public addrNotPayable = 0x5B38Da6a701c568545dCfcB03FcB875f56beddC4 */\n  0x00\n  dup1\n  0x0100\n  exp\n  dup2\n  sload\n  dup2\n  0xffffffffffffffffffffffffffffffffffffffff\n  mul\n  not\n  and\n  swap1\n  dup4\n  0xffffffffffffffffffffffffffffffffffffffff\n  and\n  mul\n  or\n  swap1\n  sstore\n  pop\n    /* \"chapter02/9type3.sol\":184:198  addrNotPayable */\n  0x00\n  dup1\n  sload\n  swap1\n  0x0100\n  exp\n  swap1\n  div\n  0xffffffffffffffffffffffffffffffffffffffff\n  and\n    /* \"chapter02/9type3.sol\":154:199  address public addr = payable(addrNotPayable) */\n  0x01\n  exp(0x0100, 0x00)\n  dup2\n  sload\n  dup2\n  0xffffffffffffffffffffffffffffffffffffffff\n  mul\n  not\n  and\n  swap1\n  dup4\n  0xffffffffffffffffffffffffffffffffffffffff\n  and\n  mul\n  or\n  swap1\n  sstore\n  pop\n    /* \"chapter02/9type3.sol\":242:246  this */\n  address\n    /* \"chapter02/9type3.sol\":204:247  address public contractAddr = address(this) */\n  0x02\n  exp(0x0100, 0x00)\n  dup2\n  sload\n  dup2\n  0xffffffffffffffffffffffffffffffffffffffff\n  mul\n  not\n  and\n  swap1\n  dup4\n  0xffffffffffffffffffffffffffffffffffffffff\n  and\n  mul\n  or\n  swap1\n  sstore\n  pop\n    /* \"chapter02/9type3.sol\":279:293  addrNotPayable */\n  0x00\n  dup1\n  sload\n  swap1\n  0x0100\n  exp\n  swap1\n  div\n  0xffffffffffffffffffffffffffffffffffffffff\n  and\n    /* \"chapter02/9type3.sol\":279:301  addrNotPayable.balance */\n  0xffffffffffffffffffffffffffffffffffffffff\n  and\n  balance\n    /* \"chapter02/9type3.sol\":256:301  uint public balance1 = addrNotPayable.balance */\n  0x03\n  sstore\n    /* \"chapter02/9type3.sol\":329:333  addr */\n  0x01\n  0x00\n  swap1\n  sload\n  swap1\n  0x0100\n  exp\n  swap1\n  div\n  0xffffffffffffffffffffffffffffffffffffffff\n  and\n    /* \"chapter02/9type3.sol\":329:341  addr.balance */\n  0xffffffffffffffffffffffffffffffffffffffff\n  and\n  balance\n    /* \"chapter02/9type3.sol\":306:341  uint public balance2 = addr.balance */\n  0x04\n  sstore\n    /* \"chapter02/9type3.sol\":369:381  contractAddr */\n  0x02\n  0x00\n  swap1\n  sload\n  swap1\n  0x0100\n  exp\n  swap1\n  div\n  0xffffffffffffffffffffffffffffffffffffffff\n  and\n    /* \"chapter02/9type3.sol\":369:389  contractAddr.balance */\n  0xffffffffffffffffffffffffffffffffffffffff\n  and\n  balance\n    /* \"chapter02/9type3.sol\":346:389  uint public balance3 = contractAddr.balance */\n  0x05\n  sstore\n    /* \"chapter02/9type3.sol\":55:495  contract type11{... */\n  callvalue\n  dup1\n  iszero\n  tag_1\n  jumpi\n  0x00\n  dup1\n  revert\ntag_1:\n  pop\n  dataSize(sub_0)\n  dup1\n  dataOffset(sub_0)\n  0x00\n  codecopy\n  0x00\n  return\nstop\n\nsub_0: assembly {\n        /* \"chapter02/9type3.sol\":55:495  contract type11{... */\n      mstore(0x40, 0x80)\n      callvalue\n      dup1\n      iszero\n      tag_1\n      jumpi\n      0x00\n      dup1\n      revert\n    tag_1:\n      pop\n      jumpi(tag_2, lt(calldatasize, 0x04))\n      shr(0xe0, calldataload(0x00))\n      dup1\n      0x767800de\n      gt\n      tag_10\n      jumpi\n      dup1\n      0x767800de\n      eq\n      tag_6\n      jumpi\n      dup1\n      0xc45c4f58\n      eq\n      tag_7\n      jumpi\n      dup1\n      0xf24a0faa\n      eq\n      tag_8\n      jumpi\n      dup1\n      0xfa20eb7c\n      eq\n      tag_9\n      jumpi\n      jump(tag_2)\n    tag_10:\n      dup1\n      0x15a5d9d8\n      eq\n      tag_3\n      jumpi\n      dup1\n      0x40441eec\n      eq\n      tag_4\n      jumpi\n      dup1\n      0x60585358\n      eq\n      tag_5\n      jumpi\n    tag_2:\n      0x00\n      dup1\n      revert\n        /* \"chapter02/9type3.sol\":204:247  address public contractAddr = address(this) */\n    tag_3:\n      tag_11\n      tag_12\n      jump\t// in\n    tag_11:\n      mload(0x40)\n      tag_13\n      swap2\n      swap1\n      tag_14\n      jump\t// in\n    tag_13:\n      mload(0x40)\n      dup1\n      swap2\n      sub\n      swap1\n      return\n        /* \"chapter02/9type3.sol\":306:341  uint public balance2 = addr.balance */\n    tag_4:\n      tag_15\n      tag_16\n      jump\t// in\n    tag_15:\n      mload(0x40)\n      tag_17\n      swap2\n      swap1\n      tag_18\n      jump\t// in\n    tag_17:\n      mload(0x40)\n      dup1\n      swap2\n      sub\n      swap1\n      return\n        /* \"chapter02/9type3.sol\":395:479  function getByte()external view returns(bytes memory){... */\n    tag_5:\n      tag_19\n      tag_20\n      jump\t// in\n    tag_19:\n      mload(0x40)\n      tag_21\n      swap2\n      swap1\n      tag_22\n      jump\t// in\n    tag_21:\n      mload(0x40)\n      dup1\n      swap2\n      sub\n      swap1\n      return\n        /* \"chapter02/9type3.sol\":154:199  address public addr = payable(addrNotPayable) */\n    tag_6:\n      tag_23\n      tag_24\n      jump\t// in\n    tag_23:\n      mload(0x40)\n      tag_25\n      swap2\n      swap1\n      tag_14\n      jump\t// in\n    tag_25:\n      mload(0x40)\n      dup1\n      swap2\n      sub\n      swap1\n      return\n        /* \"chapter02/9type3.sol\":256:301  uint public balance1 = addrNotPayable.balance */\n    tag_7:\n      tag_26\n      tag_27\n      jump\t// in\n    tag_26:\n      mload(0x40)\n      tag_28\n      swap2\n      swap1\n      tag_18\n      jump\t// in\n    tag_28:\n      mload(0x40)\n      dup1\n      swap2\n      sub\n      swap1\n      return\n        /* \"chapter02/9type3.sol\":346:389  uint public balance3 = contractAddr.balance */\n    tag_8:\n      tag_29\n      tag_30\n      jump\t// in\n    tag_29:\n      mload(0x40)\n      tag_31\n      swap2\n      swap1\n      tag_18\n      jump\t// in\n    tag_31:\n      mload(0x40)\n      dup1\n      swap2\n      sub\n      swap1\n      return\n        /* \"chapter02/9type3.sol\":75:149  address public addrNotPayable = 0x5B38Da6a701c568545dCfcB03FcB875f56beddC4 */\n    tag_9:\n      tag_32\n      tag_33\n      jump\t// in\n    tag_32:\n      mload(0x40)\n      tag_34\n      swap2\n      swap1\n      tag_14\n      jump\t// in\n    tag_34:\n      mload(0x40)\n      dup1\n      swap2\n      sub\n      swap1\n      return\n        /* \"chapter02/9type3.sol\":204:247  address public contractAddr = address(this) */\n    tag_12:\n      0x02\n      0x00\n      swap1\n      sload\n      swap1\n      0x0100\n      exp\n      swap1\n      div\n      0xffffffffffffffffffffffffffffffffffffffff\n      and\n      dup2\n      jump\t// out\n        /* \"chapter02/9type3.sol\":306:341  uint public balance2 = addr.balance */\n    tag_16:\n      sload(0x04)\n      dup2\n      jump\t// out\n        /* \"chapter02/9type3.sol\":395:479  function getByte()external view returns(bytes memory){... */\n    tag_20:\n        /* \"chapter02/9type3.sol\":435:447  bytes memory */\n      0x60\n        /* \"chapter02/9type3.sol\":464:468  addr */\n      0x01\n      0x00\n      swap1\n      sload\n      swap1\n      0x0100\n      exp\n      swap1\n      div\n      0xffffffffffffffffffffffffffffffffffffffff\n      and\n        /* \"chapter02/9type3.sol\":464:473  addr.code */\n      0xffffffffffffffffffffffffffffffffffffffff\n      and\n      dup1\n      extcodesize\n      dup1\n      0x20\n      add\n      mload(0x40)\n      swap1\n      dup2\n      add\n      0x40\n      mstore\n      dup2\n      dup2\n      mstore\n      0x00\n      swap1\n      dup1\n      0x20\n      add\n      swap1\n      swap4\n      extcodecopy\n        /* \"chapter02/9type3.sol\":457:473  return addr.code */\n      swap1\n      pop\n        /* \"chapter02/9type3.sol\":395:479  function getByte()external view returns(bytes memory){... */\n      swap1\n      jump\t// out\n        /* \"chapter02/9type3.sol\":154:199  address public addr = payable(addrNotPayable) */\n    tag_24:\n      0x01\n      0x00\n      swap1\n      sload\n      swap1\n      0x0100\n      exp\n      swap1\n      div\n      0xffffffffffffffffffffffffffffffffffffffff\n      and\n      dup2\n      jump\t// out\n        /* \"chapter02/9type3.sol\":256:301  uint public balance1 = addrNotPayable.balance */\n    tag_27:\n      sload(0x03)\n      dup2\n      jump\t// out\n        /* \"chapter02/9type3.sol\":346:389  uint public balance3 = contractAddr.balance */\n    tag_30:\n      sload(0x05)\n      dup2\n      jump\t// out\n        /* \"chapter02/9type3.sol\":75:149  address public addrNotPayable = 0x5B38Da6a701c568545dCfcB03FcB875f56beddC4 */\n    tag_33:\n      0x00\n      dup1\n      sload\n      swap1\n      0x0100\n      exp\n      swap1\n      div\n      0xffffffffffffffffffffffffffffffffffffffff\n      and\n      dup2\n      jump\t// out\n        /* \"#utility.yul\":7:133   */\n    tag_36:\n        /* \"#utility.yul\":44:51   */\n      0x00\n        /* \"#utility.yul\":84:126   */\n      0xffffffffffffffffffffffffffffffffffffffff\n        /* \"#utility.yul\":77:82   */\n      dup3\n        /* \"#utility.yul\":73:127   */\n      and\n        /* \"#utility.yul\":62:127   */\n      swap1\n      pop\n        /* \"#utility.yul\":7:133   */\n      swap2\n      swap1\n      pop\n      jump\t// out\n        /* \"#utility.yul\":139:235   */\n    tag_37:\n        /* \"#utility.yul\":176:183   */\n      0x00\n        /* \"#utility.yul\":205:229   */\n      tag_49\n        /* \"#utility.yul\":223:228   */\n      dup3\n        /* \"#utility.yul\":205:229   */\n      tag_36\n      jump\t// in\n    tag_49:\n        /* \"#utility.yul\":194:229   */\n      swap1\n      pop\n        /* \"#utility.yul\":139:235   */\n      swap2\n      swap1\n      pop\n      jump\t// out\n        /* \"#utility.yul\":241:359   */\n    tag_38:\n        /* \"#utility.yul\":328:352   */\n      tag_51\n        /* \"#utility.yul\":346:351   */\n      dup2\n        /* \"#utility.yul\":328:352   */\n      tag_37\n      jump\t// in\n    tag_51:\n        /* \"#utility.yul\":323:326   */\n      dup3\n        /* \"#utility.yul\":316:353   */\n      mstore\n        /* \"#utility.yul\":241:359   */\n      pop\n      pop\n      jump\t// out\n        /* \"#utility.yul\":365:587   */\n    tag_14:\n        /* \"#utility.yul\":458:462   */\n      0x00\n        /* \"#utility.yul\":496:498   */\n      0x20\n        /* \"#utility.yul\":485:494   */\n      dup3\n        /* \"#utility.yul\":481:499   */\n      add\n        /* \"#utility.yul\":473:499   */\n      swap1\n      pop\n        /* \"#utility.yul\":509:580   */\n      tag_53\n        /* \"#utility.yul\":577:578   */\n      0x00\n        /* \"#utility.yul\":566:575   */\n      dup4\n        /* \"#utility.yul\":562:579   */\n      add\n        /* \"#utility.yul\":553:559   */\n      dup5\n        /* \"#utility.yul\":509:580   */\n      tag_38\n      jump\t// in\n    tag_53:\n        /* \"#utility.yul\":365:587   */\n      swap3\n      swap2\n      pop\n      pop\n      jump\t// out\n        /* \"#utility.yul\":593:670   */\n    tag_39:\n        /* \"#utility.yul\":630:637   */\n      0x00\n        /* \"#utility.yul\":659:664   */\n      dup2\n        /* \"#utility.yul\":648:664   */\n      swap1\n      pop\n        /* \"#utility.yul\":593:670   */\n      swap2\n      swap1\n      pop\n      jump\t// out\n        /* \"#utility.yul\":676:794   */\n    tag_40:\n        /* \"#utility.yul\":763:787   */\n      tag_56\n        /* \"#utility.yul\":781:786   */\n      dup2\n        /* \"#utility.yul\":763:787   */\n      tag_39\n      jump\t// in\n    tag_56:\n        /* \"#utility.yul\":758:761   */\n      dup3\n        /* \"#utility.yul\":751:788   */\n      mstore\n        /* \"#utility.yul\":676:794   */\n      pop\n      pop\n      jump\t// out\n        /* \"#utility.yul\":800:1022   */\n    tag_18:\n        /* \"#utility.yul\":893:897   */\n      0x00\n        /* \"#utility.yul\":931:933   */\n      0x20\n        /* \"#utility.yul\":920:929   */\n      dup3\n        /* \"#utility.yul\":916:934   */\n      add\n        /* \"#utility.yul\":908:934   */\n      swap1\n      pop\n        /* \"#utility.yul\":944:1015   */\n      tag_58\n        /* \"#utility.yul\":1012:1013   */\n      0x00\n        /* \"#utility.yul\":1001:1010   */\n      dup4\n        /* \"#utility.yul\":997:1014   */\n      add\n        /* \"#utility.yul\":988:994   */\n      dup5\n        /* \"#utility.yul\":944:1015   */\n      tag_40\n      jump\t// in\n    tag_58:\n        /* \"#utility.yul\":800:1022   */\n      swap3\n      swap2\n      pop\n      pop\n      jump\t// out\n        /* \"#utility.yul\":1028:1126   */\n    tag_41:\n        /* \"#utility.yul\":1079:1085   */\n      0x00\n        /* \"#utility.yul\":1113:1118   */\n      dup2\n        /* \"#utility.yul\":1107:1119   */\n      mload\n        /* \"#utility.yul\":1097:1119   */\n      swap1\n      pop\n        /* \"#utility.yul\":1028:1126   */\n      swap2\n      swap1\n      pop\n      jump\t// out\n        /* \"#utility.yul\":1132:1300   */\n    tag_42:\n        /* \"#utility.yul\":1215:1226   */\n      0x00\n        /* \"#utility.yul\":1249:1255   */\n      dup3\n        /* \"#utility.yul\":1244:1247   */\n      dup3\n        /* \"#utility.yul\":1237:1256   */\n      mstore\n        /* \"#utility.yul\":1289:1293   */\n      0x20\n        /* \"#utility.yul\":1284:1287   */\n      dup3\n        /* \"#utility.yul\":1280:1294   */\n      add\n        /* \"#utility.yul\":1265:1294   */\n      swap1\n      pop\n        /* \"#utility.yul\":1132:1300   */\n      swap3\n      swap2\n      pop\n      pop\n      jump\t// out\n        /* \"#utility.yul\":1306:1613   */\n    tag_43:\n        /* \"#utility.yul\":1374:1375   */\n      0x00\n        /* \"#utility.yul\":1384:1497   */\n    tag_62:\n        /* \"#utility.yul\":1398:1404   */\n      dup4\n        /* \"#utility.yul\":1395:1396   */\n      dup2\n        /* \"#utility.yul\":1392:1405   */\n      lt\n        /* \"#utility.yul\":1384:1497   */\n      iszero\n      tag_64\n      jumpi\n        /* \"#utility.yul\":1483:1484   */\n      dup1\n        /* \"#utility.yul\":1478:1481   */\n      dup3\n        /* \"#utility.yul\":1474:1485   */\n      add\n        /* \"#utility.yul\":1468:1486   */\n      mload\n        /* \"#utility.yul\":1464:1465   */\n      dup2\n        /* \"#utility.yul\":1459:1462   */\n      dup5\n        /* \"#utility.yul\":1455:1466   */\n      add\n        /* \"#utility.yul\":1448:1487   */\n      mstore\n        /* \"#utility.yul\":1420:1422   */\n      0x20\n        /* \"#utility.yul\":1417:1418   */\n      dup2\n        /* \"#utility.yul\":1413:1423   */\n      add\n        /* \"#utility.yul\":1408:1423   */\n      swap1\n      pop\n        /* \"#utility.yul\":1384:1497   */\n      jump(tag_62)\n    tag_64:\n        /* \"#utility.yul\":1515:1521   */\n      dup4\n        /* \"#utility.yul\":1512:1513   */\n      dup2\n        /* \"#utility.yul\":1509:1522   */\n      gt\n        /* \"#utility.yul\":1506:1607   */\n      iszero\n      tag_65\n      jumpi\n        /* \"#utility.yul\":1595:1596   */\n      0x00\n        /* \"#utility.yul\":1586:1592   */\n      dup5\n        /* \"#utility.yul\":1581:1584   */\n      dup5\n        /* \"#utility.yul\":1577:1593   */\n      add\n        /* \"#utility.yul\":1570:1597   */\n      mstore\n        /* \"#utility.yul\":1506:1607   */\n    tag_65:\n        /* \"#utility.yul\":1355:1613   */\n      pop\n        /* \"#utility.yul\":1306:1613   */\n      pop\n      pop\n      pop\n      jump\t// out\n        /* \"#utility.yul\":1619:1721   */\n    tag_44:\n        /* \"#utility.yul\":1660:1666   */\n      0x00\n        /* \"#utility.yul\":1711:1713   */\n      0x1f\n        /* \"#utility.yul\":1707:1714   */\n      not\n        /* \"#utility.yul\":1702:1704   */\n      0x1f\n        /* \"#utility.yul\":1695:1700   */\n      dup4\n        /* \"#utility.yul\":1691:1705   */\n      add\n        /* \"#utility.yul\":1687:1715   */\n      and\n        /* \"#utility.yul\":1677:1715   */\n      swap1\n      pop\n        /* \"#utility.yul\":1619:1721   */\n      swap2\n      swap1\n      pop\n      jump\t// out\n        /* \"#utility.yul\":1727:2087   */\n    tag_45:\n        /* \"#utility.yul\":1813:1816   */\n      0x00\n        /* \"#utility.yul\":1841:1879   */\n      tag_68\n        /* \"#utility.yul\":1873:1878   */\n      dup3\n        /* \"#utility.yul\":1841:1879   */\n      tag_41\n      jump\t// in\n    tag_68:\n        /* \"#utility.yul\":1895:1965   */\n      tag_69\n        /* \"#utility.yul\":1958:1964   */\n      dup2\n        /* \"#utility.yul\":1953:1956   */\n      dup6\n        /* \"#utility.yul\":1895:1965   */\n      tag_42\n      jump\t// in\n    tag_69:\n        /* \"#utility.yul\":1888:1965   */\n      swap4\n      pop\n        /* \"#utility.yul\":1974:2026   */\n      tag_70\n        /* \"#utility.yul\":2019:2025   */\n      dup2\n        /* \"#utility.yul\":2014:2017   */\n      dup6\n        /* \"#utility.yul\":2007:2011   */\n      0x20\n        /* \"#utility.yul\":2000:2005   */\n      dup7\n        /* \"#utility.yul\":1996:2012   */\n      add\n        /* \"#utility.yul\":1974:2026   */\n      tag_43\n      jump\t// in\n    tag_70:\n        /* \"#utility.yul\":2051:2080   */\n      tag_71\n        /* \"#utility.yul\":2073:2079   */\n      dup2\n        /* \"#utility.yul\":2051:2080   */\n      tag_44\n      jump\t// in\n    tag_71:\n        /* \"#utility.yul\":2046:2049   */\n      dup5\n        /* \"#utility.yul\":2042:2081   */\n      add\n        /* \"#utility.yul\":2035:2081   */\n      swap2\n      pop\n        /* \"#utility.yul\":1817:2087   */\n      pop\n        /* \"#utility.yul\":1727:2087   */\n      swap3\n      swap2\n      pop\n      pop\n      jump\t// out\n        /* \"#utility.yul\":2093:2402   */\n    tag_22:\n        /* \"#utility.yul\":2204:2208   */\n      0x00\n        /* \"#utility.yul\":2242:2244   */\n      0x20\n        /* \"#utility.yul\":2231:2240   */\n      dup3\n        /* \"#utility.yul\":2227:2245   */\n      add\n        /* \"#utility.yul\":2219:2245   */\n      swap1\n      pop\n        /* \"#utility.yul\":2291:2300   */\n      dup2\n        /* \"#utility.yul\":2285:2289   */\n      dup2\n        /* \"#utility.yul\":2281:2301   */\n      sub\n        /* \"#utility.yul\":2277:2278   */\n      0x00\n        /* \"#utility.yul\":2266:2275   */\n      dup4\n        /* \"#utility.yul\":2262:2279   */\n      add\n        /* \"#utility.yul\":2255:2302   */\n      mstore\n        /* \"#utility.yul\":2319:2395   */\n      tag_73\n        /* \"#utility.yul\":2390:2394   */\n      dup2\n        /* \"#utility.yul\":2381:2387   */\n      dup5\n        /* \"#utility.yul\":2319:2395   */\n      tag_45\n      jump\t// in\n    tag_73:\n        /* \"#utility.yul\":2311:2395   */\n      swap1\n      pop\n        /* \"#utility.yul\":2093:2402   */\n      swap3\n      swap2\n      pop\n      pop\n      jump\t// out\n\n    auxdata: 0xa2646970667358221220686151a160eacf8f875856ceb0129e3460282117795a92114e1e5229757a068264736f6c634300080f0033\n}\n",
				"bytecode": {
					"linkReferences": {},
					"object": "6080604052735b38da6a701c568545dcfcb03fcb875f56beddc46000806101000a81548173ffffffffffffffffffffffffffffffffffffffff021916908373ffffffffffffffffffffffffffffffffffffffff16021790555060008054906101000a900473ffffffffffffffffffffffffffffffffffffffff16600160006101000a81548173ffffffffffffffffffffffffffffffffffffffff021916908373ffffffffffffffffffffffffffffffffffffffff16021790555030600260006101000a81548173ffffffffffffffffffffffffffffffffffffffff021916908373ffffffffffffffffffffffffffffffffffffffff16021790555060008054906101000a900473ffffffffffffffffffffffffffffffffffffffff1673ffffffffffffffffffffffffffffffffffffffff1631600355600160009054906101000a900473ffffffffffffffffffffffffffffffffffffffff1673ffffffffffffffffffffffffffffffffffffffff1631600455600260009054906101000a900473ffffffffffffffffffffffffffffffffffffffff1673ffffffffffffffffffffffffffffffffffffffff16316005553480156101bb57600080fd5b506103b3806101cb6000396000f3fe608060405234801561001057600080fd5b506004361061007d5760003560e01c8063767800de1161005b578063767800de146100dc578063c45c4f58146100fa578063f24a0faa14610118578063fa20eb7c146101365761007d565b806315a5d9d81461008257806340441eec146100a057806360585358146100be575b600080fd5b61008a610154565b6040516100979190610273565b60405180910390f35b6100a861017a565b6040516100b591906102a7565b60405180910390f35b6100c6610180565b6040516100d3919061035b565b60405180910390f35b6100e46101dc565b6040516100f19190610273565b60405180910390f35b610102610202565b60405161010f91906102a7565b60405180910390f35b610120610208565b60405161012d91906102a7565b60405180910390f35b61013e61020e565b60405161014b9190610273565b60405180910390f35b600260009054906101000a900473ffffffffffffffffffffffffffffffffffffffff1681565b60045481565b6060600160009054906101000a900473ffffffffffffffffffffffffffffffffffffffff1673ffffffffffffffffffffffffffffffffffffffff16803b806020016040519081016040528181526000908060200190933c905090565b600160009054906101000a900473ffffffffffffffffffffffffffffffffffffffff1681565b60035481565b60055481565b60008054906101000a900473ffffffffffffffffffffffffffffffffffffffff1681565b600073ffffffffffffffffffffffffffffffffffffffff82169050919050565b600061025d82610232565b9050919050565b61026d81610252565b82525050565b60006020820190506102886000830184610264565b92915050565b6000819050919050565b6102a18161028e565b82525050565b60006020820190506102bc6000830184610298565b92915050565b600081519050919050565b600082825260208201905092915050565b60005b838110156102fc5780820151818401526020810190506102e1565b8381111561030b576000848401525b50505050565b6000601f19601f8301169050919050565b600061032d826102c2565b61033781856102cd565b93506103478185602086016102de565b61035081610311565b840191505092915050565b600060208201905081810360008301526103758184610322565b90509291505056fea2646970667358221220686151a160eacf8f875856ceb0129e3460282117795a92114e1e5229757a068264736f6c634300080f0033",
					"opcodes": "PUSH1 0x80 PUSH1 0x40 MSTORE PUSH20 0x5B38DA6A701C568545DCFCB03FCB875F56BEDDC4 PUSH1 0x0 DUP1 PUSH2 0x100 EXP DUP2 SLOAD DUP2 PUSH20 0xFFFFFFFFFFFFFFFFFFFFFFFFFFFFFFFFFFFFFFFF MUL NOT AND SWAP1 DUP4 PUSH20 0xFFFFFFFFFFFFFFFFFFFFFFFFFFFFFFFFFFFFFFFF AND MUL OR SWAP1 SSTORE POP PUSH1 0x0 DUP1 SLOAD SWAP1 PUSH2 0x100 EXP SWAP1 DIV PUSH20 0xFFFFFFFFFFFFFFFFFFFFFFFFFFFFFFFFFFFFFFFF AND PUSH1 0x1 PUSH1 0x0 PUSH2 0x100 EXP DUP2 SLOAD DUP2 PUSH20 0xFFFFFFFFFFFFFFFFFFFFFFFFFFFFFFFFFFFFFFFF MUL NOT AND SWAP1 DUP4 PUSH20 0xFFFFFFFFFFFFFFFFFFFFFFFFFFFFFFFFFFFFFFFF AND MUL OR SWAP1 SSTORE POP ADDRESS PUSH1 0x2 PUSH1 0x0 PUSH2 0x100 EXP DUP2 SLOAD DUP2 PUSH20 0xFFFFFFFFFFFFFFFFFFFFFFFFFFFFFFFFFFFFFFFF MUL NOT AND SWAP1 DUP4 PUSH20 0xFFFFFFFFFFFFFFFFFFFFFFFFFFFFFFFFFFFFFFFF AND MUL OR SWAP1 SSTORE POP PUSH1 0x0 DUP1 SLOAD SWAP1 PUSH2 0x100 EXP SWAP1 DIV PUSH20 0xFFFFFFFFFFFFFFFFFFFFFFFFFFFFFFFFFFFFFFFF AND PUSH20 0xFFFFFFFFFFFFFFFFFFFFFFFFFFFFFFFFFFFFFFFF AND BALANCE PUSH1 0x3 SSTORE PUSH1 0x1 PUSH1 0x0 SWAP1 SLOAD SWAP1 PUSH2 0x100 EXP SWAP1 DIV PUSH20 0xFFFFFFFFFFFFFFFFFFFFFFFFFFFFFFFFFFFFFFFF AND PUSH20 0xFFFFFFFFFFFFFFFFFFFFFFFFFFFFFFFFFFFFFFFF AND BALANCE PUSH1 0x4 SSTORE PUSH1 0x2 PUSH1 0x0 SWAP1 SLOAD SWAP1 PUSH2 0x100 EXP SWAP1 DIV PUSH20 0xFFFFFFFFFFFFFFFFFFFFFFFFFFFFFFFFFFFFFFFF AND PUSH20 0xFFFFFFFFFFFFFFFFFFFFFFFFFFFFFFFFFFFFFFFF AND BALANCE PUSH1 0x5 SSTORE CALLVALUE DUP1 ISZERO PUSH2 0x1BB JUMPI PUSH1 0x0 DUP1 REVERT JUMPDEST POP PUSH2 0x3B3 DUP1 PUSH2 0x1CB PUSH1 0x0 CODECOPY PUSH1 0x0 RETURN INVALID PUSH1 0x80 PUSH1 0x40 MSTORE CALLVALUE DUP1 ISZERO PUSH2 0x10 JUMPI PUSH1 0x0 DUP1 REVERT JUMPDEST POP PUSH1 0x4 CALLDATASIZE LT PUSH2 0x7D JUMPI PUSH1 0x0 CALLDATALOAD PUSH1 0xE0 SHR DUP1 PUSH4 0x767800DE GT PUSH2 0x5B JUMPI DUP1 PUSH4 0x767800DE EQ PUSH2 0xDC JUMPI DUP1 PUSH4 0xC45C4F58 EQ PUSH2 0xFA JUMPI DUP1 PUSH4 0xF24A0FAA EQ PUSH2 0x118 JUMPI DUP1 PUSH4 0xFA20EB7C EQ PUSH2 0x136 JUMPI PUSH2 0x7D JUMP JUMPDEST DUP1 PUSH4 0x15A5D9D8 EQ PUSH2 0x82 JUMPI DUP1 PUSH4 0x40441EEC EQ PUSH2 0xA0 JUMPI DUP1 PUSH4 0x60585358 EQ PUSH2 0xBE JUMPI JUMPDEST PUSH1 0x0 DUP1 REVERT JUMPDEST PUSH2 0x8A PUSH2 0x154 JUMP JUMPDEST PUSH1 0x40 MLOAD PUSH2 0x97 SWAP2 SWAP1 PUSH2 0x273 JUMP JUMPDEST PUSH1 0x40 MLOAD DUP1 SWAP2 SUB SWAP1 RETURN JUMPDEST PUSH2 0xA8 PUSH2 0x17A JUMP JUMPDEST PUSH1 0x40 MLOAD PUSH2 0xB5 SWAP2 SWAP1 PUSH2 0x2A7 JUMP JUMPDEST PUSH1 0x40 MLOAD DUP1 SWAP2 SUB SWAP1 RETURN JUMPDEST PUSH2 0xC6 PUSH2 0x180 JUMP JUMPDEST PUSH1 0x40 MLOAD PUSH2 0xD3 SWAP2 SWAP1 PUSH2 0x35B JUMP JUMPDEST PUSH1 0x40 MLOAD DUP1 SWAP2 SUB SWAP1 RETURN JUMPDEST PUSH2 0xE4 PUSH2 0x1DC JUMP JUMPDEST PUSH1 0x40 MLOAD PUSH2 0xF1 SWAP2 SWAP1 PUSH2 0x273 JUMP JUMPDEST PUSH1 0x40 MLOAD DUP1 SWAP2 SUB SWAP1 RETURN JUMPDEST PUSH2 0x102 PUSH2 0x202 JUMP JUMPDEST PUSH1 0x40 MLOAD PUSH2 0x10F SWAP2 SWAP1 PUSH2 0x2A7 JUMP JUMPDEST PUSH1 0x40 MLOAD DUP1 SWAP2 SUB SWAP1 RETURN JUMPDEST PUSH2 0x120 PUSH2 0x208 JUMP JUMPDEST PUSH1 0x40 MLOAD PUSH2 0x12D SWAP2 SWAP1 PUSH2 0x2A7 JUMP JUMPDEST PUSH1 0x40 MLOAD DUP1 SWAP2 SUB SWAP1 RETURN JUMPDEST PUSH2 0x13E PUSH2 0x20E JUMP JUMPDEST PUSH1 0x40 MLOAD PUSH2 0x14B SWAP2 SWAP1 PUSH2 0x273 JUMP JUMPDEST PUSH1 0x40 MLOAD DUP1 SWAP2 SUB SWAP1 RETURN JUMPDEST PUSH1 0x2 PUSH1 0x0 SWAP1 SLOAD SWAP1 PUSH2 0x100 EXP SWAP1 DIV PUSH20 0xFFFFFFFFFFFFFFFFFFFFFFFFFFFFFFFFFFFFFFFF AND DUP2 JUMP JUMPDEST PUSH1 0x4 SLOAD DUP2 JUMP JUMPDEST PUSH1 0x60 PUSH1 0x1 PUSH1 0x0 SWAP1 SLOAD SWAP1 PUSH2 0x100 EXP SWAP1 DIV PUSH20 0xFFFFFFFFFFFFFFFFFFFFFFFFFFFFFFFFFFFFFFFF AND PUSH20 0xFFFFFFFFFFFFFFFFFFFFFFFFFFFFFFFFFFFFFFFF AND DUP1 EXTCODESIZE DUP1 PUSH1 0x20 ADD PUSH1 0x40 MLOAD SWAP1 DUP2 ADD PUSH1 0x40 MSTORE DUP2 DUP2 MSTORE PUSH1 0x0 SWAP1 DUP1 PUSH1 0x20 ADD SWAP1 SWAP4 EXTCODECOPY SWAP1 POP SWAP1 JUMP JUMPDEST PUSH1 0x1 PUSH1 0x0 SWAP1 SLOAD SWAP1 PUSH2 0x100 EXP SWAP1 DIV PUSH20 0xFFFFFFFFFFFFFFFFFFFFFFFFFFFFFFFFFFFFFFFF AND DUP2 JUMP JUMPDEST PUSH1 0x3 SLOAD DUP2 JUMP JUMPDEST PUSH1 0x5 SLOAD DUP2 JUMP JUMPDEST PUSH1 0x0 DUP1 SLOAD SWAP1 PUSH2 0x100 EXP SWAP1 DIV PUSH20 0xFFFFFFFFFFFFFFFFFFFFFFFFFFFFFFFFFFFFFFFF AND DUP2 JUMP JUMPDEST PUSH1 0x0 PUSH20 0xFFFFFFFFFFFFFFFFFFFFFFFFFFFFFFFFFFFFFFFF DUP3 AND SWAP1 POP SWAP2 SWAP1 POP JUMP JUMPDEST PUSH1 0x0 PUSH2 0x25D DUP3 PUSH2 0x232 JUMP JUMPDEST SWAP1 POP SWAP2 SWAP1 POP JUMP JUMPDEST PUSH2 0x26D DUP2 PUSH2 0x252 JUMP JUMPDEST DUP3 MSTORE POP POP JUMP JUMPDEST PUSH1 0x0 PUSH1 0x20 DUP3 ADD SWAP1 POP PUSH2 0x288 PUSH1 0x0 DUP4 ADD DUP5 PUSH2 0x264 JUMP JUMPDEST SWAP3 SWAP2 POP POP JUMP JUMPDEST PUSH1 0x0 DUP2 SWAP1 POP SWAP2 SWAP1 POP JUMP JUMPDEST PUSH2 0x2A1 DUP2 PUSH2 0x28E JUMP JUMPDEST DUP3 MSTORE POP POP JUMP JUMPDEST PUSH1 0x0 PUSH1 0x20 DUP3 ADD SWAP1 POP PUSH2 0x2BC PUSH1 0x0 DUP4 ADD DUP5 PUSH2 0x298 JUMP JUMPDEST SWAP3 SWAP2 POP POP JUMP JUMPDEST PUSH1 0x0 DUP2 MLOAD SWAP1 POP SWAP2 SWAP1 POP JUMP JUMPDEST PUSH1 0x0 DUP3 DUP3 MSTORE PUSH1 0x20 DUP3 ADD SWAP1 POP SWAP3 SWAP2 POP POP JUMP JUMPDEST PUSH1 0x0 JUMPDEST DUP4 DUP2 LT ISZERO PUSH2 0x2FC JUMPI DUP1 DUP3 ADD MLOAD DUP2 DUP5 ADD MSTORE PUSH1 0x20 DUP2 ADD SWAP1 POP PUSH2 0x2E1 JUMP JUMPDEST DUP4 DUP2 GT ISZERO PUSH2 0x30B JUMPI PUSH1 0x0 DUP5 DUP5 ADD MSTORE JUMPDEST POP POP POP POP JUMP JUMPDEST PUSH1 0x0 PUSH1 0x1F NOT PUSH1 0x1F DUP4 ADD AND SWAP1 POP SWAP2 SWAP1 POP JUMP JUMPDEST PUSH1 0x0 PUSH2 0x32D DUP3 PUSH2 0x2C2 JUMP JUMPDEST PUSH2 0x337 DUP2 DUP6 PUSH2 0x2CD JUMP JUMPDEST SWAP4 POP PUSH2 0x347 DUP2 DUP6 PUSH1 0x20 DUP7 ADD PUSH2 0x2DE JUMP JUMPDEST PUSH2 0x350 DUP2 PUSH2 0x311 JUMP JUMPDEST DUP5 ADD SWAP2 POP POP SWAP3 SWAP2 POP POP JUMP JUMPDEST PUSH1 0x0 PUSH1 0x20 DUP3 ADD SWAP1 POP DUP2 DUP2 SUB PUSH1 0x0 DUP4 ADD MSTORE PUSH2 0x375 DUP2 DUP5 PUSH2 0x322 JUMP JUMPDEST SWAP1 POP SWAP3 SWAP2 POP POP JUMP INVALID LOG2 PUSH5 0x6970667358 0x22 SLT KECCAK256 PUSH9 0x6151A160EACF8F8758 JUMP 0xCE 0xB0 SLT SWAP15 CALLVALUE PUSH1 0x28 0x21 OR PUSH26 0x5A92114E1E5229757A068264736F6C634300080F003300000000 "
				},
				"gasEstimates": {
					"creation": {
						"codeDepositCost": "189400",
						"executionCost": "155706",
						"totalCost": "345106"
					},
					"external": {
						"addr()": "2514",
						"addrNotPayable()": "2577",
						"balance1()": "2451",
						"balance2()": "2452",
						"balance3()": "2473",
						"contractAddr()": "2515",
						"getByte()": "infinite"
					}
				},
				"methodIdentifiers": {
					"addr()": "767800de",
					"addrNotPayable()": "fa20eb7c",
					"balance1()": "c45c4f58",
					"balance2()": "40441eec",
					"balance3()": "f24a0faa",
					"contractAddr()": "15a5d9d8",
					"getByte()": "60585358"
				}
			},
			"storageLayout": {
				"storage": [
					{
						"astId": 4,
						"contract": "chapter02/9type3.sol:type11",
						"label": "addrNotPayable",
						"offset": 0,
						"slot": "0",
						"type": "t_address"
					},
					{
						"astId": 10,
						"contract": "chapter02/9type3.sol:type11",
						"label": "addr",
						"offset": 0,
						"slot": "1",
						"type": "t_address"
					},
					{
						"astId": 16,
						"contract": "chapter02/9type3.sol:type11",
						"label": "contractAddr",
						"offset": 0,
						"slot": "2",
						"type": "t_address"
					},
					{
						"astId": 20,
						"contract": "chapter02/9type3.sol:type11",
						"label": "balance1",
						"offset": 0,
						"slot": "3",
						"type": "t_uint256"
					},
					{
						"astId": 24,
						"contract": "chapter02/9type3.sol:type11",
						"label": "balance2",
						"offset": 0,
						"slot": "4",
						"type": "t_uint256"
					},
					{
						"astId": 28,
						"contract": "chapter02/9type3.sol:type11",
						"label": "balance3",
						"offset": 0,
						"slot": "5",
						"type": "t_uint256"
					}
				],
				"types": {
					"t_address": {
						"encoding": "inplace",
						"label": "address",
						"numberOfBytes": "20"
					},
					"t_uint256": {
						"encoding": "inplace",
						"label": "uint256",
						"numberOfBytes": "32"
					}
				}
			},
			"userdoc": {
				"kind": "user",
				"methods": {},
				"version": 1
			}
		}
	}
}