{
	"chapter02/9type3.sol": {
		"type8": {
			"abi": [
				{
					"inputs": [],
					"name": "i2",
					"outputs": [
						{
							"internalType": "uint256",
							"name": "",
							"type": "uint256"
						}
					],
					"stateMutability": "view",
					"type": "function"
				},
				{
					"inputs": [],
					"name": "i3",
					"outputs": [
						{
							"internalType": "uint256",
							"name": "",
							"type": "uint256"
						}
					],
					"stateMutability": "view",
					"type": "function"
				},
				{
					"inputs": [],
					"name": "i4",
					"outputs": [
						{
							"internalType": "uint256",
							"name": "",
							"type": "uint256"
						}
					],
					"stateMutability": "view",
					"type": "function"
				},
				{
					"inputs": [],
					"name": "i5",
					"outputs": [
						{
							"internalType": "uint256",
							"name": "",
							"type": "uint256"
						}
					],
					"stateMutability": "view",
					"type": "function"
				},
				{
					"inputs": [],
					"name": "i6",
					"outputs": [
						{
							"internalType": "uint256",
							"name": "",
							"type": "uint256"
						}
					],
					"stateMutability": "view",
					"type": "function"
				},
				{
					"inputs": [],
					"name": "max",
					"outputs": [
						{
							"internalType": "uint256",
							"name": "",
							"type": "uint256"
						}
					],
					"stateMutability": "view",
					"type": "function"
				},
				{
					"inputs": [],
					"name": "mi",
					"outputs": [
						{
							"internalType": "uint256",
							"name": "",
							"type": "uint256"
						}
					],
					"stateMutability": "view",
					"type": "function"
				}
			],
			"devdoc": {
				"kind": "dev",
				"methods": {},
				"version": 1
			},
			"evm": {
				"assembly": "    /* \"chapter02/9type3.sol\":56:719  contract type8{... */\n  mstore(0x40, 0x80)\n    /* \"chapter02/9type3.sol\":116:117  7 */\n  0x07\n    /* \"chapter02/9type3.sol\":106:117  uint i1 = 7 */\n  0x00\n  sstore\n    /* \"chapter02/9type3.sol\":211:212  1 */\n  0x01\n    /* \"chapter02/9type3.sol\":207:209  i1 */\n  sload(0x00)\n    /* \"chapter02/9type3.sol\":207:212  i1>>1 */\n  swap1\n  shr\n    /* \"chapter02/9type3.sol\":190:212  uint public i2 = i1>>1 */\n  0x01\n  sstore\n    /* \"chapter02/9type3.sol\":312:313  1 */\n  0x01\n    /* \"chapter02/9type3.sol\":308:310  i1 */\n  sload(0x00)\n    /* \"chapter02/9type3.sol\":308:313  i1<<1 */\n  swap1\n  shl\n    /* \"chapter02/9type3.sol\":291:313  uint public i3 = i1<<1 */\n  0x02\n  sstore\n    /* \"chapter02/9type3.sol\":365:369  2**1 */\n  0x02\n    /* \"chapter02/9type3.sol\":362:364  i1 */\n  sload(0x00)\n    /* \"chapter02/9type3.sol\":362:369  i1/2**1 */\n  tag_1\n  swap2\n  swap1\n  tag_2\n  jump\t// in\ntag_1:\n    /* \"chapter02/9type3.sol\":345:369  uint public i4 = i1/2**1 */\n  0x03\n  sstore\n    /* \"chapter02/9type3.sol\":421:425  2**1 */\n  0x02\n    /* \"chapter02/9type3.sol\":418:420  i1 */\n  sload(0x00)\n    /* \"chapter02/9type3.sol\":418:425  i1*2**1 */\n  tag_3\n  swap2\n  swap1\n  tag_4\n  jump\t// in\ntag_3:\n    /* \"chapter02/9type3.sol\":401:425  uint public i5 = i1*2**1 */\n  0x04\n  sstore\n    /* \"chapter02/9type3.sol\":462:476  type(uint).max */\n  0xffffffffffffffffffffffffffffffffffffffffffffffffffffffffffffffff\n    /* \"chapter02/9type3.sol\":443:476  uint public max  = type(uint).max */\n  0x05\n  sstore\n    /* \"chapter02/9type3.sol\":572:573  1 */\n  0x01\n    /* \"chapter02/9type3.sol\":567:570  max */\n  sload(0x05)\n    /* \"chapter02/9type3.sol\":567:573  max<<1 */\n  swap1\n  shl\n    /* \"chapter02/9type3.sol\":550:573  uint public i6 = max<<1 */\n  0x06\n  sstore\n    /* \"chapter02/9type3.sol\":701:715  type(uint).max */\n  0xffffffffffffffffffffffffffffffffffffffffffffffffffffffffffffffff\n    /* \"chapter02/9type3.sol\":683:715  uint public mi  = type(uint).max */\n  0x07\n  sstore\n    /* \"chapter02/9type3.sol\":56:719  contract type8{... */\n  callvalue\n  dup1\n  iszero\n  tag_5\n  jumpi\n  0x00\n  dup1\n  revert\ntag_5:\n  pop\n  jump(tag_6)\n    /* \"#utility.yul\":7:84   */\ntag_7:\n    /* \"#utility.yul\":44:51   */\n  0x00\n    /* \"#utility.yul\":73:78   */\n  dup2\n    /* \"#utility.yul\":62:78   */\n  swap1\n  pop\n    /* \"#utility.yul\":7:84   */\n  swap2\n  swap1\n  pop\n  jump\t// out\n    /* \"#utility.yul\":90:270   */\ntag_8:\n    /* \"#utility.yul\":138:215   */\n  0x4e487b7100000000000000000000000000000000000000000000000000000000\n    /* \"#utility.yul\":135:136   */\n  0x00\n    /* \"#utility.yul\":128:216   */\n  mstore\n    /* \"#utility.yul\":235:239   */\n  0x12\n    /* \"#utility.yul\":232:233   */\n  0x04\n    /* \"#utility.yul\":225:240   */\n  mstore\n    /* \"#utility.yul\":259:263   */\n  0x24\n    /* \"#utility.yul\":256:257   */\n  0x00\n    /* \"#utility.yul\":249:264   */\n  revert\n    /* \"#utility.yul\":276:456   */\ntag_9:\n    /* \"#utility.yul\":324:401   */\n  0x4e487b7100000000000000000000000000000000000000000000000000000000\n    /* \"#utility.yul\":321:322   */\n  0x00\n    /* \"#utility.yul\":314:402   */\n  mstore\n    /* \"#utility.yul\":421:425   */\n  0x11\n    /* \"#utility.yul\":418:419   */\n  0x04\n    /* \"#utility.yul\":411:426   */\n  mstore\n    /* \"#utility.yul\":445:449   */\n  0x24\n    /* \"#utility.yul\":442:443   */\n  0x00\n    /* \"#utility.yul\":435:450   */\n  revert\n    /* \"#utility.yul\":462:647   */\ntag_2:\n    /* \"#utility.yul\":502:503   */\n  0x00\n    /* \"#utility.yul\":519:539   */\n  tag_15\n    /* \"#utility.yul\":537:538   */\n  dup3\n    /* \"#utility.yul\":519:539   */\n  tag_7\n  jump\t// in\ntag_15:\n    /* \"#utility.yul\":514:539   */\n  swap2\n  pop\n    /* \"#utility.yul\":553:573   */\n  tag_16\n    /* \"#utility.yul\":571:572   */\n  dup4\n    /* \"#utility.yul\":553:573   */\n  tag_7\n  jump\t// in\ntag_16:\n    /* \"#utility.yul\":548:573   */\n  swap3\n  pop\n    /* \"#utility.yul\":592:593   */\n  dup3\n    /* \"#utility.yul\":582:617   */\n  tag_17\n  jumpi\n    /* \"#utility.yul\":597:615   */\n  tag_18\n  tag_8\n  jump\t// in\ntag_18:\n    /* \"#utility.yul\":582:617   */\ntag_17:\n    /* \"#utility.yul\":639:640   */\n  dup3\n    /* \"#utility.yul\":636:637   */\n  dup3\n    /* \"#utility.yul\":632:641   */\n  div\n    /* \"#utility.yul\":627:641   */\n  swap1\n  pop\n    /* \"#utility.yul\":462:647   */\n  swap3\n  swap2\n  pop\n  pop\n  jump\t// out\n    /* \"#utility.yul\":653:1001   */\ntag_4:\n    /* \"#utility.yul\":693:700   */\n  0x00\n    /* \"#utility.yul\":716:736   */\n  tag_20\n    /* \"#utility.yul\":734:735   */\n  dup3\n    /* \"#utility.yul\":716:736   */\n  tag_7\n  jump\t// in\ntag_20:\n    /* \"#utility.yul\":711:736   */\n  swap2\n  pop\n    /* \"#utility.yul\":750:770   */\n  tag_21\n    /* \"#utility.yul\":768:769   */\n  dup4\n    /* \"#utility.yul\":750:770   */\n  tag_7\n  jump\t// in\ntag_21:\n    /* \"#utility.yul\":745:770   */\n  swap3\n  pop\n    /* \"#utility.yul\":938:939   */\n  dup2\n    /* \"#utility.yul\":870:936   */\n  0xffffffffffffffffffffffffffffffffffffffffffffffffffffffffffffffff\n    /* \"#utility.yul\":866:940   */\n  div\n    /* \"#utility.yul\":863:864   */\n  dup4\n    /* \"#utility.yul\":860:941   */\n  gt\n    /* \"#utility.yul\":855:856   */\n  dup3\n    /* \"#utility.yul\":848:857   */\n  iszero\n    /* \"#utility.yul\":841:858   */\n  iszero\n    /* \"#utility.yul\":837:942   */\n  and\n    /* \"#utility.yul\":834:965   */\n  iszero\n  tag_22\n  jumpi\n    /* \"#utility.yul\":945:963   */\n  tag_23\n  tag_9\n  jump\t// in\ntag_23:\n    /* \"#utility.yul\":834:965   */\ntag_22:\n    /* \"#utility.yul\":993:994   */\n  dup3\n    /* \"#utility.yul\":990:991   */\n  dup3\n    /* \"#utility.yul\":986:995   */\n  mul\n    /* \"#utility.yul\":975:995   */\n  swap1\n  pop\n    /* \"#utility.yul\":653:1001   */\n  swap3\n  swap2\n  pop\n  pop\n  jump\t// out\n    /* \"chapter02/9type3.sol\":56:719  contract type8{... */\ntag_6:\n  dataSize(sub_0)\n  dup1\n  dataOffset(sub_0)\n  0x00\n  codecopy\n  0x00\n  return\nstop\n\nsub_0: assembly {\n        /* \"chapter02/9type3.sol\":56:719  contract type8{... */\n      mstore(0x40, 0x80)\n      callvalue\n      dup1\n      iszero\n      tag_1\n      jumpi\n      0x00\n      dup1\n      revert\n    tag_1:\n      pop\n      jumpi(tag_2, lt(calldatasize, 0x04))\n      shr(0xe0, calldataload(0x00))\n      dup1\n      0xa0792ba7\n      gt\n      tag_10\n      jumpi\n      dup1\n      0xa0792ba7\n      eq\n      tag_6\n      jumpi\n      dup1\n      0xe0ad7eec\n      eq\n      tag_7\n      jumpi\n      dup1\n      0xe7602d1f\n      eq\n      tag_8\n      jumpi\n      dup1\n      0xf5280c9c\n      eq\n      tag_9\n      jumpi\n      jump(tag_2)\n    tag_10:\n      dup1\n      0x29031ac2\n      eq\n      tag_3\n      jumpi\n      dup1\n      0x6ac5db19\n      eq\n      tag_4\n      jumpi\n      dup1\n      0x83cdfab8\n      eq\n      tag_5\n      jumpi\n    tag_2:\n      0x00\n      dup1\n      revert\n        /* \"chapter02/9type3.sol\":345:369  uint public i4 = i1/2**1 */\n    tag_3:\n      tag_11\n      tag_12\n      jump\t// in\n    tag_11:\n      mload(0x40)\n      tag_13\n      swap2\n      swap1\n      tag_14\n      jump\t// in\n    tag_13:\n      mload(0x40)\n      dup1\n      swap2\n      sub\n      swap1\n      return\n        /* \"chapter02/9type3.sol\":443:476  uint public max  = type(uint).max */\n    tag_4:\n      tag_15\n      tag_16\n      jump\t// in\n    tag_15:\n      mload(0x40)\n      tag_17\n      swap2\n      swap1\n      tag_14\n      jump\t// in\n    tag_17:\n      mload(0x40)\n      dup1\n      swap2\n      sub\n      swap1\n      return\n        /* \"chapter02/9type3.sol\":190:212  uint public i2 = i1>>1 */\n    tag_5:\n      tag_18\n      tag_19\n      jump\t// in\n    tag_18:\n      mload(0x40)\n      tag_20\n      swap2\n      swap1\n      tag_14\n      jump\t// in\n    tag_20:\n      mload(0x40)\n      dup1\n      swap2\n      sub\n      swap1\n      return\n        /* \"chapter02/9type3.sol\":291:313  uint public i3 = i1<<1 */\n    tag_6:\n      tag_21\n      tag_22\n      jump\t// in\n    tag_21:\n      mload(0x40)\n      tag_23\n      swap2\n      swap1\n      tag_14\n      jump\t// in\n    tag_23:\n      mload(0x40)\n      dup1\n      swap2\n      sub\n      swap1\n      return\n        /* \"chapter02/9type3.sol\":401:425  uint public i5 = i1*2**1 */\n    tag_7:\n      tag_24\n      tag_25\n      jump\t// in\n    tag_24:\n      mload(0x40)\n      tag_26\n      swap2\n      swap1\n      tag_14\n      jump\t// in\n    tag_26:\n      mload(0x40)\n      dup1\n      swap2\n      sub\n      swap1\n      return\n        /* \"chapter02/9type3.sol\":683:715  uint public mi  = type(uint).max */\n    tag_8:\n      tag_27\n      tag_28\n      jump\t// in\n    tag_27:\n      mload(0x40)\n      tag_29\n      swap2\n      swap1\n      tag_14\n      jump\t// in\n    tag_29:\n      mload(0x40)\n      dup1\n      swap2\n      sub\n      swap1\n      return\n        /* \"chapter02/9type3.sol\":550:573  uint public i6 = max<<1 */\n    tag_9:\n      tag_30\n      tag_31\n      jump\t// in\n    tag_30:\n      mload(0x40)\n      tag_32\n      swap2\n      swap1\n      tag_14\n      jump\t// in\n    tag_32:\n      mload(0x40)\n      dup1\n      swap2\n      sub\n      swap1\n      return\n        /* \"chapter02/9type3.sol\":345:369  uint public i4 = i1/2**1 */\n    tag_12:\n      sload(0x03)\n      dup2\n      jump\t// out\n        /* \"chapter02/9type3.sol\":443:476  uint public max  = type(uint).max */\n    tag_16:\n      sload(0x05)\n      dup2\n      jump\t// out\n        /* \"chapter02/9type3.sol\":190:212  uint public i2 = i1>>1 */\n    tag_19:\n      sload(0x01)\n      dup2\n      jump\t// out\n        /* \"chapter02/9type3.sol\":291:313  uint public i3 = i1<<1 */\n    tag_22:\n      sload(0x02)\n      dup2\n      jump\t// out\n        /* \"chapter02/9type3.sol\":401:425  uint public i5 = i1*2**1 */\n    tag_25:\n      sload(0x04)\n      dup2\n      jump\t// out\n        /* \"chapter02/9type3.sol\":683:715  uint public mi  = type(uint).max */\n    tag_28:\n      sload(0x07)\n      dup2\n      jump\t// out\n        /* \"chapter02/9type3.sol\":550:573  uint public i6 = max<<1 */\n    tag_31:\n      sload(0x06)\n      dup2\n      jump\t// out\n        /* \"#utility.yul\":7:84   */\n    tag_33:\n        /* \"#utility.yul\":44:51   */\n      0x00\n        /* \"#utility.yul\":73:78   */\n      dup2\n        /* \"#utility.yul\":62:78   */\n      swap1\n      pop\n        /* \"#utility.yul\":7:84   */\n      swap2\n      swap1\n      pop\n      jump\t// out\n        /* \"#utility.yul\":90:208   */\n    tag_34:\n        /* \"#utility.yul\":177:201   */\n      tag_38\n        /* \"#utility.yul\":195:200   */\n      dup2\n        /* \"#utility.yul\":177:201   */\n      tag_33\n      jump\t// in\n    tag_38:\n        /* \"#utility.yul\":172:175   */\n      dup3\n        /* \"#utility.yul\":165:202   */\n      mstore\n        /* \"#utility.yul\":90:208   */\n      pop\n      pop\n      jump\t// out\n        /* \"#utility.yul\":214:436   */\n    tag_14:\n        /* \"#utility.yul\":307:311   */\n      0x00\n        /* \"#utility.yul\":345:347   */\n      0x20\n        /* \"#utility.yul\":334:343   */\n      dup3\n        /* \"#utility.yul\":330:348   */\n      add\n        /* \"#utility.yul\":322:348   */\n      swap1\n      pop\n        /* \"#utility.yul\":358:429   */\n      tag_40\n        /* \"#utility.yul\":426:427   */\n      0x00\n        /* \"#utility.yul\":415:424   */\n      dup4\n        /* \"#utility.yul\":411:428   */\n      add\n        /* \"#utility.yul\":402:408   */\n      dup5\n        /* \"#utility.yul\":358:429   */\n      tag_34\n      jump\t// in\n    tag_40:\n        /* \"#utility.yul\":214:436   */\n      swap3\n      swap2\n      pop\n      pop\n      jump\t// out\n\n    auxdata: 0xa26469706673582212207d0b432dd34f84bce0a7309604f50ff037bab7465d4b6507f059ac7264387bc064736f6c634300080f0033\n}\n",
				"bytecode": {
					"linkReferences": {},
					"object": "608060405260076000556001600054901c6001556001600054901b600255600260005461002c919061010d565b600355600260005461003e919061013e565b6004557fffffffffffffffffffffffffffffffffffffffffffffffffffffffffffffffff6005556001600554901b6006557fffffffffffffffffffffffffffffffffffffffffffffffffffffffffffffffff60075534801561009f57600080fd5b50610198565b6000819050919050565b7f4e487b7100000000000000000000000000000000000000000000000000000000600052601260045260246000fd5b7f4e487b7100000000000000000000000000000000000000000000000000000000600052601160045260246000fd5b6000610118826100a5565b9150610123836100a5565b925082610133576101326100af565b5b828204905092915050565b6000610149826100a5565b9150610154836100a5565b9250817fffffffffffffffffffffffffffffffffffffffffffffffffffffffffffffffff048311821515161561018d5761018c6100de565b5b828202905092915050565b6101e8806101a76000396000f3fe608060405234801561001057600080fd5b506004361061007d5760003560e01c8063a0792ba71161005b578063a0792ba7146100dc578063e0ad7eec146100fa578063e7602d1f14610118578063f5280c9c146101365761007d565b806329031ac2146100825780636ac5db19146100a057806383cdfab8146100be575b600080fd5b61008a610154565b6040516100979190610197565b60405180910390f35b6100a861015a565b6040516100b59190610197565b60405180910390f35b6100c6610160565b6040516100d39190610197565b60405180910390f35b6100e4610166565b6040516100f19190610197565b60405180910390f35b61010261016c565b60405161010f9190610197565b60405180910390f35b610120610172565b60405161012d9190610197565b60405180910390f35b61013e610178565b60405161014b9190610197565b60405180910390f35b60035481565b60055481565b60015481565b60025481565b60045481565b60075481565b60065481565b6000819050919050565b6101918161017e565b82525050565b60006020820190506101ac6000830184610188565b9291505056fea26469706673582212207d0b432dd34f84bce0a7309604f50ff037bab7465d4b6507f059ac7264387bc064736f6c634300080f0033",
					"opcodes": "PUSH1 0x80 PUSH1 0x40 MSTORE PUSH1 0x7 PUSH1 0x0 SSTORE PUSH1 0x1 PUSH1 0x0 SLOAD SWAP1 SHR PUSH1 0x1 SSTORE PUSH1 0x1 PUSH1 0x0 SLOAD SWAP1 SHL PUSH1 0x2 SSTORE PUSH1 0x2 PUSH1 0x0 SLOAD PUSH2 0x2C SWAP2 SWAP1 PUSH2 0x10D JUMP JUMPDEST PUSH1 0x3 SSTORE PUSH1 0x2 PUSH1 0x0 SLOAD PUSH2 0x3E SWAP2 SWAP1 PUSH2 0x13E JUMP JUMPDEST PUSH1 0x4 SSTORE PUSH32 0xFFFFFFFFFFFFFFFFFFFFFFFFFFFFFFFFFFFFFFFFFFFFFFFFFFFFFFFFFFFFFFFF PUSH1 0x5 SSTORE PUSH1 0x1 PUSH1 0x5 SLOAD SWAP1 SHL PUSH1 0x6 SSTORE PUSH32 0xFFFFFFFFFFFFFFFFFFFFFFFFFFFFFFFFFFFFFFFFFFFFFFFFFFFFFFFFFFFFFFFF PUSH1 0x7 SSTORE CALLVALUE DUP1 ISZERO PUSH2 0x9F JUMPI PUSH1 0x0 DUP1 REVERT JUMPDEST POP PUSH2 0x198 JUMP JUMPDEST PUSH1 0x0 DUP2 SWAP1 POP SWAP2 SWAP1 POP JUMP JUMPDEST PUSH32 0x4E487B7100000000000000000000000000000000000000000000000000000000 PUSH1 0x0 MSTORE PUSH1 0x12 PUSH1 0x4 MSTORE PUSH1 0x24 PUSH1 0x0 REVERT JUMPDEST PUSH32 0x4E487B7100000000000000000000000000000000000000000000000000000000 PUSH1 0x0 MSTORE PUSH1 0x11 PUSH1 0x4 MSTORE PUSH1 0x24 PUSH1 0x0 REVERT JUMPDEST PUSH1 0x0 PUSH2 0x118 DUP3 PUSH2 0xA5 JUMP JUMPDEST SWAP2 POP PUSH2 0x123 DUP4 PUSH2 0xA5 JUMP JUMPDEST SWAP3 POP DUP3 PUSH2 0x133 JUMPI PUSH2 0x132 PUSH2 0xAF JUMP JUMPDEST JUMPDEST DUP3 DUP3 DIV SWAP1 POP SWAP3 SWAP2 POP POP JUMP JUMPDEST PUSH1 0x0 PUSH2 0x149 DUP3 PUSH2 0xA5 JUMP JUMPDEST SWAP2 POP PUSH2 0x154 DUP4 PUSH2 0xA5 JUMP JUMPDEST SWAP3 POP DUP2 PUSH32 0xFFFFFFFFFFFFFFFFFFFFFFFFFFFFFFFFFFFFFFFFFFFFFFFFFFFFFFFFFFFFFFFF DIV DUP4 GT DUP3 ISZERO ISZERO AND ISZERO PUSH2 0x18D JUMPI PUSH2 0x18C PUSH2 0xDE JUMP JUMPDEST JUMPDEST DUP3 DUP3 MUL SWAP1 POP SWAP3 SWAP2 POP POP JUMP JUMPDEST PUSH2 0x1E8 DUP1 PUSH2 0x1A7 PUSH1 0x0 CODECOPY PUSH1 0x0 RETURN INVALID PUSH1 0x80 PUSH1 0x40 MSTORE CALLVALUE DUP1 ISZERO PUSH2 0x10 JUMPI PUSH1 0x0 DUP1 REVERT JUMPDEST POP PUSH1 0x4 CALLDATASIZE LT PUSH2 0x7D JUMPI PUSH1 0x0 CALLDATALOAD PUSH1 0xE0 SHR DUP1 PUSH4 0xA0792BA7 GT PUSH2 0x5B JUMPI DUP1 PUSH4 0xA0792BA7 EQ PUSH2 0xDC JUMPI DUP1 PUSH4 0xE0AD7EEC EQ PUSH2 0xFA JUMPI DUP1 PUSH4 0xE7602D1F EQ PUSH2 0x118 JUMPI DUP1 PUSH4 0xF5280C9C EQ PUSH2 0x136 JUMPI PUSH2 0x7D JUMP JUMPDEST DUP1 PUSH4 0x29031AC2 EQ PUSH2 0x82 JUMPI DUP1 PUSH4 0x6AC5DB19 EQ PUSH2 0xA0 JUMPI DUP1 PUSH4 0x83CDFAB8 EQ PUSH2 0xBE JUMPI JUMPDEST PUSH1 0x0 DUP1 REVERT JUMPDEST PUSH2 0x8A PUSH2 0x154 JUMP JUMPDEST PUSH1 0x40 MLOAD PUSH2 0x97 SWAP2 SWAP1 PUSH2 0x197 JUMP JUMPDEST PUSH1 0x40 MLOAD DUP1 SWAP2 SUB SWAP1 RETURN JUMPDEST PUSH2 0xA8 PUSH2 0x15A JUMP JUMPDEST PUSH1 0x40 MLOAD PUSH2 0xB5 SWAP2 SWAP1 PUSH2 0x197 JUMP JUMPDEST PUSH1 0x40 MLOAD DUP1 SWAP2 SUB SWAP1 RETURN JUMPDEST PUSH2 0xC6 PUSH2 0x160 JUMP JUMPDEST PUSH1 0x40 MLOAD PUSH2 0xD3 SWAP2 SWAP1 PUSH2 0x197 JUMP JUMPDEST PUSH1 0x40 MLOAD DUP1 SWAP2 SUB SWAP1 RETURN JUMPDEST PUSH2 0xE4 PUSH2 0x166 JUMP JUMPDEST PUSH1 0x40 MLOAD PUSH2 0xF1 SWAP2 SWAP1 PUSH2 0x197 JUMP JUMPDEST PUSH1 0x40 MLOAD DUP1 SWAP2 SUB SWAP1 RETURN JUMPDEST PUSH2 0x102 PUSH2 0x16C JUMP JUMPDEST PUSH1 0x40 MLOAD PUSH2 0x10F SWAP2 SWAP1 PUSH2 0x197 JUMP JUMPDEST PUSH1 0x40 MLOAD DUP1 SWAP2 SUB SWAP1 RETURN JUMPDEST PUSH2 0x120 PUSH2 0x172 JUMP JUMPDEST PUSH1 0x40 MLOAD PUSH2 0x12D SWAP2 SWAP1 PUSH2 0x197 JUMP JUMPDEST PUSH1 0x40 MLOAD DUP1 SWAP2 SUB SWAP1 RETURN JUMPDEST PUSH2 0x13E PUSH2 0x178 JUMP JUMPDEST PUSH1 0x40 MLOAD PUSH2 0x14B SWAP2 SWAP1 PUSH2 0x197 JUMP JUMPDEST PUSH1 0x40 MLOAD DUP1 SWAP2 SUB SWAP1 RETURN JUMPDEST PUSH1 0x3 SLOAD DUP2 JUMP JUMPDEST PUSH1 0x5 SLOAD DUP2 JUMP JUMPDEST PUSH1 0x1 SLOAD DUP2 JUMP JUMPDEST PUSH1 0x2 SLOAD DUP2 JUMP JUMPDEST PUSH1 0x4 SLOAD DUP2 JUMP JUMPDEST PUSH1 0x7 SLOAD DUP2 JUMP JUMPDEST PUSH1 0x6 SLOAD DUP2 JUMP JUMPDEST PUSH1 0x0 DUP2 SWAP1 POP SWAP2 SWAP1 POP JUMP JUMPDEST PUSH2 0x191 DUP2 PUSH2 0x17E JUMP JUMPDEST DUP3 MSTORE POP POP JUMP JUMPDEST PUSH1 0x0 PUSH1 0x20 DUP3 ADD SWAP1 POP PUSH2 0x1AC PUSH1 0x0 DUP4 ADD DUP5 PUSH2 0x188 JUMP JUMPDEST SWAP3 SWAP2 POP POP JUMP INVALID LOG2 PUSH5 0x6970667358 0x22 SLT KECCAK256 PUSH30 0xB432DD34F84BCE0A7309604F50FF037BAB7465D4B6507F059AC7264387B 0xC0 PUSH5 0x736F6C6343 STOP ADDMOD 0xF STOP CALLER "
				},
				"gasEstimates": {
					"creation": {
						"codeDepositCost": "97600",
						"executionCost": "infinite",
						"totalCost": "infinite"
					},
					"external": {
						"i2()": "2474",
						"i3()": "2429",
						"i4()": "2430",
						"i5()": "2451",
						"i6()": "2495",
						"max()": "2452",
						"mi()": "2473"
					}
				},
				"methodIdentifiers": {
					"i2()": "83cdfab8",
					"i3()": "a0792ba7",
					"i4()": "29031ac2",
					"i5()": "e0ad7eec",
					"i6()": "f5280c9c",
					"max()": "6ac5db19",
					"mi()": "e7602d1f"
				}
			},
			"storageLayout": {
				"storage": [
					{
						"astId": 4,
						"contract": "chapter02/9type3.sol:type8",
						"label": "i1",
						"offset": 0,
						"slot": "0",
						"type": "t_uint256"
					},
					{
						"astId": 9,
						"contract": "chapter02/9type3.sol:type8",
						"label": "i2",
						"offset": 0,
						"slot": "1",
						"type": "t_uint256"
					},
					{
						"astId": 14,
						"contract": "chapter02/9type3.sol:type8",
						"label": "i3",
						"offset": 0,
						"slot": "2",
						"type": "t_uint256"
					},
					{
						"astId": 21,
						"contract": "chapter02/9type3.sol:type8",
						"label": "i4",
						"offset": 0,
						"slot": "3",
						"type": "t_uint256"
					},
					{
						"astId": 28,
						"contract": "chapter02/9type3.sol:type8",
						"label": "i5",
						"offset": 0,
						"slot": "4",
						"type": "t_uint256"
					},
					{
						"astId": 35,
						"contract": "chapter02/9type3.sol:type8",
						"label": "max",
						"offset": 0,
						"slot": "5",
						"type": "t_uint256"
					},
					{
						"astId": 40,
						"contract": "chapter02/9type3.sol:type8",
						"label": "i6",
						"offset": 0,
						"slot": "6",
						"type": "t_uint256"
					},
					{
						"astId": 47,
						"contract": "chapter02/9type3.sol:type8",
						"label": "mi",
						"offset": 0,
						"slot": "7",
						"type": "t_uint256"
					}
				],
				"types": {
					"t_uint256": {
						"encoding": "inplace",
						"label": "uint256",
						"numberOfBytes": "32"
					}
				}
			},
			"userdoc": {
				"kind": "user",
				"methods": {},
				"version": 1
			}
		}
	}
}