{
	"chapter02/4conversion.sol": {
		"test3": {
			"abi": [
				{
					"inputs": [],
					"name": "addr1",
					"outputs": [
						{
							"internalType": "address",
							"name": "",
							"type": "address"
						}
					],
					"stateMutability": "view",
					"type": "function"
				},
				{
					"inputs": [],
					"name": "addr2",
					"outputs": [
						{
							"internalType": "address payable",
							"name": "",
							"type": "address"
						}
					],
					"stateMutability": "view",
					"type": "function"
				},
				{
					"inputs": [],
					"name": "addr3",
					"outputs": [
						{
							"internalType": "uint160",
							"name": "",
							"type": "uint160"
						}
					],
					"stateMutability": "view",
					"type": "function"
				},
				{
					"inputs": [],
					"name": "addr4",
					"outputs": [
						{
							"internalType": "uint160",
							"name": "",
							"type": "uint160"
						}
					],
					"stateMutability": "view",
					"type": "function"
				},
				{
					"inputs": [],
					"name": "addr6",
					"outputs": [
						{
							"internalType": "bytes20",
							"name": "",
							"type": "bytes20"
						}
					],
					"stateMutability": "view",
					"type": "function"
				}
			],
			"devdoc": {
				"kind": "dev",
				"methods": {},
				"version": 1
			},
			"evm": {
				"assembly": "    /* \"chapter02/4conversion.sol\":395:734  contract test3{... */\n  mstore(0x40, 0x80)\n    /* \"chapter02/4conversion.sol\":437:479  0x5B38Da6a701c568545dCfcB03FcB875f56beddC4 */\n  0x5b38da6a701c568545dcfcb03fcb875f56beddc4\n    /* \"chapter02/4conversion.sol\":414:479  address public addr1 = 0x5B38Da6a701c568545dCfcB03FcB875f56beddC4 */\n  0x00\n  dup1\n  0x0100\n  exp\n  dup2\n  sload\n  dup2\n  0xffffffffffffffffffffffffffffffffffffffff\n  mul\n  not\n  and\n  swap1\n  dup4\n  0xffffffffffffffffffffffffffffffffffffffff\n  and\n  mul\n  or\n  swap1\n  sstore\n  pop\n    /* \"chapter02/4conversion.sol\":523:528  addr1 */\n  0x00\n  dup1\n  sload\n  swap1\n  0x0100\n  exp\n  swap1\n  div\n  0xffffffffffffffffffffffffffffffffffffffff\n  and\n    /* \"chapter02/4conversion.sol\":484:529  address payable public addr2 = payable(addr1) */\n  0x01\n  exp(0x0100, 0x00)\n  dup2\n  sload\n  dup2\n  0xffffffffffffffffffffffffffffffffffffffff\n  mul\n  not\n  and\n  swap1\n  dup4\n  0xffffffffffffffffffffffffffffffffffffffff\n  and\n  mul\n  or\n  swap1\n  sstore\n  pop\n    /* \"chapter02/4conversion.sol\":605:610  addr1 */\n  0x00\n  dup1\n  sload\n  swap1\n  0x0100\n  exp\n  swap1\n  div\n  0xffffffffffffffffffffffffffffffffffffffff\n  and\n    /* \"chapter02/4conversion.sol\":574:611  uint160 public addr3 = uint160(addr1) */\n  0x02\n  exp(0x0100, 0x00)\n  dup2\n  sload\n  dup2\n  0xffffffffffffffffffffffffffffffffffffffff\n  mul\n  not\n  and\n  swap1\n  dup4\n  0xffffffffffffffffffffffffffffffffffffffff\n  and\n  mul\n  or\n  swap1\n  sstore\n  pop\n    /* \"chapter02/4conversion.sol\":655:660  addr2 */\n  0x01\n  0x00\n  swap1\n  sload\n  swap1\n  0x0100\n  exp\n  swap1\n  div\n  0xffffffffffffffffffffffffffffffffffffffff\n  and\n    /* \"chapter02/4conversion.sol\":616:662  uint160 public addr4 = uint160(address(addr2)) */\n  0x03\n  exp(0x0100, 0x00)\n  dup2\n  sload\n  dup2\n  0xffffffffffffffffffffffffffffffffffffffff\n  mul\n  not\n  and\n  swap1\n  dup4\n  0xffffffffffffffffffffffffffffffffffffffff\n  and\n  mul\n  or\n  swap1\n  sstore\n  pop\n    /* \"chapter02/4conversion.sol\":725:730  addr1 */\n  0x00\n  dup1\n  sload\n  swap1\n  0x0100\n  exp\n  swap1\n  div\n  0xffffffffffffffffffffffffffffffffffffffff\n  and\n    /* \"chapter02/4conversion.sol\":717:731  bytes20(addr1) */\n  0x60\n  shl\n    /* \"chapter02/4conversion.sol\":694:731  bytes20 public addr6 = bytes20(addr1) */\n  0x04\n  exp(0x0100, 0x00)\n  dup2\n  sload\n  dup2\n  0xffffffffffffffffffffffffffffffffffffffff\n  mul\n  not\n  and\n  swap1\n  dup4\n  0x60\n  shr\n  mul\n  or\n  swap1\n  sstore\n  pop\n    /* \"chapter02/4conversion.sol\":395:734  contract test3{... */\n  callvalue\n  dup1\n  iszero\n  tag_1\n  jumpi\n  0x00\n  dup1\n  revert\ntag_1:\n  pop\n  dataSize(sub_0)\n  dup1\n  dataOffset(sub_0)\n  0x00\n  codecopy\n  0x00\n  return\nstop\n\nsub_0: assembly {\n        /* \"chapter02/4conversion.sol\":395:734  contract test3{... */\n      mstore(0x40, 0x80)\n      callvalue\n      dup1\n      iszero\n      tag_1\n      jumpi\n      0x00\n      dup1\n      revert\n    tag_1:\n      pop\n      jumpi(tag_2, lt(calldatasize, 0x04))\n      shr(0xe0, calldataload(0x00))\n      dup1\n      0x527116d5\n      eq\n      tag_3\n      jumpi\n      dup1\n      0x8de38f98\n      eq\n      tag_4\n      jumpi\n      dup1\n      0x9347e6d7\n      eq\n      tag_5\n      jumpi\n      dup1\n      0xeabe09ad\n      eq\n      tag_6\n      jumpi\n      dup1\n      0xfd7808f6\n      eq\n      tag_7\n      jumpi\n    tag_2:\n      0x00\n      dup1\n      revert\n        /* \"chapter02/4conversion.sol\":694:731  bytes20 public addr6 = bytes20(addr1) */\n    tag_3:\n      tag_8\n      tag_9\n      jump\t// in\n    tag_8:\n      mload(0x40)\n      tag_10\n      swap2\n      swap1\n      tag_11\n      jump\t// in\n    tag_10:\n      mload(0x40)\n      dup1\n      swap2\n      sub\n      swap1\n      return\n        /* \"chapter02/4conversion.sol\":484:529  address payable public addr2 = payable(addr1) */\n    tag_4:\n      tag_12\n      tag_13\n      jump\t// in\n    tag_12:\n      mload(0x40)\n      tag_14\n      swap2\n      swap1\n      tag_15\n      jump\t// in\n    tag_14:\n      mload(0x40)\n      dup1\n      swap2\n      sub\n      swap1\n      return\n        /* \"chapter02/4conversion.sol\":574:611  uint160 public addr3 = uint160(addr1) */\n    tag_5:\n      tag_16\n      tag_17\n      jump\t// in\n    tag_16:\n      mload(0x40)\n      tag_18\n      swap2\n      swap1\n      tag_19\n      jump\t// in\n    tag_18:\n      mload(0x40)\n      dup1\n      swap2\n      sub\n      swap1\n      return\n        /* \"chapter02/4conversion.sol\":414:479  address public addr1 = 0x5B38Da6a701c568545dCfcB03FcB875f56beddC4 */\n    tag_6:\n      tag_20\n      tag_21\n      jump\t// in\n    tag_20:\n      mload(0x40)\n      tag_22\n      swap2\n      swap1\n      tag_23\n      jump\t// in\n    tag_22:\n      mload(0x40)\n      dup1\n      swap2\n      sub\n      swap1\n      return\n        /* \"chapter02/4conversion.sol\":616:662  uint160 public addr4 = uint160(address(addr2)) */\n    tag_7:\n      tag_24\n      tag_25\n      jump\t// in\n    tag_24:\n      mload(0x40)\n      tag_26\n      swap2\n      swap1\n      tag_19\n      jump\t// in\n    tag_26:\n      mload(0x40)\n      dup1\n      swap2\n      sub\n      swap1\n      return\n        /* \"chapter02/4conversion.sol\":694:731  bytes20 public addr6 = bytes20(addr1) */\n    tag_9:\n      0x04\n      0x00\n      swap1\n      sload\n      swap1\n      0x0100\n      exp\n      swap1\n      div\n      0x60\n      shl\n      dup2\n      jump\t// out\n        /* \"chapter02/4conversion.sol\":484:529  address payable public addr2 = payable(addr1) */\n    tag_13:\n      0x01\n      0x00\n      swap1\n      sload\n      swap1\n      0x0100\n      exp\n      swap1\n      div\n      0xffffffffffffffffffffffffffffffffffffffff\n      and\n      dup2\n      jump\t// out\n        /* \"chapter02/4conversion.sol\":574:611  uint160 public addr3 = uint160(addr1) */\n    tag_17:\n      0x02\n      0x00\n      swap1\n      sload\n      swap1\n      0x0100\n      exp\n      swap1\n      div\n      0xffffffffffffffffffffffffffffffffffffffff\n      and\n      dup2\n      jump\t// out\n        /* \"chapter02/4conversion.sol\":414:479  address public addr1 = 0x5B38Da6a701c568545dCfcB03FcB875f56beddC4 */\n    tag_21:\n      0x00\n      dup1\n      sload\n      swap1\n      0x0100\n      exp\n      swap1\n      div\n      0xffffffffffffffffffffffffffffffffffffffff\n      and\n      dup2\n      jump\t// out\n        /* \"chapter02/4conversion.sol\":616:662  uint160 public addr4 = uint160(address(addr2)) */\n    tag_25:\n      0x03\n      0x00\n      swap1\n      sload\n      swap1\n      0x0100\n      exp\n      swap1\n      div\n      0xffffffffffffffffffffffffffffffffffffffff\n      and\n      dup2\n      jump\t// out\n        /* \"#utility.yul\":7:157   */\n    tag_27:\n        /* \"#utility.yul\":44:51   */\n      0x00\n        /* \"#utility.yul\":84:150   */\n      0xffffffffffffffffffffffffffffffffffffffff000000000000000000000000\n        /* \"#utility.yul\":77:82   */\n      dup3\n        /* \"#utility.yul\":73:151   */\n      and\n        /* \"#utility.yul\":62:151   */\n      swap1\n      pop\n        /* \"#utility.yul\":7:157   */\n      swap2\n      swap1\n      pop\n      jump\t// out\n        /* \"#utility.yul\":163:281   */\n    tag_28:\n        /* \"#utility.yul\":250:274   */\n      tag_38\n        /* \"#utility.yul\":268:273   */\n      dup2\n        /* \"#utility.yul\":250:274   */\n      tag_27\n      jump\t// in\n    tag_38:\n        /* \"#utility.yul\":245:248   */\n      dup3\n        /* \"#utility.yul\":238:275   */\n      mstore\n        /* \"#utility.yul\":163:281   */\n      pop\n      pop\n      jump\t// out\n        /* \"#utility.yul\":287:509   */\n    tag_11:\n        /* \"#utility.yul\":380:384   */\n      0x00\n        /* \"#utility.yul\":418:420   */\n      0x20\n        /* \"#utility.yul\":407:416   */\n      dup3\n        /* \"#utility.yul\":403:421   */\n      add\n        /* \"#utility.yul\":395:421   */\n      swap1\n      pop\n        /* \"#utility.yul\":431:502   */\n      tag_40\n        /* \"#utility.yul\":499:500   */\n      0x00\n        /* \"#utility.yul\":488:497   */\n      dup4\n        /* \"#utility.yul\":484:501   */\n      add\n        /* \"#utility.yul\":475:481   */\n      dup5\n        /* \"#utility.yul\":431:502   */\n      tag_28\n      jump\t// in\n    tag_40:\n        /* \"#utility.yul\":287:509   */\n      swap3\n      swap2\n      pop\n      pop\n      jump\t// out\n        /* \"#utility.yul\":515:641   */\n    tag_29:\n        /* \"#utility.yul\":552:559   */\n      0x00\n        /* \"#utility.yul\":592:634   */\n      0xffffffffffffffffffffffffffffffffffffffff\n        /* \"#utility.yul\":585:590   */\n      dup3\n        /* \"#utility.yul\":581:635   */\n      and\n        /* \"#utility.yul\":570:635   */\n      swap1\n      pop\n        /* \"#utility.yul\":515:641   */\n      swap2\n      swap1\n      pop\n      jump\t// out\n        /* \"#utility.yul\":647:751   */\n    tag_30:\n        /* \"#utility.yul\":692:699   */\n      0x00\n        /* \"#utility.yul\":721:745   */\n      tag_43\n        /* \"#utility.yul\":739:744   */\n      dup3\n        /* \"#utility.yul\":721:745   */\n      tag_29\n      jump\t// in\n    tag_43:\n        /* \"#utility.yul\":710:745   */\n      swap1\n      pop\n        /* \"#utility.yul\":647:751   */\n      swap2\n      swap1\n      pop\n      jump\t// out\n        /* \"#utility.yul\":757:899   */\n    tag_31:\n        /* \"#utility.yul\":860:892   */\n      tag_45\n        /* \"#utility.yul\":886:891   */\n      dup2\n        /* \"#utility.yul\":860:892   */\n      tag_30\n      jump\t// in\n    tag_45:\n        /* \"#utility.yul\":855:858   */\n      dup3\n        /* \"#utility.yul\":848:893   */\n      mstore\n        /* \"#utility.yul\":757:899   */\n      pop\n      pop\n      jump\t// out\n        /* \"#utility.yul\":905:1159   */\n    tag_15:\n        /* \"#utility.yul\":1014:1018   */\n      0x00\n        /* \"#utility.yul\":1052:1054   */\n      0x20\n        /* \"#utility.yul\":1041:1050   */\n      dup3\n        /* \"#utility.yul\":1037:1055   */\n      add\n        /* \"#utility.yul\":1029:1055   */\n      swap1\n      pop\n        /* \"#utility.yul\":1065:1152   */\n      tag_47\n        /* \"#utility.yul\":1149:1150   */\n      0x00\n        /* \"#utility.yul\":1138:1147   */\n      dup4\n        /* \"#utility.yul\":1134:1151   */\n      add\n        /* \"#utility.yul\":1125:1131   */\n      dup5\n        /* \"#utility.yul\":1065:1152   */\n      tag_31\n      jump\t// in\n    tag_47:\n        /* \"#utility.yul\":905:1159   */\n      swap3\n      swap2\n      pop\n      pop\n      jump\t// out\n        /* \"#utility.yul\":1165:1283   */\n    tag_32:\n        /* \"#utility.yul\":1252:1276   */\n      tag_49\n        /* \"#utility.yul\":1270:1275   */\n      dup2\n        /* \"#utility.yul\":1252:1276   */\n      tag_29\n      jump\t// in\n    tag_49:\n        /* \"#utility.yul\":1247:1250   */\n      dup3\n        /* \"#utility.yul\":1240:1277   */\n      mstore\n        /* \"#utility.yul\":1165:1283   */\n      pop\n      pop\n      jump\t// out\n        /* \"#utility.yul\":1289:1511   */\n    tag_19:\n        /* \"#utility.yul\":1382:1386   */\n      0x00\n        /* \"#utility.yul\":1420:1422   */\n      0x20\n        /* \"#utility.yul\":1409:1418   */\n      dup3\n        /* \"#utility.yul\":1405:1423   */\n      add\n        /* \"#utility.yul\":1397:1423   */\n      swap1\n      pop\n        /* \"#utility.yul\":1433:1504   */\n      tag_51\n        /* \"#utility.yul\":1501:1502   */\n      0x00\n        /* \"#utility.yul\":1490:1499   */\n      dup4\n        /* \"#utility.yul\":1486:1503   */\n      add\n        /* \"#utility.yul\":1477:1483   */\n      dup5\n        /* \"#utility.yul\":1433:1504   */\n      tag_32\n      jump\t// in\n    tag_51:\n        /* \"#utility.yul\":1289:1511   */\n      swap3\n      swap2\n      pop\n      pop\n      jump\t// out\n        /* \"#utility.yul\":1517:1613   */\n    tag_33:\n        /* \"#utility.yul\":1554:1561   */\n      0x00\n        /* \"#utility.yul\":1583:1607   */\n      tag_53\n        /* \"#utility.yul\":1601:1606   */\n      dup3\n        /* \"#utility.yul\":1583:1607   */\n      tag_29\n      jump\t// in\n    tag_53:\n        /* \"#utility.yul\":1572:1607   */\n      swap1\n      pop\n        /* \"#utility.yul\":1517:1613   */\n      swap2\n      swap1\n      pop\n      jump\t// out\n        /* \"#utility.yul\":1619:1737   */\n    tag_34:\n        /* \"#utility.yul\":1706:1730   */\n      tag_55\n        /* \"#utility.yul\":1724:1729   */\n      dup2\n        /* \"#utility.yul\":1706:1730   */\n      tag_33\n      jump\t// in\n    tag_55:\n        /* \"#utility.yul\":1701:1704   */\n      dup3\n        /* \"#utility.yul\":1694:1731   */\n      mstore\n        /* \"#utility.yul\":1619:1737   */\n      pop\n      pop\n      jump\t// out\n        /* \"#utility.yul\":1743:1965   */\n    tag_23:\n        /* \"#utility.yul\":1836:1840   */\n      0x00\n        /* \"#utility.yul\":1874:1876   */\n      0x20\n        /* \"#utility.yul\":1863:1872   */\n      dup3\n        /* \"#utility.yul\":1859:1877   */\n      add\n        /* \"#utility.yul\":1851:1877   */\n      swap1\n      pop\n        /* \"#utility.yul\":1887:1958   */\n      tag_57\n        /* \"#utility.yul\":1955:1956   */\n      0x00\n        /* \"#utility.yul\":1944:1953   */\n      dup4\n        /* \"#utility.yul\":1940:1957   */\n      add\n        /* \"#utility.yul\":1931:1937   */\n      dup5\n        /* \"#utility.yul\":1887:1958   */\n      tag_34\n      jump\t// in\n    tag_57:\n        /* \"#utility.yul\":1743:1965   */\n      swap3\n      swap2\n      pop\n      pop\n      jump\t// out\n\n    auxdata: 0xa2646970667358221220b7c23295ebe19c339e5046a7e4fb8361ab7cae79ea8224d58bac2669ce5d2e5864736f6c634300080f0033\n}\n",
				"bytecode": {
					"linkReferences": {},
					"object": "6080604052735b38da6a701c568545dcfcb03fcb875f56beddc46000806101000a81548173ffffffffffffffffffffffffffffffffffffffff021916908373ffffffffffffffffffffffffffffffffffffffff16021790555060008054906101000a900473ffffffffffffffffffffffffffffffffffffffff16600160006101000a81548173ffffffffffffffffffffffffffffffffffffffff021916908373ffffffffffffffffffffffffffffffffffffffff16021790555060008054906101000a900473ffffffffffffffffffffffffffffffffffffffff16600260006101000a81548173ffffffffffffffffffffffffffffffffffffffff021916908373ffffffffffffffffffffffffffffffffffffffff160217905550600160009054906101000a900473ffffffffffffffffffffffffffffffffffffffff16600360006101000a81548173ffffffffffffffffffffffffffffffffffffffff021916908373ffffffffffffffffffffffffffffffffffffffff16021790555060008054906101000a900473ffffffffffffffffffffffffffffffffffffffff1660601b600460006101000a81548173ffffffffffffffffffffffffffffffffffffffff021916908360601c02179055503480156101da57600080fd5b506102e9806101ea6000396000f3fe608060405234801561001057600080fd5b50600436106100575760003560e01c8063527116d51461005c5780638de38f981461007a5780639347e6d714610098578063eabe09ad146100b6578063fd7808f6146100d4575b600080fd5b6100646100f2565b60405161007191906101d6565b60405180910390f35b610082610105565b60405161008f9190610232565b60405180910390f35b6100a061012b565b6040516100ad919061025c565b60405180910390f35b6100be610151565b6040516100cb9190610298565b60405180910390f35b6100dc610175565b6040516100e9919061025c565b60405180910390f35b600460009054906101000a900460601b81565b600160009054906101000a900473ffffffffffffffffffffffffffffffffffffffff1681565b600260009054906101000a900473ffffffffffffffffffffffffffffffffffffffff1681565b60008054906101000a900473ffffffffffffffffffffffffffffffffffffffff1681565b600360009054906101000a900473ffffffffffffffffffffffffffffffffffffffff1681565b60007fffffffffffffffffffffffffffffffffffffffff00000000000000000000000082169050919050565b6101d08161019b565b82525050565b60006020820190506101eb60008301846101c7565b92915050565b600073ffffffffffffffffffffffffffffffffffffffff82169050919050565b600061021c826101f1565b9050919050565b61022c81610211565b82525050565b60006020820190506102476000830184610223565b92915050565b610256816101f1565b82525050565b6000602082019050610271600083018461024d565b92915050565b6000610282826101f1565b9050919050565b61029281610277565b82525050565b60006020820190506102ad6000830184610289565b9291505056fea2646970667358221220b7c23295ebe19c339e5046a7e4fb8361ab7cae79ea8224d58bac2669ce5d2e5864736f6c634300080f0033",
					"opcodes": "PUSH1 0x80 PUSH1 0x40 MSTORE PUSH20 0x5B38DA6A701C568545DCFCB03FCB875F56BEDDC4 PUSH1 0x0 DUP1 PUSH2 0x100 EXP DUP2 SLOAD DUP2 PUSH20 0xFFFFFFFFFFFFFFFFFFFFFFFFFFFFFFFFFFFFFFFF MUL NOT AND SWAP1 DUP4 PUSH20 0xFFFFFFFFFFFFFFFFFFFFFFFFFFFFFFFFFFFFFFFF AND MUL OR SWAP1 SSTORE POP PUSH1 0x0 DUP1 SLOAD SWAP1 PUSH2 0x100 EXP SWAP1 DIV PUSH20 0xFFFFFFFFFFFFFFFFFFFFFFFFFFFFFFFFFFFFFFFF AND PUSH1 0x1 PUSH1 0x0 PUSH2 0x100 EXP DUP2 SLOAD DUP2 PUSH20 0xFFFFFFFFFFFFFFFFFFFFFFFFFFFFFFFFFFFFFFFF MUL NOT AND SWAP1 DUP4 PUSH20 0xFFFFFFFFFFFFFFFFFFFFFFFFFFFFFFFFFFFFFFFF AND MUL OR SWAP1 SSTORE POP PUSH1 0x0 DUP1 SLOAD SWAP1 PUSH2 0x100 EXP SWAP1 DIV PUSH20 0xFFFFFFFFFFFFFFFFFFFFFFFFFFFFFFFFFFFFFFFF AND PUSH1 0x2 PUSH1 0x0 PUSH2 0x100 EXP DUP2 SLOAD DUP2 PUSH20 0xFFFFFFFFFFFFFFFFFFFFFFFFFFFFFFFFFFFFFFFF MUL NOT AND SWAP1 DUP4 PUSH20 0xFFFFFFFFFFFFFFFFFFFFFFFFFFFFFFFFFFFFFFFF AND MUL OR SWAP1 SSTORE POP PUSH1 0x1 PUSH1 0x0 SWAP1 SLOAD SWAP1 PUSH2 0x100 EXP SWAP1 DIV PUSH20 0xFFFFFFFFFFFFFFFFFFFFFFFFFFFFFFFFFFFFFFFF AND PUSH1 0x3 PUSH1 0x0 PUSH2 0x100 EXP DUP2 SLOAD DUP2 PUSH20 0xFFFFFFFFFFFFFFFFFFFFFFFFFFFFFFFFFFFFFFFF MUL NOT AND SWAP1 DUP4 PUSH20 0xFFFFFFFFFFFFFFFFFFFFFFFFFFFFFFFFFFFFFFFF AND MUL OR SWAP1 SSTORE POP PUSH1 0x0 DUP1 SLOAD SWAP1 PUSH2 0x100 EXP SWAP1 DIV PUSH20 0xFFFFFFFFFFFFFFFFFFFFFFFFFFFFFFFFFFFFFFFF AND PUSH1 0x60 SHL PUSH1 0x4 PUSH1 0x0 PUSH2 0x100 EXP DUP2 SLOAD DUP2 PUSH20 0xFFFFFFFFFFFFFFFFFFFFFFFFFFFFFFFFFFFFFFFF MUL NOT AND SWAP1 DUP4 PUSH1 0x60 SHR MUL OR SWAP1 SSTORE POP CALLVALUE DUP1 ISZERO PUSH2 0x1DA JUMPI PUSH1 0x0 DUP1 REVERT JUMPDEST POP PUSH2 0x2E9 DUP1 PUSH2 0x1EA PUSH1 0x0 CODECOPY PUSH1 0x0 RETURN INVALID PUSH1 0x80 PUSH1 0x40 MSTORE CALLVALUE DUP1 ISZERO PUSH2 0x10 JUMPI PUSH1 0x0 DUP1 REVERT JUMPDEST POP PUSH1 0x4 CALLDATASIZE LT PUSH2 0x57 JUMPI PUSH1 0x0 CALLDATALOAD PUSH1 0xE0 SHR DUP1 PUSH4 0x527116D5 EQ PUSH2 0x5C JUMPI DUP1 PUSH4 0x8DE38F98 EQ PUSH2 0x7A JUMPI DUP1 PUSH4 0x9347E6D7 EQ PUSH2 0x98 JUMPI DUP1 PUSH4 0xEABE09AD EQ PUSH2 0xB6 JUMPI DUP1 PUSH4 0xFD7808F6 EQ PUSH2 0xD4 JUMPI JUMPDEST PUSH1 0x0 DUP1 REVERT JUMPDEST PUSH2 0x64 PUSH2 0xF2 JUMP JUMPDEST PUSH1 0x40 MLOAD PUSH2 0x71 SWAP2 SWAP1 PUSH2 0x1D6 JUMP JUMPDEST PUSH1 0x40 MLOAD DUP1 SWAP2 SUB SWAP1 RETURN JUMPDEST PUSH2 0x82 PUSH2 0x105 JUMP JUMPDEST PUSH1 0x40 MLOAD PUSH2 0x8F SWAP2 SWAP1 PUSH2 0x232 JUMP JUMPDEST PUSH1 0x40 MLOAD DUP1 SWAP2 SUB SWAP1 RETURN JUMPDEST PUSH2 0xA0 PUSH2 0x12B JUMP JUMPDEST PUSH1 0x40 MLOAD PUSH2 0xAD SWAP2 SWAP1 PUSH2 0x25C JUMP JUMPDEST PUSH1 0x40 MLOAD DUP1 SWAP2 SUB SWAP1 RETURN JUMPDEST PUSH2 0xBE PUSH2 0x151 JUMP JUMPDEST PUSH1 0x40 MLOAD PUSH2 0xCB SWAP2 SWAP1 PUSH2 0x298 JUMP JUMPDEST PUSH1 0x40 MLOAD DUP1 SWAP2 SUB SWAP1 RETURN JUMPDEST PUSH2 0xDC PUSH2 0x175 JUMP JUMPDEST PUSH1 0x40 MLOAD PUSH2 0xE9 SWAP2 SWAP1 PUSH2 0x25C JUMP JUMPDEST PUSH1 0x40 MLOAD DUP1 SWAP2 SUB SWAP1 RETURN JUMPDEST PUSH1 0x4 PUSH1 0x0 SWAP1 SLOAD SWAP1 PUSH2 0x100 EXP SWAP1 DIV PUSH1 0x60 SHL DUP2 JUMP JUMPDEST PUSH1 0x1 PUSH1 0x0 SWAP1 SLOAD SWAP1 PUSH2 0x100 EXP SWAP1 DIV PUSH20 0xFFFFFFFFFFFFFFFFFFFFFFFFFFFFFFFFFFFFFFFF AND DUP2 JUMP JUMPDEST PUSH1 0x2 PUSH1 0x0 SWAP1 SLOAD SWAP1 PUSH2 0x100 EXP SWAP1 DIV PUSH20 0xFFFFFFFFFFFFFFFFFFFFFFFFFFFFFFFFFFFFFFFF AND DUP2 JUMP JUMPDEST PUSH1 0x0 DUP1 SLOAD SWAP1 PUSH2 0x100 EXP SWAP1 DIV PUSH20 0xFFFFFFFFFFFFFFFFFFFFFFFFFFFFFFFFFFFFFFFF AND DUP2 JUMP JUMPDEST PUSH1 0x3 PUSH1 0x0 SWAP1 SLOAD SWAP1 PUSH2 0x100 EXP SWAP1 DIV PUSH20 0xFFFFFFFFFFFFFFFFFFFFFFFFFFFFFFFFFFFFFFFF AND DUP2 JUMP JUMPDEST PUSH1 0x0 PUSH32 0xFFFFFFFFFFFFFFFFFFFFFFFFFFFFFFFFFFFFFFFF000000000000000000000000 DUP3 AND SWAP1 POP SWAP2 SWAP1 POP JUMP JUMPDEST PUSH2 0x1D0 DUP2 PUSH2 0x19B JUMP JUMPDEST DUP3 MSTORE POP POP JUMP JUMPDEST PUSH1 0x0 PUSH1 0x20 DUP3 ADD SWAP1 POP PUSH2 0x1EB PUSH1 0x0 DUP4 ADD DUP5 PUSH2 0x1C7 JUMP JUMPDEST SWAP3 SWAP2 POP POP JUMP JUMPDEST PUSH1 0x0 PUSH20 0xFFFFFFFFFFFFFFFFFFFFFFFFFFFFFFFFFFFFFFFF DUP3 AND SWAP1 POP SWAP2 SWAP1 POP JUMP JUMPDEST PUSH1 0x0 PUSH2 0x21C DUP3 PUSH2 0x1F1 JUMP JUMPDEST SWAP1 POP SWAP2 SWAP1 POP JUMP JUMPDEST PUSH2 0x22C DUP2 PUSH2 0x211 JUMP JUMPDEST DUP3 MSTORE POP POP JUMP JUMPDEST PUSH1 0x0 PUSH1 0x20 DUP3 ADD SWAP1 POP PUSH2 0x247 PUSH1 0x0 DUP4 ADD DUP5 PUSH2 0x223 JUMP JUMPDEST SWAP3 SWAP2 POP POP JUMP JUMPDEST PUSH2 0x256 DUP2 PUSH2 0x1F1 JUMP JUMPDEST DUP3 MSTORE POP POP JUMP JUMPDEST PUSH1 0x0 PUSH1 0x20 DUP3 ADD SWAP1 POP PUSH2 0x271 PUSH1 0x0 DUP4 ADD DUP5 PUSH2 0x24D JUMP JUMPDEST SWAP3 SWAP2 POP POP JUMP JUMPDEST PUSH1 0x0 PUSH2 0x282 DUP3 PUSH2 0x1F1 JUMP JUMPDEST SWAP1 POP SWAP2 SWAP1 POP JUMP JUMPDEST PUSH2 0x292 DUP2 PUSH2 0x277 JUMP JUMPDEST DUP3 MSTORE POP POP JUMP JUMPDEST PUSH1 0x0 PUSH1 0x20 DUP3 ADD SWAP1 POP PUSH2 0x2AD PUSH1 0x0 DUP4 ADD DUP5 PUSH2 0x289 JUMP JUMPDEST SWAP3 SWAP2 POP POP JUMP INVALID LOG2 PUSH5 0x6970667358 0x22 SLT KECCAK256 0xB7 0xC2 ORIGIN SWAP6 0xEB 0xE1 SWAP13 CALLER SWAP15 POP CHAINID 0xA7 0xE4 0xFB DUP4 PUSH2 0xAB7C 0xAE PUSH26 0xEA8224D58BAC2669CE5D2E5864736F6C634300080F0033000000 "
				},
				"gasEstimates": {
					"creation": {
						"codeDepositCost": "149000",
						"executionCost": "130072",
						"totalCost": "279072"
					},
					"external": {
						"addr1()": "2555",
						"addr2()": "2514",
						"addr3()": "2493",
						"addr4()": "2537",
						"addr6()": "2449"
					}
				},
				"methodIdentifiers": {
					"addr1()": "eabe09ad",
					"addr2()": "8de38f98",
					"addr3()": "9347e6d7",
					"addr4()": "fd7808f6",
					"addr6()": "527116d5"
				}
			},
			"storageLayout": {
				"storage": [
					{
						"astId": 35,
						"contract": "chapter02/4conversion.sol:test3",
						"label": "addr1",
						"offset": 0,
						"slot": "0",
						"type": "t_address"
					},
					{
						"astId": 41,
						"contract": "chapter02/4conversion.sol:test3",
						"label": "addr2",
						"offset": 0,
						"slot": "1",
						"type": "t_address_payable"
					},
					{
						"astId": 47,
						"contract": "chapter02/4conversion.sol:test3",
						"label": "addr3",
						"offset": 0,
						"slot": "2",
						"type": "t_uint160"
					},
					{
						"astId": 56,
						"contract": "chapter02/4conversion.sol:test3",
						"label": "addr4",
						"offset": 0,
						"slot": "3",
						"type": "t_uint160"
					},
					{
						"astId": 62,
						"contract": "chapter02/4conversion.sol:test3",
						"label": "addr6",
						"offset": 0,
						"slot": "4",
						"type": "t_bytes20"
					}
				],
				"types": {
					"t_address": {
						"encoding": "inplace",
						"label": "address",
						"numberOfBytes": "20"
					},
					"t_address_payable": {
						"encoding": "inplace",
						"label": "address payable",
						"numberOfBytes": "20"
					},
					"t_bytes20": {
						"encoding": "inplace",
						"label": "bytes20",
						"numberOfBytes": "20"
					},
					"t_uint160": {
						"encoding": "inplace",
						"label": "uint160",
						"numberOfBytes": "20"
					}
				}
			},
			"userdoc": {
				"kind": "user",
				"methods": {},
				"version": 1
			}
		}
	}
}