{
	"chapter02/9type3.sol": {
		"type14": {
			"abi": [
				{
					"inputs": [],
					"name": "by",
					"outputs": [
						{
							"internalType": "bytes",
							"name": "",
							"type": "bytes"
						}
					],
					"stateMutability": "view",
					"type": "function"
				},
				{
					"inputs": [],
					"name": "contractaddr",
					"outputs": [
						{
							"internalType": "address",
							"name": "",
							"type": "address"
						}
					],
					"stateMutability": "view",
					"type": "function"
				},
				{
					"inputs": [
						{
							"internalType": "uint256",
							"name": "_a",
							"type": "uint256"
						}
					],
					"name": "setA",
					"outputs": [],
					"stateMutability": "nonpayable",
					"type": "function"
				},
				{
					"inputs": [],
					"name": "str",
					"outputs": [
						{
							"internalType": "string",
							"name": "",
							"type": "string"
						}
					],
					"stateMutability": "view",
					"type": "function"
				},
				{
					"inputs": [],
					"name": "str1",
					"outputs": [
						{
							"internalType": "string",
							"name": "",
							"type": "string"
						}
					],
					"stateMutability": "view",
					"type": "function"
				},
				{
					"inputs": [],
					"name": "t",
					"outputs": [
						{
							"internalType": "contract type13",
							"name": "",
							"type": "address"
						}
					],
					"stateMutability": "view",
					"type": "function"
				}
			],
			"devdoc": {
				"kind": "dev",
				"methods": {},
				"version": 1
			},
			"evm": {
				"assembly": "    /* \"chapter02/9type3.sol\":1546:2089  contract type14{... */\n  mstore(0x40, 0x80)\n    /* \"chapter02/9type3.sol\":1689:1731  0xE5f2A565Ee0Aa9836B4c80a07C8b32aAd7978e22 */\n  0xe5f2a565ee0aa9836b4c80a07c8b32aad7978e22\n    /* \"chapter02/9type3.sol\":1656:1733  type13 public t = type13(payable(0xE5f2A565Ee0Aa9836B4c80a07C8b32aAd7978e22)) */\n  0x00\n  dup1\n  0x0100\n  exp\n  dup2\n  sload\n  dup2\n  0xffffffffffffffffffffffffffffffffffffffff\n  mul\n  not\n  and\n  swap1\n  dup4\n  0xffffffffffffffffffffffffffffffffffffffff\n  and\n  mul\n  or\n  swap1\n  sstore\n  pop\n    /* \"chapter02/9type3.sol\":1846:1847  t */\n  0x00\n  dup1\n  sload\n  swap1\n  0x0100\n  exp\n  swap1\n  div\n  0xffffffffffffffffffffffffffffffffffffffff\n  and\n    /* \"chapter02/9type3.sol\":1808:1848  address public contractaddr = address(t) */\n  0x01\n  exp(0x0100, 0x00)\n  dup2\n  sload\n  dup2\n  0xffffffffffffffffffffffffffffffffffffffff\n  mul\n  not\n  and\n  swap1\n  dup4\n  0xffffffffffffffffffffffffffffffffffffffff\n  and\n  mul\n  or\n  swap1\n  sstore\n  pop\n    /* \"chapter02/9type3.sol\":1911:1912  t */\n  0x00\n  dup1\n  sload\n  swap1\n  0x0100\n  exp\n  swap1\n  div\n  0xffffffffffffffffffffffffffffffffffffffff\n  and\n    /* \"chapter02/9type3.sol\":1911:1928  t.getContractName */\n  0xffffffffffffffffffffffffffffffffffffffff\n  and\n  0xf5f5ba72\n    /* \"chapter02/9type3.sol\":1911:1930  t.getContractName() */\n  mload(0x40)\n  dup2\n  0xffffffff\n  and\n  0xe0\n  shl\n  dup2\n  mstore\n  0x04\n  add\n  0x00\n  mload(0x40)\n  dup1\n  dup4\n  sub\n  dup2\n  dup7\n  dup1\n  extcodesize\n  iszero\n  dup1\n  iszero\n  tag_1\n  jumpi\n  0x00\n  dup1\n  revert\ntag_1:\n  pop\n  gas\n  staticcall\n  iszero\n  dup1\n  iszero\n  tag_3\n  jumpi\n  returndatasize\n  0x00\n  dup1\n  returndatacopy\n  revert(0x00, returndatasize)\ntag_3:\n  pop\n  pop\n  pop\n  pop\n  mload(0x40)\n  returndatasize\n  0x00\n  dup3\n  returndatacopy\n  returndatasize\n  not(0x1f)\n  0x1f\n  dup3\n  add\n  and\n  dup3\n  add\n  dup1\n  0x40\n  mstore\n  pop\n  dup2\n  add\n  swap1\n  tag_4\n  swap2\n  swap1\n  tag_5\n  jump\t// in\ntag_4:\n    /* \"chapter02/9type3.sol\":1891:1930  string public str = t.getContractName() */\n  0x02\n  swap1\n  dup1\n  mload\n  swap1\n  0x20\n  add\n  swap1\n  tag_6\n  swap3\n  swap2\n  swap1\n  tag_7\n  jump\t// in\ntag_6:\n  pop\n    /* \"chapter02/9type3.sol\":2020:2037  type(type13).name */\n  mload(0x40)\n  dup1\n  0x40\n  add\n  0x40\n  mstore\n  0x06\n  dup2\n  mstore\n  dup1\n  0x20\n  add\n  0x7479706531330000000000000000000000000000000000000000000000000000\n  dup2\n  mstore\n  pop\n    /* \"chapter02/9type3.sol\":1999:2037  string public str1 = type(type13).name */\n  0x03\n  swap1\n  dup1\n  mload\n  swap1\n  0x20\n  add\n  swap1\n  tag_8\n  swap3\n  swap2\n  swap1\n  tag_7\n  jump\t// in\ntag_8:\n  pop\n    /* \"chapter02/9type3.sol\":2061:2086  type(type13).creationCode */\n  mload(0x40)\n  dup1\n  0x20\n  add\n  tag_9\n  swap1\n  tag_10\n  jump\t// in\ntag_9:\n  0x20\n  dup3\n  add\n  dup2\n  sub\n  dup3\n  mstore\n  not(0x1f)\n  0x1f\n  dup3\n  add\n  and\n  0x40\n  mstore\n  pop\n    /* \"chapter02/9type3.sol\":2043:2086  bytes public by = type(type13).creationCode */\n  0x04\n  swap1\n  dup1\n  mload\n  swap1\n  0x20\n  add\n  swap1\n  tag_11\n  swap3\n  swap2\n  swap1\n  tag_12\n  jump\t// in\ntag_11:\n  pop\n    /* \"chapter02/9type3.sol\":1546:2089  contract type14{... */\n  callvalue\n  dup1\n  iszero\n  tag_13\n  jumpi\n  0x00\n  dup1\n  revert\ntag_13:\n  pop\n  jump(tag_14)\ntag_7:\n  dup3\n  dup1\n  sload\n  tag_15\n  swap1\n  tag_16\n  jump\t// in\ntag_15:\n  swap1\n  0x00\n  mstore\n  keccak256(0x00, 0x20)\n  swap1\n  0x1f\n  add\n  0x20\n  swap1\n  div\n  dup2\n  add\n  swap3\n  dup3\n  tag_18\n  jumpi\n  0x00\n  dup6\n  sstore\n  jump(tag_17)\ntag_18:\n  dup3\n  0x1f\n  lt\n  tag_19\n  jumpi\n  dup1\n  mload\n  not(0xff)\n  and\n  dup4\n  dup1\n  add\n  or\n  dup6\n  sstore\n  jump(tag_17)\ntag_19:\n  dup3\n  dup1\n  add\n  0x01\n  add\n  dup6\n  sstore\n  dup3\n  iszero\n  tag_17\n  jumpi\n  swap2\n  dup3\n  add\ntag_20:\n  dup3\n  dup2\n  gt\n  iszero\n  tag_21\n  jumpi\n  dup3\n  mload\n  dup3\n  sstore\n  swap2\n  0x20\n  add\n  swap2\n  swap1\n  0x01\n  add\n  swap1\n  jump(tag_20)\ntag_21:\ntag_17:\n  pop\n  swap1\n  pop\n  tag_22\n  swap2\n  swap1\n  tag_23\n  jump\t// in\ntag_22:\n  pop\n  swap1\n  jump\t// out\ntag_10:\n  dataSize(sub_1)\n  dup1\n  dataOffset(sub_1)\n  dup4\n  codecopy\n  add\n  swap1\n  jump\t// out\ntag_12:\n  dup3\n  dup1\n  sload\n  tag_24\n  swap1\n  tag_16\n  jump\t// in\ntag_24:\n  swap1\n  0x00\n  mstore\n  keccak256(0x00, 0x20)\n  swap1\n  0x1f\n  add\n  0x20\n  swap1\n  div\n  dup2\n  add\n  swap3\n  dup3\n  tag_26\n  jumpi\n  0x00\n  dup6\n  sstore\n  jump(tag_25)\ntag_26:\n  dup3\n  0x1f\n  lt\n  tag_27\n  jumpi\n  dup1\n  mload\n  not(0xff)\n  and\n  dup4\n  dup1\n  add\n  or\n  dup6\n  sstore\n  jump(tag_25)\ntag_27:\n  dup3\n  dup1\n  add\n  0x01\n  add\n  dup6\n  sstore\n  dup3\n  iszero\n  tag_25\n  jumpi\n  swap2\n  dup3\n  add\ntag_28:\n  dup3\n  dup2\n  gt\n  iszero\n  tag_29\n  jumpi\n  dup3\n  mload\n  dup3\n  sstore\n  swap2\n  0x20\n  add\n  swap2\n  swap1\n  0x01\n  add\n  swap1\n  jump(tag_28)\ntag_29:\ntag_25:\n  pop\n  swap1\n  pop\n  tag_30\n  swap2\n  swap1\n  tag_23\n  jump\t// in\ntag_30:\n  pop\n  swap1\n  jump\t// out\ntag_23:\ntag_31:\n  dup1\n  dup3\n  gt\n  iszero\n  tag_32\n  jumpi\n  0x00\n  dup2\n  0x00\n  swap1\n  sstore\n  pop\n  0x01\n  add\n  jump(tag_31)\ntag_32:\n  pop\n  swap1\n  jump\t// out\n    /* \"#utility.yul\":7:360   */\ntag_34:\n  0x00\n    /* \"#utility.yul\":121:186   */\n  tag_36\n    /* \"#utility.yul\":136:185   */\n  tag_37\n    /* \"#utility.yul\":178:184   */\n  dup5\n    /* \"#utility.yul\":136:185   */\n  tag_38\n  jump\t// in\ntag_37:\n    /* \"#utility.yul\":121:186   */\n  tag_39\n  jump\t// in\ntag_36:\n    /* \"#utility.yul\":112:186   */\n  swap1\n  pop\n    /* \"#utility.yul\":209:215   */\n  dup3\n    /* \"#utility.yul\":202:207   */\n  dup2\n    /* \"#utility.yul\":195:216   */\n  mstore\n    /* \"#utility.yul\":247:251   */\n  0x20\n    /* \"#utility.yul\":240:245   */\n  dup2\n    /* \"#utility.yul\":236:252   */\n  add\n    /* \"#utility.yul\":285:288   */\n  dup5\n    /* \"#utility.yul\":276:282   */\n  dup5\n    /* \"#utility.yul\":271:274   */\n  dup5\n    /* \"#utility.yul\":267:283   */\n  add\n    /* \"#utility.yul\":264:289   */\n  gt\n    /* \"#utility.yul\":261:263   */\n  iszero\n  tag_40\n  jumpi\n    /* \"#utility.yul\":302:303   */\n  0x00\n    /* \"#utility.yul\":299:300   */\n  dup1\n    /* \"#utility.yul\":292:304   */\n  revert\n    /* \"#utility.yul\":261:263   */\ntag_40:\n    /* \"#utility.yul\":315:354   */\n  tag_41\n    /* \"#utility.yul\":347:353   */\n  dup5\n    /* \"#utility.yul\":342:345   */\n  dup3\n    /* \"#utility.yul\":337:340   */\n  dup6\n    /* \"#utility.yul\":315:354   */\n  tag_42\n  jump\t// in\ntag_41:\n    /* \"#utility.yul\":102:360   */\n  pop\n  swap4\n  swap3\n  pop\n  pop\n  pop\n  jump\t// out\n    /* \"#utility.yul\":380:668   */\ntag_43:\n  0x00\n    /* \"#utility.yul\":496:499   */\n  dup3\n    /* \"#utility.yul\":489:493   */\n  0x1f\n    /* \"#utility.yul\":481:487   */\n  dup4\n    /* \"#utility.yul\":477:494   */\n  add\n    /* \"#utility.yul\":473:500   */\n  slt\n    /* \"#utility.yul\":463:465   */\n  tag_45\n  jumpi\n    /* \"#utility.yul\":514:515   */\n  0x00\n    /* \"#utility.yul\":511:512   */\n  dup1\n    /* \"#utility.yul\":504:516   */\n  revert\n    /* \"#utility.yul\":463:465   */\ntag_45:\n    /* \"#utility.yul\":547:553   */\n  dup2\n    /* \"#utility.yul\":541:554   */\n  mload\n    /* \"#utility.yul\":572:662   */\n  tag_46\n    /* \"#utility.yul\":658:661   */\n  dup5\n    /* \"#utility.yul\":650:656   */\n  dup3\n    /* \"#utility.yul\":643:647   */\n  0x20\n    /* \"#utility.yul\":635:641   */\n  dup7\n    /* \"#utility.yul\":631:648   */\n  add\n    /* \"#utility.yul\":572:662   */\n  tag_34\n  jump\t// in\ntag_46:\n    /* \"#utility.yul\":563:662   */\n  swap2\n  pop\n    /* \"#utility.yul\":453:668   */\n  pop\n  swap3\n  swap2\n  pop\n  pop\n  jump\t// out\n    /* \"#utility.yul\":674:1064   */\ntag_5:\n  0x00\n    /* \"#utility.yul\":803:805   */\n  0x20\n    /* \"#utility.yul\":791:800   */\n  dup3\n    /* \"#utility.yul\":782:789   */\n  dup5\n    /* \"#utility.yul\":778:801   */\n  sub\n    /* \"#utility.yul\":774:806   */\n  slt\n    /* \"#utility.yul\":771:773   */\n  iszero\n  tag_48\n  jumpi\n    /* \"#utility.yul\":819:820   */\n  0x00\n    /* \"#utility.yul\":816:817   */\n  dup1\n    /* \"#utility.yul\":809:821   */\n  revert\n    /* \"#utility.yul\":771:773   */\ntag_48:\n    /* \"#utility.yul\":883:884   */\n  0x00\n    /* \"#utility.yul\":872:881   */\n  dup3\n    /* \"#utility.yul\":868:885   */\n  add\n    /* \"#utility.yul\":862:886   */\n  mload\n    /* \"#utility.yul\":913:931   */\n  0xffffffffffffffff\n    /* \"#utility.yul\":905:911   */\n  dup2\n    /* \"#utility.yul\":902:932   */\n  gt\n    /* \"#utility.yul\":899:901   */\n  iszero\n  tag_49\n  jumpi\n    /* \"#utility.yul\":945:946   */\n  0x00\n    /* \"#utility.yul\":942:943   */\n  dup1\n    /* \"#utility.yul\":935:947   */\n  revert\n    /* \"#utility.yul\":899:901   */\ntag_49:\n    /* \"#utility.yul\":973:1047   */\n  tag_50\n    /* \"#utility.yul\":1039:1046   */\n  dup5\n    /* \"#utility.yul\":1030:1036   */\n  dup3\n    /* \"#utility.yul\":1019:1028   */\n  dup6\n    /* \"#utility.yul\":1015:1037   */\n  add\n    /* \"#utility.yul\":973:1047   */\n  tag_43\n  jump\t// in\ntag_50:\n    /* \"#utility.yul\":963:1047   */\n  swap2\n  pop\n    /* \"#utility.yul\":833:1057   */\n  pop\n    /* \"#utility.yul\":761:1064   */\n  swap3\n  swap2\n  pop\n  pop\n  jump\t// out\n    /* \"#utility.yul\":1070:1353   */\ntag_39:\n  0x00\n    /* \"#utility.yul\":1136:1138   */\n  0x40\n    /* \"#utility.yul\":1130:1139   */\n  mload\n    /* \"#utility.yul\":1120:1139   */\n  swap1\n  pop\n    /* \"#utility.yul\":1178:1182   */\n  dup2\n    /* \"#utility.yul\":1170:1176   */\n  dup2\n    /* \"#utility.yul\":1166:1183   */\n  add\n    /* \"#utility.yul\":1285:1291   */\n  dup2\n    /* \"#utility.yul\":1273:1283   */\n  dup2\n    /* \"#utility.yul\":1270:1292   */\n  lt\n    /* \"#utility.yul\":1249:1267   */\n  0xffffffffffffffff\n    /* \"#utility.yul\":1237:1247   */\n  dup3\n    /* \"#utility.yul\":1234:1268   */\n  gt\n    /* \"#utility.yul\":1231:1293   */\n  or\n    /* \"#utility.yul\":1228:1230   */\n  iszero\n  tag_52\n  jumpi\n    /* \"#utility.yul\":1296:1314   */\n  tag_53\n  tag_54\n  jump\t// in\ntag_53:\n    /* \"#utility.yul\":1228:1230   */\ntag_52:\n    /* \"#utility.yul\":1336:1346   */\n  dup1\n    /* \"#utility.yul\":1332:1334   */\n  0x40\n    /* \"#utility.yul\":1325:1347   */\n  mstore\n    /* \"#utility.yul\":1110:1353   */\n  pop\n  swap2\n  swap1\n  pop\n  jump\t// out\n    /* \"#utility.yul\":1359:1691   */\ntag_38:\n  0x00\n    /* \"#utility.yul\":1511:1529   */\n  0xffffffffffffffff\n    /* \"#utility.yul\":1503:1509   */\n  dup3\n    /* \"#utility.yul\":1500:1530   */\n  gt\n    /* \"#utility.yul\":1497:1499   */\n  iszero\n  tag_56\n  jumpi\n    /* \"#utility.yul\":1533:1551   */\n  tag_57\n  tag_54\n  jump\t// in\ntag_57:\n    /* \"#utility.yul\":1497:1499   */\ntag_56:\n    /* \"#utility.yul\":1618:1622   */\n  0x1f\n    /* \"#utility.yul\":1614:1623   */\n  not\n    /* \"#utility.yul\":1607:1611   */\n  0x1f\n    /* \"#utility.yul\":1599:1605   */\n  dup4\n    /* \"#utility.yul\":1595:1612   */\n  add\n    /* \"#utility.yul\":1591:1624   */\n  and\n    /* \"#utility.yul\":1583:1624   */\n  swap1\n  pop\n    /* \"#utility.yul\":1679:1683   */\n  0x20\n    /* \"#utility.yul\":1673:1677   */\n  dup2\n    /* \"#utility.yul\":1669:1684   */\n  add\n    /* \"#utility.yul\":1661:1684   */\n  swap1\n  pop\n    /* \"#utility.yul\":1426:1691   */\n  swap2\n  swap1\n  pop\n  jump\t// out\n    /* \"#utility.yul\":1697:2004   */\ntag_42:\n    /* \"#utility.yul\":1765:1766   */\n  0x00\n    /* \"#utility.yul\":1775:1888   */\ntag_59:\n    /* \"#utility.yul\":1789:1795   */\n  dup4\n    /* \"#utility.yul\":1786:1787   */\n  dup2\n    /* \"#utility.yul\":1783:1796   */\n  lt\n    /* \"#utility.yul\":1775:1888   */\n  iszero\n  tag_61\n  jumpi\n    /* \"#utility.yul\":1874:1875   */\n  dup1\n    /* \"#utility.yul\":1869:1872   */\n  dup3\n    /* \"#utility.yul\":1865:1876   */\n  add\n    /* \"#utility.yul\":1859:1877   */\n  mload\n    /* \"#utility.yul\":1855:1856   */\n  dup2\n    /* \"#utility.yul\":1850:1853   */\n  dup5\n    /* \"#utility.yul\":1846:1857   */\n  add\n    /* \"#utility.yul\":1839:1878   */\n  mstore\n    /* \"#utility.yul\":1811:1813   */\n  0x20\n    /* \"#utility.yul\":1808:1809   */\n  dup2\n    /* \"#utility.yul\":1804:1814   */\n  add\n    /* \"#utility.yul\":1799:1814   */\n  swap1\n  pop\n    /* \"#utility.yul\":1775:1888   */\n  jump(tag_59)\ntag_61:\n    /* \"#utility.yul\":1906:1912   */\n  dup4\n    /* \"#utility.yul\":1903:1904   */\n  dup2\n    /* \"#utility.yul\":1900:1913   */\n  gt\n    /* \"#utility.yul\":1897:1899   */\n  iszero\n  tag_62\n  jumpi\n    /* \"#utility.yul\":1986:1987   */\n  0x00\n    /* \"#utility.yul\":1977:1983   */\n  dup5\n    /* \"#utility.yul\":1972:1975   */\n  dup5\n    /* \"#utility.yul\":1968:1984   */\n  add\n    /* \"#utility.yul\":1961:1988   */\n  mstore\n    /* \"#utility.yul\":1897:1899   */\ntag_62:\n    /* \"#utility.yul\":1746:2004   */\n  pop\n  pop\n  pop\n  pop\n  jump\t// out\n    /* \"#utility.yul\":2010:2330   */\ntag_16:\n  0x00\n    /* \"#utility.yul\":2091:2092   */\n  0x02\n    /* \"#utility.yul\":2085:2089   */\n  dup3\n    /* \"#utility.yul\":2081:2093   */\n  div\n    /* \"#utility.yul\":2071:2093   */\n  swap1\n  pop\n    /* \"#utility.yul\":2138:2139   */\n  0x01\n    /* \"#utility.yul\":2132:2136   */\n  dup3\n    /* \"#utility.yul\":2128:2140   */\n  and\n    /* \"#utility.yul\":2159:2177   */\n  dup1\n    /* \"#utility.yul\":2149:2151   */\n  tag_64\n  jumpi\n    /* \"#utility.yul\":2215:2219   */\n  0x7f\n    /* \"#utility.yul\":2207:2213   */\n  dup3\n    /* \"#utility.yul\":2203:2220   */\n  and\n    /* \"#utility.yul\":2193:2220   */\n  swap2\n  pop\n    /* \"#utility.yul\":2149:2151   */\ntag_64:\n    /* \"#utility.yul\":2277:2279   */\n  0x20\n    /* \"#utility.yul\":2269:2275   */\n  dup3\n    /* \"#utility.yul\":2266:2280   */\n  lt\n    /* \"#utility.yul\":2246:2264   */\n  dup2\n    /* \"#utility.yul\":2243:2281   */\n  eq\n    /* \"#utility.yul\":2240:2242   */\n  iszero\n  tag_65\n  jumpi\n    /* \"#utility.yul\":2296:2314   */\n  tag_66\n  tag_67\n  jump\t// in\ntag_66:\n    /* \"#utility.yul\":2240:2242   */\ntag_65:\n    /* \"#utility.yul\":2061:2330   */\n  pop\n  swap2\n  swap1\n  pop\n  jump\t// out\n    /* \"#utility.yul\":2336:2516   */\ntag_67:\n    /* \"#utility.yul\":2384:2461   */\n  0x4e487b7100000000000000000000000000000000000000000000000000000000\n    /* \"#utility.yul\":2381:2382   */\n  0x00\n    /* \"#utility.yul\":2374:2462   */\n  mstore\n    /* \"#utility.yul\":2481:2485   */\n  0x22\n    /* \"#utility.yul\":2478:2479   */\n  0x04\n    /* \"#utility.yul\":2471:2486   */\n  mstore\n    /* \"#utility.yul\":2505:2509   */\n  0x24\n    /* \"#utility.yul\":2502:2503   */\n  0x00\n    /* \"#utility.yul\":2495:2510   */\n  revert\n    /* \"#utility.yul\":2522:2702   */\ntag_54:\n    /* \"#utility.yul\":2570:2647   */\n  0x4e487b7100000000000000000000000000000000000000000000000000000000\n    /* \"#utility.yul\":2567:2568   */\n  0x00\n    /* \"#utility.yul\":2560:2648   */\n  mstore\n    /* \"#utility.yul\":2667:2671   */\n  0x41\n    /* \"#utility.yul\":2664:2665   */\n  0x04\n    /* \"#utility.yul\":2657:2672   */\n  mstore\n    /* \"#utility.yul\":2691:2695   */\n  0x24\n    /* \"#utility.yul\":2688:2689   */\n  0x00\n    /* \"#utility.yul\":2681:2696   */\n  revert\n    /* \"chapter02/9type3.sol\":1546:2089  contract type14{... */\ntag_14:\n  dataSize(sub_0)\n  dup1\n  dataOffset(sub_0)\n  0x00\n  codecopy\n  0x00\n  return\nstop\n\nsub_0: assembly {\n        /* \"chapter02/9type3.sol\":1546:2089  contract type14{... */\n      mstore(0x40, 0x80)\n      callvalue\n      dup1\n      iszero\n      tag_1\n      jumpi\n      0x00\n      dup1\n      revert\n    tag_1:\n      pop\n      jumpi(tag_2, lt(calldatasize, 0x04))\n      shr(0xe0, calldataload(0x00))\n      dup1\n      0x7c000138\n      eq\n      tag_3\n      jumpi\n      dup1\n      0x92d0d153\n      eq\n      tag_4\n      jumpi\n      dup1\n      0xc15bae84\n      eq\n      tag_5\n      jumpi\n      dup1\n      0xd01bb4d5\n      eq\n      tag_6\n      jumpi\n      dup1\n      0xd118d187\n      eq\n      tag_7\n      jumpi\n      dup1\n      0xee919d50\n      eq\n      tag_8\n      jumpi\n    tag_2:\n      0x00\n      dup1\n      revert\n        /* \"chapter02/9type3.sol\":2043:2086  bytes public by = type(type13).creationCode */\n    tag_3:\n      tag_9\n      tag_10\n      jump\t// in\n    tag_9:\n      mload(0x40)\n      tag_11\n      swap2\n      swap1\n      tag_12\n      jump\t// in\n    tag_11:\n      mload(0x40)\n      dup1\n      swap2\n      sub\n      swap1\n      return\n        /* \"chapter02/9type3.sol\":1656:1733  type13 public t = type13(payable(0xE5f2A565Ee0Aa9836B4c80a07C8b32aAd7978e22)) */\n    tag_4:\n      tag_13\n      tag_14\n      jump\t// in\n    tag_13:\n      mload(0x40)\n      tag_15\n      swap2\n      swap1\n      tag_16\n      jump\t// in\n    tag_15:\n      mload(0x40)\n      dup1\n      swap2\n      sub\n      swap1\n      return\n        /* \"chapter02/9type3.sol\":1891:1930  string public str = t.getContractName() */\n    tag_5:\n      tag_17\n      tag_18\n      jump\t// in\n    tag_17:\n      mload(0x40)\n      tag_19\n      swap2\n      swap1\n      tag_20\n      jump\t// in\n    tag_19:\n      mload(0x40)\n      dup1\n      swap2\n      sub\n      swap1\n      return\n        /* \"chapter02/9type3.sol\":1808:1848  address public contractaddr = address(t) */\n    tag_6:\n      tag_21\n      tag_22\n      jump\t// in\n    tag_21:\n      mload(0x40)\n      tag_23\n      swap2\n      swap1\n      tag_24\n      jump\t// in\n    tag_23:\n      mload(0x40)\n      dup1\n      swap2\n      sub\n      swap1\n      return\n        /* \"chapter02/9type3.sol\":1999:2037  string public str1 = type(type13).name */\n    tag_7:\n      tag_25\n      tag_26\n      jump\t// in\n    tag_25:\n      mload(0x40)\n      tag_27\n      swap2\n      swap1\n      tag_20\n      jump\t// in\n    tag_27:\n      mload(0x40)\n      dup1\n      swap2\n      sub\n      swap1\n      return\n        /* \"chapter02/9type3.sol\":1936:1994  function setA(uint _a)external {... */\n    tag_8:\n      tag_28\n      0x04\n      dup1\n      calldatasize\n      sub\n      dup2\n      add\n      swap1\n      tag_29\n      swap2\n      swap1\n      tag_30\n      jump\t// in\n    tag_29:\n      tag_31\n      jump\t// in\n    tag_28:\n      stop\n        /* \"chapter02/9type3.sol\":2043:2086  bytes public by = type(type13).creationCode */\n    tag_10:\n      0x04\n      dup1\n      sload\n      tag_32\n      swap1\n      tag_33\n      jump\t// in\n    tag_32:\n      dup1\n      0x1f\n      add\n      0x20\n      dup1\n      swap2\n      div\n      mul\n      0x20\n      add\n      mload(0x40)\n      swap1\n      dup2\n      add\n      0x40\n      mstore\n      dup1\n      swap3\n      swap2\n      swap1\n      dup2\n      dup2\n      mstore\n      0x20\n      add\n      dup3\n      dup1\n      sload\n      tag_34\n      swap1\n      tag_33\n      jump\t// in\n    tag_34:\n      dup1\n      iszero\n      tag_35\n      jumpi\n      dup1\n      0x1f\n      lt\n      tag_36\n      jumpi\n      0x0100\n      dup1\n      dup4\n      sload\n      div\n      mul\n      dup4\n      mstore\n      swap2\n      0x20\n      add\n      swap2\n      jump(tag_35)\n    tag_36:\n      dup3\n      add\n      swap2\n      swap1\n      0x00\n      mstore\n      keccak256(0x00, 0x20)\n      swap1\n    tag_37:\n      dup2\n      sload\n      dup2\n      mstore\n      swap1\n      0x01\n      add\n      swap1\n      0x20\n      add\n      dup1\n      dup4\n      gt\n      tag_37\n      jumpi\n      dup3\n      swap1\n      sub\n      0x1f\n      and\n      dup3\n      add\n      swap2\n    tag_35:\n      pop\n      pop\n      pop\n      pop\n      pop\n      dup2\n      jump\t// out\n        /* \"chapter02/9type3.sol\":1656:1733  type13 public t = type13(payable(0xE5f2A565Ee0Aa9836B4c80a07C8b32aAd7978e22)) */\n    tag_14:\n      0x00\n      dup1\n      sload\n      swap1\n      0x0100\n      exp\n      swap1\n      div\n      0xffffffffffffffffffffffffffffffffffffffff\n      and\n      dup2\n      jump\t// out\n        /* \"chapter02/9type3.sol\":1891:1930  string public str = t.getContractName() */\n    tag_18:\n      0x02\n      dup1\n      sload\n      tag_38\n      swap1\n      tag_33\n      jump\t// in\n    tag_38:\n      dup1\n      0x1f\n      add\n      0x20\n      dup1\n      swap2\n      div\n      mul\n      0x20\n      add\n      mload(0x40)\n      swap1\n      dup2\n      add\n      0x40\n      mstore\n      dup1\n      swap3\n      swap2\n      swap1\n      dup2\n      dup2\n      mstore\n      0x20\n      add\n      dup3\n      dup1\n      sload\n      tag_39\n      swap1\n      tag_33\n      jump\t// in\n    tag_39:\n      dup1\n      iszero\n      tag_40\n      jumpi\n      dup1\n      0x1f\n      lt\n      tag_41\n      jumpi\n      0x0100\n      dup1\n      dup4\n      sload\n      div\n      mul\n      dup4\n      mstore\n      swap2\n      0x20\n      add\n      swap2\n      jump(tag_40)\n    tag_41:\n      dup3\n      add\n      swap2\n      swap1\n      0x00\n      mstore\n      keccak256(0x00, 0x20)\n      swap1\n    tag_42:\n      dup2\n      sload\n      dup2\n      mstore\n      swap1\n      0x01\n      add\n      swap1\n      0x20\n      add\n      dup1\n      dup4\n      gt\n      tag_42\n      jumpi\n      dup3\n      swap1\n      sub\n      0x1f\n      and\n      dup3\n      add\n      swap2\n    tag_40:\n      pop\n      pop\n      pop\n      pop\n      pop\n      dup2\n      jump\t// out\n        /* \"chapter02/9type3.sol\":1808:1848  address public contractaddr = address(t) */\n    tag_22:\n      0x01\n      0x00\n      swap1\n      sload\n      swap1\n      0x0100\n      exp\n      swap1\n      div\n      0xffffffffffffffffffffffffffffffffffffffff\n      and\n      dup2\n      jump\t// out\n        /* \"chapter02/9type3.sol\":1999:2037  string public str1 = type(type13).name */\n    tag_26:\n      0x03\n      dup1\n      sload\n      tag_43\n      swap1\n      tag_33\n      jump\t// in\n    tag_43:\n      dup1\n      0x1f\n      add\n      0x20\n      dup1\n      swap2\n      div\n      mul\n      0x20\n      add\n      mload(0x40)\n      swap1\n      dup2\n      add\n      0x40\n      mstore\n      dup1\n      swap3\n      swap2\n      swap1\n      dup2\n      dup2\n      mstore\n      0x20\n      add\n      dup3\n      dup1\n      sload\n      tag_44\n      swap1\n      tag_33\n      jump\t// in\n    tag_44:\n      dup1\n      iszero\n      tag_45\n      jumpi\n      dup1\n      0x1f\n      lt\n      tag_46\n      jumpi\n      0x0100\n      dup1\n      dup4\n      sload\n      div\n      mul\n      dup4\n      mstore\n      swap2\n      0x20\n      add\n      swap2\n      jump(tag_45)\n    tag_46:\n      dup3\n      add\n      swap2\n      swap1\n      0x00\n      mstore\n      keccak256(0x00, 0x20)\n      swap1\n    tag_47:\n      dup2\n      sload\n      dup2\n      mstore\n      swap1\n      0x01\n      add\n      swap1\n      0x20\n      add\n      dup1\n      dup4\n      gt\n      tag_47\n      jumpi\n      dup3\n      swap1\n      sub\n      0x1f\n      and\n      dup3\n      add\n      swap2\n    tag_45:\n      pop\n      pop\n      pop\n      pop\n      pop\n      dup2\n      jump\t// out\n        /* \"chapter02/9type3.sol\":1936:1994  function setA(uint _a)external {... */\n    tag_31:\n        /* \"chapter02/9type3.sol\":1977:1978  t */\n      0x00\n      dup1\n      sload\n      swap1\n      0x0100\n      exp\n      swap1\n      div\n      0xffffffffffffffffffffffffffffffffffffffff\n      and\n        /* \"chapter02/9type3.sol\":1977:1983  t.setA */\n      0xffffffffffffffffffffffffffffffffffffffff\n      and\n      0xee919d50\n        /* \"chapter02/9type3.sol\":1984:1986  _a */\n      dup3\n        /* \"chapter02/9type3.sol\":1977:1987  t.setA(_a) */\n      mload(0x40)\n      dup3\n      0xffffffff\n      and\n      0xe0\n      shl\n      dup2\n      mstore\n      0x04\n      add\n      tag_49\n      swap2\n      swap1\n      tag_50\n      jump\t// in\n    tag_49:\n      0x00\n      mload(0x40)\n      dup1\n      dup4\n      sub\n      dup2\n      0x00\n      dup8\n      dup1\n      extcodesize\n      iszero\n      dup1\n      iszero\n      tag_51\n      jumpi\n      0x00\n      dup1\n      revert\n    tag_51:\n      pop\n      gas\n      call\n      iszero\n      dup1\n      iszero\n      tag_53\n      jumpi\n      returndatasize\n      0x00\n      dup1\n      returndatacopy\n      revert(0x00, returndatasize)\n    tag_53:\n      pop\n      pop\n      pop\n      pop\n        /* \"chapter02/9type3.sol\":1936:1994  function setA(uint _a)external {... */\n      pop\n      jump\t// out\n        /* \"#utility.yul\":7:146   */\n    tag_55:\n      0x00\n        /* \"#utility.yul\":91:97   */\n      dup2\n        /* \"#utility.yul\":78:98   */\n      calldataload\n        /* \"#utility.yul\":69:98   */\n      swap1\n      pop\n        /* \"#utility.yul\":107:140   */\n      tag_57\n        /* \"#utility.yul\":134:139   */\n      dup2\n        /* \"#utility.yul\":107:140   */\n      tag_58\n      jump\t// in\n    tag_57:\n        /* \"#utility.yul\":59:146   */\n      swap3\n      swap2\n      pop\n      pop\n      jump\t// out\n        /* \"#utility.yul\":152:414   */\n    tag_30:\n      0x00\n        /* \"#utility.yul\":260:262   */\n      0x20\n        /* \"#utility.yul\":248:257   */\n      dup3\n        /* \"#utility.yul\":239:246   */\n      dup5\n        /* \"#utility.yul\":235:258   */\n      sub\n        /* \"#utility.yul\":231:263   */\n      slt\n        /* \"#utility.yul\":228:230   */\n      iszero\n      tag_60\n      jumpi\n        /* \"#utility.yul\":276:277   */\n      0x00\n        /* \"#utility.yul\":273:274   */\n      dup1\n        /* \"#utility.yul\":266:278   */\n      revert\n        /* \"#utility.yul\":228:230   */\n    tag_60:\n        /* \"#utility.yul\":319:320   */\n      0x00\n        /* \"#utility.yul\":344:397   */\n      tag_61\n        /* \"#utility.yul\":389:396   */\n      dup5\n        /* \"#utility.yul\":380:386   */\n      dup3\n        /* \"#utility.yul\":369:378   */\n      dup6\n        /* \"#utility.yul\":365:387   */\n      add\n        /* \"#utility.yul\":344:397   */\n      tag_55\n      jump\t// in\n    tag_61:\n        /* \"#utility.yul\":334:397   */\n      swap2\n      pop\n        /* \"#utility.yul\":290:407   */\n      pop\n        /* \"#utility.yul\":218:414   */\n      swap3\n      swap2\n      pop\n      pop\n      jump\t// out\n        /* \"#utility.yul\":420:538   */\n    tag_62:\n        /* \"#utility.yul\":507:531   */\n      tag_64\n        /* \"#utility.yul\":525:530   */\n      dup2\n        /* \"#utility.yul\":507:531   */\n      tag_65\n      jump\t// in\n    tag_64:\n        /* \"#utility.yul\":502:505   */\n      dup3\n        /* \"#utility.yul\":495:532   */\n      mstore\n        /* \"#utility.yul\":485:538   */\n      pop\n      pop\n      jump\t// out\n        /* \"#utility.yul\":544:904   */\n    tag_66:\n      0x00\n        /* \"#utility.yul\":658:696   */\n      tag_68\n        /* \"#utility.yul\":690:695   */\n      dup3\n        /* \"#utility.yul\":658:696   */\n      tag_69\n      jump\t// in\n    tag_68:\n        /* \"#utility.yul\":712:782   */\n      tag_70\n        /* \"#utility.yul\":775:781   */\n      dup2\n        /* \"#utility.yul\":770:773   */\n      dup6\n        /* \"#utility.yul\":712:782   */\n      tag_71\n      jump\t// in\n    tag_70:\n        /* \"#utility.yul\":705:782   */\n      swap4\n      pop\n        /* \"#utility.yul\":791:843   */\n      tag_72\n        /* \"#utility.yul\":836:842   */\n      dup2\n        /* \"#utility.yul\":831:834   */\n      dup6\n        /* \"#utility.yul\":824:828   */\n      0x20\n        /* \"#utility.yul\":817:822   */\n      dup7\n        /* \"#utility.yul\":813:829   */\n      add\n        /* \"#utility.yul\":791:843   */\n      tag_73\n      jump\t// in\n    tag_72:\n        /* \"#utility.yul\":868:897   */\n      tag_74\n        /* \"#utility.yul\":890:896   */\n      dup2\n        /* \"#utility.yul\":868:897   */\n      tag_75\n      jump\t// in\n    tag_74:\n        /* \"#utility.yul\":863:866   */\n      dup5\n        /* \"#utility.yul\":859:898   */\n      add\n        /* \"#utility.yul\":852:898   */\n      swap2\n      pop\n        /* \"#utility.yul\":634:904   */\n      pop\n      swap3\n      swap2\n      pop\n      pop\n      jump\t// out\n        /* \"#utility.yul\":910:1085   */\n    tag_76:\n        /* \"#utility.yul\":1019:1078   */\n      tag_78\n        /* \"#utility.yul\":1072:1077   */\n      dup2\n        /* \"#utility.yul\":1019:1078   */\n      tag_79\n      jump\t// in\n    tag_78:\n        /* \"#utility.yul\":1014:1017   */\n      dup3\n        /* \"#utility.yul\":1007:1079   */\n      mstore\n        /* \"#utility.yul\":997:1085   */\n      pop\n      pop\n      jump\t// out\n        /* \"#utility.yul\":1091:1455   */\n    tag_80:\n      0x00\n        /* \"#utility.yul\":1207:1246   */\n      tag_82\n        /* \"#utility.yul\":1240:1245   */\n      dup3\n        /* \"#utility.yul\":1207:1246   */\n      tag_83\n      jump\t// in\n    tag_82:\n        /* \"#utility.yul\":1262:1333   */\n      tag_84\n        /* \"#utility.yul\":1326:1332   */\n      dup2\n        /* \"#utility.yul\":1321:1324   */\n      dup6\n        /* \"#utility.yul\":1262:1333   */\n      tag_85\n      jump\t// in\n    tag_84:\n        /* \"#utility.yul\":1255:1333   */\n      swap4\n      pop\n        /* \"#utility.yul\":1342:1394   */\n      tag_86\n        /* \"#utility.yul\":1387:1393   */\n      dup2\n        /* \"#utility.yul\":1382:1385   */\n      dup6\n        /* \"#utility.yul\":1375:1379   */\n      0x20\n        /* \"#utility.yul\":1368:1373   */\n      dup7\n        /* \"#utility.yul\":1364:1380   */\n      add\n        /* \"#utility.yul\":1342:1394   */\n      tag_73\n      jump\t// in\n    tag_86:\n        /* \"#utility.yul\":1419:1448   */\n      tag_87\n        /* \"#utility.yul\":1441:1447   */\n      dup2\n        /* \"#utility.yul\":1419:1448   */\n      tag_75\n      jump\t// in\n    tag_87:\n        /* \"#utility.yul\":1414:1417   */\n      dup5\n        /* \"#utility.yul\":1410:1449   */\n      add\n        /* \"#utility.yul\":1403:1449   */\n      swap2\n      pop\n        /* \"#utility.yul\":1183:1455   */\n      pop\n      swap3\n      swap2\n      pop\n      pop\n      jump\t// out\n        /* \"#utility.yul\":1461:1579   */\n    tag_88:\n        /* \"#utility.yul\":1548:1572   */\n      tag_90\n        /* \"#utility.yul\":1566:1571   */\n      dup2\n        /* \"#utility.yul\":1548:1572   */\n      tag_91\n      jump\t// in\n    tag_90:\n        /* \"#utility.yul\":1543:1546   */\n      dup3\n        /* \"#utility.yul\":1536:1573   */\n      mstore\n        /* \"#utility.yul\":1526:1579   */\n      pop\n      pop\n      jump\t// out\n        /* \"#utility.yul\":1585:1807   */\n    tag_24:\n      0x00\n        /* \"#utility.yul\":1716:1718   */\n      0x20\n        /* \"#utility.yul\":1705:1714   */\n      dup3\n        /* \"#utility.yul\":1701:1719   */\n      add\n        /* \"#utility.yul\":1693:1719   */\n      swap1\n      pop\n        /* \"#utility.yul\":1729:1800   */\n      tag_93\n        /* \"#utility.yul\":1797:1798   */\n      0x00\n        /* \"#utility.yul\":1786:1795   */\n      dup4\n        /* \"#utility.yul\":1782:1799   */\n      add\n        /* \"#utility.yul\":1773:1779   */\n      dup5\n        /* \"#utility.yul\":1729:1800   */\n      tag_62\n      jump\t// in\n    tag_93:\n        /* \"#utility.yul\":1683:1807   */\n      swap3\n      swap2\n      pop\n      pop\n      jump\t// out\n        /* \"#utility.yul\":1813:2122   */\n    tag_12:\n      0x00\n        /* \"#utility.yul\":1962:1964   */\n      0x20\n        /* \"#utility.yul\":1951:1960   */\n      dup3\n        /* \"#utility.yul\":1947:1965   */\n      add\n        /* \"#utility.yul\":1939:1965   */\n      swap1\n      pop\n        /* \"#utility.yul\":2011:2020   */\n      dup2\n        /* \"#utility.yul\":2005:2009   */\n      dup2\n        /* \"#utility.yul\":2001:2021   */\n      sub\n        /* \"#utility.yul\":1997:1998   */\n      0x00\n        /* \"#utility.yul\":1986:1995   */\n      dup4\n        /* \"#utility.yul\":1982:1999   */\n      add\n        /* \"#utility.yul\":1975:2022   */\n      mstore\n        /* \"#utility.yul\":2039:2115   */\n      tag_95\n        /* \"#utility.yul\":2110:2114   */\n      dup2\n        /* \"#utility.yul\":2101:2107   */\n      dup5\n        /* \"#utility.yul\":2039:2115   */\n      tag_66\n      jump\t// in\n    tag_95:\n        /* \"#utility.yul\":2031:2115   */\n      swap1\n      pop\n        /* \"#utility.yul\":1929:2122   */\n      swap3\n      swap2\n      pop\n      pop\n      jump\t// out\n        /* \"#utility.yul\":2128:2394   */\n    tag_16:\n      0x00\n        /* \"#utility.yul\":2281:2283   */\n      0x20\n        /* \"#utility.yul\":2270:2279   */\n      dup3\n        /* \"#utility.yul\":2266:2284   */\n      add\n        /* \"#utility.yul\":2258:2284   */\n      swap1\n      pop\n        /* \"#utility.yul\":2294:2387   */\n      tag_97\n        /* \"#utility.yul\":2384:2385   */\n      0x00\n        /* \"#utility.yul\":2373:2382   */\n      dup4\n        /* \"#utility.yul\":2369:2386   */\n      add\n        /* \"#utility.yul\":2360:2366   */\n      dup5\n        /* \"#utility.yul\":2294:2387   */\n      tag_76\n      jump\t// in\n    tag_97:\n        /* \"#utility.yul\":2248:2394   */\n      swap3\n      swap2\n      pop\n      pop\n      jump\t// out\n        /* \"#utility.yul\":2400:2713   */\n    tag_20:\n      0x00\n        /* \"#utility.yul\":2551:2553   */\n      0x20\n        /* \"#utility.yul\":2540:2549   */\n      dup3\n        /* \"#utility.yul\":2536:2554   */\n      add\n        /* \"#utility.yul\":2528:2554   */\n      swap1\n      pop\n        /* \"#utility.yul\":2600:2609   */\n      dup2\n        /* \"#utility.yul\":2594:2598   */\n      dup2\n        /* \"#utility.yul\":2590:2610   */\n      sub\n        /* \"#utility.yul\":2586:2587   */\n      0x00\n        /* \"#utility.yul\":2575:2584   */\n      dup4\n        /* \"#utility.yul\":2571:2588   */\n      add\n        /* \"#utility.yul\":2564:2611   */\n      mstore\n        /* \"#utility.yul\":2628:2706   */\n      tag_99\n        /* \"#utility.yul\":2701:2705   */\n      dup2\n        /* \"#utility.yul\":2692:2698   */\n      dup5\n        /* \"#utility.yul\":2628:2706   */\n      tag_80\n      jump\t// in\n    tag_99:\n        /* \"#utility.yul\":2620:2706   */\n      swap1\n      pop\n        /* \"#utility.yul\":2518:2713   */\n      swap3\n      swap2\n      pop\n      pop\n      jump\t// out\n        /* \"#utility.yul\":2719:2941   */\n    tag_50:\n      0x00\n        /* \"#utility.yul\":2850:2852   */\n      0x20\n        /* \"#utility.yul\":2839:2848   */\n      dup3\n        /* \"#utility.yul\":2835:2853   */\n      add\n        /* \"#utility.yul\":2827:2853   */\n      swap1\n      pop\n        /* \"#utility.yul\":2863:2934   */\n      tag_101\n        /* \"#utility.yul\":2931:2932   */\n      0x00\n        /* \"#utility.yul\":2920:2929   */\n      dup4\n        /* \"#utility.yul\":2916:2933   */\n      add\n        /* \"#utility.yul\":2907:2913   */\n      dup5\n        /* \"#utility.yul\":2863:2934   */\n      tag_88\n      jump\t// in\n    tag_101:\n        /* \"#utility.yul\":2817:2941   */\n      swap3\n      swap2\n      pop\n      pop\n      jump\t// out\n        /* \"#utility.yul\":2947:3045   */\n    tag_69:\n      0x00\n        /* \"#utility.yul\":3032:3037   */\n      dup2\n        /* \"#utility.yul\":3026:3038   */\n      mload\n        /* \"#utility.yul\":3016:3038   */\n      swap1\n      pop\n        /* \"#utility.yul\":3005:3045   */\n      swap2\n      swap1\n      pop\n      jump\t// out\n        /* \"#utility.yul\":3051:3150   */\n    tag_83:\n      0x00\n        /* \"#utility.yul\":3137:3142   */\n      dup2\n        /* \"#utility.yul\":3131:3143   */\n      mload\n        /* \"#utility.yul\":3121:3143   */\n      swap1\n      pop\n        /* \"#utility.yul\":3110:3150   */\n      swap2\n      swap1\n      pop\n      jump\t// out\n        /* \"#utility.yul\":3156:3324   */\n    tag_71:\n      0x00\n        /* \"#utility.yul\":3273:3279   */\n      dup3\n        /* \"#utility.yul\":3268:3271   */\n      dup3\n        /* \"#utility.yul\":3261:3280   */\n      mstore\n        /* \"#utility.yul\":3313:3317   */\n      0x20\n        /* \"#utility.yul\":3308:3311   */\n      dup3\n        /* \"#utility.yul\":3304:3318   */\n      add\n        /* \"#utility.yul\":3289:3318   */\n      swap1\n      pop\n        /* \"#utility.yul\":3251:3324   */\n      swap3\n      swap2\n      pop\n      pop\n      jump\t// out\n        /* \"#utility.yul\":3330:3499   */\n    tag_85:\n      0x00\n        /* \"#utility.yul\":3448:3454   */\n      dup3\n        /* \"#utility.yul\":3443:3446   */\n      dup3\n        /* \"#utility.yul\":3436:3455   */\n      mstore\n        /* \"#utility.yul\":3488:3492   */\n      0x20\n        /* \"#utility.yul\":3483:3486   */\n      dup3\n        /* \"#utility.yul\":3479:3493   */\n      add\n        /* \"#utility.yul\":3464:3493   */\n      swap1\n      pop\n        /* \"#utility.yul\":3426:3499   */\n      swap3\n      swap2\n      pop\n      pop\n      jump\t// out\n        /* \"#utility.yul\":3505:3601   */\n    tag_65:\n      0x00\n        /* \"#utility.yul\":3571:3595   */\n      tag_107\n        /* \"#utility.yul\":3589:3594   */\n      dup3\n        /* \"#utility.yul\":3571:3595   */\n      tag_108\n      jump\t// in\n    tag_107:\n        /* \"#utility.yul\":3560:3595   */\n      swap1\n      pop\n        /* \"#utility.yul\":3550:3601   */\n      swap2\n      swap1\n      pop\n      jump\t// out\n        /* \"#utility.yul\":3607:3733   */\n    tag_108:\n      0x00\n        /* \"#utility.yul\":3684:3726   */\n      0xffffffffffffffffffffffffffffffffffffffff\n        /* \"#utility.yul\":3677:3682   */\n      dup3\n        /* \"#utility.yul\":3673:3727   */\n      and\n        /* \"#utility.yul\":3662:3727   */\n      swap1\n      pop\n        /* \"#utility.yul\":3652:3733   */\n      swap2\n      swap1\n      pop\n      jump\t// out\n        /* \"#utility.yul\":3739:3816   */\n    tag_91:\n      0x00\n        /* \"#utility.yul\":3805:3810   */\n      dup2\n        /* \"#utility.yul\":3794:3810   */\n      swap1\n      pop\n        /* \"#utility.yul\":3784:3816   */\n      swap2\n      swap1\n      pop\n      jump\t// out\n        /* \"#utility.yul\":3822:3984   */\n    tag_79:\n      0x00\n        /* \"#utility.yul\":3927:3978   */\n      tag_112\n        /* \"#utility.yul\":3972:3977   */\n      dup3\n        /* \"#utility.yul\":3927:3978   */\n      tag_113\n      jump\t// in\n    tag_112:\n        /* \"#utility.yul\":3914:3978   */\n      swap1\n      pop\n        /* \"#utility.yul\":3904:3984   */\n      swap2\n      swap1\n      pop\n      jump\t// out\n        /* \"#utility.yul\":3990:4117   */\n    tag_113:\n      0x00\n        /* \"#utility.yul\":4087:4111   */\n      tag_115\n        /* \"#utility.yul\":4105:4110   */\n      dup3\n        /* \"#utility.yul\":4087:4111   */\n      tag_108\n      jump\t// in\n    tag_115:\n        /* \"#utility.yul\":4074:4111   */\n      swap1\n      pop\n        /* \"#utility.yul\":4064:4117   */\n      swap2\n      swap1\n      pop\n      jump\t// out\n        /* \"#utility.yul\":4123:4430   */\n    tag_73:\n        /* \"#utility.yul\":4191:4192   */\n      0x00\n        /* \"#utility.yul\":4201:4314   */\n    tag_117:\n        /* \"#utility.yul\":4215:4221   */\n      dup4\n        /* \"#utility.yul\":4212:4213   */\n      dup2\n        /* \"#utility.yul\":4209:4222   */\n      lt\n        /* \"#utility.yul\":4201:4314   */\n      iszero\n      tag_119\n      jumpi\n        /* \"#utility.yul\":4300:4301   */\n      dup1\n        /* \"#utility.yul\":4295:4298   */\n      dup3\n        /* \"#utility.yul\":4291:4302   */\n      add\n        /* \"#utility.yul\":4285:4303   */\n      mload\n        /* \"#utility.yul\":4281:4282   */\n      dup2\n        /* \"#utility.yul\":4276:4279   */\n      dup5\n        /* \"#utility.yul\":4272:4283   */\n      add\n        /* \"#utility.yul\":4265:4304   */\n      mstore\n        /* \"#utility.yul\":4237:4239   */\n      0x20\n        /* \"#utility.yul\":4234:4235   */\n      dup2\n        /* \"#utility.yul\":4230:4240   */\n      add\n        /* \"#utility.yul\":4225:4240   */\n      swap1\n      pop\n        /* \"#utility.yul\":4201:4314   */\n      jump(tag_117)\n    tag_119:\n        /* \"#utility.yul\":4332:4338   */\n      dup4\n        /* \"#utility.yul\":4329:4330   */\n      dup2\n        /* \"#utility.yul\":4326:4339   */\n      gt\n        /* \"#utility.yul\":4323:4325   */\n      iszero\n      tag_120\n      jumpi\n        /* \"#utility.yul\":4412:4413   */\n      0x00\n        /* \"#utility.yul\":4403:4409   */\n      dup5\n        /* \"#utility.yul\":4398:4401   */\n      dup5\n        /* \"#utility.yul\":4394:4410   */\n      add\n        /* \"#utility.yul\":4387:4414   */\n      mstore\n        /* \"#utility.yul\":4323:4325   */\n    tag_120:\n        /* \"#utility.yul\":4172:4430   */\n      pop\n      pop\n      pop\n      pop\n      jump\t// out\n        /* \"#utility.yul\":4436:4756   */\n    tag_33:\n      0x00\n        /* \"#utility.yul\":4517:4518   */\n      0x02\n        /* \"#utility.yul\":4511:4515   */\n      dup3\n        /* \"#utility.yul\":4507:4519   */\n      div\n        /* \"#utility.yul\":4497:4519   */\n      swap1\n      pop\n        /* \"#utility.yul\":4564:4565   */\n      0x01\n        /* \"#utility.yul\":4558:4562   */\n      dup3\n        /* \"#utility.yul\":4554:4566   */\n      and\n        /* \"#utility.yul\":4585:4603   */\n      dup1\n        /* \"#utility.yul\":4575:4577   */\n      tag_122\n      jumpi\n        /* \"#utility.yul\":4641:4645   */\n      0x7f\n        /* \"#utility.yul\":4633:4639   */\n      dup3\n        /* \"#utility.yul\":4629:4646   */\n      and\n        /* \"#utility.yul\":4619:4646   */\n      swap2\n      pop\n        /* \"#utility.yul\":4575:4577   */\n    tag_122:\n        /* \"#utility.yul\":4703:4705   */\n      0x20\n        /* \"#utility.yul\":4695:4701   */\n      dup3\n        /* \"#utility.yul\":4692:4706   */\n      lt\n        /* \"#utility.yul\":4672:4690   */\n      dup2\n        /* \"#utility.yul\":4669:4707   */\n      eq\n        /* \"#utility.yul\":4666:4668   */\n      iszero\n      tag_123\n      jumpi\n        /* \"#utility.yul\":4722:4740   */\n      tag_124\n      tag_125\n      jump\t// in\n    tag_124:\n        /* \"#utility.yul\":4666:4668   */\n    tag_123:\n        /* \"#utility.yul\":4487:4756   */\n      pop\n      swap2\n      swap1\n      pop\n      jump\t// out\n        /* \"#utility.yul\":4762:4942   */\n    tag_125:\n        /* \"#utility.yul\":4810:4887   */\n      0x4e487b7100000000000000000000000000000000000000000000000000000000\n        /* \"#utility.yul\":4807:4808   */\n      0x00\n        /* \"#utility.yul\":4800:4888   */\n      mstore\n        /* \"#utility.yul\":4907:4911   */\n      0x22\n        /* \"#utility.yul\":4904:4905   */\n      0x04\n        /* \"#utility.yul\":4897:4912   */\n      mstore\n        /* \"#utility.yul\":4931:4935   */\n      0x24\n        /* \"#utility.yul\":4928:4929   */\n      0x00\n        /* \"#utility.yul\":4921:4936   */\n      revert\n        /* \"#utility.yul\":4948:5050   */\n    tag_75:\n      0x00\n        /* \"#utility.yul\":5040:5042   */\n      0x1f\n        /* \"#utility.yul\":5036:5043   */\n      not\n        /* \"#utility.yul\":5031:5033   */\n      0x1f\n        /* \"#utility.yul\":5024:5029   */\n      dup4\n        /* \"#utility.yul\":5020:5034   */\n      add\n        /* \"#utility.yul\":5016:5044   */\n      and\n        /* \"#utility.yul\":5006:5044   */\n      swap1\n      pop\n        /* \"#utility.yul\":4996:5050   */\n      swap2\n      swap1\n      pop\n      jump\t// out\n        /* \"#utility.yul\":5056:5178   */\n    tag_58:\n        /* \"#utility.yul\":5129:5153   */\n      tag_129\n        /* \"#utility.yul\":5147:5152   */\n      dup2\n        /* \"#utility.yul\":5129:5153   */\n      tag_91\n      jump\t// in\n    tag_129:\n        /* \"#utility.yul\":5122:5127   */\n      dup2\n        /* \"#utility.yul\":5119:5154   */\n      eq\n        /* \"#utility.yul\":5109:5111   */\n      tag_130\n      jumpi\n        /* \"#utility.yul\":5168:5169   */\n      0x00\n        /* \"#utility.yul\":5165:5166   */\n      dup1\n        /* \"#utility.yul\":5158:5170   */\n      revert\n        /* \"#utility.yul\":5109:5111   */\n    tag_130:\n        /* \"#utility.yul\":5099:5178   */\n      pop\n      jump\t// out\n\n    auxdata: 0xa26469706673582212201499853c618601778f47f87621ee549689b5dc00074c32df3048bf1792b4145664736f6c63430008000033\n}\n\nsub_1: assembly {\n        /* \"chapter02/9type3.sol\":1318:1545  contract type13{... */\n      mstore(0x40, 0x80)\n      callvalue\n      dup1\n      iszero\n      tag_1\n      jumpi\n      0x00\n      dup1\n      revert\n    tag_1:\n      pop\n      dataSize(sub_0)\n      dup1\n      dataOffset(sub_0)\n      0x00\n      codecopy\n      0x00\n      return\n    stop\n\n    sub_0: assembly {\n            /* \"chapter02/9type3.sol\":1318:1545  contract type13{... */\n          mstore(0x40, 0x80)\n          jumpi(tag_1, lt(calldatasize, 0x04))\n          shr(0xe0, calldataload(0x00))\n          dup1\n          0x0dbe671f\n          eq\n          tag_3\n          jumpi\n          dup1\n          0xee919d50\n          eq\n          tag_4\n          jumpi\n          dup1\n          0xf5f5ba72\n          eq\n          tag_5\n          jumpi\n          jump(tag_2)\n        tag_1:\n          jumpi(tag_2, calldatasize)\n          stop\n        tag_2:\n          0x00\n          dup1\n          revert\n            /* \"chapter02/9type3.sol\":1372:1385  uint public a */\n        tag_3:\n          callvalue\n          dup1\n          iszero\n          tag_8\n          jumpi\n          0x00\n          dup1\n          revert\n        tag_8:\n          pop\n          tag_9\n          tag_10\n          jump\t// in\n        tag_9:\n          mload(0x40)\n          tag_11\n          swap2\n          swap1\n          tag_12\n          jump\t// in\n        tag_11:\n          mload(0x40)\n          dup1\n          swap2\n          sub\n          swap1\n          return\n            /* \"chapter02/9type3.sol\":1490:1543  function setA(uint _a)external{... */\n        tag_4:\n          callvalue\n          dup1\n          iszero\n          tag_13\n          jumpi\n          0x00\n          dup1\n          revert\n        tag_13:\n          pop\n          tag_14\n          0x04\n          dup1\n          calldatasize\n          sub\n          dup2\n          add\n          swap1\n          tag_15\n          swap2\n          swap1\n          tag_16\n          jump\t// in\n        tag_15:\n          tag_17\n          jump\t// in\n        tag_14:\n          stop\n            /* \"chapter02/9type3.sol\":1391:1485  function getContractName()external pure returns(string memory){... */\n        tag_5:\n          callvalue\n          dup1\n          iszero\n          tag_18\n          jumpi\n          0x00\n          dup1\n          revert\n        tag_18:\n          pop\n          tag_19\n          tag_20\n          jump\t// in\n        tag_19:\n          mload(0x40)\n          tag_21\n          swap2\n          swap1\n          tag_22\n          jump\t// in\n        tag_21:\n          mload(0x40)\n          dup1\n          swap2\n          sub\n          swap1\n          return\n            /* \"chapter02/9type3.sol\":1372:1385  uint public a */\n        tag_10:\n          sload(0x00)\n          dup2\n          jump\t// out\n            /* \"chapter02/9type3.sol\":1490:1543  function setA(uint _a)external{... */\n        tag_17:\n            /* \"chapter02/9type3.sol\":1534:1536  _a */\n          dup1\n            /* \"chapter02/9type3.sol\":1530:1531  a */\n          0x00\n            /* \"chapter02/9type3.sol\":1530:1536  a = _a */\n          dup2\n          swap1\n          sstore\n          pop\n            /* \"chapter02/9type3.sol\":1490:1543  function setA(uint _a)external{... */\n          pop\n          jump\t// out\n            /* \"chapter02/9type3.sol\":1391:1485  function getContractName()external pure returns(string memory){... */\n        tag_20:\n            /* \"chapter02/9type3.sol\":1439:1452  string memory */\n          0x60\n            /* \"chapter02/9type3.sol\":1463:1478  return \"type13\" */\n          mload(0x40)\n          dup1\n          0x40\n          add\n          0x40\n          mstore\n          dup1\n          0x06\n          dup2\n          mstore\n          0x20\n          add\n          0x7479706531330000000000000000000000000000000000000000000000000000\n          dup2\n          mstore\n          pop\n          swap1\n          pop\n            /* \"chapter02/9type3.sol\":1391:1485  function getContractName()external pure returns(string memory){... */\n          swap1\n          jump\t// out\n            /* \"#utility.yul\":7:146   */\n        tag_26:\n          0x00\n            /* \"#utility.yul\":91:97   */\n          dup2\n            /* \"#utility.yul\":78:98   */\n          calldataload\n            /* \"#utility.yul\":69:98   */\n          swap1\n          pop\n            /* \"#utility.yul\":107:140   */\n          tag_28\n            /* \"#utility.yul\":134:139   */\n          dup2\n            /* \"#utility.yul\":107:140   */\n          tag_29\n          jump\t// in\n        tag_28:\n            /* \"#utility.yul\":59:146   */\n          swap3\n          swap2\n          pop\n          pop\n          jump\t// out\n            /* \"#utility.yul\":152:414   */\n        tag_16:\n          0x00\n            /* \"#utility.yul\":260:262   */\n          0x20\n            /* \"#utility.yul\":248:257   */\n          dup3\n            /* \"#utility.yul\":239:246   */\n          dup5\n            /* \"#utility.yul\":235:258   */\n          sub\n            /* \"#utility.yul\":231:263   */\n          slt\n            /* \"#utility.yul\":228:230   */\n          iszero\n          tag_31\n          jumpi\n            /* \"#utility.yul\":276:277   */\n          0x00\n            /* \"#utility.yul\":273:274   */\n          dup1\n            /* \"#utility.yul\":266:278   */\n          revert\n            /* \"#utility.yul\":228:230   */\n        tag_31:\n            /* \"#utility.yul\":319:320   */\n          0x00\n            /* \"#utility.yul\":344:397   */\n          tag_32\n            /* \"#utility.yul\":389:396   */\n          dup5\n            /* \"#utility.yul\":380:386   */\n          dup3\n            /* \"#utility.yul\":369:378   */\n          dup6\n            /* \"#utility.yul\":365:387   */\n          add\n            /* \"#utility.yul\":344:397   */\n          tag_26\n          jump\t// in\n        tag_32:\n            /* \"#utility.yul\":334:397   */\n          swap2\n          pop\n            /* \"#utility.yul\":290:407   */\n          pop\n            /* \"#utility.yul\":218:414   */\n          swap3\n          swap2\n          pop\n          pop\n          jump\t// out\n            /* \"#utility.yul\":420:784   */\n        tag_33:\n          0x00\n            /* \"#utility.yul\":536:575   */\n          tag_35\n            /* \"#utility.yul\":569:574   */\n          dup3\n            /* \"#utility.yul\":536:575   */\n          tag_36\n          jump\t// in\n        tag_35:\n            /* \"#utility.yul\":591:662   */\n          tag_37\n            /* \"#utility.yul\":655:661   */\n          dup2\n            /* \"#utility.yul\":650:653   */\n          dup6\n            /* \"#utility.yul\":591:662   */\n          tag_38\n          jump\t// in\n        tag_37:\n            /* \"#utility.yul\":584:662   */\n          swap4\n          pop\n            /* \"#utility.yul\":671:723   */\n          tag_39\n            /* \"#utility.yul\":716:722   */\n          dup2\n            /* \"#utility.yul\":711:714   */\n          dup6\n            /* \"#utility.yul\":704:708   */\n          0x20\n            /* \"#utility.yul\":697:702   */\n          dup7\n            /* \"#utility.yul\":693:709   */\n          add\n            /* \"#utility.yul\":671:723   */\n          tag_40\n          jump\t// in\n        tag_39:\n            /* \"#utility.yul\":748:777   */\n          tag_41\n            /* \"#utility.yul\":770:776   */\n          dup2\n            /* \"#utility.yul\":748:777   */\n          tag_42\n          jump\t// in\n        tag_41:\n            /* \"#utility.yul\":743:746   */\n          dup5\n            /* \"#utility.yul\":739:778   */\n          add\n            /* \"#utility.yul\":732:778   */\n          swap2\n          pop\n            /* \"#utility.yul\":512:784   */\n          pop\n          swap3\n          swap2\n          pop\n          pop\n          jump\t// out\n            /* \"#utility.yul\":790:908   */\n        tag_43:\n            /* \"#utility.yul\":877:901   */\n          tag_45\n            /* \"#utility.yul\":895:900   */\n          dup2\n            /* \"#utility.yul\":877:901   */\n          tag_46\n          jump\t// in\n        tag_45:\n            /* \"#utility.yul\":872:875   */\n          dup3\n            /* \"#utility.yul\":865:902   */\n          mstore\n            /* \"#utility.yul\":855:908   */\n          pop\n          pop\n          jump\t// out\n            /* \"#utility.yul\":914:1227   */\n        tag_22:\n          0x00\n            /* \"#utility.yul\":1065:1067   */\n          0x20\n            /* \"#utility.yul\":1054:1063   */\n          dup3\n            /* \"#utility.yul\":1050:1068   */\n          add\n            /* \"#utility.yul\":1042:1068   */\n          swap1\n          pop\n            /* \"#utility.yul\":1114:1123   */\n          dup2\n            /* \"#utility.yul\":1108:1112   */\n          dup2\n            /* \"#utility.yul\":1104:1124   */\n          sub\n            /* \"#utility.yul\":1100:1101   */\n          0x00\n            /* \"#utility.yul\":1089:1098   */\n          dup4\n            /* \"#utility.yul\":1085:1102   */\n          add\n            /* \"#utility.yul\":1078:1125   */\n          mstore\n            /* \"#utility.yul\":1142:1220   */\n          tag_48\n            /* \"#utility.yul\":1215:1219   */\n          dup2\n            /* \"#utility.yul\":1206:1212   */\n          dup5\n            /* \"#utility.yul\":1142:1220   */\n          tag_33\n          jump\t// in\n        tag_48:\n            /* \"#utility.yul\":1134:1220   */\n          swap1\n          pop\n            /* \"#utility.yul\":1032:1227   */\n          swap3\n          swap2\n          pop\n          pop\n          jump\t// out\n            /* \"#utility.yul\":1233:1455   */\n        tag_12:\n          0x00\n            /* \"#utility.yul\":1364:1366   */\n          0x20\n            /* \"#utility.yul\":1353:1362   */\n          dup3\n            /* \"#utility.yul\":1349:1367   */\n          add\n            /* \"#utility.yul\":1341:1367   */\n          swap1\n          pop\n            /* \"#utility.yul\":1377:1448   */\n          tag_50\n            /* \"#utility.yul\":1445:1446   */\n          0x00\n            /* \"#utility.yul\":1434:1443   */\n          dup4\n            /* \"#utility.yul\":1430:1447   */\n          add\n            /* \"#utility.yul\":1421:1427   */\n          dup5\n            /* \"#utility.yul\":1377:1448   */\n          tag_43\n          jump\t// in\n        tag_50:\n            /* \"#utility.yul\":1331:1455   */\n          swap3\n          swap2\n          pop\n          pop\n          jump\t// out\n            /* \"#utility.yul\":1461:1560   */\n        tag_36:\n          0x00\n            /* \"#utility.yul\":1547:1552   */\n          dup2\n            /* \"#utility.yul\":1541:1553   */\n          mload\n            /* \"#utility.yul\":1531:1553   */\n          swap1\n          pop\n            /* \"#utility.yul\":1520:1560   */\n          swap2\n          swap1\n          pop\n          jump\t// out\n            /* \"#utility.yul\":1566:1735   */\n        tag_38:\n          0x00\n            /* \"#utility.yul\":1684:1690   */\n          dup3\n            /* \"#utility.yul\":1679:1682   */\n          dup3\n            /* \"#utility.yul\":1672:1691   */\n          mstore\n            /* \"#utility.yul\":1724:1728   */\n          0x20\n            /* \"#utility.yul\":1719:1722   */\n          dup3\n            /* \"#utility.yul\":1715:1729   */\n          add\n            /* \"#utility.yul\":1700:1729   */\n          swap1\n          pop\n            /* \"#utility.yul\":1662:1735   */\n          swap3\n          swap2\n          pop\n          pop\n          jump\t// out\n            /* \"#utility.yul\":1741:1818   */\n        tag_46:\n          0x00\n            /* \"#utility.yul\":1807:1812   */\n          dup2\n            /* \"#utility.yul\":1796:1812   */\n          swap1\n          pop\n            /* \"#utility.yul\":1786:1818   */\n          swap2\n          swap1\n          pop\n          jump\t// out\n            /* \"#utility.yul\":1824:2131   */\n        tag_40:\n            /* \"#utility.yul\":1892:1893   */\n          0x00\n            /* \"#utility.yul\":1902:2015   */\n        tag_55:\n            /* \"#utility.yul\":1916:1922   */\n          dup4\n            /* \"#utility.yul\":1913:1914   */\n          dup2\n            /* \"#utility.yul\":1910:1923   */\n          lt\n            /* \"#utility.yul\":1902:2015   */\n          iszero\n          tag_57\n          jumpi\n            /* \"#utility.yul\":2001:2002   */\n          dup1\n            /* \"#utility.yul\":1996:1999   */\n          dup3\n            /* \"#utility.yul\":1992:2003   */\n          add\n            /* \"#utility.yul\":1986:2004   */\n          mload\n            /* \"#utility.yul\":1982:1983   */\n          dup2\n            /* \"#utility.yul\":1977:1980   */\n          dup5\n            /* \"#utility.yul\":1973:1984   */\n          add\n            /* \"#utility.yul\":1966:2005   */\n          mstore\n            /* \"#utility.yul\":1938:1940   */\n          0x20\n            /* \"#utility.yul\":1935:1936   */\n          dup2\n            /* \"#utility.yul\":1931:1941   */\n          add\n            /* \"#utility.yul\":1926:1941   */\n          swap1\n          pop\n            /* \"#utility.yul\":1902:2015   */\n          jump(tag_55)\n        tag_57:\n            /* \"#utility.yul\":2033:2039   */\n          dup4\n            /* \"#utility.yul\":2030:2031   */\n          dup2\n            /* \"#utility.yul\":2027:2040   */\n          gt\n            /* \"#utility.yul\":2024:2026   */\n          iszero\n          tag_58\n          jumpi\n            /* \"#utility.yul\":2113:2114   */\n          0x00\n            /* \"#utility.yul\":2104:2110   */\n          dup5\n            /* \"#utility.yul\":2099:2102   */\n          dup5\n            /* \"#utility.yul\":2095:2111   */\n          add\n            /* \"#utility.yul\":2088:2115   */\n          mstore\n            /* \"#utility.yul\":2024:2026   */\n        tag_58:\n            /* \"#utility.yul\":1873:2131   */\n          pop\n          pop\n          pop\n          pop\n          jump\t// out\n            /* \"#utility.yul\":2137:2239   */\n        tag_42:\n          0x00\n            /* \"#utility.yul\":2229:2231   */\n          0x1f\n            /* \"#utility.yul\":2225:2232   */\n          not\n            /* \"#utility.yul\":2220:2222   */\n          0x1f\n            /* \"#utility.yul\":2213:2218   */\n          dup4\n            /* \"#utility.yul\":2209:2223   */\n          add\n            /* \"#utility.yul\":2205:2233   */\n          and\n            /* \"#utility.yul\":2195:2233   */\n          swap1\n          pop\n            /* \"#utility.yul\":2185:2239   */\n          swap2\n          swap1\n          pop\n          jump\t// out\n            /* \"#utility.yul\":2245:2367   */\n        tag_29:\n            /* \"#utility.yul\":2318:2342   */\n          tag_61\n            /* \"#utility.yul\":2336:2341   */\n          dup2\n            /* \"#utility.yul\":2318:2342   */\n          tag_46\n          jump\t// in\n        tag_61:\n            /* \"#utility.yul\":2311:2316   */\n          dup2\n            /* \"#utility.yul\":2308:2343   */\n          eq\n            /* \"#utility.yul\":2298:2300   */\n          tag_62\n          jumpi\n            /* \"#utility.yul\":2357:2358   */\n          0x00\n            /* \"#utility.yul\":2354:2355   */\n          dup1\n            /* \"#utility.yul\":2347:2359   */\n          revert\n            /* \"#utility.yul\":2298:2300   */\n        tag_62:\n            /* \"#utility.yul\":2288:2367   */\n          pop\n          jump\t// out\n\n        auxdata: 0xa2646970667358221220801ca6fe5986c6b2c576412deb3be62ab9b7fa3feef8ea0efca68f6511ec834964736f6c63430008000033\n    }\n}\n",
				"bytecode": {
					"linkReferences": {},
					"object": "608060405273e5f2a565ee0aa9836b4c80a07c8b32aad7978e226000806101000a81548173ffffffffffffffffffffffffffffffffffffffff021916908373ffffffffffffffffffffffffffffffffffffffff16021790555060008054906101000a900473ffffffffffffffffffffffffffffffffffffffff16600160006101000a81548173ffffffffffffffffffffffffffffffffffffffff021916908373ffffffffffffffffffffffffffffffffffffffff16021790555060008054906101000a900473ffffffffffffffffffffffffffffffffffffffff1673ffffffffffffffffffffffffffffffffffffffff1663f5f5ba726040518163ffffffff1660e01b815260040160006040518083038186803b1580156200012057600080fd5b505afa15801562000135573d6000803e3d6000fd5b505050506040513d6000823e3d601f19601f82011682018060405250810190620001609190620003d9565b600290805190602001906200017792919062000218565b506040518060400160405260068152806020017f747970653133000000000000000000000000000000000000000000000000000081525060039080519060200190620001c592919062000218565b5060405180602001620001d890620002a9565b6020820181038252601f19601f820116604052506004908051906020019062000203929190620002b7565b503480156200021157600080fd5b506200054f565b8280546200022690620004bb565b90600052602060002090601f0160209004810192826200024a576000855562000296565b82601f106200026557805160ff191683800117855562000296565b8280016001018555821562000296579182015b828111156200029557825182559160200191906001019062000278565b5b509050620002a5919062000348565b5090565b6102aa8062000bf683390190565b828054620002c590620004bb565b90600052602060002090601f016020900481019282620002e9576000855562000335565b82601f106200030457805160ff191683800117855562000335565b8280016001018555821562000335579182015b828111156200033457825182559160200191906001019062000317565b5b50905062000344919062000348565b5090565b5b808211156200036357600081600090555060010162000349565b5090565b60006200037e620003788462000452565b6200041e565b9050828152602081018484840111156200039757600080fd5b620003a484828562000485565b509392505050565b600082601f830112620003be57600080fd5b8151620003d084826020860162000367565b91505092915050565b600060208284031215620003ec57600080fd5b600082015167ffffffffffffffff8111156200040757600080fd5b6200041584828501620003ac565b91505092915050565b6000604051905081810181811067ffffffffffffffff8211171562000448576200044762000520565b5b8060405250919050565b600067ffffffffffffffff82111562000470576200046f62000520565b5b601f19601f8301169050602081019050919050565b60005b83811015620004a557808201518184015260208101905062000488565b83811115620004b5576000848401525b50505050565b60006002820490506001821680620004d457607f821691505b60208210811415620004eb57620004ea620004f1565b5b50919050565b7f4e487b7100000000000000000000000000000000000000000000000000000000600052602260045260246000fd5b7f4e487b7100000000000000000000000000000000000000000000000000000000600052604160045260246000fd5b610697806200055f6000396000f3fe608060405234801561001057600080fd5b50600436106100625760003560e01c80637c0001381461006757806392d0d15314610085578063c15bae84146100a3578063d01bb4d5146100c1578063d118d187146100df578063ee919d50146100fd575b600080fd5b61006f610119565b60405161007c9190610493565b60405180910390f35b61008d6101a7565b60405161009a91906104b5565b60405180910390f35b6100ab6101cb565b6040516100b891906104d0565b60405180910390f35b6100c9610259565b6040516100d69190610478565b60405180910390f35b6100e761027f565b6040516100f491906104d0565b60405180910390f35b610117600480360381019061011291906103b0565b61030d565b005b60048054610126906105d8565b80601f0160208091040260200160405190810160405280929190818152602001828054610152906105d8565b801561019f5780601f106101745761010080835404028352916020019161019f565b820191906000526020600020905b81548152906001019060200180831161018257829003601f168201915b505050505081565b60008054906101000a900473ffffffffffffffffffffffffffffffffffffffff1681565b600280546101d8906105d8565b80601f0160208091040260200160405190810160405280929190818152602001828054610204906105d8565b80156102515780601f1061022657610100808354040283529160200191610251565b820191906000526020600020905b81548152906001019060200180831161023457829003601f168201915b505050505081565b600160009054906101000a900473ffffffffffffffffffffffffffffffffffffffff1681565b6003805461028c906105d8565b80601f01602080910402602001604051908101604052809291908181526020018280546102b8906105d8565b80156103055780601f106102da57610100808354040283529160200191610305565b820191906000526020600020905b8154815290600101906020018083116102e857829003601f168201915b505050505081565b60008054906101000a900473ffffffffffffffffffffffffffffffffffffffff1673ffffffffffffffffffffffffffffffffffffffff1663ee919d50826040518263ffffffff1660e01b815260040161036691906104f2565b600060405180830381600087803b15801561038057600080fd5b505af1158015610394573d6000803e3d6000fd5b5050505050565b6000813590506103aa8161064a565b92915050565b6000602082840312156103c257600080fd5b60006103d08482850161039b565b91505092915050565b6103e281610545565b82525050565b60006103f38261050d565b6103fd8185610523565b935061040d8185602086016105a5565b61041681610639565b840191505092915050565b61042a81610581565b82525050565b600061043b82610518565b6104458185610534565b93506104558185602086016105a5565b61045e81610639565b840191505092915050565b61047281610577565b82525050565b600060208201905061048d60008301846103d9565b92915050565b600060208201905081810360008301526104ad81846103e8565b905092915050565b60006020820190506104ca6000830184610421565b92915050565b600060208201905081810360008301526104ea8184610430565b905092915050565b60006020820190506105076000830184610469565b92915050565b600081519050919050565b600081519050919050565b600082825260208201905092915050565b600082825260208201905092915050565b600061055082610557565b9050919050565b600073ffffffffffffffffffffffffffffffffffffffff82169050919050565b6000819050919050565b600061058c82610593565b9050919050565b600061059e82610557565b9050919050565b60005b838110156105c35780820151818401526020810190506105a8565b838111156105d2576000848401525b50505050565b600060028204905060018216806105f057607f821691505b602082108114156106045761060361060a565b5b50919050565b7f4e487b7100000000000000000000000000000000000000000000000000000000600052602260045260246000fd5b6000601f19601f8301169050919050565b61065381610577565b811461065e57600080fd5b5056fea26469706673582212201499853c618601778f47f87621ee549689b5dc00074c32df3048bf1792b4145664736f6c63430008000033608060405234801561001057600080fd5b5061028a806100206000396000f3fe6080604052600436106100385760003560e01c80630dbe671f14610044578063ee919d501461006f578063f5f5ba72146100985761003f565b3661003f57005b600080fd5b34801561005057600080fd5b506100596100c3565b60405161006691906101b8565b60405180910390f35b34801561007b57600080fd5b5061009660048036038101906100919190610125565b6100c9565b005b3480156100a457600080fd5b506100ad6100d3565b6040516100ba9190610196565b60405180910390f35b60005481565b8060008190555050565b60606040518060400160405280600681526020017f7479706531330000000000000000000000000000000000000000000000000000815250905090565b60008135905061011f8161023d565b92915050565b60006020828403121561013757600080fd5b600061014584828501610110565b91505092915050565b6000610159826101d3565b61016381856101de565b93506101738185602086016101f9565b61017c8161022c565b840191505092915050565b610190816101ef565b82525050565b600060208201905081810360008301526101b0818461014e565b905092915050565b60006020820190506101cd6000830184610187565b92915050565b600081519050919050565b600082825260208201905092915050565b6000819050919050565b60005b838110156102175780820151818401526020810190506101fc565b83811115610226576000848401525b50505050565b6000601f19601f8301169050919050565b610246816101ef565b811461025157600080fd5b5056fea2646970667358221220801ca6fe5986c6b2c576412deb3be62ab9b7fa3feef8ea0efca68f6511ec834964736f6c63430008000033",
					"opcodes": "PUSH1 0x80 PUSH1 0x40 MSTORE PUSH20 0xE5F2A565EE0AA9836B4C80A07C8B32AAD7978E22 PUSH1 0x0 DUP1 PUSH2 0x100 EXP DUP2 SLOAD DUP2 PUSH20 0xFFFFFFFFFFFFFFFFFFFFFFFFFFFFFFFFFFFFFFFF MUL NOT AND SWAP1 DUP4 PUSH20 0xFFFFFFFFFFFFFFFFFFFFFFFFFFFFFFFFFFFFFFFF AND MUL OR SWAP1 SSTORE POP PUSH1 0x0 DUP1 SLOAD SWAP1 PUSH2 0x100 EXP SWAP1 DIV PUSH20 0xFFFFFFFFFFFFFFFFFFFFFFFFFFFFFFFFFFFFFFFF AND PUSH1 0x1 PUSH1 0x0 PUSH2 0x100 EXP DUP2 SLOAD DUP2 PUSH20 0xFFFFFFFFFFFFFFFFFFFFFFFFFFFFFFFFFFFFFFFF MUL NOT AND SWAP1 DUP4 PUSH20 0xFFFFFFFFFFFFFFFFFFFFFFFFFFFFFFFFFFFFFFFF AND MUL OR SWAP1 SSTORE POP PUSH1 0x0 DUP1 SLOAD SWAP1 PUSH2 0x100 EXP SWAP1 DIV PUSH20 0xFFFFFFFFFFFFFFFFFFFFFFFFFFFFFFFFFFFFFFFF AND PUSH20 0xFFFFFFFFFFFFFFFFFFFFFFFFFFFFFFFFFFFFFFFF AND PUSH4 0xF5F5BA72 PUSH1 0x40 MLOAD DUP2 PUSH4 0xFFFFFFFF AND PUSH1 0xE0 SHL DUP2 MSTORE PUSH1 0x4 ADD PUSH1 0x0 PUSH1 0x40 MLOAD DUP1 DUP4 SUB DUP2 DUP7 DUP1 EXTCODESIZE ISZERO DUP1 ISZERO PUSH3 0x120 JUMPI PUSH1 0x0 DUP1 REVERT JUMPDEST POP GAS STATICCALL ISZERO DUP1 ISZERO PUSH3 0x135 JUMPI RETURNDATASIZE PUSH1 0x0 DUP1 RETURNDATACOPY RETURNDATASIZE PUSH1 0x0 REVERT JUMPDEST POP POP POP POP PUSH1 0x40 MLOAD RETURNDATASIZE PUSH1 0x0 DUP3 RETURNDATACOPY RETURNDATASIZE PUSH1 0x1F NOT PUSH1 0x1F DUP3 ADD AND DUP3 ADD DUP1 PUSH1 0x40 MSTORE POP DUP2 ADD SWAP1 PUSH3 0x160 SWAP2 SWAP1 PUSH3 0x3D9 JUMP JUMPDEST PUSH1 0x2 SWAP1 DUP1 MLOAD SWAP1 PUSH1 0x20 ADD SWAP1 PUSH3 0x177 SWAP3 SWAP2 SWAP1 PUSH3 0x218 JUMP JUMPDEST POP PUSH1 0x40 MLOAD DUP1 PUSH1 0x40 ADD PUSH1 0x40 MSTORE PUSH1 0x6 DUP2 MSTORE DUP1 PUSH1 0x20 ADD PUSH32 0x7479706531330000000000000000000000000000000000000000000000000000 DUP2 MSTORE POP PUSH1 0x3 SWAP1 DUP1 MLOAD SWAP1 PUSH1 0x20 ADD SWAP1 PUSH3 0x1C5 SWAP3 SWAP2 SWAP1 PUSH3 0x218 JUMP JUMPDEST POP PUSH1 0x40 MLOAD DUP1 PUSH1 0x20 ADD PUSH3 0x1D8 SWAP1 PUSH3 0x2A9 JUMP JUMPDEST PUSH1 0x20 DUP3 ADD DUP2 SUB DUP3 MSTORE PUSH1 0x1F NOT PUSH1 0x1F DUP3 ADD AND PUSH1 0x40 MSTORE POP PUSH1 0x4 SWAP1 DUP1 MLOAD SWAP1 PUSH1 0x20 ADD SWAP1 PUSH3 0x203 SWAP3 SWAP2 SWAP1 PUSH3 0x2B7 JUMP JUMPDEST POP CALLVALUE DUP1 ISZERO PUSH3 0x211 JUMPI PUSH1 0x0 DUP1 REVERT JUMPDEST POP PUSH3 0x54F JUMP JUMPDEST DUP3 DUP1 SLOAD PUSH3 0x226 SWAP1 PUSH3 0x4BB JUMP JUMPDEST SWAP1 PUSH1 0x0 MSTORE PUSH1 0x20 PUSH1 0x0 KECCAK256 SWAP1 PUSH1 0x1F ADD PUSH1 0x20 SWAP1 DIV DUP2 ADD SWAP3 DUP3 PUSH3 0x24A JUMPI PUSH1 0x0 DUP6 SSTORE PUSH3 0x296 JUMP JUMPDEST DUP3 PUSH1 0x1F LT PUSH3 0x265 JUMPI DUP1 MLOAD PUSH1 0xFF NOT AND DUP4 DUP1 ADD OR DUP6 SSTORE PUSH3 0x296 JUMP JUMPDEST DUP3 DUP1 ADD PUSH1 0x1 ADD DUP6 SSTORE DUP3 ISZERO PUSH3 0x296 JUMPI SWAP2 DUP3 ADD JUMPDEST DUP3 DUP2 GT ISZERO PUSH3 0x295 JUMPI DUP3 MLOAD DUP3 SSTORE SWAP2 PUSH1 0x20 ADD SWAP2 SWAP1 PUSH1 0x1 ADD SWAP1 PUSH3 0x278 JUMP JUMPDEST JUMPDEST POP SWAP1 POP PUSH3 0x2A5 SWAP2 SWAP1 PUSH3 0x348 JUMP JUMPDEST POP SWAP1 JUMP JUMPDEST PUSH2 0x2AA DUP1 PUSH3 0xBF6 DUP4 CODECOPY ADD SWAP1 JUMP JUMPDEST DUP3 DUP1 SLOAD PUSH3 0x2C5 SWAP1 PUSH3 0x4BB JUMP JUMPDEST SWAP1 PUSH1 0x0 MSTORE PUSH1 0x20 PUSH1 0x0 KECCAK256 SWAP1 PUSH1 0x1F ADD PUSH1 0x20 SWAP1 DIV DUP2 ADD SWAP3 DUP3 PUSH3 0x2E9 JUMPI PUSH1 0x0 DUP6 SSTORE PUSH3 0x335 JUMP JUMPDEST DUP3 PUSH1 0x1F LT PUSH3 0x304 JUMPI DUP1 MLOAD PUSH1 0xFF NOT AND DUP4 DUP1 ADD OR DUP6 SSTORE PUSH3 0x335 JUMP JUMPDEST DUP3 DUP1 ADD PUSH1 0x1 ADD DUP6 SSTORE DUP3 ISZERO PUSH3 0x335 JUMPI SWAP2 DUP3 ADD JUMPDEST DUP3 DUP2 GT ISZERO PUSH3 0x334 JUMPI DUP3 MLOAD DUP3 SSTORE SWAP2 PUSH1 0x20 ADD SWAP2 SWAP1 PUSH1 0x1 ADD SWAP1 PUSH3 0x317 JUMP JUMPDEST JUMPDEST POP SWAP1 POP PUSH3 0x344 SWAP2 SWAP1 PUSH3 0x348 JUMP JUMPDEST POP SWAP1 JUMP JUMPDEST JUMPDEST DUP1 DUP3 GT ISZERO PUSH3 0x363 JUMPI PUSH1 0x0 DUP2 PUSH1 0x0 SWAP1 SSTORE POP PUSH1 0x1 ADD PUSH3 0x349 JUMP JUMPDEST POP SWAP1 JUMP JUMPDEST PUSH1 0x0 PUSH3 0x37E PUSH3 0x378 DUP5 PUSH3 0x452 JUMP JUMPDEST PUSH3 0x41E JUMP JUMPDEST SWAP1 POP DUP3 DUP2 MSTORE PUSH1 0x20 DUP2 ADD DUP5 DUP5 DUP5 ADD GT ISZERO PUSH3 0x397 JUMPI PUSH1 0x0 DUP1 REVERT JUMPDEST PUSH3 0x3A4 DUP5 DUP3 DUP6 PUSH3 0x485 JUMP JUMPDEST POP SWAP4 SWAP3 POP POP POP JUMP JUMPDEST PUSH1 0x0 DUP3 PUSH1 0x1F DUP4 ADD SLT PUSH3 0x3BE JUMPI PUSH1 0x0 DUP1 REVERT JUMPDEST DUP2 MLOAD PUSH3 0x3D0 DUP5 DUP3 PUSH1 0x20 DUP7 ADD PUSH3 0x367 JUMP JUMPDEST SWAP2 POP POP SWAP3 SWAP2 POP POP JUMP JUMPDEST PUSH1 0x0 PUSH1 0x20 DUP3 DUP5 SUB SLT ISZERO PUSH3 0x3EC JUMPI PUSH1 0x0 DUP1 REVERT JUMPDEST PUSH1 0x0 DUP3 ADD MLOAD PUSH8 0xFFFFFFFFFFFFFFFF DUP2 GT ISZERO PUSH3 0x407 JUMPI PUSH1 0x0 DUP1 REVERT JUMPDEST PUSH3 0x415 DUP5 DUP3 DUP6 ADD PUSH3 0x3AC JUMP JUMPDEST SWAP2 POP POP SWAP3 SWAP2 POP POP JUMP JUMPDEST PUSH1 0x0 PUSH1 0x40 MLOAD SWAP1 POP DUP2 DUP2 ADD DUP2 DUP2 LT PUSH8 0xFFFFFFFFFFFFFFFF DUP3 GT OR ISZERO PUSH3 0x448 JUMPI PUSH3 0x447 PUSH3 0x520 JUMP JUMPDEST JUMPDEST DUP1 PUSH1 0x40 MSTORE POP SWAP2 SWAP1 POP JUMP JUMPDEST PUSH1 0x0 PUSH8 0xFFFFFFFFFFFFFFFF DUP3 GT ISZERO PUSH3 0x470 JUMPI PUSH3 0x46F PUSH3 0x520 JUMP JUMPDEST JUMPDEST PUSH1 0x1F NOT PUSH1 0x1F DUP4 ADD AND SWAP1 POP PUSH1 0x20 DUP2 ADD SWAP1 POP SWAP2 SWAP1 POP JUMP JUMPDEST PUSH1 0x0 JUMPDEST DUP4 DUP2 LT ISZERO PUSH3 0x4A5 JUMPI DUP1 DUP3 ADD MLOAD DUP2 DUP5 ADD MSTORE PUSH1 0x20 DUP2 ADD SWAP1 POP PUSH3 0x488 JUMP JUMPDEST DUP4 DUP2 GT ISZERO PUSH3 0x4B5 JUMPI PUSH1 0x0 DUP5 DUP5 ADD MSTORE JUMPDEST POP POP POP POP JUMP JUMPDEST PUSH1 0x0 PUSH1 0x2 DUP3 DIV SWAP1 POP PUSH1 0x1 DUP3 AND DUP1 PUSH3 0x4D4 JUMPI PUSH1 0x7F DUP3 AND SWAP2 POP JUMPDEST PUSH1 0x20 DUP3 LT DUP2 EQ ISZERO PUSH3 0x4EB JUMPI PUSH3 0x4EA PUSH3 0x4F1 JUMP JUMPDEST JUMPDEST POP SWAP2 SWAP1 POP JUMP JUMPDEST PUSH32 0x4E487B7100000000000000000000000000000000000000000000000000000000 PUSH1 0x0 MSTORE PUSH1 0x22 PUSH1 0x4 MSTORE PUSH1 0x24 PUSH1 0x0 REVERT JUMPDEST PUSH32 0x4E487B7100000000000000000000000000000000000000000000000000000000 PUSH1 0x0 MSTORE PUSH1 0x41 PUSH1 0x4 MSTORE PUSH1 0x24 PUSH1 0x0 REVERT JUMPDEST PUSH2 0x697 DUP1 PUSH3 0x55F PUSH1 0x0 CODECOPY PUSH1 0x0 RETURN INVALID PUSH1 0x80 PUSH1 0x40 MSTORE CALLVALUE DUP1 ISZERO PUSH2 0x10 JUMPI PUSH1 0x0 DUP1 REVERT JUMPDEST POP PUSH1 0x4 CALLDATASIZE LT PUSH2 0x62 JUMPI PUSH1 0x0 CALLDATALOAD PUSH1 0xE0 SHR DUP1 PUSH4 0x7C000138 EQ PUSH2 0x67 JUMPI DUP1 PUSH4 0x92D0D153 EQ PUSH2 0x85 JUMPI DUP1 PUSH4 0xC15BAE84 EQ PUSH2 0xA3 JUMPI DUP1 PUSH4 0xD01BB4D5 EQ PUSH2 0xC1 JUMPI DUP1 PUSH4 0xD118D187 EQ PUSH2 0xDF JUMPI DUP1 PUSH4 0xEE919D50 EQ PUSH2 0xFD JUMPI JUMPDEST PUSH1 0x0 DUP1 REVERT JUMPDEST PUSH2 0x6F PUSH2 0x119 JUMP JUMPDEST PUSH1 0x40 MLOAD PUSH2 0x7C SWAP2 SWAP1 PUSH2 0x493 JUMP JUMPDEST PUSH1 0x40 MLOAD DUP1 SWAP2 SUB SWAP1 RETURN JUMPDEST PUSH2 0x8D PUSH2 0x1A7 JUMP JUMPDEST PUSH1 0x40 MLOAD PUSH2 0x9A SWAP2 SWAP1 PUSH2 0x4B5 JUMP JUMPDEST PUSH1 0x40 MLOAD DUP1 SWAP2 SUB SWAP1 RETURN JUMPDEST PUSH2 0xAB PUSH2 0x1CB JUMP JUMPDEST PUSH1 0x40 MLOAD PUSH2 0xB8 SWAP2 SWAP1 PUSH2 0x4D0 JUMP JUMPDEST PUSH1 0x40 MLOAD DUP1 SWAP2 SUB SWAP1 RETURN JUMPDEST PUSH2 0xC9 PUSH2 0x259 JUMP JUMPDEST PUSH1 0x40 MLOAD PUSH2 0xD6 SWAP2 SWAP1 PUSH2 0x478 JUMP JUMPDEST PUSH1 0x40 MLOAD DUP1 SWAP2 SUB SWAP1 RETURN JUMPDEST PUSH2 0xE7 PUSH2 0x27F JUMP JUMPDEST PUSH1 0x40 MLOAD PUSH2 0xF4 SWAP2 SWAP1 PUSH2 0x4D0 JUMP JUMPDEST PUSH1 0x40 MLOAD DUP1 SWAP2 SUB SWAP1 RETURN JUMPDEST PUSH2 0x117 PUSH1 0x4 DUP1 CALLDATASIZE SUB DUP2 ADD SWAP1 PUSH2 0x112 SWAP2 SWAP1 PUSH2 0x3B0 JUMP JUMPDEST PUSH2 0x30D JUMP JUMPDEST STOP JUMPDEST PUSH1 0x4 DUP1 SLOAD PUSH2 0x126 SWAP1 PUSH2 0x5D8 JUMP JUMPDEST DUP1 PUSH1 0x1F ADD PUSH1 0x20 DUP1 SWAP2 DIV MUL PUSH1 0x20 ADD PUSH1 0x40 MLOAD SWAP1 DUP2 ADD PUSH1 0x40 MSTORE DUP1 SWAP3 SWAP2 SWAP1 DUP2 DUP2 MSTORE PUSH1 0x20 ADD DUP3 DUP1 SLOAD PUSH2 0x152 SWAP1 PUSH2 0x5D8 JUMP JUMPDEST DUP1 ISZERO PUSH2 0x19F JUMPI DUP1 PUSH1 0x1F LT PUSH2 0x174 JUMPI PUSH2 0x100 DUP1 DUP4 SLOAD DIV MUL DUP4 MSTORE SWAP2 PUSH1 0x20 ADD SWAP2 PUSH2 0x19F JUMP JUMPDEST DUP3 ADD SWAP2 SWAP1 PUSH1 0x0 MSTORE PUSH1 0x20 PUSH1 0x0 KECCAK256 SWAP1 JUMPDEST DUP2 SLOAD DUP2 MSTORE SWAP1 PUSH1 0x1 ADD SWAP1 PUSH1 0x20 ADD DUP1 DUP4 GT PUSH2 0x182 JUMPI DUP3 SWAP1 SUB PUSH1 0x1F AND DUP3 ADD SWAP2 JUMPDEST POP POP POP POP POP DUP2 JUMP JUMPDEST PUSH1 0x0 DUP1 SLOAD SWAP1 PUSH2 0x100 EXP SWAP1 DIV PUSH20 0xFFFFFFFFFFFFFFFFFFFFFFFFFFFFFFFFFFFFFFFF AND DUP2 JUMP JUMPDEST PUSH1 0x2 DUP1 SLOAD PUSH2 0x1D8 SWAP1 PUSH2 0x5D8 JUMP JUMPDEST DUP1 PUSH1 0x1F ADD PUSH1 0x20 DUP1 SWAP2 DIV MUL PUSH1 0x20 ADD PUSH1 0x40 MLOAD SWAP1 DUP2 ADD PUSH1 0x40 MSTORE DUP1 SWAP3 SWAP2 SWAP1 DUP2 DUP2 MSTORE PUSH1 0x20 ADD DUP3 DUP1 SLOAD PUSH2 0x204 SWAP1 PUSH2 0x5D8 JUMP JUMPDEST DUP1 ISZERO PUSH2 0x251 JUMPI DUP1 PUSH1 0x1F LT PUSH2 0x226 JUMPI PUSH2 0x100 DUP1 DUP4 SLOAD DIV MUL DUP4 MSTORE SWAP2 PUSH1 0x20 ADD SWAP2 PUSH2 0x251 JUMP JUMPDEST DUP3 ADD SWAP2 SWAP1 PUSH1 0x0 MSTORE PUSH1 0x20 PUSH1 0x0 KECCAK256 SWAP1 JUMPDEST DUP2 SLOAD DUP2 MSTORE SWAP1 PUSH1 0x1 ADD SWAP1 PUSH1 0x20 ADD DUP1 DUP4 GT PUSH2 0x234 JUMPI DUP3 SWAP1 SUB PUSH1 0x1F AND DUP3 ADD SWAP2 JUMPDEST POP POP POP POP POP DUP2 JUMP JUMPDEST PUSH1 0x1 PUSH1 0x0 SWAP1 SLOAD SWAP1 PUSH2 0x100 EXP SWAP1 DIV PUSH20 0xFFFFFFFFFFFFFFFFFFFFFFFFFFFFFFFFFFFFFFFF AND DUP2 JUMP JUMPDEST PUSH1 0x3 DUP1 SLOAD PUSH2 0x28C SWAP1 PUSH2 0x5D8 JUMP JUMPDEST DUP1 PUSH1 0x1F ADD PUSH1 0x20 DUP1 SWAP2 DIV MUL PUSH1 0x20 ADD PUSH1 0x40 MLOAD SWAP1 DUP2 ADD PUSH1 0x40 MSTORE DUP1 SWAP3 SWAP2 SWAP1 DUP2 DUP2 MSTORE PUSH1 0x20 ADD DUP3 DUP1 SLOAD PUSH2 0x2B8 SWAP1 PUSH2 0x5D8 JUMP JUMPDEST DUP1 ISZERO PUSH2 0x305 JUMPI DUP1 PUSH1 0x1F LT PUSH2 0x2DA JUMPI PUSH2 0x100 DUP1 DUP4 SLOAD DIV MUL DUP4 MSTORE SWAP2 PUSH1 0x20 ADD SWAP2 PUSH2 0x305 JUMP JUMPDEST DUP3 ADD SWAP2 SWAP1 PUSH1 0x0 MSTORE PUSH1 0x20 PUSH1 0x0 KECCAK256 SWAP1 JUMPDEST DUP2 SLOAD DUP2 MSTORE SWAP1 PUSH1 0x1 ADD SWAP1 PUSH1 0x20 ADD DUP1 DUP4 GT PUSH2 0x2E8 JUMPI DUP3 SWAP1 SUB PUSH1 0x1F AND DUP3 ADD SWAP2 JUMPDEST POP POP POP POP POP DUP2 JUMP JUMPDEST PUSH1 0x0 DUP1 SLOAD SWAP1 PUSH2 0x100 EXP SWAP1 DIV PUSH20 0xFFFFFFFFFFFFFFFFFFFFFFFFFFFFFFFFFFFFFFFF AND PUSH20 0xFFFFFFFFFFFFFFFFFFFFFFFFFFFFFFFFFFFFFFFF AND PUSH4 0xEE919D50 DUP3 PUSH1 0x40 MLOAD DUP3 PUSH4 0xFFFFFFFF AND PUSH1 0xE0 SHL DUP2 MSTORE PUSH1 0x4 ADD PUSH2 0x366 SWAP2 SWAP1 PUSH2 0x4F2 JUMP JUMPDEST PUSH1 0x0 PUSH1 0x40 MLOAD DUP1 DUP4 SUB DUP2 PUSH1 0x0 DUP8 DUP1 EXTCODESIZE ISZERO DUP1 ISZERO PUSH2 0x380 JUMPI PUSH1 0x0 DUP1 REVERT JUMPDEST POP GAS CALL ISZERO DUP1 ISZERO PUSH2 0x394 JUMPI RETURNDATASIZE PUSH1 0x0 DUP1 RETURNDATACOPY RETURNDATASIZE PUSH1 0x0 REVERT JUMPDEST POP POP POP POP POP JUMP JUMPDEST PUSH1 0x0 DUP2 CALLDATALOAD SWAP1 POP PUSH2 0x3AA DUP2 PUSH2 0x64A JUMP JUMPDEST SWAP3 SWAP2 POP POP JUMP JUMPDEST PUSH1 0x0 PUSH1 0x20 DUP3 DUP5 SUB SLT ISZERO PUSH2 0x3C2 JUMPI PUSH1 0x0 DUP1 REVERT JUMPDEST PUSH1 0x0 PUSH2 0x3D0 DUP5 DUP3 DUP6 ADD PUSH2 0x39B JUMP JUMPDEST SWAP2 POP POP SWAP3 SWAP2 POP POP JUMP JUMPDEST PUSH2 0x3E2 DUP2 PUSH2 0x545 JUMP JUMPDEST DUP3 MSTORE POP POP JUMP JUMPDEST PUSH1 0x0 PUSH2 0x3F3 DUP3 PUSH2 0x50D JUMP JUMPDEST PUSH2 0x3FD DUP2 DUP6 PUSH2 0x523 JUMP JUMPDEST SWAP4 POP PUSH2 0x40D DUP2 DUP6 PUSH1 0x20 DUP7 ADD PUSH2 0x5A5 JUMP JUMPDEST PUSH2 0x416 DUP2 PUSH2 0x639 JUMP JUMPDEST DUP5 ADD SWAP2 POP POP SWAP3 SWAP2 POP POP JUMP JUMPDEST PUSH2 0x42A DUP2 PUSH2 0x581 JUMP JUMPDEST DUP3 MSTORE POP POP JUMP JUMPDEST PUSH1 0x0 PUSH2 0x43B DUP3 PUSH2 0x518 JUMP JUMPDEST PUSH2 0x445 DUP2 DUP6 PUSH2 0x534 JUMP JUMPDEST SWAP4 POP PUSH2 0x455 DUP2 DUP6 PUSH1 0x20 DUP7 ADD PUSH2 0x5A5 JUMP JUMPDEST PUSH2 0x45E DUP2 PUSH2 0x639 JUMP JUMPDEST DUP5 ADD SWAP2 POP POP SWAP3 SWAP2 POP POP JUMP JUMPDEST PUSH2 0x472 DUP2 PUSH2 0x577 JUMP JUMPDEST DUP3 MSTORE POP POP JUMP JUMPDEST PUSH1 0x0 PUSH1 0x20 DUP3 ADD SWAP1 POP PUSH2 0x48D PUSH1 0x0 DUP4 ADD DUP5 PUSH2 0x3D9 JUMP JUMPDEST SWAP3 SWAP2 POP POP JUMP JUMPDEST PUSH1 0x0 PUSH1 0x20 DUP3 ADD SWAP1 POP DUP2 DUP2 SUB PUSH1 0x0 DUP4 ADD MSTORE PUSH2 0x4AD DUP2 DUP5 PUSH2 0x3E8 JUMP JUMPDEST SWAP1 POP SWAP3 SWAP2 POP POP JUMP JUMPDEST PUSH1 0x0 PUSH1 0x20 DUP3 ADD SWAP1 POP PUSH2 0x4CA PUSH1 0x0 DUP4 ADD DUP5 PUSH2 0x421 JUMP JUMPDEST SWAP3 SWAP2 POP POP JUMP JUMPDEST PUSH1 0x0 PUSH1 0x20 DUP3 ADD SWAP1 POP DUP2 DUP2 SUB PUSH1 0x0 DUP4 ADD MSTORE PUSH2 0x4EA DUP2 DUP5 PUSH2 0x430 JUMP JUMPDEST SWAP1 POP SWAP3 SWAP2 POP POP JUMP JUMPDEST PUSH1 0x0 PUSH1 0x20 DUP3 ADD SWAP1 POP PUSH2 0x507 PUSH1 0x0 DUP4 ADD DUP5 PUSH2 0x469 JUMP JUMPDEST SWAP3 SWAP2 POP POP JUMP JUMPDEST PUSH1 0x0 DUP2 MLOAD SWAP1 POP SWAP2 SWAP1 POP JUMP JUMPDEST PUSH1 0x0 DUP2 MLOAD SWAP1 POP SWAP2 SWAP1 POP JUMP JUMPDEST PUSH1 0x0 DUP3 DUP3 MSTORE PUSH1 0x20 DUP3 ADD SWAP1 POP SWAP3 SWAP2 POP POP JUMP JUMPDEST PUSH1 0x0 DUP3 DUP3 MSTORE PUSH1 0x20 DUP3 ADD SWAP1 POP SWAP3 SWAP2 POP POP JUMP JUMPDEST PUSH1 0x0 PUSH2 0x550 DUP3 PUSH2 0x557 JUMP JUMPDEST SWAP1 POP SWAP2 SWAP1 POP JUMP JUMPDEST PUSH1 0x0 PUSH20 0xFFFFFFFFFFFFFFFFFFFFFFFFFFFFFFFFFFFFFFFF DUP3 AND SWAP1 POP SWAP2 SWAP1 POP JUMP JUMPDEST PUSH1 0x0 DUP2 SWAP1 POP SWAP2 SWAP1 POP JUMP JUMPDEST PUSH1 0x0 PUSH2 0x58C DUP3 PUSH2 0x593 JUMP JUMPDEST SWAP1 POP SWAP2 SWAP1 POP JUMP JUMPDEST PUSH1 0x0 PUSH2 0x59E DUP3 PUSH2 0x557 JUMP JUMPDEST SWAP1 POP SWAP2 SWAP1 POP JUMP JUMPDEST PUSH1 0x0 JUMPDEST DUP4 DUP2 LT ISZERO PUSH2 0x5C3 JUMPI DUP1 DUP3 ADD MLOAD DUP2 DUP5 ADD MSTORE PUSH1 0x20 DUP2 ADD SWAP1 POP PUSH2 0x5A8 JUMP JUMPDEST DUP4 DUP2 GT ISZERO PUSH2 0x5D2 JUMPI PUSH1 0x0 DUP5 DUP5 ADD MSTORE JUMPDEST POP POP POP POP JUMP JUMPDEST PUSH1 0x0 PUSH1 0x2 DUP3 DIV SWAP1 POP PUSH1 0x1 DUP3 AND DUP1 PUSH2 0x5F0 JUMPI PUSH1 0x7F DUP3 AND SWAP2 POP JUMPDEST PUSH1 0x20 DUP3 LT DUP2 EQ ISZERO PUSH2 0x604 JUMPI PUSH2 0x603 PUSH2 0x60A JUMP JUMPDEST JUMPDEST POP SWAP2 SWAP1 POP JUMP JUMPDEST PUSH32 0x4E487B7100000000000000000000000000000000000000000000000000000000 PUSH1 0x0 MSTORE PUSH1 0x22 PUSH1 0x4 MSTORE PUSH1 0x24 PUSH1 0x0 REVERT JUMPDEST PUSH1 0x0 PUSH1 0x1F NOT PUSH1 0x1F DUP4 ADD AND SWAP1 POP SWAP2 SWAP1 POP JUMP JUMPDEST PUSH2 0x653 DUP2 PUSH2 0x577 JUMP JUMPDEST DUP2 EQ PUSH2 0x65E JUMPI PUSH1 0x0 DUP1 REVERT JUMPDEST POP JUMP INVALID LOG2 PUSH5 0x6970667358 0x22 SLT KECCAK256 EQ SWAP10 DUP6 EXTCODECOPY PUSH2 0x8601 PUSH24 0x8F47F87621EE549689B5DC00074C32DF3048BF1792B41456 PUSH5 0x736F6C6343 STOP ADDMOD STOP STOP CALLER PUSH1 0x80 PUSH1 0x40 MSTORE CALLVALUE DUP1 ISZERO PUSH2 0x10 JUMPI PUSH1 0x0 DUP1 REVERT JUMPDEST POP PUSH2 0x28A DUP1 PUSH2 0x20 PUSH1 0x0 CODECOPY PUSH1 0x0 RETURN INVALID PUSH1 0x80 PUSH1 0x40 MSTORE PUSH1 0x4 CALLDATASIZE LT PUSH2 0x38 JUMPI PUSH1 0x0 CALLDATALOAD PUSH1 0xE0 SHR DUP1 PUSH4 0xDBE671F EQ PUSH2 0x44 JUMPI DUP1 PUSH4 0xEE919D50 EQ PUSH2 0x6F JUMPI DUP1 PUSH4 0xF5F5BA72 EQ PUSH2 0x98 JUMPI PUSH2 0x3F JUMP JUMPDEST CALLDATASIZE PUSH2 0x3F JUMPI STOP JUMPDEST PUSH1 0x0 DUP1 REVERT JUMPDEST CALLVALUE DUP1 ISZERO PUSH2 0x50 JUMPI PUSH1 0x0 DUP1 REVERT JUMPDEST POP PUSH2 0x59 PUSH2 0xC3 JUMP JUMPDEST PUSH1 0x40 MLOAD PUSH2 0x66 SWAP2 SWAP1 PUSH2 0x1B8 JUMP JUMPDEST PUSH1 0x40 MLOAD DUP1 SWAP2 SUB SWAP1 RETURN JUMPDEST CALLVALUE DUP1 ISZERO PUSH2 0x7B JUMPI PUSH1 0x0 DUP1 REVERT JUMPDEST POP PUSH2 0x96 PUSH1 0x4 DUP1 CALLDATASIZE SUB DUP2 ADD SWAP1 PUSH2 0x91 SWAP2 SWAP1 PUSH2 0x125 JUMP JUMPDEST PUSH2 0xC9 JUMP JUMPDEST STOP JUMPDEST CALLVALUE DUP1 ISZERO PUSH2 0xA4 JUMPI PUSH1 0x0 DUP1 REVERT JUMPDEST POP PUSH2 0xAD PUSH2 0xD3 JUMP JUMPDEST PUSH1 0x40 MLOAD PUSH2 0xBA SWAP2 SWAP1 PUSH2 0x196 JUMP JUMPDEST PUSH1 0x40 MLOAD DUP1 SWAP2 SUB SWAP1 RETURN JUMPDEST PUSH1 0x0 SLOAD DUP2 JUMP JUMPDEST DUP1 PUSH1 0x0 DUP2 SWAP1 SSTORE POP POP JUMP JUMPDEST PUSH1 0x60 PUSH1 0x40 MLOAD DUP1 PUSH1 0x40 ADD PUSH1 0x40 MSTORE DUP1 PUSH1 0x6 DUP2 MSTORE PUSH1 0x20 ADD PUSH32 0x7479706531330000000000000000000000000000000000000000000000000000 DUP2 MSTORE POP SWAP1 POP SWAP1 JUMP JUMPDEST PUSH1 0x0 DUP2 CALLDATALOAD SWAP1 POP PUSH2 0x11F DUP2 PUSH2 0x23D JUMP JUMPDEST SWAP3 SWAP2 POP POP JUMP JUMPDEST PUSH1 0x0 PUSH1 0x20 DUP3 DUP5 SUB SLT ISZERO PUSH2 0x137 JUMPI PUSH1 0x0 DUP1 REVERT JUMPDEST PUSH1 0x0 PUSH2 0x145 DUP5 DUP3 DUP6 ADD PUSH2 0x110 JUMP JUMPDEST SWAP2 POP POP SWAP3 SWAP2 POP POP JUMP JUMPDEST PUSH1 0x0 PUSH2 0x159 DUP3 PUSH2 0x1D3 JUMP JUMPDEST PUSH2 0x163 DUP2 DUP6 PUSH2 0x1DE JUMP JUMPDEST SWAP4 POP PUSH2 0x173 DUP2 DUP6 PUSH1 0x20 DUP7 ADD PUSH2 0x1F9 JUMP JUMPDEST PUSH2 0x17C DUP2 PUSH2 0x22C JUMP JUMPDEST DUP5 ADD SWAP2 POP POP SWAP3 SWAP2 POP POP JUMP JUMPDEST PUSH2 0x190 DUP2 PUSH2 0x1EF JUMP JUMPDEST DUP3 MSTORE POP POP JUMP JUMPDEST PUSH1 0x0 PUSH1 0x20 DUP3 ADD SWAP1 POP DUP2 DUP2 SUB PUSH1 0x0 DUP4 ADD MSTORE PUSH2 0x1B0 DUP2 DUP5 PUSH2 0x14E JUMP JUMPDEST SWAP1 POP SWAP3 SWAP2 POP POP JUMP JUMPDEST PUSH1 0x0 PUSH1 0x20 DUP3 ADD SWAP1 POP PUSH2 0x1CD PUSH1 0x0 DUP4 ADD DUP5 PUSH2 0x187 JUMP JUMPDEST SWAP3 SWAP2 POP POP JUMP JUMPDEST PUSH1 0x0 DUP2 MLOAD SWAP1 POP SWAP2 SWAP1 POP JUMP JUMPDEST PUSH1 0x0 DUP3 DUP3 MSTORE PUSH1 0x20 DUP3 ADD SWAP1 POP SWAP3 SWAP2 POP POP JUMP JUMPDEST PUSH1 0x0 DUP2 SWAP1 POP SWAP2 SWAP1 POP JUMP JUMPDEST PUSH1 0x0 JUMPDEST DUP4 DUP2 LT ISZERO PUSH2 0x217 JUMPI DUP1 DUP3 ADD MLOAD DUP2 DUP5 ADD MSTORE PUSH1 0x20 DUP2 ADD SWAP1 POP PUSH2 0x1FC JUMP JUMPDEST DUP4 DUP2 GT ISZERO PUSH2 0x226 JUMPI PUSH1 0x0 DUP5 DUP5 ADD MSTORE JUMPDEST POP POP POP POP JUMP JUMPDEST PUSH1 0x0 PUSH1 0x1F NOT PUSH1 0x1F DUP4 ADD AND SWAP1 POP SWAP2 SWAP1 POP JUMP JUMPDEST PUSH2 0x246 DUP2 PUSH2 0x1EF JUMP JUMPDEST DUP2 EQ PUSH2 0x251 JUMPI PUSH1 0x0 DUP1 REVERT JUMPDEST POP JUMP INVALID LOG2 PUSH5 0x6970667358 0x22 SLT KECCAK256 DUP1 SHR 0xA6 INVALID MSIZE DUP7 0xC6 0xB2 0xC5 PUSH23 0x412DEB3BE62AB9B7FA3FEEF8EA0EFCA68F6511EC834964 PUSH20 0x6F6C634300080000330000000000000000000000 "
				},
				"gasEstimates": {
					"creation": {
						"codeDepositCost": "337400",
						"executionCost": "infinite",
						"totalCost": "infinite"
					},
					"external": {
						"by()": "infinite",
						"contractaddr()": "1258",
						"setA(uint256)": "infinite",
						"str()": "infinite",
						"str1()": "infinite",
						"t()": "1254"
					}
				},
				"methodIdentifiers": {
					"by()": "7c000138",
					"contractaddr()": "d01bb4d5",
					"setA(uint256)": "ee919d50",
					"str()": "c15bae84",
					"str1()": "d118d187",
					"t()": "92d0d153"
				}
			},
			"storageLayout": {
				"storage": [
					{
						"astId": 145,
						"contract": "chapter02/9type3.sol:type14",
						"label": "t",
						"offset": 0,
						"slot": "0",
						"type": "t_contract(type13)136"
					},
					{
						"astId": 151,
						"contract": "chapter02/9type3.sol:type14",
						"label": "contractaddr",
						"offset": 0,
						"slot": "1",
						"type": "t_address"
					},
					{
						"astId": 156,
						"contract": "chapter02/9type3.sol:type14",
						"label": "str",
						"offset": 0,
						"slot": "2",
						"type": "t_string_storage"
					},
					{
						"astId": 174,
						"contract": "chapter02/9type3.sol:type14",
						"label": "str1",
						"offset": 0,
						"slot": "3",
						"type": "t_string_storage"
					},
					{
						"astId": 180,
						"contract": "chapter02/9type3.sol:type14",
						"label": "by",
						"offset": 0,
						"slot": "4",
						"type": "t_bytes_storage"
					}
				],
				"types": {
					"t_address": {
						"encoding": "inplace",
						"label": "address",
						"numberOfBytes": "20"
					},
					"t_bytes_storage": {
						"encoding": "bytes",
						"label": "bytes",
						"numberOfBytes": "32"
					},
					"t_contract(type13)136": {
						"encoding": "inplace",
						"label": "contract type13",
						"numberOfBytes": "20"
					},
					"t_string_storage": {
						"encoding": "bytes",
						"label": "string",
						"numberOfBytes": "32"
					}
				}
			},
			"userdoc": {
				"kind": "user",
				"methods": {},
				"version": 1
			}
		}
	}
}