{
	"study/chapter02/4conversion.sol": {
		"test3": {
			"abi": [
				{
					"inputs": [],
					"name": "addr1",
					"outputs": [
						{
							"internalType": "address",
							"name": "",
							"type": "address"
						}
					],
					"stateMutability": "view",
					"type": "function"
				},
				{
					"inputs": [],
					"name": "addr2",
					"outputs": [
						{
							"internalType": "address payable",
							"name": "",
							"type": "address"
						}
					],
					"stateMutability": "view",
					"type": "function"
				},
				{
					"inputs": [],
					"name": "addr3",
					"outputs": [
						{
							"internalType": "uint160",
							"name": "",
							"type": "uint160"
						}
					],
					"stateMutability": "view",
					"type": "function"
				},
				{
					"inputs": [],
					"name": "addr4",
					"outputs": [
						{
							"internalType": "uint160",
							"name": "",
							"type": "uint160"
						}
					],
					"stateMutability": "view",
					"type": "function"
				},
				{
					"inputs": [],
					"name": "addr6",
					"outputs": [
						{
							"internalType": "bytes20",
							"name": "",
							"type": "bytes20"
						}
					],
					"stateMutability": "view",
					"type": "function"
				}
			],
			"devdoc": {
				"kind": "dev",
				"methods": {},
				"version": 1
			},
			"evm": {
				"assembly": "    /* \"study/chapter02/4conversion.sol\":77:416  contract test3{... */\n  mstore(0x40, 0x80)\n    /* \"study/chapter02/4conversion.sol\":119:161  0x5B38Da6a701c568545dCfcB03FcB875f56beddC4 */\n  0x5b38da6a701c568545dcfcb03fcb875f56beddc4\n    /* \"study/chapter02/4conversion.sol\":96:161  address public addr1 = 0x5B38Da6a701c568545dCfcB03FcB875f56beddC4 */\n  0x00\n  dup1\n  0x0100\n  exp\n  dup2\n  sload\n  dup2\n  0xffffffffffffffffffffffffffffffffffffffff\n  mul\n  not\n  and\n  swap1\n  dup4\n  0xffffffffffffffffffffffffffffffffffffffff\n  and\n  mul\n  or\n  swap1\n  sstore\n  pop\n    /* \"study/chapter02/4conversion.sol\":205:210  addr1 */\n  0x00\n  dup1\n  sload\n  swap1\n  0x0100\n  exp\n  swap1\n  div\n  0xffffffffffffffffffffffffffffffffffffffff\n  and\n    /* \"study/chapter02/4conversion.sol\":166:211  address payable public addr2 = payable(addr1) */\n  0x01\n  exp(0x0100, 0x00)\n  dup2\n  sload\n  dup2\n  0xffffffffffffffffffffffffffffffffffffffff\n  mul\n  not\n  and\n  swap1\n  dup4\n  0xffffffffffffffffffffffffffffffffffffffff\n  and\n  mul\n  or\n  swap1\n  sstore\n  pop\n    /* \"study/chapter02/4conversion.sol\":287:292  addr1 */\n  0x00\n  dup1\n  sload\n  swap1\n  0x0100\n  exp\n  swap1\n  div\n  0xffffffffffffffffffffffffffffffffffffffff\n  and\n    /* \"study/chapter02/4conversion.sol\":256:293  uint160 public addr3 = uint160(addr1) */\n  0x02\n  exp(0x0100, 0x00)\n  dup2\n  sload\n  dup2\n  0xffffffffffffffffffffffffffffffffffffffff\n  mul\n  not\n  and\n  swap1\n  dup4\n  0xffffffffffffffffffffffffffffffffffffffff\n  and\n  mul\n  or\n  swap1\n  sstore\n  pop\n    /* \"study/chapter02/4conversion.sol\":337:342  addr2 */\n  0x01\n  0x00\n  swap1\n  sload\n  swap1\n  0x0100\n  exp\n  swap1\n  div\n  0xffffffffffffffffffffffffffffffffffffffff\n  and\n    /* \"study/chapter02/4conversion.sol\":298:344  uint160 public addr4 = uint160(address(addr2)) */\n  0x03\n  exp(0x0100, 0x00)\n  dup2\n  sload\n  dup2\n  0xffffffffffffffffffffffffffffffffffffffff\n  mul\n  not\n  and\n  swap1\n  dup4\n  0xffffffffffffffffffffffffffffffffffffffff\n  and\n  mul\n  or\n  swap1\n  sstore\n  pop\n    /* \"study/chapter02/4conversion.sol\":407:412  addr1 */\n  0x00\n  dup1\n  sload\n  swap1\n  0x0100\n  exp\n  swap1\n  div\n  0xffffffffffffffffffffffffffffffffffffffff\n  and\n    /* \"study/chapter02/4conversion.sol\":399:413  bytes20(addr1) */\n  0x60\n  shl\n    /* \"study/chapter02/4conversion.sol\":376:413  bytes20 public addr6 = bytes20(addr1) */\n  0x04\n  exp(0x0100, 0x00)\n  dup2\n  sload\n  dup2\n  0xffffffffffffffffffffffffffffffffffffffff\n  mul\n  not\n  and\n  swap1\n  dup4\n  0x60\n  shr\n  mul\n  or\n  swap1\n  sstore\n  pop\n    /* \"study/chapter02/4conversion.sol\":77:416  contract test3{... */\n  callvalue\n  dup1\n  iszero\n  tag_1\n  jumpi\n  0x00\n  dup1\n  revert\ntag_1:\n  pop\n  dataSize(sub_0)\n  dup1\n  dataOffset(sub_0)\n  0x00\n  codecopy\n  0x00\n  return\nstop\n\nsub_0: assembly {\n        /* \"study/chapter02/4conversion.sol\":77:416  contract test3{... */\n      mstore(0x40, 0x80)\n      callvalue\n      dup1\n      iszero\n      tag_1\n      jumpi\n      0x00\n      dup1\n      revert\n    tag_1:\n      pop\n      jumpi(tag_2, lt(calldatasize, 0x04))\n      shr(0xe0, calldataload(0x00))\n      dup1\n      0x527116d5\n      eq\n      tag_3\n      jumpi\n      dup1\n      0x8de38f98\n      eq\n      tag_4\n      jumpi\n      dup1\n      0x9347e6d7\n      eq\n      tag_5\n      jumpi\n      dup1\n      0xeabe09ad\n      eq\n      tag_6\n      jumpi\n      dup1\n      0xfd7808f6\n      eq\n      tag_7\n      jumpi\n    tag_2:\n      0x00\n      dup1\n      revert\n        /* \"study/chapter02/4conversion.sol\":376:413  bytes20 public addr6 = bytes20(addr1) */\n    tag_3:\n      tag_8\n      tag_9\n      jump\t// in\n    tag_8:\n      mload(0x40)\n      tag_10\n      swap2\n      swap1\n      tag_11\n      jump\t// in\n    tag_10:\n      mload(0x40)\n      dup1\n      swap2\n      sub\n      swap1\n      return\n        /* \"study/chapter02/4conversion.sol\":166:211  address payable public addr2 = payable(addr1) */\n    tag_4:\n      tag_12\n      tag_13\n      jump\t// in\n    tag_12:\n      mload(0x40)\n      tag_14\n      swap2\n      swap1\n      tag_15\n      jump\t// in\n    tag_14:\n      mload(0x40)\n      dup1\n      swap2\n      sub\n      swap1\n      return\n        /* \"study/chapter02/4conversion.sol\":256:293  uint160 public addr3 = uint160(addr1) */\n    tag_5:\n      tag_16\n      tag_17\n      jump\t// in\n    tag_16:\n      mload(0x40)\n      tag_18\n      swap2\n      swap1\n      tag_19\n      jump\t// in\n    tag_18:\n      mload(0x40)\n      dup1\n      swap2\n      sub\n      swap1\n      return\n        /* \"study/chapter02/4conversion.sol\":96:161  address public addr1 = 0x5B38Da6a701c568545dCfcB03FcB875f56beddC4 */\n    tag_6:\n      tag_20\n      tag_21\n      jump\t// in\n    tag_20:\n      mload(0x40)\n      tag_22\n      swap2\n      swap1\n      tag_23\n      jump\t// in\n    tag_22:\n      mload(0x40)\n      dup1\n      swap2\n      sub\n      swap1\n      return\n        /* \"study/chapter02/4conversion.sol\":298:344  uint160 public addr4 = uint160(address(addr2)) */\n    tag_7:\n      tag_24\n      tag_25\n      jump\t// in\n    tag_24:\n      mload(0x40)\n      tag_26\n      swap2\n      swap1\n      tag_19\n      jump\t// in\n    tag_26:\n      mload(0x40)\n      dup1\n      swap2\n      sub\n      swap1\n      return\n        /* \"study/chapter02/4conversion.sol\":376:413  bytes20 public addr6 = bytes20(addr1) */\n    tag_9:\n      0x04\n      0x00\n      swap1\n      sload\n      swap1\n      0x0100\n      exp\n      swap1\n      div\n      0x60\n      shl\n      dup2\n      jump\t// out\n        /* \"study/chapter02/4conversion.sol\":166:211  address payable public addr2 = payable(addr1) */\n    tag_13:\n      0x01\n      0x00\n      swap1\n      sload\n      swap1\n      0x0100\n      exp\n      swap1\n      div\n      0xffffffffffffffffffffffffffffffffffffffff\n      and\n      dup2\n      jump\t// out\n        /* \"study/chapter02/4conversion.sol\":256:293  uint160 public addr3 = uint160(addr1) */\n    tag_17:\n      0x02\n      0x00\n      swap1\n      sload\n      swap1\n      0x0100\n      exp\n      swap1\n      div\n      0xffffffffffffffffffffffffffffffffffffffff\n      and\n      dup2\n      jump\t// out\n        /* \"study/chapter02/4conversion.sol\":96:161  address public addr1 = 0x5B38Da6a701c568545dCfcB03FcB875f56beddC4 */\n    tag_21:\n      0x00\n      dup1\n      sload\n      swap1\n      0x0100\n      exp\n      swap1\n      div\n      0xffffffffffffffffffffffffffffffffffffffff\n      and\n      dup2\n      jump\t// out\n        /* \"study/chapter02/4conversion.sol\":298:344  uint160 public addr4 = uint160(address(addr2)) */\n    tag_25:\n      0x03\n      0x00\n      swap1\n      sload\n      swap1\n      0x0100\n      exp\n      swap1\n      div\n      0xffffffffffffffffffffffffffffffffffffffff\n      and\n      dup2\n      jump\t// out\n        /* \"#utility.yul\":7:149   */\n    tag_28:\n        /* \"#utility.yul\":110:142   */\n      tag_30\n        /* \"#utility.yul\":136:141   */\n      dup2\n        /* \"#utility.yul\":110:142   */\n      tag_31\n      jump\t// in\n    tag_30:\n        /* \"#utility.yul\":105:108   */\n      dup3\n        /* \"#utility.yul\":98:143   */\n      mstore\n        /* \"#utility.yul\":7:149   */\n      pop\n      pop\n      jump\t// out\n        /* \"#utility.yul\":155:273   */\n    tag_32:\n        /* \"#utility.yul\":242:266   */\n      tag_34\n        /* \"#utility.yul\":260:265   */\n      dup2\n        /* \"#utility.yul\":242:266   */\n      tag_35\n      jump\t// in\n    tag_34:\n        /* \"#utility.yul\":237:240   */\n      dup3\n        /* \"#utility.yul\":230:267   */\n      mstore\n        /* \"#utility.yul\":155:273   */\n      pop\n      pop\n      jump\t// out\n        /* \"#utility.yul\":279:397   */\n    tag_36:\n        /* \"#utility.yul\":366:390   */\n      tag_38\n        /* \"#utility.yul\":384:389   */\n      dup2\n        /* \"#utility.yul\":366:390   */\n      tag_39\n      jump\t// in\n    tag_38:\n        /* \"#utility.yul\":361:364   */\n      dup3\n        /* \"#utility.yul\":354:391   */\n      mstore\n        /* \"#utility.yul\":279:397   */\n      pop\n      pop\n      jump\t// out\n        /* \"#utility.yul\":403:521   */\n    tag_40:\n        /* \"#utility.yul\":490:514   */\n      tag_42\n        /* \"#utility.yul\":508:513   */\n      dup2\n        /* \"#utility.yul\":490:514   */\n      tag_43\n      jump\t// in\n    tag_42:\n        /* \"#utility.yul\":485:488   */\n      dup3\n        /* \"#utility.yul\":478:515   */\n      mstore\n        /* \"#utility.yul\":403:521   */\n      pop\n      pop\n      jump\t// out\n        /* \"#utility.yul\":527:749   */\n    tag_23:\n        /* \"#utility.yul\":620:624   */\n      0x00\n        /* \"#utility.yul\":658:660   */\n      0x20\n        /* \"#utility.yul\":647:656   */\n      dup3\n        /* \"#utility.yul\":643:661   */\n      add\n        /* \"#utility.yul\":635:661   */\n      swap1\n      pop\n        /* \"#utility.yul\":671:742   */\n      tag_45\n        /* \"#utility.yul\":739:740   */\n      0x00\n        /* \"#utility.yul\":728:737   */\n      dup4\n        /* \"#utility.yul\":724:741   */\n      add\n        /* \"#utility.yul\":715:721   */\n      dup5\n        /* \"#utility.yul\":671:742   */\n      tag_32\n      jump\t// in\n    tag_45:\n        /* \"#utility.yul\":527:749   */\n      swap3\n      swap2\n      pop\n      pop\n      jump\t// out\n        /* \"#utility.yul\":755:1009   */\n    tag_15:\n        /* \"#utility.yul\":864:868   */\n      0x00\n        /* \"#utility.yul\":902:904   */\n      0x20\n        /* \"#utility.yul\":891:900   */\n      dup3\n        /* \"#utility.yul\":887:905   */\n      add\n        /* \"#utility.yul\":879:905   */\n      swap1\n      pop\n        /* \"#utility.yul\":915:1002   */\n      tag_47\n        /* \"#utility.yul\":999:1000   */\n      0x00\n        /* \"#utility.yul\":988:997   */\n      dup4\n        /* \"#utility.yul\":984:1001   */\n      add\n        /* \"#utility.yul\":975:981   */\n      dup5\n        /* \"#utility.yul\":915:1002   */\n      tag_28\n      jump\t// in\n    tag_47:\n        /* \"#utility.yul\":755:1009   */\n      swap3\n      swap2\n      pop\n      pop\n      jump\t// out\n        /* \"#utility.yul\":1015:1237   */\n    tag_11:\n        /* \"#utility.yul\":1108:1112   */\n      0x00\n        /* \"#utility.yul\":1146:1148   */\n      0x20\n        /* \"#utility.yul\":1135:1144   */\n      dup3\n        /* \"#utility.yul\":1131:1149   */\n      add\n        /* \"#utility.yul\":1123:1149   */\n      swap1\n      pop\n        /* \"#utility.yul\":1159:1230   */\n      tag_49\n        /* \"#utility.yul\":1227:1228   */\n      0x00\n        /* \"#utility.yul\":1216:1225   */\n      dup4\n        /* \"#utility.yul\":1212:1229   */\n      add\n        /* \"#utility.yul\":1203:1209   */\n      dup5\n        /* \"#utility.yul\":1159:1230   */\n      tag_36\n      jump\t// in\n    tag_49:\n        /* \"#utility.yul\":1015:1237   */\n      swap3\n      swap2\n      pop\n      pop\n      jump\t// out\n        /* \"#utility.yul\":1243:1465   */\n    tag_19:\n        /* \"#utility.yul\":1336:1340   */\n      0x00\n        /* \"#utility.yul\":1374:1376   */\n      0x20\n        /* \"#utility.yul\":1363:1372   */\n      dup3\n        /* \"#utility.yul\":1359:1377   */\n      add\n        /* \"#utility.yul\":1351:1377   */\n      swap1\n      pop\n        /* \"#utility.yul\":1387:1458   */\n      tag_51\n        /* \"#utility.yul\":1455:1456   */\n      0x00\n        /* \"#utility.yul\":1444:1453   */\n      dup4\n        /* \"#utility.yul\":1440:1457   */\n      add\n        /* \"#utility.yul\":1431:1437   */\n      dup5\n        /* \"#utility.yul\":1387:1458   */\n      tag_40\n      jump\t// in\n    tag_51:\n        /* \"#utility.yul\":1243:1465   */\n      swap3\n      swap2\n      pop\n      pop\n      jump\t// out\n        /* \"#utility.yul\":1471:1567   */\n    tag_35:\n        /* \"#utility.yul\":1508:1515   */\n      0x00\n        /* \"#utility.yul\":1537:1561   */\n      tag_53\n        /* \"#utility.yul\":1555:1560   */\n      dup3\n        /* \"#utility.yul\":1537:1561   */\n      tag_43\n      jump\t// in\n    tag_53:\n        /* \"#utility.yul\":1526:1561   */\n      swap1\n      pop\n        /* \"#utility.yul\":1471:1567   */\n      swap2\n      swap1\n      pop\n      jump\t// out\n        /* \"#utility.yul\":1573:1677   */\n    tag_31:\n        /* \"#utility.yul\":1618:1625   */\n      0x00\n        /* \"#utility.yul\":1647:1671   */\n      tag_55\n        /* \"#utility.yul\":1665:1670   */\n      dup3\n        /* \"#utility.yul\":1647:1671   */\n      tag_43\n      jump\t// in\n    tag_55:\n        /* \"#utility.yul\":1636:1671   */\n      swap1\n      pop\n        /* \"#utility.yul\":1573:1677   */\n      swap2\n      swap1\n      pop\n      jump\t// out\n        /* \"#utility.yul\":1683:1833   */\n    tag_39:\n        /* \"#utility.yul\":1720:1727   */\n      0x00\n        /* \"#utility.yul\":1760:1826   */\n      0xffffffffffffffffffffffffffffffffffffffff000000000000000000000000\n        /* \"#utility.yul\":1753:1758   */\n      dup3\n        /* \"#utility.yul\":1749:1827   */\n      and\n        /* \"#utility.yul\":1738:1827   */\n      swap1\n      pop\n        /* \"#utility.yul\":1683:1833   */\n      swap2\n      swap1\n      pop\n      jump\t// out\n        /* \"#utility.yul\":1839:1965   */\n    tag_43:\n        /* \"#utility.yul\":1876:1883   */\n      0x00\n        /* \"#utility.yul\":1916:1958   */\n      0xffffffffffffffffffffffffffffffffffffffff\n        /* \"#utility.yul\":1909:1914   */\n      dup3\n        /* \"#utility.yul\":1905:1959   */\n      and\n        /* \"#utility.yul\":1894:1959   */\n      swap1\n      pop\n        /* \"#utility.yul\":1839:1965   */\n      swap2\n      swap1\n      pop\n      jump\t// out\n\n    auxdata: 0xa26469706673582212209edc65132ae1114275d8a28de9b1a1814ed5dd69c7a3082088ca87b6e68de7fa64736f6c63430008070033\n}\n",
				"bytecode": {
					"linkReferences": {},
					"object": "6080604052735b38da6a701c568545dcfcb03fcb875f56beddc46000806101000a81548173ffffffffffffffffffffffffffffffffffffffff021916908373ffffffffffffffffffffffffffffffffffffffff16021790555060008054906101000a900473ffffffffffffffffffffffffffffffffffffffff16600160006101000a81548173ffffffffffffffffffffffffffffffffffffffff021916908373ffffffffffffffffffffffffffffffffffffffff16021790555060008054906101000a900473ffffffffffffffffffffffffffffffffffffffff16600260006101000a81548173ffffffffffffffffffffffffffffffffffffffff021916908373ffffffffffffffffffffffffffffffffffffffff160217905550600160009054906101000a900473ffffffffffffffffffffffffffffffffffffffff16600360006101000a81548173ffffffffffffffffffffffffffffffffffffffff021916908373ffffffffffffffffffffffffffffffffffffffff16021790555060008054906101000a900473ffffffffffffffffffffffffffffffffffffffff1660601b600460006101000a81548173ffffffffffffffffffffffffffffffffffffffff021916908360601c02179055503480156101da57600080fd5b506102e9806101ea6000396000f3fe608060405234801561001057600080fd5b50600436106100575760003560e01c8063527116d51461005c5780638de38f981461007a5780639347e6d714610098578063eabe09ad146100b6578063fd7808f6146100d4575b600080fd5b6100646100f2565b604051610071919061020d565b60405180910390f35b610082610105565b60405161008f91906101f2565b60405180910390f35b6100a061012b565b6040516100ad9190610228565b60405180910390f35b6100be610151565b6040516100cb91906101d7565b60405180910390f35b6100dc610175565b6040516100e99190610228565b60405180910390f35b600460009054906101000a900460601b81565b600160009054906101000a900473ffffffffffffffffffffffffffffffffffffffff1681565b600260009054906101000a900473ffffffffffffffffffffffffffffffffffffffff1681565b60008054906101000a900473ffffffffffffffffffffffffffffffffffffffff1681565b600360009054906101000a900473ffffffffffffffffffffffffffffffffffffffff1681565b6101a481610255565b82525050565b6101b381610243565b82525050565b6101c281610267565b82525050565b6101d181610293565b82525050565b60006020820190506101ec60008301846101aa565b92915050565b6000602082019050610207600083018461019b565b92915050565b600060208201905061022260008301846101b9565b92915050565b600060208201905061023d60008301846101c8565b92915050565b600061024e82610293565b9050919050565b600061026082610293565b9050919050565b60007fffffffffffffffffffffffffffffffffffffffff00000000000000000000000082169050919050565b600073ffffffffffffffffffffffffffffffffffffffff8216905091905056fea26469706673582212209edc65132ae1114275d8a28de9b1a1814ed5dd69c7a3082088ca87b6e68de7fa64736f6c63430008070033",
					"opcodes": "PUSH1 0x80 PUSH1 0x40 MSTORE PUSH20 0x5B38DA6A701C568545DCFCB03FCB875F56BEDDC4 PUSH1 0x0 DUP1 PUSH2 0x100 EXP DUP2 SLOAD DUP2 PUSH20 0xFFFFFFFFFFFFFFFFFFFFFFFFFFFFFFFFFFFFFFFF MUL NOT AND SWAP1 DUP4 PUSH20 0xFFFFFFFFFFFFFFFFFFFFFFFFFFFFFFFFFFFFFFFF AND MUL OR SWAP1 SSTORE POP PUSH1 0x0 DUP1 SLOAD SWAP1 PUSH2 0x100 EXP SWAP1 DIV PUSH20 0xFFFFFFFFFFFFFFFFFFFFFFFFFFFFFFFFFFFFFFFF AND PUSH1 0x1 PUSH1 0x0 PUSH2 0x100 EXP DUP2 SLOAD DUP2 PUSH20 0xFFFFFFFFFFFFFFFFFFFFFFFFFFFFFFFFFFFFFFFF MUL NOT AND SWAP1 DUP4 PUSH20 0xFFFFFFFFFFFFFFFFFFFFFFFFFFFFFFFFFFFFFFFF AND MUL OR SWAP1 SSTORE POP PUSH1 0x0 DUP1 SLOAD SWAP1 PUSH2 0x100 EXP SWAP1 DIV PUSH20 0xFFFFFFFFFFFFFFFFFFFFFFFFFFFFFFFFFFFFFFFF AND PUSH1 0x2 PUSH1 0x0 PUSH2 0x100 EXP DUP2 SLOAD DUP2 PUSH20 0xFFFFFFFFFFFFFFFFFFFFFFFFFFFFFFFFFFFFFFFF MUL NOT AND SWAP1 DUP4 PUSH20 0xFFFFFFFFFFFFFFFFFFFFFFFFFFFFFFFFFFFFFFFF AND MUL OR SWAP1 SSTORE POP PUSH1 0x1 PUSH1 0x0 SWAP1 SLOAD SWAP1 PUSH2 0x100 EXP SWAP1 DIV PUSH20 0xFFFFFFFFFFFFFFFFFFFFFFFFFFFFFFFFFFFFFFFF AND PUSH1 0x3 PUSH1 0x0 PUSH2 0x100 EXP DUP2 SLOAD DUP2 PUSH20 0xFFFFFFFFFFFFFFFFFFFFFFFFFFFFFFFFFFFFFFFF MUL NOT AND SWAP1 DUP4 PUSH20 0xFFFFFFFFFFFFFFFFFFFFFFFFFFFFFFFFFFFFFFFF AND MUL OR SWAP1 SSTORE POP PUSH1 0x0 DUP1 SLOAD SWAP1 PUSH2 0x100 EXP SWAP1 DIV PUSH20 0xFFFFFFFFFFFFFFFFFFFFFFFFFFFFFFFFFFFFFFFF AND PUSH1 0x60 SHL PUSH1 0x4 PUSH1 0x0 PUSH2 0x100 EXP DUP2 SLOAD DUP2 PUSH20 0xFFFFFFFFFFFFFFFFFFFFFFFFFFFFFFFFFFFFFFFF MUL NOT AND SWAP1 DUP4 PUSH1 0x60 SHR MUL OR SWAP1 SSTORE POP CALLVALUE DUP1 ISZERO PUSH2 0x1DA JUMPI PUSH1 0x0 DUP1 REVERT JUMPDEST POP PUSH2 0x2E9 DUP1 PUSH2 0x1EA PUSH1 0x0 CODECOPY PUSH1 0x0 RETURN INVALID PUSH1 0x80 PUSH1 0x40 MSTORE CALLVALUE DUP1 ISZERO PUSH2 0x10 JUMPI PUSH1 0x0 DUP1 REVERT JUMPDEST POP PUSH1 0x4 CALLDATASIZE LT PUSH2 0x57 JUMPI PUSH1 0x0 CALLDATALOAD PUSH1 0xE0 SHR DUP1 PUSH4 0x527116D5 EQ PUSH2 0x5C JUMPI DUP1 PUSH4 0x8DE38F98 EQ PUSH2 0x7A JUMPI DUP1 PUSH4 0x9347E6D7 EQ PUSH2 0x98 JUMPI DUP1 PUSH4 0xEABE09AD EQ PUSH2 0xB6 JUMPI DUP1 PUSH4 0xFD7808F6 EQ PUSH2 0xD4 JUMPI JUMPDEST PUSH1 0x0 DUP1 REVERT JUMPDEST PUSH2 0x64 PUSH2 0xF2 JUMP JUMPDEST PUSH1 0x40 MLOAD PUSH2 0x71 SWAP2 SWAP1 PUSH2 0x20D JUMP JUMPDEST PUSH1 0x40 MLOAD DUP1 SWAP2 SUB SWAP1 RETURN JUMPDEST PUSH2 0x82 PUSH2 0x105 JUMP JUMPDEST PUSH1 0x40 MLOAD PUSH2 0x8F SWAP2 SWAP1 PUSH2 0x1F2 JUMP JUMPDEST PUSH1 0x40 MLOAD DUP1 SWAP2 SUB SWAP1 RETURN JUMPDEST PUSH2 0xA0 PUSH2 0x12B JUMP JUMPDEST PUSH1 0x40 MLOAD PUSH2 0xAD SWAP2 SWAP1 PUSH2 0x228 JUMP JUMPDEST PUSH1 0x40 MLOAD DUP1 SWAP2 SUB SWAP1 RETURN JUMPDEST PUSH2 0xBE PUSH2 0x151 JUMP JUMPDEST PUSH1 0x40 MLOAD PUSH2 0xCB SWAP2 SWAP1 PUSH2 0x1D7 JUMP JUMPDEST PUSH1 0x40 MLOAD DUP1 SWAP2 SUB SWAP1 RETURN JUMPDEST PUSH2 0xDC PUSH2 0x175 JUMP JUMPDEST PUSH1 0x40 MLOAD PUSH2 0xE9 SWAP2 SWAP1 PUSH2 0x228 JUMP JUMPDEST PUSH1 0x40 MLOAD DUP1 SWAP2 SUB SWAP1 RETURN JUMPDEST PUSH1 0x4 PUSH1 0x0 SWAP1 SLOAD SWAP1 PUSH2 0x100 EXP SWAP1 DIV PUSH1 0x60 SHL DUP2 JUMP JUMPDEST PUSH1 0x1 PUSH1 0x0 SWAP1 SLOAD SWAP1 PUSH2 0x100 EXP SWAP1 DIV PUSH20 0xFFFFFFFFFFFFFFFFFFFFFFFFFFFFFFFFFFFFFFFF AND DUP2 JUMP JUMPDEST PUSH1 0x2 PUSH1 0x0 SWAP1 SLOAD SWAP1 PUSH2 0x100 EXP SWAP1 DIV PUSH20 0xFFFFFFFFFFFFFFFFFFFFFFFFFFFFFFFFFFFFFFFF AND DUP2 JUMP JUMPDEST PUSH1 0x0 DUP1 SLOAD SWAP1 PUSH2 0x100 EXP SWAP1 DIV PUSH20 0xFFFFFFFFFFFFFFFFFFFFFFFFFFFFFFFFFFFFFFFF AND DUP2 JUMP JUMPDEST PUSH1 0x3 PUSH1 0x0 SWAP1 SLOAD SWAP1 PUSH2 0x100 EXP SWAP1 DIV PUSH20 0xFFFFFFFFFFFFFFFFFFFFFFFFFFFFFFFFFFFFFFFF AND DUP2 JUMP JUMPDEST PUSH2 0x1A4 DUP2 PUSH2 0x255 JUMP JUMPDEST DUP3 MSTORE POP POP JUMP JUMPDEST PUSH2 0x1B3 DUP2 PUSH2 0x243 JUMP JUMPDEST DUP3 MSTORE POP POP JUMP JUMPDEST PUSH2 0x1C2 DUP2 PUSH2 0x267 JUMP JUMPDEST DUP3 MSTORE POP POP JUMP JUMPDEST PUSH2 0x1D1 DUP2 PUSH2 0x293 JUMP JUMPDEST DUP3 MSTORE POP POP JUMP JUMPDEST PUSH1 0x0 PUSH1 0x20 DUP3 ADD SWAP1 POP PUSH2 0x1EC PUSH1 0x0 DUP4 ADD DUP5 PUSH2 0x1AA JUMP JUMPDEST SWAP3 SWAP2 POP POP JUMP JUMPDEST PUSH1 0x0 PUSH1 0x20 DUP3 ADD SWAP1 POP PUSH2 0x207 PUSH1 0x0 DUP4 ADD DUP5 PUSH2 0x19B JUMP JUMPDEST SWAP3 SWAP2 POP POP JUMP JUMPDEST PUSH1 0x0 PUSH1 0x20 DUP3 ADD SWAP1 POP PUSH2 0x222 PUSH1 0x0 DUP4 ADD DUP5 PUSH2 0x1B9 JUMP JUMPDEST SWAP3 SWAP2 POP POP JUMP JUMPDEST PUSH1 0x0 PUSH1 0x20 DUP3 ADD SWAP1 POP PUSH2 0x23D PUSH1 0x0 DUP4 ADD DUP5 PUSH2 0x1C8 JUMP JUMPDEST SWAP3 SWAP2 POP POP JUMP JUMPDEST PUSH1 0x0 PUSH2 0x24E DUP3 PUSH2 0x293 JUMP JUMPDEST SWAP1 POP SWAP2 SWAP1 POP JUMP JUMPDEST PUSH1 0x0 PUSH2 0x260 DUP3 PUSH2 0x293 JUMP JUMPDEST SWAP1 POP SWAP2 SWAP1 POP JUMP JUMPDEST PUSH1 0x0 PUSH32 0xFFFFFFFFFFFFFFFFFFFFFFFFFFFFFFFFFFFFFFFF000000000000000000000000 DUP3 AND SWAP1 POP SWAP2 SWAP1 POP JUMP JUMPDEST PUSH1 0x0 PUSH20 0xFFFFFFFFFFFFFFFFFFFFFFFFFFFFFFFFFFFFFFFF DUP3 AND SWAP1 POP SWAP2 SWAP1 POP JUMP INVALID LOG2 PUSH5 0x6970667358 0x22 SLT KECCAK256 SWAP15 0xDC PUSH6 0x132AE1114275 0xD8 LOG2 DUP14 0xE9 0xB1 LOG1 DUP2 0x4E 0xD5 0xDD PUSH10 0xC7A3082088CA87B6E68D 0xE7 STATICCALL PUSH5 0x736F6C6343 STOP ADDMOD SMOD STOP CALLER "
				},
				"gasEstimates": {
					"creation": {
						"codeDepositCost": "149000",
						"executionCost": "130072",
						"totalCost": "279072"
					},
					"external": {
						"addr1()": "2555",
						"addr2()": "2514",
						"addr3()": "2493",
						"addr4()": "2537",
						"addr6()": "2449"
					}
				},
				"methodIdentifiers": {
					"addr1()": "eabe09ad",
					"addr2()": "8de38f98",
					"addr3()": "9347e6d7",
					"addr4()": "fd7808f6",
					"addr6()": "527116d5"
				}
			},
			"storageLayout": {
				"storage": [
					{
						"astId": 5,
						"contract": "study/chapter02/4conversion.sol:test3",
						"label": "addr1",
						"offset": 0,
						"slot": "0",
						"type": "t_address"
					},
					{
						"astId": 11,
						"contract": "study/chapter02/4conversion.sol:test3",
						"label": "addr2",
						"offset": 0,
						"slot": "1",
						"type": "t_address_payable"
					},
					{
						"astId": 17,
						"contract": "study/chapter02/4conversion.sol:test3",
						"label": "addr3",
						"offset": 0,
						"slot": "2",
						"type": "t_uint160"
					},
					{
						"astId": 26,
						"contract": "study/chapter02/4conversion.sol:test3",
						"label": "addr4",
						"offset": 0,
						"slot": "3",
						"type": "t_uint160"
					},
					{
						"astId": 32,
						"contract": "study/chapter02/4conversion.sol:test3",
						"label": "addr6",
						"offset": 0,
						"slot": "4",
						"type": "t_bytes20"
					}
				],
				"types": {
					"t_address": {
						"encoding": "inplace",
						"label": "address",
						"numberOfBytes": "20"
					},
					"t_address_payable": {
						"encoding": "inplace",
						"label": "address payable",
						"numberOfBytes": "20"
					},
					"t_bytes20": {
						"encoding": "inplace",
						"label": "bytes20",
						"numberOfBytes": "20"
					},
					"t_uint160": {
						"encoding": "inplace",
						"label": "uint160",
						"numberOfBytes": "20"
					}
				}
			},
			"userdoc": {
				"kind": "user",
				"methods": {},
				"version": 1
			}
		}
	}
}