{
	"study/chapter02/4conversion.sol": {
		"test2": {
			"abi": [
				{
					"inputs": [],
					"name": "a",
					"outputs": [
						{
							"internalType": "uint32",
							"name": "",
							"type": "uint32"
						}
					],
					"stateMutability": "view",
					"type": "function"
				},
				{
					"inputs": [],
					"name": "a1",
					"outputs": [
						{
							"internalType": "uint16",
							"name": "",
							"type": "uint16"
						}
					],
					"stateMutability": "view",
					"type": "function"
				},
				{
					"inputs": [],
					"name": "a2",
					"outputs": [
						{
							"internalType": "bytes2",
							"name": "",
							"type": "bytes2"
						}
					],
					"stateMutability": "view",
					"type": "function"
				},
				{
					"inputs": [],
					"name": "b",
					"outputs": [
						{
							"internalType": "uint16",
							"name": "",
							"type": "uint16"
						}
					],
					"stateMutability": "view",
					"type": "function"
				},
				{
					"inputs": [],
					"name": "b1",
					"outputs": [
						{
							"internalType": "uint32",
							"name": "",
							"type": "uint32"
						}
					],
					"stateMutability": "view",
					"type": "function"
				},
				{
					"inputs": [],
					"name": "b2",
					"outputs": [
						{
							"internalType": "bytes1",
							"name": "",
							"type": "bytes1"
						}
					],
					"stateMutability": "view",
					"type": "function"
				},
				{
					"inputs": [],
					"name": "x",
					"outputs": [
						{
							"internalType": "uint8",
							"name": "",
							"type": "uint8"
						}
					],
					"stateMutability": "view",
					"type": "function"
				},
				{
					"inputs": [],
					"name": "y",
					"outputs": [
						{
							"internalType": "int8",
							"name": "",
							"type": "int8"
						}
					],
					"stateMutability": "view",
					"type": "function"
				}
			],
			"devdoc": {
				"kind": "dev",
				"methods": {},
				"version": 1
			},
			"evm": {
				"assembly": "    /* \"study/chapter02/4conversion.sol\":419:852  contract test2{... */\n  mstore(0x40, 0x80)\n    /* \"study/chapter02/4conversion.sol\":454:456  -3 */\n  0xfffffffffffffffffffffffffffffffffffffffffffffffffffffffffffffffd\n    /* \"study/chapter02/4conversion.sol\":438:456  int8 public y = -3 */\n  0x00\n  dup1\n  0x0100\n  exp\n  dup2\n  sload\n  dup2\n  0xff\n  mul\n  not\n  and\n  swap1\n  dup4\n  0x00\n  signextend\n  0xff\n  and\n  mul\n  or\n  swap1\n  sstore\n  pop\n    /* \"study/chapter02/4conversion.sol\":495:496  y */\n  0x00\n  dup1\n  sload\n  swap1\n  0x0100\n  exp\n  swap1\n  div\n  0x00\n  signextend\n    /* \"study/chapter02/4conversion.sol\":472:497  uint8 public x = uint8(y) */\n  0x00\n  exp(0x0100, 0x01)\n  dup2\n  sload\n  dup2\n  0xff\n  mul\n  not\n  and\n  swap1\n  dup4\n  0xff\n  and\n  mul\n  or\n  swap1\n  sstore\n  pop\n    /* \"study/chapter02/4conversion.sol\":559:569  0x12345678 */\n  0x12345678\n    /* \"study/chapter02/4conversion.sol\":541:569  uint32 public a = 0x12345678 */\n  0x00\n  exp(0x0100, 0x02)\n  dup2\n  sload\n  dup2\n  0xffffffff\n  mul\n  not\n  and\n  swap1\n  dup4\n  0xffffffff\n  and\n  mul\n  or\n  swap1\n  sstore\n  pop\n    /* \"study/chapter02/4conversion.sol\":599:600  a */\n  0x00\n  0x02\n  swap1\n  sload\n  swap1\n  0x0100\n  exp\n  swap1\n  div\n  0xffffffff\n  and\n    /* \"study/chapter02/4conversion.sol\":574:601  uint16 public b = uint16(a) */\n  0x00\n  exp(0x0100, 0x06)\n  dup2\n  sload\n  dup2\n  0xffff\n  mul\n  not\n  and\n  swap1\n  dup4\n  0xffff\n  and\n  mul\n  or\n  swap1\n  sstore\n  pop\n    /* \"study/chapter02/4conversion.sol\":644:650  0x1234 */\n  0x1234\n    /* \"study/chapter02/4conversion.sol\":625:650  uint16 public a1 = 0x1234 */\n  0x00\n  exp(0x0100, 0x08)\n  dup2\n  sload\n  dup2\n  0xffff\n  mul\n  not\n  and\n  swap1\n  dup4\n  0xffff\n  and\n  mul\n  or\n  swap1\n  sstore\n  pop\n    /* \"study/chapter02/4conversion.sol\":681:683  a1 */\n  0x00\n  0x08\n  swap1\n  sload\n  swap1\n  0x0100\n  exp\n  swap1\n  div\n  0xffff\n  and\n    /* \"study/chapter02/4conversion.sol\":674:684  uint32(a1) */\n  0xffff\n  and\n    /* \"study/chapter02/4conversion.sol\":655:684  uint32 public b1 = uint32(a1) */\n  0x00\n  exp(0x0100, 0x0a)\n  dup2\n  sload\n  dup2\n  0xffffffff\n  mul\n  not\n  and\n  swap1\n  dup4\n  0xffffffff\n  and\n  mul\n  or\n  swap1\n  sstore\n  pop\n    /* \"study/chapter02/4conversion.sol\":769:775  0x1234 */\n  0x1234\n    /* \"study/chapter02/4conversion.sol\":750:775  bytes2 public a2 = 0x1234 */\n  0xf0\n  shl\n  0x00\n  exp(0x0100, 0x0e)\n  dup2\n  sload\n  dup2\n  0xffff\n  mul\n  not\n  and\n  swap1\n  dup4\n  0xf0\n  shr\n  mul\n  or\n  swap1\n  sstore\n  pop\n    /* \"study/chapter02/4conversion.sol\":806:808  a2 */\n  0x00\n  0x0e\n  swap1\n  sload\n  swap1\n  0x0100\n  exp\n  swap1\n  div\n  0xf0\n  shl\n    /* \"study/chapter02/4conversion.sol\":780:809  bytes1 public b2 = bytes1(a2) */\n  0x00\n  exp(0x0100, 0x10)\n  dup2\n  sload\n  dup2\n  0xff\n  mul\n  not\n  and\n  swap1\n  dup4\n  0xf8\n  shr\n  mul\n  or\n  swap1\n  sstore\n  pop\n    /* \"study/chapter02/4conversion.sol\":419:852  contract test2{... */\n  callvalue\n  dup1\n  iszero\n  tag_1\n  jumpi\n  0x00\n  dup1\n  revert\ntag_1:\n  pop\n  dataSize(sub_0)\n  dup1\n  dataOffset(sub_0)\n  0x00\n  codecopy\n  0x00\n  return\nstop\n\nsub_0: assembly {\n        /* \"study/chapter02/4conversion.sol\":419:852  contract test2{... */\n      mstore(0x40, 0x80)\n      callvalue\n      dup1\n      iszero\n      tag_1\n      jumpi\n      0x00\n      dup1\n      revert\n    tag_1:\n      pop\n      jumpi(tag_2, lt(calldatasize, 0x04))\n      shr(0xe0, calldataload(0x00))\n      dup1\n      0x4df7e3d0\n      gt\n      tag_11\n      jumpi\n      dup1\n      0x4df7e3d0\n      eq\n      tag_7\n      jumpi\n      dup1\n      0x969e9d0c\n      eq\n      tag_8\n      jumpi\n      dup1\n      0xa56dfe4a\n      eq\n      tag_9\n      jumpi\n      dup1\n      0xee495002\n      eq\n      tag_10\n      jumpi\n      jump(tag_2)\n    tag_11:\n      dup1\n      0x0add6ef2\n      eq\n      tag_3\n      jumpi\n      dup1\n      0x0c55699c\n      eq\n      tag_4\n      jumpi\n      dup1\n      0x0dbe671f\n      eq\n      tag_5\n      jumpi\n      dup1\n      0x119552a1\n      eq\n      tag_6\n      jumpi\n    tag_2:\n      0x00\n      dup1\n      revert\n        /* \"study/chapter02/4conversion.sol\":780:809  bytes1 public b2 = bytes1(a2) */\n    tag_3:\n      tag_12\n      tag_13\n      jump\t// in\n    tag_12:\n      mload(0x40)\n      tag_14\n      swap2\n      swap1\n      tag_15\n      jump\t// in\n    tag_14:\n      mload(0x40)\n      dup1\n      swap2\n      sub\n      swap1\n      return\n        /* \"study/chapter02/4conversion.sol\":472:497  uint8 public x = uint8(y) */\n    tag_4:\n      tag_16\n      tag_17\n      jump\t// in\n    tag_16:\n      mload(0x40)\n      tag_18\n      swap2\n      swap1\n      tag_19\n      jump\t// in\n    tag_18:\n      mload(0x40)\n      dup1\n      swap2\n      sub\n      swap1\n      return\n        /* \"study/chapter02/4conversion.sol\":541:569  uint32 public a = 0x12345678 */\n    tag_5:\n      tag_20\n      tag_21\n      jump\t// in\n    tag_20:\n      mload(0x40)\n      tag_22\n      swap2\n      swap1\n      tag_23\n      jump\t// in\n    tag_22:\n      mload(0x40)\n      dup1\n      swap2\n      sub\n      swap1\n      return\n        /* \"study/chapter02/4conversion.sol\":625:650  uint16 public a1 = 0x1234 */\n    tag_6:\n      tag_24\n      tag_25\n      jump\t// in\n    tag_24:\n      mload(0x40)\n      tag_26\n      swap2\n      swap1\n      tag_27\n      jump\t// in\n    tag_26:\n      mload(0x40)\n      dup1\n      swap2\n      sub\n      swap1\n      return\n        /* \"study/chapter02/4conversion.sol\":574:601  uint16 public b = uint16(a) */\n    tag_7:\n      tag_28\n      tag_29\n      jump\t// in\n    tag_28:\n      mload(0x40)\n      tag_30\n      swap2\n      swap1\n      tag_27\n      jump\t// in\n    tag_30:\n      mload(0x40)\n      dup1\n      swap2\n      sub\n      swap1\n      return\n        /* \"study/chapter02/4conversion.sol\":750:775  bytes2 public a2 = 0x1234 */\n    tag_8:\n      tag_31\n      tag_32\n      jump\t// in\n    tag_31:\n      mload(0x40)\n      tag_33\n      swap2\n      swap1\n      tag_34\n      jump\t// in\n    tag_33:\n      mload(0x40)\n      dup1\n      swap2\n      sub\n      swap1\n      return\n        /* \"study/chapter02/4conversion.sol\":438:456  int8 public y = -3 */\n    tag_9:\n      tag_35\n      tag_36\n      jump\t// in\n    tag_35:\n      mload(0x40)\n      tag_37\n      swap2\n      swap1\n      tag_38\n      jump\t// in\n    tag_37:\n      mload(0x40)\n      dup1\n      swap2\n      sub\n      swap1\n      return\n        /* \"study/chapter02/4conversion.sol\":655:684  uint32 public b1 = uint32(a1) */\n    tag_10:\n      tag_39\n      tag_40\n      jump\t// in\n    tag_39:\n      mload(0x40)\n      tag_41\n      swap2\n      swap1\n      tag_23\n      jump\t// in\n    tag_41:\n      mload(0x40)\n      dup1\n      swap2\n      sub\n      swap1\n      return\n        /* \"study/chapter02/4conversion.sol\":780:809  bytes1 public b2 = bytes1(a2) */\n    tag_13:\n      0x00\n      0x10\n      swap1\n      sload\n      swap1\n      0x0100\n      exp\n      swap1\n      div\n      0xf8\n      shl\n      dup2\n      jump\t// out\n        /* \"study/chapter02/4conversion.sol\":472:497  uint8 public x = uint8(y) */\n    tag_17:\n      0x00\n      0x01\n      swap1\n      sload\n      swap1\n      0x0100\n      exp\n      swap1\n      div\n      0xff\n      and\n      dup2\n      jump\t// out\n        /* \"study/chapter02/4conversion.sol\":541:569  uint32 public a = 0x12345678 */\n    tag_21:\n      0x00\n      0x02\n      swap1\n      sload\n      swap1\n      0x0100\n      exp\n      swap1\n      div\n      0xffffffff\n      and\n      dup2\n      jump\t// out\n        /* \"study/chapter02/4conversion.sol\":625:650  uint16 public a1 = 0x1234 */\n    tag_25:\n      0x00\n      0x08\n      swap1\n      sload\n      swap1\n      0x0100\n      exp\n      swap1\n      div\n      0xffff\n      and\n      dup2\n      jump\t// out\n        /* \"study/chapter02/4conversion.sol\":574:601  uint16 public b = uint16(a) */\n    tag_29:\n      0x00\n      0x06\n      swap1\n      sload\n      swap1\n      0x0100\n      exp\n      swap1\n      div\n      0xffff\n      and\n      dup2\n      jump\t// out\n        /* \"study/chapter02/4conversion.sol\":750:775  bytes2 public a2 = 0x1234 */\n    tag_32:\n      0x00\n      0x0e\n      swap1\n      sload\n      swap1\n      0x0100\n      exp\n      swap1\n      div\n      0xf0\n      shl\n      dup2\n      jump\t// out\n        /* \"study/chapter02/4conversion.sol\":438:456  int8 public y = -3 */\n    tag_36:\n      0x00\n      dup1\n      sload\n      swap1\n      0x0100\n      exp\n      swap1\n      div\n      0x00\n      signextend\n      dup2\n      jump\t// out\n        /* \"study/chapter02/4conversion.sol\":655:684  uint32 public b1 = uint32(a1) */\n    tag_40:\n      0x00\n      0x0a\n      swap1\n      sload\n      swap1\n      0x0100\n      exp\n      swap1\n      div\n      0xffffffff\n      and\n      dup2\n      jump\t// out\n        /* \"#utility.yul\":7:122   */\n    tag_43:\n        /* \"#utility.yul\":92:115   */\n      tag_45\n        /* \"#utility.yul\":109:114   */\n      dup2\n        /* \"#utility.yul\":92:115   */\n      tag_46\n      jump\t// in\n    tag_45:\n        /* \"#utility.yul\":87:90   */\n      dup3\n        /* \"#utility.yul\":80:116   */\n      mstore\n        /* \"#utility.yul\":7:122   */\n      pop\n      pop\n      jump\t// out\n        /* \"#utility.yul\":128:243   */\n    tag_47:\n        /* \"#utility.yul\":213:236   */\n      tag_49\n        /* \"#utility.yul\":230:235   */\n      dup2\n        /* \"#utility.yul\":213:236   */\n      tag_50\n      jump\t// in\n    tag_49:\n        /* \"#utility.yul\":208:211   */\n      dup3\n        /* \"#utility.yul\":201:237   */\n      mstore\n        /* \"#utility.yul\":128:243   */\n      pop\n      pop\n      jump\t// out\n        /* \"#utility.yul\":249:358   */\n    tag_51:\n        /* \"#utility.yul\":330:351   */\n      tag_53\n        /* \"#utility.yul\":345:350   */\n      dup2\n        /* \"#utility.yul\":330:351   */\n      tag_54\n      jump\t// in\n    tag_53:\n        /* \"#utility.yul\":325:328   */\n      dup3\n        /* \"#utility.yul\":318:352   */\n      mstore\n        /* \"#utility.yul\":249:358   */\n      pop\n      pop\n      jump\t// out\n        /* \"#utility.yul\":364:479   */\n    tag_55:\n        /* \"#utility.yul\":449:472   */\n      tag_57\n        /* \"#utility.yul\":466:471   */\n      dup2\n        /* \"#utility.yul\":449:472   */\n      tag_58\n      jump\t// in\n    tag_57:\n        /* \"#utility.yul\":444:447   */\n      dup3\n        /* \"#utility.yul\":437:473   */\n      mstore\n        /* \"#utility.yul\":364:479   */\n      pop\n      pop\n      jump\t// out\n        /* \"#utility.yul\":485:600   */\n    tag_59:\n        /* \"#utility.yul\":570:593   */\n      tag_61\n        /* \"#utility.yul\":587:592   */\n      dup2\n        /* \"#utility.yul\":570:593   */\n      tag_62\n      jump\t// in\n    tag_61:\n        /* \"#utility.yul\":565:568   */\n      dup3\n        /* \"#utility.yul\":558:594   */\n      mstore\n        /* \"#utility.yul\":485:600   */\n      pop\n      pop\n      jump\t// out\n        /* \"#utility.yul\":606:718   */\n    tag_63:\n        /* \"#utility.yul\":689:711   */\n      tag_65\n        /* \"#utility.yul\":705:710   */\n      dup2\n        /* \"#utility.yul\":689:711   */\n      tag_66\n      jump\t// in\n    tag_65:\n        /* \"#utility.yul\":684:687   */\n      dup3\n        /* \"#utility.yul\":677:712   */\n      mstore\n        /* \"#utility.yul\":606:718   */\n      pop\n      pop\n      jump\t// out\n        /* \"#utility.yul\":724:942   */\n    tag_15:\n        /* \"#utility.yul\":815:819   */\n      0x00\n        /* \"#utility.yul\":853:855   */\n      0x20\n        /* \"#utility.yul\":842:851   */\n      dup3\n        /* \"#utility.yul\":838:856   */\n      add\n        /* \"#utility.yul\":830:856   */\n      swap1\n      pop\n        /* \"#utility.yul\":866:935   */\n      tag_68\n        /* \"#utility.yul\":932:933   */\n      0x00\n        /* \"#utility.yul\":921:930   */\n      dup4\n        /* \"#utility.yul\":917:934   */\n      add\n        /* \"#utility.yul\":908:914   */\n      dup5\n        /* \"#utility.yul\":866:935   */\n      tag_43\n      jump\t// in\n    tag_68:\n        /* \"#utility.yul\":724:942   */\n      swap3\n      swap2\n      pop\n      pop\n      jump\t// out\n        /* \"#utility.yul\":948:1166   */\n    tag_34:\n        /* \"#utility.yul\":1039:1043   */\n      0x00\n        /* \"#utility.yul\":1077:1079   */\n      0x20\n        /* \"#utility.yul\":1066:1075   */\n      dup3\n        /* \"#utility.yul\":1062:1080   */\n      add\n        /* \"#utility.yul\":1054:1080   */\n      swap1\n      pop\n        /* \"#utility.yul\":1090:1159   */\n      tag_70\n        /* \"#utility.yul\":1156:1157   */\n      0x00\n        /* \"#utility.yul\":1145:1154   */\n      dup4\n        /* \"#utility.yul\":1141:1158   */\n      add\n        /* \"#utility.yul\":1132:1138   */\n      dup5\n        /* \"#utility.yul\":1090:1159   */\n      tag_47\n      jump\t// in\n    tag_70:\n        /* \"#utility.yul\":948:1166   */\n      swap3\n      swap2\n      pop\n      pop\n      jump\t// out\n        /* \"#utility.yul\":1172:1382   */\n    tag_38:\n        /* \"#utility.yul\":1259:1263   */\n      0x00\n        /* \"#utility.yul\":1297:1299   */\n      0x20\n        /* \"#utility.yul\":1286:1295   */\n      dup3\n        /* \"#utility.yul\":1282:1300   */\n      add\n        /* \"#utility.yul\":1274:1300   */\n      swap1\n      pop\n        /* \"#utility.yul\":1310:1375   */\n      tag_72\n        /* \"#utility.yul\":1372:1373   */\n      0x00\n        /* \"#utility.yul\":1361:1370   */\n      dup4\n        /* \"#utility.yul\":1357:1374   */\n      add\n        /* \"#utility.yul\":1348:1354   */\n      dup5\n        /* \"#utility.yul\":1310:1375   */\n      tag_51\n      jump\t// in\n    tag_72:\n        /* \"#utility.yul\":1172:1382   */\n      swap3\n      swap2\n      pop\n      pop\n      jump\t// out\n        /* \"#utility.yul\":1388:1606   */\n    tag_27:\n        /* \"#utility.yul\":1479:1483   */\n      0x00\n        /* \"#utility.yul\":1517:1519   */\n      0x20\n        /* \"#utility.yul\":1506:1515   */\n      dup3\n        /* \"#utility.yul\":1502:1520   */\n      add\n        /* \"#utility.yul\":1494:1520   */\n      swap1\n      pop\n        /* \"#utility.yul\":1530:1599   */\n      tag_74\n        /* \"#utility.yul\":1596:1597   */\n      0x00\n        /* \"#utility.yul\":1585:1594   */\n      dup4\n        /* \"#utility.yul\":1581:1598   */\n      add\n        /* \"#utility.yul\":1572:1578   */\n      dup5\n        /* \"#utility.yul\":1530:1599   */\n      tag_55\n      jump\t// in\n    tag_74:\n        /* \"#utility.yul\":1388:1606   */\n      swap3\n      swap2\n      pop\n      pop\n      jump\t// out\n        /* \"#utility.yul\":1612:1830   */\n    tag_23:\n        /* \"#utility.yul\":1703:1707   */\n      0x00\n        /* \"#utility.yul\":1741:1743   */\n      0x20\n        /* \"#utility.yul\":1730:1739   */\n      dup3\n        /* \"#utility.yul\":1726:1744   */\n      add\n        /* \"#utility.yul\":1718:1744   */\n      swap1\n      pop\n        /* \"#utility.yul\":1754:1823   */\n      tag_76\n        /* \"#utility.yul\":1820:1821   */\n      0x00\n        /* \"#utility.yul\":1809:1818   */\n      dup4\n        /* \"#utility.yul\":1805:1822   */\n      add\n        /* \"#utility.yul\":1796:1802   */\n      dup5\n        /* \"#utility.yul\":1754:1823   */\n      tag_59\n      jump\t// in\n    tag_76:\n        /* \"#utility.yul\":1612:1830   */\n      swap3\n      swap2\n      pop\n      pop\n      jump\t// out\n        /* \"#utility.yul\":1836:2050   */\n    tag_19:\n        /* \"#utility.yul\":1925:1929   */\n      0x00\n        /* \"#utility.yul\":1963:1965   */\n      0x20\n        /* \"#utility.yul\":1952:1961   */\n      dup3\n        /* \"#utility.yul\":1948:1966   */\n      add\n        /* \"#utility.yul\":1940:1966   */\n      swap1\n      pop\n        /* \"#utility.yul\":1976:2043   */\n      tag_78\n        /* \"#utility.yul\":2040:2041   */\n      0x00\n        /* \"#utility.yul\":2029:2038   */\n      dup4\n        /* \"#utility.yul\":2025:2042   */\n      add\n        /* \"#utility.yul\":2016:2022   */\n      dup5\n        /* \"#utility.yul\":1976:2043   */\n      tag_63\n      jump\t// in\n    tag_78:\n        /* \"#utility.yul\":1836:2050   */\n      swap3\n      swap2\n      pop\n      pop\n      jump\t// out\n        /* \"#utility.yul\":2056:2205   */\n    tag_46:\n        /* \"#utility.yul\":2092:2099   */\n      0x00\n        /* \"#utility.yul\":2132:2198   */\n      0xff00000000000000000000000000000000000000000000000000000000000000\n        /* \"#utility.yul\":2125:2130   */\n      dup3\n        /* \"#utility.yul\":2121:2199   */\n      and\n        /* \"#utility.yul\":2110:2199   */\n      swap1\n      pop\n        /* \"#utility.yul\":2056:2205   */\n      swap2\n      swap1\n      pop\n      jump\t// out\n        /* \"#utility.yul\":2211:2360   */\n    tag_50:\n        /* \"#utility.yul\":2247:2254   */\n      0x00\n        /* \"#utility.yul\":2287:2353   */\n      0xffff000000000000000000000000000000000000000000000000000000000000\n        /* \"#utility.yul\":2280:2285   */\n      dup3\n        /* \"#utility.yul\":2276:2354   */\n      and\n        /* \"#utility.yul\":2265:2354   */\n      swap1\n      pop\n        /* \"#utility.yul\":2211:2360   */\n      swap2\n      swap1\n      pop\n      jump\t// out\n        /* \"#utility.yul\":2366:2455   */\n    tag_54:\n        /* \"#utility.yul\":2400:2407   */\n      0x00\n        /* \"#utility.yul\":2443:2448   */\n      dup2\n        /* \"#utility.yul\":2440:2441   */\n      0x00\n        /* \"#utility.yul\":2429:2449   */\n      signextend\n        /* \"#utility.yul\":2418:2449   */\n      swap1\n      pop\n        /* \"#utility.yul\":2366:2455   */\n      swap2\n      swap1\n      pop\n      jump\t// out\n        /* \"#utility.yul\":2461:2550   */\n    tag_58:\n        /* \"#utility.yul\":2497:2504   */\n      0x00\n        /* \"#utility.yul\":2537:2543   */\n      0xffff\n        /* \"#utility.yul\":2530:2535   */\n      dup3\n        /* \"#utility.yul\":2526:2544   */\n      and\n        /* \"#utility.yul\":2515:2544   */\n      swap1\n      pop\n        /* \"#utility.yul\":2461:2550   */\n      swap2\n      swap1\n      pop\n      jump\t// out\n        /* \"#utility.yul\":2556:2649   */\n    tag_62:\n        /* \"#utility.yul\":2592:2599   */\n      0x00\n        /* \"#utility.yul\":2632:2642   */\n      0xffffffff\n        /* \"#utility.yul\":2625:2630   */\n      dup3\n        /* \"#utility.yul\":2621:2643   */\n      and\n        /* \"#utility.yul\":2610:2643   */\n      swap1\n      pop\n        /* \"#utility.yul\":2556:2649   */\n      swap2\n      swap1\n      pop\n      jump\t// out\n        /* \"#utility.yul\":2655:2741   */\n    tag_66:\n        /* \"#utility.yul\":2690:2697   */\n      0x00\n        /* \"#utility.yul\":2730:2734   */\n      0xff\n        /* \"#utility.yul\":2723:2728   */\n      dup3\n        /* \"#utility.yul\":2719:2735   */\n      and\n        /* \"#utility.yul\":2708:2735   */\n      swap1\n      pop\n        /* \"#utility.yul\":2655:2741   */\n      swap2\n      swap1\n      pop\n      jump\t// out\n\n    auxdata: 0xa26469706673582212208531a57b7b1dd99dd0831f8a38da479c85eb55d1c12dcd811d98c0a21b10bf5264736f6c63430008070033\n}\n",
				"bytecode": {
					"linkReferences": {},
					"object": "60806040527ffffffffffffffffffffffffffffffffffffffffffffffffffffffffffffffffd6000806101000a81548160ff021916908360000b60ff16021790555060008054906101000a900460000b600060016101000a81548160ff021916908360ff1602179055506312345678600060026101000a81548163ffffffff021916908363ffffffff160217905550600060029054906101000a900463ffffffff16600060066101000a81548161ffff021916908361ffff160217905550611234600060086101000a81548161ffff021916908361ffff160217905550600060089054906101000a900461ffff1661ffff166000600a6101000a81548163ffffffff021916908363ffffffff16021790555061123460f01b6000600e6101000a81548161ffff021916908360f01c02179055506000600e9054906101000a900460f01b600060106101000a81548160ff021916908360f81c021790555034801561016857600080fd5b506103dd806101786000396000f3fe608060405234801561001057600080fd5b50600436106100885760003560e01c80634df7e3d01161005b5780634df7e3d014610105578063969e9d0c14610123578063a56dfe4a14610141578063ee4950021461015f57610088565b80630add6ef21461008d5780630c55699c146100ab5780630dbe671f146100c9578063119552a1146100e7575b600080fd5b61009561017d565b6040516100a29190610275565b60405180910390f35b6100b3610190565b6040516100c091906102fc565b60405180910390f35b6100d16101a3565b6040516100de91906102e1565b60405180910390f35b6100ef6101b9565b6040516100fc91906102c6565b60405180910390f35b61010d6101cd565b60405161011a91906102c6565b60405180910390f35b61012b6101e1565b6040516101389190610290565b60405180910390f35b6101496101f4565b60405161015691906102ab565b60405180910390f35b610167610205565b60405161017491906102e1565b60405180910390f35b600060109054906101000a900460f81b81565b600060019054906101000a900460ff1681565b600060029054906101000a900463ffffffff1681565b600060089054906101000a900461ffff1681565b600060069054906101000a900461ffff1681565b6000600e9054906101000a900460f01b81565b60008054906101000a900460000b81565b6000600a9054906101000a900463ffffffff1681565b61022481610317565b82525050565b61023381610343565b82525050565b6102428161036f565b82525050565b6102518161037c565b82525050565b6102608161038a565b82525050565b61026f8161039a565b82525050565b600060208201905061028a600083018461021b565b92915050565b60006020820190506102a5600083018461022a565b92915050565b60006020820190506102c06000830184610239565b92915050565b60006020820190506102db6000830184610248565b92915050565b60006020820190506102f66000830184610257565b92915050565b60006020820190506103116000830184610266565b92915050565b60007fff0000000000000000000000000000000000000000000000000000000000000082169050919050565b60007fffff00000000000000000000000000000000000000000000000000000000000082169050919050565b60008160000b9050919050565b600061ffff82169050919050565b600063ffffffff82169050919050565b600060ff8216905091905056fea26469706673582212208531a57b7b1dd99dd0831f8a38da479c85eb55d1c12dcd811d98c0a21b10bf5264736f6c63430008070033",
					"opcodes": "PUSH1 0x80 PUSH1 0x40 MSTORE PUSH32 0xFFFFFFFFFFFFFFFFFFFFFFFFFFFFFFFFFFFFFFFFFFFFFFFFFFFFFFFFFFFFFFFD PUSH1 0x0 DUP1 PUSH2 0x100 EXP DUP2 SLOAD DUP2 PUSH1 0xFF MUL NOT AND SWAP1 DUP4 PUSH1 0x0 SIGNEXTEND PUSH1 0xFF AND MUL OR SWAP1 SSTORE POP PUSH1 0x0 DUP1 SLOAD SWAP1 PUSH2 0x100 EXP SWAP1 DIV PUSH1 0x0 SIGNEXTEND PUSH1 0x0 PUSH1 0x1 PUSH2 0x100 EXP DUP2 SLOAD DUP2 PUSH1 0xFF MUL NOT AND SWAP1 DUP4 PUSH1 0xFF AND MUL OR SWAP1 SSTORE POP PUSH4 0x12345678 PUSH1 0x0 PUSH1 0x2 PUSH2 0x100 EXP DUP2 SLOAD DUP2 PUSH4 0xFFFFFFFF MUL NOT AND SWAP1 DUP4 PUSH4 0xFFFFFFFF AND MUL OR SWAP1 SSTORE POP PUSH1 0x0 PUSH1 0x2 SWAP1 SLOAD SWAP1 PUSH2 0x100 EXP SWAP1 DIV PUSH4 0xFFFFFFFF AND PUSH1 0x0 PUSH1 0x6 PUSH2 0x100 EXP DUP2 SLOAD DUP2 PUSH2 0xFFFF MUL NOT AND SWAP1 DUP4 PUSH2 0xFFFF AND MUL OR SWAP1 SSTORE POP PUSH2 0x1234 PUSH1 0x0 PUSH1 0x8 PUSH2 0x100 EXP DUP2 SLOAD DUP2 PUSH2 0xFFFF MUL NOT AND SWAP1 DUP4 PUSH2 0xFFFF AND MUL OR SWAP1 SSTORE POP PUSH1 0x0 PUSH1 0x8 SWAP1 SLOAD SWAP1 PUSH2 0x100 EXP SWAP1 DIV PUSH2 0xFFFF AND PUSH2 0xFFFF AND PUSH1 0x0 PUSH1 0xA PUSH2 0x100 EXP DUP2 SLOAD DUP2 PUSH4 0xFFFFFFFF MUL NOT AND SWAP1 DUP4 PUSH4 0xFFFFFFFF AND MUL OR SWAP1 SSTORE POP PUSH2 0x1234 PUSH1 0xF0 SHL PUSH1 0x0 PUSH1 0xE PUSH2 0x100 EXP DUP2 SLOAD DUP2 PUSH2 0xFFFF MUL NOT AND SWAP1 DUP4 PUSH1 0xF0 SHR MUL OR SWAP1 SSTORE POP PUSH1 0x0 PUSH1 0xE SWAP1 SLOAD SWAP1 PUSH2 0x100 EXP SWAP1 DIV PUSH1 0xF0 SHL PUSH1 0x0 PUSH1 0x10 PUSH2 0x100 EXP DUP2 SLOAD DUP2 PUSH1 0xFF MUL NOT AND SWAP1 DUP4 PUSH1 0xF8 SHR MUL OR SWAP1 SSTORE POP CALLVALUE DUP1 ISZERO PUSH2 0x168 JUMPI PUSH1 0x0 DUP1 REVERT JUMPDEST POP PUSH2 0x3DD DUP1 PUSH2 0x178 PUSH1 0x0 CODECOPY PUSH1 0x0 RETURN INVALID PUSH1 0x80 PUSH1 0x40 MSTORE CALLVALUE DUP1 ISZERO PUSH2 0x10 JUMPI PUSH1 0x0 DUP1 REVERT JUMPDEST POP PUSH1 0x4 CALLDATASIZE LT PUSH2 0x88 JUMPI PUSH1 0x0 CALLDATALOAD PUSH1 0xE0 SHR DUP1 PUSH4 0x4DF7E3D0 GT PUSH2 0x5B JUMPI DUP1 PUSH4 0x4DF7E3D0 EQ PUSH2 0x105 JUMPI DUP1 PUSH4 0x969E9D0C EQ PUSH2 0x123 JUMPI DUP1 PUSH4 0xA56DFE4A EQ PUSH2 0x141 JUMPI DUP1 PUSH4 0xEE495002 EQ PUSH2 0x15F JUMPI PUSH2 0x88 JUMP JUMPDEST DUP1 PUSH4 0xADD6EF2 EQ PUSH2 0x8D JUMPI DUP1 PUSH4 0xC55699C EQ PUSH2 0xAB JUMPI DUP1 PUSH4 0xDBE671F EQ PUSH2 0xC9 JUMPI DUP1 PUSH4 0x119552A1 EQ PUSH2 0xE7 JUMPI JUMPDEST PUSH1 0x0 DUP1 REVERT JUMPDEST PUSH2 0x95 PUSH2 0x17D JUMP JUMPDEST PUSH1 0x40 MLOAD PUSH2 0xA2 SWAP2 SWAP1 PUSH2 0x275 JUMP JUMPDEST PUSH1 0x40 MLOAD DUP1 SWAP2 SUB SWAP1 RETURN JUMPDEST PUSH2 0xB3 PUSH2 0x190 JUMP JUMPDEST PUSH1 0x40 MLOAD PUSH2 0xC0 SWAP2 SWAP1 PUSH2 0x2FC JUMP JUMPDEST PUSH1 0x40 MLOAD DUP1 SWAP2 SUB SWAP1 RETURN JUMPDEST PUSH2 0xD1 PUSH2 0x1A3 JUMP JUMPDEST PUSH1 0x40 MLOAD PUSH2 0xDE SWAP2 SWAP1 PUSH2 0x2E1 JUMP JUMPDEST PUSH1 0x40 MLOAD DUP1 SWAP2 SUB SWAP1 RETURN JUMPDEST PUSH2 0xEF PUSH2 0x1B9 JUMP JUMPDEST PUSH1 0x40 MLOAD PUSH2 0xFC SWAP2 SWAP1 PUSH2 0x2C6 JUMP JUMPDEST PUSH1 0x40 MLOAD DUP1 SWAP2 SUB SWAP1 RETURN JUMPDEST PUSH2 0x10D PUSH2 0x1CD JUMP JUMPDEST PUSH1 0x40 MLOAD PUSH2 0x11A SWAP2 SWAP1 PUSH2 0x2C6 JUMP JUMPDEST PUSH1 0x40 MLOAD DUP1 SWAP2 SUB SWAP1 RETURN JUMPDEST PUSH2 0x12B PUSH2 0x1E1 JUMP JUMPDEST PUSH1 0x40 MLOAD PUSH2 0x138 SWAP2 SWAP1 PUSH2 0x290 JUMP JUMPDEST PUSH1 0x40 MLOAD DUP1 SWAP2 SUB SWAP1 RETURN JUMPDEST PUSH2 0x149 PUSH2 0x1F4 JUMP JUMPDEST PUSH1 0x40 MLOAD PUSH2 0x156 SWAP2 SWAP1 PUSH2 0x2AB JUMP JUMPDEST PUSH1 0x40 MLOAD DUP1 SWAP2 SUB SWAP1 RETURN JUMPDEST PUSH2 0x167 PUSH2 0x205 JUMP JUMPDEST PUSH1 0x40 MLOAD PUSH2 0x174 SWAP2 SWAP1 PUSH2 0x2E1 JUMP JUMPDEST PUSH1 0x40 MLOAD DUP1 SWAP2 SUB SWAP1 RETURN JUMPDEST PUSH1 0x0 PUSH1 0x10 SWAP1 SLOAD SWAP1 PUSH2 0x100 EXP SWAP1 DIV PUSH1 0xF8 SHL DUP2 JUMP JUMPDEST PUSH1 0x0 PUSH1 0x1 SWAP1 SLOAD SWAP1 PUSH2 0x100 EXP SWAP1 DIV PUSH1 0xFF AND DUP2 JUMP JUMPDEST PUSH1 0x0 PUSH1 0x2 SWAP1 SLOAD SWAP1 PUSH2 0x100 EXP SWAP1 DIV PUSH4 0xFFFFFFFF AND DUP2 JUMP JUMPDEST PUSH1 0x0 PUSH1 0x8 SWAP1 SLOAD SWAP1 PUSH2 0x100 EXP SWAP1 DIV PUSH2 0xFFFF AND DUP2 JUMP JUMPDEST PUSH1 0x0 PUSH1 0x6 SWAP1 SLOAD SWAP1 PUSH2 0x100 EXP SWAP1 DIV PUSH2 0xFFFF AND DUP2 JUMP JUMPDEST PUSH1 0x0 PUSH1 0xE SWAP1 SLOAD SWAP1 PUSH2 0x100 EXP SWAP1 DIV PUSH1 0xF0 SHL DUP2 JUMP JUMPDEST PUSH1 0x0 DUP1 SLOAD SWAP1 PUSH2 0x100 EXP SWAP1 DIV PUSH1 0x0 SIGNEXTEND DUP2 JUMP JUMPDEST PUSH1 0x0 PUSH1 0xA SWAP1 SLOAD SWAP1 PUSH2 0x100 EXP SWAP1 DIV PUSH4 0xFFFFFFFF AND DUP2 JUMP JUMPDEST PUSH2 0x224 DUP2 PUSH2 0x317 JUMP JUMPDEST DUP3 MSTORE POP POP JUMP JUMPDEST PUSH2 0x233 DUP2 PUSH2 0x343 JUMP JUMPDEST DUP3 MSTORE POP POP JUMP JUMPDEST PUSH2 0x242 DUP2 PUSH2 0x36F JUMP JUMPDEST DUP3 MSTORE POP POP JUMP JUMPDEST PUSH2 0x251 DUP2 PUSH2 0x37C JUMP JUMPDEST DUP3 MSTORE POP POP JUMP JUMPDEST PUSH2 0x260 DUP2 PUSH2 0x38A JUMP JUMPDEST DUP3 MSTORE POP POP JUMP JUMPDEST PUSH2 0x26F DUP2 PUSH2 0x39A JUMP JUMPDEST DUP3 MSTORE POP POP JUMP JUMPDEST PUSH1 0x0 PUSH1 0x20 DUP3 ADD SWAP1 POP PUSH2 0x28A PUSH1 0x0 DUP4 ADD DUP5 PUSH2 0x21B JUMP JUMPDEST SWAP3 SWAP2 POP POP JUMP JUMPDEST PUSH1 0x0 PUSH1 0x20 DUP3 ADD SWAP1 POP PUSH2 0x2A5 PUSH1 0x0 DUP4 ADD DUP5 PUSH2 0x22A JUMP JUMPDEST SWAP3 SWAP2 POP POP JUMP JUMPDEST PUSH1 0x0 PUSH1 0x20 DUP3 ADD SWAP1 POP PUSH2 0x2C0 PUSH1 0x0 DUP4 ADD DUP5 PUSH2 0x239 JUMP JUMPDEST SWAP3 SWAP2 POP POP JUMP JUMPDEST PUSH1 0x0 PUSH1 0x20 DUP3 ADD SWAP1 POP PUSH2 0x2DB PUSH1 0x0 DUP4 ADD DUP5 PUSH2 0x248 JUMP JUMPDEST SWAP3 SWAP2 POP POP JUMP JUMPDEST PUSH1 0x0 PUSH1 0x20 DUP3 ADD SWAP1 POP PUSH2 0x2F6 PUSH1 0x0 DUP4 ADD DUP5 PUSH2 0x257 JUMP JUMPDEST SWAP3 SWAP2 POP POP JUMP JUMPDEST PUSH1 0x0 PUSH1 0x20 DUP3 ADD SWAP1 POP PUSH2 0x311 PUSH1 0x0 DUP4 ADD DUP5 PUSH2 0x266 JUMP JUMPDEST SWAP3 SWAP2 POP POP JUMP JUMPDEST PUSH1 0x0 PUSH32 0xFF00000000000000000000000000000000000000000000000000000000000000 DUP3 AND SWAP1 POP SWAP2 SWAP1 POP JUMP JUMPDEST PUSH1 0x0 PUSH32 0xFFFF000000000000000000000000000000000000000000000000000000000000 DUP3 AND SWAP1 POP SWAP2 SWAP1 POP JUMP JUMPDEST PUSH1 0x0 DUP2 PUSH1 0x0 SIGNEXTEND SWAP1 POP SWAP2 SWAP1 POP JUMP JUMPDEST PUSH1 0x0 PUSH2 0xFFFF DUP3 AND SWAP1 POP SWAP2 SWAP1 POP JUMP JUMPDEST PUSH1 0x0 PUSH4 0xFFFFFFFF DUP3 AND SWAP1 POP SWAP2 SWAP1 POP JUMP JUMPDEST PUSH1 0x0 PUSH1 0xFF DUP3 AND SWAP1 POP SWAP2 SWAP1 POP JUMP INVALID LOG2 PUSH5 0x6970667358 0x22 SLT KECCAK256 DUP6 BALANCE 0xA5 PUSH28 0x7B1DD99DD0831F8A38DA479C85EB55D1C12DCD811D98C0A21B10BF52 PUSH5 0x736F6C6343 STOP ADDMOD SMOD STOP CALLER "
				},
				"gasEstimates": {
					"creation": {
						"codeDepositCost": "197800",
						"executionCost": "203437",
						"totalCost": "401237"
					},
					"external": {
						"a()": "2566",
						"a1()": "2588",
						"a2()": "2543",
						"b()": "2521",
						"b1()": "2587",
						"b2()": "2522",
						"x()": "2544",
						"y()": "2516"
					}
				},
				"methodIdentifiers": {
					"a()": "0dbe671f",
					"a1()": "119552a1",
					"a2()": "969e9d0c",
					"b()": "4df7e3d0",
					"b1()": "ee495002",
					"b2()": "0add6ef2",
					"x()": "0c55699c",
					"y()": "a56dfe4a"
				}
			},
			"storageLayout": {
				"storage": [
					{
						"astId": 37,
						"contract": "study/chapter02/4conversion.sol:test2",
						"label": "y",
						"offset": 0,
						"slot": "0",
						"type": "t_int8"
					},
					{
						"astId": 43,
						"contract": "study/chapter02/4conversion.sol:test2",
						"label": "x",
						"offset": 1,
						"slot": "0",
						"type": "t_uint8"
					},
					{
						"astId": 46,
						"contract": "study/chapter02/4conversion.sol:test2",
						"label": "a",
						"offset": 2,
						"slot": "0",
						"type": "t_uint32"
					},
					{
						"astId": 52,
						"contract": "study/chapter02/4conversion.sol:test2",
						"label": "b",
						"offset": 6,
						"slot": "0",
						"type": "t_uint16"
					},
					{
						"astId": 55,
						"contract": "study/chapter02/4conversion.sol:test2",
						"label": "a1",
						"offset": 8,
						"slot": "0",
						"type": "t_uint16"
					},
					{
						"astId": 61,
						"contract": "study/chapter02/4conversion.sol:test2",
						"label": "b1",
						"offset": 10,
						"slot": "0",
						"type": "t_uint32"
					},
					{
						"astId": 64,
						"contract": "study/chapter02/4conversion.sol:test2",
						"label": "a2",
						"offset": 14,
						"slot": "0",
						"type": "t_bytes2"
					},
					{
						"astId": 70,
						"contract": "study/chapter02/4conversion.sol:test2",
						"label": "b2",
						"offset": 16,
						"slot": "0",
						"type": "t_bytes1"
					}
				],
				"types": {
					"t_bytes1": {
						"encoding": "inplace",
						"label": "bytes1",
						"numberOfBytes": "1"
					},
					"t_bytes2": {
						"encoding": "inplace",
						"label": "bytes2",
						"numberOfBytes": "2"
					},
					"t_int8": {
						"encoding": "inplace",
						"label": "int8",
						"numberOfBytes": "1"
					},
					"t_uint16": {
						"encoding": "inplace",
						"label": "uint16",
						"numberOfBytes": "2"
					},
					"t_uint32": {
						"encoding": "inplace",
						"label": "uint32",
						"numberOfBytes": "4"
					},
					"t_uint8": {
						"encoding": "inplace",
						"label": "uint8",
						"numberOfBytes": "1"
					}
				}
			},
			"userdoc": {
				"kind": "user",
				"methods": {},
				"version": 1
			}
		}
	}
}