{
	"chapter02/9type3.sol": {
		"Enum": {
			"abi": [
				{
					"inputs": [],
					"name": "canceled",
					"outputs": [],
					"stateMutability": "nonpayable",
					"type": "function"
				},
				{
					"inputs": [],
					"name": "get",
					"outputs": [
						{
							"internalType": "enum Enum.Status",
							"name": "",
							"type": "uint8"
						}
					],
					"stateMutability": "view",
					"type": "function"
				},
				{
					"inputs": [
						{
							"internalType": "uint256",
							"name": "",
							"type": "uint256"
						}
					],
					"name": "orders",
					"outputs": [
						{
							"internalType": "address",
							"name": "buyer",
							"type": "address"
						},
						{
							"internalType": "enum Enum.Status",
							"name": "status",
							"type": "uint8"
						}
					],
					"stateMutability": "view",
					"type": "function"
				},
				{
					"inputs": [],
					"name": "reset",
					"outputs": [],
					"stateMutability": "nonpayable",
					"type": "function"
				},
				{
					"inputs": [
						{
							"internalType": "enum Enum.Status",
							"name": "_status",
							"type": "uint8"
						}
					],
					"name": "set",
					"outputs": [],
					"stateMutability": "nonpayable",
					"type": "function"
				},
				{
					"inputs": [],
					"name": "status",
					"outputs": [
						{
							"internalType": "enum Enum.Status",
							"name": "",
							"type": "uint8"
						}
					],
					"stateMutability": "view",
					"type": "function"
				}
			],
			"devdoc": {
				"kind": "dev",
				"methods": {},
				"version": 1
			},
			"evm": {
				"assembly": "    /* \"chapter02/9type3.sol\":403:1016  contract Enum{... */\n  mstore(0x40, 0x80)\n  callvalue\n  dup1\n  iszero\n  tag_1\n  jumpi\n  0x00\n  dup1\n  revert\ntag_1:\n  pop\n  dataSize(sub_0)\n  dup1\n  dataOffset(sub_0)\n  0x00\n  codecopy\n  0x00\n  return\nstop\n\nsub_0: assembly {\n        /* \"chapter02/9type3.sol\":403:1016  contract Enum{... */\n      mstore(0x40, 0x80)\n      callvalue\n      dup1\n      iszero\n      tag_1\n      jumpi\n      0x00\n      dup1\n      revert\n    tag_1:\n      pop\n      jumpi(tag_2, lt(calldatasize, 0x04))\n      shr(0xe0, calldataload(0x00))\n      dup1\n      0x200d2ed2\n      eq\n      tag_3\n      jumpi\n      dup1\n      0x24b8ba5f\n      eq\n      tag_4\n      jumpi\n      dup1\n      0x3f9942ff\n      eq\n      tag_5\n      jumpi\n      dup1\n      0x6d4ce63c\n      eq\n      tag_6\n      jumpi\n      dup1\n      0xa85c38ef\n      eq\n      tag_7\n      jumpi\n      dup1\n      0xd826f88f\n      eq\n      tag_8\n      jumpi\n    tag_2:\n      0x00\n      dup1\n      revert\n        /* \"chapter02/9type3.sol\":536:556  Status public status */\n    tag_3:\n      tag_9\n      tag_10\n      jump\t// in\n    tag_9:\n      mload(0x40)\n      tag_11\n      swap2\n      swap1\n      tag_12\n      jump\t// in\n    tag_11:\n      mload(0x40)\n      dup1\n      swap2\n      sub\n      swap1\n      return\n        /* \"chapter02/9type3.sol\":738:809  function set(Status _status) external {... */\n    tag_4:\n      tag_13\n      0x04\n      dup1\n      calldatasize\n      sub\n      dup2\n      add\n      swap1\n      tag_14\n      swap2\n      swap1\n      tag_15\n      jump\t// in\n    tag_14:\n      tag_16\n      jump\t// in\n    tag_13:\n      stop\n        /* \"chapter02/9type3.sol\":814:882  function canceled()external{... */\n    tag_5:\n      tag_17\n      tag_18\n      jump\t// in\n    tag_17:\n      stop\n        /* \"chapter02/9type3.sol\":659:733  function get() external view returns(Status){... */\n    tag_6:\n      tag_19\n      tag_20\n      jump\t// in\n    tag_19:\n      mload(0x40)\n      tag_21\n      swap2\n      swap1\n      tag_12\n      jump\t// in\n    tag_21:\n      mload(0x40)\n      dup1\n      swap2\n      sub\n      swap1\n      return\n        /* \"chapter02/9type3.sol\":632:653  Order[] public orders */\n    tag_7:\n      tag_22\n      0x04\n      dup1\n      calldatasize\n      sub\n      dup2\n      add\n      swap1\n      tag_23\n      swap2\n      swap1\n      tag_24\n      jump\t// in\n    tag_23:\n      tag_25\n      jump\t// in\n    tag_22:\n      mload(0x40)\n      tag_26\n      swap3\n      swap2\n      swap1\n      tag_27\n      jump\t// in\n    tag_26:\n      mload(0x40)\n      dup1\n      swap2\n      sub\n      swap1\n      return\n        /* \"chapter02/9type3.sol\":931:1014  function reset()external{... */\n    tag_8:\n      tag_28\n      tag_29\n      jump\t// in\n    tag_28:\n      stop\n        /* \"chapter02/9type3.sol\":536:556  Status public status */\n    tag_10:\n      0x00\n      dup1\n      sload\n      swap1\n      0x0100\n      exp\n      swap1\n      div\n      0xff\n      and\n      dup2\n      jump\t// out\n        /* \"chapter02/9type3.sol\":738:809  function set(Status _status) external {... */\n    tag_16:\n        /* \"chapter02/9type3.sol\":795:802  _status */\n      dup1\n        /* \"chapter02/9type3.sol\":786:792  status */\n      0x00\n      dup1\n        /* \"chapter02/9type3.sol\":786:802  status = _status */\n      0x0100\n      exp\n      dup2\n      sload\n      dup2\n      0xff\n      mul\n      not\n      and\n      swap1\n      dup4\n      0x02\n      dup2\n      gt\n      iszero\n      tag_31\n      jumpi\n      mstore(0x00, 0x4e487b7100000000000000000000000000000000000000000000000000000000)\n      mstore(0x04, 0x21)\n      revert(0x00, 0x24)\n    tag_31:\n      mul\n      or\n      swap1\n      sstore\n      pop\n        /* \"chapter02/9type3.sol\":738:809  function set(Status _status) external {... */\n      pop\n      jump\t// out\n        /* \"chapter02/9type3.sol\":814:882  function canceled()external{... */\n    tag_18:\n        /* \"chapter02/9type3.sol\":860:875  Status.Canceled */\n      0x02\n        /* \"chapter02/9type3.sol\":851:857  status */\n      0x00\n      dup1\n        /* \"chapter02/9type3.sol\":851:875  status = Status.Canceled */\n      0x0100\n      exp\n      dup2\n      sload\n      dup2\n      0xff\n      mul\n      not\n      and\n      swap1\n      dup4\n      0x02\n      dup2\n      gt\n      iszero\n      tag_33\n      jumpi\n      mstore(0x00, 0x4e487b7100000000000000000000000000000000000000000000000000000000)\n      mstore(0x04, 0x21)\n      revert(0x00, 0x24)\n    tag_33:\n      mul\n      or\n      swap1\n      sstore\n      pop\n        /* \"chapter02/9type3.sol\":814:882  function canceled()external{... */\n      jump\t// out\n        /* \"chapter02/9type3.sol\":659:733  function get() external view returns(Status){... */\n    tag_20:\n        /* \"chapter02/9type3.sol\":696:702  Status */\n      0x00\n        /* \"chapter02/9type3.sol\":720:726  status */\n      dup1\n      0x00\n      swap1\n      sload\n      swap1\n      0x0100\n      exp\n      swap1\n      div\n      0xff\n      and\n        /* \"chapter02/9type3.sol\":713:726  return status */\n      swap1\n      pop\n        /* \"chapter02/9type3.sol\":659:733  function get() external view returns(Status){... */\n      swap1\n      jump\t// out\n        /* \"chapter02/9type3.sol\":632:653  Order[] public orders */\n    tag_25:\n      0x01\n      dup2\n      dup2\n      sload\n      dup2\n      lt\n      tag_35\n      jumpi\n      0x00\n      dup1\n      revert\n    tag_35:\n      swap1\n      0x00\n      mstore\n      keccak256(0x00, 0x20)\n      add\n      0x00\n      swap2\n      pop\n      swap1\n      pop\n      dup1\n      0x00\n      add\n      0x00\n      swap1\n      sload\n      swap1\n      0x0100\n      exp\n      swap1\n      div\n      0xffffffffffffffffffffffffffffffffffffffff\n      and\n      swap1\n      dup1\n      0x00\n      add\n      0x14\n      swap1\n      sload\n      swap1\n      0x0100\n      exp\n      swap1\n      div\n      0xff\n      and\n      swap1\n      pop\n      dup3\n      jump\t// out\n        /* \"chapter02/9type3.sol\":931:1014  function reset()external{... */\n    tag_29:\n        /* \"chapter02/9type3.sol\":972:978  status */\n      0x00\n      dup1\n        /* \"chapter02/9type3.sol\":965:978  delete status */\n      0x0100\n      exp\n      dup2\n      sload\n      swap1\n      0xff\n      mul\n      not\n      and\n      swap1\n      sstore\n        /* \"chapter02/9type3.sol\":931:1014  function reset()external{... */\n      jump\t// out\n        /* \"#utility.yul\":7:164   */\n    tag_39:\n      0x00\n        /* \"#utility.yul\":100:106   */\n      dup2\n        /* \"#utility.yul\":87:107   */\n      calldataload\n        /* \"#utility.yul\":78:107   */\n      swap1\n      pop\n        /* \"#utility.yul\":116:158   */\n      tag_41\n        /* \"#utility.yul\":152:157   */\n      dup2\n        /* \"#utility.yul\":116:158   */\n      tag_42\n      jump\t// in\n    tag_41:\n        /* \"#utility.yul\":68:164   */\n      swap3\n      swap2\n      pop\n      pop\n      jump\t// out\n        /* \"#utility.yul\":170:309   */\n    tag_43:\n      0x00\n        /* \"#utility.yul\":254:260   */\n      dup2\n        /* \"#utility.yul\":241:261   */\n      calldataload\n        /* \"#utility.yul\":232:261   */\n      swap1\n      pop\n        /* \"#utility.yul\":270:303   */\n      tag_45\n        /* \"#utility.yul\":297:302   */\n      dup2\n        /* \"#utility.yul\":270:303   */\n      tag_46\n      jump\t// in\n    tag_45:\n        /* \"#utility.yul\":222:309   */\n      swap3\n      swap2\n      pop\n      pop\n      jump\t// out\n        /* \"#utility.yul\":315:595   */\n    tag_15:\n      0x00\n        /* \"#utility.yul\":432:434   */\n      0x20\n        /* \"#utility.yul\":420:429   */\n      dup3\n        /* \"#utility.yul\":411:418   */\n      dup5\n        /* \"#utility.yul\":407:430   */\n      sub\n        /* \"#utility.yul\":403:435   */\n      slt\n        /* \"#utility.yul\":400:402   */\n      iszero\n      tag_48\n      jumpi\n        /* \"#utility.yul\":448:449   */\n      0x00\n        /* \"#utility.yul\":445:446   */\n      dup1\n        /* \"#utility.yul\":438:450   */\n      revert\n        /* \"#utility.yul\":400:402   */\n    tag_48:\n        /* \"#utility.yul\":491:492   */\n      0x00\n        /* \"#utility.yul\":516:578   */\n      tag_49\n        /* \"#utility.yul\":570:577   */\n      dup5\n        /* \"#utility.yul\":561:567   */\n      dup3\n        /* \"#utility.yul\":550:559   */\n      dup6\n        /* \"#utility.yul\":546:568   */\n      add\n        /* \"#utility.yul\":516:578   */\n      tag_39\n      jump\t// in\n    tag_49:\n        /* \"#utility.yul\":506:578   */\n      swap2\n      pop\n        /* \"#utility.yul\":462:588   */\n      pop\n        /* \"#utility.yul\":390:595   */\n      swap3\n      swap2\n      pop\n      pop\n      jump\t// out\n        /* \"#utility.yul\":601:863   */\n    tag_24:\n      0x00\n        /* \"#utility.yul\":709:711   */\n      0x20\n        /* \"#utility.yul\":697:706   */\n      dup3\n        /* \"#utility.yul\":688:695   */\n      dup5\n        /* \"#utility.yul\":684:707   */\n      sub\n        /* \"#utility.yul\":680:712   */\n      slt\n        /* \"#utility.yul\":677:679   */\n      iszero\n      tag_51\n      jumpi\n        /* \"#utility.yul\":725:726   */\n      0x00\n        /* \"#utility.yul\":722:723   */\n      dup1\n        /* \"#utility.yul\":715:727   */\n      revert\n        /* \"#utility.yul\":677:679   */\n    tag_51:\n        /* \"#utility.yul\":768:769   */\n      0x00\n        /* \"#utility.yul\":793:846   */\n      tag_52\n        /* \"#utility.yul\":838:845   */\n      dup5\n        /* \"#utility.yul\":829:835   */\n      dup3\n        /* \"#utility.yul\":818:827   */\n      dup6\n        /* \"#utility.yul\":814:836   */\n      add\n        /* \"#utility.yul\":793:846   */\n      tag_43\n      jump\t// in\n    tag_52:\n        /* \"#utility.yul\":783:846   */\n      swap2\n      pop\n        /* \"#utility.yul\":739:856   */\n      pop\n        /* \"#utility.yul\":667:863   */\n      swap3\n      swap2\n      pop\n      pop\n      jump\t// out\n        /* \"#utility.yul\":869:987   */\n    tag_53:\n        /* \"#utility.yul\":956:980   */\n      tag_55\n        /* \"#utility.yul\":974:979   */\n      dup2\n        /* \"#utility.yul\":956:980   */\n      tag_56\n      jump\t// in\n    tag_55:\n        /* \"#utility.yul\":951:954   */\n      dup3\n        /* \"#utility.yul\":944:981   */\n      mstore\n        /* \"#utility.yul\":934:987   */\n      pop\n      pop\n      jump\t// out\n        /* \"#utility.yul\":993:1138   */\n    tag_57:\n        /* \"#utility.yul\":1087:1131   */\n      tag_59\n        /* \"#utility.yul\":1125:1130   */\n      dup2\n        /* \"#utility.yul\":1087:1131   */\n      tag_60\n      jump\t// in\n    tag_59:\n        /* \"#utility.yul\":1082:1085   */\n      dup3\n        /* \"#utility.yul\":1075:1132   */\n      mstore\n        /* \"#utility.yul\":1065:1138   */\n      pop\n      pop\n      jump\t// out\n        /* \"#utility.yul\":1144:1490   */\n    tag_27:\n      0x00\n        /* \"#utility.yul\":1310:1312   */\n      0x40\n        /* \"#utility.yul\":1299:1308   */\n      dup3\n        /* \"#utility.yul\":1295:1313   */\n      add\n        /* \"#utility.yul\":1287:1313   */\n      swap1\n      pop\n        /* \"#utility.yul\":1323:1394   */\n      tag_62\n        /* \"#utility.yul\":1391:1392   */\n      0x00\n        /* \"#utility.yul\":1380:1389   */\n      dup4\n        /* \"#utility.yul\":1376:1393   */\n      add\n        /* \"#utility.yul\":1367:1373   */\n      dup6\n        /* \"#utility.yul\":1323:1394   */\n      tag_53\n      jump\t// in\n    tag_62:\n        /* \"#utility.yul\":1404:1483   */\n      tag_63\n        /* \"#utility.yul\":1479:1481   */\n      0x20\n        /* \"#utility.yul\":1468:1477   */\n      dup4\n        /* \"#utility.yul\":1464:1482   */\n      add\n        /* \"#utility.yul\":1455:1461   */\n      dup5\n        /* \"#utility.yul\":1404:1483   */\n      tag_57\n      jump\t// in\n    tag_63:\n        /* \"#utility.yul\":1277:1490   */\n      swap4\n      swap3\n      pop\n      pop\n      pop\n      jump\t// out\n        /* \"#utility.yul\":1496:1732   */\n    tag_12:\n      0x00\n        /* \"#utility.yul\":1634:1636   */\n      0x20\n        /* \"#utility.yul\":1623:1632   */\n      dup3\n        /* \"#utility.yul\":1619:1637   */\n      add\n        /* \"#utility.yul\":1611:1637   */\n      swap1\n      pop\n        /* \"#utility.yul\":1647:1725   */\n      tag_65\n        /* \"#utility.yul\":1722:1723   */\n      0x00\n        /* \"#utility.yul\":1711:1720   */\n      dup4\n        /* \"#utility.yul\":1707:1724   */\n      add\n        /* \"#utility.yul\":1698:1704   */\n      dup5\n        /* \"#utility.yul\":1647:1725   */\n      tag_57\n      jump\t// in\n    tag_65:\n        /* \"#utility.yul\":1601:1732   */\n      swap3\n      swap2\n      pop\n      pop\n      jump\t// out\n        /* \"#utility.yul\":1738:1834   */\n    tag_56:\n      0x00\n        /* \"#utility.yul\":1804:1828   */\n      tag_67\n        /* \"#utility.yul\":1822:1827   */\n      dup3\n        /* \"#utility.yul\":1804:1828   */\n      tag_68\n      jump\t// in\n    tag_67:\n        /* \"#utility.yul\":1793:1828   */\n      swap1\n      pop\n        /* \"#utility.yul\":1783:1834   */\n      swap2\n      swap1\n      pop\n      jump\t// out\n        /* \"#utility.yul\":1840:1969   */\n    tag_69:\n      0x00\n        /* \"#utility.yul\":1915:1920   */\n      dup2\n        /* \"#utility.yul\":1904:1920   */\n      swap1\n      pop\n        /* \"#utility.yul\":1921:1963   */\n      tag_71\n        /* \"#utility.yul\":1957:1962   */\n      dup3\n        /* \"#utility.yul\":1921:1963   */\n      tag_72\n      jump\t// in\n    tag_71:\n        /* \"#utility.yul\":1894:1969   */\n      swap2\n      swap1\n      pop\n      jump\t// out\n        /* \"#utility.yul\":1975:2101   */\n    tag_68:\n      0x00\n        /* \"#utility.yul\":2052:2094   */\n      0xffffffffffffffffffffffffffffffffffffffff\n        /* \"#utility.yul\":2045:2050   */\n      dup3\n        /* \"#utility.yul\":2041:2095   */\n      and\n        /* \"#utility.yul\":2030:2095   */\n      swap1\n      pop\n        /* \"#utility.yul\":2020:2101   */\n      swap2\n      swap1\n      pop\n      jump\t// out\n        /* \"#utility.yul\":2107:2184   */\n    tag_74:\n      0x00\n        /* \"#utility.yul\":2173:2178   */\n      dup2\n        /* \"#utility.yul\":2162:2178   */\n      swap1\n      pop\n        /* \"#utility.yul\":2152:2184   */\n      swap2\n      swap1\n      pop\n      jump\t// out\n        /* \"#utility.yul\":2190:2319   */\n    tag_60:\n      0x00\n        /* \"#utility.yul\":2280:2313   */\n      tag_77\n        /* \"#utility.yul\":2307:2312   */\n      dup3\n        /* \"#utility.yul\":2280:2313   */\n      tag_69\n      jump\t// in\n    tag_77:\n        /* \"#utility.yul\":2267:2313   */\n      swap1\n      pop\n        /* \"#utility.yul\":2257:2319   */\n      swap2\n      swap1\n      pop\n      jump\t// out\n        /* \"#utility.yul\":2325:2505   */\n    tag_78:\n        /* \"#utility.yul\":2373:2450   */\n      0x4e487b7100000000000000000000000000000000000000000000000000000000\n        /* \"#utility.yul\":2370:2371   */\n      0x00\n        /* \"#utility.yul\":2363:2451   */\n      mstore\n        /* \"#utility.yul\":2470:2474   */\n      0x21\n        /* \"#utility.yul\":2467:2468   */\n      0x04\n        /* \"#utility.yul\":2460:2475   */\n      mstore\n        /* \"#utility.yul\":2494:2498   */\n      0x24\n        /* \"#utility.yul\":2491:2492   */\n      0x00\n        /* \"#utility.yul\":2484:2499   */\n      revert\n        /* \"#utility.yul\":2511:2625   */\n    tag_72:\n        /* \"#utility.yul\":2593:2594   */\n      0x03\n        /* \"#utility.yul\":2586:2591   */\n      dup2\n        /* \"#utility.yul\":2583:2595   */\n      lt\n        /* \"#utility.yul\":2573:2575   */\n      tag_81\n      jumpi\n        /* \"#utility.yul\":2599:2617   */\n      tag_82\n      tag_78\n      jump\t// in\n    tag_82:\n        /* \"#utility.yul\":2573:2575   */\n    tag_81:\n        /* \"#utility.yul\":2563:2625   */\n      pop\n      jump\t// out\n        /* \"#utility.yul\":2631:2739   */\n    tag_42:\n        /* \"#utility.yul\":2713:2714   */\n      0x03\n        /* \"#utility.yul\":2706:2711   */\n      dup2\n        /* \"#utility.yul\":2703:2715   */\n      lt\n        /* \"#utility.yul\":2693:2695   */\n      tag_84\n      jumpi\n        /* \"#utility.yul\":2729:2730   */\n      0x00\n        /* \"#utility.yul\":2726:2727   */\n      dup1\n        /* \"#utility.yul\":2719:2731   */\n      revert\n        /* \"#utility.yul\":2693:2695   */\n    tag_84:\n        /* \"#utility.yul\":2683:2739   */\n      pop\n      jump\t// out\n        /* \"#utility.yul\":2745:2867   */\n    tag_46:\n        /* \"#utility.yul\":2818:2842   */\n      tag_86\n        /* \"#utility.yul\":2836:2841   */\n      dup2\n        /* \"#utility.yul\":2818:2842   */\n      tag_74\n      jump\t// in\n    tag_86:\n        /* \"#utility.yul\":2811:2816   */\n      dup2\n        /* \"#utility.yul\":2808:2843   */\n      eq\n        /* \"#utility.yul\":2798:2800   */\n      tag_87\n      jumpi\n        /* \"#utility.yul\":2857:2858   */\n      0x00\n        /* \"#utility.yul\":2854:2855   */\n      dup1\n        /* \"#utility.yul\":2847:2859   */\n      revert\n        /* \"#utility.yul\":2798:2800   */\n    tag_87:\n        /* \"#utility.yul\":2788:2867   */\n      pop\n      jump\t// out\n\n    auxdata: 0xa2646970667358221220389f7d8513e967b401406a4662610092d829781362fb3c8369df4670dab4cb1f64736f6c63430008000033\n}\n",
				"bytecode": {
					"linkReferences": {},
					"object": "608060405234801561001057600080fd5b5061041e806100206000396000f3fe608060405234801561001057600080fd5b50600436106100625760003560e01c8063200d2ed21461006757806324b8ba5f146100855780633f9942ff146100a15780636d4ce63c146100ab578063a85c38ef146100c9578063d826f88f146100fa575b600080fd5b61006f610104565b60405161007c9190610302565b60405180910390f35b61009f600480360381019061009a9190610269565b610115565b005b6100a9610167565b005b6100b36101b9565b6040516100c09190610302565b60405180910390f35b6100e360048036038101906100de9190610292565b6101cf565b6040516100f19291906102d9565b60405180910390f35b61010261022c565b005b60008054906101000a900460ff1681565b806000806101000a81548160ff0219169083600281111561015f577f4e487b7100000000000000000000000000000000000000000000000000000000600052602160045260246000fd5b021790555050565b60026000806101000a81548160ff021916908360028111156101b2577f4e487b7100000000000000000000000000000000000000000000000000000000600052602160045260246000fd5b0217905550565b60008060009054906101000a900460ff16905090565b600181815481106101df57600080fd5b906000526020600020016000915090508060000160009054906101000a900473ffffffffffffffffffffffffffffffffffffffff16908060000160149054906101000a900460ff16905082565b6000806101000a81549060ff0219169055565b60008135905061024e816103c1565b92915050565b600081359050610263816103d1565b92915050565b60006020828403121561027b57600080fd5b60006102898482850161023f565b91505092915050565b6000602082840312156102a457600080fd5b60006102b284828501610254565b91505092915050565b6102c48161031d565b82525050565b6102d38161036c565b82525050565b60006040820190506102ee60008301856102bb565b6102fb60208301846102ca565b9392505050565b600060208201905061031760008301846102ca565b92915050565b600061032882610342565b9050919050565b600081905061033d826103ad565b919050565b600073ffffffffffffffffffffffffffffffffffffffff82169050919050565b6000819050919050565b60006103778261032f565b9050919050565b7f4e487b7100000000000000000000000000000000000000000000000000000000600052602160045260246000fd5b600381106103be576103bd61037e565b5b50565b600381106103ce57600080fd5b50565b6103da81610362565b81146103e557600080fd5b5056fea2646970667358221220389f7d8513e967b401406a4662610092d829781362fb3c8369df4670dab4cb1f64736f6c63430008000033",
					"opcodes": "PUSH1 0x80 PUSH1 0x40 MSTORE CALLVALUE DUP1 ISZERO PUSH2 0x10 JUMPI PUSH1 0x0 DUP1 REVERT JUMPDEST POP PUSH2 0x41E DUP1 PUSH2 0x20 PUSH1 0x0 CODECOPY PUSH1 0x0 RETURN INVALID PUSH1 0x80 PUSH1 0x40 MSTORE CALLVALUE DUP1 ISZERO PUSH2 0x10 JUMPI PUSH1 0x0 DUP1 REVERT JUMPDEST POP PUSH1 0x4 CALLDATASIZE LT PUSH2 0x62 JUMPI PUSH1 0x0 CALLDATALOAD PUSH1 0xE0 SHR DUP1 PUSH4 0x200D2ED2 EQ PUSH2 0x67 JUMPI DUP1 PUSH4 0x24B8BA5F EQ PUSH2 0x85 JUMPI DUP1 PUSH4 0x3F9942FF EQ PUSH2 0xA1 JUMPI DUP1 PUSH4 0x6D4CE63C EQ PUSH2 0xAB JUMPI DUP1 PUSH4 0xA85C38EF EQ PUSH2 0xC9 JUMPI DUP1 PUSH4 0xD826F88F EQ PUSH2 0xFA JUMPI JUMPDEST PUSH1 0x0 DUP1 REVERT JUMPDEST PUSH2 0x6F PUSH2 0x104 JUMP JUMPDEST PUSH1 0x40 MLOAD PUSH2 0x7C SWAP2 SWAP1 PUSH2 0x302 JUMP JUMPDEST PUSH1 0x40 MLOAD DUP1 SWAP2 SUB SWAP1 RETURN JUMPDEST PUSH2 0x9F PUSH1 0x4 DUP1 CALLDATASIZE SUB DUP2 ADD SWAP1 PUSH2 0x9A SWAP2 SWAP1 PUSH2 0x269 JUMP JUMPDEST PUSH2 0x115 JUMP JUMPDEST STOP JUMPDEST PUSH2 0xA9 PUSH2 0x167 JUMP JUMPDEST STOP JUMPDEST PUSH2 0xB3 PUSH2 0x1B9 JUMP JUMPDEST PUSH1 0x40 MLOAD PUSH2 0xC0 SWAP2 SWAP1 PUSH2 0x302 JUMP JUMPDEST PUSH1 0x40 MLOAD DUP1 SWAP2 SUB SWAP1 RETURN JUMPDEST PUSH2 0xE3 PUSH1 0x4 DUP1 CALLDATASIZE SUB DUP2 ADD SWAP1 PUSH2 0xDE SWAP2 SWAP1 PUSH2 0x292 JUMP JUMPDEST PUSH2 0x1CF JUMP JUMPDEST PUSH1 0x40 MLOAD PUSH2 0xF1 SWAP3 SWAP2 SWAP1 PUSH2 0x2D9 JUMP JUMPDEST PUSH1 0x40 MLOAD DUP1 SWAP2 SUB SWAP1 RETURN JUMPDEST PUSH2 0x102 PUSH2 0x22C JUMP JUMPDEST STOP JUMPDEST PUSH1 0x0 DUP1 SLOAD SWAP1 PUSH2 0x100 EXP SWAP1 DIV PUSH1 0xFF AND DUP2 JUMP JUMPDEST DUP1 PUSH1 0x0 DUP1 PUSH2 0x100 EXP DUP2 SLOAD DUP2 PUSH1 0xFF MUL NOT AND SWAP1 DUP4 PUSH1 0x2 DUP2 GT ISZERO PUSH2 0x15F JUMPI PUSH32 0x4E487B7100000000000000000000000000000000000000000000000000000000 PUSH1 0x0 MSTORE PUSH1 0x21 PUSH1 0x4 MSTORE PUSH1 0x24 PUSH1 0x0 REVERT JUMPDEST MUL OR SWAP1 SSTORE POP POP JUMP JUMPDEST PUSH1 0x2 PUSH1 0x0 DUP1 PUSH2 0x100 EXP DUP2 SLOAD DUP2 PUSH1 0xFF MUL NOT AND SWAP1 DUP4 PUSH1 0x2 DUP2 GT ISZERO PUSH2 0x1B2 JUMPI PUSH32 0x4E487B7100000000000000000000000000000000000000000000000000000000 PUSH1 0x0 MSTORE PUSH1 0x21 PUSH1 0x4 MSTORE PUSH1 0x24 PUSH1 0x0 REVERT JUMPDEST MUL OR SWAP1 SSTORE POP JUMP JUMPDEST PUSH1 0x0 DUP1 PUSH1 0x0 SWAP1 SLOAD SWAP1 PUSH2 0x100 EXP SWAP1 DIV PUSH1 0xFF AND SWAP1 POP SWAP1 JUMP JUMPDEST PUSH1 0x1 DUP2 DUP2 SLOAD DUP2 LT PUSH2 0x1DF JUMPI PUSH1 0x0 DUP1 REVERT JUMPDEST SWAP1 PUSH1 0x0 MSTORE PUSH1 0x20 PUSH1 0x0 KECCAK256 ADD PUSH1 0x0 SWAP2 POP SWAP1 POP DUP1 PUSH1 0x0 ADD PUSH1 0x0 SWAP1 SLOAD SWAP1 PUSH2 0x100 EXP SWAP1 DIV PUSH20 0xFFFFFFFFFFFFFFFFFFFFFFFFFFFFFFFFFFFFFFFF AND SWAP1 DUP1 PUSH1 0x0 ADD PUSH1 0x14 SWAP1 SLOAD SWAP1 PUSH2 0x100 EXP SWAP1 DIV PUSH1 0xFF AND SWAP1 POP DUP3 JUMP JUMPDEST PUSH1 0x0 DUP1 PUSH2 0x100 EXP DUP2 SLOAD SWAP1 PUSH1 0xFF MUL NOT AND SWAP1 SSTORE JUMP JUMPDEST PUSH1 0x0 DUP2 CALLDATALOAD SWAP1 POP PUSH2 0x24E DUP2 PUSH2 0x3C1 JUMP JUMPDEST SWAP3 SWAP2 POP POP JUMP JUMPDEST PUSH1 0x0 DUP2 CALLDATALOAD SWAP1 POP PUSH2 0x263 DUP2 PUSH2 0x3D1 JUMP JUMPDEST SWAP3 SWAP2 POP POP JUMP JUMPDEST PUSH1 0x0 PUSH1 0x20 DUP3 DUP5 SUB SLT ISZERO PUSH2 0x27B JUMPI PUSH1 0x0 DUP1 REVERT JUMPDEST PUSH1 0x0 PUSH2 0x289 DUP5 DUP3 DUP6 ADD PUSH2 0x23F JUMP JUMPDEST SWAP2 POP POP SWAP3 SWAP2 POP POP JUMP JUMPDEST PUSH1 0x0 PUSH1 0x20 DUP3 DUP5 SUB SLT ISZERO PUSH2 0x2A4 JUMPI PUSH1 0x0 DUP1 REVERT JUMPDEST PUSH1 0x0 PUSH2 0x2B2 DUP5 DUP3 DUP6 ADD PUSH2 0x254 JUMP JUMPDEST SWAP2 POP POP SWAP3 SWAP2 POP POP JUMP JUMPDEST PUSH2 0x2C4 DUP2 PUSH2 0x31D JUMP JUMPDEST DUP3 MSTORE POP POP JUMP JUMPDEST PUSH2 0x2D3 DUP2 PUSH2 0x36C JUMP JUMPDEST DUP3 MSTORE POP POP JUMP JUMPDEST PUSH1 0x0 PUSH1 0x40 DUP3 ADD SWAP1 POP PUSH2 0x2EE PUSH1 0x0 DUP4 ADD DUP6 PUSH2 0x2BB JUMP JUMPDEST PUSH2 0x2FB PUSH1 0x20 DUP4 ADD DUP5 PUSH2 0x2CA JUMP JUMPDEST SWAP4 SWAP3 POP POP POP JUMP JUMPDEST PUSH1 0x0 PUSH1 0x20 DUP3 ADD SWAP1 POP PUSH2 0x317 PUSH1 0x0 DUP4 ADD DUP5 PUSH2 0x2CA JUMP JUMPDEST SWAP3 SWAP2 POP POP JUMP JUMPDEST PUSH1 0x0 PUSH2 0x328 DUP3 PUSH2 0x342 JUMP JUMPDEST SWAP1 POP SWAP2 SWAP1 POP JUMP JUMPDEST PUSH1 0x0 DUP2 SWAP1 POP PUSH2 0x33D DUP3 PUSH2 0x3AD JUMP JUMPDEST SWAP2 SWAP1 POP JUMP JUMPDEST PUSH1 0x0 PUSH20 0xFFFFFFFFFFFFFFFFFFFFFFFFFFFFFFFFFFFFFFFF DUP3 AND SWAP1 POP SWAP2 SWAP1 POP JUMP JUMPDEST PUSH1 0x0 DUP2 SWAP1 POP SWAP2 SWAP1 POP JUMP JUMPDEST PUSH1 0x0 PUSH2 0x377 DUP3 PUSH2 0x32F JUMP JUMPDEST SWAP1 POP SWAP2 SWAP1 POP JUMP JUMPDEST PUSH32 0x4E487B7100000000000000000000000000000000000000000000000000000000 PUSH1 0x0 MSTORE PUSH1 0x21 PUSH1 0x4 MSTORE PUSH1 0x24 PUSH1 0x0 REVERT JUMPDEST PUSH1 0x3 DUP2 LT PUSH2 0x3BE JUMPI PUSH2 0x3BD PUSH2 0x37E JUMP JUMPDEST JUMPDEST POP JUMP JUMPDEST PUSH1 0x3 DUP2 LT PUSH2 0x3CE JUMPI PUSH1 0x0 DUP1 REVERT JUMPDEST POP JUMP JUMPDEST PUSH2 0x3DA DUP2 PUSH2 0x362 JUMP JUMPDEST DUP2 EQ PUSH2 0x3E5 JUMPI PUSH1 0x0 DUP1 REVERT JUMPDEST POP JUMP INVALID LOG2 PUSH5 0x6970667358 0x22 SLT KECCAK256 CODESIZE SWAP16 PUSH30 0x8513E967B401406A4662610092D829781362FB3C8369DF4670DAB4CB1F64 PUSH20 0x6F6C634300080000330000000000000000000000 "
				},
				"gasEstimates": {
					"creation": {
						"codeDepositCost": "210800",
						"executionCost": "251",
						"totalCost": "211051"
					},
					"external": {
						"canceled()": "21053",
						"get()": "1312",
						"orders(uint256)": "3540",
						"reset()": "21074",
						"set(uint8)": "21250",
						"status()": "1235"
					}
				},
				"methodIdentifiers": {
					"canceled()": "3f9942ff",
					"get()": "6d4ce63c",
					"orders(uint256)": "a85c38ef",
					"reset()": "d826f88f",
					"set(uint8)": "24b8ba5f",
					"status()": "200d2ed2"
				}
			},
			"storageLayout": {
				"storage": [
					{
						"astId": 38,
						"contract": "chapter02/9type3.sol:Enum",
						"label": "status",
						"offset": 0,
						"slot": "0",
						"type": "t_enum(Status)35"
					},
					{
						"astId": 48,
						"contract": "chapter02/9type3.sol:Enum",
						"label": "orders",
						"offset": 0,
						"slot": "1",
						"type": "t_array(t_struct(Order)44_storage)dyn_storage"
					}
				],
				"types": {
					"t_address": {
						"encoding": "inplace",
						"label": "address",
						"numberOfBytes": "20"
					},
					"t_array(t_struct(Order)44_storage)dyn_storage": {
						"base": "t_struct(Order)44_storage",
						"encoding": "dynamic_array",
						"label": "struct Enum.Order[]",
						"numberOfBytes": "32"
					},
					"t_enum(Status)35": {
						"encoding": "inplace",
						"label": "enum Enum.Status",
						"numberOfBytes": "1"
					},
					"t_struct(Order)44_storage": {
						"encoding": "inplace",
						"label": "struct Enum.Order",
						"members": [
							{
								"astId": 40,
								"contract": "chapter02/9type3.sol:Enum",
								"label": "buyer",
								"offset": 0,
								"slot": "0",
								"type": "t_address"
							},
							{
								"astId": 43,
								"contract": "chapter02/9type3.sol:Enum",
								"label": "status",
								"offset": 20,
								"slot": "0",
								"type": "t_enum(Status)35"
							}
						],
						"numberOfBytes": "32"
					}
				}
			},
			"userdoc": {
				"kind": "user",
				"methods": {},
				"version": 1
			}
		}
	}
}