{
	"chapter02/9type3.sol": {
		"type4": {
			"abi": [
				{
					"inputs": [],
					"name": "accuracy",
					"outputs": [
						{
							"internalType": "uint256",
							"name": "",
							"type": "uint256"
						}
					],
					"stateMutability": "view",
					"type": "function"
				},
				{
					"inputs": [],
					"name": "i1",
					"outputs": [
						{
							"internalType": "uint256",
							"name": "",
							"type": "uint256"
						}
					],
					"stateMutability": "view",
					"type": "function"
				},
				{
					"inputs": [
						{
							"internalType": "uint256",
							"name": "_param",
							"type": "uint256"
						}
					],
					"name": "mycal",
					"outputs": [
						{
							"internalType": "uint256",
							"name": "",
							"type": "uint256"
						}
					],
					"stateMutability": "view",
					"type": "function"
				},
				{
					"inputs": [
						{
							"internalType": "uint256",
							"name": "_param",
							"type": "uint256"
						}
					],
					"name": "mycalPlus",
					"outputs": [
						{
							"internalType": "uint256",
							"name": "",
							"type": "uint256"
						}
					],
					"stateMutability": "view",
					"type": "function"
				}
			],
			"devdoc": {
				"kind": "dev",
				"methods": {},
				"version": 1
			},
			"evm": {
				"assembly": "    /* \"chapter02/9type3.sol\":5235:5672  contract type4{... */\n  mstore(0x40, 0x80)\n    /* \"chapter02/9type3.sol\":5304:5305  1 */\n  0x01\n    /* \"chapter02/9type3.sol\":5287:5305  uint public i1 = 1 */\n  0x00\n  sstore\n    /* \"chapter02/9type3.sol\":5446:5449  100 */\n  0x64\n    /* \"chapter02/9type3.sol\":5424:5449  uint public accuracy =100 */\n  0x01\n  sstore\n    /* \"chapter02/9type3.sol\":5235:5672  contract type4{... */\n  callvalue\n  dup1\n  iszero\n  tag_1\n  jumpi\n  0x00\n  dup1\n  revert\ntag_1:\n  pop\n  dataSize(sub_0)\n  dup1\n  dataOffset(sub_0)\n  0x00\n  codecopy\n  0x00\n  return\nstop\n\nsub_0: assembly {\n        /* \"chapter02/9type3.sol\":5235:5672  contract type4{... */\n      mstore(0x40, 0x80)\n      callvalue\n      dup1\n      iszero\n      tag_1\n      jumpi\n      0x00\n      dup1\n      revert\n    tag_1:\n      pop\n      jumpi(tag_2, lt(calldatasize, 0x04))\n      shr(0xe0, calldataload(0x00))\n      dup1\n      0x28897238\n      eq\n      tag_3\n      jumpi\n      dup1\n      0x83835c01\n      eq\n      tag_4\n      jumpi\n      dup1\n      0x98cedaf5\n      eq\n      tag_5\n      jumpi\n      dup1\n      0xe07d5acb\n      eq\n      tag_6\n      jumpi\n    tag_2:\n      0x00\n      dup1\n      revert\n        /* \"chapter02/9type3.sol\":5287:5305  uint public i1 = 1 */\n    tag_3:\n      tag_7\n      tag_8\n      jump\t// in\n    tag_7:\n      mload(0x40)\n      tag_9\n      swap2\n      swap1\n      tag_10\n      jump\t// in\n    tag_9:\n      mload(0x40)\n      dup1\n      swap2\n      sub\n      swap1\n      return\n        /* \"chapter02/9type3.sol\":5424:5449  uint public accuracy =100 */\n    tag_4:\n      tag_11\n      tag_12\n      jump\t// in\n    tag_11:\n      mload(0x40)\n      tag_13\n      swap2\n      swap1\n      tag_10\n      jump\t// in\n    tag_13:\n      mload(0x40)\n      dup1\n      swap2\n      sub\n      swap1\n      return\n        /* \"chapter02/9type3.sol\":5312:5406  function mycal(uint _param)external view returns(uint){... */\n    tag_5:\n      tag_14\n      0x04\n      dup1\n      calldatasize\n      sub\n      dup2\n      add\n      swap1\n      tag_15\n      swap2\n      swap1\n      tag_16\n      jump\t// in\n    tag_15:\n      tag_17\n      jump\t// in\n    tag_14:\n      mload(0x40)\n      tag_18\n      swap2\n      swap1\n      tag_10\n      jump\t// in\n    tag_18:\n      mload(0x40)\n      dup1\n      swap2\n      sub\n      swap1\n      return\n        /* \"chapter02/9type3.sol\":5550:5670  function mycalPlus(uint _param)external view returns(uint){... */\n    tag_6:\n      tag_19\n      0x04\n      dup1\n      calldatasize\n      sub\n      dup2\n      add\n      swap1\n      tag_20\n      swap2\n      swap1\n      tag_16\n      jump\t// in\n    tag_20:\n      tag_21\n      jump\t// in\n    tag_19:\n      mload(0x40)\n      tag_22\n      swap2\n      swap1\n      tag_10\n      jump\t// in\n    tag_22:\n      mload(0x40)\n      dup1\n      swap2\n      sub\n      swap1\n      return\n        /* \"chapter02/9type3.sol\":5287:5305  uint public i1 = 1 */\n    tag_8:\n      sload(0x00)\n      dup2\n      jump\t// out\n        /* \"chapter02/9type3.sol\":5424:5449  uint public accuracy =100 */\n    tag_12:\n      sload(0x01)\n      dup2\n      jump\t// out\n        /* \"chapter02/9type3.sol\":5312:5406  function mycal(uint _param)external view returns(uint){... */\n    tag_17:\n        /* \"chapter02/9type3.sol\":5361:5365  uint */\n      0x00\n        /* \"chapter02/9type3.sol\":5393:5399  _param */\n      dup2\n        /* \"chapter02/9type3.sol\":5386:5392  _param */\n      dup3\n        /* \"chapter02/9type3.sol\":5383:5385  i1 */\n      sload(0x00)\n        /* \"chapter02/9type3.sol\":5383:5392  i1/_param */\n      tag_24\n      swap2\n      swap1\n      tag_25\n      jump\t// in\n    tag_24:\n        /* \"chapter02/9type3.sol\":5383:5399  i1/_param*_param */\n      tag_26\n      swap2\n      swap1\n      tag_27\n      jump\t// in\n    tag_26:\n        /* \"chapter02/9type3.sol\":5376:5399  return i1/_param*_param */\n      swap1\n      pop\n        /* \"chapter02/9type3.sol\":5312:5406  function mycal(uint _param)external view returns(uint){... */\n      swap2\n      swap1\n      pop\n      jump\t// out\n        /* \"chapter02/9type3.sol\":5550:5670  function mycalPlus(uint _param)external view returns(uint){... */\n    tag_21:\n        /* \"chapter02/9type3.sol\":5603:5607  uint */\n      0x00\n        /* \"chapter02/9type3.sol\":5655:5663  accuracy */\n      sload(0x01)\n        /* \"chapter02/9type3.sol\":5648:5654  _param */\n      dup3\n        /* \"chapter02/9type3.sol\":5641:5647  _param */\n      dup4\n        /* \"chapter02/9type3.sol\":5632:5640  accuracy */\n      sload(0x01)\n        /* \"chapter02/9type3.sol\":5629:5631  i1 */\n      sload(0x00)\n        /* \"chapter02/9type3.sol\":5629:5640  i1*accuracy */\n      tag_29\n      swap2\n      swap1\n      tag_27\n      jump\t// in\n    tag_29:\n        /* \"chapter02/9type3.sol\":5629:5647  i1*accuracy/_param */\n      tag_30\n      swap2\n      swap1\n      tag_25\n      jump\t// in\n    tag_30:\n        /* \"chapter02/9type3.sol\":5629:5654  i1*accuracy/_param*_param */\n      tag_31\n      swap2\n      swap1\n      tag_27\n      jump\t// in\n    tag_31:\n        /* \"chapter02/9type3.sol\":5629:5663  i1*accuracy/_param*_param/accuracy */\n      tag_32\n      swap2\n      swap1\n      tag_25\n      jump\t// in\n    tag_32:\n        /* \"chapter02/9type3.sol\":5622:5663  return i1*accuracy/_param*_param/accuracy */\n      swap1\n      pop\n        /* \"chapter02/9type3.sol\":5550:5670  function mycalPlus(uint _param)external view returns(uint){... */\n      swap2\n      swap1\n      pop\n      jump\t// out\n        /* \"#utility.yul\":7:146   */\n    tag_34:\n      0x00\n        /* \"#utility.yul\":91:97   */\n      dup2\n        /* \"#utility.yul\":78:98   */\n      calldataload\n        /* \"#utility.yul\":69:98   */\n      swap1\n      pop\n        /* \"#utility.yul\":107:140   */\n      tag_36\n        /* \"#utility.yul\":134:139   */\n      dup2\n        /* \"#utility.yul\":107:140   */\n      tag_37\n      jump\t// in\n    tag_36:\n        /* \"#utility.yul\":59:146   */\n      swap3\n      swap2\n      pop\n      pop\n      jump\t// out\n        /* \"#utility.yul\":152:414   */\n    tag_16:\n      0x00\n        /* \"#utility.yul\":260:262   */\n      0x20\n        /* \"#utility.yul\":248:257   */\n      dup3\n        /* \"#utility.yul\":239:246   */\n      dup5\n        /* \"#utility.yul\":235:258   */\n      sub\n        /* \"#utility.yul\":231:263   */\n      slt\n        /* \"#utility.yul\":228:230   */\n      iszero\n      tag_39\n      jumpi\n        /* \"#utility.yul\":276:277   */\n      0x00\n        /* \"#utility.yul\":273:274   */\n      dup1\n        /* \"#utility.yul\":266:278   */\n      revert\n        /* \"#utility.yul\":228:230   */\n    tag_39:\n        /* \"#utility.yul\":319:320   */\n      0x00\n        /* \"#utility.yul\":344:397   */\n      tag_40\n        /* \"#utility.yul\":389:396   */\n      dup5\n        /* \"#utility.yul\":380:386   */\n      dup3\n        /* \"#utility.yul\":369:378   */\n      dup6\n        /* \"#utility.yul\":365:387   */\n      add\n        /* \"#utility.yul\":344:397   */\n      tag_34\n      jump\t// in\n    tag_40:\n        /* \"#utility.yul\":334:397   */\n      swap2\n      pop\n        /* \"#utility.yul\":290:407   */\n      pop\n        /* \"#utility.yul\":218:414   */\n      swap3\n      swap2\n      pop\n      pop\n      jump\t// out\n        /* \"#utility.yul\":420:538   */\n    tag_41:\n        /* \"#utility.yul\":507:531   */\n      tag_43\n        /* \"#utility.yul\":525:530   */\n      dup2\n        /* \"#utility.yul\":507:531   */\n      tag_44\n      jump\t// in\n    tag_43:\n        /* \"#utility.yul\":502:505   */\n      dup3\n        /* \"#utility.yul\":495:532   */\n      mstore\n        /* \"#utility.yul\":485:538   */\n      pop\n      pop\n      jump\t// out\n        /* \"#utility.yul\":544:766   */\n    tag_10:\n      0x00\n        /* \"#utility.yul\":675:677   */\n      0x20\n        /* \"#utility.yul\":664:673   */\n      dup3\n        /* \"#utility.yul\":660:678   */\n      add\n        /* \"#utility.yul\":652:678   */\n      swap1\n      pop\n        /* \"#utility.yul\":688:759   */\n      tag_46\n        /* \"#utility.yul\":756:757   */\n      0x00\n        /* \"#utility.yul\":745:754   */\n      dup4\n        /* \"#utility.yul\":741:758   */\n      add\n        /* \"#utility.yul\":732:738   */\n      dup5\n        /* \"#utility.yul\":688:759   */\n      tag_41\n      jump\t// in\n    tag_46:\n        /* \"#utility.yul\":642:766   */\n      swap3\n      swap2\n      pop\n      pop\n      jump\t// out\n        /* \"#utility.yul\":772:957   */\n    tag_25:\n      0x00\n        /* \"#utility.yul\":829:849   */\n      tag_48\n        /* \"#utility.yul\":847:848   */\n      dup3\n        /* \"#utility.yul\":829:849   */\n      tag_44\n      jump\t// in\n    tag_48:\n        /* \"#utility.yul\":824:849   */\n      swap2\n      pop\n        /* \"#utility.yul\":863:883   */\n      tag_49\n        /* \"#utility.yul\":881:882   */\n      dup4\n        /* \"#utility.yul\":863:883   */\n      tag_44\n      jump\t// in\n    tag_49:\n        /* \"#utility.yul\":858:883   */\n      swap3\n      pop\n        /* \"#utility.yul\":902:903   */\n      dup3\n        /* \"#utility.yul\":892:894   */\n      tag_50\n      jumpi\n        /* \"#utility.yul\":907:925   */\n      tag_51\n      tag_52\n      jump\t// in\n    tag_51:\n        /* \"#utility.yul\":892:894   */\n    tag_50:\n        /* \"#utility.yul\":949:950   */\n      dup3\n        /* \"#utility.yul\":946:947   */\n      dup3\n        /* \"#utility.yul\":942:951   */\n      div\n        /* \"#utility.yul\":937:951   */\n      swap1\n      pop\n        /* \"#utility.yul\":814:957   */\n      swap3\n      swap2\n      pop\n      pop\n      jump\t// out\n        /* \"#utility.yul\":963:1311   */\n    tag_27:\n      0x00\n        /* \"#utility.yul\":1026:1046   */\n      tag_54\n        /* \"#utility.yul\":1044:1045   */\n      dup3\n        /* \"#utility.yul\":1026:1046   */\n      tag_44\n      jump\t// in\n    tag_54:\n        /* \"#utility.yul\":1021:1046   */\n      swap2\n      pop\n        /* \"#utility.yul\":1060:1080   */\n      tag_55\n        /* \"#utility.yul\":1078:1079   */\n      dup4\n        /* \"#utility.yul\":1060:1080   */\n      tag_44\n      jump\t// in\n    tag_55:\n        /* \"#utility.yul\":1055:1080   */\n      swap3\n      pop\n        /* \"#utility.yul\":1248:1249   */\n      dup2\n        /* \"#utility.yul\":1180:1246   */\n      0xffffffffffffffffffffffffffffffffffffffffffffffffffffffffffffffff\n        /* \"#utility.yul\":1176:1250   */\n      div\n        /* \"#utility.yul\":1173:1174   */\n      dup4\n        /* \"#utility.yul\":1170:1251   */\n      gt\n        /* \"#utility.yul\":1165:1166   */\n      dup3\n        /* \"#utility.yul\":1158:1167   */\n      iszero\n        /* \"#utility.yul\":1151:1168   */\n      iszero\n        /* \"#utility.yul\":1147:1252   */\n      and\n        /* \"#utility.yul\":1144:1146   */\n      iszero\n      tag_56\n      jumpi\n        /* \"#utility.yul\":1255:1273   */\n      tag_57\n      tag_58\n      jump\t// in\n    tag_57:\n        /* \"#utility.yul\":1144:1146   */\n    tag_56:\n        /* \"#utility.yul\":1303:1304   */\n      dup3\n        /* \"#utility.yul\":1300:1301   */\n      dup3\n        /* \"#utility.yul\":1296:1305   */\n      mul\n        /* \"#utility.yul\":1285:1305   */\n      swap1\n      pop\n        /* \"#utility.yul\":1011:1311   */\n      swap3\n      swap2\n      pop\n      pop\n      jump\t// out\n        /* \"#utility.yul\":1317:1394   */\n    tag_44:\n      0x00\n        /* \"#utility.yul\":1383:1388   */\n      dup2\n        /* \"#utility.yul\":1372:1388   */\n      swap1\n      pop\n        /* \"#utility.yul\":1362:1394   */\n      swap2\n      swap1\n      pop\n      jump\t// out\n        /* \"#utility.yul\":1400:1580   */\n    tag_58:\n        /* \"#utility.yul\":1448:1525   */\n      0x4e487b7100000000000000000000000000000000000000000000000000000000\n        /* \"#utility.yul\":1445:1446   */\n      0x00\n        /* \"#utility.yul\":1438:1526   */\n      mstore\n        /* \"#utility.yul\":1545:1549   */\n      0x11\n        /* \"#utility.yul\":1542:1543   */\n      0x04\n        /* \"#utility.yul\":1535:1550   */\n      mstore\n        /* \"#utility.yul\":1569:1573   */\n      0x24\n        /* \"#utility.yul\":1566:1567   */\n      0x00\n        /* \"#utility.yul\":1559:1574   */\n      revert\n        /* \"#utility.yul\":1586:1766   */\n    tag_52:\n        /* \"#utility.yul\":1634:1711   */\n      0x4e487b7100000000000000000000000000000000000000000000000000000000\n        /* \"#utility.yul\":1631:1632   */\n      0x00\n        /* \"#utility.yul\":1624:1712   */\n      mstore\n        /* \"#utility.yul\":1731:1735   */\n      0x12\n        /* \"#utility.yul\":1728:1729   */\n      0x04\n        /* \"#utility.yul\":1721:1736   */\n      mstore\n        /* \"#utility.yul\":1755:1759   */\n      0x24\n        /* \"#utility.yul\":1752:1753   */\n      0x00\n        /* \"#utility.yul\":1745:1760   */\n      revert\n        /* \"#utility.yul\":1772:1894   */\n    tag_37:\n        /* \"#utility.yul\":1845:1869   */\n      tag_63\n        /* \"#utility.yul\":1863:1868   */\n      dup2\n        /* \"#utility.yul\":1845:1869   */\n      tag_44\n      jump\t// in\n    tag_63:\n        /* \"#utility.yul\":1838:1843   */\n      dup2\n        /* \"#utility.yul\":1835:1870   */\n      eq\n        /* \"#utility.yul\":1825:1827   */\n      tag_64\n      jumpi\n        /* \"#utility.yul\":1884:1885   */\n      0x00\n        /* \"#utility.yul\":1881:1882   */\n      dup1\n        /* \"#utility.yul\":1874:1886   */\n      revert\n        /* \"#utility.yul\":1825:1827   */\n    tag_64:\n        /* \"#utility.yul\":1815:1894   */\n      pop\n      jump\t// out\n\n    auxdata: 0xa264697066735822122050a10b352051a15d0fe748af6d1a9c30d3a6f3c663b1e7f03398ffb52e1a66f364736f6c63430008000033\n}\n",
				"bytecode": {
					"linkReferences": {},
					"object": "60806040526001600055606460015534801561001a57600080fd5b506102ff8061002a6000396000f3fe608060405234801561001057600080fd5b506004361061004c5760003560e01c8063288972381461005157806383835c011461006f57806398cedaf51461008d578063e07d5acb146100bd575b600080fd5b6100596100ed565b60405161006691906101a4565b60405180910390f35b6100776100f3565b60405161008491906101a4565b60405180910390f35b6100a760048036038101906100a2919061016c565b6100f9565b6040516100b491906101a4565b60405180910390f35b6100d760048036038101906100d2919061016c565b61011b565b6040516100e491906101a4565b60405180910390f35b60005481565b60015481565b6000818260005461010a91906101bf565b61011491906101f0565b9050919050565b6000600154828360015460005461013291906101f0565b61013c91906101bf565b61014691906101f0565b61015091906101bf565b9050919050565b600081359050610166816102b2565b92915050565b60006020828403121561017e57600080fd5b600061018c84828501610157565b91505092915050565b61019e8161024a565b82525050565b60006020820190506101b96000830184610195565b92915050565b60006101ca8261024a565b91506101d58361024a565b9250826101e5576101e4610283565b5b828204905092915050565b60006101fb8261024a565b91506102068361024a565b9250817fffffffffffffffffffffffffffffffffffffffffffffffffffffffffffffffff048311821515161561023f5761023e610254565b5b828202905092915050565b6000819050919050565b7f4e487b7100000000000000000000000000000000000000000000000000000000600052601160045260246000fd5b7f4e487b7100000000000000000000000000000000000000000000000000000000600052601260045260246000fd5b6102bb8161024a565b81146102c657600080fd5b5056fea264697066735822122050a10b352051a15d0fe748af6d1a9c30d3a6f3c663b1e7f03398ffb52e1a66f364736f6c63430008000033",
					"opcodes": "PUSH1 0x80 PUSH1 0x40 MSTORE PUSH1 0x1 PUSH1 0x0 SSTORE PUSH1 0x64 PUSH1 0x1 SSTORE CALLVALUE DUP1 ISZERO PUSH2 0x1A JUMPI PUSH1 0x0 DUP1 REVERT JUMPDEST POP PUSH2 0x2FF DUP1 PUSH2 0x2A PUSH1 0x0 CODECOPY PUSH1 0x0 RETURN INVALID PUSH1 0x80 PUSH1 0x40 MSTORE CALLVALUE DUP1 ISZERO PUSH2 0x10 JUMPI PUSH1 0x0 DUP1 REVERT JUMPDEST POP PUSH1 0x4 CALLDATASIZE LT PUSH2 0x4C JUMPI PUSH1 0x0 CALLDATALOAD PUSH1 0xE0 SHR DUP1 PUSH4 0x28897238 EQ PUSH2 0x51 JUMPI DUP1 PUSH4 0x83835C01 EQ PUSH2 0x6F JUMPI DUP1 PUSH4 0x98CEDAF5 EQ PUSH2 0x8D JUMPI DUP1 PUSH4 0xE07D5ACB EQ PUSH2 0xBD JUMPI JUMPDEST PUSH1 0x0 DUP1 REVERT JUMPDEST PUSH2 0x59 PUSH2 0xED JUMP JUMPDEST PUSH1 0x40 MLOAD PUSH2 0x66 SWAP2 SWAP1 PUSH2 0x1A4 JUMP JUMPDEST PUSH1 0x40 MLOAD DUP1 SWAP2 SUB SWAP1 RETURN JUMPDEST PUSH2 0x77 PUSH2 0xF3 JUMP JUMPDEST PUSH1 0x40 MLOAD PUSH2 0x84 SWAP2 SWAP1 PUSH2 0x1A4 JUMP JUMPDEST PUSH1 0x40 MLOAD DUP1 SWAP2 SUB SWAP1 RETURN JUMPDEST PUSH2 0xA7 PUSH1 0x4 DUP1 CALLDATASIZE SUB DUP2 ADD SWAP1 PUSH2 0xA2 SWAP2 SWAP1 PUSH2 0x16C JUMP JUMPDEST PUSH2 0xF9 JUMP JUMPDEST PUSH1 0x40 MLOAD PUSH2 0xB4 SWAP2 SWAP1 PUSH2 0x1A4 JUMP JUMPDEST PUSH1 0x40 MLOAD DUP1 SWAP2 SUB SWAP1 RETURN JUMPDEST PUSH2 0xD7 PUSH1 0x4 DUP1 CALLDATASIZE SUB DUP2 ADD SWAP1 PUSH2 0xD2 SWAP2 SWAP1 PUSH2 0x16C JUMP JUMPDEST PUSH2 0x11B JUMP JUMPDEST PUSH1 0x40 MLOAD PUSH2 0xE4 SWAP2 SWAP1 PUSH2 0x1A4 JUMP JUMPDEST PUSH1 0x40 MLOAD DUP1 SWAP2 SUB SWAP1 RETURN JUMPDEST PUSH1 0x0 SLOAD DUP2 JUMP JUMPDEST PUSH1 0x1 SLOAD DUP2 JUMP JUMPDEST PUSH1 0x0 DUP2 DUP3 PUSH1 0x0 SLOAD PUSH2 0x10A SWAP2 SWAP1 PUSH2 0x1BF JUMP JUMPDEST PUSH2 0x114 SWAP2 SWAP1 PUSH2 0x1F0 JUMP JUMPDEST SWAP1 POP SWAP2 SWAP1 POP JUMP JUMPDEST PUSH1 0x0 PUSH1 0x1 SLOAD DUP3 DUP4 PUSH1 0x1 SLOAD PUSH1 0x0 SLOAD PUSH2 0x132 SWAP2 SWAP1 PUSH2 0x1F0 JUMP JUMPDEST PUSH2 0x13C SWAP2 SWAP1 PUSH2 0x1BF JUMP JUMPDEST PUSH2 0x146 SWAP2 SWAP1 PUSH2 0x1F0 JUMP JUMPDEST PUSH2 0x150 SWAP2 SWAP1 PUSH2 0x1BF JUMP JUMPDEST SWAP1 POP SWAP2 SWAP1 POP JUMP JUMPDEST PUSH1 0x0 DUP2 CALLDATALOAD SWAP1 POP PUSH2 0x166 DUP2 PUSH2 0x2B2 JUMP JUMPDEST SWAP3 SWAP2 POP POP JUMP JUMPDEST PUSH1 0x0 PUSH1 0x20 DUP3 DUP5 SUB SLT ISZERO PUSH2 0x17E JUMPI PUSH1 0x0 DUP1 REVERT JUMPDEST PUSH1 0x0 PUSH2 0x18C DUP5 DUP3 DUP6 ADD PUSH2 0x157 JUMP JUMPDEST SWAP2 POP POP SWAP3 SWAP2 POP POP JUMP JUMPDEST PUSH2 0x19E DUP2 PUSH2 0x24A JUMP JUMPDEST DUP3 MSTORE POP POP JUMP JUMPDEST PUSH1 0x0 PUSH1 0x20 DUP3 ADD SWAP1 POP PUSH2 0x1B9 PUSH1 0x0 DUP4 ADD DUP5 PUSH2 0x195 JUMP JUMPDEST SWAP3 SWAP2 POP POP JUMP JUMPDEST PUSH1 0x0 PUSH2 0x1CA DUP3 PUSH2 0x24A JUMP JUMPDEST SWAP2 POP PUSH2 0x1D5 DUP4 PUSH2 0x24A JUMP JUMPDEST SWAP3 POP DUP3 PUSH2 0x1E5 JUMPI PUSH2 0x1E4 PUSH2 0x283 JUMP JUMPDEST JUMPDEST DUP3 DUP3 DIV SWAP1 POP SWAP3 SWAP2 POP POP JUMP JUMPDEST PUSH1 0x0 PUSH2 0x1FB DUP3 PUSH2 0x24A JUMP JUMPDEST SWAP2 POP PUSH2 0x206 DUP4 PUSH2 0x24A JUMP JUMPDEST SWAP3 POP DUP2 PUSH32 0xFFFFFFFFFFFFFFFFFFFFFFFFFFFFFFFFFFFFFFFFFFFFFFFFFFFFFFFFFFFFFFFF DIV DUP4 GT DUP3 ISZERO ISZERO AND ISZERO PUSH2 0x23F JUMPI PUSH2 0x23E PUSH2 0x254 JUMP JUMPDEST JUMPDEST DUP3 DUP3 MUL SWAP1 POP SWAP3 SWAP2 POP POP JUMP JUMPDEST PUSH1 0x0 DUP2 SWAP1 POP SWAP2 SWAP1 POP JUMP JUMPDEST PUSH32 0x4E487B7100000000000000000000000000000000000000000000000000000000 PUSH1 0x0 MSTORE PUSH1 0x11 PUSH1 0x4 MSTORE PUSH1 0x24 PUSH1 0x0 REVERT JUMPDEST PUSH32 0x4E487B7100000000000000000000000000000000000000000000000000000000 PUSH1 0x0 MSTORE PUSH1 0x12 PUSH1 0x4 MSTORE PUSH1 0x24 PUSH1 0x0 REVERT JUMPDEST PUSH2 0x2BB DUP2 PUSH2 0x24A JUMP JUMPDEST DUP2 EQ PUSH2 0x2C6 JUMPI PUSH1 0x0 DUP1 REVERT JUMPDEST POP JUMP INVALID LOG2 PUSH5 0x6970667358 0x22 SLT KECCAK256 POP LOG1 SIGNEXTEND CALLDATALOAD KECCAK256 MLOAD LOG1 0x5D 0xF 0xE7 0x48 0xAF PUSH14 0x1A9C30D3A6F3C663B1E7F03398FF 0xB5 0x2E BYTE PUSH7 0xF364736F6C6343 STOP ADDMOD STOP STOP CALLER "
				},
				"gasEstimates": {
					"creation": {
						"codeDepositCost": "153400",
						"executionCost": "40208",
						"totalCost": "193608"
					},
					"external": {
						"accuracy()": "1129",
						"i1()": "1107",
						"mycal(uint256)": "infinite",
						"mycalPlus(uint256)": "infinite"
					}
				},
				"methodIdentifiers": {
					"accuracy()": "83835c01",
					"i1()": "28897238",
					"mycal(uint256)": "98cedaf5",
					"mycalPlus(uint256)": "e07d5acb"
				}
			},
			"storageLayout": {
				"storage": [
					{
						"astId": 424,
						"contract": "chapter02/9type3.sol:type4",
						"label": "i1",
						"offset": 0,
						"slot": "0",
						"type": "t_uint256"
					},
					{
						"astId": 441,
						"contract": "chapter02/9type3.sol:type4",
						"label": "accuracy",
						"offset": 0,
						"slot": "1",
						"type": "t_uint256"
					}
				],
				"types": {
					"t_uint256": {
						"encoding": "inplace",
						"label": "uint256",
						"numberOfBytes": "32"
					}
				}
			},
			"userdoc": {
				"kind": "user",
				"methods": {},
				"version": 1
			}
		}
	}
}