{
	"chapter02/9type3.sol": {
		"type8": {
			"abi": [
				{
					"inputs": [],
					"name": "i10",
					"outputs": [
						{
							"internalType": "int256",
							"name": "",
							"type": "int256"
						}
					],
					"stateMutability": "view",
					"type": "function"
				},
				{
					"inputs": [],
					"name": "i11",
					"outputs": [
						{
							"internalType": "int256",
							"name": "",
							"type": "int256"
						}
					],
					"stateMutability": "view",
					"type": "function"
				},
				{
					"inputs": [],
					"name": "i2",
					"outputs": [
						{
							"internalType": "uint256",
							"name": "",
							"type": "uint256"
						}
					],
					"stateMutability": "view",
					"type": "function"
				},
				{
					"inputs": [],
					"name": "i3",
					"outputs": [
						{
							"internalType": "uint256",
							"name": "",
							"type": "uint256"
						}
					],
					"stateMutability": "view",
					"type": "function"
				},
				{
					"inputs": [],
					"name": "i4",
					"outputs": [
						{
							"internalType": "uint256",
							"name": "",
							"type": "uint256"
						}
					],
					"stateMutability": "view",
					"type": "function"
				},
				{
					"inputs": [],
					"name": "i5",
					"outputs": [
						{
							"internalType": "uint256",
							"name": "",
							"type": "uint256"
						}
					],
					"stateMutability": "view",
					"type": "function"
				},
				{
					"inputs": [],
					"name": "i6",
					"outputs": [
						{
							"internalType": "uint256",
							"name": "",
							"type": "uint256"
						}
					],
					"stateMutability": "view",
					"type": "function"
				},
				{
					"inputs": [],
					"name": "i7",
					"outputs": [
						{
							"internalType": "uint256",
							"name": "",
							"type": "uint256"
						}
					],
					"stateMutability": "view",
					"type": "function"
				},
				{
					"inputs": [],
					"name": "i8",
					"outputs": [
						{
							"internalType": "int256",
							"name": "",
							"type": "int256"
						}
					],
					"stateMutability": "view",
					"type": "function"
				},
				{
					"inputs": [],
					"name": "i9",
					"outputs": [
						{
							"internalType": "int256",
							"name": "",
							"type": "int256"
						}
					],
					"stateMutability": "view",
					"type": "function"
				},
				{
					"inputs": [],
					"name": "max",
					"outputs": [
						{
							"internalType": "uint256",
							"name": "",
							"type": "uint256"
						}
					],
					"stateMutability": "view",
					"type": "function"
				},
				{
					"inputs": [],
					"name": "maxI8",
					"outputs": [
						{
							"internalType": "int8",
							"name": "",
							"type": "int8"
						}
					],
					"stateMutability": "view",
					"type": "function"
				},
				{
					"inputs": [],
					"name": "min",
					"outputs": [
						{
							"internalType": "uint256",
							"name": "",
							"type": "uint256"
						}
					],
					"stateMutability": "view",
					"type": "function"
				},
				{
					"inputs": [],
					"name": "minI8",
					"outputs": [
						{
							"internalType": "int8",
							"name": "",
							"type": "int8"
						}
					],
					"stateMutability": "view",
					"type": "function"
				}
			],
			"devdoc": {
				"kind": "dev",
				"methods": {},
				"version": 1
			},
			"evm": {
				"assembly": "    /* \"chapter02/9type3.sol\":694:1785  contract type8{... */\n  mstore(0x40, 0x80)\n    /* \"chapter02/9type3.sol\":754:755  7 */\n  0x07\n    /* \"chapter02/9type3.sol\":744:755  uint i1 = 7 */\n  0x00\n  sstore\n    /* \"chapter02/9type3.sol\":849:850  1 */\n  0x01\n    /* \"chapter02/9type3.sol\":845:847  i1 */\n  sload(0x00)\n    /* \"chapter02/9type3.sol\":845:850  i1>>1 */\n  swap1\n  shr\n    /* \"chapter02/9type3.sol\":828:850  uint public i2 = i1>>1 */\n  0x01\n  sstore\n    /* \"chapter02/9type3.sol\":950:951  1 */\n  0x01\n    /* \"chapter02/9type3.sol\":946:948  i1 */\n  sload(0x00)\n    /* \"chapter02/9type3.sol\":946:951  i1<<1 */\n  swap1\n  shl\n    /* \"chapter02/9type3.sol\":929:951  uint public i3 = i1<<1 */\n  0x02\n  sstore\n    /* \"chapter02/9type3.sol\":1003:1007  2**1 */\n  0x02\n    /* \"chapter02/9type3.sol\":1000:1002  i1 */\n  sload(0x00)\n    /* \"chapter02/9type3.sol\":1000:1007  i1/2**1 */\n  tag_1\n  swap2\n  swap1\n  tag_2\n  jump\t// in\ntag_1:\n    /* \"chapter02/9type3.sol\":983:1007  uint public i4 = i1/2**1 */\n  0x03\n  sstore\n    /* \"chapter02/9type3.sol\":1059:1063  2**1 */\n  0x02\n    /* \"chapter02/9type3.sol\":1056:1058  i1 */\n  sload(0x00)\n    /* \"chapter02/9type3.sol\":1056:1063  i1*2**1 */\n  tag_3\n  swap2\n  swap1\n  tag_4\n  jump\t// in\ntag_3:\n    /* \"chapter02/9type3.sol\":1039:1063  uint public i5 = i1*2**1 */\n  0x04\n  sstore\n    /* \"chapter02/9type3.sol\":1100:1114  type(uint).max */\n  0xffffffffffffffffffffffffffffffffffffffffffffffffffffffffffffffff\n    /* \"chapter02/9type3.sol\":1081:1114  uint public max  = type(uint).max */\n  0x05\n  sstore\n    /* \"chapter02/9type3.sol\":1210:1211  1 */\n  0x01\n    /* \"chapter02/9type3.sol\":1205:1208  max */\n  sload(0x05)\n    /* \"chapter02/9type3.sol\":1205:1211  max<<1 */\n  swap1\n  shl\n    /* \"chapter02/9type3.sol\":1188:1211  uint public i6 = max<<1 */\n  0x06\n  sstore\n    /* \"chapter02/9type3.sol\":1340:1354  type(uint).min */\n  0x00\n    /* \"chapter02/9type3.sol\":1321:1354  uint public min  = type(uint).min */\n  0x07\n  sstore\n    /* \"chapter02/9type3.sol\":1388:1389  2 */\n  0x02\n    /* \"chapter02/9type3.sol\":1383:1386  min */\n  sload(0x07)\n    /* \"chapter02/9type3.sol\":1383:1389  min>>2 */\n  swap1\n  shr\n    /* \"chapter02/9type3.sol\":1366:1389  uint public i7 = min>>2 */\n  0x08\n  sstore\n    /* \"chapter02/9type3.sol\":1532:1546  type(int8).max */\n  0x7f\n    /* \"chapter02/9type3.sol\":1512:1546  int8 public maxI8 = type(int8).max */\n  0x09\n  exp(0x0100, 0x00)\n  dup2\n  sload\n  dup2\n  0xff\n  mul\n  not\n  and\n  swap1\n  dup4\n  0x00\n  signextend\n  0xff\n  and\n  mul\n  or\n  swap1\n  sstore\n  pop\n    /* \"chapter02/9type3.sol\":1586:1600  type(int8).min */\n  0xffffffffffffffffffffffffffffffffffffffffffffffffffffffffffffff80\n    /* \"chapter02/9type3.sol\":1566:1600  int8 public minI8 = type(int8).min */\n  0x09\n  exp(0x0100, 0x01)\n  dup2\n  sload\n  dup2\n  0xff\n  mul\n  not\n  and\n  swap1\n  dup4\n  0x00\n  signextend\n  0xff\n  and\n  mul\n  or\n  swap1\n  sstore\n  pop\n    /* \"chapter02/9type3.sol\":1647:1648  1 */\n  0x01\n    /* \"chapter02/9type3.sol\":1640:1645  maxI8 */\n  0x09\n  0x00\n  swap1\n  sload\n  swap1\n  0x0100\n  exp\n  swap1\n  div\n  0x00\n  signextend\n    /* \"chapter02/9type3.sol\":1640:1648  maxI8>>1 */\n  0x00\n  signextend\n  swap1\n  sar\n    /* \"chapter02/9type3.sol\":1624:1648  int public i8 = maxI8>>1 */\n  0x00\n  signextend\n  0x0a\n  sstore\n    /* \"chapter02/9type3.sol\":1691:1692  1 */\n  0x01\n    /* \"chapter02/9type3.sol\":1684:1689  maxI8 */\n  0x09\n  0x00\n  swap1\n  sload\n  swap1\n  0x0100\n  exp\n  swap1\n  div\n  0x00\n  signextend\n    /* \"chapter02/9type3.sol\":1684:1692  maxI8<<1 */\n  0x00\n  signextend\n  swap1\n  shl\n    /* \"chapter02/9type3.sol\":1668:1692  int public i9 = maxI8<<1 */\n  0x00\n  signextend\n  0x0b\n  sstore\n    /* \"chapter02/9type3.sol\":1736:1737  1 */\n  0x01\n    /* \"chapter02/9type3.sol\":1729:1734  minI8 */\n  0x09\n  0x01\n  swap1\n  sload\n  swap1\n  0x0100\n  exp\n  swap1\n  div\n  0x00\n  signextend\n    /* \"chapter02/9type3.sol\":1729:1737  minI8>>1 */\n  0x00\n  signextend\n  swap1\n  sar\n    /* \"chapter02/9type3.sol\":1712:1737  int public i10 = minI8>>1 */\n  0x00\n  signextend\n  0x0c\n  sstore\n    /* \"chapter02/9type3.sol\":1781:1782  1 */\n  0x01\n    /* \"chapter02/9type3.sol\":1774:1779  minI8 */\n  0x09\n  0x01\n  swap1\n  sload\n  swap1\n  0x0100\n  exp\n  swap1\n  div\n  0x00\n  signextend\n    /* \"chapter02/9type3.sol\":1774:1782  minI8<<1 */\n  0x00\n  signextend\n  swap1\n  shl\n    /* \"chapter02/9type3.sol\":1757:1782  int public i11 = minI8<<1 */\n  0x00\n  signextend\n  0x0d\n  sstore\n    /* \"chapter02/9type3.sol\":694:1785  contract type8{... */\n  callvalue\n  dup1\n  iszero\n  tag_5\n  jumpi\n  0x00\n  dup1\n  revert\ntag_5:\n  pop\n  jump(tag_6)\n    /* \"#utility.yul\":7:84   */\ntag_7:\n    /* \"#utility.yul\":44:51   */\n  0x00\n    /* \"#utility.yul\":73:78   */\n  dup2\n    /* \"#utility.yul\":62:78   */\n  swap1\n  pop\n    /* \"#utility.yul\":7:84   */\n  swap2\n  swap1\n  pop\n  jump\t// out\n    /* \"#utility.yul\":90:270   */\ntag_8:\n    /* \"#utility.yul\":138:215   */\n  0x4e487b7100000000000000000000000000000000000000000000000000000000\n    /* \"#utility.yul\":135:136   */\n  0x00\n    /* \"#utility.yul\":128:216   */\n  mstore\n    /* \"#utility.yul\":235:239   */\n  0x12\n    /* \"#utility.yul\":232:233   */\n  0x04\n    /* \"#utility.yul\":225:240   */\n  mstore\n    /* \"#utility.yul\":259:263   */\n  0x24\n    /* \"#utility.yul\":256:257   */\n  0x00\n    /* \"#utility.yul\":249:264   */\n  revert\n    /* \"#utility.yul\":276:456   */\ntag_9:\n    /* \"#utility.yul\":324:401   */\n  0x4e487b7100000000000000000000000000000000000000000000000000000000\n    /* \"#utility.yul\":321:322   */\n  0x00\n    /* \"#utility.yul\":314:402   */\n  mstore\n    /* \"#utility.yul\":421:425   */\n  0x11\n    /* \"#utility.yul\":418:419   */\n  0x04\n    /* \"#utility.yul\":411:426   */\n  mstore\n    /* \"#utility.yul\":445:449   */\n  0x24\n    /* \"#utility.yul\":442:443   */\n  0x00\n    /* \"#utility.yul\":435:450   */\n  revert\n    /* \"#utility.yul\":462:647   */\ntag_2:\n    /* \"#utility.yul\":502:503   */\n  0x00\n    /* \"#utility.yul\":519:539   */\n  tag_15\n    /* \"#utility.yul\":537:538   */\n  dup3\n    /* \"#utility.yul\":519:539   */\n  tag_7\n  jump\t// in\ntag_15:\n    /* \"#utility.yul\":514:539   */\n  swap2\n  pop\n    /* \"#utility.yul\":553:573   */\n  tag_16\n    /* \"#utility.yul\":571:572   */\n  dup4\n    /* \"#utility.yul\":553:573   */\n  tag_7\n  jump\t// in\ntag_16:\n    /* \"#utility.yul\":548:573   */\n  swap3\n  pop\n    /* \"#utility.yul\":592:593   */\n  dup3\n    /* \"#utility.yul\":582:617   */\n  tag_17\n  jumpi\n    /* \"#utility.yul\":597:615   */\n  tag_18\n  tag_8\n  jump\t// in\ntag_18:\n    /* \"#utility.yul\":582:617   */\ntag_17:\n    /* \"#utility.yul\":639:640   */\n  dup3\n    /* \"#utility.yul\":636:637   */\n  dup3\n    /* \"#utility.yul\":632:641   */\n  div\n    /* \"#utility.yul\":627:641   */\n  swap1\n  pop\n    /* \"#utility.yul\":462:647   */\n  swap3\n  swap2\n  pop\n  pop\n  jump\t// out\n    /* \"#utility.yul\":653:1001   */\ntag_4:\n    /* \"#utility.yul\":693:700   */\n  0x00\n    /* \"#utility.yul\":716:736   */\n  tag_20\n    /* \"#utility.yul\":734:735   */\n  dup3\n    /* \"#utility.yul\":716:736   */\n  tag_7\n  jump\t// in\ntag_20:\n    /* \"#utility.yul\":711:736   */\n  swap2\n  pop\n    /* \"#utility.yul\":750:770   */\n  tag_21\n    /* \"#utility.yul\":768:769   */\n  dup4\n    /* \"#utility.yul\":750:770   */\n  tag_7\n  jump\t// in\ntag_21:\n    /* \"#utility.yul\":745:770   */\n  swap3\n  pop\n    /* \"#utility.yul\":938:939   */\n  dup2\n    /* \"#utility.yul\":870:936   */\n  0xffffffffffffffffffffffffffffffffffffffffffffffffffffffffffffffff\n    /* \"#utility.yul\":866:940   */\n  div\n    /* \"#utility.yul\":863:864   */\n  dup4\n    /* \"#utility.yul\":860:941   */\n  gt\n    /* \"#utility.yul\":855:856   */\n  dup3\n    /* \"#utility.yul\":848:857   */\n  iszero\n    /* \"#utility.yul\":841:858   */\n  iszero\n    /* \"#utility.yul\":837:942   */\n  and\n    /* \"#utility.yul\":834:965   */\n  iszero\n  tag_22\n  jumpi\n    /* \"#utility.yul\":945:963   */\n  tag_23\n  tag_9\n  jump\t// in\ntag_23:\n    /* \"#utility.yul\":834:965   */\ntag_22:\n    /* \"#utility.yul\":993:994   */\n  dup3\n    /* \"#utility.yul\":990:991   */\n  dup3\n    /* \"#utility.yul\":986:995   */\n  mul\n    /* \"#utility.yul\":975:995   */\n  swap1\n  pop\n    /* \"#utility.yul\":653:1001   */\n  swap3\n  swap2\n  pop\n  pop\n  jump\t// out\n    /* \"chapter02/9type3.sol\":694:1785  contract type8{... */\ntag_6:\n  dataSize(sub_0)\n  dup1\n  dataOffset(sub_0)\n  0x00\n  codecopy\n  0x00\n  return\nstop\n\nsub_0: assembly {\n        /* \"chapter02/9type3.sol\":694:1785  contract type8{... */\n      mstore(0x40, 0x80)\n      callvalue\n      dup1\n      iszero\n      tag_1\n      jumpi\n      0x00\n      dup1\n      revert\n    tag_1:\n      pop\n      jumpi(tag_2, lt(calldatasize, 0x04))\n      shr(0xe0, calldataload(0x00))\n      dup1\n      0x83cdfab8\n      gt\n      tag_17\n      jumpi\n      dup1\n      0xa0792ba7\n      gt\n      tag_18\n      jumpi\n      dup1\n      0xa0792ba7\n      eq\n      tag_13\n      jumpi\n      dup1\n      0xe0ad7eec\n      eq\n      tag_14\n      jumpi\n      dup1\n      0xf5280c9c\n      eq\n      tag_15\n      jumpi\n      dup1\n      0xf8897945\n      eq\n      tag_16\n      jumpi\n      jump(tag_2)\n    tag_18:\n      dup1\n      0x83cdfab8\n      eq\n      tag_10\n      jumpi\n      dup1\n      0x921cda74\n      eq\n      tag_11\n      jumpi\n      dup1\n      0x9965a901\n      eq\n      tag_12\n      jumpi\n      jump(tag_2)\n    tag_17:\n      dup1\n      0x29031ac2\n      gt\n      tag_19\n      jumpi\n      dup1\n      0x29031ac2\n      eq\n      tag_6\n      jumpi\n      dup1\n      0x541b5300\n      eq\n      tag_7\n      jumpi\n      dup1\n      0x6ac5db19\n      eq\n      tag_8\n      jumpi\n      dup1\n      0x72539bf9\n      eq\n      tag_9\n      jumpi\n      jump(tag_2)\n    tag_19:\n      dup1\n      0x07029437\n      eq\n      tag_3\n      jumpi\n      dup1\n      0x0b39ecdb\n      eq\n      tag_4\n      jumpi\n      dup1\n      0x1d922ce3\n      eq\n      tag_5\n      jumpi\n    tag_2:\n      0x00\n      dup1\n      revert\n        /* \"chapter02/9type3.sol\":1566:1600  int8 public minI8 = type(int8).min */\n    tag_3:\n      tag_20\n      tag_21\n      jump\t// in\n    tag_20:\n      mload(0x40)\n      tag_22\n      swap2\n      swap1\n      tag_23\n      jump\t// in\n    tag_22:\n      mload(0x40)\n      dup1\n      swap2\n      sub\n      swap1\n      return\n        /* \"chapter02/9type3.sol\":1512:1546  int8 public maxI8 = type(int8).max */\n    tag_4:\n      tag_24\n      tag_25\n      jump\t// in\n    tag_24:\n      mload(0x40)\n      tag_26\n      swap2\n      swap1\n      tag_23\n      jump\t// in\n    tag_26:\n      mload(0x40)\n      dup1\n      swap2\n      sub\n      swap1\n      return\n        /* \"chapter02/9type3.sol\":1668:1692  int public i9 = maxI8<<1 */\n    tag_5:\n      tag_27\n      tag_28\n      jump\t// in\n    tag_27:\n      mload(0x40)\n      tag_29\n      swap2\n      swap1\n      tag_30\n      jump\t// in\n    tag_29:\n      mload(0x40)\n      dup1\n      swap2\n      sub\n      swap1\n      return\n        /* \"chapter02/9type3.sol\":983:1007  uint public i4 = i1/2**1 */\n    tag_6:\n      tag_31\n      tag_32\n      jump\t// in\n    tag_31:\n      mload(0x40)\n      tag_33\n      swap2\n      swap1\n      tag_34\n      jump\t// in\n    tag_33:\n      mload(0x40)\n      dup1\n      swap2\n      sub\n      swap1\n      return\n        /* \"chapter02/9type3.sol\":1712:1737  int public i10 = minI8>>1 */\n    tag_7:\n      tag_35\n      tag_36\n      jump\t// in\n    tag_35:\n      mload(0x40)\n      tag_37\n      swap2\n      swap1\n      tag_30\n      jump\t// in\n    tag_37:\n      mload(0x40)\n      dup1\n      swap2\n      sub\n      swap1\n      return\n        /* \"chapter02/9type3.sol\":1081:1114  uint public max  = type(uint).max */\n    tag_8:\n      tag_38\n      tag_39\n      jump\t// in\n    tag_38:\n      mload(0x40)\n      tag_40\n      swap2\n      swap1\n      tag_34\n      jump\t// in\n    tag_40:\n      mload(0x40)\n      dup1\n      swap2\n      sub\n      swap1\n      return\n        /* \"chapter02/9type3.sol\":1366:1389  uint public i7 = min>>2 */\n    tag_9:\n      tag_41\n      tag_42\n      jump\t// in\n    tag_41:\n      mload(0x40)\n      tag_43\n      swap2\n      swap1\n      tag_34\n      jump\t// in\n    tag_43:\n      mload(0x40)\n      dup1\n      swap2\n      sub\n      swap1\n      return\n        /* \"chapter02/9type3.sol\":828:850  uint public i2 = i1>>1 */\n    tag_10:\n      tag_44\n      tag_45\n      jump\t// in\n    tag_44:\n      mload(0x40)\n      tag_46\n      swap2\n      swap1\n      tag_34\n      jump\t// in\n    tag_46:\n      mload(0x40)\n      dup1\n      swap2\n      sub\n      swap1\n      return\n        /* \"chapter02/9type3.sol\":1624:1648  int public i8 = maxI8>>1 */\n    tag_11:\n      tag_47\n      tag_48\n      jump\t// in\n    tag_47:\n      mload(0x40)\n      tag_49\n      swap2\n      swap1\n      tag_30\n      jump\t// in\n    tag_49:\n      mload(0x40)\n      dup1\n      swap2\n      sub\n      swap1\n      return\n        /* \"chapter02/9type3.sol\":1757:1782  int public i11 = minI8<<1 */\n    tag_12:\n      tag_50\n      tag_51\n      jump\t// in\n    tag_50:\n      mload(0x40)\n      tag_52\n      swap2\n      swap1\n      tag_30\n      jump\t// in\n    tag_52:\n      mload(0x40)\n      dup1\n      swap2\n      sub\n      swap1\n      return\n        /* \"chapter02/9type3.sol\":929:951  uint public i3 = i1<<1 */\n    tag_13:\n      tag_53\n      tag_54\n      jump\t// in\n    tag_53:\n      mload(0x40)\n      tag_55\n      swap2\n      swap1\n      tag_34\n      jump\t// in\n    tag_55:\n      mload(0x40)\n      dup1\n      swap2\n      sub\n      swap1\n      return\n        /* \"chapter02/9type3.sol\":1039:1063  uint public i5 = i1*2**1 */\n    tag_14:\n      tag_56\n      tag_57\n      jump\t// in\n    tag_56:\n      mload(0x40)\n      tag_58\n      swap2\n      swap1\n      tag_34\n      jump\t// in\n    tag_58:\n      mload(0x40)\n      dup1\n      swap2\n      sub\n      swap1\n      return\n        /* \"chapter02/9type3.sol\":1188:1211  uint public i6 = max<<1 */\n    tag_15:\n      tag_59\n      tag_60\n      jump\t// in\n    tag_59:\n      mload(0x40)\n      tag_61\n      swap2\n      swap1\n      tag_34\n      jump\t// in\n    tag_61:\n      mload(0x40)\n      dup1\n      swap2\n      sub\n      swap1\n      return\n        /* \"chapter02/9type3.sol\":1321:1354  uint public min  = type(uint).min */\n    tag_16:\n      tag_62\n      tag_63\n      jump\t// in\n    tag_62:\n      mload(0x40)\n      tag_64\n      swap2\n      swap1\n      tag_34\n      jump\t// in\n    tag_64:\n      mload(0x40)\n      dup1\n      swap2\n      sub\n      swap1\n      return\n        /* \"chapter02/9type3.sol\":1566:1600  int8 public minI8 = type(int8).min */\n    tag_21:\n      0x09\n      0x01\n      swap1\n      sload\n      swap1\n      0x0100\n      exp\n      swap1\n      div\n      0x00\n      signextend\n      dup2\n      jump\t// out\n        /* \"chapter02/9type3.sol\":1512:1546  int8 public maxI8 = type(int8).max */\n    tag_25:\n      0x09\n      0x00\n      swap1\n      sload\n      swap1\n      0x0100\n      exp\n      swap1\n      div\n      0x00\n      signextend\n      dup2\n      jump\t// out\n        /* \"chapter02/9type3.sol\":1668:1692  int public i9 = maxI8<<1 */\n    tag_28:\n      sload(0x0b)\n      dup2\n      jump\t// out\n        /* \"chapter02/9type3.sol\":983:1007  uint public i4 = i1/2**1 */\n    tag_32:\n      sload(0x03)\n      dup2\n      jump\t// out\n        /* \"chapter02/9type3.sol\":1712:1737  int public i10 = minI8>>1 */\n    tag_36:\n      sload(0x0c)\n      dup2\n      jump\t// out\n        /* \"chapter02/9type3.sol\":1081:1114  uint public max  = type(uint).max */\n    tag_39:\n      sload(0x05)\n      dup2\n      jump\t// out\n        /* \"chapter02/9type3.sol\":1366:1389  uint public i7 = min>>2 */\n    tag_42:\n      sload(0x08)\n      dup2\n      jump\t// out\n        /* \"chapter02/9type3.sol\":828:850  uint public i2 = i1>>1 */\n    tag_45:\n      sload(0x01)\n      dup2\n      jump\t// out\n        /* \"chapter02/9type3.sol\":1624:1648  int public i8 = maxI8>>1 */\n    tag_48:\n      sload(0x0a)\n      dup2\n      jump\t// out\n        /* \"chapter02/9type3.sol\":1757:1782  int public i11 = minI8<<1 */\n    tag_51:\n      sload(0x0d)\n      dup2\n      jump\t// out\n        /* \"chapter02/9type3.sol\":929:951  uint public i3 = i1<<1 */\n    tag_54:\n      sload(0x02)\n      dup2\n      jump\t// out\n        /* \"chapter02/9type3.sol\":1039:1063  uint public i5 = i1*2**1 */\n    tag_57:\n      sload(0x04)\n      dup2\n      jump\t// out\n        /* \"chapter02/9type3.sol\":1188:1211  uint public i6 = max<<1 */\n    tag_60:\n      sload(0x06)\n      dup2\n      jump\t// out\n        /* \"chapter02/9type3.sol\":1321:1354  uint public min  = type(uint).min */\n    tag_63:\n      sload(0x07)\n      dup2\n      jump\t// out\n        /* \"#utility.yul\":7:96   */\n    tag_65:\n        /* \"#utility.yul\":41:48   */\n      0x00\n        /* \"#utility.yul\":84:89   */\n      dup2\n        /* \"#utility.yul\":81:82   */\n      0x00\n        /* \"#utility.yul\":70:90   */\n      signextend\n        /* \"#utility.yul\":59:90   */\n      swap1\n      pop\n        /* \"#utility.yul\":7:96   */\n      swap2\n      swap1\n      pop\n      jump\t// out\n        /* \"#utility.yul\":102:211   */\n    tag_66:\n        /* \"#utility.yul\":183:204   */\n      tag_74\n        /* \"#utility.yul\":198:203   */\n      dup2\n        /* \"#utility.yul\":183:204   */\n      tag_65\n      jump\t// in\n    tag_74:\n        /* \"#utility.yul\":178:181   */\n      dup3\n        /* \"#utility.yul\":171:205   */\n      mstore\n        /* \"#utility.yul\":102:211   */\n      pop\n      pop\n      jump\t// out\n        /* \"#utility.yul\":217:427   */\n    tag_23:\n        /* \"#utility.yul\":304:308   */\n      0x00\n        /* \"#utility.yul\":342:344   */\n      0x20\n        /* \"#utility.yul\":331:340   */\n      dup3\n        /* \"#utility.yul\":327:345   */\n      add\n        /* \"#utility.yul\":319:345   */\n      swap1\n      pop\n        /* \"#utility.yul\":355:420   */\n      tag_76\n        /* \"#utility.yul\":417:418   */\n      0x00\n        /* \"#utility.yul\":406:415   */\n      dup4\n        /* \"#utility.yul\":402:419   */\n      add\n        /* \"#utility.yul\":393:399   */\n      dup5\n        /* \"#utility.yul\":355:420   */\n      tag_66\n      jump\t// in\n    tag_76:\n        /* \"#utility.yul\":217:427   */\n      swap3\n      swap2\n      pop\n      pop\n      jump\t// out\n        /* \"#utility.yul\":433:509   */\n    tag_67:\n        /* \"#utility.yul\":469:476   */\n      0x00\n        /* \"#utility.yul\":498:503   */\n      dup2\n        /* \"#utility.yul\":487:503   */\n      swap1\n      pop\n        /* \"#utility.yul\":433:509   */\n      swap2\n      swap1\n      pop\n      jump\t// out\n        /* \"#utility.yul\":515:630   */\n    tag_68:\n        /* \"#utility.yul\":600:623   */\n      tag_79\n        /* \"#utility.yul\":617:622   */\n      dup2\n        /* \"#utility.yul\":600:623   */\n      tag_67\n      jump\t// in\n    tag_79:\n        /* \"#utility.yul\":595:598   */\n      dup3\n        /* \"#utility.yul\":588:624   */\n      mstore\n        /* \"#utility.yul\":515:630   */\n      pop\n      pop\n      jump\t// out\n        /* \"#utility.yul\":636:854   */\n    tag_30:\n        /* \"#utility.yul\":727:731   */\n      0x00\n        /* \"#utility.yul\":765:767   */\n      0x20\n        /* \"#utility.yul\":754:763   */\n      dup3\n        /* \"#utility.yul\":750:768   */\n      add\n        /* \"#utility.yul\":742:768   */\n      swap1\n      pop\n        /* \"#utility.yul\":778:847   */\n      tag_81\n        /* \"#utility.yul\":844:845   */\n      0x00\n        /* \"#utility.yul\":833:842   */\n      dup4\n        /* \"#utility.yul\":829:846   */\n      add\n        /* \"#utility.yul\":820:826   */\n      dup5\n        /* \"#utility.yul\":778:847   */\n      tag_68\n      jump\t// in\n    tag_81:\n        /* \"#utility.yul\":636:854   */\n      swap3\n      swap2\n      pop\n      pop\n      jump\t// out\n        /* \"#utility.yul\":860:937   */\n    tag_69:\n        /* \"#utility.yul\":897:904   */\n      0x00\n        /* \"#utility.yul\":926:931   */\n      dup2\n        /* \"#utility.yul\":915:931   */\n      swap1\n      pop\n        /* \"#utility.yul\":860:937   */\n      swap2\n      swap1\n      pop\n      jump\t// out\n        /* \"#utility.yul\":943:1061   */\n    tag_70:\n        /* \"#utility.yul\":1030:1054   */\n      tag_84\n        /* \"#utility.yul\":1048:1053   */\n      dup2\n        /* \"#utility.yul\":1030:1054   */\n      tag_69\n      jump\t// in\n    tag_84:\n        /* \"#utility.yul\":1025:1028   */\n      dup3\n        /* \"#utility.yul\":1018:1055   */\n      mstore\n        /* \"#utility.yul\":943:1061   */\n      pop\n      pop\n      jump\t// out\n        /* \"#utility.yul\":1067:1289   */\n    tag_34:\n        /* \"#utility.yul\":1160:1164   */\n      0x00\n        /* \"#utility.yul\":1198:1200   */\n      0x20\n        /* \"#utility.yul\":1187:1196   */\n      dup3\n        /* \"#utility.yul\":1183:1201   */\n      add\n        /* \"#utility.yul\":1175:1201   */\n      swap1\n      pop\n        /* \"#utility.yul\":1211:1282   */\n      tag_86\n        /* \"#utility.yul\":1279:1280   */\n      0x00\n        /* \"#utility.yul\":1268:1277   */\n      dup4\n        /* \"#utility.yul\":1264:1281   */\n      add\n        /* \"#utility.yul\":1255:1261   */\n      dup5\n        /* \"#utility.yul\":1211:1282   */\n      tag_70\n      jump\t// in\n    tag_86:\n        /* \"#utility.yul\":1067:1289   */\n      swap3\n      swap2\n      pop\n      pop\n      jump\t// out\n\n    auxdata: 0xa2646970667358221220cf5c67f8dba424fafd35882bba8f13230bff41ea7756a745e9ce62f59ade88d664736f6c634300080f0033\n}\n",
				"bytecode": {
					"linkReferences": {},
					"object": "608060405260076000556001600054901c6001556001600054901b600255600260005461002c91906101c9565b600355600260005461003e91906101fa565b6004557fffffffffffffffffffffffffffffffffffffffffffffffffffffffffffffffff6005556001600554901b60065560006007556002600754901c600855607f600960006101000a81548160ff021916908360000b60ff1602179055507fffffffffffffffffffffffffffffffffffffffffffffffffffffffffffffff80600960016101000a81548160ff021916908360000b60ff1602179055506001600960009054906101000a900460000b60000b901d60000b600a556001600960009054906101000a900460000b60000b901b60000b600b556001600960019054906101000a900460000b60000b901d60000b600c556001600960019054906101000a900460000b60000b901b60000b600d5534801561015b57600080fd5b50610254565b6000819050919050565b7f4e487b7100000000000000000000000000000000000000000000000000000000600052601260045260246000fd5b7f4e487b7100000000000000000000000000000000000000000000000000000000600052601160045260246000fd5b60006101d482610161565b91506101df83610161565b9250826101ef576101ee61016b565b5b828204905092915050565b600061020582610161565b915061021083610161565b9250817fffffffffffffffffffffffffffffffffffffffffffffffffffffffffffffffff04831182151516156102495761024861019a565b5b828202905092915050565b6103d6806102636000396000f3fe608060405234801561001057600080fd5b50600436106100ea5760003560e01c806383cdfab81161008c578063a0792ba711610066578063a0792ba71461021b578063e0ad7eec14610239578063f5280c9c14610257578063f889794514610275576100ea565b806383cdfab8146101c1578063921cda74146101df5780639965a901146101fd576100ea565b806329031ac2116100c857806329031ac214610149578063541b5300146101675780636ac5db191461018557806372539bf9146101a3576100ea565b806307029437146100ef5780630b39ecdb1461010d5780631d922ce31461012b575b600080fd5b6100f7610293565b604051610104919061031d565b60405180910390f35b6101156102a6565b604051610122919061031d565b60405180910390f35b6101336102b9565b6040516101409190610351565b60405180910390f35b6101516102bf565b60405161015e9190610385565b60405180910390f35b61016f6102c5565b60405161017c9190610351565b60405180910390f35b61018d6102cb565b60405161019a9190610385565b60405180910390f35b6101ab6102d1565b6040516101b89190610385565b60405180910390f35b6101c96102d7565b6040516101d69190610385565b60405180910390f35b6101e76102dd565b6040516101f49190610351565b60405180910390f35b6102056102e3565b6040516102129190610351565b60405180910390f35b6102236102e9565b6040516102309190610385565b60405180910390f35b6102416102ef565b60405161024e9190610385565b60405180910390f35b61025f6102f5565b60405161026c9190610385565b60405180910390f35b61027d6102fb565b60405161028a9190610385565b60405180910390f35b600960019054906101000a900460000b81565b600960009054906101000a900460000b81565b600b5481565b60035481565b600c5481565b60055481565b60085481565b60015481565b600a5481565b600d5481565b60025481565b60045481565b60065481565b60075481565b60008160000b9050919050565b61031781610301565b82525050565b6000602082019050610332600083018461030e565b92915050565b6000819050919050565b61034b81610338565b82525050565b60006020820190506103666000830184610342565b92915050565b6000819050919050565b61037f8161036c565b82525050565b600060208201905061039a6000830184610376565b9291505056fea2646970667358221220cf5c67f8dba424fafd35882bba8f13230bff41ea7756a745e9ce62f59ade88d664736f6c634300080f0033",
					"opcodes": "PUSH1 0x80 PUSH1 0x40 MSTORE PUSH1 0x7 PUSH1 0x0 SSTORE PUSH1 0x1 PUSH1 0x0 SLOAD SWAP1 SHR PUSH1 0x1 SSTORE PUSH1 0x1 PUSH1 0x0 SLOAD SWAP1 SHL PUSH1 0x2 SSTORE PUSH1 0x2 PUSH1 0x0 SLOAD PUSH2 0x2C SWAP2 SWAP1 PUSH2 0x1C9 JUMP JUMPDEST PUSH1 0x3 SSTORE PUSH1 0x2 PUSH1 0x0 SLOAD PUSH2 0x3E SWAP2 SWAP1 PUSH2 0x1FA JUMP JUMPDEST PUSH1 0x4 SSTORE PUSH32 0xFFFFFFFFFFFFFFFFFFFFFFFFFFFFFFFFFFFFFFFFFFFFFFFFFFFFFFFFFFFFFFFF PUSH1 0x5 SSTORE PUSH1 0x1 PUSH1 0x5 SLOAD SWAP1 SHL PUSH1 0x6 SSTORE PUSH1 0x0 PUSH1 0x7 SSTORE PUSH1 0x2 PUSH1 0x7 SLOAD SWAP1 SHR PUSH1 0x8 SSTORE PUSH1 0x7F PUSH1 0x9 PUSH1 0x0 PUSH2 0x100 EXP DUP2 SLOAD DUP2 PUSH1 0xFF MUL NOT AND SWAP1 DUP4 PUSH1 0x0 SIGNEXTEND PUSH1 0xFF AND MUL OR SWAP1 SSTORE POP PUSH32 0xFFFFFFFFFFFFFFFFFFFFFFFFFFFFFFFFFFFFFFFFFFFFFFFFFFFFFFFFFFFFFF80 PUSH1 0x9 PUSH1 0x1 PUSH2 0x100 EXP DUP2 SLOAD DUP2 PUSH1 0xFF MUL NOT AND SWAP1 DUP4 PUSH1 0x0 SIGNEXTEND PUSH1 0xFF AND MUL OR SWAP1 SSTORE POP PUSH1 0x1 PUSH1 0x9 PUSH1 0x0 SWAP1 SLOAD SWAP1 PUSH2 0x100 EXP SWAP1 DIV PUSH1 0x0 SIGNEXTEND PUSH1 0x0 SIGNEXTEND SWAP1 SAR PUSH1 0x0 SIGNEXTEND PUSH1 0xA SSTORE PUSH1 0x1 PUSH1 0x9 PUSH1 0x0 SWAP1 SLOAD SWAP1 PUSH2 0x100 EXP SWAP1 DIV PUSH1 0x0 SIGNEXTEND PUSH1 0x0 SIGNEXTEND SWAP1 SHL PUSH1 0x0 SIGNEXTEND PUSH1 0xB SSTORE PUSH1 0x1 PUSH1 0x9 PUSH1 0x1 SWAP1 SLOAD SWAP1 PUSH2 0x100 EXP SWAP1 DIV PUSH1 0x0 SIGNEXTEND PUSH1 0x0 SIGNEXTEND SWAP1 SAR PUSH1 0x0 SIGNEXTEND PUSH1 0xC SSTORE PUSH1 0x1 PUSH1 0x9 PUSH1 0x1 SWAP1 SLOAD SWAP1 PUSH2 0x100 EXP SWAP1 DIV PUSH1 0x0 SIGNEXTEND PUSH1 0x0 SIGNEXTEND SWAP1 SHL PUSH1 0x0 SIGNEXTEND PUSH1 0xD SSTORE CALLVALUE DUP1 ISZERO PUSH2 0x15B JUMPI PUSH1 0x0 DUP1 REVERT JUMPDEST POP PUSH2 0x254 JUMP JUMPDEST PUSH1 0x0 DUP2 SWAP1 POP SWAP2 SWAP1 POP JUMP JUMPDEST PUSH32 0x4E487B7100000000000000000000000000000000000000000000000000000000 PUSH1 0x0 MSTORE PUSH1 0x12 PUSH1 0x4 MSTORE PUSH1 0x24 PUSH1 0x0 REVERT JUMPDEST PUSH32 0x4E487B7100000000000000000000000000000000000000000000000000000000 PUSH1 0x0 MSTORE PUSH1 0x11 PUSH1 0x4 MSTORE PUSH1 0x24 PUSH1 0x0 REVERT JUMPDEST PUSH1 0x0 PUSH2 0x1D4 DUP3 PUSH2 0x161 JUMP JUMPDEST SWAP2 POP PUSH2 0x1DF DUP4 PUSH2 0x161 JUMP JUMPDEST SWAP3 POP DUP3 PUSH2 0x1EF JUMPI PUSH2 0x1EE PUSH2 0x16B JUMP JUMPDEST JUMPDEST DUP3 DUP3 DIV SWAP1 POP SWAP3 SWAP2 POP POP JUMP JUMPDEST PUSH1 0x0 PUSH2 0x205 DUP3 PUSH2 0x161 JUMP JUMPDEST SWAP2 POP PUSH2 0x210 DUP4 PUSH2 0x161 JUMP JUMPDEST SWAP3 POP DUP2 PUSH32 0xFFFFFFFFFFFFFFFFFFFFFFFFFFFFFFFFFFFFFFFFFFFFFFFFFFFFFFFFFFFFFFFF DIV DUP4 GT DUP3 ISZERO ISZERO AND ISZERO PUSH2 0x249 JUMPI PUSH2 0x248 PUSH2 0x19A JUMP JUMPDEST JUMPDEST DUP3 DUP3 MUL SWAP1 POP SWAP3 SWAP2 POP POP JUMP JUMPDEST PUSH2 0x3D6 DUP1 PUSH2 0x263 PUSH1 0x0 CODECOPY PUSH1 0x0 RETURN INVALID PUSH1 0x80 PUSH1 0x40 MSTORE CALLVALUE DUP1 ISZERO PUSH2 0x10 JUMPI PUSH1 0x0 DUP1 REVERT JUMPDEST POP PUSH1 0x4 CALLDATASIZE LT PUSH2 0xEA JUMPI PUSH1 0x0 CALLDATALOAD PUSH1 0xE0 SHR DUP1 PUSH4 0x83CDFAB8 GT PUSH2 0x8C JUMPI DUP1 PUSH4 0xA0792BA7 GT PUSH2 0x66 JUMPI DUP1 PUSH4 0xA0792BA7 EQ PUSH2 0x21B JUMPI DUP1 PUSH4 0xE0AD7EEC EQ PUSH2 0x239 JUMPI DUP1 PUSH4 0xF5280C9C EQ PUSH2 0x257 JUMPI DUP1 PUSH4 0xF8897945 EQ PUSH2 0x275 JUMPI PUSH2 0xEA JUMP JUMPDEST DUP1 PUSH4 0x83CDFAB8 EQ PUSH2 0x1C1 JUMPI DUP1 PUSH4 0x921CDA74 EQ PUSH2 0x1DF JUMPI DUP1 PUSH4 0x9965A901 EQ PUSH2 0x1FD JUMPI PUSH2 0xEA JUMP JUMPDEST DUP1 PUSH4 0x29031AC2 GT PUSH2 0xC8 JUMPI DUP1 PUSH4 0x29031AC2 EQ PUSH2 0x149 JUMPI DUP1 PUSH4 0x541B5300 EQ PUSH2 0x167 JUMPI DUP1 PUSH4 0x6AC5DB19 EQ PUSH2 0x185 JUMPI DUP1 PUSH4 0x72539BF9 EQ PUSH2 0x1A3 JUMPI PUSH2 0xEA JUMP JUMPDEST DUP1 PUSH4 0x7029437 EQ PUSH2 0xEF JUMPI DUP1 PUSH4 0xB39ECDB EQ PUSH2 0x10D JUMPI DUP1 PUSH4 0x1D922CE3 EQ PUSH2 0x12B JUMPI JUMPDEST PUSH1 0x0 DUP1 REVERT JUMPDEST PUSH2 0xF7 PUSH2 0x293 JUMP JUMPDEST PUSH1 0x40 MLOAD PUSH2 0x104 SWAP2 SWAP1 PUSH2 0x31D JUMP JUMPDEST PUSH1 0x40 MLOAD DUP1 SWAP2 SUB SWAP1 RETURN JUMPDEST PUSH2 0x115 PUSH2 0x2A6 JUMP JUMPDEST PUSH1 0x40 MLOAD PUSH2 0x122 SWAP2 SWAP1 PUSH2 0x31D JUMP JUMPDEST PUSH1 0x40 MLOAD DUP1 SWAP2 SUB SWAP1 RETURN JUMPDEST PUSH2 0x133 PUSH2 0x2B9 JUMP JUMPDEST PUSH1 0x40 MLOAD PUSH2 0x140 SWAP2 SWAP1 PUSH2 0x351 JUMP JUMPDEST PUSH1 0x40 MLOAD DUP1 SWAP2 SUB SWAP1 RETURN JUMPDEST PUSH2 0x151 PUSH2 0x2BF JUMP JUMPDEST PUSH1 0x40 MLOAD PUSH2 0x15E SWAP2 SWAP1 PUSH2 0x385 JUMP JUMPDEST PUSH1 0x40 MLOAD DUP1 SWAP2 SUB SWAP1 RETURN JUMPDEST PUSH2 0x16F PUSH2 0x2C5 JUMP JUMPDEST PUSH1 0x40 MLOAD PUSH2 0x17C SWAP2 SWAP1 PUSH2 0x351 JUMP JUMPDEST PUSH1 0x40 MLOAD DUP1 SWAP2 SUB SWAP1 RETURN JUMPDEST PUSH2 0x18D PUSH2 0x2CB JUMP JUMPDEST PUSH1 0x40 MLOAD PUSH2 0x19A SWAP2 SWAP1 PUSH2 0x385 JUMP JUMPDEST PUSH1 0x40 MLOAD DUP1 SWAP2 SUB SWAP1 RETURN JUMPDEST PUSH2 0x1AB PUSH2 0x2D1 JUMP JUMPDEST PUSH1 0x40 MLOAD PUSH2 0x1B8 SWAP2 SWAP1 PUSH2 0x385 JUMP JUMPDEST PUSH1 0x40 MLOAD DUP1 SWAP2 SUB SWAP1 RETURN JUMPDEST PUSH2 0x1C9 PUSH2 0x2D7 JUMP JUMPDEST PUSH1 0x40 MLOAD PUSH2 0x1D6 SWAP2 SWAP1 PUSH2 0x385 JUMP JUMPDEST PUSH1 0x40 MLOAD DUP1 SWAP2 SUB SWAP1 RETURN JUMPDEST PUSH2 0x1E7 PUSH2 0x2DD JUMP JUMPDEST PUSH1 0x40 MLOAD PUSH2 0x1F4 SWAP2 SWAP1 PUSH2 0x351 JUMP JUMPDEST PUSH1 0x40 MLOAD DUP1 SWAP2 SUB SWAP1 RETURN JUMPDEST PUSH2 0x205 PUSH2 0x2E3 JUMP JUMPDEST PUSH1 0x40 MLOAD PUSH2 0x212 SWAP2 SWAP1 PUSH2 0x351 JUMP JUMPDEST PUSH1 0x40 MLOAD DUP1 SWAP2 SUB SWAP1 RETURN JUMPDEST PUSH2 0x223 PUSH2 0x2E9 JUMP JUMPDEST PUSH1 0x40 MLOAD PUSH2 0x230 SWAP2 SWAP1 PUSH2 0x385 JUMP JUMPDEST PUSH1 0x40 MLOAD DUP1 SWAP2 SUB SWAP1 RETURN JUMPDEST PUSH2 0x241 PUSH2 0x2EF JUMP JUMPDEST PUSH1 0x40 MLOAD PUSH2 0x24E SWAP2 SWAP1 PUSH2 0x385 JUMP JUMPDEST PUSH1 0x40 MLOAD DUP1 SWAP2 SUB SWAP1 RETURN JUMPDEST PUSH2 0x25F PUSH2 0x2F5 JUMP JUMPDEST PUSH1 0x40 MLOAD PUSH2 0x26C SWAP2 SWAP1 PUSH2 0x385 JUMP JUMPDEST PUSH1 0x40 MLOAD DUP1 SWAP2 SUB SWAP1 RETURN JUMPDEST PUSH2 0x27D PUSH2 0x2FB JUMP JUMPDEST PUSH1 0x40 MLOAD PUSH2 0x28A SWAP2 SWAP1 PUSH2 0x385 JUMP JUMPDEST PUSH1 0x40 MLOAD DUP1 SWAP2 SUB SWAP1 RETURN JUMPDEST PUSH1 0x9 PUSH1 0x1 SWAP1 SLOAD SWAP1 PUSH2 0x100 EXP SWAP1 DIV PUSH1 0x0 SIGNEXTEND DUP2 JUMP JUMPDEST PUSH1 0x9 PUSH1 0x0 SWAP1 SLOAD SWAP1 PUSH2 0x100 EXP SWAP1 DIV PUSH1 0x0 SIGNEXTEND DUP2 JUMP JUMPDEST PUSH1 0xB SLOAD DUP2 JUMP JUMPDEST PUSH1 0x3 SLOAD DUP2 JUMP JUMPDEST PUSH1 0xC SLOAD DUP2 JUMP JUMPDEST PUSH1 0x5 SLOAD DUP2 JUMP JUMPDEST PUSH1 0x8 SLOAD DUP2 JUMP JUMPDEST PUSH1 0x1 SLOAD DUP2 JUMP JUMPDEST PUSH1 0xA SLOAD DUP2 JUMP JUMPDEST PUSH1 0xD SLOAD DUP2 JUMP JUMPDEST PUSH1 0x2 SLOAD DUP2 JUMP JUMPDEST PUSH1 0x4 SLOAD DUP2 JUMP JUMPDEST PUSH1 0x6 SLOAD DUP2 JUMP JUMPDEST PUSH1 0x7 SLOAD DUP2 JUMP JUMPDEST PUSH1 0x0 DUP2 PUSH1 0x0 SIGNEXTEND SWAP1 POP SWAP2 SWAP1 POP JUMP JUMPDEST PUSH2 0x317 DUP2 PUSH2 0x301 JUMP JUMPDEST DUP3 MSTORE POP POP JUMP JUMPDEST PUSH1 0x0 PUSH1 0x20 DUP3 ADD SWAP1 POP PUSH2 0x332 PUSH1 0x0 DUP4 ADD DUP5 PUSH2 0x30E JUMP JUMPDEST SWAP3 SWAP2 POP POP JUMP JUMPDEST PUSH1 0x0 DUP2 SWAP1 POP SWAP2 SWAP1 POP JUMP JUMPDEST PUSH2 0x34B DUP2 PUSH2 0x338 JUMP JUMPDEST DUP3 MSTORE POP POP JUMP JUMPDEST PUSH1 0x0 PUSH1 0x20 DUP3 ADD SWAP1 POP PUSH2 0x366 PUSH1 0x0 DUP4 ADD DUP5 PUSH2 0x342 JUMP JUMPDEST SWAP3 SWAP2 POP POP JUMP JUMPDEST PUSH1 0x0 DUP2 SWAP1 POP SWAP2 SWAP1 POP JUMP JUMPDEST PUSH2 0x37F DUP2 PUSH2 0x36C JUMP JUMPDEST DUP3 MSTORE POP POP JUMP JUMPDEST PUSH1 0x0 PUSH1 0x20 DUP3 ADD SWAP1 POP PUSH2 0x39A PUSH1 0x0 DUP4 ADD DUP5 PUSH2 0x376 JUMP JUMPDEST SWAP3 SWAP2 POP POP JUMP INVALID LOG2 PUSH5 0x6970667358 0x22 SLT KECCAK256 0xCF 0x5C PUSH8 0xF8DBA424FAFD3588 0x2B 0xBA DUP16 SGT 0x23 SIGNEXTEND SELFDESTRUCT COINBASE 0xEA PUSH24 0x56A745E9CE62F59ADE88D664736F6C634300080F00330000 "
				},
				"gasEstimates": {
					"creation": {
						"codeDepositCost": "196400",
						"executionCost": "infinite",
						"totalCost": "infinite"
					},
					"external": {
						"i10()": "2474",
						"i11()": "2496",
						"i2()": "2452",
						"i3()": "2451",
						"i4()": "2452",
						"i5()": "2473",
						"i6()": "2495",
						"i7()": "2518",
						"i8()": "2474",
						"i9()": "2497",
						"max()": "2496",
						"maxI8()": "2521",
						"min()": "2517",
						"minI8()": "2549"
					}
				},
				"methodIdentifiers": {
					"i10()": "541b5300",
					"i11()": "9965a901",
					"i2()": "83cdfab8",
					"i3()": "a0792ba7",
					"i4()": "29031ac2",
					"i5()": "e0ad7eec",
					"i6()": "f5280c9c",
					"i7()": "72539bf9",
					"i8()": "921cda74",
					"i9()": "1d922ce3",
					"max()": "6ac5db19",
					"maxI8()": "0b39ecdb",
					"min()": "f8897945",
					"minI8()": "07029437"
				}
			},
			"storageLayout": {
				"storage": [
					{
						"astId": 55,
						"contract": "chapter02/9type3.sol:type8",
						"label": "i1",
						"offset": 0,
						"slot": "0",
						"type": "t_uint256"
					},
					{
						"astId": 60,
						"contract": "chapter02/9type3.sol:type8",
						"label": "i2",
						"offset": 0,
						"slot": "1",
						"type": "t_uint256"
					},
					{
						"astId": 65,
						"contract": "chapter02/9type3.sol:type8",
						"label": "i3",
						"offset": 0,
						"slot": "2",
						"type": "t_uint256"
					},
					{
						"astId": 72,
						"contract": "chapter02/9type3.sol:type8",
						"label": "i4",
						"offset": 0,
						"slot": "3",
						"type": "t_uint256"
					},
					{
						"astId": 79,
						"contract": "chapter02/9type3.sol:type8",
						"label": "i5",
						"offset": 0,
						"slot": "4",
						"type": "t_uint256"
					},
					{
						"astId": 86,
						"contract": "chapter02/9type3.sol:type8",
						"label": "max",
						"offset": 0,
						"slot": "5",
						"type": "t_uint256"
					},
					{
						"astId": 91,
						"contract": "chapter02/9type3.sol:type8",
						"label": "i6",
						"offset": 0,
						"slot": "6",
						"type": "t_uint256"
					},
					{
						"astId": 98,
						"contract": "chapter02/9type3.sol:type8",
						"label": "min",
						"offset": 0,
						"slot": "7",
						"type": "t_uint256"
					},
					{
						"astId": 103,
						"contract": "chapter02/9type3.sol:type8",
						"label": "i7",
						"offset": 0,
						"slot": "8",
						"type": "t_uint256"
					},
					{
						"astId": 110,
						"contract": "chapter02/9type3.sol:type8",
						"label": "maxI8",
						"offset": 0,
						"slot": "9",
						"type": "t_int8"
					},
					{
						"astId": 117,
						"contract": "chapter02/9type3.sol:type8",
						"label": "minI8",
						"offset": 1,
						"slot": "9",
						"type": "t_int8"
					},
					{
						"astId": 122,
						"contract": "chapter02/9type3.sol:type8",
						"label": "i8",
						"offset": 0,
						"slot": "10",
						"type": "t_int256"
					},
					{
						"astId": 127,
						"contract": "chapter02/9type3.sol:type8",
						"label": "i9",
						"offset": 0,
						"slot": "11",
						"type": "t_int256"
					},
					{
						"astId": 132,
						"contract": "chapter02/9type3.sol:type8",
						"label": "i10",
						"offset": 0,
						"slot": "12",
						"type": "t_int256"
					},
					{
						"astId": 137,
						"contract": "chapter02/9type3.sol:type8",
						"label": "i11",
						"offset": 0,
						"slot": "13",
						"type": "t_int256"
					}
				],
				"types": {
					"t_int256": {
						"encoding": "inplace",
						"label": "int256",
						"numberOfBytes": "32"
					},
					"t_int8": {
						"encoding": "inplace",
						"label": "int8",
						"numberOfBytes": "1"
					},
					"t_uint256": {
						"encoding": "inplace",
						"label": "uint256",
						"numberOfBytes": "32"
					}
				}
			},
			"userdoc": {
				"kind": "user",
				"methods": {},
				"version": 1
			}
		}
	}
}