{
	"chapter02/9type3.sol": {
		"type14": {
			"abi": [
				{
					"inputs": [],
					"name": "contractaddr",
					"outputs": [
						{
							"internalType": "address",
							"name": "",
							"type": "address"
						}
					],
					"stateMutability": "view",
					"type": "function"
				},
				{
					"inputs": [
						{
							"internalType": "uint256",
							"name": "_a",
							"type": "uint256"
						}
					],
					"name": "setA",
					"outputs": [],
					"stateMutability": "nonpayable",
					"type": "function"
				},
				{
					"inputs": [],
					"name": "str",
					"outputs": [
						{
							"internalType": "string",
							"name": "",
							"type": "string"
						}
					],
					"stateMutability": "view",
					"type": "function"
				}
			],
			"devdoc": {
				"kind": "dev",
				"methods": {},
				"version": 1
			},
			"evm": {
				"assembly": "    /* \"chapter02/9type3.sol\":281:546  contract type14{... */\n  mstore(0x40, 0x80)\n    /* \"chapter02/9type3.sol\":351:363  new type13() */\n  mload(0x40)\n  tag_1\n  swap1\n  tag_2\n  jump\t// in\ntag_1:\n  mload(0x40)\n  dup1\n  swap2\n  sub\n  swap1\n  0x00\n  create\n  dup1\n  iszero\n  dup1\n  iszero\n  tag_3\n  jumpi\n  returndatasize\n  0x00\n  dup1\n  returndatacopy\n  revert(0x00, returndatasize)\ntag_3:\n  pop\n    /* \"chapter02/9type3.sol\":340:363  type13 t = new type13() */\n  0x00\n  dup1\n  0x0100\n  exp\n  dup2\n  sload\n  dup2\n  0xffffffffffffffffffffffffffffffffffffffff\n  mul\n  not\n  and\n  swap1\n  dup4\n  0xffffffffffffffffffffffffffffffffffffffff\n  and\n  mul\n  or\n  swap1\n  sstore\n  pop\n    /* \"chapter02/9type3.sol\":407:408  t */\n  0x00\n  dup1\n  sload\n  swap1\n  0x0100\n  exp\n  swap1\n  div\n  0xffffffffffffffffffffffffffffffffffffffff\n  and\n    /* \"chapter02/9type3.sol\":369:409  address public contractaddr = address(t) */\n  0x01\n  exp(0x0100, 0x00)\n  dup2\n  sload\n  dup2\n  0xffffffffffffffffffffffffffffffffffffffff\n  mul\n  not\n  and\n  swap1\n  dup4\n  0xffffffffffffffffffffffffffffffffffffffff\n  and\n  mul\n  or\n  swap1\n  sstore\n  pop\n    /* \"chapter02/9type3.sol\":472:473  t */\n  0x00\n  dup1\n  sload\n  swap1\n  0x0100\n  exp\n  swap1\n  div\n  0xffffffffffffffffffffffffffffffffffffffff\n  and\n    /* \"chapter02/9type3.sol\":472:489  t.getContractName */\n  0xffffffffffffffffffffffffffffffffffffffff\n  and\n  0xf5f5ba72\n    /* \"chapter02/9type3.sol\":472:491  t.getContractName() */\n  mload(0x40)\n  dup2\n  0xffffffff\n  and\n  0xe0\n  shl\n  dup2\n  mstore\n  0x04\n  add\n  0x00\n  mload(0x40)\n  dup1\n  dup4\n  sub\n  dup2\n  dup7\n  dup1\n  extcodesize\n  iszero\n  dup1\n  iszero\n  tag_4\n  jumpi\n  0x00\n  dup1\n  revert\ntag_4:\n  pop\n  gas\n  staticcall\n  iszero\n  dup1\n  iszero\n  tag_6\n  jumpi\n  returndatasize\n  0x00\n  dup1\n  returndatacopy\n  revert(0x00, returndatasize)\ntag_6:\n  pop\n  pop\n  pop\n  pop\n  mload(0x40)\n  returndatasize\n  0x00\n  dup3\n  returndatacopy\n  returndatasize\n  not(0x1f)\n  0x1f\n  dup3\n  add\n  and\n  dup3\n  add\n  dup1\n  0x40\n  mstore\n  pop\n  dup2\n  add\n  swap1\n  tag_7\n  swap2\n  swap1\n  tag_8\n  jump\t// in\ntag_7:\n    /* \"chapter02/9type3.sol\":452:491  string public str = t.getContractName() */\n  0x02\n  swap1\n  dup1\n  mload\n  swap1\n  0x20\n  add\n  swap1\n  tag_9\n  swap3\n  swap2\n  swap1\n  tag_10\n  jump\t// in\ntag_9:\n  pop\n    /* \"chapter02/9type3.sol\":281:546  contract type14{... */\n  callvalue\n  dup1\n  iszero\n  tag_11\n  jumpi\n  0x00\n  dup1\n  revert\ntag_11:\n  pop\n  jump(tag_12)\ntag_2:\n  dataSize(sub_1)\n  dup1\n  dataOffset(sub_1)\n  dup4\n  codecopy\n  add\n  swap1\n  jump\t// out\ntag_10:\n  dup3\n  dup1\n  sload\n  tag_13\n  swap1\n  tag_14\n  jump\t// in\ntag_13:\n  swap1\n  0x00\n  mstore\n  keccak256(0x00, 0x20)\n  swap1\n  0x1f\n  add\n  0x20\n  swap1\n  div\n  dup2\n  add\n  swap3\n  dup3\n  tag_16\n  jumpi\n  0x00\n  dup6\n  sstore\n  jump(tag_15)\ntag_16:\n  dup3\n  0x1f\n  lt\n  tag_17\n  jumpi\n  dup1\n  mload\n  not(0xff)\n  and\n  dup4\n  dup1\n  add\n  or\n  dup6\n  sstore\n  jump(tag_15)\ntag_17:\n  dup3\n  dup1\n  add\n  0x01\n  add\n  dup6\n  sstore\n  dup3\n  iszero\n  tag_15\n  jumpi\n  swap2\n  dup3\n  add\ntag_18:\n  dup3\n  dup2\n  gt\n  iszero\n  tag_19\n  jumpi\n  dup3\n  mload\n  dup3\n  sstore\n  swap2\n  0x20\n  add\n  swap2\n  swap1\n  0x01\n  add\n  swap1\n  jump(tag_18)\ntag_19:\ntag_15:\n  pop\n  swap1\n  pop\n  tag_20\n  swap2\n  swap1\n  tag_21\n  jump\t// in\ntag_20:\n  pop\n  swap1\n  jump\t// out\ntag_21:\ntag_22:\n  dup1\n  dup3\n  gt\n  iszero\n  tag_23\n  jumpi\n  0x00\n  dup2\n  0x00\n  swap1\n  sstore\n  pop\n  0x01\n  add\n  jump(tag_22)\ntag_23:\n  pop\n  swap1\n  jump\t// out\n    /* \"#utility.yul\":7:428   */\ntag_25:\n    /* \"#utility.yul\":96:101   */\n  0x00\n    /* \"#utility.yul\":121:187   */\n  tag_27\n    /* \"#utility.yul\":137:186   */\n  tag_28\n    /* \"#utility.yul\":179:185   */\n  dup5\n    /* \"#utility.yul\":137:186   */\n  tag_29\n  jump\t// in\ntag_28:\n    /* \"#utility.yul\":121:187   */\n  tag_30\n  jump\t// in\ntag_27:\n    /* \"#utility.yul\":112:187   */\n  swap1\n  pop\n    /* \"#utility.yul\":210:216   */\n  dup3\n    /* \"#utility.yul\":203:208   */\n  dup2\n    /* \"#utility.yul\":196:217   */\n  mstore\n    /* \"#utility.yul\":248:252   */\n  0x20\n    /* \"#utility.yul\":241:246   */\n  dup2\n    /* \"#utility.yul\":237:253   */\n  add\n    /* \"#utility.yul\":286:289   */\n  dup5\n    /* \"#utility.yul\":277:283   */\n  dup5\n    /* \"#utility.yul\":272:275   */\n  dup5\n    /* \"#utility.yul\":268:284   */\n  add\n    /* \"#utility.yul\":265:290   */\n  gt\n    /* \"#utility.yul\":262:374   */\n  iszero\n  tag_31\n  jumpi\n    /* \"#utility.yul\":293:372   */\n  tag_32\n  tag_33\n  jump\t// in\ntag_32:\n    /* \"#utility.yul\":262:374   */\ntag_31:\n    /* \"#utility.yul\":383:422   */\n  tag_34\n    /* \"#utility.yul\":415:421   */\n  dup5\n    /* \"#utility.yul\":410:413   */\n  dup3\n    /* \"#utility.yul\":405:408   */\n  dup6\n    /* \"#utility.yul\":383:422   */\n  tag_35\n  jump\t// in\ntag_34:\n    /* \"#utility.yul\":102:428   */\n  pop\n    /* \"#utility.yul\":7:428   */\n  swap4\n  swap3\n  pop\n  pop\n  pop\n  jump\t// out\n    /* \"#utility.yul\":448:803   */\ntag_36:\n    /* \"#utility.yul\":515:520   */\n  0x00\n    /* \"#utility.yul\":564:567   */\n  dup3\n    /* \"#utility.yul\":557:561   */\n  0x1f\n    /* \"#utility.yul\":549:555   */\n  dup4\n    /* \"#utility.yul\":545:562   */\n  add\n    /* \"#utility.yul\":541:568   */\n  slt\n    /* \"#utility.yul\":531:653   */\n  tag_38\n  jumpi\n    /* \"#utility.yul\":572:651   */\n  tag_39\n  tag_40\n  jump\t// in\ntag_39:\n    /* \"#utility.yul\":531:653   */\ntag_38:\n    /* \"#utility.yul\":682:688   */\n  dup2\n    /* \"#utility.yul\":676:689   */\n  mload\n    /* \"#utility.yul\":707:797   */\n  tag_41\n    /* \"#utility.yul\":793:796   */\n  dup5\n    /* \"#utility.yul\":785:791   */\n  dup3\n    /* \"#utility.yul\":778:782   */\n  0x20\n    /* \"#utility.yul\":770:776   */\n  dup7\n    /* \"#utility.yul\":766:783   */\n  add\n    /* \"#utility.yul\":707:797   */\n  tag_25\n  jump\t// in\ntag_41:\n    /* \"#utility.yul\":698:797   */\n  swap2\n  pop\n    /* \"#utility.yul\":521:803   */\n  pop\n    /* \"#utility.yul\":448:803   */\n  swap3\n  swap2\n  pop\n  pop\n  jump\t// out\n    /* \"#utility.yul\":809:1333   */\ntag_8:\n    /* \"#utility.yul\":889:895   */\n  0x00\n    /* \"#utility.yul\":938:940   */\n  0x20\n    /* \"#utility.yul\":926:935   */\n  dup3\n    /* \"#utility.yul\":917:924   */\n  dup5\n    /* \"#utility.yul\":913:936   */\n  sub\n    /* \"#utility.yul\":909:941   */\n  slt\n    /* \"#utility.yul\":906:1025   */\n  iszero\n  tag_43\n  jumpi\n    /* \"#utility.yul\":944:1023   */\n  tag_44\n  tag_45\n  jump\t// in\ntag_44:\n    /* \"#utility.yul\":906:1025   */\ntag_43:\n    /* \"#utility.yul\":1085:1086   */\n  0x00\n    /* \"#utility.yul\":1074:1083   */\n  dup3\n    /* \"#utility.yul\":1070:1087   */\n  add\n    /* \"#utility.yul\":1064:1088   */\n  mload\n    /* \"#utility.yul\":1115:1133   */\n  0xffffffffffffffff\n    /* \"#utility.yul\":1107:1113   */\n  dup2\n    /* \"#utility.yul\":1104:1134   */\n  gt\n    /* \"#utility.yul\":1101:1218   */\n  iszero\n  tag_46\n  jumpi\n    /* \"#utility.yul\":1137:1216   */\n  tag_47\n  tag_48\n  jump\t// in\ntag_47:\n    /* \"#utility.yul\":1101:1218   */\ntag_46:\n    /* \"#utility.yul\":1242:1316   */\n  tag_49\n    /* \"#utility.yul\":1308:1315   */\n  dup5\n    /* \"#utility.yul\":1299:1305   */\n  dup3\n    /* \"#utility.yul\":1288:1297   */\n  dup6\n    /* \"#utility.yul\":1284:1306   */\n  add\n    /* \"#utility.yul\":1242:1316   */\n  tag_36\n  jump\t// in\ntag_49:\n    /* \"#utility.yul\":1232:1316   */\n  swap2\n  pop\n    /* \"#utility.yul\":1035:1326   */\n  pop\n    /* \"#utility.yul\":809:1333   */\n  swap3\n  swap2\n  pop\n  pop\n  jump\t// out\n    /* \"#utility.yul\":1339:1468   */\ntag_30:\n    /* \"#utility.yul\":1373:1379   */\n  0x00\n    /* \"#utility.yul\":1400:1420   */\n  tag_51\n  tag_52\n  jump\t// in\ntag_51:\n    /* \"#utility.yul\":1390:1420   */\n  swap1\n  pop\n    /* \"#utility.yul\":1429:1462   */\n  tag_53\n    /* \"#utility.yul\":1457:1461   */\n  dup3\n    /* \"#utility.yul\":1449:1455   */\n  dup3\n    /* \"#utility.yul\":1429:1462   */\n  tag_54\n  jump\t// in\ntag_53:\n    /* \"#utility.yul\":1339:1468   */\n  swap2\n  swap1\n  pop\n  jump\t// out\n    /* \"#utility.yul\":1474:1549   */\ntag_52:\n    /* \"#utility.yul\":1507:1513   */\n  0x00\n    /* \"#utility.yul\":1540:1542   */\n  0x40\n    /* \"#utility.yul\":1534:1543   */\n  mload\n    /* \"#utility.yul\":1524:1543   */\n  swap1\n  pop\n    /* \"#utility.yul\":1474:1549   */\n  swap1\n  jump\t// out\n    /* \"#utility.yul\":1555:1863   */\ntag_29:\n    /* \"#utility.yul\":1617:1621   */\n  0x00\n    /* \"#utility.yul\":1707:1725   */\n  0xffffffffffffffff\n    /* \"#utility.yul\":1699:1705   */\n  dup3\n    /* \"#utility.yul\":1696:1726   */\n  gt\n    /* \"#utility.yul\":1693:1749   */\n  iszero\n  tag_57\n  jumpi\n    /* \"#utility.yul\":1729:1747   */\n  tag_58\n  tag_59\n  jump\t// in\ntag_58:\n    /* \"#utility.yul\":1693:1749   */\ntag_57:\n    /* \"#utility.yul\":1767:1796   */\n  tag_60\n    /* \"#utility.yul\":1789:1795   */\n  dup3\n    /* \"#utility.yul\":1767:1796   */\n  tag_61\n  jump\t// in\ntag_60:\n    /* \"#utility.yul\":1759:1796   */\n  swap1\n  pop\n    /* \"#utility.yul\":1851:1855   */\n  0x20\n    /* \"#utility.yul\":1845:1849   */\n  dup2\n    /* \"#utility.yul\":1841:1856   */\n  add\n    /* \"#utility.yul\":1833:1856   */\n  swap1\n  pop\n    /* \"#utility.yul\":1555:1863   */\n  swap2\n  swap1\n  pop\n  jump\t// out\n    /* \"#utility.yul\":1869:2176   */\ntag_35:\n    /* \"#utility.yul\":1937:1938   */\n  0x00\n    /* \"#utility.yul\":1947:2060   */\ntag_63:\n    /* \"#utility.yul\":1961:1967   */\n  dup4\n    /* \"#utility.yul\":1958:1959   */\n  dup2\n    /* \"#utility.yul\":1955:1968   */\n  lt\n    /* \"#utility.yul\":1947:2060   */\n  iszero\n  tag_65\n  jumpi\n    /* \"#utility.yul\":2046:2047   */\n  dup1\n    /* \"#utility.yul\":2041:2044   */\n  dup3\n    /* \"#utility.yul\":2037:2048   */\n  add\n    /* \"#utility.yul\":2031:2049   */\n  mload\n    /* \"#utility.yul\":2027:2028   */\n  dup2\n    /* \"#utility.yul\":2022:2025   */\n  dup5\n    /* \"#utility.yul\":2018:2029   */\n  add\n    /* \"#utility.yul\":2011:2050   */\n  mstore\n    /* \"#utility.yul\":1983:1985   */\n  0x20\n    /* \"#utility.yul\":1980:1981   */\n  dup2\n    /* \"#utility.yul\":1976:1986   */\n  add\n    /* \"#utility.yul\":1971:1986   */\n  swap1\n  pop\n    /* \"#utility.yul\":1947:2060   */\n  jump(tag_63)\ntag_65:\n    /* \"#utility.yul\":2078:2084   */\n  dup4\n    /* \"#utility.yul\":2075:2076   */\n  dup2\n    /* \"#utility.yul\":2072:2085   */\n  gt\n    /* \"#utility.yul\":2069:2170   */\n  iszero\n  tag_66\n  jumpi\n    /* \"#utility.yul\":2158:2159   */\n  0x00\n    /* \"#utility.yul\":2149:2155   */\n  dup5\n    /* \"#utility.yul\":2144:2147   */\n  dup5\n    /* \"#utility.yul\":2140:2156   */\n  add\n    /* \"#utility.yul\":2133:2160   */\n  mstore\n    /* \"#utility.yul\":2069:2170   */\ntag_66:\n    /* \"#utility.yul\":1918:2176   */\n  pop\n    /* \"#utility.yul\":1869:2176   */\n  pop\n  pop\n  pop\n  jump\t// out\n    /* \"#utility.yul\":2182:2502   */\ntag_14:\n    /* \"#utility.yul\":2226:2232   */\n  0x00\n    /* \"#utility.yul\":2263:2264   */\n  0x02\n    /* \"#utility.yul\":2257:2261   */\n  dup3\n    /* \"#utility.yul\":2253:2265   */\n  div\n    /* \"#utility.yul\":2243:2265   */\n  swap1\n  pop\n    /* \"#utility.yul\":2310:2311   */\n  0x01\n    /* \"#utility.yul\":2304:2308   */\n  dup3\n    /* \"#utility.yul\":2300:2312   */\n  and\n    /* \"#utility.yul\":2331:2349   */\n  dup1\n    /* \"#utility.yul\":2321:2402   */\n  tag_68\n  jumpi\n    /* \"#utility.yul\":2387:2391   */\n  0x7f\n    /* \"#utility.yul\":2379:2385   */\n  dup3\n    /* \"#utility.yul\":2375:2392   */\n  and\n    /* \"#utility.yul\":2365:2392   */\n  swap2\n  pop\n    /* \"#utility.yul\":2321:2402   */\ntag_68:\n    /* \"#utility.yul\":2449:2451   */\n  0x20\n    /* \"#utility.yul\":2441:2447   */\n  dup3\n    /* \"#utility.yul\":2438:2452   */\n  lt\n    /* \"#utility.yul\":2418:2436   */\n  dup2\n    /* \"#utility.yul\":2415:2453   */\n  eq\n    /* \"#utility.yul\":2412:2496   */\n  iszero\n  tag_69\n  jumpi\n    /* \"#utility.yul\":2468:2486   */\n  tag_70\n  tag_71\n  jump\t// in\ntag_70:\n    /* \"#utility.yul\":2412:2496   */\ntag_69:\n    /* \"#utility.yul\":2233:2502   */\n  pop\n    /* \"#utility.yul\":2182:2502   */\n  swap2\n  swap1\n  pop\n  jump\t// out\n    /* \"#utility.yul\":2508:2789   */\ntag_54:\n    /* \"#utility.yul\":2591:2618   */\n  tag_73\n    /* \"#utility.yul\":2613:2617   */\n  dup3\n    /* \"#utility.yul\":2591:2618   */\n  tag_61\n  jump\t// in\ntag_73:\n    /* \"#utility.yul\":2583:2589   */\n  dup2\n    /* \"#utility.yul\":2579:2619   */\n  add\n    /* \"#utility.yul\":2721:2727   */\n  dup2\n    /* \"#utility.yul\":2709:2719   */\n  dup2\n    /* \"#utility.yul\":2706:2728   */\n  lt\n    /* \"#utility.yul\":2685:2703   */\n  0xffffffffffffffff\n    /* \"#utility.yul\":2673:2683   */\n  dup3\n    /* \"#utility.yul\":2670:2704   */\n  gt\n    /* \"#utility.yul\":2667:2729   */\n  or\n    /* \"#utility.yul\":2664:2752   */\n  iszero\n  tag_74\n  jumpi\n    /* \"#utility.yul\":2732:2750   */\n  tag_75\n  tag_59\n  jump\t// in\ntag_75:\n    /* \"#utility.yul\":2664:2752   */\ntag_74:\n    /* \"#utility.yul\":2772:2782   */\n  dup1\n    /* \"#utility.yul\":2768:2770   */\n  0x40\n    /* \"#utility.yul\":2761:2783   */\n  mstore\n    /* \"#utility.yul\":2551:2789   */\n  pop\n    /* \"#utility.yul\":2508:2789   */\n  pop\n  pop\n  jump\t// out\n    /* \"#utility.yul\":2795:2975   */\ntag_71:\n    /* \"#utility.yul\":2843:2920   */\n  0x4e487b7100000000000000000000000000000000000000000000000000000000\n    /* \"#utility.yul\":2840:2841   */\n  0x00\n    /* \"#utility.yul\":2833:2921   */\n  mstore\n    /* \"#utility.yul\":2940:2944   */\n  0x22\n    /* \"#utility.yul\":2937:2938   */\n  0x04\n    /* \"#utility.yul\":2930:2945   */\n  mstore\n    /* \"#utility.yul\":2964:2968   */\n  0x24\n    /* \"#utility.yul\":2961:2962   */\n  0x00\n    /* \"#utility.yul\":2954:2969   */\n  revert\n    /* \"#utility.yul\":2981:3161   */\ntag_59:\n    /* \"#utility.yul\":3029:3106   */\n  0x4e487b7100000000000000000000000000000000000000000000000000000000\n    /* \"#utility.yul\":3026:3027   */\n  0x00\n    /* \"#utility.yul\":3019:3107   */\n  mstore\n    /* \"#utility.yul\":3126:3130   */\n  0x41\n    /* \"#utility.yul\":3123:3124   */\n  0x04\n    /* \"#utility.yul\":3116:3131   */\n  mstore\n    /* \"#utility.yul\":3150:3154   */\n  0x24\n    /* \"#utility.yul\":3147:3148   */\n  0x00\n    /* \"#utility.yul\":3140:3155   */\n  revert\n    /* \"#utility.yul\":3167:3284   */\ntag_40:\n    /* \"#utility.yul\":3276:3277   */\n  0x00\n    /* \"#utility.yul\":3273:3274   */\n  dup1\n    /* \"#utility.yul\":3266:3278   */\n  revert\n    /* \"#utility.yul\":3290:3407   */\ntag_33:\n    /* \"#utility.yul\":3399:3400   */\n  0x00\n    /* \"#utility.yul\":3396:3397   */\n  dup1\n    /* \"#utility.yul\":3389:3401   */\n  revert\n    /* \"#utility.yul\":3413:3530   */\ntag_48:\n    /* \"#utility.yul\":3522:3523   */\n  0x00\n    /* \"#utility.yul\":3519:3520   */\n  dup1\n    /* \"#utility.yul\":3512:3524   */\n  revert\n    /* \"#utility.yul\":3536:3653   */\ntag_45:\n    /* \"#utility.yul\":3645:3646   */\n  0x00\n    /* \"#utility.yul\":3642:3643   */\n  dup1\n    /* \"#utility.yul\":3635:3647   */\n  revert\n    /* \"#utility.yul\":3659:3761   */\ntag_61:\n    /* \"#utility.yul\":3700:3706   */\n  0x00\n    /* \"#utility.yul\":3751:3753   */\n  0x1f\n    /* \"#utility.yul\":3747:3754   */\n  not\n    /* \"#utility.yul\":3742:3744   */\n  0x1f\n    /* \"#utility.yul\":3735:3740   */\n  dup4\n    /* \"#utility.yul\":3731:3745   */\n  add\n    /* \"#utility.yul\":3727:3755   */\n  and\n    /* \"#utility.yul\":3717:3755   */\n  swap1\n  pop\n    /* \"#utility.yul\":3659:3761   */\n  swap2\n  swap1\n  pop\n  jump\t// out\n    /* \"chapter02/9type3.sol\":281:546  contract type14{... */\ntag_12:\n  dataSize(sub_0)\n  dup1\n  dataOffset(sub_0)\n  0x00\n  codecopy\n  0x00\n  return\nstop\n\nsub_0: assembly {\n        /* \"chapter02/9type3.sol\":281:546  contract type14{... */\n      mstore(0x40, 0x80)\n      callvalue\n      dup1\n      iszero\n      tag_1\n      jumpi\n      0x00\n      dup1\n      revert\n    tag_1:\n      pop\n      jumpi(tag_2, lt(calldatasize, 0x04))\n      shr(0xe0, calldataload(0x00))\n      dup1\n      0xc15bae84\n      eq\n      tag_3\n      jumpi\n      dup1\n      0xd01bb4d5\n      eq\n      tag_4\n      jumpi\n      dup1\n      0xee919d50\n      eq\n      tag_5\n      jumpi\n    tag_2:\n      0x00\n      dup1\n      revert\n        /* \"chapter02/9type3.sol\":452:491  string public str = t.getContractName() */\n    tag_3:\n      tag_6\n      tag_7\n      jump\t// in\n    tag_6:\n      mload(0x40)\n      tag_8\n      swap2\n      swap1\n      tag_9\n      jump\t// in\n    tag_8:\n      mload(0x40)\n      dup1\n      swap2\n      sub\n      swap1\n      return\n        /* \"chapter02/9type3.sol\":369:409  address public contractaddr = address(t) */\n    tag_4:\n      tag_10\n      tag_11\n      jump\t// in\n    tag_10:\n      mload(0x40)\n      tag_12\n      swap2\n      swap1\n      tag_13\n      jump\t// in\n    tag_12:\n      mload(0x40)\n      dup1\n      swap2\n      sub\n      swap1\n      return\n        /* \"chapter02/9type3.sol\":497:544  function setA(uint _a)external {... */\n    tag_5:\n      tag_14\n      0x04\n      dup1\n      calldatasize\n      sub\n      dup2\n      add\n      swap1\n      tag_15\n      swap2\n      swap1\n      tag_16\n      jump\t// in\n    tag_15:\n      tag_17\n      jump\t// in\n    tag_14:\n      stop\n        /* \"chapter02/9type3.sol\":452:491  string public str = t.getContractName() */\n    tag_7:\n      0x02\n      dup1\n      sload\n      tag_18\n      swap1\n      tag_19\n      jump\t// in\n    tag_18:\n      dup1\n      0x1f\n      add\n      0x20\n      dup1\n      swap2\n      div\n      mul\n      0x20\n      add\n      mload(0x40)\n      swap1\n      dup2\n      add\n      0x40\n      mstore\n      dup1\n      swap3\n      swap2\n      swap1\n      dup2\n      dup2\n      mstore\n      0x20\n      add\n      dup3\n      dup1\n      sload\n      tag_20\n      swap1\n      tag_19\n      jump\t// in\n    tag_20:\n      dup1\n      iszero\n      tag_21\n      jumpi\n      dup1\n      0x1f\n      lt\n      tag_22\n      jumpi\n      0x0100\n      dup1\n      dup4\n      sload\n      div\n      mul\n      dup4\n      mstore\n      swap2\n      0x20\n      add\n      swap2\n      jump(tag_21)\n    tag_22:\n      dup3\n      add\n      swap2\n      swap1\n      0x00\n      mstore\n      keccak256(0x00, 0x20)\n      swap1\n    tag_23:\n      dup2\n      sload\n      dup2\n      mstore\n      swap1\n      0x01\n      add\n      swap1\n      0x20\n      add\n      dup1\n      dup4\n      gt\n      tag_23\n      jumpi\n      dup3\n      swap1\n      sub\n      0x1f\n      and\n      dup3\n      add\n      swap2\n    tag_21:\n      pop\n      pop\n      pop\n      pop\n      pop\n      dup2\n      jump\t// out\n        /* \"chapter02/9type3.sol\":369:409  address public contractaddr = address(t) */\n    tag_11:\n      0x01\n      0x00\n      swap1\n      sload\n      swap1\n      0x0100\n      exp\n      swap1\n      div\n      0xffffffffffffffffffffffffffffffffffffffff\n      and\n      dup2\n      jump\t// out\n        /* \"chapter02/9type3.sol\":497:544  function setA(uint _a)external {... */\n    tag_17:\n      pop\n      jump\t// out\n        /* \"#utility.yul\":7:146   */\n    tag_26:\n        /* \"#utility.yul\":53:58   */\n      0x00\n        /* \"#utility.yul\":91:97   */\n      dup2\n        /* \"#utility.yul\":78:98   */\n      calldataload\n        /* \"#utility.yul\":69:98   */\n      swap1\n      pop\n        /* \"#utility.yul\":107:140   */\n      tag_28\n        /* \"#utility.yul\":134:139   */\n      dup2\n        /* \"#utility.yul\":107:140   */\n      tag_29\n      jump\t// in\n    tag_28:\n        /* \"#utility.yul\":7:146   */\n      swap3\n      swap2\n      pop\n      pop\n      jump\t// out\n        /* \"#utility.yul\":152:481   */\n    tag_16:\n        /* \"#utility.yul\":211:217   */\n      0x00\n        /* \"#utility.yul\":260:262   */\n      0x20\n        /* \"#utility.yul\":248:257   */\n      dup3\n        /* \"#utility.yul\":239:246   */\n      dup5\n        /* \"#utility.yul\":235:258   */\n      sub\n        /* \"#utility.yul\":231:263   */\n      slt\n        /* \"#utility.yul\":228:347   */\n      iszero\n      tag_31\n      jumpi\n        /* \"#utility.yul\":266:345   */\n      tag_32\n      tag_33\n      jump\t// in\n    tag_32:\n        /* \"#utility.yul\":228:347   */\n    tag_31:\n        /* \"#utility.yul\":386:387   */\n      0x00\n        /* \"#utility.yul\":411:464   */\n      tag_34\n        /* \"#utility.yul\":456:463   */\n      dup5\n        /* \"#utility.yul\":447:453   */\n      dup3\n        /* \"#utility.yul\":436:445   */\n      dup6\n        /* \"#utility.yul\":432:454   */\n      add\n        /* \"#utility.yul\":411:464   */\n      tag_26\n      jump\t// in\n    tag_34:\n        /* \"#utility.yul\":401:464   */\n      swap2\n      pop\n        /* \"#utility.yul\":357:474   */\n      pop\n        /* \"#utility.yul\":152:481   */\n      swap3\n      swap2\n      pop\n      pop\n      jump\t// out\n        /* \"#utility.yul\":487:605   */\n    tag_35:\n        /* \"#utility.yul\":574:598   */\n      tag_37\n        /* \"#utility.yul\":592:597   */\n      dup2\n        /* \"#utility.yul\":574:598   */\n      tag_38\n      jump\t// in\n    tag_37:\n        /* \"#utility.yul\":569:572   */\n      dup3\n        /* \"#utility.yul\":562:599   */\n      mstore\n        /* \"#utility.yul\":487:605   */\n      pop\n      pop\n      jump\t// out\n        /* \"#utility.yul\":611:975   */\n    tag_39:\n        /* \"#utility.yul\":699:702   */\n      0x00\n        /* \"#utility.yul\":727:766   */\n      tag_41\n        /* \"#utility.yul\":760:765   */\n      dup3\n        /* \"#utility.yul\":727:766   */\n      tag_42\n      jump\t// in\n    tag_41:\n        /* \"#utility.yul\":782:853   */\n      tag_43\n        /* \"#utility.yul\":846:852   */\n      dup2\n        /* \"#utility.yul\":841:844   */\n      dup6\n        /* \"#utility.yul\":782:853   */\n      tag_44\n      jump\t// in\n    tag_43:\n        /* \"#utility.yul\":775:853   */\n      swap4\n      pop\n        /* \"#utility.yul\":862:914   */\n      tag_45\n        /* \"#utility.yul\":907:913   */\n      dup2\n        /* \"#utility.yul\":902:905   */\n      dup6\n        /* \"#utility.yul\":895:899   */\n      0x20\n        /* \"#utility.yul\":888:893   */\n      dup7\n        /* \"#utility.yul\":884:900   */\n      add\n        /* \"#utility.yul\":862:914   */\n      tag_46\n      jump\t// in\n    tag_45:\n        /* \"#utility.yul\":939:968   */\n      tag_47\n        /* \"#utility.yul\":961:967   */\n      dup2\n        /* \"#utility.yul\":939:968   */\n      tag_48\n      jump\t// in\n    tag_47:\n        /* \"#utility.yul\":934:937   */\n      dup5\n        /* \"#utility.yul\":930:969   */\n      add\n        /* \"#utility.yul\":923:969   */\n      swap2\n      pop\n        /* \"#utility.yul\":703:975   */\n      pop\n        /* \"#utility.yul\":611:975   */\n      swap3\n      swap2\n      pop\n      pop\n      jump\t// out\n        /* \"#utility.yul\":981:1203   */\n    tag_13:\n        /* \"#utility.yul\":1074:1078   */\n      0x00\n        /* \"#utility.yul\":1112:1114   */\n      0x20\n        /* \"#utility.yul\":1101:1110   */\n      dup3\n        /* \"#utility.yul\":1097:1115   */\n      add\n        /* \"#utility.yul\":1089:1115   */\n      swap1\n      pop\n        /* \"#utility.yul\":1125:1196   */\n      tag_50\n        /* \"#utility.yul\":1193:1194   */\n      0x00\n        /* \"#utility.yul\":1182:1191   */\n      dup4\n        /* \"#utility.yul\":1178:1195   */\n      add\n        /* \"#utility.yul\":1169:1175   */\n      dup5\n        /* \"#utility.yul\":1125:1196   */\n      tag_35\n      jump\t// in\n    tag_50:\n        /* \"#utility.yul\":981:1203   */\n      swap3\n      swap2\n      pop\n      pop\n      jump\t// out\n        /* \"#utility.yul\":1209:1522   */\n    tag_9:\n        /* \"#utility.yul\":1322:1326   */\n      0x00\n        /* \"#utility.yul\":1360:1362   */\n      0x20\n        /* \"#utility.yul\":1349:1358   */\n      dup3\n        /* \"#utility.yul\":1345:1363   */\n      add\n        /* \"#utility.yul\":1337:1363   */\n      swap1\n      pop\n        /* \"#utility.yul\":1409:1418   */\n      dup2\n        /* \"#utility.yul\":1403:1407   */\n      dup2\n        /* \"#utility.yul\":1399:1419   */\n      sub\n        /* \"#utility.yul\":1395:1396   */\n      0x00\n        /* \"#utility.yul\":1384:1393   */\n      dup4\n        /* \"#utility.yul\":1380:1397   */\n      add\n        /* \"#utility.yul\":1373:1420   */\n      mstore\n        /* \"#utility.yul\":1437:1515   */\n      tag_52\n        /* \"#utility.yul\":1510:1514   */\n      dup2\n        /* \"#utility.yul\":1501:1507   */\n      dup5\n        /* \"#utility.yul\":1437:1515   */\n      tag_39\n      jump\t// in\n    tag_52:\n        /* \"#utility.yul\":1429:1515   */\n      swap1\n      pop\n        /* \"#utility.yul\":1209:1522   */\n      swap3\n      swap2\n      pop\n      pop\n      jump\t// out\n        /* \"#utility.yul\":1609:1708   */\n    tag_42:\n        /* \"#utility.yul\":1661:1667   */\n      0x00\n        /* \"#utility.yul\":1695:1700   */\n      dup2\n        /* \"#utility.yul\":1689:1701   */\n      mload\n        /* \"#utility.yul\":1679:1701   */\n      swap1\n      pop\n        /* \"#utility.yul\":1609:1708   */\n      swap2\n      swap1\n      pop\n      jump\t// out\n        /* \"#utility.yul\":1714:1883   */\n    tag_44:\n        /* \"#utility.yul\":1798:1809   */\n      0x00\n        /* \"#utility.yul\":1832:1838   */\n      dup3\n        /* \"#utility.yul\":1827:1830   */\n      dup3\n        /* \"#utility.yul\":1820:1839   */\n      mstore\n        /* \"#utility.yul\":1872:1876   */\n      0x20\n        /* \"#utility.yul\":1867:1870   */\n      dup3\n        /* \"#utility.yul\":1863:1877   */\n      add\n        /* \"#utility.yul\":1848:1877   */\n      swap1\n      pop\n        /* \"#utility.yul\":1714:1883   */\n      swap3\n      swap2\n      pop\n      pop\n      jump\t// out\n        /* \"#utility.yul\":1889:1985   */\n    tag_38:\n        /* \"#utility.yul\":1926:1933   */\n      0x00\n        /* \"#utility.yul\":1955:1979   */\n      tag_58\n        /* \"#utility.yul\":1973:1978   */\n      dup3\n        /* \"#utility.yul\":1955:1979   */\n      tag_59\n      jump\t// in\n    tag_58:\n        /* \"#utility.yul\":1944:1979   */\n      swap1\n      pop\n        /* \"#utility.yul\":1889:1985   */\n      swap2\n      swap1\n      pop\n      jump\t// out\n        /* \"#utility.yul\":1991:2117   */\n    tag_59:\n        /* \"#utility.yul\":2028:2035   */\n      0x00\n        /* \"#utility.yul\":2068:2110   */\n      0xffffffffffffffffffffffffffffffffffffffff\n        /* \"#utility.yul\":2061:2066   */\n      dup3\n        /* \"#utility.yul\":2057:2111   */\n      and\n        /* \"#utility.yul\":2046:2111   */\n      swap1\n      pop\n        /* \"#utility.yul\":1991:2117   */\n      swap2\n      swap1\n      pop\n      jump\t// out\n        /* \"#utility.yul\":2123:2200   */\n    tag_61:\n        /* \"#utility.yul\":2160:2167   */\n      0x00\n        /* \"#utility.yul\":2189:2194   */\n      dup2\n        /* \"#utility.yul\":2178:2194   */\n      swap1\n      pop\n        /* \"#utility.yul\":2123:2200   */\n      swap2\n      swap1\n      pop\n      jump\t// out\n        /* \"#utility.yul\":2206:2513   */\n    tag_46:\n        /* \"#utility.yul\":2274:2275   */\n      0x00\n        /* \"#utility.yul\":2284:2397   */\n    tag_64:\n        /* \"#utility.yul\":2298:2304   */\n      dup4\n        /* \"#utility.yul\":2295:2296   */\n      dup2\n        /* \"#utility.yul\":2292:2305   */\n      lt\n        /* \"#utility.yul\":2284:2397   */\n      iszero\n      tag_66\n      jumpi\n        /* \"#utility.yul\":2383:2384   */\n      dup1\n        /* \"#utility.yul\":2378:2381   */\n      dup3\n        /* \"#utility.yul\":2374:2385   */\n      add\n        /* \"#utility.yul\":2368:2386   */\n      mload\n        /* \"#utility.yul\":2364:2365   */\n      dup2\n        /* \"#utility.yul\":2359:2362   */\n      dup5\n        /* \"#utility.yul\":2355:2366   */\n      add\n        /* \"#utility.yul\":2348:2387   */\n      mstore\n        /* \"#utility.yul\":2320:2322   */\n      0x20\n        /* \"#utility.yul\":2317:2318   */\n      dup2\n        /* \"#utility.yul\":2313:2323   */\n      add\n        /* \"#utility.yul\":2308:2323   */\n      swap1\n      pop\n        /* \"#utility.yul\":2284:2397   */\n      jump(tag_64)\n    tag_66:\n        /* \"#utility.yul\":2415:2421   */\n      dup4\n        /* \"#utility.yul\":2412:2413   */\n      dup2\n        /* \"#utility.yul\":2409:2422   */\n      gt\n        /* \"#utility.yul\":2406:2507   */\n      iszero\n      tag_67\n      jumpi\n        /* \"#utility.yul\":2495:2496   */\n      0x00\n        /* \"#utility.yul\":2486:2492   */\n      dup5\n        /* \"#utility.yul\":2481:2484   */\n      dup5\n        /* \"#utility.yul\":2477:2493   */\n      add\n        /* \"#utility.yul\":2470:2497   */\n      mstore\n        /* \"#utility.yul\":2406:2507   */\n    tag_67:\n        /* \"#utility.yul\":2255:2513   */\n      pop\n        /* \"#utility.yul\":2206:2513   */\n      pop\n      pop\n      pop\n      jump\t// out\n        /* \"#utility.yul\":2519:2839   */\n    tag_19:\n        /* \"#utility.yul\":2563:2569   */\n      0x00\n        /* \"#utility.yul\":2600:2601   */\n      0x02\n        /* \"#utility.yul\":2594:2598   */\n      dup3\n        /* \"#utility.yul\":2590:2602   */\n      div\n        /* \"#utility.yul\":2580:2602   */\n      swap1\n      pop\n        /* \"#utility.yul\":2647:2648   */\n      0x01\n        /* \"#utility.yul\":2641:2645   */\n      dup3\n        /* \"#utility.yul\":2637:2649   */\n      and\n        /* \"#utility.yul\":2668:2686   */\n      dup1\n        /* \"#utility.yul\":2658:2739   */\n      tag_69\n      jumpi\n        /* \"#utility.yul\":2724:2728   */\n      0x7f\n        /* \"#utility.yul\":2716:2722   */\n      dup3\n        /* \"#utility.yul\":2712:2729   */\n      and\n        /* \"#utility.yul\":2702:2729   */\n      swap2\n      pop\n        /* \"#utility.yul\":2658:2739   */\n    tag_69:\n        /* \"#utility.yul\":2786:2788   */\n      0x20\n        /* \"#utility.yul\":2778:2784   */\n      dup3\n        /* \"#utility.yul\":2775:2789   */\n      lt\n        /* \"#utility.yul\":2755:2773   */\n      dup2\n        /* \"#utility.yul\":2752:2790   */\n      eq\n        /* \"#utility.yul\":2749:2833   */\n      iszero\n      tag_70\n      jumpi\n        /* \"#utility.yul\":2805:2823   */\n      tag_71\n      tag_72\n      jump\t// in\n    tag_71:\n        /* \"#utility.yul\":2749:2833   */\n    tag_70:\n        /* \"#utility.yul\":2570:2839   */\n      pop\n        /* \"#utility.yul\":2519:2839   */\n      swap2\n      swap1\n      pop\n      jump\t// out\n        /* \"#utility.yul\":2845:3025   */\n    tag_72:\n        /* \"#utility.yul\":2893:2970   */\n      0x4e487b7100000000000000000000000000000000000000000000000000000000\n        /* \"#utility.yul\":2890:2891   */\n      0x00\n        /* \"#utility.yul\":2883:2971   */\n      mstore\n        /* \"#utility.yul\":2990:2994   */\n      0x22\n        /* \"#utility.yul\":2987:2988   */\n      0x04\n        /* \"#utility.yul\":2980:2995   */\n      mstore\n        /* \"#utility.yul\":3014:3018   */\n      0x24\n        /* \"#utility.yul\":3011:3012   */\n      0x00\n        /* \"#utility.yul\":3004:3019   */\n      revert\n        /* \"#utility.yul\":3154:3271   */\n    tag_33:\n        /* \"#utility.yul\":3263:3264   */\n      0x00\n        /* \"#utility.yul\":3260:3261   */\n      dup1\n        /* \"#utility.yul\":3253:3265   */\n      revert\n        /* \"#utility.yul\":3277:3379   */\n    tag_48:\n        /* \"#utility.yul\":3318:3324   */\n      0x00\n        /* \"#utility.yul\":3369:3371   */\n      0x1f\n        /* \"#utility.yul\":3365:3372   */\n      not\n        /* \"#utility.yul\":3360:3362   */\n      0x1f\n        /* \"#utility.yul\":3353:3358   */\n      dup4\n        /* \"#utility.yul\":3349:3363   */\n      add\n        /* \"#utility.yul\":3345:3373   */\n      and\n        /* \"#utility.yul\":3335:3373   */\n      swap1\n      pop\n        /* \"#utility.yul\":3277:3379   */\n      swap2\n      swap1\n      pop\n      jump\t// out\n        /* \"#utility.yul\":3385:3507   */\n    tag_29:\n        /* \"#utility.yul\":3458:3482   */\n      tag_79\n        /* \"#utility.yul\":3476:3481   */\n      dup2\n        /* \"#utility.yul\":3458:3482   */\n      tag_61\n      jump\t// in\n    tag_79:\n        /* \"#utility.yul\":3451:3456   */\n      dup2\n        /* \"#utility.yul\":3448:3483   */\n      eq\n        /* \"#utility.yul\":3438:3501   */\n      tag_80\n      jumpi\n        /* \"#utility.yul\":3497:3498   */\n      0x00\n        /* \"#utility.yul\":3494:3495   */\n      dup1\n        /* \"#utility.yul\":3487:3499   */\n      revert\n        /* \"#utility.yul\":3438:3501   */\n    tag_80:\n        /* \"#utility.yul\":3385:3507   */\n      pop\n      jump\t// out\n\n    auxdata: 0xa264697066735822122058f691f87f4d8b331a4073abae38c522502f29f9a79761f831cc273e9d471d5664736f6c63430008070033\n}\n\nsub_1: assembly {\n        /* \"chapter02/9type3.sol\":53:280  contract type13{... */\n      mstore(0x40, 0x80)\n      callvalue\n      dup1\n      iszero\n      tag_1\n      jumpi\n      0x00\n      dup1\n      revert\n    tag_1:\n      pop\n      dataSize(sub_0)\n      dup1\n      dataOffset(sub_0)\n      0x00\n      codecopy\n      0x00\n      return\n    stop\n\n    sub_0: assembly {\n            /* \"chapter02/9type3.sol\":53:280  contract type13{... */\n          mstore(0x40, 0x80)\n          jumpi(tag_1, lt(calldatasize, 0x04))\n          shr(0xe0, calldataload(0x00))\n          dup1\n          0x0dbe671f\n          eq\n          tag_3\n          jumpi\n          dup1\n          0xee919d50\n          eq\n          tag_4\n          jumpi\n          dup1\n          0xf5f5ba72\n          eq\n          tag_5\n          jumpi\n          jump(tag_2)\n        tag_1:\n          jumpi(tag_2, calldatasize)\n          stop\n        tag_2:\n          0x00\n          dup1\n          revert\n            /* \"chapter02/9type3.sol\":107:120  uint public a */\n        tag_3:\n          callvalue\n          dup1\n          iszero\n          tag_8\n          jumpi\n          0x00\n          dup1\n          revert\n        tag_8:\n          pop\n          tag_9\n          tag_10\n          jump\t// in\n        tag_9:\n          mload(0x40)\n          tag_11\n          swap2\n          swap1\n          tag_12\n          jump\t// in\n        tag_11:\n          mload(0x40)\n          dup1\n          swap2\n          sub\n          swap1\n          return\n            /* \"chapter02/9type3.sol\":225:278  function setA(uint _a)external{... */\n        tag_4:\n          callvalue\n          dup1\n          iszero\n          tag_13\n          jumpi\n          0x00\n          dup1\n          revert\n        tag_13:\n          pop\n          tag_14\n          0x04\n          dup1\n          calldatasize\n          sub\n          dup2\n          add\n          swap1\n          tag_15\n          swap2\n          swap1\n          tag_16\n          jump\t// in\n        tag_15:\n          tag_17\n          jump\t// in\n        tag_14:\n          stop\n            /* \"chapter02/9type3.sol\":126:220  function getContractName()external pure returns(string memory){... */\n        tag_5:\n          callvalue\n          dup1\n          iszero\n          tag_18\n          jumpi\n          0x00\n          dup1\n          revert\n        tag_18:\n          pop\n          tag_19\n          tag_20\n          jump\t// in\n        tag_19:\n          mload(0x40)\n          tag_21\n          swap2\n          swap1\n          tag_22\n          jump\t// in\n        tag_21:\n          mload(0x40)\n          dup1\n          swap2\n          sub\n          swap1\n          return\n            /* \"chapter02/9type3.sol\":107:120  uint public a */\n        tag_10:\n          sload(0x00)\n          dup2\n          jump\t// out\n            /* \"chapter02/9type3.sol\":225:278  function setA(uint _a)external{... */\n        tag_17:\n            /* \"chapter02/9type3.sol\":269:271  _a */\n          dup1\n            /* \"chapter02/9type3.sol\":265:266  a */\n          0x00\n            /* \"chapter02/9type3.sol\":265:271  a = _a */\n          dup2\n          swap1\n          sstore\n          pop\n            /* \"chapter02/9type3.sol\":225:278  function setA(uint _a)external{... */\n          pop\n          jump\t// out\n            /* \"chapter02/9type3.sol\":126:220  function getContractName()external pure returns(string memory){... */\n        tag_20:\n            /* \"chapter02/9type3.sol\":174:187  string memory */\n          0x60\n            /* \"chapter02/9type3.sol\":198:213  return \"type13\" */\n          mload(0x40)\n          dup1\n          0x40\n          add\n          0x40\n          mstore\n          dup1\n          0x06\n          dup2\n          mstore\n          0x20\n          add\n          0x7479706531330000000000000000000000000000000000000000000000000000\n          dup2\n          mstore\n          pop\n          swap1\n          pop\n            /* \"chapter02/9type3.sol\":126:220  function getContractName()external pure returns(string memory){... */\n          swap1\n          jump\t// out\n            /* \"#utility.yul\":7:146   */\n        tag_26:\n            /* \"#utility.yul\":53:58   */\n          0x00\n            /* \"#utility.yul\":91:97   */\n          dup2\n            /* \"#utility.yul\":78:98   */\n          calldataload\n            /* \"#utility.yul\":69:98   */\n          swap1\n          pop\n            /* \"#utility.yul\":107:140   */\n          tag_28\n            /* \"#utility.yul\":134:139   */\n          dup2\n            /* \"#utility.yul\":107:140   */\n          tag_29\n          jump\t// in\n        tag_28:\n            /* \"#utility.yul\":7:146   */\n          swap3\n          swap2\n          pop\n          pop\n          jump\t// out\n            /* \"#utility.yul\":152:481   */\n        tag_16:\n            /* \"#utility.yul\":211:217   */\n          0x00\n            /* \"#utility.yul\":260:262   */\n          0x20\n            /* \"#utility.yul\":248:257   */\n          dup3\n            /* \"#utility.yul\":239:246   */\n          dup5\n            /* \"#utility.yul\":235:258   */\n          sub\n            /* \"#utility.yul\":231:263   */\n          slt\n            /* \"#utility.yul\":228:347   */\n          iszero\n          tag_31\n          jumpi\n            /* \"#utility.yul\":266:345   */\n          tag_32\n          tag_33\n          jump\t// in\n        tag_32:\n            /* \"#utility.yul\":228:347   */\n        tag_31:\n            /* \"#utility.yul\":386:387   */\n          0x00\n            /* \"#utility.yul\":411:464   */\n          tag_34\n            /* \"#utility.yul\":456:463   */\n          dup5\n            /* \"#utility.yul\":447:453   */\n          dup3\n            /* \"#utility.yul\":436:445   */\n          dup6\n            /* \"#utility.yul\":432:454   */\n          add\n            /* \"#utility.yul\":411:464   */\n          tag_26\n          jump\t// in\n        tag_34:\n            /* \"#utility.yul\":401:464   */\n          swap2\n          pop\n            /* \"#utility.yul\":357:474   */\n          pop\n            /* \"#utility.yul\":152:481   */\n          swap3\n          swap2\n          pop\n          pop\n          jump\t// out\n            /* \"#utility.yul\":487:851   */\n        tag_35:\n            /* \"#utility.yul\":575:578   */\n          0x00\n            /* \"#utility.yul\":603:642   */\n          tag_37\n            /* \"#utility.yul\":636:641   */\n          dup3\n            /* \"#utility.yul\":603:642   */\n          tag_38\n          jump\t// in\n        tag_37:\n            /* \"#utility.yul\":658:729   */\n          tag_39\n            /* \"#utility.yul\":722:728   */\n          dup2\n            /* \"#utility.yul\":717:720   */\n          dup6\n            /* \"#utility.yul\":658:729   */\n          tag_40\n          jump\t// in\n        tag_39:\n            /* \"#utility.yul\":651:729   */\n          swap4\n          pop\n            /* \"#utility.yul\":738:790   */\n          tag_41\n            /* \"#utility.yul\":783:789   */\n          dup2\n            /* \"#utility.yul\":778:781   */\n          dup6\n            /* \"#utility.yul\":771:775   */\n          0x20\n            /* \"#utility.yul\":764:769   */\n          dup7\n            /* \"#utility.yul\":760:776   */\n          add\n            /* \"#utility.yul\":738:790   */\n          tag_42\n          jump\t// in\n        tag_41:\n            /* \"#utility.yul\":815:844   */\n          tag_43\n            /* \"#utility.yul\":837:843   */\n          dup2\n            /* \"#utility.yul\":815:844   */\n          tag_44\n          jump\t// in\n        tag_43:\n            /* \"#utility.yul\":810:813   */\n          dup5\n            /* \"#utility.yul\":806:845   */\n          add\n            /* \"#utility.yul\":799:845   */\n          swap2\n          pop\n            /* \"#utility.yul\":579:851   */\n          pop\n            /* \"#utility.yul\":487:851   */\n          swap3\n          swap2\n          pop\n          pop\n          jump\t// out\n            /* \"#utility.yul\":857:975   */\n        tag_45:\n            /* \"#utility.yul\":944:968   */\n          tag_47\n            /* \"#utility.yul\":962:967   */\n          dup2\n            /* \"#utility.yul\":944:968   */\n          tag_48\n          jump\t// in\n        tag_47:\n            /* \"#utility.yul\":939:942   */\n          dup3\n            /* \"#utility.yul\":932:969   */\n          mstore\n            /* \"#utility.yul\":857:975   */\n          pop\n          pop\n          jump\t// out\n            /* \"#utility.yul\":981:1294   */\n        tag_22:\n            /* \"#utility.yul\":1094:1098   */\n          0x00\n            /* \"#utility.yul\":1132:1134   */\n          0x20\n            /* \"#utility.yul\":1121:1130   */\n          dup3\n            /* \"#utility.yul\":1117:1135   */\n          add\n            /* \"#utility.yul\":1109:1135   */\n          swap1\n          pop\n            /* \"#utility.yul\":1181:1190   */\n          dup2\n            /* \"#utility.yul\":1175:1179   */\n          dup2\n            /* \"#utility.yul\":1171:1191   */\n          sub\n            /* \"#utility.yul\":1167:1168   */\n          0x00\n            /* \"#utility.yul\":1156:1165   */\n          dup4\n            /* \"#utility.yul\":1152:1169   */\n          add\n            /* \"#utility.yul\":1145:1192   */\n          mstore\n            /* \"#utility.yul\":1209:1287   */\n          tag_50\n            /* \"#utility.yul\":1282:1286   */\n          dup2\n            /* \"#utility.yul\":1273:1279   */\n          dup5\n            /* \"#utility.yul\":1209:1287   */\n          tag_35\n          jump\t// in\n        tag_50:\n            /* \"#utility.yul\":1201:1287   */\n          swap1\n          pop\n            /* \"#utility.yul\":981:1294   */\n          swap3\n          swap2\n          pop\n          pop\n          jump\t// out\n            /* \"#utility.yul\":1300:1522   */\n        tag_12:\n            /* \"#utility.yul\":1393:1397   */\n          0x00\n            /* \"#utility.yul\":1431:1433   */\n          0x20\n            /* \"#utility.yul\":1420:1429   */\n          dup3\n            /* \"#utility.yul\":1416:1434   */\n          add\n            /* \"#utility.yul\":1408:1434   */\n          swap1\n          pop\n            /* \"#utility.yul\":1444:1515   */\n          tag_52\n            /* \"#utility.yul\":1512:1513   */\n          0x00\n            /* \"#utility.yul\":1501:1510   */\n          dup4\n            /* \"#utility.yul\":1497:1514   */\n          add\n            /* \"#utility.yul\":1488:1494   */\n          dup5\n            /* \"#utility.yul\":1444:1515   */\n          tag_45\n          jump\t// in\n        tag_52:\n            /* \"#utility.yul\":1300:1522   */\n          swap3\n          swap2\n          pop\n          pop\n          jump\t// out\n            /* \"#utility.yul\":1609:1708   */\n        tag_38:\n            /* \"#utility.yul\":1661:1667   */\n          0x00\n            /* \"#utility.yul\":1695:1700   */\n          dup2\n            /* \"#utility.yul\":1689:1701   */\n          mload\n            /* \"#utility.yul\":1679:1701   */\n          swap1\n          pop\n            /* \"#utility.yul\":1609:1708   */\n          swap2\n          swap1\n          pop\n          jump\t// out\n            /* \"#utility.yul\":1714:1883   */\n        tag_40:\n            /* \"#utility.yul\":1798:1809   */\n          0x00\n            /* \"#utility.yul\":1832:1838   */\n          dup3\n            /* \"#utility.yul\":1827:1830   */\n          dup3\n            /* \"#utility.yul\":1820:1839   */\n          mstore\n            /* \"#utility.yul\":1872:1876   */\n          0x20\n            /* \"#utility.yul\":1867:1870   */\n          dup3\n            /* \"#utility.yul\":1863:1877   */\n          add\n            /* \"#utility.yul\":1848:1877   */\n          swap1\n          pop\n            /* \"#utility.yul\":1714:1883   */\n          swap3\n          swap2\n          pop\n          pop\n          jump\t// out\n            /* \"#utility.yul\":1889:1966   */\n        tag_48:\n            /* \"#utility.yul\":1926:1933   */\n          0x00\n            /* \"#utility.yul\":1955:1960   */\n          dup2\n            /* \"#utility.yul\":1944:1960   */\n          swap1\n          pop\n            /* \"#utility.yul\":1889:1966   */\n          swap2\n          swap1\n          pop\n          jump\t// out\n            /* \"#utility.yul\":1972:2279   */\n        tag_42:\n            /* \"#utility.yul\":2040:2041   */\n          0x00\n            /* \"#utility.yul\":2050:2163   */\n        tag_59:\n            /* \"#utility.yul\":2064:2070   */\n          dup4\n            /* \"#utility.yul\":2061:2062   */\n          dup2\n            /* \"#utility.yul\":2058:2071   */\n          lt\n            /* \"#utility.yul\":2050:2163   */\n          iszero\n          tag_61\n          jumpi\n            /* \"#utility.yul\":2149:2150   */\n          dup1\n            /* \"#utility.yul\":2144:2147   */\n          dup3\n            /* \"#utility.yul\":2140:2151   */\n          add\n            /* \"#utility.yul\":2134:2152   */\n          mload\n            /* \"#utility.yul\":2130:2131   */\n          dup2\n            /* \"#utility.yul\":2125:2128   */\n          dup5\n            /* \"#utility.yul\":2121:2132   */\n          add\n            /* \"#utility.yul\":2114:2153   */\n          mstore\n            /* \"#utility.yul\":2086:2088   */\n          0x20\n            /* \"#utility.yul\":2083:2084   */\n          dup2\n            /* \"#utility.yul\":2079:2089   */\n          add\n            /* \"#utility.yul\":2074:2089   */\n          swap1\n          pop\n            /* \"#utility.yul\":2050:2163   */\n          jump(tag_59)\n        tag_61:\n            /* \"#utility.yul\":2181:2187   */\n          dup4\n            /* \"#utility.yul\":2178:2179   */\n          dup2\n            /* \"#utility.yul\":2175:2188   */\n          gt\n            /* \"#utility.yul\":2172:2273   */\n          iszero\n          tag_62\n          jumpi\n            /* \"#utility.yul\":2261:2262   */\n          0x00\n            /* \"#utility.yul\":2252:2258   */\n          dup5\n            /* \"#utility.yul\":2247:2250   */\n          dup5\n            /* \"#utility.yul\":2243:2259   */\n          add\n            /* \"#utility.yul\":2236:2263   */\n          mstore\n            /* \"#utility.yul\":2172:2273   */\n        tag_62:\n            /* \"#utility.yul\":2021:2279   */\n          pop\n            /* \"#utility.yul\":1972:2279   */\n          pop\n          pop\n          pop\n          jump\t// out\n            /* \"#utility.yul\":2408:2525   */\n        tag_33:\n            /* \"#utility.yul\":2517:2518   */\n          0x00\n            /* \"#utility.yul\":2514:2515   */\n          dup1\n            /* \"#utility.yul\":2507:2519   */\n          revert\n            /* \"#utility.yul\":2531:2633   */\n        tag_44:\n            /* \"#utility.yul\":2572:2578   */\n          0x00\n            /* \"#utility.yul\":2623:2625   */\n          0x1f\n            /* \"#utility.yul\":2619:2626   */\n          not\n            /* \"#utility.yul\":2614:2616   */\n          0x1f\n            /* \"#utility.yul\":2607:2612   */\n          dup4\n            /* \"#utility.yul\":2603:2617   */\n          add\n            /* \"#utility.yul\":2599:2627   */\n          and\n            /* \"#utility.yul\":2589:2627   */\n          swap1\n          pop\n            /* \"#utility.yul\":2531:2633   */\n          swap2\n          swap1\n          pop\n          jump\t// out\n            /* \"#utility.yul\":2639:2761   */\n        tag_29:\n            /* \"#utility.yul\":2712:2736   */\n          tag_68\n            /* \"#utility.yul\":2730:2735   */\n          dup2\n            /* \"#utility.yul\":2712:2736   */\n          tag_48\n          jump\t// in\n        tag_68:\n            /* \"#utility.yul\":2705:2710   */\n          dup2\n            /* \"#utility.yul\":2702:2737   */\n          eq\n            /* \"#utility.yul\":2692:2755   */\n          tag_69\n          jumpi\n            /* \"#utility.yul\":2751:2752   */\n          0x00\n            /* \"#utility.yul\":2748:2749   */\n          dup1\n            /* \"#utility.yul\":2741:2753   */\n          revert\n            /* \"#utility.yul\":2692:2755   */\n        tag_69:\n            /* \"#utility.yul\":2639:2761   */\n          pop\n          jump\t// out\n\n        auxdata: 0xa2646970667358221220624ea4243a6da3b5552c7de357927b21dadc6bb37844db97151b45e525690f9d64736f6c63430008070033\n    }\n}\n",
				"bytecode": {
					"linkReferences": {},
					"object": "608060405260405161001090610198565b604051809103906000f08015801561002c573d6000803e3d6000fd5b506000806101000a81548173ffffffffffffffffffffffffffffffffffffffff021916908373ffffffffffffffffffffffffffffffffffffffff16021790555060008054906101000a900473ffffffffffffffffffffffffffffffffffffffff16600160006101000a81548173ffffffffffffffffffffffffffffffffffffffff021916908373ffffffffffffffffffffffffffffffffffffffff16021790555060008054906101000a900473ffffffffffffffffffffffffffffffffffffffff1673ffffffffffffffffffffffffffffffffffffffff1663f5f5ba726040518163ffffffff1660e01b815260040160006040518083038186803b15801561013357600080fd5b505afa158015610147573d6000803e3d6000fd5b505050506040513d6000823e3d601f19601f8201168201806040525081019061017091906102b8565b600290805190602001906101859291906101a5565b5034801561019257600080fd5b50610470565b6102b3806107ea83390190565b8280546101b19061038a565b90600052602060002090601f0160209004810192826101d3576000855561021a565b82601f106101ec57805160ff191683800117855561021a565b8280016001018555821561021a579182015b828111156102195782518255916020019190600101906101fe565b5b509050610227919061022b565b5090565b5b8082111561024457600081600090555060010161022c565b5090565b600061025b61025684610326565b610301565b90508281526020810184848401111561027757610276610450565b5b610282848285610357565b509392505050565b600082601f83011261029f5761029e61044b565b5b81516102af848260208601610248565b91505092915050565b6000602082840312156102ce576102cd61045a565b5b600082015167ffffffffffffffff8111156102ec576102eb610455565b5b6102f88482850161028a565b91505092915050565b600061030b61031c565b905061031782826103bc565b919050565b6000604051905090565b600067ffffffffffffffff8211156103415761034061041c565b5b61034a8261045f565b9050602081019050919050565b60005b8381101561037557808201518184015260208101905061035a565b83811115610384576000848401525b50505050565b600060028204905060018216806103a257607f821691505b602082108114156103b6576103b56103ed565b5b50919050565b6103c58261045f565b810181811067ffffffffffffffff821117156103e4576103e361041c565b5b80604052505050565b7f4e487b7100000000000000000000000000000000000000000000000000000000600052602260045260246000fd5b7f4e487b7100000000000000000000000000000000000000000000000000000000600052604160045260246000fd5b600080fd5b600080fd5b600080fd5b600080fd5b6000601f19601f8301169050919050565b61036b8061047f6000396000f3fe608060405234801561001057600080fd5b50600436106100415760003560e01c8063c15bae8414610046578063d01bb4d514610064578063ee919d5014610082575b600080fd5b61004e61009e565b60405161005b91906101fa565b60405180910390f35b61006c61012c565b60405161007991906101df565b60405180910390f35b61009c6004803603810190610097919061016a565b610152565b005b600280546100ab906102a7565b80601f01602080910402602001604051908101604052809291908181526020018280546100d7906102a7565b80156101245780601f106100f957610100808354040283529160200191610124565b820191906000526020600020905b81548152906001019060200180831161010757829003601f168201915b505050505081565b600160009054906101000a900473ffffffffffffffffffffffffffffffffffffffff1681565b50565b6000813590506101648161031e565b92915050565b6000602082840312156101805761017f610308565b5b600061018e84828501610155565b91505092915050565b6101a081610238565b82525050565b60006101b18261021c565b6101bb8185610227565b93506101cb818560208601610274565b6101d48161030d565b840191505092915050565b60006020820190506101f46000830184610197565b92915050565b6000602082019050818103600083015261021481846101a6565b905092915050565b600081519050919050565b600082825260208201905092915050565b60006102438261024a565b9050919050565b600073ffffffffffffffffffffffffffffffffffffffff82169050919050565b6000819050919050565b60005b83811015610292578082015181840152602081019050610277565b838111156102a1576000848401525b50505050565b600060028204905060018216806102bf57607f821691505b602082108114156102d3576102d26102d9565b5b50919050565b7f4e487b7100000000000000000000000000000000000000000000000000000000600052602260045260246000fd5b600080fd5b6000601f19601f8301169050919050565b6103278161026a565b811461033257600080fd5b5056fea264697066735822122058f691f87f4d8b331a4073abae38c522502f29f9a79761f831cc273e9d471d5664736f6c63430008070033608060405234801561001057600080fd5b50610293806100206000396000f3fe6080604052600436106100385760003560e01c80630dbe671f14610044578063ee919d501461006f578063f5f5ba72146100985761003f565b3661003f57005b600080fd5b34801561005057600080fd5b506100596100c3565b60405161006691906101bc565b60405180910390f35b34801561007b57600080fd5b5061009660048036038101906100919190610125565b6100c9565b005b3480156100a457600080fd5b506100ad6100d3565b6040516100ba919061019a565b60405180910390f35b60005481565b8060008190555050565b60606040518060400160405280600681526020017f7479706531330000000000000000000000000000000000000000000000000000815250905090565b60008135905061011f81610246565b92915050565b60006020828403121561013b5761013a610230565b5b600061014984828501610110565b91505092915050565b600061015d826101d7565b61016781856101e2565b93506101778185602086016101fd565b61018081610235565b840191505092915050565b610194816101f3565b82525050565b600060208201905081810360008301526101b48184610152565b905092915050565b60006020820190506101d1600083018461018b565b92915050565b600081519050919050565b600082825260208201905092915050565b6000819050919050565b60005b8381101561021b578082015181840152602081019050610200565b8381111561022a576000848401525b50505050565b600080fd5b6000601f19601f8301169050919050565b61024f816101f3565b811461025a57600080fd5b5056fea2646970667358221220624ea4243a6da3b5552c7de357927b21dadc6bb37844db97151b45e525690f9d64736f6c63430008070033",
					"opcodes": "PUSH1 0x80 PUSH1 0x40 MSTORE PUSH1 0x40 MLOAD PUSH2 0x10 SWAP1 PUSH2 0x198 JUMP JUMPDEST PUSH1 0x40 MLOAD DUP1 SWAP2 SUB SWAP1 PUSH1 0x0 CREATE DUP1 ISZERO DUP1 ISZERO PUSH2 0x2C JUMPI RETURNDATASIZE PUSH1 0x0 DUP1 RETURNDATACOPY RETURNDATASIZE PUSH1 0x0 REVERT JUMPDEST POP PUSH1 0x0 DUP1 PUSH2 0x100 EXP DUP2 SLOAD DUP2 PUSH20 0xFFFFFFFFFFFFFFFFFFFFFFFFFFFFFFFFFFFFFFFF MUL NOT AND SWAP1 DUP4 PUSH20 0xFFFFFFFFFFFFFFFFFFFFFFFFFFFFFFFFFFFFFFFF AND MUL OR SWAP1 SSTORE POP PUSH1 0x0 DUP1 SLOAD SWAP1 PUSH2 0x100 EXP SWAP1 DIV PUSH20 0xFFFFFFFFFFFFFFFFFFFFFFFFFFFFFFFFFFFFFFFF AND PUSH1 0x1 PUSH1 0x0 PUSH2 0x100 EXP DUP2 SLOAD DUP2 PUSH20 0xFFFFFFFFFFFFFFFFFFFFFFFFFFFFFFFFFFFFFFFF MUL NOT AND SWAP1 DUP4 PUSH20 0xFFFFFFFFFFFFFFFFFFFFFFFFFFFFFFFFFFFFFFFF AND MUL OR SWAP1 SSTORE POP PUSH1 0x0 DUP1 SLOAD SWAP1 PUSH2 0x100 EXP SWAP1 DIV PUSH20 0xFFFFFFFFFFFFFFFFFFFFFFFFFFFFFFFFFFFFFFFF AND PUSH20 0xFFFFFFFFFFFFFFFFFFFFFFFFFFFFFFFFFFFFFFFF AND PUSH4 0xF5F5BA72 PUSH1 0x40 MLOAD DUP2 PUSH4 0xFFFFFFFF AND PUSH1 0xE0 SHL DUP2 MSTORE PUSH1 0x4 ADD PUSH1 0x0 PUSH1 0x40 MLOAD DUP1 DUP4 SUB DUP2 DUP7 DUP1 EXTCODESIZE ISZERO DUP1 ISZERO PUSH2 0x133 JUMPI PUSH1 0x0 DUP1 REVERT JUMPDEST POP GAS STATICCALL ISZERO DUP1 ISZERO PUSH2 0x147 JUMPI RETURNDATASIZE PUSH1 0x0 DUP1 RETURNDATACOPY RETURNDATASIZE PUSH1 0x0 REVERT JUMPDEST POP POP POP POP PUSH1 0x40 MLOAD RETURNDATASIZE PUSH1 0x0 DUP3 RETURNDATACOPY RETURNDATASIZE PUSH1 0x1F NOT PUSH1 0x1F DUP3 ADD AND DUP3 ADD DUP1 PUSH1 0x40 MSTORE POP DUP2 ADD SWAP1 PUSH2 0x170 SWAP2 SWAP1 PUSH2 0x2B8 JUMP JUMPDEST PUSH1 0x2 SWAP1 DUP1 MLOAD SWAP1 PUSH1 0x20 ADD SWAP1 PUSH2 0x185 SWAP3 SWAP2 SWAP1 PUSH2 0x1A5 JUMP JUMPDEST POP CALLVALUE DUP1 ISZERO PUSH2 0x192 JUMPI PUSH1 0x0 DUP1 REVERT JUMPDEST POP PUSH2 0x470 JUMP JUMPDEST PUSH2 0x2B3 DUP1 PUSH2 0x7EA DUP4 CODECOPY ADD SWAP1 JUMP JUMPDEST DUP3 DUP1 SLOAD PUSH2 0x1B1 SWAP1 PUSH2 0x38A JUMP JUMPDEST SWAP1 PUSH1 0x0 MSTORE PUSH1 0x20 PUSH1 0x0 KECCAK256 SWAP1 PUSH1 0x1F ADD PUSH1 0x20 SWAP1 DIV DUP2 ADD SWAP3 DUP3 PUSH2 0x1D3 JUMPI PUSH1 0x0 DUP6 SSTORE PUSH2 0x21A JUMP JUMPDEST DUP3 PUSH1 0x1F LT PUSH2 0x1EC JUMPI DUP1 MLOAD PUSH1 0xFF NOT AND DUP4 DUP1 ADD OR DUP6 SSTORE PUSH2 0x21A JUMP JUMPDEST DUP3 DUP1 ADD PUSH1 0x1 ADD DUP6 SSTORE DUP3 ISZERO PUSH2 0x21A JUMPI SWAP2 DUP3 ADD JUMPDEST DUP3 DUP2 GT ISZERO PUSH2 0x219 JUMPI DUP3 MLOAD DUP3 SSTORE SWAP2 PUSH1 0x20 ADD SWAP2 SWAP1 PUSH1 0x1 ADD SWAP1 PUSH2 0x1FE JUMP JUMPDEST JUMPDEST POP SWAP1 POP PUSH2 0x227 SWAP2 SWAP1 PUSH2 0x22B JUMP JUMPDEST POP SWAP1 JUMP JUMPDEST JUMPDEST DUP1 DUP3 GT ISZERO PUSH2 0x244 JUMPI PUSH1 0x0 DUP2 PUSH1 0x0 SWAP1 SSTORE POP PUSH1 0x1 ADD PUSH2 0x22C JUMP JUMPDEST POP SWAP1 JUMP JUMPDEST PUSH1 0x0 PUSH2 0x25B PUSH2 0x256 DUP5 PUSH2 0x326 JUMP JUMPDEST PUSH2 0x301 JUMP JUMPDEST SWAP1 POP DUP3 DUP2 MSTORE PUSH1 0x20 DUP2 ADD DUP5 DUP5 DUP5 ADD GT ISZERO PUSH2 0x277 JUMPI PUSH2 0x276 PUSH2 0x450 JUMP JUMPDEST JUMPDEST PUSH2 0x282 DUP5 DUP3 DUP6 PUSH2 0x357 JUMP JUMPDEST POP SWAP4 SWAP3 POP POP POP JUMP JUMPDEST PUSH1 0x0 DUP3 PUSH1 0x1F DUP4 ADD SLT PUSH2 0x29F JUMPI PUSH2 0x29E PUSH2 0x44B JUMP JUMPDEST JUMPDEST DUP2 MLOAD PUSH2 0x2AF DUP5 DUP3 PUSH1 0x20 DUP7 ADD PUSH2 0x248 JUMP JUMPDEST SWAP2 POP POP SWAP3 SWAP2 POP POP JUMP JUMPDEST PUSH1 0x0 PUSH1 0x20 DUP3 DUP5 SUB SLT ISZERO PUSH2 0x2CE JUMPI PUSH2 0x2CD PUSH2 0x45A JUMP JUMPDEST JUMPDEST PUSH1 0x0 DUP3 ADD MLOAD PUSH8 0xFFFFFFFFFFFFFFFF DUP2 GT ISZERO PUSH2 0x2EC JUMPI PUSH2 0x2EB PUSH2 0x455 JUMP JUMPDEST JUMPDEST PUSH2 0x2F8 DUP5 DUP3 DUP6 ADD PUSH2 0x28A JUMP JUMPDEST SWAP2 POP POP SWAP3 SWAP2 POP POP JUMP JUMPDEST PUSH1 0x0 PUSH2 0x30B PUSH2 0x31C JUMP JUMPDEST SWAP1 POP PUSH2 0x317 DUP3 DUP3 PUSH2 0x3BC JUMP JUMPDEST SWAP2 SWAP1 POP JUMP JUMPDEST PUSH1 0x0 PUSH1 0x40 MLOAD SWAP1 POP SWAP1 JUMP JUMPDEST PUSH1 0x0 PUSH8 0xFFFFFFFFFFFFFFFF DUP3 GT ISZERO PUSH2 0x341 JUMPI PUSH2 0x340 PUSH2 0x41C JUMP JUMPDEST JUMPDEST PUSH2 0x34A DUP3 PUSH2 0x45F JUMP JUMPDEST SWAP1 POP PUSH1 0x20 DUP2 ADD SWAP1 POP SWAP2 SWAP1 POP JUMP JUMPDEST PUSH1 0x0 JUMPDEST DUP4 DUP2 LT ISZERO PUSH2 0x375 JUMPI DUP1 DUP3 ADD MLOAD DUP2 DUP5 ADD MSTORE PUSH1 0x20 DUP2 ADD SWAP1 POP PUSH2 0x35A JUMP JUMPDEST DUP4 DUP2 GT ISZERO PUSH2 0x384 JUMPI PUSH1 0x0 DUP5 DUP5 ADD MSTORE JUMPDEST POP POP POP POP JUMP JUMPDEST PUSH1 0x0 PUSH1 0x2 DUP3 DIV SWAP1 POP PUSH1 0x1 DUP3 AND DUP1 PUSH2 0x3A2 JUMPI PUSH1 0x7F DUP3 AND SWAP2 POP JUMPDEST PUSH1 0x20 DUP3 LT DUP2 EQ ISZERO PUSH2 0x3B6 JUMPI PUSH2 0x3B5 PUSH2 0x3ED JUMP JUMPDEST JUMPDEST POP SWAP2 SWAP1 POP JUMP JUMPDEST PUSH2 0x3C5 DUP3 PUSH2 0x45F JUMP JUMPDEST DUP2 ADD DUP2 DUP2 LT PUSH8 0xFFFFFFFFFFFFFFFF DUP3 GT OR ISZERO PUSH2 0x3E4 JUMPI PUSH2 0x3E3 PUSH2 0x41C JUMP JUMPDEST JUMPDEST DUP1 PUSH1 0x40 MSTORE POP POP POP JUMP JUMPDEST PUSH32 0x4E487B7100000000000000000000000000000000000000000000000000000000 PUSH1 0x0 MSTORE PUSH1 0x22 PUSH1 0x4 MSTORE PUSH1 0x24 PUSH1 0x0 REVERT JUMPDEST PUSH32 0x4E487B7100000000000000000000000000000000000000000000000000000000 PUSH1 0x0 MSTORE PUSH1 0x41 PUSH1 0x4 MSTORE PUSH1 0x24 PUSH1 0x0 REVERT JUMPDEST PUSH1 0x0 DUP1 REVERT JUMPDEST PUSH1 0x0 DUP1 REVERT JUMPDEST PUSH1 0x0 DUP1 REVERT JUMPDEST PUSH1 0x0 DUP1 REVERT JUMPDEST PUSH1 0x0 PUSH1 0x1F NOT PUSH1 0x1F DUP4 ADD AND SWAP1 POP SWAP2 SWAP1 POP JUMP JUMPDEST PUSH2 0x36B DUP1 PUSH2 0x47F PUSH1 0x0 CODECOPY PUSH1 0x0 RETURN INVALID PUSH1 0x80 PUSH1 0x40 MSTORE CALLVALUE DUP1 ISZERO PUSH2 0x10 JUMPI PUSH1 0x0 DUP1 REVERT JUMPDEST POP PUSH1 0x4 CALLDATASIZE LT PUSH2 0x41 JUMPI PUSH1 0x0 CALLDATALOAD PUSH1 0xE0 SHR DUP1 PUSH4 0xC15BAE84 EQ PUSH2 0x46 JUMPI DUP1 PUSH4 0xD01BB4D5 EQ PUSH2 0x64 JUMPI DUP1 PUSH4 0xEE919D50 EQ PUSH2 0x82 JUMPI JUMPDEST PUSH1 0x0 DUP1 REVERT JUMPDEST PUSH2 0x4E PUSH2 0x9E JUMP JUMPDEST PUSH1 0x40 MLOAD PUSH2 0x5B SWAP2 SWAP1 PUSH2 0x1FA JUMP JUMPDEST PUSH1 0x40 MLOAD DUP1 SWAP2 SUB SWAP1 RETURN JUMPDEST PUSH2 0x6C PUSH2 0x12C JUMP JUMPDEST PUSH1 0x40 MLOAD PUSH2 0x79 SWAP2 SWAP1 PUSH2 0x1DF JUMP JUMPDEST PUSH1 0x40 MLOAD DUP1 SWAP2 SUB SWAP1 RETURN JUMPDEST PUSH2 0x9C PUSH1 0x4 DUP1 CALLDATASIZE SUB DUP2 ADD SWAP1 PUSH2 0x97 SWAP2 SWAP1 PUSH2 0x16A JUMP JUMPDEST PUSH2 0x152 JUMP JUMPDEST STOP JUMPDEST PUSH1 0x2 DUP1 SLOAD PUSH2 0xAB SWAP1 PUSH2 0x2A7 JUMP JUMPDEST DUP1 PUSH1 0x1F ADD PUSH1 0x20 DUP1 SWAP2 DIV MUL PUSH1 0x20 ADD PUSH1 0x40 MLOAD SWAP1 DUP2 ADD PUSH1 0x40 MSTORE DUP1 SWAP3 SWAP2 SWAP1 DUP2 DUP2 MSTORE PUSH1 0x20 ADD DUP3 DUP1 SLOAD PUSH2 0xD7 SWAP1 PUSH2 0x2A7 JUMP JUMPDEST DUP1 ISZERO PUSH2 0x124 JUMPI DUP1 PUSH1 0x1F LT PUSH2 0xF9 JUMPI PUSH2 0x100 DUP1 DUP4 SLOAD DIV MUL DUP4 MSTORE SWAP2 PUSH1 0x20 ADD SWAP2 PUSH2 0x124 JUMP JUMPDEST DUP3 ADD SWAP2 SWAP1 PUSH1 0x0 MSTORE PUSH1 0x20 PUSH1 0x0 KECCAK256 SWAP1 JUMPDEST DUP2 SLOAD DUP2 MSTORE SWAP1 PUSH1 0x1 ADD SWAP1 PUSH1 0x20 ADD DUP1 DUP4 GT PUSH2 0x107 JUMPI DUP3 SWAP1 SUB PUSH1 0x1F AND DUP3 ADD SWAP2 JUMPDEST POP POP POP POP POP DUP2 JUMP JUMPDEST PUSH1 0x1 PUSH1 0x0 SWAP1 SLOAD SWAP1 PUSH2 0x100 EXP SWAP1 DIV PUSH20 0xFFFFFFFFFFFFFFFFFFFFFFFFFFFFFFFFFFFFFFFF AND DUP2 JUMP JUMPDEST POP JUMP JUMPDEST PUSH1 0x0 DUP2 CALLDATALOAD SWAP1 POP PUSH2 0x164 DUP2 PUSH2 0x31E JUMP JUMPDEST SWAP3 SWAP2 POP POP JUMP JUMPDEST PUSH1 0x0 PUSH1 0x20 DUP3 DUP5 SUB SLT ISZERO PUSH2 0x180 JUMPI PUSH2 0x17F PUSH2 0x308 JUMP JUMPDEST JUMPDEST PUSH1 0x0 PUSH2 0x18E DUP5 DUP3 DUP6 ADD PUSH2 0x155 JUMP JUMPDEST SWAP2 POP POP SWAP3 SWAP2 POP POP JUMP JUMPDEST PUSH2 0x1A0 DUP2 PUSH2 0x238 JUMP JUMPDEST DUP3 MSTORE POP POP JUMP JUMPDEST PUSH1 0x0 PUSH2 0x1B1 DUP3 PUSH2 0x21C JUMP JUMPDEST PUSH2 0x1BB DUP2 DUP6 PUSH2 0x227 JUMP JUMPDEST SWAP4 POP PUSH2 0x1CB DUP2 DUP6 PUSH1 0x20 DUP7 ADD PUSH2 0x274 JUMP JUMPDEST PUSH2 0x1D4 DUP2 PUSH2 0x30D JUMP JUMPDEST DUP5 ADD SWAP2 POP POP SWAP3 SWAP2 POP POP JUMP JUMPDEST PUSH1 0x0 PUSH1 0x20 DUP3 ADD SWAP1 POP PUSH2 0x1F4 PUSH1 0x0 DUP4 ADD DUP5 PUSH2 0x197 JUMP JUMPDEST SWAP3 SWAP2 POP POP JUMP JUMPDEST PUSH1 0x0 PUSH1 0x20 DUP3 ADD SWAP1 POP DUP2 DUP2 SUB PUSH1 0x0 DUP4 ADD MSTORE PUSH2 0x214 DUP2 DUP5 PUSH2 0x1A6 JUMP JUMPDEST SWAP1 POP SWAP3 SWAP2 POP POP JUMP JUMPDEST PUSH1 0x0 DUP2 MLOAD SWAP1 POP SWAP2 SWAP1 POP JUMP JUMPDEST PUSH1 0x0 DUP3 DUP3 MSTORE PUSH1 0x20 DUP3 ADD SWAP1 POP SWAP3 SWAP2 POP POP JUMP JUMPDEST PUSH1 0x0 PUSH2 0x243 DUP3 PUSH2 0x24A JUMP JUMPDEST SWAP1 POP SWAP2 SWAP1 POP JUMP JUMPDEST PUSH1 0x0 PUSH20 0xFFFFFFFFFFFFFFFFFFFFFFFFFFFFFFFFFFFFFFFF DUP3 AND SWAP1 POP SWAP2 SWAP1 POP JUMP JUMPDEST PUSH1 0x0 DUP2 SWAP1 POP SWAP2 SWAP1 POP JUMP JUMPDEST PUSH1 0x0 JUMPDEST DUP4 DUP2 LT ISZERO PUSH2 0x292 JUMPI DUP1 DUP3 ADD MLOAD DUP2 DUP5 ADD MSTORE PUSH1 0x20 DUP2 ADD SWAP1 POP PUSH2 0x277 JUMP JUMPDEST DUP4 DUP2 GT ISZERO PUSH2 0x2A1 JUMPI PUSH1 0x0 DUP5 DUP5 ADD MSTORE JUMPDEST POP POP POP POP JUMP JUMPDEST PUSH1 0x0 PUSH1 0x2 DUP3 DIV SWAP1 POP PUSH1 0x1 DUP3 AND DUP1 PUSH2 0x2BF JUMPI PUSH1 0x7F DUP3 AND SWAP2 POP JUMPDEST PUSH1 0x20 DUP3 LT DUP2 EQ ISZERO PUSH2 0x2D3 JUMPI PUSH2 0x2D2 PUSH2 0x2D9 JUMP JUMPDEST JUMPDEST POP SWAP2 SWAP1 POP JUMP JUMPDEST PUSH32 0x4E487B7100000000000000000000000000000000000000000000000000000000 PUSH1 0x0 MSTORE PUSH1 0x22 PUSH1 0x4 MSTORE PUSH1 0x24 PUSH1 0x0 REVERT JUMPDEST PUSH1 0x0 DUP1 REVERT JUMPDEST PUSH1 0x0 PUSH1 0x1F NOT PUSH1 0x1F DUP4 ADD AND SWAP1 POP SWAP2 SWAP1 POP JUMP JUMPDEST PUSH2 0x327 DUP2 PUSH2 0x26A JUMP JUMPDEST DUP2 EQ PUSH2 0x332 JUMPI PUSH1 0x0 DUP1 REVERT JUMPDEST POP JUMP INVALID LOG2 PUSH5 0x6970667358 0x22 SLT KECCAK256 PC 0xF6 SWAP2 0xF8 PUSH32 0x4D8B331A4073ABAE38C522502F29F9A79761F831CC273E9D471D5664736F6C63 NUMBER STOP ADDMOD SMOD STOP CALLER PUSH1 0x80 PUSH1 0x40 MSTORE CALLVALUE DUP1 ISZERO PUSH2 0x10 JUMPI PUSH1 0x0 DUP1 REVERT JUMPDEST POP PUSH2 0x293 DUP1 PUSH2 0x20 PUSH1 0x0 CODECOPY PUSH1 0x0 RETURN INVALID PUSH1 0x80 PUSH1 0x40 MSTORE PUSH1 0x4 CALLDATASIZE LT PUSH2 0x38 JUMPI PUSH1 0x0 CALLDATALOAD PUSH1 0xE0 SHR DUP1 PUSH4 0xDBE671F EQ PUSH2 0x44 JUMPI DUP1 PUSH4 0xEE919D50 EQ PUSH2 0x6F JUMPI DUP1 PUSH4 0xF5F5BA72 EQ PUSH2 0x98 JUMPI PUSH2 0x3F JUMP JUMPDEST CALLDATASIZE PUSH2 0x3F JUMPI STOP JUMPDEST PUSH1 0x0 DUP1 REVERT JUMPDEST CALLVALUE DUP1 ISZERO PUSH2 0x50 JUMPI PUSH1 0x0 DUP1 REVERT JUMPDEST POP PUSH2 0x59 PUSH2 0xC3 JUMP JUMPDEST PUSH1 0x40 MLOAD PUSH2 0x66 SWAP2 SWAP1 PUSH2 0x1BC JUMP JUMPDEST PUSH1 0x40 MLOAD DUP1 SWAP2 SUB SWAP1 RETURN JUMPDEST CALLVALUE DUP1 ISZERO PUSH2 0x7B JUMPI PUSH1 0x0 DUP1 REVERT JUMPDEST POP PUSH2 0x96 PUSH1 0x4 DUP1 CALLDATASIZE SUB DUP2 ADD SWAP1 PUSH2 0x91 SWAP2 SWAP1 PUSH2 0x125 JUMP JUMPDEST PUSH2 0xC9 JUMP JUMPDEST STOP JUMPDEST CALLVALUE DUP1 ISZERO PUSH2 0xA4 JUMPI PUSH1 0x0 DUP1 REVERT JUMPDEST POP PUSH2 0xAD PUSH2 0xD3 JUMP JUMPDEST PUSH1 0x40 MLOAD PUSH2 0xBA SWAP2 SWAP1 PUSH2 0x19A JUMP JUMPDEST PUSH1 0x40 MLOAD DUP1 SWAP2 SUB SWAP1 RETURN JUMPDEST PUSH1 0x0 SLOAD DUP2 JUMP JUMPDEST DUP1 PUSH1 0x0 DUP2 SWAP1 SSTORE POP POP JUMP JUMPDEST PUSH1 0x60 PUSH1 0x40 MLOAD DUP1 PUSH1 0x40 ADD PUSH1 0x40 MSTORE DUP1 PUSH1 0x6 DUP2 MSTORE PUSH1 0x20 ADD PUSH32 0x7479706531330000000000000000000000000000000000000000000000000000 DUP2 MSTORE POP SWAP1 POP SWAP1 JUMP JUMPDEST PUSH1 0x0 DUP2 CALLDATALOAD SWAP1 POP PUSH2 0x11F DUP2 PUSH2 0x246 JUMP JUMPDEST SWAP3 SWAP2 POP POP JUMP JUMPDEST PUSH1 0x0 PUSH1 0x20 DUP3 DUP5 SUB SLT ISZERO PUSH2 0x13B JUMPI PUSH2 0x13A PUSH2 0x230 JUMP JUMPDEST JUMPDEST PUSH1 0x0 PUSH2 0x149 DUP5 DUP3 DUP6 ADD PUSH2 0x110 JUMP JUMPDEST SWAP2 POP POP SWAP3 SWAP2 POP POP JUMP JUMPDEST PUSH1 0x0 PUSH2 0x15D DUP3 PUSH2 0x1D7 JUMP JUMPDEST PUSH2 0x167 DUP2 DUP6 PUSH2 0x1E2 JUMP JUMPDEST SWAP4 POP PUSH2 0x177 DUP2 DUP6 PUSH1 0x20 DUP7 ADD PUSH2 0x1FD JUMP JUMPDEST PUSH2 0x180 DUP2 PUSH2 0x235 JUMP JUMPDEST DUP5 ADD SWAP2 POP POP SWAP3 SWAP2 POP POP JUMP JUMPDEST PUSH2 0x194 DUP2 PUSH2 0x1F3 JUMP JUMPDEST DUP3 MSTORE POP POP JUMP JUMPDEST PUSH1 0x0 PUSH1 0x20 DUP3 ADD SWAP1 POP DUP2 DUP2 SUB PUSH1 0x0 DUP4 ADD MSTORE PUSH2 0x1B4 DUP2 DUP5 PUSH2 0x152 JUMP JUMPDEST SWAP1 POP SWAP3 SWAP2 POP POP JUMP JUMPDEST PUSH1 0x0 PUSH1 0x20 DUP3 ADD SWAP1 POP PUSH2 0x1D1 PUSH1 0x0 DUP4 ADD DUP5 PUSH2 0x18B JUMP JUMPDEST SWAP3 SWAP2 POP POP JUMP JUMPDEST PUSH1 0x0 DUP2 MLOAD SWAP1 POP SWAP2 SWAP1 POP JUMP JUMPDEST PUSH1 0x0 DUP3 DUP3 MSTORE PUSH1 0x20 DUP3 ADD SWAP1 POP SWAP3 SWAP2 POP POP JUMP JUMPDEST PUSH1 0x0 DUP2 SWAP1 POP SWAP2 SWAP1 POP JUMP JUMPDEST PUSH1 0x0 JUMPDEST DUP4 DUP2 LT ISZERO PUSH2 0x21B JUMPI DUP1 DUP3 ADD MLOAD DUP2 DUP5 ADD MSTORE PUSH1 0x20 DUP2 ADD SWAP1 POP PUSH2 0x200 JUMP JUMPDEST DUP4 DUP2 GT ISZERO PUSH2 0x22A JUMPI PUSH1 0x0 DUP5 DUP5 ADD MSTORE JUMPDEST POP POP POP POP JUMP JUMPDEST PUSH1 0x0 DUP1 REVERT JUMPDEST PUSH1 0x0 PUSH1 0x1F NOT PUSH1 0x1F DUP4 ADD AND SWAP1 POP SWAP2 SWAP1 POP JUMP JUMPDEST PUSH2 0x24F DUP2 PUSH2 0x1F3 JUMP JUMPDEST DUP2 EQ PUSH2 0x25A JUMPI PUSH1 0x0 DUP1 REVERT JUMPDEST POP JUMP INVALID LOG2 PUSH5 0x6970667358 0x22 SLT KECCAK256 PUSH3 0x4EA424 GASPRICE PUSH14 0xA3B5552C7DE357927B21DADC6BB3 PUSH25 0x44DB97151B45E525690F9D64736F6C63430008070033000000 "
				},
				"gasEstimates": {
					"creation": {
						"codeDepositCost": "175000",
						"executionCost": "infinite",
						"totalCost": "infinite"
					},
					"external": {
						"contractaddr()": "2514",
						"setA(uint256)": "428",
						"str()": "infinite"
					}
				},
				"methodIdentifiers": {
					"contractaddr()": "d01bb4d5",
					"setA(uint256)": "ee919d50",
					"str()": "c15bae84"
				}
			},
			"storageLayout": {
				"storage": [
					{
						"astId": 33,
						"contract": "chapter02/9type3.sol:type14",
						"label": "t",
						"offset": 0,
						"slot": "0",
						"type": "t_contract(type13)26"
					},
					{
						"astId": 39,
						"contract": "chapter02/9type3.sol:type14",
						"label": "contractaddr",
						"offset": 0,
						"slot": "1",
						"type": "t_address"
					},
					{
						"astId": 44,
						"contract": "chapter02/9type3.sol:type14",
						"label": "str",
						"offset": 0,
						"slot": "2",
						"type": "t_string_storage"
					}
				],
				"types": {
					"t_address": {
						"encoding": "inplace",
						"label": "address",
						"numberOfBytes": "20"
					},
					"t_contract(type13)26": {
						"encoding": "inplace",
						"label": "contract type13",
						"numberOfBytes": "20"
					},
					"t_string_storage": {
						"encoding": "bytes",
						"label": "string",
						"numberOfBytes": "32"
					}
				}
			},
			"userdoc": {
				"kind": "user",
				"methods": {},
				"version": 1
			}
		}
	}
}