{
	"study/chapter02/contractContent.sol": {
		"contractContent": {
			"abi": [
				{
					"anonymous": false,
					"inputs": [
						{
							"indexed": false,
							"internalType": "uint256",
							"name": "l1",
							"type": "uint256"
						},
						{
							"indexed": false,
							"internalType": "address",
							"name": "ad",
							"type": "address"
						}
					],
					"name": "Log",
					"type": "event"
				},
				{
					"inputs": [],
					"name": "a",
					"outputs": [
						{
							"internalType": "uint256",
							"name": "",
							"type": "uint256"
						}
					],
					"stateMutability": "view",
					"type": "function"
				},
				{
					"inputs": [],
					"name": "example",
					"outputs": [
						{
							"internalType": "string",
							"name": "",
							"type": "string"
						}
					],
					"stateMutability": "pure",
					"type": "function"
				}
			],
			"devdoc": {
				"kind": "dev",
				"methods": {},
				"version": 1
			},
			"evm": {
				"assembly": "    /* \"study/chapter02/contractContent.sol\":56:364  contract contractContent{... */\n  mstore(0x40, 0x80)\n  callvalue\n  dup1\n  iszero\n  tag_1\n  jumpi\n  0x00\n  dup1\n  revert\ntag_1:\n  pop\n  dataSize(sub_0)\n  dup1\n  dataOffset(sub_0)\n  0x00\n  codecopy\n  0x00\n  return\nstop\n\nsub_0: assembly {\n        /* \"study/chapter02/contractContent.sol\":56:364  contract contractContent{... */\n      mstore(0x40, 0x80)\n      callvalue\n      dup1\n      iszero\n      tag_1\n      jumpi\n      0x00\n      dup1\n      revert\n    tag_1:\n      pop\n      jumpi(tag_2, lt(calldatasize, 0x04))\n      shr(0xe0, calldataload(0x00))\n      dup1\n      0x0dbe671f\n      eq\n      tag_3\n      jumpi\n      dup1\n      0x54353f2f\n      eq\n      tag_4\n      jumpi\n    tag_2:\n      0x00\n      dup1\n      revert\n        /* \"study/chapter02/contractContent.sol\":86:99  uint public a */\n    tag_3:\n      tag_5\n      tag_6\n      jump\t// in\n    tag_5:\n      mload(0x40)\n      tag_7\n      swap2\n      swap1\n      tag_8\n      jump\t// in\n    tag_7:\n      mload(0x40)\n      dup1\n      swap2\n      sub\n      swap1\n      return\n        /* \"study/chapter02/contractContent.sol\":160:249  function example()external pure returns(string memory){... */\n    tag_4:\n      tag_9\n      tag_10\n      jump\t// in\n    tag_9:\n      mload(0x40)\n      tag_11\n      swap2\n      swap1\n      tag_12\n      jump\t// in\n    tag_11:\n      mload(0x40)\n      dup1\n      swap2\n      sub\n      swap1\n      return\n        /* \"study/chapter02/contractContent.sol\":86:99  uint public a */\n    tag_6:\n      sload(0x00)\n      dup2\n      jump\t// out\n        /* \"study/chapter02/contractContent.sol\":160:249  function example()external pure returns(string memory){... */\n    tag_10:\n        /* \"study/chapter02/contractContent.sol\":200:213  string memory */\n      0x60\n        /* \"study/chapter02/contractContent.sol\":224:242  return \"i am func\" */\n      mload(0x40)\n      dup1\n      0x40\n      add\n      0x40\n      mstore\n      dup1\n      0x09\n      dup2\n      mstore\n      0x20\n      add\n      0x6920616d2066756e630000000000000000000000000000000000000000000000\n      dup2\n      mstore\n      pop\n      swap1\n      pop\n        /* \"study/chapter02/contractContent.sol\":160:249  function example()external pure returns(string memory){... */\n      swap1\n      jump\t// out\n        /* \"#utility.yul\":7:371   */\n    tag_15:\n      0x00\n        /* \"#utility.yul\":123:162   */\n      tag_17\n        /* \"#utility.yul\":156:161   */\n      dup3\n        /* \"#utility.yul\":123:162   */\n      tag_18\n      jump\t// in\n    tag_17:\n        /* \"#utility.yul\":178:249   */\n      tag_19\n        /* \"#utility.yul\":242:248   */\n      dup2\n        /* \"#utility.yul\":237:240   */\n      dup6\n        /* \"#utility.yul\":178:249   */\n      tag_20\n      jump\t// in\n    tag_19:\n        /* \"#utility.yul\":171:249   */\n      swap4\n      pop\n        /* \"#utility.yul\":258:310   */\n      tag_21\n        /* \"#utility.yul\":303:309   */\n      dup2\n        /* \"#utility.yul\":298:301   */\n      dup6\n        /* \"#utility.yul\":291:295   */\n      0x20\n        /* \"#utility.yul\":284:289   */\n      dup7\n        /* \"#utility.yul\":280:296   */\n      add\n        /* \"#utility.yul\":258:310   */\n      tag_22\n      jump\t// in\n    tag_21:\n        /* \"#utility.yul\":335:364   */\n      tag_23\n        /* \"#utility.yul\":357:363   */\n      dup2\n        /* \"#utility.yul\":335:364   */\n      tag_24\n      jump\t// in\n    tag_23:\n        /* \"#utility.yul\":330:333   */\n      dup5\n        /* \"#utility.yul\":326:365   */\n      add\n        /* \"#utility.yul\":319:365   */\n      swap2\n      pop\n        /* \"#utility.yul\":99:371   */\n      pop\n      swap3\n      swap2\n      pop\n      pop\n      jump\t// out\n        /* \"#utility.yul\":377:495   */\n    tag_25:\n        /* \"#utility.yul\":464:488   */\n      tag_27\n        /* \"#utility.yul\":482:487   */\n      dup2\n        /* \"#utility.yul\":464:488   */\n      tag_28\n      jump\t// in\n    tag_27:\n        /* \"#utility.yul\":459:462   */\n      dup3\n        /* \"#utility.yul\":452:489   */\n      mstore\n        /* \"#utility.yul\":442:495   */\n      pop\n      pop\n      jump\t// out\n        /* \"#utility.yul\":501:814   */\n    tag_12:\n      0x00\n        /* \"#utility.yul\":652:654   */\n      0x20\n        /* \"#utility.yul\":641:650   */\n      dup3\n        /* \"#utility.yul\":637:655   */\n      add\n        /* \"#utility.yul\":629:655   */\n      swap1\n      pop\n        /* \"#utility.yul\":701:710   */\n      dup2\n        /* \"#utility.yul\":695:699   */\n      dup2\n        /* \"#utility.yul\":691:711   */\n      sub\n        /* \"#utility.yul\":687:688   */\n      0x00\n        /* \"#utility.yul\":676:685   */\n      dup4\n        /* \"#utility.yul\":672:689   */\n      add\n        /* \"#utility.yul\":665:712   */\n      mstore\n        /* \"#utility.yul\":729:807   */\n      tag_30\n        /* \"#utility.yul\":802:806   */\n      dup2\n        /* \"#utility.yul\":793:799   */\n      dup5\n        /* \"#utility.yul\":729:807   */\n      tag_15\n      jump\t// in\n    tag_30:\n        /* \"#utility.yul\":721:807   */\n      swap1\n      pop\n        /* \"#utility.yul\":619:814   */\n      swap3\n      swap2\n      pop\n      pop\n      jump\t// out\n        /* \"#utility.yul\":820:1042   */\n    tag_8:\n      0x00\n        /* \"#utility.yul\":951:953   */\n      0x20\n        /* \"#utility.yul\":940:949   */\n      dup3\n        /* \"#utility.yul\":936:954   */\n      add\n        /* \"#utility.yul\":928:954   */\n      swap1\n      pop\n        /* \"#utility.yul\":964:1035   */\n      tag_32\n        /* \"#utility.yul\":1032:1033   */\n      0x00\n        /* \"#utility.yul\":1021:1030   */\n      dup4\n        /* \"#utility.yul\":1017:1034   */\n      add\n        /* \"#utility.yul\":1008:1014   */\n      dup5\n        /* \"#utility.yul\":964:1035   */\n      tag_25\n      jump\t// in\n    tag_32:\n        /* \"#utility.yul\":918:1042   */\n      swap3\n      swap2\n      pop\n      pop\n      jump\t// out\n        /* \"#utility.yul\":1048:1147   */\n    tag_18:\n      0x00\n        /* \"#utility.yul\":1134:1139   */\n      dup2\n        /* \"#utility.yul\":1128:1140   */\n      mload\n        /* \"#utility.yul\":1118:1140   */\n      swap1\n      pop\n        /* \"#utility.yul\":1107:1147   */\n      swap2\n      swap1\n      pop\n      jump\t// out\n        /* \"#utility.yul\":1153:1322   */\n    tag_20:\n      0x00\n        /* \"#utility.yul\":1271:1277   */\n      dup3\n        /* \"#utility.yul\":1266:1269   */\n      dup3\n        /* \"#utility.yul\":1259:1278   */\n      mstore\n        /* \"#utility.yul\":1311:1315   */\n      0x20\n        /* \"#utility.yul\":1306:1309   */\n      dup3\n        /* \"#utility.yul\":1302:1316   */\n      add\n        /* \"#utility.yul\":1287:1316   */\n      swap1\n      pop\n        /* \"#utility.yul\":1249:1322   */\n      swap3\n      swap2\n      pop\n      pop\n      jump\t// out\n        /* \"#utility.yul\":1328:1405   */\n    tag_28:\n      0x00\n        /* \"#utility.yul\":1394:1399   */\n      dup2\n        /* \"#utility.yul\":1383:1399   */\n      swap1\n      pop\n        /* \"#utility.yul\":1373:1405   */\n      swap2\n      swap1\n      pop\n      jump\t// out\n        /* \"#utility.yul\":1411:1718   */\n    tag_22:\n        /* \"#utility.yul\":1479:1480   */\n      0x00\n        /* \"#utility.yul\":1489:1602   */\n    tag_37:\n        /* \"#utility.yul\":1503:1509   */\n      dup4\n        /* \"#utility.yul\":1500:1501   */\n      dup2\n        /* \"#utility.yul\":1497:1510   */\n      lt\n        /* \"#utility.yul\":1489:1602   */\n      iszero\n      tag_39\n      jumpi\n        /* \"#utility.yul\":1588:1589   */\n      dup1\n        /* \"#utility.yul\":1583:1586   */\n      dup3\n        /* \"#utility.yul\":1579:1590   */\n      add\n        /* \"#utility.yul\":1573:1591   */\n      mload\n        /* \"#utility.yul\":1569:1570   */\n      dup2\n        /* \"#utility.yul\":1564:1567   */\n      dup5\n        /* \"#utility.yul\":1560:1571   */\n      add\n        /* \"#utility.yul\":1553:1592   */\n      mstore\n        /* \"#utility.yul\":1525:1527   */\n      0x20\n        /* \"#utility.yul\":1522:1523   */\n      dup2\n        /* \"#utility.yul\":1518:1528   */\n      add\n        /* \"#utility.yul\":1513:1528   */\n      swap1\n      pop\n        /* \"#utility.yul\":1489:1602   */\n      jump(tag_37)\n    tag_39:\n        /* \"#utility.yul\":1620:1626   */\n      dup4\n        /* \"#utility.yul\":1617:1618   */\n      dup2\n        /* \"#utility.yul\":1614:1627   */\n      gt\n        /* \"#utility.yul\":1611:1613   */\n      iszero\n      tag_40\n      jumpi\n        /* \"#utility.yul\":1700:1701   */\n      0x00\n        /* \"#utility.yul\":1691:1697   */\n      dup5\n        /* \"#utility.yul\":1686:1689   */\n      dup5\n        /* \"#utility.yul\":1682:1698   */\n      add\n        /* \"#utility.yul\":1675:1702   */\n      mstore\n        /* \"#utility.yul\":1611:1613   */\n    tag_40:\n        /* \"#utility.yul\":1460:1718   */\n      pop\n      pop\n      pop\n      pop\n      jump\t// out\n        /* \"#utility.yul\":1724:1826   */\n    tag_24:\n      0x00\n        /* \"#utility.yul\":1816:1818   */\n      0x1f\n        /* \"#utility.yul\":1812:1819   */\n      not\n        /* \"#utility.yul\":1807:1809   */\n      0x1f\n        /* \"#utility.yul\":1800:1805   */\n      dup4\n        /* \"#utility.yul\":1796:1810   */\n      add\n        /* \"#utility.yul\":1792:1820   */\n      and\n        /* \"#utility.yul\":1782:1820   */\n      swap1\n      pop\n        /* \"#utility.yul\":1772:1826   */\n      swap2\n      swap1\n      pop\n      jump\t// out\n\n    auxdata: 0xa26469706673582212200c3281543b4f884a5dc8024988e7974d53edba9f4f3b561c500810e2d2e7d15e64736f6c63430008010033\n}\n",
				"bytecode": {
					"linkReferences": {},
					"object": "608060405234801561001057600080fd5b506101df806100206000396000f3fe608060405234801561001057600080fd5b50600436106100365760003560e01c80630dbe671f1461003b57806354353f2f14610059575b600080fd5b610043610077565b6040516100509190610124565b60405180910390f35b61006161007d565b60405161006e9190610102565b60405180910390f35b60005481565b60606040518060400160405280600981526020017f6920616d2066756e630000000000000000000000000000000000000000000000815250905090565b60006100c58261013f565b6100cf818561014a565b93506100df818560208601610165565b6100e881610198565b840191505092915050565b6100fc8161015b565b82525050565b6000602082019050818103600083015261011c81846100ba565b905092915050565b600060208201905061013960008301846100f3565b92915050565b600081519050919050565b600082825260208201905092915050565b6000819050919050565b60005b83811015610183578082015181840152602081019050610168565b83811115610192576000848401525b50505050565b6000601f19601f830116905091905056fea26469706673582212200c3281543b4f884a5dc8024988e7974d53edba9f4f3b561c500810e2d2e7d15e64736f6c63430008010033",
					"opcodes": "PUSH1 0x80 PUSH1 0x40 MSTORE CALLVALUE DUP1 ISZERO PUSH2 0x10 JUMPI PUSH1 0x0 DUP1 REVERT JUMPDEST POP PUSH2 0x1DF DUP1 PUSH2 0x20 PUSH1 0x0 CODECOPY PUSH1 0x0 RETURN INVALID PUSH1 0x80 PUSH1 0x40 MSTORE CALLVALUE DUP1 ISZERO PUSH2 0x10 JUMPI PUSH1 0x0 DUP1 REVERT JUMPDEST POP PUSH1 0x4 CALLDATASIZE LT PUSH2 0x36 JUMPI PUSH1 0x0 CALLDATALOAD PUSH1 0xE0 SHR DUP1 PUSH4 0xDBE671F EQ PUSH2 0x3B JUMPI DUP1 PUSH4 0x54353F2F EQ PUSH2 0x59 JUMPI JUMPDEST PUSH1 0x0 DUP1 REVERT JUMPDEST PUSH2 0x43 PUSH2 0x77 JUMP JUMPDEST PUSH1 0x40 MLOAD PUSH2 0x50 SWAP2 SWAP1 PUSH2 0x124 JUMP JUMPDEST PUSH1 0x40 MLOAD DUP1 SWAP2 SUB SWAP1 RETURN JUMPDEST PUSH2 0x61 PUSH2 0x7D JUMP JUMPDEST PUSH1 0x40 MLOAD PUSH2 0x6E SWAP2 SWAP1 PUSH2 0x102 JUMP JUMPDEST PUSH1 0x40 MLOAD DUP1 SWAP2 SUB SWAP1 RETURN JUMPDEST PUSH1 0x0 SLOAD DUP2 JUMP JUMPDEST PUSH1 0x60 PUSH1 0x40 MLOAD DUP1 PUSH1 0x40 ADD PUSH1 0x40 MSTORE DUP1 PUSH1 0x9 DUP2 MSTORE PUSH1 0x20 ADD PUSH32 0x6920616D2066756E630000000000000000000000000000000000000000000000 DUP2 MSTORE POP SWAP1 POP SWAP1 JUMP JUMPDEST PUSH1 0x0 PUSH2 0xC5 DUP3 PUSH2 0x13F JUMP JUMPDEST PUSH2 0xCF DUP2 DUP6 PUSH2 0x14A JUMP JUMPDEST SWAP4 POP PUSH2 0xDF DUP2 DUP6 PUSH1 0x20 DUP7 ADD PUSH2 0x165 JUMP JUMPDEST PUSH2 0xE8 DUP2 PUSH2 0x198 JUMP JUMPDEST DUP5 ADD SWAP2 POP POP SWAP3 SWAP2 POP POP JUMP JUMPDEST PUSH2 0xFC DUP2 PUSH2 0x15B JUMP JUMPDEST DUP3 MSTORE POP POP JUMP JUMPDEST PUSH1 0x0 PUSH1 0x20 DUP3 ADD SWAP1 POP DUP2 DUP2 SUB PUSH1 0x0 DUP4 ADD MSTORE PUSH2 0x11C DUP2 DUP5 PUSH2 0xBA JUMP JUMPDEST SWAP1 POP SWAP3 SWAP2 POP POP JUMP JUMPDEST PUSH1 0x0 PUSH1 0x20 DUP3 ADD SWAP1 POP PUSH2 0x139 PUSH1 0x0 DUP4 ADD DUP5 PUSH2 0xF3 JUMP JUMPDEST SWAP3 SWAP2 POP POP JUMP JUMPDEST PUSH1 0x0 DUP2 MLOAD SWAP1 POP SWAP2 SWAP1 POP JUMP JUMPDEST PUSH1 0x0 DUP3 DUP3 MSTORE PUSH1 0x20 DUP3 ADD SWAP1 POP SWAP3 SWAP2 POP POP JUMP JUMPDEST PUSH1 0x0 DUP2 SWAP1 POP SWAP2 SWAP1 POP JUMP JUMPDEST PUSH1 0x0 JUMPDEST DUP4 DUP2 LT ISZERO PUSH2 0x183 JUMPI DUP1 DUP3 ADD MLOAD DUP2 DUP5 ADD MSTORE PUSH1 0x20 DUP2 ADD SWAP1 POP PUSH2 0x168 JUMP JUMPDEST DUP4 DUP2 GT ISZERO PUSH2 0x192 JUMPI PUSH1 0x0 DUP5 DUP5 ADD MSTORE JUMPDEST POP POP POP POP JUMP JUMPDEST PUSH1 0x0 PUSH1 0x1F NOT PUSH1 0x1F DUP4 ADD AND SWAP1 POP SWAP2 SWAP1 POP JUMP INVALID LOG2 PUSH5 0x6970667358 0x22 SLT KECCAK256 0xC ORIGIN DUP2 SLOAD EXTCODESIZE 0x4F DUP9 0x4A 0x5D 0xC8 MUL 0x49 DUP9 0xE7 SWAP8 0x4D MSTORE8 0xED 0xBA SWAP16 0x4F EXTCODESIZE JUMP SHR POP ADDMOD LT 0xE2 0xD2 0xE7 0xD1 0x5E PUSH5 0x736F6C6343 STOP ADDMOD ADD STOP CALLER "
				},
				"gasEstimates": {
					"creation": {
						"codeDepositCost": "95800",
						"executionCost": "141",
						"totalCost": "95941"
					},
					"external": {
						"a()": "1107",
						"example()": "infinite"
					}
				},
				"methodIdentifiers": {
					"a()": "0dbe671f",
					"example()": "54353f2f"
				}
			},
			"storageLayout": {
				"storage": [
					{
						"astId": 3,
						"contract": "study/chapter02/contractContent.sol:contractContent",
						"label": "a",
						"offset": 0,
						"slot": "0",
						"type": "t_uint256"
					}
				],
				"types": {
					"t_uint256": {
						"encoding": "inplace",
						"label": "uint256",
						"numberOfBytes": "32"
					}
				}
			},
			"userdoc": {
				"kind": "user",
				"methods": {},
				"version": 1
			}
		}
	}
}