{
	"chapter02/8type2.sol": {
		"type3": {
			"abi": [
				{
					"inputs": [],
					"name": "i1",
					"outputs": [
						{
							"internalType": "uint8",
							"name": "",
							"type": "uint8"
						}
					],
					"stateMutability": "view",
					"type": "function"
				},
				{
					"inputs": [],
					"name": "i2",
					"outputs": [
						{
							"internalType": "uint256",
							"name": "",
							"type": "uint256"
						}
					],
					"stateMutability": "view",
					"type": "function"
				},
				{
					"inputs": [],
					"name": "i3",
					"outputs": [
						{
							"internalType": "uint256",
							"name": "",
							"type": "uint256"
						}
					],
					"stateMutability": "view",
					"type": "function"
				},
				{
					"inputs": [],
					"name": "i4",
					"outputs": [
						{
							"internalType": "int8",
							"name": "",
							"type": "int8"
						}
					],
					"stateMutability": "view",
					"type": "function"
				},
				{
					"inputs": [],
					"name": "i5",
					"outputs": [
						{
							"internalType": "int256",
							"name": "",
							"type": "int256"
						}
					],
					"stateMutability": "view",
					"type": "function"
				}
			],
			"devdoc": {
				"kind": "dev",
				"methods": {},
				"version": 1
			},
			"evm": {
				"assembly": "    /* \"chapter02/8type2.sol\":120:257  contract type3{... */\n  mstore(0x40, 0x80)\n    /* \"chapter02/8type2.sol\":156:157  1 */\n  0x01\n    /* \"chapter02/8type2.sol\":138:157  uint8 public i1 = 1 */\n  0x00\n  dup1\n  0x0100\n  exp\n  dup2\n  sload\n  dup2\n  0xff\n  mul\n  not\n  and\n  swap1\n  dup4\n  0xff\n  and\n  mul\n  or\n  swap1\n  sstore\n  pop\n    /* \"chapter02/8type2.sol\":180:181  2 */\n  0x02\n    /* \"chapter02/8type2.sol\":161:181  uint256 public i2 =2 */\n  0x01\n  sstore\n    /* \"chapter02/8type2.sol\":202:203  3 */\n  0x03\n    /* \"chapter02/8type2.sol\":185:203  uint public i3 = 3 */\n  0x02\n  sstore\n    /* \"chapter02/8type2.sol\":224:225  4 */\n  0x04\n    /* \"chapter02/8type2.sol\":207:225  int8 public i4 = 4 */\n  0x03\n  exp(0x0100, 0x00)\n  dup2\n  sload\n  dup2\n  0xff\n  mul\n  not\n  and\n  swap1\n  dup4\n  0x00\n  signextend\n  0xff\n  and\n  mul\n  or\n  swap1\n  sstore\n  pop\n    /* \"chapter02/8type2.sol\":248:249  5 */\n  0x05\n    /* \"chapter02/8type2.sol\":229:249  int256 public i5 = 5 */\n  0x04\n  sstore\n    /* \"chapter02/8type2.sol\":120:257  contract type3{... */\n  callvalue\n  dup1\n  iszero\n  tag_1\n  jumpi\n  0x00\n  dup1\n  revert\ntag_1:\n  pop\n  dataSize(sub_0)\n  dup1\n  dataOffset(sub_0)\n  0x00\n  codecopy\n  0x00\n  return\nstop\n\nsub_0: assembly {\n        /* \"chapter02/8type2.sol\":120:257  contract type3{... */\n      mstore(0x40, 0x80)\n      callvalue\n      dup1\n      iszero\n      tag_1\n      jumpi\n      0x00\n      dup1\n      revert\n    tag_1:\n      pop\n      jumpi(tag_2, lt(calldatasize, 0x04))\n      shr(0xe0, calldataload(0x00))\n      dup1\n      0x28897238\n      eq\n      tag_3\n      jumpi\n      dup1\n      0x29031ac2\n      eq\n      tag_4\n      jumpi\n      dup1\n      0x83cdfab8\n      eq\n      tag_5\n      jumpi\n      dup1\n      0xa0792ba7\n      eq\n      tag_6\n      jumpi\n      dup1\n      0xe0ad7eec\n      eq\n      tag_7\n      jumpi\n    tag_2:\n      0x00\n      dup1\n      revert\n        /* \"chapter02/8type2.sol\":138:157  uint8 public i1 = 1 */\n    tag_3:\n      tag_8\n      tag_9\n      jump\t// in\n    tag_8:\n      mload(0x40)\n      tag_10\n      swap2\n      swap1\n      tag_11\n      jump\t// in\n    tag_10:\n      mload(0x40)\n      dup1\n      swap2\n      sub\n      swap1\n      return\n        /* \"chapter02/8type2.sol\":207:225  int8 public i4 = 4 */\n    tag_4:\n      tag_12\n      tag_13\n      jump\t// in\n    tag_12:\n      mload(0x40)\n      tag_14\n      swap2\n      swap1\n      tag_15\n      jump\t// in\n    tag_14:\n      mload(0x40)\n      dup1\n      swap2\n      sub\n      swap1\n      return\n        /* \"chapter02/8type2.sol\":161:181  uint256 public i2 =2 */\n    tag_5:\n      tag_16\n      tag_17\n      jump\t// in\n    tag_16:\n      mload(0x40)\n      tag_18\n      swap2\n      swap1\n      tag_19\n      jump\t// in\n    tag_18:\n      mload(0x40)\n      dup1\n      swap2\n      sub\n      swap1\n      return\n        /* \"chapter02/8type2.sol\":185:203  uint public i3 = 3 */\n    tag_6:\n      tag_20\n      tag_21\n      jump\t// in\n    tag_20:\n      mload(0x40)\n      tag_22\n      swap2\n      swap1\n      tag_19\n      jump\t// in\n    tag_22:\n      mload(0x40)\n      dup1\n      swap2\n      sub\n      swap1\n      return\n        /* \"chapter02/8type2.sol\":229:249  int256 public i5 = 5 */\n    tag_7:\n      tag_23\n      tag_24\n      jump\t// in\n    tag_23:\n      mload(0x40)\n      tag_25\n      swap2\n      swap1\n      tag_26\n      jump\t// in\n    tag_25:\n      mload(0x40)\n      dup1\n      swap2\n      sub\n      swap1\n      return\n        /* \"chapter02/8type2.sol\":138:157  uint8 public i1 = 1 */\n    tag_9:\n      0x00\n      dup1\n      sload\n      swap1\n      0x0100\n      exp\n      swap1\n      div\n      0xff\n      and\n      dup2\n      jump\t// out\n        /* \"chapter02/8type2.sol\":207:225  int8 public i4 = 4 */\n    tag_13:\n      0x03\n      0x00\n      swap1\n      sload\n      swap1\n      0x0100\n      exp\n      swap1\n      div\n      0x00\n      signextend\n      dup2\n      jump\t// out\n        /* \"chapter02/8type2.sol\":161:181  uint256 public i2 =2 */\n    tag_17:\n      sload(0x01)\n      dup2\n      jump\t// out\n        /* \"chapter02/8type2.sol\":185:203  uint public i3 = 3 */\n    tag_21:\n      sload(0x02)\n      dup2\n      jump\t// out\n        /* \"chapter02/8type2.sol\":229:249  int256 public i5 = 5 */\n    tag_24:\n      sload(0x04)\n      dup2\n      jump\t// out\n        /* \"#utility.yul\":7:93   */\n    tag_27:\n        /* \"#utility.yul\":42:49   */\n      0x00\n        /* \"#utility.yul\":82:86   */\n      0xff\n        /* \"#utility.yul\":75:80   */\n      dup3\n        /* \"#utility.yul\":71:87   */\n      and\n        /* \"#utility.yul\":60:87   */\n      swap1\n      pop\n        /* \"#utility.yul\":7:93   */\n      swap2\n      swap1\n      pop\n      jump\t// out\n        /* \"#utility.yul\":99:211   */\n    tag_28:\n        /* \"#utility.yul\":182:204   */\n      tag_38\n        /* \"#utility.yul\":198:203   */\n      dup2\n        /* \"#utility.yul\":182:204   */\n      tag_27\n      jump\t// in\n    tag_38:\n        /* \"#utility.yul\":177:180   */\n      dup3\n        /* \"#utility.yul\":170:205   */\n      mstore\n        /* \"#utility.yul\":99:211   */\n      pop\n      pop\n      jump\t// out\n        /* \"#utility.yul\":217:431   */\n    tag_11:\n        /* \"#utility.yul\":306:310   */\n      0x00\n        /* \"#utility.yul\":344:346   */\n      0x20\n        /* \"#utility.yul\":333:342   */\n      dup3\n        /* \"#utility.yul\":329:347   */\n      add\n        /* \"#utility.yul\":321:347   */\n      swap1\n      pop\n        /* \"#utility.yul\":357:424   */\n      tag_40\n        /* \"#utility.yul\":421:422   */\n      0x00\n        /* \"#utility.yul\":410:419   */\n      dup4\n        /* \"#utility.yul\":406:423   */\n      add\n        /* \"#utility.yul\":397:403   */\n      dup5\n        /* \"#utility.yul\":357:424   */\n      tag_28\n      jump\t// in\n    tag_40:\n        /* \"#utility.yul\":217:431   */\n      swap3\n      swap2\n      pop\n      pop\n      jump\t// out\n        /* \"#utility.yul\":437:526   */\n    tag_29:\n        /* \"#utility.yul\":471:478   */\n      0x00\n        /* \"#utility.yul\":514:519   */\n      dup2\n        /* \"#utility.yul\":511:512   */\n      0x00\n        /* \"#utility.yul\":500:520   */\n      signextend\n        /* \"#utility.yul\":489:520   */\n      swap1\n      pop\n        /* \"#utility.yul\":437:526   */\n      swap2\n      swap1\n      pop\n      jump\t// out\n        /* \"#utility.yul\":532:641   */\n    tag_30:\n        /* \"#utility.yul\":613:634   */\n      tag_43\n        /* \"#utility.yul\":628:633   */\n      dup2\n        /* \"#utility.yul\":613:634   */\n      tag_29\n      jump\t// in\n    tag_43:\n        /* \"#utility.yul\":608:611   */\n      dup3\n        /* \"#utility.yul\":601:635   */\n      mstore\n        /* \"#utility.yul\":532:641   */\n      pop\n      pop\n      jump\t// out\n        /* \"#utility.yul\":647:857   */\n    tag_15:\n        /* \"#utility.yul\":734:738   */\n      0x00\n        /* \"#utility.yul\":772:774   */\n      0x20\n        /* \"#utility.yul\":761:770   */\n      dup3\n        /* \"#utility.yul\":757:775   */\n      add\n        /* \"#utility.yul\":749:775   */\n      swap1\n      pop\n        /* \"#utility.yul\":785:850   */\n      tag_45\n        /* \"#utility.yul\":847:848   */\n      0x00\n        /* \"#utility.yul\":836:845   */\n      dup4\n        /* \"#utility.yul\":832:849   */\n      add\n        /* \"#utility.yul\":823:829   */\n      dup5\n        /* \"#utility.yul\":785:850   */\n      tag_30\n      jump\t// in\n    tag_45:\n        /* \"#utility.yul\":647:857   */\n      swap3\n      swap2\n      pop\n      pop\n      jump\t// out\n        /* \"#utility.yul\":863:940   */\n    tag_31:\n        /* \"#utility.yul\":900:907   */\n      0x00\n        /* \"#utility.yul\":929:934   */\n      dup2\n        /* \"#utility.yul\":918:934   */\n      swap1\n      pop\n        /* \"#utility.yul\":863:940   */\n      swap2\n      swap1\n      pop\n      jump\t// out\n        /* \"#utility.yul\":946:1064   */\n    tag_32:\n        /* \"#utility.yul\":1033:1057   */\n      tag_48\n        /* \"#utility.yul\":1051:1056   */\n      dup2\n        /* \"#utility.yul\":1033:1057   */\n      tag_31\n      jump\t// in\n    tag_48:\n        /* \"#utility.yul\":1028:1031   */\n      dup3\n        /* \"#utility.yul\":1021:1058   */\n      mstore\n        /* \"#utility.yul\":946:1064   */\n      pop\n      pop\n      jump\t// out\n        /* \"#utility.yul\":1070:1292   */\n    tag_19:\n        /* \"#utility.yul\":1163:1167   */\n      0x00\n        /* \"#utility.yul\":1201:1203   */\n      0x20\n        /* \"#utility.yul\":1190:1199   */\n      dup3\n        /* \"#utility.yul\":1186:1204   */\n      add\n        /* \"#utility.yul\":1178:1204   */\n      swap1\n      pop\n        /* \"#utility.yul\":1214:1285   */\n      tag_50\n        /* \"#utility.yul\":1282:1283   */\n      0x00\n        /* \"#utility.yul\":1271:1280   */\n      dup4\n        /* \"#utility.yul\":1267:1284   */\n      add\n        /* \"#utility.yul\":1258:1264   */\n      dup5\n        /* \"#utility.yul\":1214:1285   */\n      tag_32\n      jump\t// in\n    tag_50:\n        /* \"#utility.yul\":1070:1292   */\n      swap3\n      swap2\n      pop\n      pop\n      jump\t// out\n        /* \"#utility.yul\":1298:1374   */\n    tag_33:\n        /* \"#utility.yul\":1334:1341   */\n      0x00\n        /* \"#utility.yul\":1363:1368   */\n      dup2\n        /* \"#utility.yul\":1352:1368   */\n      swap1\n      pop\n        /* \"#utility.yul\":1298:1374   */\n      swap2\n      swap1\n      pop\n      jump\t// out\n        /* \"#utility.yul\":1380:1495   */\n    tag_34:\n        /* \"#utility.yul\":1465:1488   */\n      tag_53\n        /* \"#utility.yul\":1482:1487   */\n      dup2\n        /* \"#utility.yul\":1465:1488   */\n      tag_33\n      jump\t// in\n    tag_53:\n        /* \"#utility.yul\":1460:1463   */\n      dup3\n        /* \"#utility.yul\":1453:1489   */\n      mstore\n        /* \"#utility.yul\":1380:1495   */\n      pop\n      pop\n      jump\t// out\n        /* \"#utility.yul\":1501:1719   */\n    tag_26:\n        /* \"#utility.yul\":1592:1596   */\n      0x00\n        /* \"#utility.yul\":1630:1632   */\n      0x20\n        /* \"#utility.yul\":1619:1628   */\n      dup3\n        /* \"#utility.yul\":1615:1633   */\n      add\n        /* \"#utility.yul\":1607:1633   */\n      swap1\n      pop\n        /* \"#utility.yul\":1643:1712   */\n      tag_55\n        /* \"#utility.yul\":1709:1710   */\n      0x00\n        /* \"#utility.yul\":1698:1707   */\n      dup4\n        /* \"#utility.yul\":1694:1711   */\n      add\n        /* \"#utility.yul\":1685:1691   */\n      dup5\n        /* \"#utility.yul\":1643:1712   */\n      tag_34\n      jump\t// in\n    tag_55:\n        /* \"#utility.yul\":1501:1719   */\n      swap3\n      swap2\n      pop\n      pop\n      jump\t// out\n\n    auxdata: 0xa264697066735822122040379cdcdfb3d17fe34bea0e0e50a43abe4d597c4404ce575466d5e911d4ab6564736f6c634300080f0033\n}\n",
				"bytecode": {
					"linkReferences": {},
					"object": "608060405260016000806101000a81548160ff021916908360ff160217905550600260015560036002556004600360006101000a81548160ff021916908360000b60ff160217905550600560045534801561005957600080fd5b50610234806100696000396000f3fe608060405234801561001057600080fd5b50600436106100575760003560e01c8063288972381461005c57806329031ac21461007a57806383cdfab814610098578063a0792ba7146100b6578063e0ad7eec146100d4575b600080fd5b6100646100f2565b6040516100719190610144565b60405180910390f35b610082610103565b60405161008f919061017b565b60405180910390f35b6100a0610116565b6040516100ad91906101af565b60405180910390f35b6100be61011c565b6040516100cb91906101af565b60405180910390f35b6100dc610122565b6040516100e991906101e3565b60405180910390f35b60008054906101000a900460ff1681565b600360009054906101000a900460000b81565b60015481565b60025481565b60045481565b600060ff82169050919050565b61013e81610128565b82525050565b60006020820190506101596000830184610135565b92915050565b60008160000b9050919050565b6101758161015f565b82525050565b6000602082019050610190600083018461016c565b92915050565b6000819050919050565b6101a981610196565b82525050565b60006020820190506101c460008301846101a0565b92915050565b6000819050919050565b6101dd816101ca565b82525050565b60006020820190506101f860008301846101d4565b9291505056fea264697066735822122040379cdcdfb3d17fe34bea0e0e50a43abe4d597c4404ce575466d5e911d4ab6564736f6c634300080f0033",
					"opcodes": "PUSH1 0x80 PUSH1 0x40 MSTORE PUSH1 0x1 PUSH1 0x0 DUP1 PUSH2 0x100 EXP DUP2 SLOAD DUP2 PUSH1 0xFF MUL NOT AND SWAP1 DUP4 PUSH1 0xFF AND MUL OR SWAP1 SSTORE POP PUSH1 0x2 PUSH1 0x1 SSTORE PUSH1 0x3 PUSH1 0x2 SSTORE PUSH1 0x4 PUSH1 0x3 PUSH1 0x0 PUSH2 0x100 EXP DUP2 SLOAD DUP2 PUSH1 0xFF MUL NOT AND SWAP1 DUP4 PUSH1 0x0 SIGNEXTEND PUSH1 0xFF AND MUL OR SWAP1 SSTORE POP PUSH1 0x5 PUSH1 0x4 SSTORE CALLVALUE DUP1 ISZERO PUSH2 0x59 JUMPI PUSH1 0x0 DUP1 REVERT JUMPDEST POP PUSH2 0x234 DUP1 PUSH2 0x69 PUSH1 0x0 CODECOPY PUSH1 0x0 RETURN INVALID PUSH1 0x80 PUSH1 0x40 MSTORE CALLVALUE DUP1 ISZERO PUSH2 0x10 JUMPI PUSH1 0x0 DUP1 REVERT JUMPDEST POP PUSH1 0x4 CALLDATASIZE LT PUSH2 0x57 JUMPI PUSH1 0x0 CALLDATALOAD PUSH1 0xE0 SHR DUP1 PUSH4 0x28897238 EQ PUSH2 0x5C JUMPI DUP1 PUSH4 0x29031AC2 EQ PUSH2 0x7A JUMPI DUP1 PUSH4 0x83CDFAB8 EQ PUSH2 0x98 JUMPI DUP1 PUSH4 0xA0792BA7 EQ PUSH2 0xB6 JUMPI DUP1 PUSH4 0xE0AD7EEC EQ PUSH2 0xD4 JUMPI JUMPDEST PUSH1 0x0 DUP1 REVERT JUMPDEST PUSH2 0x64 PUSH2 0xF2 JUMP JUMPDEST PUSH1 0x40 MLOAD PUSH2 0x71 SWAP2 SWAP1 PUSH2 0x144 JUMP JUMPDEST PUSH1 0x40 MLOAD DUP1 SWAP2 SUB SWAP1 RETURN JUMPDEST PUSH2 0x82 PUSH2 0x103 JUMP JUMPDEST PUSH1 0x40 MLOAD PUSH2 0x8F SWAP2 SWAP1 PUSH2 0x17B JUMP JUMPDEST PUSH1 0x40 MLOAD DUP1 SWAP2 SUB SWAP1 RETURN JUMPDEST PUSH2 0xA0 PUSH2 0x116 JUMP JUMPDEST PUSH1 0x40 MLOAD PUSH2 0xAD SWAP2 SWAP1 PUSH2 0x1AF JUMP JUMPDEST PUSH1 0x40 MLOAD DUP1 SWAP2 SUB SWAP1 RETURN JUMPDEST PUSH2 0xBE PUSH2 0x11C JUMP JUMPDEST PUSH1 0x40 MLOAD PUSH2 0xCB SWAP2 SWAP1 PUSH2 0x1AF JUMP JUMPDEST PUSH1 0x40 MLOAD DUP1 SWAP2 SUB SWAP1 RETURN JUMPDEST PUSH2 0xDC PUSH2 0x122 JUMP JUMPDEST PUSH1 0x40 MLOAD PUSH2 0xE9 SWAP2 SWAP1 PUSH2 0x1E3 JUMP JUMPDEST PUSH1 0x40 MLOAD DUP1 SWAP2 SUB SWAP1 RETURN JUMPDEST PUSH1 0x0 DUP1 SLOAD SWAP1 PUSH2 0x100 EXP SWAP1 DIV PUSH1 0xFF AND DUP2 JUMP JUMPDEST PUSH1 0x3 PUSH1 0x0 SWAP1 SLOAD SWAP1 PUSH2 0x100 EXP SWAP1 DIV PUSH1 0x0 SIGNEXTEND DUP2 JUMP JUMPDEST PUSH1 0x1 SLOAD DUP2 JUMP JUMPDEST PUSH1 0x2 SLOAD DUP2 JUMP JUMPDEST PUSH1 0x4 SLOAD DUP2 JUMP JUMPDEST PUSH1 0x0 PUSH1 0xFF DUP3 AND SWAP1 POP SWAP2 SWAP1 POP JUMP JUMPDEST PUSH2 0x13E DUP2 PUSH2 0x128 JUMP JUMPDEST DUP3 MSTORE POP POP JUMP JUMPDEST PUSH1 0x0 PUSH1 0x20 DUP3 ADD SWAP1 POP PUSH2 0x159 PUSH1 0x0 DUP4 ADD DUP5 PUSH2 0x135 JUMP JUMPDEST SWAP3 SWAP2 POP POP JUMP JUMPDEST PUSH1 0x0 DUP2 PUSH1 0x0 SIGNEXTEND SWAP1 POP SWAP2 SWAP1 POP JUMP JUMPDEST PUSH2 0x175 DUP2 PUSH2 0x15F JUMP JUMPDEST DUP3 MSTORE POP POP JUMP JUMPDEST PUSH1 0x0 PUSH1 0x20 DUP3 ADD SWAP1 POP PUSH2 0x190 PUSH1 0x0 DUP4 ADD DUP5 PUSH2 0x16C JUMP JUMPDEST SWAP3 SWAP2 POP POP JUMP JUMPDEST PUSH1 0x0 DUP2 SWAP1 POP SWAP2 SWAP1 POP JUMP JUMPDEST PUSH2 0x1A9 DUP2 PUSH2 0x196 JUMP JUMPDEST DUP3 MSTORE POP POP JUMP JUMPDEST PUSH1 0x0 PUSH1 0x20 DUP3 ADD SWAP1 POP PUSH2 0x1C4 PUSH1 0x0 DUP4 ADD DUP5 PUSH2 0x1A0 JUMP JUMPDEST SWAP3 SWAP2 POP POP JUMP JUMPDEST PUSH1 0x0 DUP2 SWAP1 POP SWAP2 SWAP1 POP JUMP JUMPDEST PUSH2 0x1DD DUP2 PUSH2 0x1CA JUMP JUMPDEST DUP3 MSTORE POP POP JUMP JUMPDEST PUSH1 0x0 PUSH1 0x20 DUP3 ADD SWAP1 POP PUSH2 0x1F8 PUSH1 0x0 DUP4 ADD DUP5 PUSH2 0x1D4 JUMP JUMPDEST SWAP3 SWAP2 POP POP JUMP INVALID LOG2 PUSH5 0x6970667358 0x22 SLT KECCAK256 BLOCKHASH CALLDATACOPY SWAP13 0xDC 0xDF 0xB3 0xD1 PUSH32 0xE34BEA0E0E50A43ABE4D597C4404CE575466D5E911D4AB6564736F6C63430008 0xF STOP CALLER "
				},
				"gasEstimates": {
					"creation": {
						"codeDepositCost": "112800",
						"executionCost": "115019",
						"totalCost": "227819"
					},
					"external": {
						"i1()": "2446",
						"i2()": "2451",
						"i3()": "2473",
						"i4()": "2475",
						"i5()": "2495"
					}
				},
				"methodIdentifiers": {
					"i1()": "28897238",
					"i2()": "83cdfab8",
					"i3()": "a0792ba7",
					"i4()": "29031ac2",
					"i5()": "e0ad7eec"
				}
			},
			"storageLayout": {
				"storage": [
					{
						"astId": 10,
						"contract": "chapter02/8type2.sol:type3",
						"label": "i1",
						"offset": 0,
						"slot": "0",
						"type": "t_uint8"
					},
					{
						"astId": 13,
						"contract": "chapter02/8type2.sol:type3",
						"label": "i2",
						"offset": 0,
						"slot": "1",
						"type": "t_uint256"
					},
					{
						"astId": 16,
						"contract": "chapter02/8type2.sol:type3",
						"label": "i3",
						"offset": 0,
						"slot": "2",
						"type": "t_uint256"
					},
					{
						"astId": 19,
						"contract": "chapter02/8type2.sol:type3",
						"label": "i4",
						"offset": 0,
						"slot": "3",
						"type": "t_int8"
					},
					{
						"astId": 22,
						"contract": "chapter02/8type2.sol:type3",
						"label": "i5",
						"offset": 0,
						"slot": "4",
						"type": "t_int256"
					}
				],
				"types": {
					"t_int256": {
						"encoding": "inplace",
						"label": "int256",
						"numberOfBytes": "32"
					},
					"t_int8": {
						"encoding": "inplace",
						"label": "int8",
						"numberOfBytes": "1"
					},
					"t_uint256": {
						"encoding": "inplace",
						"label": "uint256",
						"numberOfBytes": "32"
					},
					"t_uint8": {
						"encoding": "inplace",
						"label": "uint8",
						"numberOfBytes": "1"
					}
				}
			},
			"userdoc": {
				"kind": "user",
				"methods": {},
				"version": 1
			}
		}
	}
}