{
	"chapter02/9type3.sol": {
		"type11": {
			"abi": [
				{
					"inputs": [],
					"name": "addr1",
					"outputs": [
						{
							"internalType": "address",
							"name": "",
							"type": "address"
						}
					],
					"stateMutability": "view",
					"type": "function"
				},
				{
					"inputs": [],
					"name": "addr2",
					"outputs": [
						{
							"internalType": "address payable",
							"name": "",
							"type": "address"
						}
					],
					"stateMutability": "view",
					"type": "function"
				},
				{
					"inputs": [],
					"name": "balance1",
					"outputs": [
						{
							"internalType": "uint256",
							"name": "",
							"type": "uint256"
						}
					],
					"stateMutability": "view",
					"type": "function"
				},
				{
					"inputs": [],
					"name": "balance2",
					"outputs": [
						{
							"internalType": "uint256",
							"name": "",
							"type": "uint256"
						}
					],
					"stateMutability": "view",
					"type": "function"
				},
				{
					"inputs": [],
					"name": "by1",
					"outputs": [
						{
							"internalType": "bytes",
							"name": "",
							"type": "bytes"
						}
					],
					"stateMutability": "view",
					"type": "function"
				},
				{
					"inputs": [],
					"name": "by2",
					"outputs": [
						{
							"internalType": "bytes",
							"name": "",
							"type": "bytes"
						}
					],
					"stateMutability": "view",
					"type": "function"
				},
				{
					"inputs": [],
					"name": "contractAddr",
					"outputs": [
						{
							"internalType": "address",
							"name": "",
							"type": "address"
						}
					],
					"stateMutability": "view",
					"type": "function"
				}
			],
			"devdoc": {
				"kind": "dev",
				"methods": {},
				"version": 1
			},
			"evm": {
				"assembly": "    /* \"chapter02/9type3.sol\":55:446  contract type11{... */\n  mstore(0x40, 0x80)\n    /* \"chapter02/9type3.sol\":98:140  0x5B38Da6a701c568545dCfcB03FcB875f56beddC4 */\n  0x5b38da6a701c568545dcfcb03fcb875f56beddc4\n    /* \"chapter02/9type3.sol\":76:140  address public addr1 =0x5B38Da6a701c568545dCfcB03FcB875f56beddC4 */\n  0x00\n  dup1\n  0x0100\n  exp\n  dup2\n  sload\n  dup2\n  0xffffffffffffffffffffffffffffffffffffffff\n  mul\n  not\n  and\n  swap1\n  dup4\n  0xffffffffffffffffffffffffffffffffffffffff\n  and\n  mul\n  or\n  swap1\n  sstore\n  pop\n    /* \"chapter02/9type3.sol\":186:228  0x5B38Da6a701c568545dCfcB03FcB875f56beddC4 */\n  0x5b38da6a701c568545dcfcb03fcb875f56beddc4\n    /* \"chapter02/9type3.sol\":146:229  address payable public  addr2 = payable(0x5B38Da6a701c568545dCfcB03FcB875f56beddC4) */\n  0x01\n  exp(0x0100, 0x00)\n  dup2\n  sload\n  dup2\n  0xffffffffffffffffffffffffffffffffffffffff\n  mul\n  not\n  and\n  swap1\n  dup4\n  0xffffffffffffffffffffffffffffffffffffffff\n  and\n  mul\n  or\n  swap1\n  sstore\n  pop\n    /* \"chapter02/9type3.sol\":273:277  this */\n  address\n    /* \"chapter02/9type3.sol\":235:278  address public contractAddr = address(this) */\n  0x02\n  exp(0x0100, 0x00)\n  dup2\n  sload\n  dup2\n  0xffffffffffffffffffffffffffffffffffffffff\n  mul\n  not\n  and\n  swap1\n  dup4\n  0xffffffffffffffffffffffffffffffffffffffff\n  and\n  mul\n  or\n  swap1\n  sstore\n  pop\n    /* \"chapter02/9type3.sol\":308:313  addr1 */\n  0x00\n  dup1\n  sload\n  swap1\n  0x0100\n  exp\n  swap1\n  div\n  0xffffffffffffffffffffffffffffffffffffffff\n  and\n    /* \"chapter02/9type3.sol\":308:321  addr1.balance */\n  0xffffffffffffffffffffffffffffffffffffffff\n  and\n  balance\n    /* \"chapter02/9type3.sol\":285:321  uint public balance1 = addr1.balance */\n  0x03\n  sstore\n    /* \"chapter02/9type3.sol\":350:355  addr2 */\n  0x01\n  0x00\n  swap1\n  sload\n  swap1\n  0x0100\n  exp\n  swap1\n  div\n  0xffffffffffffffffffffffffffffffffffffffff\n  and\n    /* \"chapter02/9type3.sol\":350:363  addr2.balance */\n  0xffffffffffffffffffffffffffffffffffffffff\n  and\n  balance\n    /* \"chapter02/9type3.sol\":327:363  uint public balance2 = addr2.balance */\n  0x04\n  sstore\n    /* \"chapter02/9type3.sol\":389:394  addr1 */\n  0x00\n  dup1\n  sload\n  swap1\n  0x0100\n  exp\n  swap1\n  div\n  0xffffffffffffffffffffffffffffffffffffffff\n  and\n    /* \"chapter02/9type3.sol\":389:399  addr1.code */\n  0xffffffffffffffffffffffffffffffffffffffff\n  and\n  dup1\n  extcodesize\n  dup1\n  0x20\n  add\n  mload(0x40)\n  swap1\n  dup2\n  add\n  0x40\n  mstore\n  dup2\n  dup2\n  mstore\n  0x00\n  swap1\n  dup1\n  0x20\n  add\n  swap1\n  swap4\n  extcodecopy\n    /* \"chapter02/9type3.sol\":370:399  bytes public by1 = addr1.code */\n  0x05\n  swap1\n  dup2\n  tag_1\n  swap2\n  swap1\n  tag_2\n  jump\t// in\ntag_1:\n  pop\n    /* \"chapter02/9type3.sol\":424:429  addr2 */\n  0x01\n  0x00\n  swap1\n  sload\n  swap1\n  0x0100\n  exp\n  swap1\n  div\n  0xffffffffffffffffffffffffffffffffffffffff\n  and\n    /* \"chapter02/9type3.sol\":424:434  addr2.code */\n  0xffffffffffffffffffffffffffffffffffffffff\n  and\n  dup1\n  extcodesize\n  dup1\n  0x20\n  add\n  mload(0x40)\n  swap1\n  dup2\n  add\n  0x40\n  mstore\n  dup2\n  dup2\n  mstore\n  0x00\n  swap1\n  dup1\n  0x20\n  add\n  swap1\n  swap4\n  extcodecopy\n    /* \"chapter02/9type3.sol\":405:434  bytes public by2 = addr2.code */\n  0x06\n  swap1\n  dup2\n  tag_3\n  swap2\n  swap1\n  tag_2\n  jump\t// in\ntag_3:\n  pop\n    /* \"chapter02/9type3.sol\":55:446  contract type11{... */\n  callvalue\n  dup1\n  iszero\n  tag_4\n  jumpi\n  0x00\n  dup1\n  revert\ntag_4:\n  pop\n  jump(tag_5)\n    /* \"#utility.yul\":7:105   */\ntag_6:\n    /* \"#utility.yul\":58:64   */\n  0x00\n    /* \"#utility.yul\":92:97   */\n  dup2\n    /* \"#utility.yul\":86:98   */\n  mload\n    /* \"#utility.yul\":76:98   */\n  swap1\n  pop\n    /* \"#utility.yul\":7:105   */\n  swap2\n  swap1\n  pop\n  jump\t// out\n    /* \"#utility.yul\":111:291   */\ntag_7:\n    /* \"#utility.yul\":159:236   */\n  0x4e487b7100000000000000000000000000000000000000000000000000000000\n    /* \"#utility.yul\":156:157   */\n  0x00\n    /* \"#utility.yul\":149:237   */\n  mstore\n    /* \"#utility.yul\":256:260   */\n  0x41\n    /* \"#utility.yul\":253:254   */\n  0x04\n    /* \"#utility.yul\":246:261   */\n  mstore\n    /* \"#utility.yul\":280:284   */\n  0x24\n    /* \"#utility.yul\":277:278   */\n  0x00\n    /* \"#utility.yul\":270:285   */\n  revert\n    /* \"#utility.yul\":297:477   */\ntag_8:\n    /* \"#utility.yul\":345:422   */\n  0x4e487b7100000000000000000000000000000000000000000000000000000000\n    /* \"#utility.yul\":342:343   */\n  0x00\n    /* \"#utility.yul\":335:423   */\n  mstore\n    /* \"#utility.yul\":442:446   */\n  0x22\n    /* \"#utility.yul\":439:440   */\n  0x04\n    /* \"#utility.yul\":432:447   */\n  mstore\n    /* \"#utility.yul\":466:470   */\n  0x24\n    /* \"#utility.yul\":463:464   */\n  0x00\n    /* \"#utility.yul\":456:471   */\n  revert\n    /* \"#utility.yul\":483:803   */\ntag_9:\n    /* \"#utility.yul\":527:533   */\n  0x00\n    /* \"#utility.yul\":564:565   */\n  0x02\n    /* \"#utility.yul\":558:562   */\n  dup3\n    /* \"#utility.yul\":554:566   */\n  div\n    /* \"#utility.yul\":544:566   */\n  swap1\n  pop\n    /* \"#utility.yul\":611:612   */\n  0x01\n    /* \"#utility.yul\":605:609   */\n  dup3\n    /* \"#utility.yul\":601:613   */\n  and\n    /* \"#utility.yul\":632:650   */\n  dup1\n    /* \"#utility.yul\":622:703   */\n  tag_31\n  jumpi\n    /* \"#utility.yul\":688:692   */\n  0x7f\n    /* \"#utility.yul\":680:686   */\n  dup3\n    /* \"#utility.yul\":676:693   */\n  and\n    /* \"#utility.yul\":666:693   */\n  swap2\n  pop\n    /* \"#utility.yul\":622:703   */\ntag_31:\n    /* \"#utility.yul\":750:752   */\n  0x20\n    /* \"#utility.yul\":742:748   */\n  dup3\n    /* \"#utility.yul\":739:753   */\n  lt\n    /* \"#utility.yul\":719:737   */\n  dup2\n    /* \"#utility.yul\":716:754   */\n  sub\n    /* \"#utility.yul\":713:797   */\n  tag_32\n  jumpi\n    /* \"#utility.yul\":769:787   */\n  tag_33\n  tag_8\n  jump\t// in\ntag_33:\n    /* \"#utility.yul\":713:797   */\ntag_32:\n    /* \"#utility.yul\":534:803   */\n  pop\n    /* \"#utility.yul\":483:803   */\n  swap2\n  swap1\n  pop\n  jump\t// out\n    /* \"#utility.yul\":809:949   */\ntag_10:\n    /* \"#utility.yul\":857:861   */\n  0x00\n    /* \"#utility.yul\":880:883   */\n  dup2\n    /* \"#utility.yul\":872:883   */\n  swap1\n  pop\n    /* \"#utility.yul\":903:906   */\n  dup2\n    /* \"#utility.yul\":900:901   */\n  0x00\n    /* \"#utility.yul\":893:907   */\n  mstore\n    /* \"#utility.yul\":937:941   */\n  0x20\n    /* \"#utility.yul\":934:935   */\n  0x00\n    /* \"#utility.yul\":924:942   */\n  keccak256\n    /* \"#utility.yul\":916:942   */\n  swap1\n  pop\n    /* \"#utility.yul\":809:949   */\n  swap2\n  swap1\n  pop\n  jump\t// out\n    /* \"#utility.yul\":955:1048   */\ntag_11:\n    /* \"#utility.yul\":992:998   */\n  0x00\n    /* \"#utility.yul\":1039:1041   */\n  0x20\n    /* \"#utility.yul\":1034:1036   */\n  0x1f\n    /* \"#utility.yul\":1027:1032   */\n  dup4\n    /* \"#utility.yul\":1023:1037   */\n  add\n    /* \"#utility.yul\":1019:1042   */\n  div\n    /* \"#utility.yul\":1009:1042   */\n  swap1\n  pop\n    /* \"#utility.yul\":955:1048   */\n  swap2\n  swap1\n  pop\n  jump\t// out\n    /* \"#utility.yul\":1054:1161   */\ntag_12:\n    /* \"#utility.yul\":1098:1106   */\n  0x00\n    /* \"#utility.yul\":1148:1153   */\n  dup3\n    /* \"#utility.yul\":1142:1146   */\n  dup3\n    /* \"#utility.yul\":1138:1154   */\n  shl\n    /* \"#utility.yul\":1117:1154   */\n  swap1\n  pop\n    /* \"#utility.yul\":1054:1161   */\n  swap3\n  swap2\n  pop\n  pop\n  jump\t// out\n    /* \"#utility.yul\":1167:1560   */\ntag_13:\n    /* \"#utility.yul\":1236:1242   */\n  0x00\n    /* \"#utility.yul\":1286:1287   */\n  0x08\n    /* \"#utility.yul\":1274:1284   */\n  dup4\n    /* \"#utility.yul\":1270:1288   */\n  mul\n    /* \"#utility.yul\":1309:1406   */\n  tag_38\n    /* \"#utility.yul\":1339:1405   */\n  0xffffffffffffffffffffffffffffffffffffffffffffffffffffffffffffffff\n    /* \"#utility.yul\":1328:1337   */\n  dup3\n    /* \"#utility.yul\":1309:1406   */\n  tag_12\n  jump\t// in\ntag_38:\n    /* \"#utility.yul\":1427:1466   */\n  tag_39\n    /* \"#utility.yul\":1457:1465   */\n  dup7\n    /* \"#utility.yul\":1446:1455   */\n  dup4\n    /* \"#utility.yul\":1427:1466   */\n  tag_12\n  jump\t// in\ntag_39:\n    /* \"#utility.yul\":1415:1466   */\n  swap6\n  pop\n    /* \"#utility.yul\":1499:1503   */\n  dup1\n    /* \"#utility.yul\":1495:1504   */\n  not\n    /* \"#utility.yul\":1488:1493   */\n  dup5\n    /* \"#utility.yul\":1484:1505   */\n  and\n    /* \"#utility.yul\":1475:1505   */\n  swap4\n  pop\n    /* \"#utility.yul\":1548:1552   */\n  dup1\n    /* \"#utility.yul\":1538:1546   */\n  dup7\n    /* \"#utility.yul\":1534:1553   */\n  and\n    /* \"#utility.yul\":1527:1532   */\n  dup5\n    /* \"#utility.yul\":1524:1554   */\n  or\n    /* \"#utility.yul\":1514:1554   */\n  swap3\n  pop\n    /* \"#utility.yul\":1243:1560   */\n  pop\n  pop\n    /* \"#utility.yul\":1167:1560   */\n  swap4\n  swap3\n  pop\n  pop\n  pop\n  jump\t// out\n    /* \"#utility.yul\":1566:1643   */\ntag_14:\n    /* \"#utility.yul\":1603:1610   */\n  0x00\n    /* \"#utility.yul\":1632:1637   */\n  dup2\n    /* \"#utility.yul\":1621:1637   */\n  swap1\n  pop\n    /* \"#utility.yul\":1566:1643   */\n  swap2\n  swap1\n  pop\n  jump\t// out\n    /* \"#utility.yul\":1649:1709   */\ntag_15:\n    /* \"#utility.yul\":1677:1680   */\n  0x00\n    /* \"#utility.yul\":1698:1703   */\n  dup2\n    /* \"#utility.yul\":1691:1703   */\n  swap1\n  pop\n    /* \"#utility.yul\":1649:1709   */\n  swap2\n  swap1\n  pop\n  jump\t// out\n    /* \"#utility.yul\":1715:1857   */\ntag_16:\n    /* \"#utility.yul\":1765:1774   */\n  0x00\n    /* \"#utility.yul\":1798:1851   */\n  tag_43\n    /* \"#utility.yul\":1816:1850   */\n  tag_44\n    /* \"#utility.yul\":1825:1849   */\n  tag_45\n    /* \"#utility.yul\":1843:1848   */\n  dup5\n    /* \"#utility.yul\":1825:1849   */\n  tag_14\n  jump\t// in\ntag_45:\n    /* \"#utility.yul\":1816:1850   */\n  tag_15\n  jump\t// in\ntag_44:\n    /* \"#utility.yul\":1798:1851   */\n  tag_14\n  jump\t// in\ntag_43:\n    /* \"#utility.yul\":1785:1851   */\n  swap1\n  pop\n    /* \"#utility.yul\":1715:1857   */\n  swap2\n  swap1\n  pop\n  jump\t// out\n    /* \"#utility.yul\":1863:1938   */\ntag_17:\n    /* \"#utility.yul\":1906:1909   */\n  0x00\n    /* \"#utility.yul\":1927:1932   */\n  dup2\n    /* \"#utility.yul\":1920:1932   */\n  swap1\n  pop\n    /* \"#utility.yul\":1863:1938   */\n  swap2\n  swap1\n  pop\n  jump\t// out\n    /* \"#utility.yul\":1944:2213   */\ntag_18:\n    /* \"#utility.yul\":2054:2093   */\n  tag_48\n    /* \"#utility.yul\":2085:2092   */\n  dup4\n    /* \"#utility.yul\":2054:2093   */\n  tag_16\n  jump\t// in\ntag_48:\n    /* \"#utility.yul\":2115:2206   */\n  tag_49\n    /* \"#utility.yul\":2164:2205   */\n  tag_50\n    /* \"#utility.yul\":2188:2204   */\n  dup3\n    /* \"#utility.yul\":2164:2205   */\n  tag_17\n  jump\t// in\ntag_50:\n    /* \"#utility.yul\":2156:2162   */\n  dup5\n    /* \"#utility.yul\":2149:2153   */\n  dup5\n    /* \"#utility.yul\":2143:2154   */\n  sload\n    /* \"#utility.yul\":2115:2206   */\n  tag_13\n  jump\t// in\ntag_49:\n    /* \"#utility.yul\":2109:2113   */\n  dup3\n    /* \"#utility.yul\":2102:2207   */\n  sstore\n    /* \"#utility.yul\":2020:2213   */\n  pop\n    /* \"#utility.yul\":1944:2213   */\n  pop\n  pop\n  pop\n  jump\t// out\n    /* \"#utility.yul\":2219:2292   */\ntag_19:\n    /* \"#utility.yul\":2264:2267   */\n  0x00\n    /* \"#utility.yul\":2219:2292   */\n  swap1\n  jump\t// out\n    /* \"#utility.yul\":2298:2487   */\ntag_20:\n    /* \"#utility.yul\":2375:2407   */\n  tag_53\n  tag_19\n  jump\t// in\ntag_53:\n    /* \"#utility.yul\":2416:2481   */\n  tag_54\n    /* \"#utility.yul\":2474:2480   */\n  dup2\n    /* \"#utility.yul\":2466:2472   */\n  dup5\n    /* \"#utility.yul\":2460:2464   */\n  dup5\n    /* \"#utility.yul\":2416:2481   */\n  tag_18\n  jump\t// in\ntag_54:\n    /* \"#utility.yul\":2351:2487   */\n  pop\n    /* \"#utility.yul\":2298:2487   */\n  pop\n  pop\n  jump\t// out\n    /* \"#utility.yul\":2493:2679   */\ntag_21:\n    /* \"#utility.yul\":2553:2673   */\ntag_56:\n    /* \"#utility.yul\":2570:2573   */\n  dup2\n    /* \"#utility.yul\":2563:2568   */\n  dup2\n    /* \"#utility.yul\":2560:2574   */\n  lt\n    /* \"#utility.yul\":2553:2673   */\n  iszero\n  tag_58\n  jumpi\n    /* \"#utility.yul\":2624:2663   */\n  tag_59\n    /* \"#utility.yul\":2661:2662   */\n  0x00\n    /* \"#utility.yul\":2654:2659   */\n  dup3\n    /* \"#utility.yul\":2624:2663   */\n  tag_20\n  jump\t// in\ntag_59:\n    /* \"#utility.yul\":2597:2598   */\n  0x01\n    /* \"#utility.yul\":2590:2595   */\n  dup2\n    /* \"#utility.yul\":2586:2599   */\n  add\n    /* \"#utility.yul\":2577:2599   */\n  swap1\n  pop\n    /* \"#utility.yul\":2553:2673   */\n  jump(tag_56)\ntag_58:\n    /* \"#utility.yul\":2493:2679   */\n  pop\n  pop\n  jump\t// out\n    /* \"#utility.yul\":2685:3226   */\ntag_22:\n    /* \"#utility.yul\":2785:2787   */\n  0x1f\n    /* \"#utility.yul\":2780:2783   */\n  dup3\n    /* \"#utility.yul\":2777:2788   */\n  gt\n    /* \"#utility.yul\":2774:3219   */\n  iszero\n  tag_61\n  jumpi\n    /* \"#utility.yul\":2819:2856   */\n  tag_62\n    /* \"#utility.yul\":2850:2855   */\n  dup2\n    /* \"#utility.yul\":2819:2856   */\n  tag_10\n  jump\t// in\ntag_62:\n    /* \"#utility.yul\":2902:2931   */\n  tag_63\n    /* \"#utility.yul\":2920:2930   */\n  dup5\n    /* \"#utility.yul\":2902:2931   */\n  tag_11\n  jump\t// in\ntag_63:\n    /* \"#utility.yul\":2892:2900   */\n  dup2\n    /* \"#utility.yul\":2888:2932   */\n  add\n    /* \"#utility.yul\":3085:3087   */\n  0x20\n    /* \"#utility.yul\":3073:3083   */\n  dup6\n    /* \"#utility.yul\":3070:3088   */\n  lt\n    /* \"#utility.yul\":3067:3116   */\n  iszero\n  tag_64\n  jumpi\n    /* \"#utility.yul\":3106:3114   */\n  dup2\n    /* \"#utility.yul\":3091:3114   */\n  swap1\n  pop\n    /* \"#utility.yul\":3067:3116   */\ntag_64:\n    /* \"#utility.yul\":3129:3209   */\n  tag_65\n    /* \"#utility.yul\":3185:3207   */\n  tag_66\n    /* \"#utility.yul\":3203:3206   */\n  dup6\n    /* \"#utility.yul\":3185:3207   */\n  tag_11\n  jump\t// in\ntag_66:\n    /* \"#utility.yul\":3175:3183   */\n  dup4\n    /* \"#utility.yul\":3171:3208   */\n  add\n    /* \"#utility.yul\":3158:3169   */\n  dup3\n    /* \"#utility.yul\":3129:3209   */\n  tag_21\n  jump\t// in\ntag_65:\n    /* \"#utility.yul\":2789:3219   */\n  pop\n  pop\n    /* \"#utility.yul\":2774:3219   */\ntag_61:\n    /* \"#utility.yul\":2685:3226   */\n  pop\n  pop\n  pop\n  jump\t// out\n    /* \"#utility.yul\":3232:3349   */\ntag_23:\n    /* \"#utility.yul\":3286:3294   */\n  0x00\n    /* \"#utility.yul\":3336:3341   */\n  dup3\n    /* \"#utility.yul\":3330:3334   */\n  dup3\n    /* \"#utility.yul\":3326:3342   */\n  shr\n    /* \"#utility.yul\":3305:3342   */\n  swap1\n  pop\n    /* \"#utility.yul\":3232:3349   */\n  swap3\n  swap2\n  pop\n  pop\n  jump\t// out\n    /* \"#utility.yul\":3355:3524   */\ntag_24:\n    /* \"#utility.yul\":3399:3405   */\n  0x00\n    /* \"#utility.yul\":3432:3483   */\n  tag_69\n    /* \"#utility.yul\":3480:3481   */\n  0x00\n    /* \"#utility.yul\":3476:3482   */\n  not\n    /* \"#utility.yul\":3468:3473   */\n  dup5\n    /* \"#utility.yul\":3465:3466   */\n  0x08\n    /* \"#utility.yul\":3461:3474   */\n  mul\n    /* \"#utility.yul\":3432:3483   */\n  tag_23\n  jump\t// in\ntag_69:\n    /* \"#utility.yul\":3428:3484   */\n  not\n    /* \"#utility.yul\":3513:3517   */\n  dup1\n    /* \"#utility.yul\":3507:3511   */\n  dup4\n    /* \"#utility.yul\":3503:3518   */\n  and\n    /* \"#utility.yul\":3493:3518   */\n  swap2\n  pop\n    /* \"#utility.yul\":3406:3524   */\n  pop\n    /* \"#utility.yul\":3355:3524   */\n  swap3\n  swap2\n  pop\n  pop\n  jump\t// out\n    /* \"#utility.yul\":3529:3824   */\ntag_25:\n    /* \"#utility.yul\":3605:3609   */\n  0x00\n    /* \"#utility.yul\":3751:3780   */\n  tag_71\n    /* \"#utility.yul\":3776:3779   */\n  dup4\n    /* \"#utility.yul\":3770:3774   */\n  dup4\n    /* \"#utility.yul\":3751:3780   */\n  tag_24\n  jump\t// in\ntag_71:\n    /* \"#utility.yul\":3743:3780   */\n  swap2\n  pop\n    /* \"#utility.yul\":3813:3816   */\n  dup3\n    /* \"#utility.yul\":3810:3811   */\n  0x02\n    /* \"#utility.yul\":3806:3817   */\n  mul\n    /* \"#utility.yul\":3800:3804   */\n  dup3\n    /* \"#utility.yul\":3797:3818   */\n  or\n    /* \"#utility.yul\":3789:3818   */\n  swap1\n  pop\n    /* \"#utility.yul\":3529:3824   */\n  swap3\n  swap2\n  pop\n  pop\n  jump\t// out\n    /* \"#utility.yul\":3829:5219   */\ntag_2:\n    /* \"#utility.yul\":3944:3980   */\n  tag_73\n    /* \"#utility.yul\":3976:3979   */\n  dup3\n    /* \"#utility.yul\":3944:3980   */\n  tag_6\n  jump\t// in\ntag_73:\n    /* \"#utility.yul\":4045:4063   */\n  0xffffffffffffffff\n    /* \"#utility.yul\":4037:4043   */\n  dup2\n    /* \"#utility.yul\":4034:4064   */\n  gt\n    /* \"#utility.yul\":4031:4087   */\n  iszero\n  tag_74\n  jumpi\n    /* \"#utility.yul\":4067:4085   */\n  tag_75\n  tag_7\n  jump\t// in\ntag_75:\n    /* \"#utility.yul\":4031:4087   */\ntag_74:\n    /* \"#utility.yul\":4111:4149   */\n  tag_76\n    /* \"#utility.yul\":4143:4147   */\n  dup3\n    /* \"#utility.yul\":4137:4148   */\n  sload\n    /* \"#utility.yul\":4111:4149   */\n  tag_9\n  jump\t// in\ntag_76:\n    /* \"#utility.yul\":4196:4262   */\n  tag_77\n    /* \"#utility.yul\":4255:4261   */\n  dup3\n    /* \"#utility.yul\":4247:4253   */\n  dup3\n    /* \"#utility.yul\":4241:4245   */\n  dup6\n    /* \"#utility.yul\":4196:4262   */\n  tag_22\n  jump\t// in\ntag_77:\n    /* \"#utility.yul\":4289:4290   */\n  0x00\n    /* \"#utility.yul\":4313:4317   */\n  0x20\n    /* \"#utility.yul\":4300:4317   */\n  swap1\n  pop\n    /* \"#utility.yul\":4345:4347   */\n  0x1f\n    /* \"#utility.yul\":4337:4343   */\n  dup4\n    /* \"#utility.yul\":4334:4348   */\n  gt\n    /* \"#utility.yul\":4362:4363   */\n  0x01\n    /* \"#utility.yul\":4357:4974   */\n  dup2\n  eq\n  tag_79\n  jumpi\n    /* \"#utility.yul\":5018:5019   */\n  0x00\n    /* \"#utility.yul\":5035:5041   */\n  dup5\n    /* \"#utility.yul\":5032:5109   */\n  iszero\n  tag_80\n  jumpi\n    /* \"#utility.yul\":5084:5093   */\n  dup3\n    /* \"#utility.yul\":5079:5082   */\n  dup8\n    /* \"#utility.yul\":5075:5094   */\n  add\n    /* \"#utility.yul\":5069:5095   */\n  mload\n    /* \"#utility.yul\":5060:5095   */\n  swap1\n  pop\n    /* \"#utility.yul\":5032:5109   */\ntag_80:\n    /* \"#utility.yul\":5135:5202   */\n  tag_81\n    /* \"#utility.yul\":5195:5201   */\n  dup6\n    /* \"#utility.yul\":5188:5193   */\n  dup3\n    /* \"#utility.yul\":5135:5202   */\n  tag_25\n  jump\t// in\ntag_81:\n    /* \"#utility.yul\":5129:5133   */\n  dup7\n    /* \"#utility.yul\":5122:5203   */\n  sstore\n    /* \"#utility.yul\":4991:5213   */\n  pop\n    /* \"#utility.yul\":4327:5213   */\n  jump(tag_78)\n    /* \"#utility.yul\":4357:4974   */\ntag_79:\n    /* \"#utility.yul\":4409:4413   */\n  0x1f\n    /* \"#utility.yul\":4405:4414   */\n  not\n    /* \"#utility.yul\":4397:4403   */\n  dup5\n    /* \"#utility.yul\":4393:4415   */\n  and\n    /* \"#utility.yul\":4443:4479   */\n  tag_82\n    /* \"#utility.yul\":4474:4478   */\n  dup7\n    /* \"#utility.yul\":4443:4479   */\n  tag_10\n  jump\t// in\ntag_82:\n    /* \"#utility.yul\":4501:4502   */\n  0x00\n    /* \"#utility.yul\":4515:4723   */\ntag_83:\n    /* \"#utility.yul\":4529:4536   */\n  dup3\n    /* \"#utility.yul\":4526:4527   */\n  dup2\n    /* \"#utility.yul\":4523:4537   */\n  lt\n    /* \"#utility.yul\":4515:4723   */\n  iszero\n  tag_85\n  jumpi\n    /* \"#utility.yul\":4608:4617   */\n  dup5\n    /* \"#utility.yul\":4603:4606   */\n  dup10\n    /* \"#utility.yul\":4599:4618   */\n  add\n    /* \"#utility.yul\":4593:4619   */\n  mload\n    /* \"#utility.yul\":4585:4591   */\n  dup3\n    /* \"#utility.yul\":4578:4620   */\n  sstore\n    /* \"#utility.yul\":4659:4660   */\n  0x01\n    /* \"#utility.yul\":4651:4657   */\n  dup3\n    /* \"#utility.yul\":4647:4661   */\n  add\n    /* \"#utility.yul\":4637:4661   */\n  swap2\n  pop\n    /* \"#utility.yul\":4706:4708   */\n  0x20\n    /* \"#utility.yul\":4695:4704   */\n  dup6\n    /* \"#utility.yul\":4691:4709   */\n  add\n    /* \"#utility.yul\":4678:4709   */\n  swap5\n  pop\n    /* \"#utility.yul\":4552:4556   */\n  0x20\n    /* \"#utility.yul\":4549:4550   */\n  dup2\n    /* \"#utility.yul\":4545:4557   */\n  add\n    /* \"#utility.yul\":4540:4557   */\n  swap1\n  pop\n    /* \"#utility.yul\":4515:4723   */\n  jump(tag_83)\ntag_85:\n    /* \"#utility.yul\":4751:4757   */\n  dup7\n    /* \"#utility.yul\":4742:4749   */\n  dup4\n    /* \"#utility.yul\":4739:4758   */\n  lt\n    /* \"#utility.yul\":4736:4915   */\n  iszero\n  tag_86\n  jumpi\n    /* \"#utility.yul\":4809:4818   */\n  dup5\n    /* \"#utility.yul\":4804:4807   */\n  dup10\n    /* \"#utility.yul\":4800:4819   */\n  add\n    /* \"#utility.yul\":4794:4820   */\n  mload\n    /* \"#utility.yul\":4852:4900   */\n  tag_87\n    /* \"#utility.yul\":4894:4898   */\n  0x1f\n    /* \"#utility.yul\":4886:4892   */\n  dup10\n    /* \"#utility.yul\":4882:4899   */\n  and\n    /* \"#utility.yul\":4871:4880   */\n  dup3\n    /* \"#utility.yul\":4852:4900   */\n  tag_24\n  jump\t// in\ntag_87:\n    /* \"#utility.yul\":4844:4850   */\n  dup4\n    /* \"#utility.yul\":4837:4901   */\n  sstore\n    /* \"#utility.yul\":4759:4915   */\n  pop\n    /* \"#utility.yul\":4736:4915   */\ntag_86:\n    /* \"#utility.yul\":4961:4962   */\n  0x01\n    /* \"#utility.yul\":4957:4958   */\n  0x02\n    /* \"#utility.yul\":4949:4955   */\n  dup9\n    /* \"#utility.yul\":4945:4959   */\n  mul\n    /* \"#utility.yul\":4941:4963   */\n  add\n    /* \"#utility.yul\":4935:4939   */\n  dup9\n    /* \"#utility.yul\":4928:4964   */\n  sstore\n    /* \"#utility.yul\":4364:4974   */\n  pop\n  pop\n  pop\n    /* \"#utility.yul\":4327:5213   */\ntag_78:\n  pop\n    /* \"#utility.yul\":3919:5219   */\n  pop\n  pop\n  pop\n    /* \"#utility.yul\":3829:5219   */\n  pop\n  pop\n  jump\t// out\n    /* \"chapter02/9type3.sol\":55:446  contract type11{... */\ntag_5:\n  dataSize(sub_0)\n  dup1\n  dataOffset(sub_0)\n  0x00\n  codecopy\n  0x00\n  return\nstop\n\nsub_0: assembly {\n        /* \"chapter02/9type3.sol\":55:446  contract type11{... */\n      mstore(0x40, 0x80)\n      callvalue\n      dup1\n      iszero\n      tag_1\n      jumpi\n      0x00\n      dup1\n      revert\n    tag_1:\n      pop\n      jumpi(tag_2, lt(calldatasize, 0x04))\n      shr(0xe0, calldataload(0x00))\n      dup1\n      0x8de38f98\n      gt\n      tag_10\n      jumpi\n      dup1\n      0x8de38f98\n      eq\n      tag_6\n      jumpi\n      dup1\n      0xb377643c\n      eq\n      tag_7\n      jumpi\n      dup1\n      0xc45c4f58\n      eq\n      tag_8\n      jumpi\n      dup1\n      0xeabe09ad\n      eq\n      tag_9\n      jumpi\n      jump(tag_2)\n    tag_10:\n      dup1\n      0x15a5d9d8\n      eq\n      tag_3\n      jumpi\n      dup1\n      0x40441eec\n      eq\n      tag_4\n      jumpi\n      dup1\n      0x59d56bae\n      eq\n      tag_5\n      jumpi\n    tag_2:\n      0x00\n      dup1\n      revert\n        /* \"chapter02/9type3.sol\":235:278  address public contractAddr = address(this) */\n    tag_3:\n      tag_11\n      tag_12\n      jump\t// in\n    tag_11:\n      mload(0x40)\n      tag_13\n      swap2\n      swap1\n      tag_14\n      jump\t// in\n    tag_13:\n      mload(0x40)\n      dup1\n      swap2\n      sub\n      swap1\n      return\n        /* \"chapter02/9type3.sol\":327:363  uint public balance2 = addr2.balance */\n    tag_4:\n      tag_15\n      tag_16\n      jump\t// in\n    tag_15:\n      mload(0x40)\n      tag_17\n      swap2\n      swap1\n      tag_18\n      jump\t// in\n    tag_17:\n      mload(0x40)\n      dup1\n      swap2\n      sub\n      swap1\n      return\n        /* \"chapter02/9type3.sol\":370:399  bytes public by1 = addr1.code */\n    tag_5:\n      tag_19\n      tag_20\n      jump\t// in\n    tag_19:\n      mload(0x40)\n      tag_21\n      swap2\n      swap1\n      tag_22\n      jump\t// in\n    tag_21:\n      mload(0x40)\n      dup1\n      swap2\n      sub\n      swap1\n      return\n        /* \"chapter02/9type3.sol\":146:229  address payable public  addr2 = payable(0x5B38Da6a701c568545dCfcB03FcB875f56beddC4) */\n    tag_6:\n      tag_23\n      tag_24\n      jump\t// in\n    tag_23:\n      mload(0x40)\n      tag_25\n      swap2\n      swap1\n      tag_26\n      jump\t// in\n    tag_25:\n      mload(0x40)\n      dup1\n      swap2\n      sub\n      swap1\n      return\n        /* \"chapter02/9type3.sol\":405:434  bytes public by2 = addr2.code */\n    tag_7:\n      tag_27\n      tag_28\n      jump\t// in\n    tag_27:\n      mload(0x40)\n      tag_29\n      swap2\n      swap1\n      tag_22\n      jump\t// in\n    tag_29:\n      mload(0x40)\n      dup1\n      swap2\n      sub\n      swap1\n      return\n        /* \"chapter02/9type3.sol\":285:321  uint public balance1 = addr1.balance */\n    tag_8:\n      tag_30\n      tag_31\n      jump\t// in\n    tag_30:\n      mload(0x40)\n      tag_32\n      swap2\n      swap1\n      tag_18\n      jump\t// in\n    tag_32:\n      mload(0x40)\n      dup1\n      swap2\n      sub\n      swap1\n      return\n        /* \"chapter02/9type3.sol\":76:140  address public addr1 =0x5B38Da6a701c568545dCfcB03FcB875f56beddC4 */\n    tag_9:\n      tag_33\n      tag_34\n      jump\t// in\n    tag_33:\n      mload(0x40)\n      tag_35\n      swap2\n      swap1\n      tag_14\n      jump\t// in\n    tag_35:\n      mload(0x40)\n      dup1\n      swap2\n      sub\n      swap1\n      return\n        /* \"chapter02/9type3.sol\":235:278  address public contractAddr = address(this) */\n    tag_12:\n      0x02\n      0x00\n      swap1\n      sload\n      swap1\n      0x0100\n      exp\n      swap1\n      div\n      0xffffffffffffffffffffffffffffffffffffffff\n      and\n      dup2\n      jump\t// out\n        /* \"chapter02/9type3.sol\":327:363  uint public balance2 = addr2.balance */\n    tag_16:\n      sload(0x04)\n      dup2\n      jump\t// out\n        /* \"chapter02/9type3.sol\":370:399  bytes public by1 = addr1.code */\n    tag_20:\n      0x05\n      dup1\n      sload\n      tag_36\n      swap1\n      tag_37\n      jump\t// in\n    tag_36:\n      dup1\n      0x1f\n      add\n      0x20\n      dup1\n      swap2\n      div\n      mul\n      0x20\n      add\n      mload(0x40)\n      swap1\n      dup2\n      add\n      0x40\n      mstore\n      dup1\n      swap3\n      swap2\n      swap1\n      dup2\n      dup2\n      mstore\n      0x20\n      add\n      dup3\n      dup1\n      sload\n      tag_38\n      swap1\n      tag_37\n      jump\t// in\n    tag_38:\n      dup1\n      iszero\n      tag_39\n      jumpi\n      dup1\n      0x1f\n      lt\n      tag_40\n      jumpi\n      0x0100\n      dup1\n      dup4\n      sload\n      div\n      mul\n      dup4\n      mstore\n      swap2\n      0x20\n      add\n      swap2\n      jump(tag_39)\n    tag_40:\n      dup3\n      add\n      swap2\n      swap1\n      0x00\n      mstore\n      keccak256(0x00, 0x20)\n      swap1\n    tag_41:\n      dup2\n      sload\n      dup2\n      mstore\n      swap1\n      0x01\n      add\n      swap1\n      0x20\n      add\n      dup1\n      dup4\n      gt\n      tag_41\n      jumpi\n      dup3\n      swap1\n      sub\n      0x1f\n      and\n      dup3\n      add\n      swap2\n    tag_39:\n      pop\n      pop\n      pop\n      pop\n      pop\n      dup2\n      jump\t// out\n        /* \"chapter02/9type3.sol\":146:229  address payable public  addr2 = payable(0x5B38Da6a701c568545dCfcB03FcB875f56beddC4) */\n    tag_24:\n      0x01\n      0x00\n      swap1\n      sload\n      swap1\n      0x0100\n      exp\n      swap1\n      div\n      0xffffffffffffffffffffffffffffffffffffffff\n      and\n      dup2\n      jump\t// out\n        /* \"chapter02/9type3.sol\":405:434  bytes public by2 = addr2.code */\n    tag_28:\n      0x06\n      dup1\n      sload\n      tag_42\n      swap1\n      tag_37\n      jump\t// in\n    tag_42:\n      dup1\n      0x1f\n      add\n      0x20\n      dup1\n      swap2\n      div\n      mul\n      0x20\n      add\n      mload(0x40)\n      swap1\n      dup2\n      add\n      0x40\n      mstore\n      dup1\n      swap3\n      swap2\n      swap1\n      dup2\n      dup2\n      mstore\n      0x20\n      add\n      dup3\n      dup1\n      sload\n      tag_43\n      swap1\n      tag_37\n      jump\t// in\n    tag_43:\n      dup1\n      iszero\n      tag_44\n      jumpi\n      dup1\n      0x1f\n      lt\n      tag_45\n      jumpi\n      0x0100\n      dup1\n      dup4\n      sload\n      div\n      mul\n      dup4\n      mstore\n      swap2\n      0x20\n      add\n      swap2\n      jump(tag_44)\n    tag_45:\n      dup3\n      add\n      swap2\n      swap1\n      0x00\n      mstore\n      keccak256(0x00, 0x20)\n      swap1\n    tag_46:\n      dup2\n      sload\n      dup2\n      mstore\n      swap1\n      0x01\n      add\n      swap1\n      0x20\n      add\n      dup1\n      dup4\n      gt\n      tag_46\n      jumpi\n      dup3\n      swap1\n      sub\n      0x1f\n      and\n      dup3\n      add\n      swap2\n    tag_44:\n      pop\n      pop\n      pop\n      pop\n      pop\n      dup2\n      jump\t// out\n        /* \"chapter02/9type3.sol\":285:321  uint public balance1 = addr1.balance */\n    tag_31:\n      sload(0x03)\n      dup2\n      jump\t// out\n        /* \"chapter02/9type3.sol\":76:140  address public addr1 =0x5B38Da6a701c568545dCfcB03FcB875f56beddC4 */\n    tag_34:\n      0x00\n      dup1\n      sload\n      swap1\n      0x0100\n      exp\n      swap1\n      div\n      0xffffffffffffffffffffffffffffffffffffffff\n      and\n      dup2\n      jump\t// out\n        /* \"#utility.yul\":7:133   */\n    tag_47:\n        /* \"#utility.yul\":44:51   */\n      0x00\n        /* \"#utility.yul\":84:126   */\n      0xffffffffffffffffffffffffffffffffffffffff\n        /* \"#utility.yul\":77:82   */\n      dup3\n        /* \"#utility.yul\":73:127   */\n      and\n        /* \"#utility.yul\":62:127   */\n      swap1\n      pop\n        /* \"#utility.yul\":7:133   */\n      swap2\n      swap1\n      pop\n      jump\t// out\n        /* \"#utility.yul\":139:235   */\n    tag_48:\n        /* \"#utility.yul\":176:183   */\n      0x00\n        /* \"#utility.yul\":205:229   */\n      tag_63\n        /* \"#utility.yul\":223:228   */\n      dup3\n        /* \"#utility.yul\":205:229   */\n      tag_47\n      jump\t// in\n    tag_63:\n        /* \"#utility.yul\":194:229   */\n      swap1\n      pop\n        /* \"#utility.yul\":139:235   */\n      swap2\n      swap1\n      pop\n      jump\t// out\n        /* \"#utility.yul\":241:359   */\n    tag_49:\n        /* \"#utility.yul\":328:352   */\n      tag_65\n        /* \"#utility.yul\":346:351   */\n      dup2\n        /* \"#utility.yul\":328:352   */\n      tag_48\n      jump\t// in\n    tag_65:\n        /* \"#utility.yul\":323:326   */\n      dup3\n        /* \"#utility.yul\":316:353   */\n      mstore\n        /* \"#utility.yul\":241:359   */\n      pop\n      pop\n      jump\t// out\n        /* \"#utility.yul\":365:587   */\n    tag_14:\n        /* \"#utility.yul\":458:462   */\n      0x00\n        /* \"#utility.yul\":496:498   */\n      0x20\n        /* \"#utility.yul\":485:494   */\n      dup3\n        /* \"#utility.yul\":481:499   */\n      add\n        /* \"#utility.yul\":473:499   */\n      swap1\n      pop\n        /* \"#utility.yul\":509:580   */\n      tag_67\n        /* \"#utility.yul\":577:578   */\n      0x00\n        /* \"#utility.yul\":566:575   */\n      dup4\n        /* \"#utility.yul\":562:579   */\n      add\n        /* \"#utility.yul\":553:559   */\n      dup5\n        /* \"#utility.yul\":509:580   */\n      tag_49\n      jump\t// in\n    tag_67:\n        /* \"#utility.yul\":365:587   */\n      swap3\n      swap2\n      pop\n      pop\n      jump\t// out\n        /* \"#utility.yul\":593:670   */\n    tag_50:\n        /* \"#utility.yul\":630:637   */\n      0x00\n        /* \"#utility.yul\":659:664   */\n      dup2\n        /* \"#utility.yul\":648:664   */\n      swap1\n      pop\n        /* \"#utility.yul\":593:670   */\n      swap2\n      swap1\n      pop\n      jump\t// out\n        /* \"#utility.yul\":676:794   */\n    tag_51:\n        /* \"#utility.yul\":763:787   */\n      tag_70\n        /* \"#utility.yul\":781:786   */\n      dup2\n        /* \"#utility.yul\":763:787   */\n      tag_50\n      jump\t// in\n    tag_70:\n        /* \"#utility.yul\":758:761   */\n      dup3\n        /* \"#utility.yul\":751:788   */\n      mstore\n        /* \"#utility.yul\":676:794   */\n      pop\n      pop\n      jump\t// out\n        /* \"#utility.yul\":800:1022   */\n    tag_18:\n        /* \"#utility.yul\":893:897   */\n      0x00\n        /* \"#utility.yul\":931:933   */\n      0x20\n        /* \"#utility.yul\":920:929   */\n      dup3\n        /* \"#utility.yul\":916:934   */\n      add\n        /* \"#utility.yul\":908:934   */\n      swap1\n      pop\n        /* \"#utility.yul\":944:1015   */\n      tag_72\n        /* \"#utility.yul\":1012:1013   */\n      0x00\n        /* \"#utility.yul\":1001:1010   */\n      dup4\n        /* \"#utility.yul\":997:1014   */\n      add\n        /* \"#utility.yul\":988:994   */\n      dup5\n        /* \"#utility.yul\":944:1015   */\n      tag_51\n      jump\t// in\n    tag_72:\n        /* \"#utility.yul\":800:1022   */\n      swap3\n      swap2\n      pop\n      pop\n      jump\t// out\n        /* \"#utility.yul\":1028:1126   */\n    tag_52:\n        /* \"#utility.yul\":1079:1085   */\n      0x00\n        /* \"#utility.yul\":1113:1118   */\n      dup2\n        /* \"#utility.yul\":1107:1119   */\n      mload\n        /* \"#utility.yul\":1097:1119   */\n      swap1\n      pop\n        /* \"#utility.yul\":1028:1126   */\n      swap2\n      swap1\n      pop\n      jump\t// out\n        /* \"#utility.yul\":1132:1300   */\n    tag_53:\n        /* \"#utility.yul\":1215:1226   */\n      0x00\n        /* \"#utility.yul\":1249:1255   */\n      dup3\n        /* \"#utility.yul\":1244:1247   */\n      dup3\n        /* \"#utility.yul\":1237:1256   */\n      mstore\n        /* \"#utility.yul\":1289:1293   */\n      0x20\n        /* \"#utility.yul\":1284:1287   */\n      dup3\n        /* \"#utility.yul\":1280:1294   */\n      add\n        /* \"#utility.yul\":1265:1294   */\n      swap1\n      pop\n        /* \"#utility.yul\":1132:1300   */\n      swap3\n      swap2\n      pop\n      pop\n      jump\t// out\n        /* \"#utility.yul\":1306:1613   */\n    tag_54:\n        /* \"#utility.yul\":1374:1375   */\n      0x00\n        /* \"#utility.yul\":1384:1497   */\n    tag_76:\n        /* \"#utility.yul\":1398:1404   */\n      dup4\n        /* \"#utility.yul\":1395:1396   */\n      dup2\n        /* \"#utility.yul\":1392:1405   */\n      lt\n        /* \"#utility.yul\":1384:1497   */\n      iszero\n      tag_78\n      jumpi\n        /* \"#utility.yul\":1483:1484   */\n      dup1\n        /* \"#utility.yul\":1478:1481   */\n      dup3\n        /* \"#utility.yul\":1474:1485   */\n      add\n        /* \"#utility.yul\":1468:1486   */\n      mload\n        /* \"#utility.yul\":1464:1465   */\n      dup2\n        /* \"#utility.yul\":1459:1462   */\n      dup5\n        /* \"#utility.yul\":1455:1466   */\n      add\n        /* \"#utility.yul\":1448:1487   */\n      mstore\n        /* \"#utility.yul\":1420:1422   */\n      0x20\n        /* \"#utility.yul\":1417:1418   */\n      dup2\n        /* \"#utility.yul\":1413:1423   */\n      add\n        /* \"#utility.yul\":1408:1423   */\n      swap1\n      pop\n        /* \"#utility.yul\":1384:1497   */\n      jump(tag_76)\n    tag_78:\n        /* \"#utility.yul\":1515:1521   */\n      dup4\n        /* \"#utility.yul\":1512:1513   */\n      dup2\n        /* \"#utility.yul\":1509:1522   */\n      gt\n        /* \"#utility.yul\":1506:1607   */\n      iszero\n      tag_79\n      jumpi\n        /* \"#utility.yul\":1595:1596   */\n      0x00\n        /* \"#utility.yul\":1586:1592   */\n      dup5\n        /* \"#utility.yul\":1581:1584   */\n      dup5\n        /* \"#utility.yul\":1577:1593   */\n      add\n        /* \"#utility.yul\":1570:1597   */\n      mstore\n        /* \"#utility.yul\":1506:1607   */\n    tag_79:\n        /* \"#utility.yul\":1355:1613   */\n      pop\n        /* \"#utility.yul\":1306:1613   */\n      pop\n      pop\n      pop\n      jump\t// out\n        /* \"#utility.yul\":1619:1721   */\n    tag_55:\n        /* \"#utility.yul\":1660:1666   */\n      0x00\n        /* \"#utility.yul\":1711:1713   */\n      0x1f\n        /* \"#utility.yul\":1707:1714   */\n      not\n        /* \"#utility.yul\":1702:1704   */\n      0x1f\n        /* \"#utility.yul\":1695:1700   */\n      dup4\n        /* \"#utility.yul\":1691:1705   */\n      add\n        /* \"#utility.yul\":1687:1715   */\n      and\n        /* \"#utility.yul\":1677:1715   */\n      swap1\n      pop\n        /* \"#utility.yul\":1619:1721   */\n      swap2\n      swap1\n      pop\n      jump\t// out\n        /* \"#utility.yul\":1727:2087   */\n    tag_56:\n        /* \"#utility.yul\":1813:1816   */\n      0x00\n        /* \"#utility.yul\":1841:1879   */\n      tag_82\n        /* \"#utility.yul\":1873:1878   */\n      dup3\n        /* \"#utility.yul\":1841:1879   */\n      tag_52\n      jump\t// in\n    tag_82:\n        /* \"#utility.yul\":1895:1965   */\n      tag_83\n        /* \"#utility.yul\":1958:1964   */\n      dup2\n        /* \"#utility.yul\":1953:1956   */\n      dup6\n        /* \"#utility.yul\":1895:1965   */\n      tag_53\n      jump\t// in\n    tag_83:\n        /* \"#utility.yul\":1888:1965   */\n      swap4\n      pop\n        /* \"#utility.yul\":1974:2026   */\n      tag_84\n        /* \"#utility.yul\":2019:2025   */\n      dup2\n        /* \"#utility.yul\":2014:2017   */\n      dup6\n        /* \"#utility.yul\":2007:2011   */\n      0x20\n        /* \"#utility.yul\":2000:2005   */\n      dup7\n        /* \"#utility.yul\":1996:2012   */\n      add\n        /* \"#utility.yul\":1974:2026   */\n      tag_54\n      jump\t// in\n    tag_84:\n        /* \"#utility.yul\":2051:2080   */\n      tag_85\n        /* \"#utility.yul\":2073:2079   */\n      dup2\n        /* \"#utility.yul\":2051:2080   */\n      tag_55\n      jump\t// in\n    tag_85:\n        /* \"#utility.yul\":2046:2049   */\n      dup5\n        /* \"#utility.yul\":2042:2081   */\n      add\n        /* \"#utility.yul\":2035:2081   */\n      swap2\n      pop\n        /* \"#utility.yul\":1817:2087   */\n      pop\n        /* \"#utility.yul\":1727:2087   */\n      swap3\n      swap2\n      pop\n      pop\n      jump\t// out\n        /* \"#utility.yul\":2093:2402   */\n    tag_22:\n        /* \"#utility.yul\":2204:2208   */\n      0x00\n        /* \"#utility.yul\":2242:2244   */\n      0x20\n        /* \"#utility.yul\":2231:2240   */\n      dup3\n        /* \"#utility.yul\":2227:2245   */\n      add\n        /* \"#utility.yul\":2219:2245   */\n      swap1\n      pop\n        /* \"#utility.yul\":2291:2300   */\n      dup2\n        /* \"#utility.yul\":2285:2289   */\n      dup2\n        /* \"#utility.yul\":2281:2301   */\n      sub\n        /* \"#utility.yul\":2277:2278   */\n      0x00\n        /* \"#utility.yul\":2266:2275   */\n      dup4\n        /* \"#utility.yul\":2262:2279   */\n      add\n        /* \"#utility.yul\":2255:2302   */\n      mstore\n        /* \"#utility.yul\":2319:2395   */\n      tag_87\n        /* \"#utility.yul\":2390:2394   */\n      dup2\n        /* \"#utility.yul\":2381:2387   */\n      dup5\n        /* \"#utility.yul\":2319:2395   */\n      tag_56\n      jump\t// in\n    tag_87:\n        /* \"#utility.yul\":2311:2395   */\n      swap1\n      pop\n        /* \"#utility.yul\":2093:2402   */\n      swap3\n      swap2\n      pop\n      pop\n      jump\t// out\n        /* \"#utility.yul\":2408:2512   */\n    tag_57:\n        /* \"#utility.yul\":2453:2460   */\n      0x00\n        /* \"#utility.yul\":2482:2506   */\n      tag_89\n        /* \"#utility.yul\":2500:2505   */\n      dup3\n        /* \"#utility.yul\":2482:2506   */\n      tag_47\n      jump\t// in\n    tag_89:\n        /* \"#utility.yul\":2471:2506   */\n      swap1\n      pop\n        /* \"#utility.yul\":2408:2512   */\n      swap2\n      swap1\n      pop\n      jump\t// out\n        /* \"#utility.yul\":2518:2660   */\n    tag_58:\n        /* \"#utility.yul\":2621:2653   */\n      tag_91\n        /* \"#utility.yul\":2647:2652   */\n      dup2\n        /* \"#utility.yul\":2621:2653   */\n      tag_57\n      jump\t// in\n    tag_91:\n        /* \"#utility.yul\":2616:2619   */\n      dup3\n        /* \"#utility.yul\":2609:2654   */\n      mstore\n        /* \"#utility.yul\":2518:2660   */\n      pop\n      pop\n      jump\t// out\n        /* \"#utility.yul\":2666:2920   */\n    tag_26:\n        /* \"#utility.yul\":2775:2779   */\n      0x00\n        /* \"#utility.yul\":2813:2815   */\n      0x20\n        /* \"#utility.yul\":2802:2811   */\n      dup3\n        /* \"#utility.yul\":2798:2816   */\n      add\n        /* \"#utility.yul\":2790:2816   */\n      swap1\n      pop\n        /* \"#utility.yul\":2826:2913   */\n      tag_93\n        /* \"#utility.yul\":2910:2911   */\n      0x00\n        /* \"#utility.yul\":2899:2908   */\n      dup4\n        /* \"#utility.yul\":2895:2912   */\n      add\n        /* \"#utility.yul\":2886:2892   */\n      dup5\n        /* \"#utility.yul\":2826:2913   */\n      tag_58\n      jump\t// in\n    tag_93:\n        /* \"#utility.yul\":2666:2920   */\n      swap3\n      swap2\n      pop\n      pop\n      jump\t// out\n        /* \"#utility.yul\":2926:3106   */\n    tag_59:\n        /* \"#utility.yul\":2974:3051   */\n      0x4e487b7100000000000000000000000000000000000000000000000000000000\n        /* \"#utility.yul\":2971:2972   */\n      0x00\n        /* \"#utility.yul\":2964:3052   */\n      mstore\n        /* \"#utility.yul\":3071:3075   */\n      0x22\n        /* \"#utility.yul\":3068:3069   */\n      0x04\n        /* \"#utility.yul\":3061:3076   */\n      mstore\n        /* \"#utility.yul\":3095:3099   */\n      0x24\n        /* \"#utility.yul\":3092:3093   */\n      0x00\n        /* \"#utility.yul\":3085:3100   */\n      revert\n        /* \"#utility.yul\":3112:3432   */\n    tag_37:\n        /* \"#utility.yul\":3156:3162   */\n      0x00\n        /* \"#utility.yul\":3193:3194   */\n      0x02\n        /* \"#utility.yul\":3187:3191   */\n      dup3\n        /* \"#utility.yul\":3183:3195   */\n      div\n        /* \"#utility.yul\":3173:3195   */\n      swap1\n      pop\n        /* \"#utility.yul\":3240:3241   */\n      0x01\n        /* \"#utility.yul\":3234:3238   */\n      dup3\n        /* \"#utility.yul\":3230:3242   */\n      and\n        /* \"#utility.yul\":3261:3279   */\n      dup1\n        /* \"#utility.yul\":3251:3332   */\n      tag_96\n      jumpi\n        /* \"#utility.yul\":3317:3321   */\n      0x7f\n        /* \"#utility.yul\":3309:3315   */\n      dup3\n        /* \"#utility.yul\":3305:3322   */\n      and\n        /* \"#utility.yul\":3295:3322   */\n      swap2\n      pop\n        /* \"#utility.yul\":3251:3332   */\n    tag_96:\n        /* \"#utility.yul\":3379:3381   */\n      0x20\n        /* \"#utility.yul\":3371:3377   */\n      dup3\n        /* \"#utility.yul\":3368:3382   */\n      lt\n        /* \"#utility.yul\":3348:3366   */\n      dup2\n        /* \"#utility.yul\":3345:3383   */\n      sub\n        /* \"#utility.yul\":3342:3426   */\n      tag_97\n      jumpi\n        /* \"#utility.yul\":3398:3416   */\n      tag_98\n      tag_59\n      jump\t// in\n    tag_98:\n        /* \"#utility.yul\":3342:3426   */\n    tag_97:\n        /* \"#utility.yul\":3163:3432   */\n      pop\n        /* \"#utility.yul\":3112:3432   */\n      swap2\n      swap1\n      pop\n      jump\t// out\n\n    auxdata: 0xa26469706673582212208b16bd65784fa330fe0813ebb7faa91618415f4065c095c87926b6f43c51a65e64736f6c634300080f0033\n}\n",
				"bytecode": {
					"linkReferences": {},
					"object": "6080604052735b38da6a701c568545dcfcb03fcb875f56beddc46000806101000a81548173ffffffffffffffffffffffffffffffffffffffff021916908373ffffffffffffffffffffffffffffffffffffffff160217905550735b38da6a701c568545dcfcb03fcb875f56beddc4600160006101000a81548173ffffffffffffffffffffffffffffffffffffffff021916908373ffffffffffffffffffffffffffffffffffffffff16021790555030600260006101000a81548173ffffffffffffffffffffffffffffffffffffffff021916908373ffffffffffffffffffffffffffffffffffffffff16021790555060008054906101000a900473ffffffffffffffffffffffffffffffffffffffff1673ffffffffffffffffffffffffffffffffffffffff1631600355600160009054906101000a900473ffffffffffffffffffffffffffffffffffffffff1673ffffffffffffffffffffffffffffffffffffffff163160045560008054906101000a900473ffffffffffffffffffffffffffffffffffffffff1673ffffffffffffffffffffffffffffffffffffffff16803b806020016040519081016040528181526000908060200190933c60059081620001c99190620004be565b50600160009054906101000a900473ffffffffffffffffffffffffffffffffffffffff1673ffffffffffffffffffffffffffffffffffffffff16803b806020016040519081016040528181526000908060200190933c600690816200022f9190620004be565b503480156200023d57600080fd5b50620005a5565b600081519050919050565b7f4e487b7100000000000000000000000000000000000000000000000000000000600052604160045260246000fd5b7f4e487b7100000000000000000000000000000000000000000000000000000000600052602260045260246000fd5b60006002820490506001821680620002c657607f821691505b602082108103620002dc57620002db6200027e565b5b50919050565b60008190508160005260206000209050919050565b60006020601f8301049050919050565b600082821b905092915050565b600060088302620003467fffffffffffffffffffffffffffffffffffffffffffffffffffffffffffffffff8262000307565b62000352868362000307565b95508019841693508086168417925050509392505050565b6000819050919050565b6000819050919050565b60006200039f6200039962000393846200036a565b62000374565b6200036a565b9050919050565b6000819050919050565b620003bb836200037e565b620003d3620003ca82620003a6565b84845462000314565b825550505050565b600090565b620003ea620003db565b620003f7818484620003b0565b505050565b5b818110156200041f5762000413600082620003e0565b600181019050620003fd565b5050565b601f8211156200046e576200043881620002e2565b6200044384620002f7565b8101602085101562000453578190505b6200046b6200046285620002f7565b830182620003fc565b50505b505050565b600082821c905092915050565b6000620004936000198460080262000473565b1980831691505092915050565b6000620004ae838362000480565b9150826002028217905092915050565b620004c98262000244565b67ffffffffffffffff811115620004e557620004e46200024f565b5b620004f18254620002ad565b620004fe82828562000423565b600060209050601f83116001811462000536576000841562000521578287015190505b6200052d8582620004a0565b8655506200059d565b601f1984166200054686620002e2565b60005b82811015620005705784890151825560018201915060208501945060208101905062000549565b868310156200059057848901516200058c601f89168262000480565b8355505b6001600288020188555050505b505050505050565b61050980620005b56000396000f3fe608060405234801561001057600080fd5b506004361061007d5760003560e01c80638de38f981161005b5780638de38f98146100dc578063b377643c146100fa578063c45c4f5814610118578063eabe09ad146101365761007d565b806315a5d9d81461008257806340441eec146100a057806359d56bae146100be575b600080fd5b61008a610154565b604051610097919061032d565b60405180910390f35b6100a861017a565b6040516100b59190610361565b60405180910390f35b6100c6610180565b6040516100d39190610415565b60405180910390f35b6100e461020e565b6040516100f19190610458565b60405180910390f35b610102610234565b60405161010f9190610415565b60405180910390f35b6101206102c2565b60405161012d9190610361565b60405180910390f35b61013e6102c8565b60405161014b919061032d565b60405180910390f35b600260009054906101000a900473ffffffffffffffffffffffffffffffffffffffff1681565b60045481565b6005805461018d906104a2565b80601f01602080910402602001604051908101604052809291908181526020018280546101b9906104a2565b80156102065780601f106101db57610100808354040283529160200191610206565b820191906000526020600020905b8154815290600101906020018083116101e957829003601f168201915b505050505081565b600160009054906101000a900473ffffffffffffffffffffffffffffffffffffffff1681565b60068054610241906104a2565b80601f016020809104026020016040519081016040528092919081815260200182805461026d906104a2565b80156102ba5780601f1061028f576101008083540402835291602001916102ba565b820191906000526020600020905b81548152906001019060200180831161029d57829003601f168201915b505050505081565b60035481565b60008054906101000a900473ffffffffffffffffffffffffffffffffffffffff1681565b600073ffffffffffffffffffffffffffffffffffffffff82169050919050565b6000610317826102ec565b9050919050565b6103278161030c565b82525050565b6000602082019050610342600083018461031e565b92915050565b6000819050919050565b61035b81610348565b82525050565b60006020820190506103766000830184610352565b92915050565b600081519050919050565b600082825260208201905092915050565b60005b838110156103b657808201518184015260208101905061039b565b838111156103c5576000848401525b50505050565b6000601f19601f8301169050919050565b60006103e78261037c565b6103f18185610387565b9350610401818560208601610398565b61040a816103cb565b840191505092915050565b6000602082019050818103600083015261042f81846103dc565b905092915050565b6000610442826102ec565b9050919050565b61045281610437565b82525050565b600060208201905061046d6000830184610449565b92915050565b7f4e487b7100000000000000000000000000000000000000000000000000000000600052602260045260246000fd5b600060028204905060018216806104ba57607f821691505b6020821081036104cd576104cc610473565b5b5091905056fea26469706673582212208b16bd65784fa330fe0813ebb7faa91618415f4065c095c87926b6f43c51a65e64736f6c634300080f0033",
					"opcodes": "PUSH1 0x80 PUSH1 0x40 MSTORE PUSH20 0x5B38DA6A701C568545DCFCB03FCB875F56BEDDC4 PUSH1 0x0 DUP1 PUSH2 0x100 EXP DUP2 SLOAD DUP2 PUSH20 0xFFFFFFFFFFFFFFFFFFFFFFFFFFFFFFFFFFFFFFFF MUL NOT AND SWAP1 DUP4 PUSH20 0xFFFFFFFFFFFFFFFFFFFFFFFFFFFFFFFFFFFFFFFF AND MUL OR SWAP1 SSTORE POP PUSH20 0x5B38DA6A701C568545DCFCB03FCB875F56BEDDC4 PUSH1 0x1 PUSH1 0x0 PUSH2 0x100 EXP DUP2 SLOAD DUP2 PUSH20 0xFFFFFFFFFFFFFFFFFFFFFFFFFFFFFFFFFFFFFFFF MUL NOT AND SWAP1 DUP4 PUSH20 0xFFFFFFFFFFFFFFFFFFFFFFFFFFFFFFFFFFFFFFFF AND MUL OR SWAP1 SSTORE POP ADDRESS PUSH1 0x2 PUSH1 0x0 PUSH2 0x100 EXP DUP2 SLOAD DUP2 PUSH20 0xFFFFFFFFFFFFFFFFFFFFFFFFFFFFFFFFFFFFFFFF MUL NOT AND SWAP1 DUP4 PUSH20 0xFFFFFFFFFFFFFFFFFFFFFFFFFFFFFFFFFFFFFFFF AND MUL OR SWAP1 SSTORE POP PUSH1 0x0 DUP1 SLOAD SWAP1 PUSH2 0x100 EXP SWAP1 DIV PUSH20 0xFFFFFFFFFFFFFFFFFFFFFFFFFFFFFFFFFFFFFFFF AND PUSH20 0xFFFFFFFFFFFFFFFFFFFFFFFFFFFFFFFFFFFFFFFF AND BALANCE PUSH1 0x3 SSTORE PUSH1 0x1 PUSH1 0x0 SWAP1 SLOAD SWAP1 PUSH2 0x100 EXP SWAP1 DIV PUSH20 0xFFFFFFFFFFFFFFFFFFFFFFFFFFFFFFFFFFFFFFFF AND PUSH20 0xFFFFFFFFFFFFFFFFFFFFFFFFFFFFFFFFFFFFFFFF AND BALANCE PUSH1 0x4 SSTORE PUSH1 0x0 DUP1 SLOAD SWAP1 PUSH2 0x100 EXP SWAP1 DIV PUSH20 0xFFFFFFFFFFFFFFFFFFFFFFFFFFFFFFFFFFFFFFFF AND PUSH20 0xFFFFFFFFFFFFFFFFFFFFFFFFFFFFFFFFFFFFFFFF AND DUP1 EXTCODESIZE DUP1 PUSH1 0x20 ADD PUSH1 0x40 MLOAD SWAP1 DUP2 ADD PUSH1 0x40 MSTORE DUP2 DUP2 MSTORE PUSH1 0x0 SWAP1 DUP1 PUSH1 0x20 ADD SWAP1 SWAP4 EXTCODECOPY PUSH1 0x5 SWAP1 DUP2 PUSH3 0x1C9 SWAP2 SWAP1 PUSH3 0x4BE JUMP JUMPDEST POP PUSH1 0x1 PUSH1 0x0 SWAP1 SLOAD SWAP1 PUSH2 0x100 EXP SWAP1 DIV PUSH20 0xFFFFFFFFFFFFFFFFFFFFFFFFFFFFFFFFFFFFFFFF AND PUSH20 0xFFFFFFFFFFFFFFFFFFFFFFFFFFFFFFFFFFFFFFFF AND DUP1 EXTCODESIZE DUP1 PUSH1 0x20 ADD PUSH1 0x40 MLOAD SWAP1 DUP2 ADD PUSH1 0x40 MSTORE DUP2 DUP2 MSTORE PUSH1 0x0 SWAP1 DUP1 PUSH1 0x20 ADD SWAP1 SWAP4 EXTCODECOPY PUSH1 0x6 SWAP1 DUP2 PUSH3 0x22F SWAP2 SWAP1 PUSH3 0x4BE JUMP JUMPDEST POP CALLVALUE DUP1 ISZERO PUSH3 0x23D JUMPI PUSH1 0x0 DUP1 REVERT JUMPDEST POP PUSH3 0x5A5 JUMP JUMPDEST PUSH1 0x0 DUP2 MLOAD SWAP1 POP SWAP2 SWAP1 POP JUMP JUMPDEST PUSH32 0x4E487B7100000000000000000000000000000000000000000000000000000000 PUSH1 0x0 MSTORE PUSH1 0x41 PUSH1 0x4 MSTORE PUSH1 0x24 PUSH1 0x0 REVERT JUMPDEST PUSH32 0x4E487B7100000000000000000000000000000000000000000000000000000000 PUSH1 0x0 MSTORE PUSH1 0x22 PUSH1 0x4 MSTORE PUSH1 0x24 PUSH1 0x0 REVERT JUMPDEST PUSH1 0x0 PUSH1 0x2 DUP3 DIV SWAP1 POP PUSH1 0x1 DUP3 AND DUP1 PUSH3 0x2C6 JUMPI PUSH1 0x7F DUP3 AND SWAP2 POP JUMPDEST PUSH1 0x20 DUP3 LT DUP2 SUB PUSH3 0x2DC JUMPI PUSH3 0x2DB PUSH3 0x27E JUMP JUMPDEST JUMPDEST POP SWAP2 SWAP1 POP JUMP JUMPDEST PUSH1 0x0 DUP2 SWAP1 POP DUP2 PUSH1 0x0 MSTORE PUSH1 0x20 PUSH1 0x0 KECCAK256 SWAP1 POP SWAP2 SWAP1 POP JUMP JUMPDEST PUSH1 0x0 PUSH1 0x20 PUSH1 0x1F DUP4 ADD DIV SWAP1 POP SWAP2 SWAP1 POP JUMP JUMPDEST PUSH1 0x0 DUP3 DUP3 SHL SWAP1 POP SWAP3 SWAP2 POP POP JUMP JUMPDEST PUSH1 0x0 PUSH1 0x8 DUP4 MUL PUSH3 0x346 PUSH32 0xFFFFFFFFFFFFFFFFFFFFFFFFFFFFFFFFFFFFFFFFFFFFFFFFFFFFFFFFFFFFFFFF DUP3 PUSH3 0x307 JUMP JUMPDEST PUSH3 0x352 DUP7 DUP4 PUSH3 0x307 JUMP JUMPDEST SWAP6 POP DUP1 NOT DUP5 AND SWAP4 POP DUP1 DUP7 AND DUP5 OR SWAP3 POP POP POP SWAP4 SWAP3 POP POP POP JUMP JUMPDEST PUSH1 0x0 DUP2 SWAP1 POP SWAP2 SWAP1 POP JUMP JUMPDEST PUSH1 0x0 DUP2 SWAP1 POP SWAP2 SWAP1 POP JUMP JUMPDEST PUSH1 0x0 PUSH3 0x39F PUSH3 0x399 PUSH3 0x393 DUP5 PUSH3 0x36A JUMP JUMPDEST PUSH3 0x374 JUMP JUMPDEST PUSH3 0x36A JUMP JUMPDEST SWAP1 POP SWAP2 SWAP1 POP JUMP JUMPDEST PUSH1 0x0 DUP2 SWAP1 POP SWAP2 SWAP1 POP JUMP JUMPDEST PUSH3 0x3BB DUP4 PUSH3 0x37E JUMP JUMPDEST PUSH3 0x3D3 PUSH3 0x3CA DUP3 PUSH3 0x3A6 JUMP JUMPDEST DUP5 DUP5 SLOAD PUSH3 0x314 JUMP JUMPDEST DUP3 SSTORE POP POP POP POP JUMP JUMPDEST PUSH1 0x0 SWAP1 JUMP JUMPDEST PUSH3 0x3EA PUSH3 0x3DB JUMP JUMPDEST PUSH3 0x3F7 DUP2 DUP5 DUP5 PUSH3 0x3B0 JUMP JUMPDEST POP POP POP JUMP JUMPDEST JUMPDEST DUP2 DUP2 LT ISZERO PUSH3 0x41F JUMPI PUSH3 0x413 PUSH1 0x0 DUP3 PUSH3 0x3E0 JUMP JUMPDEST PUSH1 0x1 DUP2 ADD SWAP1 POP PUSH3 0x3FD JUMP JUMPDEST POP POP JUMP JUMPDEST PUSH1 0x1F DUP3 GT ISZERO PUSH3 0x46E JUMPI PUSH3 0x438 DUP2 PUSH3 0x2E2 JUMP JUMPDEST PUSH3 0x443 DUP5 PUSH3 0x2F7 JUMP JUMPDEST DUP2 ADD PUSH1 0x20 DUP6 LT ISZERO PUSH3 0x453 JUMPI DUP2 SWAP1 POP JUMPDEST PUSH3 0x46B PUSH3 0x462 DUP6 PUSH3 0x2F7 JUMP JUMPDEST DUP4 ADD DUP3 PUSH3 0x3FC JUMP JUMPDEST POP POP JUMPDEST POP POP POP JUMP JUMPDEST PUSH1 0x0 DUP3 DUP3 SHR SWAP1 POP SWAP3 SWAP2 POP POP JUMP JUMPDEST PUSH1 0x0 PUSH3 0x493 PUSH1 0x0 NOT DUP5 PUSH1 0x8 MUL PUSH3 0x473 JUMP JUMPDEST NOT DUP1 DUP4 AND SWAP2 POP POP SWAP3 SWAP2 POP POP JUMP JUMPDEST PUSH1 0x0 PUSH3 0x4AE DUP4 DUP4 PUSH3 0x480 JUMP JUMPDEST SWAP2 POP DUP3 PUSH1 0x2 MUL DUP3 OR SWAP1 POP SWAP3 SWAP2 POP POP JUMP JUMPDEST PUSH3 0x4C9 DUP3 PUSH3 0x244 JUMP JUMPDEST PUSH8 0xFFFFFFFFFFFFFFFF DUP2 GT ISZERO PUSH3 0x4E5 JUMPI PUSH3 0x4E4 PUSH3 0x24F JUMP JUMPDEST JUMPDEST PUSH3 0x4F1 DUP3 SLOAD PUSH3 0x2AD JUMP JUMPDEST PUSH3 0x4FE DUP3 DUP3 DUP6 PUSH3 0x423 JUMP JUMPDEST PUSH1 0x0 PUSH1 0x20 SWAP1 POP PUSH1 0x1F DUP4 GT PUSH1 0x1 DUP2 EQ PUSH3 0x536 JUMPI PUSH1 0x0 DUP5 ISZERO PUSH3 0x521 JUMPI DUP3 DUP8 ADD MLOAD SWAP1 POP JUMPDEST PUSH3 0x52D DUP6 DUP3 PUSH3 0x4A0 JUMP JUMPDEST DUP7 SSTORE POP PUSH3 0x59D JUMP JUMPDEST PUSH1 0x1F NOT DUP5 AND PUSH3 0x546 DUP7 PUSH3 0x2E2 JUMP JUMPDEST PUSH1 0x0 JUMPDEST DUP3 DUP2 LT ISZERO PUSH3 0x570 JUMPI DUP5 DUP10 ADD MLOAD DUP3 SSTORE PUSH1 0x1 DUP3 ADD SWAP2 POP PUSH1 0x20 DUP6 ADD SWAP5 POP PUSH1 0x20 DUP2 ADD SWAP1 POP PUSH3 0x549 JUMP JUMPDEST DUP7 DUP4 LT ISZERO PUSH3 0x590 JUMPI DUP5 DUP10 ADD MLOAD PUSH3 0x58C PUSH1 0x1F DUP10 AND DUP3 PUSH3 0x480 JUMP JUMPDEST DUP4 SSTORE POP JUMPDEST PUSH1 0x1 PUSH1 0x2 DUP9 MUL ADD DUP9 SSTORE POP POP POP JUMPDEST POP POP POP POP POP POP JUMP JUMPDEST PUSH2 0x509 DUP1 PUSH3 0x5B5 PUSH1 0x0 CODECOPY PUSH1 0x0 RETURN INVALID PUSH1 0x80 PUSH1 0x40 MSTORE CALLVALUE DUP1 ISZERO PUSH2 0x10 JUMPI PUSH1 0x0 DUP1 REVERT JUMPDEST POP PUSH1 0x4 CALLDATASIZE LT PUSH2 0x7D JUMPI PUSH1 0x0 CALLDATALOAD PUSH1 0xE0 SHR DUP1 PUSH4 0x8DE38F98 GT PUSH2 0x5B JUMPI DUP1 PUSH4 0x8DE38F98 EQ PUSH2 0xDC JUMPI DUP1 PUSH4 0xB377643C EQ PUSH2 0xFA JUMPI DUP1 PUSH4 0xC45C4F58 EQ PUSH2 0x118 JUMPI DUP1 PUSH4 0xEABE09AD EQ PUSH2 0x136 JUMPI PUSH2 0x7D JUMP JUMPDEST DUP1 PUSH4 0x15A5D9D8 EQ PUSH2 0x82 JUMPI DUP1 PUSH4 0x40441EEC EQ PUSH2 0xA0 JUMPI DUP1 PUSH4 0x59D56BAE EQ PUSH2 0xBE JUMPI JUMPDEST PUSH1 0x0 DUP1 REVERT JUMPDEST PUSH2 0x8A PUSH2 0x154 JUMP JUMPDEST PUSH1 0x40 MLOAD PUSH2 0x97 SWAP2 SWAP1 PUSH2 0x32D JUMP JUMPDEST PUSH1 0x40 MLOAD DUP1 SWAP2 SUB SWAP1 RETURN JUMPDEST PUSH2 0xA8 PUSH2 0x17A JUMP JUMPDEST PUSH1 0x40 MLOAD PUSH2 0xB5 SWAP2 SWAP1 PUSH2 0x361 JUMP JUMPDEST PUSH1 0x40 MLOAD DUP1 SWAP2 SUB SWAP1 RETURN JUMPDEST PUSH2 0xC6 PUSH2 0x180 JUMP JUMPDEST PUSH1 0x40 MLOAD PUSH2 0xD3 SWAP2 SWAP1 PUSH2 0x415 JUMP JUMPDEST PUSH1 0x40 MLOAD DUP1 SWAP2 SUB SWAP1 RETURN JUMPDEST PUSH2 0xE4 PUSH2 0x20E JUMP JUMPDEST PUSH1 0x40 MLOAD PUSH2 0xF1 SWAP2 SWAP1 PUSH2 0x458 JUMP JUMPDEST PUSH1 0x40 MLOAD DUP1 SWAP2 SUB SWAP1 RETURN JUMPDEST PUSH2 0x102 PUSH2 0x234 JUMP JUMPDEST PUSH1 0x40 MLOAD PUSH2 0x10F SWAP2 SWAP1 PUSH2 0x415 JUMP JUMPDEST PUSH1 0x40 MLOAD DUP1 SWAP2 SUB SWAP1 RETURN JUMPDEST PUSH2 0x120 PUSH2 0x2C2 JUMP JUMPDEST PUSH1 0x40 MLOAD PUSH2 0x12D SWAP2 SWAP1 PUSH2 0x361 JUMP JUMPDEST PUSH1 0x40 MLOAD DUP1 SWAP2 SUB SWAP1 RETURN JUMPDEST PUSH2 0x13E PUSH2 0x2C8 JUMP JUMPDEST PUSH1 0x40 MLOAD PUSH2 0x14B SWAP2 SWAP1 PUSH2 0x32D JUMP JUMPDEST PUSH1 0x40 MLOAD DUP1 SWAP2 SUB SWAP1 RETURN JUMPDEST PUSH1 0x2 PUSH1 0x0 SWAP1 SLOAD SWAP1 PUSH2 0x100 EXP SWAP1 DIV PUSH20 0xFFFFFFFFFFFFFFFFFFFFFFFFFFFFFFFFFFFFFFFF AND DUP2 JUMP JUMPDEST PUSH1 0x4 SLOAD DUP2 JUMP JUMPDEST PUSH1 0x5 DUP1 SLOAD PUSH2 0x18D SWAP1 PUSH2 0x4A2 JUMP JUMPDEST DUP1 PUSH1 0x1F ADD PUSH1 0x20 DUP1 SWAP2 DIV MUL PUSH1 0x20 ADD PUSH1 0x40 MLOAD SWAP1 DUP2 ADD PUSH1 0x40 MSTORE DUP1 SWAP3 SWAP2 SWAP1 DUP2 DUP2 MSTORE PUSH1 0x20 ADD DUP3 DUP1 SLOAD PUSH2 0x1B9 SWAP1 PUSH2 0x4A2 JUMP JUMPDEST DUP1 ISZERO PUSH2 0x206 JUMPI DUP1 PUSH1 0x1F LT PUSH2 0x1DB JUMPI PUSH2 0x100 DUP1 DUP4 SLOAD DIV MUL DUP4 MSTORE SWAP2 PUSH1 0x20 ADD SWAP2 PUSH2 0x206 JUMP JUMPDEST DUP3 ADD SWAP2 SWAP1 PUSH1 0x0 MSTORE PUSH1 0x20 PUSH1 0x0 KECCAK256 SWAP1 JUMPDEST DUP2 SLOAD DUP2 MSTORE SWAP1 PUSH1 0x1 ADD SWAP1 PUSH1 0x20 ADD DUP1 DUP4 GT PUSH2 0x1E9 JUMPI DUP3 SWAP1 SUB PUSH1 0x1F AND DUP3 ADD SWAP2 JUMPDEST POP POP POP POP POP DUP2 JUMP JUMPDEST PUSH1 0x1 PUSH1 0x0 SWAP1 SLOAD SWAP1 PUSH2 0x100 EXP SWAP1 DIV PUSH20 0xFFFFFFFFFFFFFFFFFFFFFFFFFFFFFFFFFFFFFFFF AND DUP2 JUMP JUMPDEST PUSH1 0x6 DUP1 SLOAD PUSH2 0x241 SWAP1 PUSH2 0x4A2 JUMP JUMPDEST DUP1 PUSH1 0x1F ADD PUSH1 0x20 DUP1 SWAP2 DIV MUL PUSH1 0x20 ADD PUSH1 0x40 MLOAD SWAP1 DUP2 ADD PUSH1 0x40 MSTORE DUP1 SWAP3 SWAP2 SWAP1 DUP2 DUP2 MSTORE PUSH1 0x20 ADD DUP3 DUP1 SLOAD PUSH2 0x26D SWAP1 PUSH2 0x4A2 JUMP JUMPDEST DUP1 ISZERO PUSH2 0x2BA JUMPI DUP1 PUSH1 0x1F LT PUSH2 0x28F JUMPI PUSH2 0x100 DUP1 DUP4 SLOAD DIV MUL DUP4 MSTORE SWAP2 PUSH1 0x20 ADD SWAP2 PUSH2 0x2BA JUMP JUMPDEST DUP3 ADD SWAP2 SWAP1 PUSH1 0x0 MSTORE PUSH1 0x20 PUSH1 0x0 KECCAK256 SWAP1 JUMPDEST DUP2 SLOAD DUP2 MSTORE SWAP1 PUSH1 0x1 ADD SWAP1 PUSH1 0x20 ADD DUP1 DUP4 GT PUSH2 0x29D JUMPI DUP3 SWAP1 SUB PUSH1 0x1F AND DUP3 ADD SWAP2 JUMPDEST POP POP POP POP POP DUP2 JUMP JUMPDEST PUSH1 0x3 SLOAD DUP2 JUMP JUMPDEST PUSH1 0x0 DUP1 SLOAD SWAP1 PUSH2 0x100 EXP SWAP1 DIV PUSH20 0xFFFFFFFFFFFFFFFFFFFFFFFFFFFFFFFFFFFFFFFF AND DUP2 JUMP JUMPDEST PUSH1 0x0 PUSH20 0xFFFFFFFFFFFFFFFFFFFFFFFFFFFFFFFFFFFFFFFF DUP3 AND SWAP1 POP SWAP2 SWAP1 POP JUMP JUMPDEST PUSH1 0x0 PUSH2 0x317 DUP3 PUSH2 0x2EC JUMP JUMPDEST SWAP1 POP SWAP2 SWAP1 POP JUMP JUMPDEST PUSH2 0x327 DUP2 PUSH2 0x30C JUMP JUMPDEST DUP3 MSTORE POP POP JUMP JUMPDEST PUSH1 0x0 PUSH1 0x20 DUP3 ADD SWAP1 POP PUSH2 0x342 PUSH1 0x0 DUP4 ADD DUP5 PUSH2 0x31E JUMP JUMPDEST SWAP3 SWAP2 POP POP JUMP JUMPDEST PUSH1 0x0 DUP2 SWAP1 POP SWAP2 SWAP1 POP JUMP JUMPDEST PUSH2 0x35B DUP2 PUSH2 0x348 JUMP JUMPDEST DUP3 MSTORE POP POP JUMP JUMPDEST PUSH1 0x0 PUSH1 0x20 DUP3 ADD SWAP1 POP PUSH2 0x376 PUSH1 0x0 DUP4 ADD DUP5 PUSH2 0x352 JUMP JUMPDEST SWAP3 SWAP2 POP POP JUMP JUMPDEST PUSH1 0x0 DUP2 MLOAD SWAP1 POP SWAP2 SWAP1 POP JUMP JUMPDEST PUSH1 0x0 DUP3 DUP3 MSTORE PUSH1 0x20 DUP3 ADD SWAP1 POP SWAP3 SWAP2 POP POP JUMP JUMPDEST PUSH1 0x0 JUMPDEST DUP4 DUP2 LT ISZERO PUSH2 0x3B6 JUMPI DUP1 DUP3 ADD MLOAD DUP2 DUP5 ADD MSTORE PUSH1 0x20 DUP2 ADD SWAP1 POP PUSH2 0x39B JUMP JUMPDEST DUP4 DUP2 GT ISZERO PUSH2 0x3C5 JUMPI PUSH1 0x0 DUP5 DUP5 ADD MSTORE JUMPDEST POP POP POP POP JUMP JUMPDEST PUSH1 0x0 PUSH1 0x1F NOT PUSH1 0x1F DUP4 ADD AND SWAP1 POP SWAP2 SWAP1 POP JUMP JUMPDEST PUSH1 0x0 PUSH2 0x3E7 DUP3 PUSH2 0x37C JUMP JUMPDEST PUSH2 0x3F1 DUP2 DUP6 PUSH2 0x387 JUMP JUMPDEST SWAP4 POP PUSH2 0x401 DUP2 DUP6 PUSH1 0x20 DUP7 ADD PUSH2 0x398 JUMP JUMPDEST PUSH2 0x40A DUP2 PUSH2 0x3CB JUMP JUMPDEST DUP5 ADD SWAP2 POP POP SWAP3 SWAP2 POP POP JUMP JUMPDEST PUSH1 0x0 PUSH1 0x20 DUP3 ADD SWAP1 POP DUP2 DUP2 SUB PUSH1 0x0 DUP4 ADD MSTORE PUSH2 0x42F DUP2 DUP5 PUSH2 0x3DC JUMP JUMPDEST SWAP1 POP SWAP3 SWAP2 POP POP JUMP JUMPDEST PUSH1 0x0 PUSH2 0x442 DUP3 PUSH2 0x2EC JUMP JUMPDEST SWAP1 POP SWAP2 SWAP1 POP JUMP JUMPDEST PUSH2 0x452 DUP2 PUSH2 0x437 JUMP JUMPDEST DUP3 MSTORE POP POP JUMP JUMPDEST PUSH1 0x0 PUSH1 0x20 DUP3 ADD SWAP1 POP PUSH2 0x46D PUSH1 0x0 DUP4 ADD DUP5 PUSH2 0x449 JUMP JUMPDEST SWAP3 SWAP2 POP POP JUMP JUMPDEST PUSH32 0x4E487B7100000000000000000000000000000000000000000000000000000000 PUSH1 0x0 MSTORE PUSH1 0x22 PUSH1 0x4 MSTORE PUSH1 0x24 PUSH1 0x0 REVERT JUMPDEST PUSH1 0x0 PUSH1 0x2 DUP3 DIV SWAP1 POP PUSH1 0x1 DUP3 AND DUP1 PUSH2 0x4BA JUMPI PUSH1 0x7F DUP3 AND SWAP2 POP JUMPDEST PUSH1 0x20 DUP3 LT DUP2 SUB PUSH2 0x4CD JUMPI PUSH2 0x4CC PUSH2 0x473 JUMP JUMPDEST JUMPDEST POP SWAP2 SWAP1 POP JUMP INVALID LOG2 PUSH5 0x6970667358 0x22 SLT KECCAK256 DUP12 AND 0xBD PUSH6 0x784FA330FE08 SGT 0xEB 0xB7 STATICCALL 0xA9 AND XOR COINBASE 0x5F BLOCKHASH PUSH6 0xC095C87926B6 DELEGATECALL EXTCODECOPY MLOAD 0xA6 0x5E PUSH5 0x736F6C6343 STOP ADDMOD 0xF STOP CALLER "
				},
				"gasEstimates": {
					"creation": {
						"codeDepositCost": "257800",
						"executionCost": "infinite",
						"totalCost": "infinite"
					},
					"external": {
						"addr1()": "2577",
						"addr2()": "2514",
						"balance1()": "2473",
						"balance2()": "2452",
						"by1()": "infinite",
						"by2()": "infinite",
						"contractAddr()": "2515"
					}
				},
				"methodIdentifiers": {
					"addr1()": "eabe09ad",
					"addr2()": "8de38f98",
					"balance1()": "c45c4f58",
					"balance2()": "40441eec",
					"by1()": "59d56bae",
					"by2()": "b377643c",
					"contractAddr()": "15a5d9d8"
				}
			},
			"storageLayout": {
				"storage": [
					{
						"astId": 4,
						"contract": "chapter02/9type3.sol:type11",
						"label": "addr1",
						"offset": 0,
						"slot": "0",
						"type": "t_address"
					},
					{
						"astId": 10,
						"contract": "chapter02/9type3.sol:type11",
						"label": "addr2",
						"offset": 0,
						"slot": "1",
						"type": "t_address_payable"
					},
					{
						"astId": 16,
						"contract": "chapter02/9type3.sol:type11",
						"label": "contractAddr",
						"offset": 0,
						"slot": "2",
						"type": "t_address"
					},
					{
						"astId": 20,
						"contract": "chapter02/9type3.sol:type11",
						"label": "balance1",
						"offset": 0,
						"slot": "3",
						"type": "t_uint256"
					},
					{
						"astId": 24,
						"contract": "chapter02/9type3.sol:type11",
						"label": "balance2",
						"offset": 0,
						"slot": "4",
						"type": "t_uint256"
					},
					{
						"astId": 28,
						"contract": "chapter02/9type3.sol:type11",
						"label": "by1",
						"offset": 0,
						"slot": "5",
						"type": "t_bytes_storage"
					},
					{
						"astId": 32,
						"contract": "chapter02/9type3.sol:type11",
						"label": "by2",
						"offset": 0,
						"slot": "6",
						"type": "t_bytes_storage"
					}
				],
				"types": {
					"t_address": {
						"encoding": "inplace",
						"label": "address",
						"numberOfBytes": "20"
					},
					"t_address_payable": {
						"encoding": "inplace",
						"label": "address payable",
						"numberOfBytes": "20"
					},
					"t_bytes_storage": {
						"encoding": "bytes",
						"label": "bytes",
						"numberOfBytes": "32"
					},
					"t_uint256": {
						"encoding": "inplace",
						"label": "uint256",
						"numberOfBytes": "32"
					}
				}
			},
			"userdoc": {
				"kind": "user",
				"methods": {},
				"version": 1
			}
		}
	}
}