{
	"study/chapter10/usingfor.sol": {
		"C": {
			"abi": [
				{
					"inputs": [
						{
							"internalType": "uint256",
							"name": "value",
							"type": "uint256"
						}
					],
					"name": "register",
					"outputs": [],
					"stateMutability": "nonpayable",
					"type": "function"
				}
			],
			"devdoc": {
				"kind": "dev",
				"methods": {},
				"version": 1
			},
			"evm": {
				"assembly": "    /* \"study/chapter10/usingfor.sol\":1037:1432  contract C {... */\n  mstore(0x40, 0x80)\n  callvalue\n  dup1\n  iszero\n  tag_1\n  jumpi\n  0x00\n  dup1\n  revert\ntag_1:\n  pop\n  dataSize(sub_0)\n  dup1\n  dataOffset(sub_0)\n  0x00\n  codecopy\n  0x00\n  return\nstop\n\nsub_0: assembly {\n        /* \"study/chapter10/usingfor.sol\":1037:1432  contract C {... */\n      mstore(0x40, 0x80)\n      callvalue\n      dup1\n      iszero\n      tag_1\n      jumpi\n      0x00\n      dup1\n      revert\n    tag_1:\n      pop\n      jumpi(tag_2, lt(calldatasize, 0x04))\n      shr(0xe0, calldataload(0x00))\n      dup1\n      0xf207564e\n      eq\n      tag_3\n      jumpi\n    tag_2:\n      0x00\n      dup1\n      revert\n        /* \"study/chapter10/usingfor.sol\":1106:1335  function register(uint value) public {... */\n    tag_3:\n      tag_4\n      0x04\n      dup1\n      calldatasize\n      sub\n      dup2\n      add\n      swap1\n      tag_5\n      swap2\n      swap1\n      tag_6\n      jump\t// in\n    tag_5:\n      tag_7\n      jump\t// in\n    tag_4:\n      stop\n    tag_7:\n        /* \"study/chapter10/usingfor.sol\":1280:1283  Set */\n      linkerSymbol(\"05878496b0d6f6a8b363b799b0288d5f649a9aef3e2a7fc4c35a6539b1f0d5f4\")\n        /* \"study/chapter10/usingfor.sol\":1280:1290  Set.insert */\n      0x3ab90ad8\n        /* \"study/chapter10/usingfor.sol\":1291:1302  knownValues */\n      0x00\n        /* \"study/chapter10/usingfor.sol\":1304:1309  value */\n      dup4\n        /* \"study/chapter10/usingfor.sol\":1280:1310  Set.insert(knownValues, value) */\n      mload(0x40)\n      dup4\n      0xffffffff\n      and\n      0xe0\n      shl\n      dup2\n      mstore\n      0x04\n      add\n      tag_9\n      swap3\n      swap2\n      swap1\n      tag_10\n      jump\t// in\n    tag_9:\n      0x20\n      mload(0x40)\n      dup1\n      dup4\n      sub\n      dup2\n      dup7\n      dup1\n      extcodesize\n      iszero\n      dup1\n      iszero\n      tag_11\n      jumpi\n      0x00\n      dup1\n      revert\n    tag_11:\n      pop\n      gas\n      delegatecall\n      iszero\n      dup1\n      iszero\n      tag_13\n      jumpi\n      returndatasize\n      0x00\n      dup1\n      returndatacopy\n      revert(0x00, returndatasize)\n    tag_13:\n      pop\n      pop\n      pop\n      pop\n      mload(0x40)\n      returndatasize\n      not(0x1f)\n      0x1f\n      dup3\n      add\n      and\n      dup3\n      add\n      dup1\n      0x40\n      mstore\n      pop\n      dup2\n      add\n      swap1\n      tag_14\n      swap2\n      swap1\n      tag_15\n      jump\t// in\n    tag_14:\n        /* \"study/chapter10/usingfor.sol\":1272:1328  require(Set.insert(knownValues, value),\"alreadly exsit\") */\n      tag_16\n      jumpi\n      mload(0x40)\n      0x08c379a000000000000000000000000000000000000000000000000000000000\n      dup2\n      mstore\n      0x04\n      add\n      tag_17\n      swap1\n      tag_18\n      jump\t// in\n    tag_17:\n      mload(0x40)\n      dup1\n      swap2\n      sub\n      swap1\n      revert\n    tag_16:\n        /* \"study/chapter10/usingfor.sol\":1106:1335  function register(uint value) public {... */\n      pop\n      jump\t// out\n        /* \"#utility.yul\":7:144   */\n    tag_20:\n      0x00\n        /* \"#utility.yul\":92:98   */\n      dup2\n        /* \"#utility.yul\":86:99   */\n      mload\n        /* \"#utility.yul\":77:99   */\n      swap1\n      pop\n        /* \"#utility.yul\":108:138   */\n      tag_22\n        /* \"#utility.yul\":132:137   */\n      dup2\n        /* \"#utility.yul\":108:138   */\n      tag_23\n      jump\t// in\n    tag_22:\n        /* \"#utility.yul\":67:144   */\n      swap3\n      swap2\n      pop\n      pop\n      jump\t// out\n        /* \"#utility.yul\":150:289   */\n    tag_24:\n      0x00\n        /* \"#utility.yul\":234:240   */\n      dup2\n        /* \"#utility.yul\":221:241   */\n      calldataload\n        /* \"#utility.yul\":212:241   */\n      swap1\n      pop\n        /* \"#utility.yul\":250:283   */\n      tag_26\n        /* \"#utility.yul\":277:282   */\n      dup2\n        /* \"#utility.yul\":250:283   */\n      tag_27\n      jump\t// in\n    tag_26:\n        /* \"#utility.yul\":202:289   */\n      swap3\n      swap2\n      pop\n      pop\n      jump\t// out\n        /* \"#utility.yul\":295:573   */\n    tag_15:\n      0x00\n        /* \"#utility.yul\":411:413   */\n      0x20\n        /* \"#utility.yul\":399:408   */\n      dup3\n        /* \"#utility.yul\":390:397   */\n      dup5\n        /* \"#utility.yul\":386:409   */\n      sub\n        /* \"#utility.yul\":382:414   */\n      slt\n        /* \"#utility.yul\":379:381   */\n      iszero\n      tag_29\n      jumpi\n        /* \"#utility.yul\":427:428   */\n      0x00\n        /* \"#utility.yul\":424:425   */\n      dup1\n        /* \"#utility.yul\":417:429   */\n      revert\n        /* \"#utility.yul\":379:381   */\n    tag_29:\n        /* \"#utility.yul\":470:471   */\n      0x00\n        /* \"#utility.yul\":495:556   */\n      tag_30\n        /* \"#utility.yul\":548:555   */\n      dup5\n        /* \"#utility.yul\":539:545   */\n      dup3\n        /* \"#utility.yul\":528:537   */\n      dup6\n        /* \"#utility.yul\":524:546   */\n      add\n        /* \"#utility.yul\":495:556   */\n      tag_20\n      jump\t// in\n    tag_30:\n        /* \"#utility.yul\":485:556   */\n      swap2\n      pop\n        /* \"#utility.yul\":441:566   */\n      pop\n        /* \"#utility.yul\":369:573   */\n      swap3\n      swap2\n      pop\n      pop\n      jump\t// out\n        /* \"#utility.yul\":579:841   */\n    tag_6:\n      0x00\n        /* \"#utility.yul\":687:689   */\n      0x20\n        /* \"#utility.yul\":675:684   */\n      dup3\n        /* \"#utility.yul\":666:673   */\n      dup5\n        /* \"#utility.yul\":662:685   */\n      sub\n        /* \"#utility.yul\":658:690   */\n      slt\n        /* \"#utility.yul\":655:657   */\n      iszero\n      tag_32\n      jumpi\n        /* \"#utility.yul\":703:704   */\n      0x00\n        /* \"#utility.yul\":700:701   */\n      dup1\n        /* \"#utility.yul\":693:705   */\n      revert\n        /* \"#utility.yul\":655:657   */\n    tag_32:\n        /* \"#utility.yul\":746:747   */\n      0x00\n        /* \"#utility.yul\":771:824   */\n      tag_33\n        /* \"#utility.yul\":816:823   */\n      dup5\n        /* \"#utility.yul\":807:813   */\n      dup3\n        /* \"#utility.yul\":796:805   */\n      dup6\n        /* \"#utility.yul\":792:814   */\n      add\n        /* \"#utility.yul\":771:824   */\n      tag_24\n      jump\t// in\n    tag_33:\n        /* \"#utility.yul\":761:824   */\n      swap2\n      pop\n        /* \"#utility.yul\":717:834   */\n      pop\n        /* \"#utility.yul\":645:841   */\n      swap3\n      swap2\n      pop\n      pop\n      jump\t// out\n        /* \"#utility.yul\":847:1213   */\n    tag_34:\n      0x00\n        /* \"#utility.yul\":1010:1077   */\n      tag_36\n        /* \"#utility.yul\":1074:1076   */\n      0x0e\n        /* \"#utility.yul\":1069:1072   */\n      dup4\n        /* \"#utility.yul\":1010:1077   */\n      tag_37\n      jump\t// in\n    tag_36:\n        /* \"#utility.yul\":1003:1077   */\n      swap2\n      pop\n        /* \"#utility.yul\":1086:1179   */\n      tag_38\n        /* \"#utility.yul\":1175:1178   */\n      dup3\n        /* \"#utility.yul\":1086:1179   */\n      tag_39\n      jump\t// in\n    tag_38:\n        /* \"#utility.yul\":1204:1206   */\n      0x20\n        /* \"#utility.yul\":1199:1202   */\n      dup3\n        /* \"#utility.yul\":1195:1207   */\n      add\n        /* \"#utility.yul\":1188:1207   */\n      swap1\n      pop\n        /* \"#utility.yul\":993:1213   */\n      swap2\n      swap1\n      pop\n      jump\t// out\n        /* \"#utility.yul\":1219:1342   */\n    tag_40:\n        /* \"#utility.yul\":1330:1335   */\n      dup1\n        /* \"#utility.yul\":1325:1328   */\n      dup3\n        /* \"#utility.yul\":1318:1336   */\n      mstore\n        /* \"#utility.yul\":1308:1342   */\n      pop\n      pop\n      jump\t// out\n        /* \"#utility.yul\":1348:1474   */\n    tag_42:\n        /* \"#utility.yul\":1443:1467   */\n      tag_44\n        /* \"#utility.yul\":1461:1466   */\n      dup2\n        /* \"#utility.yul\":1443:1467   */\n      tag_45\n      jump\t// in\n    tag_44:\n        /* \"#utility.yul\":1438:1441   */\n      dup3\n        /* \"#utility.yul\":1431:1468   */\n      mstore\n        /* \"#utility.yul\":1421:1474   */\n      pop\n      pop\n      jump\t// out\n        /* \"#utility.yul\":1480:1899   */\n    tag_18:\n      0x00\n        /* \"#utility.yul\":1684:1686   */\n      0x20\n        /* \"#utility.yul\":1673:1682   */\n      dup3\n        /* \"#utility.yul\":1669:1687   */\n      add\n        /* \"#utility.yul\":1661:1687   */\n      swap1\n      pop\n        /* \"#utility.yul\":1733:1742   */\n      dup2\n        /* \"#utility.yul\":1727:1731   */\n      dup2\n        /* \"#utility.yul\":1723:1743   */\n      sub\n        /* \"#utility.yul\":1719:1720   */\n      0x00\n        /* \"#utility.yul\":1708:1717   */\n      dup4\n        /* \"#utility.yul\":1704:1721   */\n      add\n        /* \"#utility.yul\":1697:1744   */\n      mstore\n        /* \"#utility.yul\":1761:1892   */\n      tag_47\n        /* \"#utility.yul\":1887:1891   */\n      dup2\n        /* \"#utility.yul\":1761:1892   */\n      tag_34\n      jump\t// in\n    tag_47:\n        /* \"#utility.yul\":1753:1892   */\n      swap1\n      pop\n        /* \"#utility.yul\":1651:1899   */\n      swap2\n      swap1\n      pop\n      jump\t// out\n        /* \"#utility.yul\":1905:2293   */\n    tag_10:\n      0x00\n        /* \"#utility.yul\":2088:2090   */\n      0x40\n        /* \"#utility.yul\":2077:2086   */\n      dup3\n        /* \"#utility.yul\":2073:2091   */\n      add\n        /* \"#utility.yul\":2065:2091   */\n      swap1\n      pop\n        /* \"#utility.yul\":2101:2196   */\n      tag_49\n        /* \"#utility.yul\":2193:2194   */\n      0x00\n        /* \"#utility.yul\":2182:2191   */\n      dup4\n        /* \"#utility.yul\":2178:2195   */\n      add\n        /* \"#utility.yul\":2169:2175   */\n      dup6\n        /* \"#utility.yul\":2101:2196   */\n      tag_40\n      jump\t// in\n    tag_49:\n        /* \"#utility.yul\":2206:2286   */\n      tag_50\n        /* \"#utility.yul\":2282:2284   */\n      0x20\n        /* \"#utility.yul\":2271:2280   */\n      dup4\n        /* \"#utility.yul\":2267:2285   */\n      add\n        /* \"#utility.yul\":2258:2264   */\n      dup5\n        /* \"#utility.yul\":2206:2286   */\n      tag_42\n      jump\t// in\n    tag_50:\n        /* \"#utility.yul\":2055:2293   */\n      swap4\n      swap3\n      pop\n      pop\n      pop\n      jump\t// out\n        /* \"#utility.yul\":2299:2468   */\n    tag_37:\n      0x00\n        /* \"#utility.yul\":2417:2423   */\n      dup3\n        /* \"#utility.yul\":2412:2415   */\n      dup3\n        /* \"#utility.yul\":2405:2424   */\n      mstore\n        /* \"#utility.yul\":2457:2461   */\n      0x20\n        /* \"#utility.yul\":2452:2455   */\n      dup3\n        /* \"#utility.yul\":2448:2462   */\n      add\n        /* \"#utility.yul\":2433:2462   */\n      swap1\n      pop\n        /* \"#utility.yul\":2395:2468   */\n      swap3\n      swap2\n      pop\n      pop\n      jump\t// out\n        /* \"#utility.yul\":2474:2564   */\n    tag_52:\n      0x00\n        /* \"#utility.yul\":2551:2556   */\n      dup2\n        /* \"#utility.yul\":2544:2557   */\n      iszero\n        /* \"#utility.yul\":2537:2558   */\n      iszero\n        /* \"#utility.yul\":2526:2558   */\n      swap1\n      pop\n        /* \"#utility.yul\":2516:2564   */\n      swap2\n      swap1\n      pop\n      jump\t// out\n        /* \"#utility.yul\":2570:2647   */\n    tag_45:\n      0x00\n        /* \"#utility.yul\":2636:2641   */\n      dup2\n        /* \"#utility.yul\":2625:2641   */\n      swap1\n      pop\n        /* \"#utility.yul\":2615:2647   */\n      swap2\n      swap1\n      pop\n      jump\t// out\n        /* \"#utility.yul\":2653:2817   */\n    tag_39:\n        /* \"#utility.yul\":2793:2809   */\n      0x616c726561646c79206578736974000000000000000000000000000000000000\n        /* \"#utility.yul\":2789:2790   */\n      0x00\n        /* \"#utility.yul\":2781:2787   */\n      dup3\n        /* \"#utility.yul\":2777:2791   */\n      add\n        /* \"#utility.yul\":2770:2810   */\n      mstore\n        /* \"#utility.yul\":2759:2817   */\n      pop\n      jump\t// out\n        /* \"#utility.yul\":2823:2939   */\n    tag_23:\n        /* \"#utility.yul\":2893:2914   */\n      tag_57\n        /* \"#utility.yul\":2908:2913   */\n      dup2\n        /* \"#utility.yul\":2893:2914   */\n      tag_52\n      jump\t// in\n    tag_57:\n        /* \"#utility.yul\":2886:2891   */\n      dup2\n        /* \"#utility.yul\":2883:2915   */\n      eq\n        /* \"#utility.yul\":2873:2875   */\n      tag_58\n      jumpi\n        /* \"#utility.yul\":2929:2930   */\n      0x00\n        /* \"#utility.yul\":2926:2927   */\n      dup1\n        /* \"#utility.yul\":2919:2931   */\n      revert\n        /* \"#utility.yul\":2873:2875   */\n    tag_58:\n        /* \"#utility.yul\":2863:2939   */\n      pop\n      jump\t// out\n        /* \"#utility.yul\":2945:3067   */\n    tag_27:\n        /* \"#utility.yul\":3018:3042   */\n      tag_60\n        /* \"#utility.yul\":3036:3041   */\n      dup2\n        /* \"#utility.yul\":3018:3042   */\n      tag_45\n      jump\t// in\n    tag_60:\n        /* \"#utility.yul\":3011:3016   */\n      dup2\n        /* \"#utility.yul\":3008:3043   */\n      eq\n        /* \"#utility.yul\":2998:3000   */\n      tag_61\n      jumpi\n        /* \"#utility.yul\":3057:3058   */\n      0x00\n        /* \"#utility.yul\":3054:3055   */\n      dup1\n        /* \"#utility.yul\":3047:3059   */\n      revert\n        /* \"#utility.yul\":2998:3000   */\n    tag_61:\n        /* \"#utility.yul\":2988:3067   */\n      pop\n      jump\t// out\n\n    auxdata: 0xa26469706673582212200abe20d8fd4e0c71032df9511b2c78edaa44392b93d08b73e0447809332482d264736f6c63430008010033\n}\n",
				"bytecode": {
					"linkReferences": {
						"study/chapter10/usingfor.sol": {
							"Set": [
								{
									"length": 20,
									"start": 110
								}
							]
						}
					},
					"object": "608060405234801561001057600080fd5b506102ca806100206000396000f3fe608060405234801561001057600080fd5b506004361061002b5760003560e01c8063f207564e14610030575b600080fd5b61004a6004803603810190610045919061016b565b61004c565b005b73__$05878496b0d6f6a8b363b799b0288d5f64$__633ab90ad86000836040518363ffffffff1660e01b81526004016100869291906101ed565b60206040518083038186803b15801561009e57600080fd5b505af41580156100b2573d6000803e3d6000fd5b505050506040513d601f19601f820116820180604052508101906100d69190610142565b610115576040517f08c379a000000000000000000000000000000000000000000000000000000000815260040161010c906101cd565b60405180910390fd5b50565b60008151905061012781610266565b92915050565b60008135905061013c8161027d565b92915050565b60006020828403121561015457600080fd5b600061016284828501610118565b91505092915050565b60006020828403121561017d57600080fd5b600061018b8482850161012d565b91505092915050565b60006101a1600e83610216565b91506101ac8261023d565b602082019050919050565b8082525050565b6101c781610233565b82525050565b600060208201905081810360008301526101e681610194565b9050919050565b600060408201905061020260008301856101b7565b61020f60208301846101be565b9392505050565b600082825260208201905092915050565b60008115159050919050565b6000819050919050565b7f616c726561646c79206578736974000000000000000000000000000000000000600082015250565b61026f81610227565b811461027a57600080fd5b50565b61028681610233565b811461029157600080fd5b5056fea26469706673582212200abe20d8fd4e0c71032df9511b2c78edaa44392b93d08b73e0447809332482d264736f6c63430008010033",
					"opcodes": "PUSH1 0x80 PUSH1 0x40 MSTORE CALLVALUE DUP1 ISZERO PUSH2 0x10 JUMPI PUSH1 0x0 DUP1 REVERT JUMPDEST POP PUSH2 0x2CA DUP1 PUSH2 0x20 PUSH1 0x0 CODECOPY PUSH1 0x0 RETURN INVALID PUSH1 0x80 PUSH1 0x40 MSTORE CALLVALUE DUP1 ISZERO PUSH2 0x10 JUMPI PUSH1 0x0 DUP1 REVERT JUMPDEST POP PUSH1 0x4 CALLDATASIZE LT PUSH2 0x2B JUMPI PUSH1 0x0 CALLDATALOAD PUSH1 0xE0 SHR DUP1 PUSH4 0xF207564E EQ PUSH2 0x30 JUMPI JUMPDEST PUSH1 0x0 DUP1 REVERT JUMPDEST PUSH2 0x4A PUSH1 0x4 DUP1 CALLDATASIZE SUB DUP2 ADD SWAP1 PUSH2 0x45 SWAP2 SWAP1 PUSH2 0x16B JUMP JUMPDEST PUSH2 0x4C JUMP JUMPDEST STOP JUMPDEST PUSH20 0x0 PUSH4 0x3AB90AD8 PUSH1 0x0 DUP4 PUSH1 0x40 MLOAD DUP4 PUSH4 0xFFFFFFFF AND PUSH1 0xE0 SHL DUP2 MSTORE PUSH1 0x4 ADD PUSH2 0x86 SWAP3 SWAP2 SWAP1 PUSH2 0x1ED JUMP JUMPDEST PUSH1 0x20 PUSH1 0x40 MLOAD DUP1 DUP4 SUB DUP2 DUP7 DUP1 EXTCODESIZE ISZERO DUP1 ISZERO PUSH2 0x9E JUMPI PUSH1 0x0 DUP1 REVERT JUMPDEST POP GAS DELEGATECALL ISZERO DUP1 ISZERO PUSH2 0xB2 JUMPI RETURNDATASIZE PUSH1 0x0 DUP1 RETURNDATACOPY RETURNDATASIZE PUSH1 0x0 REVERT JUMPDEST POP POP POP POP PUSH1 0x40 MLOAD RETURNDATASIZE PUSH1 0x1F NOT PUSH1 0x1F DUP3 ADD AND DUP3 ADD DUP1 PUSH1 0x40 MSTORE POP DUP2 ADD SWAP1 PUSH2 0xD6 SWAP2 SWAP1 PUSH2 0x142 JUMP JUMPDEST PUSH2 0x115 JUMPI PUSH1 0x40 MLOAD PUSH32 0x8C379A000000000000000000000000000000000000000000000000000000000 DUP2 MSTORE PUSH1 0x4 ADD PUSH2 0x10C SWAP1 PUSH2 0x1CD JUMP JUMPDEST PUSH1 0x40 MLOAD DUP1 SWAP2 SUB SWAP1 REVERT JUMPDEST POP JUMP JUMPDEST PUSH1 0x0 DUP2 MLOAD SWAP1 POP PUSH2 0x127 DUP2 PUSH2 0x266 JUMP JUMPDEST SWAP3 SWAP2 POP POP JUMP JUMPDEST PUSH1 0x0 DUP2 CALLDATALOAD SWAP1 POP PUSH2 0x13C DUP2 PUSH2 0x27D JUMP JUMPDEST SWAP3 SWAP2 POP POP JUMP JUMPDEST PUSH1 0x0 PUSH1 0x20 DUP3 DUP5 SUB SLT ISZERO PUSH2 0x154 JUMPI PUSH1 0x0 DUP1 REVERT JUMPDEST PUSH1 0x0 PUSH2 0x162 DUP5 DUP3 DUP6 ADD PUSH2 0x118 JUMP JUMPDEST SWAP2 POP POP SWAP3 SWAP2 POP POP JUMP JUMPDEST PUSH1 0x0 PUSH1 0x20 DUP3 DUP5 SUB SLT ISZERO PUSH2 0x17D JUMPI PUSH1 0x0 DUP1 REVERT JUMPDEST PUSH1 0x0 PUSH2 0x18B DUP5 DUP3 DUP6 ADD PUSH2 0x12D JUMP JUMPDEST SWAP2 POP POP SWAP3 SWAP2 POP POP JUMP JUMPDEST PUSH1 0x0 PUSH2 0x1A1 PUSH1 0xE DUP4 PUSH2 0x216 JUMP JUMPDEST SWAP2 POP PUSH2 0x1AC DUP3 PUSH2 0x23D JUMP JUMPDEST PUSH1 0x20 DUP3 ADD SWAP1 POP SWAP2 SWAP1 POP JUMP JUMPDEST DUP1 DUP3 MSTORE POP POP JUMP JUMPDEST PUSH2 0x1C7 DUP2 PUSH2 0x233 JUMP JUMPDEST DUP3 MSTORE POP POP JUMP JUMPDEST PUSH1 0x0 PUSH1 0x20 DUP3 ADD SWAP1 POP DUP2 DUP2 SUB PUSH1 0x0 DUP4 ADD MSTORE PUSH2 0x1E6 DUP2 PUSH2 0x194 JUMP JUMPDEST SWAP1 POP SWAP2 SWAP1 POP JUMP JUMPDEST PUSH1 0x0 PUSH1 0x40 DUP3 ADD SWAP1 POP PUSH2 0x202 PUSH1 0x0 DUP4 ADD DUP6 PUSH2 0x1B7 JUMP JUMPDEST PUSH2 0x20F PUSH1 0x20 DUP4 ADD DUP5 PUSH2 0x1BE JUMP JUMPDEST SWAP4 SWAP3 POP POP POP JUMP JUMPDEST PUSH1 0x0 DUP3 DUP3 MSTORE PUSH1 0x20 DUP3 ADD SWAP1 POP SWAP3 SWAP2 POP POP JUMP JUMPDEST PUSH1 0x0 DUP2 ISZERO ISZERO SWAP1 POP SWAP2 SWAP1 POP JUMP JUMPDEST PUSH1 0x0 DUP2 SWAP1 POP SWAP2 SWAP1 POP JUMP JUMPDEST PUSH32 0x616C726561646C79206578736974000000000000000000000000000000000000 PUSH1 0x0 DUP3 ADD MSTORE POP JUMP JUMPDEST PUSH2 0x26F DUP2 PUSH2 0x227 JUMP JUMPDEST DUP2 EQ PUSH2 0x27A JUMPI PUSH1 0x0 DUP1 REVERT JUMPDEST POP JUMP JUMPDEST PUSH2 0x286 DUP2 PUSH2 0x233 JUMP JUMPDEST DUP2 EQ PUSH2 0x291 JUMPI PUSH1 0x0 DUP1 REVERT JUMPDEST POP JUMP INVALID LOG2 PUSH5 0x6970667358 0x22 SLT KECCAK256 EXP 0xBE KECCAK256 0xD8 REVERT 0x4E 0xC PUSH18 0x32DF9511B2C78EDAA44392B93D08B73E044 PUSH25 0x9332482D264736F6C63430008010033000000000000000000 "
				},
				"gasEstimates": {
					"creation": {
						"codeDepositCost": "142800",
						"executionCost": "190",
						"totalCost": "142990"
					},
					"external": {
						"register(uint256)": "infinite"
					}
				},
				"methodIdentifiers": {
					"register(uint256)": "f207564e"
				}
			},
			"storageLayout": {
				"storage": [
					{
						"astId": 87,
						"contract": "study/chapter10/usingfor.sol:C",
						"label": "knownValues",
						"offset": 0,
						"slot": "0",
						"type": "t_struct(Data)6_storage"
					}
				],
				"types": {
					"t_bool": {
						"encoding": "inplace",
						"label": "bool",
						"numberOfBytes": "1"
					},
					"t_mapping(t_uint256,t_bool)": {
						"encoding": "mapping",
						"key": "t_uint256",
						"label": "mapping(uint256 => bool)",
						"numberOfBytes": "32",
						"value": "t_bool"
					},
					"t_struct(Data)6_storage": {
						"encoding": "inplace",
						"label": "struct Data",
						"members": [
							{
								"astId": 5,
								"contract": "study/chapter10/usingfor.sol:C",
								"label": "flags",
								"offset": 0,
								"slot": "0",
								"type": "t_mapping(t_uint256,t_bool)"
							}
						],
						"numberOfBytes": "32"
					},
					"t_uint256": {
						"encoding": "inplace",
						"label": "uint256",
						"numberOfBytes": "32"
					}
				}
			},
			"userdoc": {
				"kind": "user",
				"methods": {},
				"version": 1
			}
		}
	}
}