{
	"code4/1error.sol": {
		"error": {
			"abi": [
				{
					"inputs": [],
					"name": "num",
					"outputs": [
						{
							"internalType": "uint256",
							"name": "",
							"type": "uint256"
						}
					],
					"stateMutability": "view",
					"type": "function"
				},
				{
					"inputs": [
						{
							"internalType": "uint256",
							"name": "i",
							"type": "uint256"
						}
					],
					"name": "testAssert",
					"outputs": [],
					"stateMutability": "pure",
					"type": "function"
				},
				{
					"inputs": [
						{
							"internalType": "uint256",
							"name": "i",
							"type": "uint256"
						}
					],
					"name": "testRequire",
					"outputs": [],
					"stateMutability": "pure",
					"type": "function"
				},
				{
					"inputs": [
						{
							"internalType": "uint256",
							"name": "i",
							"type": "uint256"
						}
					],
					"name": "testRevert",
					"outputs": [],
					"stateMutability": "pure",
					"type": "function"
				}
			],
			"devdoc": {
				"kind": "dev",
				"methods": {},
				"version": 1
			},
			"evm": {
				"assembly": "    /* \"code4/1error.sol\":109:462  contract error{... */\n  mstore(0x40, 0x80)\n    /* \"code4/1error.sol\":457:458  1 */\n  0x01\n    /* \"code4/1error.sol\":440:458  uint public num =1 */\n  0x00\n  sstore\n    /* \"code4/1error.sol\":109:462  contract error{... */\n  callvalue\n  dup1\n  iszero\n  tag_1\n  jumpi\n  0x00\n  dup1\n  revert\ntag_1:\n  pop\n  dataSize(sub_0)\n  dup1\n  dataOffset(sub_0)\n  0x00\n  codecopy\n  0x00\n  return\nstop\n\nsub_0: assembly {\n        /* \"code4/1error.sol\":109:462  contract error{... */\n      mstore(0x40, 0x80)\n      callvalue\n      dup1\n      iszero\n      tag_1\n      jumpi\n      0x00\n      dup1\n      revert\n    tag_1:\n      pop\n      jumpi(tag_2, lt(calldatasize, 0x04))\n      shr(0xe0, calldataload(0x00))\n      dup1\n      0x20987767\n      eq\n      tag_3\n      jumpi\n      dup1\n      0x246ce3f9\n      eq\n      tag_4\n      jumpi\n      dup1\n      0x4e70b1dc\n      eq\n      tag_5\n      jumpi\n      dup1\n      0xb8bd717f\n      eq\n      tag_6\n      jumpi\n    tag_2:\n      0x00\n      dup1\n      revert\n        /* \"code4/1error.sol\":214:317  function testRevert(uint i)external pure{... */\n    tag_3:\n      tag_7\n      0x04\n      dup1\n      calldatasize\n      sub\n      dup2\n      add\n      swap1\n      tag_8\n      swap2\n      swap1\n      tag_9\n      jump\t// in\n    tag_8:\n      tag_10\n      jump\t// in\n    tag_7:\n      stop\n        /* \"code4/1error.sol\":322:391  function testAssert(uint i)external pure{... */\n    tag_4:\n      tag_11\n      0x04\n      dup1\n      calldatasize\n      sub\n      dup2\n      add\n      swap1\n      tag_12\n      swap2\n      swap1\n      tag_9\n      jump\t// in\n    tag_12:\n      tag_13\n      jump\t// in\n    tag_11:\n      stop\n        /* \"code4/1error.sol\":440:458  uint public num =1 */\n    tag_5:\n      tag_14\n      tag_15\n      jump\t// in\n    tag_14:\n      mload(0x40)\n      tag_16\n      swap2\n      swap1\n      tag_17\n      jump\t// in\n    tag_16:\n      mload(0x40)\n      dup1\n      swap2\n      sub\n      swap1\n      return\n        /* \"code4/1error.sol\":130:208  function testRequire(uint i)external pure{... */\n    tag_6:\n      tag_18\n      0x04\n      dup1\n      calldatasize\n      sub\n      dup2\n      add\n      swap1\n      tag_19\n      swap2\n      swap1\n      tag_9\n      jump\t// in\n    tag_19:\n      tag_20\n      jump\t// in\n    tag_18:\n      stop\n        /* \"code4/1error.sol\":214:317  function testRevert(uint i)external pure{... */\n    tag_10:\n        /* \"code4/1error.sol\":269:271  10 */\n      0x0a\n        /* \"code4/1error.sol\":267:268  i */\n      dup2\n        /* \"code4/1error.sol\":267:271  i>10 */\n      gt\n        /* \"code4/1error.sol\":264:311  if(i>10){... */\n      iszero\n      tag_22\n      jumpi\n        /* \"code4/1error.sol\":286:300  revert(\"i>10\") */\n      mload(0x40)\n      0x08c379a000000000000000000000000000000000000000000000000000000000\n      dup2\n      mstore\n      0x04\n      add\n      tag_23\n      swap1\n      tag_24\n      jump\t// in\n    tag_23:\n      mload(0x40)\n      dup1\n      swap2\n      sub\n      swap1\n      revert\n        /* \"code4/1error.sol\":264:311  if(i>10){... */\n    tag_22:\n        /* \"code4/1error.sol\":214:317  function testRevert(uint i)external pure{... */\n      pop\n      jump\t// out\n        /* \"code4/1error.sol\":322:391  function testAssert(uint i)external pure{... */\n    tag_13:\n        /* \"code4/1error.sol\":381:383  10 */\n      0x0a\n        /* \"code4/1error.sol\":379:380  i */\n      dup2\n        /* \"code4/1error.sol\":379:383  i>10 */\n      gt\n        /* \"code4/1error.sol\":372:384  assert(i>10) */\n      tag_26\n      jumpi\n      tag_27\n      tag_28\n      jump\t// in\n    tag_27:\n    tag_26:\n        /* \"code4/1error.sol\":322:391  function testAssert(uint i)external pure{... */\n      pop\n      jump\t// out\n        /* \"code4/1error.sol\":440:458  uint public num =1 */\n    tag_15:\n      sload(0x00)\n      dup2\n      jump\t// out\n        /* \"code4/1error.sol\":130:208  function testRequire(uint i)external pure{... */\n    tag_20:\n        /* \"code4/1error.sol\":191:193  10 */\n      0x0a\n        /* \"code4/1error.sol\":189:190  i */\n      dup2\n        /* \"code4/1error.sol\":189:193  i<10 */\n      lt\n        /* \"code4/1error.sol\":181:201  require(i<10,\"i>10\") */\n      tag_30\n      jumpi\n      mload(0x40)\n      0x08c379a000000000000000000000000000000000000000000000000000000000\n      dup2\n      mstore\n      0x04\n      add\n      tag_31\n      swap1\n      tag_24\n      jump\t// in\n    tag_31:\n      mload(0x40)\n      dup1\n      swap2\n      sub\n      swap1\n      revert\n    tag_30:\n        /* \"code4/1error.sol\":130:208  function testRequire(uint i)external pure{... */\n      pop\n      jump\t// out\n        /* \"#utility.yul\":7:146   */\n    tag_33:\n        /* \"#utility.yul\":53:58   */\n      0x00\n        /* \"#utility.yul\":91:97   */\n      dup2\n        /* \"#utility.yul\":78:98   */\n      calldataload\n        /* \"#utility.yul\":69:98   */\n      swap1\n      pop\n        /* \"#utility.yul\":107:140   */\n      tag_35\n        /* \"#utility.yul\":134:139   */\n      dup2\n        /* \"#utility.yul\":107:140   */\n      tag_36\n      jump\t// in\n    tag_35:\n        /* \"#utility.yul\":7:146   */\n      swap3\n      swap2\n      pop\n      pop\n      jump\t// out\n        /* \"#utility.yul\":152:481   */\n    tag_9:\n        /* \"#utility.yul\":211:217   */\n      0x00\n        /* \"#utility.yul\":260:262   */\n      0x20\n        /* \"#utility.yul\":248:257   */\n      dup3\n        /* \"#utility.yul\":239:246   */\n      dup5\n        /* \"#utility.yul\":235:258   */\n      sub\n        /* \"#utility.yul\":231:263   */\n      slt\n        /* \"#utility.yul\":228:347   */\n      iszero\n      tag_38\n      jumpi\n        /* \"#utility.yul\":266:345   */\n      tag_39\n      tag_40\n      jump\t// in\n    tag_39:\n        /* \"#utility.yul\":228:347   */\n    tag_38:\n        /* \"#utility.yul\":386:387   */\n      0x00\n        /* \"#utility.yul\":411:464   */\n      tag_41\n        /* \"#utility.yul\":456:463   */\n      dup5\n        /* \"#utility.yul\":447:453   */\n      dup3\n        /* \"#utility.yul\":436:445   */\n      dup6\n        /* \"#utility.yul\":432:454   */\n      add\n        /* \"#utility.yul\":411:464   */\n      tag_33\n      jump\t// in\n    tag_41:\n        /* \"#utility.yul\":401:464   */\n      swap2\n      pop\n        /* \"#utility.yul\":357:474   */\n      pop\n        /* \"#utility.yul\":152:481   */\n      swap3\n      swap2\n      pop\n      pop\n      jump\t// out\n        /* \"#utility.yul\":487:852   */\n    tag_42:\n        /* \"#utility.yul\":629:632   */\n      0x00\n        /* \"#utility.yul\":650:716   */\n      tag_44\n        /* \"#utility.yul\":714:715   */\n      0x04\n        /* \"#utility.yul\":709:712   */\n      dup4\n        /* \"#utility.yul\":650:716   */\n      tag_45\n      jump\t// in\n    tag_44:\n        /* \"#utility.yul\":643:716   */\n      swap2\n      pop\n        /* \"#utility.yul\":725:818   */\n      tag_46\n        /* \"#utility.yul\":814:817   */\n      dup3\n        /* \"#utility.yul\":725:818   */\n      tag_47\n      jump\t// in\n    tag_46:\n        /* \"#utility.yul\":843:845   */\n      0x20\n        /* \"#utility.yul\":838:841   */\n      dup3\n        /* \"#utility.yul\":834:846   */\n      add\n        /* \"#utility.yul\":827:846   */\n      swap1\n      pop\n        /* \"#utility.yul\":487:852   */\n      swap2\n      swap1\n      pop\n      jump\t// out\n        /* \"#utility.yul\":858:976   */\n    tag_48:\n        /* \"#utility.yul\":945:969   */\n      tag_50\n        /* \"#utility.yul\":963:968   */\n      dup2\n        /* \"#utility.yul\":945:969   */\n      tag_51\n      jump\t// in\n    tag_50:\n        /* \"#utility.yul\":940:943   */\n      dup3\n        /* \"#utility.yul\":933:970   */\n      mstore\n        /* \"#utility.yul\":858:976   */\n      pop\n      pop\n      jump\t// out\n        /* \"#utility.yul\":982:1401   */\n    tag_24:\n        /* \"#utility.yul\":1148:1152   */\n      0x00\n        /* \"#utility.yul\":1186:1188   */\n      0x20\n        /* \"#utility.yul\":1175:1184   */\n      dup3\n        /* \"#utility.yul\":1171:1189   */\n      add\n        /* \"#utility.yul\":1163:1189   */\n      swap1\n      pop\n        /* \"#utility.yul\":1235:1244   */\n      dup2\n        /* \"#utility.yul\":1229:1233   */\n      dup2\n        /* \"#utility.yul\":1225:1245   */\n      sub\n        /* \"#utility.yul\":1221:1222   */\n      0x00\n        /* \"#utility.yul\":1210:1219   */\n      dup4\n        /* \"#utility.yul\":1206:1223   */\n      add\n        /* \"#utility.yul\":1199:1246   */\n      mstore\n        /* \"#utility.yul\":1263:1394   */\n      tag_53\n        /* \"#utility.yul\":1389:1393   */\n      dup2\n        /* \"#utility.yul\":1263:1394   */\n      tag_42\n      jump\t// in\n    tag_53:\n        /* \"#utility.yul\":1255:1394   */\n      swap1\n      pop\n        /* \"#utility.yul\":982:1401   */\n      swap2\n      swap1\n      pop\n      jump\t// out\n        /* \"#utility.yul\":1407:1629   */\n    tag_17:\n        /* \"#utility.yul\":1500:1504   */\n      0x00\n        /* \"#utility.yul\":1538:1540   */\n      0x20\n        /* \"#utility.yul\":1527:1536   */\n      dup3\n        /* \"#utility.yul\":1523:1541   */\n      add\n        /* \"#utility.yul\":1515:1541   */\n      swap1\n      pop\n        /* \"#utility.yul\":1551:1622   */\n      tag_55\n        /* \"#utility.yul\":1619:1620   */\n      0x00\n        /* \"#utility.yul\":1608:1617   */\n      dup4\n        /* \"#utility.yul\":1604:1621   */\n      add\n        /* \"#utility.yul\":1595:1601   */\n      dup5\n        /* \"#utility.yul\":1551:1622   */\n      tag_48\n      jump\t// in\n    tag_55:\n        /* \"#utility.yul\":1407:1629   */\n      swap3\n      swap2\n      pop\n      pop\n      jump\t// out\n        /* \"#utility.yul\":1716:1885   */\n    tag_45:\n        /* \"#utility.yul\":1800:1811   */\n      0x00\n        /* \"#utility.yul\":1834:1840   */\n      dup3\n        /* \"#utility.yul\":1829:1832   */\n      dup3\n        /* \"#utility.yul\":1822:1841   */\n      mstore\n        /* \"#utility.yul\":1874:1878   */\n      0x20\n        /* \"#utility.yul\":1869:1872   */\n      dup3\n        /* \"#utility.yul\":1865:1879   */\n      add\n        /* \"#utility.yul\":1850:1879   */\n      swap1\n      pop\n        /* \"#utility.yul\":1716:1885   */\n      swap3\n      swap2\n      pop\n      pop\n      jump\t// out\n        /* \"#utility.yul\":1891:1968   */\n    tag_51:\n        /* \"#utility.yul\":1928:1935   */\n      0x00\n        /* \"#utility.yul\":1957:1962   */\n      dup2\n        /* \"#utility.yul\":1946:1962   */\n      swap1\n      pop\n        /* \"#utility.yul\":1891:1968   */\n      swap2\n      swap1\n      pop\n      jump\t// out\n        /* \"#utility.yul\":1974:2154   */\n    tag_28:\n        /* \"#utility.yul\":2022:2099   */\n      0x4e487b7100000000000000000000000000000000000000000000000000000000\n        /* \"#utility.yul\":2019:2020   */\n      0x00\n        /* \"#utility.yul\":2012:2100   */\n      mstore\n        /* \"#utility.yul\":2119:2123   */\n      0x01\n        /* \"#utility.yul\":2116:2117   */\n      0x04\n        /* \"#utility.yul\":2109:2124   */\n      mstore\n        /* \"#utility.yul\":2143:2147   */\n      0x24\n        /* \"#utility.yul\":2140:2141   */\n      0x00\n        /* \"#utility.yul\":2133:2148   */\n      revert\n        /* \"#utility.yul\":2283:2400   */\n    tag_40:\n        /* \"#utility.yul\":2392:2393   */\n      0x00\n        /* \"#utility.yul\":2389:2390   */\n      dup1\n        /* \"#utility.yul\":2382:2394   */\n      revert\n        /* \"#utility.yul\":2406:2560   */\n    tag_47:\n        /* \"#utility.yul\":2546:2552   */\n      0x693e313000000000000000000000000000000000000000000000000000000000\n        /* \"#utility.yul\":2542:2543   */\n      0x00\n        /* \"#utility.yul\":2534:2540   */\n      dup3\n        /* \"#utility.yul\":2530:2544   */\n      add\n        /* \"#utility.yul\":2523:2553   */\n      mstore\n        /* \"#utility.yul\":2406:2560   */\n      pop\n      jump\t// out\n        /* \"#utility.yul\":2566:2688   */\n    tag_36:\n        /* \"#utility.yul\":2639:2663   */\n      tag_66\n        /* \"#utility.yul\":2657:2662   */\n      dup2\n        /* \"#utility.yul\":2639:2663   */\n      tag_51\n      jump\t// in\n    tag_66:\n        /* \"#utility.yul\":2632:2637   */\n      dup2\n        /* \"#utility.yul\":2629:2664   */\n      eq\n        /* \"#utility.yul\":2619:2682   */\n      tag_67\n      jumpi\n        /* \"#utility.yul\":2678:2679   */\n      0x00\n        /* \"#utility.yul\":2675:2676   */\n      dup1\n        /* \"#utility.yul\":2668:2680   */\n      revert\n        /* \"#utility.yul\":2619:2682   */\n    tag_67:\n        /* \"#utility.yul\":2566:2688   */\n      pop\n      jump\t// out\n\n    auxdata: 0xa264697066735822122015f3c9635fc57b67ee8ceb16546afcb25df921520d1f89c28d76faa863e130bf64736f6c63430008070033\n}\n",
				"bytecode": {
					"linkReferences": {},
					"object": "6080604052600160005534801561001557600080fd5b506102de806100256000396000f3fe608060405234801561001057600080fd5b506004361061004c5760003560e01c80632098776714610051578063246ce3f91461006d5780634e70b1dc14610089578063b8bd717f146100a7575b600080fd5b61006b6004803603810190610066919061017f565b6100c3565b005b6100876004803603810190610082919061017f565b61010a565b005b61009161011e565b60405161009e91906101fe565b60405180910390f35b6100c160048036038101906100bc919061017f565b610124565b005b600a811115610107576040517f08c379a00000000000000000000000000000000000000000000000000000000081526004016100fe906101de565b60405180910390fd5b50565b600a811161011b5761011a610234565b5b50565b60005481565b600a8110610167576040517f08c379a000000000000000000000000000000000000000000000000000000000815260040161015e906101de565b60405180910390fd5b50565b60008135905061017981610291565b92915050565b60006020828403121561019557610194610263565b5b60006101a38482850161016a565b91505092915050565b60006101b9600483610219565b91506101c482610268565b602082019050919050565b6101d88161022a565b82525050565b600060208201905081810360008301526101f7816101ac565b9050919050565b600060208201905061021360008301846101cf565b92915050565b600082825260208201905092915050565b6000819050919050565b7f4e487b7100000000000000000000000000000000000000000000000000000000600052600160045260246000fd5b600080fd5b7f693e313000000000000000000000000000000000000000000000000000000000600082015250565b61029a8161022a565b81146102a557600080fd5b5056fea264697066735822122015f3c9635fc57b67ee8ceb16546afcb25df921520d1f89c28d76faa863e130bf64736f6c63430008070033",
					"opcodes": "PUSH1 0x80 PUSH1 0x40 MSTORE PUSH1 0x1 PUSH1 0x0 SSTORE CALLVALUE DUP1 ISZERO PUSH2 0x15 JUMPI PUSH1 0x0 DUP1 REVERT JUMPDEST POP PUSH2 0x2DE DUP1 PUSH2 0x25 PUSH1 0x0 CODECOPY PUSH1 0x0 RETURN INVALID PUSH1 0x80 PUSH1 0x40 MSTORE CALLVALUE DUP1 ISZERO PUSH2 0x10 JUMPI PUSH1 0x0 DUP1 REVERT JUMPDEST POP PUSH1 0x4 CALLDATASIZE LT PUSH2 0x4C JUMPI PUSH1 0x0 CALLDATALOAD PUSH1 0xE0 SHR DUP1 PUSH4 0x20987767 EQ PUSH2 0x51 JUMPI DUP1 PUSH4 0x246CE3F9 EQ PUSH2 0x6D JUMPI DUP1 PUSH4 0x4E70B1DC EQ PUSH2 0x89 JUMPI DUP1 PUSH4 0xB8BD717F EQ PUSH2 0xA7 JUMPI JUMPDEST PUSH1 0x0 DUP1 REVERT JUMPDEST PUSH2 0x6B PUSH1 0x4 DUP1 CALLDATASIZE SUB DUP2 ADD SWAP1 PUSH2 0x66 SWAP2 SWAP1 PUSH2 0x17F JUMP JUMPDEST PUSH2 0xC3 JUMP JUMPDEST STOP JUMPDEST PUSH2 0x87 PUSH1 0x4 DUP1 CALLDATASIZE SUB DUP2 ADD SWAP1 PUSH2 0x82 SWAP2 SWAP1 PUSH2 0x17F JUMP JUMPDEST PUSH2 0x10A JUMP JUMPDEST STOP JUMPDEST PUSH2 0x91 PUSH2 0x11E JUMP JUMPDEST PUSH1 0x40 MLOAD PUSH2 0x9E SWAP2 SWAP1 PUSH2 0x1FE JUMP JUMPDEST PUSH1 0x40 MLOAD DUP1 SWAP2 SUB SWAP1 RETURN JUMPDEST PUSH2 0xC1 PUSH1 0x4 DUP1 CALLDATASIZE SUB DUP2 ADD SWAP1 PUSH2 0xBC SWAP2 SWAP1 PUSH2 0x17F JUMP JUMPDEST PUSH2 0x124 JUMP JUMPDEST STOP JUMPDEST PUSH1 0xA DUP2 GT ISZERO PUSH2 0x107 JUMPI PUSH1 0x40 MLOAD PUSH32 0x8C379A000000000000000000000000000000000000000000000000000000000 DUP2 MSTORE PUSH1 0x4 ADD PUSH2 0xFE SWAP1 PUSH2 0x1DE JUMP JUMPDEST PUSH1 0x40 MLOAD DUP1 SWAP2 SUB SWAP1 REVERT JUMPDEST POP JUMP JUMPDEST PUSH1 0xA DUP2 GT PUSH2 0x11B JUMPI PUSH2 0x11A PUSH2 0x234 JUMP JUMPDEST JUMPDEST POP JUMP JUMPDEST PUSH1 0x0 SLOAD DUP2 JUMP JUMPDEST PUSH1 0xA DUP2 LT PUSH2 0x167 JUMPI PUSH1 0x40 MLOAD PUSH32 0x8C379A000000000000000000000000000000000000000000000000000000000 DUP2 MSTORE PUSH1 0x4 ADD PUSH2 0x15E SWAP1 PUSH2 0x1DE JUMP JUMPDEST PUSH1 0x40 MLOAD DUP1 SWAP2 SUB SWAP1 REVERT JUMPDEST POP JUMP JUMPDEST PUSH1 0x0 DUP2 CALLDATALOAD SWAP1 POP PUSH2 0x179 DUP2 PUSH2 0x291 JUMP JUMPDEST SWAP3 SWAP2 POP POP JUMP JUMPDEST PUSH1 0x0 PUSH1 0x20 DUP3 DUP5 SUB SLT ISZERO PUSH2 0x195 JUMPI PUSH2 0x194 PUSH2 0x263 JUMP JUMPDEST JUMPDEST PUSH1 0x0 PUSH2 0x1A3 DUP5 DUP3 DUP6 ADD PUSH2 0x16A JUMP JUMPDEST SWAP2 POP POP SWAP3 SWAP2 POP POP JUMP JUMPDEST PUSH1 0x0 PUSH2 0x1B9 PUSH1 0x4 DUP4 PUSH2 0x219 JUMP JUMPDEST SWAP2 POP PUSH2 0x1C4 DUP3 PUSH2 0x268 JUMP JUMPDEST PUSH1 0x20 DUP3 ADD SWAP1 POP SWAP2 SWAP1 POP JUMP JUMPDEST PUSH2 0x1D8 DUP2 PUSH2 0x22A JUMP JUMPDEST DUP3 MSTORE POP POP JUMP JUMPDEST PUSH1 0x0 PUSH1 0x20 DUP3 ADD SWAP1 POP DUP2 DUP2 SUB PUSH1 0x0 DUP4 ADD MSTORE PUSH2 0x1F7 DUP2 PUSH2 0x1AC JUMP JUMPDEST SWAP1 POP SWAP2 SWAP1 POP JUMP JUMPDEST PUSH1 0x0 PUSH1 0x20 DUP3 ADD SWAP1 POP PUSH2 0x213 PUSH1 0x0 DUP4 ADD DUP5 PUSH2 0x1CF JUMP JUMPDEST SWAP3 SWAP2 POP POP JUMP JUMPDEST PUSH1 0x0 DUP3 DUP3 MSTORE PUSH1 0x20 DUP3 ADD SWAP1 POP SWAP3 SWAP2 POP POP JUMP JUMPDEST PUSH1 0x0 DUP2 SWAP1 POP SWAP2 SWAP1 POP JUMP JUMPDEST PUSH32 0x4E487B7100000000000000000000000000000000000000000000000000000000 PUSH1 0x0 MSTORE PUSH1 0x1 PUSH1 0x4 MSTORE PUSH1 0x24 PUSH1 0x0 REVERT JUMPDEST PUSH1 0x0 DUP1 REVERT JUMPDEST PUSH32 0x693E313000000000000000000000000000000000000000000000000000000000 PUSH1 0x0 DUP3 ADD MSTORE POP JUMP JUMPDEST PUSH2 0x29A DUP2 PUSH2 0x22A JUMP JUMPDEST DUP2 EQ PUSH2 0x2A5 JUMPI PUSH1 0x0 DUP1 REVERT JUMPDEST POP JUMP INVALID LOG2 PUSH5 0x6970667358 0x22 SLT KECCAK256 ISZERO RETURN 0xC9 PUSH4 0x5FC57B67 0xEE DUP13 0xEB AND SLOAD PUSH11 0xFCB25DF921520D1F89C28D PUSH23 0xFAA863E130BF64736F6C63430008070033000000000000 "
				},
				"gasEstimates": {
					"creation": {
						"codeDepositCost": "146800",
						"executionCost": "22296",
						"totalCost": "169096"
					},
					"external": {
						"num()": "2451",
						"testAssert(uint256)": "456",
						"testRequire(uint256)": "760",
						"testRevert(uint256)": "697"
					}
				},
				"methodIdentifiers": {
					"num()": "4e70b1dc",
					"testAssert(uint256)": "246ce3f9",
					"testRequire(uint256)": "b8bd717f",
					"testRevert(uint256)": "20987767"
				}
			},
			"storageLayout": {
				"storage": [
					{
						"astId": 44,
						"contract": "code4/1error.sol:error",
						"label": "num",
						"offset": 0,
						"slot": "0",
						"type": "t_uint256"
					}
				],
				"types": {
					"t_uint256": {
						"encoding": "inplace",
						"label": "uint256",
						"numberOfBytes": "32"
					}
				}
			},
			"userdoc": {
				"kind": "user",
				"methods": {},
				"version": 1
			}
		}
	}
}