{
	"data": {
		"bytecode": {
			"linkReferences": {},
			"object": "6080604052606460005534801561001557600080fd5b5061021a806100256000396000f3fe608060405234801561001057600080fd5b50600436106100415760003560e01c80632096525514610046578063a163a62414610064578063a8cd0a8014610082575b600080fd5b61004e6100a0565b60405161005b919061010e565b60405180910390f35b61006c6100a9565b60405161007991906101c2565b60405180910390f35b61008a6100e6565b60405161009791906101c2565b60405180910390f35b60008054905090565b60606040518060400160405280600e81526020017f7468697320697320612074657374000000000000000000000000000000000000815250905090565b60606100f06100a9565b905090565b6000819050919050565b610108816100f5565b82525050565b600060208201905061012360008301846100ff565b92915050565b600081519050919050565b600082825260208201905092915050565b60005b83811015610163578082015181840152602081019050610148565b83811115610172576000848401525b50505050565b6000601f19601f8301169050919050565b600061019482610129565b61019e8185610134565b93506101ae818560208601610145565b6101b781610178565b840191505092915050565b600060208201905081810360008301526101dc8184610189565b90509291505056fea26469706673582212208c9ea236dca7723a7c8cd7c7bcef094d347ebfcacfca03bf740517db92891f9764736f6c634300080f0033",
			"opcodes": "PUSH1 0x80 PUSH1 0x40 MSTORE PUSH1 0x64 PUSH1 0x0 SSTORE CALLVALUE DUP1 ISZERO PUSH2 0x15 JUMPI PUSH1 0x0 DUP1 REVERT JUMPDEST POP PUSH2 0x21A DUP1 PUSH2 0x25 PUSH1 0x0 CODECOPY PUSH1 0x0 RETURN INVALID PUSH1 0x80 PUSH1 0x40 MSTORE CALLVALUE DUP1 ISZERO PUSH2 0x10 JUMPI PUSH1 0x0 DUP1 REVERT JUMPDEST POP PUSH1 0x4 CALLDATASIZE LT PUSH2 0x41 JUMPI PUSH1 0x0 CALLDATALOAD PUSH1 0xE0 SHR DUP1 PUSH4 0x20965255 EQ PUSH2 0x46 JUMPI DUP1 PUSH4 0xA163A624 EQ PUSH2 0x64 JUMPI DUP1 PUSH4 0xA8CD0A80 EQ PUSH2 0x82 JUMPI JUMPDEST PUSH1 0x0 DUP1 REVERT JUMPDEST PUSH2 0x4E PUSH2 0xA0 JUMP JUMPDEST PUSH1 0x40 MLOAD PUSH2 0x5B SWAP2 SWAP1 PUSH2 0x10E JUMP JUMPDEST PUSH1 0x40 MLOAD DUP1 SWAP2 SUB SWAP1 RETURN JUMPDEST PUSH2 0x6C PUSH2 0xA9 JUMP JUMPDEST PUSH1 0x40 MLOAD PUSH2 0x79 SWAP2 SWAP1 PUSH2 0x1C2 JUMP JUMPDEST PUSH1 0x40 MLOAD DUP1 SWAP2 SUB SWAP1 RETURN JUMPDEST PUSH2 0x8A PUSH2 0xE6 JUMP JUMPDEST PUSH1 0x40 MLOAD PUSH2 0x97 SWAP2 SWAP1 PUSH2 0x1C2 JUMP JUMPDEST PUSH1 0x40 MLOAD DUP1 SWAP2 SUB SWAP1 RETURN JUMPDEST PUSH1 0x0 DUP1 SLOAD SWAP1 POP SWAP1 JUMP JUMPDEST PUSH1 0x60 PUSH1 0x40 MLOAD DUP1 PUSH1 0x40 ADD PUSH1 0x40 MSTORE DUP1 PUSH1 0xE DUP2 MSTORE PUSH1 0x20 ADD PUSH32 0x7468697320697320612074657374000000000000000000000000000000000000 DUP2 MSTORE POP SWAP1 POP SWAP1 JUMP JUMPDEST PUSH1 0x60 PUSH2 0xF0 PUSH2 0xA9 JUMP JUMPDEST SWAP1 POP SWAP1 JUMP JUMPDEST PUSH1 0x0 DUP2 SWAP1 POP SWAP2 SWAP1 POP JUMP JUMPDEST PUSH2 0x108 DUP2 PUSH2 0xF5 JUMP JUMPDEST DUP3 MSTORE POP POP JUMP JUMPDEST PUSH1 0x0 PUSH1 0x20 DUP3 ADD SWAP1 POP PUSH2 0x123 PUSH1 0x0 DUP4 ADD DUP5 PUSH2 0xFF JUMP JUMPDEST SWAP3 SWAP2 POP POP JUMP JUMPDEST PUSH1 0x0 DUP2 MLOAD SWAP1 POP SWAP2 SWAP1 POP JUMP JUMPDEST PUSH1 0x0 DUP3 DUP3 MSTORE PUSH1 0x20 DUP3 ADD SWAP1 POP SWAP3 SWAP2 POP POP JUMP JUMPDEST PUSH1 0x0 JUMPDEST DUP4 DUP2 LT ISZERO PUSH2 0x163 JUMPI DUP1 DUP3 ADD MLOAD DUP2 DUP5 ADD MSTORE PUSH1 0x20 DUP2 ADD SWAP1 POP PUSH2 0x148 JUMP JUMPDEST DUP4 DUP2 GT ISZERO PUSH2 0x172 JUMPI PUSH1 0x0 DUP5 DUP5 ADD MSTORE JUMPDEST POP POP POP POP JUMP JUMPDEST PUSH1 0x0 PUSH1 0x1F NOT PUSH1 0x1F DUP4 ADD AND SWAP1 POP SWAP2 SWAP1 POP JUMP JUMPDEST PUSH1 0x0 PUSH2 0x194 DUP3 PUSH2 0x129 JUMP JUMPDEST PUSH2 0x19E DUP2 DUP6 PUSH2 0x134 JUMP JUMPDEST SWAP4 POP PUSH2 0x1AE DUP2 DUP6 PUSH1 0x20 DUP7 ADD PUSH2 0x145 JUMP JUMPDEST PUSH2 0x1B7 DUP2 PUSH2 0x178 JUMP JUMPDEST DUP5 ADD SWAP2 POP POP SWAP3 SWAP2 POP POP JUMP JUMPDEST PUSH1 0x0 PUSH1 0x20 DUP3 ADD SWAP1 POP DUP2 DUP2 SUB PUSH1 0x0 DUP4 ADD MSTORE PUSH2 0x1DC DUP2 DUP5 PUSH2 0x189 JUMP JUMPDEST SWAP1 POP SWAP3 SWAP2 POP POP JUMP INVALID LOG2 PUSH5 0x6970667358 0x22 SLT KECCAK256 DUP13 SWAP15 LOG2 CALLDATASIZE 0xDC 0xA7 PUSH19 0x3A7C8CD7C7BCEF094D347EBFCACFCA03BF7405 OR 0xDB SWAP3 DUP10 0x1F SWAP8 PUSH5 0x736F6C6343 STOP ADDMOD 0xF STOP CALLER "
		},
		"gasEstimates": {
			"creation": {
				"codeDepositCost": "107600",
				"executionCost": "22259",
				"totalCost": "129859"
			},
			"external": {
				"Test()": "infinite",
				"getTest()": "infinite",
				"getValue()": "2415"
			}
		},
		"methodIdentifiers": {
			"Test()": "a163a624",
			"getTest()": "a8cd0a80",
			"getValue()": "20965255"
		}
	},
	"abi": [
		{
			"inputs": [],
			"name": "Test",
			"outputs": [
				{
					"internalType": "string",
					"name": "",
					"type": "string"
				}
			],
			"stateMutability": "pure",
			"type": "function"
		},
		{
			"inputs": [],
			"name": "getTest",
			"outputs": [
				{
					"internalType": "string",
					"name": "",
					"type": "string"
				}
			],
			"stateMutability": "pure",
			"type": "function"
		},
		{
			"inputs": [],
			"name": "getValue",
			"outputs": [
				{
					"internalType": "uint256",
					"name": "",
					"type": "uint256"
				}
			],
			"stateMutability": "view",
			"type": "function"
		}
	]
}