{
	"data": {
		"bytecode": {
			"linkReferences": {},
			"object": "6080604052600560005534801561001557600080fd5b506102bd806100256000396000f3fe608060405234801561001057600080fd5b50600436106100575760003560e01c80630dbe671f1461005c578063448f30a31461007a57806375322e471461009857806385295877146100b4578063e65b6037146100be575b600080fd5b6100646100dc565b60405161007191906101e6565b60405180910390f35b6100826100e2565b60405161008f91906101c4565b60405180910390f35b6100b260048036038101906100ad919061014f565b61011f565b005b6100bc610129565b005b6100c6610131565b6040516100d391906101e6565b60405180910390f35b60005481565b60606040518060400160405280600c81526020017f6920646f206e6f7468696e670000000000000000000000000000000000000000815250905090565b8060008190555050565b600033905050565b60008054905090565b60008135905061014981610270565b92915050565b6000602082840312156101655761016461025a565b5b60006101738482850161013a565b91505092915050565b600061018782610201565b610191818561020c565b93506101a1818560208601610227565b6101aa8161025f565b840191505092915050565b6101be8161021d565b82525050565b600060208201905081810360008301526101de818461017c565b905092915050565b60006020820190506101fb60008301846101b5565b92915050565b600081519050919050565b600082825260208201905092915050565b6000819050919050565b60005b8381101561024557808201518184015260208101905061022a565b83811115610254576000848401525b50505050565b600080fd5b6000601f19601f8301169050919050565b6102798161021d565b811461028457600080fd5b5056fea2646970667358221220ecf5c2ec978332cc4d2374b190726e0d82e9a64a7b761116f8ed4c4525c59c1964736f6c63430008060033",
			"opcodes": "PUSH1 0x80 PUSH1 0x40 MSTORE PUSH1 0x5 PUSH1 0x0 SSTORE CALLVALUE DUP1 ISZERO PUSH2 0x15 JUMPI PUSH1 0x0 DUP1 REVERT JUMPDEST POP PUSH2 0x2BD DUP1 PUSH2 0x25 PUSH1 0x0 CODECOPY PUSH1 0x0 RETURN INVALID PUSH1 0x80 PUSH1 0x40 MSTORE CALLVALUE DUP1 ISZERO PUSH2 0x10 JUMPI PUSH1 0x0 DUP1 REVERT JUMPDEST POP PUSH1 0x4 CALLDATASIZE LT PUSH2 0x57 JUMPI PUSH1 0x0 CALLDATALOAD PUSH1 0xE0 SHR DUP1 PUSH4 0xDBE671F EQ PUSH2 0x5C JUMPI DUP1 PUSH4 0x448F30A3 EQ PUSH2 0x7A JUMPI DUP1 PUSH4 0x75322E47 EQ PUSH2 0x98 JUMPI DUP1 PUSH4 0x85295877 EQ PUSH2 0xB4 JUMPI DUP1 PUSH4 0xE65B6037 EQ PUSH2 0xBE JUMPI JUMPDEST PUSH1 0x0 DUP1 REVERT JUMPDEST PUSH2 0x64 PUSH2 0xDC JUMP JUMPDEST PUSH1 0x40 MLOAD PUSH2 0x71 SWAP2 SWAP1 PUSH2 0x1E6 JUMP JUMPDEST PUSH1 0x40 MLOAD DUP1 SWAP2 SUB SWAP1 RETURN JUMPDEST PUSH2 0x82 PUSH2 0xE2 JUMP JUMPDEST PUSH1 0x40 MLOAD PUSH2 0x8F SWAP2 SWAP1 PUSH2 0x1C4 JUMP JUMPDEST PUSH1 0x40 MLOAD DUP1 SWAP2 SUB SWAP1 RETURN JUMPDEST PUSH2 0xB2 PUSH1 0x4 DUP1 CALLDATASIZE SUB DUP2 ADD SWAP1 PUSH2 0xAD SWAP2 SWAP1 PUSH2 0x14F JUMP JUMPDEST PUSH2 0x11F JUMP JUMPDEST STOP JUMPDEST PUSH2 0xBC PUSH2 0x129 JUMP JUMPDEST STOP JUMPDEST PUSH2 0xC6 PUSH2 0x131 JUMP JUMPDEST PUSH1 0x40 MLOAD PUSH2 0xD3 SWAP2 SWAP1 PUSH2 0x1E6 JUMP JUMPDEST PUSH1 0x40 MLOAD DUP1 SWAP2 SUB SWAP1 RETURN JUMPDEST PUSH1 0x0 SLOAD DUP2 JUMP JUMPDEST PUSH1 0x60 PUSH1 0x40 MLOAD DUP1 PUSH1 0x40 ADD PUSH1 0x40 MSTORE DUP1 PUSH1 0xC DUP2 MSTORE PUSH1 0x20 ADD PUSH32 0x6920646F206E6F7468696E670000000000000000000000000000000000000000 DUP2 MSTORE POP SWAP1 POP SWAP1 JUMP JUMPDEST DUP1 PUSH1 0x0 DUP2 SWAP1 SSTORE POP POP JUMP JUMPDEST PUSH1 0x0 CALLER SWAP1 POP POP JUMP JUMPDEST PUSH1 0x0 DUP1 SLOAD SWAP1 POP SWAP1 JUMP JUMPDEST PUSH1 0x0 DUP2 CALLDATALOAD SWAP1 POP PUSH2 0x149 DUP2 PUSH2 0x270 JUMP JUMPDEST SWAP3 SWAP2 POP POP JUMP JUMPDEST PUSH1 0x0 PUSH1 0x20 DUP3 DUP5 SUB SLT ISZERO PUSH2 0x165 JUMPI PUSH2 0x164 PUSH2 0x25A JUMP JUMPDEST JUMPDEST PUSH1 0x0 PUSH2 0x173 DUP5 DUP3 DUP6 ADD PUSH2 0x13A JUMP JUMPDEST SWAP2 POP POP SWAP3 SWAP2 POP POP JUMP JUMPDEST PUSH1 0x0 PUSH2 0x187 DUP3 PUSH2 0x201 JUMP JUMPDEST PUSH2 0x191 DUP2 DUP6 PUSH2 0x20C JUMP JUMPDEST SWAP4 POP PUSH2 0x1A1 DUP2 DUP6 PUSH1 0x20 DUP7 ADD PUSH2 0x227 JUMP JUMPDEST PUSH2 0x1AA DUP2 PUSH2 0x25F JUMP JUMPDEST DUP5 ADD SWAP2 POP POP SWAP3 SWAP2 POP POP JUMP JUMPDEST PUSH2 0x1BE DUP2 PUSH2 0x21D JUMP JUMPDEST DUP3 MSTORE POP POP JUMP JUMPDEST PUSH1 0x0 PUSH1 0x20 DUP3 ADD SWAP1 POP DUP2 DUP2 SUB PUSH1 0x0 DUP4 ADD MSTORE PUSH2 0x1DE DUP2 DUP5 PUSH2 0x17C JUMP JUMPDEST SWAP1 POP SWAP3 SWAP2 POP POP JUMP JUMPDEST PUSH1 0x0 PUSH1 0x20 DUP3 ADD SWAP1 POP PUSH2 0x1FB PUSH1 0x0 DUP4 ADD DUP5 PUSH2 0x1B5 JUMP JUMPDEST SWAP3 SWAP2 POP POP JUMP JUMPDEST PUSH1 0x0 DUP2 MLOAD SWAP1 POP SWAP2 SWAP1 POP JUMP JUMPDEST PUSH1 0x0 DUP3 DUP3 MSTORE PUSH1 0x20 DUP3 ADD SWAP1 POP SWAP3 SWAP2 POP POP JUMP JUMPDEST PUSH1 0x0 DUP2 SWAP1 POP SWAP2 SWAP1 POP JUMP JUMPDEST PUSH1 0x0 JUMPDEST DUP4 DUP2 LT ISZERO PUSH2 0x245 JUMPI DUP1 DUP3 ADD MLOAD DUP2 DUP5 ADD MSTORE PUSH1 0x20 DUP2 ADD SWAP1 POP PUSH2 0x22A JUMP JUMPDEST DUP4 DUP2 GT ISZERO PUSH2 0x254 JUMPI PUSH1 0x0 DUP5 DUP5 ADD MSTORE JUMPDEST POP POP POP POP JUMP JUMPDEST PUSH1 0x0 DUP1 REVERT JUMPDEST PUSH1 0x0 PUSH1 0x1F NOT PUSH1 0x1F DUP4 ADD AND SWAP1 POP SWAP2 SWAP1 POP JUMP JUMPDEST PUSH2 0x279 DUP2 PUSH2 0x21D JUMP JUMPDEST DUP2 EQ PUSH2 0x284 JUMPI PUSH1 0x0 DUP1 REVERT JUMPDEST POP JUMP INVALID LOG2 PUSH5 0x6970667358 0x22 SLT KECCAK256 0xEC CREATE2 0xC2 0xEC SWAP8 DUP4 ORIGIN 0xCC 0x4D 0x23 PUSH21 0xB190726E0D82E9A64A7B761116F8ED4C4525C59C19 PUSH5 0x736F6C6343 STOP ADDMOD MOD STOP CALLER "
		},
		"gasEstimates": {
			"creation": {
				"codeDepositCost": "140200",
				"executionCost": "22289",
				"totalCost": "162489"
			},
			"external": {
				"a()": "2407",
				"change(uint256)": "22542",
				"nothing()": "infinite",
				"other()": "200",
				"readV()": "2503"
			}
		},
		"methodIdentifiers": {
			"a()": "0dbe671f",
			"change(uint256)": "75322e47",
			"nothing()": "448f30a3",
			"other()": "85295877",
			"readV()": "e65b6037"
		}
	},
	"abi": [
		{
			"inputs": [],
			"name": "a",
			"outputs": [
				{
					"internalType": "uint256",
					"name": "",
					"type": "uint256"
				}
			],
			"stateMutability": "view",
			"type": "function"
		},
		{
			"inputs": [
				{
					"internalType": "uint256",
					"name": "_a",
					"type": "uint256"
				}
			],
			"name": "change",
			"outputs": [],
			"stateMutability": "nonpayable",
			"type": "function"
		},
		{
			"inputs": [],
			"name": "nothing",
			"outputs": [
				{
					"internalType": "string",
					"name": "",
					"type": "string"
				}
			],
			"stateMutability": "pure",
			"type": "function"
		},
		{
			"inputs": [],
			"name": "other",
			"outputs": [],
			"stateMutability": "nonpayable",
			"type": "function"
		},
		{
			"inputs": [],
			"name": "readV",
			"outputs": [
				{
					"internalType": "uint256",
					"name": "",
					"type": "uint256"
				}
			],
			"stateMutability": "view",
			"type": "function"
		}
	]
}