{
	"data": {
		"bytecode": {
			"linkReferences": {},
			"object": "608060405234801561001057600080fd5b50610219806100206000396000f3fe608060405234801561001057600080fd5b50600436106100365760003560e01c806326121ff01461003b5780633f4263ef14610045575b600080fd5b610043610075565b005b61005f600480360381019061005a9190610137565b6100c7565b60405161006c9190610173565b60405180910390f35b6100bb60006014806020026040519081016040528092919082601480156100b1576020028201915b81548152602001906001019080831161009d575b50505050506100e2565b6100c56000610104565b565b600081601481106100d757600080fd5b016000915090505481565b6003816002601481106100f8576100f7610198565b5b60200201818152505050565b60048160036014811061011a57610119610198565b5b018190555050565b600081359050610131816101cc565b92915050565b60006020828403121561014d5761014c6101c7565b5b600061015b84828501610122565b91505092915050565b61016d8161018e565b82525050565b60006020820190506101886000830184610164565b92915050565b6000819050919050565b7f4e487b7100000000000000000000000000000000000000000000000000000000600052603260045260246000fd5b600080fd5b6101d58161018e565b81146101e057600080fd5b5056fea2646970667358221220215ed3c88202a88fc83ff7dfd22bdd66c9d75136d0453555ced38725ef95489064736f6c63430008060033",
			"opcodes": "PUSH1 0x80 PUSH1 0x40 MSTORE CALLVALUE DUP1 ISZERO PUSH2 0x10 JUMPI PUSH1 0x0 DUP1 REVERT JUMPDEST POP PUSH2 0x219 DUP1 PUSH2 0x20 PUSH1 0x0 CODECOPY PUSH1 0x0 RETURN INVALID PUSH1 0x80 PUSH1 0x40 MSTORE CALLVALUE DUP1 ISZERO PUSH2 0x10 JUMPI PUSH1 0x0 DUP1 REVERT JUMPDEST POP PUSH1 0x4 CALLDATASIZE LT PUSH2 0x36 JUMPI PUSH1 0x0 CALLDATALOAD PUSH1 0xE0 SHR DUP1 PUSH4 0x26121FF0 EQ PUSH2 0x3B JUMPI DUP1 PUSH4 0x3F4263EF EQ PUSH2 0x45 JUMPI JUMPDEST PUSH1 0x0 DUP1 REVERT JUMPDEST PUSH2 0x43 PUSH2 0x75 JUMP JUMPDEST STOP JUMPDEST PUSH2 0x5F PUSH1 0x4 DUP1 CALLDATASIZE SUB DUP2 ADD SWAP1 PUSH2 0x5A SWAP2 SWAP1 PUSH2 0x137 JUMP JUMPDEST PUSH2 0xC7 JUMP JUMPDEST PUSH1 0x40 MLOAD PUSH2 0x6C SWAP2 SWAP1 PUSH2 0x173 JUMP JUMPDEST PUSH1 0x40 MLOAD DUP1 SWAP2 SUB SWAP1 RETURN JUMPDEST PUSH2 0xBB PUSH1 0x0 PUSH1 0x14 DUP1 PUSH1 0x20 MUL PUSH1 0x40 MLOAD SWAP1 DUP2 ADD PUSH1 0x40 MSTORE DUP1 SWAP3 SWAP2 SWAP1 DUP3 PUSH1 0x14 DUP1 ISZERO PUSH2 0xB1 JUMPI PUSH1 0x20 MUL DUP3 ADD SWAP2 JUMPDEST DUP2 SLOAD DUP2 MSTORE PUSH1 0x20 ADD SWAP1 PUSH1 0x1 ADD SWAP1 DUP1 DUP4 GT PUSH2 0x9D JUMPI JUMPDEST POP POP POP POP POP PUSH2 0xE2 JUMP JUMPDEST PUSH2 0xC5 PUSH1 0x0 PUSH2 0x104 JUMP JUMPDEST JUMP JUMPDEST PUSH1 0x0 DUP2 PUSH1 0x14 DUP2 LT PUSH2 0xD7 JUMPI PUSH1 0x0 DUP1 REVERT JUMPDEST ADD PUSH1 0x0 SWAP2 POP SWAP1 POP SLOAD DUP2 JUMP JUMPDEST PUSH1 0x3 DUP2 PUSH1 0x2 PUSH1 0x14 DUP2 LT PUSH2 0xF8 JUMPI PUSH2 0xF7 PUSH2 0x198 JUMP JUMPDEST JUMPDEST PUSH1 0x20 MUL ADD DUP2 DUP2 MSTORE POP POP POP JUMP JUMPDEST PUSH1 0x4 DUP2 PUSH1 0x3 PUSH1 0x14 DUP2 LT PUSH2 0x11A JUMPI PUSH2 0x119 PUSH2 0x198 JUMP JUMPDEST JUMPDEST ADD DUP2 SWAP1 SSTORE POP POP JUMP JUMPDEST PUSH1 0x0 DUP2 CALLDATALOAD SWAP1 POP PUSH2 0x131 DUP2 PUSH2 0x1CC JUMP JUMPDEST SWAP3 SWAP2 POP POP JUMP JUMPDEST PUSH1 0x0 PUSH1 0x20 DUP3 DUP5 SUB SLT ISZERO PUSH2 0x14D JUMPI PUSH2 0x14C PUSH2 0x1C7 JUMP JUMPDEST JUMPDEST PUSH1 0x0 PUSH2 0x15B DUP5 DUP3 DUP6 ADD PUSH2 0x122 JUMP JUMPDEST SWAP2 POP POP SWAP3 SWAP2 POP POP JUMP JUMPDEST PUSH2 0x16D DUP2 PUSH2 0x18E JUMP JUMPDEST DUP3 MSTORE POP POP JUMP JUMPDEST PUSH1 0x0 PUSH1 0x20 DUP3 ADD SWAP1 POP PUSH2 0x188 PUSH1 0x0 DUP4 ADD DUP5 PUSH2 0x164 JUMP JUMPDEST SWAP3 SWAP2 POP POP JUMP JUMPDEST PUSH1 0x0 DUP2 SWAP1 POP SWAP2 SWAP1 POP JUMP JUMPDEST PUSH32 0x4E487B7100000000000000000000000000000000000000000000000000000000 PUSH1 0x0 MSTORE PUSH1 0x32 PUSH1 0x4 MSTORE PUSH1 0x24 PUSH1 0x0 REVERT JUMPDEST PUSH1 0x0 DUP1 REVERT JUMPDEST PUSH2 0x1D5 DUP2 PUSH2 0x18E JUMP JUMPDEST DUP2 EQ PUSH2 0x1E0 JUMPI PUSH1 0x0 DUP1 REVERT JUMPDEST POP JUMP INVALID LOG2 PUSH5 0x6970667358 0x22 SLT KECCAK256 0x21 0x5E 0xD3 0xC8 DUP3 MUL 0xA8 DUP16 0xC8 EXTCODEHASH 0xF7 0xDF 0xD2 0x2B 0xDD PUSH7 0xC9D75136D04535 SSTORE 0xCE 0xD3 DUP8 0x25 0xEF SWAP6 0x48 SWAP1 PUSH5 0x736F6C6343 STOP ADDMOD MOD STOP CALLER "
		},
		"gasEstimates": {
			"creation": {
				"codeDepositCost": "107400",
				"executionCost": "153",
				"totalCost": "107553"
			},
			"external": {
				"f()": "infinite",
				"x(uint256)": "infinite"
			},
			"internal": {
				"g(uint256[20] memory)": "infinite",
				"h(uint256[20] storage pointer)": "22154"
			}
		},
		"methodIdentifiers": {
			"f()": "26121ff0",
			"x(uint256)": "3f4263ef"
		}
	},
	"abi": [
		{
			"inputs": [],
			"name": "f",
			"outputs": [],
			"stateMutability": "nonpayable",
			"type": "function"
		},
		{
			"inputs": [
				{
					"internalType": "uint256",
					"name": "",
					"type": "uint256"
				}
			],
			"name": "x",
			"outputs": [
				{
					"internalType": "uint256",
					"name": "",
					"type": "uint256"
				}
			],
			"stateMutability": "view",
			"type": "function"
		}
	]
}