{
	"code91/1event.sol": {
		"Event": {
			"abi": [
				{
					"anonymous": false,
					"inputs": [
						{
							"indexed": false,
							"internalType": "string",
							"name": "message",
							"type": "string"
						},
						{
							"indexed": false,
							"internalType": "uint256",
							"name": "val",
							"type": "uint256"
						}
					],
					"name": "Log",
					"type": "event"
				},
				{
					"inputs": [],
					"name": "example",
					"outputs": [],
					"stateMutability": "nonpayable",
					"type": "function"
				}
			],
			"devdoc": {
				"kind": "dev",
				"methods": {},
				"version": 1
			},
			"evm": {
				"assembly": "    /* \"code91/1event.sol\":55:239  contract Event{... */\n  mstore(0x40, 0x80)\n  callvalue\n  dup1\n  iszero\n  tag_1\n  jumpi\n  0x00\n  dup1\n  revert\ntag_1:\n  pop\n  dataSize(sub_0)\n  dup1\n  dataOffset(sub_0)\n  0x00\n  codecopy\n  0x00\n  return\nstop\n\nsub_0: assembly {\n        /* \"code91/1event.sol\":55:239  contract Event{... */\n      mstore(0x40, 0x80)\n      callvalue\n      dup1\n      iszero\n      tag_1\n      jumpi\n      0x00\n      dup1\n      revert\n    tag_1:\n      pop\n      jumpi(tag_2, lt(calldatasize, 0x04))\n      shr(0xe0, calldataload(0x00))\n      dup1\n      0x54353f2f\n      eq\n      tag_3\n      jumpi\n    tag_2:\n      0x00\n      dup1\n      revert\n        /* \"code91/1event.sol\":174:237  function example()external{... */\n    tag_3:\n      tag_4\n      tag_5\n      jump\t// in\n    tag_4:\n      stop\n    tag_5:\n        /* \"code91/1event.sol\":215:230  Log(\"wp\",15000) */\n      0xdd970dd9b5bfe707922155b058a407655cb18288b807e2216442bca8ad83d6b5\n        /* \"code91/1event.sol\":224:229  15000 */\n      0x3a98\n        /* \"code91/1event.sol\":215:230  Log(\"wp\",15000) */\n      mload(0x40)\n      tag_7\n      swap2\n      swap1\n      tag_8\n      jump\t// in\n    tag_7:\n      mload(0x40)\n      dup1\n      swap2\n      sub\n      swap1\n      log1\n        /* \"code91/1event.sol\":174:237  function example()external{... */\n      jump\t// out\n        /* \"#utility.yul\":7:162   */\n    tag_10:\n        /* \"#utility.yul\":106:155   */\n      tag_12\n        /* \"#utility.yul\":149:154   */\n      dup2\n        /* \"#utility.yul\":106:155   */\n      tag_13\n      jump\t// in\n    tag_12:\n        /* \"#utility.yul\":101:104   */\n      dup3\n        /* \"#utility.yul\":94:156   */\n      mstore\n        /* \"#utility.yul\":7:162   */\n      pop\n      pop\n      jump\t// out\n        /* \"#utility.yul\":168:533   */\n    tag_14:\n        /* \"#utility.yul\":310:313   */\n      0x00\n        /* \"#utility.yul\":331:397   */\n      tag_16\n        /* \"#utility.yul\":395:396   */\n      0x02\n        /* \"#utility.yul\":390:393   */\n      dup4\n        /* \"#utility.yul\":331:397   */\n      tag_17\n      jump\t// in\n    tag_16:\n        /* \"#utility.yul\":324:397   */\n      swap2\n      pop\n        /* \"#utility.yul\":406:499   */\n      tag_18\n        /* \"#utility.yul\":495:498   */\n      dup3\n        /* \"#utility.yul\":406:499   */\n      tag_19\n      jump\t// in\n    tag_18:\n        /* \"#utility.yul\":524:526   */\n      0x20\n        /* \"#utility.yul\":519:522   */\n      dup3\n        /* \"#utility.yul\":515:527   */\n      add\n        /* \"#utility.yul\":508:527   */\n      swap1\n      pop\n        /* \"#utility.yul\":168:533   */\n      swap2\n      swap1\n      pop\n      jump\t// out\n        /* \"#utility.yul\":539:1092   */\n    tag_8:\n        /* \"#utility.yul\":745:749   */\n      0x00\n        /* \"#utility.yul\":783:785   */\n      0x40\n        /* \"#utility.yul\":772:781   */\n      dup3\n        /* \"#utility.yul\":768:786   */\n      add\n        /* \"#utility.yul\":760:786   */\n      swap1\n      pop\n        /* \"#utility.yul\":832:841   */\n      dup2\n        /* \"#utility.yul\":826:830   */\n      dup2\n        /* \"#utility.yul\":822:842   */\n      sub\n        /* \"#utility.yul\":818:819   */\n      0x00\n        /* \"#utility.yul\":807:816   */\n      dup4\n        /* \"#utility.yul\":803:820   */\n      add\n        /* \"#utility.yul\":796:843   */\n      mstore\n        /* \"#utility.yul\":860:991   */\n      tag_21\n        /* \"#utility.yul\":986:990   */\n      dup2\n        /* \"#utility.yul\":860:991   */\n      tag_14\n      jump\t// in\n    tag_21:\n        /* \"#utility.yul\":852:991   */\n      swap1\n      pop\n        /* \"#utility.yul\":1001:1085   */\n      tag_22\n        /* \"#utility.yul\":1081:1083   */\n      0x20\n        /* \"#utility.yul\":1070:1079   */\n      dup4\n        /* \"#utility.yul\":1066:1084   */\n      add\n        /* \"#utility.yul\":1057:1063   */\n      dup5\n        /* \"#utility.yul\":1001:1085   */\n      tag_10\n      jump\t// in\n    tag_22:\n        /* \"#utility.yul\":539:1092   */\n      swap3\n      swap2\n      pop\n      pop\n      jump\t// out\n        /* \"#utility.yul\":1098:1267   */\n    tag_17:\n        /* \"#utility.yul\":1182:1193   */\n      0x00\n        /* \"#utility.yul\":1216:1222   */\n      dup3\n        /* \"#utility.yul\":1211:1214   */\n      dup3\n        /* \"#utility.yul\":1204:1223   */\n      mstore\n        /* \"#utility.yul\":1256:1260   */\n      0x20\n        /* \"#utility.yul\":1251:1254   */\n      dup3\n        /* \"#utility.yul\":1247:1261   */\n      add\n        /* \"#utility.yul\":1232:1261   */\n      swap1\n      pop\n        /* \"#utility.yul\":1098:1267   */\n      swap3\n      swap2\n      pop\n      pop\n      jump\t// out\n        /* \"#utility.yul\":1273:1350   */\n    tag_24:\n        /* \"#utility.yul\":1310:1317   */\n      0x00\n        /* \"#utility.yul\":1339:1344   */\n      dup2\n        /* \"#utility.yul\":1328:1344   */\n      swap1\n      pop\n        /* \"#utility.yul\":1273:1350   */\n      swap2\n      swap1\n      pop\n      jump\t// out\n        /* \"#utility.yul\":1356:1481   */\n    tag_13:\n        /* \"#utility.yul\":1418:1427   */\n      0x00\n        /* \"#utility.yul\":1451:1475   */\n      tag_27\n        /* \"#utility.yul\":1469:1474   */\n      dup3\n        /* \"#utility.yul\":1451:1475   */\n      tag_24\n      jump\t// in\n    tag_27:\n        /* \"#utility.yul\":1438:1475   */\n      swap1\n      pop\n        /* \"#utility.yul\":1356:1481   */\n      swap2\n      swap1\n      pop\n      jump\t// out\n        /* \"#utility.yul\":1487:1639   */\n    tag_19:\n        /* \"#utility.yul\":1627:1631   */\n      0x7770000000000000000000000000000000000000000000000000000000000000\n        /* \"#utility.yul\":1623:1624   */\n      0x00\n        /* \"#utility.yul\":1615:1621   */\n      dup3\n        /* \"#utility.yul\":1611:1625   */\n      add\n        /* \"#utility.yul\":1604:1632   */\n      mstore\n        /* \"#utility.yul\":1487:1639   */\n      pop\n      jump\t// out\n\n    auxdata: 0xa2646970667358221220ddd2d9a141d8dfc25ddf97576c3b78b096fb6b157a0d201e09e074677ed3f89564736f6c63430008070033\n}\n",
				"bytecode": {
					"linkReferences": {},
					"object": "608060405234801561001057600080fd5b50610161806100206000396000f3fe608060405234801561001057600080fd5b506004361061002b5760003560e01c806354353f2f14610030575b600080fd5b61003861003a565b005b7fdd970dd9b5bfe707922155b058a407655cb18288b807e2216442bca8ad83d6b5613a9860405161006b91906100a7565b60405180910390a1565b61007e816100f0565b82525050565b60006100916002836100d5565b915061009c82610102565b602082019050919050565b600060408201905081810360008301526100c081610084565b90506100cf6020830184610075565b92915050565b600082825260208201905092915050565b6000819050919050565b60006100fb826100e6565b9050919050565b7f777000000000000000000000000000000000000000000000000000000000000060008201525056fea2646970667358221220ddd2d9a141d8dfc25ddf97576c3b78b096fb6b157a0d201e09e074677ed3f89564736f6c63430008070033",
					"opcodes": "PUSH1 0x80 PUSH1 0x40 MSTORE CALLVALUE DUP1 ISZERO PUSH2 0x10 JUMPI PUSH1 0x0 DUP1 REVERT JUMPDEST POP PUSH2 0x161 DUP1 PUSH2 0x20 PUSH1 0x0 CODECOPY PUSH1 0x0 RETURN INVALID PUSH1 0x80 PUSH1 0x40 MSTORE CALLVALUE DUP1 ISZERO PUSH2 0x10 JUMPI PUSH1 0x0 DUP1 REVERT JUMPDEST POP PUSH1 0x4 CALLDATASIZE LT PUSH2 0x2B JUMPI PUSH1 0x0 CALLDATALOAD PUSH1 0xE0 SHR DUP1 PUSH4 0x54353F2F EQ PUSH2 0x30 JUMPI JUMPDEST PUSH1 0x0 DUP1 REVERT JUMPDEST PUSH2 0x38 PUSH2 0x3A JUMP JUMPDEST STOP JUMPDEST PUSH32 0xDD970DD9B5BFE707922155B058A407655CB18288B807E2216442BCA8AD83D6B5 PUSH2 0x3A98 PUSH1 0x40 MLOAD PUSH2 0x6B SWAP2 SWAP1 PUSH2 0xA7 JUMP JUMPDEST PUSH1 0x40 MLOAD DUP1 SWAP2 SUB SWAP1 LOG1 JUMP JUMPDEST PUSH2 0x7E DUP2 PUSH2 0xF0 JUMP JUMPDEST DUP3 MSTORE POP POP JUMP JUMPDEST PUSH1 0x0 PUSH2 0x91 PUSH1 0x2 DUP4 PUSH2 0xD5 JUMP JUMPDEST SWAP2 POP PUSH2 0x9C DUP3 PUSH2 0x102 JUMP JUMPDEST PUSH1 0x20 DUP3 ADD SWAP1 POP SWAP2 SWAP1 POP JUMP JUMPDEST PUSH1 0x0 PUSH1 0x40 DUP3 ADD SWAP1 POP DUP2 DUP2 SUB PUSH1 0x0 DUP4 ADD MSTORE PUSH2 0xC0 DUP2 PUSH2 0x84 JUMP JUMPDEST SWAP1 POP PUSH2 0xCF PUSH1 0x20 DUP4 ADD DUP5 PUSH2 0x75 JUMP JUMPDEST SWAP3 SWAP2 POP POP JUMP JUMPDEST PUSH1 0x0 DUP3 DUP3 MSTORE PUSH1 0x20 DUP3 ADD SWAP1 POP SWAP3 SWAP2 POP POP JUMP JUMPDEST PUSH1 0x0 DUP2 SWAP1 POP SWAP2 SWAP1 POP JUMP JUMPDEST PUSH1 0x0 PUSH2 0xFB DUP3 PUSH2 0xE6 JUMP JUMPDEST SWAP1 POP SWAP2 SWAP1 POP JUMP JUMPDEST PUSH32 0x7770000000000000000000000000000000000000000000000000000000000000 PUSH1 0x0 DUP3 ADD MSTORE POP JUMP INVALID LOG2 PUSH5 0x6970667358 0x22 SLT KECCAK256 0xDD 0xD2 0xD9 LOG1 COINBASE 0xD8 0xDF 0xC2 0x5D 0xDF SWAP8 JUMPI PUSH13 0x3B78B096FB6B157A0D201E09E0 PUSH21 0x677ED3F89564736F6C634300080700330000000000 "
				},
				"gasEstimates": {
					"creation": {
						"codeDepositCost": "70600",
						"executionCost": "123",
						"totalCost": "70723"
					},
					"external": {
						"example()": "2326"
					}
				},
				"methodIdentifiers": {
					"example()": "54353f2f"
				}
			},
			"storageLayout": {
				"storage": [],
				"types": null
			},
			"userdoc": {
				"kind": "user",
				"methods": {},
				"version": 1
			}
		}
	}
}