{
	"study/chapter05/back.sol": {
		"trans": {
			"abi": [
				{
					"inputs": [],
					"stateMutability": "payable",
					"type": "constructor"
				},
				{
					"inputs": [],
					"name": "getBalance",
					"outputs": [
						{
							"internalType": "uint256",
							"name": "",
							"type": "uint256"
						}
					],
					"stateMutability": "view",
					"type": "function"
				},
				{
					"inputs": [
						{
							"internalType": "address payable",
							"name": "_to",
							"type": "address"
						},
						{
							"internalType": "uint256",
							"name": "_amount",
							"type": "uint256"
						}
					],
					"name": "sendViaTransfer",
					"outputs": [],
					"stateMutability": "payable",
					"type": "function"
				}
			],
			"devdoc": {
				"kind": "dev",
				"methods": {},
				"version": 1
			},
			"evm": {
				"assembly": "    /* \"study/chapter05/back.sol\":842:1128  contract trans{... */\n  mstore(0x40, 0x80)\n  dataSize(sub_0)\n  dup1\n  dataOffset(sub_0)\n  0x00\n  codecopy\n  0x00\n  return\nstop\n\nsub_0: assembly {\n        /* \"study/chapter05/back.sol\":842:1128  contract trans{... */\n      mstore(0x40, 0x80)\n      jumpi(tag_1, lt(calldatasize, 0x04))\n      shr(0xe0, calldataload(0x00))\n      dup1\n      0x12065fe0\n      eq\n      tag_2\n      jumpi\n      dup1\n      0xd27f8e66\n      eq\n      tag_3\n      jumpi\n    tag_1:\n      0x00\n      dup1\n      revert\n        /* \"study/chapter05/back.sol\":1033:1126  function getBalance()external view returns(uint){... */\n    tag_2:\n      callvalue\n      dup1\n      iszero\n      tag_4\n      jumpi\n      0x00\n      dup1\n      revert\n    tag_4:\n      pop\n      tag_5\n      tag_6\n      jump\t// in\n    tag_5:\n      mload(0x40)\n      tag_7\n      swap2\n      swap1\n      tag_8\n      jump\t// in\n    tag_7:\n      mload(0x40)\n      dup1\n      swap2\n      sub\n      swap1\n      return\n        /* \"study/chapter05/back.sol\":895:1028  function sendViaTransfer(address payable _to,uint _amount)external payable {... */\n    tag_3:\n      tag_9\n      0x04\n      dup1\n      calldatasize\n      sub\n      dup2\n      add\n      swap1\n      tag_10\n      swap2\n      swap1\n      tag_11\n      jump\t// in\n    tag_10:\n      tag_12\n      jump\t// in\n    tag_9:\n      stop\n        /* \"study/chapter05/back.sol\":1033:1126  function getBalance()external view returns(uint){... */\n    tag_6:\n        /* \"study/chapter05/back.sol\":1076:1080  uint */\n      0x00\n        /* \"study/chapter05/back.sol\":1098:1119  address(this).balance */\n      selfbalance\n        /* \"study/chapter05/back.sol\":1091:1119  return address(this).balance */\n      swap1\n      pop\n        /* \"study/chapter05/back.sol\":1033:1126  function getBalance()external view returns(uint){... */\n      swap1\n      jump\t// out\n        /* \"study/chapter05/back.sol\":895:1028  function sendViaTransfer(address payable _to,uint _amount)external payable {... */\n    tag_12:\n        /* \"study/chapter05/back.sol\":980:983  _to */\n      dup2\n        /* \"study/chapter05/back.sol\":980:992  _to.transfer */\n      0xffffffffffffffffffffffffffffffffffffffff\n      and\n        /* \"study/chapter05/back.sol\":980:1001  _to.transfer(_amount) */\n      0x08fc\n        /* \"study/chapter05/back.sol\":993:1000  _amount */\n      dup3\n        /* \"study/chapter05/back.sol\":980:1001  _to.transfer(_amount) */\n      swap1\n      dup2\n      iszero\n      mul\n      swap1\n      mload(0x40)\n      0x00\n      mload(0x40)\n      dup1\n      dup4\n      sub\n      dup2\n      dup6\n      dup9\n      dup9\n      call\n      swap4\n      pop\n      pop\n      pop\n      pop\n      iszero\n      dup1\n      iszero\n      tag_16\n      jumpi\n      returndatasize\n      0x00\n      dup1\n      returndatacopy\n      revert(0x00, returndatasize)\n    tag_16:\n      pop\n        /* \"study/chapter05/back.sol\":895:1028  function sendViaTransfer(address payable _to,uint _amount)external payable {... */\n      pop\n      pop\n      jump\t// out\n        /* \"#utility.yul\":7:162   */\n    tag_18:\n        /* \"#utility.yul\":61:66   */\n      0x00\n        /* \"#utility.yul\":99:105   */\n      dup2\n        /* \"#utility.yul\":86:106   */\n      calldataload\n        /* \"#utility.yul\":77:106   */\n      swap1\n      pop\n        /* \"#utility.yul\":115:156   */\n      tag_20\n        /* \"#utility.yul\":150:155   */\n      dup2\n        /* \"#utility.yul\":115:156   */\n      tag_21\n      jump\t// in\n    tag_20:\n        /* \"#utility.yul\":7:162   */\n      swap3\n      swap2\n      pop\n      pop\n      jump\t// out\n        /* \"#utility.yul\":168:307   */\n    tag_22:\n        /* \"#utility.yul\":214:219   */\n      0x00\n        /* \"#utility.yul\":252:258   */\n      dup2\n        /* \"#utility.yul\":239:259   */\n      calldataload\n        /* \"#utility.yul\":230:259   */\n      swap1\n      pop\n        /* \"#utility.yul\":268:301   */\n      tag_24\n        /* \"#utility.yul\":295:300   */\n      dup2\n        /* \"#utility.yul\":268:301   */\n      tag_25\n      jump\t// in\n    tag_24:\n        /* \"#utility.yul\":168:307   */\n      swap3\n      swap2\n      pop\n      pop\n      jump\t// out\n        /* \"#utility.yul\":313:803   */\n    tag_11:\n        /* \"#utility.yul\":389:395   */\n      0x00\n        /* \"#utility.yul\":397:403   */\n      dup1\n        /* \"#utility.yul\":446:448   */\n      0x40\n        /* \"#utility.yul\":434:443   */\n      dup4\n        /* \"#utility.yul\":425:432   */\n      dup6\n        /* \"#utility.yul\":421:444   */\n      sub\n        /* \"#utility.yul\":417:449   */\n      slt\n        /* \"#utility.yul\":414:533   */\n      iszero\n      tag_27\n      jumpi\n        /* \"#utility.yul\":452:531   */\n      tag_28\n      tag_29\n      jump\t// in\n    tag_28:\n        /* \"#utility.yul\":414:533   */\n    tag_27:\n        /* \"#utility.yul\":572:573   */\n      0x00\n        /* \"#utility.yul\":597:658   */\n      tag_30\n        /* \"#utility.yul\":650:657   */\n      dup6\n        /* \"#utility.yul\":641:647   */\n      dup3\n        /* \"#utility.yul\":630:639   */\n      dup7\n        /* \"#utility.yul\":626:648   */\n      add\n        /* \"#utility.yul\":597:658   */\n      tag_18\n      jump\t// in\n    tag_30:\n        /* \"#utility.yul\":587:658   */\n      swap3\n      pop\n        /* \"#utility.yul\":543:668   */\n      pop\n        /* \"#utility.yul\":707:709   */\n      0x20\n        /* \"#utility.yul\":733:786   */\n      tag_31\n        /* \"#utility.yul\":778:785   */\n      dup6\n        /* \"#utility.yul\":769:775   */\n      dup3\n        /* \"#utility.yul\":758:767   */\n      dup7\n        /* \"#utility.yul\":754:776   */\n      add\n        /* \"#utility.yul\":733:786   */\n      tag_22\n      jump\t// in\n    tag_31:\n        /* \"#utility.yul\":723:786   */\n      swap2\n      pop\n        /* \"#utility.yul\":678:796   */\n      pop\n        /* \"#utility.yul\":313:803   */\n      swap3\n      pop\n      swap3\n      swap1\n      pop\n      jump\t// out\n        /* \"#utility.yul\":809:927   */\n    tag_32:\n        /* \"#utility.yul\":896:920   */\n      tag_34\n        /* \"#utility.yul\":914:919   */\n      dup2\n        /* \"#utility.yul\":896:920   */\n      tag_35\n      jump\t// in\n    tag_34:\n        /* \"#utility.yul\":891:894   */\n      dup3\n        /* \"#utility.yul\":884:921   */\n      mstore\n        /* \"#utility.yul\":809:927   */\n      pop\n      pop\n      jump\t// out\n        /* \"#utility.yul\":933:1155   */\n    tag_8:\n        /* \"#utility.yul\":1026:1030   */\n      0x00\n        /* \"#utility.yul\":1064:1066   */\n      0x20\n        /* \"#utility.yul\":1053:1062   */\n      dup3\n        /* \"#utility.yul\":1049:1067   */\n      add\n        /* \"#utility.yul\":1041:1067   */\n      swap1\n      pop\n        /* \"#utility.yul\":1077:1148   */\n      tag_37\n        /* \"#utility.yul\":1145:1146   */\n      0x00\n        /* \"#utility.yul\":1134:1143   */\n      dup4\n        /* \"#utility.yul\":1130:1147   */\n      add\n        /* \"#utility.yul\":1121:1127   */\n      dup5\n        /* \"#utility.yul\":1077:1148   */\n      tag_32\n      jump\t// in\n    tag_37:\n        /* \"#utility.yul\":933:1155   */\n      swap3\n      swap2\n      pop\n      pop\n      jump\t// out\n        /* \"#utility.yul\":1242:1346   */\n    tag_40:\n        /* \"#utility.yul\":1287:1294   */\n      0x00\n        /* \"#utility.yul\":1316:1340   */\n      tag_42\n        /* \"#utility.yul\":1334:1339   */\n      dup3\n        /* \"#utility.yul\":1316:1340   */\n      tag_43\n      jump\t// in\n    tag_42:\n        /* \"#utility.yul\":1305:1340   */\n      swap1\n      pop\n        /* \"#utility.yul\":1242:1346   */\n      swap2\n      swap1\n      pop\n      jump\t// out\n        /* \"#utility.yul\":1352:1478   */\n    tag_43:\n        /* \"#utility.yul\":1389:1396   */\n      0x00\n        /* \"#utility.yul\":1429:1471   */\n      0xffffffffffffffffffffffffffffffffffffffff\n        /* \"#utility.yul\":1422:1427   */\n      dup3\n        /* \"#utility.yul\":1418:1472   */\n      and\n        /* \"#utility.yul\":1407:1472   */\n      swap1\n      pop\n        /* \"#utility.yul\":1352:1478   */\n      swap2\n      swap1\n      pop\n      jump\t// out\n        /* \"#utility.yul\":1484:1561   */\n    tag_35:\n        /* \"#utility.yul\":1521:1528   */\n      0x00\n        /* \"#utility.yul\":1550:1555   */\n      dup2\n        /* \"#utility.yul\":1539:1555   */\n      swap1\n      pop\n        /* \"#utility.yul\":1484:1561   */\n      swap2\n      swap1\n      pop\n      jump\t// out\n        /* \"#utility.yul\":1690:1807   */\n    tag_29:\n        /* \"#utility.yul\":1799:1800   */\n      0x00\n        /* \"#utility.yul\":1796:1797   */\n      dup1\n        /* \"#utility.yul\":1789:1801   */\n      revert\n        /* \"#utility.yul\":1813:1951   */\n    tag_21:\n        /* \"#utility.yul\":1894:1926   */\n      tag_50\n        /* \"#utility.yul\":1920:1925   */\n      dup2\n        /* \"#utility.yul\":1894:1926   */\n      tag_40\n      jump\t// in\n    tag_50:\n        /* \"#utility.yul\":1887:1892   */\n      dup2\n        /* \"#utility.yul\":1884:1927   */\n      eq\n        /* \"#utility.yul\":1874:1945   */\n      tag_51\n      jumpi\n        /* \"#utility.yul\":1941:1942   */\n      0x00\n        /* \"#utility.yul\":1938:1939   */\n      dup1\n        /* \"#utility.yul\":1931:1943   */\n      revert\n        /* \"#utility.yul\":1874:1945   */\n    tag_51:\n        /* \"#utility.yul\":1813:1951   */\n      pop\n      jump\t// out\n        /* \"#utility.yul\":1957:2079   */\n    tag_25:\n        /* \"#utility.yul\":2030:2054   */\n      tag_53\n        /* \"#utility.yul\":2048:2053   */\n      dup2\n        /* \"#utility.yul\":2030:2054   */\n      tag_35\n      jump\t// in\n    tag_53:\n        /* \"#utility.yul\":2023:2028   */\n      dup2\n        /* \"#utility.yul\":2020:2055   */\n      eq\n        /* \"#utility.yul\":2010:2073   */\n      tag_54\n      jumpi\n        /* \"#utility.yul\":2069:2070   */\n      0x00\n        /* \"#utility.yul\":2066:2067   */\n      dup1\n        /* \"#utility.yul\":2059:2071   */\n      revert\n        /* \"#utility.yul\":2010:2073   */\n    tag_54:\n        /* \"#utility.yul\":1957:2079   */\n      pop\n      jump\t// out\n\n    auxdata: 0xa26469706673582212203efddbfd447fa5d70934154ed204ae4140eb2c497379cf608cd1b82d06c8a24a64736f6c63430008070033\n}\n",
				"bytecode": {
					"linkReferences": {},
					"object": "6080604052610201806100136000396000f3fe6080604052600436106100295760003560e01c806312065fe01461002e578063d27f8e6614610059575b600080fd5b34801561003a57600080fd5b50610043610075565b6040516100509190610141565b60405180910390f35b610073600480360381019061006e91906100f2565b61007d565b005b600047905090565b8173ffffffffffffffffffffffffffffffffffffffff166108fc829081150290604051600060405180830381858888f193505050501580156100c3573d6000803e3d6000fd5b505050565b6000813590506100d78161019d565b92915050565b6000813590506100ec816101b4565b92915050565b6000806040838503121561010957610108610198565b5b6000610117858286016100c8565b9250506020610128858286016100dd565b9150509250929050565b61013b8161018e565b82525050565b60006020820190506101566000830184610132565b92915050565b60006101678261016e565b9050919050565b600073ffffffffffffffffffffffffffffffffffffffff82169050919050565b6000819050919050565b600080fd5b6101a68161015c565b81146101b157600080fd5b50565b6101bd8161018e565b81146101c857600080fd5b5056fea26469706673582212203efddbfd447fa5d70934154ed204ae4140eb2c497379cf608cd1b82d06c8a24a64736f6c63430008070033",
					"opcodes": "PUSH1 0x80 PUSH1 0x40 MSTORE PUSH2 0x201 DUP1 PUSH2 0x13 PUSH1 0x0 CODECOPY PUSH1 0x0 RETURN INVALID PUSH1 0x80 PUSH1 0x40 MSTORE PUSH1 0x4 CALLDATASIZE LT PUSH2 0x29 JUMPI PUSH1 0x0 CALLDATALOAD PUSH1 0xE0 SHR DUP1 PUSH4 0x12065FE0 EQ PUSH2 0x2E JUMPI DUP1 PUSH4 0xD27F8E66 EQ PUSH2 0x59 JUMPI JUMPDEST PUSH1 0x0 DUP1 REVERT JUMPDEST CALLVALUE DUP1 ISZERO PUSH2 0x3A JUMPI PUSH1 0x0 DUP1 REVERT JUMPDEST POP PUSH2 0x43 PUSH2 0x75 JUMP JUMPDEST PUSH1 0x40 MLOAD PUSH2 0x50 SWAP2 SWAP1 PUSH2 0x141 JUMP JUMPDEST PUSH1 0x40 MLOAD DUP1 SWAP2 SUB SWAP1 RETURN JUMPDEST PUSH2 0x73 PUSH1 0x4 DUP1 CALLDATASIZE SUB DUP2 ADD SWAP1 PUSH2 0x6E SWAP2 SWAP1 PUSH2 0xF2 JUMP JUMPDEST PUSH2 0x7D JUMP JUMPDEST STOP JUMPDEST PUSH1 0x0 SELFBALANCE SWAP1 POP SWAP1 JUMP JUMPDEST DUP2 PUSH20 0xFFFFFFFFFFFFFFFFFFFFFFFFFFFFFFFFFFFFFFFF AND PUSH2 0x8FC DUP3 SWAP1 DUP2 ISZERO MUL SWAP1 PUSH1 0x40 MLOAD PUSH1 0x0 PUSH1 0x40 MLOAD DUP1 DUP4 SUB DUP2 DUP6 DUP9 DUP9 CALL SWAP4 POP POP POP POP ISZERO DUP1 ISZERO PUSH2 0xC3 JUMPI RETURNDATASIZE PUSH1 0x0 DUP1 RETURNDATACOPY RETURNDATASIZE PUSH1 0x0 REVERT JUMPDEST POP POP POP JUMP JUMPDEST PUSH1 0x0 DUP2 CALLDATALOAD SWAP1 POP PUSH2 0xD7 DUP2 PUSH2 0x19D JUMP JUMPDEST SWAP3 SWAP2 POP POP JUMP JUMPDEST PUSH1 0x0 DUP2 CALLDATALOAD SWAP1 POP PUSH2 0xEC DUP2 PUSH2 0x1B4 JUMP JUMPDEST SWAP3 SWAP2 POP POP JUMP JUMPDEST PUSH1 0x0 DUP1 PUSH1 0x40 DUP4 DUP6 SUB SLT ISZERO PUSH2 0x109 JUMPI PUSH2 0x108 PUSH2 0x198 JUMP JUMPDEST JUMPDEST PUSH1 0x0 PUSH2 0x117 DUP6 DUP3 DUP7 ADD PUSH2 0xC8 JUMP JUMPDEST SWAP3 POP POP PUSH1 0x20 PUSH2 0x128 DUP6 DUP3 DUP7 ADD PUSH2 0xDD JUMP JUMPDEST SWAP2 POP POP SWAP3 POP SWAP3 SWAP1 POP JUMP JUMPDEST PUSH2 0x13B DUP2 PUSH2 0x18E JUMP JUMPDEST DUP3 MSTORE POP POP JUMP JUMPDEST PUSH1 0x0 PUSH1 0x20 DUP3 ADD SWAP1 POP PUSH2 0x156 PUSH1 0x0 DUP4 ADD DUP5 PUSH2 0x132 JUMP JUMPDEST SWAP3 SWAP2 POP POP JUMP JUMPDEST PUSH1 0x0 PUSH2 0x167 DUP3 PUSH2 0x16E JUMP JUMPDEST SWAP1 POP SWAP2 SWAP1 POP JUMP JUMPDEST PUSH1 0x0 PUSH20 0xFFFFFFFFFFFFFFFFFFFFFFFFFFFFFFFFFFFFFFFF DUP3 AND SWAP1 POP SWAP2 SWAP1 POP JUMP JUMPDEST PUSH1 0x0 DUP2 SWAP1 POP SWAP2 SWAP1 POP JUMP JUMPDEST PUSH1 0x0 DUP1 REVERT JUMPDEST PUSH2 0x1A6 DUP2 PUSH2 0x15C JUMP JUMPDEST DUP2 EQ PUSH2 0x1B1 JUMPI PUSH1 0x0 DUP1 REVERT JUMPDEST POP JUMP JUMPDEST PUSH2 0x1BD DUP2 PUSH2 0x18E JUMP JUMPDEST DUP2 EQ PUSH2 0x1C8 JUMPI PUSH1 0x0 DUP1 REVERT JUMPDEST POP JUMP INVALID LOG2 PUSH5 0x6970667358 0x22 SLT KECCAK256 RETURNDATACOPY REVERT 0xDB REVERT DIFFICULTY PUSH32 0xA5D70934154ED204AE4140EB2C497379CF608CD1B82D06C8A24A64736F6C6343 STOP ADDMOD SMOD STOP CALLER "
				},
				"gasEstimates": {
					"creation": {
						"codeDepositCost": "102600",
						"executionCost": "129",
						"totalCost": "102729"
					},
					"external": {
						"getBalance()": "317",
						"sendViaTransfer(address,uint256)": "infinite"
					}
				},
				"methodIdentifiers": {
					"getBalance()": "12065fe0",
					"sendViaTransfer(address,uint256)": "d27f8e66"
				}
			},
			"storageLayout": {
				"storage": [],
				"types": null
			},
			"userdoc": {
				"kind": "user",
				"methods": {},
				"version": 1
			}
		}
	}
}