{
	"study/chapter05/9modifier.sol": {
		"Modifier": {
			"abi": [
				{
					"inputs": [],
					"name": "add",
					"outputs": [],
					"stateMutability": "nonpayable",
					"type": "function"
				},
				{
					"inputs": [
						{
							"internalType": "uint256",
							"name": "x",
							"type": "uint256"
						}
					],
					"name": "addBy",
					"outputs": [],
					"stateMutability": "nonpayable",
					"type": "function"
				},
				{
					"inputs": [],
					"name": "count",
					"outputs": [
						{
							"internalType": "uint256",
							"name": "",
							"type": "uint256"
						}
					],
					"stateMutability": "view",
					"type": "function"
				},
				{
					"inputs": [],
					"name": "paused",
					"outputs": [
						{
							"internalType": "bool",
							"name": "",
							"type": "bool"
						}
					],
					"stateMutability": "view",
					"type": "function"
				},
				{
					"inputs": [],
					"name": "sandwitchTest",
					"outputs": [],
					"stateMutability": "nonpayable",
					"type": "function"
				},
				{
					"inputs": [
						{
							"internalType": "bool",
							"name": "_pause",
							"type": "bool"
						}
					],
					"name": "setP",
					"outputs": [],
					"stateMutability": "nonpayable",
					"type": "function"
				}
			],
			"devdoc": {
				"kind": "dev",
				"methods": {},
				"version": 1
			},
			"evm": {
				"assembly": "    /* \"study/chapter05/9modifier.sol\":54:798  contract Modifier{... */\n  mstore(0x40, 0x80)\n  callvalue\n  dup1\n  iszero\n  tag_1\n  jumpi\n  0x00\n  dup1\n  revert\ntag_1:\n  pop\n  dataSize(sub_0)\n  dup1\n  dataOffset(sub_0)\n  0x00\n  codecopy\n  0x00\n  return\nstop\n\nsub_0: assembly {\n        /* \"study/chapter05/9modifier.sol\":54:798  contract Modifier{... */\n      mstore(0x40, 0x80)\n      callvalue\n      dup1\n      iszero\n      tag_1\n      jumpi\n      0x00\n      dup1\n      revert\n    tag_1:\n      pop\n      jumpi(tag_2, lt(calldatasize, 0x04))\n      shr(0xe0, calldataload(0x00))\n      dup1\n      0x053f6c2c\n      eq\n      tag_3\n      jumpi\n      dup1\n      0x06661abd\n      eq\n      tag_4\n      jumpi\n      dup1\n      0x4f2be91f\n      eq\n      tag_5\n      jumpi\n      dup1\n      0x5c975abb\n      eq\n      tag_6\n      jumpi\n      dup1\n      0x84a303d6\n      eq\n      tag_7\n      jumpi\n      dup1\n      0x915518cb\n      eq\n      tag_8\n      jumpi\n    tag_2:\n      0x00\n      dup1\n      revert\n        /* \"study/chapter05/9modifier.sol\":535:610  function addBy(uint x)external WhenPaused check(x){... */\n    tag_3:\n      tag_9\n      0x04\n      dup1\n      calldatasize\n      sub\n      dup2\n      add\n      swap1\n      tag_10\n      swap2\n      swap1\n      tag_11\n      jump\t// in\n    tag_10:\n      tag_12\n      jump\t// in\n    tag_9:\n      stop\n        /* \"study/chapter05/9modifier.sol\":101:118  uint public count */\n    tag_4:\n      tag_13\n      tag_14\n      jump\t// in\n    tag_13:\n      mload(0x40)\n      tag_15\n      swap2\n      swap1\n      tag_16\n      jump\t// in\n    tag_15:\n      mload(0x40)\n      dup1\n      swap2\n      sub\n      swap1\n      return\n        /* \"study/chapter05/9modifier.sol\":363:420  function add()external WhenPaused{... */\n    tag_5:\n      tag_17\n      tag_18\n      jump\t// in\n    tag_17:\n      stop\n        /* \"study/chapter05/9modifier.sol\":77:95  bool public paused */\n    tag_6:\n      tag_19\n      tag_20\n      jump\t// in\n    tag_19:\n      mload(0x40)\n      tag_21\n      swap2\n      swap1\n      tag_22\n      jump\t// in\n    tag_21:\n      mload(0x40)\n      dup1\n      swap2\n      sub\n      swap1\n      return\n        /* \"study/chapter05/9modifier.sol\":126:193  function setP(bool _pause)external {... */\n    tag_7:\n      tag_23\n      0x04\n      dup1\n      calldatasize\n      sub\n      dup2\n      add\n      swap1\n      tag_24\n      swap2\n      swap1\n      tag_25\n      jump\t// in\n    tag_24:\n      tag_26\n      jump\t// in\n    tag_23:\n      stop\n        /* \"study/chapter05/9modifier.sol\":727:795  function sandwitchTest()external  sandwitch{... */\n    tag_8:\n      tag_27\n      tag_28\n      jump\t// in\n    tag_27:\n      stop\n        /* \"study/chapter05/9modifier.sol\":535:610  function addBy(uint x)external WhenPaused check(x){... */\n    tag_12:\n        /* \"study/chapter05/9modifier.sol\":314:320  paused */\n      0x00\n      dup1\n      sload\n      swap1\n      0x0100\n      exp\n      swap1\n      div\n      0xff\n      and\n        /* \"study/chapter05/9modifier.sol\":313:320  !paused */\n      iszero\n        /* \"study/chapter05/9modifier.sol\":305:338  require(!paused,\"already paused\") */\n      tag_30\n      jumpi\n      mload(0x40)\n      0x08c379a000000000000000000000000000000000000000000000000000000000\n      dup2\n      mstore\n      0x04\n      add\n      tag_31\n      swap1\n      tag_32\n      jump\t// in\n    tag_31:\n      mload(0x40)\n      dup1\n      swap2\n      sub\n      swap1\n      revert\n    tag_30:\n        /* \"study/chapter05/9modifier.sol\":583:584  x */\n      dup1\n        /* \"study/chapter05/9modifier.sol\":467:470  100 */\n      0x64\n        /* \"study/chapter05/9modifier.sol\":465:466  x */\n      dup2\n        /* \"study/chapter05/9modifier.sol\":465:470  x<100 */\n      lt\n        /* \"study/chapter05/9modifier.sol\":457:479  require(x<100,\"x>100\") */\n      tag_34\n      jumpi\n      mload(0x40)\n      0x08c379a000000000000000000000000000000000000000000000000000000000\n      dup2\n      mstore\n      0x04\n      add\n      tag_35\n      swap1\n      tag_36\n      jump\t// in\n    tag_35:\n      mload(0x40)\n      dup1\n      swap2\n      sub\n      swap1\n      revert\n    tag_34:\n        /* \"study/chapter05/9modifier.sol\":602:603  x */\n      dup2\n        /* \"study/chapter05/9modifier.sol\":595:600  count */\n      0x01\n      0x00\n        /* \"study/chapter05/9modifier.sol\":595:603  count+=x */\n      dup3\n      dup3\n      sload\n      tag_38\n      swap2\n      swap1\n      tag_39\n      jump\t// in\n    tag_38:\n      swap3\n      pop\n      pop\n      dup2\n      swap1\n      sstore\n      pop\n        /* \"study/chapter05/9modifier.sol\":348:349  _ */\n      pop\n        /* \"study/chapter05/9modifier.sol\":535:610  function addBy(uint x)external WhenPaused check(x){... */\n      pop\n      jump\t// out\n        /* \"study/chapter05/9modifier.sol\":101:118  uint public count */\n    tag_14:\n      sload(0x01)\n      dup2\n      jump\t// out\n        /* \"study/chapter05/9modifier.sol\":363:420  function add()external WhenPaused{... */\n    tag_18:\n        /* \"study/chapter05/9modifier.sol\":314:320  paused */\n      0x00\n      dup1\n      sload\n      swap1\n      0x0100\n      exp\n      swap1\n      div\n      0xff\n      and\n        /* \"study/chapter05/9modifier.sol\":313:320  !paused */\n      iszero\n        /* \"study/chapter05/9modifier.sol\":305:338  require(!paused,\"already paused\") */\n      tag_41\n      jumpi\n      mload(0x40)\n      0x08c379a000000000000000000000000000000000000000000000000000000000\n      dup2\n      mstore\n      0x04\n      add\n      tag_42\n      swap1\n      tag_32\n      jump\t// in\n    tag_42:\n      mload(0x40)\n      dup1\n      swap2\n      sub\n      swap1\n      revert\n    tag_41:\n        /* \"study/chapter05/9modifier.sol\":406:411  count */\n      0x01\n      0x00\n        /* \"study/chapter05/9modifier.sol\":406:413  count++ */\n      dup2\n      sload\n      dup1\n      swap3\n      swap2\n      swap1\n      tag_44\n      swap1\n      tag_45\n      jump\t// in\n    tag_44:\n      swap2\n      swap1\n      pop\n      sstore\n      pop\n        /* \"study/chapter05/9modifier.sol\":363:420  function add()external WhenPaused{... */\n      jump\t// out\n        /* \"study/chapter05/9modifier.sol\":77:95  bool public paused */\n    tag_20:\n      0x00\n      dup1\n      sload\n      swap1\n      0x0100\n      exp\n      swap1\n      div\n      0xff\n      and\n      dup2\n      jump\t// out\n        /* \"study/chapter05/9modifier.sol\":126:193  function setP(bool _pause)external {... */\n    tag_26:\n        /* \"study/chapter05/9modifier.sol\":180:186  _pause */\n      dup1\n        /* \"study/chapter05/9modifier.sol\":171:177  paused */\n      0x00\n      dup1\n        /* \"study/chapter05/9modifier.sol\":171:186  paused = _pause */\n      0x0100\n      exp\n      dup2\n      sload\n      dup2\n      0xff\n      mul\n      not\n      and\n      swap1\n      dup4\n      iszero\n      iszero\n      mul\n      or\n      swap1\n      sstore\n      pop\n        /* \"study/chapter05/9modifier.sol\":126:193  function setP(bool _pause)external {... */\n      pop\n      jump\t// out\n        /* \"study/chapter05/9modifier.sol\":727:795  function sandwitchTest()external  sandwitch{... */\n    tag_28:\n        /* \"study/chapter05/9modifier.sol\":677:679  10 */\n      0x0a\n        /* \"study/chapter05/9modifier.sol\":670:675  count */\n      0x01\n      0x00\n        /* \"study/chapter05/9modifier.sol\":670:679  count+=10 */\n      dup3\n      dup3\n      sload\n      tag_48\n      swap2\n      swap1\n      tag_39\n      jump\t// in\n    tag_48:\n      swap3\n      pop\n      pop\n      dup2\n      swap1\n      sstore\n      pop\n        /* \"study/chapter05/9modifier.sol\":787:788  1 */\n      0x01\n        /* \"study/chapter05/9modifier.sol\":780:785  count */\n      dup1\n      0x00\n        /* \"study/chapter05/9modifier.sol\":780:788  count+=1 */\n      dup3\n      dup3\n      sload\n      tag_50\n      swap2\n      swap1\n      tag_39\n      jump\t// in\n    tag_50:\n      swap3\n      pop\n      pop\n      dup2\n      swap1\n      sstore\n      pop\n        /* \"study/chapter05/9modifier.sol\":714:715  2 */\n      0x02\n        /* \"study/chapter05/9modifier.sol\":708:713  count */\n      sload(0x01)\n        /* \"study/chapter05/9modifier.sol\":708:715  count*2 */\n      tag_51\n      swap2\n      swap1\n      tag_52\n      jump\t// in\n    tag_51:\n        /* \"study/chapter05/9modifier.sol\":700:705  count */\n      0x01\n        /* \"study/chapter05/9modifier.sol\":700:715  count = count*2 */\n      dup2\n      swap1\n      sstore\n      pop\n        /* \"study/chapter05/9modifier.sol\":727:795  function sandwitchTest()external  sandwitch{... */\n      jump\t// out\n        /* \"#utility.yul\":88:205   */\n    tag_54:\n        /* \"#utility.yul\":197:198   */\n      0x00\n        /* \"#utility.yul\":194:195   */\n      dup1\n        /* \"#utility.yul\":187:199   */\n      revert\n        /* \"#utility.yul\":334:411   */\n    tag_56:\n        /* \"#utility.yul\":371:378   */\n      0x00\n        /* \"#utility.yul\":400:405   */\n      dup2\n        /* \"#utility.yul\":389:405   */\n      swap1\n      pop\n        /* \"#utility.yul\":334:411   */\n      swap2\n      swap1\n      pop\n      jump\t// out\n        /* \"#utility.yul\":417:539   */\n    tag_57:\n        /* \"#utility.yul\":490:514   */\n      tag_76\n        /* \"#utility.yul\":508:513   */\n      dup2\n        /* \"#utility.yul\":490:514   */\n      tag_56\n      jump\t// in\n    tag_76:\n        /* \"#utility.yul\":483:488   */\n      dup2\n        /* \"#utility.yul\":480:515   */\n      eq\n        /* \"#utility.yul\":470:533   */\n      tag_77\n      jumpi\n        /* \"#utility.yul\":529:530   */\n      0x00\n        /* \"#utility.yul\":526:527   */\n      dup1\n        /* \"#utility.yul\":519:531   */\n      revert\n        /* \"#utility.yul\":470:533   */\n    tag_77:\n        /* \"#utility.yul\":417:539   */\n      pop\n      jump\t// out\n        /* \"#utility.yul\":545:684   */\n    tag_58:\n        /* \"#utility.yul\":591:596   */\n      0x00\n        /* \"#utility.yul\":629:635   */\n      dup2\n        /* \"#utility.yul\":616:636   */\n      calldataload\n        /* \"#utility.yul\":607:636   */\n      swap1\n      pop\n        /* \"#utility.yul\":645:678   */\n      tag_79\n        /* \"#utility.yul\":672:677   */\n      dup2\n        /* \"#utility.yul\":645:678   */\n      tag_57\n      jump\t// in\n    tag_79:\n        /* \"#utility.yul\":545:684   */\n      swap3\n      swap2\n      pop\n      pop\n      jump\t// out\n        /* \"#utility.yul\":690:1019   */\n    tag_11:\n        /* \"#utility.yul\":749:755   */\n      0x00\n        /* \"#utility.yul\":798:800   */\n      0x20\n        /* \"#utility.yul\":786:795   */\n      dup3\n        /* \"#utility.yul\":777:784   */\n      dup5\n        /* \"#utility.yul\":773:796   */\n      sub\n        /* \"#utility.yul\":769:801   */\n      slt\n        /* \"#utility.yul\":766:885   */\n      iszero\n      tag_81\n      jumpi\n        /* \"#utility.yul\":804:883   */\n      tag_82\n      tag_54\n      jump\t// in\n    tag_82:\n        /* \"#utility.yul\":766:885   */\n    tag_81:\n        /* \"#utility.yul\":924:925   */\n      0x00\n        /* \"#utility.yul\":949:1002   */\n      tag_83\n        /* \"#utility.yul\":994:1001   */\n      dup5\n        /* \"#utility.yul\":985:991   */\n      dup3\n        /* \"#utility.yul\":974:983   */\n      dup6\n        /* \"#utility.yul\":970:992   */\n      add\n        /* \"#utility.yul\":949:1002   */\n      tag_58\n      jump\t// in\n    tag_83:\n        /* \"#utility.yul\":939:1002   */\n      swap2\n      pop\n        /* \"#utility.yul\":895:1012   */\n      pop\n        /* \"#utility.yul\":690:1019   */\n      swap3\n      swap2\n      pop\n      pop\n      jump\t// out\n        /* \"#utility.yul\":1025:1143   */\n    tag_59:\n        /* \"#utility.yul\":1112:1136   */\n      tag_85\n        /* \"#utility.yul\":1130:1135   */\n      dup2\n        /* \"#utility.yul\":1112:1136   */\n      tag_56\n      jump\t// in\n    tag_85:\n        /* \"#utility.yul\":1107:1110   */\n      dup3\n        /* \"#utility.yul\":1100:1137   */\n      mstore\n        /* \"#utility.yul\":1025:1143   */\n      pop\n      pop\n      jump\t// out\n        /* \"#utility.yul\":1149:1371   */\n    tag_16:\n        /* \"#utility.yul\":1242:1246   */\n      0x00\n        /* \"#utility.yul\":1280:1282   */\n      0x20\n        /* \"#utility.yul\":1269:1278   */\n      dup3\n        /* \"#utility.yul\":1265:1283   */\n      add\n        /* \"#utility.yul\":1257:1283   */\n      swap1\n      pop\n        /* \"#utility.yul\":1293:1364   */\n      tag_87\n        /* \"#utility.yul\":1361:1362   */\n      0x00\n        /* \"#utility.yul\":1350:1359   */\n      dup4\n        /* \"#utility.yul\":1346:1363   */\n      add\n        /* \"#utility.yul\":1337:1343   */\n      dup5\n        /* \"#utility.yul\":1293:1364   */\n      tag_59\n      jump\t// in\n    tag_87:\n        /* \"#utility.yul\":1149:1371   */\n      swap3\n      swap2\n      pop\n      pop\n      jump\t// out\n        /* \"#utility.yul\":1377:1467   */\n    tag_60:\n        /* \"#utility.yul\":1411:1418   */\n      0x00\n        /* \"#utility.yul\":1454:1459   */\n      dup2\n        /* \"#utility.yul\":1447:1460   */\n      iszero\n        /* \"#utility.yul\":1440:1461   */\n      iszero\n        /* \"#utility.yul\":1429:1461   */\n      swap1\n      pop\n        /* \"#utility.yul\":1377:1467   */\n      swap2\n      swap1\n      pop\n      jump\t// out\n        /* \"#utility.yul\":1473:1582   */\n    tag_61:\n        /* \"#utility.yul\":1554:1575   */\n      tag_90\n        /* \"#utility.yul\":1569:1574   */\n      dup2\n        /* \"#utility.yul\":1554:1575   */\n      tag_60\n      jump\t// in\n    tag_90:\n        /* \"#utility.yul\":1549:1552   */\n      dup3\n        /* \"#utility.yul\":1542:1576   */\n      mstore\n        /* \"#utility.yul\":1473:1582   */\n      pop\n      pop\n      jump\t// out\n        /* \"#utility.yul\":1588:1798   */\n    tag_22:\n        /* \"#utility.yul\":1675:1679   */\n      0x00\n        /* \"#utility.yul\":1713:1715   */\n      0x20\n        /* \"#utility.yul\":1702:1711   */\n      dup3\n        /* \"#utility.yul\":1698:1716   */\n      add\n        /* \"#utility.yul\":1690:1716   */\n      swap1\n      pop\n        /* \"#utility.yul\":1726:1791   */\n      tag_92\n        /* \"#utility.yul\":1788:1789   */\n      0x00\n        /* \"#utility.yul\":1777:1786   */\n      dup4\n        /* \"#utility.yul\":1773:1790   */\n      add\n        /* \"#utility.yul\":1764:1770   */\n      dup5\n        /* \"#utility.yul\":1726:1791   */\n      tag_61\n      jump\t// in\n    tag_92:\n        /* \"#utility.yul\":1588:1798   */\n      swap3\n      swap2\n      pop\n      pop\n      jump\t// out\n        /* \"#utility.yul\":1804:1920   */\n    tag_62:\n        /* \"#utility.yul\":1874:1895   */\n      tag_94\n        /* \"#utility.yul\":1889:1894   */\n      dup2\n        /* \"#utility.yul\":1874:1895   */\n      tag_60\n      jump\t// in\n    tag_94:\n        /* \"#utility.yul\":1867:1872   */\n      dup2\n        /* \"#utility.yul\":1864:1896   */\n      eq\n        /* \"#utility.yul\":1854:1914   */\n      tag_95\n      jumpi\n        /* \"#utility.yul\":1910:1911   */\n      0x00\n        /* \"#utility.yul\":1907:1908   */\n      dup1\n        /* \"#utility.yul\":1900:1912   */\n      revert\n        /* \"#utility.yul\":1854:1914   */\n    tag_95:\n        /* \"#utility.yul\":1804:1920   */\n      pop\n      jump\t// out\n        /* \"#utility.yul\":1926:2059   */\n    tag_63:\n        /* \"#utility.yul\":1969:1974   */\n      0x00\n        /* \"#utility.yul\":2007:2013   */\n      dup2\n        /* \"#utility.yul\":1994:2014   */\n      calldataload\n        /* \"#utility.yul\":1985:2014   */\n      swap1\n      pop\n        /* \"#utility.yul\":2023:2053   */\n      tag_97\n        /* \"#utility.yul\":2047:2052   */\n      dup2\n        /* \"#utility.yul\":2023:2053   */\n      tag_62\n      jump\t// in\n    tag_97:\n        /* \"#utility.yul\":1926:2059   */\n      swap3\n      swap2\n      pop\n      pop\n      jump\t// out\n        /* \"#utility.yul\":2065:2388   */\n    tag_25:\n        /* \"#utility.yul\":2121:2127   */\n      0x00\n        /* \"#utility.yul\":2170:2172   */\n      0x20\n        /* \"#utility.yul\":2158:2167   */\n      dup3\n        /* \"#utility.yul\":2149:2156   */\n      dup5\n        /* \"#utility.yul\":2145:2168   */\n      sub\n        /* \"#utility.yul\":2141:2173   */\n      slt\n        /* \"#utility.yul\":2138:2257   */\n      iszero\n      tag_99\n      jumpi\n        /* \"#utility.yul\":2176:2255   */\n      tag_100\n      tag_54\n      jump\t// in\n    tag_100:\n        /* \"#utility.yul\":2138:2257   */\n    tag_99:\n        /* \"#utility.yul\":2296:2297   */\n      0x00\n        /* \"#utility.yul\":2321:2371   */\n      tag_101\n        /* \"#utility.yul\":2363:2370   */\n      dup5\n        /* \"#utility.yul\":2354:2360   */\n      dup3\n        /* \"#utility.yul\":2343:2352   */\n      dup6\n        /* \"#utility.yul\":2339:2361   */\n      add\n        /* \"#utility.yul\":2321:2371   */\n      tag_63\n      jump\t// in\n    tag_101:\n        /* \"#utility.yul\":2311:2371   */\n      swap2\n      pop\n        /* \"#utility.yul\":2267:2381   */\n      pop\n        /* \"#utility.yul\":2065:2388   */\n      swap3\n      swap2\n      pop\n      pop\n      jump\t// out\n        /* \"#utility.yul\":2394:2563   */\n    tag_64:\n        /* \"#utility.yul\":2478:2489   */\n      0x00\n        /* \"#utility.yul\":2512:2518   */\n      dup3\n        /* \"#utility.yul\":2507:2510   */\n      dup3\n        /* \"#utility.yul\":2500:2519   */\n      mstore\n        /* \"#utility.yul\":2552:2556   */\n      0x20\n        /* \"#utility.yul\":2547:2550   */\n      dup3\n        /* \"#utility.yul\":2543:2557   */\n      add\n        /* \"#utility.yul\":2528:2557   */\n      swap1\n      pop\n        /* \"#utility.yul\":2394:2563   */\n      swap3\n      swap2\n      pop\n      pop\n      jump\t// out\n        /* \"#utility.yul\":2569:2733   */\n    tag_65:\n        /* \"#utility.yul\":2709:2725   */\n      0x616c726561647920706175736564000000000000000000000000000000000000\n        /* \"#utility.yul\":2705:2706   */\n      0x00\n        /* \"#utility.yul\":2697:2703   */\n      dup3\n        /* \"#utility.yul\":2693:2707   */\n      add\n        /* \"#utility.yul\":2686:2726   */\n      mstore\n        /* \"#utility.yul\":2569:2733   */\n      pop\n      jump\t// out\n        /* \"#utility.yul\":2739:3105   */\n    tag_66:\n        /* \"#utility.yul\":2881:2884   */\n      0x00\n        /* \"#utility.yul\":2902:2969   */\n      tag_105\n        /* \"#utility.yul\":2966:2968   */\n      0x0e\n        /* \"#utility.yul\":2961:2964   */\n      dup4\n        /* \"#utility.yul\":2902:2969   */\n      tag_64\n      jump\t// in\n    tag_105:\n        /* \"#utility.yul\":2895:2969   */\n      swap2\n      pop\n        /* \"#utility.yul\":2978:3071   */\n      tag_106\n        /* \"#utility.yul\":3067:3070   */\n      dup3\n        /* \"#utility.yul\":2978:3071   */\n      tag_65\n      jump\t// in\n    tag_106:\n        /* \"#utility.yul\":3096:3098   */\n      0x20\n        /* \"#utility.yul\":3091:3094   */\n      dup3\n        /* \"#utility.yul\":3087:3099   */\n      add\n        /* \"#utility.yul\":3080:3099   */\n      swap1\n      pop\n        /* \"#utility.yul\":2739:3105   */\n      swap2\n      swap1\n      pop\n      jump\t// out\n        /* \"#utility.yul\":3111:3530   */\n    tag_32:\n        /* \"#utility.yul\":3277:3281   */\n      0x00\n        /* \"#utility.yul\":3315:3317   */\n      0x20\n        /* \"#utility.yul\":3304:3313   */\n      dup3\n        /* \"#utility.yul\":3300:3318   */\n      add\n        /* \"#utility.yul\":3292:3318   */\n      swap1\n      pop\n        /* \"#utility.yul\":3364:3373   */\n      dup2\n        /* \"#utility.yul\":3358:3362   */\n      dup2\n        /* \"#utility.yul\":3354:3374   */\n      sub\n        /* \"#utility.yul\":3350:3351   */\n      0x00\n        /* \"#utility.yul\":3339:3348   */\n      dup4\n        /* \"#utility.yul\":3335:3352   */\n      add\n        /* \"#utility.yul\":3328:3375   */\n      mstore\n        /* \"#utility.yul\":3392:3523   */\n      tag_108\n        /* \"#utility.yul\":3518:3522   */\n      dup2\n        /* \"#utility.yul\":3392:3523   */\n      tag_66\n      jump\t// in\n    tag_108:\n        /* \"#utility.yul\":3384:3523   */\n      swap1\n      pop\n        /* \"#utility.yul\":3111:3530   */\n      swap2\n      swap1\n      pop\n      jump\t// out\n        /* \"#utility.yul\":3536:3691   */\n    tag_67:\n        /* \"#utility.yul\":3676:3683   */\n      0x783e313030000000000000000000000000000000000000000000000000000000\n        /* \"#utility.yul\":3672:3673   */\n      0x00\n        /* \"#utility.yul\":3664:3670   */\n      dup3\n        /* \"#utility.yul\":3660:3674   */\n      add\n        /* \"#utility.yul\":3653:3684   */\n      mstore\n        /* \"#utility.yul\":3536:3691   */\n      pop\n      jump\t// out\n        /* \"#utility.yul\":3697:4062   */\n    tag_68:\n        /* \"#utility.yul\":3839:3842   */\n      0x00\n        /* \"#utility.yul\":3860:3926   */\n      tag_111\n        /* \"#utility.yul\":3924:3925   */\n      0x05\n        /* \"#utility.yul\":3919:3922   */\n      dup4\n        /* \"#utility.yul\":3860:3926   */\n      tag_64\n      jump\t// in\n    tag_111:\n        /* \"#utility.yul\":3853:3926   */\n      swap2\n      pop\n        /* \"#utility.yul\":3935:4028   */\n      tag_112\n        /* \"#utility.yul\":4024:4027   */\n      dup3\n        /* \"#utility.yul\":3935:4028   */\n      tag_67\n      jump\t// in\n    tag_112:\n        /* \"#utility.yul\":4053:4055   */\n      0x20\n        /* \"#utility.yul\":4048:4051   */\n      dup3\n        /* \"#utility.yul\":4044:4056   */\n      add\n        /* \"#utility.yul\":4037:4056   */\n      swap1\n      pop\n        /* \"#utility.yul\":3697:4062   */\n      swap2\n      swap1\n      pop\n      jump\t// out\n        /* \"#utility.yul\":4068:4487   */\n    tag_36:\n        /* \"#utility.yul\":4234:4238   */\n      0x00\n        /* \"#utility.yul\":4272:4274   */\n      0x20\n        /* \"#utility.yul\":4261:4270   */\n      dup3\n        /* \"#utility.yul\":4257:4275   */\n      add\n        /* \"#utility.yul\":4249:4275   */\n      swap1\n      pop\n        /* \"#utility.yul\":4321:4330   */\n      dup2\n        /* \"#utility.yul\":4315:4319   */\n      dup2\n        /* \"#utility.yul\":4311:4331   */\n      sub\n        /* \"#utility.yul\":4307:4308   */\n      0x00\n        /* \"#utility.yul\":4296:4305   */\n      dup4\n        /* \"#utility.yul\":4292:4309   */\n      add\n        /* \"#utility.yul\":4285:4332   */\n      mstore\n        /* \"#utility.yul\":4349:4480   */\n      tag_114\n        /* \"#utility.yul\":4475:4479   */\n      dup2\n        /* \"#utility.yul\":4349:4480   */\n      tag_68\n      jump\t// in\n    tag_114:\n        /* \"#utility.yul\":4341:4480   */\n      swap1\n      pop\n        /* \"#utility.yul\":4068:4487   */\n      swap2\n      swap1\n      pop\n      jump\t// out\n        /* \"#utility.yul\":4493:4673   */\n    tag_69:\n        /* \"#utility.yul\":4541:4618   */\n      0x4e487b7100000000000000000000000000000000000000000000000000000000\n        /* \"#utility.yul\":4538:4539   */\n      0x00\n        /* \"#utility.yul\":4531:4619   */\n      mstore\n        /* \"#utility.yul\":4638:4642   */\n      0x11\n        /* \"#utility.yul\":4635:4636   */\n      0x04\n        /* \"#utility.yul\":4628:4643   */\n      mstore\n        /* \"#utility.yul\":4662:4666   */\n      0x24\n        /* \"#utility.yul\":4659:4660   */\n      0x00\n        /* \"#utility.yul\":4652:4667   */\n      revert\n        /* \"#utility.yul\":4679:4984   */\n    tag_39:\n        /* \"#utility.yul\":4719:4722   */\n      0x00\n        /* \"#utility.yul\":4738:4758   */\n      tag_117\n        /* \"#utility.yul\":4756:4757   */\n      dup3\n        /* \"#utility.yul\":4738:4758   */\n      tag_56\n      jump\t// in\n    tag_117:\n        /* \"#utility.yul\":4733:4758   */\n      swap2\n      pop\n        /* \"#utility.yul\":4772:4792   */\n      tag_118\n        /* \"#utility.yul\":4790:4791   */\n      dup4\n        /* \"#utility.yul\":4772:4792   */\n      tag_56\n      jump\t// in\n    tag_118:\n        /* \"#utility.yul\":4767:4792   */\n      swap3\n      pop\n        /* \"#utility.yul\":4926:4927   */\n      dup3\n        /* \"#utility.yul\":4858:4924   */\n      0xffffffffffffffffffffffffffffffffffffffffffffffffffffffffffffffff\n        /* \"#utility.yul\":4854:4928   */\n      sub\n        /* \"#utility.yul\":4851:4852   */\n      dup3\n        /* \"#utility.yul\":4848:4929   */\n      gt\n        /* \"#utility.yul\":4845:4952   */\n      iszero\n      tag_119\n      jumpi\n        /* \"#utility.yul\":4932:4950   */\n      tag_120\n      tag_69\n      jump\t// in\n    tag_120:\n        /* \"#utility.yul\":4845:4952   */\n    tag_119:\n        /* \"#utility.yul\":4976:4977   */\n      dup3\n        /* \"#utility.yul\":4973:4974   */\n      dup3\n        /* \"#utility.yul\":4969:4978   */\n      add\n        /* \"#utility.yul\":4962:4978   */\n      swap1\n      pop\n        /* \"#utility.yul\":4679:4984   */\n      swap3\n      swap2\n      pop\n      pop\n      jump\t// out\n        /* \"#utility.yul\":4990:5223   */\n    tag_45:\n        /* \"#utility.yul\":5029:5032   */\n      0x00\n        /* \"#utility.yul\":5052:5076   */\n      tag_122\n        /* \"#utility.yul\":5070:5075   */\n      dup3\n        /* \"#utility.yul\":5052:5076   */\n      tag_56\n      jump\t// in\n    tag_122:\n        /* \"#utility.yul\":5043:5076   */\n      swap2\n      pop\n        /* \"#utility.yul\":5098:5164   */\n      0xffffffffffffffffffffffffffffffffffffffffffffffffffffffffffffffff\n        /* \"#utility.yul\":5091:5096   */\n      dup3\n        /* \"#utility.yul\":5088:5165   */\n      sub\n        /* \"#utility.yul\":5085:5188   */\n      tag_123\n      jumpi\n        /* \"#utility.yul\":5168:5186   */\n      tag_124\n      tag_69\n      jump\t// in\n    tag_124:\n        /* \"#utility.yul\":5085:5188   */\n    tag_123:\n        /* \"#utility.yul\":5215:5216   */\n      0x01\n        /* \"#utility.yul\":5208:5213   */\n      dup3\n        /* \"#utility.yul\":5204:5217   */\n      add\n        /* \"#utility.yul\":5197:5217   */\n      swap1\n      pop\n        /* \"#utility.yul\":4990:5223   */\n      swap2\n      swap1\n      pop\n      jump\t// out\n        /* \"#utility.yul\":5229:5577   */\n    tag_52:\n        /* \"#utility.yul\":5269:5276   */\n      0x00\n        /* \"#utility.yul\":5292:5312   */\n      tag_126\n        /* \"#utility.yul\":5310:5311   */\n      dup3\n        /* \"#utility.yul\":5292:5312   */\n      tag_56\n      jump\t// in\n    tag_126:\n        /* \"#utility.yul\":5287:5312   */\n      swap2\n      pop\n        /* \"#utility.yul\":5326:5346   */\n      tag_127\n        /* \"#utility.yul\":5344:5345   */\n      dup4\n        /* \"#utility.yul\":5326:5346   */\n      tag_56\n      jump\t// in\n    tag_127:\n        /* \"#utility.yul\":5321:5346   */\n      swap3\n      pop\n        /* \"#utility.yul\":5514:5515   */\n      dup2\n        /* \"#utility.yul\":5446:5512   */\n      0xffffffffffffffffffffffffffffffffffffffffffffffffffffffffffffffff\n        /* \"#utility.yul\":5442:5516   */\n      div\n        /* \"#utility.yul\":5439:5440   */\n      dup4\n        /* \"#utility.yul\":5436:5517   */\n      gt\n        /* \"#utility.yul\":5431:5432   */\n      dup3\n        /* \"#utility.yul\":5424:5433   */\n      iszero\n        /* \"#utility.yul\":5417:5434   */\n      iszero\n        /* \"#utility.yul\":5413:5518   */\n      and\n        /* \"#utility.yul\":5410:5541   */\n      iszero\n      tag_128\n      jumpi\n        /* \"#utility.yul\":5521:5539   */\n      tag_129\n      tag_69\n      jump\t// in\n    tag_129:\n        /* \"#utility.yul\":5410:5541   */\n    tag_128:\n        /* \"#utility.yul\":5569:5570   */\n      dup3\n        /* \"#utility.yul\":5566:5567   */\n      dup3\n        /* \"#utility.yul\":5562:5571   */\n      mul\n        /* \"#utility.yul\":5551:5571   */\n      swap1\n      pop\n        /* \"#utility.yul\":5229:5577   */\n      swap3\n      swap2\n      pop\n      pop\n      jump\t// out\n\n    auxdata: 0xa26469706673582212208da43247e2a1324a172d340263be243e3654f68fb1cd893c494fed072047656f64736f6c634300080f0033\n}\n",
				"bytecode": {
					"linkReferences": {},
					"object": "608060405234801561001057600080fd5b506105ea806100206000396000f3fe608060405234801561001057600080fd5b50600436106100625760003560e01c8063053f6c2c1461006757806306661abd146100835780634f2be91f146100a15780635c975abb146100ab57806384a303d6146100c9578063915518cb146100e5575b600080fd5b610081600480360381019061007c91906102be565b6100ef565b005b61008b61019e565b60405161009891906102fa565b60405180910390f35b6100a96101a4565b005b6100b361020c565b6040516100c09190610330565b60405180910390f35b6100e360048036038101906100de9190610377565b61021d565b005b6100ed610239565b005b60008054906101000a900460ff161561013d576040517f08c379a000000000000000000000000000000000000000000000000000000000815260040161013490610401565b60405180910390fd5b8060648110610181576040517f08c379a00000000000000000000000000000000000000000000000000000000081526004016101789061046d565b60405180910390fd5b816001600082825461019391906104bc565b925050819055505050565b60015481565b60008054906101000a900460ff16156101f2576040517f08c379a00000000000000000000000000000000000000000000000000000000081526004016101e990610401565b60405180910390fd5b6001600081548092919061020590610512565b9190505550565b60008054906101000a900460ff1681565b806000806101000a81548160ff02191690831515021790555050565b600a6001600082825461024c91906104bc565b92505081905550600180600082825461026591906104bc565b92505081905550600260015461027b919061055a565b600181905550565b600080fd5b6000819050919050565b61029b81610288565b81146102a657600080fd5b50565b6000813590506102b881610292565b92915050565b6000602082840312156102d4576102d3610283565b5b60006102e2848285016102a9565b91505092915050565b6102f481610288565b82525050565b600060208201905061030f60008301846102eb565b92915050565b60008115159050919050565b61032a81610315565b82525050565b60006020820190506103456000830184610321565b92915050565b61035481610315565b811461035f57600080fd5b50565b6000813590506103718161034b565b92915050565b60006020828403121561038d5761038c610283565b5b600061039b84828501610362565b91505092915050565b600082825260208201905092915050565b7f616c726561647920706175736564000000000000000000000000000000000000600082015250565b60006103eb600e836103a4565b91506103f6826103b5565b602082019050919050565b6000602082019050818103600083015261041a816103de565b9050919050565b7f783e313030000000000000000000000000000000000000000000000000000000600082015250565b60006104576005836103a4565b915061046282610421565b602082019050919050565b600060208201905081810360008301526104868161044a565b9050919050565b7f4e487b7100000000000000000000000000000000000000000000000000000000600052601160045260246000fd5b60006104c782610288565b91506104d283610288565b9250827fffffffffffffffffffffffffffffffffffffffffffffffffffffffffffffffff038211156105075761050661048d565b5b828201905092915050565b600061051d82610288565b91507fffffffffffffffffffffffffffffffffffffffffffffffffffffffffffffffff820361054f5761054e61048d565b5b600182019050919050565b600061056582610288565b915061057083610288565b9250817fffffffffffffffffffffffffffffffffffffffffffffffffffffffffffffffff04831182151516156105a9576105a861048d565b5b82820290509291505056fea26469706673582212208da43247e2a1324a172d340263be243e3654f68fb1cd893c494fed072047656f64736f6c634300080f0033",
					"opcodes": "PUSH1 0x80 PUSH1 0x40 MSTORE CALLVALUE DUP1 ISZERO PUSH2 0x10 JUMPI PUSH1 0x0 DUP1 REVERT JUMPDEST POP PUSH2 0x5EA DUP1 PUSH2 0x20 PUSH1 0x0 CODECOPY PUSH1 0x0 RETURN INVALID PUSH1 0x80 PUSH1 0x40 MSTORE CALLVALUE DUP1 ISZERO PUSH2 0x10 JUMPI PUSH1 0x0 DUP1 REVERT JUMPDEST POP PUSH1 0x4 CALLDATASIZE LT PUSH2 0x62 JUMPI PUSH1 0x0 CALLDATALOAD PUSH1 0xE0 SHR DUP1 PUSH4 0x53F6C2C EQ PUSH2 0x67 JUMPI DUP1 PUSH4 0x6661ABD EQ PUSH2 0x83 JUMPI DUP1 PUSH4 0x4F2BE91F EQ PUSH2 0xA1 JUMPI DUP1 PUSH4 0x5C975ABB EQ PUSH2 0xAB JUMPI DUP1 PUSH4 0x84A303D6 EQ PUSH2 0xC9 JUMPI DUP1 PUSH4 0x915518CB EQ PUSH2 0xE5 JUMPI JUMPDEST PUSH1 0x0 DUP1 REVERT JUMPDEST PUSH2 0x81 PUSH1 0x4 DUP1 CALLDATASIZE SUB DUP2 ADD SWAP1 PUSH2 0x7C SWAP2 SWAP1 PUSH2 0x2BE JUMP JUMPDEST PUSH2 0xEF JUMP JUMPDEST STOP JUMPDEST PUSH2 0x8B PUSH2 0x19E JUMP JUMPDEST PUSH1 0x40 MLOAD PUSH2 0x98 SWAP2 SWAP1 PUSH2 0x2FA JUMP JUMPDEST PUSH1 0x40 MLOAD DUP1 SWAP2 SUB SWAP1 RETURN JUMPDEST PUSH2 0xA9 PUSH2 0x1A4 JUMP JUMPDEST STOP JUMPDEST PUSH2 0xB3 PUSH2 0x20C JUMP JUMPDEST PUSH1 0x40 MLOAD PUSH2 0xC0 SWAP2 SWAP1 PUSH2 0x330 JUMP JUMPDEST PUSH1 0x40 MLOAD DUP1 SWAP2 SUB SWAP1 RETURN JUMPDEST PUSH2 0xE3 PUSH1 0x4 DUP1 CALLDATASIZE SUB DUP2 ADD SWAP1 PUSH2 0xDE SWAP2 SWAP1 PUSH2 0x377 JUMP JUMPDEST PUSH2 0x21D JUMP JUMPDEST STOP JUMPDEST PUSH2 0xED PUSH2 0x239 JUMP JUMPDEST STOP JUMPDEST PUSH1 0x0 DUP1 SLOAD SWAP1 PUSH2 0x100 EXP SWAP1 DIV PUSH1 0xFF AND ISZERO PUSH2 0x13D JUMPI PUSH1 0x40 MLOAD PUSH32 0x8C379A000000000000000000000000000000000000000000000000000000000 DUP2 MSTORE PUSH1 0x4 ADD PUSH2 0x134 SWAP1 PUSH2 0x401 JUMP JUMPDEST PUSH1 0x40 MLOAD DUP1 SWAP2 SUB SWAP1 REVERT JUMPDEST DUP1 PUSH1 0x64 DUP2 LT PUSH2 0x181 JUMPI PUSH1 0x40 MLOAD PUSH32 0x8C379A000000000000000000000000000000000000000000000000000000000 DUP2 MSTORE PUSH1 0x4 ADD PUSH2 0x178 SWAP1 PUSH2 0x46D JUMP JUMPDEST PUSH1 0x40 MLOAD DUP1 SWAP2 SUB SWAP1 REVERT JUMPDEST DUP2 PUSH1 0x1 PUSH1 0x0 DUP3 DUP3 SLOAD PUSH2 0x193 SWAP2 SWAP1 PUSH2 0x4BC JUMP JUMPDEST SWAP3 POP POP DUP2 SWAP1 SSTORE POP POP POP JUMP JUMPDEST PUSH1 0x1 SLOAD DUP2 JUMP JUMPDEST PUSH1 0x0 DUP1 SLOAD SWAP1 PUSH2 0x100 EXP SWAP1 DIV PUSH1 0xFF AND ISZERO PUSH2 0x1F2 JUMPI PUSH1 0x40 MLOAD PUSH32 0x8C379A000000000000000000000000000000000000000000000000000000000 DUP2 MSTORE PUSH1 0x4 ADD PUSH2 0x1E9 SWAP1 PUSH2 0x401 JUMP JUMPDEST PUSH1 0x40 MLOAD DUP1 SWAP2 SUB SWAP1 REVERT JUMPDEST PUSH1 0x1 PUSH1 0x0 DUP2 SLOAD DUP1 SWAP3 SWAP2 SWAP1 PUSH2 0x205 SWAP1 PUSH2 0x512 JUMP JUMPDEST SWAP2 SWAP1 POP SSTORE POP JUMP JUMPDEST PUSH1 0x0 DUP1 SLOAD SWAP1 PUSH2 0x100 EXP SWAP1 DIV PUSH1 0xFF AND DUP2 JUMP JUMPDEST DUP1 PUSH1 0x0 DUP1 PUSH2 0x100 EXP DUP2 SLOAD DUP2 PUSH1 0xFF MUL NOT AND SWAP1 DUP4 ISZERO ISZERO MUL OR SWAP1 SSTORE POP POP JUMP JUMPDEST PUSH1 0xA PUSH1 0x1 PUSH1 0x0 DUP3 DUP3 SLOAD PUSH2 0x24C SWAP2 SWAP1 PUSH2 0x4BC JUMP JUMPDEST SWAP3 POP POP DUP2 SWAP1 SSTORE POP PUSH1 0x1 DUP1 PUSH1 0x0 DUP3 DUP3 SLOAD PUSH2 0x265 SWAP2 SWAP1 PUSH2 0x4BC JUMP JUMPDEST SWAP3 POP POP DUP2 SWAP1 SSTORE POP PUSH1 0x2 PUSH1 0x1 SLOAD PUSH2 0x27B SWAP2 SWAP1 PUSH2 0x55A JUMP JUMPDEST PUSH1 0x1 DUP2 SWAP1 SSTORE POP JUMP JUMPDEST PUSH1 0x0 DUP1 REVERT JUMPDEST PUSH1 0x0 DUP2 SWAP1 POP SWAP2 SWAP1 POP JUMP JUMPDEST PUSH2 0x29B DUP2 PUSH2 0x288 JUMP JUMPDEST DUP2 EQ PUSH2 0x2A6 JUMPI PUSH1 0x0 DUP1 REVERT JUMPDEST POP JUMP JUMPDEST PUSH1 0x0 DUP2 CALLDATALOAD SWAP1 POP PUSH2 0x2B8 DUP2 PUSH2 0x292 JUMP JUMPDEST SWAP3 SWAP2 POP POP JUMP JUMPDEST PUSH1 0x0 PUSH1 0x20 DUP3 DUP5 SUB SLT ISZERO PUSH2 0x2D4 JUMPI PUSH2 0x2D3 PUSH2 0x283 JUMP JUMPDEST JUMPDEST PUSH1 0x0 PUSH2 0x2E2 DUP5 DUP3 DUP6 ADD PUSH2 0x2A9 JUMP JUMPDEST SWAP2 POP POP SWAP3 SWAP2 POP POP JUMP JUMPDEST PUSH2 0x2F4 DUP2 PUSH2 0x288 JUMP JUMPDEST DUP3 MSTORE POP POP JUMP JUMPDEST PUSH1 0x0 PUSH1 0x20 DUP3 ADD SWAP1 POP PUSH2 0x30F PUSH1 0x0 DUP4 ADD DUP5 PUSH2 0x2EB JUMP JUMPDEST SWAP3 SWAP2 POP POP JUMP JUMPDEST PUSH1 0x0 DUP2 ISZERO ISZERO SWAP1 POP SWAP2 SWAP1 POP JUMP JUMPDEST PUSH2 0x32A DUP2 PUSH2 0x315 JUMP JUMPDEST DUP3 MSTORE POP POP JUMP JUMPDEST PUSH1 0x0 PUSH1 0x20 DUP3 ADD SWAP1 POP PUSH2 0x345 PUSH1 0x0 DUP4 ADD DUP5 PUSH2 0x321 JUMP JUMPDEST SWAP3 SWAP2 POP POP JUMP JUMPDEST PUSH2 0x354 DUP2 PUSH2 0x315 JUMP JUMPDEST DUP2 EQ PUSH2 0x35F JUMPI PUSH1 0x0 DUP1 REVERT JUMPDEST POP JUMP JUMPDEST PUSH1 0x0 DUP2 CALLDATALOAD SWAP1 POP PUSH2 0x371 DUP2 PUSH2 0x34B JUMP JUMPDEST SWAP3 SWAP2 POP POP JUMP JUMPDEST PUSH1 0x0 PUSH1 0x20 DUP3 DUP5 SUB SLT ISZERO PUSH2 0x38D JUMPI PUSH2 0x38C PUSH2 0x283 JUMP JUMPDEST JUMPDEST PUSH1 0x0 PUSH2 0x39B DUP5 DUP3 DUP6 ADD PUSH2 0x362 JUMP JUMPDEST SWAP2 POP POP SWAP3 SWAP2 POP POP JUMP JUMPDEST PUSH1 0x0 DUP3 DUP3 MSTORE PUSH1 0x20 DUP3 ADD SWAP1 POP SWAP3 SWAP2 POP POP JUMP JUMPDEST PUSH32 0x616C726561647920706175736564000000000000000000000000000000000000 PUSH1 0x0 DUP3 ADD MSTORE POP JUMP JUMPDEST PUSH1 0x0 PUSH2 0x3EB PUSH1 0xE DUP4 PUSH2 0x3A4 JUMP JUMPDEST SWAP2 POP PUSH2 0x3F6 DUP3 PUSH2 0x3B5 JUMP JUMPDEST PUSH1 0x20 DUP3 ADD SWAP1 POP SWAP2 SWAP1 POP JUMP JUMPDEST PUSH1 0x0 PUSH1 0x20 DUP3 ADD SWAP1 POP DUP2 DUP2 SUB PUSH1 0x0 DUP4 ADD MSTORE PUSH2 0x41A DUP2 PUSH2 0x3DE JUMP JUMPDEST SWAP1 POP SWAP2 SWAP1 POP JUMP JUMPDEST PUSH32 0x783E313030000000000000000000000000000000000000000000000000000000 PUSH1 0x0 DUP3 ADD MSTORE POP JUMP JUMPDEST PUSH1 0x0 PUSH2 0x457 PUSH1 0x5 DUP4 PUSH2 0x3A4 JUMP JUMPDEST SWAP2 POP PUSH2 0x462 DUP3 PUSH2 0x421 JUMP JUMPDEST PUSH1 0x20 DUP3 ADD SWAP1 POP SWAP2 SWAP1 POP JUMP JUMPDEST PUSH1 0x0 PUSH1 0x20 DUP3 ADD SWAP1 POP DUP2 DUP2 SUB PUSH1 0x0 DUP4 ADD MSTORE PUSH2 0x486 DUP2 PUSH2 0x44A JUMP JUMPDEST SWAP1 POP SWAP2 SWAP1 POP JUMP JUMPDEST PUSH32 0x4E487B7100000000000000000000000000000000000000000000000000000000 PUSH1 0x0 MSTORE PUSH1 0x11 PUSH1 0x4 MSTORE PUSH1 0x24 PUSH1 0x0 REVERT JUMPDEST PUSH1 0x0 PUSH2 0x4C7 DUP3 PUSH2 0x288 JUMP JUMPDEST SWAP2 POP PUSH2 0x4D2 DUP4 PUSH2 0x288 JUMP JUMPDEST SWAP3 POP DUP3 PUSH32 0xFFFFFFFFFFFFFFFFFFFFFFFFFFFFFFFFFFFFFFFFFFFFFFFFFFFFFFFFFFFFFFFF SUB DUP3 GT ISZERO PUSH2 0x507 JUMPI PUSH2 0x506 PUSH2 0x48D JUMP JUMPDEST JUMPDEST DUP3 DUP3 ADD SWAP1 POP SWAP3 SWAP2 POP POP JUMP JUMPDEST PUSH1 0x0 PUSH2 0x51D DUP3 PUSH2 0x288 JUMP JUMPDEST SWAP2 POP PUSH32 0xFFFFFFFFFFFFFFFFFFFFFFFFFFFFFFFFFFFFFFFFFFFFFFFFFFFFFFFFFFFFFFFF DUP3 SUB PUSH2 0x54F JUMPI PUSH2 0x54E PUSH2 0x48D JUMP JUMPDEST JUMPDEST PUSH1 0x1 DUP3 ADD SWAP1 POP SWAP2 SWAP1 POP JUMP JUMPDEST PUSH1 0x0 PUSH2 0x565 DUP3 PUSH2 0x288 JUMP JUMPDEST SWAP2 POP PUSH2 0x570 DUP4 PUSH2 0x288 JUMP JUMPDEST SWAP3 POP DUP2 PUSH32 0xFFFFFFFFFFFFFFFFFFFFFFFFFFFFFFFFFFFFFFFFFFFFFFFFFFFFFFFFFFFFFFFF DIV DUP4 GT DUP3 ISZERO ISZERO AND ISZERO PUSH2 0x5A9 JUMPI PUSH2 0x5A8 PUSH2 0x48D JUMP JUMPDEST JUMPDEST DUP3 DUP3 MUL SWAP1 POP SWAP3 SWAP2 POP POP JUMP INVALID LOG2 PUSH5 0x6970667358 0x22 SLT KECCAK256 DUP14 LOG4 ORIGIN SELFBALANCE 0xE2 LOG1 ORIGIN 0x4A OR 0x2D CALLVALUE MUL PUSH4 0xBE243E36 SLOAD 0xF6 DUP16 0xB1 0xCD DUP10 EXTCODECOPY 0x49 0x4F 0xED SMOD KECCAK256 SELFBALANCE PUSH6 0x6F64736F6C63 NUMBER STOP ADDMOD 0xF STOP CALLER "
				},
				"gasEstimates": {
					"creation": {
						"codeDepositCost": "302800",
						"executionCost": "343",
						"totalCost": "303143"
					},
					"external": {
						"add()": "26676",
						"addBy(uint256)": "infinite",
						"count()": "2429",
						"paused()": "2512",
						"sandwitchTest()": "infinite",
						"setP(bool)": "24745"
					}
				},
				"methodIdentifiers": {
					"add()": "4f2be91f",
					"addBy(uint256)": "053f6c2c",
					"count()": "06661abd",
					"paused()": "5c975abb",
					"sandwitchTest()": "915518cb",
					"setP(bool)": "84a303d6"
				}
			},
			"storageLayout": {
				"storage": [
					{
						"astId": 3,
						"contract": "study/chapter05/9modifier.sol:Modifier",
						"label": "paused",
						"offset": 0,
						"slot": "0",
						"type": "t_bool"
					},
					{
						"astId": 5,
						"contract": "study/chapter05/9modifier.sol:Modifier",
						"label": "count",
						"offset": 0,
						"slot": "1",
						"type": "t_uint256"
					}
				],
				"types": {
					"t_bool": {
						"encoding": "inplace",
						"label": "bool",
						"numberOfBytes": "1"
					},
					"t_uint256": {
						"encoding": "inplace",
						"label": "uint256",
						"numberOfBytes": "32"
					}
				}
			},
			"userdoc": {
				"kind": "user",
				"methods": {},
				"version": 1
			}
		}
	}
}