{
	"study/chapter05/back.sol": {
		"SendEth": {
			"abi": [
				{
					"inputs": [],
					"stateMutability": "payable",
					"type": "constructor"
				},
				{
					"inputs": [],
					"name": "getBalance",
					"outputs": [
						{
							"internalType": "uint256",
							"name": "",
							"type": "uint256"
						}
					],
					"stateMutability": "view",
					"type": "function"
				},
				{
					"inputs": [
						{
							"internalType": "address payable",
							"name": "_to",
							"type": "address"
						}
					],
					"name": "sendViaCall",
					"outputs": [],
					"stateMutability": "payable",
					"type": "function"
				},
				{
					"inputs": [
						{
							"internalType": "address payable",
							"name": "_to",
							"type": "address"
						}
					],
					"name": "sendViaSend",
					"outputs": [],
					"stateMutability": "payable",
					"type": "function"
				},
				{
					"inputs": [
						{
							"internalType": "address payable",
							"name": "_to",
							"type": "address"
						}
					],
					"name": "sendViaTransfer",
					"outputs": [],
					"stateMutability": "payable",
					"type": "function"
				},
				{
					"stateMutability": "payable",
					"type": "receive"
				}
			],
			"devdoc": {
				"kind": "dev",
				"methods": {},
				"version": 1
			},
			"evm": {
				"assembly": "    /* \"study/chapter05/back.sol\":529:1203  contract SendEth{... */\n  mstore(0x40, 0x80)\n  dataSize(sub_0)\n  dup1\n  dataOffset(sub_0)\n  0x00\n  codecopy\n  0x00\n  return\nstop\n\nsub_0: assembly {\n        /* \"study/chapter05/back.sol\":529:1203  contract SendEth{... */\n      mstore(0x40, 0x80)\n      jumpi(tag_1, lt(calldatasize, 0x04))\n      shr(0xe0, calldataload(0x00))\n      dup1\n      0x12065fe0\n      eq\n      tag_3\n      jumpi\n      dup1\n      0x636e082b\n      eq\n      tag_4\n      jumpi\n      dup1\n      0x74be4806\n      eq\n      tag_5\n      jumpi\n      dup1\n      0x830c29ae\n      eq\n      tag_6\n      jumpi\n      jump(tag_2)\n    tag_1:\n      jumpi(tag_2, calldatasize)\n      stop\n    tag_2:\n      0x00\n      dup1\n      revert\n        /* \"study/chapter05/back.sol\":1108:1201  function getBalance()external view returns(uint){... */\n    tag_3:\n      callvalue\n      dup1\n      iszero\n      tag_9\n      jumpi\n      0x00\n      dup1\n      revert\n    tag_9:\n      pop\n      tag_10\n      tag_11\n      jump\t// in\n    tag_10:\n      mload(0x40)\n      tag_12\n      swap2\n      swap1\n      tag_13\n      jump\t// in\n    tag_12:\n      mload(0x40)\n      dup1\n      swap2\n      sub\n      swap1\n      return\n        /* \"study/chapter05/back.sol\":618:734  function sendViaTransfer(address payable _to)external payable {... */\n    tag_4:\n      tag_14\n      0x04\n      dup1\n      calldatasize\n      sub\n      dup2\n      add\n      swap1\n      tag_15\n      swap2\n      swap1\n      tag_16\n      jump\t// in\n    tag_15:\n      tag_17\n      jump\t// in\n    tag_14:\n      stop\n        /* \"study/chapter05/back.sol\":739:880  function sendViaSend(address payable _to)external payable {... */\n    tag_5:\n      tag_18\n      0x04\n      dup1\n      calldatasize\n      sub\n      dup2\n      add\n      swap1\n      tag_19\n      swap2\n      swap1\n      tag_16\n      jump\t// in\n    tag_19:\n      tag_20\n      jump\t// in\n    tag_18:\n      stop\n        /* \"study/chapter05/back.sol\":885:1103  function sendViaCall(address payable _to)external payable {... */\n    tag_6:\n      tag_21\n      0x04\n      dup1\n      calldatasize\n      sub\n      dup2\n      add\n      swap1\n      tag_22\n      swap2\n      swap1\n      tag_16\n      jump\t// in\n    tag_22:\n      tag_23\n      jump\t// in\n    tag_21:\n      stop\n        /* \"study/chapter05/back.sol\":1108:1201  function getBalance()external view returns(uint){... */\n    tag_11:\n        /* \"study/chapter05/back.sol\":1151:1155  uint */\n      0x00\n        /* \"study/chapter05/back.sol\":1173:1194  address(this).balance */\n      selfbalance\n        /* \"study/chapter05/back.sol\":1166:1194  return address(this).balance */\n      swap1\n      pop\n        /* \"study/chapter05/back.sol\":1108:1201  function getBalance()external view returns(uint){... */\n      swap1\n      jump\t// out\n        /* \"study/chapter05/back.sol\":618:734  function sendViaTransfer(address payable _to)external payable {... */\n    tag_17:\n        /* \"study/chapter05/back.sol\":690:693  _to */\n      dup1\n        /* \"study/chapter05/back.sol\":690:702  _to.transfer */\n      0xffffffffffffffffffffffffffffffffffffffff\n      and\n        /* \"study/chapter05/back.sol\":690:707  _to.transfer(123) */\n      0x08fc\n        /* \"study/chapter05/back.sol\":703:706  123 */\n      0x7b\n        /* \"study/chapter05/back.sol\":690:707  _to.transfer(123) */\n      swap1\n      dup2\n      iszero\n      mul\n      swap1\n      mload(0x40)\n      0x00\n      mload(0x40)\n      dup1\n      dup4\n      sub\n      dup2\n      dup6\n      dup9\n      dup9\n      call\n      swap4\n      pop\n      pop\n      pop\n      pop\n      iszero\n      dup1\n      iszero\n      tag_27\n      jumpi\n      returndatasize\n      0x00\n      dup1\n      returndatacopy\n      revert(0x00, returndatasize)\n    tag_27:\n      pop\n        /* \"study/chapter05/back.sol\":618:734  function sendViaTransfer(address payable _to)external payable {... */\n      pop\n      jump\t// out\n        /* \"study/chapter05/back.sol\":739:880  function sendViaSend(address payable _to)external payable {... */\n    tag_20:\n        /* \"study/chapter05/back.sol\":807:819  bool success */\n      0x00\n        /* \"study/chapter05/back.sol\":822:825  _to */\n      dup2\n        /* \"study/chapter05/back.sol\":822:830  _to.send */\n      0xffffffffffffffffffffffffffffffffffffffff\n      and\n        /* \"study/chapter05/back.sol\":822:835  _to.send(123) */\n      0x08fc\n        /* \"study/chapter05/back.sol\":831:834  123 */\n      0x7b\n        /* \"study/chapter05/back.sol\":822:835  _to.send(123) */\n      swap1\n      dup2\n      iszero\n      mul\n      swap1\n      mload(0x40)\n      0x00\n      mload(0x40)\n      dup1\n      dup4\n      sub\n      dup2\n      dup6\n      dup9\n      dup9\n      call\n      swap4\n      pop\n      pop\n      pop\n      pop\n        /* \"study/chapter05/back.sol\":807:835  bool success = _to.send(123) */\n      swap1\n      pop\n        /* \"study/chapter05/back.sol\":853:860  success */\n      dup1\n        /* \"study/chapter05/back.sol\":845:873  require(success,\"send fail\") */\n      tag_30\n      jumpi\n      mload(0x40)\n      0x08c379a000000000000000000000000000000000000000000000000000000000\n      dup2\n      mstore\n      0x04\n      add\n      tag_31\n      swap1\n      tag_32\n      jump\t// in\n    tag_31:\n      mload(0x40)\n      dup1\n      swap2\n      sub\n      swap1\n      revert\n    tag_30:\n        /* \"study/chapter05/back.sol\":797:880  {... */\n      pop\n        /* \"study/chapter05/back.sol\":739:880  function sendViaSend(address payable _to)external payable {... */\n      pop\n      jump\t// out\n        /* \"study/chapter05/back.sol\":885:1103  function sendViaCall(address payable _to)external payable {... */\n    tag_23:\n        /* \"study/chapter05/back.sol\":953:965  bool success */\n      0x00\n        /* \"study/chapter05/back.sol\":969:972  _to */\n      dup2\n        /* \"study/chapter05/back.sol\":969:977  _to.call */\n      0xffffffffffffffffffffffffffffffffffffffff\n      and\n        /* \"study/chapter05/back.sol\":984:987  123 */\n      0x7b\n        /* \"study/chapter05/back.sol\":969:992  _to.call{value:123}(\"\") */\n      mload(0x40)\n      tag_34\n      swap1\n      tag_35\n      jump\t// in\n    tag_34:\n      0x00\n      mload(0x40)\n      dup1\n      dup4\n      sub\n      dup2\n      dup6\n      dup8\n      gas\n      call\n      swap3\n      pop\n      pop\n      pop\n      returndatasize\n      dup1\n      0x00\n      dup2\n      eq\n      tag_38\n      jumpi\n      mload(0x40)\n      swap2\n      pop\n      and(add(returndatasize, 0x3f), not(0x1f))\n      dup3\n      add\n      0x40\n      mstore\n      returndatasize\n      dup3\n      mstore\n      returndatasize\n      0x00\n      0x20\n      dup5\n      add\n      returndatacopy\n      jump(tag_37)\n    tag_38:\n      0x60\n      swap2\n      pop\n    tag_37:\n      pop\n        /* \"study/chapter05/back.sol\":952:992  (bool success,)= _to.call{value:123}(\"\") */\n      pop\n      swap1\n      pop\n        /* \"study/chapter05/back.sol\":1076:1083  success */\n      dup1\n        /* \"study/chapter05/back.sol\":1068:1096  require(success,\"call fail\") */\n      tag_39\n      jumpi\n      mload(0x40)\n      0x08c379a000000000000000000000000000000000000000000000000000000000\n      dup2\n      mstore\n      0x04\n      add\n      tag_40\n      swap1\n      tag_41\n      jump\t// in\n    tag_40:\n      mload(0x40)\n      dup1\n      swap2\n      sub\n      swap1\n      revert\n    tag_39:\n        /* \"study/chapter05/back.sol\":943:1103  {... */\n      pop\n        /* \"study/chapter05/back.sol\":885:1103  function sendViaCall(address payable _to)external payable {... */\n      pop\n      jump\t// out\n        /* \"#utility.yul\":7:162   */\n    tag_43:\n        /* \"#utility.yul\":61:66   */\n      0x00\n        /* \"#utility.yul\":99:105   */\n      dup2\n        /* \"#utility.yul\":86:106   */\n      calldataload\n        /* \"#utility.yul\":77:106   */\n      swap1\n      pop\n        /* \"#utility.yul\":115:156   */\n      tag_45\n        /* \"#utility.yul\":150:155   */\n      dup2\n        /* \"#utility.yul\":115:156   */\n      tag_46\n      jump\t// in\n    tag_45:\n        /* \"#utility.yul\":7:162   */\n      swap3\n      swap2\n      pop\n      pop\n      jump\t// out\n        /* \"#utility.yul\":168:513   */\n    tag_16:\n        /* \"#utility.yul\":235:241   */\n      0x00\n        /* \"#utility.yul\":284:286   */\n      0x20\n        /* \"#utility.yul\":272:281   */\n      dup3\n        /* \"#utility.yul\":263:270   */\n      dup5\n        /* \"#utility.yul\":259:282   */\n      sub\n        /* \"#utility.yul\":255:287   */\n      slt\n        /* \"#utility.yul\":252:371   */\n      iszero\n      tag_48\n      jumpi\n        /* \"#utility.yul\":290:369   */\n      tag_49\n      tag_50\n      jump\t// in\n    tag_49:\n        /* \"#utility.yul\":252:371   */\n    tag_48:\n        /* \"#utility.yul\":410:411   */\n      0x00\n        /* \"#utility.yul\":435:496   */\n      tag_51\n        /* \"#utility.yul\":488:495   */\n      dup5\n        /* \"#utility.yul\":479:485   */\n      dup3\n        /* \"#utility.yul\":468:477   */\n      dup6\n        /* \"#utility.yul\":464:486   */\n      add\n        /* \"#utility.yul\":435:496   */\n      tag_43\n      jump\t// in\n    tag_51:\n        /* \"#utility.yul\":425:496   */\n      swap2\n      pop\n        /* \"#utility.yul\":381:506   */\n      pop\n        /* \"#utility.yul\":168:513   */\n      swap3\n      swap2\n      pop\n      pop\n      jump\t// out\n        /* \"#utility.yul\":519:884   */\n    tag_52:\n        /* \"#utility.yul\":661:664   */\n      0x00\n        /* \"#utility.yul\":682:748   */\n      tag_54\n        /* \"#utility.yul\":746:747   */\n      0x09\n        /* \"#utility.yul\":741:744   */\n      dup4\n        /* \"#utility.yul\":682:748   */\n      tag_55\n      jump\t// in\n    tag_54:\n        /* \"#utility.yul\":675:748   */\n      swap2\n      pop\n        /* \"#utility.yul\":757:850   */\n      tag_56\n        /* \"#utility.yul\":846:849   */\n      dup3\n        /* \"#utility.yul\":757:850   */\n      tag_57\n      jump\t// in\n    tag_56:\n        /* \"#utility.yul\":875:877   */\n      0x20\n        /* \"#utility.yul\":870:873   */\n      dup3\n        /* \"#utility.yul\":866:878   */\n      add\n        /* \"#utility.yul\":859:878   */\n      swap1\n      pop\n        /* \"#utility.yul\":519:884   */\n      swap2\n      swap1\n      pop\n      jump\t// out\n        /* \"#utility.yul\":890:1288   */\n    tag_58:\n        /* \"#utility.yul\":1049:1052   */\n      0x00\n        /* \"#utility.yul\":1070:1153   */\n      tag_60\n        /* \"#utility.yul\":1151:1152   */\n      0x00\n        /* \"#utility.yul\":1146:1149   */\n      dup4\n        /* \"#utility.yul\":1070:1153   */\n      tag_61\n      jump\t// in\n    tag_60:\n        /* \"#utility.yul\":1063:1153   */\n      swap2\n      pop\n        /* \"#utility.yul\":1162:1255   */\n      tag_62\n        /* \"#utility.yul\":1251:1254   */\n      dup3\n        /* \"#utility.yul\":1162:1255   */\n      tag_63\n      jump\t// in\n    tag_62:\n        /* \"#utility.yul\":1280:1281   */\n      0x00\n        /* \"#utility.yul\":1275:1278   */\n      dup3\n        /* \"#utility.yul\":1271:1282   */\n      add\n        /* \"#utility.yul\":1264:1282   */\n      swap1\n      pop\n        /* \"#utility.yul\":890:1288   */\n      swap2\n      swap1\n      pop\n      jump\t// out\n        /* \"#utility.yul\":1294:1659   */\n    tag_64:\n        /* \"#utility.yul\":1436:1439   */\n      0x00\n        /* \"#utility.yul\":1457:1523   */\n      tag_66\n        /* \"#utility.yul\":1521:1522   */\n      0x09\n        /* \"#utility.yul\":1516:1519   */\n      dup4\n        /* \"#utility.yul\":1457:1523   */\n      tag_55\n      jump\t// in\n    tag_66:\n        /* \"#utility.yul\":1450:1523   */\n      swap2\n      pop\n        /* \"#utility.yul\":1532:1625   */\n      tag_67\n        /* \"#utility.yul\":1621:1624   */\n      dup3\n        /* \"#utility.yul\":1532:1625   */\n      tag_68\n      jump\t// in\n    tag_67:\n        /* \"#utility.yul\":1650:1652   */\n      0x20\n        /* \"#utility.yul\":1645:1648   */\n      dup3\n        /* \"#utility.yul\":1641:1653   */\n      add\n        /* \"#utility.yul\":1634:1653   */\n      swap1\n      pop\n        /* \"#utility.yul\":1294:1659   */\n      swap2\n      swap1\n      pop\n      jump\t// out\n        /* \"#utility.yul\":1665:1783   */\n    tag_69:\n        /* \"#utility.yul\":1752:1776   */\n      tag_71\n        /* \"#utility.yul\":1770:1775   */\n      dup2\n        /* \"#utility.yul\":1752:1776   */\n      tag_72\n      jump\t// in\n    tag_71:\n        /* \"#utility.yul\":1747:1750   */\n      dup3\n        /* \"#utility.yul\":1740:1777   */\n      mstore\n        /* \"#utility.yul\":1665:1783   */\n      pop\n      pop\n      jump\t// out\n        /* \"#utility.yul\":1789:2168   */\n    tag_35:\n        /* \"#utility.yul\":1973:1976   */\n      0x00\n        /* \"#utility.yul\":1995:2142   */\n      tag_74\n        /* \"#utility.yul\":2138:2141   */\n      dup3\n        /* \"#utility.yul\":1995:2142   */\n      tag_58\n      jump\t// in\n    tag_74:\n        /* \"#utility.yul\":1988:2142   */\n      swap2\n      pop\n        /* \"#utility.yul\":2159:2162   */\n      dup2\n        /* \"#utility.yul\":2152:2162   */\n      swap1\n      pop\n        /* \"#utility.yul\":1789:2168   */\n      swap2\n      swap1\n      pop\n      jump\t// out\n        /* \"#utility.yul\":2174:2593   */\n    tag_32:\n        /* \"#utility.yul\":2340:2344   */\n      0x00\n        /* \"#utility.yul\":2378:2380   */\n      0x20\n        /* \"#utility.yul\":2367:2376   */\n      dup3\n        /* \"#utility.yul\":2363:2381   */\n      add\n        /* \"#utility.yul\":2355:2381   */\n      swap1\n      pop\n        /* \"#utility.yul\":2427:2436   */\n      dup2\n        /* \"#utility.yul\":2421:2425   */\n      dup2\n        /* \"#utility.yul\":2417:2437   */\n      sub\n        /* \"#utility.yul\":2413:2414   */\n      0x00\n        /* \"#utility.yul\":2402:2411   */\n      dup4\n        /* \"#utility.yul\":2398:2415   */\n      add\n        /* \"#utility.yul\":2391:2438   */\n      mstore\n        /* \"#utility.yul\":2455:2586   */\n      tag_76\n        /* \"#utility.yul\":2581:2585   */\n      dup2\n        /* \"#utility.yul\":2455:2586   */\n      tag_52\n      jump\t// in\n    tag_76:\n        /* \"#utility.yul\":2447:2586   */\n      swap1\n      pop\n        /* \"#utility.yul\":2174:2593   */\n      swap2\n      swap1\n      pop\n      jump\t// out\n        /* \"#utility.yul\":2599:3018   */\n    tag_41:\n        /* \"#utility.yul\":2765:2769   */\n      0x00\n        /* \"#utility.yul\":2803:2805   */\n      0x20\n        /* \"#utility.yul\":2792:2801   */\n      dup3\n        /* \"#utility.yul\":2788:2806   */\n      add\n        /* \"#utility.yul\":2780:2806   */\n      swap1\n      pop\n        /* \"#utility.yul\":2852:2861   */\n      dup2\n        /* \"#utility.yul\":2846:2850   */\n      dup2\n        /* \"#utility.yul\":2842:2862   */\n      sub\n        /* \"#utility.yul\":2838:2839   */\n      0x00\n        /* \"#utility.yul\":2827:2836   */\n      dup4\n        /* \"#utility.yul\":2823:2840   */\n      add\n        /* \"#utility.yul\":2816:2863   */\n      mstore\n        /* \"#utility.yul\":2880:3011   */\n      tag_78\n        /* \"#utility.yul\":3006:3010   */\n      dup2\n        /* \"#utility.yul\":2880:3011   */\n      tag_64\n      jump\t// in\n    tag_78:\n        /* \"#utility.yul\":2872:3011   */\n      swap1\n      pop\n        /* \"#utility.yul\":2599:3018   */\n      swap2\n      swap1\n      pop\n      jump\t// out\n        /* \"#utility.yul\":3024:3246   */\n    tag_13:\n        /* \"#utility.yul\":3117:3121   */\n      0x00\n        /* \"#utility.yul\":3155:3157   */\n      0x20\n        /* \"#utility.yul\":3144:3153   */\n      dup3\n        /* \"#utility.yul\":3140:3158   */\n      add\n        /* \"#utility.yul\":3132:3158   */\n      swap1\n      pop\n        /* \"#utility.yul\":3168:3239   */\n      tag_80\n        /* \"#utility.yul\":3236:3237   */\n      0x00\n        /* \"#utility.yul\":3225:3234   */\n      dup4\n        /* \"#utility.yul\":3221:3238   */\n      add\n        /* \"#utility.yul\":3212:3218   */\n      dup5\n        /* \"#utility.yul\":3168:3239   */\n      tag_69\n      jump\t// in\n    tag_80:\n        /* \"#utility.yul\":3024:3246   */\n      swap3\n      swap2\n      pop\n      pop\n      jump\t// out\n        /* \"#utility.yul\":3333:3480   */\n    tag_61:\n        /* \"#utility.yul\":3434:3445   */\n      0x00\n        /* \"#utility.yul\":3471:3474   */\n      dup2\n        /* \"#utility.yul\":3456:3474   */\n      swap1\n      pop\n        /* \"#utility.yul\":3333:3480   */\n      swap3\n      swap2\n      pop\n      pop\n      jump\t// out\n        /* \"#utility.yul\":3486:3655   */\n    tag_55:\n        /* \"#utility.yul\":3570:3581   */\n      0x00\n        /* \"#utility.yul\":3604:3610   */\n      dup3\n        /* \"#utility.yul\":3599:3602   */\n      dup3\n        /* \"#utility.yul\":3592:3611   */\n      mstore\n        /* \"#utility.yul\":3644:3648   */\n      0x20\n        /* \"#utility.yul\":3639:3642   */\n      dup3\n        /* \"#utility.yul\":3635:3649   */\n      add\n        /* \"#utility.yul\":3620:3649   */\n      swap1\n      pop\n        /* \"#utility.yul\":3486:3655   */\n      swap3\n      swap2\n      pop\n      pop\n      jump\t// out\n        /* \"#utility.yul\":3661:3765   */\n    tag_85:\n        /* \"#utility.yul\":3706:3713   */\n      0x00\n        /* \"#utility.yul\":3735:3759   */\n      tag_87\n        /* \"#utility.yul\":3753:3758   */\n      dup3\n        /* \"#utility.yul\":3735:3759   */\n      tag_88\n      jump\t// in\n    tag_87:\n        /* \"#utility.yul\":3724:3759   */\n      swap1\n      pop\n        /* \"#utility.yul\":3661:3765   */\n      swap2\n      swap1\n      pop\n      jump\t// out\n        /* \"#utility.yul\":3771:3897   */\n    tag_88:\n        /* \"#utility.yul\":3808:3815   */\n      0x00\n        /* \"#utility.yul\":3848:3890   */\n      0xffffffffffffffffffffffffffffffffffffffff\n        /* \"#utility.yul\":3841:3846   */\n      dup3\n        /* \"#utility.yul\":3837:3891   */\n      and\n        /* \"#utility.yul\":3826:3891   */\n      swap1\n      pop\n        /* \"#utility.yul\":3771:3897   */\n      swap2\n      swap1\n      pop\n      jump\t// out\n        /* \"#utility.yul\":3903:3980   */\n    tag_72:\n        /* \"#utility.yul\":3940:3947   */\n      0x00\n        /* \"#utility.yul\":3969:3974   */\n      dup2\n        /* \"#utility.yul\":3958:3974   */\n      swap1\n      pop\n        /* \"#utility.yul\":3903:3980   */\n      swap2\n      swap1\n      pop\n      jump\t// out\n        /* \"#utility.yul\":4109:4226   */\n    tag_50:\n        /* \"#utility.yul\":4218:4219   */\n      0x00\n        /* \"#utility.yul\":4215:4216   */\n      dup1\n        /* \"#utility.yul\":4208:4220   */\n      revert\n        /* \"#utility.yul\":4232:4391   */\n    tag_57:\n        /* \"#utility.yul\":4372:4383   */\n      0x73656e64206661696c0000000000000000000000000000000000000000000000\n        /* \"#utility.yul\":4368:4369   */\n      0x00\n        /* \"#utility.yul\":4360:4366   */\n      dup3\n        /* \"#utility.yul\":4356:4370   */\n      add\n        /* \"#utility.yul\":4349:4384   */\n      mstore\n        /* \"#utility.yul\":4232:4391   */\n      pop\n      jump\t// out\n        /* \"#utility.yul\":4397:4511   */\n    tag_63:\n      pop\n      jump\t// out\n        /* \"#utility.yul\":4517:4676   */\n    tag_68:\n        /* \"#utility.yul\":4657:4668   */\n      0x63616c6c206661696c0000000000000000000000000000000000000000000000\n        /* \"#utility.yul\":4653:4654   */\n      0x00\n        /* \"#utility.yul\":4645:4651   */\n      dup3\n        /* \"#utility.yul\":4641:4655   */\n      add\n        /* \"#utility.yul\":4634:4669   */\n      mstore\n        /* \"#utility.yul\":4517:4676   */\n      pop\n      jump\t// out\n        /* \"#utility.yul\":4682:4820   */\n    tag_46:\n        /* \"#utility.yul\":4763:4795   */\n      tag_98\n        /* \"#utility.yul\":4789:4794   */\n      dup2\n        /* \"#utility.yul\":4763:4795   */\n      tag_85\n      jump\t// in\n    tag_98:\n        /* \"#utility.yul\":4756:4761   */\n      dup2\n        /* \"#utility.yul\":4753:4796   */\n      eq\n        /* \"#utility.yul\":4743:4814   */\n      tag_99\n      jumpi\n        /* \"#utility.yul\":4810:4811   */\n      0x00\n        /* \"#utility.yul\":4807:4808   */\n      dup1\n        /* \"#utility.yul\":4800:4812   */\n      revert\n        /* \"#utility.yul\":4743:4814   */\n    tag_99:\n        /* \"#utility.yul\":4682:4820   */\n      pop\n      jump\t// out\n\n    auxdata: 0xa26469706673582212201826723136f0a2a8c142147e1b7091db7c0c8cf5fc5ce406ea739ce5541bf19d64736f6c63430008070033\n}\n",
				"bytecode": {
					"linkReferences": {},
					"object": "6080604052610479806100136000396000f3fe6080604052600436106100435760003560e01c806312065fe01461004f578063636e082b1461007a57806374be480614610096578063830c29ae146100b25761004a565b3661004a57005b600080fd5b34801561005b57600080fd5b506100646100ce565b604051610071919061035f565b60405180910390f35b610094600480360381019061008f9190610265565b6100d6565b005b6100b060048036038101906100ab9190610265565b610121565b005b6100cc60048036038101906100c79190610265565b61019f565b005b600047905090565b8073ffffffffffffffffffffffffffffffffffffffff166108fc607b9081150290604051600060405180830381858888f1935050505015801561011d573d6000803e3d6000fd5b5050565b60008173ffffffffffffffffffffffffffffffffffffffff166108fc607b9081150290604051600060405180830381858888f1935050505090508061019b576040517f08c379a00000000000000000000000000000000000000000000000000000000081526004016101929061031f565b60405180910390fd5b5050565b60008173ffffffffffffffffffffffffffffffffffffffff16607b6040516101c69061030a565b60006040518083038185875af1925050503d8060008114610203576040519150601f19603f3d011682016040523d82523d6000602084013e610208565b606091505b505090508061024c576040517f08c379a00000000000000000000000000000000000000000000000000000000081526004016102439061033f565b60405180910390fd5b5050565b60008135905061025f8161042c565b92915050565b60006020828403121561027b5761027a6103d2565b5b600061028984828501610250565b91505092915050565b600061029f600983610385565b91506102aa826103d7565b602082019050919050565b60006102c260008361037a565b91506102cd82610400565b600082019050919050565b60006102e5600983610385565b91506102f082610403565b602082019050919050565b610304816103c8565b82525050565b6000610315826102b5565b9150819050919050565b6000602082019050818103600083015261033881610292565b9050919050565b60006020820190508181036000830152610358816102d8565b9050919050565b600060208201905061037460008301846102fb565b92915050565b600081905092915050565b600082825260208201905092915050565b60006103a1826103a8565b9050919050565b600073ffffffffffffffffffffffffffffffffffffffff82169050919050565b6000819050919050565b600080fd5b7f73656e64206661696c0000000000000000000000000000000000000000000000600082015250565b50565b7f63616c6c206661696c0000000000000000000000000000000000000000000000600082015250565b61043581610396565b811461044057600080fd5b5056fea26469706673582212201826723136f0a2a8c142147e1b7091db7c0c8cf5fc5ce406ea739ce5541bf19d64736f6c63430008070033",
					"opcodes": "PUSH1 0x80 PUSH1 0x40 MSTORE PUSH2 0x479 DUP1 PUSH2 0x13 PUSH1 0x0 CODECOPY PUSH1 0x0 RETURN INVALID PUSH1 0x80 PUSH1 0x40 MSTORE PUSH1 0x4 CALLDATASIZE LT PUSH2 0x43 JUMPI PUSH1 0x0 CALLDATALOAD PUSH1 0xE0 SHR DUP1 PUSH4 0x12065FE0 EQ PUSH2 0x4F JUMPI DUP1 PUSH4 0x636E082B EQ PUSH2 0x7A JUMPI DUP1 PUSH4 0x74BE4806 EQ PUSH2 0x96 JUMPI DUP1 PUSH4 0x830C29AE EQ PUSH2 0xB2 JUMPI PUSH2 0x4A JUMP JUMPDEST CALLDATASIZE PUSH2 0x4A JUMPI STOP JUMPDEST PUSH1 0x0 DUP1 REVERT JUMPDEST CALLVALUE DUP1 ISZERO PUSH2 0x5B JUMPI PUSH1 0x0 DUP1 REVERT JUMPDEST POP PUSH2 0x64 PUSH2 0xCE JUMP JUMPDEST PUSH1 0x40 MLOAD PUSH2 0x71 SWAP2 SWAP1 PUSH2 0x35F JUMP JUMPDEST PUSH1 0x40 MLOAD DUP1 SWAP2 SUB SWAP1 RETURN JUMPDEST PUSH2 0x94 PUSH1 0x4 DUP1 CALLDATASIZE SUB DUP2 ADD SWAP1 PUSH2 0x8F SWAP2 SWAP1 PUSH2 0x265 JUMP JUMPDEST PUSH2 0xD6 JUMP JUMPDEST STOP JUMPDEST PUSH2 0xB0 PUSH1 0x4 DUP1 CALLDATASIZE SUB DUP2 ADD SWAP1 PUSH2 0xAB SWAP2 SWAP1 PUSH2 0x265 JUMP JUMPDEST PUSH2 0x121 JUMP JUMPDEST STOP JUMPDEST PUSH2 0xCC PUSH1 0x4 DUP1 CALLDATASIZE SUB DUP2 ADD SWAP1 PUSH2 0xC7 SWAP2 SWAP1 PUSH2 0x265 JUMP JUMPDEST PUSH2 0x19F JUMP JUMPDEST STOP JUMPDEST PUSH1 0x0 SELFBALANCE SWAP1 POP SWAP1 JUMP JUMPDEST DUP1 PUSH20 0xFFFFFFFFFFFFFFFFFFFFFFFFFFFFFFFFFFFFFFFF AND PUSH2 0x8FC PUSH1 0x7B SWAP1 DUP2 ISZERO MUL SWAP1 PUSH1 0x40 MLOAD PUSH1 0x0 PUSH1 0x40 MLOAD DUP1 DUP4 SUB DUP2 DUP6 DUP9 DUP9 CALL SWAP4 POP POP POP POP ISZERO DUP1 ISZERO PUSH2 0x11D JUMPI RETURNDATASIZE PUSH1 0x0 DUP1 RETURNDATACOPY RETURNDATASIZE PUSH1 0x0 REVERT JUMPDEST POP POP JUMP JUMPDEST PUSH1 0x0 DUP2 PUSH20 0xFFFFFFFFFFFFFFFFFFFFFFFFFFFFFFFFFFFFFFFF AND PUSH2 0x8FC PUSH1 0x7B SWAP1 DUP2 ISZERO MUL SWAP1 PUSH1 0x40 MLOAD PUSH1 0x0 PUSH1 0x40 MLOAD DUP1 DUP4 SUB DUP2 DUP6 DUP9 DUP9 CALL SWAP4 POP POP POP POP SWAP1 POP DUP1 PUSH2 0x19B JUMPI PUSH1 0x40 MLOAD PUSH32 0x8C379A000000000000000000000000000000000000000000000000000000000 DUP2 MSTORE PUSH1 0x4 ADD PUSH2 0x192 SWAP1 PUSH2 0x31F JUMP JUMPDEST PUSH1 0x40 MLOAD DUP1 SWAP2 SUB SWAP1 REVERT JUMPDEST POP POP JUMP JUMPDEST PUSH1 0x0 DUP2 PUSH20 0xFFFFFFFFFFFFFFFFFFFFFFFFFFFFFFFFFFFFFFFF AND PUSH1 0x7B PUSH1 0x40 MLOAD PUSH2 0x1C6 SWAP1 PUSH2 0x30A JUMP JUMPDEST PUSH1 0x0 PUSH1 0x40 MLOAD DUP1 DUP4 SUB DUP2 DUP6 DUP8 GAS CALL SWAP3 POP POP POP RETURNDATASIZE DUP1 PUSH1 0x0 DUP2 EQ PUSH2 0x203 JUMPI PUSH1 0x40 MLOAD SWAP2 POP PUSH1 0x1F NOT PUSH1 0x3F RETURNDATASIZE ADD AND DUP3 ADD PUSH1 0x40 MSTORE RETURNDATASIZE DUP3 MSTORE RETURNDATASIZE PUSH1 0x0 PUSH1 0x20 DUP5 ADD RETURNDATACOPY PUSH2 0x208 JUMP JUMPDEST PUSH1 0x60 SWAP2 POP JUMPDEST POP POP SWAP1 POP DUP1 PUSH2 0x24C JUMPI PUSH1 0x40 MLOAD PUSH32 0x8C379A000000000000000000000000000000000000000000000000000000000 DUP2 MSTORE PUSH1 0x4 ADD PUSH2 0x243 SWAP1 PUSH2 0x33F JUMP JUMPDEST PUSH1 0x40 MLOAD DUP1 SWAP2 SUB SWAP1 REVERT JUMPDEST POP POP JUMP JUMPDEST PUSH1 0x0 DUP2 CALLDATALOAD SWAP1 POP PUSH2 0x25F DUP2 PUSH2 0x42C JUMP JUMPDEST SWAP3 SWAP2 POP POP JUMP JUMPDEST PUSH1 0x0 PUSH1 0x20 DUP3 DUP5 SUB SLT ISZERO PUSH2 0x27B JUMPI PUSH2 0x27A PUSH2 0x3D2 JUMP JUMPDEST JUMPDEST PUSH1 0x0 PUSH2 0x289 DUP5 DUP3 DUP6 ADD PUSH2 0x250 JUMP JUMPDEST SWAP2 POP POP SWAP3 SWAP2 POP POP JUMP JUMPDEST PUSH1 0x0 PUSH2 0x29F PUSH1 0x9 DUP4 PUSH2 0x385 JUMP JUMPDEST SWAP2 POP PUSH2 0x2AA DUP3 PUSH2 0x3D7 JUMP JUMPDEST PUSH1 0x20 DUP3 ADD SWAP1 POP SWAP2 SWAP1 POP JUMP JUMPDEST PUSH1 0x0 PUSH2 0x2C2 PUSH1 0x0 DUP4 PUSH2 0x37A JUMP JUMPDEST SWAP2 POP PUSH2 0x2CD DUP3 PUSH2 0x400 JUMP JUMPDEST PUSH1 0x0 DUP3 ADD SWAP1 POP SWAP2 SWAP1 POP JUMP JUMPDEST PUSH1 0x0 PUSH2 0x2E5 PUSH1 0x9 DUP4 PUSH2 0x385 JUMP JUMPDEST SWAP2 POP PUSH2 0x2F0 DUP3 PUSH2 0x403 JUMP JUMPDEST PUSH1 0x20 DUP3 ADD SWAP1 POP SWAP2 SWAP1 POP JUMP JUMPDEST PUSH2 0x304 DUP2 PUSH2 0x3C8 JUMP JUMPDEST DUP3 MSTORE POP POP JUMP JUMPDEST PUSH1 0x0 PUSH2 0x315 DUP3 PUSH2 0x2B5 JUMP JUMPDEST SWAP2 POP DUP2 SWAP1 POP SWAP2 SWAP1 POP JUMP JUMPDEST PUSH1 0x0 PUSH1 0x20 DUP3 ADD SWAP1 POP DUP2 DUP2 SUB PUSH1 0x0 DUP4 ADD MSTORE PUSH2 0x338 DUP2 PUSH2 0x292 JUMP JUMPDEST SWAP1 POP SWAP2 SWAP1 POP JUMP JUMPDEST PUSH1 0x0 PUSH1 0x20 DUP3 ADD SWAP1 POP DUP2 DUP2 SUB PUSH1 0x0 DUP4 ADD MSTORE PUSH2 0x358 DUP2 PUSH2 0x2D8 JUMP JUMPDEST SWAP1 POP SWAP2 SWAP1 POP JUMP JUMPDEST PUSH1 0x0 PUSH1 0x20 DUP3 ADD SWAP1 POP PUSH2 0x374 PUSH1 0x0 DUP4 ADD DUP5 PUSH2 0x2FB JUMP JUMPDEST SWAP3 SWAP2 POP POP JUMP JUMPDEST PUSH1 0x0 DUP2 SWAP1 POP SWAP3 SWAP2 POP POP JUMP JUMPDEST PUSH1 0x0 DUP3 DUP3 MSTORE PUSH1 0x20 DUP3 ADD SWAP1 POP SWAP3 SWAP2 POP POP JUMP JUMPDEST PUSH1 0x0 PUSH2 0x3A1 DUP3 PUSH2 0x3A8 JUMP JUMPDEST SWAP1 POP SWAP2 SWAP1 POP JUMP JUMPDEST PUSH1 0x0 PUSH20 0xFFFFFFFFFFFFFFFFFFFFFFFFFFFFFFFFFFFFFFFF DUP3 AND SWAP1 POP SWAP2 SWAP1 POP JUMP JUMPDEST PUSH1 0x0 DUP2 SWAP1 POP SWAP2 SWAP1 POP JUMP JUMPDEST PUSH1 0x0 DUP1 REVERT JUMPDEST PUSH32 0x73656E64206661696C0000000000000000000000000000000000000000000000 PUSH1 0x0 DUP3 ADD MSTORE POP JUMP JUMPDEST POP JUMP JUMPDEST PUSH32 0x63616C6C206661696C0000000000000000000000000000000000000000000000 PUSH1 0x0 DUP3 ADD MSTORE POP JUMP JUMPDEST PUSH2 0x435 DUP2 PUSH2 0x396 JUMP JUMPDEST DUP2 EQ PUSH2 0x440 JUMPI PUSH1 0x0 DUP1 REVERT JUMPDEST POP JUMP INVALID LOG2 PUSH5 0x6970667358 0x22 SLT KECCAK256 XOR 0x26 PUSH19 0x3136F0A2A8C142147E1B7091DB7C0C8CF5FC5C 0xE4 MOD 0xEA PUSH20 0x9CE5541BF19D64736F6C63430008070033000000 "
				},
				"gasEstimates": {
					"creation": {
						"codeDepositCost": "229000",
						"executionCost": "245",
						"totalCost": "229245"
					},
					"external": {
						"getBalance()": "317",
						"sendViaCall(address)": "infinite",
						"sendViaSend(address)": "infinite",
						"sendViaTransfer(address)": "infinite"
					}
				},
				"methodIdentifiers": {
					"getBalance()": "12065fe0",
					"sendViaCall(address)": "830c29ae",
					"sendViaSend(address)": "74be4806",
					"sendViaTransfer(address)": "636e082b"
				}
			},
			"storageLayout": {
				"storage": [],
				"types": null
			},
			"userdoc": {
				"kind": "user",
				"methods": {},
				"version": 1
			}
		}
	}
}