{
	"study/chapter05/call.sol": {
		"Call": {
			"abi": [
				{
					"inputs": [
						{
							"internalType": "address",
							"name": "_test",
							"type": "address"
						}
					],
					"name": "example",
					"outputs": [
						{
							"internalType": "bool",
							"name": "success",
							"type": "bool"
						},
						{
							"internalType": "bytes",
							"name": "data",
							"type": "bytes"
						}
					],
					"stateMutability": "nonpayable",
					"type": "function"
				},
				{
					"inputs": [
						{
							"internalType": "address",
							"name": "_test",
							"type": "address"
						}
					],
					"name": "example1",
					"outputs": [
						{
							"internalType": "bool",
							"name": "success",
							"type": "bool"
						},
						{
							"internalType": "bytes",
							"name": "data",
							"type": "bytes"
						}
					],
					"stateMutability": "nonpayable",
					"type": "function"
				}
			],
			"devdoc": {
				"kind": "dev",
				"methods": {},
				"version": 1
			},
			"evm": {
				"assembly": "    /* \"study/chapter05/call.sol\":148:511  contract Call{... */\n  mstore(0x40, 0x80)\n  callvalue\n  dup1\n  iszero\n  tag_1\n  jumpi\n  0x00\n  dup1\n  revert\ntag_1:\n  pop\n  dataSize(sub_0)\n  dup1\n  dataOffset(sub_0)\n  0x00\n  codecopy\n  0x00\n  return\nstop\n\nsub_0: assembly {\n        /* \"study/chapter05/call.sol\":148:511  contract Call{... */\n      mstore(0x40, 0x80)\n      callvalue\n      dup1\n      iszero\n      tag_1\n      jumpi\n      0x00\n      dup1\n      revert\n    tag_1:\n      pop\n      jumpi(tag_2, lt(calldatasize, 0x04))\n      shr(0xe0, calldataload(0x00))\n      dup1\n      0x512ca947\n      eq\n      tag_3\n      jumpi\n      dup1\n      0x9f111063\n      eq\n      tag_4\n      jumpi\n    tag_2:\n      0x00\n      dup1\n      revert\n        /* \"study/chapter05/call.sol\":167:334  function example(address _test)external returns(bool success,bytes memory data){... */\n    tag_3:\n      tag_5\n      0x04\n      dup1\n      calldatasize\n      sub\n      dup2\n      add\n      swap1\n      tag_6\n      swap2\n      swap1\n      tag_7\n      jump\t// in\n    tag_6:\n      tag_8\n      jump\t// in\n    tag_5:\n      mload(0x40)\n      tag_9\n      swap3\n      swap2\n      swap1\n      tag_10\n      jump\t// in\n    tag_9:\n      mload(0x40)\n      dup1\n      swap2\n      sub\n      swap1\n      return\n        /* \"study/chapter05/call.sol\":341:509  function example1(address _test)external returns(bool success,bytes memory data){... */\n    tag_4:\n      tag_11\n      0x04\n      dup1\n      calldatasize\n      sub\n      dup2\n      add\n      swap1\n      tag_12\n      swap2\n      swap1\n      tag_7\n      jump\t// in\n    tag_12:\n      tag_13\n      jump\t// in\n    tag_11:\n      mload(0x40)\n      tag_14\n      swap3\n      swap2\n      swap1\n      tag_10\n      jump\t// in\n    tag_14:\n      mload(0x40)\n      dup1\n      swap2\n      sub\n      swap1\n      return\n        /* \"study/chapter05/call.sol\":167:334  function example(address _test)external returns(bool success,bytes memory data){... */\n    tag_8:\n        /* \"study/chapter05/call.sol\":215:227  bool success */\n      0x00\n        /* \"study/chapter05/call.sol\":228:245  bytes memory data */\n      0x60\n        /* \"study/chapter05/call.sol\":271:276  _test */\n      dup3\n        /* \"study/chapter05/call.sol\":271:281  _test.call */\n      0xffffffffffffffffffffffffffffffffffffffff\n      and\n        /* \"study/chapter05/call.sol\":322:325  123 */\n      0x7b\n        /* \"study/chapter05/call.sol\":282:326  abi.encodeWithSignature(\"setX(uint256)\",123) */\n      add(0x24, mload(0x40))\n      tag_16\n      swap2\n      swap1\n      tag_17\n      jump\t// in\n    tag_16:\n      mload(0x40)\n      0x20\n      dup2\n      dup4\n      sub\n      sub\n      dup2\n      mstore\n      swap1\n      0x40\n      mstore\n      and(not(0xffffffffffffffffffffffffffffffffffffffffffffffffffffffff), 0x4018d9aa00000000000000000000000000000000000000000000000000000000)\n      0x20\n      dup3\n      add\n      dup1\n      mload\n      0xffffffffffffffffffffffffffffffffffffffffffffffffffffffff\n      dup4\n      dup2\n      dup4\n      and\n      or\n      dup4\n      mstore\n      pop\n      pop\n      pop\n      pop\n        /* \"study/chapter05/call.sol\":271:327  _test.call(abi.encodeWithSignature(\"setX(uint256)\",123)) */\n      mload(0x40)\n      tag_18\n      swap2\n      swap1\n      tag_19\n      jump\t// in\n    tag_18:\n      0x00\n      mload(0x40)\n      dup1\n      dup4\n      sub\n      dup2\n      0x00\n      dup7\n      gas\n      call\n      swap2\n      pop\n      pop\n      returndatasize\n      dup1\n      0x00\n      dup2\n      eq\n      tag_22\n      jumpi\n      mload(0x40)\n      swap2\n      pop\n      and(add(returndatasize, 0x3f), not(0x1f))\n      dup3\n      add\n      0x40\n      mstore\n      returndatasize\n      dup3\n      mstore\n      returndatasize\n      0x00\n      0x20\n      dup5\n      add\n      returndatacopy\n      jump(tag_21)\n    tag_22:\n      0x60\n      swap2\n      pop\n    tag_21:\n      pop\n        /* \"study/chapter05/call.sol\":256:327  (success,data)=_test.call(abi.encodeWithSignature(\"setX(uint256)\",123)) */\n      dup1\n      swap3\n      pop\n      dup2\n      swap4\n      pop\n      pop\n      pop\n        /* \"study/chapter05/call.sol\":167:334  function example(address _test)external returns(bool success,bytes memory data){... */\n      swap2\n      pop\n      swap2\n      jump\t// out\n        /* \"study/chapter05/call.sol\":341:509  function example1(address _test)external returns(bool success,bytes memory data){... */\n    tag_13:\n        /* \"study/chapter05/call.sol\":390:402  bool success */\n      0x00\n        /* \"study/chapter05/call.sol\":403:420  bytes memory data */\n      0x60\n        /* \"study/chapter05/call.sol\":446:451  _test */\n      dup3\n        /* \"study/chapter05/call.sol\":446:456  _test.call */\n      0xffffffffffffffffffffffffffffffffffffffff\n      and\n        /* \"study/chapter05/call.sol\":497:500  122 */\n      0x7a\n        /* \"study/chapter05/call.sol\":457:501  abi.encodeWithSignature(\"setB(uint256)\",122) */\n      add(0x24, mload(0x40))\n      tag_24\n      swap2\n      swap1\n      tag_25\n      jump\t// in\n    tag_24:\n      mload(0x40)\n      0x20\n      dup2\n      dup4\n      sub\n      sub\n      dup2\n      mstore\n      swap1\n      0x40\n      mstore\n      and(not(0xffffffffffffffffffffffffffffffffffffffffffffffffffffffff), 0x09cdcf9b00000000000000000000000000000000000000000000000000000000)\n      0x20\n      dup3\n      add\n      dup1\n      mload\n      0xffffffffffffffffffffffffffffffffffffffffffffffffffffffff\n      dup4\n      dup2\n      dup4\n      and\n      or\n      dup4\n      mstore\n      pop\n      pop\n      pop\n      pop\n        /* \"study/chapter05/call.sol\":446:502  _test.call(abi.encodeWithSignature(\"setB(uint256)\",122)) */\n      mload(0x40)\n      tag_26\n      swap2\n      swap1\n      tag_19\n      jump\t// in\n    tag_26:\n      0x00\n      mload(0x40)\n      dup1\n      dup4\n      sub\n      dup2\n      0x00\n      dup7\n      gas\n      call\n      swap2\n      pop\n      pop\n      returndatasize\n      dup1\n      0x00\n      dup2\n      eq\n      tag_29\n      jumpi\n      mload(0x40)\n      swap2\n      pop\n      and(add(returndatasize, 0x3f), not(0x1f))\n      dup3\n      add\n      0x40\n      mstore\n      returndatasize\n      dup3\n      mstore\n      returndatasize\n      0x00\n      0x20\n      dup5\n      add\n      returndatacopy\n      jump(tag_28)\n    tag_29:\n      0x60\n      swap2\n      pop\n    tag_28:\n      pop\n        /* \"study/chapter05/call.sol\":431:502  (success,data)=_test.call(abi.encodeWithSignature(\"setB(uint256)\",122)) */\n      dup1\n      swap3\n      pop\n      dup2\n      swap4\n      pop\n      pop\n      pop\n        /* \"study/chapter05/call.sol\":341:509  function example1(address _test)external returns(bool success,bytes memory data){... */\n      swap2\n      pop\n      swap2\n      jump\t// out\n        /* \"#utility.yul\":7:146   */\n    tag_31:\n        /* \"#utility.yul\":53:58   */\n      0x00\n        /* \"#utility.yul\":91:97   */\n      dup2\n        /* \"#utility.yul\":78:98   */\n      calldataload\n        /* \"#utility.yul\":69:98   */\n      swap1\n      pop\n        /* \"#utility.yul\":107:140   */\n      tag_33\n        /* \"#utility.yul\":134:139   */\n      dup2\n        /* \"#utility.yul\":107:140   */\n      tag_34\n      jump\t// in\n    tag_33:\n        /* \"#utility.yul\":59:146   */\n      swap3\n      swap2\n      pop\n      pop\n      jump\t// out\n        /* \"#utility.yul\":152:481   */\n    tag_7:\n        /* \"#utility.yul\":211:217   */\n      0x00\n        /* \"#utility.yul\":260:262   */\n      0x20\n        /* \"#utility.yul\":248:257   */\n      dup3\n        /* \"#utility.yul\":239:246   */\n      dup5\n        /* \"#utility.yul\":235:258   */\n      sub\n        /* \"#utility.yul\":231:263   */\n      slt\n        /* \"#utility.yul\":228:230   */\n      iszero\n      tag_36\n      jumpi\n        /* \"#utility.yul\":266:345   */\n      tag_37\n      tag_38\n      jump\t// in\n    tag_37:\n        /* \"#utility.yul\":228:230   */\n    tag_36:\n        /* \"#utility.yul\":386:387   */\n      0x00\n        /* \"#utility.yul\":411:464   */\n      tag_39\n        /* \"#utility.yul\":456:463   */\n      dup5\n        /* \"#utility.yul\":447:453   */\n      dup3\n        /* \"#utility.yul\":436:445   */\n      dup6\n        /* \"#utility.yul\":432:454   */\n      add\n        /* \"#utility.yul\":411:464   */\n      tag_31\n      jump\t// in\n    tag_39:\n        /* \"#utility.yul\":401:464   */\n      swap2\n      pop\n        /* \"#utility.yul\":357:474   */\n      pop\n        /* \"#utility.yul\":218:481   */\n      swap3\n      swap2\n      pop\n      pop\n      jump\t// out\n        /* \"#utility.yul\":487:596   */\n    tag_40:\n        /* \"#utility.yul\":568:589   */\n      tag_42\n        /* \"#utility.yul\":583:588   */\n      dup2\n        /* \"#utility.yul\":568:589   */\n      tag_43\n      jump\t// in\n    tag_42:\n        /* \"#utility.yul\":563:566   */\n      dup3\n        /* \"#utility.yul\":556:590   */\n      mstore\n        /* \"#utility.yul\":546:596   */\n      pop\n      pop\n      jump\t// out\n        /* \"#utility.yul\":602:962   */\n    tag_44:\n        /* \"#utility.yul\":688:691   */\n      0x00\n        /* \"#utility.yul\":716:754   */\n      tag_46\n        /* \"#utility.yul\":748:753   */\n      dup3\n        /* \"#utility.yul\":716:754   */\n      tag_47\n      jump\t// in\n    tag_46:\n        /* \"#utility.yul\":770:840   */\n      tag_48\n        /* \"#utility.yul\":833:839   */\n      dup2\n        /* \"#utility.yul\":828:831   */\n      dup6\n        /* \"#utility.yul\":770:840   */\n      tag_49\n      jump\t// in\n    tag_48:\n        /* \"#utility.yul\":763:840   */\n      swap4\n      pop\n        /* \"#utility.yul\":849:901   */\n      tag_50\n        /* \"#utility.yul\":894:900   */\n      dup2\n        /* \"#utility.yul\":889:892   */\n      dup6\n        /* \"#utility.yul\":882:886   */\n      0x20\n        /* \"#utility.yul\":875:880   */\n      dup7\n        /* \"#utility.yul\":871:887   */\n      add\n        /* \"#utility.yul\":849:901   */\n      tag_51\n      jump\t// in\n    tag_50:\n        /* \"#utility.yul\":926:955   */\n      tag_52\n        /* \"#utility.yul\":948:954   */\n      dup2\n        /* \"#utility.yul\":926:955   */\n      tag_53\n      jump\t// in\n    tag_52:\n        /* \"#utility.yul\":921:924   */\n      dup5\n        /* \"#utility.yul\":917:956   */\n      add\n        /* \"#utility.yul\":910:956   */\n      swap2\n      pop\n        /* \"#utility.yul\":692:962   */\n      pop\n      swap3\n      swap2\n      pop\n      pop\n      jump\t// out\n        /* \"#utility.yul\":968:1341   */\n    tag_54:\n        /* \"#utility.yul\":1072:1075   */\n      0x00\n        /* \"#utility.yul\":1100:1138   */\n      tag_56\n        /* \"#utility.yul\":1132:1137   */\n      dup3\n        /* \"#utility.yul\":1100:1138   */\n      tag_47\n      jump\t// in\n    tag_56:\n        /* \"#utility.yul\":1154:1242   */\n      tag_57\n        /* \"#utility.yul\":1235:1241   */\n      dup2\n        /* \"#utility.yul\":1230:1233   */\n      dup6\n        /* \"#utility.yul\":1154:1242   */\n      tag_58\n      jump\t// in\n    tag_57:\n        /* \"#utility.yul\":1147:1242   */\n      swap4\n      pop\n        /* \"#utility.yul\":1251:1303   */\n      tag_59\n        /* \"#utility.yul\":1296:1302   */\n      dup2\n        /* \"#utility.yul\":1291:1294   */\n      dup6\n        /* \"#utility.yul\":1284:1288   */\n      0x20\n        /* \"#utility.yul\":1277:1282   */\n      dup7\n        /* \"#utility.yul\":1273:1289   */\n      add\n        /* \"#utility.yul\":1251:1303   */\n      tag_51\n      jump\t// in\n    tag_59:\n        /* \"#utility.yul\":1328:1334   */\n      dup1\n        /* \"#utility.yul\":1323:1326   */\n      dup5\n        /* \"#utility.yul\":1319:1335   */\n      add\n        /* \"#utility.yul\":1312:1335   */\n      swap2\n      pop\n        /* \"#utility.yul\":1076:1341   */\n      pop\n      swap3\n      swap2\n      pop\n      pop\n      jump\t// out\n        /* \"#utility.yul\":1347:1494   */\n    tag_60:\n        /* \"#utility.yul\":1442:1487   */\n      tag_62\n        /* \"#utility.yul\":1481:1486   */\n      dup2\n        /* \"#utility.yul\":1442:1487   */\n      tag_63\n      jump\t// in\n    tag_62:\n        /* \"#utility.yul\":1437:1440   */\n      dup3\n        /* \"#utility.yul\":1430:1488   */\n      mstore\n        /* \"#utility.yul\":1420:1494   */\n      pop\n      pop\n      jump\t// out\n        /* \"#utility.yul\":1500:1647   */\n    tag_64:\n        /* \"#utility.yul\":1595:1640   */\n      tag_66\n        /* \"#utility.yul\":1634:1639   */\n      dup2\n        /* \"#utility.yul\":1595:1640   */\n      tag_67\n      jump\t// in\n    tag_66:\n        /* \"#utility.yul\":1590:1593   */\n      dup3\n        /* \"#utility.yul\":1583:1641   */\n      mstore\n        /* \"#utility.yul\":1573:1647   */\n      pop\n      pop\n      jump\t// out\n        /* \"#utility.yul\":1653:1924   */\n    tag_19:\n        /* \"#utility.yul\":1783:1786   */\n      0x00\n        /* \"#utility.yul\":1805:1898   */\n      tag_69\n        /* \"#utility.yul\":1894:1897   */\n      dup3\n        /* \"#utility.yul\":1885:1891   */\n      dup5\n        /* \"#utility.yul\":1805:1898   */\n      tag_54\n      jump\t// in\n    tag_69:\n        /* \"#utility.yul\":1798:1898   */\n      swap2\n      pop\n        /* \"#utility.yul\":1915:1918   */\n      dup2\n        /* \"#utility.yul\":1908:1918   */\n      swap1\n      pop\n        /* \"#utility.yul\":1787:1924   */\n      swap3\n      swap2\n      pop\n      pop\n      jump\t// out\n        /* \"#utility.yul\":1930:2337   */\n    tag_10:\n        /* \"#utility.yul\":2063:2067   */\n      0x00\n        /* \"#utility.yul\":2101:2103   */\n      0x40\n        /* \"#utility.yul\":2090:2099   */\n      dup3\n        /* \"#utility.yul\":2086:2104   */\n      add\n        /* \"#utility.yul\":2078:2104   */\n      swap1\n      pop\n        /* \"#utility.yul\":2114:2179   */\n      tag_71\n        /* \"#utility.yul\":2176:2177   */\n      0x00\n        /* \"#utility.yul\":2165:2174   */\n      dup4\n        /* \"#utility.yul\":2161:2178   */\n      add\n        /* \"#utility.yul\":2152:2158   */\n      dup6\n        /* \"#utility.yul\":2114:2179   */\n      tag_40\n      jump\t// in\n    tag_71:\n        /* \"#utility.yul\":2226:2235   */\n      dup2\n        /* \"#utility.yul\":2220:2224   */\n      dup2\n        /* \"#utility.yul\":2216:2236   */\n      sub\n        /* \"#utility.yul\":2211:2213   */\n      0x20\n        /* \"#utility.yul\":2200:2209   */\n      dup4\n        /* \"#utility.yul\":2196:2214   */\n      add\n        /* \"#utility.yul\":2189:2237   */\n      mstore\n        /* \"#utility.yul\":2254:2330   */\n      tag_72\n        /* \"#utility.yul\":2325:2329   */\n      dup2\n        /* \"#utility.yul\":2316:2322   */\n      dup5\n        /* \"#utility.yul\":2254:2330   */\n      tag_44\n      jump\t// in\n    tag_72:\n        /* \"#utility.yul\":2246:2330   */\n      swap1\n      pop\n        /* \"#utility.yul\":2068:2337   */\n      swap4\n      swap3\n      pop\n      pop\n      pop\n      jump\t// out\n        /* \"#utility.yul\":2343:2581   */\n    tag_25:\n        /* \"#utility.yul\":2444:2448   */\n      0x00\n        /* \"#utility.yul\":2482:2484   */\n      0x20\n        /* \"#utility.yul\":2471:2480   */\n      dup3\n        /* \"#utility.yul\":2467:2485   */\n      add\n        /* \"#utility.yul\":2459:2485   */\n      swap1\n      pop\n        /* \"#utility.yul\":2495:2574   */\n      tag_74\n        /* \"#utility.yul\":2571:2572   */\n      0x00\n        /* \"#utility.yul\":2560:2569   */\n      dup4\n        /* \"#utility.yul\":2556:2573   */\n      add\n        /* \"#utility.yul\":2547:2553   */\n      dup5\n        /* \"#utility.yul\":2495:2574   */\n      tag_60\n      jump\t// in\n    tag_74:\n        /* \"#utility.yul\":2449:2581   */\n      swap3\n      swap2\n      pop\n      pop\n      jump\t// out\n        /* \"#utility.yul\":2587:2825   */\n    tag_17:\n        /* \"#utility.yul\":2688:2692   */\n      0x00\n        /* \"#utility.yul\":2726:2728   */\n      0x20\n        /* \"#utility.yul\":2715:2724   */\n      dup3\n        /* \"#utility.yul\":2711:2729   */\n      add\n        /* \"#utility.yul\":2703:2729   */\n      swap1\n      pop\n        /* \"#utility.yul\":2739:2818   */\n      tag_76\n        /* \"#utility.yul\":2815:2816   */\n      0x00\n        /* \"#utility.yul\":2804:2813   */\n      dup4\n        /* \"#utility.yul\":2800:2817   */\n      add\n        /* \"#utility.yul\":2791:2797   */\n      dup5\n        /* \"#utility.yul\":2739:2818   */\n      tag_64\n      jump\t// in\n    tag_76:\n        /* \"#utility.yul\":2693:2825   */\n      swap3\n      swap2\n      pop\n      pop\n      jump\t// out\n        /* \"#utility.yul\":2912:3010   */\n    tag_47:\n        /* \"#utility.yul\":2963:2969   */\n      0x00\n        /* \"#utility.yul\":2997:3002   */\n      dup2\n        /* \"#utility.yul\":2991:3003   */\n      mload\n        /* \"#utility.yul\":2981:3003   */\n      swap1\n      pop\n        /* \"#utility.yul\":2970:3010   */\n      swap2\n      swap1\n      pop\n      jump\t// out\n        /* \"#utility.yul\":3016:3184   */\n    tag_49:\n        /* \"#utility.yul\":3099:3110   */\n      0x00\n        /* \"#utility.yul\":3133:3139   */\n      dup3\n        /* \"#utility.yul\":3128:3131   */\n      dup3\n        /* \"#utility.yul\":3121:3140   */\n      mstore\n        /* \"#utility.yul\":3173:3177   */\n      0x20\n        /* \"#utility.yul\":3168:3171   */\n      dup3\n        /* \"#utility.yul\":3164:3178   */\n      add\n        /* \"#utility.yul\":3149:3178   */\n      swap1\n      pop\n        /* \"#utility.yul\":3111:3184   */\n      swap3\n      swap2\n      pop\n      pop\n      jump\t// out\n        /* \"#utility.yul\":3190:3337   */\n    tag_58:\n        /* \"#utility.yul\":3291:3302   */\n      0x00\n        /* \"#utility.yul\":3328:3331   */\n      dup2\n        /* \"#utility.yul\":3313:3331   */\n      swap1\n      pop\n        /* \"#utility.yul\":3303:3337   */\n      swap3\n      swap2\n      pop\n      pop\n      jump\t// out\n        /* \"#utility.yul\":3343:3439   */\n    tag_82:\n        /* \"#utility.yul\":3380:3387   */\n      0x00\n        /* \"#utility.yul\":3409:3433   */\n      tag_84\n        /* \"#utility.yul\":3427:3432   */\n      dup3\n        /* \"#utility.yul\":3409:3433   */\n      tag_85\n      jump\t// in\n    tag_84:\n        /* \"#utility.yul\":3398:3433   */\n      swap1\n      pop\n        /* \"#utility.yul\":3388:3439   */\n      swap2\n      swap1\n      pop\n      jump\t// out\n        /* \"#utility.yul\":3445:3535   */\n    tag_43:\n        /* \"#utility.yul\":3479:3486   */\n      0x00\n        /* \"#utility.yul\":3522:3527   */\n      dup2\n        /* \"#utility.yul\":3515:3528   */\n      iszero\n        /* \"#utility.yul\":3508:3529   */\n      iszero\n        /* \"#utility.yul\":3497:3529   */\n      swap1\n      pop\n        /* \"#utility.yul\":3487:3535   */\n      swap2\n      swap1\n      pop\n      jump\t// out\n        /* \"#utility.yul\":3541:3667   */\n    tag_85:\n        /* \"#utility.yul\":3578:3585   */\n      0x00\n        /* \"#utility.yul\":3618:3660   */\n      0xffffffffffffffffffffffffffffffffffffffff\n        /* \"#utility.yul\":3611:3616   */\n      dup3\n        /* \"#utility.yul\":3607:3661   */\n      and\n        /* \"#utility.yul\":3596:3661   */\n      swap1\n      pop\n        /* \"#utility.yul\":3586:3667   */\n      swap2\n      swap1\n      pop\n      jump\t// out\n        /* \"#utility.yul\":3673:3759   */\n    tag_88:\n        /* \"#utility.yul\":3708:3715   */\n      0x00\n        /* \"#utility.yul\":3748:3752   */\n      0xff\n        /* \"#utility.yul\":3741:3746   */\n      dup3\n        /* \"#utility.yul\":3737:3753   */\n      and\n        /* \"#utility.yul\":3726:3753   */\n      swap1\n      pop\n        /* \"#utility.yul\":3716:3759   */\n      swap2\n      swap1\n      pop\n      jump\t// out\n        /* \"#utility.yul\":3765:3884   */\n    tag_63:\n        /* \"#utility.yul\":3823:3832   */\n      0x00\n        /* \"#utility.yul\":3856:3878   */\n      tag_91\n        /* \"#utility.yul\":3872:3877   */\n      dup3\n        /* \"#utility.yul\":3856:3878   */\n      tag_88\n      jump\t// in\n    tag_91:\n        /* \"#utility.yul\":3843:3878   */\n      swap1\n      pop\n        /* \"#utility.yul\":3833:3884   */\n      swap2\n      swap1\n      pop\n      jump\t// out\n        /* \"#utility.yul\":3890:4009   */\n    tag_67:\n        /* \"#utility.yul\":3948:3957   */\n      0x00\n        /* \"#utility.yul\":3981:4003   */\n      tag_93\n        /* \"#utility.yul\":3997:4002   */\n      dup3\n        /* \"#utility.yul\":3981:4003   */\n      tag_88\n      jump\t// in\n    tag_93:\n        /* \"#utility.yul\":3968:4003   */\n      swap1\n      pop\n        /* \"#utility.yul\":3958:4009   */\n      swap2\n      swap1\n      pop\n      jump\t// out\n        /* \"#utility.yul\":4015:4322   */\n    tag_51:\n        /* \"#utility.yul\":4083:4084   */\n      0x00\n        /* \"#utility.yul\":4093:4206   */\n    tag_95:\n        /* \"#utility.yul\":4107:4113   */\n      dup4\n        /* \"#utility.yul\":4104:4105   */\n      dup2\n        /* \"#utility.yul\":4101:4114   */\n      lt\n        /* \"#utility.yul\":4093:4206   */\n      iszero\n      tag_97\n      jumpi\n        /* \"#utility.yul\":4192:4193   */\n      dup1\n        /* \"#utility.yul\":4187:4190   */\n      dup3\n        /* \"#utility.yul\":4183:4194   */\n      add\n        /* \"#utility.yul\":4177:4195   */\n      mload\n        /* \"#utility.yul\":4173:4174   */\n      dup2\n        /* \"#utility.yul\":4168:4171   */\n      dup5\n        /* \"#utility.yul\":4164:4175   */\n      add\n        /* \"#utility.yul\":4157:4196   */\n      mstore\n        /* \"#utility.yul\":4129:4131   */\n      0x20\n        /* \"#utility.yul\":4126:4127   */\n      dup2\n        /* \"#utility.yul\":4122:4132   */\n      add\n        /* \"#utility.yul\":4117:4132   */\n      swap1\n      pop\n        /* \"#utility.yul\":4093:4206   */\n      jump(tag_95)\n    tag_97:\n        /* \"#utility.yul\":4224:4230   */\n      dup4\n        /* \"#utility.yul\":4221:4222   */\n      dup2\n        /* \"#utility.yul\":4218:4231   */\n      gt\n        /* \"#utility.yul\":4215:4217   */\n      iszero\n      tag_98\n      jumpi\n        /* \"#utility.yul\":4304:4305   */\n      0x00\n        /* \"#utility.yul\":4295:4301   */\n      dup5\n        /* \"#utility.yul\":4290:4293   */\n      dup5\n        /* \"#utility.yul\":4286:4302   */\n      add\n        /* \"#utility.yul\":4279:4306   */\n      mstore\n        /* \"#utility.yul\":4215:4217   */\n    tag_98:\n        /* \"#utility.yul\":4064:4322   */\n      pop\n      pop\n      pop\n      pop\n      jump\t// out\n        /* \"#utility.yul\":4451:4568   */\n    tag_38:\n        /* \"#utility.yul\":4560:4561   */\n      0x00\n        /* \"#utility.yul\":4557:4558   */\n      dup1\n        /* \"#utility.yul\":4550:4562   */\n      revert\n        /* \"#utility.yul\":4574:4676   */\n    tag_53:\n        /* \"#utility.yul\":4615:4621   */\n      0x00\n        /* \"#utility.yul\":4666:4668   */\n      0x1f\n        /* \"#utility.yul\":4662:4669   */\n      not\n        /* \"#utility.yul\":4657:4659   */\n      0x1f\n        /* \"#utility.yul\":4650:4655   */\n      dup4\n        /* \"#utility.yul\":4646:4660   */\n      add\n        /* \"#utility.yul\":4642:4670   */\n      and\n        /* \"#utility.yul\":4632:4670   */\n      swap1\n      pop\n        /* \"#utility.yul\":4622:4676   */\n      swap2\n      swap1\n      pop\n      jump\t// out\n        /* \"#utility.yul\":4682:4804   */\n    tag_34:\n        /* \"#utility.yul\":4755:4779   */\n      tag_104\n        /* \"#utility.yul\":4773:4778   */\n      dup2\n        /* \"#utility.yul\":4755:4779   */\n      tag_82\n      jump\t// in\n    tag_104:\n        /* \"#utility.yul\":4748:4753   */\n      dup2\n        /* \"#utility.yul\":4745:4780   */\n      eq\n        /* \"#utility.yul\":4735:4737   */\n      tag_105\n      jumpi\n        /* \"#utility.yul\":4794:4795   */\n      0x00\n        /* \"#utility.yul\":4791:4792   */\n      dup1\n        /* \"#utility.yul\":4784:4796   */\n      revert\n        /* \"#utility.yul\":4735:4737   */\n    tag_105:\n        /* \"#utility.yul\":4725:4804   */\n      pop\n      jump\t// out\n\n    auxdata: 0xa26469706673582212207588a84df62b8584b516609fda01a65f2955bfde4bb75823f548edcbb83c1df364736f6c63430008060033\n}\n",
				"bytecode": {
					"linkReferences": {},
					"object": "608060405234801561001057600080fd5b5061052d806100206000396000f3fe608060405234801561001057600080fd5b50600436106100365760003560e01c8063512ca9471461003b5780639f1110631461006c575b600080fd5b610055600480360381019061005091906102c0565b61009d565b60405161006392919061039b565b60405180910390f35b610086600480360381019061008191906102c0565b6101a4565b60405161009492919061039b565b60405180910390f35b600060608273ffffffffffffffffffffffffffffffffffffffff16607b6040516024016100ca91906103e6565b6040516020818303038152906040527f4018d9aa000000000000000000000000000000000000000000000000000000007bffffffffffffffffffffffffffffffffffffffffffffffffffffffff19166020820180517bffffffffffffffffffffffffffffffffffffffffffffffffffffffff83818316178352505050506040516101549190610384565b6000604051808303816000865af19150503d8060008114610191576040519150601f19603f3d011682016040523d82523d6000602084013e610196565b606091505b508092508193505050915091565b600060608273ffffffffffffffffffffffffffffffffffffffff16607a6040516024016101d191906103cb565b6040516020818303038152906040527f09cdcf9b000000000000000000000000000000000000000000000000000000007bffffffffffffffffffffffffffffffffffffffffffffffffffffffff19166020820180517bffffffffffffffffffffffffffffffffffffffffffffffffffffffff838183161783525050505060405161025b9190610384565b6000604051808303816000865af19150503d8060008114610298576040519150601f19603f3d011682016040523d82523d6000602084013e61029d565b606091505b508092508193505050915091565b6000813590506102ba816104e0565b92915050565b6000602082840312156102d6576102d56104ca565b5b60006102e4848285016102ab565b91505092915050565b6102f68161043a565b82525050565b600061030782610401565b610311818561040c565b9350610321818560208601610497565b61032a816104cf565b840191505092915050565b600061034082610401565b61034a818561041d565b935061035a818560208601610497565b80840191505092915050565b61036f81610473565b82525050565b61037e81610485565b82525050565b60006103908284610335565b915081905092915050565b60006040820190506103b060008301856102ed565b81810360208301526103c281846102fc565b90509392505050565b60006020820190506103e06000830184610366565b92915050565b60006020820190506103fb6000830184610375565b92915050565b600081519050919050565b600082825260208201905092915050565b600081905092915050565b600061043382610446565b9050919050565b60008115159050919050565b600073ffffffffffffffffffffffffffffffffffffffff82169050919050565b600060ff82169050919050565b600061047e82610466565b9050919050565b600061049082610466565b9050919050565b60005b838110156104b557808201518184015260208101905061049a565b838111156104c4576000848401525b50505050565b600080fd5b6000601f19601f8301169050919050565b6104e981610428565b81146104f457600080fd5b5056fea26469706673582212207588a84df62b8584b516609fda01a65f2955bfde4bb75823f548edcbb83c1df364736f6c63430008060033",
					"opcodes": "PUSH1 0x80 PUSH1 0x40 MSTORE CALLVALUE DUP1 ISZERO PUSH2 0x10 JUMPI PUSH1 0x0 DUP1 REVERT JUMPDEST POP PUSH2 0x52D DUP1 PUSH2 0x20 PUSH1 0x0 CODECOPY PUSH1 0x0 RETURN INVALID PUSH1 0x80 PUSH1 0x40 MSTORE CALLVALUE DUP1 ISZERO PUSH2 0x10 JUMPI PUSH1 0x0 DUP1 REVERT JUMPDEST POP PUSH1 0x4 CALLDATASIZE LT PUSH2 0x36 JUMPI PUSH1 0x0 CALLDATALOAD PUSH1 0xE0 SHR DUP1 PUSH4 0x512CA947 EQ PUSH2 0x3B JUMPI DUP1 PUSH4 0x9F111063 EQ PUSH2 0x6C JUMPI JUMPDEST PUSH1 0x0 DUP1 REVERT JUMPDEST PUSH2 0x55 PUSH1 0x4 DUP1 CALLDATASIZE SUB DUP2 ADD SWAP1 PUSH2 0x50 SWAP2 SWAP1 PUSH2 0x2C0 JUMP JUMPDEST PUSH2 0x9D JUMP JUMPDEST PUSH1 0x40 MLOAD PUSH2 0x63 SWAP3 SWAP2 SWAP1 PUSH2 0x39B JUMP JUMPDEST PUSH1 0x40 MLOAD DUP1 SWAP2 SUB SWAP1 RETURN JUMPDEST PUSH2 0x86 PUSH1 0x4 DUP1 CALLDATASIZE SUB DUP2 ADD SWAP1 PUSH2 0x81 SWAP2 SWAP1 PUSH2 0x2C0 JUMP JUMPDEST PUSH2 0x1A4 JUMP JUMPDEST PUSH1 0x40 MLOAD PUSH2 0x94 SWAP3 SWAP2 SWAP1 PUSH2 0x39B JUMP JUMPDEST PUSH1 0x40 MLOAD DUP1 SWAP2 SUB SWAP1 RETURN JUMPDEST PUSH1 0x0 PUSH1 0x60 DUP3 PUSH20 0xFFFFFFFFFFFFFFFFFFFFFFFFFFFFFFFFFFFFFFFF AND PUSH1 0x7B PUSH1 0x40 MLOAD PUSH1 0x24 ADD PUSH2 0xCA SWAP2 SWAP1 PUSH2 0x3E6 JUMP JUMPDEST PUSH1 0x40 MLOAD PUSH1 0x20 DUP2 DUP4 SUB SUB DUP2 MSTORE SWAP1 PUSH1 0x40 MSTORE PUSH32 0x4018D9AA00000000000000000000000000000000000000000000000000000000 PUSH28 0xFFFFFFFFFFFFFFFFFFFFFFFFFFFFFFFFFFFFFFFFFFFFFFFFFFFFFFFF NOT AND PUSH1 0x20 DUP3 ADD DUP1 MLOAD PUSH28 0xFFFFFFFFFFFFFFFFFFFFFFFFFFFFFFFFFFFFFFFFFFFFFFFFFFFFFFFF DUP4 DUP2 DUP4 AND OR DUP4 MSTORE POP POP POP POP PUSH1 0x40 MLOAD PUSH2 0x154 SWAP2 SWAP1 PUSH2 0x384 JUMP JUMPDEST PUSH1 0x0 PUSH1 0x40 MLOAD DUP1 DUP4 SUB DUP2 PUSH1 0x0 DUP7 GAS CALL SWAP2 POP POP RETURNDATASIZE DUP1 PUSH1 0x0 DUP2 EQ PUSH2 0x191 JUMPI PUSH1 0x40 MLOAD SWAP2 POP PUSH1 0x1F NOT PUSH1 0x3F RETURNDATASIZE ADD AND DUP3 ADD PUSH1 0x40 MSTORE RETURNDATASIZE DUP3 MSTORE RETURNDATASIZE PUSH1 0x0 PUSH1 0x20 DUP5 ADD RETURNDATACOPY PUSH2 0x196 JUMP JUMPDEST PUSH1 0x60 SWAP2 POP JUMPDEST POP DUP1 SWAP3 POP DUP2 SWAP4 POP POP POP SWAP2 POP SWAP2 JUMP JUMPDEST PUSH1 0x0 PUSH1 0x60 DUP3 PUSH20 0xFFFFFFFFFFFFFFFFFFFFFFFFFFFFFFFFFFFFFFFF AND PUSH1 0x7A PUSH1 0x40 MLOAD PUSH1 0x24 ADD PUSH2 0x1D1 SWAP2 SWAP1 PUSH2 0x3CB JUMP JUMPDEST PUSH1 0x40 MLOAD PUSH1 0x20 DUP2 DUP4 SUB SUB DUP2 MSTORE SWAP1 PUSH1 0x40 MSTORE PUSH32 0x9CDCF9B00000000000000000000000000000000000000000000000000000000 PUSH28 0xFFFFFFFFFFFFFFFFFFFFFFFFFFFFFFFFFFFFFFFFFFFFFFFFFFFFFFFF NOT AND PUSH1 0x20 DUP3 ADD DUP1 MLOAD PUSH28 0xFFFFFFFFFFFFFFFFFFFFFFFFFFFFFFFFFFFFFFFFFFFFFFFFFFFFFFFF DUP4 DUP2 DUP4 AND OR DUP4 MSTORE POP POP POP POP PUSH1 0x40 MLOAD PUSH2 0x25B SWAP2 SWAP1 PUSH2 0x384 JUMP JUMPDEST PUSH1 0x0 PUSH1 0x40 MLOAD DUP1 DUP4 SUB DUP2 PUSH1 0x0 DUP7 GAS CALL SWAP2 POP POP RETURNDATASIZE DUP1 PUSH1 0x0 DUP2 EQ PUSH2 0x298 JUMPI PUSH1 0x40 MLOAD SWAP2 POP PUSH1 0x1F NOT PUSH1 0x3F RETURNDATASIZE ADD AND DUP3 ADD PUSH1 0x40 MSTORE RETURNDATASIZE DUP3 MSTORE RETURNDATASIZE PUSH1 0x0 PUSH1 0x20 DUP5 ADD RETURNDATACOPY PUSH2 0x29D JUMP JUMPDEST PUSH1 0x60 SWAP2 POP JUMPDEST POP DUP1 SWAP3 POP DUP2 SWAP4 POP POP POP SWAP2 POP SWAP2 JUMP JUMPDEST PUSH1 0x0 DUP2 CALLDATALOAD SWAP1 POP PUSH2 0x2BA DUP2 PUSH2 0x4E0 JUMP JUMPDEST SWAP3 SWAP2 POP POP JUMP JUMPDEST PUSH1 0x0 PUSH1 0x20 DUP3 DUP5 SUB SLT ISZERO PUSH2 0x2D6 JUMPI PUSH2 0x2D5 PUSH2 0x4CA JUMP JUMPDEST JUMPDEST PUSH1 0x0 PUSH2 0x2E4 DUP5 DUP3 DUP6 ADD PUSH2 0x2AB JUMP JUMPDEST SWAP2 POP POP SWAP3 SWAP2 POP POP JUMP JUMPDEST PUSH2 0x2F6 DUP2 PUSH2 0x43A JUMP JUMPDEST DUP3 MSTORE POP POP JUMP JUMPDEST PUSH1 0x0 PUSH2 0x307 DUP3 PUSH2 0x401 JUMP JUMPDEST PUSH2 0x311 DUP2 DUP6 PUSH2 0x40C JUMP JUMPDEST SWAP4 POP PUSH2 0x321 DUP2 DUP6 PUSH1 0x20 DUP7 ADD PUSH2 0x497 JUMP JUMPDEST PUSH2 0x32A DUP2 PUSH2 0x4CF JUMP JUMPDEST DUP5 ADD SWAP2 POP POP SWAP3 SWAP2 POP POP JUMP JUMPDEST PUSH1 0x0 PUSH2 0x340 DUP3 PUSH2 0x401 JUMP JUMPDEST PUSH2 0x34A DUP2 DUP6 PUSH2 0x41D JUMP JUMPDEST SWAP4 POP PUSH2 0x35A DUP2 DUP6 PUSH1 0x20 DUP7 ADD PUSH2 0x497 JUMP JUMPDEST DUP1 DUP5 ADD SWAP2 POP POP SWAP3 SWAP2 POP POP JUMP JUMPDEST PUSH2 0x36F DUP2 PUSH2 0x473 JUMP JUMPDEST DUP3 MSTORE POP POP JUMP JUMPDEST PUSH2 0x37E DUP2 PUSH2 0x485 JUMP JUMPDEST DUP3 MSTORE POP POP JUMP JUMPDEST PUSH1 0x0 PUSH2 0x390 DUP3 DUP5 PUSH2 0x335 JUMP JUMPDEST SWAP2 POP DUP2 SWAP1 POP SWAP3 SWAP2 POP POP JUMP JUMPDEST PUSH1 0x0 PUSH1 0x40 DUP3 ADD SWAP1 POP PUSH2 0x3B0 PUSH1 0x0 DUP4 ADD DUP6 PUSH2 0x2ED JUMP JUMPDEST DUP2 DUP2 SUB PUSH1 0x20 DUP4 ADD MSTORE PUSH2 0x3C2 DUP2 DUP5 PUSH2 0x2FC JUMP JUMPDEST SWAP1 POP SWAP4 SWAP3 POP POP POP JUMP JUMPDEST PUSH1 0x0 PUSH1 0x20 DUP3 ADD SWAP1 POP PUSH2 0x3E0 PUSH1 0x0 DUP4 ADD DUP5 PUSH2 0x366 JUMP JUMPDEST SWAP3 SWAP2 POP POP JUMP JUMPDEST PUSH1 0x0 PUSH1 0x20 DUP3 ADD SWAP1 POP PUSH2 0x3FB PUSH1 0x0 DUP4 ADD DUP5 PUSH2 0x375 JUMP JUMPDEST SWAP3 SWAP2 POP POP JUMP JUMPDEST PUSH1 0x0 DUP2 MLOAD SWAP1 POP SWAP2 SWAP1 POP JUMP JUMPDEST PUSH1 0x0 DUP3 DUP3 MSTORE PUSH1 0x20 DUP3 ADD SWAP1 POP SWAP3 SWAP2 POP POP JUMP JUMPDEST PUSH1 0x0 DUP2 SWAP1 POP SWAP3 SWAP2 POP POP JUMP JUMPDEST PUSH1 0x0 PUSH2 0x433 DUP3 PUSH2 0x446 JUMP JUMPDEST SWAP1 POP SWAP2 SWAP1 POP JUMP JUMPDEST PUSH1 0x0 DUP2 ISZERO ISZERO SWAP1 POP SWAP2 SWAP1 POP JUMP JUMPDEST PUSH1 0x0 PUSH20 0xFFFFFFFFFFFFFFFFFFFFFFFFFFFFFFFFFFFFFFFF DUP3 AND SWAP1 POP SWAP2 SWAP1 POP JUMP JUMPDEST PUSH1 0x0 PUSH1 0xFF DUP3 AND SWAP1 POP SWAP2 SWAP1 POP JUMP JUMPDEST PUSH1 0x0 PUSH2 0x47E DUP3 PUSH2 0x466 JUMP JUMPDEST SWAP1 POP SWAP2 SWAP1 POP JUMP JUMPDEST PUSH1 0x0 PUSH2 0x490 DUP3 PUSH2 0x466 JUMP JUMPDEST SWAP1 POP SWAP2 SWAP1 POP JUMP JUMPDEST PUSH1 0x0 JUMPDEST DUP4 DUP2 LT ISZERO PUSH2 0x4B5 JUMPI DUP1 DUP3 ADD MLOAD DUP2 DUP5 ADD MSTORE PUSH1 0x20 DUP2 ADD SWAP1 POP PUSH2 0x49A JUMP JUMPDEST DUP4 DUP2 GT ISZERO PUSH2 0x4C4 JUMPI PUSH1 0x0 DUP5 DUP5 ADD MSTORE JUMPDEST POP POP POP POP JUMP JUMPDEST PUSH1 0x0 DUP1 REVERT JUMPDEST PUSH1 0x0 PUSH1 0x1F NOT PUSH1 0x1F DUP4 ADD AND SWAP1 POP SWAP2 SWAP1 POP JUMP JUMPDEST PUSH2 0x4E9 DUP2 PUSH2 0x428 JUMP JUMPDEST DUP2 EQ PUSH2 0x4F4 JUMPI PUSH1 0x0 DUP1 REVERT JUMPDEST POP JUMP INVALID LOG2 PUSH5 0x6970667358 0x22 SLT KECCAK256 PUSH22 0x88A84DF62B8584B516609FDA01A65F2955BFDE4BB758 0x23 CREATE2 0x48 0xED 0xCB 0xB8 EXTCODECOPY SAR RETURN PUSH5 0x736F6C6343 STOP ADDMOD MOD STOP CALLER "
				},
				"gasEstimates": {
					"creation": {
						"codeDepositCost": "265000",
						"executionCost": "306",
						"totalCost": "265306"
					},
					"external": {
						"example(address)": "infinite",
						"example1(address)": "infinite"
					}
				},
				"methodIdentifiers": {
					"example(address)": "512ca947",
					"example1(address)": "9f111063"
				}
			},
			"storageLayout": {
				"storage": [],
				"types": null
			},
			"userdoc": {
				"kind": "user",
				"methods": {},
				"version": 1
			}
		}
	}
}