{
	"study/chapter04/4getter.sol": {
		"testGetter": {
			"abi": [
				{
					"inputs": [],
					"name": "data",
					"outputs": [
						{
							"internalType": "uint256",
							"name": "",
							"type": "uint256"
						}
					],
					"stateMutability": "view",
					"type": "function"
				},
				{
					"inputs": [],
					"name": "getDate",
					"outputs": [
						{
							"internalType": "uint256",
							"name": "",
							"type": "uint256"
						}
					],
					"stateMutability": "nonpayable",
					"type": "function"
				}
			],
			"devdoc": {
				"kind": "dev",
				"methods": {},
				"version": 1
			},
			"evm": {
				"assembly": "    /* \"study/chapter04/4getter.sol\":54:235  contract testGetter{... */\n  mstore(0x40, 0x80)\n  callvalue\n  dup1\n  iszero\n  tag_1\n  jumpi\n  0x00\n  dup1\n  revert\ntag_1:\n  pop\n  dataSize(sub_0)\n  dup1\n  dataOffset(sub_0)\n  0x00\n  codecopy\n  0x00\n  return\nstop\n\nsub_0: assembly {\n        /* \"study/chapter04/4getter.sol\":54:235  contract testGetter{... */\n      mstore(0x40, 0x80)\n      callvalue\n      dup1\n      iszero\n      tag_1\n      jumpi\n      0x00\n      dup1\n      revert\n    tag_1:\n      pop\n      jumpi(tag_2, lt(calldatasize, 0x04))\n      shr(0xe0, calldataload(0x00))\n      dup1\n      0x430fe9c1\n      eq\n      tag_3\n      jumpi\n      dup1\n      0x73d4a13a\n      eq\n      tag_4\n      jumpi\n    tag_2:\n      0x00\n      dup1\n      revert\n        /* \"study/chapter04/4getter.sol\":101:233  function getDate() public returns (uint) {... */\n    tag_3:\n      tag_5\n      tag_6\n      jump\t// in\n    tag_5:\n      mload(0x40)\n      tag_7\n      swap2\n      swap1\n      tag_8\n      jump\t// in\n    tag_7:\n      mload(0x40)\n      dup1\n      swap2\n      sub\n      swap1\n      return\n        /* \"study/chapter04/4getter.sol\":79:95  uint public data */\n    tag_4:\n      tag_9\n      tag_10\n      jump\t// in\n    tag_9:\n      mload(0x40)\n      tag_11\n      swap2\n      swap1\n      tag_8\n      jump\t// in\n    tag_11:\n      mload(0x40)\n      dup1\n      swap2\n      sub\n      swap1\n      return\n        /* \"study/chapter04/4getter.sol\":101:233  function getDate() public returns (uint) {... */\n    tag_6:\n        /* \"study/chapter04/4getter.sol\":136:140  uint */\n      0x00\n        /* \"study/chapter04/4getter.sol\":159:160  3 */\n      0x03\n        /* \"study/chapter04/4getter.sol\":152:156  data */\n      0x00\n        /* \"study/chapter04/4getter.sol\":152:160  data = 3 */\n      dup2\n      swap1\n      sstore\n      pop\n        /* \"study/chapter04/4getter.sol\":196:200  this */\n      address\n        /* \"study/chapter04/4getter.sol\":196:205  this.data */\n      0xffffffffffffffffffffffffffffffffffffffff\n      and\n      0x73d4a13a\n        /* \"study/chapter04/4getter.sol\":196:207  this.data() */\n      mload(0x40)\n      dup2\n      0xffffffff\n      and\n      0xe0\n      shl\n      dup2\n      mstore\n      0x04\n      add\n      0x20\n      mload(0x40)\n      dup1\n      dup4\n      sub\n      dup2\n      dup7\n      dup1\n      extcodesize\n      iszero\n      dup1\n      iszero\n      tag_13\n      jumpi\n      0x00\n      dup1\n      revert\n    tag_13:\n      pop\n      gas\n      staticcall\n      iszero\n      dup1\n      iszero\n      tag_15\n      jumpi\n      returndatasize\n      0x00\n      dup1\n      returndatacopy\n      revert(0x00, returndatasize)\n    tag_15:\n      pop\n      pop\n      pop\n      pop\n      mload(0x40)\n      returndatasize\n      not(0x1f)\n      0x1f\n      dup3\n      add\n      and\n      dup3\n      add\n      dup1\n      0x40\n      mstore\n      pop\n      dup2\n      add\n      swap1\n      tag_16\n      swap2\n      swap1\n      tag_17\n      jump\t// in\n    tag_16:\n        /* \"study/chapter04/4getter.sol\":189:207  return this.data() */\n      swap1\n      pop\n        /* \"study/chapter04/4getter.sol\":101:233  function getDate() public returns (uint) {... */\n      swap1\n      jump\t// out\n        /* \"study/chapter04/4getter.sol\":79:95  uint public data */\n    tag_10:\n      sload(0x00)\n      dup2\n      jump\t// out\n        /* \"#utility.yul\":7:150   */\n    tag_19:\n        /* \"#utility.yul\":64:69   */\n      0x00\n        /* \"#utility.yul\":95:101   */\n      dup2\n        /* \"#utility.yul\":89:102   */\n      mload\n        /* \"#utility.yul\":80:102   */\n      swap1\n      pop\n        /* \"#utility.yul\":111:144   */\n      tag_21\n        /* \"#utility.yul\":138:143   */\n      dup2\n        /* \"#utility.yul\":111:144   */\n      tag_22\n      jump\t// in\n    tag_21:\n        /* \"#utility.yul\":7:150   */\n      swap3\n      swap2\n      pop\n      pop\n      jump\t// out\n        /* \"#utility.yul\":156:507   */\n    tag_17:\n        /* \"#utility.yul\":226:232   */\n      0x00\n        /* \"#utility.yul\":275:277   */\n      0x20\n        /* \"#utility.yul\":263:272   */\n      dup3\n        /* \"#utility.yul\":254:261   */\n      dup5\n        /* \"#utility.yul\":250:273   */\n      sub\n        /* \"#utility.yul\":246:278   */\n      slt\n        /* \"#utility.yul\":243:362   */\n      iszero\n      tag_24\n      jumpi\n        /* \"#utility.yul\":281:360   */\n      tag_25\n      tag_26\n      jump\t// in\n    tag_25:\n        /* \"#utility.yul\":243:362   */\n    tag_24:\n        /* \"#utility.yul\":401:402   */\n      0x00\n        /* \"#utility.yul\":426:490   */\n      tag_27\n        /* \"#utility.yul\":482:489   */\n      dup5\n        /* \"#utility.yul\":473:479   */\n      dup3\n        /* \"#utility.yul\":462:471   */\n      dup6\n        /* \"#utility.yul\":458:480   */\n      add\n        /* \"#utility.yul\":426:490   */\n      tag_19\n      jump\t// in\n    tag_27:\n        /* \"#utility.yul\":416:490   */\n      swap2\n      pop\n        /* \"#utility.yul\":372:500   */\n      pop\n        /* \"#utility.yul\":156:507   */\n      swap3\n      swap2\n      pop\n      pop\n      jump\t// out\n        /* \"#utility.yul\":513:631   */\n    tag_28:\n        /* \"#utility.yul\":600:624   */\n      tag_30\n        /* \"#utility.yul\":618:623   */\n      dup2\n        /* \"#utility.yul\":600:624   */\n      tag_31\n      jump\t// in\n    tag_30:\n        /* \"#utility.yul\":595:598   */\n      dup3\n        /* \"#utility.yul\":588:625   */\n      mstore\n        /* \"#utility.yul\":513:631   */\n      pop\n      pop\n      jump\t// out\n        /* \"#utility.yul\":637:859   */\n    tag_8:\n        /* \"#utility.yul\":730:734   */\n      0x00\n        /* \"#utility.yul\":768:770   */\n      0x20\n        /* \"#utility.yul\":757:766   */\n      dup3\n        /* \"#utility.yul\":753:771   */\n      add\n        /* \"#utility.yul\":745:771   */\n      swap1\n      pop\n        /* \"#utility.yul\":781:852   */\n      tag_33\n        /* \"#utility.yul\":849:850   */\n      0x00\n        /* \"#utility.yul\":838:847   */\n      dup4\n        /* \"#utility.yul\":834:851   */\n      add\n        /* \"#utility.yul\":825:831   */\n      dup5\n        /* \"#utility.yul\":781:852   */\n      tag_28\n      jump\t// in\n    tag_33:\n        /* \"#utility.yul\":637:859   */\n      swap3\n      swap2\n      pop\n      pop\n      jump\t// out\n        /* \"#utility.yul\":946:1023   */\n    tag_31:\n        /* \"#utility.yul\":983:990   */\n      0x00\n        /* \"#utility.yul\":1012:1017   */\n      dup2\n        /* \"#utility.yul\":1001:1017   */\n      swap1\n      pop\n        /* \"#utility.yul\":946:1023   */\n      swap2\n      swap1\n      pop\n      jump\t// out\n        /* \"#utility.yul\":1152:1269   */\n    tag_26:\n        /* \"#utility.yul\":1261:1262   */\n      0x00\n        /* \"#utility.yul\":1258:1259   */\n      dup1\n        /* \"#utility.yul\":1251:1263   */\n      revert\n        /* \"#utility.yul\":1275:1397   */\n    tag_22:\n        /* \"#utility.yul\":1348:1372   */\n      tag_41\n        /* \"#utility.yul\":1366:1371   */\n      dup2\n        /* \"#utility.yul\":1348:1372   */\n      tag_31\n      jump\t// in\n    tag_41:\n        /* \"#utility.yul\":1341:1346   */\n      dup2\n        /* \"#utility.yul\":1338:1373   */\n      eq\n        /* \"#utility.yul\":1328:1391   */\n      tag_42\n      jumpi\n        /* \"#utility.yul\":1387:1388   */\n      0x00\n        /* \"#utility.yul\":1384:1385   */\n      dup1\n        /* \"#utility.yul\":1377:1389   */\n      revert\n        /* \"#utility.yul\":1328:1391   */\n    tag_42:\n        /* \"#utility.yul\":1275:1397   */\n      pop\n      jump\t// out\n\n    auxdata: 0xa2646970667358221220ceba154ece6892ae8404471b1799e0ac738721ddfdd75c40c4f4f75b4dcf721b64736f6c63430008070033\n}\n",
				"bytecode": {
					"linkReferences": {},
					"object": "608060405234801561001057600080fd5b506101d2806100206000396000f3fe608060405234801561001057600080fd5b50600436106100365760003560e01c8063430fe9c11461003b57806373d4a13a14610059575b600080fd5b610043610077565b604051610050919061015b565b60405180910390f35b610061610104565b60405161006e919061015b565b60405180910390f35b600060036000819055503073ffffffffffffffffffffffffffffffffffffffff166373d4a13a6040518163ffffffff1660e01b815260040160206040518083038186803b1580156100c757600080fd5b505afa1580156100db573d6000803e3d6000fd5b505050506040513d601f19601f820116820180604052508101906100ff919061011f565b905090565b60005481565b60008151905061011981610185565b92915050565b60006020828403121561013557610134610180565b5b60006101438482850161010a565b91505092915050565b61015581610176565b82525050565b6000602082019050610170600083018461014c565b92915050565b6000819050919050565b600080fd5b61018e81610176565b811461019957600080fd5b5056fea2646970667358221220ceba154ece6892ae8404471b1799e0ac738721ddfdd75c40c4f4f75b4dcf721b64736f6c63430008070033",
					"opcodes": "PUSH1 0x80 PUSH1 0x40 MSTORE CALLVALUE DUP1 ISZERO PUSH2 0x10 JUMPI PUSH1 0x0 DUP1 REVERT JUMPDEST POP PUSH2 0x1D2 DUP1 PUSH2 0x20 PUSH1 0x0 CODECOPY PUSH1 0x0 RETURN INVALID PUSH1 0x80 PUSH1 0x40 MSTORE CALLVALUE DUP1 ISZERO PUSH2 0x10 JUMPI PUSH1 0x0 DUP1 REVERT JUMPDEST POP PUSH1 0x4 CALLDATASIZE LT PUSH2 0x36 JUMPI PUSH1 0x0 CALLDATALOAD PUSH1 0xE0 SHR DUP1 PUSH4 0x430FE9C1 EQ PUSH2 0x3B JUMPI DUP1 PUSH4 0x73D4A13A EQ PUSH2 0x59 JUMPI JUMPDEST PUSH1 0x0 DUP1 REVERT JUMPDEST PUSH2 0x43 PUSH2 0x77 JUMP JUMPDEST PUSH1 0x40 MLOAD PUSH2 0x50 SWAP2 SWAP1 PUSH2 0x15B JUMP JUMPDEST PUSH1 0x40 MLOAD DUP1 SWAP2 SUB SWAP1 RETURN JUMPDEST PUSH2 0x61 PUSH2 0x104 JUMP JUMPDEST PUSH1 0x40 MLOAD PUSH2 0x6E SWAP2 SWAP1 PUSH2 0x15B JUMP JUMPDEST PUSH1 0x40 MLOAD DUP1 SWAP2 SUB SWAP1 RETURN JUMPDEST PUSH1 0x0 PUSH1 0x3 PUSH1 0x0 DUP2 SWAP1 SSTORE POP ADDRESS PUSH20 0xFFFFFFFFFFFFFFFFFFFFFFFFFFFFFFFFFFFFFFFF AND PUSH4 0x73D4A13A PUSH1 0x40 MLOAD DUP2 PUSH4 0xFFFFFFFF AND PUSH1 0xE0 SHL DUP2 MSTORE PUSH1 0x4 ADD PUSH1 0x20 PUSH1 0x40 MLOAD DUP1 DUP4 SUB DUP2 DUP7 DUP1 EXTCODESIZE ISZERO DUP1 ISZERO PUSH2 0xC7 JUMPI PUSH1 0x0 DUP1 REVERT JUMPDEST POP GAS STATICCALL ISZERO DUP1 ISZERO PUSH2 0xDB JUMPI RETURNDATASIZE PUSH1 0x0 DUP1 RETURNDATACOPY RETURNDATASIZE PUSH1 0x0 REVERT JUMPDEST POP POP POP POP PUSH1 0x40 MLOAD RETURNDATASIZE PUSH1 0x1F NOT PUSH1 0x1F DUP3 ADD AND DUP3 ADD DUP1 PUSH1 0x40 MSTORE POP DUP2 ADD SWAP1 PUSH2 0xFF SWAP2 SWAP1 PUSH2 0x11F JUMP JUMPDEST SWAP1 POP SWAP1 JUMP JUMPDEST PUSH1 0x0 SLOAD DUP2 JUMP JUMPDEST PUSH1 0x0 DUP2 MLOAD SWAP1 POP PUSH2 0x119 DUP2 PUSH2 0x185 JUMP JUMPDEST SWAP3 SWAP2 POP POP JUMP JUMPDEST PUSH1 0x0 PUSH1 0x20 DUP3 DUP5 SUB SLT ISZERO PUSH2 0x135 JUMPI PUSH2 0x134 PUSH2 0x180 JUMP JUMPDEST JUMPDEST PUSH1 0x0 PUSH2 0x143 DUP5 DUP3 DUP6 ADD PUSH2 0x10A JUMP JUMPDEST SWAP2 POP POP SWAP3 SWAP2 POP POP JUMP JUMPDEST PUSH2 0x155 DUP2 PUSH2 0x176 JUMP JUMPDEST DUP3 MSTORE POP POP JUMP JUMPDEST PUSH1 0x0 PUSH1 0x20 DUP3 ADD SWAP1 POP PUSH2 0x170 PUSH1 0x0 DUP4 ADD DUP5 PUSH2 0x14C JUMP JUMPDEST SWAP3 SWAP2 POP POP JUMP JUMPDEST PUSH1 0x0 DUP2 SWAP1 POP SWAP2 SWAP1 POP JUMP JUMPDEST PUSH1 0x0 DUP1 REVERT JUMPDEST PUSH2 0x18E DUP2 PUSH2 0x176 JUMP JUMPDEST DUP2 EQ PUSH2 0x199 JUMPI PUSH1 0x0 DUP1 REVERT JUMPDEST POP JUMP INVALID LOG2 PUSH5 0x6970667358 0x22 SLT KECCAK256 0xCE 0xBA ISZERO 0x4E 0xCE PUSH9 0x92AE8404471B1799E0 0xAC PUSH20 0x8721DDFDD75C40C4F4F75B4DCF721B64736F6C63 NUMBER STOP ADDMOD SMOD STOP CALLER "
				},
				"gasEstimates": {
					"creation": {
						"codeDepositCost": "93200",
						"executionCost": "141",
						"totalCost": "93341"
					},
					"external": {
						"data()": "2429",
						"getDate()": "infinite"
					}
				},
				"methodIdentifiers": {
					"data()": "73d4a13a",
					"getDate()": "430fe9c1"
				}
			},
			"storageLayout": {
				"storage": [
					{
						"astId": 3,
						"contract": "study/chapter04/4getter.sol:testGetter",
						"label": "data",
						"offset": 0,
						"slot": "0",
						"type": "t_uint256"
					}
				],
				"types": {
					"t_uint256": {
						"encoding": "inplace",
						"label": "uint256",
						"numberOfBytes": "32"
					}
				}
			},
			"userdoc": {
				"kind": "user",
				"methods": {},
				"version": 1
			}
		}
	}
}