{
	"study/chapter11/proxyDeploy.sol": {
		"Proxy": {
			"abi": [
				{
					"anonymous": false,
					"inputs": [
						{
							"indexed": false,
							"internalType": "address",
							"name": "",
							"type": "address"
						}
					],
					"name": "Deploy",
					"type": "event"
				},
				{
					"stateMutability": "payable",
					"type": "fallback"
				},
				{
					"inputs": [
						{
							"internalType": "bytes",
							"name": "_code",
							"type": "bytes"
						}
					],
					"name": "deploy",
					"outputs": [
						{
							"internalType": "address",
							"name": "addr",
							"type": "address"
						}
					],
					"stateMutability": "payable",
					"type": "function"
				},
				{
					"inputs": [
						{
							"internalType": "address",
							"name": "target",
							"type": "address"
						},
						{
							"internalType": "bytes",
							"name": "_data",
							"type": "bytes"
						}
					],
					"name": "excte",
					"outputs": [],
					"stateMutability": "payable",
					"type": "function"
				},
				{
					"stateMutability": "payable",
					"type": "receive"
				}
			],
			"devdoc": {
				"kind": "dev",
				"methods": {},
				"version": 1
			},
			"evm": {
				"assembly": "    /* \"study/chapter11/proxyDeploy.sol\":506:1321  contract Proxy{... */\n  mstore(0x40, 0x80)\n  callvalue\n  dup1\n  iszero\n  tag_1\n  jumpi\n  0x00\n  dup1\n  revert\ntag_1:\n  pop\n  dataSize(sub_0)\n  dup1\n  dataOffset(sub_0)\n  0x00\n  codecopy\n  0x00\n  return\nstop\n\nsub_0: assembly {\n        /* \"study/chapter11/proxyDeploy.sol\":506:1321  contract Proxy{... */\n      mstore(0x40, 0x80)\n      jumpi(tag_1, lt(calldatasize, 0x04))\n      shr(0xe0, calldataload(0x00))\n      dup1\n      0x774360\n      eq\n      tag_3\n      jumpi\n      dup1\n      0x4eabf560\n      eq\n      tag_4\n      jumpi\n      jump(tag_2)\n    tag_1:\n      jumpi(tag_2, calldatasize)\n      stop\n    tag_2:\n      stop\n        /* \"study/chapter11/proxyDeploy.sol\":617:1149  function deploy(bytes memory _code)external payable returns(address addr){... */\n    tag_3:\n      tag_9\n      0x04\n      dup1\n      calldatasize\n      sub\n      dup2\n      add\n      swap1\n      tag_10\n      swap2\n      swap1\n      tag_11\n      jump\t// in\n    tag_10:\n      tag_12\n      jump\t// in\n    tag_9:\n      mload(0x40)\n      tag_13\n      swap2\n      swap1\n      tag_14\n      jump\t// in\n    tag_13:\n      mload(0x40)\n      dup1\n      swap2\n      sub\n      swap1\n      return\n        /* \"study/chapter11/proxyDeploy.sol\":1153:1319  function excte(address target,bytes memory _data)external payable {... */\n    tag_4:\n      tag_15\n      0x04\n      dup1\n      calldatasize\n      sub\n      dup2\n      add\n      swap1\n      tag_16\n      swap2\n      swap1\n      tag_17\n      jump\t// in\n    tag_16:\n      tag_18\n      jump\t// in\n    tag_15:\n      stop\n        /* \"study/chapter11/proxyDeploy.sol\":617:1149  function deploy(bytes memory _code)external payable returns(address addr){... */\n    tag_12:\n        /* \"study/chapter11/proxyDeploy.sol\":677:689  address addr */\n      0x00\n        /* \"study/chapter11/proxyDeploy.sol\":1052:1057  _code */\n      dup2\n        /* \"study/chapter11/proxyDeploy.sol\":1046:1058  mload(_code) */\n      mload\n        /* \"study/chapter11/proxyDeploy.sol\":1040:1044  0x20 */\n      0x20\n        /* \"study/chapter11/proxyDeploy.sol\":1034:1039  _code */\n      dup4\n        /* \"study/chapter11/proxyDeploy.sol\":1030:1045  add(_code,0x20) */\n      add\n        /* \"study/chapter11/proxyDeploy.sol\":1018:1029  callvalue() */\n      callvalue\n        /* \"study/chapter11/proxyDeploy.sol\":1011:1059  create(callvalue(),add(_code,0x20),mload(_code)) */\n      create\n        /* \"study/chapter11/proxyDeploy.sol\":1005:1059  addr:=create(callvalue(),add(_code,0x20),mload(_code)) */\n      swap1\n      pop\n        /* \"study/chapter11/proxyDeploy.sol\":1100:1101  0 */\n      0x00\n        /* \"study/chapter11/proxyDeploy.sol\":1084:1102  addr != address(0) */\n      0xffffffffffffffffffffffffffffffffffffffff\n      and\n        /* \"study/chapter11/proxyDeploy.sol\":1084:1088  addr */\n      dup2\n        /* \"study/chapter11/proxyDeploy.sol\":1084:1102  addr != address(0) */\n      0xffffffffffffffffffffffffffffffffffffffff\n      and\n      sub\n        /* \"study/chapter11/proxyDeploy.sol\":1076:1117  require(addr != address(0),\"deploy fail\") */\n      tag_20\n      jumpi\n      mload(0x40)\n      0x08c379a000000000000000000000000000000000000000000000000000000000\n      dup2\n      mstore\n      0x04\n      add\n      tag_21\n      swap1\n      tag_22\n      jump\t// in\n    tag_21:\n      mload(0x40)\n      dup1\n      swap2\n      sub\n      swap1\n      revert\n    tag_20:\n        /* \"study/chapter11/proxyDeploy.sol\":1131:1143  Deploy(addr) */\n      0x55ea6c6b31543d8e2ec6a72f71a79c0f4b72ed0d4757172b043d8f4f4cd84848\n        /* \"study/chapter11/proxyDeploy.sol\":1138:1142  addr */\n      dup2\n        /* \"study/chapter11/proxyDeploy.sol\":1131:1143  Deploy(addr) */\n      mload(0x40)\n      tag_23\n      swap2\n      swap1\n      tag_14\n      jump\t// in\n    tag_23:\n      mload(0x40)\n      dup1\n      swap2\n      sub\n      swap1\n      log1\n        /* \"study/chapter11/proxyDeploy.sol\":617:1149  function deploy(bytes memory _code)external payable returns(address addr){... */\n      swap2\n      swap1\n      pop\n      jump\t// out\n        /* \"study/chapter11/proxyDeploy.sol\":1153:1319  function excte(address target,bytes memory _data)external payable {... */\n    tag_18:\n        /* \"study/chapter11/proxyDeploy.sol\":1229:1241  bool success */\n      0x00\n        /* \"study/chapter11/proxyDeploy.sol\":1244:1250  target */\n      dup3\n        /* \"study/chapter11/proxyDeploy.sol\":1244:1255  target.call */\n      0xffffffffffffffffffffffffffffffffffffffff\n      and\n        /* \"study/chapter11/proxyDeploy.sol\":1262:1271  msg.value */\n      callvalue\n        /* \"study/chapter11/proxyDeploy.sol\":1273:1278  _data */\n      dup4\n        /* \"study/chapter11/proxyDeploy.sol\":1244:1279  target.call{value:msg.value}(_data) */\n      mload(0x40)\n      tag_25\n      swap2\n      swap1\n      tag_26\n      jump\t// in\n    tag_25:\n      0x00\n      mload(0x40)\n      dup1\n      dup4\n      sub\n      dup2\n      dup6\n      dup8\n      gas\n      call\n      swap3\n      pop\n      pop\n      pop\n      returndatasize\n      dup1\n      0x00\n      dup2\n      eq\n      tag_29\n      jumpi\n      mload(0x40)\n      swap2\n      pop\n      and(add(returndatasize, 0x3f), not(0x1f))\n      dup3\n      add\n      0x40\n      mstore\n      returndatasize\n      dup3\n      mstore\n      returndatasize\n      0x00\n      0x20\n      dup5\n      add\n      returndatacopy\n      jump(tag_28)\n    tag_29:\n      0x60\n      swap2\n      pop\n    tag_28:\n      pop\n        /* \"study/chapter11/proxyDeploy.sol\":1228:1279  (bool success,)=target.call{value:msg.value}(_data) */\n      pop\n      swap1\n      pop\n        /* \"study/chapter11/proxyDeploy.sol\":1296:1303  success */\n      dup1\n        /* \"study/chapter11/proxyDeploy.sol\":1288:1313  require(success,\"failed\") */\n      tag_30\n      jumpi\n      mload(0x40)\n      0x08c379a000000000000000000000000000000000000000000000000000000000\n      dup2\n      mstore\n      0x04\n      add\n      tag_31\n      swap1\n      tag_32\n      jump\t// in\n    tag_31:\n      mload(0x40)\n      dup1\n      swap2\n      sub\n      swap1\n      revert\n    tag_30:\n        /* \"study/chapter11/proxyDeploy.sol\":1219:1319  {... */\n      pop\n        /* \"study/chapter11/proxyDeploy.sol\":1153:1319  function excte(address target,bytes memory _data)external payable {... */\n      pop\n      pop\n      jump\t// out\n        /* \"#utility.yul\":7:82   */\n    tag_33:\n        /* \"#utility.yul\":40:46   */\n      0x00\n        /* \"#utility.yul\":73:75   */\n      0x40\n        /* \"#utility.yul\":67:76   */\n      mload\n        /* \"#utility.yul\":57:76   */\n      swap1\n      pop\n        /* \"#utility.yul\":7:82   */\n      swap1\n      jump\t// out\n        /* \"#utility.yul\":88:205   */\n    tag_34:\n        /* \"#utility.yul\":197:198   */\n      0x00\n        /* \"#utility.yul\":194:195   */\n      dup1\n        /* \"#utility.yul\":187:199   */\n      revert\n        /* \"#utility.yul\":211:328   */\n    tag_35:\n        /* \"#utility.yul\":320:321   */\n      0x00\n        /* \"#utility.yul\":317:318   */\n      dup1\n        /* \"#utility.yul\":310:322   */\n      revert\n        /* \"#utility.yul\":334:451   */\n    tag_36:\n        /* \"#utility.yul\":443:444   */\n      0x00\n        /* \"#utility.yul\":440:441   */\n      dup1\n        /* \"#utility.yul\":433:445   */\n      revert\n        /* \"#utility.yul\":457:574   */\n    tag_37:\n        /* \"#utility.yul\":566:567   */\n      0x00\n        /* \"#utility.yul\":563:564   */\n      dup1\n        /* \"#utility.yul\":556:568   */\n      revert\n        /* \"#utility.yul\":580:682   */\n    tag_38:\n        /* \"#utility.yul\":621:627   */\n      0x00\n        /* \"#utility.yul\":672:674   */\n      0x1f\n        /* \"#utility.yul\":668:675   */\n      not\n        /* \"#utility.yul\":663:665   */\n      0x1f\n        /* \"#utility.yul\":656:661   */\n      dup4\n        /* \"#utility.yul\":652:666   */\n      add\n        /* \"#utility.yul\":648:676   */\n      and\n        /* \"#utility.yul\":638:676   */\n      swap1\n      pop\n        /* \"#utility.yul\":580:682   */\n      swap2\n      swap1\n      pop\n      jump\t// out\n        /* \"#utility.yul\":688:868   */\n    tag_39:\n        /* \"#utility.yul\":736:813   */\n      0x4e487b7100000000000000000000000000000000000000000000000000000000\n        /* \"#utility.yul\":733:734   */\n      0x00\n        /* \"#utility.yul\":726:814   */\n      mstore\n        /* \"#utility.yul\":833:837   */\n      0x41\n        /* \"#utility.yul\":830:831   */\n      0x04\n        /* \"#utility.yul\":823:838   */\n      mstore\n        /* \"#utility.yul\":857:861   */\n      0x24\n        /* \"#utility.yul\":854:855   */\n      0x00\n        /* \"#utility.yul\":847:862   */\n      revert\n        /* \"#utility.yul\":874:1155   */\n    tag_40:\n        /* \"#utility.yul\":957:984   */\n      tag_69\n        /* \"#utility.yul\":979:983   */\n      dup3\n        /* \"#utility.yul\":957:984   */\n      tag_38\n      jump\t// in\n    tag_69:\n        /* \"#utility.yul\":949:955   */\n      dup2\n        /* \"#utility.yul\":945:985   */\n      add\n        /* \"#utility.yul\":1087:1093   */\n      dup2\n        /* \"#utility.yul\":1075:1085   */\n      dup2\n        /* \"#utility.yul\":1072:1094   */\n      lt\n        /* \"#utility.yul\":1051:1069   */\n      0xffffffffffffffff\n        /* \"#utility.yul\":1039:1049   */\n      dup3\n        /* \"#utility.yul\":1036:1070   */\n      gt\n        /* \"#utility.yul\":1033:1095   */\n      or\n        /* \"#utility.yul\":1030:1118   */\n      iszero\n      tag_70\n      jumpi\n        /* \"#utility.yul\":1098:1116   */\n      tag_71\n      tag_39\n      jump\t// in\n    tag_71:\n        /* \"#utility.yul\":1030:1118   */\n    tag_70:\n        /* \"#utility.yul\":1138:1148   */\n      dup1\n        /* \"#utility.yul\":1134:1136   */\n      0x40\n        /* \"#utility.yul\":1127:1149   */\n      mstore\n        /* \"#utility.yul\":917:1155   */\n      pop\n        /* \"#utility.yul\":874:1155   */\n      pop\n      pop\n      jump\t// out\n        /* \"#utility.yul\":1161:1290   */\n    tag_41:\n        /* \"#utility.yul\":1195:1201   */\n      0x00\n        /* \"#utility.yul\":1222:1242   */\n      tag_73\n      tag_33\n      jump\t// in\n    tag_73:\n        /* \"#utility.yul\":1212:1242   */\n      swap1\n      pop\n        /* \"#utility.yul\":1251:1284   */\n      tag_74\n        /* \"#utility.yul\":1279:1283   */\n      dup3\n        /* \"#utility.yul\":1271:1277   */\n      dup3\n        /* \"#utility.yul\":1251:1284   */\n      tag_40\n      jump\t// in\n    tag_74:\n        /* \"#utility.yul\":1161:1290   */\n      swap2\n      swap1\n      pop\n      jump\t// out\n        /* \"#utility.yul\":1296:1603   */\n    tag_42:\n        /* \"#utility.yul\":1357:1361   */\n      0x00\n        /* \"#utility.yul\":1447:1465   */\n      0xffffffffffffffff\n        /* \"#utility.yul\":1439:1445   */\n      dup3\n        /* \"#utility.yul\":1436:1466   */\n      gt\n        /* \"#utility.yul\":1433:1489   */\n      iszero\n      tag_76\n      jumpi\n        /* \"#utility.yul\":1469:1487   */\n      tag_77\n      tag_39\n      jump\t// in\n    tag_77:\n        /* \"#utility.yul\":1433:1489   */\n    tag_76:\n        /* \"#utility.yul\":1507:1536   */\n      tag_78\n        /* \"#utility.yul\":1529:1535   */\n      dup3\n        /* \"#utility.yul\":1507:1536   */\n      tag_38\n      jump\t// in\n    tag_78:\n        /* \"#utility.yul\":1499:1536   */\n      swap1\n      pop\n        /* \"#utility.yul\":1591:1595   */\n      0x20\n        /* \"#utility.yul\":1585:1589   */\n      dup2\n        /* \"#utility.yul\":1581:1596   */\n      add\n        /* \"#utility.yul\":1573:1596   */\n      swap1\n      pop\n        /* \"#utility.yul\":1296:1603   */\n      swap2\n      swap1\n      pop\n      jump\t// out\n        /* \"#utility.yul\":1609:1763   */\n    tag_43:\n        /* \"#utility.yul\":1693:1699   */\n      dup3\n        /* \"#utility.yul\":1688:1691   */\n      dup2\n        /* \"#utility.yul\":1683:1686   */\n      dup4\n        /* \"#utility.yul\":1670:1700   */\n      calldatacopy\n        /* \"#utility.yul\":1755:1756   */\n      0x00\n        /* \"#utility.yul\":1746:1752   */\n      dup4\n        /* \"#utility.yul\":1741:1744   */\n      dup4\n        /* \"#utility.yul\":1737:1753   */\n      add\n        /* \"#utility.yul\":1730:1757   */\n      mstore\n        /* \"#utility.yul\":1609:1763   */\n      pop\n      pop\n      pop\n      jump\t// out\n        /* \"#utility.yul\":1769:2179   */\n    tag_44:\n        /* \"#utility.yul\":1846:1851   */\n      0x00\n        /* \"#utility.yul\":1871:1936   */\n      tag_81\n        /* \"#utility.yul\":1887:1935   */\n      tag_82\n        /* \"#utility.yul\":1928:1934   */\n      dup5\n        /* \"#utility.yul\":1887:1935   */\n      tag_42\n      jump\t// in\n    tag_82:\n        /* \"#utility.yul\":1871:1936   */\n      tag_41\n      jump\t// in\n    tag_81:\n        /* \"#utility.yul\":1862:1936   */\n      swap1\n      pop\n        /* \"#utility.yul\":1959:1965   */\n      dup3\n        /* \"#utility.yul\":1952:1957   */\n      dup2\n        /* \"#utility.yul\":1945:1966   */\n      mstore\n        /* \"#utility.yul\":1997:2001   */\n      0x20\n        /* \"#utility.yul\":1990:1995   */\n      dup2\n        /* \"#utility.yul\":1986:2002   */\n      add\n        /* \"#utility.yul\":2035:2038   */\n      dup5\n        /* \"#utility.yul\":2026:2032   */\n      dup5\n        /* \"#utility.yul\":2021:2024   */\n      dup5\n        /* \"#utility.yul\":2017:2033   */\n      add\n        /* \"#utility.yul\":2014:2039   */\n      gt\n        /* \"#utility.yul\":2011:2123   */\n      iszero\n      tag_83\n      jumpi\n        /* \"#utility.yul\":2042:2121   */\n      tag_84\n      tag_37\n      jump\t// in\n    tag_84:\n        /* \"#utility.yul\":2011:2123   */\n    tag_83:\n        /* \"#utility.yul\":2132:2173   */\n      tag_85\n        /* \"#utility.yul\":2166:2172   */\n      dup5\n        /* \"#utility.yul\":2161:2164   */\n      dup3\n        /* \"#utility.yul\":2156:2159   */\n      dup6\n        /* \"#utility.yul\":2132:2173   */\n      tag_43\n      jump\t// in\n    tag_85:\n        /* \"#utility.yul\":1852:2179   */\n      pop\n        /* \"#utility.yul\":1769:2179   */\n      swap4\n      swap3\n      pop\n      pop\n      pop\n      jump\t// out\n        /* \"#utility.yul\":2198:2536   */\n    tag_45:\n        /* \"#utility.yul\":2253:2258   */\n      0x00\n        /* \"#utility.yul\":2302:2305   */\n      dup3\n        /* \"#utility.yul\":2295:2299   */\n      0x1f\n        /* \"#utility.yul\":2287:2293   */\n      dup4\n        /* \"#utility.yul\":2283:2300   */\n      add\n        /* \"#utility.yul\":2279:2306   */\n      slt\n        /* \"#utility.yul\":2269:2391   */\n      tag_87\n      jumpi\n        /* \"#utility.yul\":2310:2389   */\n      tag_88\n      tag_36\n      jump\t// in\n    tag_88:\n        /* \"#utility.yul\":2269:2391   */\n    tag_87:\n        /* \"#utility.yul\":2427:2433   */\n      dup2\n        /* \"#utility.yul\":2414:2434   */\n      calldataload\n        /* \"#utility.yul\":2452:2530   */\n      tag_89\n        /* \"#utility.yul\":2526:2529   */\n      dup5\n        /* \"#utility.yul\":2518:2524   */\n      dup3\n        /* \"#utility.yul\":2511:2515   */\n      0x20\n        /* \"#utility.yul\":2503:2509   */\n      dup7\n        /* \"#utility.yul\":2499:2516   */\n      add\n        /* \"#utility.yul\":2452:2530   */\n      tag_44\n      jump\t// in\n    tag_89:\n        /* \"#utility.yul\":2443:2530   */\n      swap2\n      pop\n        /* \"#utility.yul\":2259:2536   */\n      pop\n        /* \"#utility.yul\":2198:2536   */\n      swap3\n      swap2\n      pop\n      pop\n      jump\t// out\n        /* \"#utility.yul\":2542:3049   */\n    tag_11:\n        /* \"#utility.yul\":2610:2616   */\n      0x00\n        /* \"#utility.yul\":2659:2661   */\n      0x20\n        /* \"#utility.yul\":2647:2656   */\n      dup3\n        /* \"#utility.yul\":2638:2645   */\n      dup5\n        /* \"#utility.yul\":2634:2657   */\n      sub\n        /* \"#utility.yul\":2630:2662   */\n      slt\n        /* \"#utility.yul\":2627:2746   */\n      iszero\n      tag_91\n      jumpi\n        /* \"#utility.yul\":2665:2744   */\n      tag_92\n      tag_34\n      jump\t// in\n    tag_92:\n        /* \"#utility.yul\":2627:2746   */\n    tag_91:\n        /* \"#utility.yul\":2813:2814   */\n      0x00\n        /* \"#utility.yul\":2802:2811   */\n      dup3\n        /* \"#utility.yul\":2798:2815   */\n      add\n        /* \"#utility.yul\":2785:2816   */\n      calldataload\n        /* \"#utility.yul\":2843:2861   */\n      0xffffffffffffffff\n        /* \"#utility.yul\":2835:2841   */\n      dup2\n        /* \"#utility.yul\":2832:2862   */\n      gt\n        /* \"#utility.yul\":2829:2946   */\n      iszero\n      tag_93\n      jumpi\n        /* \"#utility.yul\":2865:2944   */\n      tag_94\n      tag_35\n      jump\t// in\n    tag_94:\n        /* \"#utility.yul\":2829:2946   */\n    tag_93:\n        /* \"#utility.yul\":2970:3032   */\n      tag_95\n        /* \"#utility.yul\":3024:3031   */\n      dup5\n        /* \"#utility.yul\":3015:3021   */\n      dup3\n        /* \"#utility.yul\":3004:3013   */\n      dup6\n        /* \"#utility.yul\":3000:3022   */\n      add\n        /* \"#utility.yul\":2970:3032   */\n      tag_45\n      jump\t// in\n    tag_95:\n        /* \"#utility.yul\":2960:3032   */\n      swap2\n      pop\n        /* \"#utility.yul\":2756:3042   */\n      pop\n        /* \"#utility.yul\":2542:3049   */\n      swap3\n      swap2\n      pop\n      pop\n      jump\t// out\n        /* \"#utility.yul\":3055:3181   */\n    tag_46:\n        /* \"#utility.yul\":3092:3099   */\n      0x00\n        /* \"#utility.yul\":3132:3174   */\n      0xffffffffffffffffffffffffffffffffffffffff\n        /* \"#utility.yul\":3125:3130   */\n      dup3\n        /* \"#utility.yul\":3121:3175   */\n      and\n        /* \"#utility.yul\":3110:3175   */\n      swap1\n      pop\n        /* \"#utility.yul\":3055:3181   */\n      swap2\n      swap1\n      pop\n      jump\t// out\n        /* \"#utility.yul\":3187:3283   */\n    tag_47:\n        /* \"#utility.yul\":3224:3231   */\n      0x00\n        /* \"#utility.yul\":3253:3277   */\n      tag_98\n        /* \"#utility.yul\":3271:3276   */\n      dup3\n        /* \"#utility.yul\":3253:3277   */\n      tag_46\n      jump\t// in\n    tag_98:\n        /* \"#utility.yul\":3242:3277   */\n      swap1\n      pop\n        /* \"#utility.yul\":3187:3283   */\n      swap2\n      swap1\n      pop\n      jump\t// out\n        /* \"#utility.yul\":3289:3407   */\n    tag_48:\n        /* \"#utility.yul\":3376:3400   */\n      tag_100\n        /* \"#utility.yul\":3394:3399   */\n      dup2\n        /* \"#utility.yul\":3376:3400   */\n      tag_47\n      jump\t// in\n    tag_100:\n        /* \"#utility.yul\":3371:3374   */\n      dup3\n        /* \"#utility.yul\":3364:3401   */\n      mstore\n        /* \"#utility.yul\":3289:3407   */\n      pop\n      pop\n      jump\t// out\n        /* \"#utility.yul\":3413:3635   */\n    tag_14:\n        /* \"#utility.yul\":3506:3510   */\n      0x00\n        /* \"#utility.yul\":3544:3546   */\n      0x20\n        /* \"#utility.yul\":3533:3542   */\n      dup3\n        /* \"#utility.yul\":3529:3547   */\n      add\n        /* \"#utility.yul\":3521:3547   */\n      swap1\n      pop\n        /* \"#utility.yul\":3557:3628   */\n      tag_102\n        /* \"#utility.yul\":3625:3626   */\n      0x00\n        /* \"#utility.yul\":3614:3623   */\n      dup4\n        /* \"#utility.yul\":3610:3627   */\n      add\n        /* \"#utility.yul\":3601:3607   */\n      dup5\n        /* \"#utility.yul\":3557:3628   */\n      tag_48\n      jump\t// in\n    tag_102:\n        /* \"#utility.yul\":3413:3635   */\n      swap3\n      swap2\n      pop\n      pop\n      jump\t// out\n        /* \"#utility.yul\":3641:3763   */\n    tag_49:\n        /* \"#utility.yul\":3714:3738   */\n      tag_104\n        /* \"#utility.yul\":3732:3737   */\n      dup2\n        /* \"#utility.yul\":3714:3738   */\n      tag_47\n      jump\t// in\n    tag_104:\n        /* \"#utility.yul\":3707:3712   */\n      dup2\n        /* \"#utility.yul\":3704:3739   */\n      eq\n        /* \"#utility.yul\":3694:3757   */\n      tag_105\n      jumpi\n        /* \"#utility.yul\":3753:3754   */\n      0x00\n        /* \"#utility.yul\":3750:3751   */\n      dup1\n        /* \"#utility.yul\":3743:3755   */\n      revert\n        /* \"#utility.yul\":3694:3757   */\n    tag_105:\n        /* \"#utility.yul\":3641:3763   */\n      pop\n      jump\t// out\n        /* \"#utility.yul\":3769:3908   */\n    tag_50:\n        /* \"#utility.yul\":3815:3820   */\n      0x00\n        /* \"#utility.yul\":3853:3859   */\n      dup2\n        /* \"#utility.yul\":3840:3860   */\n      calldataload\n        /* \"#utility.yul\":3831:3860   */\n      swap1\n      pop\n        /* \"#utility.yul\":3869:3902   */\n      tag_107\n        /* \"#utility.yul\":3896:3901   */\n      dup2\n        /* \"#utility.yul\":3869:3902   */\n      tag_49\n      jump\t// in\n    tag_107:\n        /* \"#utility.yul\":3769:3908   */\n      swap3\n      swap2\n      pop\n      pop\n      jump\t// out\n        /* \"#utility.yul\":3914:4566   */\n    tag_17:\n        /* \"#utility.yul\":3991:3997   */\n      0x00\n        /* \"#utility.yul\":3999:4005   */\n      dup1\n        /* \"#utility.yul\":4048:4050   */\n      0x40\n        /* \"#utility.yul\":4036:4045   */\n      dup4\n        /* \"#utility.yul\":4027:4034   */\n      dup6\n        /* \"#utility.yul\":4023:4046   */\n      sub\n        /* \"#utility.yul\":4019:4051   */\n      slt\n        /* \"#utility.yul\":4016:4135   */\n      iszero\n      tag_109\n      jumpi\n        /* \"#utility.yul\":4054:4133   */\n      tag_110\n      tag_34\n      jump\t// in\n    tag_110:\n        /* \"#utility.yul\":4016:4135   */\n    tag_109:\n        /* \"#utility.yul\":4174:4175   */\n      0x00\n        /* \"#utility.yul\":4199:4252   */\n      tag_111\n        /* \"#utility.yul\":4244:4251   */\n      dup6\n        /* \"#utility.yul\":4235:4241   */\n      dup3\n        /* \"#utility.yul\":4224:4233   */\n      dup7\n        /* \"#utility.yul\":4220:4242   */\n      add\n        /* \"#utility.yul\":4199:4252   */\n      tag_50\n      jump\t// in\n    tag_111:\n        /* \"#utility.yul\":4189:4252   */\n      swap3\n      pop\n        /* \"#utility.yul\":4145:4262   */\n      pop\n        /* \"#utility.yul\":4329:4331   */\n      0x20\n        /* \"#utility.yul\":4318:4327   */\n      dup4\n        /* \"#utility.yul\":4314:4332   */\n      add\n        /* \"#utility.yul\":4301:4333   */\n      calldataload\n        /* \"#utility.yul\":4360:4378   */\n      0xffffffffffffffff\n        /* \"#utility.yul\":4352:4358   */\n      dup2\n        /* \"#utility.yul\":4349:4379   */\n      gt\n        /* \"#utility.yul\":4346:4463   */\n      iszero\n      tag_112\n      jumpi\n        /* \"#utility.yul\":4382:4461   */\n      tag_113\n      tag_35\n      jump\t// in\n    tag_113:\n        /* \"#utility.yul\":4346:4463   */\n    tag_112:\n        /* \"#utility.yul\":4487:4549   */\n      tag_114\n        /* \"#utility.yul\":4541:4548   */\n      dup6\n        /* \"#utility.yul\":4532:4538   */\n      dup3\n        /* \"#utility.yul\":4521:4530   */\n      dup7\n        /* \"#utility.yul\":4517:4539   */\n      add\n        /* \"#utility.yul\":4487:4549   */\n      tag_45\n      jump\t// in\n    tag_114:\n        /* \"#utility.yul\":4477:4549   */\n      swap2\n      pop\n        /* \"#utility.yul\":4272:4559   */\n      pop\n        /* \"#utility.yul\":3914:4566   */\n      swap3\n      pop\n      swap3\n      swap1\n      pop\n      jump\t// out\n        /* \"#utility.yul\":4572:4741   */\n    tag_51:\n        /* \"#utility.yul\":4656:4667   */\n      0x00\n        /* \"#utility.yul\":4690:4696   */\n      dup3\n        /* \"#utility.yul\":4685:4688   */\n      dup3\n        /* \"#utility.yul\":4678:4697   */\n      mstore\n        /* \"#utility.yul\":4730:4734   */\n      0x20\n        /* \"#utility.yul\":4725:4728   */\n      dup3\n        /* \"#utility.yul\":4721:4735   */\n      add\n        /* \"#utility.yul\":4706:4735   */\n      swap1\n      pop\n        /* \"#utility.yul\":4572:4741   */\n      swap3\n      swap2\n      pop\n      pop\n      jump\t// out\n        /* \"#utility.yul\":4747:4908   */\n    tag_52:\n        /* \"#utility.yul\":4887:4900   */\n      0x6465706c6f79206661696c000000000000000000000000000000000000000000\n        /* \"#utility.yul\":4883:4884   */\n      0x00\n        /* \"#utility.yul\":4875:4881   */\n      dup3\n        /* \"#utility.yul\":4871:4885   */\n      add\n        /* \"#utility.yul\":4864:4901   */\n      mstore\n        /* \"#utility.yul\":4747:4908   */\n      pop\n      jump\t// out\n        /* \"#utility.yul\":4914:5280   */\n    tag_53:\n        /* \"#utility.yul\":5056:5059   */\n      0x00\n        /* \"#utility.yul\":5077:5144   */\n      tag_118\n        /* \"#utility.yul\":5141:5143   */\n      0x0b\n        /* \"#utility.yul\":5136:5139   */\n      dup4\n        /* \"#utility.yul\":5077:5144   */\n      tag_51\n      jump\t// in\n    tag_118:\n        /* \"#utility.yul\":5070:5144   */\n      swap2\n      pop\n        /* \"#utility.yul\":5153:5246   */\n      tag_119\n        /* \"#utility.yul\":5242:5245   */\n      dup3\n        /* \"#utility.yul\":5153:5246   */\n      tag_52\n      jump\t// in\n    tag_119:\n        /* \"#utility.yul\":5271:5273   */\n      0x20\n        /* \"#utility.yul\":5266:5269   */\n      dup3\n        /* \"#utility.yul\":5262:5274   */\n      add\n        /* \"#utility.yul\":5255:5274   */\n      swap1\n      pop\n        /* \"#utility.yul\":4914:5280   */\n      swap2\n      swap1\n      pop\n      jump\t// out\n        /* \"#utility.yul\":5286:5705   */\n    tag_22:\n        /* \"#utility.yul\":5452:5456   */\n      0x00\n        /* \"#utility.yul\":5490:5492   */\n      0x20\n        /* \"#utility.yul\":5479:5488   */\n      dup3\n        /* \"#utility.yul\":5475:5493   */\n      add\n        /* \"#utility.yul\":5467:5493   */\n      swap1\n      pop\n        /* \"#utility.yul\":5539:5548   */\n      dup2\n        /* \"#utility.yul\":5533:5537   */\n      dup2\n        /* \"#utility.yul\":5529:5549   */\n      sub\n        /* \"#utility.yul\":5525:5526   */\n      0x00\n        /* \"#utility.yul\":5514:5523   */\n      dup4\n        /* \"#utility.yul\":5510:5527   */\n      add\n        /* \"#utility.yul\":5503:5550   */\n      mstore\n        /* \"#utility.yul\":5567:5698   */\n      tag_121\n        /* \"#utility.yul\":5693:5697   */\n      dup2\n        /* \"#utility.yul\":5567:5698   */\n      tag_53\n      jump\t// in\n    tag_121:\n        /* \"#utility.yul\":5559:5698   */\n      swap1\n      pop\n        /* \"#utility.yul\":5286:5705   */\n      swap2\n      swap1\n      pop\n      jump\t// out\n        /* \"#utility.yul\":5711:5809   */\n    tag_54:\n        /* \"#utility.yul\":5762:5768   */\n      0x00\n        /* \"#utility.yul\":5796:5801   */\n      dup2\n        /* \"#utility.yul\":5790:5802   */\n      mload\n        /* \"#utility.yul\":5780:5802   */\n      swap1\n      pop\n        /* \"#utility.yul\":5711:5809   */\n      swap2\n      swap1\n      pop\n      jump\t// out\n        /* \"#utility.yul\":5815:5962   */\n    tag_55:\n        /* \"#utility.yul\":5916:5927   */\n      0x00\n        /* \"#utility.yul\":5953:5956   */\n      dup2\n        /* \"#utility.yul\":5938:5956   */\n      swap1\n      pop\n        /* \"#utility.yul\":5815:5962   */\n      swap3\n      swap2\n      pop\n      pop\n      jump\t// out\n        /* \"#utility.yul\":5968:6275   */\n    tag_56:\n        /* \"#utility.yul\":6036:6037   */\n      0x00\n        /* \"#utility.yul\":6046:6159   */\n    tag_125:\n        /* \"#utility.yul\":6060:6066   */\n      dup4\n        /* \"#utility.yul\":6057:6058   */\n      dup2\n        /* \"#utility.yul\":6054:6067   */\n      lt\n        /* \"#utility.yul\":6046:6159   */\n      iszero\n      tag_127\n      jumpi\n        /* \"#utility.yul\":6145:6146   */\n      dup1\n        /* \"#utility.yul\":6140:6143   */\n      dup3\n        /* \"#utility.yul\":6136:6147   */\n      add\n        /* \"#utility.yul\":6130:6148   */\n      mload\n        /* \"#utility.yul\":6126:6127   */\n      dup2\n        /* \"#utility.yul\":6121:6124   */\n      dup5\n        /* \"#utility.yul\":6117:6128   */\n      add\n        /* \"#utility.yul\":6110:6149   */\n      mstore\n        /* \"#utility.yul\":6082:6084   */\n      0x20\n        /* \"#utility.yul\":6079:6080   */\n      dup2\n        /* \"#utility.yul\":6075:6085   */\n      add\n        /* \"#utility.yul\":6070:6085   */\n      swap1\n      pop\n        /* \"#utility.yul\":6046:6159   */\n      jump(tag_125)\n    tag_127:\n        /* \"#utility.yul\":6177:6183   */\n      dup4\n        /* \"#utility.yul\":6174:6175   */\n      dup2\n        /* \"#utility.yul\":6171:6184   */\n      gt\n        /* \"#utility.yul\":6168:6269   */\n      iszero\n      tag_128\n      jumpi\n        /* \"#utility.yul\":6257:6258   */\n      0x00\n        /* \"#utility.yul\":6248:6254   */\n      dup5\n        /* \"#utility.yul\":6243:6246   */\n      dup5\n        /* \"#utility.yul\":6239:6255   */\n      add\n        /* \"#utility.yul\":6232:6259   */\n      mstore\n        /* \"#utility.yul\":6168:6269   */\n    tag_128:\n        /* \"#utility.yul\":6017:6275   */\n      pop\n        /* \"#utility.yul\":5968:6275   */\n      pop\n      pop\n      pop\n      jump\t// out\n        /* \"#utility.yul\":6281:6654   */\n    tag_57:\n        /* \"#utility.yul\":6385:6388   */\n      0x00\n        /* \"#utility.yul\":6413:6451   */\n      tag_130\n        /* \"#utility.yul\":6445:6450   */\n      dup3\n        /* \"#utility.yul\":6413:6451   */\n      tag_54\n      jump\t// in\n    tag_130:\n        /* \"#utility.yul\":6467:6555   */\n      tag_131\n        /* \"#utility.yul\":6548:6554   */\n      dup2\n        /* \"#utility.yul\":6543:6546   */\n      dup6\n        /* \"#utility.yul\":6467:6555   */\n      tag_55\n      jump\t// in\n    tag_131:\n        /* \"#utility.yul\":6460:6555   */\n      swap4\n      pop\n        /* \"#utility.yul\":6564:6616   */\n      tag_132\n        /* \"#utility.yul\":6609:6615   */\n      dup2\n        /* \"#utility.yul\":6604:6607   */\n      dup6\n        /* \"#utility.yul\":6597:6601   */\n      0x20\n        /* \"#utility.yul\":6590:6595   */\n      dup7\n        /* \"#utility.yul\":6586:6602   */\n      add\n        /* \"#utility.yul\":6564:6616   */\n      tag_56\n      jump\t// in\n    tag_132:\n        /* \"#utility.yul\":6641:6647   */\n      dup1\n        /* \"#utility.yul\":6636:6639   */\n      dup5\n        /* \"#utility.yul\":6632:6648   */\n      add\n        /* \"#utility.yul\":6625:6648   */\n      swap2\n      pop\n        /* \"#utility.yul\":6389:6654   */\n      pop\n        /* \"#utility.yul\":6281:6654   */\n      swap3\n      swap2\n      pop\n      pop\n      jump\t// out\n        /* \"#utility.yul\":6660:6931   */\n    tag_26:\n        /* \"#utility.yul\":6790:6793   */\n      0x00\n        /* \"#utility.yul\":6812:6905   */\n      tag_134\n        /* \"#utility.yul\":6901:6904   */\n      dup3\n        /* \"#utility.yul\":6892:6898   */\n      dup5\n        /* \"#utility.yul\":6812:6905   */\n      tag_57\n      jump\t// in\n    tag_134:\n        /* \"#utility.yul\":6805:6905   */\n      swap2\n      pop\n        /* \"#utility.yul\":6922:6925   */\n      dup2\n        /* \"#utility.yul\":6915:6925   */\n      swap1\n      pop\n        /* \"#utility.yul\":6660:6931   */\n      swap3\n      swap2\n      pop\n      pop\n      jump\t// out\n        /* \"#utility.yul\":6937:7093   */\n    tag_58:\n        /* \"#utility.yul\":7077:7085   */\n      0x6661696c65640000000000000000000000000000000000000000000000000000\n        /* \"#utility.yul\":7073:7074   */\n      0x00\n        /* \"#utility.yul\":7065:7071   */\n      dup3\n        /* \"#utility.yul\":7061:7075   */\n      add\n        /* \"#utility.yul\":7054:7086   */\n      mstore\n        /* \"#utility.yul\":6937:7093   */\n      pop\n      jump\t// out\n        /* \"#utility.yul\":7099:7464   */\n    tag_59:\n        /* \"#utility.yul\":7241:7244   */\n      0x00\n        /* \"#utility.yul\":7262:7328   */\n      tag_137\n        /* \"#utility.yul\":7326:7327   */\n      0x06\n        /* \"#utility.yul\":7321:7324   */\n      dup4\n        /* \"#utility.yul\":7262:7328   */\n      tag_51\n      jump\t// in\n    tag_137:\n        /* \"#utility.yul\":7255:7328   */\n      swap2\n      pop\n        /* \"#utility.yul\":7337:7430   */\n      tag_138\n        /* \"#utility.yul\":7426:7429   */\n      dup3\n        /* \"#utility.yul\":7337:7430   */\n      tag_58\n      jump\t// in\n    tag_138:\n        /* \"#utility.yul\":7455:7457   */\n      0x20\n        /* \"#utility.yul\":7450:7453   */\n      dup3\n        /* \"#utility.yul\":7446:7458   */\n      add\n        /* \"#utility.yul\":7439:7458   */\n      swap1\n      pop\n        /* \"#utility.yul\":7099:7464   */\n      swap2\n      swap1\n      pop\n      jump\t// out\n        /* \"#utility.yul\":7470:7889   */\n    tag_32:\n        /* \"#utility.yul\":7636:7640   */\n      0x00\n        /* \"#utility.yul\":7674:7676   */\n      0x20\n        /* \"#utility.yul\":7663:7672   */\n      dup3\n        /* \"#utility.yul\":7659:7677   */\n      add\n        /* \"#utility.yul\":7651:7677   */\n      swap1\n      pop\n        /* \"#utility.yul\":7723:7732   */\n      dup2\n        /* \"#utility.yul\":7717:7721   */\n      dup2\n        /* \"#utility.yul\":7713:7733   */\n      sub\n        /* \"#utility.yul\":7709:7710   */\n      0x00\n        /* \"#utility.yul\":7698:7707   */\n      dup4\n        /* \"#utility.yul\":7694:7711   */\n      add\n        /* \"#utility.yul\":7687:7734   */\n      mstore\n        /* \"#utility.yul\":7751:7882   */\n      tag_140\n        /* \"#utility.yul\":7877:7881   */\n      dup2\n        /* \"#utility.yul\":7751:7882   */\n      tag_59\n      jump\t// in\n    tag_140:\n        /* \"#utility.yul\":7743:7882   */\n      swap1\n      pop\n        /* \"#utility.yul\":7470:7889   */\n      swap2\n      swap1\n      pop\n      jump\t// out\n\n    auxdata: 0xa2646970667358221220de09425520f743ecc9f3550ef98baa2e2ac8122e08490df02d97e25ff5bf856e64736f6c634300080f0033\n}\n",
				"bytecode": {
					"linkReferences": {},
					"object": "608060405234801561001057600080fd5b50610622806100206000396000f3fe60806040526004361061002c5760003560e01c8062774360146100355780634eabf5601461006557610033565b3661003357005b005b61004f600480360381019061004a9190610345565b610081565b60405161005c91906103cf565b60405180910390f35b61007f600480360381019061007a9190610416565b610138565b005b600081516020830134f09050600073ffffffffffffffffffffffffffffffffffffffff168173ffffffffffffffffffffffffffffffffffffffff16036100fc576040517f08c379a00000000000000000000000000000000000000000000000000000000081526004016100f3906104cf565b60405180910390fd5b7f55ea6c6b31543d8e2ec6a72f71a79c0f4b72ed0d4757172b043d8f4f4cd848488160405161012b91906103cf565b60405180910390a1919050565b60008273ffffffffffffffffffffffffffffffffffffffff1634836040516101609190610569565b60006040518083038185875af1925050503d806000811461019d576040519150601f19603f3d011682016040523d82523d6000602084013e6101a2565b606091505b50509050806101e6576040517f08c379a00000000000000000000000000000000000000000000000000000000081526004016101dd906105cc565b60405180910390fd5b505050565b6000604051905090565b600080fd5b600080fd5b600080fd5b600080fd5b6000601f19601f8301169050919050565b7f4e487b7100000000000000000000000000000000000000000000000000000000600052604160045260246000fd5b61025282610209565b810181811067ffffffffffffffff821117156102715761027061021a565b5b80604052505050565b60006102846101eb565b90506102908282610249565b919050565b600067ffffffffffffffff8211156102b0576102af61021a565b5b6102b982610209565b9050602081019050919050565b82818337600083830152505050565b60006102e86102e384610295565b61027a565b90508281526020810184848401111561030457610303610204565b5b61030f8482856102c6565b509392505050565b600082601f83011261032c5761032b6101ff565b5b813561033c8482602086016102d5565b91505092915050565b60006020828403121561035b5761035a6101f5565b5b600082013567ffffffffffffffff811115610379576103786101fa565b5b61038584828501610317565b91505092915050565b600073ffffffffffffffffffffffffffffffffffffffff82169050919050565b60006103b98261038e565b9050919050565b6103c9816103ae565b82525050565b60006020820190506103e460008301846103c0565b92915050565b6103f3816103ae565b81146103fe57600080fd5b50565b600081359050610410816103ea565b92915050565b6000806040838503121561042d5761042c6101f5565b5b600061043b85828601610401565b925050602083013567ffffffffffffffff81111561045c5761045b6101fa565b5b61046885828601610317565b9150509250929050565b600082825260208201905092915050565b7f6465706c6f79206661696c000000000000000000000000000000000000000000600082015250565b60006104b9600b83610472565b91506104c482610483565b602082019050919050565b600060208201905081810360008301526104e8816104ac565b9050919050565b600081519050919050565b600081905092915050565b60005b83811015610523578082015181840152602081019050610508565b83811115610532576000848401525b50505050565b6000610543826104ef565b61054d81856104fa565b935061055d818560208601610505565b80840191505092915050565b60006105758284610538565b915081905092915050565b7f6661696c65640000000000000000000000000000000000000000000000000000600082015250565b60006105b6600683610472565b91506105c182610580565b602082019050919050565b600060208201905081810360008301526105e5816105a9565b905091905056fea2646970667358221220de09425520f743ecc9f3550ef98baa2e2ac8122e08490df02d97e25ff5bf856e64736f6c634300080f0033",
					"opcodes": "PUSH1 0x80 PUSH1 0x40 MSTORE CALLVALUE DUP1 ISZERO PUSH2 0x10 JUMPI PUSH1 0x0 DUP1 REVERT JUMPDEST POP PUSH2 0x622 DUP1 PUSH2 0x20 PUSH1 0x0 CODECOPY PUSH1 0x0 RETURN INVALID PUSH1 0x80 PUSH1 0x40 MSTORE PUSH1 0x4 CALLDATASIZE LT PUSH2 0x2C JUMPI PUSH1 0x0 CALLDATALOAD PUSH1 0xE0 SHR DUP1 PUSH3 0x774360 EQ PUSH2 0x35 JUMPI DUP1 PUSH4 0x4EABF560 EQ PUSH2 0x65 JUMPI PUSH2 0x33 JUMP JUMPDEST CALLDATASIZE PUSH2 0x33 JUMPI STOP JUMPDEST STOP JUMPDEST PUSH2 0x4F PUSH1 0x4 DUP1 CALLDATASIZE SUB DUP2 ADD SWAP1 PUSH2 0x4A SWAP2 SWAP1 PUSH2 0x345 JUMP JUMPDEST PUSH2 0x81 JUMP JUMPDEST PUSH1 0x40 MLOAD PUSH2 0x5C SWAP2 SWAP1 PUSH2 0x3CF JUMP JUMPDEST PUSH1 0x40 MLOAD DUP1 SWAP2 SUB SWAP1 RETURN JUMPDEST PUSH2 0x7F PUSH1 0x4 DUP1 CALLDATASIZE SUB DUP2 ADD SWAP1 PUSH2 0x7A SWAP2 SWAP1 PUSH2 0x416 JUMP JUMPDEST PUSH2 0x138 JUMP JUMPDEST STOP JUMPDEST PUSH1 0x0 DUP2 MLOAD PUSH1 0x20 DUP4 ADD CALLVALUE CREATE SWAP1 POP PUSH1 0x0 PUSH20 0xFFFFFFFFFFFFFFFFFFFFFFFFFFFFFFFFFFFFFFFF AND DUP2 PUSH20 0xFFFFFFFFFFFFFFFFFFFFFFFFFFFFFFFFFFFFFFFF AND SUB PUSH2 0xFC JUMPI PUSH1 0x40 MLOAD PUSH32 0x8C379A000000000000000000000000000000000000000000000000000000000 DUP2 MSTORE PUSH1 0x4 ADD PUSH2 0xF3 SWAP1 PUSH2 0x4CF JUMP JUMPDEST PUSH1 0x40 MLOAD DUP1 SWAP2 SUB SWAP1 REVERT JUMPDEST PUSH32 0x55EA6C6B31543D8E2EC6A72F71A79C0F4B72ED0D4757172B043D8F4F4CD84848 DUP2 PUSH1 0x40 MLOAD PUSH2 0x12B SWAP2 SWAP1 PUSH2 0x3CF JUMP JUMPDEST PUSH1 0x40 MLOAD DUP1 SWAP2 SUB SWAP1 LOG1 SWAP2 SWAP1 POP JUMP JUMPDEST PUSH1 0x0 DUP3 PUSH20 0xFFFFFFFFFFFFFFFFFFFFFFFFFFFFFFFFFFFFFFFF AND CALLVALUE DUP4 PUSH1 0x40 MLOAD PUSH2 0x160 SWAP2 SWAP1 PUSH2 0x569 JUMP JUMPDEST PUSH1 0x0 PUSH1 0x40 MLOAD DUP1 DUP4 SUB DUP2 DUP6 DUP8 GAS CALL SWAP3 POP POP POP RETURNDATASIZE DUP1 PUSH1 0x0 DUP2 EQ PUSH2 0x19D JUMPI PUSH1 0x40 MLOAD SWAP2 POP PUSH1 0x1F NOT PUSH1 0x3F RETURNDATASIZE ADD AND DUP3 ADD PUSH1 0x40 MSTORE RETURNDATASIZE DUP3 MSTORE RETURNDATASIZE PUSH1 0x0 PUSH1 0x20 DUP5 ADD RETURNDATACOPY PUSH2 0x1A2 JUMP JUMPDEST PUSH1 0x60 SWAP2 POP JUMPDEST POP POP SWAP1 POP DUP1 PUSH2 0x1E6 JUMPI PUSH1 0x40 MLOAD PUSH32 0x8C379A000000000000000000000000000000000000000000000000000000000 DUP2 MSTORE PUSH1 0x4 ADD PUSH2 0x1DD SWAP1 PUSH2 0x5CC JUMP JUMPDEST PUSH1 0x40 MLOAD DUP1 SWAP2 SUB SWAP1 REVERT JUMPDEST POP POP POP JUMP JUMPDEST PUSH1 0x0 PUSH1 0x40 MLOAD SWAP1 POP SWAP1 JUMP JUMPDEST PUSH1 0x0 DUP1 REVERT JUMPDEST PUSH1 0x0 DUP1 REVERT JUMPDEST PUSH1 0x0 DUP1 REVERT JUMPDEST PUSH1 0x0 DUP1 REVERT JUMPDEST PUSH1 0x0 PUSH1 0x1F NOT PUSH1 0x1F DUP4 ADD AND SWAP1 POP SWAP2 SWAP1 POP JUMP JUMPDEST PUSH32 0x4E487B7100000000000000000000000000000000000000000000000000000000 PUSH1 0x0 MSTORE PUSH1 0x41 PUSH1 0x4 MSTORE PUSH1 0x24 PUSH1 0x0 REVERT JUMPDEST PUSH2 0x252 DUP3 PUSH2 0x209 JUMP JUMPDEST DUP2 ADD DUP2 DUP2 LT PUSH8 0xFFFFFFFFFFFFFFFF DUP3 GT OR ISZERO PUSH2 0x271 JUMPI PUSH2 0x270 PUSH2 0x21A JUMP JUMPDEST JUMPDEST DUP1 PUSH1 0x40 MSTORE POP POP POP JUMP JUMPDEST PUSH1 0x0 PUSH2 0x284 PUSH2 0x1EB JUMP JUMPDEST SWAP1 POP PUSH2 0x290 DUP3 DUP3 PUSH2 0x249 JUMP JUMPDEST SWAP2 SWAP1 POP JUMP JUMPDEST PUSH1 0x0 PUSH8 0xFFFFFFFFFFFFFFFF DUP3 GT ISZERO PUSH2 0x2B0 JUMPI PUSH2 0x2AF PUSH2 0x21A JUMP JUMPDEST JUMPDEST PUSH2 0x2B9 DUP3 PUSH2 0x209 JUMP JUMPDEST SWAP1 POP PUSH1 0x20 DUP2 ADD SWAP1 POP SWAP2 SWAP1 POP JUMP JUMPDEST DUP3 DUP2 DUP4 CALLDATACOPY PUSH1 0x0 DUP4 DUP4 ADD MSTORE POP POP POP JUMP JUMPDEST PUSH1 0x0 PUSH2 0x2E8 PUSH2 0x2E3 DUP5 PUSH2 0x295 JUMP JUMPDEST PUSH2 0x27A JUMP JUMPDEST SWAP1 POP DUP3 DUP2 MSTORE PUSH1 0x20 DUP2 ADD DUP5 DUP5 DUP5 ADD GT ISZERO PUSH2 0x304 JUMPI PUSH2 0x303 PUSH2 0x204 JUMP JUMPDEST JUMPDEST PUSH2 0x30F DUP5 DUP3 DUP6 PUSH2 0x2C6 JUMP JUMPDEST POP SWAP4 SWAP3 POP POP POP JUMP JUMPDEST PUSH1 0x0 DUP3 PUSH1 0x1F DUP4 ADD SLT PUSH2 0x32C JUMPI PUSH2 0x32B PUSH2 0x1FF JUMP JUMPDEST JUMPDEST DUP2 CALLDATALOAD PUSH2 0x33C DUP5 DUP3 PUSH1 0x20 DUP7 ADD PUSH2 0x2D5 JUMP JUMPDEST SWAP2 POP POP SWAP3 SWAP2 POP POP JUMP JUMPDEST PUSH1 0x0 PUSH1 0x20 DUP3 DUP5 SUB SLT ISZERO PUSH2 0x35B JUMPI PUSH2 0x35A PUSH2 0x1F5 JUMP JUMPDEST JUMPDEST PUSH1 0x0 DUP3 ADD CALLDATALOAD PUSH8 0xFFFFFFFFFFFFFFFF DUP2 GT ISZERO PUSH2 0x379 JUMPI PUSH2 0x378 PUSH2 0x1FA JUMP JUMPDEST JUMPDEST PUSH2 0x385 DUP5 DUP3 DUP6 ADD PUSH2 0x317 JUMP JUMPDEST SWAP2 POP POP SWAP3 SWAP2 POP POP JUMP JUMPDEST PUSH1 0x0 PUSH20 0xFFFFFFFFFFFFFFFFFFFFFFFFFFFFFFFFFFFFFFFF DUP3 AND SWAP1 POP SWAP2 SWAP1 POP JUMP JUMPDEST PUSH1 0x0 PUSH2 0x3B9 DUP3 PUSH2 0x38E JUMP JUMPDEST SWAP1 POP SWAP2 SWAP1 POP JUMP JUMPDEST PUSH2 0x3C9 DUP2 PUSH2 0x3AE JUMP JUMPDEST DUP3 MSTORE POP POP JUMP JUMPDEST PUSH1 0x0 PUSH1 0x20 DUP3 ADD SWAP1 POP PUSH2 0x3E4 PUSH1 0x0 DUP4 ADD DUP5 PUSH2 0x3C0 JUMP JUMPDEST SWAP3 SWAP2 POP POP JUMP JUMPDEST PUSH2 0x3F3 DUP2 PUSH2 0x3AE JUMP JUMPDEST DUP2 EQ PUSH2 0x3FE JUMPI PUSH1 0x0 DUP1 REVERT JUMPDEST POP JUMP JUMPDEST PUSH1 0x0 DUP2 CALLDATALOAD SWAP1 POP PUSH2 0x410 DUP2 PUSH2 0x3EA JUMP JUMPDEST SWAP3 SWAP2 POP POP JUMP JUMPDEST PUSH1 0x0 DUP1 PUSH1 0x40 DUP4 DUP6 SUB SLT ISZERO PUSH2 0x42D JUMPI PUSH2 0x42C PUSH2 0x1F5 JUMP JUMPDEST JUMPDEST PUSH1 0x0 PUSH2 0x43B DUP6 DUP3 DUP7 ADD PUSH2 0x401 JUMP JUMPDEST SWAP3 POP POP PUSH1 0x20 DUP4 ADD CALLDATALOAD PUSH8 0xFFFFFFFFFFFFFFFF DUP2 GT ISZERO PUSH2 0x45C JUMPI PUSH2 0x45B PUSH2 0x1FA JUMP JUMPDEST JUMPDEST PUSH2 0x468 DUP6 DUP3 DUP7 ADD PUSH2 0x317 JUMP JUMPDEST SWAP2 POP POP SWAP3 POP SWAP3 SWAP1 POP JUMP JUMPDEST PUSH1 0x0 DUP3 DUP3 MSTORE PUSH1 0x20 DUP3 ADD SWAP1 POP SWAP3 SWAP2 POP POP JUMP JUMPDEST PUSH32 0x6465706C6F79206661696C000000000000000000000000000000000000000000 PUSH1 0x0 DUP3 ADD MSTORE POP JUMP JUMPDEST PUSH1 0x0 PUSH2 0x4B9 PUSH1 0xB DUP4 PUSH2 0x472 JUMP JUMPDEST SWAP2 POP PUSH2 0x4C4 DUP3 PUSH2 0x483 JUMP JUMPDEST PUSH1 0x20 DUP3 ADD SWAP1 POP SWAP2 SWAP1 POP JUMP JUMPDEST PUSH1 0x0 PUSH1 0x20 DUP3 ADD SWAP1 POP DUP2 DUP2 SUB PUSH1 0x0 DUP4 ADD MSTORE PUSH2 0x4E8 DUP2 PUSH2 0x4AC JUMP JUMPDEST SWAP1 POP SWAP2 SWAP1 POP JUMP JUMPDEST PUSH1 0x0 DUP2 MLOAD SWAP1 POP SWAP2 SWAP1 POP JUMP JUMPDEST PUSH1 0x0 DUP2 SWAP1 POP SWAP3 SWAP2 POP POP JUMP JUMPDEST PUSH1 0x0 JUMPDEST DUP4 DUP2 LT ISZERO PUSH2 0x523 JUMPI DUP1 DUP3 ADD MLOAD DUP2 DUP5 ADD MSTORE PUSH1 0x20 DUP2 ADD SWAP1 POP PUSH2 0x508 JUMP JUMPDEST DUP4 DUP2 GT ISZERO PUSH2 0x532 JUMPI PUSH1 0x0 DUP5 DUP5 ADD MSTORE JUMPDEST POP POP POP POP JUMP JUMPDEST PUSH1 0x0 PUSH2 0x543 DUP3 PUSH2 0x4EF JUMP JUMPDEST PUSH2 0x54D DUP2 DUP6 PUSH2 0x4FA JUMP JUMPDEST SWAP4 POP PUSH2 0x55D DUP2 DUP6 PUSH1 0x20 DUP7 ADD PUSH2 0x505 JUMP JUMPDEST DUP1 DUP5 ADD SWAP2 POP POP SWAP3 SWAP2 POP POP JUMP JUMPDEST PUSH1 0x0 PUSH2 0x575 DUP3 DUP5 PUSH2 0x538 JUMP JUMPDEST SWAP2 POP DUP2 SWAP1 POP SWAP3 SWAP2 POP POP JUMP JUMPDEST PUSH32 0x6661696C65640000000000000000000000000000000000000000000000000000 PUSH1 0x0 DUP3 ADD MSTORE POP JUMP JUMPDEST PUSH1 0x0 PUSH2 0x5B6 PUSH1 0x6 DUP4 PUSH2 0x472 JUMP JUMPDEST SWAP2 POP PUSH2 0x5C1 DUP3 PUSH2 0x580 JUMP JUMPDEST PUSH1 0x20 DUP3 ADD SWAP1 POP SWAP2 SWAP1 POP JUMP JUMPDEST PUSH1 0x0 PUSH1 0x20 DUP3 ADD SWAP1 POP DUP2 DUP2 SUB PUSH1 0x0 DUP4 ADD MSTORE PUSH2 0x5E5 DUP2 PUSH2 0x5A9 JUMP JUMPDEST SWAP1 POP SWAP2 SWAP1 POP JUMP INVALID LOG2 PUSH5 0x6970667358 0x22 SLT KECCAK256 0xDE MULMOD TIMESTAMP SSTORE KECCAK256 0xF7 NUMBER 0xEC 0xC9 RETURN SSTORE 0xE 0xF9 DUP12 0xAA 0x2E 0x2A 0xC8 SLT 0x2E ADDMOD 0x49 0xD CREATE 0x2D SWAP8 0xE2 0x5F CREATE2 0xBF DUP6 PUSH15 0x64736F6C634300080F003300000000 "
				},
				"gasEstimates": {
					"creation": {
						"codeDepositCost": "314000",
						"executionCost": "355",
						"totalCost": "314355"
					},
					"external": {
						"": "107",
						"deploy(bytes)": "infinite",
						"excte(address,bytes)": "infinite"
					}
				},
				"methodIdentifiers": {
					"deploy(bytes)": "00774360",
					"excte(address,bytes)": "4eabf560"
				}
			},
			"storageLayout": {
				"storage": [],
				"types": null
			},
			"userdoc": {
				"kind": "user",
				"methods": {},
				"version": 1
			}
		}
	}
}