{
	"study/chapter11/proxyDeploy.sol": {
		"Help": {
			"abi": [
				{
					"inputs": [],
					"name": "getByteCode1",
					"outputs": [
						{
							"internalType": "bytes",
							"name": "",
							"type": "bytes"
						}
					],
					"stateMutability": "pure",
					"type": "function"
				},
				{
					"inputs": [
						{
							"internalType": "uint256",
							"name": "_x",
							"type": "uint256"
						},
						{
							"internalType": "uint256",
							"name": "_y",
							"type": "uint256"
						}
					],
					"name": "getByteCode2",
					"outputs": [
						{
							"internalType": "bytes",
							"name": "",
							"type": "bytes"
						}
					],
					"stateMutability": "pure",
					"type": "function"
				},
				{
					"inputs": [
						{
							"internalType": "address",
							"name": "_owner",
							"type": "address"
						}
					],
					"name": "getCalldate",
					"outputs": [
						{
							"internalType": "bytes",
							"name": "",
							"type": "bytes"
						}
					],
					"stateMutability": "pure",
					"type": "function"
				}
			],
			"devdoc": {
				"kind": "dev",
				"methods": {},
				"version": 1
			},
			"evm": {
				"assembly": "    /* \"study/chapter11/proxyDeploy.sol\":1323:1879  contract Help{... */\n  mstore(0x40, 0x80)\n  callvalue\n  dup1\n  iszero\n  tag_1\n  jumpi\n  0x00\n  dup1\n  revert\ntag_1:\n  pop\n  dataSize(sub_0)\n  dup1\n  dataOffset(sub_0)\n  0x00\n  codecopy\n  0x00\n  return\nstop\n\nsub_0: assembly {\n        /* \"study/chapter11/proxyDeploy.sol\":1323:1879  contract Help{... */\n      mstore(0x40, 0x80)\n      callvalue\n      dup1\n      iszero\n      tag_1\n      jumpi\n      0x00\n      dup1\n      revert\n    tag_1:\n      pop\n      jumpi(tag_2, lt(calldatasize, 0x04))\n      shr(0xe0, calldataload(0x00))\n      dup1\n      0x5354f855\n      eq\n      tag_3\n      jumpi\n      dup1\n      0xbed7ddf3\n      eq\n      tag_4\n      jumpi\n      dup1\n      0xf05f9668\n      eq\n      tag_5\n      jumpi\n    tag_2:\n      0x00\n      dup1\n      revert\n        /* \"study/chapter11/proxyDeploy.sol\":1527:1726  function getByteCode2(uint _x,uint _y)external pure returns(bytes memory){... */\n    tag_3:\n      tag_6\n      0x04\n      dup1\n      calldatasize\n      sub\n      dup2\n      add\n      swap1\n      tag_7\n      swap2\n      swap1\n      tag_8\n      jump\t// in\n    tag_7:\n      tag_9\n      jump\t// in\n    tag_6:\n      mload(0x40)\n      tag_10\n      swap2\n      swap1\n      tag_11\n      jump\t// in\n    tag_10:\n      mload(0x40)\n      dup1\n      swap2\n      sub\n      swap1\n      return\n        /* \"study/chapter11/proxyDeploy.sol\":1731:1877  function getCalldate(address _owner)external pure returns(bytes memory){... */\n    tag_4:\n      tag_12\n      0x04\n      dup1\n      calldatasize\n      sub\n      dup2\n      add\n      swap1\n      tag_13\n      swap2\n      swap1\n      tag_14\n      jump\t// in\n    tag_13:\n      tag_15\n      jump\t// in\n    tag_12:\n      mload(0x40)\n      tag_16\n      swap2\n      swap1\n      tag_11\n      jump\t// in\n    tag_16:\n      mload(0x40)\n      dup1\n      swap2\n      sub\n      swap1\n      return\n        /* \"study/chapter11/proxyDeploy.sol\":1374:1522  function getByteCode1()external pure returns(bytes memory){... */\n    tag_5:\n      tag_17\n      tag_18\n      jump\t// in\n    tag_17:\n      mload(0x40)\n      tag_19\n      swap2\n      swap1\n      tag_11\n      jump\t// in\n    tag_19:\n      mload(0x40)\n      dup1\n      swap2\n      sub\n      swap1\n      return\n        /* \"study/chapter11/proxyDeploy.sol\":1527:1726  function getByteCode2(uint _x,uint _y)external pure returns(bytes memory){... */\n    tag_9:\n        /* \"study/chapter11/proxyDeploy.sol\":1587:1599  bytes memory */\n      0x60\n        /* \"study/chapter11/proxyDeploy.sol\":1610:1631  bytes memory bytecode */\n      0x00\n        /* \"study/chapter11/proxyDeploy.sol\":1634:1658  type(Test2).creationCode */\n      mload(0x40)\n      dup1\n      0x20\n      add\n      tag_21\n      swap1\n      tag_22\n      jump\t// in\n    tag_21:\n      0x20\n      dup3\n      add\n      dup2\n      sub\n      dup3\n      mstore\n      not(0x1f)\n      0x1f\n      dup3\n      add\n      and\n      0x40\n      mstore\n      pop\n        /* \"study/chapter11/proxyDeploy.sol\":1610:1658  bytes memory bytecode = type(Test2).creationCode */\n      swap1\n      pop\n        /* \"study/chapter11/proxyDeploy.sol\":1692:1700  bytecode */\n      dup1\n        /* \"study/chapter11/proxyDeploy.sol\":1712:1714  _x */\n      dup5\n        /* \"study/chapter11/proxyDeploy.sol\":1715:1717  _y */\n      dup5\n        /* \"study/chapter11/proxyDeploy.sol\":1701:1718  abi.encode(_x,_y) */\n      add(0x20, mload(0x40))\n      tag_23\n      swap3\n      swap2\n      swap1\n      tag_24\n      jump\t// in\n    tag_23:\n      mload(0x40)\n      0x20\n      dup2\n      dup4\n      sub\n      sub\n      dup2\n      mstore\n      swap1\n      0x40\n      mstore\n        /* \"study/chapter11/proxyDeploy.sol\":1675:1719  abi.encodePacked(bytecode,abi.encode(_x,_y)) */\n      add(0x20, mload(0x40))\n      tag_25\n      swap3\n      swap2\n      swap1\n      tag_26\n      jump\t// in\n    tag_25:\n      mload(0x40)\n      0x20\n      dup2\n      dup4\n      sub\n      sub\n      dup2\n      mstore\n      swap1\n      0x40\n      mstore\n        /* \"study/chapter11/proxyDeploy.sol\":1668:1719  return abi.encodePacked(bytecode,abi.encode(_x,_y)) */\n      swap2\n      pop\n      pop\n        /* \"study/chapter11/proxyDeploy.sol\":1527:1726  function getByteCode2(uint _x,uint _y)external pure returns(bytes memory){... */\n      swap3\n      swap2\n      pop\n      pop\n      jump\t// out\n        /* \"study/chapter11/proxyDeploy.sol\":1731:1877  function getCalldate(address _owner)external pure returns(bytes memory){... */\n    tag_15:\n        /* \"study/chapter11/proxyDeploy.sol\":1789:1801  bytes memory */\n      0x60\n        /* \"study/chapter11/proxyDeploy.sol\":1863:1869  _owner */\n      dup2\n        /* \"study/chapter11/proxyDeploy.sol\":1819:1870  abi.encodeWithSignature(\"setOwner(address)\",_owner) */\n      add(0x24, mload(0x40))\n      tag_28\n      swap2\n      swap1\n      tag_29\n      jump\t// in\n    tag_28:\n      mload(0x40)\n      0x20\n      dup2\n      dup4\n      sub\n      sub\n      dup2\n      mstore\n      swap1\n      0x40\n      mstore\n      and(not(0xffffffffffffffffffffffffffffffffffffffffffffffffffffffff), 0x13af403500000000000000000000000000000000000000000000000000000000)\n      0x20\n      dup3\n      add\n      dup1\n      mload\n      0xffffffffffffffffffffffffffffffffffffffffffffffffffffffff\n      dup4\n      dup2\n      dup4\n      and\n      or\n      dup4\n      mstore\n      pop\n      pop\n      pop\n      pop\n        /* \"study/chapter11/proxyDeploy.sol\":1812:1870  return abi.encodeWithSignature(\"setOwner(address)\",_owner) */\n      swap1\n      pop\n        /* \"study/chapter11/proxyDeploy.sol\":1731:1877  function getCalldate(address _owner)external pure returns(bytes memory){... */\n      swap2\n      swap1\n      pop\n      jump\t// out\n        /* \"study/chapter11/proxyDeploy.sol\":1374:1522  function getByteCode1()external pure returns(bytes memory){... */\n    tag_18:\n        /* \"study/chapter11/proxyDeploy.sol\":1419:1431  bytes memory */\n      0x60\n        /* \"study/chapter11/proxyDeploy.sol\":1442:1463  bytes memory bytecode */\n      0x00\n        /* \"study/chapter11/proxyDeploy.sol\":1466:1490  type(Test1).creationCode */\n      mload(0x40)\n      dup1\n      0x20\n      add\n      tag_31\n      swap1\n      tag_32\n      jump\t// in\n    tag_31:\n      0x20\n      dup3\n      add\n      dup2\n      sub\n      dup3\n      mstore\n      not(0x1f)\n      0x1f\n      dup3\n      add\n      and\n      0x40\n      mstore\n      pop\n        /* \"study/chapter11/proxyDeploy.sol\":1442:1490  bytes memory bytecode = type(Test1).creationCode */\n      swap1\n      pop\n        /* \"study/chapter11/proxyDeploy.sol\":1507:1515  bytecode */\n      dup1\n        /* \"study/chapter11/proxyDeploy.sol\":1500:1515  return bytecode */\n      swap2\n      pop\n      pop\n        /* \"study/chapter11/proxyDeploy.sol\":1374:1522  function getByteCode1()external pure returns(bytes memory){... */\n      swap1\n      jump\t// out\n    tag_22:\n      dataSize(sub_0)\n      dup1\n      dataOffset(sub_0)\n      dup4\n      codecopy\n      add\n      swap1\n      jump\t// out\n    tag_32:\n      dataSize(sub_1)\n      dup1\n      dataOffset(sub_1)\n      dup4\n      codecopy\n      add\n      swap1\n      jump\t// out\n        /* \"#utility.yul\":88:205   */\n    tag_34:\n        /* \"#utility.yul\":197:198   */\n      0x00\n        /* \"#utility.yul\":194:195   */\n      dup1\n        /* \"#utility.yul\":187:199   */\n      revert\n        /* \"#utility.yul\":334:411   */\n    tag_36:\n        /* \"#utility.yul\":371:378   */\n      0x00\n        /* \"#utility.yul\":400:405   */\n      dup2\n        /* \"#utility.yul\":389:405   */\n      swap1\n      pop\n        /* \"#utility.yul\":334:411   */\n      swap2\n      swap1\n      pop\n      jump\t// out\n        /* \"#utility.yul\":417:539   */\n    tag_37:\n        /* \"#utility.yul\":490:514   */\n      tag_58\n        /* \"#utility.yul\":508:513   */\n      dup2\n        /* \"#utility.yul\":490:514   */\n      tag_36\n      jump\t// in\n    tag_58:\n        /* \"#utility.yul\":483:488   */\n      dup2\n        /* \"#utility.yul\":480:515   */\n      eq\n        /* \"#utility.yul\":470:533   */\n      tag_59\n      jumpi\n        /* \"#utility.yul\":529:530   */\n      0x00\n        /* \"#utility.yul\":526:527   */\n      dup1\n        /* \"#utility.yul\":519:531   */\n      revert\n        /* \"#utility.yul\":470:533   */\n    tag_59:\n        /* \"#utility.yul\":417:539   */\n      pop\n      jump\t// out\n        /* \"#utility.yul\":545:684   */\n    tag_38:\n        /* \"#utility.yul\":591:596   */\n      0x00\n        /* \"#utility.yul\":629:635   */\n      dup2\n        /* \"#utility.yul\":616:636   */\n      calldataload\n        /* \"#utility.yul\":607:636   */\n      swap1\n      pop\n        /* \"#utility.yul\":645:678   */\n      tag_61\n        /* \"#utility.yul\":672:677   */\n      dup2\n        /* \"#utility.yul\":645:678   */\n      tag_37\n      jump\t// in\n    tag_61:\n        /* \"#utility.yul\":545:684   */\n      swap3\n      swap2\n      pop\n      pop\n      jump\t// out\n        /* \"#utility.yul\":690:1164   */\n    tag_8:\n        /* \"#utility.yul\":758:764   */\n      0x00\n        /* \"#utility.yul\":766:772   */\n      dup1\n        /* \"#utility.yul\":815:817   */\n      0x40\n        /* \"#utility.yul\":803:812   */\n      dup4\n        /* \"#utility.yul\":794:801   */\n      dup6\n        /* \"#utility.yul\":790:813   */\n      sub\n        /* \"#utility.yul\":786:818   */\n      slt\n        /* \"#utility.yul\":783:902   */\n      iszero\n      tag_63\n      jumpi\n        /* \"#utility.yul\":821:900   */\n      tag_64\n      tag_34\n      jump\t// in\n    tag_64:\n        /* \"#utility.yul\":783:902   */\n    tag_63:\n        /* \"#utility.yul\":941:942   */\n      0x00\n        /* \"#utility.yul\":966:1019   */\n      tag_65\n        /* \"#utility.yul\":1011:1018   */\n      dup6\n        /* \"#utility.yul\":1002:1008   */\n      dup3\n        /* \"#utility.yul\":991:1000   */\n      dup7\n        /* \"#utility.yul\":987:1009   */\n      add\n        /* \"#utility.yul\":966:1019   */\n      tag_38\n      jump\t// in\n    tag_65:\n        /* \"#utility.yul\":956:1019   */\n      swap3\n      pop\n        /* \"#utility.yul\":912:1029   */\n      pop\n        /* \"#utility.yul\":1068:1070   */\n      0x20\n        /* \"#utility.yul\":1094:1147   */\n      tag_66\n        /* \"#utility.yul\":1139:1146   */\n      dup6\n        /* \"#utility.yul\":1130:1136   */\n      dup3\n        /* \"#utility.yul\":1119:1128   */\n      dup7\n        /* \"#utility.yul\":1115:1137   */\n      add\n        /* \"#utility.yul\":1094:1147   */\n      tag_38\n      jump\t// in\n    tag_66:\n        /* \"#utility.yul\":1084:1147   */\n      swap2\n      pop\n        /* \"#utility.yul\":1039:1157   */\n      pop\n        /* \"#utility.yul\":690:1164   */\n      swap3\n      pop\n      swap3\n      swap1\n      pop\n      jump\t// out\n        /* \"#utility.yul\":1170:1268   */\n    tag_39:\n        /* \"#utility.yul\":1221:1227   */\n      0x00\n        /* \"#utility.yul\":1255:1260   */\n      dup2\n        /* \"#utility.yul\":1249:1261   */\n      mload\n        /* \"#utility.yul\":1239:1261   */\n      swap1\n      pop\n        /* \"#utility.yul\":1170:1268   */\n      swap2\n      swap1\n      pop\n      jump\t// out\n        /* \"#utility.yul\":1274:1442   */\n    tag_40:\n        /* \"#utility.yul\":1357:1368   */\n      0x00\n        /* \"#utility.yul\":1391:1397   */\n      dup3\n        /* \"#utility.yul\":1386:1389   */\n      dup3\n        /* \"#utility.yul\":1379:1398   */\n      mstore\n        /* \"#utility.yul\":1431:1435   */\n      0x20\n        /* \"#utility.yul\":1426:1429   */\n      dup3\n        /* \"#utility.yul\":1422:1436   */\n      add\n        /* \"#utility.yul\":1407:1436   */\n      swap1\n      pop\n        /* \"#utility.yul\":1274:1442   */\n      swap3\n      swap2\n      pop\n      pop\n      jump\t// out\n        /* \"#utility.yul\":1448:1755   */\n    tag_41:\n        /* \"#utility.yul\":1516:1517   */\n      0x00\n        /* \"#utility.yul\":1526:1639   */\n    tag_70:\n        /* \"#utility.yul\":1540:1546   */\n      dup4\n        /* \"#utility.yul\":1537:1538   */\n      dup2\n        /* \"#utility.yul\":1534:1547   */\n      lt\n        /* \"#utility.yul\":1526:1639   */\n      iszero\n      tag_72\n      jumpi\n        /* \"#utility.yul\":1625:1626   */\n      dup1\n        /* \"#utility.yul\":1620:1623   */\n      dup3\n        /* \"#utility.yul\":1616:1627   */\n      add\n        /* \"#utility.yul\":1610:1628   */\n      mload\n        /* \"#utility.yul\":1606:1607   */\n      dup2\n        /* \"#utility.yul\":1601:1604   */\n      dup5\n        /* \"#utility.yul\":1597:1608   */\n      add\n        /* \"#utility.yul\":1590:1629   */\n      mstore\n        /* \"#utility.yul\":1562:1564   */\n      0x20\n        /* \"#utility.yul\":1559:1560   */\n      dup2\n        /* \"#utility.yul\":1555:1565   */\n      add\n        /* \"#utility.yul\":1550:1565   */\n      swap1\n      pop\n        /* \"#utility.yul\":1526:1639   */\n      jump(tag_70)\n    tag_72:\n        /* \"#utility.yul\":1657:1663   */\n      dup4\n        /* \"#utility.yul\":1654:1655   */\n      dup2\n        /* \"#utility.yul\":1651:1664   */\n      gt\n        /* \"#utility.yul\":1648:1749   */\n      iszero\n      tag_73\n      jumpi\n        /* \"#utility.yul\":1737:1738   */\n      0x00\n        /* \"#utility.yul\":1728:1734   */\n      dup5\n        /* \"#utility.yul\":1723:1726   */\n      dup5\n        /* \"#utility.yul\":1719:1735   */\n      add\n        /* \"#utility.yul\":1712:1739   */\n      mstore\n        /* \"#utility.yul\":1648:1749   */\n    tag_73:\n        /* \"#utility.yul\":1497:1755   */\n      pop\n        /* \"#utility.yul\":1448:1755   */\n      pop\n      pop\n      pop\n      jump\t// out\n        /* \"#utility.yul\":1761:1863   */\n    tag_42:\n        /* \"#utility.yul\":1802:1808   */\n      0x00\n        /* \"#utility.yul\":1853:1855   */\n      0x1f\n        /* \"#utility.yul\":1849:1856   */\n      not\n        /* \"#utility.yul\":1844:1846   */\n      0x1f\n        /* \"#utility.yul\":1837:1842   */\n      dup4\n        /* \"#utility.yul\":1833:1847   */\n      add\n        /* \"#utility.yul\":1829:1857   */\n      and\n        /* \"#utility.yul\":1819:1857   */\n      swap1\n      pop\n        /* \"#utility.yul\":1761:1863   */\n      swap2\n      swap1\n      pop\n      jump\t// out\n        /* \"#utility.yul\":1869:2229   */\n    tag_43:\n        /* \"#utility.yul\":1955:1958   */\n      0x00\n        /* \"#utility.yul\":1983:2021   */\n      tag_76\n        /* \"#utility.yul\":2015:2020   */\n      dup3\n        /* \"#utility.yul\":1983:2021   */\n      tag_39\n      jump\t// in\n    tag_76:\n        /* \"#utility.yul\":2037:2107   */\n      tag_77\n        /* \"#utility.yul\":2100:2106   */\n      dup2\n        /* \"#utility.yul\":2095:2098   */\n      dup6\n        /* \"#utility.yul\":2037:2107   */\n      tag_40\n      jump\t// in\n    tag_77:\n        /* \"#utility.yul\":2030:2107   */\n      swap4\n      pop\n        /* \"#utility.yul\":2116:2168   */\n      tag_78\n        /* \"#utility.yul\":2161:2167   */\n      dup2\n        /* \"#utility.yul\":2156:2159   */\n      dup6\n        /* \"#utility.yul\":2149:2153   */\n      0x20\n        /* \"#utility.yul\":2142:2147   */\n      dup7\n        /* \"#utility.yul\":2138:2154   */\n      add\n        /* \"#utility.yul\":2116:2168   */\n      tag_41\n      jump\t// in\n    tag_78:\n        /* \"#utility.yul\":2193:2222   */\n      tag_79\n        /* \"#utility.yul\":2215:2221   */\n      dup2\n        /* \"#utility.yul\":2193:2222   */\n      tag_42\n      jump\t// in\n    tag_79:\n        /* \"#utility.yul\":2188:2191   */\n      dup5\n        /* \"#utility.yul\":2184:2223   */\n      add\n        /* \"#utility.yul\":2177:2223   */\n      swap2\n      pop\n        /* \"#utility.yul\":1959:2229   */\n      pop\n        /* \"#utility.yul\":1869:2229   */\n      swap3\n      swap2\n      pop\n      pop\n      jump\t// out\n        /* \"#utility.yul\":2235:2544   */\n    tag_11:\n        /* \"#utility.yul\":2346:2350   */\n      0x00\n        /* \"#utility.yul\":2384:2386   */\n      0x20\n        /* \"#utility.yul\":2373:2382   */\n      dup3\n        /* \"#utility.yul\":2369:2387   */\n      add\n        /* \"#utility.yul\":2361:2387   */\n      swap1\n      pop\n        /* \"#utility.yul\":2433:2442   */\n      dup2\n        /* \"#utility.yul\":2427:2431   */\n      dup2\n        /* \"#utility.yul\":2423:2443   */\n      sub\n        /* \"#utility.yul\":2419:2420   */\n      0x00\n        /* \"#utility.yul\":2408:2417   */\n      dup4\n        /* \"#utility.yul\":2404:2421   */\n      add\n        /* \"#utility.yul\":2397:2444   */\n      mstore\n        /* \"#utility.yul\":2461:2537   */\n      tag_81\n        /* \"#utility.yul\":2532:2536   */\n      dup2\n        /* \"#utility.yul\":2523:2529   */\n      dup5\n        /* \"#utility.yul\":2461:2537   */\n      tag_43\n      jump\t// in\n    tag_81:\n        /* \"#utility.yul\":2453:2537   */\n      swap1\n      pop\n        /* \"#utility.yul\":2235:2544   */\n      swap3\n      swap2\n      pop\n      pop\n      jump\t// out\n        /* \"#utility.yul\":2550:2676   */\n    tag_44:\n        /* \"#utility.yul\":2587:2594   */\n      0x00\n        /* \"#utility.yul\":2627:2669   */\n      0xffffffffffffffffffffffffffffffffffffffff\n        /* \"#utility.yul\":2620:2625   */\n      dup3\n        /* \"#utility.yul\":2616:2670   */\n      and\n        /* \"#utility.yul\":2605:2670   */\n      swap1\n      pop\n        /* \"#utility.yul\":2550:2676   */\n      swap2\n      swap1\n      pop\n      jump\t// out\n        /* \"#utility.yul\":2682:2778   */\n    tag_45:\n        /* \"#utility.yul\":2719:2726   */\n      0x00\n        /* \"#utility.yul\":2748:2772   */\n      tag_84\n        /* \"#utility.yul\":2766:2771   */\n      dup3\n        /* \"#utility.yul\":2748:2772   */\n      tag_44\n      jump\t// in\n    tag_84:\n        /* \"#utility.yul\":2737:2772   */\n      swap1\n      pop\n        /* \"#utility.yul\":2682:2778   */\n      swap2\n      swap1\n      pop\n      jump\t// out\n        /* \"#utility.yul\":2784:2906   */\n    tag_46:\n        /* \"#utility.yul\":2857:2881   */\n      tag_86\n        /* \"#utility.yul\":2875:2880   */\n      dup2\n        /* \"#utility.yul\":2857:2881   */\n      tag_45\n      jump\t// in\n    tag_86:\n        /* \"#utility.yul\":2850:2855   */\n      dup2\n        /* \"#utility.yul\":2847:2882   */\n      eq\n        /* \"#utility.yul\":2837:2900   */\n      tag_87\n      jumpi\n        /* \"#utility.yul\":2896:2897   */\n      0x00\n        /* \"#utility.yul\":2893:2894   */\n      dup1\n        /* \"#utility.yul\":2886:2898   */\n      revert\n        /* \"#utility.yul\":2837:2900   */\n    tag_87:\n        /* \"#utility.yul\":2784:2906   */\n      pop\n      jump\t// out\n        /* \"#utility.yul\":2912:3051   */\n    tag_47:\n        /* \"#utility.yul\":2958:2963   */\n      0x00\n        /* \"#utility.yul\":2996:3002   */\n      dup2\n        /* \"#utility.yul\":2983:3003   */\n      calldataload\n        /* \"#utility.yul\":2974:3003   */\n      swap1\n      pop\n        /* \"#utility.yul\":3012:3045   */\n      tag_89\n        /* \"#utility.yul\":3039:3044   */\n      dup2\n        /* \"#utility.yul\":3012:3045   */\n      tag_46\n      jump\t// in\n    tag_89:\n        /* \"#utility.yul\":2912:3051   */\n      swap3\n      swap2\n      pop\n      pop\n      jump\t// out\n        /* \"#utility.yul\":3057:3386   */\n    tag_14:\n        /* \"#utility.yul\":3116:3122   */\n      0x00\n        /* \"#utility.yul\":3165:3167   */\n      0x20\n        /* \"#utility.yul\":3153:3162   */\n      dup3\n        /* \"#utility.yul\":3144:3151   */\n      dup5\n        /* \"#utility.yul\":3140:3163   */\n      sub\n        /* \"#utility.yul\":3136:3168   */\n      slt\n        /* \"#utility.yul\":3133:3252   */\n      iszero\n      tag_91\n      jumpi\n        /* \"#utility.yul\":3171:3250   */\n      tag_92\n      tag_34\n      jump\t// in\n    tag_92:\n        /* \"#utility.yul\":3133:3252   */\n    tag_91:\n        /* \"#utility.yul\":3291:3292   */\n      0x00\n        /* \"#utility.yul\":3316:3369   */\n      tag_93\n        /* \"#utility.yul\":3361:3368   */\n      dup5\n        /* \"#utility.yul\":3352:3358   */\n      dup3\n        /* \"#utility.yul\":3341:3350   */\n      dup6\n        /* \"#utility.yul\":3337:3359   */\n      add\n        /* \"#utility.yul\":3316:3369   */\n      tag_47\n      jump\t// in\n    tag_93:\n        /* \"#utility.yul\":3306:3369   */\n      swap2\n      pop\n        /* \"#utility.yul\":3262:3379   */\n      pop\n        /* \"#utility.yul\":3057:3386   */\n      swap3\n      swap2\n      pop\n      pop\n      jump\t// out\n        /* \"#utility.yul\":3392:3510   */\n    tag_48:\n        /* \"#utility.yul\":3479:3503   */\n      tag_95\n        /* \"#utility.yul\":3497:3502   */\n      dup2\n        /* \"#utility.yul\":3479:3503   */\n      tag_36\n      jump\t// in\n    tag_95:\n        /* \"#utility.yul\":3474:3477   */\n      dup3\n        /* \"#utility.yul\":3467:3504   */\n      mstore\n        /* \"#utility.yul\":3392:3510   */\n      pop\n      pop\n      jump\t// out\n        /* \"#utility.yul\":3516:3848   */\n    tag_24:\n        /* \"#utility.yul\":3637:3641   */\n      0x00\n        /* \"#utility.yul\":3675:3677   */\n      0x40\n        /* \"#utility.yul\":3664:3673   */\n      dup3\n        /* \"#utility.yul\":3660:3678   */\n      add\n        /* \"#utility.yul\":3652:3678   */\n      swap1\n      pop\n        /* \"#utility.yul\":3688:3759   */\n      tag_97\n        /* \"#utility.yul\":3756:3757   */\n      0x00\n        /* \"#utility.yul\":3745:3754   */\n      dup4\n        /* \"#utility.yul\":3741:3758   */\n      add\n        /* \"#utility.yul\":3732:3738   */\n      dup6\n        /* \"#utility.yul\":3688:3759   */\n      tag_48\n      jump\t// in\n    tag_97:\n        /* \"#utility.yul\":3769:3841   */\n      tag_98\n        /* \"#utility.yul\":3837:3839   */\n      0x20\n        /* \"#utility.yul\":3826:3835   */\n      dup4\n        /* \"#utility.yul\":3822:3840   */\n      add\n        /* \"#utility.yul\":3813:3819   */\n      dup5\n        /* \"#utility.yul\":3769:3841   */\n      tag_48\n      jump\t// in\n    tag_98:\n        /* \"#utility.yul\":3516:3848   */\n      swap4\n      swap3\n      pop\n      pop\n      pop\n      jump\t// out\n        /* \"#utility.yul\":3854:4001   */\n    tag_49:\n        /* \"#utility.yul\":3955:3966   */\n      0x00\n        /* \"#utility.yul\":3992:3995   */\n      dup2\n        /* \"#utility.yul\":3977:3995   */\n      swap1\n      pop\n        /* \"#utility.yul\":3854:4001   */\n      swap3\n      swap2\n      pop\n      pop\n      jump\t// out\n        /* \"#utility.yul\":4007:4380   */\n    tag_50:\n        /* \"#utility.yul\":4111:4114   */\n      0x00\n        /* \"#utility.yul\":4139:4177   */\n      tag_101\n        /* \"#utility.yul\":4171:4176   */\n      dup3\n        /* \"#utility.yul\":4139:4177   */\n      tag_39\n      jump\t// in\n    tag_101:\n        /* \"#utility.yul\":4193:4281   */\n      tag_102\n        /* \"#utility.yul\":4274:4280   */\n      dup2\n        /* \"#utility.yul\":4269:4272   */\n      dup6\n        /* \"#utility.yul\":4193:4281   */\n      tag_49\n      jump\t// in\n    tag_102:\n        /* \"#utility.yul\":4186:4281   */\n      swap4\n      pop\n        /* \"#utility.yul\":4290:4342   */\n      tag_103\n        /* \"#utility.yul\":4335:4341   */\n      dup2\n        /* \"#utility.yul\":4330:4333   */\n      dup6\n        /* \"#utility.yul\":4323:4327   */\n      0x20\n        /* \"#utility.yul\":4316:4321   */\n      dup7\n        /* \"#utility.yul\":4312:4328   */\n      add\n        /* \"#utility.yul\":4290:4342   */\n      tag_41\n      jump\t// in\n    tag_103:\n        /* \"#utility.yul\":4367:4373   */\n      dup1\n        /* \"#utility.yul\":4362:4365   */\n      dup5\n        /* \"#utility.yul\":4358:4374   */\n      add\n        /* \"#utility.yul\":4351:4374   */\n      swap2\n      pop\n        /* \"#utility.yul\":4115:4380   */\n      pop\n        /* \"#utility.yul\":4007:4380   */\n      swap3\n      swap2\n      pop\n      pop\n      jump\t// out\n        /* \"#utility.yul\":4386:4813   */\n    tag_26:\n        /* \"#utility.yul\":4562:4565   */\n      0x00\n        /* \"#utility.yul\":4584:4677   */\n      tag_105\n        /* \"#utility.yul\":4673:4676   */\n      dup3\n        /* \"#utility.yul\":4664:4670   */\n      dup6\n        /* \"#utility.yul\":4584:4677   */\n      tag_50\n      jump\t// in\n    tag_105:\n        /* \"#utility.yul\":4577:4677   */\n      swap2\n      pop\n        /* \"#utility.yul\":4694:4787   */\n      tag_106\n        /* \"#utility.yul\":4783:4786   */\n      dup3\n        /* \"#utility.yul\":4774:4780   */\n      dup5\n        /* \"#utility.yul\":4694:4787   */\n      tag_50\n      jump\t// in\n    tag_106:\n        /* \"#utility.yul\":4687:4787   */\n      swap2\n      pop\n        /* \"#utility.yul\":4804:4807   */\n      dup2\n        /* \"#utility.yul\":4797:4807   */\n      swap1\n      pop\n        /* \"#utility.yul\":4386:4813   */\n      swap4\n      swap3\n      pop\n      pop\n      pop\n      jump\t// out\n        /* \"#utility.yul\":4819:4937   */\n    tag_51:\n        /* \"#utility.yul\":4906:4930   */\n      tag_108\n        /* \"#utility.yul\":4924:4929   */\n      dup2\n        /* \"#utility.yul\":4906:4930   */\n      tag_45\n      jump\t// in\n    tag_108:\n        /* \"#utility.yul\":4901:4904   */\n      dup3\n        /* \"#utility.yul\":4894:4931   */\n      mstore\n        /* \"#utility.yul\":4819:4937   */\n      pop\n      pop\n      jump\t// out\n        /* \"#utility.yul\":4943:5165   */\n    tag_29:\n        /* \"#utility.yul\":5036:5040   */\n      0x00\n        /* \"#utility.yul\":5074:5076   */\n      0x20\n        /* \"#utility.yul\":5063:5072   */\n      dup3\n        /* \"#utility.yul\":5059:5077   */\n      add\n        /* \"#utility.yul\":5051:5077   */\n      swap1\n      pop\n        /* \"#utility.yul\":5087:5158   */\n      tag_110\n        /* \"#utility.yul\":5155:5156   */\n      0x00\n        /* \"#utility.yul\":5144:5153   */\n      dup4\n        /* \"#utility.yul\":5140:5157   */\n      add\n        /* \"#utility.yul\":5131:5137   */\n      dup5\n        /* \"#utility.yul\":5087:5158   */\n      tag_51\n      jump\t// in\n    tag_110:\n        /* \"#utility.yul\":4943:5165   */\n      swap3\n      swap2\n      pop\n      pop\n      jump\t// out\n    stop\n\n    sub_0: assembly {\n            /* \"study/chapter11/proxyDeploy.sol\":249:504  contract Test2{... */\n          mstore(0x40, 0x80)\n            /* \"study/chapter11/proxyDeploy.sol\":293:303  msg.sender */\n          caller\n            /* \"study/chapter11/proxyDeploy.sol\":269:303  address public owner  = msg.sender */\n          0x00\n          dup1\n          0x0100\n          exp\n          dup2\n          sload\n          dup2\n          0xffffffffffffffffffffffffffffffffffffffff\n          mul\n          not\n          and\n          swap1\n          dup4\n          0xffffffffffffffffffffffffffffffffffffffff\n          and\n          mul\n          or\n          swap1\n          sstore\n          pop\n            /* \"study/chapter11/proxyDeploy.sol\":366:375  msg.value */\n          callvalue\n            /* \"study/chapter11/proxyDeploy.sol\":347:375  uint public value =msg.value */\n          0x03\n          sstore\n            /* \"study/chapter11/proxyDeploy.sol\":427:502  constructor(uint _x,uint _y) payable{... */\n          mload(0x40)\n          sub(codesize, bytecodeSize)\n          dup1\n          bytecodeSize\n          dup4\n          codecopy\n          dup2\n          dup2\n          add\n          0x40\n          mstore\n          dup2\n          add\n          swap1\n          tag_1\n          swap2\n          swap1\n          tag_2\n          jump\t// in\n        tag_1:\n            /* \"study/chapter11/proxyDeploy.sol\":477:479  _x */\n          dup2\n            /* \"study/chapter11/proxyDeploy.sol\":473:474  x */\n          0x01\n            /* \"study/chapter11/proxyDeploy.sol\":473:479  x = _x */\n          dup2\n          swap1\n          sstore\n          pop\n            /* \"study/chapter11/proxyDeploy.sol\":493:495  _y */\n          dup1\n            /* \"study/chapter11/proxyDeploy.sol\":489:490  y */\n          0x02\n            /* \"study/chapter11/proxyDeploy.sol\":489:495  y = _y */\n          dup2\n          swap1\n          sstore\n          pop\n            /* \"study/chapter11/proxyDeploy.sol\":427:502  constructor(uint _x,uint _y) payable{... */\n          pop\n          pop\n            /* \"study/chapter11/proxyDeploy.sol\":249:504  contract Test2{... */\n          jump(tag_5)\n            /* \"#utility.yul\":88:205   */\n        tag_7:\n            /* \"#utility.yul\":197:198   */\n          0x00\n            /* \"#utility.yul\":194:195   */\n          dup1\n            /* \"#utility.yul\":187:199   */\n          revert\n            /* \"#utility.yul\":334:411   */\n        tag_9:\n            /* \"#utility.yul\":371:378   */\n          0x00\n            /* \"#utility.yul\":400:405   */\n          dup2\n            /* \"#utility.yul\":389:405   */\n          swap1\n          pop\n            /* \"#utility.yul\":334:411   */\n          swap2\n          swap1\n          pop\n          jump\t// out\n            /* \"#utility.yul\":417:539   */\n        tag_10:\n            /* \"#utility.yul\":490:514   */\n          tag_18\n            /* \"#utility.yul\":508:513   */\n          dup2\n            /* \"#utility.yul\":490:514   */\n          tag_9\n          jump\t// in\n        tag_18:\n            /* \"#utility.yul\":483:488   */\n          dup2\n            /* \"#utility.yul\":480:515   */\n          eq\n            /* \"#utility.yul\":470:533   */\n          tag_19\n          jumpi\n            /* \"#utility.yul\":529:530   */\n          0x00\n            /* \"#utility.yul\":526:527   */\n          dup1\n            /* \"#utility.yul\":519:531   */\n          revert\n            /* \"#utility.yul\":470:533   */\n        tag_19:\n            /* \"#utility.yul\":417:539   */\n          pop\n          jump\t// out\n            /* \"#utility.yul\":545:688   */\n        tag_11:\n            /* \"#utility.yul\":602:607   */\n          0x00\n            /* \"#utility.yul\":633:639   */\n          dup2\n            /* \"#utility.yul\":627:640   */\n          mload\n            /* \"#utility.yul\":618:640   */\n          swap1\n          pop\n            /* \"#utility.yul\":649:682   */\n          tag_21\n            /* \"#utility.yul\":676:681   */\n          dup2\n            /* \"#utility.yul\":649:682   */\n          tag_10\n          jump\t// in\n        tag_21:\n            /* \"#utility.yul\":545:688   */\n          swap3\n          swap2\n          pop\n          pop\n          jump\t// out\n            /* \"#utility.yul\":694:1201   */\n        tag_2:\n            /* \"#utility.yul\":773:779   */\n          0x00\n            /* \"#utility.yul\":781:787   */\n          dup1\n            /* \"#utility.yul\":830:832   */\n          0x40\n            /* \"#utility.yul\":818:827   */\n          dup4\n            /* \"#utility.yul\":809:816   */\n          dup6\n            /* \"#utility.yul\":805:828   */\n          sub\n            /* \"#utility.yul\":801:833   */\n          slt\n            /* \"#utility.yul\":798:917   */\n          iszero\n          tag_23\n          jumpi\n            /* \"#utility.yul\":836:915   */\n          tag_24\n          tag_7\n          jump\t// in\n        tag_24:\n            /* \"#utility.yul\":798:917   */\n        tag_23:\n            /* \"#utility.yul\":956:957   */\n          0x00\n            /* \"#utility.yul\":981:1045   */\n          tag_25\n            /* \"#utility.yul\":1037:1044   */\n          dup6\n            /* \"#utility.yul\":1028:1034   */\n          dup3\n            /* \"#utility.yul\":1017:1026   */\n          dup7\n            /* \"#utility.yul\":1013:1035   */\n          add\n            /* \"#utility.yul\":981:1045   */\n          tag_11\n          jump\t// in\n        tag_25:\n            /* \"#utility.yul\":971:1045   */\n          swap3\n          pop\n            /* \"#utility.yul\":927:1055   */\n          pop\n            /* \"#utility.yul\":1094:1096   */\n          0x20\n            /* \"#utility.yul\":1120:1184   */\n          tag_26\n            /* \"#utility.yul\":1176:1183   */\n          dup6\n            /* \"#utility.yul\":1167:1173   */\n          dup3\n            /* \"#utility.yul\":1156:1165   */\n          dup7\n            /* \"#utility.yul\":1152:1174   */\n          add\n            /* \"#utility.yul\":1120:1184   */\n          tag_11\n          jump\t// in\n        tag_26:\n            /* \"#utility.yul\":1110:1184   */\n          swap2\n          pop\n            /* \"#utility.yul\":1065:1194   */\n          pop\n            /* \"#utility.yul\":694:1201   */\n          swap3\n          pop\n          swap3\n          swap1\n          pop\n          jump\t// out\n            /* \"study/chapter11/proxyDeploy.sol\":249:504  contract Test2{... */\n        tag_5:\n          dataSize(sub_0)\n          dup1\n          dataOffset(sub_0)\n          0x00\n          codecopy\n          0x00\n          return\n        stop\n\n        sub_0: assembly {\n                /* \"study/chapter11/proxyDeploy.sol\":249:504  contract Test2{... */\n              mstore(0x40, 0x80)\n              callvalue\n              dup1\n              iszero\n              tag_1\n              jumpi\n              0x00\n              dup1\n              revert\n            tag_1:\n              pop\n              jumpi(tag_2, lt(calldatasize, 0x04))\n              shr(0xe0, calldataload(0x00))\n              dup1\n              0x0c55699c\n              eq\n              tag_3\n              jumpi\n              dup1\n              0x3fa4f245\n              eq\n              tag_4\n              jumpi\n              dup1\n              0x8da5cb5b\n              eq\n              tag_5\n              jumpi\n              dup1\n              0xa56dfe4a\n              eq\n              tag_6\n              jumpi\n            tag_2:\n              0x00\n              dup1\n              revert\n                /* \"study/chapter11/proxyDeploy.sol\":309:322  uint public x */\n            tag_3:\n              tag_7\n              tag_8\n              jump\t// in\n            tag_7:\n              mload(0x40)\n              tag_9\n              swap2\n              swap1\n              tag_10\n              jump\t// in\n            tag_9:\n              mload(0x40)\n              dup1\n              swap2\n              sub\n              swap1\n              return\n                /* \"study/chapter11/proxyDeploy.sol\":347:375  uint public value =msg.value */\n            tag_4:\n              tag_11\n              tag_12\n              jump\t// in\n            tag_11:\n              mload(0x40)\n              tag_13\n              swap2\n              swap1\n              tag_10\n              jump\t// in\n            tag_13:\n              mload(0x40)\n              dup1\n              swap2\n              sub\n              swap1\n              return\n                /* \"study/chapter11/proxyDeploy.sol\":269:303  address public owner  = msg.sender */\n            tag_5:\n              tag_14\n              tag_15\n              jump\t// in\n            tag_14:\n              mload(0x40)\n              tag_16\n              swap2\n              swap1\n              tag_17\n              jump\t// in\n            tag_16:\n              mload(0x40)\n              dup1\n              swap2\n              sub\n              swap1\n              return\n                /* \"study/chapter11/proxyDeploy.sol\":328:341  uint public y */\n            tag_6:\n              tag_18\n              tag_19\n              jump\t// in\n            tag_18:\n              mload(0x40)\n              tag_20\n              swap2\n              swap1\n              tag_10\n              jump\t// in\n            tag_20:\n              mload(0x40)\n              dup1\n              swap2\n              sub\n              swap1\n              return\n                /* \"study/chapter11/proxyDeploy.sol\":309:322  uint public x */\n            tag_8:\n              sload(0x01)\n              dup2\n              jump\t// out\n                /* \"study/chapter11/proxyDeploy.sol\":347:375  uint public value =msg.value */\n            tag_12:\n              sload(0x03)\n              dup2\n              jump\t// out\n                /* \"study/chapter11/proxyDeploy.sol\":269:303  address public owner  = msg.sender */\n            tag_15:\n              0x00\n              dup1\n              sload\n              swap1\n              0x0100\n              exp\n              swap1\n              div\n              0xffffffffffffffffffffffffffffffffffffffff\n              and\n              dup2\n              jump\t// out\n                /* \"study/chapter11/proxyDeploy.sol\":328:341  uint public y */\n            tag_19:\n              sload(0x02)\n              dup2\n              jump\t// out\n                /* \"#utility.yul\":7:84   */\n            tag_21:\n                /* \"#utility.yul\":44:51   */\n              0x00\n                /* \"#utility.yul\":73:78   */\n              dup2\n                /* \"#utility.yul\":62:78   */\n              swap1\n              pop\n                /* \"#utility.yul\":7:84   */\n              swap2\n              swap1\n              pop\n              jump\t// out\n                /* \"#utility.yul\":90:208   */\n            tag_22:\n                /* \"#utility.yul\":177:201   */\n              tag_29\n                /* \"#utility.yul\":195:200   */\n              dup2\n                /* \"#utility.yul\":177:201   */\n              tag_21\n              jump\t// in\n            tag_29:\n                /* \"#utility.yul\":172:175   */\n              dup3\n                /* \"#utility.yul\":165:202   */\n              mstore\n                /* \"#utility.yul\":90:208   */\n              pop\n              pop\n              jump\t// out\n                /* \"#utility.yul\":214:436   */\n            tag_10:\n                /* \"#utility.yul\":307:311   */\n              0x00\n                /* \"#utility.yul\":345:347   */\n              0x20\n                /* \"#utility.yul\":334:343   */\n              dup3\n                /* \"#utility.yul\":330:348   */\n              add\n                /* \"#utility.yul\":322:348   */\n              swap1\n              pop\n                /* \"#utility.yul\":358:429   */\n              tag_31\n                /* \"#utility.yul\":426:427   */\n              0x00\n                /* \"#utility.yul\":415:424   */\n              dup4\n                /* \"#utility.yul\":411:428   */\n              add\n                /* \"#utility.yul\":402:408   */\n              dup5\n                /* \"#utility.yul\":358:429   */\n              tag_22\n              jump\t// in\n            tag_31:\n                /* \"#utility.yul\":214:436   */\n              swap3\n              swap2\n              pop\n              pop\n              jump\t// out\n                /* \"#utility.yul\":442:568   */\n            tag_23:\n                /* \"#utility.yul\":479:486   */\n              0x00\n                /* \"#utility.yul\":519:561   */\n              0xffffffffffffffffffffffffffffffffffffffff\n                /* \"#utility.yul\":512:517   */\n              dup3\n                /* \"#utility.yul\":508:562   */\n              and\n                /* \"#utility.yul\":497:562   */\n              swap1\n              pop\n                /* \"#utility.yul\":442:568   */\n              swap2\n              swap1\n              pop\n              jump\t// out\n                /* \"#utility.yul\":574:670   */\n            tag_24:\n                /* \"#utility.yul\":611:618   */\n              0x00\n                /* \"#utility.yul\":640:664   */\n              tag_34\n                /* \"#utility.yul\":658:663   */\n              dup3\n                /* \"#utility.yul\":640:664   */\n              tag_23\n              jump\t// in\n            tag_34:\n                /* \"#utility.yul\":629:664   */\n              swap1\n              pop\n                /* \"#utility.yul\":574:670   */\n              swap2\n              swap1\n              pop\n              jump\t// out\n                /* \"#utility.yul\":676:794   */\n            tag_25:\n                /* \"#utility.yul\":763:787   */\n              tag_36\n                /* \"#utility.yul\":781:786   */\n              dup2\n                /* \"#utility.yul\":763:787   */\n              tag_24\n              jump\t// in\n            tag_36:\n                /* \"#utility.yul\":758:761   */\n              dup3\n                /* \"#utility.yul\":751:788   */\n              mstore\n                /* \"#utility.yul\":676:794   */\n              pop\n              pop\n              jump\t// out\n                /* \"#utility.yul\":800:1022   */\n            tag_17:\n                /* \"#utility.yul\":893:897   */\n              0x00\n                /* \"#utility.yul\":931:933   */\n              0x20\n                /* \"#utility.yul\":920:929   */\n              dup3\n                /* \"#utility.yul\":916:934   */\n              add\n                /* \"#utility.yul\":908:934   */\n              swap1\n              pop\n                /* \"#utility.yul\":944:1015   */\n              tag_38\n                /* \"#utility.yul\":1012:1013   */\n              0x00\n                /* \"#utility.yul\":1001:1010   */\n              dup4\n                /* \"#utility.yul\":997:1014   */\n              add\n                /* \"#utility.yul\":988:994   */\n              dup5\n                /* \"#utility.yul\":944:1015   */\n              tag_25\n              jump\t// in\n            tag_38:\n                /* \"#utility.yul\":800:1022   */\n              swap3\n              swap2\n              pop\n              pop\n              jump\t// out\n\n            auxdata: 0xa26469706673582212208cb28d8c8aa5a8cc985b984497cc9b0ae7a6057dad0e80fec47ebb6a2745141364736f6c634300080f0033\n        }\n    }\n\n    sub_1: assembly {\n            /* \"study/chapter11/proxyDeploy.sol\":54:247  contract Test1{... */\n          mstore(0x40, 0x80)\n            /* \"study/chapter11/proxyDeploy.sol\":97:107  msg.sender */\n          caller\n            /* \"study/chapter11/proxyDeploy.sol\":74:107  address public owner = msg.sender */\n          0x00\n          dup1\n          0x0100\n          exp\n          dup2\n          sload\n          dup2\n          0xffffffffffffffffffffffffffffffffffffffff\n          mul\n          not\n          and\n          swap1\n          dup4\n          0xffffffffffffffffffffffffffffffffffffffff\n          and\n          mul\n          or\n          swap1\n          sstore\n          pop\n            /* \"study/chapter11/proxyDeploy.sol\":54:247  contract Test1{... */\n          callvalue\n          dup1\n          iszero\n          tag_1\n          jumpi\n          0x00\n          dup1\n          revert\n        tag_1:\n          pop\n          dataSize(sub_0)\n          dup1\n          dataOffset(sub_0)\n          0x00\n          codecopy\n          0x00\n          return\n        stop\n\n        sub_0: assembly {\n                /* \"study/chapter11/proxyDeploy.sol\":54:247  contract Test1{... */\n              mstore(0x40, 0x80)\n              callvalue\n              dup1\n              iszero\n              tag_1\n              jumpi\n              0x00\n              dup1\n              revert\n            tag_1:\n              pop\n              jumpi(tag_2, lt(calldatasize, 0x04))\n              shr(0xe0, calldataload(0x00))\n              dup1\n              0x13af4035\n              eq\n              tag_3\n              jumpi\n              dup1\n              0x8da5cb5b\n              eq\n              tag_4\n              jumpi\n            tag_2:\n              0x00\n              dup1\n              revert\n                /* \"study/chapter11/proxyDeploy.sol\":113:245  function setOwner(address newOwner)public{... */\n            tag_3:\n              tag_5\n              0x04\n              dup1\n              calldatasize\n              sub\n              dup2\n              add\n              swap1\n              tag_6\n              swap2\n              swap1\n              tag_7\n              jump\t// in\n            tag_6:\n              tag_8\n              jump\t// in\n            tag_5:\n              stop\n                /* \"study/chapter11/proxyDeploy.sol\":74:107  address public owner = msg.sender */\n            tag_4:\n              tag_9\n              tag_10\n              jump\t// in\n            tag_9:\n              mload(0x40)\n              tag_11\n              swap2\n              swap1\n              tag_12\n              jump\t// in\n            tag_11:\n              mload(0x40)\n              dup1\n              swap2\n              sub\n              swap1\n              return\n                /* \"study/chapter11/proxyDeploy.sol\":113:245  function setOwner(address newOwner)public{... */\n            tag_8:\n                /* \"study/chapter11/proxyDeploy.sol\":186:191  owner */\n              0x00\n              dup1\n              sload\n              swap1\n              0x0100\n              exp\n              swap1\n              div\n              0xffffffffffffffffffffffffffffffffffffffff\n              and\n                /* \"study/chapter11/proxyDeploy.sol\":172:191  msg.sender == owner */\n              0xffffffffffffffffffffffffffffffffffffffff\n              and\n                /* \"study/chapter11/proxyDeploy.sol\":172:182  msg.sender */\n              caller\n                /* \"study/chapter11/proxyDeploy.sol\":172:191  msg.sender == owner */\n              0xffffffffffffffffffffffffffffffffffffffff\n              and\n              eq\n                /* \"study/chapter11/proxyDeploy.sol\":164:212  require(msg.sender == owner,\"cant not use this\") */\n              tag_14\n              jumpi\n              mload(0x40)\n              0x08c379a000000000000000000000000000000000000000000000000000000000\n              dup2\n              mstore\n              0x04\n              add\n              tag_15\n              swap1\n              tag_16\n              jump\t// in\n            tag_15:\n              mload(0x40)\n              dup1\n              swap2\n              sub\n              swap1\n              revert\n            tag_14:\n                /* \"study/chapter11/proxyDeploy.sol\":230:238  newOwner */\n              dup1\n                /* \"study/chapter11/proxyDeploy.sol\":222:227  owner */\n              0x00\n              dup1\n                /* \"study/chapter11/proxyDeploy.sol\":222:238  owner = newOwner */\n              0x0100\n              exp\n              dup2\n              sload\n              dup2\n              0xffffffffffffffffffffffffffffffffffffffff\n              mul\n              not\n              and\n              swap1\n              dup4\n              0xffffffffffffffffffffffffffffffffffffffff\n              and\n              mul\n              or\n              swap1\n              sstore\n              pop\n                /* \"study/chapter11/proxyDeploy.sol\":113:245  function setOwner(address newOwner)public{... */\n              pop\n              jump\t// out\n                /* \"study/chapter11/proxyDeploy.sol\":74:107  address public owner = msg.sender */\n            tag_10:\n              0x00\n              dup1\n              sload\n              swap1\n              0x0100\n              exp\n              swap1\n              div\n              0xffffffffffffffffffffffffffffffffffffffff\n              and\n              dup2\n              jump\t// out\n                /* \"#utility.yul\":88:205   */\n            tag_18:\n                /* \"#utility.yul\":197:198   */\n              0x00\n                /* \"#utility.yul\":194:195   */\n              dup1\n                /* \"#utility.yul\":187:199   */\n              revert\n                /* \"#utility.yul\":334:460   */\n            tag_20:\n                /* \"#utility.yul\":371:378   */\n              0x00\n                /* \"#utility.yul\":411:453   */\n              0xffffffffffffffffffffffffffffffffffffffff\n                /* \"#utility.yul\":404:409   */\n              dup3\n                /* \"#utility.yul\":400:454   */\n              and\n                /* \"#utility.yul\":389:454   */\n              swap1\n              pop\n                /* \"#utility.yul\":334:460   */\n              swap2\n              swap1\n              pop\n              jump\t// out\n                /* \"#utility.yul\":466:562   */\n            tag_21:\n                /* \"#utility.yul\":503:510   */\n              0x00\n                /* \"#utility.yul\":532:556   */\n              tag_34\n                /* \"#utility.yul\":550:555   */\n              dup3\n                /* \"#utility.yul\":532:556   */\n              tag_20\n              jump\t// in\n            tag_34:\n                /* \"#utility.yul\":521:556   */\n              swap1\n              pop\n                /* \"#utility.yul\":466:562   */\n              swap2\n              swap1\n              pop\n              jump\t// out\n                /* \"#utility.yul\":568:690   */\n            tag_22:\n                /* \"#utility.yul\":641:665   */\n              tag_36\n                /* \"#utility.yul\":659:664   */\n              dup2\n                /* \"#utility.yul\":641:665   */\n              tag_21\n              jump\t// in\n            tag_36:\n                /* \"#utility.yul\":634:639   */\n              dup2\n                /* \"#utility.yul\":631:666   */\n              eq\n                /* \"#utility.yul\":621:684   */\n              tag_37\n              jumpi\n                /* \"#utility.yul\":680:681   */\n              0x00\n                /* \"#utility.yul\":677:678   */\n              dup1\n                /* \"#utility.yul\":670:682   */\n              revert\n                /* \"#utility.yul\":621:684   */\n            tag_37:\n                /* \"#utility.yul\":568:690   */\n              pop\n              jump\t// out\n                /* \"#utility.yul\":696:835   */\n            tag_23:\n                /* \"#utility.yul\":742:747   */\n              0x00\n                /* \"#utility.yul\":780:786   */\n              dup2\n                /* \"#utility.yul\":767:787   */\n              calldataload\n                /* \"#utility.yul\":758:787   */\n              swap1\n              pop\n                /* \"#utility.yul\":796:829   */\n              tag_39\n                /* \"#utility.yul\":823:828   */\n              dup2\n                /* \"#utility.yul\":796:829   */\n              tag_22\n              jump\t// in\n            tag_39:\n                /* \"#utility.yul\":696:835   */\n              swap3\n              swap2\n              pop\n              pop\n              jump\t// out\n                /* \"#utility.yul\":841:1170   */\n            tag_7:\n                /* \"#utility.yul\":900:906   */\n              0x00\n                /* \"#utility.yul\":949:951   */\n              0x20\n                /* \"#utility.yul\":937:946   */\n              dup3\n                /* \"#utility.yul\":928:935   */\n              dup5\n                /* \"#utility.yul\":924:947   */\n              sub\n                /* \"#utility.yul\":920:952   */\n              slt\n                /* \"#utility.yul\":917:1036   */\n              iszero\n              tag_41\n              jumpi\n                /* \"#utility.yul\":955:1034   */\n              tag_42\n              tag_18\n              jump\t// in\n            tag_42:\n                /* \"#utility.yul\":917:1036   */\n            tag_41:\n                /* \"#utility.yul\":1075:1076   */\n              0x00\n                /* \"#utility.yul\":1100:1153   */\n              tag_43\n                /* \"#utility.yul\":1145:1152   */\n              dup5\n                /* \"#utility.yul\":1136:1142   */\n              dup3\n                /* \"#utility.yul\":1125:1134   */\n              dup6\n                /* \"#utility.yul\":1121:1143   */\n              add\n                /* \"#utility.yul\":1100:1153   */\n              tag_23\n              jump\t// in\n            tag_43:\n                /* \"#utility.yul\":1090:1153   */\n              swap2\n              pop\n                /* \"#utility.yul\":1046:1163   */\n              pop\n                /* \"#utility.yul\":841:1170   */\n              swap3\n              swap2\n              pop\n              pop\n              jump\t// out\n                /* \"#utility.yul\":1176:1294   */\n            tag_24:\n                /* \"#utility.yul\":1263:1287   */\n              tag_45\n                /* \"#utility.yul\":1281:1286   */\n              dup2\n                /* \"#utility.yul\":1263:1287   */\n              tag_21\n              jump\t// in\n            tag_45:\n                /* \"#utility.yul\":1258:1261   */\n              dup3\n                /* \"#utility.yul\":1251:1288   */\n              mstore\n                /* \"#utility.yul\":1176:1294   */\n              pop\n              pop\n              jump\t// out\n                /* \"#utility.yul\":1300:1522   */\n            tag_12:\n                /* \"#utility.yul\":1393:1397   */\n              0x00\n                /* \"#utility.yul\":1431:1433   */\n              0x20\n                /* \"#utility.yul\":1420:1429   */\n              dup3\n                /* \"#utility.yul\":1416:1434   */\n              add\n                /* \"#utility.yul\":1408:1434   */\n              swap1\n              pop\n                /* \"#utility.yul\":1444:1515   */\n              tag_47\n                /* \"#utility.yul\":1512:1513   */\n              0x00\n                /* \"#utility.yul\":1501:1510   */\n              dup4\n                /* \"#utility.yul\":1497:1514   */\n              add\n                /* \"#utility.yul\":1488:1494   */\n              dup5\n                /* \"#utility.yul\":1444:1515   */\n              tag_24\n              jump\t// in\n            tag_47:\n                /* \"#utility.yul\":1300:1522   */\n              swap3\n              swap2\n              pop\n              pop\n              jump\t// out\n                /* \"#utility.yul\":1528:1697   */\n            tag_25:\n                /* \"#utility.yul\":1612:1623   */\n              0x00\n                /* \"#utility.yul\":1646:1652   */\n              dup3\n                /* \"#utility.yul\":1641:1644   */\n              dup3\n                /* \"#utility.yul\":1634:1653   */\n              mstore\n                /* \"#utility.yul\":1686:1690   */\n              0x20\n                /* \"#utility.yul\":1681:1684   */\n              dup3\n                /* \"#utility.yul\":1677:1691   */\n              add\n                /* \"#utility.yul\":1662:1691   */\n              swap1\n              pop\n                /* \"#utility.yul\":1528:1697   */\n              swap3\n              swap2\n              pop\n              pop\n              jump\t// out\n                /* \"#utility.yul\":1703:1870   */\n            tag_26:\n                /* \"#utility.yul\":1843:1862   */\n              0x63616e74206e6f74207573652074686973000000000000000000000000000000\n                /* \"#utility.yul\":1839:1840   */\n              0x00\n                /* \"#utility.yul\":1831:1837   */\n              dup3\n                /* \"#utility.yul\":1827:1841   */\n              add\n                /* \"#utility.yul\":1820:1863   */\n              mstore\n                /* \"#utility.yul\":1703:1870   */\n              pop\n              jump\t// out\n                /* \"#utility.yul\":1876:2242   */\n            tag_27:\n                /* \"#utility.yul\":2018:2021   */\n              0x00\n                /* \"#utility.yul\":2039:2106   */\n              tag_51\n                /* \"#utility.yul\":2103:2105   */\n              0x11\n                /* \"#utility.yul\":2098:2101   */\n              dup4\n                /* \"#utility.yul\":2039:2106   */\n              tag_25\n              jump\t// in\n            tag_51:\n                /* \"#utility.yul\":2032:2106   */\n              swap2\n              pop\n                /* \"#utility.yul\":2115:2208   */\n              tag_52\n                /* \"#utility.yul\":2204:2207   */\n              dup3\n                /* \"#utility.yul\":2115:2208   */\n              tag_26\n              jump\t// in\n            tag_52:\n                /* \"#utility.yul\":2233:2235   */\n              0x20\n                /* \"#utility.yul\":2228:2231   */\n              dup3\n                /* \"#utility.yul\":2224:2236   */\n              add\n                /* \"#utility.yul\":2217:2236   */\n              swap1\n              pop\n                /* \"#utility.yul\":1876:2242   */\n              swap2\n              swap1\n              pop\n              jump\t// out\n                /* \"#utility.yul\":2248:2667   */\n            tag_16:\n                /* \"#utility.yul\":2414:2418   */\n              0x00\n                /* \"#utility.yul\":2452:2454   */\n              0x20\n                /* \"#utility.yul\":2441:2450   */\n              dup3\n                /* \"#utility.yul\":2437:2455   */\n              add\n                /* \"#utility.yul\":2429:2455   */\n              swap1\n              pop\n                /* \"#utility.yul\":2501:2510   */\n              dup2\n                /* \"#utility.yul\":2495:2499   */\n              dup2\n                /* \"#utility.yul\":2491:2511   */\n              sub\n                /* \"#utility.yul\":2487:2488   */\n              0x00\n                /* \"#utility.yul\":2476:2485   */\n              dup4\n                /* \"#utility.yul\":2472:2489   */\n              add\n                /* \"#utility.yul\":2465:2512   */\n              mstore\n                /* \"#utility.yul\":2529:2660   */\n              tag_54\n                /* \"#utility.yul\":2655:2659   */\n              dup2\n                /* \"#utility.yul\":2529:2660   */\n              tag_27\n              jump\t// in\n            tag_54:\n                /* \"#utility.yul\":2521:2660   */\n              swap1\n              pop\n                /* \"#utility.yul\":2248:2667   */\n              swap2\n              swap1\n              pop\n              jump\t// out\n\n            auxdata: 0xa264697066735822122087ac5962a074d768b80d0081c8f5b5fabbfdc8fa2000108ce91a8b2902802e3464736f6c634300080f0033\n        }\n    }\n\n    auxdata: 0xa264697066735822122047b43189849bf2cf9aa4ff501d42ccf3d788a3b3bc954ce7ec0b7778e376e25864736f6c634300080f0033\n}\n",
				"bytecode": {
					"linkReferences": {},
					"object": "608060405234801561001057600080fd5b50610ad9806100206000396000f3fe608060405234801561001057600080fd5b50600436106100415760003560e01c80635354f85514610046578063bed7ddf314610076578063f05f9668146100a6575b600080fd5b610060600480360381019061005b9190610257565b6100c4565b60405161006d9190610330565b60405180910390f35b610090600480360381019061008b91906103b0565b61013a565b60405161009d9190610330565b60405180910390f35b6100ae6101d1565b6040516100bb9190610330565b60405180910390f35b60606000604051806020016100d890610202565b6020820181038252601f19601f8201166040525090508084846040516020016101029291906103ec565b604051602081830303815290604052604051602001610122929190610451565b60405160208183030381529060405291505092915050565b60608160405160240161014d9190610484565b6040516020818303038152906040527f13af4035000000000000000000000000000000000000000000000000000000007bffffffffffffffffffffffffffffffffffffffffffffffffffffffff19166020820180517bffffffffffffffffffffffffffffffffffffffffffffffffffffffff83818316178352505050509050919050565b60606000604051806020016101e59061020f565b6020820181038252601f19601f8201166040525090508091505090565b6102cd806104a083390190565b6103378061076d83390190565b600080fd5b6000819050919050565b61023481610221565b811461023f57600080fd5b50565b6000813590506102518161022b565b92915050565b6000806040838503121561026e5761026d61021c565b5b600061027c85828601610242565b925050602061028d85828601610242565b9150509250929050565b600081519050919050565b600082825260208201905092915050565b60005b838110156102d15780820151818401526020810190506102b6565b838111156102e0576000848401525b50505050565b6000601f19601f8301169050919050565b600061030282610297565b61030c81856102a2565b935061031c8185602086016102b3565b610325816102e6565b840191505092915050565b6000602082019050818103600083015261034a81846102f7565b905092915050565b600073ffffffffffffffffffffffffffffffffffffffff82169050919050565b600061037d82610352565b9050919050565b61038d81610372565b811461039857600080fd5b50565b6000813590506103aa81610384565b92915050565b6000602082840312156103c6576103c561021c565b5b60006103d48482850161039b565b91505092915050565b6103e681610221565b82525050565b600060408201905061040160008301856103dd565b61040e60208301846103dd565b9392505050565b600081905092915050565b600061042b82610297565b6104358185610415565b93506104458185602086016102b3565b80840191505092915050565b600061045d8285610420565b91506104698284610420565b91508190509392505050565b61047e81610372565b82525050565b60006020820190506104996000830184610475565b9291505056fe6080604052336000806101000a81548173ffffffffffffffffffffffffffffffffffffffff021916908373ffffffffffffffffffffffffffffffffffffffff160217905550346003556040516102cd3803806102cd833981810160405281019061006991906100b9565b816001819055508060028190555050506100f9565b600080fd5b6000819050919050565b61009681610083565b81146100a157600080fd5b50565b6000815190506100b38161008d565b92915050565b600080604083850312156100d0576100cf61007e565b5b60006100de858286016100a4565b92505060206100ef858286016100a4565b9150509250929050565b6101c5806101086000396000f3fe608060405234801561001057600080fd5b506004361061004c5760003560e01c80630c55699c146100515780633fa4f2451461006f5780638da5cb5b1461008d578063a56dfe4a146100ab575b600080fd5b6100596100c9565b6040516100669190610118565b60405180910390f35b6100776100cf565b6040516100849190610118565b60405180910390f35b6100956100d5565b6040516100a29190610174565b60405180910390f35b6100b36100f9565b6040516100c09190610118565b60405180910390f35b60015481565b60035481565b60008054906101000a900473ffffffffffffffffffffffffffffffffffffffff1681565b60025481565b6000819050919050565b610112816100ff565b82525050565b600060208201905061012d6000830184610109565b92915050565b600073ffffffffffffffffffffffffffffffffffffffff82169050919050565b600061015e82610133565b9050919050565b61016e81610153565b82525050565b60006020820190506101896000830184610165565b9291505056fea26469706673582212208cb28d8c8aa5a8cc985b984497cc9b0ae7a6057dad0e80fec47ebb6a2745141364736f6c634300080f00336080604052336000806101000a81548173ffffffffffffffffffffffffffffffffffffffff021916908373ffffffffffffffffffffffffffffffffffffffff16021790555034801561005057600080fd5b506102d7806100606000396000f3fe608060405234801561001057600080fd5b50600436106100365760003560e01c806313af40351461003b5780638da5cb5b14610057575b600080fd5b610055600480360381019061005091906101cd565b610075565b005b61005f610146565b60405161006c9190610209565b60405180910390f35b60008054906101000a900473ffffffffffffffffffffffffffffffffffffffff1673ffffffffffffffffffffffffffffffffffffffff163373ffffffffffffffffffffffffffffffffffffffff1614610103576040517f08c379a00000000000000000000000000000000000000000000000000000000081526004016100fa90610281565b60405180910390fd5b806000806101000a81548173ffffffffffffffffffffffffffffffffffffffff021916908373ffffffffffffffffffffffffffffffffffffffff16021790555050565b60008054906101000a900473ffffffffffffffffffffffffffffffffffffffff1681565b600080fd5b600073ffffffffffffffffffffffffffffffffffffffff82169050919050565b600061019a8261016f565b9050919050565b6101aa8161018f565b81146101b557600080fd5b50565b6000813590506101c7816101a1565b92915050565b6000602082840312156101e3576101e261016a565b5b60006101f1848285016101b8565b91505092915050565b6102038161018f565b82525050565b600060208201905061021e60008301846101fa565b92915050565b600082825260208201905092915050565b7f63616e74206e6f74207573652074686973000000000000000000000000000000600082015250565b600061026b601183610224565b915061027682610235565b602082019050919050565b6000602082019050818103600083015261029a8161025e565b905091905056fea264697066735822122087ac5962a074d768b80d0081c8f5b5fabbfdc8fa2000108ce91a8b2902802e3464736f6c634300080f0033a264697066735822122047b43189849bf2cf9aa4ff501d42ccf3d788a3b3bc954ce7ec0b7778e376e25864736f6c634300080f0033",
					"opcodes": "PUSH1 0x80 PUSH1 0x40 MSTORE CALLVALUE DUP1 ISZERO PUSH2 0x10 JUMPI PUSH1 0x0 DUP1 REVERT JUMPDEST POP PUSH2 0xAD9 DUP1 PUSH2 0x20 PUSH1 0x0 CODECOPY PUSH1 0x0 RETURN INVALID PUSH1 0x80 PUSH1 0x40 MSTORE CALLVALUE DUP1 ISZERO PUSH2 0x10 JUMPI PUSH1 0x0 DUP1 REVERT JUMPDEST POP PUSH1 0x4 CALLDATASIZE LT PUSH2 0x41 JUMPI PUSH1 0x0 CALLDATALOAD PUSH1 0xE0 SHR DUP1 PUSH4 0x5354F855 EQ PUSH2 0x46 JUMPI DUP1 PUSH4 0xBED7DDF3 EQ PUSH2 0x76 JUMPI DUP1 PUSH4 0xF05F9668 EQ PUSH2 0xA6 JUMPI JUMPDEST PUSH1 0x0 DUP1 REVERT JUMPDEST PUSH2 0x60 PUSH1 0x4 DUP1 CALLDATASIZE SUB DUP2 ADD SWAP1 PUSH2 0x5B SWAP2 SWAP1 PUSH2 0x257 JUMP JUMPDEST PUSH2 0xC4 JUMP JUMPDEST PUSH1 0x40 MLOAD PUSH2 0x6D SWAP2 SWAP1 PUSH2 0x330 JUMP JUMPDEST PUSH1 0x40 MLOAD DUP1 SWAP2 SUB SWAP1 RETURN JUMPDEST PUSH2 0x90 PUSH1 0x4 DUP1 CALLDATASIZE SUB DUP2 ADD SWAP1 PUSH2 0x8B SWAP2 SWAP1 PUSH2 0x3B0 JUMP JUMPDEST PUSH2 0x13A JUMP JUMPDEST PUSH1 0x40 MLOAD PUSH2 0x9D SWAP2 SWAP1 PUSH2 0x330 JUMP JUMPDEST PUSH1 0x40 MLOAD DUP1 SWAP2 SUB SWAP1 RETURN JUMPDEST PUSH2 0xAE PUSH2 0x1D1 JUMP JUMPDEST PUSH1 0x40 MLOAD PUSH2 0xBB SWAP2 SWAP1 PUSH2 0x330 JUMP JUMPDEST PUSH1 0x40 MLOAD DUP1 SWAP2 SUB SWAP1 RETURN JUMPDEST PUSH1 0x60 PUSH1 0x0 PUSH1 0x40 MLOAD DUP1 PUSH1 0x20 ADD PUSH2 0xD8 SWAP1 PUSH2 0x202 JUMP JUMPDEST PUSH1 0x20 DUP3 ADD DUP2 SUB DUP3 MSTORE PUSH1 0x1F NOT PUSH1 0x1F DUP3 ADD AND PUSH1 0x40 MSTORE POP SWAP1 POP DUP1 DUP5 DUP5 PUSH1 0x40 MLOAD PUSH1 0x20 ADD PUSH2 0x102 SWAP3 SWAP2 SWAP1 PUSH2 0x3EC JUMP JUMPDEST PUSH1 0x40 MLOAD PUSH1 0x20 DUP2 DUP4 SUB SUB DUP2 MSTORE SWAP1 PUSH1 0x40 MSTORE PUSH1 0x40 MLOAD PUSH1 0x20 ADD PUSH2 0x122 SWAP3 SWAP2 SWAP1 PUSH2 0x451 JUMP JUMPDEST PUSH1 0x40 MLOAD PUSH1 0x20 DUP2 DUP4 SUB SUB DUP2 MSTORE SWAP1 PUSH1 0x40 MSTORE SWAP2 POP POP SWAP3 SWAP2 POP POP JUMP JUMPDEST PUSH1 0x60 DUP2 PUSH1 0x40 MLOAD PUSH1 0x24 ADD PUSH2 0x14D SWAP2 SWAP1 PUSH2 0x484 JUMP JUMPDEST PUSH1 0x40 MLOAD PUSH1 0x20 DUP2 DUP4 SUB SUB DUP2 MSTORE SWAP1 PUSH1 0x40 MSTORE PUSH32 0x13AF403500000000000000000000000000000000000000000000000000000000 PUSH28 0xFFFFFFFFFFFFFFFFFFFFFFFFFFFFFFFFFFFFFFFFFFFFFFFFFFFFFFFF NOT AND PUSH1 0x20 DUP3 ADD DUP1 MLOAD PUSH28 0xFFFFFFFFFFFFFFFFFFFFFFFFFFFFFFFFFFFFFFFFFFFFFFFFFFFFFFFF DUP4 DUP2 DUP4 AND OR DUP4 MSTORE POP POP POP POP SWAP1 POP SWAP2 SWAP1 POP JUMP JUMPDEST PUSH1 0x60 PUSH1 0x0 PUSH1 0x40 MLOAD DUP1 PUSH1 0x20 ADD PUSH2 0x1E5 SWAP1 PUSH2 0x20F JUMP JUMPDEST PUSH1 0x20 DUP3 ADD DUP2 SUB DUP3 MSTORE PUSH1 0x1F NOT PUSH1 0x1F DUP3 ADD AND PUSH1 0x40 MSTORE POP SWAP1 POP DUP1 SWAP2 POP POP SWAP1 JUMP JUMPDEST PUSH2 0x2CD DUP1 PUSH2 0x4A0 DUP4 CODECOPY ADD SWAP1 JUMP JUMPDEST PUSH2 0x337 DUP1 PUSH2 0x76D DUP4 CODECOPY ADD SWAP1 JUMP JUMPDEST PUSH1 0x0 DUP1 REVERT JUMPDEST PUSH1 0x0 DUP2 SWAP1 POP SWAP2 SWAP1 POP JUMP JUMPDEST PUSH2 0x234 DUP2 PUSH2 0x221 JUMP JUMPDEST DUP2 EQ PUSH2 0x23F JUMPI PUSH1 0x0 DUP1 REVERT JUMPDEST POP JUMP JUMPDEST PUSH1 0x0 DUP2 CALLDATALOAD SWAP1 POP PUSH2 0x251 DUP2 PUSH2 0x22B JUMP JUMPDEST SWAP3 SWAP2 POP POP JUMP JUMPDEST PUSH1 0x0 DUP1 PUSH1 0x40 DUP4 DUP6 SUB SLT ISZERO PUSH2 0x26E JUMPI PUSH2 0x26D PUSH2 0x21C JUMP JUMPDEST JUMPDEST PUSH1 0x0 PUSH2 0x27C DUP6 DUP3 DUP7 ADD PUSH2 0x242 JUMP JUMPDEST SWAP3 POP POP PUSH1 0x20 PUSH2 0x28D DUP6 DUP3 DUP7 ADD PUSH2 0x242 JUMP JUMPDEST SWAP2 POP POP SWAP3 POP SWAP3 SWAP1 POP JUMP JUMPDEST PUSH1 0x0 DUP2 MLOAD SWAP1 POP SWAP2 SWAP1 POP JUMP JUMPDEST PUSH1 0x0 DUP3 DUP3 MSTORE PUSH1 0x20 DUP3 ADD SWAP1 POP SWAP3 SWAP2 POP POP JUMP JUMPDEST PUSH1 0x0 JUMPDEST DUP4 DUP2 LT ISZERO PUSH2 0x2D1 JUMPI DUP1 DUP3 ADD MLOAD DUP2 DUP5 ADD MSTORE PUSH1 0x20 DUP2 ADD SWAP1 POP PUSH2 0x2B6 JUMP JUMPDEST DUP4 DUP2 GT ISZERO PUSH2 0x2E0 JUMPI PUSH1 0x0 DUP5 DUP5 ADD MSTORE JUMPDEST POP POP POP POP JUMP JUMPDEST PUSH1 0x0 PUSH1 0x1F NOT PUSH1 0x1F DUP4 ADD AND SWAP1 POP SWAP2 SWAP1 POP JUMP JUMPDEST PUSH1 0x0 PUSH2 0x302 DUP3 PUSH2 0x297 JUMP JUMPDEST PUSH2 0x30C DUP2 DUP6 PUSH2 0x2A2 JUMP JUMPDEST SWAP4 POP PUSH2 0x31C DUP2 DUP6 PUSH1 0x20 DUP7 ADD PUSH2 0x2B3 JUMP JUMPDEST PUSH2 0x325 DUP2 PUSH2 0x2E6 JUMP JUMPDEST DUP5 ADD SWAP2 POP POP SWAP3 SWAP2 POP POP JUMP JUMPDEST PUSH1 0x0 PUSH1 0x20 DUP3 ADD SWAP1 POP DUP2 DUP2 SUB PUSH1 0x0 DUP4 ADD MSTORE PUSH2 0x34A DUP2 DUP5 PUSH2 0x2F7 JUMP JUMPDEST SWAP1 POP SWAP3 SWAP2 POP POP JUMP JUMPDEST PUSH1 0x0 PUSH20 0xFFFFFFFFFFFFFFFFFFFFFFFFFFFFFFFFFFFFFFFF DUP3 AND SWAP1 POP SWAP2 SWAP1 POP JUMP JUMPDEST PUSH1 0x0 PUSH2 0x37D DUP3 PUSH2 0x352 JUMP JUMPDEST SWAP1 POP SWAP2 SWAP1 POP JUMP JUMPDEST PUSH2 0x38D DUP2 PUSH2 0x372 JUMP JUMPDEST DUP2 EQ PUSH2 0x398 JUMPI PUSH1 0x0 DUP1 REVERT JUMPDEST POP JUMP JUMPDEST PUSH1 0x0 DUP2 CALLDATALOAD SWAP1 POP PUSH2 0x3AA DUP2 PUSH2 0x384 JUMP JUMPDEST SWAP3 SWAP2 POP POP JUMP JUMPDEST PUSH1 0x0 PUSH1 0x20 DUP3 DUP5 SUB SLT ISZERO PUSH2 0x3C6 JUMPI PUSH2 0x3C5 PUSH2 0x21C JUMP JUMPDEST JUMPDEST PUSH1 0x0 PUSH2 0x3D4 DUP5 DUP3 DUP6 ADD PUSH2 0x39B JUMP JUMPDEST SWAP2 POP POP SWAP3 SWAP2 POP POP JUMP JUMPDEST PUSH2 0x3E6 DUP2 PUSH2 0x221 JUMP JUMPDEST DUP3 MSTORE POP POP JUMP JUMPDEST PUSH1 0x0 PUSH1 0x40 DUP3 ADD SWAP1 POP PUSH2 0x401 PUSH1 0x0 DUP4 ADD DUP6 PUSH2 0x3DD JUMP JUMPDEST PUSH2 0x40E PUSH1 0x20 DUP4 ADD DUP5 PUSH2 0x3DD JUMP JUMPDEST SWAP4 SWAP3 POP POP POP JUMP JUMPDEST PUSH1 0x0 DUP2 SWAP1 POP SWAP3 SWAP2 POP POP JUMP JUMPDEST PUSH1 0x0 PUSH2 0x42B DUP3 PUSH2 0x297 JUMP JUMPDEST PUSH2 0x435 DUP2 DUP6 PUSH2 0x415 JUMP JUMPDEST SWAP4 POP PUSH2 0x445 DUP2 DUP6 PUSH1 0x20 DUP7 ADD PUSH2 0x2B3 JUMP JUMPDEST DUP1 DUP5 ADD SWAP2 POP POP SWAP3 SWAP2 POP POP JUMP JUMPDEST PUSH1 0x0 PUSH2 0x45D DUP3 DUP6 PUSH2 0x420 JUMP JUMPDEST SWAP2 POP PUSH2 0x469 DUP3 DUP5 PUSH2 0x420 JUMP JUMPDEST SWAP2 POP DUP2 SWAP1 POP SWAP4 SWAP3 POP POP POP JUMP JUMPDEST PUSH2 0x47E DUP2 PUSH2 0x372 JUMP JUMPDEST DUP3 MSTORE POP POP JUMP JUMPDEST PUSH1 0x0 PUSH1 0x20 DUP3 ADD SWAP1 POP PUSH2 0x499 PUSH1 0x0 DUP4 ADD DUP5 PUSH2 0x475 JUMP JUMPDEST SWAP3 SWAP2 POP POP JUMP INVALID PUSH1 0x80 PUSH1 0x40 MSTORE CALLER PUSH1 0x0 DUP1 PUSH2 0x100 EXP DUP2 SLOAD DUP2 PUSH20 0xFFFFFFFFFFFFFFFFFFFFFFFFFFFFFFFFFFFFFFFF MUL NOT AND SWAP1 DUP4 PUSH20 0xFFFFFFFFFFFFFFFFFFFFFFFFFFFFFFFFFFFFFFFF AND MUL OR SWAP1 SSTORE POP CALLVALUE PUSH1 0x3 SSTORE PUSH1 0x40 MLOAD PUSH2 0x2CD CODESIZE SUB DUP1 PUSH2 0x2CD DUP4 CODECOPY DUP2 DUP2 ADD PUSH1 0x40 MSTORE DUP2 ADD SWAP1 PUSH2 0x69 SWAP2 SWAP1 PUSH2 0xB9 JUMP JUMPDEST DUP2 PUSH1 0x1 DUP2 SWAP1 SSTORE POP DUP1 PUSH1 0x2 DUP2 SWAP1 SSTORE POP POP POP PUSH2 0xF9 JUMP JUMPDEST PUSH1 0x0 DUP1 REVERT JUMPDEST PUSH1 0x0 DUP2 SWAP1 POP SWAP2 SWAP1 POP JUMP JUMPDEST PUSH2 0x96 DUP2 PUSH2 0x83 JUMP JUMPDEST DUP2 EQ PUSH2 0xA1 JUMPI PUSH1 0x0 DUP1 REVERT JUMPDEST POP JUMP JUMPDEST PUSH1 0x0 DUP2 MLOAD SWAP1 POP PUSH2 0xB3 DUP2 PUSH2 0x8D JUMP JUMPDEST SWAP3 SWAP2 POP POP JUMP JUMPDEST PUSH1 0x0 DUP1 PUSH1 0x40 DUP4 DUP6 SUB SLT ISZERO PUSH2 0xD0 JUMPI PUSH2 0xCF PUSH2 0x7E JUMP JUMPDEST JUMPDEST PUSH1 0x0 PUSH2 0xDE DUP6 DUP3 DUP7 ADD PUSH2 0xA4 JUMP JUMPDEST SWAP3 POP POP PUSH1 0x20 PUSH2 0xEF DUP6 DUP3 DUP7 ADD PUSH2 0xA4 JUMP JUMPDEST SWAP2 POP POP SWAP3 POP SWAP3 SWAP1 POP JUMP JUMPDEST PUSH2 0x1C5 DUP1 PUSH2 0x108 PUSH1 0x0 CODECOPY PUSH1 0x0 RETURN INVALID PUSH1 0x80 PUSH1 0x40 MSTORE CALLVALUE DUP1 ISZERO PUSH2 0x10 JUMPI PUSH1 0x0 DUP1 REVERT JUMPDEST POP PUSH1 0x4 CALLDATASIZE LT PUSH2 0x4C JUMPI PUSH1 0x0 CALLDATALOAD PUSH1 0xE0 SHR DUP1 PUSH4 0xC55699C EQ PUSH2 0x51 JUMPI DUP1 PUSH4 0x3FA4F245 EQ PUSH2 0x6F JUMPI DUP1 PUSH4 0x8DA5CB5B EQ PUSH2 0x8D JUMPI DUP1 PUSH4 0xA56DFE4A EQ PUSH2 0xAB JUMPI JUMPDEST PUSH1 0x0 DUP1 REVERT JUMPDEST PUSH2 0x59 PUSH2 0xC9 JUMP JUMPDEST PUSH1 0x40 MLOAD PUSH2 0x66 SWAP2 SWAP1 PUSH2 0x118 JUMP JUMPDEST PUSH1 0x40 MLOAD DUP1 SWAP2 SUB SWAP1 RETURN JUMPDEST PUSH2 0x77 PUSH2 0xCF JUMP JUMPDEST PUSH1 0x40 MLOAD PUSH2 0x84 SWAP2 SWAP1 PUSH2 0x118 JUMP JUMPDEST PUSH1 0x40 MLOAD DUP1 SWAP2 SUB SWAP1 RETURN JUMPDEST PUSH2 0x95 PUSH2 0xD5 JUMP JUMPDEST PUSH1 0x40 MLOAD PUSH2 0xA2 SWAP2 SWAP1 PUSH2 0x174 JUMP JUMPDEST PUSH1 0x40 MLOAD DUP1 SWAP2 SUB SWAP1 RETURN JUMPDEST PUSH2 0xB3 PUSH2 0xF9 JUMP JUMPDEST PUSH1 0x40 MLOAD PUSH2 0xC0 SWAP2 SWAP1 PUSH2 0x118 JUMP JUMPDEST PUSH1 0x40 MLOAD DUP1 SWAP2 SUB SWAP1 RETURN JUMPDEST PUSH1 0x1 SLOAD DUP2 JUMP JUMPDEST PUSH1 0x3 SLOAD DUP2 JUMP JUMPDEST PUSH1 0x0 DUP1 SLOAD SWAP1 PUSH2 0x100 EXP SWAP1 DIV PUSH20 0xFFFFFFFFFFFFFFFFFFFFFFFFFFFFFFFFFFFFFFFF AND DUP2 JUMP JUMPDEST PUSH1 0x2 SLOAD DUP2 JUMP JUMPDEST PUSH1 0x0 DUP2 SWAP1 POP SWAP2 SWAP1 POP JUMP JUMPDEST PUSH2 0x112 DUP2 PUSH2 0xFF JUMP JUMPDEST DUP3 MSTORE POP POP JUMP JUMPDEST PUSH1 0x0 PUSH1 0x20 DUP3 ADD SWAP1 POP PUSH2 0x12D PUSH1 0x0 DUP4 ADD DUP5 PUSH2 0x109 JUMP JUMPDEST SWAP3 SWAP2 POP POP JUMP JUMPDEST PUSH1 0x0 PUSH20 0xFFFFFFFFFFFFFFFFFFFFFFFFFFFFFFFFFFFFFFFF DUP3 AND SWAP1 POP SWAP2 SWAP1 POP JUMP JUMPDEST PUSH1 0x0 PUSH2 0x15E DUP3 PUSH2 0x133 JUMP JUMPDEST SWAP1 POP SWAP2 SWAP1 POP JUMP JUMPDEST PUSH2 0x16E DUP2 PUSH2 0x153 JUMP JUMPDEST DUP3 MSTORE POP POP JUMP JUMPDEST PUSH1 0x0 PUSH1 0x20 DUP3 ADD SWAP1 POP PUSH2 0x189 PUSH1 0x0 DUP4 ADD DUP5 PUSH2 0x165 JUMP JUMPDEST SWAP3 SWAP2 POP POP JUMP INVALID LOG2 PUSH5 0x6970667358 0x22 SLT KECCAK256 DUP13 0xB2 DUP14 DUP13 DUP11 0xA5 0xA8 0xCC SWAP9 JUMPDEST SWAP9 DIFFICULTY SWAP8 0xCC SWAP12 EXP 0xE7 0xA6 SDIV PUSH30 0xAD0E80FEC47EBB6A2745141364736F6C634300080F003360806040523360 STOP DUP1 PUSH2 0x100 EXP DUP2 SLOAD DUP2 PUSH20 0xFFFFFFFFFFFFFFFFFFFFFFFFFFFFFFFFFFFFFFFF MUL NOT AND SWAP1 DUP4 PUSH20 0xFFFFFFFFFFFFFFFFFFFFFFFFFFFFFFFFFFFFFFFF AND MUL OR SWAP1 SSTORE POP CALLVALUE DUP1 ISZERO PUSH2 0x50 JUMPI PUSH1 0x0 DUP1 REVERT JUMPDEST POP PUSH2 0x2D7 DUP1 PUSH2 0x60 PUSH1 0x0 CODECOPY PUSH1 0x0 RETURN INVALID PUSH1 0x80 PUSH1 0x40 MSTORE CALLVALUE DUP1 ISZERO PUSH2 0x10 JUMPI PUSH1 0x0 DUP1 REVERT JUMPDEST POP PUSH1 0x4 CALLDATASIZE LT PUSH2 0x36 JUMPI PUSH1 0x0 CALLDATALOAD PUSH1 0xE0 SHR DUP1 PUSH4 0x13AF4035 EQ PUSH2 0x3B JUMPI DUP1 PUSH4 0x8DA5CB5B EQ PUSH2 0x57 JUMPI JUMPDEST PUSH1 0x0 DUP1 REVERT JUMPDEST PUSH2 0x55 PUSH1 0x4 DUP1 CALLDATASIZE SUB DUP2 ADD SWAP1 PUSH2 0x50 SWAP2 SWAP1 PUSH2 0x1CD JUMP JUMPDEST PUSH2 0x75 JUMP JUMPDEST STOP JUMPDEST PUSH2 0x5F PUSH2 0x146 JUMP JUMPDEST PUSH1 0x40 MLOAD PUSH2 0x6C SWAP2 SWAP1 PUSH2 0x209 JUMP JUMPDEST PUSH1 0x40 MLOAD DUP1 SWAP2 SUB SWAP1 RETURN JUMPDEST PUSH1 0x0 DUP1 SLOAD SWAP1 PUSH2 0x100 EXP SWAP1 DIV PUSH20 0xFFFFFFFFFFFFFFFFFFFFFFFFFFFFFFFFFFFFFFFF AND PUSH20 0xFFFFFFFFFFFFFFFFFFFFFFFFFFFFFFFFFFFFFFFF AND CALLER PUSH20 0xFFFFFFFFFFFFFFFFFFFFFFFFFFFFFFFFFFFFFFFF AND EQ PUSH2 0x103 JUMPI PUSH1 0x40 MLOAD PUSH32 0x8C379A000000000000000000000000000000000000000000000000000000000 DUP2 MSTORE PUSH1 0x4 ADD PUSH2 0xFA SWAP1 PUSH2 0x281 JUMP JUMPDEST PUSH1 0x40 MLOAD DUP1 SWAP2 SUB SWAP1 REVERT JUMPDEST DUP1 PUSH1 0x0 DUP1 PUSH2 0x100 EXP DUP2 SLOAD DUP2 PUSH20 0xFFFFFFFFFFFFFFFFFFFFFFFFFFFFFFFFFFFFFFFF MUL NOT AND SWAP1 DUP4 PUSH20 0xFFFFFFFFFFFFFFFFFFFFFFFFFFFFFFFFFFFFFFFF AND MUL OR SWAP1 SSTORE POP POP JUMP JUMPDEST PUSH1 0x0 DUP1 SLOAD SWAP1 PUSH2 0x100 EXP SWAP1 DIV PUSH20 0xFFFFFFFFFFFFFFFFFFFFFFFFFFFFFFFFFFFFFFFF AND DUP2 JUMP JUMPDEST PUSH1 0x0 DUP1 REVERT JUMPDEST PUSH1 0x0 PUSH20 0xFFFFFFFFFFFFFFFFFFFFFFFFFFFFFFFFFFFFFFFF DUP3 AND SWAP1 POP SWAP2 SWAP1 POP JUMP JUMPDEST PUSH1 0x0 PUSH2 0x19A DUP3 PUSH2 0x16F JUMP JUMPDEST SWAP1 POP SWAP2 SWAP1 POP JUMP JUMPDEST PUSH2 0x1AA DUP2 PUSH2 0x18F JUMP JUMPDEST DUP2 EQ PUSH2 0x1B5 JUMPI PUSH1 0x0 DUP1 REVERT JUMPDEST POP JUMP JUMPDEST PUSH1 0x0 DUP2 CALLDATALOAD SWAP1 POP PUSH2 0x1C7 DUP2 PUSH2 0x1A1 JUMP JUMPDEST SWAP3 SWAP2 POP POP JUMP JUMPDEST PUSH1 0x0 PUSH1 0x20 DUP3 DUP5 SUB SLT ISZERO PUSH2 0x1E3 JUMPI PUSH2 0x1E2 PUSH2 0x16A JUMP JUMPDEST JUMPDEST PUSH1 0x0 PUSH2 0x1F1 DUP5 DUP3 DUP6 ADD PUSH2 0x1B8 JUMP JUMPDEST SWAP2 POP POP SWAP3 SWAP2 POP POP JUMP JUMPDEST PUSH2 0x203 DUP2 PUSH2 0x18F JUMP JUMPDEST DUP3 MSTORE POP POP JUMP JUMPDEST PUSH1 0x0 PUSH1 0x20 DUP3 ADD SWAP1 POP PUSH2 0x21E PUSH1 0x0 DUP4 ADD DUP5 PUSH2 0x1FA JUMP JUMPDEST SWAP3 SWAP2 POP POP JUMP JUMPDEST PUSH1 0x0 DUP3 DUP3 MSTORE PUSH1 0x20 DUP3 ADD SWAP1 POP SWAP3 SWAP2 POP POP JUMP JUMPDEST PUSH32 0x63616E74206E6F74207573652074686973000000000000000000000000000000 PUSH1 0x0 DUP3 ADD MSTORE POP JUMP JUMPDEST PUSH1 0x0 PUSH2 0x26B PUSH1 0x11 DUP4 PUSH2 0x224 JUMP JUMPDEST SWAP2 POP PUSH2 0x276 DUP3 PUSH2 0x235 JUMP JUMPDEST PUSH1 0x20 DUP3 ADD SWAP1 POP SWAP2 SWAP1 POP JUMP JUMPDEST PUSH1 0x0 PUSH1 0x20 DUP3 ADD SWAP1 POP DUP2 DUP2 SUB PUSH1 0x0 DUP4 ADD MSTORE PUSH2 0x29A DUP2 PUSH2 0x25E JUMP JUMPDEST SWAP1 POP SWAP2 SWAP1 POP JUMP INVALID LOG2 PUSH5 0x6970667358 0x22 SLT KECCAK256 DUP8 0xAC MSIZE PUSH3 0xA074D7 PUSH9 0xB80D0081C8F5B5FABB REVERT 0xC8 STATICCALL KECCAK256 STOP LT DUP13 0xE9 BYTE DUP12 0x29 MUL DUP1 0x2E CALLVALUE PUSH5 0x736F6C6343 STOP ADDMOD 0xF STOP CALLER LOG2 PUSH5 0x6970667358 0x22 SLT KECCAK256 SELFBALANCE 0xB4 BALANCE DUP10 DUP5 SWAP12 CALLCODE 0xCF SWAP11 LOG4 SELFDESTRUCT POP SAR TIMESTAMP 0xCC RETURN 0xD7 DUP9 LOG3 0xB3 0xBC SWAP6 0x4C 0xE7 0xEC SIGNEXTEND PUSH24 0x78E376E25864736F6C634300080F00330000000000000000 "
				},
				"gasEstimates": {
					"creation": {
						"codeDepositCost": "555400",
						"executionCost": "587",
						"totalCost": "555987"
					},
					"external": {
						"getByteCode1()": "infinite",
						"getByteCode2(uint256,uint256)": "infinite",
						"getCalldate(address)": "infinite"
					}
				},
				"methodIdentifiers": {
					"getByteCode1()": "f05f9668",
					"getByteCode2(uint256,uint256)": "5354f855",
					"getCalldate(address)": "bed7ddf3"
				}
			},
			"storageLayout": {
				"storage": [],
				"types": null
			},
			"userdoc": {
				"kind": "user",
				"methods": {},
				"version": 1
			}
		}
	}
}