{
	"study/chapter11/selfDestruct.sol": {
		"Kill": {
			"abi": [
				{
					"inputs": [],
					"stateMutability": "payable",
					"type": "constructor"
				},
				{
					"inputs": [],
					"name": "disable",
					"outputs": [
						{
							"internalType": "bool",
							"name": "",
							"type": "bool"
						}
					],
					"stateMutability": "view",
					"type": "function"
				},
				{
					"inputs": [],
					"name": "kill",
					"outputs": [],
					"stateMutability": "nonpayable",
					"type": "function"
				},
				{
					"inputs": [],
					"name": "test",
					"outputs": [
						{
							"internalType": "uint256",
							"name": "",
							"type": "uint256"
						}
					],
					"stateMutability": "view",
					"type": "function"
				}
			],
			"devdoc": {
				"kind": "dev",
				"methods": {},
				"version": 1
			},
			"evm": {
				"assembly": "    /* \"study/chapter11/selfDestruct.sol\":56:548  contract Kill{... */\n  mstore(0x40, 0x80)\n    /* \"study/chapter11/selfDestruct.sol\":97:101  true */\n  0x01\n    /* \"study/chapter11/selfDestruct.sol\":75:101  bool public disable = true */\n  0x00\n  dup1\n  0x0100\n  exp\n  dup2\n  sload\n  dup2\n  0xff\n  mul\n  not\n  and\n  swap1\n  dup4\n  iszero\n  iszero\n  mul\n  or\n  swap1\n  sstore\n  pop\n    /* \"study/chapter11/selfDestruct.sol\":56:548  contract Kill{... */\n  dataSize(sub_0)\n  dup1\n  dataOffset(sub_0)\n  0x00\n  codecopy\n  0x00\n  return\nstop\n\nsub_0: assembly {\n        /* \"study/chapter11/selfDestruct.sol\":56:548  contract Kill{... */\n      mstore(0x40, 0x80)\n      callvalue\n      dup1\n      iszero\n      tag_1\n      jumpi\n      0x00\n      dup1\n      revert\n    tag_1:\n      pop\n      jumpi(tag_2, lt(calldatasize, 0x04))\n      shr(0xe0, calldataload(0x00))\n      dup1\n      0x2f2770db\n      eq\n      tag_3\n      jumpi\n      dup1\n      0x41c0e1b5\n      eq\n      tag_4\n      jumpi\n      dup1\n      0xf8a8fd6d\n      eq\n      tag_5\n      jumpi\n    tag_2:\n      0x00\n      dup1\n      revert\n        /* \"study/chapter11/selfDestruct.sol\":75:101  bool public disable = true */\n    tag_3:\n      tag_6\n      tag_7\n      jump\t// in\n    tag_6:\n      mload(0x40)\n      tag_8\n      swap2\n      swap1\n      tag_9\n      jump\t// in\n    tag_8:\n      mload(0x40)\n      dup1\n      swap2\n      sub\n      swap1\n      return\n        /* \"study/chapter11/selfDestruct.sol\":257:463  function kill()external Disable{... */\n    tag_4:\n      tag_10\n      tag_11\n      jump\t// in\n    tag_10:\n      stop\n        /* \"study/chapter11/selfDestruct.sol\":469:546  function test()external view Disable returns(uint){... */\n    tag_5:\n      tag_12\n      tag_13\n      jump\t// in\n    tag_12:\n      mload(0x40)\n      tag_14\n      swap2\n      swap1\n      tag_15\n      jump\t// in\n    tag_14:\n      mload(0x40)\n      dup1\n      swap2\n      sub\n      swap1\n      return\n        /* \"study/chapter11/selfDestruct.sol\":75:101  bool public disable = true */\n    tag_7:\n      0x00\n      dup1\n      sload\n      swap1\n      0x0100\n      exp\n      swap1\n      div\n      0xff\n      and\n      dup2\n      jump\t// out\n        /* \"study/chapter11/selfDestruct.sol\":257:463  function kill()external Disable{... */\n    tag_11:\n        /* \"study/chapter11/selfDestruct.sol\":181:185  true */\n      0x01\n        /* \"study/chapter11/selfDestruct.sol\":170:185  disable == true */\n      iszero\n      iszero\n        /* \"study/chapter11/selfDestruct.sol\":170:177  disable */\n      0x00\n      dup1\n      sload\n      swap1\n      0x0100\n      exp\n      swap1\n      div\n      0xff\n      and\n        /* \"study/chapter11/selfDestruct.sol\":170:185  disable == true */\n      iszero\n      iszero\n      sub\n        /* \"study/chapter11/selfDestruct.sol\":167:234  if(disable == true){... */\n      tag_17\n      jumpi\n        /* \"study/chapter11/selfDestruct.sol\":199:224  revert(\"Already annuled\") */\n      mload(0x40)\n      0x08c379a000000000000000000000000000000000000000000000000000000000\n      dup2\n      mstore\n      0x04\n      add\n      tag_18\n      swap1\n      tag_19\n      jump\t// in\n    tag_18:\n      mload(0x40)\n      dup1\n      swap2\n      sub\n      swap1\n      revert\n        /* \"study/chapter11/selfDestruct.sol\":167:234  if(disable == true){... */\n    tag_17:\n        /* \"study/chapter11/selfDestruct.sol\":308:312  true */\n      0x01\n        /* \"study/chapter11/selfDestruct.sol\":298:305  disable */\n      0x00\n      dup1\n        /* \"study/chapter11/selfDestruct.sol\":298:312  disable = true */\n      0x0100\n      exp\n      dup2\n      sload\n      dup2\n      0xff\n      mul\n      not\n      and\n      swap1\n      dup4\n      iszero\n      iszero\n      mul\n      or\n      swap1\n      sstore\n      pop\n        /* \"study/chapter11/selfDestruct.sol\":444:454  msg.sender */\n      caller\n        /* \"study/chapter11/selfDestruct.sol\":423:456  selfdestruct(payable(msg.sender)) */\n      0xffffffffffffffffffffffffffffffffffffffff\n      and\n      selfdestruct\n        /* \"study/chapter11/selfDestruct.sol\":469:546  function test()external view Disable returns(uint){... */\n    tag_13:\n        /* \"study/chapter11/selfDestruct.sol\":514:518  uint */\n      0x00\n        /* \"study/chapter11/selfDestruct.sol\":181:185  true */\n      0x01\n        /* \"study/chapter11/selfDestruct.sol\":170:185  disable == true */\n      iszero\n      iszero\n        /* \"study/chapter11/selfDestruct.sol\":170:177  disable */\n      0x00\n      dup1\n      sload\n      swap1\n      0x0100\n      exp\n      swap1\n      div\n      0xff\n      and\n        /* \"study/chapter11/selfDestruct.sol\":170:185  disable == true */\n      iszero\n      iszero\n      sub\n        /* \"study/chapter11/selfDestruct.sol\":167:234  if(disable == true){... */\n      tag_22\n      jumpi\n        /* \"study/chapter11/selfDestruct.sol\":199:224  revert(\"Already annuled\") */\n      mload(0x40)\n      0x08c379a000000000000000000000000000000000000000000000000000000000\n      dup2\n      mstore\n      0x04\n      add\n      tag_23\n      swap1\n      tag_19\n      jump\t// in\n    tag_23:\n      mload(0x40)\n      dup1\n      swap2\n      sub\n      swap1\n      revert\n        /* \"study/chapter11/selfDestruct.sol\":167:234  if(disable == true){... */\n    tag_22:\n        /* \"study/chapter11/selfDestruct.sol\":536:539  123 */\n      0x7b\n        /* \"study/chapter11/selfDestruct.sol\":529:539  return 123 */\n      swap1\n      pop\n        /* \"study/chapter11/selfDestruct.sol\":469:546  function test()external view Disable returns(uint){... */\n      swap1\n      jump\t// out\n        /* \"#utility.yul\":7:97   */\n    tag_25:\n        /* \"#utility.yul\":41:48   */\n      0x00\n        /* \"#utility.yul\":84:89   */\n      dup2\n        /* \"#utility.yul\":77:90   */\n      iszero\n        /* \"#utility.yul\":70:91   */\n      iszero\n        /* \"#utility.yul\":59:91   */\n      swap1\n      pop\n        /* \"#utility.yul\":7:97   */\n      swap2\n      swap1\n      pop\n      jump\t// out\n        /* \"#utility.yul\":103:212   */\n    tag_26:\n        /* \"#utility.yul\":184:205   */\n      tag_35\n        /* \"#utility.yul\":199:204   */\n      dup2\n        /* \"#utility.yul\":184:205   */\n      tag_25\n      jump\t// in\n    tag_35:\n        /* \"#utility.yul\":179:182   */\n      dup3\n        /* \"#utility.yul\":172:206   */\n      mstore\n        /* \"#utility.yul\":103:212   */\n      pop\n      pop\n      jump\t// out\n        /* \"#utility.yul\":218:428   */\n    tag_9:\n        /* \"#utility.yul\":305:309   */\n      0x00\n        /* \"#utility.yul\":343:345   */\n      0x20\n        /* \"#utility.yul\":332:341   */\n      dup3\n        /* \"#utility.yul\":328:346   */\n      add\n        /* \"#utility.yul\":320:346   */\n      swap1\n      pop\n        /* \"#utility.yul\":356:421   */\n      tag_37\n        /* \"#utility.yul\":418:419   */\n      0x00\n        /* \"#utility.yul\":407:416   */\n      dup4\n        /* \"#utility.yul\":403:420   */\n      add\n        /* \"#utility.yul\":394:400   */\n      dup5\n        /* \"#utility.yul\":356:421   */\n      tag_26\n      jump\t// in\n    tag_37:\n        /* \"#utility.yul\":218:428   */\n      swap3\n      swap2\n      pop\n      pop\n      jump\t// out\n        /* \"#utility.yul\":434:511   */\n    tag_27:\n        /* \"#utility.yul\":471:478   */\n      0x00\n        /* \"#utility.yul\":500:505   */\n      dup2\n        /* \"#utility.yul\":489:505   */\n      swap1\n      pop\n        /* \"#utility.yul\":434:511   */\n      swap2\n      swap1\n      pop\n      jump\t// out\n        /* \"#utility.yul\":517:635   */\n    tag_28:\n        /* \"#utility.yul\":604:628   */\n      tag_40\n        /* \"#utility.yul\":622:627   */\n      dup2\n        /* \"#utility.yul\":604:628   */\n      tag_27\n      jump\t// in\n    tag_40:\n        /* \"#utility.yul\":599:602   */\n      dup3\n        /* \"#utility.yul\":592:629   */\n      mstore\n        /* \"#utility.yul\":517:635   */\n      pop\n      pop\n      jump\t// out\n        /* \"#utility.yul\":641:863   */\n    tag_15:\n        /* \"#utility.yul\":734:738   */\n      0x00\n        /* \"#utility.yul\":772:774   */\n      0x20\n        /* \"#utility.yul\":761:770   */\n      dup3\n        /* \"#utility.yul\":757:775   */\n      add\n        /* \"#utility.yul\":749:775   */\n      swap1\n      pop\n        /* \"#utility.yul\":785:856   */\n      tag_42\n        /* \"#utility.yul\":853:854   */\n      0x00\n        /* \"#utility.yul\":842:851   */\n      dup4\n        /* \"#utility.yul\":838:855   */\n      add\n        /* \"#utility.yul\":829:835   */\n      dup5\n        /* \"#utility.yul\":785:856   */\n      tag_28\n      jump\t// in\n    tag_42:\n        /* \"#utility.yul\":641:863   */\n      swap3\n      swap2\n      pop\n      pop\n      jump\t// out\n        /* \"#utility.yul\":869:1038   */\n    tag_29:\n        /* \"#utility.yul\":953:964   */\n      0x00\n        /* \"#utility.yul\":987:993   */\n      dup3\n        /* \"#utility.yul\":982:985   */\n      dup3\n        /* \"#utility.yul\":975:994   */\n      mstore\n        /* \"#utility.yul\":1027:1031   */\n      0x20\n        /* \"#utility.yul\":1022:1025   */\n      dup3\n        /* \"#utility.yul\":1018:1032   */\n      add\n        /* \"#utility.yul\":1003:1032   */\n      swap1\n      pop\n        /* \"#utility.yul\":869:1038   */\n      swap3\n      swap2\n      pop\n      pop\n      jump\t// out\n        /* \"#utility.yul\":1044:1209   */\n    tag_30:\n        /* \"#utility.yul\":1184:1201   */\n      0x416c726561647920616e6e756c65640000000000000000000000000000000000\n        /* \"#utility.yul\":1180:1181   */\n      0x00\n        /* \"#utility.yul\":1172:1178   */\n      dup3\n        /* \"#utility.yul\":1168:1182   */\n      add\n        /* \"#utility.yul\":1161:1202   */\n      mstore\n        /* \"#utility.yul\":1044:1209   */\n      pop\n      jump\t// out\n        /* \"#utility.yul\":1215:1581   */\n    tag_31:\n        /* \"#utility.yul\":1357:1360   */\n      0x00\n        /* \"#utility.yul\":1378:1445   */\n      tag_46\n        /* \"#utility.yul\":1442:1444   */\n      0x0f\n        /* \"#utility.yul\":1437:1440   */\n      dup4\n        /* \"#utility.yul\":1378:1445   */\n      tag_29\n      jump\t// in\n    tag_46:\n        /* \"#utility.yul\":1371:1445   */\n      swap2\n      pop\n        /* \"#utility.yul\":1454:1547   */\n      tag_47\n        /* \"#utility.yul\":1543:1546   */\n      dup3\n        /* \"#utility.yul\":1454:1547   */\n      tag_30\n      jump\t// in\n    tag_47:\n        /* \"#utility.yul\":1572:1574   */\n      0x20\n        /* \"#utility.yul\":1567:1570   */\n      dup3\n        /* \"#utility.yul\":1563:1575   */\n      add\n        /* \"#utility.yul\":1556:1575   */\n      swap1\n      pop\n        /* \"#utility.yul\":1215:1581   */\n      swap2\n      swap1\n      pop\n      jump\t// out\n        /* \"#utility.yul\":1587:2006   */\n    tag_19:\n        /* \"#utility.yul\":1753:1757   */\n      0x00\n        /* \"#utility.yul\":1791:1793   */\n      0x20\n        /* \"#utility.yul\":1780:1789   */\n      dup3\n        /* \"#utility.yul\":1776:1794   */\n      add\n        /* \"#utility.yul\":1768:1794   */\n      swap1\n      pop\n        /* \"#utility.yul\":1840:1849   */\n      dup2\n        /* \"#utility.yul\":1834:1838   */\n      dup2\n        /* \"#utility.yul\":1830:1850   */\n      sub\n        /* \"#utility.yul\":1826:1827   */\n      0x00\n        /* \"#utility.yul\":1815:1824   */\n      dup4\n        /* \"#utility.yul\":1811:1828   */\n      add\n        /* \"#utility.yul\":1804:1851   */\n      mstore\n        /* \"#utility.yul\":1868:1999   */\n      tag_49\n        /* \"#utility.yul\":1994:1998   */\n      dup2\n        /* \"#utility.yul\":1868:1999   */\n      tag_31\n      jump\t// in\n    tag_49:\n        /* \"#utility.yul\":1860:1999   */\n      swap1\n      pop\n        /* \"#utility.yul\":1587:2006   */\n      swap2\n      swap1\n      pop\n      jump\t// out\n\n    auxdata: 0xa2646970667358221220145aef4495ad995be96266295b6fb202da224a982f36ee6b7a4d54a1539a78e664736f6c634300080f0033\n}\n",
				"bytecode": {
					"linkReferences": {},
					"object": "608060405260016000806101000a81548160ff02191690831515021790555061029e8061002d6000396000f3fe608060405234801561001057600080fd5b50600436106100415760003560e01c80632f2770db1461004657806341c0e1b514610064578063f8a8fd6d1461006e575b600080fd5b61004e61008c565b60405161005b919061019c565b60405180910390f35b61006c61009d565b005b610076610124565b60405161008391906101d0565b60405180910390f35b60008054906101000a900460ff1681565b6001151560008054906101000a900460ff161515036100f1576040517f08c379a00000000000000000000000000000000000000000000000000000000081526004016100e890610248565b60405180910390fd5b60016000806101000a81548160ff0219169083151502179055503373ffffffffffffffffffffffffffffffffffffffff16ff5b60006001151560008054906101000a900460ff1615150361017a576040517f08c379a000000000000000000000000000000000000000000000000000000000815260040161017190610248565b60405180910390fd5b607b905090565b60008115159050919050565b61019681610181565b82525050565b60006020820190506101b1600083018461018d565b92915050565b6000819050919050565b6101ca816101b7565b82525050565b60006020820190506101e560008301846101c1565b92915050565b600082825260208201905092915050565b7f416c726561647920616e6e756c65640000000000000000000000000000000000600082015250565b6000610232600f836101eb565b915061023d826101fc565b602082019050919050565b6000602082019050818103600083015261026181610225565b905091905056fea2646970667358221220145aef4495ad995be96266295b6fb202da224a982f36ee6b7a4d54a1539a78e664736f6c634300080f0033",
					"opcodes": "PUSH1 0x80 PUSH1 0x40 MSTORE PUSH1 0x1 PUSH1 0x0 DUP1 PUSH2 0x100 EXP DUP2 SLOAD DUP2 PUSH1 0xFF MUL NOT AND SWAP1 DUP4 ISZERO ISZERO MUL OR SWAP1 SSTORE POP PUSH2 0x29E DUP1 PUSH2 0x2D PUSH1 0x0 CODECOPY PUSH1 0x0 RETURN INVALID PUSH1 0x80 PUSH1 0x40 MSTORE CALLVALUE DUP1 ISZERO PUSH2 0x10 JUMPI PUSH1 0x0 DUP1 REVERT JUMPDEST POP PUSH1 0x4 CALLDATASIZE LT PUSH2 0x41 JUMPI PUSH1 0x0 CALLDATALOAD PUSH1 0xE0 SHR DUP1 PUSH4 0x2F2770DB EQ PUSH2 0x46 JUMPI DUP1 PUSH4 0x41C0E1B5 EQ PUSH2 0x64 JUMPI DUP1 PUSH4 0xF8A8FD6D EQ PUSH2 0x6E JUMPI JUMPDEST PUSH1 0x0 DUP1 REVERT JUMPDEST PUSH2 0x4E PUSH2 0x8C JUMP JUMPDEST PUSH1 0x40 MLOAD PUSH2 0x5B SWAP2 SWAP1 PUSH2 0x19C JUMP JUMPDEST PUSH1 0x40 MLOAD DUP1 SWAP2 SUB SWAP1 RETURN JUMPDEST PUSH2 0x6C PUSH2 0x9D JUMP JUMPDEST STOP JUMPDEST PUSH2 0x76 PUSH2 0x124 JUMP JUMPDEST PUSH1 0x40 MLOAD PUSH2 0x83 SWAP2 SWAP1 PUSH2 0x1D0 JUMP JUMPDEST PUSH1 0x40 MLOAD DUP1 SWAP2 SUB SWAP1 RETURN JUMPDEST PUSH1 0x0 DUP1 SLOAD SWAP1 PUSH2 0x100 EXP SWAP1 DIV PUSH1 0xFF AND DUP2 JUMP JUMPDEST PUSH1 0x1 ISZERO ISZERO PUSH1 0x0 DUP1 SLOAD SWAP1 PUSH2 0x100 EXP SWAP1 DIV PUSH1 0xFF AND ISZERO ISZERO SUB PUSH2 0xF1 JUMPI PUSH1 0x40 MLOAD PUSH32 0x8C379A000000000000000000000000000000000000000000000000000000000 DUP2 MSTORE PUSH1 0x4 ADD PUSH2 0xE8 SWAP1 PUSH2 0x248 JUMP JUMPDEST PUSH1 0x40 MLOAD DUP1 SWAP2 SUB SWAP1 REVERT JUMPDEST PUSH1 0x1 PUSH1 0x0 DUP1 PUSH2 0x100 EXP DUP2 SLOAD DUP2 PUSH1 0xFF MUL NOT AND SWAP1 DUP4 ISZERO ISZERO MUL OR SWAP1 SSTORE POP CALLER PUSH20 0xFFFFFFFFFFFFFFFFFFFFFFFFFFFFFFFFFFFFFFFF AND SELFDESTRUCT JUMPDEST PUSH1 0x0 PUSH1 0x1 ISZERO ISZERO PUSH1 0x0 DUP1 SLOAD SWAP1 PUSH2 0x100 EXP SWAP1 DIV PUSH1 0xFF AND ISZERO ISZERO SUB PUSH2 0x17A JUMPI PUSH1 0x40 MLOAD PUSH32 0x8C379A000000000000000000000000000000000000000000000000000000000 DUP2 MSTORE PUSH1 0x4 ADD PUSH2 0x171 SWAP1 PUSH2 0x248 JUMP JUMPDEST PUSH1 0x40 MLOAD DUP1 SWAP2 SUB SWAP1 REVERT JUMPDEST PUSH1 0x7B SWAP1 POP SWAP1 JUMP JUMPDEST PUSH1 0x0 DUP2 ISZERO ISZERO SWAP1 POP SWAP2 SWAP1 POP JUMP JUMPDEST PUSH2 0x196 DUP2 PUSH2 0x181 JUMP JUMPDEST DUP3 MSTORE POP POP JUMP JUMPDEST PUSH1 0x0 PUSH1 0x20 DUP3 ADD SWAP1 POP PUSH2 0x1B1 PUSH1 0x0 DUP4 ADD DUP5 PUSH2 0x18D JUMP JUMPDEST SWAP3 SWAP2 POP POP JUMP JUMPDEST PUSH1 0x0 DUP2 SWAP1 POP SWAP2 SWAP1 POP JUMP JUMPDEST PUSH2 0x1CA DUP2 PUSH2 0x1B7 JUMP JUMPDEST DUP3 MSTORE POP POP JUMP JUMPDEST PUSH1 0x0 PUSH1 0x20 DUP3 ADD SWAP1 POP PUSH2 0x1E5 PUSH1 0x0 DUP4 ADD DUP5 PUSH2 0x1C1 JUMP JUMPDEST SWAP3 SWAP2 POP POP JUMP JUMPDEST PUSH1 0x0 DUP3 DUP3 MSTORE PUSH1 0x20 DUP3 ADD SWAP1 POP SWAP3 SWAP2 POP POP JUMP JUMPDEST PUSH32 0x416C726561647920616E6E756C65640000000000000000000000000000000000 PUSH1 0x0 DUP3 ADD MSTORE POP JUMP JUMPDEST PUSH1 0x0 PUSH2 0x232 PUSH1 0xF DUP4 PUSH2 0x1EB JUMP JUMPDEST SWAP2 POP PUSH2 0x23D DUP3 PUSH2 0x1FC JUMP JUMPDEST PUSH1 0x20 DUP3 ADD SWAP1 POP SWAP2 SWAP1 POP JUMP JUMPDEST PUSH1 0x0 PUSH1 0x20 DUP3 ADD SWAP1 POP DUP2 DUP2 SUB PUSH1 0x0 DUP4 ADD MSTORE PUSH2 0x261 DUP2 PUSH2 0x225 JUMP JUMPDEST SWAP1 POP SWAP2 SWAP1 POP JUMP INVALID LOG2 PUSH5 0x6970667358 0x22 SLT KECCAK256 EQ GAS 0xEF DIFFICULTY SWAP6 0xAD SWAP10 JUMPDEST 0xE9 PUSH3 0x66295B PUSH16 0xB202DA224A982F36EE6B7A4D54A1539A PUSH25 0xE664736F6C634300080F003300000000000000000000000000 "
				},
				"gasEstimates": {
					"creation": {
						"codeDepositCost": "134000",
						"executionCost": "24420",
						"totalCost": "158420"
					},
					"external": {
						"disable()": "2446",
						"kill()": "54178",
						"test()": "2626"
					}
				},
				"methodIdentifiers": {
					"disable()": "2f2770db",
					"kill()": "41c0e1b5",
					"test()": "f8a8fd6d"
				}
			},
			"storageLayout": {
				"storage": [
					{
						"astId": 4,
						"contract": "study/chapter11/selfDestruct.sol:Kill",
						"label": "disable",
						"offset": 0,
						"slot": "0",
						"type": "t_bool"
					}
				],
				"types": {
					"t_bool": {
						"encoding": "inplace",
						"label": "bool",
						"numberOfBytes": "1"
					}
				}
			},
			"userdoc": {
				"kind": "user",
				"methods": {},
				"version": 1
			}
		}
	}
}