{
	"data": {
		"bytecode": {
			"linkReferences": {},
			"object": "6080604052735b38da6a701c568545dcfcb03fcb875f56beddc46040516020016200002b919062000207565b6040516020818303038152906040526001908051906020019062000051929190620000cc565b503480156200005f57600080fd5b5060405162000b1a38038062000b1a833981810160405281019062000085919062000193565b806000806101000a81548173ffffffffffffffffffffffffffffffffffffffff021916908373ffffffffffffffffffffffffffffffffffffffff1602179055505062000352565b828054620000da9062000270565b90600052602060002090601f016020900481019282620000fe57600085556200014a565b82601f106200011957805160ff19168380011785556200014a565b828001600101855582156200014a579182015b82811115620001495782518255916020019190600101906200012c565b5b5090506200015991906200015d565b5090565b5b80821115620001785760008160009055506001016200015e565b5090565b6000815190506200018d8162000338565b92915050565b600060208284031215620001ac57620001ab620002fd565b5b6000620001bc848285016200017c565b91505092915050565b620001da620001d4826200023c565b620002a6565b82525050565b6000620001ef60118362000231565b9150620001fc826200030f565b601182019050919050565b60006200021482620001e0565b9150620002228284620001c5565b60148201915081905092915050565b600081905092915050565b6000620002498262000250565b9050919050565b600073ffffffffffffffffffffffffffffffffffffffff82169050919050565b600060028204905060018216806200028957607f821691505b60208210811415620002a0576200029f620002ce565b5b50919050565b6000620002b382620002ba565b9050919050565b6000620002c78262000302565b9050919050565b7f4e487b7100000000000000000000000000000000000000000000000000000000600052602260045260246000fd5b600080fd5b60008160601b9050919050565b7f7365744f776e6572286164647265737329000000000000000000000000000000600082015250565b62000343816200023c565b81146200034f57600080fd5b50565b6107b880620003626000396000f3fe608060405234801561001057600080fd5b50600436106100365760003560e01c80634df7e3d01461003b578063d948d46814610059575b600080fd5b610043610075565b6040516100509190610498565b60405180910390f35b610073600480360381019061006e919061038e565b610103565b005b6001805461008290610677565b80601f01602080910402602001604051908101604052809291908181526020018280546100ae90610677565b80156100fb5780601f106100d0576101008083540402835291602001916100fb565b820191906000526020600020905b8154815290600101906020018083116100de57829003601f168201915b505050505081565b600082826000906004926101199392919061053d565b9061012491906105d6565b90507f13af4035b0e4e7ec6b922d2e250cb1ea3b75b47dd2a6483cb76d88e6fd98ec3b7bffffffffffffffffffffffffffffffffffffffffffffffffffffffff1916817bffffffffffffffffffffffffffffffffffffffffffffffffffffffff19161415610222576000838360049080926101a19392919061053d565b8101906101ae9190610361565b9050600073ffffffffffffffffffffffffffffffffffffffff168173ffffffffffffffffffffffffffffffffffffffff161415610220576040517f08c379a0000000000000000000000000000000000000000000000000000000008152600401610217906104ba565b60405180910390fd5b505b60008060009054906101000a900473ffffffffffffffffffffffffffffffffffffffff1673ffffffffffffffffffffffffffffffffffffffff16848460405161026c92919061047f565b600060405180830381855af49150503d80600081146102a7576040519150601f19603f3d011682016040523d82523d6000602084013e6102ac565b606091505b50509050806102f0576040517f08c379a00000000000000000000000000000000000000000000000000000000081526004016102e7906104da565b60405180910390fd5b50505050565b6000813590506103058161076b565b92915050565b60008083601f840112610321576103206106dd565b5b8235905067ffffffffffffffff81111561033e5761033d6106d8565b5b60208301915083600182028301111561035a576103596106ec565b5b9250929050565b600060208284031215610377576103766106f6565b5b6000610385848285016102f6565b91505092915050565b600080602083850312156103a5576103a46106f6565b5b600083013567ffffffffffffffff8111156103c3576103c26106f1565b5b6103cf8582860161030b565b92509250509250929050565b60006103e78385610521565b93506103f4838584610635565b82840190509392505050565b600061040b82610505565b6104158185610510565b9350610425818560208601610644565b61042e816106fb565b840191505092915050565b600061044660208361052c565b915061045182610719565b602082019050919050565b600061046960168361052c565b915061047482610742565b602082019050919050565b600061048c8284866103db565b91508190509392505050565b600060208201905081810360008301526104b28184610400565b905092915050565b600060208201905081810360008301526104d381610439565b9050919050565b600060208201905081810360008301526104f38161045c565b9050919050565b600082905092915050565b600081519050919050565b600082825260208201905092915050565b600081905092915050565b600082825260208201905092915050565b60008085851115610551576105506106e7565b5b83861115610562576105616106e2565b5b6001850283019150848603905094509492505050565b6000610583826105b6565b9050919050565b60007fffffffff0000000000000000000000000000000000000000000000000000000082169050919050565b600073ffffffffffffffffffffffffffffffffffffffff82169050919050565b60006105e283836104fa565b826105ed813561058a565b9250600482101561062d576106287fffffffff000000000000000000000000000000000000000000000000000000008360040360080261070c565b831692505b505092915050565b82818337600083830152505050565b60005b83811015610662578082015181840152602081019050610647565b83811115610671576000848401525b50505050565b6000600282049050600182168061068f57607f821691505b602082108114156106a3576106a26106a9565b5b50919050565b7f4e487b7100000000000000000000000000000000000000000000000000000000600052602260045260246000fd5b600080fd5b600080fd5b600080fd5b600080fd5b600080fd5b600080fd5b600080fd5b6000601f19601f8301169050919050565b600082821b905092915050565b7f41646472657373206f66206f776e65722063616e6e6f74206265207a65726f2e600082015250565b7f466f727761726465642063616c6c206661696c65642e00000000000000000000600082015250565b61077481610578565b811461077f57600080fd5b5056fea2646970667358221220f3d8cf28ba7ab8845a602da6b13a8055afa6e64d7246250315088512e6d43d9d64736f6c63430008060033",
			"opcodes": "PUSH1 0x80 PUSH1 0x40 MSTORE PUSH20 0x5B38DA6A701C568545DCFCB03FCB875F56BEDDC4 PUSH1 0x40 MLOAD PUSH1 0x20 ADD PUSH3 0x2B SWAP2 SWAP1 PUSH3 0x207 JUMP JUMPDEST PUSH1 0x40 MLOAD PUSH1 0x20 DUP2 DUP4 SUB SUB DUP2 MSTORE SWAP1 PUSH1 0x40 MSTORE PUSH1 0x1 SWAP1 DUP1 MLOAD SWAP1 PUSH1 0x20 ADD SWAP1 PUSH3 0x51 SWAP3 SWAP2 SWAP1 PUSH3 0xCC JUMP JUMPDEST POP CALLVALUE DUP1 ISZERO PUSH3 0x5F JUMPI PUSH1 0x0 DUP1 REVERT JUMPDEST POP PUSH1 0x40 MLOAD PUSH3 0xB1A CODESIZE SUB DUP1 PUSH3 0xB1A DUP4 CODECOPY DUP2 DUP2 ADD PUSH1 0x40 MSTORE DUP2 ADD SWAP1 PUSH3 0x85 SWAP2 SWAP1 PUSH3 0x193 JUMP JUMPDEST DUP1 PUSH1 0x0 DUP1 PUSH2 0x100 EXP DUP2 SLOAD DUP2 PUSH20 0xFFFFFFFFFFFFFFFFFFFFFFFFFFFFFFFFFFFFFFFF MUL NOT AND SWAP1 DUP4 PUSH20 0xFFFFFFFFFFFFFFFFFFFFFFFFFFFFFFFFFFFFFFFF AND MUL OR SWAP1 SSTORE POP POP PUSH3 0x352 JUMP JUMPDEST DUP3 DUP1 SLOAD PUSH3 0xDA SWAP1 PUSH3 0x270 JUMP JUMPDEST SWAP1 PUSH1 0x0 MSTORE PUSH1 0x20 PUSH1 0x0 KECCAK256 SWAP1 PUSH1 0x1F ADD PUSH1 0x20 SWAP1 DIV DUP2 ADD SWAP3 DUP3 PUSH3 0xFE JUMPI PUSH1 0x0 DUP6 SSTORE PUSH3 0x14A JUMP JUMPDEST DUP3 PUSH1 0x1F LT PUSH3 0x119 JUMPI DUP1 MLOAD PUSH1 0xFF NOT AND DUP4 DUP1 ADD OR DUP6 SSTORE PUSH3 0x14A JUMP JUMPDEST DUP3 DUP1 ADD PUSH1 0x1 ADD DUP6 SSTORE DUP3 ISZERO PUSH3 0x14A JUMPI SWAP2 DUP3 ADD JUMPDEST DUP3 DUP2 GT ISZERO PUSH3 0x149 JUMPI DUP3 MLOAD DUP3 SSTORE SWAP2 PUSH1 0x20 ADD SWAP2 SWAP1 PUSH1 0x1 ADD SWAP1 PUSH3 0x12C JUMP JUMPDEST JUMPDEST POP SWAP1 POP PUSH3 0x159 SWAP2 SWAP1 PUSH3 0x15D JUMP JUMPDEST POP SWAP1 JUMP JUMPDEST JUMPDEST DUP1 DUP3 GT ISZERO PUSH3 0x178 JUMPI PUSH1 0x0 DUP2 PUSH1 0x0 SWAP1 SSTORE POP PUSH1 0x1 ADD PUSH3 0x15E JUMP JUMPDEST POP SWAP1 JUMP JUMPDEST PUSH1 0x0 DUP2 MLOAD SWAP1 POP PUSH3 0x18D DUP2 PUSH3 0x338 JUMP JUMPDEST SWAP3 SWAP2 POP POP JUMP JUMPDEST PUSH1 0x0 PUSH1 0x20 DUP3 DUP5 SUB SLT ISZERO PUSH3 0x1AC JUMPI PUSH3 0x1AB PUSH3 0x2FD JUMP JUMPDEST JUMPDEST PUSH1 0x0 PUSH3 0x1BC DUP5 DUP3 DUP6 ADD PUSH3 0x17C JUMP JUMPDEST SWAP2 POP POP SWAP3 SWAP2 POP POP JUMP JUMPDEST PUSH3 0x1DA PUSH3 0x1D4 DUP3 PUSH3 0x23C JUMP JUMPDEST PUSH3 0x2A6 JUMP JUMPDEST DUP3 MSTORE POP POP JUMP JUMPDEST PUSH1 0x0 PUSH3 0x1EF PUSH1 0x11 DUP4 PUSH3 0x231 JUMP JUMPDEST SWAP2 POP PUSH3 0x1FC DUP3 PUSH3 0x30F JUMP JUMPDEST PUSH1 0x11 DUP3 ADD SWAP1 POP SWAP2 SWAP1 POP JUMP JUMPDEST PUSH1 0x0 PUSH3 0x214 DUP3 PUSH3 0x1E0 JUMP JUMPDEST SWAP2 POP PUSH3 0x222 DUP3 DUP5 PUSH3 0x1C5 JUMP JUMPDEST PUSH1 0x14 DUP3 ADD SWAP2 POP DUP2 SWAP1 POP SWAP3 SWAP2 POP POP JUMP JUMPDEST PUSH1 0x0 DUP2 SWAP1 POP SWAP3 SWAP2 POP POP JUMP JUMPDEST PUSH1 0x0 PUSH3 0x249 DUP3 PUSH3 0x250 JUMP JUMPDEST SWAP1 POP SWAP2 SWAP1 POP JUMP JUMPDEST PUSH1 0x0 PUSH20 0xFFFFFFFFFFFFFFFFFFFFFFFFFFFFFFFFFFFFFFFF DUP3 AND SWAP1 POP SWAP2 SWAP1 POP JUMP JUMPDEST PUSH1 0x0 PUSH1 0x2 DUP3 DIV SWAP1 POP PUSH1 0x1 DUP3 AND DUP1 PUSH3 0x289 JUMPI PUSH1 0x7F DUP3 AND SWAP2 POP JUMPDEST PUSH1 0x20 DUP3 LT DUP2 EQ ISZERO PUSH3 0x2A0 JUMPI PUSH3 0x29F PUSH3 0x2CE JUMP JUMPDEST JUMPDEST POP SWAP2 SWAP1 POP JUMP JUMPDEST PUSH1 0x0 PUSH3 0x2B3 DUP3 PUSH3 0x2BA JUMP JUMPDEST SWAP1 POP SWAP2 SWAP1 POP JUMP JUMPDEST PUSH1 0x0 PUSH3 0x2C7 DUP3 PUSH3 0x302 JUMP JUMPDEST SWAP1 POP SWAP2 SWAP1 POP JUMP JUMPDEST PUSH32 0x4E487B7100000000000000000000000000000000000000000000000000000000 PUSH1 0x0 MSTORE PUSH1 0x22 PUSH1 0x4 MSTORE PUSH1 0x24 PUSH1 0x0 REVERT JUMPDEST PUSH1 0x0 DUP1 REVERT JUMPDEST PUSH1 0x0 DUP2 PUSH1 0x60 SHL SWAP1 POP SWAP2 SWAP1 POP JUMP JUMPDEST PUSH32 0x7365744F776E6572286164647265737329000000000000000000000000000000 PUSH1 0x0 DUP3 ADD MSTORE POP JUMP JUMPDEST PUSH3 0x343 DUP2 PUSH3 0x23C JUMP JUMPDEST DUP2 EQ PUSH3 0x34F JUMPI PUSH1 0x0 DUP1 REVERT JUMPDEST POP JUMP JUMPDEST PUSH2 0x7B8 DUP1 PUSH3 0x362 PUSH1 0x0 CODECOPY PUSH1 0x0 RETURN INVALID PUSH1 0x80 PUSH1 0x40 MSTORE CALLVALUE DUP1 ISZERO PUSH2 0x10 JUMPI PUSH1 0x0 DUP1 REVERT JUMPDEST POP PUSH1 0x4 CALLDATASIZE LT PUSH2 0x36 JUMPI PUSH1 0x0 CALLDATALOAD PUSH1 0xE0 SHR DUP1 PUSH4 0x4DF7E3D0 EQ PUSH2 0x3B JUMPI DUP1 PUSH4 0xD948D468 EQ PUSH2 0x59 JUMPI JUMPDEST PUSH1 0x0 DUP1 REVERT JUMPDEST PUSH2 0x43 PUSH2 0x75 JUMP JUMPDEST PUSH1 0x40 MLOAD PUSH2 0x50 SWAP2 SWAP1 PUSH2 0x498 JUMP JUMPDEST PUSH1 0x40 MLOAD DUP1 SWAP2 SUB SWAP1 RETURN JUMPDEST PUSH2 0x73 PUSH1 0x4 DUP1 CALLDATASIZE SUB DUP2 ADD SWAP1 PUSH2 0x6E SWAP2 SWAP1 PUSH2 0x38E JUMP JUMPDEST PUSH2 0x103 JUMP JUMPDEST STOP JUMPDEST PUSH1 0x1 DUP1 SLOAD PUSH2 0x82 SWAP1 PUSH2 0x677 JUMP JUMPDEST DUP1 PUSH1 0x1F ADD PUSH1 0x20 DUP1 SWAP2 DIV MUL PUSH1 0x20 ADD PUSH1 0x40 MLOAD SWAP1 DUP2 ADD PUSH1 0x40 MSTORE DUP1 SWAP3 SWAP2 SWAP1 DUP2 DUP2 MSTORE PUSH1 0x20 ADD DUP3 DUP1 SLOAD PUSH2 0xAE SWAP1 PUSH2 0x677 JUMP JUMPDEST DUP1 ISZERO PUSH2 0xFB JUMPI DUP1 PUSH1 0x1F LT PUSH2 0xD0 JUMPI PUSH2 0x100 DUP1 DUP4 SLOAD DIV MUL DUP4 MSTORE SWAP2 PUSH1 0x20 ADD SWAP2 PUSH2 0xFB JUMP JUMPDEST DUP3 ADD SWAP2 SWAP1 PUSH1 0x0 MSTORE PUSH1 0x20 PUSH1 0x0 KECCAK256 SWAP1 JUMPDEST DUP2 SLOAD DUP2 MSTORE SWAP1 PUSH1 0x1 ADD SWAP1 PUSH1 0x20 ADD DUP1 DUP4 GT PUSH2 0xDE JUMPI DUP3 SWAP1 SUB PUSH1 0x1F AND DUP3 ADD SWAP2 JUMPDEST POP POP POP POP POP DUP2 JUMP JUMPDEST PUSH1 0x0 DUP3 DUP3 PUSH1 0x0 SWAP1 PUSH1 0x4 SWAP3 PUSH2 0x119 SWAP4 SWAP3 SWAP2 SWAP1 PUSH2 0x53D JUMP JUMPDEST SWAP1 PUSH2 0x124 SWAP2 SWAP1 PUSH2 0x5D6 JUMP JUMPDEST SWAP1 POP PUSH32 0x13AF4035B0E4E7EC6B922D2E250CB1EA3B75B47DD2A6483CB76D88E6FD98EC3B PUSH28 0xFFFFFFFFFFFFFFFFFFFFFFFFFFFFFFFFFFFFFFFFFFFFFFFFFFFFFFFF NOT AND DUP2 PUSH28 0xFFFFFFFFFFFFFFFFFFFFFFFFFFFFFFFFFFFFFFFFFFFFFFFFFFFFFFFF NOT AND EQ ISZERO PUSH2 0x222 JUMPI PUSH1 0x0 DUP4 DUP4 PUSH1 0x4 SWAP1 DUP1 SWAP3 PUSH2 0x1A1 SWAP4 SWAP3 SWAP2 SWAP1 PUSH2 0x53D JUMP JUMPDEST DUP2 ADD SWAP1 PUSH2 0x1AE SWAP2 SWAP1 PUSH2 0x361 JUMP JUMPDEST SWAP1 POP PUSH1 0x0 PUSH20 0xFFFFFFFFFFFFFFFFFFFFFFFFFFFFFFFFFFFFFFFF AND DUP2 PUSH20 0xFFFFFFFFFFFFFFFFFFFFFFFFFFFFFFFFFFFFFFFF AND EQ ISZERO PUSH2 0x220 JUMPI PUSH1 0x40 MLOAD PUSH32 0x8C379A000000000000000000000000000000000000000000000000000000000 DUP2 MSTORE PUSH1 0x4 ADD PUSH2 0x217 SWAP1 PUSH2 0x4BA JUMP JUMPDEST PUSH1 0x40 MLOAD DUP1 SWAP2 SUB SWAP1 REVERT JUMPDEST POP JUMPDEST PUSH1 0x0 DUP1 PUSH1 0x0 SWAP1 SLOAD SWAP1 PUSH2 0x100 EXP SWAP1 DIV PUSH20 0xFFFFFFFFFFFFFFFFFFFFFFFFFFFFFFFFFFFFFFFF AND PUSH20 0xFFFFFFFFFFFFFFFFFFFFFFFFFFFFFFFFFFFFFFFF AND DUP5 DUP5 PUSH1 0x40 MLOAD PUSH2 0x26C SWAP3 SWAP2 SWAP1 PUSH2 0x47F JUMP JUMPDEST PUSH1 0x0 PUSH1 0x40 MLOAD DUP1 DUP4 SUB DUP2 DUP6 GAS DELEGATECALL SWAP2 POP POP RETURNDATASIZE DUP1 PUSH1 0x0 DUP2 EQ PUSH2 0x2A7 JUMPI PUSH1 0x40 MLOAD SWAP2 POP PUSH1 0x1F NOT PUSH1 0x3F RETURNDATASIZE ADD AND DUP3 ADD PUSH1 0x40 MSTORE RETURNDATASIZE DUP3 MSTORE RETURNDATASIZE PUSH1 0x0 PUSH1 0x20 DUP5 ADD RETURNDATACOPY PUSH2 0x2AC JUMP JUMPDEST PUSH1 0x60 SWAP2 POP JUMPDEST POP POP SWAP1 POP DUP1 PUSH2 0x2F0 JUMPI PUSH1 0x40 MLOAD PUSH32 0x8C379A000000000000000000000000000000000000000000000000000000000 DUP2 MSTORE PUSH1 0x4 ADD PUSH2 0x2E7 SWAP1 PUSH2 0x4DA JUMP JUMPDEST PUSH1 0x40 MLOAD DUP1 SWAP2 SUB SWAP1 REVERT JUMPDEST POP POP POP POP JUMP JUMPDEST PUSH1 0x0 DUP2 CALLDATALOAD SWAP1 POP PUSH2 0x305 DUP2 PUSH2 0x76B JUMP JUMPDEST SWAP3 SWAP2 POP POP JUMP JUMPDEST PUSH1 0x0 DUP1 DUP4 PUSH1 0x1F DUP5 ADD SLT PUSH2 0x321 JUMPI PUSH2 0x320 PUSH2 0x6DD JUMP JUMPDEST JUMPDEST DUP3 CALLDATALOAD SWAP1 POP PUSH8 0xFFFFFFFFFFFFFFFF DUP2 GT ISZERO PUSH2 0x33E JUMPI PUSH2 0x33D PUSH2 0x6D8 JUMP JUMPDEST JUMPDEST PUSH1 0x20 DUP4 ADD SWAP2 POP DUP4 PUSH1 0x1 DUP3 MUL DUP4 ADD GT ISZERO PUSH2 0x35A JUMPI PUSH2 0x359 PUSH2 0x6EC JUMP JUMPDEST JUMPDEST SWAP3 POP SWAP3 SWAP1 POP JUMP JUMPDEST PUSH1 0x0 PUSH1 0x20 DUP3 DUP5 SUB SLT ISZERO PUSH2 0x377 JUMPI PUSH2 0x376 PUSH2 0x6F6 JUMP JUMPDEST JUMPDEST PUSH1 0x0 PUSH2 0x385 DUP5 DUP3 DUP6 ADD PUSH2 0x2F6 JUMP JUMPDEST SWAP2 POP POP SWAP3 SWAP2 POP POP JUMP JUMPDEST PUSH1 0x0 DUP1 PUSH1 0x20 DUP4 DUP6 SUB SLT ISZERO PUSH2 0x3A5 JUMPI PUSH2 0x3A4 PUSH2 0x6F6 JUMP JUMPDEST JUMPDEST PUSH1 0x0 DUP4 ADD CALLDATALOAD PUSH8 0xFFFFFFFFFFFFFFFF DUP2 GT ISZERO PUSH2 0x3C3 JUMPI PUSH2 0x3C2 PUSH2 0x6F1 JUMP JUMPDEST JUMPDEST PUSH2 0x3CF DUP6 DUP3 DUP7 ADD PUSH2 0x30B JUMP JUMPDEST SWAP3 POP SWAP3 POP POP SWAP3 POP SWAP3 SWAP1 POP JUMP JUMPDEST PUSH1 0x0 PUSH2 0x3E7 DUP4 DUP6 PUSH2 0x521 JUMP JUMPDEST SWAP4 POP PUSH2 0x3F4 DUP4 DUP6 DUP5 PUSH2 0x635 JUMP JUMPDEST DUP3 DUP5 ADD SWAP1 POP SWAP4 SWAP3 POP POP POP JUMP JUMPDEST PUSH1 0x0 PUSH2 0x40B DUP3 PUSH2 0x505 JUMP JUMPDEST PUSH2 0x415 DUP2 DUP6 PUSH2 0x510 JUMP JUMPDEST SWAP4 POP PUSH2 0x425 DUP2 DUP6 PUSH1 0x20 DUP7 ADD PUSH2 0x644 JUMP JUMPDEST PUSH2 0x42E DUP2 PUSH2 0x6FB JUMP JUMPDEST DUP5 ADD SWAP2 POP POP SWAP3 SWAP2 POP POP JUMP JUMPDEST PUSH1 0x0 PUSH2 0x446 PUSH1 0x20 DUP4 PUSH2 0x52C JUMP JUMPDEST SWAP2 POP PUSH2 0x451 DUP3 PUSH2 0x719 JUMP JUMPDEST PUSH1 0x20 DUP3 ADD SWAP1 POP SWAP2 SWAP1 POP JUMP JUMPDEST PUSH1 0x0 PUSH2 0x469 PUSH1 0x16 DUP4 PUSH2 0x52C JUMP JUMPDEST SWAP2 POP PUSH2 0x474 DUP3 PUSH2 0x742 JUMP JUMPDEST PUSH1 0x20 DUP3 ADD SWAP1 POP SWAP2 SWAP1 POP JUMP JUMPDEST PUSH1 0x0 PUSH2 0x48C DUP3 DUP5 DUP7 PUSH2 0x3DB JUMP JUMPDEST SWAP2 POP DUP2 SWAP1 POP SWAP4 SWAP3 POP POP POP JUMP JUMPDEST PUSH1 0x0 PUSH1 0x20 DUP3 ADD SWAP1 POP DUP2 DUP2 SUB PUSH1 0x0 DUP4 ADD MSTORE PUSH2 0x4B2 DUP2 DUP5 PUSH2 0x400 JUMP JUMPDEST SWAP1 POP SWAP3 SWAP2 POP POP JUMP JUMPDEST PUSH1 0x0 PUSH1 0x20 DUP3 ADD SWAP1 POP DUP2 DUP2 SUB PUSH1 0x0 DUP4 ADD MSTORE PUSH2 0x4D3 DUP2 PUSH2 0x439 JUMP JUMPDEST SWAP1 POP SWAP2 SWAP1 POP JUMP JUMPDEST PUSH1 0x0 PUSH1 0x20 DUP3 ADD SWAP1 POP DUP2 DUP2 SUB PUSH1 0x0 DUP4 ADD MSTORE PUSH2 0x4F3 DUP2 PUSH2 0x45C JUMP JUMPDEST SWAP1 POP SWAP2 SWAP1 POP JUMP JUMPDEST PUSH1 0x0 DUP3 SWAP1 POP SWAP3 SWAP2 POP POP JUMP JUMPDEST PUSH1 0x0 DUP2 MLOAD SWAP1 POP SWAP2 SWAP1 POP JUMP JUMPDEST PUSH1 0x0 DUP3 DUP3 MSTORE PUSH1 0x20 DUP3 ADD SWAP1 POP SWAP3 SWAP2 POP POP JUMP JUMPDEST PUSH1 0x0 DUP2 SWAP1 POP SWAP3 SWAP2 POP POP JUMP JUMPDEST PUSH1 0x0 DUP3 DUP3 MSTORE PUSH1 0x20 DUP3 ADD SWAP1 POP SWAP3 SWAP2 POP POP JUMP JUMPDEST PUSH1 0x0 DUP1 DUP6 DUP6 GT ISZERO PUSH2 0x551 JUMPI PUSH2 0x550 PUSH2 0x6E7 JUMP JUMPDEST JUMPDEST DUP4 DUP7 GT ISZERO PUSH2 0x562 JUMPI PUSH2 0x561 PUSH2 0x6E2 JUMP JUMPDEST JUMPDEST PUSH1 0x1 DUP6 MUL DUP4 ADD SWAP2 POP DUP5 DUP7 SUB SWAP1 POP SWAP5 POP SWAP5 SWAP3 POP POP POP JUMP JUMPDEST PUSH1 0x0 PUSH2 0x583 DUP3 PUSH2 0x5B6 JUMP JUMPDEST SWAP1 POP SWAP2 SWAP1 POP JUMP JUMPDEST PUSH1 0x0 PUSH32 0xFFFFFFFF00000000000000000000000000000000000000000000000000000000 DUP3 AND SWAP1 POP SWAP2 SWAP1 POP JUMP JUMPDEST PUSH1 0x0 PUSH20 0xFFFFFFFFFFFFFFFFFFFFFFFFFFFFFFFFFFFFFFFF DUP3 AND SWAP1 POP SWAP2 SWAP1 POP JUMP JUMPDEST PUSH1 0x0 PUSH2 0x5E2 DUP4 DUP4 PUSH2 0x4FA JUMP JUMPDEST DUP3 PUSH2 0x5ED DUP2 CALLDATALOAD PUSH2 0x58A JUMP JUMPDEST SWAP3 POP PUSH1 0x4 DUP3 LT ISZERO PUSH2 0x62D JUMPI PUSH2 0x628 PUSH32 0xFFFFFFFF00000000000000000000000000000000000000000000000000000000 DUP4 PUSH1 0x4 SUB PUSH1 0x8 MUL PUSH2 0x70C JUMP JUMPDEST DUP4 AND SWAP3 POP JUMPDEST POP POP SWAP3 SWAP2 POP POP JUMP JUMPDEST DUP3 DUP2 DUP4 CALLDATACOPY PUSH1 0x0 DUP4 DUP4 ADD MSTORE POP POP POP JUMP JUMPDEST PUSH1 0x0 JUMPDEST DUP4 DUP2 LT ISZERO PUSH2 0x662 JUMPI DUP1 DUP3 ADD MLOAD DUP2 DUP5 ADD MSTORE PUSH1 0x20 DUP2 ADD SWAP1 POP PUSH2 0x647 JUMP JUMPDEST DUP4 DUP2 GT ISZERO PUSH2 0x671 JUMPI PUSH1 0x0 DUP5 DUP5 ADD MSTORE JUMPDEST POP POP POP POP JUMP JUMPDEST PUSH1 0x0 PUSH1 0x2 DUP3 DIV SWAP1 POP PUSH1 0x1 DUP3 AND DUP1 PUSH2 0x68F JUMPI PUSH1 0x7F DUP3 AND SWAP2 POP JUMPDEST PUSH1 0x20 DUP3 LT DUP2 EQ ISZERO PUSH2 0x6A3 JUMPI PUSH2 0x6A2 PUSH2 0x6A9 JUMP JUMPDEST JUMPDEST POP SWAP2 SWAP1 POP JUMP JUMPDEST PUSH32 0x4E487B7100000000000000000000000000000000000000000000000000000000 PUSH1 0x0 MSTORE PUSH1 0x22 PUSH1 0x4 MSTORE PUSH1 0x24 PUSH1 0x0 REVERT JUMPDEST PUSH1 0x0 DUP1 REVERT JUMPDEST PUSH1 0x0 DUP1 REVERT JUMPDEST PUSH1 0x0 DUP1 REVERT JUMPDEST PUSH1 0x0 DUP1 REVERT JUMPDEST PUSH1 0x0 DUP1 REVERT JUMPDEST PUSH1 0x0 DUP1 REVERT JUMPDEST PUSH1 0x0 DUP1 REVERT JUMPDEST PUSH1 0x0 PUSH1 0x1F NOT PUSH1 0x1F DUP4 ADD AND SWAP1 POP SWAP2 SWAP1 POP JUMP JUMPDEST PUSH1 0x0 DUP3 DUP3 SHL SWAP1 POP SWAP3 SWAP2 POP POP JUMP JUMPDEST PUSH32 0x41646472657373206F66206F776E65722063616E6E6F74206265207A65726F2E PUSH1 0x0 DUP3 ADD MSTORE POP JUMP JUMPDEST PUSH32 0x466F727761726465642063616C6C206661696C65642E00000000000000000000 PUSH1 0x0 DUP3 ADD MSTORE POP JUMP JUMPDEST PUSH2 0x774 DUP2 PUSH2 0x578 JUMP JUMPDEST DUP2 EQ PUSH2 0x77F JUMPI PUSH1 0x0 DUP1 REVERT JUMPDEST POP JUMP INVALID LOG2 PUSH5 0x6970667358 0x22 SLT KECCAK256 RETURN 0xD8 0xCF 0x28 0xBA PUSH27 0xB8845A602DA6B13A8055AFA6E64D7246250315088512E6D43D9D64 PUSH20 0x6F6C634300080600330000000000000000000000 "
		},
		"gasEstimates": {
			"creation": {
				"codeDepositCost": "395200",
				"executionCost": "infinite",
				"totalCost": "infinite"
			},
			"external": {
				"b()": "infinite",
				"forward(bytes)": "infinite"
			}
		},
		"methodIdentifiers": {
			"b()": "4df7e3d0",
			"forward(bytes)": "d948d468"
		}
	},
	"abi": [
		{
			"inputs": [
				{
					"internalType": "address",
					"name": "client_",
					"type": "address"
				}
			],
			"stateMutability": "nonpayable",
			"type": "constructor"
		},
		{
			"inputs": [],
			"name": "b",
			"outputs": [
				{
					"internalType": "bytes",
					"name": "",
					"type": "bytes"
				}
			],
			"stateMutability": "view",
			"type": "function"
		},
		{
			"inputs": [
				{
					"internalType": "bytes",
					"name": "payload",
					"type": "bytes"
				}
			],
			"name": "forward",
			"outputs": [],
			"stateMutability": "nonpayable",
			"type": "function"
		}
	]
}