{
	"code9/1deploy.sol": {
		"Proxy": {
			"abi": [
				{
					"inputs": [
						{
							"internalType": "bytes",
							"name": "_code",
							"type": "bytes"
						}
					],
					"name": "deploy",
					"outputs": [],
					"stateMutability": "nonpayable",
					"type": "function"
				}
			],
			"devdoc": {
				"kind": "dev",
				"methods": {},
				"version": 1
			},
			"evm": {
				"assembly": "    /* \"code9/1deploy.sol\":308:401  contract Proxy{... */\n  mstore(0x40, 0x80)\n  callvalue\n  dup1\n  iszero\n  tag_1\n  jumpi\n  0x00\n  dup1\n  revert\ntag_1:\n  pop\n  dataSize(sub_0)\n  dup1\n  dataOffset(sub_0)\n  0x00\n  codecopy\n  0x00\n  return\nstop\n\nsub_0: assembly {\n        /* \"code9/1deploy.sol\":308:401  contract Proxy{... */\n      mstore(0x40, 0x80)\n      callvalue\n      dup1\n      iszero\n      tag_1\n      jumpi\n      0x00\n      dup1\n      revert\n    tag_1:\n      pop\n      jumpi(tag_2, lt(calldatasize, 0x04))\n      shr(0xe0, calldataload(0x00))\n      dup1\n      0x774360\n      eq\n      tag_3\n      jumpi\n    tag_2:\n      0x00\n      dup1\n      revert\n        /* \"code9/1deploy.sol\":328:399  function deploy(bytes memory _code)external{... */\n    tag_3:\n      tag_4\n      0x04\n      dup1\n      calldatasize\n      sub\n      dup2\n      add\n      swap1\n      tag_5\n      swap2\n      swap1\n      tag_6\n      jump\t// in\n    tag_5:\n      tag_7\n      jump\t// in\n    tag_4:\n      stop\n    tag_7:\n        /* \"code9/1deploy.sol\":381:392  new Test1() */\n      mload(0x40)\n      tag_9\n      swap1\n      tag_10\n      jump\t// in\n    tag_9:\n      mload(0x40)\n      dup1\n      swap2\n      sub\n      swap1\n      0x00\n      create\n      dup1\n      iszero\n      dup1\n      iszero\n      tag_11\n      jumpi\n      returndatasize\n      0x00\n      dup1\n      returndatacopy\n      revert(0x00, returndatasize)\n    tag_11:\n      pop\n      pop\n        /* \"code9/1deploy.sol\":328:399  function deploy(bytes memory _code)external{... */\n      pop\n      jump\t// out\n    tag_10:\n      dataSize(sub_0)\n      dup1\n      dataOffset(sub_0)\n      dup4\n      codecopy\n      add\n      swap1\n      jump\t// out\n        /* \"#utility.yul\":7:417   */\n    tag_13:\n        /* \"#utility.yul\":84:89   */\n      0x00\n        /* \"#utility.yul\":109:174   */\n      tag_15\n        /* \"#utility.yul\":125:173   */\n      tag_16\n        /* \"#utility.yul\":166:172   */\n      dup5\n        /* \"#utility.yul\":125:173   */\n      tag_17\n      jump\t// in\n    tag_16:\n        /* \"#utility.yul\":109:174   */\n      tag_18\n      jump\t// in\n    tag_15:\n        /* \"#utility.yul\":100:174   */\n      swap1\n      pop\n        /* \"#utility.yul\":197:203   */\n      dup3\n        /* \"#utility.yul\":190:195   */\n      dup2\n        /* \"#utility.yul\":183:204   */\n      mstore\n        /* \"#utility.yul\":235:239   */\n      0x20\n        /* \"#utility.yul\":228:233   */\n      dup2\n        /* \"#utility.yul\":224:240   */\n      add\n        /* \"#utility.yul\":273:276   */\n      dup5\n        /* \"#utility.yul\":264:270   */\n      dup5\n        /* \"#utility.yul\":259:262   */\n      dup5\n        /* \"#utility.yul\":255:271   */\n      add\n        /* \"#utility.yul\":252:277   */\n      gt\n        /* \"#utility.yul\":249:361   */\n      iszero\n      tag_19\n      jumpi\n        /* \"#utility.yul\":280:359   */\n      tag_20\n      tag_21\n      jump\t// in\n    tag_20:\n        /* \"#utility.yul\":249:361   */\n    tag_19:\n        /* \"#utility.yul\":370:411   */\n      tag_22\n        /* \"#utility.yul\":404:410   */\n      dup5\n        /* \"#utility.yul\":399:402   */\n      dup3\n        /* \"#utility.yul\":394:397   */\n      dup6\n        /* \"#utility.yul\":370:411   */\n      tag_23\n      jump\t// in\n    tag_22:\n        /* \"#utility.yul\":90:417   */\n      pop\n        /* \"#utility.yul\":7:417   */\n      swap4\n      swap3\n      pop\n      pop\n      pop\n      jump\t// out\n        /* \"#utility.yul\":436:774   */\n    tag_24:\n        /* \"#utility.yul\":491:496   */\n      0x00\n        /* \"#utility.yul\":540:543   */\n      dup3\n        /* \"#utility.yul\":533:537   */\n      0x1f\n        /* \"#utility.yul\":525:531   */\n      dup4\n        /* \"#utility.yul\":521:538   */\n      add\n        /* \"#utility.yul\":517:544   */\n      slt\n        /* \"#utility.yul\":507:629   */\n      tag_26\n      jumpi\n        /* \"#utility.yul\":548:627   */\n      tag_27\n      tag_28\n      jump\t// in\n    tag_27:\n        /* \"#utility.yul\":507:629   */\n    tag_26:\n        /* \"#utility.yul\":665:671   */\n      dup2\n        /* \"#utility.yul\":652:672   */\n      calldataload\n        /* \"#utility.yul\":690:768   */\n      tag_29\n        /* \"#utility.yul\":764:767   */\n      dup5\n        /* \"#utility.yul\":756:762   */\n      dup3\n        /* \"#utility.yul\":749:753   */\n      0x20\n        /* \"#utility.yul\":741:747   */\n      dup7\n        /* \"#utility.yul\":737:754   */\n      add\n        /* \"#utility.yul\":690:768   */\n      tag_13\n      jump\t// in\n    tag_29:\n        /* \"#utility.yul\":681:768   */\n      swap2\n      pop\n        /* \"#utility.yul\":497:774   */\n      pop\n        /* \"#utility.yul\":436:774   */\n      swap3\n      swap2\n      pop\n      pop\n      jump\t// out\n        /* \"#utility.yul\":780:1287   */\n    tag_6:\n        /* \"#utility.yul\":848:854   */\n      0x00\n        /* \"#utility.yul\":897:899   */\n      0x20\n        /* \"#utility.yul\":885:894   */\n      dup3\n        /* \"#utility.yul\":876:883   */\n      dup5\n        /* \"#utility.yul\":872:895   */\n      sub\n        /* \"#utility.yul\":868:900   */\n      slt\n        /* \"#utility.yul\":865:984   */\n      iszero\n      tag_31\n      jumpi\n        /* \"#utility.yul\":903:982   */\n      tag_32\n      tag_33\n      jump\t// in\n    tag_32:\n        /* \"#utility.yul\":865:984   */\n    tag_31:\n        /* \"#utility.yul\":1051:1052   */\n      0x00\n        /* \"#utility.yul\":1040:1049   */\n      dup3\n        /* \"#utility.yul\":1036:1053   */\n      add\n        /* \"#utility.yul\":1023:1054   */\n      calldataload\n        /* \"#utility.yul\":1081:1099   */\n      0xffffffffffffffff\n        /* \"#utility.yul\":1073:1079   */\n      dup2\n        /* \"#utility.yul\":1070:1100   */\n      gt\n        /* \"#utility.yul\":1067:1184   */\n      iszero\n      tag_34\n      jumpi\n        /* \"#utility.yul\":1103:1182   */\n      tag_35\n      tag_36\n      jump\t// in\n    tag_35:\n        /* \"#utility.yul\":1067:1184   */\n    tag_34:\n        /* \"#utility.yul\":1208:1270   */\n      tag_37\n        /* \"#utility.yul\":1262:1269   */\n      dup5\n        /* \"#utility.yul\":1253:1259   */\n      dup3\n        /* \"#utility.yul\":1242:1251   */\n      dup6\n        /* \"#utility.yul\":1238:1260   */\n      add\n        /* \"#utility.yul\":1208:1270   */\n      tag_24\n      jump\t// in\n    tag_37:\n        /* \"#utility.yul\":1198:1270   */\n      swap2\n      pop\n        /* \"#utility.yul\":994:1280   */\n      pop\n        /* \"#utility.yul\":780:1287   */\n      swap3\n      swap2\n      pop\n      pop\n      jump\t// out\n        /* \"#utility.yul\":1293:1422   */\n    tag_18:\n        /* \"#utility.yul\":1327:1333   */\n      0x00\n        /* \"#utility.yul\":1354:1374   */\n      tag_39\n      tag_40\n      jump\t// in\n    tag_39:\n        /* \"#utility.yul\":1344:1374   */\n      swap1\n      pop\n        /* \"#utility.yul\":1383:1416   */\n      tag_41\n        /* \"#utility.yul\":1411:1415   */\n      dup3\n        /* \"#utility.yul\":1403:1409   */\n      dup3\n        /* \"#utility.yul\":1383:1416   */\n      tag_42\n      jump\t// in\n    tag_41:\n        /* \"#utility.yul\":1293:1422   */\n      swap2\n      swap1\n      pop\n      jump\t// out\n        /* \"#utility.yul\":1428:1503   */\n    tag_40:\n        /* \"#utility.yul\":1461:1467   */\n      0x00\n        /* \"#utility.yul\":1494:1496   */\n      0x40\n        /* \"#utility.yul\":1488:1497   */\n      mload\n        /* \"#utility.yul\":1478:1497   */\n      swap1\n      pop\n        /* \"#utility.yul\":1428:1503   */\n      swap1\n      jump\t// out\n        /* \"#utility.yul\":1509:1816   */\n    tag_17:\n        /* \"#utility.yul\":1570:1574   */\n      0x00\n        /* \"#utility.yul\":1660:1678   */\n      0xffffffffffffffff\n        /* \"#utility.yul\":1652:1658   */\n      dup3\n        /* \"#utility.yul\":1649:1679   */\n      gt\n        /* \"#utility.yul\":1646:1702   */\n      iszero\n      tag_45\n      jumpi\n        /* \"#utility.yul\":1682:1700   */\n      tag_46\n      tag_47\n      jump\t// in\n    tag_46:\n        /* \"#utility.yul\":1646:1702   */\n    tag_45:\n        /* \"#utility.yul\":1720:1749   */\n      tag_48\n        /* \"#utility.yul\":1742:1748   */\n      dup3\n        /* \"#utility.yul\":1720:1749   */\n      tag_49\n      jump\t// in\n    tag_48:\n        /* \"#utility.yul\":1712:1749   */\n      swap1\n      pop\n        /* \"#utility.yul\":1804:1808   */\n      0x20\n        /* \"#utility.yul\":1798:1802   */\n      dup2\n        /* \"#utility.yul\":1794:1809   */\n      add\n        /* \"#utility.yul\":1786:1809   */\n      swap1\n      pop\n        /* \"#utility.yul\":1509:1816   */\n      swap2\n      swap1\n      pop\n      jump\t// out\n        /* \"#utility.yul\":1822:1976   */\n    tag_23:\n        /* \"#utility.yul\":1906:1912   */\n      dup3\n        /* \"#utility.yul\":1901:1904   */\n      dup2\n        /* \"#utility.yul\":1896:1899   */\n      dup4\n        /* \"#utility.yul\":1883:1913   */\n      calldatacopy\n        /* \"#utility.yul\":1968:1969   */\n      0x00\n        /* \"#utility.yul\":1959:1965   */\n      dup4\n        /* \"#utility.yul\":1954:1957   */\n      dup4\n        /* \"#utility.yul\":1950:1966   */\n      add\n        /* \"#utility.yul\":1943:1970   */\n      mstore\n        /* \"#utility.yul\":1822:1976   */\n      pop\n      pop\n      pop\n      jump\t// out\n        /* \"#utility.yul\":1982:2263   */\n    tag_42:\n        /* \"#utility.yul\":2065:2092   */\n      tag_52\n        /* \"#utility.yul\":2087:2091   */\n      dup3\n        /* \"#utility.yul\":2065:2092   */\n      tag_49\n      jump\t// in\n    tag_52:\n        /* \"#utility.yul\":2057:2063   */\n      dup2\n        /* \"#utility.yul\":2053:2093   */\n      add\n        /* \"#utility.yul\":2195:2201   */\n      dup2\n        /* \"#utility.yul\":2183:2193   */\n      dup2\n        /* \"#utility.yul\":2180:2202   */\n      lt\n        /* \"#utility.yul\":2159:2177   */\n      0xffffffffffffffff\n        /* \"#utility.yul\":2147:2157   */\n      dup3\n        /* \"#utility.yul\":2144:2178   */\n      gt\n        /* \"#utility.yul\":2141:2203   */\n      or\n        /* \"#utility.yul\":2138:2226   */\n      iszero\n      tag_53\n      jumpi\n        /* \"#utility.yul\":2206:2224   */\n      tag_54\n      tag_47\n      jump\t// in\n    tag_54:\n        /* \"#utility.yul\":2138:2226   */\n    tag_53:\n        /* \"#utility.yul\":2246:2256   */\n      dup1\n        /* \"#utility.yul\":2242:2244   */\n      0x40\n        /* \"#utility.yul\":2235:2257   */\n      mstore\n        /* \"#utility.yul\":2025:2263   */\n      pop\n        /* \"#utility.yul\":1982:2263   */\n      pop\n      pop\n      jump\t// out\n        /* \"#utility.yul\":2269:2449   */\n    tag_47:\n        /* \"#utility.yul\":2317:2394   */\n      0x4e487b7100000000000000000000000000000000000000000000000000000000\n        /* \"#utility.yul\":2314:2315   */\n      0x00\n        /* \"#utility.yul\":2307:2395   */\n      mstore\n        /* \"#utility.yul\":2414:2418   */\n      0x41\n        /* \"#utility.yul\":2411:2412   */\n      0x04\n        /* \"#utility.yul\":2404:2419   */\n      mstore\n        /* \"#utility.yul\":2438:2442   */\n      0x24\n        /* \"#utility.yul\":2435:2436   */\n      0x00\n        /* \"#utility.yul\":2428:2443   */\n      revert\n        /* \"#utility.yul\":2455:2572   */\n    tag_28:\n        /* \"#utility.yul\":2564:2565   */\n      0x00\n        /* \"#utility.yul\":2561:2562   */\n      dup1\n        /* \"#utility.yul\":2554:2566   */\n      revert\n        /* \"#utility.yul\":2578:2695   */\n    tag_21:\n        /* \"#utility.yul\":2687:2688   */\n      0x00\n        /* \"#utility.yul\":2684:2685   */\n      dup1\n        /* \"#utility.yul\":2677:2689   */\n      revert\n        /* \"#utility.yul\":2701:2818   */\n    tag_36:\n        /* \"#utility.yul\":2810:2811   */\n      0x00\n        /* \"#utility.yul\":2807:2808   */\n      dup1\n        /* \"#utility.yul\":2800:2812   */\n      revert\n        /* \"#utility.yul\":2824:2941   */\n    tag_33:\n        /* \"#utility.yul\":2933:2934   */\n      0x00\n        /* \"#utility.yul\":2930:2931   */\n      dup1\n        /* \"#utility.yul\":2923:2935   */\n      revert\n        /* \"#utility.yul\":2947:3049   */\n    tag_49:\n        /* \"#utility.yul\":2988:2994   */\n      0x00\n        /* \"#utility.yul\":3039:3041   */\n      0x1f\n        /* \"#utility.yul\":3035:3042   */\n      not\n        /* \"#utility.yul\":3030:3032   */\n      0x1f\n        /* \"#utility.yul\":3023:3028   */\n      dup4\n        /* \"#utility.yul\":3019:3033   */\n      add\n        /* \"#utility.yul\":3015:3043   */\n      and\n        /* \"#utility.yul\":3005:3043   */\n      swap1\n      pop\n        /* \"#utility.yul\":2947:3049   */\n      swap2\n      swap1\n      pop\n      jump\t// out\n    stop\n\n    sub_0: assembly {\n            /* \"code9/1deploy.sol\":54:247  contract Test1{... */\n          mstore(0x40, 0x80)\n            /* \"code9/1deploy.sol\":97:107  msg.sender */\n          caller\n            /* \"code9/1deploy.sol\":74:107  address public owner = msg.sender */\n          0x00\n          dup1\n          0x0100\n          exp\n          dup2\n          sload\n          dup2\n          0xffffffffffffffffffffffffffffffffffffffff\n          mul\n          not\n          and\n          swap1\n          dup4\n          0xffffffffffffffffffffffffffffffffffffffff\n          and\n          mul\n          or\n          swap1\n          sstore\n          pop\n            /* \"code9/1deploy.sol\":54:247  contract Test1{... */\n          callvalue\n          dup1\n          iszero\n          tag_1\n          jumpi\n          0x00\n          dup1\n          revert\n        tag_1:\n          pop\n          dataSize(sub_0)\n          dup1\n          dataOffset(sub_0)\n          0x00\n          codecopy\n          0x00\n          return\n        stop\n\n        sub_0: assembly {\n                /* \"code9/1deploy.sol\":54:247  contract Test1{... */\n              mstore(0x40, 0x80)\n              callvalue\n              dup1\n              iszero\n              tag_1\n              jumpi\n              0x00\n              dup1\n              revert\n            tag_1:\n              pop\n              jumpi(tag_2, lt(calldatasize, 0x04))\n              shr(0xe0, calldataload(0x00))\n              dup1\n              0x13af4035\n              eq\n              tag_3\n              jumpi\n              dup1\n              0x8da5cb5b\n              eq\n              tag_4\n              jumpi\n            tag_2:\n              0x00\n              dup1\n              revert\n                /* \"code9/1deploy.sol\":113:245  function setOwner(address newOwner)public{... */\n            tag_3:\n              tag_5\n              0x04\n              dup1\n              calldatasize\n              sub\n              dup2\n              add\n              swap1\n              tag_6\n              swap2\n              swap1\n              tag_7\n              jump\t// in\n            tag_6:\n              tag_8\n              jump\t// in\n            tag_5:\n              stop\n                /* \"code9/1deploy.sol\":74:107  address public owner = msg.sender */\n            tag_4:\n              tag_9\n              tag_10\n              jump\t// in\n            tag_9:\n              mload(0x40)\n              tag_11\n              swap2\n              swap1\n              tag_12\n              jump\t// in\n            tag_11:\n              mload(0x40)\n              dup1\n              swap2\n              sub\n              swap1\n              return\n                /* \"code9/1deploy.sol\":113:245  function setOwner(address newOwner)public{... */\n            tag_8:\n                /* \"code9/1deploy.sol\":186:191  owner */\n              0x00\n              dup1\n              sload\n              swap1\n              0x0100\n              exp\n              swap1\n              div\n              0xffffffffffffffffffffffffffffffffffffffff\n              and\n                /* \"code9/1deploy.sol\":172:191  msg.sender == owner */\n              0xffffffffffffffffffffffffffffffffffffffff\n              and\n                /* \"code9/1deploy.sol\":172:182  msg.sender */\n              caller\n                /* \"code9/1deploy.sol\":172:191  msg.sender == owner */\n              0xffffffffffffffffffffffffffffffffffffffff\n              and\n              eq\n                /* \"code9/1deploy.sol\":164:212  require(msg.sender == owner,\"cant not use this\") */\n              tag_14\n              jumpi\n              mload(0x40)\n              0x08c379a000000000000000000000000000000000000000000000000000000000\n              dup2\n              mstore\n              0x04\n              add\n              tag_15\n              swap1\n              tag_16\n              jump\t// in\n            tag_15:\n              mload(0x40)\n              dup1\n              swap2\n              sub\n              swap1\n              revert\n            tag_14:\n                /* \"code9/1deploy.sol\":230:238  newOwner */\n              dup1\n                /* \"code9/1deploy.sol\":222:227  owner */\n              0x00\n              dup1\n                /* \"code9/1deploy.sol\":222:238  owner = newOwner */\n              0x0100\n              exp\n              dup2\n              sload\n              dup2\n              0xffffffffffffffffffffffffffffffffffffffff\n              mul\n              not\n              and\n              swap1\n              dup4\n              0xffffffffffffffffffffffffffffffffffffffff\n              and\n              mul\n              or\n              swap1\n              sstore\n              pop\n                /* \"code9/1deploy.sol\":113:245  function setOwner(address newOwner)public{... */\n              pop\n              jump\t// out\n                /* \"code9/1deploy.sol\":74:107  address public owner = msg.sender */\n            tag_10:\n              0x00\n              dup1\n              sload\n              swap1\n              0x0100\n              exp\n              swap1\n              div\n              0xffffffffffffffffffffffffffffffffffffffff\n              and\n              dup2\n              jump\t// out\n                /* \"#utility.yul\":7:146   */\n            tag_18:\n                /* \"#utility.yul\":53:58   */\n              0x00\n                /* \"#utility.yul\":91:97   */\n              dup2\n                /* \"#utility.yul\":78:98   */\n              calldataload\n                /* \"#utility.yul\":69:98   */\n              swap1\n              pop\n                /* \"#utility.yul\":107:140   */\n              tag_20\n                /* \"#utility.yul\":134:139   */\n              dup2\n                /* \"#utility.yul\":107:140   */\n              tag_21\n              jump\t// in\n            tag_20:\n                /* \"#utility.yul\":7:146   */\n              swap3\n              swap2\n              pop\n              pop\n              jump\t// out\n                /* \"#utility.yul\":152:481   */\n            tag_7:\n                /* \"#utility.yul\":211:217   */\n              0x00\n                /* \"#utility.yul\":260:262   */\n              0x20\n                /* \"#utility.yul\":248:257   */\n              dup3\n                /* \"#utility.yul\":239:246   */\n              dup5\n                /* \"#utility.yul\":235:258   */\n              sub\n                /* \"#utility.yul\":231:263   */\n              slt\n                /* \"#utility.yul\":228:347   */\n              iszero\n              tag_23\n              jumpi\n                /* \"#utility.yul\":266:345   */\n              tag_24\n              tag_25\n              jump\t// in\n            tag_24:\n                /* \"#utility.yul\":228:347   */\n            tag_23:\n                /* \"#utility.yul\":386:387   */\n              0x00\n                /* \"#utility.yul\":411:464   */\n              tag_26\n                /* \"#utility.yul\":456:463   */\n              dup5\n                /* \"#utility.yul\":447:453   */\n              dup3\n                /* \"#utility.yul\":436:445   */\n              dup6\n                /* \"#utility.yul\":432:454   */\n              add\n                /* \"#utility.yul\":411:464   */\n              tag_18\n              jump\t// in\n            tag_26:\n                /* \"#utility.yul\":401:464   */\n              swap2\n              pop\n                /* \"#utility.yul\":357:474   */\n              pop\n                /* \"#utility.yul\":152:481   */\n              swap3\n              swap2\n              pop\n              pop\n              jump\t// out\n                /* \"#utility.yul\":487:605   */\n            tag_27:\n                /* \"#utility.yul\":574:598   */\n              tag_29\n                /* \"#utility.yul\":592:597   */\n              dup2\n                /* \"#utility.yul\":574:598   */\n              tag_30\n              jump\t// in\n            tag_29:\n                /* \"#utility.yul\":569:572   */\n              dup3\n                /* \"#utility.yul\":562:599   */\n              mstore\n                /* \"#utility.yul\":487:605   */\n              pop\n              pop\n              jump\t// out\n                /* \"#utility.yul\":611:977   */\n            tag_31:\n                /* \"#utility.yul\":753:756   */\n              0x00\n                /* \"#utility.yul\":774:841   */\n              tag_33\n                /* \"#utility.yul\":838:840   */\n              0x11\n                /* \"#utility.yul\":833:836   */\n              dup4\n                /* \"#utility.yul\":774:841   */\n              tag_34\n              jump\t// in\n            tag_33:\n                /* \"#utility.yul\":767:841   */\n              swap2\n              pop\n                /* \"#utility.yul\":850:943   */\n              tag_35\n                /* \"#utility.yul\":939:942   */\n              dup3\n                /* \"#utility.yul\":850:943   */\n              tag_36\n              jump\t// in\n            tag_35:\n                /* \"#utility.yul\":968:970   */\n              0x20\n                /* \"#utility.yul\":963:966   */\n              dup3\n                /* \"#utility.yul\":959:971   */\n              add\n                /* \"#utility.yul\":952:971   */\n              swap1\n              pop\n                /* \"#utility.yul\":611:977   */\n              swap2\n              swap1\n              pop\n              jump\t// out\n                /* \"#utility.yul\":983:1205   */\n            tag_12:\n                /* \"#utility.yul\":1076:1080   */\n              0x00\n                /* \"#utility.yul\":1114:1116   */\n              0x20\n                /* \"#utility.yul\":1103:1112   */\n              dup3\n                /* \"#utility.yul\":1099:1117   */\n              add\n                /* \"#utility.yul\":1091:1117   */\n              swap1\n              pop\n                /* \"#utility.yul\":1127:1198   */\n              tag_38\n                /* \"#utility.yul\":1195:1196   */\n              0x00\n                /* \"#utility.yul\":1184:1193   */\n              dup4\n                /* \"#utility.yul\":1180:1197   */\n              add\n                /* \"#utility.yul\":1171:1177   */\n              dup5\n                /* \"#utility.yul\":1127:1198   */\n              tag_27\n              jump\t// in\n            tag_38:\n                /* \"#utility.yul\":983:1205   */\n              swap3\n              swap2\n              pop\n              pop\n              jump\t// out\n                /* \"#utility.yul\":1211:1630   */\n            tag_16:\n                /* \"#utility.yul\":1377:1381   */\n              0x00\n                /* \"#utility.yul\":1415:1417   */\n              0x20\n                /* \"#utility.yul\":1404:1413   */\n              dup3\n                /* \"#utility.yul\":1400:1418   */\n              add\n                /* \"#utility.yul\":1392:1418   */\n              swap1\n              pop\n                /* \"#utility.yul\":1464:1473   */\n              dup2\n                /* \"#utility.yul\":1458:1462   */\n              dup2\n                /* \"#utility.yul\":1454:1474   */\n              sub\n                /* \"#utility.yul\":1450:1451   */\n              0x00\n                /* \"#utility.yul\":1439:1448   */\n              dup4\n                /* \"#utility.yul\":1435:1452   */\n              add\n                /* \"#utility.yul\":1428:1475   */\n              mstore\n                /* \"#utility.yul\":1492:1623   */\n              tag_40\n                /* \"#utility.yul\":1618:1622   */\n              dup2\n                /* \"#utility.yul\":1492:1623   */\n              tag_31\n              jump\t// in\n            tag_40:\n                /* \"#utility.yul\":1484:1623   */\n              swap1\n              pop\n                /* \"#utility.yul\":1211:1630   */\n              swap2\n              swap1\n              pop\n              jump\t// out\n                /* \"#utility.yul\":1717:1886   */\n            tag_34:\n                /* \"#utility.yul\":1801:1812   */\n              0x00\n                /* \"#utility.yul\":1835:1841   */\n              dup3\n                /* \"#utility.yul\":1830:1833   */\n              dup3\n                /* \"#utility.yul\":1823:1842   */\n              mstore\n                /* \"#utility.yul\":1875:1879   */\n              0x20\n                /* \"#utility.yul\":1870:1873   */\n              dup3\n                /* \"#utility.yul\":1866:1880   */\n              add\n                /* \"#utility.yul\":1851:1880   */\n              swap1\n              pop\n                /* \"#utility.yul\":1717:1886   */\n              swap3\n              swap2\n              pop\n              pop\n              jump\t// out\n                /* \"#utility.yul\":1892:1988   */\n            tag_30:\n                /* \"#utility.yul\":1929:1936   */\n              0x00\n                /* \"#utility.yul\":1958:1982   */\n              tag_45\n                /* \"#utility.yul\":1976:1981   */\n              dup3\n                /* \"#utility.yul\":1958:1982   */\n              tag_46\n              jump\t// in\n            tag_45:\n                /* \"#utility.yul\":1947:1982   */\n              swap1\n              pop\n                /* \"#utility.yul\":1892:1988   */\n              swap2\n              swap1\n              pop\n              jump\t// out\n                /* \"#utility.yul\":1994:2120   */\n            tag_46:\n                /* \"#utility.yul\":2031:2038   */\n              0x00\n                /* \"#utility.yul\":2071:2113   */\n              0xffffffffffffffffffffffffffffffffffffffff\n                /* \"#utility.yul\":2064:2069   */\n              dup3\n                /* \"#utility.yul\":2060:2114   */\n              and\n                /* \"#utility.yul\":2049:2114   */\n              swap1\n              pop\n                /* \"#utility.yul\":1994:2120   */\n              swap2\n              swap1\n              pop\n              jump\t// out\n                /* \"#utility.yul\":2249:2366   */\n            tag_25:\n                /* \"#utility.yul\":2358:2359   */\n              0x00\n                /* \"#utility.yul\":2355:2356   */\n              dup1\n                /* \"#utility.yul\":2348:2360   */\n              revert\n                /* \"#utility.yul\":2372:2539   */\n            tag_36:\n                /* \"#utility.yul\":2512:2531   */\n              0x63616e74206e6f74207573652074686973000000000000000000000000000000\n                /* \"#utility.yul\":2508:2509   */\n              0x00\n                /* \"#utility.yul\":2500:2506   */\n              dup3\n                /* \"#utility.yul\":2496:2510   */\n              add\n                /* \"#utility.yul\":2489:2532   */\n              mstore\n                /* \"#utility.yul\":2372:2539   */\n              pop\n              jump\t// out\n                /* \"#utility.yul\":2545:2667   */\n            tag_21:\n                /* \"#utility.yul\":2618:2642   */\n              tag_53\n                /* \"#utility.yul\":2636:2641   */\n              dup2\n                /* \"#utility.yul\":2618:2642   */\n              tag_30\n              jump\t// in\n            tag_53:\n                /* \"#utility.yul\":2611:2616   */\n              dup2\n                /* \"#utility.yul\":2608:2643   */\n              eq\n                /* \"#utility.yul\":2598:2661   */\n              tag_54\n              jumpi\n                /* \"#utility.yul\":2657:2658   */\n              0x00\n                /* \"#utility.yul\":2654:2655   */\n              dup1\n                /* \"#utility.yul\":2647:2659   */\n              revert\n                /* \"#utility.yul\":2598:2661   */\n            tag_54:\n                /* \"#utility.yul\":2545:2667   */\n              pop\n              jump\t// out\n\n            auxdata: 0xa2646970667358221220a226285c87f9934b0968ddd18f460ff9c9f642b771926fc72069b7c832876f3864736f6c63430008070033\n        }\n    }\n\n    auxdata: 0xa264697066735822122053bd249b23046fc274e247ed48a63dca60f3b900fbc3003d904f428dbe76bc0264736f6c63430008070033\n}\n",
				"bytecode": {
					"linkReferences": {},
					"object": "608060405234801561001057600080fd5b50610595806100206000396000f3fe608060405234801561001057600080fd5b506004361061002a5760003560e01c80627743601461002f575b600080fd5b610049600480360381019061004491906100f5565b61004b565b005b60405161005790610078565b604051809103906000f080158015610073573d6000803e3d6000fd5b505050565b6103378061022983390190565b600061009861009384610163565b61013e565b9050828152602081018484840111156100b4576100b3610208565b5b6100bf848285610194565b509392505050565b600082601f8301126100dc576100db610203565b5b81356100ec848260208601610085565b91505092915050565b60006020828403121561010b5761010a610212565b5b600082013567ffffffffffffffff8111156101295761012861020d565b5b610135848285016100c7565b91505092915050565b6000610148610159565b905061015482826101a3565b919050565b6000604051905090565b600067ffffffffffffffff82111561017e5761017d6101d4565b5b61018782610217565b9050602081019050919050565b82818337600083830152505050565b6101ac82610217565b810181811067ffffffffffffffff821117156101cb576101ca6101d4565b5b80604052505050565b7f4e487b7100000000000000000000000000000000000000000000000000000000600052604160045260246000fd5b600080fd5b600080fd5b600080fd5b600080fd5b6000601f19601f830116905091905056fe6080604052336000806101000a81548173ffffffffffffffffffffffffffffffffffffffff021916908373ffffffffffffffffffffffffffffffffffffffff16021790555034801561005057600080fd5b506102d7806100606000396000f3fe608060405234801561001057600080fd5b50600436106100365760003560e01c806313af40351461003b5780638da5cb5b14610057575b600080fd5b6100556004803603810190610050919061017f565b610075565b005b61005f610146565b60405161006c91906101de565b60405180910390f35b60008054906101000a900473ffffffffffffffffffffffffffffffffffffffff1673ffffffffffffffffffffffffffffffffffffffff163373ffffffffffffffffffffffffffffffffffffffff1614610103576040517f08c379a00000000000000000000000000000000000000000000000000000000081526004016100fa906101f9565b60405180910390fd5b806000806101000a81548173ffffffffffffffffffffffffffffffffffffffff021916908373ffffffffffffffffffffffffffffffffffffffff16021790555050565b60008054906101000a900473ffffffffffffffffffffffffffffffffffffffff1681565b6000813590506101798161028a565b92915050565b6000602082840312156101955761019461025c565b5b60006101a38482850161016a565b91505092915050565b6101b58161022a565b82525050565b60006101c8601183610219565b91506101d382610261565b602082019050919050565b60006020820190506101f360008301846101ac565b92915050565b60006020820190508181036000830152610212816101bb565b9050919050565b600082825260208201905092915050565b60006102358261023c565b9050919050565b600073ffffffffffffffffffffffffffffffffffffffff82169050919050565b600080fd5b7f63616e74206e6f74207573652074686973000000000000000000000000000000600082015250565b6102938161022a565b811461029e57600080fd5b5056fea2646970667358221220a226285c87f9934b0968ddd18f460ff9c9f642b771926fc72069b7c832876f3864736f6c63430008070033a264697066735822122053bd249b23046fc274e247ed48a63dca60f3b900fbc3003d904f428dbe76bc0264736f6c63430008070033",
					"opcodes": "PUSH1 0x80 PUSH1 0x40 MSTORE CALLVALUE DUP1 ISZERO PUSH2 0x10 JUMPI PUSH1 0x0 DUP1 REVERT JUMPDEST POP PUSH2 0x595 DUP1 PUSH2 0x20 PUSH1 0x0 CODECOPY PUSH1 0x0 RETURN INVALID PUSH1 0x80 PUSH1 0x40 MSTORE CALLVALUE DUP1 ISZERO PUSH2 0x10 JUMPI PUSH1 0x0 DUP1 REVERT JUMPDEST POP PUSH1 0x4 CALLDATASIZE LT PUSH2 0x2A JUMPI PUSH1 0x0 CALLDATALOAD PUSH1 0xE0 SHR DUP1 PUSH3 0x774360 EQ PUSH2 0x2F JUMPI JUMPDEST PUSH1 0x0 DUP1 REVERT JUMPDEST PUSH2 0x49 PUSH1 0x4 DUP1 CALLDATASIZE SUB DUP2 ADD SWAP1 PUSH2 0x44 SWAP2 SWAP1 PUSH2 0xF5 JUMP JUMPDEST PUSH2 0x4B JUMP JUMPDEST STOP JUMPDEST PUSH1 0x40 MLOAD PUSH2 0x57 SWAP1 PUSH2 0x78 JUMP JUMPDEST PUSH1 0x40 MLOAD DUP1 SWAP2 SUB SWAP1 PUSH1 0x0 CREATE DUP1 ISZERO DUP1 ISZERO PUSH2 0x73 JUMPI RETURNDATASIZE PUSH1 0x0 DUP1 RETURNDATACOPY RETURNDATASIZE PUSH1 0x0 REVERT JUMPDEST POP POP POP JUMP JUMPDEST PUSH2 0x337 DUP1 PUSH2 0x229 DUP4 CODECOPY ADD SWAP1 JUMP JUMPDEST PUSH1 0x0 PUSH2 0x98 PUSH2 0x93 DUP5 PUSH2 0x163 JUMP JUMPDEST PUSH2 0x13E JUMP JUMPDEST SWAP1 POP DUP3 DUP2 MSTORE PUSH1 0x20 DUP2 ADD DUP5 DUP5 DUP5 ADD GT ISZERO PUSH2 0xB4 JUMPI PUSH2 0xB3 PUSH2 0x208 JUMP JUMPDEST JUMPDEST PUSH2 0xBF DUP5 DUP3 DUP6 PUSH2 0x194 JUMP JUMPDEST POP SWAP4 SWAP3 POP POP POP JUMP JUMPDEST PUSH1 0x0 DUP3 PUSH1 0x1F DUP4 ADD SLT PUSH2 0xDC JUMPI PUSH2 0xDB PUSH2 0x203 JUMP JUMPDEST JUMPDEST DUP2 CALLDATALOAD PUSH2 0xEC DUP5 DUP3 PUSH1 0x20 DUP7 ADD PUSH2 0x85 JUMP JUMPDEST SWAP2 POP POP SWAP3 SWAP2 POP POP JUMP JUMPDEST PUSH1 0x0 PUSH1 0x20 DUP3 DUP5 SUB SLT ISZERO PUSH2 0x10B JUMPI PUSH2 0x10A PUSH2 0x212 JUMP JUMPDEST JUMPDEST PUSH1 0x0 DUP3 ADD CALLDATALOAD PUSH8 0xFFFFFFFFFFFFFFFF DUP2 GT ISZERO PUSH2 0x129 JUMPI PUSH2 0x128 PUSH2 0x20D JUMP JUMPDEST JUMPDEST PUSH2 0x135 DUP5 DUP3 DUP6 ADD PUSH2 0xC7 JUMP JUMPDEST SWAP2 POP POP SWAP3 SWAP2 POP POP JUMP JUMPDEST PUSH1 0x0 PUSH2 0x148 PUSH2 0x159 JUMP JUMPDEST SWAP1 POP PUSH2 0x154 DUP3 DUP3 PUSH2 0x1A3 JUMP JUMPDEST SWAP2 SWAP1 POP JUMP JUMPDEST PUSH1 0x0 PUSH1 0x40 MLOAD SWAP1 POP SWAP1 JUMP JUMPDEST PUSH1 0x0 PUSH8 0xFFFFFFFFFFFFFFFF DUP3 GT ISZERO PUSH2 0x17E JUMPI PUSH2 0x17D PUSH2 0x1D4 JUMP JUMPDEST JUMPDEST PUSH2 0x187 DUP3 PUSH2 0x217 JUMP JUMPDEST SWAP1 POP PUSH1 0x20 DUP2 ADD SWAP1 POP SWAP2 SWAP1 POP JUMP JUMPDEST DUP3 DUP2 DUP4 CALLDATACOPY PUSH1 0x0 DUP4 DUP4 ADD MSTORE POP POP POP JUMP JUMPDEST PUSH2 0x1AC DUP3 PUSH2 0x217 JUMP JUMPDEST DUP2 ADD DUP2 DUP2 LT PUSH8 0xFFFFFFFFFFFFFFFF DUP3 GT OR ISZERO PUSH2 0x1CB JUMPI PUSH2 0x1CA PUSH2 0x1D4 JUMP JUMPDEST JUMPDEST DUP1 PUSH1 0x40 MSTORE POP POP POP JUMP JUMPDEST PUSH32 0x4E487B7100000000000000000000000000000000000000000000000000000000 PUSH1 0x0 MSTORE PUSH1 0x41 PUSH1 0x4 MSTORE PUSH1 0x24 PUSH1 0x0 REVERT JUMPDEST PUSH1 0x0 DUP1 REVERT JUMPDEST PUSH1 0x0 DUP1 REVERT JUMPDEST PUSH1 0x0 DUP1 REVERT JUMPDEST PUSH1 0x0 DUP1 REVERT JUMPDEST PUSH1 0x0 PUSH1 0x1F NOT PUSH1 0x1F DUP4 ADD AND SWAP1 POP SWAP2 SWAP1 POP JUMP INVALID PUSH1 0x80 PUSH1 0x40 MSTORE CALLER PUSH1 0x0 DUP1 PUSH2 0x100 EXP DUP2 SLOAD DUP2 PUSH20 0xFFFFFFFFFFFFFFFFFFFFFFFFFFFFFFFFFFFFFFFF MUL NOT AND SWAP1 DUP4 PUSH20 0xFFFFFFFFFFFFFFFFFFFFFFFFFFFFFFFFFFFFFFFF AND MUL OR SWAP1 SSTORE POP CALLVALUE DUP1 ISZERO PUSH2 0x50 JUMPI PUSH1 0x0 DUP1 REVERT JUMPDEST POP PUSH2 0x2D7 DUP1 PUSH2 0x60 PUSH1 0x0 CODECOPY PUSH1 0x0 RETURN INVALID PUSH1 0x80 PUSH1 0x40 MSTORE CALLVALUE DUP1 ISZERO PUSH2 0x10 JUMPI PUSH1 0x0 DUP1 REVERT JUMPDEST POP PUSH1 0x4 CALLDATASIZE LT PUSH2 0x36 JUMPI PUSH1 0x0 CALLDATALOAD PUSH1 0xE0 SHR DUP1 PUSH4 0x13AF4035 EQ PUSH2 0x3B JUMPI DUP1 PUSH4 0x8DA5CB5B EQ PUSH2 0x57 JUMPI JUMPDEST PUSH1 0x0 DUP1 REVERT JUMPDEST PUSH2 0x55 PUSH1 0x4 DUP1 CALLDATASIZE SUB DUP2 ADD SWAP1 PUSH2 0x50 SWAP2 SWAP1 PUSH2 0x17F JUMP JUMPDEST PUSH2 0x75 JUMP JUMPDEST STOP JUMPDEST PUSH2 0x5F PUSH2 0x146 JUMP JUMPDEST PUSH1 0x40 MLOAD PUSH2 0x6C SWAP2 SWAP1 PUSH2 0x1DE JUMP JUMPDEST PUSH1 0x40 MLOAD DUP1 SWAP2 SUB SWAP1 RETURN JUMPDEST PUSH1 0x0 DUP1 SLOAD SWAP1 PUSH2 0x100 EXP SWAP1 DIV PUSH20 0xFFFFFFFFFFFFFFFFFFFFFFFFFFFFFFFFFFFFFFFF AND PUSH20 0xFFFFFFFFFFFFFFFFFFFFFFFFFFFFFFFFFFFFFFFF AND CALLER PUSH20 0xFFFFFFFFFFFFFFFFFFFFFFFFFFFFFFFFFFFFFFFF AND EQ PUSH2 0x103 JUMPI PUSH1 0x40 MLOAD PUSH32 0x8C379A000000000000000000000000000000000000000000000000000000000 DUP2 MSTORE PUSH1 0x4 ADD PUSH2 0xFA SWAP1 PUSH2 0x1F9 JUMP JUMPDEST PUSH1 0x40 MLOAD DUP1 SWAP2 SUB SWAP1 REVERT JUMPDEST DUP1 PUSH1 0x0 DUP1 PUSH2 0x100 EXP DUP2 SLOAD DUP2 PUSH20 0xFFFFFFFFFFFFFFFFFFFFFFFFFFFFFFFFFFFFFFFF MUL NOT AND SWAP1 DUP4 PUSH20 0xFFFFFFFFFFFFFFFFFFFFFFFFFFFFFFFFFFFFFFFF AND MUL OR SWAP1 SSTORE POP POP JUMP JUMPDEST PUSH1 0x0 DUP1 SLOAD SWAP1 PUSH2 0x100 EXP SWAP1 DIV PUSH20 0xFFFFFFFFFFFFFFFFFFFFFFFFFFFFFFFFFFFFFFFF AND DUP2 JUMP JUMPDEST PUSH1 0x0 DUP2 CALLDATALOAD SWAP1 POP PUSH2 0x179 DUP2 PUSH2 0x28A JUMP JUMPDEST SWAP3 SWAP2 POP POP JUMP JUMPDEST PUSH1 0x0 PUSH1 0x20 DUP3 DUP5 SUB SLT ISZERO PUSH2 0x195 JUMPI PUSH2 0x194 PUSH2 0x25C JUMP JUMPDEST JUMPDEST PUSH1 0x0 PUSH2 0x1A3 DUP5 DUP3 DUP6 ADD PUSH2 0x16A JUMP JUMPDEST SWAP2 POP POP SWAP3 SWAP2 POP POP JUMP JUMPDEST PUSH2 0x1B5 DUP2 PUSH2 0x22A JUMP JUMPDEST DUP3 MSTORE POP POP JUMP JUMPDEST PUSH1 0x0 PUSH2 0x1C8 PUSH1 0x11 DUP4 PUSH2 0x219 JUMP JUMPDEST SWAP2 POP PUSH2 0x1D3 DUP3 PUSH2 0x261 JUMP JUMPDEST PUSH1 0x20 DUP3 ADD SWAP1 POP SWAP2 SWAP1 POP JUMP JUMPDEST PUSH1 0x0 PUSH1 0x20 DUP3 ADD SWAP1 POP PUSH2 0x1F3 PUSH1 0x0 DUP4 ADD DUP5 PUSH2 0x1AC JUMP JUMPDEST SWAP3 SWAP2 POP POP JUMP JUMPDEST PUSH1 0x0 PUSH1 0x20 DUP3 ADD SWAP1 POP DUP2 DUP2 SUB PUSH1 0x0 DUP4 ADD MSTORE PUSH2 0x212 DUP2 PUSH2 0x1BB JUMP JUMPDEST SWAP1 POP SWAP2 SWAP1 POP JUMP JUMPDEST PUSH1 0x0 DUP3 DUP3 MSTORE PUSH1 0x20 DUP3 ADD SWAP1 POP SWAP3 SWAP2 POP POP JUMP JUMPDEST PUSH1 0x0 PUSH2 0x235 DUP3 PUSH2 0x23C JUMP JUMPDEST SWAP1 POP SWAP2 SWAP1 POP JUMP JUMPDEST PUSH1 0x0 PUSH20 0xFFFFFFFFFFFFFFFFFFFFFFFFFFFFFFFFFFFFFFFF DUP3 AND SWAP1 POP SWAP2 SWAP1 POP JUMP JUMPDEST PUSH1 0x0 DUP1 REVERT JUMPDEST PUSH32 0x63616E74206E6F74207573652074686973000000000000000000000000000000 PUSH1 0x0 DUP3 ADD MSTORE POP JUMP JUMPDEST PUSH2 0x293 DUP2 PUSH2 0x22A JUMP JUMPDEST DUP2 EQ PUSH2 0x29E JUMPI PUSH1 0x0 DUP1 REVERT JUMPDEST POP JUMP INVALID LOG2 PUSH5 0x6970667358 0x22 SLT KECCAK256 LOG2 0x26 0x28 0x5C DUP8 0xF9 SWAP4 0x4B MULMOD PUSH9 0xDDD18F460FF9C9F642 0xB7 PUSH18 0x926FC72069B7C832876F3864736F6C634300 ADDMOD SMOD STOP CALLER LOG2 PUSH5 0x6970667358 0x22 SLT KECCAK256 MSTORE8 0xBD 0x24 SWAP12 0x23 DIV PUSH16 0xC274E247ED48A63DCA60F3B900FBC300 RETURNDATASIZE SWAP1 0x4F TIMESTAMP DUP14 0xBE PUSH23 0xBC0264736F6C6343000807003300000000000000000000 "
				},
				"gasEstimates": {
					"creation": {
						"codeDepositCost": "285800",
						"executionCost": "324",
						"totalCost": "286124"
					},
					"external": {
						"deploy(bytes)": "infinite"
					}
				},
				"methodIdentifiers": {
					"deploy(bytes)": "00774360"
				}
			},
			"storageLayout": {
				"storage": [],
				"types": null
			},
			"userdoc": {
				"kind": "user",
				"methods": {},
				"version": 1
			}
		}
	}
}