{
	"code9/1deploy.sol": {
		"Proxy": {
			"abi": [
				{
					"inputs": [
						{
							"internalType": "bytes",
							"name": "_code",
							"type": "bytes"
						}
					],
					"name": "deploy",
					"outputs": [],
					"stateMutability": "nonpayable",
					"type": "function"
				}
			],
			"devdoc": {
				"kind": "dev",
				"methods": {},
				"version": 1
			},
			"evm": {
				"assembly": "    /* \"code9/1deploy.sol\":171:238  contract Proxy{... */\n  mstore(0x40, 0x80)\n  callvalue\n  dup1\n  iszero\n  tag_1\n  jumpi\n  0x00\n  dup1\n  revert\ntag_1:\n  pop\n  dataSize(sub_0)\n  dup1\n  dataOffset(sub_0)\n  0x00\n  codecopy\n  0x00\n  return\nstop\n\nsub_0: assembly {\n        /* \"code9/1deploy.sol\":171:238  contract Proxy{... */\n      mstore(0x40, 0x80)\n      callvalue\n      dup1\n      iszero\n      tag_1\n      jumpi\n      0x00\n      dup1\n      revert\n    tag_1:\n      pop\n      jumpi(tag_2, lt(calldatasize, 0x04))\n      shr(0xe0, calldataload(0x00))\n      dup1\n      0x774360\n      eq\n      tag_3\n      jumpi\n    tag_2:\n      0x00\n      dup1\n      revert\n        /* \"code9/1deploy.sol\":191:236  function deploy(bytes memory _code)external{} */\n    tag_3:\n      tag_4\n      0x04\n      dup1\n      calldatasize\n      sub\n      dup2\n      add\n      swap1\n      tag_5\n      swap2\n      swap1\n      tag_6\n      jump\t// in\n    tag_5:\n      tag_7\n      jump\t// in\n    tag_4:\n      stop\n    tag_7:\n      pop\n      jump\t// out\n        /* \"#utility.yul\":7:417   */\n    tag_10:\n        /* \"#utility.yul\":84:89   */\n      0x00\n        /* \"#utility.yul\":109:174   */\n      tag_12\n        /* \"#utility.yul\":125:173   */\n      tag_13\n        /* \"#utility.yul\":166:172   */\n      dup5\n        /* \"#utility.yul\":125:173   */\n      tag_14\n      jump\t// in\n    tag_13:\n        /* \"#utility.yul\":109:174   */\n      tag_15\n      jump\t// in\n    tag_12:\n        /* \"#utility.yul\":100:174   */\n      swap1\n      pop\n        /* \"#utility.yul\":197:203   */\n      dup3\n        /* \"#utility.yul\":190:195   */\n      dup2\n        /* \"#utility.yul\":183:204   */\n      mstore\n        /* \"#utility.yul\":235:239   */\n      0x20\n        /* \"#utility.yul\":228:233   */\n      dup2\n        /* \"#utility.yul\":224:240   */\n      add\n        /* \"#utility.yul\":273:276   */\n      dup5\n        /* \"#utility.yul\":264:270   */\n      dup5\n        /* \"#utility.yul\":259:262   */\n      dup5\n        /* \"#utility.yul\":255:271   */\n      add\n        /* \"#utility.yul\":252:277   */\n      gt\n        /* \"#utility.yul\":249:361   */\n      iszero\n      tag_16\n      jumpi\n        /* \"#utility.yul\":280:359   */\n      tag_17\n      tag_18\n      jump\t// in\n    tag_17:\n        /* \"#utility.yul\":249:361   */\n    tag_16:\n        /* \"#utility.yul\":370:411   */\n      tag_19\n        /* \"#utility.yul\":404:410   */\n      dup5\n        /* \"#utility.yul\":399:402   */\n      dup3\n        /* \"#utility.yul\":394:397   */\n      dup6\n        /* \"#utility.yul\":370:411   */\n      tag_20\n      jump\t// in\n    tag_19:\n        /* \"#utility.yul\":90:417   */\n      pop\n        /* \"#utility.yul\":7:417   */\n      swap4\n      swap3\n      pop\n      pop\n      pop\n      jump\t// out\n        /* \"#utility.yul\":436:774   */\n    tag_21:\n        /* \"#utility.yul\":491:496   */\n      0x00\n        /* \"#utility.yul\":540:543   */\n      dup3\n        /* \"#utility.yul\":533:537   */\n      0x1f\n        /* \"#utility.yul\":525:531   */\n      dup4\n        /* \"#utility.yul\":521:538   */\n      add\n        /* \"#utility.yul\":517:544   */\n      slt\n        /* \"#utility.yul\":507:629   */\n      tag_23\n      jumpi\n        /* \"#utility.yul\":548:627   */\n      tag_24\n      tag_25\n      jump\t// in\n    tag_24:\n        /* \"#utility.yul\":507:629   */\n    tag_23:\n        /* \"#utility.yul\":665:671   */\n      dup2\n        /* \"#utility.yul\":652:672   */\n      calldataload\n        /* \"#utility.yul\":690:768   */\n      tag_26\n        /* \"#utility.yul\":764:767   */\n      dup5\n        /* \"#utility.yul\":756:762   */\n      dup3\n        /* \"#utility.yul\":749:753   */\n      0x20\n        /* \"#utility.yul\":741:747   */\n      dup7\n        /* \"#utility.yul\":737:754   */\n      add\n        /* \"#utility.yul\":690:768   */\n      tag_10\n      jump\t// in\n    tag_26:\n        /* \"#utility.yul\":681:768   */\n      swap2\n      pop\n        /* \"#utility.yul\":497:774   */\n      pop\n        /* \"#utility.yul\":436:774   */\n      swap3\n      swap2\n      pop\n      pop\n      jump\t// out\n        /* \"#utility.yul\":780:1287   */\n    tag_6:\n        /* \"#utility.yul\":848:854   */\n      0x00\n        /* \"#utility.yul\":897:899   */\n      0x20\n        /* \"#utility.yul\":885:894   */\n      dup3\n        /* \"#utility.yul\":876:883   */\n      dup5\n        /* \"#utility.yul\":872:895   */\n      sub\n        /* \"#utility.yul\":868:900   */\n      slt\n        /* \"#utility.yul\":865:984   */\n      iszero\n      tag_28\n      jumpi\n        /* \"#utility.yul\":903:982   */\n      tag_29\n      tag_30\n      jump\t// in\n    tag_29:\n        /* \"#utility.yul\":865:984   */\n    tag_28:\n        /* \"#utility.yul\":1051:1052   */\n      0x00\n        /* \"#utility.yul\":1040:1049   */\n      dup3\n        /* \"#utility.yul\":1036:1053   */\n      add\n        /* \"#utility.yul\":1023:1054   */\n      calldataload\n        /* \"#utility.yul\":1081:1099   */\n      0xffffffffffffffff\n        /* \"#utility.yul\":1073:1079   */\n      dup2\n        /* \"#utility.yul\":1070:1100   */\n      gt\n        /* \"#utility.yul\":1067:1184   */\n      iszero\n      tag_31\n      jumpi\n        /* \"#utility.yul\":1103:1182   */\n      tag_32\n      tag_33\n      jump\t// in\n    tag_32:\n        /* \"#utility.yul\":1067:1184   */\n    tag_31:\n        /* \"#utility.yul\":1208:1270   */\n      tag_34\n        /* \"#utility.yul\":1262:1269   */\n      dup5\n        /* \"#utility.yul\":1253:1259   */\n      dup3\n        /* \"#utility.yul\":1242:1251   */\n      dup6\n        /* \"#utility.yul\":1238:1260   */\n      add\n        /* \"#utility.yul\":1208:1270   */\n      tag_21\n      jump\t// in\n    tag_34:\n        /* \"#utility.yul\":1198:1270   */\n      swap2\n      pop\n        /* \"#utility.yul\":994:1280   */\n      pop\n        /* \"#utility.yul\":780:1287   */\n      swap3\n      swap2\n      pop\n      pop\n      jump\t// out\n        /* \"#utility.yul\":1293:1422   */\n    tag_15:\n        /* \"#utility.yul\":1327:1333   */\n      0x00\n        /* \"#utility.yul\":1354:1374   */\n      tag_36\n      tag_37\n      jump\t// in\n    tag_36:\n        /* \"#utility.yul\":1344:1374   */\n      swap1\n      pop\n        /* \"#utility.yul\":1383:1416   */\n      tag_38\n        /* \"#utility.yul\":1411:1415   */\n      dup3\n        /* \"#utility.yul\":1403:1409   */\n      dup3\n        /* \"#utility.yul\":1383:1416   */\n      tag_39\n      jump\t// in\n    tag_38:\n        /* \"#utility.yul\":1293:1422   */\n      swap2\n      swap1\n      pop\n      jump\t// out\n        /* \"#utility.yul\":1428:1503   */\n    tag_37:\n        /* \"#utility.yul\":1461:1467   */\n      0x00\n        /* \"#utility.yul\":1494:1496   */\n      0x40\n        /* \"#utility.yul\":1488:1497   */\n      mload\n        /* \"#utility.yul\":1478:1497   */\n      swap1\n      pop\n        /* \"#utility.yul\":1428:1503   */\n      swap1\n      jump\t// out\n        /* \"#utility.yul\":1509:1816   */\n    tag_14:\n        /* \"#utility.yul\":1570:1574   */\n      0x00\n        /* \"#utility.yul\":1660:1678   */\n      0xffffffffffffffff\n        /* \"#utility.yul\":1652:1658   */\n      dup3\n        /* \"#utility.yul\":1649:1679   */\n      gt\n        /* \"#utility.yul\":1646:1702   */\n      iszero\n      tag_42\n      jumpi\n        /* \"#utility.yul\":1682:1700   */\n      tag_43\n      tag_44\n      jump\t// in\n    tag_43:\n        /* \"#utility.yul\":1646:1702   */\n    tag_42:\n        /* \"#utility.yul\":1720:1749   */\n      tag_45\n        /* \"#utility.yul\":1742:1748   */\n      dup3\n        /* \"#utility.yul\":1720:1749   */\n      tag_46\n      jump\t// in\n    tag_45:\n        /* \"#utility.yul\":1712:1749   */\n      swap1\n      pop\n        /* \"#utility.yul\":1804:1808   */\n      0x20\n        /* \"#utility.yul\":1798:1802   */\n      dup2\n        /* \"#utility.yul\":1794:1809   */\n      add\n        /* \"#utility.yul\":1786:1809   */\n      swap1\n      pop\n        /* \"#utility.yul\":1509:1816   */\n      swap2\n      swap1\n      pop\n      jump\t// out\n        /* \"#utility.yul\":1822:1976   */\n    tag_20:\n        /* \"#utility.yul\":1906:1912   */\n      dup3\n        /* \"#utility.yul\":1901:1904   */\n      dup2\n        /* \"#utility.yul\":1896:1899   */\n      dup4\n        /* \"#utility.yul\":1883:1913   */\n      calldatacopy\n        /* \"#utility.yul\":1968:1969   */\n      0x00\n        /* \"#utility.yul\":1959:1965   */\n      dup4\n        /* \"#utility.yul\":1954:1957   */\n      dup4\n        /* \"#utility.yul\":1950:1966   */\n      add\n        /* \"#utility.yul\":1943:1970   */\n      mstore\n        /* \"#utility.yul\":1822:1976   */\n      pop\n      pop\n      pop\n      jump\t// out\n        /* \"#utility.yul\":1982:2263   */\n    tag_39:\n        /* \"#utility.yul\":2065:2092   */\n      tag_49\n        /* \"#utility.yul\":2087:2091   */\n      dup3\n        /* \"#utility.yul\":2065:2092   */\n      tag_46\n      jump\t// in\n    tag_49:\n        /* \"#utility.yul\":2057:2063   */\n      dup2\n        /* \"#utility.yul\":2053:2093   */\n      add\n        /* \"#utility.yul\":2195:2201   */\n      dup2\n        /* \"#utility.yul\":2183:2193   */\n      dup2\n        /* \"#utility.yul\":2180:2202   */\n      lt\n        /* \"#utility.yul\":2159:2177   */\n      0xffffffffffffffff\n        /* \"#utility.yul\":2147:2157   */\n      dup3\n        /* \"#utility.yul\":2144:2178   */\n      gt\n        /* \"#utility.yul\":2141:2203   */\n      or\n        /* \"#utility.yul\":2138:2226   */\n      iszero\n      tag_50\n      jumpi\n        /* \"#utility.yul\":2206:2224   */\n      tag_51\n      tag_44\n      jump\t// in\n    tag_51:\n        /* \"#utility.yul\":2138:2226   */\n    tag_50:\n        /* \"#utility.yul\":2246:2256   */\n      dup1\n        /* \"#utility.yul\":2242:2244   */\n      0x40\n        /* \"#utility.yul\":2235:2257   */\n      mstore\n        /* \"#utility.yul\":2025:2263   */\n      pop\n        /* \"#utility.yul\":1982:2263   */\n      pop\n      pop\n      jump\t// out\n        /* \"#utility.yul\":2269:2449   */\n    tag_44:\n        /* \"#utility.yul\":2317:2394   */\n      0x4e487b7100000000000000000000000000000000000000000000000000000000\n        /* \"#utility.yul\":2314:2315   */\n      0x00\n        /* \"#utility.yul\":2307:2395   */\n      mstore\n        /* \"#utility.yul\":2414:2418   */\n      0x41\n        /* \"#utility.yul\":2411:2412   */\n      0x04\n        /* \"#utility.yul\":2404:2419   */\n      mstore\n        /* \"#utility.yul\":2438:2442   */\n      0x24\n        /* \"#utility.yul\":2435:2436   */\n      0x00\n        /* \"#utility.yul\":2428:2443   */\n      revert\n        /* \"#utility.yul\":2455:2572   */\n    tag_25:\n        /* \"#utility.yul\":2564:2565   */\n      0x00\n        /* \"#utility.yul\":2561:2562   */\n      dup1\n        /* \"#utility.yul\":2554:2566   */\n      revert\n        /* \"#utility.yul\":2578:2695   */\n    tag_18:\n        /* \"#utility.yul\":2687:2688   */\n      0x00\n        /* \"#utility.yul\":2684:2685   */\n      dup1\n        /* \"#utility.yul\":2677:2689   */\n      revert\n        /* \"#utility.yul\":2701:2818   */\n    tag_33:\n        /* \"#utility.yul\":2810:2811   */\n      0x00\n        /* \"#utility.yul\":2807:2808   */\n      dup1\n        /* \"#utility.yul\":2800:2812   */\n      revert\n        /* \"#utility.yul\":2824:2941   */\n    tag_30:\n        /* \"#utility.yul\":2933:2934   */\n      0x00\n        /* \"#utility.yul\":2930:2931   */\n      dup1\n        /* \"#utility.yul\":2923:2935   */\n      revert\n        /* \"#utility.yul\":2947:3049   */\n    tag_46:\n        /* \"#utility.yul\":2988:2994   */\n      0x00\n        /* \"#utility.yul\":3039:3041   */\n      0x1f\n        /* \"#utility.yul\":3035:3042   */\n      not\n        /* \"#utility.yul\":3030:3032   */\n      0x1f\n        /* \"#utility.yul\":3023:3028   */\n      dup4\n        /* \"#utility.yul\":3019:3033   */\n      add\n        /* \"#utility.yul\":3015:3043   */\n      and\n        /* \"#utility.yul\":3005:3043   */\n      swap1\n      pop\n        /* \"#utility.yul\":2947:3049   */\n      swap2\n      swap1\n      pop\n      jump\t// out\n\n    auxdata: 0xa2646970667358221220db419146c1fc498ecdf3ca21bab7e43afde41341df898af536600a4d452235ce64736f6c63430008070033\n}\n",
				"bytecode": {
					"linkReferences": {},
					"object": "608060405234801561001057600080fd5b50610227806100206000396000f3fe608060405234801561001057600080fd5b506004361061002a5760003560e01c80627743601461002f575b600080fd5b610049600480360381019061004491906100be565b61004b565b005b50565b600061006161005c8461012c565b610107565b90508281526020810184848401111561007d5761007c6101d1565b5b61008884828561015d565b509392505050565b600082601f8301126100a5576100a46101cc565b5b81356100b584826020860161004e565b91505092915050565b6000602082840312156100d4576100d36101db565b5b600082013567ffffffffffffffff8111156100f2576100f16101d6565b5b6100fe84828501610090565b91505092915050565b6000610111610122565b905061011d828261016c565b919050565b6000604051905090565b600067ffffffffffffffff8211156101475761014661019d565b5b610150826101e0565b9050602081019050919050565b82818337600083830152505050565b610175826101e0565b810181811067ffffffffffffffff821117156101945761019361019d565b5b80604052505050565b7f4e487b7100000000000000000000000000000000000000000000000000000000600052604160045260246000fd5b600080fd5b600080fd5b600080fd5b600080fd5b6000601f19601f830116905091905056fea2646970667358221220db419146c1fc498ecdf3ca21bab7e43afde41341df898af536600a4d452235ce64736f6c63430008070033",
					"opcodes": "PUSH1 0x80 PUSH1 0x40 MSTORE CALLVALUE DUP1 ISZERO PUSH2 0x10 JUMPI PUSH1 0x0 DUP1 REVERT JUMPDEST POP PUSH2 0x227 DUP1 PUSH2 0x20 PUSH1 0x0 CODECOPY PUSH1 0x0 RETURN INVALID PUSH1 0x80 PUSH1 0x40 MSTORE CALLVALUE DUP1 ISZERO PUSH2 0x10 JUMPI PUSH1 0x0 DUP1 REVERT JUMPDEST POP PUSH1 0x4 CALLDATASIZE LT PUSH2 0x2A JUMPI PUSH1 0x0 CALLDATALOAD PUSH1 0xE0 SHR DUP1 PUSH3 0x774360 EQ PUSH2 0x2F JUMPI JUMPDEST PUSH1 0x0 DUP1 REVERT JUMPDEST PUSH2 0x49 PUSH1 0x4 DUP1 CALLDATASIZE SUB DUP2 ADD SWAP1 PUSH2 0x44 SWAP2 SWAP1 PUSH2 0xBE JUMP JUMPDEST PUSH2 0x4B JUMP JUMPDEST STOP JUMPDEST POP JUMP JUMPDEST PUSH1 0x0 PUSH2 0x61 PUSH2 0x5C DUP5 PUSH2 0x12C JUMP JUMPDEST PUSH2 0x107 JUMP JUMPDEST SWAP1 POP DUP3 DUP2 MSTORE PUSH1 0x20 DUP2 ADD DUP5 DUP5 DUP5 ADD GT ISZERO PUSH2 0x7D JUMPI PUSH2 0x7C PUSH2 0x1D1 JUMP JUMPDEST JUMPDEST PUSH2 0x88 DUP5 DUP3 DUP6 PUSH2 0x15D JUMP JUMPDEST POP SWAP4 SWAP3 POP POP POP JUMP JUMPDEST PUSH1 0x0 DUP3 PUSH1 0x1F DUP4 ADD SLT PUSH2 0xA5 JUMPI PUSH2 0xA4 PUSH2 0x1CC JUMP JUMPDEST JUMPDEST DUP2 CALLDATALOAD PUSH2 0xB5 DUP5 DUP3 PUSH1 0x20 DUP7 ADD PUSH2 0x4E JUMP JUMPDEST SWAP2 POP POP SWAP3 SWAP2 POP POP JUMP JUMPDEST PUSH1 0x0 PUSH1 0x20 DUP3 DUP5 SUB SLT ISZERO PUSH2 0xD4 JUMPI PUSH2 0xD3 PUSH2 0x1DB JUMP JUMPDEST JUMPDEST PUSH1 0x0 DUP3 ADD CALLDATALOAD PUSH8 0xFFFFFFFFFFFFFFFF DUP2 GT ISZERO PUSH2 0xF2 JUMPI PUSH2 0xF1 PUSH2 0x1D6 JUMP JUMPDEST JUMPDEST PUSH2 0xFE DUP5 DUP3 DUP6 ADD PUSH2 0x90 JUMP JUMPDEST SWAP2 POP POP SWAP3 SWAP2 POP POP JUMP JUMPDEST PUSH1 0x0 PUSH2 0x111 PUSH2 0x122 JUMP JUMPDEST SWAP1 POP PUSH2 0x11D DUP3 DUP3 PUSH2 0x16C JUMP JUMPDEST SWAP2 SWAP1 POP JUMP JUMPDEST PUSH1 0x0 PUSH1 0x40 MLOAD SWAP1 POP SWAP1 JUMP JUMPDEST PUSH1 0x0 PUSH8 0xFFFFFFFFFFFFFFFF DUP3 GT ISZERO PUSH2 0x147 JUMPI PUSH2 0x146 PUSH2 0x19D JUMP JUMPDEST JUMPDEST PUSH2 0x150 DUP3 PUSH2 0x1E0 JUMP JUMPDEST SWAP1 POP PUSH1 0x20 DUP2 ADD SWAP1 POP SWAP2 SWAP1 POP JUMP JUMPDEST DUP3 DUP2 DUP4 CALLDATACOPY PUSH1 0x0 DUP4 DUP4 ADD MSTORE POP POP POP JUMP JUMPDEST PUSH2 0x175 DUP3 PUSH2 0x1E0 JUMP JUMPDEST DUP2 ADD DUP2 DUP2 LT PUSH8 0xFFFFFFFFFFFFFFFF DUP3 GT OR ISZERO PUSH2 0x194 JUMPI PUSH2 0x193 PUSH2 0x19D JUMP JUMPDEST JUMPDEST DUP1 PUSH1 0x40 MSTORE POP POP POP JUMP JUMPDEST PUSH32 0x4E487B7100000000000000000000000000000000000000000000000000000000 PUSH1 0x0 MSTORE PUSH1 0x41 PUSH1 0x4 MSTORE PUSH1 0x24 PUSH1 0x0 REVERT JUMPDEST PUSH1 0x0 DUP1 REVERT JUMPDEST PUSH1 0x0 DUP1 REVERT JUMPDEST PUSH1 0x0 DUP1 REVERT JUMPDEST PUSH1 0x0 DUP1 REVERT JUMPDEST PUSH1 0x0 PUSH1 0x1F NOT PUSH1 0x1F DUP4 ADD AND SWAP1 POP SWAP2 SWAP1 POP JUMP INVALID LOG2 PUSH5 0x6970667358 0x22 SLT KECCAK256 0xDB COINBASE SWAP2 CHAINID 0xC1 0xFC 0x49 DUP15 0xCD RETURN 0xCA 0x21 0xBA 0xB7 0xE4 GASPRICE REVERT 0xE4 SGT COINBASE 0xDF DUP10 DUP11 CREATE2 CALLDATASIZE PUSH1 0xA 0x4D GASLIMIT 0x22 CALLDATALOAD 0xCE PUSH5 0x736F6C6343 STOP ADDMOD SMOD STOP CALLER "
				},
				"gasEstimates": {
					"creation": {
						"codeDepositCost": "110200",
						"executionCost": "159",
						"totalCost": "110359"
					},
					"external": {
						"deploy(bytes)": "infinite"
					}
				},
				"methodIdentifiers": {
					"deploy(bytes)": "00774360"
				}
			},
			"storageLayout": {
				"storage": [],
				"types": null
			},
			"userdoc": {
				"kind": "user",
				"methods": {},
				"version": 1
			}
		}
	}
}