{
	"code9/1deploy.sol": {
		"Help": {
			"abi": [
				{
					"inputs": [],
					"name": "getByteCode1",
					"outputs": [
						{
							"internalType": "bytes",
							"name": "",
							"type": "bytes"
						}
					],
					"stateMutability": "pure",
					"type": "function"
				},
				{
					"inputs": [
						{
							"internalType": "uint256",
							"name": "_x",
							"type": "uint256"
						},
						{
							"internalType": "uint256",
							"name": "_y",
							"type": "uint256"
						}
					],
					"name": "getByteCode2",
					"outputs": [
						{
							"internalType": "bytes",
							"name": "",
							"type": "bytes"
						}
					],
					"stateMutability": "pure",
					"type": "function"
				},
				{
					"inputs": [
						{
							"internalType": "address",
							"name": "_owner",
							"type": "address"
						}
					],
					"name": "getCalldate",
					"outputs": [
						{
							"internalType": "bytes",
							"name": "",
							"type": "bytes"
						}
					],
					"stateMutability": "pure",
					"type": "function"
				}
			],
			"devdoc": {
				"kind": "dev",
				"methods": {},
				"version": 1
			},
			"evm": {
				"assembly": "    /* \"code9/1deploy.sol\":1317:1873  contract Help{... */\n  mstore(0x40, 0x80)\n  callvalue\n  dup1\n  iszero\n  tag_1\n  jumpi\n  0x00\n  dup1\n  revert\ntag_1:\n  pop\n  dataSize(sub_0)\n  dup1\n  dataOffset(sub_0)\n  0x00\n  codecopy\n  0x00\n  return\nstop\n\nsub_0: assembly {\n        /* \"code9/1deploy.sol\":1317:1873  contract Help{... */\n      mstore(0x40, 0x80)\n      callvalue\n      dup1\n      iszero\n      tag_1\n      jumpi\n      0x00\n      dup1\n      revert\n    tag_1:\n      pop\n      jumpi(tag_2, lt(calldatasize, 0x04))\n      shr(0xe0, calldataload(0x00))\n      dup1\n      0x5354f855\n      eq\n      tag_3\n      jumpi\n      dup1\n      0xbed7ddf3\n      eq\n      tag_4\n      jumpi\n      dup1\n      0xf05f9668\n      eq\n      tag_5\n      jumpi\n    tag_2:\n      0x00\n      dup1\n      revert\n        /* \"code9/1deploy.sol\":1521:1720  function getByteCode2(uint _x,uint _y)external pure returns(bytes memory){... */\n    tag_3:\n      tag_6\n      0x04\n      dup1\n      calldatasize\n      sub\n      dup2\n      add\n      swap1\n      tag_7\n      swap2\n      swap1\n      tag_8\n      jump\t// in\n    tag_7:\n      tag_9\n      jump\t// in\n    tag_6:\n      mload(0x40)\n      tag_10\n      swap2\n      swap1\n      tag_11\n      jump\t// in\n    tag_10:\n      mload(0x40)\n      dup1\n      swap2\n      sub\n      swap1\n      return\n        /* \"code9/1deploy.sol\":1725:1871  function getCalldate(address _owner)external pure returns(bytes memory){... */\n    tag_4:\n      tag_12\n      0x04\n      dup1\n      calldatasize\n      sub\n      dup2\n      add\n      swap1\n      tag_13\n      swap2\n      swap1\n      tag_14\n      jump\t// in\n    tag_13:\n      tag_15\n      jump\t// in\n    tag_12:\n      mload(0x40)\n      tag_16\n      swap2\n      swap1\n      tag_11\n      jump\t// in\n    tag_16:\n      mload(0x40)\n      dup1\n      swap2\n      sub\n      swap1\n      return\n        /* \"code9/1deploy.sol\":1368:1516  function getByteCode1()external pure returns(bytes memory){... */\n    tag_5:\n      tag_17\n      tag_18\n      jump\t// in\n    tag_17:\n      mload(0x40)\n      tag_19\n      swap2\n      swap1\n      tag_11\n      jump\t// in\n    tag_19:\n      mload(0x40)\n      dup1\n      swap2\n      sub\n      swap1\n      return\n        /* \"code9/1deploy.sol\":1521:1720  function getByteCode2(uint _x,uint _y)external pure returns(bytes memory){... */\n    tag_9:\n        /* \"code9/1deploy.sol\":1581:1593  bytes memory */\n      0x60\n        /* \"code9/1deploy.sol\":1604:1625  bytes memory bytecode */\n      0x00\n        /* \"code9/1deploy.sol\":1628:1652  type(Test1).creationCode */\n      mload(0x40)\n      dup1\n      0x20\n      add\n      tag_21\n      swap1\n      tag_22\n      jump\t// in\n    tag_21:\n      0x20\n      dup3\n      add\n      dup2\n      sub\n      dup3\n      mstore\n      not(0x1f)\n      0x1f\n      dup3\n      add\n      and\n      0x40\n      mstore\n      pop\n        /* \"code9/1deploy.sol\":1604:1652  bytes memory bytecode = type(Test1).creationCode */\n      swap1\n      pop\n        /* \"code9/1deploy.sol\":1686:1694  bytecode */\n      dup1\n        /* \"code9/1deploy.sol\":1706:1708  _x */\n      dup5\n        /* \"code9/1deploy.sol\":1709:1711  _y */\n      dup5\n        /* \"code9/1deploy.sol\":1695:1712  abi.encode(_x,_y) */\n      add(0x20, mload(0x40))\n      tag_23\n      swap3\n      swap2\n      swap1\n      tag_24\n      jump\t// in\n    tag_23:\n      mload(0x40)\n      0x20\n      dup2\n      dup4\n      sub\n      sub\n      dup2\n      mstore\n      swap1\n      0x40\n      mstore\n        /* \"code9/1deploy.sol\":1669:1713  abi.encodePacked(bytecode,abi.encode(_x,_y)) */\n      add(0x20, mload(0x40))\n      tag_25\n      swap3\n      swap2\n      swap1\n      tag_26\n      jump\t// in\n    tag_25:\n      mload(0x40)\n      0x20\n      dup2\n      dup4\n      sub\n      sub\n      dup2\n      mstore\n      swap1\n      0x40\n      mstore\n        /* \"code9/1deploy.sol\":1662:1713  return abi.encodePacked(bytecode,abi.encode(_x,_y)) */\n      swap2\n      pop\n      pop\n        /* \"code9/1deploy.sol\":1521:1720  function getByteCode2(uint _x,uint _y)external pure returns(bytes memory){... */\n      swap3\n      swap2\n      pop\n      pop\n      jump\t// out\n        /* \"code9/1deploy.sol\":1725:1871  function getCalldate(address _owner)external pure returns(bytes memory){... */\n    tag_15:\n        /* \"code9/1deploy.sol\":1783:1795  bytes memory */\n      0x60\n        /* \"code9/1deploy.sol\":1857:1863  _owner */\n      dup2\n        /* \"code9/1deploy.sol\":1813:1864  abi.encodeWithSignature(\"setOwner(address)\",_owner) */\n      add(0x24, mload(0x40))\n      tag_28\n      swap2\n      swap1\n      tag_29\n      jump\t// in\n    tag_28:\n      mload(0x40)\n      0x20\n      dup2\n      dup4\n      sub\n      sub\n      dup2\n      mstore\n      swap1\n      0x40\n      mstore\n      and(not(0xffffffffffffffffffffffffffffffffffffffffffffffffffffffff), 0x13af403500000000000000000000000000000000000000000000000000000000)\n      0x20\n      dup3\n      add\n      dup1\n      mload\n      0xffffffffffffffffffffffffffffffffffffffffffffffffffffffff\n      dup4\n      dup2\n      dup4\n      and\n      or\n      dup4\n      mstore\n      pop\n      pop\n      pop\n      pop\n        /* \"code9/1deploy.sol\":1806:1864  return abi.encodeWithSignature(\"setOwner(address)\",_owner) */\n      swap1\n      pop\n        /* \"code9/1deploy.sol\":1725:1871  function getCalldate(address _owner)external pure returns(bytes memory){... */\n      swap2\n      swap1\n      pop\n      jump\t// out\n        /* \"code9/1deploy.sol\":1368:1516  function getByteCode1()external pure returns(bytes memory){... */\n    tag_18:\n        /* \"code9/1deploy.sol\":1413:1425  bytes memory */\n      0x60\n        /* \"code9/1deploy.sol\":1436:1457  bytes memory bytecode */\n      0x00\n        /* \"code9/1deploy.sol\":1460:1484  type(Test1).creationCode */\n      mload(0x40)\n      dup1\n      0x20\n      add\n      tag_31\n      swap1\n      tag_22\n      jump\t// in\n    tag_31:\n      0x20\n      dup3\n      add\n      dup2\n      sub\n      dup3\n      mstore\n      not(0x1f)\n      0x1f\n      dup3\n      add\n      and\n      0x40\n      mstore\n      pop\n        /* \"code9/1deploy.sol\":1436:1484  bytes memory bytecode = type(Test1).creationCode */\n      swap1\n      pop\n        /* \"code9/1deploy.sol\":1501:1509  bytecode */\n      dup1\n        /* \"code9/1deploy.sol\":1494:1509  return bytecode */\n      swap2\n      pop\n      pop\n        /* \"code9/1deploy.sol\":1368:1516  function getByteCode1()external pure returns(bytes memory){... */\n      swap1\n      jump\t// out\n    tag_22:\n      dataSize(sub_0)\n      dup1\n      dataOffset(sub_0)\n      dup4\n      codecopy\n      add\n      swap1\n      jump\t// out\n        /* \"#utility.yul\":7:146   */\n    tag_33:\n        /* \"#utility.yul\":53:58   */\n      0x00\n        /* \"#utility.yul\":91:97   */\n      dup2\n        /* \"#utility.yul\":78:98   */\n      calldataload\n        /* \"#utility.yul\":69:98   */\n      swap1\n      pop\n        /* \"#utility.yul\":107:140   */\n      tag_35\n        /* \"#utility.yul\":134:139   */\n      dup2\n        /* \"#utility.yul\":107:140   */\n      tag_36\n      jump\t// in\n    tag_35:\n        /* \"#utility.yul\":7:146   */\n      swap3\n      swap2\n      pop\n      pop\n      jump\t// out\n        /* \"#utility.yul\":152:291   */\n    tag_37:\n        /* \"#utility.yul\":198:203   */\n      0x00\n        /* \"#utility.yul\":236:242   */\n      dup2\n        /* \"#utility.yul\":223:243   */\n      calldataload\n        /* \"#utility.yul\":214:243   */\n      swap1\n      pop\n        /* \"#utility.yul\":252:285   */\n      tag_39\n        /* \"#utility.yul\":279:284   */\n      dup2\n        /* \"#utility.yul\":252:285   */\n      tag_40\n      jump\t// in\n    tag_39:\n        /* \"#utility.yul\":152:291   */\n      swap3\n      swap2\n      pop\n      pop\n      jump\t// out\n        /* \"#utility.yul\":297:626   */\n    tag_14:\n        /* \"#utility.yul\":356:362   */\n      0x00\n        /* \"#utility.yul\":405:407   */\n      0x20\n        /* \"#utility.yul\":393:402   */\n      dup3\n        /* \"#utility.yul\":384:391   */\n      dup5\n        /* \"#utility.yul\":380:403   */\n      sub\n        /* \"#utility.yul\":376:408   */\n      slt\n        /* \"#utility.yul\":373:492   */\n      iszero\n      tag_42\n      jumpi\n        /* \"#utility.yul\":411:490   */\n      tag_43\n      tag_44\n      jump\t// in\n    tag_43:\n        /* \"#utility.yul\":373:492   */\n    tag_42:\n        /* \"#utility.yul\":531:532   */\n      0x00\n        /* \"#utility.yul\":556:609   */\n      tag_45\n        /* \"#utility.yul\":601:608   */\n      dup5\n        /* \"#utility.yul\":592:598   */\n      dup3\n        /* \"#utility.yul\":581:590   */\n      dup6\n        /* \"#utility.yul\":577:599   */\n      add\n        /* \"#utility.yul\":556:609   */\n      tag_33\n      jump\t// in\n    tag_45:\n        /* \"#utility.yul\":546:609   */\n      swap2\n      pop\n        /* \"#utility.yul\":502:619   */\n      pop\n        /* \"#utility.yul\":297:626   */\n      swap3\n      swap2\n      pop\n      pop\n      jump\t// out\n        /* \"#utility.yul\":632:1106   */\n    tag_8:\n        /* \"#utility.yul\":700:706   */\n      0x00\n        /* \"#utility.yul\":708:714   */\n      dup1\n        /* \"#utility.yul\":757:759   */\n      0x40\n        /* \"#utility.yul\":745:754   */\n      dup4\n        /* \"#utility.yul\":736:743   */\n      dup6\n        /* \"#utility.yul\":732:755   */\n      sub\n        /* \"#utility.yul\":728:760   */\n      slt\n        /* \"#utility.yul\":725:844   */\n      iszero\n      tag_47\n      jumpi\n        /* \"#utility.yul\":763:842   */\n      tag_48\n      tag_44\n      jump\t// in\n    tag_48:\n        /* \"#utility.yul\":725:844   */\n    tag_47:\n        /* \"#utility.yul\":883:884   */\n      0x00\n        /* \"#utility.yul\":908:961   */\n      tag_49\n        /* \"#utility.yul\":953:960   */\n      dup6\n        /* \"#utility.yul\":944:950   */\n      dup3\n        /* \"#utility.yul\":933:942   */\n      dup7\n        /* \"#utility.yul\":929:951   */\n      add\n        /* \"#utility.yul\":908:961   */\n      tag_37\n      jump\t// in\n    tag_49:\n        /* \"#utility.yul\":898:961   */\n      swap3\n      pop\n        /* \"#utility.yul\":854:971   */\n      pop\n        /* \"#utility.yul\":1010:1012   */\n      0x20\n        /* \"#utility.yul\":1036:1089   */\n      tag_50\n        /* \"#utility.yul\":1081:1088   */\n      dup6\n        /* \"#utility.yul\":1072:1078   */\n      dup3\n        /* \"#utility.yul\":1061:1070   */\n      dup7\n        /* \"#utility.yul\":1057:1079   */\n      add\n        /* \"#utility.yul\":1036:1089   */\n      tag_37\n      jump\t// in\n    tag_50:\n        /* \"#utility.yul\":1026:1089   */\n      swap2\n      pop\n        /* \"#utility.yul\":981:1099   */\n      pop\n        /* \"#utility.yul\":632:1106   */\n      swap3\n      pop\n      swap3\n      swap1\n      pop\n      jump\t// out\n        /* \"#utility.yul\":1112:1230   */\n    tag_51:\n        /* \"#utility.yul\":1199:1223   */\n      tag_53\n        /* \"#utility.yul\":1217:1222   */\n      dup2\n        /* \"#utility.yul\":1199:1223   */\n      tag_54\n      jump\t// in\n    tag_53:\n        /* \"#utility.yul\":1194:1197   */\n      dup3\n        /* \"#utility.yul\":1187:1224   */\n      mstore\n        /* \"#utility.yul\":1112:1230   */\n      pop\n      pop\n      jump\t// out\n        /* \"#utility.yul\":1236:1596   */\n    tag_55:\n        /* \"#utility.yul\":1322:1325   */\n      0x00\n        /* \"#utility.yul\":1350:1388   */\n      tag_57\n        /* \"#utility.yul\":1382:1387   */\n      dup3\n        /* \"#utility.yul\":1350:1388   */\n      tag_58\n      jump\t// in\n    tag_57:\n        /* \"#utility.yul\":1404:1474   */\n      tag_59\n        /* \"#utility.yul\":1467:1473   */\n      dup2\n        /* \"#utility.yul\":1462:1465   */\n      dup6\n        /* \"#utility.yul\":1404:1474   */\n      tag_60\n      jump\t// in\n    tag_59:\n        /* \"#utility.yul\":1397:1474   */\n      swap4\n      pop\n        /* \"#utility.yul\":1483:1535   */\n      tag_61\n        /* \"#utility.yul\":1528:1534   */\n      dup2\n        /* \"#utility.yul\":1523:1526   */\n      dup6\n        /* \"#utility.yul\":1516:1520   */\n      0x20\n        /* \"#utility.yul\":1509:1514   */\n      dup7\n        /* \"#utility.yul\":1505:1521   */\n      add\n        /* \"#utility.yul\":1483:1535   */\n      tag_62\n      jump\t// in\n    tag_61:\n        /* \"#utility.yul\":1560:1589   */\n      tag_63\n        /* \"#utility.yul\":1582:1588   */\n      dup2\n        /* \"#utility.yul\":1560:1589   */\n      tag_64\n      jump\t// in\n    tag_63:\n        /* \"#utility.yul\":1555:1558   */\n      dup5\n        /* \"#utility.yul\":1551:1590   */\n      add\n        /* \"#utility.yul\":1544:1590   */\n      swap2\n      pop\n        /* \"#utility.yul\":1326:1596   */\n      pop\n        /* \"#utility.yul\":1236:1596   */\n      swap3\n      swap2\n      pop\n      pop\n      jump\t// out\n        /* \"#utility.yul\":1602:1975   */\n    tag_65:\n        /* \"#utility.yul\":1706:1709   */\n      0x00\n        /* \"#utility.yul\":1734:1772   */\n      tag_67\n        /* \"#utility.yul\":1766:1771   */\n      dup3\n        /* \"#utility.yul\":1734:1772   */\n      tag_58\n      jump\t// in\n    tag_67:\n        /* \"#utility.yul\":1788:1876   */\n      tag_68\n        /* \"#utility.yul\":1869:1875   */\n      dup2\n        /* \"#utility.yul\":1864:1867   */\n      dup6\n        /* \"#utility.yul\":1788:1876   */\n      tag_69\n      jump\t// in\n    tag_68:\n        /* \"#utility.yul\":1781:1876   */\n      swap4\n      pop\n        /* \"#utility.yul\":1885:1937   */\n      tag_70\n        /* \"#utility.yul\":1930:1936   */\n      dup2\n        /* \"#utility.yul\":1925:1928   */\n      dup6\n        /* \"#utility.yul\":1918:1922   */\n      0x20\n        /* \"#utility.yul\":1911:1916   */\n      dup7\n        /* \"#utility.yul\":1907:1923   */\n      add\n        /* \"#utility.yul\":1885:1937   */\n      tag_62\n      jump\t// in\n    tag_70:\n        /* \"#utility.yul\":1962:1968   */\n      dup1\n        /* \"#utility.yul\":1957:1960   */\n      dup5\n        /* \"#utility.yul\":1953:1969   */\n      add\n        /* \"#utility.yul\":1946:1969   */\n      swap2\n      pop\n        /* \"#utility.yul\":1710:1975   */\n      pop\n        /* \"#utility.yul\":1602:1975   */\n      swap3\n      swap2\n      pop\n      pop\n      jump\t// out\n        /* \"#utility.yul\":1981:2099   */\n    tag_71:\n        /* \"#utility.yul\":2068:2092   */\n      tag_73\n        /* \"#utility.yul\":2086:2091   */\n      dup2\n        /* \"#utility.yul\":2068:2092   */\n      tag_74\n      jump\t// in\n    tag_73:\n        /* \"#utility.yul\":2063:2066   */\n      dup3\n        /* \"#utility.yul\":2056:2093   */\n      mstore\n        /* \"#utility.yul\":1981:2099   */\n      pop\n      pop\n      jump\t// out\n        /* \"#utility.yul\":2105:2532   */\n    tag_26:\n        /* \"#utility.yul\":2281:2284   */\n      0x00\n        /* \"#utility.yul\":2303:2396   */\n      tag_76\n        /* \"#utility.yul\":2392:2395   */\n      dup3\n        /* \"#utility.yul\":2383:2389   */\n      dup6\n        /* \"#utility.yul\":2303:2396   */\n      tag_65\n      jump\t// in\n    tag_76:\n        /* \"#utility.yul\":2296:2396   */\n      swap2\n      pop\n        /* \"#utility.yul\":2413:2506   */\n      tag_77\n        /* \"#utility.yul\":2502:2505   */\n      dup3\n        /* \"#utility.yul\":2493:2499   */\n      dup5\n        /* \"#utility.yul\":2413:2506   */\n      tag_65\n      jump\t// in\n    tag_77:\n        /* \"#utility.yul\":2406:2506   */\n      swap2\n      pop\n        /* \"#utility.yul\":2523:2526   */\n      dup2\n        /* \"#utility.yul\":2516:2526   */\n      swap1\n      pop\n        /* \"#utility.yul\":2105:2532   */\n      swap4\n      swap3\n      pop\n      pop\n      pop\n      jump\t// out\n        /* \"#utility.yul\":2538:2760   */\n    tag_29:\n        /* \"#utility.yul\":2631:2635   */\n      0x00\n        /* \"#utility.yul\":2669:2671   */\n      0x20\n        /* \"#utility.yul\":2658:2667   */\n      dup3\n        /* \"#utility.yul\":2654:2672   */\n      add\n        /* \"#utility.yul\":2646:2672   */\n      swap1\n      pop\n        /* \"#utility.yul\":2682:2753   */\n      tag_79\n        /* \"#utility.yul\":2750:2751   */\n      0x00\n        /* \"#utility.yul\":2739:2748   */\n      dup4\n        /* \"#utility.yul\":2735:2752   */\n      add\n        /* \"#utility.yul\":2726:2732   */\n      dup5\n        /* \"#utility.yul\":2682:2753   */\n      tag_51\n      jump\t// in\n    tag_79:\n        /* \"#utility.yul\":2538:2760   */\n      swap3\n      swap2\n      pop\n      pop\n      jump\t// out\n        /* \"#utility.yul\":2766:3075   */\n    tag_11:\n        /* \"#utility.yul\":2877:2881   */\n      0x00\n        /* \"#utility.yul\":2915:2917   */\n      0x20\n        /* \"#utility.yul\":2904:2913   */\n      dup3\n        /* \"#utility.yul\":2900:2918   */\n      add\n        /* \"#utility.yul\":2892:2918   */\n      swap1\n      pop\n        /* \"#utility.yul\":2964:2973   */\n      dup2\n        /* \"#utility.yul\":2958:2962   */\n      dup2\n        /* \"#utility.yul\":2954:2974   */\n      sub\n        /* \"#utility.yul\":2950:2951   */\n      0x00\n        /* \"#utility.yul\":2939:2948   */\n      dup4\n        /* \"#utility.yul\":2935:2952   */\n      add\n        /* \"#utility.yul\":2928:2975   */\n      mstore\n        /* \"#utility.yul\":2992:3068   */\n      tag_81\n        /* \"#utility.yul\":3063:3067   */\n      dup2\n        /* \"#utility.yul\":3054:3060   */\n      dup5\n        /* \"#utility.yul\":2992:3068   */\n      tag_55\n      jump\t// in\n    tag_81:\n        /* \"#utility.yul\":2984:3068   */\n      swap1\n      pop\n        /* \"#utility.yul\":2766:3075   */\n      swap3\n      swap2\n      pop\n      pop\n      jump\t// out\n        /* \"#utility.yul\":3081:3413   */\n    tag_24:\n        /* \"#utility.yul\":3202:3206   */\n      0x00\n        /* \"#utility.yul\":3240:3242   */\n      0x40\n        /* \"#utility.yul\":3229:3238   */\n      dup3\n        /* \"#utility.yul\":3225:3243   */\n      add\n        /* \"#utility.yul\":3217:3243   */\n      swap1\n      pop\n        /* \"#utility.yul\":3253:3324   */\n      tag_83\n        /* \"#utility.yul\":3321:3322   */\n      0x00\n        /* \"#utility.yul\":3310:3319   */\n      dup4\n        /* \"#utility.yul\":3306:3323   */\n      add\n        /* \"#utility.yul\":3297:3303   */\n      dup6\n        /* \"#utility.yul\":3253:3324   */\n      tag_71\n      jump\t// in\n    tag_83:\n        /* \"#utility.yul\":3334:3406   */\n      tag_84\n        /* \"#utility.yul\":3402:3404   */\n      0x20\n        /* \"#utility.yul\":3391:3400   */\n      dup4\n        /* \"#utility.yul\":3387:3405   */\n      add\n        /* \"#utility.yul\":3378:3384   */\n      dup5\n        /* \"#utility.yul\":3334:3406   */\n      tag_71\n      jump\t// in\n    tag_84:\n        /* \"#utility.yul\":3081:3413   */\n      swap4\n      swap3\n      pop\n      pop\n      pop\n      jump\t// out\n        /* \"#utility.yul\":3500:3598   */\n    tag_58:\n        /* \"#utility.yul\":3551:3557   */\n      0x00\n        /* \"#utility.yul\":3585:3590   */\n      dup2\n        /* \"#utility.yul\":3579:3591   */\n      mload\n        /* \"#utility.yul\":3569:3591   */\n      swap1\n      pop\n        /* \"#utility.yul\":3500:3598   */\n      swap2\n      swap1\n      pop\n      jump\t// out\n        /* \"#utility.yul\":3604:3772   */\n    tag_60:\n        /* \"#utility.yul\":3687:3698   */\n      0x00\n        /* \"#utility.yul\":3721:3727   */\n      dup3\n        /* \"#utility.yul\":3716:3719   */\n      dup3\n        /* \"#utility.yul\":3709:3728   */\n      mstore\n        /* \"#utility.yul\":3761:3765   */\n      0x20\n        /* \"#utility.yul\":3756:3759   */\n      dup3\n        /* \"#utility.yul\":3752:3766   */\n      add\n        /* \"#utility.yul\":3737:3766   */\n      swap1\n      pop\n        /* \"#utility.yul\":3604:3772   */\n      swap3\n      swap2\n      pop\n      pop\n      jump\t// out\n        /* \"#utility.yul\":3778:3925   */\n    tag_69:\n        /* \"#utility.yul\":3879:3890   */\n      0x00\n        /* \"#utility.yul\":3916:3919   */\n      dup2\n        /* \"#utility.yul\":3901:3919   */\n      swap1\n      pop\n        /* \"#utility.yul\":3778:3925   */\n      swap3\n      swap2\n      pop\n      pop\n      jump\t// out\n        /* \"#utility.yul\":3931:4027   */\n    tag_54:\n        /* \"#utility.yul\":3968:3975   */\n      0x00\n        /* \"#utility.yul\":3997:4021   */\n      tag_91\n        /* \"#utility.yul\":4015:4020   */\n      dup3\n        /* \"#utility.yul\":3997:4021   */\n      tag_92\n      jump\t// in\n    tag_91:\n        /* \"#utility.yul\":3986:4021   */\n      swap1\n      pop\n        /* \"#utility.yul\":3931:4027   */\n      swap2\n      swap1\n      pop\n      jump\t// out\n        /* \"#utility.yul\":4033:4159   */\n    tag_92:\n        /* \"#utility.yul\":4070:4077   */\n      0x00\n        /* \"#utility.yul\":4110:4152   */\n      0xffffffffffffffffffffffffffffffffffffffff\n        /* \"#utility.yul\":4103:4108   */\n      dup3\n        /* \"#utility.yul\":4099:4153   */\n      and\n        /* \"#utility.yul\":4088:4153   */\n      swap1\n      pop\n        /* \"#utility.yul\":4033:4159   */\n      swap2\n      swap1\n      pop\n      jump\t// out\n        /* \"#utility.yul\":4165:4242   */\n    tag_74:\n        /* \"#utility.yul\":4202:4209   */\n      0x00\n        /* \"#utility.yul\":4231:4236   */\n      dup2\n        /* \"#utility.yul\":4220:4236   */\n      swap1\n      pop\n        /* \"#utility.yul\":4165:4242   */\n      swap2\n      swap1\n      pop\n      jump\t// out\n        /* \"#utility.yul\":4248:4555   */\n    tag_62:\n        /* \"#utility.yul\":4316:4317   */\n      0x00\n        /* \"#utility.yul\":4326:4439   */\n    tag_96:\n        /* \"#utility.yul\":4340:4346   */\n      dup4\n        /* \"#utility.yul\":4337:4338   */\n      dup2\n        /* \"#utility.yul\":4334:4347   */\n      lt\n        /* \"#utility.yul\":4326:4439   */\n      iszero\n      tag_98\n      jumpi\n        /* \"#utility.yul\":4425:4426   */\n      dup1\n        /* \"#utility.yul\":4420:4423   */\n      dup3\n        /* \"#utility.yul\":4416:4427   */\n      add\n        /* \"#utility.yul\":4410:4428   */\n      mload\n        /* \"#utility.yul\":4406:4407   */\n      dup2\n        /* \"#utility.yul\":4401:4404   */\n      dup5\n        /* \"#utility.yul\":4397:4408   */\n      add\n        /* \"#utility.yul\":4390:4429   */\n      mstore\n        /* \"#utility.yul\":4362:4364   */\n      0x20\n        /* \"#utility.yul\":4359:4360   */\n      dup2\n        /* \"#utility.yul\":4355:4365   */\n      add\n        /* \"#utility.yul\":4350:4365   */\n      swap1\n      pop\n        /* \"#utility.yul\":4326:4439   */\n      jump(tag_96)\n    tag_98:\n        /* \"#utility.yul\":4457:4463   */\n      dup4\n        /* \"#utility.yul\":4454:4455   */\n      dup2\n        /* \"#utility.yul\":4451:4464   */\n      gt\n        /* \"#utility.yul\":4448:4549   */\n      iszero\n      tag_99\n      jumpi\n        /* \"#utility.yul\":4537:4538   */\n      0x00\n        /* \"#utility.yul\":4528:4534   */\n      dup5\n        /* \"#utility.yul\":4523:4526   */\n      dup5\n        /* \"#utility.yul\":4519:4535   */\n      add\n        /* \"#utility.yul\":4512:4539   */\n      mstore\n        /* \"#utility.yul\":4448:4549   */\n    tag_99:\n        /* \"#utility.yul\":4297:4555   */\n      pop\n        /* \"#utility.yul\":4248:4555   */\n      pop\n      pop\n      pop\n      jump\t// out\n        /* \"#utility.yul\":4684:4801   */\n    tag_44:\n        /* \"#utility.yul\":4793:4794   */\n      0x00\n        /* \"#utility.yul\":4790:4791   */\n      dup1\n        /* \"#utility.yul\":4783:4795   */\n      revert\n        /* \"#utility.yul\":4807:4909   */\n    tag_64:\n        /* \"#utility.yul\":4848:4854   */\n      0x00\n        /* \"#utility.yul\":4899:4901   */\n      0x1f\n        /* \"#utility.yul\":4895:4902   */\n      not\n        /* \"#utility.yul\":4890:4892   */\n      0x1f\n        /* \"#utility.yul\":4883:4888   */\n      dup4\n        /* \"#utility.yul\":4879:4893   */\n      add\n        /* \"#utility.yul\":4875:4903   */\n      and\n        /* \"#utility.yul\":4865:4903   */\n      swap1\n      pop\n        /* \"#utility.yul\":4807:4909   */\n      swap2\n      swap1\n      pop\n      jump\t// out\n        /* \"#utility.yul\":4915:5037   */\n    tag_36:\n        /* \"#utility.yul\":4988:5012   */\n      tag_105\n        /* \"#utility.yul\":5006:5011   */\n      dup2\n        /* \"#utility.yul\":4988:5012   */\n      tag_54\n      jump\t// in\n    tag_105:\n        /* \"#utility.yul\":4981:4986   */\n      dup2\n        /* \"#utility.yul\":4978:5013   */\n      eq\n        /* \"#utility.yul\":4968:5031   */\n      tag_106\n      jumpi\n        /* \"#utility.yul\":5027:5028   */\n      0x00\n        /* \"#utility.yul\":5024:5025   */\n      dup1\n        /* \"#utility.yul\":5017:5029   */\n      revert\n        /* \"#utility.yul\":4968:5031   */\n    tag_106:\n        /* \"#utility.yul\":4915:5037   */\n      pop\n      jump\t// out\n        /* \"#utility.yul\":5043:5165   */\n    tag_40:\n        /* \"#utility.yul\":5116:5140   */\n      tag_108\n        /* \"#utility.yul\":5134:5139   */\n      dup2\n        /* \"#utility.yul\":5116:5140   */\n      tag_74\n      jump\t// in\n    tag_108:\n        /* \"#utility.yul\":5109:5114   */\n      dup2\n        /* \"#utility.yul\":5106:5141   */\n      eq\n        /* \"#utility.yul\":5096:5159   */\n      tag_109\n      jumpi\n        /* \"#utility.yul\":5155:5156   */\n      0x00\n        /* \"#utility.yul\":5152:5153   */\n      dup1\n        /* \"#utility.yul\":5145:5157   */\n      revert\n        /* \"#utility.yul\":5096:5159   */\n    tag_109:\n        /* \"#utility.yul\":5043:5165   */\n      pop\n      jump\t// out\n    stop\n\n    sub_0: assembly {\n            /* \"code9/1deploy.sol\":54:247  contract Test1{... */\n          mstore(0x40, 0x80)\n            /* \"code9/1deploy.sol\":97:107  msg.sender */\n          caller\n            /* \"code9/1deploy.sol\":74:107  address public owner = msg.sender */\n          0x00\n          dup1\n          0x0100\n          exp\n          dup2\n          sload\n          dup2\n          0xffffffffffffffffffffffffffffffffffffffff\n          mul\n          not\n          and\n          swap1\n          dup4\n          0xffffffffffffffffffffffffffffffffffffffff\n          and\n          mul\n          or\n          swap1\n          sstore\n          pop\n            /* \"code9/1deploy.sol\":54:247  contract Test1{... */\n          callvalue\n          dup1\n          iszero\n          tag_1\n          jumpi\n          0x00\n          dup1\n          revert\n        tag_1:\n          pop\n          dataSize(sub_0)\n          dup1\n          dataOffset(sub_0)\n          0x00\n          codecopy\n          0x00\n          return\n        stop\n\n        sub_0: assembly {\n                /* \"code9/1deploy.sol\":54:247  contract Test1{... */\n              mstore(0x40, 0x80)\n              callvalue\n              dup1\n              iszero\n              tag_1\n              jumpi\n              0x00\n              dup1\n              revert\n            tag_1:\n              pop\n              jumpi(tag_2, lt(calldatasize, 0x04))\n              shr(0xe0, calldataload(0x00))\n              dup1\n              0x13af4035\n              eq\n              tag_3\n              jumpi\n              dup1\n              0x8da5cb5b\n              eq\n              tag_4\n              jumpi\n            tag_2:\n              0x00\n              dup1\n              revert\n                /* \"code9/1deploy.sol\":113:245  function setOwner(address newOwner)public{... */\n            tag_3:\n              tag_5\n              0x04\n              dup1\n              calldatasize\n              sub\n              dup2\n              add\n              swap1\n              tag_6\n              swap2\n              swap1\n              tag_7\n              jump\t// in\n            tag_6:\n              tag_8\n              jump\t// in\n            tag_5:\n              stop\n                /* \"code9/1deploy.sol\":74:107  address public owner = msg.sender */\n            tag_4:\n              tag_9\n              tag_10\n              jump\t// in\n            tag_9:\n              mload(0x40)\n              tag_11\n              swap2\n              swap1\n              tag_12\n              jump\t// in\n            tag_11:\n              mload(0x40)\n              dup1\n              swap2\n              sub\n              swap1\n              return\n                /* \"code9/1deploy.sol\":113:245  function setOwner(address newOwner)public{... */\n            tag_8:\n                /* \"code9/1deploy.sol\":186:191  owner */\n              0x00\n              dup1\n              sload\n              swap1\n              0x0100\n              exp\n              swap1\n              div\n              0xffffffffffffffffffffffffffffffffffffffff\n              and\n                /* \"code9/1deploy.sol\":172:191  msg.sender == owner */\n              0xffffffffffffffffffffffffffffffffffffffff\n              and\n                /* \"code9/1deploy.sol\":172:182  msg.sender */\n              caller\n                /* \"code9/1deploy.sol\":172:191  msg.sender == owner */\n              0xffffffffffffffffffffffffffffffffffffffff\n              and\n              eq\n                /* \"code9/1deploy.sol\":164:212  require(msg.sender == owner,\"cant not use this\") */\n              tag_14\n              jumpi\n              mload(0x40)\n              0x08c379a000000000000000000000000000000000000000000000000000000000\n              dup2\n              mstore\n              0x04\n              add\n              tag_15\n              swap1\n              tag_16\n              jump\t// in\n            tag_15:\n              mload(0x40)\n              dup1\n              swap2\n              sub\n              swap1\n              revert\n            tag_14:\n                /* \"code9/1deploy.sol\":230:238  newOwner */\n              dup1\n                /* \"code9/1deploy.sol\":222:227  owner */\n              0x00\n              dup1\n                /* \"code9/1deploy.sol\":222:238  owner = newOwner */\n              0x0100\n              exp\n              dup2\n              sload\n              dup2\n              0xffffffffffffffffffffffffffffffffffffffff\n              mul\n              not\n              and\n              swap1\n              dup4\n              0xffffffffffffffffffffffffffffffffffffffff\n              and\n              mul\n              or\n              swap1\n              sstore\n              pop\n                /* \"code9/1deploy.sol\":113:245  function setOwner(address newOwner)public{... */\n              pop\n              jump\t// out\n                /* \"code9/1deploy.sol\":74:107  address public owner = msg.sender */\n            tag_10:\n              0x00\n              dup1\n              sload\n              swap1\n              0x0100\n              exp\n              swap1\n              div\n              0xffffffffffffffffffffffffffffffffffffffff\n              and\n              dup2\n              jump\t// out\n                /* \"#utility.yul\":7:146   */\n            tag_18:\n                /* \"#utility.yul\":53:58   */\n              0x00\n                /* \"#utility.yul\":91:97   */\n              dup2\n                /* \"#utility.yul\":78:98   */\n              calldataload\n                /* \"#utility.yul\":69:98   */\n              swap1\n              pop\n                /* \"#utility.yul\":107:140   */\n              tag_20\n                /* \"#utility.yul\":134:139   */\n              dup2\n                /* \"#utility.yul\":107:140   */\n              tag_21\n              jump\t// in\n            tag_20:\n                /* \"#utility.yul\":7:146   */\n              swap3\n              swap2\n              pop\n              pop\n              jump\t// out\n                /* \"#utility.yul\":152:481   */\n            tag_7:\n                /* \"#utility.yul\":211:217   */\n              0x00\n                /* \"#utility.yul\":260:262   */\n              0x20\n                /* \"#utility.yul\":248:257   */\n              dup3\n                /* \"#utility.yul\":239:246   */\n              dup5\n                /* \"#utility.yul\":235:258   */\n              sub\n                /* \"#utility.yul\":231:263   */\n              slt\n                /* \"#utility.yul\":228:347   */\n              iszero\n              tag_23\n              jumpi\n                /* \"#utility.yul\":266:345   */\n              tag_24\n              tag_25\n              jump\t// in\n            tag_24:\n                /* \"#utility.yul\":228:347   */\n            tag_23:\n                /* \"#utility.yul\":386:387   */\n              0x00\n                /* \"#utility.yul\":411:464   */\n              tag_26\n                /* \"#utility.yul\":456:463   */\n              dup5\n                /* \"#utility.yul\":447:453   */\n              dup3\n                /* \"#utility.yul\":436:445   */\n              dup6\n                /* \"#utility.yul\":432:454   */\n              add\n                /* \"#utility.yul\":411:464   */\n              tag_18\n              jump\t// in\n            tag_26:\n                /* \"#utility.yul\":401:464   */\n              swap2\n              pop\n                /* \"#utility.yul\":357:474   */\n              pop\n                /* \"#utility.yul\":152:481   */\n              swap3\n              swap2\n              pop\n              pop\n              jump\t// out\n                /* \"#utility.yul\":487:605   */\n            tag_27:\n                /* \"#utility.yul\":574:598   */\n              tag_29\n                /* \"#utility.yul\":592:597   */\n              dup2\n                /* \"#utility.yul\":574:598   */\n              tag_30\n              jump\t// in\n            tag_29:\n                /* \"#utility.yul\":569:572   */\n              dup3\n                /* \"#utility.yul\":562:599   */\n              mstore\n                /* \"#utility.yul\":487:605   */\n              pop\n              pop\n              jump\t// out\n                /* \"#utility.yul\":611:977   */\n            tag_31:\n                /* \"#utility.yul\":753:756   */\n              0x00\n                /* \"#utility.yul\":774:841   */\n              tag_33\n                /* \"#utility.yul\":838:840   */\n              0x11\n                /* \"#utility.yul\":833:836   */\n              dup4\n                /* \"#utility.yul\":774:841   */\n              tag_34\n              jump\t// in\n            tag_33:\n                /* \"#utility.yul\":767:841   */\n              swap2\n              pop\n                /* \"#utility.yul\":850:943   */\n              tag_35\n                /* \"#utility.yul\":939:942   */\n              dup3\n                /* \"#utility.yul\":850:943   */\n              tag_36\n              jump\t// in\n            tag_35:\n                /* \"#utility.yul\":968:970   */\n              0x20\n                /* \"#utility.yul\":963:966   */\n              dup3\n                /* \"#utility.yul\":959:971   */\n              add\n                /* \"#utility.yul\":952:971   */\n              swap1\n              pop\n                /* \"#utility.yul\":611:977   */\n              swap2\n              swap1\n              pop\n              jump\t// out\n                /* \"#utility.yul\":983:1205   */\n            tag_12:\n                /* \"#utility.yul\":1076:1080   */\n              0x00\n                /* \"#utility.yul\":1114:1116   */\n              0x20\n                /* \"#utility.yul\":1103:1112   */\n              dup3\n                /* \"#utility.yul\":1099:1117   */\n              add\n                /* \"#utility.yul\":1091:1117   */\n              swap1\n              pop\n                /* \"#utility.yul\":1127:1198   */\n              tag_38\n                /* \"#utility.yul\":1195:1196   */\n              0x00\n                /* \"#utility.yul\":1184:1193   */\n              dup4\n                /* \"#utility.yul\":1180:1197   */\n              add\n                /* \"#utility.yul\":1171:1177   */\n              dup5\n                /* \"#utility.yul\":1127:1198   */\n              tag_27\n              jump\t// in\n            tag_38:\n                /* \"#utility.yul\":983:1205   */\n              swap3\n              swap2\n              pop\n              pop\n              jump\t// out\n                /* \"#utility.yul\":1211:1630   */\n            tag_16:\n                /* \"#utility.yul\":1377:1381   */\n              0x00\n                /* \"#utility.yul\":1415:1417   */\n              0x20\n                /* \"#utility.yul\":1404:1413   */\n              dup3\n                /* \"#utility.yul\":1400:1418   */\n              add\n                /* \"#utility.yul\":1392:1418   */\n              swap1\n              pop\n                /* \"#utility.yul\":1464:1473   */\n              dup2\n                /* \"#utility.yul\":1458:1462   */\n              dup2\n                /* \"#utility.yul\":1454:1474   */\n              sub\n                /* \"#utility.yul\":1450:1451   */\n              0x00\n                /* \"#utility.yul\":1439:1448   */\n              dup4\n                /* \"#utility.yul\":1435:1452   */\n              add\n                /* \"#utility.yul\":1428:1475   */\n              mstore\n                /* \"#utility.yul\":1492:1623   */\n              tag_40\n                /* \"#utility.yul\":1618:1622   */\n              dup2\n                /* \"#utility.yul\":1492:1623   */\n              tag_31\n              jump\t// in\n            tag_40:\n                /* \"#utility.yul\":1484:1623   */\n              swap1\n              pop\n                /* \"#utility.yul\":1211:1630   */\n              swap2\n              swap1\n              pop\n              jump\t// out\n                /* \"#utility.yul\":1717:1886   */\n            tag_34:\n                /* \"#utility.yul\":1801:1812   */\n              0x00\n                /* \"#utility.yul\":1835:1841   */\n              dup3\n                /* \"#utility.yul\":1830:1833   */\n              dup3\n                /* \"#utility.yul\":1823:1842   */\n              mstore\n                /* \"#utility.yul\":1875:1879   */\n              0x20\n                /* \"#utility.yul\":1870:1873   */\n              dup3\n                /* \"#utility.yul\":1866:1880   */\n              add\n                /* \"#utility.yul\":1851:1880   */\n              swap1\n              pop\n                /* \"#utility.yul\":1717:1886   */\n              swap3\n              swap2\n              pop\n              pop\n              jump\t// out\n                /* \"#utility.yul\":1892:1988   */\n            tag_30:\n                /* \"#utility.yul\":1929:1936   */\n              0x00\n                /* \"#utility.yul\":1958:1982   */\n              tag_45\n                /* \"#utility.yul\":1976:1981   */\n              dup3\n                /* \"#utility.yul\":1958:1982   */\n              tag_46\n              jump\t// in\n            tag_45:\n                /* \"#utility.yul\":1947:1982   */\n              swap1\n              pop\n                /* \"#utility.yul\":1892:1988   */\n              swap2\n              swap1\n              pop\n              jump\t// out\n                /* \"#utility.yul\":1994:2120   */\n            tag_46:\n                /* \"#utility.yul\":2031:2038   */\n              0x00\n                /* \"#utility.yul\":2071:2113   */\n              0xffffffffffffffffffffffffffffffffffffffff\n                /* \"#utility.yul\":2064:2069   */\n              dup3\n                /* \"#utility.yul\":2060:2114   */\n              and\n                /* \"#utility.yul\":2049:2114   */\n              swap1\n              pop\n                /* \"#utility.yul\":1994:2120   */\n              swap2\n              swap1\n              pop\n              jump\t// out\n                /* \"#utility.yul\":2249:2366   */\n            tag_25:\n                /* \"#utility.yul\":2358:2359   */\n              0x00\n                /* \"#utility.yul\":2355:2356   */\n              dup1\n                /* \"#utility.yul\":2348:2360   */\n              revert\n                /* \"#utility.yul\":2372:2539   */\n            tag_36:\n                /* \"#utility.yul\":2512:2531   */\n              0x63616e74206e6f74207573652074686973000000000000000000000000000000\n                /* \"#utility.yul\":2508:2509   */\n              0x00\n                /* \"#utility.yul\":2500:2506   */\n              dup3\n                /* \"#utility.yul\":2496:2510   */\n              add\n                /* \"#utility.yul\":2489:2532   */\n              mstore\n                /* \"#utility.yul\":2372:2539   */\n              pop\n              jump\t// out\n                /* \"#utility.yul\":2545:2667   */\n            tag_21:\n                /* \"#utility.yul\":2618:2642   */\n              tag_53\n                /* \"#utility.yul\":2636:2641   */\n              dup2\n                /* \"#utility.yul\":2618:2642   */\n              tag_30\n              jump\t// in\n            tag_53:\n                /* \"#utility.yul\":2611:2616   */\n              dup2\n                /* \"#utility.yul\":2608:2643   */\n              eq\n                /* \"#utility.yul\":2598:2661   */\n              tag_54\n              jumpi\n                /* \"#utility.yul\":2657:2658   */\n              0x00\n                /* \"#utility.yul\":2654:2655   */\n              dup1\n                /* \"#utility.yul\":2647:2659   */\n              revert\n                /* \"#utility.yul\":2598:2661   */\n            tag_54:\n                /* \"#utility.yul\":2545:2667   */\n              pop\n              jump\t// out\n\n            auxdata: 0xa2646970667358221220c2fbd670c6ef29d3d91bb6b413228ccafb0e160b8ae5b6b19ef3b766f0b85ac764736f6c63430008070033\n        }\n    }\n\n    auxdata: 0xa2646970667358221220d7bf6e8e1202771c8b4d159ff0659ab84c86e8f4c4a0df811c32b900ec58356b64736f6c63430008070033\n}\n",
				"bytecode": {
					"linkReferences": {},
					"object": "608060405234801561001057600080fd5b506107ff806100206000396000f3fe608060405234801561001057600080fd5b50600436106100415760003560e01c80635354f85514610046578063bed7ddf314610076578063f05f9668146100a6575b600080fd5b610060600480360381019061005b9190610266565b6100c4565b60405161006d919061036d565b60405180910390f35b610090600480360381019061008b9190610239565b61013a565b60405161009d919061036d565b60405180910390f35b6100ae6101d1565b6040516100bb919061036d565b60405180910390f35b60606000604051806020016100d890610202565b6020820181038252601f19601f82011660405250905080848460405160200161010292919061038f565b60405160208183030381529060405260405160200161012292919061032e565b60405160208183030381529060405291505092915050565b60608160405160240161014d9190610352565b6040516020818303038152906040527f13af4035000000000000000000000000000000000000000000000000000000007bffffffffffffffffffffffffffffffffffffffffffffffffffffffff19166020820180517bffffffffffffffffffffffffffffffffffffffffffffffffffffffff83818316178352505050509050919050565b60606000604051806020016101e590610202565b6020820181038252601f19601f8201166040525090508091505090565b6103378061049383390190565b60008135905061021e81610464565b92915050565b6000813590506102338161047b565b92915050565b60006020828403121561024f5761024e61044e565b5b600061025d8482850161020f565b91505092915050565b6000806040838503121561027d5761027c61044e565b5b600061028b85828601610224565b925050602061029c85828601610224565b9150509250929050565b6102af816103df565b82525050565b60006102c0826103b8565b6102ca81856103c3565b93506102da81856020860161041b565b6102e381610453565b840191505092915050565b60006102f9826103b8565b61030381856103d4565b935061031381856020860161041b565b80840191505092915050565b61032881610411565b82525050565b600061033a82856102ee565b915061034682846102ee565b91508190509392505050565b600060208201905061036760008301846102a6565b92915050565b6000602082019050818103600083015261038781846102b5565b905092915050565b60006040820190506103a4600083018561031f565b6103b1602083018461031f565b9392505050565b600081519050919050565b600082825260208201905092915050565b600081905092915050565b60006103ea826103f1565b9050919050565b600073ffffffffffffffffffffffffffffffffffffffff82169050919050565b6000819050919050565b60005b8381101561043957808201518184015260208101905061041e565b83811115610448576000848401525b50505050565b600080fd5b6000601f19601f8301169050919050565b61046d816103df565b811461047857600080fd5b50565b61048481610411565b811461048f57600080fd5b5056fe6080604052336000806101000a81548173ffffffffffffffffffffffffffffffffffffffff021916908373ffffffffffffffffffffffffffffffffffffffff16021790555034801561005057600080fd5b506102d7806100606000396000f3fe608060405234801561001057600080fd5b50600436106100365760003560e01c806313af40351461003b5780638da5cb5b14610057575b600080fd5b6100556004803603810190610050919061017f565b610075565b005b61005f610146565b60405161006c91906101de565b60405180910390f35b60008054906101000a900473ffffffffffffffffffffffffffffffffffffffff1673ffffffffffffffffffffffffffffffffffffffff163373ffffffffffffffffffffffffffffffffffffffff1614610103576040517f08c379a00000000000000000000000000000000000000000000000000000000081526004016100fa906101f9565b60405180910390fd5b806000806101000a81548173ffffffffffffffffffffffffffffffffffffffff021916908373ffffffffffffffffffffffffffffffffffffffff16021790555050565b60008054906101000a900473ffffffffffffffffffffffffffffffffffffffff1681565b6000813590506101798161028a565b92915050565b6000602082840312156101955761019461025c565b5b60006101a38482850161016a565b91505092915050565b6101b58161022a565b82525050565b60006101c8601183610219565b91506101d382610261565b602082019050919050565b60006020820190506101f360008301846101ac565b92915050565b60006020820190508181036000830152610212816101bb565b9050919050565b600082825260208201905092915050565b60006102358261023c565b9050919050565b600073ffffffffffffffffffffffffffffffffffffffff82169050919050565b600080fd5b7f63616e74206e6f74207573652074686973000000000000000000000000000000600082015250565b6102938161022a565b811461029e57600080fd5b5056fea2646970667358221220c2fbd670c6ef29d3d91bb6b413228ccafb0e160b8ae5b6b19ef3b766f0b85ac764736f6c63430008070033a2646970667358221220d7bf6e8e1202771c8b4d159ff0659ab84c86e8f4c4a0df811c32b900ec58356b64736f6c63430008070033",
					"opcodes": "PUSH1 0x80 PUSH1 0x40 MSTORE CALLVALUE DUP1 ISZERO PUSH2 0x10 JUMPI PUSH1 0x0 DUP1 REVERT JUMPDEST POP PUSH2 0x7FF DUP1 PUSH2 0x20 PUSH1 0x0 CODECOPY PUSH1 0x0 RETURN INVALID PUSH1 0x80 PUSH1 0x40 MSTORE CALLVALUE DUP1 ISZERO PUSH2 0x10 JUMPI PUSH1 0x0 DUP1 REVERT JUMPDEST POP PUSH1 0x4 CALLDATASIZE LT PUSH2 0x41 JUMPI PUSH1 0x0 CALLDATALOAD PUSH1 0xE0 SHR DUP1 PUSH4 0x5354F855 EQ PUSH2 0x46 JUMPI DUP1 PUSH4 0xBED7DDF3 EQ PUSH2 0x76 JUMPI DUP1 PUSH4 0xF05F9668 EQ PUSH2 0xA6 JUMPI JUMPDEST PUSH1 0x0 DUP1 REVERT JUMPDEST PUSH2 0x60 PUSH1 0x4 DUP1 CALLDATASIZE SUB DUP2 ADD SWAP1 PUSH2 0x5B SWAP2 SWAP1 PUSH2 0x266 JUMP JUMPDEST PUSH2 0xC4 JUMP JUMPDEST PUSH1 0x40 MLOAD PUSH2 0x6D SWAP2 SWAP1 PUSH2 0x36D JUMP JUMPDEST PUSH1 0x40 MLOAD DUP1 SWAP2 SUB SWAP1 RETURN JUMPDEST PUSH2 0x90 PUSH1 0x4 DUP1 CALLDATASIZE SUB DUP2 ADD SWAP1 PUSH2 0x8B SWAP2 SWAP1 PUSH2 0x239 JUMP JUMPDEST PUSH2 0x13A JUMP JUMPDEST PUSH1 0x40 MLOAD PUSH2 0x9D SWAP2 SWAP1 PUSH2 0x36D JUMP JUMPDEST PUSH1 0x40 MLOAD DUP1 SWAP2 SUB SWAP1 RETURN JUMPDEST PUSH2 0xAE PUSH2 0x1D1 JUMP JUMPDEST PUSH1 0x40 MLOAD PUSH2 0xBB SWAP2 SWAP1 PUSH2 0x36D JUMP JUMPDEST PUSH1 0x40 MLOAD DUP1 SWAP2 SUB SWAP1 RETURN JUMPDEST PUSH1 0x60 PUSH1 0x0 PUSH1 0x40 MLOAD DUP1 PUSH1 0x20 ADD PUSH2 0xD8 SWAP1 PUSH2 0x202 JUMP JUMPDEST PUSH1 0x20 DUP3 ADD DUP2 SUB DUP3 MSTORE PUSH1 0x1F NOT PUSH1 0x1F DUP3 ADD AND PUSH1 0x40 MSTORE POP SWAP1 POP DUP1 DUP5 DUP5 PUSH1 0x40 MLOAD PUSH1 0x20 ADD PUSH2 0x102 SWAP3 SWAP2 SWAP1 PUSH2 0x38F JUMP JUMPDEST PUSH1 0x40 MLOAD PUSH1 0x20 DUP2 DUP4 SUB SUB DUP2 MSTORE SWAP1 PUSH1 0x40 MSTORE PUSH1 0x40 MLOAD PUSH1 0x20 ADD PUSH2 0x122 SWAP3 SWAP2 SWAP1 PUSH2 0x32E JUMP JUMPDEST PUSH1 0x40 MLOAD PUSH1 0x20 DUP2 DUP4 SUB SUB DUP2 MSTORE SWAP1 PUSH1 0x40 MSTORE SWAP2 POP POP SWAP3 SWAP2 POP POP JUMP JUMPDEST PUSH1 0x60 DUP2 PUSH1 0x40 MLOAD PUSH1 0x24 ADD PUSH2 0x14D SWAP2 SWAP1 PUSH2 0x352 JUMP JUMPDEST PUSH1 0x40 MLOAD PUSH1 0x20 DUP2 DUP4 SUB SUB DUP2 MSTORE SWAP1 PUSH1 0x40 MSTORE PUSH32 0x13AF403500000000000000000000000000000000000000000000000000000000 PUSH28 0xFFFFFFFFFFFFFFFFFFFFFFFFFFFFFFFFFFFFFFFFFFFFFFFFFFFFFFFF NOT AND PUSH1 0x20 DUP3 ADD DUP1 MLOAD PUSH28 0xFFFFFFFFFFFFFFFFFFFFFFFFFFFFFFFFFFFFFFFFFFFFFFFFFFFFFFFF DUP4 DUP2 DUP4 AND OR DUP4 MSTORE POP POP POP POP SWAP1 POP SWAP2 SWAP1 POP JUMP JUMPDEST PUSH1 0x60 PUSH1 0x0 PUSH1 0x40 MLOAD DUP1 PUSH1 0x20 ADD PUSH2 0x1E5 SWAP1 PUSH2 0x202 JUMP JUMPDEST PUSH1 0x20 DUP3 ADD DUP2 SUB DUP3 MSTORE PUSH1 0x1F NOT PUSH1 0x1F DUP3 ADD AND PUSH1 0x40 MSTORE POP SWAP1 POP DUP1 SWAP2 POP POP SWAP1 JUMP JUMPDEST PUSH2 0x337 DUP1 PUSH2 0x493 DUP4 CODECOPY ADD SWAP1 JUMP JUMPDEST PUSH1 0x0 DUP2 CALLDATALOAD SWAP1 POP PUSH2 0x21E DUP2 PUSH2 0x464 JUMP JUMPDEST SWAP3 SWAP2 POP POP JUMP JUMPDEST PUSH1 0x0 DUP2 CALLDATALOAD SWAP1 POP PUSH2 0x233 DUP2 PUSH2 0x47B JUMP JUMPDEST SWAP3 SWAP2 POP POP JUMP JUMPDEST PUSH1 0x0 PUSH1 0x20 DUP3 DUP5 SUB SLT ISZERO PUSH2 0x24F JUMPI PUSH2 0x24E PUSH2 0x44E JUMP JUMPDEST JUMPDEST PUSH1 0x0 PUSH2 0x25D DUP5 DUP3 DUP6 ADD PUSH2 0x20F JUMP JUMPDEST SWAP2 POP POP SWAP3 SWAP2 POP POP JUMP JUMPDEST PUSH1 0x0 DUP1 PUSH1 0x40 DUP4 DUP6 SUB SLT ISZERO PUSH2 0x27D JUMPI PUSH2 0x27C PUSH2 0x44E JUMP JUMPDEST JUMPDEST PUSH1 0x0 PUSH2 0x28B DUP6 DUP3 DUP7 ADD PUSH2 0x224 JUMP JUMPDEST SWAP3 POP POP PUSH1 0x20 PUSH2 0x29C DUP6 DUP3 DUP7 ADD PUSH2 0x224 JUMP JUMPDEST SWAP2 POP POP SWAP3 POP SWAP3 SWAP1 POP JUMP JUMPDEST PUSH2 0x2AF DUP2 PUSH2 0x3DF JUMP JUMPDEST DUP3 MSTORE POP POP JUMP JUMPDEST PUSH1 0x0 PUSH2 0x2C0 DUP3 PUSH2 0x3B8 JUMP JUMPDEST PUSH2 0x2CA DUP2 DUP6 PUSH2 0x3C3 JUMP JUMPDEST SWAP4 POP PUSH2 0x2DA DUP2 DUP6 PUSH1 0x20 DUP7 ADD PUSH2 0x41B JUMP JUMPDEST PUSH2 0x2E3 DUP2 PUSH2 0x453 JUMP JUMPDEST DUP5 ADD SWAP2 POP POP SWAP3 SWAP2 POP POP JUMP JUMPDEST PUSH1 0x0 PUSH2 0x2F9 DUP3 PUSH2 0x3B8 JUMP JUMPDEST PUSH2 0x303 DUP2 DUP6 PUSH2 0x3D4 JUMP JUMPDEST SWAP4 POP PUSH2 0x313 DUP2 DUP6 PUSH1 0x20 DUP7 ADD PUSH2 0x41B JUMP JUMPDEST DUP1 DUP5 ADD SWAP2 POP POP SWAP3 SWAP2 POP POP JUMP JUMPDEST PUSH2 0x328 DUP2 PUSH2 0x411 JUMP JUMPDEST DUP3 MSTORE POP POP JUMP JUMPDEST PUSH1 0x0 PUSH2 0x33A DUP3 DUP6 PUSH2 0x2EE JUMP JUMPDEST SWAP2 POP PUSH2 0x346 DUP3 DUP5 PUSH2 0x2EE JUMP JUMPDEST SWAP2 POP DUP2 SWAP1 POP SWAP4 SWAP3 POP POP POP JUMP JUMPDEST PUSH1 0x0 PUSH1 0x20 DUP3 ADD SWAP1 POP PUSH2 0x367 PUSH1 0x0 DUP4 ADD DUP5 PUSH2 0x2A6 JUMP JUMPDEST SWAP3 SWAP2 POP POP JUMP JUMPDEST PUSH1 0x0 PUSH1 0x20 DUP3 ADD SWAP1 POP DUP2 DUP2 SUB PUSH1 0x0 DUP4 ADD MSTORE PUSH2 0x387 DUP2 DUP5 PUSH2 0x2B5 JUMP JUMPDEST SWAP1 POP SWAP3 SWAP2 POP POP JUMP JUMPDEST PUSH1 0x0 PUSH1 0x40 DUP3 ADD SWAP1 POP PUSH2 0x3A4 PUSH1 0x0 DUP4 ADD DUP6 PUSH2 0x31F JUMP JUMPDEST PUSH2 0x3B1 PUSH1 0x20 DUP4 ADD DUP5 PUSH2 0x31F JUMP JUMPDEST SWAP4 SWAP3 POP POP POP JUMP JUMPDEST PUSH1 0x0 DUP2 MLOAD SWAP1 POP SWAP2 SWAP1 POP JUMP JUMPDEST PUSH1 0x0 DUP3 DUP3 MSTORE PUSH1 0x20 DUP3 ADD SWAP1 POP SWAP3 SWAP2 POP POP JUMP JUMPDEST PUSH1 0x0 DUP2 SWAP1 POP SWAP3 SWAP2 POP POP JUMP JUMPDEST PUSH1 0x0 PUSH2 0x3EA DUP3 PUSH2 0x3F1 JUMP JUMPDEST SWAP1 POP SWAP2 SWAP1 POP JUMP JUMPDEST PUSH1 0x0 PUSH20 0xFFFFFFFFFFFFFFFFFFFFFFFFFFFFFFFFFFFFFFFF DUP3 AND SWAP1 POP SWAP2 SWAP1 POP JUMP JUMPDEST PUSH1 0x0 DUP2 SWAP1 POP SWAP2 SWAP1 POP JUMP JUMPDEST PUSH1 0x0 JUMPDEST DUP4 DUP2 LT ISZERO PUSH2 0x439 JUMPI DUP1 DUP3 ADD MLOAD DUP2 DUP5 ADD MSTORE PUSH1 0x20 DUP2 ADD SWAP1 POP PUSH2 0x41E JUMP JUMPDEST DUP4 DUP2 GT ISZERO PUSH2 0x448 JUMPI PUSH1 0x0 DUP5 DUP5 ADD MSTORE JUMPDEST POP POP POP POP JUMP JUMPDEST PUSH1 0x0 DUP1 REVERT JUMPDEST PUSH1 0x0 PUSH1 0x1F NOT PUSH1 0x1F DUP4 ADD AND SWAP1 POP SWAP2 SWAP1 POP JUMP JUMPDEST PUSH2 0x46D DUP2 PUSH2 0x3DF JUMP JUMPDEST DUP2 EQ PUSH2 0x478 JUMPI PUSH1 0x0 DUP1 REVERT JUMPDEST POP JUMP JUMPDEST PUSH2 0x484 DUP2 PUSH2 0x411 JUMP JUMPDEST DUP2 EQ PUSH2 0x48F JUMPI PUSH1 0x0 DUP1 REVERT JUMPDEST POP JUMP INVALID PUSH1 0x80 PUSH1 0x40 MSTORE CALLER PUSH1 0x0 DUP1 PUSH2 0x100 EXP DUP2 SLOAD DUP2 PUSH20 0xFFFFFFFFFFFFFFFFFFFFFFFFFFFFFFFFFFFFFFFF MUL NOT AND SWAP1 DUP4 PUSH20 0xFFFFFFFFFFFFFFFFFFFFFFFFFFFFFFFFFFFFFFFF AND MUL OR SWAP1 SSTORE POP CALLVALUE DUP1 ISZERO PUSH2 0x50 JUMPI PUSH1 0x0 DUP1 REVERT JUMPDEST POP PUSH2 0x2D7 DUP1 PUSH2 0x60 PUSH1 0x0 CODECOPY PUSH1 0x0 RETURN INVALID PUSH1 0x80 PUSH1 0x40 MSTORE CALLVALUE DUP1 ISZERO PUSH2 0x10 JUMPI PUSH1 0x0 DUP1 REVERT JUMPDEST POP PUSH1 0x4 CALLDATASIZE LT PUSH2 0x36 JUMPI PUSH1 0x0 CALLDATALOAD PUSH1 0xE0 SHR DUP1 PUSH4 0x13AF4035 EQ PUSH2 0x3B JUMPI DUP1 PUSH4 0x8DA5CB5B EQ PUSH2 0x57 JUMPI JUMPDEST PUSH1 0x0 DUP1 REVERT JUMPDEST PUSH2 0x55 PUSH1 0x4 DUP1 CALLDATASIZE SUB DUP2 ADD SWAP1 PUSH2 0x50 SWAP2 SWAP1 PUSH2 0x17F JUMP JUMPDEST PUSH2 0x75 JUMP JUMPDEST STOP JUMPDEST PUSH2 0x5F PUSH2 0x146 JUMP JUMPDEST PUSH1 0x40 MLOAD PUSH2 0x6C SWAP2 SWAP1 PUSH2 0x1DE JUMP JUMPDEST PUSH1 0x40 MLOAD DUP1 SWAP2 SUB SWAP1 RETURN JUMPDEST PUSH1 0x0 DUP1 SLOAD SWAP1 PUSH2 0x100 EXP SWAP1 DIV PUSH20 0xFFFFFFFFFFFFFFFFFFFFFFFFFFFFFFFFFFFFFFFF AND PUSH20 0xFFFFFFFFFFFFFFFFFFFFFFFFFFFFFFFFFFFFFFFF AND CALLER PUSH20 0xFFFFFFFFFFFFFFFFFFFFFFFFFFFFFFFFFFFFFFFF AND EQ PUSH2 0x103 JUMPI PUSH1 0x40 MLOAD PUSH32 0x8C379A000000000000000000000000000000000000000000000000000000000 DUP2 MSTORE PUSH1 0x4 ADD PUSH2 0xFA SWAP1 PUSH2 0x1F9 JUMP JUMPDEST PUSH1 0x40 MLOAD DUP1 SWAP2 SUB SWAP1 REVERT JUMPDEST DUP1 PUSH1 0x0 DUP1 PUSH2 0x100 EXP DUP2 SLOAD DUP2 PUSH20 0xFFFFFFFFFFFFFFFFFFFFFFFFFFFFFFFFFFFFFFFF MUL NOT AND SWAP1 DUP4 PUSH20 0xFFFFFFFFFFFFFFFFFFFFFFFFFFFFFFFFFFFFFFFF AND MUL OR SWAP1 SSTORE POP POP JUMP JUMPDEST PUSH1 0x0 DUP1 SLOAD SWAP1 PUSH2 0x100 EXP SWAP1 DIV PUSH20 0xFFFFFFFFFFFFFFFFFFFFFFFFFFFFFFFFFFFFFFFF AND DUP2 JUMP JUMPDEST PUSH1 0x0 DUP2 CALLDATALOAD SWAP1 POP PUSH2 0x179 DUP2 PUSH2 0x28A JUMP JUMPDEST SWAP3 SWAP2 POP POP JUMP JUMPDEST PUSH1 0x0 PUSH1 0x20 DUP3 DUP5 SUB SLT ISZERO PUSH2 0x195 JUMPI PUSH2 0x194 PUSH2 0x25C JUMP JUMPDEST JUMPDEST PUSH1 0x0 PUSH2 0x1A3 DUP5 DUP3 DUP6 ADD PUSH2 0x16A JUMP JUMPDEST SWAP2 POP POP SWAP3 SWAP2 POP POP JUMP JUMPDEST PUSH2 0x1B5 DUP2 PUSH2 0x22A JUMP JUMPDEST DUP3 MSTORE POP POP JUMP JUMPDEST PUSH1 0x0 PUSH2 0x1C8 PUSH1 0x11 DUP4 PUSH2 0x219 JUMP JUMPDEST SWAP2 POP PUSH2 0x1D3 DUP3 PUSH2 0x261 JUMP JUMPDEST PUSH1 0x20 DUP3 ADD SWAP1 POP SWAP2 SWAP1 POP JUMP JUMPDEST PUSH1 0x0 PUSH1 0x20 DUP3 ADD SWAP1 POP PUSH2 0x1F3 PUSH1 0x0 DUP4 ADD DUP5 PUSH2 0x1AC JUMP JUMPDEST SWAP3 SWAP2 POP POP JUMP JUMPDEST PUSH1 0x0 PUSH1 0x20 DUP3 ADD SWAP1 POP DUP2 DUP2 SUB PUSH1 0x0 DUP4 ADD MSTORE PUSH2 0x212 DUP2 PUSH2 0x1BB JUMP JUMPDEST SWAP1 POP SWAP2 SWAP1 POP JUMP JUMPDEST PUSH1 0x0 DUP3 DUP3 MSTORE PUSH1 0x20 DUP3 ADD SWAP1 POP SWAP3 SWAP2 POP POP JUMP JUMPDEST PUSH1 0x0 PUSH2 0x235 DUP3 PUSH2 0x23C JUMP JUMPDEST SWAP1 POP SWAP2 SWAP1 POP JUMP JUMPDEST PUSH1 0x0 PUSH20 0xFFFFFFFFFFFFFFFFFFFFFFFFFFFFFFFFFFFFFFFF DUP3 AND SWAP1 POP SWAP2 SWAP1 POP JUMP JUMPDEST PUSH1 0x0 DUP1 REVERT JUMPDEST PUSH32 0x63616E74206E6F74207573652074686973000000000000000000000000000000 PUSH1 0x0 DUP3 ADD MSTORE POP JUMP JUMPDEST PUSH2 0x293 DUP2 PUSH2 0x22A JUMP JUMPDEST DUP2 EQ PUSH2 0x29E JUMPI PUSH1 0x0 DUP1 REVERT JUMPDEST POP JUMP INVALID LOG2 PUSH5 0x6970667358 0x22 SLT KECCAK256 0xC2 0xFB 0xD6 PUSH17 0xC6EF29D3D91BB6B413228CCAFB0E160B8A 0xE5 0xB6 0xB1 SWAP15 RETURN 0xB7 PUSH7 0xF0B85AC764736F PUSH13 0x63430008070033A26469706673 PC 0x22 SLT KECCAK256 0xD7 0xBF PUSH15 0x8E1202771C8B4D159FF0659AB84C86 0xE8 DELEGATECALL 0xC4 LOG0 0xDF DUP2 SHR ORIGIN 0xB9 STOP 0xEC PC CALLDATALOAD PUSH12 0x64736F6C6343000807003300 "
				},
				"gasEstimates": {
					"creation": {
						"codeDepositCost": "409400",
						"executionCost": "443",
						"totalCost": "409843"
					},
					"external": {
						"getByteCode1()": "infinite",
						"getByteCode2(uint256,uint256)": "infinite",
						"getCalldate(address)": "infinite"
					}
				},
				"methodIdentifiers": {
					"getByteCode1()": "f05f9668",
					"getByteCode2(uint256,uint256)": "5354f855",
					"getCalldate(address)": "bed7ddf3"
				}
			},
			"storageLayout": {
				"storage": [],
				"types": null
			},
			"userdoc": {
				"kind": "user",
				"methods": {},
				"version": 1
			}
		}
	}
}