{
	"code9/1deploy.sol": {
		"Proxy": {
			"abi": [
				{
					"anonymous": false,
					"inputs": [
						{
							"indexed": false,
							"internalType": "address",
							"name": "",
							"type": "address"
						}
					],
					"name": "Deploy",
					"type": "event"
				},
				{
					"stateMutability": "payable",
					"type": "fallback"
				},
				{
					"inputs": [
						{
							"internalType": "bytes",
							"name": "_code",
							"type": "bytes"
						}
					],
					"name": "deploy",
					"outputs": [
						{
							"internalType": "address",
							"name": "addr",
							"type": "address"
						}
					],
					"stateMutability": "payable",
					"type": "function"
				},
				{
					"inputs": [
						{
							"internalType": "address",
							"name": "target",
							"type": "address"
						},
						{
							"internalType": "bytes",
							"name": "_data",
							"type": "bytes"
						}
					],
					"name": "excte",
					"outputs": [],
					"stateMutability": "payable",
					"type": "function"
				},
				{
					"stateMutability": "payable",
					"type": "receive"
				}
			],
			"devdoc": {
				"kind": "dev",
				"methods": {},
				"version": 1
			},
			"evm": {
				"assembly": "    /* \"code9/1deploy.sol\":496:1315  contract Proxy{... */\n  mstore(0x40, 0x80)\n  callvalue\n  dup1\n  iszero\n  tag_1\n  jumpi\n  0x00\n  dup1\n  revert\ntag_1:\n  pop\n  dataSize(sub_0)\n  dup1\n  dataOffset(sub_0)\n  0x00\n  codecopy\n  0x00\n  return\nstop\n\nsub_0: assembly {\n        /* \"code9/1deploy.sol\":496:1315  contract Proxy{... */\n      mstore(0x40, 0x80)\n      jumpi(tag_1, lt(calldatasize, 0x04))\n      shr(0xe0, calldataload(0x00))\n      dup1\n      0x774360\n      eq\n      tag_3\n      jumpi\n      dup1\n      0x4eabf560\n      eq\n      tag_4\n      jumpi\n      jump(tag_2)\n    tag_1:\n      jumpi(tag_2, calldatasize)\n      stop\n    tag_2:\n      stop\n        /* \"code9/1deploy.sol\":607:1143  function deploy(bytes memory _code)external payable returns(address addr){... */\n    tag_3:\n      tag_9\n      0x04\n      dup1\n      calldatasize\n      sub\n      dup2\n      add\n      swap1\n      tag_10\n      swap2\n      swap1\n      tag_11\n      jump\t// in\n    tag_10:\n      tag_12\n      jump\t// in\n    tag_9:\n      mload(0x40)\n      tag_13\n      swap2\n      swap1\n      tag_14\n      jump\t// in\n    tag_13:\n      mload(0x40)\n      dup1\n      swap2\n      sub\n      swap1\n      return\n        /* \"code9/1deploy.sol\":1147:1313  function excte(address target,bytes memory _data)external payable {... */\n    tag_4:\n      tag_15\n      0x04\n      dup1\n      calldatasize\n      sub\n      dup2\n      add\n      swap1\n      tag_16\n      swap2\n      swap1\n      tag_17\n      jump\t// in\n    tag_16:\n      tag_18\n      jump\t// in\n    tag_15:\n      stop\n        /* \"code9/1deploy.sol\":607:1143  function deploy(bytes memory _code)external payable returns(address addr){... */\n    tag_12:\n        /* \"code9/1deploy.sol\":667:679  address addr */\n      0x00\n        /* \"code9/1deploy.sol\":1046:1051  _code */\n      dup2\n        /* \"code9/1deploy.sol\":1040:1052  mload(_code) */\n      mload\n        /* \"code9/1deploy.sol\":1034:1038  0x20 */\n      0x20\n        /* \"code9/1deploy.sol\":1028:1033  _code */\n      dup4\n        /* \"code9/1deploy.sol\":1024:1039  add(_code,0x20) */\n      add\n        /* \"code9/1deploy.sol\":1012:1023  callvalue() */\n      callvalue\n        /* \"code9/1deploy.sol\":1005:1053  create(callvalue(),add(_code,0x20),mload(_code)) */\n      create\n        /* \"code9/1deploy.sol\":999:1053  addr:=create(callvalue(),add(_code,0x20),mload(_code)) */\n      swap1\n      pop\n        /* \"code9/1deploy.sol\":1094:1095  0 */\n      0x00\n        /* \"code9/1deploy.sol\":1078:1096  addr != address(0) */\n      0xffffffffffffffffffffffffffffffffffffffff\n      and\n        /* \"code9/1deploy.sol\":1078:1082  addr */\n      dup2\n        /* \"code9/1deploy.sol\":1078:1096  addr != address(0) */\n      0xffffffffffffffffffffffffffffffffffffffff\n      and\n      eq\n      iszero\n        /* \"code9/1deploy.sol\":1070:1111  require(addr != address(0),\"deploy fail\") */\n      tag_20\n      jumpi\n      mload(0x40)\n      0x08c379a000000000000000000000000000000000000000000000000000000000\n      dup2\n      mstore\n      0x04\n      add\n      tag_21\n      swap1\n      tag_22\n      jump\t// in\n    tag_21:\n      mload(0x40)\n      dup1\n      swap2\n      sub\n      swap1\n      revert\n    tag_20:\n        /* \"code9/1deploy.sol\":1125:1137  Deploy(addr) */\n      0x55ea6c6b31543d8e2ec6a72f71a79c0f4b72ed0d4757172b043d8f4f4cd84848\n        /* \"code9/1deploy.sol\":1132:1136  addr */\n      dup2\n        /* \"code9/1deploy.sol\":1125:1137  Deploy(addr) */\n      mload(0x40)\n      tag_23\n      swap2\n      swap1\n      tag_14\n      jump\t// in\n    tag_23:\n      mload(0x40)\n      dup1\n      swap2\n      sub\n      swap1\n      log1\n        /* \"code9/1deploy.sol\":607:1143  function deploy(bytes memory _code)external payable returns(address addr){... */\n      swap2\n      swap1\n      pop\n      jump\t// out\n        /* \"code9/1deploy.sol\":1147:1313  function excte(address target,bytes memory _data)external payable {... */\n    tag_18:\n        /* \"code9/1deploy.sol\":1223:1235  bool success */\n      0x00\n        /* \"code9/1deploy.sol\":1238:1244  target */\n      dup3\n        /* \"code9/1deploy.sol\":1238:1249  target.call */\n      0xffffffffffffffffffffffffffffffffffffffff\n      and\n        /* \"code9/1deploy.sol\":1256:1265  msg.value */\n      callvalue\n        /* \"code9/1deploy.sol\":1267:1272  _data */\n      dup4\n        /* \"code9/1deploy.sol\":1238:1273  target.call{value:msg.value}(_data) */\n      mload(0x40)\n      tag_25\n      swap2\n      swap1\n      tag_26\n      jump\t// in\n    tag_25:\n      0x00\n      mload(0x40)\n      dup1\n      dup4\n      sub\n      dup2\n      dup6\n      dup8\n      gas\n      call\n      swap3\n      pop\n      pop\n      pop\n      returndatasize\n      dup1\n      0x00\n      dup2\n      eq\n      tag_29\n      jumpi\n      mload(0x40)\n      swap2\n      pop\n      and(add(returndatasize, 0x3f), not(0x1f))\n      dup3\n      add\n      0x40\n      mstore\n      returndatasize\n      dup3\n      mstore\n      returndatasize\n      0x00\n      0x20\n      dup5\n      add\n      returndatacopy\n      jump(tag_28)\n    tag_29:\n      0x60\n      swap2\n      pop\n    tag_28:\n      pop\n        /* \"code9/1deploy.sol\":1222:1273  (bool success,)=target.call{value:msg.value}(_data) */\n      pop\n      swap1\n      pop\n        /* \"code9/1deploy.sol\":1290:1297  success */\n      dup1\n        /* \"code9/1deploy.sol\":1282:1307  require(success,\"failed\") */\n      tag_30\n      jumpi\n      mload(0x40)\n      0x08c379a000000000000000000000000000000000000000000000000000000000\n      dup2\n      mstore\n      0x04\n      add\n      tag_31\n      swap1\n      tag_32\n      jump\t// in\n    tag_31:\n      mload(0x40)\n      dup1\n      swap2\n      sub\n      swap1\n      revert\n    tag_30:\n        /* \"code9/1deploy.sol\":1213:1313  {... */\n      pop\n        /* \"code9/1deploy.sol\":1147:1313  function excte(address target,bytes memory _data)external payable {... */\n      pop\n      pop\n      jump\t// out\n        /* \"#utility.yul\":7:417   */\n    tag_34:\n        /* \"#utility.yul\":84:89   */\n      0x00\n        /* \"#utility.yul\":109:174   */\n      tag_36\n        /* \"#utility.yul\":125:173   */\n      tag_37\n        /* \"#utility.yul\":166:172   */\n      dup5\n        /* \"#utility.yul\":125:173   */\n      tag_38\n      jump\t// in\n    tag_37:\n        /* \"#utility.yul\":109:174   */\n      tag_39\n      jump\t// in\n    tag_36:\n        /* \"#utility.yul\":100:174   */\n      swap1\n      pop\n        /* \"#utility.yul\":197:203   */\n      dup3\n        /* \"#utility.yul\":190:195   */\n      dup2\n        /* \"#utility.yul\":183:204   */\n      mstore\n        /* \"#utility.yul\":235:239   */\n      0x20\n        /* \"#utility.yul\":228:233   */\n      dup2\n        /* \"#utility.yul\":224:240   */\n      add\n        /* \"#utility.yul\":273:276   */\n      dup5\n        /* \"#utility.yul\":264:270   */\n      dup5\n        /* \"#utility.yul\":259:262   */\n      dup5\n        /* \"#utility.yul\":255:271   */\n      add\n        /* \"#utility.yul\":252:277   */\n      gt\n        /* \"#utility.yul\":249:361   */\n      iszero\n      tag_40\n      jumpi\n        /* \"#utility.yul\":280:359   */\n      tag_41\n      tag_42\n      jump\t// in\n    tag_41:\n        /* \"#utility.yul\":249:361   */\n    tag_40:\n        /* \"#utility.yul\":370:411   */\n      tag_43\n        /* \"#utility.yul\":404:410   */\n      dup5\n        /* \"#utility.yul\":399:402   */\n      dup3\n        /* \"#utility.yul\":394:397   */\n      dup6\n        /* \"#utility.yul\":370:411   */\n      tag_44\n      jump\t// in\n    tag_43:\n        /* \"#utility.yul\":90:417   */\n      pop\n        /* \"#utility.yul\":7:417   */\n      swap4\n      swap3\n      pop\n      pop\n      pop\n      jump\t// out\n        /* \"#utility.yul\":423:562   */\n    tag_45:\n        /* \"#utility.yul\":469:474   */\n      0x00\n        /* \"#utility.yul\":507:513   */\n      dup2\n        /* \"#utility.yul\":494:514   */\n      calldataload\n        /* \"#utility.yul\":485:514   */\n      swap1\n      pop\n        /* \"#utility.yul\":523:556   */\n      tag_47\n        /* \"#utility.yul\":550:555   */\n      dup2\n        /* \"#utility.yul\":523:556   */\n      tag_48\n      jump\t// in\n    tag_47:\n        /* \"#utility.yul\":423:562   */\n      swap3\n      swap2\n      pop\n      pop\n      jump\t// out\n        /* \"#utility.yul\":581:919   */\n    tag_49:\n        /* \"#utility.yul\":636:641   */\n      0x00\n        /* \"#utility.yul\":685:688   */\n      dup3\n        /* \"#utility.yul\":678:682   */\n      0x1f\n        /* \"#utility.yul\":670:676   */\n      dup4\n        /* \"#utility.yul\":666:683   */\n      add\n        /* \"#utility.yul\":662:689   */\n      slt\n        /* \"#utility.yul\":652:774   */\n      tag_51\n      jumpi\n        /* \"#utility.yul\":693:772   */\n      tag_52\n      tag_53\n      jump\t// in\n    tag_52:\n        /* \"#utility.yul\":652:774   */\n    tag_51:\n        /* \"#utility.yul\":810:816   */\n      dup2\n        /* \"#utility.yul\":797:817   */\n      calldataload\n        /* \"#utility.yul\":835:913   */\n      tag_54\n        /* \"#utility.yul\":909:912   */\n      dup5\n        /* \"#utility.yul\":901:907   */\n      dup3\n        /* \"#utility.yul\":894:898   */\n      0x20\n        /* \"#utility.yul\":886:892   */\n      dup7\n        /* \"#utility.yul\":882:899   */\n      add\n        /* \"#utility.yul\":835:913   */\n      tag_34\n      jump\t// in\n    tag_54:\n        /* \"#utility.yul\":826:913   */\n      swap2\n      pop\n        /* \"#utility.yul\":642:919   */\n      pop\n        /* \"#utility.yul\":581:919   */\n      swap3\n      swap2\n      pop\n      pop\n      jump\t// out\n        /* \"#utility.yul\":925:1577   */\n    tag_17:\n        /* \"#utility.yul\":1002:1008   */\n      0x00\n        /* \"#utility.yul\":1010:1016   */\n      dup1\n        /* \"#utility.yul\":1059:1061   */\n      0x40\n        /* \"#utility.yul\":1047:1056   */\n      dup4\n        /* \"#utility.yul\":1038:1045   */\n      dup6\n        /* \"#utility.yul\":1034:1057   */\n      sub\n        /* \"#utility.yul\":1030:1062   */\n      slt\n        /* \"#utility.yul\":1027:1146   */\n      iszero\n      tag_56\n      jumpi\n        /* \"#utility.yul\":1065:1144   */\n      tag_57\n      tag_58\n      jump\t// in\n    tag_57:\n        /* \"#utility.yul\":1027:1146   */\n    tag_56:\n        /* \"#utility.yul\":1185:1186   */\n      0x00\n        /* \"#utility.yul\":1210:1263   */\n      tag_59\n        /* \"#utility.yul\":1255:1262   */\n      dup6\n        /* \"#utility.yul\":1246:1252   */\n      dup3\n        /* \"#utility.yul\":1235:1244   */\n      dup7\n        /* \"#utility.yul\":1231:1253   */\n      add\n        /* \"#utility.yul\":1210:1263   */\n      tag_45\n      jump\t// in\n    tag_59:\n        /* \"#utility.yul\":1200:1263   */\n      swap3\n      pop\n        /* \"#utility.yul\":1156:1273   */\n      pop\n        /* \"#utility.yul\":1340:1342   */\n      0x20\n        /* \"#utility.yul\":1329:1338   */\n      dup4\n        /* \"#utility.yul\":1325:1343   */\n      add\n        /* \"#utility.yul\":1312:1344   */\n      calldataload\n        /* \"#utility.yul\":1371:1389   */\n      0xffffffffffffffff\n        /* \"#utility.yul\":1363:1369   */\n      dup2\n        /* \"#utility.yul\":1360:1390   */\n      gt\n        /* \"#utility.yul\":1357:1474   */\n      iszero\n      tag_60\n      jumpi\n        /* \"#utility.yul\":1393:1472   */\n      tag_61\n      tag_62\n      jump\t// in\n    tag_61:\n        /* \"#utility.yul\":1357:1474   */\n    tag_60:\n        /* \"#utility.yul\":1498:1560   */\n      tag_63\n        /* \"#utility.yul\":1552:1559   */\n      dup6\n        /* \"#utility.yul\":1543:1549   */\n      dup3\n        /* \"#utility.yul\":1532:1541   */\n      dup7\n        /* \"#utility.yul\":1528:1550   */\n      add\n        /* \"#utility.yul\":1498:1560   */\n      tag_49\n      jump\t// in\n    tag_63:\n        /* \"#utility.yul\":1488:1560   */\n      swap2\n      pop\n        /* \"#utility.yul\":1283:1570   */\n      pop\n        /* \"#utility.yul\":925:1577   */\n      swap3\n      pop\n      swap3\n      swap1\n      pop\n      jump\t// out\n        /* \"#utility.yul\":1583:2090   */\n    tag_11:\n        /* \"#utility.yul\":1651:1657   */\n      0x00\n        /* \"#utility.yul\":1700:1702   */\n      0x20\n        /* \"#utility.yul\":1688:1697   */\n      dup3\n        /* \"#utility.yul\":1679:1686   */\n      dup5\n        /* \"#utility.yul\":1675:1698   */\n      sub\n        /* \"#utility.yul\":1671:1703   */\n      slt\n        /* \"#utility.yul\":1668:1787   */\n      iszero\n      tag_65\n      jumpi\n        /* \"#utility.yul\":1706:1785   */\n      tag_66\n      tag_58\n      jump\t// in\n    tag_66:\n        /* \"#utility.yul\":1668:1787   */\n    tag_65:\n        /* \"#utility.yul\":1854:1855   */\n      0x00\n        /* \"#utility.yul\":1843:1852   */\n      dup3\n        /* \"#utility.yul\":1839:1856   */\n      add\n        /* \"#utility.yul\":1826:1857   */\n      calldataload\n        /* \"#utility.yul\":1884:1902   */\n      0xffffffffffffffff\n        /* \"#utility.yul\":1876:1882   */\n      dup2\n        /* \"#utility.yul\":1873:1903   */\n      gt\n        /* \"#utility.yul\":1870:1987   */\n      iszero\n      tag_67\n      jumpi\n        /* \"#utility.yul\":1906:1985   */\n      tag_68\n      tag_62\n      jump\t// in\n    tag_68:\n        /* \"#utility.yul\":1870:1987   */\n    tag_67:\n        /* \"#utility.yul\":2011:2073   */\n      tag_69\n        /* \"#utility.yul\":2065:2072   */\n      dup5\n        /* \"#utility.yul\":2056:2062   */\n      dup3\n        /* \"#utility.yul\":2045:2054   */\n      dup6\n        /* \"#utility.yul\":2041:2063   */\n      add\n        /* \"#utility.yul\":2011:2073   */\n      tag_49\n      jump\t// in\n    tag_69:\n        /* \"#utility.yul\":2001:2073   */\n      swap2\n      pop\n        /* \"#utility.yul\":1797:2083   */\n      pop\n        /* \"#utility.yul\":1583:2090   */\n      swap3\n      swap2\n      pop\n      pop\n      jump\t// out\n        /* \"#utility.yul\":2096:2214   */\n    tag_70:\n        /* \"#utility.yul\":2183:2207   */\n      tag_72\n        /* \"#utility.yul\":2201:2206   */\n      dup2\n        /* \"#utility.yul\":2183:2207   */\n      tag_73\n      jump\t// in\n    tag_72:\n        /* \"#utility.yul\":2178:2181   */\n      dup3\n        /* \"#utility.yul\":2171:2208   */\n      mstore\n        /* \"#utility.yul\":2096:2214   */\n      pop\n      pop\n      jump\t// out\n        /* \"#utility.yul\":2220:2593   */\n    tag_74:\n        /* \"#utility.yul\":2324:2327   */\n      0x00\n        /* \"#utility.yul\":2352:2390   */\n      tag_76\n        /* \"#utility.yul\":2384:2389   */\n      dup3\n        /* \"#utility.yul\":2352:2390   */\n      tag_77\n      jump\t// in\n    tag_76:\n        /* \"#utility.yul\":2406:2494   */\n      tag_78\n        /* \"#utility.yul\":2487:2493   */\n      dup2\n        /* \"#utility.yul\":2482:2485   */\n      dup6\n        /* \"#utility.yul\":2406:2494   */\n      tag_79\n      jump\t// in\n    tag_78:\n        /* \"#utility.yul\":2399:2494   */\n      swap4\n      pop\n        /* \"#utility.yul\":2503:2555   */\n      tag_80\n        /* \"#utility.yul\":2548:2554   */\n      dup2\n        /* \"#utility.yul\":2543:2546   */\n      dup6\n        /* \"#utility.yul\":2536:2540   */\n      0x20\n        /* \"#utility.yul\":2529:2534   */\n      dup7\n        /* \"#utility.yul\":2525:2541   */\n      add\n        /* \"#utility.yul\":2503:2555   */\n      tag_81\n      jump\t// in\n    tag_80:\n        /* \"#utility.yul\":2580:2586   */\n      dup1\n        /* \"#utility.yul\":2575:2578   */\n      dup5\n        /* \"#utility.yul\":2571:2587   */\n      add\n        /* \"#utility.yul\":2564:2587   */\n      swap2\n      pop\n        /* \"#utility.yul\":2328:2593   */\n      pop\n        /* \"#utility.yul\":2220:2593   */\n      swap3\n      swap2\n      pop\n      pop\n      jump\t// out\n        /* \"#utility.yul\":2599:2964   */\n    tag_82:\n        /* \"#utility.yul\":2741:2744   */\n      0x00\n        /* \"#utility.yul\":2762:2828   */\n      tag_84\n        /* \"#utility.yul\":2826:2827   */\n      0x06\n        /* \"#utility.yul\":2821:2824   */\n      dup4\n        /* \"#utility.yul\":2762:2828   */\n      tag_85\n      jump\t// in\n    tag_84:\n        /* \"#utility.yul\":2755:2828   */\n      swap2\n      pop\n        /* \"#utility.yul\":2837:2930   */\n      tag_86\n        /* \"#utility.yul\":2926:2929   */\n      dup3\n        /* \"#utility.yul\":2837:2930   */\n      tag_87\n      jump\t// in\n    tag_86:\n        /* \"#utility.yul\":2955:2957   */\n      0x20\n        /* \"#utility.yul\":2950:2953   */\n      dup3\n        /* \"#utility.yul\":2946:2958   */\n      add\n        /* \"#utility.yul\":2939:2958   */\n      swap1\n      pop\n        /* \"#utility.yul\":2599:2964   */\n      swap2\n      swap1\n      pop\n      jump\t// out\n        /* \"#utility.yul\":2970:3336   */\n    tag_88:\n        /* \"#utility.yul\":3112:3115   */\n      0x00\n        /* \"#utility.yul\":3133:3200   */\n      tag_90\n        /* \"#utility.yul\":3197:3199   */\n      0x0b\n        /* \"#utility.yul\":3192:3195   */\n      dup4\n        /* \"#utility.yul\":3133:3200   */\n      tag_85\n      jump\t// in\n    tag_90:\n        /* \"#utility.yul\":3126:3200   */\n      swap2\n      pop\n        /* \"#utility.yul\":3209:3302   */\n      tag_91\n        /* \"#utility.yul\":3298:3301   */\n      dup3\n        /* \"#utility.yul\":3209:3302   */\n      tag_92\n      jump\t// in\n    tag_91:\n        /* \"#utility.yul\":3327:3329   */\n      0x20\n        /* \"#utility.yul\":3322:3325   */\n      dup3\n        /* \"#utility.yul\":3318:3330   */\n      add\n        /* \"#utility.yul\":3311:3330   */\n      swap1\n      pop\n        /* \"#utility.yul\":2970:3336   */\n      swap2\n      swap1\n      pop\n      jump\t// out\n        /* \"#utility.yul\":3342:3613   */\n    tag_26:\n        /* \"#utility.yul\":3472:3475   */\n      0x00\n        /* \"#utility.yul\":3494:3587   */\n      tag_94\n        /* \"#utility.yul\":3583:3586   */\n      dup3\n        /* \"#utility.yul\":3574:3580   */\n      dup5\n        /* \"#utility.yul\":3494:3587   */\n      tag_74\n      jump\t// in\n    tag_94:\n        /* \"#utility.yul\":3487:3587   */\n      swap2\n      pop\n        /* \"#utility.yul\":3604:3607   */\n      dup2\n        /* \"#utility.yul\":3597:3607   */\n      swap1\n      pop\n        /* \"#utility.yul\":3342:3613   */\n      swap3\n      swap2\n      pop\n      pop\n      jump\t// out\n        /* \"#utility.yul\":3619:3841   */\n    tag_14:\n        /* \"#utility.yul\":3712:3716   */\n      0x00\n        /* \"#utility.yul\":3750:3752   */\n      0x20\n        /* \"#utility.yul\":3739:3748   */\n      dup3\n        /* \"#utility.yul\":3735:3753   */\n      add\n        /* \"#utility.yul\":3727:3753   */\n      swap1\n      pop\n        /* \"#utility.yul\":3763:3834   */\n      tag_96\n        /* \"#utility.yul\":3831:3832   */\n      0x00\n        /* \"#utility.yul\":3820:3829   */\n      dup4\n        /* \"#utility.yul\":3816:3833   */\n      add\n        /* \"#utility.yul\":3807:3813   */\n      dup5\n        /* \"#utility.yul\":3763:3834   */\n      tag_70\n      jump\t// in\n    tag_96:\n        /* \"#utility.yul\":3619:3841   */\n      swap3\n      swap2\n      pop\n      pop\n      jump\t// out\n        /* \"#utility.yul\":3847:4266   */\n    tag_32:\n        /* \"#utility.yul\":4013:4017   */\n      0x00\n        /* \"#utility.yul\":4051:4053   */\n      0x20\n        /* \"#utility.yul\":4040:4049   */\n      dup3\n        /* \"#utility.yul\":4036:4054   */\n      add\n        /* \"#utility.yul\":4028:4054   */\n      swap1\n      pop\n        /* \"#utility.yul\":4100:4109   */\n      dup2\n        /* \"#utility.yul\":4094:4098   */\n      dup2\n        /* \"#utility.yul\":4090:4110   */\n      sub\n        /* \"#utility.yul\":4086:4087   */\n      0x00\n        /* \"#utility.yul\":4075:4084   */\n      dup4\n        /* \"#utility.yul\":4071:4088   */\n      add\n        /* \"#utility.yul\":4064:4111   */\n      mstore\n        /* \"#utility.yul\":4128:4259   */\n      tag_98\n        /* \"#utility.yul\":4254:4258   */\n      dup2\n        /* \"#utility.yul\":4128:4259   */\n      tag_82\n      jump\t// in\n    tag_98:\n        /* \"#utility.yul\":4120:4259   */\n      swap1\n      pop\n        /* \"#utility.yul\":3847:4266   */\n      swap2\n      swap1\n      pop\n      jump\t// out\n        /* \"#utility.yul\":4272:4691   */\n    tag_22:\n        /* \"#utility.yul\":4438:4442   */\n      0x00\n        /* \"#utility.yul\":4476:4478   */\n      0x20\n        /* \"#utility.yul\":4465:4474   */\n      dup3\n        /* \"#utility.yul\":4461:4479   */\n      add\n        /* \"#utility.yul\":4453:4479   */\n      swap1\n      pop\n        /* \"#utility.yul\":4525:4534   */\n      dup2\n        /* \"#utility.yul\":4519:4523   */\n      dup2\n        /* \"#utility.yul\":4515:4535   */\n      sub\n        /* \"#utility.yul\":4511:4512   */\n      0x00\n        /* \"#utility.yul\":4500:4509   */\n      dup4\n        /* \"#utility.yul\":4496:4513   */\n      add\n        /* \"#utility.yul\":4489:4536   */\n      mstore\n        /* \"#utility.yul\":4553:4684   */\n      tag_100\n        /* \"#utility.yul\":4679:4683   */\n      dup2\n        /* \"#utility.yul\":4553:4684   */\n      tag_88\n      jump\t// in\n    tag_100:\n        /* \"#utility.yul\":4545:4684   */\n      swap1\n      pop\n        /* \"#utility.yul\":4272:4691   */\n      swap2\n      swap1\n      pop\n      jump\t// out\n        /* \"#utility.yul\":4697:4826   */\n    tag_39:\n        /* \"#utility.yul\":4731:4737   */\n      0x00\n        /* \"#utility.yul\":4758:4778   */\n      tag_102\n      tag_103\n      jump\t// in\n    tag_102:\n        /* \"#utility.yul\":4748:4778   */\n      swap1\n      pop\n        /* \"#utility.yul\":4787:4820   */\n      tag_104\n        /* \"#utility.yul\":4815:4819   */\n      dup3\n        /* \"#utility.yul\":4807:4813   */\n      dup3\n        /* \"#utility.yul\":4787:4820   */\n      tag_105\n      jump\t// in\n    tag_104:\n        /* \"#utility.yul\":4697:4826   */\n      swap2\n      swap1\n      pop\n      jump\t// out\n        /* \"#utility.yul\":4832:4907   */\n    tag_103:\n        /* \"#utility.yul\":4865:4871   */\n      0x00\n        /* \"#utility.yul\":4898:4900   */\n      0x40\n        /* \"#utility.yul\":4892:4901   */\n      mload\n        /* \"#utility.yul\":4882:4901   */\n      swap1\n      pop\n        /* \"#utility.yul\":4832:4907   */\n      swap1\n      jump\t// out\n        /* \"#utility.yul\":4913:5220   */\n    tag_38:\n        /* \"#utility.yul\":4974:4978   */\n      0x00\n        /* \"#utility.yul\":5064:5082   */\n      0xffffffffffffffff\n        /* \"#utility.yul\":5056:5062   */\n      dup3\n        /* \"#utility.yul\":5053:5083   */\n      gt\n        /* \"#utility.yul\":5050:5106   */\n      iszero\n      tag_108\n      jumpi\n        /* \"#utility.yul\":5086:5104   */\n      tag_109\n      tag_110\n      jump\t// in\n    tag_109:\n        /* \"#utility.yul\":5050:5106   */\n    tag_108:\n        /* \"#utility.yul\":5124:5153   */\n      tag_111\n        /* \"#utility.yul\":5146:5152   */\n      dup3\n        /* \"#utility.yul\":5124:5153   */\n      tag_112\n      jump\t// in\n    tag_111:\n        /* \"#utility.yul\":5116:5153   */\n      swap1\n      pop\n        /* \"#utility.yul\":5208:5212   */\n      0x20\n        /* \"#utility.yul\":5202:5206   */\n      dup2\n        /* \"#utility.yul\":5198:5213   */\n      add\n        /* \"#utility.yul\":5190:5213   */\n      swap1\n      pop\n        /* \"#utility.yul\":4913:5220   */\n      swap2\n      swap1\n      pop\n      jump\t// out\n        /* \"#utility.yul\":5226:5324   */\n    tag_77:\n        /* \"#utility.yul\":5277:5283   */\n      0x00\n        /* \"#utility.yul\":5311:5316   */\n      dup2\n        /* \"#utility.yul\":5305:5317   */\n      mload\n        /* \"#utility.yul\":5295:5317   */\n      swap1\n      pop\n        /* \"#utility.yul\":5226:5324   */\n      swap2\n      swap1\n      pop\n      jump\t// out\n        /* \"#utility.yul\":5330:5477   */\n    tag_79:\n        /* \"#utility.yul\":5431:5442   */\n      0x00\n        /* \"#utility.yul\":5468:5471   */\n      dup2\n        /* \"#utility.yul\":5453:5471   */\n      swap1\n      pop\n        /* \"#utility.yul\":5330:5477   */\n      swap3\n      swap2\n      pop\n      pop\n      jump\t// out\n        /* \"#utility.yul\":5483:5652   */\n    tag_85:\n        /* \"#utility.yul\":5567:5578   */\n      0x00\n        /* \"#utility.yul\":5601:5607   */\n      dup3\n        /* \"#utility.yul\":5596:5599   */\n      dup3\n        /* \"#utility.yul\":5589:5608   */\n      mstore\n        /* \"#utility.yul\":5641:5645   */\n      0x20\n        /* \"#utility.yul\":5636:5639   */\n      dup3\n        /* \"#utility.yul\":5632:5646   */\n      add\n        /* \"#utility.yul\":5617:5646   */\n      swap1\n      pop\n        /* \"#utility.yul\":5483:5652   */\n      swap3\n      swap2\n      pop\n      pop\n      jump\t// out\n        /* \"#utility.yul\":5658:5754   */\n    tag_73:\n        /* \"#utility.yul\":5695:5702   */\n      0x00\n        /* \"#utility.yul\":5724:5748   */\n      tag_117\n        /* \"#utility.yul\":5742:5747   */\n      dup3\n        /* \"#utility.yul\":5724:5748   */\n      tag_118\n      jump\t// in\n    tag_117:\n        /* \"#utility.yul\":5713:5748   */\n      swap1\n      pop\n        /* \"#utility.yul\":5658:5754   */\n      swap2\n      swap1\n      pop\n      jump\t// out\n        /* \"#utility.yul\":5760:5886   */\n    tag_118:\n        /* \"#utility.yul\":5797:5804   */\n      0x00\n        /* \"#utility.yul\":5837:5879   */\n      0xffffffffffffffffffffffffffffffffffffffff\n        /* \"#utility.yul\":5830:5835   */\n      dup3\n        /* \"#utility.yul\":5826:5880   */\n      and\n        /* \"#utility.yul\":5815:5880   */\n      swap1\n      pop\n        /* \"#utility.yul\":5760:5886   */\n      swap2\n      swap1\n      pop\n      jump\t// out\n        /* \"#utility.yul\":5892:6046   */\n    tag_44:\n        /* \"#utility.yul\":5976:5982   */\n      dup3\n        /* \"#utility.yul\":5971:5974   */\n      dup2\n        /* \"#utility.yul\":5966:5969   */\n      dup4\n        /* \"#utility.yul\":5953:5983   */\n      calldatacopy\n        /* \"#utility.yul\":6038:6039   */\n      0x00\n        /* \"#utility.yul\":6029:6035   */\n      dup4\n        /* \"#utility.yul\":6024:6027   */\n      dup4\n        /* \"#utility.yul\":6020:6036   */\n      add\n        /* \"#utility.yul\":6013:6040   */\n      mstore\n        /* \"#utility.yul\":5892:6046   */\n      pop\n      pop\n      pop\n      jump\t// out\n        /* \"#utility.yul\":6052:6359   */\n    tag_81:\n        /* \"#utility.yul\":6120:6121   */\n      0x00\n        /* \"#utility.yul\":6130:6243   */\n    tag_122:\n        /* \"#utility.yul\":6144:6150   */\n      dup4\n        /* \"#utility.yul\":6141:6142   */\n      dup2\n        /* \"#utility.yul\":6138:6151   */\n      lt\n        /* \"#utility.yul\":6130:6243   */\n      iszero\n      tag_124\n      jumpi\n        /* \"#utility.yul\":6229:6230   */\n      dup1\n        /* \"#utility.yul\":6224:6227   */\n      dup3\n        /* \"#utility.yul\":6220:6231   */\n      add\n        /* \"#utility.yul\":6214:6232   */\n      mload\n        /* \"#utility.yul\":6210:6211   */\n      dup2\n        /* \"#utility.yul\":6205:6208   */\n      dup5\n        /* \"#utility.yul\":6201:6212   */\n      add\n        /* \"#utility.yul\":6194:6233   */\n      mstore\n        /* \"#utility.yul\":6166:6168   */\n      0x20\n        /* \"#utility.yul\":6163:6164   */\n      dup2\n        /* \"#utility.yul\":6159:6169   */\n      add\n        /* \"#utility.yul\":6154:6169   */\n      swap1\n      pop\n        /* \"#utility.yul\":6130:6243   */\n      jump(tag_122)\n    tag_124:\n        /* \"#utility.yul\":6261:6267   */\n      dup4\n        /* \"#utility.yul\":6258:6259   */\n      dup2\n        /* \"#utility.yul\":6255:6268   */\n      gt\n        /* \"#utility.yul\":6252:6353   */\n      iszero\n      tag_125\n      jumpi\n        /* \"#utility.yul\":6341:6342   */\n      0x00\n        /* \"#utility.yul\":6332:6338   */\n      dup5\n        /* \"#utility.yul\":6327:6330   */\n      dup5\n        /* \"#utility.yul\":6323:6339   */\n      add\n        /* \"#utility.yul\":6316:6343   */\n      mstore\n        /* \"#utility.yul\":6252:6353   */\n    tag_125:\n        /* \"#utility.yul\":6101:6359   */\n      pop\n        /* \"#utility.yul\":6052:6359   */\n      pop\n      pop\n      pop\n      jump\t// out\n        /* \"#utility.yul\":6365:6646   */\n    tag_105:\n        /* \"#utility.yul\":6448:6475   */\n      tag_127\n        /* \"#utility.yul\":6470:6474   */\n      dup3\n        /* \"#utility.yul\":6448:6475   */\n      tag_112\n      jump\t// in\n    tag_127:\n        /* \"#utility.yul\":6440:6446   */\n      dup2\n        /* \"#utility.yul\":6436:6476   */\n      add\n        /* \"#utility.yul\":6578:6584   */\n      dup2\n        /* \"#utility.yul\":6566:6576   */\n      dup2\n        /* \"#utility.yul\":6563:6585   */\n      lt\n        /* \"#utility.yul\":6542:6560   */\n      0xffffffffffffffff\n        /* \"#utility.yul\":6530:6540   */\n      dup3\n        /* \"#utility.yul\":6527:6561   */\n      gt\n        /* \"#utility.yul\":6524:6586   */\n      or\n        /* \"#utility.yul\":6521:6609   */\n      iszero\n      tag_128\n      jumpi\n        /* \"#utility.yul\":6589:6607   */\n      tag_129\n      tag_110\n      jump\t// in\n    tag_129:\n        /* \"#utility.yul\":6521:6609   */\n    tag_128:\n        /* \"#utility.yul\":6629:6639   */\n      dup1\n        /* \"#utility.yul\":6625:6627   */\n      0x40\n        /* \"#utility.yul\":6618:6640   */\n      mstore\n        /* \"#utility.yul\":6408:6646   */\n      pop\n        /* \"#utility.yul\":6365:6646   */\n      pop\n      pop\n      jump\t// out\n        /* \"#utility.yul\":6652:6832   */\n    tag_110:\n        /* \"#utility.yul\":6700:6777   */\n      0x4e487b7100000000000000000000000000000000000000000000000000000000\n        /* \"#utility.yul\":6697:6698   */\n      0x00\n        /* \"#utility.yul\":6690:6778   */\n      mstore\n        /* \"#utility.yul\":6797:6801   */\n      0x41\n        /* \"#utility.yul\":6794:6795   */\n      0x04\n        /* \"#utility.yul\":6787:6802   */\n      mstore\n        /* \"#utility.yul\":6821:6825   */\n      0x24\n        /* \"#utility.yul\":6818:6819   */\n      0x00\n        /* \"#utility.yul\":6811:6826   */\n      revert\n        /* \"#utility.yul\":6838:6955   */\n    tag_53:\n        /* \"#utility.yul\":6947:6948   */\n      0x00\n        /* \"#utility.yul\":6944:6945   */\n      dup1\n        /* \"#utility.yul\":6937:6949   */\n      revert\n        /* \"#utility.yul\":6961:7078   */\n    tag_42:\n        /* \"#utility.yul\":7070:7071   */\n      0x00\n        /* \"#utility.yul\":7067:7068   */\n      dup1\n        /* \"#utility.yul\":7060:7072   */\n      revert\n        /* \"#utility.yul\":7084:7201   */\n    tag_62:\n        /* \"#utility.yul\":7193:7194   */\n      0x00\n        /* \"#utility.yul\":7190:7191   */\n      dup1\n        /* \"#utility.yul\":7183:7195   */\n      revert\n        /* \"#utility.yul\":7207:7324   */\n    tag_58:\n        /* \"#utility.yul\":7316:7317   */\n      0x00\n        /* \"#utility.yul\":7313:7314   */\n      dup1\n        /* \"#utility.yul\":7306:7318   */\n      revert\n        /* \"#utility.yul\":7330:7432   */\n    tag_112:\n        /* \"#utility.yul\":7371:7377   */\n      0x00\n        /* \"#utility.yul\":7422:7424   */\n      0x1f\n        /* \"#utility.yul\":7418:7425   */\n      not\n        /* \"#utility.yul\":7413:7415   */\n      0x1f\n        /* \"#utility.yul\":7406:7411   */\n      dup4\n        /* \"#utility.yul\":7402:7416   */\n      add\n        /* \"#utility.yul\":7398:7426   */\n      and\n        /* \"#utility.yul\":7388:7426   */\n      swap1\n      pop\n        /* \"#utility.yul\":7330:7432   */\n      swap2\n      swap1\n      pop\n      jump\t// out\n        /* \"#utility.yul\":7438:7594   */\n    tag_87:\n        /* \"#utility.yul\":7578:7586   */\n      0x6661696c65640000000000000000000000000000000000000000000000000000\n        /* \"#utility.yul\":7574:7575   */\n      0x00\n        /* \"#utility.yul\":7566:7572   */\n      dup3\n        /* \"#utility.yul\":7562:7576   */\n      add\n        /* \"#utility.yul\":7555:7587   */\n      mstore\n        /* \"#utility.yul\":7438:7594   */\n      pop\n      jump\t// out\n        /* \"#utility.yul\":7600:7761   */\n    tag_92:\n        /* \"#utility.yul\":7740:7753   */\n      0x6465706c6f79206661696c000000000000000000000000000000000000000000\n        /* \"#utility.yul\":7736:7737   */\n      0x00\n        /* \"#utility.yul\":7728:7734   */\n      dup3\n        /* \"#utility.yul\":7724:7738   */\n      add\n        /* \"#utility.yul\":7717:7754   */\n      mstore\n        /* \"#utility.yul\":7600:7761   */\n      pop\n      jump\t// out\n        /* \"#utility.yul\":7767:7889   */\n    tag_48:\n        /* \"#utility.yul\":7840:7864   */\n      tag_139\n        /* \"#utility.yul\":7858:7863   */\n      dup2\n        /* \"#utility.yul\":7840:7864   */\n      tag_73\n      jump\t// in\n    tag_139:\n        /* \"#utility.yul\":7833:7838   */\n      dup2\n        /* \"#utility.yul\":7830:7865   */\n      eq\n        /* \"#utility.yul\":7820:7883   */\n      tag_140\n      jumpi\n        /* \"#utility.yul\":7879:7880   */\n      0x00\n        /* \"#utility.yul\":7876:7877   */\n      dup1\n        /* \"#utility.yul\":7869:7881   */\n      revert\n        /* \"#utility.yul\":7820:7883   */\n    tag_140:\n        /* \"#utility.yul\":7767:7889   */\n      pop\n      jump\t// out\n\n    auxdata: 0xa2646970667358221220e0846311ade75b52862cb7385d3c5d94cf06cda3c570d60907c2e535bf715f3864736f6c63430008070033\n}\n",
				"bytecode": {
					"linkReferences": {},
					"object": "608060405234801561001057600080fd5b50610623806100206000396000f3fe60806040526004361061002c5760003560e01c8062774360146100355780634eabf5601461006557610033565b3661003357005b005b61004f600480360381019061004a91906102cd565b610081565b60405161005c91906103b3565b60405180910390f35b61007f600480360381019061007a9190610271565b610139565b005b600081516020830134f09050600073ffffffffffffffffffffffffffffffffffffffff168173ffffffffffffffffffffffffffffffffffffffff1614156100fd576040517f08c379a00000000000000000000000000000000000000000000000000000000081526004016100f4906103ee565b60405180910390fd5b7f55ea6c6b31543d8e2ec6a72f71a79c0f4b72ed0d4757172b043d8f4f4cd848488160405161012c91906103b3565b60405180910390a1919050565b60008273ffffffffffffffffffffffffffffffffffffffff163483604051610161919061039c565b60006040518083038185875af1925050503d806000811461019e576040519150601f19603f3d011682016040523d82523d6000602084013e6101a3565b606091505b50509050806101e7576040517f08c379a00000000000000000000000000000000000000000000000000000000081526004016101de906103ce565b60405180910390fd5b505050565b60006101ff6101fa84610433565b61040e565b90508281526020810184848401111561021b5761021a610564565b5b6102268482856104bd565b509392505050565b60008135905061023d816105d6565b92915050565b600082601f8301126102585761025761055f565b5b81356102688482602086016101ec565b91505092915050565b600080604083850312156102885761028761056e565b5b60006102968582860161022e565b925050602083013567ffffffffffffffff8111156102b7576102b6610569565b5b6102c385828601610243565b9150509250929050565b6000602082840312156102e3576102e261056e565b5b600082013567ffffffffffffffff81111561030157610300610569565b5b61030d84828501610243565b91505092915050565b61031f8161048b565b82525050565b600061033082610464565b61033a818561046f565b935061034a8185602086016104cc565b80840191505092915050565b600061036360068361047a565b915061036e82610584565b602082019050919050565b6000610386600b8361047a565b9150610391826105ad565b602082019050919050565b60006103a88284610325565b915081905092915050565b60006020820190506103c86000830184610316565b92915050565b600060208201905081810360008301526103e781610356565b9050919050565b6000602082019050818103600083015261040781610379565b9050919050565b6000610418610429565b905061042482826104ff565b919050565b6000604051905090565b600067ffffffffffffffff82111561044e5761044d610530565b5b61045782610573565b9050602081019050919050565b600081519050919050565b600081905092915050565b600082825260208201905092915050565b60006104968261049d565b9050919050565b600073ffffffffffffffffffffffffffffffffffffffff82169050919050565b82818337600083830152505050565b60005b838110156104ea5780820151818401526020810190506104cf565b838111156104f9576000848401525b50505050565b61050882610573565b810181811067ffffffffffffffff8211171561052757610526610530565b5b80604052505050565b7f4e487b7100000000000000000000000000000000000000000000000000000000600052604160045260246000fd5b600080fd5b600080fd5b600080fd5b600080fd5b6000601f19601f8301169050919050565b7f6661696c65640000000000000000000000000000000000000000000000000000600082015250565b7f6465706c6f79206661696c000000000000000000000000000000000000000000600082015250565b6105df8161048b565b81146105ea57600080fd5b5056fea2646970667358221220e0846311ade75b52862cb7385d3c5d94cf06cda3c570d60907c2e535bf715f3864736f6c63430008070033",
					"opcodes": "PUSH1 0x80 PUSH1 0x40 MSTORE CALLVALUE DUP1 ISZERO PUSH2 0x10 JUMPI PUSH1 0x0 DUP1 REVERT JUMPDEST POP PUSH2 0x623 DUP1 PUSH2 0x20 PUSH1 0x0 CODECOPY PUSH1 0x0 RETURN INVALID PUSH1 0x80 PUSH1 0x40 MSTORE PUSH1 0x4 CALLDATASIZE LT PUSH2 0x2C JUMPI PUSH1 0x0 CALLDATALOAD PUSH1 0xE0 SHR DUP1 PUSH3 0x774360 EQ PUSH2 0x35 JUMPI DUP1 PUSH4 0x4EABF560 EQ PUSH2 0x65 JUMPI PUSH2 0x33 JUMP JUMPDEST CALLDATASIZE PUSH2 0x33 JUMPI STOP JUMPDEST STOP JUMPDEST PUSH2 0x4F PUSH1 0x4 DUP1 CALLDATASIZE SUB DUP2 ADD SWAP1 PUSH2 0x4A SWAP2 SWAP1 PUSH2 0x2CD JUMP JUMPDEST PUSH2 0x81 JUMP JUMPDEST PUSH1 0x40 MLOAD PUSH2 0x5C SWAP2 SWAP1 PUSH2 0x3B3 JUMP JUMPDEST PUSH1 0x40 MLOAD DUP1 SWAP2 SUB SWAP1 RETURN JUMPDEST PUSH2 0x7F PUSH1 0x4 DUP1 CALLDATASIZE SUB DUP2 ADD SWAP1 PUSH2 0x7A SWAP2 SWAP1 PUSH2 0x271 JUMP JUMPDEST PUSH2 0x139 JUMP JUMPDEST STOP JUMPDEST PUSH1 0x0 DUP2 MLOAD PUSH1 0x20 DUP4 ADD CALLVALUE CREATE SWAP1 POP PUSH1 0x0 PUSH20 0xFFFFFFFFFFFFFFFFFFFFFFFFFFFFFFFFFFFFFFFF AND DUP2 PUSH20 0xFFFFFFFFFFFFFFFFFFFFFFFFFFFFFFFFFFFFFFFF AND EQ ISZERO PUSH2 0xFD JUMPI PUSH1 0x40 MLOAD PUSH32 0x8C379A000000000000000000000000000000000000000000000000000000000 DUP2 MSTORE PUSH1 0x4 ADD PUSH2 0xF4 SWAP1 PUSH2 0x3EE JUMP JUMPDEST PUSH1 0x40 MLOAD DUP1 SWAP2 SUB SWAP1 REVERT JUMPDEST PUSH32 0x55EA6C6B31543D8E2EC6A72F71A79C0F4B72ED0D4757172B043D8F4F4CD84848 DUP2 PUSH1 0x40 MLOAD PUSH2 0x12C SWAP2 SWAP1 PUSH2 0x3B3 JUMP JUMPDEST PUSH1 0x40 MLOAD DUP1 SWAP2 SUB SWAP1 LOG1 SWAP2 SWAP1 POP JUMP JUMPDEST PUSH1 0x0 DUP3 PUSH20 0xFFFFFFFFFFFFFFFFFFFFFFFFFFFFFFFFFFFFFFFF AND CALLVALUE DUP4 PUSH1 0x40 MLOAD PUSH2 0x161 SWAP2 SWAP1 PUSH2 0x39C JUMP JUMPDEST PUSH1 0x0 PUSH1 0x40 MLOAD DUP1 DUP4 SUB DUP2 DUP6 DUP8 GAS CALL SWAP3 POP POP POP RETURNDATASIZE DUP1 PUSH1 0x0 DUP2 EQ PUSH2 0x19E JUMPI PUSH1 0x40 MLOAD SWAP2 POP PUSH1 0x1F NOT PUSH1 0x3F RETURNDATASIZE ADD AND DUP3 ADD PUSH1 0x40 MSTORE RETURNDATASIZE DUP3 MSTORE RETURNDATASIZE PUSH1 0x0 PUSH1 0x20 DUP5 ADD RETURNDATACOPY PUSH2 0x1A3 JUMP JUMPDEST PUSH1 0x60 SWAP2 POP JUMPDEST POP POP SWAP1 POP DUP1 PUSH2 0x1E7 JUMPI PUSH1 0x40 MLOAD PUSH32 0x8C379A000000000000000000000000000000000000000000000000000000000 DUP2 MSTORE PUSH1 0x4 ADD PUSH2 0x1DE SWAP1 PUSH2 0x3CE JUMP JUMPDEST PUSH1 0x40 MLOAD DUP1 SWAP2 SUB SWAP1 REVERT JUMPDEST POP POP POP JUMP JUMPDEST PUSH1 0x0 PUSH2 0x1FF PUSH2 0x1FA DUP5 PUSH2 0x433 JUMP JUMPDEST PUSH2 0x40E JUMP JUMPDEST SWAP1 POP DUP3 DUP2 MSTORE PUSH1 0x20 DUP2 ADD DUP5 DUP5 DUP5 ADD GT ISZERO PUSH2 0x21B JUMPI PUSH2 0x21A PUSH2 0x564 JUMP JUMPDEST JUMPDEST PUSH2 0x226 DUP5 DUP3 DUP6 PUSH2 0x4BD JUMP JUMPDEST POP SWAP4 SWAP3 POP POP POP JUMP JUMPDEST PUSH1 0x0 DUP2 CALLDATALOAD SWAP1 POP PUSH2 0x23D DUP2 PUSH2 0x5D6 JUMP JUMPDEST SWAP3 SWAP2 POP POP JUMP JUMPDEST PUSH1 0x0 DUP3 PUSH1 0x1F DUP4 ADD SLT PUSH2 0x258 JUMPI PUSH2 0x257 PUSH2 0x55F JUMP JUMPDEST JUMPDEST DUP2 CALLDATALOAD PUSH2 0x268 DUP5 DUP3 PUSH1 0x20 DUP7 ADD PUSH2 0x1EC JUMP JUMPDEST SWAP2 POP POP SWAP3 SWAP2 POP POP JUMP JUMPDEST PUSH1 0x0 DUP1 PUSH1 0x40 DUP4 DUP6 SUB SLT ISZERO PUSH2 0x288 JUMPI PUSH2 0x287 PUSH2 0x56E JUMP JUMPDEST JUMPDEST PUSH1 0x0 PUSH2 0x296 DUP6 DUP3 DUP7 ADD PUSH2 0x22E JUMP JUMPDEST SWAP3 POP POP PUSH1 0x20 DUP4 ADD CALLDATALOAD PUSH8 0xFFFFFFFFFFFFFFFF DUP2 GT ISZERO PUSH2 0x2B7 JUMPI PUSH2 0x2B6 PUSH2 0x569 JUMP JUMPDEST JUMPDEST PUSH2 0x2C3 DUP6 DUP3 DUP7 ADD PUSH2 0x243 JUMP JUMPDEST SWAP2 POP POP SWAP3 POP SWAP3 SWAP1 POP JUMP JUMPDEST PUSH1 0x0 PUSH1 0x20 DUP3 DUP5 SUB SLT ISZERO PUSH2 0x2E3 JUMPI PUSH2 0x2E2 PUSH2 0x56E JUMP JUMPDEST JUMPDEST PUSH1 0x0 DUP3 ADD CALLDATALOAD PUSH8 0xFFFFFFFFFFFFFFFF DUP2 GT ISZERO PUSH2 0x301 JUMPI PUSH2 0x300 PUSH2 0x569 JUMP JUMPDEST JUMPDEST PUSH2 0x30D DUP5 DUP3 DUP6 ADD PUSH2 0x243 JUMP JUMPDEST SWAP2 POP POP SWAP3 SWAP2 POP POP JUMP JUMPDEST PUSH2 0x31F DUP2 PUSH2 0x48B JUMP JUMPDEST DUP3 MSTORE POP POP JUMP JUMPDEST PUSH1 0x0 PUSH2 0x330 DUP3 PUSH2 0x464 JUMP JUMPDEST PUSH2 0x33A DUP2 DUP6 PUSH2 0x46F JUMP JUMPDEST SWAP4 POP PUSH2 0x34A DUP2 DUP6 PUSH1 0x20 DUP7 ADD PUSH2 0x4CC JUMP JUMPDEST DUP1 DUP5 ADD SWAP2 POP POP SWAP3 SWAP2 POP POP JUMP JUMPDEST PUSH1 0x0 PUSH2 0x363 PUSH1 0x6 DUP4 PUSH2 0x47A JUMP JUMPDEST SWAP2 POP PUSH2 0x36E DUP3 PUSH2 0x584 JUMP JUMPDEST PUSH1 0x20 DUP3 ADD SWAP1 POP SWAP2 SWAP1 POP JUMP JUMPDEST PUSH1 0x0 PUSH2 0x386 PUSH1 0xB DUP4 PUSH2 0x47A JUMP JUMPDEST SWAP2 POP PUSH2 0x391 DUP3 PUSH2 0x5AD JUMP JUMPDEST PUSH1 0x20 DUP3 ADD SWAP1 POP SWAP2 SWAP1 POP JUMP JUMPDEST PUSH1 0x0 PUSH2 0x3A8 DUP3 DUP5 PUSH2 0x325 JUMP JUMPDEST SWAP2 POP DUP2 SWAP1 POP SWAP3 SWAP2 POP POP JUMP JUMPDEST PUSH1 0x0 PUSH1 0x20 DUP3 ADD SWAP1 POP PUSH2 0x3C8 PUSH1 0x0 DUP4 ADD DUP5 PUSH2 0x316 JUMP JUMPDEST SWAP3 SWAP2 POP POP JUMP JUMPDEST PUSH1 0x0 PUSH1 0x20 DUP3 ADD SWAP1 POP DUP2 DUP2 SUB PUSH1 0x0 DUP4 ADD MSTORE PUSH2 0x3E7 DUP2 PUSH2 0x356 JUMP JUMPDEST SWAP1 POP SWAP2 SWAP1 POP JUMP JUMPDEST PUSH1 0x0 PUSH1 0x20 DUP3 ADD SWAP1 POP DUP2 DUP2 SUB PUSH1 0x0 DUP4 ADD MSTORE PUSH2 0x407 DUP2 PUSH2 0x379 JUMP JUMPDEST SWAP1 POP SWAP2 SWAP1 POP JUMP JUMPDEST PUSH1 0x0 PUSH2 0x418 PUSH2 0x429 JUMP JUMPDEST SWAP1 POP PUSH2 0x424 DUP3 DUP3 PUSH2 0x4FF JUMP JUMPDEST SWAP2 SWAP1 POP JUMP JUMPDEST PUSH1 0x0 PUSH1 0x40 MLOAD SWAP1 POP SWAP1 JUMP JUMPDEST PUSH1 0x0 PUSH8 0xFFFFFFFFFFFFFFFF DUP3 GT ISZERO PUSH2 0x44E JUMPI PUSH2 0x44D PUSH2 0x530 JUMP JUMPDEST JUMPDEST PUSH2 0x457 DUP3 PUSH2 0x573 JUMP JUMPDEST SWAP1 POP PUSH1 0x20 DUP2 ADD SWAP1 POP SWAP2 SWAP1 POP JUMP JUMPDEST PUSH1 0x0 DUP2 MLOAD SWAP1 POP SWAP2 SWAP1 POP JUMP JUMPDEST PUSH1 0x0 DUP2 SWAP1 POP SWAP3 SWAP2 POP POP JUMP JUMPDEST PUSH1 0x0 DUP3 DUP3 MSTORE PUSH1 0x20 DUP3 ADD SWAP1 POP SWAP3 SWAP2 POP POP JUMP JUMPDEST PUSH1 0x0 PUSH2 0x496 DUP3 PUSH2 0x49D JUMP JUMPDEST SWAP1 POP SWAP2 SWAP1 POP JUMP JUMPDEST PUSH1 0x0 PUSH20 0xFFFFFFFFFFFFFFFFFFFFFFFFFFFFFFFFFFFFFFFF DUP3 AND SWAP1 POP SWAP2 SWAP1 POP JUMP JUMPDEST DUP3 DUP2 DUP4 CALLDATACOPY PUSH1 0x0 DUP4 DUP4 ADD MSTORE POP POP POP JUMP JUMPDEST PUSH1 0x0 JUMPDEST DUP4 DUP2 LT ISZERO PUSH2 0x4EA JUMPI DUP1 DUP3 ADD MLOAD DUP2 DUP5 ADD MSTORE PUSH1 0x20 DUP2 ADD SWAP1 POP PUSH2 0x4CF JUMP JUMPDEST DUP4 DUP2 GT ISZERO PUSH2 0x4F9 JUMPI PUSH1 0x0 DUP5 DUP5 ADD MSTORE JUMPDEST POP POP POP POP JUMP JUMPDEST PUSH2 0x508 DUP3 PUSH2 0x573 JUMP JUMPDEST DUP2 ADD DUP2 DUP2 LT PUSH8 0xFFFFFFFFFFFFFFFF DUP3 GT OR ISZERO PUSH2 0x527 JUMPI PUSH2 0x526 PUSH2 0x530 JUMP JUMPDEST JUMPDEST DUP1 PUSH1 0x40 MSTORE POP POP POP JUMP JUMPDEST PUSH32 0x4E487B7100000000000000000000000000000000000000000000000000000000 PUSH1 0x0 MSTORE PUSH1 0x41 PUSH1 0x4 MSTORE PUSH1 0x24 PUSH1 0x0 REVERT JUMPDEST PUSH1 0x0 DUP1 REVERT JUMPDEST PUSH1 0x0 DUP1 REVERT JUMPDEST PUSH1 0x0 DUP1 REVERT JUMPDEST PUSH1 0x0 DUP1 REVERT JUMPDEST PUSH1 0x0 PUSH1 0x1F NOT PUSH1 0x1F DUP4 ADD AND SWAP1 POP SWAP2 SWAP1 POP JUMP JUMPDEST PUSH32 0x6661696C65640000000000000000000000000000000000000000000000000000 PUSH1 0x0 DUP3 ADD MSTORE POP JUMP JUMPDEST PUSH32 0x6465706C6F79206661696C000000000000000000000000000000000000000000 PUSH1 0x0 DUP3 ADD MSTORE POP JUMP JUMPDEST PUSH2 0x5DF DUP2 PUSH2 0x48B JUMP JUMPDEST DUP2 EQ PUSH2 0x5EA JUMPI PUSH1 0x0 DUP1 REVERT JUMPDEST POP JUMP INVALID LOG2 PUSH5 0x6970667358 0x22 SLT KECCAK256 0xE0 DUP5 PUSH4 0x11ADE75B MSTORE DUP7 0x2C 0xB7 CODESIZE 0x5D EXTCODECOPY 0x5D SWAP5 0xCF MOD 0xCD LOG3 0xC5 PUSH17 0xD60907C2E535BF715F3864736F6C634300 ADDMOD SMOD STOP CALLER "
				},
				"gasEstimates": {
					"creation": {
						"codeDepositCost": "314200",
						"executionCost": "355",
						"totalCost": "314555"
					},
					"external": {
						"": "107",
						"deploy(bytes)": "infinite",
						"excte(address,bytes)": "infinite"
					}
				},
				"methodIdentifiers": {
					"deploy(bytes)": "00774360",
					"excte(address,bytes)": "4eabf560"
				}
			},
			"storageLayout": {
				"storage": [],
				"types": null
			},
			"userdoc": {
				"kind": "user",
				"methods": {},
				"version": 1
			}
		}
	}
}