{
	"code9999/practice2/1.sol": {
		"controlle": {
			"abi": [
				{
					"inputs": [],
					"stateMutability": "nonpayable",
					"type": "constructor"
				},
				{
					"anonymous": false,
					"inputs": [
						{
							"indexed": true,
							"internalType": "bytes32",
							"name": "role",
							"type": "bytes32"
						},
						{
							"indexed": true,
							"internalType": "address",
							"name": "account",
							"type": "address"
						}
					],
					"name": "GrantRole",
					"type": "event"
				},
				{
					"anonymous": false,
					"inputs": [
						{
							"indexed": true,
							"internalType": "bytes32",
							"name": "role",
							"type": "bytes32"
						},
						{
							"indexed": true,
							"internalType": "address",
							"name": "account",
							"type": "address"
						}
					],
					"name": "RevokeRole",
					"type": "event"
				},
				{
					"inputs": [],
					"name": "getADMIN",
					"outputs": [
						{
							"internalType": "bytes32",
							"name": "",
							"type": "bytes32"
						}
					],
					"stateMutability": "view",
					"type": "function"
				},
				{
					"inputs": [
						{
							"internalType": "bytes32",
							"name": "_role",
							"type": "bytes32"
						},
						{
							"internalType": "address",
							"name": "_account",
							"type": "address"
						}
					],
					"name": "grantRole",
					"outputs": [],
					"stateMutability": "nonpayable",
					"type": "function"
				},
				{
					"inputs": [
						{
							"internalType": "bytes32",
							"name": "_role",
							"type": "bytes32"
						},
						{
							"internalType": "address",
							"name": "_account",
							"type": "address"
						}
					],
					"name": "revokeRole",
					"outputs": [],
					"stateMutability": "nonpayable",
					"type": "function"
				},
				{
					"inputs": [
						{
							"internalType": "bytes32",
							"name": "",
							"type": "bytes32"
						},
						{
							"internalType": "address",
							"name": "",
							"type": "address"
						}
					],
					"name": "roles",
					"outputs": [
						{
							"internalType": "bool",
							"name": "",
							"type": "bool"
						}
					],
					"stateMutability": "view",
					"type": "function"
				}
			],
			"devdoc": {
				"kind": "dev",
				"methods": {},
				"version": 1
			},
			"evm": {
				"assembly": "    /* \"code9999/practice2/1.sol\":54:1359  contract controlle{... */\n  mstore(0x40, 0x80)\n    /* \"code9999/practice2/1.sol\":769:855  constructor(){... */\n  callvalue\n  dup1\n  iszero\n  tag_1\n  jumpi\n  0x00\n  dup1\n  revert\ntag_1:\n  pop\n    /* \"code9999/practice2/1.sol\":800:810  msg.sender */\n  caller\n    /* \"code9999/practice2/1.sol\":792:797  owner */\n  0x01\n  0x00\n    /* \"code9999/practice2/1.sol\":792:810  owner = msg.sender */\n  0x0100\n  exp\n  dup2\n  sload\n  dup2\n  0xffffffffffffffffffffffffffffffffffffffff\n  mul\n  not\n  and\n  swap1\n  dup4\n  0xffffffffffffffffffffffffffffffffffffffff\n  and\n  mul\n  or\n  swap1\n  sstore\n  pop\n    /* \"code9999/practice2/1.sol\":820:848  _grantRole(ADMIN,msg.sender) */\n  tag_4\n    /* \"code9999/practice2/1.sol\":343:368  abi.encodePacked(\"ADMIN\") */\n  add(0x20, mload(0x40))\n  tag_5\n  swap1\n  tag_6\n  jump\t// in\ntag_5:\n  mload(0x40)\n  0x20\n  dup2\n  dup4\n  sub\n  sub\n  dup2\n  mstore\n  swap1\n  0x40\n  mstore\n    /* \"code9999/practice2/1.sol\":333:369  keccak256(abi.encodePacked(\"ADMIN\")) */\n  dup1\n  mload\n  swap1\n  0x20\n  add\n  keccak256\n    /* \"code9999/practice2/1.sol\":837:847  msg.sender */\n  caller\n    /* \"code9999/practice2/1.sol\":820:830  _grantRole */\n  shl(0x20, tag_7)\n    /* \"code9999/practice2/1.sol\":820:848  _grantRole(ADMIN,msg.sender) */\n  0x20\n  shr\n  jump\t// in\ntag_4:\n    /* \"code9999/practice2/1.sol\":54:1359  contract controlle{... */\n  jump(tag_8)\n    /* \"code9999/practice2/1.sol\":861:1064  function _grantRole(bytes32 _role,address _account) internal{... */\ntag_7:\n    /* \"code9999/practice2/1.sol\":1013:1017  true */\n  0x01\n    /* \"code9999/practice2/1.sol\":988:993  roles */\n  0x00\n    /* \"code9999/practice2/1.sol\":988:1000  roles[_role] */\n  dup1\n    /* \"code9999/practice2/1.sol\":994:999  _role */\n  dup5\n    /* \"code9999/practice2/1.sol\":988:1000  roles[_role] */\n  dup2\n  mstore\n  0x20\n  add\n  swap1\n  dup2\n  mstore\n  0x20\n  add\n  0x00\n  keccak256\n    /* \"code9999/practice2/1.sol\":988:1010  roles[_role][_account] */\n  0x00\n    /* \"code9999/practice2/1.sol\":1001:1009  _account */\n  dup4\n    /* \"code9999/practice2/1.sol\":988:1010  roles[_role][_account] */\n  0xffffffffffffffffffffffffffffffffffffffff\n  and\n  0xffffffffffffffffffffffffffffffffffffffff\n  and\n  dup2\n  mstore\n  0x20\n  add\n  swap1\n  dup2\n  mstore\n  0x20\n  add\n  0x00\n  keccak256\n  0x00\n    /* \"code9999/practice2/1.sol\":988:1017  roles[_role][_account] = true */\n  0x0100\n  exp\n  dup2\n  sload\n  dup2\n  0xff\n  mul\n  not\n  and\n  swap1\n  dup4\n  iszero\n  iszero\n  mul\n  or\n  swap1\n  sstore\n  pop\n    /* \"code9999/practice2/1.sol\":1048:1056  _account */\n  dup1\n    /* \"code9999/practice2/1.sol\":1032:1057  GrantRole(_role,_account) */\n  0xffffffffffffffffffffffffffffffffffffffff\n  and\n    /* \"code9999/practice2/1.sol\":1042:1047  _role */\n  dup3\n    /* \"code9999/practice2/1.sol\":1032:1057  GrantRole(_role,_account) */\n  0x5a06360d65acf95e98445dc834f205063424c636e65418d928cdfabc33a95399\n  mload(0x40)\n  mload(0x40)\n  dup1\n  swap2\n  sub\n  swap1\n  log3\n    /* \"code9999/practice2/1.sol\":861:1064  function _grantRole(bytes32 _role,address _account) internal{... */\n  pop\n  pop\n  jump\t// out\n    /* \"#utility.yul\":7:407   */\ntag_11:\n    /* \"#utility.yul\":167:170   */\n  0x00\n    /* \"#utility.yul\":188:272   */\n  tag_13\n    /* \"#utility.yul\":270:271   */\n  0x05\n    /* \"#utility.yul\":265:268   */\n  dup4\n    /* \"#utility.yul\":188:272   */\n  tag_14\n  jump\t// in\ntag_13:\n    /* \"#utility.yul\":181:272   */\n  swap2\n  pop\n    /* \"#utility.yul\":281:374   */\n  tag_15\n    /* \"#utility.yul\":370:373   */\n  dup3\n    /* \"#utility.yul\":281:374   */\n  tag_16\n  jump\t// in\ntag_15:\n    /* \"#utility.yul\":399:400   */\n  0x05\n    /* \"#utility.yul\":394:397   */\n  dup3\n    /* \"#utility.yul\":390:401   */\n  add\n    /* \"#utility.yul\":383:401   */\n  swap1\n  pop\n    /* \"#utility.yul\":7:407   */\n  swap2\n  swap1\n  pop\n  jump\t// out\n    /* \"#utility.yul\":413:794   */\ntag_6:\n    /* \"#utility.yul\":598:601   */\n  0x00\n    /* \"#utility.yul\":620:768   */\n  tag_18\n    /* \"#utility.yul\":764:767   */\n  dup3\n    /* \"#utility.yul\":620:768   */\n  tag_11\n  jump\t// in\ntag_18:\n    /* \"#utility.yul\":613:768   */\n  swap2\n  pop\n    /* \"#utility.yul\":785:788   */\n  dup2\n    /* \"#utility.yul\":778:788   */\n  swap1\n  pop\n    /* \"#utility.yul\":413:794   */\n  swap2\n  swap1\n  pop\n  jump\t// out\n    /* \"#utility.yul\":800:948   */\ntag_14:\n    /* \"#utility.yul\":902:913   */\n  0x00\n    /* \"#utility.yul\":939:942   */\n  dup2\n    /* \"#utility.yul\":924:942   */\n  swap1\n  pop\n    /* \"#utility.yul\":800:948   */\n  swap3\n  swap2\n  pop\n  pop\n  jump\t// out\n    /* \"#utility.yul\":954:1109   */\ntag_16:\n    /* \"#utility.yul\":1094:1101   */\n  0x41444d494e000000000000000000000000000000000000000000000000000000\n    /* \"#utility.yul\":1090:1091   */\n  0x00\n    /* \"#utility.yul\":1082:1088   */\n  dup3\n    /* \"#utility.yul\":1078:1092   */\n  add\n    /* \"#utility.yul\":1071:1102   */\n  mstore\n    /* \"#utility.yul\":954:1109   */\n  pop\n  jump\t// out\n    /* \"code9999/practice2/1.sol\":54:1359  contract controlle{... */\ntag_8:\n  dataSize(sub_0)\n  dup1\n  dataOffset(sub_0)\n  0x00\n  codecopy\n  0x00\n  return\nstop\n\nsub_0: assembly {\n        /* \"code9999/practice2/1.sol\":54:1359  contract controlle{... */\n      mstore(0x40, 0x80)\n      callvalue\n      dup1\n      iszero\n      tag_1\n      jumpi\n      0x00\n      dup1\n      revert\n    tag_1:\n      pop\n      jumpi(tag_2, lt(calldatasize, 0x04))\n      shr(0xe0, calldataload(0x00))\n      dup1\n      0x2f2ff15d\n      eq\n      tag_3\n      jumpi\n      dup1\n      0x3d86e635\n      eq\n      tag_4\n      jumpi\n      dup1\n      0xd547741f\n      eq\n      tag_5\n      jumpi\n      dup1\n      0xf8fc08b9\n      eq\n      tag_6\n      jumpi\n    tag_2:\n      0x00\n      dup1\n      revert\n        /* \"code9999/practice2/1.sol\":1069:1187  function grantRole(bytes32 _role,address _account) external onlyRole(ADMIN){... */\n    tag_3:\n      tag_7\n      0x04\n      dup1\n      calldatasize\n      sub\n      dup2\n      add\n      swap1\n      tag_8\n      swap2\n      swap1\n      tag_9\n      jump\t// in\n    tag_8:\n      tag_10\n      jump\t// in\n    tag_7:\n      stop\n        /* \"code9999/practice2/1.sol\":674:763  function getADMIN()external view onlyOwner returns(bytes32) {... */\n    tag_4:\n      tag_11\n      tag_12\n      jump\t// in\n    tag_11:\n      mload(0x40)\n      tag_13\n      swap2\n      swap1\n      tag_14\n      jump\t// in\n    tag_13:\n      mload(0x40)\n      dup1\n      swap2\n      sub\n      swap1\n      return\n        /* \"code9999/practice2/1.sol\":1193:1357  function revokeRole(bytes32 _role,address _account) external onlyRole(ADMIN){... */\n    tag_5:\n      tag_15\n      0x04\n      dup1\n      calldatasize\n      sub\n      dup2\n      add\n      swap1\n      tag_16\n      swap2\n      swap1\n      tag_9\n      jump\t// in\n    tag_16:\n      tag_17\n      jump\t// in\n    tag_15:\n      stop\n        /* \"code9999/practice2/1.sol\":240:293  mapping(bytes32=>mapping(address=>bool)) public roles */\n    tag_6:\n      tag_18\n      0x04\n      dup1\n      calldatasize\n      sub\n      dup2\n      add\n      swap1\n      tag_19\n      swap2\n      swap1\n      tag_9\n      jump\t// in\n    tag_19:\n      tag_20\n      jump\t// in\n    tag_18:\n      mload(0x40)\n      tag_21\n      swap2\n      swap1\n      tag_22\n      jump\t// in\n    tag_21:\n      mload(0x40)\n      dup1\n      swap2\n      sub\n      swap1\n      return\n        /* \"code9999/practice2/1.sol\":1069:1187  function grantRole(bytes32 _role,address _account) external onlyRole(ADMIN){... */\n    tag_10:\n        /* \"code9999/practice2/1.sol\":343:368  abi.encodePacked(\"ADMIN\") */\n      add(0x20, mload(0x40))\n      tag_23\n      swap1\n      tag_24\n      jump\t// in\n    tag_23:\n      mload(0x40)\n      0x20\n      dup2\n      dup4\n      sub\n      sub\n      dup2\n      mstore\n      swap1\n      0x40\n      mstore\n        /* \"code9999/practice2/1.sol\":333:369  keccak256(abi.encodePacked(\"ADMIN\")) */\n      dup1\n      mload\n      swap1\n      0x20\n      add\n      keccak256\n        /* \"code9999/practice2/1.sol\":518:523  roles */\n      0x00\n        /* \"code9999/practice2/1.sol\":518:530  roles[_role] */\n      dup1\n        /* \"code9999/practice2/1.sol\":524:529  _role */\n      dup3\n        /* \"code9999/practice2/1.sol\":518:530  roles[_role] */\n      dup2\n      mstore\n      0x20\n      add\n      swap1\n      dup2\n      mstore\n      0x20\n      add\n      0x00\n      keccak256\n        /* \"code9999/practice2/1.sol\":518:542  roles[_role][msg.sender] */\n      0x00\n        /* \"code9999/practice2/1.sol\":531:541  msg.sender */\n      caller\n        /* \"code9999/practice2/1.sol\":518:542  roles[_role][msg.sender] */\n      0xffffffffffffffffffffffffffffffffffffffff\n      and\n      0xffffffffffffffffffffffffffffffffffffffff\n      and\n      dup2\n      mstore\n      0x20\n      add\n      swap1\n      dup2\n      mstore\n      0x20\n      add\n      0x00\n      keccak256\n      0x00\n      swap1\n      sload\n      swap1\n      0x0100\n      exp\n      swap1\n      div\n      0xff\n      and\n        /* \"code9999/practice2/1.sol\":510:558  require(roles[_role][msg.sender],\"not mannager\") */\n      tag_26\n      jumpi\n      mload(0x40)\n      0x08c379a000000000000000000000000000000000000000000000000000000000\n      dup2\n      mstore\n      0x04\n      add\n      tag_27\n      swap1\n      tag_28\n      jump\t// in\n    tag_27:\n      mload(0x40)\n      dup1\n      swap2\n      sub\n      swap1\n      revert\n    tag_26:\n        /* \"code9999/practice2/1.sol\":1154:1180  _grantRole(_role,_account) */\n      tag_30\n        /* \"code9999/practice2/1.sol\":1165:1170  _role */\n      dup4\n        /* \"code9999/practice2/1.sol\":1171:1179  _account */\n      dup4\n        /* \"code9999/practice2/1.sol\":1154:1164  _grantRole */\n      tag_31\n        /* \"code9999/practice2/1.sol\":1154:1180  _grantRole(_role,_account) */\n      jump\t// in\n    tag_30:\n        /* \"code9999/practice2/1.sol\":1069:1187  function grantRole(bytes32 _role,address _account) external onlyRole(ADMIN){... */\n      pop\n      pop\n      pop\n      jump\t// out\n        /* \"code9999/practice2/1.sol\":674:763  function getADMIN()external view onlyOwner returns(bytes32) {... */\n    tag_12:\n        /* \"code9999/practice2/1.sol\":725:732  bytes32 */\n      0x00\n        /* \"code9999/practice2/1.sol\":633:638  owner */\n      0x01\n      0x00\n      swap1\n      sload\n      swap1\n      0x0100\n      exp\n      swap1\n      div\n      0xffffffffffffffffffffffffffffffffffffffff\n      and\n        /* \"code9999/practice2/1.sol\":619:638  msg.sender == owner */\n      0xffffffffffffffffffffffffffffffffffffffff\n      and\n        /* \"code9999/practice2/1.sol\":619:629  msg.sender */\n      caller\n        /* \"code9999/practice2/1.sol\":619:638  msg.sender == owner */\n      0xffffffffffffffffffffffffffffffffffffffff\n      and\n      eq\n        /* \"code9999/practice2/1.sol\":611:651  require(msg.sender == owner,\"not owner\") */\n      tag_33\n      jumpi\n      mload(0x40)\n      0x08c379a000000000000000000000000000000000000000000000000000000000\n      dup2\n      mstore\n      0x04\n      add\n      tag_34\n      swap1\n      tag_35\n      jump\t// in\n    tag_34:\n      mload(0x40)\n      dup1\n      swap2\n      sub\n      swap1\n      revert\n    tag_33:\n        /* \"code9999/practice2/1.sol\":343:368  abi.encodePacked(\"ADMIN\") */\n      add(0x20, mload(0x40))\n      tag_37\n      swap1\n      tag_24\n      jump\t// in\n    tag_37:\n      mload(0x40)\n      0x20\n      dup2\n      dup4\n      sub\n      sub\n      dup2\n      mstore\n      swap1\n      0x40\n      mstore\n        /* \"code9999/practice2/1.sol\":333:369  keccak256(abi.encodePacked(\"ADMIN\")) */\n      dup1\n      mload\n      swap1\n      0x20\n      add\n      keccak256\n        /* \"code9999/practice2/1.sol\":744:756  return ADMIN */\n      swap1\n      pop\n        /* \"code9999/practice2/1.sol\":674:763  function getADMIN()external view onlyOwner returns(bytes32) {... */\n      swap1\n      jump\t// out\n        /* \"code9999/practice2/1.sol\":1193:1357  function revokeRole(bytes32 _role,address _account) external onlyRole(ADMIN){... */\n    tag_17:\n        /* \"code9999/practice2/1.sol\":343:368  abi.encodePacked(\"ADMIN\") */\n      add(0x20, mload(0x40))\n      tag_38\n      swap1\n      tag_24\n      jump\t// in\n    tag_38:\n      mload(0x40)\n      0x20\n      dup2\n      dup4\n      sub\n      sub\n      dup2\n      mstore\n      swap1\n      0x40\n      mstore\n        /* \"code9999/practice2/1.sol\":333:369  keccak256(abi.encodePacked(\"ADMIN\")) */\n      dup1\n      mload\n      swap1\n      0x20\n      add\n      keccak256\n        /* \"code9999/practice2/1.sol\":518:523  roles */\n      0x00\n        /* \"code9999/practice2/1.sol\":518:530  roles[_role] */\n      dup1\n        /* \"code9999/practice2/1.sol\":524:529  _role */\n      dup3\n        /* \"code9999/practice2/1.sol\":518:530  roles[_role] */\n      dup2\n      mstore\n      0x20\n      add\n      swap1\n      dup2\n      mstore\n      0x20\n      add\n      0x00\n      keccak256\n        /* \"code9999/practice2/1.sol\":518:542  roles[_role][msg.sender] */\n      0x00\n        /* \"code9999/practice2/1.sol\":531:541  msg.sender */\n      caller\n        /* \"code9999/practice2/1.sol\":518:542  roles[_role][msg.sender] */\n      0xffffffffffffffffffffffffffffffffffffffff\n      and\n      0xffffffffffffffffffffffffffffffffffffffff\n      and\n      dup2\n      mstore\n      0x20\n      add\n      swap1\n      dup2\n      mstore\n      0x20\n      add\n      0x00\n      keccak256\n      0x00\n      swap1\n      sload\n      swap1\n      0x0100\n      exp\n      swap1\n      div\n      0xff\n      and\n        /* \"code9999/practice2/1.sol\":510:558  require(roles[_role][msg.sender],\"not mannager\") */\n      tag_40\n      jumpi\n      mload(0x40)\n      0x08c379a000000000000000000000000000000000000000000000000000000000\n      dup2\n      mstore\n      0x04\n      add\n      tag_41\n      swap1\n      tag_28\n      jump\t// in\n    tag_41:\n      mload(0x40)\n      dup1\n      swap2\n      sub\n      swap1\n      revert\n    tag_40:\n        /* \"code9999/practice2/1.sol\":1304:1309  false */\n      0x00\n        /* \"code9999/practice2/1.sol\":1279:1284  roles */\n      dup1\n        /* \"code9999/practice2/1.sol\":1279:1291  roles[_role] */\n      0x00\n        /* \"code9999/practice2/1.sol\":1285:1290  _role */\n      dup6\n        /* \"code9999/practice2/1.sol\":1279:1291  roles[_role] */\n      dup2\n      mstore\n      0x20\n      add\n      swap1\n      dup2\n      mstore\n      0x20\n      add\n      0x00\n      keccak256\n        /* \"code9999/practice2/1.sol\":1279:1301  roles[_role][_account] */\n      0x00\n        /* \"code9999/practice2/1.sol\":1292:1300  _account */\n      dup5\n        /* \"code9999/practice2/1.sol\":1279:1301  roles[_role][_account] */\n      0xffffffffffffffffffffffffffffffffffffffff\n      and\n      0xffffffffffffffffffffffffffffffffffffffff\n      and\n      dup2\n      mstore\n      0x20\n      add\n      swap1\n      dup2\n      mstore\n      0x20\n      add\n      0x00\n      keccak256\n      0x00\n        /* \"code9999/practice2/1.sol\":1279:1309  roles[_role][_account] = false */\n      0x0100\n      exp\n      dup2\n      sload\n      dup2\n      0xff\n      mul\n      not\n      and\n      swap1\n      dup4\n      iszero\n      iszero\n      mul\n      or\n      swap1\n      sstore\n      pop\n        /* \"code9999/practice2/1.sol\":1341:1349  _account */\n      dup2\n        /* \"code9999/practice2/1.sol\":1324:1350  RevokeRole(_role,_account) */\n      0xffffffffffffffffffffffffffffffffffffffff\n      and\n        /* \"code9999/practice2/1.sol\":1335:1340  _role */\n      dup4\n        /* \"code9999/practice2/1.sol\":1324:1350  RevokeRole(_role,_account) */\n      0x76e6093c136cd7faa5a6d92b2b633f3b4595abd4a529b7a13917398355fea694\n      mload(0x40)\n      mload(0x40)\n      dup1\n      swap2\n      sub\n      swap1\n      log3\n        /* \"code9999/practice2/1.sol\":1193:1357  function revokeRole(bytes32 _role,address _account) external onlyRole(ADMIN){... */\n      pop\n      pop\n      pop\n      jump\t// out\n        /* \"code9999/practice2/1.sol\":240:293  mapping(bytes32=>mapping(address=>bool)) public roles */\n    tag_20:\n      mstore(0x20, 0x00)\n      dup2\n      0x00\n      mstore\n      mstore(0x20, keccak256(0x00, 0x40))\n      dup1\n      0x00\n      mstore\n      keccak256(0x00, 0x40)\n      0x00\n      swap2\n      pop\n      swap2\n      pop\n      swap1\n      sload\n      swap1\n      0x0100\n      exp\n      swap1\n      div\n      0xff\n      and\n      dup2\n      jump\t// out\n        /* \"code9999/practice2/1.sol\":861:1064  function _grantRole(bytes32 _role,address _account) internal{... */\n    tag_31:\n        /* \"code9999/practice2/1.sol\":1013:1017  true */\n      0x01\n        /* \"code9999/practice2/1.sol\":988:993  roles */\n      0x00\n        /* \"code9999/practice2/1.sol\":988:1000  roles[_role] */\n      dup1\n        /* \"code9999/practice2/1.sol\":994:999  _role */\n      dup5\n        /* \"code9999/practice2/1.sol\":988:1000  roles[_role] */\n      dup2\n      mstore\n      0x20\n      add\n      swap1\n      dup2\n      mstore\n      0x20\n      add\n      0x00\n      keccak256\n        /* \"code9999/practice2/1.sol\":988:1010  roles[_role][_account] */\n      0x00\n        /* \"code9999/practice2/1.sol\":1001:1009  _account */\n      dup4\n        /* \"code9999/practice2/1.sol\":988:1010  roles[_role][_account] */\n      0xffffffffffffffffffffffffffffffffffffffff\n      and\n      0xffffffffffffffffffffffffffffffffffffffff\n      and\n      dup2\n      mstore\n      0x20\n      add\n      swap1\n      dup2\n      mstore\n      0x20\n      add\n      0x00\n      keccak256\n      0x00\n        /* \"code9999/practice2/1.sol\":988:1017  roles[_role][_account] = true */\n      0x0100\n      exp\n      dup2\n      sload\n      dup2\n      0xff\n      mul\n      not\n      and\n      swap1\n      dup4\n      iszero\n      iszero\n      mul\n      or\n      swap1\n      sstore\n      pop\n        /* \"code9999/practice2/1.sol\":1048:1056  _account */\n      dup1\n        /* \"code9999/practice2/1.sol\":1032:1057  GrantRole(_role,_account) */\n      0xffffffffffffffffffffffffffffffffffffffff\n      and\n        /* \"code9999/practice2/1.sol\":1042:1047  _role */\n      dup3\n        /* \"code9999/practice2/1.sol\":1032:1057  GrantRole(_role,_account) */\n      0x5a06360d65acf95e98445dc834f205063424c636e65418d928cdfabc33a95399\n      mload(0x40)\n      mload(0x40)\n      dup1\n      swap2\n      sub\n      swap1\n      log3\n        /* \"code9999/practice2/1.sol\":861:1064  function _grantRole(bytes32 _role,address _account) internal{... */\n      pop\n      pop\n      jump\t// out\n        /* \"#utility.yul\":7:146   */\n    tag_45:\n        /* \"#utility.yul\":53:58   */\n      0x00\n        /* \"#utility.yul\":91:97   */\n      dup2\n        /* \"#utility.yul\":78:98   */\n      calldataload\n        /* \"#utility.yul\":69:98   */\n      swap1\n      pop\n        /* \"#utility.yul\":107:140   */\n      tag_47\n        /* \"#utility.yul\":134:139   */\n      dup2\n        /* \"#utility.yul\":107:140   */\n      tag_48\n      jump\t// in\n    tag_47:\n        /* \"#utility.yul\":7:146   */\n      swap3\n      swap2\n      pop\n      pop\n      jump\t// out\n        /* \"#utility.yul\":152:291   */\n    tag_49:\n        /* \"#utility.yul\":198:203   */\n      0x00\n        /* \"#utility.yul\":236:242   */\n      dup2\n        /* \"#utility.yul\":223:243   */\n      calldataload\n        /* \"#utility.yul\":214:243   */\n      swap1\n      pop\n        /* \"#utility.yul\":252:285   */\n      tag_51\n        /* \"#utility.yul\":279:284   */\n      dup2\n        /* \"#utility.yul\":252:285   */\n      tag_52\n      jump\t// in\n    tag_51:\n        /* \"#utility.yul\":152:291   */\n      swap3\n      swap2\n      pop\n      pop\n      jump\t// out\n        /* \"#utility.yul\":297:771   */\n    tag_9:\n        /* \"#utility.yul\":365:371   */\n      0x00\n        /* \"#utility.yul\":373:379   */\n      dup1\n        /* \"#utility.yul\":422:424   */\n      0x40\n        /* \"#utility.yul\":410:419   */\n      dup4\n        /* \"#utility.yul\":401:408   */\n      dup6\n        /* \"#utility.yul\":397:420   */\n      sub\n        /* \"#utility.yul\":393:425   */\n      slt\n        /* \"#utility.yul\":390:509   */\n      iszero\n      tag_54\n      jumpi\n        /* \"#utility.yul\":428:507   */\n      tag_55\n      tag_56\n      jump\t// in\n    tag_55:\n        /* \"#utility.yul\":390:509   */\n    tag_54:\n        /* \"#utility.yul\":548:549   */\n      0x00\n        /* \"#utility.yul\":573:626   */\n      tag_57\n        /* \"#utility.yul\":618:625   */\n      dup6\n        /* \"#utility.yul\":609:615   */\n      dup3\n        /* \"#utility.yul\":598:607   */\n      dup7\n        /* \"#utility.yul\":594:616   */\n      add\n        /* \"#utility.yul\":573:626   */\n      tag_49\n      jump\t// in\n    tag_57:\n        /* \"#utility.yul\":563:626   */\n      swap3\n      pop\n        /* \"#utility.yul\":519:636   */\n      pop\n        /* \"#utility.yul\":675:677   */\n      0x20\n        /* \"#utility.yul\":701:754   */\n      tag_58\n        /* \"#utility.yul\":746:753   */\n      dup6\n        /* \"#utility.yul\":737:743   */\n      dup3\n        /* \"#utility.yul\":726:735   */\n      dup7\n        /* \"#utility.yul\":722:744   */\n      add\n        /* \"#utility.yul\":701:754   */\n      tag_45\n      jump\t// in\n    tag_58:\n        /* \"#utility.yul\":691:754   */\n      swap2\n      pop\n        /* \"#utility.yul\":646:764   */\n      pop\n        /* \"#utility.yul\":297:771   */\n      swap3\n      pop\n      swap3\n      swap1\n      pop\n      jump\t// out\n        /* \"#utility.yul\":777:886   */\n    tag_59:\n        /* \"#utility.yul\":858:879   */\n      tag_61\n        /* \"#utility.yul\":873:878   */\n      dup2\n        /* \"#utility.yul\":858:879   */\n      tag_62\n      jump\t// in\n    tag_61:\n        /* \"#utility.yul\":853:856   */\n      dup3\n        /* \"#utility.yul\":846:880   */\n      mstore\n        /* \"#utility.yul\":777:886   */\n      pop\n      pop\n      jump\t// out\n        /* \"#utility.yul\":892:1010   */\n    tag_63:\n        /* \"#utility.yul\":979:1003   */\n      tag_65\n        /* \"#utility.yul\":997:1002   */\n      dup2\n        /* \"#utility.yul\":979:1003   */\n      tag_66\n      jump\t// in\n    tag_65:\n        /* \"#utility.yul\":974:977   */\n      dup3\n        /* \"#utility.yul\":967:1004   */\n      mstore\n        /* \"#utility.yul\":892:1010   */\n      pop\n      pop\n      jump\t// out\n        /* \"#utility.yul\":1016:1416   */\n    tag_67:\n        /* \"#utility.yul\":1176:1179   */\n      0x00\n        /* \"#utility.yul\":1197:1281   */\n      tag_69\n        /* \"#utility.yul\":1279:1280   */\n      0x05\n        /* \"#utility.yul\":1274:1277   */\n      dup4\n        /* \"#utility.yul\":1197:1281   */\n      tag_70\n      jump\t// in\n    tag_69:\n        /* \"#utility.yul\":1190:1281   */\n      swap2\n      pop\n        /* \"#utility.yul\":1290:1383   */\n      tag_71\n        /* \"#utility.yul\":1379:1382   */\n      dup3\n        /* \"#utility.yul\":1290:1383   */\n      tag_72\n      jump\t// in\n    tag_71:\n        /* \"#utility.yul\":1408:1409   */\n      0x05\n        /* \"#utility.yul\":1403:1406   */\n      dup3\n        /* \"#utility.yul\":1399:1410   */\n      add\n        /* \"#utility.yul\":1392:1410   */\n      swap1\n      pop\n        /* \"#utility.yul\":1016:1416   */\n      swap2\n      swap1\n      pop\n      jump\t// out\n        /* \"#utility.yul\":1422:1788   */\n    tag_73:\n        /* \"#utility.yul\":1564:1567   */\n      0x00\n        /* \"#utility.yul\":1585:1652   */\n      tag_75\n        /* \"#utility.yul\":1649:1651   */\n      0x0c\n        /* \"#utility.yul\":1644:1647   */\n      dup4\n        /* \"#utility.yul\":1585:1652   */\n      tag_76\n      jump\t// in\n    tag_75:\n        /* \"#utility.yul\":1578:1652   */\n      swap2\n      pop\n        /* \"#utility.yul\":1661:1754   */\n      tag_77\n        /* \"#utility.yul\":1750:1753   */\n      dup3\n        /* \"#utility.yul\":1661:1754   */\n      tag_78\n      jump\t// in\n    tag_77:\n        /* \"#utility.yul\":1779:1781   */\n      0x20\n        /* \"#utility.yul\":1774:1777   */\n      dup3\n        /* \"#utility.yul\":1770:1782   */\n      add\n        /* \"#utility.yul\":1763:1782   */\n      swap1\n      pop\n        /* \"#utility.yul\":1422:1788   */\n      swap2\n      swap1\n      pop\n      jump\t// out\n        /* \"#utility.yul\":1794:2159   */\n    tag_79:\n        /* \"#utility.yul\":1936:1939   */\n      0x00\n        /* \"#utility.yul\":1957:2023   */\n      tag_81\n        /* \"#utility.yul\":2021:2022   */\n      0x09\n        /* \"#utility.yul\":2016:2019   */\n      dup4\n        /* \"#utility.yul\":1957:2023   */\n      tag_76\n      jump\t// in\n    tag_81:\n        /* \"#utility.yul\":1950:2023   */\n      swap2\n      pop\n        /* \"#utility.yul\":2032:2125   */\n      tag_82\n        /* \"#utility.yul\":2121:2124   */\n      dup3\n        /* \"#utility.yul\":2032:2125   */\n      tag_83\n      jump\t// in\n    tag_82:\n        /* \"#utility.yul\":2150:2152   */\n      0x20\n        /* \"#utility.yul\":2145:2148   */\n      dup3\n        /* \"#utility.yul\":2141:2153   */\n      add\n        /* \"#utility.yul\":2134:2153   */\n      swap1\n      pop\n        /* \"#utility.yul\":1794:2159   */\n      swap2\n      swap1\n      pop\n      jump\t// out\n        /* \"#utility.yul\":2165:2546   */\n    tag_24:\n        /* \"#utility.yul\":2350:2353   */\n      0x00\n        /* \"#utility.yul\":2372:2520   */\n      tag_85\n        /* \"#utility.yul\":2516:2519   */\n      dup3\n        /* \"#utility.yul\":2372:2520   */\n      tag_67\n      jump\t// in\n    tag_85:\n        /* \"#utility.yul\":2365:2520   */\n      swap2\n      pop\n        /* \"#utility.yul\":2537:2540   */\n      dup2\n        /* \"#utility.yul\":2530:2540   */\n      swap1\n      pop\n        /* \"#utility.yul\":2165:2546   */\n      swap2\n      swap1\n      pop\n      jump\t// out\n        /* \"#utility.yul\":2552:2762   */\n    tag_22:\n        /* \"#utility.yul\":2639:2643   */\n      0x00\n        /* \"#utility.yul\":2677:2679   */\n      0x20\n        /* \"#utility.yul\":2666:2675   */\n      dup3\n        /* \"#utility.yul\":2662:2680   */\n      add\n        /* \"#utility.yul\":2654:2680   */\n      swap1\n      pop\n        /* \"#utility.yul\":2690:2755   */\n      tag_87\n        /* \"#utility.yul\":2752:2753   */\n      0x00\n        /* \"#utility.yul\":2741:2750   */\n      dup4\n        /* \"#utility.yul\":2737:2754   */\n      add\n        /* \"#utility.yul\":2728:2734   */\n      dup5\n        /* \"#utility.yul\":2690:2755   */\n      tag_59\n      jump\t// in\n    tag_87:\n        /* \"#utility.yul\":2552:2762   */\n      swap3\n      swap2\n      pop\n      pop\n      jump\t// out\n        /* \"#utility.yul\":2768:2990   */\n    tag_14:\n        /* \"#utility.yul\":2861:2865   */\n      0x00\n        /* \"#utility.yul\":2899:2901   */\n      0x20\n        /* \"#utility.yul\":2888:2897   */\n      dup3\n        /* \"#utility.yul\":2884:2902   */\n      add\n        /* \"#utility.yul\":2876:2902   */\n      swap1\n      pop\n        /* \"#utility.yul\":2912:2983   */\n      tag_89\n        /* \"#utility.yul\":2980:2981   */\n      0x00\n        /* \"#utility.yul\":2969:2978   */\n      dup4\n        /* \"#utility.yul\":2965:2982   */\n      add\n        /* \"#utility.yul\":2956:2962   */\n      dup5\n        /* \"#utility.yul\":2912:2983   */\n      tag_63\n      jump\t// in\n    tag_89:\n        /* \"#utility.yul\":2768:2990   */\n      swap3\n      swap2\n      pop\n      pop\n      jump\t// out\n        /* \"#utility.yul\":2996:3415   */\n    tag_28:\n        /* \"#utility.yul\":3162:3166   */\n      0x00\n        /* \"#utility.yul\":3200:3202   */\n      0x20\n        /* \"#utility.yul\":3189:3198   */\n      dup3\n        /* \"#utility.yul\":3185:3203   */\n      add\n        /* \"#utility.yul\":3177:3203   */\n      swap1\n      pop\n        /* \"#utility.yul\":3249:3258   */\n      dup2\n        /* \"#utility.yul\":3243:3247   */\n      dup2\n        /* \"#utility.yul\":3239:3259   */\n      sub\n        /* \"#utility.yul\":3235:3236   */\n      0x00\n        /* \"#utility.yul\":3224:3233   */\n      dup4\n        /* \"#utility.yul\":3220:3237   */\n      add\n        /* \"#utility.yul\":3213:3260   */\n      mstore\n        /* \"#utility.yul\":3277:3408   */\n      tag_91\n        /* \"#utility.yul\":3403:3407   */\n      dup2\n        /* \"#utility.yul\":3277:3408   */\n      tag_73\n      jump\t// in\n    tag_91:\n        /* \"#utility.yul\":3269:3408   */\n      swap1\n      pop\n        /* \"#utility.yul\":2996:3415   */\n      swap2\n      swap1\n      pop\n      jump\t// out\n        /* \"#utility.yul\":3421:3840   */\n    tag_35:\n        /* \"#utility.yul\":3587:3591   */\n      0x00\n        /* \"#utility.yul\":3625:3627   */\n      0x20\n        /* \"#utility.yul\":3614:3623   */\n      dup3\n        /* \"#utility.yul\":3610:3628   */\n      add\n        /* \"#utility.yul\":3602:3628   */\n      swap1\n      pop\n        /* \"#utility.yul\":3674:3683   */\n      dup2\n        /* \"#utility.yul\":3668:3672   */\n      dup2\n        /* \"#utility.yul\":3664:3684   */\n      sub\n        /* \"#utility.yul\":3660:3661   */\n      0x00\n        /* \"#utility.yul\":3649:3658   */\n      dup4\n        /* \"#utility.yul\":3645:3662   */\n      add\n        /* \"#utility.yul\":3638:3685   */\n      mstore\n        /* \"#utility.yul\":3702:3833   */\n      tag_93\n        /* \"#utility.yul\":3828:3832   */\n      dup2\n        /* \"#utility.yul\":3702:3833   */\n      tag_79\n      jump\t// in\n    tag_93:\n        /* \"#utility.yul\":3694:3833   */\n      swap1\n      pop\n        /* \"#utility.yul\":3421:3840   */\n      swap2\n      swap1\n      pop\n      jump\t// out\n        /* \"#utility.yul\":3927:4096   */\n    tag_76:\n        /* \"#utility.yul\":4011:4022   */\n      0x00\n        /* \"#utility.yul\":4045:4051   */\n      dup3\n        /* \"#utility.yul\":4040:4043   */\n      dup3\n        /* \"#utility.yul\":4033:4052   */\n      mstore\n        /* \"#utility.yul\":4085:4089   */\n      0x20\n        /* \"#utility.yul\":4080:4083   */\n      dup3\n        /* \"#utility.yul\":4076:4090   */\n      add\n        /* \"#utility.yul\":4061:4090   */\n      swap1\n      pop\n        /* \"#utility.yul\":3927:4096   */\n      swap3\n      swap2\n      pop\n      pop\n      jump\t// out\n        /* \"#utility.yul\":4102:4250   */\n    tag_70:\n        /* \"#utility.yul\":4204:4215   */\n      0x00\n        /* \"#utility.yul\":4241:4244   */\n      dup2\n        /* \"#utility.yul\":4226:4244   */\n      swap1\n      pop\n        /* \"#utility.yul\":4102:4250   */\n      swap3\n      swap2\n      pop\n      pop\n      jump\t// out\n        /* \"#utility.yul\":4256:4352   */\n    tag_98:\n        /* \"#utility.yul\":4293:4300   */\n      0x00\n        /* \"#utility.yul\":4322:4346   */\n      tag_100\n        /* \"#utility.yul\":4340:4345   */\n      dup3\n        /* \"#utility.yul\":4322:4346   */\n      tag_101\n      jump\t// in\n    tag_100:\n        /* \"#utility.yul\":4311:4346   */\n      swap1\n      pop\n        /* \"#utility.yul\":4256:4352   */\n      swap2\n      swap1\n      pop\n      jump\t// out\n        /* \"#utility.yul\":4358:4448   */\n    tag_62:\n        /* \"#utility.yul\":4392:4399   */\n      0x00\n        /* \"#utility.yul\":4435:4440   */\n      dup2\n        /* \"#utility.yul\":4428:4441   */\n      iszero\n        /* \"#utility.yul\":4421:4442   */\n      iszero\n        /* \"#utility.yul\":4410:4442   */\n      swap1\n      pop\n        /* \"#utility.yul\":4358:4448   */\n      swap2\n      swap1\n      pop\n      jump\t// out\n        /* \"#utility.yul\":4454:4531   */\n    tag_66:\n        /* \"#utility.yul\":4491:4498   */\n      0x00\n        /* \"#utility.yul\":4520:4525   */\n      dup2\n        /* \"#utility.yul\":4509:4525   */\n      swap1\n      pop\n        /* \"#utility.yul\":4454:4531   */\n      swap2\n      swap1\n      pop\n      jump\t// out\n        /* \"#utility.yul\":4537:4663   */\n    tag_101:\n        /* \"#utility.yul\":4574:4581   */\n      0x00\n        /* \"#utility.yul\":4614:4656   */\n      0xffffffffffffffffffffffffffffffffffffffff\n        /* \"#utility.yul\":4607:4612   */\n      dup3\n        /* \"#utility.yul\":4603:4657   */\n      and\n        /* \"#utility.yul\":4592:4657   */\n      swap1\n      pop\n        /* \"#utility.yul\":4537:4663   */\n      swap2\n      swap1\n      pop\n      jump\t// out\n        /* \"#utility.yul\":4792:4909   */\n    tag_56:\n        /* \"#utility.yul\":4901:4902   */\n      0x00\n        /* \"#utility.yul\":4898:4899   */\n      dup1\n        /* \"#utility.yul\":4891:4903   */\n      revert\n        /* \"#utility.yul\":4915:5070   */\n    tag_72:\n        /* \"#utility.yul\":5055:5062   */\n      0x41444d494e000000000000000000000000000000000000000000000000000000\n        /* \"#utility.yul\":5051:5052   */\n      0x00\n        /* \"#utility.yul\":5043:5049   */\n      dup3\n        /* \"#utility.yul\":5039:5053   */\n      add\n        /* \"#utility.yul\":5032:5063   */\n      mstore\n        /* \"#utility.yul\":4915:5070   */\n      pop\n      jump\t// out\n        /* \"#utility.yul\":5076:5238   */\n    tag_78:\n        /* \"#utility.yul\":5216:5230   */\n      0x6e6f74206d616e6e616765720000000000000000000000000000000000000000\n        /* \"#utility.yul\":5212:5213   */\n      0x00\n        /* \"#utility.yul\":5204:5210   */\n      dup3\n        /* \"#utility.yul\":5200:5214   */\n      add\n        /* \"#utility.yul\":5193:5231   */\n      mstore\n        /* \"#utility.yul\":5076:5238   */\n      pop\n      jump\t// out\n        /* \"#utility.yul\":5244:5403   */\n    tag_83:\n        /* \"#utility.yul\":5384:5395   */\n      0x6e6f74206f776e65720000000000000000000000000000000000000000000000\n        /* \"#utility.yul\":5380:5381   */\n      0x00\n        /* \"#utility.yul\":5372:5378   */\n      dup3\n        /* \"#utility.yul\":5368:5382   */\n      add\n        /* \"#utility.yul\":5361:5396   */\n      mstore\n        /* \"#utility.yul\":5244:5403   */\n      pop\n      jump\t// out\n        /* \"#utility.yul\":5409:5531   */\n    tag_48:\n        /* \"#utility.yul\":5482:5506   */\n      tag_112\n        /* \"#utility.yul\":5500:5505   */\n      dup2\n        /* \"#utility.yul\":5482:5506   */\n      tag_98\n      jump\t// in\n    tag_112:\n        /* \"#utility.yul\":5475:5480   */\n      dup2\n        /* \"#utility.yul\":5472:5507   */\n      eq\n        /* \"#utility.yul\":5462:5525   */\n      tag_113\n      jumpi\n        /* \"#utility.yul\":5521:5522   */\n      0x00\n        /* \"#utility.yul\":5518:5519   */\n      dup1\n        /* \"#utility.yul\":5511:5523   */\n      revert\n        /* \"#utility.yul\":5462:5525   */\n    tag_113:\n        /* \"#utility.yul\":5409:5531   */\n      pop\n      jump\t// out\n        /* \"#utility.yul\":5537:5659   */\n    tag_52:\n        /* \"#utility.yul\":5610:5634   */\n      tag_115\n        /* \"#utility.yul\":5628:5633   */\n      dup2\n        /* \"#utility.yul\":5610:5634   */\n      tag_66\n      jump\t// in\n    tag_115:\n        /* \"#utility.yul\":5603:5608   */\n      dup2\n        /* \"#utility.yul\":5600:5635   */\n      eq\n        /* \"#utility.yul\":5590:5653   */\n      tag_116\n      jumpi\n        /* \"#utility.yul\":5649:5650   */\n      0x00\n        /* \"#utility.yul\":5646:5647   */\n      dup1\n        /* \"#utility.yul\":5639:5651   */\n      revert\n        /* \"#utility.yul\":5590:5653   */\n    tag_116:\n        /* \"#utility.yul\":5537:5659   */\n      pop\n      jump\t// out\n\n    auxdata: 0xa2646970667358221220e9f13a73b9a67720c0786cdea3f0b1492fb8d29b3629fc78878b42a540e090f064736f6c63430008070033\n}\n",
				"bytecode": {
					"linkReferences": {},
					"object": "608060405234801561001057600080fd5b5033600160006101000a81548173ffffffffffffffffffffffffffffffffffffffff021916908373ffffffffffffffffffffffffffffffffffffffff1602179055506100866040516020016100649061015e565b604051602081830303815290604052805190602001203361008b60201b60201c565b6101a7565b600160008084815260200190815260200160002060008373ffffffffffffffffffffffffffffffffffffffff1673ffffffffffffffffffffffffffffffffffffffff16815260200190815260200160002060006101000a81548160ff0219169083151502179055508073ffffffffffffffffffffffffffffffffffffffff16827f5a06360d65acf95e98445dc834f205063424c636e65418d928cdfabc33a9539960405160405180910390a35050565b6000610148600583610173565b91506101538261017e565b600582019050919050565b60006101698261013b565b9150819050919050565b600081905092915050565b7f41444d494e000000000000000000000000000000000000000000000000000000600082015250565b610778806101b66000396000f3fe608060405234801561001057600080fd5b506004361061004c5760003560e01c80632f2ff15d146100515780633d86e6351461006d578063d547741f1461008b578063f8fc08b9146100a7575b600080fd5b61006b600480360381019061006691906104de565b6100d7565b005b6100756101a7565b60405161008291906105d5565b60405180910390f35b6100a560048036038101906100a091906104de565b610263565b005b6100c160048036038101906100bc91906104de565b6103d5565b6040516100ce91906105ba565b60405180910390f35b6040516020016100e6906105a5565b6040516020818303038152906040528051906020012060008082815260200190815260200160002060003373ffffffffffffffffffffffffffffffffffffffff1673ffffffffffffffffffffffffffffffffffffffff16815260200190815260200160002060009054906101000a900460ff16610198576040517f08c379a000000000000000000000000000000000000000000000000000000000815260040161018f906105f0565b60405180910390fd5b6101a28383610404565b505050565b6000600160009054906101000a900473ffffffffffffffffffffffffffffffffffffffff1673ffffffffffffffffffffffffffffffffffffffff163373ffffffffffffffffffffffffffffffffffffffff1614610239576040517f08c379a000000000000000000000000000000000000000000000000000000000815260040161023090610610565b60405180910390fd5b604051602001610248906105a5565b60405160208183030381529060405280519060200120905090565b604051602001610272906105a5565b6040516020818303038152906040528051906020012060008082815260200190815260200160002060003373ffffffffffffffffffffffffffffffffffffffff1673ffffffffffffffffffffffffffffffffffffffff16815260200190815260200160002060009054906101000a900460ff16610324576040517f08c379a000000000000000000000000000000000000000000000000000000000815260040161031b906105f0565b60405180910390fd5b600080600085815260200190815260200160002060008473ffffffffffffffffffffffffffffffffffffffff1673ffffffffffffffffffffffffffffffffffffffff16815260200190815260200160002060006101000a81548160ff0219169083151502179055508173ffffffffffffffffffffffffffffffffffffffff16837f76e6093c136cd7faa5a6d92b2b633f3b4595abd4a529b7a13917398355fea69460405160405180910390a3505050565b60006020528160005260406000206020528060005260406000206000915091509054906101000a900460ff1681565b600160008084815260200190815260200160002060008373ffffffffffffffffffffffffffffffffffffffff1673ffffffffffffffffffffffffffffffffffffffff16815260200190815260200160002060006101000a81548160ff0219169083151502179055508073ffffffffffffffffffffffffffffffffffffffff16827f5a06360d65acf95e98445dc834f205063424c636e65418d928cdfabc33a9539960405160405180910390a35050565b6000813590506104c381610714565b92915050565b6000813590506104d88161072b565b92915050565b600080604083850312156104f5576104f4610694565b5b6000610503858286016104c9565b9250506020610514858286016104b4565b9150509250929050565b6105278161065e565b82525050565b6105368161066a565b82525050565b6000610549600583610641565b915061055482610699565b600582019050919050565b600061056c600c83610630565b9150610577826106c2565b602082019050919050565b600061058f600983610630565b915061059a826106eb565b602082019050919050565b60006105b08261053c565b9150819050919050565b60006020820190506105cf600083018461051e565b92915050565b60006020820190506105ea600083018461052d565b92915050565b600060208201905081810360008301526106098161055f565b9050919050565b6000602082019050818103600083015261062981610582565b9050919050565b600082825260208201905092915050565b600081905092915050565b600061065782610674565b9050919050565b60008115159050919050565b6000819050919050565b600073ffffffffffffffffffffffffffffffffffffffff82169050919050565b600080fd5b7f41444d494e000000000000000000000000000000000000000000000000000000600082015250565b7f6e6f74206d616e6e616765720000000000000000000000000000000000000000600082015250565b7f6e6f74206f776e65720000000000000000000000000000000000000000000000600082015250565b61071d8161064c565b811461072857600080fd5b50565b6107348161066a565b811461073f57600080fd5b5056fea2646970667358221220e9f13a73b9a67720c0786cdea3f0b1492fb8d29b3629fc78878b42a540e090f064736f6c63430008070033",
					"opcodes": "PUSH1 0x80 PUSH1 0x40 MSTORE CALLVALUE DUP1 ISZERO PUSH2 0x10 JUMPI PUSH1 0x0 DUP1 REVERT JUMPDEST POP CALLER PUSH1 0x1 PUSH1 0x0 PUSH2 0x100 EXP DUP2 SLOAD DUP2 PUSH20 0xFFFFFFFFFFFFFFFFFFFFFFFFFFFFFFFFFFFFFFFF MUL NOT AND SWAP1 DUP4 PUSH20 0xFFFFFFFFFFFFFFFFFFFFFFFFFFFFFFFFFFFFFFFF AND MUL OR SWAP1 SSTORE POP PUSH2 0x86 PUSH1 0x40 MLOAD PUSH1 0x20 ADD PUSH2 0x64 SWAP1 PUSH2 0x15E JUMP JUMPDEST PUSH1 0x40 MLOAD PUSH1 0x20 DUP2 DUP4 SUB SUB DUP2 MSTORE SWAP1 PUSH1 0x40 MSTORE DUP1 MLOAD SWAP1 PUSH1 0x20 ADD KECCAK256 CALLER PUSH2 0x8B PUSH1 0x20 SHL PUSH1 0x20 SHR JUMP JUMPDEST PUSH2 0x1A7 JUMP JUMPDEST PUSH1 0x1 PUSH1 0x0 DUP1 DUP5 DUP2 MSTORE PUSH1 0x20 ADD SWAP1 DUP2 MSTORE PUSH1 0x20 ADD PUSH1 0x0 KECCAK256 PUSH1 0x0 DUP4 PUSH20 0xFFFFFFFFFFFFFFFFFFFFFFFFFFFFFFFFFFFFFFFF AND PUSH20 0xFFFFFFFFFFFFFFFFFFFFFFFFFFFFFFFFFFFFFFFF AND DUP2 MSTORE PUSH1 0x20 ADD SWAP1 DUP2 MSTORE PUSH1 0x20 ADD PUSH1 0x0 KECCAK256 PUSH1 0x0 PUSH2 0x100 EXP DUP2 SLOAD DUP2 PUSH1 0xFF MUL NOT AND SWAP1 DUP4 ISZERO ISZERO MUL OR SWAP1 SSTORE POP DUP1 PUSH20 0xFFFFFFFFFFFFFFFFFFFFFFFFFFFFFFFFFFFFFFFF AND DUP3 PUSH32 0x5A06360D65ACF95E98445DC834F205063424C636E65418D928CDFABC33A95399 PUSH1 0x40 MLOAD PUSH1 0x40 MLOAD DUP1 SWAP2 SUB SWAP1 LOG3 POP POP JUMP JUMPDEST PUSH1 0x0 PUSH2 0x148 PUSH1 0x5 DUP4 PUSH2 0x173 JUMP JUMPDEST SWAP2 POP PUSH2 0x153 DUP3 PUSH2 0x17E JUMP JUMPDEST PUSH1 0x5 DUP3 ADD SWAP1 POP SWAP2 SWAP1 POP JUMP JUMPDEST PUSH1 0x0 PUSH2 0x169 DUP3 PUSH2 0x13B JUMP JUMPDEST SWAP2 POP DUP2 SWAP1 POP SWAP2 SWAP1 POP JUMP JUMPDEST PUSH1 0x0 DUP2 SWAP1 POP SWAP3 SWAP2 POP POP JUMP JUMPDEST PUSH32 0x41444D494E000000000000000000000000000000000000000000000000000000 PUSH1 0x0 DUP3 ADD MSTORE POP JUMP JUMPDEST PUSH2 0x778 DUP1 PUSH2 0x1B6 PUSH1 0x0 CODECOPY PUSH1 0x0 RETURN INVALID PUSH1 0x80 PUSH1 0x40 MSTORE CALLVALUE DUP1 ISZERO PUSH2 0x10 JUMPI PUSH1 0x0 DUP1 REVERT JUMPDEST POP PUSH1 0x4 CALLDATASIZE LT PUSH2 0x4C JUMPI PUSH1 0x0 CALLDATALOAD PUSH1 0xE0 SHR DUP1 PUSH4 0x2F2FF15D EQ PUSH2 0x51 JUMPI DUP1 PUSH4 0x3D86E635 EQ PUSH2 0x6D JUMPI DUP1 PUSH4 0xD547741F EQ PUSH2 0x8B JUMPI DUP1 PUSH4 0xF8FC08B9 EQ PUSH2 0xA7 JUMPI JUMPDEST PUSH1 0x0 DUP1 REVERT JUMPDEST PUSH2 0x6B PUSH1 0x4 DUP1 CALLDATASIZE SUB DUP2 ADD SWAP1 PUSH2 0x66 SWAP2 SWAP1 PUSH2 0x4DE JUMP JUMPDEST PUSH2 0xD7 JUMP JUMPDEST STOP JUMPDEST PUSH2 0x75 PUSH2 0x1A7 JUMP JUMPDEST PUSH1 0x40 MLOAD PUSH2 0x82 SWAP2 SWAP1 PUSH2 0x5D5 JUMP JUMPDEST PUSH1 0x40 MLOAD DUP1 SWAP2 SUB SWAP1 RETURN JUMPDEST PUSH2 0xA5 PUSH1 0x4 DUP1 CALLDATASIZE SUB DUP2 ADD SWAP1 PUSH2 0xA0 SWAP2 SWAP1 PUSH2 0x4DE JUMP JUMPDEST PUSH2 0x263 JUMP JUMPDEST STOP JUMPDEST PUSH2 0xC1 PUSH1 0x4 DUP1 CALLDATASIZE SUB DUP2 ADD SWAP1 PUSH2 0xBC SWAP2 SWAP1 PUSH2 0x4DE JUMP JUMPDEST PUSH2 0x3D5 JUMP JUMPDEST PUSH1 0x40 MLOAD PUSH2 0xCE SWAP2 SWAP1 PUSH2 0x5BA JUMP JUMPDEST PUSH1 0x40 MLOAD DUP1 SWAP2 SUB SWAP1 RETURN JUMPDEST PUSH1 0x40 MLOAD PUSH1 0x20 ADD PUSH2 0xE6 SWAP1 PUSH2 0x5A5 JUMP JUMPDEST PUSH1 0x40 MLOAD PUSH1 0x20 DUP2 DUP4 SUB SUB DUP2 MSTORE SWAP1 PUSH1 0x40 MSTORE DUP1 MLOAD SWAP1 PUSH1 0x20 ADD KECCAK256 PUSH1 0x0 DUP1 DUP3 DUP2 MSTORE PUSH1 0x20 ADD SWAP1 DUP2 MSTORE PUSH1 0x20 ADD PUSH1 0x0 KECCAK256 PUSH1 0x0 CALLER PUSH20 0xFFFFFFFFFFFFFFFFFFFFFFFFFFFFFFFFFFFFFFFF AND PUSH20 0xFFFFFFFFFFFFFFFFFFFFFFFFFFFFFFFFFFFFFFFF AND DUP2 MSTORE PUSH1 0x20 ADD SWAP1 DUP2 MSTORE PUSH1 0x20 ADD PUSH1 0x0 KECCAK256 PUSH1 0x0 SWAP1 SLOAD SWAP1 PUSH2 0x100 EXP SWAP1 DIV PUSH1 0xFF AND PUSH2 0x198 JUMPI PUSH1 0x40 MLOAD PUSH32 0x8C379A000000000000000000000000000000000000000000000000000000000 DUP2 MSTORE PUSH1 0x4 ADD PUSH2 0x18F SWAP1 PUSH2 0x5F0 JUMP JUMPDEST PUSH1 0x40 MLOAD DUP1 SWAP2 SUB SWAP1 REVERT JUMPDEST PUSH2 0x1A2 DUP4 DUP4 PUSH2 0x404 JUMP JUMPDEST POP POP POP JUMP JUMPDEST PUSH1 0x0 PUSH1 0x1 PUSH1 0x0 SWAP1 SLOAD SWAP1 PUSH2 0x100 EXP SWAP1 DIV PUSH20 0xFFFFFFFFFFFFFFFFFFFFFFFFFFFFFFFFFFFFFFFF AND PUSH20 0xFFFFFFFFFFFFFFFFFFFFFFFFFFFFFFFFFFFFFFFF AND CALLER PUSH20 0xFFFFFFFFFFFFFFFFFFFFFFFFFFFFFFFFFFFFFFFF AND EQ PUSH2 0x239 JUMPI PUSH1 0x40 MLOAD PUSH32 0x8C379A000000000000000000000000000000000000000000000000000000000 DUP2 MSTORE PUSH1 0x4 ADD PUSH2 0x230 SWAP1 PUSH2 0x610 JUMP JUMPDEST PUSH1 0x40 MLOAD DUP1 SWAP2 SUB SWAP1 REVERT JUMPDEST PUSH1 0x40 MLOAD PUSH1 0x20 ADD PUSH2 0x248 SWAP1 PUSH2 0x5A5 JUMP JUMPDEST PUSH1 0x40 MLOAD PUSH1 0x20 DUP2 DUP4 SUB SUB DUP2 MSTORE SWAP1 PUSH1 0x40 MSTORE DUP1 MLOAD SWAP1 PUSH1 0x20 ADD KECCAK256 SWAP1 POP SWAP1 JUMP JUMPDEST PUSH1 0x40 MLOAD PUSH1 0x20 ADD PUSH2 0x272 SWAP1 PUSH2 0x5A5 JUMP JUMPDEST PUSH1 0x40 MLOAD PUSH1 0x20 DUP2 DUP4 SUB SUB DUP2 MSTORE SWAP1 PUSH1 0x40 MSTORE DUP1 MLOAD SWAP1 PUSH1 0x20 ADD KECCAK256 PUSH1 0x0 DUP1 DUP3 DUP2 MSTORE PUSH1 0x20 ADD SWAP1 DUP2 MSTORE PUSH1 0x20 ADD PUSH1 0x0 KECCAK256 PUSH1 0x0 CALLER PUSH20 0xFFFFFFFFFFFFFFFFFFFFFFFFFFFFFFFFFFFFFFFF AND PUSH20 0xFFFFFFFFFFFFFFFFFFFFFFFFFFFFFFFFFFFFFFFF AND DUP2 MSTORE PUSH1 0x20 ADD SWAP1 DUP2 MSTORE PUSH1 0x20 ADD PUSH1 0x0 KECCAK256 PUSH1 0x0 SWAP1 SLOAD SWAP1 PUSH2 0x100 EXP SWAP1 DIV PUSH1 0xFF AND PUSH2 0x324 JUMPI PUSH1 0x40 MLOAD PUSH32 0x8C379A000000000000000000000000000000000000000000000000000000000 DUP2 MSTORE PUSH1 0x4 ADD PUSH2 0x31B SWAP1 PUSH2 0x5F0 JUMP JUMPDEST PUSH1 0x40 MLOAD DUP1 SWAP2 SUB SWAP1 REVERT JUMPDEST PUSH1 0x0 DUP1 PUSH1 0x0 DUP6 DUP2 MSTORE PUSH1 0x20 ADD SWAP1 DUP2 MSTORE PUSH1 0x20 ADD PUSH1 0x0 KECCAK256 PUSH1 0x0 DUP5 PUSH20 0xFFFFFFFFFFFFFFFFFFFFFFFFFFFFFFFFFFFFFFFF AND PUSH20 0xFFFFFFFFFFFFFFFFFFFFFFFFFFFFFFFFFFFFFFFF AND DUP2 MSTORE PUSH1 0x20 ADD SWAP1 DUP2 MSTORE PUSH1 0x20 ADD PUSH1 0x0 KECCAK256 PUSH1 0x0 PUSH2 0x100 EXP DUP2 SLOAD DUP2 PUSH1 0xFF MUL NOT AND SWAP1 DUP4 ISZERO ISZERO MUL OR SWAP1 SSTORE POP DUP2 PUSH20 0xFFFFFFFFFFFFFFFFFFFFFFFFFFFFFFFFFFFFFFFF AND DUP4 PUSH32 0x76E6093C136CD7FAA5A6D92B2B633F3B4595ABD4A529B7A13917398355FEA694 PUSH1 0x40 MLOAD PUSH1 0x40 MLOAD DUP1 SWAP2 SUB SWAP1 LOG3 POP POP POP JUMP JUMPDEST PUSH1 0x0 PUSH1 0x20 MSTORE DUP2 PUSH1 0x0 MSTORE PUSH1 0x40 PUSH1 0x0 KECCAK256 PUSH1 0x20 MSTORE DUP1 PUSH1 0x0 MSTORE PUSH1 0x40 PUSH1 0x0 KECCAK256 PUSH1 0x0 SWAP2 POP SWAP2 POP SWAP1 SLOAD SWAP1 PUSH2 0x100 EXP SWAP1 DIV PUSH1 0xFF AND DUP2 JUMP JUMPDEST PUSH1 0x1 PUSH1 0x0 DUP1 DUP5 DUP2 MSTORE PUSH1 0x20 ADD SWAP1 DUP2 MSTORE PUSH1 0x20 ADD PUSH1 0x0 KECCAK256 PUSH1 0x0 DUP4 PUSH20 0xFFFFFFFFFFFFFFFFFFFFFFFFFFFFFFFFFFFFFFFF AND PUSH20 0xFFFFFFFFFFFFFFFFFFFFFFFFFFFFFFFFFFFFFFFF AND DUP2 MSTORE PUSH1 0x20 ADD SWAP1 DUP2 MSTORE PUSH1 0x20 ADD PUSH1 0x0 KECCAK256 PUSH1 0x0 PUSH2 0x100 EXP DUP2 SLOAD DUP2 PUSH1 0xFF MUL NOT AND SWAP1 DUP4 ISZERO ISZERO MUL OR SWAP1 SSTORE POP DUP1 PUSH20 0xFFFFFFFFFFFFFFFFFFFFFFFFFFFFFFFFFFFFFFFF AND DUP3 PUSH32 0x5A06360D65ACF95E98445DC834F205063424C636E65418D928CDFABC33A95399 PUSH1 0x40 MLOAD PUSH1 0x40 MLOAD DUP1 SWAP2 SUB SWAP1 LOG3 POP POP JUMP JUMPDEST PUSH1 0x0 DUP2 CALLDATALOAD SWAP1 POP PUSH2 0x4C3 DUP2 PUSH2 0x714 JUMP JUMPDEST SWAP3 SWAP2 POP POP JUMP JUMPDEST PUSH1 0x0 DUP2 CALLDATALOAD SWAP1 POP PUSH2 0x4D8 DUP2 PUSH2 0x72B JUMP JUMPDEST SWAP3 SWAP2 POP POP JUMP JUMPDEST PUSH1 0x0 DUP1 PUSH1 0x40 DUP4 DUP6 SUB SLT ISZERO PUSH2 0x4F5 JUMPI PUSH2 0x4F4 PUSH2 0x694 JUMP JUMPDEST JUMPDEST PUSH1 0x0 PUSH2 0x503 DUP6 DUP3 DUP7 ADD PUSH2 0x4C9 JUMP JUMPDEST SWAP3 POP POP PUSH1 0x20 PUSH2 0x514 DUP6 DUP3 DUP7 ADD PUSH2 0x4B4 JUMP JUMPDEST SWAP2 POP POP SWAP3 POP SWAP3 SWAP1 POP JUMP JUMPDEST PUSH2 0x527 DUP2 PUSH2 0x65E JUMP JUMPDEST DUP3 MSTORE POP POP JUMP JUMPDEST PUSH2 0x536 DUP2 PUSH2 0x66A JUMP JUMPDEST DUP3 MSTORE POP POP JUMP JUMPDEST PUSH1 0x0 PUSH2 0x549 PUSH1 0x5 DUP4 PUSH2 0x641 JUMP JUMPDEST SWAP2 POP PUSH2 0x554 DUP3 PUSH2 0x699 JUMP JUMPDEST PUSH1 0x5 DUP3 ADD SWAP1 POP SWAP2 SWAP1 POP JUMP JUMPDEST PUSH1 0x0 PUSH2 0x56C PUSH1 0xC DUP4 PUSH2 0x630 JUMP JUMPDEST SWAP2 POP PUSH2 0x577 DUP3 PUSH2 0x6C2 JUMP JUMPDEST PUSH1 0x20 DUP3 ADD SWAP1 POP SWAP2 SWAP1 POP JUMP JUMPDEST PUSH1 0x0 PUSH2 0x58F PUSH1 0x9 DUP4 PUSH2 0x630 JUMP JUMPDEST SWAP2 POP PUSH2 0x59A DUP3 PUSH2 0x6EB JUMP JUMPDEST PUSH1 0x20 DUP3 ADD SWAP1 POP SWAP2 SWAP1 POP JUMP JUMPDEST PUSH1 0x0 PUSH2 0x5B0 DUP3 PUSH2 0x53C JUMP JUMPDEST SWAP2 POP DUP2 SWAP1 POP SWAP2 SWAP1 POP JUMP JUMPDEST PUSH1 0x0 PUSH1 0x20 DUP3 ADD SWAP1 POP PUSH2 0x5CF PUSH1 0x0 DUP4 ADD DUP5 PUSH2 0x51E JUMP JUMPDEST SWAP3 SWAP2 POP POP JUMP JUMPDEST PUSH1 0x0 PUSH1 0x20 DUP3 ADD SWAP1 POP PUSH2 0x5EA PUSH1 0x0 DUP4 ADD DUP5 PUSH2 0x52D JUMP JUMPDEST SWAP3 SWAP2 POP POP JUMP JUMPDEST PUSH1 0x0 PUSH1 0x20 DUP3 ADD SWAP1 POP DUP2 DUP2 SUB PUSH1 0x0 DUP4 ADD MSTORE PUSH2 0x609 DUP2 PUSH2 0x55F JUMP JUMPDEST SWAP1 POP SWAP2 SWAP1 POP JUMP JUMPDEST PUSH1 0x0 PUSH1 0x20 DUP3 ADD SWAP1 POP DUP2 DUP2 SUB PUSH1 0x0 DUP4 ADD MSTORE PUSH2 0x629 DUP2 PUSH2 0x582 JUMP JUMPDEST SWAP1 POP SWAP2 SWAP1 POP JUMP JUMPDEST PUSH1 0x0 DUP3 DUP3 MSTORE PUSH1 0x20 DUP3 ADD SWAP1 POP SWAP3 SWAP2 POP POP JUMP JUMPDEST PUSH1 0x0 DUP2 SWAP1 POP SWAP3 SWAP2 POP POP JUMP JUMPDEST PUSH1 0x0 PUSH2 0x657 DUP3 PUSH2 0x674 JUMP JUMPDEST SWAP1 POP SWAP2 SWAP1 POP JUMP JUMPDEST PUSH1 0x0 DUP2 ISZERO ISZERO SWAP1 POP SWAP2 SWAP1 POP JUMP JUMPDEST PUSH1 0x0 DUP2 SWAP1 POP SWAP2 SWAP1 POP JUMP JUMPDEST PUSH1 0x0 PUSH20 0xFFFFFFFFFFFFFFFFFFFFFFFFFFFFFFFFFFFFFFFF DUP3 AND SWAP1 POP SWAP2 SWAP1 POP JUMP JUMPDEST PUSH1 0x0 DUP1 REVERT JUMPDEST PUSH32 0x41444D494E000000000000000000000000000000000000000000000000000000 PUSH1 0x0 DUP3 ADD MSTORE POP JUMP JUMPDEST PUSH32 0x6E6F74206D616E6E616765720000000000000000000000000000000000000000 PUSH1 0x0 DUP3 ADD MSTORE POP JUMP JUMPDEST PUSH32 0x6E6F74206F776E65720000000000000000000000000000000000000000000000 PUSH1 0x0 DUP3 ADD MSTORE POP JUMP JUMPDEST PUSH2 0x71D DUP2 PUSH2 0x64C JUMP JUMPDEST DUP2 EQ PUSH2 0x728 JUMPI PUSH1 0x0 DUP1 REVERT JUMPDEST POP JUMP JUMPDEST PUSH2 0x734 DUP2 PUSH2 0x66A JUMP JUMPDEST DUP2 EQ PUSH2 0x73F JUMPI PUSH1 0x0 DUP1 REVERT JUMPDEST POP JUMP INVALID LOG2 PUSH5 0x6970667358 0x22 SLT KECCAK256 0xE9 CALL GASPRICE PUSH20 0xB9A67720C0786CDEA3F0B1492FB8D29B3629FC78 DUP8 DUP12 TIMESTAMP 0xA5 BLOCKHASH 0xE0 SWAP1 CREATE PUSH5 0x736F6C6343 STOP ADDMOD SMOD STOP CALLER "
				},
				"gasEstimates": {
					"creation": {
						"codeDepositCost": "382400",
						"executionCost": "infinite",
						"totalCost": "infinite"
					},
					"external": {
						"getADMIN()": "2812",
						"grantRole(bytes32,address)": "29247",
						"revokeRole(bytes32,address)": "29257",
						"roles(bytes32,address)": "3131"
					},
					"internal": {
						"_grantRole(bytes32,address)": "25996"
					}
				},
				"methodIdentifiers": {
					"getADMIN()": "3d86e635",
					"grantRole(bytes32,address)": "2f2ff15d",
					"revokeRole(bytes32,address)": "d547741f",
					"roles(bytes32,address)": "f8fc08b9"
				}
			},
			"storageLayout": {
				"storage": [
					{
						"astId": 19,
						"contract": "code9999/practice2/1.sol:controlle",
						"label": "roles",
						"offset": 0,
						"slot": "0",
						"type": "t_mapping(t_bytes32,t_mapping(t_address,t_bool))"
					},
					{
						"astId": 37,
						"contract": "code9999/practice2/1.sol:controlle",
						"label": "owner",
						"offset": 0,
						"slot": "1",
						"type": "t_address"
					}
				],
				"types": {
					"t_address": {
						"encoding": "inplace",
						"label": "address",
						"numberOfBytes": "20"
					},
					"t_bool": {
						"encoding": "inplace",
						"label": "bool",
						"numberOfBytes": "1"
					},
					"t_bytes32": {
						"encoding": "inplace",
						"label": "bytes32",
						"numberOfBytes": "32"
					},
					"t_mapping(t_address,t_bool)": {
						"encoding": "mapping",
						"key": "t_address",
						"label": "mapping(address => bool)",
						"numberOfBytes": "32",
						"value": "t_bool"
					},
					"t_mapping(t_bytes32,t_mapping(t_address,t_bool))": {
						"encoding": "mapping",
						"key": "t_bytes32",
						"label": "mapping(bytes32 => mapping(address => bool))",
						"numberOfBytes": "32",
						"value": "t_mapping(t_address,t_bool)"
					}
				}
			},
			"userdoc": {
				"kind": "user",
				"methods": {},
				"version": 1
			}
		}
	}
}