{
	"code9999/practice2/1.sol": {
		"controlle": {
			"abi": [
				{
					"inputs": [],
					"stateMutability": "nonpayable",
					"type": "constructor"
				},
				{
					"anonymous": false,
					"inputs": [
						{
							"indexed": true,
							"internalType": "bytes32",
							"name": "role",
							"type": "bytes32"
						},
						{
							"indexed": true,
							"internalType": "address",
							"name": "account",
							"type": "address"
						}
					],
					"name": "GrantRole",
					"type": "event"
				},
				{
					"anonymous": false,
					"inputs": [
						{
							"indexed": true,
							"internalType": "bytes32",
							"name": "role",
							"type": "bytes32"
						},
						{
							"indexed": true,
							"internalType": "address",
							"name": "account",
							"type": "address"
						}
					],
					"name": "RevokeRole",
					"type": "event"
				},
				{
					"inputs": [],
					"name": "getADMIN",
					"outputs": [],
					"stateMutability": "view",
					"type": "function"
				},
				{
					"inputs": [
						{
							"internalType": "bytes32",
							"name": "_role",
							"type": "bytes32"
						},
						{
							"internalType": "address",
							"name": "_account",
							"type": "address"
						}
					],
					"name": "grantRole",
					"outputs": [],
					"stateMutability": "nonpayable",
					"type": "function"
				},
				{
					"inputs": [
						{
							"internalType": "bytes32",
							"name": "_role",
							"type": "bytes32"
						},
						{
							"internalType": "address",
							"name": "_account",
							"type": "address"
						}
					],
					"name": "revokeRole",
					"outputs": [],
					"stateMutability": "nonpayable",
					"type": "function"
				},
				{
					"inputs": [
						{
							"internalType": "bytes32",
							"name": "",
							"type": "bytes32"
						},
						{
							"internalType": "address",
							"name": "",
							"type": "address"
						}
					],
					"name": "roles",
					"outputs": [
						{
							"internalType": "bool",
							"name": "",
							"type": "bool"
						}
					],
					"stateMutability": "view",
					"type": "function"
				}
			],
			"devdoc": {
				"kind": "dev",
				"methods": {},
				"version": 1
			},
			"evm": {
				"assembly": "    /* \"code9999/practice2/1.sol\":54:1328  contract controlle{... */\n  mstore(0x40, 0x80)\n    /* \"code9999/practice2/1.sol\":738:824  constructor(){... */\n  callvalue\n  dup1\n  iszero\n  tag_1\n  jumpi\n  0x00\n  dup1\n  revert\ntag_1:\n  pop\n    /* \"code9999/practice2/1.sol\":769:779  msg.sender */\n  caller\n    /* \"code9999/practice2/1.sol\":761:766  owner */\n  0x01\n  0x00\n    /* \"code9999/practice2/1.sol\":761:779  owner = msg.sender */\n  0x0100\n  exp\n  dup2\n  sload\n  dup2\n  0xffffffffffffffffffffffffffffffffffffffff\n  mul\n  not\n  and\n  swap1\n  dup4\n  0xffffffffffffffffffffffffffffffffffffffff\n  and\n  mul\n  or\n  swap1\n  sstore\n  pop\n    /* \"code9999/practice2/1.sol\":789:817  _grantRole(ADMIN,msg.sender) */\n  tag_4\n    /* \"code9999/practice2/1.sol\":343:368  abi.encodePacked(\"ADMIN\") */\n  add(0x20, mload(0x40))\n  tag_5\n  swap1\n  tag_6\n  jump\t// in\ntag_5:\n  mload(0x40)\n  0x20\n  dup2\n  dup4\n  sub\n  sub\n  dup2\n  mstore\n  swap1\n  0x40\n  mstore\n    /* \"code9999/practice2/1.sol\":333:369  keccak256(abi.encodePacked(\"ADMIN\")) */\n  dup1\n  mload\n  swap1\n  0x20\n  add\n  keccak256\n    /* \"code9999/practice2/1.sol\":806:816  msg.sender */\n  caller\n    /* \"code9999/practice2/1.sol\":789:799  _grantRole */\n  shl(0x20, tag_7)\n    /* \"code9999/practice2/1.sol\":789:817  _grantRole(ADMIN,msg.sender) */\n  0x20\n  shr\n  jump\t// in\ntag_4:\n    /* \"code9999/practice2/1.sol\":54:1328  contract controlle{... */\n  jump(tag_8)\n    /* \"code9999/practice2/1.sol\":830:1033  function _grantRole(bytes32 _role,address _account) internal{... */\ntag_7:\n    /* \"code9999/practice2/1.sol\":982:986  true */\n  0x01\n    /* \"code9999/practice2/1.sol\":957:962  roles */\n  0x00\n    /* \"code9999/practice2/1.sol\":957:969  roles[_role] */\n  dup1\n    /* \"code9999/practice2/1.sol\":963:968  _role */\n  dup5\n    /* \"code9999/practice2/1.sol\":957:969  roles[_role] */\n  dup2\n  mstore\n  0x20\n  add\n  swap1\n  dup2\n  mstore\n  0x20\n  add\n  0x00\n  keccak256\n    /* \"code9999/practice2/1.sol\":957:979  roles[_role][_account] */\n  0x00\n    /* \"code9999/practice2/1.sol\":970:978  _account */\n  dup4\n    /* \"code9999/practice2/1.sol\":957:979  roles[_role][_account] */\n  0xffffffffffffffffffffffffffffffffffffffff\n  and\n  0xffffffffffffffffffffffffffffffffffffffff\n  and\n  dup2\n  mstore\n  0x20\n  add\n  swap1\n  dup2\n  mstore\n  0x20\n  add\n  0x00\n  keccak256\n  0x00\n    /* \"code9999/practice2/1.sol\":957:986  roles[_role][_account] = true */\n  0x0100\n  exp\n  dup2\n  sload\n  dup2\n  0xff\n  mul\n  not\n  and\n  swap1\n  dup4\n  iszero\n  iszero\n  mul\n  or\n  swap1\n  sstore\n  pop\n    /* \"code9999/practice2/1.sol\":1017:1025  _account */\n  dup1\n    /* \"code9999/practice2/1.sol\":1001:1026  GrantRole(_role,_account) */\n  0xffffffffffffffffffffffffffffffffffffffff\n  and\n    /* \"code9999/practice2/1.sol\":1011:1016  _role */\n  dup3\n    /* \"code9999/practice2/1.sol\":1001:1026  GrantRole(_role,_account) */\n  0x5a06360d65acf95e98445dc834f205063424c636e65418d928cdfabc33a95399\n  mload(0x40)\n  mload(0x40)\n  dup1\n  swap2\n  sub\n  swap1\n  log3\n    /* \"code9999/practice2/1.sol\":830:1033  function _grantRole(bytes32 _role,address _account) internal{... */\n  pop\n  pop\n  jump\t// out\n    /* \"#utility.yul\":7:407   */\ntag_11:\n    /* \"#utility.yul\":167:170   */\n  0x00\n    /* \"#utility.yul\":188:272   */\n  tag_13\n    /* \"#utility.yul\":270:271   */\n  0x05\n    /* \"#utility.yul\":265:268   */\n  dup4\n    /* \"#utility.yul\":188:272   */\n  tag_14\n  jump\t// in\ntag_13:\n    /* \"#utility.yul\":181:272   */\n  swap2\n  pop\n    /* \"#utility.yul\":281:374   */\n  tag_15\n    /* \"#utility.yul\":370:373   */\n  dup3\n    /* \"#utility.yul\":281:374   */\n  tag_16\n  jump\t// in\ntag_15:\n    /* \"#utility.yul\":399:400   */\n  0x05\n    /* \"#utility.yul\":394:397   */\n  dup3\n    /* \"#utility.yul\":390:401   */\n  add\n    /* \"#utility.yul\":383:401   */\n  swap1\n  pop\n    /* \"#utility.yul\":7:407   */\n  swap2\n  swap1\n  pop\n  jump\t// out\n    /* \"#utility.yul\":413:794   */\ntag_6:\n    /* \"#utility.yul\":598:601   */\n  0x00\n    /* \"#utility.yul\":620:768   */\n  tag_18\n    /* \"#utility.yul\":764:767   */\n  dup3\n    /* \"#utility.yul\":620:768   */\n  tag_11\n  jump\t// in\ntag_18:\n    /* \"#utility.yul\":613:768   */\n  swap2\n  pop\n    /* \"#utility.yul\":785:788   */\n  dup2\n    /* \"#utility.yul\":778:788   */\n  swap1\n  pop\n    /* \"#utility.yul\":413:794   */\n  swap2\n  swap1\n  pop\n  jump\t// out\n    /* \"#utility.yul\":800:948   */\ntag_14:\n    /* \"#utility.yul\":902:913   */\n  0x00\n    /* \"#utility.yul\":939:942   */\n  dup2\n    /* \"#utility.yul\":924:942   */\n  swap1\n  pop\n    /* \"#utility.yul\":800:948   */\n  swap3\n  swap2\n  pop\n  pop\n  jump\t// out\n    /* \"#utility.yul\":954:1109   */\ntag_16:\n    /* \"#utility.yul\":1094:1101   */\n  0x41444d494e000000000000000000000000000000000000000000000000000000\n    /* \"#utility.yul\":1090:1091   */\n  0x00\n    /* \"#utility.yul\":1082:1088   */\n  dup3\n    /* \"#utility.yul\":1078:1092   */\n  add\n    /* \"#utility.yul\":1071:1102   */\n  mstore\n    /* \"#utility.yul\":954:1109   */\n  pop\n  jump\t// out\n    /* \"code9999/practice2/1.sol\":54:1328  contract controlle{... */\ntag_8:\n  dataSize(sub_0)\n  dup1\n  dataOffset(sub_0)\n  0x00\n  codecopy\n  0x00\n  return\nstop\n\nsub_0: assembly {\n        /* \"code9999/practice2/1.sol\":54:1328  contract controlle{... */\n      mstore(0x40, 0x80)\n      callvalue\n      dup1\n      iszero\n      tag_1\n      jumpi\n      0x00\n      dup1\n      revert\n    tag_1:\n      pop\n      jumpi(tag_2, lt(calldatasize, 0x04))\n      shr(0xe0, calldataload(0x00))\n      dup1\n      0x2f2ff15d\n      eq\n      tag_3\n      jumpi\n      dup1\n      0x3d86e635\n      eq\n      tag_4\n      jumpi\n      dup1\n      0xd547741f\n      eq\n      tag_5\n      jumpi\n      dup1\n      0xf8fc08b9\n      eq\n      tag_6\n      jumpi\n    tag_2:\n      0x00\n      dup1\n      revert\n        /* \"code9999/practice2/1.sol\":1038:1156  function grantRole(bytes32 _role,address _account) external onlyRole(ADMIN){... */\n    tag_3:\n      tag_7\n      0x04\n      dup1\n      calldatasize\n      sub\n      dup2\n      add\n      swap1\n      tag_8\n      swap2\n      swap1\n      tag_9\n      jump\t// in\n    tag_8:\n      tag_10\n      jump\t// in\n    tag_7:\n      stop\n        /* \"code9999/practice2/1.sol\":674:732  function getADMIN()external view onlyOwner{... */\n    tag_4:\n      tag_11\n      tag_12\n      jump\t// in\n    tag_11:\n      stop\n        /* \"code9999/practice2/1.sol\":1162:1326  function revokeRole(bytes32 _role,address _account) external onlyRole(ADMIN){... */\n    tag_5:\n      tag_13\n      0x04\n      dup1\n      calldatasize\n      sub\n      dup2\n      add\n      swap1\n      tag_14\n      swap2\n      swap1\n      tag_9\n      jump\t// in\n    tag_14:\n      tag_15\n      jump\t// in\n    tag_13:\n      stop\n        /* \"code9999/practice2/1.sol\":240:293  mapping(bytes32=>mapping(address=>bool)) public roles */\n    tag_6:\n      tag_16\n      0x04\n      dup1\n      calldatasize\n      sub\n      dup2\n      add\n      swap1\n      tag_17\n      swap2\n      swap1\n      tag_9\n      jump\t// in\n    tag_17:\n      tag_18\n      jump\t// in\n    tag_16:\n      mload(0x40)\n      tag_19\n      swap2\n      swap1\n      tag_20\n      jump\t// in\n    tag_19:\n      mload(0x40)\n      dup1\n      swap2\n      sub\n      swap1\n      return\n        /* \"code9999/practice2/1.sol\":1038:1156  function grantRole(bytes32 _role,address _account) external onlyRole(ADMIN){... */\n    tag_10:\n        /* \"code9999/practice2/1.sol\":343:368  abi.encodePacked(\"ADMIN\") */\n      add(0x20, mload(0x40))\n      tag_21\n      swap1\n      tag_22\n      jump\t// in\n    tag_21:\n      mload(0x40)\n      0x20\n      dup2\n      dup4\n      sub\n      sub\n      dup2\n      mstore\n      swap1\n      0x40\n      mstore\n        /* \"code9999/practice2/1.sol\":333:369  keccak256(abi.encodePacked(\"ADMIN\")) */\n      dup1\n      mload\n      swap1\n      0x20\n      add\n      keccak256\n        /* \"code9999/practice2/1.sol\":518:523  roles */\n      0x00\n        /* \"code9999/practice2/1.sol\":518:530  roles[_role] */\n      dup1\n        /* \"code9999/practice2/1.sol\":524:529  _role */\n      dup3\n        /* \"code9999/practice2/1.sol\":518:530  roles[_role] */\n      dup2\n      mstore\n      0x20\n      add\n      swap1\n      dup2\n      mstore\n      0x20\n      add\n      0x00\n      keccak256\n        /* \"code9999/practice2/1.sol\":518:542  roles[_role][msg.sender] */\n      0x00\n        /* \"code9999/practice2/1.sol\":531:541  msg.sender */\n      caller\n        /* \"code9999/practice2/1.sol\":518:542  roles[_role][msg.sender] */\n      0xffffffffffffffffffffffffffffffffffffffff\n      and\n      0xffffffffffffffffffffffffffffffffffffffff\n      and\n      dup2\n      mstore\n      0x20\n      add\n      swap1\n      dup2\n      mstore\n      0x20\n      add\n      0x00\n      keccak256\n      0x00\n      swap1\n      sload\n      swap1\n      0x0100\n      exp\n      swap1\n      div\n      0xff\n      and\n        /* \"code9999/practice2/1.sol\":510:558  require(roles[_role][msg.sender],\"not mannager\") */\n      tag_24\n      jumpi\n      mload(0x40)\n      0x08c379a000000000000000000000000000000000000000000000000000000000\n      dup2\n      mstore\n      0x04\n      add\n      tag_25\n      swap1\n      tag_26\n      jump\t// in\n    tag_25:\n      mload(0x40)\n      dup1\n      swap2\n      sub\n      swap1\n      revert\n    tag_24:\n        /* \"code9999/practice2/1.sol\":1123:1149  _grantRole(_role,_account) */\n      tag_28\n        /* \"code9999/practice2/1.sol\":1134:1139  _role */\n      dup4\n        /* \"code9999/practice2/1.sol\":1140:1148  _account */\n      dup4\n        /* \"code9999/practice2/1.sol\":1123:1133  _grantRole */\n      tag_29\n        /* \"code9999/practice2/1.sol\":1123:1149  _grantRole(_role,_account) */\n      jump\t// in\n    tag_28:\n        /* \"code9999/practice2/1.sol\":1038:1156  function grantRole(bytes32 _role,address _account) external onlyRole(ADMIN){... */\n      pop\n      pop\n      pop\n      jump\t// out\n        /* \"code9999/practice2/1.sol\":674:732  function getADMIN()external view onlyOwner{... */\n    tag_12:\n        /* \"code9999/practice2/1.sol\":633:638  owner */\n      0x01\n      0x00\n      swap1\n      sload\n      swap1\n      0x0100\n      exp\n      swap1\n      div\n      0xffffffffffffffffffffffffffffffffffffffff\n      and\n        /* \"code9999/practice2/1.sol\":619:638  msg.sender == owner */\n      0xffffffffffffffffffffffffffffffffffffffff\n      and\n        /* \"code9999/practice2/1.sol\":619:629  msg.sender */\n      caller\n        /* \"code9999/practice2/1.sol\":619:638  msg.sender == owner */\n      0xffffffffffffffffffffffffffffffffffffffff\n      and\n      eq\n        /* \"code9999/practice2/1.sol\":611:651  require(msg.sender == owner,\"not owner\") */\n      tag_31\n      jumpi\n      mload(0x40)\n      0x08c379a000000000000000000000000000000000000000000000000000000000\n      dup2\n      mstore\n      0x04\n      add\n      tag_32\n      swap1\n      tag_33\n      jump\t// in\n    tag_32:\n      mload(0x40)\n      dup1\n      swap2\n      sub\n      swap1\n      revert\n    tag_31:\n        /* \"code9999/practice2/1.sol\":674:732  function getADMIN()external view onlyOwner{... */\n      jump\t// out\n        /* \"code9999/practice2/1.sol\":1162:1326  function revokeRole(bytes32 _role,address _account) external onlyRole(ADMIN){... */\n    tag_15:\n        /* \"code9999/practice2/1.sol\":343:368  abi.encodePacked(\"ADMIN\") */\n      add(0x20, mload(0x40))\n      tag_35\n      swap1\n      tag_22\n      jump\t// in\n    tag_35:\n      mload(0x40)\n      0x20\n      dup2\n      dup4\n      sub\n      sub\n      dup2\n      mstore\n      swap1\n      0x40\n      mstore\n        /* \"code9999/practice2/1.sol\":333:369  keccak256(abi.encodePacked(\"ADMIN\")) */\n      dup1\n      mload\n      swap1\n      0x20\n      add\n      keccak256\n        /* \"code9999/practice2/1.sol\":518:523  roles */\n      0x00\n        /* \"code9999/practice2/1.sol\":518:530  roles[_role] */\n      dup1\n        /* \"code9999/practice2/1.sol\":524:529  _role */\n      dup3\n        /* \"code9999/practice2/1.sol\":518:530  roles[_role] */\n      dup2\n      mstore\n      0x20\n      add\n      swap1\n      dup2\n      mstore\n      0x20\n      add\n      0x00\n      keccak256\n        /* \"code9999/practice2/1.sol\":518:542  roles[_role][msg.sender] */\n      0x00\n        /* \"code9999/practice2/1.sol\":531:541  msg.sender */\n      caller\n        /* \"code9999/practice2/1.sol\":518:542  roles[_role][msg.sender] */\n      0xffffffffffffffffffffffffffffffffffffffff\n      and\n      0xffffffffffffffffffffffffffffffffffffffff\n      and\n      dup2\n      mstore\n      0x20\n      add\n      swap1\n      dup2\n      mstore\n      0x20\n      add\n      0x00\n      keccak256\n      0x00\n      swap1\n      sload\n      swap1\n      0x0100\n      exp\n      swap1\n      div\n      0xff\n      and\n        /* \"code9999/practice2/1.sol\":510:558  require(roles[_role][msg.sender],\"not mannager\") */\n      tag_37\n      jumpi\n      mload(0x40)\n      0x08c379a000000000000000000000000000000000000000000000000000000000\n      dup2\n      mstore\n      0x04\n      add\n      tag_38\n      swap1\n      tag_26\n      jump\t// in\n    tag_38:\n      mload(0x40)\n      dup1\n      swap2\n      sub\n      swap1\n      revert\n    tag_37:\n        /* \"code9999/practice2/1.sol\":1273:1278  false */\n      0x00\n        /* \"code9999/practice2/1.sol\":1248:1253  roles */\n      dup1\n        /* \"code9999/practice2/1.sol\":1248:1260  roles[_role] */\n      0x00\n        /* \"code9999/practice2/1.sol\":1254:1259  _role */\n      dup6\n        /* \"code9999/practice2/1.sol\":1248:1260  roles[_role] */\n      dup2\n      mstore\n      0x20\n      add\n      swap1\n      dup2\n      mstore\n      0x20\n      add\n      0x00\n      keccak256\n        /* \"code9999/practice2/1.sol\":1248:1270  roles[_role][_account] */\n      0x00\n        /* \"code9999/practice2/1.sol\":1261:1269  _account */\n      dup5\n        /* \"code9999/practice2/1.sol\":1248:1270  roles[_role][_account] */\n      0xffffffffffffffffffffffffffffffffffffffff\n      and\n      0xffffffffffffffffffffffffffffffffffffffff\n      and\n      dup2\n      mstore\n      0x20\n      add\n      swap1\n      dup2\n      mstore\n      0x20\n      add\n      0x00\n      keccak256\n      0x00\n        /* \"code9999/practice2/1.sol\":1248:1278  roles[_role][_account] = false */\n      0x0100\n      exp\n      dup2\n      sload\n      dup2\n      0xff\n      mul\n      not\n      and\n      swap1\n      dup4\n      iszero\n      iszero\n      mul\n      or\n      swap1\n      sstore\n      pop\n        /* \"code9999/practice2/1.sol\":1310:1318  _account */\n      dup2\n        /* \"code9999/practice2/1.sol\":1293:1319  RevokeRole(_role,_account) */\n      0xffffffffffffffffffffffffffffffffffffffff\n      and\n        /* \"code9999/practice2/1.sol\":1304:1309  _role */\n      dup4\n        /* \"code9999/practice2/1.sol\":1293:1319  RevokeRole(_role,_account) */\n      0x76e6093c136cd7faa5a6d92b2b633f3b4595abd4a529b7a13917398355fea694\n      mload(0x40)\n      mload(0x40)\n      dup1\n      swap2\n      sub\n      swap1\n      log3\n        /* \"code9999/practice2/1.sol\":1162:1326  function revokeRole(bytes32 _role,address _account) external onlyRole(ADMIN){... */\n      pop\n      pop\n      pop\n      jump\t// out\n        /* \"code9999/practice2/1.sol\":240:293  mapping(bytes32=>mapping(address=>bool)) public roles */\n    tag_18:\n      mstore(0x20, 0x00)\n      dup2\n      0x00\n      mstore\n      mstore(0x20, keccak256(0x00, 0x40))\n      dup1\n      0x00\n      mstore\n      keccak256(0x00, 0x40)\n      0x00\n      swap2\n      pop\n      swap2\n      pop\n      swap1\n      sload\n      swap1\n      0x0100\n      exp\n      swap1\n      div\n      0xff\n      and\n      dup2\n      jump\t// out\n        /* \"code9999/practice2/1.sol\":830:1033  function _grantRole(bytes32 _role,address _account) internal{... */\n    tag_29:\n        /* \"code9999/practice2/1.sol\":982:986  true */\n      0x01\n        /* \"code9999/practice2/1.sol\":957:962  roles */\n      0x00\n        /* \"code9999/practice2/1.sol\":957:969  roles[_role] */\n      dup1\n        /* \"code9999/practice2/1.sol\":963:968  _role */\n      dup5\n        /* \"code9999/practice2/1.sol\":957:969  roles[_role] */\n      dup2\n      mstore\n      0x20\n      add\n      swap1\n      dup2\n      mstore\n      0x20\n      add\n      0x00\n      keccak256\n        /* \"code9999/practice2/1.sol\":957:979  roles[_role][_account] */\n      0x00\n        /* \"code9999/practice2/1.sol\":970:978  _account */\n      dup4\n        /* \"code9999/practice2/1.sol\":957:979  roles[_role][_account] */\n      0xffffffffffffffffffffffffffffffffffffffff\n      and\n      0xffffffffffffffffffffffffffffffffffffffff\n      and\n      dup2\n      mstore\n      0x20\n      add\n      swap1\n      dup2\n      mstore\n      0x20\n      add\n      0x00\n      keccak256\n      0x00\n        /* \"code9999/practice2/1.sol\":957:986  roles[_role][_account] = true */\n      0x0100\n      exp\n      dup2\n      sload\n      dup2\n      0xff\n      mul\n      not\n      and\n      swap1\n      dup4\n      iszero\n      iszero\n      mul\n      or\n      swap1\n      sstore\n      pop\n        /* \"code9999/practice2/1.sol\":1017:1025  _account */\n      dup1\n        /* \"code9999/practice2/1.sol\":1001:1026  GrantRole(_role,_account) */\n      0xffffffffffffffffffffffffffffffffffffffff\n      and\n        /* \"code9999/practice2/1.sol\":1011:1016  _role */\n      dup3\n        /* \"code9999/practice2/1.sol\":1001:1026  GrantRole(_role,_account) */\n      0x5a06360d65acf95e98445dc834f205063424c636e65418d928cdfabc33a95399\n      mload(0x40)\n      mload(0x40)\n      dup1\n      swap2\n      sub\n      swap1\n      log3\n        /* \"code9999/practice2/1.sol\":830:1033  function _grantRole(bytes32 _role,address _account) internal{... */\n      pop\n      pop\n      jump\t// out\n        /* \"#utility.yul\":7:146   */\n    tag_42:\n        /* \"#utility.yul\":53:58   */\n      0x00\n        /* \"#utility.yul\":91:97   */\n      dup2\n        /* \"#utility.yul\":78:98   */\n      calldataload\n        /* \"#utility.yul\":69:98   */\n      swap1\n      pop\n        /* \"#utility.yul\":107:140   */\n      tag_44\n        /* \"#utility.yul\":134:139   */\n      dup2\n        /* \"#utility.yul\":107:140   */\n      tag_45\n      jump\t// in\n    tag_44:\n        /* \"#utility.yul\":7:146   */\n      swap3\n      swap2\n      pop\n      pop\n      jump\t// out\n        /* \"#utility.yul\":152:291   */\n    tag_46:\n        /* \"#utility.yul\":198:203   */\n      0x00\n        /* \"#utility.yul\":236:242   */\n      dup2\n        /* \"#utility.yul\":223:243   */\n      calldataload\n        /* \"#utility.yul\":214:243   */\n      swap1\n      pop\n        /* \"#utility.yul\":252:285   */\n      tag_48\n        /* \"#utility.yul\":279:284   */\n      dup2\n        /* \"#utility.yul\":252:285   */\n      tag_49\n      jump\t// in\n    tag_48:\n        /* \"#utility.yul\":152:291   */\n      swap3\n      swap2\n      pop\n      pop\n      jump\t// out\n        /* \"#utility.yul\":297:771   */\n    tag_9:\n        /* \"#utility.yul\":365:371   */\n      0x00\n        /* \"#utility.yul\":373:379   */\n      dup1\n        /* \"#utility.yul\":422:424   */\n      0x40\n        /* \"#utility.yul\":410:419   */\n      dup4\n        /* \"#utility.yul\":401:408   */\n      dup6\n        /* \"#utility.yul\":397:420   */\n      sub\n        /* \"#utility.yul\":393:425   */\n      slt\n        /* \"#utility.yul\":390:509   */\n      iszero\n      tag_51\n      jumpi\n        /* \"#utility.yul\":428:507   */\n      tag_52\n      tag_53\n      jump\t// in\n    tag_52:\n        /* \"#utility.yul\":390:509   */\n    tag_51:\n        /* \"#utility.yul\":548:549   */\n      0x00\n        /* \"#utility.yul\":573:626   */\n      tag_54\n        /* \"#utility.yul\":618:625   */\n      dup6\n        /* \"#utility.yul\":609:615   */\n      dup3\n        /* \"#utility.yul\":598:607   */\n      dup7\n        /* \"#utility.yul\":594:616   */\n      add\n        /* \"#utility.yul\":573:626   */\n      tag_46\n      jump\t// in\n    tag_54:\n        /* \"#utility.yul\":563:626   */\n      swap3\n      pop\n        /* \"#utility.yul\":519:636   */\n      pop\n        /* \"#utility.yul\":675:677   */\n      0x20\n        /* \"#utility.yul\":701:754   */\n      tag_55\n        /* \"#utility.yul\":746:753   */\n      dup6\n        /* \"#utility.yul\":737:743   */\n      dup3\n        /* \"#utility.yul\":726:735   */\n      dup7\n        /* \"#utility.yul\":722:744   */\n      add\n        /* \"#utility.yul\":701:754   */\n      tag_42\n      jump\t// in\n    tag_55:\n        /* \"#utility.yul\":691:754   */\n      swap2\n      pop\n        /* \"#utility.yul\":646:764   */\n      pop\n        /* \"#utility.yul\":297:771   */\n      swap3\n      pop\n      swap3\n      swap1\n      pop\n      jump\t// out\n        /* \"#utility.yul\":777:886   */\n    tag_56:\n        /* \"#utility.yul\":858:879   */\n      tag_58\n        /* \"#utility.yul\":873:878   */\n      dup2\n        /* \"#utility.yul\":858:879   */\n      tag_59\n      jump\t// in\n    tag_58:\n        /* \"#utility.yul\":853:856   */\n      dup3\n        /* \"#utility.yul\":846:880   */\n      mstore\n        /* \"#utility.yul\":777:886   */\n      pop\n      pop\n      jump\t// out\n        /* \"#utility.yul\":892:1292   */\n    tag_60:\n        /* \"#utility.yul\":1052:1055   */\n      0x00\n        /* \"#utility.yul\":1073:1157   */\n      tag_62\n        /* \"#utility.yul\":1155:1156   */\n      0x05\n        /* \"#utility.yul\":1150:1153   */\n      dup4\n        /* \"#utility.yul\":1073:1157   */\n      tag_63\n      jump\t// in\n    tag_62:\n        /* \"#utility.yul\":1066:1157   */\n      swap2\n      pop\n        /* \"#utility.yul\":1166:1259   */\n      tag_64\n        /* \"#utility.yul\":1255:1258   */\n      dup3\n        /* \"#utility.yul\":1166:1259   */\n      tag_65\n      jump\t// in\n    tag_64:\n        /* \"#utility.yul\":1284:1285   */\n      0x05\n        /* \"#utility.yul\":1279:1282   */\n      dup3\n        /* \"#utility.yul\":1275:1286   */\n      add\n        /* \"#utility.yul\":1268:1286   */\n      swap1\n      pop\n        /* \"#utility.yul\":892:1292   */\n      swap2\n      swap1\n      pop\n      jump\t// out\n        /* \"#utility.yul\":1298:1664   */\n    tag_66:\n        /* \"#utility.yul\":1440:1443   */\n      0x00\n        /* \"#utility.yul\":1461:1528   */\n      tag_68\n        /* \"#utility.yul\":1525:1527   */\n      0x0c\n        /* \"#utility.yul\":1520:1523   */\n      dup4\n        /* \"#utility.yul\":1461:1528   */\n      tag_69\n      jump\t// in\n    tag_68:\n        /* \"#utility.yul\":1454:1528   */\n      swap2\n      pop\n        /* \"#utility.yul\":1537:1630   */\n      tag_70\n        /* \"#utility.yul\":1626:1629   */\n      dup3\n        /* \"#utility.yul\":1537:1630   */\n      tag_71\n      jump\t// in\n    tag_70:\n        /* \"#utility.yul\":1655:1657   */\n      0x20\n        /* \"#utility.yul\":1650:1653   */\n      dup3\n        /* \"#utility.yul\":1646:1658   */\n      add\n        /* \"#utility.yul\":1639:1658   */\n      swap1\n      pop\n        /* \"#utility.yul\":1298:1664   */\n      swap2\n      swap1\n      pop\n      jump\t// out\n        /* \"#utility.yul\":1670:2035   */\n    tag_72:\n        /* \"#utility.yul\":1812:1815   */\n      0x00\n        /* \"#utility.yul\":1833:1899   */\n      tag_74\n        /* \"#utility.yul\":1897:1898   */\n      0x09\n        /* \"#utility.yul\":1892:1895   */\n      dup4\n        /* \"#utility.yul\":1833:1899   */\n      tag_69\n      jump\t// in\n    tag_74:\n        /* \"#utility.yul\":1826:1899   */\n      swap2\n      pop\n        /* \"#utility.yul\":1908:2001   */\n      tag_75\n        /* \"#utility.yul\":1997:2000   */\n      dup3\n        /* \"#utility.yul\":1908:2001   */\n      tag_76\n      jump\t// in\n    tag_75:\n        /* \"#utility.yul\":2026:2028   */\n      0x20\n        /* \"#utility.yul\":2021:2024   */\n      dup3\n        /* \"#utility.yul\":2017:2029   */\n      add\n        /* \"#utility.yul\":2010:2029   */\n      swap1\n      pop\n        /* \"#utility.yul\":1670:2035   */\n      swap2\n      swap1\n      pop\n      jump\t// out\n        /* \"#utility.yul\":2041:2422   */\n    tag_22:\n        /* \"#utility.yul\":2226:2229   */\n      0x00\n        /* \"#utility.yul\":2248:2396   */\n      tag_78\n        /* \"#utility.yul\":2392:2395   */\n      dup3\n        /* \"#utility.yul\":2248:2396   */\n      tag_60\n      jump\t// in\n    tag_78:\n        /* \"#utility.yul\":2241:2396   */\n      swap2\n      pop\n        /* \"#utility.yul\":2413:2416   */\n      dup2\n        /* \"#utility.yul\":2406:2416   */\n      swap1\n      pop\n        /* \"#utility.yul\":2041:2422   */\n      swap2\n      swap1\n      pop\n      jump\t// out\n        /* \"#utility.yul\":2428:2638   */\n    tag_20:\n        /* \"#utility.yul\":2515:2519   */\n      0x00\n        /* \"#utility.yul\":2553:2555   */\n      0x20\n        /* \"#utility.yul\":2542:2551   */\n      dup3\n        /* \"#utility.yul\":2538:2556   */\n      add\n        /* \"#utility.yul\":2530:2556   */\n      swap1\n      pop\n        /* \"#utility.yul\":2566:2631   */\n      tag_80\n        /* \"#utility.yul\":2628:2629   */\n      0x00\n        /* \"#utility.yul\":2617:2626   */\n      dup4\n        /* \"#utility.yul\":2613:2630   */\n      add\n        /* \"#utility.yul\":2604:2610   */\n      dup5\n        /* \"#utility.yul\":2566:2631   */\n      tag_56\n      jump\t// in\n    tag_80:\n        /* \"#utility.yul\":2428:2638   */\n      swap3\n      swap2\n      pop\n      pop\n      jump\t// out\n        /* \"#utility.yul\":2644:3063   */\n    tag_26:\n        /* \"#utility.yul\":2810:2814   */\n      0x00\n        /* \"#utility.yul\":2848:2850   */\n      0x20\n        /* \"#utility.yul\":2837:2846   */\n      dup3\n        /* \"#utility.yul\":2833:2851   */\n      add\n        /* \"#utility.yul\":2825:2851   */\n      swap1\n      pop\n        /* \"#utility.yul\":2897:2906   */\n      dup2\n        /* \"#utility.yul\":2891:2895   */\n      dup2\n        /* \"#utility.yul\":2887:2907   */\n      sub\n        /* \"#utility.yul\":2883:2884   */\n      0x00\n        /* \"#utility.yul\":2872:2881   */\n      dup4\n        /* \"#utility.yul\":2868:2885   */\n      add\n        /* \"#utility.yul\":2861:2908   */\n      mstore\n        /* \"#utility.yul\":2925:3056   */\n      tag_82\n        /* \"#utility.yul\":3051:3055   */\n      dup2\n        /* \"#utility.yul\":2925:3056   */\n      tag_66\n      jump\t// in\n    tag_82:\n        /* \"#utility.yul\":2917:3056   */\n      swap1\n      pop\n        /* \"#utility.yul\":2644:3063   */\n      swap2\n      swap1\n      pop\n      jump\t// out\n        /* \"#utility.yul\":3069:3488   */\n    tag_33:\n        /* \"#utility.yul\":3235:3239   */\n      0x00\n        /* \"#utility.yul\":3273:3275   */\n      0x20\n        /* \"#utility.yul\":3262:3271   */\n      dup3\n        /* \"#utility.yul\":3258:3276   */\n      add\n        /* \"#utility.yul\":3250:3276   */\n      swap1\n      pop\n        /* \"#utility.yul\":3322:3331   */\n      dup2\n        /* \"#utility.yul\":3316:3320   */\n      dup2\n        /* \"#utility.yul\":3312:3332   */\n      sub\n        /* \"#utility.yul\":3308:3309   */\n      0x00\n        /* \"#utility.yul\":3297:3306   */\n      dup4\n        /* \"#utility.yul\":3293:3310   */\n      add\n        /* \"#utility.yul\":3286:3333   */\n      mstore\n        /* \"#utility.yul\":3350:3481   */\n      tag_84\n        /* \"#utility.yul\":3476:3480   */\n      dup2\n        /* \"#utility.yul\":3350:3481   */\n      tag_72\n      jump\t// in\n    tag_84:\n        /* \"#utility.yul\":3342:3481   */\n      swap1\n      pop\n        /* \"#utility.yul\":3069:3488   */\n      swap2\n      swap1\n      pop\n      jump\t// out\n        /* \"#utility.yul\":3575:3744   */\n    tag_69:\n        /* \"#utility.yul\":3659:3670   */\n      0x00\n        /* \"#utility.yul\":3693:3699   */\n      dup3\n        /* \"#utility.yul\":3688:3691   */\n      dup3\n        /* \"#utility.yul\":3681:3700   */\n      mstore\n        /* \"#utility.yul\":3733:3737   */\n      0x20\n        /* \"#utility.yul\":3728:3731   */\n      dup3\n        /* \"#utility.yul\":3724:3738   */\n      add\n        /* \"#utility.yul\":3709:3738   */\n      swap1\n      pop\n        /* \"#utility.yul\":3575:3744   */\n      swap3\n      swap2\n      pop\n      pop\n      jump\t// out\n        /* \"#utility.yul\":3750:3898   */\n    tag_63:\n        /* \"#utility.yul\":3852:3863   */\n      0x00\n        /* \"#utility.yul\":3889:3892   */\n      dup2\n        /* \"#utility.yul\":3874:3892   */\n      swap1\n      pop\n        /* \"#utility.yul\":3750:3898   */\n      swap3\n      swap2\n      pop\n      pop\n      jump\t// out\n        /* \"#utility.yul\":3904:4000   */\n    tag_89:\n        /* \"#utility.yul\":3941:3948   */\n      0x00\n        /* \"#utility.yul\":3970:3994   */\n      tag_91\n        /* \"#utility.yul\":3988:3993   */\n      dup3\n        /* \"#utility.yul\":3970:3994   */\n      tag_92\n      jump\t// in\n    tag_91:\n        /* \"#utility.yul\":3959:3994   */\n      swap1\n      pop\n        /* \"#utility.yul\":3904:4000   */\n      swap2\n      swap1\n      pop\n      jump\t// out\n        /* \"#utility.yul\":4006:4096   */\n    tag_59:\n        /* \"#utility.yul\":4040:4047   */\n      0x00\n        /* \"#utility.yul\":4083:4088   */\n      dup2\n        /* \"#utility.yul\":4076:4089   */\n      iszero\n        /* \"#utility.yul\":4069:4090   */\n      iszero\n        /* \"#utility.yul\":4058:4090   */\n      swap1\n      pop\n        /* \"#utility.yul\":4006:4096   */\n      swap2\n      swap1\n      pop\n      jump\t// out\n        /* \"#utility.yul\":4102:4179   */\n    tag_94:\n        /* \"#utility.yul\":4139:4146   */\n      0x00\n        /* \"#utility.yul\":4168:4173   */\n      dup2\n        /* \"#utility.yul\":4157:4173   */\n      swap1\n      pop\n        /* \"#utility.yul\":4102:4179   */\n      swap2\n      swap1\n      pop\n      jump\t// out\n        /* \"#utility.yul\":4185:4311   */\n    tag_92:\n        /* \"#utility.yul\":4222:4229   */\n      0x00\n        /* \"#utility.yul\":4262:4304   */\n      0xffffffffffffffffffffffffffffffffffffffff\n        /* \"#utility.yul\":4255:4260   */\n      dup3\n        /* \"#utility.yul\":4251:4305   */\n      and\n        /* \"#utility.yul\":4240:4305   */\n      swap1\n      pop\n        /* \"#utility.yul\":4185:4311   */\n      swap2\n      swap1\n      pop\n      jump\t// out\n        /* \"#utility.yul\":4440:4557   */\n    tag_53:\n        /* \"#utility.yul\":4549:4550   */\n      0x00\n        /* \"#utility.yul\":4546:4547   */\n      dup1\n        /* \"#utility.yul\":4539:4551   */\n      revert\n        /* \"#utility.yul\":4563:4718   */\n    tag_65:\n        /* \"#utility.yul\":4703:4710   */\n      0x41444d494e000000000000000000000000000000000000000000000000000000\n        /* \"#utility.yul\":4699:4700   */\n      0x00\n        /* \"#utility.yul\":4691:4697   */\n      dup3\n        /* \"#utility.yul\":4687:4701   */\n      add\n        /* \"#utility.yul\":4680:4711   */\n      mstore\n        /* \"#utility.yul\":4563:4718   */\n      pop\n      jump\t// out\n        /* \"#utility.yul\":4724:4886   */\n    tag_71:\n        /* \"#utility.yul\":4864:4878   */\n      0x6e6f74206d616e6e616765720000000000000000000000000000000000000000\n        /* \"#utility.yul\":4860:4861   */\n      0x00\n        /* \"#utility.yul\":4852:4858   */\n      dup3\n        /* \"#utility.yul\":4848:4862   */\n      add\n        /* \"#utility.yul\":4841:4879   */\n      mstore\n        /* \"#utility.yul\":4724:4886   */\n      pop\n      jump\t// out\n        /* \"#utility.yul\":4892:5051   */\n    tag_76:\n        /* \"#utility.yul\":5032:5043   */\n      0x6e6f74206f776e65720000000000000000000000000000000000000000000000\n        /* \"#utility.yul\":5028:5029   */\n      0x00\n        /* \"#utility.yul\":5020:5026   */\n      dup3\n        /* \"#utility.yul\":5016:5030   */\n      add\n        /* \"#utility.yul\":5009:5044   */\n      mstore\n        /* \"#utility.yul\":4892:5051   */\n      pop\n      jump\t// out\n        /* \"#utility.yul\":5057:5179   */\n    tag_45:\n        /* \"#utility.yul\":5130:5154   */\n      tag_104\n        /* \"#utility.yul\":5148:5153   */\n      dup2\n        /* \"#utility.yul\":5130:5154   */\n      tag_89\n      jump\t// in\n    tag_104:\n        /* \"#utility.yul\":5123:5128   */\n      dup2\n        /* \"#utility.yul\":5120:5155   */\n      eq\n        /* \"#utility.yul\":5110:5173   */\n      tag_105\n      jumpi\n        /* \"#utility.yul\":5169:5170   */\n      0x00\n        /* \"#utility.yul\":5166:5167   */\n      dup1\n        /* \"#utility.yul\":5159:5171   */\n      revert\n        /* \"#utility.yul\":5110:5173   */\n    tag_105:\n        /* \"#utility.yul\":5057:5179   */\n      pop\n      jump\t// out\n        /* \"#utility.yul\":5185:5307   */\n    tag_49:\n        /* \"#utility.yul\":5258:5282   */\n      tag_107\n        /* \"#utility.yul\":5276:5281   */\n      dup2\n        /* \"#utility.yul\":5258:5282   */\n      tag_94\n      jump\t// in\n    tag_107:\n        /* \"#utility.yul\":5251:5256   */\n      dup2\n        /* \"#utility.yul\":5248:5283   */\n      eq\n        /* \"#utility.yul\":5238:5301   */\n      tag_108\n      jumpi\n        /* \"#utility.yul\":5297:5298   */\n      0x00\n        /* \"#utility.yul\":5294:5295   */\n      dup1\n        /* \"#utility.yul\":5287:5299   */\n      revert\n        /* \"#utility.yul\":5238:5301   */\n    tag_108:\n        /* \"#utility.yul\":5185:5307   */\n      pop\n      jump\t// out\n\n    auxdata: 0xa2646970667358221220ae581a630174c69499804dcc0de9b83c283355689a40878daad196a379e88c4a64736f6c63430008070033\n}\n",
				"bytecode": {
					"linkReferences": {},
					"object": "608060405234801561001057600080fd5b5033600160006101000a81548173ffffffffffffffffffffffffffffffffffffffff021916908373ffffffffffffffffffffffffffffffffffffffff1602179055506100866040516020016100649061015e565b604051602081830303815290604052805190602001203361008b60201b60201c565b6101a7565b600160008084815260200190815260200160002060008373ffffffffffffffffffffffffffffffffffffffff1673ffffffffffffffffffffffffffffffffffffffff16815260200190815260200160002060006101000a81548160ff0219169083151502179055508073ffffffffffffffffffffffffffffffffffffffff16827f5a06360d65acf95e98445dc834f205063424c636e65418d928cdfabc33a9539960405160405180910390a35050565b6000610148600583610173565b91506101538261017e565b600582019050919050565b60006101698261013b565b9150819050919050565b600081905092915050565b7f41444d494e000000000000000000000000000000000000000000000000000000600082015250565b610710806101b66000396000f3fe608060405234801561001057600080fd5b506004361061004c5760003560e01c80632f2ff15d146100515780633d86e6351461006d578063d547741f14610077578063f8fc08b914610093575b600080fd5b61006b600480360381019061006691906104a0565b6100c3565b005b610075610193565b005b610091600480360381019061008c91906104a0565b610225565b005b6100ad60048036038101906100a891906104a0565b610397565b6040516100ba919061056d565b60405180910390f35b6040516020016100d290610558565b6040516020818303038152906040528051906020012060008082815260200190815260200160002060003373ffffffffffffffffffffffffffffffffffffffff1673ffffffffffffffffffffffffffffffffffffffff16815260200190815260200160002060009054906101000a900460ff16610184576040517f08c379a000000000000000000000000000000000000000000000000000000000815260040161017b90610588565b60405180910390fd5b61018e83836103c6565b505050565b600160009054906101000a900473ffffffffffffffffffffffffffffffffffffffff1673ffffffffffffffffffffffffffffffffffffffff163373ffffffffffffffffffffffffffffffffffffffff1614610223576040517f08c379a000000000000000000000000000000000000000000000000000000000815260040161021a906105a8565b60405180910390fd5b565b60405160200161023490610558565b6040516020818303038152906040528051906020012060008082815260200190815260200160002060003373ffffffffffffffffffffffffffffffffffffffff1673ffffffffffffffffffffffffffffffffffffffff16815260200190815260200160002060009054906101000a900460ff166102e6576040517f08c379a00000000000000000000000000000000000000000000000000000000081526004016102dd90610588565b60405180910390fd5b600080600085815260200190815260200160002060008473ffffffffffffffffffffffffffffffffffffffff1673ffffffffffffffffffffffffffffffffffffffff16815260200190815260200160002060006101000a81548160ff0219169083151502179055508173ffffffffffffffffffffffffffffffffffffffff16837f76e6093c136cd7faa5a6d92b2b633f3b4595abd4a529b7a13917398355fea69460405160405180910390a3505050565b60006020528160005260406000206020528060005260406000206000915091509054906101000a900460ff1681565b600160008084815260200190815260200160002060008373ffffffffffffffffffffffffffffffffffffffff1673ffffffffffffffffffffffffffffffffffffffff16815260200190815260200160002060006101000a81548160ff0219169083151502179055508073ffffffffffffffffffffffffffffffffffffffff16827f5a06360d65acf95e98445dc834f205063424c636e65418d928cdfabc33a9539960405160405180910390a35050565b600081359050610485816106ac565b92915050565b60008135905061049a816106c3565b92915050565b600080604083850312156104b7576104b661062c565b5b60006104c58582860161048b565b92505060206104d685828601610476565b9150509250929050565b6104e9816105f6565b82525050565b60006104fc6005836105d9565b915061050782610631565b600582019050919050565b600061051f600c836105c8565b915061052a8261065a565b602082019050919050565b60006105426009836105c8565b915061054d82610683565b602082019050919050565b6000610563826104ef565b9150819050919050565b600060208201905061058260008301846104e0565b92915050565b600060208201905081810360008301526105a181610512565b9050919050565b600060208201905081810360008301526105c181610535565b9050919050565b600082825260208201905092915050565b600081905092915050565b60006105ef8261060c565b9050919050565b60008115159050919050565b6000819050919050565b600073ffffffffffffffffffffffffffffffffffffffff82169050919050565b600080fd5b7f41444d494e000000000000000000000000000000000000000000000000000000600082015250565b7f6e6f74206d616e6e616765720000000000000000000000000000000000000000600082015250565b7f6e6f74206f776e65720000000000000000000000000000000000000000000000600082015250565b6106b5816105e4565b81146106c057600080fd5b50565b6106cc81610602565b81146106d757600080fd5b5056fea2646970667358221220ae581a630174c69499804dcc0de9b83c283355689a40878daad196a379e88c4a64736f6c63430008070033",
					"opcodes": "PUSH1 0x80 PUSH1 0x40 MSTORE CALLVALUE DUP1 ISZERO PUSH2 0x10 JUMPI PUSH1 0x0 DUP1 REVERT JUMPDEST POP CALLER PUSH1 0x1 PUSH1 0x0 PUSH2 0x100 EXP DUP2 SLOAD DUP2 PUSH20 0xFFFFFFFFFFFFFFFFFFFFFFFFFFFFFFFFFFFFFFFF MUL NOT AND SWAP1 DUP4 PUSH20 0xFFFFFFFFFFFFFFFFFFFFFFFFFFFFFFFFFFFFFFFF AND MUL OR SWAP1 SSTORE POP PUSH2 0x86 PUSH1 0x40 MLOAD PUSH1 0x20 ADD PUSH2 0x64 SWAP1 PUSH2 0x15E JUMP JUMPDEST PUSH1 0x40 MLOAD PUSH1 0x20 DUP2 DUP4 SUB SUB DUP2 MSTORE SWAP1 PUSH1 0x40 MSTORE DUP1 MLOAD SWAP1 PUSH1 0x20 ADD KECCAK256 CALLER PUSH2 0x8B PUSH1 0x20 SHL PUSH1 0x20 SHR JUMP JUMPDEST PUSH2 0x1A7 JUMP JUMPDEST PUSH1 0x1 PUSH1 0x0 DUP1 DUP5 DUP2 MSTORE PUSH1 0x20 ADD SWAP1 DUP2 MSTORE PUSH1 0x20 ADD PUSH1 0x0 KECCAK256 PUSH1 0x0 DUP4 PUSH20 0xFFFFFFFFFFFFFFFFFFFFFFFFFFFFFFFFFFFFFFFF AND PUSH20 0xFFFFFFFFFFFFFFFFFFFFFFFFFFFFFFFFFFFFFFFF AND DUP2 MSTORE PUSH1 0x20 ADD SWAP1 DUP2 MSTORE PUSH1 0x20 ADD PUSH1 0x0 KECCAK256 PUSH1 0x0 PUSH2 0x100 EXP DUP2 SLOAD DUP2 PUSH1 0xFF MUL NOT AND SWAP1 DUP4 ISZERO ISZERO MUL OR SWAP1 SSTORE POP DUP1 PUSH20 0xFFFFFFFFFFFFFFFFFFFFFFFFFFFFFFFFFFFFFFFF AND DUP3 PUSH32 0x5A06360D65ACF95E98445DC834F205063424C636E65418D928CDFABC33A95399 PUSH1 0x40 MLOAD PUSH1 0x40 MLOAD DUP1 SWAP2 SUB SWAP1 LOG3 POP POP JUMP JUMPDEST PUSH1 0x0 PUSH2 0x148 PUSH1 0x5 DUP4 PUSH2 0x173 JUMP JUMPDEST SWAP2 POP PUSH2 0x153 DUP3 PUSH2 0x17E JUMP JUMPDEST PUSH1 0x5 DUP3 ADD SWAP1 POP SWAP2 SWAP1 POP JUMP JUMPDEST PUSH1 0x0 PUSH2 0x169 DUP3 PUSH2 0x13B JUMP JUMPDEST SWAP2 POP DUP2 SWAP1 POP SWAP2 SWAP1 POP JUMP JUMPDEST PUSH1 0x0 DUP2 SWAP1 POP SWAP3 SWAP2 POP POP JUMP JUMPDEST PUSH32 0x41444D494E000000000000000000000000000000000000000000000000000000 PUSH1 0x0 DUP3 ADD MSTORE POP JUMP JUMPDEST PUSH2 0x710 DUP1 PUSH2 0x1B6 PUSH1 0x0 CODECOPY PUSH1 0x0 RETURN INVALID PUSH1 0x80 PUSH1 0x40 MSTORE CALLVALUE DUP1 ISZERO PUSH2 0x10 JUMPI PUSH1 0x0 DUP1 REVERT JUMPDEST POP PUSH1 0x4 CALLDATASIZE LT PUSH2 0x4C JUMPI PUSH1 0x0 CALLDATALOAD PUSH1 0xE0 SHR DUP1 PUSH4 0x2F2FF15D EQ PUSH2 0x51 JUMPI DUP1 PUSH4 0x3D86E635 EQ PUSH2 0x6D JUMPI DUP1 PUSH4 0xD547741F EQ PUSH2 0x77 JUMPI DUP1 PUSH4 0xF8FC08B9 EQ PUSH2 0x93 JUMPI JUMPDEST PUSH1 0x0 DUP1 REVERT JUMPDEST PUSH2 0x6B PUSH1 0x4 DUP1 CALLDATASIZE SUB DUP2 ADD SWAP1 PUSH2 0x66 SWAP2 SWAP1 PUSH2 0x4A0 JUMP JUMPDEST PUSH2 0xC3 JUMP JUMPDEST STOP JUMPDEST PUSH2 0x75 PUSH2 0x193 JUMP JUMPDEST STOP JUMPDEST PUSH2 0x91 PUSH1 0x4 DUP1 CALLDATASIZE SUB DUP2 ADD SWAP1 PUSH2 0x8C SWAP2 SWAP1 PUSH2 0x4A0 JUMP JUMPDEST PUSH2 0x225 JUMP JUMPDEST STOP JUMPDEST PUSH2 0xAD PUSH1 0x4 DUP1 CALLDATASIZE SUB DUP2 ADD SWAP1 PUSH2 0xA8 SWAP2 SWAP1 PUSH2 0x4A0 JUMP JUMPDEST PUSH2 0x397 JUMP JUMPDEST PUSH1 0x40 MLOAD PUSH2 0xBA SWAP2 SWAP1 PUSH2 0x56D JUMP JUMPDEST PUSH1 0x40 MLOAD DUP1 SWAP2 SUB SWAP1 RETURN JUMPDEST PUSH1 0x40 MLOAD PUSH1 0x20 ADD PUSH2 0xD2 SWAP1 PUSH2 0x558 JUMP JUMPDEST PUSH1 0x40 MLOAD PUSH1 0x20 DUP2 DUP4 SUB SUB DUP2 MSTORE SWAP1 PUSH1 0x40 MSTORE DUP1 MLOAD SWAP1 PUSH1 0x20 ADD KECCAK256 PUSH1 0x0 DUP1 DUP3 DUP2 MSTORE PUSH1 0x20 ADD SWAP1 DUP2 MSTORE PUSH1 0x20 ADD PUSH1 0x0 KECCAK256 PUSH1 0x0 CALLER PUSH20 0xFFFFFFFFFFFFFFFFFFFFFFFFFFFFFFFFFFFFFFFF AND PUSH20 0xFFFFFFFFFFFFFFFFFFFFFFFFFFFFFFFFFFFFFFFF AND DUP2 MSTORE PUSH1 0x20 ADD SWAP1 DUP2 MSTORE PUSH1 0x20 ADD PUSH1 0x0 KECCAK256 PUSH1 0x0 SWAP1 SLOAD SWAP1 PUSH2 0x100 EXP SWAP1 DIV PUSH1 0xFF AND PUSH2 0x184 JUMPI PUSH1 0x40 MLOAD PUSH32 0x8C379A000000000000000000000000000000000000000000000000000000000 DUP2 MSTORE PUSH1 0x4 ADD PUSH2 0x17B SWAP1 PUSH2 0x588 JUMP JUMPDEST PUSH1 0x40 MLOAD DUP1 SWAP2 SUB SWAP1 REVERT JUMPDEST PUSH2 0x18E DUP4 DUP4 PUSH2 0x3C6 JUMP JUMPDEST POP POP POP JUMP JUMPDEST PUSH1 0x1 PUSH1 0x0 SWAP1 SLOAD SWAP1 PUSH2 0x100 EXP SWAP1 DIV PUSH20 0xFFFFFFFFFFFFFFFFFFFFFFFFFFFFFFFFFFFFFFFF AND PUSH20 0xFFFFFFFFFFFFFFFFFFFFFFFFFFFFFFFFFFFFFFFF AND CALLER PUSH20 0xFFFFFFFFFFFFFFFFFFFFFFFFFFFFFFFFFFFFFFFF AND EQ PUSH2 0x223 JUMPI PUSH1 0x40 MLOAD PUSH32 0x8C379A000000000000000000000000000000000000000000000000000000000 DUP2 MSTORE PUSH1 0x4 ADD PUSH2 0x21A SWAP1 PUSH2 0x5A8 JUMP JUMPDEST PUSH1 0x40 MLOAD DUP1 SWAP2 SUB SWAP1 REVERT JUMPDEST JUMP JUMPDEST PUSH1 0x40 MLOAD PUSH1 0x20 ADD PUSH2 0x234 SWAP1 PUSH2 0x558 JUMP JUMPDEST PUSH1 0x40 MLOAD PUSH1 0x20 DUP2 DUP4 SUB SUB DUP2 MSTORE SWAP1 PUSH1 0x40 MSTORE DUP1 MLOAD SWAP1 PUSH1 0x20 ADD KECCAK256 PUSH1 0x0 DUP1 DUP3 DUP2 MSTORE PUSH1 0x20 ADD SWAP1 DUP2 MSTORE PUSH1 0x20 ADD PUSH1 0x0 KECCAK256 PUSH1 0x0 CALLER PUSH20 0xFFFFFFFFFFFFFFFFFFFFFFFFFFFFFFFFFFFFFFFF AND PUSH20 0xFFFFFFFFFFFFFFFFFFFFFFFFFFFFFFFFFFFFFFFF AND DUP2 MSTORE PUSH1 0x20 ADD SWAP1 DUP2 MSTORE PUSH1 0x20 ADD PUSH1 0x0 KECCAK256 PUSH1 0x0 SWAP1 SLOAD SWAP1 PUSH2 0x100 EXP SWAP1 DIV PUSH1 0xFF AND PUSH2 0x2E6 JUMPI PUSH1 0x40 MLOAD PUSH32 0x8C379A000000000000000000000000000000000000000000000000000000000 DUP2 MSTORE PUSH1 0x4 ADD PUSH2 0x2DD SWAP1 PUSH2 0x588 JUMP JUMPDEST PUSH1 0x40 MLOAD DUP1 SWAP2 SUB SWAP1 REVERT JUMPDEST PUSH1 0x0 DUP1 PUSH1 0x0 DUP6 DUP2 MSTORE PUSH1 0x20 ADD SWAP1 DUP2 MSTORE PUSH1 0x20 ADD PUSH1 0x0 KECCAK256 PUSH1 0x0 DUP5 PUSH20 0xFFFFFFFFFFFFFFFFFFFFFFFFFFFFFFFFFFFFFFFF AND PUSH20 0xFFFFFFFFFFFFFFFFFFFFFFFFFFFFFFFFFFFFFFFF AND DUP2 MSTORE PUSH1 0x20 ADD SWAP1 DUP2 MSTORE PUSH1 0x20 ADD PUSH1 0x0 KECCAK256 PUSH1 0x0 PUSH2 0x100 EXP DUP2 SLOAD DUP2 PUSH1 0xFF MUL NOT AND SWAP1 DUP4 ISZERO ISZERO MUL OR SWAP1 SSTORE POP DUP2 PUSH20 0xFFFFFFFFFFFFFFFFFFFFFFFFFFFFFFFFFFFFFFFF AND DUP4 PUSH32 0x76E6093C136CD7FAA5A6D92B2B633F3B4595ABD4A529B7A13917398355FEA694 PUSH1 0x40 MLOAD PUSH1 0x40 MLOAD DUP1 SWAP2 SUB SWAP1 LOG3 POP POP POP JUMP JUMPDEST PUSH1 0x0 PUSH1 0x20 MSTORE DUP2 PUSH1 0x0 MSTORE PUSH1 0x40 PUSH1 0x0 KECCAK256 PUSH1 0x20 MSTORE DUP1 PUSH1 0x0 MSTORE PUSH1 0x40 PUSH1 0x0 KECCAK256 PUSH1 0x0 SWAP2 POP SWAP2 POP SWAP1 SLOAD SWAP1 PUSH2 0x100 EXP SWAP1 DIV PUSH1 0xFF AND DUP2 JUMP JUMPDEST PUSH1 0x1 PUSH1 0x0 DUP1 DUP5 DUP2 MSTORE PUSH1 0x20 ADD SWAP1 DUP2 MSTORE PUSH1 0x20 ADD PUSH1 0x0 KECCAK256 PUSH1 0x0 DUP4 PUSH20 0xFFFFFFFFFFFFFFFFFFFFFFFFFFFFFFFFFFFFFFFF AND PUSH20 0xFFFFFFFFFFFFFFFFFFFFFFFFFFFFFFFFFFFFFFFF AND DUP2 MSTORE PUSH1 0x20 ADD SWAP1 DUP2 MSTORE PUSH1 0x20 ADD PUSH1 0x0 KECCAK256 PUSH1 0x0 PUSH2 0x100 EXP DUP2 SLOAD DUP2 PUSH1 0xFF MUL NOT AND SWAP1 DUP4 ISZERO ISZERO MUL OR SWAP1 SSTORE POP DUP1 PUSH20 0xFFFFFFFFFFFFFFFFFFFFFFFFFFFFFFFFFFFFFFFF AND DUP3 PUSH32 0x5A06360D65ACF95E98445DC834F205063424C636E65418D928CDFABC33A95399 PUSH1 0x40 MLOAD PUSH1 0x40 MLOAD DUP1 SWAP2 SUB SWAP1 LOG3 POP POP JUMP JUMPDEST PUSH1 0x0 DUP2 CALLDATALOAD SWAP1 POP PUSH2 0x485 DUP2 PUSH2 0x6AC JUMP JUMPDEST SWAP3 SWAP2 POP POP JUMP JUMPDEST PUSH1 0x0 DUP2 CALLDATALOAD SWAP1 POP PUSH2 0x49A DUP2 PUSH2 0x6C3 JUMP JUMPDEST SWAP3 SWAP2 POP POP JUMP JUMPDEST PUSH1 0x0 DUP1 PUSH1 0x40 DUP4 DUP6 SUB SLT ISZERO PUSH2 0x4B7 JUMPI PUSH2 0x4B6 PUSH2 0x62C JUMP JUMPDEST JUMPDEST PUSH1 0x0 PUSH2 0x4C5 DUP6 DUP3 DUP7 ADD PUSH2 0x48B JUMP JUMPDEST SWAP3 POP POP PUSH1 0x20 PUSH2 0x4D6 DUP6 DUP3 DUP7 ADD PUSH2 0x476 JUMP JUMPDEST SWAP2 POP POP SWAP3 POP SWAP3 SWAP1 POP JUMP JUMPDEST PUSH2 0x4E9 DUP2 PUSH2 0x5F6 JUMP JUMPDEST DUP3 MSTORE POP POP JUMP JUMPDEST PUSH1 0x0 PUSH2 0x4FC PUSH1 0x5 DUP4 PUSH2 0x5D9 JUMP JUMPDEST SWAP2 POP PUSH2 0x507 DUP3 PUSH2 0x631 JUMP JUMPDEST PUSH1 0x5 DUP3 ADD SWAP1 POP SWAP2 SWAP1 POP JUMP JUMPDEST PUSH1 0x0 PUSH2 0x51F PUSH1 0xC DUP4 PUSH2 0x5C8 JUMP JUMPDEST SWAP2 POP PUSH2 0x52A DUP3 PUSH2 0x65A JUMP JUMPDEST PUSH1 0x20 DUP3 ADD SWAP1 POP SWAP2 SWAP1 POP JUMP JUMPDEST PUSH1 0x0 PUSH2 0x542 PUSH1 0x9 DUP4 PUSH2 0x5C8 JUMP JUMPDEST SWAP2 POP PUSH2 0x54D DUP3 PUSH2 0x683 JUMP JUMPDEST PUSH1 0x20 DUP3 ADD SWAP1 POP SWAP2 SWAP1 POP JUMP JUMPDEST PUSH1 0x0 PUSH2 0x563 DUP3 PUSH2 0x4EF JUMP JUMPDEST SWAP2 POP DUP2 SWAP1 POP SWAP2 SWAP1 POP JUMP JUMPDEST PUSH1 0x0 PUSH1 0x20 DUP3 ADD SWAP1 POP PUSH2 0x582 PUSH1 0x0 DUP4 ADD DUP5 PUSH2 0x4E0 JUMP JUMPDEST SWAP3 SWAP2 POP POP JUMP JUMPDEST PUSH1 0x0 PUSH1 0x20 DUP3 ADD SWAP1 POP DUP2 DUP2 SUB PUSH1 0x0 DUP4 ADD MSTORE PUSH2 0x5A1 DUP2 PUSH2 0x512 JUMP JUMPDEST SWAP1 POP SWAP2 SWAP1 POP JUMP JUMPDEST PUSH1 0x0 PUSH1 0x20 DUP3 ADD SWAP1 POP DUP2 DUP2 SUB PUSH1 0x0 DUP4 ADD MSTORE PUSH2 0x5C1 DUP2 PUSH2 0x535 JUMP JUMPDEST SWAP1 POP SWAP2 SWAP1 POP JUMP JUMPDEST PUSH1 0x0 DUP3 DUP3 MSTORE PUSH1 0x20 DUP3 ADD SWAP1 POP SWAP3 SWAP2 POP POP JUMP JUMPDEST PUSH1 0x0 DUP2 SWAP1 POP SWAP3 SWAP2 POP POP JUMP JUMPDEST PUSH1 0x0 PUSH2 0x5EF DUP3 PUSH2 0x60C JUMP JUMPDEST SWAP1 POP SWAP2 SWAP1 POP JUMP JUMPDEST PUSH1 0x0 DUP2 ISZERO ISZERO SWAP1 POP SWAP2 SWAP1 POP JUMP JUMPDEST PUSH1 0x0 DUP2 SWAP1 POP SWAP2 SWAP1 POP JUMP JUMPDEST PUSH1 0x0 PUSH20 0xFFFFFFFFFFFFFFFFFFFFFFFFFFFFFFFFFFFFFFFF DUP3 AND SWAP1 POP SWAP2 SWAP1 POP JUMP JUMPDEST PUSH1 0x0 DUP1 REVERT JUMPDEST PUSH32 0x41444D494E000000000000000000000000000000000000000000000000000000 PUSH1 0x0 DUP3 ADD MSTORE POP JUMP JUMPDEST PUSH32 0x6E6F74206D616E6E616765720000000000000000000000000000000000000000 PUSH1 0x0 DUP3 ADD MSTORE POP JUMP JUMPDEST PUSH32 0x6E6F74206F776E65720000000000000000000000000000000000000000000000 PUSH1 0x0 DUP3 ADD MSTORE POP JUMP JUMPDEST PUSH2 0x6B5 DUP2 PUSH2 0x5E4 JUMP JUMPDEST DUP2 EQ PUSH2 0x6C0 JUMPI PUSH1 0x0 DUP1 REVERT JUMPDEST POP JUMP JUMPDEST PUSH2 0x6CC DUP2 PUSH2 0x602 JUMP JUMPDEST DUP2 EQ PUSH2 0x6D7 JUMPI PUSH1 0x0 DUP1 REVERT JUMPDEST POP JUMP INVALID LOG2 PUSH5 0x6970667358 0x22 SLT KECCAK256 0xAE PC BYTE PUSH4 0x174C694 SWAP10 DUP1 0x4D 0xCC 0xD 0xE9 0xB8 EXTCODECOPY 0x28 CALLER SSTORE PUSH9 0x9A40878DAAD196A379 0xE8 DUP13 0x4A PUSH5 0x736F6C6343 STOP ADDMOD SMOD STOP CALLER "
				},
				"gasEstimates": {
					"creation": {
						"codeDepositCost": "361600",
						"executionCost": "infinite",
						"totalCost": "infinite"
					},
					"external": {
						"getADMIN()": "2603",
						"grantRole(bytes32,address)": "29247",
						"revokeRole(bytes32,address)": "29257",
						"roles(bytes32,address)": "3131"
					},
					"internal": {
						"_grantRole(bytes32,address)": "25996"
					}
				},
				"methodIdentifiers": {
					"getADMIN()": "3d86e635",
					"grantRole(bytes32,address)": "2f2ff15d",
					"revokeRole(bytes32,address)": "d547741f",
					"roles(bytes32,address)": "f8fc08b9"
				}
			},
			"storageLayout": {
				"storage": [
					{
						"astId": 19,
						"contract": "code9999/practice2/1.sol:controlle",
						"label": "roles",
						"offset": 0,
						"slot": "0",
						"type": "t_mapping(t_bytes32,t_mapping(t_address,t_bool))"
					},
					{
						"astId": 37,
						"contract": "code9999/practice2/1.sol:controlle",
						"label": "owner",
						"offset": 0,
						"slot": "1",
						"type": "t_address"
					}
				],
				"types": {
					"t_address": {
						"encoding": "inplace",
						"label": "address",
						"numberOfBytes": "20"
					},
					"t_bool": {
						"encoding": "inplace",
						"label": "bool",
						"numberOfBytes": "1"
					},
					"t_bytes32": {
						"encoding": "inplace",
						"label": "bytes32",
						"numberOfBytes": "32"
					},
					"t_mapping(t_address,t_bool)": {
						"encoding": "mapping",
						"key": "t_address",
						"label": "mapping(address => bool)",
						"numberOfBytes": "32",
						"value": "t_bool"
					},
					"t_mapping(t_bytes32,t_mapping(t_address,t_bool))": {
						"encoding": "mapping",
						"key": "t_bytes32",
						"label": "mapping(bytes32 => mapping(address => bool))",
						"numberOfBytes": "32",
						"value": "t_mapping(t_address,t_bool)"
					}
				}
			},
			"userdoc": {
				"kind": "user",
				"methods": {},
				"version": 1
			}
		}
	}
}