{
	"code9999/practice2/1.sol": {
		"controlle": {
			"abi": [
				{
					"anonymous": false,
					"inputs": [
						{
							"indexed": true,
							"internalType": "bytes32",
							"name": "role",
							"type": "bytes32"
						},
						{
							"indexed": true,
							"internalType": "address",
							"name": "account",
							"type": "address"
						}
					],
					"name": "GrantRole",
					"type": "event"
				},
				{
					"anonymous": false,
					"inputs": [
						{
							"indexed": true,
							"internalType": "bytes32",
							"name": "role",
							"type": "bytes32"
						},
						{
							"indexed": true,
							"internalType": "address",
							"name": "account",
							"type": "address"
						}
					],
					"name": "RevokeRole",
					"type": "event"
				},
				{
					"inputs": [
						{
							"internalType": "bytes32",
							"name": "_role",
							"type": "bytes32"
						},
						{
							"internalType": "address",
							"name": "_account",
							"type": "address"
						}
					],
					"name": "grantRole",
					"outputs": [],
					"stateMutability": "nonpayable",
					"type": "function"
				},
				{
					"inputs": [
						{
							"internalType": "bytes32",
							"name": "",
							"type": "bytes32"
						},
						{
							"internalType": "address",
							"name": "",
							"type": "address"
						}
					],
					"name": "roles",
					"outputs": [
						{
							"internalType": "bool",
							"name": "",
							"type": "bool"
						}
					],
					"stateMutability": "view",
					"type": "function"
				}
			],
			"devdoc": {
				"kind": "dev",
				"methods": {},
				"version": 1
			},
			"evm": {
				"assembly": "    /* \"code9999/practice2/1.sol\":54:875  contract controlle{... */\n  mstore(0x40, 0x80)\n  callvalue\n  dup1\n  iszero\n  tag_1\n  jumpi\n  0x00\n  dup1\n  revert\ntag_1:\n  pop\n  dataSize(sub_0)\n  dup1\n  dataOffset(sub_0)\n  0x00\n  codecopy\n  0x00\n  return\nstop\n\nsub_0: assembly {\n        /* \"code9999/practice2/1.sol\":54:875  contract controlle{... */\n      mstore(0x40, 0x80)\n      callvalue\n      dup1\n      iszero\n      tag_1\n      jumpi\n      0x00\n      dup1\n      revert\n    tag_1:\n      pop\n      jumpi(tag_2, lt(calldatasize, 0x04))\n      shr(0xe0, calldataload(0x00))\n      dup1\n      0x2f2ff15d\n      eq\n      tag_3\n      jumpi\n      dup1\n      0xf8fc08b9\n      eq\n      tag_4\n      jumpi\n    tag_2:\n      0x00\n      dup1\n      revert\n        /* \"code9999/practice2/1.sol\":771:873  function grantRole(bytes32 _role,address _account) external{... */\n    tag_3:\n      tag_5\n      0x04\n      dup1\n      calldatasize\n      sub\n      dup2\n      add\n      swap1\n      tag_6\n      swap2\n      swap1\n      tag_7\n      jump\t// in\n    tag_6:\n      tag_8\n      jump\t// in\n    tag_5:\n      stop\n        /* \"code9999/practice2/1.sol\":240:293  mapping(bytes32=>mapping(address=>bool)) public roles */\n    tag_4:\n      tag_9\n      0x04\n      dup1\n      calldatasize\n      sub\n      dup2\n      add\n      swap1\n      tag_10\n      swap2\n      swap1\n      tag_7\n      jump\t// in\n    tag_10:\n      tag_11\n      jump\t// in\n    tag_9:\n      mload(0x40)\n      tag_12\n      swap2\n      swap1\n      tag_13\n      jump\t// in\n    tag_12:\n      mload(0x40)\n      dup1\n      swap2\n      sub\n      swap1\n      return\n        /* \"code9999/practice2/1.sol\":771:873  function grantRole(bytes32 _role,address _account) external{... */\n    tag_8:\n        /* \"code9999/practice2/1.sol\":840:866  _grantRole(_role,_account) */\n      tag_15\n        /* \"code9999/practice2/1.sol\":851:856  _role */\n      dup3\n        /* \"code9999/practice2/1.sol\":857:865  _account */\n      dup3\n        /* \"code9999/practice2/1.sol\":840:850  _grantRole */\n      tag_16\n        /* \"code9999/practice2/1.sol\":840:866  _grantRole(_role,_account) */\n      jump\t// in\n    tag_15:\n        /* \"code9999/practice2/1.sol\":771:873  function grantRole(bytes32 _role,address _account) external{... */\n      pop\n      pop\n      jump\t// out\n        /* \"code9999/practice2/1.sol\":240:293  mapping(bytes32=>mapping(address=>bool)) public roles */\n    tag_11:\n      mstore(0x20, 0x00)\n      dup2\n      0x00\n      mstore\n      mstore(0x20, keccak256(0x00, 0x40))\n      dup1\n      0x00\n      mstore\n      keccak256(0x00, 0x40)\n      0x00\n      swap2\n      pop\n      swap2\n      pop\n      swap1\n      sload\n      swap1\n      0x0100\n      exp\n      swap1\n      div\n      0xff\n      and\n      dup2\n      jump\t// out\n        /* \"code9999/practice2/1.sol\":563:766  function _grantRole(bytes32 _role,address _account) internal{... */\n    tag_16:\n        /* \"code9999/practice2/1.sol\":715:719  true */\n      0x01\n        /* \"code9999/practice2/1.sol\":690:695  roles */\n      0x00\n        /* \"code9999/practice2/1.sol\":690:702  roles[_role] */\n      dup1\n        /* \"code9999/practice2/1.sol\":696:701  _role */\n      dup5\n        /* \"code9999/practice2/1.sol\":690:702  roles[_role] */\n      dup2\n      mstore\n      0x20\n      add\n      swap1\n      dup2\n      mstore\n      0x20\n      add\n      0x00\n      keccak256\n        /* \"code9999/practice2/1.sol\":690:712  roles[_role][_account] */\n      0x00\n        /* \"code9999/practice2/1.sol\":703:711  _account */\n      dup4\n        /* \"code9999/practice2/1.sol\":690:712  roles[_role][_account] */\n      0xffffffffffffffffffffffffffffffffffffffff\n      and\n      0xffffffffffffffffffffffffffffffffffffffff\n      and\n      dup2\n      mstore\n      0x20\n      add\n      swap1\n      dup2\n      mstore\n      0x20\n      add\n      0x00\n      keccak256\n      0x00\n        /* \"code9999/practice2/1.sol\":690:719  roles[_role][_account] = true */\n      0x0100\n      exp\n      dup2\n      sload\n      dup2\n      0xff\n      mul\n      not\n      and\n      swap1\n      dup4\n      iszero\n      iszero\n      mul\n      or\n      swap1\n      sstore\n      pop\n        /* \"code9999/practice2/1.sol\":750:758  _account */\n      dup1\n        /* \"code9999/practice2/1.sol\":734:759  GrantRole(_role,_account) */\n      0xffffffffffffffffffffffffffffffffffffffff\n      and\n        /* \"code9999/practice2/1.sol\":744:749  _role */\n      dup3\n        /* \"code9999/practice2/1.sol\":734:759  GrantRole(_role,_account) */\n      0x5a06360d65acf95e98445dc834f205063424c636e65418d928cdfabc33a95399\n      mload(0x40)\n      mload(0x40)\n      dup1\n      swap2\n      sub\n      swap1\n      log3\n        /* \"code9999/practice2/1.sol\":563:766  function _grantRole(bytes32 _role,address _account) internal{... */\n      pop\n      pop\n      jump\t// out\n        /* \"#utility.yul\":7:146   */\n    tag_19:\n        /* \"#utility.yul\":53:58   */\n      0x00\n        /* \"#utility.yul\":91:97   */\n      dup2\n        /* \"#utility.yul\":78:98   */\n      calldataload\n        /* \"#utility.yul\":69:98   */\n      swap1\n      pop\n        /* \"#utility.yul\":107:140   */\n      tag_21\n        /* \"#utility.yul\":134:139   */\n      dup2\n        /* \"#utility.yul\":107:140   */\n      tag_22\n      jump\t// in\n    tag_21:\n        /* \"#utility.yul\":7:146   */\n      swap3\n      swap2\n      pop\n      pop\n      jump\t// out\n        /* \"#utility.yul\":152:291   */\n    tag_23:\n        /* \"#utility.yul\":198:203   */\n      0x00\n        /* \"#utility.yul\":236:242   */\n      dup2\n        /* \"#utility.yul\":223:243   */\n      calldataload\n        /* \"#utility.yul\":214:243   */\n      swap1\n      pop\n        /* \"#utility.yul\":252:285   */\n      tag_25\n        /* \"#utility.yul\":279:284   */\n      dup2\n        /* \"#utility.yul\":252:285   */\n      tag_26\n      jump\t// in\n    tag_25:\n        /* \"#utility.yul\":152:291   */\n      swap3\n      swap2\n      pop\n      pop\n      jump\t// out\n        /* \"#utility.yul\":297:771   */\n    tag_7:\n        /* \"#utility.yul\":365:371   */\n      0x00\n        /* \"#utility.yul\":373:379   */\n      dup1\n        /* \"#utility.yul\":422:424   */\n      0x40\n        /* \"#utility.yul\":410:419   */\n      dup4\n        /* \"#utility.yul\":401:408   */\n      dup6\n        /* \"#utility.yul\":397:420   */\n      sub\n        /* \"#utility.yul\":393:425   */\n      slt\n        /* \"#utility.yul\":390:509   */\n      iszero\n      tag_28\n      jumpi\n        /* \"#utility.yul\":428:507   */\n      tag_29\n      tag_30\n      jump\t// in\n    tag_29:\n        /* \"#utility.yul\":390:509   */\n    tag_28:\n        /* \"#utility.yul\":548:549   */\n      0x00\n        /* \"#utility.yul\":573:626   */\n      tag_31\n        /* \"#utility.yul\":618:625   */\n      dup6\n        /* \"#utility.yul\":609:615   */\n      dup3\n        /* \"#utility.yul\":598:607   */\n      dup7\n        /* \"#utility.yul\":594:616   */\n      add\n        /* \"#utility.yul\":573:626   */\n      tag_23\n      jump\t// in\n    tag_31:\n        /* \"#utility.yul\":563:626   */\n      swap3\n      pop\n        /* \"#utility.yul\":519:636   */\n      pop\n        /* \"#utility.yul\":675:677   */\n      0x20\n        /* \"#utility.yul\":701:754   */\n      tag_32\n        /* \"#utility.yul\":746:753   */\n      dup6\n        /* \"#utility.yul\":737:743   */\n      dup3\n        /* \"#utility.yul\":726:735   */\n      dup7\n        /* \"#utility.yul\":722:744   */\n      add\n        /* \"#utility.yul\":701:754   */\n      tag_19\n      jump\t// in\n    tag_32:\n        /* \"#utility.yul\":691:754   */\n      swap2\n      pop\n        /* \"#utility.yul\":646:764   */\n      pop\n        /* \"#utility.yul\":297:771   */\n      swap3\n      pop\n      swap3\n      swap1\n      pop\n      jump\t// out\n        /* \"#utility.yul\":777:886   */\n    tag_33:\n        /* \"#utility.yul\":858:879   */\n      tag_35\n        /* \"#utility.yul\":873:878   */\n      dup2\n        /* \"#utility.yul\":858:879   */\n      tag_36\n      jump\t// in\n    tag_35:\n        /* \"#utility.yul\":853:856   */\n      dup3\n        /* \"#utility.yul\":846:880   */\n      mstore\n        /* \"#utility.yul\":777:886   */\n      pop\n      pop\n      jump\t// out\n        /* \"#utility.yul\":892:1102   */\n    tag_13:\n        /* \"#utility.yul\":979:983   */\n      0x00\n        /* \"#utility.yul\":1017:1019   */\n      0x20\n        /* \"#utility.yul\":1006:1015   */\n      dup3\n        /* \"#utility.yul\":1002:1020   */\n      add\n        /* \"#utility.yul\":994:1020   */\n      swap1\n      pop\n        /* \"#utility.yul\":1030:1095   */\n      tag_38\n        /* \"#utility.yul\":1092:1093   */\n      0x00\n        /* \"#utility.yul\":1081:1090   */\n      dup4\n        /* \"#utility.yul\":1077:1094   */\n      add\n        /* \"#utility.yul\":1068:1074   */\n      dup5\n        /* \"#utility.yul\":1030:1095   */\n      tag_33\n      jump\t// in\n    tag_38:\n        /* \"#utility.yul\":892:1102   */\n      swap3\n      swap2\n      pop\n      pop\n      jump\t// out\n        /* \"#utility.yul\":1189:1285   */\n    tag_41:\n        /* \"#utility.yul\":1226:1233   */\n      0x00\n        /* \"#utility.yul\":1255:1279   */\n      tag_43\n        /* \"#utility.yul\":1273:1278   */\n      dup3\n        /* \"#utility.yul\":1255:1279   */\n      tag_44\n      jump\t// in\n    tag_43:\n        /* \"#utility.yul\":1244:1279   */\n      swap1\n      pop\n        /* \"#utility.yul\":1189:1285   */\n      swap2\n      swap1\n      pop\n      jump\t// out\n        /* \"#utility.yul\":1291:1381   */\n    tag_36:\n        /* \"#utility.yul\":1325:1332   */\n      0x00\n        /* \"#utility.yul\":1368:1373   */\n      dup2\n        /* \"#utility.yul\":1361:1374   */\n      iszero\n        /* \"#utility.yul\":1354:1375   */\n      iszero\n        /* \"#utility.yul\":1343:1375   */\n      swap1\n      pop\n        /* \"#utility.yul\":1291:1381   */\n      swap2\n      swap1\n      pop\n      jump\t// out\n        /* \"#utility.yul\":1387:1464   */\n    tag_46:\n        /* \"#utility.yul\":1424:1431   */\n      0x00\n        /* \"#utility.yul\":1453:1458   */\n      dup2\n        /* \"#utility.yul\":1442:1458   */\n      swap1\n      pop\n        /* \"#utility.yul\":1387:1464   */\n      swap2\n      swap1\n      pop\n      jump\t// out\n        /* \"#utility.yul\":1470:1596   */\n    tag_44:\n        /* \"#utility.yul\":1507:1514   */\n      0x00\n        /* \"#utility.yul\":1547:1589   */\n      0xffffffffffffffffffffffffffffffffffffffff\n        /* \"#utility.yul\":1540:1545   */\n      dup3\n        /* \"#utility.yul\":1536:1590   */\n      and\n        /* \"#utility.yul\":1525:1590   */\n      swap1\n      pop\n        /* \"#utility.yul\":1470:1596   */\n      swap2\n      swap1\n      pop\n      jump\t// out\n        /* \"#utility.yul\":1725:1842   */\n    tag_30:\n        /* \"#utility.yul\":1834:1835   */\n      0x00\n        /* \"#utility.yul\":1831:1832   */\n      dup1\n        /* \"#utility.yul\":1824:1836   */\n      revert\n        /* \"#utility.yul\":1848:1970   */\n    tag_22:\n        /* \"#utility.yul\":1921:1945   */\n      tag_53\n        /* \"#utility.yul\":1939:1944   */\n      dup2\n        /* \"#utility.yul\":1921:1945   */\n      tag_41\n      jump\t// in\n    tag_53:\n        /* \"#utility.yul\":1914:1919   */\n      dup2\n        /* \"#utility.yul\":1911:1946   */\n      eq\n        /* \"#utility.yul\":1901:1964   */\n      tag_54\n      jumpi\n        /* \"#utility.yul\":1960:1961   */\n      0x00\n        /* \"#utility.yul\":1957:1958   */\n      dup1\n        /* \"#utility.yul\":1950:1962   */\n      revert\n        /* \"#utility.yul\":1901:1964   */\n    tag_54:\n        /* \"#utility.yul\":1848:1970   */\n      pop\n      jump\t// out\n        /* \"#utility.yul\":1976:2098   */\n    tag_26:\n        /* \"#utility.yul\":2049:2073   */\n      tag_56\n        /* \"#utility.yul\":2067:2072   */\n      dup2\n        /* \"#utility.yul\":2049:2073   */\n      tag_46\n      jump\t// in\n    tag_56:\n        /* \"#utility.yul\":2042:2047   */\n      dup2\n        /* \"#utility.yul\":2039:2074   */\n      eq\n        /* \"#utility.yul\":2029:2092   */\n      tag_57\n      jumpi\n        /* \"#utility.yul\":2088:2089   */\n      0x00\n        /* \"#utility.yul\":2085:2086   */\n      dup1\n        /* \"#utility.yul\":2078:2090   */\n      revert\n        /* \"#utility.yul\":2029:2092   */\n    tag_57:\n        /* \"#utility.yul\":1976:2098   */\n      pop\n      jump\t// out\n\n    auxdata: 0xa2646970667358221220b7516195f7cd4eec935e05b34029ff10c77a21b09129ce5dba5cb559da9be3fb64736f6c63430008070033\n}\n",
				"bytecode": {
					"linkReferences": {},
					"object": "608060405234801561001057600080fd5b506102b9806100206000396000f3fe608060405234801561001057600080fd5b50600436106100365760003560e01c80632f2ff15d1461003b578063f8fc08b914610057575b600080fd5b6100556004803603810190610050919061019e565b610087565b005b610071600480360381019061006c919061019e565b610095565b60405161007e91906101ed565b60405180910390f35b61009182826100c4565b5050565b60006020528160005260406000206020528060005260406000206000915091509054906101000a900460ff1681565b600160008084815260200190815260200160002060008373ffffffffffffffffffffffffffffffffffffffff1673ffffffffffffffffffffffffffffffffffffffff16815260200190815260200160002060006101000a81548160ff0219169083151502179055508073ffffffffffffffffffffffffffffffffffffffff16827f5a06360d65acf95e98445dc834f205063424c636e65418d928cdfabc33a9539960405160405180910390a35050565b60008135905061018381610255565b92915050565b6000813590506101988161026c565b92915050565b600080604083850312156101b5576101b4610250565b5b60006101c385828601610189565b92505060206101d485828601610174565b9150509250929050565b6101e78161021a565b82525050565b600060208201905061020260008301846101de565b92915050565b600061021382610230565b9050919050565b60008115159050919050565b6000819050919050565b600073ffffffffffffffffffffffffffffffffffffffff82169050919050565b600080fd5b61025e81610208565b811461026957600080fd5b50565b61027581610226565b811461028057600080fd5b5056fea2646970667358221220b7516195f7cd4eec935e05b34029ff10c77a21b09129ce5dba5cb559da9be3fb64736f6c63430008070033",
					"opcodes": "PUSH1 0x80 PUSH1 0x40 MSTORE CALLVALUE DUP1 ISZERO PUSH2 0x10 JUMPI PUSH1 0x0 DUP1 REVERT JUMPDEST POP PUSH2 0x2B9 DUP1 PUSH2 0x20 PUSH1 0x0 CODECOPY PUSH1 0x0 RETURN INVALID PUSH1 0x80 PUSH1 0x40 MSTORE CALLVALUE DUP1 ISZERO PUSH2 0x10 JUMPI PUSH1 0x0 DUP1 REVERT JUMPDEST POP PUSH1 0x4 CALLDATASIZE LT PUSH2 0x36 JUMPI PUSH1 0x0 CALLDATALOAD PUSH1 0xE0 SHR DUP1 PUSH4 0x2F2FF15D EQ PUSH2 0x3B JUMPI DUP1 PUSH4 0xF8FC08B9 EQ PUSH2 0x57 JUMPI JUMPDEST PUSH1 0x0 DUP1 REVERT JUMPDEST PUSH2 0x55 PUSH1 0x4 DUP1 CALLDATASIZE SUB DUP2 ADD SWAP1 PUSH2 0x50 SWAP2 SWAP1 PUSH2 0x19E JUMP JUMPDEST PUSH2 0x87 JUMP JUMPDEST STOP JUMPDEST PUSH2 0x71 PUSH1 0x4 DUP1 CALLDATASIZE SUB DUP2 ADD SWAP1 PUSH2 0x6C SWAP2 SWAP1 PUSH2 0x19E JUMP JUMPDEST PUSH2 0x95 JUMP JUMPDEST PUSH1 0x40 MLOAD PUSH2 0x7E SWAP2 SWAP1 PUSH2 0x1ED JUMP JUMPDEST PUSH1 0x40 MLOAD DUP1 SWAP2 SUB SWAP1 RETURN JUMPDEST PUSH2 0x91 DUP3 DUP3 PUSH2 0xC4 JUMP JUMPDEST POP POP JUMP JUMPDEST PUSH1 0x0 PUSH1 0x20 MSTORE DUP2 PUSH1 0x0 MSTORE PUSH1 0x40 PUSH1 0x0 KECCAK256 PUSH1 0x20 MSTORE DUP1 PUSH1 0x0 MSTORE PUSH1 0x40 PUSH1 0x0 KECCAK256 PUSH1 0x0 SWAP2 POP SWAP2 POP SWAP1 SLOAD SWAP1 PUSH2 0x100 EXP SWAP1 DIV PUSH1 0xFF AND DUP2 JUMP JUMPDEST PUSH1 0x1 PUSH1 0x0 DUP1 DUP5 DUP2 MSTORE PUSH1 0x20 ADD SWAP1 DUP2 MSTORE PUSH1 0x20 ADD PUSH1 0x0 KECCAK256 PUSH1 0x0 DUP4 PUSH20 0xFFFFFFFFFFFFFFFFFFFFFFFFFFFFFFFFFFFFFFFF AND PUSH20 0xFFFFFFFFFFFFFFFFFFFFFFFFFFFFFFFFFFFFFFFF AND DUP2 MSTORE PUSH1 0x20 ADD SWAP1 DUP2 MSTORE PUSH1 0x20 ADD PUSH1 0x0 KECCAK256 PUSH1 0x0 PUSH2 0x100 EXP DUP2 SLOAD DUP2 PUSH1 0xFF MUL NOT AND SWAP1 DUP4 ISZERO ISZERO MUL OR SWAP1 SSTORE POP DUP1 PUSH20 0xFFFFFFFFFFFFFFFFFFFFFFFFFFFFFFFFFFFFFFFF AND DUP3 PUSH32 0x5A06360D65ACF95E98445DC834F205063424C636E65418D928CDFABC33A95399 PUSH1 0x40 MLOAD PUSH1 0x40 MLOAD DUP1 SWAP2 SUB SWAP1 LOG3 POP POP JUMP JUMPDEST PUSH1 0x0 DUP2 CALLDATALOAD SWAP1 POP PUSH2 0x183 DUP2 PUSH2 0x255 JUMP JUMPDEST SWAP3 SWAP2 POP POP JUMP JUMPDEST PUSH1 0x0 DUP2 CALLDATALOAD SWAP1 POP PUSH2 0x198 DUP2 PUSH2 0x26C JUMP JUMPDEST SWAP3 SWAP2 POP POP JUMP JUMPDEST PUSH1 0x0 DUP1 PUSH1 0x40 DUP4 DUP6 SUB SLT ISZERO PUSH2 0x1B5 JUMPI PUSH2 0x1B4 PUSH2 0x250 JUMP JUMPDEST JUMPDEST PUSH1 0x0 PUSH2 0x1C3 DUP6 DUP3 DUP7 ADD PUSH2 0x189 JUMP JUMPDEST SWAP3 POP POP PUSH1 0x20 PUSH2 0x1D4 DUP6 DUP3 DUP7 ADD PUSH2 0x174 JUMP JUMPDEST SWAP2 POP POP SWAP3 POP SWAP3 SWAP1 POP JUMP JUMPDEST PUSH2 0x1E7 DUP2 PUSH2 0x21A JUMP JUMPDEST DUP3 MSTORE POP POP JUMP JUMPDEST PUSH1 0x0 PUSH1 0x20 DUP3 ADD SWAP1 POP PUSH2 0x202 PUSH1 0x0 DUP4 ADD DUP5 PUSH2 0x1DE JUMP JUMPDEST SWAP3 SWAP2 POP POP JUMP JUMPDEST PUSH1 0x0 PUSH2 0x213 DUP3 PUSH2 0x230 JUMP JUMPDEST SWAP1 POP SWAP2 SWAP1 POP JUMP JUMPDEST PUSH1 0x0 DUP2 ISZERO ISZERO SWAP1 POP SWAP2 SWAP1 POP JUMP JUMPDEST PUSH1 0x0 DUP2 SWAP1 POP SWAP2 SWAP1 POP JUMP JUMPDEST PUSH1 0x0 PUSH20 0xFFFFFFFFFFFFFFFFFFFFFFFFFFFFFFFFFFFFFFFF DUP3 AND SWAP1 POP SWAP2 SWAP1 POP JUMP JUMPDEST PUSH1 0x0 DUP1 REVERT JUMPDEST PUSH2 0x25E DUP2 PUSH2 0x208 JUMP JUMPDEST DUP2 EQ PUSH2 0x269 JUMPI PUSH1 0x0 DUP1 REVERT JUMPDEST POP JUMP JUMPDEST PUSH2 0x275 DUP2 PUSH2 0x226 JUMP JUMPDEST DUP2 EQ PUSH2 0x280 JUMPI PUSH1 0x0 DUP1 REVERT JUMPDEST POP JUMP INVALID LOG2 PUSH5 0x6970667358 0x22 SLT KECCAK256 0xB7 MLOAD PUSH2 0x95F7 0xCD 0x4E 0xEC SWAP4 0x5E SDIV 0xB3 BLOCKHASH 0x29 SELFDESTRUCT LT 0xC7 PUSH27 0x21B09129CE5DBA5CB559DA9BE3FB64736F6C634300080700330000 "
				},
				"gasEstimates": {
					"creation": {
						"codeDepositCost": "139400",
						"executionCost": "183",
						"totalCost": "139583"
					},
					"external": {
						"grantRole(bytes32,address)": "26614",
						"roles(bytes32,address)": "3087"
					},
					"internal": {
						"_grantRole(bytes32,address)": "25996"
					}
				},
				"methodIdentifiers": {
					"grantRole(bytes32,address)": "2f2ff15d",
					"roles(bytes32,address)": "f8fc08b9"
				}
			},
			"storageLayout": {
				"storage": [
					{
						"astId": 19,
						"contract": "code9999/practice2/1.sol:controlle",
						"label": "roles",
						"offset": 0,
						"slot": "0",
						"type": "t_mapping(t_bytes32,t_mapping(t_address,t_bool))"
					}
				],
				"types": {
					"t_address": {
						"encoding": "inplace",
						"label": "address",
						"numberOfBytes": "20"
					},
					"t_bool": {
						"encoding": "inplace",
						"label": "bool",
						"numberOfBytes": "1"
					},
					"t_bytes32": {
						"encoding": "inplace",
						"label": "bytes32",
						"numberOfBytes": "32"
					},
					"t_mapping(t_address,t_bool)": {
						"encoding": "mapping",
						"key": "t_address",
						"label": "mapping(address => bool)",
						"numberOfBytes": "32",
						"value": "t_bool"
					},
					"t_mapping(t_bytes32,t_mapping(t_address,t_bool))": {
						"encoding": "mapping",
						"key": "t_bytes32",
						"label": "mapping(bytes32 => mapping(address => bool))",
						"numberOfBytes": "32",
						"value": "t_mapping(t_address,t_bool)"
					}
				}
			},
			"userdoc": {
				"kind": "user",
				"methods": {},
				"version": 1
			}
		}
	}
}