{
	"code9999/practice2/1.sol": {
		"controlle": {
			"abi": [
				{
					"inputs": [],
					"stateMutability": "nonpayable",
					"type": "constructor"
				},
				{
					"anonymous": false,
					"inputs": [
						{
							"indexed": true,
							"internalType": "bytes32",
							"name": "role",
							"type": "bytes32"
						},
						{
							"indexed": true,
							"internalType": "address",
							"name": "account",
							"type": "address"
						}
					],
					"name": "GrantRole",
					"type": "event"
				},
				{
					"anonymous": false,
					"inputs": [
						{
							"indexed": true,
							"internalType": "bytes32",
							"name": "role",
							"type": "bytes32"
						},
						{
							"indexed": true,
							"internalType": "address",
							"name": "account",
							"type": "address"
						}
					],
					"name": "RevokeRole",
					"type": "event"
				},
				{
					"inputs": [],
					"name": "getADMIN",
					"outputs": [
						{
							"internalType": "bytes32",
							"name": "",
							"type": "bytes32"
						}
					],
					"stateMutability": "view",
					"type": "function"
				},
				{
					"inputs": [],
					"name": "getUSER",
					"outputs": [
						{
							"internalType": "bytes32",
							"name": "",
							"type": "bytes32"
						}
					],
					"stateMutability": "view",
					"type": "function"
				},
				{
					"inputs": [
						{
							"internalType": "bytes32",
							"name": "_role",
							"type": "bytes32"
						},
						{
							"internalType": "address",
							"name": "_account",
							"type": "address"
						}
					],
					"name": "grantRole",
					"outputs": [],
					"stateMutability": "nonpayable",
					"type": "function"
				},
				{
					"inputs": [
						{
							"internalType": "bytes32",
							"name": "_role",
							"type": "bytes32"
						},
						{
							"internalType": "address",
							"name": "_account",
							"type": "address"
						}
					],
					"name": "revokeRole",
					"outputs": [],
					"stateMutability": "nonpayable",
					"type": "function"
				},
				{
					"inputs": [
						{
							"internalType": "bytes32",
							"name": "",
							"type": "bytes32"
						},
						{
							"internalType": "address",
							"name": "",
							"type": "address"
						}
					],
					"name": "roles",
					"outputs": [
						{
							"internalType": "bool",
							"name": "",
							"type": "bool"
						}
					],
					"stateMutability": "view",
					"type": "function"
				}
			],
			"devdoc": {
				"kind": "dev",
				"methods": {},
				"version": 1
			},
			"evm": {
				"assembly": "    /* \"code9999/practice2/1.sol\":54:1450  contract controlle{... */\n  mstore(0x40, 0x80)\n    /* \"code9999/practice2/1.sol\":860:946  constructor(){... */\n  callvalue\n  dup1\n  iszero\n  tag_1\n  jumpi\n  0x00\n  dup1\n  revert\ntag_1:\n  pop\n    /* \"code9999/practice2/1.sol\":891:901  msg.sender */\n  caller\n    /* \"code9999/practice2/1.sol\":883:888  owner */\n  0x01\n  0x00\n    /* \"code9999/practice2/1.sol\":883:901  owner = msg.sender */\n  0x0100\n  exp\n  dup2\n  sload\n  dup2\n  0xffffffffffffffffffffffffffffffffffffffff\n  mul\n  not\n  and\n  swap1\n  dup4\n  0xffffffffffffffffffffffffffffffffffffffff\n  and\n  mul\n  or\n  swap1\n  sstore\n  pop\n    /* \"code9999/practice2/1.sol\":911:939  _grantRole(ADMIN,msg.sender) */\n  tag_4\n    /* \"code9999/practice2/1.sol\":343:368  abi.encodePacked(\"ADMIN\") */\n  add(0x20, mload(0x40))\n  tag_5\n  swap1\n  tag_6\n  jump\t// in\ntag_5:\n  mload(0x40)\n  0x20\n  dup2\n  dup4\n  sub\n  sub\n  dup2\n  mstore\n  swap1\n  0x40\n  mstore\n    /* \"code9999/practice2/1.sol\":333:369  keccak256(abi.encodePacked(\"ADMIN\")) */\n  dup1\n  mload\n  swap1\n  0x20\n  add\n  keccak256\n    /* \"code9999/practice2/1.sol\":928:938  msg.sender */\n  caller\n    /* \"code9999/practice2/1.sol\":911:921  _grantRole */\n  shl(0x20, tag_7)\n    /* \"code9999/practice2/1.sol\":911:939  _grantRole(ADMIN,msg.sender) */\n  0x20\n  shr\n  jump\t// in\ntag_4:\n    /* \"code9999/practice2/1.sol\":54:1450  contract controlle{... */\n  jump(tag_8)\n    /* \"code9999/practice2/1.sol\":952:1155  function _grantRole(bytes32 _role,address _account) internal{... */\ntag_7:\n    /* \"code9999/practice2/1.sol\":1104:1108  true */\n  0x01\n    /* \"code9999/practice2/1.sol\":1079:1084  roles */\n  0x00\n    /* \"code9999/practice2/1.sol\":1079:1091  roles[_role] */\n  dup1\n    /* \"code9999/practice2/1.sol\":1085:1090  _role */\n  dup5\n    /* \"code9999/practice2/1.sol\":1079:1091  roles[_role] */\n  dup2\n  mstore\n  0x20\n  add\n  swap1\n  dup2\n  mstore\n  0x20\n  add\n  0x00\n  keccak256\n    /* \"code9999/practice2/1.sol\":1079:1101  roles[_role][_account] */\n  0x00\n    /* \"code9999/practice2/1.sol\":1092:1100  _account */\n  dup4\n    /* \"code9999/practice2/1.sol\":1079:1101  roles[_role][_account] */\n  0xffffffffffffffffffffffffffffffffffffffff\n  and\n  0xffffffffffffffffffffffffffffffffffffffff\n  and\n  dup2\n  mstore\n  0x20\n  add\n  swap1\n  dup2\n  mstore\n  0x20\n  add\n  0x00\n  keccak256\n  0x00\n    /* \"code9999/practice2/1.sol\":1079:1108  roles[_role][_account] = true */\n  0x0100\n  exp\n  dup2\n  sload\n  dup2\n  0xff\n  mul\n  not\n  and\n  swap1\n  dup4\n  iszero\n  iszero\n  mul\n  or\n  swap1\n  sstore\n  pop\n    /* \"code9999/practice2/1.sol\":1139:1147  _account */\n  dup1\n    /* \"code9999/practice2/1.sol\":1123:1148  GrantRole(_role,_account) */\n  0xffffffffffffffffffffffffffffffffffffffff\n  and\n    /* \"code9999/practice2/1.sol\":1133:1138  _role */\n  dup3\n    /* \"code9999/practice2/1.sol\":1123:1148  GrantRole(_role,_account) */\n  0x5a06360d65acf95e98445dc834f205063424c636e65418d928cdfabc33a95399\n  mload(0x40)\n  mload(0x40)\n  dup1\n  swap2\n  sub\n  swap1\n  log3\n    /* \"code9999/practice2/1.sol\":952:1155  function _grantRole(bytes32 _role,address _account) internal{... */\n  pop\n  pop\n  jump\t// out\n    /* \"#utility.yul\":7:407   */\ntag_11:\n    /* \"#utility.yul\":167:170   */\n  0x00\n    /* \"#utility.yul\":188:272   */\n  tag_13\n    /* \"#utility.yul\":270:271   */\n  0x05\n    /* \"#utility.yul\":265:268   */\n  dup4\n    /* \"#utility.yul\":188:272   */\n  tag_14\n  jump\t// in\ntag_13:\n    /* \"#utility.yul\":181:272   */\n  swap2\n  pop\n    /* \"#utility.yul\":281:374   */\n  tag_15\n    /* \"#utility.yul\":370:373   */\n  dup3\n    /* \"#utility.yul\":281:374   */\n  tag_16\n  jump\t// in\ntag_15:\n    /* \"#utility.yul\":399:400   */\n  0x05\n    /* \"#utility.yul\":394:397   */\n  dup3\n    /* \"#utility.yul\":390:401   */\n  add\n    /* \"#utility.yul\":383:401   */\n  swap1\n  pop\n    /* \"#utility.yul\":7:407   */\n  swap2\n  swap1\n  pop\n  jump\t// out\n    /* \"#utility.yul\":413:794   */\ntag_6:\n    /* \"#utility.yul\":598:601   */\n  0x00\n    /* \"#utility.yul\":620:768   */\n  tag_18\n    /* \"#utility.yul\":764:767   */\n  dup3\n    /* \"#utility.yul\":620:768   */\n  tag_11\n  jump\t// in\ntag_18:\n    /* \"#utility.yul\":613:768   */\n  swap2\n  pop\n    /* \"#utility.yul\":785:788   */\n  dup2\n    /* \"#utility.yul\":778:788   */\n  swap1\n  pop\n    /* \"#utility.yul\":413:794   */\n  swap2\n  swap1\n  pop\n  jump\t// out\n    /* \"#utility.yul\":800:948   */\ntag_14:\n    /* \"#utility.yul\":902:913   */\n  0x00\n    /* \"#utility.yul\":939:942   */\n  dup2\n    /* \"#utility.yul\":924:942   */\n  swap1\n  pop\n    /* \"#utility.yul\":800:948   */\n  swap3\n  swap2\n  pop\n  pop\n  jump\t// out\n    /* \"#utility.yul\":954:1109   */\ntag_16:\n    /* \"#utility.yul\":1094:1101   */\n  0x41444d494e000000000000000000000000000000000000000000000000000000\n    /* \"#utility.yul\":1090:1091   */\n  0x00\n    /* \"#utility.yul\":1082:1088   */\n  dup3\n    /* \"#utility.yul\":1078:1092   */\n  add\n    /* \"#utility.yul\":1071:1102   */\n  mstore\n    /* \"#utility.yul\":954:1109   */\n  pop\n  jump\t// out\n    /* \"code9999/practice2/1.sol\":54:1450  contract controlle{... */\ntag_8:\n  dataSize(sub_0)\n  dup1\n  dataOffset(sub_0)\n  0x00\n  codecopy\n  0x00\n  return\nstop\n\nsub_0: assembly {\n        /* \"code9999/practice2/1.sol\":54:1450  contract controlle{... */\n      mstore(0x40, 0x80)\n      callvalue\n      dup1\n      iszero\n      tag_1\n      jumpi\n      0x00\n      dup1\n      revert\n    tag_1:\n      pop\n      jumpi(tag_2, lt(calldatasize, 0x04))\n      shr(0xe0, calldataload(0x00))\n      dup1\n      0x2f2ff15d\n      eq\n      tag_3\n      jumpi\n      dup1\n      0x3d86e635\n      eq\n      tag_4\n      jumpi\n      dup1\n      0xd547741f\n      eq\n      tag_5\n      jumpi\n      dup1\n      0xe3389fee\n      eq\n      tag_6\n      jumpi\n      dup1\n      0xf8fc08b9\n      eq\n      tag_7\n      jumpi\n    tag_2:\n      0x00\n      dup1\n      revert\n        /* \"code9999/practice2/1.sol\":1160:1278  function grantRole(bytes32 _role,address _account) external onlyRole(ADMIN){... */\n    tag_3:\n      tag_8\n      0x04\n      dup1\n      calldatasize\n      sub\n      dup2\n      add\n      swap1\n      tag_9\n      swap2\n      swap1\n      tag_10\n      jump\t// in\n    tag_9:\n      tag_11\n      jump\t// in\n    tag_8:\n      stop\n        /* \"code9999/practice2/1.sol\":674:763  function getADMIN()external view onlyOwner returns(bytes32) {... */\n    tag_4:\n      tag_12\n      tag_13\n      jump\t// in\n    tag_12:\n      mload(0x40)\n      tag_14\n      swap2\n      swap1\n      tag_15\n      jump\t// in\n    tag_14:\n      mload(0x40)\n      dup1\n      swap2\n      sub\n      swap1\n      return\n        /* \"code9999/practice2/1.sol\":1284:1448  function revokeRole(bytes32 _role,address _account) external onlyRole(ADMIN){... */\n    tag_5:\n      tag_16\n      0x04\n      dup1\n      calldatasize\n      sub\n      dup2\n      add\n      swap1\n      tag_17\n      swap2\n      swap1\n      tag_10\n      jump\t// in\n    tag_17:\n      tag_18\n      jump\t// in\n    tag_16:\n      stop\n        /* \"code9999/practice2/1.sol\":768:855  function getUSER()external view onlyOwner returns(bytes32) {... */\n    tag_6:\n      tag_19\n      tag_20\n      jump\t// in\n    tag_19:\n      mload(0x40)\n      tag_21\n      swap2\n      swap1\n      tag_15\n      jump\t// in\n    tag_21:\n      mload(0x40)\n      dup1\n      swap2\n      sub\n      swap1\n      return\n        /* \"code9999/practice2/1.sol\":240:293  mapping(bytes32=>mapping(address=>bool)) public roles */\n    tag_7:\n      tag_22\n      0x04\n      dup1\n      calldatasize\n      sub\n      dup2\n      add\n      swap1\n      tag_23\n      swap2\n      swap1\n      tag_10\n      jump\t// in\n    tag_23:\n      tag_24\n      jump\t// in\n    tag_22:\n      mload(0x40)\n      tag_25\n      swap2\n      swap1\n      tag_26\n      jump\t// in\n    tag_25:\n      mload(0x40)\n      dup1\n      swap2\n      sub\n      swap1\n      return\n        /* \"code9999/practice2/1.sol\":1160:1278  function grantRole(bytes32 _role,address _account) external onlyRole(ADMIN){... */\n    tag_11:\n        /* \"code9999/practice2/1.sol\":343:368  abi.encodePacked(\"ADMIN\") */\n      add(0x20, mload(0x40))\n      tag_27\n      swap1\n      tag_28\n      jump\t// in\n    tag_27:\n      mload(0x40)\n      0x20\n      dup2\n      dup4\n      sub\n      sub\n      dup2\n      mstore\n      swap1\n      0x40\n      mstore\n        /* \"code9999/practice2/1.sol\":333:369  keccak256(abi.encodePacked(\"ADMIN\")) */\n      dup1\n      mload\n      swap1\n      0x20\n      add\n      keccak256\n        /* \"code9999/practice2/1.sol\":518:523  roles */\n      0x00\n        /* \"code9999/practice2/1.sol\":518:530  roles[_role] */\n      dup1\n        /* \"code9999/practice2/1.sol\":524:529  _role */\n      dup3\n        /* \"code9999/practice2/1.sol\":518:530  roles[_role] */\n      dup2\n      mstore\n      0x20\n      add\n      swap1\n      dup2\n      mstore\n      0x20\n      add\n      0x00\n      keccak256\n        /* \"code9999/practice2/1.sol\":518:542  roles[_role][msg.sender] */\n      0x00\n        /* \"code9999/practice2/1.sol\":531:541  msg.sender */\n      caller\n        /* \"code9999/practice2/1.sol\":518:542  roles[_role][msg.sender] */\n      0xffffffffffffffffffffffffffffffffffffffff\n      and\n      0xffffffffffffffffffffffffffffffffffffffff\n      and\n      dup2\n      mstore\n      0x20\n      add\n      swap1\n      dup2\n      mstore\n      0x20\n      add\n      0x00\n      keccak256\n      0x00\n      swap1\n      sload\n      swap1\n      0x0100\n      exp\n      swap1\n      div\n      0xff\n      and\n        /* \"code9999/practice2/1.sol\":510:558  require(roles[_role][msg.sender],\"not mannager\") */\n      tag_30\n      jumpi\n      mload(0x40)\n      0x08c379a000000000000000000000000000000000000000000000000000000000\n      dup2\n      mstore\n      0x04\n      add\n      tag_31\n      swap1\n      tag_32\n      jump\t// in\n    tag_31:\n      mload(0x40)\n      dup1\n      swap2\n      sub\n      swap1\n      revert\n    tag_30:\n        /* \"code9999/practice2/1.sol\":1245:1271  _grantRole(_role,_account) */\n      tag_34\n        /* \"code9999/practice2/1.sol\":1256:1261  _role */\n      dup4\n        /* \"code9999/practice2/1.sol\":1262:1270  _account */\n      dup4\n        /* \"code9999/practice2/1.sol\":1245:1255  _grantRole */\n      tag_35\n        /* \"code9999/practice2/1.sol\":1245:1271  _grantRole(_role,_account) */\n      jump\t// in\n    tag_34:\n        /* \"code9999/practice2/1.sol\":1160:1278  function grantRole(bytes32 _role,address _account) external onlyRole(ADMIN){... */\n      pop\n      pop\n      pop\n      jump\t// out\n        /* \"code9999/practice2/1.sol\":674:763  function getADMIN()external view onlyOwner returns(bytes32) {... */\n    tag_13:\n        /* \"code9999/practice2/1.sol\":725:732  bytes32 */\n      0x00\n        /* \"code9999/practice2/1.sol\":633:638  owner */\n      0x01\n      0x00\n      swap1\n      sload\n      swap1\n      0x0100\n      exp\n      swap1\n      div\n      0xffffffffffffffffffffffffffffffffffffffff\n      and\n        /* \"code9999/practice2/1.sol\":619:638  msg.sender == owner */\n      0xffffffffffffffffffffffffffffffffffffffff\n      and\n        /* \"code9999/practice2/1.sol\":619:629  msg.sender */\n      caller\n        /* \"code9999/practice2/1.sol\":619:638  msg.sender == owner */\n      0xffffffffffffffffffffffffffffffffffffffff\n      and\n      eq\n        /* \"code9999/practice2/1.sol\":611:651  require(msg.sender == owner,\"not owner\") */\n      tag_37\n      jumpi\n      mload(0x40)\n      0x08c379a000000000000000000000000000000000000000000000000000000000\n      dup2\n      mstore\n      0x04\n      add\n      tag_38\n      swap1\n      tag_39\n      jump\t// in\n    tag_38:\n      mload(0x40)\n      dup1\n      swap2\n      sub\n      swap1\n      revert\n    tag_37:\n        /* \"code9999/practice2/1.sol\":343:368  abi.encodePacked(\"ADMIN\") */\n      add(0x20, mload(0x40))\n      tag_41\n      swap1\n      tag_28\n      jump\t// in\n    tag_41:\n      mload(0x40)\n      0x20\n      dup2\n      dup4\n      sub\n      sub\n      dup2\n      mstore\n      swap1\n      0x40\n      mstore\n        /* \"code9999/practice2/1.sol\":333:369  keccak256(abi.encodePacked(\"ADMIN\")) */\n      dup1\n      mload\n      swap1\n      0x20\n      add\n      keccak256\n        /* \"code9999/practice2/1.sol\":744:756  return ADMIN */\n      swap1\n      pop\n        /* \"code9999/practice2/1.sol\":674:763  function getADMIN()external view onlyOwner returns(bytes32) {... */\n      swap1\n      jump\t// out\n        /* \"code9999/practice2/1.sol\":1284:1448  function revokeRole(bytes32 _role,address _account) external onlyRole(ADMIN){... */\n    tag_18:\n        /* \"code9999/practice2/1.sol\":343:368  abi.encodePacked(\"ADMIN\") */\n      add(0x20, mload(0x40))\n      tag_42\n      swap1\n      tag_28\n      jump\t// in\n    tag_42:\n      mload(0x40)\n      0x20\n      dup2\n      dup4\n      sub\n      sub\n      dup2\n      mstore\n      swap1\n      0x40\n      mstore\n        /* \"code9999/practice2/1.sol\":333:369  keccak256(abi.encodePacked(\"ADMIN\")) */\n      dup1\n      mload\n      swap1\n      0x20\n      add\n      keccak256\n        /* \"code9999/practice2/1.sol\":518:523  roles */\n      0x00\n        /* \"code9999/practice2/1.sol\":518:530  roles[_role] */\n      dup1\n        /* \"code9999/practice2/1.sol\":524:529  _role */\n      dup3\n        /* \"code9999/practice2/1.sol\":518:530  roles[_role] */\n      dup2\n      mstore\n      0x20\n      add\n      swap1\n      dup2\n      mstore\n      0x20\n      add\n      0x00\n      keccak256\n        /* \"code9999/practice2/1.sol\":518:542  roles[_role][msg.sender] */\n      0x00\n        /* \"code9999/practice2/1.sol\":531:541  msg.sender */\n      caller\n        /* \"code9999/practice2/1.sol\":518:542  roles[_role][msg.sender] */\n      0xffffffffffffffffffffffffffffffffffffffff\n      and\n      0xffffffffffffffffffffffffffffffffffffffff\n      and\n      dup2\n      mstore\n      0x20\n      add\n      swap1\n      dup2\n      mstore\n      0x20\n      add\n      0x00\n      keccak256\n      0x00\n      swap1\n      sload\n      swap1\n      0x0100\n      exp\n      swap1\n      div\n      0xff\n      and\n        /* \"code9999/practice2/1.sol\":510:558  require(roles[_role][msg.sender],\"not mannager\") */\n      tag_44\n      jumpi\n      mload(0x40)\n      0x08c379a000000000000000000000000000000000000000000000000000000000\n      dup2\n      mstore\n      0x04\n      add\n      tag_45\n      swap1\n      tag_32\n      jump\t// in\n    tag_45:\n      mload(0x40)\n      dup1\n      swap2\n      sub\n      swap1\n      revert\n    tag_44:\n        /* \"code9999/practice2/1.sol\":1395:1400  false */\n      0x00\n        /* \"code9999/practice2/1.sol\":1370:1375  roles */\n      dup1\n        /* \"code9999/practice2/1.sol\":1370:1382  roles[_role] */\n      0x00\n        /* \"code9999/practice2/1.sol\":1376:1381  _role */\n      dup6\n        /* \"code9999/practice2/1.sol\":1370:1382  roles[_role] */\n      dup2\n      mstore\n      0x20\n      add\n      swap1\n      dup2\n      mstore\n      0x20\n      add\n      0x00\n      keccak256\n        /* \"code9999/practice2/1.sol\":1370:1392  roles[_role][_account] */\n      0x00\n        /* \"code9999/practice2/1.sol\":1383:1391  _account */\n      dup5\n        /* \"code9999/practice2/1.sol\":1370:1392  roles[_role][_account] */\n      0xffffffffffffffffffffffffffffffffffffffff\n      and\n      0xffffffffffffffffffffffffffffffffffffffff\n      and\n      dup2\n      mstore\n      0x20\n      add\n      swap1\n      dup2\n      mstore\n      0x20\n      add\n      0x00\n      keccak256\n      0x00\n        /* \"code9999/practice2/1.sol\":1370:1400  roles[_role][_account] = false */\n      0x0100\n      exp\n      dup2\n      sload\n      dup2\n      0xff\n      mul\n      not\n      and\n      swap1\n      dup4\n      iszero\n      iszero\n      mul\n      or\n      swap1\n      sstore\n      pop\n        /* \"code9999/practice2/1.sol\":1432:1440  _account */\n      dup2\n        /* \"code9999/practice2/1.sol\":1415:1441  RevokeRole(_role,_account) */\n      0xffffffffffffffffffffffffffffffffffffffff\n      and\n        /* \"code9999/practice2/1.sol\":1426:1431  _role */\n      dup4\n        /* \"code9999/practice2/1.sol\":1415:1441  RevokeRole(_role,_account) */\n      0x76e6093c136cd7faa5a6d92b2b633f3b4595abd4a529b7a13917398355fea694\n      mload(0x40)\n      mload(0x40)\n      dup1\n      swap2\n      sub\n      swap1\n      log3\n        /* \"code9999/practice2/1.sol\":1284:1448  function revokeRole(bytes32 _role,address _account) external onlyRole(ADMIN){... */\n      pop\n      pop\n      pop\n      jump\t// out\n        /* \"code9999/practice2/1.sol\":768:855  function getUSER()external view onlyOwner returns(bytes32) {... */\n    tag_20:\n        /* \"code9999/practice2/1.sol\":818:825  bytes32 */\n      0x00\n        /* \"code9999/practice2/1.sol\":633:638  owner */\n      0x01\n      0x00\n      swap1\n      sload\n      swap1\n      0x0100\n      exp\n      swap1\n      div\n      0xffffffffffffffffffffffffffffffffffffffff\n      and\n        /* \"code9999/practice2/1.sol\":619:638  msg.sender == owner */\n      0xffffffffffffffffffffffffffffffffffffffff\n      and\n        /* \"code9999/practice2/1.sol\":619:629  msg.sender */\n      caller\n        /* \"code9999/practice2/1.sol\":619:638  msg.sender == owner */\n      0xffffffffffffffffffffffffffffffffffffffff\n      and\n      eq\n        /* \"code9999/practice2/1.sol\":611:651  require(msg.sender == owner,\"not owner\") */\n      tag_48\n      jumpi\n      mload(0x40)\n      0x08c379a000000000000000000000000000000000000000000000000000000000\n      dup2\n      mstore\n      0x04\n      add\n      tag_49\n      swap1\n      tag_39\n      jump\t// in\n    tag_49:\n      mload(0x40)\n      dup1\n      swap2\n      sub\n      swap1\n      revert\n    tag_48:\n        /* \"code9999/practice2/1.sol\":417:441  abi.encodePacked(\"USER\") */\n      add(0x20, mload(0x40))\n      tag_51\n      swap1\n      tag_52\n      jump\t// in\n    tag_51:\n      mload(0x40)\n      0x20\n      dup2\n      dup4\n      sub\n      sub\n      dup2\n      mstore\n      swap1\n      0x40\n      mstore\n        /* \"code9999/practice2/1.sol\":407:442  keccak256(abi.encodePacked(\"USER\")) */\n      dup1\n      mload\n      swap1\n      0x20\n      add\n      keccak256\n        /* \"code9999/practice2/1.sol\":837:848  return USER */\n      swap1\n      pop\n        /* \"code9999/practice2/1.sol\":768:855  function getUSER()external view onlyOwner returns(bytes32) {... */\n      swap1\n      jump\t// out\n        /* \"code9999/practice2/1.sol\":240:293  mapping(bytes32=>mapping(address=>bool)) public roles */\n    tag_24:\n      mstore(0x20, 0x00)\n      dup2\n      0x00\n      mstore\n      mstore(0x20, keccak256(0x00, 0x40))\n      dup1\n      0x00\n      mstore\n      keccak256(0x00, 0x40)\n      0x00\n      swap2\n      pop\n      swap2\n      pop\n      swap1\n      sload\n      swap1\n      0x0100\n      exp\n      swap1\n      div\n      0xff\n      and\n      dup2\n      jump\t// out\n        /* \"code9999/practice2/1.sol\":952:1155  function _grantRole(bytes32 _role,address _account) internal{... */\n    tag_35:\n        /* \"code9999/practice2/1.sol\":1104:1108  true */\n      0x01\n        /* \"code9999/practice2/1.sol\":1079:1084  roles */\n      0x00\n        /* \"code9999/practice2/1.sol\":1079:1091  roles[_role] */\n      dup1\n        /* \"code9999/practice2/1.sol\":1085:1090  _role */\n      dup5\n        /* \"code9999/practice2/1.sol\":1079:1091  roles[_role] */\n      dup2\n      mstore\n      0x20\n      add\n      swap1\n      dup2\n      mstore\n      0x20\n      add\n      0x00\n      keccak256\n        /* \"code9999/practice2/1.sol\":1079:1101  roles[_role][_account] */\n      0x00\n        /* \"code9999/practice2/1.sol\":1092:1100  _account */\n      dup4\n        /* \"code9999/practice2/1.sol\":1079:1101  roles[_role][_account] */\n      0xffffffffffffffffffffffffffffffffffffffff\n      and\n      0xffffffffffffffffffffffffffffffffffffffff\n      and\n      dup2\n      mstore\n      0x20\n      add\n      swap1\n      dup2\n      mstore\n      0x20\n      add\n      0x00\n      keccak256\n      0x00\n        /* \"code9999/practice2/1.sol\":1079:1108  roles[_role][_account] = true */\n      0x0100\n      exp\n      dup2\n      sload\n      dup2\n      0xff\n      mul\n      not\n      and\n      swap1\n      dup4\n      iszero\n      iszero\n      mul\n      or\n      swap1\n      sstore\n      pop\n        /* \"code9999/practice2/1.sol\":1139:1147  _account */\n      dup1\n        /* \"code9999/practice2/1.sol\":1123:1148  GrantRole(_role,_account) */\n      0xffffffffffffffffffffffffffffffffffffffff\n      and\n        /* \"code9999/practice2/1.sol\":1133:1138  _role */\n      dup3\n        /* \"code9999/practice2/1.sol\":1123:1148  GrantRole(_role,_account) */\n      0x5a06360d65acf95e98445dc834f205063424c636e65418d928cdfabc33a95399\n      mload(0x40)\n      mload(0x40)\n      dup1\n      swap2\n      sub\n      swap1\n      log3\n        /* \"code9999/practice2/1.sol\":952:1155  function _grantRole(bytes32 _role,address _account) internal{... */\n      pop\n      pop\n      jump\t// out\n        /* \"#utility.yul\":7:146   */\n    tag_55:\n        /* \"#utility.yul\":53:58   */\n      0x00\n        /* \"#utility.yul\":91:97   */\n      dup2\n        /* \"#utility.yul\":78:98   */\n      calldataload\n        /* \"#utility.yul\":69:98   */\n      swap1\n      pop\n        /* \"#utility.yul\":107:140   */\n      tag_57\n        /* \"#utility.yul\":134:139   */\n      dup2\n        /* \"#utility.yul\":107:140   */\n      tag_58\n      jump\t// in\n    tag_57:\n        /* \"#utility.yul\":7:146   */\n      swap3\n      swap2\n      pop\n      pop\n      jump\t// out\n        /* \"#utility.yul\":152:291   */\n    tag_59:\n        /* \"#utility.yul\":198:203   */\n      0x00\n        /* \"#utility.yul\":236:242   */\n      dup2\n        /* \"#utility.yul\":223:243   */\n      calldataload\n        /* \"#utility.yul\":214:243   */\n      swap1\n      pop\n        /* \"#utility.yul\":252:285   */\n      tag_61\n        /* \"#utility.yul\":279:284   */\n      dup2\n        /* \"#utility.yul\":252:285   */\n      tag_62\n      jump\t// in\n    tag_61:\n        /* \"#utility.yul\":152:291   */\n      swap3\n      swap2\n      pop\n      pop\n      jump\t// out\n        /* \"#utility.yul\":297:771   */\n    tag_10:\n        /* \"#utility.yul\":365:371   */\n      0x00\n        /* \"#utility.yul\":373:379   */\n      dup1\n        /* \"#utility.yul\":422:424   */\n      0x40\n        /* \"#utility.yul\":410:419   */\n      dup4\n        /* \"#utility.yul\":401:408   */\n      dup6\n        /* \"#utility.yul\":397:420   */\n      sub\n        /* \"#utility.yul\":393:425   */\n      slt\n        /* \"#utility.yul\":390:509   */\n      iszero\n      tag_64\n      jumpi\n        /* \"#utility.yul\":428:507   */\n      tag_65\n      tag_66\n      jump\t// in\n    tag_65:\n        /* \"#utility.yul\":390:509   */\n    tag_64:\n        /* \"#utility.yul\":548:549   */\n      0x00\n        /* \"#utility.yul\":573:626   */\n      tag_67\n        /* \"#utility.yul\":618:625   */\n      dup6\n        /* \"#utility.yul\":609:615   */\n      dup3\n        /* \"#utility.yul\":598:607   */\n      dup7\n        /* \"#utility.yul\":594:616   */\n      add\n        /* \"#utility.yul\":573:626   */\n      tag_59\n      jump\t// in\n    tag_67:\n        /* \"#utility.yul\":563:626   */\n      swap3\n      pop\n        /* \"#utility.yul\":519:636   */\n      pop\n        /* \"#utility.yul\":675:677   */\n      0x20\n        /* \"#utility.yul\":701:754   */\n      tag_68\n        /* \"#utility.yul\":746:753   */\n      dup6\n        /* \"#utility.yul\":737:743   */\n      dup3\n        /* \"#utility.yul\":726:735   */\n      dup7\n        /* \"#utility.yul\":722:744   */\n      add\n        /* \"#utility.yul\":701:754   */\n      tag_55\n      jump\t// in\n    tag_68:\n        /* \"#utility.yul\":691:754   */\n      swap2\n      pop\n        /* \"#utility.yul\":646:764   */\n      pop\n        /* \"#utility.yul\":297:771   */\n      swap3\n      pop\n      swap3\n      swap1\n      pop\n      jump\t// out\n        /* \"#utility.yul\":777:886   */\n    tag_69:\n        /* \"#utility.yul\":858:879   */\n      tag_71\n        /* \"#utility.yul\":873:878   */\n      dup2\n        /* \"#utility.yul\":858:879   */\n      tag_72\n      jump\t// in\n    tag_71:\n        /* \"#utility.yul\":853:856   */\n      dup3\n        /* \"#utility.yul\":846:880   */\n      mstore\n        /* \"#utility.yul\":777:886   */\n      pop\n      pop\n      jump\t// out\n        /* \"#utility.yul\":892:1010   */\n    tag_73:\n        /* \"#utility.yul\":979:1003   */\n      tag_75\n        /* \"#utility.yul\":997:1002   */\n      dup2\n        /* \"#utility.yul\":979:1003   */\n      tag_76\n      jump\t// in\n    tag_75:\n        /* \"#utility.yul\":974:977   */\n      dup3\n        /* \"#utility.yul\":967:1004   */\n      mstore\n        /* \"#utility.yul\":892:1010   */\n      pop\n      pop\n      jump\t// out\n        /* \"#utility.yul\":1016:1416   */\n    tag_77:\n        /* \"#utility.yul\":1176:1179   */\n      0x00\n        /* \"#utility.yul\":1197:1281   */\n      tag_79\n        /* \"#utility.yul\":1279:1280   */\n      0x04\n        /* \"#utility.yul\":1274:1277   */\n      dup4\n        /* \"#utility.yul\":1197:1281   */\n      tag_80\n      jump\t// in\n    tag_79:\n        /* \"#utility.yul\":1190:1281   */\n      swap2\n      pop\n        /* \"#utility.yul\":1290:1383   */\n      tag_81\n        /* \"#utility.yul\":1379:1382   */\n      dup3\n        /* \"#utility.yul\":1290:1383   */\n      tag_82\n      jump\t// in\n    tag_81:\n        /* \"#utility.yul\":1408:1409   */\n      0x04\n        /* \"#utility.yul\":1403:1406   */\n      dup3\n        /* \"#utility.yul\":1399:1410   */\n      add\n        /* \"#utility.yul\":1392:1410   */\n      swap1\n      pop\n        /* \"#utility.yul\":1016:1416   */\n      swap2\n      swap1\n      pop\n      jump\t// out\n        /* \"#utility.yul\":1422:1822   */\n    tag_83:\n        /* \"#utility.yul\":1582:1585   */\n      0x00\n        /* \"#utility.yul\":1603:1687   */\n      tag_85\n        /* \"#utility.yul\":1685:1686   */\n      0x05\n        /* \"#utility.yul\":1680:1683   */\n      dup4\n        /* \"#utility.yul\":1603:1687   */\n      tag_80\n      jump\t// in\n    tag_85:\n        /* \"#utility.yul\":1596:1687   */\n      swap2\n      pop\n        /* \"#utility.yul\":1696:1789   */\n      tag_86\n        /* \"#utility.yul\":1785:1788   */\n      dup3\n        /* \"#utility.yul\":1696:1789   */\n      tag_87\n      jump\t// in\n    tag_86:\n        /* \"#utility.yul\":1814:1815   */\n      0x05\n        /* \"#utility.yul\":1809:1812   */\n      dup3\n        /* \"#utility.yul\":1805:1816   */\n      add\n        /* \"#utility.yul\":1798:1816   */\n      swap1\n      pop\n        /* \"#utility.yul\":1422:1822   */\n      swap2\n      swap1\n      pop\n      jump\t// out\n        /* \"#utility.yul\":1828:2194   */\n    tag_88:\n        /* \"#utility.yul\":1970:1973   */\n      0x00\n        /* \"#utility.yul\":1991:2058   */\n      tag_90\n        /* \"#utility.yul\":2055:2057   */\n      0x0c\n        /* \"#utility.yul\":2050:2053   */\n      dup4\n        /* \"#utility.yul\":1991:2058   */\n      tag_91\n      jump\t// in\n    tag_90:\n        /* \"#utility.yul\":1984:2058   */\n      swap2\n      pop\n        /* \"#utility.yul\":2067:2160   */\n      tag_92\n        /* \"#utility.yul\":2156:2159   */\n      dup3\n        /* \"#utility.yul\":2067:2160   */\n      tag_93\n      jump\t// in\n    tag_92:\n        /* \"#utility.yul\":2185:2187   */\n      0x20\n        /* \"#utility.yul\":2180:2183   */\n      dup3\n        /* \"#utility.yul\":2176:2188   */\n      add\n        /* \"#utility.yul\":2169:2188   */\n      swap1\n      pop\n        /* \"#utility.yul\":1828:2194   */\n      swap2\n      swap1\n      pop\n      jump\t// out\n        /* \"#utility.yul\":2200:2565   */\n    tag_94:\n        /* \"#utility.yul\":2342:2345   */\n      0x00\n        /* \"#utility.yul\":2363:2429   */\n      tag_96\n        /* \"#utility.yul\":2427:2428   */\n      0x09\n        /* \"#utility.yul\":2422:2425   */\n      dup4\n        /* \"#utility.yul\":2363:2429   */\n      tag_91\n      jump\t// in\n    tag_96:\n        /* \"#utility.yul\":2356:2429   */\n      swap2\n      pop\n        /* \"#utility.yul\":2438:2531   */\n      tag_97\n        /* \"#utility.yul\":2527:2530   */\n      dup3\n        /* \"#utility.yul\":2438:2531   */\n      tag_98\n      jump\t// in\n    tag_97:\n        /* \"#utility.yul\":2556:2558   */\n      0x20\n        /* \"#utility.yul\":2551:2554   */\n      dup3\n        /* \"#utility.yul\":2547:2559   */\n      add\n        /* \"#utility.yul\":2540:2559   */\n      swap1\n      pop\n        /* \"#utility.yul\":2200:2565   */\n      swap2\n      swap1\n      pop\n      jump\t// out\n        /* \"#utility.yul\":2571:2952   */\n    tag_52:\n        /* \"#utility.yul\":2756:2759   */\n      0x00\n        /* \"#utility.yul\":2778:2926   */\n      tag_100\n        /* \"#utility.yul\":2922:2925   */\n      dup3\n        /* \"#utility.yul\":2778:2926   */\n      tag_77\n      jump\t// in\n    tag_100:\n        /* \"#utility.yul\":2771:2926   */\n      swap2\n      pop\n        /* \"#utility.yul\":2943:2946   */\n      dup2\n        /* \"#utility.yul\":2936:2946   */\n      swap1\n      pop\n        /* \"#utility.yul\":2571:2952   */\n      swap2\n      swap1\n      pop\n      jump\t// out\n        /* \"#utility.yul\":2958:3339   */\n    tag_28:\n        /* \"#utility.yul\":3143:3146   */\n      0x00\n        /* \"#utility.yul\":3165:3313   */\n      tag_102\n        /* \"#utility.yul\":3309:3312   */\n      dup3\n        /* \"#utility.yul\":3165:3313   */\n      tag_83\n      jump\t// in\n    tag_102:\n        /* \"#utility.yul\":3158:3313   */\n      swap2\n      pop\n        /* \"#utility.yul\":3330:3333   */\n      dup2\n        /* \"#utility.yul\":3323:3333   */\n      swap1\n      pop\n        /* \"#utility.yul\":2958:3339   */\n      swap2\n      swap1\n      pop\n      jump\t// out\n        /* \"#utility.yul\":3345:3555   */\n    tag_26:\n        /* \"#utility.yul\":3432:3436   */\n      0x00\n        /* \"#utility.yul\":3470:3472   */\n      0x20\n        /* \"#utility.yul\":3459:3468   */\n      dup3\n        /* \"#utility.yul\":3455:3473   */\n      add\n        /* \"#utility.yul\":3447:3473   */\n      swap1\n      pop\n        /* \"#utility.yul\":3483:3548   */\n      tag_104\n        /* \"#utility.yul\":3545:3546   */\n      0x00\n        /* \"#utility.yul\":3534:3543   */\n      dup4\n        /* \"#utility.yul\":3530:3547   */\n      add\n        /* \"#utility.yul\":3521:3527   */\n      dup5\n        /* \"#utility.yul\":3483:3548   */\n      tag_69\n      jump\t// in\n    tag_104:\n        /* \"#utility.yul\":3345:3555   */\n      swap3\n      swap2\n      pop\n      pop\n      jump\t// out\n        /* \"#utility.yul\":3561:3783   */\n    tag_15:\n        /* \"#utility.yul\":3654:3658   */\n      0x00\n        /* \"#utility.yul\":3692:3694   */\n      0x20\n        /* \"#utility.yul\":3681:3690   */\n      dup3\n        /* \"#utility.yul\":3677:3695   */\n      add\n        /* \"#utility.yul\":3669:3695   */\n      swap1\n      pop\n        /* \"#utility.yul\":3705:3776   */\n      tag_106\n        /* \"#utility.yul\":3773:3774   */\n      0x00\n        /* \"#utility.yul\":3762:3771   */\n      dup4\n        /* \"#utility.yul\":3758:3775   */\n      add\n        /* \"#utility.yul\":3749:3755   */\n      dup5\n        /* \"#utility.yul\":3705:3776   */\n      tag_73\n      jump\t// in\n    tag_106:\n        /* \"#utility.yul\":3561:3783   */\n      swap3\n      swap2\n      pop\n      pop\n      jump\t// out\n        /* \"#utility.yul\":3789:4208   */\n    tag_32:\n        /* \"#utility.yul\":3955:3959   */\n      0x00\n        /* \"#utility.yul\":3993:3995   */\n      0x20\n        /* \"#utility.yul\":3982:3991   */\n      dup3\n        /* \"#utility.yul\":3978:3996   */\n      add\n        /* \"#utility.yul\":3970:3996   */\n      swap1\n      pop\n        /* \"#utility.yul\":4042:4051   */\n      dup2\n        /* \"#utility.yul\":4036:4040   */\n      dup2\n        /* \"#utility.yul\":4032:4052   */\n      sub\n        /* \"#utility.yul\":4028:4029   */\n      0x00\n        /* \"#utility.yul\":4017:4026   */\n      dup4\n        /* \"#utility.yul\":4013:4030   */\n      add\n        /* \"#utility.yul\":4006:4053   */\n      mstore\n        /* \"#utility.yul\":4070:4201   */\n      tag_108\n        /* \"#utility.yul\":4196:4200   */\n      dup2\n        /* \"#utility.yul\":4070:4201   */\n      tag_88\n      jump\t// in\n    tag_108:\n        /* \"#utility.yul\":4062:4201   */\n      swap1\n      pop\n        /* \"#utility.yul\":3789:4208   */\n      swap2\n      swap1\n      pop\n      jump\t// out\n        /* \"#utility.yul\":4214:4633   */\n    tag_39:\n        /* \"#utility.yul\":4380:4384   */\n      0x00\n        /* \"#utility.yul\":4418:4420   */\n      0x20\n        /* \"#utility.yul\":4407:4416   */\n      dup3\n        /* \"#utility.yul\":4403:4421   */\n      add\n        /* \"#utility.yul\":4395:4421   */\n      swap1\n      pop\n        /* \"#utility.yul\":4467:4476   */\n      dup2\n        /* \"#utility.yul\":4461:4465   */\n      dup2\n        /* \"#utility.yul\":4457:4477   */\n      sub\n        /* \"#utility.yul\":4453:4454   */\n      0x00\n        /* \"#utility.yul\":4442:4451   */\n      dup4\n        /* \"#utility.yul\":4438:4455   */\n      add\n        /* \"#utility.yul\":4431:4478   */\n      mstore\n        /* \"#utility.yul\":4495:4626   */\n      tag_110\n        /* \"#utility.yul\":4621:4625   */\n      dup2\n        /* \"#utility.yul\":4495:4626   */\n      tag_94\n      jump\t// in\n    tag_110:\n        /* \"#utility.yul\":4487:4626   */\n      swap1\n      pop\n        /* \"#utility.yul\":4214:4633   */\n      swap2\n      swap1\n      pop\n      jump\t// out\n        /* \"#utility.yul\":4720:4889   */\n    tag_91:\n        /* \"#utility.yul\":4804:4815   */\n      0x00\n        /* \"#utility.yul\":4838:4844   */\n      dup3\n        /* \"#utility.yul\":4833:4836   */\n      dup3\n        /* \"#utility.yul\":4826:4845   */\n      mstore\n        /* \"#utility.yul\":4878:4882   */\n      0x20\n        /* \"#utility.yul\":4873:4876   */\n      dup3\n        /* \"#utility.yul\":4869:4883   */\n      add\n        /* \"#utility.yul\":4854:4883   */\n      swap1\n      pop\n        /* \"#utility.yul\":4720:4889   */\n      swap3\n      swap2\n      pop\n      pop\n      jump\t// out\n        /* \"#utility.yul\":4895:5043   */\n    tag_80:\n        /* \"#utility.yul\":4997:5008   */\n      0x00\n        /* \"#utility.yul\":5034:5037   */\n      dup2\n        /* \"#utility.yul\":5019:5037   */\n      swap1\n      pop\n        /* \"#utility.yul\":4895:5043   */\n      swap3\n      swap2\n      pop\n      pop\n      jump\t// out\n        /* \"#utility.yul\":5049:5145   */\n    tag_115:\n        /* \"#utility.yul\":5086:5093   */\n      0x00\n        /* \"#utility.yul\":5115:5139   */\n      tag_117\n        /* \"#utility.yul\":5133:5138   */\n      dup3\n        /* \"#utility.yul\":5115:5139   */\n      tag_118\n      jump\t// in\n    tag_117:\n        /* \"#utility.yul\":5104:5139   */\n      swap1\n      pop\n        /* \"#utility.yul\":5049:5145   */\n      swap2\n      swap1\n      pop\n      jump\t// out\n        /* \"#utility.yul\":5151:5241   */\n    tag_72:\n        /* \"#utility.yul\":5185:5192   */\n      0x00\n        /* \"#utility.yul\":5228:5233   */\n      dup2\n        /* \"#utility.yul\":5221:5234   */\n      iszero\n        /* \"#utility.yul\":5214:5235   */\n      iszero\n        /* \"#utility.yul\":5203:5235   */\n      swap1\n      pop\n        /* \"#utility.yul\":5151:5241   */\n      swap2\n      swap1\n      pop\n      jump\t// out\n        /* \"#utility.yul\":5247:5324   */\n    tag_76:\n        /* \"#utility.yul\":5284:5291   */\n      0x00\n        /* \"#utility.yul\":5313:5318   */\n      dup2\n        /* \"#utility.yul\":5302:5318   */\n      swap1\n      pop\n        /* \"#utility.yul\":5247:5324   */\n      swap2\n      swap1\n      pop\n      jump\t// out\n        /* \"#utility.yul\":5330:5456   */\n    tag_118:\n        /* \"#utility.yul\":5367:5374   */\n      0x00\n        /* \"#utility.yul\":5407:5449   */\n      0xffffffffffffffffffffffffffffffffffffffff\n        /* \"#utility.yul\":5400:5405   */\n      dup3\n        /* \"#utility.yul\":5396:5450   */\n      and\n        /* \"#utility.yul\":5385:5450   */\n      swap1\n      pop\n        /* \"#utility.yul\":5330:5456   */\n      swap2\n      swap1\n      pop\n      jump\t// out\n        /* \"#utility.yul\":5585:5702   */\n    tag_66:\n        /* \"#utility.yul\":5694:5695   */\n      0x00\n        /* \"#utility.yul\":5691:5692   */\n      dup1\n        /* \"#utility.yul\":5684:5696   */\n      revert\n        /* \"#utility.yul\":5708:5862   */\n    tag_82:\n        /* \"#utility.yul\":5848:5854   */\n      0x5553455200000000000000000000000000000000000000000000000000000000\n        /* \"#utility.yul\":5844:5845   */\n      0x00\n        /* \"#utility.yul\":5836:5842   */\n      dup3\n        /* \"#utility.yul\":5832:5846   */\n      add\n        /* \"#utility.yul\":5825:5855   */\n      mstore\n        /* \"#utility.yul\":5708:5862   */\n      pop\n      jump\t// out\n        /* \"#utility.yul\":5868:6023   */\n    tag_87:\n        /* \"#utility.yul\":6008:6015   */\n      0x41444d494e000000000000000000000000000000000000000000000000000000\n        /* \"#utility.yul\":6004:6005   */\n      0x00\n        /* \"#utility.yul\":5996:6002   */\n      dup3\n        /* \"#utility.yul\":5992:6006   */\n      add\n        /* \"#utility.yul\":5985:6016   */\n      mstore\n        /* \"#utility.yul\":5868:6023   */\n      pop\n      jump\t// out\n        /* \"#utility.yul\":6029:6191   */\n    tag_93:\n        /* \"#utility.yul\":6169:6183   */\n      0x6e6f74206d616e6e616765720000000000000000000000000000000000000000\n        /* \"#utility.yul\":6165:6166   */\n      0x00\n        /* \"#utility.yul\":6157:6163   */\n      dup3\n        /* \"#utility.yul\":6153:6167   */\n      add\n        /* \"#utility.yul\":6146:6184   */\n      mstore\n        /* \"#utility.yul\":6029:6191   */\n      pop\n      jump\t// out\n        /* \"#utility.yul\":6197:6356   */\n    tag_98:\n        /* \"#utility.yul\":6337:6348   */\n      0x6e6f74206f776e65720000000000000000000000000000000000000000000000\n        /* \"#utility.yul\":6333:6334   */\n      0x00\n        /* \"#utility.yul\":6325:6331   */\n      dup3\n        /* \"#utility.yul\":6321:6335   */\n      add\n        /* \"#utility.yul\":6314:6349   */\n      mstore\n        /* \"#utility.yul\":6197:6356   */\n      pop\n      jump\t// out\n        /* \"#utility.yul\":6362:6484   */\n    tag_58:\n        /* \"#utility.yul\":6435:6459   */\n      tag_130\n        /* \"#utility.yul\":6453:6458   */\n      dup2\n        /* \"#utility.yul\":6435:6459   */\n      tag_115\n      jump\t// in\n    tag_130:\n        /* \"#utility.yul\":6428:6433   */\n      dup2\n        /* \"#utility.yul\":6425:6460   */\n      eq\n        /* \"#utility.yul\":6415:6478   */\n      tag_131\n      jumpi\n        /* \"#utility.yul\":6474:6475   */\n      0x00\n        /* \"#utility.yul\":6471:6472   */\n      dup1\n        /* \"#utility.yul\":6464:6476   */\n      revert\n        /* \"#utility.yul\":6415:6478   */\n    tag_131:\n        /* \"#utility.yul\":6362:6484   */\n      pop\n      jump\t// out\n        /* \"#utility.yul\":6490:6612   */\n    tag_62:\n        /* \"#utility.yul\":6563:6587   */\n      tag_133\n        /* \"#utility.yul\":6581:6586   */\n      dup2\n        /* \"#utility.yul\":6563:6587   */\n      tag_76\n      jump\t// in\n    tag_133:\n        /* \"#utility.yul\":6556:6561   */\n      dup2\n        /* \"#utility.yul\":6553:6588   */\n      eq\n        /* \"#utility.yul\":6543:6606   */\n      tag_134\n      jumpi\n        /* \"#utility.yul\":6602:6603   */\n      0x00\n        /* \"#utility.yul\":6599:6600   */\n      dup1\n        /* \"#utility.yul\":6592:6604   */\n      revert\n        /* \"#utility.yul\":6543:6606   */\n    tag_134:\n        /* \"#utility.yul\":6490:6612   */\n      pop\n      jump\t// out\n\n    auxdata: 0xa2646970667358221220b16b7de0df12e2da774a1eef7a5f59f3caec68f8a2de91906f74414ff6d10b8464736f6c63430008070033\n}\n",
				"bytecode": {
					"linkReferences": {},
					"object": "608060405234801561001057600080fd5b5033600160006101000a81548173ffffffffffffffffffffffffffffffffffffffff021916908373ffffffffffffffffffffffffffffffffffffffff1602179055506100866040516020016100649061015e565b604051602081830303815290604052805190602001203361008b60201b60201c565b6101a7565b600160008084815260200190815260200160002060008373ffffffffffffffffffffffffffffffffffffffff1673ffffffffffffffffffffffffffffffffffffffff16815260200190815260200160002060006101000a81548160ff0219169083151502179055508073ffffffffffffffffffffffffffffffffffffffff16827f5a06360d65acf95e98445dc834f205063424c636e65418d928cdfabc33a9539960405160405180910390a35050565b6000610148600583610173565b91506101538261017e565b600582019050919050565b60006101698261013b565b9150819050919050565b600081905092915050565b7f41444d494e000000000000000000000000000000000000000000000000000000600082015250565b6108be806101b66000396000f3fe608060405234801561001057600080fd5b50600436106100575760003560e01c80632f2ff15d1461005c5780633d86e63514610078578063d547741f14610096578063e3389fee146100b2578063f8fc08b9146100d0575b600080fd5b610076600480360381019061007191906105c3565b610100565b005b6100806101d0565b60405161008d91906106f2565b60405180910390f35b6100b060048036038101906100ab91906105c3565b61028c565b005b6100ba6103fe565b6040516100c791906106f2565b60405180910390f35b6100ea60048036038101906100e591906105c3565b6104ba565b6040516100f791906106d7565b60405180910390f35b60405160200161010f906106c2565b6040516020818303038152906040528051906020012060008082815260200190815260200160002060003373ffffffffffffffffffffffffffffffffffffffff1673ffffffffffffffffffffffffffffffffffffffff16815260200190815260200160002060009054906101000a900460ff166101c1576040517f08c379a00000000000000000000000000000000000000000000000000000000081526004016101b89061070d565b60405180910390fd5b6101cb83836104e9565b505050565b6000600160009054906101000a900473ffffffffffffffffffffffffffffffffffffffff1673ffffffffffffffffffffffffffffffffffffffff163373ffffffffffffffffffffffffffffffffffffffff1614610262576040517f08c379a00000000000000000000000000000000000000000000000000000000081526004016102599061072d565b60405180910390fd5b604051602001610271906106c2565b60405160208183030381529060405280519060200120905090565b60405160200161029b906106c2565b6040516020818303038152906040528051906020012060008082815260200190815260200160002060003373ffffffffffffffffffffffffffffffffffffffff1673ffffffffffffffffffffffffffffffffffffffff16815260200190815260200160002060009054906101000a900460ff1661034d576040517f08c379a00000000000000000000000000000000000000000000000000000000081526004016103449061070d565b60405180910390fd5b600080600085815260200190815260200160002060008473ffffffffffffffffffffffffffffffffffffffff1673ffffffffffffffffffffffffffffffffffffffff16815260200190815260200160002060006101000a81548160ff0219169083151502179055508173ffffffffffffffffffffffffffffffffffffffff16837f76e6093c136cd7faa5a6d92b2b633f3b4595abd4a529b7a13917398355fea69460405160405180910390a3505050565b6000600160009054906101000a900473ffffffffffffffffffffffffffffffffffffffff1673ffffffffffffffffffffffffffffffffffffffff163373ffffffffffffffffffffffffffffffffffffffff1614610490576040517f08c379a00000000000000000000000000000000000000000000000000000000081526004016104879061072d565b60405180910390fd5b60405160200161049f906106ad565b60405160208183030381529060405280519060200120905090565b60006020528160005260406000206020528060005260406000206000915091509054906101000a900460ff1681565b600160008084815260200190815260200160002060008373ffffffffffffffffffffffffffffffffffffffff1673ffffffffffffffffffffffffffffffffffffffff16815260200190815260200160002060006101000a81548160ff0219169083151502179055508073ffffffffffffffffffffffffffffffffffffffff16827f5a06360d65acf95e98445dc834f205063424c636e65418d928cdfabc33a9539960405160405180910390a35050565b6000813590506105a88161085a565b92915050565b6000813590506105bd81610871565b92915050565b600080604083850312156105da576105d96107b1565b5b60006105e8858286016105ae565b92505060206105f985828601610599565b9150509250929050565b61060c8161077b565b82525050565b61061b81610787565b82525050565b600061062e60048361075e565b9150610639826107b6565b600482019050919050565b600061065160058361075e565b915061065c826107df565b600582019050919050565b6000610674600c8361074d565b915061067f82610808565b602082019050919050565b600061069760098361074d565b91506106a282610831565b602082019050919050565b60006106b882610621565b9150819050919050565b60006106cd82610644565b9150819050919050565b60006020820190506106ec6000830184610603565b92915050565b60006020820190506107076000830184610612565b92915050565b6000602082019050818103600083015261072681610667565b9050919050565b600060208201905081810360008301526107468161068a565b9050919050565b600082825260208201905092915050565b600081905092915050565b600061077482610791565b9050919050565b60008115159050919050565b6000819050919050565b600073ffffffffffffffffffffffffffffffffffffffff82169050919050565b600080fd5b7f5553455200000000000000000000000000000000000000000000000000000000600082015250565b7f41444d494e000000000000000000000000000000000000000000000000000000600082015250565b7f6e6f74206d616e6e616765720000000000000000000000000000000000000000600082015250565b7f6e6f74206f776e65720000000000000000000000000000000000000000000000600082015250565b61086381610769565b811461086e57600080fd5b50565b61087a81610787565b811461088557600080fd5b5056fea2646970667358221220b16b7de0df12e2da774a1eef7a5f59f3caec68f8a2de91906f74414ff6d10b8464736f6c63430008070033",
					"opcodes": "PUSH1 0x80 PUSH1 0x40 MSTORE CALLVALUE DUP1 ISZERO PUSH2 0x10 JUMPI PUSH1 0x0 DUP1 REVERT JUMPDEST POP CALLER PUSH1 0x1 PUSH1 0x0 PUSH2 0x100 EXP DUP2 SLOAD DUP2 PUSH20 0xFFFFFFFFFFFFFFFFFFFFFFFFFFFFFFFFFFFFFFFF MUL NOT AND SWAP1 DUP4 PUSH20 0xFFFFFFFFFFFFFFFFFFFFFFFFFFFFFFFFFFFFFFFF AND MUL OR SWAP1 SSTORE POP PUSH2 0x86 PUSH1 0x40 MLOAD PUSH1 0x20 ADD PUSH2 0x64 SWAP1 PUSH2 0x15E JUMP JUMPDEST PUSH1 0x40 MLOAD PUSH1 0x20 DUP2 DUP4 SUB SUB DUP2 MSTORE SWAP1 PUSH1 0x40 MSTORE DUP1 MLOAD SWAP1 PUSH1 0x20 ADD KECCAK256 CALLER PUSH2 0x8B PUSH1 0x20 SHL PUSH1 0x20 SHR JUMP JUMPDEST PUSH2 0x1A7 JUMP JUMPDEST PUSH1 0x1 PUSH1 0x0 DUP1 DUP5 DUP2 MSTORE PUSH1 0x20 ADD SWAP1 DUP2 MSTORE PUSH1 0x20 ADD PUSH1 0x0 KECCAK256 PUSH1 0x0 DUP4 PUSH20 0xFFFFFFFFFFFFFFFFFFFFFFFFFFFFFFFFFFFFFFFF AND PUSH20 0xFFFFFFFFFFFFFFFFFFFFFFFFFFFFFFFFFFFFFFFF AND DUP2 MSTORE PUSH1 0x20 ADD SWAP1 DUP2 MSTORE PUSH1 0x20 ADD PUSH1 0x0 KECCAK256 PUSH1 0x0 PUSH2 0x100 EXP DUP2 SLOAD DUP2 PUSH1 0xFF MUL NOT AND SWAP1 DUP4 ISZERO ISZERO MUL OR SWAP1 SSTORE POP DUP1 PUSH20 0xFFFFFFFFFFFFFFFFFFFFFFFFFFFFFFFFFFFFFFFF AND DUP3 PUSH32 0x5A06360D65ACF95E98445DC834F205063424C636E65418D928CDFABC33A95399 PUSH1 0x40 MLOAD PUSH1 0x40 MLOAD DUP1 SWAP2 SUB SWAP1 LOG3 POP POP JUMP JUMPDEST PUSH1 0x0 PUSH2 0x148 PUSH1 0x5 DUP4 PUSH2 0x173 JUMP JUMPDEST SWAP2 POP PUSH2 0x153 DUP3 PUSH2 0x17E JUMP JUMPDEST PUSH1 0x5 DUP3 ADD SWAP1 POP SWAP2 SWAP1 POP JUMP JUMPDEST PUSH1 0x0 PUSH2 0x169 DUP3 PUSH2 0x13B JUMP JUMPDEST SWAP2 POP DUP2 SWAP1 POP SWAP2 SWAP1 POP JUMP JUMPDEST PUSH1 0x0 DUP2 SWAP1 POP SWAP3 SWAP2 POP POP JUMP JUMPDEST PUSH32 0x41444D494E000000000000000000000000000000000000000000000000000000 PUSH1 0x0 DUP3 ADD MSTORE POP JUMP JUMPDEST PUSH2 0x8BE DUP1 PUSH2 0x1B6 PUSH1 0x0 CODECOPY PUSH1 0x0 RETURN INVALID PUSH1 0x80 PUSH1 0x40 MSTORE CALLVALUE DUP1 ISZERO PUSH2 0x10 JUMPI PUSH1 0x0 DUP1 REVERT JUMPDEST POP PUSH1 0x4 CALLDATASIZE LT PUSH2 0x57 JUMPI PUSH1 0x0 CALLDATALOAD PUSH1 0xE0 SHR DUP1 PUSH4 0x2F2FF15D EQ PUSH2 0x5C JUMPI DUP1 PUSH4 0x3D86E635 EQ PUSH2 0x78 JUMPI DUP1 PUSH4 0xD547741F EQ PUSH2 0x96 JUMPI DUP1 PUSH4 0xE3389FEE EQ PUSH2 0xB2 JUMPI DUP1 PUSH4 0xF8FC08B9 EQ PUSH2 0xD0 JUMPI JUMPDEST PUSH1 0x0 DUP1 REVERT JUMPDEST PUSH2 0x76 PUSH1 0x4 DUP1 CALLDATASIZE SUB DUP2 ADD SWAP1 PUSH2 0x71 SWAP2 SWAP1 PUSH2 0x5C3 JUMP JUMPDEST PUSH2 0x100 JUMP JUMPDEST STOP JUMPDEST PUSH2 0x80 PUSH2 0x1D0 JUMP JUMPDEST PUSH1 0x40 MLOAD PUSH2 0x8D SWAP2 SWAP1 PUSH2 0x6F2 JUMP JUMPDEST PUSH1 0x40 MLOAD DUP1 SWAP2 SUB SWAP1 RETURN JUMPDEST PUSH2 0xB0 PUSH1 0x4 DUP1 CALLDATASIZE SUB DUP2 ADD SWAP1 PUSH2 0xAB SWAP2 SWAP1 PUSH2 0x5C3 JUMP JUMPDEST PUSH2 0x28C JUMP JUMPDEST STOP JUMPDEST PUSH2 0xBA PUSH2 0x3FE JUMP JUMPDEST PUSH1 0x40 MLOAD PUSH2 0xC7 SWAP2 SWAP1 PUSH2 0x6F2 JUMP JUMPDEST PUSH1 0x40 MLOAD DUP1 SWAP2 SUB SWAP1 RETURN JUMPDEST PUSH2 0xEA PUSH1 0x4 DUP1 CALLDATASIZE SUB DUP2 ADD SWAP1 PUSH2 0xE5 SWAP2 SWAP1 PUSH2 0x5C3 JUMP JUMPDEST PUSH2 0x4BA JUMP JUMPDEST PUSH1 0x40 MLOAD PUSH2 0xF7 SWAP2 SWAP1 PUSH2 0x6D7 JUMP JUMPDEST PUSH1 0x40 MLOAD DUP1 SWAP2 SUB SWAP1 RETURN JUMPDEST PUSH1 0x40 MLOAD PUSH1 0x20 ADD PUSH2 0x10F SWAP1 PUSH2 0x6C2 JUMP JUMPDEST PUSH1 0x40 MLOAD PUSH1 0x20 DUP2 DUP4 SUB SUB DUP2 MSTORE SWAP1 PUSH1 0x40 MSTORE DUP1 MLOAD SWAP1 PUSH1 0x20 ADD KECCAK256 PUSH1 0x0 DUP1 DUP3 DUP2 MSTORE PUSH1 0x20 ADD SWAP1 DUP2 MSTORE PUSH1 0x20 ADD PUSH1 0x0 KECCAK256 PUSH1 0x0 CALLER PUSH20 0xFFFFFFFFFFFFFFFFFFFFFFFFFFFFFFFFFFFFFFFF AND PUSH20 0xFFFFFFFFFFFFFFFFFFFFFFFFFFFFFFFFFFFFFFFF AND DUP2 MSTORE PUSH1 0x20 ADD SWAP1 DUP2 MSTORE PUSH1 0x20 ADD PUSH1 0x0 KECCAK256 PUSH1 0x0 SWAP1 SLOAD SWAP1 PUSH2 0x100 EXP SWAP1 DIV PUSH1 0xFF AND PUSH2 0x1C1 JUMPI PUSH1 0x40 MLOAD PUSH32 0x8C379A000000000000000000000000000000000000000000000000000000000 DUP2 MSTORE PUSH1 0x4 ADD PUSH2 0x1B8 SWAP1 PUSH2 0x70D JUMP JUMPDEST PUSH1 0x40 MLOAD DUP1 SWAP2 SUB SWAP1 REVERT JUMPDEST PUSH2 0x1CB DUP4 DUP4 PUSH2 0x4E9 JUMP JUMPDEST POP POP POP JUMP JUMPDEST PUSH1 0x0 PUSH1 0x1 PUSH1 0x0 SWAP1 SLOAD SWAP1 PUSH2 0x100 EXP SWAP1 DIV PUSH20 0xFFFFFFFFFFFFFFFFFFFFFFFFFFFFFFFFFFFFFFFF AND PUSH20 0xFFFFFFFFFFFFFFFFFFFFFFFFFFFFFFFFFFFFFFFF AND CALLER PUSH20 0xFFFFFFFFFFFFFFFFFFFFFFFFFFFFFFFFFFFFFFFF AND EQ PUSH2 0x262 JUMPI PUSH1 0x40 MLOAD PUSH32 0x8C379A000000000000000000000000000000000000000000000000000000000 DUP2 MSTORE PUSH1 0x4 ADD PUSH2 0x259 SWAP1 PUSH2 0x72D JUMP JUMPDEST PUSH1 0x40 MLOAD DUP1 SWAP2 SUB SWAP1 REVERT JUMPDEST PUSH1 0x40 MLOAD PUSH1 0x20 ADD PUSH2 0x271 SWAP1 PUSH2 0x6C2 JUMP JUMPDEST PUSH1 0x40 MLOAD PUSH1 0x20 DUP2 DUP4 SUB SUB DUP2 MSTORE SWAP1 PUSH1 0x40 MSTORE DUP1 MLOAD SWAP1 PUSH1 0x20 ADD KECCAK256 SWAP1 POP SWAP1 JUMP JUMPDEST PUSH1 0x40 MLOAD PUSH1 0x20 ADD PUSH2 0x29B SWAP1 PUSH2 0x6C2 JUMP JUMPDEST PUSH1 0x40 MLOAD PUSH1 0x20 DUP2 DUP4 SUB SUB DUP2 MSTORE SWAP1 PUSH1 0x40 MSTORE DUP1 MLOAD SWAP1 PUSH1 0x20 ADD KECCAK256 PUSH1 0x0 DUP1 DUP3 DUP2 MSTORE PUSH1 0x20 ADD SWAP1 DUP2 MSTORE PUSH1 0x20 ADD PUSH1 0x0 KECCAK256 PUSH1 0x0 CALLER PUSH20 0xFFFFFFFFFFFFFFFFFFFFFFFFFFFFFFFFFFFFFFFF AND PUSH20 0xFFFFFFFFFFFFFFFFFFFFFFFFFFFFFFFFFFFFFFFF AND DUP2 MSTORE PUSH1 0x20 ADD SWAP1 DUP2 MSTORE PUSH1 0x20 ADD PUSH1 0x0 KECCAK256 PUSH1 0x0 SWAP1 SLOAD SWAP1 PUSH2 0x100 EXP SWAP1 DIV PUSH1 0xFF AND PUSH2 0x34D JUMPI PUSH1 0x40 MLOAD PUSH32 0x8C379A000000000000000000000000000000000000000000000000000000000 DUP2 MSTORE PUSH1 0x4 ADD PUSH2 0x344 SWAP1 PUSH2 0x70D JUMP JUMPDEST PUSH1 0x40 MLOAD DUP1 SWAP2 SUB SWAP1 REVERT JUMPDEST PUSH1 0x0 DUP1 PUSH1 0x0 DUP6 DUP2 MSTORE PUSH1 0x20 ADD SWAP1 DUP2 MSTORE PUSH1 0x20 ADD PUSH1 0x0 KECCAK256 PUSH1 0x0 DUP5 PUSH20 0xFFFFFFFFFFFFFFFFFFFFFFFFFFFFFFFFFFFFFFFF AND PUSH20 0xFFFFFFFFFFFFFFFFFFFFFFFFFFFFFFFFFFFFFFFF AND DUP2 MSTORE PUSH1 0x20 ADD SWAP1 DUP2 MSTORE PUSH1 0x20 ADD PUSH1 0x0 KECCAK256 PUSH1 0x0 PUSH2 0x100 EXP DUP2 SLOAD DUP2 PUSH1 0xFF MUL NOT AND SWAP1 DUP4 ISZERO ISZERO MUL OR SWAP1 SSTORE POP DUP2 PUSH20 0xFFFFFFFFFFFFFFFFFFFFFFFFFFFFFFFFFFFFFFFF AND DUP4 PUSH32 0x76E6093C136CD7FAA5A6D92B2B633F3B4595ABD4A529B7A13917398355FEA694 PUSH1 0x40 MLOAD PUSH1 0x40 MLOAD DUP1 SWAP2 SUB SWAP1 LOG3 POP POP POP JUMP JUMPDEST PUSH1 0x0 PUSH1 0x1 PUSH1 0x0 SWAP1 SLOAD SWAP1 PUSH2 0x100 EXP SWAP1 DIV PUSH20 0xFFFFFFFFFFFFFFFFFFFFFFFFFFFFFFFFFFFFFFFF AND PUSH20 0xFFFFFFFFFFFFFFFFFFFFFFFFFFFFFFFFFFFFFFFF AND CALLER PUSH20 0xFFFFFFFFFFFFFFFFFFFFFFFFFFFFFFFFFFFFFFFF AND EQ PUSH2 0x490 JUMPI PUSH1 0x40 MLOAD PUSH32 0x8C379A000000000000000000000000000000000000000000000000000000000 DUP2 MSTORE PUSH1 0x4 ADD PUSH2 0x487 SWAP1 PUSH2 0x72D JUMP JUMPDEST PUSH1 0x40 MLOAD DUP1 SWAP2 SUB SWAP1 REVERT JUMPDEST PUSH1 0x40 MLOAD PUSH1 0x20 ADD PUSH2 0x49F SWAP1 PUSH2 0x6AD JUMP JUMPDEST PUSH1 0x40 MLOAD PUSH1 0x20 DUP2 DUP4 SUB SUB DUP2 MSTORE SWAP1 PUSH1 0x40 MSTORE DUP1 MLOAD SWAP1 PUSH1 0x20 ADD KECCAK256 SWAP1 POP SWAP1 JUMP JUMPDEST PUSH1 0x0 PUSH1 0x20 MSTORE DUP2 PUSH1 0x0 MSTORE PUSH1 0x40 PUSH1 0x0 KECCAK256 PUSH1 0x20 MSTORE DUP1 PUSH1 0x0 MSTORE PUSH1 0x40 PUSH1 0x0 KECCAK256 PUSH1 0x0 SWAP2 POP SWAP2 POP SWAP1 SLOAD SWAP1 PUSH2 0x100 EXP SWAP1 DIV PUSH1 0xFF AND DUP2 JUMP JUMPDEST PUSH1 0x1 PUSH1 0x0 DUP1 DUP5 DUP2 MSTORE PUSH1 0x20 ADD SWAP1 DUP2 MSTORE PUSH1 0x20 ADD PUSH1 0x0 KECCAK256 PUSH1 0x0 DUP4 PUSH20 0xFFFFFFFFFFFFFFFFFFFFFFFFFFFFFFFFFFFFFFFF AND PUSH20 0xFFFFFFFFFFFFFFFFFFFFFFFFFFFFFFFFFFFFFFFF AND DUP2 MSTORE PUSH1 0x20 ADD SWAP1 DUP2 MSTORE PUSH1 0x20 ADD PUSH1 0x0 KECCAK256 PUSH1 0x0 PUSH2 0x100 EXP DUP2 SLOAD DUP2 PUSH1 0xFF MUL NOT AND SWAP1 DUP4 ISZERO ISZERO MUL OR SWAP1 SSTORE POP DUP1 PUSH20 0xFFFFFFFFFFFFFFFFFFFFFFFFFFFFFFFFFFFFFFFF AND DUP3 PUSH32 0x5A06360D65ACF95E98445DC834F205063424C636E65418D928CDFABC33A95399 PUSH1 0x40 MLOAD PUSH1 0x40 MLOAD DUP1 SWAP2 SUB SWAP1 LOG3 POP POP JUMP JUMPDEST PUSH1 0x0 DUP2 CALLDATALOAD SWAP1 POP PUSH2 0x5A8 DUP2 PUSH2 0x85A JUMP JUMPDEST SWAP3 SWAP2 POP POP JUMP JUMPDEST PUSH1 0x0 DUP2 CALLDATALOAD SWAP1 POP PUSH2 0x5BD DUP2 PUSH2 0x871 JUMP JUMPDEST SWAP3 SWAP2 POP POP JUMP JUMPDEST PUSH1 0x0 DUP1 PUSH1 0x40 DUP4 DUP6 SUB SLT ISZERO PUSH2 0x5DA JUMPI PUSH2 0x5D9 PUSH2 0x7B1 JUMP JUMPDEST JUMPDEST PUSH1 0x0 PUSH2 0x5E8 DUP6 DUP3 DUP7 ADD PUSH2 0x5AE JUMP JUMPDEST SWAP3 POP POP PUSH1 0x20 PUSH2 0x5F9 DUP6 DUP3 DUP7 ADD PUSH2 0x599 JUMP JUMPDEST SWAP2 POP POP SWAP3 POP SWAP3 SWAP1 POP JUMP JUMPDEST PUSH2 0x60C DUP2 PUSH2 0x77B JUMP JUMPDEST DUP3 MSTORE POP POP JUMP JUMPDEST PUSH2 0x61B DUP2 PUSH2 0x787 JUMP JUMPDEST DUP3 MSTORE POP POP JUMP JUMPDEST PUSH1 0x0 PUSH2 0x62E PUSH1 0x4 DUP4 PUSH2 0x75E JUMP JUMPDEST SWAP2 POP PUSH2 0x639 DUP3 PUSH2 0x7B6 JUMP JUMPDEST PUSH1 0x4 DUP3 ADD SWAP1 POP SWAP2 SWAP1 POP JUMP JUMPDEST PUSH1 0x0 PUSH2 0x651 PUSH1 0x5 DUP4 PUSH2 0x75E JUMP JUMPDEST SWAP2 POP PUSH2 0x65C DUP3 PUSH2 0x7DF JUMP JUMPDEST PUSH1 0x5 DUP3 ADD SWAP1 POP SWAP2 SWAP1 POP JUMP JUMPDEST PUSH1 0x0 PUSH2 0x674 PUSH1 0xC DUP4 PUSH2 0x74D JUMP JUMPDEST SWAP2 POP PUSH2 0x67F DUP3 PUSH2 0x808 JUMP JUMPDEST PUSH1 0x20 DUP3 ADD SWAP1 POP SWAP2 SWAP1 POP JUMP JUMPDEST PUSH1 0x0 PUSH2 0x697 PUSH1 0x9 DUP4 PUSH2 0x74D JUMP JUMPDEST SWAP2 POP PUSH2 0x6A2 DUP3 PUSH2 0x831 JUMP JUMPDEST PUSH1 0x20 DUP3 ADD SWAP1 POP SWAP2 SWAP1 POP JUMP JUMPDEST PUSH1 0x0 PUSH2 0x6B8 DUP3 PUSH2 0x621 JUMP JUMPDEST SWAP2 POP DUP2 SWAP1 POP SWAP2 SWAP1 POP JUMP JUMPDEST PUSH1 0x0 PUSH2 0x6CD DUP3 PUSH2 0x644 JUMP JUMPDEST SWAP2 POP DUP2 SWAP1 POP SWAP2 SWAP1 POP JUMP JUMPDEST PUSH1 0x0 PUSH1 0x20 DUP3 ADD SWAP1 POP PUSH2 0x6EC PUSH1 0x0 DUP4 ADD DUP5 PUSH2 0x603 JUMP JUMPDEST SWAP3 SWAP2 POP POP JUMP JUMPDEST PUSH1 0x0 PUSH1 0x20 DUP3 ADD SWAP1 POP PUSH2 0x707 PUSH1 0x0 DUP4 ADD DUP5 PUSH2 0x612 JUMP JUMPDEST SWAP3 SWAP2 POP POP JUMP JUMPDEST PUSH1 0x0 PUSH1 0x20 DUP3 ADD SWAP1 POP DUP2 DUP2 SUB PUSH1 0x0 DUP4 ADD MSTORE PUSH2 0x726 DUP2 PUSH2 0x667 JUMP JUMPDEST SWAP1 POP SWAP2 SWAP1 POP JUMP JUMPDEST PUSH1 0x0 PUSH1 0x20 DUP3 ADD SWAP1 POP DUP2 DUP2 SUB PUSH1 0x0 DUP4 ADD MSTORE PUSH2 0x746 DUP2 PUSH2 0x68A JUMP JUMPDEST SWAP1 POP SWAP2 SWAP1 POP JUMP JUMPDEST PUSH1 0x0 DUP3 DUP3 MSTORE PUSH1 0x20 DUP3 ADD SWAP1 POP SWAP3 SWAP2 POP POP JUMP JUMPDEST PUSH1 0x0 DUP2 SWAP1 POP SWAP3 SWAP2 POP POP JUMP JUMPDEST PUSH1 0x0 PUSH2 0x774 DUP3 PUSH2 0x791 JUMP JUMPDEST SWAP1 POP SWAP2 SWAP1 POP JUMP JUMPDEST PUSH1 0x0 DUP2 ISZERO ISZERO SWAP1 POP SWAP2 SWAP1 POP JUMP JUMPDEST PUSH1 0x0 DUP2 SWAP1 POP SWAP2 SWAP1 POP JUMP JUMPDEST PUSH1 0x0 PUSH20 0xFFFFFFFFFFFFFFFFFFFFFFFFFFFFFFFFFFFFFFFF DUP3 AND SWAP1 POP SWAP2 SWAP1 POP JUMP JUMPDEST PUSH1 0x0 DUP1 REVERT JUMPDEST PUSH32 0x5553455200000000000000000000000000000000000000000000000000000000 PUSH1 0x0 DUP3 ADD MSTORE POP JUMP JUMPDEST PUSH32 0x41444D494E000000000000000000000000000000000000000000000000000000 PUSH1 0x0 DUP3 ADD MSTORE POP JUMP JUMPDEST PUSH32 0x6E6F74206D616E6E616765720000000000000000000000000000000000000000 PUSH1 0x0 DUP3 ADD MSTORE POP JUMP JUMPDEST PUSH32 0x6E6F74206F776E65720000000000000000000000000000000000000000000000 PUSH1 0x0 DUP3 ADD MSTORE POP JUMP JUMPDEST PUSH2 0x863 DUP2 PUSH2 0x769 JUMP JUMPDEST DUP2 EQ PUSH2 0x86E JUMPI PUSH1 0x0 DUP1 REVERT JUMPDEST POP JUMP JUMPDEST PUSH2 0x87A DUP2 PUSH2 0x787 JUMP JUMPDEST DUP2 EQ PUSH2 0x885 JUMPI PUSH1 0x0 DUP1 REVERT JUMPDEST POP JUMP INVALID LOG2 PUSH5 0x6970667358 0x22 SLT KECCAK256 0xB1 PUSH12 0x7DE0DF12E2DA774A1EEF7A5F MSIZE RETURN 0xCA 0xEC PUSH9 0xF8A2DE91906F74414F 0xF6 0xD1 SIGNEXTEND DUP5 PUSH5 0x736F6C6343 STOP ADDMOD SMOD STOP CALLER "
				},
				"gasEstimates": {
					"creation": {
						"codeDepositCost": "447600",
						"executionCost": "infinite",
						"totalCost": "infinite"
					},
					"external": {
						"getADMIN()": "2812",
						"getUSER()": "2856",
						"grantRole(bytes32,address)": "29247",
						"revokeRole(bytes32,address)": "29257",
						"roles(bytes32,address)": "3153"
					},
					"internal": {
						"_grantRole(bytes32,address)": "25996"
					}
				},
				"methodIdentifiers": {
					"getADMIN()": "3d86e635",
					"getUSER()": "e3389fee",
					"grantRole(bytes32,address)": "2f2ff15d",
					"revokeRole(bytes32,address)": "d547741f",
					"roles(bytes32,address)": "f8fc08b9"
				}
			},
			"storageLayout": {
				"storage": [
					{
						"astId": 19,
						"contract": "code9999/practice2/1.sol:controlle",
						"label": "roles",
						"offset": 0,
						"slot": "0",
						"type": "t_mapping(t_bytes32,t_mapping(t_address,t_bool))"
					},
					{
						"astId": 37,
						"contract": "code9999/practice2/1.sol:controlle",
						"label": "owner",
						"offset": 0,
						"slot": "1",
						"type": "t_address"
					}
				],
				"types": {
					"t_address": {
						"encoding": "inplace",
						"label": "address",
						"numberOfBytes": "20"
					},
					"t_bool": {
						"encoding": "inplace",
						"label": "bool",
						"numberOfBytes": "1"
					},
					"t_bytes32": {
						"encoding": "inplace",
						"label": "bytes32",
						"numberOfBytes": "32"
					},
					"t_mapping(t_address,t_bool)": {
						"encoding": "mapping",
						"key": "t_address",
						"label": "mapping(address => bool)",
						"numberOfBytes": "32",
						"value": "t_bool"
					},
					"t_mapping(t_bytes32,t_mapping(t_address,t_bool))": {
						"encoding": "mapping",
						"key": "t_bytes32",
						"label": "mapping(bytes32 => mapping(address => bool))",
						"numberOfBytes": "32",
						"value": "t_mapping(t_address,t_bool)"
					}
				}
			},
			"userdoc": {
				"kind": "user",
				"methods": {},
				"version": 1
			}
		}
	}
}