{
	"study/chapter04/ty.sol": {
		"FeedConsumer": {
			"abi": [
				{
					"inputs": [],
					"name": "flag",
					"outputs": [
						{
							"internalType": "uint256",
							"name": "",
							"type": "uint256"
						}
					],
					"stateMutability": "view",
					"type": "function"
				},
				{
					"inputs": [
						{
							"internalType": "address",
							"name": "token",
							"type": "address"
						}
					],
					"name": "rate",
					"outputs": [],
					"stateMutability": "nonpayable",
					"type": "function"
				}
			],
			"devdoc": {
				"kind": "dev",
				"methods": {},
				"version": 1
			},
			"evm": {
				"assembly": "    /* \"study/chapter04/ty.sol\":140:741  contract FeedConsumer {... */\n  mstore(0x40, 0x80)\n  callvalue\n  dup1\n  iszero\n  tag_1\n  jumpi\n  0x00\n  dup1\n  revert\ntag_1:\n  pop\n  dataSize(sub_0)\n  dup1\n  dataOffset(sub_0)\n  0x00\n  codecopy\n  0x00\n  return\nstop\n\nsub_0: assembly {\n        /* \"study/chapter04/ty.sol\":140:741  contract FeedConsumer {... */\n      mstore(0x40, 0x80)\n      callvalue\n      dup1\n      iszero\n      tag_1\n      jumpi\n      0x00\n      dup1\n      revert\n    tag_1:\n      pop\n      jumpi(tag_2, lt(calldatasize, 0x04))\n      shr(0xe0, calldataload(0x00))\n      dup1\n      0x0ba9d8ca\n      eq\n      tag_3\n      jumpi\n      dup1\n      0x890eba68\n      eq\n      tag_4\n      jumpi\n    tag_2:\n      0x00\n      dup1\n      revert\n        /* \"study/chapter04/ty.sol\":230:739  function rate(address token) public {... */\n    tag_3:\n      tag_5\n      0x04\n      dup1\n      calldatasize\n      sub\n      dup2\n      add\n      swap1\n      tag_6\n      swap2\n      swap1\n      tag_7\n      jump\t// in\n    tag_6:\n      tag_8\n      jump\t// in\n    tag_5:\n      stop\n        /* \"study/chapter04/ty.sol\":208:224  uint public flag */\n    tag_4:\n      tag_9\n      tag_10\n      jump\t// in\n    tag_9:\n      mload(0x40)\n      tag_11\n      swap2\n      swap1\n      tag_12\n      jump\t// in\n    tag_11:\n      mload(0x40)\n      dup1\n      swap2\n      sub\n      swap1\n      return\n        /* \"study/chapter04/ty.sol\":230:739  function rate(address token) public {... */\n    tag_8:\n        /* \"study/chapter04/ty.sol\":361:363  10 */\n      0x0a\n        /* \"study/chapter04/ty.sol\":348:358  errorCount */\n      sload(0x01)\n        /* \"study/chapter04/ty.sol\":348:363  errorCount < 10 */\n      lt\n        /* \"study/chapter04/ty.sol\":340:364  require(errorCount < 10) */\n      tag_14\n      jumpi\n      0x00\n      dup1\n      revert\n    tag_14:\n        /* \"study/chapter04/ty.sol\":378:382  feed */\n      0x00\n      dup1\n      sload\n      swap1\n      0x0100\n      exp\n      swap1\n      div\n      0xffffffffffffffffffffffffffffffffffffffff\n      and\n        /* \"study/chapter04/ty.sol\":378:390  feed.getData */\n      0xffffffffffffffffffffffffffffffffffffffff\n      and\n      0x38266b22\n        /* \"study/chapter04/ty.sol\":391:396  token */\n      dup3\n        /* \"study/chapter04/ty.sol\":378:397  feed.getData(token) */\n      mload(0x40)\n      dup3\n      0xffffffff\n      and\n      0xe0\n      shl\n      dup2\n      mstore\n      0x04\n      add\n      tag_15\n      swap2\n      swap1\n      tag_16\n      jump\t// in\n    tag_15:\n      0x20\n      mload(0x40)\n      dup1\n      dup4\n      sub\n      dup2\n      0x00\n      dup8\n      gas\n      call\n      swap3\n      pop\n      pop\n      pop\n      dup1\n      iszero\n      tag_17\n      jumpi\n      pop\n      mload(0x40)\n      returndatasize\n      not(0x1f)\n      0x1f\n      dup3\n      add\n      and\n      dup3\n      add\n      dup1\n      0x40\n      mstore\n      pop\n      dup2\n      add\n      swap1\n      tag_18\n      swap2\n      swap1\n      tag_19\n      jump\t// in\n    tag_18:\n      0x01\n    tag_17:\n        /* \"study/chapter04/ty.sol\":374:733  try feed.getData(token) returns (uint v) {... */\n      tag_20\n      jumpi\n      tag_24\n      tag_25\n      jump\t// in\n    tag_24:\n      dup1\n      0x08c379a0\n      sub\n      tag_23\n      jumpi\n      pop\n      tag_26\n      tag_27\n      jump\t// in\n    tag_26:\n      dup1\n      tag_28\n      jumpi\n      pop\n      jump(tag_22)\n    tag_28:\n        /* \"study/chapter04/ty.sol\":500:510  errorCount */\n      0x01\n      0x00\n        /* \"study/chapter04/ty.sol\":500:512  errorCount++ */\n      dup2\n      sload\n      dup1\n      swap3\n      swap2\n      swap1\n      tag_29\n      swap1\n      tag_30\n      jump\t// in\n    tag_29:\n      swap2\n      swap1\n      pop\n      sstore\n      pop\n        /* \"study/chapter04/ty.sol\":532:533  2 */\n      0x02\n        /* \"study/chapter04/ty.sol\":526:530  flag */\n      dup1\n        /* \"study/chapter04/ty.sol\":526:533  flag =2 */\n      dup2\n      swap1\n      sstore\n      pop\n        /* \"study/chapter04/ty.sol\":448:544  catch Error(string memory /*reason*/) {... */\n      pop\n        /* \"study/chapter04/ty.sol\":374:733  try feed.getData(token) returns (uint v) {... */\n      jump(tag_21)\n    tag_23:\n      0x4e487b71\n      sub\n      tag_22\n      jumpi\n      tag_31\n      tag_32\n      jump\t// in\n    tag_31:\n      swap1\n      tag_33\n      jumpi\n      pop\n      jump(tag_22)\n    tag_33:\n        /* \"study/chapter04/ty.sol\":592:602  errorCount */\n      0x01\n      0x00\n        /* \"study/chapter04/ty.sol\":592:604  errorCount++ */\n      dup2\n      sload\n      dup1\n      swap3\n      swap2\n      swap1\n      tag_34\n      swap1\n      tag_30\n      jump\t// in\n    tag_34:\n      swap2\n      swap1\n      pop\n      sstore\n      pop\n        /* \"study/chapter04/ty.sol\":624:625  3 */\n      0x03\n        /* \"study/chapter04/ty.sol\":618:622  flag */\n      0x02\n        /* \"study/chapter04/ty.sol\":618:625  flag =3 */\n      dup2\n      swap1\n      sstore\n      pop\n        /* \"study/chapter04/ty.sol\":546:636  catch Panic(uint /*errorCode*/) {... */\n      pop\n        /* \"study/chapter04/ty.sol\":374:733  try feed.getData(token) returns (uint v) {... */\n      jump(tag_21)\n    tag_22:\n      returndatasize\n      dup1\n      0x00\n      dup2\n      eq\n      tag_36\n      jumpi\n      mload(0x40)\n      swap2\n      pop\n      and(add(returndatasize, 0x3f), not(0x1f))\n      dup3\n      add\n      0x40\n      mstore\n      returndatasize\n      dup3\n      mstore\n      returndatasize\n      0x00\n      0x20\n      dup5\n      add\n      returndatacopy\n      jump(tag_35)\n    tag_36:\n      0x60\n      swap2\n      pop\n    tag_35:\n      pop\n        /* \"study/chapter04/ty.sol\":689:699  errorCount */\n      0x01\n      0x00\n        /* \"study/chapter04/ty.sol\":689:701  errorCount++ */\n      dup2\n      sload\n      dup1\n      swap3\n      swap2\n      swap1\n      tag_37\n      swap1\n      tag_30\n      jump\t// in\n    tag_37:\n      swap2\n      swap1\n      pop\n      sstore\n      pop\n        /* \"study/chapter04/ty.sol\":721:722  4 */\n      0x04\n        /* \"study/chapter04/ty.sol\":715:719  flag */\n      0x02\n        /* \"study/chapter04/ty.sol\":715:722  flag =4 */\n      dup2\n      swap1\n      sstore\n      pop\n        /* \"study/chapter04/ty.sol\":637:733  catch (bytes memory /*lowLevelData*/) {... */\n      pop\n        /* \"study/chapter04/ty.sol\":374:733  try feed.getData(token) returns (uint v) {... */\n    tag_21:\n      jump(tag_38)\n    tag_20:\n        /* \"study/chapter04/ty.sol\":435:436  1 */\n      0x01\n        /* \"study/chapter04/ty.sol\":429:433  flag */\n      0x02\n        /* \"study/chapter04/ty.sol\":429:436  flag =1 */\n      dup2\n      swap1\n      sstore\n      pop\n        /* \"study/chapter04/ty.sol\":398:447  returns (uint v) {... */\n      pop\n        /* \"study/chapter04/ty.sol\":374:733  try feed.getData(token) returns (uint v) {... */\n    tag_38:\n        /* \"study/chapter04/ty.sol\":230:739  function rate(address token) public {... */\n      pop\n      jump\t// out\n        /* \"study/chapter04/ty.sol\":208:224  uint public flag */\n    tag_10:\n      sload(0x02)\n      dup2\n      jump\t// out\n        /* \"#utility.yul\":7:82   */\n    tag_39:\n        /* \"#utility.yul\":40:46   */\n      0x00\n        /* \"#utility.yul\":73:75   */\n      0x40\n        /* \"#utility.yul\":67:76   */\n      mload\n        /* \"#utility.yul\":57:76   */\n      swap1\n      pop\n        /* \"#utility.yul\":7:82   */\n      swap1\n      jump\t// out\n        /* \"#utility.yul\":88:205   */\n    tag_40:\n        /* \"#utility.yul\":197:198   */\n      0x00\n        /* \"#utility.yul\":194:195   */\n      dup1\n        /* \"#utility.yul\":187:199   */\n      revert\n        /* \"#utility.yul\":334:460   */\n    tag_42:\n        /* \"#utility.yul\":371:378   */\n      0x00\n        /* \"#utility.yul\":411:453   */\n      0xffffffffffffffffffffffffffffffffffffffff\n        /* \"#utility.yul\":404:409   */\n      dup3\n        /* \"#utility.yul\":400:454   */\n      and\n        /* \"#utility.yul\":389:454   */\n      swap1\n      pop\n        /* \"#utility.yul\":334:460   */\n      swap2\n      swap1\n      pop\n      jump\t// out\n        /* \"#utility.yul\":466:562   */\n    tag_43:\n        /* \"#utility.yul\":503:510   */\n      0x00\n        /* \"#utility.yul\":532:556   */\n      tag_62\n        /* \"#utility.yul\":550:555   */\n      dup3\n        /* \"#utility.yul\":532:556   */\n      tag_42\n      jump\t// in\n    tag_62:\n        /* \"#utility.yul\":521:556   */\n      swap1\n      pop\n        /* \"#utility.yul\":466:562   */\n      swap2\n      swap1\n      pop\n      jump\t// out\n        /* \"#utility.yul\":568:690   */\n    tag_44:\n        /* \"#utility.yul\":641:665   */\n      tag_64\n        /* \"#utility.yul\":659:664   */\n      dup2\n        /* \"#utility.yul\":641:665   */\n      tag_43\n      jump\t// in\n    tag_64:\n        /* \"#utility.yul\":634:639   */\n      dup2\n        /* \"#utility.yul\":631:666   */\n      eq\n        /* \"#utility.yul\":621:684   */\n      tag_65\n      jumpi\n        /* \"#utility.yul\":680:681   */\n      0x00\n        /* \"#utility.yul\":677:678   */\n      dup1\n        /* \"#utility.yul\":670:682   */\n      revert\n        /* \"#utility.yul\":621:684   */\n    tag_65:\n        /* \"#utility.yul\":568:690   */\n      pop\n      jump\t// out\n        /* \"#utility.yul\":696:835   */\n    tag_45:\n        /* \"#utility.yul\":742:747   */\n      0x00\n        /* \"#utility.yul\":780:786   */\n      dup2\n        /* \"#utility.yul\":767:787   */\n      calldataload\n        /* \"#utility.yul\":758:787   */\n      swap1\n      pop\n        /* \"#utility.yul\":796:829   */\n      tag_67\n        /* \"#utility.yul\":823:828   */\n      dup2\n        /* \"#utility.yul\":796:829   */\n      tag_44\n      jump\t// in\n    tag_67:\n        /* \"#utility.yul\":696:835   */\n      swap3\n      swap2\n      pop\n      pop\n      jump\t// out\n        /* \"#utility.yul\":841:1170   */\n    tag_7:\n        /* \"#utility.yul\":900:906   */\n      0x00\n        /* \"#utility.yul\":949:951   */\n      0x20\n        /* \"#utility.yul\":937:946   */\n      dup3\n        /* \"#utility.yul\":928:935   */\n      dup5\n        /* \"#utility.yul\":924:947   */\n      sub\n        /* \"#utility.yul\":920:952   */\n      slt\n        /* \"#utility.yul\":917:1036   */\n      iszero\n      tag_69\n      jumpi\n        /* \"#utility.yul\":955:1034   */\n      tag_70\n      tag_40\n      jump\t// in\n    tag_70:\n        /* \"#utility.yul\":917:1036   */\n    tag_69:\n        /* \"#utility.yul\":1075:1076   */\n      0x00\n        /* \"#utility.yul\":1100:1153   */\n      tag_71\n        /* \"#utility.yul\":1145:1152   */\n      dup5\n        /* \"#utility.yul\":1136:1142   */\n      dup3\n        /* \"#utility.yul\":1125:1134   */\n      dup6\n        /* \"#utility.yul\":1121:1143   */\n      add\n        /* \"#utility.yul\":1100:1153   */\n      tag_45\n      jump\t// in\n    tag_71:\n        /* \"#utility.yul\":1090:1153   */\n      swap2\n      pop\n        /* \"#utility.yul\":1046:1163   */\n      pop\n        /* \"#utility.yul\":841:1170   */\n      swap3\n      swap2\n      pop\n      pop\n      jump\t// out\n        /* \"#utility.yul\":1176:1253   */\n    tag_46:\n        /* \"#utility.yul\":1213:1220   */\n      0x00\n        /* \"#utility.yul\":1242:1247   */\n      dup2\n        /* \"#utility.yul\":1231:1247   */\n      swap1\n      pop\n        /* \"#utility.yul\":1176:1253   */\n      swap2\n      swap1\n      pop\n      jump\t// out\n        /* \"#utility.yul\":1259:1377   */\n    tag_47:\n        /* \"#utility.yul\":1346:1370   */\n      tag_74\n        /* \"#utility.yul\":1364:1369   */\n      dup2\n        /* \"#utility.yul\":1346:1370   */\n      tag_46\n      jump\t// in\n    tag_74:\n        /* \"#utility.yul\":1341:1344   */\n      dup3\n        /* \"#utility.yul\":1334:1371   */\n      mstore\n        /* \"#utility.yul\":1259:1377   */\n      pop\n      pop\n      jump\t// out\n        /* \"#utility.yul\":1383:1605   */\n    tag_12:\n        /* \"#utility.yul\":1476:1480   */\n      0x00\n        /* \"#utility.yul\":1514:1516   */\n      0x20\n        /* \"#utility.yul\":1503:1512   */\n      dup3\n        /* \"#utility.yul\":1499:1517   */\n      add\n        /* \"#utility.yul\":1491:1517   */\n      swap1\n      pop\n        /* \"#utility.yul\":1527:1598   */\n      tag_76\n        /* \"#utility.yul\":1595:1596   */\n      0x00\n        /* \"#utility.yul\":1584:1593   */\n      dup4\n        /* \"#utility.yul\":1580:1597   */\n      add\n        /* \"#utility.yul\":1571:1577   */\n      dup5\n        /* \"#utility.yul\":1527:1598   */\n      tag_47\n      jump\t// in\n    tag_76:\n        /* \"#utility.yul\":1383:1605   */\n      swap3\n      swap2\n      pop\n      pop\n      jump\t// out\n        /* \"#utility.yul\":1611:1729   */\n    tag_48:\n        /* \"#utility.yul\":1698:1722   */\n      tag_78\n        /* \"#utility.yul\":1716:1721   */\n      dup2\n        /* \"#utility.yul\":1698:1722   */\n      tag_43\n      jump\t// in\n    tag_78:\n        /* \"#utility.yul\":1693:1696   */\n      dup3\n        /* \"#utility.yul\":1686:1723   */\n      mstore\n        /* \"#utility.yul\":1611:1729   */\n      pop\n      pop\n      jump\t// out\n        /* \"#utility.yul\":1735:1957   */\n    tag_16:\n        /* \"#utility.yul\":1828:1832   */\n      0x00\n        /* \"#utility.yul\":1866:1868   */\n      0x20\n        /* \"#utility.yul\":1855:1864   */\n      dup3\n        /* \"#utility.yul\":1851:1869   */\n      add\n        /* \"#utility.yul\":1843:1869   */\n      swap1\n      pop\n        /* \"#utility.yul\":1879:1950   */\n      tag_80\n        /* \"#utility.yul\":1947:1948   */\n      0x00\n        /* \"#utility.yul\":1936:1945   */\n      dup4\n        /* \"#utility.yul\":1932:1949   */\n      add\n        /* \"#utility.yul\":1923:1929   */\n      dup5\n        /* \"#utility.yul\":1879:1950   */\n      tag_48\n      jump\t// in\n    tag_80:\n        /* \"#utility.yul\":1735:1957   */\n      swap3\n      swap2\n      pop\n      pop\n      jump\t// out\n        /* \"#utility.yul\":1963:2085   */\n    tag_49:\n        /* \"#utility.yul\":2036:2060   */\n      tag_82\n        /* \"#utility.yul\":2054:2059   */\n      dup2\n        /* \"#utility.yul\":2036:2060   */\n      tag_46\n      jump\t// in\n    tag_82:\n        /* \"#utility.yul\":2029:2034   */\n      dup2\n        /* \"#utility.yul\":2026:2061   */\n      eq\n        /* \"#utility.yul\":2016:2079   */\n      tag_83\n      jumpi\n        /* \"#utility.yul\":2075:2076   */\n      0x00\n        /* \"#utility.yul\":2072:2073   */\n      dup1\n        /* \"#utility.yul\":2065:2077   */\n      revert\n        /* \"#utility.yul\":2016:2079   */\n    tag_83:\n        /* \"#utility.yul\":1963:2085   */\n      pop\n      jump\t// out\n        /* \"#utility.yul\":2091:2234   */\n    tag_50:\n        /* \"#utility.yul\":2148:2153   */\n      0x00\n        /* \"#utility.yul\":2179:2185   */\n      dup2\n        /* \"#utility.yul\":2173:2186   */\n      mload\n        /* \"#utility.yul\":2164:2186   */\n      swap1\n      pop\n        /* \"#utility.yul\":2195:2228   */\n      tag_85\n        /* \"#utility.yul\":2222:2227   */\n      dup2\n        /* \"#utility.yul\":2195:2228   */\n      tag_49\n      jump\t// in\n    tag_85:\n        /* \"#utility.yul\":2091:2234   */\n      swap3\n      swap2\n      pop\n      pop\n      jump\t// out\n        /* \"#utility.yul\":2240:2591   */\n    tag_19:\n        /* \"#utility.yul\":2310:2316   */\n      0x00\n        /* \"#utility.yul\":2359:2361   */\n      0x20\n        /* \"#utility.yul\":2347:2356   */\n      dup3\n        /* \"#utility.yul\":2338:2345   */\n      dup5\n        /* \"#utility.yul\":2334:2357   */\n      sub\n        /* \"#utility.yul\":2330:2362   */\n      slt\n        /* \"#utility.yul\":2327:2446   */\n      iszero\n      tag_87\n      jumpi\n        /* \"#utility.yul\":2365:2444   */\n      tag_88\n      tag_40\n      jump\t// in\n    tag_88:\n        /* \"#utility.yul\":2327:2446   */\n    tag_87:\n        /* \"#utility.yul\":2485:2486   */\n      0x00\n        /* \"#utility.yul\":2510:2574   */\n      tag_89\n        /* \"#utility.yul\":2566:2573   */\n      dup5\n        /* \"#utility.yul\":2557:2563   */\n      dup3\n        /* \"#utility.yul\":2546:2555   */\n      dup6\n        /* \"#utility.yul\":2542:2564   */\n      add\n        /* \"#utility.yul\":2510:2574   */\n      tag_50\n      jump\t// in\n    tag_89:\n        /* \"#utility.yul\":2500:2574   */\n      swap2\n      pop\n        /* \"#utility.yul\":2456:2584   */\n      pop\n        /* \"#utility.yul\":2240:2591   */\n      swap3\n      swap2\n      pop\n      pop\n      jump\t// out\n        /* \"#utility.yul\":2597:2703   */\n    tag_51:\n        /* \"#utility.yul\":2641:2649   */\n      0x00\n        /* \"#utility.yul\":2690:2695   */\n      dup2\n        /* \"#utility.yul\":2685:2688   */\n      0xe0\n        /* \"#utility.yul\":2681:2696   */\n      shr\n        /* \"#utility.yul\":2660:2696   */\n      swap1\n      pop\n        /* \"#utility.yul\":2597:2703   */\n      swap2\n      swap1\n      pop\n      jump\t// out\n        /* \"#utility.yul\":2709:2892   */\n    tag_25:\n        /* \"#utility.yul\":2744:2747   */\n      0x00\n        /* \"#utility.yul\":2782:2783   */\n      0x03\n        /* \"#utility.yul\":2764:2780   */\n      returndatasize\n        /* \"#utility.yul\":2761:2784   */\n      gt\n        /* \"#utility.yul\":2758:2886   */\n      iszero\n      tag_92\n      jumpi\n        /* \"#utility.yul\":2820:2821   */\n      0x04\n        /* \"#utility.yul\":2817:2818   */\n      0x00\n        /* \"#utility.yul\":2814:2815   */\n      dup1\n        /* \"#utility.yul\":2799:2822   */\n      returndatacopy\n        /* \"#utility.yul\":2842:2876   */\n      tag_93\n        /* \"#utility.yul\":2873:2874   */\n      0x00\n        /* \"#utility.yul\":2867:2875   */\n      mload\n        /* \"#utility.yul\":2842:2876   */\n      tag_51\n      jump\t// in\n    tag_93:\n        /* \"#utility.yul\":2835:2876   */\n      swap1\n      pop\n        /* \"#utility.yul\":2758:2886   */\n    tag_92:\n        /* \"#utility.yul\":2709:2892   */\n      swap1\n      jump\t// out\n        /* \"#utility.yul\":2898:3000   */\n    tag_52:\n        /* \"#utility.yul\":2939:2945   */\n      0x00\n        /* \"#utility.yul\":2990:2992   */\n      0x1f\n        /* \"#utility.yul\":2986:2993   */\n      not\n        /* \"#utility.yul\":2981:2983   */\n      0x1f\n        /* \"#utility.yul\":2974:2979   */\n      dup4\n        /* \"#utility.yul\":2970:2984   */\n      add\n        /* \"#utility.yul\":2966:2994   */\n      and\n        /* \"#utility.yul\":2956:2994   */\n      swap1\n      pop\n        /* \"#utility.yul\":2898:3000   */\n      swap2\n      swap1\n      pop\n      jump\t// out\n        /* \"#utility.yul\":3006:3186   */\n    tag_53:\n        /* \"#utility.yul\":3054:3131   */\n      0x4e487b7100000000000000000000000000000000000000000000000000000000\n        /* \"#utility.yul\":3051:3052   */\n      0x00\n        /* \"#utility.yul\":3044:3132   */\n      mstore\n        /* \"#utility.yul\":3151:3155   */\n      0x41\n        /* \"#utility.yul\":3148:3149   */\n      0x04\n        /* \"#utility.yul\":3141:3156   */\n      mstore\n        /* \"#utility.yul\":3175:3179   */\n      0x24\n        /* \"#utility.yul\":3172:3173   */\n      0x00\n        /* \"#utility.yul\":3165:3180   */\n      revert\n        /* \"#utility.yul\":3192:3473   */\n    tag_54:\n        /* \"#utility.yul\":3275:3302   */\n      tag_97\n        /* \"#utility.yul\":3297:3301   */\n      dup3\n        /* \"#utility.yul\":3275:3302   */\n      tag_52\n      jump\t// in\n    tag_97:\n        /* \"#utility.yul\":3267:3273   */\n      dup2\n        /* \"#utility.yul\":3263:3303   */\n      add\n        /* \"#utility.yul\":3405:3411   */\n      dup2\n        /* \"#utility.yul\":3393:3403   */\n      dup2\n        /* \"#utility.yul\":3390:3412   */\n      lt\n        /* \"#utility.yul\":3369:3387   */\n      0xffffffffffffffff\n        /* \"#utility.yul\":3357:3367   */\n      dup3\n        /* \"#utility.yul\":3354:3388   */\n      gt\n        /* \"#utility.yul\":3351:3413   */\n      or\n        /* \"#utility.yul\":3348:3436   */\n      iszero\n      tag_98\n      jumpi\n        /* \"#utility.yul\":3416:3434   */\n      tag_99\n      tag_53\n      jump\t// in\n    tag_99:\n        /* \"#utility.yul\":3348:3436   */\n    tag_98:\n        /* \"#utility.yul\":3456:3466   */\n      dup1\n        /* \"#utility.yul\":3452:3454   */\n      0x40\n        /* \"#utility.yul\":3445:3467   */\n      mstore\n        /* \"#utility.yul\":3235:3473   */\n      pop\n        /* \"#utility.yul\":3192:3473   */\n      pop\n      pop\n      jump\t// out\n        /* \"#utility.yul\":3479:4190   */\n    tag_27:\n        /* \"#utility.yul\":3518:3521   */\n      0x00\n        /* \"#utility.yul\":3556:3560   */\n      0x44\n        /* \"#utility.yul\":3538:3554   */\n      returndatasize\n        /* \"#utility.yul\":3535:3561   */\n      lt\n        /* \"#utility.yul\":3564:3569   */\n      tag_100\n        /* \"#utility.yul\":3532:3571   */\n      jumpi\n        /* \"#utility.yul\":3593:3613   */\n      tag_102\n      tag_39\n      jump\t// in\n    tag_102:\n        /* \"#utility.yul\":3668:3669   */\n      0x04\n        /* \"#utility.yul\":3650:3666   */\n      returndatasize\n        /* \"#utility.yul\":3646:3670   */\n      sub\n        /* \"#utility.yul\":3643:3644   */\n      0x04\n        /* \"#utility.yul\":3637:3641   */\n      dup3\n        /* \"#utility.yul\":3622:3671   */\n      returndatacopy\n        /* \"#utility.yul\":3701:3705   */\n      dup1\n        /* \"#utility.yul\":3695:3706   */\n      mload\n        /* \"#utility.yul\":3800:3816   */\n      returndatasize\n        /* \"#utility.yul\":3793:3797   */\n      0x24\n        /* \"#utility.yul\":3785:3791   */\n      dup3\n        /* \"#utility.yul\":3781:3798   */\n      add\n        /* \"#utility.yul\":3778:3817   */\n      gt\n        /* \"#utility.yul\":3745:3763   */\n      0xffffffffffffffff\n        /* \"#utility.yul\":3737:3743   */\n      dup3\n        /* \"#utility.yul\":3734:3764   */\n      gt\n        /* \"#utility.yul\":3718:3831   */\n      or\n        /* \"#utility.yul\":3715:3861   */\n      iszero\n      tag_103\n      jumpi\n        /* \"#utility.yul\":3846:3851   */\n      pop\n      pop\n      jump(tag_100)\n        /* \"#utility.yul\":3715:3861   */\n    tag_103:\n        /* \"#utility.yul\":3892:3898   */\n      dup1\n        /* \"#utility.yul\":3886:3890   */\n      dup3\n        /* \"#utility.yul\":3882:3899   */\n      add\n        /* \"#utility.yul\":3928:3931   */\n      dup1\n        /* \"#utility.yul\":3922:3932   */\n      mload\n        /* \"#utility.yul\":3955:3973   */\n      0xffffffffffffffff\n        /* \"#utility.yul\":3947:3953   */\n      dup2\n        /* \"#utility.yul\":3944:3974   */\n      gt\n        /* \"#utility.yul\":3941:3984   */\n      iszero\n      tag_104\n      jumpi\n        /* \"#utility.yul\":3977:3982   */\n      pop\n      pop\n      pop\n      pop\n      jump(tag_100)\n        /* \"#utility.yul\":3941:3984   */\n    tag_104:\n        /* \"#utility.yul\":4025:4031   */\n      dup1\n        /* \"#utility.yul\":4018:4022   */\n      0x20\n        /* \"#utility.yul\":4013:4016   */\n      dup4\n        /* \"#utility.yul\":4009:4023   */\n      add\n        /* \"#utility.yul\":4005:4032   */\n      add\n        /* \"#utility.yul\":4084:4085   */\n      0x04\n        /* \"#utility.yul\":4066:4082   */\n      returndatasize\n        /* \"#utility.yul\":4062:4086   */\n      sub\n        /* \"#utility.yul\":4056:4060   */\n      dup6\n        /* \"#utility.yul\":4052:4087   */\n      add\n        /* \"#utility.yul\":4047:4050   */\n      dup2\n        /* \"#utility.yul\":4044:4088   */\n      gt\n        /* \"#utility.yul\":4041:4098   */\n      iszero\n      tag_105\n      jumpi\n        /* \"#utility.yul\":4091:4096   */\n      pop\n      pop\n      pop\n      pop\n      pop\n      jump(tag_100)\n        /* \"#utility.yul\":4041:4098   */\n    tag_105:\n        /* \"#utility.yul\":4108:4165   */\n      tag_106\n        /* \"#utility.yul\":4156:4162   */\n      dup3\n        /* \"#utility.yul\":4150:4154   */\n      0x20\n        /* \"#utility.yul\":4146:4163   */\n      add\n        /* \"#utility.yul\":4138:4144   */\n      dup6\n        /* \"#utility.yul\":4134:4164   */\n      add\n        /* \"#utility.yul\":4128:4132   */\n      dup7\n        /* \"#utility.yul\":4108:4165   */\n      tag_54\n      jump\t// in\n    tag_106:\n        /* \"#utility.yul\":4181:4184   */\n      dup3\n        /* \"#utility.yul\":4174:4184   */\n      swap6\n      pop\n        /* \"#utility.yul\":3522:4190   */\n      pop\n      pop\n      pop\n      pop\n      pop\n        /* \"#utility.yul\":3479:4190   */\n    tag_100:\n      swap1\n      jump\t// out\n        /* \"#utility.yul\":4196:4376   */\n    tag_55:\n        /* \"#utility.yul\":4244:4321   */\n      0x4e487b7100000000000000000000000000000000000000000000000000000000\n        /* \"#utility.yul\":4241:4242   */\n      0x00\n        /* \"#utility.yul\":4234:4322   */\n      mstore\n        /* \"#utility.yul\":4341:4345   */\n      0x11\n        /* \"#utility.yul\":4338:4339   */\n      0x04\n        /* \"#utility.yul\":4331:4346   */\n      mstore\n        /* \"#utility.yul\":4365:4369   */\n      0x24\n        /* \"#utility.yul\":4362:4363   */\n      0x00\n        /* \"#utility.yul\":4355:4370   */\n      revert\n        /* \"#utility.yul\":4382:4615   */\n    tag_30:\n        /* \"#utility.yul\":4421:4424   */\n      0x00\n        /* \"#utility.yul\":4444:4468   */\n      tag_109\n        /* \"#utility.yul\":4462:4467   */\n      dup3\n        /* \"#utility.yul\":4444:4468   */\n      tag_46\n      jump\t// in\n    tag_109:\n        /* \"#utility.yul\":4435:4468   */\n      swap2\n      pop\n        /* \"#utility.yul\":4490:4556   */\n      0xffffffffffffffffffffffffffffffffffffffffffffffffffffffffffffffff\n        /* \"#utility.yul\":4483:4488   */\n      dup3\n        /* \"#utility.yul\":4480:4557   */\n      sub\n        /* \"#utility.yul\":4477:4580   */\n      tag_110\n      jumpi\n        /* \"#utility.yul\":4560:4578   */\n      tag_111\n      tag_55\n      jump\t// in\n    tag_111:\n        /* \"#utility.yul\":4477:4580   */\n    tag_110:\n        /* \"#utility.yul\":4607:4608   */\n      0x01\n        /* \"#utility.yul\":4600:4605   */\n      dup3\n        /* \"#utility.yul\":4596:4609   */\n      add\n        /* \"#utility.yul\":4589:4609   */\n      swap1\n      pop\n        /* \"#utility.yul\":4382:4615   */\n      swap2\n      swap1\n      pop\n      jump\t// out\n        /* \"#utility.yul\":4621:4821   */\n    tag_32:\n        /* \"#utility.yul\":4657:4664   */\n      0x00\n        /* \"#utility.yul\":4666:4670   */\n      dup1\n        /* \"#utility.yul\":4705:4709   */\n      0x23\n        /* \"#utility.yul\":4687:4703   */\n      returndatasize\n        /* \"#utility.yul\":4684:4710   */\n      gt\n        /* \"#utility.yul\":4681:4815   */\n      iszero\n      tag_113\n      jumpi\n        /* \"#utility.yul\":4746:4750   */\n      0x20\n        /* \"#utility.yul\":4743:4744   */\n      0x04\n        /* \"#utility.yul\":4740:4741   */\n      0x00\n        /* \"#utility.yul\":4725:4751   */\n      returndatacopy\n        /* \"#utility.yul\":4775:4776   */\n      0x01\n        /* \"#utility.yul\":4764:4776   */\n      swap2\n      pop\n        /* \"#utility.yul\":4803:4804   */\n      0x00\n        /* \"#utility.yul\":4797:4805   */\n      mload\n        /* \"#utility.yul\":4789:4805   */\n      swap1\n      pop\n        /* \"#utility.yul\":4681:4815   */\n    tag_113:\n        /* \"#utility.yul\":4621:4821   */\n      swap1\n      swap2\n      jump\t// out\n\n    auxdata: 0xa264697066735822122002f62624346ed87e51d10debcc564ce40b8377ae3659f5a083c50ca15c9eb80864736f6c634300080f0033\n}\n",
				"bytecode": {
					"linkReferences": {},
					"object": "608060405234801561001057600080fd5b50610567806100206000396000f3fe608060405234801561001057600080fd5b50600436106100365760003560e01c80630ba9d8ca1461003b578063890eba6814610057575b600080fd5b61005560048036038101906100509190610285565b610075565b005b61005f610212565b60405161006c91906102cb565b60405180910390f35b600a6001541061008457600080fd5b60008054906101000a900473ffffffffffffffffffffffffffffffffffffffff1673ffffffffffffffffffffffffffffffffffffffff166338266b22826040518263ffffffff1660e01b81526004016100dd91906102f5565b6020604051808303816000875af192505050801561011957506040513d601f19601f82011682018060405250810190610116919061033c565b60015b61020557610125610376565b806308c379a0036101695750610139610409565b8061014457506101ac565b60016000815480929190610157906104c8565b91905055506002808190555050610200565b634e487b71036101ac5761017b610510565b9061018657506101ac565b60016000815480929190610199906104c8565b9190505550600360028190555050610200565b3d80600081146101d8576040519150601f19603f3d011682016040523d82523d6000602084013e6101dd565b606091505b50600160008154809291906101f1906104c8565b91905055506004600281905550505b61020f565b6001600281905550505b50565b60025481565b6000604051905090565b600080fd5b600073ffffffffffffffffffffffffffffffffffffffff82169050919050565b600061025282610227565b9050919050565b61026281610247565b811461026d57600080fd5b50565b60008135905061027f81610259565b92915050565b60006020828403121561029b5761029a610222565b5b60006102a984828501610270565b91505092915050565b6000819050919050565b6102c5816102b2565b82525050565b60006020820190506102e060008301846102bc565b92915050565b6102ef81610247565b82525050565b600060208201905061030a60008301846102e6565b92915050565b610319816102b2565b811461032457600080fd5b50565b60008151905061033681610310565b92915050565b60006020828403121561035257610351610222565b5b600061036084828501610327565b91505092915050565b60008160e01c9050919050565b600060033d11156103955760046000803e610392600051610369565b90505b90565b6000601f19601f8301169050919050565b7f4e487b7100000000000000000000000000000000000000000000000000000000600052604160045260246000fd5b6103e182610398565b810181811067ffffffffffffffff82111715610400576103ff6103a9565b5b80604052505050565b600060443d106104965761041b610218565b60043d036004823e80513d602482011167ffffffffffffffff82111715610443575050610496565b808201805167ffffffffffffffff8111156104615750505050610496565b80602083010160043d03850181111561047e575050505050610496565b61048d826020018501866103d8565b82955050505050505b90565b7f4e487b7100000000000000000000000000000000000000000000000000000000600052601160045260246000fd5b60006104d3826102b2565b91507fffffffffffffffffffffffffffffffffffffffffffffffffffffffffffffffff820361050557610504610499565b5b600182019050919050565b60008060233d111561052d576020600460003e6001915060005190505b909156fea264697066735822122002f62624346ed87e51d10debcc564ce40b8377ae3659f5a083c50ca15c9eb80864736f6c634300080f0033",
					"opcodes": "PUSH1 0x80 PUSH1 0x40 MSTORE CALLVALUE DUP1 ISZERO PUSH2 0x10 JUMPI PUSH1 0x0 DUP1 REVERT JUMPDEST POP PUSH2 0x567 DUP1 PUSH2 0x20 PUSH1 0x0 CODECOPY PUSH1 0x0 RETURN INVALID PUSH1 0x80 PUSH1 0x40 MSTORE CALLVALUE DUP1 ISZERO PUSH2 0x10 JUMPI PUSH1 0x0 DUP1 REVERT JUMPDEST POP PUSH1 0x4 CALLDATASIZE LT PUSH2 0x36 JUMPI PUSH1 0x0 CALLDATALOAD PUSH1 0xE0 SHR DUP1 PUSH4 0xBA9D8CA EQ PUSH2 0x3B JUMPI DUP1 PUSH4 0x890EBA68 EQ PUSH2 0x57 JUMPI JUMPDEST PUSH1 0x0 DUP1 REVERT JUMPDEST PUSH2 0x55 PUSH1 0x4 DUP1 CALLDATASIZE SUB DUP2 ADD SWAP1 PUSH2 0x50 SWAP2 SWAP1 PUSH2 0x285 JUMP JUMPDEST PUSH2 0x75 JUMP JUMPDEST STOP JUMPDEST PUSH2 0x5F PUSH2 0x212 JUMP JUMPDEST PUSH1 0x40 MLOAD PUSH2 0x6C SWAP2 SWAP1 PUSH2 0x2CB JUMP JUMPDEST PUSH1 0x40 MLOAD DUP1 SWAP2 SUB SWAP1 RETURN JUMPDEST PUSH1 0xA PUSH1 0x1 SLOAD LT PUSH2 0x84 JUMPI PUSH1 0x0 DUP1 REVERT JUMPDEST PUSH1 0x0 DUP1 SLOAD SWAP1 PUSH2 0x100 EXP SWAP1 DIV PUSH20 0xFFFFFFFFFFFFFFFFFFFFFFFFFFFFFFFFFFFFFFFF AND PUSH20 0xFFFFFFFFFFFFFFFFFFFFFFFFFFFFFFFFFFFFFFFF AND PUSH4 0x38266B22 DUP3 PUSH1 0x40 MLOAD DUP3 PUSH4 0xFFFFFFFF AND PUSH1 0xE0 SHL DUP2 MSTORE PUSH1 0x4 ADD PUSH2 0xDD SWAP2 SWAP1 PUSH2 0x2F5 JUMP JUMPDEST PUSH1 0x20 PUSH1 0x40 MLOAD DUP1 DUP4 SUB DUP2 PUSH1 0x0 DUP8 GAS CALL SWAP3 POP POP POP DUP1 ISZERO PUSH2 0x119 JUMPI POP PUSH1 0x40 MLOAD RETURNDATASIZE PUSH1 0x1F NOT PUSH1 0x1F DUP3 ADD AND DUP3 ADD DUP1 PUSH1 0x40 MSTORE POP DUP2 ADD SWAP1 PUSH2 0x116 SWAP2 SWAP1 PUSH2 0x33C JUMP JUMPDEST PUSH1 0x1 JUMPDEST PUSH2 0x205 JUMPI PUSH2 0x125 PUSH2 0x376 JUMP JUMPDEST DUP1 PUSH4 0x8C379A0 SUB PUSH2 0x169 JUMPI POP PUSH2 0x139 PUSH2 0x409 JUMP JUMPDEST DUP1 PUSH2 0x144 JUMPI POP PUSH2 0x1AC JUMP JUMPDEST PUSH1 0x1 PUSH1 0x0 DUP2 SLOAD DUP1 SWAP3 SWAP2 SWAP1 PUSH2 0x157 SWAP1 PUSH2 0x4C8 JUMP JUMPDEST SWAP2 SWAP1 POP SSTORE POP PUSH1 0x2 DUP1 DUP2 SWAP1 SSTORE POP POP PUSH2 0x200 JUMP JUMPDEST PUSH4 0x4E487B71 SUB PUSH2 0x1AC JUMPI PUSH2 0x17B PUSH2 0x510 JUMP JUMPDEST SWAP1 PUSH2 0x186 JUMPI POP PUSH2 0x1AC JUMP JUMPDEST PUSH1 0x1 PUSH1 0x0 DUP2 SLOAD DUP1 SWAP3 SWAP2 SWAP1 PUSH2 0x199 SWAP1 PUSH2 0x4C8 JUMP JUMPDEST SWAP2 SWAP1 POP SSTORE POP PUSH1 0x3 PUSH1 0x2 DUP2 SWAP1 SSTORE POP POP PUSH2 0x200 JUMP JUMPDEST RETURNDATASIZE DUP1 PUSH1 0x0 DUP2 EQ PUSH2 0x1D8 JUMPI PUSH1 0x40 MLOAD SWAP2 POP PUSH1 0x1F NOT PUSH1 0x3F RETURNDATASIZE ADD AND DUP3 ADD PUSH1 0x40 MSTORE RETURNDATASIZE DUP3 MSTORE RETURNDATASIZE PUSH1 0x0 PUSH1 0x20 DUP5 ADD RETURNDATACOPY PUSH2 0x1DD JUMP JUMPDEST PUSH1 0x60 SWAP2 POP JUMPDEST POP PUSH1 0x1 PUSH1 0x0 DUP2 SLOAD DUP1 SWAP3 SWAP2 SWAP1 PUSH2 0x1F1 SWAP1 PUSH2 0x4C8 JUMP JUMPDEST SWAP2 SWAP1 POP SSTORE POP PUSH1 0x4 PUSH1 0x2 DUP2 SWAP1 SSTORE POP POP JUMPDEST PUSH2 0x20F JUMP JUMPDEST PUSH1 0x1 PUSH1 0x2 DUP2 SWAP1 SSTORE POP POP JUMPDEST POP JUMP JUMPDEST PUSH1 0x2 SLOAD DUP2 JUMP JUMPDEST PUSH1 0x0 PUSH1 0x40 MLOAD SWAP1 POP SWAP1 JUMP JUMPDEST PUSH1 0x0 DUP1 REVERT JUMPDEST PUSH1 0x0 PUSH20 0xFFFFFFFFFFFFFFFFFFFFFFFFFFFFFFFFFFFFFFFF DUP3 AND SWAP1 POP SWAP2 SWAP1 POP JUMP JUMPDEST PUSH1 0x0 PUSH2 0x252 DUP3 PUSH2 0x227 JUMP JUMPDEST SWAP1 POP SWAP2 SWAP1 POP JUMP JUMPDEST PUSH2 0x262 DUP2 PUSH2 0x247 JUMP JUMPDEST DUP2 EQ PUSH2 0x26D JUMPI PUSH1 0x0 DUP1 REVERT JUMPDEST POP JUMP JUMPDEST PUSH1 0x0 DUP2 CALLDATALOAD SWAP1 POP PUSH2 0x27F DUP2 PUSH2 0x259 JUMP JUMPDEST SWAP3 SWAP2 POP POP JUMP JUMPDEST PUSH1 0x0 PUSH1 0x20 DUP3 DUP5 SUB SLT ISZERO PUSH2 0x29B JUMPI PUSH2 0x29A PUSH2 0x222 JUMP JUMPDEST JUMPDEST PUSH1 0x0 PUSH2 0x2A9 DUP5 DUP3 DUP6 ADD PUSH2 0x270 JUMP JUMPDEST SWAP2 POP POP SWAP3 SWAP2 POP POP JUMP JUMPDEST PUSH1 0x0 DUP2 SWAP1 POP SWAP2 SWAP1 POP JUMP JUMPDEST PUSH2 0x2C5 DUP2 PUSH2 0x2B2 JUMP JUMPDEST DUP3 MSTORE POP POP JUMP JUMPDEST PUSH1 0x0 PUSH1 0x20 DUP3 ADD SWAP1 POP PUSH2 0x2E0 PUSH1 0x0 DUP4 ADD DUP5 PUSH2 0x2BC JUMP JUMPDEST SWAP3 SWAP2 POP POP JUMP JUMPDEST PUSH2 0x2EF DUP2 PUSH2 0x247 JUMP JUMPDEST DUP3 MSTORE POP POP JUMP JUMPDEST PUSH1 0x0 PUSH1 0x20 DUP3 ADD SWAP1 POP PUSH2 0x30A PUSH1 0x0 DUP4 ADD DUP5 PUSH2 0x2E6 JUMP JUMPDEST SWAP3 SWAP2 POP POP JUMP JUMPDEST PUSH2 0x319 DUP2 PUSH2 0x2B2 JUMP JUMPDEST DUP2 EQ PUSH2 0x324 JUMPI PUSH1 0x0 DUP1 REVERT JUMPDEST POP JUMP JUMPDEST PUSH1 0x0 DUP2 MLOAD SWAP1 POP PUSH2 0x336 DUP2 PUSH2 0x310 JUMP JUMPDEST SWAP3 SWAP2 POP POP JUMP JUMPDEST PUSH1 0x0 PUSH1 0x20 DUP3 DUP5 SUB SLT ISZERO PUSH2 0x352 JUMPI PUSH2 0x351 PUSH2 0x222 JUMP JUMPDEST JUMPDEST PUSH1 0x0 PUSH2 0x360 DUP5 DUP3 DUP6 ADD PUSH2 0x327 JUMP JUMPDEST SWAP2 POP POP SWAP3 SWAP2 POP POP JUMP JUMPDEST PUSH1 0x0 DUP2 PUSH1 0xE0 SHR SWAP1 POP SWAP2 SWAP1 POP JUMP JUMPDEST PUSH1 0x0 PUSH1 0x3 RETURNDATASIZE GT ISZERO PUSH2 0x395 JUMPI PUSH1 0x4 PUSH1 0x0 DUP1 RETURNDATACOPY PUSH2 0x392 PUSH1 0x0 MLOAD PUSH2 0x369 JUMP JUMPDEST SWAP1 POP JUMPDEST SWAP1 JUMP JUMPDEST PUSH1 0x0 PUSH1 0x1F NOT PUSH1 0x1F DUP4 ADD AND SWAP1 POP SWAP2 SWAP1 POP JUMP JUMPDEST PUSH32 0x4E487B7100000000000000000000000000000000000000000000000000000000 PUSH1 0x0 MSTORE PUSH1 0x41 PUSH1 0x4 MSTORE PUSH1 0x24 PUSH1 0x0 REVERT JUMPDEST PUSH2 0x3E1 DUP3 PUSH2 0x398 JUMP JUMPDEST DUP2 ADD DUP2 DUP2 LT PUSH8 0xFFFFFFFFFFFFFFFF DUP3 GT OR ISZERO PUSH2 0x400 JUMPI PUSH2 0x3FF PUSH2 0x3A9 JUMP JUMPDEST JUMPDEST DUP1 PUSH1 0x40 MSTORE POP POP POP JUMP JUMPDEST PUSH1 0x0 PUSH1 0x44 RETURNDATASIZE LT PUSH2 0x496 JUMPI PUSH2 0x41B PUSH2 0x218 JUMP JUMPDEST PUSH1 0x4 RETURNDATASIZE SUB PUSH1 0x4 DUP3 RETURNDATACOPY DUP1 MLOAD RETURNDATASIZE PUSH1 0x24 DUP3 ADD GT PUSH8 0xFFFFFFFFFFFFFFFF DUP3 GT OR ISZERO PUSH2 0x443 JUMPI POP POP PUSH2 0x496 JUMP JUMPDEST DUP1 DUP3 ADD DUP1 MLOAD PUSH8 0xFFFFFFFFFFFFFFFF DUP2 GT ISZERO PUSH2 0x461 JUMPI POP POP POP POP PUSH2 0x496 JUMP JUMPDEST DUP1 PUSH1 0x20 DUP4 ADD ADD PUSH1 0x4 RETURNDATASIZE SUB DUP6 ADD DUP2 GT ISZERO PUSH2 0x47E JUMPI POP POP POP POP POP PUSH2 0x496 JUMP JUMPDEST PUSH2 0x48D DUP3 PUSH1 0x20 ADD DUP6 ADD DUP7 PUSH2 0x3D8 JUMP JUMPDEST DUP3 SWAP6 POP POP POP POP POP POP JUMPDEST SWAP1 JUMP JUMPDEST PUSH32 0x4E487B7100000000000000000000000000000000000000000000000000000000 PUSH1 0x0 MSTORE PUSH1 0x11 PUSH1 0x4 MSTORE PUSH1 0x24 PUSH1 0x0 REVERT JUMPDEST PUSH1 0x0 PUSH2 0x4D3 DUP3 PUSH2 0x2B2 JUMP JUMPDEST SWAP2 POP PUSH32 0xFFFFFFFFFFFFFFFFFFFFFFFFFFFFFFFFFFFFFFFFFFFFFFFFFFFFFFFFFFFFFFFF DUP3 SUB PUSH2 0x505 JUMPI PUSH2 0x504 PUSH2 0x499 JUMP JUMPDEST JUMPDEST PUSH1 0x1 DUP3 ADD SWAP1 POP SWAP2 SWAP1 POP JUMP JUMPDEST PUSH1 0x0 DUP1 PUSH1 0x23 RETURNDATASIZE GT ISZERO PUSH2 0x52D JUMPI PUSH1 0x20 PUSH1 0x4 PUSH1 0x0 RETURNDATACOPY PUSH1 0x1 SWAP2 POP PUSH1 0x0 MLOAD SWAP1 POP JUMPDEST SWAP1 SWAP2 JUMP INVALID LOG2 PUSH5 0x6970667358 0x22 SLT KECCAK256 MUL 0xF6 0x26 0x24 CALLVALUE PUSH15 0xD87E51D10DEBCC564CE40B8377AE36 MSIZE CREATE2 LOG0 DUP4 0xC5 0xC LOG1 0x5C SWAP15 0xB8 ADDMOD PUSH5 0x736F6C6343 STOP ADDMOD 0xF STOP CALLER "
				},
				"gasEstimates": {
					"creation": {
						"codeDepositCost": "276600",
						"executionCost": "318",
						"totalCost": "276918"
					},
					"external": {
						"flag()": "2429",
						"rate(address)": "infinite"
					}
				},
				"methodIdentifiers": {
					"flag()": "890eba68",
					"rate(address)": "0ba9d8ca"
				}
			},
			"storageLayout": {
				"storage": [
					{
						"astId": 12,
						"contract": "study/chapter04/ty.sol:FeedConsumer",
						"label": "feed",
						"offset": 0,
						"slot": "0",
						"type": "t_contract(DataFeed)9"
					},
					{
						"astId": 14,
						"contract": "study/chapter04/ty.sol:FeedConsumer",
						"label": "errorCount",
						"offset": 0,
						"slot": "1",
						"type": "t_uint256"
					},
					{
						"astId": 16,
						"contract": "study/chapter04/ty.sol:FeedConsumer",
						"label": "flag",
						"offset": 0,
						"slot": "2",
						"type": "t_uint256"
					}
				],
				"types": {
					"t_contract(DataFeed)9": {
						"encoding": "inplace",
						"label": "contract DataFeed",
						"numberOfBytes": "20"
					},
					"t_uint256": {
						"encoding": "inplace",
						"label": "uint256",
						"numberOfBytes": "32"
					}
				}
			},
			"userdoc": {
				"kind": "user",
				"methods": {},
				"version": 1
			}
		}
	}
}