{
	"study/chapter04/newContract.sol": {
		"testContract": {
			"abi": [
				{
					"inputs": [
						{
							"internalType": "uint256",
							"name": "_a",
							"type": "uint256"
						}
					],
					"stateMutability": "nonpayable",
					"type": "constructor"
				},
				{
					"inputs": [],
					"name": "a",
					"outputs": [
						{
							"internalType": "uint256",
							"name": "",
							"type": "uint256"
						}
					],
					"stateMutability": "view",
					"type": "function"
				},
				{
					"inputs": [],
					"name": "getContractName",
					"outputs": [
						{
							"internalType": "string",
							"name": "",
							"type": "string"
						}
					],
					"stateMutability": "pure",
					"type": "function"
				},
				{
					"inputs": [
						{
							"internalType": "uint256",
							"name": "_a",
							"type": "uint256"
						}
					],
					"name": "setA",
					"outputs": [],
					"stateMutability": "nonpayable",
					"type": "function"
				},
				{
					"stateMutability": "payable",
					"type": "receive"
				}
			],
			"devdoc": {
				"kind": "dev",
				"methods": {},
				"version": 1
			},
			"evm": {
				"assembly": "    /* \"study/chapter04/newContract.sol\":53:362  contract testContract{... */\n  mstore(0x40, 0x80)\n    /* \"study/chapter04/newContract.sol\":156:197  constructor(uint _a){... */\n  callvalue\n  dup1\n  iszero\n  tag_1\n  jumpi\n  0x00\n  dup1\n  revert\ntag_1:\n  pop\n  mload(0x40)\n  sub(codesize, bytecodeSize)\n  dup1\n  bytecodeSize\n  dup4\n  codecopy\n  dup2\n  dup2\n  add\n  0x40\n  mstore\n  dup2\n  add\n  swap1\n  tag_2\n  swap2\n  swap1\n  tag_3\n  jump\t// in\ntag_2:\n    /* \"study/chapter04/newContract.sol\":188:190  _a */\n  dup1\n    /* \"study/chapter04/newContract.sol\":186:187  a */\n  0x00\n    /* \"study/chapter04/newContract.sol\":186:190  a=_a */\n  dup2\n  swap1\n  sstore\n  pop\n    /* \"study/chapter04/newContract.sol\":156:197  constructor(uint _a){... */\n  pop\n    /* \"study/chapter04/newContract.sol\":53:362  contract testContract{... */\n  jump(tag_6)\n    /* \"#utility.yul\":7:150   */\ntag_8:\n    /* \"#utility.yul\":64:69   */\n  0x00\n    /* \"#utility.yul\":95:101   */\n  dup2\n    /* \"#utility.yul\":89:102   */\n  mload\n    /* \"#utility.yul\":80:102   */\n  swap1\n  pop\n    /* \"#utility.yul\":111:144   */\n  tag_10\n    /* \"#utility.yul\":138:143   */\n  dup2\n    /* \"#utility.yul\":111:144   */\n  tag_11\n  jump\t// in\ntag_10:\n    /* \"#utility.yul\":7:150   */\n  swap3\n  swap2\n  pop\n  pop\n  jump\t// out\n    /* \"#utility.yul\":156:507   */\ntag_3:\n    /* \"#utility.yul\":226:232   */\n  0x00\n    /* \"#utility.yul\":275:277   */\n  0x20\n    /* \"#utility.yul\":263:272   */\n  dup3\n    /* \"#utility.yul\":254:261   */\n  dup5\n    /* \"#utility.yul\":250:273   */\n  sub\n    /* \"#utility.yul\":246:278   */\n  slt\n    /* \"#utility.yul\":243:362   */\n  iszero\n  tag_13\n  jumpi\n    /* \"#utility.yul\":281:360   */\n  tag_14\n  tag_15\n  jump\t// in\ntag_14:\n    /* \"#utility.yul\":243:362   */\ntag_13:\n    /* \"#utility.yul\":401:402   */\n  0x00\n    /* \"#utility.yul\":426:490   */\n  tag_16\n    /* \"#utility.yul\":482:489   */\n  dup5\n    /* \"#utility.yul\":473:479   */\n  dup3\n    /* \"#utility.yul\":462:471   */\n  dup6\n    /* \"#utility.yul\":458:480   */\n  add\n    /* \"#utility.yul\":426:490   */\n  tag_8\n  jump\t// in\ntag_16:\n    /* \"#utility.yul\":416:490   */\n  swap2\n  pop\n    /* \"#utility.yul\":372:500   */\n  pop\n    /* \"#utility.yul\":156:507   */\n  swap3\n  swap2\n  pop\n  pop\n  jump\t// out\n    /* \"#utility.yul\":594:671   */\ntag_19:\n    /* \"#utility.yul\":631:638   */\n  0x00\n    /* \"#utility.yul\":660:665   */\n  dup2\n    /* \"#utility.yul\":649:665   */\n  swap1\n  pop\n    /* \"#utility.yul\":594:671   */\n  swap2\n  swap1\n  pop\n  jump\t// out\n    /* \"#utility.yul\":800:917   */\ntag_15:\n    /* \"#utility.yul\":909:910   */\n  0x00\n    /* \"#utility.yul\":906:907   */\n  dup1\n    /* \"#utility.yul\":899:911   */\n  revert\n    /* \"#utility.yul\":923:1045   */\ntag_11:\n    /* \"#utility.yul\":996:1020   */\n  tag_25\n    /* \"#utility.yul\":1014:1019   */\n  dup2\n    /* \"#utility.yul\":996:1020   */\n  tag_19\n  jump\t// in\ntag_25:\n    /* \"#utility.yul\":989:994   */\n  dup2\n    /* \"#utility.yul\":986:1021   */\n  eq\n    /* \"#utility.yul\":976:1039   */\n  tag_26\n  jumpi\n    /* \"#utility.yul\":1035:1036   */\n  0x00\n    /* \"#utility.yul\":1032:1033   */\n  dup1\n    /* \"#utility.yul\":1025:1037   */\n  revert\n    /* \"#utility.yul\":976:1039   */\ntag_26:\n    /* \"#utility.yul\":923:1045   */\n  pop\n  jump\t// out\n    /* \"study/chapter04/newContract.sol\":53:362  contract testContract{... */\ntag_6:\n  dataSize(sub_0)\n  dup1\n  dataOffset(sub_0)\n  0x00\n  codecopy\n  0x00\n  return\nstop\n\nsub_0: assembly {\n        /* \"study/chapter04/newContract.sol\":53:362  contract testContract{... */\n      mstore(0x40, 0x80)\n      jumpi(tag_1, lt(calldatasize, 0x04))\n      shr(0xe0, calldataload(0x00))\n      dup1\n      0x0dbe671f\n      eq\n      tag_3\n      jumpi\n      dup1\n      0xee919d50\n      eq\n      tag_4\n      jumpi\n      dup1\n      0xf5f5ba72\n      eq\n      tag_5\n      jumpi\n      jump(tag_2)\n    tag_1:\n      jumpi(tag_2, calldatasize)\n      stop\n    tag_2:\n      0x00\n      dup1\n      revert\n        /* \"study/chapter04/newContract.sol\":136:149  uint public a */\n    tag_3:\n      callvalue\n      dup1\n      iszero\n      tag_8\n      jumpi\n      0x00\n      dup1\n      revert\n    tag_8:\n      pop\n      tag_9\n      tag_10\n      jump\t// in\n    tag_9:\n      mload(0x40)\n      tag_11\n      swap2\n      swap1\n      tag_12\n      jump\t// in\n    tag_11:\n      mload(0x40)\n      dup1\n      swap2\n      sub\n      swap1\n      return\n        /* \"study/chapter04/newContract.sol\":307:360  function setA(uint _a)external{... */\n    tag_4:\n      callvalue\n      dup1\n      iszero\n      tag_13\n      jumpi\n      0x00\n      dup1\n      revert\n    tag_13:\n      pop\n      tag_14\n      0x04\n      dup1\n      calldatasize\n      sub\n      dup2\n      add\n      swap1\n      tag_15\n      swap2\n      swap1\n      tag_16\n      jump\t// in\n    tag_15:\n      tag_17\n      jump\t// in\n    tag_14:\n      stop\n        /* \"study/chapter04/newContract.sol\":202:302  function getContractName()external pure returns(string memory){... */\n    tag_5:\n      callvalue\n      dup1\n      iszero\n      tag_18\n      jumpi\n      0x00\n      dup1\n      revert\n    tag_18:\n      pop\n      tag_19\n      tag_20\n      jump\t// in\n    tag_19:\n      mload(0x40)\n      tag_21\n      swap2\n      swap1\n      tag_22\n      jump\t// in\n    tag_21:\n      mload(0x40)\n      dup1\n      swap2\n      sub\n      swap1\n      return\n        /* \"study/chapter04/newContract.sol\":136:149  uint public a */\n    tag_10:\n      sload(0x00)\n      dup2\n      jump\t// out\n        /* \"study/chapter04/newContract.sol\":307:360  function setA(uint _a)external{... */\n    tag_17:\n        /* \"study/chapter04/newContract.sol\":351:353  _a */\n      dup1\n        /* \"study/chapter04/newContract.sol\":347:348  a */\n      0x00\n        /* \"study/chapter04/newContract.sol\":347:353  a = _a */\n      dup2\n      swap1\n      sstore\n      pop\n        /* \"study/chapter04/newContract.sol\":307:360  function setA(uint _a)external{... */\n      pop\n      jump\t// out\n        /* \"study/chapter04/newContract.sol\":202:302  function getContractName()external pure returns(string memory){... */\n    tag_20:\n        /* \"study/chapter04/newContract.sol\":250:263  string memory */\n      0x60\n        /* \"study/chapter04/newContract.sol\":274:295  return \"testContract\" */\n      mload(0x40)\n      dup1\n      0x40\n      add\n      0x40\n      mstore\n      dup1\n      0x0c\n      dup2\n      mstore\n      0x20\n      add\n      0x74657374436f6e74726163740000000000000000000000000000000000000000\n      dup2\n      mstore\n      pop\n      swap1\n      pop\n        /* \"study/chapter04/newContract.sol\":202:302  function getContractName()external pure returns(string memory){... */\n      swap1\n      jump\t// out\n        /* \"#utility.yul\":7:146   */\n    tag_26:\n        /* \"#utility.yul\":53:58   */\n      0x00\n        /* \"#utility.yul\":91:97   */\n      dup2\n        /* \"#utility.yul\":78:98   */\n      calldataload\n        /* \"#utility.yul\":69:98   */\n      swap1\n      pop\n        /* \"#utility.yul\":107:140   */\n      tag_28\n        /* \"#utility.yul\":134:139   */\n      dup2\n        /* \"#utility.yul\":107:140   */\n      tag_29\n      jump\t// in\n    tag_28:\n        /* \"#utility.yul\":7:146   */\n      swap3\n      swap2\n      pop\n      pop\n      jump\t// out\n        /* \"#utility.yul\":152:481   */\n    tag_16:\n        /* \"#utility.yul\":211:217   */\n      0x00\n        /* \"#utility.yul\":260:262   */\n      0x20\n        /* \"#utility.yul\":248:257   */\n      dup3\n        /* \"#utility.yul\":239:246   */\n      dup5\n        /* \"#utility.yul\":235:258   */\n      sub\n        /* \"#utility.yul\":231:263   */\n      slt\n        /* \"#utility.yul\":228:347   */\n      iszero\n      tag_31\n      jumpi\n        /* \"#utility.yul\":266:345   */\n      tag_32\n      tag_33\n      jump\t// in\n    tag_32:\n        /* \"#utility.yul\":228:347   */\n    tag_31:\n        /* \"#utility.yul\":386:387   */\n      0x00\n        /* \"#utility.yul\":411:464   */\n      tag_34\n        /* \"#utility.yul\":456:463   */\n      dup5\n        /* \"#utility.yul\":447:453   */\n      dup3\n        /* \"#utility.yul\":436:445   */\n      dup6\n        /* \"#utility.yul\":432:454   */\n      add\n        /* \"#utility.yul\":411:464   */\n      tag_26\n      jump\t// in\n    tag_34:\n        /* \"#utility.yul\":401:464   */\n      swap2\n      pop\n        /* \"#utility.yul\":357:474   */\n      pop\n        /* \"#utility.yul\":152:481   */\n      swap3\n      swap2\n      pop\n      pop\n      jump\t// out\n        /* \"#utility.yul\":487:851   */\n    tag_35:\n        /* \"#utility.yul\":575:578   */\n      0x00\n        /* \"#utility.yul\":603:642   */\n      tag_37\n        /* \"#utility.yul\":636:641   */\n      dup3\n        /* \"#utility.yul\":603:642   */\n      tag_38\n      jump\t// in\n    tag_37:\n        /* \"#utility.yul\":658:729   */\n      tag_39\n        /* \"#utility.yul\":722:728   */\n      dup2\n        /* \"#utility.yul\":717:720   */\n      dup6\n        /* \"#utility.yul\":658:729   */\n      tag_40\n      jump\t// in\n    tag_39:\n        /* \"#utility.yul\":651:729   */\n      swap4\n      pop\n        /* \"#utility.yul\":738:790   */\n      tag_41\n        /* \"#utility.yul\":783:789   */\n      dup2\n        /* \"#utility.yul\":778:781   */\n      dup6\n        /* \"#utility.yul\":771:775   */\n      0x20\n        /* \"#utility.yul\":764:769   */\n      dup7\n        /* \"#utility.yul\":760:776   */\n      add\n        /* \"#utility.yul\":738:790   */\n      tag_42\n      jump\t// in\n    tag_41:\n        /* \"#utility.yul\":815:844   */\n      tag_43\n        /* \"#utility.yul\":837:843   */\n      dup2\n        /* \"#utility.yul\":815:844   */\n      tag_44\n      jump\t// in\n    tag_43:\n        /* \"#utility.yul\":810:813   */\n      dup5\n        /* \"#utility.yul\":806:845   */\n      add\n        /* \"#utility.yul\":799:845   */\n      swap2\n      pop\n        /* \"#utility.yul\":579:851   */\n      pop\n        /* \"#utility.yul\":487:851   */\n      swap3\n      swap2\n      pop\n      pop\n      jump\t// out\n        /* \"#utility.yul\":857:975   */\n    tag_45:\n        /* \"#utility.yul\":944:968   */\n      tag_47\n        /* \"#utility.yul\":962:967   */\n      dup2\n        /* \"#utility.yul\":944:968   */\n      tag_48\n      jump\t// in\n    tag_47:\n        /* \"#utility.yul\":939:942   */\n      dup3\n        /* \"#utility.yul\":932:969   */\n      mstore\n        /* \"#utility.yul\":857:975   */\n      pop\n      pop\n      jump\t// out\n        /* \"#utility.yul\":981:1294   */\n    tag_22:\n        /* \"#utility.yul\":1094:1098   */\n      0x00\n        /* \"#utility.yul\":1132:1134   */\n      0x20\n        /* \"#utility.yul\":1121:1130   */\n      dup3\n        /* \"#utility.yul\":1117:1135   */\n      add\n        /* \"#utility.yul\":1109:1135   */\n      swap1\n      pop\n        /* \"#utility.yul\":1181:1190   */\n      dup2\n        /* \"#utility.yul\":1175:1179   */\n      dup2\n        /* \"#utility.yul\":1171:1191   */\n      sub\n        /* \"#utility.yul\":1167:1168   */\n      0x00\n        /* \"#utility.yul\":1156:1165   */\n      dup4\n        /* \"#utility.yul\":1152:1169   */\n      add\n        /* \"#utility.yul\":1145:1192   */\n      mstore\n        /* \"#utility.yul\":1209:1287   */\n      tag_50\n        /* \"#utility.yul\":1282:1286   */\n      dup2\n        /* \"#utility.yul\":1273:1279   */\n      dup5\n        /* \"#utility.yul\":1209:1287   */\n      tag_35\n      jump\t// in\n    tag_50:\n        /* \"#utility.yul\":1201:1287   */\n      swap1\n      pop\n        /* \"#utility.yul\":981:1294   */\n      swap3\n      swap2\n      pop\n      pop\n      jump\t// out\n        /* \"#utility.yul\":1300:1522   */\n    tag_12:\n        /* \"#utility.yul\":1393:1397   */\n      0x00\n        /* \"#utility.yul\":1431:1433   */\n      0x20\n        /* \"#utility.yul\":1420:1429   */\n      dup3\n        /* \"#utility.yul\":1416:1434   */\n      add\n        /* \"#utility.yul\":1408:1434   */\n      swap1\n      pop\n        /* \"#utility.yul\":1444:1515   */\n      tag_52\n        /* \"#utility.yul\":1512:1513   */\n      0x00\n        /* \"#utility.yul\":1501:1510   */\n      dup4\n        /* \"#utility.yul\":1497:1514   */\n      add\n        /* \"#utility.yul\":1488:1494   */\n      dup5\n        /* \"#utility.yul\":1444:1515   */\n      tag_45\n      jump\t// in\n    tag_52:\n        /* \"#utility.yul\":1300:1522   */\n      swap3\n      swap2\n      pop\n      pop\n      jump\t// out\n        /* \"#utility.yul\":1609:1708   */\n    tag_38:\n        /* \"#utility.yul\":1661:1667   */\n      0x00\n        /* \"#utility.yul\":1695:1700   */\n      dup2\n        /* \"#utility.yul\":1689:1701   */\n      mload\n        /* \"#utility.yul\":1679:1701   */\n      swap1\n      pop\n        /* \"#utility.yul\":1609:1708   */\n      swap2\n      swap1\n      pop\n      jump\t// out\n        /* \"#utility.yul\":1714:1883   */\n    tag_40:\n        /* \"#utility.yul\":1798:1809   */\n      0x00\n        /* \"#utility.yul\":1832:1838   */\n      dup3\n        /* \"#utility.yul\":1827:1830   */\n      dup3\n        /* \"#utility.yul\":1820:1839   */\n      mstore\n        /* \"#utility.yul\":1872:1876   */\n      0x20\n        /* \"#utility.yul\":1867:1870   */\n      dup3\n        /* \"#utility.yul\":1863:1877   */\n      add\n        /* \"#utility.yul\":1848:1877   */\n      swap1\n      pop\n        /* \"#utility.yul\":1714:1883   */\n      swap3\n      swap2\n      pop\n      pop\n      jump\t// out\n        /* \"#utility.yul\":1889:1966   */\n    tag_48:\n        /* \"#utility.yul\":1926:1933   */\n      0x00\n        /* \"#utility.yul\":1955:1960   */\n      dup2\n        /* \"#utility.yul\":1944:1960   */\n      swap1\n      pop\n        /* \"#utility.yul\":1889:1966   */\n      swap2\n      swap1\n      pop\n      jump\t// out\n        /* \"#utility.yul\":1972:2279   */\n    tag_42:\n        /* \"#utility.yul\":2040:2041   */\n      0x00\n        /* \"#utility.yul\":2050:2163   */\n    tag_59:\n        /* \"#utility.yul\":2064:2070   */\n      dup4\n        /* \"#utility.yul\":2061:2062   */\n      dup2\n        /* \"#utility.yul\":2058:2071   */\n      lt\n        /* \"#utility.yul\":2050:2163   */\n      iszero\n      tag_61\n      jumpi\n        /* \"#utility.yul\":2149:2150   */\n      dup1\n        /* \"#utility.yul\":2144:2147   */\n      dup3\n        /* \"#utility.yul\":2140:2151   */\n      add\n        /* \"#utility.yul\":2134:2152   */\n      mload\n        /* \"#utility.yul\":2130:2131   */\n      dup2\n        /* \"#utility.yul\":2125:2128   */\n      dup5\n        /* \"#utility.yul\":2121:2132   */\n      add\n        /* \"#utility.yul\":2114:2153   */\n      mstore\n        /* \"#utility.yul\":2086:2088   */\n      0x20\n        /* \"#utility.yul\":2083:2084   */\n      dup2\n        /* \"#utility.yul\":2079:2089   */\n      add\n        /* \"#utility.yul\":2074:2089   */\n      swap1\n      pop\n        /* \"#utility.yul\":2050:2163   */\n      jump(tag_59)\n    tag_61:\n        /* \"#utility.yul\":2181:2187   */\n      dup4\n        /* \"#utility.yul\":2178:2179   */\n      dup2\n        /* \"#utility.yul\":2175:2188   */\n      gt\n        /* \"#utility.yul\":2172:2273   */\n      iszero\n      tag_62\n      jumpi\n        /* \"#utility.yul\":2261:2262   */\n      0x00\n        /* \"#utility.yul\":2252:2258   */\n      dup5\n        /* \"#utility.yul\":2247:2250   */\n      dup5\n        /* \"#utility.yul\":2243:2259   */\n      add\n        /* \"#utility.yul\":2236:2263   */\n      mstore\n        /* \"#utility.yul\":2172:2273   */\n    tag_62:\n        /* \"#utility.yul\":2021:2279   */\n      pop\n        /* \"#utility.yul\":1972:2279   */\n      pop\n      pop\n      pop\n      jump\t// out\n        /* \"#utility.yul\":2408:2525   */\n    tag_33:\n        /* \"#utility.yul\":2517:2518   */\n      0x00\n        /* \"#utility.yul\":2514:2515   */\n      dup1\n        /* \"#utility.yul\":2507:2519   */\n      revert\n        /* \"#utility.yul\":2531:2633   */\n    tag_44:\n        /* \"#utility.yul\":2572:2578   */\n      0x00\n        /* \"#utility.yul\":2623:2625   */\n      0x1f\n        /* \"#utility.yul\":2619:2626   */\n      not\n        /* \"#utility.yul\":2614:2616   */\n      0x1f\n        /* \"#utility.yul\":2607:2612   */\n      dup4\n        /* \"#utility.yul\":2603:2617   */\n      add\n        /* \"#utility.yul\":2599:2627   */\n      and\n        /* \"#utility.yul\":2589:2627   */\n      swap1\n      pop\n        /* \"#utility.yul\":2531:2633   */\n      swap2\n      swap1\n      pop\n      jump\t// out\n        /* \"#utility.yul\":2639:2761   */\n    tag_29:\n        /* \"#utility.yul\":2712:2736   */\n      tag_68\n        /* \"#utility.yul\":2730:2735   */\n      dup2\n        /* \"#utility.yul\":2712:2736   */\n      tag_48\n      jump\t// in\n    tag_68:\n        /* \"#utility.yul\":2705:2710   */\n      dup2\n        /* \"#utility.yul\":2702:2737   */\n      eq\n        /* \"#utility.yul\":2692:2755   */\n      tag_69\n      jumpi\n        /* \"#utility.yul\":2751:2752   */\n      0x00\n        /* \"#utility.yul\":2748:2749   */\n      dup1\n        /* \"#utility.yul\":2741:2753   */\n      revert\n        /* \"#utility.yul\":2692:2755   */\n    tag_69:\n        /* \"#utility.yul\":2639:2761   */\n      pop\n      jump\t// out\n\n    auxdata: 0xa2646970667358221220b3304e9302bfbb5efdebd918859da9584850d5729115ed46b79f005c8e2f6d0b64736f6c63430008070033\n}\n",
				"bytecode": {
					"linkReferences": {},
					"object": "608060405234801561001057600080fd5b5060405161034938038061034983398181016040528101906100329190610054565b80600081905550506100a7565b60008151905061004e81610090565b92915050565b60006020828403121561006a5761006961008b565b5b60006100788482850161003f565b91505092915050565b6000819050919050565b600080fd5b61009981610081565b81146100a457600080fd5b50565b610293806100b66000396000f3fe6080604052600436106100385760003560e01c80630dbe671f14610044578063ee919d501461006f578063f5f5ba72146100985761003f565b3661003f57005b600080fd5b34801561005057600080fd5b506100596100c3565b60405161006691906101bc565b60405180910390f35b34801561007b57600080fd5b5061009660048036038101906100919190610125565b6100c9565b005b3480156100a457600080fd5b506100ad6100d3565b6040516100ba919061019a565b60405180910390f35b60005481565b8060008190555050565b60606040518060400160405280600c81526020017f74657374436f6e74726163740000000000000000000000000000000000000000815250905090565b60008135905061011f81610246565b92915050565b60006020828403121561013b5761013a610230565b5b600061014984828501610110565b91505092915050565b600061015d826101d7565b61016781856101e2565b93506101778185602086016101fd565b61018081610235565b840191505092915050565b610194816101f3565b82525050565b600060208201905081810360008301526101b48184610152565b905092915050565b60006020820190506101d1600083018461018b565b92915050565b600081519050919050565b600082825260208201905092915050565b6000819050919050565b60005b8381101561021b578082015181840152602081019050610200565b8381111561022a576000848401525b50505050565b600080fd5b6000601f19601f8301169050919050565b61024f816101f3565b811461025a57600080fd5b5056fea2646970667358221220b3304e9302bfbb5efdebd918859da9584850d5729115ed46b79f005c8e2f6d0b64736f6c63430008070033",
					"opcodes": "PUSH1 0x80 PUSH1 0x40 MSTORE CALLVALUE DUP1 ISZERO PUSH2 0x10 JUMPI PUSH1 0x0 DUP1 REVERT JUMPDEST POP PUSH1 0x40 MLOAD PUSH2 0x349 CODESIZE SUB DUP1 PUSH2 0x349 DUP4 CODECOPY DUP2 DUP2 ADD PUSH1 0x40 MSTORE DUP2 ADD SWAP1 PUSH2 0x32 SWAP2 SWAP1 PUSH2 0x54 JUMP JUMPDEST DUP1 PUSH1 0x0 DUP2 SWAP1 SSTORE POP POP PUSH2 0xA7 JUMP JUMPDEST PUSH1 0x0 DUP2 MLOAD SWAP1 POP PUSH2 0x4E DUP2 PUSH2 0x90 JUMP JUMPDEST SWAP3 SWAP2 POP POP JUMP JUMPDEST PUSH1 0x0 PUSH1 0x20 DUP3 DUP5 SUB SLT ISZERO PUSH2 0x6A JUMPI PUSH2 0x69 PUSH2 0x8B JUMP JUMPDEST JUMPDEST PUSH1 0x0 PUSH2 0x78 DUP5 DUP3 DUP6 ADD PUSH2 0x3F JUMP JUMPDEST SWAP2 POP POP SWAP3 SWAP2 POP POP JUMP JUMPDEST PUSH1 0x0 DUP2 SWAP1 POP SWAP2 SWAP1 POP JUMP JUMPDEST PUSH1 0x0 DUP1 REVERT JUMPDEST PUSH2 0x99 DUP2 PUSH2 0x81 JUMP JUMPDEST DUP2 EQ PUSH2 0xA4 JUMPI PUSH1 0x0 DUP1 REVERT JUMPDEST POP JUMP JUMPDEST PUSH2 0x293 DUP1 PUSH2 0xB6 PUSH1 0x0 CODECOPY PUSH1 0x0 RETURN INVALID PUSH1 0x80 PUSH1 0x40 MSTORE PUSH1 0x4 CALLDATASIZE LT PUSH2 0x38 JUMPI PUSH1 0x0 CALLDATALOAD PUSH1 0xE0 SHR DUP1 PUSH4 0xDBE671F EQ PUSH2 0x44 JUMPI DUP1 PUSH4 0xEE919D50 EQ PUSH2 0x6F JUMPI DUP1 PUSH4 0xF5F5BA72 EQ PUSH2 0x98 JUMPI PUSH2 0x3F JUMP JUMPDEST CALLDATASIZE PUSH2 0x3F JUMPI STOP JUMPDEST PUSH1 0x0 DUP1 REVERT JUMPDEST CALLVALUE DUP1 ISZERO PUSH2 0x50 JUMPI PUSH1 0x0 DUP1 REVERT JUMPDEST POP PUSH2 0x59 PUSH2 0xC3 JUMP JUMPDEST PUSH1 0x40 MLOAD PUSH2 0x66 SWAP2 SWAP1 PUSH2 0x1BC JUMP JUMPDEST PUSH1 0x40 MLOAD DUP1 SWAP2 SUB SWAP1 RETURN JUMPDEST CALLVALUE DUP1 ISZERO PUSH2 0x7B JUMPI PUSH1 0x0 DUP1 REVERT JUMPDEST POP PUSH2 0x96 PUSH1 0x4 DUP1 CALLDATASIZE SUB DUP2 ADD SWAP1 PUSH2 0x91 SWAP2 SWAP1 PUSH2 0x125 JUMP JUMPDEST PUSH2 0xC9 JUMP JUMPDEST STOP JUMPDEST CALLVALUE DUP1 ISZERO PUSH2 0xA4 JUMPI PUSH1 0x0 DUP1 REVERT JUMPDEST POP PUSH2 0xAD PUSH2 0xD3 JUMP JUMPDEST PUSH1 0x40 MLOAD PUSH2 0xBA SWAP2 SWAP1 PUSH2 0x19A JUMP JUMPDEST PUSH1 0x40 MLOAD DUP1 SWAP2 SUB SWAP1 RETURN JUMPDEST PUSH1 0x0 SLOAD DUP2 JUMP JUMPDEST DUP1 PUSH1 0x0 DUP2 SWAP1 SSTORE POP POP JUMP JUMPDEST PUSH1 0x60 PUSH1 0x40 MLOAD DUP1 PUSH1 0x40 ADD PUSH1 0x40 MSTORE DUP1 PUSH1 0xC DUP2 MSTORE PUSH1 0x20 ADD PUSH32 0x74657374436F6E74726163740000000000000000000000000000000000000000 DUP2 MSTORE POP SWAP1 POP SWAP1 JUMP JUMPDEST PUSH1 0x0 DUP2 CALLDATALOAD SWAP1 POP PUSH2 0x11F DUP2 PUSH2 0x246 JUMP JUMPDEST SWAP3 SWAP2 POP POP JUMP JUMPDEST PUSH1 0x0 PUSH1 0x20 DUP3 DUP5 SUB SLT ISZERO PUSH2 0x13B JUMPI PUSH2 0x13A PUSH2 0x230 JUMP JUMPDEST JUMPDEST PUSH1 0x0 PUSH2 0x149 DUP5 DUP3 DUP6 ADD PUSH2 0x110 JUMP JUMPDEST SWAP2 POP POP SWAP3 SWAP2 POP POP JUMP JUMPDEST PUSH1 0x0 PUSH2 0x15D DUP3 PUSH2 0x1D7 JUMP JUMPDEST PUSH2 0x167 DUP2 DUP6 PUSH2 0x1E2 JUMP JUMPDEST SWAP4 POP PUSH2 0x177 DUP2 DUP6 PUSH1 0x20 DUP7 ADD PUSH2 0x1FD JUMP JUMPDEST PUSH2 0x180 DUP2 PUSH2 0x235 JUMP JUMPDEST DUP5 ADD SWAP2 POP POP SWAP3 SWAP2 POP POP JUMP JUMPDEST PUSH2 0x194 DUP2 PUSH2 0x1F3 JUMP JUMPDEST DUP3 MSTORE POP POP JUMP JUMPDEST PUSH1 0x0 PUSH1 0x20 DUP3 ADD SWAP1 POP DUP2 DUP2 SUB PUSH1 0x0 DUP4 ADD MSTORE PUSH2 0x1B4 DUP2 DUP5 PUSH2 0x152 JUMP JUMPDEST SWAP1 POP SWAP3 SWAP2 POP POP JUMP JUMPDEST PUSH1 0x0 PUSH1 0x20 DUP3 ADD SWAP1 POP PUSH2 0x1D1 PUSH1 0x0 DUP4 ADD DUP5 PUSH2 0x18B JUMP JUMPDEST SWAP3 SWAP2 POP POP JUMP JUMPDEST PUSH1 0x0 DUP2 MLOAD SWAP1 POP SWAP2 SWAP1 POP JUMP JUMPDEST PUSH1 0x0 DUP3 DUP3 MSTORE PUSH1 0x20 DUP3 ADD SWAP1 POP SWAP3 SWAP2 POP POP JUMP JUMPDEST PUSH1 0x0 DUP2 SWAP1 POP SWAP2 SWAP1 POP JUMP JUMPDEST PUSH1 0x0 JUMPDEST DUP4 DUP2 LT ISZERO PUSH2 0x21B JUMPI DUP1 DUP3 ADD MLOAD DUP2 DUP5 ADD MSTORE PUSH1 0x20 DUP2 ADD SWAP1 POP PUSH2 0x200 JUMP JUMPDEST DUP4 DUP2 GT ISZERO PUSH2 0x22A JUMPI PUSH1 0x0 DUP5 DUP5 ADD MSTORE JUMPDEST POP POP POP POP JUMP JUMPDEST PUSH1 0x0 DUP1 REVERT JUMPDEST PUSH1 0x0 PUSH1 0x1F NOT PUSH1 0x1F DUP4 ADD AND SWAP1 POP SWAP2 SWAP1 POP JUMP JUMPDEST PUSH2 0x24F DUP2 PUSH2 0x1F3 JUMP JUMPDEST DUP2 EQ PUSH2 0x25A JUMPI PUSH1 0x0 DUP1 REVERT JUMPDEST POP JUMP INVALID LOG2 PUSH5 0x6970667358 0x22 SLT KECCAK256 0xB3 ADDRESS 0x4E SWAP4 MUL 0xBF 0xBB 0x5E REVERT 0xEB 0xD9 XOR DUP6 SWAP14 0xA9 PC BASEFEE POP 0xD5 PUSH19 0x9115ED46B79F005C8E2F6D0B64736F6C634300 ADDMOD SMOD STOP CALLER "
				},
				"gasEstimates": {
					"creation": {
						"codeDepositCost": "131800",
						"executionCost": "infinite",
						"totalCost": "infinite"
					},
					"external": {
						"a()": "2407",
						"getContractName()": "infinite",
						"setA(uint256)": "22520"
					}
				},
				"methodIdentifiers": {
					"a()": "0dbe671f",
					"getContractName()": "f5f5ba72",
					"setA(uint256)": "ee919d50"
				}
			},
			"storageLayout": {
				"storage": [
					{
						"astId": 7,
						"contract": "study/chapter04/newContract.sol:testContract",
						"label": "a",
						"offset": 0,
						"slot": "0",
						"type": "t_uint256"
					}
				],
				"types": {
					"t_uint256": {
						"encoding": "inplace",
						"label": "uint256",
						"numberOfBytes": "32"
					}
				}
			},
			"userdoc": {
				"kind": "user",
				"methods": {},
				"version": 1
			}
		}
	}
}