{
	"study/chapter04/assignment.sol": {
		"testAssignment": {
			"abi": [
				{
					"inputs": [],
					"name": "f",
					"outputs": [
						{
							"internalType": "uint256",
							"name": "",
							"type": "uint256"
						},
						{
							"internalType": "bool",
							"name": "",
							"type": "bool"
						},
						{
							"internalType": "uint256",
							"name": "",
							"type": "uint256"
						}
					],
					"stateMutability": "pure",
					"type": "function"
				},
				{
					"inputs": [],
					"name": "g",
					"outputs": [],
					"stateMutability": "nonpayable",
					"type": "function"
				}
			],
			"devdoc": {
				"kind": "dev",
				"methods": {},
				"version": 1
			},
			"evm": {
				"assembly": "    /* \"study/chapter04/assignment.sol\":54:574  contract testAssignment{... */\n  mstore(0x40, 0x80)\n  callvalue\n  dup1\n  iszero\n  tag_1\n  jumpi\n  0x00\n  dup1\n  revert\ntag_1:\n  pop\n  dataSize(sub_0)\n  dup1\n  dataOffset(sub_0)\n  0x00\n  codecopy\n  0x00\n  return\nstop\n\nsub_0: assembly {\n        /* \"study/chapter04/assignment.sol\":54:574  contract testAssignment{... */\n      mstore(0x40, 0x80)\n      callvalue\n      dup1\n      iszero\n      tag_1\n      jumpi\n      0x00\n      dup1\n      revert\n    tag_1:\n      pop\n      jumpi(tag_2, lt(calldatasize, 0x04))\n      shr(0xe0, calldataload(0x00))\n      dup1\n      0x26121ff0\n      eq\n      tag_3\n      jumpi\n      dup1\n      0xe2179b8e\n      eq\n      tag_4\n      jumpi\n    tag_2:\n      0x00\n      dup1\n      revert\n        /* \"study/chapter04/assignment.sol\":100:188  function f() public pure returns (uint, bool, uint) {... */\n    tag_3:\n      tag_5\n      tag_6\n      jump\t// in\n    tag_5:\n      mload(0x40)\n      tag_7\n      swap4\n      swap3\n      swap2\n      swap1\n      tag_8\n      jump\t// in\n    tag_7:\n      mload(0x40)\n      dup1\n      swap2\n      sub\n      swap1\n      return\n        /* \"study/chapter04/assignment.sol\":194:572  function g() public {... */\n    tag_4:\n      tag_9\n      tag_10\n      jump\t// in\n    tag_9:\n      stop\n        /* \"study/chapter04/assignment.sol\":100:188  function f() public pure returns (uint, bool, uint) {... */\n    tag_6:\n        /* \"study/chapter04/assignment.sol\":134:138  uint */\n      0x00\n        /* \"study/chapter04/assignment.sol\":140:144  bool */\n      dup1\n        /* \"study/chapter04/assignment.sol\":146:150  uint */\n      0x00\n        /* \"study/chapter04/assignment.sol\":170:171  7 */\n      0x07\n        /* \"study/chapter04/assignment.sol\":173:177  true */\n      0x01\n        /* \"study/chapter04/assignment.sol\":179:180  2 */\n      0x02\n        /* \"study/chapter04/assignment.sol\":162:181  return (7, true, 2) */\n      swap3\n      pop\n      swap3\n      pop\n      swap3\n      pop\n        /* \"study/chapter04/assignment.sol\":100:188  function f() public pure returns (uint, bool, uint) {... */\n      swap1\n      swap2\n      swap3\n      jump\t// out\n        /* \"study/chapter04/assignment.sol\":194:572  function g() public {... */\n    tag_10:\n        /* \"study/chapter04/assignment.sol\":281:287  uint x */\n      0x00\n        /* \"study/chapter04/assignment.sol\":289:295  bool b */\n      dup1\n        /* \"study/chapter04/assignment.sol\":297:303  uint y */\n      0x00\n        /* \"study/chapter04/assignment.sol\":307:310  f() */\n      tag_13\n        /* \"study/chapter04/assignment.sol\":307:308  f */\n      tag_6\n        /* \"study/chapter04/assignment.sol\":307:310  f() */\n      jump\t// in\n    tag_13:\n        /* \"study/chapter04/assignment.sol\":280:310  (uint x, bool b, uint y) = f() */\n      swap3\n      pop\n      swap3\n      pop\n      swap3\n      pop\n        /* \"study/chapter04/assignment.sol\":433:434  y */\n      dup1\n        /* \"study/chapter04/assignment.sol\":436:437  x */\n      dup4\n        /* \"study/chapter04/assignment.sol\":423:438  (x, y) = (y, x) */\n      dup1\n      swap3\n      pop\n      dup2\n      swap5\n      pop\n      pop\n      pop\n        /* \"study/chapter04/assignment.sol\":540:543  f() */\n      tag_14\n        /* \"study/chapter04/assignment.sol\":540:541  f */\n      tag_6\n        /* \"study/chapter04/assignment.sol\":540:543  f() */\n      jump\t// in\n    tag_14:\n        /* \"study/chapter04/assignment.sol\":528:543  (index,,) = f() */\n      swap1\n      pop\n      pop\n        /* \"study/chapter04/assignment.sol\":529:534  index */\n      0x00\n      dup1\n        /* \"study/chapter04/assignment.sol\":528:543  (index,,) = f() */\n      dup3\n      swap2\n      swap1\n      pop\n      sstore\n      pop\n        /* \"study/chapter04/assignment.sol\":214:572  {... */\n      pop\n      pop\n      pop\n        /* \"study/chapter04/assignment.sol\":194:572  function g() public {... */\n      jump\t// out\n        /* \"#utility.yul\":7:116   */\n    tag_16:\n        /* \"#utility.yul\":88:109   */\n      tag_18\n        /* \"#utility.yul\":103:108   */\n      dup2\n        /* \"#utility.yul\":88:109   */\n      tag_19\n      jump\t// in\n    tag_18:\n        /* \"#utility.yul\":83:86   */\n      dup3\n        /* \"#utility.yul\":76:110   */\n      mstore\n        /* \"#utility.yul\":66:116   */\n      pop\n      pop\n      jump\t// out\n        /* \"#utility.yul\":122:240   */\n    tag_20:\n        /* \"#utility.yul\":209:233   */\n      tag_22\n        /* \"#utility.yul\":227:232   */\n      dup2\n        /* \"#utility.yul\":209:233   */\n      tag_23\n      jump\t// in\n    tag_22:\n        /* \"#utility.yul\":204:207   */\n      dup3\n        /* \"#utility.yul\":197:234   */\n      mstore\n        /* \"#utility.yul\":187:240   */\n      pop\n      pop\n      jump\t// out\n        /* \"#utility.yul\":246:676   */\n    tag_8:\n        /* \"#utility.yul\":389:393   */\n      0x00\n        /* \"#utility.yul\":427:429   */\n      0x60\n        /* \"#utility.yul\":416:425   */\n      dup3\n        /* \"#utility.yul\":412:430   */\n      add\n        /* \"#utility.yul\":404:430   */\n      swap1\n      pop\n        /* \"#utility.yul\":440:511   */\n      tag_25\n        /* \"#utility.yul\":508:509   */\n      0x00\n        /* \"#utility.yul\":497:506   */\n      dup4\n        /* \"#utility.yul\":493:510   */\n      add\n        /* \"#utility.yul\":484:490   */\n      dup7\n        /* \"#utility.yul\":440:511   */\n      tag_20\n      jump\t// in\n    tag_25:\n        /* \"#utility.yul\":521:587   */\n      tag_26\n        /* \"#utility.yul\":583:585   */\n      0x20\n        /* \"#utility.yul\":572:581   */\n      dup4\n        /* \"#utility.yul\":568:586   */\n      add\n        /* \"#utility.yul\":559:565   */\n      dup6\n        /* \"#utility.yul\":521:587   */\n      tag_16\n      jump\t// in\n    tag_26:\n        /* \"#utility.yul\":597:669   */\n      tag_27\n        /* \"#utility.yul\":665:667   */\n      0x40\n        /* \"#utility.yul\":654:663   */\n      dup4\n        /* \"#utility.yul\":650:668   */\n      add\n        /* \"#utility.yul\":641:647   */\n      dup5\n        /* \"#utility.yul\":597:669   */\n      tag_20\n      jump\t// in\n    tag_27:\n        /* \"#utility.yul\":394:676   */\n      swap5\n      swap4\n      pop\n      pop\n      pop\n      pop\n      jump\t// out\n        /* \"#utility.yul\":682:772   */\n    tag_19:\n        /* \"#utility.yul\":716:723   */\n      0x00\n        /* \"#utility.yul\":759:764   */\n      dup2\n        /* \"#utility.yul\":752:765   */\n      iszero\n        /* \"#utility.yul\":745:766   */\n      iszero\n        /* \"#utility.yul\":734:766   */\n      swap1\n      pop\n        /* \"#utility.yul\":724:772   */\n      swap2\n      swap1\n      pop\n      jump\t// out\n        /* \"#utility.yul\":778:855   */\n    tag_23:\n        /* \"#utility.yul\":815:822   */\n      0x00\n        /* \"#utility.yul\":844:849   */\n      dup2\n        /* \"#utility.yul\":833:849   */\n      swap1\n      pop\n        /* \"#utility.yul\":823:855   */\n      swap2\n      swap1\n      pop\n      jump\t// out\n\n    auxdata: 0xa2646970667358221220221af86e255fd345ad26908ca6b208091973bdbc76b4e61605001d8707f213c364736f6c63430008060033\n}\n",
				"bytecode": {
					"linkReferences": {},
					"object": "608060405234801561001057600080fd5b50610152806100206000396000f3fe608060405234801561001057600080fd5b50600436106100365760003560e01c806326121ff01461003b578063e2179b8e1461005b575b600080fd5b610043610065565b604051610052939291906100cf565b60405180910390f35b61006361007b565b005b6000806000600760016002925092509250909192565b6000806000610088610065565b925092509250808380925081945050506100a0610065565b905050600080829190505550505050565b6100ba81610106565b82525050565b6100c981610112565b82525050565b60006060820190506100e460008301866100c0565b6100f160208301856100b1565b6100fe60408301846100c0565b949350505050565b60008115159050919050565b600081905091905056fea2646970667358221220221af86e255fd345ad26908ca6b208091973bdbc76b4e61605001d8707f213c364736f6c63430008060033",
					"opcodes": "PUSH1 0x80 PUSH1 0x40 MSTORE CALLVALUE DUP1 ISZERO PUSH2 0x10 JUMPI PUSH1 0x0 DUP1 REVERT JUMPDEST POP PUSH2 0x152 DUP1 PUSH2 0x20 PUSH1 0x0 CODECOPY PUSH1 0x0 RETURN INVALID PUSH1 0x80 PUSH1 0x40 MSTORE CALLVALUE DUP1 ISZERO PUSH2 0x10 JUMPI PUSH1 0x0 DUP1 REVERT JUMPDEST POP PUSH1 0x4 CALLDATASIZE LT PUSH2 0x36 JUMPI PUSH1 0x0 CALLDATALOAD PUSH1 0xE0 SHR DUP1 PUSH4 0x26121FF0 EQ PUSH2 0x3B JUMPI DUP1 PUSH4 0xE2179B8E EQ PUSH2 0x5B JUMPI JUMPDEST PUSH1 0x0 DUP1 REVERT JUMPDEST PUSH2 0x43 PUSH2 0x65 JUMP JUMPDEST PUSH1 0x40 MLOAD PUSH2 0x52 SWAP4 SWAP3 SWAP2 SWAP1 PUSH2 0xCF JUMP JUMPDEST PUSH1 0x40 MLOAD DUP1 SWAP2 SUB SWAP1 RETURN JUMPDEST PUSH2 0x63 PUSH2 0x7B JUMP JUMPDEST STOP JUMPDEST PUSH1 0x0 DUP1 PUSH1 0x0 PUSH1 0x7 PUSH1 0x1 PUSH1 0x2 SWAP3 POP SWAP3 POP SWAP3 POP SWAP1 SWAP2 SWAP3 JUMP JUMPDEST PUSH1 0x0 DUP1 PUSH1 0x0 PUSH2 0x88 PUSH2 0x65 JUMP JUMPDEST SWAP3 POP SWAP3 POP SWAP3 POP DUP1 DUP4 DUP1 SWAP3 POP DUP2 SWAP5 POP POP POP PUSH2 0xA0 PUSH2 0x65 JUMP JUMPDEST SWAP1 POP POP PUSH1 0x0 DUP1 DUP3 SWAP2 SWAP1 POP SSTORE POP POP POP POP JUMP JUMPDEST PUSH2 0xBA DUP2 PUSH2 0x106 JUMP JUMPDEST DUP3 MSTORE POP POP JUMP JUMPDEST PUSH2 0xC9 DUP2 PUSH2 0x112 JUMP JUMPDEST DUP3 MSTORE POP POP JUMP JUMPDEST PUSH1 0x0 PUSH1 0x60 DUP3 ADD SWAP1 POP PUSH2 0xE4 PUSH1 0x0 DUP4 ADD DUP7 PUSH2 0xC0 JUMP JUMPDEST PUSH2 0xF1 PUSH1 0x20 DUP4 ADD DUP6 PUSH2 0xB1 JUMP JUMPDEST PUSH2 0xFE PUSH1 0x40 DUP4 ADD DUP5 PUSH2 0xC0 JUMP JUMPDEST SWAP5 SWAP4 POP POP POP POP JUMP JUMPDEST PUSH1 0x0 DUP2 ISZERO ISZERO SWAP1 POP SWAP2 SWAP1 POP JUMP JUMPDEST PUSH1 0x0 DUP2 SWAP1 POP SWAP2 SWAP1 POP JUMP INVALID LOG2 PUSH5 0x6970667358 0x22 SLT KECCAK256 0x22 BYTE 0xF8 PUSH15 0x255FD345AD26908CA6B208091973BD 0xBC PUSH23 0xB4E61605001D8707F213C364736F6C6343000806003300 "
				},
				"gasEstimates": {
					"creation": {
						"codeDepositCost": "67600",
						"executionCost": "117",
						"totalCost": "67717"
					},
					"external": {
						"f()": "infinite",
						"g()": "infinite"
					}
				},
				"methodIdentifiers": {
					"f()": "26121ff0",
					"g()": "e2179b8e"
				}
			},
			"storageLayout": {
				"storage": [
					{
						"astId": 3,
						"contract": "study/chapter04/assignment.sol:testAssignment",
						"label": "index",
						"offset": 0,
						"slot": "0",
						"type": "t_uint256"
					}
				],
				"types": {
					"t_uint256": {
						"encoding": "inplace",
						"label": "uint256",
						"numberOfBytes": "32"
					}
				}
			},
			"userdoc": {
				"kind": "user",
				"methods": {},
				"version": 1
			}
		}
	}
}