{
	"study/chapter04/ty.sol": {
		"FeedConsumer": {
			"abi": [
				{
					"inputs": [],
					"name": "errorCount",
					"outputs": [
						{
							"internalType": "uint256",
							"name": "",
							"type": "uint256"
						}
					],
					"stateMutability": "view",
					"type": "function"
				},
				{
					"inputs": [
						{
							"internalType": "address",
							"name": "token",
							"type": "address"
						}
					],
					"name": "rate",
					"outputs": [
						{
							"internalType": "uint256",
							"name": "value",
							"type": "uint256"
						},
						{
							"internalType": "bool",
							"name": "success",
							"type": "bool"
						}
					],
					"stateMutability": "nonpayable",
					"type": "function"
				}
			],
			"devdoc": {
				"kind": "dev",
				"methods": {},
				"version": 1
			},
			"evm": {
				"assembly": "    /* \"study/chapter04/ty.sol\":140:1109  contract FeedConsumer {... */\n  mstore(0x40, 0x80)\n  callvalue\n  dup1\n  iszero\n  tag_1\n  jumpi\n  0x00\n  dup1\n  revert\ntag_1:\n  pop\n  dataSize(sub_0)\n  dup1\n  dataOffset(sub_0)\n  0x00\n  codecopy\n  0x00\n  return\nstop\n\nsub_0: assembly {\n        /* \"study/chapter04/ty.sol\":140:1109  contract FeedConsumer {... */\n      mstore(0x40, 0x80)\n      callvalue\n      dup1\n      iszero\n      tag_1\n      jumpi\n      0x00\n      dup1\n      revert\n    tag_1:\n      pop\n      jumpi(tag_2, lt(calldatasize, 0x04))\n      shr(0xe0, calldataload(0x00))\n      dup1\n      0x0ba9d8ca\n      eq\n      tag_3\n      jumpi\n      dup1\n      0xd38dbee6\n      eq\n      tag_4\n      jumpi\n    tag_2:\n      0x00\n      dup1\n      revert\n        /* \"study/chapter04/ty.sol\":258:1107  function rate(address token) public returns (uint value, bool success) {... */\n    tag_3:\n      tag_5\n      0x04\n      dup1\n      calldatasize\n      sub\n      dup2\n      add\n      swap1\n      tag_6\n      swap2\n      swap1\n      tag_7\n      jump\t// in\n    tag_6:\n      tag_8\n      jump\t// in\n    tag_5:\n      mload(0x40)\n      tag_9\n      swap3\n      swap2\n      swap1\n      tag_10\n      jump\t// in\n    tag_9:\n      mload(0x40)\n      dup1\n      swap2\n      sub\n      swap1\n      return\n        /* \"study/chapter04/ty.sol\":210:232  uint public errorCount */\n    tag_4:\n      tag_11\n      tag_12\n      jump\t// in\n    tag_11:\n      mload(0x40)\n      tag_13\n      swap2\n      swap1\n      tag_14\n      jump\t// in\n    tag_13:\n      mload(0x40)\n      dup1\n      swap2\n      sub\n      swap1\n      return\n        /* \"study/chapter04/ty.sol\":258:1107  function rate(address token) public returns (uint value, bool success) {... */\n    tag_8:\n        /* \"study/chapter04/ty.sol\":303:313  uint value */\n      0x00\n        /* \"study/chapter04/ty.sol\":315:327  bool success */\n      dup1\n        /* \"study/chapter04/ty.sol\":414:416  10 */\n      0x0a\n        /* \"study/chapter04/ty.sol\":401:411  errorCount */\n      sload(0x01)\n        /* \"study/chapter04/ty.sol\":401:416  errorCount < 10 */\n      lt\n        /* \"study/chapter04/ty.sol\":393:417  require(errorCount < 10) */\n      tag_16\n      jumpi\n      0x00\n      dup1\n      revert\n    tag_16:\n        /* \"study/chapter04/ty.sol\":431:435  feed */\n      0x00\n      dup1\n      sload\n      swap1\n      0x0100\n      exp\n      swap1\n      div\n      0xffffffffffffffffffffffffffffffffffffffff\n      and\n        /* \"study/chapter04/ty.sol\":431:443  feed.getData */\n      0xffffffffffffffffffffffffffffffffffffffff\n      and\n      0x38266b22\n        /* \"study/chapter04/ty.sol\":444:449  token */\n      dup5\n        /* \"study/chapter04/ty.sol\":431:450  feed.getData(token) */\n      mload(0x40)\n      dup3\n      0xffffffff\n      and\n      0xe0\n      shl\n      dup2\n      mstore\n      0x04\n      add\n      tag_17\n      swap2\n      swap1\n      tag_18\n      jump\t// in\n    tag_17:\n      0x20\n      mload(0x40)\n      dup1\n      dup4\n      sub\n      dup2\n      0x00\n      dup8\n      gas\n      call\n      swap3\n      pop\n      pop\n      pop\n      dup1\n      iszero\n      tag_19\n      jumpi\n      pop\n      mload(0x40)\n      returndatasize\n      not(0x1f)\n      0x1f\n      dup3\n      add\n      and\n      dup3\n      add\n      dup1\n      0x40\n      mstore\n      pop\n      dup2\n      add\n      swap1\n      tag_20\n      swap2\n      swap1\n      tag_21\n      jump\t// in\n    tag_20:\n      0x01\n    tag_19:\n        /* \"study/chapter04/ty.sol\":427:1101  try feed.getData(token) returns (uint v) {//尝试调用 外部的 getData 函数，执行成功就获得返回值，然后继续执行花括号内的内容... */\n      tag_22\n      jumpi\n      tag_26\n      tag_27\n      jump\t// in\n    tag_26:\n      dup1\n      0x08c379a0\n      sub\n      tag_25\n      jumpi\n      pop\n      tag_28\n      tag_29\n      jump\t// in\n    tag_28:\n      dup1\n      tag_30\n      jumpi\n      pop\n      jump(tag_24)\n    tag_30:\n        /* \"study/chapter04/ty.sol\":754:764  errorCount */\n      0x01\n      0x00\n        /* \"study/chapter04/ty.sol\":754:766  errorCount++ */\n      dup2\n      sload\n      dup1\n      swap3\n      swap2\n      swap1\n      tag_31\n      swap1\n      tag_32\n      jump\t// in\n    tag_31:\n      swap2\n      swap1\n      pop\n      sstore\n      pop\n        /* \"study/chapter04/ty.sol\":788:789  0 */\n      0x00\n        /* \"study/chapter04/ty.sol\":791:796  false */\n      dup1\n        /* \"study/chapter04/ty.sol\":780:797  return (0, false) */\n      swap3\n      pop\n      swap3\n      pop\n      pop\n      jump(tag_15)\n        /* \"study/chapter04/ty.sol\":427:1101  try feed.getData(token) returns (uint v) {//尝试调用 外部的 getData 函数，执行成功就获得返回值，然后继续执行花括号内的内容... */\n    tag_25:\n      0x4e487b71\n      sub\n      tag_24\n      jumpi\n      tag_33\n      tag_34\n      jump\t// in\n    tag_33:\n      swap1\n      tag_35\n      jumpi\n      pop\n      jump(tag_24)\n    tag_35:\n        /* \"study/chapter04/ty.sol\":891:901  errorCount */\n      0x01\n      0x00\n        /* \"study/chapter04/ty.sol\":891:903  errorCount++ */\n      dup2\n      sload\n      dup1\n      swap3\n      swap2\n      swap1\n      tag_36\n      swap1\n      tag_32\n      jump\t// in\n    tag_36:\n      swap2\n      swap1\n      pop\n      sstore\n      pop\n        /* \"study/chapter04/ty.sol\":925:926  0 */\n      0x00\n        /* \"study/chapter04/ty.sol\":928:933  false */\n      dup1\n        /* \"study/chapter04/ty.sol\":917:934  return (0, false) */\n      swap3\n      pop\n      swap3\n      pop\n      pop\n      jump(tag_15)\n        /* \"study/chapter04/ty.sol\":427:1101  try feed.getData(token) returns (uint v) {//尝试调用 外部的 getData 函数，执行成功就获得返回值，然后继续执行花括号内的内容... */\n    tag_24:\n      returndatasize\n      dup1\n      0x00\n      dup2\n      eq\n      tag_38\n      jumpi\n      mload(0x40)\n      swap2\n      pop\n      and(add(returndatasize, 0x3f), not(0x1f))\n      dup3\n      add\n      0x40\n      mstore\n      returndatasize\n      dup3\n      mstore\n      returndatasize\n      0x00\n      0x20\n      dup5\n      add\n      returndatacopy\n      jump(tag_37)\n    tag_38:\n      0x60\n      swap2\n      pop\n    tag_37:\n      pop\n        /* \"study/chapter04/ty.sol\":1047:1057  errorCount */\n      0x01\n      0x00\n        /* \"study/chapter04/ty.sol\":1047:1059  errorCount++ */\n      dup2\n      sload\n      dup1\n      swap3\n      swap2\n      swap1\n      tag_39\n      swap1\n      tag_32\n      jump\t// in\n    tag_39:\n      swap2\n      swap1\n      pop\n      sstore\n      pop\n        /* \"study/chapter04/ty.sol\":1081:1082  0 */\n      0x00\n        /* \"study/chapter04/ty.sol\":1084:1089  false */\n      dup1\n        /* \"study/chapter04/ty.sol\":1073:1090  return (0, false) */\n      swap3\n      pop\n      swap3\n      pop\n      pop\n      jump(tag_15)\n        /* \"study/chapter04/ty.sol\":427:1101  try feed.getData(token) returns (uint v) {//尝试调用 外部的 getData 函数，执行成功就获得返回值，然后继续执行花括号内的内容... */\n    tag_22:\n        /* \"study/chapter04/ty.sol\":604:605  v */\n      dup1\n        /* \"study/chapter04/ty.sol\":607:611  true */\n      0x01\n        /* \"study/chapter04/ty.sol\":596:612  return (v, true) */\n      swap3\n      pop\n      swap3\n      pop\n      pop\n        /* \"study/chapter04/ty.sol\":258:1107  function rate(address token) public returns (uint value, bool success) {... */\n    tag_15:\n      swap2\n      pop\n      swap2\n      jump\t// out\n        /* \"study/chapter04/ty.sol\":210:232  uint public errorCount */\n    tag_12:\n      sload(0x01)\n      dup2\n      jump\t// out\n        /* \"#utility.yul\":7:82   */\n    tag_41:\n        /* \"#utility.yul\":40:46   */\n      0x00\n        /* \"#utility.yul\":73:75   */\n      0x40\n        /* \"#utility.yul\":67:76   */\n      mload\n        /* \"#utility.yul\":57:76   */\n      swap1\n      pop\n        /* \"#utility.yul\":7:82   */\n      swap1\n      jump\t// out\n        /* \"#utility.yul\":88:205   */\n    tag_42:\n        /* \"#utility.yul\":197:198   */\n      0x00\n        /* \"#utility.yul\":194:195   */\n      dup1\n        /* \"#utility.yul\":187:199   */\n      revert\n        /* \"#utility.yul\":334:460   */\n    tag_44:\n        /* \"#utility.yul\":371:378   */\n      0x00\n        /* \"#utility.yul\":411:453   */\n      0xffffffffffffffffffffffffffffffffffffffff\n        /* \"#utility.yul\":404:409   */\n      dup3\n        /* \"#utility.yul\":400:454   */\n      and\n        /* \"#utility.yul\":389:454   */\n      swap1\n      pop\n        /* \"#utility.yul\":334:460   */\n      swap2\n      swap1\n      pop\n      jump\t// out\n        /* \"#utility.yul\":466:562   */\n    tag_45:\n        /* \"#utility.yul\":503:510   */\n      0x00\n        /* \"#utility.yul\":532:556   */\n      tag_66\n        /* \"#utility.yul\":550:555   */\n      dup3\n        /* \"#utility.yul\":532:556   */\n      tag_44\n      jump\t// in\n    tag_66:\n        /* \"#utility.yul\":521:556   */\n      swap1\n      pop\n        /* \"#utility.yul\":466:562   */\n      swap2\n      swap1\n      pop\n      jump\t// out\n        /* \"#utility.yul\":568:690   */\n    tag_46:\n        /* \"#utility.yul\":641:665   */\n      tag_68\n        /* \"#utility.yul\":659:664   */\n      dup2\n        /* \"#utility.yul\":641:665   */\n      tag_45\n      jump\t// in\n    tag_68:\n        /* \"#utility.yul\":634:639   */\n      dup2\n        /* \"#utility.yul\":631:666   */\n      eq\n        /* \"#utility.yul\":621:684   */\n      tag_69\n      jumpi\n        /* \"#utility.yul\":680:681   */\n      0x00\n        /* \"#utility.yul\":677:678   */\n      dup1\n        /* \"#utility.yul\":670:682   */\n      revert\n        /* \"#utility.yul\":621:684   */\n    tag_69:\n        /* \"#utility.yul\":568:690   */\n      pop\n      jump\t// out\n        /* \"#utility.yul\":696:835   */\n    tag_47:\n        /* \"#utility.yul\":742:747   */\n      0x00\n        /* \"#utility.yul\":780:786   */\n      dup2\n        /* \"#utility.yul\":767:787   */\n      calldataload\n        /* \"#utility.yul\":758:787   */\n      swap1\n      pop\n        /* \"#utility.yul\":796:829   */\n      tag_71\n        /* \"#utility.yul\":823:828   */\n      dup2\n        /* \"#utility.yul\":796:829   */\n      tag_46\n      jump\t// in\n    tag_71:\n        /* \"#utility.yul\":696:835   */\n      swap3\n      swap2\n      pop\n      pop\n      jump\t// out\n        /* \"#utility.yul\":841:1170   */\n    tag_7:\n        /* \"#utility.yul\":900:906   */\n      0x00\n        /* \"#utility.yul\":949:951   */\n      0x20\n        /* \"#utility.yul\":937:946   */\n      dup3\n        /* \"#utility.yul\":928:935   */\n      dup5\n        /* \"#utility.yul\":924:947   */\n      sub\n        /* \"#utility.yul\":920:952   */\n      slt\n        /* \"#utility.yul\":917:1036   */\n      iszero\n      tag_73\n      jumpi\n        /* \"#utility.yul\":955:1034   */\n      tag_74\n      tag_42\n      jump\t// in\n    tag_74:\n        /* \"#utility.yul\":917:1036   */\n    tag_73:\n        /* \"#utility.yul\":1075:1076   */\n      0x00\n        /* \"#utility.yul\":1100:1153   */\n      tag_75\n        /* \"#utility.yul\":1145:1152   */\n      dup5\n        /* \"#utility.yul\":1136:1142   */\n      dup3\n        /* \"#utility.yul\":1125:1134   */\n      dup6\n        /* \"#utility.yul\":1121:1143   */\n      add\n        /* \"#utility.yul\":1100:1153   */\n      tag_47\n      jump\t// in\n    tag_75:\n        /* \"#utility.yul\":1090:1153   */\n      swap2\n      pop\n        /* \"#utility.yul\":1046:1163   */\n      pop\n        /* \"#utility.yul\":841:1170   */\n      swap3\n      swap2\n      pop\n      pop\n      jump\t// out\n        /* \"#utility.yul\":1176:1253   */\n    tag_48:\n        /* \"#utility.yul\":1213:1220   */\n      0x00\n        /* \"#utility.yul\":1242:1247   */\n      dup2\n        /* \"#utility.yul\":1231:1247   */\n      swap1\n      pop\n        /* \"#utility.yul\":1176:1253   */\n      swap2\n      swap1\n      pop\n      jump\t// out\n        /* \"#utility.yul\":1259:1377   */\n    tag_49:\n        /* \"#utility.yul\":1346:1370   */\n      tag_78\n        /* \"#utility.yul\":1364:1369   */\n      dup2\n        /* \"#utility.yul\":1346:1370   */\n      tag_48\n      jump\t// in\n    tag_78:\n        /* \"#utility.yul\":1341:1344   */\n      dup3\n        /* \"#utility.yul\":1334:1371   */\n      mstore\n        /* \"#utility.yul\":1259:1377   */\n      pop\n      pop\n      jump\t// out\n        /* \"#utility.yul\":1383:1473   */\n    tag_50:\n        /* \"#utility.yul\":1417:1424   */\n      0x00\n        /* \"#utility.yul\":1460:1465   */\n      dup2\n        /* \"#utility.yul\":1453:1466   */\n      iszero\n        /* \"#utility.yul\":1446:1467   */\n      iszero\n        /* \"#utility.yul\":1435:1467   */\n      swap1\n      pop\n        /* \"#utility.yul\":1383:1473   */\n      swap2\n      swap1\n      pop\n      jump\t// out\n        /* \"#utility.yul\":1479:1588   */\n    tag_51:\n        /* \"#utility.yul\":1560:1581   */\n      tag_81\n        /* \"#utility.yul\":1575:1580   */\n      dup2\n        /* \"#utility.yul\":1560:1581   */\n      tag_50\n      jump\t// in\n    tag_81:\n        /* \"#utility.yul\":1555:1558   */\n      dup3\n        /* \"#utility.yul\":1548:1582   */\n      mstore\n        /* \"#utility.yul\":1479:1588   */\n      pop\n      pop\n      jump\t// out\n        /* \"#utility.yul\":1594:1914   */\n    tag_10:\n        /* \"#utility.yul\":1709:1713   */\n      0x00\n        /* \"#utility.yul\":1747:1749   */\n      0x40\n        /* \"#utility.yul\":1736:1745   */\n      dup3\n        /* \"#utility.yul\":1732:1750   */\n      add\n        /* \"#utility.yul\":1724:1750   */\n      swap1\n      pop\n        /* \"#utility.yul\":1760:1831   */\n      tag_83\n        /* \"#utility.yul\":1828:1829   */\n      0x00\n        /* \"#utility.yul\":1817:1826   */\n      dup4\n        /* \"#utility.yul\":1813:1830   */\n      add\n        /* \"#utility.yul\":1804:1810   */\n      dup6\n        /* \"#utility.yul\":1760:1831   */\n      tag_49\n      jump\t// in\n    tag_83:\n        /* \"#utility.yul\":1841:1907   */\n      tag_84\n        /* \"#utility.yul\":1903:1905   */\n      0x20\n        /* \"#utility.yul\":1892:1901   */\n      dup4\n        /* \"#utility.yul\":1888:1906   */\n      add\n        /* \"#utility.yul\":1879:1885   */\n      dup5\n        /* \"#utility.yul\":1841:1907   */\n      tag_51\n      jump\t// in\n    tag_84:\n        /* \"#utility.yul\":1594:1914   */\n      swap4\n      swap3\n      pop\n      pop\n      pop\n      jump\t// out\n        /* \"#utility.yul\":1920:2142   */\n    tag_14:\n        /* \"#utility.yul\":2013:2017   */\n      0x00\n        /* \"#utility.yul\":2051:2053   */\n      0x20\n        /* \"#utility.yul\":2040:2049   */\n      dup3\n        /* \"#utility.yul\":2036:2054   */\n      add\n        /* \"#utility.yul\":2028:2054   */\n      swap1\n      pop\n        /* \"#utility.yul\":2064:2135   */\n      tag_86\n        /* \"#utility.yul\":2132:2133   */\n      0x00\n        /* \"#utility.yul\":2121:2130   */\n      dup4\n        /* \"#utility.yul\":2117:2134   */\n      add\n        /* \"#utility.yul\":2108:2114   */\n      dup5\n        /* \"#utility.yul\":2064:2135   */\n      tag_49\n      jump\t// in\n    tag_86:\n        /* \"#utility.yul\":1920:2142   */\n      swap3\n      swap2\n      pop\n      pop\n      jump\t// out\n        /* \"#utility.yul\":2148:2266   */\n    tag_52:\n        /* \"#utility.yul\":2235:2259   */\n      tag_88\n        /* \"#utility.yul\":2253:2258   */\n      dup2\n        /* \"#utility.yul\":2235:2259   */\n      tag_45\n      jump\t// in\n    tag_88:\n        /* \"#utility.yul\":2230:2233   */\n      dup3\n        /* \"#utility.yul\":2223:2260   */\n      mstore\n        /* \"#utility.yul\":2148:2266   */\n      pop\n      pop\n      jump\t// out\n        /* \"#utility.yul\":2272:2494   */\n    tag_18:\n        /* \"#utility.yul\":2365:2369   */\n      0x00\n        /* \"#utility.yul\":2403:2405   */\n      0x20\n        /* \"#utility.yul\":2392:2401   */\n      dup3\n        /* \"#utility.yul\":2388:2406   */\n      add\n        /* \"#utility.yul\":2380:2406   */\n      swap1\n      pop\n        /* \"#utility.yul\":2416:2487   */\n      tag_90\n        /* \"#utility.yul\":2484:2485   */\n      0x00\n        /* \"#utility.yul\":2473:2482   */\n      dup4\n        /* \"#utility.yul\":2469:2486   */\n      add\n        /* \"#utility.yul\":2460:2466   */\n      dup5\n        /* \"#utility.yul\":2416:2487   */\n      tag_52\n      jump\t// in\n    tag_90:\n        /* \"#utility.yul\":2272:2494   */\n      swap3\n      swap2\n      pop\n      pop\n      jump\t// out\n        /* \"#utility.yul\":2500:2622   */\n    tag_53:\n        /* \"#utility.yul\":2573:2597   */\n      tag_92\n        /* \"#utility.yul\":2591:2596   */\n      dup2\n        /* \"#utility.yul\":2573:2597   */\n      tag_48\n      jump\t// in\n    tag_92:\n        /* \"#utility.yul\":2566:2571   */\n      dup2\n        /* \"#utility.yul\":2563:2598   */\n      eq\n        /* \"#utility.yul\":2553:2616   */\n      tag_93\n      jumpi\n        /* \"#utility.yul\":2612:2613   */\n      0x00\n        /* \"#utility.yul\":2609:2610   */\n      dup1\n        /* \"#utility.yul\":2602:2614   */\n      revert\n        /* \"#utility.yul\":2553:2616   */\n    tag_93:\n        /* \"#utility.yul\":2500:2622   */\n      pop\n      jump\t// out\n        /* \"#utility.yul\":2628:2771   */\n    tag_54:\n        /* \"#utility.yul\":2685:2690   */\n      0x00\n        /* \"#utility.yul\":2716:2722   */\n      dup2\n        /* \"#utility.yul\":2710:2723   */\n      mload\n        /* \"#utility.yul\":2701:2723   */\n      swap1\n      pop\n        /* \"#utility.yul\":2732:2765   */\n      tag_95\n        /* \"#utility.yul\":2759:2764   */\n      dup2\n        /* \"#utility.yul\":2732:2765   */\n      tag_53\n      jump\t// in\n    tag_95:\n        /* \"#utility.yul\":2628:2771   */\n      swap3\n      swap2\n      pop\n      pop\n      jump\t// out\n        /* \"#utility.yul\":2777:3128   */\n    tag_21:\n        /* \"#utility.yul\":2847:2853   */\n      0x00\n        /* \"#utility.yul\":2896:2898   */\n      0x20\n        /* \"#utility.yul\":2884:2893   */\n      dup3\n        /* \"#utility.yul\":2875:2882   */\n      dup5\n        /* \"#utility.yul\":2871:2894   */\n      sub\n        /* \"#utility.yul\":2867:2899   */\n      slt\n        /* \"#utility.yul\":2864:2983   */\n      iszero\n      tag_97\n      jumpi\n        /* \"#utility.yul\":2902:2981   */\n      tag_98\n      tag_42\n      jump\t// in\n    tag_98:\n        /* \"#utility.yul\":2864:2983   */\n    tag_97:\n        /* \"#utility.yul\":3022:3023   */\n      0x00\n        /* \"#utility.yul\":3047:3111   */\n      tag_99\n        /* \"#utility.yul\":3103:3110   */\n      dup5\n        /* \"#utility.yul\":3094:3100   */\n      dup3\n        /* \"#utility.yul\":3083:3092   */\n      dup6\n        /* \"#utility.yul\":3079:3101   */\n      add\n        /* \"#utility.yul\":3047:3111   */\n      tag_54\n      jump\t// in\n    tag_99:\n        /* \"#utility.yul\":3037:3111   */\n      swap2\n      pop\n        /* \"#utility.yul\":2993:3121   */\n      pop\n        /* \"#utility.yul\":2777:3128   */\n      swap3\n      swap2\n      pop\n      pop\n      jump\t// out\n        /* \"#utility.yul\":3134:3240   */\n    tag_55:\n        /* \"#utility.yul\":3178:3186   */\n      0x00\n        /* \"#utility.yul\":3227:3232   */\n      dup2\n        /* \"#utility.yul\":3222:3225   */\n      0xe0\n        /* \"#utility.yul\":3218:3233   */\n      shr\n        /* \"#utility.yul\":3197:3233   */\n      swap1\n      pop\n        /* \"#utility.yul\":3134:3240   */\n      swap2\n      swap1\n      pop\n      jump\t// out\n        /* \"#utility.yul\":3246:3429   */\n    tag_27:\n        /* \"#utility.yul\":3281:3284   */\n      0x00\n        /* \"#utility.yul\":3319:3320   */\n      0x03\n        /* \"#utility.yul\":3301:3317   */\n      returndatasize\n        /* \"#utility.yul\":3298:3321   */\n      gt\n        /* \"#utility.yul\":3295:3423   */\n      iszero\n      tag_102\n      jumpi\n        /* \"#utility.yul\":3357:3358   */\n      0x04\n        /* \"#utility.yul\":3354:3355   */\n      0x00\n        /* \"#utility.yul\":3351:3352   */\n      dup1\n        /* \"#utility.yul\":3336:3359   */\n      returndatacopy\n        /* \"#utility.yul\":3379:3413   */\n      tag_103\n        /* \"#utility.yul\":3410:3411   */\n      0x00\n        /* \"#utility.yul\":3404:3412   */\n      mload\n        /* \"#utility.yul\":3379:3413   */\n      tag_55\n      jump\t// in\n    tag_103:\n        /* \"#utility.yul\":3372:3413   */\n      swap1\n      pop\n        /* \"#utility.yul\":3295:3423   */\n    tag_102:\n        /* \"#utility.yul\":3246:3429   */\n      swap1\n      jump\t// out\n        /* \"#utility.yul\":3435:3537   */\n    tag_56:\n        /* \"#utility.yul\":3476:3482   */\n      0x00\n        /* \"#utility.yul\":3527:3529   */\n      0x1f\n        /* \"#utility.yul\":3523:3530   */\n      not\n        /* \"#utility.yul\":3518:3520   */\n      0x1f\n        /* \"#utility.yul\":3511:3516   */\n      dup4\n        /* \"#utility.yul\":3507:3521   */\n      add\n        /* \"#utility.yul\":3503:3531   */\n      and\n        /* \"#utility.yul\":3493:3531   */\n      swap1\n      pop\n        /* \"#utility.yul\":3435:3537   */\n      swap2\n      swap1\n      pop\n      jump\t// out\n        /* \"#utility.yul\":3543:3723   */\n    tag_57:\n        /* \"#utility.yul\":3591:3668   */\n      0x4e487b7100000000000000000000000000000000000000000000000000000000\n        /* \"#utility.yul\":3588:3589   */\n      0x00\n        /* \"#utility.yul\":3581:3669   */\n      mstore\n        /* \"#utility.yul\":3688:3692   */\n      0x41\n        /* \"#utility.yul\":3685:3686   */\n      0x04\n        /* \"#utility.yul\":3678:3693   */\n      mstore\n        /* \"#utility.yul\":3712:3716   */\n      0x24\n        /* \"#utility.yul\":3709:3710   */\n      0x00\n        /* \"#utility.yul\":3702:3717   */\n      revert\n        /* \"#utility.yul\":3729:4010   */\n    tag_58:\n        /* \"#utility.yul\":3812:3839   */\n      tag_107\n        /* \"#utility.yul\":3834:3838   */\n      dup3\n        /* \"#utility.yul\":3812:3839   */\n      tag_56\n      jump\t// in\n    tag_107:\n        /* \"#utility.yul\":3804:3810   */\n      dup2\n        /* \"#utility.yul\":3800:3840   */\n      add\n        /* \"#utility.yul\":3942:3948   */\n      dup2\n        /* \"#utility.yul\":3930:3940   */\n      dup2\n        /* \"#utility.yul\":3927:3949   */\n      lt\n        /* \"#utility.yul\":3906:3924   */\n      0xffffffffffffffff\n        /* \"#utility.yul\":3894:3904   */\n      dup3\n        /* \"#utility.yul\":3891:3925   */\n      gt\n        /* \"#utility.yul\":3888:3950   */\n      or\n        /* \"#utility.yul\":3885:3973   */\n      iszero\n      tag_108\n      jumpi\n        /* \"#utility.yul\":3953:3971   */\n      tag_109\n      tag_57\n      jump\t// in\n    tag_109:\n        /* \"#utility.yul\":3885:3973   */\n    tag_108:\n        /* \"#utility.yul\":3993:4003   */\n      dup1\n        /* \"#utility.yul\":3989:3991   */\n      0x40\n        /* \"#utility.yul\":3982:4004   */\n      mstore\n        /* \"#utility.yul\":3772:4010   */\n      pop\n        /* \"#utility.yul\":3729:4010   */\n      pop\n      pop\n      jump\t// out\n        /* \"#utility.yul\":4016:4727   */\n    tag_29:\n        /* \"#utility.yul\":4055:4058   */\n      0x00\n        /* \"#utility.yul\":4093:4097   */\n      0x44\n        /* \"#utility.yul\":4075:4091   */\n      returndatasize\n        /* \"#utility.yul\":4072:4098   */\n      lt\n        /* \"#utility.yul\":4101:4106   */\n      tag_110\n        /* \"#utility.yul\":4069:4108   */\n      jumpi\n        /* \"#utility.yul\":4130:4150   */\n      tag_112\n      tag_41\n      jump\t// in\n    tag_112:\n        /* \"#utility.yul\":4205:4206   */\n      0x04\n        /* \"#utility.yul\":4187:4203   */\n      returndatasize\n        /* \"#utility.yul\":4183:4207   */\n      sub\n        /* \"#utility.yul\":4180:4181   */\n      0x04\n        /* \"#utility.yul\":4174:4178   */\n      dup3\n        /* \"#utility.yul\":4159:4208   */\n      returndatacopy\n        /* \"#utility.yul\":4238:4242   */\n      dup1\n        /* \"#utility.yul\":4232:4243   */\n      mload\n        /* \"#utility.yul\":4337:4353   */\n      returndatasize\n        /* \"#utility.yul\":4330:4334   */\n      0x24\n        /* \"#utility.yul\":4322:4328   */\n      dup3\n        /* \"#utility.yul\":4318:4335   */\n      add\n        /* \"#utility.yul\":4315:4354   */\n      gt\n        /* \"#utility.yul\":4282:4300   */\n      0xffffffffffffffff\n        /* \"#utility.yul\":4274:4280   */\n      dup3\n        /* \"#utility.yul\":4271:4301   */\n      gt\n        /* \"#utility.yul\":4255:4368   */\n      or\n        /* \"#utility.yul\":4252:4398   */\n      iszero\n      tag_113\n      jumpi\n        /* \"#utility.yul\":4383:4388   */\n      pop\n      pop\n      jump(tag_110)\n        /* \"#utility.yul\":4252:4398   */\n    tag_113:\n        /* \"#utility.yul\":4429:4435   */\n      dup1\n        /* \"#utility.yul\":4423:4427   */\n      dup3\n        /* \"#utility.yul\":4419:4436   */\n      add\n        /* \"#utility.yul\":4465:4468   */\n      dup1\n        /* \"#utility.yul\":4459:4469   */\n      mload\n        /* \"#utility.yul\":4492:4510   */\n      0xffffffffffffffff\n        /* \"#utility.yul\":4484:4490   */\n      dup2\n        /* \"#utility.yul\":4481:4511   */\n      gt\n        /* \"#utility.yul\":4478:4521   */\n      iszero\n      tag_114\n      jumpi\n        /* \"#utility.yul\":4514:4519   */\n      pop\n      pop\n      pop\n      pop\n      jump(tag_110)\n        /* \"#utility.yul\":4478:4521   */\n    tag_114:\n        /* \"#utility.yul\":4562:4568   */\n      dup1\n        /* \"#utility.yul\":4555:4559   */\n      0x20\n        /* \"#utility.yul\":4550:4553   */\n      dup4\n        /* \"#utility.yul\":4546:4560   */\n      add\n        /* \"#utility.yul\":4542:4569   */\n      add\n        /* \"#utility.yul\":4621:4622   */\n      0x04\n        /* \"#utility.yul\":4603:4619   */\n      returndatasize\n        /* \"#utility.yul\":4599:4623   */\n      sub\n        /* \"#utility.yul\":4593:4597   */\n      dup6\n        /* \"#utility.yul\":4589:4624   */\n      add\n        /* \"#utility.yul\":4584:4587   */\n      dup2\n        /* \"#utility.yul\":4581:4625   */\n      gt\n        /* \"#utility.yul\":4578:4635   */\n      iszero\n      tag_115\n      jumpi\n        /* \"#utility.yul\":4628:4633   */\n      pop\n      pop\n      pop\n      pop\n      pop\n      jump(tag_110)\n        /* \"#utility.yul\":4578:4635   */\n    tag_115:\n        /* \"#utility.yul\":4645:4702   */\n      tag_116\n        /* \"#utility.yul\":4693:4699   */\n      dup3\n        /* \"#utility.yul\":4687:4691   */\n      0x20\n        /* \"#utility.yul\":4683:4700   */\n      add\n        /* \"#utility.yul\":4675:4681   */\n      dup6\n        /* \"#utility.yul\":4671:4701   */\n      add\n        /* \"#utility.yul\":4665:4669   */\n      dup7\n        /* \"#utility.yul\":4645:4702   */\n      tag_58\n      jump\t// in\n    tag_116:\n        /* \"#utility.yul\":4718:4721   */\n      dup3\n        /* \"#utility.yul\":4711:4721   */\n      swap6\n      pop\n        /* \"#utility.yul\":4059:4727   */\n      pop\n      pop\n      pop\n      pop\n      pop\n        /* \"#utility.yul\":4016:4727   */\n    tag_110:\n      swap1\n      jump\t// out\n        /* \"#utility.yul\":4733:4913   */\n    tag_59:\n        /* \"#utility.yul\":4781:4858   */\n      0x4e487b7100000000000000000000000000000000000000000000000000000000\n        /* \"#utility.yul\":4778:4779   */\n      0x00\n        /* \"#utility.yul\":4771:4859   */\n      mstore\n        /* \"#utility.yul\":4878:4882   */\n      0x11\n        /* \"#utility.yul\":4875:4876   */\n      0x04\n        /* \"#utility.yul\":4868:4883   */\n      mstore\n        /* \"#utility.yul\":4902:4906   */\n      0x24\n        /* \"#utility.yul\":4899:4900   */\n      0x00\n        /* \"#utility.yul\":4892:4907   */\n      revert\n        /* \"#utility.yul\":4919:5152   */\n    tag_32:\n        /* \"#utility.yul\":4958:4961   */\n      0x00\n        /* \"#utility.yul\":4981:5005   */\n      tag_119\n        /* \"#utility.yul\":4999:5004   */\n      dup3\n        /* \"#utility.yul\":4981:5005   */\n      tag_48\n      jump\t// in\n    tag_119:\n        /* \"#utility.yul\":4972:5005   */\n      swap2\n      pop\n        /* \"#utility.yul\":5027:5093   */\n      0xffffffffffffffffffffffffffffffffffffffffffffffffffffffffffffffff\n        /* \"#utility.yul\":5020:5025   */\n      dup3\n        /* \"#utility.yul\":5017:5094   */\n      sub\n        /* \"#utility.yul\":5014:5117   */\n      tag_120\n      jumpi\n        /* \"#utility.yul\":5097:5115   */\n      tag_121\n      tag_59\n      jump\t// in\n    tag_121:\n        /* \"#utility.yul\":5014:5117   */\n    tag_120:\n        /* \"#utility.yul\":5144:5145   */\n      0x01\n        /* \"#utility.yul\":5137:5142   */\n      dup3\n        /* \"#utility.yul\":5133:5146   */\n      add\n        /* \"#utility.yul\":5126:5146   */\n      swap1\n      pop\n        /* \"#utility.yul\":4919:5152   */\n      swap2\n      swap1\n      pop\n      jump\t// out\n        /* \"#utility.yul\":5158:5358   */\n    tag_34:\n        /* \"#utility.yul\":5194:5201   */\n      0x00\n        /* \"#utility.yul\":5203:5207   */\n      dup1\n        /* \"#utility.yul\":5242:5246   */\n      0x23\n        /* \"#utility.yul\":5224:5240   */\n      returndatasize\n        /* \"#utility.yul\":5221:5247   */\n      gt\n        /* \"#utility.yul\":5218:5352   */\n      iszero\n      tag_123\n      jumpi\n        /* \"#utility.yul\":5283:5287   */\n      0x20\n        /* \"#utility.yul\":5280:5281   */\n      0x04\n        /* \"#utility.yul\":5277:5278   */\n      0x00\n        /* \"#utility.yul\":5262:5288   */\n      returndatacopy\n        /* \"#utility.yul\":5312:5313   */\n      0x01\n        /* \"#utility.yul\":5301:5313   */\n      swap2\n      pop\n        /* \"#utility.yul\":5340:5341   */\n      0x00\n        /* \"#utility.yul\":5334:5342   */\n      mload\n        /* \"#utility.yul\":5326:5342   */\n      swap1\n      pop\n        /* \"#utility.yul\":5218:5352   */\n    tag_123:\n        /* \"#utility.yul\":5158:5358   */\n      swap1\n      swap2\n      jump\t// out\n\n    auxdata: 0xa2646970667358221220721f376a0005532ab4cb2250b1e1a4f988323c90a053d7094789a2d6f3dfea0b64736f6c634300080f0033\n}\n",
				"bytecode": {
					"linkReferences": {},
					"object": "608060405234801561001057600080fd5b506105c1806100206000396000f3fe608060405234801561001057600080fd5b50600436106100365760003560e01c80630ba9d8ca1461003b578063d38dbee61461006c575b600080fd5b6100556004803603810190610050919061029b565b61008a565b6040516100639291906102fc565b60405180910390f35b610074610228565b6040516100819190610325565b60405180910390f35b600080600a6001541061009c57600080fd5b60008054906101000a900473ffffffffffffffffffffffffffffffffffffffff1673ffffffffffffffffffffffffffffffffffffffff166338266b22846040518263ffffffff1660e01b81526004016100f5919061034f565b6020604051808303816000875af192505050801561013157506040513d601f19601f8201168201806040525081019061012e9190610396565b60015b61021a5761013d6103d0565b806308c379a0036101815750610151610463565b8061015c57506101c3565b6001600081548092919061016f90610522565b91905055506000809250925050610223565b634e487b71036101c35761019361056a565b9061019e57506101c3565b600160008154809291906101b190610522565b91905055506000809250925050610223565b3d80600081146101ef576040519150601f19603f3d011682016040523d82523d6000602084013e6101f4565b606091505b506001600081548092919061020890610522565b91905055506000809250925050610223565b80600192509250505b915091565b60015481565b6000604051905090565b600080fd5b600073ffffffffffffffffffffffffffffffffffffffff82169050919050565b60006102688261023d565b9050919050565b6102788161025d565b811461028357600080fd5b50565b6000813590506102958161026f565b92915050565b6000602082840312156102b1576102b0610238565b5b60006102bf84828501610286565b91505092915050565b6000819050919050565b6102db816102c8565b82525050565b60008115159050919050565b6102f6816102e1565b82525050565b600060408201905061031160008301856102d2565b61031e60208301846102ed565b9392505050565b600060208201905061033a60008301846102d2565b92915050565b6103498161025d565b82525050565b60006020820190506103646000830184610340565b92915050565b610373816102c8565b811461037e57600080fd5b50565b6000815190506103908161036a565b92915050565b6000602082840312156103ac576103ab610238565b5b60006103ba84828501610381565b91505092915050565b60008160e01c9050919050565b600060033d11156103ef5760046000803e6103ec6000516103c3565b90505b90565b6000601f19601f8301169050919050565b7f4e487b7100000000000000000000000000000000000000000000000000000000600052604160045260246000fd5b61043b826103f2565b810181811067ffffffffffffffff8211171561045a57610459610403565b5b80604052505050565b600060443d106104f05761047561022e565b60043d036004823e80513d602482011167ffffffffffffffff8211171561049d5750506104f0565b808201805167ffffffffffffffff8111156104bb57505050506104f0565b80602083010160043d0385018111156104d85750505050506104f0565b6104e782602001850186610432565b82955050505050505b90565b7f4e487b7100000000000000000000000000000000000000000000000000000000600052601160045260246000fd5b600061052d826102c8565b91507fffffffffffffffffffffffffffffffffffffffffffffffffffffffffffffffff820361055f5761055e6104f3565b5b600182019050919050565b60008060233d1115610587576020600460003e6001915060005190505b909156fea2646970667358221220721f376a0005532ab4cb2250b1e1a4f988323c90a053d7094789a2d6f3dfea0b64736f6c634300080f0033",
					"opcodes": "PUSH1 0x80 PUSH1 0x40 MSTORE CALLVALUE DUP1 ISZERO PUSH2 0x10 JUMPI PUSH1 0x0 DUP1 REVERT JUMPDEST POP PUSH2 0x5C1 DUP1 PUSH2 0x20 PUSH1 0x0 CODECOPY PUSH1 0x0 RETURN INVALID PUSH1 0x80 PUSH1 0x40 MSTORE CALLVALUE DUP1 ISZERO PUSH2 0x10 JUMPI PUSH1 0x0 DUP1 REVERT JUMPDEST POP PUSH1 0x4 CALLDATASIZE LT PUSH2 0x36 JUMPI PUSH1 0x0 CALLDATALOAD PUSH1 0xE0 SHR DUP1 PUSH4 0xBA9D8CA EQ PUSH2 0x3B JUMPI DUP1 PUSH4 0xD38DBEE6 EQ PUSH2 0x6C JUMPI JUMPDEST PUSH1 0x0 DUP1 REVERT JUMPDEST PUSH2 0x55 PUSH1 0x4 DUP1 CALLDATASIZE SUB DUP2 ADD SWAP1 PUSH2 0x50 SWAP2 SWAP1 PUSH2 0x29B JUMP JUMPDEST PUSH2 0x8A JUMP JUMPDEST PUSH1 0x40 MLOAD PUSH2 0x63 SWAP3 SWAP2 SWAP1 PUSH2 0x2FC JUMP JUMPDEST PUSH1 0x40 MLOAD DUP1 SWAP2 SUB SWAP1 RETURN JUMPDEST PUSH2 0x74 PUSH2 0x228 JUMP JUMPDEST PUSH1 0x40 MLOAD PUSH2 0x81 SWAP2 SWAP1 PUSH2 0x325 JUMP JUMPDEST PUSH1 0x40 MLOAD DUP1 SWAP2 SUB SWAP1 RETURN JUMPDEST PUSH1 0x0 DUP1 PUSH1 0xA PUSH1 0x1 SLOAD LT PUSH2 0x9C JUMPI PUSH1 0x0 DUP1 REVERT JUMPDEST PUSH1 0x0 DUP1 SLOAD SWAP1 PUSH2 0x100 EXP SWAP1 DIV PUSH20 0xFFFFFFFFFFFFFFFFFFFFFFFFFFFFFFFFFFFFFFFF AND PUSH20 0xFFFFFFFFFFFFFFFFFFFFFFFFFFFFFFFFFFFFFFFF AND PUSH4 0x38266B22 DUP5 PUSH1 0x40 MLOAD DUP3 PUSH4 0xFFFFFFFF AND PUSH1 0xE0 SHL DUP2 MSTORE PUSH1 0x4 ADD PUSH2 0xF5 SWAP2 SWAP1 PUSH2 0x34F JUMP JUMPDEST PUSH1 0x20 PUSH1 0x40 MLOAD DUP1 DUP4 SUB DUP2 PUSH1 0x0 DUP8 GAS CALL SWAP3 POP POP POP DUP1 ISZERO PUSH2 0x131 JUMPI POP PUSH1 0x40 MLOAD RETURNDATASIZE PUSH1 0x1F NOT PUSH1 0x1F DUP3 ADD AND DUP3 ADD DUP1 PUSH1 0x40 MSTORE POP DUP2 ADD SWAP1 PUSH2 0x12E SWAP2 SWAP1 PUSH2 0x396 JUMP JUMPDEST PUSH1 0x1 JUMPDEST PUSH2 0x21A JUMPI PUSH2 0x13D PUSH2 0x3D0 JUMP JUMPDEST DUP1 PUSH4 0x8C379A0 SUB PUSH2 0x181 JUMPI POP PUSH2 0x151 PUSH2 0x463 JUMP JUMPDEST DUP1 PUSH2 0x15C JUMPI POP PUSH2 0x1C3 JUMP JUMPDEST PUSH1 0x1 PUSH1 0x0 DUP2 SLOAD DUP1 SWAP3 SWAP2 SWAP1 PUSH2 0x16F SWAP1 PUSH2 0x522 JUMP JUMPDEST SWAP2 SWAP1 POP SSTORE POP PUSH1 0x0 DUP1 SWAP3 POP SWAP3 POP POP PUSH2 0x223 JUMP JUMPDEST PUSH4 0x4E487B71 SUB PUSH2 0x1C3 JUMPI PUSH2 0x193 PUSH2 0x56A JUMP JUMPDEST SWAP1 PUSH2 0x19E JUMPI POP PUSH2 0x1C3 JUMP JUMPDEST PUSH1 0x1 PUSH1 0x0 DUP2 SLOAD DUP1 SWAP3 SWAP2 SWAP1 PUSH2 0x1B1 SWAP1 PUSH2 0x522 JUMP JUMPDEST SWAP2 SWAP1 POP SSTORE POP PUSH1 0x0 DUP1 SWAP3 POP SWAP3 POP POP PUSH2 0x223 JUMP JUMPDEST RETURNDATASIZE DUP1 PUSH1 0x0 DUP2 EQ PUSH2 0x1EF JUMPI PUSH1 0x40 MLOAD SWAP2 POP PUSH1 0x1F NOT PUSH1 0x3F RETURNDATASIZE ADD AND DUP3 ADD PUSH1 0x40 MSTORE RETURNDATASIZE DUP3 MSTORE RETURNDATASIZE PUSH1 0x0 PUSH1 0x20 DUP5 ADD RETURNDATACOPY PUSH2 0x1F4 JUMP JUMPDEST PUSH1 0x60 SWAP2 POP JUMPDEST POP PUSH1 0x1 PUSH1 0x0 DUP2 SLOAD DUP1 SWAP3 SWAP2 SWAP1 PUSH2 0x208 SWAP1 PUSH2 0x522 JUMP JUMPDEST SWAP2 SWAP1 POP SSTORE POP PUSH1 0x0 DUP1 SWAP3 POP SWAP3 POP POP PUSH2 0x223 JUMP JUMPDEST DUP1 PUSH1 0x1 SWAP3 POP SWAP3 POP POP JUMPDEST SWAP2 POP SWAP2 JUMP JUMPDEST PUSH1 0x1 SLOAD DUP2 JUMP JUMPDEST PUSH1 0x0 PUSH1 0x40 MLOAD SWAP1 POP SWAP1 JUMP JUMPDEST PUSH1 0x0 DUP1 REVERT JUMPDEST PUSH1 0x0 PUSH20 0xFFFFFFFFFFFFFFFFFFFFFFFFFFFFFFFFFFFFFFFF DUP3 AND SWAP1 POP SWAP2 SWAP1 POP JUMP JUMPDEST PUSH1 0x0 PUSH2 0x268 DUP3 PUSH2 0x23D JUMP JUMPDEST SWAP1 POP SWAP2 SWAP1 POP JUMP JUMPDEST PUSH2 0x278 DUP2 PUSH2 0x25D JUMP JUMPDEST DUP2 EQ PUSH2 0x283 JUMPI PUSH1 0x0 DUP1 REVERT JUMPDEST POP JUMP JUMPDEST PUSH1 0x0 DUP2 CALLDATALOAD SWAP1 POP PUSH2 0x295 DUP2 PUSH2 0x26F JUMP JUMPDEST SWAP3 SWAP2 POP POP JUMP JUMPDEST PUSH1 0x0 PUSH1 0x20 DUP3 DUP5 SUB SLT ISZERO PUSH2 0x2B1 JUMPI PUSH2 0x2B0 PUSH2 0x238 JUMP JUMPDEST JUMPDEST PUSH1 0x0 PUSH2 0x2BF DUP5 DUP3 DUP6 ADD PUSH2 0x286 JUMP JUMPDEST SWAP2 POP POP SWAP3 SWAP2 POP POP JUMP JUMPDEST PUSH1 0x0 DUP2 SWAP1 POP SWAP2 SWAP1 POP JUMP JUMPDEST PUSH2 0x2DB DUP2 PUSH2 0x2C8 JUMP JUMPDEST DUP3 MSTORE POP POP JUMP JUMPDEST PUSH1 0x0 DUP2 ISZERO ISZERO SWAP1 POP SWAP2 SWAP1 POP JUMP JUMPDEST PUSH2 0x2F6 DUP2 PUSH2 0x2E1 JUMP JUMPDEST DUP3 MSTORE POP POP JUMP JUMPDEST PUSH1 0x0 PUSH1 0x40 DUP3 ADD SWAP1 POP PUSH2 0x311 PUSH1 0x0 DUP4 ADD DUP6 PUSH2 0x2D2 JUMP JUMPDEST PUSH2 0x31E PUSH1 0x20 DUP4 ADD DUP5 PUSH2 0x2ED JUMP JUMPDEST SWAP4 SWAP3 POP POP POP JUMP JUMPDEST PUSH1 0x0 PUSH1 0x20 DUP3 ADD SWAP1 POP PUSH2 0x33A PUSH1 0x0 DUP4 ADD DUP5 PUSH2 0x2D2 JUMP JUMPDEST SWAP3 SWAP2 POP POP JUMP JUMPDEST PUSH2 0x349 DUP2 PUSH2 0x25D JUMP JUMPDEST DUP3 MSTORE POP POP JUMP JUMPDEST PUSH1 0x0 PUSH1 0x20 DUP3 ADD SWAP1 POP PUSH2 0x364 PUSH1 0x0 DUP4 ADD DUP5 PUSH2 0x340 JUMP JUMPDEST SWAP3 SWAP2 POP POP JUMP JUMPDEST PUSH2 0x373 DUP2 PUSH2 0x2C8 JUMP JUMPDEST DUP2 EQ PUSH2 0x37E JUMPI PUSH1 0x0 DUP1 REVERT JUMPDEST POP JUMP JUMPDEST PUSH1 0x0 DUP2 MLOAD SWAP1 POP PUSH2 0x390 DUP2 PUSH2 0x36A JUMP JUMPDEST SWAP3 SWAP2 POP POP JUMP JUMPDEST PUSH1 0x0 PUSH1 0x20 DUP3 DUP5 SUB SLT ISZERO PUSH2 0x3AC JUMPI PUSH2 0x3AB PUSH2 0x238 JUMP JUMPDEST JUMPDEST PUSH1 0x0 PUSH2 0x3BA DUP5 DUP3 DUP6 ADD PUSH2 0x381 JUMP JUMPDEST SWAP2 POP POP SWAP3 SWAP2 POP POP JUMP JUMPDEST PUSH1 0x0 DUP2 PUSH1 0xE0 SHR SWAP1 POP SWAP2 SWAP1 POP JUMP JUMPDEST PUSH1 0x0 PUSH1 0x3 RETURNDATASIZE GT ISZERO PUSH2 0x3EF JUMPI PUSH1 0x4 PUSH1 0x0 DUP1 RETURNDATACOPY PUSH2 0x3EC PUSH1 0x0 MLOAD PUSH2 0x3C3 JUMP JUMPDEST SWAP1 POP JUMPDEST SWAP1 JUMP JUMPDEST PUSH1 0x0 PUSH1 0x1F NOT PUSH1 0x1F DUP4 ADD AND SWAP1 POP SWAP2 SWAP1 POP JUMP JUMPDEST PUSH32 0x4E487B7100000000000000000000000000000000000000000000000000000000 PUSH1 0x0 MSTORE PUSH1 0x41 PUSH1 0x4 MSTORE PUSH1 0x24 PUSH1 0x0 REVERT JUMPDEST PUSH2 0x43B DUP3 PUSH2 0x3F2 JUMP JUMPDEST DUP2 ADD DUP2 DUP2 LT PUSH8 0xFFFFFFFFFFFFFFFF DUP3 GT OR ISZERO PUSH2 0x45A JUMPI PUSH2 0x459 PUSH2 0x403 JUMP JUMPDEST JUMPDEST DUP1 PUSH1 0x40 MSTORE POP POP POP JUMP JUMPDEST PUSH1 0x0 PUSH1 0x44 RETURNDATASIZE LT PUSH2 0x4F0 JUMPI PUSH2 0x475 PUSH2 0x22E JUMP JUMPDEST PUSH1 0x4 RETURNDATASIZE SUB PUSH1 0x4 DUP3 RETURNDATACOPY DUP1 MLOAD RETURNDATASIZE PUSH1 0x24 DUP3 ADD GT PUSH8 0xFFFFFFFFFFFFFFFF DUP3 GT OR ISZERO PUSH2 0x49D JUMPI POP POP PUSH2 0x4F0 JUMP JUMPDEST DUP1 DUP3 ADD DUP1 MLOAD PUSH8 0xFFFFFFFFFFFFFFFF DUP2 GT ISZERO PUSH2 0x4BB JUMPI POP POP POP POP PUSH2 0x4F0 JUMP JUMPDEST DUP1 PUSH1 0x20 DUP4 ADD ADD PUSH1 0x4 RETURNDATASIZE SUB DUP6 ADD DUP2 GT ISZERO PUSH2 0x4D8 JUMPI POP POP POP POP POP PUSH2 0x4F0 JUMP JUMPDEST PUSH2 0x4E7 DUP3 PUSH1 0x20 ADD DUP6 ADD DUP7 PUSH2 0x432 JUMP JUMPDEST DUP3 SWAP6 POP POP POP POP POP POP JUMPDEST SWAP1 JUMP JUMPDEST PUSH32 0x4E487B7100000000000000000000000000000000000000000000000000000000 PUSH1 0x0 MSTORE PUSH1 0x11 PUSH1 0x4 MSTORE PUSH1 0x24 PUSH1 0x0 REVERT JUMPDEST PUSH1 0x0 PUSH2 0x52D DUP3 PUSH2 0x2C8 JUMP JUMPDEST SWAP2 POP PUSH32 0xFFFFFFFFFFFFFFFFFFFFFFFFFFFFFFFFFFFFFFFFFFFFFFFFFFFFFFFFFFFFFFFF DUP3 SUB PUSH2 0x55F JUMPI PUSH2 0x55E PUSH2 0x4F3 JUMP JUMPDEST JUMPDEST PUSH1 0x1 DUP3 ADD SWAP1 POP SWAP2 SWAP1 POP JUMP JUMPDEST PUSH1 0x0 DUP1 PUSH1 0x23 RETURNDATASIZE GT ISZERO PUSH2 0x587 JUMPI PUSH1 0x20 PUSH1 0x4 PUSH1 0x0 RETURNDATACOPY PUSH1 0x1 SWAP2 POP PUSH1 0x0 MLOAD SWAP1 POP JUMPDEST SWAP1 SWAP2 JUMP INVALID LOG2 PUSH5 0x6970667358 0x22 SLT KECCAK256 PUSH19 0x1F376A0005532AB4CB2250B1E1A4F988323C90 LOG0 MSTORE8 0xD7 MULMOD SELFBALANCE DUP10 LOG2 0xD6 RETURN 0xDF 0xEA SIGNEXTEND PUSH5 0x736F6C6343 STOP ADDMOD 0xF STOP CALLER "
				},
				"gasEstimates": {
					"creation": {
						"codeDepositCost": "294600",
						"executionCost": "337",
						"totalCost": "294937"
					},
					"external": {
						"errorCount()": "2429",
						"rate(address)": "infinite"
					}
				},
				"methodIdentifiers": {
					"errorCount()": "d38dbee6",
					"rate(address)": "0ba9d8ca"
				}
			},
			"storageLayout": {
				"storage": [
					{
						"astId": 12,
						"contract": "study/chapter04/ty.sol:FeedConsumer",
						"label": "feed",
						"offset": 0,
						"slot": "0",
						"type": "t_contract(DataFeed)9"
					},
					{
						"astId": 14,
						"contract": "study/chapter04/ty.sol:FeedConsumer",
						"label": "errorCount",
						"offset": 0,
						"slot": "1",
						"type": "t_uint256"
					}
				],
				"types": {
					"t_contract(DataFeed)9": {
						"encoding": "inplace",
						"label": "contract DataFeed",
						"numberOfBytes": "20"
					},
					"t_uint256": {
						"encoding": "inplace",
						"label": "uint256",
						"numberOfBytes": "32"
					}
				}
			},
			"userdoc": {
				"kind": "user",
				"methods": {},
				"version": 1
			}
		}
	}
}