{
	"study/chapter04/newContract.sol": {
		"callContract": {
			"abi": [
				{
					"inputs": [],
					"name": "by",
					"outputs": [
						{
							"internalType": "bytes",
							"name": "",
							"type": "bytes"
						}
					],
					"stateMutability": "view",
					"type": "function"
				},
				{
					"inputs": [],
					"name": "contractName",
					"outputs": [
						{
							"internalType": "string",
							"name": "",
							"type": "string"
						}
					],
					"stateMutability": "view",
					"type": "function"
				},
				{
					"inputs": [],
					"name": "contractaddr",
					"outputs": [
						{
							"internalType": "address",
							"name": "",
							"type": "address"
						}
					],
					"stateMutability": "view",
					"type": "function"
				},
				{
					"inputs": [
						{
							"internalType": "uint256",
							"name": "amount",
							"type": "uint256"
						}
					],
					"name": "createContractObj",
					"outputs": [],
					"stateMutability": "payable",
					"type": "function"
				},
				{
					"inputs": [],
					"name": "getA",
					"outputs": [
						{
							"internalType": "uint256",
							"name": "",
							"type": "uint256"
						}
					],
					"stateMutability": "view",
					"type": "function"
				},
				{
					"inputs": [],
					"name": "getBalance",
					"outputs": [
						{
							"internalType": "uint256",
							"name": "",
							"type": "uint256"
						}
					],
					"stateMutability": "view",
					"type": "function"
				},
				{
					"inputs": [
						{
							"internalType": "uint256",
							"name": "_a",
							"type": "uint256"
						}
					],
					"name": "setA",
					"outputs": [],
					"stateMutability": "nonpayable",
					"type": "function"
				},
				{
					"inputs": [],
					"name": "setTypeAndCreatetionCodeAnd",
					"outputs": [],
					"stateMutability": "nonpayable",
					"type": "function"
				},
				{
					"inputs": [],
					"name": "str1",
					"outputs": [
						{
							"internalType": "string",
							"name": "",
							"type": "string"
						}
					],
					"stateMutability": "view",
					"type": "function"
				}
			],
			"devdoc": {
				"kind": "dev",
				"methods": {},
				"version": 1
			},
			"evm": {
				"assembly": "    /* \"study/chapter04/newContract.sol\":417:1332  contract callContract{... */\n  mstore(0x40, 0x80)\n  callvalue\n  dup1\n  iszero\n  tag_1\n  jumpi\n  0x00\n  dup1\n  revert\ntag_1:\n  pop\n  dataSize(sub_0)\n  dup1\n  dataOffset(sub_0)\n  0x00\n  codecopy\n  0x00\n  return\nstop\n\nsub_0: assembly {\n        /* \"study/chapter04/newContract.sol\":417:1332  contract callContract{... */\n      mstore(0x40, 0x80)\n      jumpi(tag_1, lt(calldatasize, 0x04))\n      shr(0xe0, calldataload(0x00))\n      dup1\n      0x93d4e9a2\n      gt\n      tag_11\n      jumpi\n      dup1\n      0x93d4e9a2\n      eq\n      tag_6\n      jumpi\n      dup1\n      0xd01bb4d5\n      eq\n      tag_7\n      jumpi\n      dup1\n      0xd118d187\n      eq\n      tag_8\n      jumpi\n      dup1\n      0xd46300fd\n      eq\n      tag_9\n      jumpi\n      dup1\n      0xee919d50\n      eq\n      tag_10\n      jumpi\n      jump(tag_1)\n    tag_11:\n      dup1\n      0x12065fe0\n      eq\n      tag_2\n      jumpi\n      dup1\n      0x502d8a27\n      eq\n      tag_3\n      jumpi\n      dup1\n      0x75d0c0dc\n      eq\n      tag_4\n      jumpi\n      dup1\n      0x7c000138\n      eq\n      tag_5\n      jumpi\n    tag_1:\n      0x00\n      dup1\n      revert\n        /* \"study/chapter04/newContract.sol\":982:1075  function getBalance()external view returns(uint){... */\n    tag_2:\n      callvalue\n      dup1\n      iszero\n      tag_12\n      jumpi\n      0x00\n      dup1\n      revert\n    tag_12:\n      pop\n      tag_13\n      tag_14\n      jump\t// in\n    tag_13:\n      mload(0x40)\n      tag_15\n      swap2\n      swap1\n      tag_16\n      jump\t// in\n    tag_15:\n      mload(0x40)\n      dup1\n      swap2\n      sub\n      swap1\n      return\n        /* \"study/chapter04/newContract.sol\":1190:1330  function setTypeAndCreatetionCodeAnd()external {... */\n    tag_3:\n      callvalue\n      dup1\n      iszero\n      tag_17\n      jumpi\n      0x00\n      dup1\n      revert\n    tag_17:\n      pop\n      tag_18\n      tag_19\n      jump\t// in\n    tag_18:\n      stop\n        /* \"study/chapter04/newContract.sol\":595:621  string public contractName */\n    tag_4:\n      callvalue\n      dup1\n      iszero\n      tag_20\n      jumpi\n      0x00\n      dup1\n      revert\n    tag_20:\n      pop\n      tag_21\n      tag_22\n      jump\t// in\n    tag_21:\n      mload(0x40)\n      tag_23\n      swap2\n      swap1\n      tag_24\n      jump\t// in\n    tag_23:\n      mload(0x40)\n      dup1\n      swap2\n      sub\n      swap1\n      return\n        /* \"study/chapter04/newContract.sol\":1169:1184  bytes public by */\n    tag_5:\n      callvalue\n      dup1\n      iszero\n      tag_25\n      jumpi\n      0x00\n      dup1\n      revert\n    tag_25:\n      pop\n      tag_26\n      tag_27\n      jump\t// in\n    tag_26:\n      mload(0x40)\n      tag_28\n      swap2\n      swap1\n      tag_29\n      jump\t// in\n    tag_28:\n      mload(0x40)\n      dup1\n      swap2\n      sub\n      swap1\n      return\n        /* \"study/chapter04/newContract.sol\":642:784  function createContractObj(uint amount)public payable{... */\n    tag_6:\n      tag_30\n      0x04\n      dup1\n      calldatasize\n      sub\n      dup2\n      add\n      swap1\n      tag_31\n      swap2\n      swap1\n      tag_32\n      jump\t// in\n    tag_31:\n      tag_33\n      jump\t// in\n    tag_30:\n      stop\n        /* \"study/chapter04/newContract.sol\":548:575  address public contractaddr */\n    tag_7:\n      callvalue\n      dup1\n      iszero\n      tag_34\n      jumpi\n      0x00\n      dup1\n      revert\n    tag_34:\n      pop\n      tag_35\n      tag_36\n      jump\t// in\n    tag_35:\n      mload(0x40)\n      tag_37\n      swap2\n      swap1\n      tag_38\n      jump\t// in\n    tag_37:\n      mload(0x40)\n      dup1\n      swap2\n      sub\n      swap1\n      return\n        /* \"study/chapter04/newContract.sol\":1145:1163  string public str1 */\n    tag_8:\n      callvalue\n      dup1\n      iszero\n      tag_39\n      jumpi\n      0x00\n      dup1\n      revert\n    tag_39:\n      pop\n      tag_40\n      tag_41\n      jump\t// in\n    tag_40:\n      mload(0x40)\n      tag_42\n      swap2\n      swap1\n      tag_24\n      jump\t// in\n    tag_42:\n      mload(0x40)\n      dup1\n      swap2\n      sub\n      swap1\n      return\n        /* \"study/chapter04/newContract.sol\":852:977  function getA()external view returns(uint){... */\n    tag_9:\n      callvalue\n      dup1\n      iszero\n      tag_43\n      jumpi\n      0x00\n      dup1\n      revert\n    tag_43:\n      pop\n      tag_44\n      tag_45\n      jump\t// in\n    tag_44:\n      mload(0x40)\n      tag_46\n      swap2\n      swap1\n      tag_16\n      jump\t// in\n    tag_46:\n      mload(0x40)\n      dup1\n      swap2\n      sub\n      swap1\n      return\n        /* \"study/chapter04/newContract.sol\":789:847  function setA(uint _a)external {... */\n    tag_10:\n      callvalue\n      dup1\n      iszero\n      tag_47\n      jumpi\n      0x00\n      dup1\n      revert\n    tag_47:\n      pop\n      tag_48\n      0x04\n      dup1\n      calldatasize\n      sub\n      dup2\n      add\n      swap1\n      tag_49\n      swap2\n      swap1\n      tag_32\n      jump\t// in\n    tag_49:\n      tag_50\n      jump\t// in\n    tag_48:\n      stop\n        /* \"study/chapter04/newContract.sol\":982:1075  function getBalance()external view returns(uint){... */\n    tag_14:\n        /* \"study/chapter04/newContract.sol\":1025:1029  uint */\n      0x00\n        /* \"study/chapter04/newContract.sol\":1047:1068  address(this).balance */\n      selfbalance\n        /* \"study/chapter04/newContract.sol\":1040:1068  return address(this).balance */\n      swap1\n      pop\n        /* \"study/chapter04/newContract.sol\":982:1075  function getBalance()external view returns(uint){... */\n      swap1\n      jump\t// out\n        /* \"study/chapter04/newContract.sol\":1190:1330  function setTypeAndCreatetionCodeAnd()external {... */\n    tag_19:\n        /* \"study/chapter04/newContract.sol\":1254:1277  type(testContract).name */\n      mload(0x40)\n      dup1\n      0x40\n      add\n      0x40\n      mstore\n      0x0c\n      dup2\n      mstore\n      dup1\n      0x20\n      add\n      0x74657374436f6e74726163740000000000000000000000000000000000000000\n      dup2\n      mstore\n      pop\n        /* \"study/chapter04/newContract.sol\":1247:1251  str1 */\n      0x03\n        /* \"study/chapter04/newContract.sol\":1247:1277  str1 = type(testContract).name */\n      swap1\n      dup2\n      tag_53\n      swap2\n      swap1\n      tag_54\n      jump\t// in\n    tag_53:\n      pop\n        /* \"study/chapter04/newContract.sol\":1292:1323  type(testContract).creationCode */\n      mload(0x40)\n      dup1\n      0x20\n      add\n      tag_55\n      swap1\n      tag_56\n      jump\t// in\n    tag_55:\n      0x20\n      dup3\n      add\n      dup2\n      sub\n      dup3\n      mstore\n      not(0x1f)\n      0x1f\n      dup3\n      add\n      and\n      0x40\n      mstore\n      pop\n        /* \"study/chapter04/newContract.sol\":1287:1289  by */\n      0x04\n        /* \"study/chapter04/newContract.sol\":1287:1323  by = type(testContract).creationCode */\n      swap1\n      dup2\n      tag_57\n      swap2\n      swap1\n      tag_58\n      jump\t// in\n    tag_57:\n      pop\n        /* \"study/chapter04/newContract.sol\":1190:1330  function setTypeAndCreatetionCodeAnd()external {... */\n      jump\t// out\n        /* \"study/chapter04/newContract.sol\":595:621  string public contractName */\n    tag_22:\n      0x02\n      dup1\n      sload\n      tag_59\n      swap1\n      tag_60\n      jump\t// in\n    tag_59:\n      dup1\n      0x1f\n      add\n      0x20\n      dup1\n      swap2\n      div\n      mul\n      0x20\n      add\n      mload(0x40)\n      swap1\n      dup2\n      add\n      0x40\n      mstore\n      dup1\n      swap3\n      swap2\n      swap1\n      dup2\n      dup2\n      mstore\n      0x20\n      add\n      dup3\n      dup1\n      sload\n      tag_61\n      swap1\n      tag_60\n      jump\t// in\n    tag_61:\n      dup1\n      iszero\n      tag_62\n      jumpi\n      dup1\n      0x1f\n      lt\n      tag_63\n      jumpi\n      0x0100\n      dup1\n      dup4\n      sload\n      div\n      mul\n      dup4\n      mstore\n      swap2\n      0x20\n      add\n      swap2\n      jump(tag_62)\n    tag_63:\n      dup3\n      add\n      swap2\n      swap1\n      0x00\n      mstore\n      keccak256(0x00, 0x20)\n      swap1\n    tag_64:\n      dup2\n      sload\n      dup2\n      mstore\n      swap1\n      0x01\n      add\n      swap1\n      0x20\n      add\n      dup1\n      dup4\n      gt\n      tag_64\n      jumpi\n      dup3\n      swap1\n      sub\n      0x1f\n      and\n      dup3\n      add\n      swap2\n    tag_62:\n      pop\n      pop\n      pop\n      pop\n      pop\n      dup2\n      jump\t// out\n        /* \"study/chapter04/newContract.sol\":1169:1184  bytes public by */\n    tag_27:\n      0x04\n      dup1\n      sload\n      tag_65\n      swap1\n      tag_60\n      jump\t// in\n    tag_65:\n      dup1\n      0x1f\n      add\n      0x20\n      dup1\n      swap2\n      div\n      mul\n      0x20\n      add\n      mload(0x40)\n      swap1\n      dup2\n      add\n      0x40\n      mstore\n      dup1\n      swap3\n      swap2\n      swap1\n      dup2\n      dup2\n      mstore\n      0x20\n      add\n      dup3\n      dup1\n      sload\n      tag_66\n      swap1\n      tag_60\n      jump\t// in\n    tag_66:\n      dup1\n      iszero\n      tag_67\n      jumpi\n      dup1\n      0x1f\n      lt\n      tag_68\n      jumpi\n      0x0100\n      dup1\n      dup4\n      sload\n      div\n      mul\n      dup4\n      mstore\n      swap2\n      0x20\n      add\n      swap2\n      jump(tag_67)\n    tag_68:\n      dup3\n      add\n      swap2\n      swap1\n      0x00\n      mstore\n      keccak256(0x00, 0x20)\n      swap1\n    tag_69:\n      dup2\n      sload\n      dup2\n      mstore\n      swap1\n      0x01\n      add\n      swap1\n      0x20\n      add\n      dup1\n      dup4\n      gt\n      tag_69\n      jumpi\n      dup3\n      swap1\n      sub\n      0x1f\n      and\n      dup3\n      add\n      swap2\n    tag_67:\n      pop\n      pop\n      pop\n      pop\n      pop\n      dup2\n      jump\t// out\n        /* \"study/chapter04/newContract.sol\":642:784  function createContractObj(uint amount)public payable{... */\n    tag_33:\n        /* \"study/chapter04/newContract.sol\":732:738  amount */\n      dup1\n        /* \"study/chapter04/newContract.sol\":740:741  5 */\n      0x05\n        /* \"study/chapter04/newContract.sol\":709:742  new testContract{value:amount}(5) */\n      mload(0x40)\n      tag_71\n      swap1\n      tag_56\n      jump\t// in\n    tag_71:\n      tag_72\n      swap2\n      swap1\n      tag_73\n      jump\t// in\n    tag_72:\n      mload(0x40)\n      dup1\n      swap2\n      sub\n      swap1\n      dup3\n      create\n      swap1\n      pop\n      dup1\n      iszero\n      dup1\n      iszero\n      tag_74\n      jumpi\n      returndatasize\n      0x00\n      dup1\n      returndatacopy\n      revert(0x00, returndatasize)\n    tag_74:\n      pop\n        /* \"study/chapter04/newContract.sol\":705:706  t */\n      0x00\n      dup1\n        /* \"study/chapter04/newContract.sol\":705:742  t = new testContract{value:amount}(5) */\n      0x0100\n      exp\n      dup2\n      sload\n      dup2\n      0xffffffffffffffffffffffffffffffffffffffff\n      mul\n      not\n      and\n      swap1\n      dup4\n      0xffffffffffffffffffffffffffffffffffffffff\n      and\n      mul\n      or\n      swap1\n      sstore\n      pop\n        /* \"study/chapter04/newContract.sol\":774:775  t */\n      0x00\n      dup1\n      sload\n      swap1\n      0x0100\n      exp\n      swap1\n      div\n      0xffffffffffffffffffffffffffffffffffffffff\n      and\n        /* \"study/chapter04/newContract.sol\":752:764  contractaddr */\n      0x01\n      0x00\n        /* \"study/chapter04/newContract.sol\":752:776  contractaddr =address(t) */\n      0x0100\n      exp\n      dup2\n      sload\n      dup2\n      0xffffffffffffffffffffffffffffffffffffffff\n      mul\n      not\n      and\n      swap1\n      dup4\n      0xffffffffffffffffffffffffffffffffffffffff\n      and\n      mul\n      or\n      swap1\n      sstore\n      pop\n        /* \"study/chapter04/newContract.sol\":642:784  function createContractObj(uint amount)public payable{... */\n      pop\n      jump\t// out\n        /* \"study/chapter04/newContract.sol\":548:575  address public contractaddr */\n    tag_36:\n      0x01\n      0x00\n      swap1\n      sload\n      swap1\n      0x0100\n      exp\n      swap1\n      div\n      0xffffffffffffffffffffffffffffffffffffffff\n      and\n      dup2\n      jump\t// out\n        /* \"study/chapter04/newContract.sol\":1145:1163  string public str1 */\n    tag_41:\n      0x03\n      dup1\n      sload\n      tag_75\n      swap1\n      tag_60\n      jump\t// in\n    tag_75:\n      dup1\n      0x1f\n      add\n      0x20\n      dup1\n      swap2\n      div\n      mul\n      0x20\n      add\n      mload(0x40)\n      swap1\n      dup2\n      add\n      0x40\n      mstore\n      dup1\n      swap3\n      swap2\n      swap1\n      dup2\n      dup2\n      mstore\n      0x20\n      add\n      dup3\n      dup1\n      sload\n      tag_76\n      swap1\n      tag_60\n      jump\t// in\n    tag_76:\n      dup1\n      iszero\n      tag_77\n      jumpi\n      dup1\n      0x1f\n      lt\n      tag_78\n      jumpi\n      0x0100\n      dup1\n      dup4\n      sload\n      div\n      mul\n      dup4\n      mstore\n      swap2\n      0x20\n      add\n      swap2\n      jump(tag_77)\n    tag_78:\n      dup3\n      add\n      swap2\n      swap1\n      0x00\n      mstore\n      keccak256(0x00, 0x20)\n      swap1\n    tag_79:\n      dup2\n      sload\n      dup2\n      mstore\n      swap1\n      0x01\n      add\n      swap1\n      0x20\n      add\n      dup1\n      dup4\n      gt\n      tag_79\n      jumpi\n      dup3\n      swap1\n      sub\n      0x1f\n      and\n      dup3\n      add\n      swap2\n    tag_77:\n      pop\n      pop\n      pop\n      pop\n      pop\n      dup2\n      jump\t// out\n        /* \"study/chapter04/newContract.sol\":852:977  function getA()external view returns(uint){... */\n    tag_45:\n        /* \"study/chapter04/newContract.sol\":889:893  uint */\n      0x00\n        /* \"study/chapter04/newContract.sol\":911:912  t */\n      dup1\n      0x00\n      swap1\n      sload\n      swap1\n      0x0100\n      exp\n      swap1\n      div\n      0xffffffffffffffffffffffffffffffffffffffff\n      and\n        /* \"study/chapter04/newContract.sol\":911:914  t.a */\n      0xffffffffffffffffffffffffffffffffffffffff\n      and\n      0x0dbe671f\n        /* \"study/chapter04/newContract.sol\":911:916  t.a() */\n      mload(0x40)\n      dup2\n      0xffffffff\n      and\n      0xe0\n      shl\n      dup2\n      mstore\n      0x04\n      add\n      0x20\n      mload(0x40)\n      dup1\n      dup4\n      sub\n      dup2\n      dup7\n      gas\n      staticcall\n      iszero\n      dup1\n      iszero\n      tag_82\n      jumpi\n      returndatasize\n      0x00\n      dup1\n      returndatacopy\n      revert(0x00, returndatasize)\n    tag_82:\n      pop\n      pop\n      pop\n      pop\n      mload(0x40)\n      returndatasize\n      not(0x1f)\n      0x1f\n      dup3\n      add\n      and\n      dup3\n      add\n      dup1\n      0x40\n      mstore\n      pop\n      dup2\n      add\n      swap1\n      tag_83\n      swap2\n      swap1\n      tag_84\n      jump\t// in\n    tag_83:\n        /* \"study/chapter04/newContract.sol\":904:916  return t.a() */\n      swap1\n      pop\n        /* \"study/chapter04/newContract.sol\":852:977  function getA()external view returns(uint){... */\n      swap1\n      jump\t// out\n        /* \"study/chapter04/newContract.sol\":789:847  function setA(uint _a)external {... */\n    tag_50:\n        /* \"study/chapter04/newContract.sol\":830:831  t */\n      0x00\n      dup1\n      sload\n      swap1\n      0x0100\n      exp\n      swap1\n      div\n      0xffffffffffffffffffffffffffffffffffffffff\n      and\n        /* \"study/chapter04/newContract.sol\":830:836  t.setA */\n      0xffffffffffffffffffffffffffffffffffffffff\n      and\n      0xee919d50\n        /* \"study/chapter04/newContract.sol\":837:839  _a */\n      dup3\n        /* \"study/chapter04/newContract.sol\":830:840  t.setA(_a) */\n      mload(0x40)\n      dup3\n      0xffffffff\n      and\n      0xe0\n      shl\n      dup2\n      mstore\n      0x04\n      add\n      tag_86\n      swap2\n      swap1\n      tag_16\n      jump\t// in\n    tag_86:\n      0x00\n      mload(0x40)\n      dup1\n      dup4\n      sub\n      dup2\n      0x00\n      dup8\n      dup1\n      extcodesize\n      iszero\n      dup1\n      iszero\n      tag_87\n      jumpi\n      0x00\n      dup1\n      revert\n    tag_87:\n      pop\n      gas\n      call\n      iszero\n      dup1\n      iszero\n      tag_89\n      jumpi\n      returndatasize\n      0x00\n      dup1\n      returndatacopy\n      revert(0x00, returndatasize)\n    tag_89:\n      pop\n      pop\n      pop\n      pop\n        /* \"study/chapter04/newContract.sol\":789:847  function setA(uint _a)external {... */\n      pop\n      jump\t// out\n    tag_56:\n      dataSize(sub_0)\n      dup1\n      dataOffset(sub_0)\n      dup4\n      codecopy\n      add\n      swap1\n      jump\t// out\n        /* \"#utility.yul\":7:84   */\n    tag_90:\n        /* \"#utility.yul\":44:51   */\n      0x00\n        /* \"#utility.yul\":73:78   */\n      dup2\n        /* \"#utility.yul\":62:78   */\n      swap1\n      pop\n        /* \"#utility.yul\":7:84   */\n      swap2\n      swap1\n      pop\n      jump\t// out\n        /* \"#utility.yul\":90:208   */\n    tag_91:\n        /* \"#utility.yul\":177:201   */\n      tag_134\n        /* \"#utility.yul\":195:200   */\n      dup2\n        /* \"#utility.yul\":177:201   */\n      tag_90\n      jump\t// in\n    tag_134:\n        /* \"#utility.yul\":172:175   */\n      dup3\n        /* \"#utility.yul\":165:202   */\n      mstore\n        /* \"#utility.yul\":90:208   */\n      pop\n      pop\n      jump\t// out\n        /* \"#utility.yul\":214:436   */\n    tag_16:\n        /* \"#utility.yul\":307:311   */\n      0x00\n        /* \"#utility.yul\":345:347   */\n      0x20\n        /* \"#utility.yul\":334:343   */\n      dup3\n        /* \"#utility.yul\":330:348   */\n      add\n        /* \"#utility.yul\":322:348   */\n      swap1\n      pop\n        /* \"#utility.yul\":358:429   */\n      tag_136\n        /* \"#utility.yul\":426:427   */\n      0x00\n        /* \"#utility.yul\":415:424   */\n      dup4\n        /* \"#utility.yul\":411:428   */\n      add\n        /* \"#utility.yul\":402:408   */\n      dup5\n        /* \"#utility.yul\":358:429   */\n      tag_91\n      jump\t// in\n    tag_136:\n        /* \"#utility.yul\":214:436   */\n      swap3\n      swap2\n      pop\n      pop\n      jump\t// out\n        /* \"#utility.yul\":442:541   */\n    tag_92:\n        /* \"#utility.yul\":494:500   */\n      0x00\n        /* \"#utility.yul\":528:533   */\n      dup2\n        /* \"#utility.yul\":522:534   */\n      mload\n        /* \"#utility.yul\":512:534   */\n      swap1\n      pop\n        /* \"#utility.yul\":442:541   */\n      swap2\n      swap1\n      pop\n      jump\t// out\n        /* \"#utility.yul\":547:716   */\n    tag_93:\n        /* \"#utility.yul\":631:642   */\n      0x00\n        /* \"#utility.yul\":665:671   */\n      dup3\n        /* \"#utility.yul\":660:663   */\n      dup3\n        /* \"#utility.yul\":653:672   */\n      mstore\n        /* \"#utility.yul\":705:709   */\n      0x20\n        /* \"#utility.yul\":700:703   */\n      dup3\n        /* \"#utility.yul\":696:710   */\n      add\n        /* \"#utility.yul\":681:710   */\n      swap1\n      pop\n        /* \"#utility.yul\":547:716   */\n      swap3\n      swap2\n      pop\n      pop\n      jump\t// out\n        /* \"#utility.yul\":722:1029   */\n    tag_94:\n        /* \"#utility.yul\":790:791   */\n      0x00\n        /* \"#utility.yul\":800:913   */\n    tag_140:\n        /* \"#utility.yul\":814:820   */\n      dup4\n        /* \"#utility.yul\":811:812   */\n      dup2\n        /* \"#utility.yul\":808:821   */\n      lt\n        /* \"#utility.yul\":800:913   */\n      iszero\n      tag_142\n      jumpi\n        /* \"#utility.yul\":899:900   */\n      dup1\n        /* \"#utility.yul\":894:897   */\n      dup3\n        /* \"#utility.yul\":890:901   */\n      add\n        /* \"#utility.yul\":884:902   */\n      mload\n        /* \"#utility.yul\":880:881   */\n      dup2\n        /* \"#utility.yul\":875:878   */\n      dup5\n        /* \"#utility.yul\":871:882   */\n      add\n        /* \"#utility.yul\":864:903   */\n      mstore\n        /* \"#utility.yul\":836:838   */\n      0x20\n        /* \"#utility.yul\":833:834   */\n      dup2\n        /* \"#utility.yul\":829:839   */\n      add\n        /* \"#utility.yul\":824:839   */\n      swap1\n      pop\n        /* \"#utility.yul\":800:913   */\n      jump(tag_140)\n    tag_142:\n        /* \"#utility.yul\":931:937   */\n      dup4\n        /* \"#utility.yul\":928:929   */\n      dup2\n        /* \"#utility.yul\":925:938   */\n      gt\n        /* \"#utility.yul\":922:1023   */\n      iszero\n      tag_143\n      jumpi\n        /* \"#utility.yul\":1011:1012   */\n      0x00\n        /* \"#utility.yul\":1002:1008   */\n      dup5\n        /* \"#utility.yul\":997:1000   */\n      dup5\n        /* \"#utility.yul\":993:1009   */\n      add\n        /* \"#utility.yul\":986:1013   */\n      mstore\n        /* \"#utility.yul\":922:1023   */\n    tag_143:\n        /* \"#utility.yul\":771:1029   */\n      pop\n        /* \"#utility.yul\":722:1029   */\n      pop\n      pop\n      pop\n      jump\t// out\n        /* \"#utility.yul\":1035:1137   */\n    tag_95:\n        /* \"#utility.yul\":1076:1082   */\n      0x00\n        /* \"#utility.yul\":1127:1129   */\n      0x1f\n        /* \"#utility.yul\":1123:1130   */\n      not\n        /* \"#utility.yul\":1118:1120   */\n      0x1f\n        /* \"#utility.yul\":1111:1116   */\n      dup4\n        /* \"#utility.yul\":1107:1121   */\n      add\n        /* \"#utility.yul\":1103:1131   */\n      and\n        /* \"#utility.yul\":1093:1131   */\n      swap1\n      pop\n        /* \"#utility.yul\":1035:1137   */\n      swap2\n      swap1\n      pop\n      jump\t// out\n        /* \"#utility.yul\":1143:1507   */\n    tag_96:\n        /* \"#utility.yul\":1231:1234   */\n      0x00\n        /* \"#utility.yul\":1259:1298   */\n      tag_146\n        /* \"#utility.yul\":1292:1297   */\n      dup3\n        /* \"#utility.yul\":1259:1298   */\n      tag_92\n      jump\t// in\n    tag_146:\n        /* \"#utility.yul\":1314:1385   */\n      tag_147\n        /* \"#utility.yul\":1378:1384   */\n      dup2\n        /* \"#utility.yul\":1373:1376   */\n      dup6\n        /* \"#utility.yul\":1314:1385   */\n      tag_93\n      jump\t// in\n    tag_147:\n        /* \"#utility.yul\":1307:1385   */\n      swap4\n      pop\n        /* \"#utility.yul\":1394:1446   */\n      tag_148\n        /* \"#utility.yul\":1439:1445   */\n      dup2\n        /* \"#utility.yul\":1434:1437   */\n      dup6\n        /* \"#utility.yul\":1427:1431   */\n      0x20\n        /* \"#utility.yul\":1420:1425   */\n      dup7\n        /* \"#utility.yul\":1416:1432   */\n      add\n        /* \"#utility.yul\":1394:1446   */\n      tag_94\n      jump\t// in\n    tag_148:\n        /* \"#utility.yul\":1471:1500   */\n      tag_149\n        /* \"#utility.yul\":1493:1499   */\n      dup2\n        /* \"#utility.yul\":1471:1500   */\n      tag_95\n      jump\t// in\n    tag_149:\n        /* \"#utility.yul\":1466:1469   */\n      dup5\n        /* \"#utility.yul\":1462:1501   */\n      add\n        /* \"#utility.yul\":1455:1501   */\n      swap2\n      pop\n        /* \"#utility.yul\":1235:1507   */\n      pop\n        /* \"#utility.yul\":1143:1507   */\n      swap3\n      swap2\n      pop\n      pop\n      jump\t// out\n        /* \"#utility.yul\":1513:1826   */\n    tag_24:\n        /* \"#utility.yul\":1626:1630   */\n      0x00\n        /* \"#utility.yul\":1664:1666   */\n      0x20\n        /* \"#utility.yul\":1653:1662   */\n      dup3\n        /* \"#utility.yul\":1649:1667   */\n      add\n        /* \"#utility.yul\":1641:1667   */\n      swap1\n      pop\n        /* \"#utility.yul\":1713:1722   */\n      dup2\n        /* \"#utility.yul\":1707:1711   */\n      dup2\n        /* \"#utility.yul\":1703:1723   */\n      sub\n        /* \"#utility.yul\":1699:1700   */\n      0x00\n        /* \"#utility.yul\":1688:1697   */\n      dup4\n        /* \"#utility.yul\":1684:1701   */\n      add\n        /* \"#utility.yul\":1677:1724   */\n      mstore\n        /* \"#utility.yul\":1741:1819   */\n      tag_151\n        /* \"#utility.yul\":1814:1818   */\n      dup2\n        /* \"#utility.yul\":1805:1811   */\n      dup5\n        /* \"#utility.yul\":1741:1819   */\n      tag_96\n      jump\t// in\n    tag_151:\n        /* \"#utility.yul\":1733:1819   */\n      swap1\n      pop\n        /* \"#utility.yul\":1513:1826   */\n      swap3\n      swap2\n      pop\n      pop\n      jump\t// out\n        /* \"#utility.yul\":1832:1930   */\n    tag_97:\n        /* \"#utility.yul\":1883:1889   */\n      0x00\n        /* \"#utility.yul\":1917:1922   */\n      dup2\n        /* \"#utility.yul\":1911:1923   */\n      mload\n        /* \"#utility.yul\":1901:1923   */\n      swap1\n      pop\n        /* \"#utility.yul\":1832:1930   */\n      swap2\n      swap1\n      pop\n      jump\t// out\n        /* \"#utility.yul\":1936:2104   */\n    tag_98:\n        /* \"#utility.yul\":2019:2030   */\n      0x00\n        /* \"#utility.yul\":2053:2059   */\n      dup3\n        /* \"#utility.yul\":2048:2051   */\n      dup3\n        /* \"#utility.yul\":2041:2060   */\n      mstore\n        /* \"#utility.yul\":2093:2097   */\n      0x20\n        /* \"#utility.yul\":2088:2091   */\n      dup3\n        /* \"#utility.yul\":2084:2098   */\n      add\n        /* \"#utility.yul\":2069:2098   */\n      swap1\n      pop\n        /* \"#utility.yul\":1936:2104   */\n      swap3\n      swap2\n      pop\n      pop\n      jump\t// out\n        /* \"#utility.yul\":2110:2470   */\n    tag_99:\n        /* \"#utility.yul\":2196:2199   */\n      0x00\n        /* \"#utility.yul\":2224:2262   */\n      tag_155\n        /* \"#utility.yul\":2256:2261   */\n      dup3\n        /* \"#utility.yul\":2224:2262   */\n      tag_97\n      jump\t// in\n    tag_155:\n        /* \"#utility.yul\":2278:2348   */\n      tag_156\n        /* \"#utility.yul\":2341:2347   */\n      dup2\n        /* \"#utility.yul\":2336:2339   */\n      dup6\n        /* \"#utility.yul\":2278:2348   */\n      tag_98\n      jump\t// in\n    tag_156:\n        /* \"#utility.yul\":2271:2348   */\n      swap4\n      pop\n        /* \"#utility.yul\":2357:2409   */\n      tag_157\n        /* \"#utility.yul\":2402:2408   */\n      dup2\n        /* \"#utility.yul\":2397:2400   */\n      dup6\n        /* \"#utility.yul\":2390:2394   */\n      0x20\n        /* \"#utility.yul\":2383:2388   */\n      dup7\n        /* \"#utility.yul\":2379:2395   */\n      add\n        /* \"#utility.yul\":2357:2409   */\n      tag_94\n      jump\t// in\n    tag_157:\n        /* \"#utility.yul\":2434:2463   */\n      tag_158\n        /* \"#utility.yul\":2456:2462   */\n      dup2\n        /* \"#utility.yul\":2434:2463   */\n      tag_95\n      jump\t// in\n    tag_158:\n        /* \"#utility.yul\":2429:2432   */\n      dup5\n        /* \"#utility.yul\":2425:2464   */\n      add\n        /* \"#utility.yul\":2418:2464   */\n      swap2\n      pop\n        /* \"#utility.yul\":2200:2470   */\n      pop\n        /* \"#utility.yul\":2110:2470   */\n      swap3\n      swap2\n      pop\n      pop\n      jump\t// out\n        /* \"#utility.yul\":2476:2785   */\n    tag_29:\n        /* \"#utility.yul\":2587:2591   */\n      0x00\n        /* \"#utility.yul\":2625:2627   */\n      0x20\n        /* \"#utility.yul\":2614:2623   */\n      dup3\n        /* \"#utility.yul\":2610:2628   */\n      add\n        /* \"#utility.yul\":2602:2628   */\n      swap1\n      pop\n        /* \"#utility.yul\":2674:2683   */\n      dup2\n        /* \"#utility.yul\":2668:2672   */\n      dup2\n        /* \"#utility.yul\":2664:2684   */\n      sub\n        /* \"#utility.yul\":2660:2661   */\n      0x00\n        /* \"#utility.yul\":2649:2658   */\n      dup4\n        /* \"#utility.yul\":2645:2662   */\n      add\n        /* \"#utility.yul\":2638:2685   */\n      mstore\n        /* \"#utility.yul\":2702:2778   */\n      tag_160\n        /* \"#utility.yul\":2773:2777   */\n      dup2\n        /* \"#utility.yul\":2764:2770   */\n      dup5\n        /* \"#utility.yul\":2702:2778   */\n      tag_99\n      jump\t// in\n    tag_160:\n        /* \"#utility.yul\":2694:2778   */\n      swap1\n      pop\n        /* \"#utility.yul\":2476:2785   */\n      swap3\n      swap2\n      pop\n      pop\n      jump\t// out\n        /* \"#utility.yul\":2872:2989   */\n    tag_101:\n        /* \"#utility.yul\":2981:2982   */\n      0x00\n        /* \"#utility.yul\":2978:2979   */\n      dup1\n        /* \"#utility.yul\":2971:2983   */\n      revert\n        /* \"#utility.yul\":3118:3240   */\n    tag_103:\n        /* \"#utility.yul\":3191:3215   */\n      tag_165\n        /* \"#utility.yul\":3209:3214   */\n      dup2\n        /* \"#utility.yul\":3191:3215   */\n      tag_90\n      jump\t// in\n    tag_165:\n        /* \"#utility.yul\":3184:3189   */\n      dup2\n        /* \"#utility.yul\":3181:3216   */\n      eq\n        /* \"#utility.yul\":3171:3234   */\n      tag_166\n      jumpi\n        /* \"#utility.yul\":3230:3231   */\n      0x00\n        /* \"#utility.yul\":3227:3228   */\n      dup1\n        /* \"#utility.yul\":3220:3232   */\n      revert\n        /* \"#utility.yul\":3171:3234   */\n    tag_166:\n        /* \"#utility.yul\":3118:3240   */\n      pop\n      jump\t// out\n        /* \"#utility.yul\":3246:3385   */\n    tag_104:\n        /* \"#utility.yul\":3292:3297   */\n      0x00\n        /* \"#utility.yul\":3330:3336   */\n      dup2\n        /* \"#utility.yul\":3317:3337   */\n      calldataload\n        /* \"#utility.yul\":3308:3337   */\n      swap1\n      pop\n        /* \"#utility.yul\":3346:3379   */\n      tag_168\n        /* \"#utility.yul\":3373:3378   */\n      dup2\n        /* \"#utility.yul\":3346:3379   */\n      tag_103\n      jump\t// in\n    tag_168:\n        /* \"#utility.yul\":3246:3385   */\n      swap3\n      swap2\n      pop\n      pop\n      jump\t// out\n        /* \"#utility.yul\":3391:3720   */\n    tag_32:\n        /* \"#utility.yul\":3450:3456   */\n      0x00\n        /* \"#utility.yul\":3499:3501   */\n      0x20\n        /* \"#utility.yul\":3487:3496   */\n      dup3\n        /* \"#utility.yul\":3478:3485   */\n      dup5\n        /* \"#utility.yul\":3474:3497   */\n      sub\n        /* \"#utility.yul\":3470:3502   */\n      slt\n        /* \"#utility.yul\":3467:3586   */\n      iszero\n      tag_170\n      jumpi\n        /* \"#utility.yul\":3505:3584   */\n      tag_171\n      tag_101\n      jump\t// in\n    tag_171:\n        /* \"#utility.yul\":3467:3586   */\n    tag_170:\n        /* \"#utility.yul\":3625:3626   */\n      0x00\n        /* \"#utility.yul\":3650:3703   */\n      tag_172\n        /* \"#utility.yul\":3695:3702   */\n      dup5\n        /* \"#utility.yul\":3686:3692   */\n      dup3\n        /* \"#utility.yul\":3675:3684   */\n      dup6\n        /* \"#utility.yul\":3671:3693   */\n      add\n        /* \"#utility.yul\":3650:3703   */\n      tag_104\n      jump\t// in\n    tag_172:\n        /* \"#utility.yul\":3640:3703   */\n      swap2\n      pop\n        /* \"#utility.yul\":3596:3713   */\n      pop\n        /* \"#utility.yul\":3391:3720   */\n      swap3\n      swap2\n      pop\n      pop\n      jump\t// out\n        /* \"#utility.yul\":3726:3852   */\n    tag_105:\n        /* \"#utility.yul\":3763:3770   */\n      0x00\n        /* \"#utility.yul\":3803:3845   */\n      0xffffffffffffffffffffffffffffffffffffffff\n        /* \"#utility.yul\":3796:3801   */\n      dup3\n        /* \"#utility.yul\":3792:3846   */\n      and\n        /* \"#utility.yul\":3781:3846   */\n      swap1\n      pop\n        /* \"#utility.yul\":3726:3852   */\n      swap2\n      swap1\n      pop\n      jump\t// out\n        /* \"#utility.yul\":3858:3954   */\n    tag_106:\n        /* \"#utility.yul\":3895:3902   */\n      0x00\n        /* \"#utility.yul\":3924:3948   */\n      tag_175\n        /* \"#utility.yul\":3942:3947   */\n      dup3\n        /* \"#utility.yul\":3924:3948   */\n      tag_105\n      jump\t// in\n    tag_175:\n        /* \"#utility.yul\":3913:3948   */\n      swap1\n      pop\n        /* \"#utility.yul\":3858:3954   */\n      swap2\n      swap1\n      pop\n      jump\t// out\n        /* \"#utility.yul\":3960:4078   */\n    tag_107:\n        /* \"#utility.yul\":4047:4071   */\n      tag_177\n        /* \"#utility.yul\":4065:4070   */\n      dup2\n        /* \"#utility.yul\":4047:4071   */\n      tag_106\n      jump\t// in\n    tag_177:\n        /* \"#utility.yul\":4042:4045   */\n      dup3\n        /* \"#utility.yul\":4035:4072   */\n      mstore\n        /* \"#utility.yul\":3960:4078   */\n      pop\n      pop\n      jump\t// out\n        /* \"#utility.yul\":4084:4306   */\n    tag_38:\n        /* \"#utility.yul\":4177:4181   */\n      0x00\n        /* \"#utility.yul\":4215:4217   */\n      0x20\n        /* \"#utility.yul\":4204:4213   */\n      dup3\n        /* \"#utility.yul\":4200:4218   */\n      add\n        /* \"#utility.yul\":4192:4218   */\n      swap1\n      pop\n        /* \"#utility.yul\":4228:4299   */\n      tag_179\n        /* \"#utility.yul\":4296:4297   */\n      0x00\n        /* \"#utility.yul\":4285:4294   */\n      dup4\n        /* \"#utility.yul\":4281:4298   */\n      add\n        /* \"#utility.yul\":4272:4278   */\n      dup5\n        /* \"#utility.yul\":4228:4299   */\n      tag_107\n      jump\t// in\n    tag_179:\n        /* \"#utility.yul\":4084:4306   */\n      swap3\n      swap2\n      pop\n      pop\n      jump\t// out\n        /* \"#utility.yul\":4312:4492   */\n    tag_108:\n        /* \"#utility.yul\":4360:4437   */\n      0x4e487b7100000000000000000000000000000000000000000000000000000000\n        /* \"#utility.yul\":4357:4358   */\n      0x00\n        /* \"#utility.yul\":4350:4438   */\n      mstore\n        /* \"#utility.yul\":4457:4461   */\n      0x41\n        /* \"#utility.yul\":4454:4455   */\n      0x04\n        /* \"#utility.yul\":4447:4462   */\n      mstore\n        /* \"#utility.yul\":4481:4485   */\n      0x24\n        /* \"#utility.yul\":4478:4479   */\n      0x00\n        /* \"#utility.yul\":4471:4486   */\n      revert\n        /* \"#utility.yul\":4498:4678   */\n    tag_109:\n        /* \"#utility.yul\":4546:4623   */\n      0x4e487b7100000000000000000000000000000000000000000000000000000000\n        /* \"#utility.yul\":4543:4544   */\n      0x00\n        /* \"#utility.yul\":4536:4624   */\n      mstore\n        /* \"#utility.yul\":4643:4647   */\n      0x22\n        /* \"#utility.yul\":4640:4641   */\n      0x04\n        /* \"#utility.yul\":4633:4648   */\n      mstore\n        /* \"#utility.yul\":4667:4671   */\n      0x24\n        /* \"#utility.yul\":4664:4665   */\n      0x00\n        /* \"#utility.yul\":4657:4672   */\n      revert\n        /* \"#utility.yul\":4684:5004   */\n    tag_60:\n        /* \"#utility.yul\":4728:4734   */\n      0x00\n        /* \"#utility.yul\":4765:4766   */\n      0x02\n        /* \"#utility.yul\":4759:4763   */\n      dup3\n        /* \"#utility.yul\":4755:4767   */\n      div\n        /* \"#utility.yul\":4745:4767   */\n      swap1\n      pop\n        /* \"#utility.yul\":4812:4813   */\n      0x01\n        /* \"#utility.yul\":4806:4810   */\n      dup3\n        /* \"#utility.yul\":4802:4814   */\n      and\n        /* \"#utility.yul\":4833:4851   */\n      dup1\n        /* \"#utility.yul\":4823:4904   */\n      tag_183\n      jumpi\n        /* \"#utility.yul\":4889:4893   */\n      0x7f\n        /* \"#utility.yul\":4881:4887   */\n      dup3\n        /* \"#utility.yul\":4877:4894   */\n      and\n        /* \"#utility.yul\":4867:4894   */\n      swap2\n      pop\n        /* \"#utility.yul\":4823:4904   */\n    tag_183:\n        /* \"#utility.yul\":4951:4953   */\n      0x20\n        /* \"#utility.yul\":4943:4949   */\n      dup3\n        /* \"#utility.yul\":4940:4954   */\n      lt\n        /* \"#utility.yul\":4920:4938   */\n      dup2\n        /* \"#utility.yul\":4917:4955   */\n      sub\n        /* \"#utility.yul\":4914:4998   */\n      tag_184\n      jumpi\n        /* \"#utility.yul\":4970:4988   */\n      tag_185\n      tag_109\n      jump\t// in\n    tag_185:\n        /* \"#utility.yul\":4914:4998   */\n    tag_184:\n        /* \"#utility.yul\":4735:5004   */\n      pop\n        /* \"#utility.yul\":4684:5004   */\n      swap2\n      swap1\n      pop\n      jump\t// out\n        /* \"#utility.yul\":5010:5151   */\n    tag_110:\n        /* \"#utility.yul\":5059:5063   */\n      0x00\n        /* \"#utility.yul\":5082:5085   */\n      dup2\n        /* \"#utility.yul\":5074:5085   */\n      swap1\n      pop\n        /* \"#utility.yul\":5105:5108   */\n      dup2\n        /* \"#utility.yul\":5102:5103   */\n      0x00\n        /* \"#utility.yul\":5095:5109   */\n      mstore\n        /* \"#utility.yul\":5139:5143   */\n      0x20\n        /* \"#utility.yul\":5136:5137   */\n      0x00\n        /* \"#utility.yul\":5126:5144   */\n      keccak256\n        /* \"#utility.yul\":5118:5144   */\n      swap1\n      pop\n        /* \"#utility.yul\":5010:5151   */\n      swap2\n      swap1\n      pop\n      jump\t// out\n        /* \"#utility.yul\":5157:5250   */\n    tag_111:\n        /* \"#utility.yul\":5194:5200   */\n      0x00\n        /* \"#utility.yul\":5241:5243   */\n      0x20\n        /* \"#utility.yul\":5236:5238   */\n      0x1f\n        /* \"#utility.yul\":5229:5234   */\n      dup4\n        /* \"#utility.yul\":5225:5239   */\n      add\n        /* \"#utility.yul\":5221:5244   */\n      div\n        /* \"#utility.yul\":5211:5244   */\n      swap1\n      pop\n        /* \"#utility.yul\":5157:5250   */\n      swap2\n      swap1\n      pop\n      jump\t// out\n        /* \"#utility.yul\":5256:5363   */\n    tag_112:\n        /* \"#utility.yul\":5300:5308   */\n      0x00\n        /* \"#utility.yul\":5350:5355   */\n      dup3\n        /* \"#utility.yul\":5344:5348   */\n      dup3\n        /* \"#utility.yul\":5340:5356   */\n      shl\n        /* \"#utility.yul\":5319:5356   */\n      swap1\n      pop\n        /* \"#utility.yul\":5256:5363   */\n      swap3\n      swap2\n      pop\n      pop\n      jump\t// out\n        /* \"#utility.yul\":5369:5762   */\n    tag_113:\n        /* \"#utility.yul\":5438:5444   */\n      0x00\n        /* \"#utility.yul\":5488:5489   */\n      0x08\n        /* \"#utility.yul\":5476:5486   */\n      dup4\n        /* \"#utility.yul\":5472:5490   */\n      mul\n        /* \"#utility.yul\":5511:5608   */\n      tag_190\n        /* \"#utility.yul\":5541:5607   */\n      0xffffffffffffffffffffffffffffffffffffffffffffffffffffffffffffffff\n        /* \"#utility.yul\":5530:5539   */\n      dup3\n        /* \"#utility.yul\":5511:5608   */\n      tag_112\n      jump\t// in\n    tag_190:\n        /* \"#utility.yul\":5629:5668   */\n      tag_191\n        /* \"#utility.yul\":5659:5667   */\n      dup7\n        /* \"#utility.yul\":5648:5657   */\n      dup4\n        /* \"#utility.yul\":5629:5668   */\n      tag_112\n      jump\t// in\n    tag_191:\n        /* \"#utility.yul\":5617:5668   */\n      swap6\n      pop\n        /* \"#utility.yul\":5701:5705   */\n      dup1\n        /* \"#utility.yul\":5697:5706   */\n      not\n        /* \"#utility.yul\":5690:5695   */\n      dup5\n        /* \"#utility.yul\":5686:5707   */\n      and\n        /* \"#utility.yul\":5677:5707   */\n      swap4\n      pop\n        /* \"#utility.yul\":5750:5754   */\n      dup1\n        /* \"#utility.yul\":5740:5748   */\n      dup7\n        /* \"#utility.yul\":5736:5755   */\n      and\n        /* \"#utility.yul\":5729:5734   */\n      dup5\n        /* \"#utility.yul\":5726:5756   */\n      or\n        /* \"#utility.yul\":5716:5756   */\n      swap3\n      pop\n        /* \"#utility.yul\":5445:5762   */\n      pop\n      pop\n        /* \"#utility.yul\":5369:5762   */\n      swap4\n      swap3\n      pop\n      pop\n      pop\n      jump\t// out\n        /* \"#utility.yul\":5768:5828   */\n    tag_114:\n        /* \"#utility.yul\":5796:5799   */\n      0x00\n        /* \"#utility.yul\":5817:5822   */\n      dup2\n        /* \"#utility.yul\":5810:5822   */\n      swap1\n      pop\n        /* \"#utility.yul\":5768:5828   */\n      swap2\n      swap1\n      pop\n      jump\t// out\n        /* \"#utility.yul\":5834:5976   */\n    tag_115:\n        /* \"#utility.yul\":5884:5893   */\n      0x00\n        /* \"#utility.yul\":5917:5970   */\n      tag_194\n        /* \"#utility.yul\":5935:5969   */\n      tag_195\n        /* \"#utility.yul\":5944:5968   */\n      tag_196\n        /* \"#utility.yul\":5962:5967   */\n      dup5\n        /* \"#utility.yul\":5944:5968   */\n      tag_90\n      jump\t// in\n    tag_196:\n        /* \"#utility.yul\":5935:5969   */\n      tag_114\n      jump\t// in\n    tag_195:\n        /* \"#utility.yul\":5917:5970   */\n      tag_90\n      jump\t// in\n    tag_194:\n        /* \"#utility.yul\":5904:5970   */\n      swap1\n      pop\n        /* \"#utility.yul\":5834:5976   */\n      swap2\n      swap1\n      pop\n      jump\t// out\n        /* \"#utility.yul\":5982:6057   */\n    tag_116:\n        /* \"#utility.yul\":6025:6028   */\n      0x00\n        /* \"#utility.yul\":6046:6051   */\n      dup2\n        /* \"#utility.yul\":6039:6051   */\n      swap1\n      pop\n        /* \"#utility.yul\":5982:6057   */\n      swap2\n      swap1\n      pop\n      jump\t// out\n        /* \"#utility.yul\":6063:6332   */\n    tag_117:\n        /* \"#utility.yul\":6173:6212   */\n      tag_199\n        /* \"#utility.yul\":6204:6211   */\n      dup4\n        /* \"#utility.yul\":6173:6212   */\n      tag_115\n      jump\t// in\n    tag_199:\n        /* \"#utility.yul\":6234:6325   */\n      tag_200\n        /* \"#utility.yul\":6283:6324   */\n      tag_201\n        /* \"#utility.yul\":6307:6323   */\n      dup3\n        /* \"#utility.yul\":6283:6324   */\n      tag_116\n      jump\t// in\n    tag_201:\n        /* \"#utility.yul\":6275:6281   */\n      dup5\n        /* \"#utility.yul\":6268:6272   */\n      dup5\n        /* \"#utility.yul\":6262:6273   */\n      sload\n        /* \"#utility.yul\":6234:6325   */\n      tag_113\n      jump\t// in\n    tag_200:\n        /* \"#utility.yul\":6228:6232   */\n      dup3\n        /* \"#utility.yul\":6221:6326   */\n      sstore\n        /* \"#utility.yul\":6139:6332   */\n      pop\n        /* \"#utility.yul\":6063:6332   */\n      pop\n      pop\n      pop\n      jump\t// out\n        /* \"#utility.yul\":6338:6411   */\n    tag_118:\n        /* \"#utility.yul\":6383:6386   */\n      0x00\n        /* \"#utility.yul\":6338:6411   */\n      swap1\n      jump\t// out\n        /* \"#utility.yul\":6417:6606   */\n    tag_119:\n        /* \"#utility.yul\":6494:6526   */\n      tag_204\n      tag_118\n      jump\t// in\n    tag_204:\n        /* \"#utility.yul\":6535:6600   */\n      tag_205\n        /* \"#utility.yul\":6593:6599   */\n      dup2\n        /* \"#utility.yul\":6585:6591   */\n      dup5\n        /* \"#utility.yul\":6579:6583   */\n      dup5\n        /* \"#utility.yul\":6535:6600   */\n      tag_117\n      jump\t// in\n    tag_205:\n        /* \"#utility.yul\":6470:6606   */\n      pop\n        /* \"#utility.yul\":6417:6606   */\n      pop\n      pop\n      jump\t// out\n        /* \"#utility.yul\":6612:6798   */\n    tag_120:\n        /* \"#utility.yul\":6672:6792   */\n    tag_207:\n        /* \"#utility.yul\":6689:6692   */\n      dup2\n        /* \"#utility.yul\":6682:6687   */\n      dup2\n        /* \"#utility.yul\":6679:6693   */\n      lt\n        /* \"#utility.yul\":6672:6792   */\n      iszero\n      tag_209\n      jumpi\n        /* \"#utility.yul\":6743:6782   */\n      tag_210\n        /* \"#utility.yul\":6780:6781   */\n      0x00\n        /* \"#utility.yul\":6773:6778   */\n      dup3\n        /* \"#utility.yul\":6743:6782   */\n      tag_119\n      jump\t// in\n    tag_210:\n        /* \"#utility.yul\":6716:6717   */\n      0x01\n        /* \"#utility.yul\":6709:6714   */\n      dup2\n        /* \"#utility.yul\":6705:6718   */\n      add\n        /* \"#utility.yul\":6696:6718   */\n      swap1\n      pop\n        /* \"#utility.yul\":6672:6792   */\n      jump(tag_207)\n    tag_209:\n        /* \"#utility.yul\":6612:6798   */\n      pop\n      pop\n      jump\t// out\n        /* \"#utility.yul\":6804:7347   */\n    tag_121:\n        /* \"#utility.yul\":6905:6907   */\n      0x1f\n        /* \"#utility.yul\":6900:6903   */\n      dup3\n        /* \"#utility.yul\":6897:6908   */\n      gt\n        /* \"#utility.yul\":6894:7340   */\n      iszero\n      tag_212\n      jumpi\n        /* \"#utility.yul\":6939:6977   */\n      tag_213\n        /* \"#utility.yul\":6971:6976   */\n      dup2\n        /* \"#utility.yul\":6939:6977   */\n      tag_110\n      jump\t// in\n    tag_213:\n        /* \"#utility.yul\":7023:7052   */\n      tag_214\n        /* \"#utility.yul\":7041:7051   */\n      dup5\n        /* \"#utility.yul\":7023:7052   */\n      tag_111\n      jump\t// in\n    tag_214:\n        /* \"#utility.yul\":7013:7021   */\n      dup2\n        /* \"#utility.yul\":7009:7053   */\n      add\n        /* \"#utility.yul\":7206:7208   */\n      0x20\n        /* \"#utility.yul\":7194:7204   */\n      dup6\n        /* \"#utility.yul\":7191:7209   */\n      lt\n        /* \"#utility.yul\":7188:7237   */\n      iszero\n      tag_215\n      jumpi\n        /* \"#utility.yul\":7227:7235   */\n      dup2\n        /* \"#utility.yul\":7212:7235   */\n      swap1\n      pop\n        /* \"#utility.yul\":7188:7237   */\n    tag_215:\n        /* \"#utility.yul\":7250:7330   */\n      tag_216\n        /* \"#utility.yul\":7306:7328   */\n      tag_217\n        /* \"#utility.yul\":7324:7327   */\n      dup6\n        /* \"#utility.yul\":7306:7328   */\n      tag_111\n      jump\t// in\n    tag_217:\n        /* \"#utility.yul\":7296:7304   */\n      dup4\n        /* \"#utility.yul\":7292:7329   */\n      add\n        /* \"#utility.yul\":7279:7290   */\n      dup3\n        /* \"#utility.yul\":7250:7330   */\n      tag_120\n      jump\t// in\n    tag_216:\n        /* \"#utility.yul\":6909:7340   */\n      pop\n      pop\n        /* \"#utility.yul\":6894:7340   */\n    tag_212:\n        /* \"#utility.yul\":6804:7347   */\n      pop\n      pop\n      pop\n      jump\t// out\n        /* \"#utility.yul\":7353:7470   */\n    tag_122:\n        /* \"#utility.yul\":7407:7415   */\n      0x00\n        /* \"#utility.yul\":7457:7462   */\n      dup3\n        /* \"#utility.yul\":7451:7455   */\n      dup3\n        /* \"#utility.yul\":7447:7463   */\n      shr\n        /* \"#utility.yul\":7426:7463   */\n      swap1\n      pop\n        /* \"#utility.yul\":7353:7470   */\n      swap3\n      swap2\n      pop\n      pop\n      jump\t// out\n        /* \"#utility.yul\":7476:7645   */\n    tag_123:\n        /* \"#utility.yul\":7520:7526   */\n      0x00\n        /* \"#utility.yul\":7553:7604   */\n      tag_220\n        /* \"#utility.yul\":7601:7602   */\n      0x00\n        /* \"#utility.yul\":7597:7603   */\n      not\n        /* \"#utility.yul\":7589:7594   */\n      dup5\n        /* \"#utility.yul\":7586:7587   */\n      0x08\n        /* \"#utility.yul\":7582:7595   */\n      mul\n        /* \"#utility.yul\":7553:7604   */\n      tag_122\n      jump\t// in\n    tag_220:\n        /* \"#utility.yul\":7549:7605   */\n      not\n        /* \"#utility.yul\":7634:7638   */\n      dup1\n        /* \"#utility.yul\":7628:7632   */\n      dup4\n        /* \"#utility.yul\":7624:7639   */\n      and\n        /* \"#utility.yul\":7614:7639   */\n      swap2\n      pop\n        /* \"#utility.yul\":7527:7645   */\n      pop\n        /* \"#utility.yul\":7476:7645   */\n      swap3\n      swap2\n      pop\n      pop\n      jump\t// out\n        /* \"#utility.yul\":7650:7945   */\n    tag_124:\n        /* \"#utility.yul\":7726:7730   */\n      0x00\n        /* \"#utility.yul\":7872:7901   */\n      tag_222\n        /* \"#utility.yul\":7897:7900   */\n      dup4\n        /* \"#utility.yul\":7891:7895   */\n      dup4\n        /* \"#utility.yul\":7872:7901   */\n      tag_123\n      jump\t// in\n    tag_222:\n        /* \"#utility.yul\":7864:7901   */\n      swap2\n      pop\n        /* \"#utility.yul\":7934:7937   */\n      dup3\n        /* \"#utility.yul\":7931:7932   */\n      0x02\n        /* \"#utility.yul\":7927:7938   */\n      mul\n        /* \"#utility.yul\":7921:7925   */\n      dup3\n        /* \"#utility.yul\":7918:7939   */\n      or\n        /* \"#utility.yul\":7910:7939   */\n      swap1\n      pop\n        /* \"#utility.yul\":7650:7945   */\n      swap3\n      swap2\n      pop\n      pop\n      jump\t// out\n        /* \"#utility.yul\":7950:9345   */\n    tag_54:\n        /* \"#utility.yul\":8067:8104   */\n      tag_224\n        /* \"#utility.yul\":8100:8103   */\n      dup3\n        /* \"#utility.yul\":8067:8104   */\n      tag_92\n      jump\t// in\n    tag_224:\n        /* \"#utility.yul\":8169:8187   */\n      0xffffffffffffffff\n        /* \"#utility.yul\":8161:8167   */\n      dup2\n        /* \"#utility.yul\":8158:8188   */\n      gt\n        /* \"#utility.yul\":8155:8211   */\n      iszero\n      tag_225\n      jumpi\n        /* \"#utility.yul\":8191:8209   */\n      tag_226\n      tag_108\n      jump\t// in\n    tag_226:\n        /* \"#utility.yul\":8155:8211   */\n    tag_225:\n        /* \"#utility.yul\":8235:8273   */\n      tag_227\n        /* \"#utility.yul\":8267:8271   */\n      dup3\n        /* \"#utility.yul\":8261:8272   */\n      sload\n        /* \"#utility.yul\":8235:8273   */\n      tag_60\n      jump\t// in\n    tag_227:\n        /* \"#utility.yul\":8320:8387   */\n      tag_228\n        /* \"#utility.yul\":8380:8386   */\n      dup3\n        /* \"#utility.yul\":8372:8378   */\n      dup3\n        /* \"#utility.yul\":8366:8370   */\n      dup6\n        /* \"#utility.yul\":8320:8387   */\n      tag_121\n      jump\t// in\n    tag_228:\n        /* \"#utility.yul\":8414:8415   */\n      0x00\n        /* \"#utility.yul\":8438:8442   */\n      0x20\n        /* \"#utility.yul\":8425:8442   */\n      swap1\n      pop\n        /* \"#utility.yul\":8470:8472   */\n      0x1f\n        /* \"#utility.yul\":8462:8468   */\n      dup4\n        /* \"#utility.yul\":8459:8473   */\n      gt\n        /* \"#utility.yul\":8487:8488   */\n      0x01\n        /* \"#utility.yul\":8482:9100   */\n      dup2\n      eq\n      tag_230\n      jumpi\n        /* \"#utility.yul\":9144:9145   */\n      0x00\n        /* \"#utility.yul\":9161:9167   */\n      dup5\n        /* \"#utility.yul\":9158:9235   */\n      iszero\n      tag_231\n      jumpi\n        /* \"#utility.yul\":9210:9219   */\n      dup3\n        /* \"#utility.yul\":9205:9208   */\n      dup8\n        /* \"#utility.yul\":9201:9220   */\n      add\n        /* \"#utility.yul\":9195:9221   */\n      mload\n        /* \"#utility.yul\":9186:9221   */\n      swap1\n      pop\n        /* \"#utility.yul\":9158:9235   */\n    tag_231:\n        /* \"#utility.yul\":9261:9328   */\n      tag_232\n        /* \"#utility.yul\":9321:9327   */\n      dup6\n        /* \"#utility.yul\":9314:9319   */\n      dup3\n        /* \"#utility.yul\":9261:9328   */\n      tag_124\n      jump\t// in\n    tag_232:\n        /* \"#utility.yul\":9255:9259   */\n      dup7\n        /* \"#utility.yul\":9248:9329   */\n      sstore\n        /* \"#utility.yul\":9117:9339   */\n      pop\n        /* \"#utility.yul\":8452:9339   */\n      jump(tag_229)\n        /* \"#utility.yul\":8482:9100   */\n    tag_230:\n        /* \"#utility.yul\":8534:8538   */\n      0x1f\n        /* \"#utility.yul\":8530:8539   */\n      not\n        /* \"#utility.yul\":8522:8528   */\n      dup5\n        /* \"#utility.yul\":8518:8540   */\n      and\n        /* \"#utility.yul\":8568:8605   */\n      tag_233\n        /* \"#utility.yul\":8600:8604   */\n      dup7\n        /* \"#utility.yul\":8568:8605   */\n      tag_110\n      jump\t// in\n    tag_233:\n        /* \"#utility.yul\":8627:8628   */\n      0x00\n        /* \"#utility.yul\":8641:8849   */\n    tag_234:\n        /* \"#utility.yul\":8655:8662   */\n      dup3\n        /* \"#utility.yul\":8652:8653   */\n      dup2\n        /* \"#utility.yul\":8649:8663   */\n      lt\n        /* \"#utility.yul\":8641:8849   */\n      iszero\n      tag_236\n      jumpi\n        /* \"#utility.yul\":8734:8743   */\n      dup5\n        /* \"#utility.yul\":8729:8732   */\n      dup10\n        /* \"#utility.yul\":8725:8744   */\n      add\n        /* \"#utility.yul\":8719:8745   */\n      mload\n        /* \"#utility.yul\":8711:8717   */\n      dup3\n        /* \"#utility.yul\":8704:8746   */\n      sstore\n        /* \"#utility.yul\":8785:8786   */\n      0x01\n        /* \"#utility.yul\":8777:8783   */\n      dup3\n        /* \"#utility.yul\":8773:8787   */\n      add\n        /* \"#utility.yul\":8763:8787   */\n      swap2\n      pop\n        /* \"#utility.yul\":8832:8834   */\n      0x20\n        /* \"#utility.yul\":8821:8830   */\n      dup6\n        /* \"#utility.yul\":8817:8835   */\n      add\n        /* \"#utility.yul\":8804:8835   */\n      swap5\n      pop\n        /* \"#utility.yul\":8678:8682   */\n      0x20\n        /* \"#utility.yul\":8675:8676   */\n      dup2\n        /* \"#utility.yul\":8671:8683   */\n      add\n        /* \"#utility.yul\":8666:8683   */\n      swap1\n      pop\n        /* \"#utility.yul\":8641:8849   */\n      jump(tag_234)\n    tag_236:\n        /* \"#utility.yul\":8877:8883   */\n      dup7\n        /* \"#utility.yul\":8868:8875   */\n      dup4\n        /* \"#utility.yul\":8865:8884   */\n      lt\n        /* \"#utility.yul\":8862:9041   */\n      iszero\n      tag_237\n      jumpi\n        /* \"#utility.yul\":8935:8944   */\n      dup5\n        /* \"#utility.yul\":8930:8933   */\n      dup10\n        /* \"#utility.yul\":8926:8945   */\n      add\n        /* \"#utility.yul\":8920:8946   */\n      mload\n        /* \"#utility.yul\":8978:9026   */\n      tag_238\n        /* \"#utility.yul\":9020:9024   */\n      0x1f\n        /* \"#utility.yul\":9012:9018   */\n      dup10\n        /* \"#utility.yul\":9008:9025   */\n      and\n        /* \"#utility.yul\":8997:9006   */\n      dup3\n        /* \"#utility.yul\":8978:9026   */\n      tag_123\n      jump\t// in\n    tag_238:\n        /* \"#utility.yul\":8970:8976   */\n      dup4\n        /* \"#utility.yul\":8963:9027   */\n      sstore\n        /* \"#utility.yul\":8885:9041   */\n      pop\n        /* \"#utility.yul\":8862:9041   */\n    tag_237:\n        /* \"#utility.yul\":9087:9088   */\n      0x01\n        /* \"#utility.yul\":9083:9084   */\n      0x02\n        /* \"#utility.yul\":9075:9081   */\n      dup9\n        /* \"#utility.yul\":9071:9085   */\n      mul\n        /* \"#utility.yul\":9067:9089   */\n      add\n        /* \"#utility.yul\":9061:9065   */\n      dup9\n        /* \"#utility.yul\":9054:9090   */\n      sstore\n        /* \"#utility.yul\":8489:9100   */\n      pop\n      pop\n      pop\n        /* \"#utility.yul\":8452:9339   */\n    tag_229:\n      pop\n        /* \"#utility.yul\":8042:9345   */\n      pop\n      pop\n      pop\n        /* \"#utility.yul\":7950:9345   */\n      pop\n      pop\n      jump\t// out\n        /* \"#utility.yul\":9351:9491   */\n    tag_125:\n        /* \"#utility.yul\":9399:9403   */\n      0x00\n        /* \"#utility.yul\":9422:9425   */\n      dup2\n        /* \"#utility.yul\":9414:9425   */\n      swap1\n      pop\n        /* \"#utility.yul\":9445:9448   */\n      dup2\n        /* \"#utility.yul\":9442:9443   */\n      0x00\n        /* \"#utility.yul\":9435:9449   */\n      mstore\n        /* \"#utility.yul\":9479:9483   */\n      0x20\n        /* \"#utility.yul\":9476:9477   */\n      0x00\n        /* \"#utility.yul\":9466:9484   */\n      keccak256\n        /* \"#utility.yul\":9458:9484   */\n      swap1\n      pop\n        /* \"#utility.yul\":9351:9491   */\n      swap2\n      swap1\n      pop\n      jump\t// out\n        /* \"#utility.yul\":9497:10038   */\n    tag_126:\n        /* \"#utility.yul\":9597:9599   */\n      0x1f\n        /* \"#utility.yul\":9592:9595   */\n      dup3\n        /* \"#utility.yul\":9589:9600   */\n      gt\n        /* \"#utility.yul\":9586:10031   */\n      iszero\n      tag_241\n      jumpi\n        /* \"#utility.yul\":9631:9668   */\n      tag_242\n        /* \"#utility.yul\":9662:9667   */\n      dup2\n        /* \"#utility.yul\":9631:9668   */\n      tag_125\n      jump\t// in\n    tag_242:\n        /* \"#utility.yul\":9714:9743   */\n      tag_243\n        /* \"#utility.yul\":9732:9742   */\n      dup5\n        /* \"#utility.yul\":9714:9743   */\n      tag_111\n      jump\t// in\n    tag_243:\n        /* \"#utility.yul\":9704:9712   */\n      dup2\n        /* \"#utility.yul\":9700:9744   */\n      add\n        /* \"#utility.yul\":9897:9899   */\n      0x20\n        /* \"#utility.yul\":9885:9895   */\n      dup6\n        /* \"#utility.yul\":9882:9900   */\n      lt\n        /* \"#utility.yul\":9879:9928   */\n      iszero\n      tag_244\n      jumpi\n        /* \"#utility.yul\":9918:9926   */\n      dup2\n        /* \"#utility.yul\":9903:9926   */\n      swap1\n      pop\n        /* \"#utility.yul\":9879:9928   */\n    tag_244:\n        /* \"#utility.yul\":9941:10021   */\n      tag_245\n        /* \"#utility.yul\":9997:10019   */\n      tag_246\n        /* \"#utility.yul\":10015:10018   */\n      dup6\n        /* \"#utility.yul\":9997:10019   */\n      tag_111\n      jump\t// in\n    tag_246:\n        /* \"#utility.yul\":9987:9995   */\n      dup4\n        /* \"#utility.yul\":9983:10020   */\n      add\n        /* \"#utility.yul\":9970:9981   */\n      dup3\n        /* \"#utility.yul\":9941:10021   */\n      tag_120\n      jump\t// in\n    tag_245:\n        /* \"#utility.yul\":9601:10031   */\n      pop\n      pop\n        /* \"#utility.yul\":9586:10031   */\n    tag_241:\n        /* \"#utility.yul\":9497:10038   */\n      pop\n      pop\n      pop\n      jump\t// out\n        /* \"#utility.yul\":10044:11434   */\n    tag_58:\n        /* \"#utility.yul\":10159:10195   */\n      tag_248\n        /* \"#utility.yul\":10191:10194   */\n      dup3\n        /* \"#utility.yul\":10159:10195   */\n      tag_97\n      jump\t// in\n    tag_248:\n        /* \"#utility.yul\":10260:10278   */\n      0xffffffffffffffff\n        /* \"#utility.yul\":10252:10258   */\n      dup2\n        /* \"#utility.yul\":10249:10279   */\n      gt\n        /* \"#utility.yul\":10246:10302   */\n      iszero\n      tag_249\n      jumpi\n        /* \"#utility.yul\":10282:10300   */\n      tag_250\n      tag_108\n      jump\t// in\n    tag_250:\n        /* \"#utility.yul\":10246:10302   */\n    tag_249:\n        /* \"#utility.yul\":10326:10364   */\n      tag_251\n        /* \"#utility.yul\":10358:10362   */\n      dup3\n        /* \"#utility.yul\":10352:10363   */\n      sload\n        /* \"#utility.yul\":10326:10364   */\n      tag_60\n      jump\t// in\n    tag_251:\n        /* \"#utility.yul\":10411:10477   */\n      tag_252\n        /* \"#utility.yul\":10470:10476   */\n      dup3\n        /* \"#utility.yul\":10462:10468   */\n      dup3\n        /* \"#utility.yul\":10456:10460   */\n      dup6\n        /* \"#utility.yul\":10411:10477   */\n      tag_126\n      jump\t// in\n    tag_252:\n        /* \"#utility.yul\":10504:10505   */\n      0x00\n        /* \"#utility.yul\":10528:10532   */\n      0x20\n        /* \"#utility.yul\":10515:10532   */\n      swap1\n      pop\n        /* \"#utility.yul\":10560:10562   */\n      0x1f\n        /* \"#utility.yul\":10552:10558   */\n      dup4\n        /* \"#utility.yul\":10549:10563   */\n      gt\n        /* \"#utility.yul\":10577:10578   */\n      0x01\n        /* \"#utility.yul\":10572:11189   */\n      dup2\n      eq\n      tag_254\n      jumpi\n        /* \"#utility.yul\":11233:11234   */\n      0x00\n        /* \"#utility.yul\":11250:11256   */\n      dup5\n        /* \"#utility.yul\":11247:11324   */\n      iszero\n      tag_255\n      jumpi\n        /* \"#utility.yul\":11299:11308   */\n      dup3\n        /* \"#utility.yul\":11294:11297   */\n      dup8\n        /* \"#utility.yul\":11290:11309   */\n      add\n        /* \"#utility.yul\":11284:11310   */\n      mload\n        /* \"#utility.yul\":11275:11310   */\n      swap1\n      pop\n        /* \"#utility.yul\":11247:11324   */\n    tag_255:\n        /* \"#utility.yul\":11350:11417   */\n      tag_256\n        /* \"#utility.yul\":11410:11416   */\n      dup6\n        /* \"#utility.yul\":11403:11408   */\n      dup3\n        /* \"#utility.yul\":11350:11417   */\n      tag_124\n      jump\t// in\n    tag_256:\n        /* \"#utility.yul\":11344:11348   */\n      dup7\n        /* \"#utility.yul\":11337:11418   */\n      sstore\n        /* \"#utility.yul\":11206:11428   */\n      pop\n        /* \"#utility.yul\":10542:11428   */\n      jump(tag_253)\n        /* \"#utility.yul\":10572:11189   */\n    tag_254:\n        /* \"#utility.yul\":10624:10628   */\n      0x1f\n        /* \"#utility.yul\":10620:10629   */\n      not\n        /* \"#utility.yul\":10612:10618   */\n      dup5\n        /* \"#utility.yul\":10608:10630   */\n      and\n        /* \"#utility.yul\":10658:10694   */\n      tag_257\n        /* \"#utility.yul\":10689:10693   */\n      dup7\n        /* \"#utility.yul\":10658:10694   */\n      tag_125\n      jump\t// in\n    tag_257:\n        /* \"#utility.yul\":10716:10717   */\n      0x00\n        /* \"#utility.yul\":10730:10938   */\n    tag_258:\n        /* \"#utility.yul\":10744:10751   */\n      dup3\n        /* \"#utility.yul\":10741:10742   */\n      dup2\n        /* \"#utility.yul\":10738:10752   */\n      lt\n        /* \"#utility.yul\":10730:10938   */\n      iszero\n      tag_260\n      jumpi\n        /* \"#utility.yul\":10823:10832   */\n      dup5\n        /* \"#utility.yul\":10818:10821   */\n      dup10\n        /* \"#utility.yul\":10814:10833   */\n      add\n        /* \"#utility.yul\":10808:10834   */\n      mload\n        /* \"#utility.yul\":10800:10806   */\n      dup3\n        /* \"#utility.yul\":10793:10835   */\n      sstore\n        /* \"#utility.yul\":10874:10875   */\n      0x01\n        /* \"#utility.yul\":10866:10872   */\n      dup3\n        /* \"#utility.yul\":10862:10876   */\n      add\n        /* \"#utility.yul\":10852:10876   */\n      swap2\n      pop\n        /* \"#utility.yul\":10921:10923   */\n      0x20\n        /* \"#utility.yul\":10910:10919   */\n      dup6\n        /* \"#utility.yul\":10906:10924   */\n      add\n        /* \"#utility.yul\":10893:10924   */\n      swap5\n      pop\n        /* \"#utility.yul\":10767:10771   */\n      0x20\n        /* \"#utility.yul\":10764:10765   */\n      dup2\n        /* \"#utility.yul\":10760:10772   */\n      add\n        /* \"#utility.yul\":10755:10772   */\n      swap1\n      pop\n        /* \"#utility.yul\":10730:10938   */\n      jump(tag_258)\n    tag_260:\n        /* \"#utility.yul\":10966:10972   */\n      dup7\n        /* \"#utility.yul\":10957:10964   */\n      dup4\n        /* \"#utility.yul\":10954:10973   */\n      lt\n        /* \"#utility.yul\":10951:11130   */\n      iszero\n      tag_261\n      jumpi\n        /* \"#utility.yul\":11024:11033   */\n      dup5\n        /* \"#utility.yul\":11019:11022   */\n      dup10\n        /* \"#utility.yul\":11015:11034   */\n      add\n        /* \"#utility.yul\":11009:11035   */\n      mload\n        /* \"#utility.yul\":11067:11115   */\n      tag_262\n        /* \"#utility.yul\":11109:11113   */\n      0x1f\n        /* \"#utility.yul\":11101:11107   */\n      dup10\n        /* \"#utility.yul\":11097:11114   */\n      and\n        /* \"#utility.yul\":11086:11095   */\n      dup3\n        /* \"#utility.yul\":11067:11115   */\n      tag_123\n      jump\t// in\n    tag_262:\n        /* \"#utility.yul\":11059:11065   */\n      dup4\n        /* \"#utility.yul\":11052:11116   */\n      sstore\n        /* \"#utility.yul\":10974:11130   */\n      pop\n        /* \"#utility.yul\":10951:11130   */\n    tag_261:\n        /* \"#utility.yul\":11176:11177   */\n      0x01\n        /* \"#utility.yul\":11172:11173   */\n      0x02\n        /* \"#utility.yul\":11164:11170   */\n      dup9\n        /* \"#utility.yul\":11160:11174   */\n      mul\n        /* \"#utility.yul\":11156:11178   */\n      add\n        /* \"#utility.yul\":11150:11154   */\n      dup9\n        /* \"#utility.yul\":11143:11179   */\n      sstore\n        /* \"#utility.yul\":10579:11189   */\n      pop\n      pop\n      pop\n        /* \"#utility.yul\":10542:11428   */\n    tag_253:\n      pop\n        /* \"#utility.yul\":10134:11434   */\n      pop\n      pop\n      pop\n        /* \"#utility.yul\":10044:11434   */\n      pop\n      pop\n      jump\t// out\n        /* \"#utility.yul\":11440:11525   */\n    tag_127:\n        /* \"#utility.yul\":11485:11492   */\n      0x00\n        /* \"#utility.yul\":11514:11519   */\n      dup2\n        /* \"#utility.yul\":11503:11519   */\n      swap1\n      pop\n        /* \"#utility.yul\":11440:11525   */\n      swap2\n      swap1\n      pop\n      jump\t// out\n        /* \"#utility.yul\":11531:11689   */\n    tag_128:\n        /* \"#utility.yul\":11589:11598   */\n      0x00\n        /* \"#utility.yul\":11622:11683   */\n      tag_265\n        /* \"#utility.yul\":11640:11682   */\n      tag_266\n        /* \"#utility.yul\":11649:11681   */\n      tag_267\n        /* \"#utility.yul\":11675:11680   */\n      dup5\n        /* \"#utility.yul\":11649:11681   */\n      tag_127\n      jump\t// in\n    tag_267:\n        /* \"#utility.yul\":11640:11682   */\n      tag_114\n      jump\t// in\n    tag_266:\n        /* \"#utility.yul\":11622:11683   */\n      tag_90\n      jump\t// in\n    tag_265:\n        /* \"#utility.yul\":11609:11683   */\n      swap1\n      pop\n        /* \"#utility.yul\":11531:11689   */\n      swap2\n      swap1\n      pop\n      jump\t// out\n        /* \"#utility.yul\":11695:11842   */\n    tag_129:\n        /* \"#utility.yul\":11790:11835   */\n      tag_269\n        /* \"#utility.yul\":11829:11834   */\n      dup2\n        /* \"#utility.yul\":11790:11835   */\n      tag_128\n      jump\t// in\n    tag_269:\n        /* \"#utility.yul\":11785:11788   */\n      dup3\n        /* \"#utility.yul\":11778:11836   */\n      mstore\n        /* \"#utility.yul\":11695:11842   */\n      pop\n      pop\n      jump\t// out\n        /* \"#utility.yul\":11848:12086   */\n    tag_73:\n        /* \"#utility.yul\":11949:11953   */\n      0x00\n        /* \"#utility.yul\":11987:11989   */\n      0x20\n        /* \"#utility.yul\":11976:11985   */\n      dup3\n        /* \"#utility.yul\":11972:11990   */\n      add\n        /* \"#utility.yul\":11964:11990   */\n      swap1\n      pop\n        /* \"#utility.yul\":12000:12079   */\n      tag_271\n        /* \"#utility.yul\":12076:12077   */\n      0x00\n        /* \"#utility.yul\":12065:12074   */\n      dup4\n        /* \"#utility.yul\":12061:12078   */\n      add\n        /* \"#utility.yul\":12052:12058   */\n      dup5\n        /* \"#utility.yul\":12000:12079   */\n      tag_129\n      jump\t// in\n    tag_271:\n        /* \"#utility.yul\":11848:12086   */\n      swap3\n      swap2\n      pop\n      pop\n      jump\t// out\n        /* \"#utility.yul\":12092:12235   */\n    tag_130:\n        /* \"#utility.yul\":12149:12154   */\n      0x00\n        /* \"#utility.yul\":12180:12186   */\n      dup2\n        /* \"#utility.yul\":12174:12187   */\n      mload\n        /* \"#utility.yul\":12165:12187   */\n      swap1\n      pop\n        /* \"#utility.yul\":12196:12229   */\n      tag_273\n        /* \"#utility.yul\":12223:12228   */\n      dup2\n        /* \"#utility.yul\":12196:12229   */\n      tag_103\n      jump\t// in\n    tag_273:\n        /* \"#utility.yul\":12092:12235   */\n      swap3\n      swap2\n      pop\n      pop\n      jump\t// out\n        /* \"#utility.yul\":12241:12592   */\n    tag_84:\n        /* \"#utility.yul\":12311:12317   */\n      0x00\n        /* \"#utility.yul\":12360:12362   */\n      0x20\n        /* \"#utility.yul\":12348:12357   */\n      dup3\n        /* \"#utility.yul\":12339:12346   */\n      dup5\n        /* \"#utility.yul\":12335:12358   */\n      sub\n        /* \"#utility.yul\":12331:12363   */\n      slt\n        /* \"#utility.yul\":12328:12447   */\n      iszero\n      tag_275\n      jumpi\n        /* \"#utility.yul\":12366:12445   */\n      tag_276\n      tag_101\n      jump\t// in\n    tag_276:\n        /* \"#utility.yul\":12328:12447   */\n    tag_275:\n        /* \"#utility.yul\":12486:12487   */\n      0x00\n        /* \"#utility.yul\":12511:12575   */\n      tag_277\n        /* \"#utility.yul\":12567:12574   */\n      dup5\n        /* \"#utility.yul\":12558:12564   */\n      dup3\n        /* \"#utility.yul\":12547:12556   */\n      dup6\n        /* \"#utility.yul\":12543:12565   */\n      add\n        /* \"#utility.yul\":12511:12575   */\n      tag_130\n      jump\t// in\n    tag_277:\n        /* \"#utility.yul\":12501:12575   */\n      swap2\n      pop\n        /* \"#utility.yul\":12457:12585   */\n      pop\n        /* \"#utility.yul\":12241:12592   */\n      swap3\n      swap2\n      pop\n      pop\n      jump\t// out\n    stop\n\n    sub_0: assembly {\n            /* \"study/chapter04/newContract.sol\":53:416  contract testContract{... */\n          mstore(0x40, 0x80)\n            /* \"study/chapter04/newContract.sol\":99:148  constructor(uint _a) payable{... */\n          mload(0x40)\n          sub(codesize, bytecodeSize)\n          dup1\n          bytecodeSize\n          dup4\n          codecopy\n          dup2\n          dup2\n          add\n          0x40\n          mstore\n          dup2\n          add\n          swap1\n          tag_1\n          swap2\n          swap1\n          tag_2\n          jump\t// in\n        tag_1:\n            /* \"study/chapter04/newContract.sol\":139:141  _a */\n          dup1\n            /* \"study/chapter04/newContract.sol\":137:138  a */\n          0x00\n            /* \"study/chapter04/newContract.sol\":137:141  a=_a */\n          dup2\n          swap1\n          sstore\n          pop\n            /* \"study/chapter04/newContract.sol\":99:148  constructor(uint _a) payable{... */\n          pop\n            /* \"study/chapter04/newContract.sol\":53:416  contract testContract{... */\n          jump(tag_5)\n            /* \"#utility.yul\":88:205   */\n        tag_7:\n            /* \"#utility.yul\":197:198   */\n          0x00\n            /* \"#utility.yul\":194:195   */\n          dup1\n            /* \"#utility.yul\":187:199   */\n          revert\n            /* \"#utility.yul\":334:411   */\n        tag_9:\n            /* \"#utility.yul\":371:378   */\n          0x00\n            /* \"#utility.yul\":400:405   */\n          dup2\n            /* \"#utility.yul\":389:405   */\n          swap1\n          pop\n            /* \"#utility.yul\":334:411   */\n          swap2\n          swap1\n          pop\n          jump\t// out\n            /* \"#utility.yul\":417:539   */\n        tag_10:\n            /* \"#utility.yul\":490:514   */\n          tag_18\n            /* \"#utility.yul\":508:513   */\n          dup2\n            /* \"#utility.yul\":490:514   */\n          tag_9\n          jump\t// in\n        tag_18:\n            /* \"#utility.yul\":483:488   */\n          dup2\n            /* \"#utility.yul\":480:515   */\n          eq\n            /* \"#utility.yul\":470:533   */\n          tag_19\n          jumpi\n            /* \"#utility.yul\":529:530   */\n          0x00\n            /* \"#utility.yul\":526:527   */\n          dup1\n            /* \"#utility.yul\":519:531   */\n          revert\n            /* \"#utility.yul\":470:533   */\n        tag_19:\n            /* \"#utility.yul\":417:539   */\n          pop\n          jump\t// out\n            /* \"#utility.yul\":545:688   */\n        tag_11:\n            /* \"#utility.yul\":602:607   */\n          0x00\n            /* \"#utility.yul\":633:639   */\n          dup2\n            /* \"#utility.yul\":627:640   */\n          mload\n            /* \"#utility.yul\":618:640   */\n          swap1\n          pop\n            /* \"#utility.yul\":649:682   */\n          tag_21\n            /* \"#utility.yul\":676:681   */\n          dup2\n            /* \"#utility.yul\":649:682   */\n          tag_10\n          jump\t// in\n        tag_21:\n            /* \"#utility.yul\":545:688   */\n          swap3\n          swap2\n          pop\n          pop\n          jump\t// out\n            /* \"#utility.yul\":694:1045   */\n        tag_2:\n            /* \"#utility.yul\":764:770   */\n          0x00\n            /* \"#utility.yul\":813:815   */\n          0x20\n            /* \"#utility.yul\":801:810   */\n          dup3\n            /* \"#utility.yul\":792:799   */\n          dup5\n            /* \"#utility.yul\":788:811   */\n          sub\n            /* \"#utility.yul\":784:816   */\n          slt\n            /* \"#utility.yul\":781:900   */\n          iszero\n          tag_23\n          jumpi\n            /* \"#utility.yul\":819:898   */\n          tag_24\n          tag_7\n          jump\t// in\n        tag_24:\n            /* \"#utility.yul\":781:900   */\n        tag_23:\n            /* \"#utility.yul\":939:940   */\n          0x00\n            /* \"#utility.yul\":964:1028   */\n          tag_25\n            /* \"#utility.yul\":1020:1027   */\n          dup5\n            /* \"#utility.yul\":1011:1017   */\n          dup3\n            /* \"#utility.yul\":1000:1009   */\n          dup6\n            /* \"#utility.yul\":996:1018   */\n          add\n            /* \"#utility.yul\":964:1028   */\n          tag_11\n          jump\t// in\n        tag_25:\n            /* \"#utility.yul\":954:1028   */\n          swap2\n          pop\n            /* \"#utility.yul\":910:1038   */\n          pop\n            /* \"#utility.yul\":694:1045   */\n          swap3\n          swap2\n          pop\n          pop\n          jump\t// out\n            /* \"study/chapter04/newContract.sol\":53:416  contract testContract{... */\n        tag_5:\n          dataSize(sub_0)\n          dup1\n          dataOffset(sub_0)\n          0x00\n          codecopy\n          0x00\n          return\n        stop\n\n        sub_0: assembly {\n                /* \"study/chapter04/newContract.sol\":53:416  contract testContract{... */\n              mstore(0x40, 0x80)\n              callvalue\n              dup1\n              iszero\n              tag_1\n              jumpi\n              0x00\n              dup1\n              revert\n            tag_1:\n              pop\n              jumpi(tag_2, lt(calldatasize, 0x04))\n              shr(0xe0, calldataload(0x00))\n              dup1\n              0x0dbe671f\n              eq\n              tag_3\n              jumpi\n              dup1\n              0x12065fe0\n              eq\n              tag_4\n              jumpi\n              dup1\n              0xee919d50\n              eq\n              tag_5\n              jumpi\n              dup1\n              0xf5f5ba72\n              eq\n              tag_6\n              jumpi\n            tag_2:\n              0x00\n              dup1\n              revert\n                /* \"study/chapter04/newContract.sol\":80:93  uint public a */\n            tag_3:\n              tag_7\n              tag_8\n              jump\t// in\n            tag_7:\n              mload(0x40)\n              tag_9\n              swap2\n              swap1\n              tag_10\n              jump\t// in\n            tag_9:\n              mload(0x40)\n              dup1\n              swap2\n              sub\n              swap1\n              return\n                /* \"study/chapter04/newContract.sol\":153:246  function getBalance()external view returns(uint){... */\n            tag_4:\n              tag_11\n              tag_12\n              jump\t// in\n            tag_11:\n              mload(0x40)\n              tag_13\n              swap2\n              swap1\n              tag_10\n              jump\t// in\n            tag_13:\n              mload(0x40)\n              dup1\n              swap2\n              sub\n              swap1\n              return\n                /* \"study/chapter04/newContract.sol\":361:414  function setA(uint _a)external{... */\n            tag_5:\n              tag_14\n              0x04\n              dup1\n              calldatasize\n              sub\n              dup2\n              add\n              swap1\n              tag_15\n              swap2\n              swap1\n              tag_16\n              jump\t// in\n            tag_15:\n              tag_17\n              jump\t// in\n            tag_14:\n              stop\n                /* \"study/chapter04/newContract.sol\":256:356  function getContractName()external pure returns(string memory){... */\n            tag_6:\n              tag_18\n              tag_19\n              jump\t// in\n            tag_18:\n              mload(0x40)\n              tag_20\n              swap2\n              swap1\n              tag_21\n              jump\t// in\n            tag_20:\n              mload(0x40)\n              dup1\n              swap2\n              sub\n              swap1\n              return\n                /* \"study/chapter04/newContract.sol\":80:93  uint public a */\n            tag_8:\n              sload(0x00)\n              dup2\n              jump\t// out\n                /* \"study/chapter04/newContract.sol\":153:246  function getBalance()external view returns(uint){... */\n            tag_12:\n                /* \"study/chapter04/newContract.sol\":196:200  uint */\n              0x00\n                /* \"study/chapter04/newContract.sol\":218:239  address(this).balance */\n              selfbalance\n                /* \"study/chapter04/newContract.sol\":211:239  return address(this).balance */\n              swap1\n              pop\n                /* \"study/chapter04/newContract.sol\":153:246  function getBalance()external view returns(uint){... */\n              swap1\n              jump\t// out\n                /* \"study/chapter04/newContract.sol\":361:414  function setA(uint _a)external{... */\n            tag_17:\n                /* \"study/chapter04/newContract.sol\":405:407  _a */\n              dup1\n                /* \"study/chapter04/newContract.sol\":401:402  a */\n              0x00\n                /* \"study/chapter04/newContract.sol\":401:407  a = _a */\n              dup2\n              swap1\n              sstore\n              pop\n                /* \"study/chapter04/newContract.sol\":361:414  function setA(uint _a)external{... */\n              pop\n              jump\t// out\n                /* \"study/chapter04/newContract.sol\":256:356  function getContractName()external pure returns(string memory){... */\n            tag_19:\n                /* \"study/chapter04/newContract.sol\":304:317  string memory */\n              0x60\n                /* \"study/chapter04/newContract.sol\":328:349  return \"testContract\" */\n              mload(0x40)\n              dup1\n              0x40\n              add\n              0x40\n              mstore\n              dup1\n              0x0c\n              dup2\n              mstore\n              0x20\n              add\n              0x74657374436f6e74726163740000000000000000000000000000000000000000\n              dup2\n              mstore\n              pop\n              swap1\n              pop\n                /* \"study/chapter04/newContract.sol\":256:356  function getContractName()external pure returns(string memory){... */\n              swap1\n              jump\t// out\n                /* \"#utility.yul\":7:84   */\n            tag_25:\n                /* \"#utility.yul\":44:51   */\n              0x00\n                /* \"#utility.yul\":73:78   */\n              dup2\n                /* \"#utility.yul\":62:78   */\n              swap1\n              pop\n                /* \"#utility.yul\":7:84   */\n              swap2\n              swap1\n              pop\n              jump\t// out\n                /* \"#utility.yul\":90:208   */\n            tag_26:\n                /* \"#utility.yul\":177:201   */\n              tag_40\n                /* \"#utility.yul\":195:200   */\n              dup2\n                /* \"#utility.yul\":177:201   */\n              tag_25\n              jump\t// in\n            tag_40:\n                /* \"#utility.yul\":172:175   */\n              dup3\n                /* \"#utility.yul\":165:202   */\n              mstore\n                /* \"#utility.yul\":90:208   */\n              pop\n              pop\n              jump\t// out\n                /* \"#utility.yul\":214:436   */\n            tag_10:\n                /* \"#utility.yul\":307:311   */\n              0x00\n                /* \"#utility.yul\":345:347   */\n              0x20\n                /* \"#utility.yul\":334:343   */\n              dup3\n                /* \"#utility.yul\":330:348   */\n              add\n                /* \"#utility.yul\":322:348   */\n              swap1\n              pop\n                /* \"#utility.yul\":358:429   */\n              tag_42\n                /* \"#utility.yul\":426:427   */\n              0x00\n                /* \"#utility.yul\":415:424   */\n              dup4\n                /* \"#utility.yul\":411:428   */\n              add\n                /* \"#utility.yul\":402:408   */\n              dup5\n                /* \"#utility.yul\":358:429   */\n              tag_26\n              jump\t// in\n            tag_42:\n                /* \"#utility.yul\":214:436   */\n              swap3\n              swap2\n              pop\n              pop\n              jump\t// out\n                /* \"#utility.yul\":523:640   */\n            tag_28:\n                /* \"#utility.yul\":632:633   */\n              0x00\n                /* \"#utility.yul\":629:630   */\n              dup1\n                /* \"#utility.yul\":622:634   */\n              revert\n                /* \"#utility.yul\":769:891   */\n            tag_30:\n                /* \"#utility.yul\":842:866   */\n              tag_47\n                /* \"#utility.yul\":860:865   */\n              dup2\n                /* \"#utility.yul\":842:866   */\n              tag_25\n              jump\t// in\n            tag_47:\n                /* \"#utility.yul\":835:840   */\n              dup2\n                /* \"#utility.yul\":832:867   */\n              eq\n                /* \"#utility.yul\":822:885   */\n              tag_48\n              jumpi\n                /* \"#utility.yul\":881:882   */\n              0x00\n                /* \"#utility.yul\":878:879   */\n              dup1\n                /* \"#utility.yul\":871:883   */\n              revert\n                /* \"#utility.yul\":822:885   */\n            tag_48:\n                /* \"#utility.yul\":769:891   */\n              pop\n              jump\t// out\n                /* \"#utility.yul\":897:1036   */\n            tag_31:\n                /* \"#utility.yul\":943:948   */\n              0x00\n                /* \"#utility.yul\":981:987   */\n              dup2\n                /* \"#utility.yul\":968:988   */\n              calldataload\n                /* \"#utility.yul\":959:988   */\n              swap1\n              pop\n                /* \"#utility.yul\":997:1030   */\n              tag_50\n                /* \"#utility.yul\":1024:1029   */\n              dup2\n                /* \"#utility.yul\":997:1030   */\n              tag_30\n              jump\t// in\n            tag_50:\n                /* \"#utility.yul\":897:1036   */\n              swap3\n              swap2\n              pop\n              pop\n              jump\t// out\n                /* \"#utility.yul\":1042:1371   */\n            tag_16:\n                /* \"#utility.yul\":1101:1107   */\n              0x00\n                /* \"#utility.yul\":1150:1152   */\n              0x20\n                /* \"#utility.yul\":1138:1147   */\n              dup3\n                /* \"#utility.yul\":1129:1136   */\n              dup5\n                /* \"#utility.yul\":1125:1148   */\n              sub\n                /* \"#utility.yul\":1121:1153   */\n              slt\n                /* \"#utility.yul\":1118:1237   */\n              iszero\n              tag_52\n              jumpi\n                /* \"#utility.yul\":1156:1235   */\n              tag_53\n              tag_28\n              jump\t// in\n            tag_53:\n                /* \"#utility.yul\":1118:1237   */\n            tag_52:\n                /* \"#utility.yul\":1276:1277   */\n              0x00\n                /* \"#utility.yul\":1301:1354   */\n              tag_54\n                /* \"#utility.yul\":1346:1353   */\n              dup5\n                /* \"#utility.yul\":1337:1343   */\n              dup3\n                /* \"#utility.yul\":1326:1335   */\n              dup6\n                /* \"#utility.yul\":1322:1344   */\n              add\n                /* \"#utility.yul\":1301:1354   */\n              tag_31\n              jump\t// in\n            tag_54:\n                /* \"#utility.yul\":1291:1354   */\n              swap2\n              pop\n                /* \"#utility.yul\":1247:1364   */\n              pop\n                /* \"#utility.yul\":1042:1371   */\n              swap3\n              swap2\n              pop\n              pop\n              jump\t// out\n                /* \"#utility.yul\":1377:1476   */\n            tag_32:\n                /* \"#utility.yul\":1429:1435   */\n              0x00\n                /* \"#utility.yul\":1463:1468   */\n              dup2\n                /* \"#utility.yul\":1457:1469   */\n              mload\n                /* \"#utility.yul\":1447:1469   */\n              swap1\n              pop\n                /* \"#utility.yul\":1377:1476   */\n              swap2\n              swap1\n              pop\n              jump\t// out\n                /* \"#utility.yul\":1482:1651   */\n            tag_33:\n                /* \"#utility.yul\":1566:1577   */\n              0x00\n                /* \"#utility.yul\":1600:1606   */\n              dup3\n                /* \"#utility.yul\":1595:1598   */\n              dup3\n                /* \"#utility.yul\":1588:1607   */\n              mstore\n                /* \"#utility.yul\":1640:1644   */\n              0x20\n                /* \"#utility.yul\":1635:1638   */\n              dup3\n                /* \"#utility.yul\":1631:1645   */\n              add\n                /* \"#utility.yul\":1616:1645   */\n              swap1\n              pop\n                /* \"#utility.yul\":1482:1651   */\n              swap3\n              swap2\n              pop\n              pop\n              jump\t// out\n                /* \"#utility.yul\":1657:1964   */\n            tag_34:\n                /* \"#utility.yul\":1725:1726   */\n              0x00\n                /* \"#utility.yul\":1735:1848   */\n            tag_58:\n                /* \"#utility.yul\":1749:1755   */\n              dup4\n                /* \"#utility.yul\":1746:1747   */\n              dup2\n                /* \"#utility.yul\":1743:1756   */\n              lt\n                /* \"#utility.yul\":1735:1848   */\n              iszero\n              tag_60\n              jumpi\n                /* \"#utility.yul\":1834:1835   */\n              dup1\n                /* \"#utility.yul\":1829:1832   */\n              dup3\n                /* \"#utility.yul\":1825:1836   */\n              add\n                /* \"#utility.yul\":1819:1837   */\n              mload\n                /* \"#utility.yul\":1815:1816   */\n              dup2\n                /* \"#utility.yul\":1810:1813   */\n              dup5\n                /* \"#utility.yul\":1806:1817   */\n              add\n                /* \"#utility.yul\":1799:1838   */\n              mstore\n                /* \"#utility.yul\":1771:1773   */\n              0x20\n                /* \"#utility.yul\":1768:1769   */\n              dup2\n                /* \"#utility.yul\":1764:1774   */\n              add\n                /* \"#utility.yul\":1759:1774   */\n              swap1\n              pop\n                /* \"#utility.yul\":1735:1848   */\n              jump(tag_58)\n            tag_60:\n                /* \"#utility.yul\":1866:1872   */\n              dup4\n                /* \"#utility.yul\":1863:1864   */\n              dup2\n                /* \"#utility.yul\":1860:1873   */\n              gt\n                /* \"#utility.yul\":1857:1958   */\n              iszero\n              tag_61\n              jumpi\n                /* \"#utility.yul\":1946:1947   */\n              0x00\n                /* \"#utility.yul\":1937:1943   */\n              dup5\n                /* \"#utility.yul\":1932:1935   */\n              dup5\n                /* \"#utility.yul\":1928:1944   */\n              add\n                /* \"#utility.yul\":1921:1948   */\n              mstore\n                /* \"#utility.yul\":1857:1958   */\n            tag_61:\n                /* \"#utility.yul\":1706:1964   */\n              pop\n                /* \"#utility.yul\":1657:1964   */\n              pop\n              pop\n              pop\n              jump\t// out\n                /* \"#utility.yul\":1970:2072   */\n            tag_35:\n                /* \"#utility.yul\":2011:2017   */\n              0x00\n                /* \"#utility.yul\":2062:2064   */\n              0x1f\n                /* \"#utility.yul\":2058:2065   */\n              not\n                /* \"#utility.yul\":2053:2055   */\n              0x1f\n                /* \"#utility.yul\":2046:2051   */\n              dup4\n                /* \"#utility.yul\":2042:2056   */\n              add\n                /* \"#utility.yul\":2038:2066   */\n              and\n                /* \"#utility.yul\":2028:2066   */\n              swap1\n              pop\n                /* \"#utility.yul\":1970:2072   */\n              swap2\n              swap1\n              pop\n              jump\t// out\n                /* \"#utility.yul\":2078:2442   */\n            tag_36:\n                /* \"#utility.yul\":2166:2169   */\n              0x00\n                /* \"#utility.yul\":2194:2233   */\n              tag_64\n                /* \"#utility.yul\":2227:2232   */\n              dup3\n                /* \"#utility.yul\":2194:2233   */\n              tag_32\n              jump\t// in\n            tag_64:\n                /* \"#utility.yul\":2249:2320   */\n              tag_65\n                /* \"#utility.yul\":2313:2319   */\n              dup2\n                /* \"#utility.yul\":2308:2311   */\n              dup6\n                /* \"#utility.yul\":2249:2320   */\n              tag_33\n              jump\t// in\n            tag_65:\n                /* \"#utility.yul\":2242:2320   */\n              swap4\n              pop\n                /* \"#utility.yul\":2329:2381   */\n              tag_66\n                /* \"#utility.yul\":2374:2380   */\n              dup2\n                /* \"#utility.yul\":2369:2372   */\n              dup6\n                /* \"#utility.yul\":2362:2366   */\n              0x20\n                /* \"#utility.yul\":2355:2360   */\n              dup7\n                /* \"#utility.yul\":2351:2367   */\n              add\n                /* \"#utility.yul\":2329:2381   */\n              tag_34\n              jump\t// in\n            tag_66:\n                /* \"#utility.yul\":2406:2435   */\n              tag_67\n                /* \"#utility.yul\":2428:2434   */\n              dup2\n                /* \"#utility.yul\":2406:2435   */\n              tag_35\n              jump\t// in\n            tag_67:\n                /* \"#utility.yul\":2401:2404   */\n              dup5\n                /* \"#utility.yul\":2397:2436   */\n              add\n                /* \"#utility.yul\":2390:2436   */\n              swap2\n              pop\n                /* \"#utility.yul\":2170:2442   */\n              pop\n                /* \"#utility.yul\":2078:2442   */\n              swap3\n              swap2\n              pop\n              pop\n              jump\t// out\n                /* \"#utility.yul\":2448:2761   */\n            tag_21:\n                /* \"#utility.yul\":2561:2565   */\n              0x00\n                /* \"#utility.yul\":2599:2601   */\n              0x20\n                /* \"#utility.yul\":2588:2597   */\n              dup3\n                /* \"#utility.yul\":2584:2602   */\n              add\n                /* \"#utility.yul\":2576:2602   */\n              swap1\n              pop\n                /* \"#utility.yul\":2648:2657   */\n              dup2\n                /* \"#utility.yul\":2642:2646   */\n              dup2\n                /* \"#utility.yul\":2638:2658   */\n              sub\n                /* \"#utility.yul\":2634:2635   */\n              0x00\n                /* \"#utility.yul\":2623:2632   */\n              dup4\n                /* \"#utility.yul\":2619:2636   */\n              add\n                /* \"#utility.yul\":2612:2659   */\n              mstore\n                /* \"#utility.yul\":2676:2754   */\n              tag_69\n                /* \"#utility.yul\":2749:2753   */\n              dup2\n                /* \"#utility.yul\":2740:2746   */\n              dup5\n                /* \"#utility.yul\":2676:2754   */\n              tag_36\n              jump\t// in\n            tag_69:\n                /* \"#utility.yul\":2668:2754   */\n              swap1\n              pop\n                /* \"#utility.yul\":2448:2761   */\n              swap3\n              swap2\n              pop\n              pop\n              jump\t// out\n\n            auxdata: 0xa264697066735822122099b98b286d696b5d3b35be53af00f0f28283099bf8d9eb296965411a1b35245664736f6c634300080f0033\n        }\n    }\n\n    auxdata: 0xa26469706673582212204a89822165643774dbdb19dee6ec383bcd27f54c38b3a50cc97ca99db1bde17464736f6c634300080f0033\n}\n",
				"bytecode": {
					"linkReferences": {},
					"object": "608060405234801561001057600080fd5b506110b7806100206000396000f3fe6080604052600436106100865760003560e01c806393d4e9a21161005957806393d4e9a214610123578063d01bb4d51461013f578063d118d1871461016a578063d46300fd14610195578063ee919d50146101c057610086565b806312065fe01461008b578063502d8a27146100b657806375d0c0dc146100cd5780637c000138146100f8575b600080fd5b34801561009757600080fd5b506100a06101e9565b6040516100ad9190610660565b60405180910390f35b3480156100c257600080fd5b506100cb6101f1565b005b3480156100d957600080fd5b506100e261026b565b6040516100ef9190610714565b60405180910390f35b34801561010457600080fd5b5061010d6102f9565b60405161011a919061078b565b60405180910390f35b61013d600480360381019061013891906107de565b610387565b005b34801561014b57600080fd5b50610154610461565b604051610161919061084c565b60405180910390f35b34801561017657600080fd5b5061017f610487565b60405161018c9190610714565b60405180910390f35b3480156101a157600080fd5b506101aa610515565b6040516101b79190610660565b60405180910390f35b3480156101cc57600080fd5b506101e760048036038101906101e291906107de565b6105ac565b005b600047905090565b60405180604001604052600c8152806020017f74657374436f6e74726163740000000000000000000000000000000000000000815250600390816102359190610aa2565b50604051806020016102469061063a565b6020820181038252601f19601f82011660405250600490816102689190610bcf565b50565b60028054610278906108c5565b80601f01602080910402602001604051908101604052809291908181526020018280546102a4906108c5565b80156102f15780601f106102c6576101008083540402835291602001916102f1565b820191906000526020600020905b8154815290600101906020018083116102d457829003601f168201915b505050505081565b60048054610306906108c5565b80601f0160208091040260200160405190810160405280929190818152602001828054610332906108c5565b801561037f5780601f106103545761010080835404028352916020019161037f565b820191906000526020600020905b81548152906001019060200180831161036257829003601f168201915b505050505081565b8060056040516103969061063a565b6103a09190610cdc565b6040518091039082f09050801580156103bd573d6000803e3d6000fd5b506000806101000a81548173ffffffffffffffffffffffffffffffffffffffff021916908373ffffffffffffffffffffffffffffffffffffffff16021790555060008054906101000a900473ffffffffffffffffffffffffffffffffffffffff16600160006101000a81548173ffffffffffffffffffffffffffffffffffffffff021916908373ffffffffffffffffffffffffffffffffffffffff16021790555050565b600160009054906101000a900473ffffffffffffffffffffffffffffffffffffffff1681565b60038054610494906108c5565b80601f01602080910402602001604051908101604052809291908181526020018280546104c0906108c5565b801561050d5780601f106104e25761010080835404028352916020019161050d565b820191906000526020600020905b8154815290600101906020018083116104f057829003601f168201915b505050505081565b60008060009054906101000a900473ffffffffffffffffffffffffffffffffffffffff1673ffffffffffffffffffffffffffffffffffffffff16630dbe671f6040518163ffffffff1660e01b8152600401602060405180830381865afa158015610583573d6000803e3d6000fd5b505050506040513d601f19601f820116820180604052508101906105a79190610d0c565b905090565b60008054906101000a900473ffffffffffffffffffffffffffffffffffffffff1673ffffffffffffffffffffffffffffffffffffffff1663ee919d50826040518263ffffffff1660e01b81526004016106059190610660565b600060405180830381600087803b15801561061f57600080fd5b505af1158015610633573d6000803e3d6000fd5b5050505050565b61034880610d3a83390190565b6000819050919050565b61065a81610647565b82525050565b60006020820190506106756000830184610651565b92915050565b600081519050919050565b600082825260208201905092915050565b60005b838110156106b557808201518184015260208101905061069a565b838111156106c4576000848401525b50505050565b6000601f19601f8301169050919050565b60006106e68261067b565b6106f08185610686565b9350610700818560208601610697565b610709816106ca565b840191505092915050565b6000602082019050818103600083015261072e81846106db565b905092915050565b600081519050919050565b600082825260208201905092915050565b600061075d82610736565b6107678185610741565b9350610777818560208601610697565b610780816106ca565b840191505092915050565b600060208201905081810360008301526107a58184610752565b905092915050565b600080fd5b6107bb81610647565b81146107c657600080fd5b50565b6000813590506107d8816107b2565b92915050565b6000602082840312156107f4576107f36107ad565b5b6000610802848285016107c9565b91505092915050565b600073ffffffffffffffffffffffffffffffffffffffff82169050919050565b60006108368261080b565b9050919050565b6108468161082b565b82525050565b6000602082019050610861600083018461083d565b92915050565b7f4e487b7100000000000000000000000000000000000000000000000000000000600052604160045260246000fd5b7f4e487b7100000000000000000000000000000000000000000000000000000000600052602260045260246000fd5b600060028204905060018216806108dd57607f821691505b6020821081036108f0576108ef610896565b5b50919050565b60008190508160005260206000209050919050565b60006020601f8301049050919050565b600082821b905092915050565b6000600883026109587fffffffffffffffffffffffffffffffffffffffffffffffffffffffffffffffff8261091b565b610962868361091b565b95508019841693508086168417925050509392505050565b6000819050919050565b600061099f61099a61099584610647565b61097a565b610647565b9050919050565b6000819050919050565b6109b983610984565b6109cd6109c5826109a6565b848454610928565b825550505050565b600090565b6109e26109d5565b6109ed8184846109b0565b505050565b5b81811015610a1157610a066000826109da565b6001810190506109f3565b5050565b601f821115610a5657610a27816108f6565b610a308461090b565b81016020851015610a3f578190505b610a53610a4b8561090b565b8301826109f2565b50505b505050565b600082821c905092915050565b6000610a7960001984600802610a5b565b1980831691505092915050565b6000610a928383610a68565b9150826002028217905092915050565b610aab8261067b565b67ffffffffffffffff811115610ac457610ac3610867565b5b610ace82546108c5565b610ad9828285610a15565b600060209050601f831160018114610b0c5760008415610afa578287015190505b610b048582610a86565b865550610b6c565b601f198416610b1a866108f6565b60005b82811015610b4257848901518255600182019150602085019450602081019050610b1d565b86831015610b5f5784890151610b5b601f891682610a68565b8355505b6001600288020188555050505b505050505050565b60008190508160005260206000209050919050565b601f821115610bca57610b9b81610b74565b610ba48461090b565b81016020851015610bb3578190505b610bc7610bbf8561090b565b8301826109f2565b50505b505050565b610bd882610736565b67ffffffffffffffff811115610bf157610bf0610867565b5b610bfb82546108c5565b610c06828285610b89565b600060209050601f831160018114610c395760008415610c27578287015190505b610c318582610a86565b865550610c99565b601f198416610c4786610b74565b60005b82811015610c6f57848901518255600182019150602085019450602081019050610c4a565b86831015610c8c5784890151610c88601f891682610a68565b8355505b6001600288020188555050505b505050505050565b6000819050919050565b6000610cc6610cc1610cbc84610ca1565b61097a565b610647565b9050919050565b610cd681610cab565b82525050565b6000602082019050610cf16000830184610ccd565b92915050565b600081519050610d06816107b2565b92915050565b600060208284031215610d2257610d216107ad565b5b6000610d3084828501610cf7565b9150509291505056fe60806040526040516103483803806103488339818101604052810190610025919061006d565b806000819055505061009a565b600080fd5b6000819050919050565b61004a81610037565b811461005557600080fd5b50565b60008151905061006781610041565b92915050565b60006020828403121561008357610082610032565b5b600061009184828501610058565b91505092915050565b61029f806100a96000396000f3fe608060405234801561001057600080fd5b506004361061004c5760003560e01c80630dbe671f1461005157806312065fe01461006f578063ee919d501461008d578063f5f5ba72146100a9575b600080fd5b6100596100c7565b6040516100669190610135565b60405180910390f35b6100776100cd565b6040516100849190610135565b60405180910390f35b6100a760048036038101906100a29190610181565b6100d5565b005b6100b16100df565b6040516100be9190610247565b60405180910390f35b60005481565b600047905090565b8060008190555050565b60606040518060400160405280600c81526020017f74657374436f6e74726163740000000000000000000000000000000000000000815250905090565b6000819050919050565b61012f8161011c565b82525050565b600060208201905061014a6000830184610126565b92915050565b600080fd5b61015e8161011c565b811461016957600080fd5b50565b60008135905061017b81610155565b92915050565b60006020828403121561019757610196610150565b5b60006101a58482850161016c565b91505092915050565b600081519050919050565b600082825260208201905092915050565b60005b838110156101e85780820151818401526020810190506101cd565b838111156101f7576000848401525b50505050565b6000601f19601f8301169050919050565b6000610219826101ae565b61022381856101b9565b93506102338185602086016101ca565b61023c816101fd565b840191505092915050565b60006020820190508181036000830152610261818461020e565b90509291505056fea264697066735822122099b98b286d696b5d3b35be53af00f0f28283099bf8d9eb296965411a1b35245664736f6c634300080f0033a26469706673582212204a89822165643774dbdb19dee6ec383bcd27f54c38b3a50cc97ca99db1bde17464736f6c634300080f0033",
					"opcodes": "PUSH1 0x80 PUSH1 0x40 MSTORE CALLVALUE DUP1 ISZERO PUSH2 0x10 JUMPI PUSH1 0x0 DUP1 REVERT JUMPDEST POP PUSH2 0x10B7 DUP1 PUSH2 0x20 PUSH1 0x0 CODECOPY PUSH1 0x0 RETURN INVALID PUSH1 0x80 PUSH1 0x40 MSTORE PUSH1 0x4 CALLDATASIZE LT PUSH2 0x86 JUMPI PUSH1 0x0 CALLDATALOAD PUSH1 0xE0 SHR DUP1 PUSH4 0x93D4E9A2 GT PUSH2 0x59 JUMPI DUP1 PUSH4 0x93D4E9A2 EQ PUSH2 0x123 JUMPI DUP1 PUSH4 0xD01BB4D5 EQ PUSH2 0x13F JUMPI DUP1 PUSH4 0xD118D187 EQ PUSH2 0x16A JUMPI DUP1 PUSH4 0xD46300FD EQ PUSH2 0x195 JUMPI DUP1 PUSH4 0xEE919D50 EQ PUSH2 0x1C0 JUMPI PUSH2 0x86 JUMP JUMPDEST DUP1 PUSH4 0x12065FE0 EQ PUSH2 0x8B JUMPI DUP1 PUSH4 0x502D8A27 EQ PUSH2 0xB6 JUMPI DUP1 PUSH4 0x75D0C0DC EQ PUSH2 0xCD JUMPI DUP1 PUSH4 0x7C000138 EQ PUSH2 0xF8 JUMPI JUMPDEST PUSH1 0x0 DUP1 REVERT JUMPDEST CALLVALUE DUP1 ISZERO PUSH2 0x97 JUMPI PUSH1 0x0 DUP1 REVERT JUMPDEST POP PUSH2 0xA0 PUSH2 0x1E9 JUMP JUMPDEST PUSH1 0x40 MLOAD PUSH2 0xAD SWAP2 SWAP1 PUSH2 0x660 JUMP JUMPDEST PUSH1 0x40 MLOAD DUP1 SWAP2 SUB SWAP1 RETURN JUMPDEST CALLVALUE DUP1 ISZERO PUSH2 0xC2 JUMPI PUSH1 0x0 DUP1 REVERT JUMPDEST POP PUSH2 0xCB PUSH2 0x1F1 JUMP JUMPDEST STOP JUMPDEST CALLVALUE DUP1 ISZERO PUSH2 0xD9 JUMPI PUSH1 0x0 DUP1 REVERT JUMPDEST POP PUSH2 0xE2 PUSH2 0x26B JUMP JUMPDEST PUSH1 0x40 MLOAD PUSH2 0xEF SWAP2 SWAP1 PUSH2 0x714 JUMP JUMPDEST PUSH1 0x40 MLOAD DUP1 SWAP2 SUB SWAP1 RETURN JUMPDEST CALLVALUE DUP1 ISZERO PUSH2 0x104 JUMPI PUSH1 0x0 DUP1 REVERT JUMPDEST POP PUSH2 0x10D PUSH2 0x2F9 JUMP JUMPDEST PUSH1 0x40 MLOAD PUSH2 0x11A SWAP2 SWAP1 PUSH2 0x78B JUMP JUMPDEST PUSH1 0x40 MLOAD DUP1 SWAP2 SUB SWAP1 RETURN JUMPDEST PUSH2 0x13D PUSH1 0x4 DUP1 CALLDATASIZE SUB DUP2 ADD SWAP1 PUSH2 0x138 SWAP2 SWAP1 PUSH2 0x7DE JUMP JUMPDEST PUSH2 0x387 JUMP JUMPDEST STOP JUMPDEST CALLVALUE DUP1 ISZERO PUSH2 0x14B JUMPI PUSH1 0x0 DUP1 REVERT JUMPDEST POP PUSH2 0x154 PUSH2 0x461 JUMP JUMPDEST PUSH1 0x40 MLOAD PUSH2 0x161 SWAP2 SWAP1 PUSH2 0x84C JUMP JUMPDEST PUSH1 0x40 MLOAD DUP1 SWAP2 SUB SWAP1 RETURN JUMPDEST CALLVALUE DUP1 ISZERO PUSH2 0x176 JUMPI PUSH1 0x0 DUP1 REVERT JUMPDEST POP PUSH2 0x17F PUSH2 0x487 JUMP JUMPDEST PUSH1 0x40 MLOAD PUSH2 0x18C SWAP2 SWAP1 PUSH2 0x714 JUMP JUMPDEST PUSH1 0x40 MLOAD DUP1 SWAP2 SUB SWAP1 RETURN JUMPDEST CALLVALUE DUP1 ISZERO PUSH2 0x1A1 JUMPI PUSH1 0x0 DUP1 REVERT JUMPDEST POP PUSH2 0x1AA PUSH2 0x515 JUMP JUMPDEST PUSH1 0x40 MLOAD PUSH2 0x1B7 SWAP2 SWAP1 PUSH2 0x660 JUMP JUMPDEST PUSH1 0x40 MLOAD DUP1 SWAP2 SUB SWAP1 RETURN JUMPDEST CALLVALUE DUP1 ISZERO PUSH2 0x1CC JUMPI PUSH1 0x0 DUP1 REVERT JUMPDEST POP PUSH2 0x1E7 PUSH1 0x4 DUP1 CALLDATASIZE SUB DUP2 ADD SWAP1 PUSH2 0x1E2 SWAP2 SWAP1 PUSH2 0x7DE JUMP JUMPDEST PUSH2 0x5AC JUMP JUMPDEST STOP JUMPDEST PUSH1 0x0 SELFBALANCE SWAP1 POP SWAP1 JUMP JUMPDEST PUSH1 0x40 MLOAD DUP1 PUSH1 0x40 ADD PUSH1 0x40 MSTORE PUSH1 0xC DUP2 MSTORE DUP1 PUSH1 0x20 ADD PUSH32 0x74657374436F6E74726163740000000000000000000000000000000000000000 DUP2 MSTORE POP PUSH1 0x3 SWAP1 DUP2 PUSH2 0x235 SWAP2 SWAP1 PUSH2 0xAA2 JUMP JUMPDEST POP PUSH1 0x40 MLOAD DUP1 PUSH1 0x20 ADD PUSH2 0x246 SWAP1 PUSH2 0x63A JUMP JUMPDEST PUSH1 0x20 DUP3 ADD DUP2 SUB DUP3 MSTORE PUSH1 0x1F NOT PUSH1 0x1F DUP3 ADD AND PUSH1 0x40 MSTORE POP PUSH1 0x4 SWAP1 DUP2 PUSH2 0x268 SWAP2 SWAP1 PUSH2 0xBCF JUMP JUMPDEST POP JUMP JUMPDEST PUSH1 0x2 DUP1 SLOAD PUSH2 0x278 SWAP1 PUSH2 0x8C5 JUMP JUMPDEST DUP1 PUSH1 0x1F ADD PUSH1 0x20 DUP1 SWAP2 DIV MUL PUSH1 0x20 ADD PUSH1 0x40 MLOAD SWAP1 DUP2 ADD PUSH1 0x40 MSTORE DUP1 SWAP3 SWAP2 SWAP1 DUP2 DUP2 MSTORE PUSH1 0x20 ADD DUP3 DUP1 SLOAD PUSH2 0x2A4 SWAP1 PUSH2 0x8C5 JUMP JUMPDEST DUP1 ISZERO PUSH2 0x2F1 JUMPI DUP1 PUSH1 0x1F LT PUSH2 0x2C6 JUMPI PUSH2 0x100 DUP1 DUP4 SLOAD DIV MUL DUP4 MSTORE SWAP2 PUSH1 0x20 ADD SWAP2 PUSH2 0x2F1 JUMP JUMPDEST DUP3 ADD SWAP2 SWAP1 PUSH1 0x0 MSTORE PUSH1 0x20 PUSH1 0x0 KECCAK256 SWAP1 JUMPDEST DUP2 SLOAD DUP2 MSTORE SWAP1 PUSH1 0x1 ADD SWAP1 PUSH1 0x20 ADD DUP1 DUP4 GT PUSH2 0x2D4 JUMPI DUP3 SWAP1 SUB PUSH1 0x1F AND DUP3 ADD SWAP2 JUMPDEST POP POP POP POP POP DUP2 JUMP JUMPDEST PUSH1 0x4 DUP1 SLOAD PUSH2 0x306 SWAP1 PUSH2 0x8C5 JUMP JUMPDEST DUP1 PUSH1 0x1F ADD PUSH1 0x20 DUP1 SWAP2 DIV MUL PUSH1 0x20 ADD PUSH1 0x40 MLOAD SWAP1 DUP2 ADD PUSH1 0x40 MSTORE DUP1 SWAP3 SWAP2 SWAP1 DUP2 DUP2 MSTORE PUSH1 0x20 ADD DUP3 DUP1 SLOAD PUSH2 0x332 SWAP1 PUSH2 0x8C5 JUMP JUMPDEST DUP1 ISZERO PUSH2 0x37F JUMPI DUP1 PUSH1 0x1F LT PUSH2 0x354 JUMPI PUSH2 0x100 DUP1 DUP4 SLOAD DIV MUL DUP4 MSTORE SWAP2 PUSH1 0x20 ADD SWAP2 PUSH2 0x37F JUMP JUMPDEST DUP3 ADD SWAP2 SWAP1 PUSH1 0x0 MSTORE PUSH1 0x20 PUSH1 0x0 KECCAK256 SWAP1 JUMPDEST DUP2 SLOAD DUP2 MSTORE SWAP1 PUSH1 0x1 ADD SWAP1 PUSH1 0x20 ADD DUP1 DUP4 GT PUSH2 0x362 JUMPI DUP3 SWAP1 SUB PUSH1 0x1F AND DUP3 ADD SWAP2 JUMPDEST POP POP POP POP POP DUP2 JUMP JUMPDEST DUP1 PUSH1 0x5 PUSH1 0x40 MLOAD PUSH2 0x396 SWAP1 PUSH2 0x63A JUMP JUMPDEST PUSH2 0x3A0 SWAP2 SWAP1 PUSH2 0xCDC JUMP JUMPDEST PUSH1 0x40 MLOAD DUP1 SWAP2 SUB SWAP1 DUP3 CREATE SWAP1 POP DUP1 ISZERO DUP1 ISZERO PUSH2 0x3BD JUMPI RETURNDATASIZE PUSH1 0x0 DUP1 RETURNDATACOPY RETURNDATASIZE PUSH1 0x0 REVERT JUMPDEST POP PUSH1 0x0 DUP1 PUSH2 0x100 EXP DUP2 SLOAD DUP2 PUSH20 0xFFFFFFFFFFFFFFFFFFFFFFFFFFFFFFFFFFFFFFFF MUL NOT AND SWAP1 DUP4 PUSH20 0xFFFFFFFFFFFFFFFFFFFFFFFFFFFFFFFFFFFFFFFF AND MUL OR SWAP1 SSTORE POP PUSH1 0x0 DUP1 SLOAD SWAP1 PUSH2 0x100 EXP SWAP1 DIV PUSH20 0xFFFFFFFFFFFFFFFFFFFFFFFFFFFFFFFFFFFFFFFF AND PUSH1 0x1 PUSH1 0x0 PUSH2 0x100 EXP DUP2 SLOAD DUP2 PUSH20 0xFFFFFFFFFFFFFFFFFFFFFFFFFFFFFFFFFFFFFFFF MUL NOT AND SWAP1 DUP4 PUSH20 0xFFFFFFFFFFFFFFFFFFFFFFFFFFFFFFFFFFFFFFFF AND MUL OR SWAP1 SSTORE POP POP JUMP JUMPDEST PUSH1 0x1 PUSH1 0x0 SWAP1 SLOAD SWAP1 PUSH2 0x100 EXP SWAP1 DIV PUSH20 0xFFFFFFFFFFFFFFFFFFFFFFFFFFFFFFFFFFFFFFFF AND DUP2 JUMP JUMPDEST PUSH1 0x3 DUP1 SLOAD PUSH2 0x494 SWAP1 PUSH2 0x8C5 JUMP JUMPDEST DUP1 PUSH1 0x1F ADD PUSH1 0x20 DUP1 SWAP2 DIV MUL PUSH1 0x20 ADD PUSH1 0x40 MLOAD SWAP1 DUP2 ADD PUSH1 0x40 MSTORE DUP1 SWAP3 SWAP2 SWAP1 DUP2 DUP2 MSTORE PUSH1 0x20 ADD DUP3 DUP1 SLOAD PUSH2 0x4C0 SWAP1 PUSH2 0x8C5 JUMP JUMPDEST DUP1 ISZERO PUSH2 0x50D JUMPI DUP1 PUSH1 0x1F LT PUSH2 0x4E2 JUMPI PUSH2 0x100 DUP1 DUP4 SLOAD DIV MUL DUP4 MSTORE SWAP2 PUSH1 0x20 ADD SWAP2 PUSH2 0x50D JUMP JUMPDEST DUP3 ADD SWAP2 SWAP1 PUSH1 0x0 MSTORE PUSH1 0x20 PUSH1 0x0 KECCAK256 SWAP1 JUMPDEST DUP2 SLOAD DUP2 MSTORE SWAP1 PUSH1 0x1 ADD SWAP1 PUSH1 0x20 ADD DUP1 DUP4 GT PUSH2 0x4F0 JUMPI DUP3 SWAP1 SUB PUSH1 0x1F AND DUP3 ADD SWAP2 JUMPDEST POP POP POP POP POP DUP2 JUMP JUMPDEST PUSH1 0x0 DUP1 PUSH1 0x0 SWAP1 SLOAD SWAP1 PUSH2 0x100 EXP SWAP1 DIV PUSH20 0xFFFFFFFFFFFFFFFFFFFFFFFFFFFFFFFFFFFFFFFF AND PUSH20 0xFFFFFFFFFFFFFFFFFFFFFFFFFFFFFFFFFFFFFFFF AND PUSH4 0xDBE671F PUSH1 0x40 MLOAD DUP2 PUSH4 0xFFFFFFFF AND PUSH1 0xE0 SHL DUP2 MSTORE PUSH1 0x4 ADD PUSH1 0x20 PUSH1 0x40 MLOAD DUP1 DUP4 SUB DUP2 DUP7 GAS STATICCALL ISZERO DUP1 ISZERO PUSH2 0x583 JUMPI RETURNDATASIZE PUSH1 0x0 DUP1 RETURNDATACOPY RETURNDATASIZE PUSH1 0x0 REVERT JUMPDEST POP POP POP POP PUSH1 0x40 MLOAD RETURNDATASIZE PUSH1 0x1F NOT PUSH1 0x1F DUP3 ADD AND DUP3 ADD DUP1 PUSH1 0x40 MSTORE POP DUP2 ADD SWAP1 PUSH2 0x5A7 SWAP2 SWAP1 PUSH2 0xD0C JUMP JUMPDEST SWAP1 POP SWAP1 JUMP JUMPDEST PUSH1 0x0 DUP1 SLOAD SWAP1 PUSH2 0x100 EXP SWAP1 DIV PUSH20 0xFFFFFFFFFFFFFFFFFFFFFFFFFFFFFFFFFFFFFFFF AND PUSH20 0xFFFFFFFFFFFFFFFFFFFFFFFFFFFFFFFFFFFFFFFF AND PUSH4 0xEE919D50 DUP3 PUSH1 0x40 MLOAD DUP3 PUSH4 0xFFFFFFFF AND PUSH1 0xE0 SHL DUP2 MSTORE PUSH1 0x4 ADD PUSH2 0x605 SWAP2 SWAP1 PUSH2 0x660 JUMP JUMPDEST PUSH1 0x0 PUSH1 0x40 MLOAD DUP1 DUP4 SUB DUP2 PUSH1 0x0 DUP8 DUP1 EXTCODESIZE ISZERO DUP1 ISZERO PUSH2 0x61F JUMPI PUSH1 0x0 DUP1 REVERT JUMPDEST POP GAS CALL ISZERO DUP1 ISZERO PUSH2 0x633 JUMPI RETURNDATASIZE PUSH1 0x0 DUP1 RETURNDATACOPY RETURNDATASIZE PUSH1 0x0 REVERT JUMPDEST POP POP POP POP POP JUMP JUMPDEST PUSH2 0x348 DUP1 PUSH2 0xD3A DUP4 CODECOPY ADD SWAP1 JUMP JUMPDEST PUSH1 0x0 DUP2 SWAP1 POP SWAP2 SWAP1 POP JUMP JUMPDEST PUSH2 0x65A DUP2 PUSH2 0x647 JUMP JUMPDEST DUP3 MSTORE POP POP JUMP JUMPDEST PUSH1 0x0 PUSH1 0x20 DUP3 ADD SWAP1 POP PUSH2 0x675 PUSH1 0x0 DUP4 ADD DUP5 PUSH2 0x651 JUMP JUMPDEST SWAP3 SWAP2 POP POP JUMP JUMPDEST PUSH1 0x0 DUP2 MLOAD SWAP1 POP SWAP2 SWAP1 POP JUMP JUMPDEST PUSH1 0x0 DUP3 DUP3 MSTORE PUSH1 0x20 DUP3 ADD SWAP1 POP SWAP3 SWAP2 POP POP JUMP JUMPDEST PUSH1 0x0 JUMPDEST DUP4 DUP2 LT ISZERO PUSH2 0x6B5 JUMPI DUP1 DUP3 ADD MLOAD DUP2 DUP5 ADD MSTORE PUSH1 0x20 DUP2 ADD SWAP1 POP PUSH2 0x69A JUMP JUMPDEST DUP4 DUP2 GT ISZERO PUSH2 0x6C4 JUMPI PUSH1 0x0 DUP5 DUP5 ADD MSTORE JUMPDEST POP POP POP POP JUMP JUMPDEST PUSH1 0x0 PUSH1 0x1F NOT PUSH1 0x1F DUP4 ADD AND SWAP1 POP SWAP2 SWAP1 POP JUMP JUMPDEST PUSH1 0x0 PUSH2 0x6E6 DUP3 PUSH2 0x67B JUMP JUMPDEST PUSH2 0x6F0 DUP2 DUP6 PUSH2 0x686 JUMP JUMPDEST SWAP4 POP PUSH2 0x700 DUP2 DUP6 PUSH1 0x20 DUP7 ADD PUSH2 0x697 JUMP JUMPDEST PUSH2 0x709 DUP2 PUSH2 0x6CA JUMP JUMPDEST DUP5 ADD SWAP2 POP POP SWAP3 SWAP2 POP POP JUMP JUMPDEST PUSH1 0x0 PUSH1 0x20 DUP3 ADD SWAP1 POP DUP2 DUP2 SUB PUSH1 0x0 DUP4 ADD MSTORE PUSH2 0x72E DUP2 DUP5 PUSH2 0x6DB JUMP JUMPDEST SWAP1 POP SWAP3 SWAP2 POP POP JUMP JUMPDEST PUSH1 0x0 DUP2 MLOAD SWAP1 POP SWAP2 SWAP1 POP JUMP JUMPDEST PUSH1 0x0 DUP3 DUP3 MSTORE PUSH1 0x20 DUP3 ADD SWAP1 POP SWAP3 SWAP2 POP POP JUMP JUMPDEST PUSH1 0x0 PUSH2 0x75D DUP3 PUSH2 0x736 JUMP JUMPDEST PUSH2 0x767 DUP2 DUP6 PUSH2 0x741 JUMP JUMPDEST SWAP4 POP PUSH2 0x777 DUP2 DUP6 PUSH1 0x20 DUP7 ADD PUSH2 0x697 JUMP JUMPDEST PUSH2 0x780 DUP2 PUSH2 0x6CA JUMP JUMPDEST DUP5 ADD SWAP2 POP POP SWAP3 SWAP2 POP POP JUMP JUMPDEST PUSH1 0x0 PUSH1 0x20 DUP3 ADD SWAP1 POP DUP2 DUP2 SUB PUSH1 0x0 DUP4 ADD MSTORE PUSH2 0x7A5 DUP2 DUP5 PUSH2 0x752 JUMP JUMPDEST SWAP1 POP SWAP3 SWAP2 POP POP JUMP JUMPDEST PUSH1 0x0 DUP1 REVERT JUMPDEST PUSH2 0x7BB DUP2 PUSH2 0x647 JUMP JUMPDEST DUP2 EQ PUSH2 0x7C6 JUMPI PUSH1 0x0 DUP1 REVERT JUMPDEST POP JUMP JUMPDEST PUSH1 0x0 DUP2 CALLDATALOAD SWAP1 POP PUSH2 0x7D8 DUP2 PUSH2 0x7B2 JUMP JUMPDEST SWAP3 SWAP2 POP POP JUMP JUMPDEST PUSH1 0x0 PUSH1 0x20 DUP3 DUP5 SUB SLT ISZERO PUSH2 0x7F4 JUMPI PUSH2 0x7F3 PUSH2 0x7AD JUMP JUMPDEST JUMPDEST PUSH1 0x0 PUSH2 0x802 DUP5 DUP3 DUP6 ADD PUSH2 0x7C9 JUMP JUMPDEST SWAP2 POP POP SWAP3 SWAP2 POP POP JUMP JUMPDEST PUSH1 0x0 PUSH20 0xFFFFFFFFFFFFFFFFFFFFFFFFFFFFFFFFFFFFFFFF DUP3 AND SWAP1 POP SWAP2 SWAP1 POP JUMP JUMPDEST PUSH1 0x0 PUSH2 0x836 DUP3 PUSH2 0x80B JUMP JUMPDEST SWAP1 POP SWAP2 SWAP1 POP JUMP JUMPDEST PUSH2 0x846 DUP2 PUSH2 0x82B JUMP JUMPDEST DUP3 MSTORE POP POP JUMP JUMPDEST PUSH1 0x0 PUSH1 0x20 DUP3 ADD SWAP1 POP PUSH2 0x861 PUSH1 0x0 DUP4 ADD DUP5 PUSH2 0x83D JUMP JUMPDEST SWAP3 SWAP2 POP POP JUMP JUMPDEST PUSH32 0x4E487B7100000000000000000000000000000000000000000000000000000000 PUSH1 0x0 MSTORE PUSH1 0x41 PUSH1 0x4 MSTORE PUSH1 0x24 PUSH1 0x0 REVERT JUMPDEST PUSH32 0x4E487B7100000000000000000000000000000000000000000000000000000000 PUSH1 0x0 MSTORE PUSH1 0x22 PUSH1 0x4 MSTORE PUSH1 0x24 PUSH1 0x0 REVERT JUMPDEST PUSH1 0x0 PUSH1 0x2 DUP3 DIV SWAP1 POP PUSH1 0x1 DUP3 AND DUP1 PUSH2 0x8DD JUMPI PUSH1 0x7F DUP3 AND SWAP2 POP JUMPDEST PUSH1 0x20 DUP3 LT DUP2 SUB PUSH2 0x8F0 JUMPI PUSH2 0x8EF PUSH2 0x896 JUMP JUMPDEST JUMPDEST POP SWAP2 SWAP1 POP JUMP JUMPDEST PUSH1 0x0 DUP2 SWAP1 POP DUP2 PUSH1 0x0 MSTORE PUSH1 0x20 PUSH1 0x0 KECCAK256 SWAP1 POP SWAP2 SWAP1 POP JUMP JUMPDEST PUSH1 0x0 PUSH1 0x20 PUSH1 0x1F DUP4 ADD DIV SWAP1 POP SWAP2 SWAP1 POP JUMP JUMPDEST PUSH1 0x0 DUP3 DUP3 SHL SWAP1 POP SWAP3 SWAP2 POP POP JUMP JUMPDEST PUSH1 0x0 PUSH1 0x8 DUP4 MUL PUSH2 0x958 PUSH32 0xFFFFFFFFFFFFFFFFFFFFFFFFFFFFFFFFFFFFFFFFFFFFFFFFFFFFFFFFFFFFFFFF DUP3 PUSH2 0x91B JUMP JUMPDEST PUSH2 0x962 DUP7 DUP4 PUSH2 0x91B JUMP JUMPDEST SWAP6 POP DUP1 NOT DUP5 AND SWAP4 POP DUP1 DUP7 AND DUP5 OR SWAP3 POP POP POP SWAP4 SWAP3 POP POP POP JUMP JUMPDEST PUSH1 0x0 DUP2 SWAP1 POP SWAP2 SWAP1 POP JUMP JUMPDEST PUSH1 0x0 PUSH2 0x99F PUSH2 0x99A PUSH2 0x995 DUP5 PUSH2 0x647 JUMP JUMPDEST PUSH2 0x97A JUMP JUMPDEST PUSH2 0x647 JUMP JUMPDEST SWAP1 POP SWAP2 SWAP1 POP JUMP JUMPDEST PUSH1 0x0 DUP2 SWAP1 POP SWAP2 SWAP1 POP JUMP JUMPDEST PUSH2 0x9B9 DUP4 PUSH2 0x984 JUMP JUMPDEST PUSH2 0x9CD PUSH2 0x9C5 DUP3 PUSH2 0x9A6 JUMP JUMPDEST DUP5 DUP5 SLOAD PUSH2 0x928 JUMP JUMPDEST DUP3 SSTORE POP POP POP POP JUMP JUMPDEST PUSH1 0x0 SWAP1 JUMP JUMPDEST PUSH2 0x9E2 PUSH2 0x9D5 JUMP JUMPDEST PUSH2 0x9ED DUP2 DUP5 DUP5 PUSH2 0x9B0 JUMP JUMPDEST POP POP POP JUMP JUMPDEST JUMPDEST DUP2 DUP2 LT ISZERO PUSH2 0xA11 JUMPI PUSH2 0xA06 PUSH1 0x0 DUP3 PUSH2 0x9DA JUMP JUMPDEST PUSH1 0x1 DUP2 ADD SWAP1 POP PUSH2 0x9F3 JUMP JUMPDEST POP POP JUMP JUMPDEST PUSH1 0x1F DUP3 GT ISZERO PUSH2 0xA56 JUMPI PUSH2 0xA27 DUP2 PUSH2 0x8F6 JUMP JUMPDEST PUSH2 0xA30 DUP5 PUSH2 0x90B JUMP JUMPDEST DUP2 ADD PUSH1 0x20 DUP6 LT ISZERO PUSH2 0xA3F JUMPI DUP2 SWAP1 POP JUMPDEST PUSH2 0xA53 PUSH2 0xA4B DUP6 PUSH2 0x90B JUMP JUMPDEST DUP4 ADD DUP3 PUSH2 0x9F2 JUMP JUMPDEST POP POP JUMPDEST POP POP POP JUMP JUMPDEST PUSH1 0x0 DUP3 DUP3 SHR SWAP1 POP SWAP3 SWAP2 POP POP JUMP JUMPDEST PUSH1 0x0 PUSH2 0xA79 PUSH1 0x0 NOT DUP5 PUSH1 0x8 MUL PUSH2 0xA5B JUMP JUMPDEST NOT DUP1 DUP4 AND SWAP2 POP POP SWAP3 SWAP2 POP POP JUMP JUMPDEST PUSH1 0x0 PUSH2 0xA92 DUP4 DUP4 PUSH2 0xA68 JUMP JUMPDEST SWAP2 POP DUP3 PUSH1 0x2 MUL DUP3 OR SWAP1 POP SWAP3 SWAP2 POP POP JUMP JUMPDEST PUSH2 0xAAB DUP3 PUSH2 0x67B JUMP JUMPDEST PUSH8 0xFFFFFFFFFFFFFFFF DUP2 GT ISZERO PUSH2 0xAC4 JUMPI PUSH2 0xAC3 PUSH2 0x867 JUMP JUMPDEST JUMPDEST PUSH2 0xACE DUP3 SLOAD PUSH2 0x8C5 JUMP JUMPDEST PUSH2 0xAD9 DUP3 DUP3 DUP6 PUSH2 0xA15 JUMP JUMPDEST PUSH1 0x0 PUSH1 0x20 SWAP1 POP PUSH1 0x1F DUP4 GT PUSH1 0x1 DUP2 EQ PUSH2 0xB0C JUMPI PUSH1 0x0 DUP5 ISZERO PUSH2 0xAFA JUMPI DUP3 DUP8 ADD MLOAD SWAP1 POP JUMPDEST PUSH2 0xB04 DUP6 DUP3 PUSH2 0xA86 JUMP JUMPDEST DUP7 SSTORE POP PUSH2 0xB6C JUMP JUMPDEST PUSH1 0x1F NOT DUP5 AND PUSH2 0xB1A DUP7 PUSH2 0x8F6 JUMP JUMPDEST PUSH1 0x0 JUMPDEST DUP3 DUP2 LT ISZERO PUSH2 0xB42 JUMPI DUP5 DUP10 ADD MLOAD DUP3 SSTORE PUSH1 0x1 DUP3 ADD SWAP2 POP PUSH1 0x20 DUP6 ADD SWAP5 POP PUSH1 0x20 DUP2 ADD SWAP1 POP PUSH2 0xB1D JUMP JUMPDEST DUP7 DUP4 LT ISZERO PUSH2 0xB5F JUMPI DUP5 DUP10 ADD MLOAD PUSH2 0xB5B PUSH1 0x1F DUP10 AND DUP3 PUSH2 0xA68 JUMP JUMPDEST DUP4 SSTORE POP JUMPDEST PUSH1 0x1 PUSH1 0x2 DUP9 MUL ADD DUP9 SSTORE POP POP POP JUMPDEST POP POP POP POP POP POP JUMP JUMPDEST PUSH1 0x0 DUP2 SWAP1 POP DUP2 PUSH1 0x0 MSTORE PUSH1 0x20 PUSH1 0x0 KECCAK256 SWAP1 POP SWAP2 SWAP1 POP JUMP JUMPDEST PUSH1 0x1F DUP3 GT ISZERO PUSH2 0xBCA JUMPI PUSH2 0xB9B DUP2 PUSH2 0xB74 JUMP JUMPDEST PUSH2 0xBA4 DUP5 PUSH2 0x90B JUMP JUMPDEST DUP2 ADD PUSH1 0x20 DUP6 LT ISZERO PUSH2 0xBB3 JUMPI DUP2 SWAP1 POP JUMPDEST PUSH2 0xBC7 PUSH2 0xBBF DUP6 PUSH2 0x90B JUMP JUMPDEST DUP4 ADD DUP3 PUSH2 0x9F2 JUMP JUMPDEST POP POP JUMPDEST POP POP POP JUMP JUMPDEST PUSH2 0xBD8 DUP3 PUSH2 0x736 JUMP JUMPDEST PUSH8 0xFFFFFFFFFFFFFFFF DUP2 GT ISZERO PUSH2 0xBF1 JUMPI PUSH2 0xBF0 PUSH2 0x867 JUMP JUMPDEST JUMPDEST PUSH2 0xBFB DUP3 SLOAD PUSH2 0x8C5 JUMP JUMPDEST PUSH2 0xC06 DUP3 DUP3 DUP6 PUSH2 0xB89 JUMP JUMPDEST PUSH1 0x0 PUSH1 0x20 SWAP1 POP PUSH1 0x1F DUP4 GT PUSH1 0x1 DUP2 EQ PUSH2 0xC39 JUMPI PUSH1 0x0 DUP5 ISZERO PUSH2 0xC27 JUMPI DUP3 DUP8 ADD MLOAD SWAP1 POP JUMPDEST PUSH2 0xC31 DUP6 DUP3 PUSH2 0xA86 JUMP JUMPDEST DUP7 SSTORE POP PUSH2 0xC99 JUMP JUMPDEST PUSH1 0x1F NOT DUP5 AND PUSH2 0xC47 DUP7 PUSH2 0xB74 JUMP JUMPDEST PUSH1 0x0 JUMPDEST DUP3 DUP2 LT ISZERO PUSH2 0xC6F JUMPI DUP5 DUP10 ADD MLOAD DUP3 SSTORE PUSH1 0x1 DUP3 ADD SWAP2 POP PUSH1 0x20 DUP6 ADD SWAP5 POP PUSH1 0x20 DUP2 ADD SWAP1 POP PUSH2 0xC4A JUMP JUMPDEST DUP7 DUP4 LT ISZERO PUSH2 0xC8C JUMPI DUP5 DUP10 ADD MLOAD PUSH2 0xC88 PUSH1 0x1F DUP10 AND DUP3 PUSH2 0xA68 JUMP JUMPDEST DUP4 SSTORE POP JUMPDEST PUSH1 0x1 PUSH1 0x2 DUP9 MUL ADD DUP9 SSTORE POP POP POP JUMPDEST POP POP POP POP POP POP JUMP JUMPDEST PUSH1 0x0 DUP2 SWAP1 POP SWAP2 SWAP1 POP JUMP JUMPDEST PUSH1 0x0 PUSH2 0xCC6 PUSH2 0xCC1 PUSH2 0xCBC DUP5 PUSH2 0xCA1 JUMP JUMPDEST PUSH2 0x97A JUMP JUMPDEST PUSH2 0x647 JUMP JUMPDEST SWAP1 POP SWAP2 SWAP1 POP JUMP JUMPDEST PUSH2 0xCD6 DUP2 PUSH2 0xCAB JUMP JUMPDEST DUP3 MSTORE POP POP JUMP JUMPDEST PUSH1 0x0 PUSH1 0x20 DUP3 ADD SWAP1 POP PUSH2 0xCF1 PUSH1 0x0 DUP4 ADD DUP5 PUSH2 0xCCD JUMP JUMPDEST SWAP3 SWAP2 POP POP JUMP JUMPDEST PUSH1 0x0 DUP2 MLOAD SWAP1 POP PUSH2 0xD06 DUP2 PUSH2 0x7B2 JUMP JUMPDEST SWAP3 SWAP2 POP POP JUMP JUMPDEST PUSH1 0x0 PUSH1 0x20 DUP3 DUP5 SUB SLT ISZERO PUSH2 0xD22 JUMPI PUSH2 0xD21 PUSH2 0x7AD JUMP JUMPDEST JUMPDEST PUSH1 0x0 PUSH2 0xD30 DUP5 DUP3 DUP6 ADD PUSH2 0xCF7 JUMP JUMPDEST SWAP2 POP POP SWAP3 SWAP2 POP POP JUMP INVALID PUSH1 0x80 PUSH1 0x40 MSTORE PUSH1 0x40 MLOAD PUSH2 0x348 CODESIZE SUB DUP1 PUSH2 0x348 DUP4 CODECOPY DUP2 DUP2 ADD PUSH1 0x40 MSTORE DUP2 ADD SWAP1 PUSH2 0x25 SWAP2 SWAP1 PUSH2 0x6D JUMP JUMPDEST DUP1 PUSH1 0x0 DUP2 SWAP1 SSTORE POP POP PUSH2 0x9A JUMP JUMPDEST PUSH1 0x0 DUP1 REVERT JUMPDEST PUSH1 0x0 DUP2 SWAP1 POP SWAP2 SWAP1 POP JUMP JUMPDEST PUSH2 0x4A DUP2 PUSH2 0x37 JUMP JUMPDEST DUP2 EQ PUSH2 0x55 JUMPI PUSH1 0x0 DUP1 REVERT JUMPDEST POP JUMP JUMPDEST PUSH1 0x0 DUP2 MLOAD SWAP1 POP PUSH2 0x67 DUP2 PUSH2 0x41 JUMP JUMPDEST SWAP3 SWAP2 POP POP JUMP JUMPDEST PUSH1 0x0 PUSH1 0x20 DUP3 DUP5 SUB SLT ISZERO PUSH2 0x83 JUMPI PUSH2 0x82 PUSH2 0x32 JUMP JUMPDEST JUMPDEST PUSH1 0x0 PUSH2 0x91 DUP5 DUP3 DUP6 ADD PUSH2 0x58 JUMP JUMPDEST SWAP2 POP POP SWAP3 SWAP2 POP POP JUMP JUMPDEST PUSH2 0x29F DUP1 PUSH2 0xA9 PUSH1 0x0 CODECOPY PUSH1 0x0 RETURN INVALID PUSH1 0x80 PUSH1 0x40 MSTORE CALLVALUE DUP1 ISZERO PUSH2 0x10 JUMPI PUSH1 0x0 DUP1 REVERT JUMPDEST POP PUSH1 0x4 CALLDATASIZE LT PUSH2 0x4C JUMPI PUSH1 0x0 CALLDATALOAD PUSH1 0xE0 SHR DUP1 PUSH4 0xDBE671F EQ PUSH2 0x51 JUMPI DUP1 PUSH4 0x12065FE0 EQ PUSH2 0x6F JUMPI DUP1 PUSH4 0xEE919D50 EQ PUSH2 0x8D JUMPI DUP1 PUSH4 0xF5F5BA72 EQ PUSH2 0xA9 JUMPI JUMPDEST PUSH1 0x0 DUP1 REVERT JUMPDEST PUSH2 0x59 PUSH2 0xC7 JUMP JUMPDEST PUSH1 0x40 MLOAD PUSH2 0x66 SWAP2 SWAP1 PUSH2 0x135 JUMP JUMPDEST PUSH1 0x40 MLOAD DUP1 SWAP2 SUB SWAP1 RETURN JUMPDEST PUSH2 0x77 PUSH2 0xCD JUMP JUMPDEST PUSH1 0x40 MLOAD PUSH2 0x84 SWAP2 SWAP1 PUSH2 0x135 JUMP JUMPDEST PUSH1 0x40 MLOAD DUP1 SWAP2 SUB SWAP1 RETURN JUMPDEST PUSH2 0xA7 PUSH1 0x4 DUP1 CALLDATASIZE SUB DUP2 ADD SWAP1 PUSH2 0xA2 SWAP2 SWAP1 PUSH2 0x181 JUMP JUMPDEST PUSH2 0xD5 JUMP JUMPDEST STOP JUMPDEST PUSH2 0xB1 PUSH2 0xDF JUMP JUMPDEST PUSH1 0x40 MLOAD PUSH2 0xBE SWAP2 SWAP1 PUSH2 0x247 JUMP JUMPDEST PUSH1 0x40 MLOAD DUP1 SWAP2 SUB SWAP1 RETURN JUMPDEST PUSH1 0x0 SLOAD DUP2 JUMP JUMPDEST PUSH1 0x0 SELFBALANCE SWAP1 POP SWAP1 JUMP JUMPDEST DUP1 PUSH1 0x0 DUP2 SWAP1 SSTORE POP POP JUMP JUMPDEST PUSH1 0x60 PUSH1 0x40 MLOAD DUP1 PUSH1 0x40 ADD PUSH1 0x40 MSTORE DUP1 PUSH1 0xC DUP2 MSTORE PUSH1 0x20 ADD PUSH32 0x74657374436F6E74726163740000000000000000000000000000000000000000 DUP2 MSTORE POP SWAP1 POP SWAP1 JUMP JUMPDEST PUSH1 0x0 DUP2 SWAP1 POP SWAP2 SWAP1 POP JUMP JUMPDEST PUSH2 0x12F DUP2 PUSH2 0x11C JUMP JUMPDEST DUP3 MSTORE POP POP JUMP JUMPDEST PUSH1 0x0 PUSH1 0x20 DUP3 ADD SWAP1 POP PUSH2 0x14A PUSH1 0x0 DUP4 ADD DUP5 PUSH2 0x126 JUMP JUMPDEST SWAP3 SWAP2 POP POP JUMP JUMPDEST PUSH1 0x0 DUP1 REVERT JUMPDEST PUSH2 0x15E DUP2 PUSH2 0x11C JUMP JUMPDEST DUP2 EQ PUSH2 0x169 JUMPI PUSH1 0x0 DUP1 REVERT JUMPDEST POP JUMP JUMPDEST PUSH1 0x0 DUP2 CALLDATALOAD SWAP1 POP PUSH2 0x17B DUP2 PUSH2 0x155 JUMP JUMPDEST SWAP3 SWAP2 POP POP JUMP JUMPDEST PUSH1 0x0 PUSH1 0x20 DUP3 DUP5 SUB SLT ISZERO PUSH2 0x197 JUMPI PUSH2 0x196 PUSH2 0x150 JUMP JUMPDEST JUMPDEST PUSH1 0x0 PUSH2 0x1A5 DUP5 DUP3 DUP6 ADD PUSH2 0x16C JUMP JUMPDEST SWAP2 POP POP SWAP3 SWAP2 POP POP JUMP JUMPDEST PUSH1 0x0 DUP2 MLOAD SWAP1 POP SWAP2 SWAP1 POP JUMP JUMPDEST PUSH1 0x0 DUP3 DUP3 MSTORE PUSH1 0x20 DUP3 ADD SWAP1 POP SWAP3 SWAP2 POP POP JUMP JUMPDEST PUSH1 0x0 JUMPDEST DUP4 DUP2 LT ISZERO PUSH2 0x1E8 JUMPI DUP1 DUP3 ADD MLOAD DUP2 DUP5 ADD MSTORE PUSH1 0x20 DUP2 ADD SWAP1 POP PUSH2 0x1CD JUMP JUMPDEST DUP4 DUP2 GT ISZERO PUSH2 0x1F7 JUMPI PUSH1 0x0 DUP5 DUP5 ADD MSTORE JUMPDEST POP POP POP POP JUMP JUMPDEST PUSH1 0x0 PUSH1 0x1F NOT PUSH1 0x1F DUP4 ADD AND SWAP1 POP SWAP2 SWAP1 POP JUMP JUMPDEST PUSH1 0x0 PUSH2 0x219 DUP3 PUSH2 0x1AE JUMP JUMPDEST PUSH2 0x223 DUP2 DUP6 PUSH2 0x1B9 JUMP JUMPDEST SWAP4 POP PUSH2 0x233 DUP2 DUP6 PUSH1 0x20 DUP7 ADD PUSH2 0x1CA JUMP JUMPDEST PUSH2 0x23C DUP2 PUSH2 0x1FD JUMP JUMPDEST DUP5 ADD SWAP2 POP POP SWAP3 SWAP2 POP POP JUMP JUMPDEST PUSH1 0x0 PUSH1 0x20 DUP3 ADD SWAP1 POP DUP2 DUP2 SUB PUSH1 0x0 DUP4 ADD MSTORE PUSH2 0x261 DUP2 DUP5 PUSH2 0x20E JUMP JUMPDEST SWAP1 POP SWAP3 SWAP2 POP POP JUMP INVALID LOG2 PUSH5 0x6970667358 0x22 SLT KECCAK256 SWAP10 0xB9 DUP12 0x28 PUSH14 0x696B5D3B35BE53AF00F0F2828309 SWAP12 0xF8 0xD9 0xEB 0x29 PUSH10 0x65411A1B35245664736F PUSH13 0x634300080F0033A26469706673 PC 0x22 SLT KECCAK256 0x4A DUP10 DUP3 0x21 PUSH6 0x643774DBDB19 0xDE 0xE6 0xEC CODESIZE EXTCODESIZE 0xCD 0x27 CREATE2 0x4C CODESIZE 0xB3 0xA5 0xC 0xC9 PUSH29 0xA99DB1BDE17464736F6C634300080F0033000000000000000000000000 "
				},
				"gasEstimates": {
					"creation": {
						"codeDepositCost": "855800",
						"executionCost": "890",
						"totalCost": "856690"
					},
					"external": {
						"by()": "infinite",
						"contractName()": "infinite",
						"contractaddr()": "2536",
						"createContractObj(uint256)": "infinite",
						"getA()": "infinite",
						"getBalance()": "340",
						"setA(uint256)": "infinite",
						"setTypeAndCreatetionCodeAnd()": "infinite",
						"str1()": "infinite"
					}
				},
				"methodIdentifiers": {
					"by()": "7c000138",
					"contractName()": "75d0c0dc",
					"contractaddr()": "d01bb4d5",
					"createContractObj(uint256)": "93d4e9a2",
					"getA()": "d46300fd",
					"getBalance()": "12065fe0",
					"setA(uint256)": "ee919d50",
					"setTypeAndCreatetionCodeAnd()": "502d8a27",
					"str1()": "d118d187"
				}
			},
			"storageLayout": {
				"storage": [
					{
						"astId": 47,
						"contract": "study/chapter04/newContract.sol:callContract",
						"label": "t",
						"offset": 0,
						"slot": "0",
						"type": "t_contract(testContract)44"
					},
					{
						"astId": 49,
						"contract": "study/chapter04/newContract.sol:callContract",
						"label": "contractaddr",
						"offset": 0,
						"slot": "1",
						"type": "t_address"
					},
					{
						"astId": 51,
						"contract": "study/chapter04/newContract.sol:callContract",
						"label": "contractName",
						"offset": 0,
						"slot": "2",
						"type": "t_string_storage"
					},
					{
						"astId": 110,
						"contract": "study/chapter04/newContract.sol:callContract",
						"label": "str1",
						"offset": 0,
						"slot": "3",
						"type": "t_string_storage"
					},
					{
						"astId": 112,
						"contract": "study/chapter04/newContract.sol:callContract",
						"label": "by",
						"offset": 0,
						"slot": "4",
						"type": "t_bytes_storage"
					}
				],
				"types": {
					"t_address": {
						"encoding": "inplace",
						"label": "address",
						"numberOfBytes": "20"
					},
					"t_bytes_storage": {
						"encoding": "bytes",
						"label": "bytes",
						"numberOfBytes": "32"
					},
					"t_contract(testContract)44": {
						"encoding": "inplace",
						"label": "contract testContract",
						"numberOfBytes": "20"
					},
					"t_string_storage": {
						"encoding": "bytes",
						"label": "string",
						"numberOfBytes": "32"
					}
				}
			},
			"userdoc": {
				"kind": "user",
				"methods": {},
				"version": 1
			}
		}
	}
}