{
	"study/chapter04/newContract.sol": {
		"callContract": {
			"abi": [
				{
					"inputs": [],
					"name": "contractName",
					"outputs": [
						{
							"internalType": "string",
							"name": "",
							"type": "string"
						}
					],
					"stateMutability": "view",
					"type": "function"
				},
				{
					"inputs": [],
					"name": "contractaddr",
					"outputs": [
						{
							"internalType": "address",
							"name": "",
							"type": "address"
						}
					],
					"stateMutability": "view",
					"type": "function"
				},
				{
					"inputs": [
						{
							"internalType": "uint256",
							"name": "amount",
							"type": "uint256"
						}
					],
					"name": "createContractObj",
					"outputs": [],
					"stateMutability": "payable",
					"type": "function"
				},
				{
					"inputs": [],
					"name": "getBalance",
					"outputs": [
						{
							"internalType": "uint256",
							"name": "",
							"type": "uint256"
						}
					],
					"stateMutability": "view",
					"type": "function"
				}
			],
			"devdoc": {
				"kind": "dev",
				"methods": {},
				"version": 1
			},
			"evm": {
				"assembly": "    /* \"study/chapter04/newContract.sol\":417:873  contract callContract{... */\n  mstore(0x40, 0x80)\n  callvalue\n  dup1\n  iszero\n  tag_1\n  jumpi\n  0x00\n  dup1\n  revert\ntag_1:\n  pop\n  dataSize(sub_0)\n  dup1\n  dataOffset(sub_0)\n  0x00\n  codecopy\n  0x00\n  return\nstop\n\nsub_0: assembly {\n        /* \"study/chapter04/newContract.sol\":417:873  contract callContract{... */\n      mstore(0x40, 0x80)\n      jumpi(tag_1, lt(calldatasize, 0x04))\n      shr(0xe0, calldataload(0x00))\n      dup1\n      0x12065fe0\n      eq\n      tag_2\n      jumpi\n      dup1\n      0x75d0c0dc\n      eq\n      tag_3\n      jumpi\n      dup1\n      0x93d4e9a2\n      eq\n      tag_4\n      jumpi\n      dup1\n      0xd01bb4d5\n      eq\n      tag_5\n      jumpi\n    tag_1:\n      0x00\n      dup1\n      revert\n        /* \"study/chapter04/newContract.sol\":777:870  function getBalance()external view returns(uint){... */\n    tag_2:\n      callvalue\n      dup1\n      iszero\n      tag_6\n      jumpi\n      0x00\n      dup1\n      revert\n    tag_6:\n      pop\n      tag_7\n      tag_8\n      jump\t// in\n    tag_7:\n      mload(0x40)\n      tag_9\n      swap2\n      swap1\n      tag_10\n      jump\t// in\n    tag_9:\n      mload(0x40)\n      dup1\n      swap2\n      sub\n      swap1\n      return\n        /* \"study/chapter04/newContract.sol\":595:621  string public contractName */\n    tag_3:\n      callvalue\n      dup1\n      iszero\n      tag_11\n      jumpi\n      0x00\n      dup1\n      revert\n    tag_11:\n      pop\n      tag_12\n      tag_13\n      jump\t// in\n    tag_12:\n      mload(0x40)\n      tag_14\n      swap2\n      swap1\n      tag_15\n      jump\t// in\n    tag_14:\n      mload(0x40)\n      dup1\n      swap2\n      sub\n      swap1\n      return\n        /* \"study/chapter04/newContract.sol\":630:772  function createContractObj(uint amount)public payable{... */\n    tag_4:\n      tag_16\n      0x04\n      dup1\n      calldatasize\n      sub\n      dup2\n      add\n      swap1\n      tag_17\n      swap2\n      swap1\n      tag_18\n      jump\t// in\n    tag_17:\n      tag_19\n      jump\t// in\n    tag_16:\n      stop\n        /* \"study/chapter04/newContract.sol\":548:575  address public contractaddr */\n    tag_5:\n      callvalue\n      dup1\n      iszero\n      tag_20\n      jumpi\n      0x00\n      dup1\n      revert\n    tag_20:\n      pop\n      tag_21\n      tag_22\n      jump\t// in\n    tag_21:\n      mload(0x40)\n      tag_23\n      swap2\n      swap1\n      tag_24\n      jump\t// in\n    tag_23:\n      mload(0x40)\n      dup1\n      swap2\n      sub\n      swap1\n      return\n        /* \"study/chapter04/newContract.sol\":777:870  function getBalance()external view returns(uint){... */\n    tag_8:\n        /* \"study/chapter04/newContract.sol\":820:824  uint */\n      0x00\n        /* \"study/chapter04/newContract.sol\":842:863  address(this).balance */\n      selfbalance\n        /* \"study/chapter04/newContract.sol\":835:863  return address(this).balance */\n      swap1\n      pop\n        /* \"study/chapter04/newContract.sol\":777:870  function getBalance()external view returns(uint){... */\n      swap1\n      jump\t// out\n        /* \"study/chapter04/newContract.sol\":595:621  string public contractName */\n    tag_13:\n      0x02\n      dup1\n      sload\n      tag_26\n      swap1\n      tag_27\n      jump\t// in\n    tag_26:\n      dup1\n      0x1f\n      add\n      0x20\n      dup1\n      swap2\n      div\n      mul\n      0x20\n      add\n      mload(0x40)\n      swap1\n      dup2\n      add\n      0x40\n      mstore\n      dup1\n      swap3\n      swap2\n      swap1\n      dup2\n      dup2\n      mstore\n      0x20\n      add\n      dup3\n      dup1\n      sload\n      tag_28\n      swap1\n      tag_27\n      jump\t// in\n    tag_28:\n      dup1\n      iszero\n      tag_29\n      jumpi\n      dup1\n      0x1f\n      lt\n      tag_30\n      jumpi\n      0x0100\n      dup1\n      dup4\n      sload\n      div\n      mul\n      dup4\n      mstore\n      swap2\n      0x20\n      add\n      swap2\n      jump(tag_29)\n    tag_30:\n      dup3\n      add\n      swap2\n      swap1\n      0x00\n      mstore\n      keccak256(0x00, 0x20)\n      swap1\n    tag_31:\n      dup2\n      sload\n      dup2\n      mstore\n      swap1\n      0x01\n      add\n      swap1\n      0x20\n      add\n      dup1\n      dup4\n      gt\n      tag_31\n      jumpi\n      dup3\n      swap1\n      sub\n      0x1f\n      and\n      dup3\n      add\n      swap2\n    tag_29:\n      pop\n      pop\n      pop\n      pop\n      pop\n      dup2\n      jump\t// out\n        /* \"study/chapter04/newContract.sol\":630:772  function createContractObj(uint amount)public payable{... */\n    tag_19:\n        /* \"study/chapter04/newContract.sol\":720:726  amount */\n      dup1\n        /* \"study/chapter04/newContract.sol\":728:729  5 */\n      0x05\n        /* \"study/chapter04/newContract.sol\":697:730  new testContract{value:amount}(5) */\n      mload(0x40)\n      tag_33\n      swap1\n      tag_34\n      jump\t// in\n    tag_33:\n      tag_35\n      swap2\n      swap1\n      tag_36\n      jump\t// in\n    tag_35:\n      mload(0x40)\n      dup1\n      swap2\n      sub\n      swap1\n      dup3\n      create\n      swap1\n      pop\n      dup1\n      iszero\n      dup1\n      iszero\n      tag_37\n      jumpi\n      returndatasize\n      0x00\n      dup1\n      returndatacopy\n      revert(0x00, returndatasize)\n    tag_37:\n      pop\n        /* \"study/chapter04/newContract.sol\":693:694  t */\n      0x00\n      dup1\n        /* \"study/chapter04/newContract.sol\":693:730  t = new testContract{value:amount}(5) */\n      0x0100\n      exp\n      dup2\n      sload\n      dup2\n      0xffffffffffffffffffffffffffffffffffffffff\n      mul\n      not\n      and\n      swap1\n      dup4\n      0xffffffffffffffffffffffffffffffffffffffff\n      and\n      mul\n      or\n      swap1\n      sstore\n      pop\n        /* \"study/chapter04/newContract.sol\":762:763  t */\n      0x00\n      dup1\n      sload\n      swap1\n      0x0100\n      exp\n      swap1\n      div\n      0xffffffffffffffffffffffffffffffffffffffff\n      and\n        /* \"study/chapter04/newContract.sol\":740:752  contractaddr */\n      0x01\n      0x00\n        /* \"study/chapter04/newContract.sol\":740:764  contractaddr =address(t) */\n      0x0100\n      exp\n      dup2\n      sload\n      dup2\n      0xffffffffffffffffffffffffffffffffffffffff\n      mul\n      not\n      and\n      swap1\n      dup4\n      0xffffffffffffffffffffffffffffffffffffffff\n      and\n      mul\n      or\n      swap1\n      sstore\n      pop\n        /* \"study/chapter04/newContract.sol\":630:772  function createContractObj(uint amount)public payable{... */\n      pop\n      jump\t// out\n        /* \"study/chapter04/newContract.sol\":548:575  address public contractaddr */\n    tag_22:\n      0x01\n      0x00\n      swap1\n      sload\n      swap1\n      0x0100\n      exp\n      swap1\n      div\n      0xffffffffffffffffffffffffffffffffffffffff\n      and\n      dup2\n      jump\t// out\n    tag_34:\n      dataSize(sub_0)\n      dup1\n      dataOffset(sub_0)\n      dup4\n      codecopy\n      add\n      swap1\n      jump\t// out\n        /* \"#utility.yul\":7:84   */\n    tag_38:\n        /* \"#utility.yul\":44:51   */\n      0x00\n        /* \"#utility.yul\":73:78   */\n      dup2\n        /* \"#utility.yul\":62:78   */\n      swap1\n      pop\n        /* \"#utility.yul\":7:84   */\n      swap2\n      swap1\n      pop\n      jump\t// out\n        /* \"#utility.yul\":90:208   */\n    tag_39:\n        /* \"#utility.yul\":177:201   */\n      tag_61\n        /* \"#utility.yul\":195:200   */\n      dup2\n        /* \"#utility.yul\":177:201   */\n      tag_38\n      jump\t// in\n    tag_61:\n        /* \"#utility.yul\":172:175   */\n      dup3\n        /* \"#utility.yul\":165:202   */\n      mstore\n        /* \"#utility.yul\":90:208   */\n      pop\n      pop\n      jump\t// out\n        /* \"#utility.yul\":214:436   */\n    tag_10:\n        /* \"#utility.yul\":307:311   */\n      0x00\n        /* \"#utility.yul\":345:347   */\n      0x20\n        /* \"#utility.yul\":334:343   */\n      dup3\n        /* \"#utility.yul\":330:348   */\n      add\n        /* \"#utility.yul\":322:348   */\n      swap1\n      pop\n        /* \"#utility.yul\":358:429   */\n      tag_63\n        /* \"#utility.yul\":426:427   */\n      0x00\n        /* \"#utility.yul\":415:424   */\n      dup4\n        /* \"#utility.yul\":411:428   */\n      add\n        /* \"#utility.yul\":402:408   */\n      dup5\n        /* \"#utility.yul\":358:429   */\n      tag_39\n      jump\t// in\n    tag_63:\n        /* \"#utility.yul\":214:436   */\n      swap3\n      swap2\n      pop\n      pop\n      jump\t// out\n        /* \"#utility.yul\":442:541   */\n    tag_40:\n        /* \"#utility.yul\":494:500   */\n      0x00\n        /* \"#utility.yul\":528:533   */\n      dup2\n        /* \"#utility.yul\":522:534   */\n      mload\n        /* \"#utility.yul\":512:534   */\n      swap1\n      pop\n        /* \"#utility.yul\":442:541   */\n      swap2\n      swap1\n      pop\n      jump\t// out\n        /* \"#utility.yul\":547:716   */\n    tag_41:\n        /* \"#utility.yul\":631:642   */\n      0x00\n        /* \"#utility.yul\":665:671   */\n      dup3\n        /* \"#utility.yul\":660:663   */\n      dup3\n        /* \"#utility.yul\":653:672   */\n      mstore\n        /* \"#utility.yul\":705:709   */\n      0x20\n        /* \"#utility.yul\":700:703   */\n      dup3\n        /* \"#utility.yul\":696:710   */\n      add\n        /* \"#utility.yul\":681:710   */\n      swap1\n      pop\n        /* \"#utility.yul\":547:716   */\n      swap3\n      swap2\n      pop\n      pop\n      jump\t// out\n        /* \"#utility.yul\":722:1029   */\n    tag_42:\n        /* \"#utility.yul\":790:791   */\n      0x00\n        /* \"#utility.yul\":800:913   */\n    tag_67:\n        /* \"#utility.yul\":814:820   */\n      dup4\n        /* \"#utility.yul\":811:812   */\n      dup2\n        /* \"#utility.yul\":808:821   */\n      lt\n        /* \"#utility.yul\":800:913   */\n      iszero\n      tag_69\n      jumpi\n        /* \"#utility.yul\":899:900   */\n      dup1\n        /* \"#utility.yul\":894:897   */\n      dup3\n        /* \"#utility.yul\":890:901   */\n      add\n        /* \"#utility.yul\":884:902   */\n      mload\n        /* \"#utility.yul\":880:881   */\n      dup2\n        /* \"#utility.yul\":875:878   */\n      dup5\n        /* \"#utility.yul\":871:882   */\n      add\n        /* \"#utility.yul\":864:903   */\n      mstore\n        /* \"#utility.yul\":836:838   */\n      0x20\n        /* \"#utility.yul\":833:834   */\n      dup2\n        /* \"#utility.yul\":829:839   */\n      add\n        /* \"#utility.yul\":824:839   */\n      swap1\n      pop\n        /* \"#utility.yul\":800:913   */\n      jump(tag_67)\n    tag_69:\n        /* \"#utility.yul\":931:937   */\n      dup4\n        /* \"#utility.yul\":928:929   */\n      dup2\n        /* \"#utility.yul\":925:938   */\n      gt\n        /* \"#utility.yul\":922:1023   */\n      iszero\n      tag_70\n      jumpi\n        /* \"#utility.yul\":1011:1012   */\n      0x00\n        /* \"#utility.yul\":1002:1008   */\n      dup5\n        /* \"#utility.yul\":997:1000   */\n      dup5\n        /* \"#utility.yul\":993:1009   */\n      add\n        /* \"#utility.yul\":986:1013   */\n      mstore\n        /* \"#utility.yul\":922:1023   */\n    tag_70:\n        /* \"#utility.yul\":771:1029   */\n      pop\n        /* \"#utility.yul\":722:1029   */\n      pop\n      pop\n      pop\n      jump\t// out\n        /* \"#utility.yul\":1035:1137   */\n    tag_43:\n        /* \"#utility.yul\":1076:1082   */\n      0x00\n        /* \"#utility.yul\":1127:1129   */\n      0x1f\n        /* \"#utility.yul\":1123:1130   */\n      not\n        /* \"#utility.yul\":1118:1120   */\n      0x1f\n        /* \"#utility.yul\":1111:1116   */\n      dup4\n        /* \"#utility.yul\":1107:1121   */\n      add\n        /* \"#utility.yul\":1103:1131   */\n      and\n        /* \"#utility.yul\":1093:1131   */\n      swap1\n      pop\n        /* \"#utility.yul\":1035:1137   */\n      swap2\n      swap1\n      pop\n      jump\t// out\n        /* \"#utility.yul\":1143:1507   */\n    tag_44:\n        /* \"#utility.yul\":1231:1234   */\n      0x00\n        /* \"#utility.yul\":1259:1298   */\n      tag_73\n        /* \"#utility.yul\":1292:1297   */\n      dup3\n        /* \"#utility.yul\":1259:1298   */\n      tag_40\n      jump\t// in\n    tag_73:\n        /* \"#utility.yul\":1314:1385   */\n      tag_74\n        /* \"#utility.yul\":1378:1384   */\n      dup2\n        /* \"#utility.yul\":1373:1376   */\n      dup6\n        /* \"#utility.yul\":1314:1385   */\n      tag_41\n      jump\t// in\n    tag_74:\n        /* \"#utility.yul\":1307:1385   */\n      swap4\n      pop\n        /* \"#utility.yul\":1394:1446   */\n      tag_75\n        /* \"#utility.yul\":1439:1445   */\n      dup2\n        /* \"#utility.yul\":1434:1437   */\n      dup6\n        /* \"#utility.yul\":1427:1431   */\n      0x20\n        /* \"#utility.yul\":1420:1425   */\n      dup7\n        /* \"#utility.yul\":1416:1432   */\n      add\n        /* \"#utility.yul\":1394:1446   */\n      tag_42\n      jump\t// in\n    tag_75:\n        /* \"#utility.yul\":1471:1500   */\n      tag_76\n        /* \"#utility.yul\":1493:1499   */\n      dup2\n        /* \"#utility.yul\":1471:1500   */\n      tag_43\n      jump\t// in\n    tag_76:\n        /* \"#utility.yul\":1466:1469   */\n      dup5\n        /* \"#utility.yul\":1462:1501   */\n      add\n        /* \"#utility.yul\":1455:1501   */\n      swap2\n      pop\n        /* \"#utility.yul\":1235:1507   */\n      pop\n        /* \"#utility.yul\":1143:1507   */\n      swap3\n      swap2\n      pop\n      pop\n      jump\t// out\n        /* \"#utility.yul\":1513:1826   */\n    tag_15:\n        /* \"#utility.yul\":1626:1630   */\n      0x00\n        /* \"#utility.yul\":1664:1666   */\n      0x20\n        /* \"#utility.yul\":1653:1662   */\n      dup3\n        /* \"#utility.yul\":1649:1667   */\n      add\n        /* \"#utility.yul\":1641:1667   */\n      swap1\n      pop\n        /* \"#utility.yul\":1713:1722   */\n      dup2\n        /* \"#utility.yul\":1707:1711   */\n      dup2\n        /* \"#utility.yul\":1703:1723   */\n      sub\n        /* \"#utility.yul\":1699:1700   */\n      0x00\n        /* \"#utility.yul\":1688:1697   */\n      dup4\n        /* \"#utility.yul\":1684:1701   */\n      add\n        /* \"#utility.yul\":1677:1724   */\n      mstore\n        /* \"#utility.yul\":1741:1819   */\n      tag_78\n        /* \"#utility.yul\":1814:1818   */\n      dup2\n        /* \"#utility.yul\":1805:1811   */\n      dup5\n        /* \"#utility.yul\":1741:1819   */\n      tag_44\n      jump\t// in\n    tag_78:\n        /* \"#utility.yul\":1733:1819   */\n      swap1\n      pop\n        /* \"#utility.yul\":1513:1826   */\n      swap3\n      swap2\n      pop\n      pop\n      jump\t// out\n        /* \"#utility.yul\":1913:2030   */\n    tag_46:\n        /* \"#utility.yul\":2022:2023   */\n      0x00\n        /* \"#utility.yul\":2019:2020   */\n      dup1\n        /* \"#utility.yul\":2012:2024   */\n      revert\n        /* \"#utility.yul\":2159:2281   */\n    tag_48:\n        /* \"#utility.yul\":2232:2256   */\n      tag_83\n        /* \"#utility.yul\":2250:2255   */\n      dup2\n        /* \"#utility.yul\":2232:2256   */\n      tag_38\n      jump\t// in\n    tag_83:\n        /* \"#utility.yul\":2225:2230   */\n      dup2\n        /* \"#utility.yul\":2222:2257   */\n      eq\n        /* \"#utility.yul\":2212:2275   */\n      tag_84\n      jumpi\n        /* \"#utility.yul\":2271:2272   */\n      0x00\n        /* \"#utility.yul\":2268:2269   */\n      dup1\n        /* \"#utility.yul\":2261:2273   */\n      revert\n        /* \"#utility.yul\":2212:2275   */\n    tag_84:\n        /* \"#utility.yul\":2159:2281   */\n      pop\n      jump\t// out\n        /* \"#utility.yul\":2287:2426   */\n    tag_49:\n        /* \"#utility.yul\":2333:2338   */\n      0x00\n        /* \"#utility.yul\":2371:2377   */\n      dup2\n        /* \"#utility.yul\":2358:2378   */\n      calldataload\n        /* \"#utility.yul\":2349:2378   */\n      swap1\n      pop\n        /* \"#utility.yul\":2387:2420   */\n      tag_86\n        /* \"#utility.yul\":2414:2419   */\n      dup2\n        /* \"#utility.yul\":2387:2420   */\n      tag_48\n      jump\t// in\n    tag_86:\n        /* \"#utility.yul\":2287:2426   */\n      swap3\n      swap2\n      pop\n      pop\n      jump\t// out\n        /* \"#utility.yul\":2432:2761   */\n    tag_18:\n        /* \"#utility.yul\":2491:2497   */\n      0x00\n        /* \"#utility.yul\":2540:2542   */\n      0x20\n        /* \"#utility.yul\":2528:2537   */\n      dup3\n        /* \"#utility.yul\":2519:2526   */\n      dup5\n        /* \"#utility.yul\":2515:2538   */\n      sub\n        /* \"#utility.yul\":2511:2543   */\n      slt\n        /* \"#utility.yul\":2508:2627   */\n      iszero\n      tag_88\n      jumpi\n        /* \"#utility.yul\":2546:2625   */\n      tag_89\n      tag_46\n      jump\t// in\n    tag_89:\n        /* \"#utility.yul\":2508:2627   */\n    tag_88:\n        /* \"#utility.yul\":2666:2667   */\n      0x00\n        /* \"#utility.yul\":2691:2744   */\n      tag_90\n        /* \"#utility.yul\":2736:2743   */\n      dup5\n        /* \"#utility.yul\":2727:2733   */\n      dup3\n        /* \"#utility.yul\":2716:2725   */\n      dup6\n        /* \"#utility.yul\":2712:2734   */\n      add\n        /* \"#utility.yul\":2691:2744   */\n      tag_49\n      jump\t// in\n    tag_90:\n        /* \"#utility.yul\":2681:2744   */\n      swap2\n      pop\n        /* \"#utility.yul\":2637:2754   */\n      pop\n        /* \"#utility.yul\":2432:2761   */\n      swap3\n      swap2\n      pop\n      pop\n      jump\t// out\n        /* \"#utility.yul\":2767:2893   */\n    tag_50:\n        /* \"#utility.yul\":2804:2811   */\n      0x00\n        /* \"#utility.yul\":2844:2886   */\n      0xffffffffffffffffffffffffffffffffffffffff\n        /* \"#utility.yul\":2837:2842   */\n      dup3\n        /* \"#utility.yul\":2833:2887   */\n      and\n        /* \"#utility.yul\":2822:2887   */\n      swap1\n      pop\n        /* \"#utility.yul\":2767:2893   */\n      swap2\n      swap1\n      pop\n      jump\t// out\n        /* \"#utility.yul\":2899:2995   */\n    tag_51:\n        /* \"#utility.yul\":2936:2943   */\n      0x00\n        /* \"#utility.yul\":2965:2989   */\n      tag_93\n        /* \"#utility.yul\":2983:2988   */\n      dup3\n        /* \"#utility.yul\":2965:2989   */\n      tag_50\n      jump\t// in\n    tag_93:\n        /* \"#utility.yul\":2954:2989   */\n      swap1\n      pop\n        /* \"#utility.yul\":2899:2995   */\n      swap2\n      swap1\n      pop\n      jump\t// out\n        /* \"#utility.yul\":3001:3119   */\n    tag_52:\n        /* \"#utility.yul\":3088:3112   */\n      tag_95\n        /* \"#utility.yul\":3106:3111   */\n      dup2\n        /* \"#utility.yul\":3088:3112   */\n      tag_51\n      jump\t// in\n    tag_95:\n        /* \"#utility.yul\":3083:3086   */\n      dup3\n        /* \"#utility.yul\":3076:3113   */\n      mstore\n        /* \"#utility.yul\":3001:3119   */\n      pop\n      pop\n      jump\t// out\n        /* \"#utility.yul\":3125:3347   */\n    tag_24:\n        /* \"#utility.yul\":3218:3222   */\n      0x00\n        /* \"#utility.yul\":3256:3258   */\n      0x20\n        /* \"#utility.yul\":3245:3254   */\n      dup3\n        /* \"#utility.yul\":3241:3259   */\n      add\n        /* \"#utility.yul\":3233:3259   */\n      swap1\n      pop\n        /* \"#utility.yul\":3269:3340   */\n      tag_97\n        /* \"#utility.yul\":3337:3338   */\n      0x00\n        /* \"#utility.yul\":3326:3335   */\n      dup4\n        /* \"#utility.yul\":3322:3339   */\n      add\n        /* \"#utility.yul\":3313:3319   */\n      dup5\n        /* \"#utility.yul\":3269:3340   */\n      tag_52\n      jump\t// in\n    tag_97:\n        /* \"#utility.yul\":3125:3347   */\n      swap3\n      swap2\n      pop\n      pop\n      jump\t// out\n        /* \"#utility.yul\":3353:3533   */\n    tag_53:\n        /* \"#utility.yul\":3401:3478   */\n      0x4e487b7100000000000000000000000000000000000000000000000000000000\n        /* \"#utility.yul\":3398:3399   */\n      0x00\n        /* \"#utility.yul\":3391:3479   */\n      mstore\n        /* \"#utility.yul\":3498:3502   */\n      0x22\n        /* \"#utility.yul\":3495:3496   */\n      0x04\n        /* \"#utility.yul\":3488:3503   */\n      mstore\n        /* \"#utility.yul\":3522:3526   */\n      0x24\n        /* \"#utility.yul\":3519:3520   */\n      0x00\n        /* \"#utility.yul\":3512:3527   */\n      revert\n        /* \"#utility.yul\":3539:3859   */\n    tag_27:\n        /* \"#utility.yul\":3583:3589   */\n      0x00\n        /* \"#utility.yul\":3620:3621   */\n      0x02\n        /* \"#utility.yul\":3614:3618   */\n      dup3\n        /* \"#utility.yul\":3610:3622   */\n      div\n        /* \"#utility.yul\":3600:3622   */\n      swap1\n      pop\n        /* \"#utility.yul\":3667:3668   */\n      0x01\n        /* \"#utility.yul\":3661:3665   */\n      dup3\n        /* \"#utility.yul\":3657:3669   */\n      and\n        /* \"#utility.yul\":3688:3706   */\n      dup1\n        /* \"#utility.yul\":3678:3759   */\n      tag_100\n      jumpi\n        /* \"#utility.yul\":3744:3748   */\n      0x7f\n        /* \"#utility.yul\":3736:3742   */\n      dup3\n        /* \"#utility.yul\":3732:3749   */\n      and\n        /* \"#utility.yul\":3722:3749   */\n      swap2\n      pop\n        /* \"#utility.yul\":3678:3759   */\n    tag_100:\n        /* \"#utility.yul\":3806:3808   */\n      0x20\n        /* \"#utility.yul\":3798:3804   */\n      dup3\n        /* \"#utility.yul\":3795:3809   */\n      lt\n        /* \"#utility.yul\":3775:3793   */\n      dup2\n        /* \"#utility.yul\":3772:3810   */\n      sub\n        /* \"#utility.yul\":3769:3853   */\n      tag_101\n      jumpi\n        /* \"#utility.yul\":3825:3843   */\n      tag_102\n      tag_53\n      jump\t// in\n    tag_102:\n        /* \"#utility.yul\":3769:3853   */\n    tag_101:\n        /* \"#utility.yul\":3590:3859   */\n      pop\n        /* \"#utility.yul\":3539:3859   */\n      swap2\n      swap1\n      pop\n      jump\t// out\n        /* \"#utility.yul\":3865:3950   */\n    tag_54:\n        /* \"#utility.yul\":3910:3917   */\n      0x00\n        /* \"#utility.yul\":3939:3944   */\n      dup2\n        /* \"#utility.yul\":3928:3944   */\n      swap1\n      pop\n        /* \"#utility.yul\":3865:3950   */\n      swap2\n      swap1\n      pop\n      jump\t// out\n        /* \"#utility.yul\":3956:4016   */\n    tag_55:\n        /* \"#utility.yul\":3984:3987   */\n      0x00\n        /* \"#utility.yul\":4005:4010   */\n      dup2\n        /* \"#utility.yul\":3998:4010   */\n      swap1\n      pop\n        /* \"#utility.yul\":3956:4016   */\n      swap2\n      swap1\n      pop\n      jump\t// out\n        /* \"#utility.yul\":4022:4180   */\n    tag_56:\n        /* \"#utility.yul\":4080:4089   */\n      0x00\n        /* \"#utility.yul\":4113:4174   */\n      tag_106\n        /* \"#utility.yul\":4131:4173   */\n      tag_107\n        /* \"#utility.yul\":4140:4172   */\n      tag_108\n        /* \"#utility.yul\":4166:4171   */\n      dup5\n        /* \"#utility.yul\":4140:4172   */\n      tag_54\n      jump\t// in\n    tag_108:\n        /* \"#utility.yul\":4131:4173   */\n      tag_55\n      jump\t// in\n    tag_107:\n        /* \"#utility.yul\":4113:4174   */\n      tag_38\n      jump\t// in\n    tag_106:\n        /* \"#utility.yul\":4100:4174   */\n      swap1\n      pop\n        /* \"#utility.yul\":4022:4180   */\n      swap2\n      swap1\n      pop\n      jump\t// out\n        /* \"#utility.yul\":4186:4333   */\n    tag_57:\n        /* \"#utility.yul\":4281:4326   */\n      tag_110\n        /* \"#utility.yul\":4320:4325   */\n      dup2\n        /* \"#utility.yul\":4281:4326   */\n      tag_56\n      jump\t// in\n    tag_110:\n        /* \"#utility.yul\":4276:4279   */\n      dup3\n        /* \"#utility.yul\":4269:4327   */\n      mstore\n        /* \"#utility.yul\":4186:4333   */\n      pop\n      pop\n      jump\t// out\n        /* \"#utility.yul\":4339:4577   */\n    tag_36:\n        /* \"#utility.yul\":4440:4444   */\n      0x00\n        /* \"#utility.yul\":4478:4480   */\n      0x20\n        /* \"#utility.yul\":4467:4476   */\n      dup3\n        /* \"#utility.yul\":4463:4481   */\n      add\n        /* \"#utility.yul\":4455:4481   */\n      swap1\n      pop\n        /* \"#utility.yul\":4491:4570   */\n      tag_112\n        /* \"#utility.yul\":4567:4568   */\n      0x00\n        /* \"#utility.yul\":4556:4565   */\n      dup4\n        /* \"#utility.yul\":4552:4569   */\n      add\n        /* \"#utility.yul\":4543:4549   */\n      dup5\n        /* \"#utility.yul\":4491:4570   */\n      tag_57\n      jump\t// in\n    tag_112:\n        /* \"#utility.yul\":4339:4577   */\n      swap3\n      swap2\n      pop\n      pop\n      jump\t// out\n    stop\n\n    sub_0: assembly {\n            /* \"study/chapter04/newContract.sol\":53:416  contract testContract{... */\n          mstore(0x40, 0x80)\n            /* \"study/chapter04/newContract.sol\":99:148  constructor(uint _a) payable{... */\n          mload(0x40)\n          sub(codesize, bytecodeSize)\n          dup1\n          bytecodeSize\n          dup4\n          codecopy\n          dup2\n          dup2\n          add\n          0x40\n          mstore\n          dup2\n          add\n          swap1\n          tag_1\n          swap2\n          swap1\n          tag_2\n          jump\t// in\n        tag_1:\n            /* \"study/chapter04/newContract.sol\":139:141  _a */\n          dup1\n            /* \"study/chapter04/newContract.sol\":137:138  a */\n          0x00\n            /* \"study/chapter04/newContract.sol\":137:141  a=_a */\n          dup2\n          swap1\n          sstore\n          pop\n            /* \"study/chapter04/newContract.sol\":99:148  constructor(uint _a) payable{... */\n          pop\n            /* \"study/chapter04/newContract.sol\":53:416  contract testContract{... */\n          jump(tag_5)\n            /* \"#utility.yul\":88:205   */\n        tag_7:\n            /* \"#utility.yul\":197:198   */\n          0x00\n            /* \"#utility.yul\":194:195   */\n          dup1\n            /* \"#utility.yul\":187:199   */\n          revert\n            /* \"#utility.yul\":334:411   */\n        tag_9:\n            /* \"#utility.yul\":371:378   */\n          0x00\n            /* \"#utility.yul\":400:405   */\n          dup2\n            /* \"#utility.yul\":389:405   */\n          swap1\n          pop\n            /* \"#utility.yul\":334:411   */\n          swap2\n          swap1\n          pop\n          jump\t// out\n            /* \"#utility.yul\":417:539   */\n        tag_10:\n            /* \"#utility.yul\":490:514   */\n          tag_18\n            /* \"#utility.yul\":508:513   */\n          dup2\n            /* \"#utility.yul\":490:514   */\n          tag_9\n          jump\t// in\n        tag_18:\n            /* \"#utility.yul\":483:488   */\n          dup2\n            /* \"#utility.yul\":480:515   */\n          eq\n            /* \"#utility.yul\":470:533   */\n          tag_19\n          jumpi\n            /* \"#utility.yul\":529:530   */\n          0x00\n            /* \"#utility.yul\":526:527   */\n          dup1\n            /* \"#utility.yul\":519:531   */\n          revert\n            /* \"#utility.yul\":470:533   */\n        tag_19:\n            /* \"#utility.yul\":417:539   */\n          pop\n          jump\t// out\n            /* \"#utility.yul\":545:688   */\n        tag_11:\n            /* \"#utility.yul\":602:607   */\n          0x00\n            /* \"#utility.yul\":633:639   */\n          dup2\n            /* \"#utility.yul\":627:640   */\n          mload\n            /* \"#utility.yul\":618:640   */\n          swap1\n          pop\n            /* \"#utility.yul\":649:682   */\n          tag_21\n            /* \"#utility.yul\":676:681   */\n          dup2\n            /* \"#utility.yul\":649:682   */\n          tag_10\n          jump\t// in\n        tag_21:\n            /* \"#utility.yul\":545:688   */\n          swap3\n          swap2\n          pop\n          pop\n          jump\t// out\n            /* \"#utility.yul\":694:1045   */\n        tag_2:\n            /* \"#utility.yul\":764:770   */\n          0x00\n            /* \"#utility.yul\":813:815   */\n          0x20\n            /* \"#utility.yul\":801:810   */\n          dup3\n            /* \"#utility.yul\":792:799   */\n          dup5\n            /* \"#utility.yul\":788:811   */\n          sub\n            /* \"#utility.yul\":784:816   */\n          slt\n            /* \"#utility.yul\":781:900   */\n          iszero\n          tag_23\n          jumpi\n            /* \"#utility.yul\":819:898   */\n          tag_24\n          tag_7\n          jump\t// in\n        tag_24:\n            /* \"#utility.yul\":781:900   */\n        tag_23:\n            /* \"#utility.yul\":939:940   */\n          0x00\n            /* \"#utility.yul\":964:1028   */\n          tag_25\n            /* \"#utility.yul\":1020:1027   */\n          dup5\n            /* \"#utility.yul\":1011:1017   */\n          dup3\n            /* \"#utility.yul\":1000:1009   */\n          dup6\n            /* \"#utility.yul\":996:1018   */\n          add\n            /* \"#utility.yul\":964:1028   */\n          tag_11\n          jump\t// in\n        tag_25:\n            /* \"#utility.yul\":954:1028   */\n          swap2\n          pop\n            /* \"#utility.yul\":910:1038   */\n          pop\n            /* \"#utility.yul\":694:1045   */\n          swap3\n          swap2\n          pop\n          pop\n          jump\t// out\n            /* \"study/chapter04/newContract.sol\":53:416  contract testContract{... */\n        tag_5:\n          dataSize(sub_0)\n          dup1\n          dataOffset(sub_0)\n          0x00\n          codecopy\n          0x00\n          return\n        stop\n\n        sub_0: assembly {\n                /* \"study/chapter04/newContract.sol\":53:416  contract testContract{... */\n              mstore(0x40, 0x80)\n              callvalue\n              dup1\n              iszero\n              tag_1\n              jumpi\n              0x00\n              dup1\n              revert\n            tag_1:\n              pop\n              jumpi(tag_2, lt(calldatasize, 0x04))\n              shr(0xe0, calldataload(0x00))\n              dup1\n              0x0dbe671f\n              eq\n              tag_3\n              jumpi\n              dup1\n              0x12065fe0\n              eq\n              tag_4\n              jumpi\n              dup1\n              0xee919d50\n              eq\n              tag_5\n              jumpi\n              dup1\n              0xf5f5ba72\n              eq\n              tag_6\n              jumpi\n            tag_2:\n              0x00\n              dup1\n              revert\n                /* \"study/chapter04/newContract.sol\":80:93  uint public a */\n            tag_3:\n              tag_7\n              tag_8\n              jump\t// in\n            tag_7:\n              mload(0x40)\n              tag_9\n              swap2\n              swap1\n              tag_10\n              jump\t// in\n            tag_9:\n              mload(0x40)\n              dup1\n              swap2\n              sub\n              swap1\n              return\n                /* \"study/chapter04/newContract.sol\":153:246  function getBalance()external view returns(uint){... */\n            tag_4:\n              tag_11\n              tag_12\n              jump\t// in\n            tag_11:\n              mload(0x40)\n              tag_13\n              swap2\n              swap1\n              tag_10\n              jump\t// in\n            tag_13:\n              mload(0x40)\n              dup1\n              swap2\n              sub\n              swap1\n              return\n                /* \"study/chapter04/newContract.sol\":361:414  function setA(uint _a)external{... */\n            tag_5:\n              tag_14\n              0x04\n              dup1\n              calldatasize\n              sub\n              dup2\n              add\n              swap1\n              tag_15\n              swap2\n              swap1\n              tag_16\n              jump\t// in\n            tag_15:\n              tag_17\n              jump\t// in\n            tag_14:\n              stop\n                /* \"study/chapter04/newContract.sol\":256:356  function getContractName()external pure returns(string memory){... */\n            tag_6:\n              tag_18\n              tag_19\n              jump\t// in\n            tag_18:\n              mload(0x40)\n              tag_20\n              swap2\n              swap1\n              tag_21\n              jump\t// in\n            tag_20:\n              mload(0x40)\n              dup1\n              swap2\n              sub\n              swap1\n              return\n                /* \"study/chapter04/newContract.sol\":80:93  uint public a */\n            tag_8:\n              sload(0x00)\n              dup2\n              jump\t// out\n                /* \"study/chapter04/newContract.sol\":153:246  function getBalance()external view returns(uint){... */\n            tag_12:\n                /* \"study/chapter04/newContract.sol\":196:200  uint */\n              0x00\n                /* \"study/chapter04/newContract.sol\":218:239  address(this).balance */\n              selfbalance\n                /* \"study/chapter04/newContract.sol\":211:239  return address(this).balance */\n              swap1\n              pop\n                /* \"study/chapter04/newContract.sol\":153:246  function getBalance()external view returns(uint){... */\n              swap1\n              jump\t// out\n                /* \"study/chapter04/newContract.sol\":361:414  function setA(uint _a)external{... */\n            tag_17:\n                /* \"study/chapter04/newContract.sol\":405:407  _a */\n              dup1\n                /* \"study/chapter04/newContract.sol\":401:402  a */\n              0x00\n                /* \"study/chapter04/newContract.sol\":401:407  a = _a */\n              dup2\n              swap1\n              sstore\n              pop\n                /* \"study/chapter04/newContract.sol\":361:414  function setA(uint _a)external{... */\n              pop\n              jump\t// out\n                /* \"study/chapter04/newContract.sol\":256:356  function getContractName()external pure returns(string memory){... */\n            tag_19:\n                /* \"study/chapter04/newContract.sol\":304:317  string memory */\n              0x60\n                /* \"study/chapter04/newContract.sol\":328:349  return \"testContract\" */\n              mload(0x40)\n              dup1\n              0x40\n              add\n              0x40\n              mstore\n              dup1\n              0x0c\n              dup2\n              mstore\n              0x20\n              add\n              0x74657374436f6e74726163740000000000000000000000000000000000000000\n              dup2\n              mstore\n              pop\n              swap1\n              pop\n                /* \"study/chapter04/newContract.sol\":256:356  function getContractName()external pure returns(string memory){... */\n              swap1\n              jump\t// out\n                /* \"#utility.yul\":7:84   */\n            tag_25:\n                /* \"#utility.yul\":44:51   */\n              0x00\n                /* \"#utility.yul\":73:78   */\n              dup2\n                /* \"#utility.yul\":62:78   */\n              swap1\n              pop\n                /* \"#utility.yul\":7:84   */\n              swap2\n              swap1\n              pop\n              jump\t// out\n                /* \"#utility.yul\":90:208   */\n            tag_26:\n                /* \"#utility.yul\":177:201   */\n              tag_40\n                /* \"#utility.yul\":195:200   */\n              dup2\n                /* \"#utility.yul\":177:201   */\n              tag_25\n              jump\t// in\n            tag_40:\n                /* \"#utility.yul\":172:175   */\n              dup3\n                /* \"#utility.yul\":165:202   */\n              mstore\n                /* \"#utility.yul\":90:208   */\n              pop\n              pop\n              jump\t// out\n                /* \"#utility.yul\":214:436   */\n            tag_10:\n                /* \"#utility.yul\":307:311   */\n              0x00\n                /* \"#utility.yul\":345:347   */\n              0x20\n                /* \"#utility.yul\":334:343   */\n              dup3\n                /* \"#utility.yul\":330:348   */\n              add\n                /* \"#utility.yul\":322:348   */\n              swap1\n              pop\n                /* \"#utility.yul\":358:429   */\n              tag_42\n                /* \"#utility.yul\":426:427   */\n              0x00\n                /* \"#utility.yul\":415:424   */\n              dup4\n                /* \"#utility.yul\":411:428   */\n              add\n                /* \"#utility.yul\":402:408   */\n              dup5\n                /* \"#utility.yul\":358:429   */\n              tag_26\n              jump\t// in\n            tag_42:\n                /* \"#utility.yul\":214:436   */\n              swap3\n              swap2\n              pop\n              pop\n              jump\t// out\n                /* \"#utility.yul\":523:640   */\n            tag_28:\n                /* \"#utility.yul\":632:633   */\n              0x00\n                /* \"#utility.yul\":629:630   */\n              dup1\n                /* \"#utility.yul\":622:634   */\n              revert\n                /* \"#utility.yul\":769:891   */\n            tag_30:\n                /* \"#utility.yul\":842:866   */\n              tag_47\n                /* \"#utility.yul\":860:865   */\n              dup2\n                /* \"#utility.yul\":842:866   */\n              tag_25\n              jump\t// in\n            tag_47:\n                /* \"#utility.yul\":835:840   */\n              dup2\n                /* \"#utility.yul\":832:867   */\n              eq\n                /* \"#utility.yul\":822:885   */\n              tag_48\n              jumpi\n                /* \"#utility.yul\":881:882   */\n              0x00\n                /* \"#utility.yul\":878:879   */\n              dup1\n                /* \"#utility.yul\":871:883   */\n              revert\n                /* \"#utility.yul\":822:885   */\n            tag_48:\n                /* \"#utility.yul\":769:891   */\n              pop\n              jump\t// out\n                /* \"#utility.yul\":897:1036   */\n            tag_31:\n                /* \"#utility.yul\":943:948   */\n              0x00\n                /* \"#utility.yul\":981:987   */\n              dup2\n                /* \"#utility.yul\":968:988   */\n              calldataload\n                /* \"#utility.yul\":959:988   */\n              swap1\n              pop\n                /* \"#utility.yul\":997:1030   */\n              tag_50\n                /* \"#utility.yul\":1024:1029   */\n              dup2\n                /* \"#utility.yul\":997:1030   */\n              tag_30\n              jump\t// in\n            tag_50:\n                /* \"#utility.yul\":897:1036   */\n              swap3\n              swap2\n              pop\n              pop\n              jump\t// out\n                /* \"#utility.yul\":1042:1371   */\n            tag_16:\n                /* \"#utility.yul\":1101:1107   */\n              0x00\n                /* \"#utility.yul\":1150:1152   */\n              0x20\n                /* \"#utility.yul\":1138:1147   */\n              dup3\n                /* \"#utility.yul\":1129:1136   */\n              dup5\n                /* \"#utility.yul\":1125:1148   */\n              sub\n                /* \"#utility.yul\":1121:1153   */\n              slt\n                /* \"#utility.yul\":1118:1237   */\n              iszero\n              tag_52\n              jumpi\n                /* \"#utility.yul\":1156:1235   */\n              tag_53\n              tag_28\n              jump\t// in\n            tag_53:\n                /* \"#utility.yul\":1118:1237   */\n            tag_52:\n                /* \"#utility.yul\":1276:1277   */\n              0x00\n                /* \"#utility.yul\":1301:1354   */\n              tag_54\n                /* \"#utility.yul\":1346:1353   */\n              dup5\n                /* \"#utility.yul\":1337:1343   */\n              dup3\n                /* \"#utility.yul\":1326:1335   */\n              dup6\n                /* \"#utility.yul\":1322:1344   */\n              add\n                /* \"#utility.yul\":1301:1354   */\n              tag_31\n              jump\t// in\n            tag_54:\n                /* \"#utility.yul\":1291:1354   */\n              swap2\n              pop\n                /* \"#utility.yul\":1247:1364   */\n              pop\n                /* \"#utility.yul\":1042:1371   */\n              swap3\n              swap2\n              pop\n              pop\n              jump\t// out\n                /* \"#utility.yul\":1377:1476   */\n            tag_32:\n                /* \"#utility.yul\":1429:1435   */\n              0x00\n                /* \"#utility.yul\":1463:1468   */\n              dup2\n                /* \"#utility.yul\":1457:1469   */\n              mload\n                /* \"#utility.yul\":1447:1469   */\n              swap1\n              pop\n                /* \"#utility.yul\":1377:1476   */\n              swap2\n              swap1\n              pop\n              jump\t// out\n                /* \"#utility.yul\":1482:1651   */\n            tag_33:\n                /* \"#utility.yul\":1566:1577   */\n              0x00\n                /* \"#utility.yul\":1600:1606   */\n              dup3\n                /* \"#utility.yul\":1595:1598   */\n              dup3\n                /* \"#utility.yul\":1588:1607   */\n              mstore\n                /* \"#utility.yul\":1640:1644   */\n              0x20\n                /* \"#utility.yul\":1635:1638   */\n              dup3\n                /* \"#utility.yul\":1631:1645   */\n              add\n                /* \"#utility.yul\":1616:1645   */\n              swap1\n              pop\n                /* \"#utility.yul\":1482:1651   */\n              swap3\n              swap2\n              pop\n              pop\n              jump\t// out\n                /* \"#utility.yul\":1657:1964   */\n            tag_34:\n                /* \"#utility.yul\":1725:1726   */\n              0x00\n                /* \"#utility.yul\":1735:1848   */\n            tag_58:\n                /* \"#utility.yul\":1749:1755   */\n              dup4\n                /* \"#utility.yul\":1746:1747   */\n              dup2\n                /* \"#utility.yul\":1743:1756   */\n              lt\n                /* \"#utility.yul\":1735:1848   */\n              iszero\n              tag_60\n              jumpi\n                /* \"#utility.yul\":1834:1835   */\n              dup1\n                /* \"#utility.yul\":1829:1832   */\n              dup3\n                /* \"#utility.yul\":1825:1836   */\n              add\n                /* \"#utility.yul\":1819:1837   */\n              mload\n                /* \"#utility.yul\":1815:1816   */\n              dup2\n                /* \"#utility.yul\":1810:1813   */\n              dup5\n                /* \"#utility.yul\":1806:1817   */\n              add\n                /* \"#utility.yul\":1799:1838   */\n              mstore\n                /* \"#utility.yul\":1771:1773   */\n              0x20\n                /* \"#utility.yul\":1768:1769   */\n              dup2\n                /* \"#utility.yul\":1764:1774   */\n              add\n                /* \"#utility.yul\":1759:1774   */\n              swap1\n              pop\n                /* \"#utility.yul\":1735:1848   */\n              jump(tag_58)\n            tag_60:\n                /* \"#utility.yul\":1866:1872   */\n              dup4\n                /* \"#utility.yul\":1863:1864   */\n              dup2\n                /* \"#utility.yul\":1860:1873   */\n              gt\n                /* \"#utility.yul\":1857:1958   */\n              iszero\n              tag_61\n              jumpi\n                /* \"#utility.yul\":1946:1947   */\n              0x00\n                /* \"#utility.yul\":1937:1943   */\n              dup5\n                /* \"#utility.yul\":1932:1935   */\n              dup5\n                /* \"#utility.yul\":1928:1944   */\n              add\n                /* \"#utility.yul\":1921:1948   */\n              mstore\n                /* \"#utility.yul\":1857:1958   */\n            tag_61:\n                /* \"#utility.yul\":1706:1964   */\n              pop\n                /* \"#utility.yul\":1657:1964   */\n              pop\n              pop\n              pop\n              jump\t// out\n                /* \"#utility.yul\":1970:2072   */\n            tag_35:\n                /* \"#utility.yul\":2011:2017   */\n              0x00\n                /* \"#utility.yul\":2062:2064   */\n              0x1f\n                /* \"#utility.yul\":2058:2065   */\n              not\n                /* \"#utility.yul\":2053:2055   */\n              0x1f\n                /* \"#utility.yul\":2046:2051   */\n              dup4\n                /* \"#utility.yul\":2042:2056   */\n              add\n                /* \"#utility.yul\":2038:2066   */\n              and\n                /* \"#utility.yul\":2028:2066   */\n              swap1\n              pop\n                /* \"#utility.yul\":1970:2072   */\n              swap2\n              swap1\n              pop\n              jump\t// out\n                /* \"#utility.yul\":2078:2442   */\n            tag_36:\n                /* \"#utility.yul\":2166:2169   */\n              0x00\n                /* \"#utility.yul\":2194:2233   */\n              tag_64\n                /* \"#utility.yul\":2227:2232   */\n              dup3\n                /* \"#utility.yul\":2194:2233   */\n              tag_32\n              jump\t// in\n            tag_64:\n                /* \"#utility.yul\":2249:2320   */\n              tag_65\n                /* \"#utility.yul\":2313:2319   */\n              dup2\n                /* \"#utility.yul\":2308:2311   */\n              dup6\n                /* \"#utility.yul\":2249:2320   */\n              tag_33\n              jump\t// in\n            tag_65:\n                /* \"#utility.yul\":2242:2320   */\n              swap4\n              pop\n                /* \"#utility.yul\":2329:2381   */\n              tag_66\n                /* \"#utility.yul\":2374:2380   */\n              dup2\n                /* \"#utility.yul\":2369:2372   */\n              dup6\n                /* \"#utility.yul\":2362:2366   */\n              0x20\n                /* \"#utility.yul\":2355:2360   */\n              dup7\n                /* \"#utility.yul\":2351:2367   */\n              add\n                /* \"#utility.yul\":2329:2381   */\n              tag_34\n              jump\t// in\n            tag_66:\n                /* \"#utility.yul\":2406:2435   */\n              tag_67\n                /* \"#utility.yul\":2428:2434   */\n              dup2\n                /* \"#utility.yul\":2406:2435   */\n              tag_35\n              jump\t// in\n            tag_67:\n                /* \"#utility.yul\":2401:2404   */\n              dup5\n                /* \"#utility.yul\":2397:2436   */\n              add\n                /* \"#utility.yul\":2390:2436   */\n              swap2\n              pop\n                /* \"#utility.yul\":2170:2442   */\n              pop\n                /* \"#utility.yul\":2078:2442   */\n              swap3\n              swap2\n              pop\n              pop\n              jump\t// out\n                /* \"#utility.yul\":2448:2761   */\n            tag_21:\n                /* \"#utility.yul\":2561:2565   */\n              0x00\n                /* \"#utility.yul\":2599:2601   */\n              0x20\n                /* \"#utility.yul\":2588:2597   */\n              dup3\n                /* \"#utility.yul\":2584:2602   */\n              add\n                /* \"#utility.yul\":2576:2602   */\n              swap1\n              pop\n                /* \"#utility.yul\":2648:2657   */\n              dup2\n                /* \"#utility.yul\":2642:2646   */\n              dup2\n                /* \"#utility.yul\":2638:2658   */\n              sub\n                /* \"#utility.yul\":2634:2635   */\n              0x00\n                /* \"#utility.yul\":2623:2632   */\n              dup4\n                /* \"#utility.yul\":2619:2636   */\n              add\n                /* \"#utility.yul\":2612:2659   */\n              mstore\n                /* \"#utility.yul\":2676:2754   */\n              tag_69\n                /* \"#utility.yul\":2749:2753   */\n              dup2\n                /* \"#utility.yul\":2740:2746   */\n              dup5\n                /* \"#utility.yul\":2676:2754   */\n              tag_36\n              jump\t// in\n            tag_69:\n                /* \"#utility.yul\":2668:2754   */\n              swap1\n              pop\n                /* \"#utility.yul\":2448:2761   */\n              swap3\n              swap2\n              pop\n              pop\n              jump\t// out\n\n            auxdata: 0xa26469706673582212209de664ea3d31ca68adcd45bd34c853fcfe3de771bfd90b24aebc73446011e11e64736f6c634300080f0033\n        }\n    }\n\n    auxdata: 0xa2646970667358221220a63c160f0eabac5796abc807859200e5502d71b10ddb5f01e192a1ffa156d2c164736f6c634300080f0033\n}\n",
				"bytecode": {
					"linkReferences": {},
					"object": "608060405234801561001057600080fd5b5061086b806100206000396000f3fe60806040526004361061003f5760003560e01c806312065fe01461004457806375d0c0dc1461006f57806393d4e9a21461009a578063d01bb4d5146100b6575b600080fd5b34801561005057600080fd5b506100596100e1565b604051610066919061029d565b60405180910390f35b34801561007b57600080fd5b506100846100e9565b6040516100919190610351565b60405180910390f35b6100b460048036038101906100af91906103a4565b610177565b005b3480156100c257600080fd5b506100cb610251565b6040516100d89190610412565b60405180910390f35b600047905090565b600280546100f69061045c565b80601f01602080910402602001604051908101604052809291908181526020018280546101229061045c565b801561016f5780601f106101445761010080835404028352916020019161016f565b820191906000526020600020905b81548152906001019060200180831161015257829003601f168201915b505050505081565b80600560405161018690610277565b61019091906104d2565b6040518091039082f09050801580156101ad573d6000803e3d6000fd5b506000806101000a81548173ffffffffffffffffffffffffffffffffffffffff021916908373ffffffffffffffffffffffffffffffffffffffff16021790555060008054906101000a900473ffffffffffffffffffffffffffffffffffffffff16600160006101000a81548173ffffffffffffffffffffffffffffffffffffffff021916908373ffffffffffffffffffffffffffffffffffffffff16021790555050565b600160009054906101000a900473ffffffffffffffffffffffffffffffffffffffff1681565b610348806104ee83390190565b6000819050919050565b61029781610284565b82525050565b60006020820190506102b2600083018461028e565b92915050565b600081519050919050565b600082825260208201905092915050565b60005b838110156102f25780820151818401526020810190506102d7565b83811115610301576000848401525b50505050565b6000601f19601f8301169050919050565b6000610323826102b8565b61032d81856102c3565b935061033d8185602086016102d4565b61034681610307565b840191505092915050565b6000602082019050818103600083015261036b8184610318565b905092915050565b600080fd5b61038181610284565b811461038c57600080fd5b50565b60008135905061039e81610378565b92915050565b6000602082840312156103ba576103b9610373565b5b60006103c88482850161038f565b91505092915050565b600073ffffffffffffffffffffffffffffffffffffffff82169050919050565b60006103fc826103d1565b9050919050565b61040c816103f1565b82525050565b60006020820190506104276000830184610403565b92915050565b7f4e487b7100000000000000000000000000000000000000000000000000000000600052602260045260246000fd5b6000600282049050600182168061047457607f821691505b6020821081036104875761048661042d565b5b50919050565b6000819050919050565b6000819050919050565b60006104bc6104b76104b28461048d565b610497565b610284565b9050919050565b6104cc816104a1565b82525050565b60006020820190506104e760008301846104c3565b9291505056fe60806040526040516103483803806103488339818101604052810190610025919061006d565b806000819055505061009a565b600080fd5b6000819050919050565b61004a81610037565b811461005557600080fd5b50565b60008151905061006781610041565b92915050565b60006020828403121561008357610082610032565b5b600061009184828501610058565b91505092915050565b61029f806100a96000396000f3fe608060405234801561001057600080fd5b506004361061004c5760003560e01c80630dbe671f1461005157806312065fe01461006f578063ee919d501461008d578063f5f5ba72146100a9575b600080fd5b6100596100c7565b6040516100669190610135565b60405180910390f35b6100776100cd565b6040516100849190610135565b60405180910390f35b6100a760048036038101906100a29190610181565b6100d5565b005b6100b16100df565b6040516100be9190610247565b60405180910390f35b60005481565b600047905090565b8060008190555050565b60606040518060400160405280600c81526020017f74657374436f6e74726163740000000000000000000000000000000000000000815250905090565b6000819050919050565b61012f8161011c565b82525050565b600060208201905061014a6000830184610126565b92915050565b600080fd5b61015e8161011c565b811461016957600080fd5b50565b60008135905061017b81610155565b92915050565b60006020828403121561019757610196610150565b5b60006101a58482850161016c565b91505092915050565b600081519050919050565b600082825260208201905092915050565b60005b838110156101e85780820151818401526020810190506101cd565b838111156101f7576000848401525b50505050565b6000601f19601f8301169050919050565b6000610219826101ae565b61022381856101b9565b93506102338185602086016101ca565b61023c816101fd565b840191505092915050565b60006020820190508181036000830152610261818461020e565b90509291505056fea26469706673582212209de664ea3d31ca68adcd45bd34c853fcfe3de771bfd90b24aebc73446011e11e64736f6c634300080f0033a2646970667358221220a63c160f0eabac5796abc807859200e5502d71b10ddb5f01e192a1ffa156d2c164736f6c634300080f0033",
					"opcodes": "PUSH1 0x80 PUSH1 0x40 MSTORE CALLVALUE DUP1 ISZERO PUSH2 0x10 JUMPI PUSH1 0x0 DUP1 REVERT JUMPDEST POP PUSH2 0x86B DUP1 PUSH2 0x20 PUSH1 0x0 CODECOPY PUSH1 0x0 RETURN INVALID PUSH1 0x80 PUSH1 0x40 MSTORE PUSH1 0x4 CALLDATASIZE LT PUSH2 0x3F JUMPI PUSH1 0x0 CALLDATALOAD PUSH1 0xE0 SHR DUP1 PUSH4 0x12065FE0 EQ PUSH2 0x44 JUMPI DUP1 PUSH4 0x75D0C0DC EQ PUSH2 0x6F JUMPI DUP1 PUSH4 0x93D4E9A2 EQ PUSH2 0x9A JUMPI DUP1 PUSH4 0xD01BB4D5 EQ PUSH2 0xB6 JUMPI JUMPDEST PUSH1 0x0 DUP1 REVERT JUMPDEST CALLVALUE DUP1 ISZERO PUSH2 0x50 JUMPI PUSH1 0x0 DUP1 REVERT JUMPDEST POP PUSH2 0x59 PUSH2 0xE1 JUMP JUMPDEST PUSH1 0x40 MLOAD PUSH2 0x66 SWAP2 SWAP1 PUSH2 0x29D JUMP JUMPDEST PUSH1 0x40 MLOAD DUP1 SWAP2 SUB SWAP1 RETURN JUMPDEST CALLVALUE DUP1 ISZERO PUSH2 0x7B JUMPI PUSH1 0x0 DUP1 REVERT JUMPDEST POP PUSH2 0x84 PUSH2 0xE9 JUMP JUMPDEST PUSH1 0x40 MLOAD PUSH2 0x91 SWAP2 SWAP1 PUSH2 0x351 JUMP JUMPDEST PUSH1 0x40 MLOAD DUP1 SWAP2 SUB SWAP1 RETURN JUMPDEST PUSH2 0xB4 PUSH1 0x4 DUP1 CALLDATASIZE SUB DUP2 ADD SWAP1 PUSH2 0xAF SWAP2 SWAP1 PUSH2 0x3A4 JUMP JUMPDEST PUSH2 0x177 JUMP JUMPDEST STOP JUMPDEST CALLVALUE DUP1 ISZERO PUSH2 0xC2 JUMPI PUSH1 0x0 DUP1 REVERT JUMPDEST POP PUSH2 0xCB PUSH2 0x251 JUMP JUMPDEST PUSH1 0x40 MLOAD PUSH2 0xD8 SWAP2 SWAP1 PUSH2 0x412 JUMP JUMPDEST PUSH1 0x40 MLOAD DUP1 SWAP2 SUB SWAP1 RETURN JUMPDEST PUSH1 0x0 SELFBALANCE SWAP1 POP SWAP1 JUMP JUMPDEST PUSH1 0x2 DUP1 SLOAD PUSH2 0xF6 SWAP1 PUSH2 0x45C JUMP JUMPDEST DUP1 PUSH1 0x1F ADD PUSH1 0x20 DUP1 SWAP2 DIV MUL PUSH1 0x20 ADD PUSH1 0x40 MLOAD SWAP1 DUP2 ADD PUSH1 0x40 MSTORE DUP1 SWAP3 SWAP2 SWAP1 DUP2 DUP2 MSTORE PUSH1 0x20 ADD DUP3 DUP1 SLOAD PUSH2 0x122 SWAP1 PUSH2 0x45C JUMP JUMPDEST DUP1 ISZERO PUSH2 0x16F JUMPI DUP1 PUSH1 0x1F LT PUSH2 0x144 JUMPI PUSH2 0x100 DUP1 DUP4 SLOAD DIV MUL DUP4 MSTORE SWAP2 PUSH1 0x20 ADD SWAP2 PUSH2 0x16F JUMP JUMPDEST DUP3 ADD SWAP2 SWAP1 PUSH1 0x0 MSTORE PUSH1 0x20 PUSH1 0x0 KECCAK256 SWAP1 JUMPDEST DUP2 SLOAD DUP2 MSTORE SWAP1 PUSH1 0x1 ADD SWAP1 PUSH1 0x20 ADD DUP1 DUP4 GT PUSH2 0x152 JUMPI DUP3 SWAP1 SUB PUSH1 0x1F AND DUP3 ADD SWAP2 JUMPDEST POP POP POP POP POP DUP2 JUMP JUMPDEST DUP1 PUSH1 0x5 PUSH1 0x40 MLOAD PUSH2 0x186 SWAP1 PUSH2 0x277 JUMP JUMPDEST PUSH2 0x190 SWAP2 SWAP1 PUSH2 0x4D2 JUMP JUMPDEST PUSH1 0x40 MLOAD DUP1 SWAP2 SUB SWAP1 DUP3 CREATE SWAP1 POP DUP1 ISZERO DUP1 ISZERO PUSH2 0x1AD JUMPI RETURNDATASIZE PUSH1 0x0 DUP1 RETURNDATACOPY RETURNDATASIZE PUSH1 0x0 REVERT JUMPDEST POP PUSH1 0x0 DUP1 PUSH2 0x100 EXP DUP2 SLOAD DUP2 PUSH20 0xFFFFFFFFFFFFFFFFFFFFFFFFFFFFFFFFFFFFFFFF MUL NOT AND SWAP1 DUP4 PUSH20 0xFFFFFFFFFFFFFFFFFFFFFFFFFFFFFFFFFFFFFFFF AND MUL OR SWAP1 SSTORE POP PUSH1 0x0 DUP1 SLOAD SWAP1 PUSH2 0x100 EXP SWAP1 DIV PUSH20 0xFFFFFFFFFFFFFFFFFFFFFFFFFFFFFFFFFFFFFFFF AND PUSH1 0x1 PUSH1 0x0 PUSH2 0x100 EXP DUP2 SLOAD DUP2 PUSH20 0xFFFFFFFFFFFFFFFFFFFFFFFFFFFFFFFFFFFFFFFF MUL NOT AND SWAP1 DUP4 PUSH20 0xFFFFFFFFFFFFFFFFFFFFFFFFFFFFFFFFFFFFFFFF AND MUL OR SWAP1 SSTORE POP POP JUMP JUMPDEST PUSH1 0x1 PUSH1 0x0 SWAP1 SLOAD SWAP1 PUSH2 0x100 EXP SWAP1 DIV PUSH20 0xFFFFFFFFFFFFFFFFFFFFFFFFFFFFFFFFFFFFFFFF AND DUP2 JUMP JUMPDEST PUSH2 0x348 DUP1 PUSH2 0x4EE DUP4 CODECOPY ADD SWAP1 JUMP JUMPDEST PUSH1 0x0 DUP2 SWAP1 POP SWAP2 SWAP1 POP JUMP JUMPDEST PUSH2 0x297 DUP2 PUSH2 0x284 JUMP JUMPDEST DUP3 MSTORE POP POP JUMP JUMPDEST PUSH1 0x0 PUSH1 0x20 DUP3 ADD SWAP1 POP PUSH2 0x2B2 PUSH1 0x0 DUP4 ADD DUP5 PUSH2 0x28E JUMP JUMPDEST SWAP3 SWAP2 POP POP JUMP JUMPDEST PUSH1 0x0 DUP2 MLOAD SWAP1 POP SWAP2 SWAP1 POP JUMP JUMPDEST PUSH1 0x0 DUP3 DUP3 MSTORE PUSH1 0x20 DUP3 ADD SWAP1 POP SWAP3 SWAP2 POP POP JUMP JUMPDEST PUSH1 0x0 JUMPDEST DUP4 DUP2 LT ISZERO PUSH2 0x2F2 JUMPI DUP1 DUP3 ADD MLOAD DUP2 DUP5 ADD MSTORE PUSH1 0x20 DUP2 ADD SWAP1 POP PUSH2 0x2D7 JUMP JUMPDEST DUP4 DUP2 GT ISZERO PUSH2 0x301 JUMPI PUSH1 0x0 DUP5 DUP5 ADD MSTORE JUMPDEST POP POP POP POP JUMP JUMPDEST PUSH1 0x0 PUSH1 0x1F NOT PUSH1 0x1F DUP4 ADD AND SWAP1 POP SWAP2 SWAP1 POP JUMP JUMPDEST PUSH1 0x0 PUSH2 0x323 DUP3 PUSH2 0x2B8 JUMP JUMPDEST PUSH2 0x32D DUP2 DUP6 PUSH2 0x2C3 JUMP JUMPDEST SWAP4 POP PUSH2 0x33D DUP2 DUP6 PUSH1 0x20 DUP7 ADD PUSH2 0x2D4 JUMP JUMPDEST PUSH2 0x346 DUP2 PUSH2 0x307 JUMP JUMPDEST DUP5 ADD SWAP2 POP POP SWAP3 SWAP2 POP POP JUMP JUMPDEST PUSH1 0x0 PUSH1 0x20 DUP3 ADD SWAP1 POP DUP2 DUP2 SUB PUSH1 0x0 DUP4 ADD MSTORE PUSH2 0x36B DUP2 DUP5 PUSH2 0x318 JUMP JUMPDEST SWAP1 POP SWAP3 SWAP2 POP POP JUMP JUMPDEST PUSH1 0x0 DUP1 REVERT JUMPDEST PUSH2 0x381 DUP2 PUSH2 0x284 JUMP JUMPDEST DUP2 EQ PUSH2 0x38C JUMPI PUSH1 0x0 DUP1 REVERT JUMPDEST POP JUMP JUMPDEST PUSH1 0x0 DUP2 CALLDATALOAD SWAP1 POP PUSH2 0x39E DUP2 PUSH2 0x378 JUMP JUMPDEST SWAP3 SWAP2 POP POP JUMP JUMPDEST PUSH1 0x0 PUSH1 0x20 DUP3 DUP5 SUB SLT ISZERO PUSH2 0x3BA JUMPI PUSH2 0x3B9 PUSH2 0x373 JUMP JUMPDEST JUMPDEST PUSH1 0x0 PUSH2 0x3C8 DUP5 DUP3 DUP6 ADD PUSH2 0x38F JUMP JUMPDEST SWAP2 POP POP SWAP3 SWAP2 POP POP JUMP JUMPDEST PUSH1 0x0 PUSH20 0xFFFFFFFFFFFFFFFFFFFFFFFFFFFFFFFFFFFFFFFF DUP3 AND SWAP1 POP SWAP2 SWAP1 POP JUMP JUMPDEST PUSH1 0x0 PUSH2 0x3FC DUP3 PUSH2 0x3D1 JUMP JUMPDEST SWAP1 POP SWAP2 SWAP1 POP JUMP JUMPDEST PUSH2 0x40C DUP2 PUSH2 0x3F1 JUMP JUMPDEST DUP3 MSTORE POP POP JUMP JUMPDEST PUSH1 0x0 PUSH1 0x20 DUP3 ADD SWAP1 POP PUSH2 0x427 PUSH1 0x0 DUP4 ADD DUP5 PUSH2 0x403 JUMP JUMPDEST SWAP3 SWAP2 POP POP JUMP JUMPDEST PUSH32 0x4E487B7100000000000000000000000000000000000000000000000000000000 PUSH1 0x0 MSTORE PUSH1 0x22 PUSH1 0x4 MSTORE PUSH1 0x24 PUSH1 0x0 REVERT JUMPDEST PUSH1 0x0 PUSH1 0x2 DUP3 DIV SWAP1 POP PUSH1 0x1 DUP3 AND DUP1 PUSH2 0x474 JUMPI PUSH1 0x7F DUP3 AND SWAP2 POP JUMPDEST PUSH1 0x20 DUP3 LT DUP2 SUB PUSH2 0x487 JUMPI PUSH2 0x486 PUSH2 0x42D JUMP JUMPDEST JUMPDEST POP SWAP2 SWAP1 POP JUMP JUMPDEST PUSH1 0x0 DUP2 SWAP1 POP SWAP2 SWAP1 POP JUMP JUMPDEST PUSH1 0x0 DUP2 SWAP1 POP SWAP2 SWAP1 POP JUMP JUMPDEST PUSH1 0x0 PUSH2 0x4BC PUSH2 0x4B7 PUSH2 0x4B2 DUP5 PUSH2 0x48D JUMP JUMPDEST PUSH2 0x497 JUMP JUMPDEST PUSH2 0x284 JUMP JUMPDEST SWAP1 POP SWAP2 SWAP1 POP JUMP JUMPDEST PUSH2 0x4CC DUP2 PUSH2 0x4A1 JUMP JUMPDEST DUP3 MSTORE POP POP JUMP JUMPDEST PUSH1 0x0 PUSH1 0x20 DUP3 ADD SWAP1 POP PUSH2 0x4E7 PUSH1 0x0 DUP4 ADD DUP5 PUSH2 0x4C3 JUMP JUMPDEST SWAP3 SWAP2 POP POP JUMP INVALID PUSH1 0x80 PUSH1 0x40 MSTORE PUSH1 0x40 MLOAD PUSH2 0x348 CODESIZE SUB DUP1 PUSH2 0x348 DUP4 CODECOPY DUP2 DUP2 ADD PUSH1 0x40 MSTORE DUP2 ADD SWAP1 PUSH2 0x25 SWAP2 SWAP1 PUSH2 0x6D JUMP JUMPDEST DUP1 PUSH1 0x0 DUP2 SWAP1 SSTORE POP POP PUSH2 0x9A JUMP JUMPDEST PUSH1 0x0 DUP1 REVERT JUMPDEST PUSH1 0x0 DUP2 SWAP1 POP SWAP2 SWAP1 POP JUMP JUMPDEST PUSH2 0x4A DUP2 PUSH2 0x37 JUMP JUMPDEST DUP2 EQ PUSH2 0x55 JUMPI PUSH1 0x0 DUP1 REVERT JUMPDEST POP JUMP JUMPDEST PUSH1 0x0 DUP2 MLOAD SWAP1 POP PUSH2 0x67 DUP2 PUSH2 0x41 JUMP JUMPDEST SWAP3 SWAP2 POP POP JUMP JUMPDEST PUSH1 0x0 PUSH1 0x20 DUP3 DUP5 SUB SLT ISZERO PUSH2 0x83 JUMPI PUSH2 0x82 PUSH2 0x32 JUMP JUMPDEST JUMPDEST PUSH1 0x0 PUSH2 0x91 DUP5 DUP3 DUP6 ADD PUSH2 0x58 JUMP JUMPDEST SWAP2 POP POP SWAP3 SWAP2 POP POP JUMP JUMPDEST PUSH2 0x29F DUP1 PUSH2 0xA9 PUSH1 0x0 CODECOPY PUSH1 0x0 RETURN INVALID PUSH1 0x80 PUSH1 0x40 MSTORE CALLVALUE DUP1 ISZERO PUSH2 0x10 JUMPI PUSH1 0x0 DUP1 REVERT JUMPDEST POP PUSH1 0x4 CALLDATASIZE LT PUSH2 0x4C JUMPI PUSH1 0x0 CALLDATALOAD PUSH1 0xE0 SHR DUP1 PUSH4 0xDBE671F EQ PUSH2 0x51 JUMPI DUP1 PUSH4 0x12065FE0 EQ PUSH2 0x6F JUMPI DUP1 PUSH4 0xEE919D50 EQ PUSH2 0x8D JUMPI DUP1 PUSH4 0xF5F5BA72 EQ PUSH2 0xA9 JUMPI JUMPDEST PUSH1 0x0 DUP1 REVERT JUMPDEST PUSH2 0x59 PUSH2 0xC7 JUMP JUMPDEST PUSH1 0x40 MLOAD PUSH2 0x66 SWAP2 SWAP1 PUSH2 0x135 JUMP JUMPDEST PUSH1 0x40 MLOAD DUP1 SWAP2 SUB SWAP1 RETURN JUMPDEST PUSH2 0x77 PUSH2 0xCD JUMP JUMPDEST PUSH1 0x40 MLOAD PUSH2 0x84 SWAP2 SWAP1 PUSH2 0x135 JUMP JUMPDEST PUSH1 0x40 MLOAD DUP1 SWAP2 SUB SWAP1 RETURN JUMPDEST PUSH2 0xA7 PUSH1 0x4 DUP1 CALLDATASIZE SUB DUP2 ADD SWAP1 PUSH2 0xA2 SWAP2 SWAP1 PUSH2 0x181 JUMP JUMPDEST PUSH2 0xD5 JUMP JUMPDEST STOP JUMPDEST PUSH2 0xB1 PUSH2 0xDF JUMP JUMPDEST PUSH1 0x40 MLOAD PUSH2 0xBE SWAP2 SWAP1 PUSH2 0x247 JUMP JUMPDEST PUSH1 0x40 MLOAD DUP1 SWAP2 SUB SWAP1 RETURN JUMPDEST PUSH1 0x0 SLOAD DUP2 JUMP JUMPDEST PUSH1 0x0 SELFBALANCE SWAP1 POP SWAP1 JUMP JUMPDEST DUP1 PUSH1 0x0 DUP2 SWAP1 SSTORE POP POP JUMP JUMPDEST PUSH1 0x60 PUSH1 0x40 MLOAD DUP1 PUSH1 0x40 ADD PUSH1 0x40 MSTORE DUP1 PUSH1 0xC DUP2 MSTORE PUSH1 0x20 ADD PUSH32 0x74657374436F6E74726163740000000000000000000000000000000000000000 DUP2 MSTORE POP SWAP1 POP SWAP1 JUMP JUMPDEST PUSH1 0x0 DUP2 SWAP1 POP SWAP2 SWAP1 POP JUMP JUMPDEST PUSH2 0x12F DUP2 PUSH2 0x11C JUMP JUMPDEST DUP3 MSTORE POP POP JUMP JUMPDEST PUSH1 0x0 PUSH1 0x20 DUP3 ADD SWAP1 POP PUSH2 0x14A PUSH1 0x0 DUP4 ADD DUP5 PUSH2 0x126 JUMP JUMPDEST SWAP3 SWAP2 POP POP JUMP JUMPDEST PUSH1 0x0 DUP1 REVERT JUMPDEST PUSH2 0x15E DUP2 PUSH2 0x11C JUMP JUMPDEST DUP2 EQ PUSH2 0x169 JUMPI PUSH1 0x0 DUP1 REVERT JUMPDEST POP JUMP JUMPDEST PUSH1 0x0 DUP2 CALLDATALOAD SWAP1 POP PUSH2 0x17B DUP2 PUSH2 0x155 JUMP JUMPDEST SWAP3 SWAP2 POP POP JUMP JUMPDEST PUSH1 0x0 PUSH1 0x20 DUP3 DUP5 SUB SLT ISZERO PUSH2 0x197 JUMPI PUSH2 0x196 PUSH2 0x150 JUMP JUMPDEST JUMPDEST PUSH1 0x0 PUSH2 0x1A5 DUP5 DUP3 DUP6 ADD PUSH2 0x16C JUMP JUMPDEST SWAP2 POP POP SWAP3 SWAP2 POP POP JUMP JUMPDEST PUSH1 0x0 DUP2 MLOAD SWAP1 POP SWAP2 SWAP1 POP JUMP JUMPDEST PUSH1 0x0 DUP3 DUP3 MSTORE PUSH1 0x20 DUP3 ADD SWAP1 POP SWAP3 SWAP2 POP POP JUMP JUMPDEST PUSH1 0x0 JUMPDEST DUP4 DUP2 LT ISZERO PUSH2 0x1E8 JUMPI DUP1 DUP3 ADD MLOAD DUP2 DUP5 ADD MSTORE PUSH1 0x20 DUP2 ADD SWAP1 POP PUSH2 0x1CD JUMP JUMPDEST DUP4 DUP2 GT ISZERO PUSH2 0x1F7 JUMPI PUSH1 0x0 DUP5 DUP5 ADD MSTORE JUMPDEST POP POP POP POP JUMP JUMPDEST PUSH1 0x0 PUSH1 0x1F NOT PUSH1 0x1F DUP4 ADD AND SWAP1 POP SWAP2 SWAP1 POP JUMP JUMPDEST PUSH1 0x0 PUSH2 0x219 DUP3 PUSH2 0x1AE JUMP JUMPDEST PUSH2 0x223 DUP2 DUP6 PUSH2 0x1B9 JUMP JUMPDEST SWAP4 POP PUSH2 0x233 DUP2 DUP6 PUSH1 0x20 DUP7 ADD PUSH2 0x1CA JUMP JUMPDEST PUSH2 0x23C DUP2 PUSH2 0x1FD JUMP JUMPDEST DUP5 ADD SWAP2 POP POP SWAP3 SWAP2 POP POP JUMP JUMPDEST PUSH1 0x0 PUSH1 0x20 DUP3 ADD SWAP1 POP DUP2 DUP2 SUB PUSH1 0x0 DUP4 ADD MSTORE PUSH2 0x261 DUP2 DUP5 PUSH2 0x20E JUMP JUMPDEST SWAP1 POP SWAP3 SWAP2 POP POP JUMP INVALID LOG2 PUSH5 0x6970667358 0x22 SLT KECCAK256 SWAP14 0xE6 PUSH5 0xEA3D31CA68 0xAD 0xCD GASLIMIT 0xBD CALLVALUE 0xC8 MSTORE8 0xFC INVALID RETURNDATASIZE 0xE7 PUSH18 0xBFD90B24AEBC73446011E11E64736F6C6343 STOP ADDMOD 0xF STOP CALLER LOG2 PUSH5 0x6970667358 0x22 SLT KECCAK256 0xA6 EXTCODECOPY AND 0xF 0xE 0xAB 0xAC JUMPI SWAP7 0xAB 0xC8 SMOD DUP6 SWAP3 STOP 0xE5 POP 0x2D PUSH18 0xB10DDB5F01E192A1FFA156D2C164736F6C63 NUMBER STOP ADDMOD 0xF STOP CALLER "
				},
				"gasEstimates": {
					"creation": {
						"codeDepositCost": "431000",
						"executionCost": "468",
						"totalCost": "431468"
					},
					"external": {
						"contractName()": "infinite",
						"contractaddr()": "2558",
						"createContractObj(uint256)": "infinite",
						"getBalance()": "317"
					}
				},
				"methodIdentifiers": {
					"contractName()": "75d0c0dc",
					"contractaddr()": "d01bb4d5",
					"createContractObj(uint256)": "93d4e9a2",
					"getBalance()": "12065fe0"
				}
			},
			"storageLayout": {
				"storage": [
					{
						"astId": 47,
						"contract": "study/chapter04/newContract.sol:callContract",
						"label": "t",
						"offset": 0,
						"slot": "0",
						"type": "t_contract(testContract)44"
					},
					{
						"astId": 49,
						"contract": "study/chapter04/newContract.sol:callContract",
						"label": "contractaddr",
						"offset": 0,
						"slot": "1",
						"type": "t_address"
					},
					{
						"astId": 51,
						"contract": "study/chapter04/newContract.sol:callContract",
						"label": "contractName",
						"offset": 0,
						"slot": "2",
						"type": "t_string_storage"
					}
				],
				"types": {
					"t_address": {
						"encoding": "inplace",
						"label": "address",
						"numberOfBytes": "20"
					},
					"t_contract(testContract)44": {
						"encoding": "inplace",
						"label": "contract testContract",
						"numberOfBytes": "20"
					},
					"t_string_storage": {
						"encoding": "bytes",
						"label": "string",
						"numberOfBytes": "32"
					}
				}
			},
			"userdoc": {
				"kind": "user",
				"methods": {},
				"version": 1
			}
		}
	}
}