{
	"study/chapter04/create2.sol": {
		"Car": {
			"abi": [
				{
					"inputs": [
						{
							"internalType": "address",
							"name": "_owner",
							"type": "address"
						},
						{
							"internalType": "string",
							"name": "_model",
							"type": "string"
						}
					],
					"stateMutability": "payable",
					"type": "constructor"
				},
				{
					"inputs": [],
					"name": "model",
					"outputs": [
						{
							"internalType": "string",
							"name": "",
							"type": "string"
						}
					],
					"stateMutability": "view",
					"type": "function"
				},
				{
					"inputs": [],
					"name": "owner",
					"outputs": [
						{
							"internalType": "address",
							"name": "",
							"type": "address"
						}
					],
					"stateMutability": "view",
					"type": "function"
				}
			],
			"devdoc": {
				"kind": "dev",
				"methods": {},
				"version": 1
			},
			"evm": {
				"assembly": "    /* \"study/chapter04/create2.sol\":53:238  contract Car {... */\n  mstore(0x40, 0x80)\n    /* \"study/chapter04/create2.sol\":123:236  constructor(address _owner, string memory _model) payable {... */\n  mload(0x40)\n  sub(codesize, bytecodeSize)\n  dup1\n  bytecodeSize\n  dup4\n  codecopy\n  dup2\n  dup2\n  add\n  0x40\n  mstore\n  dup2\n  add\n  swap1\n  tag_1\n  swap2\n  swap1\n  tag_2\n  jump\t// in\ntag_1:\n    /* \"study/chapter04/create2.sol\":199:205  _owner */\n  dup2\n    /* \"study/chapter04/create2.sol\":191:196  owner */\n  0x00\n  dup1\n    /* \"study/chapter04/create2.sol\":191:205  owner = _owner */\n  0x0100\n  exp\n  dup2\n  sload\n  dup2\n  0xffffffffffffffffffffffffffffffffffffffff\n  mul\n  not\n  and\n  swap1\n  dup4\n  0xffffffffffffffffffffffffffffffffffffffff\n  and\n  mul\n  or\n  swap1\n  sstore\n  pop\n    /* \"study/chapter04/create2.sol\":223:229  _model */\n  dup1\n    /* \"study/chapter04/create2.sol\":215:220  model */\n  0x01\n    /* \"study/chapter04/create2.sol\":215:229  model = _model */\n  swap1\n  dup1\n  mload\n  swap1\n  0x20\n  add\n  swap1\n  tag_5\n  swap3\n  swap2\n  swap1\n  tag_6\n  jump\t// in\ntag_5:\n  pop\n    /* \"study/chapter04/create2.sol\":123:236  constructor(address _owner, string memory _model) payable {... */\n  pop\n  pop\n    /* \"study/chapter04/create2.sol\":53:238  contract Car {... */\n  jump(tag_7)\ntag_6:\n  dup3\n  dup1\n  sload\n  tag_8\n  swap1\n  tag_9\n  jump\t// in\ntag_8:\n  swap1\n  0x00\n  mstore\n  keccak256(0x00, 0x20)\n  swap1\n  0x1f\n  add\n  0x20\n  swap1\n  div\n  dup2\n  add\n  swap3\n  dup3\n  tag_11\n  jumpi\n  0x00\n  dup6\n  sstore\n  jump(tag_10)\ntag_11:\n  dup3\n  0x1f\n  lt\n  tag_12\n  jumpi\n  dup1\n  mload\n  not(0xff)\n  and\n  dup4\n  dup1\n  add\n  or\n  dup6\n  sstore\n  jump(tag_10)\ntag_12:\n  dup3\n  dup1\n  add\n  0x01\n  add\n  dup6\n  sstore\n  dup3\n  iszero\n  tag_10\n  jumpi\n  swap2\n  dup3\n  add\ntag_13:\n  dup3\n  dup2\n  gt\n  iszero\n  tag_14\n  jumpi\n  dup3\n  mload\n  dup3\n  sstore\n  swap2\n  0x20\n  add\n  swap2\n  swap1\n  0x01\n  add\n  swap1\n  jump(tag_13)\ntag_14:\ntag_10:\n  pop\n  swap1\n  pop\n  tag_15\n  swap2\n  swap1\n  tag_16\n  jump\t// in\ntag_15:\n  pop\n  swap1\n  jump\t// out\ntag_16:\ntag_17:\n  dup1\n  dup3\n  gt\n  iszero\n  tag_18\n  jumpi\n  0x00\n  dup2\n  0x00\n  swap1\n  sstore\n  pop\n  0x01\n  add\n  jump(tag_17)\ntag_18:\n  pop\n  swap1\n  jump\t// out\n    /* \"#utility.yul\":7:428   */\ntag_20:\n    /* \"#utility.yul\":96:101   */\n  0x00\n    /* \"#utility.yul\":121:187   */\n  tag_22\n    /* \"#utility.yul\":137:186   */\n  tag_23\n    /* \"#utility.yul\":179:185   */\n  dup5\n    /* \"#utility.yul\":137:186   */\n  tag_24\n  jump\t// in\ntag_23:\n    /* \"#utility.yul\":121:187   */\n  tag_25\n  jump\t// in\ntag_22:\n    /* \"#utility.yul\":112:187   */\n  swap1\n  pop\n    /* \"#utility.yul\":210:216   */\n  dup3\n    /* \"#utility.yul\":203:208   */\n  dup2\n    /* \"#utility.yul\":196:217   */\n  mstore\n    /* \"#utility.yul\":248:252   */\n  0x20\n    /* \"#utility.yul\":241:246   */\n  dup2\n    /* \"#utility.yul\":237:253   */\n  add\n    /* \"#utility.yul\":286:289   */\n  dup5\n    /* \"#utility.yul\":277:283   */\n  dup5\n    /* \"#utility.yul\":272:275   */\n  dup5\n    /* \"#utility.yul\":268:284   */\n  add\n    /* \"#utility.yul\":265:290   */\n  gt\n    /* \"#utility.yul\":262:374   */\n  iszero\n  tag_26\n  jumpi\n    /* \"#utility.yul\":293:372   */\n  tag_27\n  tag_28\n  jump\t// in\ntag_27:\n    /* \"#utility.yul\":262:374   */\ntag_26:\n    /* \"#utility.yul\":383:422   */\n  tag_29\n    /* \"#utility.yul\":415:421   */\n  dup5\n    /* \"#utility.yul\":410:413   */\n  dup3\n    /* \"#utility.yul\":405:408   */\n  dup6\n    /* \"#utility.yul\":383:422   */\n  tag_30\n  jump\t// in\ntag_29:\n    /* \"#utility.yul\":102:428   */\n  pop\n    /* \"#utility.yul\":7:428   */\n  swap4\n  swap3\n  pop\n  pop\n  pop\n  jump\t// out\n    /* \"#utility.yul\":434:577   */\ntag_31:\n    /* \"#utility.yul\":491:496   */\n  0x00\n    /* \"#utility.yul\":522:528   */\n  dup2\n    /* \"#utility.yul\":516:529   */\n  mload\n    /* \"#utility.yul\":507:529   */\n  swap1\n  pop\n    /* \"#utility.yul\":538:571   */\n  tag_33\n    /* \"#utility.yul\":565:570   */\n  dup2\n    /* \"#utility.yul\":538:571   */\n  tag_34\n  jump\t// in\ntag_33:\n    /* \"#utility.yul\":434:577   */\n  swap3\n  swap2\n  pop\n  pop\n  jump\t// out\n    /* \"#utility.yul\":597:952   */\ntag_35:\n    /* \"#utility.yul\":664:669   */\n  0x00\n    /* \"#utility.yul\":713:716   */\n  dup3\n    /* \"#utility.yul\":706:710   */\n  0x1f\n    /* \"#utility.yul\":698:704   */\n  dup4\n    /* \"#utility.yul\":694:711   */\n  add\n    /* \"#utility.yul\":690:717   */\n  slt\n    /* \"#utility.yul\":680:802   */\n  tag_37\n  jumpi\n    /* \"#utility.yul\":721:800   */\n  tag_38\n  tag_39\n  jump\t// in\ntag_38:\n    /* \"#utility.yul\":680:802   */\ntag_37:\n    /* \"#utility.yul\":831:837   */\n  dup2\n    /* \"#utility.yul\":825:838   */\n  mload\n    /* \"#utility.yul\":856:946   */\n  tag_40\n    /* \"#utility.yul\":942:945   */\n  dup5\n    /* \"#utility.yul\":934:940   */\n  dup3\n    /* \"#utility.yul\":927:931   */\n  0x20\n    /* \"#utility.yul\":919:925   */\n  dup7\n    /* \"#utility.yul\":915:932   */\n  add\n    /* \"#utility.yul\":856:946   */\n  tag_20\n  jump\t// in\ntag_40:\n    /* \"#utility.yul\":847:946   */\n  swap2\n  pop\n    /* \"#utility.yul\":670:952   */\n  pop\n    /* \"#utility.yul\":597:952   */\n  swap3\n  swap2\n  pop\n  pop\n  jump\t// out\n    /* \"#utility.yul\":958:1638   */\ntag_2:\n    /* \"#utility.yul\":1047:1053   */\n  0x00\n    /* \"#utility.yul\":1055:1061   */\n  dup1\n    /* \"#utility.yul\":1104:1106   */\n  0x40\n    /* \"#utility.yul\":1092:1101   */\n  dup4\n    /* \"#utility.yul\":1083:1090   */\n  dup6\n    /* \"#utility.yul\":1079:1102   */\n  sub\n    /* \"#utility.yul\":1075:1107   */\n  slt\n    /* \"#utility.yul\":1072:1191   */\n  iszero\n  tag_42\n  jumpi\n    /* \"#utility.yul\":1110:1189   */\n  tag_43\n  tag_44\n  jump\t// in\ntag_43:\n    /* \"#utility.yul\":1072:1191   */\ntag_42:\n    /* \"#utility.yul\":1230:1231   */\n  0x00\n    /* \"#utility.yul\":1255:1319   */\n  tag_45\n    /* \"#utility.yul\":1311:1318   */\n  dup6\n    /* \"#utility.yul\":1302:1308   */\n  dup3\n    /* \"#utility.yul\":1291:1300   */\n  dup7\n    /* \"#utility.yul\":1287:1309   */\n  add\n    /* \"#utility.yul\":1255:1319   */\n  tag_31\n  jump\t// in\ntag_45:\n    /* \"#utility.yul\":1245:1319   */\n  swap3\n  pop\n    /* \"#utility.yul\":1201:1329   */\n  pop\n    /* \"#utility.yul\":1389:1391   */\n  0x20\n    /* \"#utility.yul\":1378:1387   */\n  dup4\n    /* \"#utility.yul\":1374:1392   */\n  add\n    /* \"#utility.yul\":1368:1393   */\n  mload\n    /* \"#utility.yul\":1420:1438   */\n  0xffffffffffffffff\n    /* \"#utility.yul\":1412:1418   */\n  dup2\n    /* \"#utility.yul\":1409:1439   */\n  gt\n    /* \"#utility.yul\":1406:1523   */\n  iszero\n  tag_46\n  jumpi\n    /* \"#utility.yul\":1442:1521   */\n  tag_47\n  tag_48\n  jump\t// in\ntag_47:\n    /* \"#utility.yul\":1406:1523   */\ntag_46:\n    /* \"#utility.yul\":1547:1621   */\n  tag_49\n    /* \"#utility.yul\":1613:1620   */\n  dup6\n    /* \"#utility.yul\":1604:1610   */\n  dup3\n    /* \"#utility.yul\":1593:1602   */\n  dup7\n    /* \"#utility.yul\":1589:1611   */\n  add\n    /* \"#utility.yul\":1547:1621   */\n  tag_35\n  jump\t// in\ntag_49:\n    /* \"#utility.yul\":1537:1621   */\n  swap2\n  pop\n    /* \"#utility.yul\":1339:1631   */\n  pop\n    /* \"#utility.yul\":958:1638   */\n  swap3\n  pop\n  swap3\n  swap1\n  pop\n  jump\t// out\n    /* \"#utility.yul\":1644:1773   */\ntag_25:\n    /* \"#utility.yul\":1678:1684   */\n  0x00\n    /* \"#utility.yul\":1705:1725   */\n  tag_51\n  tag_52\n  jump\t// in\ntag_51:\n    /* \"#utility.yul\":1695:1725   */\n  swap1\n  pop\n    /* \"#utility.yul\":1734:1767   */\n  tag_53\n    /* \"#utility.yul\":1762:1766   */\n  dup3\n    /* \"#utility.yul\":1754:1760   */\n  dup3\n    /* \"#utility.yul\":1734:1767   */\n  tag_54\n  jump\t// in\ntag_53:\n    /* \"#utility.yul\":1644:1773   */\n  swap2\n  swap1\n  pop\n  jump\t// out\n    /* \"#utility.yul\":1779:1854   */\ntag_52:\n    /* \"#utility.yul\":1812:1818   */\n  0x00\n    /* \"#utility.yul\":1845:1847   */\n  0x40\n    /* \"#utility.yul\":1839:1848   */\n  mload\n    /* \"#utility.yul\":1829:1848   */\n  swap1\n  pop\n    /* \"#utility.yul\":1779:1854   */\n  swap1\n  jump\t// out\n    /* \"#utility.yul\":1860:2168   */\ntag_24:\n    /* \"#utility.yul\":1922:1926   */\n  0x00\n    /* \"#utility.yul\":2012:2030   */\n  0xffffffffffffffff\n    /* \"#utility.yul\":2004:2010   */\n  dup3\n    /* \"#utility.yul\":2001:2031   */\n  gt\n    /* \"#utility.yul\":1998:2054   */\n  iszero\n  tag_57\n  jumpi\n    /* \"#utility.yul\":2034:2052   */\n  tag_58\n  tag_59\n  jump\t// in\ntag_58:\n    /* \"#utility.yul\":1998:2054   */\ntag_57:\n    /* \"#utility.yul\":2072:2101   */\n  tag_60\n    /* \"#utility.yul\":2094:2100   */\n  dup3\n    /* \"#utility.yul\":2072:2101   */\n  tag_61\n  jump\t// in\ntag_60:\n    /* \"#utility.yul\":2064:2101   */\n  swap1\n  pop\n    /* \"#utility.yul\":2156:2160   */\n  0x20\n    /* \"#utility.yul\":2150:2154   */\n  dup2\n    /* \"#utility.yul\":2146:2161   */\n  add\n    /* \"#utility.yul\":2138:2161   */\n  swap1\n  pop\n    /* \"#utility.yul\":1860:2168   */\n  swap2\n  swap1\n  pop\n  jump\t// out\n    /* \"#utility.yul\":2174:2270   */\ntag_62:\n    /* \"#utility.yul\":2211:2218   */\n  0x00\n    /* \"#utility.yul\":2240:2264   */\n  tag_64\n    /* \"#utility.yul\":2258:2263   */\n  dup3\n    /* \"#utility.yul\":2240:2264   */\n  tag_65\n  jump\t// in\ntag_64:\n    /* \"#utility.yul\":2229:2264   */\n  swap1\n  pop\n    /* \"#utility.yul\":2174:2270   */\n  swap2\n  swap1\n  pop\n  jump\t// out\n    /* \"#utility.yul\":2276:2402   */\ntag_65:\n    /* \"#utility.yul\":2313:2320   */\n  0x00\n    /* \"#utility.yul\":2353:2395   */\n  0xffffffffffffffffffffffffffffffffffffffff\n    /* \"#utility.yul\":2346:2351   */\n  dup3\n    /* \"#utility.yul\":2342:2396   */\n  and\n    /* \"#utility.yul\":2331:2396   */\n  swap1\n  pop\n    /* \"#utility.yul\":2276:2402   */\n  swap2\n  swap1\n  pop\n  jump\t// out\n    /* \"#utility.yul\":2408:2715   */\ntag_30:\n    /* \"#utility.yul\":2476:2477   */\n  0x00\n    /* \"#utility.yul\":2486:2599   */\ntag_68:\n    /* \"#utility.yul\":2500:2506   */\n  dup4\n    /* \"#utility.yul\":2497:2498   */\n  dup2\n    /* \"#utility.yul\":2494:2507   */\n  lt\n    /* \"#utility.yul\":2486:2599   */\n  iszero\n  tag_70\n  jumpi\n    /* \"#utility.yul\":2585:2586   */\n  dup1\n    /* \"#utility.yul\":2580:2583   */\n  dup3\n    /* \"#utility.yul\":2576:2587   */\n  add\n    /* \"#utility.yul\":2570:2588   */\n  mload\n    /* \"#utility.yul\":2566:2567   */\n  dup2\n    /* \"#utility.yul\":2561:2564   */\n  dup5\n    /* \"#utility.yul\":2557:2568   */\n  add\n    /* \"#utility.yul\":2550:2589   */\n  mstore\n    /* \"#utility.yul\":2522:2524   */\n  0x20\n    /* \"#utility.yul\":2519:2520   */\n  dup2\n    /* \"#utility.yul\":2515:2525   */\n  add\n    /* \"#utility.yul\":2510:2525   */\n  swap1\n  pop\n    /* \"#utility.yul\":2486:2599   */\n  jump(tag_68)\ntag_70:\n    /* \"#utility.yul\":2617:2623   */\n  dup4\n    /* \"#utility.yul\":2614:2615   */\n  dup2\n    /* \"#utility.yul\":2611:2624   */\n  gt\n    /* \"#utility.yul\":2608:2709   */\n  iszero\n  tag_71\n  jumpi\n    /* \"#utility.yul\":2697:2698   */\n  0x00\n    /* \"#utility.yul\":2688:2694   */\n  dup5\n    /* \"#utility.yul\":2683:2686   */\n  dup5\n    /* \"#utility.yul\":2679:2695   */\n  add\n    /* \"#utility.yul\":2672:2699   */\n  mstore\n    /* \"#utility.yul\":2608:2709   */\ntag_71:\n    /* \"#utility.yul\":2457:2715   */\n  pop\n    /* \"#utility.yul\":2408:2715   */\n  pop\n  pop\n  pop\n  jump\t// out\n    /* \"#utility.yul\":2721:3041   */\ntag_9:\n    /* \"#utility.yul\":2765:2771   */\n  0x00\n    /* \"#utility.yul\":2802:2803   */\n  0x02\n    /* \"#utility.yul\":2796:2800   */\n  dup3\n    /* \"#utility.yul\":2792:2804   */\n  div\n    /* \"#utility.yul\":2782:2804   */\n  swap1\n  pop\n    /* \"#utility.yul\":2849:2850   */\n  0x01\n    /* \"#utility.yul\":2843:2847   */\n  dup3\n    /* \"#utility.yul\":2839:2851   */\n  and\n    /* \"#utility.yul\":2870:2888   */\n  dup1\n    /* \"#utility.yul\":2860:2941   */\n  tag_73\n  jumpi\n    /* \"#utility.yul\":2926:2930   */\n  0x7f\n    /* \"#utility.yul\":2918:2924   */\n  dup3\n    /* \"#utility.yul\":2914:2931   */\n  and\n    /* \"#utility.yul\":2904:2931   */\n  swap2\n  pop\n    /* \"#utility.yul\":2860:2941   */\ntag_73:\n    /* \"#utility.yul\":2988:2990   */\n  0x20\n    /* \"#utility.yul\":2980:2986   */\n  dup3\n    /* \"#utility.yul\":2977:2991   */\n  lt\n    /* \"#utility.yul\":2957:2975   */\n  dup2\n    /* \"#utility.yul\":2954:2992   */\n  eq\n    /* \"#utility.yul\":2951:3035   */\n  iszero\n  tag_74\n  jumpi\n    /* \"#utility.yul\":3007:3025   */\n  tag_75\n  tag_76\n  jump\t// in\ntag_75:\n    /* \"#utility.yul\":2951:3035   */\ntag_74:\n    /* \"#utility.yul\":2772:3041   */\n  pop\n    /* \"#utility.yul\":2721:3041   */\n  swap2\n  swap1\n  pop\n  jump\t// out\n    /* \"#utility.yul\":3047:3328   */\ntag_54:\n    /* \"#utility.yul\":3130:3157   */\n  tag_78\n    /* \"#utility.yul\":3152:3156   */\n  dup3\n    /* \"#utility.yul\":3130:3157   */\n  tag_61\n  jump\t// in\ntag_78:\n    /* \"#utility.yul\":3122:3128   */\n  dup2\n    /* \"#utility.yul\":3118:3158   */\n  add\n    /* \"#utility.yul\":3260:3266   */\n  dup2\n    /* \"#utility.yul\":3248:3258   */\n  dup2\n    /* \"#utility.yul\":3245:3267   */\n  lt\n    /* \"#utility.yul\":3224:3242   */\n  0xffffffffffffffff\n    /* \"#utility.yul\":3212:3222   */\n  dup3\n    /* \"#utility.yul\":3209:3243   */\n  gt\n    /* \"#utility.yul\":3206:3268   */\n  or\n    /* \"#utility.yul\":3203:3291   */\n  iszero\n  tag_79\n  jumpi\n    /* \"#utility.yul\":3271:3289   */\n  tag_80\n  tag_59\n  jump\t// in\ntag_80:\n    /* \"#utility.yul\":3203:3291   */\ntag_79:\n    /* \"#utility.yul\":3311:3321   */\n  dup1\n    /* \"#utility.yul\":3307:3309   */\n  0x40\n    /* \"#utility.yul\":3300:3322   */\n  mstore\n    /* \"#utility.yul\":3090:3328   */\n  pop\n    /* \"#utility.yul\":3047:3328   */\n  pop\n  pop\n  jump\t// out\n    /* \"#utility.yul\":3334:3514   */\ntag_76:\n    /* \"#utility.yul\":3382:3459   */\n  0x4e487b7100000000000000000000000000000000000000000000000000000000\n    /* \"#utility.yul\":3379:3380   */\n  0x00\n    /* \"#utility.yul\":3372:3460   */\n  mstore\n    /* \"#utility.yul\":3479:3483   */\n  0x22\n    /* \"#utility.yul\":3476:3477   */\n  0x04\n    /* \"#utility.yul\":3469:3484   */\n  mstore\n    /* \"#utility.yul\":3503:3507   */\n  0x24\n    /* \"#utility.yul\":3500:3501   */\n  0x00\n    /* \"#utility.yul\":3493:3508   */\n  revert\n    /* \"#utility.yul\":3520:3700   */\ntag_59:\n    /* \"#utility.yul\":3568:3645   */\n  0x4e487b7100000000000000000000000000000000000000000000000000000000\n    /* \"#utility.yul\":3565:3566   */\n  0x00\n    /* \"#utility.yul\":3558:3646   */\n  mstore\n    /* \"#utility.yul\":3665:3669   */\n  0x41\n    /* \"#utility.yul\":3662:3663   */\n  0x04\n    /* \"#utility.yul\":3655:3670   */\n  mstore\n    /* \"#utility.yul\":3689:3693   */\n  0x24\n    /* \"#utility.yul\":3686:3687   */\n  0x00\n    /* \"#utility.yul\":3679:3694   */\n  revert\n    /* \"#utility.yul\":3706:3823   */\ntag_39:\n    /* \"#utility.yul\":3815:3816   */\n  0x00\n    /* \"#utility.yul\":3812:3813   */\n  dup1\n    /* \"#utility.yul\":3805:3817   */\n  revert\n    /* \"#utility.yul\":3829:3946   */\ntag_28:\n    /* \"#utility.yul\":3938:3939   */\n  0x00\n    /* \"#utility.yul\":3935:3936   */\n  dup1\n    /* \"#utility.yul\":3928:3940   */\n  revert\n    /* \"#utility.yul\":3952:4069   */\ntag_48:\n    /* \"#utility.yul\":4061:4062   */\n  0x00\n    /* \"#utility.yul\":4058:4059   */\n  dup1\n    /* \"#utility.yul\":4051:4063   */\n  revert\n    /* \"#utility.yul\":4075:4192   */\ntag_44:\n    /* \"#utility.yul\":4184:4185   */\n  0x00\n    /* \"#utility.yul\":4181:4182   */\n  dup1\n    /* \"#utility.yul\":4174:4186   */\n  revert\n    /* \"#utility.yul\":4198:4300   */\ntag_61:\n    /* \"#utility.yul\":4239:4245   */\n  0x00\n    /* \"#utility.yul\":4290:4292   */\n  0x1f\n    /* \"#utility.yul\":4286:4293   */\n  not\n    /* \"#utility.yul\":4281:4283   */\n  0x1f\n    /* \"#utility.yul\":4274:4279   */\n  dup4\n    /* \"#utility.yul\":4270:4284   */\n  add\n    /* \"#utility.yul\":4266:4294   */\n  and\n    /* \"#utility.yul\":4256:4294   */\n  swap1\n  pop\n    /* \"#utility.yul\":4198:4300   */\n  swap2\n  swap1\n  pop\n  jump\t// out\n    /* \"#utility.yul\":4306:4428   */\ntag_34:\n    /* \"#utility.yul\":4379:4403   */\n  tag_89\n    /* \"#utility.yul\":4397:4402   */\n  dup2\n    /* \"#utility.yul\":4379:4403   */\n  tag_62\n  jump\t// in\ntag_89:\n    /* \"#utility.yul\":4372:4377   */\n  dup2\n    /* \"#utility.yul\":4369:4404   */\n  eq\n    /* \"#utility.yul\":4359:4422   */\n  tag_90\n  jumpi\n    /* \"#utility.yul\":4418:4419   */\n  0x00\n    /* \"#utility.yul\":4415:4416   */\n  dup1\n    /* \"#utility.yul\":4408:4420   */\n  revert\n    /* \"#utility.yul\":4359:4422   */\ntag_90:\n    /* \"#utility.yul\":4306:4428   */\n  pop\n  jump\t// out\n    /* \"study/chapter04/create2.sol\":53:238  contract Car {... */\ntag_7:\n  dataSize(sub_0)\n  dup1\n  dataOffset(sub_0)\n  0x00\n  codecopy\n  0x00\n  return\nstop\n\nsub_0: assembly {\n        /* \"study/chapter04/create2.sol\":53:238  contract Car {... */\n      mstore(0x40, 0x80)\n      callvalue\n      dup1\n      iszero\n      tag_1\n      jumpi\n      0x00\n      dup1\n      revert\n    tag_1:\n      pop\n      jumpi(tag_2, lt(calldatasize, 0x04))\n      shr(0xe0, calldataload(0x00))\n      dup1\n      0x0ad9d052\n      eq\n      tag_3\n      jumpi\n      dup1\n      0x8da5cb5b\n      eq\n      tag_4\n      jumpi\n    tag_2:\n      0x00\n      dup1\n      revert\n        /* \"study/chapter04/create2.sol\":98:117  string public model */\n    tag_3:\n      tag_5\n      tag_6\n      jump\t// in\n    tag_5:\n      mload(0x40)\n      tag_7\n      swap2\n      swap1\n      tag_8\n      jump\t// in\n    tag_7:\n      mload(0x40)\n      dup1\n      swap2\n      sub\n      swap1\n      return\n        /* \"study/chapter04/create2.sol\":72:92  address public owner */\n    tag_4:\n      tag_9\n      tag_10\n      jump\t// in\n    tag_9:\n      mload(0x40)\n      tag_11\n      swap2\n      swap1\n      tag_12\n      jump\t// in\n    tag_11:\n      mload(0x40)\n      dup1\n      swap2\n      sub\n      swap1\n      return\n        /* \"study/chapter04/create2.sol\":98:117  string public model */\n    tag_6:\n      0x01\n      dup1\n      sload\n      tag_13\n      swap1\n      tag_14\n      jump\t// in\n    tag_13:\n      dup1\n      0x1f\n      add\n      0x20\n      dup1\n      swap2\n      div\n      mul\n      0x20\n      add\n      mload(0x40)\n      swap1\n      dup2\n      add\n      0x40\n      mstore\n      dup1\n      swap3\n      swap2\n      swap1\n      dup2\n      dup2\n      mstore\n      0x20\n      add\n      dup3\n      dup1\n      sload\n      tag_15\n      swap1\n      tag_14\n      jump\t// in\n    tag_15:\n      dup1\n      iszero\n      tag_16\n      jumpi\n      dup1\n      0x1f\n      lt\n      tag_17\n      jumpi\n      0x0100\n      dup1\n      dup4\n      sload\n      div\n      mul\n      dup4\n      mstore\n      swap2\n      0x20\n      add\n      swap2\n      jump(tag_16)\n    tag_17:\n      dup3\n      add\n      swap2\n      swap1\n      0x00\n      mstore\n      keccak256(0x00, 0x20)\n      swap1\n    tag_18:\n      dup2\n      sload\n      dup2\n      mstore\n      swap1\n      0x01\n      add\n      swap1\n      0x20\n      add\n      dup1\n      dup4\n      gt\n      tag_18\n      jumpi\n      dup3\n      swap1\n      sub\n      0x1f\n      and\n      dup3\n      add\n      swap2\n    tag_16:\n      pop\n      pop\n      pop\n      pop\n      pop\n      dup2\n      jump\t// out\n        /* \"study/chapter04/create2.sol\":72:92  address public owner */\n    tag_10:\n      0x00\n      dup1\n      sload\n      swap1\n      0x0100\n      exp\n      swap1\n      div\n      0xffffffffffffffffffffffffffffffffffffffff\n      and\n      dup2\n      jump\t// out\n        /* \"#utility.yul\":7:125   */\n    tag_20:\n        /* \"#utility.yul\":94:118   */\n      tag_22\n        /* \"#utility.yul\":112:117   */\n      dup2\n        /* \"#utility.yul\":94:118   */\n      tag_23\n      jump\t// in\n    tag_22:\n        /* \"#utility.yul\":89:92   */\n      dup3\n        /* \"#utility.yul\":82:119   */\n      mstore\n        /* \"#utility.yul\":7:125   */\n      pop\n      pop\n      jump\t// out\n        /* \"#utility.yul\":131:495   */\n    tag_24:\n        /* \"#utility.yul\":219:222   */\n      0x00\n        /* \"#utility.yul\":247:286   */\n      tag_26\n        /* \"#utility.yul\":280:285   */\n      dup3\n        /* \"#utility.yul\":247:286   */\n      tag_27\n      jump\t// in\n    tag_26:\n        /* \"#utility.yul\":302:373   */\n      tag_28\n        /* \"#utility.yul\":366:372   */\n      dup2\n        /* \"#utility.yul\":361:364   */\n      dup6\n        /* \"#utility.yul\":302:373   */\n      tag_29\n      jump\t// in\n    tag_28:\n        /* \"#utility.yul\":295:373   */\n      swap4\n      pop\n        /* \"#utility.yul\":382:434   */\n      tag_30\n        /* \"#utility.yul\":427:433   */\n      dup2\n        /* \"#utility.yul\":422:425   */\n      dup6\n        /* \"#utility.yul\":415:419   */\n      0x20\n        /* \"#utility.yul\":408:413   */\n      dup7\n        /* \"#utility.yul\":404:420   */\n      add\n        /* \"#utility.yul\":382:434   */\n      tag_31\n      jump\t// in\n    tag_30:\n        /* \"#utility.yul\":459:488   */\n      tag_32\n        /* \"#utility.yul\":481:487   */\n      dup2\n        /* \"#utility.yul\":459:488   */\n      tag_33\n      jump\t// in\n    tag_32:\n        /* \"#utility.yul\":454:457   */\n      dup5\n        /* \"#utility.yul\":450:489   */\n      add\n        /* \"#utility.yul\":443:489   */\n      swap2\n      pop\n        /* \"#utility.yul\":223:495   */\n      pop\n        /* \"#utility.yul\":131:495   */\n      swap3\n      swap2\n      pop\n      pop\n      jump\t// out\n        /* \"#utility.yul\":501:723   */\n    tag_12:\n        /* \"#utility.yul\":594:598   */\n      0x00\n        /* \"#utility.yul\":632:634   */\n      0x20\n        /* \"#utility.yul\":621:630   */\n      dup3\n        /* \"#utility.yul\":617:635   */\n      add\n        /* \"#utility.yul\":609:635   */\n      swap1\n      pop\n        /* \"#utility.yul\":645:716   */\n      tag_35\n        /* \"#utility.yul\":713:714   */\n      0x00\n        /* \"#utility.yul\":702:711   */\n      dup4\n        /* \"#utility.yul\":698:715   */\n      add\n        /* \"#utility.yul\":689:695   */\n      dup5\n        /* \"#utility.yul\":645:716   */\n      tag_20\n      jump\t// in\n    tag_35:\n        /* \"#utility.yul\":501:723   */\n      swap3\n      swap2\n      pop\n      pop\n      jump\t// out\n        /* \"#utility.yul\":729:1042   */\n    tag_8:\n        /* \"#utility.yul\":842:846   */\n      0x00\n        /* \"#utility.yul\":880:882   */\n      0x20\n        /* \"#utility.yul\":869:878   */\n      dup3\n        /* \"#utility.yul\":865:883   */\n      add\n        /* \"#utility.yul\":857:883   */\n      swap1\n      pop\n        /* \"#utility.yul\":929:938   */\n      dup2\n        /* \"#utility.yul\":923:927   */\n      dup2\n        /* \"#utility.yul\":919:939   */\n      sub\n        /* \"#utility.yul\":915:916   */\n      0x00\n        /* \"#utility.yul\":904:913   */\n      dup4\n        /* \"#utility.yul\":900:917   */\n      add\n        /* \"#utility.yul\":893:940   */\n      mstore\n        /* \"#utility.yul\":957:1035   */\n      tag_37\n        /* \"#utility.yul\":1030:1034   */\n      dup2\n        /* \"#utility.yul\":1021:1027   */\n      dup5\n        /* \"#utility.yul\":957:1035   */\n      tag_24\n      jump\t// in\n    tag_37:\n        /* \"#utility.yul\":949:1035   */\n      swap1\n      pop\n        /* \"#utility.yul\":729:1042   */\n      swap3\n      swap2\n      pop\n      pop\n      jump\t// out\n        /* \"#utility.yul\":1048:1147   */\n    tag_27:\n        /* \"#utility.yul\":1100:1106   */\n      0x00\n        /* \"#utility.yul\":1134:1139   */\n      dup2\n        /* \"#utility.yul\":1128:1140   */\n      mload\n        /* \"#utility.yul\":1118:1140   */\n      swap1\n      pop\n        /* \"#utility.yul\":1048:1147   */\n      swap2\n      swap1\n      pop\n      jump\t// out\n        /* \"#utility.yul\":1153:1322   */\n    tag_29:\n        /* \"#utility.yul\":1237:1248   */\n      0x00\n        /* \"#utility.yul\":1271:1277   */\n      dup3\n        /* \"#utility.yul\":1266:1269   */\n      dup3\n        /* \"#utility.yul\":1259:1278   */\n      mstore\n        /* \"#utility.yul\":1311:1315   */\n      0x20\n        /* \"#utility.yul\":1306:1309   */\n      dup3\n        /* \"#utility.yul\":1302:1316   */\n      add\n        /* \"#utility.yul\":1287:1316   */\n      swap1\n      pop\n        /* \"#utility.yul\":1153:1322   */\n      swap3\n      swap2\n      pop\n      pop\n      jump\t// out\n        /* \"#utility.yul\":1328:1424   */\n    tag_23:\n        /* \"#utility.yul\":1365:1372   */\n      0x00\n        /* \"#utility.yul\":1394:1418   */\n      tag_41\n        /* \"#utility.yul\":1412:1417   */\n      dup3\n        /* \"#utility.yul\":1394:1418   */\n      tag_42\n      jump\t// in\n    tag_41:\n        /* \"#utility.yul\":1383:1418   */\n      swap1\n      pop\n        /* \"#utility.yul\":1328:1424   */\n      swap2\n      swap1\n      pop\n      jump\t// out\n        /* \"#utility.yul\":1430:1556   */\n    tag_42:\n        /* \"#utility.yul\":1467:1474   */\n      0x00\n        /* \"#utility.yul\":1507:1549   */\n      0xffffffffffffffffffffffffffffffffffffffff\n        /* \"#utility.yul\":1500:1505   */\n      dup3\n        /* \"#utility.yul\":1496:1550   */\n      and\n        /* \"#utility.yul\":1485:1550   */\n      swap1\n      pop\n        /* \"#utility.yul\":1430:1556   */\n      swap2\n      swap1\n      pop\n      jump\t// out\n        /* \"#utility.yul\":1562:1869   */\n    tag_31:\n        /* \"#utility.yul\":1630:1631   */\n      0x00\n        /* \"#utility.yul\":1640:1753   */\n    tag_45:\n        /* \"#utility.yul\":1654:1660   */\n      dup4\n        /* \"#utility.yul\":1651:1652   */\n      dup2\n        /* \"#utility.yul\":1648:1661   */\n      lt\n        /* \"#utility.yul\":1640:1753   */\n      iszero\n      tag_47\n      jumpi\n        /* \"#utility.yul\":1739:1740   */\n      dup1\n        /* \"#utility.yul\":1734:1737   */\n      dup3\n        /* \"#utility.yul\":1730:1741   */\n      add\n        /* \"#utility.yul\":1724:1742   */\n      mload\n        /* \"#utility.yul\":1720:1721   */\n      dup2\n        /* \"#utility.yul\":1715:1718   */\n      dup5\n        /* \"#utility.yul\":1711:1722   */\n      add\n        /* \"#utility.yul\":1704:1743   */\n      mstore\n        /* \"#utility.yul\":1676:1678   */\n      0x20\n        /* \"#utility.yul\":1673:1674   */\n      dup2\n        /* \"#utility.yul\":1669:1679   */\n      add\n        /* \"#utility.yul\":1664:1679   */\n      swap1\n      pop\n        /* \"#utility.yul\":1640:1753   */\n      jump(tag_45)\n    tag_47:\n        /* \"#utility.yul\":1771:1777   */\n      dup4\n        /* \"#utility.yul\":1768:1769   */\n      dup2\n        /* \"#utility.yul\":1765:1778   */\n      gt\n        /* \"#utility.yul\":1762:1863   */\n      iszero\n      tag_48\n      jumpi\n        /* \"#utility.yul\":1851:1852   */\n      0x00\n        /* \"#utility.yul\":1842:1848   */\n      dup5\n        /* \"#utility.yul\":1837:1840   */\n      dup5\n        /* \"#utility.yul\":1833:1849   */\n      add\n        /* \"#utility.yul\":1826:1853   */\n      mstore\n        /* \"#utility.yul\":1762:1863   */\n    tag_48:\n        /* \"#utility.yul\":1611:1869   */\n      pop\n        /* \"#utility.yul\":1562:1869   */\n      pop\n      pop\n      pop\n      jump\t// out\n        /* \"#utility.yul\":1875:2195   */\n    tag_14:\n        /* \"#utility.yul\":1919:1925   */\n      0x00\n        /* \"#utility.yul\":1956:1957   */\n      0x02\n        /* \"#utility.yul\":1950:1954   */\n      dup3\n        /* \"#utility.yul\":1946:1958   */\n      div\n        /* \"#utility.yul\":1936:1958   */\n      swap1\n      pop\n        /* \"#utility.yul\":2003:2004   */\n      0x01\n        /* \"#utility.yul\":1997:2001   */\n      dup3\n        /* \"#utility.yul\":1993:2005   */\n      and\n        /* \"#utility.yul\":2024:2042   */\n      dup1\n        /* \"#utility.yul\":2014:2095   */\n      tag_50\n      jumpi\n        /* \"#utility.yul\":2080:2084   */\n      0x7f\n        /* \"#utility.yul\":2072:2078   */\n      dup3\n        /* \"#utility.yul\":2068:2085   */\n      and\n        /* \"#utility.yul\":2058:2085   */\n      swap2\n      pop\n        /* \"#utility.yul\":2014:2095   */\n    tag_50:\n        /* \"#utility.yul\":2142:2144   */\n      0x20\n        /* \"#utility.yul\":2134:2140   */\n      dup3\n        /* \"#utility.yul\":2131:2145   */\n      lt\n        /* \"#utility.yul\":2111:2129   */\n      dup2\n        /* \"#utility.yul\":2108:2146   */\n      eq\n        /* \"#utility.yul\":2105:2189   */\n      iszero\n      tag_51\n      jumpi\n        /* \"#utility.yul\":2161:2179   */\n      tag_52\n      tag_53\n      jump\t// in\n    tag_52:\n        /* \"#utility.yul\":2105:2189   */\n    tag_51:\n        /* \"#utility.yul\":1926:2195   */\n      pop\n        /* \"#utility.yul\":1875:2195   */\n      swap2\n      swap1\n      pop\n      jump\t// out\n        /* \"#utility.yul\":2201:2381   */\n    tag_53:\n        /* \"#utility.yul\":2249:2326   */\n      0x4e487b7100000000000000000000000000000000000000000000000000000000\n        /* \"#utility.yul\":2246:2247   */\n      0x00\n        /* \"#utility.yul\":2239:2327   */\n      mstore\n        /* \"#utility.yul\":2346:2350   */\n      0x22\n        /* \"#utility.yul\":2343:2344   */\n      0x04\n        /* \"#utility.yul\":2336:2351   */\n      mstore\n        /* \"#utility.yul\":2370:2374   */\n      0x24\n        /* \"#utility.yul\":2367:2368   */\n      0x00\n        /* \"#utility.yul\":2360:2375   */\n      revert\n        /* \"#utility.yul\":2387:2489   */\n    tag_33:\n        /* \"#utility.yul\":2428:2434   */\n      0x00\n        /* \"#utility.yul\":2479:2481   */\n      0x1f\n        /* \"#utility.yul\":2475:2482   */\n      not\n        /* \"#utility.yul\":2470:2472   */\n      0x1f\n        /* \"#utility.yul\":2463:2468   */\n      dup4\n        /* \"#utility.yul\":2459:2473   */\n      add\n        /* \"#utility.yul\":2455:2483   */\n      and\n        /* \"#utility.yul\":2445:2483   */\n      swap1\n      pop\n        /* \"#utility.yul\":2387:2489   */\n      swap2\n      swap1\n      pop\n      jump\t// out\n\n    auxdata: 0xa264697066735822122096d82943042b5f4d5f29ba132d48aa96ab76fb62e8db0e897e1963a6a10f16ff64736f6c63430008070033\n}\n",
				"bytecode": {
					"linkReferences": {},
					"object": "60806040526040516106a53803806106a5833981810160405281019061002591906101ab565b816000806101000a81548173ffffffffffffffffffffffffffffffffffffffff021916908373ffffffffffffffffffffffffffffffffffffffff160217905550806001908051906020019061007b929190610083565b5050506103bf565b82805461008f906102c2565b90600052602060002090601f0160209004810192826100b157600085556100f8565b82601f106100ca57805160ff19168380011785556100f8565b828001600101855582156100f8579182015b828111156100f75782518255916020019190600101906100dc565b5b5090506101059190610109565b5090565b5b8082111561012257600081600090555060010161010a565b5090565b60006101396101348461022c565b610207565b90508281526020810184848401111561015557610154610388565b5b61016084828561028f565b509392505050565b600081519050610177816103a8565b92915050565b600082601f83011261019257610191610383565b5b81516101a2848260208601610126565b91505092915050565b600080604083850312156101c2576101c1610392565b5b60006101d085828601610168565b925050602083015167ffffffffffffffff8111156101f1576101f061038d565b5b6101fd8582860161017d565b9150509250929050565b6000610211610222565b905061021d82826102f4565b919050565b6000604051905090565b600067ffffffffffffffff82111561024757610246610354565b5b61025082610397565b9050602081019050919050565b60006102688261026f565b9050919050565b600073ffffffffffffffffffffffffffffffffffffffff82169050919050565b60005b838110156102ad578082015181840152602081019050610292565b838111156102bc576000848401525b50505050565b600060028204905060018216806102da57607f821691505b602082108114156102ee576102ed610325565b5b50919050565b6102fd82610397565b810181811067ffffffffffffffff8211171561031c5761031b610354565b5b80604052505050565b7f4e487b7100000000000000000000000000000000000000000000000000000000600052602260045260246000fd5b7f4e487b7100000000000000000000000000000000000000000000000000000000600052604160045260246000fd5b600080fd5b600080fd5b600080fd5b600080fd5b6000601f19601f8301169050919050565b6103b18161025d565b81146103bc57600080fd5b50565b6102d7806103ce6000396000f3fe608060405234801561001057600080fd5b50600436106100365760003560e01c80630ad9d0521461003b5780638da5cb5b14610059575b600080fd5b610043610077565b604051610050919061018c565b60405180910390f35b610061610105565b60405161006e9190610171565b60405180910390f35b600180546100849061022f565b80601f01602080910402602001604051908101604052809291908181526020018280546100b09061022f565b80156100fd5780601f106100d2576101008083540402835291602001916100fd565b820191906000526020600020905b8154815290600101906020018083116100e057829003601f168201915b505050505081565b60008054906101000a900473ffffffffffffffffffffffffffffffffffffffff1681565b610132816101ca565b82525050565b6000610143826101ae565b61014d81856101b9565b935061015d8185602086016101fc565b61016681610290565b840191505092915050565b60006020820190506101866000830184610129565b92915050565b600060208201905081810360008301526101a68184610138565b905092915050565b600081519050919050565b600082825260208201905092915050565b60006101d5826101dc565b9050919050565b600073ffffffffffffffffffffffffffffffffffffffff82169050919050565b60005b8381101561021a5780820151818401526020810190506101ff565b83811115610229576000848401525b50505050565b6000600282049050600182168061024757607f821691505b6020821081141561025b5761025a610261565b5b50919050565b7f4e487b7100000000000000000000000000000000000000000000000000000000600052602260045260246000fd5b6000601f19601f830116905091905056fea264697066735822122096d82943042b5f4d5f29ba132d48aa96ab76fb62e8db0e897e1963a6a10f16ff64736f6c63430008070033",
					"opcodes": "PUSH1 0x80 PUSH1 0x40 MSTORE PUSH1 0x40 MLOAD PUSH2 0x6A5 CODESIZE SUB DUP1 PUSH2 0x6A5 DUP4 CODECOPY DUP2 DUP2 ADD PUSH1 0x40 MSTORE DUP2 ADD SWAP1 PUSH2 0x25 SWAP2 SWAP1 PUSH2 0x1AB JUMP JUMPDEST DUP2 PUSH1 0x0 DUP1 PUSH2 0x100 EXP DUP2 SLOAD DUP2 PUSH20 0xFFFFFFFFFFFFFFFFFFFFFFFFFFFFFFFFFFFFFFFF MUL NOT AND SWAP1 DUP4 PUSH20 0xFFFFFFFFFFFFFFFFFFFFFFFFFFFFFFFFFFFFFFFF AND MUL OR SWAP1 SSTORE POP DUP1 PUSH1 0x1 SWAP1 DUP1 MLOAD SWAP1 PUSH1 0x20 ADD SWAP1 PUSH2 0x7B SWAP3 SWAP2 SWAP1 PUSH2 0x83 JUMP JUMPDEST POP POP POP PUSH2 0x3BF JUMP JUMPDEST DUP3 DUP1 SLOAD PUSH2 0x8F SWAP1 PUSH2 0x2C2 JUMP JUMPDEST SWAP1 PUSH1 0x0 MSTORE PUSH1 0x20 PUSH1 0x0 KECCAK256 SWAP1 PUSH1 0x1F ADD PUSH1 0x20 SWAP1 DIV DUP2 ADD SWAP3 DUP3 PUSH2 0xB1 JUMPI PUSH1 0x0 DUP6 SSTORE PUSH2 0xF8 JUMP JUMPDEST DUP3 PUSH1 0x1F LT PUSH2 0xCA JUMPI DUP1 MLOAD PUSH1 0xFF NOT AND DUP4 DUP1 ADD OR DUP6 SSTORE PUSH2 0xF8 JUMP JUMPDEST DUP3 DUP1 ADD PUSH1 0x1 ADD DUP6 SSTORE DUP3 ISZERO PUSH2 0xF8 JUMPI SWAP2 DUP3 ADD JUMPDEST DUP3 DUP2 GT ISZERO PUSH2 0xF7 JUMPI DUP3 MLOAD DUP3 SSTORE SWAP2 PUSH1 0x20 ADD SWAP2 SWAP1 PUSH1 0x1 ADD SWAP1 PUSH2 0xDC JUMP JUMPDEST JUMPDEST POP SWAP1 POP PUSH2 0x105 SWAP2 SWAP1 PUSH2 0x109 JUMP JUMPDEST POP SWAP1 JUMP JUMPDEST JUMPDEST DUP1 DUP3 GT ISZERO PUSH2 0x122 JUMPI PUSH1 0x0 DUP2 PUSH1 0x0 SWAP1 SSTORE POP PUSH1 0x1 ADD PUSH2 0x10A JUMP JUMPDEST POP SWAP1 JUMP JUMPDEST PUSH1 0x0 PUSH2 0x139 PUSH2 0x134 DUP5 PUSH2 0x22C JUMP JUMPDEST PUSH2 0x207 JUMP JUMPDEST SWAP1 POP DUP3 DUP2 MSTORE PUSH1 0x20 DUP2 ADD DUP5 DUP5 DUP5 ADD GT ISZERO PUSH2 0x155 JUMPI PUSH2 0x154 PUSH2 0x388 JUMP JUMPDEST JUMPDEST PUSH2 0x160 DUP5 DUP3 DUP6 PUSH2 0x28F JUMP JUMPDEST POP SWAP4 SWAP3 POP POP POP JUMP JUMPDEST PUSH1 0x0 DUP2 MLOAD SWAP1 POP PUSH2 0x177 DUP2 PUSH2 0x3A8 JUMP JUMPDEST SWAP3 SWAP2 POP POP JUMP JUMPDEST PUSH1 0x0 DUP3 PUSH1 0x1F DUP4 ADD SLT PUSH2 0x192 JUMPI PUSH2 0x191 PUSH2 0x383 JUMP JUMPDEST JUMPDEST DUP2 MLOAD PUSH2 0x1A2 DUP5 DUP3 PUSH1 0x20 DUP7 ADD PUSH2 0x126 JUMP JUMPDEST SWAP2 POP POP SWAP3 SWAP2 POP POP JUMP JUMPDEST PUSH1 0x0 DUP1 PUSH1 0x40 DUP4 DUP6 SUB SLT ISZERO PUSH2 0x1C2 JUMPI PUSH2 0x1C1 PUSH2 0x392 JUMP JUMPDEST JUMPDEST PUSH1 0x0 PUSH2 0x1D0 DUP6 DUP3 DUP7 ADD PUSH2 0x168 JUMP JUMPDEST SWAP3 POP POP PUSH1 0x20 DUP4 ADD MLOAD PUSH8 0xFFFFFFFFFFFFFFFF DUP2 GT ISZERO PUSH2 0x1F1 JUMPI PUSH2 0x1F0 PUSH2 0x38D JUMP JUMPDEST JUMPDEST PUSH2 0x1FD DUP6 DUP3 DUP7 ADD PUSH2 0x17D JUMP JUMPDEST SWAP2 POP POP SWAP3 POP SWAP3 SWAP1 POP JUMP JUMPDEST PUSH1 0x0 PUSH2 0x211 PUSH2 0x222 JUMP JUMPDEST SWAP1 POP PUSH2 0x21D DUP3 DUP3 PUSH2 0x2F4 JUMP JUMPDEST SWAP2 SWAP1 POP JUMP JUMPDEST PUSH1 0x0 PUSH1 0x40 MLOAD SWAP1 POP SWAP1 JUMP JUMPDEST PUSH1 0x0 PUSH8 0xFFFFFFFFFFFFFFFF DUP3 GT ISZERO PUSH2 0x247 JUMPI PUSH2 0x246 PUSH2 0x354 JUMP JUMPDEST JUMPDEST PUSH2 0x250 DUP3 PUSH2 0x397 JUMP JUMPDEST SWAP1 POP PUSH1 0x20 DUP2 ADD SWAP1 POP SWAP2 SWAP1 POP JUMP JUMPDEST PUSH1 0x0 PUSH2 0x268 DUP3 PUSH2 0x26F JUMP JUMPDEST SWAP1 POP SWAP2 SWAP1 POP JUMP JUMPDEST PUSH1 0x0 PUSH20 0xFFFFFFFFFFFFFFFFFFFFFFFFFFFFFFFFFFFFFFFF DUP3 AND SWAP1 POP SWAP2 SWAP1 POP JUMP JUMPDEST PUSH1 0x0 JUMPDEST DUP4 DUP2 LT ISZERO PUSH2 0x2AD JUMPI DUP1 DUP3 ADD MLOAD DUP2 DUP5 ADD MSTORE PUSH1 0x20 DUP2 ADD SWAP1 POP PUSH2 0x292 JUMP JUMPDEST DUP4 DUP2 GT ISZERO PUSH2 0x2BC JUMPI PUSH1 0x0 DUP5 DUP5 ADD MSTORE JUMPDEST POP POP POP POP JUMP JUMPDEST PUSH1 0x0 PUSH1 0x2 DUP3 DIV SWAP1 POP PUSH1 0x1 DUP3 AND DUP1 PUSH2 0x2DA JUMPI PUSH1 0x7F DUP3 AND SWAP2 POP JUMPDEST PUSH1 0x20 DUP3 LT DUP2 EQ ISZERO PUSH2 0x2EE JUMPI PUSH2 0x2ED PUSH2 0x325 JUMP JUMPDEST JUMPDEST POP SWAP2 SWAP1 POP JUMP JUMPDEST PUSH2 0x2FD DUP3 PUSH2 0x397 JUMP JUMPDEST DUP2 ADD DUP2 DUP2 LT PUSH8 0xFFFFFFFFFFFFFFFF DUP3 GT OR ISZERO PUSH2 0x31C JUMPI PUSH2 0x31B PUSH2 0x354 JUMP JUMPDEST JUMPDEST DUP1 PUSH1 0x40 MSTORE POP POP POP JUMP JUMPDEST PUSH32 0x4E487B7100000000000000000000000000000000000000000000000000000000 PUSH1 0x0 MSTORE PUSH1 0x22 PUSH1 0x4 MSTORE PUSH1 0x24 PUSH1 0x0 REVERT JUMPDEST PUSH32 0x4E487B7100000000000000000000000000000000000000000000000000000000 PUSH1 0x0 MSTORE PUSH1 0x41 PUSH1 0x4 MSTORE PUSH1 0x24 PUSH1 0x0 REVERT JUMPDEST PUSH1 0x0 DUP1 REVERT JUMPDEST PUSH1 0x0 DUP1 REVERT JUMPDEST PUSH1 0x0 DUP1 REVERT JUMPDEST PUSH1 0x0 DUP1 REVERT JUMPDEST PUSH1 0x0 PUSH1 0x1F NOT PUSH1 0x1F DUP4 ADD AND SWAP1 POP SWAP2 SWAP1 POP JUMP JUMPDEST PUSH2 0x3B1 DUP2 PUSH2 0x25D JUMP JUMPDEST DUP2 EQ PUSH2 0x3BC JUMPI PUSH1 0x0 DUP1 REVERT JUMPDEST POP JUMP JUMPDEST PUSH2 0x2D7 DUP1 PUSH2 0x3CE PUSH1 0x0 CODECOPY PUSH1 0x0 RETURN INVALID PUSH1 0x80 PUSH1 0x40 MSTORE CALLVALUE DUP1 ISZERO PUSH2 0x10 JUMPI PUSH1 0x0 DUP1 REVERT JUMPDEST POP PUSH1 0x4 CALLDATASIZE LT PUSH2 0x36 JUMPI PUSH1 0x0 CALLDATALOAD PUSH1 0xE0 SHR DUP1 PUSH4 0xAD9D052 EQ PUSH2 0x3B JUMPI DUP1 PUSH4 0x8DA5CB5B EQ PUSH2 0x59 JUMPI JUMPDEST PUSH1 0x0 DUP1 REVERT JUMPDEST PUSH2 0x43 PUSH2 0x77 JUMP JUMPDEST PUSH1 0x40 MLOAD PUSH2 0x50 SWAP2 SWAP1 PUSH2 0x18C JUMP JUMPDEST PUSH1 0x40 MLOAD DUP1 SWAP2 SUB SWAP1 RETURN JUMPDEST PUSH2 0x61 PUSH2 0x105 JUMP JUMPDEST PUSH1 0x40 MLOAD PUSH2 0x6E SWAP2 SWAP1 PUSH2 0x171 JUMP JUMPDEST PUSH1 0x40 MLOAD DUP1 SWAP2 SUB SWAP1 RETURN JUMPDEST PUSH1 0x1 DUP1 SLOAD PUSH2 0x84 SWAP1 PUSH2 0x22F JUMP JUMPDEST DUP1 PUSH1 0x1F ADD PUSH1 0x20 DUP1 SWAP2 DIV MUL PUSH1 0x20 ADD PUSH1 0x40 MLOAD SWAP1 DUP2 ADD PUSH1 0x40 MSTORE DUP1 SWAP3 SWAP2 SWAP1 DUP2 DUP2 MSTORE PUSH1 0x20 ADD DUP3 DUP1 SLOAD PUSH2 0xB0 SWAP1 PUSH2 0x22F JUMP JUMPDEST DUP1 ISZERO PUSH2 0xFD JUMPI DUP1 PUSH1 0x1F LT PUSH2 0xD2 JUMPI PUSH2 0x100 DUP1 DUP4 SLOAD DIV MUL DUP4 MSTORE SWAP2 PUSH1 0x20 ADD SWAP2 PUSH2 0xFD JUMP JUMPDEST DUP3 ADD SWAP2 SWAP1 PUSH1 0x0 MSTORE PUSH1 0x20 PUSH1 0x0 KECCAK256 SWAP1 JUMPDEST DUP2 SLOAD DUP2 MSTORE SWAP1 PUSH1 0x1 ADD SWAP1 PUSH1 0x20 ADD DUP1 DUP4 GT PUSH2 0xE0 JUMPI DUP3 SWAP1 SUB PUSH1 0x1F AND DUP3 ADD SWAP2 JUMPDEST POP POP POP POP POP DUP2 JUMP JUMPDEST PUSH1 0x0 DUP1 SLOAD SWAP1 PUSH2 0x100 EXP SWAP1 DIV PUSH20 0xFFFFFFFFFFFFFFFFFFFFFFFFFFFFFFFFFFFFFFFF AND DUP2 JUMP JUMPDEST PUSH2 0x132 DUP2 PUSH2 0x1CA JUMP JUMPDEST DUP3 MSTORE POP POP JUMP JUMPDEST PUSH1 0x0 PUSH2 0x143 DUP3 PUSH2 0x1AE JUMP JUMPDEST PUSH2 0x14D DUP2 DUP6 PUSH2 0x1B9 JUMP JUMPDEST SWAP4 POP PUSH2 0x15D DUP2 DUP6 PUSH1 0x20 DUP7 ADD PUSH2 0x1FC JUMP JUMPDEST PUSH2 0x166 DUP2 PUSH2 0x290 JUMP JUMPDEST DUP5 ADD SWAP2 POP POP SWAP3 SWAP2 POP POP JUMP JUMPDEST PUSH1 0x0 PUSH1 0x20 DUP3 ADD SWAP1 POP PUSH2 0x186 PUSH1 0x0 DUP4 ADD DUP5 PUSH2 0x129 JUMP JUMPDEST SWAP3 SWAP2 POP POP JUMP JUMPDEST PUSH1 0x0 PUSH1 0x20 DUP3 ADD SWAP1 POP DUP2 DUP2 SUB PUSH1 0x0 DUP4 ADD MSTORE PUSH2 0x1A6 DUP2 DUP5 PUSH2 0x138 JUMP JUMPDEST SWAP1 POP SWAP3 SWAP2 POP POP JUMP JUMPDEST PUSH1 0x0 DUP2 MLOAD SWAP1 POP SWAP2 SWAP1 POP JUMP JUMPDEST PUSH1 0x0 DUP3 DUP3 MSTORE PUSH1 0x20 DUP3 ADD SWAP1 POP SWAP3 SWAP2 POP POP JUMP JUMPDEST PUSH1 0x0 PUSH2 0x1D5 DUP3 PUSH2 0x1DC JUMP JUMPDEST SWAP1 POP SWAP2 SWAP1 POP JUMP JUMPDEST PUSH1 0x0 PUSH20 0xFFFFFFFFFFFFFFFFFFFFFFFFFFFFFFFFFFFFFFFF DUP3 AND SWAP1 POP SWAP2 SWAP1 POP JUMP JUMPDEST PUSH1 0x0 JUMPDEST DUP4 DUP2 LT ISZERO PUSH2 0x21A JUMPI DUP1 DUP3 ADD MLOAD DUP2 DUP5 ADD MSTORE PUSH1 0x20 DUP2 ADD SWAP1 POP PUSH2 0x1FF JUMP JUMPDEST DUP4 DUP2 GT ISZERO PUSH2 0x229 JUMPI PUSH1 0x0 DUP5 DUP5 ADD MSTORE JUMPDEST POP POP POP POP JUMP JUMPDEST PUSH1 0x0 PUSH1 0x2 DUP3 DIV SWAP1 POP PUSH1 0x1 DUP3 AND DUP1 PUSH2 0x247 JUMPI PUSH1 0x7F DUP3 AND SWAP2 POP JUMPDEST PUSH1 0x20 DUP3 LT DUP2 EQ ISZERO PUSH2 0x25B JUMPI PUSH2 0x25A PUSH2 0x261 JUMP JUMPDEST JUMPDEST POP SWAP2 SWAP1 POP JUMP JUMPDEST PUSH32 0x4E487B7100000000000000000000000000000000000000000000000000000000 PUSH1 0x0 MSTORE PUSH1 0x22 PUSH1 0x4 MSTORE PUSH1 0x24 PUSH1 0x0 REVERT JUMPDEST PUSH1 0x0 PUSH1 0x1F NOT PUSH1 0x1F DUP4 ADD AND SWAP1 POP SWAP2 SWAP1 POP JUMP INVALID LOG2 PUSH5 0x6970667358 0x22 SLT KECCAK256 SWAP7 0xD8 0x29 NUMBER DIV 0x2B 0x5F 0x4D 0x5F 0x29 0xBA SGT 0x2D BASEFEE 0xAA SWAP7 0xAB PUSH23 0xFB62E8DB0E897E1963A6A10F16FF64736F6C6343000807 STOP CALLER "
				},
				"gasEstimates": {
					"creation": {
						"codeDepositCost": "145400",
						"executionCost": "infinite",
						"totalCost": "infinite"
					},
					"external": {
						"model()": "infinite",
						"owner()": "2511"
					}
				},
				"methodIdentifiers": {
					"model()": "0ad9d052",
					"owner()": "8da5cb5b"
				}
			},
			"storageLayout": {
				"storage": [
					{
						"astId": 3,
						"contract": "study/chapter04/create2.sol:Car",
						"label": "owner",
						"offset": 0,
						"slot": "0",
						"type": "t_address"
					},
					{
						"astId": 5,
						"contract": "study/chapter04/create2.sol:Car",
						"label": "model",
						"offset": 0,
						"slot": "1",
						"type": "t_string_storage"
					}
				],
				"types": {
					"t_address": {
						"encoding": "inplace",
						"label": "address",
						"numberOfBytes": "20"
					},
					"t_string_storage": {
						"encoding": "bytes",
						"label": "string",
						"numberOfBytes": "32"
					}
				}
			},
			"userdoc": {
				"kind": "user",
				"methods": {},
				"version": 1
			}
		}
	}
}