{
	"study/chapter04/newContract.sol": {
		"callContract": {
			"abi": [
				{
					"inputs": [],
					"name": "by",
					"outputs": [
						{
							"internalType": "bytes",
							"name": "",
							"type": "bytes"
						}
					],
					"stateMutability": "view",
					"type": "function"
				},
				{
					"inputs": [],
					"name": "contractName",
					"outputs": [
						{
							"internalType": "string",
							"name": "",
							"type": "string"
						}
					],
					"stateMutability": "view",
					"type": "function"
				},
				{
					"inputs": [],
					"name": "contractaddr",
					"outputs": [
						{
							"internalType": "address",
							"name": "",
							"type": "address"
						}
					],
					"stateMutability": "view",
					"type": "function"
				},
				{
					"inputs": [
						{
							"internalType": "uint256",
							"name": "amount",
							"type": "uint256"
						}
					],
					"name": "createContractObj",
					"outputs": [],
					"stateMutability": "payable",
					"type": "function"
				},
				{
					"inputs": [],
					"name": "getA",
					"outputs": [
						{
							"internalType": "uint256",
							"name": "",
							"type": "uint256"
						}
					],
					"stateMutability": "view",
					"type": "function"
				},
				{
					"inputs": [],
					"name": "getBalance",
					"outputs": [
						{
							"internalType": "uint256",
							"name": "",
							"type": "uint256"
						}
					],
					"stateMutability": "view",
					"type": "function"
				},
				{
					"inputs": [],
					"name": "initParams",
					"outputs": [],
					"stateMutability": "nonpayable",
					"type": "function"
				},
				{
					"inputs": [
						{
							"internalType": "uint256",
							"name": "_a",
							"type": "uint256"
						}
					],
					"name": "setA",
					"outputs": [],
					"stateMutability": "nonpayable",
					"type": "function"
				},
				{
					"inputs": [],
					"name": "str1",
					"outputs": [
						{
							"internalType": "string",
							"name": "",
							"type": "string"
						}
					],
					"stateMutability": "view",
					"type": "function"
				}
			],
			"devdoc": {
				"kind": "dev",
				"methods": {},
				"version": 1
			},
			"evm": {
				"assembly": "    /* \"study/chapter04/newContract.sol\":417:1373  contract callContract{... */\n  mstore(0x40, 0x80)\n  callvalue\n  dup1\n  iszero\n  tag_1\n  jumpi\n  0x00\n  dup1\n  revert\ntag_1:\n  pop\n  dataSize(sub_0)\n  dup1\n  dataOffset(sub_0)\n  0x00\n  codecopy\n  0x00\n  return\nstop\n\nsub_0: assembly {\n        /* \"study/chapter04/newContract.sol\":417:1373  contract callContract{... */\n      mstore(0x40, 0x80)\n      jumpi(tag_1, lt(calldatasize, 0x04))\n      shr(0xe0, calldataload(0x00))\n      dup1\n      0xd01bb4d5\n      gt\n      tag_11\n      jumpi\n      dup1\n      0xd01bb4d5\n      eq\n      tag_6\n      jumpi\n      dup1\n      0xd118d187\n      eq\n      tag_7\n      jumpi\n      dup1\n      0xd46300fd\n      eq\n      tag_8\n      jumpi\n      dup1\n      0xee919d50\n      eq\n      tag_9\n      jumpi\n      dup1\n      0xfb0c8628\n      eq\n      tag_10\n      jumpi\n      jump(tag_1)\n    tag_11:\n      dup1\n      0x12065fe0\n      eq\n      tag_2\n      jumpi\n      dup1\n      0x75d0c0dc\n      eq\n      tag_3\n      jumpi\n      dup1\n      0x7c000138\n      eq\n      tag_4\n      jumpi\n      dup1\n      0x93d4e9a2\n      eq\n      tag_5\n      jumpi\n    tag_1:\n      0x00\n      dup1\n      revert\n        /* \"study/chapter04/newContract.sol\":1274:1367  function getBalance()external view returns(uint){... */\n    tag_2:\n      callvalue\n      dup1\n      iszero\n      tag_12\n      jumpi\n      0x00\n      dup1\n      revert\n    tag_12:\n      pop\n      tag_13\n      tag_14\n      jump\t// in\n    tag_13:\n      mload(0x40)\n      tag_15\n      swap2\n      swap1\n      tag_16\n      jump\t// in\n    tag_15:\n      mload(0x40)\n      dup1\n      swap2\n      sub\n      swap1\n      return\n        /* \"study/chapter04/newContract.sol\":595:621  string public contractName */\n    tag_3:\n      callvalue\n      dup1\n      iszero\n      tag_17\n      jumpi\n      0x00\n      dup1\n      revert\n    tag_17:\n      pop\n      tag_18\n      tag_19\n      jump\t// in\n    tag_18:\n      mload(0x40)\n      tag_20\n      swap2\n      swap1\n      tag_21\n      jump\t// in\n    tag_20:\n      mload(0x40)\n      dup1\n      swap2\n      sub\n      swap1\n      return\n        /* \"study/chapter04/newContract.sol\":732:747  bytes public by */\n    tag_4:\n      callvalue\n      dup1\n      iszero\n      tag_22\n      jumpi\n      0x00\n      dup1\n      revert\n    tag_22:\n      pop\n      tag_23\n      tag_24\n      jump\t// in\n    tag_23:\n      mload(0x40)\n      tag_25\n      swap2\n      swap1\n      tag_26\n      jump\t// in\n    tag_25:\n      mload(0x40)\n      dup1\n      swap2\n      sub\n      swap1\n      return\n        /* \"study/chapter04/newContract.sol\":753:868  function createContractObj(uint amount)public payable{... */\n    tag_5:\n      tag_27\n      0x04\n      dup1\n      calldatasize\n      sub\n      dup2\n      add\n      swap1\n      tag_28\n      swap2\n      swap1\n      tag_29\n      jump\t// in\n    tag_28:\n      tag_30\n      jump\t// in\n    tag_27:\n      stop\n        /* \"study/chapter04/newContract.sol\":548:575  address public contractaddr */\n    tag_6:\n      callvalue\n      dup1\n      iszero\n      tag_31\n      jumpi\n      0x00\n      dup1\n      revert\n    tag_31:\n      pop\n      tag_32\n      tag_33\n      jump\t// in\n    tag_32:\n      mload(0x40)\n      tag_34\n      swap2\n      swap1\n      tag_35\n      jump\t// in\n    tag_34:\n      mload(0x40)\n      dup1\n      swap2\n      sub\n      swap1\n      return\n        /* \"study/chapter04/newContract.sol\":708:726  string public str1 */\n    tag_7:\n      callvalue\n      dup1\n      iszero\n      tag_36\n      jumpi\n      0x00\n      dup1\n      revert\n    tag_36:\n      pop\n      tag_37\n      tag_38\n      jump\t// in\n    tag_37:\n      mload(0x40)\n      tag_39\n      swap2\n      swap1\n      tag_21\n      jump\t// in\n    tag_39:\n      mload(0x40)\n      dup1\n      swap2\n      sub\n      swap1\n      return\n        /* \"study/chapter04/newContract.sol\":1144:1269  function getA()external view returns(uint){... */\n    tag_8:\n      callvalue\n      dup1\n      iszero\n      tag_40\n      jumpi\n      0x00\n      dup1\n      revert\n    tag_40:\n      pop\n      tag_41\n      tag_42\n      jump\t// in\n    tag_41:\n      mload(0x40)\n      tag_43\n      swap2\n      swap1\n      tag_16\n      jump\t// in\n    tag_43:\n      mload(0x40)\n      dup1\n      swap2\n      sub\n      swap1\n      return\n        /* \"study/chapter04/newContract.sol\":1081:1139  function setA(uint _a)external {... */\n    tag_9:\n      callvalue\n      dup1\n      iszero\n      tag_44\n      jumpi\n      0x00\n      dup1\n      revert\n    tag_44:\n      pop\n      tag_45\n      0x04\n      dup1\n      calldatasize\n      sub\n      dup2\n      add\n      swap1\n      tag_46\n      swap2\n      swap1\n      tag_29\n      jump\t// in\n    tag_46:\n      tag_47\n      jump\t// in\n    tag_45:\n      stop\n        /* \"study/chapter04/newContract.sol\":874:1076  function initParams()external {... */\n    tag_10:\n      callvalue\n      dup1\n      iszero\n      tag_48\n      jumpi\n      0x00\n      dup1\n      revert\n    tag_48:\n      pop\n      tag_49\n      tag_50\n      jump\t// in\n    tag_49:\n      stop\n        /* \"study/chapter04/newContract.sol\":1274:1367  function getBalance()external view returns(uint){... */\n    tag_14:\n        /* \"study/chapter04/newContract.sol\":1317:1321  uint */\n      0x00\n        /* \"study/chapter04/newContract.sol\":1339:1360  address(this).balance */\n      selfbalance\n        /* \"study/chapter04/newContract.sol\":1332:1360  return address(this).balance */\n      swap1\n      pop\n        /* \"study/chapter04/newContract.sol\":1274:1367  function getBalance()external view returns(uint){... */\n      swap1\n      jump\t// out\n        /* \"study/chapter04/newContract.sol\":595:621  string public contractName */\n    tag_19:\n      0x02\n      dup1\n      sload\n      tag_52\n      swap1\n      tag_53\n      jump\t// in\n    tag_52:\n      dup1\n      0x1f\n      add\n      0x20\n      dup1\n      swap2\n      div\n      mul\n      0x20\n      add\n      mload(0x40)\n      swap1\n      dup2\n      add\n      0x40\n      mstore\n      dup1\n      swap3\n      swap2\n      swap1\n      dup2\n      dup2\n      mstore\n      0x20\n      add\n      dup3\n      dup1\n      sload\n      tag_54\n      swap1\n      tag_53\n      jump\t// in\n    tag_54:\n      dup1\n      iszero\n      tag_55\n      jumpi\n      dup1\n      0x1f\n      lt\n      tag_56\n      jumpi\n      0x0100\n      dup1\n      dup4\n      sload\n      div\n      mul\n      dup4\n      mstore\n      swap2\n      0x20\n      add\n      swap2\n      jump(tag_55)\n    tag_56:\n      dup3\n      add\n      swap2\n      swap1\n      0x00\n      mstore\n      keccak256(0x00, 0x20)\n      swap1\n    tag_57:\n      dup2\n      sload\n      dup2\n      mstore\n      swap1\n      0x01\n      add\n      swap1\n      0x20\n      add\n      dup1\n      dup4\n      gt\n      tag_57\n      jumpi\n      dup3\n      swap1\n      sub\n      0x1f\n      and\n      dup3\n      add\n      swap2\n    tag_55:\n      pop\n      pop\n      pop\n      pop\n      pop\n      dup2\n      jump\t// out\n        /* \"study/chapter04/newContract.sol\":732:747  bytes public by */\n    tag_24:\n      0x04\n      dup1\n      sload\n      tag_58\n      swap1\n      tag_53\n      jump\t// in\n    tag_58:\n      dup1\n      0x1f\n      add\n      0x20\n      dup1\n      swap2\n      div\n      mul\n      0x20\n      add\n      mload(0x40)\n      swap1\n      dup2\n      add\n      0x40\n      mstore\n      dup1\n      swap3\n      swap2\n      swap1\n      dup2\n      dup2\n      mstore\n      0x20\n      add\n      dup3\n      dup1\n      sload\n      tag_59\n      swap1\n      tag_53\n      jump\t// in\n    tag_59:\n      dup1\n      iszero\n      tag_60\n      jumpi\n      dup1\n      0x1f\n      lt\n      tag_61\n      jumpi\n      0x0100\n      dup1\n      dup4\n      sload\n      div\n      mul\n      dup4\n      mstore\n      swap2\n      0x20\n      add\n      swap2\n      jump(tag_60)\n    tag_61:\n      dup3\n      add\n      swap2\n      swap1\n      0x00\n      mstore\n      keccak256(0x00, 0x20)\n      swap1\n    tag_62:\n      dup2\n      sload\n      dup2\n      mstore\n      swap1\n      0x01\n      add\n      swap1\n      0x20\n      add\n      dup1\n      dup4\n      gt\n      tag_62\n      jumpi\n      dup3\n      swap1\n      sub\n      0x1f\n      and\n      dup3\n      add\n      swap2\n    tag_60:\n      pop\n      pop\n      pop\n      pop\n      pop\n      dup2\n      jump\t// out\n        /* \"study/chapter04/newContract.sol\":753:868  function createContractObj(uint amount)public payable{... */\n    tag_30:\n        /* \"study/chapter04/newContract.sol\":843:849  amount */\n      dup1\n        /* \"study/chapter04/newContract.sol\":851:852  5 */\n      0x05\n        /* \"study/chapter04/newContract.sol\":820:853  new testContract{value:amount}(5) */\n      mload(0x40)\n      tag_64\n      swap1\n      tag_65\n      jump\t// in\n    tag_64:\n      tag_66\n      swap2\n      swap1\n      tag_67\n      jump\t// in\n    tag_66:\n      mload(0x40)\n      dup1\n      swap2\n      sub\n      swap1\n      dup3\n      create\n      swap1\n      pop\n      dup1\n      iszero\n      dup1\n      iszero\n      tag_68\n      jumpi\n      returndatasize\n      0x00\n      dup1\n      returndatacopy\n      revert(0x00, returndatasize)\n    tag_68:\n      pop\n        /* \"study/chapter04/newContract.sol\":816:817  t */\n      0x00\n      dup1\n        /* \"study/chapter04/newContract.sol\":816:853  t = new testContract{value:amount}(5) */\n      0x0100\n      exp\n      dup2\n      sload\n      dup2\n      0xffffffffffffffffffffffffffffffffffffffff\n      mul\n      not\n      and\n      swap1\n      dup4\n      0xffffffffffffffffffffffffffffffffffffffff\n      and\n      mul\n      or\n      swap1\n      sstore\n      pop\n        /* \"study/chapter04/newContract.sol\":753:868  function createContractObj(uint amount)public payable{... */\n      pop\n      jump\t// out\n        /* \"study/chapter04/newContract.sol\":548:575  address public contractaddr */\n    tag_33:\n      0x01\n      0x00\n      swap1\n      sload\n      swap1\n      0x0100\n      exp\n      swap1\n      div\n      0xffffffffffffffffffffffffffffffffffffffff\n      and\n      dup2\n      jump\t// out\n        /* \"study/chapter04/newContract.sol\":708:726  string public str1 */\n    tag_38:\n      0x03\n      dup1\n      sload\n      tag_69\n      swap1\n      tag_53\n      jump\t// in\n    tag_69:\n      dup1\n      0x1f\n      add\n      0x20\n      dup1\n      swap2\n      div\n      mul\n      0x20\n      add\n      mload(0x40)\n      swap1\n      dup2\n      add\n      0x40\n      mstore\n      dup1\n      swap3\n      swap2\n      swap1\n      dup2\n      dup2\n      mstore\n      0x20\n      add\n      dup3\n      dup1\n      sload\n      tag_70\n      swap1\n      tag_53\n      jump\t// in\n    tag_70:\n      dup1\n      iszero\n      tag_71\n      jumpi\n      dup1\n      0x1f\n      lt\n      tag_72\n      jumpi\n      0x0100\n      dup1\n      dup4\n      sload\n      div\n      mul\n      dup4\n      mstore\n      swap2\n      0x20\n      add\n      swap2\n      jump(tag_71)\n    tag_72:\n      dup3\n      add\n      swap2\n      swap1\n      0x00\n      mstore\n      keccak256(0x00, 0x20)\n      swap1\n    tag_73:\n      dup2\n      sload\n      dup2\n      mstore\n      swap1\n      0x01\n      add\n      swap1\n      0x20\n      add\n      dup1\n      dup4\n      gt\n      tag_73\n      jumpi\n      dup3\n      swap1\n      sub\n      0x1f\n      and\n      dup3\n      add\n      swap2\n    tag_71:\n      pop\n      pop\n      pop\n      pop\n      pop\n      dup2\n      jump\t// out\n        /* \"study/chapter04/newContract.sol\":1144:1269  function getA()external view returns(uint){... */\n    tag_42:\n        /* \"study/chapter04/newContract.sol\":1181:1185  uint */\n      0x00\n        /* \"study/chapter04/newContract.sol\":1203:1204  t */\n      dup1\n      0x00\n      swap1\n      sload\n      swap1\n      0x0100\n      exp\n      swap1\n      div\n      0xffffffffffffffffffffffffffffffffffffffff\n      and\n        /* \"study/chapter04/newContract.sol\":1203:1206  t.a */\n      0xffffffffffffffffffffffffffffffffffffffff\n      and\n      0x0dbe671f\n        /* \"study/chapter04/newContract.sol\":1203:1208  t.a() */\n      mload(0x40)\n      dup2\n      0xffffffff\n      and\n      0xe0\n      shl\n      dup2\n      mstore\n      0x04\n      add\n      0x20\n      mload(0x40)\n      dup1\n      dup4\n      sub\n      dup2\n      dup7\n      dup1\n      extcodesize\n      iszero\n      dup1\n      iszero\n      tag_75\n      jumpi\n      0x00\n      dup1\n      revert\n    tag_75:\n      pop\n      gas\n      staticcall\n      iszero\n      dup1\n      iszero\n      tag_77\n      jumpi\n      returndatasize\n      0x00\n      dup1\n      returndatacopy\n      revert(0x00, returndatasize)\n    tag_77:\n      pop\n      pop\n      pop\n      pop\n      mload(0x40)\n      returndatasize\n      not(0x1f)\n      0x1f\n      dup3\n      add\n      and\n      dup3\n      add\n      dup1\n      0x40\n      mstore\n      pop\n      dup2\n      add\n      swap1\n      tag_78\n      swap2\n      swap1\n      tag_79\n      jump\t// in\n    tag_78:\n        /* \"study/chapter04/newContract.sol\":1196:1208  return t.a() */\n      swap1\n      pop\n        /* \"study/chapter04/newContract.sol\":1144:1269  function getA()external view returns(uint){... */\n      swap1\n      jump\t// out\n        /* \"study/chapter04/newContract.sol\":1081:1139  function setA(uint _a)external {... */\n    tag_47:\n        /* \"study/chapter04/newContract.sol\":1122:1123  t */\n      0x00\n      dup1\n      sload\n      swap1\n      0x0100\n      exp\n      swap1\n      div\n      0xffffffffffffffffffffffffffffffffffffffff\n      and\n        /* \"study/chapter04/newContract.sol\":1122:1128  t.setA */\n      0xffffffffffffffffffffffffffffffffffffffff\n      and\n      0xee919d50\n        /* \"study/chapter04/newContract.sol\":1129:1131  _a */\n      dup3\n        /* \"study/chapter04/newContract.sol\":1122:1132  t.setA(_a) */\n      mload(0x40)\n      dup3\n      0xffffffff\n      and\n      0xe0\n      shl\n      dup2\n      mstore\n      0x04\n      add\n      tag_81\n      swap2\n      swap1\n      tag_16\n      jump\t// in\n    tag_81:\n      0x00\n      mload(0x40)\n      dup1\n      dup4\n      sub\n      dup2\n      0x00\n      dup8\n      dup1\n      extcodesize\n      iszero\n      dup1\n      iszero\n      tag_82\n      jumpi\n      0x00\n      dup1\n      revert\n    tag_82:\n      pop\n      gas\n      call\n      iszero\n      dup1\n      iszero\n      tag_84\n      jumpi\n      returndatasize\n      0x00\n      dup1\n      returndatacopy\n      revert(0x00, returndatasize)\n    tag_84:\n      pop\n      pop\n      pop\n      pop\n        /* \"study/chapter04/newContract.sol\":1081:1139  function setA(uint _a)external {... */\n      pop\n      jump\t// out\n        /* \"study/chapter04/newContract.sol\":874:1076  function initParams()external {... */\n    tag_50:\n        /* \"study/chapter04/newContract.sol\":936:937  t */\n      0x00\n      dup1\n      sload\n      swap1\n      0x0100\n      exp\n      swap1\n      div\n      0xffffffffffffffffffffffffffffffffffffffff\n      and\n        /* \"study/chapter04/newContract.sol\":914:926  contractaddr */\n      0x01\n      0x00\n        /* \"study/chapter04/newContract.sol\":914:938  contractaddr =address(t) */\n      0x0100\n      exp\n      dup2\n      sload\n      dup2\n      0xffffffffffffffffffffffffffffffffffffffff\n      mul\n      not\n      and\n      swap1\n      dup4\n      0xffffffffffffffffffffffffffffffffffffffff\n      and\n      mul\n      or\n      swap1\n      sstore\n      pop\n        /* \"study/chapter04/newContract.sol\":964:965  t */\n      0x00\n      dup1\n      sload\n      swap1\n      0x0100\n      exp\n      swap1\n      div\n      0xffffffffffffffffffffffffffffffffffffffff\n      and\n        /* \"study/chapter04/newContract.sol\":964:981  t.getContractName */\n      0xffffffffffffffffffffffffffffffffffffffff\n      and\n      0xf5f5ba72\n        /* \"study/chapter04/newContract.sol\":964:983  t.getContractName() */\n      mload(0x40)\n      dup2\n      0xffffffff\n      and\n      0xe0\n      shl\n      dup2\n      mstore\n      0x04\n      add\n      0x00\n      mload(0x40)\n      dup1\n      dup4\n      sub\n      dup2\n      dup7\n      dup1\n      extcodesize\n      iszero\n      dup1\n      iszero\n      tag_86\n      jumpi\n      0x00\n      dup1\n      revert\n    tag_86:\n      pop\n      gas\n      staticcall\n      iszero\n      dup1\n      iszero\n      tag_88\n      jumpi\n      returndatasize\n      0x00\n      dup1\n      returndatacopy\n      revert(0x00, returndatasize)\n    tag_88:\n      pop\n      pop\n      pop\n      pop\n      mload(0x40)\n      returndatasize\n      0x00\n      dup3\n      returndatacopy\n      returndatasize\n      not(0x1f)\n      0x1f\n      dup3\n      add\n      and\n      dup3\n      add\n      dup1\n      0x40\n      mstore\n      pop\n      dup2\n      add\n      swap1\n      tag_89\n      swap2\n      swap1\n      tag_90\n      jump\t// in\n    tag_89:\n        /* \"study/chapter04/newContract.sol\":949:961  contractName */\n      0x02\n        /* \"study/chapter04/newContract.sol\":949:983  contractName = t.getContractName() */\n      swap1\n      dup1\n      mload\n      swap1\n      0x20\n      add\n      swap1\n      tag_91\n      swap3\n      swap2\n      swap1\n      tag_92\n      jump\t// in\n    tag_91:\n      pop\n        /* \"study/chapter04/newContract.sol\":1000:1023  type(testContract).name */\n      mload(0x40)\n      dup1\n      0x40\n      add\n      0x40\n      mstore\n      0x0c\n      dup2\n      mstore\n      dup1\n      0x20\n      add\n      0x74657374436f6e74726163740000000000000000000000000000000000000000\n      dup2\n      mstore\n      pop\n        /* \"study/chapter04/newContract.sol\":993:997  str1 */\n      0x03\n        /* \"study/chapter04/newContract.sol\":993:1023  str1 = type(testContract).name */\n      swap1\n      dup1\n      mload\n      swap1\n      0x20\n      add\n      swap1\n      tag_93\n      swap3\n      swap2\n      swap1\n      tag_92\n      jump\t// in\n    tag_93:\n      pop\n        /* \"study/chapter04/newContract.sol\":1038:1069  type(testContract).creationCode */\n      mload(0x40)\n      dup1\n      0x20\n      add\n      tag_94\n      swap1\n      tag_65\n      jump\t// in\n    tag_94:\n      0x20\n      dup3\n      add\n      dup2\n      sub\n      dup3\n      mstore\n      not(0x1f)\n      0x1f\n      dup3\n      add\n      and\n      0x40\n      mstore\n      pop\n        /* \"study/chapter04/newContract.sol\":1033:1035  by */\n      0x04\n        /* \"study/chapter04/newContract.sol\":1033:1069  by = type(testContract).creationCode */\n      swap1\n      dup1\n      mload\n      swap1\n      0x20\n      add\n      swap1\n      tag_95\n      swap3\n      swap2\n      swap1\n      tag_96\n      jump\t// in\n    tag_95:\n      pop\n        /* \"study/chapter04/newContract.sol\":874:1076  function initParams()external {... */\n      jump\t// out\n    tag_65:\n      dataSize(sub_0)\n      dup1\n      dataOffset(sub_0)\n      dup4\n      codecopy\n      add\n      swap1\n      jump\t// out\n    tag_92:\n      dup3\n      dup1\n      sload\n      tag_97\n      swap1\n      tag_53\n      jump\t// in\n    tag_97:\n      swap1\n      0x00\n      mstore\n      keccak256(0x00, 0x20)\n      swap1\n      0x1f\n      add\n      0x20\n      swap1\n      div\n      dup2\n      add\n      swap3\n      dup3\n      tag_99\n      jumpi\n      0x00\n      dup6\n      sstore\n      jump(tag_98)\n    tag_99:\n      dup3\n      0x1f\n      lt\n      tag_100\n      jumpi\n      dup1\n      mload\n      not(0xff)\n      and\n      dup4\n      dup1\n      add\n      or\n      dup6\n      sstore\n      jump(tag_98)\n    tag_100:\n      dup3\n      dup1\n      add\n      0x01\n      add\n      dup6\n      sstore\n      dup3\n      iszero\n      tag_98\n      jumpi\n      swap2\n      dup3\n      add\n    tag_101:\n      dup3\n      dup2\n      gt\n      iszero\n      tag_102\n      jumpi\n      dup3\n      mload\n      dup3\n      sstore\n      swap2\n      0x20\n      add\n      swap2\n      swap1\n      0x01\n      add\n      swap1\n      jump(tag_101)\n    tag_102:\n    tag_98:\n      pop\n      swap1\n      pop\n      tag_103\n      swap2\n      swap1\n      tag_104\n      jump\t// in\n    tag_103:\n      pop\n      swap1\n      jump\t// out\n    tag_96:\n      dup3\n      dup1\n      sload\n      tag_105\n      swap1\n      tag_53\n      jump\t// in\n    tag_105:\n      swap1\n      0x00\n      mstore\n      keccak256(0x00, 0x20)\n      swap1\n      0x1f\n      add\n      0x20\n      swap1\n      div\n      dup2\n      add\n      swap3\n      dup3\n      tag_107\n      jumpi\n      0x00\n      dup6\n      sstore\n      jump(tag_106)\n    tag_107:\n      dup3\n      0x1f\n      lt\n      tag_108\n      jumpi\n      dup1\n      mload\n      not(0xff)\n      and\n      dup4\n      dup1\n      add\n      or\n      dup6\n      sstore\n      jump(tag_106)\n    tag_108:\n      dup3\n      dup1\n      add\n      0x01\n      add\n      dup6\n      sstore\n      dup3\n      iszero\n      tag_106\n      jumpi\n      swap2\n      dup3\n      add\n    tag_109:\n      dup3\n      dup2\n      gt\n      iszero\n      tag_110\n      jumpi\n      dup3\n      mload\n      dup3\n      sstore\n      swap2\n      0x20\n      add\n      swap2\n      swap1\n      0x01\n      add\n      swap1\n      jump(tag_109)\n    tag_110:\n    tag_106:\n      pop\n      swap1\n      pop\n      tag_111\n      swap2\n      swap1\n      tag_104\n      jump\t// in\n    tag_111:\n      pop\n      swap1\n      jump\t// out\n    tag_104:\n    tag_112:\n      dup1\n      dup3\n      gt\n      iszero\n      tag_113\n      jumpi\n      0x00\n      dup2\n      0x00\n      swap1\n      sstore\n      pop\n      0x01\n      add\n      jump(tag_112)\n    tag_113:\n      pop\n      swap1\n      jump\t// out\n        /* \"#utility.yul\":7:428   */\n    tag_115:\n        /* \"#utility.yul\":96:101   */\n      0x00\n        /* \"#utility.yul\":121:187   */\n      tag_117\n        /* \"#utility.yul\":137:186   */\n      tag_118\n        /* \"#utility.yul\":179:185   */\n      dup5\n        /* \"#utility.yul\":137:186   */\n      tag_119\n      jump\t// in\n    tag_118:\n        /* \"#utility.yul\":121:187   */\n      tag_120\n      jump\t// in\n    tag_117:\n        /* \"#utility.yul\":112:187   */\n      swap1\n      pop\n        /* \"#utility.yul\":210:216   */\n      dup3\n        /* \"#utility.yul\":203:208   */\n      dup2\n        /* \"#utility.yul\":196:217   */\n      mstore\n        /* \"#utility.yul\":248:252   */\n      0x20\n        /* \"#utility.yul\":241:246   */\n      dup2\n        /* \"#utility.yul\":237:253   */\n      add\n        /* \"#utility.yul\":286:289   */\n      dup5\n        /* \"#utility.yul\":277:283   */\n      dup5\n        /* \"#utility.yul\":272:275   */\n      dup5\n        /* \"#utility.yul\":268:284   */\n      add\n        /* \"#utility.yul\":265:290   */\n      gt\n        /* \"#utility.yul\":262:264   */\n      iszero\n      tag_121\n      jumpi\n        /* \"#utility.yul\":293:372   */\n      tag_122\n      tag_123\n      jump\t// in\n    tag_122:\n        /* \"#utility.yul\":262:264   */\n    tag_121:\n        /* \"#utility.yul\":383:422   */\n      tag_124\n        /* \"#utility.yul\":415:421   */\n      dup5\n        /* \"#utility.yul\":410:413   */\n      dup3\n        /* \"#utility.yul\":405:408   */\n      dup6\n        /* \"#utility.yul\":383:422   */\n      tag_125\n      jump\t// in\n    tag_124:\n        /* \"#utility.yul\":102:428   */\n      pop\n      swap4\n      swap3\n      pop\n      pop\n      pop\n      jump\t// out\n        /* \"#utility.yul\":448:803   */\n    tag_126:\n        /* \"#utility.yul\":515:520   */\n      0x00\n        /* \"#utility.yul\":564:567   */\n      dup3\n        /* \"#utility.yul\":557:561   */\n      0x1f\n        /* \"#utility.yul\":549:555   */\n      dup4\n        /* \"#utility.yul\":545:562   */\n      add\n        /* \"#utility.yul\":541:568   */\n      slt\n        /* \"#utility.yul\":531:533   */\n      tag_128\n      jumpi\n        /* \"#utility.yul\":572:651   */\n      tag_129\n      tag_130\n      jump\t// in\n    tag_129:\n        /* \"#utility.yul\":531:533   */\n    tag_128:\n        /* \"#utility.yul\":682:688   */\n      dup2\n        /* \"#utility.yul\":676:689   */\n      mload\n        /* \"#utility.yul\":707:797   */\n      tag_131\n        /* \"#utility.yul\":793:796   */\n      dup5\n        /* \"#utility.yul\":785:791   */\n      dup3\n        /* \"#utility.yul\":778:782   */\n      0x20\n        /* \"#utility.yul\":770:776   */\n      dup7\n        /* \"#utility.yul\":766:783   */\n      add\n        /* \"#utility.yul\":707:797   */\n      tag_115\n      jump\t// in\n    tag_131:\n        /* \"#utility.yul\":698:797   */\n      swap2\n      pop\n        /* \"#utility.yul\":521:803   */\n      pop\n      swap3\n      swap2\n      pop\n      pop\n      jump\t// out\n        /* \"#utility.yul\":809:948   */\n    tag_132:\n        /* \"#utility.yul\":855:860   */\n      0x00\n        /* \"#utility.yul\":893:899   */\n      dup2\n        /* \"#utility.yul\":880:900   */\n      calldataload\n        /* \"#utility.yul\":871:900   */\n      swap1\n      pop\n        /* \"#utility.yul\":909:942   */\n      tag_134\n        /* \"#utility.yul\":936:941   */\n      dup2\n        /* \"#utility.yul\":909:942   */\n      tag_135\n      jump\t// in\n    tag_134:\n        /* \"#utility.yul\":861:948   */\n      swap3\n      swap2\n      pop\n      pop\n      jump\t// out\n        /* \"#utility.yul\":954:1097   */\n    tag_136:\n        /* \"#utility.yul\":1011:1016   */\n      0x00\n        /* \"#utility.yul\":1042:1048   */\n      dup2\n        /* \"#utility.yul\":1036:1049   */\n      mload\n        /* \"#utility.yul\":1027:1049   */\n      swap1\n      pop\n        /* \"#utility.yul\":1058:1091   */\n      tag_138\n        /* \"#utility.yul\":1085:1090   */\n      dup2\n        /* \"#utility.yul\":1058:1091   */\n      tag_135\n      jump\t// in\n    tag_138:\n        /* \"#utility.yul\":1017:1097   */\n      swap3\n      swap2\n      pop\n      pop\n      jump\t// out\n        /* \"#utility.yul\":1103:1627   */\n    tag_90:\n        /* \"#utility.yul\":1183:1189   */\n      0x00\n        /* \"#utility.yul\":1232:1234   */\n      0x20\n        /* \"#utility.yul\":1220:1229   */\n      dup3\n        /* \"#utility.yul\":1211:1218   */\n      dup5\n        /* \"#utility.yul\":1207:1230   */\n      sub\n        /* \"#utility.yul\":1203:1235   */\n      slt\n        /* \"#utility.yul\":1200:1202   */\n      iszero\n      tag_140\n      jumpi\n        /* \"#utility.yul\":1238:1317   */\n      tag_141\n      tag_142\n      jump\t// in\n    tag_141:\n        /* \"#utility.yul\":1200:1202   */\n    tag_140:\n        /* \"#utility.yul\":1379:1380   */\n      0x00\n        /* \"#utility.yul\":1368:1377   */\n      dup3\n        /* \"#utility.yul\":1364:1381   */\n      add\n        /* \"#utility.yul\":1358:1382   */\n      mload\n        /* \"#utility.yul\":1409:1427   */\n      0xffffffffffffffff\n        /* \"#utility.yul\":1401:1407   */\n      dup2\n        /* \"#utility.yul\":1398:1428   */\n      gt\n        /* \"#utility.yul\":1395:1397   */\n      iszero\n      tag_143\n      jumpi\n        /* \"#utility.yul\":1431:1510   */\n      tag_144\n      tag_145\n      jump\t// in\n    tag_144:\n        /* \"#utility.yul\":1395:1397   */\n    tag_143:\n        /* \"#utility.yul\":1536:1610   */\n      tag_146\n        /* \"#utility.yul\":1602:1609   */\n      dup5\n        /* \"#utility.yul\":1593:1599   */\n      dup3\n        /* \"#utility.yul\":1582:1591   */\n      dup6\n        /* \"#utility.yul\":1578:1600   */\n      add\n        /* \"#utility.yul\":1536:1610   */\n      tag_126\n      jump\t// in\n    tag_146:\n        /* \"#utility.yul\":1526:1610   */\n      swap2\n      pop\n        /* \"#utility.yul\":1329:1620   */\n      pop\n        /* \"#utility.yul\":1190:1627   */\n      swap3\n      swap2\n      pop\n      pop\n      jump\t// out\n        /* \"#utility.yul\":1633:1962   */\n    tag_29:\n        /* \"#utility.yul\":1692:1698   */\n      0x00\n        /* \"#utility.yul\":1741:1743   */\n      0x20\n        /* \"#utility.yul\":1729:1738   */\n      dup3\n        /* \"#utility.yul\":1720:1727   */\n      dup5\n        /* \"#utility.yul\":1716:1739   */\n      sub\n        /* \"#utility.yul\":1712:1744   */\n      slt\n        /* \"#utility.yul\":1709:1711   */\n      iszero\n      tag_148\n      jumpi\n        /* \"#utility.yul\":1747:1826   */\n      tag_149\n      tag_142\n      jump\t// in\n    tag_149:\n        /* \"#utility.yul\":1709:1711   */\n    tag_148:\n        /* \"#utility.yul\":1867:1868   */\n      0x00\n        /* \"#utility.yul\":1892:1945   */\n      tag_150\n        /* \"#utility.yul\":1937:1944   */\n      dup5\n        /* \"#utility.yul\":1928:1934   */\n      dup3\n        /* \"#utility.yul\":1917:1926   */\n      dup6\n        /* \"#utility.yul\":1913:1935   */\n      add\n        /* \"#utility.yul\":1892:1945   */\n      tag_132\n      jump\t// in\n    tag_150:\n        /* \"#utility.yul\":1882:1945   */\n      swap2\n      pop\n        /* \"#utility.yul\":1838:1955   */\n      pop\n        /* \"#utility.yul\":1699:1962   */\n      swap3\n      swap2\n      pop\n      pop\n      jump\t// out\n        /* \"#utility.yul\":1968:2319   */\n    tag_79:\n        /* \"#utility.yul\":2038:2044   */\n      0x00\n        /* \"#utility.yul\":2087:2089   */\n      0x20\n        /* \"#utility.yul\":2075:2084   */\n      dup3\n        /* \"#utility.yul\":2066:2073   */\n      dup5\n        /* \"#utility.yul\":2062:2085   */\n      sub\n        /* \"#utility.yul\":2058:2090   */\n      slt\n        /* \"#utility.yul\":2055:2057   */\n      iszero\n      tag_152\n      jumpi\n        /* \"#utility.yul\":2093:2172   */\n      tag_153\n      tag_142\n      jump\t// in\n    tag_153:\n        /* \"#utility.yul\":2055:2057   */\n    tag_152:\n        /* \"#utility.yul\":2213:2214   */\n      0x00\n        /* \"#utility.yul\":2238:2302   */\n      tag_154\n        /* \"#utility.yul\":2294:2301   */\n      dup5\n        /* \"#utility.yul\":2285:2291   */\n      dup3\n        /* \"#utility.yul\":2274:2283   */\n      dup6\n        /* \"#utility.yul\":2270:2292   */\n      add\n        /* \"#utility.yul\":2238:2302   */\n      tag_136\n      jump\t// in\n    tag_154:\n        /* \"#utility.yul\":2228:2302   */\n      swap2\n      pop\n        /* \"#utility.yul\":2184:2312   */\n      pop\n        /* \"#utility.yul\":2045:2319   */\n      swap3\n      swap2\n      pop\n      pop\n      jump\t// out\n        /* \"#utility.yul\":2325:2443   */\n    tag_155:\n        /* \"#utility.yul\":2412:2436   */\n      tag_157\n        /* \"#utility.yul\":2430:2435   */\n      dup2\n        /* \"#utility.yul\":2412:2436   */\n      tag_158\n      jump\t// in\n    tag_157:\n        /* \"#utility.yul\":2407:2410   */\n      dup3\n        /* \"#utility.yul\":2400:2437   */\n      mstore\n        /* \"#utility.yul\":2390:2443   */\n      pop\n      pop\n      jump\t// out\n        /* \"#utility.yul\":2449:2809   */\n    tag_159:\n        /* \"#utility.yul\":2535:2538   */\n      0x00\n        /* \"#utility.yul\":2563:2601   */\n      tag_161\n        /* \"#utility.yul\":2595:2600   */\n      dup3\n        /* \"#utility.yul\":2563:2601   */\n      tag_162\n      jump\t// in\n    tag_161:\n        /* \"#utility.yul\":2617:2687   */\n      tag_163\n        /* \"#utility.yul\":2680:2686   */\n      dup2\n        /* \"#utility.yul\":2675:2678   */\n      dup6\n        /* \"#utility.yul\":2617:2687   */\n      tag_164\n      jump\t// in\n    tag_163:\n        /* \"#utility.yul\":2610:2687   */\n      swap4\n      pop\n        /* \"#utility.yul\":2696:2748   */\n      tag_165\n        /* \"#utility.yul\":2741:2747   */\n      dup2\n        /* \"#utility.yul\":2736:2739   */\n      dup6\n        /* \"#utility.yul\":2729:2733   */\n      0x20\n        /* \"#utility.yul\":2722:2727   */\n      dup7\n        /* \"#utility.yul\":2718:2734   */\n      add\n        /* \"#utility.yul\":2696:2748   */\n      tag_125\n      jump\t// in\n    tag_165:\n        /* \"#utility.yul\":2773:2802   */\n      tag_166\n        /* \"#utility.yul\":2795:2801   */\n      dup2\n        /* \"#utility.yul\":2773:2802   */\n      tag_167\n      jump\t// in\n    tag_166:\n        /* \"#utility.yul\":2768:2771   */\n      dup5\n        /* \"#utility.yul\":2764:2803   */\n      add\n        /* \"#utility.yul\":2757:2803   */\n      swap2\n      pop\n        /* \"#utility.yul\":2539:2809   */\n      pop\n      swap3\n      swap2\n      pop\n      pop\n      jump\t// out\n        /* \"#utility.yul\":2815:2962   */\n    tag_168:\n        /* \"#utility.yul\":2910:2955   */\n      tag_170\n        /* \"#utility.yul\":2949:2954   */\n      dup2\n        /* \"#utility.yul\":2910:2955   */\n      tag_171\n      jump\t// in\n    tag_170:\n        /* \"#utility.yul\":2905:2908   */\n      dup3\n        /* \"#utility.yul\":2898:2956   */\n      mstore\n        /* \"#utility.yul\":2888:2962   */\n      pop\n      pop\n      jump\t// out\n        /* \"#utility.yul\":2968:3332   */\n    tag_172:\n        /* \"#utility.yul\":3056:3059   */\n      0x00\n        /* \"#utility.yul\":3084:3123   */\n      tag_174\n        /* \"#utility.yul\":3117:3122   */\n      dup3\n        /* \"#utility.yul\":3084:3123   */\n      tag_175\n      jump\t// in\n    tag_174:\n        /* \"#utility.yul\":3139:3210   */\n      tag_176\n        /* \"#utility.yul\":3203:3209   */\n      dup2\n        /* \"#utility.yul\":3198:3201   */\n      dup6\n        /* \"#utility.yul\":3139:3210   */\n      tag_177\n      jump\t// in\n    tag_176:\n        /* \"#utility.yul\":3132:3210   */\n      swap4\n      pop\n        /* \"#utility.yul\":3219:3271   */\n      tag_178\n        /* \"#utility.yul\":3264:3270   */\n      dup2\n        /* \"#utility.yul\":3259:3262   */\n      dup6\n        /* \"#utility.yul\":3252:3256   */\n      0x20\n        /* \"#utility.yul\":3245:3250   */\n      dup7\n        /* \"#utility.yul\":3241:3257   */\n      add\n        /* \"#utility.yul\":3219:3271   */\n      tag_125\n      jump\t// in\n    tag_178:\n        /* \"#utility.yul\":3296:3325   */\n      tag_179\n        /* \"#utility.yul\":3318:3324   */\n      dup2\n        /* \"#utility.yul\":3296:3325   */\n      tag_167\n      jump\t// in\n    tag_179:\n        /* \"#utility.yul\":3291:3294   */\n      dup5\n        /* \"#utility.yul\":3287:3326   */\n      add\n        /* \"#utility.yul\":3280:3326   */\n      swap2\n      pop\n        /* \"#utility.yul\":3060:3332   */\n      pop\n      swap3\n      swap2\n      pop\n      pop\n      jump\t// out\n        /* \"#utility.yul\":3338:3456   */\n    tag_180:\n        /* \"#utility.yul\":3425:3449   */\n      tag_182\n        /* \"#utility.yul\":3443:3448   */\n      dup2\n        /* \"#utility.yul\":3425:3449   */\n      tag_183\n      jump\t// in\n    tag_182:\n        /* \"#utility.yul\":3420:3423   */\n      dup3\n        /* \"#utility.yul\":3413:3450   */\n      mstore\n        /* \"#utility.yul\":3403:3456   */\n      pop\n      pop\n      jump\t// out\n        /* \"#utility.yul\":3462:3684   */\n    tag_35:\n        /* \"#utility.yul\":3555:3559   */\n      0x00\n        /* \"#utility.yul\":3593:3595   */\n      0x20\n        /* \"#utility.yul\":3582:3591   */\n      dup3\n        /* \"#utility.yul\":3578:3596   */\n      add\n        /* \"#utility.yul\":3570:3596   */\n      swap1\n      pop\n        /* \"#utility.yul\":3606:3677   */\n      tag_185\n        /* \"#utility.yul\":3674:3675   */\n      0x00\n        /* \"#utility.yul\":3663:3672   */\n      dup4\n        /* \"#utility.yul\":3659:3676   */\n      add\n        /* \"#utility.yul\":3650:3656   */\n      dup5\n        /* \"#utility.yul\":3606:3677   */\n      tag_155\n      jump\t// in\n    tag_185:\n        /* \"#utility.yul\":3560:3684   */\n      swap3\n      swap2\n      pop\n      pop\n      jump\t// out\n        /* \"#utility.yul\":3690:3999   */\n    tag_26:\n        /* \"#utility.yul\":3801:3805   */\n      0x00\n        /* \"#utility.yul\":3839:3841   */\n      0x20\n        /* \"#utility.yul\":3828:3837   */\n      dup3\n        /* \"#utility.yul\":3824:3842   */\n      add\n        /* \"#utility.yul\":3816:3842   */\n      swap1\n      pop\n        /* \"#utility.yul\":3888:3897   */\n      dup2\n        /* \"#utility.yul\":3882:3886   */\n      dup2\n        /* \"#utility.yul\":3878:3898   */\n      sub\n        /* \"#utility.yul\":3874:3875   */\n      0x00\n        /* \"#utility.yul\":3863:3872   */\n      dup4\n        /* \"#utility.yul\":3859:3876   */\n      add\n        /* \"#utility.yul\":3852:3899   */\n      mstore\n        /* \"#utility.yul\":3916:3992   */\n      tag_187\n        /* \"#utility.yul\":3987:3991   */\n      dup2\n        /* \"#utility.yul\":3978:3984   */\n      dup5\n        /* \"#utility.yul\":3916:3992   */\n      tag_159\n      jump\t// in\n    tag_187:\n        /* \"#utility.yul\":3908:3992   */\n      swap1\n      pop\n        /* \"#utility.yul\":3806:3999   */\n      swap3\n      swap2\n      pop\n      pop\n      jump\t// out\n        /* \"#utility.yul\":4005:4243   */\n    tag_67:\n        /* \"#utility.yul\":4106:4110   */\n      0x00\n        /* \"#utility.yul\":4144:4146   */\n      0x20\n        /* \"#utility.yul\":4133:4142   */\n      dup3\n        /* \"#utility.yul\":4129:4147   */\n      add\n        /* \"#utility.yul\":4121:4147   */\n      swap1\n      pop\n        /* \"#utility.yul\":4157:4236   */\n      tag_189\n        /* \"#utility.yul\":4233:4234   */\n      0x00\n        /* \"#utility.yul\":4222:4231   */\n      dup4\n        /* \"#utility.yul\":4218:4235   */\n      add\n        /* \"#utility.yul\":4209:4215   */\n      dup5\n        /* \"#utility.yul\":4157:4236   */\n      tag_168\n      jump\t// in\n    tag_189:\n        /* \"#utility.yul\":4111:4243   */\n      swap3\n      swap2\n      pop\n      pop\n      jump\t// out\n        /* \"#utility.yul\":4249:4562   */\n    tag_21:\n        /* \"#utility.yul\":4362:4366   */\n      0x00\n        /* \"#utility.yul\":4400:4402   */\n      0x20\n        /* \"#utility.yul\":4389:4398   */\n      dup3\n        /* \"#utility.yul\":4385:4403   */\n      add\n        /* \"#utility.yul\":4377:4403   */\n      swap1\n      pop\n        /* \"#utility.yul\":4449:4458   */\n      dup2\n        /* \"#utility.yul\":4443:4447   */\n      dup2\n        /* \"#utility.yul\":4439:4459   */\n      sub\n        /* \"#utility.yul\":4435:4436   */\n      0x00\n        /* \"#utility.yul\":4424:4433   */\n      dup4\n        /* \"#utility.yul\":4420:4437   */\n      add\n        /* \"#utility.yul\":4413:4460   */\n      mstore\n        /* \"#utility.yul\":4477:4555   */\n      tag_191\n        /* \"#utility.yul\":4550:4554   */\n      dup2\n        /* \"#utility.yul\":4541:4547   */\n      dup5\n        /* \"#utility.yul\":4477:4555   */\n      tag_172\n      jump\t// in\n    tag_191:\n        /* \"#utility.yul\":4469:4555   */\n      swap1\n      pop\n        /* \"#utility.yul\":4367:4562   */\n      swap3\n      swap2\n      pop\n      pop\n      jump\t// out\n        /* \"#utility.yul\":4568:4790   */\n    tag_16:\n        /* \"#utility.yul\":4661:4665   */\n      0x00\n        /* \"#utility.yul\":4699:4701   */\n      0x20\n        /* \"#utility.yul\":4688:4697   */\n      dup3\n        /* \"#utility.yul\":4684:4702   */\n      add\n        /* \"#utility.yul\":4676:4702   */\n      swap1\n      pop\n        /* \"#utility.yul\":4712:4783   */\n      tag_193\n        /* \"#utility.yul\":4780:4781   */\n      0x00\n        /* \"#utility.yul\":4769:4778   */\n      dup4\n        /* \"#utility.yul\":4765:4782   */\n      add\n        /* \"#utility.yul\":4756:4762   */\n      dup5\n        /* \"#utility.yul\":4712:4783   */\n      tag_180\n      jump\t// in\n    tag_193:\n        /* \"#utility.yul\":4666:4790   */\n      swap3\n      swap2\n      pop\n      pop\n      jump\t// out\n        /* \"#utility.yul\":4796:4925   */\n    tag_120:\n        /* \"#utility.yul\":4830:4836   */\n      0x00\n        /* \"#utility.yul\":4857:4877   */\n      tag_195\n      tag_196\n      jump\t// in\n    tag_195:\n        /* \"#utility.yul\":4847:4877   */\n      swap1\n      pop\n        /* \"#utility.yul\":4886:4919   */\n      tag_197\n        /* \"#utility.yul\":4914:4918   */\n      dup3\n        /* \"#utility.yul\":4906:4912   */\n      dup3\n        /* \"#utility.yul\":4886:4919   */\n      tag_198\n      jump\t// in\n    tag_197:\n        /* \"#utility.yul\":4837:4925   */\n      swap2\n      swap1\n      pop\n      jump\t// out\n        /* \"#utility.yul\":4931:5006   */\n    tag_196:\n        /* \"#utility.yul\":4964:4970   */\n      0x00\n        /* \"#utility.yul\":4997:4999   */\n      0x40\n        /* \"#utility.yul\":4991:5000   */\n      mload\n        /* \"#utility.yul\":4981:5000   */\n      swap1\n      pop\n        /* \"#utility.yul\":4971:5006   */\n      swap1\n      jump\t// out\n        /* \"#utility.yul\":5012:5320   */\n    tag_119:\n        /* \"#utility.yul\":5074:5078   */\n      0x00\n        /* \"#utility.yul\":5164:5182   */\n      0xffffffffffffffff\n        /* \"#utility.yul\":5156:5162   */\n      dup3\n        /* \"#utility.yul\":5153:5183   */\n      gt\n        /* \"#utility.yul\":5150:5152   */\n      iszero\n      tag_201\n      jumpi\n        /* \"#utility.yul\":5186:5204   */\n      tag_202\n      tag_203\n      jump\t// in\n    tag_202:\n        /* \"#utility.yul\":5150:5152   */\n    tag_201:\n        /* \"#utility.yul\":5224:5253   */\n      tag_204\n        /* \"#utility.yul\":5246:5252   */\n      dup3\n        /* \"#utility.yul\":5224:5253   */\n      tag_167\n      jump\t// in\n    tag_204:\n        /* \"#utility.yul\":5216:5253   */\n      swap1\n      pop\n        /* \"#utility.yul\":5308:5312   */\n      0x20\n        /* \"#utility.yul\":5302:5306   */\n      dup2\n        /* \"#utility.yul\":5298:5313   */\n      add\n        /* \"#utility.yul\":5290:5313   */\n      swap1\n      pop\n        /* \"#utility.yul\":5079:5320   */\n      swap2\n      swap1\n      pop\n      jump\t// out\n        /* \"#utility.yul\":5326:5424   */\n    tag_162:\n        /* \"#utility.yul\":5377:5383   */\n      0x00\n        /* \"#utility.yul\":5411:5416   */\n      dup2\n        /* \"#utility.yul\":5405:5417   */\n      mload\n        /* \"#utility.yul\":5395:5417   */\n      swap1\n      pop\n        /* \"#utility.yul\":5384:5424   */\n      swap2\n      swap1\n      pop\n      jump\t// out\n        /* \"#utility.yul\":5430:5529   */\n    tag_175:\n        /* \"#utility.yul\":5482:5488   */\n      0x00\n        /* \"#utility.yul\":5516:5521   */\n      dup2\n        /* \"#utility.yul\":5510:5522   */\n      mload\n        /* \"#utility.yul\":5500:5522   */\n      swap1\n      pop\n        /* \"#utility.yul\":5489:5529   */\n      swap2\n      swap1\n      pop\n      jump\t// out\n        /* \"#utility.yul\":5535:5703   */\n    tag_164:\n        /* \"#utility.yul\":5618:5629   */\n      0x00\n        /* \"#utility.yul\":5652:5658   */\n      dup3\n        /* \"#utility.yul\":5647:5650   */\n      dup3\n        /* \"#utility.yul\":5640:5659   */\n      mstore\n        /* \"#utility.yul\":5692:5696   */\n      0x20\n        /* \"#utility.yul\":5687:5690   */\n      dup3\n        /* \"#utility.yul\":5683:5697   */\n      add\n        /* \"#utility.yul\":5668:5697   */\n      swap1\n      pop\n        /* \"#utility.yul\":5630:5703   */\n      swap3\n      swap2\n      pop\n      pop\n      jump\t// out\n        /* \"#utility.yul\":5709:5878   */\n    tag_177:\n        /* \"#utility.yul\":5793:5804   */\n      0x00\n        /* \"#utility.yul\":5827:5833   */\n      dup3\n        /* \"#utility.yul\":5822:5825   */\n      dup3\n        /* \"#utility.yul\":5815:5834   */\n      mstore\n        /* \"#utility.yul\":5867:5871   */\n      0x20\n        /* \"#utility.yul\":5862:5865   */\n      dup3\n        /* \"#utility.yul\":5858:5872   */\n      add\n        /* \"#utility.yul\":5843:5872   */\n      swap1\n      pop\n        /* \"#utility.yul\":5805:5878   */\n      swap3\n      swap2\n      pop\n      pop\n      jump\t// out\n        /* \"#utility.yul\":5884:5980   */\n    tag_158:\n        /* \"#utility.yul\":5921:5928   */\n      0x00\n        /* \"#utility.yul\":5950:5974   */\n      tag_210\n        /* \"#utility.yul\":5968:5973   */\n      dup3\n        /* \"#utility.yul\":5950:5974   */\n      tag_211\n      jump\t// in\n    tag_210:\n        /* \"#utility.yul\":5939:5974   */\n      swap1\n      pop\n        /* \"#utility.yul\":5929:5980   */\n      swap2\n      swap1\n      pop\n      jump\t// out\n        /* \"#utility.yul\":5986:6112   */\n    tag_211:\n        /* \"#utility.yul\":6023:6030   */\n      0x00\n        /* \"#utility.yul\":6063:6105   */\n      0xffffffffffffffffffffffffffffffffffffffff\n        /* \"#utility.yul\":6056:6061   */\n      dup3\n        /* \"#utility.yul\":6052:6106   */\n      and\n        /* \"#utility.yul\":6041:6106   */\n      swap1\n      pop\n        /* \"#utility.yul\":6031:6112   */\n      swap2\n      swap1\n      pop\n      jump\t// out\n        /* \"#utility.yul\":6118:6195   */\n    tag_183:\n        /* \"#utility.yul\":6155:6162   */\n      0x00\n        /* \"#utility.yul\":6184:6189   */\n      dup2\n        /* \"#utility.yul\":6173:6189   */\n      swap1\n      pop\n        /* \"#utility.yul\":6163:6195   */\n      swap2\n      swap1\n      pop\n      jump\t// out\n        /* \"#utility.yul\":6201:6322   */\n    tag_171:\n        /* \"#utility.yul\":6259:6268   */\n      0x00\n        /* \"#utility.yul\":6292:6316   */\n      tag_215\n        /* \"#utility.yul\":6310:6315   */\n      dup3\n        /* \"#utility.yul\":6292:6316   */\n      tag_183\n      jump\t// in\n    tag_215:\n        /* \"#utility.yul\":6279:6316   */\n      swap1\n      pop\n        /* \"#utility.yul\":6269:6322   */\n      swap2\n      swap1\n      pop\n      jump\t// out\n        /* \"#utility.yul\":6328:6635   */\n    tag_125:\n        /* \"#utility.yul\":6396:6397   */\n      0x00\n        /* \"#utility.yul\":6406:6519   */\n    tag_217:\n        /* \"#utility.yul\":6420:6426   */\n      dup4\n        /* \"#utility.yul\":6417:6418   */\n      dup2\n        /* \"#utility.yul\":6414:6427   */\n      lt\n        /* \"#utility.yul\":6406:6519   */\n      iszero\n      tag_219\n      jumpi\n        /* \"#utility.yul\":6505:6506   */\n      dup1\n        /* \"#utility.yul\":6500:6503   */\n      dup3\n        /* \"#utility.yul\":6496:6507   */\n      add\n        /* \"#utility.yul\":6490:6508   */\n      mload\n        /* \"#utility.yul\":6486:6487   */\n      dup2\n        /* \"#utility.yul\":6481:6484   */\n      dup5\n        /* \"#utility.yul\":6477:6488   */\n      add\n        /* \"#utility.yul\":6470:6509   */\n      mstore\n        /* \"#utility.yul\":6442:6444   */\n      0x20\n        /* \"#utility.yul\":6439:6440   */\n      dup2\n        /* \"#utility.yul\":6435:6445   */\n      add\n        /* \"#utility.yul\":6430:6445   */\n      swap1\n      pop\n        /* \"#utility.yul\":6406:6519   */\n      jump(tag_217)\n    tag_219:\n        /* \"#utility.yul\":6537:6543   */\n      dup4\n        /* \"#utility.yul\":6534:6535   */\n      dup2\n        /* \"#utility.yul\":6531:6544   */\n      gt\n        /* \"#utility.yul\":6528:6530   */\n      iszero\n      tag_220\n      jumpi\n        /* \"#utility.yul\":6617:6618   */\n      0x00\n        /* \"#utility.yul\":6608:6614   */\n      dup5\n        /* \"#utility.yul\":6603:6606   */\n      dup5\n        /* \"#utility.yul\":6599:6615   */\n      add\n        /* \"#utility.yul\":6592:6619   */\n      mstore\n        /* \"#utility.yul\":6528:6530   */\n    tag_220:\n        /* \"#utility.yul\":6377:6635   */\n      pop\n      pop\n      pop\n      pop\n      jump\t// out\n        /* \"#utility.yul\":6641:6961   */\n    tag_53:\n        /* \"#utility.yul\":6685:6691   */\n      0x00\n        /* \"#utility.yul\":6722:6723   */\n      0x02\n        /* \"#utility.yul\":6716:6720   */\n      dup3\n        /* \"#utility.yul\":6712:6724   */\n      div\n        /* \"#utility.yul\":6702:6724   */\n      swap1\n      pop\n        /* \"#utility.yul\":6769:6770   */\n      0x01\n        /* \"#utility.yul\":6763:6767   */\n      dup3\n        /* \"#utility.yul\":6759:6771   */\n      and\n        /* \"#utility.yul\":6790:6808   */\n      dup1\n        /* \"#utility.yul\":6780:6782   */\n      tag_222\n      jumpi\n        /* \"#utility.yul\":6846:6850   */\n      0x7f\n        /* \"#utility.yul\":6838:6844   */\n      dup3\n        /* \"#utility.yul\":6834:6851   */\n      and\n        /* \"#utility.yul\":6824:6851   */\n      swap2\n      pop\n        /* \"#utility.yul\":6780:6782   */\n    tag_222:\n        /* \"#utility.yul\":6908:6910   */\n      0x20\n        /* \"#utility.yul\":6900:6906   */\n      dup3\n        /* \"#utility.yul\":6897:6911   */\n      lt\n        /* \"#utility.yul\":6877:6895   */\n      dup2\n        /* \"#utility.yul\":6874:6912   */\n      eq\n        /* \"#utility.yul\":6871:6873   */\n      iszero\n      tag_223\n      jumpi\n        /* \"#utility.yul\":6927:6945   */\n      tag_224\n      tag_225\n      jump\t// in\n    tag_224:\n        /* \"#utility.yul\":6871:6873   */\n    tag_223:\n        /* \"#utility.yul\":6692:6961   */\n      pop\n      swap2\n      swap1\n      pop\n      jump\t// out\n        /* \"#utility.yul\":6967:7248   */\n    tag_198:\n        /* \"#utility.yul\":7050:7077   */\n      tag_227\n        /* \"#utility.yul\":7072:7076   */\n      dup3\n        /* \"#utility.yul\":7050:7077   */\n      tag_167\n      jump\t// in\n    tag_227:\n        /* \"#utility.yul\":7042:7048   */\n      dup2\n        /* \"#utility.yul\":7038:7078   */\n      add\n        /* \"#utility.yul\":7180:7186   */\n      dup2\n        /* \"#utility.yul\":7168:7178   */\n      dup2\n        /* \"#utility.yul\":7165:7187   */\n      lt\n        /* \"#utility.yul\":7144:7162   */\n      0xffffffffffffffff\n        /* \"#utility.yul\":7132:7142   */\n      dup3\n        /* \"#utility.yul\":7129:7163   */\n      gt\n        /* \"#utility.yul\":7126:7188   */\n      or\n        /* \"#utility.yul\":7123:7125   */\n      iszero\n      tag_228\n      jumpi\n        /* \"#utility.yul\":7191:7209   */\n      tag_229\n      tag_203\n      jump\t// in\n    tag_229:\n        /* \"#utility.yul\":7123:7125   */\n    tag_228:\n        /* \"#utility.yul\":7231:7241   */\n      dup1\n        /* \"#utility.yul\":7227:7229   */\n      0x40\n        /* \"#utility.yul\":7220:7242   */\n      mstore\n        /* \"#utility.yul\":7010:7248   */\n      pop\n      pop\n      pop\n      jump\t// out\n        /* \"#utility.yul\":7254:7434   */\n    tag_225:\n        /* \"#utility.yul\":7302:7379   */\n      0x4e487b7100000000000000000000000000000000000000000000000000000000\n        /* \"#utility.yul\":7299:7300   */\n      0x00\n        /* \"#utility.yul\":7292:7380   */\n      mstore\n        /* \"#utility.yul\":7399:7403   */\n      0x22\n        /* \"#utility.yul\":7396:7397   */\n      0x04\n        /* \"#utility.yul\":7389:7404   */\n      mstore\n        /* \"#utility.yul\":7423:7427   */\n      0x24\n        /* \"#utility.yul\":7420:7421   */\n      0x00\n        /* \"#utility.yul\":7413:7428   */\n      revert\n        /* \"#utility.yul\":7440:7620   */\n    tag_203:\n        /* \"#utility.yul\":7488:7565   */\n      0x4e487b7100000000000000000000000000000000000000000000000000000000\n        /* \"#utility.yul\":7485:7486   */\n      0x00\n        /* \"#utility.yul\":7478:7566   */\n      mstore\n        /* \"#utility.yul\":7585:7589   */\n      0x41\n        /* \"#utility.yul\":7582:7583   */\n      0x04\n        /* \"#utility.yul\":7575:7590   */\n      mstore\n        /* \"#utility.yul\":7609:7613   */\n      0x24\n        /* \"#utility.yul\":7606:7607   */\n      0x00\n        /* \"#utility.yul\":7599:7614   */\n      revert\n        /* \"#utility.yul\":7626:7743   */\n    tag_130:\n        /* \"#utility.yul\":7735:7736   */\n      0x00\n        /* \"#utility.yul\":7732:7733   */\n      dup1\n        /* \"#utility.yul\":7725:7737   */\n      revert\n        /* \"#utility.yul\":7749:7866   */\n    tag_123:\n        /* \"#utility.yul\":7858:7859   */\n      0x00\n        /* \"#utility.yul\":7855:7856   */\n      dup1\n        /* \"#utility.yul\":7848:7860   */\n      revert\n        /* \"#utility.yul\":7872:7989   */\n    tag_145:\n        /* \"#utility.yul\":7981:7982   */\n      0x00\n        /* \"#utility.yul\":7978:7979   */\n      dup1\n        /* \"#utility.yul\":7971:7983   */\n      revert\n        /* \"#utility.yul\":7995:8112   */\n    tag_142:\n        /* \"#utility.yul\":8104:8105   */\n      0x00\n        /* \"#utility.yul\":8101:8102   */\n      dup1\n        /* \"#utility.yul\":8094:8106   */\n      revert\n        /* \"#utility.yul\":8118:8220   */\n    tag_167:\n        /* \"#utility.yul\":8159:8165   */\n      0x00\n        /* \"#utility.yul\":8210:8212   */\n      0x1f\n        /* \"#utility.yul\":8206:8213   */\n      not\n        /* \"#utility.yul\":8201:8203   */\n      0x1f\n        /* \"#utility.yul\":8194:8199   */\n      dup4\n        /* \"#utility.yul\":8190:8204   */\n      add\n        /* \"#utility.yul\":8186:8214   */\n      and\n        /* \"#utility.yul\":8176:8214   */\n      swap1\n      pop\n        /* \"#utility.yul\":8166:8220   */\n      swap2\n      swap1\n      pop\n      jump\t// out\n        /* \"#utility.yul\":8226:8348   */\n    tag_135:\n        /* \"#utility.yul\":8299:8323   */\n      tag_238\n        /* \"#utility.yul\":8317:8322   */\n      dup2\n        /* \"#utility.yul\":8299:8323   */\n      tag_183\n      jump\t// in\n    tag_238:\n        /* \"#utility.yul\":8292:8297   */\n      dup2\n        /* \"#utility.yul\":8289:8324   */\n      eq\n        /* \"#utility.yul\":8279:8281   */\n      tag_239\n      jumpi\n        /* \"#utility.yul\":8338:8339   */\n      0x00\n        /* \"#utility.yul\":8335:8336   */\n      dup1\n        /* \"#utility.yul\":8328:8340   */\n      revert\n        /* \"#utility.yul\":8279:8281   */\n    tag_239:\n        /* \"#utility.yul\":8269:8348   */\n      pop\n      jump\t// out\n    stop\n\n    sub_0: assembly {\n            /* \"study/chapter04/newContract.sol\":53:416  contract testContract{... */\n          mstore(0x40, 0x80)\n            /* \"study/chapter04/newContract.sol\":99:148  constructor(uint _a) payable{... */\n          mload(0x40)\n          sub(codesize, bytecodeSize)\n          dup1\n          bytecodeSize\n          dup4\n          codecopy\n          dup2\n          dup2\n          add\n          0x40\n          mstore\n          dup2\n          add\n          swap1\n          tag_1\n          swap2\n          swap1\n          tag_2\n          jump\t// in\n        tag_1:\n            /* \"study/chapter04/newContract.sol\":139:141  _a */\n          dup1\n            /* \"study/chapter04/newContract.sol\":137:138  a */\n          0x00\n            /* \"study/chapter04/newContract.sol\":137:141  a=_a */\n          dup2\n          swap1\n          sstore\n          pop\n            /* \"study/chapter04/newContract.sol\":99:148  constructor(uint _a) payable{... */\n          pop\n            /* \"study/chapter04/newContract.sol\":53:416  contract testContract{... */\n          jump(tag_5)\n            /* \"#utility.yul\":7:150   */\n        tag_7:\n            /* \"#utility.yul\":64:69   */\n          0x00\n            /* \"#utility.yul\":95:101   */\n          dup2\n            /* \"#utility.yul\":89:102   */\n          mload\n            /* \"#utility.yul\":80:102   */\n          swap1\n          pop\n            /* \"#utility.yul\":111:144   */\n          tag_9\n            /* \"#utility.yul\":138:143   */\n          dup2\n            /* \"#utility.yul\":111:144   */\n          tag_10\n          jump\t// in\n        tag_9:\n            /* \"#utility.yul\":70:150   */\n          swap3\n          swap2\n          pop\n          pop\n          jump\t// out\n            /* \"#utility.yul\":156:507   */\n        tag_2:\n            /* \"#utility.yul\":226:232   */\n          0x00\n            /* \"#utility.yul\":275:277   */\n          0x20\n            /* \"#utility.yul\":263:272   */\n          dup3\n            /* \"#utility.yul\":254:261   */\n          dup5\n            /* \"#utility.yul\":250:273   */\n          sub\n            /* \"#utility.yul\":246:278   */\n          slt\n            /* \"#utility.yul\":243:245   */\n          iszero\n          tag_12\n          jumpi\n            /* \"#utility.yul\":281:360   */\n          tag_13\n          tag_14\n          jump\t// in\n        tag_13:\n            /* \"#utility.yul\":243:245   */\n        tag_12:\n            /* \"#utility.yul\":401:402   */\n          0x00\n            /* \"#utility.yul\":426:490   */\n          tag_15\n            /* \"#utility.yul\":482:489   */\n          dup5\n            /* \"#utility.yul\":473:479   */\n          dup3\n            /* \"#utility.yul\":462:471   */\n          dup6\n            /* \"#utility.yul\":458:480   */\n          add\n            /* \"#utility.yul\":426:490   */\n          tag_7\n          jump\t// in\n        tag_15:\n            /* \"#utility.yul\":416:490   */\n          swap2\n          pop\n            /* \"#utility.yul\":372:500   */\n          pop\n            /* \"#utility.yul\":233:507   */\n          swap3\n          swap2\n          pop\n          pop\n          jump\t// out\n            /* \"#utility.yul\":594:671   */\n        tag_18:\n            /* \"#utility.yul\":631:638   */\n          0x00\n            /* \"#utility.yul\":660:665   */\n          dup2\n            /* \"#utility.yul\":649:665   */\n          swap1\n          pop\n            /* \"#utility.yul\":639:671   */\n          swap2\n          swap1\n          pop\n          jump\t// out\n            /* \"#utility.yul\":800:917   */\n        tag_14:\n            /* \"#utility.yul\":909:910   */\n          0x00\n            /* \"#utility.yul\":906:907   */\n          dup1\n            /* \"#utility.yul\":899:911   */\n          revert\n            /* \"#utility.yul\":923:1045   */\n        tag_10:\n            /* \"#utility.yul\":996:1020   */\n          tag_24\n            /* \"#utility.yul\":1014:1019   */\n          dup2\n            /* \"#utility.yul\":996:1020   */\n          tag_18\n          jump\t// in\n        tag_24:\n            /* \"#utility.yul\":989:994   */\n          dup2\n            /* \"#utility.yul\":986:1021   */\n          eq\n            /* \"#utility.yul\":976:978   */\n          tag_25\n          jumpi\n            /* \"#utility.yul\":1035:1036   */\n          0x00\n            /* \"#utility.yul\":1032:1033   */\n          dup1\n            /* \"#utility.yul\":1025:1037   */\n          revert\n            /* \"#utility.yul\":976:978   */\n        tag_25:\n            /* \"#utility.yul\":966:1045   */\n          pop\n          jump\t// out\n            /* \"study/chapter04/newContract.sol\":53:416  contract testContract{... */\n        tag_5:\n          dataSize(sub_0)\n          dup1\n          dataOffset(sub_0)\n          0x00\n          codecopy\n          0x00\n          return\n        stop\n\n        sub_0: assembly {\n                /* \"study/chapter04/newContract.sol\":53:416  contract testContract{... */\n              mstore(0x40, 0x80)\n              callvalue\n              dup1\n              iszero\n              tag_1\n              jumpi\n              0x00\n              dup1\n              revert\n            tag_1:\n              pop\n              jumpi(tag_2, lt(calldatasize, 0x04))\n              shr(0xe0, calldataload(0x00))\n              dup1\n              0x0dbe671f\n              eq\n              tag_3\n              jumpi\n              dup1\n              0x12065fe0\n              eq\n              tag_4\n              jumpi\n              dup1\n              0xee919d50\n              eq\n              tag_5\n              jumpi\n              dup1\n              0xf5f5ba72\n              eq\n              tag_6\n              jumpi\n            tag_2:\n              0x00\n              dup1\n              revert\n                /* \"study/chapter04/newContract.sol\":80:93  uint public a */\n            tag_3:\n              tag_7\n              tag_8\n              jump\t// in\n            tag_7:\n              mload(0x40)\n              tag_9\n              swap2\n              swap1\n              tag_10\n              jump\t// in\n            tag_9:\n              mload(0x40)\n              dup1\n              swap2\n              sub\n              swap1\n              return\n                /* \"study/chapter04/newContract.sol\":153:246  function getBalance()external view returns(uint){... */\n            tag_4:\n              tag_11\n              tag_12\n              jump\t// in\n            tag_11:\n              mload(0x40)\n              tag_13\n              swap2\n              swap1\n              tag_10\n              jump\t// in\n            tag_13:\n              mload(0x40)\n              dup1\n              swap2\n              sub\n              swap1\n              return\n                /* \"study/chapter04/newContract.sol\":361:414  function setA(uint _a)external{... */\n            tag_5:\n              tag_14\n              0x04\n              dup1\n              calldatasize\n              sub\n              dup2\n              add\n              swap1\n              tag_15\n              swap2\n              swap1\n              tag_16\n              jump\t// in\n            tag_15:\n              tag_17\n              jump\t// in\n            tag_14:\n              stop\n                /* \"study/chapter04/newContract.sol\":256:356  function getContractName()external pure returns(string memory){... */\n            tag_6:\n              tag_18\n              tag_19\n              jump\t// in\n            tag_18:\n              mload(0x40)\n              tag_20\n              swap2\n              swap1\n              tag_21\n              jump\t// in\n            tag_20:\n              mload(0x40)\n              dup1\n              swap2\n              sub\n              swap1\n              return\n                /* \"study/chapter04/newContract.sol\":80:93  uint public a */\n            tag_8:\n              sload(0x00)\n              dup2\n              jump\t// out\n                /* \"study/chapter04/newContract.sol\":153:246  function getBalance()external view returns(uint){... */\n            tag_12:\n                /* \"study/chapter04/newContract.sol\":196:200  uint */\n              0x00\n                /* \"study/chapter04/newContract.sol\":218:239  address(this).balance */\n              selfbalance\n                /* \"study/chapter04/newContract.sol\":211:239  return address(this).balance */\n              swap1\n              pop\n                /* \"study/chapter04/newContract.sol\":153:246  function getBalance()external view returns(uint){... */\n              swap1\n              jump\t// out\n                /* \"study/chapter04/newContract.sol\":361:414  function setA(uint _a)external{... */\n            tag_17:\n                /* \"study/chapter04/newContract.sol\":405:407  _a */\n              dup1\n                /* \"study/chapter04/newContract.sol\":401:402  a */\n              0x00\n                /* \"study/chapter04/newContract.sol\":401:407  a = _a */\n              dup2\n              swap1\n              sstore\n              pop\n                /* \"study/chapter04/newContract.sol\":361:414  function setA(uint _a)external{... */\n              pop\n              jump\t// out\n                /* \"study/chapter04/newContract.sol\":256:356  function getContractName()external pure returns(string memory){... */\n            tag_19:\n                /* \"study/chapter04/newContract.sol\":304:317  string memory */\n              0x60\n                /* \"study/chapter04/newContract.sol\":328:349  return \"testContract\" */\n              mload(0x40)\n              dup1\n              0x40\n              add\n              0x40\n              mstore\n              dup1\n              0x0c\n              dup2\n              mstore\n              0x20\n              add\n              0x74657374436f6e74726163740000000000000000000000000000000000000000\n              dup2\n              mstore\n              pop\n              swap1\n              pop\n                /* \"study/chapter04/newContract.sol\":256:356  function getContractName()external pure returns(string memory){... */\n              swap1\n              jump\t// out\n                /* \"#utility.yul\":7:146   */\n            tag_26:\n                /* \"#utility.yul\":53:58   */\n              0x00\n                /* \"#utility.yul\":91:97   */\n              dup2\n                /* \"#utility.yul\":78:98   */\n              calldataload\n                /* \"#utility.yul\":69:98   */\n              swap1\n              pop\n                /* \"#utility.yul\":107:140   */\n              tag_28\n                /* \"#utility.yul\":134:139   */\n              dup2\n                /* \"#utility.yul\":107:140   */\n              tag_29\n              jump\t// in\n            tag_28:\n                /* \"#utility.yul\":59:146   */\n              swap3\n              swap2\n              pop\n              pop\n              jump\t// out\n                /* \"#utility.yul\":152:481   */\n            tag_16:\n                /* \"#utility.yul\":211:217   */\n              0x00\n                /* \"#utility.yul\":260:262   */\n              0x20\n                /* \"#utility.yul\":248:257   */\n              dup3\n                /* \"#utility.yul\":239:246   */\n              dup5\n                /* \"#utility.yul\":235:258   */\n              sub\n                /* \"#utility.yul\":231:263   */\n              slt\n                /* \"#utility.yul\":228:230   */\n              iszero\n              tag_31\n              jumpi\n                /* \"#utility.yul\":266:345   */\n              tag_32\n              tag_33\n              jump\t// in\n            tag_32:\n                /* \"#utility.yul\":228:230   */\n            tag_31:\n                /* \"#utility.yul\":386:387   */\n              0x00\n                /* \"#utility.yul\":411:464   */\n              tag_34\n                /* \"#utility.yul\":456:463   */\n              dup5\n                /* \"#utility.yul\":447:453   */\n              dup3\n                /* \"#utility.yul\":436:445   */\n              dup6\n                /* \"#utility.yul\":432:454   */\n              add\n                /* \"#utility.yul\":411:464   */\n              tag_26\n              jump\t// in\n            tag_34:\n                /* \"#utility.yul\":401:464   */\n              swap2\n              pop\n                /* \"#utility.yul\":357:474   */\n              pop\n                /* \"#utility.yul\":218:481   */\n              swap3\n              swap2\n              pop\n              pop\n              jump\t// out\n                /* \"#utility.yul\":487:851   */\n            tag_35:\n                /* \"#utility.yul\":575:578   */\n              0x00\n                /* \"#utility.yul\":603:642   */\n              tag_37\n                /* \"#utility.yul\":636:641   */\n              dup3\n                /* \"#utility.yul\":603:642   */\n              tag_38\n              jump\t// in\n            tag_37:\n                /* \"#utility.yul\":658:729   */\n              tag_39\n                /* \"#utility.yul\":722:728   */\n              dup2\n                /* \"#utility.yul\":717:720   */\n              dup6\n                /* \"#utility.yul\":658:729   */\n              tag_40\n              jump\t// in\n            tag_39:\n                /* \"#utility.yul\":651:729   */\n              swap4\n              pop\n                /* \"#utility.yul\":738:790   */\n              tag_41\n                /* \"#utility.yul\":783:789   */\n              dup2\n                /* \"#utility.yul\":778:781   */\n              dup6\n                /* \"#utility.yul\":771:775   */\n              0x20\n                /* \"#utility.yul\":764:769   */\n              dup7\n                /* \"#utility.yul\":760:776   */\n              add\n                /* \"#utility.yul\":738:790   */\n              tag_42\n              jump\t// in\n            tag_41:\n                /* \"#utility.yul\":815:844   */\n              tag_43\n                /* \"#utility.yul\":837:843   */\n              dup2\n                /* \"#utility.yul\":815:844   */\n              tag_44\n              jump\t// in\n            tag_43:\n                /* \"#utility.yul\":810:813   */\n              dup5\n                /* \"#utility.yul\":806:845   */\n              add\n                /* \"#utility.yul\":799:845   */\n              swap2\n              pop\n                /* \"#utility.yul\":579:851   */\n              pop\n              swap3\n              swap2\n              pop\n              pop\n              jump\t// out\n                /* \"#utility.yul\":857:975   */\n            tag_45:\n                /* \"#utility.yul\":944:968   */\n              tag_47\n                /* \"#utility.yul\":962:967   */\n              dup2\n                /* \"#utility.yul\":944:968   */\n              tag_48\n              jump\t// in\n            tag_47:\n                /* \"#utility.yul\":939:942   */\n              dup3\n                /* \"#utility.yul\":932:969   */\n              mstore\n                /* \"#utility.yul\":922:975   */\n              pop\n              pop\n              jump\t// out\n                /* \"#utility.yul\":981:1294   */\n            tag_21:\n                /* \"#utility.yul\":1094:1098   */\n              0x00\n                /* \"#utility.yul\":1132:1134   */\n              0x20\n                /* \"#utility.yul\":1121:1130   */\n              dup3\n                /* \"#utility.yul\":1117:1135   */\n              add\n                /* \"#utility.yul\":1109:1135   */\n              swap1\n              pop\n                /* \"#utility.yul\":1181:1190   */\n              dup2\n                /* \"#utility.yul\":1175:1179   */\n              dup2\n                /* \"#utility.yul\":1171:1191   */\n              sub\n                /* \"#utility.yul\":1167:1168   */\n              0x00\n                /* \"#utility.yul\":1156:1165   */\n              dup4\n                /* \"#utility.yul\":1152:1169   */\n              add\n                /* \"#utility.yul\":1145:1192   */\n              mstore\n                /* \"#utility.yul\":1209:1287   */\n              tag_50\n                /* \"#utility.yul\":1282:1286   */\n              dup2\n                /* \"#utility.yul\":1273:1279   */\n              dup5\n                /* \"#utility.yul\":1209:1287   */\n              tag_35\n              jump\t// in\n            tag_50:\n                /* \"#utility.yul\":1201:1287   */\n              swap1\n              pop\n                /* \"#utility.yul\":1099:1294   */\n              swap3\n              swap2\n              pop\n              pop\n              jump\t// out\n                /* \"#utility.yul\":1300:1522   */\n            tag_10:\n                /* \"#utility.yul\":1393:1397   */\n              0x00\n                /* \"#utility.yul\":1431:1433   */\n              0x20\n                /* \"#utility.yul\":1420:1429   */\n              dup3\n                /* \"#utility.yul\":1416:1434   */\n              add\n                /* \"#utility.yul\":1408:1434   */\n              swap1\n              pop\n                /* \"#utility.yul\":1444:1515   */\n              tag_52\n                /* \"#utility.yul\":1512:1513   */\n              0x00\n                /* \"#utility.yul\":1501:1510   */\n              dup4\n                /* \"#utility.yul\":1497:1514   */\n              add\n                /* \"#utility.yul\":1488:1494   */\n              dup5\n                /* \"#utility.yul\":1444:1515   */\n              tag_45\n              jump\t// in\n            tag_52:\n                /* \"#utility.yul\":1398:1522   */\n              swap3\n              swap2\n              pop\n              pop\n              jump\t// out\n                /* \"#utility.yul\":1609:1708   */\n            tag_38:\n                /* \"#utility.yul\":1661:1667   */\n              0x00\n                /* \"#utility.yul\":1695:1700   */\n              dup2\n                /* \"#utility.yul\":1689:1701   */\n              mload\n                /* \"#utility.yul\":1679:1701   */\n              swap1\n              pop\n                /* \"#utility.yul\":1668:1708   */\n              swap2\n              swap1\n              pop\n              jump\t// out\n                /* \"#utility.yul\":1714:1883   */\n            tag_40:\n                /* \"#utility.yul\":1798:1809   */\n              0x00\n                /* \"#utility.yul\":1832:1838   */\n              dup3\n                /* \"#utility.yul\":1827:1830   */\n              dup3\n                /* \"#utility.yul\":1820:1839   */\n              mstore\n                /* \"#utility.yul\":1872:1876   */\n              0x20\n                /* \"#utility.yul\":1867:1870   */\n              dup3\n                /* \"#utility.yul\":1863:1877   */\n              add\n                /* \"#utility.yul\":1848:1877   */\n              swap1\n              pop\n                /* \"#utility.yul\":1810:1883   */\n              swap3\n              swap2\n              pop\n              pop\n              jump\t// out\n                /* \"#utility.yul\":1889:1966   */\n            tag_48:\n                /* \"#utility.yul\":1926:1933   */\n              0x00\n                /* \"#utility.yul\":1955:1960   */\n              dup2\n                /* \"#utility.yul\":1944:1960   */\n              swap1\n              pop\n                /* \"#utility.yul\":1934:1966   */\n              swap2\n              swap1\n              pop\n              jump\t// out\n                /* \"#utility.yul\":1972:2279   */\n            tag_42:\n                /* \"#utility.yul\":2040:2041   */\n              0x00\n                /* \"#utility.yul\":2050:2163   */\n            tag_59:\n                /* \"#utility.yul\":2064:2070   */\n              dup4\n                /* \"#utility.yul\":2061:2062   */\n              dup2\n                /* \"#utility.yul\":2058:2071   */\n              lt\n                /* \"#utility.yul\":2050:2163   */\n              iszero\n              tag_61\n              jumpi\n                /* \"#utility.yul\":2149:2150   */\n              dup1\n                /* \"#utility.yul\":2144:2147   */\n              dup3\n                /* \"#utility.yul\":2140:2151   */\n              add\n                /* \"#utility.yul\":2134:2152   */\n              mload\n                /* \"#utility.yul\":2130:2131   */\n              dup2\n                /* \"#utility.yul\":2125:2128   */\n              dup5\n                /* \"#utility.yul\":2121:2132   */\n              add\n                /* \"#utility.yul\":2114:2153   */\n              mstore\n                /* \"#utility.yul\":2086:2088   */\n              0x20\n                /* \"#utility.yul\":2083:2084   */\n              dup2\n                /* \"#utility.yul\":2079:2089   */\n              add\n                /* \"#utility.yul\":2074:2089   */\n              swap1\n              pop\n                /* \"#utility.yul\":2050:2163   */\n              jump(tag_59)\n            tag_61:\n                /* \"#utility.yul\":2181:2187   */\n              dup4\n                /* \"#utility.yul\":2178:2179   */\n              dup2\n                /* \"#utility.yul\":2175:2188   */\n              gt\n                /* \"#utility.yul\":2172:2174   */\n              iszero\n              tag_62\n              jumpi\n                /* \"#utility.yul\":2261:2262   */\n              0x00\n                /* \"#utility.yul\":2252:2258   */\n              dup5\n                /* \"#utility.yul\":2247:2250   */\n              dup5\n                /* \"#utility.yul\":2243:2259   */\n              add\n                /* \"#utility.yul\":2236:2263   */\n              mstore\n                /* \"#utility.yul\":2172:2174   */\n            tag_62:\n                /* \"#utility.yul\":2021:2279   */\n              pop\n              pop\n              pop\n              pop\n              jump\t// out\n                /* \"#utility.yul\":2408:2525   */\n            tag_33:\n                /* \"#utility.yul\":2517:2518   */\n              0x00\n                /* \"#utility.yul\":2514:2515   */\n              dup1\n                /* \"#utility.yul\":2507:2519   */\n              revert\n                /* \"#utility.yul\":2531:2633   */\n            tag_44:\n                /* \"#utility.yul\":2572:2578   */\n              0x00\n                /* \"#utility.yul\":2623:2625   */\n              0x1f\n                /* \"#utility.yul\":2619:2626   */\n              not\n                /* \"#utility.yul\":2614:2616   */\n              0x1f\n                /* \"#utility.yul\":2607:2612   */\n              dup4\n                /* \"#utility.yul\":2603:2617   */\n              add\n                /* \"#utility.yul\":2599:2627   */\n              and\n                /* \"#utility.yul\":2589:2627   */\n              swap1\n              pop\n                /* \"#utility.yul\":2579:2633   */\n              swap2\n              swap1\n              pop\n              jump\t// out\n                /* \"#utility.yul\":2639:2761   */\n            tag_29:\n                /* \"#utility.yul\":2712:2736   */\n              tag_68\n                /* \"#utility.yul\":2730:2735   */\n              dup2\n                /* \"#utility.yul\":2712:2736   */\n              tag_48\n              jump\t// in\n            tag_68:\n                /* \"#utility.yul\":2705:2710   */\n              dup2\n                /* \"#utility.yul\":2702:2737   */\n              eq\n                /* \"#utility.yul\":2692:2694   */\n              tag_69\n              jumpi\n                /* \"#utility.yul\":2751:2752   */\n              0x00\n                /* \"#utility.yul\":2748:2749   */\n              dup1\n                /* \"#utility.yul\":2741:2753   */\n              revert\n                /* \"#utility.yul\":2692:2694   */\n            tag_69:\n                /* \"#utility.yul\":2682:2761   */\n              pop\n              jump\t// out\n\n            auxdata: 0xa264697066735822122097868b1fd941d70808f8a5ed06f56dc9c1cb974a20ae3e7a169cf5b98341ac0264736f6c63430008060033\n        }\n    }\n\n    auxdata: 0xa2646970667358221220a3d1582e7593eae966b9648ac7aac4d9faf7238f46c05ce453ecaf25ad83280964736f6c63430008060033\n}\n",
				"bytecode": {
					"linkReferences": {},
					"object": "608060405234801561001057600080fd5b50611041806100206000396000f3fe6080604052600436106100865760003560e01c8063d01bb4d511610059578063d01bb4d514610128578063d118d18714610153578063d46300fd1461017e578063ee919d50146101a9578063fb0c8628146101d257610086565b806312065fe01461008b57806375d0c0dc146100b65780637c000138146100e157806393d4e9a21461010c575b600080fd5b34801561009757600080fd5b506100a06101e9565b6040516100ad9190610a9c565b60405180910390f35b3480156100c257600080fd5b506100cb6101f1565b6040516100d89190610a7a565b60405180910390f35b3480156100ed57600080fd5b506100f661027f565b6040516101039190610a3d565b60405180910390f35b61012660048036038101906101219190610929565b61030d565b005b34801561013457600080fd5b5061013d610386565b60405161014a9190610a22565b60405180910390f35b34801561015f57600080fd5b506101686103ac565b6040516101759190610a7a565b60405180910390f35b34801561018a57600080fd5b5061019361043a565b6040516101a09190610a9c565b60405180910390f35b3480156101b557600080fd5b506101d060048036038101906101cb9190610929565b6104e0565b005b3480156101de57600080fd5b506101e761056e565b005b600047905090565b600280546101fe90610bc6565b80601f016020809104026020016040519081016040528092919081815260200182805461022a90610bc6565b80156102775780601f1061024c57610100808354040283529160200191610277565b820191906000526020600020905b81548152906001019060200180831161025a57829003601f168201915b505050505081565b6004805461028c90610bc6565b80601f01602080910402602001604051908101604052809291908181526020018280546102b890610bc6565b80156103055780601f106102da57610100808354040283529160200191610305565b820191906000526020600020905b8154815290600101906020018083116102e857829003601f168201915b505050505081565b80600560405161031c90610710565b6103269190610a5f565b6040518091039082f0905080158015610343573d6000803e3d6000fd5b506000806101000a81548173ffffffffffffffffffffffffffffffffffffffff021916908373ffffffffffffffffffffffffffffffffffffffff16021790555050565b600160009054906101000a900473ffffffffffffffffffffffffffffffffffffffff1681565b600380546103b990610bc6565b80601f01602080910402602001604051908101604052809291908181526020018280546103e590610bc6565b80156104325780601f1061040757610100808354040283529160200191610432565b820191906000526020600020905b81548152906001019060200180831161041557829003601f168201915b505050505081565b60008060009054906101000a900473ffffffffffffffffffffffffffffffffffffffff1673ffffffffffffffffffffffffffffffffffffffff16630dbe671f6040518163ffffffff1660e01b815260040160206040518083038186803b1580156104a357600080fd5b505afa1580156104b7573d6000803e3d6000fd5b505050506040513d601f19601f820116820180604052508101906104db9190610956565b905090565b60008054906101000a900473ffffffffffffffffffffffffffffffffffffffff1673ffffffffffffffffffffffffffffffffffffffff1663ee919d50826040518263ffffffff1660e01b81526004016105399190610a9c565b600060405180830381600087803b15801561055357600080fd5b505af1158015610567573d6000803e3d6000fd5b5050505050565b60008054906101000a900473ffffffffffffffffffffffffffffffffffffffff16600160006101000a81548173ffffffffffffffffffffffffffffffffffffffff021916908373ffffffffffffffffffffffffffffffffffffffff16021790555060008054906101000a900473ffffffffffffffffffffffffffffffffffffffff1673ffffffffffffffffffffffffffffffffffffffff1663f5f5ba726040518163ffffffff1660e01b815260040160006040518083038186803b15801561063557600080fd5b505afa158015610649573d6000803e3d6000fd5b505050506040513d6000823e3d601f19601f8201168201806040525081019061067291906108e0565b6002908051906020019061068792919061071d565b5060405180604001604052600c8152806020017f74657374436f6e74726163740000000000000000000000000000000000000000815250600390805190602001906106d392919061071d565b50604051806020016106e490610710565b6020820181038252601f19601f820116604052506004908051906020019061070d9291906107a3565b50565b61034880610cc483390190565b82805461072990610bc6565b90600052602060002090601f01602090048101928261074b5760008555610792565b82601f1061076457805160ff1916838001178555610792565b82800160010185558215610792579182015b82811115610791578251825591602001919060010190610776565b5b50905061079f9190610829565b5090565b8280546107af90610bc6565b90600052602060002090601f0160209004810192826107d15760008555610818565b82601f106107ea57805160ff1916838001178555610818565b82800160010185558215610818579182015b828111156108175782518255916020019190600101906107fc565b5b5090506108259190610829565b5090565b5b8082111561084257600081600090555060010161082a565b5090565b600061085961085484610adc565b610ab7565b90508281526020810184848401111561087557610874610c8c565b5b610880848285610b93565b509392505050565b600082601f83011261089d5761089c610c87565b5b81516108ad848260208601610846565b91505092915050565b6000813590506108c581610cac565b92915050565b6000815190506108da81610cac565b92915050565b6000602082840312156108f6576108f5610c96565b5b600082015167ffffffffffffffff81111561091457610913610c91565b5b61092084828501610888565b91505092915050565b60006020828403121561093f5761093e610c96565b5b600061094d848285016108b6565b91505092915050565b60006020828403121561096c5761096b610c96565b5b600061097a848285016108cb565b91505092915050565b61098c81610b45565b82525050565b600061099d82610b0d565b6109a78185610b23565b93506109b7818560208601610b93565b6109c081610c9b565b840191505092915050565b6109d481610b81565b82525050565b60006109e582610b18565b6109ef8185610b34565b93506109ff818560208601610b93565b610a0881610c9b565b840191505092915050565b610a1c81610b77565b82525050565b6000602082019050610a376000830184610983565b92915050565b60006020820190508181036000830152610a578184610992565b905092915050565b6000602082019050610a7460008301846109cb565b92915050565b60006020820190508181036000830152610a9481846109da565b905092915050565b6000602082019050610ab16000830184610a13565b92915050565b6000610ac1610ad2565b9050610acd8282610bf8565b919050565b6000604051905090565b600067ffffffffffffffff821115610af757610af6610c58565b5b610b0082610c9b565b9050602081019050919050565b600081519050919050565b600081519050919050565b600082825260208201905092915050565b600082825260208201905092915050565b6000610b5082610b57565b9050919050565b600073ffffffffffffffffffffffffffffffffffffffff82169050919050565b6000819050919050565b6000610b8c82610b77565b9050919050565b60005b83811015610bb1578082015181840152602081019050610b96565b83811115610bc0576000848401525b50505050565b60006002820490506001821680610bde57607f821691505b60208210811415610bf257610bf1610c29565b5b50919050565b610c0182610c9b565b810181811067ffffffffffffffff82111715610c2057610c1f610c58565b5b80604052505050565b7f4e487b7100000000000000000000000000000000000000000000000000000000600052602260045260246000fd5b7f4e487b7100000000000000000000000000000000000000000000000000000000600052604160045260246000fd5b600080fd5b600080fd5b600080fd5b600080fd5b6000601f19601f8301169050919050565b610cb581610b77565b8114610cc057600080fd5b5056fe608060405260405161034838038061034883398181016040528101906100259190610047565b806000819055505061009a565b60008151905061004181610083565b92915050565b60006020828403121561005d5761005c61007e565b5b600061006b84828501610032565b91505092915050565b6000819050919050565b600080fd5b61008c81610074565b811461009757600080fd5b50565b61029f806100a96000396000f3fe608060405234801561001057600080fd5b506004361061004c5760003560e01c80630dbe671f1461005157806312065fe01461006f578063ee919d501461008d578063f5f5ba72146100a9575b600080fd5b6100596100c7565b60405161006691906101c8565b60405180910390f35b6100776100cd565b60405161008491906101c8565b60405180910390f35b6100a760048036038101906100a29190610131565b6100d5565b005b6100b16100df565b6040516100be91906101a6565b60405180910390f35b60005481565b600047905090565b8060008190555050565b60606040518060400160405280600c81526020017f74657374436f6e74726163740000000000000000000000000000000000000000815250905090565b60008135905061012b81610252565b92915050565b6000602082840312156101475761014661023c565b5b60006101558482850161011c565b91505092915050565b6000610169826101e3565b61017381856101ee565b9350610183818560208601610209565b61018c81610241565b840191505092915050565b6101a0816101ff565b82525050565b600060208201905081810360008301526101c0818461015e565b905092915050565b60006020820190506101dd6000830184610197565b92915050565b600081519050919050565b600082825260208201905092915050565b6000819050919050565b60005b8381101561022757808201518184015260208101905061020c565b83811115610236576000848401525b50505050565b600080fd5b6000601f19601f8301169050919050565b61025b816101ff565b811461026657600080fd5b5056fea264697066735822122097868b1fd941d70808f8a5ed06f56dc9c1cb974a20ae3e7a169cf5b98341ac0264736f6c63430008060033a2646970667358221220a3d1582e7593eae966b9648ac7aac4d9faf7238f46c05ce453ecaf25ad83280964736f6c63430008060033",
					"opcodes": "PUSH1 0x80 PUSH1 0x40 MSTORE CALLVALUE DUP1 ISZERO PUSH2 0x10 JUMPI PUSH1 0x0 DUP1 REVERT JUMPDEST POP PUSH2 0x1041 DUP1 PUSH2 0x20 PUSH1 0x0 CODECOPY PUSH1 0x0 RETURN INVALID PUSH1 0x80 PUSH1 0x40 MSTORE PUSH1 0x4 CALLDATASIZE LT PUSH2 0x86 JUMPI PUSH1 0x0 CALLDATALOAD PUSH1 0xE0 SHR DUP1 PUSH4 0xD01BB4D5 GT PUSH2 0x59 JUMPI DUP1 PUSH4 0xD01BB4D5 EQ PUSH2 0x128 JUMPI DUP1 PUSH4 0xD118D187 EQ PUSH2 0x153 JUMPI DUP1 PUSH4 0xD46300FD EQ PUSH2 0x17E JUMPI DUP1 PUSH4 0xEE919D50 EQ PUSH2 0x1A9 JUMPI DUP1 PUSH4 0xFB0C8628 EQ PUSH2 0x1D2 JUMPI PUSH2 0x86 JUMP JUMPDEST DUP1 PUSH4 0x12065FE0 EQ PUSH2 0x8B JUMPI DUP1 PUSH4 0x75D0C0DC EQ PUSH2 0xB6 JUMPI DUP1 PUSH4 0x7C000138 EQ PUSH2 0xE1 JUMPI DUP1 PUSH4 0x93D4E9A2 EQ PUSH2 0x10C JUMPI JUMPDEST PUSH1 0x0 DUP1 REVERT JUMPDEST CALLVALUE DUP1 ISZERO PUSH2 0x97 JUMPI PUSH1 0x0 DUP1 REVERT JUMPDEST POP PUSH2 0xA0 PUSH2 0x1E9 JUMP JUMPDEST PUSH1 0x40 MLOAD PUSH2 0xAD SWAP2 SWAP1 PUSH2 0xA9C JUMP JUMPDEST PUSH1 0x40 MLOAD DUP1 SWAP2 SUB SWAP1 RETURN JUMPDEST CALLVALUE DUP1 ISZERO PUSH2 0xC2 JUMPI PUSH1 0x0 DUP1 REVERT JUMPDEST POP PUSH2 0xCB PUSH2 0x1F1 JUMP JUMPDEST PUSH1 0x40 MLOAD PUSH2 0xD8 SWAP2 SWAP1 PUSH2 0xA7A JUMP JUMPDEST PUSH1 0x40 MLOAD DUP1 SWAP2 SUB SWAP1 RETURN JUMPDEST CALLVALUE DUP1 ISZERO PUSH2 0xED JUMPI PUSH1 0x0 DUP1 REVERT JUMPDEST POP PUSH2 0xF6 PUSH2 0x27F JUMP JUMPDEST PUSH1 0x40 MLOAD PUSH2 0x103 SWAP2 SWAP1 PUSH2 0xA3D JUMP JUMPDEST PUSH1 0x40 MLOAD DUP1 SWAP2 SUB SWAP1 RETURN JUMPDEST PUSH2 0x126 PUSH1 0x4 DUP1 CALLDATASIZE SUB DUP2 ADD SWAP1 PUSH2 0x121 SWAP2 SWAP1 PUSH2 0x929 JUMP JUMPDEST PUSH2 0x30D JUMP JUMPDEST STOP JUMPDEST CALLVALUE DUP1 ISZERO PUSH2 0x134 JUMPI PUSH1 0x0 DUP1 REVERT JUMPDEST POP PUSH2 0x13D PUSH2 0x386 JUMP JUMPDEST PUSH1 0x40 MLOAD PUSH2 0x14A SWAP2 SWAP1 PUSH2 0xA22 JUMP JUMPDEST PUSH1 0x40 MLOAD DUP1 SWAP2 SUB SWAP1 RETURN JUMPDEST CALLVALUE DUP1 ISZERO PUSH2 0x15F JUMPI PUSH1 0x0 DUP1 REVERT JUMPDEST POP PUSH2 0x168 PUSH2 0x3AC JUMP JUMPDEST PUSH1 0x40 MLOAD PUSH2 0x175 SWAP2 SWAP1 PUSH2 0xA7A JUMP JUMPDEST PUSH1 0x40 MLOAD DUP1 SWAP2 SUB SWAP1 RETURN JUMPDEST CALLVALUE DUP1 ISZERO PUSH2 0x18A JUMPI PUSH1 0x0 DUP1 REVERT JUMPDEST POP PUSH2 0x193 PUSH2 0x43A JUMP JUMPDEST PUSH1 0x40 MLOAD PUSH2 0x1A0 SWAP2 SWAP1 PUSH2 0xA9C JUMP JUMPDEST PUSH1 0x40 MLOAD DUP1 SWAP2 SUB SWAP1 RETURN JUMPDEST CALLVALUE DUP1 ISZERO PUSH2 0x1B5 JUMPI PUSH1 0x0 DUP1 REVERT JUMPDEST POP PUSH2 0x1D0 PUSH1 0x4 DUP1 CALLDATASIZE SUB DUP2 ADD SWAP1 PUSH2 0x1CB SWAP2 SWAP1 PUSH2 0x929 JUMP JUMPDEST PUSH2 0x4E0 JUMP JUMPDEST STOP JUMPDEST CALLVALUE DUP1 ISZERO PUSH2 0x1DE JUMPI PUSH1 0x0 DUP1 REVERT JUMPDEST POP PUSH2 0x1E7 PUSH2 0x56E JUMP JUMPDEST STOP JUMPDEST PUSH1 0x0 SELFBALANCE SWAP1 POP SWAP1 JUMP JUMPDEST PUSH1 0x2 DUP1 SLOAD PUSH2 0x1FE SWAP1 PUSH2 0xBC6 JUMP JUMPDEST DUP1 PUSH1 0x1F ADD PUSH1 0x20 DUP1 SWAP2 DIV MUL PUSH1 0x20 ADD PUSH1 0x40 MLOAD SWAP1 DUP2 ADD PUSH1 0x40 MSTORE DUP1 SWAP3 SWAP2 SWAP1 DUP2 DUP2 MSTORE PUSH1 0x20 ADD DUP3 DUP1 SLOAD PUSH2 0x22A SWAP1 PUSH2 0xBC6 JUMP JUMPDEST DUP1 ISZERO PUSH2 0x277 JUMPI DUP1 PUSH1 0x1F LT PUSH2 0x24C JUMPI PUSH2 0x100 DUP1 DUP4 SLOAD DIV MUL DUP4 MSTORE SWAP2 PUSH1 0x20 ADD SWAP2 PUSH2 0x277 JUMP JUMPDEST DUP3 ADD SWAP2 SWAP1 PUSH1 0x0 MSTORE PUSH1 0x20 PUSH1 0x0 KECCAK256 SWAP1 JUMPDEST DUP2 SLOAD DUP2 MSTORE SWAP1 PUSH1 0x1 ADD SWAP1 PUSH1 0x20 ADD DUP1 DUP4 GT PUSH2 0x25A JUMPI DUP3 SWAP1 SUB PUSH1 0x1F AND DUP3 ADD SWAP2 JUMPDEST POP POP POP POP POP DUP2 JUMP JUMPDEST PUSH1 0x4 DUP1 SLOAD PUSH2 0x28C SWAP1 PUSH2 0xBC6 JUMP JUMPDEST DUP1 PUSH1 0x1F ADD PUSH1 0x20 DUP1 SWAP2 DIV MUL PUSH1 0x20 ADD PUSH1 0x40 MLOAD SWAP1 DUP2 ADD PUSH1 0x40 MSTORE DUP1 SWAP3 SWAP2 SWAP1 DUP2 DUP2 MSTORE PUSH1 0x20 ADD DUP3 DUP1 SLOAD PUSH2 0x2B8 SWAP1 PUSH2 0xBC6 JUMP JUMPDEST DUP1 ISZERO PUSH2 0x305 JUMPI DUP1 PUSH1 0x1F LT PUSH2 0x2DA JUMPI PUSH2 0x100 DUP1 DUP4 SLOAD DIV MUL DUP4 MSTORE SWAP2 PUSH1 0x20 ADD SWAP2 PUSH2 0x305 JUMP JUMPDEST DUP3 ADD SWAP2 SWAP1 PUSH1 0x0 MSTORE PUSH1 0x20 PUSH1 0x0 KECCAK256 SWAP1 JUMPDEST DUP2 SLOAD DUP2 MSTORE SWAP1 PUSH1 0x1 ADD SWAP1 PUSH1 0x20 ADD DUP1 DUP4 GT PUSH2 0x2E8 JUMPI DUP3 SWAP1 SUB PUSH1 0x1F AND DUP3 ADD SWAP2 JUMPDEST POP POP POP POP POP DUP2 JUMP JUMPDEST DUP1 PUSH1 0x5 PUSH1 0x40 MLOAD PUSH2 0x31C SWAP1 PUSH2 0x710 JUMP JUMPDEST PUSH2 0x326 SWAP2 SWAP1 PUSH2 0xA5F JUMP JUMPDEST PUSH1 0x40 MLOAD DUP1 SWAP2 SUB SWAP1 DUP3 CREATE SWAP1 POP DUP1 ISZERO DUP1 ISZERO PUSH2 0x343 JUMPI RETURNDATASIZE PUSH1 0x0 DUP1 RETURNDATACOPY RETURNDATASIZE PUSH1 0x0 REVERT JUMPDEST POP PUSH1 0x0 DUP1 PUSH2 0x100 EXP DUP2 SLOAD DUP2 PUSH20 0xFFFFFFFFFFFFFFFFFFFFFFFFFFFFFFFFFFFFFFFF MUL NOT AND SWAP1 DUP4 PUSH20 0xFFFFFFFFFFFFFFFFFFFFFFFFFFFFFFFFFFFFFFFF AND MUL OR SWAP1 SSTORE POP POP JUMP JUMPDEST PUSH1 0x1 PUSH1 0x0 SWAP1 SLOAD SWAP1 PUSH2 0x100 EXP SWAP1 DIV PUSH20 0xFFFFFFFFFFFFFFFFFFFFFFFFFFFFFFFFFFFFFFFF AND DUP2 JUMP JUMPDEST PUSH1 0x3 DUP1 SLOAD PUSH2 0x3B9 SWAP1 PUSH2 0xBC6 JUMP JUMPDEST DUP1 PUSH1 0x1F ADD PUSH1 0x20 DUP1 SWAP2 DIV MUL PUSH1 0x20 ADD PUSH1 0x40 MLOAD SWAP1 DUP2 ADD PUSH1 0x40 MSTORE DUP1 SWAP3 SWAP2 SWAP1 DUP2 DUP2 MSTORE PUSH1 0x20 ADD DUP3 DUP1 SLOAD PUSH2 0x3E5 SWAP1 PUSH2 0xBC6 JUMP JUMPDEST DUP1 ISZERO PUSH2 0x432 JUMPI DUP1 PUSH1 0x1F LT PUSH2 0x407 JUMPI PUSH2 0x100 DUP1 DUP4 SLOAD DIV MUL DUP4 MSTORE SWAP2 PUSH1 0x20 ADD SWAP2 PUSH2 0x432 JUMP JUMPDEST DUP3 ADD SWAP2 SWAP1 PUSH1 0x0 MSTORE PUSH1 0x20 PUSH1 0x0 KECCAK256 SWAP1 JUMPDEST DUP2 SLOAD DUP2 MSTORE SWAP1 PUSH1 0x1 ADD SWAP1 PUSH1 0x20 ADD DUP1 DUP4 GT PUSH2 0x415 JUMPI DUP3 SWAP1 SUB PUSH1 0x1F AND DUP3 ADD SWAP2 JUMPDEST POP POP POP POP POP DUP2 JUMP JUMPDEST PUSH1 0x0 DUP1 PUSH1 0x0 SWAP1 SLOAD SWAP1 PUSH2 0x100 EXP SWAP1 DIV PUSH20 0xFFFFFFFFFFFFFFFFFFFFFFFFFFFFFFFFFFFFFFFF AND PUSH20 0xFFFFFFFFFFFFFFFFFFFFFFFFFFFFFFFFFFFFFFFF AND PUSH4 0xDBE671F PUSH1 0x40 MLOAD DUP2 PUSH4 0xFFFFFFFF AND PUSH1 0xE0 SHL DUP2 MSTORE PUSH1 0x4 ADD PUSH1 0x20 PUSH1 0x40 MLOAD DUP1 DUP4 SUB DUP2 DUP7 DUP1 EXTCODESIZE ISZERO DUP1 ISZERO PUSH2 0x4A3 JUMPI PUSH1 0x0 DUP1 REVERT JUMPDEST POP GAS STATICCALL ISZERO DUP1 ISZERO PUSH2 0x4B7 JUMPI RETURNDATASIZE PUSH1 0x0 DUP1 RETURNDATACOPY RETURNDATASIZE PUSH1 0x0 REVERT JUMPDEST POP POP POP POP PUSH1 0x40 MLOAD RETURNDATASIZE PUSH1 0x1F NOT PUSH1 0x1F DUP3 ADD AND DUP3 ADD DUP1 PUSH1 0x40 MSTORE POP DUP2 ADD SWAP1 PUSH2 0x4DB SWAP2 SWAP1 PUSH2 0x956 JUMP JUMPDEST SWAP1 POP SWAP1 JUMP JUMPDEST PUSH1 0x0 DUP1 SLOAD SWAP1 PUSH2 0x100 EXP SWAP1 DIV PUSH20 0xFFFFFFFFFFFFFFFFFFFFFFFFFFFFFFFFFFFFFFFF AND PUSH20 0xFFFFFFFFFFFFFFFFFFFFFFFFFFFFFFFFFFFFFFFF AND PUSH4 0xEE919D50 DUP3 PUSH1 0x40 MLOAD DUP3 PUSH4 0xFFFFFFFF AND PUSH1 0xE0 SHL DUP2 MSTORE PUSH1 0x4 ADD PUSH2 0x539 SWAP2 SWAP1 PUSH2 0xA9C JUMP JUMPDEST PUSH1 0x0 PUSH1 0x40 MLOAD DUP1 DUP4 SUB DUP2 PUSH1 0x0 DUP8 DUP1 EXTCODESIZE ISZERO DUP1 ISZERO PUSH2 0x553 JUMPI PUSH1 0x0 DUP1 REVERT JUMPDEST POP GAS CALL ISZERO DUP1 ISZERO PUSH2 0x567 JUMPI RETURNDATASIZE PUSH1 0x0 DUP1 RETURNDATACOPY RETURNDATASIZE PUSH1 0x0 REVERT JUMPDEST POP POP POP POP POP JUMP JUMPDEST PUSH1 0x0 DUP1 SLOAD SWAP1 PUSH2 0x100 EXP SWAP1 DIV PUSH20 0xFFFFFFFFFFFFFFFFFFFFFFFFFFFFFFFFFFFFFFFF AND PUSH1 0x1 PUSH1 0x0 PUSH2 0x100 EXP DUP2 SLOAD DUP2 PUSH20 0xFFFFFFFFFFFFFFFFFFFFFFFFFFFFFFFFFFFFFFFF MUL NOT AND SWAP1 DUP4 PUSH20 0xFFFFFFFFFFFFFFFFFFFFFFFFFFFFFFFFFFFFFFFF AND MUL OR SWAP1 SSTORE POP PUSH1 0x0 DUP1 SLOAD SWAP1 PUSH2 0x100 EXP SWAP1 DIV PUSH20 0xFFFFFFFFFFFFFFFFFFFFFFFFFFFFFFFFFFFFFFFF AND PUSH20 0xFFFFFFFFFFFFFFFFFFFFFFFFFFFFFFFFFFFFFFFF AND PUSH4 0xF5F5BA72 PUSH1 0x40 MLOAD DUP2 PUSH4 0xFFFFFFFF AND PUSH1 0xE0 SHL DUP2 MSTORE PUSH1 0x4 ADD PUSH1 0x0 PUSH1 0x40 MLOAD DUP1 DUP4 SUB DUP2 DUP7 DUP1 EXTCODESIZE ISZERO DUP1 ISZERO PUSH2 0x635 JUMPI PUSH1 0x0 DUP1 REVERT JUMPDEST POP GAS STATICCALL ISZERO DUP1 ISZERO PUSH2 0x649 JUMPI RETURNDATASIZE PUSH1 0x0 DUP1 RETURNDATACOPY RETURNDATASIZE PUSH1 0x0 REVERT JUMPDEST POP POP POP POP PUSH1 0x40 MLOAD RETURNDATASIZE PUSH1 0x0 DUP3 RETURNDATACOPY RETURNDATASIZE PUSH1 0x1F NOT PUSH1 0x1F DUP3 ADD AND DUP3 ADD DUP1 PUSH1 0x40 MSTORE POP DUP2 ADD SWAP1 PUSH2 0x672 SWAP2 SWAP1 PUSH2 0x8E0 JUMP JUMPDEST PUSH1 0x2 SWAP1 DUP1 MLOAD SWAP1 PUSH1 0x20 ADD SWAP1 PUSH2 0x687 SWAP3 SWAP2 SWAP1 PUSH2 0x71D JUMP JUMPDEST POP PUSH1 0x40 MLOAD DUP1 PUSH1 0x40 ADD PUSH1 0x40 MSTORE PUSH1 0xC DUP2 MSTORE DUP1 PUSH1 0x20 ADD PUSH32 0x74657374436F6E74726163740000000000000000000000000000000000000000 DUP2 MSTORE POP PUSH1 0x3 SWAP1 DUP1 MLOAD SWAP1 PUSH1 0x20 ADD SWAP1 PUSH2 0x6D3 SWAP3 SWAP2 SWAP1 PUSH2 0x71D JUMP JUMPDEST POP PUSH1 0x40 MLOAD DUP1 PUSH1 0x20 ADD PUSH2 0x6E4 SWAP1 PUSH2 0x710 JUMP JUMPDEST PUSH1 0x20 DUP3 ADD DUP2 SUB DUP3 MSTORE PUSH1 0x1F NOT PUSH1 0x1F DUP3 ADD AND PUSH1 0x40 MSTORE POP PUSH1 0x4 SWAP1 DUP1 MLOAD SWAP1 PUSH1 0x20 ADD SWAP1 PUSH2 0x70D SWAP3 SWAP2 SWAP1 PUSH2 0x7A3 JUMP JUMPDEST POP JUMP JUMPDEST PUSH2 0x348 DUP1 PUSH2 0xCC4 DUP4 CODECOPY ADD SWAP1 JUMP JUMPDEST DUP3 DUP1 SLOAD PUSH2 0x729 SWAP1 PUSH2 0xBC6 JUMP JUMPDEST SWAP1 PUSH1 0x0 MSTORE PUSH1 0x20 PUSH1 0x0 KECCAK256 SWAP1 PUSH1 0x1F ADD PUSH1 0x20 SWAP1 DIV DUP2 ADD SWAP3 DUP3 PUSH2 0x74B JUMPI PUSH1 0x0 DUP6 SSTORE PUSH2 0x792 JUMP JUMPDEST DUP3 PUSH1 0x1F LT PUSH2 0x764 JUMPI DUP1 MLOAD PUSH1 0xFF NOT AND DUP4 DUP1 ADD OR DUP6 SSTORE PUSH2 0x792 JUMP JUMPDEST DUP3 DUP1 ADD PUSH1 0x1 ADD DUP6 SSTORE DUP3 ISZERO PUSH2 0x792 JUMPI SWAP2 DUP3 ADD JUMPDEST DUP3 DUP2 GT ISZERO PUSH2 0x791 JUMPI DUP3 MLOAD DUP3 SSTORE SWAP2 PUSH1 0x20 ADD SWAP2 SWAP1 PUSH1 0x1 ADD SWAP1 PUSH2 0x776 JUMP JUMPDEST JUMPDEST POP SWAP1 POP PUSH2 0x79F SWAP2 SWAP1 PUSH2 0x829 JUMP JUMPDEST POP SWAP1 JUMP JUMPDEST DUP3 DUP1 SLOAD PUSH2 0x7AF SWAP1 PUSH2 0xBC6 JUMP JUMPDEST SWAP1 PUSH1 0x0 MSTORE PUSH1 0x20 PUSH1 0x0 KECCAK256 SWAP1 PUSH1 0x1F ADD PUSH1 0x20 SWAP1 DIV DUP2 ADD SWAP3 DUP3 PUSH2 0x7D1 JUMPI PUSH1 0x0 DUP6 SSTORE PUSH2 0x818 JUMP JUMPDEST DUP3 PUSH1 0x1F LT PUSH2 0x7EA JUMPI DUP1 MLOAD PUSH1 0xFF NOT AND DUP4 DUP1 ADD OR DUP6 SSTORE PUSH2 0x818 JUMP JUMPDEST DUP3 DUP1 ADD PUSH1 0x1 ADD DUP6 SSTORE DUP3 ISZERO PUSH2 0x818 JUMPI SWAP2 DUP3 ADD JUMPDEST DUP3 DUP2 GT ISZERO PUSH2 0x817 JUMPI DUP3 MLOAD DUP3 SSTORE SWAP2 PUSH1 0x20 ADD SWAP2 SWAP1 PUSH1 0x1 ADD SWAP1 PUSH2 0x7FC JUMP JUMPDEST JUMPDEST POP SWAP1 POP PUSH2 0x825 SWAP2 SWAP1 PUSH2 0x829 JUMP JUMPDEST POP SWAP1 JUMP JUMPDEST JUMPDEST DUP1 DUP3 GT ISZERO PUSH2 0x842 JUMPI PUSH1 0x0 DUP2 PUSH1 0x0 SWAP1 SSTORE POP PUSH1 0x1 ADD PUSH2 0x82A JUMP JUMPDEST POP SWAP1 JUMP JUMPDEST PUSH1 0x0 PUSH2 0x859 PUSH2 0x854 DUP5 PUSH2 0xADC JUMP JUMPDEST PUSH2 0xAB7 JUMP JUMPDEST SWAP1 POP DUP3 DUP2 MSTORE PUSH1 0x20 DUP2 ADD DUP5 DUP5 DUP5 ADD GT ISZERO PUSH2 0x875 JUMPI PUSH2 0x874 PUSH2 0xC8C JUMP JUMPDEST JUMPDEST PUSH2 0x880 DUP5 DUP3 DUP6 PUSH2 0xB93 JUMP JUMPDEST POP SWAP4 SWAP3 POP POP POP JUMP JUMPDEST PUSH1 0x0 DUP3 PUSH1 0x1F DUP4 ADD SLT PUSH2 0x89D JUMPI PUSH2 0x89C PUSH2 0xC87 JUMP JUMPDEST JUMPDEST DUP2 MLOAD PUSH2 0x8AD DUP5 DUP3 PUSH1 0x20 DUP7 ADD PUSH2 0x846 JUMP JUMPDEST SWAP2 POP POP SWAP3 SWAP2 POP POP JUMP JUMPDEST PUSH1 0x0 DUP2 CALLDATALOAD SWAP1 POP PUSH2 0x8C5 DUP2 PUSH2 0xCAC JUMP JUMPDEST SWAP3 SWAP2 POP POP JUMP JUMPDEST PUSH1 0x0 DUP2 MLOAD SWAP1 POP PUSH2 0x8DA DUP2 PUSH2 0xCAC JUMP JUMPDEST SWAP3 SWAP2 POP POP JUMP JUMPDEST PUSH1 0x0 PUSH1 0x20 DUP3 DUP5 SUB SLT ISZERO PUSH2 0x8F6 JUMPI PUSH2 0x8F5 PUSH2 0xC96 JUMP JUMPDEST JUMPDEST PUSH1 0x0 DUP3 ADD MLOAD PUSH8 0xFFFFFFFFFFFFFFFF DUP2 GT ISZERO PUSH2 0x914 JUMPI PUSH2 0x913 PUSH2 0xC91 JUMP JUMPDEST JUMPDEST PUSH2 0x920 DUP5 DUP3 DUP6 ADD PUSH2 0x888 JUMP JUMPDEST SWAP2 POP POP SWAP3 SWAP2 POP POP JUMP JUMPDEST PUSH1 0x0 PUSH1 0x20 DUP3 DUP5 SUB SLT ISZERO PUSH2 0x93F JUMPI PUSH2 0x93E PUSH2 0xC96 JUMP JUMPDEST JUMPDEST PUSH1 0x0 PUSH2 0x94D DUP5 DUP3 DUP6 ADD PUSH2 0x8B6 JUMP JUMPDEST SWAP2 POP POP SWAP3 SWAP2 POP POP JUMP JUMPDEST PUSH1 0x0 PUSH1 0x20 DUP3 DUP5 SUB SLT ISZERO PUSH2 0x96C JUMPI PUSH2 0x96B PUSH2 0xC96 JUMP JUMPDEST JUMPDEST PUSH1 0x0 PUSH2 0x97A DUP5 DUP3 DUP6 ADD PUSH2 0x8CB JUMP JUMPDEST SWAP2 POP POP SWAP3 SWAP2 POP POP JUMP JUMPDEST PUSH2 0x98C DUP2 PUSH2 0xB45 JUMP JUMPDEST DUP3 MSTORE POP POP JUMP JUMPDEST PUSH1 0x0 PUSH2 0x99D DUP3 PUSH2 0xB0D JUMP JUMPDEST PUSH2 0x9A7 DUP2 DUP6 PUSH2 0xB23 JUMP JUMPDEST SWAP4 POP PUSH2 0x9B7 DUP2 DUP6 PUSH1 0x20 DUP7 ADD PUSH2 0xB93 JUMP JUMPDEST PUSH2 0x9C0 DUP2 PUSH2 0xC9B JUMP JUMPDEST DUP5 ADD SWAP2 POP POP SWAP3 SWAP2 POP POP JUMP JUMPDEST PUSH2 0x9D4 DUP2 PUSH2 0xB81 JUMP JUMPDEST DUP3 MSTORE POP POP JUMP JUMPDEST PUSH1 0x0 PUSH2 0x9E5 DUP3 PUSH2 0xB18 JUMP JUMPDEST PUSH2 0x9EF DUP2 DUP6 PUSH2 0xB34 JUMP JUMPDEST SWAP4 POP PUSH2 0x9FF DUP2 DUP6 PUSH1 0x20 DUP7 ADD PUSH2 0xB93 JUMP JUMPDEST PUSH2 0xA08 DUP2 PUSH2 0xC9B JUMP JUMPDEST DUP5 ADD SWAP2 POP POP SWAP3 SWAP2 POP POP JUMP JUMPDEST PUSH2 0xA1C DUP2 PUSH2 0xB77 JUMP JUMPDEST DUP3 MSTORE POP POP JUMP JUMPDEST PUSH1 0x0 PUSH1 0x20 DUP3 ADD SWAP1 POP PUSH2 0xA37 PUSH1 0x0 DUP4 ADD DUP5 PUSH2 0x983 JUMP JUMPDEST SWAP3 SWAP2 POP POP JUMP JUMPDEST PUSH1 0x0 PUSH1 0x20 DUP3 ADD SWAP1 POP DUP2 DUP2 SUB PUSH1 0x0 DUP4 ADD MSTORE PUSH2 0xA57 DUP2 DUP5 PUSH2 0x992 JUMP JUMPDEST SWAP1 POP SWAP3 SWAP2 POP POP JUMP JUMPDEST PUSH1 0x0 PUSH1 0x20 DUP3 ADD SWAP1 POP PUSH2 0xA74 PUSH1 0x0 DUP4 ADD DUP5 PUSH2 0x9CB JUMP JUMPDEST SWAP3 SWAP2 POP POP JUMP JUMPDEST PUSH1 0x0 PUSH1 0x20 DUP3 ADD SWAP1 POP DUP2 DUP2 SUB PUSH1 0x0 DUP4 ADD MSTORE PUSH2 0xA94 DUP2 DUP5 PUSH2 0x9DA JUMP JUMPDEST SWAP1 POP SWAP3 SWAP2 POP POP JUMP JUMPDEST PUSH1 0x0 PUSH1 0x20 DUP3 ADD SWAP1 POP PUSH2 0xAB1 PUSH1 0x0 DUP4 ADD DUP5 PUSH2 0xA13 JUMP JUMPDEST SWAP3 SWAP2 POP POP JUMP JUMPDEST PUSH1 0x0 PUSH2 0xAC1 PUSH2 0xAD2 JUMP JUMPDEST SWAP1 POP PUSH2 0xACD DUP3 DUP3 PUSH2 0xBF8 JUMP JUMPDEST SWAP2 SWAP1 POP JUMP JUMPDEST PUSH1 0x0 PUSH1 0x40 MLOAD SWAP1 POP SWAP1 JUMP JUMPDEST PUSH1 0x0 PUSH8 0xFFFFFFFFFFFFFFFF DUP3 GT ISZERO PUSH2 0xAF7 JUMPI PUSH2 0xAF6 PUSH2 0xC58 JUMP JUMPDEST JUMPDEST PUSH2 0xB00 DUP3 PUSH2 0xC9B JUMP JUMPDEST SWAP1 POP PUSH1 0x20 DUP2 ADD SWAP1 POP SWAP2 SWAP1 POP JUMP JUMPDEST PUSH1 0x0 DUP2 MLOAD SWAP1 POP SWAP2 SWAP1 POP JUMP JUMPDEST PUSH1 0x0 DUP2 MLOAD SWAP1 POP SWAP2 SWAP1 POP JUMP JUMPDEST PUSH1 0x0 DUP3 DUP3 MSTORE PUSH1 0x20 DUP3 ADD SWAP1 POP SWAP3 SWAP2 POP POP JUMP JUMPDEST PUSH1 0x0 DUP3 DUP3 MSTORE PUSH1 0x20 DUP3 ADD SWAP1 POP SWAP3 SWAP2 POP POP JUMP JUMPDEST PUSH1 0x0 PUSH2 0xB50 DUP3 PUSH2 0xB57 JUMP JUMPDEST SWAP1 POP SWAP2 SWAP1 POP JUMP JUMPDEST PUSH1 0x0 PUSH20 0xFFFFFFFFFFFFFFFFFFFFFFFFFFFFFFFFFFFFFFFF DUP3 AND SWAP1 POP SWAP2 SWAP1 POP JUMP JUMPDEST PUSH1 0x0 DUP2 SWAP1 POP SWAP2 SWAP1 POP JUMP JUMPDEST PUSH1 0x0 PUSH2 0xB8C DUP3 PUSH2 0xB77 JUMP JUMPDEST SWAP1 POP SWAP2 SWAP1 POP JUMP JUMPDEST PUSH1 0x0 JUMPDEST DUP4 DUP2 LT ISZERO PUSH2 0xBB1 JUMPI DUP1 DUP3 ADD MLOAD DUP2 DUP5 ADD MSTORE PUSH1 0x20 DUP2 ADD SWAP1 POP PUSH2 0xB96 JUMP JUMPDEST DUP4 DUP2 GT ISZERO PUSH2 0xBC0 JUMPI PUSH1 0x0 DUP5 DUP5 ADD MSTORE JUMPDEST POP POP POP POP JUMP JUMPDEST PUSH1 0x0 PUSH1 0x2 DUP3 DIV SWAP1 POP PUSH1 0x1 DUP3 AND DUP1 PUSH2 0xBDE JUMPI PUSH1 0x7F DUP3 AND SWAP2 POP JUMPDEST PUSH1 0x20 DUP3 LT DUP2 EQ ISZERO PUSH2 0xBF2 JUMPI PUSH2 0xBF1 PUSH2 0xC29 JUMP JUMPDEST JUMPDEST POP SWAP2 SWAP1 POP JUMP JUMPDEST PUSH2 0xC01 DUP3 PUSH2 0xC9B JUMP JUMPDEST DUP2 ADD DUP2 DUP2 LT PUSH8 0xFFFFFFFFFFFFFFFF DUP3 GT OR ISZERO PUSH2 0xC20 JUMPI PUSH2 0xC1F PUSH2 0xC58 JUMP JUMPDEST JUMPDEST DUP1 PUSH1 0x40 MSTORE POP POP POP JUMP JUMPDEST PUSH32 0x4E487B7100000000000000000000000000000000000000000000000000000000 PUSH1 0x0 MSTORE PUSH1 0x22 PUSH1 0x4 MSTORE PUSH1 0x24 PUSH1 0x0 REVERT JUMPDEST PUSH32 0x4E487B7100000000000000000000000000000000000000000000000000000000 PUSH1 0x0 MSTORE PUSH1 0x41 PUSH1 0x4 MSTORE PUSH1 0x24 PUSH1 0x0 REVERT JUMPDEST PUSH1 0x0 DUP1 REVERT JUMPDEST PUSH1 0x0 DUP1 REVERT JUMPDEST PUSH1 0x0 DUP1 REVERT JUMPDEST PUSH1 0x0 DUP1 REVERT JUMPDEST PUSH1 0x0 PUSH1 0x1F NOT PUSH1 0x1F DUP4 ADD AND SWAP1 POP SWAP2 SWAP1 POP JUMP JUMPDEST PUSH2 0xCB5 DUP2 PUSH2 0xB77 JUMP JUMPDEST DUP2 EQ PUSH2 0xCC0 JUMPI PUSH1 0x0 DUP1 REVERT JUMPDEST POP JUMP INVALID PUSH1 0x80 PUSH1 0x40 MSTORE PUSH1 0x40 MLOAD PUSH2 0x348 CODESIZE SUB DUP1 PUSH2 0x348 DUP4 CODECOPY DUP2 DUP2 ADD PUSH1 0x40 MSTORE DUP2 ADD SWAP1 PUSH2 0x25 SWAP2 SWAP1 PUSH2 0x47 JUMP JUMPDEST DUP1 PUSH1 0x0 DUP2 SWAP1 SSTORE POP POP PUSH2 0x9A JUMP JUMPDEST PUSH1 0x0 DUP2 MLOAD SWAP1 POP PUSH2 0x41 DUP2 PUSH2 0x83 JUMP JUMPDEST SWAP3 SWAP2 POP POP JUMP JUMPDEST PUSH1 0x0 PUSH1 0x20 DUP3 DUP5 SUB SLT ISZERO PUSH2 0x5D JUMPI PUSH2 0x5C PUSH2 0x7E JUMP JUMPDEST JUMPDEST PUSH1 0x0 PUSH2 0x6B DUP5 DUP3 DUP6 ADD PUSH2 0x32 JUMP JUMPDEST SWAP2 POP POP SWAP3 SWAP2 POP POP JUMP JUMPDEST PUSH1 0x0 DUP2 SWAP1 POP SWAP2 SWAP1 POP JUMP JUMPDEST PUSH1 0x0 DUP1 REVERT JUMPDEST PUSH2 0x8C DUP2 PUSH2 0x74 JUMP JUMPDEST DUP2 EQ PUSH2 0x97 JUMPI PUSH1 0x0 DUP1 REVERT JUMPDEST POP JUMP JUMPDEST PUSH2 0x29F DUP1 PUSH2 0xA9 PUSH1 0x0 CODECOPY PUSH1 0x0 RETURN INVALID PUSH1 0x80 PUSH1 0x40 MSTORE CALLVALUE DUP1 ISZERO PUSH2 0x10 JUMPI PUSH1 0x0 DUP1 REVERT JUMPDEST POP PUSH1 0x4 CALLDATASIZE LT PUSH2 0x4C JUMPI PUSH1 0x0 CALLDATALOAD PUSH1 0xE0 SHR DUP1 PUSH4 0xDBE671F EQ PUSH2 0x51 JUMPI DUP1 PUSH4 0x12065FE0 EQ PUSH2 0x6F JUMPI DUP1 PUSH4 0xEE919D50 EQ PUSH2 0x8D JUMPI DUP1 PUSH4 0xF5F5BA72 EQ PUSH2 0xA9 JUMPI JUMPDEST PUSH1 0x0 DUP1 REVERT JUMPDEST PUSH2 0x59 PUSH2 0xC7 JUMP JUMPDEST PUSH1 0x40 MLOAD PUSH2 0x66 SWAP2 SWAP1 PUSH2 0x1C8 JUMP JUMPDEST PUSH1 0x40 MLOAD DUP1 SWAP2 SUB SWAP1 RETURN JUMPDEST PUSH2 0x77 PUSH2 0xCD JUMP JUMPDEST PUSH1 0x40 MLOAD PUSH2 0x84 SWAP2 SWAP1 PUSH2 0x1C8 JUMP JUMPDEST PUSH1 0x40 MLOAD DUP1 SWAP2 SUB SWAP1 RETURN JUMPDEST PUSH2 0xA7 PUSH1 0x4 DUP1 CALLDATASIZE SUB DUP2 ADD SWAP1 PUSH2 0xA2 SWAP2 SWAP1 PUSH2 0x131 JUMP JUMPDEST PUSH2 0xD5 JUMP JUMPDEST STOP JUMPDEST PUSH2 0xB1 PUSH2 0xDF JUMP JUMPDEST PUSH1 0x40 MLOAD PUSH2 0xBE SWAP2 SWAP1 PUSH2 0x1A6 JUMP JUMPDEST PUSH1 0x40 MLOAD DUP1 SWAP2 SUB SWAP1 RETURN JUMPDEST PUSH1 0x0 SLOAD DUP2 JUMP JUMPDEST PUSH1 0x0 SELFBALANCE SWAP1 POP SWAP1 JUMP JUMPDEST DUP1 PUSH1 0x0 DUP2 SWAP1 SSTORE POP POP JUMP JUMPDEST PUSH1 0x60 PUSH1 0x40 MLOAD DUP1 PUSH1 0x40 ADD PUSH1 0x40 MSTORE DUP1 PUSH1 0xC DUP2 MSTORE PUSH1 0x20 ADD PUSH32 0x74657374436F6E74726163740000000000000000000000000000000000000000 DUP2 MSTORE POP SWAP1 POP SWAP1 JUMP JUMPDEST PUSH1 0x0 DUP2 CALLDATALOAD SWAP1 POP PUSH2 0x12B DUP2 PUSH2 0x252 JUMP JUMPDEST SWAP3 SWAP2 POP POP JUMP JUMPDEST PUSH1 0x0 PUSH1 0x20 DUP3 DUP5 SUB SLT ISZERO PUSH2 0x147 JUMPI PUSH2 0x146 PUSH2 0x23C JUMP JUMPDEST JUMPDEST PUSH1 0x0 PUSH2 0x155 DUP5 DUP3 DUP6 ADD PUSH2 0x11C JUMP JUMPDEST SWAP2 POP POP SWAP3 SWAP2 POP POP JUMP JUMPDEST PUSH1 0x0 PUSH2 0x169 DUP3 PUSH2 0x1E3 JUMP JUMPDEST PUSH2 0x173 DUP2 DUP6 PUSH2 0x1EE JUMP JUMPDEST SWAP4 POP PUSH2 0x183 DUP2 DUP6 PUSH1 0x20 DUP7 ADD PUSH2 0x209 JUMP JUMPDEST PUSH2 0x18C DUP2 PUSH2 0x241 JUMP JUMPDEST DUP5 ADD SWAP2 POP POP SWAP3 SWAP2 POP POP JUMP JUMPDEST PUSH2 0x1A0 DUP2 PUSH2 0x1FF JUMP JUMPDEST DUP3 MSTORE POP POP JUMP JUMPDEST PUSH1 0x0 PUSH1 0x20 DUP3 ADD SWAP1 POP DUP2 DUP2 SUB PUSH1 0x0 DUP4 ADD MSTORE PUSH2 0x1C0 DUP2 DUP5 PUSH2 0x15E JUMP JUMPDEST SWAP1 POP SWAP3 SWAP2 POP POP JUMP JUMPDEST PUSH1 0x0 PUSH1 0x20 DUP3 ADD SWAP1 POP PUSH2 0x1DD PUSH1 0x0 DUP4 ADD DUP5 PUSH2 0x197 JUMP JUMPDEST SWAP3 SWAP2 POP POP JUMP JUMPDEST PUSH1 0x0 DUP2 MLOAD SWAP1 POP SWAP2 SWAP1 POP JUMP JUMPDEST PUSH1 0x0 DUP3 DUP3 MSTORE PUSH1 0x20 DUP3 ADD SWAP1 POP SWAP3 SWAP2 POP POP JUMP JUMPDEST PUSH1 0x0 DUP2 SWAP1 POP SWAP2 SWAP1 POP JUMP JUMPDEST PUSH1 0x0 JUMPDEST DUP4 DUP2 LT ISZERO PUSH2 0x227 JUMPI DUP1 DUP3 ADD MLOAD DUP2 DUP5 ADD MSTORE PUSH1 0x20 DUP2 ADD SWAP1 POP PUSH2 0x20C JUMP JUMPDEST DUP4 DUP2 GT ISZERO PUSH2 0x236 JUMPI PUSH1 0x0 DUP5 DUP5 ADD MSTORE JUMPDEST POP POP POP POP JUMP JUMPDEST PUSH1 0x0 DUP1 REVERT JUMPDEST PUSH1 0x0 PUSH1 0x1F NOT PUSH1 0x1F DUP4 ADD AND SWAP1 POP SWAP2 SWAP1 POP JUMP JUMPDEST PUSH2 0x25B DUP2 PUSH2 0x1FF JUMP JUMPDEST DUP2 EQ PUSH2 0x266 JUMPI PUSH1 0x0 DUP1 REVERT JUMPDEST POP JUMP INVALID LOG2 PUSH5 0x6970667358 0x22 SLT KECCAK256 SWAP8 DUP7 DUP12 0x1F 0xD9 COINBASE 0xD7 ADDMOD ADDMOD 0xF8 0xA5 0xED MOD CREATE2 PUSH14 0xC9C1CB974A20AE3E7A169CF5B983 COINBASE 0xAC MUL PUSH5 0x736F6C6343 STOP ADDMOD MOD STOP CALLER LOG2 PUSH5 0x6970667358 0x22 SLT KECCAK256 LOG3 0xD1 PC 0x2E PUSH22 0x93EAE966B9648AC7AAC4D9FAF7238F46C05CE453ECAF 0x25 0xAD DUP4 0x28 MULMOD PUSH5 0x736F6C6343 STOP ADDMOD MOD STOP CALLER "
				},
				"gasEstimates": {
					"creation": {
						"codeDepositCost": "832200",
						"executionCost": "870",
						"totalCost": "833070"
					},
					"external": {
						"by()": "infinite",
						"contractName()": "infinite",
						"contractaddr()": "2514",
						"createContractObj(uint256)": "infinite",
						"getA()": "infinite",
						"getBalance()": "340",
						"initParams()": "infinite",
						"setA(uint256)": "infinite",
						"str1()": "infinite"
					}
				},
				"methodIdentifiers": {
					"by()": "7c000138",
					"contractName()": "75d0c0dc",
					"contractaddr()": "d01bb4d5",
					"createContractObj(uint256)": "93d4e9a2",
					"getA()": "d46300fd",
					"getBalance()": "12065fe0",
					"initParams()": "fb0c8628",
					"setA(uint256)": "ee919d50",
					"str1()": "d118d187"
				}
			},
			"storageLayout": {
				"storage": [
					{
						"astId": 47,
						"contract": "study/chapter04/newContract.sol:callContract",
						"label": "t",
						"offset": 0,
						"slot": "0",
						"type": "t_contract(testContract)44"
					},
					{
						"astId": 49,
						"contract": "study/chapter04/newContract.sol:callContract",
						"label": "contractaddr",
						"offset": 0,
						"slot": "1",
						"type": "t_address"
					},
					{
						"astId": 51,
						"contract": "study/chapter04/newContract.sol:callContract",
						"label": "contractName",
						"offset": 0,
						"slot": "2",
						"type": "t_string_storage"
					},
					{
						"astId": 53,
						"contract": "study/chapter04/newContract.sol:callContract",
						"label": "str1",
						"offset": 0,
						"slot": "3",
						"type": "t_string_storage"
					},
					{
						"astId": 55,
						"contract": "study/chapter04/newContract.sol:callContract",
						"label": "by",
						"offset": 0,
						"slot": "4",
						"type": "t_bytes_storage"
					}
				],
				"types": {
					"t_address": {
						"encoding": "inplace",
						"label": "address",
						"numberOfBytes": "20"
					},
					"t_bytes_storage": {
						"encoding": "bytes",
						"label": "bytes",
						"numberOfBytes": "32"
					},
					"t_contract(testContract)44": {
						"encoding": "inplace",
						"label": "contract testContract",
						"numberOfBytes": "20"
					},
					"t_string_storage": {
						"encoding": "bytes",
						"label": "string",
						"numberOfBytes": "32"
					}
				}
			},
			"userdoc": {
				"kind": "user",
				"methods": {},
				"version": 1
			}
		}
	}
}