{
	"study/chapter04/newContract.sol": {
		"callContract": {
			"abi": [
				{
					"inputs": [],
					"name": "by",
					"outputs": [
						{
							"internalType": "bytes",
							"name": "",
							"type": "bytes"
						}
					],
					"stateMutability": "view",
					"type": "function"
				},
				{
					"inputs": [],
					"name": "contractaddr",
					"outputs": [
						{
							"internalType": "address",
							"name": "",
							"type": "address"
						}
					],
					"stateMutability": "view",
					"type": "function"
				},
				{
					"inputs": [],
					"name": "getA",
					"outputs": [
						{
							"internalType": "uint256",
							"name": "",
							"type": "uint256"
						}
					],
					"stateMutability": "view",
					"type": "function"
				},
				{
					"inputs": [
						{
							"internalType": "uint256",
							"name": "_a",
							"type": "uint256"
						}
					],
					"name": "setA",
					"outputs": [],
					"stateMutability": "nonpayable",
					"type": "function"
				},
				{
					"inputs": [],
					"name": "str",
					"outputs": [
						{
							"internalType": "string",
							"name": "",
							"type": "string"
						}
					],
					"stateMutability": "view",
					"type": "function"
				},
				{
					"inputs": [],
					"name": "str1",
					"outputs": [
						{
							"internalType": "string",
							"name": "",
							"type": "string"
						}
					],
					"stateMutability": "view",
					"type": "function"
				}
			],
			"devdoc": {
				"kind": "dev",
				"methods": {},
				"version": 1
			},
			"evm": {
				"assembly": "    /* \"study/chapter04/newContract.sol\":469:1148  contract callContract{... */\n  mstore(0x40, 0x80)\n    /* \"study/chapter04/newContract.sol\":643:644  t */\n  0x00\n  dup1\n  sload\n  swap1\n  0x0100\n  exp\n  swap1\n  div\n  0xffffffffffffffffffffffffffffffffffffffff\n  and\n    /* \"study/chapter04/newContract.sol\":605:645  address public contractaddr = address(t) */\n  0x01\n  exp(0x0100, 0x00)\n  dup2\n  sload\n  dup2\n  0xffffffffffffffffffffffffffffffffffffffff\n  mul\n  not\n  and\n  swap1\n  dup4\n  0xffffffffffffffffffffffffffffffffffffffff\n  and\n  mul\n  or\n  swap1\n  sstore\n  pop\n    /* \"study/chapter04/newContract.sol\":763:764  t */\n  0x00\n  dup1\n  sload\n  swap1\n  0x0100\n  exp\n  swap1\n  div\n  0xffffffffffffffffffffffffffffffffffffffff\n  and\n    /* \"study/chapter04/newContract.sol\":763:780  t.getContractName */\n  0xffffffffffffffffffffffffffffffffffffffff\n  and\n  0xf5f5ba72\n    /* \"study/chapter04/newContract.sol\":763:782  t.getContractName() */\n  mload(0x40)\n  dup2\n  0xffffffff\n  and\n  0xe0\n  shl\n  dup2\n  mstore\n  0x04\n  add\n  0x00\n  mload(0x40)\n  dup1\n  dup4\n  sub\n  dup2\n  dup7\n  dup1\n  extcodesize\n  iszero\n  dup1\n  iszero\n  tag_1\n  jumpi\n  0x00\n  dup1\n  revert\ntag_1:\n  pop\n  gas\n  staticcall\n  iszero\n  dup1\n  iszero\n  tag_3\n  jumpi\n  returndatasize\n  0x00\n  dup1\n  returndatacopy\n  revert(0x00, returndatasize)\ntag_3:\n  pop\n  pop\n  pop\n  pop\n  mload(0x40)\n  returndatasize\n  0x00\n  dup3\n  returndatacopy\n  returndatasize\n  not(0x1f)\n  0x1f\n  dup3\n  add\n  and\n  dup3\n  add\n  dup1\n  0x40\n  mstore\n  pop\n  dup2\n  add\n  swap1\n  tag_4\n  swap2\n  swap1\n  tag_5\n  jump\t// in\ntag_4:\n    /* \"study/chapter04/newContract.sol\":743:782  string public str = t.getContractName() */\n  0x02\n  swap1\n  dup1\n  mload\n  swap1\n  0x20\n  add\n  swap1\n  tag_6\n  swap3\n  swap2\n  swap1\n  tag_7\n  jump\t// in\ntag_6:\n  pop\n    /* \"study/chapter04/newContract.sol\":1067:1090  type(testContract).name */\n  mload(0x40)\n  dup1\n  0x40\n  add\n  0x40\n  mstore\n  0x0c\n  dup2\n  mstore\n  dup1\n  0x20\n  add\n  0x74657374436f6e74726163740000000000000000000000000000000000000000\n  dup2\n  mstore\n  pop\n    /* \"study/chapter04/newContract.sol\":1046:1090  string public str1 = type(testContract).name */\n  0x03\n  swap1\n  dup1\n  mload\n  swap1\n  0x20\n  add\n  swap1\n  tag_8\n  swap3\n  swap2\n  swap1\n  tag_7\n  jump\t// in\ntag_8:\n  pop\n    /* \"study/chapter04/newContract.sol\":1114:1145  type(testContract).creationCode */\n  mload(0x40)\n  dup1\n  0x20\n  add\n  tag_9\n  swap1\n  tag_10\n  jump\t// in\ntag_9:\n  0x20\n  dup3\n  add\n  dup2\n  sub\n  dup3\n  mstore\n  not(0x1f)\n  0x1f\n  dup3\n  add\n  and\n  0x40\n  mstore\n  pop\n    /* \"study/chapter04/newContract.sol\":1096:1145  bytes public by = type(testContract).creationCode */\n  0x04\n  swap1\n  dup1\n  mload\n  swap1\n  0x20\n  add\n  swap1\n  tag_11\n  swap3\n  swap2\n  swap1\n  tag_12\n  jump\t// in\ntag_11:\n  pop\n    /* \"study/chapter04/newContract.sol\":469:1148  contract callContract{... */\n  callvalue\n  dup1\n  iszero\n  tag_13\n  jumpi\n  0x00\n  dup1\n  revert\ntag_13:\n  pop\n  jump(tag_14)\ntag_7:\n  dup3\n  dup1\n  sload\n  tag_15\n  swap1\n  tag_16\n  jump\t// in\ntag_15:\n  swap1\n  0x00\n  mstore\n  keccak256(0x00, 0x20)\n  swap1\n  0x1f\n  add\n  0x20\n  swap1\n  div\n  dup2\n  add\n  swap3\n  dup3\n  tag_18\n  jumpi\n  0x00\n  dup6\n  sstore\n  jump(tag_17)\ntag_18:\n  dup3\n  0x1f\n  lt\n  tag_19\n  jumpi\n  dup1\n  mload\n  not(0xff)\n  and\n  dup4\n  dup1\n  add\n  or\n  dup6\n  sstore\n  jump(tag_17)\ntag_19:\n  dup3\n  dup1\n  add\n  0x01\n  add\n  dup6\n  sstore\n  dup3\n  iszero\n  tag_17\n  jumpi\n  swap2\n  dup3\n  add\ntag_20:\n  dup3\n  dup2\n  gt\n  iszero\n  tag_21\n  jumpi\n  dup3\n  mload\n  dup3\n  sstore\n  swap2\n  0x20\n  add\n  swap2\n  swap1\n  0x01\n  add\n  swap1\n  jump(tag_20)\ntag_21:\ntag_17:\n  pop\n  swap1\n  pop\n  tag_22\n  swap2\n  swap1\n  tag_23\n  jump\t// in\ntag_22:\n  pop\n  swap1\n  jump\t// out\ntag_10:\n  dataSize(sub_1)\n  dup1\n  dataOffset(sub_1)\n  dup4\n  codecopy\n  add\n  swap1\n  jump\t// out\ntag_12:\n  dup3\n  dup1\n  sload\n  tag_24\n  swap1\n  tag_16\n  jump\t// in\ntag_24:\n  swap1\n  0x00\n  mstore\n  keccak256(0x00, 0x20)\n  swap1\n  0x1f\n  add\n  0x20\n  swap1\n  div\n  dup2\n  add\n  swap3\n  dup3\n  tag_26\n  jumpi\n  0x00\n  dup6\n  sstore\n  jump(tag_25)\ntag_26:\n  dup3\n  0x1f\n  lt\n  tag_27\n  jumpi\n  dup1\n  mload\n  not(0xff)\n  and\n  dup4\n  dup1\n  add\n  or\n  dup6\n  sstore\n  jump(tag_25)\ntag_27:\n  dup3\n  dup1\n  add\n  0x01\n  add\n  dup6\n  sstore\n  dup3\n  iszero\n  tag_25\n  jumpi\n  swap2\n  dup3\n  add\ntag_28:\n  dup3\n  dup2\n  gt\n  iszero\n  tag_29\n  jumpi\n  dup3\n  mload\n  dup3\n  sstore\n  swap2\n  0x20\n  add\n  swap2\n  swap1\n  0x01\n  add\n  swap1\n  jump(tag_28)\ntag_29:\ntag_25:\n  pop\n  swap1\n  pop\n  tag_30\n  swap2\n  swap1\n  tag_23\n  jump\t// in\ntag_30:\n  pop\n  swap1\n  jump\t// out\ntag_23:\ntag_31:\n  dup1\n  dup3\n  gt\n  iszero\n  tag_32\n  jumpi\n  0x00\n  dup2\n  0x00\n  swap1\n  sstore\n  pop\n  0x01\n  add\n  jump(tag_31)\ntag_32:\n  pop\n  swap1\n  jump\t// out\n    /* \"#utility.yul\":7:428   */\ntag_34:\n    /* \"#utility.yul\":96:101   */\n  0x00\n    /* \"#utility.yul\":121:187   */\n  tag_36\n    /* \"#utility.yul\":137:186   */\n  tag_37\n    /* \"#utility.yul\":179:185   */\n  dup5\n    /* \"#utility.yul\":137:186   */\n  tag_38\n  jump\t// in\ntag_37:\n    /* \"#utility.yul\":121:187   */\n  tag_39\n  jump\t// in\ntag_36:\n    /* \"#utility.yul\":112:187   */\n  swap1\n  pop\n    /* \"#utility.yul\":210:216   */\n  dup3\n    /* \"#utility.yul\":203:208   */\n  dup2\n    /* \"#utility.yul\":196:217   */\n  mstore\n    /* \"#utility.yul\":248:252   */\n  0x20\n    /* \"#utility.yul\":241:246   */\n  dup2\n    /* \"#utility.yul\":237:253   */\n  add\n    /* \"#utility.yul\":286:289   */\n  dup5\n    /* \"#utility.yul\":277:283   */\n  dup5\n    /* \"#utility.yul\":272:275   */\n  dup5\n    /* \"#utility.yul\":268:284   */\n  add\n    /* \"#utility.yul\":265:290   */\n  gt\n    /* \"#utility.yul\":262:374   */\n  iszero\n  tag_40\n  jumpi\n    /* \"#utility.yul\":293:372   */\n  tag_41\n  tag_42\n  jump\t// in\ntag_41:\n    /* \"#utility.yul\":262:374   */\ntag_40:\n    /* \"#utility.yul\":383:422   */\n  tag_43\n    /* \"#utility.yul\":415:421   */\n  dup5\n    /* \"#utility.yul\":410:413   */\n  dup3\n    /* \"#utility.yul\":405:408   */\n  dup6\n    /* \"#utility.yul\":383:422   */\n  tag_44\n  jump\t// in\ntag_43:\n    /* \"#utility.yul\":102:428   */\n  pop\n    /* \"#utility.yul\":7:428   */\n  swap4\n  swap3\n  pop\n  pop\n  pop\n  jump\t// out\n    /* \"#utility.yul\":448:803   */\ntag_45:\n    /* \"#utility.yul\":515:520   */\n  0x00\n    /* \"#utility.yul\":564:567   */\n  dup3\n    /* \"#utility.yul\":557:561   */\n  0x1f\n    /* \"#utility.yul\":549:555   */\n  dup4\n    /* \"#utility.yul\":545:562   */\n  add\n    /* \"#utility.yul\":541:568   */\n  slt\n    /* \"#utility.yul\":531:653   */\n  tag_47\n  jumpi\n    /* \"#utility.yul\":572:651   */\n  tag_48\n  tag_49\n  jump\t// in\ntag_48:\n    /* \"#utility.yul\":531:653   */\ntag_47:\n    /* \"#utility.yul\":682:688   */\n  dup2\n    /* \"#utility.yul\":676:689   */\n  mload\n    /* \"#utility.yul\":707:797   */\n  tag_50\n    /* \"#utility.yul\":793:796   */\n  dup5\n    /* \"#utility.yul\":785:791   */\n  dup3\n    /* \"#utility.yul\":778:782   */\n  0x20\n    /* \"#utility.yul\":770:776   */\n  dup7\n    /* \"#utility.yul\":766:783   */\n  add\n    /* \"#utility.yul\":707:797   */\n  tag_34\n  jump\t// in\ntag_50:\n    /* \"#utility.yul\":698:797   */\n  swap2\n  pop\n    /* \"#utility.yul\":521:803   */\n  pop\n    /* \"#utility.yul\":448:803   */\n  swap3\n  swap2\n  pop\n  pop\n  jump\t// out\n    /* \"#utility.yul\":809:1333   */\ntag_5:\n    /* \"#utility.yul\":889:895   */\n  0x00\n    /* \"#utility.yul\":938:940   */\n  0x20\n    /* \"#utility.yul\":926:935   */\n  dup3\n    /* \"#utility.yul\":917:924   */\n  dup5\n    /* \"#utility.yul\":913:936   */\n  sub\n    /* \"#utility.yul\":909:941   */\n  slt\n    /* \"#utility.yul\":906:1025   */\n  iszero\n  tag_52\n  jumpi\n    /* \"#utility.yul\":944:1023   */\n  tag_53\n  tag_54\n  jump\t// in\ntag_53:\n    /* \"#utility.yul\":906:1025   */\ntag_52:\n    /* \"#utility.yul\":1085:1086   */\n  0x00\n    /* \"#utility.yul\":1074:1083   */\n  dup3\n    /* \"#utility.yul\":1070:1087   */\n  add\n    /* \"#utility.yul\":1064:1088   */\n  mload\n    /* \"#utility.yul\":1115:1133   */\n  0xffffffffffffffff\n    /* \"#utility.yul\":1107:1113   */\n  dup2\n    /* \"#utility.yul\":1104:1134   */\n  gt\n    /* \"#utility.yul\":1101:1218   */\n  iszero\n  tag_55\n  jumpi\n    /* \"#utility.yul\":1137:1216   */\n  tag_56\n  tag_57\n  jump\t// in\ntag_56:\n    /* \"#utility.yul\":1101:1218   */\ntag_55:\n    /* \"#utility.yul\":1242:1316   */\n  tag_58\n    /* \"#utility.yul\":1308:1315   */\n  dup5\n    /* \"#utility.yul\":1299:1305   */\n  dup3\n    /* \"#utility.yul\":1288:1297   */\n  dup6\n    /* \"#utility.yul\":1284:1306   */\n  add\n    /* \"#utility.yul\":1242:1316   */\n  tag_45\n  jump\t// in\ntag_58:\n    /* \"#utility.yul\":1232:1316   */\n  swap2\n  pop\n    /* \"#utility.yul\":1035:1326   */\n  pop\n    /* \"#utility.yul\":809:1333   */\n  swap3\n  swap2\n  pop\n  pop\n  jump\t// out\n    /* \"#utility.yul\":1339:1468   */\ntag_39:\n    /* \"#utility.yul\":1373:1379   */\n  0x00\n    /* \"#utility.yul\":1400:1420   */\n  tag_60\n  tag_61\n  jump\t// in\ntag_60:\n    /* \"#utility.yul\":1390:1420   */\n  swap1\n  pop\n    /* \"#utility.yul\":1429:1462   */\n  tag_62\n    /* \"#utility.yul\":1457:1461   */\n  dup3\n    /* \"#utility.yul\":1449:1455   */\n  dup3\n    /* \"#utility.yul\":1429:1462   */\n  tag_63\n  jump\t// in\ntag_62:\n    /* \"#utility.yul\":1339:1468   */\n  swap2\n  swap1\n  pop\n  jump\t// out\n    /* \"#utility.yul\":1474:1549   */\ntag_61:\n    /* \"#utility.yul\":1507:1513   */\n  0x00\n    /* \"#utility.yul\":1540:1542   */\n  0x40\n    /* \"#utility.yul\":1534:1543   */\n  mload\n    /* \"#utility.yul\":1524:1543   */\n  swap1\n  pop\n    /* \"#utility.yul\":1474:1549   */\n  swap1\n  jump\t// out\n    /* \"#utility.yul\":1555:1863   */\ntag_38:\n    /* \"#utility.yul\":1617:1621   */\n  0x00\n    /* \"#utility.yul\":1707:1725   */\n  0xffffffffffffffff\n    /* \"#utility.yul\":1699:1705   */\n  dup3\n    /* \"#utility.yul\":1696:1726   */\n  gt\n    /* \"#utility.yul\":1693:1749   */\n  iszero\n  tag_66\n  jumpi\n    /* \"#utility.yul\":1729:1747   */\n  tag_67\n  tag_68\n  jump\t// in\ntag_67:\n    /* \"#utility.yul\":1693:1749   */\ntag_66:\n    /* \"#utility.yul\":1767:1796   */\n  tag_69\n    /* \"#utility.yul\":1789:1795   */\n  dup3\n    /* \"#utility.yul\":1767:1796   */\n  tag_70\n  jump\t// in\ntag_69:\n    /* \"#utility.yul\":1759:1796   */\n  swap1\n  pop\n    /* \"#utility.yul\":1851:1855   */\n  0x20\n    /* \"#utility.yul\":1845:1849   */\n  dup2\n    /* \"#utility.yul\":1841:1856   */\n  add\n    /* \"#utility.yul\":1833:1856   */\n  swap1\n  pop\n    /* \"#utility.yul\":1555:1863   */\n  swap2\n  swap1\n  pop\n  jump\t// out\n    /* \"#utility.yul\":1869:2176   */\ntag_44:\n    /* \"#utility.yul\":1937:1938   */\n  0x00\n    /* \"#utility.yul\":1947:2060   */\ntag_72:\n    /* \"#utility.yul\":1961:1967   */\n  dup4\n    /* \"#utility.yul\":1958:1959   */\n  dup2\n    /* \"#utility.yul\":1955:1968   */\n  lt\n    /* \"#utility.yul\":1947:2060   */\n  iszero\n  tag_74\n  jumpi\n    /* \"#utility.yul\":2046:2047   */\n  dup1\n    /* \"#utility.yul\":2041:2044   */\n  dup3\n    /* \"#utility.yul\":2037:2048   */\n  add\n    /* \"#utility.yul\":2031:2049   */\n  mload\n    /* \"#utility.yul\":2027:2028   */\n  dup2\n    /* \"#utility.yul\":2022:2025   */\n  dup5\n    /* \"#utility.yul\":2018:2029   */\n  add\n    /* \"#utility.yul\":2011:2050   */\n  mstore\n    /* \"#utility.yul\":1983:1985   */\n  0x20\n    /* \"#utility.yul\":1980:1981   */\n  dup2\n    /* \"#utility.yul\":1976:1986   */\n  add\n    /* \"#utility.yul\":1971:1986   */\n  swap1\n  pop\n    /* \"#utility.yul\":1947:2060   */\n  jump(tag_72)\ntag_74:\n    /* \"#utility.yul\":2078:2084   */\n  dup4\n    /* \"#utility.yul\":2075:2076   */\n  dup2\n    /* \"#utility.yul\":2072:2085   */\n  gt\n    /* \"#utility.yul\":2069:2170   */\n  iszero\n  tag_75\n  jumpi\n    /* \"#utility.yul\":2158:2159   */\n  0x00\n    /* \"#utility.yul\":2149:2155   */\n  dup5\n    /* \"#utility.yul\":2144:2147   */\n  dup5\n    /* \"#utility.yul\":2140:2156   */\n  add\n    /* \"#utility.yul\":2133:2160   */\n  mstore\n    /* \"#utility.yul\":2069:2170   */\ntag_75:\n    /* \"#utility.yul\":1918:2176   */\n  pop\n    /* \"#utility.yul\":1869:2176   */\n  pop\n  pop\n  pop\n  jump\t// out\n    /* \"#utility.yul\":2182:2502   */\ntag_16:\n    /* \"#utility.yul\":2226:2232   */\n  0x00\n    /* \"#utility.yul\":2263:2264   */\n  0x02\n    /* \"#utility.yul\":2257:2261   */\n  dup3\n    /* \"#utility.yul\":2253:2265   */\n  div\n    /* \"#utility.yul\":2243:2265   */\n  swap1\n  pop\n    /* \"#utility.yul\":2310:2311   */\n  0x01\n    /* \"#utility.yul\":2304:2308   */\n  dup3\n    /* \"#utility.yul\":2300:2312   */\n  and\n    /* \"#utility.yul\":2331:2349   */\n  dup1\n    /* \"#utility.yul\":2321:2402   */\n  tag_77\n  jumpi\n    /* \"#utility.yul\":2387:2391   */\n  0x7f\n    /* \"#utility.yul\":2379:2385   */\n  dup3\n    /* \"#utility.yul\":2375:2392   */\n  and\n    /* \"#utility.yul\":2365:2392   */\n  swap2\n  pop\n    /* \"#utility.yul\":2321:2402   */\ntag_77:\n    /* \"#utility.yul\":2449:2451   */\n  0x20\n    /* \"#utility.yul\":2441:2447   */\n  dup3\n    /* \"#utility.yul\":2438:2452   */\n  lt\n    /* \"#utility.yul\":2418:2436   */\n  dup2\n    /* \"#utility.yul\":2415:2453   */\n  eq\n    /* \"#utility.yul\":2412:2496   */\n  iszero\n  tag_78\n  jumpi\n    /* \"#utility.yul\":2468:2486   */\n  tag_79\n  tag_80\n  jump\t// in\ntag_79:\n    /* \"#utility.yul\":2412:2496   */\ntag_78:\n    /* \"#utility.yul\":2233:2502   */\n  pop\n    /* \"#utility.yul\":2182:2502   */\n  swap2\n  swap1\n  pop\n  jump\t// out\n    /* \"#utility.yul\":2508:2789   */\ntag_63:\n    /* \"#utility.yul\":2591:2618   */\n  tag_82\n    /* \"#utility.yul\":2613:2617   */\n  dup3\n    /* \"#utility.yul\":2591:2618   */\n  tag_70\n  jump\t// in\ntag_82:\n    /* \"#utility.yul\":2583:2589   */\n  dup2\n    /* \"#utility.yul\":2579:2619   */\n  add\n    /* \"#utility.yul\":2721:2727   */\n  dup2\n    /* \"#utility.yul\":2709:2719   */\n  dup2\n    /* \"#utility.yul\":2706:2728   */\n  lt\n    /* \"#utility.yul\":2685:2703   */\n  0xffffffffffffffff\n    /* \"#utility.yul\":2673:2683   */\n  dup3\n    /* \"#utility.yul\":2670:2704   */\n  gt\n    /* \"#utility.yul\":2667:2729   */\n  or\n    /* \"#utility.yul\":2664:2752   */\n  iszero\n  tag_83\n  jumpi\n    /* \"#utility.yul\":2732:2750   */\n  tag_84\n  tag_68\n  jump\t// in\ntag_84:\n    /* \"#utility.yul\":2664:2752   */\ntag_83:\n    /* \"#utility.yul\":2772:2782   */\n  dup1\n    /* \"#utility.yul\":2768:2770   */\n  0x40\n    /* \"#utility.yul\":2761:2783   */\n  mstore\n    /* \"#utility.yul\":2551:2789   */\n  pop\n    /* \"#utility.yul\":2508:2789   */\n  pop\n  pop\n  jump\t// out\n    /* \"#utility.yul\":2795:2975   */\ntag_80:\n    /* \"#utility.yul\":2843:2920   */\n  0x4e487b7100000000000000000000000000000000000000000000000000000000\n    /* \"#utility.yul\":2840:2841   */\n  0x00\n    /* \"#utility.yul\":2833:2921   */\n  mstore\n    /* \"#utility.yul\":2940:2944   */\n  0x22\n    /* \"#utility.yul\":2937:2938   */\n  0x04\n    /* \"#utility.yul\":2930:2945   */\n  mstore\n    /* \"#utility.yul\":2964:2968   */\n  0x24\n    /* \"#utility.yul\":2961:2962   */\n  0x00\n    /* \"#utility.yul\":2954:2969   */\n  revert\n    /* \"#utility.yul\":2981:3161   */\ntag_68:\n    /* \"#utility.yul\":3029:3106   */\n  0x4e487b7100000000000000000000000000000000000000000000000000000000\n    /* \"#utility.yul\":3026:3027   */\n  0x00\n    /* \"#utility.yul\":3019:3107   */\n  mstore\n    /* \"#utility.yul\":3126:3130   */\n  0x41\n    /* \"#utility.yul\":3123:3124   */\n  0x04\n    /* \"#utility.yul\":3116:3131   */\n  mstore\n    /* \"#utility.yul\":3150:3154   */\n  0x24\n    /* \"#utility.yul\":3147:3148   */\n  0x00\n    /* \"#utility.yul\":3140:3155   */\n  revert\n    /* \"#utility.yul\":3167:3284   */\ntag_49:\n    /* \"#utility.yul\":3276:3277   */\n  0x00\n    /* \"#utility.yul\":3273:3274   */\n  dup1\n    /* \"#utility.yul\":3266:3278   */\n  revert\n    /* \"#utility.yul\":3290:3407   */\ntag_42:\n    /* \"#utility.yul\":3399:3400   */\n  0x00\n    /* \"#utility.yul\":3396:3397   */\n  dup1\n    /* \"#utility.yul\":3389:3401   */\n  revert\n    /* \"#utility.yul\":3413:3530   */\ntag_57:\n    /* \"#utility.yul\":3522:3523   */\n  0x00\n    /* \"#utility.yul\":3519:3520   */\n  dup1\n    /* \"#utility.yul\":3512:3524   */\n  revert\n    /* \"#utility.yul\":3536:3653   */\ntag_54:\n    /* \"#utility.yul\":3645:3646   */\n  0x00\n    /* \"#utility.yul\":3642:3643   */\n  dup1\n    /* \"#utility.yul\":3635:3647   */\n  revert\n    /* \"#utility.yul\":3659:3761   */\ntag_70:\n    /* \"#utility.yul\":3700:3706   */\n  0x00\n    /* \"#utility.yul\":3751:3753   */\n  0x1f\n    /* \"#utility.yul\":3747:3754   */\n  not\n    /* \"#utility.yul\":3742:3744   */\n  0x1f\n    /* \"#utility.yul\":3735:3740   */\n  dup4\n    /* \"#utility.yul\":3731:3745   */\n  add\n    /* \"#utility.yul\":3727:3755   */\n  and\n    /* \"#utility.yul\":3717:3755   */\n  swap1\n  pop\n    /* \"#utility.yul\":3659:3761   */\n  swap2\n  swap1\n  pop\n  jump\t// out\n    /* \"study/chapter04/newContract.sol\":469:1148  contract callContract{... */\ntag_14:\n  dataSize(sub_0)\n  dup1\n  dataOffset(sub_0)\n  0x00\n  codecopy\n  0x00\n  return\nstop\n\nsub_0: assembly {\n        /* \"study/chapter04/newContract.sol\":469:1148  contract callContract{... */\n      mstore(0x40, 0x80)\n      callvalue\n      dup1\n      iszero\n      tag_1\n      jumpi\n      0x00\n      dup1\n      revert\n    tag_1:\n      pop\n      jumpi(tag_2, lt(calldatasize, 0x04))\n      shr(0xe0, calldataload(0x00))\n      dup1\n      0x7c000138\n      eq\n      tag_3\n      jumpi\n      dup1\n      0xc15bae84\n      eq\n      tag_4\n      jumpi\n      dup1\n      0xd01bb4d5\n      eq\n      tag_5\n      jumpi\n      dup1\n      0xd118d187\n      eq\n      tag_6\n      jumpi\n      dup1\n      0xd46300fd\n      eq\n      tag_7\n      jumpi\n      dup1\n      0xee919d50\n      eq\n      tag_8\n      jumpi\n    tag_2:\n      0x00\n      dup1\n      revert\n        /* \"study/chapter04/newContract.sol\":1096:1145  bytes public by = type(testContract).creationCode */\n    tag_3:\n      tag_9\n      tag_10\n      jump\t// in\n    tag_9:\n      mload(0x40)\n      tag_11\n      swap2\n      swap1\n      tag_12\n      jump\t// in\n    tag_11:\n      mload(0x40)\n      dup1\n      swap2\n      sub\n      swap1\n      return\n        /* \"study/chapter04/newContract.sol\":743:782  string public str = t.getContractName() */\n    tag_4:\n      tag_13\n      tag_14\n      jump\t// in\n    tag_13:\n      mload(0x40)\n      tag_15\n      swap2\n      swap1\n      tag_16\n      jump\t// in\n    tag_15:\n      mload(0x40)\n      dup1\n      swap2\n      sub\n      swap1\n      return\n        /* \"study/chapter04/newContract.sol\":605:645  address public contractaddr = address(t) */\n    tag_5:\n      tag_17\n      tag_18\n      jump\t// in\n    tag_17:\n      mload(0x40)\n      tag_19\n      swap2\n      swap1\n      tag_20\n      jump\t// in\n    tag_19:\n      mload(0x40)\n      dup1\n      swap2\n      sub\n      swap1\n      return\n        /* \"study/chapter04/newContract.sol\":1046:1090  string public str1 = type(testContract).name */\n    tag_6:\n      tag_21\n      tag_22\n      jump\t// in\n    tag_21:\n      mload(0x40)\n      tag_23\n      swap2\n      swap1\n      tag_16\n      jump\t// in\n    tag_23:\n      mload(0x40)\n      dup1\n      swap2\n      sub\n      swap1\n      return\n        /* \"study/chapter04/newContract.sol\":851:976  function getA()external view returns(uint){... */\n    tag_7:\n      tag_24\n      tag_25\n      jump\t// in\n    tag_24:\n      mload(0x40)\n      tag_26\n      swap2\n      swap1\n      tag_27\n      jump\t// in\n    tag_26:\n      mload(0x40)\n      dup1\n      swap2\n      sub\n      swap1\n      return\n        /* \"study/chapter04/newContract.sol\":788:846  function setA(uint _a)external {... */\n    tag_8:\n      tag_28\n      0x04\n      dup1\n      calldatasize\n      sub\n      dup2\n      add\n      swap1\n      tag_29\n      swap2\n      swap1\n      tag_30\n      jump\t// in\n    tag_29:\n      tag_31\n      jump\t// in\n    tag_28:\n      stop\n        /* \"study/chapter04/newContract.sol\":1096:1145  bytes public by = type(testContract).creationCode */\n    tag_10:\n      0x04\n      dup1\n      sload\n      tag_32\n      swap1\n      tag_33\n      jump\t// in\n    tag_32:\n      dup1\n      0x1f\n      add\n      0x20\n      dup1\n      swap2\n      div\n      mul\n      0x20\n      add\n      mload(0x40)\n      swap1\n      dup2\n      add\n      0x40\n      mstore\n      dup1\n      swap3\n      swap2\n      swap1\n      dup2\n      dup2\n      mstore\n      0x20\n      add\n      dup3\n      dup1\n      sload\n      tag_34\n      swap1\n      tag_33\n      jump\t// in\n    tag_34:\n      dup1\n      iszero\n      tag_35\n      jumpi\n      dup1\n      0x1f\n      lt\n      tag_36\n      jumpi\n      0x0100\n      dup1\n      dup4\n      sload\n      div\n      mul\n      dup4\n      mstore\n      swap2\n      0x20\n      add\n      swap2\n      jump(tag_35)\n    tag_36:\n      dup3\n      add\n      swap2\n      swap1\n      0x00\n      mstore\n      keccak256(0x00, 0x20)\n      swap1\n    tag_37:\n      dup2\n      sload\n      dup2\n      mstore\n      swap1\n      0x01\n      add\n      swap1\n      0x20\n      add\n      dup1\n      dup4\n      gt\n      tag_37\n      jumpi\n      dup3\n      swap1\n      sub\n      0x1f\n      and\n      dup3\n      add\n      swap2\n    tag_35:\n      pop\n      pop\n      pop\n      pop\n      pop\n      dup2\n      jump\t// out\n        /* \"study/chapter04/newContract.sol\":743:782  string public str = t.getContractName() */\n    tag_14:\n      0x02\n      dup1\n      sload\n      tag_38\n      swap1\n      tag_33\n      jump\t// in\n    tag_38:\n      dup1\n      0x1f\n      add\n      0x20\n      dup1\n      swap2\n      div\n      mul\n      0x20\n      add\n      mload(0x40)\n      swap1\n      dup2\n      add\n      0x40\n      mstore\n      dup1\n      swap3\n      swap2\n      swap1\n      dup2\n      dup2\n      mstore\n      0x20\n      add\n      dup3\n      dup1\n      sload\n      tag_39\n      swap1\n      tag_33\n      jump\t// in\n    tag_39:\n      dup1\n      iszero\n      tag_40\n      jumpi\n      dup1\n      0x1f\n      lt\n      tag_41\n      jumpi\n      0x0100\n      dup1\n      dup4\n      sload\n      div\n      mul\n      dup4\n      mstore\n      swap2\n      0x20\n      add\n      swap2\n      jump(tag_40)\n    tag_41:\n      dup3\n      add\n      swap2\n      swap1\n      0x00\n      mstore\n      keccak256(0x00, 0x20)\n      swap1\n    tag_42:\n      dup2\n      sload\n      dup2\n      mstore\n      swap1\n      0x01\n      add\n      swap1\n      0x20\n      add\n      dup1\n      dup4\n      gt\n      tag_42\n      jumpi\n      dup3\n      swap1\n      sub\n      0x1f\n      and\n      dup3\n      add\n      swap2\n    tag_40:\n      pop\n      pop\n      pop\n      pop\n      pop\n      dup2\n      jump\t// out\n        /* \"study/chapter04/newContract.sol\":605:645  address public contractaddr = address(t) */\n    tag_18:\n      0x01\n      0x00\n      swap1\n      sload\n      swap1\n      0x0100\n      exp\n      swap1\n      div\n      0xffffffffffffffffffffffffffffffffffffffff\n      and\n      dup2\n      jump\t// out\n        /* \"study/chapter04/newContract.sol\":1046:1090  string public str1 = type(testContract).name */\n    tag_22:\n      0x03\n      dup1\n      sload\n      tag_43\n      swap1\n      tag_33\n      jump\t// in\n    tag_43:\n      dup1\n      0x1f\n      add\n      0x20\n      dup1\n      swap2\n      div\n      mul\n      0x20\n      add\n      mload(0x40)\n      swap1\n      dup2\n      add\n      0x40\n      mstore\n      dup1\n      swap3\n      swap2\n      swap1\n      dup2\n      dup2\n      mstore\n      0x20\n      add\n      dup3\n      dup1\n      sload\n      tag_44\n      swap1\n      tag_33\n      jump\t// in\n    tag_44:\n      dup1\n      iszero\n      tag_45\n      jumpi\n      dup1\n      0x1f\n      lt\n      tag_46\n      jumpi\n      0x0100\n      dup1\n      dup4\n      sload\n      div\n      mul\n      dup4\n      mstore\n      swap2\n      0x20\n      add\n      swap2\n      jump(tag_45)\n    tag_46:\n      dup3\n      add\n      swap2\n      swap1\n      0x00\n      mstore\n      keccak256(0x00, 0x20)\n      swap1\n    tag_47:\n      dup2\n      sload\n      dup2\n      mstore\n      swap1\n      0x01\n      add\n      swap1\n      0x20\n      add\n      dup1\n      dup4\n      gt\n      tag_47\n      jumpi\n      dup3\n      swap1\n      sub\n      0x1f\n      and\n      dup3\n      add\n      swap2\n    tag_45:\n      pop\n      pop\n      pop\n      pop\n      pop\n      dup2\n      jump\t// out\n        /* \"study/chapter04/newContract.sol\":851:976  function getA()external view returns(uint){... */\n    tag_25:\n        /* \"study/chapter04/newContract.sol\":888:892  uint */\n      0x00\n        /* \"study/chapter04/newContract.sol\":910:911  t */\n      dup1\n      0x00\n      swap1\n      sload\n      swap1\n      0x0100\n      exp\n      swap1\n      div\n      0xffffffffffffffffffffffffffffffffffffffff\n      and\n        /* \"study/chapter04/newContract.sol\":910:913  t.a */\n      0xffffffffffffffffffffffffffffffffffffffff\n      and\n      0x0dbe671f\n        /* \"study/chapter04/newContract.sol\":910:915  t.a() */\n      mload(0x40)\n      dup2\n      0xffffffff\n      and\n      0xe0\n      shl\n      dup2\n      mstore\n      0x04\n      add\n      0x20\n      mload(0x40)\n      dup1\n      dup4\n      sub\n      dup2\n      dup7\n      dup1\n      extcodesize\n      iszero\n      dup1\n      iszero\n      tag_49\n      jumpi\n      0x00\n      dup1\n      revert\n    tag_49:\n      pop\n      gas\n      staticcall\n      iszero\n      dup1\n      iszero\n      tag_51\n      jumpi\n      returndatasize\n      0x00\n      dup1\n      returndatacopy\n      revert(0x00, returndatasize)\n    tag_51:\n      pop\n      pop\n      pop\n      pop\n      mload(0x40)\n      returndatasize\n      not(0x1f)\n      0x1f\n      dup3\n      add\n      and\n      dup3\n      add\n      dup1\n      0x40\n      mstore\n      pop\n      dup2\n      add\n      swap1\n      tag_52\n      swap2\n      swap1\n      tag_53\n      jump\t// in\n    tag_52:\n        /* \"study/chapter04/newContract.sol\":903:915  return t.a() */\n      swap1\n      pop\n        /* \"study/chapter04/newContract.sol\":851:976  function getA()external view returns(uint){... */\n      swap1\n      jump\t// out\n        /* \"study/chapter04/newContract.sol\":788:846  function setA(uint _a)external {... */\n    tag_31:\n        /* \"study/chapter04/newContract.sol\":829:830  t */\n      0x00\n      dup1\n      sload\n      swap1\n      0x0100\n      exp\n      swap1\n      div\n      0xffffffffffffffffffffffffffffffffffffffff\n      and\n        /* \"study/chapter04/newContract.sol\":829:835  t.setA */\n      0xffffffffffffffffffffffffffffffffffffffff\n      and\n      0xee919d50\n        /* \"study/chapter04/newContract.sol\":836:838  _a */\n      dup3\n        /* \"study/chapter04/newContract.sol\":829:839  t.setA(_a) */\n      mload(0x40)\n      dup3\n      0xffffffff\n      and\n      0xe0\n      shl\n      dup2\n      mstore\n      0x04\n      add\n      tag_55\n      swap2\n      swap1\n      tag_27\n      jump\t// in\n    tag_55:\n      0x00\n      mload(0x40)\n      dup1\n      dup4\n      sub\n      dup2\n      0x00\n      dup8\n      dup1\n      extcodesize\n      iszero\n      dup1\n      iszero\n      tag_56\n      jumpi\n      0x00\n      dup1\n      revert\n    tag_56:\n      pop\n      gas\n      call\n      iszero\n      dup1\n      iszero\n      tag_58\n      jumpi\n      returndatasize\n      0x00\n      dup1\n      returndatacopy\n      revert(0x00, returndatasize)\n    tag_58:\n      pop\n      pop\n      pop\n      pop\n        /* \"study/chapter04/newContract.sol\":788:846  function setA(uint _a)external {... */\n      pop\n      jump\t// out\n        /* \"#utility.yul\":7:146   */\n    tag_60:\n        /* \"#utility.yul\":53:58   */\n      0x00\n        /* \"#utility.yul\":91:97   */\n      dup2\n        /* \"#utility.yul\":78:98   */\n      calldataload\n        /* \"#utility.yul\":69:98   */\n      swap1\n      pop\n        /* \"#utility.yul\":107:140   */\n      tag_62\n        /* \"#utility.yul\":134:139   */\n      dup2\n        /* \"#utility.yul\":107:140   */\n      tag_63\n      jump\t// in\n    tag_62:\n        /* \"#utility.yul\":7:146   */\n      swap3\n      swap2\n      pop\n      pop\n      jump\t// out\n        /* \"#utility.yul\":152:295   */\n    tag_64:\n        /* \"#utility.yul\":209:214   */\n      0x00\n        /* \"#utility.yul\":240:246   */\n      dup2\n        /* \"#utility.yul\":234:247   */\n      mload\n        /* \"#utility.yul\":225:247   */\n      swap1\n      pop\n        /* \"#utility.yul\":256:289   */\n      tag_66\n        /* \"#utility.yul\":283:288   */\n      dup2\n        /* \"#utility.yul\":256:289   */\n      tag_63\n      jump\t// in\n    tag_66:\n        /* \"#utility.yul\":152:295   */\n      swap3\n      swap2\n      pop\n      pop\n      jump\t// out\n        /* \"#utility.yul\":301:630   */\n    tag_30:\n        /* \"#utility.yul\":360:366   */\n      0x00\n        /* \"#utility.yul\":409:411   */\n      0x20\n        /* \"#utility.yul\":397:406   */\n      dup3\n        /* \"#utility.yul\":388:395   */\n      dup5\n        /* \"#utility.yul\":384:407   */\n      sub\n        /* \"#utility.yul\":380:412   */\n      slt\n        /* \"#utility.yul\":377:496   */\n      iszero\n      tag_68\n      jumpi\n        /* \"#utility.yul\":415:494   */\n      tag_69\n      tag_70\n      jump\t// in\n    tag_69:\n        /* \"#utility.yul\":377:496   */\n    tag_68:\n        /* \"#utility.yul\":535:536   */\n      0x00\n        /* \"#utility.yul\":560:613   */\n      tag_71\n        /* \"#utility.yul\":605:612   */\n      dup5\n        /* \"#utility.yul\":596:602   */\n      dup3\n        /* \"#utility.yul\":585:594   */\n      dup6\n        /* \"#utility.yul\":581:603   */\n      add\n        /* \"#utility.yul\":560:613   */\n      tag_60\n      jump\t// in\n    tag_71:\n        /* \"#utility.yul\":550:613   */\n      swap2\n      pop\n        /* \"#utility.yul\":506:623   */\n      pop\n        /* \"#utility.yul\":301:630   */\n      swap3\n      swap2\n      pop\n      pop\n      jump\t// out\n        /* \"#utility.yul\":636:987   */\n    tag_53:\n        /* \"#utility.yul\":706:712   */\n      0x00\n        /* \"#utility.yul\":755:757   */\n      0x20\n        /* \"#utility.yul\":743:752   */\n      dup3\n        /* \"#utility.yul\":734:741   */\n      dup5\n        /* \"#utility.yul\":730:753   */\n      sub\n        /* \"#utility.yul\":726:758   */\n      slt\n        /* \"#utility.yul\":723:842   */\n      iszero\n      tag_73\n      jumpi\n        /* \"#utility.yul\":761:840   */\n      tag_74\n      tag_70\n      jump\t// in\n    tag_74:\n        /* \"#utility.yul\":723:842   */\n    tag_73:\n        /* \"#utility.yul\":881:882   */\n      0x00\n        /* \"#utility.yul\":906:970   */\n      tag_75\n        /* \"#utility.yul\":962:969   */\n      dup5\n        /* \"#utility.yul\":953:959   */\n      dup3\n        /* \"#utility.yul\":942:951   */\n      dup6\n        /* \"#utility.yul\":938:960   */\n      add\n        /* \"#utility.yul\":906:970   */\n      tag_64\n      jump\t// in\n    tag_75:\n        /* \"#utility.yul\":896:970   */\n      swap2\n      pop\n        /* \"#utility.yul\":852:980   */\n      pop\n        /* \"#utility.yul\":636:987   */\n      swap3\n      swap2\n      pop\n      pop\n      jump\t// out\n        /* \"#utility.yul\":993:1111   */\n    tag_76:\n        /* \"#utility.yul\":1080:1104   */\n      tag_78\n        /* \"#utility.yul\":1098:1103   */\n      dup2\n        /* \"#utility.yul\":1080:1104   */\n      tag_79\n      jump\t// in\n    tag_78:\n        /* \"#utility.yul\":1075:1078   */\n      dup3\n        /* \"#utility.yul\":1068:1105   */\n      mstore\n        /* \"#utility.yul\":993:1111   */\n      pop\n      pop\n      jump\t// out\n        /* \"#utility.yul\":1117:1477   */\n    tag_80:\n        /* \"#utility.yul\":1203:1206   */\n      0x00\n        /* \"#utility.yul\":1231:1269   */\n      tag_82\n        /* \"#utility.yul\":1263:1268   */\n      dup3\n        /* \"#utility.yul\":1231:1269   */\n      tag_83\n      jump\t// in\n    tag_82:\n        /* \"#utility.yul\":1285:1355   */\n      tag_84\n        /* \"#utility.yul\":1348:1354   */\n      dup2\n        /* \"#utility.yul\":1343:1346   */\n      dup6\n        /* \"#utility.yul\":1285:1355   */\n      tag_85\n      jump\t// in\n    tag_84:\n        /* \"#utility.yul\":1278:1355   */\n      swap4\n      pop\n        /* \"#utility.yul\":1364:1416   */\n      tag_86\n        /* \"#utility.yul\":1409:1415   */\n      dup2\n        /* \"#utility.yul\":1404:1407   */\n      dup6\n        /* \"#utility.yul\":1397:1401   */\n      0x20\n        /* \"#utility.yul\":1390:1395   */\n      dup7\n        /* \"#utility.yul\":1386:1402   */\n      add\n        /* \"#utility.yul\":1364:1416   */\n      tag_87\n      jump\t// in\n    tag_86:\n        /* \"#utility.yul\":1441:1470   */\n      tag_88\n        /* \"#utility.yul\":1463:1469   */\n      dup2\n        /* \"#utility.yul\":1441:1470   */\n      tag_89\n      jump\t// in\n    tag_88:\n        /* \"#utility.yul\":1436:1439   */\n      dup5\n        /* \"#utility.yul\":1432:1471   */\n      add\n        /* \"#utility.yul\":1425:1471   */\n      swap2\n      pop\n        /* \"#utility.yul\":1207:1477   */\n      pop\n        /* \"#utility.yul\":1117:1477   */\n      swap3\n      swap2\n      pop\n      pop\n      jump\t// out\n        /* \"#utility.yul\":1483:1847   */\n    tag_90:\n        /* \"#utility.yul\":1571:1574   */\n      0x00\n        /* \"#utility.yul\":1599:1638   */\n      tag_92\n        /* \"#utility.yul\":1632:1637   */\n      dup3\n        /* \"#utility.yul\":1599:1638   */\n      tag_93\n      jump\t// in\n    tag_92:\n        /* \"#utility.yul\":1654:1725   */\n      tag_94\n        /* \"#utility.yul\":1718:1724   */\n      dup2\n        /* \"#utility.yul\":1713:1716   */\n      dup6\n        /* \"#utility.yul\":1654:1725   */\n      tag_95\n      jump\t// in\n    tag_94:\n        /* \"#utility.yul\":1647:1725   */\n      swap4\n      pop\n        /* \"#utility.yul\":1734:1786   */\n      tag_96\n        /* \"#utility.yul\":1779:1785   */\n      dup2\n        /* \"#utility.yul\":1774:1777   */\n      dup6\n        /* \"#utility.yul\":1767:1771   */\n      0x20\n        /* \"#utility.yul\":1760:1765   */\n      dup7\n        /* \"#utility.yul\":1756:1772   */\n      add\n        /* \"#utility.yul\":1734:1786   */\n      tag_87\n      jump\t// in\n    tag_96:\n        /* \"#utility.yul\":1811:1840   */\n      tag_97\n        /* \"#utility.yul\":1833:1839   */\n      dup2\n        /* \"#utility.yul\":1811:1840   */\n      tag_89\n      jump\t// in\n    tag_97:\n        /* \"#utility.yul\":1806:1809   */\n      dup5\n        /* \"#utility.yul\":1802:1841   */\n      add\n        /* \"#utility.yul\":1795:1841   */\n      swap2\n      pop\n        /* \"#utility.yul\":1575:1847   */\n      pop\n        /* \"#utility.yul\":1483:1847   */\n      swap3\n      swap2\n      pop\n      pop\n      jump\t// out\n        /* \"#utility.yul\":1853:1971   */\n    tag_98:\n        /* \"#utility.yul\":1940:1964   */\n      tag_100\n        /* \"#utility.yul\":1958:1963   */\n      dup2\n        /* \"#utility.yul\":1940:1964   */\n      tag_101\n      jump\t// in\n    tag_100:\n        /* \"#utility.yul\":1935:1938   */\n      dup3\n        /* \"#utility.yul\":1928:1965   */\n      mstore\n        /* \"#utility.yul\":1853:1971   */\n      pop\n      pop\n      jump\t// out\n        /* \"#utility.yul\":1977:2199   */\n    tag_20:\n        /* \"#utility.yul\":2070:2074   */\n      0x00\n        /* \"#utility.yul\":2108:2110   */\n      0x20\n        /* \"#utility.yul\":2097:2106   */\n      dup3\n        /* \"#utility.yul\":2093:2111   */\n      add\n        /* \"#utility.yul\":2085:2111   */\n      swap1\n      pop\n        /* \"#utility.yul\":2121:2192   */\n      tag_103\n        /* \"#utility.yul\":2189:2190   */\n      0x00\n        /* \"#utility.yul\":2178:2187   */\n      dup4\n        /* \"#utility.yul\":2174:2191   */\n      add\n        /* \"#utility.yul\":2165:2171   */\n      dup5\n        /* \"#utility.yul\":2121:2192   */\n      tag_76\n      jump\t// in\n    tag_103:\n        /* \"#utility.yul\":1977:2199   */\n      swap3\n      swap2\n      pop\n      pop\n      jump\t// out\n        /* \"#utility.yul\":2205:2514   */\n    tag_12:\n        /* \"#utility.yul\":2316:2320   */\n      0x00\n        /* \"#utility.yul\":2354:2356   */\n      0x20\n        /* \"#utility.yul\":2343:2352   */\n      dup3\n        /* \"#utility.yul\":2339:2357   */\n      add\n        /* \"#utility.yul\":2331:2357   */\n      swap1\n      pop\n        /* \"#utility.yul\":2403:2412   */\n      dup2\n        /* \"#utility.yul\":2397:2401   */\n      dup2\n        /* \"#utility.yul\":2393:2413   */\n      sub\n        /* \"#utility.yul\":2389:2390   */\n      0x00\n        /* \"#utility.yul\":2378:2387   */\n      dup4\n        /* \"#utility.yul\":2374:2391   */\n      add\n        /* \"#utility.yul\":2367:2414   */\n      mstore\n        /* \"#utility.yul\":2431:2507   */\n      tag_105\n        /* \"#utility.yul\":2502:2506   */\n      dup2\n        /* \"#utility.yul\":2493:2499   */\n      dup5\n        /* \"#utility.yul\":2431:2507   */\n      tag_80\n      jump\t// in\n    tag_105:\n        /* \"#utility.yul\":2423:2507   */\n      swap1\n      pop\n        /* \"#utility.yul\":2205:2514   */\n      swap3\n      swap2\n      pop\n      pop\n      jump\t// out\n        /* \"#utility.yul\":2520:2833   */\n    tag_16:\n        /* \"#utility.yul\":2633:2637   */\n      0x00\n        /* \"#utility.yul\":2671:2673   */\n      0x20\n        /* \"#utility.yul\":2660:2669   */\n      dup3\n        /* \"#utility.yul\":2656:2674   */\n      add\n        /* \"#utility.yul\":2648:2674   */\n      swap1\n      pop\n        /* \"#utility.yul\":2720:2729   */\n      dup2\n        /* \"#utility.yul\":2714:2718   */\n      dup2\n        /* \"#utility.yul\":2710:2730   */\n      sub\n        /* \"#utility.yul\":2706:2707   */\n      0x00\n        /* \"#utility.yul\":2695:2704   */\n      dup4\n        /* \"#utility.yul\":2691:2708   */\n      add\n        /* \"#utility.yul\":2684:2731   */\n      mstore\n        /* \"#utility.yul\":2748:2826   */\n      tag_107\n        /* \"#utility.yul\":2821:2825   */\n      dup2\n        /* \"#utility.yul\":2812:2818   */\n      dup5\n        /* \"#utility.yul\":2748:2826   */\n      tag_90\n      jump\t// in\n    tag_107:\n        /* \"#utility.yul\":2740:2826   */\n      swap1\n      pop\n        /* \"#utility.yul\":2520:2833   */\n      swap3\n      swap2\n      pop\n      pop\n      jump\t// out\n        /* \"#utility.yul\":2839:3061   */\n    tag_27:\n        /* \"#utility.yul\":2932:2936   */\n      0x00\n        /* \"#utility.yul\":2970:2972   */\n      0x20\n        /* \"#utility.yul\":2959:2968   */\n      dup3\n        /* \"#utility.yul\":2955:2973   */\n      add\n        /* \"#utility.yul\":2947:2973   */\n      swap1\n      pop\n        /* \"#utility.yul\":2983:3054   */\n      tag_109\n        /* \"#utility.yul\":3051:3052   */\n      0x00\n        /* \"#utility.yul\":3040:3049   */\n      dup4\n        /* \"#utility.yul\":3036:3053   */\n      add\n        /* \"#utility.yul\":3027:3033   */\n      dup5\n        /* \"#utility.yul\":2983:3054   */\n      tag_98\n      jump\t// in\n    tag_109:\n        /* \"#utility.yul\":2839:3061   */\n      swap3\n      swap2\n      pop\n      pop\n      jump\t// out\n        /* \"#utility.yul\":3148:3246   */\n    tag_83:\n        /* \"#utility.yul\":3199:3205   */\n      0x00\n        /* \"#utility.yul\":3233:3238   */\n      dup2\n        /* \"#utility.yul\":3227:3239   */\n      mload\n        /* \"#utility.yul\":3217:3239   */\n      swap1\n      pop\n        /* \"#utility.yul\":3148:3246   */\n      swap2\n      swap1\n      pop\n      jump\t// out\n        /* \"#utility.yul\":3252:3351   */\n    tag_93:\n        /* \"#utility.yul\":3304:3310   */\n      0x00\n        /* \"#utility.yul\":3338:3343   */\n      dup2\n        /* \"#utility.yul\":3332:3344   */\n      mload\n        /* \"#utility.yul\":3322:3344   */\n      swap1\n      pop\n        /* \"#utility.yul\":3252:3351   */\n      swap2\n      swap1\n      pop\n      jump\t// out\n        /* \"#utility.yul\":3357:3525   */\n    tag_85:\n        /* \"#utility.yul\":3440:3451   */\n      0x00\n        /* \"#utility.yul\":3474:3480   */\n      dup3\n        /* \"#utility.yul\":3469:3472   */\n      dup3\n        /* \"#utility.yul\":3462:3481   */\n      mstore\n        /* \"#utility.yul\":3514:3518   */\n      0x20\n        /* \"#utility.yul\":3509:3512   */\n      dup3\n        /* \"#utility.yul\":3505:3519   */\n      add\n        /* \"#utility.yul\":3490:3519   */\n      swap1\n      pop\n        /* \"#utility.yul\":3357:3525   */\n      swap3\n      swap2\n      pop\n      pop\n      jump\t// out\n        /* \"#utility.yul\":3531:3700   */\n    tag_95:\n        /* \"#utility.yul\":3615:3626   */\n      0x00\n        /* \"#utility.yul\":3649:3655   */\n      dup3\n        /* \"#utility.yul\":3644:3647   */\n      dup3\n        /* \"#utility.yul\":3637:3656   */\n      mstore\n        /* \"#utility.yul\":3689:3693   */\n      0x20\n        /* \"#utility.yul\":3684:3687   */\n      dup3\n        /* \"#utility.yul\":3680:3694   */\n      add\n        /* \"#utility.yul\":3665:3694   */\n      swap1\n      pop\n        /* \"#utility.yul\":3531:3700   */\n      swap3\n      swap2\n      pop\n      pop\n      jump\t// out\n        /* \"#utility.yul\":3706:3802   */\n    tag_79:\n        /* \"#utility.yul\":3743:3750   */\n      0x00\n        /* \"#utility.yul\":3772:3796   */\n      tag_117\n        /* \"#utility.yul\":3790:3795   */\n      dup3\n        /* \"#utility.yul\":3772:3796   */\n      tag_118\n      jump\t// in\n    tag_117:\n        /* \"#utility.yul\":3761:3796   */\n      swap1\n      pop\n        /* \"#utility.yul\":3706:3802   */\n      swap2\n      swap1\n      pop\n      jump\t// out\n        /* \"#utility.yul\":3808:3934   */\n    tag_118:\n        /* \"#utility.yul\":3845:3852   */\n      0x00\n        /* \"#utility.yul\":3885:3927   */\n      0xffffffffffffffffffffffffffffffffffffffff\n        /* \"#utility.yul\":3878:3883   */\n      dup3\n        /* \"#utility.yul\":3874:3928   */\n      and\n        /* \"#utility.yul\":3863:3928   */\n      swap1\n      pop\n        /* \"#utility.yul\":3808:3934   */\n      swap2\n      swap1\n      pop\n      jump\t// out\n        /* \"#utility.yul\":3940:4017   */\n    tag_101:\n        /* \"#utility.yul\":3977:3984   */\n      0x00\n        /* \"#utility.yul\":4006:4011   */\n      dup2\n        /* \"#utility.yul\":3995:4011   */\n      swap1\n      pop\n        /* \"#utility.yul\":3940:4017   */\n      swap2\n      swap1\n      pop\n      jump\t// out\n        /* \"#utility.yul\":4023:4330   */\n    tag_87:\n        /* \"#utility.yul\":4091:4092   */\n      0x00\n        /* \"#utility.yul\":4101:4214   */\n    tag_122:\n        /* \"#utility.yul\":4115:4121   */\n      dup4\n        /* \"#utility.yul\":4112:4113   */\n      dup2\n        /* \"#utility.yul\":4109:4122   */\n      lt\n        /* \"#utility.yul\":4101:4214   */\n      iszero\n      tag_124\n      jumpi\n        /* \"#utility.yul\":4200:4201   */\n      dup1\n        /* \"#utility.yul\":4195:4198   */\n      dup3\n        /* \"#utility.yul\":4191:4202   */\n      add\n        /* \"#utility.yul\":4185:4203   */\n      mload\n        /* \"#utility.yul\":4181:4182   */\n      dup2\n        /* \"#utility.yul\":4176:4179   */\n      dup5\n        /* \"#utility.yul\":4172:4183   */\n      add\n        /* \"#utility.yul\":4165:4204   */\n      mstore\n        /* \"#utility.yul\":4137:4139   */\n      0x20\n        /* \"#utility.yul\":4134:4135   */\n      dup2\n        /* \"#utility.yul\":4130:4140   */\n      add\n        /* \"#utility.yul\":4125:4140   */\n      swap1\n      pop\n        /* \"#utility.yul\":4101:4214   */\n      jump(tag_122)\n    tag_124:\n        /* \"#utility.yul\":4232:4238   */\n      dup4\n        /* \"#utility.yul\":4229:4230   */\n      dup2\n        /* \"#utility.yul\":4226:4239   */\n      gt\n        /* \"#utility.yul\":4223:4324   */\n      iszero\n      tag_125\n      jumpi\n        /* \"#utility.yul\":4312:4313   */\n      0x00\n        /* \"#utility.yul\":4303:4309   */\n      dup5\n        /* \"#utility.yul\":4298:4301   */\n      dup5\n        /* \"#utility.yul\":4294:4310   */\n      add\n        /* \"#utility.yul\":4287:4314   */\n      mstore\n        /* \"#utility.yul\":4223:4324   */\n    tag_125:\n        /* \"#utility.yul\":4072:4330   */\n      pop\n        /* \"#utility.yul\":4023:4330   */\n      pop\n      pop\n      pop\n      jump\t// out\n        /* \"#utility.yul\":4336:4656   */\n    tag_33:\n        /* \"#utility.yul\":4380:4386   */\n      0x00\n        /* \"#utility.yul\":4417:4418   */\n      0x02\n        /* \"#utility.yul\":4411:4415   */\n      dup3\n        /* \"#utility.yul\":4407:4419   */\n      div\n        /* \"#utility.yul\":4397:4419   */\n      swap1\n      pop\n        /* \"#utility.yul\":4464:4465   */\n      0x01\n        /* \"#utility.yul\":4458:4462   */\n      dup3\n        /* \"#utility.yul\":4454:4466   */\n      and\n        /* \"#utility.yul\":4485:4503   */\n      dup1\n        /* \"#utility.yul\":4475:4556   */\n      tag_127\n      jumpi\n        /* \"#utility.yul\":4541:4545   */\n      0x7f\n        /* \"#utility.yul\":4533:4539   */\n      dup3\n        /* \"#utility.yul\":4529:4546   */\n      and\n        /* \"#utility.yul\":4519:4546   */\n      swap2\n      pop\n        /* \"#utility.yul\":4475:4556   */\n    tag_127:\n        /* \"#utility.yul\":4603:4605   */\n      0x20\n        /* \"#utility.yul\":4595:4601   */\n      dup3\n        /* \"#utility.yul\":4592:4606   */\n      lt\n        /* \"#utility.yul\":4572:4590   */\n      dup2\n        /* \"#utility.yul\":4569:4607   */\n      eq\n        /* \"#utility.yul\":4566:4650   */\n      iszero\n      tag_128\n      jumpi\n        /* \"#utility.yul\":4622:4640   */\n      tag_129\n      tag_130\n      jump\t// in\n    tag_129:\n        /* \"#utility.yul\":4566:4650   */\n    tag_128:\n        /* \"#utility.yul\":4387:4656   */\n      pop\n        /* \"#utility.yul\":4336:4656   */\n      swap2\n      swap1\n      pop\n      jump\t// out\n        /* \"#utility.yul\":4662:4842   */\n    tag_130:\n        /* \"#utility.yul\":4710:4787   */\n      0x4e487b7100000000000000000000000000000000000000000000000000000000\n        /* \"#utility.yul\":4707:4708   */\n      0x00\n        /* \"#utility.yul\":4700:4788   */\n      mstore\n        /* \"#utility.yul\":4807:4811   */\n      0x22\n        /* \"#utility.yul\":4804:4805   */\n      0x04\n        /* \"#utility.yul\":4797:4812   */\n      mstore\n        /* \"#utility.yul\":4831:4835   */\n      0x24\n        /* \"#utility.yul\":4828:4829   */\n      0x00\n        /* \"#utility.yul\":4821:4836   */\n      revert\n        /* \"#utility.yul\":4971:5088   */\n    tag_70:\n        /* \"#utility.yul\":5080:5081   */\n      0x00\n        /* \"#utility.yul\":5077:5078   */\n      dup1\n        /* \"#utility.yul\":5070:5082   */\n      revert\n        /* \"#utility.yul\":5094:5196   */\n    tag_89:\n        /* \"#utility.yul\":5135:5141   */\n      0x00\n        /* \"#utility.yul\":5186:5188   */\n      0x1f\n        /* \"#utility.yul\":5182:5189   */\n      not\n        /* \"#utility.yul\":5177:5179   */\n      0x1f\n        /* \"#utility.yul\":5170:5175   */\n      dup4\n        /* \"#utility.yul\":5166:5180   */\n      add\n        /* \"#utility.yul\":5162:5190   */\n      and\n        /* \"#utility.yul\":5152:5190   */\n      swap1\n      pop\n        /* \"#utility.yul\":5094:5196   */\n      swap2\n      swap1\n      pop\n      jump\t// out\n        /* \"#utility.yul\":5202:5324   */\n    tag_63:\n        /* \"#utility.yul\":5275:5299   */\n      tag_137\n        /* \"#utility.yul\":5293:5298   */\n      dup2\n        /* \"#utility.yul\":5275:5299   */\n      tag_101\n      jump\t// in\n    tag_137:\n        /* \"#utility.yul\":5268:5273   */\n      dup2\n        /* \"#utility.yul\":5265:5300   */\n      eq\n        /* \"#utility.yul\":5255:5318   */\n      tag_138\n      jumpi\n        /* \"#utility.yul\":5314:5315   */\n      0x00\n        /* \"#utility.yul\":5311:5312   */\n      dup1\n        /* \"#utility.yul\":5304:5316   */\n      revert\n        /* \"#utility.yul\":5255:5318   */\n    tag_138:\n        /* \"#utility.yul\":5202:5324   */\n      pop\n      jump\t// out\n\n    auxdata: 0xa2646970667358221220ad7b2df23e89e5fc415659f5ec93616a4f7d78bfc29c1e8f64316aa81490878f64736f6c63430008070033\n}\n\nsub_1: assembly {\n        /* \"study/chapter04/newContract.sol\":53:468  contract testContract{... */\n      mstore(0x40, 0x80)\n        /* \"study/chapter04/newContract.sol\":156:205  constructor(uint _a) payable{... */\n      mload(0x40)\n      sub(codesize, bytecodeSize)\n      dup1\n      bytecodeSize\n      dup4\n      codecopy\n      dup2\n      dup2\n      add\n      0x40\n      mstore\n      dup2\n      add\n      swap1\n      tag_1\n      swap2\n      swap1\n      tag_2\n      jump\t// in\n    tag_1:\n        /* \"study/chapter04/newContract.sol\":196:198  _a */\n      dup1\n        /* \"study/chapter04/newContract.sol\":194:195  a */\n      0x00\n        /* \"study/chapter04/newContract.sol\":194:198  a=_a */\n      dup2\n      swap1\n      sstore\n      pop\n        /* \"study/chapter04/newContract.sol\":156:205  constructor(uint _a) payable{... */\n      pop\n        /* \"study/chapter04/newContract.sol\":53:468  contract testContract{... */\n      jump(tag_5)\n        /* \"#utility.yul\":7:150   */\n    tag_7:\n        /* \"#utility.yul\":64:69   */\n      0x00\n        /* \"#utility.yul\":95:101   */\n      dup2\n        /* \"#utility.yul\":89:102   */\n      mload\n        /* \"#utility.yul\":80:102   */\n      swap1\n      pop\n        /* \"#utility.yul\":111:144   */\n      tag_9\n        /* \"#utility.yul\":138:143   */\n      dup2\n        /* \"#utility.yul\":111:144   */\n      tag_10\n      jump\t// in\n    tag_9:\n        /* \"#utility.yul\":7:150   */\n      swap3\n      swap2\n      pop\n      pop\n      jump\t// out\n        /* \"#utility.yul\":156:507   */\n    tag_2:\n        /* \"#utility.yul\":226:232   */\n      0x00\n        /* \"#utility.yul\":275:277   */\n      0x20\n        /* \"#utility.yul\":263:272   */\n      dup3\n        /* \"#utility.yul\":254:261   */\n      dup5\n        /* \"#utility.yul\":250:273   */\n      sub\n        /* \"#utility.yul\":246:278   */\n      slt\n        /* \"#utility.yul\":243:362   */\n      iszero\n      tag_12\n      jumpi\n        /* \"#utility.yul\":281:360   */\n      tag_13\n      tag_14\n      jump\t// in\n    tag_13:\n        /* \"#utility.yul\":243:362   */\n    tag_12:\n        /* \"#utility.yul\":401:402   */\n      0x00\n        /* \"#utility.yul\":426:490   */\n      tag_15\n        /* \"#utility.yul\":482:489   */\n      dup5\n        /* \"#utility.yul\":473:479   */\n      dup3\n        /* \"#utility.yul\":462:471   */\n      dup6\n        /* \"#utility.yul\":458:480   */\n      add\n        /* \"#utility.yul\":426:490   */\n      tag_7\n      jump\t// in\n    tag_15:\n        /* \"#utility.yul\":416:490   */\n      swap2\n      pop\n        /* \"#utility.yul\":372:500   */\n      pop\n        /* \"#utility.yul\":156:507   */\n      swap3\n      swap2\n      pop\n      pop\n      jump\t// out\n        /* \"#utility.yul\":594:671   */\n    tag_18:\n        /* \"#utility.yul\":631:638   */\n      0x00\n        /* \"#utility.yul\":660:665   */\n      dup2\n        /* \"#utility.yul\":649:665   */\n      swap1\n      pop\n        /* \"#utility.yul\":594:671   */\n      swap2\n      swap1\n      pop\n      jump\t// out\n        /* \"#utility.yul\":800:917   */\n    tag_14:\n        /* \"#utility.yul\":909:910   */\n      0x00\n        /* \"#utility.yul\":906:907   */\n      dup1\n        /* \"#utility.yul\":899:911   */\n      revert\n        /* \"#utility.yul\":923:1045   */\n    tag_10:\n        /* \"#utility.yul\":996:1020   */\n      tag_24\n        /* \"#utility.yul\":1014:1019   */\n      dup2\n        /* \"#utility.yul\":996:1020   */\n      tag_18\n      jump\t// in\n    tag_24:\n        /* \"#utility.yul\":989:994   */\n      dup2\n        /* \"#utility.yul\":986:1021   */\n      eq\n        /* \"#utility.yul\":976:1039   */\n      tag_25\n      jumpi\n        /* \"#utility.yul\":1035:1036   */\n      0x00\n        /* \"#utility.yul\":1032:1033   */\n      dup1\n        /* \"#utility.yul\":1025:1037   */\n      revert\n        /* \"#utility.yul\":976:1039   */\n    tag_25:\n        /* \"#utility.yul\":923:1045   */\n      pop\n      jump\t// out\n        /* \"study/chapter04/newContract.sol\":53:468  contract testContract{... */\n    tag_5:\n      dataSize(sub_0)\n      dup1\n      dataOffset(sub_0)\n      0x00\n      codecopy\n      0x00\n      return\n    stop\n\n    sub_0: assembly {\n            /* \"study/chapter04/newContract.sol\":53:468  contract testContract{... */\n          mstore(0x40, 0x80)\n          jumpi(tag_1, lt(calldatasize, 0x04))\n          shr(0xe0, calldataload(0x00))\n          dup1\n          0x0dbe671f\n          eq\n          tag_3\n          jumpi\n          dup1\n          0x12065fe0\n          eq\n          tag_4\n          jumpi\n          dup1\n          0xee919d50\n          eq\n          tag_5\n          jumpi\n          dup1\n          0xf5f5ba72\n          eq\n          tag_6\n          jumpi\n          jump(tag_2)\n        tag_1:\n          jumpi(tag_2, calldatasize)\n          stop\n        tag_2:\n          0x00\n          dup1\n          revert\n            /* \"study/chapter04/newContract.sol\":136:149  uint public a */\n        tag_3:\n          callvalue\n          dup1\n          iszero\n          tag_9\n          jumpi\n          0x00\n          dup1\n          revert\n        tag_9:\n          pop\n          tag_10\n          tag_11\n          jump\t// in\n        tag_10:\n          mload(0x40)\n          tag_12\n          swap2\n          swap1\n          tag_13\n          jump\t// in\n        tag_12:\n          mload(0x40)\n          dup1\n          swap2\n          sub\n          swap1\n          return\n            /* \"study/chapter04/newContract.sol\":373:466  function getBalance()external view returns(uint){... */\n        tag_4:\n          callvalue\n          dup1\n          iszero\n          tag_14\n          jumpi\n          0x00\n          dup1\n          revert\n        tag_14:\n          pop\n          tag_15\n          tag_16\n          jump\t// in\n        tag_15:\n          mload(0x40)\n          tag_17\n          swap2\n          swap1\n          tag_13\n          jump\t// in\n        tag_17:\n          mload(0x40)\n          dup1\n          swap2\n          sub\n          swap1\n          return\n            /* \"study/chapter04/newContract.sol\":315:368  function setA(uint _a)external{... */\n        tag_5:\n          callvalue\n          dup1\n          iszero\n          tag_18\n          jumpi\n          0x00\n          dup1\n          revert\n        tag_18:\n          pop\n          tag_19\n          0x04\n          dup1\n          calldatasize\n          sub\n          dup2\n          add\n          swap1\n          tag_20\n          swap2\n          swap1\n          tag_21\n          jump\t// in\n        tag_20:\n          tag_22\n          jump\t// in\n        tag_19:\n          stop\n            /* \"study/chapter04/newContract.sol\":210:310  function getContractName()external pure returns(string memory){... */\n        tag_6:\n          callvalue\n          dup1\n          iszero\n          tag_23\n          jumpi\n          0x00\n          dup1\n          revert\n        tag_23:\n          pop\n          tag_24\n          tag_25\n          jump\t// in\n        tag_24:\n          mload(0x40)\n          tag_26\n          swap2\n          swap1\n          tag_27\n          jump\t// in\n        tag_26:\n          mload(0x40)\n          dup1\n          swap2\n          sub\n          swap1\n          return\n            /* \"study/chapter04/newContract.sol\":136:149  uint public a */\n        tag_11:\n          sload(0x00)\n          dup2\n          jump\t// out\n            /* \"study/chapter04/newContract.sol\":373:466  function getBalance()external view returns(uint){... */\n        tag_16:\n            /* \"study/chapter04/newContract.sol\":416:420  uint */\n          0x00\n            /* \"study/chapter04/newContract.sol\":438:459  address(this).balance */\n          selfbalance\n            /* \"study/chapter04/newContract.sol\":431:459  return address(this).balance */\n          swap1\n          pop\n            /* \"study/chapter04/newContract.sol\":373:466  function getBalance()external view returns(uint){... */\n          swap1\n          jump\t// out\n            /* \"study/chapter04/newContract.sol\":315:368  function setA(uint _a)external{... */\n        tag_22:\n            /* \"study/chapter04/newContract.sol\":359:361  _a */\n          dup1\n            /* \"study/chapter04/newContract.sol\":355:356  a */\n          0x00\n            /* \"study/chapter04/newContract.sol\":355:361  a = _a */\n          dup2\n          swap1\n          sstore\n          pop\n            /* \"study/chapter04/newContract.sol\":315:368  function setA(uint _a)external{... */\n          pop\n          jump\t// out\n            /* \"study/chapter04/newContract.sol\":210:310  function getContractName()external pure returns(string memory){... */\n        tag_25:\n            /* \"study/chapter04/newContract.sol\":258:271  string memory */\n          0x60\n            /* \"study/chapter04/newContract.sol\":282:303  return \"testContract\" */\n          mload(0x40)\n          dup1\n          0x40\n          add\n          0x40\n          mstore\n          dup1\n          0x0c\n          dup2\n          mstore\n          0x20\n          add\n          0x74657374436f6e74726163740000000000000000000000000000000000000000\n          dup2\n          mstore\n          pop\n          swap1\n          pop\n            /* \"study/chapter04/newContract.sol\":210:310  function getContractName()external pure returns(string memory){... */\n          swap1\n          jump\t// out\n            /* \"#utility.yul\":7:146   */\n        tag_32:\n            /* \"#utility.yul\":53:58   */\n          0x00\n            /* \"#utility.yul\":91:97   */\n          dup2\n            /* \"#utility.yul\":78:98   */\n          calldataload\n            /* \"#utility.yul\":69:98   */\n          swap1\n          pop\n            /* \"#utility.yul\":107:140   */\n          tag_34\n            /* \"#utility.yul\":134:139   */\n          dup2\n            /* \"#utility.yul\":107:140   */\n          tag_35\n          jump\t// in\n        tag_34:\n            /* \"#utility.yul\":7:146   */\n          swap3\n          swap2\n          pop\n          pop\n          jump\t// out\n            /* \"#utility.yul\":152:481   */\n        tag_21:\n            /* \"#utility.yul\":211:217   */\n          0x00\n            /* \"#utility.yul\":260:262   */\n          0x20\n            /* \"#utility.yul\":248:257   */\n          dup3\n            /* \"#utility.yul\":239:246   */\n          dup5\n            /* \"#utility.yul\":235:258   */\n          sub\n            /* \"#utility.yul\":231:263   */\n          slt\n            /* \"#utility.yul\":228:347   */\n          iszero\n          tag_37\n          jumpi\n            /* \"#utility.yul\":266:345   */\n          tag_38\n          tag_39\n          jump\t// in\n        tag_38:\n            /* \"#utility.yul\":228:347   */\n        tag_37:\n            /* \"#utility.yul\":386:387   */\n          0x00\n            /* \"#utility.yul\":411:464   */\n          tag_40\n            /* \"#utility.yul\":456:463   */\n          dup5\n            /* \"#utility.yul\":447:453   */\n          dup3\n            /* \"#utility.yul\":436:445   */\n          dup6\n            /* \"#utility.yul\":432:454   */\n          add\n            /* \"#utility.yul\":411:464   */\n          tag_32\n          jump\t// in\n        tag_40:\n            /* \"#utility.yul\":401:464   */\n          swap2\n          pop\n            /* \"#utility.yul\":357:474   */\n          pop\n            /* \"#utility.yul\":152:481   */\n          swap3\n          swap2\n          pop\n          pop\n          jump\t// out\n            /* \"#utility.yul\":487:851   */\n        tag_41:\n            /* \"#utility.yul\":575:578   */\n          0x00\n            /* \"#utility.yul\":603:642   */\n          tag_43\n            /* \"#utility.yul\":636:641   */\n          dup3\n            /* \"#utility.yul\":603:642   */\n          tag_44\n          jump\t// in\n        tag_43:\n            /* \"#utility.yul\":658:729   */\n          tag_45\n            /* \"#utility.yul\":722:728   */\n          dup2\n            /* \"#utility.yul\":717:720   */\n          dup6\n            /* \"#utility.yul\":658:729   */\n          tag_46\n          jump\t// in\n        tag_45:\n            /* \"#utility.yul\":651:729   */\n          swap4\n          pop\n            /* \"#utility.yul\":738:790   */\n          tag_47\n            /* \"#utility.yul\":783:789   */\n          dup2\n            /* \"#utility.yul\":778:781   */\n          dup6\n            /* \"#utility.yul\":771:775   */\n          0x20\n            /* \"#utility.yul\":764:769   */\n          dup7\n            /* \"#utility.yul\":760:776   */\n          add\n            /* \"#utility.yul\":738:790   */\n          tag_48\n          jump\t// in\n        tag_47:\n            /* \"#utility.yul\":815:844   */\n          tag_49\n            /* \"#utility.yul\":837:843   */\n          dup2\n            /* \"#utility.yul\":815:844   */\n          tag_50\n          jump\t// in\n        tag_49:\n            /* \"#utility.yul\":810:813   */\n          dup5\n            /* \"#utility.yul\":806:845   */\n          add\n            /* \"#utility.yul\":799:845   */\n          swap2\n          pop\n            /* \"#utility.yul\":579:851   */\n          pop\n            /* \"#utility.yul\":487:851   */\n          swap3\n          swap2\n          pop\n          pop\n          jump\t// out\n            /* \"#utility.yul\":857:975   */\n        tag_51:\n            /* \"#utility.yul\":944:968   */\n          tag_53\n            /* \"#utility.yul\":962:967   */\n          dup2\n            /* \"#utility.yul\":944:968   */\n          tag_54\n          jump\t// in\n        tag_53:\n            /* \"#utility.yul\":939:942   */\n          dup3\n            /* \"#utility.yul\":932:969   */\n          mstore\n            /* \"#utility.yul\":857:975   */\n          pop\n          pop\n          jump\t// out\n            /* \"#utility.yul\":981:1294   */\n        tag_27:\n            /* \"#utility.yul\":1094:1098   */\n          0x00\n            /* \"#utility.yul\":1132:1134   */\n          0x20\n            /* \"#utility.yul\":1121:1130   */\n          dup3\n            /* \"#utility.yul\":1117:1135   */\n          add\n            /* \"#utility.yul\":1109:1135   */\n          swap1\n          pop\n            /* \"#utility.yul\":1181:1190   */\n          dup2\n            /* \"#utility.yul\":1175:1179   */\n          dup2\n            /* \"#utility.yul\":1171:1191   */\n          sub\n            /* \"#utility.yul\":1167:1168   */\n          0x00\n            /* \"#utility.yul\":1156:1165   */\n          dup4\n            /* \"#utility.yul\":1152:1169   */\n          add\n            /* \"#utility.yul\":1145:1192   */\n          mstore\n            /* \"#utility.yul\":1209:1287   */\n          tag_56\n            /* \"#utility.yul\":1282:1286   */\n          dup2\n            /* \"#utility.yul\":1273:1279   */\n          dup5\n            /* \"#utility.yul\":1209:1287   */\n          tag_41\n          jump\t// in\n        tag_56:\n            /* \"#utility.yul\":1201:1287   */\n          swap1\n          pop\n            /* \"#utility.yul\":981:1294   */\n          swap3\n          swap2\n          pop\n          pop\n          jump\t// out\n            /* \"#utility.yul\":1300:1522   */\n        tag_13:\n            /* \"#utility.yul\":1393:1397   */\n          0x00\n            /* \"#utility.yul\":1431:1433   */\n          0x20\n            /* \"#utility.yul\":1420:1429   */\n          dup3\n            /* \"#utility.yul\":1416:1434   */\n          add\n            /* \"#utility.yul\":1408:1434   */\n          swap1\n          pop\n            /* \"#utility.yul\":1444:1515   */\n          tag_58\n            /* \"#utility.yul\":1512:1513   */\n          0x00\n            /* \"#utility.yul\":1501:1510   */\n          dup4\n            /* \"#utility.yul\":1497:1514   */\n          add\n            /* \"#utility.yul\":1488:1494   */\n          dup5\n            /* \"#utility.yul\":1444:1515   */\n          tag_51\n          jump\t// in\n        tag_58:\n            /* \"#utility.yul\":1300:1522   */\n          swap3\n          swap2\n          pop\n          pop\n          jump\t// out\n            /* \"#utility.yul\":1609:1708   */\n        tag_44:\n            /* \"#utility.yul\":1661:1667   */\n          0x00\n            /* \"#utility.yul\":1695:1700   */\n          dup2\n            /* \"#utility.yul\":1689:1701   */\n          mload\n            /* \"#utility.yul\":1679:1701   */\n          swap1\n          pop\n            /* \"#utility.yul\":1609:1708   */\n          swap2\n          swap1\n          pop\n          jump\t// out\n            /* \"#utility.yul\":1714:1883   */\n        tag_46:\n            /* \"#utility.yul\":1798:1809   */\n          0x00\n            /* \"#utility.yul\":1832:1838   */\n          dup3\n            /* \"#utility.yul\":1827:1830   */\n          dup3\n            /* \"#utility.yul\":1820:1839   */\n          mstore\n            /* \"#utility.yul\":1872:1876   */\n          0x20\n            /* \"#utility.yul\":1867:1870   */\n          dup3\n            /* \"#utility.yul\":1863:1877   */\n          add\n            /* \"#utility.yul\":1848:1877   */\n          swap1\n          pop\n            /* \"#utility.yul\":1714:1883   */\n          swap3\n          swap2\n          pop\n          pop\n          jump\t// out\n            /* \"#utility.yul\":1889:1966   */\n        tag_54:\n            /* \"#utility.yul\":1926:1933   */\n          0x00\n            /* \"#utility.yul\":1955:1960   */\n          dup2\n            /* \"#utility.yul\":1944:1960   */\n          swap1\n          pop\n            /* \"#utility.yul\":1889:1966   */\n          swap2\n          swap1\n          pop\n          jump\t// out\n            /* \"#utility.yul\":1972:2279   */\n        tag_48:\n            /* \"#utility.yul\":2040:2041   */\n          0x00\n            /* \"#utility.yul\":2050:2163   */\n        tag_65:\n            /* \"#utility.yul\":2064:2070   */\n          dup4\n            /* \"#utility.yul\":2061:2062   */\n          dup2\n            /* \"#utility.yul\":2058:2071   */\n          lt\n            /* \"#utility.yul\":2050:2163   */\n          iszero\n          tag_67\n          jumpi\n            /* \"#utility.yul\":2149:2150   */\n          dup1\n            /* \"#utility.yul\":2144:2147   */\n          dup3\n            /* \"#utility.yul\":2140:2151   */\n          add\n            /* \"#utility.yul\":2134:2152   */\n          mload\n            /* \"#utility.yul\":2130:2131   */\n          dup2\n            /* \"#utility.yul\":2125:2128   */\n          dup5\n            /* \"#utility.yul\":2121:2132   */\n          add\n            /* \"#utility.yul\":2114:2153   */\n          mstore\n            /* \"#utility.yul\":2086:2088   */\n          0x20\n            /* \"#utility.yul\":2083:2084   */\n          dup2\n            /* \"#utility.yul\":2079:2089   */\n          add\n            /* \"#utility.yul\":2074:2089   */\n          swap1\n          pop\n            /* \"#utility.yul\":2050:2163   */\n          jump(tag_65)\n        tag_67:\n            /* \"#utility.yul\":2181:2187   */\n          dup4\n            /* \"#utility.yul\":2178:2179   */\n          dup2\n            /* \"#utility.yul\":2175:2188   */\n          gt\n            /* \"#utility.yul\":2172:2273   */\n          iszero\n          tag_68\n          jumpi\n            /* \"#utility.yul\":2261:2262   */\n          0x00\n            /* \"#utility.yul\":2252:2258   */\n          dup5\n            /* \"#utility.yul\":2247:2250   */\n          dup5\n            /* \"#utility.yul\":2243:2259   */\n          add\n            /* \"#utility.yul\":2236:2263   */\n          mstore\n            /* \"#utility.yul\":2172:2273   */\n        tag_68:\n            /* \"#utility.yul\":2021:2279   */\n          pop\n            /* \"#utility.yul\":1972:2279   */\n          pop\n          pop\n          pop\n          jump\t// out\n            /* \"#utility.yul\":2408:2525   */\n        tag_39:\n            /* \"#utility.yul\":2517:2518   */\n          0x00\n            /* \"#utility.yul\":2514:2515   */\n          dup1\n            /* \"#utility.yul\":2507:2519   */\n          revert\n            /* \"#utility.yul\":2531:2633   */\n        tag_50:\n            /* \"#utility.yul\":2572:2578   */\n          0x00\n            /* \"#utility.yul\":2623:2625   */\n          0x1f\n            /* \"#utility.yul\":2619:2626   */\n          not\n            /* \"#utility.yul\":2614:2616   */\n          0x1f\n            /* \"#utility.yul\":2607:2612   */\n          dup4\n            /* \"#utility.yul\":2603:2617   */\n          add\n            /* \"#utility.yul\":2599:2627   */\n          and\n            /* \"#utility.yul\":2589:2627   */\n          swap1\n          pop\n            /* \"#utility.yul\":2531:2633   */\n          swap2\n          swap1\n          pop\n          jump\t// out\n            /* \"#utility.yul\":2639:2761   */\n        tag_35:\n            /* \"#utility.yul\":2712:2736   */\n          tag_74\n            /* \"#utility.yul\":2730:2735   */\n          dup2\n            /* \"#utility.yul\":2712:2736   */\n          tag_54\n          jump\t// in\n        tag_74:\n            /* \"#utility.yul\":2705:2710   */\n          dup2\n            /* \"#utility.yul\":2702:2737   */\n          eq\n            /* \"#utility.yul\":2692:2755   */\n          tag_75\n          jumpi\n            /* \"#utility.yul\":2751:2752   */\n          0x00\n            /* \"#utility.yul\":2748:2749   */\n          dup1\n            /* \"#utility.yul\":2741:2753   */\n          revert\n            /* \"#utility.yul\":2692:2755   */\n        tag_75:\n            /* \"#utility.yul\":2639:2761   */\n          pop\n          jump\t// out\n\n        auxdata: 0xa2646970667358221220c7771a9b32871a0aa799ecb18e42ba54ffdd4eb6f5904264f46d4e50ccbf75c964736f6c63430008070033\n    }\n}\n",
				"bytecode": {
					"linkReferences": {},
					"object": "608060405260008054906101000a900473ffffffffffffffffffffffffffffffffffffffff16600160006101000a81548173ffffffffffffffffffffffffffffffffffffffff021916908373ffffffffffffffffffffffffffffffffffffffff16021790555060008054906101000a900473ffffffffffffffffffffffffffffffffffffffff1673ffffffffffffffffffffffffffffffffffffffff1663f5f5ba726040518163ffffffff1660e01b815260040160006040518083038186803b158015620000cc57600080fd5b505afa158015620000e1573d6000803e3d6000fd5b505050506040513d6000823e3d601f19601f820116820180604052508101906200010c919062000391565b6002908051906020019062000123929190620001c4565b5060405180604001604052600c8152806020017f74657374436f6e747261637400000000000000000000000000000000000000008152506003908051906020019062000171929190620001c4565b5060405180602001620001849062000255565b6020820181038252601f19601f8201166040525060049080519060200190620001af92919062000263565b50348015620001bd57600080fd5b5062000566565b828054620001d29062000477565b90600052602060002090601f016020900481019282620001f6576000855562000242565b82601f106200021157805160ff191683800117855562000242565b8280016001018555821562000242579182015b828111156200024157825182559160200191906001019062000224565b5b509050620002519190620002f4565b5090565b61037a8062000c8c83390190565b828054620002719062000477565b90600052602060002090601f016020900481019282620002955760008555620002e1565b82601f10620002b057805160ff1916838001178555620002e1565b82800160010185558215620002e1579182015b82811115620002e0578251825591602001919060010190620002c3565b5b509050620002f09190620002f4565b5090565b5b808211156200030f576000816000905550600101620002f5565b5090565b60006200032a62000324846200040b565b620003e2565b90508281526020810184848401111562000349576200034862000546565b5b6200035684828562000441565b509392505050565b600082601f83011262000376576200037562000541565b5b81516200038884826020860162000313565b91505092915050565b600060208284031215620003aa57620003a962000550565b5b600082015167ffffffffffffffff811115620003cb57620003ca6200054b565b5b620003d9848285016200035e565b91505092915050565b6000620003ee62000401565b9050620003fc8282620004ad565b919050565b6000604051905090565b600067ffffffffffffffff82111562000429576200042862000512565b5b620004348262000555565b9050602081019050919050565b60005b838110156200046157808201518184015260208101905062000444565b8381111562000471576000848401525b50505050565b600060028204905060018216806200049057607f821691505b60208210811415620004a757620004a6620004e3565b5b50919050565b620004b88262000555565b810181811067ffffffffffffffff82111715620004da57620004d962000512565b5b80604052505050565b7f4e487b7100000000000000000000000000000000000000000000000000000000600052602260045260246000fd5b7f4e487b7100000000000000000000000000000000000000000000000000000000600052604160045260246000fd5b600080fd5b600080fd5b600080fd5b600080fd5b6000601f19601f8301169050919050565b61071680620005766000396000f3fe608060405234801561001057600080fd5b50600436106100625760003560e01c80637c00013814610067578063c15bae8414610085578063d01bb4d5146100a3578063d118d187146100c1578063d46300fd146100df578063ee919d50146100fd575b600080fd5b61006f610119565b60405161007c919061054c565b60405180910390f35b61008d6101a7565b60405161009a919061056e565b60405180910390f35b6100ab610235565b6040516100b89190610531565b60405180910390f35b6100c961025b565b6040516100d6919061056e565b60405180910390f35b6100e76102e9565b6040516100f49190610590565b60405180910390f35b61011760048036038101906101129190610447565b61038f565b005b6004805461012690610652565b80601f016020809104026020016040519081016040528092919081815260200182805461015290610652565b801561019f5780601f106101745761010080835404028352916020019161019f565b820191906000526020600020905b81548152906001019060200180831161018257829003601f168201915b505050505081565b600280546101b490610652565b80601f01602080910402602001604051908101604052809291908181526020018280546101e090610652565b801561022d5780601f106102025761010080835404028352916020019161022d565b820191906000526020600020905b81548152906001019060200180831161021057829003601f168201915b505050505081565b600160009054906101000a900473ffffffffffffffffffffffffffffffffffffffff1681565b6003805461026890610652565b80601f016020809104026020016040519081016040528092919081815260200182805461029490610652565b80156102e15780601f106102b6576101008083540402835291602001916102e1565b820191906000526020600020905b8154815290600101906020018083116102c457829003601f168201915b505050505081565b60008060009054906101000a900473ffffffffffffffffffffffffffffffffffffffff1673ffffffffffffffffffffffffffffffffffffffff16630dbe671f6040518163ffffffff1660e01b815260040160206040518083038186803b15801561035257600080fd5b505afa158015610366573d6000803e3d6000fd5b505050506040513d601f19601f8201168201806040525081019061038a9190610474565b905090565b60008054906101000a900473ffffffffffffffffffffffffffffffffffffffff1673ffffffffffffffffffffffffffffffffffffffff1663ee919d50826040518263ffffffff1660e01b81526004016103e89190610590565b600060405180830381600087803b15801561040257600080fd5b505af1158015610416573d6000803e3d6000fd5b5050505050565b60008135905061042c816106c9565b92915050565b600081519050610441816106c9565b92915050565b60006020828403121561045d5761045c6106b3565b5b600061046b8482850161041d565b91505092915050565b60006020828403121561048a576104896106b3565b5b600061049884828501610432565b91505092915050565b6104aa816105e3565b82525050565b60006104bb826105ab565b6104c581856105c1565b93506104d581856020860161061f565b6104de816106b8565b840191505092915050565b60006104f4826105b6565b6104fe81856105d2565b935061050e81856020860161061f565b610517816106b8565b840191505092915050565b61052b81610615565b82525050565b600060208201905061054660008301846104a1565b92915050565b6000602082019050818103600083015261056681846104b0565b905092915050565b6000602082019050818103600083015261058881846104e9565b905092915050565b60006020820190506105a56000830184610522565b92915050565b600081519050919050565b600081519050919050565b600082825260208201905092915050565b600082825260208201905092915050565b60006105ee826105f5565b9050919050565b600073ffffffffffffffffffffffffffffffffffffffff82169050919050565b6000819050919050565b60005b8381101561063d578082015181840152602081019050610622565b8381111561064c576000848401525b50505050565b6000600282049050600182168061066a57607f821691505b6020821081141561067e5761067d610684565b5b50919050565b7f4e487b7100000000000000000000000000000000000000000000000000000000600052602260045260246000fd5b600080fd5b6000601f19601f8301169050919050565b6106d281610615565b81146106dd57600080fd5b5056fea2646970667358221220ad7b2df23e89e5fc415659f5ec93616a4f7d78bfc29c1e8f64316aa81490878f64736f6c63430008070033608060405260405161037a38038061037a83398181016040528101906100259190610047565b806000819055505061009a565b60008151905061004181610083565b92915050565b60006020828403121561005d5761005c61007e565b5b600061006b84828501610032565b91505092915050565b6000819050919050565b600080fd5b61008c81610074565b811461009757600080fd5b50565b6102d1806100a96000396000f3fe6080604052600436106100435760003560e01c80630dbe671f1461004f57806312065fe01461007a578063ee919d50146100a5578063f5f5ba72146100ce5761004a565b3661004a57005b600080fd5b34801561005b57600080fd5b506100646100f9565b60405161007191906101fa565b60405180910390f35b34801561008657600080fd5b5061008f6100ff565b60405161009c91906101fa565b60405180910390f35b3480156100b157600080fd5b506100cc60048036038101906100c79190610163565b610107565b005b3480156100da57600080fd5b506100e3610111565b6040516100f091906101d8565b60405180910390f35b60005481565b600047905090565b8060008190555050565b60606040518060400160405280600c81526020017f74657374436f6e74726163740000000000000000000000000000000000000000815250905090565b60008135905061015d81610284565b92915050565b6000602082840312156101795761017861026e565b5b60006101878482850161014e565b91505092915050565b600061019b82610215565b6101a58185610220565b93506101b581856020860161023b565b6101be81610273565b840191505092915050565b6101d281610231565b82525050565b600060208201905081810360008301526101f28184610190565b905092915050565b600060208201905061020f60008301846101c9565b92915050565b600081519050919050565b600082825260208201905092915050565b6000819050919050565b60005b8381101561025957808201518184015260208101905061023e565b83811115610268576000848401525b50505050565b600080fd5b6000601f19601f8301169050919050565b61028d81610231565b811461029857600080fd5b5056fea2646970667358221220c7771a9b32871a0aa799ecb18e42ba54ffdd4eb6f5904264f46d4e50ccbf75c964736f6c63430008070033",
					"opcodes": "PUSH1 0x80 PUSH1 0x40 MSTORE PUSH1 0x0 DUP1 SLOAD SWAP1 PUSH2 0x100 EXP SWAP1 DIV PUSH20 0xFFFFFFFFFFFFFFFFFFFFFFFFFFFFFFFFFFFFFFFF AND PUSH1 0x1 PUSH1 0x0 PUSH2 0x100 EXP DUP2 SLOAD DUP2 PUSH20 0xFFFFFFFFFFFFFFFFFFFFFFFFFFFFFFFFFFFFFFFF MUL NOT AND SWAP1 DUP4 PUSH20 0xFFFFFFFFFFFFFFFFFFFFFFFFFFFFFFFFFFFFFFFF AND MUL OR SWAP1 SSTORE POP PUSH1 0x0 DUP1 SLOAD SWAP1 PUSH2 0x100 EXP SWAP1 DIV PUSH20 0xFFFFFFFFFFFFFFFFFFFFFFFFFFFFFFFFFFFFFFFF AND PUSH20 0xFFFFFFFFFFFFFFFFFFFFFFFFFFFFFFFFFFFFFFFF AND PUSH4 0xF5F5BA72 PUSH1 0x40 MLOAD DUP2 PUSH4 0xFFFFFFFF AND PUSH1 0xE0 SHL DUP2 MSTORE PUSH1 0x4 ADD PUSH1 0x0 PUSH1 0x40 MLOAD DUP1 DUP4 SUB DUP2 DUP7 DUP1 EXTCODESIZE ISZERO DUP1 ISZERO PUSH3 0xCC JUMPI PUSH1 0x0 DUP1 REVERT JUMPDEST POP GAS STATICCALL ISZERO DUP1 ISZERO PUSH3 0xE1 JUMPI RETURNDATASIZE PUSH1 0x0 DUP1 RETURNDATACOPY RETURNDATASIZE PUSH1 0x0 REVERT JUMPDEST POP POP POP POP PUSH1 0x40 MLOAD RETURNDATASIZE PUSH1 0x0 DUP3 RETURNDATACOPY RETURNDATASIZE PUSH1 0x1F NOT PUSH1 0x1F DUP3 ADD AND DUP3 ADD DUP1 PUSH1 0x40 MSTORE POP DUP2 ADD SWAP1 PUSH3 0x10C SWAP2 SWAP1 PUSH3 0x391 JUMP JUMPDEST PUSH1 0x2 SWAP1 DUP1 MLOAD SWAP1 PUSH1 0x20 ADD SWAP1 PUSH3 0x123 SWAP3 SWAP2 SWAP1 PUSH3 0x1C4 JUMP JUMPDEST POP PUSH1 0x40 MLOAD DUP1 PUSH1 0x40 ADD PUSH1 0x40 MSTORE PUSH1 0xC DUP2 MSTORE DUP1 PUSH1 0x20 ADD PUSH32 0x74657374436F6E74726163740000000000000000000000000000000000000000 DUP2 MSTORE POP PUSH1 0x3 SWAP1 DUP1 MLOAD SWAP1 PUSH1 0x20 ADD SWAP1 PUSH3 0x171 SWAP3 SWAP2 SWAP1 PUSH3 0x1C4 JUMP JUMPDEST POP PUSH1 0x40 MLOAD DUP1 PUSH1 0x20 ADD PUSH3 0x184 SWAP1 PUSH3 0x255 JUMP JUMPDEST PUSH1 0x20 DUP3 ADD DUP2 SUB DUP3 MSTORE PUSH1 0x1F NOT PUSH1 0x1F DUP3 ADD AND PUSH1 0x40 MSTORE POP PUSH1 0x4 SWAP1 DUP1 MLOAD SWAP1 PUSH1 0x20 ADD SWAP1 PUSH3 0x1AF SWAP3 SWAP2 SWAP1 PUSH3 0x263 JUMP JUMPDEST POP CALLVALUE DUP1 ISZERO PUSH3 0x1BD JUMPI PUSH1 0x0 DUP1 REVERT JUMPDEST POP PUSH3 0x566 JUMP JUMPDEST DUP3 DUP1 SLOAD PUSH3 0x1D2 SWAP1 PUSH3 0x477 JUMP JUMPDEST SWAP1 PUSH1 0x0 MSTORE PUSH1 0x20 PUSH1 0x0 KECCAK256 SWAP1 PUSH1 0x1F ADD PUSH1 0x20 SWAP1 DIV DUP2 ADD SWAP3 DUP3 PUSH3 0x1F6 JUMPI PUSH1 0x0 DUP6 SSTORE PUSH3 0x242 JUMP JUMPDEST DUP3 PUSH1 0x1F LT PUSH3 0x211 JUMPI DUP1 MLOAD PUSH1 0xFF NOT AND DUP4 DUP1 ADD OR DUP6 SSTORE PUSH3 0x242 JUMP JUMPDEST DUP3 DUP1 ADD PUSH1 0x1 ADD DUP6 SSTORE DUP3 ISZERO PUSH3 0x242 JUMPI SWAP2 DUP3 ADD JUMPDEST DUP3 DUP2 GT ISZERO PUSH3 0x241 JUMPI DUP3 MLOAD DUP3 SSTORE SWAP2 PUSH1 0x20 ADD SWAP2 SWAP1 PUSH1 0x1 ADD SWAP1 PUSH3 0x224 JUMP JUMPDEST JUMPDEST POP SWAP1 POP PUSH3 0x251 SWAP2 SWAP1 PUSH3 0x2F4 JUMP JUMPDEST POP SWAP1 JUMP JUMPDEST PUSH2 0x37A DUP1 PUSH3 0xC8C DUP4 CODECOPY ADD SWAP1 JUMP JUMPDEST DUP3 DUP1 SLOAD PUSH3 0x271 SWAP1 PUSH3 0x477 JUMP JUMPDEST SWAP1 PUSH1 0x0 MSTORE PUSH1 0x20 PUSH1 0x0 KECCAK256 SWAP1 PUSH1 0x1F ADD PUSH1 0x20 SWAP1 DIV DUP2 ADD SWAP3 DUP3 PUSH3 0x295 JUMPI PUSH1 0x0 DUP6 SSTORE PUSH3 0x2E1 JUMP JUMPDEST DUP3 PUSH1 0x1F LT PUSH3 0x2B0 JUMPI DUP1 MLOAD PUSH1 0xFF NOT AND DUP4 DUP1 ADD OR DUP6 SSTORE PUSH3 0x2E1 JUMP JUMPDEST DUP3 DUP1 ADD PUSH1 0x1 ADD DUP6 SSTORE DUP3 ISZERO PUSH3 0x2E1 JUMPI SWAP2 DUP3 ADD JUMPDEST DUP3 DUP2 GT ISZERO PUSH3 0x2E0 JUMPI DUP3 MLOAD DUP3 SSTORE SWAP2 PUSH1 0x20 ADD SWAP2 SWAP1 PUSH1 0x1 ADD SWAP1 PUSH3 0x2C3 JUMP JUMPDEST JUMPDEST POP SWAP1 POP PUSH3 0x2F0 SWAP2 SWAP1 PUSH3 0x2F4 JUMP JUMPDEST POP SWAP1 JUMP JUMPDEST JUMPDEST DUP1 DUP3 GT ISZERO PUSH3 0x30F JUMPI PUSH1 0x0 DUP2 PUSH1 0x0 SWAP1 SSTORE POP PUSH1 0x1 ADD PUSH3 0x2F5 JUMP JUMPDEST POP SWAP1 JUMP JUMPDEST PUSH1 0x0 PUSH3 0x32A PUSH3 0x324 DUP5 PUSH3 0x40B JUMP JUMPDEST PUSH3 0x3E2 JUMP JUMPDEST SWAP1 POP DUP3 DUP2 MSTORE PUSH1 0x20 DUP2 ADD DUP5 DUP5 DUP5 ADD GT ISZERO PUSH3 0x349 JUMPI PUSH3 0x348 PUSH3 0x546 JUMP JUMPDEST JUMPDEST PUSH3 0x356 DUP5 DUP3 DUP6 PUSH3 0x441 JUMP JUMPDEST POP SWAP4 SWAP3 POP POP POP JUMP JUMPDEST PUSH1 0x0 DUP3 PUSH1 0x1F DUP4 ADD SLT PUSH3 0x376 JUMPI PUSH3 0x375 PUSH3 0x541 JUMP JUMPDEST JUMPDEST DUP2 MLOAD PUSH3 0x388 DUP5 DUP3 PUSH1 0x20 DUP7 ADD PUSH3 0x313 JUMP JUMPDEST SWAP2 POP POP SWAP3 SWAP2 POP POP JUMP JUMPDEST PUSH1 0x0 PUSH1 0x20 DUP3 DUP5 SUB SLT ISZERO PUSH3 0x3AA JUMPI PUSH3 0x3A9 PUSH3 0x550 JUMP JUMPDEST JUMPDEST PUSH1 0x0 DUP3 ADD MLOAD PUSH8 0xFFFFFFFFFFFFFFFF DUP2 GT ISZERO PUSH3 0x3CB JUMPI PUSH3 0x3CA PUSH3 0x54B JUMP JUMPDEST JUMPDEST PUSH3 0x3D9 DUP5 DUP3 DUP6 ADD PUSH3 0x35E JUMP JUMPDEST SWAP2 POP POP SWAP3 SWAP2 POP POP JUMP JUMPDEST PUSH1 0x0 PUSH3 0x3EE PUSH3 0x401 JUMP JUMPDEST SWAP1 POP PUSH3 0x3FC DUP3 DUP3 PUSH3 0x4AD JUMP JUMPDEST SWAP2 SWAP1 POP JUMP JUMPDEST PUSH1 0x0 PUSH1 0x40 MLOAD SWAP1 POP SWAP1 JUMP JUMPDEST PUSH1 0x0 PUSH8 0xFFFFFFFFFFFFFFFF DUP3 GT ISZERO PUSH3 0x429 JUMPI PUSH3 0x428 PUSH3 0x512 JUMP JUMPDEST JUMPDEST PUSH3 0x434 DUP3 PUSH3 0x555 JUMP JUMPDEST SWAP1 POP PUSH1 0x20 DUP2 ADD SWAP1 POP SWAP2 SWAP1 POP JUMP JUMPDEST PUSH1 0x0 JUMPDEST DUP4 DUP2 LT ISZERO PUSH3 0x461 JUMPI DUP1 DUP3 ADD MLOAD DUP2 DUP5 ADD MSTORE PUSH1 0x20 DUP2 ADD SWAP1 POP PUSH3 0x444 JUMP JUMPDEST DUP4 DUP2 GT ISZERO PUSH3 0x471 JUMPI PUSH1 0x0 DUP5 DUP5 ADD MSTORE JUMPDEST POP POP POP POP JUMP JUMPDEST PUSH1 0x0 PUSH1 0x2 DUP3 DIV SWAP1 POP PUSH1 0x1 DUP3 AND DUP1 PUSH3 0x490 JUMPI PUSH1 0x7F DUP3 AND SWAP2 POP JUMPDEST PUSH1 0x20 DUP3 LT DUP2 EQ ISZERO PUSH3 0x4A7 JUMPI PUSH3 0x4A6 PUSH3 0x4E3 JUMP JUMPDEST JUMPDEST POP SWAP2 SWAP1 POP JUMP JUMPDEST PUSH3 0x4B8 DUP3 PUSH3 0x555 JUMP JUMPDEST DUP2 ADD DUP2 DUP2 LT PUSH8 0xFFFFFFFFFFFFFFFF DUP3 GT OR ISZERO PUSH3 0x4DA JUMPI PUSH3 0x4D9 PUSH3 0x512 JUMP JUMPDEST JUMPDEST DUP1 PUSH1 0x40 MSTORE POP POP POP JUMP JUMPDEST PUSH32 0x4E487B7100000000000000000000000000000000000000000000000000000000 PUSH1 0x0 MSTORE PUSH1 0x22 PUSH1 0x4 MSTORE PUSH1 0x24 PUSH1 0x0 REVERT JUMPDEST PUSH32 0x4E487B7100000000000000000000000000000000000000000000000000000000 PUSH1 0x0 MSTORE PUSH1 0x41 PUSH1 0x4 MSTORE PUSH1 0x24 PUSH1 0x0 REVERT JUMPDEST PUSH1 0x0 DUP1 REVERT JUMPDEST PUSH1 0x0 DUP1 REVERT JUMPDEST PUSH1 0x0 DUP1 REVERT JUMPDEST PUSH1 0x0 DUP1 REVERT JUMPDEST PUSH1 0x0 PUSH1 0x1F NOT PUSH1 0x1F DUP4 ADD AND SWAP1 POP SWAP2 SWAP1 POP JUMP JUMPDEST PUSH2 0x716 DUP1 PUSH3 0x576 PUSH1 0x0 CODECOPY PUSH1 0x0 RETURN INVALID PUSH1 0x80 PUSH1 0x40 MSTORE CALLVALUE DUP1 ISZERO PUSH2 0x10 JUMPI PUSH1 0x0 DUP1 REVERT JUMPDEST POP PUSH1 0x4 CALLDATASIZE LT PUSH2 0x62 JUMPI PUSH1 0x0 CALLDATALOAD PUSH1 0xE0 SHR DUP1 PUSH4 0x7C000138 EQ PUSH2 0x67 JUMPI DUP1 PUSH4 0xC15BAE84 EQ PUSH2 0x85 JUMPI DUP1 PUSH4 0xD01BB4D5 EQ PUSH2 0xA3 JUMPI DUP1 PUSH4 0xD118D187 EQ PUSH2 0xC1 JUMPI DUP1 PUSH4 0xD46300FD EQ PUSH2 0xDF JUMPI DUP1 PUSH4 0xEE919D50 EQ PUSH2 0xFD JUMPI JUMPDEST PUSH1 0x0 DUP1 REVERT JUMPDEST PUSH2 0x6F PUSH2 0x119 JUMP JUMPDEST PUSH1 0x40 MLOAD PUSH2 0x7C SWAP2 SWAP1 PUSH2 0x54C JUMP JUMPDEST PUSH1 0x40 MLOAD DUP1 SWAP2 SUB SWAP1 RETURN JUMPDEST PUSH2 0x8D PUSH2 0x1A7 JUMP JUMPDEST PUSH1 0x40 MLOAD PUSH2 0x9A SWAP2 SWAP1 PUSH2 0x56E JUMP JUMPDEST PUSH1 0x40 MLOAD DUP1 SWAP2 SUB SWAP1 RETURN JUMPDEST PUSH2 0xAB PUSH2 0x235 JUMP JUMPDEST PUSH1 0x40 MLOAD PUSH2 0xB8 SWAP2 SWAP1 PUSH2 0x531 JUMP JUMPDEST PUSH1 0x40 MLOAD DUP1 SWAP2 SUB SWAP1 RETURN JUMPDEST PUSH2 0xC9 PUSH2 0x25B JUMP JUMPDEST PUSH1 0x40 MLOAD PUSH2 0xD6 SWAP2 SWAP1 PUSH2 0x56E JUMP JUMPDEST PUSH1 0x40 MLOAD DUP1 SWAP2 SUB SWAP1 RETURN JUMPDEST PUSH2 0xE7 PUSH2 0x2E9 JUMP JUMPDEST PUSH1 0x40 MLOAD PUSH2 0xF4 SWAP2 SWAP1 PUSH2 0x590 JUMP JUMPDEST PUSH1 0x40 MLOAD DUP1 SWAP2 SUB SWAP1 RETURN JUMPDEST PUSH2 0x117 PUSH1 0x4 DUP1 CALLDATASIZE SUB DUP2 ADD SWAP1 PUSH2 0x112 SWAP2 SWAP1 PUSH2 0x447 JUMP JUMPDEST PUSH2 0x38F JUMP JUMPDEST STOP JUMPDEST PUSH1 0x4 DUP1 SLOAD PUSH2 0x126 SWAP1 PUSH2 0x652 JUMP JUMPDEST DUP1 PUSH1 0x1F ADD PUSH1 0x20 DUP1 SWAP2 DIV MUL PUSH1 0x20 ADD PUSH1 0x40 MLOAD SWAP1 DUP2 ADD PUSH1 0x40 MSTORE DUP1 SWAP3 SWAP2 SWAP1 DUP2 DUP2 MSTORE PUSH1 0x20 ADD DUP3 DUP1 SLOAD PUSH2 0x152 SWAP1 PUSH2 0x652 JUMP JUMPDEST DUP1 ISZERO PUSH2 0x19F JUMPI DUP1 PUSH1 0x1F LT PUSH2 0x174 JUMPI PUSH2 0x100 DUP1 DUP4 SLOAD DIV MUL DUP4 MSTORE SWAP2 PUSH1 0x20 ADD SWAP2 PUSH2 0x19F JUMP JUMPDEST DUP3 ADD SWAP2 SWAP1 PUSH1 0x0 MSTORE PUSH1 0x20 PUSH1 0x0 KECCAK256 SWAP1 JUMPDEST DUP2 SLOAD DUP2 MSTORE SWAP1 PUSH1 0x1 ADD SWAP1 PUSH1 0x20 ADD DUP1 DUP4 GT PUSH2 0x182 JUMPI DUP3 SWAP1 SUB PUSH1 0x1F AND DUP3 ADD SWAP2 JUMPDEST POP POP POP POP POP DUP2 JUMP JUMPDEST PUSH1 0x2 DUP1 SLOAD PUSH2 0x1B4 SWAP1 PUSH2 0x652 JUMP JUMPDEST DUP1 PUSH1 0x1F ADD PUSH1 0x20 DUP1 SWAP2 DIV MUL PUSH1 0x20 ADD PUSH1 0x40 MLOAD SWAP1 DUP2 ADD PUSH1 0x40 MSTORE DUP1 SWAP3 SWAP2 SWAP1 DUP2 DUP2 MSTORE PUSH1 0x20 ADD DUP3 DUP1 SLOAD PUSH2 0x1E0 SWAP1 PUSH2 0x652 JUMP JUMPDEST DUP1 ISZERO PUSH2 0x22D JUMPI DUP1 PUSH1 0x1F LT PUSH2 0x202 JUMPI PUSH2 0x100 DUP1 DUP4 SLOAD DIV MUL DUP4 MSTORE SWAP2 PUSH1 0x20 ADD SWAP2 PUSH2 0x22D JUMP JUMPDEST DUP3 ADD SWAP2 SWAP1 PUSH1 0x0 MSTORE PUSH1 0x20 PUSH1 0x0 KECCAK256 SWAP1 JUMPDEST DUP2 SLOAD DUP2 MSTORE SWAP1 PUSH1 0x1 ADD SWAP1 PUSH1 0x20 ADD DUP1 DUP4 GT PUSH2 0x210 JUMPI DUP3 SWAP1 SUB PUSH1 0x1F AND DUP3 ADD SWAP2 JUMPDEST POP POP POP POP POP DUP2 JUMP JUMPDEST PUSH1 0x1 PUSH1 0x0 SWAP1 SLOAD SWAP1 PUSH2 0x100 EXP SWAP1 DIV PUSH20 0xFFFFFFFFFFFFFFFFFFFFFFFFFFFFFFFFFFFFFFFF AND DUP2 JUMP JUMPDEST PUSH1 0x3 DUP1 SLOAD PUSH2 0x268 SWAP1 PUSH2 0x652 JUMP JUMPDEST DUP1 PUSH1 0x1F ADD PUSH1 0x20 DUP1 SWAP2 DIV MUL PUSH1 0x20 ADD PUSH1 0x40 MLOAD SWAP1 DUP2 ADD PUSH1 0x40 MSTORE DUP1 SWAP3 SWAP2 SWAP1 DUP2 DUP2 MSTORE PUSH1 0x20 ADD DUP3 DUP1 SLOAD PUSH2 0x294 SWAP1 PUSH2 0x652 JUMP JUMPDEST DUP1 ISZERO PUSH2 0x2E1 JUMPI DUP1 PUSH1 0x1F LT PUSH2 0x2B6 JUMPI PUSH2 0x100 DUP1 DUP4 SLOAD DIV MUL DUP4 MSTORE SWAP2 PUSH1 0x20 ADD SWAP2 PUSH2 0x2E1 JUMP JUMPDEST DUP3 ADD SWAP2 SWAP1 PUSH1 0x0 MSTORE PUSH1 0x20 PUSH1 0x0 KECCAK256 SWAP1 JUMPDEST DUP2 SLOAD DUP2 MSTORE SWAP1 PUSH1 0x1 ADD SWAP1 PUSH1 0x20 ADD DUP1 DUP4 GT PUSH2 0x2C4 JUMPI DUP3 SWAP1 SUB PUSH1 0x1F AND DUP3 ADD SWAP2 JUMPDEST POP POP POP POP POP DUP2 JUMP JUMPDEST PUSH1 0x0 DUP1 PUSH1 0x0 SWAP1 SLOAD SWAP1 PUSH2 0x100 EXP SWAP1 DIV PUSH20 0xFFFFFFFFFFFFFFFFFFFFFFFFFFFFFFFFFFFFFFFF AND PUSH20 0xFFFFFFFFFFFFFFFFFFFFFFFFFFFFFFFFFFFFFFFF AND PUSH4 0xDBE671F PUSH1 0x40 MLOAD DUP2 PUSH4 0xFFFFFFFF AND PUSH1 0xE0 SHL DUP2 MSTORE PUSH1 0x4 ADD PUSH1 0x20 PUSH1 0x40 MLOAD DUP1 DUP4 SUB DUP2 DUP7 DUP1 EXTCODESIZE ISZERO DUP1 ISZERO PUSH2 0x352 JUMPI PUSH1 0x0 DUP1 REVERT JUMPDEST POP GAS STATICCALL ISZERO DUP1 ISZERO PUSH2 0x366 JUMPI RETURNDATASIZE PUSH1 0x0 DUP1 RETURNDATACOPY RETURNDATASIZE PUSH1 0x0 REVERT JUMPDEST POP POP POP POP PUSH1 0x40 MLOAD RETURNDATASIZE PUSH1 0x1F NOT PUSH1 0x1F DUP3 ADD AND DUP3 ADD DUP1 PUSH1 0x40 MSTORE POP DUP2 ADD SWAP1 PUSH2 0x38A SWAP2 SWAP1 PUSH2 0x474 JUMP JUMPDEST SWAP1 POP SWAP1 JUMP JUMPDEST PUSH1 0x0 DUP1 SLOAD SWAP1 PUSH2 0x100 EXP SWAP1 DIV PUSH20 0xFFFFFFFFFFFFFFFFFFFFFFFFFFFFFFFFFFFFFFFF AND PUSH20 0xFFFFFFFFFFFFFFFFFFFFFFFFFFFFFFFFFFFFFFFF AND PUSH4 0xEE919D50 DUP3 PUSH1 0x40 MLOAD DUP3 PUSH4 0xFFFFFFFF AND PUSH1 0xE0 SHL DUP2 MSTORE PUSH1 0x4 ADD PUSH2 0x3E8 SWAP2 SWAP1 PUSH2 0x590 JUMP JUMPDEST PUSH1 0x0 PUSH1 0x40 MLOAD DUP1 DUP4 SUB DUP2 PUSH1 0x0 DUP8 DUP1 EXTCODESIZE ISZERO DUP1 ISZERO PUSH2 0x402 JUMPI PUSH1 0x0 DUP1 REVERT JUMPDEST POP GAS CALL ISZERO DUP1 ISZERO PUSH2 0x416 JUMPI RETURNDATASIZE PUSH1 0x0 DUP1 RETURNDATACOPY RETURNDATASIZE PUSH1 0x0 REVERT JUMPDEST POP POP POP POP POP JUMP JUMPDEST PUSH1 0x0 DUP2 CALLDATALOAD SWAP1 POP PUSH2 0x42C DUP2 PUSH2 0x6C9 JUMP JUMPDEST SWAP3 SWAP2 POP POP JUMP JUMPDEST PUSH1 0x0 DUP2 MLOAD SWAP1 POP PUSH2 0x441 DUP2 PUSH2 0x6C9 JUMP JUMPDEST SWAP3 SWAP2 POP POP JUMP JUMPDEST PUSH1 0x0 PUSH1 0x20 DUP3 DUP5 SUB SLT ISZERO PUSH2 0x45D JUMPI PUSH2 0x45C PUSH2 0x6B3 JUMP JUMPDEST JUMPDEST PUSH1 0x0 PUSH2 0x46B DUP5 DUP3 DUP6 ADD PUSH2 0x41D JUMP JUMPDEST SWAP2 POP POP SWAP3 SWAP2 POP POP JUMP JUMPDEST PUSH1 0x0 PUSH1 0x20 DUP3 DUP5 SUB SLT ISZERO PUSH2 0x48A JUMPI PUSH2 0x489 PUSH2 0x6B3 JUMP JUMPDEST JUMPDEST PUSH1 0x0 PUSH2 0x498 DUP5 DUP3 DUP6 ADD PUSH2 0x432 JUMP JUMPDEST SWAP2 POP POP SWAP3 SWAP2 POP POP JUMP JUMPDEST PUSH2 0x4AA DUP2 PUSH2 0x5E3 JUMP JUMPDEST DUP3 MSTORE POP POP JUMP JUMPDEST PUSH1 0x0 PUSH2 0x4BB DUP3 PUSH2 0x5AB JUMP JUMPDEST PUSH2 0x4C5 DUP2 DUP6 PUSH2 0x5C1 JUMP JUMPDEST SWAP4 POP PUSH2 0x4D5 DUP2 DUP6 PUSH1 0x20 DUP7 ADD PUSH2 0x61F JUMP JUMPDEST PUSH2 0x4DE DUP2 PUSH2 0x6B8 JUMP JUMPDEST DUP5 ADD SWAP2 POP POP SWAP3 SWAP2 POP POP JUMP JUMPDEST PUSH1 0x0 PUSH2 0x4F4 DUP3 PUSH2 0x5B6 JUMP JUMPDEST PUSH2 0x4FE DUP2 DUP6 PUSH2 0x5D2 JUMP JUMPDEST SWAP4 POP PUSH2 0x50E DUP2 DUP6 PUSH1 0x20 DUP7 ADD PUSH2 0x61F JUMP JUMPDEST PUSH2 0x517 DUP2 PUSH2 0x6B8 JUMP JUMPDEST DUP5 ADD SWAP2 POP POP SWAP3 SWAP2 POP POP JUMP JUMPDEST PUSH2 0x52B DUP2 PUSH2 0x615 JUMP JUMPDEST DUP3 MSTORE POP POP JUMP JUMPDEST PUSH1 0x0 PUSH1 0x20 DUP3 ADD SWAP1 POP PUSH2 0x546 PUSH1 0x0 DUP4 ADD DUP5 PUSH2 0x4A1 JUMP JUMPDEST SWAP3 SWAP2 POP POP JUMP JUMPDEST PUSH1 0x0 PUSH1 0x20 DUP3 ADD SWAP1 POP DUP2 DUP2 SUB PUSH1 0x0 DUP4 ADD MSTORE PUSH2 0x566 DUP2 DUP5 PUSH2 0x4B0 JUMP JUMPDEST SWAP1 POP SWAP3 SWAP2 POP POP JUMP JUMPDEST PUSH1 0x0 PUSH1 0x20 DUP3 ADD SWAP1 POP DUP2 DUP2 SUB PUSH1 0x0 DUP4 ADD MSTORE PUSH2 0x588 DUP2 DUP5 PUSH2 0x4E9 JUMP JUMPDEST SWAP1 POP SWAP3 SWAP2 POP POP JUMP JUMPDEST PUSH1 0x0 PUSH1 0x20 DUP3 ADD SWAP1 POP PUSH2 0x5A5 PUSH1 0x0 DUP4 ADD DUP5 PUSH2 0x522 JUMP JUMPDEST SWAP3 SWAP2 POP POP JUMP JUMPDEST PUSH1 0x0 DUP2 MLOAD SWAP1 POP SWAP2 SWAP1 POP JUMP JUMPDEST PUSH1 0x0 DUP2 MLOAD SWAP1 POP SWAP2 SWAP1 POP JUMP JUMPDEST PUSH1 0x0 DUP3 DUP3 MSTORE PUSH1 0x20 DUP3 ADD SWAP1 POP SWAP3 SWAP2 POP POP JUMP JUMPDEST PUSH1 0x0 DUP3 DUP3 MSTORE PUSH1 0x20 DUP3 ADD SWAP1 POP SWAP3 SWAP2 POP POP JUMP JUMPDEST PUSH1 0x0 PUSH2 0x5EE DUP3 PUSH2 0x5F5 JUMP JUMPDEST SWAP1 POP SWAP2 SWAP1 POP JUMP JUMPDEST PUSH1 0x0 PUSH20 0xFFFFFFFFFFFFFFFFFFFFFFFFFFFFFFFFFFFFFFFF DUP3 AND SWAP1 POP SWAP2 SWAP1 POP JUMP JUMPDEST PUSH1 0x0 DUP2 SWAP1 POP SWAP2 SWAP1 POP JUMP JUMPDEST PUSH1 0x0 JUMPDEST DUP4 DUP2 LT ISZERO PUSH2 0x63D JUMPI DUP1 DUP3 ADD MLOAD DUP2 DUP5 ADD MSTORE PUSH1 0x20 DUP2 ADD SWAP1 POP PUSH2 0x622 JUMP JUMPDEST DUP4 DUP2 GT ISZERO PUSH2 0x64C JUMPI PUSH1 0x0 DUP5 DUP5 ADD MSTORE JUMPDEST POP POP POP POP JUMP JUMPDEST PUSH1 0x0 PUSH1 0x2 DUP3 DIV SWAP1 POP PUSH1 0x1 DUP3 AND DUP1 PUSH2 0x66A JUMPI PUSH1 0x7F DUP3 AND SWAP2 POP JUMPDEST PUSH1 0x20 DUP3 LT DUP2 EQ ISZERO PUSH2 0x67E JUMPI PUSH2 0x67D PUSH2 0x684 JUMP JUMPDEST JUMPDEST POP SWAP2 SWAP1 POP JUMP JUMPDEST PUSH32 0x4E487B7100000000000000000000000000000000000000000000000000000000 PUSH1 0x0 MSTORE PUSH1 0x22 PUSH1 0x4 MSTORE PUSH1 0x24 PUSH1 0x0 REVERT JUMPDEST PUSH1 0x0 DUP1 REVERT JUMPDEST PUSH1 0x0 PUSH1 0x1F NOT PUSH1 0x1F DUP4 ADD AND SWAP1 POP SWAP2 SWAP1 POP JUMP JUMPDEST PUSH2 0x6D2 DUP2 PUSH2 0x615 JUMP JUMPDEST DUP2 EQ PUSH2 0x6DD JUMPI PUSH1 0x0 DUP1 REVERT JUMPDEST POP JUMP INVALID LOG2 PUSH5 0x6970667358 0x22 SLT KECCAK256 0xAD PUSH28 0x2DF23E89E5FC415659F5EC93616A4F7D78BFC29C1E8F64316AA81490 DUP8 DUP16 PUSH5 0x736F6C6343 STOP ADDMOD SMOD STOP CALLER PUSH1 0x80 PUSH1 0x40 MSTORE PUSH1 0x40 MLOAD PUSH2 0x37A CODESIZE SUB DUP1 PUSH2 0x37A DUP4 CODECOPY DUP2 DUP2 ADD PUSH1 0x40 MSTORE DUP2 ADD SWAP1 PUSH2 0x25 SWAP2 SWAP1 PUSH2 0x47 JUMP JUMPDEST DUP1 PUSH1 0x0 DUP2 SWAP1 SSTORE POP POP PUSH2 0x9A JUMP JUMPDEST PUSH1 0x0 DUP2 MLOAD SWAP1 POP PUSH2 0x41 DUP2 PUSH2 0x83 JUMP JUMPDEST SWAP3 SWAP2 POP POP JUMP JUMPDEST PUSH1 0x0 PUSH1 0x20 DUP3 DUP5 SUB SLT ISZERO PUSH2 0x5D JUMPI PUSH2 0x5C PUSH2 0x7E JUMP JUMPDEST JUMPDEST PUSH1 0x0 PUSH2 0x6B DUP5 DUP3 DUP6 ADD PUSH2 0x32 JUMP JUMPDEST SWAP2 POP POP SWAP3 SWAP2 POP POP JUMP JUMPDEST PUSH1 0x0 DUP2 SWAP1 POP SWAP2 SWAP1 POP JUMP JUMPDEST PUSH1 0x0 DUP1 REVERT JUMPDEST PUSH2 0x8C DUP2 PUSH2 0x74 JUMP JUMPDEST DUP2 EQ PUSH2 0x97 JUMPI PUSH1 0x0 DUP1 REVERT JUMPDEST POP JUMP JUMPDEST PUSH2 0x2D1 DUP1 PUSH2 0xA9 PUSH1 0x0 CODECOPY PUSH1 0x0 RETURN INVALID PUSH1 0x80 PUSH1 0x40 MSTORE PUSH1 0x4 CALLDATASIZE LT PUSH2 0x43 JUMPI PUSH1 0x0 CALLDATALOAD PUSH1 0xE0 SHR DUP1 PUSH4 0xDBE671F EQ PUSH2 0x4F JUMPI DUP1 PUSH4 0x12065FE0 EQ PUSH2 0x7A JUMPI DUP1 PUSH4 0xEE919D50 EQ PUSH2 0xA5 JUMPI DUP1 PUSH4 0xF5F5BA72 EQ PUSH2 0xCE JUMPI PUSH2 0x4A JUMP JUMPDEST CALLDATASIZE PUSH2 0x4A JUMPI STOP JUMPDEST PUSH1 0x0 DUP1 REVERT JUMPDEST CALLVALUE DUP1 ISZERO PUSH2 0x5B JUMPI PUSH1 0x0 DUP1 REVERT JUMPDEST POP PUSH2 0x64 PUSH2 0xF9 JUMP JUMPDEST PUSH1 0x40 MLOAD PUSH2 0x71 SWAP2 SWAP1 PUSH2 0x1FA JUMP JUMPDEST PUSH1 0x40 MLOAD DUP1 SWAP2 SUB SWAP1 RETURN JUMPDEST CALLVALUE DUP1 ISZERO PUSH2 0x86 JUMPI PUSH1 0x0 DUP1 REVERT JUMPDEST POP PUSH2 0x8F PUSH2 0xFF JUMP JUMPDEST PUSH1 0x40 MLOAD PUSH2 0x9C SWAP2 SWAP1 PUSH2 0x1FA JUMP JUMPDEST PUSH1 0x40 MLOAD DUP1 SWAP2 SUB SWAP1 RETURN JUMPDEST CALLVALUE DUP1 ISZERO PUSH2 0xB1 JUMPI PUSH1 0x0 DUP1 REVERT JUMPDEST POP PUSH2 0xCC PUSH1 0x4 DUP1 CALLDATASIZE SUB DUP2 ADD SWAP1 PUSH2 0xC7 SWAP2 SWAP1 PUSH2 0x163 JUMP JUMPDEST PUSH2 0x107 JUMP JUMPDEST STOP JUMPDEST CALLVALUE DUP1 ISZERO PUSH2 0xDA JUMPI PUSH1 0x0 DUP1 REVERT JUMPDEST POP PUSH2 0xE3 PUSH2 0x111 JUMP JUMPDEST PUSH1 0x40 MLOAD PUSH2 0xF0 SWAP2 SWAP1 PUSH2 0x1D8 JUMP JUMPDEST PUSH1 0x40 MLOAD DUP1 SWAP2 SUB SWAP1 RETURN JUMPDEST PUSH1 0x0 SLOAD DUP2 JUMP JUMPDEST PUSH1 0x0 SELFBALANCE SWAP1 POP SWAP1 JUMP JUMPDEST DUP1 PUSH1 0x0 DUP2 SWAP1 SSTORE POP POP JUMP JUMPDEST PUSH1 0x60 PUSH1 0x40 MLOAD DUP1 PUSH1 0x40 ADD PUSH1 0x40 MSTORE DUP1 PUSH1 0xC DUP2 MSTORE PUSH1 0x20 ADD PUSH32 0x74657374436F6E74726163740000000000000000000000000000000000000000 DUP2 MSTORE POP SWAP1 POP SWAP1 JUMP JUMPDEST PUSH1 0x0 DUP2 CALLDATALOAD SWAP1 POP PUSH2 0x15D DUP2 PUSH2 0x284 JUMP JUMPDEST SWAP3 SWAP2 POP POP JUMP JUMPDEST PUSH1 0x0 PUSH1 0x20 DUP3 DUP5 SUB SLT ISZERO PUSH2 0x179 JUMPI PUSH2 0x178 PUSH2 0x26E JUMP JUMPDEST JUMPDEST PUSH1 0x0 PUSH2 0x187 DUP5 DUP3 DUP6 ADD PUSH2 0x14E JUMP JUMPDEST SWAP2 POP POP SWAP3 SWAP2 POP POP JUMP JUMPDEST PUSH1 0x0 PUSH2 0x19B DUP3 PUSH2 0x215 JUMP JUMPDEST PUSH2 0x1A5 DUP2 DUP6 PUSH2 0x220 JUMP JUMPDEST SWAP4 POP PUSH2 0x1B5 DUP2 DUP6 PUSH1 0x20 DUP7 ADD PUSH2 0x23B JUMP JUMPDEST PUSH2 0x1BE DUP2 PUSH2 0x273 JUMP JUMPDEST DUP5 ADD SWAP2 POP POP SWAP3 SWAP2 POP POP JUMP JUMPDEST PUSH2 0x1D2 DUP2 PUSH2 0x231 JUMP JUMPDEST DUP3 MSTORE POP POP JUMP JUMPDEST PUSH1 0x0 PUSH1 0x20 DUP3 ADD SWAP1 POP DUP2 DUP2 SUB PUSH1 0x0 DUP4 ADD MSTORE PUSH2 0x1F2 DUP2 DUP5 PUSH2 0x190 JUMP JUMPDEST SWAP1 POP SWAP3 SWAP2 POP POP JUMP JUMPDEST PUSH1 0x0 PUSH1 0x20 DUP3 ADD SWAP1 POP PUSH2 0x20F PUSH1 0x0 DUP4 ADD DUP5 PUSH2 0x1C9 JUMP JUMPDEST SWAP3 SWAP2 POP POP JUMP JUMPDEST PUSH1 0x0 DUP2 MLOAD SWAP1 POP SWAP2 SWAP1 POP JUMP JUMPDEST PUSH1 0x0 DUP3 DUP3 MSTORE PUSH1 0x20 DUP3 ADD SWAP1 POP SWAP3 SWAP2 POP POP JUMP JUMPDEST PUSH1 0x0 DUP2 SWAP1 POP SWAP2 SWAP1 POP JUMP JUMPDEST PUSH1 0x0 JUMPDEST DUP4 DUP2 LT ISZERO PUSH2 0x259 JUMPI DUP1 DUP3 ADD MLOAD DUP2 DUP5 ADD MSTORE PUSH1 0x20 DUP2 ADD SWAP1 POP PUSH2 0x23E JUMP JUMPDEST DUP4 DUP2 GT ISZERO PUSH2 0x268 JUMPI PUSH1 0x0 DUP5 DUP5 ADD MSTORE JUMPDEST POP POP POP POP JUMP JUMPDEST PUSH1 0x0 DUP1 REVERT JUMPDEST PUSH1 0x0 PUSH1 0x1F NOT PUSH1 0x1F DUP4 ADD AND SWAP1 POP SWAP2 SWAP1 POP JUMP JUMPDEST PUSH2 0x28D DUP2 PUSH2 0x231 JUMP JUMPDEST DUP2 EQ PUSH2 0x298 JUMPI PUSH1 0x0 DUP1 REVERT JUMPDEST POP JUMP INVALID LOG2 PUSH5 0x6970667358 0x22 SLT KECCAK256 0xC7 PUSH24 0x1A9B32871A0AA799ECB18E42BA54FFDD4EB6F5904264F46D 0x4E POP 0xCC 0xBF PUSH22 0xC964736F6C6343000807003300000000000000000000 "
				},
				"gasEstimates": {
					"creation": {
						"codeDepositCost": "362800",
						"executionCost": "infinite",
						"totalCost": "infinite"
					},
					"external": {
						"by()": "infinite",
						"contractaddr()": "2536",
						"getA()": "infinite",
						"setA(uint256)": "infinite",
						"str()": "infinite",
						"str1()": "infinite"
					}
				},
				"methodIdentifiers": {
					"by()": "7c000138",
					"contractaddr()": "d01bb4d5",
					"getA()": "d46300fd",
					"setA(uint256)": "ee919d50",
					"str()": "c15bae84",
					"str1()": "d118d187"
				}
			},
			"storageLayout": {
				"storage": [
					{
						"astId": 51,
						"contract": "study/chapter04/newContract.sol:callContract",
						"label": "t",
						"offset": 0,
						"slot": "0",
						"type": "t_contract(testContract)48"
					},
					{
						"astId": 57,
						"contract": "study/chapter04/newContract.sol:callContract",
						"label": "contractaddr",
						"offset": 0,
						"slot": "1",
						"type": "t_address"
					},
					{
						"astId": 62,
						"contract": "study/chapter04/newContract.sol:callContract",
						"label": "str",
						"offset": 0,
						"slot": "2",
						"type": "t_string_storage"
					},
					{
						"astId": 90,
						"contract": "study/chapter04/newContract.sol:callContract",
						"label": "str1",
						"offset": 0,
						"slot": "3",
						"type": "t_string_storage"
					},
					{
						"astId": 96,
						"contract": "study/chapter04/newContract.sol:callContract",
						"label": "by",
						"offset": 0,
						"slot": "4",
						"type": "t_bytes_storage"
					}
				],
				"types": {
					"t_address": {
						"encoding": "inplace",
						"label": "address",
						"numberOfBytes": "20"
					},
					"t_bytes_storage": {
						"encoding": "bytes",
						"label": "bytes",
						"numberOfBytes": "32"
					},
					"t_contract(testContract)48": {
						"encoding": "inplace",
						"label": "contract testContract",
						"numberOfBytes": "20"
					},
					"t_string_storage": {
						"encoding": "bytes",
						"label": "string",
						"numberOfBytes": "32"
					}
				}
			},
			"userdoc": {
				"kind": "user",
				"methods": {},
				"version": 1
			}
		}
	}
}