{
	"study/chapter04/create2.sol": {
		"C": {
			"abi": [
				{
					"inputs": [
						{
							"internalType": "bytes32",
							"name": "salt",
							"type": "bytes32"
						},
						{
							"internalType": "uint256",
							"name": "arg",
							"type": "uint256"
						}
					],
					"name": "createDSalted",
					"outputs": [],
					"stateMutability": "nonpayable",
					"type": "function"
				}
			],
			"devdoc": {
				"kind": "dev",
				"methods": {},
				"version": 1
			},
			"evm": {
				"assembly": "    /* \"study/chapter04/create2.sol\":134:791  contract C {... */\n  mstore(0x40, 0x80)\n  callvalue\n  dup1\n  iszero\n  tag_1\n  jumpi\n  0x00\n  dup1\n  revert\ntag_1:\n  pop\n  dataSize(sub_0)\n  dup1\n  dataOffset(sub_0)\n  0x00\n  codecopy\n  0x00\n  return\nstop\n\nsub_0: assembly {\n        /* \"study/chapter04/create2.sol\":134:791  contract C {... */\n      mstore(0x40, 0x80)\n      callvalue\n      dup1\n      iszero\n      tag_1\n      jumpi\n      0x00\n      dup1\n      revert\n    tag_1:\n      pop\n      jumpi(tag_2, lt(calldatasize, 0x04))\n      shr(0xe0, calldataload(0x00))\n      dup1\n      0x0bd38f2f\n      eq\n      tag_3\n      jumpi\n    tag_2:\n      0x00\n      dup1\n      revert\n        /* \"study/chapter04/create2.sol\":160:789  function createDSalted(bytes32 salt, uint arg) public {... */\n    tag_3:\n      tag_4\n      0x04\n      dup1\n      calldatasize\n      sub\n      dup2\n      add\n      swap1\n      tag_5\n      swap2\n      swap1\n      tag_6\n      jump\t// in\n    tag_5:\n      tag_7\n      jump\t// in\n    tag_4:\n      stop\n    tag_7:\n        /* \"study/chapter04/create2.sol\":423:447  address predictedAddress */\n      0x00\n        /* \"study/chapter04/create2.sol\":518:522  0xff */\n      0xff\n        /* \"study/chapter04/create2.sol\":511:523  bytes1(0xff) */\n      0xf8\n      shl\n        /* \"study/chapter04/create2.sol\":545:549  this */\n      address\n        /* \"study/chapter04/create2.sol\":564:568  salt */\n      dup5\n        /* \"study/chapter04/create2.sol\":626:646  type(D).creationCode */\n      mload(0x40)\n      dup1\n      0x20\n      add\n      tag_9\n      swap1\n      tag_10\n      jump\t// in\n    tag_9:\n      0x20\n      dup3\n      add\n      dup2\n      sub\n      dup3\n      mstore\n      not(0x1f)\n      0x1f\n      dup3\n      add\n      and\n      0x40\n      mstore\n      pop\n        /* \"study/chapter04/create2.sol\":664:667  arg */\n      dup6\n        /* \"study/chapter04/create2.sol\":592:681  abi.encodePacked(... */\n      add(0x20, mload(0x40))\n      tag_11\n      swap3\n      swap2\n      swap1\n      tag_12\n      jump\t// in\n    tag_11:\n      mload(0x40)\n      0x20\n      dup2\n      dup4\n      sub\n      sub\n      dup2\n      mstore\n      swap1\n      0x40\n      mstore\n        /* \"study/chapter04/create2.sol\":582:682  keccak256(abi.encodePacked(... */\n      dup1\n      mload\n      swap1\n      0x20\n      add\n      keccak256\n        /* \"study/chapter04/create2.sol\":481:692  abi.encodePacked(... */\n      add(0x20, mload(0x40))\n      tag_13\n      swap5\n      swap4\n      swap3\n      swap2\n      swap1\n      tag_14\n      jump\t// in\n    tag_13:\n      mload(0x40)\n      0x20\n      dup2\n      dup4\n      sub\n      sub\n      dup2\n      mstore\n      swap1\n      0x40\n      mstore\n        /* \"study/chapter04/create2.sol\":471:693  keccak256(abi.encodePacked(... */\n      dup1\n      mload\n      swap1\n      0x20\n      add\n      keccak256\n        /* \"study/chapter04/create2.sol\":466:694  uint(keccak256(abi.encodePacked(... */\n      0x00\n      shr\n        /* \"study/chapter04/create2.sol\":423:696  address predictedAddress = address(uint160(uint(keccak256(abi.encodePacked(... */\n      swap1\n      pop\n        /* \"study/chapter04/create2.sol\":723:727  salt */\n      dup3\n        /* \"study/chapter04/create2.sol\":729:732  arg */\n      dup3\n        /* \"study/chapter04/create2.sol\":711:733  new D{salt: salt}(arg) */\n      mload(0x40)\n      tag_15\n      swap1\n      tag_10\n      jump\t// in\n    tag_15:\n      tag_16\n      swap2\n      swap1\n      tag_17\n      jump\t// in\n    tag_16:\n      dup2\n      swap1\n      mload(0x40)\n      dup1\n      swap2\n      sub\n      swap1\n      0x00\n      create2\n      swap1\n      pop\n      dup1\n      iszero\n      dup1\n      iszero\n      tag_18\n      jumpi\n      returndatasize\n      0x00\n      dup1\n      returndatacopy\n      revert(0x00, returndatasize)\n    tag_18:\n      pop\n        /* \"study/chapter04/create2.sol\":707:708  d */\n      0x00\n      dup1\n        /* \"study/chapter04/create2.sol\":707:733  d = new D{salt: salt}(arg) */\n      0x0100\n      exp\n      dup2\n      sload\n      dup2\n      0xffffffffffffffffffffffffffffffffffffffff\n      mul\n      not\n      and\n      swap1\n      dup4\n      0xffffffffffffffffffffffffffffffffffffffff\n      and\n      mul\n      or\n      swap1\n      sstore\n      pop\n        /* \"study/chapter04/create2.sol\":765:781  predictedAddress */\n      dup1\n        /* \"study/chapter04/create2.sol\":751:781  address(d) == predictedAddress */\n      0xffffffffffffffffffffffffffffffffffffffff\n      and\n        /* \"study/chapter04/create2.sol\":759:760  d */\n      0x00\n      dup1\n      sload\n      swap1\n      0x0100\n      exp\n      swap1\n      div\n      0xffffffffffffffffffffffffffffffffffffffff\n      and\n        /* \"study/chapter04/create2.sol\":751:781  address(d) == predictedAddress */\n      0xffffffffffffffffffffffffffffffffffffffff\n      and\n      eq\n        /* \"study/chapter04/create2.sol\":743:782  require(address(d) == predictedAddress) */\n      tag_19\n      jumpi\n      0x00\n      dup1\n      revert\n    tag_19:\n        /* \"study/chapter04/create2.sol\":214:789  {... */\n      pop\n        /* \"study/chapter04/create2.sol\":160:789  function createDSalted(bytes32 salt, uint arg) public {... */\n      pop\n      pop\n      jump\t// out\n    tag_10:\n      dataSize(sub_0)\n      dup1\n      dataOffset(sub_0)\n      dup4\n      codecopy\n      add\n      swap1\n      jump\t// out\n        /* \"#utility.yul\":7:146   */\n    tag_21:\n        /* \"#utility.yul\":53:58   */\n      0x00\n        /* \"#utility.yul\":91:97   */\n      dup2\n        /* \"#utility.yul\":78:98   */\n      calldataload\n        /* \"#utility.yul\":69:98   */\n      swap1\n      pop\n        /* \"#utility.yul\":107:140   */\n      tag_23\n        /* \"#utility.yul\":134:139   */\n      dup2\n        /* \"#utility.yul\":107:140   */\n      tag_24\n      jump\t// in\n    tag_23:\n        /* \"#utility.yul\":7:146   */\n      swap3\n      swap2\n      pop\n      pop\n      jump\t// out\n        /* \"#utility.yul\":152:291   */\n    tag_25:\n        /* \"#utility.yul\":198:203   */\n      0x00\n        /* \"#utility.yul\":236:242   */\n      dup2\n        /* \"#utility.yul\":223:243   */\n      calldataload\n        /* \"#utility.yul\":214:243   */\n      swap1\n      pop\n        /* \"#utility.yul\":252:285   */\n      tag_27\n        /* \"#utility.yul\":279:284   */\n      dup2\n        /* \"#utility.yul\":252:285   */\n      tag_28\n      jump\t// in\n    tag_27:\n        /* \"#utility.yul\":152:291   */\n      swap3\n      swap2\n      pop\n      pop\n      jump\t// out\n        /* \"#utility.yul\":297:771   */\n    tag_6:\n        /* \"#utility.yul\":365:371   */\n      0x00\n        /* \"#utility.yul\":373:379   */\n      dup1\n        /* \"#utility.yul\":422:424   */\n      0x40\n        /* \"#utility.yul\":410:419   */\n      dup4\n        /* \"#utility.yul\":401:408   */\n      dup6\n        /* \"#utility.yul\":397:420   */\n      sub\n        /* \"#utility.yul\":393:425   */\n      slt\n        /* \"#utility.yul\":390:509   */\n      iszero\n      tag_30\n      jumpi\n        /* \"#utility.yul\":428:507   */\n      tag_31\n      tag_32\n      jump\t// in\n    tag_31:\n        /* \"#utility.yul\":390:509   */\n    tag_30:\n        /* \"#utility.yul\":548:549   */\n      0x00\n        /* \"#utility.yul\":573:626   */\n      tag_33\n        /* \"#utility.yul\":618:625   */\n      dup6\n        /* \"#utility.yul\":609:615   */\n      dup3\n        /* \"#utility.yul\":598:607   */\n      dup7\n        /* \"#utility.yul\":594:616   */\n      add\n        /* \"#utility.yul\":573:626   */\n      tag_21\n      jump\t// in\n    tag_33:\n        /* \"#utility.yul\":563:626   */\n      swap3\n      pop\n        /* \"#utility.yul\":519:636   */\n      pop\n        /* \"#utility.yul\":675:677   */\n      0x20\n        /* \"#utility.yul\":701:754   */\n      tag_34\n        /* \"#utility.yul\":746:753   */\n      dup6\n        /* \"#utility.yul\":737:743   */\n      dup3\n        /* \"#utility.yul\":726:735   */\n      dup7\n        /* \"#utility.yul\":722:744   */\n      add\n        /* \"#utility.yul\":701:754   */\n      tag_25\n      jump\t// in\n    tag_34:\n        /* \"#utility.yul\":691:754   */\n      swap2\n      pop\n        /* \"#utility.yul\":646:764   */\n      pop\n        /* \"#utility.yul\":297:771   */\n      swap3\n      pop\n      swap3\n      swap1\n      pop\n      jump\t// out\n        /* \"#utility.yul\":777:934   */\n    tag_35:\n        /* \"#utility.yul\":882:927   */\n      tag_37\n        /* \"#utility.yul\":902:926   */\n      tag_38\n        /* \"#utility.yul\":920:925   */\n      dup3\n        /* \"#utility.yul\":902:926   */\n      tag_39\n      jump\t// in\n    tag_38:\n        /* \"#utility.yul\":882:927   */\n      tag_40\n      jump\t// in\n    tag_37:\n        /* \"#utility.yul\":877:880   */\n      dup3\n        /* \"#utility.yul\":870:928   */\n      mstore\n        /* \"#utility.yul\":777:934   */\n      pop\n      pop\n      jump\t// out\n        /* \"#utility.yul\":940:1093   */\n    tag_41:\n        /* \"#utility.yul\":1043:1086   */\n      tag_43\n        /* \"#utility.yul\":1062:1085   */\n      tag_44\n        /* \"#utility.yul\":1079:1084   */\n      dup3\n        /* \"#utility.yul\":1062:1085   */\n      tag_45\n      jump\t// in\n    tag_44:\n        /* \"#utility.yul\":1043:1086   */\n      tag_46\n      jump\t// in\n    tag_43:\n        /* \"#utility.yul\":1038:1041   */\n      dup3\n        /* \"#utility.yul\":1031:1087   */\n      mstore\n        /* \"#utility.yul\":940:1093   */\n      pop\n      pop\n      jump\t// out\n        /* \"#utility.yul\":1099:1256   */\n    tag_47:\n        /* \"#utility.yul\":1204:1249   */\n      tag_49\n        /* \"#utility.yul\":1224:1248   */\n      tag_50\n        /* \"#utility.yul\":1242:1247   */\n      dup3\n        /* \"#utility.yul\":1224:1248   */\n      tag_51\n      jump\t// in\n    tag_50:\n        /* \"#utility.yul\":1204:1249   */\n      tag_52\n      jump\t// in\n    tag_49:\n        /* \"#utility.yul\":1199:1202   */\n      dup3\n        /* \"#utility.yul\":1192:1250   */\n      mstore\n        /* \"#utility.yul\":1099:1256   */\n      pop\n      pop\n      jump\t// out\n        /* \"#utility.yul\":1262:1635   */\n    tag_53:\n        /* \"#utility.yul\":1366:1369   */\n      0x00\n        /* \"#utility.yul\":1394:1432   */\n      tag_55\n        /* \"#utility.yul\":1426:1431   */\n      dup3\n        /* \"#utility.yul\":1394:1432   */\n      tag_56\n      jump\t// in\n    tag_55:\n        /* \"#utility.yul\":1448:1536   */\n      tag_57\n        /* \"#utility.yul\":1529:1535   */\n      dup2\n        /* \"#utility.yul\":1524:1527   */\n      dup6\n        /* \"#utility.yul\":1448:1536   */\n      tag_58\n      jump\t// in\n    tag_57:\n        /* \"#utility.yul\":1441:1536   */\n      swap4\n      pop\n        /* \"#utility.yul\":1545:1597   */\n      tag_59\n        /* \"#utility.yul\":1590:1596   */\n      dup2\n        /* \"#utility.yul\":1585:1588   */\n      dup6\n        /* \"#utility.yul\":1578:1582   */\n      0x20\n        /* \"#utility.yul\":1571:1576   */\n      dup7\n        /* \"#utility.yul\":1567:1583   */\n      add\n        /* \"#utility.yul\":1545:1597   */\n      tag_60\n      jump\t// in\n    tag_59:\n        /* \"#utility.yul\":1622:1628   */\n      dup1\n        /* \"#utility.yul\":1617:1620   */\n      dup5\n        /* \"#utility.yul\":1613:1629   */\n      add\n        /* \"#utility.yul\":1606:1629   */\n      swap2\n      pop\n        /* \"#utility.yul\":1370:1635   */\n      pop\n        /* \"#utility.yul\":1262:1635   */\n      swap3\n      swap2\n      pop\n      pop\n      jump\t// out\n        /* \"#utility.yul\":1641:1759   */\n    tag_61:\n        /* \"#utility.yul\":1728:1752   */\n      tag_63\n        /* \"#utility.yul\":1746:1751   */\n      dup2\n        /* \"#utility.yul\":1728:1752   */\n      tag_64\n      jump\t// in\n    tag_63:\n        /* \"#utility.yul\":1723:1726   */\n      dup3\n        /* \"#utility.yul\":1716:1753   */\n      mstore\n        /* \"#utility.yul\":1641:1759   */\n      pop\n      pop\n      jump\t// out\n        /* \"#utility.yul\":1765:1922   */\n    tag_65:\n        /* \"#utility.yul\":1870:1915   */\n      tag_67\n        /* \"#utility.yul\":1890:1914   */\n      tag_68\n        /* \"#utility.yul\":1908:1913   */\n      dup3\n        /* \"#utility.yul\":1890:1914   */\n      tag_64\n      jump\t// in\n    tag_68:\n        /* \"#utility.yul\":1870:1915   */\n      tag_69\n      jump\t// in\n    tag_67:\n        /* \"#utility.yul\":1865:1868   */\n      dup3\n        /* \"#utility.yul\":1858:1916   */\n      mstore\n        /* \"#utility.yul\":1765:1922   */\n      pop\n      pop\n      jump\t// out\n        /* \"#utility.yul\":1928:2602   */\n    tag_14:\n        /* \"#utility.yul\":2122:2125   */\n      0x00\n        /* \"#utility.yul\":2137:2210   */\n      tag_71\n        /* \"#utility.yul\":2206:2209   */\n      dup3\n        /* \"#utility.yul\":2197:2203   */\n      dup8\n        /* \"#utility.yul\":2137:2210   */\n      tag_41\n      jump\t// in\n    tag_71:\n        /* \"#utility.yul\":2235:2236   */\n      0x01\n        /* \"#utility.yul\":2230:2233   */\n      dup3\n        /* \"#utility.yul\":2226:2237   */\n      add\n        /* \"#utility.yul\":2219:2237   */\n      swap2\n      pop\n        /* \"#utility.yul\":2247:2322   */\n      tag_72\n        /* \"#utility.yul\":2318:2321   */\n      dup3\n        /* \"#utility.yul\":2309:2315   */\n      dup7\n        /* \"#utility.yul\":2247:2322   */\n      tag_35\n      jump\t// in\n    tag_72:\n        /* \"#utility.yul\":2347:2349   */\n      0x14\n        /* \"#utility.yul\":2342:2345   */\n      dup3\n        /* \"#utility.yul\":2338:2350   */\n      add\n        /* \"#utility.yul\":2331:2350   */\n      swap2\n      pop\n        /* \"#utility.yul\":2360:2435   */\n      tag_73\n        /* \"#utility.yul\":2431:2434   */\n      dup3\n        /* \"#utility.yul\":2422:2428   */\n      dup6\n        /* \"#utility.yul\":2360:2435   */\n      tag_47\n      jump\t// in\n    tag_73:\n        /* \"#utility.yul\":2460:2462   */\n      0x20\n        /* \"#utility.yul\":2455:2458   */\n      dup3\n        /* \"#utility.yul\":2451:2463   */\n      add\n        /* \"#utility.yul\":2444:2463   */\n      swap2\n      pop\n        /* \"#utility.yul\":2473:2548   */\n      tag_74\n        /* \"#utility.yul\":2544:2547   */\n      dup3\n        /* \"#utility.yul\":2535:2541   */\n      dup5\n        /* \"#utility.yul\":2473:2548   */\n      tag_47\n      jump\t// in\n    tag_74:\n        /* \"#utility.yul\":2573:2575   */\n      0x20\n        /* \"#utility.yul\":2568:2571   */\n      dup3\n        /* \"#utility.yul\":2564:2576   */\n      add\n        /* \"#utility.yul\":2557:2576   */\n      swap2\n      pop\n        /* \"#utility.yul\":2593:2596   */\n      dup2\n        /* \"#utility.yul\":2586:2596   */\n      swap1\n      pop\n        /* \"#utility.yul\":1928:2602   */\n      swap6\n      swap5\n      pop\n      pop\n      pop\n      pop\n      pop\n      jump\t// out\n        /* \"#utility.yul\":2608:3020   */\n    tag_12:\n        /* \"#utility.yul\":2766:2769   */\n      0x00\n        /* \"#utility.yul\":2788:2881   */\n      tag_76\n        /* \"#utility.yul\":2877:2880   */\n      dup3\n        /* \"#utility.yul\":2868:2874   */\n      dup6\n        /* \"#utility.yul\":2788:2881   */\n      tag_53\n      jump\t// in\n    tag_76:\n        /* \"#utility.yul\":2781:2881   */\n      swap2\n      pop\n        /* \"#utility.yul\":2891:2966   */\n      tag_77\n        /* \"#utility.yul\":2962:2965   */\n      dup3\n        /* \"#utility.yul\":2953:2959   */\n      dup5\n        /* \"#utility.yul\":2891:2966   */\n      tag_65\n      jump\t// in\n    tag_77:\n        /* \"#utility.yul\":2991:2993   */\n      0x20\n        /* \"#utility.yul\":2986:2989   */\n      dup3\n        /* \"#utility.yul\":2982:2994   */\n      add\n        /* \"#utility.yul\":2975:2994   */\n      swap2\n      pop\n        /* \"#utility.yul\":3011:3014   */\n      dup2\n        /* \"#utility.yul\":3004:3014   */\n      swap1\n      pop\n        /* \"#utility.yul\":2608:3020   */\n      swap4\n      swap3\n      pop\n      pop\n      pop\n      jump\t// out\n        /* \"#utility.yul\":3026:3248   */\n    tag_17:\n        /* \"#utility.yul\":3119:3123   */\n      0x00\n        /* \"#utility.yul\":3157:3159   */\n      0x20\n        /* \"#utility.yul\":3146:3155   */\n      dup3\n        /* \"#utility.yul\":3142:3160   */\n      add\n        /* \"#utility.yul\":3134:3160   */\n      swap1\n      pop\n        /* \"#utility.yul\":3170:3241   */\n      tag_79\n        /* \"#utility.yul\":3238:3239   */\n      0x00\n        /* \"#utility.yul\":3227:3236   */\n      dup4\n        /* \"#utility.yul\":3223:3240   */\n      add\n        /* \"#utility.yul\":3214:3220   */\n      dup5\n        /* \"#utility.yul\":3170:3241   */\n      tag_61\n      jump\t// in\n    tag_79:\n        /* \"#utility.yul\":3026:3248   */\n      swap3\n      swap2\n      pop\n      pop\n      jump\t// out\n        /* \"#utility.yul\":3335:3433   */\n    tag_56:\n        /* \"#utility.yul\":3386:3392   */\n      0x00\n        /* \"#utility.yul\":3420:3425   */\n      dup2\n        /* \"#utility.yul\":3414:3426   */\n      mload\n        /* \"#utility.yul\":3404:3426   */\n      swap1\n      pop\n        /* \"#utility.yul\":3335:3433   */\n      swap2\n      swap1\n      pop\n      jump\t// out\n        /* \"#utility.yul\":3439:3586   */\n    tag_58:\n        /* \"#utility.yul\":3540:3551   */\n      0x00\n        /* \"#utility.yul\":3577:3580   */\n      dup2\n        /* \"#utility.yul\":3562:3580   */\n      swap1\n      pop\n        /* \"#utility.yul\":3439:3586   */\n      swap3\n      swap2\n      pop\n      pop\n      jump\t// out\n        /* \"#utility.yul\":3592:3688   */\n    tag_39:\n        /* \"#utility.yul\":3629:3636   */\n      0x00\n        /* \"#utility.yul\":3658:3682   */\n      tag_85\n        /* \"#utility.yul\":3676:3681   */\n      dup3\n        /* \"#utility.yul\":3658:3682   */\n      tag_86\n      jump\t// in\n    tag_85:\n        /* \"#utility.yul\":3647:3682   */\n      swap1\n      pop\n        /* \"#utility.yul\":3592:3688   */\n      swap2\n      swap1\n      pop\n      jump\t// out\n        /* \"#utility.yul\":3694:3843   */\n    tag_45:\n        /* \"#utility.yul\":3730:3737   */\n      0x00\n        /* \"#utility.yul\":3770:3836   */\n      0xff00000000000000000000000000000000000000000000000000000000000000\n        /* \"#utility.yul\":3763:3768   */\n      dup3\n        /* \"#utility.yul\":3759:3837   */\n      and\n        /* \"#utility.yul\":3748:3837   */\n      swap1\n      pop\n        /* \"#utility.yul\":3694:3843   */\n      swap2\n      swap1\n      pop\n      jump\t// out\n        /* \"#utility.yul\":3849:3926   */\n    tag_51:\n        /* \"#utility.yul\":3886:3893   */\n      0x00\n        /* \"#utility.yul\":3915:3920   */\n      dup2\n        /* \"#utility.yul\":3904:3920   */\n      swap1\n      pop\n        /* \"#utility.yul\":3849:3926   */\n      swap2\n      swap1\n      pop\n      jump\t// out\n        /* \"#utility.yul\":3932:4058   */\n    tag_86:\n        /* \"#utility.yul\":3969:3976   */\n      0x00\n        /* \"#utility.yul\":4009:4051   */\n      0xffffffffffffffffffffffffffffffffffffffff\n        /* \"#utility.yul\":4002:4007   */\n      dup3\n        /* \"#utility.yul\":3998:4052   */\n      and\n        /* \"#utility.yul\":3987:4052   */\n      swap1\n      pop\n        /* \"#utility.yul\":3932:4058   */\n      swap2\n      swap1\n      pop\n      jump\t// out\n        /* \"#utility.yul\":4064:4141   */\n    tag_64:\n        /* \"#utility.yul\":4101:4108   */\n      0x00\n        /* \"#utility.yul\":4130:4135   */\n      dup2\n        /* \"#utility.yul\":4119:4135   */\n      swap1\n      pop\n        /* \"#utility.yul\":4064:4141   */\n      swap2\n      swap1\n      pop\n      jump\t// out\n        /* \"#utility.yul\":4147:4454   */\n    tag_60:\n        /* \"#utility.yul\":4215:4216   */\n      0x00\n        /* \"#utility.yul\":4225:4338   */\n    tag_92:\n        /* \"#utility.yul\":4239:4245   */\n      dup4\n        /* \"#utility.yul\":4236:4237   */\n      dup2\n        /* \"#utility.yul\":4233:4246   */\n      lt\n        /* \"#utility.yul\":4225:4338   */\n      iszero\n      tag_94\n      jumpi\n        /* \"#utility.yul\":4324:4325   */\n      dup1\n        /* \"#utility.yul\":4319:4322   */\n      dup3\n        /* \"#utility.yul\":4315:4326   */\n      add\n        /* \"#utility.yul\":4309:4327   */\n      mload\n        /* \"#utility.yul\":4305:4306   */\n      dup2\n        /* \"#utility.yul\":4300:4303   */\n      dup5\n        /* \"#utility.yul\":4296:4307   */\n      add\n        /* \"#utility.yul\":4289:4328   */\n      mstore\n        /* \"#utility.yul\":4261:4263   */\n      0x20\n        /* \"#utility.yul\":4258:4259   */\n      dup2\n        /* \"#utility.yul\":4254:4264   */\n      add\n        /* \"#utility.yul\":4249:4264   */\n      swap1\n      pop\n        /* \"#utility.yul\":4225:4338   */\n      jump(tag_92)\n    tag_94:\n        /* \"#utility.yul\":4356:4362   */\n      dup4\n        /* \"#utility.yul\":4353:4354   */\n      dup2\n        /* \"#utility.yul\":4350:4363   */\n      gt\n        /* \"#utility.yul\":4347:4448   */\n      iszero\n      tag_95\n      jumpi\n        /* \"#utility.yul\":4436:4437   */\n      0x00\n        /* \"#utility.yul\":4427:4433   */\n      dup5\n        /* \"#utility.yul\":4422:4425   */\n      dup5\n        /* \"#utility.yul\":4418:4434   */\n      add\n        /* \"#utility.yul\":4411:4438   */\n      mstore\n        /* \"#utility.yul\":4347:4448   */\n    tag_95:\n        /* \"#utility.yul\":4196:4454   */\n      pop\n        /* \"#utility.yul\":4147:4454   */\n      pop\n      pop\n      pop\n      jump\t// out\n        /* \"#utility.yul\":4460:4560   */\n    tag_40:\n        /* \"#utility.yul\":4499:4506   */\n      0x00\n        /* \"#utility.yul\":4528:4554   */\n      tag_97\n        /* \"#utility.yul\":4548:4553   */\n      dup3\n        /* \"#utility.yul\":4528:4554   */\n      tag_98\n      jump\t// in\n    tag_97:\n        /* \"#utility.yul\":4517:4554   */\n      swap1\n      pop\n        /* \"#utility.yul\":4460:4560   */\n      swap2\n      swap1\n      pop\n      jump\t// out\n        /* \"#utility.yul\":4566:4644   */\n    tag_46:\n        /* \"#utility.yul\":4604:4611   */\n      0x00\n        /* \"#utility.yul\":4633:4638   */\n      dup2\n        /* \"#utility.yul\":4622:4638   */\n      swap1\n      pop\n        /* \"#utility.yul\":4566:4644   */\n      swap2\n      swap1\n      pop\n      jump\t// out\n        /* \"#utility.yul\":4650:4729   */\n    tag_52:\n        /* \"#utility.yul\":4689:4696   */\n      0x00\n        /* \"#utility.yul\":4718:4723   */\n      dup2\n        /* \"#utility.yul\":4707:4723   */\n      swap1\n      pop\n        /* \"#utility.yul\":4650:4729   */\n      swap2\n      swap1\n      pop\n      jump\t// out\n        /* \"#utility.yul\":4735:4829   */\n    tag_98:\n        /* \"#utility.yul\":4774:4781   */\n      0x00\n        /* \"#utility.yul\":4803:4823   */\n      tag_102\n        /* \"#utility.yul\":4817:4822   */\n      dup3\n        /* \"#utility.yul\":4803:4823   */\n      tag_103\n      jump\t// in\n    tag_102:\n        /* \"#utility.yul\":4792:4823   */\n      swap1\n      pop\n        /* \"#utility.yul\":4735:4829   */\n      swap2\n      swap1\n      pop\n      jump\t// out\n        /* \"#utility.yul\":4835:4914   */\n    tag_69:\n        /* \"#utility.yul\":4874:4881   */\n      0x00\n        /* \"#utility.yul\":4903:4908   */\n      dup2\n        /* \"#utility.yul\":4892:4908   */\n      swap1\n      pop\n        /* \"#utility.yul\":4835:4914   */\n      swap2\n      swap1\n      pop\n      jump\t// out\n        /* \"#utility.yul\":5043:5160   */\n    tag_32:\n        /* \"#utility.yul\":5152:5153   */\n      0x00\n        /* \"#utility.yul\":5149:5150   */\n      dup1\n        /* \"#utility.yul\":5142:5154   */\n      revert\n        /* \"#utility.yul\":5166:5260   */\n    tag_103:\n        /* \"#utility.yul\":5199:5207   */\n      0x00\n        /* \"#utility.yul\":5247:5252   */\n      dup2\n        /* \"#utility.yul\":5243:5245   */\n      0x60\n        /* \"#utility.yul\":5239:5253   */\n      shl\n        /* \"#utility.yul\":5218:5253   */\n      swap1\n      pop\n        /* \"#utility.yul\":5166:5260   */\n      swap2\n      swap1\n      pop\n      jump\t// out\n        /* \"#utility.yul\":5266:5388   */\n    tag_24:\n        /* \"#utility.yul\":5339:5363   */\n      tag_110\n        /* \"#utility.yul\":5357:5362   */\n      dup2\n        /* \"#utility.yul\":5339:5363   */\n      tag_51\n      jump\t// in\n    tag_110:\n        /* \"#utility.yul\":5332:5337   */\n      dup2\n        /* \"#utility.yul\":5329:5364   */\n      eq\n        /* \"#utility.yul\":5319:5382   */\n      tag_111\n      jumpi\n        /* \"#utility.yul\":5378:5379   */\n      0x00\n        /* \"#utility.yul\":5375:5376   */\n      dup1\n        /* \"#utility.yul\":5368:5380   */\n      revert\n        /* \"#utility.yul\":5319:5382   */\n    tag_111:\n        /* \"#utility.yul\":5266:5388   */\n      pop\n      jump\t// out\n        /* \"#utility.yul\":5394:5516   */\n    tag_28:\n        /* \"#utility.yul\":5467:5491   */\n      tag_113\n        /* \"#utility.yul\":5485:5490   */\n      dup2\n        /* \"#utility.yul\":5467:5491   */\n      tag_64\n      jump\t// in\n    tag_113:\n        /* \"#utility.yul\":5460:5465   */\n      dup2\n        /* \"#utility.yul\":5457:5492   */\n      eq\n        /* \"#utility.yul\":5447:5510   */\n      tag_114\n      jumpi\n        /* \"#utility.yul\":5506:5507   */\n      0x00\n        /* \"#utility.yul\":5503:5504   */\n      dup1\n        /* \"#utility.yul\":5496:5508   */\n      revert\n        /* \"#utility.yul\":5447:5510   */\n    tag_114:\n        /* \"#utility.yul\":5394:5516   */\n      pop\n      jump\t// out\n    stop\n\n    sub_0: assembly {\n            /* \"study/chapter04/create2.sol\":53:133  contract D {... */\n          mstore(0x40, 0x80)\n            /* \"study/chapter04/create2.sol\":89:131  constructor(uint a) {... */\n          callvalue\n          dup1\n          iszero\n          tag_1\n          jumpi\n          0x00\n          dup1\n          revert\n        tag_1:\n          pop\n          mload(0x40)\n          sub(codesize, bytecodeSize)\n          dup1\n          bytecodeSize\n          dup4\n          codecopy\n          dup2\n          dup2\n          add\n          0x40\n          mstore\n          dup2\n          add\n          swap1\n          tag_2\n          swap2\n          swap1\n          tag_3\n          jump\t// in\n        tag_2:\n            /* \"study/chapter04/create2.sol\":123:124  a */\n          dup1\n            /* \"study/chapter04/create2.sol\":119:120  x */\n          0x00\n            /* \"study/chapter04/create2.sol\":119:124  x = a */\n          dup2\n          swap1\n          sstore\n          pop\n            /* \"study/chapter04/create2.sol\":89:131  constructor(uint a) {... */\n          pop\n            /* \"study/chapter04/create2.sol\":53:133  contract D {... */\n          jump(tag_6)\n            /* \"#utility.yul\":7:150   */\n        tag_8:\n            /* \"#utility.yul\":64:69   */\n          0x00\n            /* \"#utility.yul\":95:101   */\n          dup2\n            /* \"#utility.yul\":89:102   */\n          mload\n            /* \"#utility.yul\":80:102   */\n          swap1\n          pop\n            /* \"#utility.yul\":111:144   */\n          tag_10\n            /* \"#utility.yul\":138:143   */\n          dup2\n            /* \"#utility.yul\":111:144   */\n          tag_11\n          jump\t// in\n        tag_10:\n            /* \"#utility.yul\":7:150   */\n          swap3\n          swap2\n          pop\n          pop\n          jump\t// out\n            /* \"#utility.yul\":156:507   */\n        tag_3:\n            /* \"#utility.yul\":226:232   */\n          0x00\n            /* \"#utility.yul\":275:277   */\n          0x20\n            /* \"#utility.yul\":263:272   */\n          dup3\n            /* \"#utility.yul\":254:261   */\n          dup5\n            /* \"#utility.yul\":250:273   */\n          sub\n            /* \"#utility.yul\":246:278   */\n          slt\n            /* \"#utility.yul\":243:362   */\n          iszero\n          tag_13\n          jumpi\n            /* \"#utility.yul\":281:360   */\n          tag_14\n          tag_15\n          jump\t// in\n        tag_14:\n            /* \"#utility.yul\":243:362   */\n        tag_13:\n            /* \"#utility.yul\":401:402   */\n          0x00\n            /* \"#utility.yul\":426:490   */\n          tag_16\n            /* \"#utility.yul\":482:489   */\n          dup5\n            /* \"#utility.yul\":473:479   */\n          dup3\n            /* \"#utility.yul\":462:471   */\n          dup6\n            /* \"#utility.yul\":458:480   */\n          add\n            /* \"#utility.yul\":426:490   */\n          tag_8\n          jump\t// in\n        tag_16:\n            /* \"#utility.yul\":416:490   */\n          swap2\n          pop\n            /* \"#utility.yul\":372:500   */\n          pop\n            /* \"#utility.yul\":156:507   */\n          swap3\n          swap2\n          pop\n          pop\n          jump\t// out\n            /* \"#utility.yul\":594:671   */\n        tag_19:\n            /* \"#utility.yul\":631:638   */\n          0x00\n            /* \"#utility.yul\":660:665   */\n          dup2\n            /* \"#utility.yul\":649:665   */\n          swap1\n          pop\n            /* \"#utility.yul\":594:671   */\n          swap2\n          swap1\n          pop\n          jump\t// out\n            /* \"#utility.yul\":800:917   */\n        tag_15:\n            /* \"#utility.yul\":909:910   */\n          0x00\n            /* \"#utility.yul\":906:907   */\n          dup1\n            /* \"#utility.yul\":899:911   */\n          revert\n            /* \"#utility.yul\":923:1045   */\n        tag_11:\n            /* \"#utility.yul\":996:1020   */\n          tag_25\n            /* \"#utility.yul\":1014:1019   */\n          dup2\n            /* \"#utility.yul\":996:1020   */\n          tag_19\n          jump\t// in\n        tag_25:\n            /* \"#utility.yul\":989:994   */\n          dup2\n            /* \"#utility.yul\":986:1021   */\n          eq\n            /* \"#utility.yul\":976:1039   */\n          tag_26\n          jumpi\n            /* \"#utility.yul\":1035:1036   */\n          0x00\n            /* \"#utility.yul\":1032:1033   */\n          dup1\n            /* \"#utility.yul\":1025:1037   */\n          revert\n            /* \"#utility.yul\":976:1039   */\n        tag_26:\n            /* \"#utility.yul\":923:1045   */\n          pop\n          jump\t// out\n            /* \"study/chapter04/create2.sol\":53:133  contract D {... */\n        tag_6:\n          dataSize(sub_0)\n          dup1\n          dataOffset(sub_0)\n          0x00\n          codecopy\n          0x00\n          return\n        stop\n\n        sub_0: assembly {\n                /* \"study/chapter04/create2.sol\":53:133  contract D {... */\n              mstore(0x40, 0x80)\n              callvalue\n              dup1\n              iszero\n              tag_1\n              jumpi\n              0x00\n              dup1\n              revert\n            tag_1:\n              pop\n              jumpi(tag_2, lt(calldatasize, 0x04))\n              shr(0xe0, calldataload(0x00))\n              dup1\n              0x0c55699c\n              eq\n              tag_3\n              jumpi\n            tag_2:\n              0x00\n              dup1\n              revert\n                /* \"study/chapter04/create2.sol\":70:83  uint public x */\n            tag_3:\n              tag_4\n              tag_5\n              jump\t// in\n            tag_4:\n              mload(0x40)\n              tag_6\n              swap2\n              swap1\n              tag_7\n              jump\t// in\n            tag_6:\n              mload(0x40)\n              dup1\n              swap2\n              sub\n              swap1\n              return\n            tag_5:\n              sload(0x00)\n              dup2\n              jump\t// out\n                /* \"#utility.yul\":7:125   */\n            tag_9:\n                /* \"#utility.yul\":94:118   */\n              tag_11\n                /* \"#utility.yul\":112:117   */\n              dup2\n                /* \"#utility.yul\":94:118   */\n              tag_12\n              jump\t// in\n            tag_11:\n                /* \"#utility.yul\":89:92   */\n              dup3\n                /* \"#utility.yul\":82:119   */\n              mstore\n                /* \"#utility.yul\":7:125   */\n              pop\n              pop\n              jump\t// out\n                /* \"#utility.yul\":131:353   */\n            tag_7:\n                /* \"#utility.yul\":224:228   */\n              0x00\n                /* \"#utility.yul\":262:264   */\n              0x20\n                /* \"#utility.yul\":251:260   */\n              dup3\n                /* \"#utility.yul\":247:265   */\n              add\n                /* \"#utility.yul\":239:265   */\n              swap1\n              pop\n                /* \"#utility.yul\":275:346   */\n              tag_14\n                /* \"#utility.yul\":343:344   */\n              0x00\n                /* \"#utility.yul\":332:341   */\n              dup4\n                /* \"#utility.yul\":328:345   */\n              add\n                /* \"#utility.yul\":319:325   */\n              dup5\n                /* \"#utility.yul\":275:346   */\n              tag_9\n              jump\t// in\n            tag_14:\n                /* \"#utility.yul\":131:353   */\n              swap3\n              swap2\n              pop\n              pop\n              jump\t// out\n                /* \"#utility.yul\":359:436   */\n            tag_12:\n                /* \"#utility.yul\":396:403   */\n              0x00\n                /* \"#utility.yul\":425:430   */\n              dup2\n                /* \"#utility.yul\":414:430   */\n              swap1\n              pop\n                /* \"#utility.yul\":359:436   */\n              swap2\n              swap1\n              pop\n              jump\t// out\n\n            auxdata: 0xa2646970667358221220df3d4edabd0b0f15401f65c5273718f76c8ed0f46dd032d36b658b6cee54a7b564736f6c63430008070033\n        }\n    }\n\n    auxdata: 0xa264697066735822122011ffb4d2247e5532db3658eeeaef8462db6c97a6546f56cc8edf3e4fc98319fd64736f6c63430008070033\n}\n",
				"bytecode": {
					"linkReferences": {},
					"object": "608060405234801561001057600080fd5b50610623806100206000396000f3fe608060405234801561001057600080fd5b506004361061002b5760003560e01c80630bd38f2f14610030575b600080fd5b61004a600480360381019061004591906101db565b61004c565b005b600060ff60f81b308460405180602001610065906101a4565b6020820181038252601f19601f820116604052508560405160200161008b929190610305565b604051602081830303815290604052805190602001206040516020016100b494939291906102b7565b6040516020818303038152906040528051906020012060001c905082826040516100dd906101a4565b6100e7919061032d565b8190604051809103906000f5905080158015610107573d6000803e3d6000fd5b506000806101000a81548173ffffffffffffffffffffffffffffffffffffffff021916908373ffffffffffffffffffffffffffffffffffffffff1602179055508073ffffffffffffffffffffffffffffffffffffffff1660008054906101000a900473ffffffffffffffffffffffffffffffffffffffff1673ffffffffffffffffffffffffffffffffffffffff161461019f57600080fd5b505050565b6101688061048683390190565b6000813590506101c081610457565b92915050565b6000813590506101d58161046e565b92915050565b600080604083850312156101f2576101f1610445565b5b6000610200858286016101b1565b9250506020610211858286016101c6565b9150509250929050565b61022c6102278261035e565b610403565b82525050565b61024361023e82610370565b610415565b82525050565b61025a6102558261039c565b61041f565b82525050565b600061026b82610348565b6102758185610353565b93506102858185602086016103d0565b80840191505092915050565b61029a816103c6565b82525050565b6102b16102ac826103c6565b61043b565b82525050565b60006102c38287610232565b6001820191506102d3828661021b565b6014820191506102e38285610249565b6020820191506102f38284610249565b60208201915081905095945050505050565b60006103118285610260565b915061031d82846102a0565b6020820191508190509392505050565b60006020820190506103426000830184610291565b92915050565b600081519050919050565b600081905092915050565b6000610369826103a6565b9050919050565b60007fff0000000000000000000000000000000000000000000000000000000000000082169050919050565b6000819050919050565b600073ffffffffffffffffffffffffffffffffffffffff82169050919050565b6000819050919050565b60005b838110156103ee5780820151818401526020810190506103d3565b838111156103fd576000848401525b50505050565b600061040e82610429565b9050919050565b6000819050919050565b6000819050919050565b60006104348261044a565b9050919050565b6000819050919050565b600080fd5b60008160601b9050919050565b6104608161039c565b811461046b57600080fd5b50565b610477816103c6565b811461048257600080fd5b5056fe608060405234801561001057600080fd5b5060405161016838038061016883398181016040528101906100329190610054565b80600081905550506100a7565b60008151905061004e81610090565b92915050565b60006020828403121561006a5761006961008b565b5b60006100788482850161003f565b91505092915050565b6000819050919050565b600080fd5b61009981610081565b81146100a457600080fd5b50565b60b3806100b56000396000f3fe6080604052348015600f57600080fd5b506004361060285760003560e01c80630c55699c14602d575b600080fd5b60336047565b604051603e9190605a565b60405180910390f35b60005481565b6054816073565b82525050565b6000602082019050606d6000830184604d565b92915050565b600081905091905056fea2646970667358221220df3d4edabd0b0f15401f65c5273718f76c8ed0f46dd032d36b658b6cee54a7b564736f6c63430008070033a264697066735822122011ffb4d2247e5532db3658eeeaef8462db6c97a6546f56cc8edf3e4fc98319fd64736f6c63430008070033",
					"opcodes": "PUSH1 0x80 PUSH1 0x40 MSTORE CALLVALUE DUP1 ISZERO PUSH2 0x10 JUMPI PUSH1 0x0 DUP1 REVERT JUMPDEST POP PUSH2 0x623 DUP1 PUSH2 0x20 PUSH1 0x0 CODECOPY PUSH1 0x0 RETURN INVALID PUSH1 0x80 PUSH1 0x40 MSTORE CALLVALUE DUP1 ISZERO PUSH2 0x10 JUMPI PUSH1 0x0 DUP1 REVERT JUMPDEST POP PUSH1 0x4 CALLDATASIZE LT PUSH2 0x2B JUMPI PUSH1 0x0 CALLDATALOAD PUSH1 0xE0 SHR DUP1 PUSH4 0xBD38F2F EQ PUSH2 0x30 JUMPI JUMPDEST PUSH1 0x0 DUP1 REVERT JUMPDEST PUSH2 0x4A PUSH1 0x4 DUP1 CALLDATASIZE SUB DUP2 ADD SWAP1 PUSH2 0x45 SWAP2 SWAP1 PUSH2 0x1DB JUMP JUMPDEST PUSH2 0x4C JUMP JUMPDEST STOP JUMPDEST PUSH1 0x0 PUSH1 0xFF PUSH1 0xF8 SHL ADDRESS DUP5 PUSH1 0x40 MLOAD DUP1 PUSH1 0x20 ADD PUSH2 0x65 SWAP1 PUSH2 0x1A4 JUMP JUMPDEST PUSH1 0x20 DUP3 ADD DUP2 SUB DUP3 MSTORE PUSH1 0x1F NOT PUSH1 0x1F DUP3 ADD AND PUSH1 0x40 MSTORE POP DUP6 PUSH1 0x40 MLOAD PUSH1 0x20 ADD PUSH2 0x8B SWAP3 SWAP2 SWAP1 PUSH2 0x305 JUMP JUMPDEST PUSH1 0x40 MLOAD PUSH1 0x20 DUP2 DUP4 SUB SUB DUP2 MSTORE SWAP1 PUSH1 0x40 MSTORE DUP1 MLOAD SWAP1 PUSH1 0x20 ADD KECCAK256 PUSH1 0x40 MLOAD PUSH1 0x20 ADD PUSH2 0xB4 SWAP5 SWAP4 SWAP3 SWAP2 SWAP1 PUSH2 0x2B7 JUMP JUMPDEST PUSH1 0x40 MLOAD PUSH1 0x20 DUP2 DUP4 SUB SUB DUP2 MSTORE SWAP1 PUSH1 0x40 MSTORE DUP1 MLOAD SWAP1 PUSH1 0x20 ADD KECCAK256 PUSH1 0x0 SHR SWAP1 POP DUP3 DUP3 PUSH1 0x40 MLOAD PUSH2 0xDD SWAP1 PUSH2 0x1A4 JUMP JUMPDEST PUSH2 0xE7 SWAP2 SWAP1 PUSH2 0x32D JUMP JUMPDEST DUP2 SWAP1 PUSH1 0x40 MLOAD DUP1 SWAP2 SUB SWAP1 PUSH1 0x0 CREATE2 SWAP1 POP DUP1 ISZERO DUP1 ISZERO PUSH2 0x107 JUMPI RETURNDATASIZE PUSH1 0x0 DUP1 RETURNDATACOPY RETURNDATASIZE PUSH1 0x0 REVERT JUMPDEST POP PUSH1 0x0 DUP1 PUSH2 0x100 EXP DUP2 SLOAD DUP2 PUSH20 0xFFFFFFFFFFFFFFFFFFFFFFFFFFFFFFFFFFFFFFFF MUL NOT AND SWAP1 DUP4 PUSH20 0xFFFFFFFFFFFFFFFFFFFFFFFFFFFFFFFFFFFFFFFF AND MUL OR SWAP1 SSTORE POP DUP1 PUSH20 0xFFFFFFFFFFFFFFFFFFFFFFFFFFFFFFFFFFFFFFFF AND PUSH1 0x0 DUP1 SLOAD SWAP1 PUSH2 0x100 EXP SWAP1 DIV PUSH20 0xFFFFFFFFFFFFFFFFFFFFFFFFFFFFFFFFFFFFFFFF AND PUSH20 0xFFFFFFFFFFFFFFFFFFFFFFFFFFFFFFFFFFFFFFFF AND EQ PUSH2 0x19F JUMPI PUSH1 0x0 DUP1 REVERT JUMPDEST POP POP POP JUMP JUMPDEST PUSH2 0x168 DUP1 PUSH2 0x486 DUP4 CODECOPY ADD SWAP1 JUMP JUMPDEST PUSH1 0x0 DUP2 CALLDATALOAD SWAP1 POP PUSH2 0x1C0 DUP2 PUSH2 0x457 JUMP JUMPDEST SWAP3 SWAP2 POP POP JUMP JUMPDEST PUSH1 0x0 DUP2 CALLDATALOAD SWAP1 POP PUSH2 0x1D5 DUP2 PUSH2 0x46E JUMP JUMPDEST SWAP3 SWAP2 POP POP JUMP JUMPDEST PUSH1 0x0 DUP1 PUSH1 0x40 DUP4 DUP6 SUB SLT ISZERO PUSH2 0x1F2 JUMPI PUSH2 0x1F1 PUSH2 0x445 JUMP JUMPDEST JUMPDEST PUSH1 0x0 PUSH2 0x200 DUP6 DUP3 DUP7 ADD PUSH2 0x1B1 JUMP JUMPDEST SWAP3 POP POP PUSH1 0x20 PUSH2 0x211 DUP6 DUP3 DUP7 ADD PUSH2 0x1C6 JUMP JUMPDEST SWAP2 POP POP SWAP3 POP SWAP3 SWAP1 POP JUMP JUMPDEST PUSH2 0x22C PUSH2 0x227 DUP3 PUSH2 0x35E JUMP JUMPDEST PUSH2 0x403 JUMP JUMPDEST DUP3 MSTORE POP POP JUMP JUMPDEST PUSH2 0x243 PUSH2 0x23E DUP3 PUSH2 0x370 JUMP JUMPDEST PUSH2 0x415 JUMP JUMPDEST DUP3 MSTORE POP POP JUMP JUMPDEST PUSH2 0x25A PUSH2 0x255 DUP3 PUSH2 0x39C JUMP JUMPDEST PUSH2 0x41F JUMP JUMPDEST DUP3 MSTORE POP POP JUMP JUMPDEST PUSH1 0x0 PUSH2 0x26B DUP3 PUSH2 0x348 JUMP JUMPDEST PUSH2 0x275 DUP2 DUP6 PUSH2 0x353 JUMP JUMPDEST SWAP4 POP PUSH2 0x285 DUP2 DUP6 PUSH1 0x20 DUP7 ADD PUSH2 0x3D0 JUMP JUMPDEST DUP1 DUP5 ADD SWAP2 POP POP SWAP3 SWAP2 POP POP JUMP JUMPDEST PUSH2 0x29A DUP2 PUSH2 0x3C6 JUMP JUMPDEST DUP3 MSTORE POP POP JUMP JUMPDEST PUSH2 0x2B1 PUSH2 0x2AC DUP3 PUSH2 0x3C6 JUMP JUMPDEST PUSH2 0x43B JUMP JUMPDEST DUP3 MSTORE POP POP JUMP JUMPDEST PUSH1 0x0 PUSH2 0x2C3 DUP3 DUP8 PUSH2 0x232 JUMP JUMPDEST PUSH1 0x1 DUP3 ADD SWAP2 POP PUSH2 0x2D3 DUP3 DUP7 PUSH2 0x21B JUMP JUMPDEST PUSH1 0x14 DUP3 ADD SWAP2 POP PUSH2 0x2E3 DUP3 DUP6 PUSH2 0x249 JUMP JUMPDEST PUSH1 0x20 DUP3 ADD SWAP2 POP PUSH2 0x2F3 DUP3 DUP5 PUSH2 0x249 JUMP JUMPDEST PUSH1 0x20 DUP3 ADD SWAP2 POP DUP2 SWAP1 POP SWAP6 SWAP5 POP POP POP POP POP JUMP JUMPDEST PUSH1 0x0 PUSH2 0x311 DUP3 DUP6 PUSH2 0x260 JUMP JUMPDEST SWAP2 POP PUSH2 0x31D DUP3 DUP5 PUSH2 0x2A0 JUMP JUMPDEST PUSH1 0x20 DUP3 ADD SWAP2 POP DUP2 SWAP1 POP SWAP4 SWAP3 POP POP POP JUMP JUMPDEST PUSH1 0x0 PUSH1 0x20 DUP3 ADD SWAP1 POP PUSH2 0x342 PUSH1 0x0 DUP4 ADD DUP5 PUSH2 0x291 JUMP JUMPDEST SWAP3 SWAP2 POP POP JUMP JUMPDEST PUSH1 0x0 DUP2 MLOAD SWAP1 POP SWAP2 SWAP1 POP JUMP JUMPDEST PUSH1 0x0 DUP2 SWAP1 POP SWAP3 SWAP2 POP POP JUMP JUMPDEST PUSH1 0x0 PUSH2 0x369 DUP3 PUSH2 0x3A6 JUMP JUMPDEST SWAP1 POP SWAP2 SWAP1 POP JUMP JUMPDEST PUSH1 0x0 PUSH32 0xFF00000000000000000000000000000000000000000000000000000000000000 DUP3 AND SWAP1 POP SWAP2 SWAP1 POP JUMP JUMPDEST PUSH1 0x0 DUP2 SWAP1 POP SWAP2 SWAP1 POP JUMP JUMPDEST PUSH1 0x0 PUSH20 0xFFFFFFFFFFFFFFFFFFFFFFFFFFFFFFFFFFFFFFFF DUP3 AND SWAP1 POP SWAP2 SWAP1 POP JUMP JUMPDEST PUSH1 0x0 DUP2 SWAP1 POP SWAP2 SWAP1 POP JUMP JUMPDEST PUSH1 0x0 JUMPDEST DUP4 DUP2 LT ISZERO PUSH2 0x3EE JUMPI DUP1 DUP3 ADD MLOAD DUP2 DUP5 ADD MSTORE PUSH1 0x20 DUP2 ADD SWAP1 POP PUSH2 0x3D3 JUMP JUMPDEST DUP4 DUP2 GT ISZERO PUSH2 0x3FD JUMPI PUSH1 0x0 DUP5 DUP5 ADD MSTORE JUMPDEST POP POP POP POP JUMP JUMPDEST PUSH1 0x0 PUSH2 0x40E DUP3 PUSH2 0x429 JUMP JUMPDEST SWAP1 POP SWAP2 SWAP1 POP JUMP JUMPDEST PUSH1 0x0 DUP2 SWAP1 POP SWAP2 SWAP1 POP JUMP JUMPDEST PUSH1 0x0 DUP2 SWAP1 POP SWAP2 SWAP1 POP JUMP JUMPDEST PUSH1 0x0 PUSH2 0x434 DUP3 PUSH2 0x44A JUMP JUMPDEST SWAP1 POP SWAP2 SWAP1 POP JUMP JUMPDEST PUSH1 0x0 DUP2 SWAP1 POP SWAP2 SWAP1 POP JUMP JUMPDEST PUSH1 0x0 DUP1 REVERT JUMPDEST PUSH1 0x0 DUP2 PUSH1 0x60 SHL SWAP1 POP SWAP2 SWAP1 POP JUMP JUMPDEST PUSH2 0x460 DUP2 PUSH2 0x39C JUMP JUMPDEST DUP2 EQ PUSH2 0x46B JUMPI PUSH1 0x0 DUP1 REVERT JUMPDEST POP JUMP JUMPDEST PUSH2 0x477 DUP2 PUSH2 0x3C6 JUMP JUMPDEST DUP2 EQ PUSH2 0x482 JUMPI PUSH1 0x0 DUP1 REVERT JUMPDEST POP JUMP INVALID PUSH1 0x80 PUSH1 0x40 MSTORE CALLVALUE DUP1 ISZERO PUSH2 0x10 JUMPI PUSH1 0x0 DUP1 REVERT JUMPDEST POP PUSH1 0x40 MLOAD PUSH2 0x168 CODESIZE SUB DUP1 PUSH2 0x168 DUP4 CODECOPY DUP2 DUP2 ADD PUSH1 0x40 MSTORE DUP2 ADD SWAP1 PUSH2 0x32 SWAP2 SWAP1 PUSH2 0x54 JUMP JUMPDEST DUP1 PUSH1 0x0 DUP2 SWAP1 SSTORE POP POP PUSH2 0xA7 JUMP JUMPDEST PUSH1 0x0 DUP2 MLOAD SWAP1 POP PUSH2 0x4E DUP2 PUSH2 0x90 JUMP JUMPDEST SWAP3 SWAP2 POP POP JUMP JUMPDEST PUSH1 0x0 PUSH1 0x20 DUP3 DUP5 SUB SLT ISZERO PUSH2 0x6A JUMPI PUSH2 0x69 PUSH2 0x8B JUMP JUMPDEST JUMPDEST PUSH1 0x0 PUSH2 0x78 DUP5 DUP3 DUP6 ADD PUSH2 0x3F JUMP JUMPDEST SWAP2 POP POP SWAP3 SWAP2 POP POP JUMP JUMPDEST PUSH1 0x0 DUP2 SWAP1 POP SWAP2 SWAP1 POP JUMP JUMPDEST PUSH1 0x0 DUP1 REVERT JUMPDEST PUSH2 0x99 DUP2 PUSH2 0x81 JUMP JUMPDEST DUP2 EQ PUSH2 0xA4 JUMPI PUSH1 0x0 DUP1 REVERT JUMPDEST POP JUMP JUMPDEST PUSH1 0xB3 DUP1 PUSH2 0xB5 PUSH1 0x0 CODECOPY PUSH1 0x0 RETURN INVALID PUSH1 0x80 PUSH1 0x40 MSTORE CALLVALUE DUP1 ISZERO PUSH1 0xF JUMPI PUSH1 0x0 DUP1 REVERT JUMPDEST POP PUSH1 0x4 CALLDATASIZE LT PUSH1 0x28 JUMPI PUSH1 0x0 CALLDATALOAD PUSH1 0xE0 SHR DUP1 PUSH4 0xC55699C EQ PUSH1 0x2D JUMPI JUMPDEST PUSH1 0x0 DUP1 REVERT JUMPDEST PUSH1 0x33 PUSH1 0x47 JUMP JUMPDEST PUSH1 0x40 MLOAD PUSH1 0x3E SWAP2 SWAP1 PUSH1 0x5A JUMP JUMPDEST PUSH1 0x40 MLOAD DUP1 SWAP2 SUB SWAP1 RETURN JUMPDEST PUSH1 0x0 SLOAD DUP2 JUMP JUMPDEST PUSH1 0x54 DUP2 PUSH1 0x73 JUMP JUMPDEST DUP3 MSTORE POP POP JUMP JUMPDEST PUSH1 0x0 PUSH1 0x20 DUP3 ADD SWAP1 POP PUSH1 0x6D PUSH1 0x0 DUP4 ADD DUP5 PUSH1 0x4D JUMP JUMPDEST SWAP3 SWAP2 POP POP JUMP JUMPDEST PUSH1 0x0 DUP2 SWAP1 POP SWAP2 SWAP1 POP JUMP INVALID LOG2 PUSH5 0x6970667358 0x22 SLT KECCAK256 0xDF RETURNDATASIZE 0x4E 0xDA 0xBD SIGNEXTEND 0xF ISZERO BLOCKHASH 0x1F PUSH6 0xC5273718F76C DUP15 0xD0 DELEGATECALL PUSH14 0xD032D36B658B6CEE54A7B564736F PUSH13 0x63430008070033A26469706673 PC 0x22 SLT KECCAK256 GT SELFDESTRUCT 0xB4 0xD2 0x24 PUSH31 0x5532DB3658EEEAEF8462DB6C97A6546F56CC8EDF3E4FC98319FD64736F6C63 NUMBER STOP ADDMOD SMOD STOP CALLER "
				},
				"gasEstimates": {
					"creation": {
						"codeDepositCost": "314200",
						"executionCost": "355",
						"totalCost": "314555"
					},
					"external": {
						"createDSalted(bytes32,uint256)": "infinite"
					}
				},
				"methodIdentifiers": {
					"createDSalted(bytes32,uint256)": "0bd38f2f"
				}
			},
			"storageLayout": {
				"storage": [
					{
						"astId": 17,
						"contract": "study/chapter04/create2.sol:C",
						"label": "d",
						"offset": 0,
						"slot": "0",
						"type": "t_contract(D)14"
					}
				],
				"types": {
					"t_contract(D)14": {
						"encoding": "inplace",
						"label": "contract D",
						"numberOfBytes": "20"
					}
				}
			},
			"userdoc": {
				"kind": "user",
				"methods": {},
				"version": 1
			}
		}
	}
}