{
	"code95/3call.sol": {
		"Call": {
			"abi": [
				{
					"inputs": [
						{
							"internalType": "address",
							"name": "_test",
							"type": "address"
						}
					],
					"name": "example",
					"outputs": [],
					"stateMutability": "nonpayable",
					"type": "function"
				}
			],
			"devdoc": {
				"kind": "dev",
				"methods": {},
				"version": 1
			},
			"evm": {
				"assembly": "    /* \"code95/3call.sol\":55:370  contract Call{... */\n  mstore(0x40, 0x80)\n  callvalue\n  dup1\n  iszero\n  tag_1\n  jumpi\n  0x00\n  dup1\n  revert\ntag_1:\n  pop\n  dataSize(sub_0)\n  dup1\n  dataOffset(sub_0)\n  0x00\n  codecopy\n  0x00\n  return\nstop\n\nsub_0: assembly {\n        /* \"code95/3call.sol\":55:370  contract Call{... */\n      mstore(0x40, 0x80)\n      callvalue\n      dup1\n      iszero\n      tag_1\n      jumpi\n      0x00\n      dup1\n      revert\n    tag_1:\n      pop\n      jumpi(tag_2, lt(calldatasize, 0x04))\n      shr(0xe0, calldataload(0x00))\n      dup1\n      0x512ca947\n      eq\n      tag_3\n      jumpi\n    tag_2:\n      0x00\n      dup1\n      revert\n        /* \"code95/3call.sol\":74:368  function example(address _test)external{... */\n    tag_3:\n      tag_4\n      0x04\n      dup1\n      calldatasize\n      sub\n      dup2\n      add\n      swap1\n      tag_5\n      swap2\n      swap1\n      tag_6\n      jump\t// in\n    tag_5:\n      tag_7\n      jump\t// in\n    tag_4:\n      stop\n    tag_7:\n        /* \"code95/3call.sol\":273:285  bool success */\n      0x00\n        /* \"code95/3call.sol\":286:303  bytes memory data */\n      dup1\n        /* \"code95/3call.sol\":305:310  _test */\n      dup3\n        /* \"code95/3call.sol\":305:315  _test.call */\n      0xffffffffffffffffffffffffffffffffffffffff\n      and\n        /* \"code95/3call.sol\":356:359  123 */\n      0x7b\n        /* \"code95/3call.sol\":316:360  abi.encodeWithSignature(\"setX(uint256)\",123) */\n      add(0x24, mload(0x40))\n      tag_9\n      swap2\n      swap1\n      tag_10\n      jump\t// in\n    tag_9:\n      mload(0x40)\n      0x20\n      dup2\n      dup4\n      sub\n      sub\n      dup2\n      mstore\n      swap1\n      0x40\n      mstore\n      and(not(0xffffffffffffffffffffffffffffffffffffffffffffffffffffffff), 0x4018d9aa00000000000000000000000000000000000000000000000000000000)\n      0x20\n      dup3\n      add\n      dup1\n      mload\n      0xffffffffffffffffffffffffffffffffffffffffffffffffffffffff\n      dup4\n      dup2\n      dup4\n      and\n      or\n      dup4\n      mstore\n      pop\n      pop\n      pop\n      pop\n        /* \"code95/3call.sol\":305:361  _test.call(abi.encodeWithSignature(\"setX(uint256)\",123)) */\n      mload(0x40)\n      tag_11\n      swap2\n      swap1\n      tag_12\n      jump\t// in\n    tag_11:\n      0x00\n      mload(0x40)\n      dup1\n      dup4\n      sub\n      dup2\n      0x00\n      dup7\n      gas\n      call\n      swap2\n      pop\n      pop\n      returndatasize\n      dup1\n      0x00\n      dup2\n      eq\n      tag_15\n      jumpi\n      mload(0x40)\n      swap2\n      pop\n      and(add(returndatasize, 0x3f), not(0x1f))\n      dup3\n      add\n      0x40\n      mstore\n      returndatasize\n      dup3\n      mstore\n      returndatasize\n      0x00\n      0x20\n      dup5\n      add\n      returndatacopy\n      jump(tag_14)\n    tag_15:\n      0x60\n      swap2\n      pop\n    tag_14:\n      pop\n        /* \"code95/3call.sol\":272:361  (bool success,bytes memory data)=_test.call(abi.encodeWithSignature(\"setX(uint256)\",123)) */\n      swap2\n      pop\n      swap2\n      pop\n        /* \"code95/3call.sol\":113:368  {... */\n      pop\n      pop\n        /* \"code95/3call.sol\":74:368  function example(address _test)external{... */\n      pop\n      jump\t// out\n        /* \"#utility.yul\":7:146   */\n    tag_17:\n        /* \"#utility.yul\":53:58   */\n      0x00\n        /* \"#utility.yul\":91:97   */\n      dup2\n        /* \"#utility.yul\":78:98   */\n      calldataload\n        /* \"#utility.yul\":69:98   */\n      swap1\n      pop\n        /* \"#utility.yul\":107:140   */\n      tag_19\n        /* \"#utility.yul\":134:139   */\n      dup2\n        /* \"#utility.yul\":107:140   */\n      tag_20\n      jump\t// in\n    tag_19:\n        /* \"#utility.yul\":7:146   */\n      swap3\n      swap2\n      pop\n      pop\n      jump\t// out\n        /* \"#utility.yul\":152:481   */\n    tag_6:\n        /* \"#utility.yul\":211:217   */\n      0x00\n        /* \"#utility.yul\":260:262   */\n      0x20\n        /* \"#utility.yul\":248:257   */\n      dup3\n        /* \"#utility.yul\":239:246   */\n      dup5\n        /* \"#utility.yul\":235:258   */\n      sub\n        /* \"#utility.yul\":231:263   */\n      slt\n        /* \"#utility.yul\":228:347   */\n      iszero\n      tag_22\n      jumpi\n        /* \"#utility.yul\":266:345   */\n      tag_23\n      tag_24\n      jump\t// in\n    tag_23:\n        /* \"#utility.yul\":228:347   */\n    tag_22:\n        /* \"#utility.yul\":386:387   */\n      0x00\n        /* \"#utility.yul\":411:464   */\n      tag_25\n        /* \"#utility.yul\":456:463   */\n      dup5\n        /* \"#utility.yul\":447:453   */\n      dup3\n        /* \"#utility.yul\":436:445   */\n      dup6\n        /* \"#utility.yul\":432:454   */\n      add\n        /* \"#utility.yul\":411:464   */\n      tag_17\n      jump\t// in\n    tag_25:\n        /* \"#utility.yul\":401:464   */\n      swap2\n      pop\n        /* \"#utility.yul\":357:474   */\n      pop\n        /* \"#utility.yul\":152:481   */\n      swap3\n      swap2\n      pop\n      pop\n      jump\t// out\n        /* \"#utility.yul\":487:860   */\n    tag_26:\n        /* \"#utility.yul\":591:594   */\n      0x00\n        /* \"#utility.yul\":619:657   */\n      tag_28\n        /* \"#utility.yul\":651:656   */\n      dup3\n        /* \"#utility.yul\":619:657   */\n      tag_29\n      jump\t// in\n    tag_28:\n        /* \"#utility.yul\":673:761   */\n      tag_30\n        /* \"#utility.yul\":754:760   */\n      dup2\n        /* \"#utility.yul\":749:752   */\n      dup6\n        /* \"#utility.yul\":673:761   */\n      tag_31\n      jump\t// in\n    tag_30:\n        /* \"#utility.yul\":666:761   */\n      swap4\n      pop\n        /* \"#utility.yul\":770:822   */\n      tag_32\n        /* \"#utility.yul\":815:821   */\n      dup2\n        /* \"#utility.yul\":810:813   */\n      dup6\n        /* \"#utility.yul\":803:807   */\n      0x20\n        /* \"#utility.yul\":796:801   */\n      dup7\n        /* \"#utility.yul\":792:808   */\n      add\n        /* \"#utility.yul\":770:822   */\n      tag_33\n      jump\t// in\n    tag_32:\n        /* \"#utility.yul\":847:853   */\n      dup1\n        /* \"#utility.yul\":842:845   */\n      dup5\n        /* \"#utility.yul\":838:854   */\n      add\n        /* \"#utility.yul\":831:854   */\n      swap2\n      pop\n        /* \"#utility.yul\":595:860   */\n      pop\n        /* \"#utility.yul\":487:860   */\n      swap3\n      swap2\n      pop\n      pop\n      jump\t// out\n        /* \"#utility.yul\":866:1013   */\n    tag_34:\n        /* \"#utility.yul\":961:1006   */\n      tag_36\n        /* \"#utility.yul\":1000:1005   */\n      dup2\n        /* \"#utility.yul\":961:1006   */\n      tag_37\n      jump\t// in\n    tag_36:\n        /* \"#utility.yul\":956:959   */\n      dup3\n        /* \"#utility.yul\":949:1007   */\n      mstore\n        /* \"#utility.yul\":866:1013   */\n      pop\n      pop\n      jump\t// out\n        /* \"#utility.yul\":1019:1290   */\n    tag_12:\n        /* \"#utility.yul\":1149:1152   */\n      0x00\n        /* \"#utility.yul\":1171:1264   */\n      tag_39\n        /* \"#utility.yul\":1260:1263   */\n      dup3\n        /* \"#utility.yul\":1251:1257   */\n      dup5\n        /* \"#utility.yul\":1171:1264   */\n      tag_26\n      jump\t// in\n    tag_39:\n        /* \"#utility.yul\":1164:1264   */\n      swap2\n      pop\n        /* \"#utility.yul\":1281:1284   */\n      dup2\n        /* \"#utility.yul\":1274:1284   */\n      swap1\n      pop\n        /* \"#utility.yul\":1019:1290   */\n      swap3\n      swap2\n      pop\n      pop\n      jump\t// out\n        /* \"#utility.yul\":1296:1534   */\n    tag_10:\n        /* \"#utility.yul\":1397:1401   */\n      0x00\n        /* \"#utility.yul\":1435:1437   */\n      0x20\n        /* \"#utility.yul\":1424:1433   */\n      dup3\n        /* \"#utility.yul\":1420:1438   */\n      add\n        /* \"#utility.yul\":1412:1438   */\n      swap1\n      pop\n        /* \"#utility.yul\":1448:1527   */\n      tag_41\n        /* \"#utility.yul\":1524:1525   */\n      0x00\n        /* \"#utility.yul\":1513:1522   */\n      dup4\n        /* \"#utility.yul\":1509:1526   */\n      add\n        /* \"#utility.yul\":1500:1506   */\n      dup5\n        /* \"#utility.yul\":1448:1527   */\n      tag_34\n      jump\t// in\n    tag_41:\n        /* \"#utility.yul\":1296:1534   */\n      swap3\n      swap2\n      pop\n      pop\n      jump\t// out\n        /* \"#utility.yul\":1621:1719   */\n    tag_29:\n        /* \"#utility.yul\":1672:1678   */\n      0x00\n        /* \"#utility.yul\":1706:1711   */\n      dup2\n        /* \"#utility.yul\":1700:1712   */\n      mload\n        /* \"#utility.yul\":1690:1712   */\n      swap1\n      pop\n        /* \"#utility.yul\":1621:1719   */\n      swap2\n      swap1\n      pop\n      jump\t// out\n        /* \"#utility.yul\":1725:1872   */\n    tag_31:\n        /* \"#utility.yul\":1826:1837   */\n      0x00\n        /* \"#utility.yul\":1863:1866   */\n      dup2\n        /* \"#utility.yul\":1848:1866   */\n      swap1\n      pop\n        /* \"#utility.yul\":1725:1872   */\n      swap3\n      swap2\n      pop\n      pop\n      jump\t// out\n        /* \"#utility.yul\":1878:1974   */\n    tag_46:\n        /* \"#utility.yul\":1915:1922   */\n      0x00\n        /* \"#utility.yul\":1944:1968   */\n      tag_48\n        /* \"#utility.yul\":1962:1967   */\n      dup3\n        /* \"#utility.yul\":1944:1968   */\n      tag_49\n      jump\t// in\n    tag_48:\n        /* \"#utility.yul\":1933:1968   */\n      swap1\n      pop\n        /* \"#utility.yul\":1878:1974   */\n      swap2\n      swap1\n      pop\n      jump\t// out\n        /* \"#utility.yul\":1980:2106   */\n    tag_49:\n        /* \"#utility.yul\":2017:2024   */\n      0x00\n        /* \"#utility.yul\":2057:2099   */\n      0xffffffffffffffffffffffffffffffffffffffff\n        /* \"#utility.yul\":2050:2055   */\n      dup3\n        /* \"#utility.yul\":2046:2100   */\n      and\n        /* \"#utility.yul\":2035:2100   */\n      swap1\n      pop\n        /* \"#utility.yul\":1980:2106   */\n      swap2\n      swap1\n      pop\n      jump\t// out\n        /* \"#utility.yul\":2112:2198   */\n    tag_51:\n        /* \"#utility.yul\":2147:2154   */\n      0x00\n        /* \"#utility.yul\":2187:2191   */\n      0xff\n        /* \"#utility.yul\":2180:2185   */\n      dup3\n        /* \"#utility.yul\":2176:2192   */\n      and\n        /* \"#utility.yul\":2165:2192   */\n      swap1\n      pop\n        /* \"#utility.yul\":2112:2198   */\n      swap2\n      swap1\n      pop\n      jump\t// out\n        /* \"#utility.yul\":2204:2323   */\n    tag_37:\n        /* \"#utility.yul\":2262:2271   */\n      0x00\n        /* \"#utility.yul\":2295:2317   */\n      tag_54\n        /* \"#utility.yul\":2311:2316   */\n      dup3\n        /* \"#utility.yul\":2295:2317   */\n      tag_51\n      jump\t// in\n    tag_54:\n        /* \"#utility.yul\":2282:2317   */\n      swap1\n      pop\n        /* \"#utility.yul\":2204:2323   */\n      swap2\n      swap1\n      pop\n      jump\t// out\n        /* \"#utility.yul\":2329:2636   */\n    tag_33:\n        /* \"#utility.yul\":2397:2398   */\n      0x00\n        /* \"#utility.yul\":2407:2520   */\n    tag_56:\n        /* \"#utility.yul\":2421:2427   */\n      dup4\n        /* \"#utility.yul\":2418:2419   */\n      dup2\n        /* \"#utility.yul\":2415:2428   */\n      lt\n        /* \"#utility.yul\":2407:2520   */\n      iszero\n      tag_58\n      jumpi\n        /* \"#utility.yul\":2506:2507   */\n      dup1\n        /* \"#utility.yul\":2501:2504   */\n      dup3\n        /* \"#utility.yul\":2497:2508   */\n      add\n        /* \"#utility.yul\":2491:2509   */\n      mload\n        /* \"#utility.yul\":2487:2488   */\n      dup2\n        /* \"#utility.yul\":2482:2485   */\n      dup5\n        /* \"#utility.yul\":2478:2489   */\n      add\n        /* \"#utility.yul\":2471:2510   */\n      mstore\n        /* \"#utility.yul\":2443:2445   */\n      0x20\n        /* \"#utility.yul\":2440:2441   */\n      dup2\n        /* \"#utility.yul\":2436:2446   */\n      add\n        /* \"#utility.yul\":2431:2446   */\n      swap1\n      pop\n        /* \"#utility.yul\":2407:2520   */\n      jump(tag_56)\n    tag_58:\n        /* \"#utility.yul\":2538:2544   */\n      dup4\n        /* \"#utility.yul\":2535:2536   */\n      dup2\n        /* \"#utility.yul\":2532:2545   */\n      gt\n        /* \"#utility.yul\":2529:2630   */\n      iszero\n      tag_59\n      jumpi\n        /* \"#utility.yul\":2618:2619   */\n      0x00\n        /* \"#utility.yul\":2609:2615   */\n      dup5\n        /* \"#utility.yul\":2604:2607   */\n      dup5\n        /* \"#utility.yul\":2600:2616   */\n      add\n        /* \"#utility.yul\":2593:2620   */\n      mstore\n        /* \"#utility.yul\":2529:2630   */\n    tag_59:\n        /* \"#utility.yul\":2378:2636   */\n      pop\n        /* \"#utility.yul\":2329:2636   */\n      pop\n      pop\n      pop\n      jump\t// out\n        /* \"#utility.yul\":2765:2882   */\n    tag_24:\n        /* \"#utility.yul\":2874:2875   */\n      0x00\n        /* \"#utility.yul\":2871:2872   */\n      dup1\n        /* \"#utility.yul\":2864:2876   */\n      revert\n        /* \"#utility.yul\":2888:3010   */\n    tag_20:\n        /* \"#utility.yul\":2961:2985   */\n      tag_64\n        /* \"#utility.yul\":2979:2984   */\n      dup2\n        /* \"#utility.yul\":2961:2985   */\n      tag_46\n      jump\t// in\n    tag_64:\n        /* \"#utility.yul\":2954:2959   */\n      dup2\n        /* \"#utility.yul\":2951:2986   */\n      eq\n        /* \"#utility.yul\":2941:3004   */\n      tag_65\n      jumpi\n        /* \"#utility.yul\":3000:3001   */\n      0x00\n        /* \"#utility.yul\":2997:2998   */\n      dup1\n        /* \"#utility.yul\":2990:3002   */\n      revert\n        /* \"#utility.yul\":2941:3004   */\n    tag_65:\n        /* \"#utility.yul\":2888:3010   */\n      pop\n      jump\t// out\n\n    auxdata: 0xa264697066735822122003a17283310f9b1815a760b46d909e9b5e5e1dff6066d080458a3f0b0960267664736f6c63430008070033\n}\n",
				"bytecode": {
					"linkReferences": {},
					"object": "608060405234801561001057600080fd5b506102ee806100206000396000f3fe608060405234801561001057600080fd5b506004361061002b5760003560e01c8063512ca94714610030575b600080fd5b61004a60048036038101906100459190610163565b61004c565b005b6000808273ffffffffffffffffffffffffffffffffffffffff16607b60405160240161007891906101e7565b6040516020818303038152906040527f4018d9aa000000000000000000000000000000000000000000000000000000007bffffffffffffffffffffffffffffffffffffffffffffffffffffffff19166020820180517bffffffffffffffffffffffffffffffffffffffffffffffffffffffff838183161783525050505060405161010291906101d0565b6000604051808303816000865af19150503d806000811461013f576040519150601f19603f3d011682016040523d82523d6000602084013e610144565b606091505b5091509150505050565b60008135905061015d816102a1565b92915050565b6000602082840312156101795761017861029c565b5b60006101878482850161014e565b91505092915050565b600061019b82610202565b6101a5818561020d565b93506101b5818560208601610269565b80840191505092915050565b6101ca81610257565b82525050565b60006101dc8284610190565b915081905092915050565b60006020820190506101fc60008301846101c1565b92915050565b600081519050919050565b600081905092915050565b60006102238261022a565b9050919050565b600073ffffffffffffffffffffffffffffffffffffffff82169050919050565b600060ff82169050919050565b60006102628261024a565b9050919050565b60005b8381101561028757808201518184015260208101905061026c565b83811115610296576000848401525b50505050565b600080fd5b6102aa81610218565b81146102b557600080fd5b5056fea264697066735822122003a17283310f9b1815a760b46d909e9b5e5e1dff6066d080458a3f0b0960267664736f6c63430008070033",
					"opcodes": "PUSH1 0x80 PUSH1 0x40 MSTORE CALLVALUE DUP1 ISZERO PUSH2 0x10 JUMPI PUSH1 0x0 DUP1 REVERT JUMPDEST POP PUSH2 0x2EE DUP1 PUSH2 0x20 PUSH1 0x0 CODECOPY PUSH1 0x0 RETURN INVALID PUSH1 0x80 PUSH1 0x40 MSTORE CALLVALUE DUP1 ISZERO PUSH2 0x10 JUMPI PUSH1 0x0 DUP1 REVERT JUMPDEST POP PUSH1 0x4 CALLDATASIZE LT PUSH2 0x2B JUMPI PUSH1 0x0 CALLDATALOAD PUSH1 0xE0 SHR DUP1 PUSH4 0x512CA947 EQ PUSH2 0x30 JUMPI JUMPDEST PUSH1 0x0 DUP1 REVERT JUMPDEST PUSH2 0x4A PUSH1 0x4 DUP1 CALLDATASIZE SUB DUP2 ADD SWAP1 PUSH2 0x45 SWAP2 SWAP1 PUSH2 0x163 JUMP JUMPDEST PUSH2 0x4C JUMP JUMPDEST STOP JUMPDEST PUSH1 0x0 DUP1 DUP3 PUSH20 0xFFFFFFFFFFFFFFFFFFFFFFFFFFFFFFFFFFFFFFFF AND PUSH1 0x7B PUSH1 0x40 MLOAD PUSH1 0x24 ADD PUSH2 0x78 SWAP2 SWAP1 PUSH2 0x1E7 JUMP JUMPDEST PUSH1 0x40 MLOAD PUSH1 0x20 DUP2 DUP4 SUB SUB DUP2 MSTORE SWAP1 PUSH1 0x40 MSTORE PUSH32 0x4018D9AA00000000000000000000000000000000000000000000000000000000 PUSH28 0xFFFFFFFFFFFFFFFFFFFFFFFFFFFFFFFFFFFFFFFFFFFFFFFFFFFFFFFF NOT AND PUSH1 0x20 DUP3 ADD DUP1 MLOAD PUSH28 0xFFFFFFFFFFFFFFFFFFFFFFFFFFFFFFFFFFFFFFFFFFFFFFFFFFFFFFFF DUP4 DUP2 DUP4 AND OR DUP4 MSTORE POP POP POP POP PUSH1 0x40 MLOAD PUSH2 0x102 SWAP2 SWAP1 PUSH2 0x1D0 JUMP JUMPDEST PUSH1 0x0 PUSH1 0x40 MLOAD DUP1 DUP4 SUB DUP2 PUSH1 0x0 DUP7 GAS CALL SWAP2 POP POP RETURNDATASIZE DUP1 PUSH1 0x0 DUP2 EQ PUSH2 0x13F JUMPI PUSH1 0x40 MLOAD SWAP2 POP PUSH1 0x1F NOT PUSH1 0x3F RETURNDATASIZE ADD AND DUP3 ADD PUSH1 0x40 MSTORE RETURNDATASIZE DUP3 MSTORE RETURNDATASIZE PUSH1 0x0 PUSH1 0x20 DUP5 ADD RETURNDATACOPY PUSH2 0x144 JUMP JUMPDEST PUSH1 0x60 SWAP2 POP JUMPDEST POP SWAP2 POP SWAP2 POP POP POP POP JUMP JUMPDEST PUSH1 0x0 DUP2 CALLDATALOAD SWAP1 POP PUSH2 0x15D DUP2 PUSH2 0x2A1 JUMP JUMPDEST SWAP3 SWAP2 POP POP JUMP JUMPDEST PUSH1 0x0 PUSH1 0x20 DUP3 DUP5 SUB SLT ISZERO PUSH2 0x179 JUMPI PUSH2 0x178 PUSH2 0x29C JUMP JUMPDEST JUMPDEST PUSH1 0x0 PUSH2 0x187 DUP5 DUP3 DUP6 ADD PUSH2 0x14E JUMP JUMPDEST SWAP2 POP POP SWAP3 SWAP2 POP POP JUMP JUMPDEST PUSH1 0x0 PUSH2 0x19B DUP3 PUSH2 0x202 JUMP JUMPDEST PUSH2 0x1A5 DUP2 DUP6 PUSH2 0x20D JUMP JUMPDEST SWAP4 POP PUSH2 0x1B5 DUP2 DUP6 PUSH1 0x20 DUP7 ADD PUSH2 0x269 JUMP JUMPDEST DUP1 DUP5 ADD SWAP2 POP POP SWAP3 SWAP2 POP POP JUMP JUMPDEST PUSH2 0x1CA DUP2 PUSH2 0x257 JUMP JUMPDEST DUP3 MSTORE POP POP JUMP JUMPDEST PUSH1 0x0 PUSH2 0x1DC DUP3 DUP5 PUSH2 0x190 JUMP JUMPDEST SWAP2 POP DUP2 SWAP1 POP SWAP3 SWAP2 POP POP JUMP JUMPDEST PUSH1 0x0 PUSH1 0x20 DUP3 ADD SWAP1 POP PUSH2 0x1FC PUSH1 0x0 DUP4 ADD DUP5 PUSH2 0x1C1 JUMP JUMPDEST SWAP3 SWAP2 POP POP JUMP JUMPDEST PUSH1 0x0 DUP2 MLOAD SWAP1 POP SWAP2 SWAP1 POP JUMP JUMPDEST PUSH1 0x0 DUP2 SWAP1 POP SWAP3 SWAP2 POP POP JUMP JUMPDEST PUSH1 0x0 PUSH2 0x223 DUP3 PUSH2 0x22A JUMP JUMPDEST SWAP1 POP SWAP2 SWAP1 POP JUMP JUMPDEST PUSH1 0x0 PUSH20 0xFFFFFFFFFFFFFFFFFFFFFFFFFFFFFFFFFFFFFFFF DUP3 AND SWAP1 POP SWAP2 SWAP1 POP JUMP JUMPDEST PUSH1 0x0 PUSH1 0xFF DUP3 AND SWAP1 POP SWAP2 SWAP1 POP JUMP JUMPDEST PUSH1 0x0 PUSH2 0x262 DUP3 PUSH2 0x24A JUMP JUMPDEST SWAP1 POP SWAP2 SWAP1 POP JUMP JUMPDEST PUSH1 0x0 JUMPDEST DUP4 DUP2 LT ISZERO PUSH2 0x287 JUMPI DUP1 DUP3 ADD MLOAD DUP2 DUP5 ADD MSTORE PUSH1 0x20 DUP2 ADD SWAP1 POP PUSH2 0x26C JUMP JUMPDEST DUP4 DUP2 GT ISZERO PUSH2 0x296 JUMPI PUSH1 0x0 DUP5 DUP5 ADD MSTORE JUMPDEST POP POP POP POP JUMP JUMPDEST PUSH1 0x0 DUP1 REVERT JUMPDEST PUSH2 0x2AA DUP2 PUSH2 0x218 JUMP JUMPDEST DUP2 EQ PUSH2 0x2B5 JUMPI PUSH1 0x0 DUP1 REVERT JUMPDEST POP JUMP INVALID LOG2 PUSH5 0x6970667358 0x22 SLT KECCAK256 SUB LOG1 PUSH19 0x83310F9B1815A760B46D909E9B5E5E1DFF6066 0xD0 DUP1 GASLIMIT DUP11 EXTCODEHASH SIGNEXTEND MULMOD PUSH1 0x26 PUSH23 0x64736F6C63430008070033000000000000000000000000 "
				},
				"gasEstimates": {
					"creation": {
						"codeDepositCost": "150000",
						"executionCost": "196",
						"totalCost": "150196"
					},
					"external": {
						"example(address)": "infinite"
					}
				},
				"methodIdentifiers": {
					"example(address)": "512ca947"
				}
			},
			"storageLayout": {
				"storage": [],
				"types": null
			},
			"userdoc": {
				"kind": "user",
				"methods": {},
				"version": 1
			}
		}
	}
}