{
	"study/chapter03/abi.sol": {
		"testABI3": {
			"abi": [
				{
					"inputs": [],
					"name": "a",
					"outputs": [
						{
							"internalType": "uint256",
							"name": "",
							"type": "uint256"
						}
					],
					"stateMutability": "view",
					"type": "function"
				},
				{
					"inputs": [
						{
							"internalType": "uint256",
							"name": "b",
							"type": "uint256"
						},
						{
							"internalType": "uint256",
							"name": "c",
							"type": "uint256"
						}
					],
					"name": "add",
					"outputs": [
						{
							"internalType": "uint256",
							"name": "",
							"type": "uint256"
						}
					],
					"stateMutability": "nonpayable",
					"type": "function"
				},
				{
					"inputs": [],
					"name": "callFunc",
					"outputs": [
						{
							"internalType": "bool",
							"name": "",
							"type": "bool"
						},
						{
							"internalType": "bytes",
							"name": "",
							"type": "bytes"
						},
						{
							"internalType": "uint256",
							"name": "",
							"type": "uint256"
						}
					],
					"stateMutability": "nonpayable",
					"type": "function"
				},
				{
					"inputs": [],
					"name": "encodedABI",
					"outputs": [
						{
							"internalType": "bytes",
							"name": "",
							"type": "bytes"
						}
					],
					"stateMutability": "view",
					"type": "function"
				}
			],
			"devdoc": {
				"kind": "dev",
				"methods": {},
				"version": 1
			},
			"evm": {
				"assembly": "    /* \"study/chapter03/abi.sol\":400:960  contract testABI3{... */\n  mstore(0x40, 0x80)\n    /* \"study/chapter03/abi.sol\":738:739  5 */\n  0x05\n    /* \"study/chapter03/abi.sol\":740:741  1 */\n  0x01\n    /* \"study/chapter03/abi.sol\":691:742  abi.encodeWithSignature(\"add(uint256,uint256)\",5,1) */\n  add(0x24, mload(0x40))\n  tag_1\n  swap3\n  swap2\n  swap1\n  tag_2\n  jump\t// in\ntag_1:\n  mload(0x40)\n  0x20\n  dup2\n  dup4\n  sub\n  sub\n  dup2\n  mstore\n  swap1\n  0x40\n  mstore\n  and(not(0xffffffffffffffffffffffffffffffffffffffffffffffffffffffff), 0x771602f700000000000000000000000000000000000000000000000000000000)\n  0x20\n  dup3\n  add\n  dup1\n  mload\n  0xffffffffffffffffffffffffffffffffffffffffffffffffffffffff\n  dup4\n  dup2\n  dup4\n  and\n  or\n  dup4\n  mstore\n  pop\n  pop\n  pop\n  pop\n    /* \"study/chapter03/abi.sol\":665:742  bytes public encodedABI = abi.encodeWithSignature(\"add(uint256,uint256)\",5,1) */\n  0x01\n  swap1\n  dup1\n  mload\n  swap1\n  0x20\n  add\n  swap1\n  tag_3\n  swap3\n  swap2\n  swap1\n  tag_4\n  jump\t// in\ntag_3:\n  pop\n    /* \"study/chapter03/abi.sol\":400:960  contract testABI3{... */\n  callvalue\n  dup1\n  iszero\n  tag_5\n  jumpi\n  0x00\n  dup1\n  revert\ntag_5:\n  pop\n  jump(tag_6)\ntag_4:\n  dup3\n  dup1\n  sload\n  tag_7\n  swap1\n  tag_8\n  jump\t// in\ntag_7:\n  swap1\n  0x00\n  mstore\n  keccak256(0x00, 0x20)\n  swap1\n  0x1f\n  add\n  0x20\n  swap1\n  div\n  dup2\n  add\n  swap3\n  dup3\n  tag_10\n  jumpi\n  0x00\n  dup6\n  sstore\n  jump(tag_9)\ntag_10:\n  dup3\n  0x1f\n  lt\n  tag_11\n  jumpi\n  dup1\n  mload\n  not(0xff)\n  and\n  dup4\n  dup1\n  add\n  or\n  dup6\n  sstore\n  jump(tag_9)\ntag_11:\n  dup3\n  dup1\n  add\n  0x01\n  add\n  dup6\n  sstore\n  dup3\n  iszero\n  tag_9\n  jumpi\n  swap2\n  dup3\n  add\ntag_12:\n  dup3\n  dup2\n  gt\n  iszero\n  tag_13\n  jumpi\n  dup3\n  mload\n  dup3\n  sstore\n  swap2\n  0x20\n  add\n  swap2\n  swap1\n  0x01\n  add\n  swap1\n  jump(tag_12)\ntag_13:\ntag_9:\n  pop\n  swap1\n  pop\n  tag_14\n  swap2\n  swap1\n  tag_15\n  jump\t// in\ntag_14:\n  pop\n  swap1\n  jump\t// out\ntag_15:\ntag_16:\n  dup1\n  dup3\n  gt\n  iszero\n  tag_17\n  jumpi\n  0x00\n  dup2\n  0x00\n  swap1\n  sstore\n  pop\n  0x01\n  add\n  jump(tag_16)\ntag_17:\n  pop\n  swap1\n  jump\t// out\n    /* \"#utility.yul\":7:150   */\ntag_19:\n    /* \"#utility.yul\":100:143   */\n  tag_21\n    /* \"#utility.yul\":137:142   */\n  dup2\n    /* \"#utility.yul\":100:143   */\n  tag_22\n  jump\t// in\ntag_21:\n    /* \"#utility.yul\":95:98   */\n  dup3\n    /* \"#utility.yul\":88:144   */\n  mstore\n    /* \"#utility.yul\":78:150   */\n  pop\n  pop\n  jump\t// out\n    /* \"#utility.yul\":156:299   */\ntag_23:\n    /* \"#utility.yul\":249:292   */\n  tag_25\n    /* \"#utility.yul\":286:291   */\n  dup2\n    /* \"#utility.yul\":249:292   */\n  tag_26\n  jump\t// in\ntag_25:\n    /* \"#utility.yul\":244:247   */\n  dup3\n    /* \"#utility.yul\":237:293   */\n  mstore\n    /* \"#utility.yul\":227:299   */\n  pop\n  pop\n  jump\t// out\n    /* \"#utility.yul\":305:661   */\ntag_2:\n    /* \"#utility.yul\":438:442   */\n  0x00\n    /* \"#utility.yul\":476:478   */\n  0x40\n    /* \"#utility.yul\":465:474   */\n  dup3\n    /* \"#utility.yul\":461:479   */\n  add\n    /* \"#utility.yul\":453:479   */\n  swap1\n  pop\n    /* \"#utility.yul\":489:566   */\n  tag_28\n    /* \"#utility.yul\":563:564   */\n  0x00\n    /* \"#utility.yul\":552:561   */\n  dup4\n    /* \"#utility.yul\":548:565   */\n  add\n    /* \"#utility.yul\":539:545   */\n  dup6\n    /* \"#utility.yul\":489:566   */\n  tag_23\n  jump\t// in\ntag_28:\n    /* \"#utility.yul\":576:654   */\n  tag_29\n    /* \"#utility.yul\":650:652   */\n  0x20\n    /* \"#utility.yul\":639:648   */\n  dup4\n    /* \"#utility.yul\":635:653   */\n  add\n    /* \"#utility.yul\":626:632   */\n  dup5\n    /* \"#utility.yul\":576:654   */\n  tag_19\n  jump\t// in\ntag_29:\n    /* \"#utility.yul\":443:661   */\n  swap4\n  swap3\n  pop\n  pop\n  pop\n  jump\t// out\n    /* \"#utility.yul\":667:753   */\ntag_30:\n    /* \"#utility.yul\":702:709   */\n  0x00\n    /* \"#utility.yul\":742:746   */\n  0xff\n    /* \"#utility.yul\":735:740   */\n  dup3\n    /* \"#utility.yul\":731:747   */\n  and\n    /* \"#utility.yul\":720:747   */\n  swap1\n  pop\n    /* \"#utility.yul\":710:753   */\n  swap2\n  swap1\n  pop\n  jump\t// out\n    /* \"#utility.yul\":759:876   */\ntag_22:\n    /* \"#utility.yul\":815:824   */\n  0x00\n    /* \"#utility.yul\":848:870   */\n  tag_33\n    /* \"#utility.yul\":864:869   */\n  dup3\n    /* \"#utility.yul\":848:870   */\n  tag_30\n  jump\t// in\ntag_33:\n    /* \"#utility.yul\":835:870   */\n  swap1\n  pop\n    /* \"#utility.yul\":825:876   */\n  swap2\n  swap1\n  pop\n  jump\t// out\n    /* \"#utility.yul\":882:999   */\ntag_26:\n    /* \"#utility.yul\":938:947   */\n  0x00\n    /* \"#utility.yul\":971:993   */\n  tag_35\n    /* \"#utility.yul\":987:992   */\n  dup3\n    /* \"#utility.yul\":971:993   */\n  tag_30\n  jump\t// in\ntag_35:\n    /* \"#utility.yul\":958:993   */\n  swap1\n  pop\n    /* \"#utility.yul\":948:999   */\n  swap2\n  swap1\n  pop\n  jump\t// out\n    /* \"#utility.yul\":1005:1325   */\ntag_8:\n    /* \"#utility.yul\":1049:1055   */\n  0x00\n    /* \"#utility.yul\":1086:1087   */\n  0x02\n    /* \"#utility.yul\":1080:1084   */\n  dup3\n    /* \"#utility.yul\":1076:1088   */\n  div\n    /* \"#utility.yul\":1066:1088   */\n  swap1\n  pop\n    /* \"#utility.yul\":1133:1134   */\n  0x01\n    /* \"#utility.yul\":1127:1131   */\n  dup3\n    /* \"#utility.yul\":1123:1135   */\n  and\n    /* \"#utility.yul\":1154:1172   */\n  dup1\n    /* \"#utility.yul\":1144:1146   */\n  tag_37\n  jumpi\n    /* \"#utility.yul\":1210:1214   */\n  0x7f\n    /* \"#utility.yul\":1202:1208   */\n  dup3\n    /* \"#utility.yul\":1198:1215   */\n  and\n    /* \"#utility.yul\":1188:1215   */\n  swap2\n  pop\n    /* \"#utility.yul\":1144:1146   */\ntag_37:\n    /* \"#utility.yul\":1272:1274   */\n  0x20\n    /* \"#utility.yul\":1264:1270   */\n  dup3\n    /* \"#utility.yul\":1261:1275   */\n  lt\n    /* \"#utility.yul\":1241:1259   */\n  dup2\n    /* \"#utility.yul\":1238:1276   */\n  eq\n    /* \"#utility.yul\":1235:1237   */\n  iszero\n  tag_38\n  jumpi\n    /* \"#utility.yul\":1291:1309   */\n  tag_39\n  tag_40\n  jump\t// in\ntag_39:\n    /* \"#utility.yul\":1235:1237   */\ntag_38:\n    /* \"#utility.yul\":1056:1325   */\n  pop\n  swap2\n  swap1\n  pop\n  jump\t// out\n    /* \"#utility.yul\":1331:1511   */\ntag_40:\n    /* \"#utility.yul\":1379:1456   */\n  0x4e487b7100000000000000000000000000000000000000000000000000000000\n    /* \"#utility.yul\":1376:1377   */\n  0x00\n    /* \"#utility.yul\":1369:1457   */\n  mstore\n    /* \"#utility.yul\":1476:1480   */\n  0x22\n    /* \"#utility.yul\":1473:1474   */\n  0x04\n    /* \"#utility.yul\":1466:1481   */\n  mstore\n    /* \"#utility.yul\":1500:1504   */\n  0x24\n    /* \"#utility.yul\":1497:1498   */\n  0x00\n    /* \"#utility.yul\":1490:1505   */\n  revert\n    /* \"study/chapter03/abi.sol\":400:960  contract testABI3{... */\ntag_6:\n  dataSize(sub_0)\n  dup1\n  dataOffset(sub_0)\n  0x00\n  codecopy\n  0x00\n  return\nstop\n\nsub_0: assembly {\n        /* \"study/chapter03/abi.sol\":400:960  contract testABI3{... */\n      mstore(0x40, 0x80)\n      callvalue\n      dup1\n      iszero\n      tag_1\n      jumpi\n      0x00\n      dup1\n      revert\n    tag_1:\n      pop\n      jumpi(tag_2, lt(calldatasize, 0x04))\n      shr(0xe0, calldataload(0x00))\n      dup1\n      0x0dbe671f\n      eq\n      tag_3\n      jumpi\n      dup1\n      0x6b28c658\n      eq\n      tag_4\n      jumpi\n      dup1\n      0x771602f7\n      eq\n      tag_5\n      jumpi\n      dup1\n      0x9a7846b9\n      eq\n      tag_6\n      jumpi\n    tag_2:\n      0x00\n      dup1\n      revert\n        /* \"study/chapter03/abi.sol\":423:436  uint public a */\n    tag_3:\n      tag_7\n      tag_8\n      jump\t// in\n    tag_7:\n      mload(0x40)\n      tag_9\n      swap2\n      swap1\n      tag_10\n      jump\t// in\n    tag_9:\n      mload(0x40)\n      dup1\n      swap2\n      sub\n      swap1\n      return\n        /* \"study/chapter03/abi.sol\":665:742  bytes public encodedABI = abi.encodeWithSignature(\"add(uint256,uint256)\",5,1) */\n    tag_4:\n      tag_11\n      tag_12\n      jump\t// in\n    tag_11:\n      mload(0x40)\n      tag_13\n      swap2\n      swap1\n      tag_14\n      jump\t// in\n    tag_13:\n      mload(0x40)\n      dup1\n      swap2\n      sub\n      swap1\n      return\n        /* \"study/chapter03/abi.sol\":443:535  function add(uint b,uint c) public returns (uint) {... */\n    tag_5:\n      tag_15\n      0x04\n      dup1\n      calldatasize\n      sub\n      dup2\n      add\n      swap1\n      tag_16\n      swap2\n      swap1\n      tag_17\n      jump\t// in\n    tag_16:\n      tag_18\n      jump\t// in\n    tag_15:\n      mload(0x40)\n      tag_19\n      swap2\n      swap1\n      tag_10\n      jump\t// in\n    tag_19:\n      mload(0x40)\n      dup1\n      swap2\n      sub\n      swap1\n      return\n        /* \"study/chapter03/abi.sol\":749:954  function callFunc()public returns(bool,bytes memory,uint) {... */\n    tag_6:\n      tag_20\n      tag_21\n      jump\t// in\n    tag_20:\n      mload(0x40)\n      tag_22\n      swap4\n      swap3\n      swap2\n      swap1\n      tag_23\n      jump\t// in\n    tag_22:\n      mload(0x40)\n      dup1\n      swap2\n      sub\n      swap1\n      return\n        /* \"study/chapter03/abi.sol\":423:436  uint public a */\n    tag_8:\n      sload(0x00)\n      dup2\n      jump\t// out\n        /* \"study/chapter03/abi.sol\":665:742  bytes public encodedABI = abi.encodeWithSignature(\"add(uint256,uint256)\",5,1) */\n    tag_12:\n      0x01\n      dup1\n      sload\n      tag_24\n      swap1\n      tag_25\n      jump\t// in\n    tag_24:\n      dup1\n      0x1f\n      add\n      0x20\n      dup1\n      swap2\n      div\n      mul\n      0x20\n      add\n      mload(0x40)\n      swap1\n      dup2\n      add\n      0x40\n      mstore\n      dup1\n      swap3\n      swap2\n      swap1\n      dup2\n      dup2\n      mstore\n      0x20\n      add\n      dup3\n      dup1\n      sload\n      tag_26\n      swap1\n      tag_25\n      jump\t// in\n    tag_26:\n      dup1\n      iszero\n      tag_27\n      jumpi\n      dup1\n      0x1f\n      lt\n      tag_28\n      jumpi\n      0x0100\n      dup1\n      dup4\n      sload\n      div\n      mul\n      dup4\n      mstore\n      swap2\n      0x20\n      add\n      swap2\n      jump(tag_27)\n    tag_28:\n      dup3\n      add\n      swap2\n      swap1\n      0x00\n      mstore\n      keccak256(0x00, 0x20)\n      swap1\n    tag_29:\n      dup2\n      sload\n      dup2\n      mstore\n      swap1\n      0x01\n      add\n      swap1\n      0x20\n      add\n      dup1\n      dup4\n      gt\n      tag_29\n      jumpi\n      dup3\n      swap1\n      sub\n      0x1f\n      and\n      dup3\n      add\n      swap2\n    tag_27:\n      pop\n      pop\n      pop\n      pop\n      pop\n      dup2\n      jump\t// out\n        /* \"study/chapter03/abi.sol\":443:535  function add(uint b,uint c) public returns (uint) {... */\n    tag_18:\n        /* \"study/chapter03/abi.sol\":487:491  uint */\n      0x00\n        /* \"study/chapter03/abi.sol\":509:510  c */\n      dup2\n        /* \"study/chapter03/abi.sol\":507:508  b */\n      dup4\n        /* \"study/chapter03/abi.sol\":505:506  a */\n      sload(0x00)\n        /* \"study/chapter03/abi.sol\":505:508  a+b */\n      tag_31\n      swap2\n      swap1\n      tag_32\n      jump\t// in\n    tag_31:\n        /* \"study/chapter03/abi.sol\":505:510  a+b+c */\n      tag_33\n      swap2\n      swap1\n      tag_32\n      jump\t// in\n    tag_33:\n        /* \"study/chapter03/abi.sol\":503:504  a */\n      0x00\n        /* \"study/chapter03/abi.sol\":503:510  a=a+b+c */\n      dup2\n      swap1\n      sstore\n      pop\n        /* \"study/chapter03/abi.sol\":527:528  a */\n      sload(0x00)\n        /* \"study/chapter03/abi.sol\":520:528  return a */\n      swap1\n      pop\n        /* \"study/chapter03/abi.sol\":443:535  function add(uint b,uint c) public returns (uint) {... */\n      swap3\n      swap2\n      pop\n      pop\n      jump\t// out\n        /* \"study/chapter03/abi.sol\":749:954  function callFunc()public returns(bool,bytes memory,uint) {... */\n    tag_21:\n        /* \"study/chapter03/abi.sol\":783:787  bool */\n      0x00\n        /* \"study/chapter03/abi.sol\":788:800  bytes memory */\n      0x60\n        /* \"study/chapter03/abi.sol\":801:805  uint */\n      0x00\n        /* \"study/chapter03/abi.sol\":817:826  bool flag */\n      dup1\n        /* \"study/chapter03/abi.sol\":827:832  false */\n      0x00\n        /* \"study/chapter03/abi.sol\":817:832  bool flag=false */\n      swap1\n      pop\n        /* \"study/chapter03/abi.sol\":842:861  bytes memory result */\n      0x60\n        /* \"study/chapter03/abi.sol\":894:898  this */\n      address\n        /* \"study/chapter03/abi.sol\":886:904  address(this).call */\n      0xffffffffffffffffffffffffffffffffffffffff\n      and\n        /* \"study/chapter03/abi.sol\":905:915  encodedABI */\n      0x01\n        /* \"study/chapter03/abi.sol\":886:916  address(this).call(encodedABI) */\n      mload(0x40)\n      tag_35\n      swap2\n      swap1\n      tag_36\n      jump\t// in\n    tag_35:\n      0x00\n      mload(0x40)\n      dup1\n      dup4\n      sub\n      dup2\n      0x00\n      dup7\n      gas\n      call\n      swap2\n      pop\n      pop\n      returndatasize\n      dup1\n      0x00\n      dup2\n      eq\n      tag_39\n      jumpi\n      mload(0x40)\n      swap2\n      pop\n      and(add(returndatasize, 0x3f), not(0x1f))\n      dup3\n      add\n      0x40\n      mstore\n      returndatasize\n      dup3\n      mstore\n      returndatasize\n      0x00\n      0x20\n      dup5\n      add\n      returndatacopy\n      jump(tag_38)\n    tag_39:\n      0x60\n      swap2\n      pop\n    tag_38:\n      pop\n        /* \"study/chapter03/abi.sol\":870:916  (flag,result) = address(this).call(encodedABI) */\n      dup1\n      swap3\n      pop\n      dup2\n      swap4\n      pop\n      pop\n      pop\n        /* \"study/chapter03/abi.sol\":933:937  flag */\n      dup2\n        /* \"study/chapter03/abi.sol\":938:944  result */\n      dup2\n        /* \"study/chapter03/abi.sol\":945:946  a */\n      sload(0x00)\n        /* \"study/chapter03/abi.sol\":925:947  return (flag,result,a) */\n      swap5\n      pop\n      swap5\n      pop\n      swap5\n      pop\n      pop\n      pop\n        /* \"study/chapter03/abi.sol\":749:954  function callFunc()public returns(bool,bytes memory,uint) {... */\n      swap1\n      swap2\n      swap3\n      jump\t// out\n        /* \"#utility.yul\":7:146   */\n    tag_41:\n        /* \"#utility.yul\":53:58   */\n      0x00\n        /* \"#utility.yul\":91:97   */\n      dup2\n        /* \"#utility.yul\":78:98   */\n      calldataload\n        /* \"#utility.yul\":69:98   */\n      swap1\n      pop\n        /* \"#utility.yul\":107:140   */\n      tag_43\n        /* \"#utility.yul\":134:139   */\n      dup2\n        /* \"#utility.yul\":107:140   */\n      tag_44\n      jump\t// in\n    tag_43:\n        /* \"#utility.yul\":59:146   */\n      swap3\n      swap2\n      pop\n      pop\n      jump\t// out\n        /* \"#utility.yul\":152:626   */\n    tag_17:\n        /* \"#utility.yul\":220:226   */\n      0x00\n        /* \"#utility.yul\":228:234   */\n      dup1\n        /* \"#utility.yul\":277:279   */\n      0x40\n        /* \"#utility.yul\":265:274   */\n      dup4\n        /* \"#utility.yul\":256:263   */\n      dup6\n        /* \"#utility.yul\":252:275   */\n      sub\n        /* \"#utility.yul\":248:280   */\n      slt\n        /* \"#utility.yul\":245:247   */\n      iszero\n      tag_46\n      jumpi\n        /* \"#utility.yul\":283:362   */\n      tag_47\n      tag_48\n      jump\t// in\n    tag_47:\n        /* \"#utility.yul\":245:247   */\n    tag_46:\n        /* \"#utility.yul\":403:404   */\n      0x00\n        /* \"#utility.yul\":428:481   */\n      tag_49\n        /* \"#utility.yul\":473:480   */\n      dup6\n        /* \"#utility.yul\":464:470   */\n      dup3\n        /* \"#utility.yul\":453:462   */\n      dup7\n        /* \"#utility.yul\":449:471   */\n      add\n        /* \"#utility.yul\":428:481   */\n      tag_41\n      jump\t// in\n    tag_49:\n        /* \"#utility.yul\":418:481   */\n      swap3\n      pop\n        /* \"#utility.yul\":374:491   */\n      pop\n        /* \"#utility.yul\":530:532   */\n      0x20\n        /* \"#utility.yul\":556:609   */\n      tag_50\n        /* \"#utility.yul\":601:608   */\n      dup6\n        /* \"#utility.yul\":592:598   */\n      dup3\n        /* \"#utility.yul\":581:590   */\n      dup7\n        /* \"#utility.yul\":577:599   */\n      add\n        /* \"#utility.yul\":556:609   */\n      tag_41\n      jump\t// in\n    tag_50:\n        /* \"#utility.yul\":546:609   */\n      swap2\n      pop\n        /* \"#utility.yul\":501:619   */\n      pop\n        /* \"#utility.yul\":235:626   */\n      swap3\n      pop\n      swap3\n      swap1\n      pop\n      jump\t// out\n        /* \"#utility.yul\":632:741   */\n    tag_51:\n        /* \"#utility.yul\":713:734   */\n      tag_53\n        /* \"#utility.yul\":728:733   */\n      dup2\n        /* \"#utility.yul\":713:734   */\n      tag_54\n      jump\t// in\n    tag_53:\n        /* \"#utility.yul\":708:711   */\n      dup3\n        /* \"#utility.yul\":701:735   */\n      mstore\n        /* \"#utility.yul\":691:741   */\n      pop\n      pop\n      jump\t// out\n        /* \"#utility.yul\":747:1107   */\n    tag_55:\n        /* \"#utility.yul\":833:836   */\n      0x00\n        /* \"#utility.yul\":861:899   */\n      tag_57\n        /* \"#utility.yul\":893:898   */\n      dup3\n        /* \"#utility.yul\":861:899   */\n      tag_58\n      jump\t// in\n    tag_57:\n        /* \"#utility.yul\":915:985   */\n      tag_59\n        /* \"#utility.yul\":978:984   */\n      dup2\n        /* \"#utility.yul\":973:976   */\n      dup6\n        /* \"#utility.yul\":915:985   */\n      tag_60\n      jump\t// in\n    tag_59:\n        /* \"#utility.yul\":908:985   */\n      swap4\n      pop\n        /* \"#utility.yul\":994:1046   */\n      tag_61\n        /* \"#utility.yul\":1039:1045   */\n      dup2\n        /* \"#utility.yul\":1034:1037   */\n      dup6\n        /* \"#utility.yul\":1027:1031   */\n      0x20\n        /* \"#utility.yul\":1020:1025   */\n      dup7\n        /* \"#utility.yul\":1016:1032   */\n      add\n        /* \"#utility.yul\":994:1046   */\n      tag_62\n      jump\t// in\n    tag_61:\n        /* \"#utility.yul\":1071:1100   */\n      tag_63\n        /* \"#utility.yul\":1093:1099   */\n      dup2\n        /* \"#utility.yul\":1071:1100   */\n      tag_64\n      jump\t// in\n    tag_63:\n        /* \"#utility.yul\":1066:1069   */\n      dup5\n        /* \"#utility.yul\":1062:1101   */\n      add\n        /* \"#utility.yul\":1055:1101   */\n      swap2\n      pop\n        /* \"#utility.yul\":837:1107   */\n      pop\n      swap3\n      swap2\n      pop\n      pop\n      jump\t// out\n        /* \"#utility.yul\":1135:1976   */\n    tag_65:\n        /* \"#utility.yul\":1236:1239   */\n      0x00\n        /* \"#utility.yul\":1273:1278   */\n      dup2\n        /* \"#utility.yul\":1267:1279   */\n      sload\n        /* \"#utility.yul\":1302:1338   */\n      tag_67\n        /* \"#utility.yul\":1328:1337   */\n      dup2\n        /* \"#utility.yul\":1302:1338   */\n      tag_25\n      jump\t// in\n    tag_67:\n        /* \"#utility.yul\":1354:1442   */\n      tag_68\n        /* \"#utility.yul\":1435:1441   */\n      dup2\n        /* \"#utility.yul\":1430:1433   */\n      dup7\n        /* \"#utility.yul\":1354:1442   */\n      tag_69\n      jump\t// in\n    tag_68:\n        /* \"#utility.yul\":1347:1442   */\n      swap5\n      pop\n        /* \"#utility.yul\":1473:1474   */\n      0x01\n        /* \"#utility.yul\":1462:1471   */\n      dup3\n        /* \"#utility.yul\":1458:1475   */\n      and\n        /* \"#utility.yul\":1489:1490   */\n      0x00\n        /* \"#utility.yul\":1484:1621   */\n      dup2\n      eq\n      tag_71\n      jumpi\n        /* \"#utility.yul\":1635:1636   */\n      0x01\n        /* \"#utility.yul\":1630:1970   */\n      dup2\n      eq\n      tag_72\n      jumpi\n        /* \"#utility.yul\":1451:1970   */\n      jump(tag_70)\n        /* \"#utility.yul\":1484:1621   */\n    tag_71:\n        /* \"#utility.yul\":1568:1572   */\n      0xff\n        /* \"#utility.yul\":1564:1573   */\n      not\n        /* \"#utility.yul\":1553:1562   */\n      dup4\n        /* \"#utility.yul\":1549:1574   */\n      and\n        /* \"#utility.yul\":1544:1547   */\n      dup7\n        /* \"#utility.yul\":1537:1575   */\n      mstore\n        /* \"#utility.yul\":1604:1610   */\n      dup2\n        /* \"#utility.yul\":1599:1602   */\n      dup7\n        /* \"#utility.yul\":1595:1611   */\n      add\n        /* \"#utility.yul\":1588:1611   */\n      swap4\n      pop\n        /* \"#utility.yul\":1484:1621   */\n      jump(tag_70)\n        /* \"#utility.yul\":1630:1970   */\n    tag_72:\n        /* \"#utility.yul\":1697:1734   */\n      tag_73\n        /* \"#utility.yul\":1728:1733   */\n      dup6\n        /* \"#utility.yul\":1697:1734   */\n      tag_74\n      jump\t// in\n    tag_73:\n        /* \"#utility.yul\":1756:1757   */\n      0x00\n        /* \"#utility.yul\":1770:1924   */\n    tag_75:\n        /* \"#utility.yul\":1784:1790   */\n      dup4\n        /* \"#utility.yul\":1781:1782   */\n      dup2\n        /* \"#utility.yul\":1778:1791   */\n      lt\n        /* \"#utility.yul\":1770:1924   */\n      iszero\n      tag_77\n      jumpi\n        /* \"#utility.yul\":1858:1865   */\n      dup2\n        /* \"#utility.yul\":1852:1866   */\n      sload\n        /* \"#utility.yul\":1848:1849   */\n      dup2\n        /* \"#utility.yul\":1843:1846   */\n      dup10\n        /* \"#utility.yul\":1839:1850   */\n      add\n        /* \"#utility.yul\":1832:1867   */\n      mstore\n        /* \"#utility.yul\":1908:1909   */\n      0x01\n        /* \"#utility.yul\":1899:1906   */\n      dup3\n        /* \"#utility.yul\":1895:1910   */\n      add\n        /* \"#utility.yul\":1884:1910   */\n      swap2\n      pop\n        /* \"#utility.yul\":1806:1810   */\n      0x20\n        /* \"#utility.yul\":1803:1804   */\n      dup2\n        /* \"#utility.yul\":1799:1811   */\n      add\n        /* \"#utility.yul\":1794:1811   */\n      swap1\n      pop\n        /* \"#utility.yul\":1770:1924   */\n      jump(tag_75)\n    tag_77:\n        /* \"#utility.yul\":1953:1959   */\n      dup4\n        /* \"#utility.yul\":1948:1951   */\n      dup9\n        /* \"#utility.yul\":1944:1960   */\n      add\n        /* \"#utility.yul\":1937:1960   */\n      swap6\n      pop\n        /* \"#utility.yul\":1637:1970   */\n      pop\n      pop\n        /* \"#utility.yul\":1451:1970   */\n    tag_70:\n      pop\n        /* \"#utility.yul\":1240:1976   */\n      pop\n      pop\n      swap3\n      swap2\n      pop\n      pop\n      jump\t// out\n        /* \"#utility.yul\":1982:2100   */\n    tag_78:\n        /* \"#utility.yul\":2069:2093   */\n      tag_80\n        /* \"#utility.yul\":2087:2092   */\n      dup2\n        /* \"#utility.yul\":2069:2093   */\n      tag_81\n      jump\t// in\n    tag_80:\n        /* \"#utility.yul\":2064:2067   */\n      dup3\n        /* \"#utility.yul\":2057:2094   */\n      mstore\n        /* \"#utility.yul\":2047:2100   */\n      pop\n      pop\n      jump\t// out\n        /* \"#utility.yul\":2106:2371   */\n    tag_36:\n        /* \"#utility.yul\":2233:2236   */\n      0x00\n        /* \"#utility.yul\":2255:2345   */\n      tag_83\n        /* \"#utility.yul\":2341:2344   */\n      dup3\n        /* \"#utility.yul\":2332:2338   */\n      dup5\n        /* \"#utility.yul\":2255:2345   */\n      tag_65\n      jump\t// in\n    tag_83:\n        /* \"#utility.yul\":2248:2345   */\n      swap2\n      pop\n        /* \"#utility.yul\":2362:2365   */\n      dup2\n        /* \"#utility.yul\":2355:2365   */\n      swap1\n      pop\n        /* \"#utility.yul\":2237:2371   */\n      swap3\n      swap2\n      pop\n      pop\n      jump\t// out\n        /* \"#utility.yul\":2377:2894   */\n    tag_23:\n        /* \"#utility.yul\":2538:2542   */\n      0x00\n        /* \"#utility.yul\":2576:2578   */\n      0x60\n        /* \"#utility.yul\":2565:2574   */\n      dup3\n        /* \"#utility.yul\":2561:2579   */\n      add\n        /* \"#utility.yul\":2553:2579   */\n      swap1\n      pop\n        /* \"#utility.yul\":2589:2654   */\n      tag_85\n        /* \"#utility.yul\":2651:2652   */\n      0x00\n        /* \"#utility.yul\":2640:2649   */\n      dup4\n        /* \"#utility.yul\":2636:2653   */\n      add\n        /* \"#utility.yul\":2627:2633   */\n      dup7\n        /* \"#utility.yul\":2589:2654   */\n      tag_51\n      jump\t// in\n    tag_85:\n        /* \"#utility.yul\":2701:2710   */\n      dup2\n        /* \"#utility.yul\":2695:2699   */\n      dup2\n        /* \"#utility.yul\":2691:2711   */\n      sub\n        /* \"#utility.yul\":2686:2688   */\n      0x20\n        /* \"#utility.yul\":2675:2684   */\n      dup4\n        /* \"#utility.yul\":2671:2689   */\n      add\n        /* \"#utility.yul\":2664:2712   */\n      mstore\n        /* \"#utility.yul\":2729:2805   */\n      tag_86\n        /* \"#utility.yul\":2800:2804   */\n      dup2\n        /* \"#utility.yul\":2791:2797   */\n      dup6\n        /* \"#utility.yul\":2729:2805   */\n      tag_55\n      jump\t// in\n    tag_86:\n        /* \"#utility.yul\":2721:2805   */\n      swap1\n      pop\n        /* \"#utility.yul\":2815:2887   */\n      tag_87\n        /* \"#utility.yul\":2883:2885   */\n      0x40\n        /* \"#utility.yul\":2872:2881   */\n      dup4\n        /* \"#utility.yul\":2868:2886   */\n      add\n        /* \"#utility.yul\":2859:2865   */\n      dup5\n        /* \"#utility.yul\":2815:2887   */\n      tag_78\n      jump\t// in\n    tag_87:\n        /* \"#utility.yul\":2543:2894   */\n      swap5\n      swap4\n      pop\n      pop\n      pop\n      pop\n      jump\t// out\n        /* \"#utility.yul\":2900:3209   */\n    tag_14:\n        /* \"#utility.yul\":3011:3015   */\n      0x00\n        /* \"#utility.yul\":3049:3051   */\n      0x20\n        /* \"#utility.yul\":3038:3047   */\n      dup3\n        /* \"#utility.yul\":3034:3052   */\n      add\n        /* \"#utility.yul\":3026:3052   */\n      swap1\n      pop\n        /* \"#utility.yul\":3098:3107   */\n      dup2\n        /* \"#utility.yul\":3092:3096   */\n      dup2\n        /* \"#utility.yul\":3088:3108   */\n      sub\n        /* \"#utility.yul\":3084:3085   */\n      0x00\n        /* \"#utility.yul\":3073:3082   */\n      dup4\n        /* \"#utility.yul\":3069:3086   */\n      add\n        /* \"#utility.yul\":3062:3109   */\n      mstore\n        /* \"#utility.yul\":3126:3202   */\n      tag_89\n        /* \"#utility.yul\":3197:3201   */\n      dup2\n        /* \"#utility.yul\":3188:3194   */\n      dup5\n        /* \"#utility.yul\":3126:3202   */\n      tag_55\n      jump\t// in\n    tag_89:\n        /* \"#utility.yul\":3118:3202   */\n      swap1\n      pop\n        /* \"#utility.yul\":3016:3209   */\n      swap3\n      swap2\n      pop\n      pop\n      jump\t// out\n        /* \"#utility.yul\":3215:3437   */\n    tag_10:\n        /* \"#utility.yul\":3308:3312   */\n      0x00\n        /* \"#utility.yul\":3346:3348   */\n      0x20\n        /* \"#utility.yul\":3335:3344   */\n      dup3\n        /* \"#utility.yul\":3331:3349   */\n      add\n        /* \"#utility.yul\":3323:3349   */\n      swap1\n      pop\n        /* \"#utility.yul\":3359:3430   */\n      tag_91\n        /* \"#utility.yul\":3427:3428   */\n      0x00\n        /* \"#utility.yul\":3416:3425   */\n      dup4\n        /* \"#utility.yul\":3412:3429   */\n      add\n        /* \"#utility.yul\":3403:3409   */\n      dup5\n        /* \"#utility.yul\":3359:3430   */\n      tag_78\n      jump\t// in\n    tag_91:\n        /* \"#utility.yul\":3313:3437   */\n      swap3\n      swap2\n      pop\n      pop\n      jump\t// out\n        /* \"#utility.yul\":3524:3664   */\n    tag_74:\n        /* \"#utility.yul\":3572:3576   */\n      0x00\n        /* \"#utility.yul\":3595:3598   */\n      dup2\n        /* \"#utility.yul\":3587:3598   */\n      swap1\n      pop\n        /* \"#utility.yul\":3618:3621   */\n      dup2\n        /* \"#utility.yul\":3615:3616   */\n      0x00\n        /* \"#utility.yul\":3608:3622   */\n      mstore\n        /* \"#utility.yul\":3652:3656   */\n      0x20\n        /* \"#utility.yul\":3649:3650   */\n      0x00\n        /* \"#utility.yul\":3639:3657   */\n      keccak256\n        /* \"#utility.yul\":3631:3657   */\n      swap1\n      pop\n        /* \"#utility.yul\":3577:3664   */\n      swap2\n      swap1\n      pop\n      jump\t// out\n        /* \"#utility.yul\":3670:3768   */\n    tag_58:\n        /* \"#utility.yul\":3721:3727   */\n      0x00\n        /* \"#utility.yul\":3755:3760   */\n      dup2\n        /* \"#utility.yul\":3749:3761   */\n      mload\n        /* \"#utility.yul\":3739:3761   */\n      swap1\n      pop\n        /* \"#utility.yul\":3728:3768   */\n      swap2\n      swap1\n      pop\n      jump\t// out\n        /* \"#utility.yul\":3774:3942   */\n    tag_60:\n        /* \"#utility.yul\":3857:3868   */\n      0x00\n        /* \"#utility.yul\":3891:3897   */\n      dup3\n        /* \"#utility.yul\":3886:3889   */\n      dup3\n        /* \"#utility.yul\":3879:3898   */\n      mstore\n        /* \"#utility.yul\":3931:3935   */\n      0x20\n        /* \"#utility.yul\":3926:3929   */\n      dup3\n        /* \"#utility.yul\":3922:3936   */\n      add\n        /* \"#utility.yul\":3907:3936   */\n      swap1\n      pop\n        /* \"#utility.yul\":3869:3942   */\n      swap3\n      swap2\n      pop\n      pop\n      jump\t// out\n        /* \"#utility.yul\":3948:4095   */\n    tag_69:\n        /* \"#utility.yul\":4049:4060   */\n      0x00\n        /* \"#utility.yul\":4086:4089   */\n      dup2\n        /* \"#utility.yul\":4071:4089   */\n      swap1\n      pop\n        /* \"#utility.yul\":4061:4095   */\n      swap3\n      swap2\n      pop\n      pop\n      jump\t// out\n        /* \"#utility.yul\":4101:4406   */\n    tag_32:\n        /* \"#utility.yul\":4141:4144   */\n      0x00\n        /* \"#utility.yul\":4160:4180   */\n      tag_99\n        /* \"#utility.yul\":4178:4179   */\n      dup3\n        /* \"#utility.yul\":4160:4180   */\n      tag_81\n      jump\t// in\n    tag_99:\n        /* \"#utility.yul\":4155:4180   */\n      swap2\n      pop\n        /* \"#utility.yul\":4194:4214   */\n      tag_100\n        /* \"#utility.yul\":4212:4213   */\n      dup4\n        /* \"#utility.yul\":4194:4214   */\n      tag_81\n      jump\t// in\n    tag_100:\n        /* \"#utility.yul\":4189:4214   */\n      swap3\n      pop\n        /* \"#utility.yul\":4348:4349   */\n      dup3\n        /* \"#utility.yul\":4280:4346   */\n      0xffffffffffffffffffffffffffffffffffffffffffffffffffffffffffffffff\n        /* \"#utility.yul\":4276:4350   */\n      sub\n        /* \"#utility.yul\":4273:4274   */\n      dup3\n        /* \"#utility.yul\":4270:4351   */\n      gt\n        /* \"#utility.yul\":4267:4269   */\n      iszero\n      tag_101\n      jumpi\n        /* \"#utility.yul\":4354:4372   */\n      tag_102\n      tag_103\n      jump\t// in\n    tag_102:\n        /* \"#utility.yul\":4267:4269   */\n    tag_101:\n        /* \"#utility.yul\":4398:4399   */\n      dup3\n        /* \"#utility.yul\":4395:4396   */\n      dup3\n        /* \"#utility.yul\":4391:4400   */\n      add\n        /* \"#utility.yul\":4384:4400   */\n      swap1\n      pop\n        /* \"#utility.yul\":4145:4406   */\n      swap3\n      swap2\n      pop\n      pop\n      jump\t// out\n        /* \"#utility.yul\":4412:4502   */\n    tag_54:\n        /* \"#utility.yul\":4446:4453   */\n      0x00\n        /* \"#utility.yul\":4489:4494   */\n      dup2\n        /* \"#utility.yul\":4482:4495   */\n      iszero\n        /* \"#utility.yul\":4475:4496   */\n      iszero\n        /* \"#utility.yul\":4464:4496   */\n      swap1\n      pop\n        /* \"#utility.yul\":4454:4502   */\n      swap2\n      swap1\n      pop\n      jump\t// out\n        /* \"#utility.yul\":4508:4585   */\n    tag_81:\n        /* \"#utility.yul\":4545:4552   */\n      0x00\n        /* \"#utility.yul\":4574:4579   */\n      dup2\n        /* \"#utility.yul\":4563:4579   */\n      swap1\n      pop\n        /* \"#utility.yul\":4553:4585   */\n      swap2\n      swap1\n      pop\n      jump\t// out\n        /* \"#utility.yul\":4591:4898   */\n    tag_62:\n        /* \"#utility.yul\":4659:4660   */\n      0x00\n        /* \"#utility.yul\":4669:4782   */\n    tag_107:\n        /* \"#utility.yul\":4683:4689   */\n      dup4\n        /* \"#utility.yul\":4680:4681   */\n      dup2\n        /* \"#utility.yul\":4677:4690   */\n      lt\n        /* \"#utility.yul\":4669:4782   */\n      iszero\n      tag_109\n      jumpi\n        /* \"#utility.yul\":4768:4769   */\n      dup1\n        /* \"#utility.yul\":4763:4766   */\n      dup3\n        /* \"#utility.yul\":4759:4770   */\n      add\n        /* \"#utility.yul\":4753:4771   */\n      mload\n        /* \"#utility.yul\":4749:4750   */\n      dup2\n        /* \"#utility.yul\":4744:4747   */\n      dup5\n        /* \"#utility.yul\":4740:4751   */\n      add\n        /* \"#utility.yul\":4733:4772   */\n      mstore\n        /* \"#utility.yul\":4705:4707   */\n      0x20\n        /* \"#utility.yul\":4702:4703   */\n      dup2\n        /* \"#utility.yul\":4698:4708   */\n      add\n        /* \"#utility.yul\":4693:4708   */\n      swap1\n      pop\n        /* \"#utility.yul\":4669:4782   */\n      jump(tag_107)\n    tag_109:\n        /* \"#utility.yul\":4800:4806   */\n      dup4\n        /* \"#utility.yul\":4797:4798   */\n      dup2\n        /* \"#utility.yul\":4794:4807   */\n      gt\n        /* \"#utility.yul\":4791:4793   */\n      iszero\n      tag_110\n      jumpi\n        /* \"#utility.yul\":4880:4881   */\n      0x00\n        /* \"#utility.yul\":4871:4877   */\n      dup5\n        /* \"#utility.yul\":4866:4869   */\n      dup5\n        /* \"#utility.yul\":4862:4878   */\n      add\n        /* \"#utility.yul\":4855:4882   */\n      mstore\n        /* \"#utility.yul\":4791:4793   */\n    tag_110:\n        /* \"#utility.yul\":4640:4898   */\n      pop\n      pop\n      pop\n      pop\n      jump\t// out\n        /* \"#utility.yul\":4904:5224   */\n    tag_25:\n        /* \"#utility.yul\":4948:4954   */\n      0x00\n        /* \"#utility.yul\":4985:4986   */\n      0x02\n        /* \"#utility.yul\":4979:4983   */\n      dup3\n        /* \"#utility.yul\":4975:4987   */\n      div\n        /* \"#utility.yul\":4965:4987   */\n      swap1\n      pop\n        /* \"#utility.yul\":5032:5033   */\n      0x01\n        /* \"#utility.yul\":5026:5030   */\n      dup3\n        /* \"#utility.yul\":5022:5034   */\n      and\n        /* \"#utility.yul\":5053:5071   */\n      dup1\n        /* \"#utility.yul\":5043:5045   */\n      tag_112\n      jumpi\n        /* \"#utility.yul\":5109:5113   */\n      0x7f\n        /* \"#utility.yul\":5101:5107   */\n      dup3\n        /* \"#utility.yul\":5097:5114   */\n      and\n        /* \"#utility.yul\":5087:5114   */\n      swap2\n      pop\n        /* \"#utility.yul\":5043:5045   */\n    tag_112:\n        /* \"#utility.yul\":5171:5173   */\n      0x20\n        /* \"#utility.yul\":5163:5169   */\n      dup3\n        /* \"#utility.yul\":5160:5174   */\n      lt\n        /* \"#utility.yul\":5140:5158   */\n      dup2\n        /* \"#utility.yul\":5137:5175   */\n      eq\n        /* \"#utility.yul\":5134:5136   */\n      iszero\n      tag_113\n      jumpi\n        /* \"#utility.yul\":5190:5208   */\n      tag_114\n      tag_115\n      jump\t// in\n    tag_114:\n        /* \"#utility.yul\":5134:5136   */\n    tag_113:\n        /* \"#utility.yul\":4955:5224   */\n      pop\n      swap2\n      swap1\n      pop\n      jump\t// out\n        /* \"#utility.yul\":5230:5410   */\n    tag_103:\n        /* \"#utility.yul\":5278:5355   */\n      0x4e487b7100000000000000000000000000000000000000000000000000000000\n        /* \"#utility.yul\":5275:5276   */\n      0x00\n        /* \"#utility.yul\":5268:5356   */\n      mstore\n        /* \"#utility.yul\":5375:5379   */\n      0x11\n        /* \"#utility.yul\":5372:5373   */\n      0x04\n        /* \"#utility.yul\":5365:5380   */\n      mstore\n        /* \"#utility.yul\":5399:5403   */\n      0x24\n        /* \"#utility.yul\":5396:5397   */\n      0x00\n        /* \"#utility.yul\":5389:5404   */\n      revert\n        /* \"#utility.yul\":5416:5596   */\n    tag_115:\n        /* \"#utility.yul\":5464:5541   */\n      0x4e487b7100000000000000000000000000000000000000000000000000000000\n        /* \"#utility.yul\":5461:5462   */\n      0x00\n        /* \"#utility.yul\":5454:5542   */\n      mstore\n        /* \"#utility.yul\":5561:5565   */\n      0x22\n        /* \"#utility.yul\":5558:5559   */\n      0x04\n        /* \"#utility.yul\":5551:5566   */\n      mstore\n        /* \"#utility.yul\":5585:5589   */\n      0x24\n        /* \"#utility.yul\":5582:5583   */\n      0x00\n        /* \"#utility.yul\":5575:5590   */\n      revert\n        /* \"#utility.yul\":5725:5842   */\n    tag_48:\n        /* \"#utility.yul\":5834:5835   */\n      0x00\n        /* \"#utility.yul\":5831:5832   */\n      dup1\n        /* \"#utility.yul\":5824:5836   */\n      revert\n        /* \"#utility.yul\":5848:5950   */\n    tag_64:\n        /* \"#utility.yul\":5889:5895   */\n      0x00\n        /* \"#utility.yul\":5940:5942   */\n      0x1f\n        /* \"#utility.yul\":5936:5943   */\n      not\n        /* \"#utility.yul\":5931:5933   */\n      0x1f\n        /* \"#utility.yul\":5924:5929   */\n      dup4\n        /* \"#utility.yul\":5920:5934   */\n      add\n        /* \"#utility.yul\":5916:5944   */\n      and\n        /* \"#utility.yul\":5906:5944   */\n      swap1\n      pop\n        /* \"#utility.yul\":5896:5950   */\n      swap2\n      swap1\n      pop\n      jump\t// out\n        /* \"#utility.yul\":5956:6078   */\n    tag_44:\n        /* \"#utility.yul\":6029:6053   */\n      tag_123\n        /* \"#utility.yul\":6047:6052   */\n      dup2\n        /* \"#utility.yul\":6029:6053   */\n      tag_81\n      jump\t// in\n    tag_123:\n        /* \"#utility.yul\":6022:6027   */\n      dup2\n        /* \"#utility.yul\":6019:6054   */\n      eq\n        /* \"#utility.yul\":6009:6011   */\n      tag_124\n      jumpi\n        /* \"#utility.yul\":6068:6069   */\n      0x00\n        /* \"#utility.yul\":6065:6066   */\n      dup1\n        /* \"#utility.yul\":6058:6070   */\n      revert\n        /* \"#utility.yul\":6009:6011   */\n    tag_124:\n        /* \"#utility.yul\":5999:6078   */\n      pop\n      jump\t// out\n\n    auxdata: 0xa26469706673582212200e7ccf2216fd65959e6e9c76783b78b2ebc4fe37f8a2fb30692b83d46df1051464736f6c63430008060033\n}\n",
				"bytecode": {
					"linkReferences": {},
					"object": "60806040526005600160405160240161001992919061017f565b6040516020818303038152906040527f771602f7000000000000000000000000000000000000000000000000000000007bffffffffffffffffffffffffffffffffffffffffffffffffffffffff19166020820180517bffffffffffffffffffffffffffffffffffffffffffffffffffffffff8381831617835250505050600190805190602001906100ab9291906100be565b503480156100b857600080fd5b5061023a565b8280546100ca906101d9565b90600052602060002090601f0160209004810192826100ec5760008555610133565b82601f1061010557805160ff1916838001178555610133565b82800160010185558215610133579182015b82811115610132578251825591602001919060010190610117565b5b5090506101409190610144565b5090565b5b8082111561015d576000816000905550600101610145565b5090565b61016a816101b5565b82525050565b610179816101c7565b82525050565b60006040820190506101946000830185610170565b6101a16020830184610161565b9392505050565b600060ff82169050919050565b60006101c0826101a8565b9050919050565b60006101d2826101a8565b9050919050565b600060028204905060018216806101f157607f821691505b602082108114156102055761020461020b565b5b50919050565b7f4e487b7100000000000000000000000000000000000000000000000000000000600052602260045260246000fd5b6105b8806102496000396000f3fe608060405234801561001057600080fd5b506004361061004c5760003560e01c80630dbe671f146100515780636b28c6581461006f578063771602f71461008d5780639a7846b9146100bd575b600080fd5b6100596100dd565b60405161006691906103cf565b60405180910390f35b6100776100e3565b60405161008491906103ad565b60405180910390f35b6100a760048036038101906100a29190610242565b610171565b6040516100b491906103cf565b60405180910390f35b6100c561019d565b6040516100d49392919061036f565b60405180910390f35b60005481565b600180546100f0906104c5565b80601f016020809104026020016040519081016040528092919081815260200182805461011c906104c5565b80156101695780601f1061013e57610100808354040283529160200191610169565b820191906000526020600020905b81548152906001019060200180831161014c57829003601f168201915b505050505081565b600081836000546101829190610426565b61018c9190610426565b600081905550600054905092915050565b600060606000806000905060603073ffffffffffffffffffffffffffffffffffffffff1660016040516101d09190610358565b6000604051808303816000865af19150503d806000811461020d576040519150601f19603f3d011682016040523d82523d6000602084013e610212565b606091505b50809250819350505081816000549450945094505050909192565b60008135905061023c8161056b565b92915050565b6000806040838503121561025957610258610555565b5b60006102678582860161022d565b92505060206102788582860161022d565b9150509250929050565b61028b8161047c565b82525050565b600061029c826103ff565b6102a6818561040a565b93506102b6818560208601610492565b6102bf8161055a565b840191505092915050565b600081546102d7816104c5565b6102e1818661041b565b945060018216600081146102fc576001811461030d57610340565b60ff19831686528186019350610340565b610316856103ea565b60005b8381101561033857815481890152600182019150602081019050610319565b838801955050505b50505092915050565b61035281610488565b82525050565b600061036482846102ca565b915081905092915050565b60006060820190506103846000830186610282565b81810360208301526103968185610291565b90506103a56040830184610349565b949350505050565b600060208201905081810360008301526103c78184610291565b905092915050565b60006020820190506103e46000830184610349565b92915050565b60008190508160005260206000209050919050565b600081519050919050565b600082825260208201905092915050565b600081905092915050565b600061043182610488565b915061043c83610488565b9250827fffffffffffffffffffffffffffffffffffffffffffffffffffffffffffffffff03821115610471576104706104f7565b5b828201905092915050565b60008115159050919050565b6000819050919050565b60005b838110156104b0578082015181840152602081019050610495565b838111156104bf576000848401525b50505050565b600060028204905060018216806104dd57607f821691505b602082108114156104f1576104f0610526565b5b50919050565b7f4e487b7100000000000000000000000000000000000000000000000000000000600052601160045260246000fd5b7f4e487b7100000000000000000000000000000000000000000000000000000000600052602260045260246000fd5b600080fd5b6000601f19601f8301169050919050565b61057481610488565b811461057f57600080fd5b5056fea26469706673582212200e7ccf2216fd65959e6e9c76783b78b2ebc4fe37f8a2fb30692b83d46df1051464736f6c63430008060033",
					"opcodes": "PUSH1 0x80 PUSH1 0x40 MSTORE PUSH1 0x5 PUSH1 0x1 PUSH1 0x40 MLOAD PUSH1 0x24 ADD PUSH2 0x19 SWAP3 SWAP2 SWAP1 PUSH2 0x17F JUMP JUMPDEST PUSH1 0x40 MLOAD PUSH1 0x20 DUP2 DUP4 SUB SUB DUP2 MSTORE SWAP1 PUSH1 0x40 MSTORE PUSH32 0x771602F700000000000000000000000000000000000000000000000000000000 PUSH28 0xFFFFFFFFFFFFFFFFFFFFFFFFFFFFFFFFFFFFFFFFFFFFFFFFFFFFFFFF NOT AND PUSH1 0x20 DUP3 ADD DUP1 MLOAD PUSH28 0xFFFFFFFFFFFFFFFFFFFFFFFFFFFFFFFFFFFFFFFFFFFFFFFFFFFFFFFF DUP4 DUP2 DUP4 AND OR DUP4 MSTORE POP POP POP POP PUSH1 0x1 SWAP1 DUP1 MLOAD SWAP1 PUSH1 0x20 ADD SWAP1 PUSH2 0xAB SWAP3 SWAP2 SWAP1 PUSH2 0xBE JUMP JUMPDEST POP CALLVALUE DUP1 ISZERO PUSH2 0xB8 JUMPI PUSH1 0x0 DUP1 REVERT JUMPDEST POP PUSH2 0x23A JUMP JUMPDEST DUP3 DUP1 SLOAD PUSH2 0xCA SWAP1 PUSH2 0x1D9 JUMP JUMPDEST SWAP1 PUSH1 0x0 MSTORE PUSH1 0x20 PUSH1 0x0 KECCAK256 SWAP1 PUSH1 0x1F ADD PUSH1 0x20 SWAP1 DIV DUP2 ADD SWAP3 DUP3 PUSH2 0xEC JUMPI PUSH1 0x0 DUP6 SSTORE PUSH2 0x133 JUMP JUMPDEST DUP3 PUSH1 0x1F LT PUSH2 0x105 JUMPI DUP1 MLOAD PUSH1 0xFF NOT AND DUP4 DUP1 ADD OR DUP6 SSTORE PUSH2 0x133 JUMP JUMPDEST DUP3 DUP1 ADD PUSH1 0x1 ADD DUP6 SSTORE DUP3 ISZERO PUSH2 0x133 JUMPI SWAP2 DUP3 ADD JUMPDEST DUP3 DUP2 GT ISZERO PUSH2 0x132 JUMPI DUP3 MLOAD DUP3 SSTORE SWAP2 PUSH1 0x20 ADD SWAP2 SWAP1 PUSH1 0x1 ADD SWAP1 PUSH2 0x117 JUMP JUMPDEST JUMPDEST POP SWAP1 POP PUSH2 0x140 SWAP2 SWAP1 PUSH2 0x144 JUMP JUMPDEST POP SWAP1 JUMP JUMPDEST JUMPDEST DUP1 DUP3 GT ISZERO PUSH2 0x15D JUMPI PUSH1 0x0 DUP2 PUSH1 0x0 SWAP1 SSTORE POP PUSH1 0x1 ADD PUSH2 0x145 JUMP JUMPDEST POP SWAP1 JUMP JUMPDEST PUSH2 0x16A DUP2 PUSH2 0x1B5 JUMP JUMPDEST DUP3 MSTORE POP POP JUMP JUMPDEST PUSH2 0x179 DUP2 PUSH2 0x1C7 JUMP JUMPDEST DUP3 MSTORE POP POP JUMP JUMPDEST PUSH1 0x0 PUSH1 0x40 DUP3 ADD SWAP1 POP PUSH2 0x194 PUSH1 0x0 DUP4 ADD DUP6 PUSH2 0x170 JUMP JUMPDEST PUSH2 0x1A1 PUSH1 0x20 DUP4 ADD DUP5 PUSH2 0x161 JUMP JUMPDEST SWAP4 SWAP3 POP POP POP JUMP JUMPDEST PUSH1 0x0 PUSH1 0xFF DUP3 AND SWAP1 POP SWAP2 SWAP1 POP JUMP JUMPDEST PUSH1 0x0 PUSH2 0x1C0 DUP3 PUSH2 0x1A8 JUMP JUMPDEST SWAP1 POP SWAP2 SWAP1 POP JUMP JUMPDEST PUSH1 0x0 PUSH2 0x1D2 DUP3 PUSH2 0x1A8 JUMP JUMPDEST SWAP1 POP SWAP2 SWAP1 POP JUMP JUMPDEST PUSH1 0x0 PUSH1 0x2 DUP3 DIV SWAP1 POP PUSH1 0x1 DUP3 AND DUP1 PUSH2 0x1F1 JUMPI PUSH1 0x7F DUP3 AND SWAP2 POP JUMPDEST PUSH1 0x20 DUP3 LT DUP2 EQ ISZERO PUSH2 0x205 JUMPI PUSH2 0x204 PUSH2 0x20B JUMP JUMPDEST JUMPDEST POP SWAP2 SWAP1 POP JUMP JUMPDEST PUSH32 0x4E487B7100000000000000000000000000000000000000000000000000000000 PUSH1 0x0 MSTORE PUSH1 0x22 PUSH1 0x4 MSTORE PUSH1 0x24 PUSH1 0x0 REVERT JUMPDEST PUSH2 0x5B8 DUP1 PUSH2 0x249 PUSH1 0x0 CODECOPY PUSH1 0x0 RETURN INVALID PUSH1 0x80 PUSH1 0x40 MSTORE CALLVALUE DUP1 ISZERO PUSH2 0x10 JUMPI PUSH1 0x0 DUP1 REVERT JUMPDEST POP PUSH1 0x4 CALLDATASIZE LT PUSH2 0x4C JUMPI PUSH1 0x0 CALLDATALOAD PUSH1 0xE0 SHR DUP1 PUSH4 0xDBE671F EQ PUSH2 0x51 JUMPI DUP1 PUSH4 0x6B28C658 EQ PUSH2 0x6F JUMPI DUP1 PUSH4 0x771602F7 EQ PUSH2 0x8D JUMPI DUP1 PUSH4 0x9A7846B9 EQ PUSH2 0xBD JUMPI JUMPDEST PUSH1 0x0 DUP1 REVERT JUMPDEST PUSH2 0x59 PUSH2 0xDD JUMP JUMPDEST PUSH1 0x40 MLOAD PUSH2 0x66 SWAP2 SWAP1 PUSH2 0x3CF JUMP JUMPDEST PUSH1 0x40 MLOAD DUP1 SWAP2 SUB SWAP1 RETURN JUMPDEST PUSH2 0x77 PUSH2 0xE3 JUMP JUMPDEST PUSH1 0x40 MLOAD PUSH2 0x84 SWAP2 SWAP1 PUSH2 0x3AD JUMP JUMPDEST PUSH1 0x40 MLOAD DUP1 SWAP2 SUB SWAP1 RETURN JUMPDEST PUSH2 0xA7 PUSH1 0x4 DUP1 CALLDATASIZE SUB DUP2 ADD SWAP1 PUSH2 0xA2 SWAP2 SWAP1 PUSH2 0x242 JUMP JUMPDEST PUSH2 0x171 JUMP JUMPDEST PUSH1 0x40 MLOAD PUSH2 0xB4 SWAP2 SWAP1 PUSH2 0x3CF JUMP JUMPDEST PUSH1 0x40 MLOAD DUP1 SWAP2 SUB SWAP1 RETURN JUMPDEST PUSH2 0xC5 PUSH2 0x19D JUMP JUMPDEST PUSH1 0x40 MLOAD PUSH2 0xD4 SWAP4 SWAP3 SWAP2 SWAP1 PUSH2 0x36F JUMP JUMPDEST PUSH1 0x40 MLOAD DUP1 SWAP2 SUB SWAP1 RETURN JUMPDEST PUSH1 0x0 SLOAD DUP2 JUMP JUMPDEST PUSH1 0x1 DUP1 SLOAD PUSH2 0xF0 SWAP1 PUSH2 0x4C5 JUMP JUMPDEST DUP1 PUSH1 0x1F ADD PUSH1 0x20 DUP1 SWAP2 DIV MUL PUSH1 0x20 ADD PUSH1 0x40 MLOAD SWAP1 DUP2 ADD PUSH1 0x40 MSTORE DUP1 SWAP3 SWAP2 SWAP1 DUP2 DUP2 MSTORE PUSH1 0x20 ADD DUP3 DUP1 SLOAD PUSH2 0x11C SWAP1 PUSH2 0x4C5 JUMP JUMPDEST DUP1 ISZERO PUSH2 0x169 JUMPI DUP1 PUSH1 0x1F LT PUSH2 0x13E JUMPI PUSH2 0x100 DUP1 DUP4 SLOAD DIV MUL DUP4 MSTORE SWAP2 PUSH1 0x20 ADD SWAP2 PUSH2 0x169 JUMP JUMPDEST DUP3 ADD SWAP2 SWAP1 PUSH1 0x0 MSTORE PUSH1 0x20 PUSH1 0x0 KECCAK256 SWAP1 JUMPDEST DUP2 SLOAD DUP2 MSTORE SWAP1 PUSH1 0x1 ADD SWAP1 PUSH1 0x20 ADD DUP1 DUP4 GT PUSH2 0x14C JUMPI DUP3 SWAP1 SUB PUSH1 0x1F AND DUP3 ADD SWAP2 JUMPDEST POP POP POP POP POP DUP2 JUMP JUMPDEST PUSH1 0x0 DUP2 DUP4 PUSH1 0x0 SLOAD PUSH2 0x182 SWAP2 SWAP1 PUSH2 0x426 JUMP JUMPDEST PUSH2 0x18C SWAP2 SWAP1 PUSH2 0x426 JUMP JUMPDEST PUSH1 0x0 DUP2 SWAP1 SSTORE POP PUSH1 0x0 SLOAD SWAP1 POP SWAP3 SWAP2 POP POP JUMP JUMPDEST PUSH1 0x0 PUSH1 0x60 PUSH1 0x0 DUP1 PUSH1 0x0 SWAP1 POP PUSH1 0x60 ADDRESS PUSH20 0xFFFFFFFFFFFFFFFFFFFFFFFFFFFFFFFFFFFFFFFF AND PUSH1 0x1 PUSH1 0x40 MLOAD PUSH2 0x1D0 SWAP2 SWAP1 PUSH2 0x358 JUMP JUMPDEST PUSH1 0x0 PUSH1 0x40 MLOAD DUP1 DUP4 SUB DUP2 PUSH1 0x0 DUP7 GAS CALL SWAP2 POP POP RETURNDATASIZE DUP1 PUSH1 0x0 DUP2 EQ PUSH2 0x20D JUMPI PUSH1 0x40 MLOAD SWAP2 POP PUSH1 0x1F NOT PUSH1 0x3F RETURNDATASIZE ADD AND DUP3 ADD PUSH1 0x40 MSTORE RETURNDATASIZE DUP3 MSTORE RETURNDATASIZE PUSH1 0x0 PUSH1 0x20 DUP5 ADD RETURNDATACOPY PUSH2 0x212 JUMP JUMPDEST PUSH1 0x60 SWAP2 POP JUMPDEST POP DUP1 SWAP3 POP DUP2 SWAP4 POP POP POP DUP2 DUP2 PUSH1 0x0 SLOAD SWAP5 POP SWAP5 POP SWAP5 POP POP POP SWAP1 SWAP2 SWAP3 JUMP JUMPDEST PUSH1 0x0 DUP2 CALLDATALOAD SWAP1 POP PUSH2 0x23C DUP2 PUSH2 0x56B JUMP JUMPDEST SWAP3 SWAP2 POP POP JUMP JUMPDEST PUSH1 0x0 DUP1 PUSH1 0x40 DUP4 DUP6 SUB SLT ISZERO PUSH2 0x259 JUMPI PUSH2 0x258 PUSH2 0x555 JUMP JUMPDEST JUMPDEST PUSH1 0x0 PUSH2 0x267 DUP6 DUP3 DUP7 ADD PUSH2 0x22D JUMP JUMPDEST SWAP3 POP POP PUSH1 0x20 PUSH2 0x278 DUP6 DUP3 DUP7 ADD PUSH2 0x22D JUMP JUMPDEST SWAP2 POP POP SWAP3 POP SWAP3 SWAP1 POP JUMP JUMPDEST PUSH2 0x28B DUP2 PUSH2 0x47C JUMP JUMPDEST DUP3 MSTORE POP POP JUMP JUMPDEST PUSH1 0x0 PUSH2 0x29C DUP3 PUSH2 0x3FF JUMP JUMPDEST PUSH2 0x2A6 DUP2 DUP6 PUSH2 0x40A JUMP JUMPDEST SWAP4 POP PUSH2 0x2B6 DUP2 DUP6 PUSH1 0x20 DUP7 ADD PUSH2 0x492 JUMP JUMPDEST PUSH2 0x2BF DUP2 PUSH2 0x55A JUMP JUMPDEST DUP5 ADD SWAP2 POP POP SWAP3 SWAP2 POP POP JUMP JUMPDEST PUSH1 0x0 DUP2 SLOAD PUSH2 0x2D7 DUP2 PUSH2 0x4C5 JUMP JUMPDEST PUSH2 0x2E1 DUP2 DUP7 PUSH2 0x41B JUMP JUMPDEST SWAP5 POP PUSH1 0x1 DUP3 AND PUSH1 0x0 DUP2 EQ PUSH2 0x2FC JUMPI PUSH1 0x1 DUP2 EQ PUSH2 0x30D JUMPI PUSH2 0x340 JUMP JUMPDEST PUSH1 0xFF NOT DUP4 AND DUP7 MSTORE DUP2 DUP7 ADD SWAP4 POP PUSH2 0x340 JUMP JUMPDEST PUSH2 0x316 DUP6 PUSH2 0x3EA JUMP JUMPDEST PUSH1 0x0 JUMPDEST DUP4 DUP2 LT ISZERO PUSH2 0x338 JUMPI DUP2 SLOAD DUP2 DUP10 ADD MSTORE PUSH1 0x1 DUP3 ADD SWAP2 POP PUSH1 0x20 DUP2 ADD SWAP1 POP PUSH2 0x319 JUMP JUMPDEST DUP4 DUP9 ADD SWAP6 POP POP POP JUMPDEST POP POP POP SWAP3 SWAP2 POP POP JUMP JUMPDEST PUSH2 0x352 DUP2 PUSH2 0x488 JUMP JUMPDEST DUP3 MSTORE POP POP JUMP JUMPDEST PUSH1 0x0 PUSH2 0x364 DUP3 DUP5 PUSH2 0x2CA JUMP JUMPDEST SWAP2 POP DUP2 SWAP1 POP SWAP3 SWAP2 POP POP JUMP JUMPDEST PUSH1 0x0 PUSH1 0x60 DUP3 ADD SWAP1 POP PUSH2 0x384 PUSH1 0x0 DUP4 ADD DUP7 PUSH2 0x282 JUMP JUMPDEST DUP2 DUP2 SUB PUSH1 0x20 DUP4 ADD MSTORE PUSH2 0x396 DUP2 DUP6 PUSH2 0x291 JUMP JUMPDEST SWAP1 POP PUSH2 0x3A5 PUSH1 0x40 DUP4 ADD DUP5 PUSH2 0x349 JUMP JUMPDEST SWAP5 SWAP4 POP POP POP POP JUMP JUMPDEST PUSH1 0x0 PUSH1 0x20 DUP3 ADD SWAP1 POP DUP2 DUP2 SUB PUSH1 0x0 DUP4 ADD MSTORE PUSH2 0x3C7 DUP2 DUP5 PUSH2 0x291 JUMP JUMPDEST SWAP1 POP SWAP3 SWAP2 POP POP JUMP JUMPDEST PUSH1 0x0 PUSH1 0x20 DUP3 ADD SWAP1 POP PUSH2 0x3E4 PUSH1 0x0 DUP4 ADD DUP5 PUSH2 0x349 JUMP JUMPDEST SWAP3 SWAP2 POP POP JUMP JUMPDEST PUSH1 0x0 DUP2 SWAP1 POP DUP2 PUSH1 0x0 MSTORE PUSH1 0x20 PUSH1 0x0 KECCAK256 SWAP1 POP SWAP2 SWAP1 POP JUMP JUMPDEST PUSH1 0x0 DUP2 MLOAD SWAP1 POP SWAP2 SWAP1 POP JUMP JUMPDEST PUSH1 0x0 DUP3 DUP3 MSTORE PUSH1 0x20 DUP3 ADD SWAP1 POP SWAP3 SWAP2 POP POP JUMP JUMPDEST PUSH1 0x0 DUP2 SWAP1 POP SWAP3 SWAP2 POP POP JUMP JUMPDEST PUSH1 0x0 PUSH2 0x431 DUP3 PUSH2 0x488 JUMP JUMPDEST SWAP2 POP PUSH2 0x43C DUP4 PUSH2 0x488 JUMP JUMPDEST SWAP3 POP DUP3 PUSH32 0xFFFFFFFFFFFFFFFFFFFFFFFFFFFFFFFFFFFFFFFFFFFFFFFFFFFFFFFFFFFFFFFF SUB DUP3 GT ISZERO PUSH2 0x471 JUMPI PUSH2 0x470 PUSH2 0x4F7 JUMP JUMPDEST JUMPDEST DUP3 DUP3 ADD SWAP1 POP SWAP3 SWAP2 POP POP JUMP JUMPDEST PUSH1 0x0 DUP2 ISZERO ISZERO SWAP1 POP SWAP2 SWAP1 POP JUMP JUMPDEST PUSH1 0x0 DUP2 SWAP1 POP SWAP2 SWAP1 POP JUMP JUMPDEST PUSH1 0x0 JUMPDEST DUP4 DUP2 LT ISZERO PUSH2 0x4B0 JUMPI DUP1 DUP3 ADD MLOAD DUP2 DUP5 ADD MSTORE PUSH1 0x20 DUP2 ADD SWAP1 POP PUSH2 0x495 JUMP JUMPDEST DUP4 DUP2 GT ISZERO PUSH2 0x4BF JUMPI PUSH1 0x0 DUP5 DUP5 ADD MSTORE JUMPDEST POP POP POP POP JUMP JUMPDEST PUSH1 0x0 PUSH1 0x2 DUP3 DIV SWAP1 POP PUSH1 0x1 DUP3 AND DUP1 PUSH2 0x4DD JUMPI PUSH1 0x7F DUP3 AND SWAP2 POP JUMPDEST PUSH1 0x20 DUP3 LT DUP2 EQ ISZERO PUSH2 0x4F1 JUMPI PUSH2 0x4F0 PUSH2 0x526 JUMP JUMPDEST JUMPDEST POP SWAP2 SWAP1 POP JUMP JUMPDEST PUSH32 0x4E487B7100000000000000000000000000000000000000000000000000000000 PUSH1 0x0 MSTORE PUSH1 0x11 PUSH1 0x4 MSTORE PUSH1 0x24 PUSH1 0x0 REVERT JUMPDEST PUSH32 0x4E487B7100000000000000000000000000000000000000000000000000000000 PUSH1 0x0 MSTORE PUSH1 0x22 PUSH1 0x4 MSTORE PUSH1 0x24 PUSH1 0x0 REVERT JUMPDEST PUSH1 0x0 DUP1 REVERT JUMPDEST PUSH1 0x0 PUSH1 0x1F NOT PUSH1 0x1F DUP4 ADD AND SWAP1 POP SWAP2 SWAP1 POP JUMP JUMPDEST PUSH2 0x574 DUP2 PUSH2 0x488 JUMP JUMPDEST DUP2 EQ PUSH2 0x57F JUMPI PUSH1 0x0 DUP1 REVERT JUMPDEST POP JUMP INVALID LOG2 PUSH5 0x6970667358 0x22 SLT KECCAK256 0xE PUSH29 0xCF2216FD65959E6E9C76783B78B2EBC4FE37F8A2FB30692B83D46DF105 EQ PUSH5 0x736F6C6343 STOP ADDMOD MOD STOP CALLER "
				},
				"gasEstimates": {
					"creation": {
						"codeDepositCost": "292800",
						"executionCost": "infinite",
						"totalCost": "infinite"
					},
					"external": {
						"a()": "2407",
						"add(uint256,uint256)": "infinite",
						"callFunc()": "infinite",
						"encodedABI()": "infinite"
					}
				},
				"methodIdentifiers": {
					"a()": "0dbe671f",
					"add(uint256,uint256)": "771602f7",
					"callFunc()": "9a7846b9",
					"encodedABI()": "6b28c658"
				}
			},
			"storageLayout": {
				"storage": [
					{
						"astId": 41,
						"contract": "study/chapter03/abi.sol:testABI3",
						"label": "a",
						"offset": 0,
						"slot": "0",
						"type": "t_uint256"
					},
					{
						"astId": 69,
						"contract": "study/chapter03/abi.sol:testABI3",
						"label": "encodedABI",
						"offset": 0,
						"slot": "1",
						"type": "t_bytes_storage"
					}
				],
				"types": {
					"t_bytes_storage": {
						"encoding": "bytes",
						"label": "bytes",
						"numberOfBytes": "32"
					},
					"t_uint256": {
						"encoding": "inplace",
						"label": "uint256",
						"numberOfBytes": "32"
					}
				}
			},
			"userdoc": {
				"kind": "user",
				"methods": {},
				"version": 1
			}
		}
	}
}