{
	"study/chapter03/1innercompany.sol": {
		"Company": {
			"abi": [
				{
					"inputs": [],
					"name": "moneyTest",
					"outputs": [],
					"stateMutability": "pure",
					"type": "function"
				}
			],
			"devdoc": {
				"kind": "dev",
				"methods": {},
				"version": 1
			},
			"evm": {
				"assembly": "    /* \"study/chapter03/1innercompany.sol\":56:210  contract Company{... */\n  mstore(0x40, 0x80)\n  callvalue\n  dup1\n  iszero\n  tag_1\n  jumpi\n  0x00\n  dup1\n  revert\ntag_1:\n  pop\n  dataSize(sub_0)\n  dup1\n  dataOffset(sub_0)\n  0x00\n  codecopy\n  0x00\n  return\nstop\n\nsub_0: assembly {\n        /* \"study/chapter03/1innercompany.sol\":56:210  contract Company{... */\n      mstore(0x40, 0x80)\n      callvalue\n      dup1\n      iszero\n      tag_1\n      jumpi\n      0x00\n      dup1\n      revert\n    tag_1:\n      pop\n      jumpi(tag_2, lt(calldatasize, 0x04))\n      shr(0xe0, calldataload(0x00))\n      dup1\n      0x5af50ca4\n      eq\n      tag_3\n      jumpi\n    tag_2:\n      0x00\n      dup1\n      revert\n        /* \"study/chapter03/1innercompany.sol\":78:208  function moneyTest()external pure{... */\n    tag_3:\n      tag_4\n      tag_5\n      jump\t// in\n    tag_4:\n      stop\n    tag_5:\n        /* \"study/chapter03/1innercompany.sol\":136:137  1 */\n      0x01\n        /* \"study/chapter03/1innercompany.sol\":127:132  1 wei */\n      dup1\n        /* \"study/chapter03/1innercompany.sol\":127:137  1 wei == 1 */\n      eq\n        /* \"study/chapter03/1innercompany.sol\":120:138  assert(1 wei == 1) */\n      tag_7\n      jumpi\n      tag_8\n      tag_9\n      jump\t// in\n    tag_8:\n    tag_7:\n        /* \"study/chapter03/1innercompany.sol\":164:167  1e9 */\n      0x3b9aca00\n        /* \"study/chapter03/1innercompany.sol\":154:160  1 gwei */\n      dup1\n        /* \"study/chapter03/1innercompany.sol\":154:167  1 gwei == 1e9 */\n      eq\n        /* \"study/chapter03/1innercompany.sol\":147:168  assert(1 gwei == 1e9) */\n      tag_10\n      jumpi\n      tag_11\n      tag_9\n      jump\t// in\n    tag_11:\n    tag_10:\n        /* \"study/chapter03/1innercompany.sol\":195:199  1e18 */\n      0x0de0b6b3a7640000\n        /* \"study/chapter03/1innercompany.sol\":184:191  1 ether */\n      dup1\n        /* \"study/chapter03/1innercompany.sol\":184:199  1 ether == 1e18 */\n      eq\n        /* \"study/chapter03/1innercompany.sol\":177:200  assert(1 ether == 1e18) */\n      tag_12\n      jumpi\n      tag_13\n      tag_9\n      jump\t// in\n    tag_13:\n    tag_12:\n        /* \"study/chapter03/1innercompany.sol\":78:208  function moneyTest()external pure{... */\n      jump\t// out\n        /* \"#utility.yul\":7:187   */\n    tag_9:\n        /* \"#utility.yul\":55:132   */\n      0x4e487b7100000000000000000000000000000000000000000000000000000000\n        /* \"#utility.yul\":52:53   */\n      0x00\n        /* \"#utility.yul\":45:133   */\n      mstore\n        /* \"#utility.yul\":152:156   */\n      0x01\n        /* \"#utility.yul\":149:150   */\n      0x04\n        /* \"#utility.yul\":142:157   */\n      mstore\n        /* \"#utility.yul\":176:180   */\n      0x24\n        /* \"#utility.yul\":173:174   */\n      0x00\n        /* \"#utility.yul\":166:181   */\n      revert\n\n    auxdata: 0xa2646970667358221220e036e0af4d4cf1b2134481f57887d1898e65990081c613e45a480e0d083b44bd64736f6c63430008070033\n}\n",
				"bytecode": {
					"linkReferences": {},
					"object": "6080604052348015600f57600080fd5b5060d08061001e6000396000f3fe6080604052348015600f57600080fd5b506004361060285760003560e01c80635af50ca414602d575b600080fd5b60336035565b005b600180146043576042606b565b5b633b9aca0080146054576053606b565b5b670de0b6b3a764000080146069576068606b565b5b565b7f4e487b7100000000000000000000000000000000000000000000000000000000600052600160045260246000fdfea2646970667358221220e036e0af4d4cf1b2134481f57887d1898e65990081c613e45a480e0d083b44bd64736f6c63430008070033",
					"opcodes": "PUSH1 0x80 PUSH1 0x40 MSTORE CALLVALUE DUP1 ISZERO PUSH1 0xF JUMPI PUSH1 0x0 DUP1 REVERT JUMPDEST POP PUSH1 0xD0 DUP1 PUSH2 0x1E PUSH1 0x0 CODECOPY PUSH1 0x0 RETURN INVALID PUSH1 0x80 PUSH1 0x40 MSTORE CALLVALUE DUP1 ISZERO PUSH1 0xF JUMPI PUSH1 0x0 DUP1 REVERT JUMPDEST POP PUSH1 0x4 CALLDATASIZE LT PUSH1 0x28 JUMPI PUSH1 0x0 CALLDATALOAD PUSH1 0xE0 SHR DUP1 PUSH4 0x5AF50CA4 EQ PUSH1 0x2D JUMPI JUMPDEST PUSH1 0x0 DUP1 REVERT JUMPDEST PUSH1 0x33 PUSH1 0x35 JUMP JUMPDEST STOP JUMPDEST PUSH1 0x1 DUP1 EQ PUSH1 0x43 JUMPI PUSH1 0x42 PUSH1 0x6B JUMP JUMPDEST JUMPDEST PUSH4 0x3B9ACA00 DUP1 EQ PUSH1 0x54 JUMPI PUSH1 0x53 PUSH1 0x6B JUMP JUMPDEST JUMPDEST PUSH8 0xDE0B6B3A7640000 DUP1 EQ PUSH1 0x69 JUMPI PUSH1 0x68 PUSH1 0x6B JUMP JUMPDEST JUMPDEST JUMP JUMPDEST PUSH32 0x4E487B7100000000000000000000000000000000000000000000000000000000 PUSH1 0x0 MSTORE PUSH1 0x1 PUSH1 0x4 MSTORE PUSH1 0x24 PUSH1 0x0 REVERT INVALID LOG2 PUSH5 0x6970667358 0x22 SLT KECCAK256 0xE0 CALLDATASIZE 0xE0 0xAF 0x4D 0x4C CALL 0xB2 SGT DIFFICULTY DUP2 CREATE2 PUSH25 0x87D1898E65990081C613E45A480E0D083B44BD64736F6C6343 STOP ADDMOD SMOD STOP CALLER "
				},
				"gasEstimates": {
					"creation": {
						"codeDepositCost": "41600",
						"executionCost": "93",
						"totalCost": "41693"
					},
					"external": {
						"moneyTest()": "191"
					}
				},
				"methodIdentifiers": {
					"moneyTest()": "5af50ca4"
				}
			},
			"storageLayout": {
				"storage": [],
				"types": null
			},
			"userdoc": {
				"kind": "user",
				"methods": {},
				"version": 1
			}
		}
	}
}