{
	"study/chapter03/1innercompany.sol": {
		"Company": {
			"abi": [
				{
					"inputs": [],
					"name": "moneyTest",
					"outputs": [
						{
							"internalType": "bool",
							"name": "",
							"type": "bool"
						}
					],
					"stateMutability": "pure",
					"type": "function"
				}
			],
			"devdoc": {
				"kind": "dev",
				"methods": {},
				"version": 1
			},
			"evm": {
				"assembly": "    /* \"study/chapter03/1innercompany.sol\":56:232  contract Company{... */\n  mstore(0x40, 0x80)\n  callvalue\n  dup1\n  iszero\n  tag_1\n  jumpi\n  0x00\n  dup1\n  revert\ntag_1:\n  pop\n  dataSize(sub_0)\n  dup1\n  dataOffset(sub_0)\n  0x00\n  codecopy\n  0x00\n  return\nstop\n\nsub_0: assembly {\n        /* \"study/chapter03/1innercompany.sol\":56:232  contract Company{... */\n      mstore(0x40, 0x80)\n      callvalue\n      dup1\n      iszero\n      tag_1\n      jumpi\n      0x00\n      dup1\n      revert\n    tag_1:\n      pop\n      jumpi(tag_2, lt(calldatasize, 0x04))\n      shr(0xe0, calldataload(0x00))\n      dup1\n      0x5af50ca4\n      eq\n      tag_3\n      jumpi\n    tag_2:\n      0x00\n      dup1\n      revert\n        /* \"study/chapter03/1innercompany.sol\":83:229  function moneyTest()external pure returns(bool){... */\n    tag_3:\n      tag_4\n      tag_5\n      jump\t// in\n    tag_4:\n      mload(0x40)\n      tag_6\n      swap2\n      swap1\n      tag_7\n      jump\t// in\n    tag_6:\n      mload(0x40)\n      dup1\n      swap2\n      sub\n      swap1\n      return\n    tag_5:\n        /* \"study/chapter03/1innercompany.sol\":125:129  bool */\n      0x00\n        /* \"study/chapter03/1innercompany.sol\":156:157  1 */\n      0x01\n        /* \"study/chapter03/1innercompany.sol\":147:152  1 wei */\n      dup1\n        /* \"study/chapter03/1innercompany.sol\":147:157  1 wei == 1 */\n      eq\n        /* \"study/chapter03/1innercompany.sol\":140:158  assert(1 wei == 1) */\n      tag_9\n      jumpi\n      tag_10\n      tag_11\n      jump\t// in\n    tag_10:\n    tag_9:\n        /* \"study/chapter03/1innercompany.sol\":185:188  1e9 */\n      0x3b9aca00\n        /* \"study/chapter03/1innercompany.sol\":175:181  1 gwei */\n      dup1\n        /* \"study/chapter03/1innercompany.sol\":175:188  1 gwei == 1e9 */\n      eq\n        /* \"study/chapter03/1innercompany.sol\":168:189  assert(1 gwei == 1e9) */\n      tag_12\n      jumpi\n      tag_13\n      tag_11\n      jump\t// in\n    tag_13:\n    tag_12:\n        /* \"study/chapter03/1innercompany.sol\":217:221  1e18 */\n      0x0de0b6b3a7640000\n        /* \"study/chapter03/1innercompany.sol\":206:213  1 ether */\n      dup1\n        /* \"study/chapter03/1innercompany.sol\":206:221  1 ether == 1e18 */\n      eq\n        /* \"study/chapter03/1innercompany.sol\":199:222  assert(1 ether == 1e18) */\n      tag_14\n      jumpi\n      tag_15\n      tag_11\n      jump\t// in\n    tag_15:\n    tag_14:\n        /* \"study/chapter03/1innercompany.sol\":83:229  function moneyTest()external pure returns(bool){... */\n      swap1\n      jump\t// out\n        /* \"#utility.yul\":7:116   */\n    tag_17:\n        /* \"#utility.yul\":88:109   */\n      tag_19\n        /* \"#utility.yul\":103:108   */\n      dup2\n        /* \"#utility.yul\":88:109   */\n      tag_20\n      jump\t// in\n    tag_19:\n        /* \"#utility.yul\":83:86   */\n      dup3\n        /* \"#utility.yul\":76:110   */\n      mstore\n        /* \"#utility.yul\":7:116   */\n      pop\n      pop\n      jump\t// out\n        /* \"#utility.yul\":122:332   */\n    tag_7:\n        /* \"#utility.yul\":209:213   */\n      0x00\n        /* \"#utility.yul\":247:249   */\n      0x20\n        /* \"#utility.yul\":236:245   */\n      dup3\n        /* \"#utility.yul\":232:250   */\n      add\n        /* \"#utility.yul\":224:250   */\n      swap1\n      pop\n        /* \"#utility.yul\":260:325   */\n      tag_22\n        /* \"#utility.yul\":322:323   */\n      0x00\n        /* \"#utility.yul\":311:320   */\n      dup4\n        /* \"#utility.yul\":307:324   */\n      add\n        /* \"#utility.yul\":298:304   */\n      dup5\n        /* \"#utility.yul\":260:325   */\n      tag_17\n      jump\t// in\n    tag_22:\n        /* \"#utility.yul\":122:332   */\n      swap3\n      swap2\n      pop\n      pop\n      jump\t// out\n        /* \"#utility.yul\":338:428   */\n    tag_20:\n        /* \"#utility.yul\":372:379   */\n      0x00\n        /* \"#utility.yul\":415:420   */\n      dup2\n        /* \"#utility.yul\":408:421   */\n      iszero\n        /* \"#utility.yul\":401:422   */\n      iszero\n        /* \"#utility.yul\":390:422   */\n      swap1\n      pop\n        /* \"#utility.yul\":338:428   */\n      swap2\n      swap1\n      pop\n      jump\t// out\n        /* \"#utility.yul\":434:614   */\n    tag_11:\n        /* \"#utility.yul\":482:559   */\n      0x4e487b7100000000000000000000000000000000000000000000000000000000\n        /* \"#utility.yul\":479:480   */\n      0x00\n        /* \"#utility.yul\":472:560   */\n      mstore\n        /* \"#utility.yul\":579:583   */\n      0x01\n        /* \"#utility.yul\":576:577   */\n      0x04\n        /* \"#utility.yul\":569:584   */\n      mstore\n        /* \"#utility.yul\":603:607   */\n      0x24\n        /* \"#utility.yul\":600:601   */\n      0x00\n        /* \"#utility.yul\":593:608   */\n      revert\n\n    auxdata: 0xa26469706673582212208731a6129a35861fb94d89311cf514bc874f290e1f64763f7f54c1e25e288d8464736f6c63430008070033\n}\n",
				"bytecode": {
					"linkReferences": {},
					"object": "608060405234801561001057600080fd5b50610117806100206000396000f3fe6080604052348015600f57600080fd5b506004361060285760003560e01c80635af50ca414602d575b600080fd5b60336047565b604051603e9190608d565b60405180910390f35b600060018014605757605660b2565b5b633b9aca008014606857606760b2565b5b670de0b6b3a76400008014607d57607c60b2565b5b90565b60878160a6565b82525050565b600060208201905060a060008301846080565b92915050565b60008115159050919050565b7f4e487b7100000000000000000000000000000000000000000000000000000000600052600160045260246000fdfea26469706673582212208731a6129a35861fb94d89311cf514bc874f290e1f64763f7f54c1e25e288d8464736f6c63430008070033",
					"opcodes": "PUSH1 0x80 PUSH1 0x40 MSTORE CALLVALUE DUP1 ISZERO PUSH2 0x10 JUMPI PUSH1 0x0 DUP1 REVERT JUMPDEST POP PUSH2 0x117 DUP1 PUSH2 0x20 PUSH1 0x0 CODECOPY PUSH1 0x0 RETURN INVALID PUSH1 0x80 PUSH1 0x40 MSTORE CALLVALUE DUP1 ISZERO PUSH1 0xF JUMPI PUSH1 0x0 DUP1 REVERT JUMPDEST POP PUSH1 0x4 CALLDATASIZE LT PUSH1 0x28 JUMPI PUSH1 0x0 CALLDATALOAD PUSH1 0xE0 SHR DUP1 PUSH4 0x5AF50CA4 EQ PUSH1 0x2D JUMPI JUMPDEST PUSH1 0x0 DUP1 REVERT JUMPDEST PUSH1 0x33 PUSH1 0x47 JUMP JUMPDEST PUSH1 0x40 MLOAD PUSH1 0x3E SWAP2 SWAP1 PUSH1 0x8D JUMP JUMPDEST PUSH1 0x40 MLOAD DUP1 SWAP2 SUB SWAP1 RETURN JUMPDEST PUSH1 0x0 PUSH1 0x1 DUP1 EQ PUSH1 0x57 JUMPI PUSH1 0x56 PUSH1 0xB2 JUMP JUMPDEST JUMPDEST PUSH4 0x3B9ACA00 DUP1 EQ PUSH1 0x68 JUMPI PUSH1 0x67 PUSH1 0xB2 JUMP JUMPDEST JUMPDEST PUSH8 0xDE0B6B3A7640000 DUP1 EQ PUSH1 0x7D JUMPI PUSH1 0x7C PUSH1 0xB2 JUMP JUMPDEST JUMPDEST SWAP1 JUMP JUMPDEST PUSH1 0x87 DUP2 PUSH1 0xA6 JUMP JUMPDEST DUP3 MSTORE POP POP JUMP JUMPDEST PUSH1 0x0 PUSH1 0x20 DUP3 ADD SWAP1 POP PUSH1 0xA0 PUSH1 0x0 DUP4 ADD DUP5 PUSH1 0x80 JUMP JUMPDEST SWAP3 SWAP2 POP POP JUMP JUMPDEST PUSH1 0x0 DUP2 ISZERO ISZERO SWAP1 POP SWAP2 SWAP1 POP JUMP JUMPDEST PUSH32 0x4E487B7100000000000000000000000000000000000000000000000000000000 PUSH1 0x0 MSTORE PUSH1 0x1 PUSH1 0x4 MSTORE PUSH1 0x24 PUSH1 0x0 REVERT INVALID LOG2 PUSH5 0x6970667358 0x22 SLT KECCAK256 DUP8 BALANCE 0xA6 SLT SWAP11 CALLDATALOAD DUP7 0x1F 0xB9 0x4D DUP10 BALANCE SHR CREATE2 EQ 0xBC DUP8 0x4F 0x29 0xE 0x1F PUSH5 0x763F7F54C1 0xE2 0x5E 0x28 DUP14 DUP5 PUSH5 0x736F6C6343 STOP ADDMOD SMOD STOP CALLER "
				},
				"gasEstimates": {
					"creation": {
						"codeDepositCost": "55800",
						"executionCost": "105",
						"totalCost": "55905"
					},
					"external": {
						"moneyTest()": "382"
					}
				},
				"methodIdentifiers": {
					"moneyTest()": "5af50ca4"
				}
			},
			"storageLayout": {
				"storage": [],
				"types": null
			},
			"userdoc": {
				"kind": "user",
				"methods": {},
				"version": 1
			}
		}
	}
}