{
	"study/chapter03/2innerfunc.sol": {
		"innerFunc": {
			"abi": [
				{
					"inputs": [],
					"name": "blockcoinbase",
					"outputs": [
						{
							"internalType": "address",
							"name": "",
							"type": "address"
						}
					],
					"stateMutability": "view",
					"type": "function"
				},
				{
					"inputs": [],
					"name": "blockdifficulty",
					"outputs": [
						{
							"internalType": "uint256",
							"name": "",
							"type": "uint256"
						}
					],
					"stateMutability": "view",
					"type": "function"
				},
				{
					"inputs": [],
					"name": "blockgaglimt",
					"outputs": [
						{
							"internalType": "uint256",
							"name": "",
							"type": "uint256"
						}
					],
					"stateMutability": "view",
					"type": "function"
				},
				{
					"inputs": [],
					"name": "blocknumber",
					"outputs": [
						{
							"internalType": "uint256",
							"name": "",
							"type": "uint256"
						}
					],
					"stateMutability": "view",
					"type": "function"
				},
				{
					"inputs": [],
					"name": "blocktimestamp",
					"outputs": [
						{
							"internalType": "uint256",
							"name": "",
							"type": "uint256"
						}
					],
					"stateMutability": "view",
					"type": "function"
				},
				{
					"inputs": [],
					"name": "chainID",
					"outputs": [
						{
							"internalType": "uint256",
							"name": "",
							"type": "uint256"
						}
					],
					"stateMutability": "view",
					"type": "function"
				},
				{
					"inputs": [],
					"name": "funcname",
					"outputs": [
						{
							"internalType": "bytes4",
							"name": "",
							"type": "bytes4"
						}
					],
					"stateMutability": "view",
					"type": "function"
				},
				{
					"inputs": [],
					"name": "msgbytes",
					"outputs": [
						{
							"internalType": "bytes",
							"name": "",
							"type": "bytes"
						}
					],
					"stateMutability": "view",
					"type": "function"
				},
				{
					"inputs": [],
					"name": "msgsender",
					"outputs": [
						{
							"internalType": "address",
							"name": "",
							"type": "address"
						}
					],
					"stateMutability": "view",
					"type": "function"
				},
				{
					"inputs": [],
					"name": "msgvalue",
					"outputs": [
						{
							"internalType": "uint256",
							"name": "",
							"type": "uint256"
						}
					],
					"stateMutability": "view",
					"type": "function"
				}
			],
			"devdoc": {
				"kind": "dev",
				"methods": {},
				"version": 1
			},
			"evm": {
				"assembly": "    /* \"study/chapter03/2innerfunc.sol\":56:822  contract innerFunc{... */\n  mstore(0x40, 0x80)\n    /* \"study/chapter03/2innerfunc.sol\":124:136  block.number */\n  number\n    /* \"study/chapter03/2innerfunc.sol\":100:136  uint public blocknumber=block.number */\n  0x00\n  sstore\n    /* \"study/chapter03/2innerfunc.sol\":181:196  block.timestamp */\n  timestamp\n    /* \"study/chapter03/2innerfunc.sol\":154:196  uint public blocktimestamp=block.timestamp */\n  0x01\n  sstore\n    /* \"study/chapter03/2innerfunc.sol\":252:266  block.gaslimit */\n  gaslimit\n    /* \"study/chapter03/2innerfunc.sol\":225:266  uint public blockgaglimt = block.gaslimit */\n  0x02\n  sstore\n    /* \"study/chapter03/2innerfunc.sol\":328:344  block.difficulty */\n  difficulty\n    /* \"study/chapter03/2innerfunc.sol\":298:344  uint public blockdifficulty = block.difficulty */\n  0x03\n  sstore\n    /* \"study/chapter03/2innerfunc.sol\":401:415  block.coinbase */\n  coinbase\n    /* \"study/chapter03/2innerfunc.sol\":370:415  address public blockcoinbase = block.coinbase */\n  0x04\n  exp(0x0100, 0x00)\n  dup2\n  sload\n  dup2\n  0xffffffffffffffffffffffffffffffffffffffff\n  mul\n  not\n  and\n  swap1\n  dup4\n  0xffffffffffffffffffffffffffffffffffffffff\n  and\n  mul\n  or\n  swap1\n  sstore\n  pop\n    /* \"study/chapter03/2innerfunc.sol\":472:485  block.chainid */\n  chainid\n    /* \"study/chapter03/2innerfunc.sol\":450:485  uint public chainID = block.chainid */\n  0x05\n  sstore\n    /* \"study/chapter03/2innerfunc.sol\":557:565  msg.data */\n  0x00\n  calldatasize\n    /* \"study/chapter03/2innerfunc.sol\":533:565  bytes public msgbytes = msg.data */\n  0x06\n  swap2\n  swap1\n  tag_1\n  swap3\n  swap2\n  swap1\n  tag_2\n  jump\t// in\ntag_1:\n  pop\n    /* \"study/chapter03/2innerfunc.sol\":617:627  msg.sender */\n  caller\n    /* \"study/chapter03/2innerfunc.sol\":590:627  address public msgsender = msg.sender */\n  0x07\n  exp(0x0100, 0x00)\n  dup2\n  sload\n  dup2\n  0xffffffffffffffffffffffffffffffffffffffff\n  mul\n  not\n  and\n  swap1\n  dup4\n  0xffffffffffffffffffffffffffffffffffffffff\n  and\n  mul\n  or\n  swap1\n  sstore\n  pop\n    /* \"study/chapter03/2innerfunc.sol\":675:682  msg.sig */\n  and(0xffffffff00000000000000000000000000000000000000000000000000000000, calldataload(0x00))\n    /* \"study/chapter03/2innerfunc.sol\":650:682  bytes4 public funcname = msg.sig */\n  0x07\n  exp(0x0100, 0x14)\n  dup2\n  sload\n  dup2\n  0xffffffff\n  mul\n  not\n  and\n  swap1\n  dup4\n  0xe0\n  shr\n  mul\n  or\n  swap1\n  sstore\n  pop\n    /* \"study/chapter03/2innerfunc.sol\":767:776  msg.value */\n  callvalue\n    /* \"study/chapter03/2innerfunc.sol\":744:776  uint public msgvalue = msg.value */\n  0x08\n  sstore\n    /* \"study/chapter03/2innerfunc.sol\":56:822  contract innerFunc{... */\n  callvalue\n  dup1\n  iszero\n  tag_3\n  jumpi\n  0x00\n  dup1\n  revert\ntag_3:\n  pop\n  jump(tag_4)\ntag_2:\n  dup3\n  dup1\n  sload\n  tag_5\n  swap1\n  tag_6\n  jump\t// in\ntag_5:\n  swap1\n  0x00\n  mstore\n  keccak256(0x00, 0x20)\n  swap1\n  0x1f\n  add\n  0x20\n  swap1\n  div\n  dup2\n  add\n  swap3\n  dup3\n  tag_8\n  jumpi\n  0x00\n  dup6\n  sstore\n  jump(tag_7)\ntag_8:\n  dup3\n  0x1f\n  lt\n  tag_9\n  jumpi\n  dup1\n  calldataload\n  not(0xff)\n  and\n  dup4\n  dup1\n  add\n  or\n  dup6\n  sstore\n  jump(tag_7)\ntag_9:\n  dup3\n  dup1\n  add\n  0x01\n  add\n  dup6\n  sstore\n  dup3\n  iszero\n  tag_7\n  jumpi\n  swap2\n  dup3\n  add\ntag_10:\n  dup3\n  dup2\n  gt\n  iszero\n  tag_11\n  jumpi\n  dup3\n  calldataload\n  dup3\n  sstore\n  swap2\n  0x20\n  add\n  swap2\n  swap1\n  0x01\n  add\n  swap1\n  jump(tag_10)\ntag_11:\ntag_7:\n  pop\n  swap1\n  pop\n  tag_12\n  swap2\n  swap1\n  tag_13\n  jump\t// in\ntag_12:\n  pop\n  swap1\n  jump\t// out\ntag_13:\ntag_14:\n  dup1\n  dup3\n  gt\n  iszero\n  tag_15\n  jumpi\n  0x00\n  dup2\n  0x00\n  swap1\n  sstore\n  pop\n  0x01\n  add\n  jump(tag_14)\ntag_15:\n  pop\n  swap1\n  jump\t// out\n    /* \"#utility.yul\":7:327   */\ntag_6:\n    /* \"#utility.yul\":51:57   */\n  0x00\n    /* \"#utility.yul\":88:89   */\n  0x02\n    /* \"#utility.yul\":82:86   */\n  dup3\n    /* \"#utility.yul\":78:90   */\n  div\n    /* \"#utility.yul\":68:90   */\n  swap1\n  pop\n    /* \"#utility.yul\":135:136   */\n  0x01\n    /* \"#utility.yul\":129:133   */\n  dup3\n    /* \"#utility.yul\":125:137   */\n  and\n    /* \"#utility.yul\":156:174   */\n  dup1\n    /* \"#utility.yul\":146:227   */\n  tag_18\n  jumpi\n    /* \"#utility.yul\":212:216   */\n  0x7f\n    /* \"#utility.yul\":204:210   */\n  dup3\n    /* \"#utility.yul\":200:217   */\n  and\n    /* \"#utility.yul\":190:217   */\n  swap2\n  pop\n    /* \"#utility.yul\":146:227   */\ntag_18:\n    /* \"#utility.yul\":274:276   */\n  0x20\n    /* \"#utility.yul\":266:272   */\n  dup3\n    /* \"#utility.yul\":263:277   */\n  lt\n    /* \"#utility.yul\":243:261   */\n  dup2\n    /* \"#utility.yul\":240:278   */\n  eq\n    /* \"#utility.yul\":237:321   */\n  iszero\n  tag_19\n  jumpi\n    /* \"#utility.yul\":293:311   */\n  tag_20\n  tag_21\n  jump\t// in\ntag_20:\n    /* \"#utility.yul\":237:321   */\ntag_19:\n    /* \"#utility.yul\":58:327   */\n  pop\n    /* \"#utility.yul\":7:327   */\n  swap2\n  swap1\n  pop\n  jump\t// out\n    /* \"#utility.yul\":333:513   */\ntag_21:\n    /* \"#utility.yul\":381:458   */\n  0x4e487b7100000000000000000000000000000000000000000000000000000000\n    /* \"#utility.yul\":378:379   */\n  0x00\n    /* \"#utility.yul\":371:459   */\n  mstore\n    /* \"#utility.yul\":478:482   */\n  0x22\n    /* \"#utility.yul\":475:476   */\n  0x04\n    /* \"#utility.yul\":468:483   */\n  mstore\n    /* \"#utility.yul\":502:506   */\n  0x24\n    /* \"#utility.yul\":499:500   */\n  0x00\n    /* \"#utility.yul\":492:507   */\n  revert\n    /* \"study/chapter03/2innerfunc.sol\":56:822  contract innerFunc{... */\ntag_4:\n  dataSize(sub_0)\n  dup1\n  dataOffset(sub_0)\n  0x00\n  codecopy\n  0x00\n  return\nstop\n\nsub_0: assembly {\n        /* \"study/chapter03/2innerfunc.sol\":56:822  contract innerFunc{... */\n      mstore(0x40, 0x80)\n      callvalue\n      dup1\n      iszero\n      tag_1\n      jumpi\n      0x00\n      dup1\n      revert\n    tag_1:\n      pop\n      jumpi(tag_2, lt(calldatasize, 0x04))\n      shr(0xe0, calldataload(0x00))\n      dup1\n      0x7390278d\n      gt\n      tag_13\n      jumpi\n      dup1\n      0x7390278d\n      eq\n      tag_8\n      jumpi\n      dup1\n      0x8182a11f\n      eq\n      tag_9\n      jumpi\n      dup1\n      0xadc879e9\n      eq\n      tag_10\n      jumpi\n      dup1\n      0xc2546f7b\n      eq\n      tag_11\n      jumpi\n      dup1\n      0xf8184f73\n      eq\n      tag_12\n      jumpi\n      jump(tag_2)\n    tag_13:\n      dup1\n      0x05062247\n      eq\n      tag_3\n      jumpi\n      dup1\n      0x07be4e1e\n      eq\n      tag_4\n      jumpi\n      dup1\n      0x18b66ea3\n      eq\n      tag_5\n      jumpi\n      dup1\n      0x5df32c47\n      eq\n      tag_6\n      jumpi\n      dup1\n      0x61c99b92\n      eq\n      tag_7\n      jumpi\n    tag_2:\n      0x00\n      dup1\n      revert\n        /* \"study/chapter03/2innerfunc.sol\":100:136  uint public blocknumber=block.number */\n    tag_3:\n      tag_14\n      tag_15\n      jump\t// in\n    tag_14:\n      mload(0x40)\n      tag_16\n      swap2\n      swap1\n      tag_17\n      jump\t// in\n    tag_16:\n      mload(0x40)\n      dup1\n      swap2\n      sub\n      swap1\n      return\n        /* \"study/chapter03/2innerfunc.sol\":650:682  bytes4 public funcname = msg.sig */\n    tag_4:\n      tag_18\n      tag_19\n      jump\t// in\n    tag_18:\n      mload(0x40)\n      tag_20\n      swap2\n      swap1\n      tag_21\n      jump\t// in\n    tag_20:\n      mload(0x40)\n      dup1\n      swap2\n      sub\n      swap1\n      return\n        /* \"study/chapter03/2innerfunc.sol\":370:415  address public blockcoinbase = block.coinbase */\n    tag_5:\n      tag_22\n      tag_23\n      jump\t// in\n    tag_22:\n      mload(0x40)\n      tag_24\n      swap2\n      swap1\n      tag_25\n      jump\t// in\n    tag_24:\n      mload(0x40)\n      dup1\n      swap2\n      sub\n      swap1\n      return\n        /* \"study/chapter03/2innerfunc.sol\":298:344  uint public blockdifficulty = block.difficulty */\n    tag_6:\n      tag_26\n      tag_27\n      jump\t// in\n    tag_26:\n      mload(0x40)\n      tag_28\n      swap2\n      swap1\n      tag_17\n      jump\t// in\n    tag_28:\n      mload(0x40)\n      dup1\n      swap2\n      sub\n      swap1\n      return\n        /* \"study/chapter03/2innerfunc.sol\":590:627  address public msgsender = msg.sender */\n    tag_7:\n      tag_29\n      tag_30\n      jump\t// in\n    tag_29:\n      mload(0x40)\n      tag_31\n      swap2\n      swap1\n      tag_25\n      jump\t// in\n    tag_31:\n      mload(0x40)\n      dup1\n      swap2\n      sub\n      swap1\n      return\n        /* \"study/chapter03/2innerfunc.sol\":225:266  uint public blockgaglimt = block.gaslimit */\n    tag_8:\n      tag_32\n      tag_33\n      jump\t// in\n    tag_32:\n      mload(0x40)\n      tag_34\n      swap2\n      swap1\n      tag_17\n      jump\t// in\n    tag_34:\n      mload(0x40)\n      dup1\n      swap2\n      sub\n      swap1\n      return\n        /* \"study/chapter03/2innerfunc.sol\":154:196  uint public blocktimestamp=block.timestamp */\n    tag_9:\n      tag_35\n      tag_36\n      jump\t// in\n    tag_35:\n      mload(0x40)\n      tag_37\n      swap2\n      swap1\n      tag_17\n      jump\t// in\n    tag_37:\n      mload(0x40)\n      dup1\n      swap2\n      sub\n      swap1\n      return\n        /* \"study/chapter03/2innerfunc.sol\":450:485  uint public chainID = block.chainid */\n    tag_10:\n      tag_38\n      tag_39\n      jump\t// in\n    tag_38:\n      mload(0x40)\n      tag_40\n      swap2\n      swap1\n      tag_17\n      jump\t// in\n    tag_40:\n      mload(0x40)\n      dup1\n      swap2\n      sub\n      swap1\n      return\n        /* \"study/chapter03/2innerfunc.sol\":533:565  bytes public msgbytes = msg.data */\n    tag_11:\n      tag_41\n      tag_42\n      jump\t// in\n    tag_41:\n      mload(0x40)\n      tag_43\n      swap2\n      swap1\n      tag_44\n      jump\t// in\n    tag_43:\n      mload(0x40)\n      dup1\n      swap2\n      sub\n      swap1\n      return\n        /* \"study/chapter03/2innerfunc.sol\":744:776  uint public msgvalue = msg.value */\n    tag_12:\n      tag_45\n      tag_46\n      jump\t// in\n    tag_45:\n      mload(0x40)\n      tag_47\n      swap2\n      swap1\n      tag_17\n      jump\t// in\n    tag_47:\n      mload(0x40)\n      dup1\n      swap2\n      sub\n      swap1\n      return\n        /* \"study/chapter03/2innerfunc.sol\":100:136  uint public blocknumber=block.number */\n    tag_15:\n      sload(0x00)\n      dup2\n      jump\t// out\n        /* \"study/chapter03/2innerfunc.sol\":650:682  bytes4 public funcname = msg.sig */\n    tag_19:\n      0x07\n      0x14\n      swap1\n      sload\n      swap1\n      0x0100\n      exp\n      swap1\n      div\n      0xe0\n      shl\n      dup2\n      jump\t// out\n        /* \"study/chapter03/2innerfunc.sol\":370:415  address public blockcoinbase = block.coinbase */\n    tag_23:\n      0x04\n      0x00\n      swap1\n      sload\n      swap1\n      0x0100\n      exp\n      swap1\n      div\n      0xffffffffffffffffffffffffffffffffffffffff\n      and\n      dup2\n      jump\t// out\n        /* \"study/chapter03/2innerfunc.sol\":298:344  uint public blockdifficulty = block.difficulty */\n    tag_27:\n      sload(0x03)\n      dup2\n      jump\t// out\n        /* \"study/chapter03/2innerfunc.sol\":590:627  address public msgsender = msg.sender */\n    tag_30:\n      0x07\n      0x00\n      swap1\n      sload\n      swap1\n      0x0100\n      exp\n      swap1\n      div\n      0xffffffffffffffffffffffffffffffffffffffff\n      and\n      dup2\n      jump\t// out\n        /* \"study/chapter03/2innerfunc.sol\":225:266  uint public blockgaglimt = block.gaslimit */\n    tag_33:\n      sload(0x02)\n      dup2\n      jump\t// out\n        /* \"study/chapter03/2innerfunc.sol\":154:196  uint public blocktimestamp=block.timestamp */\n    tag_36:\n      sload(0x01)\n      dup2\n      jump\t// out\n        /* \"study/chapter03/2innerfunc.sol\":450:485  uint public chainID = block.chainid */\n    tag_39:\n      sload(0x05)\n      dup2\n      jump\t// out\n        /* \"study/chapter03/2innerfunc.sol\":533:565  bytes public msgbytes = msg.data */\n    tag_42:\n      0x06\n      dup1\n      sload\n      tag_48\n      swap1\n      tag_49\n      jump\t// in\n    tag_48:\n      dup1\n      0x1f\n      add\n      0x20\n      dup1\n      swap2\n      div\n      mul\n      0x20\n      add\n      mload(0x40)\n      swap1\n      dup2\n      add\n      0x40\n      mstore\n      dup1\n      swap3\n      swap2\n      swap1\n      dup2\n      dup2\n      mstore\n      0x20\n      add\n      dup3\n      dup1\n      sload\n      tag_50\n      swap1\n      tag_49\n      jump\t// in\n    tag_50:\n      dup1\n      iszero\n      tag_51\n      jumpi\n      dup1\n      0x1f\n      lt\n      tag_52\n      jumpi\n      0x0100\n      dup1\n      dup4\n      sload\n      div\n      mul\n      dup4\n      mstore\n      swap2\n      0x20\n      add\n      swap2\n      jump(tag_51)\n    tag_52:\n      dup3\n      add\n      swap2\n      swap1\n      0x00\n      mstore\n      keccak256(0x00, 0x20)\n      swap1\n    tag_53:\n      dup2\n      sload\n      dup2\n      mstore\n      swap1\n      0x01\n      add\n      swap1\n      0x20\n      add\n      dup1\n      dup4\n      gt\n      tag_53\n      jumpi\n      dup3\n      swap1\n      sub\n      0x1f\n      and\n      dup3\n      add\n      swap2\n    tag_51:\n      pop\n      pop\n      pop\n      pop\n      pop\n      dup2\n      jump\t// out\n        /* \"study/chapter03/2innerfunc.sol\":744:776  uint public msgvalue = msg.value */\n    tag_46:\n      sload(0x08)\n      dup2\n      jump\t// out\n        /* \"#utility.yul\":7:125   */\n    tag_55:\n        /* \"#utility.yul\":94:118   */\n      tag_57\n        /* \"#utility.yul\":112:117   */\n      dup2\n        /* \"#utility.yul\":94:118   */\n      tag_58\n      jump\t// in\n    tag_57:\n        /* \"#utility.yul\":89:92   */\n      dup3\n        /* \"#utility.yul\":82:119   */\n      mstore\n        /* \"#utility.yul\":7:125   */\n      pop\n      pop\n      jump\t// out\n        /* \"#utility.yul\":131:246   */\n    tag_59:\n        /* \"#utility.yul\":216:239   */\n      tag_61\n        /* \"#utility.yul\":233:238   */\n      dup2\n        /* \"#utility.yul\":216:239   */\n      tag_62\n      jump\t// in\n    tag_61:\n        /* \"#utility.yul\":211:214   */\n      dup3\n        /* \"#utility.yul\":204:240   */\n      mstore\n        /* \"#utility.yul\":131:246   */\n      pop\n      pop\n      jump\t// out\n        /* \"#utility.yul\":252:612   */\n    tag_63:\n        /* \"#utility.yul\":338:341   */\n      0x00\n        /* \"#utility.yul\":366:404   */\n      tag_65\n        /* \"#utility.yul\":398:403   */\n      dup3\n        /* \"#utility.yul\":366:404   */\n      tag_66\n      jump\t// in\n    tag_65:\n        /* \"#utility.yul\":420:490   */\n      tag_67\n        /* \"#utility.yul\":483:489   */\n      dup2\n        /* \"#utility.yul\":478:481   */\n      dup6\n        /* \"#utility.yul\":420:490   */\n      tag_68\n      jump\t// in\n    tag_67:\n        /* \"#utility.yul\":413:490   */\n      swap4\n      pop\n        /* \"#utility.yul\":499:551   */\n      tag_69\n        /* \"#utility.yul\":544:550   */\n      dup2\n        /* \"#utility.yul\":539:542   */\n      dup6\n        /* \"#utility.yul\":532:536   */\n      0x20\n        /* \"#utility.yul\":525:530   */\n      dup7\n        /* \"#utility.yul\":521:537   */\n      add\n        /* \"#utility.yul\":499:551   */\n      tag_70\n      jump\t// in\n    tag_69:\n        /* \"#utility.yul\":576:605   */\n      tag_71\n        /* \"#utility.yul\":598:604   */\n      dup2\n        /* \"#utility.yul\":576:605   */\n      tag_72\n      jump\t// in\n    tag_71:\n        /* \"#utility.yul\":571:574   */\n      dup5\n        /* \"#utility.yul\":567:606   */\n      add\n        /* \"#utility.yul\":560:606   */\n      swap2\n      pop\n        /* \"#utility.yul\":342:612   */\n      pop\n        /* \"#utility.yul\":252:612   */\n      swap3\n      swap2\n      pop\n      pop\n      jump\t// out\n        /* \"#utility.yul\":618:736   */\n    tag_73:\n        /* \"#utility.yul\":705:729   */\n      tag_75\n        /* \"#utility.yul\":723:728   */\n      dup2\n        /* \"#utility.yul\":705:729   */\n      tag_76\n      jump\t// in\n    tag_75:\n        /* \"#utility.yul\":700:703   */\n      dup3\n        /* \"#utility.yul\":693:730   */\n      mstore\n        /* \"#utility.yul\":618:736   */\n      pop\n      pop\n      jump\t// out\n        /* \"#utility.yul\":742:964   */\n    tag_25:\n        /* \"#utility.yul\":835:839   */\n      0x00\n        /* \"#utility.yul\":873:875   */\n      0x20\n        /* \"#utility.yul\":862:871   */\n      dup3\n        /* \"#utility.yul\":858:876   */\n      add\n        /* \"#utility.yul\":850:876   */\n      swap1\n      pop\n        /* \"#utility.yul\":886:957   */\n      tag_78\n        /* \"#utility.yul\":954:955   */\n      0x00\n        /* \"#utility.yul\":943:952   */\n      dup4\n        /* \"#utility.yul\":939:956   */\n      add\n        /* \"#utility.yul\":930:936   */\n      dup5\n        /* \"#utility.yul\":886:957   */\n      tag_55\n      jump\t// in\n    tag_78:\n        /* \"#utility.yul\":742:964   */\n      swap3\n      swap2\n      pop\n      pop\n      jump\t// out\n        /* \"#utility.yul\":970:1188   */\n    tag_21:\n        /* \"#utility.yul\":1061:1065   */\n      0x00\n        /* \"#utility.yul\":1099:1101   */\n      0x20\n        /* \"#utility.yul\":1088:1097   */\n      dup3\n        /* \"#utility.yul\":1084:1102   */\n      add\n        /* \"#utility.yul\":1076:1102   */\n      swap1\n      pop\n        /* \"#utility.yul\":1112:1181   */\n      tag_80\n        /* \"#utility.yul\":1178:1179   */\n      0x00\n        /* \"#utility.yul\":1167:1176   */\n      dup4\n        /* \"#utility.yul\":1163:1180   */\n      add\n        /* \"#utility.yul\":1154:1160   */\n      dup5\n        /* \"#utility.yul\":1112:1181   */\n      tag_59\n      jump\t// in\n    tag_80:\n        /* \"#utility.yul\":970:1188   */\n      swap3\n      swap2\n      pop\n      pop\n      jump\t// out\n        /* \"#utility.yul\":1194:1503   */\n    tag_44:\n        /* \"#utility.yul\":1305:1309   */\n      0x00\n        /* \"#utility.yul\":1343:1345   */\n      0x20\n        /* \"#utility.yul\":1332:1341   */\n      dup3\n        /* \"#utility.yul\":1328:1346   */\n      add\n        /* \"#utility.yul\":1320:1346   */\n      swap1\n      pop\n        /* \"#utility.yul\":1392:1401   */\n      dup2\n        /* \"#utility.yul\":1386:1390   */\n      dup2\n        /* \"#utility.yul\":1382:1402   */\n      sub\n        /* \"#utility.yul\":1378:1379   */\n      0x00\n        /* \"#utility.yul\":1367:1376   */\n      dup4\n        /* \"#utility.yul\":1363:1380   */\n      add\n        /* \"#utility.yul\":1356:1403   */\n      mstore\n        /* \"#utility.yul\":1420:1496   */\n      tag_82\n        /* \"#utility.yul\":1491:1495   */\n      dup2\n        /* \"#utility.yul\":1482:1488   */\n      dup5\n        /* \"#utility.yul\":1420:1496   */\n      tag_63\n      jump\t// in\n    tag_82:\n        /* \"#utility.yul\":1412:1496   */\n      swap1\n      pop\n        /* \"#utility.yul\":1194:1503   */\n      swap3\n      swap2\n      pop\n      pop\n      jump\t// out\n        /* \"#utility.yul\":1509:1731   */\n    tag_17:\n        /* \"#utility.yul\":1602:1606   */\n      0x00\n        /* \"#utility.yul\":1640:1642   */\n      0x20\n        /* \"#utility.yul\":1629:1638   */\n      dup3\n        /* \"#utility.yul\":1625:1643   */\n      add\n        /* \"#utility.yul\":1617:1643   */\n      swap1\n      pop\n        /* \"#utility.yul\":1653:1724   */\n      tag_84\n        /* \"#utility.yul\":1721:1722   */\n      0x00\n        /* \"#utility.yul\":1710:1719   */\n      dup4\n        /* \"#utility.yul\":1706:1723   */\n      add\n        /* \"#utility.yul\":1697:1703   */\n      dup5\n        /* \"#utility.yul\":1653:1724   */\n      tag_73\n      jump\t// in\n    tag_84:\n        /* \"#utility.yul\":1509:1731   */\n      swap3\n      swap2\n      pop\n      pop\n      jump\t// out\n        /* \"#utility.yul\":1737:1835   */\n    tag_66:\n        /* \"#utility.yul\":1788:1794   */\n      0x00\n        /* \"#utility.yul\":1822:1827   */\n      dup2\n        /* \"#utility.yul\":1816:1828   */\n      mload\n        /* \"#utility.yul\":1806:1828   */\n      swap1\n      pop\n        /* \"#utility.yul\":1737:1835   */\n      swap2\n      swap1\n      pop\n      jump\t// out\n        /* \"#utility.yul\":1841:2009   */\n    tag_68:\n        /* \"#utility.yul\":1924:1935   */\n      0x00\n        /* \"#utility.yul\":1958:1964   */\n      dup3\n        /* \"#utility.yul\":1953:1956   */\n      dup3\n        /* \"#utility.yul\":1946:1965   */\n      mstore\n        /* \"#utility.yul\":1998:2002   */\n      0x20\n        /* \"#utility.yul\":1993:1996   */\n      dup3\n        /* \"#utility.yul\":1989:2003   */\n      add\n        /* \"#utility.yul\":1974:2003   */\n      swap1\n      pop\n        /* \"#utility.yul\":1841:2009   */\n      swap3\n      swap2\n      pop\n      pop\n      jump\t// out\n        /* \"#utility.yul\":2015:2111   */\n    tag_58:\n        /* \"#utility.yul\":2052:2059   */\n      0x00\n        /* \"#utility.yul\":2081:2105   */\n      tag_88\n        /* \"#utility.yul\":2099:2104   */\n      dup3\n        /* \"#utility.yul\":2081:2105   */\n      tag_89\n      jump\t// in\n    tag_88:\n        /* \"#utility.yul\":2070:2105   */\n      swap1\n      pop\n        /* \"#utility.yul\":2015:2111   */\n      swap2\n      swap1\n      pop\n      jump\t// out\n        /* \"#utility.yul\":2117:2266   */\n    tag_62:\n        /* \"#utility.yul\":2153:2160   */\n      0x00\n        /* \"#utility.yul\":2193:2259   */\n      0xffffffff00000000000000000000000000000000000000000000000000000000\n        /* \"#utility.yul\":2186:2191   */\n      dup3\n        /* \"#utility.yul\":2182:2260   */\n      and\n        /* \"#utility.yul\":2171:2260   */\n      swap1\n      pop\n        /* \"#utility.yul\":2117:2266   */\n      swap2\n      swap1\n      pop\n      jump\t// out\n        /* \"#utility.yul\":2272:2398   */\n    tag_89:\n        /* \"#utility.yul\":2309:2316   */\n      0x00\n        /* \"#utility.yul\":2349:2391   */\n      0xffffffffffffffffffffffffffffffffffffffff\n        /* \"#utility.yul\":2342:2347   */\n      dup3\n        /* \"#utility.yul\":2338:2392   */\n      and\n        /* \"#utility.yul\":2327:2392   */\n      swap1\n      pop\n        /* \"#utility.yul\":2272:2398   */\n      swap2\n      swap1\n      pop\n      jump\t// out\n        /* \"#utility.yul\":2404:2481   */\n    tag_76:\n        /* \"#utility.yul\":2441:2448   */\n      0x00\n        /* \"#utility.yul\":2470:2475   */\n      dup2\n        /* \"#utility.yul\":2459:2475   */\n      swap1\n      pop\n        /* \"#utility.yul\":2404:2481   */\n      swap2\n      swap1\n      pop\n      jump\t// out\n        /* \"#utility.yul\":2487:2794   */\n    tag_70:\n        /* \"#utility.yul\":2555:2556   */\n      0x00\n        /* \"#utility.yul\":2565:2678   */\n    tag_94:\n        /* \"#utility.yul\":2579:2585   */\n      dup4\n        /* \"#utility.yul\":2576:2577   */\n      dup2\n        /* \"#utility.yul\":2573:2586   */\n      lt\n        /* \"#utility.yul\":2565:2678   */\n      iszero\n      tag_96\n      jumpi\n        /* \"#utility.yul\":2664:2665   */\n      dup1\n        /* \"#utility.yul\":2659:2662   */\n      dup3\n        /* \"#utility.yul\":2655:2666   */\n      add\n        /* \"#utility.yul\":2649:2667   */\n      mload\n        /* \"#utility.yul\":2645:2646   */\n      dup2\n        /* \"#utility.yul\":2640:2643   */\n      dup5\n        /* \"#utility.yul\":2636:2647   */\n      add\n        /* \"#utility.yul\":2629:2668   */\n      mstore\n        /* \"#utility.yul\":2601:2603   */\n      0x20\n        /* \"#utility.yul\":2598:2599   */\n      dup2\n        /* \"#utility.yul\":2594:2604   */\n      add\n        /* \"#utility.yul\":2589:2604   */\n      swap1\n      pop\n        /* \"#utility.yul\":2565:2678   */\n      jump(tag_94)\n    tag_96:\n        /* \"#utility.yul\":2696:2702   */\n      dup4\n        /* \"#utility.yul\":2693:2694   */\n      dup2\n        /* \"#utility.yul\":2690:2703   */\n      gt\n        /* \"#utility.yul\":2687:2788   */\n      iszero\n      tag_97\n      jumpi\n        /* \"#utility.yul\":2776:2777   */\n      0x00\n        /* \"#utility.yul\":2767:2773   */\n      dup5\n        /* \"#utility.yul\":2762:2765   */\n      dup5\n        /* \"#utility.yul\":2758:2774   */\n      add\n        /* \"#utility.yul\":2751:2778   */\n      mstore\n        /* \"#utility.yul\":2687:2788   */\n    tag_97:\n        /* \"#utility.yul\":2536:2794   */\n      pop\n        /* \"#utility.yul\":2487:2794   */\n      pop\n      pop\n      pop\n      jump\t// out\n        /* \"#utility.yul\":2800:3120   */\n    tag_49:\n        /* \"#utility.yul\":2844:2850   */\n      0x00\n        /* \"#utility.yul\":2881:2882   */\n      0x02\n        /* \"#utility.yul\":2875:2879   */\n      dup3\n        /* \"#utility.yul\":2871:2883   */\n      div\n        /* \"#utility.yul\":2861:2883   */\n      swap1\n      pop\n        /* \"#utility.yul\":2928:2929   */\n      0x01\n        /* \"#utility.yul\":2922:2926   */\n      dup3\n        /* \"#utility.yul\":2918:2930   */\n      and\n        /* \"#utility.yul\":2949:2967   */\n      dup1\n        /* \"#utility.yul\":2939:3020   */\n      tag_99\n      jumpi\n        /* \"#utility.yul\":3005:3009   */\n      0x7f\n        /* \"#utility.yul\":2997:3003   */\n      dup3\n        /* \"#utility.yul\":2993:3010   */\n      and\n        /* \"#utility.yul\":2983:3010   */\n      swap2\n      pop\n        /* \"#utility.yul\":2939:3020   */\n    tag_99:\n        /* \"#utility.yul\":3067:3069   */\n      0x20\n        /* \"#utility.yul\":3059:3065   */\n      dup3\n        /* \"#utility.yul\":3056:3070   */\n      lt\n        /* \"#utility.yul\":3036:3054   */\n      dup2\n        /* \"#utility.yul\":3033:3071   */\n      eq\n        /* \"#utility.yul\":3030:3114   */\n      iszero\n      tag_100\n      jumpi\n        /* \"#utility.yul\":3086:3104   */\n      tag_101\n      tag_102\n      jump\t// in\n    tag_101:\n        /* \"#utility.yul\":3030:3114   */\n    tag_100:\n        /* \"#utility.yul\":2851:3120   */\n      pop\n        /* \"#utility.yul\":2800:3120   */\n      swap2\n      swap1\n      pop\n      jump\t// out\n        /* \"#utility.yul\":3126:3306   */\n    tag_102:\n        /* \"#utility.yul\":3174:3251   */\n      0x4e487b7100000000000000000000000000000000000000000000000000000000\n        /* \"#utility.yul\":3171:3172   */\n      0x00\n        /* \"#utility.yul\":3164:3252   */\n      mstore\n        /* \"#utility.yul\":3271:3275   */\n      0x22\n        /* \"#utility.yul\":3268:3269   */\n      0x04\n        /* \"#utility.yul\":3261:3276   */\n      mstore\n        /* \"#utility.yul\":3295:3299   */\n      0x24\n        /* \"#utility.yul\":3292:3293   */\n      0x00\n        /* \"#utility.yul\":3285:3300   */\n      revert\n        /* \"#utility.yul\":3312:3414   */\n    tag_72:\n        /* \"#utility.yul\":3353:3359   */\n      0x00\n        /* \"#utility.yul\":3404:3406   */\n      0x1f\n        /* \"#utility.yul\":3400:3407   */\n      not\n        /* \"#utility.yul\":3395:3397   */\n      0x1f\n        /* \"#utility.yul\":3388:3393   */\n      dup4\n        /* \"#utility.yul\":3384:3398   */\n      add\n        /* \"#utility.yul\":3380:3408   */\n      and\n        /* \"#utility.yul\":3370:3408   */\n      swap1\n      pop\n        /* \"#utility.yul\":3312:3414   */\n      swap2\n      swap1\n      pop\n      jump\t// out\n\n    auxdata: 0xa2646970667358221220950b1a74f6f09e1d3303bbde4a67c4b2031bc5488451ae28f0a14d6661deb23a64736f6c63430008070033\n}\n",
				"bytecode": {
					"linkReferences": {},
					"object": "60806040524360005542600155456002554460035541600460006101000a81548173ffffffffffffffffffffffffffffffffffffffff021916908373ffffffffffffffffffffffffffffffffffffffff160217905550466005556000366006919061006b929190610105565b5033600760006101000a81548173ffffffffffffffffffffffffffffffffffffffff021916908373ffffffffffffffffffffffffffffffffffffffff1602179055506000357fffffffff0000000000000000000000000000000000000000000000000000000016600760146101000a81548163ffffffff021916908360e01c0217905550346008553480156100ff57600080fd5b50610209565b828054610111906101a8565b90600052602060002090601f016020900481019282610133576000855561017a565b82601f1061014c57803560ff191683800117855561017a565b8280016001018555821561017a579182015b8281111561017957823582559160200191906001019061015e565b5b509050610187919061018b565b5090565b5b808211156101a457600081600090555060010161018c565b5090565b600060028204905060018216806101c057607f821691505b602082108114156101d4576101d36101da565b5b50919050565b7f4e487b7100000000000000000000000000000000000000000000000000000000600052602260045260246000fd5b610518806102186000396000f3fe608060405234801561001057600080fd5b506004361061009e5760003560e01c80637390278d116100665780637390278d146101395780638182a11f14610157578063adc879e914610175578063c2546f7b14610193578063f8184f73146101b15761009e565b806305062247146100a357806307be4e1e146100c157806318b66ea3146100df5780635df32c47146100fd57806361c99b921461011b575b600080fd5b6100ab6101cf565b6040516100b8919061039e565b60405180910390f35b6100c96101d5565b6040516100d69190610361565b60405180910390f35b6100e76101e8565b6040516100f49190610346565b60405180910390f35b61010561020e565b604051610112919061039e565b60405180910390f35b610123610214565b6040516101309190610346565b60405180910390f35b61014161023a565b60405161014e919061039e565b60405180910390f35b61015f610240565b60405161016c919061039e565b60405180910390f35b61017d610246565b60405161018a919061039e565b60405180910390f35b61019b61024c565b6040516101a8919061037c565b60405180910390f35b6101b96102da565b6040516101c6919061039e565b60405180910390f35b60005481565b600760149054906101000a900460e01b81565b600460009054906101000a900473ffffffffffffffffffffffffffffffffffffffff1681565b60035481565b600760009054906101000a900473ffffffffffffffffffffffffffffffffffffffff1681565b60025481565b60015481565b60055481565b6006805461025990610470565b80601f016020809104026020016040519081016040528092919081815260200182805461028590610470565b80156102d25780601f106102a7576101008083540402835291602001916102d2565b820191906000526020600020905b8154815290600101906020018083116102b557829003601f168201915b505050505081565b60085481565b6102e9816103d5565b82525050565b6102f8816103e7565b82525050565b6000610309826103b9565b61031381856103c4565b935061032381856020860161043d565b61032c816104d1565b840191505092915050565b61034081610433565b82525050565b600060208201905061035b60008301846102e0565b92915050565b600060208201905061037660008301846102ef565b92915050565b6000602082019050818103600083015261039681846102fe565b905092915050565b60006020820190506103b36000830184610337565b92915050565b600081519050919050565b600082825260208201905092915050565b60006103e082610413565b9050919050565b60007fffffffff0000000000000000000000000000000000000000000000000000000082169050919050565b600073ffffffffffffffffffffffffffffffffffffffff82169050919050565b6000819050919050565b60005b8381101561045b578082015181840152602081019050610440565b8381111561046a576000848401525b50505050565b6000600282049050600182168061048857607f821691505b6020821081141561049c5761049b6104a2565b5b50919050565b7f4e487b7100000000000000000000000000000000000000000000000000000000600052602260045260246000fd5b6000601f19601f830116905091905056fea2646970667358221220950b1a74f6f09e1d3303bbde4a67c4b2031bc5488451ae28f0a14d6661deb23a64736f6c63430008070033",
					"opcodes": "PUSH1 0x80 PUSH1 0x40 MSTORE NUMBER PUSH1 0x0 SSTORE TIMESTAMP PUSH1 0x1 SSTORE GASLIMIT PUSH1 0x2 SSTORE DIFFICULTY PUSH1 0x3 SSTORE COINBASE PUSH1 0x4 PUSH1 0x0 PUSH2 0x100 EXP DUP2 SLOAD DUP2 PUSH20 0xFFFFFFFFFFFFFFFFFFFFFFFFFFFFFFFFFFFFFFFF MUL NOT AND SWAP1 DUP4 PUSH20 0xFFFFFFFFFFFFFFFFFFFFFFFFFFFFFFFFFFFFFFFF AND MUL OR SWAP1 SSTORE POP CHAINID PUSH1 0x5 SSTORE PUSH1 0x0 CALLDATASIZE PUSH1 0x6 SWAP2 SWAP1 PUSH2 0x6B SWAP3 SWAP2 SWAP1 PUSH2 0x105 JUMP JUMPDEST POP CALLER PUSH1 0x7 PUSH1 0x0 PUSH2 0x100 EXP DUP2 SLOAD DUP2 PUSH20 0xFFFFFFFFFFFFFFFFFFFFFFFFFFFFFFFFFFFFFFFF MUL NOT AND SWAP1 DUP4 PUSH20 0xFFFFFFFFFFFFFFFFFFFFFFFFFFFFFFFFFFFFFFFF AND MUL OR SWAP1 SSTORE POP PUSH1 0x0 CALLDATALOAD PUSH32 0xFFFFFFFF00000000000000000000000000000000000000000000000000000000 AND PUSH1 0x7 PUSH1 0x14 PUSH2 0x100 EXP DUP2 SLOAD DUP2 PUSH4 0xFFFFFFFF MUL NOT AND SWAP1 DUP4 PUSH1 0xE0 SHR MUL OR SWAP1 SSTORE POP CALLVALUE PUSH1 0x8 SSTORE CALLVALUE DUP1 ISZERO PUSH2 0xFF JUMPI PUSH1 0x0 DUP1 REVERT JUMPDEST POP PUSH2 0x209 JUMP JUMPDEST DUP3 DUP1 SLOAD PUSH2 0x111 SWAP1 PUSH2 0x1A8 JUMP JUMPDEST SWAP1 PUSH1 0x0 MSTORE PUSH1 0x20 PUSH1 0x0 KECCAK256 SWAP1 PUSH1 0x1F ADD PUSH1 0x20 SWAP1 DIV DUP2 ADD SWAP3 DUP3 PUSH2 0x133 JUMPI PUSH1 0x0 DUP6 SSTORE PUSH2 0x17A JUMP JUMPDEST DUP3 PUSH1 0x1F LT PUSH2 0x14C JUMPI DUP1 CALLDATALOAD PUSH1 0xFF NOT AND DUP4 DUP1 ADD OR DUP6 SSTORE PUSH2 0x17A JUMP JUMPDEST DUP3 DUP1 ADD PUSH1 0x1 ADD DUP6 SSTORE DUP3 ISZERO PUSH2 0x17A JUMPI SWAP2 DUP3 ADD JUMPDEST DUP3 DUP2 GT ISZERO PUSH2 0x179 JUMPI DUP3 CALLDATALOAD DUP3 SSTORE SWAP2 PUSH1 0x20 ADD SWAP2 SWAP1 PUSH1 0x1 ADD SWAP1 PUSH2 0x15E JUMP JUMPDEST JUMPDEST POP SWAP1 POP PUSH2 0x187 SWAP2 SWAP1 PUSH2 0x18B JUMP JUMPDEST POP SWAP1 JUMP JUMPDEST JUMPDEST DUP1 DUP3 GT ISZERO PUSH2 0x1A4 JUMPI PUSH1 0x0 DUP2 PUSH1 0x0 SWAP1 SSTORE POP PUSH1 0x1 ADD PUSH2 0x18C JUMP JUMPDEST POP SWAP1 JUMP JUMPDEST PUSH1 0x0 PUSH1 0x2 DUP3 DIV SWAP1 POP PUSH1 0x1 DUP3 AND DUP1 PUSH2 0x1C0 JUMPI PUSH1 0x7F DUP3 AND SWAP2 POP JUMPDEST PUSH1 0x20 DUP3 LT DUP2 EQ ISZERO PUSH2 0x1D4 JUMPI PUSH2 0x1D3 PUSH2 0x1DA JUMP JUMPDEST JUMPDEST POP SWAP2 SWAP1 POP JUMP JUMPDEST PUSH32 0x4E487B7100000000000000000000000000000000000000000000000000000000 PUSH1 0x0 MSTORE PUSH1 0x22 PUSH1 0x4 MSTORE PUSH1 0x24 PUSH1 0x0 REVERT JUMPDEST PUSH2 0x518 DUP1 PUSH2 0x218 PUSH1 0x0 CODECOPY PUSH1 0x0 RETURN INVALID PUSH1 0x80 PUSH1 0x40 MSTORE CALLVALUE DUP1 ISZERO PUSH2 0x10 JUMPI PUSH1 0x0 DUP1 REVERT JUMPDEST POP PUSH1 0x4 CALLDATASIZE LT PUSH2 0x9E JUMPI PUSH1 0x0 CALLDATALOAD PUSH1 0xE0 SHR DUP1 PUSH4 0x7390278D GT PUSH2 0x66 JUMPI DUP1 PUSH4 0x7390278D EQ PUSH2 0x139 JUMPI DUP1 PUSH4 0x8182A11F EQ PUSH2 0x157 JUMPI DUP1 PUSH4 0xADC879E9 EQ PUSH2 0x175 JUMPI DUP1 PUSH4 0xC2546F7B EQ PUSH2 0x193 JUMPI DUP1 PUSH4 0xF8184F73 EQ PUSH2 0x1B1 JUMPI PUSH2 0x9E JUMP JUMPDEST DUP1 PUSH4 0x5062247 EQ PUSH2 0xA3 JUMPI DUP1 PUSH4 0x7BE4E1E EQ PUSH2 0xC1 JUMPI DUP1 PUSH4 0x18B66EA3 EQ PUSH2 0xDF JUMPI DUP1 PUSH4 0x5DF32C47 EQ PUSH2 0xFD JUMPI DUP1 PUSH4 0x61C99B92 EQ PUSH2 0x11B JUMPI JUMPDEST PUSH1 0x0 DUP1 REVERT JUMPDEST PUSH2 0xAB PUSH2 0x1CF JUMP JUMPDEST PUSH1 0x40 MLOAD PUSH2 0xB8 SWAP2 SWAP1 PUSH2 0x39E JUMP JUMPDEST PUSH1 0x40 MLOAD DUP1 SWAP2 SUB SWAP1 RETURN JUMPDEST PUSH2 0xC9 PUSH2 0x1D5 JUMP JUMPDEST PUSH1 0x40 MLOAD PUSH2 0xD6 SWAP2 SWAP1 PUSH2 0x361 JUMP JUMPDEST PUSH1 0x40 MLOAD DUP1 SWAP2 SUB SWAP1 RETURN JUMPDEST PUSH2 0xE7 PUSH2 0x1E8 JUMP JUMPDEST PUSH1 0x40 MLOAD PUSH2 0xF4 SWAP2 SWAP1 PUSH2 0x346 JUMP JUMPDEST PUSH1 0x40 MLOAD DUP1 SWAP2 SUB SWAP1 RETURN JUMPDEST PUSH2 0x105 PUSH2 0x20E JUMP JUMPDEST PUSH1 0x40 MLOAD PUSH2 0x112 SWAP2 SWAP1 PUSH2 0x39E JUMP JUMPDEST PUSH1 0x40 MLOAD DUP1 SWAP2 SUB SWAP1 RETURN JUMPDEST PUSH2 0x123 PUSH2 0x214 JUMP JUMPDEST PUSH1 0x40 MLOAD PUSH2 0x130 SWAP2 SWAP1 PUSH2 0x346 JUMP JUMPDEST PUSH1 0x40 MLOAD DUP1 SWAP2 SUB SWAP1 RETURN JUMPDEST PUSH2 0x141 PUSH2 0x23A JUMP JUMPDEST PUSH1 0x40 MLOAD PUSH2 0x14E SWAP2 SWAP1 PUSH2 0x39E JUMP JUMPDEST PUSH1 0x40 MLOAD DUP1 SWAP2 SUB SWAP1 RETURN JUMPDEST PUSH2 0x15F PUSH2 0x240 JUMP JUMPDEST PUSH1 0x40 MLOAD PUSH2 0x16C SWAP2 SWAP1 PUSH2 0x39E JUMP JUMPDEST PUSH1 0x40 MLOAD DUP1 SWAP2 SUB SWAP1 RETURN JUMPDEST PUSH2 0x17D PUSH2 0x246 JUMP JUMPDEST PUSH1 0x40 MLOAD PUSH2 0x18A SWAP2 SWAP1 PUSH2 0x39E JUMP JUMPDEST PUSH1 0x40 MLOAD DUP1 SWAP2 SUB SWAP1 RETURN JUMPDEST PUSH2 0x19B PUSH2 0x24C JUMP JUMPDEST PUSH1 0x40 MLOAD PUSH2 0x1A8 SWAP2 SWAP1 PUSH2 0x37C JUMP JUMPDEST PUSH1 0x40 MLOAD DUP1 SWAP2 SUB SWAP1 RETURN JUMPDEST PUSH2 0x1B9 PUSH2 0x2DA JUMP JUMPDEST PUSH1 0x40 MLOAD PUSH2 0x1C6 SWAP2 SWAP1 PUSH2 0x39E JUMP JUMPDEST PUSH1 0x40 MLOAD DUP1 SWAP2 SUB SWAP1 RETURN JUMPDEST PUSH1 0x0 SLOAD DUP2 JUMP JUMPDEST PUSH1 0x7 PUSH1 0x14 SWAP1 SLOAD SWAP1 PUSH2 0x100 EXP SWAP1 DIV PUSH1 0xE0 SHL DUP2 JUMP JUMPDEST PUSH1 0x4 PUSH1 0x0 SWAP1 SLOAD SWAP1 PUSH2 0x100 EXP SWAP1 DIV PUSH20 0xFFFFFFFFFFFFFFFFFFFFFFFFFFFFFFFFFFFFFFFF AND DUP2 JUMP JUMPDEST PUSH1 0x3 SLOAD DUP2 JUMP JUMPDEST PUSH1 0x7 PUSH1 0x0 SWAP1 SLOAD SWAP1 PUSH2 0x100 EXP SWAP1 DIV PUSH20 0xFFFFFFFFFFFFFFFFFFFFFFFFFFFFFFFFFFFFFFFF AND DUP2 JUMP JUMPDEST PUSH1 0x2 SLOAD DUP2 JUMP JUMPDEST PUSH1 0x1 SLOAD DUP2 JUMP JUMPDEST PUSH1 0x5 SLOAD DUP2 JUMP JUMPDEST PUSH1 0x6 DUP1 SLOAD PUSH2 0x259 SWAP1 PUSH2 0x470 JUMP JUMPDEST DUP1 PUSH1 0x1F ADD PUSH1 0x20 DUP1 SWAP2 DIV MUL PUSH1 0x20 ADD PUSH1 0x40 MLOAD SWAP1 DUP2 ADD PUSH1 0x40 MSTORE DUP1 SWAP3 SWAP2 SWAP1 DUP2 DUP2 MSTORE PUSH1 0x20 ADD DUP3 DUP1 SLOAD PUSH2 0x285 SWAP1 PUSH2 0x470 JUMP JUMPDEST DUP1 ISZERO PUSH2 0x2D2 JUMPI DUP1 PUSH1 0x1F LT PUSH2 0x2A7 JUMPI PUSH2 0x100 DUP1 DUP4 SLOAD DIV MUL DUP4 MSTORE SWAP2 PUSH1 0x20 ADD SWAP2 PUSH2 0x2D2 JUMP JUMPDEST DUP3 ADD SWAP2 SWAP1 PUSH1 0x0 MSTORE PUSH1 0x20 PUSH1 0x0 KECCAK256 SWAP1 JUMPDEST DUP2 SLOAD DUP2 MSTORE SWAP1 PUSH1 0x1 ADD SWAP1 PUSH1 0x20 ADD DUP1 DUP4 GT PUSH2 0x2B5 JUMPI DUP3 SWAP1 SUB PUSH1 0x1F AND DUP3 ADD SWAP2 JUMPDEST POP POP POP POP POP DUP2 JUMP JUMPDEST PUSH1 0x8 SLOAD DUP2 JUMP JUMPDEST PUSH2 0x2E9 DUP2 PUSH2 0x3D5 JUMP JUMPDEST DUP3 MSTORE POP POP JUMP JUMPDEST PUSH2 0x2F8 DUP2 PUSH2 0x3E7 JUMP JUMPDEST DUP3 MSTORE POP POP JUMP JUMPDEST PUSH1 0x0 PUSH2 0x309 DUP3 PUSH2 0x3B9 JUMP JUMPDEST PUSH2 0x313 DUP2 DUP6 PUSH2 0x3C4 JUMP JUMPDEST SWAP4 POP PUSH2 0x323 DUP2 DUP6 PUSH1 0x20 DUP7 ADD PUSH2 0x43D JUMP JUMPDEST PUSH2 0x32C DUP2 PUSH2 0x4D1 JUMP JUMPDEST DUP5 ADD SWAP2 POP POP SWAP3 SWAP2 POP POP JUMP JUMPDEST PUSH2 0x340 DUP2 PUSH2 0x433 JUMP JUMPDEST DUP3 MSTORE POP POP JUMP JUMPDEST PUSH1 0x0 PUSH1 0x20 DUP3 ADD SWAP1 POP PUSH2 0x35B PUSH1 0x0 DUP4 ADD DUP5 PUSH2 0x2E0 JUMP JUMPDEST SWAP3 SWAP2 POP POP JUMP JUMPDEST PUSH1 0x0 PUSH1 0x20 DUP3 ADD SWAP1 POP PUSH2 0x376 PUSH1 0x0 DUP4 ADD DUP5 PUSH2 0x2EF JUMP JUMPDEST SWAP3 SWAP2 POP POP JUMP JUMPDEST PUSH1 0x0 PUSH1 0x20 DUP3 ADD SWAP1 POP DUP2 DUP2 SUB PUSH1 0x0 DUP4 ADD MSTORE PUSH2 0x396 DUP2 DUP5 PUSH2 0x2FE JUMP JUMPDEST SWAP1 POP SWAP3 SWAP2 POP POP JUMP JUMPDEST PUSH1 0x0 PUSH1 0x20 DUP3 ADD SWAP1 POP PUSH2 0x3B3 PUSH1 0x0 DUP4 ADD DUP5 PUSH2 0x337 JUMP JUMPDEST SWAP3 SWAP2 POP POP JUMP JUMPDEST PUSH1 0x0 DUP2 MLOAD SWAP1 POP SWAP2 SWAP1 POP JUMP JUMPDEST PUSH1 0x0 DUP3 DUP3 MSTORE PUSH1 0x20 DUP3 ADD SWAP1 POP SWAP3 SWAP2 POP POP JUMP JUMPDEST PUSH1 0x0 PUSH2 0x3E0 DUP3 PUSH2 0x413 JUMP JUMPDEST SWAP1 POP SWAP2 SWAP1 POP JUMP JUMPDEST PUSH1 0x0 PUSH32 0xFFFFFFFF00000000000000000000000000000000000000000000000000000000 DUP3 AND SWAP1 POP SWAP2 SWAP1 POP JUMP JUMPDEST PUSH1 0x0 PUSH20 0xFFFFFFFFFFFFFFFFFFFFFFFFFFFFFFFFFFFFFFFF DUP3 AND SWAP1 POP SWAP2 SWAP1 POP JUMP JUMPDEST PUSH1 0x0 DUP2 SWAP1 POP SWAP2 SWAP1 POP JUMP JUMPDEST PUSH1 0x0 JUMPDEST DUP4 DUP2 LT ISZERO PUSH2 0x45B JUMPI DUP1 DUP3 ADD MLOAD DUP2 DUP5 ADD MSTORE PUSH1 0x20 DUP2 ADD SWAP1 POP PUSH2 0x440 JUMP JUMPDEST DUP4 DUP2 GT ISZERO PUSH2 0x46A JUMPI PUSH1 0x0 DUP5 DUP5 ADD MSTORE JUMPDEST POP POP POP POP JUMP JUMPDEST PUSH1 0x0 PUSH1 0x2 DUP3 DIV SWAP1 POP PUSH1 0x1 DUP3 AND DUP1 PUSH2 0x488 JUMPI PUSH1 0x7F DUP3 AND SWAP2 POP JUMPDEST PUSH1 0x20 DUP3 LT DUP2 EQ ISZERO PUSH2 0x49C JUMPI PUSH2 0x49B PUSH2 0x4A2 JUMP JUMPDEST JUMPDEST POP SWAP2 SWAP1 POP JUMP JUMPDEST PUSH32 0x4E487B7100000000000000000000000000000000000000000000000000000000 PUSH1 0x0 MSTORE PUSH1 0x22 PUSH1 0x4 MSTORE PUSH1 0x24 PUSH1 0x0 REVERT JUMPDEST PUSH1 0x0 PUSH1 0x1F NOT PUSH1 0x1F DUP4 ADD AND SWAP1 POP SWAP2 SWAP1 POP JUMP INVALID LOG2 PUSH5 0x6970667358 0x22 SLT KECCAK256 SWAP6 SIGNEXTEND BYTE PUSH21 0xF6F09E1D3303BBDE4A67C4B2031BC5488451AE28F0 LOG1 0x4D PUSH7 0x61DEB23A64736F PUSH13 0x63430008070033000000000000 "
				},
				"gasEstimates": {
					"creation": {
						"codeDepositCost": "260800",
						"executionCost": "infinite",
						"totalCost": "infinite"
					},
					"external": {
						"blockcoinbase()": "2559",
						"blockdifficulty()": "2496",
						"blockgaglimt()": "2429",
						"blocknumber()": "2430",
						"blocktimestamp()": "2451",
						"chainID()": "2473",
						"funcname()": "2544",
						"msgbytes()": "infinite",
						"msgsender()": "2603",
						"msgvalue()": "2517"
					}
				},
				"methodIdentifiers": {
					"blockcoinbase()": "18b66ea3",
					"blockdifficulty()": "5df32c47",
					"blockgaglimt()": "7390278d",
					"blocknumber()": "05062247",
					"blocktimestamp()": "8182a11f",
					"chainID()": "adc879e9",
					"funcname()": "07be4e1e",
					"msgbytes()": "c2546f7b",
					"msgsender()": "61c99b92",
					"msgvalue()": "f8184f73"
				}
			},
			"storageLayout": {
				"storage": [
					{
						"astId": 5,
						"contract": "study/chapter03/2innerfunc.sol:innerFunc",
						"label": "blocknumber",
						"offset": 0,
						"slot": "0",
						"type": "t_uint256"
					},
					{
						"astId": 9,
						"contract": "study/chapter03/2innerfunc.sol:innerFunc",
						"label": "blocktimestamp",
						"offset": 0,
						"slot": "1",
						"type": "t_uint256"
					},
					{
						"astId": 13,
						"contract": "study/chapter03/2innerfunc.sol:innerFunc",
						"label": "blockgaglimt",
						"offset": 0,
						"slot": "2",
						"type": "t_uint256"
					},
					{
						"astId": 17,
						"contract": "study/chapter03/2innerfunc.sol:innerFunc",
						"label": "blockdifficulty",
						"offset": 0,
						"slot": "3",
						"type": "t_uint256"
					},
					{
						"astId": 21,
						"contract": "study/chapter03/2innerfunc.sol:innerFunc",
						"label": "blockcoinbase",
						"offset": 0,
						"slot": "4",
						"type": "t_address"
					},
					{
						"astId": 25,
						"contract": "study/chapter03/2innerfunc.sol:innerFunc",
						"label": "chainID",
						"offset": 0,
						"slot": "5",
						"type": "t_uint256"
					},
					{
						"astId": 29,
						"contract": "study/chapter03/2innerfunc.sol:innerFunc",
						"label": "msgbytes",
						"offset": 0,
						"slot": "6",
						"type": "t_bytes_storage"
					},
					{
						"astId": 33,
						"contract": "study/chapter03/2innerfunc.sol:innerFunc",
						"label": "msgsender",
						"offset": 0,
						"slot": "7",
						"type": "t_address"
					},
					{
						"astId": 37,
						"contract": "study/chapter03/2innerfunc.sol:innerFunc",
						"label": "funcname",
						"offset": 20,
						"slot": "7",
						"type": "t_bytes4"
					},
					{
						"astId": 41,
						"contract": "study/chapter03/2innerfunc.sol:innerFunc",
						"label": "msgvalue",
						"offset": 0,
						"slot": "8",
						"type": "t_uint256"
					}
				],
				"types": {
					"t_address": {
						"encoding": "inplace",
						"label": "address",
						"numberOfBytes": "20"
					},
					"t_bytes4": {
						"encoding": "inplace",
						"label": "bytes4",
						"numberOfBytes": "4"
					},
					"t_bytes_storage": {
						"encoding": "bytes",
						"label": "bytes",
						"numberOfBytes": "32"
					},
					"t_uint256": {
						"encoding": "inplace",
						"label": "uint256",
						"numberOfBytes": "32"
					}
				}
			},
			"userdoc": {
				"kind": "user",
				"methods": {},
				"version": 1
			}
		}
	}
}