{
	"study/chapter03/abi.sol": {
		"testABI": {
			"abi": [
				{
					"inputs": [],
					"stateMutability": "nonpayable",
					"type": "constructor"
				},
				{
					"inputs": [],
					"name": "c",
					"outputs": [
						{
							"internalType": "bytes",
							"name": "",
							"type": "bytes"
						}
					],
					"stateMutability": "view",
					"type": "function"
				},
				{
					"inputs": [],
					"name": "d",
					"outputs": [
						{
							"internalType": "uint256",
							"name": "",
							"type": "uint256"
						}
					],
					"stateMutability": "view",
					"type": "function"
				},
				{
					"inputs": [],
					"name": "e",
					"outputs": [
						{
							"internalType": "int256",
							"name": "",
							"type": "int256"
						}
					],
					"stateMutability": "view",
					"type": "function"
				}
			],
			"devdoc": {
				"kind": "dev",
				"methods": {},
				"version": 1
			},
			"evm": {
				"assembly": "    /* \"study/chapter03/abi.sol\":54:236  contract testABI{... */\n  mstore(0x40, 0x80)\n    /* \"study/chapter03/abi.sol\":112:113  5 */\n  0x05\n    /* \"study/chapter03/abi.sol\":114:116  -1 */\n  0xffffffffffffffffffffffffffffffffffffffffffffffffffffffffffffffff\n    /* \"study/chapter03/abi.sol\":101:117  abi.encode(5,-1) */\n  add(0x20, mload(0x40))\n  tag_1\n  swap3\n  swap2\n  swap1\n  tag_2\n  jump\t// in\ntag_1:\n  mload(0x40)\n  0x20\n  dup2\n  dup4\n  sub\n  sub\n  dup2\n  mstore\n  swap1\n  0x40\n  mstore\n    /* \"study/chapter03/abi.sol\":84:117  bytes public c = abi.encode(5,-1) */\n  0x00\n  swap1\n  dup2\n  tag_3\n  swap2\n  swap1\n  tag_4\n  jump\t// in\ntag_3:\n  pop\n    /* \"study/chapter03/abi.sol\":172:234  constructor(){... */\n  callvalue\n  dup1\n  iszero\n  tag_5\n  jumpi\n  0x00\n  dup1\n  revert\ntag_5:\n  pop\n    /* \"study/chapter03/abi.sol\":214:215  c */\n  0x00\n    /* \"study/chapter03/abi.sol\":203:227  abi.decode(c,(uint,int)) */\n  dup1\n  sload\n  tag_8\n  swap1\n  tag_9\n  jump\t// in\ntag_8:\n  dup1\n  0x1f\n  add\n  0x20\n  dup1\n  swap2\n  div\n  mul\n  0x20\n  add\n  mload(0x40)\n  swap1\n  dup2\n  add\n  0x40\n  mstore\n  dup1\n  swap3\n  swap2\n  swap1\n  dup2\n  dup2\n  mstore\n  0x20\n  add\n  dup3\n  dup1\n  sload\n  tag_10\n  swap1\n  tag_9\n  jump\t// in\ntag_10:\n  dup1\n  iszero\n  tag_11\n  jumpi\n  dup1\n  0x1f\n  lt\n  tag_12\n  jumpi\n  0x0100\n  dup1\n  dup4\n  sload\n  div\n  mul\n  dup4\n  mstore\n  swap2\n  0x20\n  add\n  swap2\n  jump(tag_11)\ntag_12:\n  dup3\n  add\n  swap2\n  swap1\n  0x00\n  mstore\n  keccak256(0x00, 0x20)\n  swap1\ntag_13:\n  dup2\n  sload\n  dup2\n  mstore\n  swap1\n  0x01\n  add\n  swap1\n  0x20\n  add\n  dup1\n  dup4\n  gt\n  tag_13\n  jumpi\n  dup3\n  swap1\n  sub\n  0x1f\n  and\n  dup3\n  add\n  swap2\ntag_11:\n  pop\n  pop\n  pop\n  pop\n  pop\n  dup1\n  0x20\n  add\n  swap1\n  mload\n  dup2\n  add\n  swap1\n  tag_14\n  swap2\n  swap1\n  tag_15\n  jump\t// in\ntag_14:\n    /* \"study/chapter03/abi.sol\":196:197  d */\n  0x01\n  0x00\n    /* \"study/chapter03/abi.sol\":198:199  e */\n  0x02\n  0x00\n    /* \"study/chapter03/abi.sol\":195:227  (d,e) = abi.decode(c,(uint,int)) */\n  dup5\n  swap2\n  swap1\n  pop\n  sstore\n  dup4\n  swap2\n  swap1\n  pop\n  sstore\n  pop\n  pop\n    /* \"study/chapter03/abi.sol\":54:236  contract testABI{... */\n  jump(tag_16)\n    /* \"#utility.yul\":7:92   */\ntag_17:\n    /* \"#utility.yul\":52:59   */\n  0x00\n    /* \"#utility.yul\":81:86   */\n  dup2\n    /* \"#utility.yul\":70:86   */\n  swap1\n  pop\n    /* \"#utility.yul\":7:92   */\n  swap2\n  swap1\n  pop\n  jump\t// out\n    /* \"#utility.yul\":98:184   */\ntag_18:\n    /* \"#utility.yul\":133:140   */\n  0x00\n    /* \"#utility.yul\":173:177   */\n  0xff\n    /* \"#utility.yul\":166:171   */\n  dup3\n    /* \"#utility.yul\":162:178   */\n  and\n    /* \"#utility.yul\":151:178   */\n  swap1\n  pop\n    /* \"#utility.yul\":98:184   */\n  swap2\n  swap1\n  pop\n  jump\t// out\n    /* \"#utility.yul\":190:250   */\ntag_19:\n    /* \"#utility.yul\":218:221   */\n  0x00\n    /* \"#utility.yul\":239:244   */\n  dup2\n    /* \"#utility.yul\":232:244   */\n  swap1\n  pop\n    /* \"#utility.yul\":190:250   */\n  swap2\n  swap1\n  pop\n  jump\t// out\n    /* \"#utility.yul\":256:410   */\ntag_20:\n    /* \"#utility.yul\":312:321   */\n  0x00\n    /* \"#utility.yul\":345:404   */\n  tag_57\n    /* \"#utility.yul\":361:403   */\n  tag_58\n    /* \"#utility.yul\":370:402   */\n  tag_59\n    /* \"#utility.yul\":396:401   */\n  dup5\n    /* \"#utility.yul\":370:402   */\n  tag_17\n  jump\t// in\ntag_59:\n    /* \"#utility.yul\":361:403   */\n  tag_19\n  jump\t// in\ntag_58:\n    /* \"#utility.yul\":345:404   */\n  tag_18\n  jump\t// in\ntag_57:\n    /* \"#utility.yul\":332:404   */\n  swap1\n  pop\n    /* \"#utility.yul\":256:410   */\n  swap2\n  swap1\n  pop\n  jump\t// out\n    /* \"#utility.yul\":416:559   */\ntag_21:\n    /* \"#utility.yul\":509:552   */\n  tag_61\n    /* \"#utility.yul\":546:551   */\n  dup2\n    /* \"#utility.yul\":509:552   */\n  tag_20\n  jump\t// in\ntag_61:\n    /* \"#utility.yul\":504:507   */\n  dup3\n    /* \"#utility.yul\":497:553   */\n  mstore\n    /* \"#utility.yul\":416:559   */\n  pop\n  pop\n  jump\t// out\n    /* \"#utility.yul\":565:656   */\ntag_22:\n    /* \"#utility.yul\":616:623   */\n  0x00\n    /* \"#utility.yul\":645:650   */\n  dup2\n    /* \"#utility.yul\":634:650   */\n  swap1\n  pop\n    /* \"#utility.yul\":565:656   */\n  swap2\n  swap1\n  pop\n  jump\t// out\n    /* \"#utility.yul\":662:751   */\ntag_23:\n    /* \"#utility.yul\":696:703   */\n  0x00\n    /* \"#utility.yul\":739:744   */\n  dup2\n    /* \"#utility.yul\":736:737   */\n  0x00\n    /* \"#utility.yul\":725:745   */\n  signextend\n    /* \"#utility.yul\":714:745   */\n  swap1\n  pop\n    /* \"#utility.yul\":662:751   */\n  swap2\n  swap1\n  pop\n  jump\t// out\n    /* \"#utility.yul\":757:921   */\ntag_24:\n    /* \"#utility.yul\":818:827   */\n  0x00\n    /* \"#utility.yul\":851:915   */\n  tag_65\n    /* \"#utility.yul\":866:914   */\n  tag_66\n    /* \"#utility.yul\":875:913   */\n  tag_67\n    /* \"#utility.yul\":907:912   */\n  dup5\n    /* \"#utility.yul\":875:913   */\n  tag_22\n  jump\t// in\ntag_67:\n    /* \"#utility.yul\":866:914   */\n  tag_19\n  jump\t// in\ntag_66:\n    /* \"#utility.yul\":851:915   */\n  tag_23\n  jump\t// in\ntag_65:\n    /* \"#utility.yul\":838:915   */\n  swap1\n  pop\n    /* \"#utility.yul\":757:921   */\n  swap2\n  swap1\n  pop\n  jump\t// out\n    /* \"#utility.yul\":927:1080   */\ntag_25:\n    /* \"#utility.yul\":1025:1073   */\n  tag_69\n    /* \"#utility.yul\":1067:1072   */\n  dup2\n    /* \"#utility.yul\":1025:1073   */\n  tag_24\n  jump\t// in\ntag_69:\n    /* \"#utility.yul\":1020:1023   */\n  dup3\n    /* \"#utility.yul\":1013:1074   */\n  mstore\n    /* \"#utility.yul\":927:1080   */\n  pop\n  pop\n  jump\t// out\n    /* \"#utility.yul\":1086:1452   */\ntag_2:\n    /* \"#utility.yul\":1224:1228   */\n  0x00\n    /* \"#utility.yul\":1262:1264   */\n  0x40\n    /* \"#utility.yul\":1251:1260   */\n  dup3\n    /* \"#utility.yul\":1247:1265   */\n  add\n    /* \"#utility.yul\":1239:1265   */\n  swap1\n  pop\n    /* \"#utility.yul\":1275:1352   */\n  tag_71\n    /* \"#utility.yul\":1349:1350   */\n  0x00\n    /* \"#utility.yul\":1338:1347   */\n  dup4\n    /* \"#utility.yul\":1334:1351   */\n  add\n    /* \"#utility.yul\":1325:1331   */\n  dup6\n    /* \"#utility.yul\":1275:1352   */\n  tag_21\n  jump\t// in\ntag_71:\n    /* \"#utility.yul\":1362:1445   */\n  tag_72\n    /* \"#utility.yul\":1441:1443   */\n  0x20\n    /* \"#utility.yul\":1430:1439   */\n  dup4\n    /* \"#utility.yul\":1426:1444   */\n  add\n    /* \"#utility.yul\":1417:1423   */\n  dup5\n    /* \"#utility.yul\":1362:1445   */\n  tag_25\n  jump\t// in\ntag_72:\n    /* \"#utility.yul\":1086:1452   */\n  swap4\n  swap3\n  pop\n  pop\n  pop\n  jump\t// out\n    /* \"#utility.yul\":1458:1556   */\ntag_26:\n    /* \"#utility.yul\":1509:1515   */\n  0x00\n    /* \"#utility.yul\":1543:1548   */\n  dup2\n    /* \"#utility.yul\":1537:1549   */\n  mload\n    /* \"#utility.yul\":1527:1549   */\n  swap1\n  pop\n    /* \"#utility.yul\":1458:1556   */\n  swap2\n  swap1\n  pop\n  jump\t// out\n    /* \"#utility.yul\":1562:1742   */\ntag_27:\n    /* \"#utility.yul\":1610:1687   */\n  0x4e487b7100000000000000000000000000000000000000000000000000000000\n    /* \"#utility.yul\":1607:1608   */\n  0x00\n    /* \"#utility.yul\":1600:1688   */\n  mstore\n    /* \"#utility.yul\":1707:1711   */\n  0x41\n    /* \"#utility.yul\":1704:1705   */\n  0x04\n    /* \"#utility.yul\":1697:1712   */\n  mstore\n    /* \"#utility.yul\":1731:1735   */\n  0x24\n    /* \"#utility.yul\":1728:1729   */\n  0x00\n    /* \"#utility.yul\":1721:1736   */\n  revert\n    /* \"#utility.yul\":1748:1928   */\ntag_28:\n    /* \"#utility.yul\":1796:1873   */\n  0x4e487b7100000000000000000000000000000000000000000000000000000000\n    /* \"#utility.yul\":1793:1794   */\n  0x00\n    /* \"#utility.yul\":1786:1874   */\n  mstore\n    /* \"#utility.yul\":1893:1897   */\n  0x22\n    /* \"#utility.yul\":1890:1891   */\n  0x04\n    /* \"#utility.yul\":1883:1898   */\n  mstore\n    /* \"#utility.yul\":1917:1921   */\n  0x24\n    /* \"#utility.yul\":1914:1915   */\n  0x00\n    /* \"#utility.yul\":1907:1922   */\n  revert\n    /* \"#utility.yul\":1934:2254   */\ntag_9:\n    /* \"#utility.yul\":1978:1984   */\n  0x00\n    /* \"#utility.yul\":2015:2016   */\n  0x02\n    /* \"#utility.yul\":2009:2013   */\n  dup3\n    /* \"#utility.yul\":2005:2017   */\n  div\n    /* \"#utility.yul\":1995:2017   */\n  swap1\n  pop\n    /* \"#utility.yul\":2062:2063   */\n  0x01\n    /* \"#utility.yul\":2056:2060   */\n  dup3\n    /* \"#utility.yul\":2052:2064   */\n  and\n    /* \"#utility.yul\":2083:2101   */\n  dup1\n    /* \"#utility.yul\":2073:2154   */\n  tag_77\n  jumpi\n    /* \"#utility.yul\":2139:2143   */\n  0x7f\n    /* \"#utility.yul\":2131:2137   */\n  dup3\n    /* \"#utility.yul\":2127:2144   */\n  and\n    /* \"#utility.yul\":2117:2144   */\n  swap2\n  pop\n    /* \"#utility.yul\":2073:2154   */\ntag_77:\n    /* \"#utility.yul\":2201:2203   */\n  0x20\n    /* \"#utility.yul\":2193:2199   */\n  dup3\n    /* \"#utility.yul\":2190:2204   */\n  lt\n    /* \"#utility.yul\":2170:2188   */\n  dup2\n    /* \"#utility.yul\":2167:2205   */\n  sub\n    /* \"#utility.yul\":2164:2248   */\n  tag_78\n  jumpi\n    /* \"#utility.yul\":2220:2238   */\n  tag_79\n  tag_28\n  jump\t// in\ntag_79:\n    /* \"#utility.yul\":2164:2248   */\ntag_78:\n    /* \"#utility.yul\":1985:2254   */\n  pop\n    /* \"#utility.yul\":1934:2254   */\n  swap2\n  swap1\n  pop\n  jump\t// out\n    /* \"#utility.yul\":2260:2400   */\ntag_29:\n    /* \"#utility.yul\":2308:2312   */\n  0x00\n    /* \"#utility.yul\":2331:2334   */\n  dup2\n    /* \"#utility.yul\":2323:2334   */\n  swap1\n  pop\n    /* \"#utility.yul\":2354:2357   */\n  dup2\n    /* \"#utility.yul\":2351:2352   */\n  0x00\n    /* \"#utility.yul\":2344:2358   */\n  mstore\n    /* \"#utility.yul\":2388:2392   */\n  0x20\n    /* \"#utility.yul\":2385:2386   */\n  0x00\n    /* \"#utility.yul\":2375:2393   */\n  keccak256\n    /* \"#utility.yul\":2367:2393   */\n  swap1\n  pop\n    /* \"#utility.yul\":2260:2400   */\n  swap2\n  swap1\n  pop\n  jump\t// out\n    /* \"#utility.yul\":2406:2499   */\ntag_30:\n    /* \"#utility.yul\":2443:2449   */\n  0x00\n    /* \"#utility.yul\":2490:2492   */\n  0x20\n    /* \"#utility.yul\":2485:2487   */\n  0x1f\n    /* \"#utility.yul\":2478:2483   */\n  dup4\n    /* \"#utility.yul\":2474:2488   */\n  add\n    /* \"#utility.yul\":2470:2493   */\n  div\n    /* \"#utility.yul\":2460:2493   */\n  swap1\n  pop\n    /* \"#utility.yul\":2406:2499   */\n  swap2\n  swap1\n  pop\n  jump\t// out\n    /* \"#utility.yul\":2505:2612   */\ntag_31:\n    /* \"#utility.yul\":2549:2557   */\n  0x00\n    /* \"#utility.yul\":2599:2604   */\n  dup3\n    /* \"#utility.yul\":2593:2597   */\n  dup3\n    /* \"#utility.yul\":2589:2605   */\n  shl\n    /* \"#utility.yul\":2568:2605   */\n  swap1\n  pop\n    /* \"#utility.yul\":2505:2612   */\n  swap3\n  swap2\n  pop\n  pop\n  jump\t// out\n    /* \"#utility.yul\":2618:3011   */\ntag_32:\n    /* \"#utility.yul\":2687:2693   */\n  0x00\n    /* \"#utility.yul\":2737:2738   */\n  0x08\n    /* \"#utility.yul\":2725:2735   */\n  dup4\n    /* \"#utility.yul\":2721:2739   */\n  mul\n    /* \"#utility.yul\":2760:2857   */\n  tag_84\n    /* \"#utility.yul\":2790:2856   */\n  0xffffffffffffffffffffffffffffffffffffffffffffffffffffffffffffffff\n    /* \"#utility.yul\":2779:2788   */\n  dup3\n    /* \"#utility.yul\":2760:2857   */\n  tag_31\n  jump\t// in\ntag_84:\n    /* \"#utility.yul\":2878:2917   */\n  tag_85\n    /* \"#utility.yul\":2908:2916   */\n  dup7\n    /* \"#utility.yul\":2897:2906   */\n  dup4\n    /* \"#utility.yul\":2878:2917   */\n  tag_31\n  jump\t// in\ntag_85:\n    /* \"#utility.yul\":2866:2917   */\n  swap6\n  pop\n    /* \"#utility.yul\":2950:2954   */\n  dup1\n    /* \"#utility.yul\":2946:2955   */\n  not\n    /* \"#utility.yul\":2939:2944   */\n  dup5\n    /* \"#utility.yul\":2935:2956   */\n  and\n    /* \"#utility.yul\":2926:2956   */\n  swap4\n  pop\n    /* \"#utility.yul\":2999:3003   */\n  dup1\n    /* \"#utility.yul\":2989:2997   */\n  dup7\n    /* \"#utility.yul\":2985:3004   */\n  and\n    /* \"#utility.yul\":2978:2983   */\n  dup5\n    /* \"#utility.yul\":2975:3005   */\n  or\n    /* \"#utility.yul\":2965:3005   */\n  swap3\n  pop\n    /* \"#utility.yul\":2694:3011   */\n  pop\n  pop\n    /* \"#utility.yul\":2618:3011   */\n  swap4\n  swap3\n  pop\n  pop\n  pop\n  jump\t// out\n    /* \"#utility.yul\":3017:3094   */\ntag_33:\n    /* \"#utility.yul\":3054:3061   */\n  0x00\n    /* \"#utility.yul\":3083:3088   */\n  dup2\n    /* \"#utility.yul\":3072:3088   */\n  swap1\n  pop\n    /* \"#utility.yul\":3017:3094   */\n  swap2\n  swap1\n  pop\n  jump\t// out\n    /* \"#utility.yul\":3100:3242   */\ntag_34:\n    /* \"#utility.yul\":3150:3159   */\n  0x00\n    /* \"#utility.yul\":3183:3236   */\n  tag_88\n    /* \"#utility.yul\":3201:3235   */\n  tag_89\n    /* \"#utility.yul\":3210:3234   */\n  tag_90\n    /* \"#utility.yul\":3228:3233   */\n  dup5\n    /* \"#utility.yul\":3210:3234   */\n  tag_33\n  jump\t// in\ntag_90:\n    /* \"#utility.yul\":3201:3235   */\n  tag_19\n  jump\t// in\ntag_89:\n    /* \"#utility.yul\":3183:3236   */\n  tag_33\n  jump\t// in\ntag_88:\n    /* \"#utility.yul\":3170:3236   */\n  swap1\n  pop\n    /* \"#utility.yul\":3100:3242   */\n  swap2\n  swap1\n  pop\n  jump\t// out\n    /* \"#utility.yul\":3248:3323   */\ntag_35:\n    /* \"#utility.yul\":3291:3294   */\n  0x00\n    /* \"#utility.yul\":3312:3317   */\n  dup2\n    /* \"#utility.yul\":3305:3317   */\n  swap1\n  pop\n    /* \"#utility.yul\":3248:3323   */\n  swap2\n  swap1\n  pop\n  jump\t// out\n    /* \"#utility.yul\":3329:3598   */\ntag_36:\n    /* \"#utility.yul\":3439:3478   */\n  tag_93\n    /* \"#utility.yul\":3470:3477   */\n  dup4\n    /* \"#utility.yul\":3439:3478   */\n  tag_34\n  jump\t// in\ntag_93:\n    /* \"#utility.yul\":3500:3591   */\n  tag_94\n    /* \"#utility.yul\":3549:3590   */\n  tag_95\n    /* \"#utility.yul\":3573:3589   */\n  dup3\n    /* \"#utility.yul\":3549:3590   */\n  tag_35\n  jump\t// in\ntag_95:\n    /* \"#utility.yul\":3541:3547   */\n  dup5\n    /* \"#utility.yul\":3534:3538   */\n  dup5\n    /* \"#utility.yul\":3528:3539   */\n  sload\n    /* \"#utility.yul\":3500:3591   */\n  tag_32\n  jump\t// in\ntag_94:\n    /* \"#utility.yul\":3494:3498   */\n  dup3\n    /* \"#utility.yul\":3487:3592   */\n  sstore\n    /* \"#utility.yul\":3405:3598   */\n  pop\n    /* \"#utility.yul\":3329:3598   */\n  pop\n  pop\n  pop\n  jump\t// out\n    /* \"#utility.yul\":3604:3677   */\ntag_37:\n    /* \"#utility.yul\":3649:3652   */\n  0x00\n    /* \"#utility.yul\":3604:3677   */\n  swap1\n  jump\t// out\n    /* \"#utility.yul\":3683:3872   */\ntag_38:\n    /* \"#utility.yul\":3760:3792   */\n  tag_98\n  tag_37\n  jump\t// in\ntag_98:\n    /* \"#utility.yul\":3801:3866   */\n  tag_99\n    /* \"#utility.yul\":3859:3865   */\n  dup2\n    /* \"#utility.yul\":3851:3857   */\n  dup5\n    /* \"#utility.yul\":3845:3849   */\n  dup5\n    /* \"#utility.yul\":3801:3866   */\n  tag_36\n  jump\t// in\ntag_99:\n    /* \"#utility.yul\":3736:3872   */\n  pop\n    /* \"#utility.yul\":3683:3872   */\n  pop\n  pop\n  jump\t// out\n    /* \"#utility.yul\":3878:4064   */\ntag_39:\n    /* \"#utility.yul\":3938:4058   */\ntag_101:\n    /* \"#utility.yul\":3955:3958   */\n  dup2\n    /* \"#utility.yul\":3948:3953   */\n  dup2\n    /* \"#utility.yul\":3945:3959   */\n  lt\n    /* \"#utility.yul\":3938:4058   */\n  iszero\n  tag_103\n  jumpi\n    /* \"#utility.yul\":4009:4048   */\n  tag_104\n    /* \"#utility.yul\":4046:4047   */\n  0x00\n    /* \"#utility.yul\":4039:4044   */\n  dup3\n    /* \"#utility.yul\":4009:4048   */\n  tag_38\n  jump\t// in\ntag_104:\n    /* \"#utility.yul\":3982:3983   */\n  0x01\n    /* \"#utility.yul\":3975:3980   */\n  dup2\n    /* \"#utility.yul\":3971:3984   */\n  add\n    /* \"#utility.yul\":3962:3984   */\n  swap1\n  pop\n    /* \"#utility.yul\":3938:4058   */\n  jump(tag_101)\ntag_103:\n    /* \"#utility.yul\":3878:4064   */\n  pop\n  pop\n  jump\t// out\n    /* \"#utility.yul\":4070:4611   */\ntag_40:\n    /* \"#utility.yul\":4170:4172   */\n  0x1f\n    /* \"#utility.yul\":4165:4168   */\n  dup3\n    /* \"#utility.yul\":4162:4173   */\n  gt\n    /* \"#utility.yul\":4159:4604   */\n  iszero\n  tag_106\n  jumpi\n    /* \"#utility.yul\":4204:4241   */\n  tag_107\n    /* \"#utility.yul\":4235:4240   */\n  dup2\n    /* \"#utility.yul\":4204:4241   */\n  tag_29\n  jump\t// in\ntag_107:\n    /* \"#utility.yul\":4287:4316   */\n  tag_108\n    /* \"#utility.yul\":4305:4315   */\n  dup5\n    /* \"#utility.yul\":4287:4316   */\n  tag_30\n  jump\t// in\ntag_108:\n    /* \"#utility.yul\":4277:4285   */\n  dup2\n    /* \"#utility.yul\":4273:4317   */\n  add\n    /* \"#utility.yul\":4470:4472   */\n  0x20\n    /* \"#utility.yul\":4458:4468   */\n  dup6\n    /* \"#utility.yul\":4455:4473   */\n  lt\n    /* \"#utility.yul\":4452:4501   */\n  iszero\n  tag_109\n  jumpi\n    /* \"#utility.yul\":4491:4499   */\n  dup2\n    /* \"#utility.yul\":4476:4499   */\n  swap1\n  pop\n    /* \"#utility.yul\":4452:4501   */\ntag_109:\n    /* \"#utility.yul\":4514:4594   */\n  tag_110\n    /* \"#utility.yul\":4570:4592   */\n  tag_111\n    /* \"#utility.yul\":4588:4591   */\n  dup6\n    /* \"#utility.yul\":4570:4592   */\n  tag_30\n  jump\t// in\ntag_111:\n    /* \"#utility.yul\":4560:4568   */\n  dup4\n    /* \"#utility.yul\":4556:4593   */\n  add\n    /* \"#utility.yul\":4543:4554   */\n  dup3\n    /* \"#utility.yul\":4514:4594   */\n  tag_39\n  jump\t// in\ntag_110:\n    /* \"#utility.yul\":4174:4604   */\n  pop\n  pop\n    /* \"#utility.yul\":4159:4604   */\ntag_106:\n    /* \"#utility.yul\":4070:4611   */\n  pop\n  pop\n  pop\n  jump\t// out\n    /* \"#utility.yul\":4617:4734   */\ntag_41:\n    /* \"#utility.yul\":4671:4679   */\n  0x00\n    /* \"#utility.yul\":4721:4726   */\n  dup3\n    /* \"#utility.yul\":4715:4719   */\n  dup3\n    /* \"#utility.yul\":4711:4727   */\n  shr\n    /* \"#utility.yul\":4690:4727   */\n  swap1\n  pop\n    /* \"#utility.yul\":4617:4734   */\n  swap3\n  swap2\n  pop\n  pop\n  jump\t// out\n    /* \"#utility.yul\":4740:4909   */\ntag_42:\n    /* \"#utility.yul\":4784:4790   */\n  0x00\n    /* \"#utility.yul\":4817:4868   */\n  tag_114\n    /* \"#utility.yul\":4865:4866   */\n  0x00\n    /* \"#utility.yul\":4861:4867   */\n  not\n    /* \"#utility.yul\":4853:4858   */\n  dup5\n    /* \"#utility.yul\":4850:4851   */\n  0x08\n    /* \"#utility.yul\":4846:4859   */\n  mul\n    /* \"#utility.yul\":4817:4868   */\n  tag_41\n  jump\t// in\ntag_114:\n    /* \"#utility.yul\":4813:4869   */\n  not\n    /* \"#utility.yul\":4898:4902   */\n  dup1\n    /* \"#utility.yul\":4892:4896   */\n  dup4\n    /* \"#utility.yul\":4888:4903   */\n  and\n    /* \"#utility.yul\":4878:4903   */\n  swap2\n  pop\n    /* \"#utility.yul\":4791:4909   */\n  pop\n    /* \"#utility.yul\":4740:4909   */\n  swap3\n  swap2\n  pop\n  pop\n  jump\t// out\n    /* \"#utility.yul\":4914:5209   */\ntag_43:\n    /* \"#utility.yul\":4990:4994   */\n  0x00\n    /* \"#utility.yul\":5136:5165   */\n  tag_116\n    /* \"#utility.yul\":5161:5164   */\n  dup4\n    /* \"#utility.yul\":5155:5159   */\n  dup4\n    /* \"#utility.yul\":5136:5165   */\n  tag_42\n  jump\t// in\ntag_116:\n    /* \"#utility.yul\":5128:5165   */\n  swap2\n  pop\n    /* \"#utility.yul\":5198:5201   */\n  dup3\n    /* \"#utility.yul\":5195:5196   */\n  0x02\n    /* \"#utility.yul\":5191:5202   */\n  mul\n    /* \"#utility.yul\":5185:5189   */\n  dup3\n    /* \"#utility.yul\":5182:5203   */\n  or\n    /* \"#utility.yul\":5174:5203   */\n  swap1\n  pop\n    /* \"#utility.yul\":4914:5209   */\n  swap3\n  swap2\n  pop\n  pop\n  jump\t// out\n    /* \"#utility.yul\":5214:6604   */\ntag_4:\n    /* \"#utility.yul\":5329:5365   */\n  tag_118\n    /* \"#utility.yul\":5361:5364   */\n  dup3\n    /* \"#utility.yul\":5329:5365   */\n  tag_26\n  jump\t// in\ntag_118:\n    /* \"#utility.yul\":5430:5448   */\n  0xffffffffffffffff\n    /* \"#utility.yul\":5422:5428   */\n  dup2\n    /* \"#utility.yul\":5419:5449   */\n  gt\n    /* \"#utility.yul\":5416:5472   */\n  iszero\n  tag_119\n  jumpi\n    /* \"#utility.yul\":5452:5470   */\n  tag_120\n  tag_27\n  jump\t// in\ntag_120:\n    /* \"#utility.yul\":5416:5472   */\ntag_119:\n    /* \"#utility.yul\":5496:5534   */\n  tag_121\n    /* \"#utility.yul\":5528:5532   */\n  dup3\n    /* \"#utility.yul\":5522:5533   */\n  sload\n    /* \"#utility.yul\":5496:5534   */\n  tag_9\n  jump\t// in\ntag_121:\n    /* \"#utility.yul\":5581:5647   */\n  tag_122\n    /* \"#utility.yul\":5640:5646   */\n  dup3\n    /* \"#utility.yul\":5632:5638   */\n  dup3\n    /* \"#utility.yul\":5626:5630   */\n  dup6\n    /* \"#utility.yul\":5581:5647   */\n  tag_40\n  jump\t// in\ntag_122:\n    /* \"#utility.yul\":5674:5675   */\n  0x00\n    /* \"#utility.yul\":5698:5702   */\n  0x20\n    /* \"#utility.yul\":5685:5702   */\n  swap1\n  pop\n    /* \"#utility.yul\":5730:5732   */\n  0x1f\n    /* \"#utility.yul\":5722:5728   */\n  dup4\n    /* \"#utility.yul\":5719:5733   */\n  gt\n    /* \"#utility.yul\":5747:5748   */\n  0x01\n    /* \"#utility.yul\":5742:6359   */\n  dup2\n  eq\n  tag_124\n  jumpi\n    /* \"#utility.yul\":6403:6404   */\n  0x00\n    /* \"#utility.yul\":6420:6426   */\n  dup5\n    /* \"#utility.yul\":6417:6494   */\n  iszero\n  tag_125\n  jumpi\n    /* \"#utility.yul\":6469:6478   */\n  dup3\n    /* \"#utility.yul\":6464:6467   */\n  dup8\n    /* \"#utility.yul\":6460:6479   */\n  add\n    /* \"#utility.yul\":6454:6480   */\n  mload\n    /* \"#utility.yul\":6445:6480   */\n  swap1\n  pop\n    /* \"#utility.yul\":6417:6494   */\ntag_125:\n    /* \"#utility.yul\":6520:6587   */\n  tag_126\n    /* \"#utility.yul\":6580:6586   */\n  dup6\n    /* \"#utility.yul\":6573:6578   */\n  dup3\n    /* \"#utility.yul\":6520:6587   */\n  tag_43\n  jump\t// in\ntag_126:\n    /* \"#utility.yul\":6514:6518   */\n  dup7\n    /* \"#utility.yul\":6507:6588   */\n  sstore\n    /* \"#utility.yul\":6376:6598   */\n  pop\n    /* \"#utility.yul\":5712:6598   */\n  jump(tag_123)\n    /* \"#utility.yul\":5742:6359   */\ntag_124:\n    /* \"#utility.yul\":5794:5798   */\n  0x1f\n    /* \"#utility.yul\":5790:5799   */\n  not\n    /* \"#utility.yul\":5782:5788   */\n  dup5\n    /* \"#utility.yul\":5778:5800   */\n  and\n    /* \"#utility.yul\":5828:5864   */\n  tag_127\n    /* \"#utility.yul\":5859:5863   */\n  dup7\n    /* \"#utility.yul\":5828:5864   */\n  tag_29\n  jump\t// in\ntag_127:\n    /* \"#utility.yul\":5886:5887   */\n  0x00\n    /* \"#utility.yul\":5900:6108   */\ntag_128:\n    /* \"#utility.yul\":5914:5921   */\n  dup3\n    /* \"#utility.yul\":5911:5912   */\n  dup2\n    /* \"#utility.yul\":5908:5922   */\n  lt\n    /* \"#utility.yul\":5900:6108   */\n  iszero\n  tag_130\n  jumpi\n    /* \"#utility.yul\":5993:6002   */\n  dup5\n    /* \"#utility.yul\":5988:5991   */\n  dup10\n    /* \"#utility.yul\":5984:6003   */\n  add\n    /* \"#utility.yul\":5978:6004   */\n  mload\n    /* \"#utility.yul\":5970:5976   */\n  dup3\n    /* \"#utility.yul\":5963:6005   */\n  sstore\n    /* \"#utility.yul\":6044:6045   */\n  0x01\n    /* \"#utility.yul\":6036:6042   */\n  dup3\n    /* \"#utility.yul\":6032:6046   */\n  add\n    /* \"#utility.yul\":6022:6046   */\n  swap2\n  pop\n    /* \"#utility.yul\":6091:6093   */\n  0x20\n    /* \"#utility.yul\":6080:6089   */\n  dup6\n    /* \"#utility.yul\":6076:6094   */\n  add\n    /* \"#utility.yul\":6063:6094   */\n  swap5\n  pop\n    /* \"#utility.yul\":5937:5941   */\n  0x20\n    /* \"#utility.yul\":5934:5935   */\n  dup2\n    /* \"#utility.yul\":5930:5942   */\n  add\n    /* \"#utility.yul\":5925:5942   */\n  swap1\n  pop\n    /* \"#utility.yul\":5900:6108   */\n  jump(tag_128)\ntag_130:\n    /* \"#utility.yul\":6136:6142   */\n  dup7\n    /* \"#utility.yul\":6127:6134   */\n  dup4\n    /* \"#utility.yul\":6124:6143   */\n  lt\n    /* \"#utility.yul\":6121:6300   */\n  iszero\n  tag_131\n  jumpi\n    /* \"#utility.yul\":6194:6203   */\n  dup5\n    /* \"#utility.yul\":6189:6192   */\n  dup10\n    /* \"#utility.yul\":6185:6204   */\n  add\n    /* \"#utility.yul\":6179:6205   */\n  mload\n    /* \"#utility.yul\":6237:6285   */\n  tag_132\n    /* \"#utility.yul\":6279:6283   */\n  0x1f\n    /* \"#utility.yul\":6271:6277   */\n  dup10\n    /* \"#utility.yul\":6267:6284   */\n  and\n    /* \"#utility.yul\":6256:6265   */\n  dup3\n    /* \"#utility.yul\":6237:6285   */\n  tag_42\n  jump\t// in\ntag_132:\n    /* \"#utility.yul\":6229:6235   */\n  dup4\n    /* \"#utility.yul\":6222:6286   */\n  sstore\n    /* \"#utility.yul\":6144:6300   */\n  pop\n    /* \"#utility.yul\":6121:6300   */\ntag_131:\n    /* \"#utility.yul\":6346:6347   */\n  0x01\n    /* \"#utility.yul\":6342:6343   */\n  0x02\n    /* \"#utility.yul\":6334:6340   */\n  dup9\n    /* \"#utility.yul\":6330:6344   */\n  mul\n    /* \"#utility.yul\":6326:6348   */\n  add\n    /* \"#utility.yul\":6320:6324   */\n  dup9\n    /* \"#utility.yul\":6313:6349   */\n  sstore\n    /* \"#utility.yul\":5749:6359   */\n  pop\n  pop\n  pop\n    /* \"#utility.yul\":5712:6598   */\ntag_123:\n  pop\n    /* \"#utility.yul\":5304:6604   */\n  pop\n  pop\n  pop\n    /* \"#utility.yul\":5214:6604   */\n  pop\n  pop\n  jump\t// out\n    /* \"#utility.yul\":6691:6808   */\ntag_45:\n    /* \"#utility.yul\":6800:6801   */\n  0x00\n    /* \"#utility.yul\":6797:6798   */\n  dup1\n    /* \"#utility.yul\":6790:6802   */\n  revert\n    /* \"#utility.yul\":6937:7059   */\ntag_47:\n    /* \"#utility.yul\":7010:7034   */\n  tag_137\n    /* \"#utility.yul\":7028:7033   */\n  dup2\n    /* \"#utility.yul\":7010:7034   */\n  tag_33\n  jump\t// in\ntag_137:\n    /* \"#utility.yul\":7003:7008   */\n  dup2\n    /* \"#utility.yul\":7000:7035   */\n  eq\n    /* \"#utility.yul\":6990:7053   */\n  tag_138\n  jumpi\n    /* \"#utility.yul\":7049:7050   */\n  0x00\n    /* \"#utility.yul\":7046:7047   */\n  dup1\n    /* \"#utility.yul\":7039:7051   */\n  revert\n    /* \"#utility.yul\":6990:7053   */\ntag_138:\n    /* \"#utility.yul\":6937:7059   */\n  pop\n  jump\t// out\n    /* \"#utility.yul\":7065:7208   */\ntag_48:\n    /* \"#utility.yul\":7122:7127   */\n  0x00\n    /* \"#utility.yul\":7153:7159   */\n  dup2\n    /* \"#utility.yul\":7147:7160   */\n  mload\n    /* \"#utility.yul\":7138:7160   */\n  swap1\n  pop\n    /* \"#utility.yul\":7169:7202   */\n  tag_140\n    /* \"#utility.yul\":7196:7201   */\n  dup2\n    /* \"#utility.yul\":7169:7202   */\n  tag_47\n  jump\t// in\ntag_140:\n    /* \"#utility.yul\":7065:7208   */\n  swap3\n  swap2\n  pop\n  pop\n  jump\t// out\n    /* \"#utility.yul\":7214:7290   */\ntag_49:\n    /* \"#utility.yul\":7250:7257   */\n  0x00\n    /* \"#utility.yul\":7279:7284   */\n  dup2\n    /* \"#utility.yul\":7268:7284   */\n  swap1\n  pop\n    /* \"#utility.yul\":7214:7290   */\n  swap2\n  swap1\n  pop\n  jump\t// out\n    /* \"#utility.yul\":7296:7416   */\ntag_50:\n    /* \"#utility.yul\":7368:7391   */\n  tag_143\n    /* \"#utility.yul\":7385:7390   */\n  dup2\n    /* \"#utility.yul\":7368:7391   */\n  tag_49\n  jump\t// in\ntag_143:\n    /* \"#utility.yul\":7361:7366   */\n  dup2\n    /* \"#utility.yul\":7358:7392   */\n  eq\n    /* \"#utility.yul\":7348:7410   */\n  tag_144\n  jumpi\n    /* \"#utility.yul\":7406:7407   */\n  0x00\n    /* \"#utility.yul\":7403:7404   */\n  dup1\n    /* \"#utility.yul\":7396:7408   */\n  revert\n    /* \"#utility.yul\":7348:7410   */\ntag_144:\n    /* \"#utility.yul\":7296:7416   */\n  pop\n  jump\t// out\n    /* \"#utility.yul\":7422:7563   */\ntag_51:\n    /* \"#utility.yul\":7478:7483   */\n  0x00\n    /* \"#utility.yul\":7509:7515   */\n  dup2\n    /* \"#utility.yul\":7503:7516   */\n  mload\n    /* \"#utility.yul\":7494:7516   */\n  swap1\n  pop\n    /* \"#utility.yul\":7525:7557   */\n  tag_146\n    /* \"#utility.yul\":7551:7556   */\n  dup2\n    /* \"#utility.yul\":7525:7557   */\n  tag_50\n  jump\t// in\ntag_146:\n    /* \"#utility.yul\":7422:7563   */\n  swap3\n  swap2\n  pop\n  pop\n  jump\t// out\n    /* \"#utility.yul\":7569:8074   */\ntag_15:\n    /* \"#utility.yul\":7647:7653   */\n  0x00\n    /* \"#utility.yul\":7655:7661   */\n  dup1\n    /* \"#utility.yul\":7704:7706   */\n  0x40\n    /* \"#utility.yul\":7692:7701   */\n  dup4\n    /* \"#utility.yul\":7683:7690   */\n  dup6\n    /* \"#utility.yul\":7679:7702   */\n  sub\n    /* \"#utility.yul\":7675:7707   */\n  slt\n    /* \"#utility.yul\":7672:7791   */\n  iszero\n  tag_148\n  jumpi\n    /* \"#utility.yul\":7710:7789   */\n  tag_149\n  tag_45\n  jump\t// in\ntag_149:\n    /* \"#utility.yul\":7672:7791   */\ntag_148:\n    /* \"#utility.yul\":7830:7831   */\n  0x00\n    /* \"#utility.yul\":7855:7919   */\n  tag_150\n    /* \"#utility.yul\":7911:7918   */\n  dup6\n    /* \"#utility.yul\":7902:7908   */\n  dup3\n    /* \"#utility.yul\":7891:7900   */\n  dup7\n    /* \"#utility.yul\":7887:7909   */\n  add\n    /* \"#utility.yul\":7855:7919   */\n  tag_48\n  jump\t// in\ntag_150:\n    /* \"#utility.yul\":7845:7919   */\n  swap3\n  pop\n    /* \"#utility.yul\":7801:7929   */\n  pop\n    /* \"#utility.yul\":7968:7970   */\n  0x20\n    /* \"#utility.yul\":7994:8057   */\n  tag_151\n    /* \"#utility.yul\":8049:8056   */\n  dup6\n    /* \"#utility.yul\":8040:8046   */\n  dup3\n    /* \"#utility.yul\":8029:8038   */\n  dup7\n    /* \"#utility.yul\":8025:8047   */\n  add\n    /* \"#utility.yul\":7994:8057   */\n  tag_51\n  jump\t// in\ntag_151:\n    /* \"#utility.yul\":7984:8057   */\n  swap2\n  pop\n    /* \"#utility.yul\":7939:8067   */\n  pop\n    /* \"#utility.yul\":7569:8074   */\n  swap3\n  pop\n  swap3\n  swap1\n  pop\n  jump\t// out\n    /* \"study/chapter03/abi.sol\":54:236  contract testABI{... */\ntag_16:\n  dataSize(sub_0)\n  dup1\n  dataOffset(sub_0)\n  0x00\n  codecopy\n  0x00\n  return\nstop\n\nsub_0: assembly {\n        /* \"study/chapter03/abi.sol\":54:236  contract testABI{... */\n      mstore(0x40, 0x80)\n      callvalue\n      dup1\n      iszero\n      tag_1\n      jumpi\n      0x00\n      dup1\n      revert\n    tag_1:\n      pop\n      jumpi(tag_2, lt(calldatasize, 0x04))\n      shr(0xe0, calldataload(0x00))\n      dup1\n      0x8a054ac2\n      eq\n      tag_3\n      jumpi\n      dup1\n      0xc3da42b8\n      eq\n      tag_4\n      jumpi\n      dup1\n      0xffae15ba\n      eq\n      tag_5\n      jumpi\n    tag_2:\n      0x00\n      dup1\n      revert\n        /* \"study/chapter03/abi.sol\":123:136  uint public d */\n    tag_3:\n      tag_6\n      tag_7\n      jump\t// in\n    tag_6:\n      mload(0x40)\n      tag_8\n      swap2\n      swap1\n      tag_9\n      jump\t// in\n    tag_8:\n      mload(0x40)\n      dup1\n      swap2\n      sub\n      swap1\n      return\n        /* \"study/chapter03/abi.sol\":84:117  bytes public c = abi.encode(5,-1) */\n    tag_4:\n      tag_10\n      tag_11\n      jump\t// in\n    tag_10:\n      mload(0x40)\n      tag_12\n      swap2\n      swap1\n      tag_13\n      jump\t// in\n    tag_12:\n      mload(0x40)\n      dup1\n      swap2\n      sub\n      swap1\n      return\n        /* \"study/chapter03/abi.sol\":145:157  int public e */\n    tag_5:\n      tag_14\n      tag_15\n      jump\t// in\n    tag_14:\n      mload(0x40)\n      tag_16\n      swap2\n      swap1\n      tag_17\n      jump\t// in\n    tag_16:\n      mload(0x40)\n      dup1\n      swap2\n      sub\n      swap1\n      return\n        /* \"study/chapter03/abi.sol\":123:136  uint public d */\n    tag_7:\n      sload(0x01)\n      dup2\n      jump\t// out\n        /* \"study/chapter03/abi.sol\":84:117  bytes public c = abi.encode(5,-1) */\n    tag_11:\n      0x00\n      dup1\n      sload\n      tag_18\n      swap1\n      tag_19\n      jump\t// in\n    tag_18:\n      dup1\n      0x1f\n      add\n      0x20\n      dup1\n      swap2\n      div\n      mul\n      0x20\n      add\n      mload(0x40)\n      swap1\n      dup2\n      add\n      0x40\n      mstore\n      dup1\n      swap3\n      swap2\n      swap1\n      dup2\n      dup2\n      mstore\n      0x20\n      add\n      dup3\n      dup1\n      sload\n      tag_20\n      swap1\n      tag_19\n      jump\t// in\n    tag_20:\n      dup1\n      iszero\n      tag_21\n      jumpi\n      dup1\n      0x1f\n      lt\n      tag_22\n      jumpi\n      0x0100\n      dup1\n      dup4\n      sload\n      div\n      mul\n      dup4\n      mstore\n      swap2\n      0x20\n      add\n      swap2\n      jump(tag_21)\n    tag_22:\n      dup3\n      add\n      swap2\n      swap1\n      0x00\n      mstore\n      keccak256(0x00, 0x20)\n      swap1\n    tag_23:\n      dup2\n      sload\n      dup2\n      mstore\n      swap1\n      0x01\n      add\n      swap1\n      0x20\n      add\n      dup1\n      dup4\n      gt\n      tag_23\n      jumpi\n      dup3\n      swap1\n      sub\n      0x1f\n      and\n      dup3\n      add\n      swap2\n    tag_21:\n      pop\n      pop\n      pop\n      pop\n      pop\n      dup2\n      jump\t// out\n        /* \"study/chapter03/abi.sol\":145:157  int public e */\n    tag_15:\n      sload(0x02)\n      dup2\n      jump\t// out\n        /* \"#utility.yul\":7:84   */\n    tag_24:\n        /* \"#utility.yul\":44:51   */\n      0x00\n        /* \"#utility.yul\":73:78   */\n      dup2\n        /* \"#utility.yul\":62:78   */\n      swap1\n      pop\n        /* \"#utility.yul\":7:84   */\n      swap2\n      swap1\n      pop\n      jump\t// out\n        /* \"#utility.yul\":90:208   */\n    tag_25:\n        /* \"#utility.yul\":177:201   */\n      tag_37\n        /* \"#utility.yul\":195:200   */\n      dup2\n        /* \"#utility.yul\":177:201   */\n      tag_24\n      jump\t// in\n    tag_37:\n        /* \"#utility.yul\":172:175   */\n      dup3\n        /* \"#utility.yul\":165:202   */\n      mstore\n        /* \"#utility.yul\":90:208   */\n      pop\n      pop\n      jump\t// out\n        /* \"#utility.yul\":214:436   */\n    tag_9:\n        /* \"#utility.yul\":307:311   */\n      0x00\n        /* \"#utility.yul\":345:347   */\n      0x20\n        /* \"#utility.yul\":334:343   */\n      dup3\n        /* \"#utility.yul\":330:348   */\n      add\n        /* \"#utility.yul\":322:348   */\n      swap1\n      pop\n        /* \"#utility.yul\":358:429   */\n      tag_39\n        /* \"#utility.yul\":426:427   */\n      0x00\n        /* \"#utility.yul\":415:424   */\n      dup4\n        /* \"#utility.yul\":411:428   */\n      add\n        /* \"#utility.yul\":402:408   */\n      dup5\n        /* \"#utility.yul\":358:429   */\n      tag_25\n      jump\t// in\n    tag_39:\n        /* \"#utility.yul\":214:436   */\n      swap3\n      swap2\n      pop\n      pop\n      jump\t// out\n        /* \"#utility.yul\":442:540   */\n    tag_26:\n        /* \"#utility.yul\":493:499   */\n      0x00\n        /* \"#utility.yul\":527:532   */\n      dup2\n        /* \"#utility.yul\":521:533   */\n      mload\n        /* \"#utility.yul\":511:533   */\n      swap1\n      pop\n        /* \"#utility.yul\":442:540   */\n      swap2\n      swap1\n      pop\n      jump\t// out\n        /* \"#utility.yul\":546:714   */\n    tag_27:\n        /* \"#utility.yul\":629:640   */\n      0x00\n        /* \"#utility.yul\":663:669   */\n      dup3\n        /* \"#utility.yul\":658:661   */\n      dup3\n        /* \"#utility.yul\":651:670   */\n      mstore\n        /* \"#utility.yul\":703:707   */\n      0x20\n        /* \"#utility.yul\":698:701   */\n      dup3\n        /* \"#utility.yul\":694:708   */\n      add\n        /* \"#utility.yul\":679:708   */\n      swap1\n      pop\n        /* \"#utility.yul\":546:714   */\n      swap3\n      swap2\n      pop\n      pop\n      jump\t// out\n        /* \"#utility.yul\":720:1027   */\n    tag_28:\n        /* \"#utility.yul\":788:789   */\n      0x00\n        /* \"#utility.yul\":798:911   */\n    tag_43:\n        /* \"#utility.yul\":812:818   */\n      dup4\n        /* \"#utility.yul\":809:810   */\n      dup2\n        /* \"#utility.yul\":806:819   */\n      lt\n        /* \"#utility.yul\":798:911   */\n      iszero\n      tag_45\n      jumpi\n        /* \"#utility.yul\":897:898   */\n      dup1\n        /* \"#utility.yul\":892:895   */\n      dup3\n        /* \"#utility.yul\":888:899   */\n      add\n        /* \"#utility.yul\":882:900   */\n      mload\n        /* \"#utility.yul\":878:879   */\n      dup2\n        /* \"#utility.yul\":873:876   */\n      dup5\n        /* \"#utility.yul\":869:880   */\n      add\n        /* \"#utility.yul\":862:901   */\n      mstore\n        /* \"#utility.yul\":834:836   */\n      0x20\n        /* \"#utility.yul\":831:832   */\n      dup2\n        /* \"#utility.yul\":827:837   */\n      add\n        /* \"#utility.yul\":822:837   */\n      swap1\n      pop\n        /* \"#utility.yul\":798:911   */\n      jump(tag_43)\n    tag_45:\n        /* \"#utility.yul\":929:935   */\n      dup4\n        /* \"#utility.yul\":926:927   */\n      dup2\n        /* \"#utility.yul\":923:936   */\n      gt\n        /* \"#utility.yul\":920:1021   */\n      iszero\n      tag_46\n      jumpi\n        /* \"#utility.yul\":1009:1010   */\n      0x00\n        /* \"#utility.yul\":1000:1006   */\n      dup5\n        /* \"#utility.yul\":995:998   */\n      dup5\n        /* \"#utility.yul\":991:1007   */\n      add\n        /* \"#utility.yul\":984:1011   */\n      mstore\n        /* \"#utility.yul\":920:1021   */\n    tag_46:\n        /* \"#utility.yul\":769:1027   */\n      pop\n        /* \"#utility.yul\":720:1027   */\n      pop\n      pop\n      pop\n      jump\t// out\n        /* \"#utility.yul\":1033:1135   */\n    tag_29:\n        /* \"#utility.yul\":1074:1080   */\n      0x00\n        /* \"#utility.yul\":1125:1127   */\n      0x1f\n        /* \"#utility.yul\":1121:1128   */\n      not\n        /* \"#utility.yul\":1116:1118   */\n      0x1f\n        /* \"#utility.yul\":1109:1114   */\n      dup4\n        /* \"#utility.yul\":1105:1119   */\n      add\n        /* \"#utility.yul\":1101:1129   */\n      and\n        /* \"#utility.yul\":1091:1129   */\n      swap1\n      pop\n        /* \"#utility.yul\":1033:1135   */\n      swap2\n      swap1\n      pop\n      jump\t// out\n        /* \"#utility.yul\":1141:1501   */\n    tag_30:\n        /* \"#utility.yul\":1227:1230   */\n      0x00\n        /* \"#utility.yul\":1255:1293   */\n      tag_49\n        /* \"#utility.yul\":1287:1292   */\n      dup3\n        /* \"#utility.yul\":1255:1293   */\n      tag_26\n      jump\t// in\n    tag_49:\n        /* \"#utility.yul\":1309:1379   */\n      tag_50\n        /* \"#utility.yul\":1372:1378   */\n      dup2\n        /* \"#utility.yul\":1367:1370   */\n      dup6\n        /* \"#utility.yul\":1309:1379   */\n      tag_27\n      jump\t// in\n    tag_50:\n        /* \"#utility.yul\":1302:1379   */\n      swap4\n      pop\n        /* \"#utility.yul\":1388:1440   */\n      tag_51\n        /* \"#utility.yul\":1433:1439   */\n      dup2\n        /* \"#utility.yul\":1428:1431   */\n      dup6\n        /* \"#utility.yul\":1421:1425   */\n      0x20\n        /* \"#utility.yul\":1414:1419   */\n      dup7\n        /* \"#utility.yul\":1410:1426   */\n      add\n        /* \"#utility.yul\":1388:1440   */\n      tag_28\n      jump\t// in\n    tag_51:\n        /* \"#utility.yul\":1465:1494   */\n      tag_52\n        /* \"#utility.yul\":1487:1493   */\n      dup2\n        /* \"#utility.yul\":1465:1494   */\n      tag_29\n      jump\t// in\n    tag_52:\n        /* \"#utility.yul\":1460:1463   */\n      dup5\n        /* \"#utility.yul\":1456:1495   */\n      add\n        /* \"#utility.yul\":1449:1495   */\n      swap2\n      pop\n        /* \"#utility.yul\":1231:1501   */\n      pop\n        /* \"#utility.yul\":1141:1501   */\n      swap3\n      swap2\n      pop\n      pop\n      jump\t// out\n        /* \"#utility.yul\":1507:1816   */\n    tag_13:\n        /* \"#utility.yul\":1618:1622   */\n      0x00\n        /* \"#utility.yul\":1656:1658   */\n      0x20\n        /* \"#utility.yul\":1645:1654   */\n      dup3\n        /* \"#utility.yul\":1641:1659   */\n      add\n        /* \"#utility.yul\":1633:1659   */\n      swap1\n      pop\n        /* \"#utility.yul\":1705:1714   */\n      dup2\n        /* \"#utility.yul\":1699:1703   */\n      dup2\n        /* \"#utility.yul\":1695:1715   */\n      sub\n        /* \"#utility.yul\":1691:1692   */\n      0x00\n        /* \"#utility.yul\":1680:1689   */\n      dup4\n        /* \"#utility.yul\":1676:1693   */\n      add\n        /* \"#utility.yul\":1669:1716   */\n      mstore\n        /* \"#utility.yul\":1733:1809   */\n      tag_54\n        /* \"#utility.yul\":1804:1808   */\n      dup2\n        /* \"#utility.yul\":1795:1801   */\n      dup5\n        /* \"#utility.yul\":1733:1809   */\n      tag_30\n      jump\t// in\n    tag_54:\n        /* \"#utility.yul\":1725:1809   */\n      swap1\n      pop\n        /* \"#utility.yul\":1507:1816   */\n      swap3\n      swap2\n      pop\n      pop\n      jump\t// out\n        /* \"#utility.yul\":1822:1898   */\n    tag_31:\n        /* \"#utility.yul\":1858:1865   */\n      0x00\n        /* \"#utility.yul\":1887:1892   */\n      dup2\n        /* \"#utility.yul\":1876:1892   */\n      swap1\n      pop\n        /* \"#utility.yul\":1822:1898   */\n      swap2\n      swap1\n      pop\n      jump\t// out\n        /* \"#utility.yul\":1904:2019   */\n    tag_32:\n        /* \"#utility.yul\":1989:2012   */\n      tag_57\n        /* \"#utility.yul\":2006:2011   */\n      dup2\n        /* \"#utility.yul\":1989:2012   */\n      tag_31\n      jump\t// in\n    tag_57:\n        /* \"#utility.yul\":1984:1987   */\n      dup3\n        /* \"#utility.yul\":1977:2013   */\n      mstore\n        /* \"#utility.yul\":1904:2019   */\n      pop\n      pop\n      jump\t// out\n        /* \"#utility.yul\":2025:2243   */\n    tag_17:\n        /* \"#utility.yul\":2116:2120   */\n      0x00\n        /* \"#utility.yul\":2154:2156   */\n      0x20\n        /* \"#utility.yul\":2143:2152   */\n      dup3\n        /* \"#utility.yul\":2139:2157   */\n      add\n        /* \"#utility.yul\":2131:2157   */\n      swap1\n      pop\n        /* \"#utility.yul\":2167:2236   */\n      tag_59\n        /* \"#utility.yul\":2233:2234   */\n      0x00\n        /* \"#utility.yul\":2222:2231   */\n      dup4\n        /* \"#utility.yul\":2218:2235   */\n      add\n        /* \"#utility.yul\":2209:2215   */\n      dup5\n        /* \"#utility.yul\":2167:2236   */\n      tag_32\n      jump\t// in\n    tag_59:\n        /* \"#utility.yul\":2025:2243   */\n      swap3\n      swap2\n      pop\n      pop\n      jump\t// out\n        /* \"#utility.yul\":2249:2429   */\n    tag_33:\n        /* \"#utility.yul\":2297:2374   */\n      0x4e487b7100000000000000000000000000000000000000000000000000000000\n        /* \"#utility.yul\":2294:2295   */\n      0x00\n        /* \"#utility.yul\":2287:2375   */\n      mstore\n        /* \"#utility.yul\":2394:2398   */\n      0x22\n        /* \"#utility.yul\":2391:2392   */\n      0x04\n        /* \"#utility.yul\":2384:2399   */\n      mstore\n        /* \"#utility.yul\":2418:2422   */\n      0x24\n        /* \"#utility.yul\":2415:2416   */\n      0x00\n        /* \"#utility.yul\":2408:2423   */\n      revert\n        /* \"#utility.yul\":2435:2755   */\n    tag_19:\n        /* \"#utility.yul\":2479:2485   */\n      0x00\n        /* \"#utility.yul\":2516:2517   */\n      0x02\n        /* \"#utility.yul\":2510:2514   */\n      dup3\n        /* \"#utility.yul\":2506:2518   */\n      div\n        /* \"#utility.yul\":2496:2518   */\n      swap1\n      pop\n        /* \"#utility.yul\":2563:2564   */\n      0x01\n        /* \"#utility.yul\":2557:2561   */\n      dup3\n        /* \"#utility.yul\":2553:2565   */\n      and\n        /* \"#utility.yul\":2584:2602   */\n      dup1\n        /* \"#utility.yul\":2574:2655   */\n      tag_62\n      jumpi\n        /* \"#utility.yul\":2640:2644   */\n      0x7f\n        /* \"#utility.yul\":2632:2638   */\n      dup3\n        /* \"#utility.yul\":2628:2645   */\n      and\n        /* \"#utility.yul\":2618:2645   */\n      swap2\n      pop\n        /* \"#utility.yul\":2574:2655   */\n    tag_62:\n        /* \"#utility.yul\":2702:2704   */\n      0x20\n        /* \"#utility.yul\":2694:2700   */\n      dup3\n        /* \"#utility.yul\":2691:2705   */\n      lt\n        /* \"#utility.yul\":2671:2689   */\n      dup2\n        /* \"#utility.yul\":2668:2706   */\n      sub\n        /* \"#utility.yul\":2665:2749   */\n      tag_63\n      jumpi\n        /* \"#utility.yul\":2721:2739   */\n      tag_64\n      tag_33\n      jump\t// in\n    tag_64:\n        /* \"#utility.yul\":2665:2749   */\n    tag_63:\n        /* \"#utility.yul\":2486:2755   */\n      pop\n        /* \"#utility.yul\":2435:2755   */\n      swap2\n      swap1\n      pop\n      jump\t// out\n\n    auxdata: 0xa26469706673582212201ffb68f0fbe016d16ca2ac91be123159b4d80cee07a96f9033fee9b8df7a5f8864736f6c634300080f0033\n}\n",
				"bytecode": {
					"linkReferences": {},
					"object": "608060405260057fffffffffffffffffffffffffffffffffffffffffffffffffffffffffffffffff6040516020016200003a929190620001d4565b6040516020818303038152906040526000908162000059919062000471565b503480156200006757600080fd5b506000805462000077906200026a565b80601f0160208091040260200160405190810160405280929190818152602001828054620000a5906200026a565b8015620000f65780601f10620000ca57610100808354040283529160200191620000f6565b820191906000526020600020905b815481529060010190602001808311620000d857829003601f168201915b5050505050806020019051810190620001109190620005c9565b600160006002600084919050558391905055505062000610565b6000819050919050565b600060ff82169050919050565b6000819050919050565b60006200016c6200016662000160846200012a565b62000141565b62000134565b9050919050565b6200017e816200014b565b82525050565b6000819050919050565b60008160000b9050919050565b6000620001bc620001b6620001b08462000184565b62000141565b6200018e565b9050919050565b620001ce816200019b565b82525050565b6000604082019050620001eb600083018562000173565b620001fa6020830184620001c3565b9392505050565b600081519050919050565b7f4e487b7100000000000000000000000000000000000000000000000000000000600052604160045260246000fd5b7f4e487b7100000000000000000000000000000000000000000000000000000000600052602260045260246000fd5b600060028204905060018216806200028357607f821691505b6020821081036200029957620002986200023b565b5b50919050565b60008190508160005260206000209050919050565b60006020601f8301049050919050565b600082821b905092915050565b600060088302620003037fffffffffffffffffffffffffffffffffffffffffffffffffffffffffffffffff82620002c4565b6200030f8683620002c4565b95508019841693508086168417925050509392505050565b6000819050919050565b6000620003526200034c620003468462000327565b62000141565b62000327565b9050919050565b6000819050919050565b6200036e8362000331565b620003866200037d8262000359565b848454620002d1565b825550505050565b600090565b6200039d6200038e565b620003aa81848462000363565b505050565b5b81811015620003d257620003c660008262000393565b600181019050620003b0565b5050565b601f8211156200042157620003eb816200029f565b620003f684620002b4565b8101602085101562000406578190505b6200041e6200041585620002b4565b830182620003af565b50505b505050565b600082821c905092915050565b6000620004466000198460080262000426565b1980831691505092915050565b600062000461838362000433565b9150826002028217905092915050565b6200047c8262000201565b67ffffffffffffffff8111156200049857620004976200020c565b5b620004a482546200026a565b620004b1828285620003d6565b600060209050601f831160018114620004e95760008415620004d4578287015190505b620004e0858262000453565b86555062000550565b601f198416620004f9866200029f565b60005b828110156200052357848901518255600182019150602085019450602081019050620004fc565b868310156200054357848901516200053f601f89168262000433565b8355505b6001600288020188555050505b505050505050565b600080fd5b620005688162000327565b81146200057457600080fd5b50565b60008151905062000588816200055d565b92915050565b6000819050919050565b620005a3816200058e565b8114620005af57600080fd5b50565b600081519050620005c38162000598565b92915050565b60008060408385031215620005e357620005e262000558565b5b6000620005f38582860162000577565b92505060206200060685828601620005b2565b9150509250929050565b6102f380620006206000396000f3fe608060405234801561001057600080fd5b50600436106100415760003560e01c80638a054ac214610046578063c3da42b814610064578063ffae15ba14610082575b600080fd5b61004e6100a0565b60405161005b9190610153565b60405180910390f35b61006c6100a6565b6040516100799190610207565b60405180910390f35b61008a610134565b6040516100979190610242565b60405180910390f35b60015481565b600080546100b39061028c565b80601f01602080910402602001604051908101604052809291908181526020018280546100df9061028c565b801561012c5780601f106101015761010080835404028352916020019161012c565b820191906000526020600020905b81548152906001019060200180831161010f57829003601f168201915b505050505081565b60025481565b6000819050919050565b61014d8161013a565b82525050565b60006020820190506101686000830184610144565b92915050565b600081519050919050565b600082825260208201905092915050565b60005b838110156101a857808201518184015260208101905061018d565b838111156101b7576000848401525b50505050565b6000601f19601f8301169050919050565b60006101d98261016e565b6101e38185610179565b93506101f381856020860161018a565b6101fc816101bd565b840191505092915050565b6000602082019050818103600083015261022181846101ce565b905092915050565b6000819050919050565b61023c81610229565b82525050565b60006020820190506102576000830184610233565b92915050565b7f4e487b7100000000000000000000000000000000000000000000000000000000600052602260045260246000fd5b600060028204905060018216806102a457607f821691505b6020821081036102b7576102b661025d565b5b5091905056fea26469706673582212201ffb68f0fbe016d16ca2ac91be123159b4d80cee07a96f9033fee9b8df7a5f8864736f6c634300080f0033",
					"opcodes": "PUSH1 0x80 PUSH1 0x40 MSTORE PUSH1 0x5 PUSH32 0xFFFFFFFFFFFFFFFFFFFFFFFFFFFFFFFFFFFFFFFFFFFFFFFFFFFFFFFFFFFFFFFF PUSH1 0x40 MLOAD PUSH1 0x20 ADD PUSH3 0x3A SWAP3 SWAP2 SWAP1 PUSH3 0x1D4 JUMP JUMPDEST PUSH1 0x40 MLOAD PUSH1 0x20 DUP2 DUP4 SUB SUB DUP2 MSTORE SWAP1 PUSH1 0x40 MSTORE PUSH1 0x0 SWAP1 DUP2 PUSH3 0x59 SWAP2 SWAP1 PUSH3 0x471 JUMP JUMPDEST POP CALLVALUE DUP1 ISZERO PUSH3 0x67 JUMPI PUSH1 0x0 DUP1 REVERT JUMPDEST POP PUSH1 0x0 DUP1 SLOAD PUSH3 0x77 SWAP1 PUSH3 0x26A JUMP JUMPDEST DUP1 PUSH1 0x1F ADD PUSH1 0x20 DUP1 SWAP2 DIV MUL PUSH1 0x20 ADD PUSH1 0x40 MLOAD SWAP1 DUP2 ADD PUSH1 0x40 MSTORE DUP1 SWAP3 SWAP2 SWAP1 DUP2 DUP2 MSTORE PUSH1 0x20 ADD DUP3 DUP1 SLOAD PUSH3 0xA5 SWAP1 PUSH3 0x26A JUMP JUMPDEST DUP1 ISZERO PUSH3 0xF6 JUMPI DUP1 PUSH1 0x1F LT PUSH3 0xCA JUMPI PUSH2 0x100 DUP1 DUP4 SLOAD DIV MUL DUP4 MSTORE SWAP2 PUSH1 0x20 ADD SWAP2 PUSH3 0xF6 JUMP JUMPDEST DUP3 ADD SWAP2 SWAP1 PUSH1 0x0 MSTORE PUSH1 0x20 PUSH1 0x0 KECCAK256 SWAP1 JUMPDEST DUP2 SLOAD DUP2 MSTORE SWAP1 PUSH1 0x1 ADD SWAP1 PUSH1 0x20 ADD DUP1 DUP4 GT PUSH3 0xD8 JUMPI DUP3 SWAP1 SUB PUSH1 0x1F AND DUP3 ADD SWAP2 JUMPDEST POP POP POP POP POP DUP1 PUSH1 0x20 ADD SWAP1 MLOAD DUP2 ADD SWAP1 PUSH3 0x110 SWAP2 SWAP1 PUSH3 0x5C9 JUMP JUMPDEST PUSH1 0x1 PUSH1 0x0 PUSH1 0x2 PUSH1 0x0 DUP5 SWAP2 SWAP1 POP SSTORE DUP4 SWAP2 SWAP1 POP SSTORE POP POP PUSH3 0x610 JUMP JUMPDEST PUSH1 0x0 DUP2 SWAP1 POP SWAP2 SWAP1 POP JUMP JUMPDEST PUSH1 0x0 PUSH1 0xFF DUP3 AND SWAP1 POP SWAP2 SWAP1 POP JUMP JUMPDEST PUSH1 0x0 DUP2 SWAP1 POP SWAP2 SWAP1 POP JUMP JUMPDEST PUSH1 0x0 PUSH3 0x16C PUSH3 0x166 PUSH3 0x160 DUP5 PUSH3 0x12A JUMP JUMPDEST PUSH3 0x141 JUMP JUMPDEST PUSH3 0x134 JUMP JUMPDEST SWAP1 POP SWAP2 SWAP1 POP JUMP JUMPDEST PUSH3 0x17E DUP2 PUSH3 0x14B JUMP JUMPDEST DUP3 MSTORE POP POP JUMP JUMPDEST PUSH1 0x0 DUP2 SWAP1 POP SWAP2 SWAP1 POP JUMP JUMPDEST PUSH1 0x0 DUP2 PUSH1 0x0 SIGNEXTEND SWAP1 POP SWAP2 SWAP1 POP JUMP JUMPDEST PUSH1 0x0 PUSH3 0x1BC PUSH3 0x1B6 PUSH3 0x1B0 DUP5 PUSH3 0x184 JUMP JUMPDEST PUSH3 0x141 JUMP JUMPDEST PUSH3 0x18E JUMP JUMPDEST SWAP1 POP SWAP2 SWAP1 POP JUMP JUMPDEST PUSH3 0x1CE DUP2 PUSH3 0x19B JUMP JUMPDEST DUP3 MSTORE POP POP JUMP JUMPDEST PUSH1 0x0 PUSH1 0x40 DUP3 ADD SWAP1 POP PUSH3 0x1EB PUSH1 0x0 DUP4 ADD DUP6 PUSH3 0x173 JUMP JUMPDEST PUSH3 0x1FA PUSH1 0x20 DUP4 ADD DUP5 PUSH3 0x1C3 JUMP JUMPDEST SWAP4 SWAP3 POP POP POP JUMP JUMPDEST PUSH1 0x0 DUP2 MLOAD SWAP1 POP SWAP2 SWAP1 POP JUMP JUMPDEST PUSH32 0x4E487B7100000000000000000000000000000000000000000000000000000000 PUSH1 0x0 MSTORE PUSH1 0x41 PUSH1 0x4 MSTORE PUSH1 0x24 PUSH1 0x0 REVERT JUMPDEST PUSH32 0x4E487B7100000000000000000000000000000000000000000000000000000000 PUSH1 0x0 MSTORE PUSH1 0x22 PUSH1 0x4 MSTORE PUSH1 0x24 PUSH1 0x0 REVERT JUMPDEST PUSH1 0x0 PUSH1 0x2 DUP3 DIV SWAP1 POP PUSH1 0x1 DUP3 AND DUP1 PUSH3 0x283 JUMPI PUSH1 0x7F DUP3 AND SWAP2 POP JUMPDEST PUSH1 0x20 DUP3 LT DUP2 SUB PUSH3 0x299 JUMPI PUSH3 0x298 PUSH3 0x23B JUMP JUMPDEST JUMPDEST POP SWAP2 SWAP1 POP JUMP JUMPDEST PUSH1 0x0 DUP2 SWAP1 POP DUP2 PUSH1 0x0 MSTORE PUSH1 0x20 PUSH1 0x0 KECCAK256 SWAP1 POP SWAP2 SWAP1 POP JUMP JUMPDEST PUSH1 0x0 PUSH1 0x20 PUSH1 0x1F DUP4 ADD DIV SWAP1 POP SWAP2 SWAP1 POP JUMP JUMPDEST PUSH1 0x0 DUP3 DUP3 SHL SWAP1 POP SWAP3 SWAP2 POP POP JUMP JUMPDEST PUSH1 0x0 PUSH1 0x8 DUP4 MUL PUSH3 0x303 PUSH32 0xFFFFFFFFFFFFFFFFFFFFFFFFFFFFFFFFFFFFFFFFFFFFFFFFFFFFFFFFFFFFFFFF DUP3 PUSH3 0x2C4 JUMP JUMPDEST PUSH3 0x30F DUP7 DUP4 PUSH3 0x2C4 JUMP JUMPDEST SWAP6 POP DUP1 NOT DUP5 AND SWAP4 POP DUP1 DUP7 AND DUP5 OR SWAP3 POP POP POP SWAP4 SWAP3 POP POP POP JUMP JUMPDEST PUSH1 0x0 DUP2 SWAP1 POP SWAP2 SWAP1 POP JUMP JUMPDEST PUSH1 0x0 PUSH3 0x352 PUSH3 0x34C PUSH3 0x346 DUP5 PUSH3 0x327 JUMP JUMPDEST PUSH3 0x141 JUMP JUMPDEST PUSH3 0x327 JUMP JUMPDEST SWAP1 POP SWAP2 SWAP1 POP JUMP JUMPDEST PUSH1 0x0 DUP2 SWAP1 POP SWAP2 SWAP1 POP JUMP JUMPDEST PUSH3 0x36E DUP4 PUSH3 0x331 JUMP JUMPDEST PUSH3 0x386 PUSH3 0x37D DUP3 PUSH3 0x359 JUMP JUMPDEST DUP5 DUP5 SLOAD PUSH3 0x2D1 JUMP JUMPDEST DUP3 SSTORE POP POP POP POP JUMP JUMPDEST PUSH1 0x0 SWAP1 JUMP JUMPDEST PUSH3 0x39D PUSH3 0x38E JUMP JUMPDEST PUSH3 0x3AA DUP2 DUP5 DUP5 PUSH3 0x363 JUMP JUMPDEST POP POP POP JUMP JUMPDEST JUMPDEST DUP2 DUP2 LT ISZERO PUSH3 0x3D2 JUMPI PUSH3 0x3C6 PUSH1 0x0 DUP3 PUSH3 0x393 JUMP JUMPDEST PUSH1 0x1 DUP2 ADD SWAP1 POP PUSH3 0x3B0 JUMP JUMPDEST POP POP JUMP JUMPDEST PUSH1 0x1F DUP3 GT ISZERO PUSH3 0x421 JUMPI PUSH3 0x3EB DUP2 PUSH3 0x29F JUMP JUMPDEST PUSH3 0x3F6 DUP5 PUSH3 0x2B4 JUMP JUMPDEST DUP2 ADD PUSH1 0x20 DUP6 LT ISZERO PUSH3 0x406 JUMPI DUP2 SWAP1 POP JUMPDEST PUSH3 0x41E PUSH3 0x415 DUP6 PUSH3 0x2B4 JUMP JUMPDEST DUP4 ADD DUP3 PUSH3 0x3AF JUMP JUMPDEST POP POP JUMPDEST POP POP POP JUMP JUMPDEST PUSH1 0x0 DUP3 DUP3 SHR SWAP1 POP SWAP3 SWAP2 POP POP JUMP JUMPDEST PUSH1 0x0 PUSH3 0x446 PUSH1 0x0 NOT DUP5 PUSH1 0x8 MUL PUSH3 0x426 JUMP JUMPDEST NOT DUP1 DUP4 AND SWAP2 POP POP SWAP3 SWAP2 POP POP JUMP JUMPDEST PUSH1 0x0 PUSH3 0x461 DUP4 DUP4 PUSH3 0x433 JUMP JUMPDEST SWAP2 POP DUP3 PUSH1 0x2 MUL DUP3 OR SWAP1 POP SWAP3 SWAP2 POP POP JUMP JUMPDEST PUSH3 0x47C DUP3 PUSH3 0x201 JUMP JUMPDEST PUSH8 0xFFFFFFFFFFFFFFFF DUP2 GT ISZERO PUSH3 0x498 JUMPI PUSH3 0x497 PUSH3 0x20C JUMP JUMPDEST JUMPDEST PUSH3 0x4A4 DUP3 SLOAD PUSH3 0x26A JUMP JUMPDEST PUSH3 0x4B1 DUP3 DUP3 DUP6 PUSH3 0x3D6 JUMP JUMPDEST PUSH1 0x0 PUSH1 0x20 SWAP1 POP PUSH1 0x1F DUP4 GT PUSH1 0x1 DUP2 EQ PUSH3 0x4E9 JUMPI PUSH1 0x0 DUP5 ISZERO PUSH3 0x4D4 JUMPI DUP3 DUP8 ADD MLOAD SWAP1 POP JUMPDEST PUSH3 0x4E0 DUP6 DUP3 PUSH3 0x453 JUMP JUMPDEST DUP7 SSTORE POP PUSH3 0x550 JUMP JUMPDEST PUSH1 0x1F NOT DUP5 AND PUSH3 0x4F9 DUP7 PUSH3 0x29F JUMP JUMPDEST PUSH1 0x0 JUMPDEST DUP3 DUP2 LT ISZERO PUSH3 0x523 JUMPI DUP5 DUP10 ADD MLOAD DUP3 SSTORE PUSH1 0x1 DUP3 ADD SWAP2 POP PUSH1 0x20 DUP6 ADD SWAP5 POP PUSH1 0x20 DUP2 ADD SWAP1 POP PUSH3 0x4FC JUMP JUMPDEST DUP7 DUP4 LT ISZERO PUSH3 0x543 JUMPI DUP5 DUP10 ADD MLOAD PUSH3 0x53F PUSH1 0x1F DUP10 AND DUP3 PUSH3 0x433 JUMP JUMPDEST DUP4 SSTORE POP JUMPDEST PUSH1 0x1 PUSH1 0x2 DUP9 MUL ADD DUP9 SSTORE POP POP POP JUMPDEST POP POP POP POP POP POP JUMP JUMPDEST PUSH1 0x0 DUP1 REVERT JUMPDEST PUSH3 0x568 DUP2 PUSH3 0x327 JUMP JUMPDEST DUP2 EQ PUSH3 0x574 JUMPI PUSH1 0x0 DUP1 REVERT JUMPDEST POP JUMP JUMPDEST PUSH1 0x0 DUP2 MLOAD SWAP1 POP PUSH3 0x588 DUP2 PUSH3 0x55D JUMP JUMPDEST SWAP3 SWAP2 POP POP JUMP JUMPDEST PUSH1 0x0 DUP2 SWAP1 POP SWAP2 SWAP1 POP JUMP JUMPDEST PUSH3 0x5A3 DUP2 PUSH3 0x58E JUMP JUMPDEST DUP2 EQ PUSH3 0x5AF JUMPI PUSH1 0x0 DUP1 REVERT JUMPDEST POP JUMP JUMPDEST PUSH1 0x0 DUP2 MLOAD SWAP1 POP PUSH3 0x5C3 DUP2 PUSH3 0x598 JUMP JUMPDEST SWAP3 SWAP2 POP POP JUMP JUMPDEST PUSH1 0x0 DUP1 PUSH1 0x40 DUP4 DUP6 SUB SLT ISZERO PUSH3 0x5E3 JUMPI PUSH3 0x5E2 PUSH3 0x558 JUMP JUMPDEST JUMPDEST PUSH1 0x0 PUSH3 0x5F3 DUP6 DUP3 DUP7 ADD PUSH3 0x577 JUMP JUMPDEST SWAP3 POP POP PUSH1 0x20 PUSH3 0x606 DUP6 DUP3 DUP7 ADD PUSH3 0x5B2 JUMP JUMPDEST SWAP2 POP POP SWAP3 POP SWAP3 SWAP1 POP JUMP JUMPDEST PUSH2 0x2F3 DUP1 PUSH3 0x620 PUSH1 0x0 CODECOPY PUSH1 0x0 RETURN INVALID PUSH1 0x80 PUSH1 0x40 MSTORE CALLVALUE DUP1 ISZERO PUSH2 0x10 JUMPI PUSH1 0x0 DUP1 REVERT JUMPDEST POP PUSH1 0x4 CALLDATASIZE LT PUSH2 0x41 JUMPI PUSH1 0x0 CALLDATALOAD PUSH1 0xE0 SHR DUP1 PUSH4 0x8A054AC2 EQ PUSH2 0x46 JUMPI DUP1 PUSH4 0xC3DA42B8 EQ PUSH2 0x64 JUMPI DUP1 PUSH4 0xFFAE15BA EQ PUSH2 0x82 JUMPI JUMPDEST PUSH1 0x0 DUP1 REVERT JUMPDEST PUSH2 0x4E PUSH2 0xA0 JUMP JUMPDEST PUSH1 0x40 MLOAD PUSH2 0x5B SWAP2 SWAP1 PUSH2 0x153 JUMP JUMPDEST PUSH1 0x40 MLOAD DUP1 SWAP2 SUB SWAP1 RETURN JUMPDEST PUSH2 0x6C PUSH2 0xA6 JUMP JUMPDEST PUSH1 0x40 MLOAD PUSH2 0x79 SWAP2 SWAP1 PUSH2 0x207 JUMP JUMPDEST PUSH1 0x40 MLOAD DUP1 SWAP2 SUB SWAP1 RETURN JUMPDEST PUSH2 0x8A PUSH2 0x134 JUMP JUMPDEST PUSH1 0x40 MLOAD PUSH2 0x97 SWAP2 SWAP1 PUSH2 0x242 JUMP JUMPDEST PUSH1 0x40 MLOAD DUP1 SWAP2 SUB SWAP1 RETURN JUMPDEST PUSH1 0x1 SLOAD DUP2 JUMP JUMPDEST PUSH1 0x0 DUP1 SLOAD PUSH2 0xB3 SWAP1 PUSH2 0x28C JUMP JUMPDEST DUP1 PUSH1 0x1F ADD PUSH1 0x20 DUP1 SWAP2 DIV MUL PUSH1 0x20 ADD PUSH1 0x40 MLOAD SWAP1 DUP2 ADD PUSH1 0x40 MSTORE DUP1 SWAP3 SWAP2 SWAP1 DUP2 DUP2 MSTORE PUSH1 0x20 ADD DUP3 DUP1 SLOAD PUSH2 0xDF SWAP1 PUSH2 0x28C JUMP JUMPDEST DUP1 ISZERO PUSH2 0x12C JUMPI DUP1 PUSH1 0x1F LT PUSH2 0x101 JUMPI PUSH2 0x100 DUP1 DUP4 SLOAD DIV MUL DUP4 MSTORE SWAP2 PUSH1 0x20 ADD SWAP2 PUSH2 0x12C JUMP JUMPDEST DUP3 ADD SWAP2 SWAP1 PUSH1 0x0 MSTORE PUSH1 0x20 PUSH1 0x0 KECCAK256 SWAP1 JUMPDEST DUP2 SLOAD DUP2 MSTORE SWAP1 PUSH1 0x1 ADD SWAP1 PUSH1 0x20 ADD DUP1 DUP4 GT PUSH2 0x10F JUMPI DUP3 SWAP1 SUB PUSH1 0x1F AND DUP3 ADD SWAP2 JUMPDEST POP POP POP POP POP DUP2 JUMP JUMPDEST PUSH1 0x2 SLOAD DUP2 JUMP JUMPDEST PUSH1 0x0 DUP2 SWAP1 POP SWAP2 SWAP1 POP JUMP JUMPDEST PUSH2 0x14D DUP2 PUSH2 0x13A JUMP JUMPDEST DUP3 MSTORE POP POP JUMP JUMPDEST PUSH1 0x0 PUSH1 0x20 DUP3 ADD SWAP1 POP PUSH2 0x168 PUSH1 0x0 DUP4 ADD DUP5 PUSH2 0x144 JUMP JUMPDEST SWAP3 SWAP2 POP POP JUMP JUMPDEST PUSH1 0x0 DUP2 MLOAD SWAP1 POP SWAP2 SWAP1 POP JUMP JUMPDEST PUSH1 0x0 DUP3 DUP3 MSTORE PUSH1 0x20 DUP3 ADD SWAP1 POP SWAP3 SWAP2 POP POP JUMP JUMPDEST PUSH1 0x0 JUMPDEST DUP4 DUP2 LT ISZERO PUSH2 0x1A8 JUMPI DUP1 DUP3 ADD MLOAD DUP2 DUP5 ADD MSTORE PUSH1 0x20 DUP2 ADD SWAP1 POP PUSH2 0x18D JUMP JUMPDEST DUP4 DUP2 GT ISZERO PUSH2 0x1B7 JUMPI PUSH1 0x0 DUP5 DUP5 ADD MSTORE JUMPDEST POP POP POP POP JUMP JUMPDEST PUSH1 0x0 PUSH1 0x1F NOT PUSH1 0x1F DUP4 ADD AND SWAP1 POP SWAP2 SWAP1 POP JUMP JUMPDEST PUSH1 0x0 PUSH2 0x1D9 DUP3 PUSH2 0x16E JUMP JUMPDEST PUSH2 0x1E3 DUP2 DUP6 PUSH2 0x179 JUMP JUMPDEST SWAP4 POP PUSH2 0x1F3 DUP2 DUP6 PUSH1 0x20 DUP7 ADD PUSH2 0x18A JUMP JUMPDEST PUSH2 0x1FC DUP2 PUSH2 0x1BD JUMP JUMPDEST DUP5 ADD SWAP2 POP POP SWAP3 SWAP2 POP POP JUMP JUMPDEST PUSH1 0x0 PUSH1 0x20 DUP3 ADD SWAP1 POP DUP2 DUP2 SUB PUSH1 0x0 DUP4 ADD MSTORE PUSH2 0x221 DUP2 DUP5 PUSH2 0x1CE JUMP JUMPDEST SWAP1 POP SWAP3 SWAP2 POP POP JUMP JUMPDEST PUSH1 0x0 DUP2 SWAP1 POP SWAP2 SWAP1 POP JUMP JUMPDEST PUSH2 0x23C DUP2 PUSH2 0x229 JUMP JUMPDEST DUP3 MSTORE POP POP JUMP JUMPDEST PUSH1 0x0 PUSH1 0x20 DUP3 ADD SWAP1 POP PUSH2 0x257 PUSH1 0x0 DUP4 ADD DUP5 PUSH2 0x233 JUMP JUMPDEST SWAP3 SWAP2 POP POP JUMP JUMPDEST PUSH32 0x4E487B7100000000000000000000000000000000000000000000000000000000 PUSH1 0x0 MSTORE PUSH1 0x22 PUSH1 0x4 MSTORE PUSH1 0x24 PUSH1 0x0 REVERT JUMPDEST PUSH1 0x0 PUSH1 0x2 DUP3 DIV SWAP1 POP PUSH1 0x1 DUP3 AND DUP1 PUSH2 0x2A4 JUMPI PUSH1 0x7F DUP3 AND SWAP2 POP JUMPDEST PUSH1 0x20 DUP3 LT DUP2 SUB PUSH2 0x2B7 JUMPI PUSH2 0x2B6 PUSH2 0x25D JUMP JUMPDEST JUMPDEST POP SWAP2 SWAP1 POP JUMP INVALID LOG2 PUSH5 0x6970667358 0x22 SLT KECCAK256 0x1F 0xFB PUSH9 0xF0FBE016D16CA2AC91 0xBE SLT BALANCE MSIZE 0xB4 0xD8 0xC 0xEE SMOD 0xA9 PUSH16 0x9033FEE9B8DF7A5F8864736F6C634300 ADDMOD 0xF STOP CALLER "
				},
				"gasEstimates": {
					"creation": {
						"codeDepositCost": "151000",
						"executionCost": "infinite",
						"totalCost": "infinite"
					},
					"external": {
						"c()": "infinite",
						"d()": "2407",
						"e()": "2451"
					}
				},
				"methodIdentifiers": {
					"c()": "c3da42b8",
					"d()": "8a054ac2",
					"e()": "ffae15ba"
				}
			},
			"storageLayout": {
				"storage": [
					{
						"astId": 9,
						"contract": "study/chapter03/abi.sol:testABI",
						"label": "c",
						"offset": 0,
						"slot": "0",
						"type": "t_bytes_storage"
					},
					{
						"astId": 11,
						"contract": "study/chapter03/abi.sol:testABI",
						"label": "d",
						"offset": 0,
						"slot": "1",
						"type": "t_uint256"
					},
					{
						"astId": 13,
						"contract": "study/chapter03/abi.sol:testABI",
						"label": "e",
						"offset": 0,
						"slot": "2",
						"type": "t_int256"
					}
				],
				"types": {
					"t_bytes_storage": {
						"encoding": "bytes",
						"label": "bytes",
						"numberOfBytes": "32"
					},
					"t_int256": {
						"encoding": "inplace",
						"label": "int256",
						"numberOfBytes": "32"
					},
					"t_uint256": {
						"encoding": "inplace",
						"label": "uint256",
						"numberOfBytes": "32"
					}
				}
			},
			"userdoc": {
				"kind": "user",
				"methods": {},
				"version": 1
			}
		}
	}
}