{
	"study/chapter03/2innerfunc.sol": {
		"innerFunc": {
			"abi": [
				{
					"inputs": [],
					"name": "blockcoinbase",
					"outputs": [
						{
							"internalType": "address",
							"name": "",
							"type": "address"
						}
					],
					"stateMutability": "view",
					"type": "function"
				},
				{
					"inputs": [],
					"name": "blockdifficulty",
					"outputs": [
						{
							"internalType": "uint256",
							"name": "",
							"type": "uint256"
						}
					],
					"stateMutability": "view",
					"type": "function"
				},
				{
					"inputs": [],
					"name": "blockgaglimt",
					"outputs": [
						{
							"internalType": "uint256",
							"name": "",
							"type": "uint256"
						}
					],
					"stateMutability": "view",
					"type": "function"
				},
				{
					"inputs": [],
					"name": "blocknumber",
					"outputs": [
						{
							"internalType": "uint256",
							"name": "",
							"type": "uint256"
						}
					],
					"stateMutability": "view",
					"type": "function"
				},
				{
					"inputs": [],
					"name": "blocktimestamp",
					"outputs": [
						{
							"internalType": "uint256",
							"name": "",
							"type": "uint256"
						}
					],
					"stateMutability": "view",
					"type": "function"
				},
				{
					"inputs": [],
					"name": "chainID",
					"outputs": [
						{
							"internalType": "uint256",
							"name": "",
							"type": "uint256"
						}
					],
					"stateMutability": "view",
					"type": "function"
				},
				{
					"inputs": [],
					"name": "msgbytes",
					"outputs": [
						{
							"internalType": "bytes",
							"name": "",
							"type": "bytes"
						}
					],
					"stateMutability": "view",
					"type": "function"
				}
			],
			"devdoc": {
				"kind": "dev",
				"methods": {},
				"version": 1
			},
			"evm": {
				"assembly": "    /* \"study/chapter03/2innerfunc.sol\":56:576  contract innerFunc{... */\n  mstore(0x40, 0x80)\n    /* \"study/chapter03/2innerfunc.sol\":124:136  block.number */\n  number\n    /* \"study/chapter03/2innerfunc.sol\":100:136  uint public blocknumber=block.number */\n  0x00\n  sstore\n    /* \"study/chapter03/2innerfunc.sol\":181:196  block.timestamp */\n  timestamp\n    /* \"study/chapter03/2innerfunc.sol\":154:196  uint public blocktimestamp=block.timestamp */\n  0x01\n  sstore\n    /* \"study/chapter03/2innerfunc.sol\":252:266  block.gaslimit */\n  gaslimit\n    /* \"study/chapter03/2innerfunc.sol\":225:266  uint public blockgaglimt = block.gaslimit */\n  0x02\n  sstore\n    /* \"study/chapter03/2innerfunc.sol\":328:344  block.difficulty */\n  difficulty\n    /* \"study/chapter03/2innerfunc.sol\":298:344  uint public blockdifficulty = block.difficulty */\n  0x03\n  sstore\n    /* \"study/chapter03/2innerfunc.sol\":401:415  block.coinbase */\n  coinbase\n    /* \"study/chapter03/2innerfunc.sol\":370:415  address public blockcoinbase = block.coinbase */\n  0x04\n  exp(0x0100, 0x00)\n  dup2\n  sload\n  dup2\n  0xffffffffffffffffffffffffffffffffffffffff\n  mul\n  not\n  and\n  swap1\n  dup4\n  0xffffffffffffffffffffffffffffffffffffffff\n  and\n  mul\n  or\n  swap1\n  sstore\n  pop\n    /* \"study/chapter03/2innerfunc.sol\":472:485  block.chainid */\n  chainid\n    /* \"study/chapter03/2innerfunc.sol\":450:485  uint public chainID = block.chainid */\n  0x05\n  sstore\n    /* \"study/chapter03/2innerfunc.sol\":557:565  msg.data */\n  0x00\n  calldatasize\n    /* \"study/chapter03/2innerfunc.sol\":533:565  bytes public msgbytes = msg.data */\n  0x06\n  swap2\n  swap1\n  tag_1\n  swap3\n  swap2\n  swap1\n  tag_2\n  jump\t// in\ntag_1:\n  pop\n    /* \"study/chapter03/2innerfunc.sol\":56:576  contract innerFunc{... */\n  callvalue\n  dup1\n  iszero\n  tag_3\n  jumpi\n  0x00\n  dup1\n  revert\ntag_3:\n  pop\n  jump(tag_4)\ntag_2:\n  dup3\n  dup1\n  sload\n  tag_5\n  swap1\n  tag_6\n  jump\t// in\ntag_5:\n  swap1\n  0x00\n  mstore\n  keccak256(0x00, 0x20)\n  swap1\n  0x1f\n  add\n  0x20\n  swap1\n  div\n  dup2\n  add\n  swap3\n  dup3\n  tag_8\n  jumpi\n  0x00\n  dup6\n  sstore\n  jump(tag_7)\ntag_8:\n  dup3\n  0x1f\n  lt\n  tag_9\n  jumpi\n  dup1\n  calldataload\n  not(0xff)\n  and\n  dup4\n  dup1\n  add\n  or\n  dup6\n  sstore\n  jump(tag_7)\ntag_9:\n  dup3\n  dup1\n  add\n  0x01\n  add\n  dup6\n  sstore\n  dup3\n  iszero\n  tag_7\n  jumpi\n  swap2\n  dup3\n  add\ntag_10:\n  dup3\n  dup2\n  gt\n  iszero\n  tag_11\n  jumpi\n  dup3\n  calldataload\n  dup3\n  sstore\n  swap2\n  0x20\n  add\n  swap2\n  swap1\n  0x01\n  add\n  swap1\n  jump(tag_10)\ntag_11:\ntag_7:\n  pop\n  swap1\n  pop\n  tag_12\n  swap2\n  swap1\n  tag_13\n  jump\t// in\ntag_12:\n  pop\n  swap1\n  jump\t// out\ntag_13:\ntag_14:\n  dup1\n  dup3\n  gt\n  iszero\n  tag_15\n  jumpi\n  0x00\n  dup2\n  0x00\n  swap1\n  sstore\n  pop\n  0x01\n  add\n  jump(tag_14)\ntag_15:\n  pop\n  swap1\n  jump\t// out\n    /* \"#utility.yul\":7:327   */\ntag_6:\n    /* \"#utility.yul\":51:57   */\n  0x00\n    /* \"#utility.yul\":88:89   */\n  0x02\n    /* \"#utility.yul\":82:86   */\n  dup3\n    /* \"#utility.yul\":78:90   */\n  div\n    /* \"#utility.yul\":68:90   */\n  swap1\n  pop\n    /* \"#utility.yul\":135:136   */\n  0x01\n    /* \"#utility.yul\":129:133   */\n  dup3\n    /* \"#utility.yul\":125:137   */\n  and\n    /* \"#utility.yul\":156:174   */\n  dup1\n    /* \"#utility.yul\":146:227   */\n  tag_18\n  jumpi\n    /* \"#utility.yul\":212:216   */\n  0x7f\n    /* \"#utility.yul\":204:210   */\n  dup3\n    /* \"#utility.yul\":200:217   */\n  and\n    /* \"#utility.yul\":190:217   */\n  swap2\n  pop\n    /* \"#utility.yul\":146:227   */\ntag_18:\n    /* \"#utility.yul\":274:276   */\n  0x20\n    /* \"#utility.yul\":266:272   */\n  dup3\n    /* \"#utility.yul\":263:277   */\n  lt\n    /* \"#utility.yul\":243:261   */\n  dup2\n    /* \"#utility.yul\":240:278   */\n  eq\n    /* \"#utility.yul\":237:321   */\n  iszero\n  tag_19\n  jumpi\n    /* \"#utility.yul\":293:311   */\n  tag_20\n  tag_21\n  jump\t// in\ntag_20:\n    /* \"#utility.yul\":237:321   */\ntag_19:\n    /* \"#utility.yul\":58:327   */\n  pop\n    /* \"#utility.yul\":7:327   */\n  swap2\n  swap1\n  pop\n  jump\t// out\n    /* \"#utility.yul\":333:513   */\ntag_21:\n    /* \"#utility.yul\":381:458   */\n  0x4e487b7100000000000000000000000000000000000000000000000000000000\n    /* \"#utility.yul\":378:379   */\n  0x00\n    /* \"#utility.yul\":371:459   */\n  mstore\n    /* \"#utility.yul\":478:482   */\n  0x22\n    /* \"#utility.yul\":475:476   */\n  0x04\n    /* \"#utility.yul\":468:483   */\n  mstore\n    /* \"#utility.yul\":502:506   */\n  0x24\n    /* \"#utility.yul\":499:500   */\n  0x00\n    /* \"#utility.yul\":492:507   */\n  revert\n    /* \"study/chapter03/2innerfunc.sol\":56:576  contract innerFunc{... */\ntag_4:\n  dataSize(sub_0)\n  dup1\n  dataOffset(sub_0)\n  0x00\n  codecopy\n  0x00\n  return\nstop\n\nsub_0: assembly {\n        /* \"study/chapter03/2innerfunc.sol\":56:576  contract innerFunc{... */\n      mstore(0x40, 0x80)\n      callvalue\n      dup1\n      iszero\n      tag_1\n      jumpi\n      0x00\n      dup1\n      revert\n    tag_1:\n      pop\n      jumpi(tag_2, lt(calldatasize, 0x04))\n      shr(0xe0, calldataload(0x00))\n      dup1\n      0x7390278d\n      gt\n      tag_10\n      jumpi\n      dup1\n      0x7390278d\n      eq\n      tag_6\n      jumpi\n      dup1\n      0x8182a11f\n      eq\n      tag_7\n      jumpi\n      dup1\n      0xadc879e9\n      eq\n      tag_8\n      jumpi\n      dup1\n      0xc2546f7b\n      eq\n      tag_9\n      jumpi\n      jump(tag_2)\n    tag_10:\n      dup1\n      0x05062247\n      eq\n      tag_3\n      jumpi\n      dup1\n      0x18b66ea3\n      eq\n      tag_4\n      jumpi\n      dup1\n      0x5df32c47\n      eq\n      tag_5\n      jumpi\n    tag_2:\n      0x00\n      dup1\n      revert\n        /* \"study/chapter03/2innerfunc.sol\":100:136  uint public blocknumber=block.number */\n    tag_3:\n      tag_11\n      tag_12\n      jump\t// in\n    tag_11:\n      mload(0x40)\n      tag_13\n      swap2\n      swap1\n      tag_14\n      jump\t// in\n    tag_13:\n      mload(0x40)\n      dup1\n      swap2\n      sub\n      swap1\n      return\n        /* \"study/chapter03/2innerfunc.sol\":370:415  address public blockcoinbase = block.coinbase */\n    tag_4:\n      tag_15\n      tag_16\n      jump\t// in\n    tag_15:\n      mload(0x40)\n      tag_17\n      swap2\n      swap1\n      tag_18\n      jump\t// in\n    tag_17:\n      mload(0x40)\n      dup1\n      swap2\n      sub\n      swap1\n      return\n        /* \"study/chapter03/2innerfunc.sol\":298:344  uint public blockdifficulty = block.difficulty */\n    tag_5:\n      tag_19\n      tag_20\n      jump\t// in\n    tag_19:\n      mload(0x40)\n      tag_21\n      swap2\n      swap1\n      tag_14\n      jump\t// in\n    tag_21:\n      mload(0x40)\n      dup1\n      swap2\n      sub\n      swap1\n      return\n        /* \"study/chapter03/2innerfunc.sol\":225:266  uint public blockgaglimt = block.gaslimit */\n    tag_6:\n      tag_22\n      tag_23\n      jump\t// in\n    tag_22:\n      mload(0x40)\n      tag_24\n      swap2\n      swap1\n      tag_14\n      jump\t// in\n    tag_24:\n      mload(0x40)\n      dup1\n      swap2\n      sub\n      swap1\n      return\n        /* \"study/chapter03/2innerfunc.sol\":154:196  uint public blocktimestamp=block.timestamp */\n    tag_7:\n      tag_25\n      tag_26\n      jump\t// in\n    tag_25:\n      mload(0x40)\n      tag_27\n      swap2\n      swap1\n      tag_14\n      jump\t// in\n    tag_27:\n      mload(0x40)\n      dup1\n      swap2\n      sub\n      swap1\n      return\n        /* \"study/chapter03/2innerfunc.sol\":450:485  uint public chainID = block.chainid */\n    tag_8:\n      tag_28\n      tag_29\n      jump\t// in\n    tag_28:\n      mload(0x40)\n      tag_30\n      swap2\n      swap1\n      tag_14\n      jump\t// in\n    tag_30:\n      mload(0x40)\n      dup1\n      swap2\n      sub\n      swap1\n      return\n        /* \"study/chapter03/2innerfunc.sol\":533:565  bytes public msgbytes = msg.data */\n    tag_9:\n      tag_31\n      tag_32\n      jump\t// in\n    tag_31:\n      mload(0x40)\n      tag_33\n      swap2\n      swap1\n      tag_34\n      jump\t// in\n    tag_33:\n      mload(0x40)\n      dup1\n      swap2\n      sub\n      swap1\n      return\n        /* \"study/chapter03/2innerfunc.sol\":100:136  uint public blocknumber=block.number */\n    tag_12:\n      sload(0x00)\n      dup2\n      jump\t// out\n        /* \"study/chapter03/2innerfunc.sol\":370:415  address public blockcoinbase = block.coinbase */\n    tag_16:\n      0x04\n      0x00\n      swap1\n      sload\n      swap1\n      0x0100\n      exp\n      swap1\n      div\n      0xffffffffffffffffffffffffffffffffffffffff\n      and\n      dup2\n      jump\t// out\n        /* \"study/chapter03/2innerfunc.sol\":298:344  uint public blockdifficulty = block.difficulty */\n    tag_20:\n      sload(0x03)\n      dup2\n      jump\t// out\n        /* \"study/chapter03/2innerfunc.sol\":225:266  uint public blockgaglimt = block.gaslimit */\n    tag_23:\n      sload(0x02)\n      dup2\n      jump\t// out\n        /* \"study/chapter03/2innerfunc.sol\":154:196  uint public blocktimestamp=block.timestamp */\n    tag_26:\n      sload(0x01)\n      dup2\n      jump\t// out\n        /* \"study/chapter03/2innerfunc.sol\":450:485  uint public chainID = block.chainid */\n    tag_29:\n      sload(0x05)\n      dup2\n      jump\t// out\n        /* \"study/chapter03/2innerfunc.sol\":533:565  bytes public msgbytes = msg.data */\n    tag_32:\n      0x06\n      dup1\n      sload\n      tag_35\n      swap1\n      tag_36\n      jump\t// in\n    tag_35:\n      dup1\n      0x1f\n      add\n      0x20\n      dup1\n      swap2\n      div\n      mul\n      0x20\n      add\n      mload(0x40)\n      swap1\n      dup2\n      add\n      0x40\n      mstore\n      dup1\n      swap3\n      swap2\n      swap1\n      dup2\n      dup2\n      mstore\n      0x20\n      add\n      dup3\n      dup1\n      sload\n      tag_37\n      swap1\n      tag_36\n      jump\t// in\n    tag_37:\n      dup1\n      iszero\n      tag_38\n      jumpi\n      dup1\n      0x1f\n      lt\n      tag_39\n      jumpi\n      0x0100\n      dup1\n      dup4\n      sload\n      div\n      mul\n      dup4\n      mstore\n      swap2\n      0x20\n      add\n      swap2\n      jump(tag_38)\n    tag_39:\n      dup3\n      add\n      swap2\n      swap1\n      0x00\n      mstore\n      keccak256(0x00, 0x20)\n      swap1\n    tag_40:\n      dup2\n      sload\n      dup2\n      mstore\n      swap1\n      0x01\n      add\n      swap1\n      0x20\n      add\n      dup1\n      dup4\n      gt\n      tag_40\n      jumpi\n      dup3\n      swap1\n      sub\n      0x1f\n      and\n      dup3\n      add\n      swap2\n    tag_38:\n      pop\n      pop\n      pop\n      pop\n      pop\n      dup2\n      jump\t// out\n        /* \"#utility.yul\":7:125   */\n    tag_42:\n        /* \"#utility.yul\":94:118   */\n      tag_44\n        /* \"#utility.yul\":112:117   */\n      dup2\n        /* \"#utility.yul\":94:118   */\n      tag_45\n      jump\t// in\n    tag_44:\n        /* \"#utility.yul\":89:92   */\n      dup3\n        /* \"#utility.yul\":82:119   */\n      mstore\n        /* \"#utility.yul\":7:125   */\n      pop\n      pop\n      jump\t// out\n        /* \"#utility.yul\":131:491   */\n    tag_46:\n        /* \"#utility.yul\":217:220   */\n      0x00\n        /* \"#utility.yul\":245:283   */\n      tag_48\n        /* \"#utility.yul\":277:282   */\n      dup3\n        /* \"#utility.yul\":245:283   */\n      tag_49\n      jump\t// in\n    tag_48:\n        /* \"#utility.yul\":299:369   */\n      tag_50\n        /* \"#utility.yul\":362:368   */\n      dup2\n        /* \"#utility.yul\":357:360   */\n      dup6\n        /* \"#utility.yul\":299:369   */\n      tag_51\n      jump\t// in\n    tag_50:\n        /* \"#utility.yul\":292:369   */\n      swap4\n      pop\n        /* \"#utility.yul\":378:430   */\n      tag_52\n        /* \"#utility.yul\":423:429   */\n      dup2\n        /* \"#utility.yul\":418:421   */\n      dup6\n        /* \"#utility.yul\":411:415   */\n      0x20\n        /* \"#utility.yul\":404:409   */\n      dup7\n        /* \"#utility.yul\":400:416   */\n      add\n        /* \"#utility.yul\":378:430   */\n      tag_53\n      jump\t// in\n    tag_52:\n        /* \"#utility.yul\":455:484   */\n      tag_54\n        /* \"#utility.yul\":477:483   */\n      dup2\n        /* \"#utility.yul\":455:484   */\n      tag_55\n      jump\t// in\n    tag_54:\n        /* \"#utility.yul\":450:453   */\n      dup5\n        /* \"#utility.yul\":446:485   */\n      add\n        /* \"#utility.yul\":439:485   */\n      swap2\n      pop\n        /* \"#utility.yul\":221:491   */\n      pop\n        /* \"#utility.yul\":131:491   */\n      swap3\n      swap2\n      pop\n      pop\n      jump\t// out\n        /* \"#utility.yul\":497:615   */\n    tag_56:\n        /* \"#utility.yul\":584:608   */\n      tag_58\n        /* \"#utility.yul\":602:607   */\n      dup2\n        /* \"#utility.yul\":584:608   */\n      tag_59\n      jump\t// in\n    tag_58:\n        /* \"#utility.yul\":579:582   */\n      dup3\n        /* \"#utility.yul\":572:609   */\n      mstore\n        /* \"#utility.yul\":497:615   */\n      pop\n      pop\n      jump\t// out\n        /* \"#utility.yul\":621:843   */\n    tag_18:\n        /* \"#utility.yul\":714:718   */\n      0x00\n        /* \"#utility.yul\":752:754   */\n      0x20\n        /* \"#utility.yul\":741:750   */\n      dup3\n        /* \"#utility.yul\":737:755   */\n      add\n        /* \"#utility.yul\":729:755   */\n      swap1\n      pop\n        /* \"#utility.yul\":765:836   */\n      tag_61\n        /* \"#utility.yul\":833:834   */\n      0x00\n        /* \"#utility.yul\":822:831   */\n      dup4\n        /* \"#utility.yul\":818:835   */\n      add\n        /* \"#utility.yul\":809:815   */\n      dup5\n        /* \"#utility.yul\":765:836   */\n      tag_42\n      jump\t// in\n    tag_61:\n        /* \"#utility.yul\":621:843   */\n      swap3\n      swap2\n      pop\n      pop\n      jump\t// out\n        /* \"#utility.yul\":849:1158   */\n    tag_34:\n        /* \"#utility.yul\":960:964   */\n      0x00\n        /* \"#utility.yul\":998:1000   */\n      0x20\n        /* \"#utility.yul\":987:996   */\n      dup3\n        /* \"#utility.yul\":983:1001   */\n      add\n        /* \"#utility.yul\":975:1001   */\n      swap1\n      pop\n        /* \"#utility.yul\":1047:1056   */\n      dup2\n        /* \"#utility.yul\":1041:1045   */\n      dup2\n        /* \"#utility.yul\":1037:1057   */\n      sub\n        /* \"#utility.yul\":1033:1034   */\n      0x00\n        /* \"#utility.yul\":1022:1031   */\n      dup4\n        /* \"#utility.yul\":1018:1035   */\n      add\n        /* \"#utility.yul\":1011:1058   */\n      mstore\n        /* \"#utility.yul\":1075:1151   */\n      tag_63\n        /* \"#utility.yul\":1146:1150   */\n      dup2\n        /* \"#utility.yul\":1137:1143   */\n      dup5\n        /* \"#utility.yul\":1075:1151   */\n      tag_46\n      jump\t// in\n    tag_63:\n        /* \"#utility.yul\":1067:1151   */\n      swap1\n      pop\n        /* \"#utility.yul\":849:1158   */\n      swap3\n      swap2\n      pop\n      pop\n      jump\t// out\n        /* \"#utility.yul\":1164:1386   */\n    tag_14:\n        /* \"#utility.yul\":1257:1261   */\n      0x00\n        /* \"#utility.yul\":1295:1297   */\n      0x20\n        /* \"#utility.yul\":1284:1293   */\n      dup3\n        /* \"#utility.yul\":1280:1298   */\n      add\n        /* \"#utility.yul\":1272:1298   */\n      swap1\n      pop\n        /* \"#utility.yul\":1308:1379   */\n      tag_65\n        /* \"#utility.yul\":1376:1377   */\n      0x00\n        /* \"#utility.yul\":1365:1374   */\n      dup4\n        /* \"#utility.yul\":1361:1378   */\n      add\n        /* \"#utility.yul\":1352:1358   */\n      dup5\n        /* \"#utility.yul\":1308:1379   */\n      tag_56\n      jump\t// in\n    tag_65:\n        /* \"#utility.yul\":1164:1386   */\n      swap3\n      swap2\n      pop\n      pop\n      jump\t// out\n        /* \"#utility.yul\":1392:1490   */\n    tag_49:\n        /* \"#utility.yul\":1443:1449   */\n      0x00\n        /* \"#utility.yul\":1477:1482   */\n      dup2\n        /* \"#utility.yul\":1471:1483   */\n      mload\n        /* \"#utility.yul\":1461:1483   */\n      swap1\n      pop\n        /* \"#utility.yul\":1392:1490   */\n      swap2\n      swap1\n      pop\n      jump\t// out\n        /* \"#utility.yul\":1496:1664   */\n    tag_51:\n        /* \"#utility.yul\":1579:1590   */\n      0x00\n        /* \"#utility.yul\":1613:1619   */\n      dup3\n        /* \"#utility.yul\":1608:1611   */\n      dup3\n        /* \"#utility.yul\":1601:1620   */\n      mstore\n        /* \"#utility.yul\":1653:1657   */\n      0x20\n        /* \"#utility.yul\":1648:1651   */\n      dup3\n        /* \"#utility.yul\":1644:1658   */\n      add\n        /* \"#utility.yul\":1629:1658   */\n      swap1\n      pop\n        /* \"#utility.yul\":1496:1664   */\n      swap3\n      swap2\n      pop\n      pop\n      jump\t// out\n        /* \"#utility.yul\":1670:1766   */\n    tag_45:\n        /* \"#utility.yul\":1707:1714   */\n      0x00\n        /* \"#utility.yul\":1736:1760   */\n      tag_69\n        /* \"#utility.yul\":1754:1759   */\n      dup3\n        /* \"#utility.yul\":1736:1760   */\n      tag_70\n      jump\t// in\n    tag_69:\n        /* \"#utility.yul\":1725:1760   */\n      swap1\n      pop\n        /* \"#utility.yul\":1670:1766   */\n      swap2\n      swap1\n      pop\n      jump\t// out\n        /* \"#utility.yul\":1772:1898   */\n    tag_70:\n        /* \"#utility.yul\":1809:1816   */\n      0x00\n        /* \"#utility.yul\":1849:1891   */\n      0xffffffffffffffffffffffffffffffffffffffff\n        /* \"#utility.yul\":1842:1847   */\n      dup3\n        /* \"#utility.yul\":1838:1892   */\n      and\n        /* \"#utility.yul\":1827:1892   */\n      swap1\n      pop\n        /* \"#utility.yul\":1772:1898   */\n      swap2\n      swap1\n      pop\n      jump\t// out\n        /* \"#utility.yul\":1904:1981   */\n    tag_59:\n        /* \"#utility.yul\":1941:1948   */\n      0x00\n        /* \"#utility.yul\":1970:1975   */\n      dup2\n        /* \"#utility.yul\":1959:1975   */\n      swap1\n      pop\n        /* \"#utility.yul\":1904:1981   */\n      swap2\n      swap1\n      pop\n      jump\t// out\n        /* \"#utility.yul\":1987:2294   */\n    tag_53:\n        /* \"#utility.yul\":2055:2056   */\n      0x00\n        /* \"#utility.yul\":2065:2178   */\n    tag_74:\n        /* \"#utility.yul\":2079:2085   */\n      dup4\n        /* \"#utility.yul\":2076:2077   */\n      dup2\n        /* \"#utility.yul\":2073:2086   */\n      lt\n        /* \"#utility.yul\":2065:2178   */\n      iszero\n      tag_76\n      jumpi\n        /* \"#utility.yul\":2164:2165   */\n      dup1\n        /* \"#utility.yul\":2159:2162   */\n      dup3\n        /* \"#utility.yul\":2155:2166   */\n      add\n        /* \"#utility.yul\":2149:2167   */\n      mload\n        /* \"#utility.yul\":2145:2146   */\n      dup2\n        /* \"#utility.yul\":2140:2143   */\n      dup5\n        /* \"#utility.yul\":2136:2147   */\n      add\n        /* \"#utility.yul\":2129:2168   */\n      mstore\n        /* \"#utility.yul\":2101:2103   */\n      0x20\n        /* \"#utility.yul\":2098:2099   */\n      dup2\n        /* \"#utility.yul\":2094:2104   */\n      add\n        /* \"#utility.yul\":2089:2104   */\n      swap1\n      pop\n        /* \"#utility.yul\":2065:2178   */\n      jump(tag_74)\n    tag_76:\n        /* \"#utility.yul\":2196:2202   */\n      dup4\n        /* \"#utility.yul\":2193:2194   */\n      dup2\n        /* \"#utility.yul\":2190:2203   */\n      gt\n        /* \"#utility.yul\":2187:2288   */\n      iszero\n      tag_77\n      jumpi\n        /* \"#utility.yul\":2276:2277   */\n      0x00\n        /* \"#utility.yul\":2267:2273   */\n      dup5\n        /* \"#utility.yul\":2262:2265   */\n      dup5\n        /* \"#utility.yul\":2258:2274   */\n      add\n        /* \"#utility.yul\":2251:2278   */\n      mstore\n        /* \"#utility.yul\":2187:2288   */\n    tag_77:\n        /* \"#utility.yul\":2036:2294   */\n      pop\n        /* \"#utility.yul\":1987:2294   */\n      pop\n      pop\n      pop\n      jump\t// out\n        /* \"#utility.yul\":2300:2620   */\n    tag_36:\n        /* \"#utility.yul\":2344:2350   */\n      0x00\n        /* \"#utility.yul\":2381:2382   */\n      0x02\n        /* \"#utility.yul\":2375:2379   */\n      dup3\n        /* \"#utility.yul\":2371:2383   */\n      div\n        /* \"#utility.yul\":2361:2383   */\n      swap1\n      pop\n        /* \"#utility.yul\":2428:2429   */\n      0x01\n        /* \"#utility.yul\":2422:2426   */\n      dup3\n        /* \"#utility.yul\":2418:2430   */\n      and\n        /* \"#utility.yul\":2449:2467   */\n      dup1\n        /* \"#utility.yul\":2439:2520   */\n      tag_79\n      jumpi\n        /* \"#utility.yul\":2505:2509   */\n      0x7f\n        /* \"#utility.yul\":2497:2503   */\n      dup3\n        /* \"#utility.yul\":2493:2510   */\n      and\n        /* \"#utility.yul\":2483:2510   */\n      swap2\n      pop\n        /* \"#utility.yul\":2439:2520   */\n    tag_79:\n        /* \"#utility.yul\":2567:2569   */\n      0x20\n        /* \"#utility.yul\":2559:2565   */\n      dup3\n        /* \"#utility.yul\":2556:2570   */\n      lt\n        /* \"#utility.yul\":2536:2554   */\n      dup2\n        /* \"#utility.yul\":2533:2571   */\n      eq\n        /* \"#utility.yul\":2530:2614   */\n      iszero\n      tag_80\n      jumpi\n        /* \"#utility.yul\":2586:2604   */\n      tag_81\n      tag_82\n      jump\t// in\n    tag_81:\n        /* \"#utility.yul\":2530:2614   */\n    tag_80:\n        /* \"#utility.yul\":2351:2620   */\n      pop\n        /* \"#utility.yul\":2300:2620   */\n      swap2\n      swap1\n      pop\n      jump\t// out\n        /* \"#utility.yul\":2626:2806   */\n    tag_82:\n        /* \"#utility.yul\":2674:2751   */\n      0x4e487b7100000000000000000000000000000000000000000000000000000000\n        /* \"#utility.yul\":2671:2672   */\n      0x00\n        /* \"#utility.yul\":2664:2752   */\n      mstore\n        /* \"#utility.yul\":2771:2775   */\n      0x22\n        /* \"#utility.yul\":2768:2769   */\n      0x04\n        /* \"#utility.yul\":2761:2776   */\n      mstore\n        /* \"#utility.yul\":2795:2799   */\n      0x24\n        /* \"#utility.yul\":2792:2793   */\n      0x00\n        /* \"#utility.yul\":2785:2800   */\n      revert\n        /* \"#utility.yul\":2812:2914   */\n    tag_55:\n        /* \"#utility.yul\":2853:2859   */\n      0x00\n        /* \"#utility.yul\":2904:2906   */\n      0x1f\n        /* \"#utility.yul\":2900:2907   */\n      not\n        /* \"#utility.yul\":2895:2897   */\n      0x1f\n        /* \"#utility.yul\":2888:2893   */\n      dup4\n        /* \"#utility.yul\":2884:2898   */\n      add\n        /* \"#utility.yul\":2880:2908   */\n      and\n        /* \"#utility.yul\":2870:2908   */\n      swap1\n      pop\n        /* \"#utility.yul\":2812:2914   */\n      swap2\n      swap1\n      pop\n      jump\t// out\n\n    auxdata: 0xa26469706673582212207a2bc118644474f0bd42b7497cdb94095caac49558a54e48ae0f2669edfebe2164736f6c63430008070033\n}\n",
				"bytecode": {
					"linkReferences": {},
					"object": "60806040524360005542600155456002554460035541600460006101000a81548173ffffffffffffffffffffffffffffffffffffffff021916908373ffffffffffffffffffffffffffffffffffffffff160217905550466005556000366006919061006b92919061007e565b5034801561007857600080fd5b50610182565b82805461008a90610121565b90600052602060002090601f0160209004810192826100ac57600085556100f3565b82601f106100c557803560ff19168380011785556100f3565b828001600101855582156100f3579182015b828111156100f25782358255916020019190600101906100d7565b5b5090506101009190610104565b5090565b5b8082111561011d576000816000905550600101610105565b5090565b6000600282049050600182168061013957607f821691505b6020821081141561014d5761014c610153565b5b50919050565b7f4e487b7100000000000000000000000000000000000000000000000000000000600052602260045260246000fd5b610408806101916000396000f3fe608060405234801561001057600080fd5b506004361061007d5760003560e01c80637390278d1161005b5780637390278d146100dc5780638182a11f146100fa578063adc879e914610118578063c2546f7b146101365761007d565b8063050622471461008257806318b66ea3146100a05780635df32c47146100be575b600080fd5b61008a610154565b60405161009791906102ba565b60405180910390f35b6100a861015a565b6040516100b5919061027d565b60405180910390f35b6100c6610180565b6040516100d391906102ba565b60405180910390f35b6100e4610186565b6040516100f191906102ba565b60405180910390f35b61010261018c565b60405161010f91906102ba565b60405180910390f35b610120610192565b60405161012d91906102ba565b60405180910390f35b61013e610198565b60405161014b9190610298565b60405180910390f35b60005481565b600460009054906101000a900473ffffffffffffffffffffffffffffffffffffffff1681565b60035481565b60025481565b60015481565b60055481565b600680546101a590610360565b80601f01602080910402602001604051908101604052809291908181526020018280546101d190610360565b801561021e5780601f106101f35761010080835404028352916020019161021e565b820191906000526020600020905b81548152906001019060200180831161020157829003601f168201915b505050505081565b61022f816102f1565b82525050565b6000610240826102d5565b61024a81856102e0565b935061025a81856020860161032d565b610263816103c1565b840191505092915050565b61027781610323565b82525050565b60006020820190506102926000830184610226565b92915050565b600060208201905081810360008301526102b28184610235565b905092915050565b60006020820190506102cf600083018461026e565b92915050565b600081519050919050565b600082825260208201905092915050565b60006102fc82610303565b9050919050565b600073ffffffffffffffffffffffffffffffffffffffff82169050919050565b6000819050919050565b60005b8381101561034b578082015181840152602081019050610330565b8381111561035a576000848401525b50505050565b6000600282049050600182168061037857607f821691505b6020821081141561038c5761038b610392565b5b50919050565b7f4e487b7100000000000000000000000000000000000000000000000000000000600052602260045260246000fd5b6000601f19601f830116905091905056fea26469706673582212207a2bc118644474f0bd42b7497cdb94095caac49558a54e48ae0f2669edfebe2164736f6c63430008070033",
					"opcodes": "PUSH1 0x80 PUSH1 0x40 MSTORE NUMBER PUSH1 0x0 SSTORE TIMESTAMP PUSH1 0x1 SSTORE GASLIMIT PUSH1 0x2 SSTORE DIFFICULTY PUSH1 0x3 SSTORE COINBASE PUSH1 0x4 PUSH1 0x0 PUSH2 0x100 EXP DUP2 SLOAD DUP2 PUSH20 0xFFFFFFFFFFFFFFFFFFFFFFFFFFFFFFFFFFFFFFFF MUL NOT AND SWAP1 DUP4 PUSH20 0xFFFFFFFFFFFFFFFFFFFFFFFFFFFFFFFFFFFFFFFF AND MUL OR SWAP1 SSTORE POP CHAINID PUSH1 0x5 SSTORE PUSH1 0x0 CALLDATASIZE PUSH1 0x6 SWAP2 SWAP1 PUSH2 0x6B SWAP3 SWAP2 SWAP1 PUSH2 0x7E JUMP JUMPDEST POP CALLVALUE DUP1 ISZERO PUSH2 0x78 JUMPI PUSH1 0x0 DUP1 REVERT JUMPDEST POP PUSH2 0x182 JUMP JUMPDEST DUP3 DUP1 SLOAD PUSH2 0x8A SWAP1 PUSH2 0x121 JUMP JUMPDEST SWAP1 PUSH1 0x0 MSTORE PUSH1 0x20 PUSH1 0x0 KECCAK256 SWAP1 PUSH1 0x1F ADD PUSH1 0x20 SWAP1 DIV DUP2 ADD SWAP3 DUP3 PUSH2 0xAC JUMPI PUSH1 0x0 DUP6 SSTORE PUSH2 0xF3 JUMP JUMPDEST DUP3 PUSH1 0x1F LT PUSH2 0xC5 JUMPI DUP1 CALLDATALOAD PUSH1 0xFF NOT AND DUP4 DUP1 ADD OR DUP6 SSTORE PUSH2 0xF3 JUMP JUMPDEST DUP3 DUP1 ADD PUSH1 0x1 ADD DUP6 SSTORE DUP3 ISZERO PUSH2 0xF3 JUMPI SWAP2 DUP3 ADD JUMPDEST DUP3 DUP2 GT ISZERO PUSH2 0xF2 JUMPI DUP3 CALLDATALOAD DUP3 SSTORE SWAP2 PUSH1 0x20 ADD SWAP2 SWAP1 PUSH1 0x1 ADD SWAP1 PUSH2 0xD7 JUMP JUMPDEST JUMPDEST POP SWAP1 POP PUSH2 0x100 SWAP2 SWAP1 PUSH2 0x104 JUMP JUMPDEST POP SWAP1 JUMP JUMPDEST JUMPDEST DUP1 DUP3 GT ISZERO PUSH2 0x11D JUMPI PUSH1 0x0 DUP2 PUSH1 0x0 SWAP1 SSTORE POP PUSH1 0x1 ADD PUSH2 0x105 JUMP JUMPDEST POP SWAP1 JUMP JUMPDEST PUSH1 0x0 PUSH1 0x2 DUP3 DIV SWAP1 POP PUSH1 0x1 DUP3 AND DUP1 PUSH2 0x139 JUMPI PUSH1 0x7F DUP3 AND SWAP2 POP JUMPDEST PUSH1 0x20 DUP3 LT DUP2 EQ ISZERO PUSH2 0x14D JUMPI PUSH2 0x14C PUSH2 0x153 JUMP JUMPDEST JUMPDEST POP SWAP2 SWAP1 POP JUMP JUMPDEST PUSH32 0x4E487B7100000000000000000000000000000000000000000000000000000000 PUSH1 0x0 MSTORE PUSH1 0x22 PUSH1 0x4 MSTORE PUSH1 0x24 PUSH1 0x0 REVERT JUMPDEST PUSH2 0x408 DUP1 PUSH2 0x191 PUSH1 0x0 CODECOPY PUSH1 0x0 RETURN INVALID PUSH1 0x80 PUSH1 0x40 MSTORE CALLVALUE DUP1 ISZERO PUSH2 0x10 JUMPI PUSH1 0x0 DUP1 REVERT JUMPDEST POP PUSH1 0x4 CALLDATASIZE LT PUSH2 0x7D JUMPI PUSH1 0x0 CALLDATALOAD PUSH1 0xE0 SHR DUP1 PUSH4 0x7390278D GT PUSH2 0x5B JUMPI DUP1 PUSH4 0x7390278D EQ PUSH2 0xDC JUMPI DUP1 PUSH4 0x8182A11F EQ PUSH2 0xFA JUMPI DUP1 PUSH4 0xADC879E9 EQ PUSH2 0x118 JUMPI DUP1 PUSH4 0xC2546F7B EQ PUSH2 0x136 JUMPI PUSH2 0x7D JUMP JUMPDEST DUP1 PUSH4 0x5062247 EQ PUSH2 0x82 JUMPI DUP1 PUSH4 0x18B66EA3 EQ PUSH2 0xA0 JUMPI DUP1 PUSH4 0x5DF32C47 EQ PUSH2 0xBE JUMPI JUMPDEST PUSH1 0x0 DUP1 REVERT JUMPDEST PUSH2 0x8A PUSH2 0x154 JUMP JUMPDEST PUSH1 0x40 MLOAD PUSH2 0x97 SWAP2 SWAP1 PUSH2 0x2BA JUMP JUMPDEST PUSH1 0x40 MLOAD DUP1 SWAP2 SUB SWAP1 RETURN JUMPDEST PUSH2 0xA8 PUSH2 0x15A JUMP JUMPDEST PUSH1 0x40 MLOAD PUSH2 0xB5 SWAP2 SWAP1 PUSH2 0x27D JUMP JUMPDEST PUSH1 0x40 MLOAD DUP1 SWAP2 SUB SWAP1 RETURN JUMPDEST PUSH2 0xC6 PUSH2 0x180 JUMP JUMPDEST PUSH1 0x40 MLOAD PUSH2 0xD3 SWAP2 SWAP1 PUSH2 0x2BA JUMP JUMPDEST PUSH1 0x40 MLOAD DUP1 SWAP2 SUB SWAP1 RETURN JUMPDEST PUSH2 0xE4 PUSH2 0x186 JUMP JUMPDEST PUSH1 0x40 MLOAD PUSH2 0xF1 SWAP2 SWAP1 PUSH2 0x2BA JUMP JUMPDEST PUSH1 0x40 MLOAD DUP1 SWAP2 SUB SWAP1 RETURN JUMPDEST PUSH2 0x102 PUSH2 0x18C JUMP JUMPDEST PUSH1 0x40 MLOAD PUSH2 0x10F SWAP2 SWAP1 PUSH2 0x2BA JUMP JUMPDEST PUSH1 0x40 MLOAD DUP1 SWAP2 SUB SWAP1 RETURN JUMPDEST PUSH2 0x120 PUSH2 0x192 JUMP JUMPDEST PUSH1 0x40 MLOAD PUSH2 0x12D SWAP2 SWAP1 PUSH2 0x2BA JUMP JUMPDEST PUSH1 0x40 MLOAD DUP1 SWAP2 SUB SWAP1 RETURN JUMPDEST PUSH2 0x13E PUSH2 0x198 JUMP JUMPDEST PUSH1 0x40 MLOAD PUSH2 0x14B SWAP2 SWAP1 PUSH2 0x298 JUMP JUMPDEST PUSH1 0x40 MLOAD DUP1 SWAP2 SUB SWAP1 RETURN JUMPDEST PUSH1 0x0 SLOAD DUP2 JUMP JUMPDEST PUSH1 0x4 PUSH1 0x0 SWAP1 SLOAD SWAP1 PUSH2 0x100 EXP SWAP1 DIV PUSH20 0xFFFFFFFFFFFFFFFFFFFFFFFFFFFFFFFFFFFFFFFF AND DUP2 JUMP JUMPDEST PUSH1 0x3 SLOAD DUP2 JUMP JUMPDEST PUSH1 0x2 SLOAD DUP2 JUMP JUMPDEST PUSH1 0x1 SLOAD DUP2 JUMP JUMPDEST PUSH1 0x5 SLOAD DUP2 JUMP JUMPDEST PUSH1 0x6 DUP1 SLOAD PUSH2 0x1A5 SWAP1 PUSH2 0x360 JUMP JUMPDEST DUP1 PUSH1 0x1F ADD PUSH1 0x20 DUP1 SWAP2 DIV MUL PUSH1 0x20 ADD PUSH1 0x40 MLOAD SWAP1 DUP2 ADD PUSH1 0x40 MSTORE DUP1 SWAP3 SWAP2 SWAP1 DUP2 DUP2 MSTORE PUSH1 0x20 ADD DUP3 DUP1 SLOAD PUSH2 0x1D1 SWAP1 PUSH2 0x360 JUMP JUMPDEST DUP1 ISZERO PUSH2 0x21E JUMPI DUP1 PUSH1 0x1F LT PUSH2 0x1F3 JUMPI PUSH2 0x100 DUP1 DUP4 SLOAD DIV MUL DUP4 MSTORE SWAP2 PUSH1 0x20 ADD SWAP2 PUSH2 0x21E JUMP JUMPDEST DUP3 ADD SWAP2 SWAP1 PUSH1 0x0 MSTORE PUSH1 0x20 PUSH1 0x0 KECCAK256 SWAP1 JUMPDEST DUP2 SLOAD DUP2 MSTORE SWAP1 PUSH1 0x1 ADD SWAP1 PUSH1 0x20 ADD DUP1 DUP4 GT PUSH2 0x201 JUMPI DUP3 SWAP1 SUB PUSH1 0x1F AND DUP3 ADD SWAP2 JUMPDEST POP POP POP POP POP DUP2 JUMP JUMPDEST PUSH2 0x22F DUP2 PUSH2 0x2F1 JUMP JUMPDEST DUP3 MSTORE POP POP JUMP JUMPDEST PUSH1 0x0 PUSH2 0x240 DUP3 PUSH2 0x2D5 JUMP JUMPDEST PUSH2 0x24A DUP2 DUP6 PUSH2 0x2E0 JUMP JUMPDEST SWAP4 POP PUSH2 0x25A DUP2 DUP6 PUSH1 0x20 DUP7 ADD PUSH2 0x32D JUMP JUMPDEST PUSH2 0x263 DUP2 PUSH2 0x3C1 JUMP JUMPDEST DUP5 ADD SWAP2 POP POP SWAP3 SWAP2 POP POP JUMP JUMPDEST PUSH2 0x277 DUP2 PUSH2 0x323 JUMP JUMPDEST DUP3 MSTORE POP POP JUMP JUMPDEST PUSH1 0x0 PUSH1 0x20 DUP3 ADD SWAP1 POP PUSH2 0x292 PUSH1 0x0 DUP4 ADD DUP5 PUSH2 0x226 JUMP JUMPDEST SWAP3 SWAP2 POP POP JUMP JUMPDEST PUSH1 0x0 PUSH1 0x20 DUP3 ADD SWAP1 POP DUP2 DUP2 SUB PUSH1 0x0 DUP4 ADD MSTORE PUSH2 0x2B2 DUP2 DUP5 PUSH2 0x235 JUMP JUMPDEST SWAP1 POP SWAP3 SWAP2 POP POP JUMP JUMPDEST PUSH1 0x0 PUSH1 0x20 DUP3 ADD SWAP1 POP PUSH2 0x2CF PUSH1 0x0 DUP4 ADD DUP5 PUSH2 0x26E JUMP JUMPDEST SWAP3 SWAP2 POP POP JUMP JUMPDEST PUSH1 0x0 DUP2 MLOAD SWAP1 POP SWAP2 SWAP1 POP JUMP JUMPDEST PUSH1 0x0 DUP3 DUP3 MSTORE PUSH1 0x20 DUP3 ADD SWAP1 POP SWAP3 SWAP2 POP POP JUMP JUMPDEST PUSH1 0x0 PUSH2 0x2FC DUP3 PUSH2 0x303 JUMP JUMPDEST SWAP1 POP SWAP2 SWAP1 POP JUMP JUMPDEST PUSH1 0x0 PUSH20 0xFFFFFFFFFFFFFFFFFFFFFFFFFFFFFFFFFFFFFFFF DUP3 AND SWAP1 POP SWAP2 SWAP1 POP JUMP JUMPDEST PUSH1 0x0 DUP2 SWAP1 POP SWAP2 SWAP1 POP JUMP JUMPDEST PUSH1 0x0 JUMPDEST DUP4 DUP2 LT ISZERO PUSH2 0x34B JUMPI DUP1 DUP3 ADD MLOAD DUP2 DUP5 ADD MSTORE PUSH1 0x20 DUP2 ADD SWAP1 POP PUSH2 0x330 JUMP JUMPDEST DUP4 DUP2 GT ISZERO PUSH2 0x35A JUMPI PUSH1 0x0 DUP5 DUP5 ADD MSTORE JUMPDEST POP POP POP POP JUMP JUMPDEST PUSH1 0x0 PUSH1 0x2 DUP3 DIV SWAP1 POP PUSH1 0x1 DUP3 AND DUP1 PUSH2 0x378 JUMPI PUSH1 0x7F DUP3 AND SWAP2 POP JUMPDEST PUSH1 0x20 DUP3 LT DUP2 EQ ISZERO PUSH2 0x38C JUMPI PUSH2 0x38B PUSH2 0x392 JUMP JUMPDEST JUMPDEST POP SWAP2 SWAP1 POP JUMP JUMPDEST PUSH32 0x4E487B7100000000000000000000000000000000000000000000000000000000 PUSH1 0x0 MSTORE PUSH1 0x22 PUSH1 0x4 MSTORE PUSH1 0x24 PUSH1 0x0 REVERT JUMPDEST PUSH1 0x0 PUSH1 0x1F NOT PUSH1 0x1F DUP4 ADD AND SWAP1 POP SWAP2 SWAP1 POP JUMP INVALID LOG2 PUSH5 0x6970667358 0x22 SLT KECCAK256 PUSH27 0x2BC118644474F0BD42B7497CDB94095CAAC49558A54E48AE0F2669 0xED INVALID 0xBE 0x21 PUSH5 0x736F6C6343 STOP ADDMOD SMOD STOP CALLER "
				},
				"gasEstimates": {
					"creation": {
						"codeDepositCost": "206400",
						"executionCost": "infinite",
						"totalCost": "infinite"
					},
					"external": {
						"blockcoinbase()": "2537",
						"blockdifficulty()": "2474",
						"blockgaglimt()": "2429",
						"blocknumber()": "2430",
						"blocktimestamp()": "2451",
						"chainID()": "2473",
						"msgbytes()": "infinite"
					}
				},
				"methodIdentifiers": {
					"blockcoinbase()": "18b66ea3",
					"blockdifficulty()": "5df32c47",
					"blockgaglimt()": "7390278d",
					"blocknumber()": "05062247",
					"blocktimestamp()": "8182a11f",
					"chainID()": "adc879e9",
					"msgbytes()": "c2546f7b"
				}
			},
			"storageLayout": {
				"storage": [
					{
						"astId": 5,
						"contract": "study/chapter03/2innerfunc.sol:innerFunc",
						"label": "blocknumber",
						"offset": 0,
						"slot": "0",
						"type": "t_uint256"
					},
					{
						"astId": 9,
						"contract": "study/chapter03/2innerfunc.sol:innerFunc",
						"label": "blocktimestamp",
						"offset": 0,
						"slot": "1",
						"type": "t_uint256"
					},
					{
						"astId": 13,
						"contract": "study/chapter03/2innerfunc.sol:innerFunc",
						"label": "blockgaglimt",
						"offset": 0,
						"slot": "2",
						"type": "t_uint256"
					},
					{
						"astId": 17,
						"contract": "study/chapter03/2innerfunc.sol:innerFunc",
						"label": "blockdifficulty",
						"offset": 0,
						"slot": "3",
						"type": "t_uint256"
					},
					{
						"astId": 21,
						"contract": "study/chapter03/2innerfunc.sol:innerFunc",
						"label": "blockcoinbase",
						"offset": 0,
						"slot": "4",
						"type": "t_address"
					},
					{
						"astId": 25,
						"contract": "study/chapter03/2innerfunc.sol:innerFunc",
						"label": "chainID",
						"offset": 0,
						"slot": "5",
						"type": "t_uint256"
					},
					{
						"astId": 29,
						"contract": "study/chapter03/2innerfunc.sol:innerFunc",
						"label": "msgbytes",
						"offset": 0,
						"slot": "6",
						"type": "t_bytes_storage"
					}
				],
				"types": {
					"t_address": {
						"encoding": "inplace",
						"label": "address",
						"numberOfBytes": "20"
					},
					"t_bytes_storage": {
						"encoding": "bytes",
						"label": "bytes",
						"numberOfBytes": "32"
					},
					"t_uint256": {
						"encoding": "inplace",
						"label": "uint256",
						"numberOfBytes": "32"
					}
				}
			},
			"userdoc": {
				"kind": "user",
				"methods": {},
				"version": 1
			}
		}
	}
}