{
	"code2/3fubc.sol": {
		"Func": {
			"abi": [
				{
					"inputs": [
						{
							"internalType": "uint256",
							"name": "x",
							"type": "uint256"
						},
						{
							"internalType": "uint256",
							"name": "y",
							"type": "uint256"
						}
					],
					"name": "Add",
					"outputs": [
						{
							"internalType": "uint256",
							"name": "",
							"type": "uint256"
						}
					],
					"stateMutability": "pure",
					"type": "function"
				},
				{
					"inputs": [
						{
							"internalType": "uint256",
							"name": "x",
							"type": "uint256"
						},
						{
							"internalType": "uint256",
							"name": "y",
							"type": "uint256"
						}
					],
					"name": "Use",
					"outputs": [
						{
							"internalType": "uint256",
							"name": "",
							"type": "uint256"
						}
					],
					"stateMutability": "pure",
					"type": "function"
				}
			],
			"devdoc": {
				"kind": "dev",
				"methods": {},
				"version": 1
			},
			"evm": {
				"assembly": "    /* \"code2/3fubc.sol\":53:519  contract Func{... */\n  mstore(0x40, 0x80)\n  callvalue\n  dup1\n  iszero\n  tag_1\n  jumpi\n  0x00\n  dup1\n  revert\ntag_1:\n  pop\n  dataSize(sub_0)\n  dup1\n  dataOffset(sub_0)\n  0x00\n  codecopy\n  0x00\n  return\nstop\n\nsub_0: assembly {\n        /* \"code2/3fubc.sol\":53:519  contract Func{... */\n      mstore(0x40, 0x80)\n      callvalue\n      dup1\n      iszero\n      tag_1\n      jumpi\n      0x00\n      dup1\n      revert\n    tag_1:\n      pop\n      jumpi(tag_2, lt(calldatasize, 0x04))\n      shr(0xe0, calldataload(0x00))\n      dup1\n      0x6473dd6c\n      eq\n      tag_3\n      jumpi\n      dup1\n      0x7afbe4f1\n      eq\n      tag_4\n      jumpi\n    tag_2:\n      0x00\n      dup1\n      revert\n        /* \"code2/3fubc.sol\":433:517  function Use(uint x,uint y)public pure returns(uint){... */\n    tag_3:\n      tag_5\n      0x04\n      dup1\n      calldatasize\n      sub\n      dup2\n      add\n      swap1\n      tag_6\n      swap2\n      swap1\n      tag_7\n      jump\t// in\n    tag_6:\n      tag_8\n      jump\t// in\n    tag_5:\n      mload(0x40)\n      tag_9\n      swap2\n      swap1\n      tag_10\n      jump\t// in\n    tag_9:\n      mload(0x40)\n      dup1\n      swap2\n      sub\n      swap1\n      return\n        /* \"code2/3fubc.sol\":72:153  function Add(uint x,uint y)external pure returns(uint){... */\n    tag_4:\n      tag_11\n      0x04\n      dup1\n      calldatasize\n      sub\n      dup2\n      add\n      swap1\n      tag_12\n      swap2\n      swap1\n      tag_7\n      jump\t// in\n    tag_12:\n      tag_13\n      jump\t// in\n    tag_11:\n      mload(0x40)\n      tag_14\n      swap2\n      swap1\n      tag_10\n      jump\t// in\n    tag_14:\n      mload(0x40)\n      dup1\n      swap2\n      sub\n      swap1\n      return\n        /* \"code2/3fubc.sol\":433:517  function Use(uint x,uint y)public pure returns(uint){... */\n    tag_8:\n        /* \"code2/3fubc.sol\":480:484  uint */\n      0x00\n        /* \"code2/3fubc.sol\":502:510  Sub(x,y) */\n      tag_16\n        /* \"code2/3fubc.sol\":506:507  x */\n      dup4\n        /* \"code2/3fubc.sol\":508:509  y */\n      dup4\n        /* \"code2/3fubc.sol\":502:505  Sub */\n      tag_17\n        /* \"code2/3fubc.sol\":502:510  Sub(x,y) */\n      jump\t// in\n    tag_16:\n        /* \"code2/3fubc.sol\":495:510  return Sub(x,y) */\n      swap1\n      pop\n        /* \"code2/3fubc.sol\":433:517  function Use(uint x,uint y)public pure returns(uint){... */\n      swap3\n      swap2\n      pop\n      pop\n      jump\t// out\n        /* \"code2/3fubc.sol\":72:153  function Add(uint x,uint y)external pure returns(uint){... */\n    tag_13:\n        /* \"code2/3fubc.sol\":121:125  uint */\n      0x00\n        /* \"code2/3fubc.sol\":145:146  y */\n      dup2\n        /* \"code2/3fubc.sol\":143:144  x */\n      dup4\n        /* \"code2/3fubc.sol\":143:146  x+y */\n      tag_19\n      swap2\n      swap1\n      tag_20\n      jump\t// in\n    tag_19:\n        /* \"code2/3fubc.sol\":136:146  return x+y */\n      swap1\n      pop\n        /* \"code2/3fubc.sol\":72:153  function Add(uint x,uint y)external pure returns(uint){... */\n      swap3\n      swap2\n      pop\n      pop\n      jump\t// out\n        /* \"code2/3fubc.sol\":345:427  function Sub(uint x, uint y)internal pure returns(uint){... */\n    tag_17:\n        /* \"code2/3fubc.sol\":395:399  uint */\n      0x00\n        /* \"code2/3fubc.sol\":419:420  y */\n      dup2\n        /* \"code2/3fubc.sol\":417:418  x */\n      dup4\n        /* \"code2/3fubc.sol\":417:420  x-y */\n      tag_22\n      swap2\n      swap1\n      tag_23\n      jump\t// in\n    tag_22:\n        /* \"code2/3fubc.sol\":410:420  return x-y */\n      swap1\n      pop\n        /* \"code2/3fubc.sol\":345:427  function Sub(uint x, uint y)internal pure returns(uint){... */\n      swap3\n      swap2\n      pop\n      pop\n      jump\t// out\n        /* \"#utility.yul\":7:146   */\n    tag_25:\n        /* \"#utility.yul\":53:58   */\n      0x00\n        /* \"#utility.yul\":91:97   */\n      dup2\n        /* \"#utility.yul\":78:98   */\n      calldataload\n        /* \"#utility.yul\":69:98   */\n      swap1\n      pop\n        /* \"#utility.yul\":107:140   */\n      tag_27\n        /* \"#utility.yul\":134:139   */\n      dup2\n        /* \"#utility.yul\":107:140   */\n      tag_28\n      jump\t// in\n    tag_27:\n        /* \"#utility.yul\":7:146   */\n      swap3\n      swap2\n      pop\n      pop\n      jump\t// out\n        /* \"#utility.yul\":152:626   */\n    tag_7:\n        /* \"#utility.yul\":220:226   */\n      0x00\n        /* \"#utility.yul\":228:234   */\n      dup1\n        /* \"#utility.yul\":277:279   */\n      0x40\n        /* \"#utility.yul\":265:274   */\n      dup4\n        /* \"#utility.yul\":256:263   */\n      dup6\n        /* \"#utility.yul\":252:275   */\n      sub\n        /* \"#utility.yul\":248:280   */\n      slt\n        /* \"#utility.yul\":245:364   */\n      iszero\n      tag_30\n      jumpi\n        /* \"#utility.yul\":283:362   */\n      tag_31\n      tag_32\n      jump\t// in\n    tag_31:\n        /* \"#utility.yul\":245:364   */\n    tag_30:\n        /* \"#utility.yul\":403:404   */\n      0x00\n        /* \"#utility.yul\":428:481   */\n      tag_33\n        /* \"#utility.yul\":473:480   */\n      dup6\n        /* \"#utility.yul\":464:470   */\n      dup3\n        /* \"#utility.yul\":453:462   */\n      dup7\n        /* \"#utility.yul\":449:471   */\n      add\n        /* \"#utility.yul\":428:481   */\n      tag_25\n      jump\t// in\n    tag_33:\n        /* \"#utility.yul\":418:481   */\n      swap3\n      pop\n        /* \"#utility.yul\":374:491   */\n      pop\n        /* \"#utility.yul\":530:532   */\n      0x20\n        /* \"#utility.yul\":556:609   */\n      tag_34\n        /* \"#utility.yul\":601:608   */\n      dup6\n        /* \"#utility.yul\":592:598   */\n      dup3\n        /* \"#utility.yul\":581:590   */\n      dup7\n        /* \"#utility.yul\":577:599   */\n      add\n        /* \"#utility.yul\":556:609   */\n      tag_25\n      jump\t// in\n    tag_34:\n        /* \"#utility.yul\":546:609   */\n      swap2\n      pop\n        /* \"#utility.yul\":501:619   */\n      pop\n        /* \"#utility.yul\":152:626   */\n      swap3\n      pop\n      swap3\n      swap1\n      pop\n      jump\t// out\n        /* \"#utility.yul\":632:750   */\n    tag_35:\n        /* \"#utility.yul\":719:743   */\n      tag_37\n        /* \"#utility.yul\":737:742   */\n      dup2\n        /* \"#utility.yul\":719:743   */\n      tag_38\n      jump\t// in\n    tag_37:\n        /* \"#utility.yul\":714:717   */\n      dup3\n        /* \"#utility.yul\":707:744   */\n      mstore\n        /* \"#utility.yul\":632:750   */\n      pop\n      pop\n      jump\t// out\n        /* \"#utility.yul\":756:978   */\n    tag_10:\n        /* \"#utility.yul\":849:853   */\n      0x00\n        /* \"#utility.yul\":887:889   */\n      0x20\n        /* \"#utility.yul\":876:885   */\n      dup3\n        /* \"#utility.yul\":872:890   */\n      add\n        /* \"#utility.yul\":864:890   */\n      swap1\n      pop\n        /* \"#utility.yul\":900:971   */\n      tag_40\n        /* \"#utility.yul\":968:969   */\n      0x00\n        /* \"#utility.yul\":957:966   */\n      dup4\n        /* \"#utility.yul\":953:970   */\n      add\n        /* \"#utility.yul\":944:950   */\n      dup5\n        /* \"#utility.yul\":900:971   */\n      tag_35\n      jump\t// in\n    tag_40:\n        /* \"#utility.yul\":756:978   */\n      swap3\n      swap2\n      pop\n      pop\n      jump\t// out\n        /* \"#utility.yul\":1065:1370   */\n    tag_20:\n        /* \"#utility.yul\":1105:1108   */\n      0x00\n        /* \"#utility.yul\":1124:1144   */\n      tag_44\n        /* \"#utility.yul\":1142:1143   */\n      dup3\n        /* \"#utility.yul\":1124:1144   */\n      tag_38\n      jump\t// in\n    tag_44:\n        /* \"#utility.yul\":1119:1144   */\n      swap2\n      pop\n        /* \"#utility.yul\":1158:1178   */\n      tag_45\n        /* \"#utility.yul\":1176:1177   */\n      dup4\n        /* \"#utility.yul\":1158:1178   */\n      tag_38\n      jump\t// in\n    tag_45:\n        /* \"#utility.yul\":1153:1178   */\n      swap3\n      pop\n        /* \"#utility.yul\":1312:1313   */\n      dup3\n        /* \"#utility.yul\":1244:1310   */\n      0xffffffffffffffffffffffffffffffffffffffffffffffffffffffffffffffff\n        /* \"#utility.yul\":1240:1314   */\n      sub\n        /* \"#utility.yul\":1237:1238   */\n      dup3\n        /* \"#utility.yul\":1234:1315   */\n      gt\n        /* \"#utility.yul\":1231:1338   */\n      iszero\n      tag_46\n      jumpi\n        /* \"#utility.yul\":1318:1336   */\n      tag_47\n      tag_48\n      jump\t// in\n    tag_47:\n        /* \"#utility.yul\":1231:1338   */\n    tag_46:\n        /* \"#utility.yul\":1362:1363   */\n      dup3\n        /* \"#utility.yul\":1359:1360   */\n      dup3\n        /* \"#utility.yul\":1355:1364   */\n      add\n        /* \"#utility.yul\":1348:1364   */\n      swap1\n      pop\n        /* \"#utility.yul\":1065:1370   */\n      swap3\n      swap2\n      pop\n      pop\n      jump\t// out\n        /* \"#utility.yul\":1376:1567   */\n    tag_23:\n        /* \"#utility.yul\":1416:1420   */\n      0x00\n        /* \"#utility.yul\":1436:1456   */\n      tag_50\n        /* \"#utility.yul\":1454:1455   */\n      dup3\n        /* \"#utility.yul\":1436:1456   */\n      tag_38\n      jump\t// in\n    tag_50:\n        /* \"#utility.yul\":1431:1456   */\n      swap2\n      pop\n        /* \"#utility.yul\":1470:1490   */\n      tag_51\n        /* \"#utility.yul\":1488:1489   */\n      dup4\n        /* \"#utility.yul\":1470:1490   */\n      tag_38\n      jump\t// in\n    tag_51:\n        /* \"#utility.yul\":1465:1490   */\n      swap3\n      pop\n        /* \"#utility.yul\":1509:1510   */\n      dup3\n        /* \"#utility.yul\":1506:1507   */\n      dup3\n        /* \"#utility.yul\":1503:1511   */\n      lt\n        /* \"#utility.yul\":1500:1534   */\n      iszero\n      tag_52\n      jumpi\n        /* \"#utility.yul\":1514:1532   */\n      tag_53\n      tag_48\n      jump\t// in\n    tag_53:\n        /* \"#utility.yul\":1500:1534   */\n    tag_52:\n        /* \"#utility.yul\":1559:1560   */\n      dup3\n        /* \"#utility.yul\":1556:1557   */\n      dup3\n        /* \"#utility.yul\":1552:1561   */\n      sub\n        /* \"#utility.yul\":1544:1561   */\n      swap1\n      pop\n        /* \"#utility.yul\":1376:1567   */\n      swap3\n      swap2\n      pop\n      pop\n      jump\t// out\n        /* \"#utility.yul\":1573:1650   */\n    tag_38:\n        /* \"#utility.yul\":1610:1617   */\n      0x00\n        /* \"#utility.yul\":1639:1644   */\n      dup2\n        /* \"#utility.yul\":1628:1644   */\n      swap1\n      pop\n        /* \"#utility.yul\":1573:1650   */\n      swap2\n      swap1\n      pop\n      jump\t// out\n        /* \"#utility.yul\":1656:1836   */\n    tag_48:\n        /* \"#utility.yul\":1704:1781   */\n      0x4e487b7100000000000000000000000000000000000000000000000000000000\n        /* \"#utility.yul\":1701:1702   */\n      0x00\n        /* \"#utility.yul\":1694:1782   */\n      mstore\n        /* \"#utility.yul\":1801:1805   */\n      0x11\n        /* \"#utility.yul\":1798:1799   */\n      0x04\n        /* \"#utility.yul\":1791:1806   */\n      mstore\n        /* \"#utility.yul\":1825:1829   */\n      0x24\n        /* \"#utility.yul\":1822:1823   */\n      0x00\n        /* \"#utility.yul\":1815:1830   */\n      revert\n        /* \"#utility.yul\":1965:2082   */\n    tag_32:\n        /* \"#utility.yul\":2074:2075   */\n      0x00\n        /* \"#utility.yul\":2071:2072   */\n      dup1\n        /* \"#utility.yul\":2064:2076   */\n      revert\n        /* \"#utility.yul\":2088:2210   */\n    tag_28:\n        /* \"#utility.yul\":2161:2185   */\n      tag_60\n        /* \"#utility.yul\":2179:2184   */\n      dup2\n        /* \"#utility.yul\":2161:2185   */\n      tag_38\n      jump\t// in\n    tag_60:\n        /* \"#utility.yul\":2154:2159   */\n      dup2\n        /* \"#utility.yul\":2151:2186   */\n      eq\n        /* \"#utility.yul\":2141:2204   */\n      tag_61\n      jumpi\n        /* \"#utility.yul\":2200:2201   */\n      0x00\n        /* \"#utility.yul\":2197:2198   */\n      dup1\n        /* \"#utility.yul\":2190:2202   */\n      revert\n        /* \"#utility.yul\":2141:2204   */\n    tag_61:\n        /* \"#utility.yul\":2088:2210   */\n      pop\n      jump\t// out\n\n    auxdata: 0xa264697066735822122042fba6ac5c912a63b31fa9d0231ac2132922f632f763cc81d0d68d215c70ea9764736f6c63430008070033\n}\n",
				"bytecode": {
					"linkReferences": {},
					"object": "608060405234801561001057600080fd5b5061026f806100206000396000f3fe608060405234801561001057600080fd5b50600436106100365760003560e01c80636473dd6c1461003b5780637afbe4f11461006b575b600080fd5b610055600480360381019061005091906100f0565b61009b565b604051610062919061013f565b60405180910390f35b610085600480360381019061008091906100f0565b6100af565b604051610092919061013f565b60405180910390f35b60006100a783836100c5565b905092915050565b600081836100bd919061015a565b905092915050565b600081836100d391906101b0565b905092915050565b6000813590506100ea81610222565b92915050565b600080604083850312156101075761010661021d565b5b6000610115858286016100db565b9250506020610126858286016100db565b9150509250929050565b610139816101e4565b82525050565b60006020820190506101546000830184610130565b92915050565b6000610165826101e4565b9150610170836101e4565b9250827fffffffffffffffffffffffffffffffffffffffffffffffffffffffffffffffff038211156101a5576101a46101ee565b5b828201905092915050565b60006101bb826101e4565b91506101c6836101e4565b9250828210156101d9576101d86101ee565b5b828203905092915050565b6000819050919050565b7f4e487b7100000000000000000000000000000000000000000000000000000000600052601160045260246000fd5b600080fd5b61022b816101e4565b811461023657600080fd5b5056fea264697066735822122042fba6ac5c912a63b31fa9d0231ac2132922f632f763cc81d0d68d215c70ea9764736f6c63430008070033",
					"opcodes": "PUSH1 0x80 PUSH1 0x40 MSTORE CALLVALUE DUP1 ISZERO PUSH2 0x10 JUMPI PUSH1 0x0 DUP1 REVERT JUMPDEST POP PUSH2 0x26F DUP1 PUSH2 0x20 PUSH1 0x0 CODECOPY PUSH1 0x0 RETURN INVALID PUSH1 0x80 PUSH1 0x40 MSTORE CALLVALUE DUP1 ISZERO PUSH2 0x10 JUMPI PUSH1 0x0 DUP1 REVERT JUMPDEST POP PUSH1 0x4 CALLDATASIZE LT PUSH2 0x36 JUMPI PUSH1 0x0 CALLDATALOAD PUSH1 0xE0 SHR DUP1 PUSH4 0x6473DD6C EQ PUSH2 0x3B JUMPI DUP1 PUSH4 0x7AFBE4F1 EQ PUSH2 0x6B JUMPI JUMPDEST PUSH1 0x0 DUP1 REVERT JUMPDEST PUSH2 0x55 PUSH1 0x4 DUP1 CALLDATASIZE SUB DUP2 ADD SWAP1 PUSH2 0x50 SWAP2 SWAP1 PUSH2 0xF0 JUMP JUMPDEST PUSH2 0x9B JUMP JUMPDEST PUSH1 0x40 MLOAD PUSH2 0x62 SWAP2 SWAP1 PUSH2 0x13F JUMP JUMPDEST PUSH1 0x40 MLOAD DUP1 SWAP2 SUB SWAP1 RETURN JUMPDEST PUSH2 0x85 PUSH1 0x4 DUP1 CALLDATASIZE SUB DUP2 ADD SWAP1 PUSH2 0x80 SWAP2 SWAP1 PUSH2 0xF0 JUMP JUMPDEST PUSH2 0xAF JUMP JUMPDEST PUSH1 0x40 MLOAD PUSH2 0x92 SWAP2 SWAP1 PUSH2 0x13F JUMP JUMPDEST PUSH1 0x40 MLOAD DUP1 SWAP2 SUB SWAP1 RETURN JUMPDEST PUSH1 0x0 PUSH2 0xA7 DUP4 DUP4 PUSH2 0xC5 JUMP JUMPDEST SWAP1 POP SWAP3 SWAP2 POP POP JUMP JUMPDEST PUSH1 0x0 DUP2 DUP4 PUSH2 0xBD SWAP2 SWAP1 PUSH2 0x15A JUMP JUMPDEST SWAP1 POP SWAP3 SWAP2 POP POP JUMP JUMPDEST PUSH1 0x0 DUP2 DUP4 PUSH2 0xD3 SWAP2 SWAP1 PUSH2 0x1B0 JUMP JUMPDEST SWAP1 POP SWAP3 SWAP2 POP POP JUMP JUMPDEST PUSH1 0x0 DUP2 CALLDATALOAD SWAP1 POP PUSH2 0xEA DUP2 PUSH2 0x222 JUMP JUMPDEST SWAP3 SWAP2 POP POP JUMP JUMPDEST PUSH1 0x0 DUP1 PUSH1 0x40 DUP4 DUP6 SUB SLT ISZERO PUSH2 0x107 JUMPI PUSH2 0x106 PUSH2 0x21D JUMP JUMPDEST JUMPDEST PUSH1 0x0 PUSH2 0x115 DUP6 DUP3 DUP7 ADD PUSH2 0xDB JUMP JUMPDEST SWAP3 POP POP PUSH1 0x20 PUSH2 0x126 DUP6 DUP3 DUP7 ADD PUSH2 0xDB JUMP JUMPDEST SWAP2 POP POP SWAP3 POP SWAP3 SWAP1 POP JUMP JUMPDEST PUSH2 0x139 DUP2 PUSH2 0x1E4 JUMP JUMPDEST DUP3 MSTORE POP POP JUMP JUMPDEST PUSH1 0x0 PUSH1 0x20 DUP3 ADD SWAP1 POP PUSH2 0x154 PUSH1 0x0 DUP4 ADD DUP5 PUSH2 0x130 JUMP JUMPDEST SWAP3 SWAP2 POP POP JUMP JUMPDEST PUSH1 0x0 PUSH2 0x165 DUP3 PUSH2 0x1E4 JUMP JUMPDEST SWAP2 POP PUSH2 0x170 DUP4 PUSH2 0x1E4 JUMP JUMPDEST SWAP3 POP DUP3 PUSH32 0xFFFFFFFFFFFFFFFFFFFFFFFFFFFFFFFFFFFFFFFFFFFFFFFFFFFFFFFFFFFFFFFF SUB DUP3 GT ISZERO PUSH2 0x1A5 JUMPI PUSH2 0x1A4 PUSH2 0x1EE JUMP JUMPDEST JUMPDEST DUP3 DUP3 ADD SWAP1 POP SWAP3 SWAP2 POP POP JUMP JUMPDEST PUSH1 0x0 PUSH2 0x1BB DUP3 PUSH2 0x1E4 JUMP JUMPDEST SWAP2 POP PUSH2 0x1C6 DUP4 PUSH2 0x1E4 JUMP JUMPDEST SWAP3 POP DUP3 DUP3 LT ISZERO PUSH2 0x1D9 JUMPI PUSH2 0x1D8 PUSH2 0x1EE JUMP JUMPDEST JUMPDEST DUP3 DUP3 SUB SWAP1 POP SWAP3 SWAP2 POP POP JUMP JUMPDEST PUSH1 0x0 DUP2 SWAP1 POP SWAP2 SWAP1 POP JUMP JUMPDEST PUSH32 0x4E487B7100000000000000000000000000000000000000000000000000000000 PUSH1 0x0 MSTORE PUSH1 0x11 PUSH1 0x4 MSTORE PUSH1 0x24 PUSH1 0x0 REVERT JUMPDEST PUSH1 0x0 DUP1 REVERT JUMPDEST PUSH2 0x22B DUP2 PUSH2 0x1E4 JUMP JUMPDEST DUP2 EQ PUSH2 0x236 JUMPI PUSH1 0x0 DUP1 REVERT JUMPDEST POP JUMP INVALID LOG2 PUSH5 0x6970667358 0x22 SLT KECCAK256 TIMESTAMP 0xFB 0xA6 0xAC 0x5C SWAP2 0x2A PUSH4 0xB31FA9D0 0x23 BYTE 0xC2 SGT 0x29 0x22 0xF6 ORIGIN 0xF7 PUSH4 0xCC81D0D6 DUP14 0x21 0x5C PUSH17 0xEA9764736F6C6343000807003300000000 "
				},
				"gasEstimates": {
					"creation": {
						"codeDepositCost": "124600",
						"executionCost": "171",
						"totalCost": "124771"
					},
					"external": {
						"Add(uint256,uint256)": "infinite",
						"Use(uint256,uint256)": "infinite"
					},
					"internal": {
						"Sub(uint256,uint256)": "infinite"
					}
				},
				"methodIdentifiers": {
					"Add(uint256,uint256)": "7afbe4f1",
					"Use(uint256,uint256)": "6473dd6c"
				}
			},
			"storageLayout": {
				"storage": [],
				"types": null
			},
			"userdoc": {
				"kind": "user",
				"methods": {},
				"version": 1
			}
		}
	}
}