{
	"code5/1modifier.sol": {
		"Modifier": {
			"abi": [
				{
					"inputs": [],
					"name": "add",
					"outputs": [],
					"stateMutability": "nonpayable",
					"type": "function"
				},
				{
					"inputs": [],
					"name": "count",
					"outputs": [
						{
							"internalType": "uint256",
							"name": "",
							"type": "uint256"
						}
					],
					"stateMutability": "view",
					"type": "function"
				},
				{
					"inputs": [],
					"name": "paused",
					"outputs": [
						{
							"internalType": "bool",
							"name": "",
							"type": "bool"
						}
					],
					"stateMutability": "view",
					"type": "function"
				},
				{
					"inputs": [
						{
							"internalType": "bool",
							"name": "_pause",
							"type": "bool"
						}
					],
					"name": "setP",
					"outputs": [],
					"stateMutability": "nonpayable",
					"type": "function"
				}
			],
			"devdoc": {
				"kind": "dev",
				"methods": {},
				"version": 1
			},
			"evm": {
				"assembly": "    /* \"code5/1modifier.sol\":54:341  contract Modifier{... */\n  mstore(0x40, 0x80)\n  callvalue\n  dup1\n  iszero\n  tag_1\n  jumpi\n  0x00\n  dup1\n  revert\ntag_1:\n  pop\n  dataSize(sub_0)\n  dup1\n  dataOffset(sub_0)\n  0x00\n  codecopy\n  0x00\n  return\nstop\n\nsub_0: assembly {\n        /* \"code5/1modifier.sol\":54:341  contract Modifier{... */\n      mstore(0x40, 0x80)\n      callvalue\n      dup1\n      iszero\n      tag_1\n      jumpi\n      0x00\n      dup1\n      revert\n    tag_1:\n      pop\n      jumpi(tag_2, lt(calldatasize, 0x04))\n      shr(0xe0, calldataload(0x00))\n      dup1\n      0x06661abd\n      eq\n      tag_3\n      jumpi\n      dup1\n      0x4f2be91f\n      eq\n      tag_4\n      jumpi\n      dup1\n      0x5c975abb\n      eq\n      tag_5\n      jumpi\n      dup1\n      0x84a303d6\n      eq\n      tag_6\n      jumpi\n    tag_2:\n      0x00\n      dup1\n      revert\n        /* \"code5/1modifier.sol\":101:118  uint public count */\n    tag_3:\n      tag_7\n      tag_8\n      jump\t// in\n    tag_7:\n      mload(0x40)\n      tag_9\n      swap2\n      swap1\n      tag_10\n      jump\t// in\n    tag_9:\n      mload(0x40)\n      dup1\n      swap2\n      sub\n      swap1\n      return\n        /* \"code5/1modifier.sol\":282:339  function add()external WhenPaused{... */\n    tag_4:\n      tag_11\n      tag_12\n      jump\t// in\n    tag_11:\n      stop\n        /* \"code5/1modifier.sol\":77:95  bool public paused */\n    tag_5:\n      tag_13\n      tag_14\n      jump\t// in\n    tag_13:\n      mload(0x40)\n      tag_15\n      swap2\n      swap1\n      tag_16\n      jump\t// in\n    tag_15:\n      mload(0x40)\n      dup1\n      swap2\n      sub\n      swap1\n      return\n        /* \"code5/1modifier.sol\":124:191  function setP(bool _pause)external {... */\n    tag_6:\n      tag_17\n      0x04\n      dup1\n      calldatasize\n      sub\n      dup2\n      add\n      swap1\n      tag_18\n      swap2\n      swap1\n      tag_19\n      jump\t// in\n    tag_18:\n      tag_20\n      jump\t// in\n    tag_17:\n      stop\n        /* \"code5/1modifier.sol\":101:118  uint public count */\n    tag_8:\n      sload(0x01)\n      dup2\n      jump\t// out\n        /* \"code5/1modifier.sol\":282:339  function add()external WhenPaused{... */\n    tag_12:\n        /* \"code5/1modifier.sol\":235:241  paused */\n      0x00\n      dup1\n      sload\n      swap1\n      0x0100\n      exp\n      swap1\n      div\n      0xff\n      and\n        /* \"code5/1modifier.sol\":227:259  require(paused,\"already paused\") */\n      tag_22\n      jumpi\n      mload(0x40)\n      0x08c379a000000000000000000000000000000000000000000000000000000000\n      dup2\n      mstore\n      0x04\n      add\n      tag_23\n      swap1\n      tag_24\n      jump\t// in\n    tag_23:\n      mload(0x40)\n      dup1\n      swap2\n      sub\n      swap1\n      revert\n    tag_22:\n        /* \"code5/1modifier.sol\":325:330  count */\n      0x01\n      0x00\n        /* \"code5/1modifier.sol\":325:332  count++ */\n      dup2\n      sload\n      dup1\n      swap3\n      swap2\n      swap1\n      tag_26\n      swap1\n      tag_27\n      jump\t// in\n    tag_26:\n      swap2\n      swap1\n      pop\n      sstore\n      pop\n        /* \"code5/1modifier.sol\":282:339  function add()external WhenPaused{... */\n      jump\t// out\n        /* \"code5/1modifier.sol\":77:95  bool public paused */\n    tag_14:\n      0x00\n      dup1\n      sload\n      swap1\n      0x0100\n      exp\n      swap1\n      div\n      0xff\n      and\n      dup2\n      jump\t// out\n        /* \"code5/1modifier.sol\":124:191  function setP(bool _pause)external {... */\n    tag_20:\n        /* \"code5/1modifier.sol\":178:184  _pause */\n      dup1\n        /* \"code5/1modifier.sol\":169:175  paused */\n      0x00\n      dup1\n        /* \"code5/1modifier.sol\":169:184  paused = _pause */\n      0x0100\n      exp\n      dup2\n      sload\n      dup2\n      0xff\n      mul\n      not\n      and\n      swap1\n      dup4\n      iszero\n      iszero\n      mul\n      or\n      swap1\n      sstore\n      pop\n        /* \"code5/1modifier.sol\":124:191  function setP(bool _pause)external {... */\n      pop\n      jump\t// out\n        /* \"#utility.yul\":7:140   */\n    tag_30:\n        /* \"#utility.yul\":50:55   */\n      0x00\n        /* \"#utility.yul\":88:94   */\n      dup2\n        /* \"#utility.yul\":75:95   */\n      calldataload\n        /* \"#utility.yul\":66:95   */\n      swap1\n      pop\n        /* \"#utility.yul\":104:134   */\n      tag_32\n        /* \"#utility.yul\":128:133   */\n      dup2\n        /* \"#utility.yul\":104:134   */\n      tag_33\n      jump\t// in\n    tag_32:\n        /* \"#utility.yul\":7:140   */\n      swap3\n      swap2\n      pop\n      pop\n      jump\t// out\n        /* \"#utility.yul\":146:469   */\n    tag_19:\n        /* \"#utility.yul\":202:208   */\n      0x00\n        /* \"#utility.yul\":251:253   */\n      0x20\n        /* \"#utility.yul\":239:248   */\n      dup3\n        /* \"#utility.yul\":230:237   */\n      dup5\n        /* \"#utility.yul\":226:249   */\n      sub\n        /* \"#utility.yul\":222:254   */\n      slt\n        /* \"#utility.yul\":219:338   */\n      iszero\n      tag_35\n      jumpi\n        /* \"#utility.yul\":257:336   */\n      tag_36\n      tag_37\n      jump\t// in\n    tag_36:\n        /* \"#utility.yul\":219:338   */\n    tag_35:\n        /* \"#utility.yul\":377:378   */\n      0x00\n        /* \"#utility.yul\":402:452   */\n      tag_38\n        /* \"#utility.yul\":444:451   */\n      dup5\n        /* \"#utility.yul\":435:441   */\n      dup3\n        /* \"#utility.yul\":424:433   */\n      dup6\n        /* \"#utility.yul\":420:442   */\n      add\n        /* \"#utility.yul\":402:452   */\n      tag_30\n      jump\t// in\n    tag_38:\n        /* \"#utility.yul\":392:452   */\n      swap2\n      pop\n        /* \"#utility.yul\":348:462   */\n      pop\n        /* \"#utility.yul\":146:469   */\n      swap3\n      swap2\n      pop\n      pop\n      jump\t// out\n        /* \"#utility.yul\":475:584   */\n    tag_39:\n        /* \"#utility.yul\":556:577   */\n      tag_41\n        /* \"#utility.yul\":571:576   */\n      dup2\n        /* \"#utility.yul\":556:577   */\n      tag_42\n      jump\t// in\n    tag_41:\n        /* \"#utility.yul\":551:554   */\n      dup3\n        /* \"#utility.yul\":544:578   */\n      mstore\n        /* \"#utility.yul\":475:584   */\n      pop\n      pop\n      jump\t// out\n        /* \"#utility.yul\":590:956   */\n    tag_43:\n        /* \"#utility.yul\":732:735   */\n      0x00\n        /* \"#utility.yul\":753:820   */\n      tag_45\n        /* \"#utility.yul\":817:819   */\n      0x0e\n        /* \"#utility.yul\":812:815   */\n      dup4\n        /* \"#utility.yul\":753:820   */\n      tag_46\n      jump\t// in\n    tag_45:\n        /* \"#utility.yul\":746:820   */\n      swap2\n      pop\n        /* \"#utility.yul\":829:922   */\n      tag_47\n        /* \"#utility.yul\":918:921   */\n      dup3\n        /* \"#utility.yul\":829:922   */\n      tag_48\n      jump\t// in\n    tag_47:\n        /* \"#utility.yul\":947:949   */\n      0x20\n        /* \"#utility.yul\":942:945   */\n      dup3\n        /* \"#utility.yul\":938:950   */\n      add\n        /* \"#utility.yul\":931:950   */\n      swap1\n      pop\n        /* \"#utility.yul\":590:956   */\n      swap2\n      swap1\n      pop\n      jump\t// out\n        /* \"#utility.yul\":962:1080   */\n    tag_49:\n        /* \"#utility.yul\":1049:1073   */\n      tag_51\n        /* \"#utility.yul\":1067:1072   */\n      dup2\n        /* \"#utility.yul\":1049:1073   */\n      tag_52\n      jump\t// in\n    tag_51:\n        /* \"#utility.yul\":1044:1047   */\n      dup3\n        /* \"#utility.yul\":1037:1074   */\n      mstore\n        /* \"#utility.yul\":962:1080   */\n      pop\n      pop\n      jump\t// out\n        /* \"#utility.yul\":1086:1296   */\n    tag_16:\n        /* \"#utility.yul\":1173:1177   */\n      0x00\n        /* \"#utility.yul\":1211:1213   */\n      0x20\n        /* \"#utility.yul\":1200:1209   */\n      dup3\n        /* \"#utility.yul\":1196:1214   */\n      add\n        /* \"#utility.yul\":1188:1214   */\n      swap1\n      pop\n        /* \"#utility.yul\":1224:1289   */\n      tag_54\n        /* \"#utility.yul\":1286:1287   */\n      0x00\n        /* \"#utility.yul\":1275:1284   */\n      dup4\n        /* \"#utility.yul\":1271:1288   */\n      add\n        /* \"#utility.yul\":1262:1268   */\n      dup5\n        /* \"#utility.yul\":1224:1289   */\n      tag_39\n      jump\t// in\n    tag_54:\n        /* \"#utility.yul\":1086:1296   */\n      swap3\n      swap2\n      pop\n      pop\n      jump\t// out\n        /* \"#utility.yul\":1302:1721   */\n    tag_24:\n        /* \"#utility.yul\":1468:1472   */\n      0x00\n        /* \"#utility.yul\":1506:1508   */\n      0x20\n        /* \"#utility.yul\":1495:1504   */\n      dup3\n        /* \"#utility.yul\":1491:1509   */\n      add\n        /* \"#utility.yul\":1483:1509   */\n      swap1\n      pop\n        /* \"#utility.yul\":1555:1564   */\n      dup2\n        /* \"#utility.yul\":1549:1553   */\n      dup2\n        /* \"#utility.yul\":1545:1565   */\n      sub\n        /* \"#utility.yul\":1541:1542   */\n      0x00\n        /* \"#utility.yul\":1530:1539   */\n      dup4\n        /* \"#utility.yul\":1526:1543   */\n      add\n        /* \"#utility.yul\":1519:1566   */\n      mstore\n        /* \"#utility.yul\":1583:1714   */\n      tag_56\n        /* \"#utility.yul\":1709:1713   */\n      dup2\n        /* \"#utility.yul\":1583:1714   */\n      tag_43\n      jump\t// in\n    tag_56:\n        /* \"#utility.yul\":1575:1714   */\n      swap1\n      pop\n        /* \"#utility.yul\":1302:1721   */\n      swap2\n      swap1\n      pop\n      jump\t// out\n        /* \"#utility.yul\":1727:1949   */\n    tag_10:\n        /* \"#utility.yul\":1820:1824   */\n      0x00\n        /* \"#utility.yul\":1858:1860   */\n      0x20\n        /* \"#utility.yul\":1847:1856   */\n      dup3\n        /* \"#utility.yul\":1843:1861   */\n      add\n        /* \"#utility.yul\":1835:1861   */\n      swap1\n      pop\n        /* \"#utility.yul\":1871:1942   */\n      tag_58\n        /* \"#utility.yul\":1939:1940   */\n      0x00\n        /* \"#utility.yul\":1928:1937   */\n      dup4\n        /* \"#utility.yul\":1924:1941   */\n      add\n        /* \"#utility.yul\":1915:1921   */\n      dup5\n        /* \"#utility.yul\":1871:1942   */\n      tag_49\n      jump\t// in\n    tag_58:\n        /* \"#utility.yul\":1727:1949   */\n      swap3\n      swap2\n      pop\n      pop\n      jump\t// out\n        /* \"#utility.yul\":2036:2205   */\n    tag_46:\n        /* \"#utility.yul\":2120:2131   */\n      0x00\n        /* \"#utility.yul\":2154:2160   */\n      dup3\n        /* \"#utility.yul\":2149:2152   */\n      dup3\n        /* \"#utility.yul\":2142:2161   */\n      mstore\n        /* \"#utility.yul\":2194:2198   */\n      0x20\n        /* \"#utility.yul\":2189:2192   */\n      dup3\n        /* \"#utility.yul\":2185:2199   */\n      add\n        /* \"#utility.yul\":2170:2199   */\n      swap1\n      pop\n        /* \"#utility.yul\":2036:2205   */\n      swap3\n      swap2\n      pop\n      pop\n      jump\t// out\n        /* \"#utility.yul\":2211:2301   */\n    tag_42:\n        /* \"#utility.yul\":2245:2252   */\n      0x00\n        /* \"#utility.yul\":2288:2293   */\n      dup2\n        /* \"#utility.yul\":2281:2294   */\n      iszero\n        /* \"#utility.yul\":2274:2295   */\n      iszero\n        /* \"#utility.yul\":2263:2295   */\n      swap1\n      pop\n        /* \"#utility.yul\":2211:2301   */\n      swap2\n      swap1\n      pop\n      jump\t// out\n        /* \"#utility.yul\":2307:2384   */\n    tag_52:\n        /* \"#utility.yul\":2344:2351   */\n      0x00\n        /* \"#utility.yul\":2373:2378   */\n      dup2\n        /* \"#utility.yul\":2362:2378   */\n      swap1\n      pop\n        /* \"#utility.yul\":2307:2384   */\n      swap2\n      swap1\n      pop\n      jump\t// out\n        /* \"#utility.yul\":2390:2623   */\n    tag_27:\n        /* \"#utility.yul\":2429:2432   */\n      0x00\n        /* \"#utility.yul\":2452:2476   */\n      tag_65\n        /* \"#utility.yul\":2470:2475   */\n      dup3\n        /* \"#utility.yul\":2452:2476   */\n      tag_52\n      jump\t// in\n    tag_65:\n        /* \"#utility.yul\":2443:2476   */\n      swap2\n      pop\n        /* \"#utility.yul\":2498:2564   */\n      0xffffffffffffffffffffffffffffffffffffffffffffffffffffffffffffffff\n        /* \"#utility.yul\":2491:2496   */\n      dup3\n        /* \"#utility.yul\":2488:2565   */\n      eq\n        /* \"#utility.yul\":2485:2588   */\n      iszero\n      tag_66\n      jumpi\n        /* \"#utility.yul\":2568:2586   */\n      tag_67\n      tag_68\n      jump\t// in\n    tag_67:\n        /* \"#utility.yul\":2485:2588   */\n    tag_66:\n        /* \"#utility.yul\":2615:2616   */\n      0x01\n        /* \"#utility.yul\":2608:2613   */\n      dup3\n        /* \"#utility.yul\":2604:2617   */\n      add\n        /* \"#utility.yul\":2597:2617   */\n      swap1\n      pop\n        /* \"#utility.yul\":2390:2623   */\n      swap2\n      swap1\n      pop\n      jump\t// out\n        /* \"#utility.yul\":2629:2809   */\n    tag_68:\n        /* \"#utility.yul\":2677:2754   */\n      0x4e487b7100000000000000000000000000000000000000000000000000000000\n        /* \"#utility.yul\":2674:2675   */\n      0x00\n        /* \"#utility.yul\":2667:2755   */\n      mstore\n        /* \"#utility.yul\":2774:2778   */\n      0x11\n        /* \"#utility.yul\":2771:2772   */\n      0x04\n        /* \"#utility.yul\":2764:2779   */\n      mstore\n        /* \"#utility.yul\":2798:2802   */\n      0x24\n        /* \"#utility.yul\":2795:2796   */\n      0x00\n        /* \"#utility.yul\":2788:2803   */\n      revert\n        /* \"#utility.yul\":2938:3055   */\n    tag_37:\n        /* \"#utility.yul\":3047:3048   */\n      0x00\n        /* \"#utility.yul\":3044:3045   */\n      dup1\n        /* \"#utility.yul\":3037:3049   */\n      revert\n        /* \"#utility.yul\":3061:3225   */\n    tag_48:\n        /* \"#utility.yul\":3201:3217   */\n      0x616c726561647920706175736564000000000000000000000000000000000000\n        /* \"#utility.yul\":3197:3198   */\n      0x00\n        /* \"#utility.yul\":3189:3195   */\n      dup3\n        /* \"#utility.yul\":3185:3199   */\n      add\n        /* \"#utility.yul\":3178:3218   */\n      mstore\n        /* \"#utility.yul\":3061:3225   */\n      pop\n      jump\t// out\n        /* \"#utility.yul\":3231:3347   */\n    tag_33:\n        /* \"#utility.yul\":3301:3322   */\n      tag_75\n        /* \"#utility.yul\":3316:3321   */\n      dup2\n        /* \"#utility.yul\":3301:3322   */\n      tag_42\n      jump\t// in\n    tag_75:\n        /* \"#utility.yul\":3294:3299   */\n      dup2\n        /* \"#utility.yul\":3291:3323   */\n      eq\n        /* \"#utility.yul\":3281:3341   */\n      tag_76\n      jumpi\n        /* \"#utility.yul\":3337:3338   */\n      0x00\n        /* \"#utility.yul\":3334:3335   */\n      dup1\n        /* \"#utility.yul\":3327:3339   */\n      revert\n        /* \"#utility.yul\":3281:3341   */\n    tag_76:\n        /* \"#utility.yul\":3231:3347   */\n      pop\n      jump\t// out\n\n    auxdata: 0xa26469706673582212209d5daf179f59cf15612b95c1de2117b1c07fbe0d8f7bfd4e1caf6b9d76bfe2ac64736f6c63430008070033\n}\n",
				"bytecode": {
					"linkReferences": {},
					"object": "608060405234801561001057600080fd5b50610340806100206000396000f3fe608060405234801561001057600080fd5b506004361061004c5760003560e01c806306661abd146100515780634f2be91f1461006f5780635c975abb1461007957806384a303d614610097575b600080fd5b6100596100b3565b604051610066919061020b565b60405180910390f35b6100776100b9565b005b610081610120565b60405161008e91906101d0565b60405180910390f35b6100b160048036038101906100ac9190610162565b610131565b005b60015481565b60008054906101000a900460ff16610106576040517f08c379a00000000000000000000000000000000000000000000000000000000081526004016100fd906101eb565b60405180910390fd5b600160008154809291906101199061024d565b9190505550565b60008054906101000a900460ff1681565b806000806101000a81548160ff02191690831515021790555050565b60008135905061015c816102f3565b92915050565b600060208284031215610178576101776102c5565b5b60006101868482850161014d565b91505092915050565b61019881610237565b82525050565b60006101ab600e83610226565b91506101b6826102ca565b602082019050919050565b6101ca81610243565b82525050565b60006020820190506101e5600083018461018f565b92915050565b600060208201905081810360008301526102048161019e565b9050919050565b600060208201905061022060008301846101c1565b92915050565b600082825260208201905092915050565b60008115159050919050565b6000819050919050565b600061025882610243565b91507fffffffffffffffffffffffffffffffffffffffffffffffffffffffffffffffff82141561028b5761028a610296565b5b600182019050919050565b7f4e487b7100000000000000000000000000000000000000000000000000000000600052601160045260246000fd5b600080fd5b7f616c726561647920706175736564000000000000000000000000000000000000600082015250565b6102fc81610237565b811461030757600080fd5b5056fea26469706673582212209d5daf179f59cf15612b95c1de2117b1c07fbe0d8f7bfd4e1caf6b9d76bfe2ac64736f6c63430008070033",
					"opcodes": "PUSH1 0x80 PUSH1 0x40 MSTORE CALLVALUE DUP1 ISZERO PUSH2 0x10 JUMPI PUSH1 0x0 DUP1 REVERT JUMPDEST POP PUSH2 0x340 DUP1 PUSH2 0x20 PUSH1 0x0 CODECOPY PUSH1 0x0 RETURN INVALID PUSH1 0x80 PUSH1 0x40 MSTORE CALLVALUE DUP1 ISZERO PUSH2 0x10 JUMPI PUSH1 0x0 DUP1 REVERT JUMPDEST POP PUSH1 0x4 CALLDATASIZE LT PUSH2 0x4C JUMPI PUSH1 0x0 CALLDATALOAD PUSH1 0xE0 SHR DUP1 PUSH4 0x6661ABD EQ PUSH2 0x51 JUMPI DUP1 PUSH4 0x4F2BE91F EQ PUSH2 0x6F JUMPI DUP1 PUSH4 0x5C975ABB EQ PUSH2 0x79 JUMPI DUP1 PUSH4 0x84A303D6 EQ PUSH2 0x97 JUMPI JUMPDEST PUSH1 0x0 DUP1 REVERT JUMPDEST PUSH2 0x59 PUSH2 0xB3 JUMP JUMPDEST PUSH1 0x40 MLOAD PUSH2 0x66 SWAP2 SWAP1 PUSH2 0x20B JUMP JUMPDEST PUSH1 0x40 MLOAD DUP1 SWAP2 SUB SWAP1 RETURN JUMPDEST PUSH2 0x77 PUSH2 0xB9 JUMP JUMPDEST STOP JUMPDEST PUSH2 0x81 PUSH2 0x120 JUMP JUMPDEST PUSH1 0x40 MLOAD PUSH2 0x8E SWAP2 SWAP1 PUSH2 0x1D0 JUMP JUMPDEST PUSH1 0x40 MLOAD DUP1 SWAP2 SUB SWAP1 RETURN JUMPDEST PUSH2 0xB1 PUSH1 0x4 DUP1 CALLDATASIZE SUB DUP2 ADD SWAP1 PUSH2 0xAC SWAP2 SWAP1 PUSH2 0x162 JUMP JUMPDEST PUSH2 0x131 JUMP JUMPDEST STOP JUMPDEST PUSH1 0x1 SLOAD DUP2 JUMP JUMPDEST PUSH1 0x0 DUP1 SLOAD SWAP1 PUSH2 0x100 EXP SWAP1 DIV PUSH1 0xFF AND PUSH2 0x106 JUMPI PUSH1 0x40 MLOAD PUSH32 0x8C379A000000000000000000000000000000000000000000000000000000000 DUP2 MSTORE PUSH1 0x4 ADD PUSH2 0xFD SWAP1 PUSH2 0x1EB JUMP JUMPDEST PUSH1 0x40 MLOAD DUP1 SWAP2 SUB SWAP1 REVERT JUMPDEST PUSH1 0x1 PUSH1 0x0 DUP2 SLOAD DUP1 SWAP3 SWAP2 SWAP1 PUSH2 0x119 SWAP1 PUSH2 0x24D JUMP JUMPDEST SWAP2 SWAP1 POP SSTORE POP JUMP JUMPDEST PUSH1 0x0 DUP1 SLOAD SWAP1 PUSH2 0x100 EXP SWAP1 DIV PUSH1 0xFF AND DUP2 JUMP JUMPDEST DUP1 PUSH1 0x0 DUP1 PUSH2 0x100 EXP DUP2 SLOAD DUP2 PUSH1 0xFF MUL NOT AND SWAP1 DUP4 ISZERO ISZERO MUL OR SWAP1 SSTORE POP POP JUMP JUMPDEST PUSH1 0x0 DUP2 CALLDATALOAD SWAP1 POP PUSH2 0x15C DUP2 PUSH2 0x2F3 JUMP JUMPDEST SWAP3 SWAP2 POP POP JUMP JUMPDEST PUSH1 0x0 PUSH1 0x20 DUP3 DUP5 SUB SLT ISZERO PUSH2 0x178 JUMPI PUSH2 0x177 PUSH2 0x2C5 JUMP JUMPDEST JUMPDEST PUSH1 0x0 PUSH2 0x186 DUP5 DUP3 DUP6 ADD PUSH2 0x14D JUMP JUMPDEST SWAP2 POP POP SWAP3 SWAP2 POP POP JUMP JUMPDEST PUSH2 0x198 DUP2 PUSH2 0x237 JUMP JUMPDEST DUP3 MSTORE POP POP JUMP JUMPDEST PUSH1 0x0 PUSH2 0x1AB PUSH1 0xE DUP4 PUSH2 0x226 JUMP JUMPDEST SWAP2 POP PUSH2 0x1B6 DUP3 PUSH2 0x2CA JUMP JUMPDEST PUSH1 0x20 DUP3 ADD SWAP1 POP SWAP2 SWAP1 POP JUMP JUMPDEST PUSH2 0x1CA DUP2 PUSH2 0x243 JUMP JUMPDEST DUP3 MSTORE POP POP JUMP JUMPDEST PUSH1 0x0 PUSH1 0x20 DUP3 ADD SWAP1 POP PUSH2 0x1E5 PUSH1 0x0 DUP4 ADD DUP5 PUSH2 0x18F JUMP JUMPDEST SWAP3 SWAP2 POP POP JUMP JUMPDEST PUSH1 0x0 PUSH1 0x20 DUP3 ADD SWAP1 POP DUP2 DUP2 SUB PUSH1 0x0 DUP4 ADD MSTORE PUSH2 0x204 DUP2 PUSH2 0x19E JUMP JUMPDEST SWAP1 POP SWAP2 SWAP1 POP JUMP JUMPDEST PUSH1 0x0 PUSH1 0x20 DUP3 ADD SWAP1 POP PUSH2 0x220 PUSH1 0x0 DUP4 ADD DUP5 PUSH2 0x1C1 JUMP JUMPDEST SWAP3 SWAP2 POP POP JUMP JUMPDEST PUSH1 0x0 DUP3 DUP3 MSTORE PUSH1 0x20 DUP3 ADD SWAP1 POP SWAP3 SWAP2 POP POP JUMP JUMPDEST PUSH1 0x0 DUP2 ISZERO ISZERO SWAP1 POP SWAP2 SWAP1 POP JUMP JUMPDEST PUSH1 0x0 DUP2 SWAP1 POP SWAP2 SWAP1 POP JUMP JUMPDEST PUSH1 0x0 PUSH2 0x258 DUP3 PUSH2 0x243 JUMP JUMPDEST SWAP2 POP PUSH32 0xFFFFFFFFFFFFFFFFFFFFFFFFFFFFFFFFFFFFFFFFFFFFFFFFFFFFFFFFFFFFFFFF DUP3 EQ ISZERO PUSH2 0x28B JUMPI PUSH2 0x28A PUSH2 0x296 JUMP JUMPDEST JUMPDEST PUSH1 0x1 DUP3 ADD SWAP1 POP SWAP2 SWAP1 POP JUMP JUMPDEST PUSH32 0x4E487B7100000000000000000000000000000000000000000000000000000000 PUSH1 0x0 MSTORE PUSH1 0x11 PUSH1 0x4 MSTORE PUSH1 0x24 PUSH1 0x0 REVERT JUMPDEST PUSH1 0x0 DUP1 REVERT JUMPDEST PUSH32 0x616C726561647920706175736564000000000000000000000000000000000000 PUSH1 0x0 DUP3 ADD MSTORE POP JUMP JUMPDEST PUSH2 0x2FC DUP2 PUSH2 0x237 JUMP JUMPDEST DUP2 EQ PUSH2 0x307 JUMPI PUSH1 0x0 DUP1 REVERT JUMPDEST POP JUMP INVALID LOG2 PUSH5 0x6970667358 0x22 SLT KECCAK256 SWAP14 0x5D 0xAF OR SWAP16 MSIZE 0xCF ISZERO PUSH2 0x2B95 0xC1 0xDE 0x21 OR 0xB1 0xC0 PUSH32 0xBE0D8F7BFD4E1CAF6B9D76BFE2AC64736F6C6343000807003300000000000000 "
				},
				"gasEstimates": {
					"creation": {
						"codeDepositCost": "166400",
						"executionCost": "208",
						"totalCost": "166608"
					},
					"external": {
						"add()": "26654",
						"count()": "2407",
						"paused()": "2490",
						"setP(bool)": "24723"
					}
				},
				"methodIdentifiers": {
					"add()": "4f2be91f",
					"count()": "06661abd",
					"paused()": "5c975abb",
					"setP(bool)": "84a303d6"
				}
			},
			"storageLayout": {
				"storage": [
					{
						"astId": 3,
						"contract": "code5/1modifier.sol:Modifier",
						"label": "paused",
						"offset": 0,
						"slot": "0",
						"type": "t_bool"
					},
					{
						"astId": 5,
						"contract": "code5/1modifier.sol:Modifier",
						"label": "count",
						"offset": 0,
						"slot": "1",
						"type": "t_uint256"
					}
				],
				"types": {
					"t_bool": {
						"encoding": "inplace",
						"label": "bool",
						"numberOfBytes": "1"
					},
					"t_uint256": {
						"encoding": "inplace",
						"label": "uint256",
						"numberOfBytes": "32"
					}
				}
			},
			"userdoc": {
				"kind": "user",
				"methods": {},
				"version": 1
			}
		}
	}
}