{
	"study/chapter05/back.sol": {
		"SendEth": {
			"abi": [
				{
					"inputs": [],
					"stateMutability": "payable",
					"type": "constructor"
				},
				{
					"inputs": [
						{
							"internalType": "address payable",
							"name": "_to",
							"type": "address"
						}
					],
					"name": "sendViaCall",
					"outputs": [],
					"stateMutability": "payable",
					"type": "function"
				},
				{
					"inputs": [
						{
							"internalType": "address payable",
							"name": "_to",
							"type": "address"
						}
					],
					"name": "sendViaSend",
					"outputs": [],
					"stateMutability": "payable",
					"type": "function"
				},
				{
					"inputs": [
						{
							"internalType": "address payable",
							"name": "_to",
							"type": "address"
						}
					],
					"name": "sendViaTransfer",
					"outputs": [],
					"stateMutability": "payable",
					"type": "function"
				},
				{
					"stateMutability": "payable",
					"type": "receive"
				}
			],
			"devdoc": {
				"kind": "dev",
				"methods": {},
				"version": 1
			},
			"evm": {
				"assembly": "    /* \"study/chapter05/back.sol\":552:1129  contract SendEth{... */\n  mstore(0x40, 0x80)\n  dataSize(sub_0)\n  dup1\n  dataOffset(sub_0)\n  0x00\n  codecopy\n  0x00\n  return\nstop\n\nsub_0: assembly {\n        /* \"study/chapter05/back.sol\":552:1129  contract SendEth{... */\n      mstore(0x40, 0x80)\n      jumpi(tag_1, lt(calldatasize, 0x04))\n      shr(0xe0, calldataload(0x00))\n      dup1\n      0x636e082b\n      eq\n      tag_3\n      jumpi\n      dup1\n      0x74be4806\n      eq\n      tag_4\n      jumpi\n      dup1\n      0x830c29ae\n      eq\n      tag_5\n      jumpi\n      jump(tag_2)\n    tag_1:\n      jumpi(tag_2, calldatasize)\n      stop\n    tag_2:\n      0x00\n      dup1\n      revert\n        /* \"study/chapter05/back.sol\":641:757  function sendViaTransfer(address payable _to)external payable {... */\n    tag_3:\n      tag_8\n      0x04\n      dup1\n      calldatasize\n      sub\n      dup2\n      add\n      swap1\n      tag_9\n      swap2\n      swap1\n      tag_10\n      jump\t// in\n    tag_9:\n      tag_11\n      jump\t// in\n    tag_8:\n      stop\n        /* \"study/chapter05/back.sol\":762:903  function sendViaSend(address payable _to)external payable {... */\n    tag_4:\n      tag_12\n      0x04\n      dup1\n      calldatasize\n      sub\n      dup2\n      add\n      swap1\n      tag_13\n      swap2\n      swap1\n      tag_10\n      jump\t// in\n    tag_13:\n      tag_14\n      jump\t// in\n    tag_12:\n      stop\n        /* \"study/chapter05/back.sol\":908:1126  function sendViaCall(address payable _to)external payable {... */\n    tag_5:\n      tag_15\n      0x04\n      dup1\n      calldatasize\n      sub\n      dup2\n      add\n      swap1\n      tag_16\n      swap2\n      swap1\n      tag_10\n      jump\t// in\n    tag_16:\n      tag_17\n      jump\t// in\n    tag_15:\n      stop\n        /* \"study/chapter05/back.sol\":641:757  function sendViaTransfer(address payable _to)external payable {... */\n    tag_11:\n        /* \"study/chapter05/back.sol\":713:716  _to */\n      dup1\n        /* \"study/chapter05/back.sol\":713:725  _to.transfer */\n      0xffffffffffffffffffffffffffffffffffffffff\n      and\n        /* \"study/chapter05/back.sol\":713:730  _to.transfer(123) */\n      0x08fc\n        /* \"study/chapter05/back.sol\":726:729  123 */\n      0x7b\n        /* \"study/chapter05/back.sol\":713:730  _to.transfer(123) */\n      swap1\n      dup2\n      iszero\n      mul\n      swap1\n      mload(0x40)\n      0x00\n      mload(0x40)\n      dup1\n      dup4\n      sub\n      dup2\n      dup6\n      dup9\n      dup9\n      call\n      swap4\n      pop\n      pop\n      pop\n      pop\n      iszero\n      dup1\n      iszero\n      tag_20\n      jumpi\n      returndatasize\n      0x00\n      dup1\n      returndatacopy\n      revert(0x00, returndatasize)\n    tag_20:\n      pop\n        /* \"study/chapter05/back.sol\":641:757  function sendViaTransfer(address payable _to)external payable {... */\n      pop\n      jump\t// out\n        /* \"study/chapter05/back.sol\":762:903  function sendViaSend(address payable _to)external payable {... */\n    tag_14:\n        /* \"study/chapter05/back.sol\":830:842  bool success */\n      0x00\n        /* \"study/chapter05/back.sol\":845:848  _to */\n      dup2\n        /* \"study/chapter05/back.sol\":845:853  _to.send */\n      0xffffffffffffffffffffffffffffffffffffffff\n      and\n        /* \"study/chapter05/back.sol\":845:858  _to.send(123) */\n      0x08fc\n        /* \"study/chapter05/back.sol\":854:857  123 */\n      0x7b\n        /* \"study/chapter05/back.sol\":845:858  _to.send(123) */\n      swap1\n      dup2\n      iszero\n      mul\n      swap1\n      mload(0x40)\n      0x00\n      mload(0x40)\n      dup1\n      dup4\n      sub\n      dup2\n      dup6\n      dup9\n      dup9\n      call\n      swap4\n      pop\n      pop\n      pop\n      pop\n        /* \"study/chapter05/back.sol\":830:858  bool success = _to.send(123) */\n      swap1\n      pop\n        /* \"study/chapter05/back.sol\":876:883  success */\n      dup1\n        /* \"study/chapter05/back.sol\":868:896  require(success,\"send fail\") */\n      tag_23\n      jumpi\n      mload(0x40)\n      0x08c379a000000000000000000000000000000000000000000000000000000000\n      dup2\n      mstore\n      0x04\n      add\n      tag_24\n      swap1\n      tag_25\n      jump\t// in\n    tag_24:\n      mload(0x40)\n      dup1\n      swap2\n      sub\n      swap1\n      revert\n    tag_23:\n        /* \"study/chapter05/back.sol\":820:903  {... */\n      pop\n        /* \"study/chapter05/back.sol\":762:903  function sendViaSend(address payable _to)external payable {... */\n      pop\n      jump\t// out\n        /* \"study/chapter05/back.sol\":908:1126  function sendViaCall(address payable _to)external payable {... */\n    tag_17:\n        /* \"study/chapter05/back.sol\":976:988  bool success */\n      0x00\n        /* \"study/chapter05/back.sol\":992:995  _to */\n      dup2\n        /* \"study/chapter05/back.sol\":992:1000  _to.call */\n      0xffffffffffffffffffffffffffffffffffffffff\n      and\n        /* \"study/chapter05/back.sol\":1007:1010  123 */\n      0x7b\n        /* \"study/chapter05/back.sol\":992:1015  _to.call{value:123}(\"\") */\n      mload(0x40)\n      tag_27\n      swap1\n      tag_28\n      jump\t// in\n    tag_27:\n      0x00\n      mload(0x40)\n      dup1\n      dup4\n      sub\n      dup2\n      dup6\n      dup8\n      gas\n      call\n      swap3\n      pop\n      pop\n      pop\n      returndatasize\n      dup1\n      0x00\n      dup2\n      eq\n      tag_31\n      jumpi\n      mload(0x40)\n      swap2\n      pop\n      and(add(returndatasize, 0x3f), not(0x1f))\n      dup3\n      add\n      0x40\n      mstore\n      returndatasize\n      dup3\n      mstore\n      returndatasize\n      0x00\n      0x20\n      dup5\n      add\n      returndatacopy\n      jump(tag_30)\n    tag_31:\n      0x60\n      swap2\n      pop\n    tag_30:\n      pop\n        /* \"study/chapter05/back.sol\":975:1015  (bool success,)= _to.call{value:123}(\"\") */\n      pop\n      swap1\n      pop\n        /* \"study/chapter05/back.sol\":1099:1106  success */\n      dup1\n        /* \"study/chapter05/back.sol\":1091:1119  require(success,\"call fail\") */\n      tag_32\n      jumpi\n      mload(0x40)\n      0x08c379a000000000000000000000000000000000000000000000000000000000\n      dup2\n      mstore\n      0x04\n      add\n      tag_33\n      swap1\n      tag_34\n      jump\t// in\n    tag_33:\n      mload(0x40)\n      dup1\n      swap2\n      sub\n      swap1\n      revert\n    tag_32:\n        /* \"study/chapter05/back.sol\":966:1126  {... */\n      pop\n        /* \"study/chapter05/back.sol\":908:1126  function sendViaCall(address payable _to)external payable {... */\n      pop\n      jump\t// out\n        /* \"#utility.yul\":7:162   */\n    tag_36:\n        /* \"#utility.yul\":61:66   */\n      0x00\n        /* \"#utility.yul\":99:105   */\n      dup2\n        /* \"#utility.yul\":86:106   */\n      calldataload\n        /* \"#utility.yul\":77:106   */\n      swap1\n      pop\n        /* \"#utility.yul\":115:156   */\n      tag_38\n        /* \"#utility.yul\":150:155   */\n      dup2\n        /* \"#utility.yul\":115:156   */\n      tag_39\n      jump\t// in\n    tag_38:\n        /* \"#utility.yul\":7:162   */\n      swap3\n      swap2\n      pop\n      pop\n      jump\t// out\n        /* \"#utility.yul\":168:513   */\n    tag_10:\n        /* \"#utility.yul\":235:241   */\n      0x00\n        /* \"#utility.yul\":284:286   */\n      0x20\n        /* \"#utility.yul\":272:281   */\n      dup3\n        /* \"#utility.yul\":263:270   */\n      dup5\n        /* \"#utility.yul\":259:282   */\n      sub\n        /* \"#utility.yul\":255:287   */\n      slt\n        /* \"#utility.yul\":252:371   */\n      iszero\n      tag_41\n      jumpi\n        /* \"#utility.yul\":290:369   */\n      tag_42\n      tag_43\n      jump\t// in\n    tag_42:\n        /* \"#utility.yul\":252:371   */\n    tag_41:\n        /* \"#utility.yul\":410:411   */\n      0x00\n        /* \"#utility.yul\":435:496   */\n      tag_44\n        /* \"#utility.yul\":488:495   */\n      dup5\n        /* \"#utility.yul\":479:485   */\n      dup3\n        /* \"#utility.yul\":468:477   */\n      dup6\n        /* \"#utility.yul\":464:486   */\n      add\n        /* \"#utility.yul\":435:496   */\n      tag_36\n      jump\t// in\n    tag_44:\n        /* \"#utility.yul\":425:496   */\n      swap2\n      pop\n        /* \"#utility.yul\":381:506   */\n      pop\n        /* \"#utility.yul\":168:513   */\n      swap3\n      swap2\n      pop\n      pop\n      jump\t// out\n        /* \"#utility.yul\":519:884   */\n    tag_45:\n        /* \"#utility.yul\":661:664   */\n      0x00\n        /* \"#utility.yul\":682:748   */\n      tag_47\n        /* \"#utility.yul\":746:747   */\n      0x09\n        /* \"#utility.yul\":741:744   */\n      dup4\n        /* \"#utility.yul\":682:748   */\n      tag_48\n      jump\t// in\n    tag_47:\n        /* \"#utility.yul\":675:748   */\n      swap2\n      pop\n        /* \"#utility.yul\":757:850   */\n      tag_49\n        /* \"#utility.yul\":846:849   */\n      dup3\n        /* \"#utility.yul\":757:850   */\n      tag_50\n      jump\t// in\n    tag_49:\n        /* \"#utility.yul\":875:877   */\n      0x20\n        /* \"#utility.yul\":870:873   */\n      dup3\n        /* \"#utility.yul\":866:878   */\n      add\n        /* \"#utility.yul\":859:878   */\n      swap1\n      pop\n        /* \"#utility.yul\":519:884   */\n      swap2\n      swap1\n      pop\n      jump\t// out\n        /* \"#utility.yul\":890:1288   */\n    tag_51:\n        /* \"#utility.yul\":1049:1052   */\n      0x00\n        /* \"#utility.yul\":1070:1153   */\n      tag_53\n        /* \"#utility.yul\":1151:1152   */\n      0x00\n        /* \"#utility.yul\":1146:1149   */\n      dup4\n        /* \"#utility.yul\":1070:1153   */\n      tag_54\n      jump\t// in\n    tag_53:\n        /* \"#utility.yul\":1063:1153   */\n      swap2\n      pop\n        /* \"#utility.yul\":1162:1255   */\n      tag_55\n        /* \"#utility.yul\":1251:1254   */\n      dup3\n        /* \"#utility.yul\":1162:1255   */\n      tag_56\n      jump\t// in\n    tag_55:\n        /* \"#utility.yul\":1280:1281   */\n      0x00\n        /* \"#utility.yul\":1275:1278   */\n      dup3\n        /* \"#utility.yul\":1271:1282   */\n      add\n        /* \"#utility.yul\":1264:1282   */\n      swap1\n      pop\n        /* \"#utility.yul\":890:1288   */\n      swap2\n      swap1\n      pop\n      jump\t// out\n        /* \"#utility.yul\":1294:1659   */\n    tag_57:\n        /* \"#utility.yul\":1436:1439   */\n      0x00\n        /* \"#utility.yul\":1457:1523   */\n      tag_59\n        /* \"#utility.yul\":1521:1522   */\n      0x09\n        /* \"#utility.yul\":1516:1519   */\n      dup4\n        /* \"#utility.yul\":1457:1523   */\n      tag_48\n      jump\t// in\n    tag_59:\n        /* \"#utility.yul\":1450:1523   */\n      swap2\n      pop\n        /* \"#utility.yul\":1532:1625   */\n      tag_60\n        /* \"#utility.yul\":1621:1624   */\n      dup3\n        /* \"#utility.yul\":1532:1625   */\n      tag_61\n      jump\t// in\n    tag_60:\n        /* \"#utility.yul\":1650:1652   */\n      0x20\n        /* \"#utility.yul\":1645:1648   */\n      dup3\n        /* \"#utility.yul\":1641:1653   */\n      add\n        /* \"#utility.yul\":1634:1653   */\n      swap1\n      pop\n        /* \"#utility.yul\":1294:1659   */\n      swap2\n      swap1\n      pop\n      jump\t// out\n        /* \"#utility.yul\":1665:2044   */\n    tag_28:\n        /* \"#utility.yul\":1849:1852   */\n      0x00\n        /* \"#utility.yul\":1871:2018   */\n      tag_63\n        /* \"#utility.yul\":2014:2017   */\n      dup3\n        /* \"#utility.yul\":1871:2018   */\n      tag_51\n      jump\t// in\n    tag_63:\n        /* \"#utility.yul\":1864:2018   */\n      swap2\n      pop\n        /* \"#utility.yul\":2035:2038   */\n      dup2\n        /* \"#utility.yul\":2028:2038   */\n      swap1\n      pop\n        /* \"#utility.yul\":1665:2044   */\n      swap2\n      swap1\n      pop\n      jump\t// out\n        /* \"#utility.yul\":2050:2469   */\n    tag_25:\n        /* \"#utility.yul\":2216:2220   */\n      0x00\n        /* \"#utility.yul\":2254:2256   */\n      0x20\n        /* \"#utility.yul\":2243:2252   */\n      dup3\n        /* \"#utility.yul\":2239:2257   */\n      add\n        /* \"#utility.yul\":2231:2257   */\n      swap1\n      pop\n        /* \"#utility.yul\":2303:2312   */\n      dup2\n        /* \"#utility.yul\":2297:2301   */\n      dup2\n        /* \"#utility.yul\":2293:2313   */\n      sub\n        /* \"#utility.yul\":2289:2290   */\n      0x00\n        /* \"#utility.yul\":2278:2287   */\n      dup4\n        /* \"#utility.yul\":2274:2291   */\n      add\n        /* \"#utility.yul\":2267:2314   */\n      mstore\n        /* \"#utility.yul\":2331:2462   */\n      tag_65\n        /* \"#utility.yul\":2457:2461   */\n      dup2\n        /* \"#utility.yul\":2331:2462   */\n      tag_45\n      jump\t// in\n    tag_65:\n        /* \"#utility.yul\":2323:2462   */\n      swap1\n      pop\n        /* \"#utility.yul\":2050:2469   */\n      swap2\n      swap1\n      pop\n      jump\t// out\n        /* \"#utility.yul\":2475:2894   */\n    tag_34:\n        /* \"#utility.yul\":2641:2645   */\n      0x00\n        /* \"#utility.yul\":2679:2681   */\n      0x20\n        /* \"#utility.yul\":2668:2677   */\n      dup3\n        /* \"#utility.yul\":2664:2682   */\n      add\n        /* \"#utility.yul\":2656:2682   */\n      swap1\n      pop\n        /* \"#utility.yul\":2728:2737   */\n      dup2\n        /* \"#utility.yul\":2722:2726   */\n      dup2\n        /* \"#utility.yul\":2718:2738   */\n      sub\n        /* \"#utility.yul\":2714:2715   */\n      0x00\n        /* \"#utility.yul\":2703:2712   */\n      dup4\n        /* \"#utility.yul\":2699:2716   */\n      add\n        /* \"#utility.yul\":2692:2739   */\n      mstore\n        /* \"#utility.yul\":2756:2887   */\n      tag_67\n        /* \"#utility.yul\":2882:2886   */\n      dup2\n        /* \"#utility.yul\":2756:2887   */\n      tag_57\n      jump\t// in\n    tag_67:\n        /* \"#utility.yul\":2748:2887   */\n      swap1\n      pop\n        /* \"#utility.yul\":2475:2894   */\n      swap2\n      swap1\n      pop\n      jump\t// out\n        /* \"#utility.yul\":2981:3128   */\n    tag_54:\n        /* \"#utility.yul\":3082:3093   */\n      0x00\n        /* \"#utility.yul\":3119:3122   */\n      dup2\n        /* \"#utility.yul\":3104:3122   */\n      swap1\n      pop\n        /* \"#utility.yul\":2981:3128   */\n      swap3\n      swap2\n      pop\n      pop\n      jump\t// out\n        /* \"#utility.yul\":3134:3303   */\n    tag_48:\n        /* \"#utility.yul\":3218:3229   */\n      0x00\n        /* \"#utility.yul\":3252:3258   */\n      dup3\n        /* \"#utility.yul\":3247:3250   */\n      dup3\n        /* \"#utility.yul\":3240:3259   */\n      mstore\n        /* \"#utility.yul\":3292:3296   */\n      0x20\n        /* \"#utility.yul\":3287:3290   */\n      dup3\n        /* \"#utility.yul\":3283:3297   */\n      add\n        /* \"#utility.yul\":3268:3297   */\n      swap1\n      pop\n        /* \"#utility.yul\":3134:3303   */\n      swap3\n      swap2\n      pop\n      pop\n      jump\t// out\n        /* \"#utility.yul\":3309:3413   */\n    tag_72:\n        /* \"#utility.yul\":3354:3361   */\n      0x00\n        /* \"#utility.yul\":3383:3407   */\n      tag_74\n        /* \"#utility.yul\":3401:3406   */\n      dup3\n        /* \"#utility.yul\":3383:3407   */\n      tag_75\n      jump\t// in\n    tag_74:\n        /* \"#utility.yul\":3372:3407   */\n      swap1\n      pop\n        /* \"#utility.yul\":3309:3413   */\n      swap2\n      swap1\n      pop\n      jump\t// out\n        /* \"#utility.yul\":3419:3545   */\n    tag_75:\n        /* \"#utility.yul\":3456:3463   */\n      0x00\n        /* \"#utility.yul\":3496:3538   */\n      0xffffffffffffffffffffffffffffffffffffffff\n        /* \"#utility.yul\":3489:3494   */\n      dup3\n        /* \"#utility.yul\":3485:3539   */\n      and\n        /* \"#utility.yul\":3474:3539   */\n      swap1\n      pop\n        /* \"#utility.yul\":3419:3545   */\n      swap2\n      swap1\n      pop\n      jump\t// out\n        /* \"#utility.yul\":3674:3791   */\n    tag_43:\n        /* \"#utility.yul\":3783:3784   */\n      0x00\n        /* \"#utility.yul\":3780:3781   */\n      dup1\n        /* \"#utility.yul\":3773:3785   */\n      revert\n        /* \"#utility.yul\":3797:3956   */\n    tag_50:\n        /* \"#utility.yul\":3937:3948   */\n      0x73656e64206661696c0000000000000000000000000000000000000000000000\n        /* \"#utility.yul\":3933:3934   */\n      0x00\n        /* \"#utility.yul\":3925:3931   */\n      dup3\n        /* \"#utility.yul\":3921:3935   */\n      add\n        /* \"#utility.yul\":3914:3949   */\n      mstore\n        /* \"#utility.yul\":3797:3956   */\n      pop\n      jump\t// out\n        /* \"#utility.yul\":3962:4076   */\n    tag_56:\n      pop\n      jump\t// out\n        /* \"#utility.yul\":4082:4241   */\n    tag_61:\n        /* \"#utility.yul\":4222:4233   */\n      0x63616c6c206661696c0000000000000000000000000000000000000000000000\n        /* \"#utility.yul\":4218:4219   */\n      0x00\n        /* \"#utility.yul\":4210:4216   */\n      dup3\n        /* \"#utility.yul\":4206:4220   */\n      add\n        /* \"#utility.yul\":4199:4234   */\n      mstore\n        /* \"#utility.yul\":4082:4241   */\n      pop\n      jump\t// out\n        /* \"#utility.yul\":4247:4385   */\n    tag_39:\n        /* \"#utility.yul\":4328:4360   */\n      tag_84\n        /* \"#utility.yul\":4354:4359   */\n      dup2\n        /* \"#utility.yul\":4328:4360   */\n      tag_72\n      jump\t// in\n    tag_84:\n        /* \"#utility.yul\":4321:4326   */\n      dup2\n        /* \"#utility.yul\":4318:4361   */\n      eq\n        /* \"#utility.yul\":4308:4379   */\n      tag_85\n      jumpi\n        /* \"#utility.yul\":4375:4376   */\n      0x00\n        /* \"#utility.yul\":4372:4373   */\n      dup1\n        /* \"#utility.yul\":4365:4377   */\n      revert\n        /* \"#utility.yul\":4308:4379   */\n    tag_85:\n        /* \"#utility.yul\":4247:4385   */\n      pop\n      jump\t// out\n\n    auxdata: 0xa2646970667358221220c5eeb673c09577b441d2e0a5337c49e5fd85bc728493f73a240b316777f08a8e64736f6c63430008070033\n}\n",
				"bytecode": {
					"linkReferences": {},
					"object": "6080604052610407806100136000396000f3fe6080604052600436106100385760003560e01c8063636e082b1461004457806374be480614610060578063830c29ae1461007c5761003f565b3661003f57005b600080fd5b61005e60048036038101906100599190610227565b610098565b005b61007a60048036038101906100759190610227565b6100e3565b005b61009660048036038101906100919190610227565b610161565b005b8073ffffffffffffffffffffffffffffffffffffffff166108fc607b9081150290604051600060405180830381858888f193505050501580156100df573d6000803e3d6000fd5b5050565b60008173ffffffffffffffffffffffffffffffffffffffff166108fc607b9081150290604051600060405180830381858888f1935050505090508061015d576040517f08c379a0000000000000000000000000000000000000000000000000000000008152600401610154906102d2565b60405180910390fd5b5050565b60008173ffffffffffffffffffffffffffffffffffffffff16607b604051610188906102bd565b60006040518083038185875af1925050503d80600081146101c5576040519150601f19603f3d011682016040523d82523d6000602084013e6101ca565b606091505b505090508061020e576040517f08c379a0000000000000000000000000000000000000000000000000000000008152600401610205906102f2565b60405180910390fd5b5050565b600081359050610221816103ba565b92915050565b60006020828403121561023d5761023c610360565b5b600061024b84828501610212565b91505092915050565b600061026160098361031d565b915061026c82610365565b602082019050919050565b6000610284600083610312565b915061028f8261038e565b600082019050919050565b60006102a760098361031d565b91506102b282610391565b602082019050919050565b60006102c882610277565b9150819050919050565b600060208201905081810360008301526102eb81610254565b9050919050565b6000602082019050818103600083015261030b8161029a565b9050919050565b600081905092915050565b600082825260208201905092915050565b600061033982610340565b9050919050565b600073ffffffffffffffffffffffffffffffffffffffff82169050919050565b600080fd5b7f73656e64206661696c0000000000000000000000000000000000000000000000600082015250565b50565b7f63616c6c206661696c0000000000000000000000000000000000000000000000600082015250565b6103c38161032e565b81146103ce57600080fd5b5056fea2646970667358221220c5eeb673c09577b441d2e0a5337c49e5fd85bc728493f73a240b316777f08a8e64736f6c63430008070033",
					"opcodes": "PUSH1 0x80 PUSH1 0x40 MSTORE PUSH2 0x407 DUP1 PUSH2 0x13 PUSH1 0x0 CODECOPY PUSH1 0x0 RETURN INVALID PUSH1 0x80 PUSH1 0x40 MSTORE PUSH1 0x4 CALLDATASIZE LT PUSH2 0x38 JUMPI PUSH1 0x0 CALLDATALOAD PUSH1 0xE0 SHR DUP1 PUSH4 0x636E082B EQ PUSH2 0x44 JUMPI DUP1 PUSH4 0x74BE4806 EQ PUSH2 0x60 JUMPI DUP1 PUSH4 0x830C29AE EQ PUSH2 0x7C JUMPI PUSH2 0x3F JUMP JUMPDEST CALLDATASIZE PUSH2 0x3F JUMPI STOP JUMPDEST PUSH1 0x0 DUP1 REVERT JUMPDEST PUSH2 0x5E PUSH1 0x4 DUP1 CALLDATASIZE SUB DUP2 ADD SWAP1 PUSH2 0x59 SWAP2 SWAP1 PUSH2 0x227 JUMP JUMPDEST PUSH2 0x98 JUMP JUMPDEST STOP JUMPDEST PUSH2 0x7A PUSH1 0x4 DUP1 CALLDATASIZE SUB DUP2 ADD SWAP1 PUSH2 0x75 SWAP2 SWAP1 PUSH2 0x227 JUMP JUMPDEST PUSH2 0xE3 JUMP JUMPDEST STOP JUMPDEST PUSH2 0x96 PUSH1 0x4 DUP1 CALLDATASIZE SUB DUP2 ADD SWAP1 PUSH2 0x91 SWAP2 SWAP1 PUSH2 0x227 JUMP JUMPDEST PUSH2 0x161 JUMP JUMPDEST STOP JUMPDEST DUP1 PUSH20 0xFFFFFFFFFFFFFFFFFFFFFFFFFFFFFFFFFFFFFFFF AND PUSH2 0x8FC PUSH1 0x7B SWAP1 DUP2 ISZERO MUL SWAP1 PUSH1 0x40 MLOAD PUSH1 0x0 PUSH1 0x40 MLOAD DUP1 DUP4 SUB DUP2 DUP6 DUP9 DUP9 CALL SWAP4 POP POP POP POP ISZERO DUP1 ISZERO PUSH2 0xDF JUMPI RETURNDATASIZE PUSH1 0x0 DUP1 RETURNDATACOPY RETURNDATASIZE PUSH1 0x0 REVERT JUMPDEST POP POP JUMP JUMPDEST PUSH1 0x0 DUP2 PUSH20 0xFFFFFFFFFFFFFFFFFFFFFFFFFFFFFFFFFFFFFFFF AND PUSH2 0x8FC PUSH1 0x7B SWAP1 DUP2 ISZERO MUL SWAP1 PUSH1 0x40 MLOAD PUSH1 0x0 PUSH1 0x40 MLOAD DUP1 DUP4 SUB DUP2 DUP6 DUP9 DUP9 CALL SWAP4 POP POP POP POP SWAP1 POP DUP1 PUSH2 0x15D JUMPI PUSH1 0x40 MLOAD PUSH32 0x8C379A000000000000000000000000000000000000000000000000000000000 DUP2 MSTORE PUSH1 0x4 ADD PUSH2 0x154 SWAP1 PUSH2 0x2D2 JUMP JUMPDEST PUSH1 0x40 MLOAD DUP1 SWAP2 SUB SWAP1 REVERT JUMPDEST POP POP JUMP JUMPDEST PUSH1 0x0 DUP2 PUSH20 0xFFFFFFFFFFFFFFFFFFFFFFFFFFFFFFFFFFFFFFFF AND PUSH1 0x7B PUSH1 0x40 MLOAD PUSH2 0x188 SWAP1 PUSH2 0x2BD JUMP JUMPDEST PUSH1 0x0 PUSH1 0x40 MLOAD DUP1 DUP4 SUB DUP2 DUP6 DUP8 GAS CALL SWAP3 POP POP POP RETURNDATASIZE DUP1 PUSH1 0x0 DUP2 EQ PUSH2 0x1C5 JUMPI PUSH1 0x40 MLOAD SWAP2 POP PUSH1 0x1F NOT PUSH1 0x3F RETURNDATASIZE ADD AND DUP3 ADD PUSH1 0x40 MSTORE RETURNDATASIZE DUP3 MSTORE RETURNDATASIZE PUSH1 0x0 PUSH1 0x20 DUP5 ADD RETURNDATACOPY PUSH2 0x1CA JUMP JUMPDEST PUSH1 0x60 SWAP2 POP JUMPDEST POP POP SWAP1 POP DUP1 PUSH2 0x20E JUMPI PUSH1 0x40 MLOAD PUSH32 0x8C379A000000000000000000000000000000000000000000000000000000000 DUP2 MSTORE PUSH1 0x4 ADD PUSH2 0x205 SWAP1 PUSH2 0x2F2 JUMP JUMPDEST PUSH1 0x40 MLOAD DUP1 SWAP2 SUB SWAP1 REVERT JUMPDEST POP POP JUMP JUMPDEST PUSH1 0x0 DUP2 CALLDATALOAD SWAP1 POP PUSH2 0x221 DUP2 PUSH2 0x3BA JUMP JUMPDEST SWAP3 SWAP2 POP POP JUMP JUMPDEST PUSH1 0x0 PUSH1 0x20 DUP3 DUP5 SUB SLT ISZERO PUSH2 0x23D JUMPI PUSH2 0x23C PUSH2 0x360 JUMP JUMPDEST JUMPDEST PUSH1 0x0 PUSH2 0x24B DUP5 DUP3 DUP6 ADD PUSH2 0x212 JUMP JUMPDEST SWAP2 POP POP SWAP3 SWAP2 POP POP JUMP JUMPDEST PUSH1 0x0 PUSH2 0x261 PUSH1 0x9 DUP4 PUSH2 0x31D JUMP JUMPDEST SWAP2 POP PUSH2 0x26C DUP3 PUSH2 0x365 JUMP JUMPDEST PUSH1 0x20 DUP3 ADD SWAP1 POP SWAP2 SWAP1 POP JUMP JUMPDEST PUSH1 0x0 PUSH2 0x284 PUSH1 0x0 DUP4 PUSH2 0x312 JUMP JUMPDEST SWAP2 POP PUSH2 0x28F DUP3 PUSH2 0x38E JUMP JUMPDEST PUSH1 0x0 DUP3 ADD SWAP1 POP SWAP2 SWAP1 POP JUMP JUMPDEST PUSH1 0x0 PUSH2 0x2A7 PUSH1 0x9 DUP4 PUSH2 0x31D JUMP JUMPDEST SWAP2 POP PUSH2 0x2B2 DUP3 PUSH2 0x391 JUMP JUMPDEST PUSH1 0x20 DUP3 ADD SWAP1 POP SWAP2 SWAP1 POP JUMP JUMPDEST PUSH1 0x0 PUSH2 0x2C8 DUP3 PUSH2 0x277 JUMP JUMPDEST SWAP2 POP DUP2 SWAP1 POP SWAP2 SWAP1 POP JUMP JUMPDEST PUSH1 0x0 PUSH1 0x20 DUP3 ADD SWAP1 POP DUP2 DUP2 SUB PUSH1 0x0 DUP4 ADD MSTORE PUSH2 0x2EB DUP2 PUSH2 0x254 JUMP JUMPDEST SWAP1 POP SWAP2 SWAP1 POP JUMP JUMPDEST PUSH1 0x0 PUSH1 0x20 DUP3 ADD SWAP1 POP DUP2 DUP2 SUB PUSH1 0x0 DUP4 ADD MSTORE PUSH2 0x30B DUP2 PUSH2 0x29A JUMP JUMPDEST SWAP1 POP SWAP2 SWAP1 POP JUMP JUMPDEST PUSH1 0x0 DUP2 SWAP1 POP SWAP3 SWAP2 POP POP JUMP JUMPDEST PUSH1 0x0 DUP3 DUP3 MSTORE PUSH1 0x20 DUP3 ADD SWAP1 POP SWAP3 SWAP2 POP POP JUMP JUMPDEST PUSH1 0x0 PUSH2 0x339 DUP3 PUSH2 0x340 JUMP JUMPDEST SWAP1 POP SWAP2 SWAP1 POP JUMP JUMPDEST PUSH1 0x0 PUSH20 0xFFFFFFFFFFFFFFFFFFFFFFFFFFFFFFFFFFFFFFFF DUP3 AND SWAP1 POP SWAP2 SWAP1 POP JUMP JUMPDEST PUSH1 0x0 DUP1 REVERT JUMPDEST PUSH32 0x73656E64206661696C0000000000000000000000000000000000000000000000 PUSH1 0x0 DUP3 ADD MSTORE POP JUMP JUMPDEST POP JUMP JUMPDEST PUSH32 0x63616C6C206661696C0000000000000000000000000000000000000000000000 PUSH1 0x0 DUP3 ADD MSTORE POP JUMP JUMPDEST PUSH2 0x3C3 DUP2 PUSH2 0x32E JUMP JUMPDEST DUP2 EQ PUSH2 0x3CE JUMPI PUSH1 0x0 DUP1 REVERT JUMPDEST POP JUMP INVALID LOG2 PUSH5 0x6970667358 0x22 SLT KECCAK256 0xC5 0xEE 0xB6 PUSH20 0xC09577B441D2E0A5337C49E5FD85BC728493F73A 0x24 SIGNEXTEND BALANCE PUSH8 0x77F08A8E64736F6C PUSH4 0x43000807 STOP CALLER "
				},
				"gasEstimates": {
					"creation": {
						"codeDepositCost": "206200",
						"executionCost": "227",
						"totalCost": "206427"
					},
					"external": {
						"sendViaCall(address)": "infinite",
						"sendViaSend(address)": "infinite",
						"sendViaTransfer(address)": "infinite"
					}
				},
				"methodIdentifiers": {
					"sendViaCall(address)": "830c29ae",
					"sendViaSend(address)": "74be4806",
					"sendViaTransfer(address)": "636e082b"
				}
			},
			"storageLayout": {
				"storage": [],
				"types": null
			},
			"userdoc": {
				"kind": "user",
				"methods": {},
				"version": 1
			}
		}
	}
}