{
	"study/chapter05/call.sol": {
		"Call": {
			"abi": [
				{
					"inputs": [
						{
							"internalType": "address",
							"name": "_test",
							"type": "address"
						}
					],
					"name": "example",
					"outputs": [
						{
							"internalType": "bool",
							"name": "success",
							"type": "bool"
						},
						{
							"internalType": "bytes",
							"name": "data",
							"type": "bytes"
						}
					],
					"stateMutability": "nonpayable",
					"type": "function"
				}
			],
			"devdoc": {
				"kind": "dev",
				"methods": {},
				"version": 1
			},
			"evm": {
				"assembly": "    /* \"study/chapter05/call.sol\":142:570  contract Call{... */\n  mstore(0x40, 0x80)\n  callvalue\n  dup1\n  iszero\n  tag_1\n  jumpi\n  0x00\n  dup1\n  revert\ntag_1:\n  pop\n  dataSize(sub_0)\n  dup1\n  dataOffset(sub_0)\n  0x00\n  codecopy\n  0x00\n  return\nstop\n\nsub_0: assembly {\n        /* \"study/chapter05/call.sol\":142:570  contract Call{... */\n      mstore(0x40, 0x80)\n      callvalue\n      dup1\n      iszero\n      tag_1\n      jumpi\n      0x00\n      dup1\n      revert\n    tag_1:\n      pop\n      jumpi(tag_2, lt(calldatasize, 0x04))\n      shr(0xe0, calldataload(0x00))\n      dup1\n      0x512ca947\n      eq\n      tag_3\n      jumpi\n    tag_2:\n      0x00\n      dup1\n      revert\n        /* \"study/chapter05/call.sol\":161:568  function example(address _test)external returns(bool success,bytes memory data){... */\n    tag_3:\n      tag_4\n      0x04\n      dup1\n      calldatasize\n      sub\n      dup2\n      add\n      swap1\n      tag_5\n      swap2\n      swap1\n      tag_6\n      jump\t// in\n    tag_5:\n      tag_7\n      jump\t// in\n    tag_4:\n      mload(0x40)\n      tag_8\n      swap3\n      swap2\n      swap1\n      tag_9\n      jump\t// in\n    tag_8:\n      mload(0x40)\n      dup1\n      swap2\n      sub\n      swap1\n      return\n    tag_7:\n        /* \"study/chapter05/call.sol\":209:221  bool success */\n      0x00\n        /* \"study/chapter05/call.sol\":222:239  bytes memory data */\n      0x60\n        /* \"study/chapter05/call.sol\":505:510  _test */\n      dup3\n        /* \"study/chapter05/call.sol\":505:515  _test.call */\n      0xffffffffffffffffffffffffffffffffffffffff\n      and\n        /* \"study/chapter05/call.sol\":556:559  123 */\n      0x7b\n        /* \"study/chapter05/call.sol\":516:560  abi.encodeWithSignature(\"setX(uint256)\",123) */\n      add(0x24, mload(0x40))\n      tag_11\n      swap2\n      swap1\n      tag_12\n      jump\t// in\n    tag_11:\n      mload(0x40)\n      0x20\n      dup2\n      dup4\n      sub\n      sub\n      dup2\n      mstore\n      swap1\n      0x40\n      mstore\n      and(not(0xffffffffffffffffffffffffffffffffffffffffffffffffffffffff), 0x4018d9aa00000000000000000000000000000000000000000000000000000000)\n      0x20\n      dup3\n      add\n      dup1\n      mload\n      0xffffffffffffffffffffffffffffffffffffffffffffffffffffffff\n      dup4\n      dup2\n      dup4\n      and\n      or\n      dup4\n      mstore\n      pop\n      pop\n      pop\n      pop\n        /* \"study/chapter05/call.sol\":505:561  _test.call(abi.encodeWithSignature(\"setX(uint256)\",123)) */\n      mload(0x40)\n      tag_13\n      swap2\n      swap1\n      tag_14\n      jump\t// in\n    tag_13:\n      0x00\n      mload(0x40)\n      dup1\n      dup4\n      sub\n      dup2\n      0x00\n      dup7\n      gas\n      call\n      swap2\n      pop\n      pop\n      returndatasize\n      dup1\n      0x00\n      dup2\n      eq\n      tag_17\n      jumpi\n      mload(0x40)\n      swap2\n      pop\n      and(add(returndatasize, 0x3f), not(0x1f))\n      dup3\n      add\n      0x40\n      mstore\n      returndatasize\n      dup3\n      mstore\n      returndatasize\n      0x00\n      0x20\n      dup5\n      add\n      returndatacopy\n      jump(tag_16)\n    tag_17:\n      0x60\n      swap2\n      pop\n    tag_16:\n      pop\n        /* \"study/chapter05/call.sol\":490:561  (success,data)=_test.call(abi.encodeWithSignature(\"setX(uint256)\",123)) */\n      dup1\n      swap3\n      pop\n      dup2\n      swap4\n      pop\n      pop\n      pop\n        /* \"study/chapter05/call.sol\":161:568  function example(address _test)external returns(bool success,bytes memory data){... */\n      swap2\n      pop\n      swap2\n      jump\t// out\n        /* \"#utility.yul\":88:205   */\n    tag_19:\n        /* \"#utility.yul\":197:198   */\n      0x00\n        /* \"#utility.yul\":194:195   */\n      dup1\n        /* \"#utility.yul\":187:199   */\n      revert\n        /* \"#utility.yul\":334:460   */\n    tag_21:\n        /* \"#utility.yul\":371:378   */\n      0x00\n        /* \"#utility.yul\":411:453   */\n      0xffffffffffffffffffffffffffffffffffffffff\n        /* \"#utility.yul\":404:409   */\n      dup3\n        /* \"#utility.yul\":400:454   */\n      and\n        /* \"#utility.yul\":389:454   */\n      swap1\n      pop\n        /* \"#utility.yul\":334:460   */\n      swap2\n      swap1\n      pop\n      jump\t// out\n        /* \"#utility.yul\":466:562   */\n    tag_22:\n        /* \"#utility.yul\":503:510   */\n      0x00\n        /* \"#utility.yul\":532:556   */\n      tag_45\n        /* \"#utility.yul\":550:555   */\n      dup3\n        /* \"#utility.yul\":532:556   */\n      tag_21\n      jump\t// in\n    tag_45:\n        /* \"#utility.yul\":521:556   */\n      swap1\n      pop\n        /* \"#utility.yul\":466:562   */\n      swap2\n      swap1\n      pop\n      jump\t// out\n        /* \"#utility.yul\":568:690   */\n    tag_23:\n        /* \"#utility.yul\":641:665   */\n      tag_47\n        /* \"#utility.yul\":659:664   */\n      dup2\n        /* \"#utility.yul\":641:665   */\n      tag_22\n      jump\t// in\n    tag_47:\n        /* \"#utility.yul\":634:639   */\n      dup2\n        /* \"#utility.yul\":631:666   */\n      eq\n        /* \"#utility.yul\":621:684   */\n      tag_48\n      jumpi\n        /* \"#utility.yul\":680:681   */\n      0x00\n        /* \"#utility.yul\":677:678   */\n      dup1\n        /* \"#utility.yul\":670:682   */\n      revert\n        /* \"#utility.yul\":621:684   */\n    tag_48:\n        /* \"#utility.yul\":568:690   */\n      pop\n      jump\t// out\n        /* \"#utility.yul\":696:835   */\n    tag_24:\n        /* \"#utility.yul\":742:747   */\n      0x00\n        /* \"#utility.yul\":780:786   */\n      dup2\n        /* \"#utility.yul\":767:787   */\n      calldataload\n        /* \"#utility.yul\":758:787   */\n      swap1\n      pop\n        /* \"#utility.yul\":796:829   */\n      tag_50\n        /* \"#utility.yul\":823:828   */\n      dup2\n        /* \"#utility.yul\":796:829   */\n      tag_23\n      jump\t// in\n    tag_50:\n        /* \"#utility.yul\":696:835   */\n      swap3\n      swap2\n      pop\n      pop\n      jump\t// out\n        /* \"#utility.yul\":841:1170   */\n    tag_6:\n        /* \"#utility.yul\":900:906   */\n      0x00\n        /* \"#utility.yul\":949:951   */\n      0x20\n        /* \"#utility.yul\":937:946   */\n      dup3\n        /* \"#utility.yul\":928:935   */\n      dup5\n        /* \"#utility.yul\":924:947   */\n      sub\n        /* \"#utility.yul\":920:952   */\n      slt\n        /* \"#utility.yul\":917:1036   */\n      iszero\n      tag_52\n      jumpi\n        /* \"#utility.yul\":955:1034   */\n      tag_53\n      tag_19\n      jump\t// in\n    tag_53:\n        /* \"#utility.yul\":917:1036   */\n    tag_52:\n        /* \"#utility.yul\":1075:1076   */\n      0x00\n        /* \"#utility.yul\":1100:1153   */\n      tag_54\n        /* \"#utility.yul\":1145:1152   */\n      dup5\n        /* \"#utility.yul\":1136:1142   */\n      dup3\n        /* \"#utility.yul\":1125:1134   */\n      dup6\n        /* \"#utility.yul\":1121:1143   */\n      add\n        /* \"#utility.yul\":1100:1153   */\n      tag_24\n      jump\t// in\n    tag_54:\n        /* \"#utility.yul\":1090:1153   */\n      swap2\n      pop\n        /* \"#utility.yul\":1046:1163   */\n      pop\n        /* \"#utility.yul\":841:1170   */\n      swap3\n      swap2\n      pop\n      pop\n      jump\t// out\n        /* \"#utility.yul\":1176:1266   */\n    tag_25:\n        /* \"#utility.yul\":1210:1217   */\n      0x00\n        /* \"#utility.yul\":1253:1258   */\n      dup2\n        /* \"#utility.yul\":1246:1259   */\n      iszero\n        /* \"#utility.yul\":1239:1260   */\n      iszero\n        /* \"#utility.yul\":1228:1260   */\n      swap1\n      pop\n        /* \"#utility.yul\":1176:1266   */\n      swap2\n      swap1\n      pop\n      jump\t// out\n        /* \"#utility.yul\":1272:1381   */\n    tag_26:\n        /* \"#utility.yul\":1353:1374   */\n      tag_57\n        /* \"#utility.yul\":1368:1373   */\n      dup2\n        /* \"#utility.yul\":1353:1374   */\n      tag_25\n      jump\t// in\n    tag_57:\n        /* \"#utility.yul\":1348:1351   */\n      dup3\n        /* \"#utility.yul\":1341:1375   */\n      mstore\n        /* \"#utility.yul\":1272:1381   */\n      pop\n      pop\n      jump\t// out\n        /* \"#utility.yul\":1387:1485   */\n    tag_27:\n        /* \"#utility.yul\":1438:1444   */\n      0x00\n        /* \"#utility.yul\":1472:1477   */\n      dup2\n        /* \"#utility.yul\":1466:1478   */\n      mload\n        /* \"#utility.yul\":1456:1478   */\n      swap1\n      pop\n        /* \"#utility.yul\":1387:1485   */\n      swap2\n      swap1\n      pop\n      jump\t// out\n        /* \"#utility.yul\":1491:1659   */\n    tag_28:\n        /* \"#utility.yul\":1574:1585   */\n      0x00\n        /* \"#utility.yul\":1608:1614   */\n      dup3\n        /* \"#utility.yul\":1603:1606   */\n      dup3\n        /* \"#utility.yul\":1596:1615   */\n      mstore\n        /* \"#utility.yul\":1648:1652   */\n      0x20\n        /* \"#utility.yul\":1643:1646   */\n      dup3\n        /* \"#utility.yul\":1639:1653   */\n      add\n        /* \"#utility.yul\":1624:1653   */\n      swap1\n      pop\n        /* \"#utility.yul\":1491:1659   */\n      swap3\n      swap2\n      pop\n      pop\n      jump\t// out\n        /* \"#utility.yul\":1665:1972   */\n    tag_29:\n        /* \"#utility.yul\":1733:1734   */\n      0x00\n        /* \"#utility.yul\":1743:1856   */\n    tag_61:\n        /* \"#utility.yul\":1757:1763   */\n      dup4\n        /* \"#utility.yul\":1754:1755   */\n      dup2\n        /* \"#utility.yul\":1751:1764   */\n      lt\n        /* \"#utility.yul\":1743:1856   */\n      iszero\n      tag_63\n      jumpi\n        /* \"#utility.yul\":1842:1843   */\n      dup1\n        /* \"#utility.yul\":1837:1840   */\n      dup3\n        /* \"#utility.yul\":1833:1844   */\n      add\n        /* \"#utility.yul\":1827:1845   */\n      mload\n        /* \"#utility.yul\":1823:1824   */\n      dup2\n        /* \"#utility.yul\":1818:1821   */\n      dup5\n        /* \"#utility.yul\":1814:1825   */\n      add\n        /* \"#utility.yul\":1807:1846   */\n      mstore\n        /* \"#utility.yul\":1779:1781   */\n      0x20\n        /* \"#utility.yul\":1776:1777   */\n      dup2\n        /* \"#utility.yul\":1772:1782   */\n      add\n        /* \"#utility.yul\":1767:1782   */\n      swap1\n      pop\n        /* \"#utility.yul\":1743:1856   */\n      jump(tag_61)\n    tag_63:\n        /* \"#utility.yul\":1874:1880   */\n      dup4\n        /* \"#utility.yul\":1871:1872   */\n      dup2\n        /* \"#utility.yul\":1868:1881   */\n      gt\n        /* \"#utility.yul\":1865:1966   */\n      iszero\n      tag_64\n      jumpi\n        /* \"#utility.yul\":1954:1955   */\n      0x00\n        /* \"#utility.yul\":1945:1951   */\n      dup5\n        /* \"#utility.yul\":1940:1943   */\n      dup5\n        /* \"#utility.yul\":1936:1952   */\n      add\n        /* \"#utility.yul\":1929:1956   */\n      mstore\n        /* \"#utility.yul\":1865:1966   */\n    tag_64:\n        /* \"#utility.yul\":1714:1972   */\n      pop\n        /* \"#utility.yul\":1665:1972   */\n      pop\n      pop\n      pop\n      jump\t// out\n        /* \"#utility.yul\":1978:2080   */\n    tag_30:\n        /* \"#utility.yul\":2019:2025   */\n      0x00\n        /* \"#utility.yul\":2070:2072   */\n      0x1f\n        /* \"#utility.yul\":2066:2073   */\n      not\n        /* \"#utility.yul\":2061:2063   */\n      0x1f\n        /* \"#utility.yul\":2054:2059   */\n      dup4\n        /* \"#utility.yul\":2050:2064   */\n      add\n        /* \"#utility.yul\":2046:2074   */\n      and\n        /* \"#utility.yul\":2036:2074   */\n      swap1\n      pop\n        /* \"#utility.yul\":1978:2080   */\n      swap2\n      swap1\n      pop\n      jump\t// out\n        /* \"#utility.yul\":2086:2446   */\n    tag_31:\n        /* \"#utility.yul\":2172:2175   */\n      0x00\n        /* \"#utility.yul\":2200:2238   */\n      tag_67\n        /* \"#utility.yul\":2232:2237   */\n      dup3\n        /* \"#utility.yul\":2200:2238   */\n      tag_27\n      jump\t// in\n    tag_67:\n        /* \"#utility.yul\":2254:2324   */\n      tag_68\n        /* \"#utility.yul\":2317:2323   */\n      dup2\n        /* \"#utility.yul\":2312:2315   */\n      dup6\n        /* \"#utility.yul\":2254:2324   */\n      tag_28\n      jump\t// in\n    tag_68:\n        /* \"#utility.yul\":2247:2324   */\n      swap4\n      pop\n        /* \"#utility.yul\":2333:2385   */\n      tag_69\n        /* \"#utility.yul\":2378:2384   */\n      dup2\n        /* \"#utility.yul\":2373:2376   */\n      dup6\n        /* \"#utility.yul\":2366:2370   */\n      0x20\n        /* \"#utility.yul\":2359:2364   */\n      dup7\n        /* \"#utility.yul\":2355:2371   */\n      add\n        /* \"#utility.yul\":2333:2385   */\n      tag_29\n      jump\t// in\n    tag_69:\n        /* \"#utility.yul\":2410:2439   */\n      tag_70\n        /* \"#utility.yul\":2432:2438   */\n      dup2\n        /* \"#utility.yul\":2410:2439   */\n      tag_30\n      jump\t// in\n    tag_70:\n        /* \"#utility.yul\":2405:2408   */\n      dup5\n        /* \"#utility.yul\":2401:2440   */\n      add\n        /* \"#utility.yul\":2394:2440   */\n      swap2\n      pop\n        /* \"#utility.yul\":2176:2446   */\n      pop\n        /* \"#utility.yul\":2086:2446   */\n      swap3\n      swap2\n      pop\n      pop\n      jump\t// out\n        /* \"#utility.yul\":2452:2859   */\n    tag_9:\n        /* \"#utility.yul\":2585:2589   */\n      0x00\n        /* \"#utility.yul\":2623:2625   */\n      0x40\n        /* \"#utility.yul\":2612:2621   */\n      dup3\n        /* \"#utility.yul\":2608:2626   */\n      add\n        /* \"#utility.yul\":2600:2626   */\n      swap1\n      pop\n        /* \"#utility.yul\":2636:2701   */\n      tag_72\n        /* \"#utility.yul\":2698:2699   */\n      0x00\n        /* \"#utility.yul\":2687:2696   */\n      dup4\n        /* \"#utility.yul\":2683:2700   */\n      add\n        /* \"#utility.yul\":2674:2680   */\n      dup6\n        /* \"#utility.yul\":2636:2701   */\n      tag_26\n      jump\t// in\n    tag_72:\n        /* \"#utility.yul\":2748:2757   */\n      dup2\n        /* \"#utility.yul\":2742:2746   */\n      dup2\n        /* \"#utility.yul\":2738:2758   */\n      sub\n        /* \"#utility.yul\":2733:2735   */\n      0x20\n        /* \"#utility.yul\":2722:2731   */\n      dup4\n        /* \"#utility.yul\":2718:2736   */\n      add\n        /* \"#utility.yul\":2711:2759   */\n      mstore\n        /* \"#utility.yul\":2776:2852   */\n      tag_73\n        /* \"#utility.yul\":2847:2851   */\n      dup2\n        /* \"#utility.yul\":2838:2844   */\n      dup5\n        /* \"#utility.yul\":2776:2852   */\n      tag_31\n      jump\t// in\n    tag_73:\n        /* \"#utility.yul\":2768:2852   */\n      swap1\n      pop\n        /* \"#utility.yul\":2452:2859   */\n      swap4\n      swap3\n      pop\n      pop\n      pop\n      jump\t// out\n        /* \"#utility.yul\":2865:2952   */\n    tag_32:\n        /* \"#utility.yul\":2912:2919   */\n      0x00\n        /* \"#utility.yul\":2941:2946   */\n      dup2\n        /* \"#utility.yul\":2930:2946   */\n      swap1\n      pop\n        /* \"#utility.yul\":2865:2952   */\n      swap2\n      swap1\n      pop\n      jump\t// out\n        /* \"#utility.yul\":2958:3044   */\n    tag_33:\n        /* \"#utility.yul\":2993:3000   */\n      0x00\n        /* \"#utility.yul\":3033:3037   */\n      0xff\n        /* \"#utility.yul\":3026:3031   */\n      dup3\n        /* \"#utility.yul\":3022:3038   */\n      and\n        /* \"#utility.yul\":3011:3038   */\n      swap1\n      pop\n        /* \"#utility.yul\":2958:3044   */\n      swap2\n      swap1\n      pop\n      jump\t// out\n        /* \"#utility.yul\":3050:3110   */\n    tag_34:\n        /* \"#utility.yul\":3078:3081   */\n      0x00\n        /* \"#utility.yul\":3099:3104   */\n      dup2\n        /* \"#utility.yul\":3092:3104   */\n      swap1\n      pop\n        /* \"#utility.yul\":3050:3110   */\n      swap2\n      swap1\n      pop\n      jump\t// out\n        /* \"#utility.yul\":3116:3274   */\n    tag_35:\n        /* \"#utility.yul\":3174:3183   */\n      0x00\n        /* \"#utility.yul\":3207:3268   */\n      tag_78\n        /* \"#utility.yul\":3223:3267   */\n      tag_79\n        /* \"#utility.yul\":3232:3266   */\n      tag_80\n        /* \"#utility.yul\":3260:3265   */\n      dup5\n        /* \"#utility.yul\":3232:3266   */\n      tag_32\n      jump\t// in\n    tag_80:\n        /* \"#utility.yul\":3223:3267   */\n      tag_34\n      jump\t// in\n    tag_79:\n        /* \"#utility.yul\":3207:3268   */\n      tag_33\n      jump\t// in\n    tag_78:\n        /* \"#utility.yul\":3194:3268   */\n      swap1\n      pop\n        /* \"#utility.yul\":3116:3274   */\n      swap2\n      swap1\n      pop\n      jump\t// out\n        /* \"#utility.yul\":3280:3427   */\n    tag_36:\n        /* \"#utility.yul\":3375:3420   */\n      tag_82\n        /* \"#utility.yul\":3414:3419   */\n      dup2\n        /* \"#utility.yul\":3375:3420   */\n      tag_35\n      jump\t// in\n    tag_82:\n        /* \"#utility.yul\":3370:3373   */\n      dup3\n        /* \"#utility.yul\":3363:3421   */\n      mstore\n        /* \"#utility.yul\":3280:3427   */\n      pop\n      pop\n      jump\t// out\n        /* \"#utility.yul\":3433:3671   */\n    tag_12:\n        /* \"#utility.yul\":3534:3538   */\n      0x00\n        /* \"#utility.yul\":3572:3574   */\n      0x20\n        /* \"#utility.yul\":3561:3570   */\n      dup3\n        /* \"#utility.yul\":3557:3575   */\n      add\n        /* \"#utility.yul\":3549:3575   */\n      swap1\n      pop\n        /* \"#utility.yul\":3585:3664   */\n      tag_84\n        /* \"#utility.yul\":3661:3662   */\n      0x00\n        /* \"#utility.yul\":3650:3659   */\n      dup4\n        /* \"#utility.yul\":3646:3663   */\n      add\n        /* \"#utility.yul\":3637:3643   */\n      dup5\n        /* \"#utility.yul\":3585:3664   */\n      tag_36\n      jump\t// in\n    tag_84:\n        /* \"#utility.yul\":3433:3671   */\n      swap3\n      swap2\n      pop\n      pop\n      jump\t// out\n        /* \"#utility.yul\":3677:3824   */\n    tag_37:\n        /* \"#utility.yul\":3778:3789   */\n      0x00\n        /* \"#utility.yul\":3815:3818   */\n      dup2\n        /* \"#utility.yul\":3800:3818   */\n      swap1\n      pop\n        /* \"#utility.yul\":3677:3824   */\n      swap3\n      swap2\n      pop\n      pop\n      jump\t// out\n        /* \"#utility.yul\":3830:4203   */\n    tag_38:\n        /* \"#utility.yul\":3934:3937   */\n      0x00\n        /* \"#utility.yul\":3962:4000   */\n      tag_87\n        /* \"#utility.yul\":3994:3999   */\n      dup3\n        /* \"#utility.yul\":3962:4000   */\n      tag_27\n      jump\t// in\n    tag_87:\n        /* \"#utility.yul\":4016:4104   */\n      tag_88\n        /* \"#utility.yul\":4097:4103   */\n      dup2\n        /* \"#utility.yul\":4092:4095   */\n      dup6\n        /* \"#utility.yul\":4016:4104   */\n      tag_37\n      jump\t// in\n    tag_88:\n        /* \"#utility.yul\":4009:4104   */\n      swap4\n      pop\n        /* \"#utility.yul\":4113:4165   */\n      tag_89\n        /* \"#utility.yul\":4158:4164   */\n      dup2\n        /* \"#utility.yul\":4153:4156   */\n      dup6\n        /* \"#utility.yul\":4146:4150   */\n      0x20\n        /* \"#utility.yul\":4139:4144   */\n      dup7\n        /* \"#utility.yul\":4135:4151   */\n      add\n        /* \"#utility.yul\":4113:4165   */\n      tag_29\n      jump\t// in\n    tag_89:\n        /* \"#utility.yul\":4190:4196   */\n      dup1\n        /* \"#utility.yul\":4185:4188   */\n      dup5\n        /* \"#utility.yul\":4181:4197   */\n      add\n        /* \"#utility.yul\":4174:4197   */\n      swap2\n      pop\n        /* \"#utility.yul\":3938:4203   */\n      pop\n        /* \"#utility.yul\":3830:4203   */\n      swap3\n      swap2\n      pop\n      pop\n      jump\t// out\n        /* \"#utility.yul\":4209:4480   */\n    tag_14:\n        /* \"#utility.yul\":4339:4342   */\n      0x00\n        /* \"#utility.yul\":4361:4454   */\n      tag_91\n        /* \"#utility.yul\":4450:4453   */\n      dup3\n        /* \"#utility.yul\":4441:4447   */\n      dup5\n        /* \"#utility.yul\":4361:4454   */\n      tag_38\n      jump\t// in\n    tag_91:\n        /* \"#utility.yul\":4354:4454   */\n      swap2\n      pop\n        /* \"#utility.yul\":4471:4474   */\n      dup2\n        /* \"#utility.yul\":4464:4474   */\n      swap1\n      pop\n        /* \"#utility.yul\":4209:4480   */\n      swap3\n      swap2\n      pop\n      pop\n      jump\t// out\n\n    auxdata: 0xa264697066735822122041a6a4eac3cfa50d06fe588ff15239fb9a8ffbc825bfee40349210879c2881c464736f6c634300080f0033\n}\n",
				"bytecode": {
					"linkReferences": {},
					"object": "608060405234801561001057600080fd5b506103d2806100206000396000f3fe608060405234801561001057600080fd5b506004361061002b5760003560e01c8063512ca94714610030575b600080fd5b61004a600480360381019061004591906101cb565b610061565b6040516100589291906102ac565b60405180910390f35b600060608273ffffffffffffffffffffffffffffffffffffffff16607b60405160240161008e919061032e565b6040516020818303038152906040527f4018d9aa000000000000000000000000000000000000000000000000000000007bffffffffffffffffffffffffffffffffffffffffffffffffffffffff19166020820180517bffffffffffffffffffffffffffffffffffffffffffffffffffffffff83818316178352505050506040516101189190610385565b6000604051808303816000865af19150503d8060008114610155576040519150601f19603f3d011682016040523d82523d6000602084013e61015a565b606091505b508092508193505050915091565b600080fd5b600073ffffffffffffffffffffffffffffffffffffffff82169050919050565b60006101988261016d565b9050919050565b6101a88161018d565b81146101b357600080fd5b50565b6000813590506101c58161019f565b92915050565b6000602082840312156101e1576101e0610168565b5b60006101ef848285016101b6565b91505092915050565b60008115159050919050565b61020d816101f8565b82525050565b600081519050919050565b600082825260208201905092915050565b60005b8381101561024d578082015181840152602081019050610232565b8381111561025c576000848401525b50505050565b6000601f19601f8301169050919050565b600061027e82610213565b610288818561021e565b935061029881856020860161022f565b6102a181610262565b840191505092915050565b60006040820190506102c16000830185610204565b81810360208301526102d38184610273565b90509392505050565b6000819050919050565b600060ff82169050919050565b6000819050919050565b600061031861031361030e846102dc565b6102f3565b6102e6565b9050919050565b610328816102fd565b82525050565b6000602082019050610343600083018461031f565b92915050565b600081905092915050565b600061035f82610213565b6103698185610349565b935061037981856020860161022f565b80840191505092915050565b60006103918284610354565b91508190509291505056fea264697066735822122041a6a4eac3cfa50d06fe588ff15239fb9a8ffbc825bfee40349210879c2881c464736f6c634300080f0033",
					"opcodes": "PUSH1 0x80 PUSH1 0x40 MSTORE CALLVALUE DUP1 ISZERO PUSH2 0x10 JUMPI PUSH1 0x0 DUP1 REVERT JUMPDEST POP PUSH2 0x3D2 DUP1 PUSH2 0x20 PUSH1 0x0 CODECOPY PUSH1 0x0 RETURN INVALID PUSH1 0x80 PUSH1 0x40 MSTORE CALLVALUE DUP1 ISZERO PUSH2 0x10 JUMPI PUSH1 0x0 DUP1 REVERT JUMPDEST POP PUSH1 0x4 CALLDATASIZE LT PUSH2 0x2B JUMPI PUSH1 0x0 CALLDATALOAD PUSH1 0xE0 SHR DUP1 PUSH4 0x512CA947 EQ PUSH2 0x30 JUMPI JUMPDEST PUSH1 0x0 DUP1 REVERT JUMPDEST PUSH2 0x4A PUSH1 0x4 DUP1 CALLDATASIZE SUB DUP2 ADD SWAP1 PUSH2 0x45 SWAP2 SWAP1 PUSH2 0x1CB JUMP JUMPDEST PUSH2 0x61 JUMP JUMPDEST PUSH1 0x40 MLOAD PUSH2 0x58 SWAP3 SWAP2 SWAP1 PUSH2 0x2AC JUMP JUMPDEST PUSH1 0x40 MLOAD DUP1 SWAP2 SUB SWAP1 RETURN JUMPDEST PUSH1 0x0 PUSH1 0x60 DUP3 PUSH20 0xFFFFFFFFFFFFFFFFFFFFFFFFFFFFFFFFFFFFFFFF AND PUSH1 0x7B PUSH1 0x40 MLOAD PUSH1 0x24 ADD PUSH2 0x8E SWAP2 SWAP1 PUSH2 0x32E JUMP JUMPDEST PUSH1 0x40 MLOAD PUSH1 0x20 DUP2 DUP4 SUB SUB DUP2 MSTORE SWAP1 PUSH1 0x40 MSTORE PUSH32 0x4018D9AA00000000000000000000000000000000000000000000000000000000 PUSH28 0xFFFFFFFFFFFFFFFFFFFFFFFFFFFFFFFFFFFFFFFFFFFFFFFFFFFFFFFF NOT AND PUSH1 0x20 DUP3 ADD DUP1 MLOAD PUSH28 0xFFFFFFFFFFFFFFFFFFFFFFFFFFFFFFFFFFFFFFFFFFFFFFFFFFFFFFFF DUP4 DUP2 DUP4 AND OR DUP4 MSTORE POP POP POP POP PUSH1 0x40 MLOAD PUSH2 0x118 SWAP2 SWAP1 PUSH2 0x385 JUMP JUMPDEST PUSH1 0x0 PUSH1 0x40 MLOAD DUP1 DUP4 SUB DUP2 PUSH1 0x0 DUP7 GAS CALL SWAP2 POP POP RETURNDATASIZE DUP1 PUSH1 0x0 DUP2 EQ PUSH2 0x155 JUMPI PUSH1 0x40 MLOAD SWAP2 POP PUSH1 0x1F NOT PUSH1 0x3F RETURNDATASIZE ADD AND DUP3 ADD PUSH1 0x40 MSTORE RETURNDATASIZE DUP3 MSTORE RETURNDATASIZE PUSH1 0x0 PUSH1 0x20 DUP5 ADD RETURNDATACOPY PUSH2 0x15A JUMP JUMPDEST PUSH1 0x60 SWAP2 POP JUMPDEST POP DUP1 SWAP3 POP DUP2 SWAP4 POP POP POP SWAP2 POP SWAP2 JUMP JUMPDEST PUSH1 0x0 DUP1 REVERT JUMPDEST PUSH1 0x0 PUSH20 0xFFFFFFFFFFFFFFFFFFFFFFFFFFFFFFFFFFFFFFFF DUP3 AND SWAP1 POP SWAP2 SWAP1 POP JUMP JUMPDEST PUSH1 0x0 PUSH2 0x198 DUP3 PUSH2 0x16D JUMP JUMPDEST SWAP1 POP SWAP2 SWAP1 POP JUMP JUMPDEST PUSH2 0x1A8 DUP2 PUSH2 0x18D JUMP JUMPDEST DUP2 EQ PUSH2 0x1B3 JUMPI PUSH1 0x0 DUP1 REVERT JUMPDEST POP JUMP JUMPDEST PUSH1 0x0 DUP2 CALLDATALOAD SWAP1 POP PUSH2 0x1C5 DUP2 PUSH2 0x19F JUMP JUMPDEST SWAP3 SWAP2 POP POP JUMP JUMPDEST PUSH1 0x0 PUSH1 0x20 DUP3 DUP5 SUB SLT ISZERO PUSH2 0x1E1 JUMPI PUSH2 0x1E0 PUSH2 0x168 JUMP JUMPDEST JUMPDEST PUSH1 0x0 PUSH2 0x1EF DUP5 DUP3 DUP6 ADD PUSH2 0x1B6 JUMP JUMPDEST SWAP2 POP POP SWAP3 SWAP2 POP POP JUMP JUMPDEST PUSH1 0x0 DUP2 ISZERO ISZERO SWAP1 POP SWAP2 SWAP1 POP JUMP JUMPDEST PUSH2 0x20D DUP2 PUSH2 0x1F8 JUMP JUMPDEST DUP3 MSTORE POP POP JUMP JUMPDEST PUSH1 0x0 DUP2 MLOAD SWAP1 POP SWAP2 SWAP1 POP JUMP JUMPDEST PUSH1 0x0 DUP3 DUP3 MSTORE PUSH1 0x20 DUP3 ADD SWAP1 POP SWAP3 SWAP2 POP POP JUMP JUMPDEST PUSH1 0x0 JUMPDEST DUP4 DUP2 LT ISZERO PUSH2 0x24D JUMPI DUP1 DUP3 ADD MLOAD DUP2 DUP5 ADD MSTORE PUSH1 0x20 DUP2 ADD SWAP1 POP PUSH2 0x232 JUMP JUMPDEST DUP4 DUP2 GT ISZERO PUSH2 0x25C JUMPI PUSH1 0x0 DUP5 DUP5 ADD MSTORE JUMPDEST POP POP POP POP JUMP JUMPDEST PUSH1 0x0 PUSH1 0x1F NOT PUSH1 0x1F DUP4 ADD AND SWAP1 POP SWAP2 SWAP1 POP JUMP JUMPDEST PUSH1 0x0 PUSH2 0x27E DUP3 PUSH2 0x213 JUMP JUMPDEST PUSH2 0x288 DUP2 DUP6 PUSH2 0x21E JUMP JUMPDEST SWAP4 POP PUSH2 0x298 DUP2 DUP6 PUSH1 0x20 DUP7 ADD PUSH2 0x22F JUMP JUMPDEST PUSH2 0x2A1 DUP2 PUSH2 0x262 JUMP JUMPDEST DUP5 ADD SWAP2 POP POP SWAP3 SWAP2 POP POP JUMP JUMPDEST PUSH1 0x0 PUSH1 0x40 DUP3 ADD SWAP1 POP PUSH2 0x2C1 PUSH1 0x0 DUP4 ADD DUP6 PUSH2 0x204 JUMP JUMPDEST DUP2 DUP2 SUB PUSH1 0x20 DUP4 ADD MSTORE PUSH2 0x2D3 DUP2 DUP5 PUSH2 0x273 JUMP JUMPDEST SWAP1 POP SWAP4 SWAP3 POP POP POP JUMP JUMPDEST PUSH1 0x0 DUP2 SWAP1 POP SWAP2 SWAP1 POP JUMP JUMPDEST PUSH1 0x0 PUSH1 0xFF DUP3 AND SWAP1 POP SWAP2 SWAP1 POP JUMP JUMPDEST PUSH1 0x0 DUP2 SWAP1 POP SWAP2 SWAP1 POP JUMP JUMPDEST PUSH1 0x0 PUSH2 0x318 PUSH2 0x313 PUSH2 0x30E DUP5 PUSH2 0x2DC JUMP JUMPDEST PUSH2 0x2F3 JUMP JUMPDEST PUSH2 0x2E6 JUMP JUMPDEST SWAP1 POP SWAP2 SWAP1 POP JUMP JUMPDEST PUSH2 0x328 DUP2 PUSH2 0x2FD JUMP JUMPDEST DUP3 MSTORE POP POP JUMP JUMPDEST PUSH1 0x0 PUSH1 0x20 DUP3 ADD SWAP1 POP PUSH2 0x343 PUSH1 0x0 DUP4 ADD DUP5 PUSH2 0x31F JUMP JUMPDEST SWAP3 SWAP2 POP POP JUMP JUMPDEST PUSH1 0x0 DUP2 SWAP1 POP SWAP3 SWAP2 POP POP JUMP JUMPDEST PUSH1 0x0 PUSH2 0x35F DUP3 PUSH2 0x213 JUMP JUMPDEST PUSH2 0x369 DUP2 DUP6 PUSH2 0x349 JUMP JUMPDEST SWAP4 POP PUSH2 0x379 DUP2 DUP6 PUSH1 0x20 DUP7 ADD PUSH2 0x22F JUMP JUMPDEST DUP1 DUP5 ADD SWAP2 POP POP SWAP3 SWAP2 POP POP JUMP JUMPDEST PUSH1 0x0 PUSH2 0x391 DUP3 DUP5 PUSH2 0x354 JUMP JUMPDEST SWAP2 POP DUP2 SWAP1 POP SWAP3 SWAP2 POP POP JUMP INVALID LOG2 PUSH5 0x6970667358 0x22 SLT KECCAK256 COINBASE 0xA6 LOG4 0xEA 0xC3 0xCF 0xA5 0xD MOD INVALID PC DUP16 CALL MSTORE CODECOPY 0xFB SWAP11 DUP16 0xFB 0xC8 0x25 0xBF 0xEE BLOCKHASH CALLVALUE SWAP3 LT DUP8 SWAP13 0x28 DUP2 0xC4 PUSH5 0x736F6C6343 STOP ADDMOD 0xF STOP CALLER "
				},
				"gasEstimates": {
					"creation": {
						"codeDepositCost": "195600",
						"executionCost": "238",
						"totalCost": "195838"
					},
					"external": {
						"example(address)": "infinite"
					}
				},
				"methodIdentifiers": {
					"example(address)": "512ca947"
				}
			},
			"storageLayout": {
				"storage": [],
				"types": null
			},
			"userdoc": {
				"kind": "user",
				"methods": {},
				"version": 1
			}
		}
	}
}