{
	"study/chapter05/back.sol": {
		"back": {
			"abi": [
				{
					"anonymous": false,
					"inputs": [
						{
							"indexed": false,
							"internalType": "string",
							"name": "func",
							"type": "string"
						},
						{
							"indexed": false,
							"internalType": "address",
							"name": "sender",
							"type": "address"
						},
						{
							"indexed": false,
							"internalType": "uint256",
							"name": "value",
							"type": "uint256"
						},
						{
							"indexed": false,
							"internalType": "bytes",
							"name": "data",
							"type": "bytes"
						}
					],
					"name": "Log",
					"type": "event"
				},
				{
					"inputs": [],
					"name": "getBalance",
					"outputs": [
						{
							"internalType": "uint256",
							"name": "",
							"type": "uint256"
						}
					],
					"stateMutability": "view",
					"type": "function"
				},
				{
					"stateMutability": "payable",
					"type": "receive"
				}
			],
			"devdoc": {
				"kind": "dev",
				"methods": {},
				"version": 1
			},
			"evm": {
				"assembly": "    /* \"study/chapter05/back.sol\":55:564  contract back{... */\n  mstore(0x40, 0x80)\n  callvalue\n  dup1\n  iszero\n  tag_1\n  jumpi\n  0x00\n  dup1\n  revert\ntag_1:\n  pop\n  dataSize(sub_0)\n  dup1\n  dataOffset(sub_0)\n  0x00\n  codecopy\n  0x00\n  return\nstop\n\nsub_0: assembly {\n        /* \"study/chapter05/back.sol\":55:564  contract back{... */\n      mstore(0x40, 0x80)\n      jumpi(tag_1, lt(calldatasize, 0x04))\n      shr(0xe0, calldataload(0x00))\n      dup1\n      0x12065fe0\n      eq\n      tag_3\n      jumpi\n      jump(tag_2)\n    tag_1:\n      jumpi(tag_2, calldatasize)\n        /* \"study/chapter05/back.sol\":362:400  Log(\"receive\",msg.sender,msg.value,\"\") */\n      0xf7f75251dee7d7fc22deac3247729ebe7c86541f35930bf10c2a4207479a3b6c\n        /* \"study/chapter05/back.sol\":376:386  msg.sender */\n      caller\n        /* \"study/chapter05/back.sol\":387:396  msg.value */\n      callvalue\n        /* \"study/chapter05/back.sol\":362:400  Log(\"receive\",msg.sender,msg.value,\"\") */\n      mload(0x40)\n      tag_6\n      swap3\n      swap2\n      swap1\n      tag_7\n      jump\t// in\n    tag_6:\n      mload(0x40)\n      dup1\n      swap2\n      sub\n      swap1\n      log1\n        /* \"study/chapter05/back.sol\":55:564  contract back{... */\n      stop\n    tag_2:\n      0x00\n      dup1\n      revert\n        /* \"study/chapter05/back.sol\":468:561  function getBalance()external view returns(uint){... */\n    tag_3:\n      callvalue\n      dup1\n      iszero\n      tag_8\n      jumpi\n      0x00\n      dup1\n      revert\n    tag_8:\n      pop\n      tag_9\n      tag_10\n      jump\t// in\n    tag_9:\n      mload(0x40)\n      tag_11\n      swap2\n      swap1\n      tag_12\n      jump\t// in\n    tag_11:\n      mload(0x40)\n      dup1\n      swap2\n      sub\n      swap1\n      return\n    tag_10:\n        /* \"study/chapter05/back.sol\":511:515  uint */\n      0x00\n        /* \"study/chapter05/back.sol\":533:554  address(this).balance */\n      selfbalance\n        /* \"study/chapter05/back.sol\":526:554  return address(this).balance */\n      swap1\n      pop\n        /* \"study/chapter05/back.sol\":468:561  function getBalance()external view returns(uint){... */\n      swap1\n      jump\t// out\n        /* \"#utility.yul\":7:125   */\n    tag_15:\n        /* \"#utility.yul\":94:118   */\n      tag_17\n        /* \"#utility.yul\":112:117   */\n      dup2\n        /* \"#utility.yul\":94:118   */\n      tag_18\n      jump\t// in\n    tag_17:\n        /* \"#utility.yul\":89:92   */\n      dup3\n        /* \"#utility.yul\":82:119   */\n      mstore\n        /* \"#utility.yul\":7:125   */\n      pop\n      pop\n      jump\t// out\n        /* \"#utility.yul\":131:493   */\n    tag_19:\n        /* \"#utility.yul\":272:275   */\n      0x00\n        /* \"#utility.yul\":293:358   */\n      tag_21\n        /* \"#utility.yul\":356:357   */\n      0x00\n        /* \"#utility.yul\":351:354   */\n      dup4\n        /* \"#utility.yul\":293:358   */\n      tag_22\n      jump\t// in\n    tag_21:\n        /* \"#utility.yul\":286:358   */\n      swap2\n      pop\n        /* \"#utility.yul\":367:460   */\n      tag_23\n        /* \"#utility.yul\":456:459   */\n      dup3\n        /* \"#utility.yul\":367:460   */\n      tag_24\n      jump\t// in\n    tag_23:\n        /* \"#utility.yul\":485:486   */\n      0x00\n        /* \"#utility.yul\":480:483   */\n      dup3\n        /* \"#utility.yul\":476:487   */\n      add\n        /* \"#utility.yul\":469:487   */\n      swap1\n      pop\n        /* \"#utility.yul\":131:493   */\n      swap2\n      swap1\n      pop\n      jump\t// out\n        /* \"#utility.yul\":499:864   */\n    tag_25:\n        /* \"#utility.yul\":641:644   */\n      0x00\n        /* \"#utility.yul\":662:728   */\n      tag_27\n        /* \"#utility.yul\":726:727   */\n      0x07\n        /* \"#utility.yul\":721:724   */\n      dup4\n        /* \"#utility.yul\":662:728   */\n      tag_28\n      jump\t// in\n    tag_27:\n        /* \"#utility.yul\":655:728   */\n      swap2\n      pop\n        /* \"#utility.yul\":737:830   */\n      tag_29\n        /* \"#utility.yul\":826:829   */\n      dup3\n        /* \"#utility.yul\":737:830   */\n      tag_30\n      jump\t// in\n    tag_29:\n        /* \"#utility.yul\":855:857   */\n      0x20\n        /* \"#utility.yul\":850:853   */\n      dup3\n        /* \"#utility.yul\":846:858   */\n      add\n        /* \"#utility.yul\":839:858   */\n      swap1\n      pop\n        /* \"#utility.yul\":499:864   */\n      swap2\n      swap1\n      pop\n      jump\t// out\n        /* \"#utility.yul\":870:988   */\n    tag_31:\n        /* \"#utility.yul\":957:981   */\n      tag_33\n        /* \"#utility.yul\":975:980   */\n      dup2\n        /* \"#utility.yul\":957:981   */\n      tag_34\n      jump\t// in\n    tag_33:\n        /* \"#utility.yul\":952:955   */\n      dup3\n        /* \"#utility.yul\":945:982   */\n      mstore\n        /* \"#utility.yul\":870:988   */\n      pop\n      pop\n      jump\t// out\n        /* \"#utility.yul\":994:1939   */\n    tag_7:\n        /* \"#utility.yul\":1316:1320   */\n      0x00\n        /* \"#utility.yul\":1354:1357   */\n      0x80\n        /* \"#utility.yul\":1343:1352   */\n      dup3\n        /* \"#utility.yul\":1339:1358   */\n      add\n        /* \"#utility.yul\":1331:1358   */\n      swap1\n      pop\n        /* \"#utility.yul\":1404:1413   */\n      dup2\n        /* \"#utility.yul\":1398:1402   */\n      dup2\n        /* \"#utility.yul\":1394:1414   */\n      sub\n        /* \"#utility.yul\":1390:1391   */\n      0x00\n        /* \"#utility.yul\":1379:1388   */\n      dup4\n        /* \"#utility.yul\":1375:1392   */\n      add\n        /* \"#utility.yul\":1368:1415   */\n      mstore\n        /* \"#utility.yul\":1432:1563   */\n      tag_36\n        /* \"#utility.yul\":1558:1562   */\n      dup2\n        /* \"#utility.yul\":1432:1563   */\n      tag_25\n      jump\t// in\n    tag_36:\n        /* \"#utility.yul\":1424:1563   */\n      swap1\n      pop\n        /* \"#utility.yul\":1573:1645   */\n      tag_37\n        /* \"#utility.yul\":1641:1643   */\n      0x20\n        /* \"#utility.yul\":1630:1639   */\n      dup4\n        /* \"#utility.yul\":1626:1644   */\n      add\n        /* \"#utility.yul\":1617:1623   */\n      dup6\n        /* \"#utility.yul\":1573:1645   */\n      tag_15\n      jump\t// in\n    tag_37:\n        /* \"#utility.yul\":1655:1727   */\n      tag_38\n        /* \"#utility.yul\":1723:1725   */\n      0x40\n        /* \"#utility.yul\":1712:1721   */\n      dup4\n        /* \"#utility.yul\":1708:1726   */\n      add\n        /* \"#utility.yul\":1699:1705   */\n      dup5\n        /* \"#utility.yul\":1655:1727   */\n      tag_31\n      jump\t// in\n    tag_38:\n        /* \"#utility.yul\":1774:1783   */\n      dup2\n        /* \"#utility.yul\":1768:1772   */\n      dup2\n        /* \"#utility.yul\":1764:1784   */\n      sub\n        /* \"#utility.yul\":1759:1761   */\n      0x60\n        /* \"#utility.yul\":1748:1757   */\n      dup4\n        /* \"#utility.yul\":1744:1762   */\n      add\n        /* \"#utility.yul\":1737:1785   */\n      mstore\n        /* \"#utility.yul\":1802:1932   */\n      tag_39\n        /* \"#utility.yul\":1927:1931   */\n      dup2\n        /* \"#utility.yul\":1802:1932   */\n      tag_19\n      jump\t// in\n    tag_39:\n        /* \"#utility.yul\":1794:1932   */\n      swap1\n      pop\n        /* \"#utility.yul\":994:1939   */\n      swap4\n      swap3\n      pop\n      pop\n      pop\n      jump\t// out\n        /* \"#utility.yul\":1945:2167   */\n    tag_12:\n        /* \"#utility.yul\":2038:2042   */\n      0x00\n        /* \"#utility.yul\":2076:2078   */\n      0x20\n        /* \"#utility.yul\":2065:2074   */\n      dup3\n        /* \"#utility.yul\":2061:2079   */\n      add\n        /* \"#utility.yul\":2053:2079   */\n      swap1\n      pop\n        /* \"#utility.yul\":2089:2160   */\n      tag_41\n        /* \"#utility.yul\":2157:2158   */\n      0x00\n        /* \"#utility.yul\":2146:2155   */\n      dup4\n        /* \"#utility.yul\":2142:2159   */\n      add\n        /* \"#utility.yul\":2133:2139   */\n      dup5\n        /* \"#utility.yul\":2089:2160   */\n      tag_31\n      jump\t// in\n    tag_41:\n        /* \"#utility.yul\":1945:2167   */\n      swap3\n      swap2\n      pop\n      pop\n      jump\t// out\n        /* \"#utility.yul\":2173:2341   */\n    tag_22:\n        /* \"#utility.yul\":2256:2267   */\n      0x00\n        /* \"#utility.yul\":2290:2296   */\n      dup3\n        /* \"#utility.yul\":2285:2288   */\n      dup3\n        /* \"#utility.yul\":2278:2297   */\n      mstore\n        /* \"#utility.yul\":2330:2334   */\n      0x20\n        /* \"#utility.yul\":2325:2328   */\n      dup3\n        /* \"#utility.yul\":2321:2335   */\n      add\n        /* \"#utility.yul\":2306:2335   */\n      swap1\n      pop\n        /* \"#utility.yul\":2173:2341   */\n      swap3\n      swap2\n      pop\n      pop\n      jump\t// out\n        /* \"#utility.yul\":2347:2516   */\n    tag_28:\n        /* \"#utility.yul\":2431:2442   */\n      0x00\n        /* \"#utility.yul\":2465:2471   */\n      dup3\n        /* \"#utility.yul\":2460:2463   */\n      dup3\n        /* \"#utility.yul\":2453:2472   */\n      mstore\n        /* \"#utility.yul\":2505:2509   */\n      0x20\n        /* \"#utility.yul\":2500:2503   */\n      dup3\n        /* \"#utility.yul\":2496:2510   */\n      add\n        /* \"#utility.yul\":2481:2510   */\n      swap1\n      pop\n        /* \"#utility.yul\":2347:2516   */\n      swap3\n      swap2\n      pop\n      pop\n      jump\t// out\n        /* \"#utility.yul\":2522:2618   */\n    tag_18:\n        /* \"#utility.yul\":2559:2566   */\n      0x00\n        /* \"#utility.yul\":2588:2612   */\n      tag_45\n        /* \"#utility.yul\":2606:2611   */\n      dup3\n        /* \"#utility.yul\":2588:2612   */\n      tag_46\n      jump\t// in\n    tag_45:\n        /* \"#utility.yul\":2577:2612   */\n      swap1\n      pop\n        /* \"#utility.yul\":2522:2618   */\n      swap2\n      swap1\n      pop\n      jump\t// out\n        /* \"#utility.yul\":2624:2750   */\n    tag_46:\n        /* \"#utility.yul\":2661:2668   */\n      0x00\n        /* \"#utility.yul\":2701:2743   */\n      0xffffffffffffffffffffffffffffffffffffffff\n        /* \"#utility.yul\":2694:2699   */\n      dup3\n        /* \"#utility.yul\":2690:2744   */\n      and\n        /* \"#utility.yul\":2679:2744   */\n      swap1\n      pop\n        /* \"#utility.yul\":2624:2750   */\n      swap2\n      swap1\n      pop\n      jump\t// out\n        /* \"#utility.yul\":2756:2833   */\n    tag_34:\n        /* \"#utility.yul\":2793:2800   */\n      0x00\n        /* \"#utility.yul\":2822:2827   */\n      dup2\n        /* \"#utility.yul\":2811:2827   */\n      swap1\n      pop\n        /* \"#utility.yul\":2756:2833   */\n      swap2\n      swap1\n      pop\n      jump\t// out\n        /* \"#utility.yul\":2839:2953   */\n    tag_24:\n      pop\n      jump\t// out\n        /* \"#utility.yul\":2959:3116   */\n    tag_30:\n        /* \"#utility.yul\":3099:3108   */\n      0x7265636569766500000000000000000000000000000000000000000000000000\n        /* \"#utility.yul\":3095:3096   */\n      0x00\n        /* \"#utility.yul\":3087:3093   */\n      dup3\n        /* \"#utility.yul\":3083:3097   */\n      add\n        /* \"#utility.yul\":3076:3109   */\n      mstore\n        /* \"#utility.yul\":2959:3116   */\n      pop\n      jump\t// out\n\n    auxdata: 0xa26469706673582212205fd43cb98a7c041a89f2be6ad900067adf32c36d720a893900686066a1bca7de64736f6c63430008070033\n}\n",
				"bytecode": {
					"linkReferences": {},
					"object": "608060405234801561001057600080fd5b50610228806100206000396000f3fe6080604052600436106100225760003560e01c806312065fe01461006757610062565b36610062577ff7f75251dee7d7fc22deac3247729ebe7c86541f35930bf10c2a4207479a3b6c33346040516100589291906100fe565b60405180910390a1005b600080fd5b34801561007357600080fd5b5061007c610092565b604051610089919061014d565b60405180910390f35b600047905090565b6100a38161018a565b82525050565b60006100b6600083610168565b91506100c1826101c6565b600082019050919050565b60006100d9600783610179565b91506100e4826101c9565b602082019050919050565b6100f8816101bc565b82525050565b60006080820190508181036000830152610117816100cc565b9050610126602083018561009a565b61013360408301846100ef565b8181036060830152610144816100a9565b90509392505050565b600060208201905061016260008301846100ef565b92915050565b600082825260208201905092915050565b600082825260208201905092915050565b60006101958261019c565b9050919050565b600073ffffffffffffffffffffffffffffffffffffffff82169050919050565b6000819050919050565b50565b7f726563656976650000000000000000000000000000000000000000000000000060008201525056fea26469706673582212205fd43cb98a7c041a89f2be6ad900067adf32c36d720a893900686066a1bca7de64736f6c63430008070033",
					"opcodes": "PUSH1 0x80 PUSH1 0x40 MSTORE CALLVALUE DUP1 ISZERO PUSH2 0x10 JUMPI PUSH1 0x0 DUP1 REVERT JUMPDEST POP PUSH2 0x228 DUP1 PUSH2 0x20 PUSH1 0x0 CODECOPY PUSH1 0x0 RETURN INVALID PUSH1 0x80 PUSH1 0x40 MSTORE PUSH1 0x4 CALLDATASIZE LT PUSH2 0x22 JUMPI PUSH1 0x0 CALLDATALOAD PUSH1 0xE0 SHR DUP1 PUSH4 0x12065FE0 EQ PUSH2 0x67 JUMPI PUSH2 0x62 JUMP JUMPDEST CALLDATASIZE PUSH2 0x62 JUMPI PUSH32 0xF7F75251DEE7D7FC22DEAC3247729EBE7C86541F35930BF10C2A4207479A3B6C CALLER CALLVALUE PUSH1 0x40 MLOAD PUSH2 0x58 SWAP3 SWAP2 SWAP1 PUSH2 0xFE JUMP JUMPDEST PUSH1 0x40 MLOAD DUP1 SWAP2 SUB SWAP1 LOG1 STOP JUMPDEST PUSH1 0x0 DUP1 REVERT JUMPDEST CALLVALUE DUP1 ISZERO PUSH2 0x73 JUMPI PUSH1 0x0 DUP1 REVERT JUMPDEST POP PUSH2 0x7C PUSH2 0x92 JUMP JUMPDEST PUSH1 0x40 MLOAD PUSH2 0x89 SWAP2 SWAP1 PUSH2 0x14D JUMP JUMPDEST PUSH1 0x40 MLOAD DUP1 SWAP2 SUB SWAP1 RETURN JUMPDEST PUSH1 0x0 SELFBALANCE SWAP1 POP SWAP1 JUMP JUMPDEST PUSH2 0xA3 DUP2 PUSH2 0x18A JUMP JUMPDEST DUP3 MSTORE POP POP JUMP JUMPDEST PUSH1 0x0 PUSH2 0xB6 PUSH1 0x0 DUP4 PUSH2 0x168 JUMP JUMPDEST SWAP2 POP PUSH2 0xC1 DUP3 PUSH2 0x1C6 JUMP JUMPDEST PUSH1 0x0 DUP3 ADD SWAP1 POP SWAP2 SWAP1 POP JUMP JUMPDEST PUSH1 0x0 PUSH2 0xD9 PUSH1 0x7 DUP4 PUSH2 0x179 JUMP JUMPDEST SWAP2 POP PUSH2 0xE4 DUP3 PUSH2 0x1C9 JUMP JUMPDEST PUSH1 0x20 DUP3 ADD SWAP1 POP SWAP2 SWAP1 POP JUMP JUMPDEST PUSH2 0xF8 DUP2 PUSH2 0x1BC JUMP JUMPDEST DUP3 MSTORE POP POP JUMP JUMPDEST PUSH1 0x0 PUSH1 0x80 DUP3 ADD SWAP1 POP DUP2 DUP2 SUB PUSH1 0x0 DUP4 ADD MSTORE PUSH2 0x117 DUP2 PUSH2 0xCC JUMP JUMPDEST SWAP1 POP PUSH2 0x126 PUSH1 0x20 DUP4 ADD DUP6 PUSH2 0x9A JUMP JUMPDEST PUSH2 0x133 PUSH1 0x40 DUP4 ADD DUP5 PUSH2 0xEF JUMP JUMPDEST DUP2 DUP2 SUB PUSH1 0x60 DUP4 ADD MSTORE PUSH2 0x144 DUP2 PUSH2 0xA9 JUMP JUMPDEST SWAP1 POP SWAP4 SWAP3 POP POP POP JUMP JUMPDEST PUSH1 0x0 PUSH1 0x20 DUP3 ADD SWAP1 POP PUSH2 0x162 PUSH1 0x0 DUP4 ADD DUP5 PUSH2 0xEF JUMP JUMPDEST SWAP3 SWAP2 POP POP JUMP JUMPDEST PUSH1 0x0 DUP3 DUP3 MSTORE PUSH1 0x20 DUP3 ADD SWAP1 POP SWAP3 SWAP2 POP POP JUMP JUMPDEST PUSH1 0x0 DUP3 DUP3 MSTORE PUSH1 0x20 DUP3 ADD SWAP1 POP SWAP3 SWAP2 POP POP JUMP JUMPDEST PUSH1 0x0 PUSH2 0x195 DUP3 PUSH2 0x19C JUMP JUMPDEST SWAP1 POP SWAP2 SWAP1 POP JUMP JUMPDEST PUSH1 0x0 PUSH20 0xFFFFFFFFFFFFFFFFFFFFFFFFFFFFFFFFFFFFFFFF DUP3 AND SWAP1 POP SWAP2 SWAP1 POP JUMP JUMPDEST PUSH1 0x0 DUP2 SWAP1 POP SWAP2 SWAP1 POP JUMP JUMPDEST POP JUMP JUMPDEST PUSH32 0x7265636569766500000000000000000000000000000000000000000000000000 PUSH1 0x0 DUP3 ADD MSTORE POP JUMP INVALID LOG2 PUSH5 0x6970667358 0x22 SLT KECCAK256 0x5F 0xD4 EXTCODECOPY 0xB9 DUP11 PUSH29 0x41A89F2BE6AD900067ADF32C36D720A893900686066A1BCA7DE64736F PUSH13 0x63430008070033000000000000 "
				},
				"gasEstimates": {
					"creation": {
						"codeDepositCost": "110400",
						"executionCost": "159",
						"totalCost": "110559"
					},
					"external": {
						"getBalance()": "317"
					}
				},
				"methodIdentifiers": {
					"getBalance()": "12065fe0"
				}
			},
			"storageLayout": {
				"storage": [],
				"types": null
			},
			"userdoc": {
				"kind": "user",
				"methods": {},
				"version": 1
			}
		}
	}
}