{
	"study/chapter04/8returns.sol": {
		"testReturn": {
			"abi": [
				{
					"inputs": [],
					"name": "assigned",
					"outputs": [
						{
							"internalType": "uint256",
							"name": "x",
							"type": "uint256"
						},
						{
							"internalType": "bool",
							"name": "b",
							"type": "bool"
						}
					],
					"stateMutability": "pure",
					"type": "function"
				},
				{
					"inputs": [],
					"name": "named",
					"outputs": [
						{
							"internalType": "uint256",
							"name": "x",
							"type": "uint256"
						},
						{
							"internalType": "bool",
							"name": "b",
							"type": "bool"
						}
					],
					"stateMutability": "pure",
					"type": "function"
				},
				{
					"inputs": [],
					"name": "returnMany",
					"outputs": [
						{
							"internalType": "uint256",
							"name": "",
							"type": "uint256"
						},
						{
							"internalType": "bool",
							"name": "",
							"type": "bool"
						}
					],
					"stateMutability": "pure",
					"type": "function"
				},
				{
					"inputs": [],
					"name": "useReturn",
					"outputs": [],
					"stateMutability": "pure",
					"type": "function"
				}
			],
			"devdoc": {
				"kind": "dev",
				"methods": {},
				"version": 1
			},
			"evm": {
				"assembly": "    /* \"study/chapter04/8returns.sol\":54:564  contract testReturn{... */\n  mstore(0x40, 0x80)\n  callvalue\n  dup1\n  iszero\n  tag_1\n  jumpi\n  0x00\n  dup1\n  revert\ntag_1:\n  pop\n  dataSize(sub_0)\n  dup1\n  dataOffset(sub_0)\n  0x00\n  codecopy\n  0x00\n  return\nstop\n\nsub_0: assembly {\n        /* \"study/chapter04/8returns.sol\":54:564  contract testReturn{... */\n      mstore(0x40, 0x80)\n      callvalue\n      dup1\n      iszero\n      tag_1\n      jumpi\n      0x00\n      dup1\n      revert\n    tag_1:\n      pop\n      jumpi(tag_2, lt(calldatasize, 0x04))\n      shr(0xe0, calldataload(0x00))\n      dup1\n      0x45f907a8\n      eq\n      tag_3\n      jumpi\n      dup1\n      0x50e7443f\n      eq\n      tag_4\n      jumpi\n      dup1\n      0x86887544\n      eq\n      tag_5\n      jumpi\n      dup1\n      0xadb4d990\n      eq\n      tag_6\n      jumpi\n    tag_2:\n      0x00\n      dup1\n      revert\n        /* \"study/chapter04/8returns.sol\":171:252  function named()public pure returns(uint x,bool b){... */\n    tag_3:\n      tag_7\n      tag_8\n      jump\t// in\n    tag_7:\n      mload(0x40)\n      tag_9\n      swap3\n      swap2\n      swap1\n      tag_10\n      jump\t// in\n    tag_9:\n      mload(0x40)\n      dup1\n      swap2\n      sub\n      swap1\n      return\n        /* \"study/chapter04/8returns.sol\":419:562  function useReturn()external pure{... */\n    tag_4:\n      tag_11\n      tag_12\n      jump\t// in\n    tag_11:\n      stop\n        /* \"study/chapter04/8returns.sol\":80:166  function returnMany()public pure returns(uint,bool){... */\n    tag_5:\n      tag_13\n      tag_14\n      jump\t// in\n    tag_13:\n      mload(0x40)\n      tag_15\n      swap3\n      swap2\n      swap1\n      tag_10\n      jump\t// in\n    tag_15:\n      mload(0x40)\n      dup1\n      swap2\n      sub\n      swap1\n      return\n        /* \"study/chapter04/8returns.sol\":325:414  function assigned()public pure returns(uint x,bool b){... */\n    tag_6:\n      tag_16\n      tag_17\n      jump\t// in\n    tag_16:\n      mload(0x40)\n      tag_18\n      swap3\n      swap2\n      swap1\n      tag_10\n      jump\t// in\n    tag_18:\n      mload(0x40)\n      dup1\n      swap2\n      sub\n      swap1\n      return\n        /* \"study/chapter04/8returns.sol\":171:252  function named()public pure returns(uint x,bool b){... */\n    tag_8:\n        /* \"study/chapter04/8returns.sol\":207:213  uint x */\n      0x00\n        /* \"study/chapter04/8returns.sol\":214:220  bool b */\n      dup1\n        /* \"study/chapter04/8returns.sol\":238:239  1 */\n      0x01\n        /* \"study/chapter04/8returns.sol\":240:244  true */\n      dup1\n        /* \"study/chapter04/8returns.sol\":231:245  return(1,true) */\n      swap2\n      pop\n      swap2\n      pop\n        /* \"study/chapter04/8returns.sol\":171:252  function named()public pure returns(uint x,bool b){... */\n      swap1\n      swap2\n      jump\t// out\n        /* \"study/chapter04/8returns.sol\":419:562  function useReturn()external pure{... */\n    tag_12:\n        /* \"study/chapter04/8returns.sol\":463:470  uint _x */\n      0x00\n        /* \"study/chapter04/8returns.sol\":471:478  bool _b */\n      dup1\n        /* \"study/chapter04/8returns.sol\":482:494  returnMany() */\n      tag_21\n        /* \"study/chapter04/8returns.sol\":482:492  returnMany */\n      tag_14\n        /* \"study/chapter04/8returns.sol\":482:494  returnMany() */\n      jump\t// in\n    tag_21:\n        /* \"study/chapter04/8returns.sol\":462:494  (uint _x,bool _b) = returnMany() */\n      swap2\n      pop\n      swap2\n      pop\n        /* \"study/chapter04/8returns.sol\":506:513  bool _c */\n      0x00\n        /* \"study/chapter04/8returns.sol\":517:529  returnMany() */\n      tag_22\n        /* \"study/chapter04/8returns.sol\":517:527  returnMany */\n      tag_14\n        /* \"study/chapter04/8returns.sol\":517:529  returnMany() */\n      jump\t// in\n    tag_22:\n        /* \"study/chapter04/8returns.sol\":504:529  (,bool _c) = returnMany() */\n      swap2\n      pop\n      pop\n        /* \"study/chapter04/8returns.sol\":452:562  {... */\n      pop\n      pop\n      pop\n        /* \"study/chapter04/8returns.sol\":419:562  function useReturn()external pure{... */\n      jump\t// out\n        /* \"study/chapter04/8returns.sol\":80:166  function returnMany()public pure returns(uint,bool){... */\n    tag_14:\n        /* \"study/chapter04/8returns.sol\":121:125  uint */\n      0x00\n        /* \"study/chapter04/8returns.sol\":126:130  bool */\n      dup1\n        /* \"study/chapter04/8returns.sol\":149:150  1 */\n      0x01\n        /* \"study/chapter04/8returns.sol\":151:155  true */\n      dup1\n        /* \"study/chapter04/8returns.sol\":141:156  return (1,true) */\n      swap2\n      pop\n      swap2\n      pop\n        /* \"study/chapter04/8returns.sol\":80:166  function returnMany()public pure returns(uint,bool){... */\n      swap1\n      swap2\n      jump\t// out\n        /* \"study/chapter04/8returns.sol\":325:414  function assigned()public pure returns(uint x,bool b){... */\n    tag_17:\n        /* \"study/chapter04/8returns.sol\":364:370  uint x */\n      0x00\n        /* \"study/chapter04/8returns.sol\":371:377  bool b */\n      dup1\n        /* \"study/chapter04/8returns.sol\":390:391  1 */\n      0x01\n        /* \"study/chapter04/8returns.sol\":388:391  x=1 */\n      swap2\n      pop\n        /* \"study/chapter04/8returns.sol\":403:407  true */\n      0x01\n        /* \"study/chapter04/8returns.sol\":401:407  b=true */\n      swap1\n      pop\n        /* \"study/chapter04/8returns.sol\":325:414  function assigned()public pure returns(uint x,bool b){... */\n      swap1\n      swap2\n      jump\t// out\n        /* \"#utility.yul\":7:116   */\n    tag_26:\n        /* \"#utility.yul\":88:109   */\n      tag_28\n        /* \"#utility.yul\":103:108   */\n      dup2\n        /* \"#utility.yul\":88:109   */\n      tag_29\n      jump\t// in\n    tag_28:\n        /* \"#utility.yul\":83:86   */\n      dup3\n        /* \"#utility.yul\":76:110   */\n      mstore\n        /* \"#utility.yul\":7:116   */\n      pop\n      pop\n      jump\t// out\n        /* \"#utility.yul\":122:240   */\n    tag_30:\n        /* \"#utility.yul\":209:233   */\n      tag_32\n        /* \"#utility.yul\":227:232   */\n      dup2\n        /* \"#utility.yul\":209:233   */\n      tag_33\n      jump\t// in\n    tag_32:\n        /* \"#utility.yul\":204:207   */\n      dup3\n        /* \"#utility.yul\":197:234   */\n      mstore\n        /* \"#utility.yul\":122:240   */\n      pop\n      pop\n      jump\t// out\n        /* \"#utility.yul\":246:566   */\n    tag_10:\n        /* \"#utility.yul\":361:365   */\n      0x00\n        /* \"#utility.yul\":399:401   */\n      0x40\n        /* \"#utility.yul\":388:397   */\n      dup3\n        /* \"#utility.yul\":384:402   */\n      add\n        /* \"#utility.yul\":376:402   */\n      swap1\n      pop\n        /* \"#utility.yul\":412:483   */\n      tag_35\n        /* \"#utility.yul\":480:481   */\n      0x00\n        /* \"#utility.yul\":469:478   */\n      dup4\n        /* \"#utility.yul\":465:482   */\n      add\n        /* \"#utility.yul\":456:462   */\n      dup6\n        /* \"#utility.yul\":412:483   */\n      tag_30\n      jump\t// in\n    tag_35:\n        /* \"#utility.yul\":493:559   */\n      tag_36\n        /* \"#utility.yul\":555:557   */\n      0x20\n        /* \"#utility.yul\":544:553   */\n      dup4\n        /* \"#utility.yul\":540:558   */\n      add\n        /* \"#utility.yul\":531:537   */\n      dup5\n        /* \"#utility.yul\":493:559   */\n      tag_26\n      jump\t// in\n    tag_36:\n        /* \"#utility.yul\":246:566   */\n      swap4\n      swap3\n      pop\n      pop\n      pop\n      jump\t// out\n        /* \"#utility.yul\":572:662   */\n    tag_29:\n        /* \"#utility.yul\":606:613   */\n      0x00\n        /* \"#utility.yul\":649:654   */\n      dup2\n        /* \"#utility.yul\":642:655   */\n      iszero\n        /* \"#utility.yul\":635:656   */\n      iszero\n        /* \"#utility.yul\":624:656   */\n      swap1\n      pop\n        /* \"#utility.yul\":572:662   */\n      swap2\n      swap1\n      pop\n      jump\t// out\n        /* \"#utility.yul\":668:745   */\n    tag_33:\n        /* \"#utility.yul\":705:712   */\n      0x00\n        /* \"#utility.yul\":734:739   */\n      dup2\n        /* \"#utility.yul\":723:739   */\n      swap1\n      pop\n        /* \"#utility.yul\":668:745   */\n      swap2\n      swap1\n      pop\n      jump\t// out\n\n    auxdata: 0xa2646970667358221220e48e9c8b766966375dd127a14eb8d173760fee8e002c15d451de3c2794f682f664736f6c63430008070033\n}\n",
				"bytecode": {
					"linkReferences": {},
					"object": "608060405234801561001057600080fd5b50610197806100206000396000f3fe608060405234801561001057600080fd5b506004361061004c5760003560e01c806345f907a81461005157806350e7443f14610070578063868875441461007a578063adb4d99014610099575b600080fd5b6100596100b8565b604051610067929190610122565b60405180910390f35b6100786100c6565b005b6100826100e7565b604051610090929190610122565b60405180910390f35b6100a16100f5565b6040516100af929190610122565b60405180910390f35b600080600180915091509091565b6000806100d16100e7565b9150915060006100df6100e7565b915050505050565b600080600180915091509091565b60008060019150600190509091565b61010d8161014b565b82525050565b61011c81610157565b82525050565b60006040820190506101376000830185610113565b6101446020830184610104565b9392505050565b60008115159050919050565b600081905091905056fea2646970667358221220e48e9c8b766966375dd127a14eb8d173760fee8e002c15d451de3c2794f682f664736f6c63430008070033",
					"opcodes": "PUSH1 0x80 PUSH1 0x40 MSTORE CALLVALUE DUP1 ISZERO PUSH2 0x10 JUMPI PUSH1 0x0 DUP1 REVERT JUMPDEST POP PUSH2 0x197 DUP1 PUSH2 0x20 PUSH1 0x0 CODECOPY PUSH1 0x0 RETURN INVALID PUSH1 0x80 PUSH1 0x40 MSTORE CALLVALUE DUP1 ISZERO PUSH2 0x10 JUMPI PUSH1 0x0 DUP1 REVERT JUMPDEST POP PUSH1 0x4 CALLDATASIZE LT PUSH2 0x4C JUMPI PUSH1 0x0 CALLDATALOAD PUSH1 0xE0 SHR DUP1 PUSH4 0x45F907A8 EQ PUSH2 0x51 JUMPI DUP1 PUSH4 0x50E7443F EQ PUSH2 0x70 JUMPI DUP1 PUSH4 0x86887544 EQ PUSH2 0x7A JUMPI DUP1 PUSH4 0xADB4D990 EQ PUSH2 0x99 JUMPI JUMPDEST PUSH1 0x0 DUP1 REVERT JUMPDEST PUSH2 0x59 PUSH2 0xB8 JUMP JUMPDEST PUSH1 0x40 MLOAD PUSH2 0x67 SWAP3 SWAP2 SWAP1 PUSH2 0x122 JUMP JUMPDEST PUSH1 0x40 MLOAD DUP1 SWAP2 SUB SWAP1 RETURN JUMPDEST PUSH2 0x78 PUSH2 0xC6 JUMP JUMPDEST STOP JUMPDEST PUSH2 0x82 PUSH2 0xE7 JUMP JUMPDEST PUSH1 0x40 MLOAD PUSH2 0x90 SWAP3 SWAP2 SWAP1 PUSH2 0x122 JUMP JUMPDEST PUSH1 0x40 MLOAD DUP1 SWAP2 SUB SWAP1 RETURN JUMPDEST PUSH2 0xA1 PUSH2 0xF5 JUMP JUMPDEST PUSH1 0x40 MLOAD PUSH2 0xAF SWAP3 SWAP2 SWAP1 PUSH2 0x122 JUMP JUMPDEST PUSH1 0x40 MLOAD DUP1 SWAP2 SUB SWAP1 RETURN JUMPDEST PUSH1 0x0 DUP1 PUSH1 0x1 DUP1 SWAP2 POP SWAP2 POP SWAP1 SWAP2 JUMP JUMPDEST PUSH1 0x0 DUP1 PUSH2 0xD1 PUSH2 0xE7 JUMP JUMPDEST SWAP2 POP SWAP2 POP PUSH1 0x0 PUSH2 0xDF PUSH2 0xE7 JUMP JUMPDEST SWAP2 POP POP POP POP POP JUMP JUMPDEST PUSH1 0x0 DUP1 PUSH1 0x1 DUP1 SWAP2 POP SWAP2 POP SWAP1 SWAP2 JUMP JUMPDEST PUSH1 0x0 DUP1 PUSH1 0x1 SWAP2 POP PUSH1 0x1 SWAP1 POP SWAP1 SWAP2 JUMP JUMPDEST PUSH2 0x10D DUP2 PUSH2 0x14B JUMP JUMPDEST DUP3 MSTORE POP POP JUMP JUMPDEST PUSH2 0x11C DUP2 PUSH2 0x157 JUMP JUMPDEST DUP3 MSTORE POP POP JUMP JUMPDEST PUSH1 0x0 PUSH1 0x40 DUP3 ADD SWAP1 POP PUSH2 0x137 PUSH1 0x0 DUP4 ADD DUP6 PUSH2 0x113 JUMP JUMPDEST PUSH2 0x144 PUSH1 0x20 DUP4 ADD DUP5 PUSH2 0x104 JUMP JUMPDEST SWAP4 SWAP3 POP POP POP JUMP JUMPDEST PUSH1 0x0 DUP2 ISZERO ISZERO SWAP1 POP SWAP2 SWAP1 POP JUMP JUMPDEST PUSH1 0x0 DUP2 SWAP1 POP SWAP2 SWAP1 POP JUMP INVALID LOG2 PUSH5 0x6970667358 0x22 SLT KECCAK256 0xE4 DUP15 SWAP13 DUP12 PUSH23 0x6966375DD127A14EB8D173760FEE8E002C15D451DE3C27 SWAP5 0xF6 DUP3 0xF6 PUSH5 0x736F6C6343 STOP ADDMOD SMOD STOP CALLER "
				},
				"gasEstimates": {
					"creation": {
						"codeDepositCost": "81400",
						"executionCost": "129",
						"totalCost": "81529"
					},
					"external": {
						"assigned()": "501",
						"named()": "435",
						"returnMany()": "479",
						"useReturn()": "infinite"
					}
				},
				"methodIdentifiers": {
					"assigned()": "adb4d990",
					"named()": "45f907a8",
					"returnMany()": "86887544",
					"useReturn()": "50e7443f"
				}
			},
			"storageLayout": {
				"storage": [],
				"types": null
			},
			"userdoc": {
				"kind": "user",
				"methods": {},
				"version": 1
			}
		}
	}
}