{
	"study/chapter05/back.sol": {
		"back": {
			"abi": [
				{
					"anonymous": false,
					"inputs": [
						{
							"indexed": false,
							"internalType": "string",
							"name": "func",
							"type": "string"
						},
						{
							"indexed": false,
							"internalType": "address",
							"name": "sender",
							"type": "address"
						},
						{
							"indexed": false,
							"internalType": "uint256",
							"name": "value",
							"type": "uint256"
						}
					],
					"name": "Log",
					"type": "event"
				},
				{
					"stateMutability": "payable",
					"type": "fallback"
				},
				{
					"inputs": [],
					"name": "getBalance",
					"outputs": [
						{
							"internalType": "uint256",
							"name": "",
							"type": "uint256"
						}
					],
					"stateMutability": "view",
					"type": "function"
				},
				{
					"stateMutability": "payable",
					"type": "receive"
				}
			],
			"devdoc": {
				"kind": "dev",
				"methods": {},
				"version": 1
			},
			"evm": {
				"assembly": "    /* \"study/chapter05/back.sol\":54:471  contract back{... */\n  mstore(0x40, 0x80)\n  callvalue\n  dup1\n  iszero\n  tag_1\n  jumpi\n  0x00\n  dup1\n  revert\ntag_1:\n  pop\n  dataSize(sub_0)\n  dup1\n  dataOffset(sub_0)\n  0x00\n  codecopy\n  0x00\n  return\nstop\n\nsub_0: assembly {\n        /* \"study/chapter05/back.sol\":54:471  contract back{... */\n      mstore(0x40, 0x80)\n      jumpi(tag_1, lt(calldatasize, 0x04))\n      shr(0xe0, calldataload(0x00))\n      dup1\n      0x12065fe0\n      eq\n      tag_3\n      jumpi\n      jump(tag_2)\n    tag_1:\n      jumpi(tag_2, calldatasize)\n        /* \"study/chapter05/back.sol\":328:363  Log(\"receive\",msg.sender,msg.value) */\n      0x31f37e75fc861191c989b3f8011596a4c0dd2bd2b255a7072a7d94fdb895a724\n        /* \"study/chapter05/back.sol\":342:352  msg.sender */\n      caller\n        /* \"study/chapter05/back.sol\":353:362  msg.value */\n      callvalue\n        /* \"study/chapter05/back.sol\":328:363  Log(\"receive\",msg.sender,msg.value) */\n      mload(0x40)\n      tag_6\n      swap3\n      swap2\n      swap1\n      tag_7\n      jump\t// in\n    tag_6:\n      mload(0x40)\n      dup1\n      swap2\n      sub\n      swap1\n      log1\n        /* \"study/chapter05/back.sol\":54:471  contract back{... */\n      stop\n    tag_2:\n        /* \"study/chapter05/back.sol\":205:241  Log(\"fallback\",msg.sender,msg.value) */\n      0x31f37e75fc861191c989b3f8011596a4c0dd2bd2b255a7072a7d94fdb895a724\n        /* \"study/chapter05/back.sol\":220:230  msg.sender */\n      caller\n        /* \"study/chapter05/back.sol\":231:240  msg.value */\n      callvalue\n        /* \"study/chapter05/back.sol\":205:241  Log(\"fallback\",msg.sender,msg.value) */\n      mload(0x40)\n      tag_10\n      swap3\n      swap2\n      swap1\n      tag_11\n      jump\t// in\n    tag_10:\n      mload(0x40)\n      dup1\n      swap2\n      sub\n      swap1\n      log1\n        /* \"study/chapter05/back.sol\":54:471  contract back{... */\n      stop\n        /* \"study/chapter05/back.sol\":376:469  function getBalance()external view returns(uint){... */\n    tag_3:\n      callvalue\n      dup1\n      iszero\n      tag_12\n      jumpi\n      0x00\n      dup1\n      revert\n    tag_12:\n      pop\n      tag_13\n      tag_14\n      jump\t// in\n    tag_13:\n      mload(0x40)\n      tag_15\n      swap2\n      swap1\n      tag_16\n      jump\t// in\n    tag_15:\n      mload(0x40)\n      dup1\n      swap2\n      sub\n      swap1\n      return\n    tag_14:\n        /* \"study/chapter05/back.sol\":419:423  uint */\n      0x00\n        /* \"study/chapter05/back.sol\":441:462  address(this).balance */\n      selfbalance\n        /* \"study/chapter05/back.sol\":434:462  return address(this).balance */\n      swap1\n      pop\n        /* \"study/chapter05/back.sol\":376:469  function getBalance()external view returns(uint){... */\n      swap1\n      jump\t// out\n        /* \"#utility.yul\":7:176   */\n    tag_18:\n        /* \"#utility.yul\":91:102   */\n      0x00\n        /* \"#utility.yul\":125:131   */\n      dup3\n        /* \"#utility.yul\":120:123   */\n      dup3\n        /* \"#utility.yul\":113:132   */\n      mstore\n        /* \"#utility.yul\":165:169   */\n      0x20\n        /* \"#utility.yul\":160:163   */\n      dup3\n        /* \"#utility.yul\":156:170   */\n      add\n        /* \"#utility.yul\":141:170   */\n      swap1\n      pop\n        /* \"#utility.yul\":7:176   */\n      swap3\n      swap2\n      pop\n      pop\n      jump\t// out\n        /* \"#utility.yul\":182:339   */\n    tag_19:\n        /* \"#utility.yul\":322:331   */\n      0x7265636569766500000000000000000000000000000000000000000000000000\n        /* \"#utility.yul\":318:319   */\n      0x00\n        /* \"#utility.yul\":310:316   */\n      dup3\n        /* \"#utility.yul\":306:320   */\n      add\n        /* \"#utility.yul\":299:332   */\n      mstore\n        /* \"#utility.yul\":182:339   */\n      pop\n      jump\t// out\n        /* \"#utility.yul\":345:710   */\n    tag_20:\n        /* \"#utility.yul\":487:490   */\n      0x00\n        /* \"#utility.yul\":508:574   */\n      tag_32\n        /* \"#utility.yul\":572:573   */\n      0x07\n        /* \"#utility.yul\":567:570   */\n      dup4\n        /* \"#utility.yul\":508:574   */\n      tag_18\n      jump\t// in\n    tag_32:\n        /* \"#utility.yul\":501:574   */\n      swap2\n      pop\n        /* \"#utility.yul\":583:676   */\n      tag_33\n        /* \"#utility.yul\":672:675   */\n      dup3\n        /* \"#utility.yul\":583:676   */\n      tag_19\n      jump\t// in\n    tag_33:\n        /* \"#utility.yul\":701:703   */\n      0x20\n        /* \"#utility.yul\":696:699   */\n      dup3\n        /* \"#utility.yul\":692:704   */\n      add\n        /* \"#utility.yul\":685:704   */\n      swap1\n      pop\n        /* \"#utility.yul\":345:710   */\n      swap2\n      swap1\n      pop\n      jump\t// out\n        /* \"#utility.yul\":716:842   */\n    tag_21:\n        /* \"#utility.yul\":753:760   */\n      0x00\n        /* \"#utility.yul\":793:835   */\n      0xffffffffffffffffffffffffffffffffffffffff\n        /* \"#utility.yul\":786:791   */\n      dup3\n        /* \"#utility.yul\":782:836   */\n      and\n        /* \"#utility.yul\":771:836   */\n      swap1\n      pop\n        /* \"#utility.yul\":716:842   */\n      swap2\n      swap1\n      pop\n      jump\t// out\n        /* \"#utility.yul\":848:944   */\n    tag_22:\n        /* \"#utility.yul\":885:892   */\n      0x00\n        /* \"#utility.yul\":914:938   */\n      tag_36\n        /* \"#utility.yul\":932:937   */\n      dup3\n        /* \"#utility.yul\":914:938   */\n      tag_21\n      jump\t// in\n    tag_36:\n        /* \"#utility.yul\":903:938   */\n      swap1\n      pop\n        /* \"#utility.yul\":848:944   */\n      swap2\n      swap1\n      pop\n      jump\t// out\n        /* \"#utility.yul\":950:1068   */\n    tag_23:\n        /* \"#utility.yul\":1037:1061   */\n      tag_38\n        /* \"#utility.yul\":1055:1060   */\n      dup2\n        /* \"#utility.yul\":1037:1061   */\n      tag_22\n      jump\t// in\n    tag_38:\n        /* \"#utility.yul\":1032:1035   */\n      dup3\n        /* \"#utility.yul\":1025:1062   */\n      mstore\n        /* \"#utility.yul\":950:1068   */\n      pop\n      pop\n      jump\t// out\n        /* \"#utility.yul\":1074:1151   */\n    tag_24:\n        /* \"#utility.yul\":1111:1118   */\n      0x00\n        /* \"#utility.yul\":1140:1145   */\n      dup2\n        /* \"#utility.yul\":1129:1145   */\n      swap1\n      pop\n        /* \"#utility.yul\":1074:1151   */\n      swap2\n      swap1\n      pop\n      jump\t// out\n        /* \"#utility.yul\":1157:1275   */\n    tag_25:\n        /* \"#utility.yul\":1244:1268   */\n      tag_41\n        /* \"#utility.yul\":1262:1267   */\n      dup2\n        /* \"#utility.yul\":1244:1268   */\n      tag_24\n      jump\t// in\n    tag_41:\n        /* \"#utility.yul\":1239:1242   */\n      dup3\n        /* \"#utility.yul\":1232:1269   */\n      mstore\n        /* \"#utility.yul\":1157:1275   */\n      pop\n      pop\n      jump\t// out\n        /* \"#utility.yul\":1281:1920   */\n    tag_7:\n        /* \"#utility.yul\":1503:1507   */\n      0x00\n        /* \"#utility.yul\":1541:1543   */\n      0x60\n        /* \"#utility.yul\":1530:1539   */\n      dup3\n        /* \"#utility.yul\":1526:1544   */\n      add\n        /* \"#utility.yul\":1518:1544   */\n      swap1\n      pop\n        /* \"#utility.yul\":1590:1599   */\n      dup2\n        /* \"#utility.yul\":1584:1588   */\n      dup2\n        /* \"#utility.yul\":1580:1600   */\n      sub\n        /* \"#utility.yul\":1576:1577   */\n      0x00\n        /* \"#utility.yul\":1565:1574   */\n      dup4\n        /* \"#utility.yul\":1561:1578   */\n      add\n        /* \"#utility.yul\":1554:1601   */\n      mstore\n        /* \"#utility.yul\":1618:1749   */\n      tag_43\n        /* \"#utility.yul\":1744:1748   */\n      dup2\n        /* \"#utility.yul\":1618:1749   */\n      tag_20\n      jump\t// in\n    tag_43:\n        /* \"#utility.yul\":1610:1749   */\n      swap1\n      pop\n        /* \"#utility.yul\":1759:1831   */\n      tag_44\n        /* \"#utility.yul\":1827:1829   */\n      0x20\n        /* \"#utility.yul\":1816:1825   */\n      dup4\n        /* \"#utility.yul\":1812:1830   */\n      add\n        /* \"#utility.yul\":1803:1809   */\n      dup6\n        /* \"#utility.yul\":1759:1831   */\n      tag_23\n      jump\t// in\n    tag_44:\n        /* \"#utility.yul\":1841:1913   */\n      tag_45\n        /* \"#utility.yul\":1909:1911   */\n      0x40\n        /* \"#utility.yul\":1898:1907   */\n      dup4\n        /* \"#utility.yul\":1894:1912   */\n      add\n        /* \"#utility.yul\":1885:1891   */\n      dup5\n        /* \"#utility.yul\":1841:1913   */\n      tag_25\n      jump\t// in\n    tag_45:\n        /* \"#utility.yul\":1281:1920   */\n      swap4\n      swap3\n      pop\n      pop\n      pop\n      jump\t// out\n        /* \"#utility.yul\":1926:2084   */\n    tag_26:\n        /* \"#utility.yul\":2066:2076   */\n      0x66616c6c6261636b000000000000000000000000000000000000000000000000\n        /* \"#utility.yul\":2062:2063   */\n      0x00\n        /* \"#utility.yul\":2054:2060   */\n      dup3\n        /* \"#utility.yul\":2050:2064   */\n      add\n        /* \"#utility.yul\":2043:2077   */\n      mstore\n        /* \"#utility.yul\":1926:2084   */\n      pop\n      jump\t// out\n        /* \"#utility.yul\":2090:2455   */\n    tag_27:\n        /* \"#utility.yul\":2232:2235   */\n      0x00\n        /* \"#utility.yul\":2253:2319   */\n      tag_48\n        /* \"#utility.yul\":2317:2318   */\n      0x08\n        /* \"#utility.yul\":2312:2315   */\n      dup4\n        /* \"#utility.yul\":2253:2319   */\n      tag_18\n      jump\t// in\n    tag_48:\n        /* \"#utility.yul\":2246:2319   */\n      swap2\n      pop\n        /* \"#utility.yul\":2328:2421   */\n      tag_49\n        /* \"#utility.yul\":2417:2420   */\n      dup3\n        /* \"#utility.yul\":2328:2421   */\n      tag_26\n      jump\t// in\n    tag_49:\n        /* \"#utility.yul\":2446:2448   */\n      0x20\n        /* \"#utility.yul\":2441:2444   */\n      dup3\n        /* \"#utility.yul\":2437:2449   */\n      add\n        /* \"#utility.yul\":2430:2449   */\n      swap1\n      pop\n        /* \"#utility.yul\":2090:2455   */\n      swap2\n      swap1\n      pop\n      jump\t// out\n        /* \"#utility.yul\":2461:3100   */\n    tag_11:\n        /* \"#utility.yul\":2683:2687   */\n      0x00\n        /* \"#utility.yul\":2721:2723   */\n      0x60\n        /* \"#utility.yul\":2710:2719   */\n      dup3\n        /* \"#utility.yul\":2706:2724   */\n      add\n        /* \"#utility.yul\":2698:2724   */\n      swap1\n      pop\n        /* \"#utility.yul\":2770:2779   */\n      dup2\n        /* \"#utility.yul\":2764:2768   */\n      dup2\n        /* \"#utility.yul\":2760:2780   */\n      sub\n        /* \"#utility.yul\":2756:2757   */\n      0x00\n        /* \"#utility.yul\":2745:2754   */\n      dup4\n        /* \"#utility.yul\":2741:2758   */\n      add\n        /* \"#utility.yul\":2734:2781   */\n      mstore\n        /* \"#utility.yul\":2798:2929   */\n      tag_51\n        /* \"#utility.yul\":2924:2928   */\n      dup2\n        /* \"#utility.yul\":2798:2929   */\n      tag_27\n      jump\t// in\n    tag_51:\n        /* \"#utility.yul\":2790:2929   */\n      swap1\n      pop\n        /* \"#utility.yul\":2939:3011   */\n      tag_52\n        /* \"#utility.yul\":3007:3009   */\n      0x20\n        /* \"#utility.yul\":2996:3005   */\n      dup4\n        /* \"#utility.yul\":2992:3010   */\n      add\n        /* \"#utility.yul\":2983:2989   */\n      dup6\n        /* \"#utility.yul\":2939:3011   */\n      tag_23\n      jump\t// in\n    tag_52:\n        /* \"#utility.yul\":3021:3093   */\n      tag_53\n        /* \"#utility.yul\":3089:3091   */\n      0x40\n        /* \"#utility.yul\":3078:3087   */\n      dup4\n        /* \"#utility.yul\":3074:3092   */\n      add\n        /* \"#utility.yul\":3065:3071   */\n      dup5\n        /* \"#utility.yul\":3021:3093   */\n      tag_25\n      jump\t// in\n    tag_53:\n        /* \"#utility.yul\":2461:3100   */\n      swap4\n      swap3\n      pop\n      pop\n      pop\n      jump\t// out\n        /* \"#utility.yul\":3106:3328   */\n    tag_16:\n        /* \"#utility.yul\":3199:3203   */\n      0x00\n        /* \"#utility.yul\":3237:3239   */\n      0x20\n        /* \"#utility.yul\":3226:3235   */\n      dup3\n        /* \"#utility.yul\":3222:3240   */\n      add\n        /* \"#utility.yul\":3214:3240   */\n      swap1\n      pop\n        /* \"#utility.yul\":3250:3321   */\n      tag_55\n        /* \"#utility.yul\":3318:3319   */\n      0x00\n        /* \"#utility.yul\":3307:3316   */\n      dup4\n        /* \"#utility.yul\":3303:3320   */\n      add\n        /* \"#utility.yul\":3294:3300   */\n      dup5\n        /* \"#utility.yul\":3250:3321   */\n      tag_25\n      jump\t// in\n    tag_55:\n        /* \"#utility.yul\":3106:3328   */\n      swap3\n      swap2\n      pop\n      pop\n      jump\t// out\n\n    auxdata: 0xa2646970667358221220ff7c56d3c50bc37a03a5dedfcc34c5bf344c740045e074b270ea5bcdbe21f60964736f6c634300080f0033\n}\n",
				"bytecode": {
					"linkReferences": {},
					"object": "608060405234801561001057600080fd5b5061029c806100206000396000f3fe6080604052600436106100225760003560e01c806312065fe01461009d57610062565b36610062577f31f37e75fc861191c989b3f8011596a4c0dd2bd2b255a7072a7d94fdb895a7243334604051610058929190610187565b60405180910390a1005b7f31f37e75fc861191c989b3f8011596a4c0dd2bd2b255a7072a7d94fdb895a724333460405161009392919061020f565b60405180910390a1005b3480156100a957600080fd5b506100b26100c8565b6040516100bf919061024b565b60405180910390f35b600047905090565b600082825260208201905092915050565b7f7265636569766500000000000000000000000000000000000000000000000000600082015250565b60006101176007836100d0565b9150610122826100e1565b602082019050919050565b600073ffffffffffffffffffffffffffffffffffffffff82169050919050565b60006101588261012d565b9050919050565b6101688161014d565b82525050565b6000819050919050565b6101818161016e565b82525050565b600060608201905081810360008301526101a08161010a565b90506101af602083018561015f565b6101bc6040830184610178565b9392505050565b7f66616c6c6261636b000000000000000000000000000000000000000000000000600082015250565b60006101f96008836100d0565b9150610204826101c3565b602082019050919050565b60006060820190508181036000830152610228816101ec565b9050610237602083018561015f565b6102446040830184610178565b9392505050565b60006020820190506102606000830184610178565b9291505056fea2646970667358221220ff7c56d3c50bc37a03a5dedfcc34c5bf344c740045e074b270ea5bcdbe21f60964736f6c634300080f0033",
					"opcodes": "PUSH1 0x80 PUSH1 0x40 MSTORE CALLVALUE DUP1 ISZERO PUSH2 0x10 JUMPI PUSH1 0x0 DUP1 REVERT JUMPDEST POP PUSH2 0x29C DUP1 PUSH2 0x20 PUSH1 0x0 CODECOPY PUSH1 0x0 RETURN INVALID PUSH1 0x80 PUSH1 0x40 MSTORE PUSH1 0x4 CALLDATASIZE LT PUSH2 0x22 JUMPI PUSH1 0x0 CALLDATALOAD PUSH1 0xE0 SHR DUP1 PUSH4 0x12065FE0 EQ PUSH2 0x9D JUMPI PUSH2 0x62 JUMP JUMPDEST CALLDATASIZE PUSH2 0x62 JUMPI PUSH32 0x31F37E75FC861191C989B3F8011596A4C0DD2BD2B255A7072A7D94FDB895A724 CALLER CALLVALUE PUSH1 0x40 MLOAD PUSH2 0x58 SWAP3 SWAP2 SWAP1 PUSH2 0x187 JUMP JUMPDEST PUSH1 0x40 MLOAD DUP1 SWAP2 SUB SWAP1 LOG1 STOP JUMPDEST PUSH32 0x31F37E75FC861191C989B3F8011596A4C0DD2BD2B255A7072A7D94FDB895A724 CALLER CALLVALUE PUSH1 0x40 MLOAD PUSH2 0x93 SWAP3 SWAP2 SWAP1 PUSH2 0x20F JUMP JUMPDEST PUSH1 0x40 MLOAD DUP1 SWAP2 SUB SWAP1 LOG1 STOP JUMPDEST CALLVALUE DUP1 ISZERO PUSH2 0xA9 JUMPI PUSH1 0x0 DUP1 REVERT JUMPDEST POP PUSH2 0xB2 PUSH2 0xC8 JUMP JUMPDEST PUSH1 0x40 MLOAD PUSH2 0xBF SWAP2 SWAP1 PUSH2 0x24B JUMP JUMPDEST PUSH1 0x40 MLOAD DUP1 SWAP2 SUB SWAP1 RETURN JUMPDEST PUSH1 0x0 SELFBALANCE SWAP1 POP SWAP1 JUMP JUMPDEST PUSH1 0x0 DUP3 DUP3 MSTORE PUSH1 0x20 DUP3 ADD SWAP1 POP SWAP3 SWAP2 POP POP JUMP JUMPDEST PUSH32 0x7265636569766500000000000000000000000000000000000000000000000000 PUSH1 0x0 DUP3 ADD MSTORE POP JUMP JUMPDEST PUSH1 0x0 PUSH2 0x117 PUSH1 0x7 DUP4 PUSH2 0xD0 JUMP JUMPDEST SWAP2 POP PUSH2 0x122 DUP3 PUSH2 0xE1 JUMP JUMPDEST PUSH1 0x20 DUP3 ADD SWAP1 POP SWAP2 SWAP1 POP JUMP JUMPDEST PUSH1 0x0 PUSH20 0xFFFFFFFFFFFFFFFFFFFFFFFFFFFFFFFFFFFFFFFF DUP3 AND SWAP1 POP SWAP2 SWAP1 POP JUMP JUMPDEST PUSH1 0x0 PUSH2 0x158 DUP3 PUSH2 0x12D JUMP JUMPDEST SWAP1 POP SWAP2 SWAP1 POP JUMP JUMPDEST PUSH2 0x168 DUP2 PUSH2 0x14D JUMP JUMPDEST DUP3 MSTORE POP POP JUMP JUMPDEST PUSH1 0x0 DUP2 SWAP1 POP SWAP2 SWAP1 POP JUMP JUMPDEST PUSH2 0x181 DUP2 PUSH2 0x16E JUMP JUMPDEST DUP3 MSTORE POP POP JUMP JUMPDEST PUSH1 0x0 PUSH1 0x60 DUP3 ADD SWAP1 POP DUP2 DUP2 SUB PUSH1 0x0 DUP4 ADD MSTORE PUSH2 0x1A0 DUP2 PUSH2 0x10A JUMP JUMPDEST SWAP1 POP PUSH2 0x1AF PUSH1 0x20 DUP4 ADD DUP6 PUSH2 0x15F JUMP JUMPDEST PUSH2 0x1BC PUSH1 0x40 DUP4 ADD DUP5 PUSH2 0x178 JUMP JUMPDEST SWAP4 SWAP3 POP POP POP JUMP JUMPDEST PUSH32 0x66616C6C6261636B000000000000000000000000000000000000000000000000 PUSH1 0x0 DUP3 ADD MSTORE POP JUMP JUMPDEST PUSH1 0x0 PUSH2 0x1F9 PUSH1 0x8 DUP4 PUSH2 0xD0 JUMP JUMPDEST SWAP2 POP PUSH2 0x204 DUP3 PUSH2 0x1C3 JUMP JUMPDEST PUSH1 0x20 DUP3 ADD SWAP1 POP SWAP2 SWAP1 POP JUMP JUMPDEST PUSH1 0x0 PUSH1 0x60 DUP3 ADD SWAP1 POP DUP2 DUP2 SUB PUSH1 0x0 DUP4 ADD MSTORE PUSH2 0x228 DUP2 PUSH2 0x1EC JUMP JUMPDEST SWAP1 POP PUSH2 0x237 PUSH1 0x20 DUP4 ADD DUP6 PUSH2 0x15F JUMP JUMPDEST PUSH2 0x244 PUSH1 0x40 DUP4 ADD DUP5 PUSH2 0x178 JUMP JUMPDEST SWAP4 SWAP3 POP POP POP JUMP JUMPDEST PUSH1 0x0 PUSH1 0x20 DUP3 ADD SWAP1 POP PUSH2 0x260 PUSH1 0x0 DUP4 ADD DUP5 PUSH2 0x178 JUMP JUMPDEST SWAP3 SWAP2 POP POP JUMP INVALID LOG2 PUSH5 0x6970667358 0x22 SLT KECCAK256 SELFDESTRUCT PUSH29 0x56D3C50BC37A03A5DEDFCC34C5BF344C740045E074B270EA5BCDBE21F6 MULMOD PUSH5 0x736F6C6343 STOP ADDMOD 0xF STOP CALLER "
				},
				"gasEstimates": {
					"creation": {
						"codeDepositCost": "133600",
						"executionCost": "177",
						"totalCost": "133777"
					},
					"external": {
						"": "2652",
						"getBalance()": "317"
					}
				},
				"methodIdentifiers": {
					"getBalance()": "12065fe0"
				}
			},
			"storageLayout": {
				"storage": [],
				"types": null
			},
			"userdoc": {
				"kind": "user",
				"methods": {},
				"version": 1
			}
		}
	}
}