{
	"study/chapter05/innerFunc.sol": {
		"ArrayExample": {
			"abi": [
				{
					"inputs": [
						{
							"internalType": "uint256[]",
							"name": "_arr",
							"type": "uint256[]"
						}
					],
					"name": "f",
					"outputs": [],
					"stateMutability": "nonpayable",
					"type": "function"
				}
			],
			"devdoc": {
				"kind": "dev",
				"methods": {},
				"version": 1
			},
			"evm": {
				"assembly": "    /* \"study/chapter05/innerFunc.sol\":179:346  contract ArrayExample {... */\n  mstore(0x40, 0x80)\n  callvalue\n  dup1\n  iszero\n  tag_1\n  jumpi\n  0x00\n  dup1\n  revert\ntag_1:\n  pop\n  dataSize(sub_0)\n  dup1\n  dataOffset(sub_0)\n  0x00\n  codecopy\n  0x00\n  return\nstop\n\nsub_0: assembly {\n        /* \"study/chapter05/innerFunc.sol\":179:346  contract ArrayExample {... */\n      mstore(0x40, 0x80)\n      callvalue\n      dup1\n      iszero\n      tag_1\n      jumpi\n      0x00\n      dup1\n      revert\n    tag_1:\n      pop\n      jumpi(tag_2, lt(calldatasize, 0x04))\n      shr(0xe0, calldataload(0x00))\n      dup1\n      0x7bc5bbbf\n      eq\n      tag_3\n      jumpi\n    tag_2:\n      0x00\n      dup1\n      revert\n        /* \"study/chapter05/innerFunc.sol\":223:344  function f(uint[] memory _arr) public {... */\n    tag_3:\n      tag_4\n      0x04\n      dup1\n      calldatasize\n      sub\n      dup2\n      add\n      swap1\n      tag_5\n      swap2\n      swap1\n      tag_6\n      jump\t// in\n    tag_5:\n      tag_7\n      jump\t// in\n    tag_4:\n      stop\n    tag_7:\n        /* \"study/chapter05/innerFunc.sol\":271:277  uint s */\n      0x00\n        /* \"study/chapter05/innerFunc.sol\":280:289  sum(_arr) */\n      tag_9\n        /* \"study/chapter05/innerFunc.sol\":284:288  _arr */\n      dup3\n        /* \"study/chapter05/innerFunc.sol\":280:283  sum */\n      tag_10\n        /* \"study/chapter05/innerFunc.sol\":280:289  sum(_arr) */\n      jump\t// in\n    tag_9:\n        /* \"study/chapter05/innerFunc.sol\":271:289  uint s = sum(_arr) */\n      swap1\n      pop\n        /* \"study/chapter05/innerFunc.sol\":312:314  10 */\n      0x0a\n        /* \"study/chapter05/innerFunc.sol\":307:308  s */\n      dup2\n        /* \"study/chapter05/innerFunc.sol\":307:314  s >= 10 */\n      lt\n      iszero\n        /* \"study/chapter05/innerFunc.sol\":299:315  require(s >= 10) */\n      tag_11\n      jumpi\n      0x00\n      dup1\n      revert\n    tag_11:\n        /* \"study/chapter05/innerFunc.sol\":333:337  true */\n      0x01\n        /* \"study/chapter05/innerFunc.sol\":325:330  found */\n      0x00\n      dup1\n        /* \"study/chapter05/innerFunc.sol\":325:337  found = true */\n      0x0100\n      exp\n      dup2\n      sload\n      dup2\n      0xff\n      mul\n      not\n      and\n      swap1\n      dup4\n      iszero\n      iszero\n      mul\n      or\n      swap1\n      sstore\n      pop\n        /* \"study/chapter05/innerFunc.sol\":261:344  {... */\n      pop\n        /* \"study/chapter05/innerFunc.sol\":223:344  function f(uint[] memory _arr) public {... */\n      pop\n      jump\t// out\n        /* \"study/chapter05/innerFunc.sol\":55:178  function sum(uint[] memory _arr) pure returns (uint s) {... */\n    tag_10:\n        /* \"study/chapter05/innerFunc.sol\":102:108  uint s */\n      0x00\n        /* \"study/chapter05/innerFunc.sol\":121:127  uint i */\n      dup1\n        /* \"study/chapter05/innerFunc.sol\":130:131  0 */\n      0x00\n        /* \"study/chapter05/innerFunc.sol\":121:131  uint i = 0 */\n      swap1\n      pop\n        /* \"study/chapter05/innerFunc.sol\":116:175  for (uint i = 0; i < _arr.length; i++)... */\n    tag_13:\n        /* \"study/chapter05/innerFunc.sol\":137:141  _arr */\n      dup3\n        /* \"study/chapter05/innerFunc.sol\":137:148  _arr.length */\n      mload\n        /* \"study/chapter05/innerFunc.sol\":133:134  i */\n      dup2\n        /* \"study/chapter05/innerFunc.sol\":133:148  i < _arr.length */\n      lt\n        /* \"study/chapter05/innerFunc.sol\":116:175  for (uint i = 0; i < _arr.length; i++)... */\n      iszero\n      tag_14\n      jumpi\n        /* \"study/chapter05/innerFunc.sol\":168:172  _arr */\n      dup3\n        /* \"study/chapter05/innerFunc.sol\":173:174  i */\n      dup2\n        /* \"study/chapter05/innerFunc.sol\":168:175  _arr[i] */\n      dup2\n      mload\n      dup2\n      lt\n      tag_16\n      jumpi\n      tag_17\n      tag_18\n      jump\t// in\n    tag_17:\n    tag_16:\n      0x20\n      mul\n      0x20\n      add\n      add\n      mload\n        /* \"study/chapter05/innerFunc.sol\":163:175  s += _arr[i] */\n      dup3\n      tag_19\n      swap2\n      swap1\n      tag_20\n      jump\t// in\n    tag_19:\n      swap2\n      pop\n        /* \"study/chapter05/innerFunc.sol\":150:153  i++ */\n      dup1\n      dup1\n      tag_21\n      swap1\n      tag_22\n      jump\t// in\n    tag_21:\n      swap2\n      pop\n      pop\n        /* \"study/chapter05/innerFunc.sol\":116:175  for (uint i = 0; i < _arr.length; i++)... */\n      jump(tag_13)\n    tag_14:\n      pop\n        /* \"study/chapter05/innerFunc.sol\":55:178  function sum(uint[] memory _arr) pure returns (uint s) {... */\n      swap2\n      swap1\n      pop\n      jump\t// out\n        /* \"#utility.yul\":24:746   */\n    tag_24:\n        /* \"#utility.yul\":120:125   */\n      0x00\n        /* \"#utility.yul\":145:226   */\n      tag_26\n        /* \"#utility.yul\":161:225   */\n      tag_27\n        /* \"#utility.yul\":218:224   */\n      dup5\n        /* \"#utility.yul\":161:225   */\n      tag_28\n      jump\t// in\n    tag_27:\n        /* \"#utility.yul\":145:226   */\n      tag_29\n      jump\t// in\n    tag_26:\n        /* \"#utility.yul\":136:226   */\n      swap1\n      pop\n        /* \"#utility.yul\":246:251   */\n      dup1\n        /* \"#utility.yul\":275:281   */\n      dup4\n        /* \"#utility.yul\":268:273   */\n      dup3\n        /* \"#utility.yul\":261:282   */\n      mstore\n        /* \"#utility.yul\":309:313   */\n      0x20\n        /* \"#utility.yul\":302:307   */\n      dup3\n        /* \"#utility.yul\":298:314   */\n      add\n        /* \"#utility.yul\":291:314   */\n      swap1\n      pop\n        /* \"#utility.yul\":335:341   */\n      dup3\n        /* \"#utility.yul\":385:388   */\n      dup6\n        /* \"#utility.yul\":377:381   */\n      0x20\n        /* \"#utility.yul\":369:375   */\n      dup7\n        /* \"#utility.yul\":365:382   */\n      mul\n        /* \"#utility.yul\":360:363   */\n      dup3\n        /* \"#utility.yul\":356:383   */\n      add\n        /* \"#utility.yul\":353:389   */\n      gt\n        /* \"#utility.yul\":350:352   */\n      iszero\n      tag_30\n      jumpi\n        /* \"#utility.yul\":404:483   */\n      tag_31\n      tag_32\n      jump\t// in\n    tag_31:\n        /* \"#utility.yul\":350:352   */\n    tag_30:\n        /* \"#utility.yul\":517:518   */\n      0x00\n        /* \"#utility.yul\":502:740   */\n    tag_33:\n        /* \"#utility.yul\":527:533   */\n      dup6\n        /* \"#utility.yul\":524:525   */\n      dup2\n        /* \"#utility.yul\":521:534   */\n      lt\n        /* \"#utility.yul\":502:740   */\n      iszero\n      tag_35\n      jumpi\n        /* \"#utility.yul\":595:598   */\n      dup2\n        /* \"#utility.yul\":624:661   */\n      tag_36\n        /* \"#utility.yul\":657:660   */\n      dup9\n        /* \"#utility.yul\":645:655   */\n      dup3\n        /* \"#utility.yul\":624:661   */\n      tag_37\n      jump\t// in\n    tag_36:\n        /* \"#utility.yul\":619:622   */\n      dup5\n        /* \"#utility.yul\":612:662   */\n      mstore\n        /* \"#utility.yul\":691:695   */\n      0x20\n        /* \"#utility.yul\":686:689   */\n      dup5\n        /* \"#utility.yul\":682:696   */\n      add\n        /* \"#utility.yul\":675:696   */\n      swap4\n      pop\n        /* \"#utility.yul\":725:729   */\n      0x20\n        /* \"#utility.yul\":720:723   */\n      dup4\n        /* \"#utility.yul\":716:730   */\n      add\n        /* \"#utility.yul\":709:730   */\n      swap3\n      pop\n        /* \"#utility.yul\":562:740   */\n      pop\n        /* \"#utility.yul\":549:550   */\n      0x01\n        /* \"#utility.yul\":546:547   */\n      dup2\n        /* \"#utility.yul\":542:551   */\n      add\n        /* \"#utility.yul\":537:551   */\n      swap1\n      pop\n        /* \"#utility.yul\":502:740   */\n      jump(tag_33)\n    tag_35:\n        /* \"#utility.yul\":506:520   */\n      pop\n        /* \"#utility.yul\":126:746   */\n      pop\n      pop\n      swap4\n      swap3\n      pop\n      pop\n      pop\n      jump\t// out\n        /* \"#utility.yul\":769:1139   */\n    tag_38:\n        /* \"#utility.yul\":840:845   */\n      0x00\n        /* \"#utility.yul\":889:892   */\n      dup3\n        /* \"#utility.yul\":882:886   */\n      0x1f\n        /* \"#utility.yul\":874:880   */\n      dup4\n        /* \"#utility.yul\":870:887   */\n      add\n        /* \"#utility.yul\":866:893   */\n      slt\n        /* \"#utility.yul\":856:858   */\n      tag_40\n      jumpi\n        /* \"#utility.yul\":897:976   */\n      tag_41\n      tag_42\n      jump\t// in\n    tag_41:\n        /* \"#utility.yul\":856:858   */\n    tag_40:\n        /* \"#utility.yul\":1014:1020   */\n      dup2\n        /* \"#utility.yul\":1001:1021   */\n      calldataload\n        /* \"#utility.yul\":1039:1133   */\n      tag_43\n        /* \"#utility.yul\":1129:1132   */\n      dup5\n        /* \"#utility.yul\":1121:1127   */\n      dup3\n        /* \"#utility.yul\":1114:1118   */\n      0x20\n        /* \"#utility.yul\":1106:1112   */\n      dup7\n        /* \"#utility.yul\":1102:1119   */\n      add\n        /* \"#utility.yul\":1039:1133   */\n      tag_24\n      jump\t// in\n    tag_43:\n        /* \"#utility.yul\":1030:1133   */\n      swap2\n      pop\n        /* \"#utility.yul\":846:1139   */\n      pop\n      swap3\n      swap2\n      pop\n      pop\n      jump\t// out\n        /* \"#utility.yul\":1145:1284   */\n    tag_37:\n        /* \"#utility.yul\":1191:1196   */\n      0x00\n        /* \"#utility.yul\":1229:1235   */\n      dup2\n        /* \"#utility.yul\":1216:1236   */\n      calldataload\n        /* \"#utility.yul\":1207:1236   */\n      swap1\n      pop\n        /* \"#utility.yul\":1245:1278   */\n      tag_45\n        /* \"#utility.yul\":1272:1277   */\n      dup2\n        /* \"#utility.yul\":1245:1278   */\n      tag_46\n      jump\t// in\n    tag_45:\n        /* \"#utility.yul\":1197:1284   */\n      swap3\n      swap2\n      pop\n      pop\n      jump\t// out\n        /* \"#utility.yul\":1290:1829   */\n    tag_6:\n        /* \"#utility.yul\":1374:1380   */\n      0x00\n        /* \"#utility.yul\":1423:1425   */\n      0x20\n        /* \"#utility.yul\":1411:1420   */\n      dup3\n        /* \"#utility.yul\":1402:1409   */\n      dup5\n        /* \"#utility.yul\":1398:1421   */\n      sub\n        /* \"#utility.yul\":1394:1426   */\n      slt\n        /* \"#utility.yul\":1391:1393   */\n      iszero\n      tag_48\n      jumpi\n        /* \"#utility.yul\":1429:1508   */\n      tag_49\n      tag_50\n      jump\t// in\n    tag_49:\n        /* \"#utility.yul\":1391:1393   */\n    tag_48:\n        /* \"#utility.yul\":1577:1578   */\n      0x00\n        /* \"#utility.yul\":1566:1575   */\n      dup3\n        /* \"#utility.yul\":1562:1579   */\n      add\n        /* \"#utility.yul\":1549:1580   */\n      calldataload\n        /* \"#utility.yul\":1607:1625   */\n      0xffffffffffffffff\n        /* \"#utility.yul\":1599:1605   */\n      dup2\n        /* \"#utility.yul\":1596:1626   */\n      gt\n        /* \"#utility.yul\":1593:1595   */\n      iszero\n      tag_51\n      jumpi\n        /* \"#utility.yul\":1629:1708   */\n      tag_52\n      tag_53\n      jump\t// in\n    tag_52:\n        /* \"#utility.yul\":1593:1595   */\n    tag_51:\n        /* \"#utility.yul\":1734:1812   */\n      tag_54\n        /* \"#utility.yul\":1804:1811   */\n      dup5\n        /* \"#utility.yul\":1795:1801   */\n      dup3\n        /* \"#utility.yul\":1784:1793   */\n      dup6\n        /* \"#utility.yul\":1780:1802   */\n      add\n        /* \"#utility.yul\":1734:1812   */\n      tag_38\n      jump\t// in\n    tag_54:\n        /* \"#utility.yul\":1724:1812   */\n      swap2\n      pop\n        /* \"#utility.yul\":1520:1822   */\n      pop\n        /* \"#utility.yul\":1381:1829   */\n      swap3\n      swap2\n      pop\n      pop\n      jump\t// out\n        /* \"#utility.yul\":1835:1964   */\n    tag_29:\n        /* \"#utility.yul\":1869:1875   */\n      0x00\n        /* \"#utility.yul\":1896:1916   */\n      tag_56\n      tag_57\n      jump\t// in\n    tag_56:\n        /* \"#utility.yul\":1886:1916   */\n      swap1\n      pop\n        /* \"#utility.yul\":1925:1958   */\n      tag_58\n        /* \"#utility.yul\":1953:1957   */\n      dup3\n        /* \"#utility.yul\":1945:1951   */\n      dup3\n        /* \"#utility.yul\":1925:1958   */\n      tag_59\n      jump\t// in\n    tag_58:\n        /* \"#utility.yul\":1876:1964   */\n      swap2\n      swap1\n      pop\n      jump\t// out\n        /* \"#utility.yul\":1970:2045   */\n    tag_57:\n        /* \"#utility.yul\":2003:2009   */\n      0x00\n        /* \"#utility.yul\":2036:2038   */\n      0x40\n        /* \"#utility.yul\":2030:2039   */\n      mload\n        /* \"#utility.yul\":2020:2039   */\n      swap1\n      pop\n        /* \"#utility.yul\":2010:2045   */\n      swap1\n      jump\t// out\n        /* \"#utility.yul\":2051:2362   */\n    tag_28:\n        /* \"#utility.yul\":2128:2132   */\n      0x00\n        /* \"#utility.yul\":2218:2236   */\n      0xffffffffffffffff\n        /* \"#utility.yul\":2210:2216   */\n      dup3\n        /* \"#utility.yul\":2207:2237   */\n      gt\n        /* \"#utility.yul\":2204:2206   */\n      iszero\n      tag_62\n      jumpi\n        /* \"#utility.yul\":2240:2258   */\n      tag_63\n      tag_64\n      jump\t// in\n    tag_63:\n        /* \"#utility.yul\":2204:2206   */\n    tag_62:\n        /* \"#utility.yul\":2290:2294   */\n      0x20\n        /* \"#utility.yul\":2282:2288   */\n      dup3\n        /* \"#utility.yul\":2278:2295   */\n      mul\n        /* \"#utility.yul\":2270:2295   */\n      swap1\n      pop\n        /* \"#utility.yul\":2350:2354   */\n      0x20\n        /* \"#utility.yul\":2344:2348   */\n      dup2\n        /* \"#utility.yul\":2340:2355   */\n      add\n        /* \"#utility.yul\":2332:2355   */\n      swap1\n      pop\n        /* \"#utility.yul\":2133:2362   */\n      swap2\n      swap1\n      pop\n      jump\t// out\n        /* \"#utility.yul\":2368:2673   */\n    tag_20:\n        /* \"#utility.yul\":2408:2411   */\n      0x00\n        /* \"#utility.yul\":2427:2447   */\n      tag_66\n        /* \"#utility.yul\":2445:2446   */\n      dup3\n        /* \"#utility.yul\":2427:2447   */\n      tag_67\n      jump\t// in\n    tag_66:\n        /* \"#utility.yul\":2422:2447   */\n      swap2\n      pop\n        /* \"#utility.yul\":2461:2481   */\n      tag_68\n        /* \"#utility.yul\":2479:2480   */\n      dup4\n        /* \"#utility.yul\":2461:2481   */\n      tag_67\n      jump\t// in\n    tag_68:\n        /* \"#utility.yul\":2456:2481   */\n      swap3\n      pop\n        /* \"#utility.yul\":2615:2616   */\n      dup3\n        /* \"#utility.yul\":2547:2613   */\n      0xffffffffffffffffffffffffffffffffffffffffffffffffffffffffffffffff\n        /* \"#utility.yul\":2543:2617   */\n      sub\n        /* \"#utility.yul\":2540:2541   */\n      dup3\n        /* \"#utility.yul\":2537:2618   */\n      gt\n        /* \"#utility.yul\":2534:2536   */\n      iszero\n      tag_69\n      jumpi\n        /* \"#utility.yul\":2621:2639   */\n      tag_70\n      tag_71\n      jump\t// in\n    tag_70:\n        /* \"#utility.yul\":2534:2536   */\n    tag_69:\n        /* \"#utility.yul\":2665:2666   */\n      dup3\n        /* \"#utility.yul\":2662:2663   */\n      dup3\n        /* \"#utility.yul\":2658:2667   */\n      add\n        /* \"#utility.yul\":2651:2667   */\n      swap1\n      pop\n        /* \"#utility.yul\":2412:2673   */\n      swap3\n      swap2\n      pop\n      pop\n      jump\t// out\n        /* \"#utility.yul\":2679:2756   */\n    tag_67:\n        /* \"#utility.yul\":2716:2723   */\n      0x00\n        /* \"#utility.yul\":2745:2750   */\n      dup2\n        /* \"#utility.yul\":2734:2750   */\n      swap1\n      pop\n        /* \"#utility.yul\":2724:2756   */\n      swap2\n      swap1\n      pop\n      jump\t// out\n        /* \"#utility.yul\":2762:3043   */\n    tag_59:\n        /* \"#utility.yul\":2845:2872   */\n      tag_74\n        /* \"#utility.yul\":2867:2871   */\n      dup3\n        /* \"#utility.yul\":2845:2872   */\n      tag_75\n      jump\t// in\n    tag_74:\n        /* \"#utility.yul\":2837:2843   */\n      dup2\n        /* \"#utility.yul\":2833:2873   */\n      add\n        /* \"#utility.yul\":2975:2981   */\n      dup2\n        /* \"#utility.yul\":2963:2973   */\n      dup2\n        /* \"#utility.yul\":2960:2982   */\n      lt\n        /* \"#utility.yul\":2939:2957   */\n      0xffffffffffffffff\n        /* \"#utility.yul\":2927:2937   */\n      dup3\n        /* \"#utility.yul\":2924:2958   */\n      gt\n        /* \"#utility.yul\":2921:2983   */\n      or\n        /* \"#utility.yul\":2918:2920   */\n      iszero\n      tag_76\n      jumpi\n        /* \"#utility.yul\":2986:3004   */\n      tag_77\n      tag_64\n      jump\t// in\n    tag_77:\n        /* \"#utility.yul\":2918:2920   */\n    tag_76:\n        /* \"#utility.yul\":3026:3036   */\n      dup1\n        /* \"#utility.yul\":3022:3024   */\n      0x40\n        /* \"#utility.yul\":3015:3037   */\n      mstore\n        /* \"#utility.yul\":2805:3043   */\n      pop\n      pop\n      pop\n      jump\t// out\n        /* \"#utility.yul\":3049:3282   */\n    tag_22:\n        /* \"#utility.yul\":3088:3091   */\n      0x00\n        /* \"#utility.yul\":3111:3135   */\n      tag_79\n        /* \"#utility.yul\":3129:3134   */\n      dup3\n        /* \"#utility.yul\":3111:3135   */\n      tag_67\n      jump\t// in\n    tag_79:\n        /* \"#utility.yul\":3102:3135   */\n      swap2\n      pop\n        /* \"#utility.yul\":3157:3223   */\n      0xffffffffffffffffffffffffffffffffffffffffffffffffffffffffffffffff\n        /* \"#utility.yul\":3150:3155   */\n      dup3\n        /* \"#utility.yul\":3147:3224   */\n      eq\n        /* \"#utility.yul\":3144:3146   */\n      iszero\n      tag_80\n      jumpi\n        /* \"#utility.yul\":3227:3245   */\n      tag_81\n      tag_71\n      jump\t// in\n    tag_81:\n        /* \"#utility.yul\":3144:3146   */\n    tag_80:\n        /* \"#utility.yul\":3274:3275   */\n      0x01\n        /* \"#utility.yul\":3267:3272   */\n      dup3\n        /* \"#utility.yul\":3263:3276   */\n      add\n        /* \"#utility.yul\":3256:3276   */\n      swap1\n      pop\n        /* \"#utility.yul\":3092:3282   */\n      swap2\n      swap1\n      pop\n      jump\t// out\n        /* \"#utility.yul\":3288:3468   */\n    tag_71:\n        /* \"#utility.yul\":3336:3413   */\n      0x4e487b7100000000000000000000000000000000000000000000000000000000\n        /* \"#utility.yul\":3333:3334   */\n      0x00\n        /* \"#utility.yul\":3326:3414   */\n      mstore\n        /* \"#utility.yul\":3433:3437   */\n      0x11\n        /* \"#utility.yul\":3430:3431   */\n      0x04\n        /* \"#utility.yul\":3423:3438   */\n      mstore\n        /* \"#utility.yul\":3457:3461   */\n      0x24\n        /* \"#utility.yul\":3454:3455   */\n      0x00\n        /* \"#utility.yul\":3447:3462   */\n      revert\n        /* \"#utility.yul\":3474:3654   */\n    tag_18:\n        /* \"#utility.yul\":3522:3599   */\n      0x4e487b7100000000000000000000000000000000000000000000000000000000\n        /* \"#utility.yul\":3519:3520   */\n      0x00\n        /* \"#utility.yul\":3512:3600   */\n      mstore\n        /* \"#utility.yul\":3619:3623   */\n      0x32\n        /* \"#utility.yul\":3616:3617   */\n      0x04\n        /* \"#utility.yul\":3609:3624   */\n      mstore\n        /* \"#utility.yul\":3643:3647   */\n      0x24\n        /* \"#utility.yul\":3640:3641   */\n      0x00\n        /* \"#utility.yul\":3633:3648   */\n      revert\n        /* \"#utility.yul\":3660:3840   */\n    tag_64:\n        /* \"#utility.yul\":3708:3785   */\n      0x4e487b7100000000000000000000000000000000000000000000000000000000\n        /* \"#utility.yul\":3705:3706   */\n      0x00\n        /* \"#utility.yul\":3698:3786   */\n      mstore\n        /* \"#utility.yul\":3805:3809   */\n      0x41\n        /* \"#utility.yul\":3802:3803   */\n      0x04\n        /* \"#utility.yul\":3795:3810   */\n      mstore\n        /* \"#utility.yul\":3829:3833   */\n      0x24\n        /* \"#utility.yul\":3826:3827   */\n      0x00\n        /* \"#utility.yul\":3819:3834   */\n      revert\n        /* \"#utility.yul\":3846:3963   */\n    tag_42:\n        /* \"#utility.yul\":3955:3956   */\n      0x00\n        /* \"#utility.yul\":3952:3953   */\n      dup1\n        /* \"#utility.yul\":3945:3957   */\n      revert\n        /* \"#utility.yul\":3969:4086   */\n    tag_32:\n        /* \"#utility.yul\":4078:4079   */\n      0x00\n        /* \"#utility.yul\":4075:4076   */\n      dup1\n        /* \"#utility.yul\":4068:4080   */\n      revert\n        /* \"#utility.yul\":4092:4209   */\n    tag_53:\n        /* \"#utility.yul\":4201:4202   */\n      0x00\n        /* \"#utility.yul\":4198:4199   */\n      dup1\n        /* \"#utility.yul\":4191:4203   */\n      revert\n        /* \"#utility.yul\":4215:4332   */\n    tag_50:\n        /* \"#utility.yul\":4324:4325   */\n      0x00\n        /* \"#utility.yul\":4321:4322   */\n      dup1\n        /* \"#utility.yul\":4314:4326   */\n      revert\n        /* \"#utility.yul\":4338:4440   */\n    tag_75:\n        /* \"#utility.yul\":4379:4385   */\n      0x00\n        /* \"#utility.yul\":4430:4432   */\n      0x1f\n        /* \"#utility.yul\":4426:4433   */\n      not\n        /* \"#utility.yul\":4421:4423   */\n      0x1f\n        /* \"#utility.yul\":4414:4419   */\n      dup4\n        /* \"#utility.yul\":4410:4424   */\n      add\n        /* \"#utility.yul\":4406:4434   */\n      and\n        /* \"#utility.yul\":4396:4434   */\n      swap1\n      pop\n        /* \"#utility.yul\":4386:4440   */\n      swap2\n      swap1\n      pop\n      jump\t// out\n        /* \"#utility.yul\":4446:4568   */\n    tag_46:\n        /* \"#utility.yul\":4519:4543   */\n      tag_91\n        /* \"#utility.yul\":4537:4542   */\n      dup2\n        /* \"#utility.yul\":4519:4543   */\n      tag_67\n      jump\t// in\n    tag_91:\n        /* \"#utility.yul\":4512:4517   */\n      dup2\n        /* \"#utility.yul\":4509:4544   */\n      eq\n        /* \"#utility.yul\":4499:4501   */\n      tag_92\n      jumpi\n        /* \"#utility.yul\":4558:4559   */\n      0x00\n        /* \"#utility.yul\":4555:4556   */\n      dup1\n        /* \"#utility.yul\":4548:4560   */\n      revert\n        /* \"#utility.yul\":4499:4501   */\n    tag_92:\n        /* \"#utility.yul\":4489:4568   */\n      pop\n      jump\t// out\n\n    auxdata: 0xa264697066735822122011c56f9a4a2253a74ef639395dcea7b3c3d3fb0f303a2e28dd161d3cbc52398a64736f6c63430008060033\n}\n",
				"bytecode": {
					"linkReferences": {},
					"object": "608060405234801561001057600080fd5b506103fd806100206000396000f3fe608060405234801561001057600080fd5b506004361061002b5760003560e01c80637bc5bbbf14610030575b600080fd5b61004a6004803603810190610045919061018a565b61004c565b005b600061005782610085565b9050600a81101561006757600080fd5b60016000806101000a81548160ff0219169083151502179055505050565b600080600090505b82518110156100d1578281815181106100a9576100a861032d565b5b6020026020010151826100bc9190610224565b915080806100c9906102b5565b91505061008d565b50919050565b60006100ea6100e5846101f8565b6101d3565b9050808382526020820190508285602086028201111561010d5761010c610390565b5b60005b8581101561013d57816101238882610175565b845260208401935060208301925050600181019050610110565b5050509392505050565b600082601f83011261015c5761015b61038b565b5b813561016c8482602086016100d7565b91505092915050565b600081359050610184816103b0565b92915050565b6000602082840312156101a05761019f61039a565b5b600082013567ffffffffffffffff8111156101be576101bd610395565b5b6101ca84828501610147565b91505092915050565b60006101dd6101ee565b90506101e98282610284565b919050565b6000604051905090565b600067ffffffffffffffff8211156102135761021261035c565b5b602082029050602081019050919050565b600061022f8261027a565b915061023a8361027a565b9250827fffffffffffffffffffffffffffffffffffffffffffffffffffffffffffffffff0382111561026f5761026e6102fe565b5b828201905092915050565b6000819050919050565b61028d8261039f565b810181811067ffffffffffffffff821117156102ac576102ab61035c565b5b80604052505050565b60006102c08261027a565b91507fffffffffffffffffffffffffffffffffffffffffffffffffffffffffffffffff8214156102f3576102f26102fe565b5b600182019050919050565b7f4e487b7100000000000000000000000000000000000000000000000000000000600052601160045260246000fd5b7f4e487b7100000000000000000000000000000000000000000000000000000000600052603260045260246000fd5b7f4e487b7100000000000000000000000000000000000000000000000000000000600052604160045260246000fd5b600080fd5b600080fd5b600080fd5b600080fd5b6000601f19601f8301169050919050565b6103b98161027a565b81146103c457600080fd5b5056fea264697066735822122011c56f9a4a2253a74ef639395dcea7b3c3d3fb0f303a2e28dd161d3cbc52398a64736f6c63430008060033",
					"opcodes": "PUSH1 0x80 PUSH1 0x40 MSTORE CALLVALUE DUP1 ISZERO PUSH2 0x10 JUMPI PUSH1 0x0 DUP1 REVERT JUMPDEST POP PUSH2 0x3FD DUP1 PUSH2 0x20 PUSH1 0x0 CODECOPY PUSH1 0x0 RETURN INVALID PUSH1 0x80 PUSH1 0x40 MSTORE CALLVALUE DUP1 ISZERO PUSH2 0x10 JUMPI PUSH1 0x0 DUP1 REVERT JUMPDEST POP PUSH1 0x4 CALLDATASIZE LT PUSH2 0x2B JUMPI PUSH1 0x0 CALLDATALOAD PUSH1 0xE0 SHR DUP1 PUSH4 0x7BC5BBBF EQ PUSH2 0x30 JUMPI JUMPDEST PUSH1 0x0 DUP1 REVERT JUMPDEST PUSH2 0x4A PUSH1 0x4 DUP1 CALLDATASIZE SUB DUP2 ADD SWAP1 PUSH2 0x45 SWAP2 SWAP1 PUSH2 0x18A JUMP JUMPDEST PUSH2 0x4C JUMP JUMPDEST STOP JUMPDEST PUSH1 0x0 PUSH2 0x57 DUP3 PUSH2 0x85 JUMP JUMPDEST SWAP1 POP PUSH1 0xA DUP2 LT ISZERO PUSH2 0x67 JUMPI PUSH1 0x0 DUP1 REVERT JUMPDEST PUSH1 0x1 PUSH1 0x0 DUP1 PUSH2 0x100 EXP DUP2 SLOAD DUP2 PUSH1 0xFF MUL NOT AND SWAP1 DUP4 ISZERO ISZERO MUL OR SWAP1 SSTORE POP POP POP JUMP JUMPDEST PUSH1 0x0 DUP1 PUSH1 0x0 SWAP1 POP JUMPDEST DUP3 MLOAD DUP2 LT ISZERO PUSH2 0xD1 JUMPI DUP3 DUP2 DUP2 MLOAD DUP2 LT PUSH2 0xA9 JUMPI PUSH2 0xA8 PUSH2 0x32D JUMP JUMPDEST JUMPDEST PUSH1 0x20 MUL PUSH1 0x20 ADD ADD MLOAD DUP3 PUSH2 0xBC SWAP2 SWAP1 PUSH2 0x224 JUMP JUMPDEST SWAP2 POP DUP1 DUP1 PUSH2 0xC9 SWAP1 PUSH2 0x2B5 JUMP JUMPDEST SWAP2 POP POP PUSH2 0x8D JUMP JUMPDEST POP SWAP2 SWAP1 POP JUMP JUMPDEST PUSH1 0x0 PUSH2 0xEA PUSH2 0xE5 DUP5 PUSH2 0x1F8 JUMP JUMPDEST PUSH2 0x1D3 JUMP JUMPDEST SWAP1 POP DUP1 DUP4 DUP3 MSTORE PUSH1 0x20 DUP3 ADD SWAP1 POP DUP3 DUP6 PUSH1 0x20 DUP7 MUL DUP3 ADD GT ISZERO PUSH2 0x10D JUMPI PUSH2 0x10C PUSH2 0x390 JUMP JUMPDEST JUMPDEST PUSH1 0x0 JUMPDEST DUP6 DUP2 LT ISZERO PUSH2 0x13D JUMPI DUP2 PUSH2 0x123 DUP9 DUP3 PUSH2 0x175 JUMP JUMPDEST DUP5 MSTORE PUSH1 0x20 DUP5 ADD SWAP4 POP PUSH1 0x20 DUP4 ADD SWAP3 POP POP PUSH1 0x1 DUP2 ADD SWAP1 POP PUSH2 0x110 JUMP JUMPDEST POP POP POP SWAP4 SWAP3 POP POP POP JUMP JUMPDEST PUSH1 0x0 DUP3 PUSH1 0x1F DUP4 ADD SLT PUSH2 0x15C JUMPI PUSH2 0x15B PUSH2 0x38B JUMP JUMPDEST JUMPDEST DUP2 CALLDATALOAD PUSH2 0x16C DUP5 DUP3 PUSH1 0x20 DUP7 ADD PUSH2 0xD7 JUMP JUMPDEST SWAP2 POP POP SWAP3 SWAP2 POP POP JUMP JUMPDEST PUSH1 0x0 DUP2 CALLDATALOAD SWAP1 POP PUSH2 0x184 DUP2 PUSH2 0x3B0 JUMP JUMPDEST SWAP3 SWAP2 POP POP JUMP JUMPDEST PUSH1 0x0 PUSH1 0x20 DUP3 DUP5 SUB SLT ISZERO PUSH2 0x1A0 JUMPI PUSH2 0x19F PUSH2 0x39A JUMP JUMPDEST JUMPDEST PUSH1 0x0 DUP3 ADD CALLDATALOAD PUSH8 0xFFFFFFFFFFFFFFFF DUP2 GT ISZERO PUSH2 0x1BE JUMPI PUSH2 0x1BD PUSH2 0x395 JUMP JUMPDEST JUMPDEST PUSH2 0x1CA DUP5 DUP3 DUP6 ADD PUSH2 0x147 JUMP JUMPDEST SWAP2 POP POP SWAP3 SWAP2 POP POP JUMP JUMPDEST PUSH1 0x0 PUSH2 0x1DD PUSH2 0x1EE JUMP JUMPDEST SWAP1 POP PUSH2 0x1E9 DUP3 DUP3 PUSH2 0x284 JUMP JUMPDEST SWAP2 SWAP1 POP JUMP JUMPDEST PUSH1 0x0 PUSH1 0x40 MLOAD SWAP1 POP SWAP1 JUMP JUMPDEST PUSH1 0x0 PUSH8 0xFFFFFFFFFFFFFFFF DUP3 GT ISZERO PUSH2 0x213 JUMPI PUSH2 0x212 PUSH2 0x35C JUMP JUMPDEST JUMPDEST PUSH1 0x20 DUP3 MUL SWAP1 POP PUSH1 0x20 DUP2 ADD SWAP1 POP SWAP2 SWAP1 POP JUMP JUMPDEST PUSH1 0x0 PUSH2 0x22F DUP3 PUSH2 0x27A JUMP JUMPDEST SWAP2 POP PUSH2 0x23A DUP4 PUSH2 0x27A JUMP JUMPDEST SWAP3 POP DUP3 PUSH32 0xFFFFFFFFFFFFFFFFFFFFFFFFFFFFFFFFFFFFFFFFFFFFFFFFFFFFFFFFFFFFFFFF SUB DUP3 GT ISZERO PUSH2 0x26F JUMPI PUSH2 0x26E PUSH2 0x2FE JUMP JUMPDEST JUMPDEST DUP3 DUP3 ADD SWAP1 POP SWAP3 SWAP2 POP POP JUMP JUMPDEST PUSH1 0x0 DUP2 SWAP1 POP SWAP2 SWAP1 POP JUMP JUMPDEST PUSH2 0x28D DUP3 PUSH2 0x39F JUMP JUMPDEST DUP2 ADD DUP2 DUP2 LT PUSH8 0xFFFFFFFFFFFFFFFF DUP3 GT OR ISZERO PUSH2 0x2AC JUMPI PUSH2 0x2AB PUSH2 0x35C JUMP JUMPDEST JUMPDEST DUP1 PUSH1 0x40 MSTORE POP POP POP JUMP JUMPDEST PUSH1 0x0 PUSH2 0x2C0 DUP3 PUSH2 0x27A JUMP JUMPDEST SWAP2 POP PUSH32 0xFFFFFFFFFFFFFFFFFFFFFFFFFFFFFFFFFFFFFFFFFFFFFFFFFFFFFFFFFFFFFFFF DUP3 EQ ISZERO PUSH2 0x2F3 JUMPI PUSH2 0x2F2 PUSH2 0x2FE JUMP JUMPDEST JUMPDEST PUSH1 0x1 DUP3 ADD SWAP1 POP SWAP2 SWAP1 POP JUMP JUMPDEST PUSH32 0x4E487B7100000000000000000000000000000000000000000000000000000000 PUSH1 0x0 MSTORE PUSH1 0x11 PUSH1 0x4 MSTORE PUSH1 0x24 PUSH1 0x0 REVERT JUMPDEST PUSH32 0x4E487B7100000000000000000000000000000000000000000000000000000000 PUSH1 0x0 MSTORE PUSH1 0x32 PUSH1 0x4 MSTORE PUSH1 0x24 PUSH1 0x0 REVERT JUMPDEST PUSH32 0x4E487B7100000000000000000000000000000000000000000000000000000000 PUSH1 0x0 MSTORE PUSH1 0x41 PUSH1 0x4 MSTORE PUSH1 0x24 PUSH1 0x0 REVERT JUMPDEST PUSH1 0x0 DUP1 REVERT JUMPDEST PUSH1 0x0 DUP1 REVERT JUMPDEST PUSH1 0x0 DUP1 REVERT JUMPDEST PUSH1 0x0 DUP1 REVERT JUMPDEST PUSH1 0x0 PUSH1 0x1F NOT PUSH1 0x1F DUP4 ADD AND SWAP1 POP SWAP2 SWAP1 POP JUMP JUMPDEST PUSH2 0x3B9 DUP2 PUSH2 0x27A JUMP JUMPDEST DUP2 EQ PUSH2 0x3C4 JUMPI PUSH1 0x0 DUP1 REVERT JUMPDEST POP JUMP INVALID LOG2 PUSH5 0x6970667358 0x22 SLT KECCAK256 GT 0xC5 PUSH16 0x9A4A2253A74EF639395DCEA7B3C3D3FB 0xF ADDRESS GASPRICE 0x2E 0x28 0xDD AND SAR EXTCODECOPY 0xBC MSTORE CODECOPY DUP11 PUSH5 0x736F6C6343 STOP ADDMOD MOD STOP CALLER "
				},
				"gasEstimates": {
					"creation": {
						"codeDepositCost": "204200",
						"executionCost": "245",
						"totalCost": "204445"
					},
					"external": {
						"f(uint256[])": "infinite"
					}
				},
				"methodIdentifiers": {
					"f(uint256[])": "7bc5bbbf"
				}
			},
			"storageLayout": {
				"storage": [
					{
						"astId": 30,
						"contract": "study/chapter05/innerFunc.sol:ArrayExample",
						"label": "found",
						"offset": 0,
						"slot": "0",
						"type": "t_bool"
					}
				],
				"types": {
					"t_bool": {
						"encoding": "inplace",
						"label": "bool",
						"numberOfBytes": "1"
					}
				}
			},
			"userdoc": {
				"kind": "user",
				"methods": {},
				"version": 1
			}
		}
	}
}