{
	"study/chapter07/stirngOpt.sol": {
		"Hello": {
			"abi": [
				{
					"inputs": [],
					"name": "greet",
					"outputs": [
						{
							"internalType": "string",
							"name": "",
							"type": "string"
						}
					],
					"stateMutability": "view",
					"type": "function"
				},
				{
					"inputs": [],
					"name": "s",
					"outputs": [
						{
							"internalType": "string",
							"name": "",
							"type": "string"
						}
					],
					"stateMutability": "view",
					"type": "function"
				},
				{
					"inputs": [],
					"name": "s1",
					"outputs": [
						{
							"internalType": "string",
							"name": "",
							"type": "string"
						}
					],
					"stateMutability": "view",
					"type": "function"
				},
				{
					"inputs": [],
					"name": "s2",
					"outputs": [
						{
							"internalType": "string",
							"name": "",
							"type": "string"
						}
					],
					"stateMutability": "view",
					"type": "function"
				}
			],
			"devdoc": {
				"kind": "dev",
				"methods": {},
				"version": 1
			},
			"evm": {
				"assembly": "    /* \"study/chapter07/stirngOpt.sol\":56:242  contract Hello {... */\n  mstore(0x40, 0x80)\n    /* \"study/chapter07/stirngOpt.sol\":77:108  string public greet = \"Hello, \" */\n  mload(0x40)\n  dup1\n  0x40\n  add\n  0x40\n  mstore\n  dup1\n  0x07\n  dup2\n  mstore\n  0x20\n  add\n  0x48656c6c6f2c2000000000000000000000000000000000000000000000000000\n  dup2\n  mstore\n  pop\n  0x00\n  swap1\n  dup1\n  mload\n  swap1\n  0x20\n  add\n  swap1\n  tag_1\n  swap3\n  swap2\n  swap1\n  tag_2\n  jump\t// in\ntag_1:\n  pop\n    /* \"study/chapter07/stirngOpt.sol\":119:143  string public s = \"i am\" */\n  mload(0x40)\n  dup1\n  0x40\n  add\n  0x40\n  mstore\n  dup1\n  0x04\n  dup2\n  mstore\n  0x20\n  add\n  0x6920616d00000000000000000000000000000000000000000000000000000000\n  dup2\n  mstore\n  pop\n  0x01\n  swap1\n  dup1\n  mload\n  swap1\n  0x20\n  add\n  swap1\n  tag_3\n  swap3\n  swap2\n  swap1\n  tag_2\n  jump\t// in\ntag_3:\n  pop\n    /* \"study/chapter07/stirngOpt.sol\":149:173  string public s1 = \" wp\" */\n  mload(0x40)\n  dup1\n  0x40\n  add\n  0x40\n  mstore\n  dup1\n  0x03\n  dup2\n  mstore\n  0x20\n  add\n  0x2077700000000000000000000000000000000000000000000000000000000000\n  dup2\n  mstore\n  pop\n  0x02\n  swap1\n  dup1\n  mload\n  swap1\n  0x20\n  add\n  swap1\n  tag_4\n  swap3\n  swap2\n  swap1\n  tag_2\n  jump\t// in\ntag_4:\n  pop\n    /* \"study/chapter07/stirngOpt.sol\":224:225  s */\n  0x01\n    /* \"study/chapter07/stirngOpt.sol\":233:235  s1 */\n  0x02\n    /* \"study/chapter07/stirngOpt.sol\":205:237  bytes.concat(bytes(s),bytes(s1)) */\n  add(0x20, mload(0x40))\n  tag_5\n  swap3\n  swap2\n  swap1\n  tag_6\n  jump\t// in\ntag_5:\n  mload(0x40)\n  0x20\n  dup2\n  dup4\n  sub\n  sub\n  dup2\n  mstore\n  swap1\n  0x40\n  mstore\n    /* \"study/chapter07/stirngOpt.sol\":179:238  string public s2 = string(bytes.concat(bytes(s),bytes(s1))) */\n  0x03\n  swap1\n  dup1\n  mload\n  swap1\n  0x20\n  add\n  swap1\n  tag_7\n  swap3\n  swap2\n  swap1\n  tag_2\n  jump\t// in\ntag_7:\n  pop\n    /* \"study/chapter07/stirngOpt.sol\":56:242  contract Hello {... */\n  callvalue\n  dup1\n  iszero\n  tag_8\n  jumpi\n  0x00\n  dup1\n  revert\ntag_8:\n  pop\n  jump(tag_9)\ntag_2:\n  dup3\n  dup1\n  sload\n  tag_10\n  swap1\n  tag_11\n  jump\t// in\ntag_10:\n  swap1\n  0x00\n  mstore\n  keccak256(0x00, 0x20)\n  swap1\n  0x1f\n  add\n  0x20\n  swap1\n  div\n  dup2\n  add\n  swap3\n  dup3\n  tag_13\n  jumpi\n  0x00\n  dup6\n  sstore\n  jump(tag_12)\ntag_13:\n  dup3\n  0x1f\n  lt\n  tag_14\n  jumpi\n  dup1\n  mload\n  not(0xff)\n  and\n  dup4\n  dup1\n  add\n  or\n  dup6\n  sstore\n  jump(tag_12)\ntag_14:\n  dup3\n  dup1\n  add\n  0x01\n  add\n  dup6\n  sstore\n  dup3\n  iszero\n  tag_12\n  jumpi\n  swap2\n  dup3\n  add\ntag_15:\n  dup3\n  dup2\n  gt\n  iszero\n  tag_16\n  jumpi\n  dup3\n  mload\n  dup3\n  sstore\n  swap2\n  0x20\n  add\n  swap2\n  swap1\n  0x01\n  add\n  swap1\n  jump(tag_15)\ntag_16:\ntag_12:\n  pop\n  swap1\n  pop\n  tag_17\n  swap2\n  swap1\n  tag_18\n  jump\t// in\ntag_17:\n  pop\n  swap1\n  jump\t// out\ntag_18:\ntag_19:\n  dup1\n  dup3\n  gt\n  iszero\n  tag_20\n  jumpi\n  0x00\n  dup2\n  0x00\n  swap1\n  sstore\n  pop\n  0x01\n  add\n  jump(tag_19)\ntag_20:\n  pop\n  swap1\n  jump\t// out\n    /* \"#utility.yul\":29:878   */\ntag_22:\n    /* \"#utility.yul\":134:137   */\n  0x00\n    /* \"#utility.yul\":171:176   */\n  dup2\n    /* \"#utility.yul\":165:177   */\n  sload\n    /* \"#utility.yul\":200:236   */\n  tag_24\n    /* \"#utility.yul\":226:235   */\n  dup2\n    /* \"#utility.yul\":200:236   */\n  tag_11\n  jump\t// in\ntag_24:\n    /* \"#utility.yul\":252:340   */\n  tag_25\n    /* \"#utility.yul\":333:339   */\n  dup2\n    /* \"#utility.yul\":328:331   */\n  dup7\n    /* \"#utility.yul\":252:340   */\n  tag_26\n  jump\t// in\ntag_25:\n    /* \"#utility.yul\":245:340   */\n  swap5\n  pop\n    /* \"#utility.yul\":371:372   */\n  0x01\n    /* \"#utility.yul\":360:369   */\n  dup3\n    /* \"#utility.yul\":356:373   */\n  and\n    /* \"#utility.yul\":387:388   */\n  0x00\n    /* \"#utility.yul\":382:519   */\n  dup2\n  eq\n  tag_28\n  jumpi\n    /* \"#utility.yul\":533:534   */\n  0x01\n    /* \"#utility.yul\":528:872   */\n  dup2\n  eq\n  tag_29\n  jumpi\n    /* \"#utility.yul\":349:872   */\n  jump(tag_27)\n    /* \"#utility.yul\":382:519   */\ntag_28:\n    /* \"#utility.yul\":466:470   */\n  0xff\n    /* \"#utility.yul\":462:471   */\n  not\n    /* \"#utility.yul\":451:460   */\n  dup4\n    /* \"#utility.yul\":447:472   */\n  and\n    /* \"#utility.yul\":442:445   */\n  dup7\n    /* \"#utility.yul\":435:473   */\n  mstore\n    /* \"#utility.yul\":502:508   */\n  dup2\n    /* \"#utility.yul\":497:500   */\n  dup7\n    /* \"#utility.yul\":493:509   */\n  add\n    /* \"#utility.yul\":486:509   */\n  swap4\n  pop\n    /* \"#utility.yul\":382:519   */\n  jump(tag_27)\n    /* \"#utility.yul\":528:872   */\ntag_29:\n    /* \"#utility.yul\":595:636   */\n  tag_30\n    /* \"#utility.yul\":630:635   */\n  dup6\n    /* \"#utility.yul\":595:636   */\n  tag_31\n  jump\t// in\ntag_30:\n    /* \"#utility.yul\":658:659   */\n  0x00\n    /* \"#utility.yul\":672:826   */\ntag_32:\n    /* \"#utility.yul\":686:692   */\n  dup4\n    /* \"#utility.yul\":683:684   */\n  dup2\n    /* \"#utility.yul\":680:693   */\n  lt\n    /* \"#utility.yul\":672:826   */\n  iszero\n  tag_34\n  jumpi\n    /* \"#utility.yul\":760:767   */\n  dup2\n    /* \"#utility.yul\":754:768   */\n  sload\n    /* \"#utility.yul\":750:751   */\n  dup2\n    /* \"#utility.yul\":745:748   */\n  dup10\n    /* \"#utility.yul\":741:752   */\n  add\n    /* \"#utility.yul\":734:769   */\n  mstore\n    /* \"#utility.yul\":810:811   */\n  0x01\n    /* \"#utility.yul\":801:808   */\n  dup3\n    /* \"#utility.yul\":797:812   */\n  add\n    /* \"#utility.yul\":786:812   */\n  swap2\n  pop\n    /* \"#utility.yul\":708:712   */\n  0x20\n    /* \"#utility.yul\":705:706   */\n  dup2\n    /* \"#utility.yul\":701:713   */\n  add\n    /* \"#utility.yul\":696:713   */\n  swap1\n  pop\n    /* \"#utility.yul\":672:826   */\n  jump(tag_32)\ntag_34:\n    /* \"#utility.yul\":855:861   */\n  dup4\n    /* \"#utility.yul\":850:853   */\n  dup9\n    /* \"#utility.yul\":846:862   */\n  add\n    /* \"#utility.yul\":839:862   */\n  swap6\n  pop\n    /* \"#utility.yul\":535:872   */\n  pop\n  pop\n    /* \"#utility.yul\":349:872   */\ntag_27:\n  pop\n    /* \"#utility.yul\":138:878   */\n  pop\n  pop\n    /* \"#utility.yul\":29:878   */\n  swap3\n  swap2\n  pop\n  pop\n  jump\t// out\n    /* \"#utility.yul\":884:1315   */\ntag_6:\n    /* \"#utility.yul\":1062:1065   */\n  0x00\n    /* \"#utility.yul\":1084:1178   */\n  tag_36\n    /* \"#utility.yul\":1174:1177   */\n  dup3\n    /* \"#utility.yul\":1165:1171   */\n  dup6\n    /* \"#utility.yul\":1084:1178   */\n  tag_22\n  jump\t// in\ntag_36:\n    /* \"#utility.yul\":1077:1178   */\n  swap2\n  pop\n    /* \"#utility.yul\":1195:1289   */\n  tag_37\n    /* \"#utility.yul\":1285:1288   */\n  dup3\n    /* \"#utility.yul\":1276:1282   */\n  dup5\n    /* \"#utility.yul\":1195:1289   */\n  tag_22\n  jump\t// in\ntag_37:\n    /* \"#utility.yul\":1188:1289   */\n  swap2\n  pop\n    /* \"#utility.yul\":1306:1309   */\n  dup2\n    /* \"#utility.yul\":1299:1309   */\n  swap1\n  pop\n    /* \"#utility.yul\":884:1315   */\n  swap4\n  swap3\n  pop\n  pop\n  pop\n  jump\t// out\n    /* \"#utility.yul\":1321:1465   */\ntag_31:\n    /* \"#utility.yul\":1373:1377   */\n  0x00\n    /* \"#utility.yul\":1396:1399   */\n  dup2\n    /* \"#utility.yul\":1388:1399   */\n  swap1\n  pop\n    /* \"#utility.yul\":1419:1422   */\n  dup2\n    /* \"#utility.yul\":1416:1417   */\n  0x00\n    /* \"#utility.yul\":1409:1423   */\n  mstore\n    /* \"#utility.yul\":1453:1457   */\n  0x20\n    /* \"#utility.yul\":1450:1451   */\n  0x00\n    /* \"#utility.yul\":1440:1458   */\n  keccak256\n    /* \"#utility.yul\":1432:1458   */\n  swap1\n  pop\n    /* \"#utility.yul\":1321:1465   */\n  swap2\n  swap1\n  pop\n  jump\t// out\n    /* \"#utility.yul\":1471:1618   */\ntag_26:\n    /* \"#utility.yul\":1572:1583   */\n  0x00\n    /* \"#utility.yul\":1609:1612   */\n  dup2\n    /* \"#utility.yul\":1594:1612   */\n  swap1\n  pop\n    /* \"#utility.yul\":1471:1618   */\n  swap3\n  swap2\n  pop\n  pop\n  jump\t// out\n    /* \"#utility.yul\":1624:1944   */\ntag_11:\n    /* \"#utility.yul\":1668:1674   */\n  0x00\n    /* \"#utility.yul\":1705:1706   */\n  0x02\n    /* \"#utility.yul\":1699:1703   */\n  dup3\n    /* \"#utility.yul\":1695:1707   */\n  div\n    /* \"#utility.yul\":1685:1707   */\n  swap1\n  pop\n    /* \"#utility.yul\":1752:1753   */\n  0x01\n    /* \"#utility.yul\":1746:1750   */\n  dup3\n    /* \"#utility.yul\":1742:1754   */\n  and\n    /* \"#utility.yul\":1773:1791   */\n  dup1\n    /* \"#utility.yul\":1763:1844   */\n  tag_41\n  jumpi\n    /* \"#utility.yul\":1829:1833   */\n  0x7f\n    /* \"#utility.yul\":1821:1827   */\n  dup3\n    /* \"#utility.yul\":1817:1834   */\n  and\n    /* \"#utility.yul\":1807:1834   */\n  swap2\n  pop\n    /* \"#utility.yul\":1763:1844   */\ntag_41:\n    /* \"#utility.yul\":1891:1893   */\n  0x20\n    /* \"#utility.yul\":1883:1889   */\n  dup3\n    /* \"#utility.yul\":1880:1894   */\n  lt\n    /* \"#utility.yul\":1860:1878   */\n  dup2\n    /* \"#utility.yul\":1857:1895   */\n  eq\n    /* \"#utility.yul\":1854:1938   */\n  iszero\n  tag_42\n  jumpi\n    /* \"#utility.yul\":1910:1928   */\n  tag_43\n  tag_44\n  jump\t// in\ntag_43:\n    /* \"#utility.yul\":1854:1938   */\ntag_42:\n    /* \"#utility.yul\":1675:1944   */\n  pop\n    /* \"#utility.yul\":1624:1944   */\n  swap2\n  swap1\n  pop\n  jump\t// out\n    /* \"#utility.yul\":1950:2130   */\ntag_44:\n    /* \"#utility.yul\":1998:2075   */\n  0x4e487b7100000000000000000000000000000000000000000000000000000000\n    /* \"#utility.yul\":1995:1996   */\n  0x00\n    /* \"#utility.yul\":1988:2076   */\n  mstore\n    /* \"#utility.yul\":2095:2099   */\n  0x22\n    /* \"#utility.yul\":2092:2093   */\n  0x04\n    /* \"#utility.yul\":2085:2100   */\n  mstore\n    /* \"#utility.yul\":2119:2123   */\n  0x24\n    /* \"#utility.yul\":2116:2117   */\n  0x00\n    /* \"#utility.yul\":2109:2124   */\n  revert\n    /* \"study/chapter07/stirngOpt.sol\":56:242  contract Hello {... */\ntag_9:\n  dataSize(sub_0)\n  dup1\n  dataOffset(sub_0)\n  0x00\n  codecopy\n  0x00\n  return\nstop\n\nsub_0: assembly {\n        /* \"study/chapter07/stirngOpt.sol\":56:242  contract Hello {... */\n      mstore(0x40, 0x80)\n      callvalue\n      dup1\n      iszero\n      tag_1\n      jumpi\n      0x00\n      dup1\n      revert\n    tag_1:\n      pop\n      jumpi(tag_2, lt(calldatasize, 0x04))\n      shr(0xe0, calldataload(0x00))\n      dup1\n      0x6cc014de\n      eq\n      tag_3\n      jumpi\n      dup1\n      0x86b714e2\n      eq\n      tag_4\n      jumpi\n      dup1\n      0xa314150f\n      eq\n      tag_5\n      jumpi\n      dup1\n      0xcfae3217\n      eq\n      tag_6\n      jumpi\n    tag_2:\n      0x00\n      dup1\n      revert\n        /* \"study/chapter07/stirngOpt.sol\":149:173  string public s1 = \" wp\" */\n    tag_3:\n      tag_7\n      tag_8\n      jump\t// in\n    tag_7:\n      mload(0x40)\n      tag_9\n      swap2\n      swap1\n      tag_10\n      jump\t// in\n    tag_9:\n      mload(0x40)\n      dup1\n      swap2\n      sub\n      swap1\n      return\n        /* \"study/chapter07/stirngOpt.sol\":119:143  string public s = \"i am\" */\n    tag_4:\n      tag_11\n      tag_12\n      jump\t// in\n    tag_11:\n      mload(0x40)\n      tag_13\n      swap2\n      swap1\n      tag_10\n      jump\t// in\n    tag_13:\n      mload(0x40)\n      dup1\n      swap2\n      sub\n      swap1\n      return\n        /* \"study/chapter07/stirngOpt.sol\":179:238  string public s2 = string(bytes.concat(bytes(s),bytes(s1))) */\n    tag_5:\n      tag_14\n      tag_15\n      jump\t// in\n    tag_14:\n      mload(0x40)\n      tag_16\n      swap2\n      swap1\n      tag_10\n      jump\t// in\n    tag_16:\n      mload(0x40)\n      dup1\n      swap2\n      sub\n      swap1\n      return\n        /* \"study/chapter07/stirngOpt.sol\":77:108  string public greet = \"Hello, \" */\n    tag_6:\n      tag_17\n      tag_18\n      jump\t// in\n    tag_17:\n      mload(0x40)\n      tag_19\n      swap2\n      swap1\n      tag_10\n      jump\t// in\n    tag_19:\n      mload(0x40)\n      dup1\n      swap2\n      sub\n      swap1\n      return\n        /* \"study/chapter07/stirngOpt.sol\":149:173  string public s1 = \" wp\" */\n    tag_8:\n      0x02\n      dup1\n      sload\n      tag_20\n      swap1\n      tag_21\n      jump\t// in\n    tag_20:\n      dup1\n      0x1f\n      add\n      0x20\n      dup1\n      swap2\n      div\n      mul\n      0x20\n      add\n      mload(0x40)\n      swap1\n      dup2\n      add\n      0x40\n      mstore\n      dup1\n      swap3\n      swap2\n      swap1\n      dup2\n      dup2\n      mstore\n      0x20\n      add\n      dup3\n      dup1\n      sload\n      tag_22\n      swap1\n      tag_21\n      jump\t// in\n    tag_22:\n      dup1\n      iszero\n      tag_23\n      jumpi\n      dup1\n      0x1f\n      lt\n      tag_24\n      jumpi\n      0x0100\n      dup1\n      dup4\n      sload\n      div\n      mul\n      dup4\n      mstore\n      swap2\n      0x20\n      add\n      swap2\n      jump(tag_23)\n    tag_24:\n      dup3\n      add\n      swap2\n      swap1\n      0x00\n      mstore\n      keccak256(0x00, 0x20)\n      swap1\n    tag_25:\n      dup2\n      sload\n      dup2\n      mstore\n      swap1\n      0x01\n      add\n      swap1\n      0x20\n      add\n      dup1\n      dup4\n      gt\n      tag_25\n      jumpi\n      dup3\n      swap1\n      sub\n      0x1f\n      and\n      dup3\n      add\n      swap2\n    tag_23:\n      pop\n      pop\n      pop\n      pop\n      pop\n      dup2\n      jump\t// out\n        /* \"study/chapter07/stirngOpt.sol\":119:143  string public s = \"i am\" */\n    tag_12:\n      0x01\n      dup1\n      sload\n      tag_26\n      swap1\n      tag_21\n      jump\t// in\n    tag_26:\n      dup1\n      0x1f\n      add\n      0x20\n      dup1\n      swap2\n      div\n      mul\n      0x20\n      add\n      mload(0x40)\n      swap1\n      dup2\n      add\n      0x40\n      mstore\n      dup1\n      swap3\n      swap2\n      swap1\n      dup2\n      dup2\n      mstore\n      0x20\n      add\n      dup3\n      dup1\n      sload\n      tag_27\n      swap1\n      tag_21\n      jump\t// in\n    tag_27:\n      dup1\n      iszero\n      tag_28\n      jumpi\n      dup1\n      0x1f\n      lt\n      tag_29\n      jumpi\n      0x0100\n      dup1\n      dup4\n      sload\n      div\n      mul\n      dup4\n      mstore\n      swap2\n      0x20\n      add\n      swap2\n      jump(tag_28)\n    tag_29:\n      dup3\n      add\n      swap2\n      swap1\n      0x00\n      mstore\n      keccak256(0x00, 0x20)\n      swap1\n    tag_30:\n      dup2\n      sload\n      dup2\n      mstore\n      swap1\n      0x01\n      add\n      swap1\n      0x20\n      add\n      dup1\n      dup4\n      gt\n      tag_30\n      jumpi\n      dup3\n      swap1\n      sub\n      0x1f\n      and\n      dup3\n      add\n      swap2\n    tag_28:\n      pop\n      pop\n      pop\n      pop\n      pop\n      dup2\n      jump\t// out\n        /* \"study/chapter07/stirngOpt.sol\":179:238  string public s2 = string(bytes.concat(bytes(s),bytes(s1))) */\n    tag_15:\n      0x03\n      dup1\n      sload\n      tag_31\n      swap1\n      tag_21\n      jump\t// in\n    tag_31:\n      dup1\n      0x1f\n      add\n      0x20\n      dup1\n      swap2\n      div\n      mul\n      0x20\n      add\n      mload(0x40)\n      swap1\n      dup2\n      add\n      0x40\n      mstore\n      dup1\n      swap3\n      swap2\n      swap1\n      dup2\n      dup2\n      mstore\n      0x20\n      add\n      dup3\n      dup1\n      sload\n      tag_32\n      swap1\n      tag_21\n      jump\t// in\n    tag_32:\n      dup1\n      iszero\n      tag_33\n      jumpi\n      dup1\n      0x1f\n      lt\n      tag_34\n      jumpi\n      0x0100\n      dup1\n      dup4\n      sload\n      div\n      mul\n      dup4\n      mstore\n      swap2\n      0x20\n      add\n      swap2\n      jump(tag_33)\n    tag_34:\n      dup3\n      add\n      swap2\n      swap1\n      0x00\n      mstore\n      keccak256(0x00, 0x20)\n      swap1\n    tag_35:\n      dup2\n      sload\n      dup2\n      mstore\n      swap1\n      0x01\n      add\n      swap1\n      0x20\n      add\n      dup1\n      dup4\n      gt\n      tag_35\n      jumpi\n      dup3\n      swap1\n      sub\n      0x1f\n      and\n      dup3\n      add\n      swap2\n    tag_33:\n      pop\n      pop\n      pop\n      pop\n      pop\n      dup2\n      jump\t// out\n        /* \"study/chapter07/stirngOpt.sol\":77:108  string public greet = \"Hello, \" */\n    tag_18:\n      0x00\n      dup1\n      sload\n      tag_36\n      swap1\n      tag_21\n      jump\t// in\n    tag_36:\n      dup1\n      0x1f\n      add\n      0x20\n      dup1\n      swap2\n      div\n      mul\n      0x20\n      add\n      mload(0x40)\n      swap1\n      dup2\n      add\n      0x40\n      mstore\n      dup1\n      swap3\n      swap2\n      swap1\n      dup2\n      dup2\n      mstore\n      0x20\n      add\n      dup3\n      dup1\n      sload\n      tag_37\n      swap1\n      tag_21\n      jump\t// in\n    tag_37:\n      dup1\n      iszero\n      tag_38\n      jumpi\n      dup1\n      0x1f\n      lt\n      tag_39\n      jumpi\n      0x0100\n      dup1\n      dup4\n      sload\n      div\n      mul\n      dup4\n      mstore\n      swap2\n      0x20\n      add\n      swap2\n      jump(tag_38)\n    tag_39:\n      dup3\n      add\n      swap2\n      swap1\n      0x00\n      mstore\n      keccak256(0x00, 0x20)\n      swap1\n    tag_40:\n      dup2\n      sload\n      dup2\n      mstore\n      swap1\n      0x01\n      add\n      swap1\n      0x20\n      add\n      dup1\n      dup4\n      gt\n      tag_40\n      jumpi\n      dup3\n      swap1\n      sub\n      0x1f\n      and\n      dup3\n      add\n      swap2\n    tag_38:\n      pop\n      pop\n      pop\n      pop\n      pop\n      dup2\n      jump\t// out\n        /* \"#utility.yul\":7:371   */\n    tag_42:\n        /* \"#utility.yul\":95:98   */\n      0x00\n        /* \"#utility.yul\":123:162   */\n      tag_44\n        /* \"#utility.yul\":156:161   */\n      dup3\n        /* \"#utility.yul\":123:162   */\n      tag_45\n      jump\t// in\n    tag_44:\n        /* \"#utility.yul\":178:249   */\n      tag_46\n        /* \"#utility.yul\":242:248   */\n      dup2\n        /* \"#utility.yul\":237:240   */\n      dup6\n        /* \"#utility.yul\":178:249   */\n      tag_47\n      jump\t// in\n    tag_46:\n        /* \"#utility.yul\":171:249   */\n      swap4\n      pop\n        /* \"#utility.yul\":258:310   */\n      tag_48\n        /* \"#utility.yul\":303:309   */\n      dup2\n        /* \"#utility.yul\":298:301   */\n      dup6\n        /* \"#utility.yul\":291:295   */\n      0x20\n        /* \"#utility.yul\":284:289   */\n      dup7\n        /* \"#utility.yul\":280:296   */\n      add\n        /* \"#utility.yul\":258:310   */\n      tag_49\n      jump\t// in\n    tag_48:\n        /* \"#utility.yul\":335:364   */\n      tag_50\n        /* \"#utility.yul\":357:363   */\n      dup2\n        /* \"#utility.yul\":335:364   */\n      tag_51\n      jump\t// in\n    tag_50:\n        /* \"#utility.yul\":330:333   */\n      dup5\n        /* \"#utility.yul\":326:365   */\n      add\n        /* \"#utility.yul\":319:365   */\n      swap2\n      pop\n        /* \"#utility.yul\":99:371   */\n      pop\n        /* \"#utility.yul\":7:371   */\n      swap3\n      swap2\n      pop\n      pop\n      jump\t// out\n        /* \"#utility.yul\":377:690   */\n    tag_10:\n        /* \"#utility.yul\":490:494   */\n      0x00\n        /* \"#utility.yul\":528:530   */\n      0x20\n        /* \"#utility.yul\":517:526   */\n      dup3\n        /* \"#utility.yul\":513:531   */\n      add\n        /* \"#utility.yul\":505:531   */\n      swap1\n      pop\n        /* \"#utility.yul\":577:586   */\n      dup2\n        /* \"#utility.yul\":571:575   */\n      dup2\n        /* \"#utility.yul\":567:587   */\n      sub\n        /* \"#utility.yul\":563:564   */\n      0x00\n        /* \"#utility.yul\":552:561   */\n      dup4\n        /* \"#utility.yul\":548:565   */\n      add\n        /* \"#utility.yul\":541:588   */\n      mstore\n        /* \"#utility.yul\":605:683   */\n      tag_53\n        /* \"#utility.yul\":678:682   */\n      dup2\n        /* \"#utility.yul\":669:675   */\n      dup5\n        /* \"#utility.yul\":605:683   */\n      tag_42\n      jump\t// in\n    tag_53:\n        /* \"#utility.yul\":597:683   */\n      swap1\n      pop\n        /* \"#utility.yul\":377:690   */\n      swap3\n      swap2\n      pop\n      pop\n      jump\t// out\n        /* \"#utility.yul\":696:795   */\n    tag_45:\n        /* \"#utility.yul\":748:754   */\n      0x00\n        /* \"#utility.yul\":782:787   */\n      dup2\n        /* \"#utility.yul\":776:788   */\n      mload\n        /* \"#utility.yul\":766:788   */\n      swap1\n      pop\n        /* \"#utility.yul\":696:795   */\n      swap2\n      swap1\n      pop\n      jump\t// out\n        /* \"#utility.yul\":801:970   */\n    tag_47:\n        /* \"#utility.yul\":885:896   */\n      0x00\n        /* \"#utility.yul\":919:925   */\n      dup3\n        /* \"#utility.yul\":914:917   */\n      dup3\n        /* \"#utility.yul\":907:926   */\n      mstore\n        /* \"#utility.yul\":959:963   */\n      0x20\n        /* \"#utility.yul\":954:957   */\n      dup3\n        /* \"#utility.yul\":950:964   */\n      add\n        /* \"#utility.yul\":935:964   */\n      swap1\n      pop\n        /* \"#utility.yul\":801:970   */\n      swap3\n      swap2\n      pop\n      pop\n      jump\t// out\n        /* \"#utility.yul\":976:1283   */\n    tag_49:\n        /* \"#utility.yul\":1044:1045   */\n      0x00\n        /* \"#utility.yul\":1054:1167   */\n    tag_57:\n        /* \"#utility.yul\":1068:1074   */\n      dup4\n        /* \"#utility.yul\":1065:1066   */\n      dup2\n        /* \"#utility.yul\":1062:1075   */\n      lt\n        /* \"#utility.yul\":1054:1167   */\n      iszero\n      tag_59\n      jumpi\n        /* \"#utility.yul\":1153:1154   */\n      dup1\n        /* \"#utility.yul\":1148:1151   */\n      dup3\n        /* \"#utility.yul\":1144:1155   */\n      add\n        /* \"#utility.yul\":1138:1156   */\n      mload\n        /* \"#utility.yul\":1134:1135   */\n      dup2\n        /* \"#utility.yul\":1129:1132   */\n      dup5\n        /* \"#utility.yul\":1125:1136   */\n      add\n        /* \"#utility.yul\":1118:1157   */\n      mstore\n        /* \"#utility.yul\":1090:1092   */\n      0x20\n        /* \"#utility.yul\":1087:1088   */\n      dup2\n        /* \"#utility.yul\":1083:1093   */\n      add\n        /* \"#utility.yul\":1078:1093   */\n      swap1\n      pop\n        /* \"#utility.yul\":1054:1167   */\n      jump(tag_57)\n    tag_59:\n        /* \"#utility.yul\":1185:1191   */\n      dup4\n        /* \"#utility.yul\":1182:1183   */\n      dup2\n        /* \"#utility.yul\":1179:1192   */\n      gt\n        /* \"#utility.yul\":1176:1277   */\n      iszero\n      tag_60\n      jumpi\n        /* \"#utility.yul\":1265:1266   */\n      0x00\n        /* \"#utility.yul\":1256:1262   */\n      dup5\n        /* \"#utility.yul\":1251:1254   */\n      dup5\n        /* \"#utility.yul\":1247:1263   */\n      add\n        /* \"#utility.yul\":1240:1267   */\n      mstore\n        /* \"#utility.yul\":1176:1277   */\n    tag_60:\n        /* \"#utility.yul\":1025:1283   */\n      pop\n        /* \"#utility.yul\":976:1283   */\n      pop\n      pop\n      pop\n      jump\t// out\n        /* \"#utility.yul\":1289:1609   */\n    tag_21:\n        /* \"#utility.yul\":1333:1339   */\n      0x00\n        /* \"#utility.yul\":1370:1371   */\n      0x02\n        /* \"#utility.yul\":1364:1368   */\n      dup3\n        /* \"#utility.yul\":1360:1372   */\n      div\n        /* \"#utility.yul\":1350:1372   */\n      swap1\n      pop\n        /* \"#utility.yul\":1417:1418   */\n      0x01\n        /* \"#utility.yul\":1411:1415   */\n      dup3\n        /* \"#utility.yul\":1407:1419   */\n      and\n        /* \"#utility.yul\":1438:1456   */\n      dup1\n        /* \"#utility.yul\":1428:1509   */\n      tag_62\n      jumpi\n        /* \"#utility.yul\":1494:1498   */\n      0x7f\n        /* \"#utility.yul\":1486:1492   */\n      dup3\n        /* \"#utility.yul\":1482:1499   */\n      and\n        /* \"#utility.yul\":1472:1499   */\n      swap2\n      pop\n        /* \"#utility.yul\":1428:1509   */\n    tag_62:\n        /* \"#utility.yul\":1556:1558   */\n      0x20\n        /* \"#utility.yul\":1548:1554   */\n      dup3\n        /* \"#utility.yul\":1545:1559   */\n      lt\n        /* \"#utility.yul\":1525:1543   */\n      dup2\n        /* \"#utility.yul\":1522:1560   */\n      eq\n        /* \"#utility.yul\":1519:1603   */\n      iszero\n      tag_63\n      jumpi\n        /* \"#utility.yul\":1575:1593   */\n      tag_64\n      tag_65\n      jump\t// in\n    tag_64:\n        /* \"#utility.yul\":1519:1603   */\n    tag_63:\n        /* \"#utility.yul\":1340:1609   */\n      pop\n        /* \"#utility.yul\":1289:1609   */\n      swap2\n      swap1\n      pop\n      jump\t// out\n        /* \"#utility.yul\":1615:1795   */\n    tag_65:\n        /* \"#utility.yul\":1663:1740   */\n      0x4e487b7100000000000000000000000000000000000000000000000000000000\n        /* \"#utility.yul\":1660:1661   */\n      0x00\n        /* \"#utility.yul\":1653:1741   */\n      mstore\n        /* \"#utility.yul\":1760:1764   */\n      0x22\n        /* \"#utility.yul\":1757:1758   */\n      0x04\n        /* \"#utility.yul\":1750:1765   */\n      mstore\n        /* \"#utility.yul\":1784:1788   */\n      0x24\n        /* \"#utility.yul\":1781:1782   */\n      0x00\n        /* \"#utility.yul\":1774:1789   */\n      revert\n        /* \"#utility.yul\":1801:1903   */\n    tag_51:\n        /* \"#utility.yul\":1842:1848   */\n      0x00\n        /* \"#utility.yul\":1893:1895   */\n      0x1f\n        /* \"#utility.yul\":1889:1896   */\n      not\n        /* \"#utility.yul\":1884:1886   */\n      0x1f\n        /* \"#utility.yul\":1877:1882   */\n      dup4\n        /* \"#utility.yul\":1873:1887   */\n      add\n        /* \"#utility.yul\":1869:1897   */\n      and\n        /* \"#utility.yul\":1859:1897   */\n      swap1\n      pop\n        /* \"#utility.yul\":1801:1903   */\n      swap2\n      swap1\n      pop\n      jump\t// out\n\n    auxdata: 0xa26469706673582212209ef49cee40e18a6665318286b738d0ba0e415e43e9dbca62eaf97cba613fab7564736f6c63430008070033\n}\n",
				"bytecode": {
					"linkReferences": {},
					"object": "60806040526040518060400160405280600781526020017f48656c6c6f2c20000000000000000000000000000000000000000000000000008152506000908051906020019061004f929190610134565b506040518060400160405280600481526020017f6920616d000000000000000000000000000000000000000000000000000000008152506001908051906020019061009b929190610134565b506040518060400160405280600381526020017f2077700000000000000000000000000000000000000000000000000000000000815250600290805190602001906100e7929190610134565b50600160026040516020016100fd929190610256565b60405160208183030381529060405260039080519060200190610121929190610134565b5034801561012e57600080fd5b506102fb565b8280546101409061029a565b90600052602060002090601f01602090048101928261016257600085556101a9565b82601f1061017b57805160ff19168380011785556101a9565b828001600101855582156101a9579182015b828111156101a857825182559160200191906001019061018d565b5b5090506101b691906101ba565b5090565b5b808211156101d35760008160009055506001016101bb565b5090565b600081546101e48161029a565b6101ee818661028f565b94506001821660008114610209576001811461021a5761024d565b60ff1983168652818601935061024d565b6102238561027a565b60005b8381101561024557815481890152600182019150602081019050610226565b838801955050505b50505092915050565b600061026282856101d7565b915061026e82846101d7565b91508190509392505050565b60008190508160005260206000209050919050565b600081905092915050565b600060028204905060018216806102b257607f821691505b602082108114156102c6576102c56102cc565b5b50919050565b7f4e487b7100000000000000000000000000000000000000000000000000000000600052602260045260246000fd5b6104538061030a6000396000f3fe608060405234801561001057600080fd5b506004361061004c5760003560e01c80636cc014de1461005157806386b714e21461006f578063a314150f1461008d578063cfae3217146100ab575b600080fd5b6100596100c9565b604051610066919061033a565b60405180910390f35b610077610157565b604051610084919061033a565b60405180910390f35b6100956101e5565b6040516100a2919061033a565b60405180910390f35b6100b3610273565b6040516100c0919061033a565b60405180910390f35b600280546100d6906103ab565b80601f0160208091040260200160405190810160405280929190818152602001828054610102906103ab565b801561014f5780601f106101245761010080835404028352916020019161014f565b820191906000526020600020905b81548152906001019060200180831161013257829003601f168201915b505050505081565b60018054610164906103ab565b80601f0160208091040260200160405190810160405280929190818152602001828054610190906103ab565b80156101dd5780601f106101b2576101008083540402835291602001916101dd565b820191906000526020600020905b8154815290600101906020018083116101c057829003601f168201915b505050505081565b600380546101f2906103ab565b80601f016020809104026020016040519081016040528092919081815260200182805461021e906103ab565b801561026b5780601f106102405761010080835404028352916020019161026b565b820191906000526020600020905b81548152906001019060200180831161024e57829003601f168201915b505050505081565b60008054610280906103ab565b80601f01602080910402602001604051908101604052809291908181526020018280546102ac906103ab565b80156102f95780601f106102ce576101008083540402835291602001916102f9565b820191906000526020600020905b8154815290600101906020018083116102dc57829003601f168201915b505050505081565b600061030c8261035c565b6103168185610367565b9350610326818560208601610378565b61032f8161040c565b840191505092915050565b600060208201905081810360008301526103548184610301565b905092915050565b600081519050919050565b600082825260208201905092915050565b60005b8381101561039657808201518184015260208101905061037b565b838111156103a5576000848401525b50505050565b600060028204905060018216806103c357607f821691505b602082108114156103d7576103d66103dd565b5b50919050565b7f4e487b7100000000000000000000000000000000000000000000000000000000600052602260045260246000fd5b6000601f19601f830116905091905056fea26469706673582212209ef49cee40e18a6665318286b738d0ba0e415e43e9dbca62eaf97cba613fab7564736f6c63430008070033",
					"opcodes": "PUSH1 0x80 PUSH1 0x40 MSTORE PUSH1 0x40 MLOAD DUP1 PUSH1 0x40 ADD PUSH1 0x40 MSTORE DUP1 PUSH1 0x7 DUP2 MSTORE PUSH1 0x20 ADD PUSH32 0x48656C6C6F2C2000000000000000000000000000000000000000000000000000 DUP2 MSTORE POP PUSH1 0x0 SWAP1 DUP1 MLOAD SWAP1 PUSH1 0x20 ADD SWAP1 PUSH2 0x4F SWAP3 SWAP2 SWAP1 PUSH2 0x134 JUMP JUMPDEST POP PUSH1 0x40 MLOAD DUP1 PUSH1 0x40 ADD PUSH1 0x40 MSTORE DUP1 PUSH1 0x4 DUP2 MSTORE PUSH1 0x20 ADD PUSH32 0x6920616D00000000000000000000000000000000000000000000000000000000 DUP2 MSTORE POP PUSH1 0x1 SWAP1 DUP1 MLOAD SWAP1 PUSH1 0x20 ADD SWAP1 PUSH2 0x9B SWAP3 SWAP2 SWAP1 PUSH2 0x134 JUMP JUMPDEST POP PUSH1 0x40 MLOAD DUP1 PUSH1 0x40 ADD PUSH1 0x40 MSTORE DUP1 PUSH1 0x3 DUP2 MSTORE PUSH1 0x20 ADD PUSH32 0x2077700000000000000000000000000000000000000000000000000000000000 DUP2 MSTORE POP PUSH1 0x2 SWAP1 DUP1 MLOAD SWAP1 PUSH1 0x20 ADD SWAP1 PUSH2 0xE7 SWAP3 SWAP2 SWAP1 PUSH2 0x134 JUMP JUMPDEST POP PUSH1 0x1 PUSH1 0x2 PUSH1 0x40 MLOAD PUSH1 0x20 ADD PUSH2 0xFD SWAP3 SWAP2 SWAP1 PUSH2 0x256 JUMP JUMPDEST PUSH1 0x40 MLOAD PUSH1 0x20 DUP2 DUP4 SUB SUB DUP2 MSTORE SWAP1 PUSH1 0x40 MSTORE PUSH1 0x3 SWAP1 DUP1 MLOAD SWAP1 PUSH1 0x20 ADD SWAP1 PUSH2 0x121 SWAP3 SWAP2 SWAP1 PUSH2 0x134 JUMP JUMPDEST POP CALLVALUE DUP1 ISZERO PUSH2 0x12E JUMPI PUSH1 0x0 DUP1 REVERT JUMPDEST POP PUSH2 0x2FB JUMP JUMPDEST DUP3 DUP1 SLOAD PUSH2 0x140 SWAP1 PUSH2 0x29A JUMP JUMPDEST SWAP1 PUSH1 0x0 MSTORE PUSH1 0x20 PUSH1 0x0 KECCAK256 SWAP1 PUSH1 0x1F ADD PUSH1 0x20 SWAP1 DIV DUP2 ADD SWAP3 DUP3 PUSH2 0x162 JUMPI PUSH1 0x0 DUP6 SSTORE PUSH2 0x1A9 JUMP JUMPDEST DUP3 PUSH1 0x1F LT PUSH2 0x17B JUMPI DUP1 MLOAD PUSH1 0xFF NOT AND DUP4 DUP1 ADD OR DUP6 SSTORE PUSH2 0x1A9 JUMP JUMPDEST DUP3 DUP1 ADD PUSH1 0x1 ADD DUP6 SSTORE DUP3 ISZERO PUSH2 0x1A9 JUMPI SWAP2 DUP3 ADD JUMPDEST DUP3 DUP2 GT ISZERO PUSH2 0x1A8 JUMPI DUP3 MLOAD DUP3 SSTORE SWAP2 PUSH1 0x20 ADD SWAP2 SWAP1 PUSH1 0x1 ADD SWAP1 PUSH2 0x18D JUMP JUMPDEST JUMPDEST POP SWAP1 POP PUSH2 0x1B6 SWAP2 SWAP1 PUSH2 0x1BA JUMP JUMPDEST POP SWAP1 JUMP JUMPDEST JUMPDEST DUP1 DUP3 GT ISZERO PUSH2 0x1D3 JUMPI PUSH1 0x0 DUP2 PUSH1 0x0 SWAP1 SSTORE POP PUSH1 0x1 ADD PUSH2 0x1BB JUMP JUMPDEST POP SWAP1 JUMP JUMPDEST PUSH1 0x0 DUP2 SLOAD PUSH2 0x1E4 DUP2 PUSH2 0x29A JUMP JUMPDEST PUSH2 0x1EE DUP2 DUP7 PUSH2 0x28F JUMP JUMPDEST SWAP5 POP PUSH1 0x1 DUP3 AND PUSH1 0x0 DUP2 EQ PUSH2 0x209 JUMPI PUSH1 0x1 DUP2 EQ PUSH2 0x21A JUMPI PUSH2 0x24D JUMP JUMPDEST PUSH1 0xFF NOT DUP4 AND DUP7 MSTORE DUP2 DUP7 ADD SWAP4 POP PUSH2 0x24D JUMP JUMPDEST PUSH2 0x223 DUP6 PUSH2 0x27A JUMP JUMPDEST PUSH1 0x0 JUMPDEST DUP4 DUP2 LT ISZERO PUSH2 0x245 JUMPI DUP2 SLOAD DUP2 DUP10 ADD MSTORE PUSH1 0x1 DUP3 ADD SWAP2 POP PUSH1 0x20 DUP2 ADD SWAP1 POP PUSH2 0x226 JUMP JUMPDEST DUP4 DUP9 ADD SWAP6 POP POP POP JUMPDEST POP POP POP SWAP3 SWAP2 POP POP JUMP JUMPDEST PUSH1 0x0 PUSH2 0x262 DUP3 DUP6 PUSH2 0x1D7 JUMP JUMPDEST SWAP2 POP PUSH2 0x26E DUP3 DUP5 PUSH2 0x1D7 JUMP JUMPDEST SWAP2 POP DUP2 SWAP1 POP SWAP4 SWAP3 POP POP POP JUMP JUMPDEST PUSH1 0x0 DUP2 SWAP1 POP DUP2 PUSH1 0x0 MSTORE PUSH1 0x20 PUSH1 0x0 KECCAK256 SWAP1 POP SWAP2 SWAP1 POP JUMP JUMPDEST PUSH1 0x0 DUP2 SWAP1 POP SWAP3 SWAP2 POP POP JUMP JUMPDEST PUSH1 0x0 PUSH1 0x2 DUP3 DIV SWAP1 POP PUSH1 0x1 DUP3 AND DUP1 PUSH2 0x2B2 JUMPI PUSH1 0x7F DUP3 AND SWAP2 POP JUMPDEST PUSH1 0x20 DUP3 LT DUP2 EQ ISZERO PUSH2 0x2C6 JUMPI PUSH2 0x2C5 PUSH2 0x2CC JUMP JUMPDEST JUMPDEST POP SWAP2 SWAP1 POP JUMP JUMPDEST PUSH32 0x4E487B7100000000000000000000000000000000000000000000000000000000 PUSH1 0x0 MSTORE PUSH1 0x22 PUSH1 0x4 MSTORE PUSH1 0x24 PUSH1 0x0 REVERT JUMPDEST PUSH2 0x453 DUP1 PUSH2 0x30A PUSH1 0x0 CODECOPY PUSH1 0x0 RETURN INVALID PUSH1 0x80 PUSH1 0x40 MSTORE CALLVALUE DUP1 ISZERO PUSH2 0x10 JUMPI PUSH1 0x0 DUP1 REVERT JUMPDEST POP PUSH1 0x4 CALLDATASIZE LT PUSH2 0x4C JUMPI PUSH1 0x0 CALLDATALOAD PUSH1 0xE0 SHR DUP1 PUSH4 0x6CC014DE EQ PUSH2 0x51 JUMPI DUP1 PUSH4 0x86B714E2 EQ PUSH2 0x6F JUMPI DUP1 PUSH4 0xA314150F EQ PUSH2 0x8D JUMPI DUP1 PUSH4 0xCFAE3217 EQ PUSH2 0xAB JUMPI JUMPDEST PUSH1 0x0 DUP1 REVERT JUMPDEST PUSH2 0x59 PUSH2 0xC9 JUMP JUMPDEST PUSH1 0x40 MLOAD PUSH2 0x66 SWAP2 SWAP1 PUSH2 0x33A JUMP JUMPDEST PUSH1 0x40 MLOAD DUP1 SWAP2 SUB SWAP1 RETURN JUMPDEST PUSH2 0x77 PUSH2 0x157 JUMP JUMPDEST PUSH1 0x40 MLOAD PUSH2 0x84 SWAP2 SWAP1 PUSH2 0x33A JUMP JUMPDEST PUSH1 0x40 MLOAD DUP1 SWAP2 SUB SWAP1 RETURN JUMPDEST PUSH2 0x95 PUSH2 0x1E5 JUMP JUMPDEST PUSH1 0x40 MLOAD PUSH2 0xA2 SWAP2 SWAP1 PUSH2 0x33A JUMP JUMPDEST PUSH1 0x40 MLOAD DUP1 SWAP2 SUB SWAP1 RETURN JUMPDEST PUSH2 0xB3 PUSH2 0x273 JUMP JUMPDEST PUSH1 0x40 MLOAD PUSH2 0xC0 SWAP2 SWAP1 PUSH2 0x33A JUMP JUMPDEST PUSH1 0x40 MLOAD DUP1 SWAP2 SUB SWAP1 RETURN JUMPDEST PUSH1 0x2 DUP1 SLOAD PUSH2 0xD6 SWAP1 PUSH2 0x3AB JUMP JUMPDEST DUP1 PUSH1 0x1F ADD PUSH1 0x20 DUP1 SWAP2 DIV MUL PUSH1 0x20 ADD PUSH1 0x40 MLOAD SWAP1 DUP2 ADD PUSH1 0x40 MSTORE DUP1 SWAP3 SWAP2 SWAP1 DUP2 DUP2 MSTORE PUSH1 0x20 ADD DUP3 DUP1 SLOAD PUSH2 0x102 SWAP1 PUSH2 0x3AB JUMP JUMPDEST DUP1 ISZERO PUSH2 0x14F JUMPI DUP1 PUSH1 0x1F LT PUSH2 0x124 JUMPI PUSH2 0x100 DUP1 DUP4 SLOAD DIV MUL DUP4 MSTORE SWAP2 PUSH1 0x20 ADD SWAP2 PUSH2 0x14F JUMP JUMPDEST DUP3 ADD SWAP2 SWAP1 PUSH1 0x0 MSTORE PUSH1 0x20 PUSH1 0x0 KECCAK256 SWAP1 JUMPDEST DUP2 SLOAD DUP2 MSTORE SWAP1 PUSH1 0x1 ADD SWAP1 PUSH1 0x20 ADD DUP1 DUP4 GT PUSH2 0x132 JUMPI DUP3 SWAP1 SUB PUSH1 0x1F AND DUP3 ADD SWAP2 JUMPDEST POP POP POP POP POP DUP2 JUMP JUMPDEST PUSH1 0x1 DUP1 SLOAD PUSH2 0x164 SWAP1 PUSH2 0x3AB JUMP JUMPDEST DUP1 PUSH1 0x1F ADD PUSH1 0x20 DUP1 SWAP2 DIV MUL PUSH1 0x20 ADD PUSH1 0x40 MLOAD SWAP1 DUP2 ADD PUSH1 0x40 MSTORE DUP1 SWAP3 SWAP2 SWAP1 DUP2 DUP2 MSTORE PUSH1 0x20 ADD DUP3 DUP1 SLOAD PUSH2 0x190 SWAP1 PUSH2 0x3AB JUMP JUMPDEST DUP1 ISZERO PUSH2 0x1DD JUMPI DUP1 PUSH1 0x1F LT PUSH2 0x1B2 JUMPI PUSH2 0x100 DUP1 DUP4 SLOAD DIV MUL DUP4 MSTORE SWAP2 PUSH1 0x20 ADD SWAP2 PUSH2 0x1DD JUMP JUMPDEST DUP3 ADD SWAP2 SWAP1 PUSH1 0x0 MSTORE PUSH1 0x20 PUSH1 0x0 KECCAK256 SWAP1 JUMPDEST DUP2 SLOAD DUP2 MSTORE SWAP1 PUSH1 0x1 ADD SWAP1 PUSH1 0x20 ADD DUP1 DUP4 GT PUSH2 0x1C0 JUMPI DUP3 SWAP1 SUB PUSH1 0x1F AND DUP3 ADD SWAP2 JUMPDEST POP POP POP POP POP DUP2 JUMP JUMPDEST PUSH1 0x3 DUP1 SLOAD PUSH2 0x1F2 SWAP1 PUSH2 0x3AB JUMP JUMPDEST DUP1 PUSH1 0x1F ADD PUSH1 0x20 DUP1 SWAP2 DIV MUL PUSH1 0x20 ADD PUSH1 0x40 MLOAD SWAP1 DUP2 ADD PUSH1 0x40 MSTORE DUP1 SWAP3 SWAP2 SWAP1 DUP2 DUP2 MSTORE PUSH1 0x20 ADD DUP3 DUP1 SLOAD PUSH2 0x21E SWAP1 PUSH2 0x3AB JUMP JUMPDEST DUP1 ISZERO PUSH2 0x26B JUMPI DUP1 PUSH1 0x1F LT PUSH2 0x240 JUMPI PUSH2 0x100 DUP1 DUP4 SLOAD DIV MUL DUP4 MSTORE SWAP2 PUSH1 0x20 ADD SWAP2 PUSH2 0x26B JUMP JUMPDEST DUP3 ADD SWAP2 SWAP1 PUSH1 0x0 MSTORE PUSH1 0x20 PUSH1 0x0 KECCAK256 SWAP1 JUMPDEST DUP2 SLOAD DUP2 MSTORE SWAP1 PUSH1 0x1 ADD SWAP1 PUSH1 0x20 ADD DUP1 DUP4 GT PUSH2 0x24E JUMPI DUP3 SWAP1 SUB PUSH1 0x1F AND DUP3 ADD SWAP2 JUMPDEST POP POP POP POP POP DUP2 JUMP JUMPDEST PUSH1 0x0 DUP1 SLOAD PUSH2 0x280 SWAP1 PUSH2 0x3AB JUMP JUMPDEST DUP1 PUSH1 0x1F ADD PUSH1 0x20 DUP1 SWAP2 DIV MUL PUSH1 0x20 ADD PUSH1 0x40 MLOAD SWAP1 DUP2 ADD PUSH1 0x40 MSTORE DUP1 SWAP3 SWAP2 SWAP1 DUP2 DUP2 MSTORE PUSH1 0x20 ADD DUP3 DUP1 SLOAD PUSH2 0x2AC SWAP1 PUSH2 0x3AB JUMP JUMPDEST DUP1 ISZERO PUSH2 0x2F9 JUMPI DUP1 PUSH1 0x1F LT PUSH2 0x2CE JUMPI PUSH2 0x100 DUP1 DUP4 SLOAD DIV MUL DUP4 MSTORE SWAP2 PUSH1 0x20 ADD SWAP2 PUSH2 0x2F9 JUMP JUMPDEST DUP3 ADD SWAP2 SWAP1 PUSH1 0x0 MSTORE PUSH1 0x20 PUSH1 0x0 KECCAK256 SWAP1 JUMPDEST DUP2 SLOAD DUP2 MSTORE SWAP1 PUSH1 0x1 ADD SWAP1 PUSH1 0x20 ADD DUP1 DUP4 GT PUSH2 0x2DC JUMPI DUP3 SWAP1 SUB PUSH1 0x1F AND DUP3 ADD SWAP2 JUMPDEST POP POP POP POP POP DUP2 JUMP JUMPDEST PUSH1 0x0 PUSH2 0x30C DUP3 PUSH2 0x35C JUMP JUMPDEST PUSH2 0x316 DUP2 DUP6 PUSH2 0x367 JUMP JUMPDEST SWAP4 POP PUSH2 0x326 DUP2 DUP6 PUSH1 0x20 DUP7 ADD PUSH2 0x378 JUMP JUMPDEST PUSH2 0x32F DUP2 PUSH2 0x40C JUMP JUMPDEST DUP5 ADD SWAP2 POP POP SWAP3 SWAP2 POP POP JUMP JUMPDEST PUSH1 0x0 PUSH1 0x20 DUP3 ADD SWAP1 POP DUP2 DUP2 SUB PUSH1 0x0 DUP4 ADD MSTORE PUSH2 0x354 DUP2 DUP5 PUSH2 0x301 JUMP JUMPDEST SWAP1 POP SWAP3 SWAP2 POP POP JUMP JUMPDEST PUSH1 0x0 DUP2 MLOAD SWAP1 POP SWAP2 SWAP1 POP JUMP JUMPDEST PUSH1 0x0 DUP3 DUP3 MSTORE PUSH1 0x20 DUP3 ADD SWAP1 POP SWAP3 SWAP2 POP POP JUMP JUMPDEST PUSH1 0x0 JUMPDEST DUP4 DUP2 LT ISZERO PUSH2 0x396 JUMPI DUP1 DUP3 ADD MLOAD DUP2 DUP5 ADD MSTORE PUSH1 0x20 DUP2 ADD SWAP1 POP PUSH2 0x37B JUMP JUMPDEST DUP4 DUP2 GT ISZERO PUSH2 0x3A5 JUMPI PUSH1 0x0 DUP5 DUP5 ADD MSTORE JUMPDEST POP POP POP POP JUMP JUMPDEST PUSH1 0x0 PUSH1 0x2 DUP3 DIV SWAP1 POP PUSH1 0x1 DUP3 AND DUP1 PUSH2 0x3C3 JUMPI PUSH1 0x7F DUP3 AND SWAP2 POP JUMPDEST PUSH1 0x20 DUP3 LT DUP2 EQ ISZERO PUSH2 0x3D7 JUMPI PUSH2 0x3D6 PUSH2 0x3DD JUMP JUMPDEST JUMPDEST POP SWAP2 SWAP1 POP JUMP JUMPDEST PUSH32 0x4E487B7100000000000000000000000000000000000000000000000000000000 PUSH1 0x0 MSTORE PUSH1 0x22 PUSH1 0x4 MSTORE PUSH1 0x24 PUSH1 0x0 REVERT JUMPDEST PUSH1 0x0 PUSH1 0x1F NOT PUSH1 0x1F DUP4 ADD AND SWAP1 POP SWAP2 SWAP1 POP JUMP INVALID LOG2 PUSH5 0x6970667358 0x22 SLT KECCAK256 SWAP15 DELEGATECALL SWAP13 0xEE BLOCKHASH 0xE1 DUP11 PUSH7 0x65318286B738D0 0xBA 0xE COINBASE 0x5E NUMBER 0xE9 0xDB 0xCA PUSH3 0xEAF97C 0xBA PUSH2 0x3FAB PUSH22 0x64736F6C634300080700330000000000000000000000 "
				},
				"gasEstimates": {
					"creation": {
						"codeDepositCost": "221400",
						"executionCost": "infinite",
						"totalCost": "infinite"
					},
					"external": {
						"greet()": "infinite",
						"s()": "infinite",
						"s1()": "infinite",
						"s2()": "infinite"
					}
				},
				"methodIdentifiers": {
					"greet()": "cfae3217",
					"s()": "86b714e2",
					"s1()": "6cc014de",
					"s2()": "a314150f"
				}
			},
			"storageLayout": {
				"storage": [
					{
						"astId": 4,
						"contract": "study/chapter07/stirngOpt.sol:Hello",
						"label": "greet",
						"offset": 0,
						"slot": "0",
						"type": "t_string_storage"
					},
					{
						"astId": 7,
						"contract": "study/chapter07/stirngOpt.sol:Hello",
						"label": "s",
						"offset": 0,
						"slot": "1",
						"type": "t_string_storage"
					},
					{
						"astId": 10,
						"contract": "study/chapter07/stirngOpt.sol:Hello",
						"label": "s1",
						"offset": 0,
						"slot": "2",
						"type": "t_string_storage"
					},
					{
						"astId": 27,
						"contract": "study/chapter07/stirngOpt.sol:Hello",
						"label": "s2",
						"offset": 0,
						"slot": "3",
						"type": "t_string_storage"
					}
				],
				"types": {
					"t_string_storage": {
						"encoding": "bytes",
						"label": "string",
						"numberOfBytes": "32"
					}
				}
			},
			"userdoc": {
				"kind": "user",
				"methods": {},
				"version": 1
			}
		}
	}
}