{
	"study/chapter07/stirngOpt.sol": {
		"testStringOpt": {
			"abi": [
				{
					"inputs": [],
					"name": "b1",
					"outputs": [
						{
							"internalType": "bytes",
							"name": "",
							"type": "bytes"
						}
					],
					"stateMutability": "view",
					"type": "function"
				},
				{
					"inputs": [],
					"name": "b2",
					"outputs": [
						{
							"internalType": "bytes",
							"name": "",
							"type": "bytes"
						}
					],
					"stateMutability": "view",
					"type": "function"
				},
				{
					"inputs": [],
					"name": "greet",
					"outputs": [
						{
							"internalType": "string",
							"name": "",
							"type": "string"
						}
					],
					"stateMutability": "view",
					"type": "function"
				},
				{
					"inputs": [],
					"name": "isEqual",
					"outputs": [
						{
							"internalType": "bool",
							"name": "",
							"type": "bool"
						}
					],
					"stateMutability": "view",
					"type": "function"
				},
				{
					"inputs": [],
					"name": "s1",
					"outputs": [
						{
							"internalType": "string",
							"name": "",
							"type": "string"
						}
					],
					"stateMutability": "view",
					"type": "function"
				},
				{
					"inputs": [],
					"name": "s2",
					"outputs": [
						{
							"internalType": "string",
							"name": "",
							"type": "string"
						}
					],
					"stateMutability": "view",
					"type": "function"
				},
				{
					"inputs": [
						{
							"internalType": "string",
							"name": "a",
							"type": "string"
						}
					],
					"name": "str",
					"outputs": [
						{
							"internalType": "string",
							"name": "",
							"type": "string"
						}
					],
					"stateMutability": "view",
					"type": "function"
				}
			],
			"devdoc": {
				"kind": "dev",
				"methods": {},
				"version": 1
			},
			"evm": {
				"assembly": "    /* \"study/chapter07/stirngOpt.sol\":56:572  contract testStringOpt {... */\n  mstore(0x40, 0x80)\n    /* \"study/chapter07/stirngOpt.sol\":85:116  string public greet = \"Hello, \" */\n  mload(0x40)\n  dup1\n  0x40\n  add\n  0x40\n  mstore\n  dup1\n  0x07\n  dup2\n  mstore\n  0x20\n  add\n  0x48656c6c6f2c2000000000000000000000000000000000000000000000000000\n  dup2\n  mstore\n  pop\n  0x00\n  swap1\n  dup2\n  tag_1\n  swap2\n  swap1\n  tag_2\n  jump\t// in\ntag_1:\n  pop\n    /* \"study/chapter07/stirngOpt.sol\":126:148  string public s1 = \"A\" */\n  mload(0x40)\n  dup1\n  0x40\n  add\n  0x40\n  mstore\n  dup1\n  0x01\n  dup2\n  mstore\n  0x20\n  add\n  0x4100000000000000000000000000000000000000000000000000000000000000\n  dup2\n  mstore\n  pop\n  0x01\n  swap1\n  dup2\n  tag_3\n  swap2\n  swap1\n  tag_2\n  jump\t// in\ntag_3:\n  pop\n    /* \"study/chapter07/stirngOpt.sol\":154:176  string public s2 = \"A\" */\n  mload(0x40)\n  dup1\n  0x40\n  add\n  0x40\n  mstore\n  dup1\n  0x01\n  dup2\n  mstore\n  0x20\n  add\n  0x4100000000000000000000000000000000000000000000000000000000000000\n  dup2\n  mstore\n  pop\n  0x02\n  swap1\n  dup2\n  tag_4\n  swap2\n  swap1\n  tag_2\n  jump\t// in\ntag_4:\n  pop\n    /* \"study/chapter07/stirngOpt.sol\":218:220  s1 */\n  0x01\n    /* \"study/chapter07/stirngOpt.sol\":201:221  abi.encodePacked(s1) */\n  add(0x20, mload(0x40))\n  tag_5\n  swap2\n  swap1\n  tag_6\n  jump\t// in\ntag_5:\n  mload(0x40)\n  0x20\n  dup2\n  dup4\n  sub\n  sub\n  dup2\n  mstore\n  swap1\n  0x40\n  mstore\n    /* \"study/chapter07/stirngOpt.sol\":183:221  bytes public b1 = abi.encodePacked(s1) */\n  0x03\n  swap1\n  dup2\n  tag_7\n  swap2\n  swap1\n  tag_8\n  jump\t// in\ntag_7:\n  pop\n    /* \"study/chapter07/stirngOpt.sol\":262:264  s2 */\n  0x02\n    /* \"study/chapter07/stirngOpt.sol\":245:265  abi.encodePacked(s2) */\n  add(0x20, mload(0x40))\n  tag_9\n  swap2\n  swap1\n  tag_6\n  jump\t// in\ntag_9:\n  mload(0x40)\n  0x20\n  dup2\n  dup4\n  sub\n  sub\n  dup2\n  mstore\n  swap1\n  0x40\n  mstore\n    /* \"study/chapter07/stirngOpt.sol\":227:265  bytes public b2 = abi.encodePacked(s2) */\n  0x04\n  swap1\n  dup2\n  tag_10\n  swap2\n  swap1\n  tag_8\n  jump\t// in\ntag_10:\n  pop\n    /* \"study/chapter07/stirngOpt.sol\":56:572  contract testStringOpt {... */\n  callvalue\n  dup1\n  iszero\n  tag_11\n  jumpi\n  0x00\n  dup1\n  revert\ntag_11:\n  pop\n  jump(tag_12)\n    /* \"#utility.yul\":7:106   */\ntag_13:\n    /* \"#utility.yul\":59:65   */\n  0x00\n    /* \"#utility.yul\":93:98   */\n  dup2\n    /* \"#utility.yul\":87:99   */\n  mload\n    /* \"#utility.yul\":77:99   */\n  swap1\n  pop\n    /* \"#utility.yul\":7:106   */\n  swap2\n  swap1\n  pop\n  jump\t// out\n    /* \"#utility.yul\":112:292   */\ntag_14:\n    /* \"#utility.yul\":160:237   */\n  0x4e487b7100000000000000000000000000000000000000000000000000000000\n    /* \"#utility.yul\":157:158   */\n  0x00\n    /* \"#utility.yul\":150:238   */\n  mstore\n    /* \"#utility.yul\":257:261   */\n  0x41\n    /* \"#utility.yul\":254:255   */\n  0x04\n    /* \"#utility.yul\":247:262   */\n  mstore\n    /* \"#utility.yul\":281:285   */\n  0x24\n    /* \"#utility.yul\":278:279   */\n  0x00\n    /* \"#utility.yul\":271:286   */\n  revert\n    /* \"#utility.yul\":298:478   */\ntag_15:\n    /* \"#utility.yul\":346:423   */\n  0x4e487b7100000000000000000000000000000000000000000000000000000000\n    /* \"#utility.yul\":343:344   */\n  0x00\n    /* \"#utility.yul\":336:424   */\n  mstore\n    /* \"#utility.yul\":443:447   */\n  0x22\n    /* \"#utility.yul\":440:441   */\n  0x04\n    /* \"#utility.yul\":433:448   */\n  mstore\n    /* \"#utility.yul\":467:471   */\n  0x24\n    /* \"#utility.yul\":464:465   */\n  0x00\n    /* \"#utility.yul\":457:472   */\n  revert\n    /* \"#utility.yul\":484:804   */\ntag_16:\n    /* \"#utility.yul\":528:534   */\n  0x00\n    /* \"#utility.yul\":565:566   */\n  0x02\n    /* \"#utility.yul\":559:563   */\n  dup3\n    /* \"#utility.yul\":555:567   */\n  div\n    /* \"#utility.yul\":545:567   */\n  swap1\n  pop\n    /* \"#utility.yul\":612:613   */\n  0x01\n    /* \"#utility.yul\":606:610   */\n  dup3\n    /* \"#utility.yul\":602:614   */\n  and\n    /* \"#utility.yul\":633:651   */\n  dup1\n    /* \"#utility.yul\":623:704   */\n  tag_43\n  jumpi\n    /* \"#utility.yul\":689:693   */\n  0x7f\n    /* \"#utility.yul\":681:687   */\n  dup3\n    /* \"#utility.yul\":677:694   */\n  and\n    /* \"#utility.yul\":667:694   */\n  swap2\n  pop\n    /* \"#utility.yul\":623:704   */\ntag_43:\n    /* \"#utility.yul\":751:753   */\n  0x20\n    /* \"#utility.yul\":743:749   */\n  dup3\n    /* \"#utility.yul\":740:754   */\n  lt\n    /* \"#utility.yul\":720:738   */\n  dup2\n    /* \"#utility.yul\":717:755   */\n  sub\n    /* \"#utility.yul\":714:798   */\n  tag_44\n  jumpi\n    /* \"#utility.yul\":770:788   */\n  tag_45\n  tag_15\n  jump\t// in\ntag_45:\n    /* \"#utility.yul\":714:798   */\ntag_44:\n    /* \"#utility.yul\":535:804   */\n  pop\n    /* \"#utility.yul\":484:804   */\n  swap2\n  swap1\n  pop\n  jump\t// out\n    /* \"#utility.yul\":810:951   */\ntag_17:\n    /* \"#utility.yul\":859:863   */\n  0x00\n    /* \"#utility.yul\":882:885   */\n  dup2\n    /* \"#utility.yul\":874:885   */\n  swap1\n  pop\n    /* \"#utility.yul\":905:908   */\n  dup2\n    /* \"#utility.yul\":902:903   */\n  0x00\n    /* \"#utility.yul\":895:909   */\n  mstore\n    /* \"#utility.yul\":939:943   */\n  0x20\n    /* \"#utility.yul\":936:937   */\n  0x00\n    /* \"#utility.yul\":926:944   */\n  keccak256\n    /* \"#utility.yul\":918:944   */\n  swap1\n  pop\n    /* \"#utility.yul\":810:951   */\n  swap2\n  swap1\n  pop\n  jump\t// out\n    /* \"#utility.yul\":957:1050   */\ntag_18:\n    /* \"#utility.yul\":994:1000   */\n  0x00\n    /* \"#utility.yul\":1041:1043   */\n  0x20\n    /* \"#utility.yul\":1036:1038   */\n  0x1f\n    /* \"#utility.yul\":1029:1034   */\n  dup4\n    /* \"#utility.yul\":1025:1039   */\n  add\n    /* \"#utility.yul\":1021:1044   */\n  div\n    /* \"#utility.yul\":1011:1044   */\n  swap1\n  pop\n    /* \"#utility.yul\":957:1050   */\n  swap2\n  swap1\n  pop\n  jump\t// out\n    /* \"#utility.yul\":1056:1163   */\ntag_19:\n    /* \"#utility.yul\":1100:1108   */\n  0x00\n    /* \"#utility.yul\":1150:1155   */\n  dup3\n    /* \"#utility.yul\":1144:1148   */\n  dup3\n    /* \"#utility.yul\":1140:1156   */\n  shl\n    /* \"#utility.yul\":1119:1156   */\n  swap1\n  pop\n    /* \"#utility.yul\":1056:1163   */\n  swap3\n  swap2\n  pop\n  pop\n  jump\t// out\n    /* \"#utility.yul\":1169:1562   */\ntag_20:\n    /* \"#utility.yul\":1238:1244   */\n  0x00\n    /* \"#utility.yul\":1288:1289   */\n  0x08\n    /* \"#utility.yul\":1276:1286   */\n  dup4\n    /* \"#utility.yul\":1272:1290   */\n  mul\n    /* \"#utility.yul\":1311:1408   */\n  tag_50\n    /* \"#utility.yul\":1341:1407   */\n  0xffffffffffffffffffffffffffffffffffffffffffffffffffffffffffffffff\n    /* \"#utility.yul\":1330:1339   */\n  dup3\n    /* \"#utility.yul\":1311:1408   */\n  tag_19\n  jump\t// in\ntag_50:\n    /* \"#utility.yul\":1429:1468   */\n  tag_51\n    /* \"#utility.yul\":1459:1467   */\n  dup7\n    /* \"#utility.yul\":1448:1457   */\n  dup4\n    /* \"#utility.yul\":1429:1468   */\n  tag_19\n  jump\t// in\ntag_51:\n    /* \"#utility.yul\":1417:1468   */\n  swap6\n  pop\n    /* \"#utility.yul\":1501:1505   */\n  dup1\n    /* \"#utility.yul\":1497:1506   */\n  not\n    /* \"#utility.yul\":1490:1495   */\n  dup5\n    /* \"#utility.yul\":1486:1507   */\n  and\n    /* \"#utility.yul\":1477:1507   */\n  swap4\n  pop\n    /* \"#utility.yul\":1550:1554   */\n  dup1\n    /* \"#utility.yul\":1540:1548   */\n  dup7\n    /* \"#utility.yul\":1536:1555   */\n  and\n    /* \"#utility.yul\":1529:1534   */\n  dup5\n    /* \"#utility.yul\":1526:1556   */\n  or\n    /* \"#utility.yul\":1516:1556   */\n  swap3\n  pop\n    /* \"#utility.yul\":1245:1562   */\n  pop\n  pop\n    /* \"#utility.yul\":1169:1562   */\n  swap4\n  swap3\n  pop\n  pop\n  pop\n  jump\t// out\n    /* \"#utility.yul\":1568:1645   */\ntag_21:\n    /* \"#utility.yul\":1605:1612   */\n  0x00\n    /* \"#utility.yul\":1634:1639   */\n  dup2\n    /* \"#utility.yul\":1623:1639   */\n  swap1\n  pop\n    /* \"#utility.yul\":1568:1645   */\n  swap2\n  swap1\n  pop\n  jump\t// out\n    /* \"#utility.yul\":1651:1711   */\ntag_22:\n    /* \"#utility.yul\":1679:1682   */\n  0x00\n    /* \"#utility.yul\":1700:1705   */\n  dup2\n    /* \"#utility.yul\":1693:1705   */\n  swap1\n  pop\n    /* \"#utility.yul\":1651:1711   */\n  swap2\n  swap1\n  pop\n  jump\t// out\n    /* \"#utility.yul\":1717:1859   */\ntag_23:\n    /* \"#utility.yul\":1767:1776   */\n  0x00\n    /* \"#utility.yul\":1800:1853   */\n  tag_55\n    /* \"#utility.yul\":1818:1852   */\n  tag_56\n    /* \"#utility.yul\":1827:1851   */\n  tag_57\n    /* \"#utility.yul\":1845:1850   */\n  dup5\n    /* \"#utility.yul\":1827:1851   */\n  tag_21\n  jump\t// in\ntag_57:\n    /* \"#utility.yul\":1818:1852   */\n  tag_22\n  jump\t// in\ntag_56:\n    /* \"#utility.yul\":1800:1853   */\n  tag_21\n  jump\t// in\ntag_55:\n    /* \"#utility.yul\":1787:1853   */\n  swap1\n  pop\n    /* \"#utility.yul\":1717:1859   */\n  swap2\n  swap1\n  pop\n  jump\t// out\n    /* \"#utility.yul\":1865:1940   */\ntag_24:\n    /* \"#utility.yul\":1908:1911   */\n  0x00\n    /* \"#utility.yul\":1929:1934   */\n  dup2\n    /* \"#utility.yul\":1922:1934   */\n  swap1\n  pop\n    /* \"#utility.yul\":1865:1940   */\n  swap2\n  swap1\n  pop\n  jump\t// out\n    /* \"#utility.yul\":1946:2215   */\ntag_25:\n    /* \"#utility.yul\":2056:2095   */\n  tag_60\n    /* \"#utility.yul\":2087:2094   */\n  dup4\n    /* \"#utility.yul\":2056:2095   */\n  tag_23\n  jump\t// in\ntag_60:\n    /* \"#utility.yul\":2117:2208   */\n  tag_61\n    /* \"#utility.yul\":2166:2207   */\n  tag_62\n    /* \"#utility.yul\":2190:2206   */\n  dup3\n    /* \"#utility.yul\":2166:2207   */\n  tag_24\n  jump\t// in\ntag_62:\n    /* \"#utility.yul\":2158:2164   */\n  dup5\n    /* \"#utility.yul\":2151:2155   */\n  dup5\n    /* \"#utility.yul\":2145:2156   */\n  sload\n    /* \"#utility.yul\":2117:2208   */\n  tag_20\n  jump\t// in\ntag_61:\n    /* \"#utility.yul\":2111:2115   */\n  dup3\n    /* \"#utility.yul\":2104:2209   */\n  sstore\n    /* \"#utility.yul\":2022:2215   */\n  pop\n    /* \"#utility.yul\":1946:2215   */\n  pop\n  pop\n  pop\n  jump\t// out\n    /* \"#utility.yul\":2221:2294   */\ntag_26:\n    /* \"#utility.yul\":2266:2269   */\n  0x00\n    /* \"#utility.yul\":2221:2294   */\n  swap1\n  jump\t// out\n    /* \"#utility.yul\":2300:2489   */\ntag_27:\n    /* \"#utility.yul\":2377:2409   */\n  tag_65\n  tag_26\n  jump\t// in\ntag_65:\n    /* \"#utility.yul\":2418:2483   */\n  tag_66\n    /* \"#utility.yul\":2476:2482   */\n  dup2\n    /* \"#utility.yul\":2468:2474   */\n  dup5\n    /* \"#utility.yul\":2462:2466   */\n  dup5\n    /* \"#utility.yul\":2418:2483   */\n  tag_25\n  jump\t// in\ntag_66:\n    /* \"#utility.yul\":2353:2489   */\n  pop\n    /* \"#utility.yul\":2300:2489   */\n  pop\n  pop\n  jump\t// out\n    /* \"#utility.yul\":2495:2681   */\ntag_28:\n    /* \"#utility.yul\":2555:2675   */\ntag_68:\n    /* \"#utility.yul\":2572:2575   */\n  dup2\n    /* \"#utility.yul\":2565:2570   */\n  dup2\n    /* \"#utility.yul\":2562:2576   */\n  lt\n    /* \"#utility.yul\":2555:2675   */\n  iszero\n  tag_70\n  jumpi\n    /* \"#utility.yul\":2626:2665   */\n  tag_71\n    /* \"#utility.yul\":2663:2664   */\n  0x00\n    /* \"#utility.yul\":2656:2661   */\n  dup3\n    /* \"#utility.yul\":2626:2665   */\n  tag_27\n  jump\t// in\ntag_71:\n    /* \"#utility.yul\":2599:2600   */\n  0x01\n    /* \"#utility.yul\":2592:2597   */\n  dup2\n    /* \"#utility.yul\":2588:2601   */\n  add\n    /* \"#utility.yul\":2579:2601   */\n  swap1\n  pop\n    /* \"#utility.yul\":2555:2675   */\n  jump(tag_68)\ntag_70:\n    /* \"#utility.yul\":2495:2681   */\n  pop\n  pop\n  jump\t// out\n    /* \"#utility.yul\":2687:3230   */\ntag_29:\n    /* \"#utility.yul\":2788:2790   */\n  0x1f\n    /* \"#utility.yul\":2783:2786   */\n  dup3\n    /* \"#utility.yul\":2780:2791   */\n  gt\n    /* \"#utility.yul\":2777:3223   */\n  iszero\n  tag_73\n  jumpi\n    /* \"#utility.yul\":2822:2860   */\n  tag_74\n    /* \"#utility.yul\":2854:2859   */\n  dup2\n    /* \"#utility.yul\":2822:2860   */\n  tag_17\n  jump\t// in\ntag_74:\n    /* \"#utility.yul\":2906:2935   */\n  tag_75\n    /* \"#utility.yul\":2924:2934   */\n  dup5\n    /* \"#utility.yul\":2906:2935   */\n  tag_18\n  jump\t// in\ntag_75:\n    /* \"#utility.yul\":2896:2904   */\n  dup2\n    /* \"#utility.yul\":2892:2936   */\n  add\n    /* \"#utility.yul\":3089:3091   */\n  0x20\n    /* \"#utility.yul\":3077:3087   */\n  dup6\n    /* \"#utility.yul\":3074:3092   */\n  lt\n    /* \"#utility.yul\":3071:3120   */\n  iszero\n  tag_76\n  jumpi\n    /* \"#utility.yul\":3110:3118   */\n  dup2\n    /* \"#utility.yul\":3095:3118   */\n  swap1\n  pop\n    /* \"#utility.yul\":3071:3120   */\ntag_76:\n    /* \"#utility.yul\":3133:3213   */\n  tag_77\n    /* \"#utility.yul\":3189:3211   */\n  tag_78\n    /* \"#utility.yul\":3207:3210   */\n  dup6\n    /* \"#utility.yul\":3189:3211   */\n  tag_18\n  jump\t// in\ntag_78:\n    /* \"#utility.yul\":3179:3187   */\n  dup4\n    /* \"#utility.yul\":3175:3212   */\n  add\n    /* \"#utility.yul\":3162:3173   */\n  dup3\n    /* \"#utility.yul\":3133:3213   */\n  tag_28\n  jump\t// in\ntag_77:\n    /* \"#utility.yul\":2792:3223   */\n  pop\n  pop\n    /* \"#utility.yul\":2777:3223   */\ntag_73:\n    /* \"#utility.yul\":2687:3230   */\n  pop\n  pop\n  pop\n  jump\t// out\n    /* \"#utility.yul\":3236:3353   */\ntag_30:\n    /* \"#utility.yul\":3290:3298   */\n  0x00\n    /* \"#utility.yul\":3340:3345   */\n  dup3\n    /* \"#utility.yul\":3334:3338   */\n  dup3\n    /* \"#utility.yul\":3330:3346   */\n  shr\n    /* \"#utility.yul\":3309:3346   */\n  swap1\n  pop\n    /* \"#utility.yul\":3236:3353   */\n  swap3\n  swap2\n  pop\n  pop\n  jump\t// out\n    /* \"#utility.yul\":3359:3528   */\ntag_31:\n    /* \"#utility.yul\":3403:3409   */\n  0x00\n    /* \"#utility.yul\":3436:3487   */\n  tag_81\n    /* \"#utility.yul\":3484:3485   */\n  0x00\n    /* \"#utility.yul\":3480:3486   */\n  not\n    /* \"#utility.yul\":3472:3477   */\n  dup5\n    /* \"#utility.yul\":3469:3470   */\n  0x08\n    /* \"#utility.yul\":3465:3478   */\n  mul\n    /* \"#utility.yul\":3436:3487   */\n  tag_30\n  jump\t// in\ntag_81:\n    /* \"#utility.yul\":3432:3488   */\n  not\n    /* \"#utility.yul\":3517:3521   */\n  dup1\n    /* \"#utility.yul\":3511:3515   */\n  dup4\n    /* \"#utility.yul\":3507:3522   */\n  and\n    /* \"#utility.yul\":3497:3522   */\n  swap2\n  pop\n    /* \"#utility.yul\":3410:3528   */\n  pop\n    /* \"#utility.yul\":3359:3528   */\n  swap3\n  swap2\n  pop\n  pop\n  jump\t// out\n    /* \"#utility.yul\":3533:3828   */\ntag_32:\n    /* \"#utility.yul\":3609:3613   */\n  0x00\n    /* \"#utility.yul\":3755:3784   */\n  tag_83\n    /* \"#utility.yul\":3780:3783   */\n  dup4\n    /* \"#utility.yul\":3774:3778   */\n  dup4\n    /* \"#utility.yul\":3755:3784   */\n  tag_31\n  jump\t// in\ntag_83:\n    /* \"#utility.yul\":3747:3784   */\n  swap2\n  pop\n    /* \"#utility.yul\":3817:3820   */\n  dup3\n    /* \"#utility.yul\":3814:3815   */\n  0x02\n    /* \"#utility.yul\":3810:3821   */\n  mul\n    /* \"#utility.yul\":3804:3808   */\n  dup3\n    /* \"#utility.yul\":3801:3822   */\n  or\n    /* \"#utility.yul\":3793:3822   */\n  swap1\n  pop\n    /* \"#utility.yul\":3533:3828   */\n  swap3\n  swap2\n  pop\n  pop\n  jump\t// out\n    /* \"#utility.yul\":3833:5228   */\ntag_2:\n    /* \"#utility.yul\":3950:3987   */\n  tag_85\n    /* \"#utility.yul\":3983:3986   */\n  dup3\n    /* \"#utility.yul\":3950:3987   */\n  tag_13\n  jump\t// in\ntag_85:\n    /* \"#utility.yul\":4052:4070   */\n  0xffffffffffffffff\n    /* \"#utility.yul\":4044:4050   */\n  dup2\n    /* \"#utility.yul\":4041:4071   */\n  gt\n    /* \"#utility.yul\":4038:4094   */\n  iszero\n  tag_86\n  jumpi\n    /* \"#utility.yul\":4074:4092   */\n  tag_87\n  tag_14\n  jump\t// in\ntag_87:\n    /* \"#utility.yul\":4038:4094   */\ntag_86:\n    /* \"#utility.yul\":4118:4156   */\n  tag_88\n    /* \"#utility.yul\":4150:4154   */\n  dup3\n    /* \"#utility.yul\":4144:4155   */\n  sload\n    /* \"#utility.yul\":4118:4156   */\n  tag_16\n  jump\t// in\ntag_88:\n    /* \"#utility.yul\":4203:4270   */\n  tag_89\n    /* \"#utility.yul\":4263:4269   */\n  dup3\n    /* \"#utility.yul\":4255:4261   */\n  dup3\n    /* \"#utility.yul\":4249:4253   */\n  dup6\n    /* \"#utility.yul\":4203:4270   */\n  tag_29\n  jump\t// in\ntag_89:\n    /* \"#utility.yul\":4297:4298   */\n  0x00\n    /* \"#utility.yul\":4321:4325   */\n  0x20\n    /* \"#utility.yul\":4308:4325   */\n  swap1\n  pop\n    /* \"#utility.yul\":4353:4355   */\n  0x1f\n    /* \"#utility.yul\":4345:4351   */\n  dup4\n    /* \"#utility.yul\":4342:4356   */\n  gt\n    /* \"#utility.yul\":4370:4371   */\n  0x01\n    /* \"#utility.yul\":4365:4983   */\n  dup2\n  eq\n  tag_91\n  jumpi\n    /* \"#utility.yul\":5027:5028   */\n  0x00\n    /* \"#utility.yul\":5044:5050   */\n  dup5\n    /* \"#utility.yul\":5041:5118   */\n  iszero\n  tag_92\n  jumpi\n    /* \"#utility.yul\":5093:5102   */\n  dup3\n    /* \"#utility.yul\":5088:5091   */\n  dup8\n    /* \"#utility.yul\":5084:5103   */\n  add\n    /* \"#utility.yul\":5078:5104   */\n  mload\n    /* \"#utility.yul\":5069:5104   */\n  swap1\n  pop\n    /* \"#utility.yul\":5041:5118   */\ntag_92:\n    /* \"#utility.yul\":5144:5211   */\n  tag_93\n    /* \"#utility.yul\":5204:5210   */\n  dup6\n    /* \"#utility.yul\":5197:5202   */\n  dup3\n    /* \"#utility.yul\":5144:5211   */\n  tag_32\n  jump\t// in\ntag_93:\n    /* \"#utility.yul\":5138:5142   */\n  dup7\n    /* \"#utility.yul\":5131:5212   */\n  sstore\n    /* \"#utility.yul\":5000:5222   */\n  pop\n    /* \"#utility.yul\":4335:5222   */\n  jump(tag_90)\n    /* \"#utility.yul\":4365:4983   */\ntag_91:\n    /* \"#utility.yul\":4417:4421   */\n  0x1f\n    /* \"#utility.yul\":4413:4422   */\n  not\n    /* \"#utility.yul\":4405:4411   */\n  dup5\n    /* \"#utility.yul\":4401:4423   */\n  and\n    /* \"#utility.yul\":4451:4488   */\n  tag_94\n    /* \"#utility.yul\":4483:4487   */\n  dup7\n    /* \"#utility.yul\":4451:4488   */\n  tag_17\n  jump\t// in\ntag_94:\n    /* \"#utility.yul\":4510:4511   */\n  0x00\n    /* \"#utility.yul\":4524:4732   */\ntag_95:\n    /* \"#utility.yul\":4538:4545   */\n  dup3\n    /* \"#utility.yul\":4535:4536   */\n  dup2\n    /* \"#utility.yul\":4532:4546   */\n  lt\n    /* \"#utility.yul\":4524:4732   */\n  iszero\n  tag_97\n  jumpi\n    /* \"#utility.yul\":4617:4626   */\n  dup5\n    /* \"#utility.yul\":4612:4615   */\n  dup10\n    /* \"#utility.yul\":4608:4627   */\n  add\n    /* \"#utility.yul\":4602:4628   */\n  mload\n    /* \"#utility.yul\":4594:4600   */\n  dup3\n    /* \"#utility.yul\":4587:4629   */\n  sstore\n    /* \"#utility.yul\":4668:4669   */\n  0x01\n    /* \"#utility.yul\":4660:4666   */\n  dup3\n    /* \"#utility.yul\":4656:4670   */\n  add\n    /* \"#utility.yul\":4646:4670   */\n  swap2\n  pop\n    /* \"#utility.yul\":4715:4717   */\n  0x20\n    /* \"#utility.yul\":4704:4713   */\n  dup6\n    /* \"#utility.yul\":4700:4718   */\n  add\n    /* \"#utility.yul\":4687:4718   */\n  swap5\n  pop\n    /* \"#utility.yul\":4561:4565   */\n  0x20\n    /* \"#utility.yul\":4558:4559   */\n  dup2\n    /* \"#utility.yul\":4554:4566   */\n  add\n    /* \"#utility.yul\":4549:4566   */\n  swap1\n  pop\n    /* \"#utility.yul\":4524:4732   */\n  jump(tag_95)\ntag_97:\n    /* \"#utility.yul\":4760:4766   */\n  dup7\n    /* \"#utility.yul\":4751:4758   */\n  dup4\n    /* \"#utility.yul\":4748:4767   */\n  lt\n    /* \"#utility.yul\":4745:4924   */\n  iszero\n  tag_98\n  jumpi\n    /* \"#utility.yul\":4818:4827   */\n  dup5\n    /* \"#utility.yul\":4813:4816   */\n  dup10\n    /* \"#utility.yul\":4809:4828   */\n  add\n    /* \"#utility.yul\":4803:4829   */\n  mload\n    /* \"#utility.yul\":4861:4909   */\n  tag_99\n    /* \"#utility.yul\":4903:4907   */\n  0x1f\n    /* \"#utility.yul\":4895:4901   */\n  dup10\n    /* \"#utility.yul\":4891:4908   */\n  and\n    /* \"#utility.yul\":4880:4889   */\n  dup3\n    /* \"#utility.yul\":4861:4909   */\n  tag_31\n  jump\t// in\ntag_99:\n    /* \"#utility.yul\":4853:4859   */\n  dup4\n    /* \"#utility.yul\":4846:4910   */\n  sstore\n    /* \"#utility.yul\":4768:4924   */\n  pop\n    /* \"#utility.yul\":4745:4924   */\ntag_98:\n    /* \"#utility.yul\":4970:4971   */\n  0x01\n    /* \"#utility.yul\":4966:4967   */\n  0x02\n    /* \"#utility.yul\":4958:4964   */\n  dup9\n    /* \"#utility.yul\":4954:4968   */\n  mul\n    /* \"#utility.yul\":4950:4972   */\n  add\n    /* \"#utility.yul\":4944:4948   */\n  dup9\n    /* \"#utility.yul\":4937:4973   */\n  sstore\n    /* \"#utility.yul\":4372:4983   */\n  pop\n  pop\n  pop\n    /* \"#utility.yul\":4335:5222   */\ntag_90:\n  pop\n    /* \"#utility.yul\":3925:5228   */\n  pop\n  pop\n  pop\n    /* \"#utility.yul\":3833:5228   */\n  pop\n  pop\n  jump\t// out\n    /* \"#utility.yul\":5234:5382   */\ntag_33:\n    /* \"#utility.yul\":5336:5347   */\n  0x00\n    /* \"#utility.yul\":5373:5376   */\n  dup2\n    /* \"#utility.yul\":5358:5376   */\n  swap1\n  pop\n    /* \"#utility.yul\":5234:5382   */\n  swap3\n  swap2\n  pop\n  pop\n  jump\t// out\n    /* \"#utility.yul\":5412:6286   */\ntag_34:\n    /* \"#utility.yul\":5515:5518   */\n  0x00\n    /* \"#utility.yul\":5552:5557   */\n  dup2\n    /* \"#utility.yul\":5546:5558   */\n  sload\n    /* \"#utility.yul\":5581:5617   */\n  tag_102\n    /* \"#utility.yul\":5607:5616   */\n  dup2\n    /* \"#utility.yul\":5581:5617   */\n  tag_16\n  jump\t// in\ntag_102:\n    /* \"#utility.yul\":5633:5722   */\n  tag_103\n    /* \"#utility.yul\":5715:5721   */\n  dup2\n    /* \"#utility.yul\":5710:5713   */\n  dup7\n    /* \"#utility.yul\":5633:5722   */\n  tag_33\n  jump\t// in\ntag_103:\n    /* \"#utility.yul\":5626:5722   */\n  swap5\n  pop\n    /* \"#utility.yul\":5753:5754   */\n  0x01\n    /* \"#utility.yul\":5742:5751   */\n  dup3\n    /* \"#utility.yul\":5738:5755   */\n  and\n    /* \"#utility.yul\":5769:5770   */\n  0x00\n    /* \"#utility.yul\":5764:5930   */\n  dup2\n  eq\n  tag_105\n  jumpi\n    /* \"#utility.yul\":5944:5945   */\n  0x01\n    /* \"#utility.yul\":5939:6280   */\n  dup2\n  eq\n  tag_106\n  jumpi\n    /* \"#utility.yul\":5731:6280   */\n  jump(tag_104)\n    /* \"#utility.yul\":5764:5930   */\ntag_105:\n    /* \"#utility.yul\":5848:5852   */\n  0xff\n    /* \"#utility.yul\":5844:5853   */\n  not\n    /* \"#utility.yul\":5833:5842   */\n  dup4\n    /* \"#utility.yul\":5829:5854   */\n  and\n    /* \"#utility.yul\":5824:5827   */\n  dup7\n    /* \"#utility.yul\":5817:5855   */\n  mstore\n    /* \"#utility.yul\":5910:5916   */\n  dup2\n    /* \"#utility.yul\":5903:5917   */\n  iszero\n    /* \"#utility.yul\":5896:5918   */\n  iszero\n    /* \"#utility.yul\":5888:5894   */\n  dup3\n    /* \"#utility.yul\":5884:5919   */\n  mul\n    /* \"#utility.yul\":5879:5882   */\n  dup7\n    /* \"#utility.yul\":5875:5920   */\n  add\n    /* \"#utility.yul\":5868:5920   */\n  swap4\n  pop\n    /* \"#utility.yul\":5764:5930   */\n  jump(tag_104)\n    /* \"#utility.yul\":5939:6280   */\ntag_106:\n    /* \"#utility.yul\":6006:6044   */\n  tag_107\n    /* \"#utility.yul\":6038:6043   */\n  dup6\n    /* \"#utility.yul\":6006:6044   */\n  tag_17\n  jump\t// in\ntag_107:\n    /* \"#utility.yul\":6066:6067   */\n  0x00\n    /* \"#utility.yul\":6080:6234   */\ntag_108:\n    /* \"#utility.yul\":6094:6100   */\n  dup4\n    /* \"#utility.yul\":6091:6092   */\n  dup2\n    /* \"#utility.yul\":6088:6101   */\n  lt\n    /* \"#utility.yul\":6080:6234   */\n  iszero\n  tag_110\n  jumpi\n    /* \"#utility.yul\":6168:6175   */\n  dup2\n    /* \"#utility.yul\":6162:6176   */\n  sload\n    /* \"#utility.yul\":6158:6159   */\n  dup2\n    /* \"#utility.yul\":6153:6156   */\n  dup10\n    /* \"#utility.yul\":6149:6160   */\n  add\n    /* \"#utility.yul\":6142:6177   */\n  mstore\n    /* \"#utility.yul\":6218:6219   */\n  0x01\n    /* \"#utility.yul\":6209:6216   */\n  dup3\n    /* \"#utility.yul\":6205:6220   */\n  add\n    /* \"#utility.yul\":6194:6220   */\n  swap2\n  pop\n    /* \"#utility.yul\":6116:6120   */\n  0x20\n    /* \"#utility.yul\":6113:6114   */\n  dup2\n    /* \"#utility.yul\":6109:6121   */\n  add\n    /* \"#utility.yul\":6104:6121   */\n  swap1\n  pop\n    /* \"#utility.yul\":6080:6234   */\n  jump(tag_108)\ntag_110:\n    /* \"#utility.yul\":6263:6269   */\n  dup4\n    /* \"#utility.yul\":6258:6261   */\n  dup9\n    /* \"#utility.yul\":6254:6270   */\n  add\n    /* \"#utility.yul\":6247:6270   */\n  swap6\n  pop\n    /* \"#utility.yul\":5946:6280   */\n  pop\n  pop\n    /* \"#utility.yul\":5731:6280   */\ntag_104:\n  pop\n    /* \"#utility.yul\":5519:6286   */\n  pop\n  pop\n    /* \"#utility.yul\":5412:6286   */\n  swap3\n  swap2\n  pop\n  pop\n  jump\t// out\n    /* \"#utility.yul\":6292:6561   */\ntag_6:\n    /* \"#utility.yul\":6421:6424   */\n  0x00\n    /* \"#utility.yul\":6443:6535   */\n  tag_112\n    /* \"#utility.yul\":6531:6534   */\n  dup3\n    /* \"#utility.yul\":6522:6528   */\n  dup5\n    /* \"#utility.yul\":6443:6535   */\n  tag_34\n  jump\t// in\ntag_112:\n    /* \"#utility.yul\":6436:6535   */\n  swap2\n  pop\n    /* \"#utility.yul\":6552:6555   */\n  dup2\n    /* \"#utility.yul\":6545:6555   */\n  swap1\n  pop\n    /* \"#utility.yul\":6292:6561   */\n  swap3\n  swap2\n  pop\n  pop\n  jump\t// out\n    /* \"#utility.yul\":6567:6665   */\ntag_35:\n    /* \"#utility.yul\":6618:6624   */\n  0x00\n    /* \"#utility.yul\":6652:6657   */\n  dup2\n    /* \"#utility.yul\":6646:6658   */\n  mload\n    /* \"#utility.yul\":6636:6658   */\n  swap1\n  pop\n    /* \"#utility.yul\":6567:6665   */\n  swap2\n  swap1\n  pop\n  jump\t// out\n    /* \"#utility.yul\":6671:6811   */\ntag_36:\n    /* \"#utility.yul\":6719:6723   */\n  0x00\n    /* \"#utility.yul\":6742:6745   */\n  dup2\n    /* \"#utility.yul\":6734:6745   */\n  swap1\n  pop\n    /* \"#utility.yul\":6765:6768   */\n  dup2\n    /* \"#utility.yul\":6762:6763   */\n  0x00\n    /* \"#utility.yul\":6755:6769   */\n  mstore\n    /* \"#utility.yul\":6799:6803   */\n  0x20\n    /* \"#utility.yul\":6796:6797   */\n  0x00\n    /* \"#utility.yul\":6786:6804   */\n  keccak256\n    /* \"#utility.yul\":6778:6804   */\n  swap1\n  pop\n    /* \"#utility.yul\":6671:6811   */\n  swap2\n  swap1\n  pop\n  jump\t// out\n    /* \"#utility.yul\":6817:7358   */\ntag_37:\n    /* \"#utility.yul\":6917:6919   */\n  0x1f\n    /* \"#utility.yul\":6912:6915   */\n  dup3\n    /* \"#utility.yul\":6909:6920   */\n  gt\n    /* \"#utility.yul\":6906:7351   */\n  iszero\n  tag_116\n  jumpi\n    /* \"#utility.yul\":6951:6988   */\n  tag_117\n    /* \"#utility.yul\":6982:6987   */\n  dup2\n    /* \"#utility.yul\":6951:6988   */\n  tag_36\n  jump\t// in\ntag_117:\n    /* \"#utility.yul\":7034:7063   */\n  tag_118\n    /* \"#utility.yul\":7052:7062   */\n  dup5\n    /* \"#utility.yul\":7034:7063   */\n  tag_18\n  jump\t// in\ntag_118:\n    /* \"#utility.yul\":7024:7032   */\n  dup2\n    /* \"#utility.yul\":7020:7064   */\n  add\n    /* \"#utility.yul\":7217:7219   */\n  0x20\n    /* \"#utility.yul\":7205:7215   */\n  dup6\n    /* \"#utility.yul\":7202:7220   */\n  lt\n    /* \"#utility.yul\":7199:7248   */\n  iszero\n  tag_119\n  jumpi\n    /* \"#utility.yul\":7238:7246   */\n  dup2\n    /* \"#utility.yul\":7223:7246   */\n  swap1\n  pop\n    /* \"#utility.yul\":7199:7248   */\ntag_119:\n    /* \"#utility.yul\":7261:7341   */\n  tag_120\n    /* \"#utility.yul\":7317:7339   */\n  tag_121\n    /* \"#utility.yul\":7335:7338   */\n  dup6\n    /* \"#utility.yul\":7317:7339   */\n  tag_18\n  jump\t// in\ntag_121:\n    /* \"#utility.yul\":7307:7315   */\n  dup4\n    /* \"#utility.yul\":7303:7340   */\n  add\n    /* \"#utility.yul\":7290:7301   */\n  dup3\n    /* \"#utility.yul\":7261:7341   */\n  tag_28\n  jump\t// in\ntag_120:\n    /* \"#utility.yul\":6921:7351   */\n  pop\n  pop\n    /* \"#utility.yul\":6906:7351   */\ntag_116:\n    /* \"#utility.yul\":6817:7358   */\n  pop\n  pop\n  pop\n  jump\t// out\n    /* \"#utility.yul\":7364:8754   */\ntag_8:\n    /* \"#utility.yul\":7479:7515   */\n  tag_123\n    /* \"#utility.yul\":7511:7514   */\n  dup3\n    /* \"#utility.yul\":7479:7515   */\n  tag_35\n  jump\t// in\ntag_123:\n    /* \"#utility.yul\":7580:7598   */\n  0xffffffffffffffff\n    /* \"#utility.yul\":7572:7578   */\n  dup2\n    /* \"#utility.yul\":7569:7599   */\n  gt\n    /* \"#utility.yul\":7566:7622   */\n  iszero\n  tag_124\n  jumpi\n    /* \"#utility.yul\":7602:7620   */\n  tag_125\n  tag_14\n  jump\t// in\ntag_125:\n    /* \"#utility.yul\":7566:7622   */\ntag_124:\n    /* \"#utility.yul\":7646:7684   */\n  tag_126\n    /* \"#utility.yul\":7678:7682   */\n  dup3\n    /* \"#utility.yul\":7672:7683   */\n  sload\n    /* \"#utility.yul\":7646:7684   */\n  tag_16\n  jump\t// in\ntag_126:\n    /* \"#utility.yul\":7731:7797   */\n  tag_127\n    /* \"#utility.yul\":7790:7796   */\n  dup3\n    /* \"#utility.yul\":7782:7788   */\n  dup3\n    /* \"#utility.yul\":7776:7780   */\n  dup6\n    /* \"#utility.yul\":7731:7797   */\n  tag_37\n  jump\t// in\ntag_127:\n    /* \"#utility.yul\":7824:7825   */\n  0x00\n    /* \"#utility.yul\":7848:7852   */\n  0x20\n    /* \"#utility.yul\":7835:7852   */\n  swap1\n  pop\n    /* \"#utility.yul\":7880:7882   */\n  0x1f\n    /* \"#utility.yul\":7872:7878   */\n  dup4\n    /* \"#utility.yul\":7869:7883   */\n  gt\n    /* \"#utility.yul\":7897:7898   */\n  0x01\n    /* \"#utility.yul\":7892:8509   */\n  dup2\n  eq\n  tag_129\n  jumpi\n    /* \"#utility.yul\":8553:8554   */\n  0x00\n    /* \"#utility.yul\":8570:8576   */\n  dup5\n    /* \"#utility.yul\":8567:8644   */\n  iszero\n  tag_130\n  jumpi\n    /* \"#utility.yul\":8619:8628   */\n  dup3\n    /* \"#utility.yul\":8614:8617   */\n  dup8\n    /* \"#utility.yul\":8610:8629   */\n  add\n    /* \"#utility.yul\":8604:8630   */\n  mload\n    /* \"#utility.yul\":8595:8630   */\n  swap1\n  pop\n    /* \"#utility.yul\":8567:8644   */\ntag_130:\n    /* \"#utility.yul\":8670:8737   */\n  tag_131\n    /* \"#utility.yul\":8730:8736   */\n  dup6\n    /* \"#utility.yul\":8723:8728   */\n  dup3\n    /* \"#utility.yul\":8670:8737   */\n  tag_32\n  jump\t// in\ntag_131:\n    /* \"#utility.yul\":8664:8668   */\n  dup7\n    /* \"#utility.yul\":8657:8738   */\n  sstore\n    /* \"#utility.yul\":8526:8748   */\n  pop\n    /* \"#utility.yul\":7862:8748   */\n  jump(tag_128)\n    /* \"#utility.yul\":7892:8509   */\ntag_129:\n    /* \"#utility.yul\":7944:7948   */\n  0x1f\n    /* \"#utility.yul\":7940:7949   */\n  not\n    /* \"#utility.yul\":7932:7938   */\n  dup5\n    /* \"#utility.yul\":7928:7950   */\n  and\n    /* \"#utility.yul\":7978:8014   */\n  tag_132\n    /* \"#utility.yul\":8009:8013   */\n  dup7\n    /* \"#utility.yul\":7978:8014   */\n  tag_36\n  jump\t// in\ntag_132:\n    /* \"#utility.yul\":8036:8037   */\n  0x00\n    /* \"#utility.yul\":8050:8258   */\ntag_133:\n    /* \"#utility.yul\":8064:8071   */\n  dup3\n    /* \"#utility.yul\":8061:8062   */\n  dup2\n    /* \"#utility.yul\":8058:8072   */\n  lt\n    /* \"#utility.yul\":8050:8258   */\n  iszero\n  tag_135\n  jumpi\n    /* \"#utility.yul\":8143:8152   */\n  dup5\n    /* \"#utility.yul\":8138:8141   */\n  dup10\n    /* \"#utility.yul\":8134:8153   */\n  add\n    /* \"#utility.yul\":8128:8154   */\n  mload\n    /* \"#utility.yul\":8120:8126   */\n  dup3\n    /* \"#utility.yul\":8113:8155   */\n  sstore\n    /* \"#utility.yul\":8194:8195   */\n  0x01\n    /* \"#utility.yul\":8186:8192   */\n  dup3\n    /* \"#utility.yul\":8182:8196   */\n  add\n    /* \"#utility.yul\":8172:8196   */\n  swap2\n  pop\n    /* \"#utility.yul\":8241:8243   */\n  0x20\n    /* \"#utility.yul\":8230:8239   */\n  dup6\n    /* \"#utility.yul\":8226:8244   */\n  add\n    /* \"#utility.yul\":8213:8244   */\n  swap5\n  pop\n    /* \"#utility.yul\":8087:8091   */\n  0x20\n    /* \"#utility.yul\":8084:8085   */\n  dup2\n    /* \"#utility.yul\":8080:8092   */\n  add\n    /* \"#utility.yul\":8075:8092   */\n  swap1\n  pop\n    /* \"#utility.yul\":8050:8258   */\n  jump(tag_133)\ntag_135:\n    /* \"#utility.yul\":8286:8292   */\n  dup7\n    /* \"#utility.yul\":8277:8284   */\n  dup4\n    /* \"#utility.yul\":8274:8293   */\n  lt\n    /* \"#utility.yul\":8271:8450   */\n  iszero\n  tag_136\n  jumpi\n    /* \"#utility.yul\":8344:8353   */\n  dup5\n    /* \"#utility.yul\":8339:8342   */\n  dup10\n    /* \"#utility.yul\":8335:8354   */\n  add\n    /* \"#utility.yul\":8329:8355   */\n  mload\n    /* \"#utility.yul\":8387:8435   */\n  tag_137\n    /* \"#utility.yul\":8429:8433   */\n  0x1f\n    /* \"#utility.yul\":8421:8427   */\n  dup10\n    /* \"#utility.yul\":8417:8434   */\n  and\n    /* \"#utility.yul\":8406:8415   */\n  dup3\n    /* \"#utility.yul\":8387:8435   */\n  tag_31\n  jump\t// in\ntag_137:\n    /* \"#utility.yul\":8379:8385   */\n  dup4\n    /* \"#utility.yul\":8372:8436   */\n  sstore\n    /* \"#utility.yul\":8294:8450   */\n  pop\n    /* \"#utility.yul\":8271:8450   */\ntag_136:\n    /* \"#utility.yul\":8496:8497   */\n  0x01\n    /* \"#utility.yul\":8492:8493   */\n  0x02\n    /* \"#utility.yul\":8484:8490   */\n  dup9\n    /* \"#utility.yul\":8480:8494   */\n  mul\n    /* \"#utility.yul\":8476:8498   */\n  add\n    /* \"#utility.yul\":8470:8474   */\n  dup9\n    /* \"#utility.yul\":8463:8499   */\n  sstore\n    /* \"#utility.yul\":7899:8509   */\n  pop\n  pop\n  pop\n    /* \"#utility.yul\":7862:8748   */\ntag_128:\n  pop\n    /* \"#utility.yul\":7454:8754   */\n  pop\n  pop\n  pop\n    /* \"#utility.yul\":7364:8754   */\n  pop\n  pop\n  jump\t// out\n    /* \"study/chapter07/stirngOpt.sol\":56:572  contract testStringOpt {... */\ntag_12:\n  dataSize(sub_0)\n  dup1\n  dataOffset(sub_0)\n  0x00\n  codecopy\n  0x00\n  return\nstop\n\nsub_0: assembly {\n        /* \"study/chapter07/stirngOpt.sol\":56:572  contract testStringOpt {... */\n      mstore(0x40, 0x80)\n      callvalue\n      dup1\n      iszero\n      tag_1\n      jumpi\n      0x00\n      dup1\n      revert\n    tag_1:\n      pop\n      jumpi(tag_2, lt(calldatasize, 0x04))\n      shr(0xe0, calldataload(0x00))\n      dup1\n      0xa314150f\n      gt\n      tag_10\n      jumpi\n      dup1\n      0xa314150f\n      eq\n      tag_6\n      jumpi\n      dup1\n      0xacbe8452\n      eq\n      tag_7\n      jumpi\n      dup1\n      0xcfae3217\n      eq\n      tag_8\n      jumpi\n      dup1\n      0xee495002\n      eq\n      tag_9\n      jumpi\n      jump(tag_2)\n    tag_10:\n      dup1\n      0x09fca94f\n      eq\n      tag_3\n      jumpi\n      dup1\n      0x0add6ef2\n      eq\n      tag_4\n      jumpi\n      dup1\n      0x6cc014de\n      eq\n      tag_5\n      jumpi\n    tag_2:\n      0x00\n      dup1\n      revert\n        /* \"study/chapter07/stirngOpt.sol\":430:565  function str(string calldata a) public view  returns (string memory){... */\n    tag_3:\n      tag_11\n      0x04\n      dup1\n      calldatasize\n      sub\n      dup2\n      add\n      swap1\n      tag_12\n      swap2\n      swap1\n      tag_13\n      jump\t// in\n    tag_12:\n      tag_14\n      jump\t// in\n    tag_11:\n      mload(0x40)\n      tag_15\n      swap2\n      swap1\n      tag_16\n      jump\t// in\n    tag_15:\n      mload(0x40)\n      dup1\n      swap2\n      sub\n      swap1\n      return\n        /* \"study/chapter07/stirngOpt.sol\":227:265  bytes public b2 = abi.encodePacked(s2) */\n    tag_4:\n      tag_17\n      tag_18\n      jump\t// in\n    tag_17:\n      mload(0x40)\n      tag_19\n      swap2\n      swap1\n      tag_20\n      jump\t// in\n    tag_19:\n      mload(0x40)\n      dup1\n      swap2\n      sub\n      swap1\n      return\n        /* \"study/chapter07/stirngOpt.sol\":126:148  string public s1 = \"A\" */\n    tag_5:\n      tag_21\n      tag_22\n      jump\t// in\n    tag_21:\n      mload(0x40)\n      tag_23\n      swap2\n      swap1\n      tag_16\n      jump\t// in\n    tag_23:\n      mload(0x40)\n      dup1\n      swap2\n      sub\n      swap1\n      return\n        /* \"study/chapter07/stirngOpt.sol\":154:176  string public s2 = \"A\" */\n    tag_6:\n      tag_24\n      tag_25\n      jump\t// in\n    tag_24:\n      mload(0x40)\n      tag_26\n      swap2\n      swap1\n      tag_16\n      jump\t// in\n    tag_26:\n      mload(0x40)\n      dup1\n      swap2\n      sub\n      swap1\n      return\n        /* \"study/chapter07/stirngOpt.sol\":272:423  function isEqual()external view returns(bool){... */\n    tag_7:\n      tag_27\n      tag_28\n      jump\t// in\n    tag_27:\n      mload(0x40)\n      tag_29\n      swap2\n      swap1\n      tag_30\n      jump\t// in\n    tag_29:\n      mload(0x40)\n      dup1\n      swap2\n      sub\n      swap1\n      return\n        /* \"study/chapter07/stirngOpt.sol\":85:116  string public greet = \"Hello, \" */\n    tag_8:\n      tag_31\n      tag_32\n      jump\t// in\n    tag_31:\n      mload(0x40)\n      tag_33\n      swap2\n      swap1\n      tag_16\n      jump\t// in\n    tag_33:\n      mload(0x40)\n      dup1\n      swap2\n      sub\n      swap1\n      return\n        /* \"study/chapter07/stirngOpt.sol\":183:221  bytes public b1 = abi.encodePacked(s1) */\n    tag_9:\n      tag_34\n      tag_35\n      jump\t// in\n    tag_34:\n      mload(0x40)\n      tag_36\n      swap2\n      swap1\n      tag_20\n      jump\t// in\n    tag_36:\n      mload(0x40)\n      dup1\n      swap2\n      sub\n      swap1\n      return\n        /* \"study/chapter07/stirngOpt.sol\":430:565  function str(string calldata a) public view  returns (string memory){... */\n    tag_14:\n        /* \"study/chapter07/stirngOpt.sol\":484:497  string memory */\n      0x60\n        /* \"study/chapter07/stirngOpt.sol\":541:546  greet */\n      0x00\n        /* \"study/chapter07/stirngOpt.sol\":554:555  a */\n      dup4\n      dup4\n        /* \"study/chapter07/stirngOpt.sol\":522:557  bytes.concat(bytes(greet),bytes(a)) */\n      add(0x20, mload(0x40))\n      tag_38\n      swap4\n      swap3\n      swap2\n      swap1\n      tag_39\n      jump\t// in\n    tag_38:\n      mload(0x40)\n      0x20\n      dup2\n      dup4\n      sub\n      sub\n      dup2\n      mstore\n      swap1\n      0x40\n      mstore\n        /* \"study/chapter07/stirngOpt.sol\":508:558  return string(bytes.concat(bytes(greet),bytes(a))) */\n      swap1\n      pop\n        /* \"study/chapter07/stirngOpt.sol\":430:565  function str(string calldata a) public view  returns (string memory){... */\n      swap3\n      swap2\n      pop\n      pop\n      jump\t// out\n        /* \"study/chapter07/stirngOpt.sol\":227:265  bytes public b2 = abi.encodePacked(s2) */\n    tag_18:\n      0x04\n      dup1\n      sload\n      tag_40\n      swap1\n      tag_41\n      jump\t// in\n    tag_40:\n      dup1\n      0x1f\n      add\n      0x20\n      dup1\n      swap2\n      div\n      mul\n      0x20\n      add\n      mload(0x40)\n      swap1\n      dup2\n      add\n      0x40\n      mstore\n      dup1\n      swap3\n      swap2\n      swap1\n      dup2\n      dup2\n      mstore\n      0x20\n      add\n      dup3\n      dup1\n      sload\n      tag_42\n      swap1\n      tag_41\n      jump\t// in\n    tag_42:\n      dup1\n      iszero\n      tag_43\n      jumpi\n      dup1\n      0x1f\n      lt\n      tag_44\n      jumpi\n      0x0100\n      dup1\n      dup4\n      sload\n      div\n      mul\n      dup4\n      mstore\n      swap2\n      0x20\n      add\n      swap2\n      jump(tag_43)\n    tag_44:\n      dup3\n      add\n      swap2\n      swap1\n      0x00\n      mstore\n      keccak256(0x00, 0x20)\n      swap1\n    tag_45:\n      dup2\n      sload\n      dup2\n      mstore\n      swap1\n      0x01\n      add\n      swap1\n      0x20\n      add\n      dup1\n      dup4\n      gt\n      tag_45\n      jumpi\n      dup3\n      swap1\n      sub\n      0x1f\n      and\n      dup3\n      add\n      swap2\n    tag_43:\n      pop\n      pop\n      pop\n      pop\n      pop\n      dup2\n      jump\t// out\n        /* \"study/chapter07/stirngOpt.sol\":126:148  string public s1 = \"A\" */\n    tag_22:\n      0x01\n      dup1\n      sload\n      tag_46\n      swap1\n      tag_41\n      jump\t// in\n    tag_46:\n      dup1\n      0x1f\n      add\n      0x20\n      dup1\n      swap2\n      div\n      mul\n      0x20\n      add\n      mload(0x40)\n      swap1\n      dup2\n      add\n      0x40\n      mstore\n      dup1\n      swap3\n      swap2\n      swap1\n      dup2\n      dup2\n      mstore\n      0x20\n      add\n      dup3\n      dup1\n      sload\n      tag_47\n      swap1\n      tag_41\n      jump\t// in\n    tag_47:\n      dup1\n      iszero\n      tag_48\n      jumpi\n      dup1\n      0x1f\n      lt\n      tag_49\n      jumpi\n      0x0100\n      dup1\n      dup4\n      sload\n      div\n      mul\n      dup4\n      mstore\n      swap2\n      0x20\n      add\n      swap2\n      jump(tag_48)\n    tag_49:\n      dup3\n      add\n      swap2\n      swap1\n      0x00\n      mstore\n      keccak256(0x00, 0x20)\n      swap1\n    tag_50:\n      dup2\n      sload\n      dup2\n      mstore\n      swap1\n      0x01\n      add\n      swap1\n      0x20\n      add\n      dup1\n      dup4\n      gt\n      tag_50\n      jumpi\n      dup3\n      swap1\n      sub\n      0x1f\n      and\n      dup3\n      add\n      swap2\n    tag_48:\n      pop\n      pop\n      pop\n      pop\n      pop\n      dup2\n      jump\t// out\n        /* \"study/chapter07/stirngOpt.sol\":154:176  string public s2 = \"A\" */\n    tag_25:\n      0x02\n      dup1\n      sload\n      tag_51\n      swap1\n      tag_41\n      jump\t// in\n    tag_51:\n      dup1\n      0x1f\n      add\n      0x20\n      dup1\n      swap2\n      div\n      mul\n      0x20\n      add\n      mload(0x40)\n      swap1\n      dup2\n      add\n      0x40\n      mstore\n      dup1\n      swap3\n      swap2\n      swap1\n      dup2\n      dup2\n      mstore\n      0x20\n      add\n      dup3\n      dup1\n      sload\n      tag_52\n      swap1\n      tag_41\n      jump\t// in\n    tag_52:\n      dup1\n      iszero\n      tag_53\n      jumpi\n      dup1\n      0x1f\n      lt\n      tag_54\n      jumpi\n      0x0100\n      dup1\n      dup4\n      sload\n      div\n      mul\n      dup4\n      mstore\n      swap2\n      0x20\n      add\n      swap2\n      jump(tag_53)\n    tag_54:\n      dup3\n      add\n      swap2\n      swap1\n      0x00\n      mstore\n      keccak256(0x00, 0x20)\n      swap1\n    tag_55:\n      dup2\n      sload\n      dup2\n      mstore\n      swap1\n      0x01\n      add\n      swap1\n      0x20\n      add\n      dup1\n      dup4\n      gt\n      tag_55\n      jumpi\n      dup3\n      swap1\n      sub\n      0x1f\n      and\n      dup3\n      add\n      swap2\n    tag_53:\n      pop\n      pop\n      pop\n      pop\n      pop\n      dup2\n      jump\t// out\n        /* \"study/chapter07/stirngOpt.sol\":272:423  function isEqual()external view returns(bool){... */\n    tag_28:\n        /* \"study/chapter07/stirngOpt.sol\":312:316  bool */\n      0x00\n        /* \"study/chapter07/stirngOpt.sol\":355:357  b2 */\n      0x04\n        /* \"study/chapter07/stirngOpt.sol\":345:358  keccak256(b2) */\n      mload(0x40)\n      tag_57\n      swap2\n      swap1\n      tag_58\n      jump\t// in\n    tag_57:\n      mload(0x40)\n      dup1\n      swap2\n      sub\n      swap1\n      keccak256\n        /* \"study/chapter07/stirngOpt.sol\":340:342  b1 */\n      0x03\n        /* \"study/chapter07/stirngOpt.sol\":330:343  keccak256(b1) */\n      mload(0x40)\n      tag_59\n      swap2\n      swap1\n      tag_58\n      jump\t// in\n    tag_59:\n      mload(0x40)\n      dup1\n      swap2\n      sub\n      swap1\n      keccak256\n        /* \"study/chapter07/stirngOpt.sol\":330:358  keccak256(b1)==keccak256(b2) */\n      sub\n        /* \"study/chapter07/stirngOpt.sol\":327:395  if(keccak256(b1)==keccak256(b2)){... */\n      tag_60\n      jumpi\n        /* \"study/chapter07/stirngOpt.sol\":380:384  true */\n      0x01\n        /* \"study/chapter07/stirngOpt.sol\":373:384  return true */\n      swap1\n      pop\n      jump(tag_56)\n        /* \"study/chapter07/stirngOpt.sol\":327:395  if(keccak256(b1)==keccak256(b2)){... */\n    tag_60:\n        /* \"study/chapter07/stirngOpt.sol\":411:416  false */\n      0x00\n        /* \"study/chapter07/stirngOpt.sol\":404:416  return false */\n      swap1\n      pop\n        /* \"study/chapter07/stirngOpt.sol\":272:423  function isEqual()external view returns(bool){... */\n    tag_56:\n      swap1\n      jump\t// out\n        /* \"study/chapter07/stirngOpt.sol\":85:116  string public greet = \"Hello, \" */\n    tag_32:\n      0x00\n      dup1\n      sload\n      tag_61\n      swap1\n      tag_41\n      jump\t// in\n    tag_61:\n      dup1\n      0x1f\n      add\n      0x20\n      dup1\n      swap2\n      div\n      mul\n      0x20\n      add\n      mload(0x40)\n      swap1\n      dup2\n      add\n      0x40\n      mstore\n      dup1\n      swap3\n      swap2\n      swap1\n      dup2\n      dup2\n      mstore\n      0x20\n      add\n      dup3\n      dup1\n      sload\n      tag_62\n      swap1\n      tag_41\n      jump\t// in\n    tag_62:\n      dup1\n      iszero\n      tag_63\n      jumpi\n      dup1\n      0x1f\n      lt\n      tag_64\n      jumpi\n      0x0100\n      dup1\n      dup4\n      sload\n      div\n      mul\n      dup4\n      mstore\n      swap2\n      0x20\n      add\n      swap2\n      jump(tag_63)\n    tag_64:\n      dup3\n      add\n      swap2\n      swap1\n      0x00\n      mstore\n      keccak256(0x00, 0x20)\n      swap1\n    tag_65:\n      dup2\n      sload\n      dup2\n      mstore\n      swap1\n      0x01\n      add\n      swap1\n      0x20\n      add\n      dup1\n      dup4\n      gt\n      tag_65\n      jumpi\n      dup3\n      swap1\n      sub\n      0x1f\n      and\n      dup3\n      add\n      swap2\n    tag_63:\n      pop\n      pop\n      pop\n      pop\n      pop\n      dup2\n      jump\t// out\n        /* \"study/chapter07/stirngOpt.sol\":183:221  bytes public b1 = abi.encodePacked(s1) */\n    tag_35:\n      0x03\n      dup1\n      sload\n      tag_66\n      swap1\n      tag_41\n      jump\t// in\n    tag_66:\n      dup1\n      0x1f\n      add\n      0x20\n      dup1\n      swap2\n      div\n      mul\n      0x20\n      add\n      mload(0x40)\n      swap1\n      dup2\n      add\n      0x40\n      mstore\n      dup1\n      swap3\n      swap2\n      swap1\n      dup2\n      dup2\n      mstore\n      0x20\n      add\n      dup3\n      dup1\n      sload\n      tag_67\n      swap1\n      tag_41\n      jump\t// in\n    tag_67:\n      dup1\n      iszero\n      tag_68\n      jumpi\n      dup1\n      0x1f\n      lt\n      tag_69\n      jumpi\n      0x0100\n      dup1\n      dup4\n      sload\n      div\n      mul\n      dup4\n      mstore\n      swap2\n      0x20\n      add\n      swap2\n      jump(tag_68)\n    tag_69:\n      dup3\n      add\n      swap2\n      swap1\n      0x00\n      mstore\n      keccak256(0x00, 0x20)\n      swap1\n    tag_70:\n      dup2\n      sload\n      dup2\n      mstore\n      swap1\n      0x01\n      add\n      swap1\n      0x20\n      add\n      dup1\n      dup4\n      gt\n      tag_70\n      jumpi\n      dup3\n      swap1\n      sub\n      0x1f\n      and\n      dup3\n      add\n      swap2\n    tag_68:\n      pop\n      pop\n      pop\n      pop\n      pop\n      dup2\n      jump\t// out\n        /* \"#utility.yul\":88:205   */\n    tag_72:\n        /* \"#utility.yul\":197:198   */\n      0x00\n        /* \"#utility.yul\":194:195   */\n      dup1\n        /* \"#utility.yul\":187:199   */\n      revert\n        /* \"#utility.yul\":211:328   */\n    tag_73:\n        /* \"#utility.yul\":320:321   */\n      0x00\n        /* \"#utility.yul\":317:318   */\n      dup1\n        /* \"#utility.yul\":310:322   */\n      revert\n        /* \"#utility.yul\":334:451   */\n    tag_74:\n        /* \"#utility.yul\":443:444   */\n      0x00\n        /* \"#utility.yul\":440:441   */\n      dup1\n        /* \"#utility.yul\":433:445   */\n      revert\n        /* \"#utility.yul\":457:574   */\n    tag_75:\n        /* \"#utility.yul\":566:567   */\n      0x00\n        /* \"#utility.yul\":563:564   */\n      dup1\n        /* \"#utility.yul\":556:568   */\n      revert\n        /* \"#utility.yul\":580:697   */\n    tag_76:\n        /* \"#utility.yul\":689:690   */\n      0x00\n        /* \"#utility.yul\":686:687   */\n      dup1\n        /* \"#utility.yul\":679:691   */\n      revert\n        /* \"#utility.yul\":717:1270   */\n    tag_77:\n        /* \"#utility.yul\":775:783   */\n      0x00\n        /* \"#utility.yul\":785:791   */\n      dup1\n        /* \"#utility.yul\":835:838   */\n      dup4\n        /* \"#utility.yul\":828:832   */\n      0x1f\n        /* \"#utility.yul\":820:826   */\n      dup5\n        /* \"#utility.yul\":816:833   */\n      add\n        /* \"#utility.yul\":812:839   */\n      slt\n        /* \"#utility.yul\":802:924   */\n      tag_104\n      jumpi\n        /* \"#utility.yul\":843:922   */\n      tag_105\n      tag_74\n      jump\t// in\n    tag_105:\n        /* \"#utility.yul\":802:924   */\n    tag_104:\n        /* \"#utility.yul\":956:962   */\n      dup3\n        /* \"#utility.yul\":943:963   */\n      calldataload\n        /* \"#utility.yul\":933:963   */\n      swap1\n      pop\n        /* \"#utility.yul\":986:1004   */\n      0xffffffffffffffff\n        /* \"#utility.yul\":978:984   */\n      dup2\n        /* \"#utility.yul\":975:1005   */\n      gt\n        /* \"#utility.yul\":972:1089   */\n      iszero\n      tag_106\n      jumpi\n        /* \"#utility.yul\":1008:1087   */\n      tag_107\n      tag_75\n      jump\t// in\n    tag_107:\n        /* \"#utility.yul\":972:1089   */\n    tag_106:\n        /* \"#utility.yul\":1122:1126   */\n      0x20\n        /* \"#utility.yul\":1114:1120   */\n      dup4\n        /* \"#utility.yul\":1110:1127   */\n      add\n        /* \"#utility.yul\":1098:1127   */\n      swap2\n      pop\n        /* \"#utility.yul\":1176:1179   */\n      dup4\n        /* \"#utility.yul\":1168:1172   */\n      0x01\n        /* \"#utility.yul\":1160:1166   */\n      dup3\n        /* \"#utility.yul\":1156:1173   */\n      mul\n        /* \"#utility.yul\":1146:1154   */\n      dup4\n        /* \"#utility.yul\":1142:1174   */\n      add\n        /* \"#utility.yul\":1139:1180   */\n      gt\n        /* \"#utility.yul\":1136:1264   */\n      iszero\n      tag_108\n      jumpi\n        /* \"#utility.yul\":1183:1262   */\n      tag_109\n      tag_76\n      jump\t// in\n    tag_109:\n        /* \"#utility.yul\":1136:1264   */\n    tag_108:\n        /* \"#utility.yul\":717:1270   */\n      swap3\n      pop\n      swap3\n      swap1\n      pop\n      jump\t// out\n        /* \"#utility.yul\":1276:1805   */\n    tag_13:\n        /* \"#utility.yul\":1347:1353   */\n      0x00\n        /* \"#utility.yul\":1355:1361   */\n      dup1\n        /* \"#utility.yul\":1404:1406   */\n      0x20\n        /* \"#utility.yul\":1392:1401   */\n      dup4\n        /* \"#utility.yul\":1383:1390   */\n      dup6\n        /* \"#utility.yul\":1379:1402   */\n      sub\n        /* \"#utility.yul\":1375:1407   */\n      slt\n        /* \"#utility.yul\":1372:1491   */\n      iszero\n      tag_111\n      jumpi\n        /* \"#utility.yul\":1410:1489   */\n      tag_112\n      tag_72\n      jump\t// in\n    tag_112:\n        /* \"#utility.yul\":1372:1491   */\n    tag_111:\n        /* \"#utility.yul\":1558:1559   */\n      0x00\n        /* \"#utility.yul\":1547:1556   */\n      dup4\n        /* \"#utility.yul\":1543:1560   */\n      add\n        /* \"#utility.yul\":1530:1561   */\n      calldataload\n        /* \"#utility.yul\":1588:1606   */\n      0xffffffffffffffff\n        /* \"#utility.yul\":1580:1586   */\n      dup2\n        /* \"#utility.yul\":1577:1607   */\n      gt\n        /* \"#utility.yul\":1574:1691   */\n      iszero\n      tag_113\n      jumpi\n        /* \"#utility.yul\":1610:1689   */\n      tag_114\n      tag_73\n      jump\t// in\n    tag_114:\n        /* \"#utility.yul\":1574:1691   */\n    tag_113:\n        /* \"#utility.yul\":1723:1788   */\n      tag_115\n        /* \"#utility.yul\":1780:1787   */\n      dup6\n        /* \"#utility.yul\":1771:1777   */\n      dup3\n        /* \"#utility.yul\":1760:1769   */\n      dup7\n        /* \"#utility.yul\":1756:1778   */\n      add\n        /* \"#utility.yul\":1723:1788   */\n      tag_77\n      jump\t// in\n    tag_115:\n        /* \"#utility.yul\":1705:1788   */\n      swap3\n      pop\n      swap3\n      pop\n        /* \"#utility.yul\":1501:1798   */\n      pop\n        /* \"#utility.yul\":1276:1805   */\n      swap3\n      pop\n      swap3\n      swap1\n      pop\n      jump\t// out\n        /* \"#utility.yul\":1811:1910   */\n    tag_78:\n        /* \"#utility.yul\":1863:1869   */\n      0x00\n        /* \"#utility.yul\":1897:1902   */\n      dup2\n        /* \"#utility.yul\":1891:1903   */\n      mload\n        /* \"#utility.yul\":1881:1903   */\n      swap1\n      pop\n        /* \"#utility.yul\":1811:1910   */\n      swap2\n      swap1\n      pop\n      jump\t// out\n        /* \"#utility.yul\":1916:2085   */\n    tag_79:\n        /* \"#utility.yul\":2000:2011   */\n      0x00\n        /* \"#utility.yul\":2034:2040   */\n      dup3\n        /* \"#utility.yul\":2029:2032   */\n      dup3\n        /* \"#utility.yul\":2022:2041   */\n      mstore\n        /* \"#utility.yul\":2074:2078   */\n      0x20\n        /* \"#utility.yul\":2069:2072   */\n      dup3\n        /* \"#utility.yul\":2065:2079   */\n      add\n        /* \"#utility.yul\":2050:2079   */\n      swap1\n      pop\n        /* \"#utility.yul\":1916:2085   */\n      swap3\n      swap2\n      pop\n      pop\n      jump\t// out\n        /* \"#utility.yul\":2091:2398   */\n    tag_80:\n        /* \"#utility.yul\":2159:2160   */\n      0x00\n        /* \"#utility.yul\":2169:2282   */\n    tag_119:\n        /* \"#utility.yul\":2183:2189   */\n      dup4\n        /* \"#utility.yul\":2180:2181   */\n      dup2\n        /* \"#utility.yul\":2177:2190   */\n      lt\n        /* \"#utility.yul\":2169:2282   */\n      iszero\n      tag_121\n      jumpi\n        /* \"#utility.yul\":2268:2269   */\n      dup1\n        /* \"#utility.yul\":2263:2266   */\n      dup3\n        /* \"#utility.yul\":2259:2270   */\n      add\n        /* \"#utility.yul\":2253:2271   */\n      mload\n        /* \"#utility.yul\":2249:2250   */\n      dup2\n        /* \"#utility.yul\":2244:2247   */\n      dup5\n        /* \"#utility.yul\":2240:2251   */\n      add\n        /* \"#utility.yul\":2233:2272   */\n      mstore\n        /* \"#utility.yul\":2205:2207   */\n      0x20\n        /* \"#utility.yul\":2202:2203   */\n      dup2\n        /* \"#utility.yul\":2198:2208   */\n      add\n        /* \"#utility.yul\":2193:2208   */\n      swap1\n      pop\n        /* \"#utility.yul\":2169:2282   */\n      jump(tag_119)\n    tag_121:\n        /* \"#utility.yul\":2300:2306   */\n      dup4\n        /* \"#utility.yul\":2297:2298   */\n      dup2\n        /* \"#utility.yul\":2294:2307   */\n      gt\n        /* \"#utility.yul\":2291:2392   */\n      iszero\n      tag_122\n      jumpi\n        /* \"#utility.yul\":2380:2381   */\n      0x00\n        /* \"#utility.yul\":2371:2377   */\n      dup5\n        /* \"#utility.yul\":2366:2369   */\n      dup5\n        /* \"#utility.yul\":2362:2378   */\n      add\n        /* \"#utility.yul\":2355:2382   */\n      mstore\n        /* \"#utility.yul\":2291:2392   */\n    tag_122:\n        /* \"#utility.yul\":2140:2398   */\n      pop\n        /* \"#utility.yul\":2091:2398   */\n      pop\n      pop\n      pop\n      jump\t// out\n        /* \"#utility.yul\":2404:2506   */\n    tag_81:\n        /* \"#utility.yul\":2445:2451   */\n      0x00\n        /* \"#utility.yul\":2496:2498   */\n      0x1f\n        /* \"#utility.yul\":2492:2499   */\n      not\n        /* \"#utility.yul\":2487:2489   */\n      0x1f\n        /* \"#utility.yul\":2480:2485   */\n      dup4\n        /* \"#utility.yul\":2476:2490   */\n      add\n        /* \"#utility.yul\":2472:2500   */\n      and\n        /* \"#utility.yul\":2462:2500   */\n      swap1\n      pop\n        /* \"#utility.yul\":2404:2506   */\n      swap2\n      swap1\n      pop\n      jump\t// out\n        /* \"#utility.yul\":2512:2876   */\n    tag_82:\n        /* \"#utility.yul\":2600:2603   */\n      0x00\n        /* \"#utility.yul\":2628:2667   */\n      tag_125\n        /* \"#utility.yul\":2661:2666   */\n      dup3\n        /* \"#utility.yul\":2628:2667   */\n      tag_78\n      jump\t// in\n    tag_125:\n        /* \"#utility.yul\":2683:2754   */\n      tag_126\n        /* \"#utility.yul\":2747:2753   */\n      dup2\n        /* \"#utility.yul\":2742:2745   */\n      dup6\n        /* \"#utility.yul\":2683:2754   */\n      tag_79\n      jump\t// in\n    tag_126:\n        /* \"#utility.yul\":2676:2754   */\n      swap4\n      pop\n        /* \"#utility.yul\":2763:2815   */\n      tag_127\n        /* \"#utility.yul\":2808:2814   */\n      dup2\n        /* \"#utility.yul\":2803:2806   */\n      dup6\n        /* \"#utility.yul\":2796:2800   */\n      0x20\n        /* \"#utility.yul\":2789:2794   */\n      dup7\n        /* \"#utility.yul\":2785:2801   */\n      add\n        /* \"#utility.yul\":2763:2815   */\n      tag_80\n      jump\t// in\n    tag_127:\n        /* \"#utility.yul\":2840:2869   */\n      tag_128\n        /* \"#utility.yul\":2862:2868   */\n      dup2\n        /* \"#utility.yul\":2840:2869   */\n      tag_81\n      jump\t// in\n    tag_128:\n        /* \"#utility.yul\":2835:2838   */\n      dup5\n        /* \"#utility.yul\":2831:2870   */\n      add\n        /* \"#utility.yul\":2824:2870   */\n      swap2\n      pop\n        /* \"#utility.yul\":2604:2876   */\n      pop\n        /* \"#utility.yul\":2512:2876   */\n      swap3\n      swap2\n      pop\n      pop\n      jump\t// out\n        /* \"#utility.yul\":2882:3195   */\n    tag_16:\n        /* \"#utility.yul\":2995:2999   */\n      0x00\n        /* \"#utility.yul\":3033:3035   */\n      0x20\n        /* \"#utility.yul\":3022:3031   */\n      dup3\n        /* \"#utility.yul\":3018:3036   */\n      add\n        /* \"#utility.yul\":3010:3036   */\n      swap1\n      pop\n        /* \"#utility.yul\":3082:3091   */\n      dup2\n        /* \"#utility.yul\":3076:3080   */\n      dup2\n        /* \"#utility.yul\":3072:3092   */\n      sub\n        /* \"#utility.yul\":3068:3069   */\n      0x00\n        /* \"#utility.yul\":3057:3066   */\n      dup4\n        /* \"#utility.yul\":3053:3070   */\n      add\n        /* \"#utility.yul\":3046:3093   */\n      mstore\n        /* \"#utility.yul\":3110:3188   */\n      tag_130\n        /* \"#utility.yul\":3183:3187   */\n      dup2\n        /* \"#utility.yul\":3174:3180   */\n      dup5\n        /* \"#utility.yul\":3110:3188   */\n      tag_82\n      jump\t// in\n    tag_130:\n        /* \"#utility.yul\":3102:3188   */\n      swap1\n      pop\n        /* \"#utility.yul\":2882:3195   */\n      swap3\n      swap2\n      pop\n      pop\n      jump\t// out\n        /* \"#utility.yul\":3201:3299   */\n    tag_83:\n        /* \"#utility.yul\":3252:3258   */\n      0x00\n        /* \"#utility.yul\":3286:3291   */\n      dup2\n        /* \"#utility.yul\":3280:3292   */\n      mload\n        /* \"#utility.yul\":3270:3292   */\n      swap1\n      pop\n        /* \"#utility.yul\":3201:3299   */\n      swap2\n      swap1\n      pop\n      jump\t// out\n        /* \"#utility.yul\":3305:3473   */\n    tag_84:\n        /* \"#utility.yul\":3388:3399   */\n      0x00\n        /* \"#utility.yul\":3422:3428   */\n      dup3\n        /* \"#utility.yul\":3417:3420   */\n      dup3\n        /* \"#utility.yul\":3410:3429   */\n      mstore\n        /* \"#utility.yul\":3462:3466   */\n      0x20\n        /* \"#utility.yul\":3457:3460   */\n      dup3\n        /* \"#utility.yul\":3453:3467   */\n      add\n        /* \"#utility.yul\":3438:3467   */\n      swap1\n      pop\n        /* \"#utility.yul\":3305:3473   */\n      swap3\n      swap2\n      pop\n      pop\n      jump\t// out\n        /* \"#utility.yul\":3479:3839   */\n    tag_85:\n        /* \"#utility.yul\":3565:3568   */\n      0x00\n        /* \"#utility.yul\":3593:3631   */\n      tag_134\n        /* \"#utility.yul\":3625:3630   */\n      dup3\n        /* \"#utility.yul\":3593:3631   */\n      tag_83\n      jump\t// in\n    tag_134:\n        /* \"#utility.yul\":3647:3717   */\n      tag_135\n        /* \"#utility.yul\":3710:3716   */\n      dup2\n        /* \"#utility.yul\":3705:3708   */\n      dup6\n        /* \"#utility.yul\":3647:3717   */\n      tag_84\n      jump\t// in\n    tag_135:\n        /* \"#utility.yul\":3640:3717   */\n      swap4\n      pop\n        /* \"#utility.yul\":3726:3778   */\n      tag_136\n        /* \"#utility.yul\":3771:3777   */\n      dup2\n        /* \"#utility.yul\":3766:3769   */\n      dup6\n        /* \"#utility.yul\":3759:3763   */\n      0x20\n        /* \"#utility.yul\":3752:3757   */\n      dup7\n        /* \"#utility.yul\":3748:3764   */\n      add\n        /* \"#utility.yul\":3726:3778   */\n      tag_80\n      jump\t// in\n    tag_136:\n        /* \"#utility.yul\":3803:3832   */\n      tag_137\n        /* \"#utility.yul\":3825:3831   */\n      dup2\n        /* \"#utility.yul\":3803:3832   */\n      tag_81\n      jump\t// in\n    tag_137:\n        /* \"#utility.yul\":3798:3801   */\n      dup5\n        /* \"#utility.yul\":3794:3833   */\n      add\n        /* \"#utility.yul\":3787:3833   */\n      swap2\n      pop\n        /* \"#utility.yul\":3569:3839   */\n      pop\n        /* \"#utility.yul\":3479:3839   */\n      swap3\n      swap2\n      pop\n      pop\n      jump\t// out\n        /* \"#utility.yul\":3845:4154   */\n    tag_20:\n        /* \"#utility.yul\":3956:3960   */\n      0x00\n        /* \"#utility.yul\":3994:3996   */\n      0x20\n        /* \"#utility.yul\":3983:3992   */\n      dup3\n        /* \"#utility.yul\":3979:3997   */\n      add\n        /* \"#utility.yul\":3971:3997   */\n      swap1\n      pop\n        /* \"#utility.yul\":4043:4052   */\n      dup2\n        /* \"#utility.yul\":4037:4041   */\n      dup2\n        /* \"#utility.yul\":4033:4053   */\n      sub\n        /* \"#utility.yul\":4029:4030   */\n      0x00\n        /* \"#utility.yul\":4018:4027   */\n      dup4\n        /* \"#utility.yul\":4014:4031   */\n      add\n        /* \"#utility.yul\":4007:4054   */\n      mstore\n        /* \"#utility.yul\":4071:4147   */\n      tag_139\n        /* \"#utility.yul\":4142:4146   */\n      dup2\n        /* \"#utility.yul\":4133:4139   */\n      dup5\n        /* \"#utility.yul\":4071:4147   */\n      tag_85\n      jump\t// in\n    tag_139:\n        /* \"#utility.yul\":4063:4147   */\n      swap1\n      pop\n        /* \"#utility.yul\":3845:4154   */\n      swap3\n      swap2\n      pop\n      pop\n      jump\t// out\n        /* \"#utility.yul\":4160:4250   */\n    tag_86:\n        /* \"#utility.yul\":4194:4201   */\n      0x00\n        /* \"#utility.yul\":4237:4242   */\n      dup2\n        /* \"#utility.yul\":4230:4243   */\n      iszero\n        /* \"#utility.yul\":4223:4244   */\n      iszero\n        /* \"#utility.yul\":4212:4244   */\n      swap1\n      pop\n        /* \"#utility.yul\":4160:4250   */\n      swap2\n      swap1\n      pop\n      jump\t// out\n        /* \"#utility.yul\":4256:4365   */\n    tag_87:\n        /* \"#utility.yul\":4337:4358   */\n      tag_142\n        /* \"#utility.yul\":4352:4357   */\n      dup2\n        /* \"#utility.yul\":4337:4358   */\n      tag_86\n      jump\t// in\n    tag_142:\n        /* \"#utility.yul\":4332:4335   */\n      dup3\n        /* \"#utility.yul\":4325:4359   */\n      mstore\n        /* \"#utility.yul\":4256:4365   */\n      pop\n      pop\n      jump\t// out\n        /* \"#utility.yul\":4371:4581   */\n    tag_30:\n        /* \"#utility.yul\":4458:4462   */\n      0x00\n        /* \"#utility.yul\":4496:4498   */\n      0x20\n        /* \"#utility.yul\":4485:4494   */\n      dup3\n        /* \"#utility.yul\":4481:4499   */\n      add\n        /* \"#utility.yul\":4473:4499   */\n      swap1\n      pop\n        /* \"#utility.yul\":4509:4574   */\n      tag_144\n        /* \"#utility.yul\":4571:4572   */\n      0x00\n        /* \"#utility.yul\":4560:4569   */\n      dup4\n        /* \"#utility.yul\":4556:4573   */\n      add\n        /* \"#utility.yul\":4547:4553   */\n      dup5\n        /* \"#utility.yul\":4509:4574   */\n      tag_87\n      jump\t// in\n    tag_144:\n        /* \"#utility.yul\":4371:4581   */\n      swap3\n      swap2\n      pop\n      pop\n      jump\t// out\n        /* \"#utility.yul\":4587:4767   */\n    tag_88:\n        /* \"#utility.yul\":4635:4712   */\n      0x4e487b7100000000000000000000000000000000000000000000000000000000\n        /* \"#utility.yul\":4632:4633   */\n      0x00\n        /* \"#utility.yul\":4625:4713   */\n      mstore\n        /* \"#utility.yul\":4732:4736   */\n      0x22\n        /* \"#utility.yul\":4729:4730   */\n      0x04\n        /* \"#utility.yul\":4722:4737   */\n      mstore\n        /* \"#utility.yul\":4756:4760   */\n      0x24\n        /* \"#utility.yul\":4753:4754   */\n      0x00\n        /* \"#utility.yul\":4746:4761   */\n      revert\n        /* \"#utility.yul\":4773:5093   */\n    tag_41:\n        /* \"#utility.yul\":4817:4823   */\n      0x00\n        /* \"#utility.yul\":4854:4855   */\n      0x02\n        /* \"#utility.yul\":4848:4852   */\n      dup3\n        /* \"#utility.yul\":4844:4856   */\n      div\n        /* \"#utility.yul\":4834:4856   */\n      swap1\n      pop\n        /* \"#utility.yul\":4901:4902   */\n      0x01\n        /* \"#utility.yul\":4895:4899   */\n      dup3\n        /* \"#utility.yul\":4891:4903   */\n      and\n        /* \"#utility.yul\":4922:4940   */\n      dup1\n        /* \"#utility.yul\":4912:4993   */\n      tag_147\n      jumpi\n        /* \"#utility.yul\":4978:4982   */\n      0x7f\n        /* \"#utility.yul\":4970:4976   */\n      dup3\n        /* \"#utility.yul\":4966:4983   */\n      and\n        /* \"#utility.yul\":4956:4983   */\n      swap2\n      pop\n        /* \"#utility.yul\":4912:4993   */\n    tag_147:\n        /* \"#utility.yul\":5040:5042   */\n      0x20\n        /* \"#utility.yul\":5032:5038   */\n      dup3\n        /* \"#utility.yul\":5029:5043   */\n      lt\n        /* \"#utility.yul\":5009:5027   */\n      dup2\n        /* \"#utility.yul\":5006:5044   */\n      sub\n        /* \"#utility.yul\":5003:5087   */\n      tag_148\n      jumpi\n        /* \"#utility.yul\":5059:5077   */\n      tag_149\n      tag_88\n      jump\t// in\n    tag_149:\n        /* \"#utility.yul\":5003:5087   */\n    tag_148:\n        /* \"#utility.yul\":4824:5093   */\n      pop\n        /* \"#utility.yul\":4773:5093   */\n      swap2\n      swap1\n      pop\n      jump\t// out\n        /* \"#utility.yul\":5099:5246   */\n    tag_89:\n        /* \"#utility.yul\":5200:5211   */\n      0x00\n        /* \"#utility.yul\":5237:5240   */\n      dup2\n        /* \"#utility.yul\":5222:5240   */\n      swap1\n      pop\n        /* \"#utility.yul\":5099:5246   */\n      swap3\n      swap2\n      pop\n      pop\n      jump\t// out\n        /* \"#utility.yul\":5252:5396   */\n    tag_90:\n        /* \"#utility.yul\":5304:5308   */\n      0x00\n        /* \"#utility.yul\":5327:5330   */\n      dup2\n        /* \"#utility.yul\":5319:5330   */\n      swap1\n      pop\n        /* \"#utility.yul\":5350:5353   */\n      dup2\n        /* \"#utility.yul\":5347:5348   */\n      0x00\n        /* \"#utility.yul\":5340:5354   */\n      mstore\n        /* \"#utility.yul\":5384:5388   */\n      0x20\n        /* \"#utility.yul\":5381:5382   */\n      0x00\n        /* \"#utility.yul\":5371:5389   */\n      keccak256\n        /* \"#utility.yul\":5363:5389   */\n      swap1\n      pop\n        /* \"#utility.yul\":5252:5396   */\n      swap2\n      swap1\n      pop\n      jump\t// out\n        /* \"#utility.yul\":5424:6302   */\n    tag_91:\n        /* \"#utility.yul\":5529:5532   */\n      0x00\n        /* \"#utility.yul\":5566:5571   */\n      dup2\n        /* \"#utility.yul\":5560:5572   */\n      sload\n        /* \"#utility.yul\":5595:5631   */\n      tag_153\n        /* \"#utility.yul\":5621:5630   */\n      dup2\n        /* \"#utility.yul\":5595:5631   */\n      tag_41\n      jump\t// in\n    tag_153:\n        /* \"#utility.yul\":5647:5735   */\n      tag_154\n        /* \"#utility.yul\":5728:5734   */\n      dup2\n        /* \"#utility.yul\":5723:5726   */\n      dup7\n        /* \"#utility.yul\":5647:5735   */\n      tag_89\n      jump\t// in\n    tag_154:\n        /* \"#utility.yul\":5640:5735   */\n      swap5\n      pop\n        /* \"#utility.yul\":5766:5767   */\n      0x01\n        /* \"#utility.yul\":5755:5764   */\n      dup3\n        /* \"#utility.yul\":5751:5768   */\n      and\n        /* \"#utility.yul\":5782:5783   */\n      0x00\n        /* \"#utility.yul\":5777:5943   */\n      dup2\n      eq\n      tag_156\n      jumpi\n        /* \"#utility.yul\":5957:5958   */\n      0x01\n        /* \"#utility.yul\":5952:6296   */\n      dup2\n      eq\n      tag_157\n      jumpi\n        /* \"#utility.yul\":5744:6296   */\n      jump(tag_155)\n        /* \"#utility.yul\":5777:5943   */\n    tag_156:\n        /* \"#utility.yul\":5861:5865   */\n      0xff\n        /* \"#utility.yul\":5857:5866   */\n      not\n        /* \"#utility.yul\":5846:5855   */\n      dup4\n        /* \"#utility.yul\":5842:5867   */\n      and\n        /* \"#utility.yul\":5837:5840   */\n      dup7\n        /* \"#utility.yul\":5830:5868   */\n      mstore\n        /* \"#utility.yul\":5923:5929   */\n      dup2\n        /* \"#utility.yul\":5916:5930   */\n      iszero\n        /* \"#utility.yul\":5909:5931   */\n      iszero\n        /* \"#utility.yul\":5901:5907   */\n      dup3\n        /* \"#utility.yul\":5897:5932   */\n      mul\n        /* \"#utility.yul\":5892:5895   */\n      dup7\n        /* \"#utility.yul\":5888:5933   */\n      add\n        /* \"#utility.yul\":5881:5933   */\n      swap4\n      pop\n        /* \"#utility.yul\":5777:5943   */\n      jump(tag_155)\n        /* \"#utility.yul\":5952:6296   */\n    tag_157:\n        /* \"#utility.yul\":6019:6060   */\n      tag_158\n        /* \"#utility.yul\":6054:6059   */\n      dup6\n        /* \"#utility.yul\":6019:6060   */\n      tag_90\n      jump\t// in\n    tag_158:\n        /* \"#utility.yul\":6082:6083   */\n      0x00\n        /* \"#utility.yul\":6096:6250   */\n    tag_159:\n        /* \"#utility.yul\":6110:6116   */\n      dup4\n        /* \"#utility.yul\":6107:6108   */\n      dup2\n        /* \"#utility.yul\":6104:6117   */\n      lt\n        /* \"#utility.yul\":6096:6250   */\n      iszero\n      tag_161\n      jumpi\n        /* \"#utility.yul\":6184:6191   */\n      dup2\n        /* \"#utility.yul\":6178:6192   */\n      sload\n        /* \"#utility.yul\":6174:6175   */\n      dup2\n        /* \"#utility.yul\":6169:6172   */\n      dup10\n        /* \"#utility.yul\":6165:6176   */\n      add\n        /* \"#utility.yul\":6158:6193   */\n      mstore\n        /* \"#utility.yul\":6234:6235   */\n      0x01\n        /* \"#utility.yul\":6225:6232   */\n      dup3\n        /* \"#utility.yul\":6221:6236   */\n      add\n        /* \"#utility.yul\":6210:6236   */\n      swap2\n      pop\n        /* \"#utility.yul\":6132:6136   */\n      0x20\n        /* \"#utility.yul\":6129:6130   */\n      dup2\n        /* \"#utility.yul\":6125:6137   */\n      add\n        /* \"#utility.yul\":6120:6137   */\n      swap1\n      pop\n        /* \"#utility.yul\":6096:6250   */\n      jump(tag_159)\n    tag_161:\n        /* \"#utility.yul\":6279:6285   */\n      dup4\n        /* \"#utility.yul\":6274:6277   */\n      dup9\n        /* \"#utility.yul\":6270:6286   */\n      add\n        /* \"#utility.yul\":6263:6286   */\n      swap6\n      pop\n        /* \"#utility.yul\":5959:6296   */\n      pop\n      pop\n        /* \"#utility.yul\":5744:6296   */\n    tag_155:\n      pop\n        /* \"#utility.yul\":5533:6302   */\n      pop\n      pop\n        /* \"#utility.yul\":5424:6302   */\n      swap3\n      swap2\n      pop\n      pop\n      jump\t// out\n        /* \"#utility.yul\":6308:6462   */\n    tag_92:\n        /* \"#utility.yul\":6392:6398   */\n      dup3\n        /* \"#utility.yul\":6387:6390   */\n      dup2\n        /* \"#utility.yul\":6382:6385   */\n      dup4\n        /* \"#utility.yul\":6369:6399   */\n      calldatacopy\n        /* \"#utility.yul\":6454:6455   */\n      0x00\n        /* \"#utility.yul\":6445:6451   */\n      dup4\n        /* \"#utility.yul\":6440:6443   */\n      dup4\n        /* \"#utility.yul\":6436:6452   */\n      add\n        /* \"#utility.yul\":6429:6456   */\n      mstore\n        /* \"#utility.yul\":6308:6462   */\n      pop\n      pop\n      pop\n      jump\t// out\n        /* \"#utility.yul\":6490:6804   */\n    tag_93:\n        /* \"#utility.yul\":6604:6607   */\n      0x00\n        /* \"#utility.yul\":6625:6713   */\n      tag_164\n        /* \"#utility.yul\":6706:6712   */\n      dup4\n        /* \"#utility.yul\":6701:6704   */\n      dup6\n        /* \"#utility.yul\":6625:6713   */\n      tag_89\n      jump\t// in\n    tag_164:\n        /* \"#utility.yul\":6618:6713   */\n      swap4\n      pop\n        /* \"#utility.yul\":6723:6766   */\n      tag_165\n        /* \"#utility.yul\":6759:6765   */\n      dup4\n        /* \"#utility.yul\":6754:6757   */\n      dup6\n        /* \"#utility.yul\":6747:6752   */\n      dup5\n        /* \"#utility.yul\":6723:6766   */\n      tag_92\n      jump\t// in\n    tag_165:\n        /* \"#utility.yul\":6791:6797   */\n      dup3\n        /* \"#utility.yul\":6786:6789   */\n      dup5\n        /* \"#utility.yul\":6782:6798   */\n      add\n        /* \"#utility.yul\":6775:6798   */\n      swap1\n      pop\n        /* \"#utility.yul\":6490:6804   */\n      swap4\n      swap3\n      pop\n      pop\n      pop\n      jump\t// out\n        /* \"#utility.yul\":6810:7259   */\n    tag_39:\n        /* \"#utility.yul\":6997:7000   */\n      0x00\n        /* \"#utility.yul\":7019:7113   */\n      tag_167\n        /* \"#utility.yul\":7109:7112   */\n      dup3\n        /* \"#utility.yul\":7100:7106   */\n      dup7\n        /* \"#utility.yul\":7019:7113   */\n      tag_91\n      jump\t// in\n    tag_167:\n        /* \"#utility.yul\":7012:7113   */\n      swap2\n      pop\n        /* \"#utility.yul\":7130:7233   */\n      tag_168\n        /* \"#utility.yul\":7229:7232   */\n      dup3\n        /* \"#utility.yul\":7220:7226   */\n      dup5\n        /* \"#utility.yul\":7212:7218   */\n      dup7\n        /* \"#utility.yul\":7130:7233   */\n      tag_93\n      jump\t// in\n    tag_168:\n        /* \"#utility.yul\":7123:7233   */\n      swap2\n      pop\n        /* \"#utility.yul\":7250:7253   */\n      dup2\n        /* \"#utility.yul\":7243:7253   */\n      swap1\n      pop\n        /* \"#utility.yul\":6810:7259   */\n      swap5\n      swap4\n      pop\n      pop\n      pop\n      pop\n      jump\t// out\n        /* \"#utility.yul\":7265:7405   */\n    tag_94:\n        /* \"#utility.yul\":7313:7317   */\n      0x00\n        /* \"#utility.yul\":7336:7339   */\n      dup2\n        /* \"#utility.yul\":7328:7339   */\n      swap1\n      pop\n        /* \"#utility.yul\":7359:7362   */\n      dup2\n        /* \"#utility.yul\":7356:7357   */\n      0x00\n        /* \"#utility.yul\":7349:7363   */\n      mstore\n        /* \"#utility.yul\":7393:7397   */\n      0x20\n        /* \"#utility.yul\":7390:7391   */\n      0x00\n        /* \"#utility.yul\":7380:7398   */\n      keccak256\n        /* \"#utility.yul\":7372:7398   */\n      swap1\n      pop\n        /* \"#utility.yul\":7265:7405   */\n      swap2\n      swap1\n      pop\n      jump\t// out\n        /* \"#utility.yul\":7433:8303   */\n    tag_95:\n        /* \"#utility.yul\":7534:7537   */\n      0x00\n        /* \"#utility.yul\":7571:7576   */\n      dup2\n        /* \"#utility.yul\":7565:7577   */\n      sload\n        /* \"#utility.yul\":7600:7636   */\n      tag_171\n        /* \"#utility.yul\":7626:7635   */\n      dup2\n        /* \"#utility.yul\":7600:7636   */\n      tag_41\n      jump\t// in\n    tag_171:\n        /* \"#utility.yul\":7652:7740   */\n      tag_172\n        /* \"#utility.yul\":7733:7739   */\n      dup2\n        /* \"#utility.yul\":7728:7731   */\n      dup7\n        /* \"#utility.yul\":7652:7740   */\n      tag_89\n      jump\t// in\n    tag_172:\n        /* \"#utility.yul\":7645:7740   */\n      swap5\n      pop\n        /* \"#utility.yul\":7771:7772   */\n      0x01\n        /* \"#utility.yul\":7760:7769   */\n      dup3\n        /* \"#utility.yul\":7756:7773   */\n      and\n        /* \"#utility.yul\":7787:7788   */\n      0x00\n        /* \"#utility.yul\":7782:7948   */\n      dup2\n      eq\n      tag_174\n      jumpi\n        /* \"#utility.yul\":7962:7963   */\n      0x01\n        /* \"#utility.yul\":7957:8297   */\n      dup2\n      eq\n      tag_175\n      jumpi\n        /* \"#utility.yul\":7749:8297   */\n      jump(tag_173)\n        /* \"#utility.yul\":7782:7948   */\n    tag_174:\n        /* \"#utility.yul\":7866:7870   */\n      0xff\n        /* \"#utility.yul\":7862:7871   */\n      not\n        /* \"#utility.yul\":7851:7860   */\n      dup4\n        /* \"#utility.yul\":7847:7872   */\n      and\n        /* \"#utility.yul\":7842:7845   */\n      dup7\n        /* \"#utility.yul\":7835:7873   */\n      mstore\n        /* \"#utility.yul\":7928:7934   */\n      dup2\n        /* \"#utility.yul\":7921:7935   */\n      iszero\n        /* \"#utility.yul\":7914:7936   */\n      iszero\n        /* \"#utility.yul\":7906:7912   */\n      dup3\n        /* \"#utility.yul\":7902:7937   */\n      mul\n        /* \"#utility.yul\":7897:7900   */\n      dup7\n        /* \"#utility.yul\":7893:7938   */\n      add\n        /* \"#utility.yul\":7886:7938   */\n      swap4\n      pop\n        /* \"#utility.yul\":7782:7948   */\n      jump(tag_173)\n        /* \"#utility.yul\":7957:8297   */\n    tag_175:\n        /* \"#utility.yul\":8024:8061   */\n      tag_176\n        /* \"#utility.yul\":8055:8060   */\n      dup6\n        /* \"#utility.yul\":8024:8061   */\n      tag_94\n      jump\t// in\n    tag_176:\n        /* \"#utility.yul\":8083:8084   */\n      0x00\n        /* \"#utility.yul\":8097:8251   */\n    tag_177:\n        /* \"#utility.yul\":8111:8117   */\n      dup4\n        /* \"#utility.yul\":8108:8109   */\n      dup2\n        /* \"#utility.yul\":8105:8118   */\n      lt\n        /* \"#utility.yul\":8097:8251   */\n      iszero\n      tag_179\n      jumpi\n        /* \"#utility.yul\":8185:8192   */\n      dup2\n        /* \"#utility.yul\":8179:8193   */\n      sload\n        /* \"#utility.yul\":8175:8176   */\n      dup2\n        /* \"#utility.yul\":8170:8173   */\n      dup10\n        /* \"#utility.yul\":8166:8177   */\n      add\n        /* \"#utility.yul\":8159:8194   */\n      mstore\n        /* \"#utility.yul\":8235:8236   */\n      0x01\n        /* \"#utility.yul\":8226:8233   */\n      dup3\n        /* \"#utility.yul\":8222:8237   */\n      add\n        /* \"#utility.yul\":8211:8237   */\n      swap2\n      pop\n        /* \"#utility.yul\":8133:8137   */\n      0x20\n        /* \"#utility.yul\":8130:8131   */\n      dup2\n        /* \"#utility.yul\":8126:8138   */\n      add\n        /* \"#utility.yul\":8121:8138   */\n      swap1\n      pop\n        /* \"#utility.yul\":8097:8251   */\n      jump(tag_177)\n    tag_179:\n        /* \"#utility.yul\":8280:8286   */\n      dup4\n        /* \"#utility.yul\":8275:8278   */\n      dup9\n        /* \"#utility.yul\":8271:8287   */\n      add\n        /* \"#utility.yul\":8264:8287   */\n      swap6\n      pop\n        /* \"#utility.yul\":7964:8297   */\n      pop\n      pop\n        /* \"#utility.yul\":7749:8297   */\n    tag_173:\n      pop\n        /* \"#utility.yul\":7538:8303   */\n      pop\n      pop\n        /* \"#utility.yul\":7433:8303   */\n      swap3\n      swap2\n      pop\n      pop\n      jump\t// out\n        /* \"#utility.yul\":8309:8574   */\n    tag_58:\n        /* \"#utility.yul\":8436:8439   */\n      0x00\n        /* \"#utility.yul\":8458:8548   */\n      tag_181\n        /* \"#utility.yul\":8544:8547   */\n      dup3\n        /* \"#utility.yul\":8535:8541   */\n      dup5\n        /* \"#utility.yul\":8458:8548   */\n      tag_95\n      jump\t// in\n    tag_181:\n        /* \"#utility.yul\":8451:8548   */\n      swap2\n      pop\n        /* \"#utility.yul\":8565:8568   */\n      dup2\n        /* \"#utility.yul\":8558:8568   */\n      swap1\n      pop\n        /* \"#utility.yul\":8309:8574   */\n      swap3\n      swap2\n      pop\n      pop\n      jump\t// out\n\n    auxdata: 0xa26469706673582212206f74727e1fc5a3d366ac7d034907fb75985e022f073ac4bb8e48c6094875d52b64736f6c634300080f0033\n}\n",
				"bytecode": {
					"linkReferences": {},
					"object": "60806040526040518060400160405280600781526020017f48656c6c6f2c2000000000000000000000000000000000000000000000000000815250600090816200004a9190620003cf565b506040518060400160405280600181526020017f410000000000000000000000000000000000000000000000000000000000000081525060019081620000919190620003cf565b506040518060400160405280600181526020017f410000000000000000000000000000000000000000000000000000000000000081525060029081620000d89190620003cf565b506001604051602001620000ed919062000550565b604051602081830303815290604052600390816200010c9190620005d9565b50600260405160200162000121919062000550565b60405160208183030381529060405260049081620001409190620005d9565b503480156200014e57600080fd5b50620006c0565b600081519050919050565b7f4e487b7100000000000000000000000000000000000000000000000000000000600052604160045260246000fd5b7f4e487b7100000000000000000000000000000000000000000000000000000000600052602260045260246000fd5b60006002820490506001821680620001d757607f821691505b602082108103620001ed57620001ec6200018f565b5b50919050565b60008190508160005260206000209050919050565b60006020601f8301049050919050565b600082821b905092915050565b600060088302620002577fffffffffffffffffffffffffffffffffffffffffffffffffffffffffffffffff8262000218565b62000263868362000218565b95508019841693508086168417925050509392505050565b6000819050919050565b6000819050919050565b6000620002b0620002aa620002a4846200027b565b62000285565b6200027b565b9050919050565b6000819050919050565b620002cc836200028f565b620002e4620002db82620002b7565b84845462000225565b825550505050565b600090565b620002fb620002ec565b62000308818484620002c1565b505050565b5b81811015620003305762000324600082620002f1565b6001810190506200030e565b5050565b601f8211156200037f576200034981620001f3565b620003548462000208565b8101602085101562000364578190505b6200037c620003738562000208565b8301826200030d565b50505b505050565b600082821c905092915050565b6000620003a46000198460080262000384565b1980831691505092915050565b6000620003bf838362000391565b9150826002028217905092915050565b620003da8262000155565b67ffffffffffffffff811115620003f657620003f562000160565b5b620004028254620001be565b6200040f82828562000334565b600060209050601f83116001811462000447576000841562000432578287015190505b6200043e8582620003b1565b865550620004ae565b601f1984166200045786620001f3565b60005b8281101562000481578489015182556001820191506020850194506020810190506200045a565b86831015620004a157848901516200049d601f89168262000391565b8355505b6001600288020188555050505b505050505050565b600081905092915050565b60008154620004d081620001be565b620004dc8186620004b6565b94506001821660008114620004fa5760018114620005105762000547565b60ff198316865281151582028601935062000547565b6200051b85620001f3565b60005b838110156200053f578154818901526001820191506020810190506200051e565b838801955050505b50505092915050565b60006200055e8284620004c1565b915081905092915050565b600081519050919050565b60008190508160005260206000209050919050565b601f821115620005d4576200059e8162000574565b620005a98462000208565b81016020851015620005b9578190505b620005d1620005c88562000208565b8301826200030d565b50505b505050565b620005e48262000569565b67ffffffffffffffff8111156200060057620005ff62000160565b5b6200060c8254620001be565b6200061982828562000589565b600060209050601f8311600181146200065157600084156200063c578287015190505b620006488582620003b1565b865550620006b8565b601f198416620006618662000574565b60005b828110156200068b5784890151825560018201915060208501945060208101905062000664565b86831015620006ab5784890151620006a7601f89168262000391565b8355505b6001600288020188555050505b505050505050565b61090780620006d06000396000f3fe608060405234801561001057600080fd5b506004361061007d5760003560e01c8063a314150f1161005b578063a314150f146100ee578063acbe84521461010c578063cfae32171461012a578063ee495002146101485761007d565b806309fca94f146100825780630add6ef2146100b25780636cc014de146100d0575b600080fd5b61009c60048036038101906100979190610510565b610166565b6040516100a991906105f6565b60405180910390f35b6100ba610195565b6040516100c7919061066d565b60405180910390f35b6100d8610223565b6040516100e591906105f6565b60405180910390f35b6100f66102b1565b60405161010391906105f6565b60405180910390f35b61011461033f565b60405161012191906106aa565b60405180910390f35b610132610385565b60405161013f91906105f6565b60405180910390f35b610150610413565b60405161015d919061066d565b60405180910390f35b60606000838360405160200161017e939291906107fc565b604051602081830303815290604052905092915050565b600480546101a2906106f4565b80601f01602080910402602001604051908101604052809291908181526020018280546101ce906106f4565b801561021b5780601f106101f05761010080835404028352916020019161021b565b820191906000526020600020905b8154815290600101906020018083116101fe57829003601f168201915b505050505081565b60018054610230906106f4565b80601f016020809104026020016040519081016040528092919081815260200182805461025c906106f4565b80156102a95780601f1061027e576101008083540402835291602001916102a9565b820191906000526020600020905b81548152906001019060200180831161028c57829003601f168201915b505050505081565b600280546102be906106f4565b80601f01602080910402602001604051908101604052809291908181526020018280546102ea906106f4565b80156103375780601f1061030c57610100808354040283529160200191610337565b820191906000526020600020905b81548152906001019060200180831161031a57829003601f168201915b505050505081565b6000600460405161035091906108ba565b6040518091039020600360405161036791906108ba565b60405180910390200361037d5760019050610382565b600090505b90565b60008054610392906106f4565b80601f01602080910402602001604051908101604052809291908181526020018280546103be906106f4565b801561040b5780601f106103e05761010080835404028352916020019161040b565b820191906000526020600020905b8154815290600101906020018083116103ee57829003601f168201915b505050505081565b60038054610420906106f4565b80601f016020809104026020016040519081016040528092919081815260200182805461044c906106f4565b80156104995780601f1061046e57610100808354040283529160200191610499565b820191906000526020600020905b81548152906001019060200180831161047c57829003601f168201915b505050505081565b600080fd5b600080fd5b600080fd5b600080fd5b600080fd5b60008083601f8401126104d0576104cf6104ab565b5b8235905067ffffffffffffffff8111156104ed576104ec6104b0565b5b602083019150836001820283011115610509576105086104b5565b5b9250929050565b60008060208385031215610527576105266104a1565b5b600083013567ffffffffffffffff811115610545576105446104a6565b5b610551858286016104ba565b92509250509250929050565b600081519050919050565b600082825260208201905092915050565b60005b8381101561059757808201518184015260208101905061057c565b838111156105a6576000848401525b50505050565b6000601f19601f8301169050919050565b60006105c88261055d565b6105d28185610568565b93506105e2818560208601610579565b6105eb816105ac565b840191505092915050565b6000602082019050818103600083015261061081846105bd565b905092915050565b600081519050919050565b600082825260208201905092915050565b600061063f82610618565b6106498185610623565b9350610659818560208601610579565b610662816105ac565b840191505092915050565b600060208201905081810360008301526106878184610634565b905092915050565b60008115159050919050565b6106a48161068f565b82525050565b60006020820190506106bf600083018461069b565b92915050565b7f4e487b7100000000000000000000000000000000000000000000000000000000600052602260045260246000fd5b6000600282049050600182168061070c57607f821691505b60208210810361071f5761071e6106c5565b5b50919050565b600081905092915050565b60008190508160005260206000209050919050565b60008154610752816106f4565b61075c8186610725565b94506001821660008114610777576001811461078c576107bf565b60ff19831686528115158202860193506107bf565b61079585610730565b60005b838110156107b757815481890152600182019150602081019050610798565b838801955050505b50505092915050565b82818337600083830152505050565b60006107e38385610725565b93506107f08385846107c8565b82840190509392505050565b60006108088286610745565b91506108158284866107d7565b9150819050949350505050565b60008190508160005260206000209050919050565b60008154610844816106f4565b61084e8186610725565b94506001821660008114610869576001811461087e576108b1565b60ff19831686528115158202860193506108b1565b61088785610822565b60005b838110156108a95781548189015260018201915060208101905061088a565b838801955050505b50505092915050565b60006108c68284610837565b91508190509291505056fea26469706673582212206f74727e1fc5a3d366ac7d034907fb75985e022f073ac4bb8e48c6094875d52b64736f6c634300080f0033",
					"opcodes": "PUSH1 0x80 PUSH1 0x40 MSTORE PUSH1 0x40 MLOAD DUP1 PUSH1 0x40 ADD PUSH1 0x40 MSTORE DUP1 PUSH1 0x7 DUP2 MSTORE PUSH1 0x20 ADD PUSH32 0x48656C6C6F2C2000000000000000000000000000000000000000000000000000 DUP2 MSTORE POP PUSH1 0x0 SWAP1 DUP2 PUSH3 0x4A SWAP2 SWAP1 PUSH3 0x3CF JUMP JUMPDEST POP PUSH1 0x40 MLOAD DUP1 PUSH1 0x40 ADD PUSH1 0x40 MSTORE DUP1 PUSH1 0x1 DUP2 MSTORE PUSH1 0x20 ADD PUSH32 0x4100000000000000000000000000000000000000000000000000000000000000 DUP2 MSTORE POP PUSH1 0x1 SWAP1 DUP2 PUSH3 0x91 SWAP2 SWAP1 PUSH3 0x3CF JUMP JUMPDEST POP PUSH1 0x40 MLOAD DUP1 PUSH1 0x40 ADD PUSH1 0x40 MSTORE DUP1 PUSH1 0x1 DUP2 MSTORE PUSH1 0x20 ADD PUSH32 0x4100000000000000000000000000000000000000000000000000000000000000 DUP2 MSTORE POP PUSH1 0x2 SWAP1 DUP2 PUSH3 0xD8 SWAP2 SWAP1 PUSH3 0x3CF JUMP JUMPDEST POP PUSH1 0x1 PUSH1 0x40 MLOAD PUSH1 0x20 ADD PUSH3 0xED SWAP2 SWAP1 PUSH3 0x550 JUMP JUMPDEST PUSH1 0x40 MLOAD PUSH1 0x20 DUP2 DUP4 SUB SUB DUP2 MSTORE SWAP1 PUSH1 0x40 MSTORE PUSH1 0x3 SWAP1 DUP2 PUSH3 0x10C SWAP2 SWAP1 PUSH3 0x5D9 JUMP JUMPDEST POP PUSH1 0x2 PUSH1 0x40 MLOAD PUSH1 0x20 ADD PUSH3 0x121 SWAP2 SWAP1 PUSH3 0x550 JUMP JUMPDEST PUSH1 0x40 MLOAD PUSH1 0x20 DUP2 DUP4 SUB SUB DUP2 MSTORE SWAP1 PUSH1 0x40 MSTORE PUSH1 0x4 SWAP1 DUP2 PUSH3 0x140 SWAP2 SWAP1 PUSH3 0x5D9 JUMP JUMPDEST POP CALLVALUE DUP1 ISZERO PUSH3 0x14E JUMPI PUSH1 0x0 DUP1 REVERT JUMPDEST POP PUSH3 0x6C0 JUMP JUMPDEST PUSH1 0x0 DUP2 MLOAD SWAP1 POP SWAP2 SWAP1 POP JUMP JUMPDEST PUSH32 0x4E487B7100000000000000000000000000000000000000000000000000000000 PUSH1 0x0 MSTORE PUSH1 0x41 PUSH1 0x4 MSTORE PUSH1 0x24 PUSH1 0x0 REVERT JUMPDEST PUSH32 0x4E487B7100000000000000000000000000000000000000000000000000000000 PUSH1 0x0 MSTORE PUSH1 0x22 PUSH1 0x4 MSTORE PUSH1 0x24 PUSH1 0x0 REVERT JUMPDEST PUSH1 0x0 PUSH1 0x2 DUP3 DIV SWAP1 POP PUSH1 0x1 DUP3 AND DUP1 PUSH3 0x1D7 JUMPI PUSH1 0x7F DUP3 AND SWAP2 POP JUMPDEST PUSH1 0x20 DUP3 LT DUP2 SUB PUSH3 0x1ED JUMPI PUSH3 0x1EC PUSH3 0x18F JUMP JUMPDEST JUMPDEST POP SWAP2 SWAP1 POP JUMP JUMPDEST PUSH1 0x0 DUP2 SWAP1 POP DUP2 PUSH1 0x0 MSTORE PUSH1 0x20 PUSH1 0x0 KECCAK256 SWAP1 POP SWAP2 SWAP1 POP JUMP JUMPDEST PUSH1 0x0 PUSH1 0x20 PUSH1 0x1F DUP4 ADD DIV SWAP1 POP SWAP2 SWAP1 POP JUMP JUMPDEST PUSH1 0x0 DUP3 DUP3 SHL SWAP1 POP SWAP3 SWAP2 POP POP JUMP JUMPDEST PUSH1 0x0 PUSH1 0x8 DUP4 MUL PUSH3 0x257 PUSH32 0xFFFFFFFFFFFFFFFFFFFFFFFFFFFFFFFFFFFFFFFFFFFFFFFFFFFFFFFFFFFFFFFF DUP3 PUSH3 0x218 JUMP JUMPDEST PUSH3 0x263 DUP7 DUP4 PUSH3 0x218 JUMP JUMPDEST SWAP6 POP DUP1 NOT DUP5 AND SWAP4 POP DUP1 DUP7 AND DUP5 OR SWAP3 POP POP POP SWAP4 SWAP3 POP POP POP JUMP JUMPDEST PUSH1 0x0 DUP2 SWAP1 POP SWAP2 SWAP1 POP JUMP JUMPDEST PUSH1 0x0 DUP2 SWAP1 POP SWAP2 SWAP1 POP JUMP JUMPDEST PUSH1 0x0 PUSH3 0x2B0 PUSH3 0x2AA PUSH3 0x2A4 DUP5 PUSH3 0x27B JUMP JUMPDEST PUSH3 0x285 JUMP JUMPDEST PUSH3 0x27B JUMP JUMPDEST SWAP1 POP SWAP2 SWAP1 POP JUMP JUMPDEST PUSH1 0x0 DUP2 SWAP1 POP SWAP2 SWAP1 POP JUMP JUMPDEST PUSH3 0x2CC DUP4 PUSH3 0x28F JUMP JUMPDEST PUSH3 0x2E4 PUSH3 0x2DB DUP3 PUSH3 0x2B7 JUMP JUMPDEST DUP5 DUP5 SLOAD PUSH3 0x225 JUMP JUMPDEST DUP3 SSTORE POP POP POP POP JUMP JUMPDEST PUSH1 0x0 SWAP1 JUMP JUMPDEST PUSH3 0x2FB PUSH3 0x2EC JUMP JUMPDEST PUSH3 0x308 DUP2 DUP5 DUP5 PUSH3 0x2C1 JUMP JUMPDEST POP POP POP JUMP JUMPDEST JUMPDEST DUP2 DUP2 LT ISZERO PUSH3 0x330 JUMPI PUSH3 0x324 PUSH1 0x0 DUP3 PUSH3 0x2F1 JUMP JUMPDEST PUSH1 0x1 DUP2 ADD SWAP1 POP PUSH3 0x30E JUMP JUMPDEST POP POP JUMP JUMPDEST PUSH1 0x1F DUP3 GT ISZERO PUSH3 0x37F JUMPI PUSH3 0x349 DUP2 PUSH3 0x1F3 JUMP JUMPDEST PUSH3 0x354 DUP5 PUSH3 0x208 JUMP JUMPDEST DUP2 ADD PUSH1 0x20 DUP6 LT ISZERO PUSH3 0x364 JUMPI DUP2 SWAP1 POP JUMPDEST PUSH3 0x37C PUSH3 0x373 DUP6 PUSH3 0x208 JUMP JUMPDEST DUP4 ADD DUP3 PUSH3 0x30D JUMP JUMPDEST POP POP JUMPDEST POP POP POP JUMP JUMPDEST PUSH1 0x0 DUP3 DUP3 SHR SWAP1 POP SWAP3 SWAP2 POP POP JUMP JUMPDEST PUSH1 0x0 PUSH3 0x3A4 PUSH1 0x0 NOT DUP5 PUSH1 0x8 MUL PUSH3 0x384 JUMP JUMPDEST NOT DUP1 DUP4 AND SWAP2 POP POP SWAP3 SWAP2 POP POP JUMP JUMPDEST PUSH1 0x0 PUSH3 0x3BF DUP4 DUP4 PUSH3 0x391 JUMP JUMPDEST SWAP2 POP DUP3 PUSH1 0x2 MUL DUP3 OR SWAP1 POP SWAP3 SWAP2 POP POP JUMP JUMPDEST PUSH3 0x3DA DUP3 PUSH3 0x155 JUMP JUMPDEST PUSH8 0xFFFFFFFFFFFFFFFF DUP2 GT ISZERO PUSH3 0x3F6 JUMPI PUSH3 0x3F5 PUSH3 0x160 JUMP JUMPDEST JUMPDEST PUSH3 0x402 DUP3 SLOAD PUSH3 0x1BE JUMP JUMPDEST PUSH3 0x40F DUP3 DUP3 DUP6 PUSH3 0x334 JUMP JUMPDEST PUSH1 0x0 PUSH1 0x20 SWAP1 POP PUSH1 0x1F DUP4 GT PUSH1 0x1 DUP2 EQ PUSH3 0x447 JUMPI PUSH1 0x0 DUP5 ISZERO PUSH3 0x432 JUMPI DUP3 DUP8 ADD MLOAD SWAP1 POP JUMPDEST PUSH3 0x43E DUP6 DUP3 PUSH3 0x3B1 JUMP JUMPDEST DUP7 SSTORE POP PUSH3 0x4AE JUMP JUMPDEST PUSH1 0x1F NOT DUP5 AND PUSH3 0x457 DUP7 PUSH3 0x1F3 JUMP JUMPDEST PUSH1 0x0 JUMPDEST DUP3 DUP2 LT ISZERO PUSH3 0x481 JUMPI DUP5 DUP10 ADD MLOAD DUP3 SSTORE PUSH1 0x1 DUP3 ADD SWAP2 POP PUSH1 0x20 DUP6 ADD SWAP5 POP PUSH1 0x20 DUP2 ADD SWAP1 POP PUSH3 0x45A JUMP JUMPDEST DUP7 DUP4 LT ISZERO PUSH3 0x4A1 JUMPI DUP5 DUP10 ADD MLOAD PUSH3 0x49D PUSH1 0x1F DUP10 AND DUP3 PUSH3 0x391 JUMP JUMPDEST DUP4 SSTORE POP JUMPDEST PUSH1 0x1 PUSH1 0x2 DUP9 MUL ADD DUP9 SSTORE POP POP POP JUMPDEST POP POP POP POP POP POP JUMP JUMPDEST PUSH1 0x0 DUP2 SWAP1 POP SWAP3 SWAP2 POP POP JUMP JUMPDEST PUSH1 0x0 DUP2 SLOAD PUSH3 0x4D0 DUP2 PUSH3 0x1BE JUMP JUMPDEST PUSH3 0x4DC DUP2 DUP7 PUSH3 0x4B6 JUMP JUMPDEST SWAP5 POP PUSH1 0x1 DUP3 AND PUSH1 0x0 DUP2 EQ PUSH3 0x4FA JUMPI PUSH1 0x1 DUP2 EQ PUSH3 0x510 JUMPI PUSH3 0x547 JUMP JUMPDEST PUSH1 0xFF NOT DUP4 AND DUP7 MSTORE DUP2 ISZERO ISZERO DUP3 MUL DUP7 ADD SWAP4 POP PUSH3 0x547 JUMP JUMPDEST PUSH3 0x51B DUP6 PUSH3 0x1F3 JUMP JUMPDEST PUSH1 0x0 JUMPDEST DUP4 DUP2 LT ISZERO PUSH3 0x53F JUMPI DUP2 SLOAD DUP2 DUP10 ADD MSTORE PUSH1 0x1 DUP3 ADD SWAP2 POP PUSH1 0x20 DUP2 ADD SWAP1 POP PUSH3 0x51E JUMP JUMPDEST DUP4 DUP9 ADD SWAP6 POP POP POP JUMPDEST POP POP POP SWAP3 SWAP2 POP POP JUMP JUMPDEST PUSH1 0x0 PUSH3 0x55E DUP3 DUP5 PUSH3 0x4C1 JUMP JUMPDEST SWAP2 POP DUP2 SWAP1 POP SWAP3 SWAP2 POP POP JUMP JUMPDEST PUSH1 0x0 DUP2 MLOAD SWAP1 POP SWAP2 SWAP1 POP JUMP JUMPDEST PUSH1 0x0 DUP2 SWAP1 POP DUP2 PUSH1 0x0 MSTORE PUSH1 0x20 PUSH1 0x0 KECCAK256 SWAP1 POP SWAP2 SWAP1 POP JUMP JUMPDEST PUSH1 0x1F DUP3 GT ISZERO PUSH3 0x5D4 JUMPI PUSH3 0x59E DUP2 PUSH3 0x574 JUMP JUMPDEST PUSH3 0x5A9 DUP5 PUSH3 0x208 JUMP JUMPDEST DUP2 ADD PUSH1 0x20 DUP6 LT ISZERO PUSH3 0x5B9 JUMPI DUP2 SWAP1 POP JUMPDEST PUSH3 0x5D1 PUSH3 0x5C8 DUP6 PUSH3 0x208 JUMP JUMPDEST DUP4 ADD DUP3 PUSH3 0x30D JUMP JUMPDEST POP POP JUMPDEST POP POP POP JUMP JUMPDEST PUSH3 0x5E4 DUP3 PUSH3 0x569 JUMP JUMPDEST PUSH8 0xFFFFFFFFFFFFFFFF DUP2 GT ISZERO PUSH3 0x600 JUMPI PUSH3 0x5FF PUSH3 0x160 JUMP JUMPDEST JUMPDEST PUSH3 0x60C DUP3 SLOAD PUSH3 0x1BE JUMP JUMPDEST PUSH3 0x619 DUP3 DUP3 DUP6 PUSH3 0x589 JUMP JUMPDEST PUSH1 0x0 PUSH1 0x20 SWAP1 POP PUSH1 0x1F DUP4 GT PUSH1 0x1 DUP2 EQ PUSH3 0x651 JUMPI PUSH1 0x0 DUP5 ISZERO PUSH3 0x63C JUMPI DUP3 DUP8 ADD MLOAD SWAP1 POP JUMPDEST PUSH3 0x648 DUP6 DUP3 PUSH3 0x3B1 JUMP JUMPDEST DUP7 SSTORE POP PUSH3 0x6B8 JUMP JUMPDEST PUSH1 0x1F NOT DUP5 AND PUSH3 0x661 DUP7 PUSH3 0x574 JUMP JUMPDEST PUSH1 0x0 JUMPDEST DUP3 DUP2 LT ISZERO PUSH3 0x68B JUMPI DUP5 DUP10 ADD MLOAD DUP3 SSTORE PUSH1 0x1 DUP3 ADD SWAP2 POP PUSH1 0x20 DUP6 ADD SWAP5 POP PUSH1 0x20 DUP2 ADD SWAP1 POP PUSH3 0x664 JUMP JUMPDEST DUP7 DUP4 LT ISZERO PUSH3 0x6AB JUMPI DUP5 DUP10 ADD MLOAD PUSH3 0x6A7 PUSH1 0x1F DUP10 AND DUP3 PUSH3 0x391 JUMP JUMPDEST DUP4 SSTORE POP JUMPDEST PUSH1 0x1 PUSH1 0x2 DUP9 MUL ADD DUP9 SSTORE POP POP POP JUMPDEST POP POP POP POP POP POP JUMP JUMPDEST PUSH2 0x907 DUP1 PUSH3 0x6D0 PUSH1 0x0 CODECOPY PUSH1 0x0 RETURN INVALID PUSH1 0x80 PUSH1 0x40 MSTORE CALLVALUE DUP1 ISZERO PUSH2 0x10 JUMPI PUSH1 0x0 DUP1 REVERT JUMPDEST POP PUSH1 0x4 CALLDATASIZE LT PUSH2 0x7D JUMPI PUSH1 0x0 CALLDATALOAD PUSH1 0xE0 SHR DUP1 PUSH4 0xA314150F GT PUSH2 0x5B JUMPI DUP1 PUSH4 0xA314150F EQ PUSH2 0xEE JUMPI DUP1 PUSH4 0xACBE8452 EQ PUSH2 0x10C JUMPI DUP1 PUSH4 0xCFAE3217 EQ PUSH2 0x12A JUMPI DUP1 PUSH4 0xEE495002 EQ PUSH2 0x148 JUMPI PUSH2 0x7D JUMP JUMPDEST DUP1 PUSH4 0x9FCA94F EQ PUSH2 0x82 JUMPI DUP1 PUSH4 0xADD6EF2 EQ PUSH2 0xB2 JUMPI DUP1 PUSH4 0x6CC014DE EQ PUSH2 0xD0 JUMPI JUMPDEST PUSH1 0x0 DUP1 REVERT JUMPDEST PUSH2 0x9C PUSH1 0x4 DUP1 CALLDATASIZE SUB DUP2 ADD SWAP1 PUSH2 0x97 SWAP2 SWAP1 PUSH2 0x510 JUMP JUMPDEST PUSH2 0x166 JUMP JUMPDEST PUSH1 0x40 MLOAD PUSH2 0xA9 SWAP2 SWAP1 PUSH2 0x5F6 JUMP JUMPDEST PUSH1 0x40 MLOAD DUP1 SWAP2 SUB SWAP1 RETURN JUMPDEST PUSH2 0xBA PUSH2 0x195 JUMP JUMPDEST PUSH1 0x40 MLOAD PUSH2 0xC7 SWAP2 SWAP1 PUSH2 0x66D JUMP JUMPDEST PUSH1 0x40 MLOAD DUP1 SWAP2 SUB SWAP1 RETURN JUMPDEST PUSH2 0xD8 PUSH2 0x223 JUMP JUMPDEST PUSH1 0x40 MLOAD PUSH2 0xE5 SWAP2 SWAP1 PUSH2 0x5F6 JUMP JUMPDEST PUSH1 0x40 MLOAD DUP1 SWAP2 SUB SWAP1 RETURN JUMPDEST PUSH2 0xF6 PUSH2 0x2B1 JUMP JUMPDEST PUSH1 0x40 MLOAD PUSH2 0x103 SWAP2 SWAP1 PUSH2 0x5F6 JUMP JUMPDEST PUSH1 0x40 MLOAD DUP1 SWAP2 SUB SWAP1 RETURN JUMPDEST PUSH2 0x114 PUSH2 0x33F JUMP JUMPDEST PUSH1 0x40 MLOAD PUSH2 0x121 SWAP2 SWAP1 PUSH2 0x6AA JUMP JUMPDEST PUSH1 0x40 MLOAD DUP1 SWAP2 SUB SWAP1 RETURN JUMPDEST PUSH2 0x132 PUSH2 0x385 JUMP JUMPDEST PUSH1 0x40 MLOAD PUSH2 0x13F SWAP2 SWAP1 PUSH2 0x5F6 JUMP JUMPDEST PUSH1 0x40 MLOAD DUP1 SWAP2 SUB SWAP1 RETURN JUMPDEST PUSH2 0x150 PUSH2 0x413 JUMP JUMPDEST PUSH1 0x40 MLOAD PUSH2 0x15D SWAP2 SWAP1 PUSH2 0x66D JUMP JUMPDEST PUSH1 0x40 MLOAD DUP1 SWAP2 SUB SWAP1 RETURN JUMPDEST PUSH1 0x60 PUSH1 0x0 DUP4 DUP4 PUSH1 0x40 MLOAD PUSH1 0x20 ADD PUSH2 0x17E SWAP4 SWAP3 SWAP2 SWAP1 PUSH2 0x7FC JUMP JUMPDEST PUSH1 0x40 MLOAD PUSH1 0x20 DUP2 DUP4 SUB SUB DUP2 MSTORE SWAP1 PUSH1 0x40 MSTORE SWAP1 POP SWAP3 SWAP2 POP POP JUMP JUMPDEST PUSH1 0x4 DUP1 SLOAD PUSH2 0x1A2 SWAP1 PUSH2 0x6F4 JUMP JUMPDEST DUP1 PUSH1 0x1F ADD PUSH1 0x20 DUP1 SWAP2 DIV MUL PUSH1 0x20 ADD PUSH1 0x40 MLOAD SWAP1 DUP2 ADD PUSH1 0x40 MSTORE DUP1 SWAP3 SWAP2 SWAP1 DUP2 DUP2 MSTORE PUSH1 0x20 ADD DUP3 DUP1 SLOAD PUSH2 0x1CE SWAP1 PUSH2 0x6F4 JUMP JUMPDEST DUP1 ISZERO PUSH2 0x21B JUMPI DUP1 PUSH1 0x1F LT PUSH2 0x1F0 JUMPI PUSH2 0x100 DUP1 DUP4 SLOAD DIV MUL DUP4 MSTORE SWAP2 PUSH1 0x20 ADD SWAP2 PUSH2 0x21B JUMP JUMPDEST DUP3 ADD SWAP2 SWAP1 PUSH1 0x0 MSTORE PUSH1 0x20 PUSH1 0x0 KECCAK256 SWAP1 JUMPDEST DUP2 SLOAD DUP2 MSTORE SWAP1 PUSH1 0x1 ADD SWAP1 PUSH1 0x20 ADD DUP1 DUP4 GT PUSH2 0x1FE JUMPI DUP3 SWAP1 SUB PUSH1 0x1F AND DUP3 ADD SWAP2 JUMPDEST POP POP POP POP POP DUP2 JUMP JUMPDEST PUSH1 0x1 DUP1 SLOAD PUSH2 0x230 SWAP1 PUSH2 0x6F4 JUMP JUMPDEST DUP1 PUSH1 0x1F ADD PUSH1 0x20 DUP1 SWAP2 DIV MUL PUSH1 0x20 ADD PUSH1 0x40 MLOAD SWAP1 DUP2 ADD PUSH1 0x40 MSTORE DUP1 SWAP3 SWAP2 SWAP1 DUP2 DUP2 MSTORE PUSH1 0x20 ADD DUP3 DUP1 SLOAD PUSH2 0x25C SWAP1 PUSH2 0x6F4 JUMP JUMPDEST DUP1 ISZERO PUSH2 0x2A9 JUMPI DUP1 PUSH1 0x1F LT PUSH2 0x27E JUMPI PUSH2 0x100 DUP1 DUP4 SLOAD DIV MUL DUP4 MSTORE SWAP2 PUSH1 0x20 ADD SWAP2 PUSH2 0x2A9 JUMP JUMPDEST DUP3 ADD SWAP2 SWAP1 PUSH1 0x0 MSTORE PUSH1 0x20 PUSH1 0x0 KECCAK256 SWAP1 JUMPDEST DUP2 SLOAD DUP2 MSTORE SWAP1 PUSH1 0x1 ADD SWAP1 PUSH1 0x20 ADD DUP1 DUP4 GT PUSH2 0x28C JUMPI DUP3 SWAP1 SUB PUSH1 0x1F AND DUP3 ADD SWAP2 JUMPDEST POP POP POP POP POP DUP2 JUMP JUMPDEST PUSH1 0x2 DUP1 SLOAD PUSH2 0x2BE SWAP1 PUSH2 0x6F4 JUMP JUMPDEST DUP1 PUSH1 0x1F ADD PUSH1 0x20 DUP1 SWAP2 DIV MUL PUSH1 0x20 ADD PUSH1 0x40 MLOAD SWAP1 DUP2 ADD PUSH1 0x40 MSTORE DUP1 SWAP3 SWAP2 SWAP1 DUP2 DUP2 MSTORE PUSH1 0x20 ADD DUP3 DUP1 SLOAD PUSH2 0x2EA SWAP1 PUSH2 0x6F4 JUMP JUMPDEST DUP1 ISZERO PUSH2 0x337 JUMPI DUP1 PUSH1 0x1F LT PUSH2 0x30C JUMPI PUSH2 0x100 DUP1 DUP4 SLOAD DIV MUL DUP4 MSTORE SWAP2 PUSH1 0x20 ADD SWAP2 PUSH2 0x337 JUMP JUMPDEST DUP3 ADD SWAP2 SWAP1 PUSH1 0x0 MSTORE PUSH1 0x20 PUSH1 0x0 KECCAK256 SWAP1 JUMPDEST DUP2 SLOAD DUP2 MSTORE SWAP1 PUSH1 0x1 ADD SWAP1 PUSH1 0x20 ADD DUP1 DUP4 GT PUSH2 0x31A JUMPI DUP3 SWAP1 SUB PUSH1 0x1F AND DUP3 ADD SWAP2 JUMPDEST POP POP POP POP POP DUP2 JUMP JUMPDEST PUSH1 0x0 PUSH1 0x4 PUSH1 0x40 MLOAD PUSH2 0x350 SWAP2 SWAP1 PUSH2 0x8BA JUMP JUMPDEST PUSH1 0x40 MLOAD DUP1 SWAP2 SUB SWAP1 KECCAK256 PUSH1 0x3 PUSH1 0x40 MLOAD PUSH2 0x367 SWAP2 SWAP1 PUSH2 0x8BA JUMP JUMPDEST PUSH1 0x40 MLOAD DUP1 SWAP2 SUB SWAP1 KECCAK256 SUB PUSH2 0x37D JUMPI PUSH1 0x1 SWAP1 POP PUSH2 0x382 JUMP JUMPDEST PUSH1 0x0 SWAP1 POP JUMPDEST SWAP1 JUMP JUMPDEST PUSH1 0x0 DUP1 SLOAD PUSH2 0x392 SWAP1 PUSH2 0x6F4 JUMP JUMPDEST DUP1 PUSH1 0x1F ADD PUSH1 0x20 DUP1 SWAP2 DIV MUL PUSH1 0x20 ADD PUSH1 0x40 MLOAD SWAP1 DUP2 ADD PUSH1 0x40 MSTORE DUP1 SWAP3 SWAP2 SWAP1 DUP2 DUP2 MSTORE PUSH1 0x20 ADD DUP3 DUP1 SLOAD PUSH2 0x3BE SWAP1 PUSH2 0x6F4 JUMP JUMPDEST DUP1 ISZERO PUSH2 0x40B JUMPI DUP1 PUSH1 0x1F LT PUSH2 0x3E0 JUMPI PUSH2 0x100 DUP1 DUP4 SLOAD DIV MUL DUP4 MSTORE SWAP2 PUSH1 0x20 ADD SWAP2 PUSH2 0x40B JUMP JUMPDEST DUP3 ADD SWAP2 SWAP1 PUSH1 0x0 MSTORE PUSH1 0x20 PUSH1 0x0 KECCAK256 SWAP1 JUMPDEST DUP2 SLOAD DUP2 MSTORE SWAP1 PUSH1 0x1 ADD SWAP1 PUSH1 0x20 ADD DUP1 DUP4 GT PUSH2 0x3EE JUMPI DUP3 SWAP1 SUB PUSH1 0x1F AND DUP3 ADD SWAP2 JUMPDEST POP POP POP POP POP DUP2 JUMP JUMPDEST PUSH1 0x3 DUP1 SLOAD PUSH2 0x420 SWAP1 PUSH2 0x6F4 JUMP JUMPDEST DUP1 PUSH1 0x1F ADD PUSH1 0x20 DUP1 SWAP2 DIV MUL PUSH1 0x20 ADD PUSH1 0x40 MLOAD SWAP1 DUP2 ADD PUSH1 0x40 MSTORE DUP1 SWAP3 SWAP2 SWAP1 DUP2 DUP2 MSTORE PUSH1 0x20 ADD DUP3 DUP1 SLOAD PUSH2 0x44C SWAP1 PUSH2 0x6F4 JUMP JUMPDEST DUP1 ISZERO PUSH2 0x499 JUMPI DUP1 PUSH1 0x1F LT PUSH2 0x46E JUMPI PUSH2 0x100 DUP1 DUP4 SLOAD DIV MUL DUP4 MSTORE SWAP2 PUSH1 0x20 ADD SWAP2 PUSH2 0x499 JUMP JUMPDEST DUP3 ADD SWAP2 SWAP1 PUSH1 0x0 MSTORE PUSH1 0x20 PUSH1 0x0 KECCAK256 SWAP1 JUMPDEST DUP2 SLOAD DUP2 MSTORE SWAP1 PUSH1 0x1 ADD SWAP1 PUSH1 0x20 ADD DUP1 DUP4 GT PUSH2 0x47C JUMPI DUP3 SWAP1 SUB PUSH1 0x1F AND DUP3 ADD SWAP2 JUMPDEST POP POP POP POP POP DUP2 JUMP JUMPDEST PUSH1 0x0 DUP1 REVERT JUMPDEST PUSH1 0x0 DUP1 REVERT JUMPDEST PUSH1 0x0 DUP1 REVERT JUMPDEST PUSH1 0x0 DUP1 REVERT JUMPDEST PUSH1 0x0 DUP1 REVERT JUMPDEST PUSH1 0x0 DUP1 DUP4 PUSH1 0x1F DUP5 ADD SLT PUSH2 0x4D0 JUMPI PUSH2 0x4CF PUSH2 0x4AB JUMP JUMPDEST JUMPDEST DUP3 CALLDATALOAD SWAP1 POP PUSH8 0xFFFFFFFFFFFFFFFF DUP2 GT ISZERO PUSH2 0x4ED JUMPI PUSH2 0x4EC PUSH2 0x4B0 JUMP JUMPDEST JUMPDEST PUSH1 0x20 DUP4 ADD SWAP2 POP DUP4 PUSH1 0x1 DUP3 MUL DUP4 ADD GT ISZERO PUSH2 0x509 JUMPI PUSH2 0x508 PUSH2 0x4B5 JUMP JUMPDEST JUMPDEST SWAP3 POP SWAP3 SWAP1 POP JUMP JUMPDEST PUSH1 0x0 DUP1 PUSH1 0x20 DUP4 DUP6 SUB SLT ISZERO PUSH2 0x527 JUMPI PUSH2 0x526 PUSH2 0x4A1 JUMP JUMPDEST JUMPDEST PUSH1 0x0 DUP4 ADD CALLDATALOAD PUSH8 0xFFFFFFFFFFFFFFFF DUP2 GT ISZERO PUSH2 0x545 JUMPI PUSH2 0x544 PUSH2 0x4A6 JUMP JUMPDEST JUMPDEST PUSH2 0x551 DUP6 DUP3 DUP7 ADD PUSH2 0x4BA JUMP JUMPDEST SWAP3 POP SWAP3 POP POP SWAP3 POP SWAP3 SWAP1 POP JUMP JUMPDEST PUSH1 0x0 DUP2 MLOAD SWAP1 POP SWAP2 SWAP1 POP JUMP JUMPDEST PUSH1 0x0 DUP3 DUP3 MSTORE PUSH1 0x20 DUP3 ADD SWAP1 POP SWAP3 SWAP2 POP POP JUMP JUMPDEST PUSH1 0x0 JUMPDEST DUP4 DUP2 LT ISZERO PUSH2 0x597 JUMPI DUP1 DUP3 ADD MLOAD DUP2 DUP5 ADD MSTORE PUSH1 0x20 DUP2 ADD SWAP1 POP PUSH2 0x57C JUMP JUMPDEST DUP4 DUP2 GT ISZERO PUSH2 0x5A6 JUMPI PUSH1 0x0 DUP5 DUP5 ADD MSTORE JUMPDEST POP POP POP POP JUMP JUMPDEST PUSH1 0x0 PUSH1 0x1F NOT PUSH1 0x1F DUP4 ADD AND SWAP1 POP SWAP2 SWAP1 POP JUMP JUMPDEST PUSH1 0x0 PUSH2 0x5C8 DUP3 PUSH2 0x55D JUMP JUMPDEST PUSH2 0x5D2 DUP2 DUP6 PUSH2 0x568 JUMP JUMPDEST SWAP4 POP PUSH2 0x5E2 DUP2 DUP6 PUSH1 0x20 DUP7 ADD PUSH2 0x579 JUMP JUMPDEST PUSH2 0x5EB DUP2 PUSH2 0x5AC JUMP JUMPDEST DUP5 ADD SWAP2 POP POP SWAP3 SWAP2 POP POP JUMP JUMPDEST PUSH1 0x0 PUSH1 0x20 DUP3 ADD SWAP1 POP DUP2 DUP2 SUB PUSH1 0x0 DUP4 ADD MSTORE PUSH2 0x610 DUP2 DUP5 PUSH2 0x5BD JUMP JUMPDEST SWAP1 POP SWAP3 SWAP2 POP POP JUMP JUMPDEST PUSH1 0x0 DUP2 MLOAD SWAP1 POP SWAP2 SWAP1 POP JUMP JUMPDEST PUSH1 0x0 DUP3 DUP3 MSTORE PUSH1 0x20 DUP3 ADD SWAP1 POP SWAP3 SWAP2 POP POP JUMP JUMPDEST PUSH1 0x0 PUSH2 0x63F DUP3 PUSH2 0x618 JUMP JUMPDEST PUSH2 0x649 DUP2 DUP6 PUSH2 0x623 JUMP JUMPDEST SWAP4 POP PUSH2 0x659 DUP2 DUP6 PUSH1 0x20 DUP7 ADD PUSH2 0x579 JUMP JUMPDEST PUSH2 0x662 DUP2 PUSH2 0x5AC JUMP JUMPDEST DUP5 ADD SWAP2 POP POP SWAP3 SWAP2 POP POP JUMP JUMPDEST PUSH1 0x0 PUSH1 0x20 DUP3 ADD SWAP1 POP DUP2 DUP2 SUB PUSH1 0x0 DUP4 ADD MSTORE PUSH2 0x687 DUP2 DUP5 PUSH2 0x634 JUMP JUMPDEST SWAP1 POP SWAP3 SWAP2 POP POP JUMP JUMPDEST PUSH1 0x0 DUP2 ISZERO ISZERO SWAP1 POP SWAP2 SWAP1 POP JUMP JUMPDEST PUSH2 0x6A4 DUP2 PUSH2 0x68F JUMP JUMPDEST DUP3 MSTORE POP POP JUMP JUMPDEST PUSH1 0x0 PUSH1 0x20 DUP3 ADD SWAP1 POP PUSH2 0x6BF PUSH1 0x0 DUP4 ADD DUP5 PUSH2 0x69B JUMP JUMPDEST SWAP3 SWAP2 POP POP JUMP JUMPDEST PUSH32 0x4E487B7100000000000000000000000000000000000000000000000000000000 PUSH1 0x0 MSTORE PUSH1 0x22 PUSH1 0x4 MSTORE PUSH1 0x24 PUSH1 0x0 REVERT JUMPDEST PUSH1 0x0 PUSH1 0x2 DUP3 DIV SWAP1 POP PUSH1 0x1 DUP3 AND DUP1 PUSH2 0x70C JUMPI PUSH1 0x7F DUP3 AND SWAP2 POP JUMPDEST PUSH1 0x20 DUP3 LT DUP2 SUB PUSH2 0x71F JUMPI PUSH2 0x71E PUSH2 0x6C5 JUMP JUMPDEST JUMPDEST POP SWAP2 SWAP1 POP JUMP JUMPDEST PUSH1 0x0 DUP2 SWAP1 POP SWAP3 SWAP2 POP POP JUMP JUMPDEST PUSH1 0x0 DUP2 SWAP1 POP DUP2 PUSH1 0x0 MSTORE PUSH1 0x20 PUSH1 0x0 KECCAK256 SWAP1 POP SWAP2 SWAP1 POP JUMP JUMPDEST PUSH1 0x0 DUP2 SLOAD PUSH2 0x752 DUP2 PUSH2 0x6F4 JUMP JUMPDEST PUSH2 0x75C DUP2 DUP7 PUSH2 0x725 JUMP JUMPDEST SWAP5 POP PUSH1 0x1 DUP3 AND PUSH1 0x0 DUP2 EQ PUSH2 0x777 JUMPI PUSH1 0x1 DUP2 EQ PUSH2 0x78C JUMPI PUSH2 0x7BF JUMP JUMPDEST PUSH1 0xFF NOT DUP4 AND DUP7 MSTORE DUP2 ISZERO ISZERO DUP3 MUL DUP7 ADD SWAP4 POP PUSH2 0x7BF JUMP JUMPDEST PUSH2 0x795 DUP6 PUSH2 0x730 JUMP JUMPDEST PUSH1 0x0 JUMPDEST DUP4 DUP2 LT ISZERO PUSH2 0x7B7 JUMPI DUP2 SLOAD DUP2 DUP10 ADD MSTORE PUSH1 0x1 DUP3 ADD SWAP2 POP PUSH1 0x20 DUP2 ADD SWAP1 POP PUSH2 0x798 JUMP JUMPDEST DUP4 DUP9 ADD SWAP6 POP POP POP JUMPDEST POP POP POP SWAP3 SWAP2 POP POP JUMP JUMPDEST DUP3 DUP2 DUP4 CALLDATACOPY PUSH1 0x0 DUP4 DUP4 ADD MSTORE POP POP POP JUMP JUMPDEST PUSH1 0x0 PUSH2 0x7E3 DUP4 DUP6 PUSH2 0x725 JUMP JUMPDEST SWAP4 POP PUSH2 0x7F0 DUP4 DUP6 DUP5 PUSH2 0x7C8 JUMP JUMPDEST DUP3 DUP5 ADD SWAP1 POP SWAP4 SWAP3 POP POP POP JUMP JUMPDEST PUSH1 0x0 PUSH2 0x808 DUP3 DUP7 PUSH2 0x745 JUMP JUMPDEST SWAP2 POP PUSH2 0x815 DUP3 DUP5 DUP7 PUSH2 0x7D7 JUMP JUMPDEST SWAP2 POP DUP2 SWAP1 POP SWAP5 SWAP4 POP POP POP POP JUMP JUMPDEST PUSH1 0x0 DUP2 SWAP1 POP DUP2 PUSH1 0x0 MSTORE PUSH1 0x20 PUSH1 0x0 KECCAK256 SWAP1 POP SWAP2 SWAP1 POP JUMP JUMPDEST PUSH1 0x0 DUP2 SLOAD PUSH2 0x844 DUP2 PUSH2 0x6F4 JUMP JUMPDEST PUSH2 0x84E DUP2 DUP7 PUSH2 0x725 JUMP JUMPDEST SWAP5 POP PUSH1 0x1 DUP3 AND PUSH1 0x0 DUP2 EQ PUSH2 0x869 JUMPI PUSH1 0x1 DUP2 EQ PUSH2 0x87E JUMPI PUSH2 0x8B1 JUMP JUMPDEST PUSH1 0xFF NOT DUP4 AND DUP7 MSTORE DUP2 ISZERO ISZERO DUP3 MUL DUP7 ADD SWAP4 POP PUSH2 0x8B1 JUMP JUMPDEST PUSH2 0x887 DUP6 PUSH2 0x822 JUMP JUMPDEST PUSH1 0x0 JUMPDEST DUP4 DUP2 LT ISZERO PUSH2 0x8A9 JUMPI DUP2 SLOAD DUP2 DUP10 ADD MSTORE PUSH1 0x1 DUP3 ADD SWAP2 POP PUSH1 0x20 DUP2 ADD SWAP1 POP PUSH2 0x88A JUMP JUMPDEST DUP4 DUP9 ADD SWAP6 POP POP POP JUMPDEST POP POP POP SWAP3 SWAP2 POP POP JUMP JUMPDEST PUSH1 0x0 PUSH2 0x8C6 DUP3 DUP5 PUSH2 0x837 JUMP JUMPDEST SWAP2 POP DUP2 SWAP1 POP SWAP3 SWAP2 POP POP JUMP INVALID LOG2 PUSH5 0x6970667358 0x22 SLT KECCAK256 PUSH16 0x74727E1FC5A3D366AC7D034907FB7598 0x5E MUL 0x2F SMOD GASPRICE 0xC4 0xBB DUP15 BASEFEE 0xC6 MULMOD BASEFEE PUSH22 0xD52B64736F6C634300080F0033000000000000000000 "
				},
				"gasEstimates": {
					"creation": {
						"codeDepositCost": "462200",
						"executionCost": "infinite",
						"totalCost": "infinite"
					},
					"external": {
						"b1()": "infinite",
						"b2()": "infinite",
						"greet()": "infinite",
						"isEqual()": "infinite",
						"s1()": "infinite",
						"s2()": "infinite",
						"str(string)": "infinite"
					}
				},
				"methodIdentifiers": {
					"b1()": "ee495002",
					"b2()": "0add6ef2",
					"greet()": "cfae3217",
					"isEqual()": "acbe8452",
					"s1()": "6cc014de",
					"s2()": "a314150f",
					"str(string)": "09fca94f"
				}
			},
			"storageLayout": {
				"storage": [
					{
						"astId": 4,
						"contract": "study/chapter07/stirngOpt.sol:testStringOpt",
						"label": "greet",
						"offset": 0,
						"slot": "0",
						"type": "t_string_storage"
					},
					{
						"astId": 7,
						"contract": "study/chapter07/stirngOpt.sol:testStringOpt",
						"label": "s1",
						"offset": 0,
						"slot": "1",
						"type": "t_string_storage"
					},
					{
						"astId": 10,
						"contract": "study/chapter07/stirngOpt.sol:testStringOpt",
						"label": "s2",
						"offset": 0,
						"slot": "2",
						"type": "t_string_storage"
					},
					{
						"astId": 16,
						"contract": "study/chapter07/stirngOpt.sol:testStringOpt",
						"label": "b1",
						"offset": 0,
						"slot": "3",
						"type": "t_bytes_storage"
					},
					{
						"astId": 22,
						"contract": "study/chapter07/stirngOpt.sol:testStringOpt",
						"label": "b2",
						"offset": 0,
						"slot": "4",
						"type": "t_bytes_storage"
					}
				],
				"types": {
					"t_bytes_storage": {
						"encoding": "bytes",
						"label": "bytes",
						"numberOfBytes": "32"
					},
					"t_string_storage": {
						"encoding": "bytes",
						"label": "string",
						"numberOfBytes": "32"
					}
				}
			},
			"userdoc": {
				"kind": "user",
				"methods": {},
				"version": 1
			}
		}
	}
}