{
	"study/chapter07/arrySlice.sol": {
		"testArrySlice": {
			"abi": [
				{
					"inputs": [
						{
							"internalType": "address",
							"name": "client_",
							"type": "address"
						}
					],
					"stateMutability": "nonpayable",
					"type": "constructor"
				},
				{
					"inputs": [],
					"name": "b",
					"outputs": [
						{
							"internalType": "bytes",
							"name": "",
							"type": "bytes"
						}
					],
					"stateMutability": "view",
					"type": "function"
				},
				{
					"inputs": [
						{
							"internalType": "bytes",
							"name": "payload",
							"type": "bytes"
						}
					],
					"name": "forward",
					"outputs": [],
					"stateMutability": "nonpayable",
					"type": "function"
				}
			],
			"devdoc": {
				"kind": "dev",
				"methods": {},
				"version": 1
			},
			"evm": {
				"assembly": "    /* \"study/chapter07/arrySlice.sol\":54:889  contract testArrySlice{... */\n  mstore(0x40, 0x80)\n    /* \"study/chapter07/arrySlice.sol\":242:262  abi.encodePacked(\"\") */\n  add(0x20, mload(0x40))\n  tag_1\n  swap1\n  tag_2\n  jump\t// in\ntag_1:\n  mload(0x40)\n  0x20\n  dup2\n  dup4\n  sub\n  sub\n  dup2\n  mstore\n  swap1\n  0x40\n  mstore\n    /* \"study/chapter07/arrySlice.sol\":225:262  bytes public b = abi.encodePacked(\"\") */\n  0x01\n  swap1\n  dup2\n  tag_3\n  swap2\n  swap1\n  tag_4\n  jump\t// in\ntag_3:\n  pop\n    /* \"study/chapter07/arrySlice.sol\":158:220  constructor(address client_) {... */\n  callvalue\n  dup1\n  iszero\n  tag_5\n  jumpi\n  0x00\n  dup1\n  revert\ntag_5:\n  pop\n  mload(0x40)\n  sub(codesize, bytecodeSize)\n  dup1\n  bytecodeSize\n  dup4\n  codecopy\n  dup2\n  dup2\n  add\n  0x40\n  mstore\n  dup2\n  add\n  swap1\n  tag_6\n  swap2\n  swap1\n  tag_7\n  jump\t// in\ntag_6:\n    /* \"study/chapter07/arrySlice.sol\":206:213  client_ */\n  dup1\n    /* \"study/chapter07/arrySlice.sol\":197:203  client */\n  0x00\n  dup1\n    /* \"study/chapter07/arrySlice.sol\":197:213  client = client_ */\n  0x0100\n  exp\n  dup2\n  sload\n  dup2\n  0xffffffffffffffffffffffffffffffffffffffff\n  mul\n  not\n  and\n  swap1\n  dup4\n  0xffffffffffffffffffffffffffffffffffffffff\n  and\n  mul\n  or\n  swap1\n  sstore\n  pop\n    /* \"study/chapter07/arrySlice.sol\":158:220  constructor(address client_) {... */\n  pop\n    /* \"study/chapter07/arrySlice.sol\":54:889  contract testArrySlice{... */\n  jump(tag_10)\n    /* \"#utility.yul\":7:155   */\ntag_11:\n    /* \"#utility.yul\":109:120   */\n  0x00\n    /* \"#utility.yul\":146:149   */\n  dup2\n    /* \"#utility.yul\":131:149   */\n  swap1\n  pop\n    /* \"#utility.yul\":7:155   */\n  swap3\n  swap2\n  pop\n  pop\n  jump\t// out\n    /* \"#utility.yul\":161:275   */\ntag_12:\n  pop\n  jump\t// out\n    /* \"#utility.yul\":281:681   */\ntag_13:\n    /* \"#utility.yul\":441:444   */\n  0x00\n    /* \"#utility.yul\":462:546   */\n  tag_45\n    /* \"#utility.yul\":544:545   */\n  0x00\n    /* \"#utility.yul\":539:542   */\n  dup4\n    /* \"#utility.yul\":462:546   */\n  tag_11\n  jump\t// in\ntag_45:\n    /* \"#utility.yul\":455:546   */\n  swap2\n  pop\n    /* \"#utility.yul\":555:648   */\n  tag_46\n    /* \"#utility.yul\":644:647   */\n  dup3\n    /* \"#utility.yul\":555:648   */\n  tag_12\n  jump\t// in\ntag_46:\n    /* \"#utility.yul\":673:674   */\n  0x00\n    /* \"#utility.yul\":668:671   */\n  dup3\n    /* \"#utility.yul\":664:675   */\n  add\n    /* \"#utility.yul\":657:675   */\n  swap1\n  pop\n    /* \"#utility.yul\":281:681   */\n  swap2\n  swap1\n  pop\n  jump\t// out\n    /* \"#utility.yul\":687:1068   */\ntag_2:\n    /* \"#utility.yul\":872:875   */\n  0x00\n    /* \"#utility.yul\":894:1042   */\n  tag_48\n    /* \"#utility.yul\":1038:1041   */\n  dup3\n    /* \"#utility.yul\":894:1042   */\n  tag_13\n  jump\t// in\ntag_48:\n    /* \"#utility.yul\":887:1042   */\n  swap2\n  pop\n    /* \"#utility.yul\":1059:1062   */\n  dup2\n    /* \"#utility.yul\":1052:1062   */\n  swap1\n  pop\n    /* \"#utility.yul\":687:1068   */\n  swap2\n  swap1\n  pop\n  jump\t// out\n    /* \"#utility.yul\":1074:1172   */\ntag_14:\n    /* \"#utility.yul\":1125:1131   */\n  0x00\n    /* \"#utility.yul\":1159:1164   */\n  dup2\n    /* \"#utility.yul\":1153:1165   */\n  mload\n    /* \"#utility.yul\":1143:1165   */\n  swap1\n  pop\n    /* \"#utility.yul\":1074:1172   */\n  swap2\n  swap1\n  pop\n  jump\t// out\n    /* \"#utility.yul\":1178:1358   */\ntag_15:\n    /* \"#utility.yul\":1226:1303   */\n  0x4e487b7100000000000000000000000000000000000000000000000000000000\n    /* \"#utility.yul\":1223:1224   */\n  0x00\n    /* \"#utility.yul\":1216:1304   */\n  mstore\n    /* \"#utility.yul\":1323:1327   */\n  0x41\n    /* \"#utility.yul\":1320:1321   */\n  0x04\n    /* \"#utility.yul\":1313:1328   */\n  mstore\n    /* \"#utility.yul\":1347:1351   */\n  0x24\n    /* \"#utility.yul\":1344:1345   */\n  0x00\n    /* \"#utility.yul\":1337:1352   */\n  revert\n    /* \"#utility.yul\":1364:1544   */\ntag_16:\n    /* \"#utility.yul\":1412:1489   */\n  0x4e487b7100000000000000000000000000000000000000000000000000000000\n    /* \"#utility.yul\":1409:1410   */\n  0x00\n    /* \"#utility.yul\":1402:1490   */\n  mstore\n    /* \"#utility.yul\":1509:1513   */\n  0x22\n    /* \"#utility.yul\":1506:1507   */\n  0x04\n    /* \"#utility.yul\":1499:1514   */\n  mstore\n    /* \"#utility.yul\":1533:1537   */\n  0x24\n    /* \"#utility.yul\":1530:1531   */\n  0x00\n    /* \"#utility.yul\":1523:1538   */\n  revert\n    /* \"#utility.yul\":1550:1870   */\ntag_17:\n    /* \"#utility.yul\":1594:1600   */\n  0x00\n    /* \"#utility.yul\":1631:1632   */\n  0x02\n    /* \"#utility.yul\":1625:1629   */\n  dup3\n    /* \"#utility.yul\":1621:1633   */\n  div\n    /* \"#utility.yul\":1611:1633   */\n  swap1\n  pop\n    /* \"#utility.yul\":1678:1679   */\n  0x01\n    /* \"#utility.yul\":1672:1676   */\n  dup3\n    /* \"#utility.yul\":1668:1680   */\n  and\n    /* \"#utility.yul\":1699:1717   */\n  dup1\n    /* \"#utility.yul\":1689:1770   */\n  tag_53\n  jumpi\n    /* \"#utility.yul\":1755:1759   */\n  0x7f\n    /* \"#utility.yul\":1747:1753   */\n  dup3\n    /* \"#utility.yul\":1743:1760   */\n  and\n    /* \"#utility.yul\":1733:1760   */\n  swap2\n  pop\n    /* \"#utility.yul\":1689:1770   */\ntag_53:\n    /* \"#utility.yul\":1817:1819   */\n  0x20\n    /* \"#utility.yul\":1809:1815   */\n  dup3\n    /* \"#utility.yul\":1806:1820   */\n  lt\n    /* \"#utility.yul\":1786:1804   */\n  dup2\n    /* \"#utility.yul\":1783:1821   */\n  sub\n    /* \"#utility.yul\":1780:1864   */\n  tag_54\n  jumpi\n    /* \"#utility.yul\":1836:1854   */\n  tag_55\n  tag_16\n  jump\t// in\ntag_55:\n    /* \"#utility.yul\":1780:1864   */\ntag_54:\n    /* \"#utility.yul\":1601:1870   */\n  pop\n    /* \"#utility.yul\":1550:1870   */\n  swap2\n  swap1\n  pop\n  jump\t// out\n    /* \"#utility.yul\":1876:2016   */\ntag_18:\n    /* \"#utility.yul\":1924:1928   */\n  0x00\n    /* \"#utility.yul\":1947:1950   */\n  dup2\n    /* \"#utility.yul\":1939:1950   */\n  swap1\n  pop\n    /* \"#utility.yul\":1970:1973   */\n  dup2\n    /* \"#utility.yul\":1967:1968   */\n  0x00\n    /* \"#utility.yul\":1960:1974   */\n  mstore\n    /* \"#utility.yul\":2004:2008   */\n  0x20\n    /* \"#utility.yul\":2001:2002   */\n  0x00\n    /* \"#utility.yul\":1991:2009   */\n  keccak256\n    /* \"#utility.yul\":1983:2009   */\n  swap1\n  pop\n    /* \"#utility.yul\":1876:2016   */\n  swap2\n  swap1\n  pop\n  jump\t// out\n    /* \"#utility.yul\":2022:2115   */\ntag_19:\n    /* \"#utility.yul\":2059:2065   */\n  0x00\n    /* \"#utility.yul\":2106:2108   */\n  0x20\n    /* \"#utility.yul\":2101:2103   */\n  0x1f\n    /* \"#utility.yul\":2094:2099   */\n  dup4\n    /* \"#utility.yul\":2090:2104   */\n  add\n    /* \"#utility.yul\":2086:2109   */\n  div\n    /* \"#utility.yul\":2076:2109   */\n  swap1\n  pop\n    /* \"#utility.yul\":2022:2115   */\n  swap2\n  swap1\n  pop\n  jump\t// out\n    /* \"#utility.yul\":2121:2228   */\ntag_20:\n    /* \"#utility.yul\":2165:2173   */\n  0x00\n    /* \"#utility.yul\":2215:2220   */\n  dup3\n    /* \"#utility.yul\":2209:2213   */\n  dup3\n    /* \"#utility.yul\":2205:2221   */\n  shl\n    /* \"#utility.yul\":2184:2221   */\n  swap1\n  pop\n    /* \"#utility.yul\":2121:2228   */\n  swap3\n  swap2\n  pop\n  pop\n  jump\t// out\n    /* \"#utility.yul\":2234:2627   */\ntag_21:\n    /* \"#utility.yul\":2303:2309   */\n  0x00\n    /* \"#utility.yul\":2353:2354   */\n  0x08\n    /* \"#utility.yul\":2341:2351   */\n  dup4\n    /* \"#utility.yul\":2337:2355   */\n  mul\n    /* \"#utility.yul\":2376:2473   */\n  tag_60\n    /* \"#utility.yul\":2406:2472   */\n  0xffffffffffffffffffffffffffffffffffffffffffffffffffffffffffffffff\n    /* \"#utility.yul\":2395:2404   */\n  dup3\n    /* \"#utility.yul\":2376:2473   */\n  tag_20\n  jump\t// in\ntag_60:\n    /* \"#utility.yul\":2494:2533   */\n  tag_61\n    /* \"#utility.yul\":2524:2532   */\n  dup7\n    /* \"#utility.yul\":2513:2522   */\n  dup4\n    /* \"#utility.yul\":2494:2533   */\n  tag_20\n  jump\t// in\ntag_61:\n    /* \"#utility.yul\":2482:2533   */\n  swap6\n  pop\n    /* \"#utility.yul\":2566:2570   */\n  dup1\n    /* \"#utility.yul\":2562:2571   */\n  not\n    /* \"#utility.yul\":2555:2560   */\n  dup5\n    /* \"#utility.yul\":2551:2572   */\n  and\n    /* \"#utility.yul\":2542:2572   */\n  swap4\n  pop\n    /* \"#utility.yul\":2615:2619   */\n  dup1\n    /* \"#utility.yul\":2605:2613   */\n  dup7\n    /* \"#utility.yul\":2601:2620   */\n  and\n    /* \"#utility.yul\":2594:2599   */\n  dup5\n    /* \"#utility.yul\":2591:2621   */\n  or\n    /* \"#utility.yul\":2581:2621   */\n  swap3\n  pop\n    /* \"#utility.yul\":2310:2627   */\n  pop\n  pop\n    /* \"#utility.yul\":2234:2627   */\n  swap4\n  swap3\n  pop\n  pop\n  pop\n  jump\t// out\n    /* \"#utility.yul\":2633:2710   */\ntag_22:\n    /* \"#utility.yul\":2670:2677   */\n  0x00\n    /* \"#utility.yul\":2699:2704   */\n  dup2\n    /* \"#utility.yul\":2688:2704   */\n  swap1\n  pop\n    /* \"#utility.yul\":2633:2710   */\n  swap2\n  swap1\n  pop\n  jump\t// out\n    /* \"#utility.yul\":2716:2776   */\ntag_23:\n    /* \"#utility.yul\":2744:2747   */\n  0x00\n    /* \"#utility.yul\":2765:2770   */\n  dup2\n    /* \"#utility.yul\":2758:2770   */\n  swap1\n  pop\n    /* \"#utility.yul\":2716:2776   */\n  swap2\n  swap1\n  pop\n  jump\t// out\n    /* \"#utility.yul\":2782:2924   */\ntag_24:\n    /* \"#utility.yul\":2832:2841   */\n  0x00\n    /* \"#utility.yul\":2865:2918   */\n  tag_65\n    /* \"#utility.yul\":2883:2917   */\n  tag_66\n    /* \"#utility.yul\":2892:2916   */\n  tag_67\n    /* \"#utility.yul\":2910:2915   */\n  dup5\n    /* \"#utility.yul\":2892:2916   */\n  tag_22\n  jump\t// in\ntag_67:\n    /* \"#utility.yul\":2883:2917   */\n  tag_23\n  jump\t// in\ntag_66:\n    /* \"#utility.yul\":2865:2918   */\n  tag_22\n  jump\t// in\ntag_65:\n    /* \"#utility.yul\":2852:2918   */\n  swap1\n  pop\n    /* \"#utility.yul\":2782:2924   */\n  swap2\n  swap1\n  pop\n  jump\t// out\n    /* \"#utility.yul\":2930:3005   */\ntag_25:\n    /* \"#utility.yul\":2973:2976   */\n  0x00\n    /* \"#utility.yul\":2994:2999   */\n  dup2\n    /* \"#utility.yul\":2987:2999   */\n  swap1\n  pop\n    /* \"#utility.yul\":2930:3005   */\n  swap2\n  swap1\n  pop\n  jump\t// out\n    /* \"#utility.yul\":3011:3280   */\ntag_26:\n    /* \"#utility.yul\":3121:3160   */\n  tag_70\n    /* \"#utility.yul\":3152:3159   */\n  dup4\n    /* \"#utility.yul\":3121:3160   */\n  tag_24\n  jump\t// in\ntag_70:\n    /* \"#utility.yul\":3182:3273   */\n  tag_71\n    /* \"#utility.yul\":3231:3272   */\n  tag_72\n    /* \"#utility.yul\":3255:3271   */\n  dup3\n    /* \"#utility.yul\":3231:3272   */\n  tag_25\n  jump\t// in\ntag_72:\n    /* \"#utility.yul\":3223:3229   */\n  dup5\n    /* \"#utility.yul\":3216:3220   */\n  dup5\n    /* \"#utility.yul\":3210:3221   */\n  sload\n    /* \"#utility.yul\":3182:3273   */\n  tag_21\n  jump\t// in\ntag_71:\n    /* \"#utility.yul\":3176:3180   */\n  dup3\n    /* \"#utility.yul\":3169:3274   */\n  sstore\n    /* \"#utility.yul\":3087:3280   */\n  pop\n    /* \"#utility.yul\":3011:3280   */\n  pop\n  pop\n  pop\n  jump\t// out\n    /* \"#utility.yul\":3286:3359   */\ntag_27:\n    /* \"#utility.yul\":3331:3334   */\n  0x00\n    /* \"#utility.yul\":3286:3359   */\n  swap1\n  jump\t// out\n    /* \"#utility.yul\":3365:3554   */\ntag_28:\n    /* \"#utility.yul\":3442:3474   */\n  tag_75\n  tag_27\n  jump\t// in\ntag_75:\n    /* \"#utility.yul\":3483:3548   */\n  tag_76\n    /* \"#utility.yul\":3541:3547   */\n  dup2\n    /* \"#utility.yul\":3533:3539   */\n  dup5\n    /* \"#utility.yul\":3527:3531   */\n  dup5\n    /* \"#utility.yul\":3483:3548   */\n  tag_26\n  jump\t// in\ntag_76:\n    /* \"#utility.yul\":3418:3554   */\n  pop\n    /* \"#utility.yul\":3365:3554   */\n  pop\n  pop\n  jump\t// out\n    /* \"#utility.yul\":3560:3746   */\ntag_29:\n    /* \"#utility.yul\":3620:3740   */\ntag_78:\n    /* \"#utility.yul\":3637:3640   */\n  dup2\n    /* \"#utility.yul\":3630:3635   */\n  dup2\n    /* \"#utility.yul\":3627:3641   */\n  lt\n    /* \"#utility.yul\":3620:3740   */\n  iszero\n  tag_80\n  jumpi\n    /* \"#utility.yul\":3691:3730   */\n  tag_81\n    /* \"#utility.yul\":3728:3729   */\n  0x00\n    /* \"#utility.yul\":3721:3726   */\n  dup3\n    /* \"#utility.yul\":3691:3730   */\n  tag_28\n  jump\t// in\ntag_81:\n    /* \"#utility.yul\":3664:3665   */\n  0x01\n    /* \"#utility.yul\":3657:3662   */\n  dup2\n    /* \"#utility.yul\":3653:3666   */\n  add\n    /* \"#utility.yul\":3644:3666   */\n  swap1\n  pop\n    /* \"#utility.yul\":3620:3740   */\n  jump(tag_78)\ntag_80:\n    /* \"#utility.yul\":3560:3746   */\n  pop\n  pop\n  jump\t// out\n    /* \"#utility.yul\":3752:4293   */\ntag_30:\n    /* \"#utility.yul\":3852:3854   */\n  0x1f\n    /* \"#utility.yul\":3847:3850   */\n  dup3\n    /* \"#utility.yul\":3844:3855   */\n  gt\n    /* \"#utility.yul\":3841:4286   */\n  iszero\n  tag_83\n  jumpi\n    /* \"#utility.yul\":3886:3923   */\n  tag_84\n    /* \"#utility.yul\":3917:3922   */\n  dup2\n    /* \"#utility.yul\":3886:3923   */\n  tag_18\n  jump\t// in\ntag_84:\n    /* \"#utility.yul\":3969:3998   */\n  tag_85\n    /* \"#utility.yul\":3987:3997   */\n  dup5\n    /* \"#utility.yul\":3969:3998   */\n  tag_19\n  jump\t// in\ntag_85:\n    /* \"#utility.yul\":3959:3967   */\n  dup2\n    /* \"#utility.yul\":3955:3999   */\n  add\n    /* \"#utility.yul\":4152:4154   */\n  0x20\n    /* \"#utility.yul\":4140:4150   */\n  dup6\n    /* \"#utility.yul\":4137:4155   */\n  lt\n    /* \"#utility.yul\":4134:4183   */\n  iszero\n  tag_86\n  jumpi\n    /* \"#utility.yul\":4173:4181   */\n  dup2\n    /* \"#utility.yul\":4158:4181   */\n  swap1\n  pop\n    /* \"#utility.yul\":4134:4183   */\ntag_86:\n    /* \"#utility.yul\":4196:4276   */\n  tag_87\n    /* \"#utility.yul\":4252:4274   */\n  tag_88\n    /* \"#utility.yul\":4270:4273   */\n  dup6\n    /* \"#utility.yul\":4252:4274   */\n  tag_19\n  jump\t// in\ntag_88:\n    /* \"#utility.yul\":4242:4250   */\n  dup4\n    /* \"#utility.yul\":4238:4275   */\n  add\n    /* \"#utility.yul\":4225:4236   */\n  dup3\n    /* \"#utility.yul\":4196:4276   */\n  tag_29\n  jump\t// in\ntag_87:\n    /* \"#utility.yul\":3856:4286   */\n  pop\n  pop\n    /* \"#utility.yul\":3841:4286   */\ntag_83:\n    /* \"#utility.yul\":3752:4293   */\n  pop\n  pop\n  pop\n  jump\t// out\n    /* \"#utility.yul\":4299:4416   */\ntag_31:\n    /* \"#utility.yul\":4353:4361   */\n  0x00\n    /* \"#utility.yul\":4403:4408   */\n  dup3\n    /* \"#utility.yul\":4397:4401   */\n  dup3\n    /* \"#utility.yul\":4393:4409   */\n  shr\n    /* \"#utility.yul\":4372:4409   */\n  swap1\n  pop\n    /* \"#utility.yul\":4299:4416   */\n  swap3\n  swap2\n  pop\n  pop\n  jump\t// out\n    /* \"#utility.yul\":4422:4591   */\ntag_32:\n    /* \"#utility.yul\":4466:4472   */\n  0x00\n    /* \"#utility.yul\":4499:4550   */\n  tag_91\n    /* \"#utility.yul\":4547:4548   */\n  0x00\n    /* \"#utility.yul\":4543:4549   */\n  not\n    /* \"#utility.yul\":4535:4540   */\n  dup5\n    /* \"#utility.yul\":4532:4533   */\n  0x08\n    /* \"#utility.yul\":4528:4541   */\n  mul\n    /* \"#utility.yul\":4499:4550   */\n  tag_31\n  jump\t// in\ntag_91:\n    /* \"#utility.yul\":4495:4551   */\n  not\n    /* \"#utility.yul\":4580:4584   */\n  dup1\n    /* \"#utility.yul\":4574:4578   */\n  dup4\n    /* \"#utility.yul\":4570:4585   */\n  and\n    /* \"#utility.yul\":4560:4585   */\n  swap2\n  pop\n    /* \"#utility.yul\":4473:4591   */\n  pop\n    /* \"#utility.yul\":4422:4591   */\n  swap3\n  swap2\n  pop\n  pop\n  jump\t// out\n    /* \"#utility.yul\":4596:4891   */\ntag_33:\n    /* \"#utility.yul\":4672:4676   */\n  0x00\n    /* \"#utility.yul\":4818:4847   */\n  tag_93\n    /* \"#utility.yul\":4843:4846   */\n  dup4\n    /* \"#utility.yul\":4837:4841   */\n  dup4\n    /* \"#utility.yul\":4818:4847   */\n  tag_32\n  jump\t// in\ntag_93:\n    /* \"#utility.yul\":4810:4847   */\n  swap2\n  pop\n    /* \"#utility.yul\":4880:4883   */\n  dup3\n    /* \"#utility.yul\":4877:4878   */\n  0x02\n    /* \"#utility.yul\":4873:4884   */\n  mul\n    /* \"#utility.yul\":4867:4871   */\n  dup3\n    /* \"#utility.yul\":4864:4885   */\n  or\n    /* \"#utility.yul\":4856:4885   */\n  swap1\n  pop\n    /* \"#utility.yul\":4596:4891   */\n  swap3\n  swap2\n  pop\n  pop\n  jump\t// out\n    /* \"#utility.yul\":4896:6286   */\ntag_4:\n    /* \"#utility.yul\":5011:5047   */\n  tag_95\n    /* \"#utility.yul\":5043:5046   */\n  dup3\n    /* \"#utility.yul\":5011:5047   */\n  tag_14\n  jump\t// in\ntag_95:\n    /* \"#utility.yul\":5112:5130   */\n  0xffffffffffffffff\n    /* \"#utility.yul\":5104:5110   */\n  dup2\n    /* \"#utility.yul\":5101:5131   */\n  gt\n    /* \"#utility.yul\":5098:5154   */\n  iszero\n  tag_96\n  jumpi\n    /* \"#utility.yul\":5134:5152   */\n  tag_97\n  tag_15\n  jump\t// in\ntag_97:\n    /* \"#utility.yul\":5098:5154   */\ntag_96:\n    /* \"#utility.yul\":5178:5216   */\n  tag_98\n    /* \"#utility.yul\":5210:5214   */\n  dup3\n    /* \"#utility.yul\":5204:5215   */\n  sload\n    /* \"#utility.yul\":5178:5216   */\n  tag_17\n  jump\t// in\ntag_98:\n    /* \"#utility.yul\":5263:5329   */\n  tag_99\n    /* \"#utility.yul\":5322:5328   */\n  dup3\n    /* \"#utility.yul\":5314:5320   */\n  dup3\n    /* \"#utility.yul\":5308:5312   */\n  dup6\n    /* \"#utility.yul\":5263:5329   */\n  tag_30\n  jump\t// in\ntag_99:\n    /* \"#utility.yul\":5356:5357   */\n  0x00\n    /* \"#utility.yul\":5380:5384   */\n  0x20\n    /* \"#utility.yul\":5367:5384   */\n  swap1\n  pop\n    /* \"#utility.yul\":5412:5414   */\n  0x1f\n    /* \"#utility.yul\":5404:5410   */\n  dup4\n    /* \"#utility.yul\":5401:5415   */\n  gt\n    /* \"#utility.yul\":5429:5430   */\n  0x01\n    /* \"#utility.yul\":5424:6041   */\n  dup2\n  eq\n  tag_101\n  jumpi\n    /* \"#utility.yul\":6085:6086   */\n  0x00\n    /* \"#utility.yul\":6102:6108   */\n  dup5\n    /* \"#utility.yul\":6099:6176   */\n  iszero\n  tag_102\n  jumpi\n    /* \"#utility.yul\":6151:6160   */\n  dup3\n    /* \"#utility.yul\":6146:6149   */\n  dup8\n    /* \"#utility.yul\":6142:6161   */\n  add\n    /* \"#utility.yul\":6136:6162   */\n  mload\n    /* \"#utility.yul\":6127:6162   */\n  swap1\n  pop\n    /* \"#utility.yul\":6099:6176   */\ntag_102:\n    /* \"#utility.yul\":6202:6269   */\n  tag_103\n    /* \"#utility.yul\":6262:6268   */\n  dup6\n    /* \"#utility.yul\":6255:6260   */\n  dup3\n    /* \"#utility.yul\":6202:6269   */\n  tag_33\n  jump\t// in\ntag_103:\n    /* \"#utility.yul\":6196:6200   */\n  dup7\n    /* \"#utility.yul\":6189:6270   */\n  sstore\n    /* \"#utility.yul\":6058:6280   */\n  pop\n    /* \"#utility.yul\":5394:6280   */\n  jump(tag_100)\n    /* \"#utility.yul\":5424:6041   */\ntag_101:\n    /* \"#utility.yul\":5476:5480   */\n  0x1f\n    /* \"#utility.yul\":5472:5481   */\n  not\n    /* \"#utility.yul\":5464:5470   */\n  dup5\n    /* \"#utility.yul\":5460:5482   */\n  and\n    /* \"#utility.yul\":5510:5546   */\n  tag_104\n    /* \"#utility.yul\":5541:5545   */\n  dup7\n    /* \"#utility.yul\":5510:5546   */\n  tag_18\n  jump\t// in\ntag_104:\n    /* \"#utility.yul\":5568:5569   */\n  0x00\n    /* \"#utility.yul\":5582:5790   */\ntag_105:\n    /* \"#utility.yul\":5596:5603   */\n  dup3\n    /* \"#utility.yul\":5593:5594   */\n  dup2\n    /* \"#utility.yul\":5590:5604   */\n  lt\n    /* \"#utility.yul\":5582:5790   */\n  iszero\n  tag_107\n  jumpi\n    /* \"#utility.yul\":5675:5684   */\n  dup5\n    /* \"#utility.yul\":5670:5673   */\n  dup10\n    /* \"#utility.yul\":5666:5685   */\n  add\n    /* \"#utility.yul\":5660:5686   */\n  mload\n    /* \"#utility.yul\":5652:5658   */\n  dup3\n    /* \"#utility.yul\":5645:5687   */\n  sstore\n    /* \"#utility.yul\":5726:5727   */\n  0x01\n    /* \"#utility.yul\":5718:5724   */\n  dup3\n    /* \"#utility.yul\":5714:5728   */\n  add\n    /* \"#utility.yul\":5704:5728   */\n  swap2\n  pop\n    /* \"#utility.yul\":5773:5775   */\n  0x20\n    /* \"#utility.yul\":5762:5771   */\n  dup6\n    /* \"#utility.yul\":5758:5776   */\n  add\n    /* \"#utility.yul\":5745:5776   */\n  swap5\n  pop\n    /* \"#utility.yul\":5619:5623   */\n  0x20\n    /* \"#utility.yul\":5616:5617   */\n  dup2\n    /* \"#utility.yul\":5612:5624   */\n  add\n    /* \"#utility.yul\":5607:5624   */\n  swap1\n  pop\n    /* \"#utility.yul\":5582:5790   */\n  jump(tag_105)\ntag_107:\n    /* \"#utility.yul\":5818:5824   */\n  dup7\n    /* \"#utility.yul\":5809:5816   */\n  dup4\n    /* \"#utility.yul\":5806:5825   */\n  lt\n    /* \"#utility.yul\":5803:5982   */\n  iszero\n  tag_108\n  jumpi\n    /* \"#utility.yul\":5876:5885   */\n  dup5\n    /* \"#utility.yul\":5871:5874   */\n  dup10\n    /* \"#utility.yul\":5867:5886   */\n  add\n    /* \"#utility.yul\":5861:5887   */\n  mload\n    /* \"#utility.yul\":5919:5967   */\n  tag_109\n    /* \"#utility.yul\":5961:5965   */\n  0x1f\n    /* \"#utility.yul\":5953:5959   */\n  dup10\n    /* \"#utility.yul\":5949:5966   */\n  and\n    /* \"#utility.yul\":5938:5947   */\n  dup3\n    /* \"#utility.yul\":5919:5967   */\n  tag_32\n  jump\t// in\ntag_109:\n    /* \"#utility.yul\":5911:5917   */\n  dup4\n    /* \"#utility.yul\":5904:5968   */\n  sstore\n    /* \"#utility.yul\":5826:5982   */\n  pop\n    /* \"#utility.yul\":5803:5982   */\ntag_108:\n    /* \"#utility.yul\":6028:6029   */\n  0x01\n    /* \"#utility.yul\":6024:6025   */\n  0x02\n    /* \"#utility.yul\":6016:6022   */\n  dup9\n    /* \"#utility.yul\":6012:6026   */\n  mul\n    /* \"#utility.yul\":6008:6030   */\n  add\n    /* \"#utility.yul\":6002:6006   */\n  dup9\n    /* \"#utility.yul\":5995:6031   */\n  sstore\n    /* \"#utility.yul\":5431:6041   */\n  pop\n  pop\n  pop\n    /* \"#utility.yul\":5394:6280   */\ntag_100:\n  pop\n    /* \"#utility.yul\":4986:6286   */\n  pop\n  pop\n  pop\n    /* \"#utility.yul\":4896:6286   */\n  pop\n  pop\n  jump\t// out\n    /* \"#utility.yul\":6373:6490   */\ntag_35:\n    /* \"#utility.yul\":6482:6483   */\n  0x00\n    /* \"#utility.yul\":6479:6480   */\n  dup1\n    /* \"#utility.yul\":6472:6484   */\n  revert\n    /* \"#utility.yul\":6619:6745   */\ntag_37:\n    /* \"#utility.yul\":6656:6663   */\n  0x00\n    /* \"#utility.yul\":6696:6738   */\n  0xffffffffffffffffffffffffffffffffffffffff\n    /* \"#utility.yul\":6689:6694   */\n  dup3\n    /* \"#utility.yul\":6685:6739   */\n  and\n    /* \"#utility.yul\":6674:6739   */\n  swap1\n  pop\n    /* \"#utility.yul\":6619:6745   */\n  swap2\n  swap1\n  pop\n  jump\t// out\n    /* \"#utility.yul\":6751:6847   */\ntag_38:\n    /* \"#utility.yul\":6788:6795   */\n  0x00\n    /* \"#utility.yul\":6817:6841   */\n  tag_115\n    /* \"#utility.yul\":6835:6840   */\n  dup3\n    /* \"#utility.yul\":6817:6841   */\n  tag_37\n  jump\t// in\ntag_115:\n    /* \"#utility.yul\":6806:6841   */\n  swap1\n  pop\n    /* \"#utility.yul\":6751:6847   */\n  swap2\n  swap1\n  pop\n  jump\t// out\n    /* \"#utility.yul\":6853:6975   */\ntag_39:\n    /* \"#utility.yul\":6926:6950   */\n  tag_117\n    /* \"#utility.yul\":6944:6949   */\n  dup2\n    /* \"#utility.yul\":6926:6950   */\n  tag_38\n  jump\t// in\ntag_117:\n    /* \"#utility.yul\":6919:6924   */\n  dup2\n    /* \"#utility.yul\":6916:6951   */\n  eq\n    /* \"#utility.yul\":6906:6969   */\n  tag_118\n  jumpi\n    /* \"#utility.yul\":6965:6966   */\n  0x00\n    /* \"#utility.yul\":6962:6963   */\n  dup1\n    /* \"#utility.yul\":6955:6967   */\n  revert\n    /* \"#utility.yul\":6906:6969   */\ntag_118:\n    /* \"#utility.yul\":6853:6975   */\n  pop\n  jump\t// out\n    /* \"#utility.yul\":6981:7124   */\ntag_40:\n    /* \"#utility.yul\":7038:7043   */\n  0x00\n    /* \"#utility.yul\":7069:7075   */\n  dup2\n    /* \"#utility.yul\":7063:7076   */\n  mload\n    /* \"#utility.yul\":7054:7076   */\n  swap1\n  pop\n    /* \"#utility.yul\":7085:7118   */\n  tag_120\n    /* \"#utility.yul\":7112:7117   */\n  dup2\n    /* \"#utility.yul\":7085:7118   */\n  tag_39\n  jump\t// in\ntag_120:\n    /* \"#utility.yul\":6981:7124   */\n  swap3\n  swap2\n  pop\n  pop\n  jump\t// out\n    /* \"#utility.yul\":7130:7481   */\ntag_7:\n    /* \"#utility.yul\":7200:7206   */\n  0x00\n    /* \"#utility.yul\":7249:7251   */\n  0x20\n    /* \"#utility.yul\":7237:7246   */\n  dup3\n    /* \"#utility.yul\":7228:7235   */\n  dup5\n    /* \"#utility.yul\":7224:7247   */\n  sub\n    /* \"#utility.yul\":7220:7252   */\n  slt\n    /* \"#utility.yul\":7217:7336   */\n  iszero\n  tag_122\n  jumpi\n    /* \"#utility.yul\":7255:7334   */\n  tag_123\n  tag_35\n  jump\t// in\ntag_123:\n    /* \"#utility.yul\":7217:7336   */\ntag_122:\n    /* \"#utility.yul\":7375:7376   */\n  0x00\n    /* \"#utility.yul\":7400:7464   */\n  tag_124\n    /* \"#utility.yul\":7456:7463   */\n  dup5\n    /* \"#utility.yul\":7447:7453   */\n  dup3\n    /* \"#utility.yul\":7436:7445   */\n  dup6\n    /* \"#utility.yul\":7432:7454   */\n  add\n    /* \"#utility.yul\":7400:7464   */\n  tag_40\n  jump\t// in\ntag_124:\n    /* \"#utility.yul\":7390:7464   */\n  swap2\n  pop\n    /* \"#utility.yul\":7346:7474   */\n  pop\n    /* \"#utility.yul\":7130:7481   */\n  swap3\n  swap2\n  pop\n  pop\n  jump\t// out\n    /* \"study/chapter07/arrySlice.sol\":54:889  contract testArrySlice{... */\ntag_10:\n  dataSize(sub_0)\n  dup1\n  dataOffset(sub_0)\n  0x00\n  codecopy\n  0x00\n  return\nstop\n\nsub_0: assembly {\n        /* \"study/chapter07/arrySlice.sol\":54:889  contract testArrySlice{... */\n      mstore(0x40, 0x80)\n      callvalue\n      dup1\n      iszero\n      tag_1\n      jumpi\n      0x00\n      dup1\n      revert\n    tag_1:\n      pop\n      jumpi(tag_2, lt(calldatasize, 0x04))\n      shr(0xe0, calldataload(0x00))\n      dup1\n      0x4df7e3d0\n      eq\n      tag_3\n      jumpi\n      dup1\n      0xd948d468\n      eq\n      tag_4\n      jumpi\n    tag_2:\n      0x00\n      dup1\n      revert\n        /* \"study/chapter07/arrySlice.sol\":225:262  bytes public b = abi.encodePacked(\"\") */\n    tag_3:\n      tag_5\n      tag_6\n      jump\t// in\n    tag_5:\n      mload(0x40)\n      tag_7\n      swap2\n      swap1\n      tag_8\n      jump\t// in\n    tag_7:\n      mload(0x40)\n      dup1\n      swap2\n      sub\n      swap1\n      return\n        /* \"study/chapter07/arrySlice.sol\":355:887  function forward(bytes calldata payload) external {... */\n    tag_4:\n      tag_9\n      0x04\n      dup1\n      calldatasize\n      sub\n      dup2\n      add\n      swap1\n      tag_10\n      swap2\n      swap1\n      tag_11\n      jump\t// in\n    tag_10:\n      tag_12\n      jump\t// in\n    tag_9:\n      stop\n        /* \"study/chapter07/arrySlice.sol\":225:262  bytes public b = abi.encodePacked(\"\") */\n    tag_6:\n      0x01\n      dup1\n      sload\n      tag_13\n      swap1\n      tag_14\n      jump\t// in\n    tag_13:\n      dup1\n      0x1f\n      add\n      0x20\n      dup1\n      swap2\n      div\n      mul\n      0x20\n      add\n      mload(0x40)\n      swap1\n      dup2\n      add\n      0x40\n      mstore\n      dup1\n      swap3\n      swap2\n      swap1\n      dup2\n      dup2\n      mstore\n      0x20\n      add\n      dup3\n      dup1\n      sload\n      tag_15\n      swap1\n      tag_14\n      jump\t// in\n    tag_15:\n      dup1\n      iszero\n      tag_16\n      jumpi\n      dup1\n      0x1f\n      lt\n      tag_17\n      jumpi\n      0x0100\n      dup1\n      dup4\n      sload\n      div\n      mul\n      dup4\n      mstore\n      swap2\n      0x20\n      add\n      swap2\n      jump(tag_16)\n    tag_17:\n      dup3\n      add\n      swap2\n      swap1\n      0x00\n      mstore\n      keccak256(0x00, 0x20)\n      swap1\n    tag_18:\n      dup2\n      sload\n      dup2\n      mstore\n      swap1\n      0x01\n      add\n      swap1\n      0x20\n      add\n      dup1\n      dup4\n      gt\n      tag_18\n      jumpi\n      dup3\n      swap1\n      sub\n      0x1f\n      and\n      dup3\n      add\n      swap2\n    tag_16:\n      pop\n      pop\n      pop\n      pop\n      pop\n      dup2\n      jump\t// out\n        /* \"study/chapter07/arrySlice.sol\":355:887  function forward(bytes calldata payload) external {... */\n    tag_12:\n        /* \"study/chapter07/arrySlice.sol\":415:425  bytes4 sig */\n      0x00\n        /* \"study/chapter07/arrySlice.sol\":435:442  payload */\n      dup3\n      dup3\n        /* \"study/chapter07/arrySlice.sol\":435:446  payload[:4] */\n      0x00\n      swap1\n        /* \"study/chapter07/arrySlice.sol\":444:445  4 */\n      0x04\n        /* \"study/chapter07/arrySlice.sol\":435:446  payload[:4] */\n      swap3\n      tag_20\n      swap4\n      swap3\n      swap2\n      swap1\n      tag_21\n      jump\t// in\n    tag_20:\n        /* \"study/chapter07/arrySlice.sol\":428:447  bytes4(payload[:4]) */\n      swap1\n      tag_22\n      swap2\n      swap1\n      tag_23\n      jump\t// in\n    tag_22:\n        /* \"study/chapter07/arrySlice.sol\":415:447  bytes4 sig = bytes4(payload[:4]) */\n      swap1\n      pop\n        /* \"study/chapter07/arrySlice.sol\":589:619  keccak256(\"setOwner(address)\") */\n      0x13af4035b0e4e7ec6b922d2e250cb1ea3b75b47dd2a6483cb76d88e6fd98ec3b\n        /* \"study/chapter07/arrySlice.sol\":575:620  sig == bytes4(keccak256(\"setOwner(address)\")) */\n      not(0xffffffffffffffffffffffffffffffffffffffffffffffffffffffff)\n      and\n        /* \"study/chapter07/arrySlice.sol\":575:578  sig */\n      dup2\n        /* \"study/chapter07/arrySlice.sol\":575:620  sig == bytes4(keccak256(\"setOwner(address)\")) */\n      not(0xffffffffffffffffffffffffffffffffffffffffffffffffffffffff)\n      and\n      sub\n        /* \"study/chapter07/arrySlice.sol\":571:775  if (sig == bytes4(keccak256(\"setOwner(address)\"))) {... */\n      tag_24\n      jumpi\n        /* \"study/chapter07/arrySlice.sol\":636:649  address owner */\n      0x00\n        /* \"study/chapter07/arrySlice.sol\":663:670  payload */\n      dup4\n      dup4\n        /* \"study/chapter07/arrySlice.sol\":671:672  4 */\n      0x04\n        /* \"study/chapter07/arrySlice.sol\":663:674  payload[4:] */\n      swap1\n      dup1\n      swap3\n      tag_25\n      swap4\n      swap3\n      swap2\n      swap1\n      tag_21\n      jump\t// in\n    tag_25:\n        /* \"study/chapter07/arrySlice.sol\":652:686  abi.decode(payload[4:], (address)) */\n      dup2\n      add\n      swap1\n      tag_26\n      swap2\n      swap1\n      tag_27\n      jump\t// in\n    tag_26:\n        /* \"study/chapter07/arrySlice.sol\":636:686  address owner = abi.decode(payload[4:], (address)) */\n      swap1\n      pop\n        /* \"study/chapter07/arrySlice.sol\":725:726  0 */\n      0x00\n        /* \"study/chapter07/arrySlice.sol\":708:727  owner != address(0) */\n      0xffffffffffffffffffffffffffffffffffffffff\n      and\n        /* \"study/chapter07/arrySlice.sol\":708:713  owner */\n      dup2\n        /* \"study/chapter07/arrySlice.sol\":708:727  owner != address(0) */\n      0xffffffffffffffffffffffffffffffffffffffff\n      and\n      sub\n        /* \"study/chapter07/arrySlice.sol\":700:764  require(owner != address(0), \"Address of owner cannot be zero.\") */\n      tag_28\n      jumpi\n      mload(0x40)\n      0x08c379a000000000000000000000000000000000000000000000000000000000\n      dup2\n      mstore\n      0x04\n      add\n      tag_29\n      swap1\n      tag_30\n      jump\t// in\n    tag_29:\n      mload(0x40)\n      dup1\n      swap2\n      sub\n      swap1\n      revert\n    tag_28:\n        /* \"study/chapter07/arrySlice.sol\":622:775  {... */\n      pop\n        /* \"study/chapter07/arrySlice.sol\":571:775  if (sig == bytes4(keccak256(\"setOwner(address)\"))) {... */\n    tag_24:\n        /* \"study/chapter07/arrySlice.sol\":785:796  bool status */\n      0x00\n        /* \"study/chapter07/arrySlice.sol\":801:807  client */\n      dup1\n      0x00\n      swap1\n      sload\n      swap1\n      0x0100\n      exp\n      swap1\n      div\n      0xffffffffffffffffffffffffffffffffffffffff\n      and\n        /* \"study/chapter07/arrySlice.sol\":801:820  client.delegatecall */\n      0xffffffffffffffffffffffffffffffffffffffff\n      and\n        /* \"study/chapter07/arrySlice.sol\":821:828  payload */\n      dup5\n      dup5\n        /* \"study/chapter07/arrySlice.sol\":801:829  client.delegatecall(payload) */\n      mload(0x40)\n      tag_31\n      swap3\n      swap2\n      swap1\n      tag_32\n      jump\t// in\n    tag_31:\n      0x00\n      mload(0x40)\n      dup1\n      dup4\n      sub\n      dup2\n      dup6\n      gas\n      delegatecall\n      swap2\n      pop\n      pop\n      returndatasize\n      dup1\n      0x00\n      dup2\n      eq\n      tag_35\n      jumpi\n      mload(0x40)\n      swap2\n      pop\n      and(add(returndatasize, 0x3f), not(0x1f))\n      dup3\n      add\n      0x40\n      mstore\n      returndatasize\n      dup3\n      mstore\n      returndatasize\n      0x00\n      0x20\n      dup5\n      add\n      returndatacopy\n      jump(tag_34)\n    tag_35:\n      0x60\n      swap2\n      pop\n    tag_34:\n      pop\n        /* \"study/chapter07/arrySlice.sol\":784:829  (bool status,) = client.delegatecall(payload) */\n      pop\n      swap1\n      pop\n        /* \"study/chapter07/arrySlice.sol\":847:853  status */\n      dup1\n        /* \"study/chapter07/arrySlice.sol\":839:880  require(status, \"Forwarded call failed.\") */\n      tag_36\n      jumpi\n      mload(0x40)\n      0x08c379a000000000000000000000000000000000000000000000000000000000\n      dup2\n      mstore\n      0x04\n      add\n      tag_37\n      swap1\n      tag_38\n      jump\t// in\n    tag_37:\n      mload(0x40)\n      dup1\n      swap2\n      sub\n      swap1\n      revert\n    tag_36:\n        /* \"study/chapter07/arrySlice.sol\":405:887  {... */\n      pop\n      pop\n        /* \"study/chapter07/arrySlice.sol\":355:887  function forward(bytes calldata payload) external {... */\n      pop\n      pop\n      jump\t// out\n        /* \"#utility.yul\":7:105   */\n    tag_39:\n        /* \"#utility.yul\":58:64   */\n      0x00\n        /* \"#utility.yul\":92:97   */\n      dup2\n        /* \"#utility.yul\":86:98   */\n      mload\n        /* \"#utility.yul\":76:98   */\n      swap1\n      pop\n        /* \"#utility.yul\":7:105   */\n      swap2\n      swap1\n      pop\n      jump\t// out\n        /* \"#utility.yul\":111:279   */\n    tag_40:\n        /* \"#utility.yul\":194:205   */\n      0x00\n        /* \"#utility.yul\":228:234   */\n      dup3\n        /* \"#utility.yul\":223:226   */\n      dup3\n        /* \"#utility.yul\":216:235   */\n      mstore\n        /* \"#utility.yul\":268:272   */\n      0x20\n        /* \"#utility.yul\":263:266   */\n      dup3\n        /* \"#utility.yul\":259:273   */\n      add\n        /* \"#utility.yul\":244:273   */\n      swap1\n      pop\n        /* \"#utility.yul\":111:279   */\n      swap3\n      swap2\n      pop\n      pop\n      jump\t// out\n        /* \"#utility.yul\":285:592   */\n    tag_41:\n        /* \"#utility.yul\":353:354   */\n      0x00\n        /* \"#utility.yul\":363:476   */\n    tag_74:\n        /* \"#utility.yul\":377:383   */\n      dup4\n        /* \"#utility.yul\":374:375   */\n      dup2\n        /* \"#utility.yul\":371:384   */\n      lt\n        /* \"#utility.yul\":363:476   */\n      iszero\n      tag_76\n      jumpi\n        /* \"#utility.yul\":462:463   */\n      dup1\n        /* \"#utility.yul\":457:460   */\n      dup3\n        /* \"#utility.yul\":453:464   */\n      add\n        /* \"#utility.yul\":447:465   */\n      mload\n        /* \"#utility.yul\":443:444   */\n      dup2\n        /* \"#utility.yul\":438:441   */\n      dup5\n        /* \"#utility.yul\":434:445   */\n      add\n        /* \"#utility.yul\":427:466   */\n      mstore\n        /* \"#utility.yul\":399:401   */\n      0x20\n        /* \"#utility.yul\":396:397   */\n      dup2\n        /* \"#utility.yul\":392:402   */\n      add\n        /* \"#utility.yul\":387:402   */\n      swap1\n      pop\n        /* \"#utility.yul\":363:476   */\n      jump(tag_74)\n    tag_76:\n        /* \"#utility.yul\":494:500   */\n      dup4\n        /* \"#utility.yul\":491:492   */\n      dup2\n        /* \"#utility.yul\":488:501   */\n      gt\n        /* \"#utility.yul\":485:586   */\n      iszero\n      tag_77\n      jumpi\n        /* \"#utility.yul\":574:575   */\n      0x00\n        /* \"#utility.yul\":565:571   */\n      dup5\n        /* \"#utility.yul\":560:563   */\n      dup5\n        /* \"#utility.yul\":556:572   */\n      add\n        /* \"#utility.yul\":549:576   */\n      mstore\n        /* \"#utility.yul\":485:586   */\n    tag_77:\n        /* \"#utility.yul\":334:592   */\n      pop\n        /* \"#utility.yul\":285:592   */\n      pop\n      pop\n      pop\n      jump\t// out\n        /* \"#utility.yul\":598:700   */\n    tag_42:\n        /* \"#utility.yul\":639:645   */\n      0x00\n        /* \"#utility.yul\":690:692   */\n      0x1f\n        /* \"#utility.yul\":686:693   */\n      not\n        /* \"#utility.yul\":681:683   */\n      0x1f\n        /* \"#utility.yul\":674:679   */\n      dup4\n        /* \"#utility.yul\":670:684   */\n      add\n        /* \"#utility.yul\":666:694   */\n      and\n        /* \"#utility.yul\":656:694   */\n      swap1\n      pop\n        /* \"#utility.yul\":598:700   */\n      swap2\n      swap1\n      pop\n      jump\t// out\n        /* \"#utility.yul\":706:1066   */\n    tag_43:\n        /* \"#utility.yul\":792:795   */\n      0x00\n        /* \"#utility.yul\":820:858   */\n      tag_80\n        /* \"#utility.yul\":852:857   */\n      dup3\n        /* \"#utility.yul\":820:858   */\n      tag_39\n      jump\t// in\n    tag_80:\n        /* \"#utility.yul\":874:944   */\n      tag_81\n        /* \"#utility.yul\":937:943   */\n      dup2\n        /* \"#utility.yul\":932:935   */\n      dup6\n        /* \"#utility.yul\":874:944   */\n      tag_40\n      jump\t// in\n    tag_81:\n        /* \"#utility.yul\":867:944   */\n      swap4\n      pop\n        /* \"#utility.yul\":953:1005   */\n      tag_82\n        /* \"#utility.yul\":998:1004   */\n      dup2\n        /* \"#utility.yul\":993:996   */\n      dup6\n        /* \"#utility.yul\":986:990   */\n      0x20\n        /* \"#utility.yul\":979:984   */\n      dup7\n        /* \"#utility.yul\":975:991   */\n      add\n        /* \"#utility.yul\":953:1005   */\n      tag_41\n      jump\t// in\n    tag_82:\n        /* \"#utility.yul\":1030:1059   */\n      tag_83\n        /* \"#utility.yul\":1052:1058   */\n      dup2\n        /* \"#utility.yul\":1030:1059   */\n      tag_42\n      jump\t// in\n    tag_83:\n        /* \"#utility.yul\":1025:1028   */\n      dup5\n        /* \"#utility.yul\":1021:1060   */\n      add\n        /* \"#utility.yul\":1014:1060   */\n      swap2\n      pop\n        /* \"#utility.yul\":796:1066   */\n      pop\n        /* \"#utility.yul\":706:1066   */\n      swap3\n      swap2\n      pop\n      pop\n      jump\t// out\n        /* \"#utility.yul\":1072:1381   */\n    tag_8:\n        /* \"#utility.yul\":1183:1187   */\n      0x00\n        /* \"#utility.yul\":1221:1223   */\n      0x20\n        /* \"#utility.yul\":1210:1219   */\n      dup3\n        /* \"#utility.yul\":1206:1224   */\n      add\n        /* \"#utility.yul\":1198:1224   */\n      swap1\n      pop\n        /* \"#utility.yul\":1270:1279   */\n      dup2\n        /* \"#utility.yul\":1264:1268   */\n      dup2\n        /* \"#utility.yul\":1260:1280   */\n      sub\n        /* \"#utility.yul\":1256:1257   */\n      0x00\n        /* \"#utility.yul\":1245:1254   */\n      dup4\n        /* \"#utility.yul\":1241:1258   */\n      add\n        /* \"#utility.yul\":1234:1281   */\n      mstore\n        /* \"#utility.yul\":1298:1374   */\n      tag_85\n        /* \"#utility.yul\":1369:1373   */\n      dup2\n        /* \"#utility.yul\":1360:1366   */\n      dup5\n        /* \"#utility.yul\":1298:1374   */\n      tag_43\n      jump\t// in\n    tag_85:\n        /* \"#utility.yul\":1290:1374   */\n      swap1\n      pop\n        /* \"#utility.yul\":1072:1381   */\n      swap3\n      swap2\n      pop\n      pop\n      jump\t// out\n        /* \"#utility.yul\":1468:1585   */\n    tag_45:\n        /* \"#utility.yul\":1577:1578   */\n      0x00\n        /* \"#utility.yul\":1574:1575   */\n      dup1\n        /* \"#utility.yul\":1567:1579   */\n      revert\n        /* \"#utility.yul\":1591:1708   */\n    tag_46:\n        /* \"#utility.yul\":1700:1701   */\n      0x00\n        /* \"#utility.yul\":1697:1698   */\n      dup1\n        /* \"#utility.yul\":1690:1702   */\n      revert\n        /* \"#utility.yul\":1714:1831   */\n    tag_47:\n        /* \"#utility.yul\":1823:1824   */\n      0x00\n        /* \"#utility.yul\":1820:1821   */\n      dup1\n        /* \"#utility.yul\":1813:1825   */\n      revert\n        /* \"#utility.yul\":1837:1954   */\n    tag_48:\n        /* \"#utility.yul\":1946:1947   */\n      0x00\n        /* \"#utility.yul\":1943:1944   */\n      dup1\n        /* \"#utility.yul\":1936:1948   */\n      revert\n        /* \"#utility.yul\":1960:2077   */\n    tag_49:\n        /* \"#utility.yul\":2069:2070   */\n      0x00\n        /* \"#utility.yul\":2066:2067   */\n      dup1\n        /* \"#utility.yul\":2059:2071   */\n      revert\n        /* \"#utility.yul\":2096:2648   */\n    tag_50:\n        /* \"#utility.yul\":2153:2161   */\n      0x00\n        /* \"#utility.yul\":2163:2169   */\n      dup1\n        /* \"#utility.yul\":2213:2216   */\n      dup4\n        /* \"#utility.yul\":2206:2210   */\n      0x1f\n        /* \"#utility.yul\":2198:2204   */\n      dup5\n        /* \"#utility.yul\":2194:2211   */\n      add\n        /* \"#utility.yul\":2190:2217   */\n      slt\n        /* \"#utility.yul\":2180:2302   */\n      tag_93\n      jumpi\n        /* \"#utility.yul\":2221:2300   */\n      tag_94\n      tag_47\n      jump\t// in\n    tag_94:\n        /* \"#utility.yul\":2180:2302   */\n    tag_93:\n        /* \"#utility.yul\":2334:2340   */\n      dup3\n        /* \"#utility.yul\":2321:2341   */\n      calldataload\n        /* \"#utility.yul\":2311:2341   */\n      swap1\n      pop\n        /* \"#utility.yul\":2364:2382   */\n      0xffffffffffffffff\n        /* \"#utility.yul\":2356:2362   */\n      dup2\n        /* \"#utility.yul\":2353:2383   */\n      gt\n        /* \"#utility.yul\":2350:2467   */\n      iszero\n      tag_95\n      jumpi\n        /* \"#utility.yul\":2386:2465   */\n      tag_96\n      tag_48\n      jump\t// in\n    tag_96:\n        /* \"#utility.yul\":2350:2467   */\n    tag_95:\n        /* \"#utility.yul\":2500:2504   */\n      0x20\n        /* \"#utility.yul\":2492:2498   */\n      dup4\n        /* \"#utility.yul\":2488:2505   */\n      add\n        /* \"#utility.yul\":2476:2505   */\n      swap2\n      pop\n        /* \"#utility.yul\":2554:2557   */\n      dup4\n        /* \"#utility.yul\":2546:2550   */\n      0x01\n        /* \"#utility.yul\":2538:2544   */\n      dup3\n        /* \"#utility.yul\":2534:2551   */\n      mul\n        /* \"#utility.yul\":2524:2532   */\n      dup4\n        /* \"#utility.yul\":2520:2552   */\n      add\n        /* \"#utility.yul\":2517:2558   */\n      gt\n        /* \"#utility.yul\":2514:2642   */\n      iszero\n      tag_97\n      jumpi\n        /* \"#utility.yul\":2561:2640   */\n      tag_98\n      tag_49\n      jump\t// in\n    tag_98:\n        /* \"#utility.yul\":2514:2642   */\n    tag_97:\n        /* \"#utility.yul\":2096:2648   */\n      swap3\n      pop\n      swap3\n      swap1\n      pop\n      jump\t// out\n        /* \"#utility.yul\":2654:3181   */\n    tag_11:\n        /* \"#utility.yul\":2724:2730   */\n      0x00\n        /* \"#utility.yul\":2732:2738   */\n      dup1\n        /* \"#utility.yul\":2781:2783   */\n      0x20\n        /* \"#utility.yul\":2769:2778   */\n      dup4\n        /* \"#utility.yul\":2760:2767   */\n      dup6\n        /* \"#utility.yul\":2756:2779   */\n      sub\n        /* \"#utility.yul\":2752:2784   */\n      slt\n        /* \"#utility.yul\":2749:2868   */\n      iszero\n      tag_100\n      jumpi\n        /* \"#utility.yul\":2787:2866   */\n      tag_101\n      tag_45\n      jump\t// in\n    tag_101:\n        /* \"#utility.yul\":2749:2868   */\n    tag_100:\n        /* \"#utility.yul\":2935:2936   */\n      0x00\n        /* \"#utility.yul\":2924:2933   */\n      dup4\n        /* \"#utility.yul\":2920:2937   */\n      add\n        /* \"#utility.yul\":2907:2938   */\n      calldataload\n        /* \"#utility.yul\":2965:2983   */\n      0xffffffffffffffff\n        /* \"#utility.yul\":2957:2963   */\n      dup2\n        /* \"#utility.yul\":2954:2984   */\n      gt\n        /* \"#utility.yul\":2951:3068   */\n      iszero\n      tag_102\n      jumpi\n        /* \"#utility.yul\":2987:3066   */\n      tag_103\n      tag_46\n      jump\t// in\n    tag_103:\n        /* \"#utility.yul\":2951:3068   */\n    tag_102:\n        /* \"#utility.yul\":3100:3164   */\n      tag_104\n        /* \"#utility.yul\":3156:3163   */\n      dup6\n        /* \"#utility.yul\":3147:3153   */\n      dup3\n        /* \"#utility.yul\":3136:3145   */\n      dup7\n        /* \"#utility.yul\":3132:3154   */\n      add\n        /* \"#utility.yul\":3100:3164   */\n      tag_50\n      jump\t// in\n    tag_104:\n        /* \"#utility.yul\":3082:3164   */\n      swap3\n      pop\n      swap3\n      pop\n        /* \"#utility.yul\":2878:3174   */\n      pop\n        /* \"#utility.yul\":2654:3181   */\n      swap3\n      pop\n      swap3\n      swap1\n      pop\n      jump\t// out\n        /* \"#utility.yul\":3187:3367   */\n    tag_51:\n        /* \"#utility.yul\":3235:3312   */\n      0x4e487b7100000000000000000000000000000000000000000000000000000000\n        /* \"#utility.yul\":3232:3233   */\n      0x00\n        /* \"#utility.yul\":3225:3313   */\n      mstore\n        /* \"#utility.yul\":3332:3336   */\n      0x22\n        /* \"#utility.yul\":3329:3330   */\n      0x04\n        /* \"#utility.yul\":3322:3337   */\n      mstore\n        /* \"#utility.yul\":3356:3360   */\n      0x24\n        /* \"#utility.yul\":3353:3354   */\n      0x00\n        /* \"#utility.yul\":3346:3361   */\n      revert\n        /* \"#utility.yul\":3373:3693   */\n    tag_14:\n        /* \"#utility.yul\":3417:3423   */\n      0x00\n        /* \"#utility.yul\":3454:3455   */\n      0x02\n        /* \"#utility.yul\":3448:3452   */\n      dup3\n        /* \"#utility.yul\":3444:3456   */\n      div\n        /* \"#utility.yul\":3434:3456   */\n      swap1\n      pop\n        /* \"#utility.yul\":3501:3502   */\n      0x01\n        /* \"#utility.yul\":3495:3499   */\n      dup3\n        /* \"#utility.yul\":3491:3503   */\n      and\n        /* \"#utility.yul\":3522:3540   */\n      dup1\n        /* \"#utility.yul\":3512:3593   */\n      tag_107\n      jumpi\n        /* \"#utility.yul\":3578:3582   */\n      0x7f\n        /* \"#utility.yul\":3570:3576   */\n      dup3\n        /* \"#utility.yul\":3566:3583   */\n      and\n        /* \"#utility.yul\":3556:3583   */\n      swap2\n      pop\n        /* \"#utility.yul\":3512:3593   */\n    tag_107:\n        /* \"#utility.yul\":3640:3642   */\n      0x20\n        /* \"#utility.yul\":3632:3638   */\n      dup3\n        /* \"#utility.yul\":3629:3643   */\n      lt\n        /* \"#utility.yul\":3609:3627   */\n      dup2\n        /* \"#utility.yul\":3606:3644   */\n      sub\n        /* \"#utility.yul\":3603:3687   */\n      tag_108\n      jumpi\n        /* \"#utility.yul\":3659:3677   */\n      tag_109\n      tag_51\n      jump\t// in\n    tag_109:\n        /* \"#utility.yul\":3603:3687   */\n    tag_108:\n        /* \"#utility.yul\":3424:3693   */\n      pop\n        /* \"#utility.yul\":3373:3693   */\n      swap2\n      swap1\n      pop\n      jump\t// out\n        /* \"#utility.yul\":3699:3816   */\n    tag_52:\n        /* \"#utility.yul\":3808:3809   */\n      0x00\n        /* \"#utility.yul\":3805:3806   */\n      dup1\n        /* \"#utility.yul\":3798:3810   */\n      revert\n        /* \"#utility.yul\":3822:3939   */\n    tag_53:\n        /* \"#utility.yul\":3931:3932   */\n      0x00\n        /* \"#utility.yul\":3928:3929   */\n      dup1\n        /* \"#utility.yul\":3921:3933   */\n      revert\n        /* \"#utility.yul\":3945:4414   */\n    tag_21:\n        /* \"#utility.yul\":4050:4059   */\n      0x00\n        /* \"#utility.yul\":4061:4070   */\n      dup1\n        /* \"#utility.yul\":4099:4107   */\n      dup6\n        /* \"#utility.yul\":4087:4097   */\n      dup6\n        /* \"#utility.yul\":4084:4108   */\n      gt\n        /* \"#utility.yul\":4081:4192   */\n      iszero\n      tag_113\n      jumpi\n        /* \"#utility.yul\":4111:4190   */\n      tag_114\n      tag_52\n      jump\t// in\n    tag_114:\n        /* \"#utility.yul\":4081:4192   */\n    tag_113:\n        /* \"#utility.yul\":4217:4223   */\n      dup4\n        /* \"#utility.yul\":4207:4215   */\n      dup7\n        /* \"#utility.yul\":4204:4224   */\n      gt\n        /* \"#utility.yul\":4201:4308   */\n      iszero\n      tag_115\n      jumpi\n        /* \"#utility.yul\":4227:4306   */\n      tag_116\n      tag_53\n      jump\t// in\n    tag_116:\n        /* \"#utility.yul\":4201:4308   */\n    tag_115:\n        /* \"#utility.yul\":4358:4359   */\n      0x01\n        /* \"#utility.yul\":4346:4356   */\n      dup6\n        /* \"#utility.yul\":4342:4360   */\n      mul\n        /* \"#utility.yul\":4334:4340   */\n      dup4\n        /* \"#utility.yul\":4330:4361   */\n      add\n        /* \"#utility.yul\":4317:4361   */\n      swap2\n      pop\n        /* \"#utility.yul\":4397:4407   */\n      dup5\n        /* \"#utility.yul\":4387:4395   */\n      dup7\n        /* \"#utility.yul\":4383:4408   */\n      sub\n        /* \"#utility.yul\":4370:4408   */\n      swap1\n      pop\n        /* \"#utility.yul\":3945:4414   */\n      swap5\n      pop\n      swap5\n      swap3\n      pop\n      pop\n      pop\n      jump\t// out\n        /* \"#utility.yul\":4420:4516   */\n    tag_54:\n        /* \"#utility.yul\":4478:4484   */\n      0x00\n        /* \"#utility.yul\":4506:4509   */\n      dup3\n        /* \"#utility.yul\":4496:4509   */\n      swap1\n      pop\n        /* \"#utility.yul\":4420:4516   */\n      swap3\n      swap2\n      pop\n      pop\n      jump\t// out\n        /* \"#utility.yul\":4614:4763   */\n    tag_56:\n        /* \"#utility.yul\":4650:4657   */\n      0x00\n        /* \"#utility.yul\":4690:4756   */\n      0xffffffff00000000000000000000000000000000000000000000000000000000\n        /* \"#utility.yul\":4683:4688   */\n      dup3\n        /* \"#utility.yul\":4679:4757   */\n      and\n        /* \"#utility.yul\":4668:4757   */\n      swap1\n      pop\n        /* \"#utility.yul\":4614:4763   */\n      swap2\n      swap1\n      pop\n      jump\t// out\n        /* \"#utility.yul\":4769:4876   */\n    tag_57:\n        /* \"#utility.yul\":4813:4821   */\n      0x00\n        /* \"#utility.yul\":4863:4868   */\n      dup3\n        /* \"#utility.yul\":4857:4861   */\n      dup3\n        /* \"#utility.yul\":4853:4869   */\n      shl\n        /* \"#utility.yul\":4832:4869   */\n      swap1\n      pop\n        /* \"#utility.yul\":4769:4876   */\n      swap3\n      swap2\n      pop\n      pop\n      jump\t// out\n        /* \"#utility.yul\":4882:5430   */\n    tag_23:\n        /* \"#utility.yul\":4972:4977   */\n      0x00\n        /* \"#utility.yul\":5003:5048   */\n      tag_122\n        /* \"#utility.yul\":5044:5047   */\n      dup4\n        /* \"#utility.yul\":5037:5042   */\n      dup4\n        /* \"#utility.yul\":5003:5048   */\n      tag_54\n      jump\t// in\n    tag_122:\n        /* \"#utility.yul\":5073:5078   */\n      dup3\n        /* \"#utility.yul\":5097:5137   */\n      tag_123\n        /* \"#utility.yul\":5127:5135   */\n      dup2\n        /* \"#utility.yul\":5114:5136   */\n      calldataload\n        /* \"#utility.yul\":5097:5137   */\n      tag_56\n      jump\t// in\n    tag_123:\n        /* \"#utility.yul\":5088:5137   */\n      swap3\n      pop\n        /* \"#utility.yul\":5161:5162   */\n      0x04\n        /* \"#utility.yul\":5153:5159   */\n      dup3\n        /* \"#utility.yul\":5150:5163   */\n      lt\n        /* \"#utility.yul\":5147:5423   */\n      iszero\n      tag_124\n      jumpi\n        /* \"#utility.yul\":5231:5399   */\n      tag_125\n        /* \"#utility.yul\":5315:5381   */\n      0xffffffff00000000000000000000000000000000000000000000000000000000\n        /* \"#utility.yul\":5285:5291   */\n      dup4\n        /* \"#utility.yul\":5282:5283   */\n      0x04\n        /* \"#utility.yul\":5278:5292   */\n      sub\n        /* \"#utility.yul\":5275:5276   */\n      0x08\n        /* \"#utility.yul\":5271:5293   */\n      mul\n        /* \"#utility.yul\":5231:5399   */\n      tag_57\n      jump\t// in\n    tag_125:\n        /* \"#utility.yul\":5208:5213   */\n      dup4\n        /* \"#utility.yul\":5187:5413   */\n      and\n        /* \"#utility.yul\":5178:5413   */\n      swap3\n      pop\n        /* \"#utility.yul\":5147:5423   */\n    tag_124:\n        /* \"#utility.yul\":4978:5430   */\n      pop\n      pop\n        /* \"#utility.yul\":4882:5430   */\n      swap3\n      swap2\n      pop\n      pop\n      jump\t// out\n        /* \"#utility.yul\":5436:5562   */\n    tag_58:\n        /* \"#utility.yul\":5473:5480   */\n      0x00\n        /* \"#utility.yul\":5513:5555   */\n      0xffffffffffffffffffffffffffffffffffffffff\n        /* \"#utility.yul\":5506:5511   */\n      dup3\n        /* \"#utility.yul\":5502:5556   */\n      and\n        /* \"#utility.yul\":5491:5556   */\n      swap1\n      pop\n        /* \"#utility.yul\":5436:5562   */\n      swap2\n      swap1\n      pop\n      jump\t// out\n        /* \"#utility.yul\":5568:5672   */\n    tag_59:\n        /* \"#utility.yul\":5613:5620   */\n      0x00\n        /* \"#utility.yul\":5642:5666   */\n      tag_128\n        /* \"#utility.yul\":5660:5665   */\n      dup3\n        /* \"#utility.yul\":5642:5666   */\n      tag_58\n      jump\t// in\n    tag_128:\n        /* \"#utility.yul\":5631:5666   */\n      swap1\n      pop\n        /* \"#utility.yul\":5568:5672   */\n      swap2\n      swap1\n      pop\n      jump\t// out\n        /* \"#utility.yul\":5678:5816   */\n    tag_60:\n        /* \"#utility.yul\":5759:5791   */\n      tag_130\n        /* \"#utility.yul\":5785:5790   */\n      dup2\n        /* \"#utility.yul\":5759:5791   */\n      tag_59\n      jump\t// in\n    tag_130:\n        /* \"#utility.yul\":5752:5757   */\n      dup2\n        /* \"#utility.yul\":5749:5792   */\n      eq\n        /* \"#utility.yul\":5739:5810   */\n      tag_131\n      jumpi\n        /* \"#utility.yul\":5806:5807   */\n      0x00\n        /* \"#utility.yul\":5803:5804   */\n      dup1\n        /* \"#utility.yul\":5796:5808   */\n      revert\n        /* \"#utility.yul\":5739:5810   */\n    tag_131:\n        /* \"#utility.yul\":5678:5816   */\n      pop\n      jump\t// out\n        /* \"#utility.yul\":5822:5977   */\n    tag_61:\n        /* \"#utility.yul\":5876:5881   */\n      0x00\n        /* \"#utility.yul\":5914:5920   */\n      dup2\n        /* \"#utility.yul\":5901:5921   */\n      calldataload\n        /* \"#utility.yul\":5892:5921   */\n      swap1\n      pop\n        /* \"#utility.yul\":5930:5971   */\n      tag_133\n        /* \"#utility.yul\":5965:5970   */\n      dup2\n        /* \"#utility.yul\":5930:5971   */\n      tag_60\n      jump\t// in\n    tag_133:\n        /* \"#utility.yul\":5822:5977   */\n      swap3\n      swap2\n      pop\n      pop\n      jump\t// out\n        /* \"#utility.yul\":5983:6328   */\n    tag_27:\n        /* \"#utility.yul\":6050:6056   */\n      0x00\n        /* \"#utility.yul\":6099:6101   */\n      0x20\n        /* \"#utility.yul\":6087:6096   */\n      dup3\n        /* \"#utility.yul\":6078:6085   */\n      dup5\n        /* \"#utility.yul\":6074:6097   */\n      sub\n        /* \"#utility.yul\":6070:6102   */\n      slt\n        /* \"#utility.yul\":6067:6186   */\n      iszero\n      tag_135\n      jumpi\n        /* \"#utility.yul\":6105:6184   */\n      tag_136\n      tag_45\n      jump\t// in\n    tag_136:\n        /* \"#utility.yul\":6067:6186   */\n    tag_135:\n        /* \"#utility.yul\":6225:6226   */\n      0x00\n        /* \"#utility.yul\":6250:6311   */\n      tag_137\n        /* \"#utility.yul\":6303:6310   */\n      dup5\n        /* \"#utility.yul\":6294:6300   */\n      dup3\n        /* \"#utility.yul\":6283:6292   */\n      dup6\n        /* \"#utility.yul\":6279:6301   */\n      add\n        /* \"#utility.yul\":6250:6311   */\n      tag_61\n      jump\t// in\n    tag_137:\n        /* \"#utility.yul\":6240:6311   */\n      swap2\n      pop\n        /* \"#utility.yul\":6196:6321   */\n      pop\n        /* \"#utility.yul\":5983:6328   */\n      swap3\n      swap2\n      pop\n      pop\n      jump\t// out\n        /* \"#utility.yul\":6334:6503   */\n    tag_62:\n        /* \"#utility.yul\":6418:6429   */\n      0x00\n        /* \"#utility.yul\":6452:6458   */\n      dup3\n        /* \"#utility.yul\":6447:6450   */\n      dup3\n        /* \"#utility.yul\":6440:6459   */\n      mstore\n        /* \"#utility.yul\":6492:6496   */\n      0x20\n        /* \"#utility.yul\":6487:6490   */\n      dup3\n        /* \"#utility.yul\":6483:6497   */\n      add\n        /* \"#utility.yul\":6468:6497   */\n      swap1\n      pop\n        /* \"#utility.yul\":6334:6503   */\n      swap3\n      swap2\n      pop\n      pop\n      jump\t// out\n        /* \"#utility.yul\":6509:6691   */\n    tag_63:\n        /* \"#utility.yul\":6649:6683   */\n      0x41646472657373206f66206f776e65722063616e6e6f74206265207a65726f2e\n        /* \"#utility.yul\":6645:6646   */\n      0x00\n        /* \"#utility.yul\":6637:6643   */\n      dup3\n        /* \"#utility.yul\":6633:6647   */\n      add\n        /* \"#utility.yul\":6626:6684   */\n      mstore\n        /* \"#utility.yul\":6509:6691   */\n      pop\n      jump\t// out\n        /* \"#utility.yul\":6697:7063   */\n    tag_64:\n        /* \"#utility.yul\":6839:6842   */\n      0x00\n        /* \"#utility.yul\":6860:6927   */\n      tag_141\n        /* \"#utility.yul\":6924:6926   */\n      0x20\n        /* \"#utility.yul\":6919:6922   */\n      dup4\n        /* \"#utility.yul\":6860:6927   */\n      tag_62\n      jump\t// in\n    tag_141:\n        /* \"#utility.yul\":6853:6927   */\n      swap2\n      pop\n        /* \"#utility.yul\":6936:7029   */\n      tag_142\n        /* \"#utility.yul\":7025:7028   */\n      dup3\n        /* \"#utility.yul\":6936:7029   */\n      tag_63\n      jump\t// in\n    tag_142:\n        /* \"#utility.yul\":7054:7056   */\n      0x20\n        /* \"#utility.yul\":7049:7052   */\n      dup3\n        /* \"#utility.yul\":7045:7057   */\n      add\n        /* \"#utility.yul\":7038:7057   */\n      swap1\n      pop\n        /* \"#utility.yul\":6697:7063   */\n      swap2\n      swap1\n      pop\n      jump\t// out\n        /* \"#utility.yul\":7069:7488   */\n    tag_30:\n        /* \"#utility.yul\":7235:7239   */\n      0x00\n        /* \"#utility.yul\":7273:7275   */\n      0x20\n        /* \"#utility.yul\":7262:7271   */\n      dup3\n        /* \"#utility.yul\":7258:7276   */\n      add\n        /* \"#utility.yul\":7250:7276   */\n      swap1\n      pop\n        /* \"#utility.yul\":7322:7331   */\n      dup2\n        /* \"#utility.yul\":7316:7320   */\n      dup2\n        /* \"#utility.yul\":7312:7332   */\n      sub\n        /* \"#utility.yul\":7308:7309   */\n      0x00\n        /* \"#utility.yul\":7297:7306   */\n      dup4\n        /* \"#utility.yul\":7293:7310   */\n      add\n        /* \"#utility.yul\":7286:7333   */\n      mstore\n        /* \"#utility.yul\":7350:7481   */\n      tag_144\n        /* \"#utility.yul\":7476:7480   */\n      dup2\n        /* \"#utility.yul\":7350:7481   */\n      tag_64\n      jump\t// in\n    tag_144:\n        /* \"#utility.yul\":7342:7481   */\n      swap1\n      pop\n        /* \"#utility.yul\":7069:7488   */\n      swap2\n      swap1\n      pop\n      jump\t// out\n        /* \"#utility.yul\":7494:7641   */\n    tag_65:\n        /* \"#utility.yul\":7595:7606   */\n      0x00\n        /* \"#utility.yul\":7632:7635   */\n      dup2\n        /* \"#utility.yul\":7617:7635   */\n      swap1\n      pop\n        /* \"#utility.yul\":7494:7641   */\n      swap3\n      swap2\n      pop\n      pop\n      jump\t// out\n        /* \"#utility.yul\":7647:7801   */\n    tag_66:\n        /* \"#utility.yul\":7731:7737   */\n      dup3\n        /* \"#utility.yul\":7726:7729   */\n      dup2\n        /* \"#utility.yul\":7721:7724   */\n      dup4\n        /* \"#utility.yul\":7708:7738   */\n      calldatacopy\n        /* \"#utility.yul\":7793:7794   */\n      0x00\n        /* \"#utility.yul\":7784:7790   */\n      dup4\n        /* \"#utility.yul\":7779:7782   */\n      dup4\n        /* \"#utility.yul\":7775:7791   */\n      add\n        /* \"#utility.yul\":7768:7795   */\n      mstore\n        /* \"#utility.yul\":7647:7801   */\n      pop\n      pop\n      pop\n      jump\t// out\n        /* \"#utility.yul\":7829:8143   */\n    tag_67:\n        /* \"#utility.yul\":7943:7946   */\n      0x00\n        /* \"#utility.yul\":7964:8052   */\n      tag_148\n        /* \"#utility.yul\":8045:8051   */\n      dup4\n        /* \"#utility.yul\":8040:8043   */\n      dup6\n        /* \"#utility.yul\":7964:8052   */\n      tag_65\n      jump\t// in\n    tag_148:\n        /* \"#utility.yul\":7957:8052   */\n      swap4\n      pop\n        /* \"#utility.yul\":8062:8105   */\n      tag_149\n        /* \"#utility.yul\":8098:8104   */\n      dup4\n        /* \"#utility.yul\":8093:8096   */\n      dup6\n        /* \"#utility.yul\":8086:8091   */\n      dup5\n        /* \"#utility.yul\":8062:8105   */\n      tag_66\n      jump\t// in\n    tag_149:\n        /* \"#utility.yul\":8130:8136   */\n      dup3\n        /* \"#utility.yul\":8125:8128   */\n      dup5\n        /* \"#utility.yul\":8121:8137   */\n      add\n        /* \"#utility.yul\":8114:8137   */\n      swap1\n      pop\n        /* \"#utility.yul\":7829:8143   */\n      swap4\n      swap3\n      pop\n      pop\n      pop\n      jump\t// out\n        /* \"#utility.yul\":8149:8440   */\n    tag_32:\n        /* \"#utility.yul\":8289:8292   */\n      0x00\n        /* \"#utility.yul\":8311:8414   */\n      tag_151\n        /* \"#utility.yul\":8410:8413   */\n      dup3\n        /* \"#utility.yul\":8401:8407   */\n      dup5\n        /* \"#utility.yul\":8393:8399   */\n      dup7\n        /* \"#utility.yul\":8311:8414   */\n      tag_67\n      jump\t// in\n    tag_151:\n        /* \"#utility.yul\":8304:8414   */\n      swap2\n      pop\n        /* \"#utility.yul\":8431:8434   */\n      dup2\n        /* \"#utility.yul\":8424:8434   */\n      swap1\n      pop\n        /* \"#utility.yul\":8149:8440   */\n      swap4\n      swap3\n      pop\n      pop\n      pop\n      jump\t// out\n        /* \"#utility.yul\":8446:8618   */\n    tag_68:\n        /* \"#utility.yul\":8586:8610   */\n      0x466f727761726465642063616c6c206661696c65642e00000000000000000000\n        /* \"#utility.yul\":8582:8583   */\n      0x00\n        /* \"#utility.yul\":8574:8580   */\n      dup3\n        /* \"#utility.yul\":8570:8584   */\n      add\n        /* \"#utility.yul\":8563:8611   */\n      mstore\n        /* \"#utility.yul\":8446:8618   */\n      pop\n      jump\t// out\n        /* \"#utility.yul\":8624:8990   */\n    tag_69:\n        /* \"#utility.yul\":8766:8769   */\n      0x00\n        /* \"#utility.yul\":8787:8854   */\n      tag_154\n        /* \"#utility.yul\":8851:8853   */\n      0x16\n        /* \"#utility.yul\":8846:8849   */\n      dup4\n        /* \"#utility.yul\":8787:8854   */\n      tag_62\n      jump\t// in\n    tag_154:\n        /* \"#utility.yul\":8780:8854   */\n      swap2\n      pop\n        /* \"#utility.yul\":8863:8956   */\n      tag_155\n        /* \"#utility.yul\":8952:8955   */\n      dup3\n        /* \"#utility.yul\":8863:8956   */\n      tag_68\n      jump\t// in\n    tag_155:\n        /* \"#utility.yul\":8981:8983   */\n      0x20\n        /* \"#utility.yul\":8976:8979   */\n      dup3\n        /* \"#utility.yul\":8972:8984   */\n      add\n        /* \"#utility.yul\":8965:8984   */\n      swap1\n      pop\n        /* \"#utility.yul\":8624:8990   */\n      swap2\n      swap1\n      pop\n      jump\t// out\n        /* \"#utility.yul\":8996:9415   */\n    tag_38:\n        /* \"#utility.yul\":9162:9166   */\n      0x00\n        /* \"#utility.yul\":9200:9202   */\n      0x20\n        /* \"#utility.yul\":9189:9198   */\n      dup3\n        /* \"#utility.yul\":9185:9203   */\n      add\n        /* \"#utility.yul\":9177:9203   */\n      swap1\n      pop\n        /* \"#utility.yul\":9249:9258   */\n      dup2\n        /* \"#utility.yul\":9243:9247   */\n      dup2\n        /* \"#utility.yul\":9239:9259   */\n      sub\n        /* \"#utility.yul\":9235:9236   */\n      0x00\n        /* \"#utility.yul\":9224:9233   */\n      dup4\n        /* \"#utility.yul\":9220:9237   */\n      add\n        /* \"#utility.yul\":9213:9260   */\n      mstore\n        /* \"#utility.yul\":9277:9408   */\n      tag_157\n        /* \"#utility.yul\":9403:9407   */\n      dup2\n        /* \"#utility.yul\":9277:9408   */\n      tag_69\n      jump\t// in\n    tag_157:\n        /* \"#utility.yul\":9269:9408   */\n      swap1\n      pop\n        /* \"#utility.yul\":8996:9415   */\n      swap2\n      swap1\n      pop\n      jump\t// out\n\n    auxdata: 0xa26469706673582212202825e1622c1fd48c6aae883f2a41b0b0d2a83d9f9ab53adc22c218912817fe9b64736f6c634300080f0033\n}\n",
				"bytecode": {
					"linkReferences": {},
					"object": "60806040526040516020016200001590620000e4565b6040516020818303038152906040526001908162000034919062000375565b503480156200004257600080fd5b5060405162000cbd38038062000cbd8339818101604052810190620000689190620004c6565b806000806101000a81548173ffffffffffffffffffffffffffffffffffffffff021916908373ffffffffffffffffffffffffffffffffffffffff16021790555050620004f8565b600081905092915050565b50565b6000620000cc600083620000af565b9150620000d982620000ba565b600082019050919050565b6000620000f182620000bd565b9150819050919050565b600081519050919050565b7f4e487b7100000000000000000000000000000000000000000000000000000000600052604160045260246000fd5b7f4e487b7100000000000000000000000000000000000000000000000000000000600052602260045260246000fd5b600060028204905060018216806200017d57607f821691505b60208210810362000193576200019262000135565b5b50919050565b60008190508160005260206000209050919050565b60006020601f8301049050919050565b600082821b905092915050565b600060088302620001fd7fffffffffffffffffffffffffffffffffffffffffffffffffffffffffffffffff82620001be565b620002098683620001be565b95508019841693508086168417925050509392505050565b6000819050919050565b6000819050919050565b600062000256620002506200024a8462000221565b6200022b565b62000221565b9050919050565b6000819050919050565b620002728362000235565b6200028a62000281826200025d565b848454620001cb565b825550505050565b600090565b620002a162000292565b620002ae81848462000267565b505050565b5b81811015620002d657620002ca60008262000297565b600181019050620002b4565b5050565b601f8211156200032557620002ef8162000199565b620002fa84620001ae565b810160208510156200030a578190505b620003226200031985620001ae565b830182620002b3565b50505b505050565b600082821c905092915050565b60006200034a600019846008026200032a565b1980831691505092915050565b600062000365838362000337565b9150826002028217905092915050565b6200038082620000fb565b67ffffffffffffffff8111156200039c576200039b62000106565b5b620003a8825462000164565b620003b5828285620002da565b600060209050601f831160018114620003ed5760008415620003d8578287015190505b620003e4858262000357565b86555062000454565b601f198416620003fd8662000199565b60005b82811015620004275784890151825560018201915060208501945060208101905062000400565b8683101562000447578489015162000443601f89168262000337565b8355505b6001600288020188555050505b505050505050565b600080fd5b600073ffffffffffffffffffffffffffffffffffffffff82169050919050565b60006200048e8262000461565b9050919050565b620004a08162000481565b8114620004ac57600080fd5b50565b600081519050620004c08162000495565b92915050565b600060208284031215620004df57620004de6200045c565b5b6000620004ef84828501620004af565b91505092915050565b6107b580620005086000396000f3fe608060405234801561001057600080fd5b50600436106100365760003560e01c80634df7e3d01461003b578063d948d46814610059575b600080fd5b610043610075565b604051610050919061038d565b60405180910390f35b610073600480360381019061006e919061041e565b610103565b005b600180546100829061049a565b80601f01602080910402602001604051908101604052809291908181526020018280546100ae9061049a565b80156100fb5780601f106100d0576101008083540402835291602001916100fb565b820191906000526020600020905b8154815290600101906020018083116100de57829003601f168201915b505050505081565b60008282600090600492610119939291906104d5565b906101249190610554565b90507f13af4035b0e4e7ec6b922d2e250cb1ea3b75b47dd2a6483cb76d88e6fd98ec3b7bffffffffffffffffffffffffffffffffffffffffffffffffffffffff1916817bffffffffffffffffffffffffffffffffffffffffffffffffffffffff191603610220576000838360049080926101a0939291906104d5565b8101906101ad9190610611565b9050600073ffffffffffffffffffffffffffffffffffffffff168173ffffffffffffffffffffffffffffffffffffffff160361021e576040517f08c379a00000000000000000000000000000000000000000000000000000000081526004016102159061069b565b60405180910390fd5b505b60008060009054906101000a900473ffffffffffffffffffffffffffffffffffffffff1673ffffffffffffffffffffffffffffffffffffffff16848460405161026a9291906106fa565b600060405180830381855af49150503d80600081146102a5576040519150601f19603f3d011682016040523d82523d6000602084013e6102aa565b606091505b50509050806102ee576040517f08c379a00000000000000000000000000000000000000000000000000000000081526004016102e59061075f565b60405180910390fd5b50505050565b600081519050919050565b600082825260208201905092915050565b60005b8381101561032e578082015181840152602081019050610313565b8381111561033d576000848401525b50505050565b6000601f19601f8301169050919050565b600061035f826102f4565b61036981856102ff565b9350610379818560208601610310565b61038281610343565b840191505092915050565b600060208201905081810360008301526103a78184610354565b905092915050565b600080fd5b600080fd5b600080fd5b600080fd5b600080fd5b60008083601f8401126103de576103dd6103b9565b5b8235905067ffffffffffffffff8111156103fb576103fa6103be565b5b602083019150836001820283011115610417576104166103c3565b5b9250929050565b60008060208385031215610435576104346103af565b5b600083013567ffffffffffffffff811115610453576104526103b4565b5b61045f858286016103c8565b92509250509250929050565b7f4e487b7100000000000000000000000000000000000000000000000000000000600052602260045260246000fd5b600060028204905060018216806104b257607f821691505b6020821081036104c5576104c461046b565b5b50919050565b600080fd5b600080fd5b600080858511156104e9576104e86104cb565b5b838611156104fa576104f96104d0565b5b6001850283019150848603905094509492505050565b600082905092915050565b60007fffffffff0000000000000000000000000000000000000000000000000000000082169050919050565b600082821b905092915050565b60006105608383610510565b8261056b813561051b565b925060048210156105ab576105a67fffffffff0000000000000000000000000000000000000000000000000000000083600403600802610547565b831692505b505092915050565b600073ffffffffffffffffffffffffffffffffffffffff82169050919050565b60006105de826105b3565b9050919050565b6105ee816105d3565b81146105f957600080fd5b50565b60008135905061060b816105e5565b92915050565b600060208284031215610627576106266103af565b5b6000610635848285016105fc565b91505092915050565b600082825260208201905092915050565b7f41646472657373206f66206f776e65722063616e6e6f74206265207a65726f2e600082015250565b600061068560208361063e565b91506106908261064f565b602082019050919050565b600060208201905081810360008301526106b481610678565b9050919050565b600081905092915050565b82818337600083830152505050565b60006106e183856106bb565b93506106ee8385846106c6565b82840190509392505050565b60006107078284866106d5565b91508190509392505050565b7f466f727761726465642063616c6c206661696c65642e00000000000000000000600082015250565b600061074960168361063e565b915061075482610713565b602082019050919050565b600060208201905081810360008301526107788161073c565b905091905056fea26469706673582212202825e1622c1fd48c6aae883f2a41b0b0d2a83d9f9ab53adc22c218912817fe9b64736f6c634300080f0033",
					"opcodes": "PUSH1 0x80 PUSH1 0x40 MSTORE PUSH1 0x40 MLOAD PUSH1 0x20 ADD PUSH3 0x15 SWAP1 PUSH3 0xE4 JUMP JUMPDEST PUSH1 0x40 MLOAD PUSH1 0x20 DUP2 DUP4 SUB SUB DUP2 MSTORE SWAP1 PUSH1 0x40 MSTORE PUSH1 0x1 SWAP1 DUP2 PUSH3 0x34 SWAP2 SWAP1 PUSH3 0x375 JUMP JUMPDEST POP CALLVALUE DUP1 ISZERO PUSH3 0x42 JUMPI PUSH1 0x0 DUP1 REVERT JUMPDEST POP PUSH1 0x40 MLOAD PUSH3 0xCBD CODESIZE SUB DUP1 PUSH3 0xCBD DUP4 CODECOPY DUP2 DUP2 ADD PUSH1 0x40 MSTORE DUP2 ADD SWAP1 PUSH3 0x68 SWAP2 SWAP1 PUSH3 0x4C6 JUMP JUMPDEST DUP1 PUSH1 0x0 DUP1 PUSH2 0x100 EXP DUP2 SLOAD DUP2 PUSH20 0xFFFFFFFFFFFFFFFFFFFFFFFFFFFFFFFFFFFFFFFF MUL NOT AND SWAP1 DUP4 PUSH20 0xFFFFFFFFFFFFFFFFFFFFFFFFFFFFFFFFFFFFFFFF AND MUL OR SWAP1 SSTORE POP POP PUSH3 0x4F8 JUMP JUMPDEST PUSH1 0x0 DUP2 SWAP1 POP SWAP3 SWAP2 POP POP JUMP JUMPDEST POP JUMP JUMPDEST PUSH1 0x0 PUSH3 0xCC PUSH1 0x0 DUP4 PUSH3 0xAF JUMP JUMPDEST SWAP2 POP PUSH3 0xD9 DUP3 PUSH3 0xBA JUMP JUMPDEST PUSH1 0x0 DUP3 ADD SWAP1 POP SWAP2 SWAP1 POP JUMP JUMPDEST PUSH1 0x0 PUSH3 0xF1 DUP3 PUSH3 0xBD JUMP JUMPDEST SWAP2 POP DUP2 SWAP1 POP SWAP2 SWAP1 POP JUMP JUMPDEST PUSH1 0x0 DUP2 MLOAD SWAP1 POP SWAP2 SWAP1 POP JUMP JUMPDEST PUSH32 0x4E487B7100000000000000000000000000000000000000000000000000000000 PUSH1 0x0 MSTORE PUSH1 0x41 PUSH1 0x4 MSTORE PUSH1 0x24 PUSH1 0x0 REVERT JUMPDEST PUSH32 0x4E487B7100000000000000000000000000000000000000000000000000000000 PUSH1 0x0 MSTORE PUSH1 0x22 PUSH1 0x4 MSTORE PUSH1 0x24 PUSH1 0x0 REVERT JUMPDEST PUSH1 0x0 PUSH1 0x2 DUP3 DIV SWAP1 POP PUSH1 0x1 DUP3 AND DUP1 PUSH3 0x17D JUMPI PUSH1 0x7F DUP3 AND SWAP2 POP JUMPDEST PUSH1 0x20 DUP3 LT DUP2 SUB PUSH3 0x193 JUMPI PUSH3 0x192 PUSH3 0x135 JUMP JUMPDEST JUMPDEST POP SWAP2 SWAP1 POP JUMP JUMPDEST PUSH1 0x0 DUP2 SWAP1 POP DUP2 PUSH1 0x0 MSTORE PUSH1 0x20 PUSH1 0x0 KECCAK256 SWAP1 POP SWAP2 SWAP1 POP JUMP JUMPDEST PUSH1 0x0 PUSH1 0x20 PUSH1 0x1F DUP4 ADD DIV SWAP1 POP SWAP2 SWAP1 POP JUMP JUMPDEST PUSH1 0x0 DUP3 DUP3 SHL SWAP1 POP SWAP3 SWAP2 POP POP JUMP JUMPDEST PUSH1 0x0 PUSH1 0x8 DUP4 MUL PUSH3 0x1FD PUSH32 0xFFFFFFFFFFFFFFFFFFFFFFFFFFFFFFFFFFFFFFFFFFFFFFFFFFFFFFFFFFFFFFFF DUP3 PUSH3 0x1BE JUMP JUMPDEST PUSH3 0x209 DUP7 DUP4 PUSH3 0x1BE JUMP JUMPDEST SWAP6 POP DUP1 NOT DUP5 AND SWAP4 POP DUP1 DUP7 AND DUP5 OR SWAP3 POP POP POP SWAP4 SWAP3 POP POP POP JUMP JUMPDEST PUSH1 0x0 DUP2 SWAP1 POP SWAP2 SWAP1 POP JUMP JUMPDEST PUSH1 0x0 DUP2 SWAP1 POP SWAP2 SWAP1 POP JUMP JUMPDEST PUSH1 0x0 PUSH3 0x256 PUSH3 0x250 PUSH3 0x24A DUP5 PUSH3 0x221 JUMP JUMPDEST PUSH3 0x22B JUMP JUMPDEST PUSH3 0x221 JUMP JUMPDEST SWAP1 POP SWAP2 SWAP1 POP JUMP JUMPDEST PUSH1 0x0 DUP2 SWAP1 POP SWAP2 SWAP1 POP JUMP JUMPDEST PUSH3 0x272 DUP4 PUSH3 0x235 JUMP JUMPDEST PUSH3 0x28A PUSH3 0x281 DUP3 PUSH3 0x25D JUMP JUMPDEST DUP5 DUP5 SLOAD PUSH3 0x1CB JUMP JUMPDEST DUP3 SSTORE POP POP POP POP JUMP JUMPDEST PUSH1 0x0 SWAP1 JUMP JUMPDEST PUSH3 0x2A1 PUSH3 0x292 JUMP JUMPDEST PUSH3 0x2AE DUP2 DUP5 DUP5 PUSH3 0x267 JUMP JUMPDEST POP POP POP JUMP JUMPDEST JUMPDEST DUP2 DUP2 LT ISZERO PUSH3 0x2D6 JUMPI PUSH3 0x2CA PUSH1 0x0 DUP3 PUSH3 0x297 JUMP JUMPDEST PUSH1 0x1 DUP2 ADD SWAP1 POP PUSH3 0x2B4 JUMP JUMPDEST POP POP JUMP JUMPDEST PUSH1 0x1F DUP3 GT ISZERO PUSH3 0x325 JUMPI PUSH3 0x2EF DUP2 PUSH3 0x199 JUMP JUMPDEST PUSH3 0x2FA DUP5 PUSH3 0x1AE JUMP JUMPDEST DUP2 ADD PUSH1 0x20 DUP6 LT ISZERO PUSH3 0x30A JUMPI DUP2 SWAP1 POP JUMPDEST PUSH3 0x322 PUSH3 0x319 DUP6 PUSH3 0x1AE JUMP JUMPDEST DUP4 ADD DUP3 PUSH3 0x2B3 JUMP JUMPDEST POP POP JUMPDEST POP POP POP JUMP JUMPDEST PUSH1 0x0 DUP3 DUP3 SHR SWAP1 POP SWAP3 SWAP2 POP POP JUMP JUMPDEST PUSH1 0x0 PUSH3 0x34A PUSH1 0x0 NOT DUP5 PUSH1 0x8 MUL PUSH3 0x32A JUMP JUMPDEST NOT DUP1 DUP4 AND SWAP2 POP POP SWAP3 SWAP2 POP POP JUMP JUMPDEST PUSH1 0x0 PUSH3 0x365 DUP4 DUP4 PUSH3 0x337 JUMP JUMPDEST SWAP2 POP DUP3 PUSH1 0x2 MUL DUP3 OR SWAP1 POP SWAP3 SWAP2 POP POP JUMP JUMPDEST PUSH3 0x380 DUP3 PUSH3 0xFB JUMP JUMPDEST PUSH8 0xFFFFFFFFFFFFFFFF DUP2 GT ISZERO PUSH3 0x39C JUMPI PUSH3 0x39B PUSH3 0x106 JUMP JUMPDEST JUMPDEST PUSH3 0x3A8 DUP3 SLOAD PUSH3 0x164 JUMP JUMPDEST PUSH3 0x3B5 DUP3 DUP3 DUP6 PUSH3 0x2DA JUMP JUMPDEST PUSH1 0x0 PUSH1 0x20 SWAP1 POP PUSH1 0x1F DUP4 GT PUSH1 0x1 DUP2 EQ PUSH3 0x3ED JUMPI PUSH1 0x0 DUP5 ISZERO PUSH3 0x3D8 JUMPI DUP3 DUP8 ADD MLOAD SWAP1 POP JUMPDEST PUSH3 0x3E4 DUP6 DUP3 PUSH3 0x357 JUMP JUMPDEST DUP7 SSTORE POP PUSH3 0x454 JUMP JUMPDEST PUSH1 0x1F NOT DUP5 AND PUSH3 0x3FD DUP7 PUSH3 0x199 JUMP JUMPDEST PUSH1 0x0 JUMPDEST DUP3 DUP2 LT ISZERO PUSH3 0x427 JUMPI DUP5 DUP10 ADD MLOAD DUP3 SSTORE PUSH1 0x1 DUP3 ADD SWAP2 POP PUSH1 0x20 DUP6 ADD SWAP5 POP PUSH1 0x20 DUP2 ADD SWAP1 POP PUSH3 0x400 JUMP JUMPDEST DUP7 DUP4 LT ISZERO PUSH3 0x447 JUMPI DUP5 DUP10 ADD MLOAD PUSH3 0x443 PUSH1 0x1F DUP10 AND DUP3 PUSH3 0x337 JUMP JUMPDEST DUP4 SSTORE POP JUMPDEST PUSH1 0x1 PUSH1 0x2 DUP9 MUL ADD DUP9 SSTORE POP POP POP JUMPDEST POP POP POP POP POP POP JUMP JUMPDEST PUSH1 0x0 DUP1 REVERT JUMPDEST PUSH1 0x0 PUSH20 0xFFFFFFFFFFFFFFFFFFFFFFFFFFFFFFFFFFFFFFFF DUP3 AND SWAP1 POP SWAP2 SWAP1 POP JUMP JUMPDEST PUSH1 0x0 PUSH3 0x48E DUP3 PUSH3 0x461 JUMP JUMPDEST SWAP1 POP SWAP2 SWAP1 POP JUMP JUMPDEST PUSH3 0x4A0 DUP2 PUSH3 0x481 JUMP JUMPDEST DUP2 EQ PUSH3 0x4AC JUMPI PUSH1 0x0 DUP1 REVERT JUMPDEST POP JUMP JUMPDEST PUSH1 0x0 DUP2 MLOAD SWAP1 POP PUSH3 0x4C0 DUP2 PUSH3 0x495 JUMP JUMPDEST SWAP3 SWAP2 POP POP JUMP JUMPDEST PUSH1 0x0 PUSH1 0x20 DUP3 DUP5 SUB SLT ISZERO PUSH3 0x4DF JUMPI PUSH3 0x4DE PUSH3 0x45C JUMP JUMPDEST JUMPDEST PUSH1 0x0 PUSH3 0x4EF DUP5 DUP3 DUP6 ADD PUSH3 0x4AF JUMP JUMPDEST SWAP2 POP POP SWAP3 SWAP2 POP POP JUMP JUMPDEST PUSH2 0x7B5 DUP1 PUSH3 0x508 PUSH1 0x0 CODECOPY PUSH1 0x0 RETURN INVALID PUSH1 0x80 PUSH1 0x40 MSTORE CALLVALUE DUP1 ISZERO PUSH2 0x10 JUMPI PUSH1 0x0 DUP1 REVERT JUMPDEST POP PUSH1 0x4 CALLDATASIZE LT PUSH2 0x36 JUMPI PUSH1 0x0 CALLDATALOAD PUSH1 0xE0 SHR DUP1 PUSH4 0x4DF7E3D0 EQ PUSH2 0x3B JUMPI DUP1 PUSH4 0xD948D468 EQ PUSH2 0x59 JUMPI JUMPDEST PUSH1 0x0 DUP1 REVERT JUMPDEST PUSH2 0x43 PUSH2 0x75 JUMP JUMPDEST PUSH1 0x40 MLOAD PUSH2 0x50 SWAP2 SWAP1 PUSH2 0x38D JUMP JUMPDEST PUSH1 0x40 MLOAD DUP1 SWAP2 SUB SWAP1 RETURN JUMPDEST PUSH2 0x73 PUSH1 0x4 DUP1 CALLDATASIZE SUB DUP2 ADD SWAP1 PUSH2 0x6E SWAP2 SWAP1 PUSH2 0x41E JUMP JUMPDEST PUSH2 0x103 JUMP JUMPDEST STOP JUMPDEST PUSH1 0x1 DUP1 SLOAD PUSH2 0x82 SWAP1 PUSH2 0x49A JUMP JUMPDEST DUP1 PUSH1 0x1F ADD PUSH1 0x20 DUP1 SWAP2 DIV MUL PUSH1 0x20 ADD PUSH1 0x40 MLOAD SWAP1 DUP2 ADD PUSH1 0x40 MSTORE DUP1 SWAP3 SWAP2 SWAP1 DUP2 DUP2 MSTORE PUSH1 0x20 ADD DUP3 DUP1 SLOAD PUSH2 0xAE SWAP1 PUSH2 0x49A JUMP JUMPDEST DUP1 ISZERO PUSH2 0xFB JUMPI DUP1 PUSH1 0x1F LT PUSH2 0xD0 JUMPI PUSH2 0x100 DUP1 DUP4 SLOAD DIV MUL DUP4 MSTORE SWAP2 PUSH1 0x20 ADD SWAP2 PUSH2 0xFB JUMP JUMPDEST DUP3 ADD SWAP2 SWAP1 PUSH1 0x0 MSTORE PUSH1 0x20 PUSH1 0x0 KECCAK256 SWAP1 JUMPDEST DUP2 SLOAD DUP2 MSTORE SWAP1 PUSH1 0x1 ADD SWAP1 PUSH1 0x20 ADD DUP1 DUP4 GT PUSH2 0xDE JUMPI DUP3 SWAP1 SUB PUSH1 0x1F AND DUP3 ADD SWAP2 JUMPDEST POP POP POP POP POP DUP2 JUMP JUMPDEST PUSH1 0x0 DUP3 DUP3 PUSH1 0x0 SWAP1 PUSH1 0x4 SWAP3 PUSH2 0x119 SWAP4 SWAP3 SWAP2 SWAP1 PUSH2 0x4D5 JUMP JUMPDEST SWAP1 PUSH2 0x124 SWAP2 SWAP1 PUSH2 0x554 JUMP JUMPDEST SWAP1 POP PUSH32 0x13AF4035B0E4E7EC6B922D2E250CB1EA3B75B47DD2A6483CB76D88E6FD98EC3B PUSH28 0xFFFFFFFFFFFFFFFFFFFFFFFFFFFFFFFFFFFFFFFFFFFFFFFFFFFFFFFF NOT AND DUP2 PUSH28 0xFFFFFFFFFFFFFFFFFFFFFFFFFFFFFFFFFFFFFFFFFFFFFFFFFFFFFFFF NOT AND SUB PUSH2 0x220 JUMPI PUSH1 0x0 DUP4 DUP4 PUSH1 0x4 SWAP1 DUP1 SWAP3 PUSH2 0x1A0 SWAP4 SWAP3 SWAP2 SWAP1 PUSH2 0x4D5 JUMP JUMPDEST DUP2 ADD SWAP1 PUSH2 0x1AD SWAP2 SWAP1 PUSH2 0x611 JUMP JUMPDEST SWAP1 POP PUSH1 0x0 PUSH20 0xFFFFFFFFFFFFFFFFFFFFFFFFFFFFFFFFFFFFFFFF AND DUP2 PUSH20 0xFFFFFFFFFFFFFFFFFFFFFFFFFFFFFFFFFFFFFFFF AND SUB PUSH2 0x21E JUMPI PUSH1 0x40 MLOAD PUSH32 0x8C379A000000000000000000000000000000000000000000000000000000000 DUP2 MSTORE PUSH1 0x4 ADD PUSH2 0x215 SWAP1 PUSH2 0x69B JUMP JUMPDEST PUSH1 0x40 MLOAD DUP1 SWAP2 SUB SWAP1 REVERT JUMPDEST POP JUMPDEST PUSH1 0x0 DUP1 PUSH1 0x0 SWAP1 SLOAD SWAP1 PUSH2 0x100 EXP SWAP1 DIV PUSH20 0xFFFFFFFFFFFFFFFFFFFFFFFFFFFFFFFFFFFFFFFF AND PUSH20 0xFFFFFFFFFFFFFFFFFFFFFFFFFFFFFFFFFFFFFFFF AND DUP5 DUP5 PUSH1 0x40 MLOAD PUSH2 0x26A SWAP3 SWAP2 SWAP1 PUSH2 0x6FA JUMP JUMPDEST PUSH1 0x0 PUSH1 0x40 MLOAD DUP1 DUP4 SUB DUP2 DUP6 GAS DELEGATECALL SWAP2 POP POP RETURNDATASIZE DUP1 PUSH1 0x0 DUP2 EQ PUSH2 0x2A5 JUMPI PUSH1 0x40 MLOAD SWAP2 POP PUSH1 0x1F NOT PUSH1 0x3F RETURNDATASIZE ADD AND DUP3 ADD PUSH1 0x40 MSTORE RETURNDATASIZE DUP3 MSTORE RETURNDATASIZE PUSH1 0x0 PUSH1 0x20 DUP5 ADD RETURNDATACOPY PUSH2 0x2AA JUMP JUMPDEST PUSH1 0x60 SWAP2 POP JUMPDEST POP POP SWAP1 POP DUP1 PUSH2 0x2EE JUMPI PUSH1 0x40 MLOAD PUSH32 0x8C379A000000000000000000000000000000000000000000000000000000000 DUP2 MSTORE PUSH1 0x4 ADD PUSH2 0x2E5 SWAP1 PUSH2 0x75F JUMP JUMPDEST PUSH1 0x40 MLOAD DUP1 SWAP2 SUB SWAP1 REVERT JUMPDEST POP POP POP POP JUMP JUMPDEST PUSH1 0x0 DUP2 MLOAD SWAP1 POP SWAP2 SWAP1 POP JUMP JUMPDEST PUSH1 0x0 DUP3 DUP3 MSTORE PUSH1 0x20 DUP3 ADD SWAP1 POP SWAP3 SWAP2 POP POP JUMP JUMPDEST PUSH1 0x0 JUMPDEST DUP4 DUP2 LT ISZERO PUSH2 0x32E JUMPI DUP1 DUP3 ADD MLOAD DUP2 DUP5 ADD MSTORE PUSH1 0x20 DUP2 ADD SWAP1 POP PUSH2 0x313 JUMP JUMPDEST DUP4 DUP2 GT ISZERO PUSH2 0x33D JUMPI PUSH1 0x0 DUP5 DUP5 ADD MSTORE JUMPDEST POP POP POP POP JUMP JUMPDEST PUSH1 0x0 PUSH1 0x1F NOT PUSH1 0x1F DUP4 ADD AND SWAP1 POP SWAP2 SWAP1 POP JUMP JUMPDEST PUSH1 0x0 PUSH2 0x35F DUP3 PUSH2 0x2F4 JUMP JUMPDEST PUSH2 0x369 DUP2 DUP6 PUSH2 0x2FF JUMP JUMPDEST SWAP4 POP PUSH2 0x379 DUP2 DUP6 PUSH1 0x20 DUP7 ADD PUSH2 0x310 JUMP JUMPDEST PUSH2 0x382 DUP2 PUSH2 0x343 JUMP JUMPDEST DUP5 ADD SWAP2 POP POP SWAP3 SWAP2 POP POP JUMP JUMPDEST PUSH1 0x0 PUSH1 0x20 DUP3 ADD SWAP1 POP DUP2 DUP2 SUB PUSH1 0x0 DUP4 ADD MSTORE PUSH2 0x3A7 DUP2 DUP5 PUSH2 0x354 JUMP JUMPDEST SWAP1 POP SWAP3 SWAP2 POP POP JUMP JUMPDEST PUSH1 0x0 DUP1 REVERT JUMPDEST PUSH1 0x0 DUP1 REVERT JUMPDEST PUSH1 0x0 DUP1 REVERT JUMPDEST PUSH1 0x0 DUP1 REVERT JUMPDEST PUSH1 0x0 DUP1 REVERT JUMPDEST PUSH1 0x0 DUP1 DUP4 PUSH1 0x1F DUP5 ADD SLT PUSH2 0x3DE JUMPI PUSH2 0x3DD PUSH2 0x3B9 JUMP JUMPDEST JUMPDEST DUP3 CALLDATALOAD SWAP1 POP PUSH8 0xFFFFFFFFFFFFFFFF DUP2 GT ISZERO PUSH2 0x3FB JUMPI PUSH2 0x3FA PUSH2 0x3BE JUMP JUMPDEST JUMPDEST PUSH1 0x20 DUP4 ADD SWAP2 POP DUP4 PUSH1 0x1 DUP3 MUL DUP4 ADD GT ISZERO PUSH2 0x417 JUMPI PUSH2 0x416 PUSH2 0x3C3 JUMP JUMPDEST JUMPDEST SWAP3 POP SWAP3 SWAP1 POP JUMP JUMPDEST PUSH1 0x0 DUP1 PUSH1 0x20 DUP4 DUP6 SUB SLT ISZERO PUSH2 0x435 JUMPI PUSH2 0x434 PUSH2 0x3AF JUMP JUMPDEST JUMPDEST PUSH1 0x0 DUP4 ADD CALLDATALOAD PUSH8 0xFFFFFFFFFFFFFFFF DUP2 GT ISZERO PUSH2 0x453 JUMPI PUSH2 0x452 PUSH2 0x3B4 JUMP JUMPDEST JUMPDEST PUSH2 0x45F DUP6 DUP3 DUP7 ADD PUSH2 0x3C8 JUMP JUMPDEST SWAP3 POP SWAP3 POP POP SWAP3 POP SWAP3 SWAP1 POP JUMP JUMPDEST PUSH32 0x4E487B7100000000000000000000000000000000000000000000000000000000 PUSH1 0x0 MSTORE PUSH1 0x22 PUSH1 0x4 MSTORE PUSH1 0x24 PUSH1 0x0 REVERT JUMPDEST PUSH1 0x0 PUSH1 0x2 DUP3 DIV SWAP1 POP PUSH1 0x1 DUP3 AND DUP1 PUSH2 0x4B2 JUMPI PUSH1 0x7F DUP3 AND SWAP2 POP JUMPDEST PUSH1 0x20 DUP3 LT DUP2 SUB PUSH2 0x4C5 JUMPI PUSH2 0x4C4 PUSH2 0x46B JUMP JUMPDEST JUMPDEST POP SWAP2 SWAP1 POP JUMP JUMPDEST PUSH1 0x0 DUP1 REVERT JUMPDEST PUSH1 0x0 DUP1 REVERT JUMPDEST PUSH1 0x0 DUP1 DUP6 DUP6 GT ISZERO PUSH2 0x4E9 JUMPI PUSH2 0x4E8 PUSH2 0x4CB JUMP JUMPDEST JUMPDEST DUP4 DUP7 GT ISZERO PUSH2 0x4FA JUMPI PUSH2 0x4F9 PUSH2 0x4D0 JUMP JUMPDEST JUMPDEST PUSH1 0x1 DUP6 MUL DUP4 ADD SWAP2 POP DUP5 DUP7 SUB SWAP1 POP SWAP5 POP SWAP5 SWAP3 POP POP POP JUMP JUMPDEST PUSH1 0x0 DUP3 SWAP1 POP SWAP3 SWAP2 POP POP JUMP JUMPDEST PUSH1 0x0 PUSH32 0xFFFFFFFF00000000000000000000000000000000000000000000000000000000 DUP3 AND SWAP1 POP SWAP2 SWAP1 POP JUMP JUMPDEST PUSH1 0x0 DUP3 DUP3 SHL SWAP1 POP SWAP3 SWAP2 POP POP JUMP JUMPDEST PUSH1 0x0 PUSH2 0x560 DUP4 DUP4 PUSH2 0x510 JUMP JUMPDEST DUP3 PUSH2 0x56B DUP2 CALLDATALOAD PUSH2 0x51B JUMP JUMPDEST SWAP3 POP PUSH1 0x4 DUP3 LT ISZERO PUSH2 0x5AB JUMPI PUSH2 0x5A6 PUSH32 0xFFFFFFFF00000000000000000000000000000000000000000000000000000000 DUP4 PUSH1 0x4 SUB PUSH1 0x8 MUL PUSH2 0x547 JUMP JUMPDEST DUP4 AND SWAP3 POP JUMPDEST POP POP SWAP3 SWAP2 POP POP JUMP JUMPDEST PUSH1 0x0 PUSH20 0xFFFFFFFFFFFFFFFFFFFFFFFFFFFFFFFFFFFFFFFF DUP3 AND SWAP1 POP SWAP2 SWAP1 POP JUMP JUMPDEST PUSH1 0x0 PUSH2 0x5DE DUP3 PUSH2 0x5B3 JUMP JUMPDEST SWAP1 POP SWAP2 SWAP1 POP JUMP JUMPDEST PUSH2 0x5EE DUP2 PUSH2 0x5D3 JUMP JUMPDEST DUP2 EQ PUSH2 0x5F9 JUMPI PUSH1 0x0 DUP1 REVERT JUMPDEST POP JUMP JUMPDEST PUSH1 0x0 DUP2 CALLDATALOAD SWAP1 POP PUSH2 0x60B DUP2 PUSH2 0x5E5 JUMP JUMPDEST SWAP3 SWAP2 POP POP JUMP JUMPDEST PUSH1 0x0 PUSH1 0x20 DUP3 DUP5 SUB SLT ISZERO PUSH2 0x627 JUMPI PUSH2 0x626 PUSH2 0x3AF JUMP JUMPDEST JUMPDEST PUSH1 0x0 PUSH2 0x635 DUP5 DUP3 DUP6 ADD PUSH2 0x5FC JUMP JUMPDEST SWAP2 POP POP SWAP3 SWAP2 POP POP JUMP JUMPDEST PUSH1 0x0 DUP3 DUP3 MSTORE PUSH1 0x20 DUP3 ADD SWAP1 POP SWAP3 SWAP2 POP POP JUMP JUMPDEST PUSH32 0x41646472657373206F66206F776E65722063616E6E6F74206265207A65726F2E PUSH1 0x0 DUP3 ADD MSTORE POP JUMP JUMPDEST PUSH1 0x0 PUSH2 0x685 PUSH1 0x20 DUP4 PUSH2 0x63E JUMP JUMPDEST SWAP2 POP PUSH2 0x690 DUP3 PUSH2 0x64F JUMP JUMPDEST PUSH1 0x20 DUP3 ADD SWAP1 POP SWAP2 SWAP1 POP JUMP JUMPDEST PUSH1 0x0 PUSH1 0x20 DUP3 ADD SWAP1 POP DUP2 DUP2 SUB PUSH1 0x0 DUP4 ADD MSTORE PUSH2 0x6B4 DUP2 PUSH2 0x678 JUMP JUMPDEST SWAP1 POP SWAP2 SWAP1 POP JUMP JUMPDEST PUSH1 0x0 DUP2 SWAP1 POP SWAP3 SWAP2 POP POP JUMP JUMPDEST DUP3 DUP2 DUP4 CALLDATACOPY PUSH1 0x0 DUP4 DUP4 ADD MSTORE POP POP POP JUMP JUMPDEST PUSH1 0x0 PUSH2 0x6E1 DUP4 DUP6 PUSH2 0x6BB JUMP JUMPDEST SWAP4 POP PUSH2 0x6EE DUP4 DUP6 DUP5 PUSH2 0x6C6 JUMP JUMPDEST DUP3 DUP5 ADD SWAP1 POP SWAP4 SWAP3 POP POP POP JUMP JUMPDEST PUSH1 0x0 PUSH2 0x707 DUP3 DUP5 DUP7 PUSH2 0x6D5 JUMP JUMPDEST SWAP2 POP DUP2 SWAP1 POP SWAP4 SWAP3 POP POP POP JUMP JUMPDEST PUSH32 0x466F727761726465642063616C6C206661696C65642E00000000000000000000 PUSH1 0x0 DUP3 ADD MSTORE POP JUMP JUMPDEST PUSH1 0x0 PUSH2 0x749 PUSH1 0x16 DUP4 PUSH2 0x63E JUMP JUMPDEST SWAP2 POP PUSH2 0x754 DUP3 PUSH2 0x713 JUMP JUMPDEST PUSH1 0x20 DUP3 ADD SWAP1 POP SWAP2 SWAP1 POP JUMP JUMPDEST PUSH1 0x0 PUSH1 0x20 DUP3 ADD SWAP1 POP DUP2 DUP2 SUB PUSH1 0x0 DUP4 ADD MSTORE PUSH2 0x778 DUP2 PUSH2 0x73C JUMP JUMPDEST SWAP1 POP SWAP2 SWAP1 POP JUMP INVALID LOG2 PUSH5 0x6970667358 0x22 SLT KECCAK256 0x28 0x25 0xE1 PUSH3 0x2C1FD4 DUP13 PUSH11 0xAE883F2A41B0B0D2A83D9F SWAP11 0xB5 GASPRICE 0xDC 0x22 0xC2 XOR SWAP2 0x28 OR INVALID SWAP12 PUSH5 0x736F6C6343 STOP ADDMOD 0xF STOP CALLER "
				},
				"gasEstimates": {
					"creation": {
						"codeDepositCost": "394600",
						"executionCost": "infinite",
						"totalCost": "infinite"
					},
					"external": {
						"b()": "infinite",
						"forward(bytes)": "infinite"
					}
				},
				"methodIdentifiers": {
					"b()": "4df7e3d0",
					"forward(bytes)": "d948d468"
				}
			},
			"storageLayout": {
				"storage": [
					{
						"astId": 4,
						"contract": "study/chapter07/arrySlice.sol:testArrySlice",
						"label": "client",
						"offset": 0,
						"slot": "0",
						"type": "t_address"
					},
					{
						"astId": 20,
						"contract": "study/chapter07/arrySlice.sol:testArrySlice",
						"label": "b",
						"offset": 0,
						"slot": "1",
						"type": "t_bytes_storage"
					}
				],
				"types": {
					"t_address": {
						"encoding": "inplace",
						"label": "address",
						"numberOfBytes": "20"
					},
					"t_bytes_storage": {
						"encoding": "bytes",
						"label": "bytes",
						"numberOfBytes": "32"
					}
				}
			},
			"userdoc": {
				"kind": "user",
				"methods": {
					"forward(bytes)": {
						"notice": "在进行参数验证之后，转发到由client实现的 \"setOwner(address)\""
					}
				},
				"version": 1
			}
		}
	}
}