{
	"study/chapter07/byte123.sol": {
		"bytes123": {
			"abi": [
				{
					"inputs": [],
					"name": "a",
					"outputs": [
						{
							"internalType": "bytes1",
							"name": "",
							"type": "bytes1"
						}
					],
					"stateMutability": "view",
					"type": "function"
				},
				{
					"inputs": [],
					"name": "len",
					"outputs": [
						{
							"internalType": "uint256",
							"name": "",
							"type": "uint256"
						}
					],
					"stateMutability": "view",
					"type": "function"
				}
			],
			"devdoc": {
				"kind": "dev",
				"methods": {},
				"version": 1
			},
			"evm": {
				"assembly": "    /* \"study/chapter07/byte123.sol\":56:161  contract bytes123{... */\n  mstore(0x40, 0x80)\n    /* \"study/chapter07/byte123.sol\":96:97  a */\n  0x00\n  dup1\n  sload\n  swap1\n  0x0100\n  exp\n  swap1\n  div\n  0xf8\n  shl\n    /* \"study/chapter07/byte123.sol\":78:97  bytes1 public a = a */\n  0x00\n  dup1\n  0x0100\n  exp\n  dup2\n  sload\n  dup2\n  0xff\n  mul\n  not\n  and\n  swap1\n  dup4\n  0xf8\n  shr\n  mul\n  or\n  swap1\n  sstore\n  pop\n    /* \"study/chapter07/byte123.sol\":150:151  a */\n  0x00\n  dup1\n  sload\n  swap1\n  0x0100\n  exp\n  swap1\n  pop\n  pop\n    /* \"study/chapter07/byte123.sol\":150:158  a.length */\n  0x01\n    /* \"study/chapter07/byte123.sol\":131:158  uint public len =  a.length */\n  0xff\n  and\n  0x01\n  sstore\n    /* \"study/chapter07/byte123.sol\":56:161  contract bytes123{... */\n  callvalue\n  dup1\n  iszero\n  tag_1\n  jumpi\n  0x00\n  dup1\n  revert\ntag_1:\n  pop\n  dataSize(sub_0)\n  dup1\n  dataOffset(sub_0)\n  0x00\n  codecopy\n  0x00\n  return\nstop\n\nsub_0: assembly {\n        /* \"study/chapter07/byte123.sol\":56:161  contract bytes123{... */\n      mstore(0x40, 0x80)\n      callvalue\n      dup1\n      iszero\n      tag_1\n      jumpi\n      0x00\n      dup1\n      revert\n    tag_1:\n      pop\n      jumpi(tag_2, lt(calldatasize, 0x04))\n      shr(0xe0, calldataload(0x00))\n      dup1\n      0x0dbe671f\n      eq\n      tag_3\n      jumpi\n      dup1\n      0x56d88e27\n      eq\n      tag_4\n      jumpi\n    tag_2:\n      0x00\n      dup1\n      revert\n        /* \"study/chapter07/byte123.sol\":78:97  bytes1 public a = a */\n    tag_3:\n      tag_5\n      tag_6\n      jump\t// in\n    tag_5:\n      mload(0x40)\n      tag_7\n      swap2\n      swap1\n      tag_8\n      jump\t// in\n    tag_7:\n      mload(0x40)\n      dup1\n      swap2\n      sub\n      swap1\n      return\n        /* \"study/chapter07/byte123.sol\":131:158  uint public len =  a.length */\n    tag_4:\n      tag_9\n      tag_10\n      jump\t// in\n    tag_9:\n      mload(0x40)\n      tag_11\n      swap2\n      swap1\n      tag_12\n      jump\t// in\n    tag_11:\n      mload(0x40)\n      dup1\n      swap2\n      sub\n      swap1\n      return\n        /* \"study/chapter07/byte123.sol\":78:97  bytes1 public a = a */\n    tag_6:\n      0x00\n      dup1\n      sload\n      swap1\n      0x0100\n      exp\n      swap1\n      div\n      0xf8\n      shl\n      dup2\n      jump\t// out\n        /* \"study/chapter07/byte123.sol\":131:158  uint public len =  a.length */\n    tag_10:\n      sload(0x01)\n      dup2\n      jump\t// out\n        /* \"#utility.yul\":7:122   */\n    tag_14:\n        /* \"#utility.yul\":92:115   */\n      tag_16\n        /* \"#utility.yul\":109:114   */\n      dup2\n        /* \"#utility.yul\":92:115   */\n      tag_17\n      jump\t// in\n    tag_16:\n        /* \"#utility.yul\":87:90   */\n      dup3\n        /* \"#utility.yul\":80:116   */\n      mstore\n        /* \"#utility.yul\":7:122   */\n      pop\n      pop\n      jump\t// out\n        /* \"#utility.yul\":128:246   */\n    tag_18:\n        /* \"#utility.yul\":215:239   */\n      tag_20\n        /* \"#utility.yul\":233:238   */\n      dup2\n        /* \"#utility.yul\":215:239   */\n      tag_21\n      jump\t// in\n    tag_20:\n        /* \"#utility.yul\":210:213   */\n      dup3\n        /* \"#utility.yul\":203:240   */\n      mstore\n        /* \"#utility.yul\":128:246   */\n      pop\n      pop\n      jump\t// out\n        /* \"#utility.yul\":252:470   */\n    tag_8:\n        /* \"#utility.yul\":343:347   */\n      0x00\n        /* \"#utility.yul\":381:383   */\n      0x20\n        /* \"#utility.yul\":370:379   */\n      dup3\n        /* \"#utility.yul\":366:384   */\n      add\n        /* \"#utility.yul\":358:384   */\n      swap1\n      pop\n        /* \"#utility.yul\":394:463   */\n      tag_23\n        /* \"#utility.yul\":460:461   */\n      0x00\n        /* \"#utility.yul\":449:458   */\n      dup4\n        /* \"#utility.yul\":445:462   */\n      add\n        /* \"#utility.yul\":436:442   */\n      dup5\n        /* \"#utility.yul\":394:463   */\n      tag_14\n      jump\t// in\n    tag_23:\n        /* \"#utility.yul\":252:470   */\n      swap3\n      swap2\n      pop\n      pop\n      jump\t// out\n        /* \"#utility.yul\":476:698   */\n    tag_12:\n        /* \"#utility.yul\":569:573   */\n      0x00\n        /* \"#utility.yul\":607:609   */\n      0x20\n        /* \"#utility.yul\":596:605   */\n      dup3\n        /* \"#utility.yul\":592:610   */\n      add\n        /* \"#utility.yul\":584:610   */\n      swap1\n      pop\n        /* \"#utility.yul\":620:691   */\n      tag_25\n        /* \"#utility.yul\":688:689   */\n      0x00\n        /* \"#utility.yul\":677:686   */\n      dup4\n        /* \"#utility.yul\":673:690   */\n      add\n        /* \"#utility.yul\":664:670   */\n      dup5\n        /* \"#utility.yul\":620:691   */\n      tag_18\n      jump\t// in\n    tag_25:\n        /* \"#utility.yul\":476:698   */\n      swap3\n      swap2\n      pop\n      pop\n      jump\t// out\n        /* \"#utility.yul\":704:853   */\n    tag_17:\n        /* \"#utility.yul\":740:747   */\n      0x00\n        /* \"#utility.yul\":780:846   */\n      0xff00000000000000000000000000000000000000000000000000000000000000\n        /* \"#utility.yul\":773:778   */\n      dup3\n        /* \"#utility.yul\":769:847   */\n      and\n        /* \"#utility.yul\":758:847   */\n      swap1\n      pop\n        /* \"#utility.yul\":704:853   */\n      swap2\n      swap1\n      pop\n      jump\t// out\n        /* \"#utility.yul\":859:936   */\n    tag_21:\n        /* \"#utility.yul\":896:903   */\n      0x00\n        /* \"#utility.yul\":925:930   */\n      dup2\n        /* \"#utility.yul\":914:930   */\n      swap1\n      pop\n        /* \"#utility.yul\":859:936   */\n      swap2\n      swap1\n      pop\n      jump\t// out\n\n    auxdata: 0xa26469706673582212200bfd087ce6a47585b5be87e639746ed36110f61f3260ed9eadfce00a35fcb80f64736f6c63430008070033\n}\n",
				"bytecode": {
					"linkReferences": {},
					"object": "608060405260008054906101000a900460f81b6000806101000a81548160ff021916908360f81c021790555060008054906101000a905050600160ff1660015534801561004b57600080fd5b5061014e8061005b6000396000f3fe608060405234801561001057600080fd5b50600436106100365760003560e01c80630dbe671f1461003b57806356d88e2714610059575b600080fd5b610043610077565b60405161005091906100ac565b60405180910390f35b610061610088565b60405161006e91906100c7565b60405180910390f35b60008054906101000a900460f81b81565b60015481565b610097816100e2565b82525050565b6100a68161010e565b82525050565b60006020820190506100c1600083018461008e565b92915050565b60006020820190506100dc600083018461009d565b92915050565b60007fff0000000000000000000000000000000000000000000000000000000000000082169050919050565b600081905091905056fea26469706673582212200bfd087ce6a47585b5be87e639746ed36110f61f3260ed9eadfce00a35fcb80f64736f6c63430008070033",
					"opcodes": "PUSH1 0x80 PUSH1 0x40 MSTORE PUSH1 0x0 DUP1 SLOAD SWAP1 PUSH2 0x100 EXP SWAP1 DIV PUSH1 0xF8 SHL PUSH1 0x0 DUP1 PUSH2 0x100 EXP DUP2 SLOAD DUP2 PUSH1 0xFF MUL NOT AND SWAP1 DUP4 PUSH1 0xF8 SHR MUL OR SWAP1 SSTORE POP PUSH1 0x0 DUP1 SLOAD SWAP1 PUSH2 0x100 EXP SWAP1 POP POP PUSH1 0x1 PUSH1 0xFF AND PUSH1 0x1 SSTORE CALLVALUE DUP1 ISZERO PUSH2 0x4B JUMPI PUSH1 0x0 DUP1 REVERT JUMPDEST POP PUSH2 0x14E DUP1 PUSH2 0x5B PUSH1 0x0 CODECOPY PUSH1 0x0 RETURN INVALID PUSH1 0x80 PUSH1 0x40 MSTORE CALLVALUE DUP1 ISZERO PUSH2 0x10 JUMPI PUSH1 0x0 DUP1 REVERT JUMPDEST POP PUSH1 0x4 CALLDATASIZE LT PUSH2 0x36 JUMPI PUSH1 0x0 CALLDATALOAD PUSH1 0xE0 SHR DUP1 PUSH4 0xDBE671F EQ PUSH2 0x3B JUMPI DUP1 PUSH4 0x56D88E27 EQ PUSH2 0x59 JUMPI JUMPDEST PUSH1 0x0 DUP1 REVERT JUMPDEST PUSH2 0x43 PUSH2 0x77 JUMP JUMPDEST PUSH1 0x40 MLOAD PUSH2 0x50 SWAP2 SWAP1 PUSH2 0xAC JUMP JUMPDEST PUSH1 0x40 MLOAD DUP1 SWAP2 SUB SWAP1 RETURN JUMPDEST PUSH2 0x61 PUSH2 0x88 JUMP JUMPDEST PUSH1 0x40 MLOAD PUSH2 0x6E SWAP2 SWAP1 PUSH2 0xC7 JUMP JUMPDEST PUSH1 0x40 MLOAD DUP1 SWAP2 SUB SWAP1 RETURN JUMPDEST PUSH1 0x0 DUP1 SLOAD SWAP1 PUSH2 0x100 EXP SWAP1 DIV PUSH1 0xF8 SHL DUP2 JUMP JUMPDEST PUSH1 0x1 SLOAD DUP2 JUMP JUMPDEST PUSH2 0x97 DUP2 PUSH2 0xE2 JUMP JUMPDEST DUP3 MSTORE POP POP JUMP JUMPDEST PUSH2 0xA6 DUP2 PUSH2 0x10E JUMP JUMPDEST DUP3 MSTORE POP POP JUMP JUMPDEST PUSH1 0x0 PUSH1 0x20 DUP3 ADD SWAP1 POP PUSH2 0xC1 PUSH1 0x0 DUP4 ADD DUP5 PUSH2 0x8E JUMP JUMPDEST SWAP3 SWAP2 POP POP JUMP JUMPDEST PUSH1 0x0 PUSH1 0x20 DUP3 ADD SWAP1 POP PUSH2 0xDC PUSH1 0x0 DUP4 ADD DUP5 PUSH2 0x9D JUMP JUMPDEST SWAP3 SWAP2 POP POP JUMP JUMPDEST PUSH1 0x0 PUSH32 0xFF00000000000000000000000000000000000000000000000000000000000000 DUP3 AND SWAP1 POP SWAP2 SWAP1 POP JUMP JUMPDEST PUSH1 0x0 DUP2 SWAP1 POP SWAP2 SWAP1 POP JUMP INVALID LOG2 PUSH5 0x6970667358 0x22 SLT KECCAK256 SIGNEXTEND REVERT ADDMOD PUSH29 0xE6A47585B5BE87E639746ED36110F61F3260ED9EADFCE00A35FCB80F64 PUSH20 0x6F6C634300080700330000000000000000000000 "
				},
				"gasEstimates": {
					"creation": {
						"codeDepositCost": "66800",
						"executionCost": "50758",
						"totalCost": "117558"
					},
					"external": {
						"a()": "2446",
						"len()": "2429"
					}
				},
				"methodIdentifiers": {
					"a()": "0dbe671f",
					"len()": "56d88e27"
				}
			},
			"storageLayout": {
				"storage": [
					{
						"astId": 4,
						"contract": "study/chapter07/byte123.sol:bytes123",
						"label": "a",
						"offset": 0,
						"slot": "0",
						"type": "t_bytes1"
					},
					{
						"astId": 8,
						"contract": "study/chapter07/byte123.sol:bytes123",
						"label": "len",
						"offset": 0,
						"slot": "1",
						"type": "t_uint256"
					}
				],
				"types": {
					"t_bytes1": {
						"encoding": "inplace",
						"label": "bytes1",
						"numberOfBytes": "1"
					},
					"t_uint256": {
						"encoding": "inplace",
						"label": "uint256",
						"numberOfBytes": "32"
					}
				}
			},
			"userdoc": {
				"kind": "user",
				"methods": {},
				"version": 1
			}
		}
	}
}