{
	"study/chapter07/bytesAndString.sol": {
		"testBS": {
			"abi": [
				{
					"inputs": [],
					"name": "b",
					"outputs": [
						{
							"internalType": "bytes",
							"name": "",
							"type": "bytes"
						}
					],
					"stateMutability": "view",
					"type": "function"
				},
				{
					"inputs": [],
					"name": "example",
					"outputs": [
						{
							"internalType": "bytes1",
							"name": "a",
							"type": "bytes1"
						}
					],
					"stateMutability": "nonpayable",
					"type": "function"
				},
				{
					"inputs": [
						{
							"internalType": "uint256",
							"name": "",
							"type": "uint256"
						}
					],
					"name": "num",
					"outputs": [
						{
							"internalType": "uint256",
							"name": "",
							"type": "uint256"
						}
					],
					"stateMutability": "view",
					"type": "function"
				},
				{
					"inputs": [],
					"name": "s",
					"outputs": [
						{
							"internalType": "string",
							"name": "",
							"type": "string"
						}
					],
					"stateMutability": "view",
					"type": "function"
				}
			],
			"devdoc": {
				"kind": "dev",
				"methods": {},
				"version": 1
			},
			"evm": {
				"assembly": "    /* \"study/chapter07/bytesAndString.sol\":54:240  contract testBS{... */\n  mstore(0x40, 0x80)\n  callvalue\n  dup1\n  iszero\n  tag_1\n  jumpi\n  0x00\n  dup1\n  revert\ntag_1:\n  pop\n  dataSize(sub_0)\n  dup1\n  dataOffset(sub_0)\n  0x00\n  codecopy\n  0x00\n  return\nstop\n\nsub_0: assembly {\n        /* \"study/chapter07/bytesAndString.sol\":54:240  contract testBS{... */\n      mstore(0x40, 0x80)\n      callvalue\n      dup1\n      iszero\n      tag_1\n      jumpi\n      0x00\n      dup1\n      revert\n    tag_1:\n      pop\n      jumpi(tag_2, lt(calldatasize, 0x04))\n      shr(0xe0, calldataload(0x00))\n      dup1\n      0x4df7e3d0\n      eq\n      tag_3\n      jumpi\n      dup1\n      0x54353f2f\n      eq\n      tag_4\n      jumpi\n      dup1\n      0x86b714e2\n      eq\n      tag_5\n      jumpi\n      dup1\n      0xaa228b75\n      eq\n      tag_6\n      jumpi\n    tag_2:\n      0x00\n      dup1\n      revert\n        /* \"study/chapter07/bytesAndString.sol\":75:89  bytes public b */\n    tag_3:\n      tag_7\n      tag_8\n      jump\t// in\n    tag_7:\n      mload(0x40)\n      tag_9\n      swap2\n      swap1\n      tag_10\n      jump\t// in\n    tag_9:\n      mload(0x40)\n      dup1\n      swap2\n      sub\n      swap1\n      return\n        /* \"study/chapter07/bytesAndString.sol\":140:237  function example()external  returns(bytes1 a){ ... */\n    tag_4:\n      tag_11\n      tag_12\n      jump\t// in\n    tag_11:\n      mload(0x40)\n      tag_13\n      swap2\n      swap1\n      tag_14\n      jump\t// in\n    tag_13:\n      mload(0x40)\n      dup1\n      swap2\n      sub\n      swap1\n      return\n        /* \"study/chapter07/bytesAndString.sol\":95:110  string public s */\n    tag_5:\n      tag_15\n      tag_16\n      jump\t// in\n    tag_15:\n      mload(0x40)\n      tag_17\n      swap2\n      swap1\n      tag_18\n      jump\t// in\n    tag_17:\n      mload(0x40)\n      dup1\n      swap2\n      sub\n      swap1\n      return\n        /* \"study/chapter07/bytesAndString.sol\":117:134  uint[] public num */\n    tag_6:\n      tag_19\n      0x04\n      dup1\n      calldatasize\n      sub\n      dup2\n      add\n      swap1\n      tag_20\n      swap2\n      swap1\n      tag_21\n      jump\t// in\n    tag_20:\n      tag_22\n      jump\t// in\n    tag_19:\n      mload(0x40)\n      tag_23\n      swap2\n      swap1\n      tag_24\n      jump\t// in\n    tag_23:\n      mload(0x40)\n      dup1\n      swap2\n      sub\n      swap1\n      return\n        /* \"study/chapter07/bytesAndString.sol\":75:89  bytes public b */\n    tag_8:\n      0x00\n      dup1\n      sload\n      tag_25\n      swap1\n      tag_26\n      jump\t// in\n    tag_25:\n      dup1\n      0x1f\n      add\n      0x20\n      dup1\n      swap2\n      div\n      mul\n      0x20\n      add\n      mload(0x40)\n      swap1\n      dup2\n      add\n      0x40\n      mstore\n      dup1\n      swap3\n      swap2\n      swap1\n      dup2\n      dup2\n      mstore\n      0x20\n      add\n      dup3\n      dup1\n      sload\n      tag_27\n      swap1\n      tag_26\n      jump\t// in\n    tag_27:\n      dup1\n      iszero\n      tag_28\n      jumpi\n      dup1\n      0x1f\n      lt\n      tag_29\n      jumpi\n      0x0100\n      dup1\n      dup4\n      sload\n      div\n      mul\n      dup4\n      mstore\n      swap2\n      0x20\n      add\n      swap2\n      jump(tag_28)\n    tag_29:\n      dup3\n      add\n      swap2\n      swap1\n      0x00\n      mstore\n      keccak256(0x00, 0x20)\n      swap1\n    tag_30:\n      dup2\n      sload\n      dup2\n      mstore\n      swap1\n      0x01\n      add\n      swap1\n      0x20\n      add\n      dup1\n      dup4\n      gt\n      tag_30\n      jumpi\n      dup3\n      swap1\n      sub\n      0x1f\n      and\n      dup3\n      add\n      swap2\n    tag_28:\n      pop\n      pop\n      pop\n      pop\n      pop\n      dup2\n      jump\t// out\n        /* \"study/chapter07/bytesAndString.sol\":140:237  function example()external  returns(bytes1 a){ ... */\n    tag_12:\n        /* \"study/chapter07/bytesAndString.sol\":176:184  bytes1 a */\n      0x00\n        /* \"study/chapter07/bytesAndString.sol\":200:213  b.push()= '2' */\n      0x3200000000000000000000000000000000000000000000000000000000000000\n        /* \"study/chapter07/bytesAndString.sol\":200:201  b */\n      0x00\n        /* \"study/chapter07/bytesAndString.sol\":200:208  b.push() */\n      0x01\n      dup2\n      dup1\n      sload\n      dup1\n      tag_32\n      swap1\n      tag_26\n      jump\t// in\n    tag_32:\n      dup1\n      0x1f\n      dup2\n      eq\n      tag_34\n      jumpi\n      jump(tag_33)\n    tag_34:\n      dup4\n      0x00\n      mstore\n      keccak256(0x00, 0x20)\n      not(0xff)\n      dup5\n      and\n      dup2\n      sstore\n      0x3f\n      swap4\n      pop\n      pop\n    tag_33:\n      pop\n      0x02\n      dup3\n      add\n      dup4\n      sstore\n      0x01\n      dup2\n      add\n      swap3\n      pop\n      pop\n      pop\n      sub\n      dup2\n      sload\n      0x01\n      and\n      iszero\n      tag_35\n      jumpi\n      swap1\n      0x00\n      mstore\n      keccak256(0x00, 0x20)\n      swap1\n      0x20\n      swap2\n      dup3\n      dup3\n      div\n      add\n      swap2\n      swap1\n      mod\n    tag_35:\n        /* \"study/chapter07/bytesAndString.sol\":200:213  b.push()= '2' */\n      0x1f\n      sub\n      0x0100\n      exp\n      dup2\n      sload\n      dup2\n      0xff\n      mul\n      not\n      and\n      swap1\n      0x0100000000000000000000000000000000000000000000000000000000000000\n      dup5\n      div\n      mul\n      or\n      swap1\n      sstore\n        /* \"study/chapter07/bytesAndString.sol\":196:213  a = b.push()= '2' */\n      swap1\n      pop\n        /* \"study/chapter07/bytesAndString.sol\":140:237  function example()external  returns(bytes1 a){ ... */\n      swap1\n      jump\t// out\n        /* \"study/chapter07/bytesAndString.sol\":95:110  string public s */\n    tag_16:\n      0x01\n      dup1\n      sload\n      tag_36\n      swap1\n      tag_26\n      jump\t// in\n    tag_36:\n      dup1\n      0x1f\n      add\n      0x20\n      dup1\n      swap2\n      div\n      mul\n      0x20\n      add\n      mload(0x40)\n      swap1\n      dup2\n      add\n      0x40\n      mstore\n      dup1\n      swap3\n      swap2\n      swap1\n      dup2\n      dup2\n      mstore\n      0x20\n      add\n      dup3\n      dup1\n      sload\n      tag_37\n      swap1\n      tag_26\n      jump\t// in\n    tag_37:\n      dup1\n      iszero\n      tag_38\n      jumpi\n      dup1\n      0x1f\n      lt\n      tag_39\n      jumpi\n      0x0100\n      dup1\n      dup4\n      sload\n      div\n      mul\n      dup4\n      mstore\n      swap2\n      0x20\n      add\n      swap2\n      jump(tag_38)\n    tag_39:\n      dup3\n      add\n      swap2\n      swap1\n      0x00\n      mstore\n      keccak256(0x00, 0x20)\n      swap1\n    tag_40:\n      dup2\n      sload\n      dup2\n      mstore\n      swap1\n      0x01\n      add\n      swap1\n      0x20\n      add\n      dup1\n      dup4\n      gt\n      tag_40\n      jumpi\n      dup3\n      swap1\n      sub\n      0x1f\n      and\n      dup3\n      add\n      swap2\n    tag_38:\n      pop\n      pop\n      pop\n      pop\n      pop\n      dup2\n      jump\t// out\n        /* \"study/chapter07/bytesAndString.sol\":117:134  uint[] public num */\n    tag_22:\n      0x02\n      dup2\n      dup2\n      sload\n      dup2\n      lt\n      tag_41\n      jumpi\n      0x00\n      dup1\n      revert\n    tag_41:\n      swap1\n      0x00\n      mstore\n      keccak256(0x00, 0x20)\n      add\n      0x00\n      swap2\n      pop\n      swap1\n      pop\n      sload\n      dup2\n      jump\t// out\n        /* \"#utility.yul\":7:146   */\n    tag_44:\n        /* \"#utility.yul\":53:58   */\n      0x00\n        /* \"#utility.yul\":91:97   */\n      dup2\n        /* \"#utility.yul\":78:98   */\n      calldataload\n        /* \"#utility.yul\":69:98   */\n      swap1\n      pop\n        /* \"#utility.yul\":107:140   */\n      tag_46\n        /* \"#utility.yul\":134:139   */\n      dup2\n        /* \"#utility.yul\":107:140   */\n      tag_47\n      jump\t// in\n    tag_46:\n        /* \"#utility.yul\":7:146   */\n      swap3\n      swap2\n      pop\n      pop\n      jump\t// out\n        /* \"#utility.yul\":152:481   */\n    tag_21:\n        /* \"#utility.yul\":211:217   */\n      0x00\n        /* \"#utility.yul\":260:262   */\n      0x20\n        /* \"#utility.yul\":248:257   */\n      dup3\n        /* \"#utility.yul\":239:246   */\n      dup5\n        /* \"#utility.yul\":235:258   */\n      sub\n        /* \"#utility.yul\":231:263   */\n      slt\n        /* \"#utility.yul\":228:347   */\n      iszero\n      tag_49\n      jumpi\n        /* \"#utility.yul\":266:345   */\n      tag_50\n      tag_51\n      jump\t// in\n    tag_50:\n        /* \"#utility.yul\":228:347   */\n    tag_49:\n        /* \"#utility.yul\":386:387   */\n      0x00\n        /* \"#utility.yul\":411:464   */\n      tag_52\n        /* \"#utility.yul\":456:463   */\n      dup5\n        /* \"#utility.yul\":447:453   */\n      dup3\n        /* \"#utility.yul\":436:445   */\n      dup6\n        /* \"#utility.yul\":432:454   */\n      add\n        /* \"#utility.yul\":411:464   */\n      tag_44\n      jump\t// in\n    tag_52:\n        /* \"#utility.yul\":401:464   */\n      swap2\n      pop\n        /* \"#utility.yul\":357:474   */\n      pop\n        /* \"#utility.yul\":152:481   */\n      swap3\n      swap2\n      pop\n      pop\n      jump\t// out\n        /* \"#utility.yul\":487:602   */\n    tag_53:\n        /* \"#utility.yul\":572:595   */\n      tag_55\n        /* \"#utility.yul\":589:594   */\n      dup2\n        /* \"#utility.yul\":572:595   */\n      tag_56\n      jump\t// in\n    tag_55:\n        /* \"#utility.yul\":567:570   */\n      dup3\n        /* \"#utility.yul\":560:596   */\n      mstore\n        /* \"#utility.yul\":487:602   */\n      pop\n      pop\n      jump\t// out\n        /* \"#utility.yul\":608:968   */\n    tag_57:\n        /* \"#utility.yul\":694:697   */\n      0x00\n        /* \"#utility.yul\":722:760   */\n      tag_59\n        /* \"#utility.yul\":754:759   */\n      dup3\n        /* \"#utility.yul\":722:760   */\n      tag_60\n      jump\t// in\n    tag_59:\n        /* \"#utility.yul\":776:846   */\n      tag_61\n        /* \"#utility.yul\":839:845   */\n      dup2\n        /* \"#utility.yul\":834:837   */\n      dup6\n        /* \"#utility.yul\":776:846   */\n      tag_62\n      jump\t// in\n    tag_61:\n        /* \"#utility.yul\":769:846   */\n      swap4\n      pop\n        /* \"#utility.yul\":855:907   */\n      tag_63\n        /* \"#utility.yul\":900:906   */\n      dup2\n        /* \"#utility.yul\":895:898   */\n      dup6\n        /* \"#utility.yul\":888:892   */\n      0x20\n        /* \"#utility.yul\":881:886   */\n      dup7\n        /* \"#utility.yul\":877:893   */\n      add\n        /* \"#utility.yul\":855:907   */\n      tag_64\n      jump\t// in\n    tag_63:\n        /* \"#utility.yul\":932:961   */\n      tag_65\n        /* \"#utility.yul\":954:960   */\n      dup2\n        /* \"#utility.yul\":932:961   */\n      tag_66\n      jump\t// in\n    tag_65:\n        /* \"#utility.yul\":927:930   */\n      dup5\n        /* \"#utility.yul\":923:962   */\n      add\n        /* \"#utility.yul\":916:962   */\n      swap2\n      pop\n        /* \"#utility.yul\":698:968   */\n      pop\n        /* \"#utility.yul\":608:968   */\n      swap3\n      swap2\n      pop\n      pop\n      jump\t// out\n        /* \"#utility.yul\":974:1338   */\n    tag_67:\n        /* \"#utility.yul\":1062:1065   */\n      0x00\n        /* \"#utility.yul\":1090:1129   */\n      tag_69\n        /* \"#utility.yul\":1123:1128   */\n      dup3\n        /* \"#utility.yul\":1090:1129   */\n      tag_70\n      jump\t// in\n    tag_69:\n        /* \"#utility.yul\":1145:1216   */\n      tag_71\n        /* \"#utility.yul\":1209:1215   */\n      dup2\n        /* \"#utility.yul\":1204:1207   */\n      dup6\n        /* \"#utility.yul\":1145:1216   */\n      tag_72\n      jump\t// in\n    tag_71:\n        /* \"#utility.yul\":1138:1216   */\n      swap4\n      pop\n        /* \"#utility.yul\":1225:1277   */\n      tag_73\n        /* \"#utility.yul\":1270:1276   */\n      dup2\n        /* \"#utility.yul\":1265:1268   */\n      dup6\n        /* \"#utility.yul\":1258:1262   */\n      0x20\n        /* \"#utility.yul\":1251:1256   */\n      dup7\n        /* \"#utility.yul\":1247:1263   */\n      add\n        /* \"#utility.yul\":1225:1277   */\n      tag_64\n      jump\t// in\n    tag_73:\n        /* \"#utility.yul\":1302:1331   */\n      tag_74\n        /* \"#utility.yul\":1324:1330   */\n      dup2\n        /* \"#utility.yul\":1302:1331   */\n      tag_66\n      jump\t// in\n    tag_74:\n        /* \"#utility.yul\":1297:1300   */\n      dup5\n        /* \"#utility.yul\":1293:1332   */\n      add\n        /* \"#utility.yul\":1286:1332   */\n      swap2\n      pop\n        /* \"#utility.yul\":1066:1338   */\n      pop\n        /* \"#utility.yul\":974:1338   */\n      swap3\n      swap2\n      pop\n      pop\n      jump\t// out\n        /* \"#utility.yul\":1344:1462   */\n    tag_75:\n        /* \"#utility.yul\":1431:1455   */\n      tag_77\n        /* \"#utility.yul\":1449:1454   */\n      dup2\n        /* \"#utility.yul\":1431:1455   */\n      tag_78\n      jump\t// in\n    tag_77:\n        /* \"#utility.yul\":1426:1429   */\n      dup3\n        /* \"#utility.yul\":1419:1456   */\n      mstore\n        /* \"#utility.yul\":1344:1462   */\n      pop\n      pop\n      jump\t// out\n        /* \"#utility.yul\":1468:1686   */\n    tag_14:\n        /* \"#utility.yul\":1559:1563   */\n      0x00\n        /* \"#utility.yul\":1597:1599   */\n      0x20\n        /* \"#utility.yul\":1586:1595   */\n      dup3\n        /* \"#utility.yul\":1582:1600   */\n      add\n        /* \"#utility.yul\":1574:1600   */\n      swap1\n      pop\n        /* \"#utility.yul\":1610:1679   */\n      tag_80\n        /* \"#utility.yul\":1676:1677   */\n      0x00\n        /* \"#utility.yul\":1665:1674   */\n      dup4\n        /* \"#utility.yul\":1661:1678   */\n      add\n        /* \"#utility.yul\":1652:1658   */\n      dup5\n        /* \"#utility.yul\":1610:1679   */\n      tag_53\n      jump\t// in\n    tag_80:\n        /* \"#utility.yul\":1468:1686   */\n      swap3\n      swap2\n      pop\n      pop\n      jump\t// out\n        /* \"#utility.yul\":1692:2001   */\n    tag_10:\n        /* \"#utility.yul\":1803:1807   */\n      0x00\n        /* \"#utility.yul\":1841:1843   */\n      0x20\n        /* \"#utility.yul\":1830:1839   */\n      dup3\n        /* \"#utility.yul\":1826:1844   */\n      add\n        /* \"#utility.yul\":1818:1844   */\n      swap1\n      pop\n        /* \"#utility.yul\":1890:1899   */\n      dup2\n        /* \"#utility.yul\":1884:1888   */\n      dup2\n        /* \"#utility.yul\":1880:1900   */\n      sub\n        /* \"#utility.yul\":1876:1877   */\n      0x00\n        /* \"#utility.yul\":1865:1874   */\n      dup4\n        /* \"#utility.yul\":1861:1878   */\n      add\n        /* \"#utility.yul\":1854:1901   */\n      mstore\n        /* \"#utility.yul\":1918:1994   */\n      tag_82\n        /* \"#utility.yul\":1989:1993   */\n      dup2\n        /* \"#utility.yul\":1980:1986   */\n      dup5\n        /* \"#utility.yul\":1918:1994   */\n      tag_57\n      jump\t// in\n    tag_82:\n        /* \"#utility.yul\":1910:1994   */\n      swap1\n      pop\n        /* \"#utility.yul\":1692:2001   */\n      swap3\n      swap2\n      pop\n      pop\n      jump\t// out\n        /* \"#utility.yul\":2007:2320   */\n    tag_18:\n        /* \"#utility.yul\":2120:2124   */\n      0x00\n        /* \"#utility.yul\":2158:2160   */\n      0x20\n        /* \"#utility.yul\":2147:2156   */\n      dup3\n        /* \"#utility.yul\":2143:2161   */\n      add\n        /* \"#utility.yul\":2135:2161   */\n      swap1\n      pop\n        /* \"#utility.yul\":2207:2216   */\n      dup2\n        /* \"#utility.yul\":2201:2205   */\n      dup2\n        /* \"#utility.yul\":2197:2217   */\n      sub\n        /* \"#utility.yul\":2193:2194   */\n      0x00\n        /* \"#utility.yul\":2182:2191   */\n      dup4\n        /* \"#utility.yul\":2178:2195   */\n      add\n        /* \"#utility.yul\":2171:2218   */\n      mstore\n        /* \"#utility.yul\":2235:2313   */\n      tag_84\n        /* \"#utility.yul\":2308:2312   */\n      dup2\n        /* \"#utility.yul\":2299:2305   */\n      dup5\n        /* \"#utility.yul\":2235:2313   */\n      tag_67\n      jump\t// in\n    tag_84:\n        /* \"#utility.yul\":2227:2313   */\n      swap1\n      pop\n        /* \"#utility.yul\":2007:2320   */\n      swap3\n      swap2\n      pop\n      pop\n      jump\t// out\n        /* \"#utility.yul\":2326:2548   */\n    tag_24:\n        /* \"#utility.yul\":2419:2423   */\n      0x00\n        /* \"#utility.yul\":2457:2459   */\n      0x20\n        /* \"#utility.yul\":2446:2455   */\n      dup3\n        /* \"#utility.yul\":2442:2460   */\n      add\n        /* \"#utility.yul\":2434:2460   */\n      swap1\n      pop\n        /* \"#utility.yul\":2470:2541   */\n      tag_86\n        /* \"#utility.yul\":2538:2539   */\n      0x00\n        /* \"#utility.yul\":2527:2536   */\n      dup4\n        /* \"#utility.yul\":2523:2540   */\n      add\n        /* \"#utility.yul\":2514:2520   */\n      dup5\n        /* \"#utility.yul\":2470:2541   */\n      tag_75\n      jump\t// in\n    tag_86:\n        /* \"#utility.yul\":2326:2548   */\n      swap3\n      swap2\n      pop\n      pop\n      jump\t// out\n        /* \"#utility.yul\":2635:2733   */\n    tag_60:\n        /* \"#utility.yul\":2686:2692   */\n      0x00\n        /* \"#utility.yul\":2720:2725   */\n      dup2\n        /* \"#utility.yul\":2714:2726   */\n      mload\n        /* \"#utility.yul\":2704:2726   */\n      swap1\n      pop\n        /* \"#utility.yul\":2635:2733   */\n      swap2\n      swap1\n      pop\n      jump\t// out\n        /* \"#utility.yul\":2739:2838   */\n    tag_70:\n        /* \"#utility.yul\":2791:2797   */\n      0x00\n        /* \"#utility.yul\":2825:2830   */\n      dup2\n        /* \"#utility.yul\":2819:2831   */\n      mload\n        /* \"#utility.yul\":2809:2831   */\n      swap1\n      pop\n        /* \"#utility.yul\":2739:2838   */\n      swap2\n      swap1\n      pop\n      jump\t// out\n        /* \"#utility.yul\":2844:3012   */\n    tag_62:\n        /* \"#utility.yul\":2927:2938   */\n      0x00\n        /* \"#utility.yul\":2961:2967   */\n      dup3\n        /* \"#utility.yul\":2956:2959   */\n      dup3\n        /* \"#utility.yul\":2949:2968   */\n      mstore\n        /* \"#utility.yul\":3001:3005   */\n      0x20\n        /* \"#utility.yul\":2996:2999   */\n      dup3\n        /* \"#utility.yul\":2992:3006   */\n      add\n        /* \"#utility.yul\":2977:3006   */\n      swap1\n      pop\n        /* \"#utility.yul\":2844:3012   */\n      swap3\n      swap2\n      pop\n      pop\n      jump\t// out\n        /* \"#utility.yul\":3018:3187   */\n    tag_72:\n        /* \"#utility.yul\":3102:3113   */\n      0x00\n        /* \"#utility.yul\":3136:3142   */\n      dup3\n        /* \"#utility.yul\":3131:3134   */\n      dup3\n        /* \"#utility.yul\":3124:3143   */\n      mstore\n        /* \"#utility.yul\":3176:3180   */\n      0x20\n        /* \"#utility.yul\":3171:3174   */\n      dup3\n        /* \"#utility.yul\":3167:3181   */\n      add\n        /* \"#utility.yul\":3152:3181   */\n      swap1\n      pop\n        /* \"#utility.yul\":3018:3187   */\n      swap3\n      swap2\n      pop\n      pop\n      jump\t// out\n        /* \"#utility.yul\":3193:3342   */\n    tag_56:\n        /* \"#utility.yul\":3229:3236   */\n      0x00\n        /* \"#utility.yul\":3269:3335   */\n      0xff00000000000000000000000000000000000000000000000000000000000000\n        /* \"#utility.yul\":3262:3267   */\n      dup3\n        /* \"#utility.yul\":3258:3336   */\n      and\n        /* \"#utility.yul\":3247:3336   */\n      swap1\n      pop\n        /* \"#utility.yul\":3193:3342   */\n      swap2\n      swap1\n      pop\n      jump\t// out\n        /* \"#utility.yul\":3348:3425   */\n    tag_78:\n        /* \"#utility.yul\":3385:3392   */\n      0x00\n        /* \"#utility.yul\":3414:3419   */\n      dup2\n        /* \"#utility.yul\":3403:3419   */\n      swap1\n      pop\n        /* \"#utility.yul\":3348:3425   */\n      swap2\n      swap1\n      pop\n      jump\t// out\n        /* \"#utility.yul\":3431:3738   */\n    tag_64:\n        /* \"#utility.yul\":3499:3500   */\n      0x00\n        /* \"#utility.yul\":3509:3622   */\n    tag_96:\n        /* \"#utility.yul\":3523:3529   */\n      dup4\n        /* \"#utility.yul\":3520:3521   */\n      dup2\n        /* \"#utility.yul\":3517:3530   */\n      lt\n        /* \"#utility.yul\":3509:3622   */\n      iszero\n      tag_98\n      jumpi\n        /* \"#utility.yul\":3608:3609   */\n      dup1\n        /* \"#utility.yul\":3603:3606   */\n      dup3\n        /* \"#utility.yul\":3599:3610   */\n      add\n        /* \"#utility.yul\":3593:3611   */\n      mload\n        /* \"#utility.yul\":3589:3590   */\n      dup2\n        /* \"#utility.yul\":3584:3587   */\n      dup5\n        /* \"#utility.yul\":3580:3591   */\n      add\n        /* \"#utility.yul\":3573:3612   */\n      mstore\n        /* \"#utility.yul\":3545:3547   */\n      0x20\n        /* \"#utility.yul\":3542:3543   */\n      dup2\n        /* \"#utility.yul\":3538:3548   */\n      add\n        /* \"#utility.yul\":3533:3548   */\n      swap1\n      pop\n        /* \"#utility.yul\":3509:3622   */\n      jump(tag_96)\n    tag_98:\n        /* \"#utility.yul\":3640:3646   */\n      dup4\n        /* \"#utility.yul\":3637:3638   */\n      dup2\n        /* \"#utility.yul\":3634:3647   */\n      gt\n        /* \"#utility.yul\":3631:3732   */\n      iszero\n      tag_99\n      jumpi\n        /* \"#utility.yul\":3720:3721   */\n      0x00\n        /* \"#utility.yul\":3711:3717   */\n      dup5\n        /* \"#utility.yul\":3706:3709   */\n      dup5\n        /* \"#utility.yul\":3702:3718   */\n      add\n        /* \"#utility.yul\":3695:3722   */\n      mstore\n        /* \"#utility.yul\":3631:3732   */\n    tag_99:\n        /* \"#utility.yul\":3480:3738   */\n      pop\n        /* \"#utility.yul\":3431:3738   */\n      pop\n      pop\n      pop\n      jump\t// out\n        /* \"#utility.yul\":3744:4064   */\n    tag_26:\n        /* \"#utility.yul\":3788:3794   */\n      0x00\n        /* \"#utility.yul\":3825:3826   */\n      0x02\n        /* \"#utility.yul\":3819:3823   */\n      dup3\n        /* \"#utility.yul\":3815:3827   */\n      div\n        /* \"#utility.yul\":3805:3827   */\n      swap1\n      pop\n        /* \"#utility.yul\":3872:3873   */\n      0x01\n        /* \"#utility.yul\":3866:3870   */\n      dup3\n        /* \"#utility.yul\":3862:3874   */\n      and\n        /* \"#utility.yul\":3893:3911   */\n      dup1\n        /* \"#utility.yul\":3883:3964   */\n      tag_101\n      jumpi\n        /* \"#utility.yul\":3949:3953   */\n      0x7f\n        /* \"#utility.yul\":3941:3947   */\n      dup3\n        /* \"#utility.yul\":3937:3954   */\n      and\n        /* \"#utility.yul\":3927:3954   */\n      swap2\n      pop\n        /* \"#utility.yul\":3883:3964   */\n    tag_101:\n        /* \"#utility.yul\":4011:4013   */\n      0x20\n        /* \"#utility.yul\":4003:4009   */\n      dup3\n        /* \"#utility.yul\":4000:4014   */\n      lt\n        /* \"#utility.yul\":3980:3998   */\n      dup2\n        /* \"#utility.yul\":3977:4015   */\n      eq\n        /* \"#utility.yul\":3974:4058   */\n      iszero\n      tag_102\n      jumpi\n        /* \"#utility.yul\":4030:4048   */\n      tag_103\n      tag_104\n      jump\t// in\n    tag_103:\n        /* \"#utility.yul\":3974:4058   */\n    tag_102:\n        /* \"#utility.yul\":3795:4064   */\n      pop\n        /* \"#utility.yul\":3744:4064   */\n      swap2\n      swap1\n      pop\n      jump\t// out\n        /* \"#utility.yul\":4070:4250   */\n    tag_104:\n        /* \"#utility.yul\":4118:4195   */\n      0x4e487b7100000000000000000000000000000000000000000000000000000000\n        /* \"#utility.yul\":4115:4116   */\n      0x00\n        /* \"#utility.yul\":4108:4196   */\n      mstore\n        /* \"#utility.yul\":4215:4219   */\n      0x22\n        /* \"#utility.yul\":4212:4213   */\n      0x04\n        /* \"#utility.yul\":4205:4220   */\n      mstore\n        /* \"#utility.yul\":4239:4243   */\n      0x24\n        /* \"#utility.yul\":4236:4237   */\n      0x00\n        /* \"#utility.yul\":4229:4244   */\n      revert\n        /* \"#utility.yul\":4379:4496   */\n    tag_51:\n        /* \"#utility.yul\":4488:4489   */\n      0x00\n        /* \"#utility.yul\":4485:4486   */\n      dup1\n        /* \"#utility.yul\":4478:4490   */\n      revert\n        /* \"#utility.yul\":4502:4604   */\n    tag_66:\n        /* \"#utility.yul\":4543:4549   */\n      0x00\n        /* \"#utility.yul\":4594:4596   */\n      0x1f\n        /* \"#utility.yul\":4590:4597   */\n      not\n        /* \"#utility.yul\":4585:4587   */\n      0x1f\n        /* \"#utility.yul\":4578:4583   */\n      dup4\n        /* \"#utility.yul\":4574:4588   */\n      add\n        /* \"#utility.yul\":4570:4598   */\n      and\n        /* \"#utility.yul\":4560:4598   */\n      swap1\n      pop\n        /* \"#utility.yul\":4502:4604   */\n      swap2\n      swap1\n      pop\n      jump\t// out\n        /* \"#utility.yul\":4610:4732   */\n    tag_47:\n        /* \"#utility.yul\":4683:4707   */\n      tag_111\n        /* \"#utility.yul\":4701:4706   */\n      dup2\n        /* \"#utility.yul\":4683:4707   */\n      tag_78\n      jump\t// in\n    tag_111:\n        /* \"#utility.yul\":4676:4681   */\n      dup2\n        /* \"#utility.yul\":4673:4708   */\n      eq\n        /* \"#utility.yul\":4663:4726   */\n      tag_112\n      jumpi\n        /* \"#utility.yul\":4722:4723   */\n      0x00\n        /* \"#utility.yul\":4719:4720   */\n      dup1\n        /* \"#utility.yul\":4712:4724   */\n      revert\n        /* \"#utility.yul\":4663:4726   */\n    tag_112:\n        /* \"#utility.yul\":4610:4732   */\n      pop\n      jump\t// out\n\n    auxdata: 0xa26469706673582212206bfbb4fa538555ee760b99fc5c03f4b08333f94e69cb66a52340bd9fcf7f962164736f6c63430008070033\n}\n",
				"bytecode": {
					"linkReferences": {},
					"object": "608060405234801561001057600080fd5b5061058f806100206000396000f3fe608060405234801561001057600080fd5b506004361061004c5760003560e01c80634df7e3d01461005157806354353f2f1461006f57806386b714e21461008d578063aa228b75146100ab575b600080fd5b6100596100db565b60405161006691906103cb565b60405180910390f35b610077610169565b60405161008491906103b0565b60405180910390f35b61009561022c565b6040516100a291906103ed565b60405180910390f35b6100c560048036038101906100c091906102f3565b6102ba565b6040516100d2919061040f565b60405180910390f35b600080546100e8906104cb565b80601f0160208091040260200160405190810160405280929190818152602001828054610114906104cb565b80156101615780601f1061013657610100808354040283529160200191610161565b820191906000526020600020905b81548152906001019060200180831161014457829003601f168201915b505050505081565b60007f3200000000000000000000000000000000000000000000000000000000000000600060018180548061019d906104cb565b80601f81146101ab576101c1565b83600052602060002060ff1984168155603f9350505b506002820183556001810192505050038154600116156101f05790600052602060002090602091828204019190065b601f036101000a81548160ff021916907f0100000000000000000000000000000000000000000000000000000000000000840402179055905090565b60018054610239906104cb565b80601f0160208091040260200160405190810160405280929190818152602001828054610265906104cb565b80156102b25780601f10610287576101008083540402835291602001916102b2565b820191906000526020600020905b81548152906001019060200180831161029557829003601f168201915b505050505081565b600281815481106102ca57600080fd5b906000526020600020016000915090505481565b6000813590506102ed81610542565b92915050565b6000602082840312156103095761030861052c565b5b6000610317848285016102de565b91505092915050565b61032981610462565b82525050565b600061033a8261042a565b6103448185610440565b9350610354818560208601610498565b61035d81610531565b840191505092915050565b600061037382610435565b61037d8185610451565b935061038d818560208601610498565b61039681610531565b840191505092915050565b6103aa8161048e565b82525050565b60006020820190506103c56000830184610320565b92915050565b600060208201905081810360008301526103e5818461032f565b905092915050565b600060208201905081810360008301526104078184610368565b905092915050565b600060208201905061042460008301846103a1565b92915050565b600081519050919050565b600081519050919050565b600082825260208201905092915050565b600082825260208201905092915050565b60007fff0000000000000000000000000000000000000000000000000000000000000082169050919050565b6000819050919050565b60005b838110156104b657808201518184015260208101905061049b565b838111156104c5576000848401525b50505050565b600060028204905060018216806104e357607f821691505b602082108114156104f7576104f66104fd565b5b50919050565b7f4e487b7100000000000000000000000000000000000000000000000000000000600052602260045260246000fd5b600080fd5b6000601f19601f8301169050919050565b61054b8161048e565b811461055657600080fd5b5056fea26469706673582212206bfbb4fa538555ee760b99fc5c03f4b08333f94e69cb66a52340bd9fcf7f962164736f6c63430008070033",
					"opcodes": "PUSH1 0x80 PUSH1 0x40 MSTORE CALLVALUE DUP1 ISZERO PUSH2 0x10 JUMPI PUSH1 0x0 DUP1 REVERT JUMPDEST POP PUSH2 0x58F DUP1 PUSH2 0x20 PUSH1 0x0 CODECOPY PUSH1 0x0 RETURN INVALID PUSH1 0x80 PUSH1 0x40 MSTORE CALLVALUE DUP1 ISZERO PUSH2 0x10 JUMPI PUSH1 0x0 DUP1 REVERT JUMPDEST POP PUSH1 0x4 CALLDATASIZE LT PUSH2 0x4C JUMPI PUSH1 0x0 CALLDATALOAD PUSH1 0xE0 SHR DUP1 PUSH4 0x4DF7E3D0 EQ PUSH2 0x51 JUMPI DUP1 PUSH4 0x54353F2F EQ PUSH2 0x6F JUMPI DUP1 PUSH4 0x86B714E2 EQ PUSH2 0x8D JUMPI DUP1 PUSH4 0xAA228B75 EQ PUSH2 0xAB JUMPI JUMPDEST PUSH1 0x0 DUP1 REVERT JUMPDEST PUSH2 0x59 PUSH2 0xDB JUMP JUMPDEST PUSH1 0x40 MLOAD PUSH2 0x66 SWAP2 SWAP1 PUSH2 0x3CB JUMP JUMPDEST PUSH1 0x40 MLOAD DUP1 SWAP2 SUB SWAP1 RETURN JUMPDEST PUSH2 0x77 PUSH2 0x169 JUMP JUMPDEST PUSH1 0x40 MLOAD PUSH2 0x84 SWAP2 SWAP1 PUSH2 0x3B0 JUMP JUMPDEST PUSH1 0x40 MLOAD DUP1 SWAP2 SUB SWAP1 RETURN JUMPDEST PUSH2 0x95 PUSH2 0x22C JUMP JUMPDEST PUSH1 0x40 MLOAD PUSH2 0xA2 SWAP2 SWAP1 PUSH2 0x3ED JUMP JUMPDEST PUSH1 0x40 MLOAD DUP1 SWAP2 SUB SWAP1 RETURN JUMPDEST PUSH2 0xC5 PUSH1 0x4 DUP1 CALLDATASIZE SUB DUP2 ADD SWAP1 PUSH2 0xC0 SWAP2 SWAP1 PUSH2 0x2F3 JUMP JUMPDEST PUSH2 0x2BA JUMP JUMPDEST PUSH1 0x40 MLOAD PUSH2 0xD2 SWAP2 SWAP1 PUSH2 0x40F JUMP JUMPDEST PUSH1 0x40 MLOAD DUP1 SWAP2 SUB SWAP1 RETURN JUMPDEST PUSH1 0x0 DUP1 SLOAD PUSH2 0xE8 SWAP1 PUSH2 0x4CB JUMP JUMPDEST DUP1 PUSH1 0x1F ADD PUSH1 0x20 DUP1 SWAP2 DIV MUL PUSH1 0x20 ADD PUSH1 0x40 MLOAD SWAP1 DUP2 ADD PUSH1 0x40 MSTORE DUP1 SWAP3 SWAP2 SWAP1 DUP2 DUP2 MSTORE PUSH1 0x20 ADD DUP3 DUP1 SLOAD PUSH2 0x114 SWAP1 PUSH2 0x4CB JUMP JUMPDEST DUP1 ISZERO PUSH2 0x161 JUMPI DUP1 PUSH1 0x1F LT PUSH2 0x136 JUMPI PUSH2 0x100 DUP1 DUP4 SLOAD DIV MUL DUP4 MSTORE SWAP2 PUSH1 0x20 ADD SWAP2 PUSH2 0x161 JUMP JUMPDEST DUP3 ADD SWAP2 SWAP1 PUSH1 0x0 MSTORE PUSH1 0x20 PUSH1 0x0 KECCAK256 SWAP1 JUMPDEST DUP2 SLOAD DUP2 MSTORE SWAP1 PUSH1 0x1 ADD SWAP1 PUSH1 0x20 ADD DUP1 DUP4 GT PUSH2 0x144 JUMPI DUP3 SWAP1 SUB PUSH1 0x1F AND DUP3 ADD SWAP2 JUMPDEST POP POP POP POP POP DUP2 JUMP JUMPDEST PUSH1 0x0 PUSH32 0x3200000000000000000000000000000000000000000000000000000000000000 PUSH1 0x0 PUSH1 0x1 DUP2 DUP1 SLOAD DUP1 PUSH2 0x19D SWAP1 PUSH2 0x4CB JUMP JUMPDEST DUP1 PUSH1 0x1F DUP2 EQ PUSH2 0x1AB JUMPI PUSH2 0x1C1 JUMP JUMPDEST DUP4 PUSH1 0x0 MSTORE PUSH1 0x20 PUSH1 0x0 KECCAK256 PUSH1 0xFF NOT DUP5 AND DUP2 SSTORE PUSH1 0x3F SWAP4 POP POP JUMPDEST POP PUSH1 0x2 DUP3 ADD DUP4 SSTORE PUSH1 0x1 DUP2 ADD SWAP3 POP POP POP SUB DUP2 SLOAD PUSH1 0x1 AND ISZERO PUSH2 0x1F0 JUMPI SWAP1 PUSH1 0x0 MSTORE PUSH1 0x20 PUSH1 0x0 KECCAK256 SWAP1 PUSH1 0x20 SWAP2 DUP3 DUP3 DIV ADD SWAP2 SWAP1 MOD JUMPDEST PUSH1 0x1F SUB PUSH2 0x100 EXP DUP2 SLOAD DUP2 PUSH1 0xFF MUL NOT AND SWAP1 PUSH32 0x100000000000000000000000000000000000000000000000000000000000000 DUP5 DIV MUL OR SWAP1 SSTORE SWAP1 POP SWAP1 JUMP JUMPDEST PUSH1 0x1 DUP1 SLOAD PUSH2 0x239 SWAP1 PUSH2 0x4CB JUMP JUMPDEST DUP1 PUSH1 0x1F ADD PUSH1 0x20 DUP1 SWAP2 DIV MUL PUSH1 0x20 ADD PUSH1 0x40 MLOAD SWAP1 DUP2 ADD PUSH1 0x40 MSTORE DUP1 SWAP3 SWAP2 SWAP1 DUP2 DUP2 MSTORE PUSH1 0x20 ADD DUP3 DUP1 SLOAD PUSH2 0x265 SWAP1 PUSH2 0x4CB JUMP JUMPDEST DUP1 ISZERO PUSH2 0x2B2 JUMPI DUP1 PUSH1 0x1F LT PUSH2 0x287 JUMPI PUSH2 0x100 DUP1 DUP4 SLOAD DIV MUL DUP4 MSTORE SWAP2 PUSH1 0x20 ADD SWAP2 PUSH2 0x2B2 JUMP JUMPDEST DUP3 ADD SWAP2 SWAP1 PUSH1 0x0 MSTORE PUSH1 0x20 PUSH1 0x0 KECCAK256 SWAP1 JUMPDEST DUP2 SLOAD DUP2 MSTORE SWAP1 PUSH1 0x1 ADD SWAP1 PUSH1 0x20 ADD DUP1 DUP4 GT PUSH2 0x295 JUMPI DUP3 SWAP1 SUB PUSH1 0x1F AND DUP3 ADD SWAP2 JUMPDEST POP POP POP POP POP DUP2 JUMP JUMPDEST PUSH1 0x2 DUP2 DUP2 SLOAD DUP2 LT PUSH2 0x2CA JUMPI PUSH1 0x0 DUP1 REVERT JUMPDEST SWAP1 PUSH1 0x0 MSTORE PUSH1 0x20 PUSH1 0x0 KECCAK256 ADD PUSH1 0x0 SWAP2 POP SWAP1 POP SLOAD DUP2 JUMP JUMPDEST PUSH1 0x0 DUP2 CALLDATALOAD SWAP1 POP PUSH2 0x2ED DUP2 PUSH2 0x542 JUMP JUMPDEST SWAP3 SWAP2 POP POP JUMP JUMPDEST PUSH1 0x0 PUSH1 0x20 DUP3 DUP5 SUB SLT ISZERO PUSH2 0x309 JUMPI PUSH2 0x308 PUSH2 0x52C JUMP JUMPDEST JUMPDEST PUSH1 0x0 PUSH2 0x317 DUP5 DUP3 DUP6 ADD PUSH2 0x2DE JUMP JUMPDEST SWAP2 POP POP SWAP3 SWAP2 POP POP JUMP JUMPDEST PUSH2 0x329 DUP2 PUSH2 0x462 JUMP JUMPDEST DUP3 MSTORE POP POP JUMP JUMPDEST PUSH1 0x0 PUSH2 0x33A DUP3 PUSH2 0x42A JUMP JUMPDEST PUSH2 0x344 DUP2 DUP6 PUSH2 0x440 JUMP JUMPDEST SWAP4 POP PUSH2 0x354 DUP2 DUP6 PUSH1 0x20 DUP7 ADD PUSH2 0x498 JUMP JUMPDEST PUSH2 0x35D DUP2 PUSH2 0x531 JUMP JUMPDEST DUP5 ADD SWAP2 POP POP SWAP3 SWAP2 POP POP JUMP JUMPDEST PUSH1 0x0 PUSH2 0x373 DUP3 PUSH2 0x435 JUMP JUMPDEST PUSH2 0x37D DUP2 DUP6 PUSH2 0x451 JUMP JUMPDEST SWAP4 POP PUSH2 0x38D DUP2 DUP6 PUSH1 0x20 DUP7 ADD PUSH2 0x498 JUMP JUMPDEST PUSH2 0x396 DUP2 PUSH2 0x531 JUMP JUMPDEST DUP5 ADD SWAP2 POP POP SWAP3 SWAP2 POP POP JUMP JUMPDEST PUSH2 0x3AA DUP2 PUSH2 0x48E JUMP JUMPDEST DUP3 MSTORE POP POP JUMP JUMPDEST PUSH1 0x0 PUSH1 0x20 DUP3 ADD SWAP1 POP PUSH2 0x3C5 PUSH1 0x0 DUP4 ADD DUP5 PUSH2 0x320 JUMP JUMPDEST SWAP3 SWAP2 POP POP JUMP JUMPDEST PUSH1 0x0 PUSH1 0x20 DUP3 ADD SWAP1 POP DUP2 DUP2 SUB PUSH1 0x0 DUP4 ADD MSTORE PUSH2 0x3E5 DUP2 DUP5 PUSH2 0x32F JUMP JUMPDEST SWAP1 POP SWAP3 SWAP2 POP POP JUMP JUMPDEST PUSH1 0x0 PUSH1 0x20 DUP3 ADD SWAP1 POP DUP2 DUP2 SUB PUSH1 0x0 DUP4 ADD MSTORE PUSH2 0x407 DUP2 DUP5 PUSH2 0x368 JUMP JUMPDEST SWAP1 POP SWAP3 SWAP2 POP POP JUMP JUMPDEST PUSH1 0x0 PUSH1 0x20 DUP3 ADD SWAP1 POP PUSH2 0x424 PUSH1 0x0 DUP4 ADD DUP5 PUSH2 0x3A1 JUMP JUMPDEST SWAP3 SWAP2 POP POP JUMP JUMPDEST PUSH1 0x0 DUP2 MLOAD SWAP1 POP SWAP2 SWAP1 POP JUMP JUMPDEST PUSH1 0x0 DUP2 MLOAD SWAP1 POP SWAP2 SWAP1 POP JUMP JUMPDEST PUSH1 0x0 DUP3 DUP3 MSTORE PUSH1 0x20 DUP3 ADD SWAP1 POP SWAP3 SWAP2 POP POP JUMP JUMPDEST PUSH1 0x0 DUP3 DUP3 MSTORE PUSH1 0x20 DUP3 ADD SWAP1 POP SWAP3 SWAP2 POP POP JUMP JUMPDEST PUSH1 0x0 PUSH32 0xFF00000000000000000000000000000000000000000000000000000000000000 DUP3 AND SWAP1 POP SWAP2 SWAP1 POP JUMP JUMPDEST PUSH1 0x0 DUP2 SWAP1 POP SWAP2 SWAP1 POP JUMP JUMPDEST PUSH1 0x0 JUMPDEST DUP4 DUP2 LT ISZERO PUSH2 0x4B6 JUMPI DUP1 DUP3 ADD MLOAD DUP2 DUP5 ADD MSTORE PUSH1 0x20 DUP2 ADD SWAP1 POP PUSH2 0x49B JUMP JUMPDEST DUP4 DUP2 GT ISZERO PUSH2 0x4C5 JUMPI PUSH1 0x0 DUP5 DUP5 ADD MSTORE JUMPDEST POP POP POP POP JUMP JUMPDEST PUSH1 0x0 PUSH1 0x2 DUP3 DIV SWAP1 POP PUSH1 0x1 DUP3 AND DUP1 PUSH2 0x4E3 JUMPI PUSH1 0x7F DUP3 AND SWAP2 POP JUMPDEST PUSH1 0x20 DUP3 LT DUP2 EQ ISZERO PUSH2 0x4F7 JUMPI PUSH2 0x4F6 PUSH2 0x4FD JUMP JUMPDEST JUMPDEST POP SWAP2 SWAP1 POP JUMP JUMPDEST PUSH32 0x4E487B7100000000000000000000000000000000000000000000000000000000 PUSH1 0x0 MSTORE PUSH1 0x22 PUSH1 0x4 MSTORE PUSH1 0x24 PUSH1 0x0 REVERT JUMPDEST PUSH1 0x0 DUP1 REVERT JUMPDEST PUSH1 0x0 PUSH1 0x1F NOT PUSH1 0x1F DUP4 ADD AND SWAP1 POP SWAP2 SWAP1 POP JUMP JUMPDEST PUSH2 0x54B DUP2 PUSH2 0x48E JUMP JUMPDEST DUP2 EQ PUSH2 0x556 JUMPI PUSH1 0x0 DUP1 REVERT JUMPDEST POP JUMP INVALID LOG2 PUSH5 0x6970667358 0x22 SLT KECCAK256 PUSH12 0xFBB4FA538555EE760B99FC5C SUB DELEGATECALL 0xB0 DUP4 CALLER 0xF9 0x4E PUSH10 0xCB66A52340BD9FCF7F96 0x21 PUSH5 0x736F6C6343 STOP ADDMOD SMOD STOP CALLER "
				},
				"gasEstimates": {
					"creation": {
						"codeDepositCost": "284600",
						"executionCost": "324",
						"totalCost": "284924"
					},
					"external": {
						"b()": "infinite",
						"example()": "74999",
						"num(uint256)": "infinite",
						"s()": "infinite"
					}
				},
				"methodIdentifiers": {
					"b()": "4df7e3d0",
					"example()": "54353f2f",
					"num(uint256)": "aa228b75",
					"s()": "86b714e2"
				}
			},
			"storageLayout": {
				"storage": [
					{
						"astId": 3,
						"contract": "study/chapter07/bytesAndString.sol:testBS",
						"label": "b",
						"offset": 0,
						"slot": "0",
						"type": "t_bytes_storage"
					},
					{
						"astId": 5,
						"contract": "study/chapter07/bytesAndString.sol:testBS",
						"label": "s",
						"offset": 0,
						"slot": "1",
						"type": "t_string_storage"
					},
					{
						"astId": 8,
						"contract": "study/chapter07/bytesAndString.sol:testBS",
						"label": "num",
						"offset": 0,
						"slot": "2",
						"type": "t_array(t_uint256)dyn_storage"
					}
				],
				"types": {
					"t_array(t_uint256)dyn_storage": {
						"base": "t_uint256",
						"encoding": "dynamic_array",
						"label": "uint256[]",
						"numberOfBytes": "32"
					},
					"t_bytes_storage": {
						"encoding": "bytes",
						"label": "bytes",
						"numberOfBytes": "32"
					},
					"t_string_storage": {
						"encoding": "bytes",
						"label": "string",
						"numberOfBytes": "32"
					},
					"t_uint256": {
						"encoding": "inplace",
						"label": "uint256",
						"numberOfBytes": "32"
					}
				}
			},
			"userdoc": {
				"kind": "user",
				"methods": {},
				"version": 1
			}
		}
	}
}