{
	"study/chapter07/stirngOpt.sol": {
		"Hello": {
			"abi": [
				{
					"inputs": [],
					"name": "equal",
					"outputs": [
						{
							"internalType": "bool",
							"name": "",
							"type": "bool"
						}
					],
					"stateMutability": "view",
					"type": "function"
				},
				{
					"inputs": [],
					"name": "greet",
					"outputs": [
						{
							"internalType": "string",
							"name": "",
							"type": "string"
						}
					],
					"stateMutability": "view",
					"type": "function"
				},
				{
					"inputs": [],
					"name": "isEqual",
					"outputs": [
						{
							"internalType": "bool",
							"name": "",
							"type": "bool"
						}
					],
					"stateMutability": "nonpayable",
					"type": "function"
				},
				{
					"inputs": [],
					"name": "s",
					"outputs": [
						{
							"internalType": "string",
							"name": "",
							"type": "string"
						}
					],
					"stateMutability": "view",
					"type": "function"
				},
				{
					"inputs": [],
					"name": "s1",
					"outputs": [
						{
							"internalType": "string",
							"name": "",
							"type": "string"
						}
					],
					"stateMutability": "view",
					"type": "function"
				},
				{
					"inputs": [
						{
							"internalType": "string",
							"name": "a",
							"type": "string"
						}
					],
					"name": "str",
					"outputs": [
						{
							"internalType": "string",
							"name": "",
							"type": "string"
						}
					],
					"stateMutability": "view",
					"type": "function"
				}
			],
			"devdoc": {
				"kind": "dev",
				"methods": {},
				"version": 1
			},
			"evm": {
				"assembly": "    /* \"study/chapter07/stirngOpt.sol\":56:497  contract Hello {... */\n  mstore(0x40, 0x80)\n    /* \"study/chapter07/stirngOpt.sol\":77:108  string public greet = \"Hello, \" */\n  mload(0x40)\n  dup1\n  0x40\n  add\n  0x40\n  mstore\n  dup1\n  0x07\n  dup2\n  mstore\n  0x20\n  add\n  0x48656c6c6f2c2000000000000000000000000000000000000000000000000000\n  dup2\n  mstore\n  pop\n  0x00\n  swap1\n  dup1\n  mload\n  swap1\n  0x20\n  add\n  swap1\n  tag_1\n  swap3\n  swap2\n  swap1\n  tag_2\n  jump\t// in\ntag_1:\n  pop\n    /* \"study/chapter07/stirngOpt.sol\":254:275  string public s = \"A\" */\n  mload(0x40)\n  dup1\n  0x40\n  add\n  0x40\n  mstore\n  dup1\n  0x01\n  dup2\n  mstore\n  0x20\n  add\n  0x4100000000000000000000000000000000000000000000000000000000000000\n  dup2\n  mstore\n  pop\n  0x01\n  swap1\n  dup1\n  mload\n  swap1\n  0x20\n  add\n  swap1\n  tag_3\n  swap3\n  swap2\n  swap1\n  tag_2\n  jump\t// in\ntag_3:\n  pop\n    /* \"study/chapter07/stirngOpt.sol\":281:303  string public s1 = \"B\" */\n  mload(0x40)\n  dup1\n  0x40\n  add\n  0x40\n  mstore\n  dup1\n  0x01\n  dup2\n  mstore\n  0x20\n  add\n  0x4200000000000000000000000000000000000000000000000000000000000000\n  dup2\n  mstore\n  pop\n  0x02\n  swap1\n  dup1\n  mload\n  swap1\n  0x20\n  add\n  swap1\n  tag_4\n  swap3\n  swap2\n  swap1\n  tag_2\n  jump\t// in\ntag_4:\n  pop\n    /* \"study/chapter07/stirngOpt.sol\":56:497  contract Hello {... */\n  callvalue\n  dup1\n  iszero\n  tag_5\n  jumpi\n  0x00\n  dup1\n  revert\ntag_5:\n  pop\n  jump(tag_6)\ntag_2:\n  dup3\n  dup1\n  sload\n  tag_7\n  swap1\n  tag_8\n  jump\t// in\ntag_7:\n  swap1\n  0x00\n  mstore\n  keccak256(0x00, 0x20)\n  swap1\n  0x1f\n  add\n  0x20\n  swap1\n  div\n  dup2\n  add\n  swap3\n  dup3\n  tag_10\n  jumpi\n  0x00\n  dup6\n  sstore\n  jump(tag_9)\ntag_10:\n  dup3\n  0x1f\n  lt\n  tag_11\n  jumpi\n  dup1\n  mload\n  not(0xff)\n  and\n  dup4\n  dup1\n  add\n  or\n  dup6\n  sstore\n  jump(tag_9)\ntag_11:\n  dup3\n  dup1\n  add\n  0x01\n  add\n  dup6\n  sstore\n  dup3\n  iszero\n  tag_9\n  jumpi\n  swap2\n  dup3\n  add\ntag_12:\n  dup3\n  dup2\n  gt\n  iszero\n  tag_13\n  jumpi\n  dup3\n  mload\n  dup3\n  sstore\n  swap2\n  0x20\n  add\n  swap2\n  swap1\n  0x01\n  add\n  swap1\n  jump(tag_12)\ntag_13:\ntag_9:\n  pop\n  swap1\n  pop\n  tag_14\n  swap2\n  swap1\n  tag_15\n  jump\t// in\ntag_14:\n  pop\n  swap1\n  jump\t// out\ntag_15:\ntag_16:\n  dup1\n  dup3\n  gt\n  iszero\n  tag_17\n  jumpi\n  0x00\n  dup2\n  0x00\n  swap1\n  sstore\n  pop\n  0x01\n  add\n  jump(tag_16)\ntag_17:\n  pop\n  swap1\n  jump\t// out\n    /* \"#utility.yul\":7:327   */\ntag_8:\n    /* \"#utility.yul\":51:57   */\n  0x00\n    /* \"#utility.yul\":88:89   */\n  0x02\n    /* \"#utility.yul\":82:86   */\n  dup3\n    /* \"#utility.yul\":78:90   */\n  div\n    /* \"#utility.yul\":68:90   */\n  swap1\n  pop\n    /* \"#utility.yul\":135:136   */\n  0x01\n    /* \"#utility.yul\":129:133   */\n  dup3\n    /* \"#utility.yul\":125:137   */\n  and\n    /* \"#utility.yul\":156:174   */\n  dup1\n    /* \"#utility.yul\":146:227   */\n  tag_20\n  jumpi\n    /* \"#utility.yul\":212:216   */\n  0x7f\n    /* \"#utility.yul\":204:210   */\n  dup3\n    /* \"#utility.yul\":200:217   */\n  and\n    /* \"#utility.yul\":190:217   */\n  swap2\n  pop\n    /* \"#utility.yul\":146:227   */\ntag_20:\n    /* \"#utility.yul\":274:276   */\n  0x20\n    /* \"#utility.yul\":266:272   */\n  dup3\n    /* \"#utility.yul\":263:277   */\n  lt\n    /* \"#utility.yul\":243:261   */\n  dup2\n    /* \"#utility.yul\":240:278   */\n  eq\n    /* \"#utility.yul\":237:321   */\n  iszero\n  tag_21\n  jumpi\n    /* \"#utility.yul\":293:311   */\n  tag_22\n  tag_23\n  jump\t// in\ntag_22:\n    /* \"#utility.yul\":237:321   */\ntag_21:\n    /* \"#utility.yul\":58:327   */\n  pop\n    /* \"#utility.yul\":7:327   */\n  swap2\n  swap1\n  pop\n  jump\t// out\n    /* \"#utility.yul\":333:513   */\ntag_23:\n    /* \"#utility.yul\":381:458   */\n  0x4e487b7100000000000000000000000000000000000000000000000000000000\n    /* \"#utility.yul\":378:379   */\n  0x00\n    /* \"#utility.yul\":371:459   */\n  mstore\n    /* \"#utility.yul\":478:482   */\n  0x22\n    /* \"#utility.yul\":475:476   */\n  0x04\n    /* \"#utility.yul\":468:483   */\n  mstore\n    /* \"#utility.yul\":502:506   */\n  0x24\n    /* \"#utility.yul\":499:500   */\n  0x00\n    /* \"#utility.yul\":492:507   */\n  revert\n    /* \"study/chapter07/stirngOpt.sol\":56:497  contract Hello {... */\ntag_6:\n  dataSize(sub_0)\n  dup1\n  dataOffset(sub_0)\n  0x00\n  codecopy\n  0x00\n  return\nstop\n\nsub_0: assembly {\n        /* \"study/chapter07/stirngOpt.sol\":56:497  contract Hello {... */\n      mstore(0x40, 0x80)\n      callvalue\n      dup1\n      iszero\n      tag_1\n      jumpi\n      0x00\n      dup1\n      revert\n    tag_1:\n      pop\n      jumpi(tag_2, lt(calldatasize, 0x04))\n      shr(0xe0, calldataload(0x00))\n      dup1\n      0x09fca94f\n      eq\n      tag_3\n      jumpi\n      dup1\n      0x1e228514\n      eq\n      tag_4\n      jumpi\n      dup1\n      0x6cc014de\n      eq\n      tag_5\n      jumpi\n      dup1\n      0x86b714e2\n      eq\n      tag_6\n      jumpi\n      dup1\n      0xacbe8452\n      eq\n      tag_7\n      jumpi\n      dup1\n      0xcfae3217\n      eq\n      tag_8\n      jumpi\n    tag_2:\n      0x00\n      dup1\n      revert\n        /* \"study/chapter07/stirngOpt.sol\":114:249  function str(string calldata a) public view  returns (string memory){... */\n    tag_3:\n      tag_9\n      0x04\n      dup1\n      calldatasize\n      sub\n      dup2\n      add\n      swap1\n      tag_10\n      swap2\n      swap1\n      tag_11\n      jump\t// in\n    tag_10:\n      tag_12\n      jump\t// in\n    tag_9:\n      mload(0x40)\n      tag_13\n      swap2\n      swap1\n      tag_14\n      jump\t// in\n    tag_13:\n      mload(0x40)\n      dup1\n      swap2\n      sub\n      swap1\n      return\n        /* \"study/chapter07/stirngOpt.sol\":310:327  bool public equal */\n    tag_4:\n      tag_15\n      tag_16\n      jump\t// in\n    tag_15:\n      mload(0x40)\n      tag_17\n      swap2\n      swap1\n      tag_18\n      jump\t// in\n    tag_17:\n      mload(0x40)\n      dup1\n      swap2\n      sub\n      swap1\n      return\n        /* \"study/chapter07/stirngOpt.sol\":281:303  string public s1 = \"B\" */\n    tag_5:\n      tag_19\n      tag_20\n      jump\t// in\n    tag_19:\n      mload(0x40)\n      tag_21\n      swap2\n      swap1\n      tag_14\n      jump\t// in\n    tag_21:\n      mload(0x40)\n      dup1\n      swap2\n      sub\n      swap1\n      return\n        /* \"study/chapter07/stirngOpt.sol\":254:275  string public s = \"A\" */\n    tag_6:\n      tag_22\n      tag_23\n      jump\t// in\n    tag_22:\n      mload(0x40)\n      tag_24\n      swap2\n      swap1\n      tag_14\n      jump\t// in\n    tag_24:\n      mload(0x40)\n      dup1\n      swap2\n      sub\n      swap1\n      return\n        /* \"study/chapter07/stirngOpt.sol\":333:495  function isEqual()external returns(bool){... */\n    tag_7:\n      tag_25\n      tag_26\n      jump\t// in\n    tag_25:\n      mload(0x40)\n      tag_27\n      swap2\n      swap1\n      tag_18\n      jump\t// in\n    tag_27:\n      mload(0x40)\n      dup1\n      swap2\n      sub\n      swap1\n      return\n        /* \"study/chapter07/stirngOpt.sol\":77:108  string public greet = \"Hello, \" */\n    tag_8:\n      tag_28\n      tag_29\n      jump\t// in\n    tag_28:\n      mload(0x40)\n      tag_30\n      swap2\n      swap1\n      tag_14\n      jump\t// in\n    tag_30:\n      mload(0x40)\n      dup1\n      swap2\n      sub\n      swap1\n      return\n        /* \"study/chapter07/stirngOpt.sol\":114:249  function str(string calldata a) public view  returns (string memory){... */\n    tag_12:\n        /* \"study/chapter07/stirngOpt.sol\":168:181  string memory */\n      0x60\n        /* \"study/chapter07/stirngOpt.sol\":225:230  greet */\n      0x00\n        /* \"study/chapter07/stirngOpt.sol\":238:239  a */\n      dup4\n      dup4\n        /* \"study/chapter07/stirngOpt.sol\":206:241  bytes.concat(bytes(greet),bytes(a)) */\n      add(0x20, mload(0x40))\n      tag_32\n      swap4\n      swap3\n      swap2\n      swap1\n      tag_33\n      jump\t// in\n    tag_32:\n      mload(0x40)\n      0x20\n      dup2\n      dup4\n      sub\n      sub\n      dup2\n      mstore\n      swap1\n      0x40\n      mstore\n        /* \"study/chapter07/stirngOpt.sol\":192:242  return string(bytes.concat(bytes(greet),bytes(a))) */\n      swap1\n      pop\n        /* \"study/chapter07/stirngOpt.sol\":114:249  function str(string calldata a) public view  returns (string memory){... */\n      swap3\n      swap2\n      pop\n      pop\n      jump\t// out\n        /* \"study/chapter07/stirngOpt.sol\":310:327  bool public equal */\n    tag_16:\n      0x03\n      0x00\n      swap1\n      sload\n      swap1\n      0x0100\n      exp\n      swap1\n      div\n      0xff\n      and\n      dup2\n      jump\t// out\n        /* \"study/chapter07/stirngOpt.sol\":281:303  string public s1 = \"B\" */\n    tag_20:\n      0x02\n      dup1\n      sload\n      tag_34\n      swap1\n      tag_35\n      jump\t// in\n    tag_34:\n      dup1\n      0x1f\n      add\n      0x20\n      dup1\n      swap2\n      div\n      mul\n      0x20\n      add\n      mload(0x40)\n      swap1\n      dup2\n      add\n      0x40\n      mstore\n      dup1\n      swap3\n      swap2\n      swap1\n      dup2\n      dup2\n      mstore\n      0x20\n      add\n      dup3\n      dup1\n      sload\n      tag_36\n      swap1\n      tag_35\n      jump\t// in\n    tag_36:\n      dup1\n      iszero\n      tag_37\n      jumpi\n      dup1\n      0x1f\n      lt\n      tag_38\n      jumpi\n      0x0100\n      dup1\n      dup4\n      sload\n      div\n      mul\n      dup4\n      mstore\n      swap2\n      0x20\n      add\n      swap2\n      jump(tag_37)\n    tag_38:\n      dup3\n      add\n      swap2\n      swap1\n      0x00\n      mstore\n      keccak256(0x00, 0x20)\n      swap1\n    tag_39:\n      dup2\n      sload\n      dup2\n      mstore\n      swap1\n      0x01\n      add\n      swap1\n      0x20\n      add\n      dup1\n      dup4\n      gt\n      tag_39\n      jumpi\n      dup3\n      swap1\n      sub\n      0x1f\n      and\n      dup3\n      add\n      swap2\n    tag_37:\n      pop\n      pop\n      pop\n      pop\n      pop\n      dup2\n      jump\t// out\n        /* \"study/chapter07/stirngOpt.sol\":254:275  string public s = \"A\" */\n    tag_23:\n      0x01\n      dup1\n      sload\n      tag_40\n      swap1\n      tag_35\n      jump\t// in\n    tag_40:\n      dup1\n      0x1f\n      add\n      0x20\n      dup1\n      swap2\n      div\n      mul\n      0x20\n      add\n      mload(0x40)\n      swap1\n      dup2\n      add\n      0x40\n      mstore\n      dup1\n      swap3\n      swap2\n      swap1\n      dup2\n      dup2\n      mstore\n      0x20\n      add\n      dup3\n      dup1\n      sload\n      tag_41\n      swap1\n      tag_35\n      jump\t// in\n    tag_41:\n      dup1\n      iszero\n      tag_42\n      jumpi\n      dup1\n      0x1f\n      lt\n      tag_43\n      jumpi\n      0x0100\n      dup1\n      dup4\n      sload\n      div\n      mul\n      dup4\n      mstore\n      swap2\n      0x20\n      add\n      swap2\n      jump(tag_42)\n    tag_43:\n      dup3\n      add\n      swap2\n      swap1\n      0x00\n      mstore\n      keccak256(0x00, 0x20)\n      swap1\n    tag_44:\n      dup2\n      sload\n      dup2\n      mstore\n      swap1\n      0x01\n      add\n      swap1\n      0x20\n      add\n      dup1\n      dup4\n      gt\n      tag_44\n      jumpi\n      dup3\n      swap1\n      sub\n      0x1f\n      and\n      dup3\n      add\n      swap2\n    tag_42:\n      pop\n      pop\n      pop\n      pop\n      pop\n      dup2\n      jump\t// out\n        /* \"study/chapter07/stirngOpt.sol\":333:495  function isEqual()external returns(bool){... */\n    tag_26:\n        /* \"study/chapter07/stirngOpt.sol\":368:372  bool */\n      0x00\n        /* \"study/chapter07/stirngOpt.sol\":383:394  bytes32  b1 */\n      dup1\n        /* \"study/chapter07/stirngOpt.sol\":424:425  s */\n      0x01\n        /* \"study/chapter07/stirngOpt.sol\":407:426  abi.encodePacked(s) */\n      add(0x20, mload(0x40))\n      tag_46\n      swap2\n      swap1\n      tag_47\n      jump\t// in\n    tag_46:\n      mload(0x40)\n      0x20\n      dup2\n      dup4\n      sub\n      sub\n      dup2\n      mstore\n      swap1\n      0x40\n      mstore\n        /* \"study/chapter07/stirngOpt.sol\":397:427  keccak256(abi.encodePacked(s)) */\n      dup1\n      mload\n      swap1\n      0x20\n      add\n      keccak256\n        /* \"study/chapter07/stirngOpt.sol\":383:427  bytes32  b1 = keccak256(abi.encodePacked(s)) */\n      swap1\n      pop\n        /* \"study/chapter07/stirngOpt.sol\":437:448  bytes32  b2 */\n      0x00\n        /* \"study/chapter07/stirngOpt.sol\":478:479  s */\n      0x01\n        /* \"study/chapter07/stirngOpt.sol\":461:480  abi.encodePacked(s) */\n      add(0x20, mload(0x40))\n      tag_48\n      swap2\n      swap1\n      tag_47\n      jump\t// in\n    tag_48:\n      mload(0x40)\n      0x20\n      dup2\n      dup4\n      sub\n      sub\n      dup2\n      mstore\n      swap1\n      0x40\n      mstore\n        /* \"study/chapter07/stirngOpt.sol\":451:481  keccak256(abi.encodePacked(s)) */\n      dup1\n      mload\n      swap1\n      0x20\n      add\n      keccak256\n        /* \"study/chapter07/stirngOpt.sol\":437:481  bytes32  b2 = keccak256(abi.encodePacked(s)) */\n      swap1\n      pop\n        /* \"study/chapter07/stirngOpt.sol\":373:495  {... */\n      pop\n      pop\n        /* \"study/chapter07/stirngOpt.sol\":333:495  function isEqual()external returns(bool){... */\n      swap1\n      jump\t// out\n        /* \"study/chapter07/stirngOpt.sol\":77:108  string public greet = \"Hello, \" */\n    tag_29:\n      0x00\n      dup1\n      sload\n      tag_49\n      swap1\n      tag_35\n      jump\t// in\n    tag_49:\n      dup1\n      0x1f\n      add\n      0x20\n      dup1\n      swap2\n      div\n      mul\n      0x20\n      add\n      mload(0x40)\n      swap1\n      dup2\n      add\n      0x40\n      mstore\n      dup1\n      swap3\n      swap2\n      swap1\n      dup2\n      dup2\n      mstore\n      0x20\n      add\n      dup3\n      dup1\n      sload\n      tag_50\n      swap1\n      tag_35\n      jump\t// in\n    tag_50:\n      dup1\n      iszero\n      tag_51\n      jumpi\n      dup1\n      0x1f\n      lt\n      tag_52\n      jumpi\n      0x0100\n      dup1\n      dup4\n      sload\n      div\n      mul\n      dup4\n      mstore\n      swap2\n      0x20\n      add\n      swap2\n      jump(tag_51)\n    tag_52:\n      dup3\n      add\n      swap2\n      swap1\n      0x00\n      mstore\n      keccak256(0x00, 0x20)\n      swap1\n    tag_53:\n      dup2\n      sload\n      dup2\n      mstore\n      swap1\n      0x01\n      add\n      swap1\n      0x20\n      add\n      dup1\n      dup4\n      gt\n      tag_53\n      jumpi\n      dup3\n      swap1\n      sub\n      0x1f\n      and\n      dup3\n      add\n      swap2\n    tag_51:\n      pop\n      pop\n      pop\n      pop\n      pop\n      dup2\n      jump\t// out\n        /* \"#utility.yul\":21:574   */\n    tag_55:\n        /* \"#utility.yul\":79:87   */\n      0x00\n        /* \"#utility.yul\":89:95   */\n      dup1\n        /* \"#utility.yul\":139:142   */\n      dup4\n        /* \"#utility.yul\":132:136   */\n      0x1f\n        /* \"#utility.yul\":124:130   */\n      dup5\n        /* \"#utility.yul\":120:137   */\n      add\n        /* \"#utility.yul\":116:143   */\n      slt\n        /* \"#utility.yul\":106:228   */\n      tag_57\n      jumpi\n        /* \"#utility.yul\":147:226   */\n      tag_58\n      tag_59\n      jump\t// in\n    tag_58:\n        /* \"#utility.yul\":106:228   */\n    tag_57:\n        /* \"#utility.yul\":260:266   */\n      dup3\n        /* \"#utility.yul\":247:267   */\n      calldataload\n        /* \"#utility.yul\":237:267   */\n      swap1\n      pop\n        /* \"#utility.yul\":290:308   */\n      0xffffffffffffffff\n        /* \"#utility.yul\":282:288   */\n      dup2\n        /* \"#utility.yul\":279:309   */\n      gt\n        /* \"#utility.yul\":276:393   */\n      iszero\n      tag_60\n      jumpi\n        /* \"#utility.yul\":312:391   */\n      tag_61\n      tag_62\n      jump\t// in\n    tag_61:\n        /* \"#utility.yul\":276:393   */\n    tag_60:\n        /* \"#utility.yul\":426:430   */\n      0x20\n        /* \"#utility.yul\":418:424   */\n      dup4\n        /* \"#utility.yul\":414:431   */\n      add\n        /* \"#utility.yul\":402:431   */\n      swap2\n      pop\n        /* \"#utility.yul\":480:483   */\n      dup4\n        /* \"#utility.yul\":472:476   */\n      0x01\n        /* \"#utility.yul\":464:470   */\n      dup3\n        /* \"#utility.yul\":460:477   */\n      mul\n        /* \"#utility.yul\":450:458   */\n      dup4\n        /* \"#utility.yul\":446:478   */\n      add\n        /* \"#utility.yul\":443:484   */\n      gt\n        /* \"#utility.yul\":440:568   */\n      iszero\n      tag_63\n      jumpi\n        /* \"#utility.yul\":487:566   */\n      tag_64\n      tag_65\n      jump\t// in\n    tag_64:\n        /* \"#utility.yul\":440:568   */\n    tag_63:\n        /* \"#utility.yul\":21:574   */\n      swap3\n      pop\n      swap3\n      swap1\n      pop\n      jump\t// out\n        /* \"#utility.yul\":580:1109   */\n    tag_11:\n        /* \"#utility.yul\":651:657   */\n      0x00\n        /* \"#utility.yul\":659:665   */\n      dup1\n        /* \"#utility.yul\":708:710   */\n      0x20\n        /* \"#utility.yul\":696:705   */\n      dup4\n        /* \"#utility.yul\":687:694   */\n      dup6\n        /* \"#utility.yul\":683:706   */\n      sub\n        /* \"#utility.yul\":679:711   */\n      slt\n        /* \"#utility.yul\":676:795   */\n      iszero\n      tag_67\n      jumpi\n        /* \"#utility.yul\":714:793   */\n      tag_68\n      tag_69\n      jump\t// in\n    tag_68:\n        /* \"#utility.yul\":676:795   */\n    tag_67:\n        /* \"#utility.yul\":862:863   */\n      0x00\n        /* \"#utility.yul\":851:860   */\n      dup4\n        /* \"#utility.yul\":847:864   */\n      add\n        /* \"#utility.yul\":834:865   */\n      calldataload\n        /* \"#utility.yul\":892:910   */\n      0xffffffffffffffff\n        /* \"#utility.yul\":884:890   */\n      dup2\n        /* \"#utility.yul\":881:911   */\n      gt\n        /* \"#utility.yul\":878:995   */\n      iszero\n      tag_70\n      jumpi\n        /* \"#utility.yul\":914:993   */\n      tag_71\n      tag_72\n      jump\t// in\n    tag_71:\n        /* \"#utility.yul\":878:995   */\n    tag_70:\n        /* \"#utility.yul\":1027:1092   */\n      tag_73\n        /* \"#utility.yul\":1084:1091   */\n      dup6\n        /* \"#utility.yul\":1075:1081   */\n      dup3\n        /* \"#utility.yul\":1064:1073   */\n      dup7\n        /* \"#utility.yul\":1060:1082   */\n      add\n        /* \"#utility.yul\":1027:1092   */\n      tag_55\n      jump\t// in\n    tag_73:\n        /* \"#utility.yul\":1009:1092   */\n      swap3\n      pop\n      swap3\n      pop\n        /* \"#utility.yul\":805:1102   */\n      pop\n        /* \"#utility.yul\":580:1109   */\n      swap3\n      pop\n      swap3\n      swap1\n      pop\n      jump\t// out\n        /* \"#utility.yul\":1115:1224   */\n    tag_74:\n        /* \"#utility.yul\":1196:1217   */\n      tag_76\n        /* \"#utility.yul\":1211:1216   */\n      dup2\n        /* \"#utility.yul\":1196:1217   */\n      tag_77\n      jump\t// in\n    tag_76:\n        /* \"#utility.yul\":1191:1194   */\n      dup3\n        /* \"#utility.yul\":1184:1218   */\n      mstore\n        /* \"#utility.yul\":1115:1224   */\n      pop\n      pop\n      jump\t// out\n        /* \"#utility.yul\":1252:1566   */\n    tag_78:\n        /* \"#utility.yul\":1366:1369   */\n      0x00\n        /* \"#utility.yul\":1387:1475   */\n      tag_80\n        /* \"#utility.yul\":1468:1474   */\n      dup4\n        /* \"#utility.yul\":1463:1466   */\n      dup6\n        /* \"#utility.yul\":1387:1475   */\n      tag_81\n      jump\t// in\n    tag_80:\n        /* \"#utility.yul\":1380:1475   */\n      swap4\n      pop\n        /* \"#utility.yul\":1485:1528   */\n      tag_82\n        /* \"#utility.yul\":1521:1527   */\n      dup4\n        /* \"#utility.yul\":1516:1519   */\n      dup6\n        /* \"#utility.yul\":1509:1514   */\n      dup5\n        /* \"#utility.yul\":1485:1528   */\n      tag_83\n      jump\t// in\n    tag_82:\n        /* \"#utility.yul\":1553:1559   */\n      dup3\n        /* \"#utility.yul\":1548:1551   */\n      dup5\n        /* \"#utility.yul\":1544:1560   */\n      add\n        /* \"#utility.yul\":1537:1560   */\n      swap1\n      pop\n        /* \"#utility.yul\":1252:1566   */\n      swap4\n      swap3\n      pop\n      pop\n      pop\n      jump\t// out\n        /* \"#utility.yul\":1594:2443   */\n    tag_84:\n        /* \"#utility.yul\":1699:1702   */\n      0x00\n        /* \"#utility.yul\":1736:1741   */\n      dup2\n        /* \"#utility.yul\":1730:1742   */\n      sload\n        /* \"#utility.yul\":1765:1801   */\n      tag_86\n        /* \"#utility.yul\":1791:1800   */\n      dup2\n        /* \"#utility.yul\":1765:1801   */\n      tag_35\n      jump\t// in\n    tag_86:\n        /* \"#utility.yul\":1817:1905   */\n      tag_87\n        /* \"#utility.yul\":1898:1904   */\n      dup2\n        /* \"#utility.yul\":1893:1896   */\n      dup7\n        /* \"#utility.yul\":1817:1905   */\n      tag_81\n      jump\t// in\n    tag_87:\n        /* \"#utility.yul\":1810:1905   */\n      swap5\n      pop\n        /* \"#utility.yul\":1936:1937   */\n      0x01\n        /* \"#utility.yul\":1925:1934   */\n      dup3\n        /* \"#utility.yul\":1921:1938   */\n      and\n        /* \"#utility.yul\":1952:1953   */\n      0x00\n        /* \"#utility.yul\":1947:2084   */\n      dup2\n      eq\n      tag_89\n      jumpi\n        /* \"#utility.yul\":2098:2099   */\n      0x01\n        /* \"#utility.yul\":2093:2437   */\n      dup2\n      eq\n      tag_90\n      jumpi\n        /* \"#utility.yul\":1914:2437   */\n      jump(tag_88)\n        /* \"#utility.yul\":1947:2084   */\n    tag_89:\n        /* \"#utility.yul\":2031:2035   */\n      0xff\n        /* \"#utility.yul\":2027:2036   */\n      not\n        /* \"#utility.yul\":2016:2025   */\n      dup4\n        /* \"#utility.yul\":2012:2037   */\n      and\n        /* \"#utility.yul\":2007:2010   */\n      dup7\n        /* \"#utility.yul\":2000:2038   */\n      mstore\n        /* \"#utility.yul\":2067:2073   */\n      dup2\n        /* \"#utility.yul\":2062:2065   */\n      dup7\n        /* \"#utility.yul\":2058:2074   */\n      add\n        /* \"#utility.yul\":2051:2074   */\n      swap4\n      pop\n        /* \"#utility.yul\":1947:2084   */\n      jump(tag_88)\n        /* \"#utility.yul\":2093:2437   */\n    tag_90:\n        /* \"#utility.yul\":2160:2201   */\n      tag_91\n        /* \"#utility.yul\":2195:2200   */\n      dup6\n        /* \"#utility.yul\":2160:2201   */\n      tag_92\n      jump\t// in\n    tag_91:\n        /* \"#utility.yul\":2223:2224   */\n      0x00\n        /* \"#utility.yul\":2237:2391   */\n    tag_93:\n        /* \"#utility.yul\":2251:2257   */\n      dup4\n        /* \"#utility.yul\":2248:2249   */\n      dup2\n        /* \"#utility.yul\":2245:2258   */\n      lt\n        /* \"#utility.yul\":2237:2391   */\n      iszero\n      tag_95\n      jumpi\n        /* \"#utility.yul\":2325:2332   */\n      dup2\n        /* \"#utility.yul\":2319:2333   */\n      sload\n        /* \"#utility.yul\":2315:2316   */\n      dup2\n        /* \"#utility.yul\":2310:2313   */\n      dup10\n        /* \"#utility.yul\":2306:2317   */\n      add\n        /* \"#utility.yul\":2299:2334   */\n      mstore\n        /* \"#utility.yul\":2375:2376   */\n      0x01\n        /* \"#utility.yul\":2366:2373   */\n      dup3\n        /* \"#utility.yul\":2362:2377   */\n      add\n        /* \"#utility.yul\":2351:2377   */\n      swap2\n      pop\n        /* \"#utility.yul\":2273:2277   */\n      0x20\n        /* \"#utility.yul\":2270:2271   */\n      dup2\n        /* \"#utility.yul\":2266:2278   */\n      add\n        /* \"#utility.yul\":2261:2278   */\n      swap1\n      pop\n        /* \"#utility.yul\":2237:2391   */\n      jump(tag_93)\n    tag_95:\n        /* \"#utility.yul\":2420:2426   */\n      dup4\n        /* \"#utility.yul\":2415:2418   */\n      dup9\n        /* \"#utility.yul\":2411:2427   */\n      add\n        /* \"#utility.yul\":2404:2427   */\n      swap6\n      pop\n        /* \"#utility.yul\":2100:2437   */\n      pop\n      pop\n        /* \"#utility.yul\":1914:2437   */\n    tag_88:\n      pop\n        /* \"#utility.yul\":1703:2443   */\n      pop\n      pop\n        /* \"#utility.yul\":1594:2443   */\n      swap3\n      swap2\n      pop\n      pop\n      jump\t// out\n        /* \"#utility.yul\":2449:2813   */\n    tag_96:\n        /* \"#utility.yul\":2537:2540   */\n      0x00\n        /* \"#utility.yul\":2565:2604   */\n      tag_98\n        /* \"#utility.yul\":2598:2603   */\n      dup3\n        /* \"#utility.yul\":2565:2604   */\n      tag_99\n      jump\t// in\n    tag_98:\n        /* \"#utility.yul\":2620:2691   */\n      tag_100\n        /* \"#utility.yul\":2684:2690   */\n      dup2\n        /* \"#utility.yul\":2679:2682   */\n      dup6\n        /* \"#utility.yul\":2620:2691   */\n      tag_101\n      jump\t// in\n    tag_100:\n        /* \"#utility.yul\":2613:2691   */\n      swap4\n      pop\n        /* \"#utility.yul\":2700:2752   */\n      tag_102\n        /* \"#utility.yul\":2745:2751   */\n      dup2\n        /* \"#utility.yul\":2740:2743   */\n      dup6\n        /* \"#utility.yul\":2733:2737   */\n      0x20\n        /* \"#utility.yul\":2726:2731   */\n      dup7\n        /* \"#utility.yul\":2722:2738   */\n      add\n        /* \"#utility.yul\":2700:2752   */\n      tag_103\n      jump\t// in\n    tag_102:\n        /* \"#utility.yul\":2777:2806   */\n      tag_104\n        /* \"#utility.yul\":2799:2805   */\n      dup2\n        /* \"#utility.yul\":2777:2806   */\n      tag_105\n      jump\t// in\n    tag_104:\n        /* \"#utility.yul\":2772:2775   */\n      dup5\n        /* \"#utility.yul\":2768:2807   */\n      add\n        /* \"#utility.yul\":2761:2807   */\n      swap2\n      pop\n        /* \"#utility.yul\":2541:2813   */\n      pop\n        /* \"#utility.yul\":2449:2813   */\n      swap3\n      swap2\n      pop\n      pop\n      jump\t// out\n        /* \"#utility.yul\":2843:3688   */\n    tag_106:\n        /* \"#utility.yul\":2946:2949   */\n      0x00\n        /* \"#utility.yul\":2983:2988   */\n      dup2\n        /* \"#utility.yul\":2977:2989   */\n      sload\n        /* \"#utility.yul\":3012:3048   */\n      tag_108\n        /* \"#utility.yul\":3038:3047   */\n      dup2\n        /* \"#utility.yul\":3012:3048   */\n      tag_35\n      jump\t// in\n    tag_108:\n        /* \"#utility.yul\":3064:3153   */\n      tag_109\n        /* \"#utility.yul\":3146:3152   */\n      dup2\n        /* \"#utility.yul\":3141:3144   */\n      dup7\n        /* \"#utility.yul\":3064:3153   */\n      tag_110\n      jump\t// in\n    tag_109:\n        /* \"#utility.yul\":3057:3153   */\n      swap5\n      pop\n        /* \"#utility.yul\":3184:3185   */\n      0x01\n        /* \"#utility.yul\":3173:3182   */\n      dup3\n        /* \"#utility.yul\":3169:3186   */\n      and\n        /* \"#utility.yul\":3200:3201   */\n      0x00\n        /* \"#utility.yul\":3195:3332   */\n      dup2\n      eq\n      tag_112\n      jumpi\n        /* \"#utility.yul\":3346:3347   */\n      0x01\n        /* \"#utility.yul\":3341:3682   */\n      dup2\n      eq\n      tag_113\n      jumpi\n        /* \"#utility.yul\":3162:3682   */\n      jump(tag_111)\n        /* \"#utility.yul\":3195:3332   */\n    tag_112:\n        /* \"#utility.yul\":3279:3283   */\n      0xff\n        /* \"#utility.yul\":3275:3284   */\n      not\n        /* \"#utility.yul\":3264:3273   */\n      dup4\n        /* \"#utility.yul\":3260:3285   */\n      and\n        /* \"#utility.yul\":3255:3258   */\n      dup7\n        /* \"#utility.yul\":3248:3286   */\n      mstore\n        /* \"#utility.yul\":3315:3321   */\n      dup2\n        /* \"#utility.yul\":3310:3313   */\n      dup7\n        /* \"#utility.yul\":3306:3322   */\n      add\n        /* \"#utility.yul\":3299:3322   */\n      swap4\n      pop\n        /* \"#utility.yul\":3195:3332   */\n      jump(tag_111)\n        /* \"#utility.yul\":3341:3682   */\n    tag_113:\n        /* \"#utility.yul\":3408:3446   */\n      tag_114\n        /* \"#utility.yul\":3440:3445   */\n      dup6\n        /* \"#utility.yul\":3408:3446   */\n      tag_115\n      jump\t// in\n    tag_114:\n        /* \"#utility.yul\":3468:3469   */\n      0x00\n        /* \"#utility.yul\":3482:3636   */\n    tag_116:\n        /* \"#utility.yul\":3496:3502   */\n      dup4\n        /* \"#utility.yul\":3493:3494   */\n      dup2\n        /* \"#utility.yul\":3490:3503   */\n      lt\n        /* \"#utility.yul\":3482:3636   */\n      iszero\n      tag_118\n      jumpi\n        /* \"#utility.yul\":3570:3577   */\n      dup2\n        /* \"#utility.yul\":3564:3578   */\n      sload\n        /* \"#utility.yul\":3560:3561   */\n      dup2\n        /* \"#utility.yul\":3555:3558   */\n      dup10\n        /* \"#utility.yul\":3551:3562   */\n      add\n        /* \"#utility.yul\":3544:3579   */\n      mstore\n        /* \"#utility.yul\":3620:3621   */\n      0x01\n        /* \"#utility.yul\":3611:3618   */\n      dup3\n        /* \"#utility.yul\":3607:3622   */\n      add\n        /* \"#utility.yul\":3596:3622   */\n      swap2\n      pop\n        /* \"#utility.yul\":3518:3522   */\n      0x20\n        /* \"#utility.yul\":3515:3516   */\n      dup2\n        /* \"#utility.yul\":3511:3523   */\n      add\n        /* \"#utility.yul\":3506:3523   */\n      swap1\n      pop\n        /* \"#utility.yul\":3482:3636   */\n      jump(tag_116)\n    tag_118:\n        /* \"#utility.yul\":3665:3671   */\n      dup4\n        /* \"#utility.yul\":3660:3663   */\n      dup9\n        /* \"#utility.yul\":3656:3672   */\n      add\n        /* \"#utility.yul\":3649:3672   */\n      swap6\n      pop\n        /* \"#utility.yul\":3348:3682   */\n      pop\n      pop\n        /* \"#utility.yul\":3162:3682   */\n    tag_111:\n      pop\n        /* \"#utility.yul\":2950:3688   */\n      pop\n      pop\n        /* \"#utility.yul\":2843:3688   */\n      swap3\n      swap2\n      pop\n      pop\n      jump\t// out\n        /* \"#utility.yul\":3694:4143   */\n    tag_33:\n        /* \"#utility.yul\":3881:3884   */\n      0x00\n        /* \"#utility.yul\":3903:3997   */\n      tag_120\n        /* \"#utility.yul\":3993:3996   */\n      dup3\n        /* \"#utility.yul\":3984:3990   */\n      dup7\n        /* \"#utility.yul\":3903:3997   */\n      tag_84\n      jump\t// in\n    tag_120:\n        /* \"#utility.yul\":3896:3997   */\n      swap2\n      pop\n        /* \"#utility.yul\":4014:4117   */\n      tag_121\n        /* \"#utility.yul\":4113:4116   */\n      dup3\n        /* \"#utility.yul\":4104:4110   */\n      dup5\n        /* \"#utility.yul\":4096:4102   */\n      dup7\n        /* \"#utility.yul\":4014:4117   */\n      tag_78\n      jump\t// in\n    tag_121:\n        /* \"#utility.yul\":4007:4117   */\n      swap2\n      pop\n        /* \"#utility.yul\":4134:4137   */\n      dup2\n        /* \"#utility.yul\":4127:4137   */\n      swap1\n      pop\n        /* \"#utility.yul\":3694:4143   */\n      swap5\n      swap4\n      pop\n      pop\n      pop\n      pop\n      jump\t// out\n        /* \"#utility.yul\":4149:4418   */\n    tag_47:\n        /* \"#utility.yul\":4278:4281   */\n      0x00\n        /* \"#utility.yul\":4300:4392   */\n      tag_123\n        /* \"#utility.yul\":4388:4391   */\n      dup3\n        /* \"#utility.yul\":4379:4385   */\n      dup5\n        /* \"#utility.yul\":4300:4392   */\n      tag_106\n      jump\t// in\n    tag_123:\n        /* \"#utility.yul\":4293:4392   */\n      swap2\n      pop\n        /* \"#utility.yul\":4409:4412   */\n      dup2\n        /* \"#utility.yul\":4402:4412   */\n      swap1\n      pop\n        /* \"#utility.yul\":4149:4418   */\n      swap3\n      swap2\n      pop\n      pop\n      jump\t// out\n        /* \"#utility.yul\":4424:4634   */\n    tag_18:\n        /* \"#utility.yul\":4511:4515   */\n      0x00\n        /* \"#utility.yul\":4549:4551   */\n      0x20\n        /* \"#utility.yul\":4538:4547   */\n      dup3\n        /* \"#utility.yul\":4534:4552   */\n      add\n        /* \"#utility.yul\":4526:4552   */\n      swap1\n      pop\n        /* \"#utility.yul\":4562:4627   */\n      tag_125\n        /* \"#utility.yul\":4624:4625   */\n      0x00\n        /* \"#utility.yul\":4613:4622   */\n      dup4\n        /* \"#utility.yul\":4609:4626   */\n      add\n        /* \"#utility.yul\":4600:4606   */\n      dup5\n        /* \"#utility.yul\":4562:4627   */\n      tag_74\n      jump\t// in\n    tag_125:\n        /* \"#utility.yul\":4424:4634   */\n      swap3\n      swap2\n      pop\n      pop\n      jump\t// out\n        /* \"#utility.yul\":4640:4953   */\n    tag_14:\n        /* \"#utility.yul\":4753:4757   */\n      0x00\n        /* \"#utility.yul\":4791:4793   */\n      0x20\n        /* \"#utility.yul\":4780:4789   */\n      dup3\n        /* \"#utility.yul\":4776:4794   */\n      add\n        /* \"#utility.yul\":4768:4794   */\n      swap1\n      pop\n        /* \"#utility.yul\":4840:4849   */\n      dup2\n        /* \"#utility.yul\":4834:4838   */\n      dup2\n        /* \"#utility.yul\":4830:4850   */\n      sub\n        /* \"#utility.yul\":4826:4827   */\n      0x00\n        /* \"#utility.yul\":4815:4824   */\n      dup4\n        /* \"#utility.yul\":4811:4828   */\n      add\n        /* \"#utility.yul\":4804:4851   */\n      mstore\n        /* \"#utility.yul\":4868:4946   */\n      tag_127\n        /* \"#utility.yul\":4941:4945   */\n      dup2\n        /* \"#utility.yul\":4932:4938   */\n      dup5\n        /* \"#utility.yul\":4868:4946   */\n      tag_96\n      jump\t// in\n    tag_127:\n        /* \"#utility.yul\":4860:4946   */\n      swap1\n      pop\n        /* \"#utility.yul\":4640:4953   */\n      swap3\n      swap2\n      pop\n      pop\n      jump\t// out\n        /* \"#utility.yul\":5040:5184   */\n    tag_92:\n        /* \"#utility.yul\":5092:5096   */\n      0x00\n        /* \"#utility.yul\":5115:5118   */\n      dup2\n        /* \"#utility.yul\":5107:5118   */\n      swap1\n      pop\n        /* \"#utility.yul\":5138:5141   */\n      dup2\n        /* \"#utility.yul\":5135:5136   */\n      0x00\n        /* \"#utility.yul\":5128:5142   */\n      mstore\n        /* \"#utility.yul\":5172:5176   */\n      0x20\n        /* \"#utility.yul\":5169:5170   */\n      0x00\n        /* \"#utility.yul\":5159:5177   */\n      keccak256\n        /* \"#utility.yul\":5151:5177   */\n      swap1\n      pop\n        /* \"#utility.yul\":5040:5184   */\n      swap2\n      swap1\n      pop\n      jump\t// out\n        /* \"#utility.yul\":5190:5331   */\n    tag_115:\n        /* \"#utility.yul\":5239:5243   */\n      0x00\n        /* \"#utility.yul\":5262:5265   */\n      dup2\n        /* \"#utility.yul\":5254:5265   */\n      swap1\n      pop\n        /* \"#utility.yul\":5285:5288   */\n      dup2\n        /* \"#utility.yul\":5282:5283   */\n      0x00\n        /* \"#utility.yul\":5275:5289   */\n      mstore\n        /* \"#utility.yul\":5319:5323   */\n      0x20\n        /* \"#utility.yul\":5316:5317   */\n      0x00\n        /* \"#utility.yul\":5306:5324   */\n      keccak256\n        /* \"#utility.yul\":5298:5324   */\n      swap1\n      pop\n        /* \"#utility.yul\":5190:5331   */\n      swap2\n      swap1\n      pop\n      jump\t// out\n        /* \"#utility.yul\":5337:5436   */\n    tag_99:\n        /* \"#utility.yul\":5389:5395   */\n      0x00\n        /* \"#utility.yul\":5423:5428   */\n      dup2\n        /* \"#utility.yul\":5417:5429   */\n      mload\n        /* \"#utility.yul\":5407:5429   */\n      swap1\n      pop\n        /* \"#utility.yul\":5337:5436   */\n      swap2\n      swap1\n      pop\n      jump\t// out\n        /* \"#utility.yul\":5442:5589   */\n    tag_81:\n        /* \"#utility.yul\":5543:5554   */\n      0x00\n        /* \"#utility.yul\":5580:5583   */\n      dup2\n        /* \"#utility.yul\":5565:5583   */\n      swap1\n      pop\n        /* \"#utility.yul\":5442:5589   */\n      swap3\n      swap2\n      pop\n      pop\n      jump\t// out\n        /* \"#utility.yul\":5595:5764   */\n    tag_101:\n        /* \"#utility.yul\":5679:5690   */\n      0x00\n        /* \"#utility.yul\":5713:5719   */\n      dup3\n        /* \"#utility.yul\":5708:5711   */\n      dup3\n        /* \"#utility.yul\":5701:5720   */\n      mstore\n        /* \"#utility.yul\":5753:5757   */\n      0x20\n        /* \"#utility.yul\":5748:5751   */\n      dup3\n        /* \"#utility.yul\":5744:5758   */\n      add\n        /* \"#utility.yul\":5729:5758   */\n      swap1\n      pop\n        /* \"#utility.yul\":5595:5764   */\n      swap3\n      swap2\n      pop\n      pop\n      jump\t// out\n        /* \"#utility.yul\":5770:5918   */\n    tag_110:\n        /* \"#utility.yul\":5872:5883   */\n      0x00\n        /* \"#utility.yul\":5909:5912   */\n      dup2\n        /* \"#utility.yul\":5894:5912   */\n      swap1\n      pop\n        /* \"#utility.yul\":5770:5918   */\n      swap3\n      swap2\n      pop\n      pop\n      jump\t// out\n        /* \"#utility.yul\":5924:6014   */\n    tag_77:\n        /* \"#utility.yul\":5958:5965   */\n      0x00\n        /* \"#utility.yul\":6001:6006   */\n      dup2\n        /* \"#utility.yul\":5994:6007   */\n      iszero\n        /* \"#utility.yul\":5987:6008   */\n      iszero\n        /* \"#utility.yul\":5976:6008   */\n      swap1\n      pop\n        /* \"#utility.yul\":5924:6014   */\n      swap2\n      swap1\n      pop\n      jump\t// out\n        /* \"#utility.yul\":6020:6174   */\n    tag_83:\n        /* \"#utility.yul\":6104:6110   */\n      dup3\n        /* \"#utility.yul\":6099:6102   */\n      dup2\n        /* \"#utility.yul\":6094:6097   */\n      dup4\n        /* \"#utility.yul\":6081:6111   */\n      calldatacopy\n        /* \"#utility.yul\":6166:6167   */\n      0x00\n        /* \"#utility.yul\":6157:6163   */\n      dup4\n        /* \"#utility.yul\":6152:6155   */\n      dup4\n        /* \"#utility.yul\":6148:6164   */\n      add\n        /* \"#utility.yul\":6141:6168   */\n      mstore\n        /* \"#utility.yul\":6020:6174   */\n      pop\n      pop\n      pop\n      jump\t// out\n        /* \"#utility.yul\":6180:6487   */\n    tag_103:\n        /* \"#utility.yul\":6248:6249   */\n      0x00\n        /* \"#utility.yul\":6258:6371   */\n    tag_139:\n        /* \"#utility.yul\":6272:6278   */\n      dup4\n        /* \"#utility.yul\":6269:6270   */\n      dup2\n        /* \"#utility.yul\":6266:6279   */\n      lt\n        /* \"#utility.yul\":6258:6371   */\n      iszero\n      tag_141\n      jumpi\n        /* \"#utility.yul\":6357:6358   */\n      dup1\n        /* \"#utility.yul\":6352:6355   */\n      dup3\n        /* \"#utility.yul\":6348:6359   */\n      add\n        /* \"#utility.yul\":6342:6360   */\n      mload\n        /* \"#utility.yul\":6338:6339   */\n      dup2\n        /* \"#utility.yul\":6333:6336   */\n      dup5\n        /* \"#utility.yul\":6329:6340   */\n      add\n        /* \"#utility.yul\":6322:6361   */\n      mstore\n        /* \"#utility.yul\":6294:6296   */\n      0x20\n        /* \"#utility.yul\":6291:6292   */\n      dup2\n        /* \"#utility.yul\":6287:6297   */\n      add\n        /* \"#utility.yul\":6282:6297   */\n      swap1\n      pop\n        /* \"#utility.yul\":6258:6371   */\n      jump(tag_139)\n    tag_141:\n        /* \"#utility.yul\":6389:6395   */\n      dup4\n        /* \"#utility.yul\":6386:6387   */\n      dup2\n        /* \"#utility.yul\":6383:6396   */\n      gt\n        /* \"#utility.yul\":6380:6481   */\n      iszero\n      tag_142\n      jumpi\n        /* \"#utility.yul\":6469:6470   */\n      0x00\n        /* \"#utility.yul\":6460:6466   */\n      dup5\n        /* \"#utility.yul\":6455:6458   */\n      dup5\n        /* \"#utility.yul\":6451:6467   */\n      add\n        /* \"#utility.yul\":6444:6471   */\n      mstore\n        /* \"#utility.yul\":6380:6481   */\n    tag_142:\n        /* \"#utility.yul\":6229:6487   */\n      pop\n        /* \"#utility.yul\":6180:6487   */\n      pop\n      pop\n      pop\n      jump\t// out\n        /* \"#utility.yul\":6493:6813   */\n    tag_35:\n        /* \"#utility.yul\":6537:6543   */\n      0x00\n        /* \"#utility.yul\":6574:6575   */\n      0x02\n        /* \"#utility.yul\":6568:6572   */\n      dup3\n        /* \"#utility.yul\":6564:6576   */\n      div\n        /* \"#utility.yul\":6554:6576   */\n      swap1\n      pop\n        /* \"#utility.yul\":6621:6622   */\n      0x01\n        /* \"#utility.yul\":6615:6619   */\n      dup3\n        /* \"#utility.yul\":6611:6623   */\n      and\n        /* \"#utility.yul\":6642:6660   */\n      dup1\n        /* \"#utility.yul\":6632:6713   */\n      tag_144\n      jumpi\n        /* \"#utility.yul\":6698:6702   */\n      0x7f\n        /* \"#utility.yul\":6690:6696   */\n      dup3\n        /* \"#utility.yul\":6686:6703   */\n      and\n        /* \"#utility.yul\":6676:6703   */\n      swap2\n      pop\n        /* \"#utility.yul\":6632:6713   */\n    tag_144:\n        /* \"#utility.yul\":6760:6762   */\n      0x20\n        /* \"#utility.yul\":6752:6758   */\n      dup3\n        /* \"#utility.yul\":6749:6763   */\n      lt\n        /* \"#utility.yul\":6729:6747   */\n      dup2\n        /* \"#utility.yul\":6726:6764   */\n      eq\n        /* \"#utility.yul\":6723:6807   */\n      iszero\n      tag_145\n      jumpi\n        /* \"#utility.yul\":6779:6797   */\n      tag_146\n      tag_147\n      jump\t// in\n    tag_146:\n        /* \"#utility.yul\":6723:6807   */\n    tag_145:\n        /* \"#utility.yul\":6544:6813   */\n      pop\n        /* \"#utility.yul\":6493:6813   */\n      swap2\n      swap1\n      pop\n      jump\t// out\n        /* \"#utility.yul\":6819:6999   */\n    tag_147:\n        /* \"#utility.yul\":6867:6944   */\n      0x4e487b7100000000000000000000000000000000000000000000000000000000\n        /* \"#utility.yul\":6864:6865   */\n      0x00\n        /* \"#utility.yul\":6857:6945   */\n      mstore\n        /* \"#utility.yul\":6964:6968   */\n      0x22\n        /* \"#utility.yul\":6961:6962   */\n      0x04\n        /* \"#utility.yul\":6954:6969   */\n      mstore\n        /* \"#utility.yul\":6988:6992   */\n      0x24\n        /* \"#utility.yul\":6985:6986   */\n      0x00\n        /* \"#utility.yul\":6978:6993   */\n      revert\n        /* \"#utility.yul\":7005:7122   */\n    tag_62:\n        /* \"#utility.yul\":7114:7115   */\n      0x00\n        /* \"#utility.yul\":7111:7112   */\n      dup1\n        /* \"#utility.yul\":7104:7116   */\n      revert\n        /* \"#utility.yul\":7128:7245   */\n    tag_59:\n        /* \"#utility.yul\":7237:7238   */\n      0x00\n        /* \"#utility.yul\":7234:7235   */\n      dup1\n        /* \"#utility.yul\":7227:7239   */\n      revert\n        /* \"#utility.yul\":7251:7368   */\n    tag_65:\n        /* \"#utility.yul\":7360:7361   */\n      0x00\n        /* \"#utility.yul\":7357:7358   */\n      dup1\n        /* \"#utility.yul\":7350:7362   */\n      revert\n        /* \"#utility.yul\":7374:7491   */\n    tag_72:\n        /* \"#utility.yul\":7483:7484   */\n      0x00\n        /* \"#utility.yul\":7480:7481   */\n      dup1\n        /* \"#utility.yul\":7473:7485   */\n      revert\n        /* \"#utility.yul\":7497:7614   */\n    tag_69:\n        /* \"#utility.yul\":7606:7607   */\n      0x00\n        /* \"#utility.yul\":7603:7604   */\n      dup1\n        /* \"#utility.yul\":7596:7608   */\n      revert\n        /* \"#utility.yul\":7620:7722   */\n    tag_105:\n        /* \"#utility.yul\":7661:7667   */\n      0x00\n        /* \"#utility.yul\":7712:7714   */\n      0x1f\n        /* \"#utility.yul\":7708:7715   */\n      not\n        /* \"#utility.yul\":7703:7705   */\n      0x1f\n        /* \"#utility.yul\":7696:7701   */\n      dup4\n        /* \"#utility.yul\":7692:7706   */\n      add\n        /* \"#utility.yul\":7688:7716   */\n      and\n        /* \"#utility.yul\":7678:7716   */\n      swap1\n      pop\n        /* \"#utility.yul\":7620:7722   */\n      swap2\n      swap1\n      pop\n      jump\t// out\n\n    auxdata: 0xa2646970667358221220a46f7918ec8e29a08c0f17f06c260e465a551574f014e4255061c805a4d7ff8c64736f6c63430008070033\n}\n",
				"bytecode": {
					"linkReferences": {},
					"object": "60806040526040518060400160405280600781526020017f48656c6c6f2c20000000000000000000000000000000000000000000000000008152506000908051906020019061004f9291906100fa565b506040518060400160405280600181526020017f41000000000000000000000000000000000000000000000000000000000000008152506001908051906020019061009b9291906100fa565b506040518060400160405280600181526020017f4200000000000000000000000000000000000000000000000000000000000000815250600290805190602001906100e79291906100fa565b503480156100f457600080fd5b506101fe565b8280546101069061019d565b90600052602060002090601f016020900481019282610128576000855561016f565b82601f1061014157805160ff191683800117855561016f565b8280016001018555821561016f579182015b8281111561016e578251825591602001919060010190610153565b5b50905061017c9190610180565b5090565b5b80821115610199576000816000905550600101610181565b5090565b600060028204905060018216806101b557607f821691505b602082108114156101c9576101c86101cf565b5b50919050565b7f4e487b7100000000000000000000000000000000000000000000000000000000600052602260045260246000fd5b61076a8061020d6000396000f3fe608060405234801561001057600080fd5b50600436106100625760003560e01c806309fca94f146100675780631e228514146100975780636cc014de146100b557806386b714e2146100d3578063acbe8452146100f1578063cfae32171461010f575b600080fd5b610081600480360381019061007c91906103cd565b61012d565b60405161008e91906105dd565b60405180910390f35b61009f61015c565b6040516100ac91906105c2565b60405180910390f35b6100bd61016f565b6040516100ca91906105dd565b60405180910390f35b6100db6101fd565b6040516100e891906105dd565b60405180910390f35b6100f961028b565b60405161010691906105c2565b60405180910390f35b6101176102e9565b60405161012491906105dd565b60405180910390f35b60606000838360405160200161014593929190610585565b604051602081830303815290604052905092915050565b600360009054906101000a900460ff1681565b6002805461017c906106a9565b80601f01602080910402602001604051908101604052809291908181526020018280546101a8906106a9565b80156101f55780601f106101ca576101008083540402835291602001916101f5565b820191906000526020600020905b8154815290600101906020018083116101d857829003601f168201915b505050505081565b6001805461020a906106a9565b80601f0160208091040260200160405190810160405280929190818152602001828054610236906106a9565b80156102835780601f1061025857610100808354040283529160200191610283565b820191906000526020600020905b81548152906001019060200180831161026657829003601f168201915b505050505081565b60008060016040516020016102a091906105ab565b604051602081830303815290604052805190602001209050600060016040516020016102cc91906105ab565b604051602081830303815290604052805190602001209050505090565b600080546102f6906106a9565b80601f0160208091040260200160405190810160405280929190818152602001828054610322906106a9565b801561036f5780601f106103445761010080835404028352916020019161036f565b820191906000526020600020905b81548152906001019060200180831161035257829003601f168201915b505050505081565b60008083601f84011261038d5761038c61070f565b5b8235905067ffffffffffffffff8111156103aa576103a961070a565b5b6020830191508360018202830111156103c6576103c5610714565b5b9250929050565b600080602083850312156103e4576103e361071e565b5b600083013567ffffffffffffffff81111561040257610401610719565b5b61040e85828601610377565b92509250509250929050565b6104238161065b565b82525050565b60006104358385610634565b9350610442838584610667565b82840190509392505050565b6000815461045b816106a9565b6104658186610634565b945060018216600081146104805760018114610491576104c4565b60ff198316865281860193506104c4565b61049a856105ff565b60005b838110156104bc5781548189015260018201915060208101905061049d565b838801955050505b50505092915050565b60006104d882610629565b6104e2818561063f565b93506104f2818560208601610676565b6104fb81610723565b840191505092915050565b60008154610513816106a9565b61051d8186610650565b9450600182166000811461053857600181146105495761057c565b60ff1983168652818601935061057c565b61055285610614565b60005b8381101561057457815481890152600182019150602081019050610555565b838801955050505b50505092915050565b6000610591828661044e565b915061059e828486610429565b9150819050949350505050565b60006105b78284610506565b915081905092915050565b60006020820190506105d7600083018461041a565b92915050565b600060208201905081810360008301526105f781846104cd565b905092915050565b60008190508160005260206000209050919050565b60008190508160005260206000209050919050565b600081519050919050565b600081905092915050565b600082825260208201905092915050565b600081905092915050565b60008115159050919050565b82818337600083830152505050565b60005b83811015610694578082015181840152602081019050610679565b838111156106a3576000848401525b50505050565b600060028204905060018216806106c157607f821691505b602082108114156106d5576106d46106db565b5b50919050565b7f4e487b7100000000000000000000000000000000000000000000000000000000600052602260045260246000fd5b600080fd5b600080fd5b600080fd5b600080fd5b600080fd5b6000601f19601f830116905091905056fea2646970667358221220a46f7918ec8e29a08c0f17f06c260e465a551574f014e4255061c805a4d7ff8c64736f6c63430008070033",
					"opcodes": "PUSH1 0x80 PUSH1 0x40 MSTORE PUSH1 0x40 MLOAD DUP1 PUSH1 0x40 ADD PUSH1 0x40 MSTORE DUP1 PUSH1 0x7 DUP2 MSTORE PUSH1 0x20 ADD PUSH32 0x48656C6C6F2C2000000000000000000000000000000000000000000000000000 DUP2 MSTORE POP PUSH1 0x0 SWAP1 DUP1 MLOAD SWAP1 PUSH1 0x20 ADD SWAP1 PUSH2 0x4F SWAP3 SWAP2 SWAP1 PUSH2 0xFA JUMP JUMPDEST POP PUSH1 0x40 MLOAD DUP1 PUSH1 0x40 ADD PUSH1 0x40 MSTORE DUP1 PUSH1 0x1 DUP2 MSTORE PUSH1 0x20 ADD PUSH32 0x4100000000000000000000000000000000000000000000000000000000000000 DUP2 MSTORE POP PUSH1 0x1 SWAP1 DUP1 MLOAD SWAP1 PUSH1 0x20 ADD SWAP1 PUSH2 0x9B SWAP3 SWAP2 SWAP1 PUSH2 0xFA JUMP JUMPDEST POP PUSH1 0x40 MLOAD DUP1 PUSH1 0x40 ADD PUSH1 0x40 MSTORE DUP1 PUSH1 0x1 DUP2 MSTORE PUSH1 0x20 ADD PUSH32 0x4200000000000000000000000000000000000000000000000000000000000000 DUP2 MSTORE POP PUSH1 0x2 SWAP1 DUP1 MLOAD SWAP1 PUSH1 0x20 ADD SWAP1 PUSH2 0xE7 SWAP3 SWAP2 SWAP1 PUSH2 0xFA JUMP JUMPDEST POP CALLVALUE DUP1 ISZERO PUSH2 0xF4 JUMPI PUSH1 0x0 DUP1 REVERT JUMPDEST POP PUSH2 0x1FE JUMP JUMPDEST DUP3 DUP1 SLOAD PUSH2 0x106 SWAP1 PUSH2 0x19D JUMP JUMPDEST SWAP1 PUSH1 0x0 MSTORE PUSH1 0x20 PUSH1 0x0 KECCAK256 SWAP1 PUSH1 0x1F ADD PUSH1 0x20 SWAP1 DIV DUP2 ADD SWAP3 DUP3 PUSH2 0x128 JUMPI PUSH1 0x0 DUP6 SSTORE PUSH2 0x16F JUMP JUMPDEST DUP3 PUSH1 0x1F LT PUSH2 0x141 JUMPI DUP1 MLOAD PUSH1 0xFF NOT AND DUP4 DUP1 ADD OR DUP6 SSTORE PUSH2 0x16F JUMP JUMPDEST DUP3 DUP1 ADD PUSH1 0x1 ADD DUP6 SSTORE DUP3 ISZERO PUSH2 0x16F JUMPI SWAP2 DUP3 ADD JUMPDEST DUP3 DUP2 GT ISZERO PUSH2 0x16E JUMPI DUP3 MLOAD DUP3 SSTORE SWAP2 PUSH1 0x20 ADD SWAP2 SWAP1 PUSH1 0x1 ADD SWAP1 PUSH2 0x153 JUMP JUMPDEST JUMPDEST POP SWAP1 POP PUSH2 0x17C SWAP2 SWAP1 PUSH2 0x180 JUMP JUMPDEST POP SWAP1 JUMP JUMPDEST JUMPDEST DUP1 DUP3 GT ISZERO PUSH2 0x199 JUMPI PUSH1 0x0 DUP2 PUSH1 0x0 SWAP1 SSTORE POP PUSH1 0x1 ADD PUSH2 0x181 JUMP JUMPDEST POP SWAP1 JUMP JUMPDEST PUSH1 0x0 PUSH1 0x2 DUP3 DIV SWAP1 POP PUSH1 0x1 DUP3 AND DUP1 PUSH2 0x1B5 JUMPI PUSH1 0x7F DUP3 AND SWAP2 POP JUMPDEST PUSH1 0x20 DUP3 LT DUP2 EQ ISZERO PUSH2 0x1C9 JUMPI PUSH2 0x1C8 PUSH2 0x1CF JUMP JUMPDEST JUMPDEST POP SWAP2 SWAP1 POP JUMP JUMPDEST PUSH32 0x4E487B7100000000000000000000000000000000000000000000000000000000 PUSH1 0x0 MSTORE PUSH1 0x22 PUSH1 0x4 MSTORE PUSH1 0x24 PUSH1 0x0 REVERT JUMPDEST PUSH2 0x76A DUP1 PUSH2 0x20D PUSH1 0x0 CODECOPY PUSH1 0x0 RETURN INVALID PUSH1 0x80 PUSH1 0x40 MSTORE CALLVALUE DUP1 ISZERO PUSH2 0x10 JUMPI PUSH1 0x0 DUP1 REVERT JUMPDEST POP PUSH1 0x4 CALLDATASIZE LT PUSH2 0x62 JUMPI PUSH1 0x0 CALLDATALOAD PUSH1 0xE0 SHR DUP1 PUSH4 0x9FCA94F EQ PUSH2 0x67 JUMPI DUP1 PUSH4 0x1E228514 EQ PUSH2 0x97 JUMPI DUP1 PUSH4 0x6CC014DE EQ PUSH2 0xB5 JUMPI DUP1 PUSH4 0x86B714E2 EQ PUSH2 0xD3 JUMPI DUP1 PUSH4 0xACBE8452 EQ PUSH2 0xF1 JUMPI DUP1 PUSH4 0xCFAE3217 EQ PUSH2 0x10F JUMPI JUMPDEST PUSH1 0x0 DUP1 REVERT JUMPDEST PUSH2 0x81 PUSH1 0x4 DUP1 CALLDATASIZE SUB DUP2 ADD SWAP1 PUSH2 0x7C SWAP2 SWAP1 PUSH2 0x3CD JUMP JUMPDEST PUSH2 0x12D JUMP JUMPDEST PUSH1 0x40 MLOAD PUSH2 0x8E SWAP2 SWAP1 PUSH2 0x5DD JUMP JUMPDEST PUSH1 0x40 MLOAD DUP1 SWAP2 SUB SWAP1 RETURN JUMPDEST PUSH2 0x9F PUSH2 0x15C JUMP JUMPDEST PUSH1 0x40 MLOAD PUSH2 0xAC SWAP2 SWAP1 PUSH2 0x5C2 JUMP JUMPDEST PUSH1 0x40 MLOAD DUP1 SWAP2 SUB SWAP1 RETURN JUMPDEST PUSH2 0xBD PUSH2 0x16F JUMP JUMPDEST PUSH1 0x40 MLOAD PUSH2 0xCA SWAP2 SWAP1 PUSH2 0x5DD JUMP JUMPDEST PUSH1 0x40 MLOAD DUP1 SWAP2 SUB SWAP1 RETURN JUMPDEST PUSH2 0xDB PUSH2 0x1FD JUMP JUMPDEST PUSH1 0x40 MLOAD PUSH2 0xE8 SWAP2 SWAP1 PUSH2 0x5DD JUMP JUMPDEST PUSH1 0x40 MLOAD DUP1 SWAP2 SUB SWAP1 RETURN JUMPDEST PUSH2 0xF9 PUSH2 0x28B JUMP JUMPDEST PUSH1 0x40 MLOAD PUSH2 0x106 SWAP2 SWAP1 PUSH2 0x5C2 JUMP JUMPDEST PUSH1 0x40 MLOAD DUP1 SWAP2 SUB SWAP1 RETURN JUMPDEST PUSH2 0x117 PUSH2 0x2E9 JUMP JUMPDEST PUSH1 0x40 MLOAD PUSH2 0x124 SWAP2 SWAP1 PUSH2 0x5DD JUMP JUMPDEST PUSH1 0x40 MLOAD DUP1 SWAP2 SUB SWAP1 RETURN JUMPDEST PUSH1 0x60 PUSH1 0x0 DUP4 DUP4 PUSH1 0x40 MLOAD PUSH1 0x20 ADD PUSH2 0x145 SWAP4 SWAP3 SWAP2 SWAP1 PUSH2 0x585 JUMP JUMPDEST PUSH1 0x40 MLOAD PUSH1 0x20 DUP2 DUP4 SUB SUB DUP2 MSTORE SWAP1 PUSH1 0x40 MSTORE SWAP1 POP SWAP3 SWAP2 POP POP JUMP JUMPDEST PUSH1 0x3 PUSH1 0x0 SWAP1 SLOAD SWAP1 PUSH2 0x100 EXP SWAP1 DIV PUSH1 0xFF AND DUP2 JUMP JUMPDEST PUSH1 0x2 DUP1 SLOAD PUSH2 0x17C SWAP1 PUSH2 0x6A9 JUMP JUMPDEST DUP1 PUSH1 0x1F ADD PUSH1 0x20 DUP1 SWAP2 DIV MUL PUSH1 0x20 ADD PUSH1 0x40 MLOAD SWAP1 DUP2 ADD PUSH1 0x40 MSTORE DUP1 SWAP3 SWAP2 SWAP1 DUP2 DUP2 MSTORE PUSH1 0x20 ADD DUP3 DUP1 SLOAD PUSH2 0x1A8 SWAP1 PUSH2 0x6A9 JUMP JUMPDEST DUP1 ISZERO PUSH2 0x1F5 JUMPI DUP1 PUSH1 0x1F LT PUSH2 0x1CA JUMPI PUSH2 0x100 DUP1 DUP4 SLOAD DIV MUL DUP4 MSTORE SWAP2 PUSH1 0x20 ADD SWAP2 PUSH2 0x1F5 JUMP JUMPDEST DUP3 ADD SWAP2 SWAP1 PUSH1 0x0 MSTORE PUSH1 0x20 PUSH1 0x0 KECCAK256 SWAP1 JUMPDEST DUP2 SLOAD DUP2 MSTORE SWAP1 PUSH1 0x1 ADD SWAP1 PUSH1 0x20 ADD DUP1 DUP4 GT PUSH2 0x1D8 JUMPI DUP3 SWAP1 SUB PUSH1 0x1F AND DUP3 ADD SWAP2 JUMPDEST POP POP POP POP POP DUP2 JUMP JUMPDEST PUSH1 0x1 DUP1 SLOAD PUSH2 0x20A SWAP1 PUSH2 0x6A9 JUMP JUMPDEST DUP1 PUSH1 0x1F ADD PUSH1 0x20 DUP1 SWAP2 DIV MUL PUSH1 0x20 ADD PUSH1 0x40 MLOAD SWAP1 DUP2 ADD PUSH1 0x40 MSTORE DUP1 SWAP3 SWAP2 SWAP1 DUP2 DUP2 MSTORE PUSH1 0x20 ADD DUP3 DUP1 SLOAD PUSH2 0x236 SWAP1 PUSH2 0x6A9 JUMP JUMPDEST DUP1 ISZERO PUSH2 0x283 JUMPI DUP1 PUSH1 0x1F LT PUSH2 0x258 JUMPI PUSH2 0x100 DUP1 DUP4 SLOAD DIV MUL DUP4 MSTORE SWAP2 PUSH1 0x20 ADD SWAP2 PUSH2 0x283 JUMP JUMPDEST DUP3 ADD SWAP2 SWAP1 PUSH1 0x0 MSTORE PUSH1 0x20 PUSH1 0x0 KECCAK256 SWAP1 JUMPDEST DUP2 SLOAD DUP2 MSTORE SWAP1 PUSH1 0x1 ADD SWAP1 PUSH1 0x20 ADD DUP1 DUP4 GT PUSH2 0x266 JUMPI DUP3 SWAP1 SUB PUSH1 0x1F AND DUP3 ADD SWAP2 JUMPDEST POP POP POP POP POP DUP2 JUMP JUMPDEST PUSH1 0x0 DUP1 PUSH1 0x1 PUSH1 0x40 MLOAD PUSH1 0x20 ADD PUSH2 0x2A0 SWAP2 SWAP1 PUSH2 0x5AB JUMP JUMPDEST PUSH1 0x40 MLOAD PUSH1 0x20 DUP2 DUP4 SUB SUB DUP2 MSTORE SWAP1 PUSH1 0x40 MSTORE DUP1 MLOAD SWAP1 PUSH1 0x20 ADD KECCAK256 SWAP1 POP PUSH1 0x0 PUSH1 0x1 PUSH1 0x40 MLOAD PUSH1 0x20 ADD PUSH2 0x2CC SWAP2 SWAP1 PUSH2 0x5AB JUMP JUMPDEST PUSH1 0x40 MLOAD PUSH1 0x20 DUP2 DUP4 SUB SUB DUP2 MSTORE SWAP1 PUSH1 0x40 MSTORE DUP1 MLOAD SWAP1 PUSH1 0x20 ADD KECCAK256 SWAP1 POP POP POP SWAP1 JUMP JUMPDEST PUSH1 0x0 DUP1 SLOAD PUSH2 0x2F6 SWAP1 PUSH2 0x6A9 JUMP JUMPDEST DUP1 PUSH1 0x1F ADD PUSH1 0x20 DUP1 SWAP2 DIV MUL PUSH1 0x20 ADD PUSH1 0x40 MLOAD SWAP1 DUP2 ADD PUSH1 0x40 MSTORE DUP1 SWAP3 SWAP2 SWAP1 DUP2 DUP2 MSTORE PUSH1 0x20 ADD DUP3 DUP1 SLOAD PUSH2 0x322 SWAP1 PUSH2 0x6A9 JUMP JUMPDEST DUP1 ISZERO PUSH2 0x36F JUMPI DUP1 PUSH1 0x1F LT PUSH2 0x344 JUMPI PUSH2 0x100 DUP1 DUP4 SLOAD DIV MUL DUP4 MSTORE SWAP2 PUSH1 0x20 ADD SWAP2 PUSH2 0x36F JUMP JUMPDEST DUP3 ADD SWAP2 SWAP1 PUSH1 0x0 MSTORE PUSH1 0x20 PUSH1 0x0 KECCAK256 SWAP1 JUMPDEST DUP2 SLOAD DUP2 MSTORE SWAP1 PUSH1 0x1 ADD SWAP1 PUSH1 0x20 ADD DUP1 DUP4 GT PUSH2 0x352 JUMPI DUP3 SWAP1 SUB PUSH1 0x1F AND DUP3 ADD SWAP2 JUMPDEST POP POP POP POP POP DUP2 JUMP JUMPDEST PUSH1 0x0 DUP1 DUP4 PUSH1 0x1F DUP5 ADD SLT PUSH2 0x38D JUMPI PUSH2 0x38C PUSH2 0x70F JUMP JUMPDEST JUMPDEST DUP3 CALLDATALOAD SWAP1 POP PUSH8 0xFFFFFFFFFFFFFFFF DUP2 GT ISZERO PUSH2 0x3AA JUMPI PUSH2 0x3A9 PUSH2 0x70A JUMP JUMPDEST JUMPDEST PUSH1 0x20 DUP4 ADD SWAP2 POP DUP4 PUSH1 0x1 DUP3 MUL DUP4 ADD GT ISZERO PUSH2 0x3C6 JUMPI PUSH2 0x3C5 PUSH2 0x714 JUMP JUMPDEST JUMPDEST SWAP3 POP SWAP3 SWAP1 POP JUMP JUMPDEST PUSH1 0x0 DUP1 PUSH1 0x20 DUP4 DUP6 SUB SLT ISZERO PUSH2 0x3E4 JUMPI PUSH2 0x3E3 PUSH2 0x71E JUMP JUMPDEST JUMPDEST PUSH1 0x0 DUP4 ADD CALLDATALOAD PUSH8 0xFFFFFFFFFFFFFFFF DUP2 GT ISZERO PUSH2 0x402 JUMPI PUSH2 0x401 PUSH2 0x719 JUMP JUMPDEST JUMPDEST PUSH2 0x40E DUP6 DUP3 DUP7 ADD PUSH2 0x377 JUMP JUMPDEST SWAP3 POP SWAP3 POP POP SWAP3 POP SWAP3 SWAP1 POP JUMP JUMPDEST PUSH2 0x423 DUP2 PUSH2 0x65B JUMP JUMPDEST DUP3 MSTORE POP POP JUMP JUMPDEST PUSH1 0x0 PUSH2 0x435 DUP4 DUP6 PUSH2 0x634 JUMP JUMPDEST SWAP4 POP PUSH2 0x442 DUP4 DUP6 DUP5 PUSH2 0x667 JUMP JUMPDEST DUP3 DUP5 ADD SWAP1 POP SWAP4 SWAP3 POP POP POP JUMP JUMPDEST PUSH1 0x0 DUP2 SLOAD PUSH2 0x45B DUP2 PUSH2 0x6A9 JUMP JUMPDEST PUSH2 0x465 DUP2 DUP7 PUSH2 0x634 JUMP JUMPDEST SWAP5 POP PUSH1 0x1 DUP3 AND PUSH1 0x0 DUP2 EQ PUSH2 0x480 JUMPI PUSH1 0x1 DUP2 EQ PUSH2 0x491 JUMPI PUSH2 0x4C4 JUMP JUMPDEST PUSH1 0xFF NOT DUP4 AND DUP7 MSTORE DUP2 DUP7 ADD SWAP4 POP PUSH2 0x4C4 JUMP JUMPDEST PUSH2 0x49A DUP6 PUSH2 0x5FF JUMP JUMPDEST PUSH1 0x0 JUMPDEST DUP4 DUP2 LT ISZERO PUSH2 0x4BC JUMPI DUP2 SLOAD DUP2 DUP10 ADD MSTORE PUSH1 0x1 DUP3 ADD SWAP2 POP PUSH1 0x20 DUP2 ADD SWAP1 POP PUSH2 0x49D JUMP JUMPDEST DUP4 DUP9 ADD SWAP6 POP POP POP JUMPDEST POP POP POP SWAP3 SWAP2 POP POP JUMP JUMPDEST PUSH1 0x0 PUSH2 0x4D8 DUP3 PUSH2 0x629 JUMP JUMPDEST PUSH2 0x4E2 DUP2 DUP6 PUSH2 0x63F JUMP JUMPDEST SWAP4 POP PUSH2 0x4F2 DUP2 DUP6 PUSH1 0x20 DUP7 ADD PUSH2 0x676 JUMP JUMPDEST PUSH2 0x4FB DUP2 PUSH2 0x723 JUMP JUMPDEST DUP5 ADD SWAP2 POP POP SWAP3 SWAP2 POP POP JUMP JUMPDEST PUSH1 0x0 DUP2 SLOAD PUSH2 0x513 DUP2 PUSH2 0x6A9 JUMP JUMPDEST PUSH2 0x51D DUP2 DUP7 PUSH2 0x650 JUMP JUMPDEST SWAP5 POP PUSH1 0x1 DUP3 AND PUSH1 0x0 DUP2 EQ PUSH2 0x538 JUMPI PUSH1 0x1 DUP2 EQ PUSH2 0x549 JUMPI PUSH2 0x57C JUMP JUMPDEST PUSH1 0xFF NOT DUP4 AND DUP7 MSTORE DUP2 DUP7 ADD SWAP4 POP PUSH2 0x57C JUMP JUMPDEST PUSH2 0x552 DUP6 PUSH2 0x614 JUMP JUMPDEST PUSH1 0x0 JUMPDEST DUP4 DUP2 LT ISZERO PUSH2 0x574 JUMPI DUP2 SLOAD DUP2 DUP10 ADD MSTORE PUSH1 0x1 DUP3 ADD SWAP2 POP PUSH1 0x20 DUP2 ADD SWAP1 POP PUSH2 0x555 JUMP JUMPDEST DUP4 DUP9 ADD SWAP6 POP POP POP JUMPDEST POP POP POP SWAP3 SWAP2 POP POP JUMP JUMPDEST PUSH1 0x0 PUSH2 0x591 DUP3 DUP7 PUSH2 0x44E JUMP JUMPDEST SWAP2 POP PUSH2 0x59E DUP3 DUP5 DUP7 PUSH2 0x429 JUMP JUMPDEST SWAP2 POP DUP2 SWAP1 POP SWAP5 SWAP4 POP POP POP POP JUMP JUMPDEST PUSH1 0x0 PUSH2 0x5B7 DUP3 DUP5 PUSH2 0x506 JUMP JUMPDEST SWAP2 POP DUP2 SWAP1 POP SWAP3 SWAP2 POP POP JUMP JUMPDEST PUSH1 0x0 PUSH1 0x20 DUP3 ADD SWAP1 POP PUSH2 0x5D7 PUSH1 0x0 DUP4 ADD DUP5 PUSH2 0x41A JUMP JUMPDEST SWAP3 SWAP2 POP POP JUMP JUMPDEST PUSH1 0x0 PUSH1 0x20 DUP3 ADD SWAP1 POP DUP2 DUP2 SUB PUSH1 0x0 DUP4 ADD MSTORE PUSH2 0x5F7 DUP2 DUP5 PUSH2 0x4CD JUMP JUMPDEST SWAP1 POP SWAP3 SWAP2 POP POP JUMP JUMPDEST PUSH1 0x0 DUP2 SWAP1 POP DUP2 PUSH1 0x0 MSTORE PUSH1 0x20 PUSH1 0x0 KECCAK256 SWAP1 POP SWAP2 SWAP1 POP JUMP JUMPDEST PUSH1 0x0 DUP2 SWAP1 POP DUP2 PUSH1 0x0 MSTORE PUSH1 0x20 PUSH1 0x0 KECCAK256 SWAP1 POP SWAP2 SWAP1 POP JUMP JUMPDEST PUSH1 0x0 DUP2 MLOAD SWAP1 POP SWAP2 SWAP1 POP JUMP JUMPDEST PUSH1 0x0 DUP2 SWAP1 POP SWAP3 SWAP2 POP POP JUMP JUMPDEST PUSH1 0x0 DUP3 DUP3 MSTORE PUSH1 0x20 DUP3 ADD SWAP1 POP SWAP3 SWAP2 POP POP JUMP JUMPDEST PUSH1 0x0 DUP2 SWAP1 POP SWAP3 SWAP2 POP POP JUMP JUMPDEST PUSH1 0x0 DUP2 ISZERO ISZERO SWAP1 POP SWAP2 SWAP1 POP JUMP JUMPDEST DUP3 DUP2 DUP4 CALLDATACOPY PUSH1 0x0 DUP4 DUP4 ADD MSTORE POP POP POP JUMP JUMPDEST PUSH1 0x0 JUMPDEST DUP4 DUP2 LT ISZERO PUSH2 0x694 JUMPI DUP1 DUP3 ADD MLOAD DUP2 DUP5 ADD MSTORE PUSH1 0x20 DUP2 ADD SWAP1 POP PUSH2 0x679 JUMP JUMPDEST DUP4 DUP2 GT ISZERO PUSH2 0x6A3 JUMPI PUSH1 0x0 DUP5 DUP5 ADD MSTORE JUMPDEST POP POP POP POP JUMP JUMPDEST PUSH1 0x0 PUSH1 0x2 DUP3 DIV SWAP1 POP PUSH1 0x1 DUP3 AND DUP1 PUSH2 0x6C1 JUMPI PUSH1 0x7F DUP3 AND SWAP2 POP JUMPDEST PUSH1 0x20 DUP3 LT DUP2 EQ ISZERO PUSH2 0x6D5 JUMPI PUSH2 0x6D4 PUSH2 0x6DB JUMP JUMPDEST JUMPDEST POP SWAP2 SWAP1 POP JUMP JUMPDEST PUSH32 0x4E487B7100000000000000000000000000000000000000000000000000000000 PUSH1 0x0 MSTORE PUSH1 0x22 PUSH1 0x4 MSTORE PUSH1 0x24 PUSH1 0x0 REVERT JUMPDEST PUSH1 0x0 DUP1 REVERT JUMPDEST PUSH1 0x0 DUP1 REVERT JUMPDEST PUSH1 0x0 DUP1 REVERT JUMPDEST PUSH1 0x0 DUP1 REVERT JUMPDEST PUSH1 0x0 DUP1 REVERT JUMPDEST PUSH1 0x0 PUSH1 0x1F NOT PUSH1 0x1F DUP4 ADD AND SWAP1 POP SWAP2 SWAP1 POP JUMP INVALID LOG2 PUSH5 0x6970667358 0x22 SLT KECCAK256 LOG4 PUSH16 0x7918EC8E29A08C0F17F06C260E465A55 ISZERO PUSH21 0xF014E4255061C805A4D7FF8C64736F6C6343000807 STOP CALLER "
				},
				"gasEstimates": {
					"creation": {
						"codeDepositCost": "379600",
						"executionCost": "infinite",
						"totalCost": "infinite"
					},
					"external": {
						"equal()": "2471",
						"greet()": "infinite",
						"isEqual()": "infinite",
						"s()": "infinite",
						"s1()": "infinite",
						"str(string)": "infinite"
					}
				},
				"methodIdentifiers": {
					"equal()": "1e228514",
					"greet()": "cfae3217",
					"isEqual()": "acbe8452",
					"s()": "86b714e2",
					"s1()": "6cc014de",
					"str(string)": "09fca94f"
				}
			},
			"storageLayout": {
				"storage": [
					{
						"astId": 4,
						"contract": "study/chapter07/stirngOpt.sol:Hello",
						"label": "greet",
						"offset": 0,
						"slot": "0",
						"type": "t_string_storage"
					},
					{
						"astId": 31,
						"contract": "study/chapter07/stirngOpt.sol:Hello",
						"label": "s",
						"offset": 0,
						"slot": "1",
						"type": "t_string_storage"
					},
					{
						"astId": 34,
						"contract": "study/chapter07/stirngOpt.sol:Hello",
						"label": "s1",
						"offset": 0,
						"slot": "2",
						"type": "t_string_storage"
					},
					{
						"astId": 36,
						"contract": "study/chapter07/stirngOpt.sol:Hello",
						"label": "equal",
						"offset": 0,
						"slot": "3",
						"type": "t_bool"
					}
				],
				"types": {
					"t_bool": {
						"encoding": "inplace",
						"label": "bool",
						"numberOfBytes": "1"
					},
					"t_string_storage": {
						"encoding": "bytes",
						"label": "string",
						"numberOfBytes": "32"
					}
				}
			},
			"userdoc": {
				"kind": "user",
				"methods": {},
				"version": 1
			}
		}
	}
}