{
	"study/chapter07/arrySlice.sol": {
		"testArrySlice": {
			"abi": [
				{
					"inputs": [
						{
							"internalType": "address",
							"name": "client_",
							"type": "address"
						}
					],
					"stateMutability": "nonpayable",
					"type": "constructor"
				},
				{
					"inputs": [],
					"name": "b",
					"outputs": [
						{
							"internalType": "bytes",
							"name": "",
							"type": "bytes"
						}
					],
					"stateMutability": "view",
					"type": "function"
				},
				{
					"inputs": [
						{
							"internalType": "bytes",
							"name": "payload",
							"type": "bytes"
						}
					],
					"name": "forward",
					"outputs": [],
					"stateMutability": "nonpayable",
					"type": "function"
				}
			],
			"devdoc": {
				"kind": "dev",
				"methods": {},
				"version": 1
			},
			"evm": {
				"assembly": "    /* \"study/chapter07/arrySlice.sol\":54:906  contract testArrySlice{... */\n  mstore(0x40, 0x80)\n    /* \"study/chapter07/arrySlice.sol\":242:279  abi.encodePacked(\"setOwner(address)\") */\n  add(0x20, mload(0x40))\n  tag_1\n  swap1\n  tag_2\n  jump\t// in\ntag_1:\n  mload(0x40)\n  0x20\n  dup2\n  dup4\n  sub\n  sub\n  dup2\n  mstore\n  swap1\n  0x40\n  mstore\n    /* \"study/chapter07/arrySlice.sol\":225:279  bytes public b = abi.encodePacked(\"setOwner(address)\") */\n  0x01\n  swap1\n  dup2\n  tag_3\n  swap2\n  swap1\n  tag_4\n  jump\t// in\ntag_3:\n  pop\n    /* \"study/chapter07/arrySlice.sol\":158:220  constructor(address client_) {... */\n  callvalue\n  dup1\n  iszero\n  tag_5\n  jumpi\n  0x00\n  dup1\n  revert\ntag_5:\n  pop\n  mload(0x40)\n  sub(codesize, bytecodeSize)\n  dup1\n  bytecodeSize\n  dup4\n  codecopy\n  dup2\n  dup2\n  add\n  0x40\n  mstore\n  dup2\n  add\n  swap1\n  tag_6\n  swap2\n  swap1\n  tag_7\n  jump\t// in\ntag_6:\n    /* \"study/chapter07/arrySlice.sol\":206:213  client_ */\n  dup1\n    /* \"study/chapter07/arrySlice.sol\":197:203  client */\n  0x00\n  dup1\n    /* \"study/chapter07/arrySlice.sol\":197:213  client = client_ */\n  0x0100\n  exp\n  dup2\n  sload\n  dup2\n  0xffffffffffffffffffffffffffffffffffffffff\n  mul\n  not\n  and\n  swap1\n  dup4\n  0xffffffffffffffffffffffffffffffffffffffff\n  and\n  mul\n  or\n  swap1\n  sstore\n  pop\n    /* \"study/chapter07/arrySlice.sol\":158:220  constructor(address client_) {... */\n  pop\n    /* \"study/chapter07/arrySlice.sol\":54:906  contract testArrySlice{... */\n  jump(tag_10)\n    /* \"#utility.yul\":7:155   */\ntag_11:\n    /* \"#utility.yul\":109:120   */\n  0x00\n    /* \"#utility.yul\":146:149   */\n  dup2\n    /* \"#utility.yul\":131:149   */\n  swap1\n  pop\n    /* \"#utility.yul\":7:155   */\n  swap3\n  swap2\n  pop\n  pop\n  jump\t// out\n    /* \"#utility.yul\":161:328   */\ntag_12:\n    /* \"#utility.yul\":301:320   */\n  0x7365744f776e6572286164647265737329000000000000000000000000000000\n    /* \"#utility.yul\":297:298   */\n  0x00\n    /* \"#utility.yul\":289:295   */\n  dup3\n    /* \"#utility.yul\":285:299   */\n  add\n    /* \"#utility.yul\":278:321   */\n  mstore\n    /* \"#utility.yul\":161:328   */\n  pop\n  jump\t// out\n    /* \"#utility.yul\":334:736   */\ntag_13:\n    /* \"#utility.yul\":494:497   */\n  0x00\n    /* \"#utility.yul\":515:600   */\n  tag_45\n    /* \"#utility.yul\":597:599   */\n  0x11\n    /* \"#utility.yul\":592:595   */\n  dup4\n    /* \"#utility.yul\":515:600   */\n  tag_11\n  jump\t// in\ntag_45:\n    /* \"#utility.yul\":508:600   */\n  swap2\n  pop\n    /* \"#utility.yul\":609:702   */\n  tag_46\n    /* \"#utility.yul\":698:701   */\n  dup3\n    /* \"#utility.yul\":609:702   */\n  tag_12\n  jump\t// in\ntag_46:\n    /* \"#utility.yul\":727:729   */\n  0x11\n    /* \"#utility.yul\":722:725   */\n  dup3\n    /* \"#utility.yul\":718:730   */\n  add\n    /* \"#utility.yul\":711:730   */\n  swap1\n  pop\n    /* \"#utility.yul\":334:736   */\n  swap2\n  swap1\n  pop\n  jump\t// out\n    /* \"#utility.yul\":742:1123   */\ntag_2:\n    /* \"#utility.yul\":927:930   */\n  0x00\n    /* \"#utility.yul\":949:1097   */\n  tag_48\n    /* \"#utility.yul\":1093:1096   */\n  dup3\n    /* \"#utility.yul\":949:1097   */\n  tag_13\n  jump\t// in\ntag_48:\n    /* \"#utility.yul\":942:1097   */\n  swap2\n  pop\n    /* \"#utility.yul\":1114:1117   */\n  dup2\n    /* \"#utility.yul\":1107:1117   */\n  swap1\n  pop\n    /* \"#utility.yul\":742:1123   */\n  swap2\n  swap1\n  pop\n  jump\t// out\n    /* \"#utility.yul\":1129:1227   */\ntag_14:\n    /* \"#utility.yul\":1180:1186   */\n  0x00\n    /* \"#utility.yul\":1214:1219   */\n  dup2\n    /* \"#utility.yul\":1208:1220   */\n  mload\n    /* \"#utility.yul\":1198:1220   */\n  swap1\n  pop\n    /* \"#utility.yul\":1129:1227   */\n  swap2\n  swap1\n  pop\n  jump\t// out\n    /* \"#utility.yul\":1233:1413   */\ntag_15:\n    /* \"#utility.yul\":1281:1358   */\n  0x4e487b7100000000000000000000000000000000000000000000000000000000\n    /* \"#utility.yul\":1278:1279   */\n  0x00\n    /* \"#utility.yul\":1271:1359   */\n  mstore\n    /* \"#utility.yul\":1378:1382   */\n  0x41\n    /* \"#utility.yul\":1375:1376   */\n  0x04\n    /* \"#utility.yul\":1368:1383   */\n  mstore\n    /* \"#utility.yul\":1402:1406   */\n  0x24\n    /* \"#utility.yul\":1399:1400   */\n  0x00\n    /* \"#utility.yul\":1392:1407   */\n  revert\n    /* \"#utility.yul\":1419:1599   */\ntag_16:\n    /* \"#utility.yul\":1467:1544   */\n  0x4e487b7100000000000000000000000000000000000000000000000000000000\n    /* \"#utility.yul\":1464:1465   */\n  0x00\n    /* \"#utility.yul\":1457:1545   */\n  mstore\n    /* \"#utility.yul\":1564:1568   */\n  0x22\n    /* \"#utility.yul\":1561:1562   */\n  0x04\n    /* \"#utility.yul\":1554:1569   */\n  mstore\n    /* \"#utility.yul\":1588:1592   */\n  0x24\n    /* \"#utility.yul\":1585:1586   */\n  0x00\n    /* \"#utility.yul\":1578:1593   */\n  revert\n    /* \"#utility.yul\":1605:1925   */\ntag_17:\n    /* \"#utility.yul\":1649:1655   */\n  0x00\n    /* \"#utility.yul\":1686:1687   */\n  0x02\n    /* \"#utility.yul\":1680:1684   */\n  dup3\n    /* \"#utility.yul\":1676:1688   */\n  div\n    /* \"#utility.yul\":1666:1688   */\n  swap1\n  pop\n    /* \"#utility.yul\":1733:1734   */\n  0x01\n    /* \"#utility.yul\":1727:1731   */\n  dup3\n    /* \"#utility.yul\":1723:1735   */\n  and\n    /* \"#utility.yul\":1754:1772   */\n  dup1\n    /* \"#utility.yul\":1744:1825   */\n  tag_53\n  jumpi\n    /* \"#utility.yul\":1810:1814   */\n  0x7f\n    /* \"#utility.yul\":1802:1808   */\n  dup3\n    /* \"#utility.yul\":1798:1815   */\n  and\n    /* \"#utility.yul\":1788:1815   */\n  swap2\n  pop\n    /* \"#utility.yul\":1744:1825   */\ntag_53:\n    /* \"#utility.yul\":1872:1874   */\n  0x20\n    /* \"#utility.yul\":1864:1870   */\n  dup3\n    /* \"#utility.yul\":1861:1875   */\n  lt\n    /* \"#utility.yul\":1841:1859   */\n  dup2\n    /* \"#utility.yul\":1838:1876   */\n  sub\n    /* \"#utility.yul\":1835:1919   */\n  tag_54\n  jumpi\n    /* \"#utility.yul\":1891:1909   */\n  tag_55\n  tag_16\n  jump\t// in\ntag_55:\n    /* \"#utility.yul\":1835:1919   */\ntag_54:\n    /* \"#utility.yul\":1656:1925   */\n  pop\n    /* \"#utility.yul\":1605:1925   */\n  swap2\n  swap1\n  pop\n  jump\t// out\n    /* \"#utility.yul\":1931:2071   */\ntag_18:\n    /* \"#utility.yul\":1979:1983   */\n  0x00\n    /* \"#utility.yul\":2002:2005   */\n  dup2\n    /* \"#utility.yul\":1994:2005   */\n  swap1\n  pop\n    /* \"#utility.yul\":2025:2028   */\n  dup2\n    /* \"#utility.yul\":2022:2023   */\n  0x00\n    /* \"#utility.yul\":2015:2029   */\n  mstore\n    /* \"#utility.yul\":2059:2063   */\n  0x20\n    /* \"#utility.yul\":2056:2057   */\n  0x00\n    /* \"#utility.yul\":2046:2064   */\n  keccak256\n    /* \"#utility.yul\":2038:2064   */\n  swap1\n  pop\n    /* \"#utility.yul\":1931:2071   */\n  swap2\n  swap1\n  pop\n  jump\t// out\n    /* \"#utility.yul\":2077:2170   */\ntag_19:\n    /* \"#utility.yul\":2114:2120   */\n  0x00\n    /* \"#utility.yul\":2161:2163   */\n  0x20\n    /* \"#utility.yul\":2156:2158   */\n  0x1f\n    /* \"#utility.yul\":2149:2154   */\n  dup4\n    /* \"#utility.yul\":2145:2159   */\n  add\n    /* \"#utility.yul\":2141:2164   */\n  div\n    /* \"#utility.yul\":2131:2164   */\n  swap1\n  pop\n    /* \"#utility.yul\":2077:2170   */\n  swap2\n  swap1\n  pop\n  jump\t// out\n    /* \"#utility.yul\":2176:2283   */\ntag_20:\n    /* \"#utility.yul\":2220:2228   */\n  0x00\n    /* \"#utility.yul\":2270:2275   */\n  dup3\n    /* \"#utility.yul\":2264:2268   */\n  dup3\n    /* \"#utility.yul\":2260:2276   */\n  shl\n    /* \"#utility.yul\":2239:2276   */\n  swap1\n  pop\n    /* \"#utility.yul\":2176:2283   */\n  swap3\n  swap2\n  pop\n  pop\n  jump\t// out\n    /* \"#utility.yul\":2289:2682   */\ntag_21:\n    /* \"#utility.yul\":2358:2364   */\n  0x00\n    /* \"#utility.yul\":2408:2409   */\n  0x08\n    /* \"#utility.yul\":2396:2406   */\n  dup4\n    /* \"#utility.yul\":2392:2410   */\n  mul\n    /* \"#utility.yul\":2431:2528   */\n  tag_60\n    /* \"#utility.yul\":2461:2527   */\n  0xffffffffffffffffffffffffffffffffffffffffffffffffffffffffffffffff\n    /* \"#utility.yul\":2450:2459   */\n  dup3\n    /* \"#utility.yul\":2431:2528   */\n  tag_20\n  jump\t// in\ntag_60:\n    /* \"#utility.yul\":2549:2588   */\n  tag_61\n    /* \"#utility.yul\":2579:2587   */\n  dup7\n    /* \"#utility.yul\":2568:2577   */\n  dup4\n    /* \"#utility.yul\":2549:2588   */\n  tag_20\n  jump\t// in\ntag_61:\n    /* \"#utility.yul\":2537:2588   */\n  swap6\n  pop\n    /* \"#utility.yul\":2621:2625   */\n  dup1\n    /* \"#utility.yul\":2617:2626   */\n  not\n    /* \"#utility.yul\":2610:2615   */\n  dup5\n    /* \"#utility.yul\":2606:2627   */\n  and\n    /* \"#utility.yul\":2597:2627   */\n  swap4\n  pop\n    /* \"#utility.yul\":2670:2674   */\n  dup1\n    /* \"#utility.yul\":2660:2668   */\n  dup7\n    /* \"#utility.yul\":2656:2675   */\n  and\n    /* \"#utility.yul\":2649:2654   */\n  dup5\n    /* \"#utility.yul\":2646:2676   */\n  or\n    /* \"#utility.yul\":2636:2676   */\n  swap3\n  pop\n    /* \"#utility.yul\":2365:2682   */\n  pop\n  pop\n    /* \"#utility.yul\":2289:2682   */\n  swap4\n  swap3\n  pop\n  pop\n  pop\n  jump\t// out\n    /* \"#utility.yul\":2688:2765   */\ntag_22:\n    /* \"#utility.yul\":2725:2732   */\n  0x00\n    /* \"#utility.yul\":2754:2759   */\n  dup2\n    /* \"#utility.yul\":2743:2759   */\n  swap1\n  pop\n    /* \"#utility.yul\":2688:2765   */\n  swap2\n  swap1\n  pop\n  jump\t// out\n    /* \"#utility.yul\":2771:2831   */\ntag_23:\n    /* \"#utility.yul\":2799:2802   */\n  0x00\n    /* \"#utility.yul\":2820:2825   */\n  dup2\n    /* \"#utility.yul\":2813:2825   */\n  swap1\n  pop\n    /* \"#utility.yul\":2771:2831   */\n  swap2\n  swap1\n  pop\n  jump\t// out\n    /* \"#utility.yul\":2837:2979   */\ntag_24:\n    /* \"#utility.yul\":2887:2896   */\n  0x00\n    /* \"#utility.yul\":2920:2973   */\n  tag_65\n    /* \"#utility.yul\":2938:2972   */\n  tag_66\n    /* \"#utility.yul\":2947:2971   */\n  tag_67\n    /* \"#utility.yul\":2965:2970   */\n  dup5\n    /* \"#utility.yul\":2947:2971   */\n  tag_22\n  jump\t// in\ntag_67:\n    /* \"#utility.yul\":2938:2972   */\n  tag_23\n  jump\t// in\ntag_66:\n    /* \"#utility.yul\":2920:2973   */\n  tag_22\n  jump\t// in\ntag_65:\n    /* \"#utility.yul\":2907:2973   */\n  swap1\n  pop\n    /* \"#utility.yul\":2837:2979   */\n  swap2\n  swap1\n  pop\n  jump\t// out\n    /* \"#utility.yul\":2985:3060   */\ntag_25:\n    /* \"#utility.yul\":3028:3031   */\n  0x00\n    /* \"#utility.yul\":3049:3054   */\n  dup2\n    /* \"#utility.yul\":3042:3054   */\n  swap1\n  pop\n    /* \"#utility.yul\":2985:3060   */\n  swap2\n  swap1\n  pop\n  jump\t// out\n    /* \"#utility.yul\":3066:3335   */\ntag_26:\n    /* \"#utility.yul\":3176:3215   */\n  tag_70\n    /* \"#utility.yul\":3207:3214   */\n  dup4\n    /* \"#utility.yul\":3176:3215   */\n  tag_24\n  jump\t// in\ntag_70:\n    /* \"#utility.yul\":3237:3328   */\n  tag_71\n    /* \"#utility.yul\":3286:3327   */\n  tag_72\n    /* \"#utility.yul\":3310:3326   */\n  dup3\n    /* \"#utility.yul\":3286:3327   */\n  tag_25\n  jump\t// in\ntag_72:\n    /* \"#utility.yul\":3278:3284   */\n  dup5\n    /* \"#utility.yul\":3271:3275   */\n  dup5\n    /* \"#utility.yul\":3265:3276   */\n  sload\n    /* \"#utility.yul\":3237:3328   */\n  tag_21\n  jump\t// in\ntag_71:\n    /* \"#utility.yul\":3231:3235   */\n  dup3\n    /* \"#utility.yul\":3224:3329   */\n  sstore\n    /* \"#utility.yul\":3142:3335   */\n  pop\n    /* \"#utility.yul\":3066:3335   */\n  pop\n  pop\n  pop\n  jump\t// out\n    /* \"#utility.yul\":3341:3414   */\ntag_27:\n    /* \"#utility.yul\":3386:3389   */\n  0x00\n    /* \"#utility.yul\":3341:3414   */\n  swap1\n  jump\t// out\n    /* \"#utility.yul\":3420:3609   */\ntag_28:\n    /* \"#utility.yul\":3497:3529   */\n  tag_75\n  tag_27\n  jump\t// in\ntag_75:\n    /* \"#utility.yul\":3538:3603   */\n  tag_76\n    /* \"#utility.yul\":3596:3602   */\n  dup2\n    /* \"#utility.yul\":3588:3594   */\n  dup5\n    /* \"#utility.yul\":3582:3586   */\n  dup5\n    /* \"#utility.yul\":3538:3603   */\n  tag_26\n  jump\t// in\ntag_76:\n    /* \"#utility.yul\":3473:3609   */\n  pop\n    /* \"#utility.yul\":3420:3609   */\n  pop\n  pop\n  jump\t// out\n    /* \"#utility.yul\":3615:3801   */\ntag_29:\n    /* \"#utility.yul\":3675:3795   */\ntag_78:\n    /* \"#utility.yul\":3692:3695   */\n  dup2\n    /* \"#utility.yul\":3685:3690   */\n  dup2\n    /* \"#utility.yul\":3682:3696   */\n  lt\n    /* \"#utility.yul\":3675:3795   */\n  iszero\n  tag_80\n  jumpi\n    /* \"#utility.yul\":3746:3785   */\n  tag_81\n    /* \"#utility.yul\":3783:3784   */\n  0x00\n    /* \"#utility.yul\":3776:3781   */\n  dup3\n    /* \"#utility.yul\":3746:3785   */\n  tag_28\n  jump\t// in\ntag_81:\n    /* \"#utility.yul\":3719:3720   */\n  0x01\n    /* \"#utility.yul\":3712:3717   */\n  dup2\n    /* \"#utility.yul\":3708:3721   */\n  add\n    /* \"#utility.yul\":3699:3721   */\n  swap1\n  pop\n    /* \"#utility.yul\":3675:3795   */\n  jump(tag_78)\ntag_80:\n    /* \"#utility.yul\":3615:3801   */\n  pop\n  pop\n  jump\t// out\n    /* \"#utility.yul\":3807:4348   */\ntag_30:\n    /* \"#utility.yul\":3907:3909   */\n  0x1f\n    /* \"#utility.yul\":3902:3905   */\n  dup3\n    /* \"#utility.yul\":3899:3910   */\n  gt\n    /* \"#utility.yul\":3896:4341   */\n  iszero\n  tag_83\n  jumpi\n    /* \"#utility.yul\":3941:3978   */\n  tag_84\n    /* \"#utility.yul\":3972:3977   */\n  dup2\n    /* \"#utility.yul\":3941:3978   */\n  tag_18\n  jump\t// in\ntag_84:\n    /* \"#utility.yul\":4024:4053   */\n  tag_85\n    /* \"#utility.yul\":4042:4052   */\n  dup5\n    /* \"#utility.yul\":4024:4053   */\n  tag_19\n  jump\t// in\ntag_85:\n    /* \"#utility.yul\":4014:4022   */\n  dup2\n    /* \"#utility.yul\":4010:4054   */\n  add\n    /* \"#utility.yul\":4207:4209   */\n  0x20\n    /* \"#utility.yul\":4195:4205   */\n  dup6\n    /* \"#utility.yul\":4192:4210   */\n  lt\n    /* \"#utility.yul\":4189:4238   */\n  iszero\n  tag_86\n  jumpi\n    /* \"#utility.yul\":4228:4236   */\n  dup2\n    /* \"#utility.yul\":4213:4236   */\n  swap1\n  pop\n    /* \"#utility.yul\":4189:4238   */\ntag_86:\n    /* \"#utility.yul\":4251:4331   */\n  tag_87\n    /* \"#utility.yul\":4307:4329   */\n  tag_88\n    /* \"#utility.yul\":4325:4328   */\n  dup6\n    /* \"#utility.yul\":4307:4329   */\n  tag_19\n  jump\t// in\ntag_88:\n    /* \"#utility.yul\":4297:4305   */\n  dup4\n    /* \"#utility.yul\":4293:4330   */\n  add\n    /* \"#utility.yul\":4280:4291   */\n  dup3\n    /* \"#utility.yul\":4251:4331   */\n  tag_29\n  jump\t// in\ntag_87:\n    /* \"#utility.yul\":3911:4341   */\n  pop\n  pop\n    /* \"#utility.yul\":3896:4341   */\ntag_83:\n    /* \"#utility.yul\":3807:4348   */\n  pop\n  pop\n  pop\n  jump\t// out\n    /* \"#utility.yul\":4354:4471   */\ntag_31:\n    /* \"#utility.yul\":4408:4416   */\n  0x00\n    /* \"#utility.yul\":4458:4463   */\n  dup3\n    /* \"#utility.yul\":4452:4456   */\n  dup3\n    /* \"#utility.yul\":4448:4464   */\n  shr\n    /* \"#utility.yul\":4427:4464   */\n  swap1\n  pop\n    /* \"#utility.yul\":4354:4471   */\n  swap3\n  swap2\n  pop\n  pop\n  jump\t// out\n    /* \"#utility.yul\":4477:4646   */\ntag_32:\n    /* \"#utility.yul\":4521:4527   */\n  0x00\n    /* \"#utility.yul\":4554:4605   */\n  tag_91\n    /* \"#utility.yul\":4602:4603   */\n  0x00\n    /* \"#utility.yul\":4598:4604   */\n  not\n    /* \"#utility.yul\":4590:4595   */\n  dup5\n    /* \"#utility.yul\":4587:4588   */\n  0x08\n    /* \"#utility.yul\":4583:4596   */\n  mul\n    /* \"#utility.yul\":4554:4605   */\n  tag_31\n  jump\t// in\ntag_91:\n    /* \"#utility.yul\":4550:4606   */\n  not\n    /* \"#utility.yul\":4635:4639   */\n  dup1\n    /* \"#utility.yul\":4629:4633   */\n  dup4\n    /* \"#utility.yul\":4625:4640   */\n  and\n    /* \"#utility.yul\":4615:4640   */\n  swap2\n  pop\n    /* \"#utility.yul\":4528:4646   */\n  pop\n    /* \"#utility.yul\":4477:4646   */\n  swap3\n  swap2\n  pop\n  pop\n  jump\t// out\n    /* \"#utility.yul\":4651:4946   */\ntag_33:\n    /* \"#utility.yul\":4727:4731   */\n  0x00\n    /* \"#utility.yul\":4873:4902   */\n  tag_93\n    /* \"#utility.yul\":4898:4901   */\n  dup4\n    /* \"#utility.yul\":4892:4896   */\n  dup4\n    /* \"#utility.yul\":4873:4902   */\n  tag_32\n  jump\t// in\ntag_93:\n    /* \"#utility.yul\":4865:4902   */\n  swap2\n  pop\n    /* \"#utility.yul\":4935:4938   */\n  dup3\n    /* \"#utility.yul\":4932:4933   */\n  0x02\n    /* \"#utility.yul\":4928:4939   */\n  mul\n    /* \"#utility.yul\":4922:4926   */\n  dup3\n    /* \"#utility.yul\":4919:4940   */\n  or\n    /* \"#utility.yul\":4911:4940   */\n  swap1\n  pop\n    /* \"#utility.yul\":4651:4946   */\n  swap3\n  swap2\n  pop\n  pop\n  jump\t// out\n    /* \"#utility.yul\":4951:6341   */\ntag_4:\n    /* \"#utility.yul\":5066:5102   */\n  tag_95\n    /* \"#utility.yul\":5098:5101   */\n  dup3\n    /* \"#utility.yul\":5066:5102   */\n  tag_14\n  jump\t// in\ntag_95:\n    /* \"#utility.yul\":5167:5185   */\n  0xffffffffffffffff\n    /* \"#utility.yul\":5159:5165   */\n  dup2\n    /* \"#utility.yul\":5156:5186   */\n  gt\n    /* \"#utility.yul\":5153:5209   */\n  iszero\n  tag_96\n  jumpi\n    /* \"#utility.yul\":5189:5207   */\n  tag_97\n  tag_15\n  jump\t// in\ntag_97:\n    /* \"#utility.yul\":5153:5209   */\ntag_96:\n    /* \"#utility.yul\":5233:5271   */\n  tag_98\n    /* \"#utility.yul\":5265:5269   */\n  dup3\n    /* \"#utility.yul\":5259:5270   */\n  sload\n    /* \"#utility.yul\":5233:5271   */\n  tag_17\n  jump\t// in\ntag_98:\n    /* \"#utility.yul\":5318:5384   */\n  tag_99\n    /* \"#utility.yul\":5377:5383   */\n  dup3\n    /* \"#utility.yul\":5369:5375   */\n  dup3\n    /* \"#utility.yul\":5363:5367   */\n  dup6\n    /* \"#utility.yul\":5318:5384   */\n  tag_30\n  jump\t// in\ntag_99:\n    /* \"#utility.yul\":5411:5412   */\n  0x00\n    /* \"#utility.yul\":5435:5439   */\n  0x20\n    /* \"#utility.yul\":5422:5439   */\n  swap1\n  pop\n    /* \"#utility.yul\":5467:5469   */\n  0x1f\n    /* \"#utility.yul\":5459:5465   */\n  dup4\n    /* \"#utility.yul\":5456:5470   */\n  gt\n    /* \"#utility.yul\":5484:5485   */\n  0x01\n    /* \"#utility.yul\":5479:6096   */\n  dup2\n  eq\n  tag_101\n  jumpi\n    /* \"#utility.yul\":6140:6141   */\n  0x00\n    /* \"#utility.yul\":6157:6163   */\n  dup5\n    /* \"#utility.yul\":6154:6231   */\n  iszero\n  tag_102\n  jumpi\n    /* \"#utility.yul\":6206:6215   */\n  dup3\n    /* \"#utility.yul\":6201:6204   */\n  dup8\n    /* \"#utility.yul\":6197:6216   */\n  add\n    /* \"#utility.yul\":6191:6217   */\n  mload\n    /* \"#utility.yul\":6182:6217   */\n  swap1\n  pop\n    /* \"#utility.yul\":6154:6231   */\ntag_102:\n    /* \"#utility.yul\":6257:6324   */\n  tag_103\n    /* \"#utility.yul\":6317:6323   */\n  dup6\n    /* \"#utility.yul\":6310:6315   */\n  dup3\n    /* \"#utility.yul\":6257:6324   */\n  tag_33\n  jump\t// in\ntag_103:\n    /* \"#utility.yul\":6251:6255   */\n  dup7\n    /* \"#utility.yul\":6244:6325   */\n  sstore\n    /* \"#utility.yul\":6113:6335   */\n  pop\n    /* \"#utility.yul\":5449:6335   */\n  jump(tag_100)\n    /* \"#utility.yul\":5479:6096   */\ntag_101:\n    /* \"#utility.yul\":5531:5535   */\n  0x1f\n    /* \"#utility.yul\":5527:5536   */\n  not\n    /* \"#utility.yul\":5519:5525   */\n  dup5\n    /* \"#utility.yul\":5515:5537   */\n  and\n    /* \"#utility.yul\":5565:5601   */\n  tag_104\n    /* \"#utility.yul\":5596:5600   */\n  dup7\n    /* \"#utility.yul\":5565:5601   */\n  tag_18\n  jump\t// in\ntag_104:\n    /* \"#utility.yul\":5623:5624   */\n  0x00\n    /* \"#utility.yul\":5637:5845   */\ntag_105:\n    /* \"#utility.yul\":5651:5658   */\n  dup3\n    /* \"#utility.yul\":5648:5649   */\n  dup2\n    /* \"#utility.yul\":5645:5659   */\n  lt\n    /* \"#utility.yul\":5637:5845   */\n  iszero\n  tag_107\n  jumpi\n    /* \"#utility.yul\":5730:5739   */\n  dup5\n    /* \"#utility.yul\":5725:5728   */\n  dup10\n    /* \"#utility.yul\":5721:5740   */\n  add\n    /* \"#utility.yul\":5715:5741   */\n  mload\n    /* \"#utility.yul\":5707:5713   */\n  dup3\n    /* \"#utility.yul\":5700:5742   */\n  sstore\n    /* \"#utility.yul\":5781:5782   */\n  0x01\n    /* \"#utility.yul\":5773:5779   */\n  dup3\n    /* \"#utility.yul\":5769:5783   */\n  add\n    /* \"#utility.yul\":5759:5783   */\n  swap2\n  pop\n    /* \"#utility.yul\":5828:5830   */\n  0x20\n    /* \"#utility.yul\":5817:5826   */\n  dup6\n    /* \"#utility.yul\":5813:5831   */\n  add\n    /* \"#utility.yul\":5800:5831   */\n  swap5\n  pop\n    /* \"#utility.yul\":5674:5678   */\n  0x20\n    /* \"#utility.yul\":5671:5672   */\n  dup2\n    /* \"#utility.yul\":5667:5679   */\n  add\n    /* \"#utility.yul\":5662:5679   */\n  swap1\n  pop\n    /* \"#utility.yul\":5637:5845   */\n  jump(tag_105)\ntag_107:\n    /* \"#utility.yul\":5873:5879   */\n  dup7\n    /* \"#utility.yul\":5864:5871   */\n  dup4\n    /* \"#utility.yul\":5861:5880   */\n  lt\n    /* \"#utility.yul\":5858:6037   */\n  iszero\n  tag_108\n  jumpi\n    /* \"#utility.yul\":5931:5940   */\n  dup5\n    /* \"#utility.yul\":5926:5929   */\n  dup10\n    /* \"#utility.yul\":5922:5941   */\n  add\n    /* \"#utility.yul\":5916:5942   */\n  mload\n    /* \"#utility.yul\":5974:6022   */\n  tag_109\n    /* \"#utility.yul\":6016:6020   */\n  0x1f\n    /* \"#utility.yul\":6008:6014   */\n  dup10\n    /* \"#utility.yul\":6004:6021   */\n  and\n    /* \"#utility.yul\":5993:6002   */\n  dup3\n    /* \"#utility.yul\":5974:6022   */\n  tag_32\n  jump\t// in\ntag_109:\n    /* \"#utility.yul\":5966:5972   */\n  dup4\n    /* \"#utility.yul\":5959:6023   */\n  sstore\n    /* \"#utility.yul\":5881:6037   */\n  pop\n    /* \"#utility.yul\":5858:6037   */\ntag_108:\n    /* \"#utility.yul\":6083:6084   */\n  0x01\n    /* \"#utility.yul\":6079:6080   */\n  0x02\n    /* \"#utility.yul\":6071:6077   */\n  dup9\n    /* \"#utility.yul\":6067:6081   */\n  mul\n    /* \"#utility.yul\":6063:6085   */\n  add\n    /* \"#utility.yul\":6057:6061   */\n  dup9\n    /* \"#utility.yul\":6050:6086   */\n  sstore\n    /* \"#utility.yul\":5486:6096   */\n  pop\n  pop\n  pop\n    /* \"#utility.yul\":5449:6335   */\ntag_100:\n  pop\n    /* \"#utility.yul\":5041:6341   */\n  pop\n  pop\n  pop\n    /* \"#utility.yul\":4951:6341   */\n  pop\n  pop\n  jump\t// out\n    /* \"#utility.yul\":6428:6545   */\ntag_35:\n    /* \"#utility.yul\":6537:6538   */\n  0x00\n    /* \"#utility.yul\":6534:6535   */\n  dup1\n    /* \"#utility.yul\":6527:6539   */\n  revert\n    /* \"#utility.yul\":6674:6800   */\ntag_37:\n    /* \"#utility.yul\":6711:6718   */\n  0x00\n    /* \"#utility.yul\":6751:6793   */\n  0xffffffffffffffffffffffffffffffffffffffff\n    /* \"#utility.yul\":6744:6749   */\n  dup3\n    /* \"#utility.yul\":6740:6794   */\n  and\n    /* \"#utility.yul\":6729:6794   */\n  swap1\n  pop\n    /* \"#utility.yul\":6674:6800   */\n  swap2\n  swap1\n  pop\n  jump\t// out\n    /* \"#utility.yul\":6806:6902   */\ntag_38:\n    /* \"#utility.yul\":6843:6850   */\n  0x00\n    /* \"#utility.yul\":6872:6896   */\n  tag_115\n    /* \"#utility.yul\":6890:6895   */\n  dup3\n    /* \"#utility.yul\":6872:6896   */\n  tag_37\n  jump\t// in\ntag_115:\n    /* \"#utility.yul\":6861:6896   */\n  swap1\n  pop\n    /* \"#utility.yul\":6806:6902   */\n  swap2\n  swap1\n  pop\n  jump\t// out\n    /* \"#utility.yul\":6908:7030   */\ntag_39:\n    /* \"#utility.yul\":6981:7005   */\n  tag_117\n    /* \"#utility.yul\":6999:7004   */\n  dup2\n    /* \"#utility.yul\":6981:7005   */\n  tag_38\n  jump\t// in\ntag_117:\n    /* \"#utility.yul\":6974:6979   */\n  dup2\n    /* \"#utility.yul\":6971:7006   */\n  eq\n    /* \"#utility.yul\":6961:7024   */\n  tag_118\n  jumpi\n    /* \"#utility.yul\":7020:7021   */\n  0x00\n    /* \"#utility.yul\":7017:7018   */\n  dup1\n    /* \"#utility.yul\":7010:7022   */\n  revert\n    /* \"#utility.yul\":6961:7024   */\ntag_118:\n    /* \"#utility.yul\":6908:7030   */\n  pop\n  jump\t// out\n    /* \"#utility.yul\":7036:7179   */\ntag_40:\n    /* \"#utility.yul\":7093:7098   */\n  0x00\n    /* \"#utility.yul\":7124:7130   */\n  dup2\n    /* \"#utility.yul\":7118:7131   */\n  mload\n    /* \"#utility.yul\":7109:7131   */\n  swap1\n  pop\n    /* \"#utility.yul\":7140:7173   */\n  tag_120\n    /* \"#utility.yul\":7167:7172   */\n  dup2\n    /* \"#utility.yul\":7140:7173   */\n  tag_39\n  jump\t// in\ntag_120:\n    /* \"#utility.yul\":7036:7179   */\n  swap3\n  swap2\n  pop\n  pop\n  jump\t// out\n    /* \"#utility.yul\":7185:7536   */\ntag_7:\n    /* \"#utility.yul\":7255:7261   */\n  0x00\n    /* \"#utility.yul\":7304:7306   */\n  0x20\n    /* \"#utility.yul\":7292:7301   */\n  dup3\n    /* \"#utility.yul\":7283:7290   */\n  dup5\n    /* \"#utility.yul\":7279:7302   */\n  sub\n    /* \"#utility.yul\":7275:7307   */\n  slt\n    /* \"#utility.yul\":7272:7391   */\n  iszero\n  tag_122\n  jumpi\n    /* \"#utility.yul\":7310:7389   */\n  tag_123\n  tag_35\n  jump\t// in\ntag_123:\n    /* \"#utility.yul\":7272:7391   */\ntag_122:\n    /* \"#utility.yul\":7430:7431   */\n  0x00\n    /* \"#utility.yul\":7455:7519   */\n  tag_124\n    /* \"#utility.yul\":7511:7518   */\n  dup5\n    /* \"#utility.yul\":7502:7508   */\n  dup3\n    /* \"#utility.yul\":7491:7500   */\n  dup6\n    /* \"#utility.yul\":7487:7509   */\n  add\n    /* \"#utility.yul\":7455:7519   */\n  tag_40\n  jump\t// in\ntag_124:\n    /* \"#utility.yul\":7445:7519   */\n  swap2\n  pop\n    /* \"#utility.yul\":7401:7529   */\n  pop\n    /* \"#utility.yul\":7185:7536   */\n  swap3\n  swap2\n  pop\n  pop\n  jump\t// out\n    /* \"study/chapter07/arrySlice.sol\":54:906  contract testArrySlice{... */\ntag_10:\n  dataSize(sub_0)\n  dup1\n  dataOffset(sub_0)\n  0x00\n  codecopy\n  0x00\n  return\nstop\n\nsub_0: assembly {\n        /* \"study/chapter07/arrySlice.sol\":54:906  contract testArrySlice{... */\n      mstore(0x40, 0x80)\n      callvalue\n      dup1\n      iszero\n      tag_1\n      jumpi\n      0x00\n      dup1\n      revert\n    tag_1:\n      pop\n      jumpi(tag_2, lt(calldatasize, 0x04))\n      shr(0xe0, calldataload(0x00))\n      dup1\n      0x4df7e3d0\n      eq\n      tag_3\n      jumpi\n      dup1\n      0xd948d468\n      eq\n      tag_4\n      jumpi\n    tag_2:\n      0x00\n      dup1\n      revert\n        /* \"study/chapter07/arrySlice.sol\":225:279  bytes public b = abi.encodePacked(\"setOwner(address)\") */\n    tag_3:\n      tag_5\n      tag_6\n      jump\t// in\n    tag_5:\n      mload(0x40)\n      tag_7\n      swap2\n      swap1\n      tag_8\n      jump\t// in\n    tag_7:\n      mload(0x40)\n      dup1\n      swap2\n      sub\n      swap1\n      return\n        /* \"study/chapter07/arrySlice.sol\":372:904  function forward(bytes calldata payload) external {... */\n    tag_4:\n      tag_9\n      0x04\n      dup1\n      calldatasize\n      sub\n      dup2\n      add\n      swap1\n      tag_10\n      swap2\n      swap1\n      tag_11\n      jump\t// in\n    tag_10:\n      tag_12\n      jump\t// in\n    tag_9:\n      stop\n        /* \"study/chapter07/arrySlice.sol\":225:279  bytes public b = abi.encodePacked(\"setOwner(address)\") */\n    tag_6:\n      0x01\n      dup1\n      sload\n      tag_13\n      swap1\n      tag_14\n      jump\t// in\n    tag_13:\n      dup1\n      0x1f\n      add\n      0x20\n      dup1\n      swap2\n      div\n      mul\n      0x20\n      add\n      mload(0x40)\n      swap1\n      dup2\n      add\n      0x40\n      mstore\n      dup1\n      swap3\n      swap2\n      swap1\n      dup2\n      dup2\n      mstore\n      0x20\n      add\n      dup3\n      dup1\n      sload\n      tag_15\n      swap1\n      tag_14\n      jump\t// in\n    tag_15:\n      dup1\n      iszero\n      tag_16\n      jumpi\n      dup1\n      0x1f\n      lt\n      tag_17\n      jumpi\n      0x0100\n      dup1\n      dup4\n      sload\n      div\n      mul\n      dup4\n      mstore\n      swap2\n      0x20\n      add\n      swap2\n      jump(tag_16)\n    tag_17:\n      dup3\n      add\n      swap2\n      swap1\n      0x00\n      mstore\n      keccak256(0x00, 0x20)\n      swap1\n    tag_18:\n      dup2\n      sload\n      dup2\n      mstore\n      swap1\n      0x01\n      add\n      swap1\n      0x20\n      add\n      dup1\n      dup4\n      gt\n      tag_18\n      jumpi\n      dup3\n      swap1\n      sub\n      0x1f\n      and\n      dup3\n      add\n      swap2\n    tag_16:\n      pop\n      pop\n      pop\n      pop\n      pop\n      dup2\n      jump\t// out\n        /* \"study/chapter07/arrySlice.sol\":372:904  function forward(bytes calldata payload) external {... */\n    tag_12:\n        /* \"study/chapter07/arrySlice.sol\":432:442  bytes4 sig */\n      0x00\n        /* \"study/chapter07/arrySlice.sol\":452:459  payload */\n      dup3\n      dup3\n        /* \"study/chapter07/arrySlice.sol\":452:463  payload[:4] */\n      0x00\n      swap1\n        /* \"study/chapter07/arrySlice.sol\":461:462  4 */\n      0x04\n        /* \"study/chapter07/arrySlice.sol\":452:463  payload[:4] */\n      swap3\n      tag_20\n      swap4\n      swap3\n      swap2\n      swap1\n      tag_21\n      jump\t// in\n    tag_20:\n        /* \"study/chapter07/arrySlice.sol\":445:464  bytes4(payload[:4]) */\n      swap1\n      tag_22\n      swap2\n      swap1\n      tag_23\n      jump\t// in\n    tag_22:\n        /* \"study/chapter07/arrySlice.sol\":432:464  bytes4 sig = bytes4(payload[:4]) */\n      swap1\n      pop\n        /* \"study/chapter07/arrySlice.sol\":606:636  keccak256(\"setOwner(address)\") */\n      0x13af4035b0e4e7ec6b922d2e250cb1ea3b75b47dd2a6483cb76d88e6fd98ec3b\n        /* \"study/chapter07/arrySlice.sol\":592:637  sig == bytes4(keccak256(\"setOwner(address)\")) */\n      not(0xffffffffffffffffffffffffffffffffffffffffffffffffffffffff)\n      and\n        /* \"study/chapter07/arrySlice.sol\":592:595  sig */\n      dup2\n        /* \"study/chapter07/arrySlice.sol\":592:637  sig == bytes4(keccak256(\"setOwner(address)\")) */\n      not(0xffffffffffffffffffffffffffffffffffffffffffffffffffffffff)\n      and\n      sub\n        /* \"study/chapter07/arrySlice.sol\":588:792  if (sig == bytes4(keccak256(\"setOwner(address)\"))) {... */\n      tag_24\n      jumpi\n        /* \"study/chapter07/arrySlice.sol\":653:666  address owner */\n      0x00\n        /* \"study/chapter07/arrySlice.sol\":680:687  payload */\n      dup4\n      dup4\n        /* \"study/chapter07/arrySlice.sol\":688:689  4 */\n      0x04\n        /* \"study/chapter07/arrySlice.sol\":680:691  payload[4:] */\n      swap1\n      dup1\n      swap3\n      tag_25\n      swap4\n      swap3\n      swap2\n      swap1\n      tag_21\n      jump\t// in\n    tag_25:\n        /* \"study/chapter07/arrySlice.sol\":669:703  abi.decode(payload[4:], (address)) */\n      dup2\n      add\n      swap1\n      tag_26\n      swap2\n      swap1\n      tag_27\n      jump\t// in\n    tag_26:\n        /* \"study/chapter07/arrySlice.sol\":653:703  address owner = abi.decode(payload[4:], (address)) */\n      swap1\n      pop\n        /* \"study/chapter07/arrySlice.sol\":742:743  0 */\n      0x00\n        /* \"study/chapter07/arrySlice.sol\":725:744  owner != address(0) */\n      0xffffffffffffffffffffffffffffffffffffffff\n      and\n        /* \"study/chapter07/arrySlice.sol\":725:730  owner */\n      dup2\n        /* \"study/chapter07/arrySlice.sol\":725:744  owner != address(0) */\n      0xffffffffffffffffffffffffffffffffffffffff\n      and\n      sub\n        /* \"study/chapter07/arrySlice.sol\":717:781  require(owner != address(0), \"Address of owner cannot be zero.\") */\n      tag_28\n      jumpi\n      mload(0x40)\n      0x08c379a000000000000000000000000000000000000000000000000000000000\n      dup2\n      mstore\n      0x04\n      add\n      tag_29\n      swap1\n      tag_30\n      jump\t// in\n    tag_29:\n      mload(0x40)\n      dup1\n      swap2\n      sub\n      swap1\n      revert\n    tag_28:\n        /* \"study/chapter07/arrySlice.sol\":639:792  {... */\n      pop\n        /* \"study/chapter07/arrySlice.sol\":588:792  if (sig == bytes4(keccak256(\"setOwner(address)\"))) {... */\n    tag_24:\n        /* \"study/chapter07/arrySlice.sol\":802:813  bool status */\n      0x00\n        /* \"study/chapter07/arrySlice.sol\":818:824  client */\n      dup1\n      0x00\n      swap1\n      sload\n      swap1\n      0x0100\n      exp\n      swap1\n      div\n      0xffffffffffffffffffffffffffffffffffffffff\n      and\n        /* \"study/chapter07/arrySlice.sol\":818:837  client.delegatecall */\n      0xffffffffffffffffffffffffffffffffffffffff\n      and\n        /* \"study/chapter07/arrySlice.sol\":838:845  payload */\n      dup5\n      dup5\n        /* \"study/chapter07/arrySlice.sol\":818:846  client.delegatecall(payload) */\n      mload(0x40)\n      tag_31\n      swap3\n      swap2\n      swap1\n      tag_32\n      jump\t// in\n    tag_31:\n      0x00\n      mload(0x40)\n      dup1\n      dup4\n      sub\n      dup2\n      dup6\n      gas\n      delegatecall\n      swap2\n      pop\n      pop\n      returndatasize\n      dup1\n      0x00\n      dup2\n      eq\n      tag_35\n      jumpi\n      mload(0x40)\n      swap2\n      pop\n      and(add(returndatasize, 0x3f), not(0x1f))\n      dup3\n      add\n      0x40\n      mstore\n      returndatasize\n      dup3\n      mstore\n      returndatasize\n      0x00\n      0x20\n      dup5\n      add\n      returndatacopy\n      jump(tag_34)\n    tag_35:\n      0x60\n      swap2\n      pop\n    tag_34:\n      pop\n        /* \"study/chapter07/arrySlice.sol\":801:846  (bool status,) = client.delegatecall(payload) */\n      pop\n      swap1\n      pop\n        /* \"study/chapter07/arrySlice.sol\":864:870  status */\n      dup1\n        /* \"study/chapter07/arrySlice.sol\":856:897  require(status, \"Forwarded call failed.\") */\n      tag_36\n      jumpi\n      mload(0x40)\n      0x08c379a000000000000000000000000000000000000000000000000000000000\n      dup2\n      mstore\n      0x04\n      add\n      tag_37\n      swap1\n      tag_38\n      jump\t// in\n    tag_37:\n      mload(0x40)\n      dup1\n      swap2\n      sub\n      swap1\n      revert\n    tag_36:\n        /* \"study/chapter07/arrySlice.sol\":422:904  {... */\n      pop\n      pop\n        /* \"study/chapter07/arrySlice.sol\":372:904  function forward(bytes calldata payload) external {... */\n      pop\n      pop\n      jump\t// out\n        /* \"#utility.yul\":7:105   */\n    tag_39:\n        /* \"#utility.yul\":58:64   */\n      0x00\n        /* \"#utility.yul\":92:97   */\n      dup2\n        /* \"#utility.yul\":86:98   */\n      mload\n        /* \"#utility.yul\":76:98   */\n      swap1\n      pop\n        /* \"#utility.yul\":7:105   */\n      swap2\n      swap1\n      pop\n      jump\t// out\n        /* \"#utility.yul\":111:279   */\n    tag_40:\n        /* \"#utility.yul\":194:205   */\n      0x00\n        /* \"#utility.yul\":228:234   */\n      dup3\n        /* \"#utility.yul\":223:226   */\n      dup3\n        /* \"#utility.yul\":216:235   */\n      mstore\n        /* \"#utility.yul\":268:272   */\n      0x20\n        /* \"#utility.yul\":263:266   */\n      dup3\n        /* \"#utility.yul\":259:273   */\n      add\n        /* \"#utility.yul\":244:273   */\n      swap1\n      pop\n        /* \"#utility.yul\":111:279   */\n      swap3\n      swap2\n      pop\n      pop\n      jump\t// out\n        /* \"#utility.yul\":285:592   */\n    tag_41:\n        /* \"#utility.yul\":353:354   */\n      0x00\n        /* \"#utility.yul\":363:476   */\n    tag_74:\n        /* \"#utility.yul\":377:383   */\n      dup4\n        /* \"#utility.yul\":374:375   */\n      dup2\n        /* \"#utility.yul\":371:384   */\n      lt\n        /* \"#utility.yul\":363:476   */\n      iszero\n      tag_76\n      jumpi\n        /* \"#utility.yul\":462:463   */\n      dup1\n        /* \"#utility.yul\":457:460   */\n      dup3\n        /* \"#utility.yul\":453:464   */\n      add\n        /* \"#utility.yul\":447:465   */\n      mload\n        /* \"#utility.yul\":443:444   */\n      dup2\n        /* \"#utility.yul\":438:441   */\n      dup5\n        /* \"#utility.yul\":434:445   */\n      add\n        /* \"#utility.yul\":427:466   */\n      mstore\n        /* \"#utility.yul\":399:401   */\n      0x20\n        /* \"#utility.yul\":396:397   */\n      dup2\n        /* \"#utility.yul\":392:402   */\n      add\n        /* \"#utility.yul\":387:402   */\n      swap1\n      pop\n        /* \"#utility.yul\":363:476   */\n      jump(tag_74)\n    tag_76:\n        /* \"#utility.yul\":494:500   */\n      dup4\n        /* \"#utility.yul\":491:492   */\n      dup2\n        /* \"#utility.yul\":488:501   */\n      gt\n        /* \"#utility.yul\":485:586   */\n      iszero\n      tag_77\n      jumpi\n        /* \"#utility.yul\":574:575   */\n      0x00\n        /* \"#utility.yul\":565:571   */\n      dup5\n        /* \"#utility.yul\":560:563   */\n      dup5\n        /* \"#utility.yul\":556:572   */\n      add\n        /* \"#utility.yul\":549:576   */\n      mstore\n        /* \"#utility.yul\":485:586   */\n    tag_77:\n        /* \"#utility.yul\":334:592   */\n      pop\n        /* \"#utility.yul\":285:592   */\n      pop\n      pop\n      pop\n      jump\t// out\n        /* \"#utility.yul\":598:700   */\n    tag_42:\n        /* \"#utility.yul\":639:645   */\n      0x00\n        /* \"#utility.yul\":690:692   */\n      0x1f\n        /* \"#utility.yul\":686:693   */\n      not\n        /* \"#utility.yul\":681:683   */\n      0x1f\n        /* \"#utility.yul\":674:679   */\n      dup4\n        /* \"#utility.yul\":670:684   */\n      add\n        /* \"#utility.yul\":666:694   */\n      and\n        /* \"#utility.yul\":656:694   */\n      swap1\n      pop\n        /* \"#utility.yul\":598:700   */\n      swap2\n      swap1\n      pop\n      jump\t// out\n        /* \"#utility.yul\":706:1066   */\n    tag_43:\n        /* \"#utility.yul\":792:795   */\n      0x00\n        /* \"#utility.yul\":820:858   */\n      tag_80\n        /* \"#utility.yul\":852:857   */\n      dup3\n        /* \"#utility.yul\":820:858   */\n      tag_39\n      jump\t// in\n    tag_80:\n        /* \"#utility.yul\":874:944   */\n      tag_81\n        /* \"#utility.yul\":937:943   */\n      dup2\n        /* \"#utility.yul\":932:935   */\n      dup6\n        /* \"#utility.yul\":874:944   */\n      tag_40\n      jump\t// in\n    tag_81:\n        /* \"#utility.yul\":867:944   */\n      swap4\n      pop\n        /* \"#utility.yul\":953:1005   */\n      tag_82\n        /* \"#utility.yul\":998:1004   */\n      dup2\n        /* \"#utility.yul\":993:996   */\n      dup6\n        /* \"#utility.yul\":986:990   */\n      0x20\n        /* \"#utility.yul\":979:984   */\n      dup7\n        /* \"#utility.yul\":975:991   */\n      add\n        /* \"#utility.yul\":953:1005   */\n      tag_41\n      jump\t// in\n    tag_82:\n        /* \"#utility.yul\":1030:1059   */\n      tag_83\n        /* \"#utility.yul\":1052:1058   */\n      dup2\n        /* \"#utility.yul\":1030:1059   */\n      tag_42\n      jump\t// in\n    tag_83:\n        /* \"#utility.yul\":1025:1028   */\n      dup5\n        /* \"#utility.yul\":1021:1060   */\n      add\n        /* \"#utility.yul\":1014:1060   */\n      swap2\n      pop\n        /* \"#utility.yul\":796:1066   */\n      pop\n        /* \"#utility.yul\":706:1066   */\n      swap3\n      swap2\n      pop\n      pop\n      jump\t// out\n        /* \"#utility.yul\":1072:1381   */\n    tag_8:\n        /* \"#utility.yul\":1183:1187   */\n      0x00\n        /* \"#utility.yul\":1221:1223   */\n      0x20\n        /* \"#utility.yul\":1210:1219   */\n      dup3\n        /* \"#utility.yul\":1206:1224   */\n      add\n        /* \"#utility.yul\":1198:1224   */\n      swap1\n      pop\n        /* \"#utility.yul\":1270:1279   */\n      dup2\n        /* \"#utility.yul\":1264:1268   */\n      dup2\n        /* \"#utility.yul\":1260:1280   */\n      sub\n        /* \"#utility.yul\":1256:1257   */\n      0x00\n        /* \"#utility.yul\":1245:1254   */\n      dup4\n        /* \"#utility.yul\":1241:1258   */\n      add\n        /* \"#utility.yul\":1234:1281   */\n      mstore\n        /* \"#utility.yul\":1298:1374   */\n      tag_85\n        /* \"#utility.yul\":1369:1373   */\n      dup2\n        /* \"#utility.yul\":1360:1366   */\n      dup5\n        /* \"#utility.yul\":1298:1374   */\n      tag_43\n      jump\t// in\n    tag_85:\n        /* \"#utility.yul\":1290:1374   */\n      swap1\n      pop\n        /* \"#utility.yul\":1072:1381   */\n      swap3\n      swap2\n      pop\n      pop\n      jump\t// out\n        /* \"#utility.yul\":1468:1585   */\n    tag_45:\n        /* \"#utility.yul\":1577:1578   */\n      0x00\n        /* \"#utility.yul\":1574:1575   */\n      dup1\n        /* \"#utility.yul\":1567:1579   */\n      revert\n        /* \"#utility.yul\":1591:1708   */\n    tag_46:\n        /* \"#utility.yul\":1700:1701   */\n      0x00\n        /* \"#utility.yul\":1697:1698   */\n      dup1\n        /* \"#utility.yul\":1690:1702   */\n      revert\n        /* \"#utility.yul\":1714:1831   */\n    tag_47:\n        /* \"#utility.yul\":1823:1824   */\n      0x00\n        /* \"#utility.yul\":1820:1821   */\n      dup1\n        /* \"#utility.yul\":1813:1825   */\n      revert\n        /* \"#utility.yul\":1837:1954   */\n    tag_48:\n        /* \"#utility.yul\":1946:1947   */\n      0x00\n        /* \"#utility.yul\":1943:1944   */\n      dup1\n        /* \"#utility.yul\":1936:1948   */\n      revert\n        /* \"#utility.yul\":1960:2077   */\n    tag_49:\n        /* \"#utility.yul\":2069:2070   */\n      0x00\n        /* \"#utility.yul\":2066:2067   */\n      dup1\n        /* \"#utility.yul\":2059:2071   */\n      revert\n        /* \"#utility.yul\":2096:2648   */\n    tag_50:\n        /* \"#utility.yul\":2153:2161   */\n      0x00\n        /* \"#utility.yul\":2163:2169   */\n      dup1\n        /* \"#utility.yul\":2213:2216   */\n      dup4\n        /* \"#utility.yul\":2206:2210   */\n      0x1f\n        /* \"#utility.yul\":2198:2204   */\n      dup5\n        /* \"#utility.yul\":2194:2211   */\n      add\n        /* \"#utility.yul\":2190:2217   */\n      slt\n        /* \"#utility.yul\":2180:2302   */\n      tag_93\n      jumpi\n        /* \"#utility.yul\":2221:2300   */\n      tag_94\n      tag_47\n      jump\t// in\n    tag_94:\n        /* \"#utility.yul\":2180:2302   */\n    tag_93:\n        /* \"#utility.yul\":2334:2340   */\n      dup3\n        /* \"#utility.yul\":2321:2341   */\n      calldataload\n        /* \"#utility.yul\":2311:2341   */\n      swap1\n      pop\n        /* \"#utility.yul\":2364:2382   */\n      0xffffffffffffffff\n        /* \"#utility.yul\":2356:2362   */\n      dup2\n        /* \"#utility.yul\":2353:2383   */\n      gt\n        /* \"#utility.yul\":2350:2467   */\n      iszero\n      tag_95\n      jumpi\n        /* \"#utility.yul\":2386:2465   */\n      tag_96\n      tag_48\n      jump\t// in\n    tag_96:\n        /* \"#utility.yul\":2350:2467   */\n    tag_95:\n        /* \"#utility.yul\":2500:2504   */\n      0x20\n        /* \"#utility.yul\":2492:2498   */\n      dup4\n        /* \"#utility.yul\":2488:2505   */\n      add\n        /* \"#utility.yul\":2476:2505   */\n      swap2\n      pop\n        /* \"#utility.yul\":2554:2557   */\n      dup4\n        /* \"#utility.yul\":2546:2550   */\n      0x01\n        /* \"#utility.yul\":2538:2544   */\n      dup3\n        /* \"#utility.yul\":2534:2551   */\n      mul\n        /* \"#utility.yul\":2524:2532   */\n      dup4\n        /* \"#utility.yul\":2520:2552   */\n      add\n        /* \"#utility.yul\":2517:2558   */\n      gt\n        /* \"#utility.yul\":2514:2642   */\n      iszero\n      tag_97\n      jumpi\n        /* \"#utility.yul\":2561:2640   */\n      tag_98\n      tag_49\n      jump\t// in\n    tag_98:\n        /* \"#utility.yul\":2514:2642   */\n    tag_97:\n        /* \"#utility.yul\":2096:2648   */\n      swap3\n      pop\n      swap3\n      swap1\n      pop\n      jump\t// out\n        /* \"#utility.yul\":2654:3181   */\n    tag_11:\n        /* \"#utility.yul\":2724:2730   */\n      0x00\n        /* \"#utility.yul\":2732:2738   */\n      dup1\n        /* \"#utility.yul\":2781:2783   */\n      0x20\n        /* \"#utility.yul\":2769:2778   */\n      dup4\n        /* \"#utility.yul\":2760:2767   */\n      dup6\n        /* \"#utility.yul\":2756:2779   */\n      sub\n        /* \"#utility.yul\":2752:2784   */\n      slt\n        /* \"#utility.yul\":2749:2868   */\n      iszero\n      tag_100\n      jumpi\n        /* \"#utility.yul\":2787:2866   */\n      tag_101\n      tag_45\n      jump\t// in\n    tag_101:\n        /* \"#utility.yul\":2749:2868   */\n    tag_100:\n        /* \"#utility.yul\":2935:2936   */\n      0x00\n        /* \"#utility.yul\":2924:2933   */\n      dup4\n        /* \"#utility.yul\":2920:2937   */\n      add\n        /* \"#utility.yul\":2907:2938   */\n      calldataload\n        /* \"#utility.yul\":2965:2983   */\n      0xffffffffffffffff\n        /* \"#utility.yul\":2957:2963   */\n      dup2\n        /* \"#utility.yul\":2954:2984   */\n      gt\n        /* \"#utility.yul\":2951:3068   */\n      iszero\n      tag_102\n      jumpi\n        /* \"#utility.yul\":2987:3066   */\n      tag_103\n      tag_46\n      jump\t// in\n    tag_103:\n        /* \"#utility.yul\":2951:3068   */\n    tag_102:\n        /* \"#utility.yul\":3100:3164   */\n      tag_104\n        /* \"#utility.yul\":3156:3163   */\n      dup6\n        /* \"#utility.yul\":3147:3153   */\n      dup3\n        /* \"#utility.yul\":3136:3145   */\n      dup7\n        /* \"#utility.yul\":3132:3154   */\n      add\n        /* \"#utility.yul\":3100:3164   */\n      tag_50\n      jump\t// in\n    tag_104:\n        /* \"#utility.yul\":3082:3164   */\n      swap3\n      pop\n      swap3\n      pop\n        /* \"#utility.yul\":2878:3174   */\n      pop\n        /* \"#utility.yul\":2654:3181   */\n      swap3\n      pop\n      swap3\n      swap1\n      pop\n      jump\t// out\n        /* \"#utility.yul\":3187:3367   */\n    tag_51:\n        /* \"#utility.yul\":3235:3312   */\n      0x4e487b7100000000000000000000000000000000000000000000000000000000\n        /* \"#utility.yul\":3232:3233   */\n      0x00\n        /* \"#utility.yul\":3225:3313   */\n      mstore\n        /* \"#utility.yul\":3332:3336   */\n      0x22\n        /* \"#utility.yul\":3329:3330   */\n      0x04\n        /* \"#utility.yul\":3322:3337   */\n      mstore\n        /* \"#utility.yul\":3356:3360   */\n      0x24\n        /* \"#utility.yul\":3353:3354   */\n      0x00\n        /* \"#utility.yul\":3346:3361   */\n      revert\n        /* \"#utility.yul\":3373:3693   */\n    tag_14:\n        /* \"#utility.yul\":3417:3423   */\n      0x00\n        /* \"#utility.yul\":3454:3455   */\n      0x02\n        /* \"#utility.yul\":3448:3452   */\n      dup3\n        /* \"#utility.yul\":3444:3456   */\n      div\n        /* \"#utility.yul\":3434:3456   */\n      swap1\n      pop\n        /* \"#utility.yul\":3501:3502   */\n      0x01\n        /* \"#utility.yul\":3495:3499   */\n      dup3\n        /* \"#utility.yul\":3491:3503   */\n      and\n        /* \"#utility.yul\":3522:3540   */\n      dup1\n        /* \"#utility.yul\":3512:3593   */\n      tag_107\n      jumpi\n        /* \"#utility.yul\":3578:3582   */\n      0x7f\n        /* \"#utility.yul\":3570:3576   */\n      dup3\n        /* \"#utility.yul\":3566:3583   */\n      and\n        /* \"#utility.yul\":3556:3583   */\n      swap2\n      pop\n        /* \"#utility.yul\":3512:3593   */\n    tag_107:\n        /* \"#utility.yul\":3640:3642   */\n      0x20\n        /* \"#utility.yul\":3632:3638   */\n      dup3\n        /* \"#utility.yul\":3629:3643   */\n      lt\n        /* \"#utility.yul\":3609:3627   */\n      dup2\n        /* \"#utility.yul\":3606:3644   */\n      sub\n        /* \"#utility.yul\":3603:3687   */\n      tag_108\n      jumpi\n        /* \"#utility.yul\":3659:3677   */\n      tag_109\n      tag_51\n      jump\t// in\n    tag_109:\n        /* \"#utility.yul\":3603:3687   */\n    tag_108:\n        /* \"#utility.yul\":3424:3693   */\n      pop\n        /* \"#utility.yul\":3373:3693   */\n      swap2\n      swap1\n      pop\n      jump\t// out\n        /* \"#utility.yul\":3699:3816   */\n    tag_52:\n        /* \"#utility.yul\":3808:3809   */\n      0x00\n        /* \"#utility.yul\":3805:3806   */\n      dup1\n        /* \"#utility.yul\":3798:3810   */\n      revert\n        /* \"#utility.yul\":3822:3939   */\n    tag_53:\n        /* \"#utility.yul\":3931:3932   */\n      0x00\n        /* \"#utility.yul\":3928:3929   */\n      dup1\n        /* \"#utility.yul\":3921:3933   */\n      revert\n        /* \"#utility.yul\":3945:4414   */\n    tag_21:\n        /* \"#utility.yul\":4050:4059   */\n      0x00\n        /* \"#utility.yul\":4061:4070   */\n      dup1\n        /* \"#utility.yul\":4099:4107   */\n      dup6\n        /* \"#utility.yul\":4087:4097   */\n      dup6\n        /* \"#utility.yul\":4084:4108   */\n      gt\n        /* \"#utility.yul\":4081:4192   */\n      iszero\n      tag_113\n      jumpi\n        /* \"#utility.yul\":4111:4190   */\n      tag_114\n      tag_52\n      jump\t// in\n    tag_114:\n        /* \"#utility.yul\":4081:4192   */\n    tag_113:\n        /* \"#utility.yul\":4217:4223   */\n      dup4\n        /* \"#utility.yul\":4207:4215   */\n      dup7\n        /* \"#utility.yul\":4204:4224   */\n      gt\n        /* \"#utility.yul\":4201:4308   */\n      iszero\n      tag_115\n      jumpi\n        /* \"#utility.yul\":4227:4306   */\n      tag_116\n      tag_53\n      jump\t// in\n    tag_116:\n        /* \"#utility.yul\":4201:4308   */\n    tag_115:\n        /* \"#utility.yul\":4358:4359   */\n      0x01\n        /* \"#utility.yul\":4346:4356   */\n      dup6\n        /* \"#utility.yul\":4342:4360   */\n      mul\n        /* \"#utility.yul\":4334:4340   */\n      dup4\n        /* \"#utility.yul\":4330:4361   */\n      add\n        /* \"#utility.yul\":4317:4361   */\n      swap2\n      pop\n        /* \"#utility.yul\":4397:4407   */\n      dup5\n        /* \"#utility.yul\":4387:4395   */\n      dup7\n        /* \"#utility.yul\":4383:4408   */\n      sub\n        /* \"#utility.yul\":4370:4408   */\n      swap1\n      pop\n        /* \"#utility.yul\":3945:4414   */\n      swap5\n      pop\n      swap5\n      swap3\n      pop\n      pop\n      pop\n      jump\t// out\n        /* \"#utility.yul\":4420:4516   */\n    tag_54:\n        /* \"#utility.yul\":4478:4484   */\n      0x00\n        /* \"#utility.yul\":4506:4509   */\n      dup3\n        /* \"#utility.yul\":4496:4509   */\n      swap1\n      pop\n        /* \"#utility.yul\":4420:4516   */\n      swap3\n      swap2\n      pop\n      pop\n      jump\t// out\n        /* \"#utility.yul\":4614:4763   */\n    tag_56:\n        /* \"#utility.yul\":4650:4657   */\n      0x00\n        /* \"#utility.yul\":4690:4756   */\n      0xffffffff00000000000000000000000000000000000000000000000000000000\n        /* \"#utility.yul\":4683:4688   */\n      dup3\n        /* \"#utility.yul\":4679:4757   */\n      and\n        /* \"#utility.yul\":4668:4757   */\n      swap1\n      pop\n        /* \"#utility.yul\":4614:4763   */\n      swap2\n      swap1\n      pop\n      jump\t// out\n        /* \"#utility.yul\":4769:4876   */\n    tag_57:\n        /* \"#utility.yul\":4813:4821   */\n      0x00\n        /* \"#utility.yul\":4863:4868   */\n      dup3\n        /* \"#utility.yul\":4857:4861   */\n      dup3\n        /* \"#utility.yul\":4853:4869   */\n      shl\n        /* \"#utility.yul\":4832:4869   */\n      swap1\n      pop\n        /* \"#utility.yul\":4769:4876   */\n      swap3\n      swap2\n      pop\n      pop\n      jump\t// out\n        /* \"#utility.yul\":4882:5430   */\n    tag_23:\n        /* \"#utility.yul\":4972:4977   */\n      0x00\n        /* \"#utility.yul\":5003:5048   */\n      tag_122\n        /* \"#utility.yul\":5044:5047   */\n      dup4\n        /* \"#utility.yul\":5037:5042   */\n      dup4\n        /* \"#utility.yul\":5003:5048   */\n      tag_54\n      jump\t// in\n    tag_122:\n        /* \"#utility.yul\":5073:5078   */\n      dup3\n        /* \"#utility.yul\":5097:5137   */\n      tag_123\n        /* \"#utility.yul\":5127:5135   */\n      dup2\n        /* \"#utility.yul\":5114:5136   */\n      calldataload\n        /* \"#utility.yul\":5097:5137   */\n      tag_56\n      jump\t// in\n    tag_123:\n        /* \"#utility.yul\":5088:5137   */\n      swap3\n      pop\n        /* \"#utility.yul\":5161:5162   */\n      0x04\n        /* \"#utility.yul\":5153:5159   */\n      dup3\n        /* \"#utility.yul\":5150:5163   */\n      lt\n        /* \"#utility.yul\":5147:5423   */\n      iszero\n      tag_124\n      jumpi\n        /* \"#utility.yul\":5231:5399   */\n      tag_125\n        /* \"#utility.yul\":5315:5381   */\n      0xffffffff00000000000000000000000000000000000000000000000000000000\n        /* \"#utility.yul\":5285:5291   */\n      dup4\n        /* \"#utility.yul\":5282:5283   */\n      0x04\n        /* \"#utility.yul\":5278:5292   */\n      sub\n        /* \"#utility.yul\":5275:5276   */\n      0x08\n        /* \"#utility.yul\":5271:5293   */\n      mul\n        /* \"#utility.yul\":5231:5399   */\n      tag_57\n      jump\t// in\n    tag_125:\n        /* \"#utility.yul\":5208:5213   */\n      dup4\n        /* \"#utility.yul\":5187:5413   */\n      and\n        /* \"#utility.yul\":5178:5413   */\n      swap3\n      pop\n        /* \"#utility.yul\":5147:5423   */\n    tag_124:\n        /* \"#utility.yul\":4978:5430   */\n      pop\n      pop\n        /* \"#utility.yul\":4882:5430   */\n      swap3\n      swap2\n      pop\n      pop\n      jump\t// out\n        /* \"#utility.yul\":5436:5562   */\n    tag_58:\n        /* \"#utility.yul\":5473:5480   */\n      0x00\n        /* \"#utility.yul\":5513:5555   */\n      0xffffffffffffffffffffffffffffffffffffffff\n        /* \"#utility.yul\":5506:5511   */\n      dup3\n        /* \"#utility.yul\":5502:5556   */\n      and\n        /* \"#utility.yul\":5491:5556   */\n      swap1\n      pop\n        /* \"#utility.yul\":5436:5562   */\n      swap2\n      swap1\n      pop\n      jump\t// out\n        /* \"#utility.yul\":5568:5672   */\n    tag_59:\n        /* \"#utility.yul\":5613:5620   */\n      0x00\n        /* \"#utility.yul\":5642:5666   */\n      tag_128\n        /* \"#utility.yul\":5660:5665   */\n      dup3\n        /* \"#utility.yul\":5642:5666   */\n      tag_58\n      jump\t// in\n    tag_128:\n        /* \"#utility.yul\":5631:5666   */\n      swap1\n      pop\n        /* \"#utility.yul\":5568:5672   */\n      swap2\n      swap1\n      pop\n      jump\t// out\n        /* \"#utility.yul\":5678:5816   */\n    tag_60:\n        /* \"#utility.yul\":5759:5791   */\n      tag_130\n        /* \"#utility.yul\":5785:5790   */\n      dup2\n        /* \"#utility.yul\":5759:5791   */\n      tag_59\n      jump\t// in\n    tag_130:\n        /* \"#utility.yul\":5752:5757   */\n      dup2\n        /* \"#utility.yul\":5749:5792   */\n      eq\n        /* \"#utility.yul\":5739:5810   */\n      tag_131\n      jumpi\n        /* \"#utility.yul\":5806:5807   */\n      0x00\n        /* \"#utility.yul\":5803:5804   */\n      dup1\n        /* \"#utility.yul\":5796:5808   */\n      revert\n        /* \"#utility.yul\":5739:5810   */\n    tag_131:\n        /* \"#utility.yul\":5678:5816   */\n      pop\n      jump\t// out\n        /* \"#utility.yul\":5822:5977   */\n    tag_61:\n        /* \"#utility.yul\":5876:5881   */\n      0x00\n        /* \"#utility.yul\":5914:5920   */\n      dup2\n        /* \"#utility.yul\":5901:5921   */\n      calldataload\n        /* \"#utility.yul\":5892:5921   */\n      swap1\n      pop\n        /* \"#utility.yul\":5930:5971   */\n      tag_133\n        /* \"#utility.yul\":5965:5970   */\n      dup2\n        /* \"#utility.yul\":5930:5971   */\n      tag_60\n      jump\t// in\n    tag_133:\n        /* \"#utility.yul\":5822:5977   */\n      swap3\n      swap2\n      pop\n      pop\n      jump\t// out\n        /* \"#utility.yul\":5983:6328   */\n    tag_27:\n        /* \"#utility.yul\":6050:6056   */\n      0x00\n        /* \"#utility.yul\":6099:6101   */\n      0x20\n        /* \"#utility.yul\":6087:6096   */\n      dup3\n        /* \"#utility.yul\":6078:6085   */\n      dup5\n        /* \"#utility.yul\":6074:6097   */\n      sub\n        /* \"#utility.yul\":6070:6102   */\n      slt\n        /* \"#utility.yul\":6067:6186   */\n      iszero\n      tag_135\n      jumpi\n        /* \"#utility.yul\":6105:6184   */\n      tag_136\n      tag_45\n      jump\t// in\n    tag_136:\n        /* \"#utility.yul\":6067:6186   */\n    tag_135:\n        /* \"#utility.yul\":6225:6226   */\n      0x00\n        /* \"#utility.yul\":6250:6311   */\n      tag_137\n        /* \"#utility.yul\":6303:6310   */\n      dup5\n        /* \"#utility.yul\":6294:6300   */\n      dup3\n        /* \"#utility.yul\":6283:6292   */\n      dup6\n        /* \"#utility.yul\":6279:6301   */\n      add\n        /* \"#utility.yul\":6250:6311   */\n      tag_61\n      jump\t// in\n    tag_137:\n        /* \"#utility.yul\":6240:6311   */\n      swap2\n      pop\n        /* \"#utility.yul\":6196:6321   */\n      pop\n        /* \"#utility.yul\":5983:6328   */\n      swap3\n      swap2\n      pop\n      pop\n      jump\t// out\n        /* \"#utility.yul\":6334:6503   */\n    tag_62:\n        /* \"#utility.yul\":6418:6429   */\n      0x00\n        /* \"#utility.yul\":6452:6458   */\n      dup3\n        /* \"#utility.yul\":6447:6450   */\n      dup3\n        /* \"#utility.yul\":6440:6459   */\n      mstore\n        /* \"#utility.yul\":6492:6496   */\n      0x20\n        /* \"#utility.yul\":6487:6490   */\n      dup3\n        /* \"#utility.yul\":6483:6497   */\n      add\n        /* \"#utility.yul\":6468:6497   */\n      swap1\n      pop\n        /* \"#utility.yul\":6334:6503   */\n      swap3\n      swap2\n      pop\n      pop\n      jump\t// out\n        /* \"#utility.yul\":6509:6691   */\n    tag_63:\n        /* \"#utility.yul\":6649:6683   */\n      0x41646472657373206f66206f776e65722063616e6e6f74206265207a65726f2e\n        /* \"#utility.yul\":6645:6646   */\n      0x00\n        /* \"#utility.yul\":6637:6643   */\n      dup3\n        /* \"#utility.yul\":6633:6647   */\n      add\n        /* \"#utility.yul\":6626:6684   */\n      mstore\n        /* \"#utility.yul\":6509:6691   */\n      pop\n      jump\t// out\n        /* \"#utility.yul\":6697:7063   */\n    tag_64:\n        /* \"#utility.yul\":6839:6842   */\n      0x00\n        /* \"#utility.yul\":6860:6927   */\n      tag_141\n        /* \"#utility.yul\":6924:6926   */\n      0x20\n        /* \"#utility.yul\":6919:6922   */\n      dup4\n        /* \"#utility.yul\":6860:6927   */\n      tag_62\n      jump\t// in\n    tag_141:\n        /* \"#utility.yul\":6853:6927   */\n      swap2\n      pop\n        /* \"#utility.yul\":6936:7029   */\n      tag_142\n        /* \"#utility.yul\":7025:7028   */\n      dup3\n        /* \"#utility.yul\":6936:7029   */\n      tag_63\n      jump\t// in\n    tag_142:\n        /* \"#utility.yul\":7054:7056   */\n      0x20\n        /* \"#utility.yul\":7049:7052   */\n      dup3\n        /* \"#utility.yul\":7045:7057   */\n      add\n        /* \"#utility.yul\":7038:7057   */\n      swap1\n      pop\n        /* \"#utility.yul\":6697:7063   */\n      swap2\n      swap1\n      pop\n      jump\t// out\n        /* \"#utility.yul\":7069:7488   */\n    tag_30:\n        /* \"#utility.yul\":7235:7239   */\n      0x00\n        /* \"#utility.yul\":7273:7275   */\n      0x20\n        /* \"#utility.yul\":7262:7271   */\n      dup3\n        /* \"#utility.yul\":7258:7276   */\n      add\n        /* \"#utility.yul\":7250:7276   */\n      swap1\n      pop\n        /* \"#utility.yul\":7322:7331   */\n      dup2\n        /* \"#utility.yul\":7316:7320   */\n      dup2\n        /* \"#utility.yul\":7312:7332   */\n      sub\n        /* \"#utility.yul\":7308:7309   */\n      0x00\n        /* \"#utility.yul\":7297:7306   */\n      dup4\n        /* \"#utility.yul\":7293:7310   */\n      add\n        /* \"#utility.yul\":7286:7333   */\n      mstore\n        /* \"#utility.yul\":7350:7481   */\n      tag_144\n        /* \"#utility.yul\":7476:7480   */\n      dup2\n        /* \"#utility.yul\":7350:7481   */\n      tag_64\n      jump\t// in\n    tag_144:\n        /* \"#utility.yul\":7342:7481   */\n      swap1\n      pop\n        /* \"#utility.yul\":7069:7488   */\n      swap2\n      swap1\n      pop\n      jump\t// out\n        /* \"#utility.yul\":7494:7641   */\n    tag_65:\n        /* \"#utility.yul\":7595:7606   */\n      0x00\n        /* \"#utility.yul\":7632:7635   */\n      dup2\n        /* \"#utility.yul\":7617:7635   */\n      swap1\n      pop\n        /* \"#utility.yul\":7494:7641   */\n      swap3\n      swap2\n      pop\n      pop\n      jump\t// out\n        /* \"#utility.yul\":7647:7801   */\n    tag_66:\n        /* \"#utility.yul\":7731:7737   */\n      dup3\n        /* \"#utility.yul\":7726:7729   */\n      dup2\n        /* \"#utility.yul\":7721:7724   */\n      dup4\n        /* \"#utility.yul\":7708:7738   */\n      calldatacopy\n        /* \"#utility.yul\":7793:7794   */\n      0x00\n        /* \"#utility.yul\":7784:7790   */\n      dup4\n        /* \"#utility.yul\":7779:7782   */\n      dup4\n        /* \"#utility.yul\":7775:7791   */\n      add\n        /* \"#utility.yul\":7768:7795   */\n      mstore\n        /* \"#utility.yul\":7647:7801   */\n      pop\n      pop\n      pop\n      jump\t// out\n        /* \"#utility.yul\":7829:8143   */\n    tag_67:\n        /* \"#utility.yul\":7943:7946   */\n      0x00\n        /* \"#utility.yul\":7964:8052   */\n      tag_148\n        /* \"#utility.yul\":8045:8051   */\n      dup4\n        /* \"#utility.yul\":8040:8043   */\n      dup6\n        /* \"#utility.yul\":7964:8052   */\n      tag_65\n      jump\t// in\n    tag_148:\n        /* \"#utility.yul\":7957:8052   */\n      swap4\n      pop\n        /* \"#utility.yul\":8062:8105   */\n      tag_149\n        /* \"#utility.yul\":8098:8104   */\n      dup4\n        /* \"#utility.yul\":8093:8096   */\n      dup6\n        /* \"#utility.yul\":8086:8091   */\n      dup5\n        /* \"#utility.yul\":8062:8105   */\n      tag_66\n      jump\t// in\n    tag_149:\n        /* \"#utility.yul\":8130:8136   */\n      dup3\n        /* \"#utility.yul\":8125:8128   */\n      dup5\n        /* \"#utility.yul\":8121:8137   */\n      add\n        /* \"#utility.yul\":8114:8137   */\n      swap1\n      pop\n        /* \"#utility.yul\":7829:8143   */\n      swap4\n      swap3\n      pop\n      pop\n      pop\n      jump\t// out\n        /* \"#utility.yul\":8149:8440   */\n    tag_32:\n        /* \"#utility.yul\":8289:8292   */\n      0x00\n        /* \"#utility.yul\":8311:8414   */\n      tag_151\n        /* \"#utility.yul\":8410:8413   */\n      dup3\n        /* \"#utility.yul\":8401:8407   */\n      dup5\n        /* \"#utility.yul\":8393:8399   */\n      dup7\n        /* \"#utility.yul\":8311:8414   */\n      tag_67\n      jump\t// in\n    tag_151:\n        /* \"#utility.yul\":8304:8414   */\n      swap2\n      pop\n        /* \"#utility.yul\":8431:8434   */\n      dup2\n        /* \"#utility.yul\":8424:8434   */\n      swap1\n      pop\n        /* \"#utility.yul\":8149:8440   */\n      swap4\n      swap3\n      pop\n      pop\n      pop\n      jump\t// out\n        /* \"#utility.yul\":8446:8618   */\n    tag_68:\n        /* \"#utility.yul\":8586:8610   */\n      0x466f727761726465642063616c6c206661696c65642e00000000000000000000\n        /* \"#utility.yul\":8582:8583   */\n      0x00\n        /* \"#utility.yul\":8574:8580   */\n      dup3\n        /* \"#utility.yul\":8570:8584   */\n      add\n        /* \"#utility.yul\":8563:8611   */\n      mstore\n        /* \"#utility.yul\":8446:8618   */\n      pop\n      jump\t// out\n        /* \"#utility.yul\":8624:8990   */\n    tag_69:\n        /* \"#utility.yul\":8766:8769   */\n      0x00\n        /* \"#utility.yul\":8787:8854   */\n      tag_154\n        /* \"#utility.yul\":8851:8853   */\n      0x16\n        /* \"#utility.yul\":8846:8849   */\n      dup4\n        /* \"#utility.yul\":8787:8854   */\n      tag_62\n      jump\t// in\n    tag_154:\n        /* \"#utility.yul\":8780:8854   */\n      swap2\n      pop\n        /* \"#utility.yul\":8863:8956   */\n      tag_155\n        /* \"#utility.yul\":8952:8955   */\n      dup3\n        /* \"#utility.yul\":8863:8956   */\n      tag_68\n      jump\t// in\n    tag_155:\n        /* \"#utility.yul\":8981:8983   */\n      0x20\n        /* \"#utility.yul\":8976:8979   */\n      dup3\n        /* \"#utility.yul\":8972:8984   */\n      add\n        /* \"#utility.yul\":8965:8984   */\n      swap1\n      pop\n        /* \"#utility.yul\":8624:8990   */\n      swap2\n      swap1\n      pop\n      jump\t// out\n        /* \"#utility.yul\":8996:9415   */\n    tag_38:\n        /* \"#utility.yul\":9162:9166   */\n      0x00\n        /* \"#utility.yul\":9200:9202   */\n      0x20\n        /* \"#utility.yul\":9189:9198   */\n      dup3\n        /* \"#utility.yul\":9185:9203   */\n      add\n        /* \"#utility.yul\":9177:9203   */\n      swap1\n      pop\n        /* \"#utility.yul\":9249:9258   */\n      dup2\n        /* \"#utility.yul\":9243:9247   */\n      dup2\n        /* \"#utility.yul\":9239:9259   */\n      sub\n        /* \"#utility.yul\":9235:9236   */\n      0x00\n        /* \"#utility.yul\":9224:9233   */\n      dup4\n        /* \"#utility.yul\":9220:9237   */\n      add\n        /* \"#utility.yul\":9213:9260   */\n      mstore\n        /* \"#utility.yul\":9277:9408   */\n      tag_157\n        /* \"#utility.yul\":9403:9407   */\n      dup2\n        /* \"#utility.yul\":9277:9408   */\n      tag_69\n      jump\t// in\n    tag_157:\n        /* \"#utility.yul\":9269:9408   */\n      swap1\n      pop\n        /* \"#utility.yul\":8996:9415   */\n      swap2\n      swap1\n      pop\n      jump\t// out\n\n    auxdata: 0xa2646970667358221220d35c9039cfa4fe7fe876cbacb010d2a0a4f709ed6ac1cbac6d2dca07c54bda2964736f6c634300080f0033\n}\n",
				"bytecode": {
					"linkReferences": {},
					"object": "608060405260405160200162000015906200010a565b604051602081830303815290604052600190816200003491906200039b565b503480156200004257600080fd5b5060405162000ce338038062000ce38339818101604052810190620000689190620004ec565b806000806101000a81548173ffffffffffffffffffffffffffffffffffffffff021916908373ffffffffffffffffffffffffffffffffffffffff160217905550506200051e565b600081905092915050565b7f7365744f776e6572286164647265737329000000000000000000000000000000600082015250565b6000620000f2601183620000af565b9150620000ff82620000ba565b601182019050919050565b60006200011782620000e3565b9150819050919050565b600081519050919050565b7f4e487b7100000000000000000000000000000000000000000000000000000000600052604160045260246000fd5b7f4e487b7100000000000000000000000000000000000000000000000000000000600052602260045260246000fd5b60006002820490506001821680620001a357607f821691505b602082108103620001b957620001b86200015b565b5b50919050565b60008190508160005260206000209050919050565b60006020601f8301049050919050565b600082821b905092915050565b600060088302620002237fffffffffffffffffffffffffffffffffffffffffffffffffffffffffffffffff82620001e4565b6200022f8683620001e4565b95508019841693508086168417925050509392505050565b6000819050919050565b6000819050919050565b60006200027c62000276620002708462000247565b62000251565b62000247565b9050919050565b6000819050919050565b62000298836200025b565b620002b0620002a78262000283565b848454620001f1565b825550505050565b600090565b620002c7620002b8565b620002d48184846200028d565b505050565b5b81811015620002fc57620002f0600082620002bd565b600181019050620002da565b5050565b601f8211156200034b576200031581620001bf565b6200032084620001d4565b8101602085101562000330578190505b620003486200033f85620001d4565b830182620002d9565b50505b505050565b600082821c905092915050565b6000620003706000198460080262000350565b1980831691505092915050565b60006200038b83836200035d565b9150826002028217905092915050565b620003a68262000121565b67ffffffffffffffff811115620003c257620003c16200012c565b5b620003ce82546200018a565b620003db82828562000300565b600060209050601f831160018114620004135760008415620003fe578287015190505b6200040a85826200037d565b8655506200047a565b601f1984166200042386620001bf565b60005b828110156200044d5784890151825560018201915060208501945060208101905062000426565b868310156200046d578489015162000469601f8916826200035d565b8355505b6001600288020188555050505b505050505050565b600080fd5b600073ffffffffffffffffffffffffffffffffffffffff82169050919050565b6000620004b48262000487565b9050919050565b620004c681620004a7565b8114620004d257600080fd5b50565b600081519050620004e681620004bb565b92915050565b60006020828403121562000505576200050462000482565b5b60006200051584828501620004d5565b91505092915050565b6107b5806200052e6000396000f3fe608060405234801561001057600080fd5b50600436106100365760003560e01c80634df7e3d01461003b578063d948d46814610059575b600080fd5b610043610075565b604051610050919061038d565b60405180910390f35b610073600480360381019061006e919061041e565b610103565b005b600180546100829061049a565b80601f01602080910402602001604051908101604052809291908181526020018280546100ae9061049a565b80156100fb5780601f106100d0576101008083540402835291602001916100fb565b820191906000526020600020905b8154815290600101906020018083116100de57829003601f168201915b505050505081565b60008282600090600492610119939291906104d5565b906101249190610554565b90507f13af4035b0e4e7ec6b922d2e250cb1ea3b75b47dd2a6483cb76d88e6fd98ec3b7bffffffffffffffffffffffffffffffffffffffffffffffffffffffff1916817bffffffffffffffffffffffffffffffffffffffffffffffffffffffff191603610220576000838360049080926101a0939291906104d5565b8101906101ad9190610611565b9050600073ffffffffffffffffffffffffffffffffffffffff168173ffffffffffffffffffffffffffffffffffffffff160361021e576040517f08c379a00000000000000000000000000000000000000000000000000000000081526004016102159061069b565b60405180910390fd5b505b60008060009054906101000a900473ffffffffffffffffffffffffffffffffffffffff1673ffffffffffffffffffffffffffffffffffffffff16848460405161026a9291906106fa565b600060405180830381855af49150503d80600081146102a5576040519150601f19603f3d011682016040523d82523d6000602084013e6102aa565b606091505b50509050806102ee576040517f08c379a00000000000000000000000000000000000000000000000000000000081526004016102e59061075f565b60405180910390fd5b50505050565b600081519050919050565b600082825260208201905092915050565b60005b8381101561032e578082015181840152602081019050610313565b8381111561033d576000848401525b50505050565b6000601f19601f8301169050919050565b600061035f826102f4565b61036981856102ff565b9350610379818560208601610310565b61038281610343565b840191505092915050565b600060208201905081810360008301526103a78184610354565b905092915050565b600080fd5b600080fd5b600080fd5b600080fd5b600080fd5b60008083601f8401126103de576103dd6103b9565b5b8235905067ffffffffffffffff8111156103fb576103fa6103be565b5b602083019150836001820283011115610417576104166103c3565b5b9250929050565b60008060208385031215610435576104346103af565b5b600083013567ffffffffffffffff811115610453576104526103b4565b5b61045f858286016103c8565b92509250509250929050565b7f4e487b7100000000000000000000000000000000000000000000000000000000600052602260045260246000fd5b600060028204905060018216806104b257607f821691505b6020821081036104c5576104c461046b565b5b50919050565b600080fd5b600080fd5b600080858511156104e9576104e86104cb565b5b838611156104fa576104f96104d0565b5b6001850283019150848603905094509492505050565b600082905092915050565b60007fffffffff0000000000000000000000000000000000000000000000000000000082169050919050565b600082821b905092915050565b60006105608383610510565b8261056b813561051b565b925060048210156105ab576105a67fffffffff0000000000000000000000000000000000000000000000000000000083600403600802610547565b831692505b505092915050565b600073ffffffffffffffffffffffffffffffffffffffff82169050919050565b60006105de826105b3565b9050919050565b6105ee816105d3565b81146105f957600080fd5b50565b60008135905061060b816105e5565b92915050565b600060208284031215610627576106266103af565b5b6000610635848285016105fc565b91505092915050565b600082825260208201905092915050565b7f41646472657373206f66206f776e65722063616e6e6f74206265207a65726f2e600082015250565b600061068560208361063e565b91506106908261064f565b602082019050919050565b600060208201905081810360008301526106b481610678565b9050919050565b600081905092915050565b82818337600083830152505050565b60006106e183856106bb565b93506106ee8385846106c6565b82840190509392505050565b60006107078284866106d5565b91508190509392505050565b7f466f727761726465642063616c6c206661696c65642e00000000000000000000600082015250565b600061074960168361063e565b915061075482610713565b602082019050919050565b600060208201905081810360008301526107788161073c565b905091905056fea2646970667358221220d35c9039cfa4fe7fe876cbacb010d2a0a4f709ed6ac1cbac6d2dca07c54bda2964736f6c634300080f0033",
					"opcodes": "PUSH1 0x80 PUSH1 0x40 MSTORE PUSH1 0x40 MLOAD PUSH1 0x20 ADD PUSH3 0x15 SWAP1 PUSH3 0x10A JUMP JUMPDEST PUSH1 0x40 MLOAD PUSH1 0x20 DUP2 DUP4 SUB SUB DUP2 MSTORE SWAP1 PUSH1 0x40 MSTORE PUSH1 0x1 SWAP1 DUP2 PUSH3 0x34 SWAP2 SWAP1 PUSH3 0x39B JUMP JUMPDEST POP CALLVALUE DUP1 ISZERO PUSH3 0x42 JUMPI PUSH1 0x0 DUP1 REVERT JUMPDEST POP PUSH1 0x40 MLOAD PUSH3 0xCE3 CODESIZE SUB DUP1 PUSH3 0xCE3 DUP4 CODECOPY DUP2 DUP2 ADD PUSH1 0x40 MSTORE DUP2 ADD SWAP1 PUSH3 0x68 SWAP2 SWAP1 PUSH3 0x4EC JUMP JUMPDEST DUP1 PUSH1 0x0 DUP1 PUSH2 0x100 EXP DUP2 SLOAD DUP2 PUSH20 0xFFFFFFFFFFFFFFFFFFFFFFFFFFFFFFFFFFFFFFFF MUL NOT AND SWAP1 DUP4 PUSH20 0xFFFFFFFFFFFFFFFFFFFFFFFFFFFFFFFFFFFFFFFF AND MUL OR SWAP1 SSTORE POP POP PUSH3 0x51E JUMP JUMPDEST PUSH1 0x0 DUP2 SWAP1 POP SWAP3 SWAP2 POP POP JUMP JUMPDEST PUSH32 0x7365744F776E6572286164647265737329000000000000000000000000000000 PUSH1 0x0 DUP3 ADD MSTORE POP JUMP JUMPDEST PUSH1 0x0 PUSH3 0xF2 PUSH1 0x11 DUP4 PUSH3 0xAF JUMP JUMPDEST SWAP2 POP PUSH3 0xFF DUP3 PUSH3 0xBA JUMP JUMPDEST PUSH1 0x11 DUP3 ADD SWAP1 POP SWAP2 SWAP1 POP JUMP JUMPDEST PUSH1 0x0 PUSH3 0x117 DUP3 PUSH3 0xE3 JUMP JUMPDEST SWAP2 POP DUP2 SWAP1 POP SWAP2 SWAP1 POP JUMP JUMPDEST PUSH1 0x0 DUP2 MLOAD SWAP1 POP SWAP2 SWAP1 POP JUMP JUMPDEST PUSH32 0x4E487B7100000000000000000000000000000000000000000000000000000000 PUSH1 0x0 MSTORE PUSH1 0x41 PUSH1 0x4 MSTORE PUSH1 0x24 PUSH1 0x0 REVERT JUMPDEST PUSH32 0x4E487B7100000000000000000000000000000000000000000000000000000000 PUSH1 0x0 MSTORE PUSH1 0x22 PUSH1 0x4 MSTORE PUSH1 0x24 PUSH1 0x0 REVERT JUMPDEST PUSH1 0x0 PUSH1 0x2 DUP3 DIV SWAP1 POP PUSH1 0x1 DUP3 AND DUP1 PUSH3 0x1A3 JUMPI PUSH1 0x7F DUP3 AND SWAP2 POP JUMPDEST PUSH1 0x20 DUP3 LT DUP2 SUB PUSH3 0x1B9 JUMPI PUSH3 0x1B8 PUSH3 0x15B JUMP JUMPDEST JUMPDEST POP SWAP2 SWAP1 POP JUMP JUMPDEST PUSH1 0x0 DUP2 SWAP1 POP DUP2 PUSH1 0x0 MSTORE PUSH1 0x20 PUSH1 0x0 KECCAK256 SWAP1 POP SWAP2 SWAP1 POP JUMP JUMPDEST PUSH1 0x0 PUSH1 0x20 PUSH1 0x1F DUP4 ADD DIV SWAP1 POP SWAP2 SWAP1 POP JUMP JUMPDEST PUSH1 0x0 DUP3 DUP3 SHL SWAP1 POP SWAP3 SWAP2 POP POP JUMP JUMPDEST PUSH1 0x0 PUSH1 0x8 DUP4 MUL PUSH3 0x223 PUSH32 0xFFFFFFFFFFFFFFFFFFFFFFFFFFFFFFFFFFFFFFFFFFFFFFFFFFFFFFFFFFFFFFFF DUP3 PUSH3 0x1E4 JUMP JUMPDEST PUSH3 0x22F DUP7 DUP4 PUSH3 0x1E4 JUMP JUMPDEST SWAP6 POP DUP1 NOT DUP5 AND SWAP4 POP DUP1 DUP7 AND DUP5 OR SWAP3 POP POP POP SWAP4 SWAP3 POP POP POP JUMP JUMPDEST PUSH1 0x0 DUP2 SWAP1 POP SWAP2 SWAP1 POP JUMP JUMPDEST PUSH1 0x0 DUP2 SWAP1 POP SWAP2 SWAP1 POP JUMP JUMPDEST PUSH1 0x0 PUSH3 0x27C PUSH3 0x276 PUSH3 0x270 DUP5 PUSH3 0x247 JUMP JUMPDEST PUSH3 0x251 JUMP JUMPDEST PUSH3 0x247 JUMP JUMPDEST SWAP1 POP SWAP2 SWAP1 POP JUMP JUMPDEST PUSH1 0x0 DUP2 SWAP1 POP SWAP2 SWAP1 POP JUMP JUMPDEST PUSH3 0x298 DUP4 PUSH3 0x25B JUMP JUMPDEST PUSH3 0x2B0 PUSH3 0x2A7 DUP3 PUSH3 0x283 JUMP JUMPDEST DUP5 DUP5 SLOAD PUSH3 0x1F1 JUMP JUMPDEST DUP3 SSTORE POP POP POP POP JUMP JUMPDEST PUSH1 0x0 SWAP1 JUMP JUMPDEST PUSH3 0x2C7 PUSH3 0x2B8 JUMP JUMPDEST PUSH3 0x2D4 DUP2 DUP5 DUP5 PUSH3 0x28D JUMP JUMPDEST POP POP POP JUMP JUMPDEST JUMPDEST DUP2 DUP2 LT ISZERO PUSH3 0x2FC JUMPI PUSH3 0x2F0 PUSH1 0x0 DUP3 PUSH3 0x2BD JUMP JUMPDEST PUSH1 0x1 DUP2 ADD SWAP1 POP PUSH3 0x2DA JUMP JUMPDEST POP POP JUMP JUMPDEST PUSH1 0x1F DUP3 GT ISZERO PUSH3 0x34B JUMPI PUSH3 0x315 DUP2 PUSH3 0x1BF JUMP JUMPDEST PUSH3 0x320 DUP5 PUSH3 0x1D4 JUMP JUMPDEST DUP2 ADD PUSH1 0x20 DUP6 LT ISZERO PUSH3 0x330 JUMPI DUP2 SWAP1 POP JUMPDEST PUSH3 0x348 PUSH3 0x33F DUP6 PUSH3 0x1D4 JUMP JUMPDEST DUP4 ADD DUP3 PUSH3 0x2D9 JUMP JUMPDEST POP POP JUMPDEST POP POP POP JUMP JUMPDEST PUSH1 0x0 DUP3 DUP3 SHR SWAP1 POP SWAP3 SWAP2 POP POP JUMP JUMPDEST PUSH1 0x0 PUSH3 0x370 PUSH1 0x0 NOT DUP5 PUSH1 0x8 MUL PUSH3 0x350 JUMP JUMPDEST NOT DUP1 DUP4 AND SWAP2 POP POP SWAP3 SWAP2 POP POP JUMP JUMPDEST PUSH1 0x0 PUSH3 0x38B DUP4 DUP4 PUSH3 0x35D JUMP JUMPDEST SWAP2 POP DUP3 PUSH1 0x2 MUL DUP3 OR SWAP1 POP SWAP3 SWAP2 POP POP JUMP JUMPDEST PUSH3 0x3A6 DUP3 PUSH3 0x121 JUMP JUMPDEST PUSH8 0xFFFFFFFFFFFFFFFF DUP2 GT ISZERO PUSH3 0x3C2 JUMPI PUSH3 0x3C1 PUSH3 0x12C JUMP JUMPDEST JUMPDEST PUSH3 0x3CE DUP3 SLOAD PUSH3 0x18A JUMP JUMPDEST PUSH3 0x3DB DUP3 DUP3 DUP6 PUSH3 0x300 JUMP JUMPDEST PUSH1 0x0 PUSH1 0x20 SWAP1 POP PUSH1 0x1F DUP4 GT PUSH1 0x1 DUP2 EQ PUSH3 0x413 JUMPI PUSH1 0x0 DUP5 ISZERO PUSH3 0x3FE JUMPI DUP3 DUP8 ADD MLOAD SWAP1 POP JUMPDEST PUSH3 0x40A DUP6 DUP3 PUSH3 0x37D JUMP JUMPDEST DUP7 SSTORE POP PUSH3 0x47A JUMP JUMPDEST PUSH1 0x1F NOT DUP5 AND PUSH3 0x423 DUP7 PUSH3 0x1BF JUMP JUMPDEST PUSH1 0x0 JUMPDEST DUP3 DUP2 LT ISZERO PUSH3 0x44D JUMPI DUP5 DUP10 ADD MLOAD DUP3 SSTORE PUSH1 0x1 DUP3 ADD SWAP2 POP PUSH1 0x20 DUP6 ADD SWAP5 POP PUSH1 0x20 DUP2 ADD SWAP1 POP PUSH3 0x426 JUMP JUMPDEST DUP7 DUP4 LT ISZERO PUSH3 0x46D JUMPI DUP5 DUP10 ADD MLOAD PUSH3 0x469 PUSH1 0x1F DUP10 AND DUP3 PUSH3 0x35D JUMP JUMPDEST DUP4 SSTORE POP JUMPDEST PUSH1 0x1 PUSH1 0x2 DUP9 MUL ADD DUP9 SSTORE POP POP POP JUMPDEST POP POP POP POP POP POP JUMP JUMPDEST PUSH1 0x0 DUP1 REVERT JUMPDEST PUSH1 0x0 PUSH20 0xFFFFFFFFFFFFFFFFFFFFFFFFFFFFFFFFFFFFFFFF DUP3 AND SWAP1 POP SWAP2 SWAP1 POP JUMP JUMPDEST PUSH1 0x0 PUSH3 0x4B4 DUP3 PUSH3 0x487 JUMP JUMPDEST SWAP1 POP SWAP2 SWAP1 POP JUMP JUMPDEST PUSH3 0x4C6 DUP2 PUSH3 0x4A7 JUMP JUMPDEST DUP2 EQ PUSH3 0x4D2 JUMPI PUSH1 0x0 DUP1 REVERT JUMPDEST POP JUMP JUMPDEST PUSH1 0x0 DUP2 MLOAD SWAP1 POP PUSH3 0x4E6 DUP2 PUSH3 0x4BB JUMP JUMPDEST SWAP3 SWAP2 POP POP JUMP JUMPDEST PUSH1 0x0 PUSH1 0x20 DUP3 DUP5 SUB SLT ISZERO PUSH3 0x505 JUMPI PUSH3 0x504 PUSH3 0x482 JUMP JUMPDEST JUMPDEST PUSH1 0x0 PUSH3 0x515 DUP5 DUP3 DUP6 ADD PUSH3 0x4D5 JUMP JUMPDEST SWAP2 POP POP SWAP3 SWAP2 POP POP JUMP JUMPDEST PUSH2 0x7B5 DUP1 PUSH3 0x52E PUSH1 0x0 CODECOPY PUSH1 0x0 RETURN INVALID PUSH1 0x80 PUSH1 0x40 MSTORE CALLVALUE DUP1 ISZERO PUSH2 0x10 JUMPI PUSH1 0x0 DUP1 REVERT JUMPDEST POP PUSH1 0x4 CALLDATASIZE LT PUSH2 0x36 JUMPI PUSH1 0x0 CALLDATALOAD PUSH1 0xE0 SHR DUP1 PUSH4 0x4DF7E3D0 EQ PUSH2 0x3B JUMPI DUP1 PUSH4 0xD948D468 EQ PUSH2 0x59 JUMPI JUMPDEST PUSH1 0x0 DUP1 REVERT JUMPDEST PUSH2 0x43 PUSH2 0x75 JUMP JUMPDEST PUSH1 0x40 MLOAD PUSH2 0x50 SWAP2 SWAP1 PUSH2 0x38D JUMP JUMPDEST PUSH1 0x40 MLOAD DUP1 SWAP2 SUB SWAP1 RETURN JUMPDEST PUSH2 0x73 PUSH1 0x4 DUP1 CALLDATASIZE SUB DUP2 ADD SWAP1 PUSH2 0x6E SWAP2 SWAP1 PUSH2 0x41E JUMP JUMPDEST PUSH2 0x103 JUMP JUMPDEST STOP JUMPDEST PUSH1 0x1 DUP1 SLOAD PUSH2 0x82 SWAP1 PUSH2 0x49A JUMP JUMPDEST DUP1 PUSH1 0x1F ADD PUSH1 0x20 DUP1 SWAP2 DIV MUL PUSH1 0x20 ADD PUSH1 0x40 MLOAD SWAP1 DUP2 ADD PUSH1 0x40 MSTORE DUP1 SWAP3 SWAP2 SWAP1 DUP2 DUP2 MSTORE PUSH1 0x20 ADD DUP3 DUP1 SLOAD PUSH2 0xAE SWAP1 PUSH2 0x49A JUMP JUMPDEST DUP1 ISZERO PUSH2 0xFB JUMPI DUP1 PUSH1 0x1F LT PUSH2 0xD0 JUMPI PUSH2 0x100 DUP1 DUP4 SLOAD DIV MUL DUP4 MSTORE SWAP2 PUSH1 0x20 ADD SWAP2 PUSH2 0xFB JUMP JUMPDEST DUP3 ADD SWAP2 SWAP1 PUSH1 0x0 MSTORE PUSH1 0x20 PUSH1 0x0 KECCAK256 SWAP1 JUMPDEST DUP2 SLOAD DUP2 MSTORE SWAP1 PUSH1 0x1 ADD SWAP1 PUSH1 0x20 ADD DUP1 DUP4 GT PUSH2 0xDE JUMPI DUP3 SWAP1 SUB PUSH1 0x1F AND DUP3 ADD SWAP2 JUMPDEST POP POP POP POP POP DUP2 JUMP JUMPDEST PUSH1 0x0 DUP3 DUP3 PUSH1 0x0 SWAP1 PUSH1 0x4 SWAP3 PUSH2 0x119 SWAP4 SWAP3 SWAP2 SWAP1 PUSH2 0x4D5 JUMP JUMPDEST SWAP1 PUSH2 0x124 SWAP2 SWAP1 PUSH2 0x554 JUMP JUMPDEST SWAP1 POP PUSH32 0x13AF4035B0E4E7EC6B922D2E250CB1EA3B75B47DD2A6483CB76D88E6FD98EC3B PUSH28 0xFFFFFFFFFFFFFFFFFFFFFFFFFFFFFFFFFFFFFFFFFFFFFFFFFFFFFFFF NOT AND DUP2 PUSH28 0xFFFFFFFFFFFFFFFFFFFFFFFFFFFFFFFFFFFFFFFFFFFFFFFFFFFFFFFF NOT AND SUB PUSH2 0x220 JUMPI PUSH1 0x0 DUP4 DUP4 PUSH1 0x4 SWAP1 DUP1 SWAP3 PUSH2 0x1A0 SWAP4 SWAP3 SWAP2 SWAP1 PUSH2 0x4D5 JUMP JUMPDEST DUP2 ADD SWAP1 PUSH2 0x1AD SWAP2 SWAP1 PUSH2 0x611 JUMP JUMPDEST SWAP1 POP PUSH1 0x0 PUSH20 0xFFFFFFFFFFFFFFFFFFFFFFFFFFFFFFFFFFFFFFFF AND DUP2 PUSH20 0xFFFFFFFFFFFFFFFFFFFFFFFFFFFFFFFFFFFFFFFF AND SUB PUSH2 0x21E JUMPI PUSH1 0x40 MLOAD PUSH32 0x8C379A000000000000000000000000000000000000000000000000000000000 DUP2 MSTORE PUSH1 0x4 ADD PUSH2 0x215 SWAP1 PUSH2 0x69B JUMP JUMPDEST PUSH1 0x40 MLOAD DUP1 SWAP2 SUB SWAP1 REVERT JUMPDEST POP JUMPDEST PUSH1 0x0 DUP1 PUSH1 0x0 SWAP1 SLOAD SWAP1 PUSH2 0x100 EXP SWAP1 DIV PUSH20 0xFFFFFFFFFFFFFFFFFFFFFFFFFFFFFFFFFFFFFFFF AND PUSH20 0xFFFFFFFFFFFFFFFFFFFFFFFFFFFFFFFFFFFFFFFF AND DUP5 DUP5 PUSH1 0x40 MLOAD PUSH2 0x26A SWAP3 SWAP2 SWAP1 PUSH2 0x6FA JUMP JUMPDEST PUSH1 0x0 PUSH1 0x40 MLOAD DUP1 DUP4 SUB DUP2 DUP6 GAS DELEGATECALL SWAP2 POP POP RETURNDATASIZE DUP1 PUSH1 0x0 DUP2 EQ PUSH2 0x2A5 JUMPI PUSH1 0x40 MLOAD SWAP2 POP PUSH1 0x1F NOT PUSH1 0x3F RETURNDATASIZE ADD AND DUP3 ADD PUSH1 0x40 MSTORE RETURNDATASIZE DUP3 MSTORE RETURNDATASIZE PUSH1 0x0 PUSH1 0x20 DUP5 ADD RETURNDATACOPY PUSH2 0x2AA JUMP JUMPDEST PUSH1 0x60 SWAP2 POP JUMPDEST POP POP SWAP1 POP DUP1 PUSH2 0x2EE JUMPI PUSH1 0x40 MLOAD PUSH32 0x8C379A000000000000000000000000000000000000000000000000000000000 DUP2 MSTORE PUSH1 0x4 ADD PUSH2 0x2E5 SWAP1 PUSH2 0x75F JUMP JUMPDEST PUSH1 0x40 MLOAD DUP1 SWAP2 SUB SWAP1 REVERT JUMPDEST POP POP POP POP JUMP JUMPDEST PUSH1 0x0 DUP2 MLOAD SWAP1 POP SWAP2 SWAP1 POP JUMP JUMPDEST PUSH1 0x0 DUP3 DUP3 MSTORE PUSH1 0x20 DUP3 ADD SWAP1 POP SWAP3 SWAP2 POP POP JUMP JUMPDEST PUSH1 0x0 JUMPDEST DUP4 DUP2 LT ISZERO PUSH2 0x32E JUMPI DUP1 DUP3 ADD MLOAD DUP2 DUP5 ADD MSTORE PUSH1 0x20 DUP2 ADD SWAP1 POP PUSH2 0x313 JUMP JUMPDEST DUP4 DUP2 GT ISZERO PUSH2 0x33D JUMPI PUSH1 0x0 DUP5 DUP5 ADD MSTORE JUMPDEST POP POP POP POP JUMP JUMPDEST PUSH1 0x0 PUSH1 0x1F NOT PUSH1 0x1F DUP4 ADD AND SWAP1 POP SWAP2 SWAP1 POP JUMP JUMPDEST PUSH1 0x0 PUSH2 0x35F DUP3 PUSH2 0x2F4 JUMP JUMPDEST PUSH2 0x369 DUP2 DUP6 PUSH2 0x2FF JUMP JUMPDEST SWAP4 POP PUSH2 0x379 DUP2 DUP6 PUSH1 0x20 DUP7 ADD PUSH2 0x310 JUMP JUMPDEST PUSH2 0x382 DUP2 PUSH2 0x343 JUMP JUMPDEST DUP5 ADD SWAP2 POP POP SWAP3 SWAP2 POP POP JUMP JUMPDEST PUSH1 0x0 PUSH1 0x20 DUP3 ADD SWAP1 POP DUP2 DUP2 SUB PUSH1 0x0 DUP4 ADD MSTORE PUSH2 0x3A7 DUP2 DUP5 PUSH2 0x354 JUMP JUMPDEST SWAP1 POP SWAP3 SWAP2 POP POP JUMP JUMPDEST PUSH1 0x0 DUP1 REVERT JUMPDEST PUSH1 0x0 DUP1 REVERT JUMPDEST PUSH1 0x0 DUP1 REVERT JUMPDEST PUSH1 0x0 DUP1 REVERT JUMPDEST PUSH1 0x0 DUP1 REVERT JUMPDEST PUSH1 0x0 DUP1 DUP4 PUSH1 0x1F DUP5 ADD SLT PUSH2 0x3DE JUMPI PUSH2 0x3DD PUSH2 0x3B9 JUMP JUMPDEST JUMPDEST DUP3 CALLDATALOAD SWAP1 POP PUSH8 0xFFFFFFFFFFFFFFFF DUP2 GT ISZERO PUSH2 0x3FB JUMPI PUSH2 0x3FA PUSH2 0x3BE JUMP JUMPDEST JUMPDEST PUSH1 0x20 DUP4 ADD SWAP2 POP DUP4 PUSH1 0x1 DUP3 MUL DUP4 ADD GT ISZERO PUSH2 0x417 JUMPI PUSH2 0x416 PUSH2 0x3C3 JUMP JUMPDEST JUMPDEST SWAP3 POP SWAP3 SWAP1 POP JUMP JUMPDEST PUSH1 0x0 DUP1 PUSH1 0x20 DUP4 DUP6 SUB SLT ISZERO PUSH2 0x435 JUMPI PUSH2 0x434 PUSH2 0x3AF JUMP JUMPDEST JUMPDEST PUSH1 0x0 DUP4 ADD CALLDATALOAD PUSH8 0xFFFFFFFFFFFFFFFF DUP2 GT ISZERO PUSH2 0x453 JUMPI PUSH2 0x452 PUSH2 0x3B4 JUMP JUMPDEST JUMPDEST PUSH2 0x45F DUP6 DUP3 DUP7 ADD PUSH2 0x3C8 JUMP JUMPDEST SWAP3 POP SWAP3 POP POP SWAP3 POP SWAP3 SWAP1 POP JUMP JUMPDEST PUSH32 0x4E487B7100000000000000000000000000000000000000000000000000000000 PUSH1 0x0 MSTORE PUSH1 0x22 PUSH1 0x4 MSTORE PUSH1 0x24 PUSH1 0x0 REVERT JUMPDEST PUSH1 0x0 PUSH1 0x2 DUP3 DIV SWAP1 POP PUSH1 0x1 DUP3 AND DUP1 PUSH2 0x4B2 JUMPI PUSH1 0x7F DUP3 AND SWAP2 POP JUMPDEST PUSH1 0x20 DUP3 LT DUP2 SUB PUSH2 0x4C5 JUMPI PUSH2 0x4C4 PUSH2 0x46B JUMP JUMPDEST JUMPDEST POP SWAP2 SWAP1 POP JUMP JUMPDEST PUSH1 0x0 DUP1 REVERT JUMPDEST PUSH1 0x0 DUP1 REVERT JUMPDEST PUSH1 0x0 DUP1 DUP6 DUP6 GT ISZERO PUSH2 0x4E9 JUMPI PUSH2 0x4E8 PUSH2 0x4CB JUMP JUMPDEST JUMPDEST DUP4 DUP7 GT ISZERO PUSH2 0x4FA JUMPI PUSH2 0x4F9 PUSH2 0x4D0 JUMP JUMPDEST JUMPDEST PUSH1 0x1 DUP6 MUL DUP4 ADD SWAP2 POP DUP5 DUP7 SUB SWAP1 POP SWAP5 POP SWAP5 SWAP3 POP POP POP JUMP JUMPDEST PUSH1 0x0 DUP3 SWAP1 POP SWAP3 SWAP2 POP POP JUMP JUMPDEST PUSH1 0x0 PUSH32 0xFFFFFFFF00000000000000000000000000000000000000000000000000000000 DUP3 AND SWAP1 POP SWAP2 SWAP1 POP JUMP JUMPDEST PUSH1 0x0 DUP3 DUP3 SHL SWAP1 POP SWAP3 SWAP2 POP POP JUMP JUMPDEST PUSH1 0x0 PUSH2 0x560 DUP4 DUP4 PUSH2 0x510 JUMP JUMPDEST DUP3 PUSH2 0x56B DUP2 CALLDATALOAD PUSH2 0x51B JUMP JUMPDEST SWAP3 POP PUSH1 0x4 DUP3 LT ISZERO PUSH2 0x5AB JUMPI PUSH2 0x5A6 PUSH32 0xFFFFFFFF00000000000000000000000000000000000000000000000000000000 DUP4 PUSH1 0x4 SUB PUSH1 0x8 MUL PUSH2 0x547 JUMP JUMPDEST DUP4 AND SWAP3 POP JUMPDEST POP POP SWAP3 SWAP2 POP POP JUMP JUMPDEST PUSH1 0x0 PUSH20 0xFFFFFFFFFFFFFFFFFFFFFFFFFFFFFFFFFFFFFFFF DUP3 AND SWAP1 POP SWAP2 SWAP1 POP JUMP JUMPDEST PUSH1 0x0 PUSH2 0x5DE DUP3 PUSH2 0x5B3 JUMP JUMPDEST SWAP1 POP SWAP2 SWAP1 POP JUMP JUMPDEST PUSH2 0x5EE DUP2 PUSH2 0x5D3 JUMP JUMPDEST DUP2 EQ PUSH2 0x5F9 JUMPI PUSH1 0x0 DUP1 REVERT JUMPDEST POP JUMP JUMPDEST PUSH1 0x0 DUP2 CALLDATALOAD SWAP1 POP PUSH2 0x60B DUP2 PUSH2 0x5E5 JUMP JUMPDEST SWAP3 SWAP2 POP POP JUMP JUMPDEST PUSH1 0x0 PUSH1 0x20 DUP3 DUP5 SUB SLT ISZERO PUSH2 0x627 JUMPI PUSH2 0x626 PUSH2 0x3AF JUMP JUMPDEST JUMPDEST PUSH1 0x0 PUSH2 0x635 DUP5 DUP3 DUP6 ADD PUSH2 0x5FC JUMP JUMPDEST SWAP2 POP POP SWAP3 SWAP2 POP POP JUMP JUMPDEST PUSH1 0x0 DUP3 DUP3 MSTORE PUSH1 0x20 DUP3 ADD SWAP1 POP SWAP3 SWAP2 POP POP JUMP JUMPDEST PUSH32 0x41646472657373206F66206F776E65722063616E6E6F74206265207A65726F2E PUSH1 0x0 DUP3 ADD MSTORE POP JUMP JUMPDEST PUSH1 0x0 PUSH2 0x685 PUSH1 0x20 DUP4 PUSH2 0x63E JUMP JUMPDEST SWAP2 POP PUSH2 0x690 DUP3 PUSH2 0x64F JUMP JUMPDEST PUSH1 0x20 DUP3 ADD SWAP1 POP SWAP2 SWAP1 POP JUMP JUMPDEST PUSH1 0x0 PUSH1 0x20 DUP3 ADD SWAP1 POP DUP2 DUP2 SUB PUSH1 0x0 DUP4 ADD MSTORE PUSH2 0x6B4 DUP2 PUSH2 0x678 JUMP JUMPDEST SWAP1 POP SWAP2 SWAP1 POP JUMP JUMPDEST PUSH1 0x0 DUP2 SWAP1 POP SWAP3 SWAP2 POP POP JUMP JUMPDEST DUP3 DUP2 DUP4 CALLDATACOPY PUSH1 0x0 DUP4 DUP4 ADD MSTORE POP POP POP JUMP JUMPDEST PUSH1 0x0 PUSH2 0x6E1 DUP4 DUP6 PUSH2 0x6BB JUMP JUMPDEST SWAP4 POP PUSH2 0x6EE DUP4 DUP6 DUP5 PUSH2 0x6C6 JUMP JUMPDEST DUP3 DUP5 ADD SWAP1 POP SWAP4 SWAP3 POP POP POP JUMP JUMPDEST PUSH1 0x0 PUSH2 0x707 DUP3 DUP5 DUP7 PUSH2 0x6D5 JUMP JUMPDEST SWAP2 POP DUP2 SWAP1 POP SWAP4 SWAP3 POP POP POP JUMP JUMPDEST PUSH32 0x466F727761726465642063616C6C206661696C65642E00000000000000000000 PUSH1 0x0 DUP3 ADD MSTORE POP JUMP JUMPDEST PUSH1 0x0 PUSH2 0x749 PUSH1 0x16 DUP4 PUSH2 0x63E JUMP JUMPDEST SWAP2 POP PUSH2 0x754 DUP3 PUSH2 0x713 JUMP JUMPDEST PUSH1 0x20 DUP3 ADD SWAP1 POP SWAP2 SWAP1 POP JUMP JUMPDEST PUSH1 0x0 PUSH1 0x20 DUP3 ADD SWAP1 POP DUP2 DUP2 SUB PUSH1 0x0 DUP4 ADD MSTORE PUSH2 0x778 DUP2 PUSH2 0x73C JUMP JUMPDEST SWAP1 POP SWAP2 SWAP1 POP JUMP INVALID LOG2 PUSH5 0x6970667358 0x22 SLT KECCAK256 0xD3 0x5C SWAP1 CODECOPY 0xCF LOG4 INVALID PUSH32 0xE876CBACB010D2A0A4F709ED6AC1CBAC6D2DCA07C54BDA2964736F6C63430008 0xF STOP CALLER "
				},
				"gasEstimates": {
					"creation": {
						"codeDepositCost": "394600",
						"executionCost": "infinite",
						"totalCost": "infinite"
					},
					"external": {
						"b()": "infinite",
						"forward(bytes)": "infinite"
					}
				},
				"methodIdentifiers": {
					"b()": "4df7e3d0",
					"forward(bytes)": "d948d468"
				}
			},
			"storageLayout": {
				"storage": [
					{
						"astId": 4,
						"contract": "study/chapter07/arrySlice.sol:testArrySlice",
						"label": "client",
						"offset": 0,
						"slot": "0",
						"type": "t_address"
					},
					{
						"astId": 20,
						"contract": "study/chapter07/arrySlice.sol:testArrySlice",
						"label": "b",
						"offset": 0,
						"slot": "1",
						"type": "t_bytes_storage"
					}
				],
				"types": {
					"t_address": {
						"encoding": "inplace",
						"label": "address",
						"numberOfBytes": "20"
					},
					"t_bytes_storage": {
						"encoding": "bytes",
						"label": "bytes",
						"numberOfBytes": "32"
					}
				}
			},
			"userdoc": {
				"kind": "user",
				"methods": {
					"forward(bytes)": {
						"notice": "在进行参数验证之后，转发到由client实现的 \"setOwner(address)\""
					}
				},
				"version": 1
			}
		}
	}
}