{
	"study/chapter07/byte123.sol": {
		"bytes123": {
			"abi": [
				{
					"inputs": [],
					"name": "b1",
					"outputs": [
						{
							"internalType": "bytes1",
							"name": "",
							"type": "bytes1"
						}
					],
					"stateMutability": "view",
					"type": "function"
				},
				{
					"inputs": [],
					"name": "b2",
					"outputs": [
						{
							"internalType": "bytes2",
							"name": "",
							"type": "bytes2"
						}
					],
					"stateMutability": "view",
					"type": "function"
				},
				{
					"inputs": [],
					"name": "b32",
					"outputs": [
						{
							"internalType": "bytes32",
							"name": "",
							"type": "bytes32"
						}
					],
					"stateMutability": "view",
					"type": "function"
				}
			],
			"devdoc": {
				"kind": "dev",
				"methods": {},
				"version": 1
			},
			"evm": {
				"assembly": "    /* \"study/chapter07/byte123.sol\":56:208  contract bytes123{... */\n  mstore(0x40, 0x80)\n    /* \"study/chapter07/byte123.sol\":79:101  bytes1 public b1 = 'a' */\n  0x6100000000000000000000000000000000000000000000000000000000000000\n  0x00\n  dup1\n  0x0100\n  exp\n  dup2\n  sload\n  dup2\n  0xff\n  mul\n  not\n  and\n  swap1\n  dup4\n  0xf8\n  shr\n  mul\n  or\n  swap1\n  sstore\n  pop\n    /* \"study/chapter07/byte123.sol\":107:130  bytes2 public b2 = \"ab\" */\n  0x6162000000000000000000000000000000000000000000000000000000000000\n  0x00\n  exp(0x0100, 0x01)\n  dup2\n  sload\n  dup2\n  0xffff\n  mul\n  not\n  and\n  swap1\n  dup4\n  0xf0\n  shr\n  mul\n  or\n  swap1\n  sstore\n  pop\n    /* \"study/chapter07/byte123.sol\":181:205  bytes32 public b32 = \"a\" */\n  sstore(0x01, 0x6100000000000000000000000000000000000000000000000000000000000000)\n    /* \"study/chapter07/byte123.sol\":56:208  contract bytes123{... */\n  callvalue\n  dup1\n  iszero\n  tag_1\n  jumpi\n  0x00\n  dup1\n  revert\ntag_1:\n  pop\n  dataSize(sub_0)\n  dup1\n  dataOffset(sub_0)\n  0x00\n  codecopy\n  0x00\n  return\nstop\n\nsub_0: assembly {\n        /* \"study/chapter07/byte123.sol\":56:208  contract bytes123{... */\n      mstore(0x40, 0x80)\n      callvalue\n      dup1\n      iszero\n      tag_1\n      jumpi\n      0x00\n      dup1\n      revert\n    tag_1:\n      pop\n      jumpi(tag_2, lt(calldatasize, 0x04))\n      shr(0xe0, calldataload(0x00))\n      dup1\n      0x0add6ef2\n      eq\n      tag_3\n      jumpi\n      dup1\n      0xee495002\n      eq\n      tag_4\n      jumpi\n      dup1\n      0xf8aab238\n      eq\n      tag_5\n      jumpi\n    tag_2:\n      0x00\n      dup1\n      revert\n        /* \"study/chapter07/byte123.sol\":107:130  bytes2 public b2 = \"ab\" */\n    tag_3:\n      tag_6\n      tag_7\n      jump\t// in\n    tag_6:\n      mload(0x40)\n      tag_8\n      swap2\n      swap1\n      tag_9\n      jump\t// in\n    tag_8:\n      mload(0x40)\n      dup1\n      swap2\n      sub\n      swap1\n      return\n        /* \"study/chapter07/byte123.sol\":79:101  bytes1 public b1 = 'a' */\n    tag_4:\n      tag_10\n      tag_11\n      jump\t// in\n    tag_10:\n      mload(0x40)\n      tag_12\n      swap2\n      swap1\n      tag_13\n      jump\t// in\n    tag_12:\n      mload(0x40)\n      dup1\n      swap2\n      sub\n      swap1\n      return\n        /* \"study/chapter07/byte123.sol\":181:205  bytes32 public b32 = \"a\" */\n    tag_5:\n      tag_14\n      tag_15\n      jump\t// in\n    tag_14:\n      mload(0x40)\n      tag_16\n      swap2\n      swap1\n      tag_17\n      jump\t// in\n    tag_16:\n      mload(0x40)\n      dup1\n      swap2\n      sub\n      swap1\n      return\n        /* \"study/chapter07/byte123.sol\":107:130  bytes2 public b2 = \"ab\" */\n    tag_7:\n      0x00\n      0x01\n      swap1\n      sload\n      swap1\n      0x0100\n      exp\n      swap1\n      div\n      0xf0\n      shl\n      dup2\n      jump\t// out\n        /* \"study/chapter07/byte123.sol\":79:101  bytes1 public b1 = 'a' */\n    tag_11:\n      0x00\n      dup1\n      sload\n      swap1\n      0x0100\n      exp\n      swap1\n      div\n      0xf8\n      shl\n      dup2\n      jump\t// out\n        /* \"study/chapter07/byte123.sol\":181:205  bytes32 public b32 = \"a\" */\n    tag_15:\n      sload(0x01)\n      dup2\n      jump\t// out\n        /* \"#utility.yul\":7:156   */\n    tag_18:\n        /* \"#utility.yul\":43:50   */\n      0x00\n        /* \"#utility.yul\":83:149   */\n      0xffff000000000000000000000000000000000000000000000000000000000000\n        /* \"#utility.yul\":76:81   */\n      dup3\n        /* \"#utility.yul\":72:150   */\n      and\n        /* \"#utility.yul\":61:150   */\n      swap1\n      pop\n        /* \"#utility.yul\":7:156   */\n      swap2\n      swap1\n      pop\n      jump\t// out\n        /* \"#utility.yul\":162:277   */\n    tag_19:\n        /* \"#utility.yul\":247:270   */\n      tag_27\n        /* \"#utility.yul\":264:269   */\n      dup2\n        /* \"#utility.yul\":247:270   */\n      tag_18\n      jump\t// in\n    tag_27:\n        /* \"#utility.yul\":242:245   */\n      dup3\n        /* \"#utility.yul\":235:271   */\n      mstore\n        /* \"#utility.yul\":162:277   */\n      pop\n      pop\n      jump\t// out\n        /* \"#utility.yul\":283:501   */\n    tag_9:\n        /* \"#utility.yul\":374:378   */\n      0x00\n        /* \"#utility.yul\":412:414   */\n      0x20\n        /* \"#utility.yul\":401:410   */\n      dup3\n        /* \"#utility.yul\":397:415   */\n      add\n        /* \"#utility.yul\":389:415   */\n      swap1\n      pop\n        /* \"#utility.yul\":425:494   */\n      tag_29\n        /* \"#utility.yul\":491:492   */\n      0x00\n        /* \"#utility.yul\":480:489   */\n      dup4\n        /* \"#utility.yul\":476:493   */\n      add\n        /* \"#utility.yul\":467:473   */\n      dup5\n        /* \"#utility.yul\":425:494   */\n      tag_19\n      jump\t// in\n    tag_29:\n        /* \"#utility.yul\":283:501   */\n      swap3\n      swap2\n      pop\n      pop\n      jump\t// out\n        /* \"#utility.yul\":507:656   */\n    tag_20:\n        /* \"#utility.yul\":543:550   */\n      0x00\n        /* \"#utility.yul\":583:649   */\n      0xff00000000000000000000000000000000000000000000000000000000000000\n        /* \"#utility.yul\":576:581   */\n      dup3\n        /* \"#utility.yul\":572:650   */\n      and\n        /* \"#utility.yul\":561:650   */\n      swap1\n      pop\n        /* \"#utility.yul\":507:656   */\n      swap2\n      swap1\n      pop\n      jump\t// out\n        /* \"#utility.yul\":662:777   */\n    tag_21:\n        /* \"#utility.yul\":747:770   */\n      tag_32\n        /* \"#utility.yul\":764:769   */\n      dup2\n        /* \"#utility.yul\":747:770   */\n      tag_20\n      jump\t// in\n    tag_32:\n        /* \"#utility.yul\":742:745   */\n      dup3\n        /* \"#utility.yul\":735:771   */\n      mstore\n        /* \"#utility.yul\":662:777   */\n      pop\n      pop\n      jump\t// out\n        /* \"#utility.yul\":783:1001   */\n    tag_13:\n        /* \"#utility.yul\":874:878   */\n      0x00\n        /* \"#utility.yul\":912:914   */\n      0x20\n        /* \"#utility.yul\":901:910   */\n      dup3\n        /* \"#utility.yul\":897:915   */\n      add\n        /* \"#utility.yul\":889:915   */\n      swap1\n      pop\n        /* \"#utility.yul\":925:994   */\n      tag_34\n        /* \"#utility.yul\":991:992   */\n      0x00\n        /* \"#utility.yul\":980:989   */\n      dup4\n        /* \"#utility.yul\":976:993   */\n      add\n        /* \"#utility.yul\":967:973   */\n      dup5\n        /* \"#utility.yul\":925:994   */\n      tag_21\n      jump\t// in\n    tag_34:\n        /* \"#utility.yul\":783:1001   */\n      swap3\n      swap2\n      pop\n      pop\n      jump\t// out\n        /* \"#utility.yul\":1007:1084   */\n    tag_22:\n        /* \"#utility.yul\":1044:1051   */\n      0x00\n        /* \"#utility.yul\":1073:1078   */\n      dup2\n        /* \"#utility.yul\":1062:1078   */\n      swap1\n      pop\n        /* \"#utility.yul\":1007:1084   */\n      swap2\n      swap1\n      pop\n      jump\t// out\n        /* \"#utility.yul\":1090:1208   */\n    tag_23:\n        /* \"#utility.yul\":1177:1201   */\n      tag_37\n        /* \"#utility.yul\":1195:1200   */\n      dup2\n        /* \"#utility.yul\":1177:1201   */\n      tag_22\n      jump\t// in\n    tag_37:\n        /* \"#utility.yul\":1172:1175   */\n      dup3\n        /* \"#utility.yul\":1165:1202   */\n      mstore\n        /* \"#utility.yul\":1090:1208   */\n      pop\n      pop\n      jump\t// out\n        /* \"#utility.yul\":1214:1436   */\n    tag_17:\n        /* \"#utility.yul\":1307:1311   */\n      0x00\n        /* \"#utility.yul\":1345:1347   */\n      0x20\n        /* \"#utility.yul\":1334:1343   */\n      dup3\n        /* \"#utility.yul\":1330:1348   */\n      add\n        /* \"#utility.yul\":1322:1348   */\n      swap1\n      pop\n        /* \"#utility.yul\":1358:1429   */\n      tag_39\n        /* \"#utility.yul\":1426:1427   */\n      0x00\n        /* \"#utility.yul\":1415:1424   */\n      dup4\n        /* \"#utility.yul\":1411:1428   */\n      add\n        /* \"#utility.yul\":1402:1408   */\n      dup5\n        /* \"#utility.yul\":1358:1429   */\n      tag_23\n      jump\t// in\n    tag_39:\n        /* \"#utility.yul\":1214:1436   */\n      swap3\n      swap2\n      pop\n      pop\n      jump\t// out\n\n    auxdata: 0xa26469706673582212201d0c18451f9ee51219741fc65f225e92d3d7d2454ecf886bff333f995c2f708464736f6c634300080f0033\n}\n",
				"bytecode": {
					"linkReferences": {},
					"object": "60806040527f61000000000000000000000000000000000000000000000000000000000000006000806101000a81548160ff021916908360f81c02179055507f6162000000000000000000000000000000000000000000000000000000000000600060016101000a81548161ffff021916908360f01c02179055507f61000000000000000000000000000000000000000000000000000000000000006001553480156100aa57600080fd5b506101e0806100ba6000396000f3fe608060405234801561001057600080fd5b50600436106100415760003560e01c80630add6ef214610046578063ee49500214610064578063f8aab23814610082575b600080fd5b61004e6100a0565b60405161005b9190610105565b60405180910390f35b61006c6100b3565b604051610079919061015b565b60405180910390f35b61008a6100c4565b604051610097919061018f565b60405180910390f35b600060019054906101000a900460f01b81565b60008054906101000a900460f81b81565b60015481565b60007fffff00000000000000000000000000000000000000000000000000000000000082169050919050565b6100ff816100ca565b82525050565b600060208201905061011a60008301846100f6565b92915050565b60007fff0000000000000000000000000000000000000000000000000000000000000082169050919050565b61015581610120565b82525050565b6000602082019050610170600083018461014c565b92915050565b6000819050919050565b61018981610176565b82525050565b60006020820190506101a46000830184610180565b9291505056fea26469706673582212201d0c18451f9ee51219741fc65f225e92d3d7d2454ecf886bff333f995c2f708464736f6c634300080f0033",
					"opcodes": "PUSH1 0x80 PUSH1 0x40 MSTORE PUSH32 0x6100000000000000000000000000000000000000000000000000000000000000 PUSH1 0x0 DUP1 PUSH2 0x100 EXP DUP2 SLOAD DUP2 PUSH1 0xFF MUL NOT AND SWAP1 DUP4 PUSH1 0xF8 SHR MUL OR SWAP1 SSTORE POP PUSH32 0x6162000000000000000000000000000000000000000000000000000000000000 PUSH1 0x0 PUSH1 0x1 PUSH2 0x100 EXP DUP2 SLOAD DUP2 PUSH2 0xFFFF MUL NOT AND SWAP1 DUP4 PUSH1 0xF0 SHR MUL OR SWAP1 SSTORE POP PUSH32 0x6100000000000000000000000000000000000000000000000000000000000000 PUSH1 0x1 SSTORE CALLVALUE DUP1 ISZERO PUSH2 0xAA JUMPI PUSH1 0x0 DUP1 REVERT JUMPDEST POP PUSH2 0x1E0 DUP1 PUSH2 0xBA PUSH1 0x0 CODECOPY PUSH1 0x0 RETURN INVALID PUSH1 0x80 PUSH1 0x40 MSTORE CALLVALUE DUP1 ISZERO PUSH2 0x10 JUMPI PUSH1 0x0 DUP1 REVERT JUMPDEST POP PUSH1 0x4 CALLDATASIZE LT PUSH2 0x41 JUMPI PUSH1 0x0 CALLDATALOAD PUSH1 0xE0 SHR DUP1 PUSH4 0xADD6EF2 EQ PUSH2 0x46 JUMPI DUP1 PUSH4 0xEE495002 EQ PUSH2 0x64 JUMPI DUP1 PUSH4 0xF8AAB238 EQ PUSH2 0x82 JUMPI JUMPDEST PUSH1 0x0 DUP1 REVERT JUMPDEST PUSH2 0x4E PUSH2 0xA0 JUMP JUMPDEST PUSH1 0x40 MLOAD PUSH2 0x5B SWAP2 SWAP1 PUSH2 0x105 JUMP JUMPDEST PUSH1 0x40 MLOAD DUP1 SWAP2 SUB SWAP1 RETURN JUMPDEST PUSH2 0x6C PUSH2 0xB3 JUMP JUMPDEST PUSH1 0x40 MLOAD PUSH2 0x79 SWAP2 SWAP1 PUSH2 0x15B JUMP JUMPDEST PUSH1 0x40 MLOAD DUP1 SWAP2 SUB SWAP1 RETURN JUMPDEST PUSH2 0x8A PUSH2 0xC4 JUMP JUMPDEST PUSH1 0x40 MLOAD PUSH2 0x97 SWAP2 SWAP1 PUSH2 0x18F JUMP JUMPDEST PUSH1 0x40 MLOAD DUP1 SWAP2 SUB SWAP1 RETURN JUMPDEST PUSH1 0x0 PUSH1 0x1 SWAP1 SLOAD SWAP1 PUSH2 0x100 EXP SWAP1 DIV PUSH1 0xF0 SHL DUP2 JUMP JUMPDEST PUSH1 0x0 DUP1 SLOAD SWAP1 PUSH2 0x100 EXP SWAP1 DIV PUSH1 0xF8 SHL DUP2 JUMP JUMPDEST PUSH1 0x1 SLOAD DUP2 JUMP JUMPDEST PUSH1 0x0 PUSH32 0xFFFF000000000000000000000000000000000000000000000000000000000000 DUP3 AND SWAP1 POP SWAP2 SWAP1 POP JUMP JUMPDEST PUSH2 0xFF DUP2 PUSH2 0xCA JUMP JUMPDEST DUP3 MSTORE POP POP JUMP JUMPDEST PUSH1 0x0 PUSH1 0x20 DUP3 ADD SWAP1 POP PUSH2 0x11A PUSH1 0x0 DUP4 ADD DUP5 PUSH2 0xF6 JUMP JUMPDEST SWAP3 SWAP2 POP POP JUMP JUMPDEST PUSH1 0x0 PUSH32 0xFF00000000000000000000000000000000000000000000000000000000000000 DUP3 AND SWAP1 POP SWAP2 SWAP1 POP JUMP JUMPDEST PUSH2 0x155 DUP2 PUSH2 0x120 JUMP JUMPDEST DUP3 MSTORE POP POP JUMP JUMPDEST PUSH1 0x0 PUSH1 0x20 DUP3 ADD SWAP1 POP PUSH2 0x170 PUSH1 0x0 DUP4 ADD DUP5 PUSH2 0x14C JUMP JUMPDEST SWAP3 SWAP2 POP POP JUMP JUMPDEST PUSH1 0x0 DUP2 SWAP1 POP SWAP2 SWAP1 POP JUMP JUMPDEST PUSH2 0x189 DUP2 PUSH2 0x176 JUMP JUMPDEST DUP3 MSTORE POP POP JUMP JUMPDEST PUSH1 0x0 PUSH1 0x20 DUP3 ADD SWAP1 POP PUSH2 0x1A4 PUSH1 0x0 DUP4 ADD DUP5 PUSH2 0x180 JUMP JUMPDEST SWAP3 SWAP2 POP POP JUMP INVALID LOG2 PUSH5 0x6970667358 0x22 SLT KECCAK256 SAR 0xC XOR GASLIMIT 0x1F SWAP15 0xE5 SLT NOT PUSH21 0x1FC65F225E92D3D7D2454ECF886BFF333F995C2F70 DUP5 PUSH5 0x736F6C6343 STOP ADDMOD 0xF STOP CALLER "
				},
				"gasEstimates": {
					"creation": {
						"codeDepositCost": "96000",
						"executionCost": "70831",
						"totalCost": "166831"
					},
					"external": {
						"b1()": "2468",
						"b2()": "2499",
						"b32()": "2451"
					}
				},
				"methodIdentifiers": {
					"b1()": "ee495002",
					"b2()": "0add6ef2",
					"b32()": "f8aab238"
				}
			},
			"storageLayout": {
				"storage": [
					{
						"astId": 4,
						"contract": "study/chapter07/byte123.sol:bytes123",
						"label": "b1",
						"offset": 0,
						"slot": "0",
						"type": "t_bytes1"
					},
					{
						"astId": 7,
						"contract": "study/chapter07/byte123.sol:bytes123",
						"label": "b2",
						"offset": 1,
						"slot": "0",
						"type": "t_bytes2"
					},
					{
						"astId": 10,
						"contract": "study/chapter07/byte123.sol:bytes123",
						"label": "b32",
						"offset": 0,
						"slot": "1",
						"type": "t_bytes32"
					}
				],
				"types": {
					"t_bytes1": {
						"encoding": "inplace",
						"label": "bytes1",
						"numberOfBytes": "1"
					},
					"t_bytes2": {
						"encoding": "inplace",
						"label": "bytes2",
						"numberOfBytes": "2"
					},
					"t_bytes32": {
						"encoding": "inplace",
						"label": "bytes32",
						"numberOfBytes": "32"
					}
				}
			},
			"userdoc": {
				"kind": "user",
				"methods": {},
				"version": 1
			}
		}
	}
}