{
	"study/chapter07/moveToDel.sol": {
		"testArry": {
			"abi": [
				{
					"inputs": [
						{
							"internalType": "uint256",
							"name": "",
							"type": "uint256"
						}
					],
					"name": "arr",
					"outputs": [
						{
							"internalType": "uint256",
							"name": "",
							"type": "uint256"
						}
					],
					"stateMutability": "view",
					"type": "function"
				},
				{
					"inputs": [],
					"name": "example",
					"outputs": [],
					"stateMutability": "nonpayable",
					"type": "function"
				},
				{
					"inputs": [
						{
							"internalType": "uint256",
							"name": "_index",
							"type": "uint256"
						}
					],
					"name": "remove",
					"outputs": [],
					"stateMutability": "nonpayable",
					"type": "function"
				},
				{
					"inputs": [],
					"name": "test",
					"outputs": [],
					"stateMutability": "nonpayable",
					"type": "function"
				}
			],
			"devdoc": {
				"kind": "dev",
				"methods": {},
				"version": 1
			},
			"evm": {
				"assembly": "    /* \"study/chapter07/moveToDel.sol\":55:679  contract testArry{... */\n  mstore(0x40, 0x80)\n  callvalue\n  dup1\n  iszero\n  tag_1\n  jumpi\n  0x00\n  dup1\n  revert\ntag_1:\n  pop\n  dataSize(sub_0)\n  dup1\n  dataOffset(sub_0)\n  0x00\n  codecopy\n  0x00\n  return\nstop\n\nsub_0: assembly {\n        /* \"study/chapter07/moveToDel.sol\":55:679  contract testArry{... */\n      mstore(0x40, 0x80)\n      callvalue\n      dup1\n      iszero\n      tag_1\n      jumpi\n      0x00\n      dup1\n      revert\n    tag_1:\n      pop\n      jumpi(tag_2, lt(calldatasize, 0x04))\n      shr(0xe0, calldataload(0x00))\n      dup1\n      0x4cc82215\n      eq\n      tag_3\n      jumpi\n      dup1\n      0x54353f2f\n      eq\n      tag_4\n      jumpi\n      dup1\n      0x71e5ee5f\n      eq\n      tag_5\n      jumpi\n      dup1\n      0xf8a8fd6d\n      eq\n      tag_6\n      jumpi\n    tag_2:\n      0x00\n      dup1\n      revert\n        /* \"study/chapter07/moveToDel.sol\":336:535  function remove(uint _index)public{... */\n    tag_3:\n      tag_7\n      0x04\n      dup1\n      calldatasize\n      sub\n      dup2\n      add\n      swap1\n      tag_8\n      swap2\n      swap1\n      tag_9\n      jump\t// in\n    tag_8:\n      tag_10\n      jump\t// in\n    tag_7:\n      stop\n        /* \"study/chapter07/moveToDel.sol\":101:197  function example()external {... */\n    tag_4:\n      tag_11\n      tag_12\n      jump\t// in\n    tag_11:\n      stop\n        /* \"study/chapter07/moveToDel.sol\":78:95  uint[] public arr */\n    tag_5:\n      tag_13\n      0x04\n      dup1\n      calldatasize\n      sub\n      dup2\n      add\n      swap1\n      tag_14\n      swap2\n      swap1\n      tag_9\n      jump\t// in\n    tag_14:\n      tag_15\n      jump\t// in\n    tag_13:\n      mload(0x40)\n      tag_16\n      swap2\n      swap1\n      tag_17\n      jump\t// in\n    tag_16:\n      mload(0x40)\n      dup1\n      swap2\n      sub\n      swap1\n      return\n        /* \"study/chapter07/moveToDel.sol\":542:677  function test()external{... */\n    tag_6:\n      tag_18\n      tag_19\n      jump\t// in\n    tag_18:\n      stop\n        /* \"study/chapter07/moveToDel.sol\":336:535  function remove(uint _index)public{... */\n    tag_10:\n        /* \"study/chapter07/moveToDel.sol\":395:398  arr */\n      0x00\n        /* \"study/chapter07/moveToDel.sol\":395:405  arr.length */\n      dup1\n      sload\n      swap1\n      pop\n        /* \"study/chapter07/moveToDel.sol\":388:394  _index */\n      dup2\n        /* \"study/chapter07/moveToDel.sol\":388:405  _index<arr.length */\n      lt\n        /* \"study/chapter07/moveToDel.sol\":380:421  require(_index<arr.length,\"error _index\") */\n      tag_21\n      jumpi\n      mload(0x40)\n      0x08c379a000000000000000000000000000000000000000000000000000000000\n      dup2\n      mstore\n      0x04\n      add\n      tag_22\n      swap1\n      tag_23\n      jump\t// in\n    tag_22:\n      mload(0x40)\n      dup1\n      swap2\n      sub\n      swap1\n      revert\n    tag_21:\n        /* \"study/chapter07/moveToDel.sol\":436:442  uint i */\n      0x00\n        /* \"study/chapter07/moveToDel.sol\":444:450  _index */\n      dup2\n        /* \"study/chapter07/moveToDel.sol\":436:450  uint i =_index */\n      swap1\n      pop\n        /* \"study/chapter07/moveToDel.sol\":431:510  for (uint i =_index;i<arr.length-1;i++){... */\n    tag_24:\n        /* \"study/chapter07/moveToDel.sol\":464:465  1 */\n      0x01\n        /* \"study/chapter07/moveToDel.sol\":453:456  arr */\n      0x00\n        /* \"study/chapter07/moveToDel.sol\":453:463  arr.length */\n      dup1\n      sload\n      swap1\n      pop\n        /* \"study/chapter07/moveToDel.sol\":453:465  arr.length-1 */\n      tag_27\n      swap2\n      swap1\n      tag_28\n      jump\t// in\n    tag_27:\n        /* \"study/chapter07/moveToDel.sol\":451:452  i */\n      dup2\n        /* \"study/chapter07/moveToDel.sol\":451:465  i<arr.length-1 */\n      lt\n        /* \"study/chapter07/moveToDel.sol\":431:510  for (uint i =_index;i<arr.length-1;i++){... */\n      iszero\n      tag_25\n      jumpi\n        /* \"study/chapter07/moveToDel.sol\":491:494  arr */\n      0x00\n        /* \"study/chapter07/moveToDel.sol\":497:498  1 */\n      0x01\n        /* \"study/chapter07/moveToDel.sol\":495:496  i */\n      dup3\n        /* \"study/chapter07/moveToDel.sol\":495:498  i+1 */\n      tag_29\n      swap2\n      swap1\n      tag_30\n      jump\t// in\n    tag_29:\n        /* \"study/chapter07/moveToDel.sol\":491:499  arr[i+1] */\n      dup2\n      sload\n      dup2\n      lt\n      tag_31\n      jumpi\n      mstore(0x00, 0x4e487b7100000000000000000000000000000000000000000000000000000000)\n      mstore(0x04, 0x32)\n      revert(0x00, 0x24)\n    tag_31:\n      swap1\n      0x00\n      mstore\n      keccak256(0x00, 0x20)\n      add\n      sload\n        /* \"study/chapter07/moveToDel.sol\":484:487  arr */\n      0x00\n        /* \"study/chapter07/moveToDel.sol\":488:489  i */\n      dup3\n        /* \"study/chapter07/moveToDel.sol\":484:490  arr[i] */\n      dup2\n      sload\n      dup2\n      lt\n      tag_33\n      jumpi\n      mstore(0x00, 0x4e487b7100000000000000000000000000000000000000000000000000000000)\n      mstore(0x04, 0x32)\n      revert(0x00, 0x24)\n    tag_33:\n      swap1\n      0x00\n      mstore\n      keccak256(0x00, 0x20)\n      add\n        /* \"study/chapter07/moveToDel.sol\":484:499  arr[i]=arr[i+1] */\n      dup2\n      swap1\n      sstore\n      pop\n        /* \"study/chapter07/moveToDel.sol\":466:469  i++ */\n      dup1\n      dup1\n      tag_35\n      swap1\n      tag_36\n      jump\t// in\n    tag_35:\n      swap2\n      pop\n      pop\n        /* \"study/chapter07/moveToDel.sol\":431:510  for (uint i =_index;i<arr.length-1;i++){... */\n      jump(tag_24)\n    tag_25:\n      pop\n        /* \"study/chapter07/moveToDel.sol\":519:522  arr */\n      0x00\n        /* \"study/chapter07/moveToDel.sol\":519:528  arr.pop() */\n      dup1\n      sload\n      dup1\n      tag_37\n      jumpi\n      mstore(0x00, 0x4e487b7100000000000000000000000000000000000000000000000000000000)\n      mstore(0x04, 0x31)\n      revert(0x00, 0x24)\n    tag_37:\n      0x01\n      swap1\n      sub\n      dup2\n      dup2\n      swap1\n      0x00\n      mstore\n      keccak256(0x00, 0x20)\n      add\n      0x00\n      swap1\n      sstore\n      swap1\n      sstore\n        /* \"study/chapter07/moveToDel.sol\":336:535  function remove(uint _index)public{... */\n      pop\n      jump\t// out\n        /* \"study/chapter07/moveToDel.sol\":101:197  function example()external {... */\n    tag_12:\n        /* \"study/chapter07/moveToDel.sol\":138:150  arr= [1,2,3] */\n      mload(0x40)\n      dup1\n      0x60\n      add\n      0x40\n      mstore\n      dup1\n        /* \"study/chapter07/moveToDel.sol\":144:145  1 */\n      0x01\n        /* \"study/chapter07/moveToDel.sol\":138:150  arr= [1,2,3] */\n      0xff\n      and\n      dup2\n      mstore\n      0x20\n      add\n        /* \"study/chapter07/moveToDel.sol\":146:147  2 */\n      0x02\n        /* \"study/chapter07/moveToDel.sol\":138:150  arr= [1,2,3] */\n      0xff\n      and\n      dup2\n      mstore\n      0x20\n      add\n        /* \"study/chapter07/moveToDel.sol\":148:149  3 */\n      0x03\n        /* \"study/chapter07/moveToDel.sol\":138:150  arr= [1,2,3] */\n      0xff\n      and\n      dup2\n      mstore\n      pop\n        /* \"study/chapter07/moveToDel.sol\":138:141  arr */\n      0x00\n        /* \"study/chapter07/moveToDel.sol\":138:150  arr= [1,2,3] */\n      swap1\n      0x03\n      tag_40\n      swap3\n      swap2\n      swap1\n      tag_41\n      jump\t// in\n    tag_40:\n      pop\n        /* \"study/chapter07/moveToDel.sol\":167:170  arr */\n      0x00\n        /* \"study/chapter07/moveToDel.sol\":171:172  1 */\n      0x01\n        /* \"study/chapter07/moveToDel.sol\":167:173  arr[1] */\n      dup2\n      sload\n      dup2\n      lt\n      tag_42\n      jumpi\n      mstore(0x00, 0x4e487b7100000000000000000000000000000000000000000000000000000000)\n      mstore(0x04, 0x32)\n      revert(0x00, 0x24)\n    tag_42:\n      swap1\n      0x00\n      mstore\n      keccak256(0x00, 0x20)\n      add\n        /* \"study/chapter07/moveToDel.sol\":160:173  delete arr[1] */\n      0x00\n      swap1\n      sstore\n        /* \"study/chapter07/moveToDel.sol\":101:197  function example()external {... */\n      jump\t// out\n        /* \"study/chapter07/moveToDel.sol\":78:95  uint[] public arr */\n    tag_15:\n      0x00\n      dup2\n      dup2\n      sload\n      dup2\n      lt\n      tag_44\n      jumpi\n      0x00\n      dup1\n      revert\n    tag_44:\n      swap1\n      0x00\n      mstore\n      keccak256(0x00, 0x20)\n      add\n      0x00\n      swap2\n      pop\n      swap1\n      pop\n      sload\n      dup2\n      jump\t// out\n        /* \"study/chapter07/moveToDel.sol\":542:677  function test()external{... */\n    tag_19:\n        /* \"study/chapter07/moveToDel.sol\":575:586  arr=[1,2,3] */\n      mload(0x40)\n      dup1\n      0x60\n      add\n      0x40\n      mstore\n      dup1\n        /* \"study/chapter07/moveToDel.sol\":580:581  1 */\n      0x01\n        /* \"study/chapter07/moveToDel.sol\":575:586  arr=[1,2,3] */\n      0xff\n      and\n      dup2\n      mstore\n      0x20\n      add\n        /* \"study/chapter07/moveToDel.sol\":582:583  2 */\n      0x02\n        /* \"study/chapter07/moveToDel.sol\":575:586  arr=[1,2,3] */\n      0xff\n      and\n      dup2\n      mstore\n      0x20\n      add\n        /* \"study/chapter07/moveToDel.sol\":584:585  3 */\n      0x03\n        /* \"study/chapter07/moveToDel.sol\":575:586  arr=[1,2,3] */\n      0xff\n      and\n      dup2\n      mstore\n      pop\n        /* \"study/chapter07/moveToDel.sol\":575:578  arr */\n      0x00\n        /* \"study/chapter07/moveToDel.sol\":575:586  arr=[1,2,3] */\n      swap1\n      0x03\n      tag_47\n      swap3\n      swap2\n      swap1\n      tag_41\n      jump\t// in\n    tag_47:\n      pop\n        /* \"study/chapter07/moveToDel.sol\":596:605  remove(1) */\n      tag_48\n        /* \"study/chapter07/moveToDel.sol\":603:604  1 */\n      0x01\n        /* \"study/chapter07/moveToDel.sol\":596:602  remove */\n      tag_10\n        /* \"study/chapter07/moveToDel.sol\":596:605  remove(1) */\n      jump\t// in\n    tag_48:\n        /* \"study/chapter07/moveToDel.sol\":542:677  function test()external{... */\n      jump\t// out\n    tag_41:\n      dup3\n      dup1\n      sload\n      dup3\n      dup3\n      sstore\n      swap1\n      0x00\n      mstore\n      keccak256(0x00, 0x20)\n      swap1\n      dup2\n      add\n      swap3\n      dup3\n      iszero\n      tag_49\n      jumpi\n      swap2\n      0x20\n      mul\n      dup3\n      add\n    tag_50:\n      dup3\n      dup2\n      gt\n      iszero\n      tag_51\n      jumpi\n      dup3\n      mload\n      dup3\n      swap1\n      0xff\n      and\n      swap1\n      sstore\n      swap2\n      0x20\n      add\n      swap2\n      swap1\n      0x01\n      add\n      swap1\n      jump(tag_50)\n    tag_51:\n    tag_49:\n      pop\n      swap1\n      pop\n      tag_52\n      swap2\n      swap1\n      tag_53\n      jump\t// in\n    tag_52:\n      pop\n      swap1\n      jump\t// out\n    tag_53:\n    tag_54:\n      dup1\n      dup3\n      gt\n      iszero\n      tag_55\n      jumpi\n      0x00\n      dup2\n      0x00\n      swap1\n      sstore\n      pop\n      0x01\n      add\n      jump(tag_54)\n    tag_55:\n      pop\n      swap1\n      jump\t// out\n        /* \"#utility.yul\":7:146   */\n    tag_57:\n      0x00\n        /* \"#utility.yul\":91:97   */\n      dup2\n        /* \"#utility.yul\":78:98   */\n      calldataload\n        /* \"#utility.yul\":69:98   */\n      swap1\n      pop\n        /* \"#utility.yul\":107:140   */\n      tag_59\n        /* \"#utility.yul\":134:139   */\n      dup2\n        /* \"#utility.yul\":107:140   */\n      tag_60\n      jump\t// in\n    tag_59:\n        /* \"#utility.yul\":59:146   */\n      swap3\n      swap2\n      pop\n      pop\n      jump\t// out\n        /* \"#utility.yul\":152:414   */\n    tag_9:\n      0x00\n        /* \"#utility.yul\":260:262   */\n      0x20\n        /* \"#utility.yul\":248:257   */\n      dup3\n        /* \"#utility.yul\":239:246   */\n      dup5\n        /* \"#utility.yul\":235:258   */\n      sub\n        /* \"#utility.yul\":231:263   */\n      slt\n        /* \"#utility.yul\":228:230   */\n      iszero\n      tag_62\n      jumpi\n        /* \"#utility.yul\":276:277   */\n      0x00\n        /* \"#utility.yul\":273:274   */\n      dup1\n        /* \"#utility.yul\":266:278   */\n      revert\n        /* \"#utility.yul\":228:230   */\n    tag_62:\n        /* \"#utility.yul\":319:320   */\n      0x00\n        /* \"#utility.yul\":344:397   */\n      tag_63\n        /* \"#utility.yul\":389:396   */\n      dup5\n        /* \"#utility.yul\":380:386   */\n      dup3\n        /* \"#utility.yul\":369:378   */\n      dup6\n        /* \"#utility.yul\":365:387   */\n      add\n        /* \"#utility.yul\":344:397   */\n      tag_57\n      jump\t// in\n    tag_63:\n        /* \"#utility.yul\":334:397   */\n      swap2\n      pop\n        /* \"#utility.yul\":290:407   */\n      pop\n        /* \"#utility.yul\":218:414   */\n      swap3\n      swap2\n      pop\n      pop\n      jump\t// out\n        /* \"#utility.yul\":420:786   */\n    tag_64:\n      0x00\n        /* \"#utility.yul\":583:650   */\n      tag_66\n        /* \"#utility.yul\":647:649   */\n      0x0c\n        /* \"#utility.yul\":642:645   */\n      dup4\n        /* \"#utility.yul\":583:650   */\n      tag_67\n      jump\t// in\n    tag_66:\n        /* \"#utility.yul\":576:650   */\n      swap2\n      pop\n        /* \"#utility.yul\":659:752   */\n      tag_68\n        /* \"#utility.yul\":748:751   */\n      dup3\n        /* \"#utility.yul\":659:752   */\n      tag_69\n      jump\t// in\n    tag_68:\n        /* \"#utility.yul\":777:779   */\n      0x20\n        /* \"#utility.yul\":772:775   */\n      dup3\n        /* \"#utility.yul\":768:780   */\n      add\n        /* \"#utility.yul\":761:780   */\n      swap1\n      pop\n        /* \"#utility.yul\":566:786   */\n      swap2\n      swap1\n      pop\n      jump\t// out\n        /* \"#utility.yul\":792:910   */\n    tag_70:\n        /* \"#utility.yul\":879:903   */\n      tag_72\n        /* \"#utility.yul\":897:902   */\n      dup2\n        /* \"#utility.yul\":879:903   */\n      tag_73\n      jump\t// in\n    tag_72:\n        /* \"#utility.yul\":874:877   */\n      dup3\n        /* \"#utility.yul\":867:904   */\n      mstore\n        /* \"#utility.yul\":857:910   */\n      pop\n      pop\n      jump\t// out\n        /* \"#utility.yul\":916:1335   */\n    tag_23:\n      0x00\n        /* \"#utility.yul\":1120:1122   */\n      0x20\n        /* \"#utility.yul\":1109:1118   */\n      dup3\n        /* \"#utility.yul\":1105:1123   */\n      add\n        /* \"#utility.yul\":1097:1123   */\n      swap1\n      pop\n        /* \"#utility.yul\":1169:1178   */\n      dup2\n        /* \"#utility.yul\":1163:1167   */\n      dup2\n        /* \"#utility.yul\":1159:1179   */\n      sub\n        /* \"#utility.yul\":1155:1156   */\n      0x00\n        /* \"#utility.yul\":1144:1153   */\n      dup4\n        /* \"#utility.yul\":1140:1157   */\n      add\n        /* \"#utility.yul\":1133:1180   */\n      mstore\n        /* \"#utility.yul\":1197:1328   */\n      tag_75\n        /* \"#utility.yul\":1323:1327   */\n      dup2\n        /* \"#utility.yul\":1197:1328   */\n      tag_64\n      jump\t// in\n    tag_75:\n        /* \"#utility.yul\":1189:1328   */\n      swap1\n      pop\n        /* \"#utility.yul\":1087:1335   */\n      swap2\n      swap1\n      pop\n      jump\t// out\n        /* \"#utility.yul\":1341:1563   */\n    tag_17:\n      0x00\n        /* \"#utility.yul\":1472:1474   */\n      0x20\n        /* \"#utility.yul\":1461:1470   */\n      dup3\n        /* \"#utility.yul\":1457:1475   */\n      add\n        /* \"#utility.yul\":1449:1475   */\n      swap1\n      pop\n        /* \"#utility.yul\":1485:1556   */\n      tag_77\n        /* \"#utility.yul\":1553:1554   */\n      0x00\n        /* \"#utility.yul\":1542:1551   */\n      dup4\n        /* \"#utility.yul\":1538:1555   */\n      add\n        /* \"#utility.yul\":1529:1535   */\n      dup5\n        /* \"#utility.yul\":1485:1556   */\n      tag_70\n      jump\t// in\n    tag_77:\n        /* \"#utility.yul\":1439:1563   */\n      swap3\n      swap2\n      pop\n      pop\n      jump\t// out\n        /* \"#utility.yul\":1569:1738   */\n    tag_67:\n      0x00\n        /* \"#utility.yul\":1687:1693   */\n      dup3\n        /* \"#utility.yul\":1682:1685   */\n      dup3\n        /* \"#utility.yul\":1675:1694   */\n      mstore\n        /* \"#utility.yul\":1727:1731   */\n      0x20\n        /* \"#utility.yul\":1722:1725   */\n      dup3\n        /* \"#utility.yul\":1718:1732   */\n      add\n        /* \"#utility.yul\":1703:1732   */\n      swap1\n      pop\n        /* \"#utility.yul\":1665:1738   */\n      swap3\n      swap2\n      pop\n      pop\n      jump\t// out\n        /* \"#utility.yul\":1744:2049   */\n    tag_30:\n      0x00\n        /* \"#utility.yul\":1803:1823   */\n      tag_80\n        /* \"#utility.yul\":1821:1822   */\n      dup3\n        /* \"#utility.yul\":1803:1823   */\n      tag_73\n      jump\t// in\n    tag_80:\n        /* \"#utility.yul\":1798:1823   */\n      swap2\n      pop\n        /* \"#utility.yul\":1837:1857   */\n      tag_81\n        /* \"#utility.yul\":1855:1856   */\n      dup4\n        /* \"#utility.yul\":1837:1857   */\n      tag_73\n      jump\t// in\n    tag_81:\n        /* \"#utility.yul\":1832:1857   */\n      swap3\n      pop\n        /* \"#utility.yul\":1991:1992   */\n      dup3\n        /* \"#utility.yul\":1923:1989   */\n      0xffffffffffffffffffffffffffffffffffffffffffffffffffffffffffffffff\n        /* \"#utility.yul\":1919:1993   */\n      sub\n        /* \"#utility.yul\":1916:1917   */\n      dup3\n        /* \"#utility.yul\":1913:1994   */\n      gt\n        /* \"#utility.yul\":1910:1912   */\n      iszero\n      tag_82\n      jumpi\n        /* \"#utility.yul\":1997:2015   */\n      tag_83\n      tag_84\n      jump\t// in\n    tag_83:\n        /* \"#utility.yul\":1910:1912   */\n    tag_82:\n        /* \"#utility.yul\":2041:2042   */\n      dup3\n        /* \"#utility.yul\":2038:2039   */\n      dup3\n        /* \"#utility.yul\":2034:2043   */\n      add\n        /* \"#utility.yul\":2027:2043   */\n      swap1\n      pop\n        /* \"#utility.yul\":1788:2049   */\n      swap3\n      swap2\n      pop\n      pop\n      jump\t// out\n        /* \"#utility.yul\":2055:2246   */\n    tag_28:\n      0x00\n        /* \"#utility.yul\":2115:2135   */\n      tag_86\n        /* \"#utility.yul\":2133:2134   */\n      dup3\n        /* \"#utility.yul\":2115:2135   */\n      tag_73\n      jump\t// in\n    tag_86:\n        /* \"#utility.yul\":2110:2135   */\n      swap2\n      pop\n        /* \"#utility.yul\":2149:2169   */\n      tag_87\n        /* \"#utility.yul\":2167:2168   */\n      dup4\n        /* \"#utility.yul\":2149:2169   */\n      tag_73\n      jump\t// in\n    tag_87:\n        /* \"#utility.yul\":2144:2169   */\n      swap3\n      pop\n        /* \"#utility.yul\":2188:2189   */\n      dup3\n        /* \"#utility.yul\":2185:2186   */\n      dup3\n        /* \"#utility.yul\":2182:2190   */\n      lt\n        /* \"#utility.yul\":2179:2181   */\n      iszero\n      tag_88\n      jumpi\n        /* \"#utility.yul\":2193:2211   */\n      tag_89\n      tag_84\n      jump\t// in\n    tag_89:\n        /* \"#utility.yul\":2179:2181   */\n    tag_88:\n        /* \"#utility.yul\":2238:2239   */\n      dup3\n        /* \"#utility.yul\":2235:2236   */\n      dup3\n        /* \"#utility.yul\":2231:2240   */\n      sub\n        /* \"#utility.yul\":2223:2240   */\n      swap1\n      pop\n        /* \"#utility.yul\":2100:2246   */\n      swap3\n      swap2\n      pop\n      pop\n      jump\t// out\n        /* \"#utility.yul\":2252:2329   */\n    tag_73:\n      0x00\n        /* \"#utility.yul\":2318:2323   */\n      dup2\n        /* \"#utility.yul\":2307:2323   */\n      swap1\n      pop\n        /* \"#utility.yul\":2297:2329   */\n      swap2\n      swap1\n      pop\n      jump\t// out\n        /* \"#utility.yul\":2335:2568   */\n    tag_36:\n      0x00\n        /* \"#utility.yul\":2397:2421   */\n      tag_92\n        /* \"#utility.yul\":2415:2420   */\n      dup3\n        /* \"#utility.yul\":2397:2421   */\n      tag_73\n      jump\t// in\n    tag_92:\n        /* \"#utility.yul\":2388:2421   */\n      swap2\n      pop\n        /* \"#utility.yul\":2443:2509   */\n      0xffffffffffffffffffffffffffffffffffffffffffffffffffffffffffffffff\n        /* \"#utility.yul\":2436:2441   */\n      dup3\n        /* \"#utility.yul\":2433:2510   */\n      eq\n        /* \"#utility.yul\":2430:2432   */\n      iszero\n      tag_93\n      jumpi\n        /* \"#utility.yul\":2513:2531   */\n      tag_94\n      tag_84\n      jump\t// in\n    tag_94:\n        /* \"#utility.yul\":2430:2432   */\n    tag_93:\n        /* \"#utility.yul\":2560:2561   */\n      0x01\n        /* \"#utility.yul\":2553:2558   */\n      dup3\n        /* \"#utility.yul\":2549:2562   */\n      add\n        /* \"#utility.yul\":2542:2562   */\n      swap1\n      pop\n        /* \"#utility.yul\":2378:2568   */\n      swap2\n      swap1\n      pop\n      jump\t// out\n        /* \"#utility.yul\":2574:2754   */\n    tag_84:\n        /* \"#utility.yul\":2622:2699   */\n      0x4e487b7100000000000000000000000000000000000000000000000000000000\n        /* \"#utility.yul\":2619:2620   */\n      0x00\n        /* \"#utility.yul\":2612:2700   */\n      mstore\n        /* \"#utility.yul\":2719:2723   */\n      0x11\n        /* \"#utility.yul\":2716:2717   */\n      0x04\n        /* \"#utility.yul\":2709:2724   */\n      mstore\n        /* \"#utility.yul\":2743:2747   */\n      0x24\n        /* \"#utility.yul\":2740:2741   */\n      0x00\n        /* \"#utility.yul\":2733:2748   */\n      revert\n        /* \"#utility.yul\":2760:2922   */\n    tag_69:\n        /* \"#utility.yul\":2900:2914   */\n      0x6572726f72205f696e6465780000000000000000000000000000000000000000\n        /* \"#utility.yul\":2896:2897   */\n      0x00\n        /* \"#utility.yul\":2888:2894   */\n      dup3\n        /* \"#utility.yul\":2884:2898   */\n      add\n        /* \"#utility.yul\":2877:2915   */\n      mstore\n        /* \"#utility.yul\":2866:2922   */\n      pop\n      jump\t// out\n        /* \"#utility.yul\":2928:3050   */\n    tag_60:\n        /* \"#utility.yul\":3001:3025   */\n      tag_98\n        /* \"#utility.yul\":3019:3024   */\n      dup2\n        /* \"#utility.yul\":3001:3025   */\n      tag_73\n      jump\t// in\n    tag_98:\n        /* \"#utility.yul\":2994:2999   */\n      dup2\n        /* \"#utility.yul\":2991:3026   */\n      eq\n        /* \"#utility.yul\":2981:2983   */\n      tag_99\n      jumpi\n        /* \"#utility.yul\":3040:3041   */\n      0x00\n        /* \"#utility.yul\":3037:3038   */\n      dup1\n        /* \"#utility.yul\":3030:3042   */\n      revert\n        /* \"#utility.yul\":2981:2983   */\n    tag_99:\n        /* \"#utility.yul\":2971:3050   */\n      pop\n      jump\t// out\n\n    auxdata: 0xa264697066735822122056462210869f2abc9cbe0e15c971b9cb30636b8ae5eff5b222916de9e293051b64736f6c63430008010033\n}\n",
				"bytecode": {
					"linkReferences": {},
					"object": "608060405234801561001057600080fd5b506105ad806100206000396000f3fe608060405234801561001057600080fd5b506004361061004c5760003560e01c80634cc822151461005157806354353f2f1461006d57806371e5ee5f14610077578063f8a8fd6d146100a7575b600080fd5b61006b60048036038101906100669190610384565b6100b1565b005b610075610215565b005b610091600480360381019061008c9190610384565b610298565b60405161009e91906103ff565b60405180910390f35b6100af6102bc565b005b60008054905081106100f8576040517f08c379a00000000000000000000000000000000000000000000000000000000081526004016100ef906103df565b60405180910390fd5b60008190505b60016000805490506101109190610481565b8110156101c3576000600182610126919061042b565b8154811061015d577f4e487b7100000000000000000000000000000000000000000000000000000000600052603260045260246000fd5b9060005260206000200154600082815481106101a2577f4e487b7100000000000000000000000000000000000000000000000000000000600052603260045260246000fd5b906000526020600020018190555080806101bb906104bf565b9150506100fe565b5060008054806101fc577f4e487b7100000000000000000000000000000000000000000000000000000000600052603160045260246000fd5b6001900381819060005260206000200160009055905550565b6040518060600160405280600160ff168152602001600260ff168152602001600360ff16815250600090600361024c929190610300565b506000600181548110610288577f4e487b7100000000000000000000000000000000000000000000000000000000600052603260045260246000fd5b9060005260206000200160009055565b600081815481106102a857600080fd5b906000526020600020016000915090505481565b6040518060600160405280600160ff168152602001600260ff168152602001600360ff1681525060009060036102f3929190610300565b506102fe60016100b1565b565b828054828255906000526020600020908101928215610341579160200282015b82811115610340578251829060ff16905591602001919060010190610320565b5b50905061034e9190610352565b5090565b5b8082111561036b576000816000905550600101610353565b5090565b60008135905061037e81610560565b92915050565b60006020828403121561039657600080fd5b60006103a48482850161036f565b91505092915050565b60006103ba600c8361041a565b91506103c582610537565b602082019050919050565b6103d9816104b5565b82525050565b600060208201905081810360008301526103f8816103ad565b9050919050565b600060208201905061041460008301846103d0565b92915050565b600082825260208201905092915050565b6000610436826104b5565b9150610441836104b5565b9250827fffffffffffffffffffffffffffffffffffffffffffffffffffffffffffffffff0382111561047657610475610508565b5b828201905092915050565b600061048c826104b5565b9150610497836104b5565b9250828210156104aa576104a9610508565b5b828203905092915050565b6000819050919050565b60006104ca826104b5565b91507fffffffffffffffffffffffffffffffffffffffffffffffffffffffffffffffff8214156104fd576104fc610508565b5b600182019050919050565b7f4e487b7100000000000000000000000000000000000000000000000000000000600052601160045260246000fd5b7f6572726f72205f696e6465780000000000000000000000000000000000000000600082015250565b610569816104b5565b811461057457600080fd5b5056fea264697066735822122056462210869f2abc9cbe0e15c971b9cb30636b8ae5eff5b222916de9e293051b64736f6c63430008010033",
					"opcodes": "PUSH1 0x80 PUSH1 0x40 MSTORE CALLVALUE DUP1 ISZERO PUSH2 0x10 JUMPI PUSH1 0x0 DUP1 REVERT JUMPDEST POP PUSH2 0x5AD DUP1 PUSH2 0x20 PUSH1 0x0 CODECOPY PUSH1 0x0 RETURN INVALID PUSH1 0x80 PUSH1 0x40 MSTORE CALLVALUE DUP1 ISZERO PUSH2 0x10 JUMPI PUSH1 0x0 DUP1 REVERT JUMPDEST POP PUSH1 0x4 CALLDATASIZE LT PUSH2 0x4C JUMPI PUSH1 0x0 CALLDATALOAD PUSH1 0xE0 SHR DUP1 PUSH4 0x4CC82215 EQ PUSH2 0x51 JUMPI DUP1 PUSH4 0x54353F2F EQ PUSH2 0x6D JUMPI DUP1 PUSH4 0x71E5EE5F EQ PUSH2 0x77 JUMPI DUP1 PUSH4 0xF8A8FD6D EQ PUSH2 0xA7 JUMPI JUMPDEST PUSH1 0x0 DUP1 REVERT JUMPDEST PUSH2 0x6B PUSH1 0x4 DUP1 CALLDATASIZE SUB DUP2 ADD SWAP1 PUSH2 0x66 SWAP2 SWAP1 PUSH2 0x384 JUMP JUMPDEST PUSH2 0xB1 JUMP JUMPDEST STOP JUMPDEST PUSH2 0x75 PUSH2 0x215 JUMP JUMPDEST STOP JUMPDEST PUSH2 0x91 PUSH1 0x4 DUP1 CALLDATASIZE SUB DUP2 ADD SWAP1 PUSH2 0x8C SWAP2 SWAP1 PUSH2 0x384 JUMP JUMPDEST PUSH2 0x298 JUMP JUMPDEST PUSH1 0x40 MLOAD PUSH2 0x9E SWAP2 SWAP1 PUSH2 0x3FF JUMP JUMPDEST PUSH1 0x40 MLOAD DUP1 SWAP2 SUB SWAP1 RETURN JUMPDEST PUSH2 0xAF PUSH2 0x2BC JUMP JUMPDEST STOP JUMPDEST PUSH1 0x0 DUP1 SLOAD SWAP1 POP DUP2 LT PUSH2 0xF8 JUMPI PUSH1 0x40 MLOAD PUSH32 0x8C379A000000000000000000000000000000000000000000000000000000000 DUP2 MSTORE PUSH1 0x4 ADD PUSH2 0xEF SWAP1 PUSH2 0x3DF JUMP JUMPDEST PUSH1 0x40 MLOAD DUP1 SWAP2 SUB SWAP1 REVERT JUMPDEST PUSH1 0x0 DUP2 SWAP1 POP JUMPDEST PUSH1 0x1 PUSH1 0x0 DUP1 SLOAD SWAP1 POP PUSH2 0x110 SWAP2 SWAP1 PUSH2 0x481 JUMP JUMPDEST DUP2 LT ISZERO PUSH2 0x1C3 JUMPI PUSH1 0x0 PUSH1 0x1 DUP3 PUSH2 0x126 SWAP2 SWAP1 PUSH2 0x42B JUMP JUMPDEST DUP2 SLOAD DUP2 LT PUSH2 0x15D JUMPI PUSH32 0x4E487B7100000000000000000000000000000000000000000000000000000000 PUSH1 0x0 MSTORE PUSH1 0x32 PUSH1 0x4 MSTORE PUSH1 0x24 PUSH1 0x0 REVERT JUMPDEST SWAP1 PUSH1 0x0 MSTORE PUSH1 0x20 PUSH1 0x0 KECCAK256 ADD SLOAD PUSH1 0x0 DUP3 DUP2 SLOAD DUP2 LT PUSH2 0x1A2 JUMPI PUSH32 0x4E487B7100000000000000000000000000000000000000000000000000000000 PUSH1 0x0 MSTORE PUSH1 0x32 PUSH1 0x4 MSTORE PUSH1 0x24 PUSH1 0x0 REVERT JUMPDEST SWAP1 PUSH1 0x0 MSTORE PUSH1 0x20 PUSH1 0x0 KECCAK256 ADD DUP2 SWAP1 SSTORE POP DUP1 DUP1 PUSH2 0x1BB SWAP1 PUSH2 0x4BF JUMP JUMPDEST SWAP2 POP POP PUSH2 0xFE JUMP JUMPDEST POP PUSH1 0x0 DUP1 SLOAD DUP1 PUSH2 0x1FC JUMPI PUSH32 0x4E487B7100000000000000000000000000000000000000000000000000000000 PUSH1 0x0 MSTORE PUSH1 0x31 PUSH1 0x4 MSTORE PUSH1 0x24 PUSH1 0x0 REVERT JUMPDEST PUSH1 0x1 SWAP1 SUB DUP2 DUP2 SWAP1 PUSH1 0x0 MSTORE PUSH1 0x20 PUSH1 0x0 KECCAK256 ADD PUSH1 0x0 SWAP1 SSTORE SWAP1 SSTORE POP JUMP JUMPDEST PUSH1 0x40 MLOAD DUP1 PUSH1 0x60 ADD PUSH1 0x40 MSTORE DUP1 PUSH1 0x1 PUSH1 0xFF AND DUP2 MSTORE PUSH1 0x20 ADD PUSH1 0x2 PUSH1 0xFF AND DUP2 MSTORE PUSH1 0x20 ADD PUSH1 0x3 PUSH1 0xFF AND DUP2 MSTORE POP PUSH1 0x0 SWAP1 PUSH1 0x3 PUSH2 0x24C SWAP3 SWAP2 SWAP1 PUSH2 0x300 JUMP JUMPDEST POP PUSH1 0x0 PUSH1 0x1 DUP2 SLOAD DUP2 LT PUSH2 0x288 JUMPI PUSH32 0x4E487B7100000000000000000000000000000000000000000000000000000000 PUSH1 0x0 MSTORE PUSH1 0x32 PUSH1 0x4 MSTORE PUSH1 0x24 PUSH1 0x0 REVERT JUMPDEST SWAP1 PUSH1 0x0 MSTORE PUSH1 0x20 PUSH1 0x0 KECCAK256 ADD PUSH1 0x0 SWAP1 SSTORE JUMP JUMPDEST PUSH1 0x0 DUP2 DUP2 SLOAD DUP2 LT PUSH2 0x2A8 JUMPI PUSH1 0x0 DUP1 REVERT JUMPDEST SWAP1 PUSH1 0x0 MSTORE PUSH1 0x20 PUSH1 0x0 KECCAK256 ADD PUSH1 0x0 SWAP2 POP SWAP1 POP SLOAD DUP2 JUMP JUMPDEST PUSH1 0x40 MLOAD DUP1 PUSH1 0x60 ADD PUSH1 0x40 MSTORE DUP1 PUSH1 0x1 PUSH1 0xFF AND DUP2 MSTORE PUSH1 0x20 ADD PUSH1 0x2 PUSH1 0xFF AND DUP2 MSTORE PUSH1 0x20 ADD PUSH1 0x3 PUSH1 0xFF AND DUP2 MSTORE POP PUSH1 0x0 SWAP1 PUSH1 0x3 PUSH2 0x2F3 SWAP3 SWAP2 SWAP1 PUSH2 0x300 JUMP JUMPDEST POP PUSH2 0x2FE PUSH1 0x1 PUSH2 0xB1 JUMP JUMPDEST JUMP JUMPDEST DUP3 DUP1 SLOAD DUP3 DUP3 SSTORE SWAP1 PUSH1 0x0 MSTORE PUSH1 0x20 PUSH1 0x0 KECCAK256 SWAP1 DUP2 ADD SWAP3 DUP3 ISZERO PUSH2 0x341 JUMPI SWAP2 PUSH1 0x20 MUL DUP3 ADD JUMPDEST DUP3 DUP2 GT ISZERO PUSH2 0x340 JUMPI DUP3 MLOAD DUP3 SWAP1 PUSH1 0xFF AND SWAP1 SSTORE SWAP2 PUSH1 0x20 ADD SWAP2 SWAP1 PUSH1 0x1 ADD SWAP1 PUSH2 0x320 JUMP JUMPDEST JUMPDEST POP SWAP1 POP PUSH2 0x34E SWAP2 SWAP1 PUSH2 0x352 JUMP JUMPDEST POP SWAP1 JUMP JUMPDEST JUMPDEST DUP1 DUP3 GT ISZERO PUSH2 0x36B JUMPI PUSH1 0x0 DUP2 PUSH1 0x0 SWAP1 SSTORE POP PUSH1 0x1 ADD PUSH2 0x353 JUMP JUMPDEST POP SWAP1 JUMP JUMPDEST PUSH1 0x0 DUP2 CALLDATALOAD SWAP1 POP PUSH2 0x37E DUP2 PUSH2 0x560 JUMP JUMPDEST SWAP3 SWAP2 POP POP JUMP JUMPDEST PUSH1 0x0 PUSH1 0x20 DUP3 DUP5 SUB SLT ISZERO PUSH2 0x396 JUMPI PUSH1 0x0 DUP1 REVERT JUMPDEST PUSH1 0x0 PUSH2 0x3A4 DUP5 DUP3 DUP6 ADD PUSH2 0x36F JUMP JUMPDEST SWAP2 POP POP SWAP3 SWAP2 POP POP JUMP JUMPDEST PUSH1 0x0 PUSH2 0x3BA PUSH1 0xC DUP4 PUSH2 0x41A JUMP JUMPDEST SWAP2 POP PUSH2 0x3C5 DUP3 PUSH2 0x537 JUMP JUMPDEST PUSH1 0x20 DUP3 ADD SWAP1 POP SWAP2 SWAP1 POP JUMP JUMPDEST PUSH2 0x3D9 DUP2 PUSH2 0x4B5 JUMP JUMPDEST DUP3 MSTORE POP POP JUMP JUMPDEST PUSH1 0x0 PUSH1 0x20 DUP3 ADD SWAP1 POP DUP2 DUP2 SUB PUSH1 0x0 DUP4 ADD MSTORE PUSH2 0x3F8 DUP2 PUSH2 0x3AD JUMP JUMPDEST SWAP1 POP SWAP2 SWAP1 POP JUMP JUMPDEST PUSH1 0x0 PUSH1 0x20 DUP3 ADD SWAP1 POP PUSH2 0x414 PUSH1 0x0 DUP4 ADD DUP5 PUSH2 0x3D0 JUMP JUMPDEST SWAP3 SWAP2 POP POP JUMP JUMPDEST PUSH1 0x0 DUP3 DUP3 MSTORE PUSH1 0x20 DUP3 ADD SWAP1 POP SWAP3 SWAP2 POP POP JUMP JUMPDEST PUSH1 0x0 PUSH2 0x436 DUP3 PUSH2 0x4B5 JUMP JUMPDEST SWAP2 POP PUSH2 0x441 DUP4 PUSH2 0x4B5 JUMP JUMPDEST SWAP3 POP DUP3 PUSH32 0xFFFFFFFFFFFFFFFFFFFFFFFFFFFFFFFFFFFFFFFFFFFFFFFFFFFFFFFFFFFFFFFF SUB DUP3 GT ISZERO PUSH2 0x476 JUMPI PUSH2 0x475 PUSH2 0x508 JUMP JUMPDEST JUMPDEST DUP3 DUP3 ADD SWAP1 POP SWAP3 SWAP2 POP POP JUMP JUMPDEST PUSH1 0x0 PUSH2 0x48C DUP3 PUSH2 0x4B5 JUMP JUMPDEST SWAP2 POP PUSH2 0x497 DUP4 PUSH2 0x4B5 JUMP JUMPDEST SWAP3 POP DUP3 DUP3 LT ISZERO PUSH2 0x4AA JUMPI PUSH2 0x4A9 PUSH2 0x508 JUMP JUMPDEST JUMPDEST DUP3 DUP3 SUB SWAP1 POP SWAP3 SWAP2 POP POP JUMP JUMPDEST PUSH1 0x0 DUP2 SWAP1 POP SWAP2 SWAP1 POP JUMP JUMPDEST PUSH1 0x0 PUSH2 0x4CA DUP3 PUSH2 0x4B5 JUMP JUMPDEST SWAP2 POP PUSH32 0xFFFFFFFFFFFFFFFFFFFFFFFFFFFFFFFFFFFFFFFFFFFFFFFFFFFFFFFFFFFFFFFF DUP3 EQ ISZERO PUSH2 0x4FD JUMPI PUSH2 0x4FC PUSH2 0x508 JUMP JUMPDEST JUMPDEST PUSH1 0x1 DUP3 ADD SWAP1 POP SWAP2 SWAP1 POP JUMP JUMPDEST PUSH32 0x4E487B7100000000000000000000000000000000000000000000000000000000 PUSH1 0x0 MSTORE PUSH1 0x11 PUSH1 0x4 MSTORE PUSH1 0x24 PUSH1 0x0 REVERT JUMPDEST PUSH32 0x6572726F72205F696E6465780000000000000000000000000000000000000000 PUSH1 0x0 DUP3 ADD MSTORE POP JUMP JUMPDEST PUSH2 0x569 DUP2 PUSH2 0x4B5 JUMP JUMPDEST DUP2 EQ PUSH2 0x574 JUMPI PUSH1 0x0 DUP1 REVERT JUMPDEST POP JUMP INVALID LOG2 PUSH5 0x6970667358 0x22 SLT KECCAK256 JUMP CHAINID 0x22 LT DUP7 SWAP16 0x2A 0xBC SWAP13 0xBE 0xE ISZERO 0xC9 PUSH18 0xB9CB30636B8AE5EFF5B222916DE9E293051B PUSH5 0x736F6C6343 STOP ADDMOD ADD STOP CALLER "
				},
				"gasEstimates": {
					"creation": {
						"codeDepositCost": "290600",
						"executionCost": "331",
						"totalCost": "290931"
					},
					"external": {
						"arr(uint256)": "infinite",
						"example()": "infinite",
						"remove(uint256)": "infinite",
						"test()": "infinite"
					}
				},
				"methodIdentifiers": {
					"arr(uint256)": "71e5ee5f",
					"example()": "54353f2f",
					"remove(uint256)": "4cc82215",
					"test()": "f8a8fd6d"
				}
			},
			"storageLayout": {
				"storage": [
					{
						"astId": 4,
						"contract": "study/chapter07/moveToDel.sol:testArry",
						"label": "arr",
						"offset": 0,
						"slot": "0",
						"type": "t_array(t_uint256)dyn_storage"
					}
				],
				"types": {
					"t_array(t_uint256)dyn_storage": {
						"base": "t_uint256",
						"encoding": "dynamic_array",
						"label": "uint256[]",
						"numberOfBytes": "32"
					},
					"t_uint256": {
						"encoding": "inplace",
						"label": "uint256",
						"numberOfBytes": "32"
					}
				}
			},
			"userdoc": {
				"kind": "user",
				"methods": {},
				"version": 1
			}
		}
	}
}