{
	"study/chapter07/bytesAndString.sol": {
		"testBS": {
			"abi": [
				{
					"inputs": [],
					"name": "a",
					"outputs": [
						{
							"internalType": "bytes1",
							"name": "",
							"type": "bytes1"
						}
					],
					"stateMutability": "view",
					"type": "function"
				},
				{
					"inputs": [],
					"name": "b",
					"outputs": [
						{
							"internalType": "bytes",
							"name": "",
							"type": "bytes"
						}
					],
					"stateMutability": "view",
					"type": "function"
				},
				{
					"inputs": [],
					"name": "d",
					"outputs": [
						{
							"internalType": "bytes1",
							"name": "",
							"type": "bytes1"
						}
					],
					"stateMutability": "view",
					"type": "function"
				},
				{
					"inputs": [],
					"name": "s",
					"outputs": [
						{
							"internalType": "string",
							"name": "",
							"type": "string"
						}
					],
					"stateMutability": "view",
					"type": "function"
				}
			],
			"devdoc": {
				"kind": "dev",
				"methods": {},
				"version": 1
			},
			"evm": {
				"assembly": "    /* \"study/chapter07/bytesAndString.sol\":54:203  contract testBS{... */\n  mstore(0x40, 0x80)\n    /* \"study/chapter07/bytesAndString.sol\":75:100  bytes public b = '123sdf' */\n  mload(0x40)\n  dup1\n  0x40\n  add\n  0x40\n  mstore\n  dup1\n  0x06\n  dup2\n  mstore\n  0x20\n  add\n  0x3132337364660000000000000000000000000000000000000000000000000000\n  dup2\n  mstore\n  pop\n  0x00\n  swap1\n  dup1\n  mload\n  swap1\n  0x20\n  add\n  swap1\n  tag_1\n  swap3\n  swap2\n  swap1\n  tag_2\n  jump\t// in\ntag_1:\n  pop\n    /* \"study/chapter07/bytesAndString.sol\":106:137  string public s = \"i am string\" */\n  mload(0x40)\n  dup1\n  0x40\n  add\n  0x40\n  mstore\n  dup1\n  0x0b\n  dup2\n  mstore\n  0x20\n  add\n  0x6920616d20737472696e67000000000000000000000000000000000000000000\n  dup2\n  mstore\n  pop\n  0x01\n  swap1\n  dup1\n  mload\n  swap1\n  0x20\n  add\n  swap1\n  tag_3\n  swap3\n  swap2\n  swap1\n  tag_4\n  jump\t// in\ntag_3:\n  pop\n    /* \"study/chapter07/bytesAndString.sol\":161:162  b */\n  0x00\n    /* \"study/chapter07/bytesAndString.sol\":163:164  0 */\n  dup1\n    /* \"study/chapter07/bytesAndString.sol\":161:165  b[0] */\n  dup2\n  sload\n  tag_5\n  swap1\n  tag_6\n  jump\t// in\ntag_5:\n  dup2\n  lt\n  tag_7\n  jumpi\n  tag_8\n  tag_9\n  jump\t// in\ntag_8:\ntag_7:\n  dup2\n  sload\n  0x01\n  and\n  iszero\n  tag_10\n  jumpi\n  swap1\n  0x00\n  mstore\n  keccak256(0x00, 0x20)\n  swap1\n  0x20\n  swap2\n  dup3\n  dup3\n  div\n  add\n  swap2\n  swap1\n  mod\ntag_10:\n  swap1\n  sload\n  swap1\n  byte\n  0x0100000000000000000000000000000000000000000000000000000000000000\n  mul\n    /* \"study/chapter07/bytesAndString.sol\":143:165  bytes1 public a = b[0] */\n  0x02\n  exp(0x0100, 0x00)\n  dup2\n  sload\n  dup2\n  0xff\n  mul\n  not\n  and\n  swap1\n  dup4\n  0xf8\n  shr\n  mul\n  or\n  swap1\n  sstore\n  pop\n    /* \"study/chapter07/bytesAndString.sol\":195:196  s */\n  0x01\n    /* \"study/chapter07/bytesAndString.sol\":198:199  0 */\n  0x00\n    /* \"study/chapter07/bytesAndString.sol\":189:200  bytes(s)[0] */\n  dup2\n  sload\n  tag_11\n  swap1\n  tag_6\n  jump\t// in\ntag_11:\n  dup2\n  lt\n  tag_12\n  jumpi\n  tag_13\n  tag_9\n  jump\t// in\ntag_13:\ntag_12:\n  dup2\n  sload\n  0x01\n  and\n  iszero\n  tag_14\n  jumpi\n  swap1\n  0x00\n  mstore\n  keccak256(0x00, 0x20)\n  swap1\n  0x20\n  swap2\n  dup3\n  dup3\n  div\n  add\n  swap2\n  swap1\n  mod\ntag_14:\n  swap1\n  sload\n  swap1\n  byte\n  0x0100000000000000000000000000000000000000000000000000000000000000\n  mul\n    /* \"study/chapter07/bytesAndString.sol\":171:200  bytes1 public d = bytes(s)[0] */\n  0x02\n  exp(0x0100, 0x01)\n  dup2\n  sload\n  dup2\n  0xff\n  mul\n  not\n  and\n  swap1\n  dup4\n  0xf8\n  shr\n  mul\n  or\n  swap1\n  sstore\n  pop\n    /* \"study/chapter07/bytesAndString.sol\":54:203  contract testBS{... */\n  callvalue\n  dup1\n  iszero\n  tag_15\n  jumpi\n  0x00\n  dup1\n  revert\ntag_15:\n  pop\n  jump(tag_16)\ntag_2:\n  dup3\n  dup1\n  sload\n  tag_17\n  swap1\n  tag_6\n  jump\t// in\ntag_17:\n  swap1\n  0x00\n  mstore\n  keccak256(0x00, 0x20)\n  swap1\n  0x1f\n  add\n  0x20\n  swap1\n  div\n  dup2\n  add\n  swap3\n  dup3\n  tag_19\n  jumpi\n  0x00\n  dup6\n  sstore\n  jump(tag_18)\ntag_19:\n  dup3\n  0x1f\n  lt\n  tag_20\n  jumpi\n  dup1\n  mload\n  not(0xff)\n  and\n  dup4\n  dup1\n  add\n  or\n  dup6\n  sstore\n  jump(tag_18)\ntag_20:\n  dup3\n  dup1\n  add\n  0x01\n  add\n  dup6\n  sstore\n  dup3\n  iszero\n  tag_18\n  jumpi\n  swap2\n  dup3\n  add\ntag_21:\n  dup3\n  dup2\n  gt\n  iszero\n  tag_22\n  jumpi\n  dup3\n  mload\n  dup3\n  sstore\n  swap2\n  0x20\n  add\n  swap2\n  swap1\n  0x01\n  add\n  swap1\n  jump(tag_21)\ntag_22:\ntag_18:\n  pop\n  swap1\n  pop\n  tag_23\n  swap2\n  swap1\n  tag_24\n  jump\t// in\ntag_23:\n  pop\n  swap1\n  jump\t// out\ntag_4:\n  dup3\n  dup1\n  sload\n  tag_25\n  swap1\n  tag_6\n  jump\t// in\ntag_25:\n  swap1\n  0x00\n  mstore\n  keccak256(0x00, 0x20)\n  swap1\n  0x1f\n  add\n  0x20\n  swap1\n  div\n  dup2\n  add\n  swap3\n  dup3\n  tag_27\n  jumpi\n  0x00\n  dup6\n  sstore\n  jump(tag_26)\ntag_27:\n  dup3\n  0x1f\n  lt\n  tag_28\n  jumpi\n  dup1\n  mload\n  not(0xff)\n  and\n  dup4\n  dup1\n  add\n  or\n  dup6\n  sstore\n  jump(tag_26)\ntag_28:\n  dup3\n  dup1\n  add\n  0x01\n  add\n  dup6\n  sstore\n  dup3\n  iszero\n  tag_26\n  jumpi\n  swap2\n  dup3\n  add\ntag_29:\n  dup3\n  dup2\n  gt\n  iszero\n  tag_30\n  jumpi\n  dup3\n  mload\n  dup3\n  sstore\n  swap2\n  0x20\n  add\n  swap2\n  swap1\n  0x01\n  add\n  swap1\n  jump(tag_29)\ntag_30:\ntag_26:\n  pop\n  swap1\n  pop\n  tag_31\n  swap2\n  swap1\n  tag_24\n  jump\t// in\ntag_31:\n  pop\n  swap1\n  jump\t// out\ntag_24:\ntag_32:\n  dup1\n  dup3\n  gt\n  iszero\n  tag_33\n  jumpi\n  0x00\n  dup2\n  0x00\n  swap1\n  sstore\n  pop\n  0x01\n  add\n  jump(tag_32)\ntag_33:\n  pop\n  swap1\n  jump\t// out\n    /* \"#utility.yul\":7:327   */\ntag_6:\n    /* \"#utility.yul\":51:57   */\n  0x00\n    /* \"#utility.yul\":88:89   */\n  0x02\n    /* \"#utility.yul\":82:86   */\n  dup3\n    /* \"#utility.yul\":78:90   */\n  div\n    /* \"#utility.yul\":68:90   */\n  swap1\n  pop\n    /* \"#utility.yul\":135:136   */\n  0x01\n    /* \"#utility.yul\":129:133   */\n  dup3\n    /* \"#utility.yul\":125:137   */\n  and\n    /* \"#utility.yul\":156:174   */\n  dup1\n    /* \"#utility.yul\":146:227   */\n  tag_36\n  jumpi\n    /* \"#utility.yul\":212:216   */\n  0x7f\n    /* \"#utility.yul\":204:210   */\n  dup3\n    /* \"#utility.yul\":200:217   */\n  and\n    /* \"#utility.yul\":190:217   */\n  swap2\n  pop\n    /* \"#utility.yul\":146:227   */\ntag_36:\n    /* \"#utility.yul\":274:276   */\n  0x20\n    /* \"#utility.yul\":266:272   */\n  dup3\n    /* \"#utility.yul\":263:277   */\n  lt\n    /* \"#utility.yul\":243:261   */\n  dup2\n    /* \"#utility.yul\":240:278   */\n  eq\n    /* \"#utility.yul\":237:321   */\n  iszero\n  tag_37\n  jumpi\n    /* \"#utility.yul\":293:311   */\n  tag_38\n  tag_39\n  jump\t// in\ntag_38:\n    /* \"#utility.yul\":237:321   */\ntag_37:\n    /* \"#utility.yul\":58:327   */\n  pop\n    /* \"#utility.yul\":7:327   */\n  swap2\n  swap1\n  pop\n  jump\t// out\n    /* \"#utility.yul\":333:513   */\ntag_39:\n    /* \"#utility.yul\":381:458   */\n  0x4e487b7100000000000000000000000000000000000000000000000000000000\n    /* \"#utility.yul\":378:379   */\n  0x00\n    /* \"#utility.yul\":371:459   */\n  mstore\n    /* \"#utility.yul\":478:482   */\n  0x22\n    /* \"#utility.yul\":475:476   */\n  0x04\n    /* \"#utility.yul\":468:483   */\n  mstore\n    /* \"#utility.yul\":502:506   */\n  0x24\n    /* \"#utility.yul\":499:500   */\n  0x00\n    /* \"#utility.yul\":492:507   */\n  revert\n    /* \"#utility.yul\":519:699   */\ntag_9:\n    /* \"#utility.yul\":567:644   */\n  0x4e487b7100000000000000000000000000000000000000000000000000000000\n    /* \"#utility.yul\":564:565   */\n  0x00\n    /* \"#utility.yul\":557:645   */\n  mstore\n    /* \"#utility.yul\":664:668   */\n  0x32\n    /* \"#utility.yul\":661:662   */\n  0x04\n    /* \"#utility.yul\":654:669   */\n  mstore\n    /* \"#utility.yul\":688:692   */\n  0x24\n    /* \"#utility.yul\":685:686   */\n  0x00\n    /* \"#utility.yul\":678:693   */\n  revert\n    /* \"study/chapter07/bytesAndString.sol\":54:203  contract testBS{... */\ntag_16:\n  dataSize(sub_0)\n  dup1\n  dataOffset(sub_0)\n  0x00\n  codecopy\n  0x00\n  return\nstop\n\nsub_0: assembly {\n        /* \"study/chapter07/bytesAndString.sol\":54:203  contract testBS{... */\n      mstore(0x40, 0x80)\n      callvalue\n      dup1\n      iszero\n      tag_1\n      jumpi\n      0x00\n      dup1\n      revert\n    tag_1:\n      pop\n      jumpi(tag_2, lt(calldatasize, 0x04))\n      shr(0xe0, calldataload(0x00))\n      dup1\n      0x0dbe671f\n      eq\n      tag_3\n      jumpi\n      dup1\n      0x4df7e3d0\n      eq\n      tag_4\n      jumpi\n      dup1\n      0x86b714e2\n      eq\n      tag_5\n      jumpi\n      dup1\n      0x8a054ac2\n      eq\n      tag_6\n      jumpi\n    tag_2:\n      0x00\n      dup1\n      revert\n        /* \"study/chapter07/bytesAndString.sol\":143:165  bytes1 public a = b[0] */\n    tag_3:\n      tag_7\n      tag_8\n      jump\t// in\n    tag_7:\n      mload(0x40)\n      tag_9\n      swap2\n      swap1\n      tag_10\n      jump\t// in\n    tag_9:\n      mload(0x40)\n      dup1\n      swap2\n      sub\n      swap1\n      return\n        /* \"study/chapter07/bytesAndString.sol\":75:100  bytes public b = '123sdf' */\n    tag_4:\n      tag_11\n      tag_12\n      jump\t// in\n    tag_11:\n      mload(0x40)\n      tag_13\n      swap2\n      swap1\n      tag_14\n      jump\t// in\n    tag_13:\n      mload(0x40)\n      dup1\n      swap2\n      sub\n      swap1\n      return\n        /* \"study/chapter07/bytesAndString.sol\":106:137  string public s = \"i am string\" */\n    tag_5:\n      tag_15\n      tag_16\n      jump\t// in\n    tag_15:\n      mload(0x40)\n      tag_17\n      swap2\n      swap1\n      tag_18\n      jump\t// in\n    tag_17:\n      mload(0x40)\n      dup1\n      swap2\n      sub\n      swap1\n      return\n        /* \"study/chapter07/bytesAndString.sol\":171:200  bytes1 public d = bytes(s)[0] */\n    tag_6:\n      tag_19\n      tag_20\n      jump\t// in\n    tag_19:\n      mload(0x40)\n      tag_21\n      swap2\n      swap1\n      tag_10\n      jump\t// in\n    tag_21:\n      mload(0x40)\n      dup1\n      swap2\n      sub\n      swap1\n      return\n        /* \"study/chapter07/bytesAndString.sol\":143:165  bytes1 public a = b[0] */\n    tag_8:\n      0x02\n      0x00\n      swap1\n      sload\n      swap1\n      0x0100\n      exp\n      swap1\n      div\n      0xf8\n      shl\n      dup2\n      jump\t// out\n        /* \"study/chapter07/bytesAndString.sol\":75:100  bytes public b = '123sdf' */\n    tag_12:\n      0x00\n      dup1\n      sload\n      tag_22\n      swap1\n      tag_23\n      jump\t// in\n    tag_22:\n      dup1\n      0x1f\n      add\n      0x20\n      dup1\n      swap2\n      div\n      mul\n      0x20\n      add\n      mload(0x40)\n      swap1\n      dup2\n      add\n      0x40\n      mstore\n      dup1\n      swap3\n      swap2\n      swap1\n      dup2\n      dup2\n      mstore\n      0x20\n      add\n      dup3\n      dup1\n      sload\n      tag_24\n      swap1\n      tag_23\n      jump\t// in\n    tag_24:\n      dup1\n      iszero\n      tag_25\n      jumpi\n      dup1\n      0x1f\n      lt\n      tag_26\n      jumpi\n      0x0100\n      dup1\n      dup4\n      sload\n      div\n      mul\n      dup4\n      mstore\n      swap2\n      0x20\n      add\n      swap2\n      jump(tag_25)\n    tag_26:\n      dup3\n      add\n      swap2\n      swap1\n      0x00\n      mstore\n      keccak256(0x00, 0x20)\n      swap1\n    tag_27:\n      dup2\n      sload\n      dup2\n      mstore\n      swap1\n      0x01\n      add\n      swap1\n      0x20\n      add\n      dup1\n      dup4\n      gt\n      tag_27\n      jumpi\n      dup3\n      swap1\n      sub\n      0x1f\n      and\n      dup3\n      add\n      swap2\n    tag_25:\n      pop\n      pop\n      pop\n      pop\n      pop\n      dup2\n      jump\t// out\n        /* \"study/chapter07/bytesAndString.sol\":106:137  string public s = \"i am string\" */\n    tag_16:\n      0x01\n      dup1\n      sload\n      tag_28\n      swap1\n      tag_23\n      jump\t// in\n    tag_28:\n      dup1\n      0x1f\n      add\n      0x20\n      dup1\n      swap2\n      div\n      mul\n      0x20\n      add\n      mload(0x40)\n      swap1\n      dup2\n      add\n      0x40\n      mstore\n      dup1\n      swap3\n      swap2\n      swap1\n      dup2\n      dup2\n      mstore\n      0x20\n      add\n      dup3\n      dup1\n      sload\n      tag_29\n      swap1\n      tag_23\n      jump\t// in\n    tag_29:\n      dup1\n      iszero\n      tag_30\n      jumpi\n      dup1\n      0x1f\n      lt\n      tag_31\n      jumpi\n      0x0100\n      dup1\n      dup4\n      sload\n      div\n      mul\n      dup4\n      mstore\n      swap2\n      0x20\n      add\n      swap2\n      jump(tag_30)\n    tag_31:\n      dup3\n      add\n      swap2\n      swap1\n      0x00\n      mstore\n      keccak256(0x00, 0x20)\n      swap1\n    tag_32:\n      dup2\n      sload\n      dup2\n      mstore\n      swap1\n      0x01\n      add\n      swap1\n      0x20\n      add\n      dup1\n      dup4\n      gt\n      tag_32\n      jumpi\n      dup3\n      swap1\n      sub\n      0x1f\n      and\n      dup3\n      add\n      swap2\n    tag_30:\n      pop\n      pop\n      pop\n      pop\n      pop\n      dup2\n      jump\t// out\n        /* \"study/chapter07/bytesAndString.sol\":171:200  bytes1 public d = bytes(s)[0] */\n    tag_20:\n      0x02\n      0x01\n      swap1\n      sload\n      swap1\n      0x0100\n      exp\n      swap1\n      div\n      0xf8\n      shl\n      dup2\n      jump\t// out\n        /* \"#utility.yul\":7:122   */\n    tag_34:\n        /* \"#utility.yul\":92:115   */\n      tag_36\n        /* \"#utility.yul\":109:114   */\n      dup2\n        /* \"#utility.yul\":92:115   */\n      tag_37\n      jump\t// in\n    tag_36:\n        /* \"#utility.yul\":87:90   */\n      dup3\n        /* \"#utility.yul\":80:116   */\n      mstore\n        /* \"#utility.yul\":7:122   */\n      pop\n      pop\n      jump\t// out\n        /* \"#utility.yul\":128:488   */\n    tag_38:\n        /* \"#utility.yul\":214:217   */\n      0x00\n        /* \"#utility.yul\":242:280   */\n      tag_40\n        /* \"#utility.yul\":274:279   */\n      dup3\n        /* \"#utility.yul\":242:280   */\n      tag_41\n      jump\t// in\n    tag_40:\n        /* \"#utility.yul\":296:366   */\n      tag_42\n        /* \"#utility.yul\":359:365   */\n      dup2\n        /* \"#utility.yul\":354:357   */\n      dup6\n        /* \"#utility.yul\":296:366   */\n      tag_43\n      jump\t// in\n    tag_42:\n        /* \"#utility.yul\":289:366   */\n      swap4\n      pop\n        /* \"#utility.yul\":375:427   */\n      tag_44\n        /* \"#utility.yul\":420:426   */\n      dup2\n        /* \"#utility.yul\":415:418   */\n      dup6\n        /* \"#utility.yul\":408:412   */\n      0x20\n        /* \"#utility.yul\":401:406   */\n      dup7\n        /* \"#utility.yul\":397:413   */\n      add\n        /* \"#utility.yul\":375:427   */\n      tag_45\n      jump\t// in\n    tag_44:\n        /* \"#utility.yul\":452:481   */\n      tag_46\n        /* \"#utility.yul\":474:480   */\n      dup2\n        /* \"#utility.yul\":452:481   */\n      tag_47\n      jump\t// in\n    tag_46:\n        /* \"#utility.yul\":447:450   */\n      dup5\n        /* \"#utility.yul\":443:482   */\n      add\n        /* \"#utility.yul\":436:482   */\n      swap2\n      pop\n        /* \"#utility.yul\":218:488   */\n      pop\n        /* \"#utility.yul\":128:488   */\n      swap3\n      swap2\n      pop\n      pop\n      jump\t// out\n        /* \"#utility.yul\":494:858   */\n    tag_48:\n        /* \"#utility.yul\":582:585   */\n      0x00\n        /* \"#utility.yul\":610:649   */\n      tag_50\n        /* \"#utility.yul\":643:648   */\n      dup3\n        /* \"#utility.yul\":610:649   */\n      tag_51\n      jump\t// in\n    tag_50:\n        /* \"#utility.yul\":665:736   */\n      tag_52\n        /* \"#utility.yul\":729:735   */\n      dup2\n        /* \"#utility.yul\":724:727   */\n      dup6\n        /* \"#utility.yul\":665:736   */\n      tag_53\n      jump\t// in\n    tag_52:\n        /* \"#utility.yul\":658:736   */\n      swap4\n      pop\n        /* \"#utility.yul\":745:797   */\n      tag_54\n        /* \"#utility.yul\":790:796   */\n      dup2\n        /* \"#utility.yul\":785:788   */\n      dup6\n        /* \"#utility.yul\":778:782   */\n      0x20\n        /* \"#utility.yul\":771:776   */\n      dup7\n        /* \"#utility.yul\":767:783   */\n      add\n        /* \"#utility.yul\":745:797   */\n      tag_45\n      jump\t// in\n    tag_54:\n        /* \"#utility.yul\":822:851   */\n      tag_55\n        /* \"#utility.yul\":844:850   */\n      dup2\n        /* \"#utility.yul\":822:851   */\n      tag_47\n      jump\t// in\n    tag_55:\n        /* \"#utility.yul\":817:820   */\n      dup5\n        /* \"#utility.yul\":813:852   */\n      add\n        /* \"#utility.yul\":806:852   */\n      swap2\n      pop\n        /* \"#utility.yul\":586:858   */\n      pop\n        /* \"#utility.yul\":494:858   */\n      swap3\n      swap2\n      pop\n      pop\n      jump\t// out\n        /* \"#utility.yul\":864:1082   */\n    tag_10:\n        /* \"#utility.yul\":955:959   */\n      0x00\n        /* \"#utility.yul\":993:995   */\n      0x20\n        /* \"#utility.yul\":982:991   */\n      dup3\n        /* \"#utility.yul\":978:996   */\n      add\n        /* \"#utility.yul\":970:996   */\n      swap1\n      pop\n        /* \"#utility.yul\":1006:1075   */\n      tag_57\n        /* \"#utility.yul\":1072:1073   */\n      0x00\n        /* \"#utility.yul\":1061:1070   */\n      dup4\n        /* \"#utility.yul\":1057:1074   */\n      add\n        /* \"#utility.yul\":1048:1054   */\n      dup5\n        /* \"#utility.yul\":1006:1075   */\n      tag_34\n      jump\t// in\n    tag_57:\n        /* \"#utility.yul\":864:1082   */\n      swap3\n      swap2\n      pop\n      pop\n      jump\t// out\n        /* \"#utility.yul\":1088:1397   */\n    tag_14:\n        /* \"#utility.yul\":1199:1203   */\n      0x00\n        /* \"#utility.yul\":1237:1239   */\n      0x20\n        /* \"#utility.yul\":1226:1235   */\n      dup3\n        /* \"#utility.yul\":1222:1240   */\n      add\n        /* \"#utility.yul\":1214:1240   */\n      swap1\n      pop\n        /* \"#utility.yul\":1286:1295   */\n      dup2\n        /* \"#utility.yul\":1280:1284   */\n      dup2\n        /* \"#utility.yul\":1276:1296   */\n      sub\n        /* \"#utility.yul\":1272:1273   */\n      0x00\n        /* \"#utility.yul\":1261:1270   */\n      dup4\n        /* \"#utility.yul\":1257:1274   */\n      add\n        /* \"#utility.yul\":1250:1297   */\n      mstore\n        /* \"#utility.yul\":1314:1390   */\n      tag_59\n        /* \"#utility.yul\":1385:1389   */\n      dup2\n        /* \"#utility.yul\":1376:1382   */\n      dup5\n        /* \"#utility.yul\":1314:1390   */\n      tag_38\n      jump\t// in\n    tag_59:\n        /* \"#utility.yul\":1306:1390   */\n      swap1\n      pop\n        /* \"#utility.yul\":1088:1397   */\n      swap3\n      swap2\n      pop\n      pop\n      jump\t// out\n        /* \"#utility.yul\":1403:1716   */\n    tag_18:\n        /* \"#utility.yul\":1516:1520   */\n      0x00\n        /* \"#utility.yul\":1554:1556   */\n      0x20\n        /* \"#utility.yul\":1543:1552   */\n      dup3\n        /* \"#utility.yul\":1539:1557   */\n      add\n        /* \"#utility.yul\":1531:1557   */\n      swap1\n      pop\n        /* \"#utility.yul\":1603:1612   */\n      dup2\n        /* \"#utility.yul\":1597:1601   */\n      dup2\n        /* \"#utility.yul\":1593:1613   */\n      sub\n        /* \"#utility.yul\":1589:1590   */\n      0x00\n        /* \"#utility.yul\":1578:1587   */\n      dup4\n        /* \"#utility.yul\":1574:1591   */\n      add\n        /* \"#utility.yul\":1567:1614   */\n      mstore\n        /* \"#utility.yul\":1631:1709   */\n      tag_61\n        /* \"#utility.yul\":1704:1708   */\n      dup2\n        /* \"#utility.yul\":1695:1701   */\n      dup5\n        /* \"#utility.yul\":1631:1709   */\n      tag_48\n      jump\t// in\n    tag_61:\n        /* \"#utility.yul\":1623:1709   */\n      swap1\n      pop\n        /* \"#utility.yul\":1403:1716   */\n      swap3\n      swap2\n      pop\n      pop\n      jump\t// out\n        /* \"#utility.yul\":1722:1820   */\n    tag_41:\n        /* \"#utility.yul\":1773:1779   */\n      0x00\n        /* \"#utility.yul\":1807:1812   */\n      dup2\n        /* \"#utility.yul\":1801:1813   */\n      mload\n        /* \"#utility.yul\":1791:1813   */\n      swap1\n      pop\n        /* \"#utility.yul\":1722:1820   */\n      swap2\n      swap1\n      pop\n      jump\t// out\n        /* \"#utility.yul\":1826:1925   */\n    tag_51:\n        /* \"#utility.yul\":1878:1884   */\n      0x00\n        /* \"#utility.yul\":1912:1917   */\n      dup2\n        /* \"#utility.yul\":1906:1918   */\n      mload\n        /* \"#utility.yul\":1896:1918   */\n      swap1\n      pop\n        /* \"#utility.yul\":1826:1925   */\n      swap2\n      swap1\n      pop\n      jump\t// out\n        /* \"#utility.yul\":1931:2099   */\n    tag_43:\n        /* \"#utility.yul\":2014:2025   */\n      0x00\n        /* \"#utility.yul\":2048:2054   */\n      dup3\n        /* \"#utility.yul\":2043:2046   */\n      dup3\n        /* \"#utility.yul\":2036:2055   */\n      mstore\n        /* \"#utility.yul\":2088:2092   */\n      0x20\n        /* \"#utility.yul\":2083:2086   */\n      dup3\n        /* \"#utility.yul\":2079:2093   */\n      add\n        /* \"#utility.yul\":2064:2093   */\n      swap1\n      pop\n        /* \"#utility.yul\":1931:2099   */\n      swap3\n      swap2\n      pop\n      pop\n      jump\t// out\n        /* \"#utility.yul\":2105:2274   */\n    tag_53:\n        /* \"#utility.yul\":2189:2200   */\n      0x00\n        /* \"#utility.yul\":2223:2229   */\n      dup3\n        /* \"#utility.yul\":2218:2221   */\n      dup3\n        /* \"#utility.yul\":2211:2230   */\n      mstore\n        /* \"#utility.yul\":2263:2267   */\n      0x20\n        /* \"#utility.yul\":2258:2261   */\n      dup3\n        /* \"#utility.yul\":2254:2268   */\n      add\n        /* \"#utility.yul\":2239:2268   */\n      swap1\n      pop\n        /* \"#utility.yul\":2105:2274   */\n      swap3\n      swap2\n      pop\n      pop\n      jump\t// out\n        /* \"#utility.yul\":2280:2429   */\n    tag_37:\n        /* \"#utility.yul\":2316:2323   */\n      0x00\n        /* \"#utility.yul\":2356:2422   */\n      0xff00000000000000000000000000000000000000000000000000000000000000\n        /* \"#utility.yul\":2349:2354   */\n      dup3\n        /* \"#utility.yul\":2345:2423   */\n      and\n        /* \"#utility.yul\":2334:2423   */\n      swap1\n      pop\n        /* \"#utility.yul\":2280:2429   */\n      swap2\n      swap1\n      pop\n      jump\t// out\n        /* \"#utility.yul\":2435:2742   */\n    tag_45:\n        /* \"#utility.yul\":2503:2504   */\n      0x00\n        /* \"#utility.yul\":2513:2626   */\n    tag_68:\n        /* \"#utility.yul\":2527:2533   */\n      dup4\n        /* \"#utility.yul\":2524:2525   */\n      dup2\n        /* \"#utility.yul\":2521:2534   */\n      lt\n        /* \"#utility.yul\":2513:2626   */\n      iszero\n      tag_70\n      jumpi\n        /* \"#utility.yul\":2612:2613   */\n      dup1\n        /* \"#utility.yul\":2607:2610   */\n      dup3\n        /* \"#utility.yul\":2603:2614   */\n      add\n        /* \"#utility.yul\":2597:2615   */\n      mload\n        /* \"#utility.yul\":2593:2594   */\n      dup2\n        /* \"#utility.yul\":2588:2591   */\n      dup5\n        /* \"#utility.yul\":2584:2595   */\n      add\n        /* \"#utility.yul\":2577:2616   */\n      mstore\n        /* \"#utility.yul\":2549:2551   */\n      0x20\n        /* \"#utility.yul\":2546:2547   */\n      dup2\n        /* \"#utility.yul\":2542:2552   */\n      add\n        /* \"#utility.yul\":2537:2552   */\n      swap1\n      pop\n        /* \"#utility.yul\":2513:2626   */\n      jump(tag_68)\n    tag_70:\n        /* \"#utility.yul\":2644:2650   */\n      dup4\n        /* \"#utility.yul\":2641:2642   */\n      dup2\n        /* \"#utility.yul\":2638:2651   */\n      gt\n        /* \"#utility.yul\":2635:2736   */\n      iszero\n      tag_71\n      jumpi\n        /* \"#utility.yul\":2724:2725   */\n      0x00\n        /* \"#utility.yul\":2715:2721   */\n      dup5\n        /* \"#utility.yul\":2710:2713   */\n      dup5\n        /* \"#utility.yul\":2706:2722   */\n      add\n        /* \"#utility.yul\":2699:2726   */\n      mstore\n        /* \"#utility.yul\":2635:2736   */\n    tag_71:\n        /* \"#utility.yul\":2484:2742   */\n      pop\n        /* \"#utility.yul\":2435:2742   */\n      pop\n      pop\n      pop\n      jump\t// out\n        /* \"#utility.yul\":2748:3068   */\n    tag_23:\n        /* \"#utility.yul\":2792:2798   */\n      0x00\n        /* \"#utility.yul\":2829:2830   */\n      0x02\n        /* \"#utility.yul\":2823:2827   */\n      dup3\n        /* \"#utility.yul\":2819:2831   */\n      div\n        /* \"#utility.yul\":2809:2831   */\n      swap1\n      pop\n        /* \"#utility.yul\":2876:2877   */\n      0x01\n        /* \"#utility.yul\":2870:2874   */\n      dup3\n        /* \"#utility.yul\":2866:2878   */\n      and\n        /* \"#utility.yul\":2897:2915   */\n      dup1\n        /* \"#utility.yul\":2887:2968   */\n      tag_73\n      jumpi\n        /* \"#utility.yul\":2953:2957   */\n      0x7f\n        /* \"#utility.yul\":2945:2951   */\n      dup3\n        /* \"#utility.yul\":2941:2958   */\n      and\n        /* \"#utility.yul\":2931:2958   */\n      swap2\n      pop\n        /* \"#utility.yul\":2887:2968   */\n    tag_73:\n        /* \"#utility.yul\":3015:3017   */\n      0x20\n        /* \"#utility.yul\":3007:3013   */\n      dup3\n        /* \"#utility.yul\":3004:3018   */\n      lt\n        /* \"#utility.yul\":2984:3002   */\n      dup2\n        /* \"#utility.yul\":2981:3019   */\n      eq\n        /* \"#utility.yul\":2978:3062   */\n      iszero\n      tag_74\n      jumpi\n        /* \"#utility.yul\":3034:3052   */\n      tag_75\n      tag_76\n      jump\t// in\n    tag_75:\n        /* \"#utility.yul\":2978:3062   */\n    tag_74:\n        /* \"#utility.yul\":2799:3068   */\n      pop\n        /* \"#utility.yul\":2748:3068   */\n      swap2\n      swap1\n      pop\n      jump\t// out\n        /* \"#utility.yul\":3074:3254   */\n    tag_76:\n        /* \"#utility.yul\":3122:3199   */\n      0x4e487b7100000000000000000000000000000000000000000000000000000000\n        /* \"#utility.yul\":3119:3120   */\n      0x00\n        /* \"#utility.yul\":3112:3200   */\n      mstore\n        /* \"#utility.yul\":3219:3223   */\n      0x22\n        /* \"#utility.yul\":3216:3217   */\n      0x04\n        /* \"#utility.yul\":3209:3224   */\n      mstore\n        /* \"#utility.yul\":3243:3247   */\n      0x24\n        /* \"#utility.yul\":3240:3241   */\n      0x00\n        /* \"#utility.yul\":3233:3248   */\n      revert\n        /* \"#utility.yul\":3260:3362   */\n    tag_47:\n        /* \"#utility.yul\":3301:3307   */\n      0x00\n        /* \"#utility.yul\":3352:3354   */\n      0x1f\n        /* \"#utility.yul\":3348:3355   */\n      not\n        /* \"#utility.yul\":3343:3345   */\n      0x1f\n        /* \"#utility.yul\":3336:3341   */\n      dup4\n        /* \"#utility.yul\":3332:3346   */\n      add\n        /* \"#utility.yul\":3328:3356   */\n      and\n        /* \"#utility.yul\":3318:3356   */\n      swap1\n      pop\n        /* \"#utility.yul\":3260:3362   */\n      swap2\n      swap1\n      pop\n      jump\t// out\n\n    auxdata: 0xa26469706673582212207fe15efd6267c863c42fac42cca819244a65cdcab4311a93415e3d3ab248c8b764736f6c63430008070033\n}\n",
				"bytecode": {
					"linkReferences": {},
					"object": "60806040526040518060400160405280600681526020017f31323373646600000000000000000000000000000000000000000000000000008152506000908051906020019061004f9291906101a7565b506040518060400160405280600b81526020017f6920616d20737472696e670000000000000000000000000000000000000000008152506001908051906020019061009b92919061022d565b5060008081546100aa906102d0565b81106100b9576100b8610331565b5b8154600116156100d85790600052602060002090602091828204019190065b9054901a7f010000000000000000000000000000000000000000000000000000000000000002600260006101000a81548160ff021916908360f81c0217905550600160008154610127906102d0565b811061013657610135610331565b5b8154600116156101555790600052602060002090602091828204019190065b9054901a7f010000000000000000000000000000000000000000000000000000000000000002600260016101000a81548160ff021916908360f81c02179055503480156101a157600080fd5b50610360565b8280546101b3906102d0565b90600052602060002090601f0160209004810192826101d5576000855561021c565b82601f106101ee57805160ff191683800117855561021c565b8280016001018555821561021c579182015b8281111561021b578251825591602001919060010190610200565b5b50905061022991906102b3565b5090565b828054610239906102d0565b90600052602060002090601f01602090048101928261025b57600085556102a2565b82601f1061027457805160ff19168380011785556102a2565b828001600101855582156102a2579182015b828111156102a1578251825591602001919060010190610286565b5b5090506102af91906102b3565b5090565b5b808211156102cc5760008160009055506001016102b4565b5090565b600060028204905060018216806102e857607f821691505b602082108114156102fc576102fb610302565b5b50919050565b7f4e487b7100000000000000000000000000000000000000000000000000000000600052602260045260246000fd5b7f4e487b7100000000000000000000000000000000000000000000000000000000600052603260045260246000fd5b61042a8061036f6000396000f3fe608060405234801561001057600080fd5b506004361061004c5760003560e01c80630dbe671f146100515780634df7e3d01461006f57806386b714e21461008d5780638a054ac2146100ab575b600080fd5b6100596100c9565b604051610066919061028c565b60405180910390f35b6100776100dc565b60405161008491906102a7565b60405180910390f35b61009561016a565b6040516100a291906102c9565b60405180910390f35b6100b36101f8565b6040516100c0919061028c565b60405180910390f35b600260009054906101000a900460f81b81565b600080546100e990610382565b80601f016020809104026020016040519081016040528092919081815260200182805461011590610382565b80156101625780601f1061013757610100808354040283529160200191610162565b820191906000526020600020905b81548152906001019060200180831161014557829003601f168201915b505050505081565b6001805461017790610382565b80601f01602080910402602001604051908101604052809291908181526020018280546101a390610382565b80156101f05780601f106101c5576101008083540402835291602001916101f0565b820191906000526020600020905b8154815290600101906020018083116101d357829003601f168201915b505050505081565b600260019054906101000a900460f81b81565b61021481610323565b82525050565b6000610225826102eb565b61022f8185610301565b935061023f81856020860161034f565b610248816103e3565b840191505092915050565b600061025e826102f6565b6102688185610312565b935061027881856020860161034f565b610281816103e3565b840191505092915050565b60006020820190506102a1600083018461020b565b92915050565b600060208201905081810360008301526102c1818461021a565b905092915050565b600060208201905081810360008301526102e38184610253565b905092915050565b600081519050919050565b600081519050919050565b600082825260208201905092915050565b600082825260208201905092915050565b60007fff0000000000000000000000000000000000000000000000000000000000000082169050919050565b60005b8381101561036d578082015181840152602081019050610352565b8381111561037c576000848401525b50505050565b6000600282049050600182168061039a57607f821691505b602082108114156103ae576103ad6103b4565b5b50919050565b7f4e487b7100000000000000000000000000000000000000000000000000000000600052602260045260246000fd5b6000601f19601f830116905091905056fea26469706673582212207fe15efd6267c863c42fac42cca819244a65cdcab4311a93415e3d3ab248c8b764736f6c63430008070033",
					"opcodes": "PUSH1 0x80 PUSH1 0x40 MSTORE PUSH1 0x40 MLOAD DUP1 PUSH1 0x40 ADD PUSH1 0x40 MSTORE DUP1 PUSH1 0x6 DUP2 MSTORE PUSH1 0x20 ADD PUSH32 0x3132337364660000000000000000000000000000000000000000000000000000 DUP2 MSTORE POP PUSH1 0x0 SWAP1 DUP1 MLOAD SWAP1 PUSH1 0x20 ADD SWAP1 PUSH2 0x4F SWAP3 SWAP2 SWAP1 PUSH2 0x1A7 JUMP JUMPDEST POP PUSH1 0x40 MLOAD DUP1 PUSH1 0x40 ADD PUSH1 0x40 MSTORE DUP1 PUSH1 0xB DUP2 MSTORE PUSH1 0x20 ADD PUSH32 0x6920616D20737472696E67000000000000000000000000000000000000000000 DUP2 MSTORE POP PUSH1 0x1 SWAP1 DUP1 MLOAD SWAP1 PUSH1 0x20 ADD SWAP1 PUSH2 0x9B SWAP3 SWAP2 SWAP1 PUSH2 0x22D JUMP JUMPDEST POP PUSH1 0x0 DUP1 DUP2 SLOAD PUSH2 0xAA SWAP1 PUSH2 0x2D0 JUMP JUMPDEST DUP2 LT PUSH2 0xB9 JUMPI PUSH2 0xB8 PUSH2 0x331 JUMP JUMPDEST JUMPDEST DUP2 SLOAD PUSH1 0x1 AND ISZERO PUSH2 0xD8 JUMPI SWAP1 PUSH1 0x0 MSTORE PUSH1 0x20 PUSH1 0x0 KECCAK256 SWAP1 PUSH1 0x20 SWAP2 DUP3 DUP3 DIV ADD SWAP2 SWAP1 MOD JUMPDEST SWAP1 SLOAD SWAP1 BYTE PUSH32 0x100000000000000000000000000000000000000000000000000000000000000 MUL PUSH1 0x2 PUSH1 0x0 PUSH2 0x100 EXP DUP2 SLOAD DUP2 PUSH1 0xFF MUL NOT AND SWAP1 DUP4 PUSH1 0xF8 SHR MUL OR SWAP1 SSTORE POP PUSH1 0x1 PUSH1 0x0 DUP2 SLOAD PUSH2 0x127 SWAP1 PUSH2 0x2D0 JUMP JUMPDEST DUP2 LT PUSH2 0x136 JUMPI PUSH2 0x135 PUSH2 0x331 JUMP JUMPDEST JUMPDEST DUP2 SLOAD PUSH1 0x1 AND ISZERO PUSH2 0x155 JUMPI SWAP1 PUSH1 0x0 MSTORE PUSH1 0x20 PUSH1 0x0 KECCAK256 SWAP1 PUSH1 0x20 SWAP2 DUP3 DUP3 DIV ADD SWAP2 SWAP1 MOD JUMPDEST SWAP1 SLOAD SWAP1 BYTE PUSH32 0x100000000000000000000000000000000000000000000000000000000000000 MUL PUSH1 0x2 PUSH1 0x1 PUSH2 0x100 EXP DUP2 SLOAD DUP2 PUSH1 0xFF MUL NOT AND SWAP1 DUP4 PUSH1 0xF8 SHR MUL OR SWAP1 SSTORE POP CALLVALUE DUP1 ISZERO PUSH2 0x1A1 JUMPI PUSH1 0x0 DUP1 REVERT JUMPDEST POP PUSH2 0x360 JUMP JUMPDEST DUP3 DUP1 SLOAD PUSH2 0x1B3 SWAP1 PUSH2 0x2D0 JUMP JUMPDEST SWAP1 PUSH1 0x0 MSTORE PUSH1 0x20 PUSH1 0x0 KECCAK256 SWAP1 PUSH1 0x1F ADD PUSH1 0x20 SWAP1 DIV DUP2 ADD SWAP3 DUP3 PUSH2 0x1D5 JUMPI PUSH1 0x0 DUP6 SSTORE PUSH2 0x21C JUMP JUMPDEST DUP3 PUSH1 0x1F LT PUSH2 0x1EE JUMPI DUP1 MLOAD PUSH1 0xFF NOT AND DUP4 DUP1 ADD OR DUP6 SSTORE PUSH2 0x21C JUMP JUMPDEST DUP3 DUP1 ADD PUSH1 0x1 ADD DUP6 SSTORE DUP3 ISZERO PUSH2 0x21C JUMPI SWAP2 DUP3 ADD JUMPDEST DUP3 DUP2 GT ISZERO PUSH2 0x21B JUMPI DUP3 MLOAD DUP3 SSTORE SWAP2 PUSH1 0x20 ADD SWAP2 SWAP1 PUSH1 0x1 ADD SWAP1 PUSH2 0x200 JUMP JUMPDEST JUMPDEST POP SWAP1 POP PUSH2 0x229 SWAP2 SWAP1 PUSH2 0x2B3 JUMP JUMPDEST POP SWAP1 JUMP JUMPDEST DUP3 DUP1 SLOAD PUSH2 0x239 SWAP1 PUSH2 0x2D0 JUMP JUMPDEST SWAP1 PUSH1 0x0 MSTORE PUSH1 0x20 PUSH1 0x0 KECCAK256 SWAP1 PUSH1 0x1F ADD PUSH1 0x20 SWAP1 DIV DUP2 ADD SWAP3 DUP3 PUSH2 0x25B JUMPI PUSH1 0x0 DUP6 SSTORE PUSH2 0x2A2 JUMP JUMPDEST DUP3 PUSH1 0x1F LT PUSH2 0x274 JUMPI DUP1 MLOAD PUSH1 0xFF NOT AND DUP4 DUP1 ADD OR DUP6 SSTORE PUSH2 0x2A2 JUMP JUMPDEST DUP3 DUP1 ADD PUSH1 0x1 ADD DUP6 SSTORE DUP3 ISZERO PUSH2 0x2A2 JUMPI SWAP2 DUP3 ADD JUMPDEST DUP3 DUP2 GT ISZERO PUSH2 0x2A1 JUMPI DUP3 MLOAD DUP3 SSTORE SWAP2 PUSH1 0x20 ADD SWAP2 SWAP1 PUSH1 0x1 ADD SWAP1 PUSH2 0x286 JUMP JUMPDEST JUMPDEST POP SWAP1 POP PUSH2 0x2AF SWAP2 SWAP1 PUSH2 0x2B3 JUMP JUMPDEST POP SWAP1 JUMP JUMPDEST JUMPDEST DUP1 DUP3 GT ISZERO PUSH2 0x2CC JUMPI PUSH1 0x0 DUP2 PUSH1 0x0 SWAP1 SSTORE POP PUSH1 0x1 ADD PUSH2 0x2B4 JUMP JUMPDEST POP SWAP1 JUMP JUMPDEST PUSH1 0x0 PUSH1 0x2 DUP3 DIV SWAP1 POP PUSH1 0x1 DUP3 AND DUP1 PUSH2 0x2E8 JUMPI PUSH1 0x7F DUP3 AND SWAP2 POP JUMPDEST PUSH1 0x20 DUP3 LT DUP2 EQ ISZERO PUSH2 0x2FC JUMPI PUSH2 0x2FB PUSH2 0x302 JUMP JUMPDEST JUMPDEST POP SWAP2 SWAP1 POP JUMP JUMPDEST PUSH32 0x4E487B7100000000000000000000000000000000000000000000000000000000 PUSH1 0x0 MSTORE PUSH1 0x22 PUSH1 0x4 MSTORE PUSH1 0x24 PUSH1 0x0 REVERT JUMPDEST PUSH32 0x4E487B7100000000000000000000000000000000000000000000000000000000 PUSH1 0x0 MSTORE PUSH1 0x32 PUSH1 0x4 MSTORE PUSH1 0x24 PUSH1 0x0 REVERT JUMPDEST PUSH2 0x42A DUP1 PUSH2 0x36F PUSH1 0x0 CODECOPY PUSH1 0x0 RETURN INVALID PUSH1 0x80 PUSH1 0x40 MSTORE CALLVALUE DUP1 ISZERO PUSH2 0x10 JUMPI PUSH1 0x0 DUP1 REVERT JUMPDEST POP PUSH1 0x4 CALLDATASIZE LT PUSH2 0x4C JUMPI PUSH1 0x0 CALLDATALOAD PUSH1 0xE0 SHR DUP1 PUSH4 0xDBE671F EQ PUSH2 0x51 JUMPI DUP1 PUSH4 0x4DF7E3D0 EQ PUSH2 0x6F JUMPI DUP1 PUSH4 0x86B714E2 EQ PUSH2 0x8D JUMPI DUP1 PUSH4 0x8A054AC2 EQ PUSH2 0xAB JUMPI JUMPDEST PUSH1 0x0 DUP1 REVERT JUMPDEST PUSH2 0x59 PUSH2 0xC9 JUMP JUMPDEST PUSH1 0x40 MLOAD PUSH2 0x66 SWAP2 SWAP1 PUSH2 0x28C JUMP JUMPDEST PUSH1 0x40 MLOAD DUP1 SWAP2 SUB SWAP1 RETURN JUMPDEST PUSH2 0x77 PUSH2 0xDC JUMP JUMPDEST PUSH1 0x40 MLOAD PUSH2 0x84 SWAP2 SWAP1 PUSH2 0x2A7 JUMP JUMPDEST PUSH1 0x40 MLOAD DUP1 SWAP2 SUB SWAP1 RETURN JUMPDEST PUSH2 0x95 PUSH2 0x16A JUMP JUMPDEST PUSH1 0x40 MLOAD PUSH2 0xA2 SWAP2 SWAP1 PUSH2 0x2C9 JUMP JUMPDEST PUSH1 0x40 MLOAD DUP1 SWAP2 SUB SWAP1 RETURN JUMPDEST PUSH2 0xB3 PUSH2 0x1F8 JUMP JUMPDEST PUSH1 0x40 MLOAD PUSH2 0xC0 SWAP2 SWAP1 PUSH2 0x28C JUMP JUMPDEST PUSH1 0x40 MLOAD DUP1 SWAP2 SUB SWAP1 RETURN JUMPDEST PUSH1 0x2 PUSH1 0x0 SWAP1 SLOAD SWAP1 PUSH2 0x100 EXP SWAP1 DIV PUSH1 0xF8 SHL DUP2 JUMP JUMPDEST PUSH1 0x0 DUP1 SLOAD PUSH2 0xE9 SWAP1 PUSH2 0x382 JUMP JUMPDEST DUP1 PUSH1 0x1F ADD PUSH1 0x20 DUP1 SWAP2 DIV MUL PUSH1 0x20 ADD PUSH1 0x40 MLOAD SWAP1 DUP2 ADD PUSH1 0x40 MSTORE DUP1 SWAP3 SWAP2 SWAP1 DUP2 DUP2 MSTORE PUSH1 0x20 ADD DUP3 DUP1 SLOAD PUSH2 0x115 SWAP1 PUSH2 0x382 JUMP JUMPDEST DUP1 ISZERO PUSH2 0x162 JUMPI DUP1 PUSH1 0x1F LT PUSH2 0x137 JUMPI PUSH2 0x100 DUP1 DUP4 SLOAD DIV MUL DUP4 MSTORE SWAP2 PUSH1 0x20 ADD SWAP2 PUSH2 0x162 JUMP JUMPDEST DUP3 ADD SWAP2 SWAP1 PUSH1 0x0 MSTORE PUSH1 0x20 PUSH1 0x0 KECCAK256 SWAP1 JUMPDEST DUP2 SLOAD DUP2 MSTORE SWAP1 PUSH1 0x1 ADD SWAP1 PUSH1 0x20 ADD DUP1 DUP4 GT PUSH2 0x145 JUMPI DUP3 SWAP1 SUB PUSH1 0x1F AND DUP3 ADD SWAP2 JUMPDEST POP POP POP POP POP DUP2 JUMP JUMPDEST PUSH1 0x1 DUP1 SLOAD PUSH2 0x177 SWAP1 PUSH2 0x382 JUMP JUMPDEST DUP1 PUSH1 0x1F ADD PUSH1 0x20 DUP1 SWAP2 DIV MUL PUSH1 0x20 ADD PUSH1 0x40 MLOAD SWAP1 DUP2 ADD PUSH1 0x40 MSTORE DUP1 SWAP3 SWAP2 SWAP1 DUP2 DUP2 MSTORE PUSH1 0x20 ADD DUP3 DUP1 SLOAD PUSH2 0x1A3 SWAP1 PUSH2 0x382 JUMP JUMPDEST DUP1 ISZERO PUSH2 0x1F0 JUMPI DUP1 PUSH1 0x1F LT PUSH2 0x1C5 JUMPI PUSH2 0x100 DUP1 DUP4 SLOAD DIV MUL DUP4 MSTORE SWAP2 PUSH1 0x20 ADD SWAP2 PUSH2 0x1F0 JUMP JUMPDEST DUP3 ADD SWAP2 SWAP1 PUSH1 0x0 MSTORE PUSH1 0x20 PUSH1 0x0 KECCAK256 SWAP1 JUMPDEST DUP2 SLOAD DUP2 MSTORE SWAP1 PUSH1 0x1 ADD SWAP1 PUSH1 0x20 ADD DUP1 DUP4 GT PUSH2 0x1D3 JUMPI DUP3 SWAP1 SUB PUSH1 0x1F AND DUP3 ADD SWAP2 JUMPDEST POP POP POP POP POP DUP2 JUMP JUMPDEST PUSH1 0x2 PUSH1 0x1 SWAP1 SLOAD SWAP1 PUSH2 0x100 EXP SWAP1 DIV PUSH1 0xF8 SHL DUP2 JUMP JUMPDEST PUSH2 0x214 DUP2 PUSH2 0x323 JUMP JUMPDEST DUP3 MSTORE POP POP JUMP JUMPDEST PUSH1 0x0 PUSH2 0x225 DUP3 PUSH2 0x2EB JUMP JUMPDEST PUSH2 0x22F DUP2 DUP6 PUSH2 0x301 JUMP JUMPDEST SWAP4 POP PUSH2 0x23F DUP2 DUP6 PUSH1 0x20 DUP7 ADD PUSH2 0x34F JUMP JUMPDEST PUSH2 0x248 DUP2 PUSH2 0x3E3 JUMP JUMPDEST DUP5 ADD SWAP2 POP POP SWAP3 SWAP2 POP POP JUMP JUMPDEST PUSH1 0x0 PUSH2 0x25E DUP3 PUSH2 0x2F6 JUMP JUMPDEST PUSH2 0x268 DUP2 DUP6 PUSH2 0x312 JUMP JUMPDEST SWAP4 POP PUSH2 0x278 DUP2 DUP6 PUSH1 0x20 DUP7 ADD PUSH2 0x34F JUMP JUMPDEST PUSH2 0x281 DUP2 PUSH2 0x3E3 JUMP JUMPDEST DUP5 ADD SWAP2 POP POP SWAP3 SWAP2 POP POP JUMP JUMPDEST PUSH1 0x0 PUSH1 0x20 DUP3 ADD SWAP1 POP PUSH2 0x2A1 PUSH1 0x0 DUP4 ADD DUP5 PUSH2 0x20B JUMP JUMPDEST SWAP3 SWAP2 POP POP JUMP JUMPDEST PUSH1 0x0 PUSH1 0x20 DUP3 ADD SWAP1 POP DUP2 DUP2 SUB PUSH1 0x0 DUP4 ADD MSTORE PUSH2 0x2C1 DUP2 DUP5 PUSH2 0x21A JUMP JUMPDEST SWAP1 POP SWAP3 SWAP2 POP POP JUMP JUMPDEST PUSH1 0x0 PUSH1 0x20 DUP3 ADD SWAP1 POP DUP2 DUP2 SUB PUSH1 0x0 DUP4 ADD MSTORE PUSH2 0x2E3 DUP2 DUP5 PUSH2 0x253 JUMP JUMPDEST SWAP1 POP SWAP3 SWAP2 POP POP JUMP JUMPDEST PUSH1 0x0 DUP2 MLOAD SWAP1 POP SWAP2 SWAP1 POP JUMP JUMPDEST PUSH1 0x0 DUP2 MLOAD SWAP1 POP SWAP2 SWAP1 POP JUMP JUMPDEST PUSH1 0x0 DUP3 DUP3 MSTORE PUSH1 0x20 DUP3 ADD SWAP1 POP SWAP3 SWAP2 POP POP JUMP JUMPDEST PUSH1 0x0 DUP3 DUP3 MSTORE PUSH1 0x20 DUP3 ADD SWAP1 POP SWAP3 SWAP2 POP POP JUMP JUMPDEST PUSH1 0x0 PUSH32 0xFF00000000000000000000000000000000000000000000000000000000000000 DUP3 AND SWAP1 POP SWAP2 SWAP1 POP JUMP JUMPDEST PUSH1 0x0 JUMPDEST DUP4 DUP2 LT ISZERO PUSH2 0x36D JUMPI DUP1 DUP3 ADD MLOAD DUP2 DUP5 ADD MSTORE PUSH1 0x20 DUP2 ADD SWAP1 POP PUSH2 0x352 JUMP JUMPDEST DUP4 DUP2 GT ISZERO PUSH2 0x37C JUMPI PUSH1 0x0 DUP5 DUP5 ADD MSTORE JUMPDEST POP POP POP POP JUMP JUMPDEST PUSH1 0x0 PUSH1 0x2 DUP3 DIV SWAP1 POP PUSH1 0x1 DUP3 AND DUP1 PUSH2 0x39A JUMPI PUSH1 0x7F DUP3 AND SWAP2 POP JUMPDEST PUSH1 0x20 DUP3 LT DUP2 EQ ISZERO PUSH2 0x3AE JUMPI PUSH2 0x3AD PUSH2 0x3B4 JUMP JUMPDEST JUMPDEST POP SWAP2 SWAP1 POP JUMP JUMPDEST PUSH32 0x4E487B7100000000000000000000000000000000000000000000000000000000 PUSH1 0x0 MSTORE PUSH1 0x22 PUSH1 0x4 MSTORE PUSH1 0x24 PUSH1 0x0 REVERT JUMPDEST PUSH1 0x0 PUSH1 0x1F NOT PUSH1 0x1F DUP4 ADD AND SWAP1 POP SWAP2 SWAP1 POP JUMP INVALID LOG2 PUSH5 0x6970667358 0x22 SLT KECCAK256 PUSH32 0xE15EFD6267C863C42FAC42CCA819244A65CDCAB4311A93415E3D3AB248C8B764 PUSH20 0x6F6C634300080700330000000000000000000000 "
				},
				"gasEstimates": {
					"creation": {
						"codeDepositCost": "213200",
						"executionCost": "infinite",
						"totalCost": "infinite"
					},
					"external": {
						"a()": "2449",
						"b()": "infinite",
						"d()": "2565",
						"s()": "infinite"
					}
				},
				"methodIdentifiers": {
					"a()": "0dbe671f",
					"b()": "4df7e3d0",
					"d()": "8a054ac2",
					"s()": "86b714e2"
				}
			},
			"storageLayout": {
				"storage": [
					{
						"astId": 4,
						"contract": "study/chapter07/bytesAndString.sol:testBS",
						"label": "b",
						"offset": 0,
						"slot": "0",
						"type": "t_bytes_storage"
					},
					{
						"astId": 7,
						"contract": "study/chapter07/bytesAndString.sol:testBS",
						"label": "s",
						"offset": 0,
						"slot": "1",
						"type": "t_string_storage"
					},
					{
						"astId": 12,
						"contract": "study/chapter07/bytesAndString.sol:testBS",
						"label": "a",
						"offset": 0,
						"slot": "2",
						"type": "t_bytes1"
					},
					{
						"astId": 20,
						"contract": "study/chapter07/bytesAndString.sol:testBS",
						"label": "d",
						"offset": 1,
						"slot": "2",
						"type": "t_bytes1"
					}
				],
				"types": {
					"t_bytes1": {
						"encoding": "inplace",
						"label": "bytes1",
						"numberOfBytes": "1"
					},
					"t_bytes_storage": {
						"encoding": "bytes",
						"label": "bytes",
						"numberOfBytes": "32"
					},
					"t_string_storage": {
						"encoding": "bytes",
						"label": "string",
						"numberOfBytes": "32"
					}
				}
			},
			"userdoc": {
				"kind": "user",
				"methods": {},
				"version": 1
			}
		}
	}
}