{
	"study/chapter07/stirngOpt.sol": {
		"Hello": {
			"abi": [
				{
					"inputs": [],
					"name": "greet",
					"outputs": [
						{
							"internalType": "string",
							"name": "",
							"type": "string"
						}
					],
					"stateMutability": "view",
					"type": "function"
				},
				{
					"inputs": [],
					"name": "s",
					"outputs": [
						{
							"internalType": "string",
							"name": "",
							"type": "string"
						}
					],
					"stateMutability": "view",
					"type": "function"
				},
				{
					"inputs": [],
					"name": "s1",
					"outputs": [
						{
							"internalType": "string",
							"name": "",
							"type": "string"
						}
					],
					"stateMutability": "view",
					"type": "function"
				},
				{
					"inputs": [
						{
							"internalType": "string",
							"name": "a",
							"type": "string"
						}
					],
					"name": "str",
					"outputs": [
						{
							"internalType": "string",
							"name": "",
							"type": "string"
						}
					],
					"stateMutability": "view",
					"type": "function"
				}
			],
			"devdoc": {
				"kind": "dev",
				"methods": {},
				"version": 1
			},
			"evm": {
				"assembly": "    /* \"study/chapter07/stirngOpt.sol\":56:311  contract Hello {... */\n  mstore(0x40, 0x80)\n    /* \"study/chapter07/stirngOpt.sol\":77:108  string public greet = \"Hello, \" */\n  mload(0x40)\n  dup1\n  0x40\n  add\n  0x40\n  mstore\n  dup1\n  0x07\n  dup2\n  mstore\n  0x20\n  add\n  0x48656c6c6f2c2000000000000000000000000000000000000000000000000000\n  dup2\n  mstore\n  pop\n  0x00\n  swap1\n  dup1\n  mload\n  swap1\n  0x20\n  add\n  swap1\n  tag_1\n  swap3\n  swap2\n  swap1\n  tag_2\n  jump\t// in\ntag_1:\n  pop\n    /* \"study/chapter07/stirngOpt.sol\":254:275  string public s = \"A\" */\n  mload(0x40)\n  dup1\n  0x40\n  add\n  0x40\n  mstore\n  dup1\n  0x01\n  dup2\n  mstore\n  0x20\n  add\n  0x4100000000000000000000000000000000000000000000000000000000000000\n  dup2\n  mstore\n  pop\n  0x01\n  swap1\n  dup1\n  mload\n  swap1\n  0x20\n  add\n  swap1\n  tag_3\n  swap3\n  swap2\n  swap1\n  tag_2\n  jump\t// in\ntag_3:\n  pop\n    /* \"study/chapter07/stirngOpt.sol\":281:303  string public s1 = \"B\" */\n  mload(0x40)\n  dup1\n  0x40\n  add\n  0x40\n  mstore\n  dup1\n  0x01\n  dup2\n  mstore\n  0x20\n  add\n  0x4200000000000000000000000000000000000000000000000000000000000000\n  dup2\n  mstore\n  pop\n  0x02\n  swap1\n  dup1\n  mload\n  swap1\n  0x20\n  add\n  swap1\n  tag_4\n  swap3\n  swap2\n  swap1\n  tag_2\n  jump\t// in\ntag_4:\n  pop\n    /* \"study/chapter07/stirngOpt.sol\":56:311  contract Hello {... */\n  callvalue\n  dup1\n  iszero\n  tag_5\n  jumpi\n  0x00\n  dup1\n  revert\ntag_5:\n  pop\n  jump(tag_6)\ntag_2:\n  dup3\n  dup1\n  sload\n  tag_7\n  swap1\n  tag_8\n  jump\t// in\ntag_7:\n  swap1\n  0x00\n  mstore\n  keccak256(0x00, 0x20)\n  swap1\n  0x1f\n  add\n  0x20\n  swap1\n  div\n  dup2\n  add\n  swap3\n  dup3\n  tag_10\n  jumpi\n  0x00\n  dup6\n  sstore\n  jump(tag_9)\ntag_10:\n  dup3\n  0x1f\n  lt\n  tag_11\n  jumpi\n  dup1\n  mload\n  not(0xff)\n  and\n  dup4\n  dup1\n  add\n  or\n  dup6\n  sstore\n  jump(tag_9)\ntag_11:\n  dup3\n  dup1\n  add\n  0x01\n  add\n  dup6\n  sstore\n  dup3\n  iszero\n  tag_9\n  jumpi\n  swap2\n  dup3\n  add\ntag_12:\n  dup3\n  dup2\n  gt\n  iszero\n  tag_13\n  jumpi\n  dup3\n  mload\n  dup3\n  sstore\n  swap2\n  0x20\n  add\n  swap2\n  swap1\n  0x01\n  add\n  swap1\n  jump(tag_12)\ntag_13:\ntag_9:\n  pop\n  swap1\n  pop\n  tag_14\n  swap2\n  swap1\n  tag_15\n  jump\t// in\ntag_14:\n  pop\n  swap1\n  jump\t// out\ntag_15:\ntag_16:\n  dup1\n  dup3\n  gt\n  iszero\n  tag_17\n  jumpi\n  0x00\n  dup2\n  0x00\n  swap1\n  sstore\n  pop\n  0x01\n  add\n  jump(tag_16)\ntag_17:\n  pop\n  swap1\n  jump\t// out\n    /* \"#utility.yul\":7:327   */\ntag_8:\n    /* \"#utility.yul\":51:57   */\n  0x00\n    /* \"#utility.yul\":88:89   */\n  0x02\n    /* \"#utility.yul\":82:86   */\n  dup3\n    /* \"#utility.yul\":78:90   */\n  div\n    /* \"#utility.yul\":68:90   */\n  swap1\n  pop\n    /* \"#utility.yul\":135:136   */\n  0x01\n    /* \"#utility.yul\":129:133   */\n  dup3\n    /* \"#utility.yul\":125:137   */\n  and\n    /* \"#utility.yul\":156:174   */\n  dup1\n    /* \"#utility.yul\":146:227   */\n  tag_20\n  jumpi\n    /* \"#utility.yul\":212:216   */\n  0x7f\n    /* \"#utility.yul\":204:210   */\n  dup3\n    /* \"#utility.yul\":200:217   */\n  and\n    /* \"#utility.yul\":190:217   */\n  swap2\n  pop\n    /* \"#utility.yul\":146:227   */\ntag_20:\n    /* \"#utility.yul\":274:276   */\n  0x20\n    /* \"#utility.yul\":266:272   */\n  dup3\n    /* \"#utility.yul\":263:277   */\n  lt\n    /* \"#utility.yul\":243:261   */\n  dup2\n    /* \"#utility.yul\":240:278   */\n  eq\n    /* \"#utility.yul\":237:321   */\n  iszero\n  tag_21\n  jumpi\n    /* \"#utility.yul\":293:311   */\n  tag_22\n  tag_23\n  jump\t// in\ntag_22:\n    /* \"#utility.yul\":237:321   */\ntag_21:\n    /* \"#utility.yul\":58:327   */\n  pop\n    /* \"#utility.yul\":7:327   */\n  swap2\n  swap1\n  pop\n  jump\t// out\n    /* \"#utility.yul\":333:513   */\ntag_23:\n    /* \"#utility.yul\":381:458   */\n  0x4e487b7100000000000000000000000000000000000000000000000000000000\n    /* \"#utility.yul\":378:379   */\n  0x00\n    /* \"#utility.yul\":371:459   */\n  mstore\n    /* \"#utility.yul\":478:482   */\n  0x22\n    /* \"#utility.yul\":475:476   */\n  0x04\n    /* \"#utility.yul\":468:483   */\n  mstore\n    /* \"#utility.yul\":502:506   */\n  0x24\n    /* \"#utility.yul\":499:500   */\n  0x00\n    /* \"#utility.yul\":492:507   */\n  revert\n    /* \"study/chapter07/stirngOpt.sol\":56:311  contract Hello {... */\ntag_6:\n  dataSize(sub_0)\n  dup1\n  dataOffset(sub_0)\n  0x00\n  codecopy\n  0x00\n  return\nstop\n\nsub_0: assembly {\n        /* \"study/chapter07/stirngOpt.sol\":56:311  contract Hello {... */\n      mstore(0x40, 0x80)\n      callvalue\n      dup1\n      iszero\n      tag_1\n      jumpi\n      0x00\n      dup1\n      revert\n    tag_1:\n      pop\n      jumpi(tag_2, lt(calldatasize, 0x04))\n      shr(0xe0, calldataload(0x00))\n      dup1\n      0x09fca94f\n      eq\n      tag_3\n      jumpi\n      dup1\n      0x6cc014de\n      eq\n      tag_4\n      jumpi\n      dup1\n      0x86b714e2\n      eq\n      tag_5\n      jumpi\n      dup1\n      0xcfae3217\n      eq\n      tag_6\n      jumpi\n    tag_2:\n      0x00\n      dup1\n      revert\n        /* \"study/chapter07/stirngOpt.sol\":114:249  function str(string calldata a) public view  returns (string memory){... */\n    tag_3:\n      tag_7\n      0x04\n      dup1\n      calldatasize\n      sub\n      dup2\n      add\n      swap1\n      tag_8\n      swap2\n      swap1\n      tag_9\n      jump\t// in\n    tag_8:\n      tag_10\n      jump\t// in\n    tag_7:\n      mload(0x40)\n      tag_11\n      swap2\n      swap1\n      tag_12\n      jump\t// in\n    tag_11:\n      mload(0x40)\n      dup1\n      swap2\n      sub\n      swap1\n      return\n        /* \"study/chapter07/stirngOpt.sol\":281:303  string public s1 = \"B\" */\n    tag_4:\n      tag_13\n      tag_14\n      jump\t// in\n    tag_13:\n      mload(0x40)\n      tag_15\n      swap2\n      swap1\n      tag_12\n      jump\t// in\n    tag_15:\n      mload(0x40)\n      dup1\n      swap2\n      sub\n      swap1\n      return\n        /* \"study/chapter07/stirngOpt.sol\":254:275  string public s = \"A\" */\n    tag_5:\n      tag_16\n      tag_17\n      jump\t// in\n    tag_16:\n      mload(0x40)\n      tag_18\n      swap2\n      swap1\n      tag_12\n      jump\t// in\n    tag_18:\n      mload(0x40)\n      dup1\n      swap2\n      sub\n      swap1\n      return\n        /* \"study/chapter07/stirngOpt.sol\":77:108  string public greet = \"Hello, \" */\n    tag_6:\n      tag_19\n      tag_20\n      jump\t// in\n    tag_19:\n      mload(0x40)\n      tag_21\n      swap2\n      swap1\n      tag_12\n      jump\t// in\n    tag_21:\n      mload(0x40)\n      dup1\n      swap2\n      sub\n      swap1\n      return\n        /* \"study/chapter07/stirngOpt.sol\":114:249  function str(string calldata a) public view  returns (string memory){... */\n    tag_10:\n        /* \"study/chapter07/stirngOpt.sol\":168:181  string memory */\n      0x60\n        /* \"study/chapter07/stirngOpt.sol\":225:230  greet */\n      0x00\n        /* \"study/chapter07/stirngOpt.sol\":238:239  a */\n      dup4\n      dup4\n        /* \"study/chapter07/stirngOpt.sol\":206:241  bytes.concat(bytes(greet),bytes(a)) */\n      add(0x20, mload(0x40))\n      tag_23\n      swap4\n      swap3\n      swap2\n      swap1\n      tag_24\n      jump\t// in\n    tag_23:\n      mload(0x40)\n      0x20\n      dup2\n      dup4\n      sub\n      sub\n      dup2\n      mstore\n      swap1\n      0x40\n      mstore\n        /* \"study/chapter07/stirngOpt.sol\":192:242  return string(bytes.concat(bytes(greet),bytes(a))) */\n      swap1\n      pop\n        /* \"study/chapter07/stirngOpt.sol\":114:249  function str(string calldata a) public view  returns (string memory){... */\n      swap3\n      swap2\n      pop\n      pop\n      jump\t// out\n        /* \"study/chapter07/stirngOpt.sol\":281:303  string public s1 = \"B\" */\n    tag_14:\n      0x02\n      dup1\n      sload\n      tag_25\n      swap1\n      tag_26\n      jump\t// in\n    tag_25:\n      dup1\n      0x1f\n      add\n      0x20\n      dup1\n      swap2\n      div\n      mul\n      0x20\n      add\n      mload(0x40)\n      swap1\n      dup2\n      add\n      0x40\n      mstore\n      dup1\n      swap3\n      swap2\n      swap1\n      dup2\n      dup2\n      mstore\n      0x20\n      add\n      dup3\n      dup1\n      sload\n      tag_27\n      swap1\n      tag_26\n      jump\t// in\n    tag_27:\n      dup1\n      iszero\n      tag_28\n      jumpi\n      dup1\n      0x1f\n      lt\n      tag_29\n      jumpi\n      0x0100\n      dup1\n      dup4\n      sload\n      div\n      mul\n      dup4\n      mstore\n      swap2\n      0x20\n      add\n      swap2\n      jump(tag_28)\n    tag_29:\n      dup3\n      add\n      swap2\n      swap1\n      0x00\n      mstore\n      keccak256(0x00, 0x20)\n      swap1\n    tag_30:\n      dup2\n      sload\n      dup2\n      mstore\n      swap1\n      0x01\n      add\n      swap1\n      0x20\n      add\n      dup1\n      dup4\n      gt\n      tag_30\n      jumpi\n      dup3\n      swap1\n      sub\n      0x1f\n      and\n      dup3\n      add\n      swap2\n    tag_28:\n      pop\n      pop\n      pop\n      pop\n      pop\n      dup2\n      jump\t// out\n        /* \"study/chapter07/stirngOpt.sol\":254:275  string public s = \"A\" */\n    tag_17:\n      0x01\n      dup1\n      sload\n      tag_31\n      swap1\n      tag_26\n      jump\t// in\n    tag_31:\n      dup1\n      0x1f\n      add\n      0x20\n      dup1\n      swap2\n      div\n      mul\n      0x20\n      add\n      mload(0x40)\n      swap1\n      dup2\n      add\n      0x40\n      mstore\n      dup1\n      swap3\n      swap2\n      swap1\n      dup2\n      dup2\n      mstore\n      0x20\n      add\n      dup3\n      dup1\n      sload\n      tag_32\n      swap1\n      tag_26\n      jump\t// in\n    tag_32:\n      dup1\n      iszero\n      tag_33\n      jumpi\n      dup1\n      0x1f\n      lt\n      tag_34\n      jumpi\n      0x0100\n      dup1\n      dup4\n      sload\n      div\n      mul\n      dup4\n      mstore\n      swap2\n      0x20\n      add\n      swap2\n      jump(tag_33)\n    tag_34:\n      dup3\n      add\n      swap2\n      swap1\n      0x00\n      mstore\n      keccak256(0x00, 0x20)\n      swap1\n    tag_35:\n      dup2\n      sload\n      dup2\n      mstore\n      swap1\n      0x01\n      add\n      swap1\n      0x20\n      add\n      dup1\n      dup4\n      gt\n      tag_35\n      jumpi\n      dup3\n      swap1\n      sub\n      0x1f\n      and\n      dup3\n      add\n      swap2\n    tag_33:\n      pop\n      pop\n      pop\n      pop\n      pop\n      dup2\n      jump\t// out\n        /* \"study/chapter07/stirngOpt.sol\":77:108  string public greet = \"Hello, \" */\n    tag_20:\n      0x00\n      dup1\n      sload\n      tag_36\n      swap1\n      tag_26\n      jump\t// in\n    tag_36:\n      dup1\n      0x1f\n      add\n      0x20\n      dup1\n      swap2\n      div\n      mul\n      0x20\n      add\n      mload(0x40)\n      swap1\n      dup2\n      add\n      0x40\n      mstore\n      dup1\n      swap3\n      swap2\n      swap1\n      dup2\n      dup2\n      mstore\n      0x20\n      add\n      dup3\n      dup1\n      sload\n      tag_37\n      swap1\n      tag_26\n      jump\t// in\n    tag_37:\n      dup1\n      iszero\n      tag_38\n      jumpi\n      dup1\n      0x1f\n      lt\n      tag_39\n      jumpi\n      0x0100\n      dup1\n      dup4\n      sload\n      div\n      mul\n      dup4\n      mstore\n      swap2\n      0x20\n      add\n      swap2\n      jump(tag_38)\n    tag_39:\n      dup3\n      add\n      swap2\n      swap1\n      0x00\n      mstore\n      keccak256(0x00, 0x20)\n      swap1\n    tag_40:\n      dup2\n      sload\n      dup2\n      mstore\n      swap1\n      0x01\n      add\n      swap1\n      0x20\n      add\n      dup1\n      dup4\n      gt\n      tag_40\n      jumpi\n      dup3\n      swap1\n      sub\n      0x1f\n      and\n      dup3\n      add\n      swap2\n    tag_38:\n      pop\n      pop\n      pop\n      pop\n      pop\n      dup2\n      jump\t// out\n        /* \"#utility.yul\":21:574   */\n    tag_42:\n        /* \"#utility.yul\":79:87   */\n      0x00\n        /* \"#utility.yul\":89:95   */\n      dup1\n        /* \"#utility.yul\":139:142   */\n      dup4\n        /* \"#utility.yul\":132:136   */\n      0x1f\n        /* \"#utility.yul\":124:130   */\n      dup5\n        /* \"#utility.yul\":120:137   */\n      add\n        /* \"#utility.yul\":116:143   */\n      slt\n        /* \"#utility.yul\":106:228   */\n      tag_44\n      jumpi\n        /* \"#utility.yul\":147:226   */\n      tag_45\n      tag_46\n      jump\t// in\n    tag_45:\n        /* \"#utility.yul\":106:228   */\n    tag_44:\n        /* \"#utility.yul\":260:266   */\n      dup3\n        /* \"#utility.yul\":247:267   */\n      calldataload\n        /* \"#utility.yul\":237:267   */\n      swap1\n      pop\n        /* \"#utility.yul\":290:308   */\n      0xffffffffffffffff\n        /* \"#utility.yul\":282:288   */\n      dup2\n        /* \"#utility.yul\":279:309   */\n      gt\n        /* \"#utility.yul\":276:393   */\n      iszero\n      tag_47\n      jumpi\n        /* \"#utility.yul\":312:391   */\n      tag_48\n      tag_49\n      jump\t// in\n    tag_48:\n        /* \"#utility.yul\":276:393   */\n    tag_47:\n        /* \"#utility.yul\":426:430   */\n      0x20\n        /* \"#utility.yul\":418:424   */\n      dup4\n        /* \"#utility.yul\":414:431   */\n      add\n        /* \"#utility.yul\":402:431   */\n      swap2\n      pop\n        /* \"#utility.yul\":480:483   */\n      dup4\n        /* \"#utility.yul\":472:476   */\n      0x01\n        /* \"#utility.yul\":464:470   */\n      dup3\n        /* \"#utility.yul\":460:477   */\n      mul\n        /* \"#utility.yul\":450:458   */\n      dup4\n        /* \"#utility.yul\":446:478   */\n      add\n        /* \"#utility.yul\":443:484   */\n      gt\n        /* \"#utility.yul\":440:568   */\n      iszero\n      tag_50\n      jumpi\n        /* \"#utility.yul\":487:566   */\n      tag_51\n      tag_52\n      jump\t// in\n    tag_51:\n        /* \"#utility.yul\":440:568   */\n    tag_50:\n        /* \"#utility.yul\":21:574   */\n      swap3\n      pop\n      swap3\n      swap1\n      pop\n      jump\t// out\n        /* \"#utility.yul\":580:1109   */\n    tag_9:\n        /* \"#utility.yul\":651:657   */\n      0x00\n        /* \"#utility.yul\":659:665   */\n      dup1\n        /* \"#utility.yul\":708:710   */\n      0x20\n        /* \"#utility.yul\":696:705   */\n      dup4\n        /* \"#utility.yul\":687:694   */\n      dup6\n        /* \"#utility.yul\":683:706   */\n      sub\n        /* \"#utility.yul\":679:711   */\n      slt\n        /* \"#utility.yul\":676:795   */\n      iszero\n      tag_54\n      jumpi\n        /* \"#utility.yul\":714:793   */\n      tag_55\n      tag_56\n      jump\t// in\n    tag_55:\n        /* \"#utility.yul\":676:795   */\n    tag_54:\n        /* \"#utility.yul\":862:863   */\n      0x00\n        /* \"#utility.yul\":851:860   */\n      dup4\n        /* \"#utility.yul\":847:864   */\n      add\n        /* \"#utility.yul\":834:865   */\n      calldataload\n        /* \"#utility.yul\":892:910   */\n      0xffffffffffffffff\n        /* \"#utility.yul\":884:890   */\n      dup2\n        /* \"#utility.yul\":881:911   */\n      gt\n        /* \"#utility.yul\":878:995   */\n      iszero\n      tag_57\n      jumpi\n        /* \"#utility.yul\":914:993   */\n      tag_58\n      tag_59\n      jump\t// in\n    tag_58:\n        /* \"#utility.yul\":878:995   */\n    tag_57:\n        /* \"#utility.yul\":1027:1092   */\n      tag_60\n        /* \"#utility.yul\":1084:1091   */\n      dup6\n        /* \"#utility.yul\":1075:1081   */\n      dup3\n        /* \"#utility.yul\":1064:1073   */\n      dup7\n        /* \"#utility.yul\":1060:1082   */\n      add\n        /* \"#utility.yul\":1027:1092   */\n      tag_42\n      jump\t// in\n    tag_60:\n        /* \"#utility.yul\":1009:1092   */\n      swap3\n      pop\n      swap3\n      pop\n        /* \"#utility.yul\":805:1102   */\n      pop\n        /* \"#utility.yul\":580:1109   */\n      swap3\n      pop\n      swap3\n      swap1\n      pop\n      jump\t// out\n        /* \"#utility.yul\":1137:1451   */\n    tag_61:\n        /* \"#utility.yul\":1251:1254   */\n      0x00\n        /* \"#utility.yul\":1272:1360   */\n      tag_63\n        /* \"#utility.yul\":1353:1359   */\n      dup4\n        /* \"#utility.yul\":1348:1351   */\n      dup6\n        /* \"#utility.yul\":1272:1360   */\n      tag_64\n      jump\t// in\n    tag_63:\n        /* \"#utility.yul\":1265:1360   */\n      swap4\n      pop\n        /* \"#utility.yul\":1370:1413   */\n      tag_65\n        /* \"#utility.yul\":1406:1412   */\n      dup4\n        /* \"#utility.yul\":1401:1404   */\n      dup6\n        /* \"#utility.yul\":1394:1399   */\n      dup5\n        /* \"#utility.yul\":1370:1413   */\n      tag_66\n      jump\t// in\n    tag_65:\n        /* \"#utility.yul\":1438:1444   */\n      dup3\n        /* \"#utility.yul\":1433:1436   */\n      dup5\n        /* \"#utility.yul\":1429:1445   */\n      add\n        /* \"#utility.yul\":1422:1445   */\n      swap1\n      pop\n        /* \"#utility.yul\":1137:1451   */\n      swap4\n      swap3\n      pop\n      pop\n      pop\n      jump\t// out\n        /* \"#utility.yul\":1479:2328   */\n    tag_67:\n        /* \"#utility.yul\":1584:1587   */\n      0x00\n        /* \"#utility.yul\":1621:1626   */\n      dup2\n        /* \"#utility.yul\":1615:1627   */\n      sload\n        /* \"#utility.yul\":1650:1686   */\n      tag_69\n        /* \"#utility.yul\":1676:1685   */\n      dup2\n        /* \"#utility.yul\":1650:1686   */\n      tag_26\n      jump\t// in\n    tag_69:\n        /* \"#utility.yul\":1702:1790   */\n      tag_70\n        /* \"#utility.yul\":1783:1789   */\n      dup2\n        /* \"#utility.yul\":1778:1781   */\n      dup7\n        /* \"#utility.yul\":1702:1790   */\n      tag_64\n      jump\t// in\n    tag_70:\n        /* \"#utility.yul\":1695:1790   */\n      swap5\n      pop\n        /* \"#utility.yul\":1821:1822   */\n      0x01\n        /* \"#utility.yul\":1810:1819   */\n      dup3\n        /* \"#utility.yul\":1806:1823   */\n      and\n        /* \"#utility.yul\":1837:1838   */\n      0x00\n        /* \"#utility.yul\":1832:1969   */\n      dup2\n      eq\n      tag_72\n      jumpi\n        /* \"#utility.yul\":1983:1984   */\n      0x01\n        /* \"#utility.yul\":1978:2322   */\n      dup2\n      eq\n      tag_73\n      jumpi\n        /* \"#utility.yul\":1799:2322   */\n      jump(tag_71)\n        /* \"#utility.yul\":1832:1969   */\n    tag_72:\n        /* \"#utility.yul\":1916:1920   */\n      0xff\n        /* \"#utility.yul\":1912:1921   */\n      not\n        /* \"#utility.yul\":1901:1910   */\n      dup4\n        /* \"#utility.yul\":1897:1922   */\n      and\n        /* \"#utility.yul\":1892:1895   */\n      dup7\n        /* \"#utility.yul\":1885:1923   */\n      mstore\n        /* \"#utility.yul\":1952:1958   */\n      dup2\n        /* \"#utility.yul\":1947:1950   */\n      dup7\n        /* \"#utility.yul\":1943:1959   */\n      add\n        /* \"#utility.yul\":1936:1959   */\n      swap4\n      pop\n        /* \"#utility.yul\":1832:1969   */\n      jump(tag_71)\n        /* \"#utility.yul\":1978:2322   */\n    tag_73:\n        /* \"#utility.yul\":2045:2086   */\n      tag_74\n        /* \"#utility.yul\":2080:2085   */\n      dup6\n        /* \"#utility.yul\":2045:2086   */\n      tag_75\n      jump\t// in\n    tag_74:\n        /* \"#utility.yul\":2108:2109   */\n      0x00\n        /* \"#utility.yul\":2122:2276   */\n    tag_76:\n        /* \"#utility.yul\":2136:2142   */\n      dup4\n        /* \"#utility.yul\":2133:2134   */\n      dup2\n        /* \"#utility.yul\":2130:2143   */\n      lt\n        /* \"#utility.yul\":2122:2276   */\n      iszero\n      tag_78\n      jumpi\n        /* \"#utility.yul\":2210:2217   */\n      dup2\n        /* \"#utility.yul\":2204:2218   */\n      sload\n        /* \"#utility.yul\":2200:2201   */\n      dup2\n        /* \"#utility.yul\":2195:2198   */\n      dup10\n        /* \"#utility.yul\":2191:2202   */\n      add\n        /* \"#utility.yul\":2184:2219   */\n      mstore\n        /* \"#utility.yul\":2260:2261   */\n      0x01\n        /* \"#utility.yul\":2251:2258   */\n      dup3\n        /* \"#utility.yul\":2247:2262   */\n      add\n        /* \"#utility.yul\":2236:2262   */\n      swap2\n      pop\n        /* \"#utility.yul\":2158:2162   */\n      0x20\n        /* \"#utility.yul\":2155:2156   */\n      dup2\n        /* \"#utility.yul\":2151:2163   */\n      add\n        /* \"#utility.yul\":2146:2163   */\n      swap1\n      pop\n        /* \"#utility.yul\":2122:2276   */\n      jump(tag_76)\n    tag_78:\n        /* \"#utility.yul\":2305:2311   */\n      dup4\n        /* \"#utility.yul\":2300:2303   */\n      dup9\n        /* \"#utility.yul\":2296:2312   */\n      add\n        /* \"#utility.yul\":2289:2312   */\n      swap6\n      pop\n        /* \"#utility.yul\":1985:2322   */\n      pop\n      pop\n        /* \"#utility.yul\":1799:2322   */\n    tag_71:\n      pop\n        /* \"#utility.yul\":1588:2328   */\n      pop\n      pop\n        /* \"#utility.yul\":1479:2328   */\n      swap3\n      swap2\n      pop\n      pop\n      jump\t// out\n        /* \"#utility.yul\":2334:2698   */\n    tag_79:\n        /* \"#utility.yul\":2422:2425   */\n      0x00\n        /* \"#utility.yul\":2450:2489   */\n      tag_81\n        /* \"#utility.yul\":2483:2488   */\n      dup3\n        /* \"#utility.yul\":2450:2489   */\n      tag_82\n      jump\t// in\n    tag_81:\n        /* \"#utility.yul\":2505:2576   */\n      tag_83\n        /* \"#utility.yul\":2569:2575   */\n      dup2\n        /* \"#utility.yul\":2564:2567   */\n      dup6\n        /* \"#utility.yul\":2505:2576   */\n      tag_84\n      jump\t// in\n    tag_83:\n        /* \"#utility.yul\":2498:2576   */\n      swap4\n      pop\n        /* \"#utility.yul\":2585:2637   */\n      tag_85\n        /* \"#utility.yul\":2630:2636   */\n      dup2\n        /* \"#utility.yul\":2625:2628   */\n      dup6\n        /* \"#utility.yul\":2618:2622   */\n      0x20\n        /* \"#utility.yul\":2611:2616   */\n      dup7\n        /* \"#utility.yul\":2607:2623   */\n      add\n        /* \"#utility.yul\":2585:2637   */\n      tag_86\n      jump\t// in\n    tag_85:\n        /* \"#utility.yul\":2662:2691   */\n      tag_87\n        /* \"#utility.yul\":2684:2690   */\n      dup2\n        /* \"#utility.yul\":2662:2691   */\n      tag_88\n      jump\t// in\n    tag_87:\n        /* \"#utility.yul\":2657:2660   */\n      dup5\n        /* \"#utility.yul\":2653:2692   */\n      add\n        /* \"#utility.yul\":2646:2692   */\n      swap2\n      pop\n        /* \"#utility.yul\":2426:2698   */\n      pop\n        /* \"#utility.yul\":2334:2698   */\n      swap3\n      swap2\n      pop\n      pop\n      jump\t// out\n        /* \"#utility.yul\":2704:3153   */\n    tag_24:\n        /* \"#utility.yul\":2891:2894   */\n      0x00\n        /* \"#utility.yul\":2913:3007   */\n      tag_90\n        /* \"#utility.yul\":3003:3006   */\n      dup3\n        /* \"#utility.yul\":2994:3000   */\n      dup7\n        /* \"#utility.yul\":2913:3007   */\n      tag_67\n      jump\t// in\n    tag_90:\n        /* \"#utility.yul\":2906:3007   */\n      swap2\n      pop\n        /* \"#utility.yul\":3024:3127   */\n      tag_91\n        /* \"#utility.yul\":3123:3126   */\n      dup3\n        /* \"#utility.yul\":3114:3120   */\n      dup5\n        /* \"#utility.yul\":3106:3112   */\n      dup7\n        /* \"#utility.yul\":3024:3127   */\n      tag_61\n      jump\t// in\n    tag_91:\n        /* \"#utility.yul\":3017:3127   */\n      swap2\n      pop\n        /* \"#utility.yul\":3144:3147   */\n      dup2\n        /* \"#utility.yul\":3137:3147   */\n      swap1\n      pop\n        /* \"#utility.yul\":2704:3153   */\n      swap5\n      swap4\n      pop\n      pop\n      pop\n      pop\n      jump\t// out\n        /* \"#utility.yul\":3159:3472   */\n    tag_12:\n        /* \"#utility.yul\":3272:3276   */\n      0x00\n        /* \"#utility.yul\":3310:3312   */\n      0x20\n        /* \"#utility.yul\":3299:3308   */\n      dup3\n        /* \"#utility.yul\":3295:3313   */\n      add\n        /* \"#utility.yul\":3287:3313   */\n      swap1\n      pop\n        /* \"#utility.yul\":3359:3368   */\n      dup2\n        /* \"#utility.yul\":3353:3357   */\n      dup2\n        /* \"#utility.yul\":3349:3369   */\n      sub\n        /* \"#utility.yul\":3345:3346   */\n      0x00\n        /* \"#utility.yul\":3334:3343   */\n      dup4\n        /* \"#utility.yul\":3330:3347   */\n      add\n        /* \"#utility.yul\":3323:3370   */\n      mstore\n        /* \"#utility.yul\":3387:3465   */\n      tag_93\n        /* \"#utility.yul\":3460:3464   */\n      dup2\n        /* \"#utility.yul\":3451:3457   */\n      dup5\n        /* \"#utility.yul\":3387:3465   */\n      tag_79\n      jump\t// in\n    tag_93:\n        /* \"#utility.yul\":3379:3465   */\n      swap1\n      pop\n        /* \"#utility.yul\":3159:3472   */\n      swap3\n      swap2\n      pop\n      pop\n      jump\t// out\n        /* \"#utility.yul\":3559:3703   */\n    tag_75:\n        /* \"#utility.yul\":3611:3615   */\n      0x00\n        /* \"#utility.yul\":3634:3637   */\n      dup2\n        /* \"#utility.yul\":3626:3637   */\n      swap1\n      pop\n        /* \"#utility.yul\":3657:3660   */\n      dup2\n        /* \"#utility.yul\":3654:3655   */\n      0x00\n        /* \"#utility.yul\":3647:3661   */\n      mstore\n        /* \"#utility.yul\":3691:3695   */\n      0x20\n        /* \"#utility.yul\":3688:3689   */\n      0x00\n        /* \"#utility.yul\":3678:3696   */\n      keccak256\n        /* \"#utility.yul\":3670:3696   */\n      swap1\n      pop\n        /* \"#utility.yul\":3559:3703   */\n      swap2\n      swap1\n      pop\n      jump\t// out\n        /* \"#utility.yul\":3709:3808   */\n    tag_82:\n        /* \"#utility.yul\":3761:3767   */\n      0x00\n        /* \"#utility.yul\":3795:3800   */\n      dup2\n        /* \"#utility.yul\":3789:3801   */\n      mload\n        /* \"#utility.yul\":3779:3801   */\n      swap1\n      pop\n        /* \"#utility.yul\":3709:3808   */\n      swap2\n      swap1\n      pop\n      jump\t// out\n        /* \"#utility.yul\":3814:3961   */\n    tag_64:\n        /* \"#utility.yul\":3915:3926   */\n      0x00\n        /* \"#utility.yul\":3952:3955   */\n      dup2\n        /* \"#utility.yul\":3937:3955   */\n      swap1\n      pop\n        /* \"#utility.yul\":3814:3961   */\n      swap3\n      swap2\n      pop\n      pop\n      jump\t// out\n        /* \"#utility.yul\":3967:4136   */\n    tag_84:\n        /* \"#utility.yul\":4051:4062   */\n      0x00\n        /* \"#utility.yul\":4085:4091   */\n      dup3\n        /* \"#utility.yul\":4080:4083   */\n      dup3\n        /* \"#utility.yul\":4073:4092   */\n      mstore\n        /* \"#utility.yul\":4125:4129   */\n      0x20\n        /* \"#utility.yul\":4120:4123   */\n      dup3\n        /* \"#utility.yul\":4116:4130   */\n      add\n        /* \"#utility.yul\":4101:4130   */\n      swap1\n      pop\n        /* \"#utility.yul\":3967:4136   */\n      swap3\n      swap2\n      pop\n      pop\n      jump\t// out\n        /* \"#utility.yul\":4142:4296   */\n    tag_66:\n        /* \"#utility.yul\":4226:4232   */\n      dup3\n        /* \"#utility.yul\":4221:4224   */\n      dup2\n        /* \"#utility.yul\":4216:4219   */\n      dup4\n        /* \"#utility.yul\":4203:4233   */\n      calldatacopy\n        /* \"#utility.yul\":4288:4289   */\n      0x00\n        /* \"#utility.yul\":4279:4285   */\n      dup4\n        /* \"#utility.yul\":4274:4277   */\n      dup4\n        /* \"#utility.yul\":4270:4286   */\n      add\n        /* \"#utility.yul\":4263:4290   */\n      mstore\n        /* \"#utility.yul\":4142:4296   */\n      pop\n      pop\n      pop\n      jump\t// out\n        /* \"#utility.yul\":4302:4609   */\n    tag_86:\n        /* \"#utility.yul\":4370:4371   */\n      0x00\n        /* \"#utility.yul\":4380:4493   */\n    tag_102:\n        /* \"#utility.yul\":4394:4400   */\n      dup4\n        /* \"#utility.yul\":4391:4392   */\n      dup2\n        /* \"#utility.yul\":4388:4401   */\n      lt\n        /* \"#utility.yul\":4380:4493   */\n      iszero\n      tag_104\n      jumpi\n        /* \"#utility.yul\":4479:4480   */\n      dup1\n        /* \"#utility.yul\":4474:4477   */\n      dup3\n        /* \"#utility.yul\":4470:4481   */\n      add\n        /* \"#utility.yul\":4464:4482   */\n      mload\n        /* \"#utility.yul\":4460:4461   */\n      dup2\n        /* \"#utility.yul\":4455:4458   */\n      dup5\n        /* \"#utility.yul\":4451:4462   */\n      add\n        /* \"#utility.yul\":4444:4483   */\n      mstore\n        /* \"#utility.yul\":4416:4418   */\n      0x20\n        /* \"#utility.yul\":4413:4414   */\n      dup2\n        /* \"#utility.yul\":4409:4419   */\n      add\n        /* \"#utility.yul\":4404:4419   */\n      swap1\n      pop\n        /* \"#utility.yul\":4380:4493   */\n      jump(tag_102)\n    tag_104:\n        /* \"#utility.yul\":4511:4517   */\n      dup4\n        /* \"#utility.yul\":4508:4509   */\n      dup2\n        /* \"#utility.yul\":4505:4518   */\n      gt\n        /* \"#utility.yul\":4502:4603   */\n      iszero\n      tag_105\n      jumpi\n        /* \"#utility.yul\":4591:4592   */\n      0x00\n        /* \"#utility.yul\":4582:4588   */\n      dup5\n        /* \"#utility.yul\":4577:4580   */\n      dup5\n        /* \"#utility.yul\":4573:4589   */\n      add\n        /* \"#utility.yul\":4566:4593   */\n      mstore\n        /* \"#utility.yul\":4502:4603   */\n    tag_105:\n        /* \"#utility.yul\":4351:4609   */\n      pop\n        /* \"#utility.yul\":4302:4609   */\n      pop\n      pop\n      pop\n      jump\t// out\n        /* \"#utility.yul\":4615:4935   */\n    tag_26:\n        /* \"#utility.yul\":4659:4665   */\n      0x00\n        /* \"#utility.yul\":4696:4697   */\n      0x02\n        /* \"#utility.yul\":4690:4694   */\n      dup3\n        /* \"#utility.yul\":4686:4698   */\n      div\n        /* \"#utility.yul\":4676:4698   */\n      swap1\n      pop\n        /* \"#utility.yul\":4743:4744   */\n      0x01\n        /* \"#utility.yul\":4737:4741   */\n      dup3\n        /* \"#utility.yul\":4733:4745   */\n      and\n        /* \"#utility.yul\":4764:4782   */\n      dup1\n        /* \"#utility.yul\":4754:4835   */\n      tag_107\n      jumpi\n        /* \"#utility.yul\":4820:4824   */\n      0x7f\n        /* \"#utility.yul\":4812:4818   */\n      dup3\n        /* \"#utility.yul\":4808:4825   */\n      and\n        /* \"#utility.yul\":4798:4825   */\n      swap2\n      pop\n        /* \"#utility.yul\":4754:4835   */\n    tag_107:\n        /* \"#utility.yul\":4882:4884   */\n      0x20\n        /* \"#utility.yul\":4874:4880   */\n      dup3\n        /* \"#utility.yul\":4871:4885   */\n      lt\n        /* \"#utility.yul\":4851:4869   */\n      dup2\n        /* \"#utility.yul\":4848:4886   */\n      eq\n        /* \"#utility.yul\":4845:4929   */\n      iszero\n      tag_108\n      jumpi\n        /* \"#utility.yul\":4901:4919   */\n      tag_109\n      tag_110\n      jump\t// in\n    tag_109:\n        /* \"#utility.yul\":4845:4929   */\n    tag_108:\n        /* \"#utility.yul\":4666:4935   */\n      pop\n        /* \"#utility.yul\":4615:4935   */\n      swap2\n      swap1\n      pop\n      jump\t// out\n        /* \"#utility.yul\":4941:5121   */\n    tag_110:\n        /* \"#utility.yul\":4989:5066   */\n      0x4e487b7100000000000000000000000000000000000000000000000000000000\n        /* \"#utility.yul\":4986:4987   */\n      0x00\n        /* \"#utility.yul\":4979:5067   */\n      mstore\n        /* \"#utility.yul\":5086:5090   */\n      0x22\n        /* \"#utility.yul\":5083:5084   */\n      0x04\n        /* \"#utility.yul\":5076:5091   */\n      mstore\n        /* \"#utility.yul\":5110:5114   */\n      0x24\n        /* \"#utility.yul\":5107:5108   */\n      0x00\n        /* \"#utility.yul\":5100:5115   */\n      revert\n        /* \"#utility.yul\":5127:5244   */\n    tag_49:\n        /* \"#utility.yul\":5236:5237   */\n      0x00\n        /* \"#utility.yul\":5233:5234   */\n      dup1\n        /* \"#utility.yul\":5226:5238   */\n      revert\n        /* \"#utility.yul\":5250:5367   */\n    tag_46:\n        /* \"#utility.yul\":5359:5360   */\n      0x00\n        /* \"#utility.yul\":5356:5357   */\n      dup1\n        /* \"#utility.yul\":5349:5361   */\n      revert\n        /* \"#utility.yul\":5373:5490   */\n    tag_52:\n        /* \"#utility.yul\":5482:5483   */\n      0x00\n        /* \"#utility.yul\":5479:5480   */\n      dup1\n        /* \"#utility.yul\":5472:5484   */\n      revert\n        /* \"#utility.yul\":5496:5613   */\n    tag_59:\n        /* \"#utility.yul\":5605:5606   */\n      0x00\n        /* \"#utility.yul\":5602:5603   */\n      dup1\n        /* \"#utility.yul\":5595:5607   */\n      revert\n        /* \"#utility.yul\":5619:5736   */\n    tag_56:\n        /* \"#utility.yul\":5728:5729   */\n      0x00\n        /* \"#utility.yul\":5725:5726   */\n      dup1\n        /* \"#utility.yul\":5718:5730   */\n      revert\n        /* \"#utility.yul\":5742:5844   */\n    tag_88:\n        /* \"#utility.yul\":5783:5789   */\n      0x00\n        /* \"#utility.yul\":5834:5836   */\n      0x1f\n        /* \"#utility.yul\":5830:5837   */\n      not\n        /* \"#utility.yul\":5825:5827   */\n      0x1f\n        /* \"#utility.yul\":5818:5823   */\n      dup4\n        /* \"#utility.yul\":5814:5828   */\n      add\n        /* \"#utility.yul\":5810:5838   */\n      and\n        /* \"#utility.yul\":5800:5838   */\n      swap1\n      pop\n        /* \"#utility.yul\":5742:5844   */\n      swap2\n      swap1\n      pop\n      jump\t// out\n\n    auxdata: 0xa2646970667358221220a74b797b3387c466faf874bcf3839c076f852605a31b9ae5793ca6b049a83d0164736f6c63430008070033\n}\n",
				"bytecode": {
					"linkReferences": {},
					"object": "60806040526040518060400160405280600781526020017f48656c6c6f2c20000000000000000000000000000000000000000000000000008152506000908051906020019061004f9291906100fa565b506040518060400160405280600181526020017f41000000000000000000000000000000000000000000000000000000000000008152506001908051906020019061009b9291906100fa565b506040518060400160405280600181526020017f4200000000000000000000000000000000000000000000000000000000000000815250600290805190602001906100e79291906100fa565b503480156100f457600080fd5b506101fe565b8280546101069061019d565b90600052602060002090601f016020900481019282610128576000855561016f565b82601f1061014157805160ff191683800117855561016f565b8280016001018555821561016f579182015b8281111561016e578251825591602001919060010190610153565b5b50905061017c9190610180565b5090565b5b80821115610199576000816000905550600101610181565b5090565b600060028204905060018216806101b557607f821691505b602082108114156101c9576101c86101cf565b5b50919050565b7f4e487b7100000000000000000000000000000000000000000000000000000000600052602260045260246000fd5b6105bb8061020d6000396000f3fe608060405234801561001057600080fd5b506004361061004c5760003560e01c806309fca94f146100515780636cc014de1461008157806386b714e21461009f578063cfae3217146100bd575b600080fd5b61006b6004803603810190610066919061030a565b6100db565b604051610078919061045a565b60405180910390f35b61008961010a565b604051610096919061045a565b60405180910390f35b6100a7610198565b6040516100b4919061045a565b60405180910390f35b6100c5610226565b6040516100d2919061045a565b60405180910390f35b6060600083836040516020016100f393929190610434565b604051602081830303815290604052905092915050565b60028054610117906104fa565b80601f0160208091040260200160405190810160405280929190818152602001828054610143906104fa565b80156101905780601f1061016557610100808354040283529160200191610190565b820191906000526020600020905b81548152906001019060200180831161017357829003601f168201915b505050505081565b600180546101a5906104fa565b80601f01602080910402602001604051908101604052809291908181526020018280546101d1906104fa565b801561021e5780601f106101f35761010080835404028352916020019161021e565b820191906000526020600020905b81548152906001019060200180831161020157829003601f168201915b505050505081565b60008054610233906104fa565b80601f016020809104026020016040519081016040528092919081815260200182805461025f906104fa565b80156102ac5780601f10610281576101008083540402835291602001916102ac565b820191906000526020600020905b81548152906001019060200180831161028f57829003601f168201915b505050505081565b60008083601f8401126102ca576102c9610560565b5b8235905067ffffffffffffffff8111156102e7576102e661055b565b5b60208301915083600182028301111561030357610302610565565b5b9250929050565b600080602083850312156103215761032061056f565b5b600083013567ffffffffffffffff81111561033f5761033e61056a565b5b61034b858286016102b4565b92509250509250929050565b6000610363838561049c565b93506103708385846104b8565b82840190509392505050565b60008154610389816104fa565b610393818661049c565b945060018216600081146103ae57600181146103bf576103f2565b60ff198316865281860193506103f2565b6103c88561047c565b60005b838110156103ea578154818901526001820191506020810190506103cb565b838801955050505b50505092915050565b600061040682610491565b61041081856104a7565b93506104208185602086016104c7565b61042981610574565b840191505092915050565b6000610440828661037c565b915061044d828486610357565b9150819050949350505050565b6000602082019050818103600083015261047481846103fb565b905092915050565b60008190508160005260206000209050919050565b600081519050919050565b600081905092915050565b600082825260208201905092915050565b82818337600083830152505050565b60005b838110156104e55780820151818401526020810190506104ca565b838111156104f4576000848401525b50505050565b6000600282049050600182168061051257607f821691505b602082108114156105265761052561052c565b5b50919050565b7f4e487b7100000000000000000000000000000000000000000000000000000000600052602260045260246000fd5b600080fd5b600080fd5b600080fd5b600080fd5b600080fd5b6000601f19601f830116905091905056fea2646970667358221220a74b797b3387c466faf874bcf3839c076f852605a31b9ae5793ca6b049a83d0164736f6c63430008070033",
					"opcodes": "PUSH1 0x80 PUSH1 0x40 MSTORE PUSH1 0x40 MLOAD DUP1 PUSH1 0x40 ADD PUSH1 0x40 MSTORE DUP1 PUSH1 0x7 DUP2 MSTORE PUSH1 0x20 ADD PUSH32 0x48656C6C6F2C2000000000000000000000000000000000000000000000000000 DUP2 MSTORE POP PUSH1 0x0 SWAP1 DUP1 MLOAD SWAP1 PUSH1 0x20 ADD SWAP1 PUSH2 0x4F SWAP3 SWAP2 SWAP1 PUSH2 0xFA JUMP JUMPDEST POP PUSH1 0x40 MLOAD DUP1 PUSH1 0x40 ADD PUSH1 0x40 MSTORE DUP1 PUSH1 0x1 DUP2 MSTORE PUSH1 0x20 ADD PUSH32 0x4100000000000000000000000000000000000000000000000000000000000000 DUP2 MSTORE POP PUSH1 0x1 SWAP1 DUP1 MLOAD SWAP1 PUSH1 0x20 ADD SWAP1 PUSH2 0x9B SWAP3 SWAP2 SWAP1 PUSH2 0xFA JUMP JUMPDEST POP PUSH1 0x40 MLOAD DUP1 PUSH1 0x40 ADD PUSH1 0x40 MSTORE DUP1 PUSH1 0x1 DUP2 MSTORE PUSH1 0x20 ADD PUSH32 0x4200000000000000000000000000000000000000000000000000000000000000 DUP2 MSTORE POP PUSH1 0x2 SWAP1 DUP1 MLOAD SWAP1 PUSH1 0x20 ADD SWAP1 PUSH2 0xE7 SWAP3 SWAP2 SWAP1 PUSH2 0xFA JUMP JUMPDEST POP CALLVALUE DUP1 ISZERO PUSH2 0xF4 JUMPI PUSH1 0x0 DUP1 REVERT JUMPDEST POP PUSH2 0x1FE JUMP JUMPDEST DUP3 DUP1 SLOAD PUSH2 0x106 SWAP1 PUSH2 0x19D JUMP JUMPDEST SWAP1 PUSH1 0x0 MSTORE PUSH1 0x20 PUSH1 0x0 KECCAK256 SWAP1 PUSH1 0x1F ADD PUSH1 0x20 SWAP1 DIV DUP2 ADD SWAP3 DUP3 PUSH2 0x128 JUMPI PUSH1 0x0 DUP6 SSTORE PUSH2 0x16F JUMP JUMPDEST DUP3 PUSH1 0x1F LT PUSH2 0x141 JUMPI DUP1 MLOAD PUSH1 0xFF NOT AND DUP4 DUP1 ADD OR DUP6 SSTORE PUSH2 0x16F JUMP JUMPDEST DUP3 DUP1 ADD PUSH1 0x1 ADD DUP6 SSTORE DUP3 ISZERO PUSH2 0x16F JUMPI SWAP2 DUP3 ADD JUMPDEST DUP3 DUP2 GT ISZERO PUSH2 0x16E JUMPI DUP3 MLOAD DUP3 SSTORE SWAP2 PUSH1 0x20 ADD SWAP2 SWAP1 PUSH1 0x1 ADD SWAP1 PUSH2 0x153 JUMP JUMPDEST JUMPDEST POP SWAP1 POP PUSH2 0x17C SWAP2 SWAP1 PUSH2 0x180 JUMP JUMPDEST POP SWAP1 JUMP JUMPDEST JUMPDEST DUP1 DUP3 GT ISZERO PUSH2 0x199 JUMPI PUSH1 0x0 DUP2 PUSH1 0x0 SWAP1 SSTORE POP PUSH1 0x1 ADD PUSH2 0x181 JUMP JUMPDEST POP SWAP1 JUMP JUMPDEST PUSH1 0x0 PUSH1 0x2 DUP3 DIV SWAP1 POP PUSH1 0x1 DUP3 AND DUP1 PUSH2 0x1B5 JUMPI PUSH1 0x7F DUP3 AND SWAP2 POP JUMPDEST PUSH1 0x20 DUP3 LT DUP2 EQ ISZERO PUSH2 0x1C9 JUMPI PUSH2 0x1C8 PUSH2 0x1CF JUMP JUMPDEST JUMPDEST POP SWAP2 SWAP1 POP JUMP JUMPDEST PUSH32 0x4E487B7100000000000000000000000000000000000000000000000000000000 PUSH1 0x0 MSTORE PUSH1 0x22 PUSH1 0x4 MSTORE PUSH1 0x24 PUSH1 0x0 REVERT JUMPDEST PUSH2 0x5BB DUP1 PUSH2 0x20D PUSH1 0x0 CODECOPY PUSH1 0x0 RETURN INVALID PUSH1 0x80 PUSH1 0x40 MSTORE CALLVALUE DUP1 ISZERO PUSH2 0x10 JUMPI PUSH1 0x0 DUP1 REVERT JUMPDEST POP PUSH1 0x4 CALLDATASIZE LT PUSH2 0x4C JUMPI PUSH1 0x0 CALLDATALOAD PUSH1 0xE0 SHR DUP1 PUSH4 0x9FCA94F EQ PUSH2 0x51 JUMPI DUP1 PUSH4 0x6CC014DE EQ PUSH2 0x81 JUMPI DUP1 PUSH4 0x86B714E2 EQ PUSH2 0x9F JUMPI DUP1 PUSH4 0xCFAE3217 EQ PUSH2 0xBD JUMPI JUMPDEST PUSH1 0x0 DUP1 REVERT JUMPDEST PUSH2 0x6B PUSH1 0x4 DUP1 CALLDATASIZE SUB DUP2 ADD SWAP1 PUSH2 0x66 SWAP2 SWAP1 PUSH2 0x30A JUMP JUMPDEST PUSH2 0xDB JUMP JUMPDEST PUSH1 0x40 MLOAD PUSH2 0x78 SWAP2 SWAP1 PUSH2 0x45A JUMP JUMPDEST PUSH1 0x40 MLOAD DUP1 SWAP2 SUB SWAP1 RETURN JUMPDEST PUSH2 0x89 PUSH2 0x10A JUMP JUMPDEST PUSH1 0x40 MLOAD PUSH2 0x96 SWAP2 SWAP1 PUSH2 0x45A JUMP JUMPDEST PUSH1 0x40 MLOAD DUP1 SWAP2 SUB SWAP1 RETURN JUMPDEST PUSH2 0xA7 PUSH2 0x198 JUMP JUMPDEST PUSH1 0x40 MLOAD PUSH2 0xB4 SWAP2 SWAP1 PUSH2 0x45A JUMP JUMPDEST PUSH1 0x40 MLOAD DUP1 SWAP2 SUB SWAP1 RETURN JUMPDEST PUSH2 0xC5 PUSH2 0x226 JUMP JUMPDEST PUSH1 0x40 MLOAD PUSH2 0xD2 SWAP2 SWAP1 PUSH2 0x45A JUMP JUMPDEST PUSH1 0x40 MLOAD DUP1 SWAP2 SUB SWAP1 RETURN JUMPDEST PUSH1 0x60 PUSH1 0x0 DUP4 DUP4 PUSH1 0x40 MLOAD PUSH1 0x20 ADD PUSH2 0xF3 SWAP4 SWAP3 SWAP2 SWAP1 PUSH2 0x434 JUMP JUMPDEST PUSH1 0x40 MLOAD PUSH1 0x20 DUP2 DUP4 SUB SUB DUP2 MSTORE SWAP1 PUSH1 0x40 MSTORE SWAP1 POP SWAP3 SWAP2 POP POP JUMP JUMPDEST PUSH1 0x2 DUP1 SLOAD PUSH2 0x117 SWAP1 PUSH2 0x4FA JUMP JUMPDEST DUP1 PUSH1 0x1F ADD PUSH1 0x20 DUP1 SWAP2 DIV MUL PUSH1 0x20 ADD PUSH1 0x40 MLOAD SWAP1 DUP2 ADD PUSH1 0x40 MSTORE DUP1 SWAP3 SWAP2 SWAP1 DUP2 DUP2 MSTORE PUSH1 0x20 ADD DUP3 DUP1 SLOAD PUSH2 0x143 SWAP1 PUSH2 0x4FA JUMP JUMPDEST DUP1 ISZERO PUSH2 0x190 JUMPI DUP1 PUSH1 0x1F LT PUSH2 0x165 JUMPI PUSH2 0x100 DUP1 DUP4 SLOAD DIV MUL DUP4 MSTORE SWAP2 PUSH1 0x20 ADD SWAP2 PUSH2 0x190 JUMP JUMPDEST DUP3 ADD SWAP2 SWAP1 PUSH1 0x0 MSTORE PUSH1 0x20 PUSH1 0x0 KECCAK256 SWAP1 JUMPDEST DUP2 SLOAD DUP2 MSTORE SWAP1 PUSH1 0x1 ADD SWAP1 PUSH1 0x20 ADD DUP1 DUP4 GT PUSH2 0x173 JUMPI DUP3 SWAP1 SUB PUSH1 0x1F AND DUP3 ADD SWAP2 JUMPDEST POP POP POP POP POP DUP2 JUMP JUMPDEST PUSH1 0x1 DUP1 SLOAD PUSH2 0x1A5 SWAP1 PUSH2 0x4FA JUMP JUMPDEST DUP1 PUSH1 0x1F ADD PUSH1 0x20 DUP1 SWAP2 DIV MUL PUSH1 0x20 ADD PUSH1 0x40 MLOAD SWAP1 DUP2 ADD PUSH1 0x40 MSTORE DUP1 SWAP3 SWAP2 SWAP1 DUP2 DUP2 MSTORE PUSH1 0x20 ADD DUP3 DUP1 SLOAD PUSH2 0x1D1 SWAP1 PUSH2 0x4FA JUMP JUMPDEST DUP1 ISZERO PUSH2 0x21E JUMPI DUP1 PUSH1 0x1F LT PUSH2 0x1F3 JUMPI PUSH2 0x100 DUP1 DUP4 SLOAD DIV MUL DUP4 MSTORE SWAP2 PUSH1 0x20 ADD SWAP2 PUSH2 0x21E JUMP JUMPDEST DUP3 ADD SWAP2 SWAP1 PUSH1 0x0 MSTORE PUSH1 0x20 PUSH1 0x0 KECCAK256 SWAP1 JUMPDEST DUP2 SLOAD DUP2 MSTORE SWAP1 PUSH1 0x1 ADD SWAP1 PUSH1 0x20 ADD DUP1 DUP4 GT PUSH2 0x201 JUMPI DUP3 SWAP1 SUB PUSH1 0x1F AND DUP3 ADD SWAP2 JUMPDEST POP POP POP POP POP DUP2 JUMP JUMPDEST PUSH1 0x0 DUP1 SLOAD PUSH2 0x233 SWAP1 PUSH2 0x4FA JUMP JUMPDEST DUP1 PUSH1 0x1F ADD PUSH1 0x20 DUP1 SWAP2 DIV MUL PUSH1 0x20 ADD PUSH1 0x40 MLOAD SWAP1 DUP2 ADD PUSH1 0x40 MSTORE DUP1 SWAP3 SWAP2 SWAP1 DUP2 DUP2 MSTORE PUSH1 0x20 ADD DUP3 DUP1 SLOAD PUSH2 0x25F SWAP1 PUSH2 0x4FA JUMP JUMPDEST DUP1 ISZERO PUSH2 0x2AC JUMPI DUP1 PUSH1 0x1F LT PUSH2 0x281 JUMPI PUSH2 0x100 DUP1 DUP4 SLOAD DIV MUL DUP4 MSTORE SWAP2 PUSH1 0x20 ADD SWAP2 PUSH2 0x2AC JUMP JUMPDEST DUP3 ADD SWAP2 SWAP1 PUSH1 0x0 MSTORE PUSH1 0x20 PUSH1 0x0 KECCAK256 SWAP1 JUMPDEST DUP2 SLOAD DUP2 MSTORE SWAP1 PUSH1 0x1 ADD SWAP1 PUSH1 0x20 ADD DUP1 DUP4 GT PUSH2 0x28F JUMPI DUP3 SWAP1 SUB PUSH1 0x1F AND DUP3 ADD SWAP2 JUMPDEST POP POP POP POP POP DUP2 JUMP JUMPDEST PUSH1 0x0 DUP1 DUP4 PUSH1 0x1F DUP5 ADD SLT PUSH2 0x2CA JUMPI PUSH2 0x2C9 PUSH2 0x560 JUMP JUMPDEST JUMPDEST DUP3 CALLDATALOAD SWAP1 POP PUSH8 0xFFFFFFFFFFFFFFFF DUP2 GT ISZERO PUSH2 0x2E7 JUMPI PUSH2 0x2E6 PUSH2 0x55B JUMP JUMPDEST JUMPDEST PUSH1 0x20 DUP4 ADD SWAP2 POP DUP4 PUSH1 0x1 DUP3 MUL DUP4 ADD GT ISZERO PUSH2 0x303 JUMPI PUSH2 0x302 PUSH2 0x565 JUMP JUMPDEST JUMPDEST SWAP3 POP SWAP3 SWAP1 POP JUMP JUMPDEST PUSH1 0x0 DUP1 PUSH1 0x20 DUP4 DUP6 SUB SLT ISZERO PUSH2 0x321 JUMPI PUSH2 0x320 PUSH2 0x56F JUMP JUMPDEST JUMPDEST PUSH1 0x0 DUP4 ADD CALLDATALOAD PUSH8 0xFFFFFFFFFFFFFFFF DUP2 GT ISZERO PUSH2 0x33F JUMPI PUSH2 0x33E PUSH2 0x56A JUMP JUMPDEST JUMPDEST PUSH2 0x34B DUP6 DUP3 DUP7 ADD PUSH2 0x2B4 JUMP JUMPDEST SWAP3 POP SWAP3 POP POP SWAP3 POP SWAP3 SWAP1 POP JUMP JUMPDEST PUSH1 0x0 PUSH2 0x363 DUP4 DUP6 PUSH2 0x49C JUMP JUMPDEST SWAP4 POP PUSH2 0x370 DUP4 DUP6 DUP5 PUSH2 0x4B8 JUMP JUMPDEST DUP3 DUP5 ADD SWAP1 POP SWAP4 SWAP3 POP POP POP JUMP JUMPDEST PUSH1 0x0 DUP2 SLOAD PUSH2 0x389 DUP2 PUSH2 0x4FA JUMP JUMPDEST PUSH2 0x393 DUP2 DUP7 PUSH2 0x49C JUMP JUMPDEST SWAP5 POP PUSH1 0x1 DUP3 AND PUSH1 0x0 DUP2 EQ PUSH2 0x3AE JUMPI PUSH1 0x1 DUP2 EQ PUSH2 0x3BF JUMPI PUSH2 0x3F2 JUMP JUMPDEST PUSH1 0xFF NOT DUP4 AND DUP7 MSTORE DUP2 DUP7 ADD SWAP4 POP PUSH2 0x3F2 JUMP JUMPDEST PUSH2 0x3C8 DUP6 PUSH2 0x47C JUMP JUMPDEST PUSH1 0x0 JUMPDEST DUP4 DUP2 LT ISZERO PUSH2 0x3EA JUMPI DUP2 SLOAD DUP2 DUP10 ADD MSTORE PUSH1 0x1 DUP3 ADD SWAP2 POP PUSH1 0x20 DUP2 ADD SWAP1 POP PUSH2 0x3CB JUMP JUMPDEST DUP4 DUP9 ADD SWAP6 POP POP POP JUMPDEST POP POP POP SWAP3 SWAP2 POP POP JUMP JUMPDEST PUSH1 0x0 PUSH2 0x406 DUP3 PUSH2 0x491 JUMP JUMPDEST PUSH2 0x410 DUP2 DUP6 PUSH2 0x4A7 JUMP JUMPDEST SWAP4 POP PUSH2 0x420 DUP2 DUP6 PUSH1 0x20 DUP7 ADD PUSH2 0x4C7 JUMP JUMPDEST PUSH2 0x429 DUP2 PUSH2 0x574 JUMP JUMPDEST DUP5 ADD SWAP2 POP POP SWAP3 SWAP2 POP POP JUMP JUMPDEST PUSH1 0x0 PUSH2 0x440 DUP3 DUP7 PUSH2 0x37C JUMP JUMPDEST SWAP2 POP PUSH2 0x44D DUP3 DUP5 DUP7 PUSH2 0x357 JUMP JUMPDEST SWAP2 POP DUP2 SWAP1 POP SWAP5 SWAP4 POP POP POP POP JUMP JUMPDEST PUSH1 0x0 PUSH1 0x20 DUP3 ADD SWAP1 POP DUP2 DUP2 SUB PUSH1 0x0 DUP4 ADD MSTORE PUSH2 0x474 DUP2 DUP5 PUSH2 0x3FB JUMP JUMPDEST SWAP1 POP SWAP3 SWAP2 POP POP JUMP JUMPDEST PUSH1 0x0 DUP2 SWAP1 POP DUP2 PUSH1 0x0 MSTORE PUSH1 0x20 PUSH1 0x0 KECCAK256 SWAP1 POP SWAP2 SWAP1 POP JUMP JUMPDEST PUSH1 0x0 DUP2 MLOAD SWAP1 POP SWAP2 SWAP1 POP JUMP JUMPDEST PUSH1 0x0 DUP2 SWAP1 POP SWAP3 SWAP2 POP POP JUMP JUMPDEST PUSH1 0x0 DUP3 DUP3 MSTORE PUSH1 0x20 DUP3 ADD SWAP1 POP SWAP3 SWAP2 POP POP JUMP JUMPDEST DUP3 DUP2 DUP4 CALLDATACOPY PUSH1 0x0 DUP4 DUP4 ADD MSTORE POP POP POP JUMP JUMPDEST PUSH1 0x0 JUMPDEST DUP4 DUP2 LT ISZERO PUSH2 0x4E5 JUMPI DUP1 DUP3 ADD MLOAD DUP2 DUP5 ADD MSTORE PUSH1 0x20 DUP2 ADD SWAP1 POP PUSH2 0x4CA JUMP JUMPDEST DUP4 DUP2 GT ISZERO PUSH2 0x4F4 JUMPI PUSH1 0x0 DUP5 DUP5 ADD MSTORE JUMPDEST POP POP POP POP JUMP JUMPDEST PUSH1 0x0 PUSH1 0x2 DUP3 DIV SWAP1 POP PUSH1 0x1 DUP3 AND DUP1 PUSH2 0x512 JUMPI PUSH1 0x7F DUP3 AND SWAP2 POP JUMPDEST PUSH1 0x20 DUP3 LT DUP2 EQ ISZERO PUSH2 0x526 JUMPI PUSH2 0x525 PUSH2 0x52C JUMP JUMPDEST JUMPDEST POP SWAP2 SWAP1 POP JUMP JUMPDEST PUSH32 0x4E487B7100000000000000000000000000000000000000000000000000000000 PUSH1 0x0 MSTORE PUSH1 0x22 PUSH1 0x4 MSTORE PUSH1 0x24 PUSH1 0x0 REVERT JUMPDEST PUSH1 0x0 DUP1 REVERT JUMPDEST PUSH1 0x0 DUP1 REVERT JUMPDEST PUSH1 0x0 DUP1 REVERT JUMPDEST PUSH1 0x0 DUP1 REVERT JUMPDEST PUSH1 0x0 DUP1 REVERT JUMPDEST PUSH1 0x0 PUSH1 0x1F NOT PUSH1 0x1F DUP4 ADD AND SWAP1 POP SWAP2 SWAP1 POP JUMP INVALID LOG2 PUSH5 0x6970667358 0x22 SLT KECCAK256 0xA7 0x4B PUSH26 0x7B3387C466FAF874BCF3839C076F852605A31B9AE5793CA6B049 0xA8 RETURNDATASIZE ADD PUSH5 0x736F6C6343 STOP ADDMOD SMOD STOP CALLER "
				},
				"gasEstimates": {
					"creation": {
						"codeDepositCost": "293400",
						"executionCost": "infinite",
						"totalCost": "infinite"
					},
					"external": {
						"greet()": "infinite",
						"s()": "infinite",
						"s1()": "infinite",
						"str(string)": "infinite"
					}
				},
				"methodIdentifiers": {
					"greet()": "cfae3217",
					"s()": "86b714e2",
					"s1()": "6cc014de",
					"str(string)": "09fca94f"
				}
			},
			"storageLayout": {
				"storage": [
					{
						"astId": 4,
						"contract": "study/chapter07/stirngOpt.sol:Hello",
						"label": "greet",
						"offset": 0,
						"slot": "0",
						"type": "t_string_storage"
					},
					{
						"astId": 31,
						"contract": "study/chapter07/stirngOpt.sol:Hello",
						"label": "s",
						"offset": 0,
						"slot": "1",
						"type": "t_string_storage"
					},
					{
						"astId": 34,
						"contract": "study/chapter07/stirngOpt.sol:Hello",
						"label": "s1",
						"offset": 0,
						"slot": "2",
						"type": "t_string_storage"
					}
				],
				"types": {
					"t_string_storage": {
						"encoding": "bytes",
						"label": "string",
						"numberOfBytes": "32"
					}
				}
			},
			"userdoc": {
				"kind": "user",
				"methods": {},
				"version": 1
			}
		}
	}
}