{
	"study/chapter07/stirngOpt.sol": {
		"Hello": {
			"abi": [
				{
					"inputs": [],
					"name": "equal",
					"outputs": [
						{
							"internalType": "bool",
							"name": "",
							"type": "bool"
						}
					],
					"stateMutability": "view",
					"type": "function"
				},
				{
					"inputs": [],
					"name": "greet",
					"outputs": [
						{
							"internalType": "string",
							"name": "",
							"type": "string"
						}
					],
					"stateMutability": "view",
					"type": "function"
				},
				{
					"inputs": [],
					"name": "s",
					"outputs": [
						{
							"internalType": "string",
							"name": "",
							"type": "string"
						}
					],
					"stateMutability": "view",
					"type": "function"
				},
				{
					"inputs": [],
					"name": "s1",
					"outputs": [
						{
							"internalType": "string",
							"name": "",
							"type": "string"
						}
					],
					"stateMutability": "view",
					"type": "function"
				},
				{
					"inputs": [
						{
							"internalType": "string",
							"name": "a",
							"type": "string"
						}
					],
					"name": "str",
					"outputs": [
						{
							"internalType": "string",
							"name": "",
							"type": "string"
						}
					],
					"stateMutability": "view",
					"type": "function"
				}
			],
			"devdoc": {
				"kind": "dev",
				"methods": {},
				"version": 1
			},
			"evm": {
				"assembly": "    /* \"study/chapter07/stirngOpt.sol\":56:330  contract Hello {... */\n  mstore(0x40, 0x80)\n    /* \"study/chapter07/stirngOpt.sol\":77:108  string public greet = \"Hello, \" */\n  mload(0x40)\n  dup1\n  0x40\n  add\n  0x40\n  mstore\n  dup1\n  0x07\n  dup2\n  mstore\n  0x20\n  add\n  0x48656c6c6f2c2000000000000000000000000000000000000000000000000000\n  dup2\n  mstore\n  pop\n  0x00\n  swap1\n  dup1\n  mload\n  swap1\n  0x20\n  add\n  swap1\n  tag_1\n  swap3\n  swap2\n  swap1\n  tag_2\n  jump\t// in\ntag_1:\n  pop\n    /* \"study/chapter07/stirngOpt.sol\":254:275  string public s = \"A\" */\n  mload(0x40)\n  dup1\n  0x40\n  add\n  0x40\n  mstore\n  dup1\n  0x01\n  dup2\n  mstore\n  0x20\n  add\n  0x4100000000000000000000000000000000000000000000000000000000000000\n  dup2\n  mstore\n  pop\n  0x01\n  swap1\n  dup1\n  mload\n  swap1\n  0x20\n  add\n  swap1\n  tag_3\n  swap3\n  swap2\n  swap1\n  tag_2\n  jump\t// in\ntag_3:\n  pop\n    /* \"study/chapter07/stirngOpt.sol\":281:303  string public s1 = \"B\" */\n  mload(0x40)\n  dup1\n  0x40\n  add\n  0x40\n  mstore\n  dup1\n  0x01\n  dup2\n  mstore\n  0x20\n  add\n  0x4200000000000000000000000000000000000000000000000000000000000000\n  dup2\n  mstore\n  pop\n  0x02\n  swap1\n  dup1\n  mload\n  swap1\n  0x20\n  add\n  swap1\n  tag_4\n  swap3\n  swap2\n  swap1\n  tag_2\n  jump\t// in\ntag_4:\n  pop\n    /* \"study/chapter07/stirngOpt.sol\":56:330  contract Hello {... */\n  callvalue\n  dup1\n  iszero\n  tag_5\n  jumpi\n  0x00\n  dup1\n  revert\ntag_5:\n  pop\n  jump(tag_6)\ntag_2:\n  dup3\n  dup1\n  sload\n  tag_7\n  swap1\n  tag_8\n  jump\t// in\ntag_7:\n  swap1\n  0x00\n  mstore\n  keccak256(0x00, 0x20)\n  swap1\n  0x1f\n  add\n  0x20\n  swap1\n  div\n  dup2\n  add\n  swap3\n  dup3\n  tag_10\n  jumpi\n  0x00\n  dup6\n  sstore\n  jump(tag_9)\ntag_10:\n  dup3\n  0x1f\n  lt\n  tag_11\n  jumpi\n  dup1\n  mload\n  not(0xff)\n  and\n  dup4\n  dup1\n  add\n  or\n  dup6\n  sstore\n  jump(tag_9)\ntag_11:\n  dup3\n  dup1\n  add\n  0x01\n  add\n  dup6\n  sstore\n  dup3\n  iszero\n  tag_9\n  jumpi\n  swap2\n  dup3\n  add\ntag_12:\n  dup3\n  dup2\n  gt\n  iszero\n  tag_13\n  jumpi\n  dup3\n  mload\n  dup3\n  sstore\n  swap2\n  0x20\n  add\n  swap2\n  swap1\n  0x01\n  add\n  swap1\n  jump(tag_12)\ntag_13:\ntag_9:\n  pop\n  swap1\n  pop\n  tag_14\n  swap2\n  swap1\n  tag_15\n  jump\t// in\ntag_14:\n  pop\n  swap1\n  jump\t// out\ntag_15:\ntag_16:\n  dup1\n  dup3\n  gt\n  iszero\n  tag_17\n  jumpi\n  0x00\n  dup2\n  0x00\n  swap1\n  sstore\n  pop\n  0x01\n  add\n  jump(tag_16)\ntag_17:\n  pop\n  swap1\n  jump\t// out\n    /* \"#utility.yul\":7:327   */\ntag_8:\n    /* \"#utility.yul\":51:57   */\n  0x00\n    /* \"#utility.yul\":88:89   */\n  0x02\n    /* \"#utility.yul\":82:86   */\n  dup3\n    /* \"#utility.yul\":78:90   */\n  div\n    /* \"#utility.yul\":68:90   */\n  swap1\n  pop\n    /* \"#utility.yul\":135:136   */\n  0x01\n    /* \"#utility.yul\":129:133   */\n  dup3\n    /* \"#utility.yul\":125:137   */\n  and\n    /* \"#utility.yul\":156:174   */\n  dup1\n    /* \"#utility.yul\":146:227   */\n  tag_20\n  jumpi\n    /* \"#utility.yul\":212:216   */\n  0x7f\n    /* \"#utility.yul\":204:210   */\n  dup3\n    /* \"#utility.yul\":200:217   */\n  and\n    /* \"#utility.yul\":190:217   */\n  swap2\n  pop\n    /* \"#utility.yul\":146:227   */\ntag_20:\n    /* \"#utility.yul\":274:276   */\n  0x20\n    /* \"#utility.yul\":266:272   */\n  dup3\n    /* \"#utility.yul\":263:277   */\n  lt\n    /* \"#utility.yul\":243:261   */\n  dup2\n    /* \"#utility.yul\":240:278   */\n  eq\n    /* \"#utility.yul\":237:321   */\n  iszero\n  tag_21\n  jumpi\n    /* \"#utility.yul\":293:311   */\n  tag_22\n  tag_23\n  jump\t// in\ntag_22:\n    /* \"#utility.yul\":237:321   */\ntag_21:\n    /* \"#utility.yul\":58:327   */\n  pop\n    /* \"#utility.yul\":7:327   */\n  swap2\n  swap1\n  pop\n  jump\t// out\n    /* \"#utility.yul\":333:513   */\ntag_23:\n    /* \"#utility.yul\":381:458   */\n  0x4e487b7100000000000000000000000000000000000000000000000000000000\n    /* \"#utility.yul\":378:379   */\n  0x00\n    /* \"#utility.yul\":371:459   */\n  mstore\n    /* \"#utility.yul\":478:482   */\n  0x22\n    /* \"#utility.yul\":475:476   */\n  0x04\n    /* \"#utility.yul\":468:483   */\n  mstore\n    /* \"#utility.yul\":502:506   */\n  0x24\n    /* \"#utility.yul\":499:500   */\n  0x00\n    /* \"#utility.yul\":492:507   */\n  revert\n    /* \"study/chapter07/stirngOpt.sol\":56:330  contract Hello {... */\ntag_6:\n  dataSize(sub_0)\n  dup1\n  dataOffset(sub_0)\n  0x00\n  codecopy\n  0x00\n  return\nstop\n\nsub_0: assembly {\n        /* \"study/chapter07/stirngOpt.sol\":56:330  contract Hello {... */\n      mstore(0x40, 0x80)\n      callvalue\n      dup1\n      iszero\n      tag_1\n      jumpi\n      0x00\n      dup1\n      revert\n    tag_1:\n      pop\n      jumpi(tag_2, lt(calldatasize, 0x04))\n      shr(0xe0, calldataload(0x00))\n      dup1\n      0x09fca94f\n      eq\n      tag_3\n      jumpi\n      dup1\n      0x1e228514\n      eq\n      tag_4\n      jumpi\n      dup1\n      0x6cc014de\n      eq\n      tag_5\n      jumpi\n      dup1\n      0x86b714e2\n      eq\n      tag_6\n      jumpi\n      dup1\n      0xcfae3217\n      eq\n      tag_7\n      jumpi\n    tag_2:\n      0x00\n      dup1\n      revert\n        /* \"study/chapter07/stirngOpt.sol\":114:249  function str(string calldata a) public view  returns (string memory){... */\n    tag_3:\n      tag_8\n      0x04\n      dup1\n      calldatasize\n      sub\n      dup2\n      add\n      swap1\n      tag_9\n      swap2\n      swap1\n      tag_10\n      jump\t// in\n    tag_9:\n      tag_11\n      jump\t// in\n    tag_8:\n      mload(0x40)\n      tag_12\n      swap2\n      swap1\n      tag_13\n      jump\t// in\n    tag_12:\n      mload(0x40)\n      dup1\n      swap2\n      sub\n      swap1\n      return\n        /* \"study/chapter07/stirngOpt.sol\":310:327  bool public equal */\n    tag_4:\n      tag_14\n      tag_15\n      jump\t// in\n    tag_14:\n      mload(0x40)\n      tag_16\n      swap2\n      swap1\n      tag_17\n      jump\t// in\n    tag_16:\n      mload(0x40)\n      dup1\n      swap2\n      sub\n      swap1\n      return\n        /* \"study/chapter07/stirngOpt.sol\":281:303  string public s1 = \"B\" */\n    tag_5:\n      tag_18\n      tag_19\n      jump\t// in\n    tag_18:\n      mload(0x40)\n      tag_20\n      swap2\n      swap1\n      tag_13\n      jump\t// in\n    tag_20:\n      mload(0x40)\n      dup1\n      swap2\n      sub\n      swap1\n      return\n        /* \"study/chapter07/stirngOpt.sol\":254:275  string public s = \"A\" */\n    tag_6:\n      tag_21\n      tag_22\n      jump\t// in\n    tag_21:\n      mload(0x40)\n      tag_23\n      swap2\n      swap1\n      tag_13\n      jump\t// in\n    tag_23:\n      mload(0x40)\n      dup1\n      swap2\n      sub\n      swap1\n      return\n        /* \"study/chapter07/stirngOpt.sol\":77:108  string public greet = \"Hello, \" */\n    tag_7:\n      tag_24\n      tag_25\n      jump\t// in\n    tag_24:\n      mload(0x40)\n      tag_26\n      swap2\n      swap1\n      tag_13\n      jump\t// in\n    tag_26:\n      mload(0x40)\n      dup1\n      swap2\n      sub\n      swap1\n      return\n        /* \"study/chapter07/stirngOpt.sol\":114:249  function str(string calldata a) public view  returns (string memory){... */\n    tag_11:\n        /* \"study/chapter07/stirngOpt.sol\":168:181  string memory */\n      0x60\n        /* \"study/chapter07/stirngOpt.sol\":225:230  greet */\n      0x00\n        /* \"study/chapter07/stirngOpt.sol\":238:239  a */\n      dup4\n      dup4\n        /* \"study/chapter07/stirngOpt.sol\":206:241  bytes.concat(bytes(greet),bytes(a)) */\n      add(0x20, mload(0x40))\n      tag_28\n      swap4\n      swap3\n      swap2\n      swap1\n      tag_29\n      jump\t// in\n    tag_28:\n      mload(0x40)\n      0x20\n      dup2\n      dup4\n      sub\n      sub\n      dup2\n      mstore\n      swap1\n      0x40\n      mstore\n        /* \"study/chapter07/stirngOpt.sol\":192:242  return string(bytes.concat(bytes(greet),bytes(a))) */\n      swap1\n      pop\n        /* \"study/chapter07/stirngOpt.sol\":114:249  function str(string calldata a) public view  returns (string memory){... */\n      swap3\n      swap2\n      pop\n      pop\n      jump\t// out\n        /* \"study/chapter07/stirngOpt.sol\":310:327  bool public equal */\n    tag_15:\n      0x03\n      0x00\n      swap1\n      sload\n      swap1\n      0x0100\n      exp\n      swap1\n      div\n      0xff\n      and\n      dup2\n      jump\t// out\n        /* \"study/chapter07/stirngOpt.sol\":281:303  string public s1 = \"B\" */\n    tag_19:\n      0x02\n      dup1\n      sload\n      tag_30\n      swap1\n      tag_31\n      jump\t// in\n    tag_30:\n      dup1\n      0x1f\n      add\n      0x20\n      dup1\n      swap2\n      div\n      mul\n      0x20\n      add\n      mload(0x40)\n      swap1\n      dup2\n      add\n      0x40\n      mstore\n      dup1\n      swap3\n      swap2\n      swap1\n      dup2\n      dup2\n      mstore\n      0x20\n      add\n      dup3\n      dup1\n      sload\n      tag_32\n      swap1\n      tag_31\n      jump\t// in\n    tag_32:\n      dup1\n      iszero\n      tag_33\n      jumpi\n      dup1\n      0x1f\n      lt\n      tag_34\n      jumpi\n      0x0100\n      dup1\n      dup4\n      sload\n      div\n      mul\n      dup4\n      mstore\n      swap2\n      0x20\n      add\n      swap2\n      jump(tag_33)\n    tag_34:\n      dup3\n      add\n      swap2\n      swap1\n      0x00\n      mstore\n      keccak256(0x00, 0x20)\n      swap1\n    tag_35:\n      dup2\n      sload\n      dup2\n      mstore\n      swap1\n      0x01\n      add\n      swap1\n      0x20\n      add\n      dup1\n      dup4\n      gt\n      tag_35\n      jumpi\n      dup3\n      swap1\n      sub\n      0x1f\n      and\n      dup3\n      add\n      swap2\n    tag_33:\n      pop\n      pop\n      pop\n      pop\n      pop\n      dup2\n      jump\t// out\n        /* \"study/chapter07/stirngOpt.sol\":254:275  string public s = \"A\" */\n    tag_22:\n      0x01\n      dup1\n      sload\n      tag_36\n      swap1\n      tag_31\n      jump\t// in\n    tag_36:\n      dup1\n      0x1f\n      add\n      0x20\n      dup1\n      swap2\n      div\n      mul\n      0x20\n      add\n      mload(0x40)\n      swap1\n      dup2\n      add\n      0x40\n      mstore\n      dup1\n      swap3\n      swap2\n      swap1\n      dup2\n      dup2\n      mstore\n      0x20\n      add\n      dup3\n      dup1\n      sload\n      tag_37\n      swap1\n      tag_31\n      jump\t// in\n    tag_37:\n      dup1\n      iszero\n      tag_38\n      jumpi\n      dup1\n      0x1f\n      lt\n      tag_39\n      jumpi\n      0x0100\n      dup1\n      dup4\n      sload\n      div\n      mul\n      dup4\n      mstore\n      swap2\n      0x20\n      add\n      swap2\n      jump(tag_38)\n    tag_39:\n      dup3\n      add\n      swap2\n      swap1\n      0x00\n      mstore\n      keccak256(0x00, 0x20)\n      swap1\n    tag_40:\n      dup2\n      sload\n      dup2\n      mstore\n      swap1\n      0x01\n      add\n      swap1\n      0x20\n      add\n      dup1\n      dup4\n      gt\n      tag_40\n      jumpi\n      dup3\n      swap1\n      sub\n      0x1f\n      and\n      dup3\n      add\n      swap2\n    tag_38:\n      pop\n      pop\n      pop\n      pop\n      pop\n      dup2\n      jump\t// out\n        /* \"study/chapter07/stirngOpt.sol\":77:108  string public greet = \"Hello, \" */\n    tag_25:\n      0x00\n      dup1\n      sload\n      tag_41\n      swap1\n      tag_31\n      jump\t// in\n    tag_41:\n      dup1\n      0x1f\n      add\n      0x20\n      dup1\n      swap2\n      div\n      mul\n      0x20\n      add\n      mload(0x40)\n      swap1\n      dup2\n      add\n      0x40\n      mstore\n      dup1\n      swap3\n      swap2\n      swap1\n      dup2\n      dup2\n      mstore\n      0x20\n      add\n      dup3\n      dup1\n      sload\n      tag_42\n      swap1\n      tag_31\n      jump\t// in\n    tag_42:\n      dup1\n      iszero\n      tag_43\n      jumpi\n      dup1\n      0x1f\n      lt\n      tag_44\n      jumpi\n      0x0100\n      dup1\n      dup4\n      sload\n      div\n      mul\n      dup4\n      mstore\n      swap2\n      0x20\n      add\n      swap2\n      jump(tag_43)\n    tag_44:\n      dup3\n      add\n      swap2\n      swap1\n      0x00\n      mstore\n      keccak256(0x00, 0x20)\n      swap1\n    tag_45:\n      dup2\n      sload\n      dup2\n      mstore\n      swap1\n      0x01\n      add\n      swap1\n      0x20\n      add\n      dup1\n      dup4\n      gt\n      tag_45\n      jumpi\n      dup3\n      swap1\n      sub\n      0x1f\n      and\n      dup3\n      add\n      swap2\n    tag_43:\n      pop\n      pop\n      pop\n      pop\n      pop\n      dup2\n      jump\t// out\n        /* \"#utility.yul\":21:574   */\n    tag_47:\n        /* \"#utility.yul\":79:87   */\n      0x00\n        /* \"#utility.yul\":89:95   */\n      dup1\n        /* \"#utility.yul\":139:142   */\n      dup4\n        /* \"#utility.yul\":132:136   */\n      0x1f\n        /* \"#utility.yul\":124:130   */\n      dup5\n        /* \"#utility.yul\":120:137   */\n      add\n        /* \"#utility.yul\":116:143   */\n      slt\n        /* \"#utility.yul\":106:228   */\n      tag_49\n      jumpi\n        /* \"#utility.yul\":147:226   */\n      tag_50\n      tag_51\n      jump\t// in\n    tag_50:\n        /* \"#utility.yul\":106:228   */\n    tag_49:\n        /* \"#utility.yul\":260:266   */\n      dup3\n        /* \"#utility.yul\":247:267   */\n      calldataload\n        /* \"#utility.yul\":237:267   */\n      swap1\n      pop\n        /* \"#utility.yul\":290:308   */\n      0xffffffffffffffff\n        /* \"#utility.yul\":282:288   */\n      dup2\n        /* \"#utility.yul\":279:309   */\n      gt\n        /* \"#utility.yul\":276:393   */\n      iszero\n      tag_52\n      jumpi\n        /* \"#utility.yul\":312:391   */\n      tag_53\n      tag_54\n      jump\t// in\n    tag_53:\n        /* \"#utility.yul\":276:393   */\n    tag_52:\n        /* \"#utility.yul\":426:430   */\n      0x20\n        /* \"#utility.yul\":418:424   */\n      dup4\n        /* \"#utility.yul\":414:431   */\n      add\n        /* \"#utility.yul\":402:431   */\n      swap2\n      pop\n        /* \"#utility.yul\":480:483   */\n      dup4\n        /* \"#utility.yul\":472:476   */\n      0x01\n        /* \"#utility.yul\":464:470   */\n      dup3\n        /* \"#utility.yul\":460:477   */\n      mul\n        /* \"#utility.yul\":450:458   */\n      dup4\n        /* \"#utility.yul\":446:478   */\n      add\n        /* \"#utility.yul\":443:484   */\n      gt\n        /* \"#utility.yul\":440:568   */\n      iszero\n      tag_55\n      jumpi\n        /* \"#utility.yul\":487:566   */\n      tag_56\n      tag_57\n      jump\t// in\n    tag_56:\n        /* \"#utility.yul\":440:568   */\n    tag_55:\n        /* \"#utility.yul\":21:574   */\n      swap3\n      pop\n      swap3\n      swap1\n      pop\n      jump\t// out\n        /* \"#utility.yul\":580:1109   */\n    tag_10:\n        /* \"#utility.yul\":651:657   */\n      0x00\n        /* \"#utility.yul\":659:665   */\n      dup1\n        /* \"#utility.yul\":708:710   */\n      0x20\n        /* \"#utility.yul\":696:705   */\n      dup4\n        /* \"#utility.yul\":687:694   */\n      dup6\n        /* \"#utility.yul\":683:706   */\n      sub\n        /* \"#utility.yul\":679:711   */\n      slt\n        /* \"#utility.yul\":676:795   */\n      iszero\n      tag_59\n      jumpi\n        /* \"#utility.yul\":714:793   */\n      tag_60\n      tag_61\n      jump\t// in\n    tag_60:\n        /* \"#utility.yul\":676:795   */\n    tag_59:\n        /* \"#utility.yul\":862:863   */\n      0x00\n        /* \"#utility.yul\":851:860   */\n      dup4\n        /* \"#utility.yul\":847:864   */\n      add\n        /* \"#utility.yul\":834:865   */\n      calldataload\n        /* \"#utility.yul\":892:910   */\n      0xffffffffffffffff\n        /* \"#utility.yul\":884:890   */\n      dup2\n        /* \"#utility.yul\":881:911   */\n      gt\n        /* \"#utility.yul\":878:995   */\n      iszero\n      tag_62\n      jumpi\n        /* \"#utility.yul\":914:993   */\n      tag_63\n      tag_64\n      jump\t// in\n    tag_63:\n        /* \"#utility.yul\":878:995   */\n    tag_62:\n        /* \"#utility.yul\":1027:1092   */\n      tag_65\n        /* \"#utility.yul\":1084:1091   */\n      dup6\n        /* \"#utility.yul\":1075:1081   */\n      dup3\n        /* \"#utility.yul\":1064:1073   */\n      dup7\n        /* \"#utility.yul\":1060:1082   */\n      add\n        /* \"#utility.yul\":1027:1092   */\n      tag_47\n      jump\t// in\n    tag_65:\n        /* \"#utility.yul\":1009:1092   */\n      swap3\n      pop\n      swap3\n      pop\n        /* \"#utility.yul\":805:1102   */\n      pop\n        /* \"#utility.yul\":580:1109   */\n      swap3\n      pop\n      swap3\n      swap1\n      pop\n      jump\t// out\n        /* \"#utility.yul\":1115:1224   */\n    tag_66:\n        /* \"#utility.yul\":1196:1217   */\n      tag_68\n        /* \"#utility.yul\":1211:1216   */\n      dup2\n        /* \"#utility.yul\":1196:1217   */\n      tag_69\n      jump\t// in\n    tag_68:\n        /* \"#utility.yul\":1191:1194   */\n      dup3\n        /* \"#utility.yul\":1184:1218   */\n      mstore\n        /* \"#utility.yul\":1115:1224   */\n      pop\n      pop\n      jump\t// out\n        /* \"#utility.yul\":1252:1566   */\n    tag_70:\n        /* \"#utility.yul\":1366:1369   */\n      0x00\n        /* \"#utility.yul\":1387:1475   */\n      tag_72\n        /* \"#utility.yul\":1468:1474   */\n      dup4\n        /* \"#utility.yul\":1463:1466   */\n      dup6\n        /* \"#utility.yul\":1387:1475   */\n      tag_73\n      jump\t// in\n    tag_72:\n        /* \"#utility.yul\":1380:1475   */\n      swap4\n      pop\n        /* \"#utility.yul\":1485:1528   */\n      tag_74\n        /* \"#utility.yul\":1521:1527   */\n      dup4\n        /* \"#utility.yul\":1516:1519   */\n      dup6\n        /* \"#utility.yul\":1509:1514   */\n      dup5\n        /* \"#utility.yul\":1485:1528   */\n      tag_75\n      jump\t// in\n    tag_74:\n        /* \"#utility.yul\":1553:1559   */\n      dup3\n        /* \"#utility.yul\":1548:1551   */\n      dup5\n        /* \"#utility.yul\":1544:1560   */\n      add\n        /* \"#utility.yul\":1537:1560   */\n      swap1\n      pop\n        /* \"#utility.yul\":1252:1566   */\n      swap4\n      swap3\n      pop\n      pop\n      pop\n      jump\t// out\n        /* \"#utility.yul\":1594:2443   */\n    tag_76:\n        /* \"#utility.yul\":1699:1702   */\n      0x00\n        /* \"#utility.yul\":1736:1741   */\n      dup2\n        /* \"#utility.yul\":1730:1742   */\n      sload\n        /* \"#utility.yul\":1765:1801   */\n      tag_78\n        /* \"#utility.yul\":1791:1800   */\n      dup2\n        /* \"#utility.yul\":1765:1801   */\n      tag_31\n      jump\t// in\n    tag_78:\n        /* \"#utility.yul\":1817:1905   */\n      tag_79\n        /* \"#utility.yul\":1898:1904   */\n      dup2\n        /* \"#utility.yul\":1893:1896   */\n      dup7\n        /* \"#utility.yul\":1817:1905   */\n      tag_73\n      jump\t// in\n    tag_79:\n        /* \"#utility.yul\":1810:1905   */\n      swap5\n      pop\n        /* \"#utility.yul\":1936:1937   */\n      0x01\n        /* \"#utility.yul\":1925:1934   */\n      dup3\n        /* \"#utility.yul\":1921:1938   */\n      and\n        /* \"#utility.yul\":1952:1953   */\n      0x00\n        /* \"#utility.yul\":1947:2084   */\n      dup2\n      eq\n      tag_81\n      jumpi\n        /* \"#utility.yul\":2098:2099   */\n      0x01\n        /* \"#utility.yul\":2093:2437   */\n      dup2\n      eq\n      tag_82\n      jumpi\n        /* \"#utility.yul\":1914:2437   */\n      jump(tag_80)\n        /* \"#utility.yul\":1947:2084   */\n    tag_81:\n        /* \"#utility.yul\":2031:2035   */\n      0xff\n        /* \"#utility.yul\":2027:2036   */\n      not\n        /* \"#utility.yul\":2016:2025   */\n      dup4\n        /* \"#utility.yul\":2012:2037   */\n      and\n        /* \"#utility.yul\":2007:2010   */\n      dup7\n        /* \"#utility.yul\":2000:2038   */\n      mstore\n        /* \"#utility.yul\":2067:2073   */\n      dup2\n        /* \"#utility.yul\":2062:2065   */\n      dup7\n        /* \"#utility.yul\":2058:2074   */\n      add\n        /* \"#utility.yul\":2051:2074   */\n      swap4\n      pop\n        /* \"#utility.yul\":1947:2084   */\n      jump(tag_80)\n        /* \"#utility.yul\":2093:2437   */\n    tag_82:\n        /* \"#utility.yul\":2160:2201   */\n      tag_83\n        /* \"#utility.yul\":2195:2200   */\n      dup6\n        /* \"#utility.yul\":2160:2201   */\n      tag_84\n      jump\t// in\n    tag_83:\n        /* \"#utility.yul\":2223:2224   */\n      0x00\n        /* \"#utility.yul\":2237:2391   */\n    tag_85:\n        /* \"#utility.yul\":2251:2257   */\n      dup4\n        /* \"#utility.yul\":2248:2249   */\n      dup2\n        /* \"#utility.yul\":2245:2258   */\n      lt\n        /* \"#utility.yul\":2237:2391   */\n      iszero\n      tag_87\n      jumpi\n        /* \"#utility.yul\":2325:2332   */\n      dup2\n        /* \"#utility.yul\":2319:2333   */\n      sload\n        /* \"#utility.yul\":2315:2316   */\n      dup2\n        /* \"#utility.yul\":2310:2313   */\n      dup10\n        /* \"#utility.yul\":2306:2317   */\n      add\n        /* \"#utility.yul\":2299:2334   */\n      mstore\n        /* \"#utility.yul\":2375:2376   */\n      0x01\n        /* \"#utility.yul\":2366:2373   */\n      dup3\n        /* \"#utility.yul\":2362:2377   */\n      add\n        /* \"#utility.yul\":2351:2377   */\n      swap2\n      pop\n        /* \"#utility.yul\":2273:2277   */\n      0x20\n        /* \"#utility.yul\":2270:2271   */\n      dup2\n        /* \"#utility.yul\":2266:2278   */\n      add\n        /* \"#utility.yul\":2261:2278   */\n      swap1\n      pop\n        /* \"#utility.yul\":2237:2391   */\n      jump(tag_85)\n    tag_87:\n        /* \"#utility.yul\":2420:2426   */\n      dup4\n        /* \"#utility.yul\":2415:2418   */\n      dup9\n        /* \"#utility.yul\":2411:2427   */\n      add\n        /* \"#utility.yul\":2404:2427   */\n      swap6\n      pop\n        /* \"#utility.yul\":2100:2437   */\n      pop\n      pop\n        /* \"#utility.yul\":1914:2437   */\n    tag_80:\n      pop\n        /* \"#utility.yul\":1703:2443   */\n      pop\n      pop\n        /* \"#utility.yul\":1594:2443   */\n      swap3\n      swap2\n      pop\n      pop\n      jump\t// out\n        /* \"#utility.yul\":2449:2813   */\n    tag_88:\n        /* \"#utility.yul\":2537:2540   */\n      0x00\n        /* \"#utility.yul\":2565:2604   */\n      tag_90\n        /* \"#utility.yul\":2598:2603   */\n      dup3\n        /* \"#utility.yul\":2565:2604   */\n      tag_91\n      jump\t// in\n    tag_90:\n        /* \"#utility.yul\":2620:2691   */\n      tag_92\n        /* \"#utility.yul\":2684:2690   */\n      dup2\n        /* \"#utility.yul\":2679:2682   */\n      dup6\n        /* \"#utility.yul\":2620:2691   */\n      tag_93\n      jump\t// in\n    tag_92:\n        /* \"#utility.yul\":2613:2691   */\n      swap4\n      pop\n        /* \"#utility.yul\":2700:2752   */\n      tag_94\n        /* \"#utility.yul\":2745:2751   */\n      dup2\n        /* \"#utility.yul\":2740:2743   */\n      dup6\n        /* \"#utility.yul\":2733:2737   */\n      0x20\n        /* \"#utility.yul\":2726:2731   */\n      dup7\n        /* \"#utility.yul\":2722:2738   */\n      add\n        /* \"#utility.yul\":2700:2752   */\n      tag_95\n      jump\t// in\n    tag_94:\n        /* \"#utility.yul\":2777:2806   */\n      tag_96\n        /* \"#utility.yul\":2799:2805   */\n      dup2\n        /* \"#utility.yul\":2777:2806   */\n      tag_97\n      jump\t// in\n    tag_96:\n        /* \"#utility.yul\":2772:2775   */\n      dup5\n        /* \"#utility.yul\":2768:2807   */\n      add\n        /* \"#utility.yul\":2761:2807   */\n      swap2\n      pop\n        /* \"#utility.yul\":2541:2813   */\n      pop\n        /* \"#utility.yul\":2449:2813   */\n      swap3\n      swap2\n      pop\n      pop\n      jump\t// out\n        /* \"#utility.yul\":2819:3268   */\n    tag_29:\n        /* \"#utility.yul\":3006:3009   */\n      0x00\n        /* \"#utility.yul\":3028:3122   */\n      tag_99\n        /* \"#utility.yul\":3118:3121   */\n      dup3\n        /* \"#utility.yul\":3109:3115   */\n      dup7\n        /* \"#utility.yul\":3028:3122   */\n      tag_76\n      jump\t// in\n    tag_99:\n        /* \"#utility.yul\":3021:3122   */\n      swap2\n      pop\n        /* \"#utility.yul\":3139:3242   */\n      tag_100\n        /* \"#utility.yul\":3238:3241   */\n      dup3\n        /* \"#utility.yul\":3229:3235   */\n      dup5\n        /* \"#utility.yul\":3221:3227   */\n      dup7\n        /* \"#utility.yul\":3139:3242   */\n      tag_70\n      jump\t// in\n    tag_100:\n        /* \"#utility.yul\":3132:3242   */\n      swap2\n      pop\n        /* \"#utility.yul\":3259:3262   */\n      dup2\n        /* \"#utility.yul\":3252:3262   */\n      swap1\n      pop\n        /* \"#utility.yul\":2819:3268   */\n      swap5\n      swap4\n      pop\n      pop\n      pop\n      pop\n      jump\t// out\n        /* \"#utility.yul\":3274:3484   */\n    tag_17:\n        /* \"#utility.yul\":3361:3365   */\n      0x00\n        /* \"#utility.yul\":3399:3401   */\n      0x20\n        /* \"#utility.yul\":3388:3397   */\n      dup3\n        /* \"#utility.yul\":3384:3402   */\n      add\n        /* \"#utility.yul\":3376:3402   */\n      swap1\n      pop\n        /* \"#utility.yul\":3412:3477   */\n      tag_102\n        /* \"#utility.yul\":3474:3475   */\n      0x00\n        /* \"#utility.yul\":3463:3472   */\n      dup4\n        /* \"#utility.yul\":3459:3476   */\n      add\n        /* \"#utility.yul\":3450:3456   */\n      dup5\n        /* \"#utility.yul\":3412:3477   */\n      tag_66\n      jump\t// in\n    tag_102:\n        /* \"#utility.yul\":3274:3484   */\n      swap3\n      swap2\n      pop\n      pop\n      jump\t// out\n        /* \"#utility.yul\":3490:3803   */\n    tag_13:\n        /* \"#utility.yul\":3603:3607   */\n      0x00\n        /* \"#utility.yul\":3641:3643   */\n      0x20\n        /* \"#utility.yul\":3630:3639   */\n      dup3\n        /* \"#utility.yul\":3626:3644   */\n      add\n        /* \"#utility.yul\":3618:3644   */\n      swap1\n      pop\n        /* \"#utility.yul\":3690:3699   */\n      dup2\n        /* \"#utility.yul\":3684:3688   */\n      dup2\n        /* \"#utility.yul\":3680:3700   */\n      sub\n        /* \"#utility.yul\":3676:3677   */\n      0x00\n        /* \"#utility.yul\":3665:3674   */\n      dup4\n        /* \"#utility.yul\":3661:3678   */\n      add\n        /* \"#utility.yul\":3654:3701   */\n      mstore\n        /* \"#utility.yul\":3718:3796   */\n      tag_104\n        /* \"#utility.yul\":3791:3795   */\n      dup2\n        /* \"#utility.yul\":3782:3788   */\n      dup5\n        /* \"#utility.yul\":3718:3796   */\n      tag_88\n      jump\t// in\n    tag_104:\n        /* \"#utility.yul\":3710:3796   */\n      swap1\n      pop\n        /* \"#utility.yul\":3490:3803   */\n      swap3\n      swap2\n      pop\n      pop\n      jump\t// out\n        /* \"#utility.yul\":3890:4034   */\n    tag_84:\n        /* \"#utility.yul\":3942:3946   */\n      0x00\n        /* \"#utility.yul\":3965:3968   */\n      dup2\n        /* \"#utility.yul\":3957:3968   */\n      swap1\n      pop\n        /* \"#utility.yul\":3988:3991   */\n      dup2\n        /* \"#utility.yul\":3985:3986   */\n      0x00\n        /* \"#utility.yul\":3978:3992   */\n      mstore\n        /* \"#utility.yul\":4022:4026   */\n      0x20\n        /* \"#utility.yul\":4019:4020   */\n      0x00\n        /* \"#utility.yul\":4009:4027   */\n      keccak256\n        /* \"#utility.yul\":4001:4027   */\n      swap1\n      pop\n        /* \"#utility.yul\":3890:4034   */\n      swap2\n      swap1\n      pop\n      jump\t// out\n        /* \"#utility.yul\":4040:4139   */\n    tag_91:\n        /* \"#utility.yul\":4092:4098   */\n      0x00\n        /* \"#utility.yul\":4126:4131   */\n      dup2\n        /* \"#utility.yul\":4120:4132   */\n      mload\n        /* \"#utility.yul\":4110:4132   */\n      swap1\n      pop\n        /* \"#utility.yul\":4040:4139   */\n      swap2\n      swap1\n      pop\n      jump\t// out\n        /* \"#utility.yul\":4145:4292   */\n    tag_73:\n        /* \"#utility.yul\":4246:4257   */\n      0x00\n        /* \"#utility.yul\":4283:4286   */\n      dup2\n        /* \"#utility.yul\":4268:4286   */\n      swap1\n      pop\n        /* \"#utility.yul\":4145:4292   */\n      swap3\n      swap2\n      pop\n      pop\n      jump\t// out\n        /* \"#utility.yul\":4298:4467   */\n    tag_93:\n        /* \"#utility.yul\":4382:4393   */\n      0x00\n        /* \"#utility.yul\":4416:4422   */\n      dup3\n        /* \"#utility.yul\":4411:4414   */\n      dup3\n        /* \"#utility.yul\":4404:4423   */\n      mstore\n        /* \"#utility.yul\":4456:4460   */\n      0x20\n        /* \"#utility.yul\":4451:4454   */\n      dup3\n        /* \"#utility.yul\":4447:4461   */\n      add\n        /* \"#utility.yul\":4432:4461   */\n      swap1\n      pop\n        /* \"#utility.yul\":4298:4467   */\n      swap3\n      swap2\n      pop\n      pop\n      jump\t// out\n        /* \"#utility.yul\":4473:4563   */\n    tag_69:\n        /* \"#utility.yul\":4507:4514   */\n      0x00\n        /* \"#utility.yul\":4550:4555   */\n      dup2\n        /* \"#utility.yul\":4543:4556   */\n      iszero\n        /* \"#utility.yul\":4536:4557   */\n      iszero\n        /* \"#utility.yul\":4525:4557   */\n      swap1\n      pop\n        /* \"#utility.yul\":4473:4563   */\n      swap2\n      swap1\n      pop\n      jump\t// out\n        /* \"#utility.yul\":4569:4723   */\n    tag_75:\n        /* \"#utility.yul\":4653:4659   */\n      dup3\n        /* \"#utility.yul\":4648:4651   */\n      dup2\n        /* \"#utility.yul\":4643:4646   */\n      dup4\n        /* \"#utility.yul\":4630:4660   */\n      calldatacopy\n        /* \"#utility.yul\":4715:4716   */\n      0x00\n        /* \"#utility.yul\":4706:4712   */\n      dup4\n        /* \"#utility.yul\":4701:4704   */\n      dup4\n        /* \"#utility.yul\":4697:4713   */\n      add\n        /* \"#utility.yul\":4690:4717   */\n      mstore\n        /* \"#utility.yul\":4569:4723   */\n      pop\n      pop\n      pop\n      jump\t// out\n        /* \"#utility.yul\":4729:5036   */\n    tag_95:\n        /* \"#utility.yul\":4797:4798   */\n      0x00\n        /* \"#utility.yul\":4807:4920   */\n    tag_114:\n        /* \"#utility.yul\":4821:4827   */\n      dup4\n        /* \"#utility.yul\":4818:4819   */\n      dup2\n        /* \"#utility.yul\":4815:4828   */\n      lt\n        /* \"#utility.yul\":4807:4920   */\n      iszero\n      tag_116\n      jumpi\n        /* \"#utility.yul\":4906:4907   */\n      dup1\n        /* \"#utility.yul\":4901:4904   */\n      dup3\n        /* \"#utility.yul\":4897:4908   */\n      add\n        /* \"#utility.yul\":4891:4909   */\n      mload\n        /* \"#utility.yul\":4887:4888   */\n      dup2\n        /* \"#utility.yul\":4882:4885   */\n      dup5\n        /* \"#utility.yul\":4878:4889   */\n      add\n        /* \"#utility.yul\":4871:4910   */\n      mstore\n        /* \"#utility.yul\":4843:4845   */\n      0x20\n        /* \"#utility.yul\":4840:4841   */\n      dup2\n        /* \"#utility.yul\":4836:4846   */\n      add\n        /* \"#utility.yul\":4831:4846   */\n      swap1\n      pop\n        /* \"#utility.yul\":4807:4920   */\n      jump(tag_114)\n    tag_116:\n        /* \"#utility.yul\":4938:4944   */\n      dup4\n        /* \"#utility.yul\":4935:4936   */\n      dup2\n        /* \"#utility.yul\":4932:4945   */\n      gt\n        /* \"#utility.yul\":4929:5030   */\n      iszero\n      tag_117\n      jumpi\n        /* \"#utility.yul\":5018:5019   */\n      0x00\n        /* \"#utility.yul\":5009:5015   */\n      dup5\n        /* \"#utility.yul\":5004:5007   */\n      dup5\n        /* \"#utility.yul\":5000:5016   */\n      add\n        /* \"#utility.yul\":4993:5020   */\n      mstore\n        /* \"#utility.yul\":4929:5030   */\n    tag_117:\n        /* \"#utility.yul\":4778:5036   */\n      pop\n        /* \"#utility.yul\":4729:5036   */\n      pop\n      pop\n      pop\n      jump\t// out\n        /* \"#utility.yul\":5042:5362   */\n    tag_31:\n        /* \"#utility.yul\":5086:5092   */\n      0x00\n        /* \"#utility.yul\":5123:5124   */\n      0x02\n        /* \"#utility.yul\":5117:5121   */\n      dup3\n        /* \"#utility.yul\":5113:5125   */\n      div\n        /* \"#utility.yul\":5103:5125   */\n      swap1\n      pop\n        /* \"#utility.yul\":5170:5171   */\n      0x01\n        /* \"#utility.yul\":5164:5168   */\n      dup3\n        /* \"#utility.yul\":5160:5172   */\n      and\n        /* \"#utility.yul\":5191:5209   */\n      dup1\n        /* \"#utility.yul\":5181:5262   */\n      tag_119\n      jumpi\n        /* \"#utility.yul\":5247:5251   */\n      0x7f\n        /* \"#utility.yul\":5239:5245   */\n      dup3\n        /* \"#utility.yul\":5235:5252   */\n      and\n        /* \"#utility.yul\":5225:5252   */\n      swap2\n      pop\n        /* \"#utility.yul\":5181:5262   */\n    tag_119:\n        /* \"#utility.yul\":5309:5311   */\n      0x20\n        /* \"#utility.yul\":5301:5307   */\n      dup3\n        /* \"#utility.yul\":5298:5312   */\n      lt\n        /* \"#utility.yul\":5278:5296   */\n      dup2\n        /* \"#utility.yul\":5275:5313   */\n      eq\n        /* \"#utility.yul\":5272:5356   */\n      iszero\n      tag_120\n      jumpi\n        /* \"#utility.yul\":5328:5346   */\n      tag_121\n      tag_122\n      jump\t// in\n    tag_121:\n        /* \"#utility.yul\":5272:5356   */\n    tag_120:\n        /* \"#utility.yul\":5093:5362   */\n      pop\n        /* \"#utility.yul\":5042:5362   */\n      swap2\n      swap1\n      pop\n      jump\t// out\n        /* \"#utility.yul\":5368:5548   */\n    tag_122:\n        /* \"#utility.yul\":5416:5493   */\n      0x4e487b7100000000000000000000000000000000000000000000000000000000\n        /* \"#utility.yul\":5413:5414   */\n      0x00\n        /* \"#utility.yul\":5406:5494   */\n      mstore\n        /* \"#utility.yul\":5513:5517   */\n      0x22\n        /* \"#utility.yul\":5510:5511   */\n      0x04\n        /* \"#utility.yul\":5503:5518   */\n      mstore\n        /* \"#utility.yul\":5537:5541   */\n      0x24\n        /* \"#utility.yul\":5534:5535   */\n      0x00\n        /* \"#utility.yul\":5527:5542   */\n      revert\n        /* \"#utility.yul\":5554:5671   */\n    tag_54:\n        /* \"#utility.yul\":5663:5664   */\n      0x00\n        /* \"#utility.yul\":5660:5661   */\n      dup1\n        /* \"#utility.yul\":5653:5665   */\n      revert\n        /* \"#utility.yul\":5677:5794   */\n    tag_51:\n        /* \"#utility.yul\":5786:5787   */\n      0x00\n        /* \"#utility.yul\":5783:5784   */\n      dup1\n        /* \"#utility.yul\":5776:5788   */\n      revert\n        /* \"#utility.yul\":5800:5917   */\n    tag_57:\n        /* \"#utility.yul\":5909:5910   */\n      0x00\n        /* \"#utility.yul\":5906:5907   */\n      dup1\n        /* \"#utility.yul\":5899:5911   */\n      revert\n        /* \"#utility.yul\":5923:6040   */\n    tag_64:\n        /* \"#utility.yul\":6032:6033   */\n      0x00\n        /* \"#utility.yul\":6029:6030   */\n      dup1\n        /* \"#utility.yul\":6022:6034   */\n      revert\n        /* \"#utility.yul\":6046:6163   */\n    tag_61:\n        /* \"#utility.yul\":6155:6156   */\n      0x00\n        /* \"#utility.yul\":6152:6153   */\n      dup1\n        /* \"#utility.yul\":6145:6157   */\n      revert\n        /* \"#utility.yul\":6169:6271   */\n    tag_97:\n        /* \"#utility.yul\":6210:6216   */\n      0x00\n        /* \"#utility.yul\":6261:6263   */\n      0x1f\n        /* \"#utility.yul\":6257:6264   */\n      not\n        /* \"#utility.yul\":6252:6254   */\n      0x1f\n        /* \"#utility.yul\":6245:6250   */\n      dup4\n        /* \"#utility.yul\":6241:6255   */\n      add\n        /* \"#utility.yul\":6237:6265   */\n      and\n        /* \"#utility.yul\":6227:6265   */\n      swap1\n      pop\n        /* \"#utility.yul\":6169:6271   */\n      swap2\n      swap1\n      pop\n      jump\t// out\n\n    auxdata: 0xa2646970667358221220df128fe3fbdbdf5d447c9c8baa145b5d492844f76d588ba1521cabfff372095e64736f6c63430008070033\n}\n",
				"bytecode": {
					"linkReferences": {},
					"object": "60806040526040518060400160405280600781526020017f48656c6c6f2c20000000000000000000000000000000000000000000000000008152506000908051906020019061004f9291906100fa565b506040518060400160405280600181526020017f41000000000000000000000000000000000000000000000000000000000000008152506001908051906020019061009b9291906100fa565b506040518060400160405280600181526020017f4200000000000000000000000000000000000000000000000000000000000000815250600290805190602001906100e79291906100fa565b503480156100f457600080fd5b506101fe565b8280546101069061019d565b90600052602060002090601f016020900481019282610128576000855561016f565b82601f1061014157805160ff191683800117855561016f565b8280016001018555821561016f579182015b8281111561016e578251825591602001919060010190610153565b5b50905061017c9190610180565b5090565b5b80821115610199576000816000905550600101610181565b5090565b600060028204905060018216806101b557607f821691505b602082108114156101c9576101c86101cf565b5b50919050565b7f4e487b7100000000000000000000000000000000000000000000000000000000600052602260045260246000fd5b61062d8061020d6000396000f3fe608060405234801561001057600080fd5b50600436106100575760003560e01c806309fca94f1461005c5780631e2285141461008c5780636cc014de146100aa57806386b714e2146100c8578063cfae3217146100e6575b600080fd5b61007660048036038101906100719190610346565b610104565b60405161008391906104c0565b60405180910390f35b610094610133565b6040516100a191906104a5565b60405180910390f35b6100b2610146565b6040516100bf91906104c0565b60405180910390f35b6100d06101d4565b6040516100dd91906104c0565b60405180910390f35b6100ee610262565b6040516100fb91906104c0565b60405180910390f35b60606000838360405160200161011c9392919061047f565b604051602081830303815290604052905092915050565b600360009054906101000a900460ff1681565b600280546101539061056c565b80601f016020809104026020016040519081016040528092919081815260200182805461017f9061056c565b80156101cc5780601f106101a1576101008083540402835291602001916101cc565b820191906000526020600020905b8154815290600101906020018083116101af57829003601f168201915b505050505081565b600180546101e19061056c565b80601f016020809104026020016040519081016040528092919081815260200182805461020d9061056c565b801561025a5780601f1061022f5761010080835404028352916020019161025a565b820191906000526020600020905b81548152906001019060200180831161023d57829003601f168201915b505050505081565b6000805461026f9061056c565b80601f016020809104026020016040519081016040528092919081815260200182805461029b9061056c565b80156102e85780601f106102bd576101008083540402835291602001916102e8565b820191906000526020600020905b8154815290600101906020018083116102cb57829003601f168201915b505050505081565b60008083601f840112610306576103056105d2565b5b8235905067ffffffffffffffff811115610323576103226105cd565b5b60208301915083600182028301111561033f5761033e6105d7565b5b9250929050565b6000806020838503121561035d5761035c6105e1565b5b600083013567ffffffffffffffff81111561037b5761037a6105dc565b5b610387858286016102f0565b92509250509250929050565b61039c8161051e565b82525050565b60006103ae8385610502565b93506103bb83858461052a565b82840190509392505050565b600081546103d48161056c565b6103de8186610502565b945060018216600081146103f9576001811461040a5761043d565b60ff1983168652818601935061043d565b610413856104e2565b60005b8381101561043557815481890152600182019150602081019050610416565b838801955050505b50505092915050565b6000610451826104f7565b61045b818561050d565b935061046b818560208601610539565b610474816105e6565b840191505092915050565b600061048b82866103c7565b91506104988284866103a2565b9150819050949350505050565b60006020820190506104ba6000830184610393565b92915050565b600060208201905081810360008301526104da8184610446565b905092915050565b60008190508160005260206000209050919050565b600081519050919050565b600081905092915050565b600082825260208201905092915050565b60008115159050919050565b82818337600083830152505050565b60005b8381101561055757808201518184015260208101905061053c565b83811115610566576000848401525b50505050565b6000600282049050600182168061058457607f821691505b602082108114156105985761059761059e565b5b50919050565b7f4e487b7100000000000000000000000000000000000000000000000000000000600052602260045260246000fd5b600080fd5b600080fd5b600080fd5b600080fd5b600080fd5b6000601f19601f830116905091905056fea2646970667358221220df128fe3fbdbdf5d447c9c8baa145b5d492844f76d588ba1521cabfff372095e64736f6c63430008070033",
					"opcodes": "PUSH1 0x80 PUSH1 0x40 MSTORE PUSH1 0x40 MLOAD DUP1 PUSH1 0x40 ADD PUSH1 0x40 MSTORE DUP1 PUSH1 0x7 DUP2 MSTORE PUSH1 0x20 ADD PUSH32 0x48656C6C6F2C2000000000000000000000000000000000000000000000000000 DUP2 MSTORE POP PUSH1 0x0 SWAP1 DUP1 MLOAD SWAP1 PUSH1 0x20 ADD SWAP1 PUSH2 0x4F SWAP3 SWAP2 SWAP1 PUSH2 0xFA JUMP JUMPDEST POP PUSH1 0x40 MLOAD DUP1 PUSH1 0x40 ADD PUSH1 0x40 MSTORE DUP1 PUSH1 0x1 DUP2 MSTORE PUSH1 0x20 ADD PUSH32 0x4100000000000000000000000000000000000000000000000000000000000000 DUP2 MSTORE POP PUSH1 0x1 SWAP1 DUP1 MLOAD SWAP1 PUSH1 0x20 ADD SWAP1 PUSH2 0x9B SWAP3 SWAP2 SWAP1 PUSH2 0xFA JUMP JUMPDEST POP PUSH1 0x40 MLOAD DUP1 PUSH1 0x40 ADD PUSH1 0x40 MSTORE DUP1 PUSH1 0x1 DUP2 MSTORE PUSH1 0x20 ADD PUSH32 0x4200000000000000000000000000000000000000000000000000000000000000 DUP2 MSTORE POP PUSH1 0x2 SWAP1 DUP1 MLOAD SWAP1 PUSH1 0x20 ADD SWAP1 PUSH2 0xE7 SWAP3 SWAP2 SWAP1 PUSH2 0xFA JUMP JUMPDEST POP CALLVALUE DUP1 ISZERO PUSH2 0xF4 JUMPI PUSH1 0x0 DUP1 REVERT JUMPDEST POP PUSH2 0x1FE JUMP JUMPDEST DUP3 DUP1 SLOAD PUSH2 0x106 SWAP1 PUSH2 0x19D JUMP JUMPDEST SWAP1 PUSH1 0x0 MSTORE PUSH1 0x20 PUSH1 0x0 KECCAK256 SWAP1 PUSH1 0x1F ADD PUSH1 0x20 SWAP1 DIV DUP2 ADD SWAP3 DUP3 PUSH2 0x128 JUMPI PUSH1 0x0 DUP6 SSTORE PUSH2 0x16F JUMP JUMPDEST DUP3 PUSH1 0x1F LT PUSH2 0x141 JUMPI DUP1 MLOAD PUSH1 0xFF NOT AND DUP4 DUP1 ADD OR DUP6 SSTORE PUSH2 0x16F JUMP JUMPDEST DUP3 DUP1 ADD PUSH1 0x1 ADD DUP6 SSTORE DUP3 ISZERO PUSH2 0x16F JUMPI SWAP2 DUP3 ADD JUMPDEST DUP3 DUP2 GT ISZERO PUSH2 0x16E JUMPI DUP3 MLOAD DUP3 SSTORE SWAP2 PUSH1 0x20 ADD SWAP2 SWAP1 PUSH1 0x1 ADD SWAP1 PUSH2 0x153 JUMP JUMPDEST JUMPDEST POP SWAP1 POP PUSH2 0x17C SWAP2 SWAP1 PUSH2 0x180 JUMP JUMPDEST POP SWAP1 JUMP JUMPDEST JUMPDEST DUP1 DUP3 GT ISZERO PUSH2 0x199 JUMPI PUSH1 0x0 DUP2 PUSH1 0x0 SWAP1 SSTORE POP PUSH1 0x1 ADD PUSH2 0x181 JUMP JUMPDEST POP SWAP1 JUMP JUMPDEST PUSH1 0x0 PUSH1 0x2 DUP3 DIV SWAP1 POP PUSH1 0x1 DUP3 AND DUP1 PUSH2 0x1B5 JUMPI PUSH1 0x7F DUP3 AND SWAP2 POP JUMPDEST PUSH1 0x20 DUP3 LT DUP2 EQ ISZERO PUSH2 0x1C9 JUMPI PUSH2 0x1C8 PUSH2 0x1CF JUMP JUMPDEST JUMPDEST POP SWAP2 SWAP1 POP JUMP JUMPDEST PUSH32 0x4E487B7100000000000000000000000000000000000000000000000000000000 PUSH1 0x0 MSTORE PUSH1 0x22 PUSH1 0x4 MSTORE PUSH1 0x24 PUSH1 0x0 REVERT JUMPDEST PUSH2 0x62D DUP1 PUSH2 0x20D PUSH1 0x0 CODECOPY PUSH1 0x0 RETURN INVALID PUSH1 0x80 PUSH1 0x40 MSTORE CALLVALUE DUP1 ISZERO PUSH2 0x10 JUMPI PUSH1 0x0 DUP1 REVERT JUMPDEST POP PUSH1 0x4 CALLDATASIZE LT PUSH2 0x57 JUMPI PUSH1 0x0 CALLDATALOAD PUSH1 0xE0 SHR DUP1 PUSH4 0x9FCA94F EQ PUSH2 0x5C JUMPI DUP1 PUSH4 0x1E228514 EQ PUSH2 0x8C JUMPI DUP1 PUSH4 0x6CC014DE EQ PUSH2 0xAA JUMPI DUP1 PUSH4 0x86B714E2 EQ PUSH2 0xC8 JUMPI DUP1 PUSH4 0xCFAE3217 EQ PUSH2 0xE6 JUMPI JUMPDEST PUSH1 0x0 DUP1 REVERT JUMPDEST PUSH2 0x76 PUSH1 0x4 DUP1 CALLDATASIZE SUB DUP2 ADD SWAP1 PUSH2 0x71 SWAP2 SWAP1 PUSH2 0x346 JUMP JUMPDEST PUSH2 0x104 JUMP JUMPDEST PUSH1 0x40 MLOAD PUSH2 0x83 SWAP2 SWAP1 PUSH2 0x4C0 JUMP JUMPDEST PUSH1 0x40 MLOAD DUP1 SWAP2 SUB SWAP1 RETURN JUMPDEST PUSH2 0x94 PUSH2 0x133 JUMP JUMPDEST PUSH1 0x40 MLOAD PUSH2 0xA1 SWAP2 SWAP1 PUSH2 0x4A5 JUMP JUMPDEST PUSH1 0x40 MLOAD DUP1 SWAP2 SUB SWAP1 RETURN JUMPDEST PUSH2 0xB2 PUSH2 0x146 JUMP JUMPDEST PUSH1 0x40 MLOAD PUSH2 0xBF SWAP2 SWAP1 PUSH2 0x4C0 JUMP JUMPDEST PUSH1 0x40 MLOAD DUP1 SWAP2 SUB SWAP1 RETURN JUMPDEST PUSH2 0xD0 PUSH2 0x1D4 JUMP JUMPDEST PUSH1 0x40 MLOAD PUSH2 0xDD SWAP2 SWAP1 PUSH2 0x4C0 JUMP JUMPDEST PUSH1 0x40 MLOAD DUP1 SWAP2 SUB SWAP1 RETURN JUMPDEST PUSH2 0xEE PUSH2 0x262 JUMP JUMPDEST PUSH1 0x40 MLOAD PUSH2 0xFB SWAP2 SWAP1 PUSH2 0x4C0 JUMP JUMPDEST PUSH1 0x40 MLOAD DUP1 SWAP2 SUB SWAP1 RETURN JUMPDEST PUSH1 0x60 PUSH1 0x0 DUP4 DUP4 PUSH1 0x40 MLOAD PUSH1 0x20 ADD PUSH2 0x11C SWAP4 SWAP3 SWAP2 SWAP1 PUSH2 0x47F JUMP JUMPDEST PUSH1 0x40 MLOAD PUSH1 0x20 DUP2 DUP4 SUB SUB DUP2 MSTORE SWAP1 PUSH1 0x40 MSTORE SWAP1 POP SWAP3 SWAP2 POP POP JUMP JUMPDEST PUSH1 0x3 PUSH1 0x0 SWAP1 SLOAD SWAP1 PUSH2 0x100 EXP SWAP1 DIV PUSH1 0xFF AND DUP2 JUMP JUMPDEST PUSH1 0x2 DUP1 SLOAD PUSH2 0x153 SWAP1 PUSH2 0x56C JUMP JUMPDEST DUP1 PUSH1 0x1F ADD PUSH1 0x20 DUP1 SWAP2 DIV MUL PUSH1 0x20 ADD PUSH1 0x40 MLOAD SWAP1 DUP2 ADD PUSH1 0x40 MSTORE DUP1 SWAP3 SWAP2 SWAP1 DUP2 DUP2 MSTORE PUSH1 0x20 ADD DUP3 DUP1 SLOAD PUSH2 0x17F SWAP1 PUSH2 0x56C JUMP JUMPDEST DUP1 ISZERO PUSH2 0x1CC JUMPI DUP1 PUSH1 0x1F LT PUSH2 0x1A1 JUMPI PUSH2 0x100 DUP1 DUP4 SLOAD DIV MUL DUP4 MSTORE SWAP2 PUSH1 0x20 ADD SWAP2 PUSH2 0x1CC JUMP JUMPDEST DUP3 ADD SWAP2 SWAP1 PUSH1 0x0 MSTORE PUSH1 0x20 PUSH1 0x0 KECCAK256 SWAP1 JUMPDEST DUP2 SLOAD DUP2 MSTORE SWAP1 PUSH1 0x1 ADD SWAP1 PUSH1 0x20 ADD DUP1 DUP4 GT PUSH2 0x1AF JUMPI DUP3 SWAP1 SUB PUSH1 0x1F AND DUP3 ADD SWAP2 JUMPDEST POP POP POP POP POP DUP2 JUMP JUMPDEST PUSH1 0x1 DUP1 SLOAD PUSH2 0x1E1 SWAP1 PUSH2 0x56C JUMP JUMPDEST DUP1 PUSH1 0x1F ADD PUSH1 0x20 DUP1 SWAP2 DIV MUL PUSH1 0x20 ADD PUSH1 0x40 MLOAD SWAP1 DUP2 ADD PUSH1 0x40 MSTORE DUP1 SWAP3 SWAP2 SWAP1 DUP2 DUP2 MSTORE PUSH1 0x20 ADD DUP3 DUP1 SLOAD PUSH2 0x20D SWAP1 PUSH2 0x56C JUMP JUMPDEST DUP1 ISZERO PUSH2 0x25A JUMPI DUP1 PUSH1 0x1F LT PUSH2 0x22F JUMPI PUSH2 0x100 DUP1 DUP4 SLOAD DIV MUL DUP4 MSTORE SWAP2 PUSH1 0x20 ADD SWAP2 PUSH2 0x25A JUMP JUMPDEST DUP3 ADD SWAP2 SWAP1 PUSH1 0x0 MSTORE PUSH1 0x20 PUSH1 0x0 KECCAK256 SWAP1 JUMPDEST DUP2 SLOAD DUP2 MSTORE SWAP1 PUSH1 0x1 ADD SWAP1 PUSH1 0x20 ADD DUP1 DUP4 GT PUSH2 0x23D JUMPI DUP3 SWAP1 SUB PUSH1 0x1F AND DUP3 ADD SWAP2 JUMPDEST POP POP POP POP POP DUP2 JUMP JUMPDEST PUSH1 0x0 DUP1 SLOAD PUSH2 0x26F SWAP1 PUSH2 0x56C JUMP JUMPDEST DUP1 PUSH1 0x1F ADD PUSH1 0x20 DUP1 SWAP2 DIV MUL PUSH1 0x20 ADD PUSH1 0x40 MLOAD SWAP1 DUP2 ADD PUSH1 0x40 MSTORE DUP1 SWAP3 SWAP2 SWAP1 DUP2 DUP2 MSTORE PUSH1 0x20 ADD DUP3 DUP1 SLOAD PUSH2 0x29B SWAP1 PUSH2 0x56C JUMP JUMPDEST DUP1 ISZERO PUSH2 0x2E8 JUMPI DUP1 PUSH1 0x1F LT PUSH2 0x2BD JUMPI PUSH2 0x100 DUP1 DUP4 SLOAD DIV MUL DUP4 MSTORE SWAP2 PUSH1 0x20 ADD SWAP2 PUSH2 0x2E8 JUMP JUMPDEST DUP3 ADD SWAP2 SWAP1 PUSH1 0x0 MSTORE PUSH1 0x20 PUSH1 0x0 KECCAK256 SWAP1 JUMPDEST DUP2 SLOAD DUP2 MSTORE SWAP1 PUSH1 0x1 ADD SWAP1 PUSH1 0x20 ADD DUP1 DUP4 GT PUSH2 0x2CB JUMPI DUP3 SWAP1 SUB PUSH1 0x1F AND DUP3 ADD SWAP2 JUMPDEST POP POP POP POP POP DUP2 JUMP JUMPDEST PUSH1 0x0 DUP1 DUP4 PUSH1 0x1F DUP5 ADD SLT PUSH2 0x306 JUMPI PUSH2 0x305 PUSH2 0x5D2 JUMP JUMPDEST JUMPDEST DUP3 CALLDATALOAD SWAP1 POP PUSH8 0xFFFFFFFFFFFFFFFF DUP2 GT ISZERO PUSH2 0x323 JUMPI PUSH2 0x322 PUSH2 0x5CD JUMP JUMPDEST JUMPDEST PUSH1 0x20 DUP4 ADD SWAP2 POP DUP4 PUSH1 0x1 DUP3 MUL DUP4 ADD GT ISZERO PUSH2 0x33F JUMPI PUSH2 0x33E PUSH2 0x5D7 JUMP JUMPDEST JUMPDEST SWAP3 POP SWAP3 SWAP1 POP JUMP JUMPDEST PUSH1 0x0 DUP1 PUSH1 0x20 DUP4 DUP6 SUB SLT ISZERO PUSH2 0x35D JUMPI PUSH2 0x35C PUSH2 0x5E1 JUMP JUMPDEST JUMPDEST PUSH1 0x0 DUP4 ADD CALLDATALOAD PUSH8 0xFFFFFFFFFFFFFFFF DUP2 GT ISZERO PUSH2 0x37B JUMPI PUSH2 0x37A PUSH2 0x5DC JUMP JUMPDEST JUMPDEST PUSH2 0x387 DUP6 DUP3 DUP7 ADD PUSH2 0x2F0 JUMP JUMPDEST SWAP3 POP SWAP3 POP POP SWAP3 POP SWAP3 SWAP1 POP JUMP JUMPDEST PUSH2 0x39C DUP2 PUSH2 0x51E JUMP JUMPDEST DUP3 MSTORE POP POP JUMP JUMPDEST PUSH1 0x0 PUSH2 0x3AE DUP4 DUP6 PUSH2 0x502 JUMP JUMPDEST SWAP4 POP PUSH2 0x3BB DUP4 DUP6 DUP5 PUSH2 0x52A JUMP JUMPDEST DUP3 DUP5 ADD SWAP1 POP SWAP4 SWAP3 POP POP POP JUMP JUMPDEST PUSH1 0x0 DUP2 SLOAD PUSH2 0x3D4 DUP2 PUSH2 0x56C JUMP JUMPDEST PUSH2 0x3DE DUP2 DUP7 PUSH2 0x502 JUMP JUMPDEST SWAP5 POP PUSH1 0x1 DUP3 AND PUSH1 0x0 DUP2 EQ PUSH2 0x3F9 JUMPI PUSH1 0x1 DUP2 EQ PUSH2 0x40A JUMPI PUSH2 0x43D JUMP JUMPDEST PUSH1 0xFF NOT DUP4 AND DUP7 MSTORE DUP2 DUP7 ADD SWAP4 POP PUSH2 0x43D JUMP JUMPDEST PUSH2 0x413 DUP6 PUSH2 0x4E2 JUMP JUMPDEST PUSH1 0x0 JUMPDEST DUP4 DUP2 LT ISZERO PUSH2 0x435 JUMPI DUP2 SLOAD DUP2 DUP10 ADD MSTORE PUSH1 0x1 DUP3 ADD SWAP2 POP PUSH1 0x20 DUP2 ADD SWAP1 POP PUSH2 0x416 JUMP JUMPDEST DUP4 DUP9 ADD SWAP6 POP POP POP JUMPDEST POP POP POP SWAP3 SWAP2 POP POP JUMP JUMPDEST PUSH1 0x0 PUSH2 0x451 DUP3 PUSH2 0x4F7 JUMP JUMPDEST PUSH2 0x45B DUP2 DUP6 PUSH2 0x50D JUMP JUMPDEST SWAP4 POP PUSH2 0x46B DUP2 DUP6 PUSH1 0x20 DUP7 ADD PUSH2 0x539 JUMP JUMPDEST PUSH2 0x474 DUP2 PUSH2 0x5E6 JUMP JUMPDEST DUP5 ADD SWAP2 POP POP SWAP3 SWAP2 POP POP JUMP JUMPDEST PUSH1 0x0 PUSH2 0x48B DUP3 DUP7 PUSH2 0x3C7 JUMP JUMPDEST SWAP2 POP PUSH2 0x498 DUP3 DUP5 DUP7 PUSH2 0x3A2 JUMP JUMPDEST SWAP2 POP DUP2 SWAP1 POP SWAP5 SWAP4 POP POP POP POP JUMP JUMPDEST PUSH1 0x0 PUSH1 0x20 DUP3 ADD SWAP1 POP PUSH2 0x4BA PUSH1 0x0 DUP4 ADD DUP5 PUSH2 0x393 JUMP JUMPDEST SWAP3 SWAP2 POP POP JUMP JUMPDEST PUSH1 0x0 PUSH1 0x20 DUP3 ADD SWAP1 POP DUP2 DUP2 SUB PUSH1 0x0 DUP4 ADD MSTORE PUSH2 0x4DA DUP2 DUP5 PUSH2 0x446 JUMP JUMPDEST SWAP1 POP SWAP3 SWAP2 POP POP JUMP JUMPDEST PUSH1 0x0 DUP2 SWAP1 POP DUP2 PUSH1 0x0 MSTORE PUSH1 0x20 PUSH1 0x0 KECCAK256 SWAP1 POP SWAP2 SWAP1 POP JUMP JUMPDEST PUSH1 0x0 DUP2 MLOAD SWAP1 POP SWAP2 SWAP1 POP JUMP JUMPDEST PUSH1 0x0 DUP2 SWAP1 POP SWAP3 SWAP2 POP POP JUMP JUMPDEST PUSH1 0x0 DUP3 DUP3 MSTORE PUSH1 0x20 DUP3 ADD SWAP1 POP SWAP3 SWAP2 POP POP JUMP JUMPDEST PUSH1 0x0 DUP2 ISZERO ISZERO SWAP1 POP SWAP2 SWAP1 POP JUMP JUMPDEST DUP3 DUP2 DUP4 CALLDATACOPY PUSH1 0x0 DUP4 DUP4 ADD MSTORE POP POP POP JUMP JUMPDEST PUSH1 0x0 JUMPDEST DUP4 DUP2 LT ISZERO PUSH2 0x557 JUMPI DUP1 DUP3 ADD MLOAD DUP2 DUP5 ADD MSTORE PUSH1 0x20 DUP2 ADD SWAP1 POP PUSH2 0x53C JUMP JUMPDEST DUP4 DUP2 GT ISZERO PUSH2 0x566 JUMPI PUSH1 0x0 DUP5 DUP5 ADD MSTORE JUMPDEST POP POP POP POP JUMP JUMPDEST PUSH1 0x0 PUSH1 0x2 DUP3 DIV SWAP1 POP PUSH1 0x1 DUP3 AND DUP1 PUSH2 0x584 JUMPI PUSH1 0x7F DUP3 AND SWAP2 POP JUMPDEST PUSH1 0x20 DUP3 LT DUP2 EQ ISZERO PUSH2 0x598 JUMPI PUSH2 0x597 PUSH2 0x59E JUMP JUMPDEST JUMPDEST POP SWAP2 SWAP1 POP JUMP JUMPDEST PUSH32 0x4E487B7100000000000000000000000000000000000000000000000000000000 PUSH1 0x0 MSTORE PUSH1 0x22 PUSH1 0x4 MSTORE PUSH1 0x24 PUSH1 0x0 REVERT JUMPDEST PUSH1 0x0 DUP1 REVERT JUMPDEST PUSH1 0x0 DUP1 REVERT JUMPDEST PUSH1 0x0 DUP1 REVERT JUMPDEST PUSH1 0x0 DUP1 REVERT JUMPDEST PUSH1 0x0 DUP1 REVERT JUMPDEST PUSH1 0x0 PUSH1 0x1F NOT PUSH1 0x1F DUP4 ADD AND SWAP1 POP SWAP2 SWAP1 POP JUMP INVALID LOG2 PUSH5 0x6970667358 0x22 SLT KECCAK256 0xDF SLT DUP16 0xE3 0xFB 0xDB 0xDF 0x5D DIFFICULTY PUSH29 0x9C8BAA145B5D492844F76D588BA1521CABFFF372095E64736F6C634300 ADDMOD SMOD STOP CALLER "
				},
				"gasEstimates": {
					"creation": {
						"codeDepositCost": "316200",
						"executionCost": "infinite",
						"totalCost": "infinite"
					},
					"external": {
						"equal()": "2471",
						"greet()": "infinite",
						"s()": "infinite",
						"s1()": "infinite",
						"str(string)": "infinite"
					}
				},
				"methodIdentifiers": {
					"equal()": "1e228514",
					"greet()": "cfae3217",
					"s()": "86b714e2",
					"s1()": "6cc014de",
					"str(string)": "09fca94f"
				}
			},
			"storageLayout": {
				"storage": [
					{
						"astId": 4,
						"contract": "study/chapter07/stirngOpt.sol:Hello",
						"label": "greet",
						"offset": 0,
						"slot": "0",
						"type": "t_string_storage"
					},
					{
						"astId": 31,
						"contract": "study/chapter07/stirngOpt.sol:Hello",
						"label": "s",
						"offset": 0,
						"slot": "1",
						"type": "t_string_storage"
					},
					{
						"astId": 34,
						"contract": "study/chapter07/stirngOpt.sol:Hello",
						"label": "s1",
						"offset": 0,
						"slot": "2",
						"type": "t_string_storage"
					},
					{
						"astId": 36,
						"contract": "study/chapter07/stirngOpt.sol:Hello",
						"label": "equal",
						"offset": 0,
						"slot": "3",
						"type": "t_bool"
					}
				],
				"types": {
					"t_bool": {
						"encoding": "inplace",
						"label": "bool",
						"numberOfBytes": "1"
					},
					"t_string_storage": {
						"encoding": "bytes",
						"label": "string",
						"numberOfBytes": "32"
					}
				}
			},
			"userdoc": {
				"kind": "user",
				"methods": {},
				"version": 1
			}
		}
	}
}