{
	"study/chapter07/arryBasicPuls.sol": {
		"testArray": {
			"abi": [
				{
					"inputs": [],
					"name": "arryReturn",
					"outputs": [
						{
							"internalType": "uint256[]",
							"name": "",
							"type": "uint256[]"
						}
					],
					"stateMutability": "nonpayable",
					"type": "function"
				},
				{
					"inputs": [
						{
							"internalType": "uint256",
							"name": "",
							"type": "uint256"
						}
					],
					"name": "num",
					"outputs": [
						{
							"internalType": "uint256",
							"name": "",
							"type": "uint256"
						}
					],
					"stateMutability": "view",
					"type": "function"
				},
				{
					"inputs": [
						{
							"internalType": "uint256",
							"name": "",
							"type": "uint256"
						}
					],
					"name": "numFixed",
					"outputs": [
						{
							"internalType": "uint256",
							"name": "",
							"type": "uint256"
						}
					],
					"stateMutability": "view",
					"type": "function"
				}
			],
			"devdoc": {
				"kind": "dev",
				"methods": {},
				"version": 1
			},
			"evm": {
				"assembly": "    /* \"study/chapter07/arryBasicPuls.sol\":55:441  contract testArray{... */\n  mstore(0x40, 0x80)\n    /* \"study/chapter07/arryBasicPuls.sol\":102:131  uint[3] public numFixed = [1] */\n  mload(0x40)\n  dup1\n  0x20\n  add\n  0x40\n  mstore\n  dup1\n    /* \"study/chapter07/arryBasicPuls.sol\":129:130  1 */\n  0x01\n    /* \"study/chapter07/arryBasicPuls.sol\":102:131  uint[3] public numFixed = [1] */\n  0xff\n  and\n  dup2\n  mstore\n  pop\n  0x01\n  swap1\n  0x01\n  tag_1\n  swap3\n  swap2\n  swap1\n  tag_2\n  jump\t// in\ntag_1:\n  pop\n    /* \"study/chapter07/arryBasicPuls.sol\":55:441  contract testArray{... */\n  callvalue\n  dup1\n  iszero\n  tag_3\n  jumpi\n  0x00\n  dup1\n  revert\ntag_3:\n  pop\n  jump(tag_4)\ntag_2:\n  dup3\n  0x03\n  dup2\n  add\n  swap3\n  dup3\n  iszero\n  tag_5\n  jumpi\n  swap2\n  0x20\n  mul\n  dup3\n  add\ntag_6:\n  dup3\n  dup2\n  gt\n  iszero\n  tag_7\n  jumpi\n  dup3\n  mload\n  dup3\n  swap1\n  0xff\n  and\n  swap1\n  sstore\n  swap2\n  0x20\n  add\n  swap2\n  swap1\n  0x01\n  add\n  swap1\n  jump(tag_6)\ntag_7:\ntag_5:\n  pop\n  swap1\n  pop\n  tag_8\n  swap2\n  swap1\n  tag_9\n  jump\t// in\ntag_8:\n  pop\n  swap1\n  jump\t// out\ntag_9:\ntag_10:\n  dup1\n  dup3\n  gt\n  iszero\n  tag_11\n  jumpi\n  0x00\n  dup2\n  0x00\n  swap1\n  sstore\n  pop\n  0x01\n  add\n  jump(tag_10)\ntag_11:\n  pop\n  swap1\n  jump\t// out\ntag_4:\n  dataSize(sub_0)\n  dup1\n  dataOffset(sub_0)\n  0x00\n  codecopy\n  0x00\n  return\nstop\n\nsub_0: assembly {\n        /* \"study/chapter07/arryBasicPuls.sol\":55:441  contract testArray{... */\n      mstore(0x40, 0x80)\n      callvalue\n      dup1\n      iszero\n      tag_1\n      jumpi\n      0x00\n      dup1\n      revert\n    tag_1:\n      pop\n      jumpi(tag_2, lt(calldatasize, 0x04))\n      shr(0xe0, calldataload(0x00))\n      dup1\n      0x3c521a19\n      eq\n      tag_3\n      jumpi\n      dup1\n      0x5331fdeb\n      eq\n      tag_4\n      jumpi\n      dup1\n      0xaa228b75\n      eq\n      tag_5\n      jumpi\n    tag_2:\n      0x00\n      dup1\n      revert\n        /* \"study/chapter07/arryBasicPuls.sol\":137:438  function arryReturn()external  returns(uint[] memory ){... */\n    tag_3:\n      tag_6\n      tag_7\n      jump\t// in\n    tag_6:\n      mload(0x40)\n      tag_8\n      swap2\n      swap1\n      tag_9\n      jump\t// in\n    tag_8:\n      mload(0x40)\n      dup1\n      swap2\n      sub\n      swap1\n      return\n        /* \"study/chapter07/arryBasicPuls.sol\":102:131  uint[3] public numFixed = [1] */\n    tag_4:\n      tag_10\n      0x04\n      dup1\n      calldatasize\n      sub\n      dup2\n      add\n      swap1\n      tag_11\n      swap2\n      swap1\n      tag_12\n      jump\t// in\n    tag_11:\n      tag_13\n      jump\t// in\n    tag_10:\n      mload(0x40)\n      tag_14\n      swap2\n      swap1\n      tag_15\n      jump\t// in\n    tag_14:\n      mload(0x40)\n      dup1\n      swap2\n      sub\n      swap1\n      return\n        /* \"study/chapter07/arryBasicPuls.sol\":79:96  uint[] public num */\n    tag_5:\n      tag_16\n      0x04\n      dup1\n      calldatasize\n      sub\n      dup2\n      add\n      swap1\n      tag_17\n      swap2\n      swap1\n      tag_12\n      jump\t// in\n    tag_17:\n      tag_18\n      jump\t// in\n    tag_16:\n      mload(0x40)\n      tag_19\n      swap2\n      swap1\n      tag_15\n      jump\t// in\n    tag_19:\n      mload(0x40)\n      dup1\n      swap2\n      sub\n      swap1\n      return\n        /* \"study/chapter07/arryBasicPuls.sol\":137:438  function arryReturn()external  returns(uint[] memory ){... */\n    tag_7:\n        /* \"study/chapter07/arryBasicPuls.sol\":176:189  uint[] memory */\n      0x60\n        /* \"study/chapter07/arryBasicPuls.sol\":201:204  num */\n      0x00\n        /* \"study/chapter07/arryBasicPuls.sol\":210:211  1 */\n      0x01\n        /* \"study/chapter07/arryBasicPuls.sol\":201:212  num.push(1) */\n      swap1\n      dup1\n      0x01\n      dup2\n      sload\n      add\n      dup1\n      dup3\n      sstore\n      dup1\n      swap2\n      pop\n      pop\n      0x01\n      swap1\n      sub\n      swap1\n      0x00\n      mstore\n      keccak256(0x00, 0x20)\n      add\n      0x00\n      swap1\n      swap2\n      swap1\n      swap2\n      swap1\n      swap2\n      pop\n      sstore\n        /* \"study/chapter07/arryBasicPuls.sol\":222:225  num */\n      0x00\n        /* \"study/chapter07/arryBasicPuls.sol\":231:232  2 */\n      0x02\n        /* \"study/chapter07/arryBasicPuls.sol\":222:233  num.push(2) */\n      swap1\n      dup1\n      0x01\n      dup2\n      sload\n      add\n      dup1\n      dup3\n      sstore\n      dup1\n      swap2\n      pop\n      pop\n      0x01\n      swap1\n      sub\n      swap1\n      0x00\n      mstore\n      keccak256(0x00, 0x20)\n      add\n      0x00\n      swap1\n      swap2\n      swap1\n      swap2\n      swap1\n      swap2\n      pop\n      sstore\n        /* \"study/chapter07/arryBasicPuls.sol\":313:329  uint[] storage a */\n      0x00\n        /* \"study/chapter07/arryBasicPuls.sol\":387:388  5 */\n      0x05\n        /* \"study/chapter07/arryBasicPuls.sol\":382:383  a */\n      dup2\n        /* \"study/chapter07/arryBasicPuls.sol\":384:385  0 */\n      0x00\n        /* \"study/chapter07/arryBasicPuls.sol\":382:386  a[0] */\n      dup2\n      sload\n      dup2\n      lt\n      tag_23\n      jumpi\n      mstore(0x00, 0x4e487b7100000000000000000000000000000000000000000000000000000000)\n      mstore(0x04, 0x32)\n      revert(0x00, 0x24)\n    tag_23:\n      swap1\n      0x00\n      mstore\n      keccak256(0x00, 0x20)\n      add\n        /* \"study/chapter07/arryBasicPuls.sol\":382:388  a[0]=5 */\n      dup2\n      swap1\n      sstore\n      pop\n        /* \"study/chapter07/arryBasicPuls.sol\":408:411  num */\n      0x00\n        /* \"study/chapter07/arryBasicPuls.sol\":401:411  return num */\n      dup1\n      sload\n      dup1\n      0x20\n      mul\n      0x20\n      add\n      mload(0x40)\n      swap1\n      dup2\n      add\n      0x40\n      mstore\n      dup1\n      swap3\n      swap2\n      swap1\n      dup2\n      dup2\n      mstore\n      0x20\n      add\n      dup3\n      dup1\n      sload\n      dup1\n      iszero\n      tag_25\n      jumpi\n      0x20\n      mul\n      dup3\n      add\n      swap2\n      swap1\n      0x00\n      mstore\n      keccak256(0x00, 0x20)\n      swap1\n    tag_26:\n      dup2\n      sload\n      dup2\n      mstore\n      0x20\n      add\n      swap1\n      0x01\n      add\n      swap1\n      dup1\n      dup4\n      gt\n      tag_26\n      jumpi\n    tag_25:\n      pop\n      pop\n      pop\n      pop\n      pop\n      swap2\n      pop\n      pop\n        /* \"study/chapter07/arryBasicPuls.sol\":137:438  function arryReturn()external  returns(uint[] memory ){... */\n      swap1\n      jump\t// out\n        /* \"study/chapter07/arryBasicPuls.sol\":102:131  uint[3] public numFixed = [1] */\n    tag_13:\n      0x01\n      dup2\n      0x03\n      dup2\n      lt\n      tag_27\n      jumpi\n      0x00\n      dup1\n      revert\n    tag_27:\n      add\n      0x00\n      swap2\n      pop\n      swap1\n      pop\n      sload\n      dup2\n      jump\t// out\n        /* \"study/chapter07/arryBasicPuls.sol\":79:96  uint[] public num */\n    tag_18:\n      0x00\n      dup2\n      dup2\n      sload\n      dup2\n      lt\n      tag_29\n      jumpi\n      0x00\n      dup1\n      revert\n    tag_29:\n      swap1\n      0x00\n      mstore\n      keccak256(0x00, 0x20)\n      add\n      0x00\n      swap2\n      pop\n      swap1\n      pop\n      sload\n      dup2\n      jump\t// out\n        /* \"#utility.yul\":7:146   */\n    tag_32:\n      0x00\n        /* \"#utility.yul\":91:97   */\n      dup2\n        /* \"#utility.yul\":78:98   */\n      calldataload\n        /* \"#utility.yul\":69:98   */\n      swap1\n      pop\n        /* \"#utility.yul\":107:140   */\n      tag_34\n        /* \"#utility.yul\":134:139   */\n      dup2\n        /* \"#utility.yul\":107:140   */\n      tag_35\n      jump\t// in\n    tag_34:\n        /* \"#utility.yul\":59:146   */\n      swap3\n      swap2\n      pop\n      pop\n      jump\t// out\n        /* \"#utility.yul\":152:414   */\n    tag_12:\n      0x00\n        /* \"#utility.yul\":260:262   */\n      0x20\n        /* \"#utility.yul\":248:257   */\n      dup3\n        /* \"#utility.yul\":239:246   */\n      dup5\n        /* \"#utility.yul\":235:258   */\n      sub\n        /* \"#utility.yul\":231:263   */\n      slt\n        /* \"#utility.yul\":228:230   */\n      iszero\n      tag_37\n      jumpi\n        /* \"#utility.yul\":276:277   */\n      0x00\n        /* \"#utility.yul\":273:274   */\n      dup1\n        /* \"#utility.yul\":266:278   */\n      revert\n        /* \"#utility.yul\":228:230   */\n    tag_37:\n        /* \"#utility.yul\":319:320   */\n      0x00\n        /* \"#utility.yul\":344:397   */\n      tag_38\n        /* \"#utility.yul\":389:396   */\n      dup5\n        /* \"#utility.yul\":380:386   */\n      dup3\n        /* \"#utility.yul\":369:378   */\n      dup6\n        /* \"#utility.yul\":365:387   */\n      add\n        /* \"#utility.yul\":344:397   */\n      tag_32\n      jump\t// in\n    tag_38:\n        /* \"#utility.yul\":334:397   */\n      swap2\n      pop\n        /* \"#utility.yul\":290:407   */\n      pop\n        /* \"#utility.yul\":218:414   */\n      swap3\n      swap2\n      pop\n      pop\n      jump\t// out\n        /* \"#utility.yul\":420:599   */\n    tag_39:\n      0x00\n        /* \"#utility.yul\":510:556   */\n      tag_41\n        /* \"#utility.yul\":552:555   */\n      dup4\n        /* \"#utility.yul\":544:550   */\n      dup4\n        /* \"#utility.yul\":510:556   */\n      tag_42\n      jump\t// in\n    tag_41:\n        /* \"#utility.yul\":588:592   */\n      0x20\n        /* \"#utility.yul\":583:586   */\n      dup4\n        /* \"#utility.yul\":579:593   */\n      add\n        /* \"#utility.yul\":565:593   */\n      swap1\n      pop\n        /* \"#utility.yul\":500:599   */\n      swap3\n      swap2\n      pop\n      pop\n      jump\t// out\n        /* \"#utility.yul\":635:1367   */\n    tag_43:\n      0x00\n        /* \"#utility.yul\":783:837   */\n      tag_45\n        /* \"#utility.yul\":831:836   */\n      dup3\n        /* \"#utility.yul\":783:837   */\n      tag_46\n      jump\t// in\n    tag_45:\n        /* \"#utility.yul\":853:939   */\n      tag_47\n        /* \"#utility.yul\":932:938   */\n      dup2\n        /* \"#utility.yul\":927:930   */\n      dup6\n        /* \"#utility.yul\":853:939   */\n      tag_48\n      jump\t// in\n    tag_47:\n        /* \"#utility.yul\":846:939   */\n      swap4\n      pop\n        /* \"#utility.yul\":963:1019   */\n      tag_49\n        /* \"#utility.yul\":1013:1018   */\n      dup4\n        /* \"#utility.yul\":963:1019   */\n      tag_50\n      jump\t// in\n    tag_49:\n        /* \"#utility.yul\":1042:1049   */\n      dup1\n        /* \"#utility.yul\":1073:1074   */\n      0x00\n        /* \"#utility.yul\":1058:1342   */\n    tag_51:\n        /* \"#utility.yul\":1083:1089   */\n      dup4\n        /* \"#utility.yul\":1080:1081   */\n      dup2\n        /* \"#utility.yul\":1077:1090   */\n      lt\n        /* \"#utility.yul\":1058:1342   */\n      iszero\n      tag_53\n      jumpi\n        /* \"#utility.yul\":1159:1165   */\n      dup2\n        /* \"#utility.yul\":1153:1166   */\n      mload\n        /* \"#utility.yul\":1186:1249   */\n      tag_54\n        /* \"#utility.yul\":1245:1248   */\n      dup9\n        /* \"#utility.yul\":1230:1243   */\n      dup3\n        /* \"#utility.yul\":1186:1249   */\n      tag_39\n      jump\t// in\n    tag_54:\n        /* \"#utility.yul\":1179:1249   */\n      swap8\n      pop\n        /* \"#utility.yul\":1272:1332   */\n      tag_55\n        /* \"#utility.yul\":1325:1331   */\n      dup4\n        /* \"#utility.yul\":1272:1332   */\n      tag_56\n      jump\t// in\n    tag_55:\n        /* \"#utility.yul\":1262:1332   */\n      swap3\n      pop\n        /* \"#utility.yul\":1118:1342   */\n      pop\n        /* \"#utility.yul\":1105:1106   */\n      0x01\n        /* \"#utility.yul\":1102:1103   */\n      dup2\n        /* \"#utility.yul\":1098:1107   */\n      add\n        /* \"#utility.yul\":1093:1107   */\n      swap1\n      pop\n        /* \"#utility.yul\":1058:1342   */\n      jump(tag_51)\n    tag_53:\n        /* \"#utility.yul\":1062:1076   */\n      pop\n        /* \"#utility.yul\":1358:1361   */\n      dup6\n        /* \"#utility.yul\":1351:1361   */\n      swap4\n      pop\n        /* \"#utility.yul\":759:1367   */\n      pop\n      pop\n      pop\n      swap3\n      swap2\n      pop\n      pop\n      jump\t// out\n        /* \"#utility.yul\":1373:1481   */\n    tag_42:\n        /* \"#utility.yul\":1450:1474   */\n      tag_58\n        /* \"#utility.yul\":1468:1473   */\n      dup2\n        /* \"#utility.yul\":1450:1474   */\n      tag_59\n      jump\t// in\n    tag_58:\n        /* \"#utility.yul\":1445:1448   */\n      dup3\n        /* \"#utility.yul\":1438:1475   */\n      mstore\n        /* \"#utility.yul\":1428:1481   */\n      pop\n      pop\n      jump\t// out\n        /* \"#utility.yul\":1487:1605   */\n    tag_60:\n        /* \"#utility.yul\":1574:1598   */\n      tag_62\n        /* \"#utility.yul\":1592:1597   */\n      dup2\n        /* \"#utility.yul\":1574:1598   */\n      tag_59\n      jump\t// in\n    tag_62:\n        /* \"#utility.yul\":1569:1572   */\n      dup3\n        /* \"#utility.yul\":1562:1599   */\n      mstore\n        /* \"#utility.yul\":1552:1605   */\n      pop\n      pop\n      jump\t// out\n        /* \"#utility.yul\":1611:1984   */\n    tag_9:\n      0x00\n        /* \"#utility.yul\":1792:1794   */\n      0x20\n        /* \"#utility.yul\":1781:1790   */\n      dup3\n        /* \"#utility.yul\":1777:1795   */\n      add\n        /* \"#utility.yul\":1769:1795   */\n      swap1\n      pop\n        /* \"#utility.yul\":1841:1850   */\n      dup2\n        /* \"#utility.yul\":1835:1839   */\n      dup2\n        /* \"#utility.yul\":1831:1851   */\n      sub\n        /* \"#utility.yul\":1827:1828   */\n      0x00\n        /* \"#utility.yul\":1816:1825   */\n      dup4\n        /* \"#utility.yul\":1812:1829   */\n      add\n        /* \"#utility.yul\":1805:1852   */\n      mstore\n        /* \"#utility.yul\":1869:1977   */\n      tag_64\n        /* \"#utility.yul\":1972:1976   */\n      dup2\n        /* \"#utility.yul\":1963:1969   */\n      dup5\n        /* \"#utility.yul\":1869:1977   */\n      tag_43\n      jump\t// in\n    tag_64:\n        /* \"#utility.yul\":1861:1977   */\n      swap1\n      pop\n        /* \"#utility.yul\":1759:1984   */\n      swap3\n      swap2\n      pop\n      pop\n      jump\t// out\n        /* \"#utility.yul\":1990:2212   */\n    tag_15:\n      0x00\n        /* \"#utility.yul\":2121:2123   */\n      0x20\n        /* \"#utility.yul\":2110:2119   */\n      dup3\n        /* \"#utility.yul\":2106:2124   */\n      add\n        /* \"#utility.yul\":2098:2124   */\n      swap1\n      pop\n        /* \"#utility.yul\":2134:2205   */\n      tag_66\n        /* \"#utility.yul\":2202:2203   */\n      0x00\n        /* \"#utility.yul\":2191:2200   */\n      dup4\n        /* \"#utility.yul\":2187:2204   */\n      add\n        /* \"#utility.yul\":2178:2184   */\n      dup5\n        /* \"#utility.yul\":2134:2205   */\n      tag_60\n      jump\t// in\n    tag_66:\n        /* \"#utility.yul\":2088:2212   */\n      swap3\n      swap2\n      pop\n      pop\n      jump\t// out\n        /* \"#utility.yul\":2218:2350   */\n    tag_50:\n      0x00\n        /* \"#utility.yul\":2308:2311   */\n      dup2\n        /* \"#utility.yul\":2300:2311   */\n      swap1\n      pop\n        /* \"#utility.yul\":2338:2342   */\n      0x20\n        /* \"#utility.yul\":2333:2336   */\n      dup3\n        /* \"#utility.yul\":2329:2343   */\n      add\n        /* \"#utility.yul\":2321:2343   */\n      swap1\n      pop\n        /* \"#utility.yul\":2290:2350   */\n      swap2\n      swap1\n      pop\n      jump\t// out\n        /* \"#utility.yul\":2356:2470   */\n    tag_46:\n      0x00\n        /* \"#utility.yul\":2457:2462   */\n      dup2\n        /* \"#utility.yul\":2451:2463   */\n      mload\n        /* \"#utility.yul\":2441:2463   */\n      swap1\n      pop\n        /* \"#utility.yul\":2430:2470   */\n      swap2\n      swap1\n      pop\n      jump\t// out\n        /* \"#utility.yul\":2476:2589   */\n    tag_56:\n      0x00\n        /* \"#utility.yul\":2578:2582   */\n      0x20\n        /* \"#utility.yul\":2573:2576   */\n      dup3\n        /* \"#utility.yul\":2569:2583   */\n      add\n        /* \"#utility.yul\":2561:2583   */\n      swap1\n      pop\n        /* \"#utility.yul\":2551:2589   */\n      swap2\n      swap1\n      pop\n      jump\t// out\n        /* \"#utility.yul\":2595:2779   */\n    tag_48:\n      0x00\n        /* \"#utility.yul\":2728:2734   */\n      dup3\n        /* \"#utility.yul\":2723:2726   */\n      dup3\n        /* \"#utility.yul\":2716:2735   */\n      mstore\n        /* \"#utility.yul\":2768:2772   */\n      0x20\n        /* \"#utility.yul\":2763:2766   */\n      dup3\n        /* \"#utility.yul\":2759:2773   */\n      add\n        /* \"#utility.yul\":2744:2773   */\n      swap1\n      pop\n        /* \"#utility.yul\":2706:2779   */\n      swap3\n      swap2\n      pop\n      pop\n      jump\t// out\n        /* \"#utility.yul\":2785:2862   */\n    tag_59:\n      0x00\n        /* \"#utility.yul\":2851:2856   */\n      dup2\n        /* \"#utility.yul\":2840:2856   */\n      swap1\n      pop\n        /* \"#utility.yul\":2830:2862   */\n      swap2\n      swap1\n      pop\n      jump\t// out\n        /* \"#utility.yul\":2868:2990   */\n    tag_35:\n        /* \"#utility.yul\":2941:2965   */\n      tag_73\n        /* \"#utility.yul\":2959:2964   */\n      dup2\n        /* \"#utility.yul\":2941:2965   */\n      tag_59\n      jump\t// in\n    tag_73:\n        /* \"#utility.yul\":2934:2939   */\n      dup2\n        /* \"#utility.yul\":2931:2966   */\n      eq\n        /* \"#utility.yul\":2921:2923   */\n      tag_74\n      jumpi\n        /* \"#utility.yul\":2980:2981   */\n      0x00\n        /* \"#utility.yul\":2977:2978   */\n      dup1\n        /* \"#utility.yul\":2970:2982   */\n      revert\n        /* \"#utility.yul\":2921:2923   */\n    tag_74:\n        /* \"#utility.yul\":2911:2990   */\n      pop\n      jump\t// out\n\n    auxdata: 0xa2646970667358221220951e1a49f55e2d2fd145114527c90591bf50caee5570267d7376a124a1dfe55c64736f6c63430008000033\n}\n",
				"bytecode": {
					"linkReferences": {},
					"object": "60806040526040518060200160405280600160ff16815250600190600161002792919061003a565b5034801561003457600080fd5b5061009c565b826003810192821561006e579160200282015b8281111561006d578251829060ff1690559160200191906001019061004d565b5b50905061007b919061007f565b5090565b5b80821115610098576000816000905550600101610080565b5090565b61039b806100ab6000396000f3fe608060405234801561001057600080fd5b50600436106100415760003560e01c80633c521a19146100465780635331fdeb14610064578063aa228b7514610094575b600080fd5b61004e6100c4565b60405161005b91906102ce565b60405180910390f35b61007e60048036038101906100799190610211565b6101bd565b60405161008b91906102f0565b60405180910390f35b6100ae60048036038101906100a99190610211565b6101d8565b6040516100bb91906102f0565b60405180910390f35b60606000600190806001815401808255809150506001900390600052602060002001600090919091909150556000600290806001815401808255809150506001900390600052602060002001600090919091909150556000600581600081548110610158577f4e487b7100000000000000000000000000000000000000000000000000000000600052603260045260246000fd5b906000526020600020018190555060008054806020026020016040519081016040528092919081815260200182805480156101b257602002820191906000526020600020905b81548152602001906001019080831161019e575b505050505091505090565b600181600381106101cd57600080fd5b016000915090505481565b600081815481106101e857600080fd5b906000526020600020016000915090505481565b60008135905061020b8161034e565b92915050565b60006020828403121561022357600080fd5b6000610231848285016101fc565b91505092915050565b600061024683836102b0565b60208301905092915050565b600061025d8261031b565b6102678185610333565b93506102728361030b565b8060005b838110156102a357815161028a888261023a565b975061029583610326565b925050600181019050610276565b5085935050505092915050565b6102b981610344565b82525050565b6102c881610344565b82525050565b600060208201905081810360008301526102e88184610252565b905092915050565b600060208201905061030560008301846102bf565b92915050565b6000819050602082019050919050565b600081519050919050565b6000602082019050919050565b600082825260208201905092915050565b6000819050919050565b61035781610344565b811461036257600080fd5b5056fea2646970667358221220951e1a49f55e2d2fd145114527c90591bf50caee5570267d7376a124a1dfe55c64736f6c63430008000033",
					"opcodes": "PUSH1 0x80 PUSH1 0x40 MSTORE PUSH1 0x40 MLOAD DUP1 PUSH1 0x20 ADD PUSH1 0x40 MSTORE DUP1 PUSH1 0x1 PUSH1 0xFF AND DUP2 MSTORE POP PUSH1 0x1 SWAP1 PUSH1 0x1 PUSH2 0x27 SWAP3 SWAP2 SWAP1 PUSH2 0x3A JUMP JUMPDEST POP CALLVALUE DUP1 ISZERO PUSH2 0x34 JUMPI PUSH1 0x0 DUP1 REVERT JUMPDEST POP PUSH2 0x9C JUMP JUMPDEST DUP3 PUSH1 0x3 DUP2 ADD SWAP3 DUP3 ISZERO PUSH2 0x6E JUMPI SWAP2 PUSH1 0x20 MUL DUP3 ADD JUMPDEST DUP3 DUP2 GT ISZERO PUSH2 0x6D JUMPI DUP3 MLOAD DUP3 SWAP1 PUSH1 0xFF AND SWAP1 SSTORE SWAP2 PUSH1 0x20 ADD SWAP2 SWAP1 PUSH1 0x1 ADD SWAP1 PUSH2 0x4D JUMP JUMPDEST JUMPDEST POP SWAP1 POP PUSH2 0x7B SWAP2 SWAP1 PUSH2 0x7F JUMP JUMPDEST POP SWAP1 JUMP JUMPDEST JUMPDEST DUP1 DUP3 GT ISZERO PUSH2 0x98 JUMPI PUSH1 0x0 DUP2 PUSH1 0x0 SWAP1 SSTORE POP PUSH1 0x1 ADD PUSH2 0x80 JUMP JUMPDEST POP SWAP1 JUMP JUMPDEST PUSH2 0x39B DUP1 PUSH2 0xAB PUSH1 0x0 CODECOPY PUSH1 0x0 RETURN INVALID PUSH1 0x80 PUSH1 0x40 MSTORE CALLVALUE DUP1 ISZERO PUSH2 0x10 JUMPI PUSH1 0x0 DUP1 REVERT JUMPDEST POP PUSH1 0x4 CALLDATASIZE LT PUSH2 0x41 JUMPI PUSH1 0x0 CALLDATALOAD PUSH1 0xE0 SHR DUP1 PUSH4 0x3C521A19 EQ PUSH2 0x46 JUMPI DUP1 PUSH4 0x5331FDEB EQ PUSH2 0x64 JUMPI DUP1 PUSH4 0xAA228B75 EQ PUSH2 0x94 JUMPI JUMPDEST PUSH1 0x0 DUP1 REVERT JUMPDEST PUSH2 0x4E PUSH2 0xC4 JUMP JUMPDEST PUSH1 0x40 MLOAD PUSH2 0x5B SWAP2 SWAP1 PUSH2 0x2CE JUMP JUMPDEST PUSH1 0x40 MLOAD DUP1 SWAP2 SUB SWAP1 RETURN JUMPDEST PUSH2 0x7E PUSH1 0x4 DUP1 CALLDATASIZE SUB DUP2 ADD SWAP1 PUSH2 0x79 SWAP2 SWAP1 PUSH2 0x211 JUMP JUMPDEST PUSH2 0x1BD JUMP JUMPDEST PUSH1 0x40 MLOAD PUSH2 0x8B SWAP2 SWAP1 PUSH2 0x2F0 JUMP JUMPDEST PUSH1 0x40 MLOAD DUP1 SWAP2 SUB SWAP1 RETURN JUMPDEST PUSH2 0xAE PUSH1 0x4 DUP1 CALLDATASIZE SUB DUP2 ADD SWAP1 PUSH2 0xA9 SWAP2 SWAP1 PUSH2 0x211 JUMP JUMPDEST PUSH2 0x1D8 JUMP JUMPDEST PUSH1 0x40 MLOAD PUSH2 0xBB SWAP2 SWAP1 PUSH2 0x2F0 JUMP JUMPDEST PUSH1 0x40 MLOAD DUP1 SWAP2 SUB SWAP1 RETURN JUMPDEST PUSH1 0x60 PUSH1 0x0 PUSH1 0x1 SWAP1 DUP1 PUSH1 0x1 DUP2 SLOAD ADD DUP1 DUP3 SSTORE DUP1 SWAP2 POP POP PUSH1 0x1 SWAP1 SUB SWAP1 PUSH1 0x0 MSTORE PUSH1 0x20 PUSH1 0x0 KECCAK256 ADD PUSH1 0x0 SWAP1 SWAP2 SWAP1 SWAP2 SWAP1 SWAP2 POP SSTORE PUSH1 0x0 PUSH1 0x2 SWAP1 DUP1 PUSH1 0x1 DUP2 SLOAD ADD DUP1 DUP3 SSTORE DUP1 SWAP2 POP POP PUSH1 0x1 SWAP1 SUB SWAP1 PUSH1 0x0 MSTORE PUSH1 0x20 PUSH1 0x0 KECCAK256 ADD PUSH1 0x0 SWAP1 SWAP2 SWAP1 SWAP2 SWAP1 SWAP2 POP SSTORE PUSH1 0x0 PUSH1 0x5 DUP2 PUSH1 0x0 DUP2 SLOAD DUP2 LT PUSH2 0x158 JUMPI PUSH32 0x4E487B7100000000000000000000000000000000000000000000000000000000 PUSH1 0x0 MSTORE PUSH1 0x32 PUSH1 0x4 MSTORE PUSH1 0x24 PUSH1 0x0 REVERT JUMPDEST SWAP1 PUSH1 0x0 MSTORE PUSH1 0x20 PUSH1 0x0 KECCAK256 ADD DUP2 SWAP1 SSTORE POP PUSH1 0x0 DUP1 SLOAD DUP1 PUSH1 0x20 MUL PUSH1 0x20 ADD PUSH1 0x40 MLOAD SWAP1 DUP2 ADD PUSH1 0x40 MSTORE DUP1 SWAP3 SWAP2 SWAP1 DUP2 DUP2 MSTORE PUSH1 0x20 ADD DUP3 DUP1 SLOAD DUP1 ISZERO PUSH2 0x1B2 JUMPI PUSH1 0x20 MUL DUP3 ADD SWAP2 SWAP1 PUSH1 0x0 MSTORE PUSH1 0x20 PUSH1 0x0 KECCAK256 SWAP1 JUMPDEST DUP2 SLOAD DUP2 MSTORE PUSH1 0x20 ADD SWAP1 PUSH1 0x1 ADD SWAP1 DUP1 DUP4 GT PUSH2 0x19E JUMPI JUMPDEST POP POP POP POP POP SWAP2 POP POP SWAP1 JUMP JUMPDEST PUSH1 0x1 DUP2 PUSH1 0x3 DUP2 LT PUSH2 0x1CD JUMPI PUSH1 0x0 DUP1 REVERT JUMPDEST ADD PUSH1 0x0 SWAP2 POP SWAP1 POP SLOAD DUP2 JUMP JUMPDEST PUSH1 0x0 DUP2 DUP2 SLOAD DUP2 LT PUSH2 0x1E8 JUMPI PUSH1 0x0 DUP1 REVERT JUMPDEST SWAP1 PUSH1 0x0 MSTORE PUSH1 0x20 PUSH1 0x0 KECCAK256 ADD PUSH1 0x0 SWAP2 POP SWAP1 POP SLOAD DUP2 JUMP JUMPDEST PUSH1 0x0 DUP2 CALLDATALOAD SWAP1 POP PUSH2 0x20B DUP2 PUSH2 0x34E JUMP JUMPDEST SWAP3 SWAP2 POP POP JUMP JUMPDEST PUSH1 0x0 PUSH1 0x20 DUP3 DUP5 SUB SLT ISZERO PUSH2 0x223 JUMPI PUSH1 0x0 DUP1 REVERT JUMPDEST PUSH1 0x0 PUSH2 0x231 DUP5 DUP3 DUP6 ADD PUSH2 0x1FC JUMP JUMPDEST SWAP2 POP POP SWAP3 SWAP2 POP POP JUMP JUMPDEST PUSH1 0x0 PUSH2 0x246 DUP4 DUP4 PUSH2 0x2B0 JUMP JUMPDEST PUSH1 0x20 DUP4 ADD SWAP1 POP SWAP3 SWAP2 POP POP JUMP JUMPDEST PUSH1 0x0 PUSH2 0x25D DUP3 PUSH2 0x31B JUMP JUMPDEST PUSH2 0x267 DUP2 DUP6 PUSH2 0x333 JUMP JUMPDEST SWAP4 POP PUSH2 0x272 DUP4 PUSH2 0x30B JUMP JUMPDEST DUP1 PUSH1 0x0 JUMPDEST DUP4 DUP2 LT ISZERO PUSH2 0x2A3 JUMPI DUP2 MLOAD PUSH2 0x28A DUP9 DUP3 PUSH2 0x23A JUMP JUMPDEST SWAP8 POP PUSH2 0x295 DUP4 PUSH2 0x326 JUMP JUMPDEST SWAP3 POP POP PUSH1 0x1 DUP2 ADD SWAP1 POP PUSH2 0x276 JUMP JUMPDEST POP DUP6 SWAP4 POP POP POP POP SWAP3 SWAP2 POP POP JUMP JUMPDEST PUSH2 0x2B9 DUP2 PUSH2 0x344 JUMP JUMPDEST DUP3 MSTORE POP POP JUMP JUMPDEST PUSH2 0x2C8 DUP2 PUSH2 0x344 JUMP JUMPDEST DUP3 MSTORE POP POP JUMP JUMPDEST PUSH1 0x0 PUSH1 0x20 DUP3 ADD SWAP1 POP DUP2 DUP2 SUB PUSH1 0x0 DUP4 ADD MSTORE PUSH2 0x2E8 DUP2 DUP5 PUSH2 0x252 JUMP JUMPDEST SWAP1 POP SWAP3 SWAP2 POP POP JUMP JUMPDEST PUSH1 0x0 PUSH1 0x20 DUP3 ADD SWAP1 POP PUSH2 0x305 PUSH1 0x0 DUP4 ADD DUP5 PUSH2 0x2BF JUMP JUMPDEST SWAP3 SWAP2 POP POP JUMP JUMPDEST PUSH1 0x0 DUP2 SWAP1 POP PUSH1 0x20 DUP3 ADD SWAP1 POP SWAP2 SWAP1 POP JUMP JUMPDEST PUSH1 0x0 DUP2 MLOAD SWAP1 POP SWAP2 SWAP1 POP JUMP JUMPDEST PUSH1 0x0 PUSH1 0x20 DUP3 ADD SWAP1 POP SWAP2 SWAP1 POP JUMP JUMPDEST PUSH1 0x0 DUP3 DUP3 MSTORE PUSH1 0x20 DUP3 ADD SWAP1 POP SWAP3 SWAP2 POP POP JUMP JUMPDEST PUSH1 0x0 DUP2 SWAP1 POP SWAP2 SWAP1 POP JUMP JUMPDEST PUSH2 0x357 DUP2 PUSH2 0x344 JUMP JUMPDEST DUP2 EQ PUSH2 0x362 JUMPI PUSH1 0x0 DUP1 REVERT JUMPDEST POP JUMP INVALID LOG2 PUSH5 0x6970667358 0x22 SLT KECCAK256 SWAP6 0x1E BYTE 0x49 CREATE2 0x5E 0x2D 0x2F 0xD1 GASLIMIT GT GASLIMIT 0x27 0xC9 SDIV SWAP2 0xBF POP 0xCA 0xEE SSTORE PUSH17 0x267D7376A124A1DFE55C64736F6C634300 ADDMOD STOP STOP CALLER "
				},
				"gasEstimates": {
					"creation": {
						"codeDepositCost": "184600",
						"executionCost": "infinite",
						"totalCost": "infinite"
					},
					"external": {
						"arryReturn()": "infinite",
						"num(uint256)": "infinite",
						"numFixed(uint256)": "infinite"
					}
				},
				"methodIdentifiers": {
					"arryReturn()": "3c521a19",
					"num(uint256)": "aa228b75",
					"numFixed(uint256)": "5331fdeb"
				}
			},
			"storageLayout": {
				"storage": [
					{
						"astId": 4,
						"contract": "study/chapter07/arryBasicPuls.sol:testArray",
						"label": "num",
						"offset": 0,
						"slot": "0",
						"type": "t_array(t_uint256)dyn_storage"
					},
					{
						"astId": 10,
						"contract": "study/chapter07/arryBasicPuls.sol:testArray",
						"label": "numFixed",
						"offset": 0,
						"slot": "1",
						"type": "t_array(t_uint256)3_storage"
					}
				],
				"types": {
					"t_array(t_uint256)3_storage": {
						"base": "t_uint256",
						"encoding": "inplace",
						"label": "uint256[3]",
						"numberOfBytes": "96"
					},
					"t_array(t_uint256)dyn_storage": {
						"base": "t_uint256",
						"encoding": "dynamic_array",
						"label": "uint256[]",
						"numberOfBytes": "32"
					},
					"t_uint256": {
						"encoding": "inplace",
						"label": "uint256",
						"numberOfBytes": "32"
					}
				}
			},
			"userdoc": {
				"kind": "user",
				"methods": {},
				"version": 1
			}
		}
	}
}