{
	"study/chapter07/arryBasic.sol": {
		"testArray": {
			"abi": [
				{
					"inputs": [],
					"name": "example",
					"outputs": [],
					"stateMutability": "nonpayable",
					"type": "function"
				},
				{
					"inputs": [],
					"name": "len1",
					"outputs": [
						{
							"internalType": "uint256",
							"name": "",
							"type": "uint256"
						}
					],
					"stateMutability": "view",
					"type": "function"
				},
				{
					"inputs": [
						{
							"internalType": "uint256",
							"name": "",
							"type": "uint256"
						}
					],
					"name": "num",
					"outputs": [
						{
							"internalType": "uint256",
							"name": "",
							"type": "uint256"
						}
					],
					"stateMutability": "view",
					"type": "function"
				},
				{
					"inputs": [
						{
							"internalType": "uint256",
							"name": "",
							"type": "uint256"
						}
					],
					"name": "num1",
					"outputs": [
						{
							"internalType": "uint256",
							"name": "",
							"type": "uint256"
						}
					],
					"stateMutability": "view",
					"type": "function"
				},
				{
					"inputs": [
						{
							"internalType": "uint256",
							"name": "",
							"type": "uint256"
						}
					],
					"name": "numFixed",
					"outputs": [
						{
							"internalType": "uint256",
							"name": "",
							"type": "uint256"
						}
					],
					"stateMutability": "view",
					"type": "function"
				},
				{
					"inputs": [
						{
							"internalType": "uint256",
							"name": "",
							"type": "uint256"
						}
					],
					"name": "numFixed1",
					"outputs": [
						{
							"internalType": "uint256",
							"name": "",
							"type": "uint256"
						}
					],
					"stateMutability": "view",
					"type": "function"
				}
			],
			"devdoc": {
				"kind": "dev",
				"methods": {},
				"version": 1
			},
			"evm": {
				"assembly": "    /* \"study/chapter07/arryBasic.sol\":55:1206  contract testArray{... */\n  mstore(0x40, 0x80)\n    /* \"study/chapter07/arryBasic.sol\":151:154  num */\n  0x00\n    /* \"study/chapter07/arryBasic.sol\":151:161  num.length */\n  dup1\n  sload\n  swap1\n  pop\n    /* \"study/chapter07/arryBasic.sol\":132:161  uint public len1 = num.length */\n  0x04\n  sstore\n    /* \"study/chapter07/arryBasic.sol\":206:232  uint[] public num1 = [1,2] */\n  mload(0x40)\n  dup1\n  0x40\n  add\n  0x40\n  mstore\n  dup1\n    /* \"study/chapter07/arryBasic.sol\":228:229  1 */\n  0x01\n    /* \"study/chapter07/arryBasic.sol\":206:232  uint[] public num1 = [1,2] */\n  0xff\n  and\n  dup2\n  mstore\n  0x20\n  add\n    /* \"study/chapter07/arryBasic.sol\":230:231  2 */\n  0x02\n    /* \"study/chapter07/arryBasic.sol\":206:232  uint[] public num1 = [1,2] */\n  0xff\n  and\n  dup2\n  mstore\n  pop\n  0x05\n  swap1\n  0x02\n  tag_1\n  swap3\n  swap2\n  swap1\n  tag_2\n  jump\t// in\ntag_1:\n  pop\n    /* \"study/chapter07/arryBasic.sol\":238:272  uint[3] public numFixed1 = [3,4,5] */\n  mload(0x40)\n  dup1\n  0x60\n  add\n  0x40\n  mstore\n  dup1\n    /* \"study/chapter07/arryBasic.sol\":266:267  3 */\n  0x03\n    /* \"study/chapter07/arryBasic.sol\":238:272  uint[3] public numFixed1 = [3,4,5] */\n  0xff\n  and\n  dup2\n  mstore\n  0x20\n  add\n    /* \"study/chapter07/arryBasic.sol\":268:269  4 */\n  0x04\n    /* \"study/chapter07/arryBasic.sol\":238:272  uint[3] public numFixed1 = [3,4,5] */\n  0xff\n  and\n  dup2\n  mstore\n  0x20\n  add\n    /* \"study/chapter07/arryBasic.sol\":270:271  5 */\n  0x05\n    /* \"study/chapter07/arryBasic.sol\":238:272  uint[3] public numFixed1 = [3,4,5] */\n  0xff\n  and\n  dup2\n  mstore\n  pop\n  0x06\n  swap1\n  0x03\n  tag_3\n  swap3\n  swap2\n  swap1\n  tag_4\n  jump\t// in\ntag_3:\n  pop\n    /* \"study/chapter07/arryBasic.sol\":55:1206  contract testArray{... */\n  callvalue\n  dup1\n  iszero\n  tag_5\n  jumpi\n  0x00\n  dup1\n  revert\ntag_5:\n  pop\n  jump(tag_6)\ntag_2:\n  dup3\n  dup1\n  sload\n  dup3\n  dup3\n  sstore\n  swap1\n  0x00\n  mstore\n  keccak256(0x00, 0x20)\n  swap1\n  dup2\n  add\n  swap3\n  dup3\n  iszero\n  tag_7\n  jumpi\n  swap2\n  0x20\n  mul\n  dup3\n  add\ntag_8:\n  dup3\n  dup2\n  gt\n  iszero\n  tag_9\n  jumpi\n  dup3\n  mload\n  dup3\n  swap1\n  0xff\n  and\n  swap1\n  sstore\n  swap2\n  0x20\n  add\n  swap2\n  swap1\n  0x01\n  add\n  swap1\n  jump(tag_8)\ntag_9:\ntag_7:\n  pop\n  swap1\n  pop\n  tag_10\n  swap2\n  swap1\n  tag_11\n  jump\t// in\ntag_10:\n  pop\n  swap1\n  jump\t// out\ntag_4:\n  dup3\n  0x03\n  dup2\n  add\n  swap3\n  dup3\n  iszero\n  tag_12\n  jumpi\n  swap2\n  0x20\n  mul\n  dup3\n  add\ntag_13:\n  dup3\n  dup2\n  gt\n  iszero\n  tag_14\n  jumpi\n  dup3\n  mload\n  dup3\n  swap1\n  0xff\n  and\n  swap1\n  sstore\n  swap2\n  0x20\n  add\n  swap2\n  swap1\n  0x01\n  add\n  swap1\n  jump(tag_13)\ntag_14:\ntag_12:\n  pop\n  swap1\n  pop\n  tag_15\n  swap2\n  swap1\n  tag_11\n  jump\t// in\ntag_15:\n  pop\n  swap1\n  jump\t// out\ntag_11:\ntag_16:\n  dup1\n  dup3\n  gt\n  iszero\n  tag_17\n  jumpi\n  0x00\n  dup2\n  0x00\n  swap1\n  sstore\n  pop\n  0x01\n  add\n  jump(tag_16)\ntag_17:\n  pop\n  swap1\n  jump\t// out\ntag_6:\n  dataSize(sub_0)\n  dup1\n  dataOffset(sub_0)\n  0x00\n  codecopy\n  0x00\n  return\nstop\n\nsub_0: assembly {\n        /* \"study/chapter07/arryBasic.sol\":55:1206  contract testArray{... */\n      mstore(0x40, 0x80)\n      callvalue\n      dup1\n      iszero\n      tag_1\n      jumpi\n      0x00\n      dup1\n      revert\n    tag_1:\n      pop\n      jumpi(tag_2, lt(calldatasize, 0x04))\n      shr(0xe0, calldataload(0x00))\n      dup1\n      0x5331fdeb\n      eq\n      tag_3\n      jumpi\n      dup1\n      0x54353f2f\n      eq\n      tag_4\n      jumpi\n      dup1\n      0x79d3202e\n      eq\n      tag_5\n      jumpi\n      dup1\n      0x8e3abf4e\n      eq\n      tag_6\n      jumpi\n      dup1\n      0xaa228b75\n      eq\n      tag_7\n      jumpi\n      dup1\n      0xb5e9c6c9\n      eq\n      tag_8\n      jumpi\n    tag_2:\n      0x00\n      dup1\n      revert\n        /* \"study/chapter07/arryBasic.sol\":102:125  uint[3] public numFixed */\n    tag_3:\n      tag_9\n      0x04\n      dup1\n      calldatasize\n      sub\n      dup2\n      add\n      swap1\n      tag_10\n      swap2\n      swap1\n      tag_11\n      jump\t// in\n    tag_10:\n      tag_12\n      jump\t// in\n    tag_9:\n      mload(0x40)\n      tag_13\n      swap2\n      swap1\n      tag_14\n      jump\t// in\n    tag_13:\n      mload(0x40)\n      dup1\n      swap2\n      sub\n      swap1\n      return\n        /* \"study/chapter07/arryBasic.sol\":286:1203  function example()external{... */\n    tag_4:\n      tag_15\n      tag_16\n      jump\t// in\n    tag_15:\n      stop\n        /* \"study/chapter07/arryBasic.sol\":132:161  uint public len1 = num.length */\n    tag_5:\n      tag_17\n      tag_18\n      jump\t// in\n    tag_17:\n      mload(0x40)\n      tag_19\n      swap2\n      swap1\n      tag_14\n      jump\t// in\n    tag_19:\n      mload(0x40)\n      dup1\n      swap2\n      sub\n      swap1\n      return\n        /* \"study/chapter07/arryBasic.sol\":206:232  uint[] public num1 = [1,2] */\n    tag_6:\n      tag_20\n      0x04\n      dup1\n      calldatasize\n      sub\n      dup2\n      add\n      swap1\n      tag_21\n      swap2\n      swap1\n      tag_11\n      jump\t// in\n    tag_21:\n      tag_22\n      jump\t// in\n    tag_20:\n      mload(0x40)\n      tag_23\n      swap2\n      swap1\n      tag_14\n      jump\t// in\n    tag_23:\n      mload(0x40)\n      dup1\n      swap2\n      sub\n      swap1\n      return\n        /* \"study/chapter07/arryBasic.sol\":79:96  uint[] public num */\n    tag_7:\n      tag_24\n      0x04\n      dup1\n      calldatasize\n      sub\n      dup2\n      add\n      swap1\n      tag_25\n      swap2\n      swap1\n      tag_11\n      jump\t// in\n    tag_25:\n      tag_26\n      jump\t// in\n    tag_24:\n      mload(0x40)\n      tag_27\n      swap2\n      swap1\n      tag_14\n      jump\t// in\n    tag_27:\n      mload(0x40)\n      dup1\n      swap2\n      sub\n      swap1\n      return\n        /* \"study/chapter07/arryBasic.sol\":238:272  uint[3] public numFixed1 = [3,4,5] */\n    tag_8:\n      tag_28\n      0x04\n      dup1\n      calldatasize\n      sub\n      dup2\n      add\n      swap1\n      tag_29\n      swap2\n      swap1\n      tag_11\n      jump\t// in\n    tag_29:\n      tag_30\n      jump\t// in\n    tag_28:\n      mload(0x40)\n      tag_31\n      swap2\n      swap1\n      tag_14\n      jump\t// in\n    tag_31:\n      mload(0x40)\n      dup1\n      swap2\n      sub\n      swap1\n      return\n        /* \"study/chapter07/arryBasic.sol\":102:125  uint[3] public numFixed */\n    tag_12:\n      0x01\n      dup2\n      0x03\n      dup2\n      lt\n      tag_32\n      jumpi\n      0x00\n      dup1\n      revert\n    tag_32:\n      add\n      0x00\n      swap2\n      pop\n      swap1\n      pop\n      sload\n      dup2\n      jump\t// out\n        /* \"study/chapter07/arryBasic.sol\":286:1203  function example()external{... */\n    tag_16:\n        /* \"study/chapter07/arryBasic.sol\":452:455  num */\n      0x00\n        /* \"study/chapter07/arryBasic.sol\":461:462  1 */\n      0x01\n        /* \"study/chapter07/arryBasic.sol\":452:463  num.push(1) */\n      swap1\n      dup1\n      0x01\n      dup2\n      sload\n      add\n      dup1\n      dup3\n      sstore\n      dup1\n      swap2\n      pop\n      pop\n      0x01\n      swap1\n      sub\n      swap1\n      0x00\n      mstore\n      keccak256(0x00, 0x20)\n      add\n      0x00\n      swap1\n      swap2\n      swap1\n      swap2\n      swap1\n      swap2\n      pop\n      sstore\n        /* \"study/chapter07/arryBasic.sol\":540:541  5 */\n      0x05\n        /* \"study/chapter07/arryBasic.sol\":531:534  num */\n      0x00\n        /* \"study/chapter07/arryBasic.sol\":535:536  0 */\n      dup1\n        /* \"study/chapter07/arryBasic.sol\":531:537  num[0] */\n      dup2\n      sload\n      dup2\n      lt\n      tag_36\n      jumpi\n      tag_37\n      tag_38\n      jump\t// in\n    tag_37:\n    tag_36:\n      swap1\n      0x00\n      mstore\n      keccak256(0x00, 0x20)\n      add\n        /* \"study/chapter07/arryBasic.sol\":531:541  num[0] = 5 */\n      dup2\n      swap1\n      sstore\n      pop\n        /* \"study/chapter07/arryBasic.sol\":644:647  num */\n      0x00\n        /* \"study/chapter07/arryBasic.sol\":644:653  num.pop() */\n      dup1\n      sload\n      dup1\n      tag_40\n      jumpi\n      tag_41\n      tag_42\n      jump\t// in\n    tag_41:\n    tag_40:\n      0x01\n      swap1\n      sub\n      dup2\n      dup2\n      swap1\n      0x00\n      mstore\n      keccak256(0x00, 0x20)\n      add\n      0x00\n      swap1\n      sstore\n      swap1\n      sstore\n        /* \"study/chapter07/arryBasic.sol\":858:861  num */\n      0x00\n        /* \"study/chapter07/arryBasic.sol\":867:868  2 */\n      0x02\n        /* \"study/chapter07/arryBasic.sol\":858:869  num.push(2) */\n      swap1\n      dup1\n      0x01\n      dup2\n      sload\n      add\n      dup1\n      dup3\n      sstore\n      dup1\n      swap2\n      pop\n      pop\n      0x01\n      swap1\n      sub\n      swap1\n      0x00\n      mstore\n      keccak256(0x00, 0x20)\n      add\n      0x00\n      swap1\n      swap2\n      swap1\n      swap2\n      swap1\n      swap2\n      pop\n      sstore\n        /* \"study/chapter07/arryBasic.sol\":879:882  num */\n      0x00\n        /* \"study/chapter07/arryBasic.sol\":888:889  3 */\n      0x03\n        /* \"study/chapter07/arryBasic.sol\":879:890  num.push(3) */\n      swap1\n      dup1\n      0x01\n      dup2\n      sload\n      add\n      dup1\n      dup3\n      sstore\n      dup1\n      swap2\n      pop\n      pop\n      0x01\n      swap1\n      sub\n      swap1\n      0x00\n      mstore\n      keccak256(0x00, 0x20)\n      add\n      0x00\n      swap1\n      swap2\n      swap1\n      swap2\n      swap1\n      swap2\n      pop\n      sstore\n        /* \"study/chapter07/arryBasic.sol\":908:911  num */\n      0x00\n        /* \"study/chapter07/arryBasic.sol\":912:913  0 */\n      dup1\n        /* \"study/chapter07/arryBasic.sol\":908:914  num[0] */\n      dup2\n      sload\n      dup2\n      lt\n      tag_46\n      jumpi\n      tag_47\n      tag_38\n      jump\t// in\n    tag_47:\n    tag_46:\n      swap1\n      0x00\n      mstore\n      keccak256(0x00, 0x20)\n      add\n        /* \"study/chapter07/arryBasic.sol\":901:914  delete num[0] */\n      0x00\n      swap1\n      sstore\n        /* \"study/chapter07/arryBasic.sol\":1008:1024  uint[] memory  a */\n      0x00\n        /* \"study/chapter07/arryBasic.sol\":1037:1038  5 */\n      0x05\n        /* \"study/chapter07/arryBasic.sol\":1026:1039  new uint[](5) */\n      0xffffffffffffffff\n      dup2\n      gt\n      iszero\n      tag_49\n      jumpi\n      tag_50\n      tag_51\n      jump\t// in\n    tag_50:\n    tag_49:\n      mload(0x40)\n      swap1\n      dup1\n      dup3\n      mstore\n      dup1\n      0x20\n      mul\n      0x20\n      add\n      dup3\n      add\n      0x40\n      mstore\n      dup1\n      iszero\n      tag_52\n      jumpi\n      dup2\n      0x20\n      add\n      0x20\n      dup3\n      mul\n      dup1\n      calldatasize\n      dup4\n      calldatacopy\n      dup1\n      dup3\n      add\n      swap2\n      pop\n      pop\n      swap1\n      pop\n    tag_52:\n      pop\n        /* \"study/chapter07/arryBasic.sol\":1008:1039  uint[] memory  a =new uint[](5) */\n      swap1\n      pop\n        /* \"study/chapter07/arryBasic.sol\":1175:1176  1 */\n      0x01\n        /* \"study/chapter07/arryBasic.sol\":1170:1171  a */\n      dup2\n        /* \"study/chapter07/arryBasic.sol\":1172:1173  0 */\n      0x00\n        /* \"study/chapter07/arryBasic.sol\":1170:1174  a[0] */\n      dup2\n      mload\n      dup2\n      lt\n      tag_53\n      jumpi\n      tag_54\n      tag_38\n      jump\t// in\n    tag_54:\n    tag_53:\n      0x20\n      mul\n      0x20\n      add\n      add\n        /* \"study/chapter07/arryBasic.sol\":1170:1176  a[0]=1 */\n      dup2\n      dup2\n      mstore\n      pop\n      pop\n        /* \"study/chapter07/arryBasic.sol\":312:1203  {... */\n      pop\n        /* \"study/chapter07/arryBasic.sol\":286:1203  function example()external{... */\n      jump\t// out\n        /* \"study/chapter07/arryBasic.sol\":132:161  uint public len1 = num.length */\n    tag_18:\n      sload(0x04)\n      dup2\n      jump\t// out\n        /* \"study/chapter07/arryBasic.sol\":206:232  uint[] public num1 = [1,2] */\n    tag_22:\n      0x05\n      dup2\n      dup2\n      sload\n      dup2\n      lt\n      tag_55\n      jumpi\n      0x00\n      dup1\n      revert\n    tag_55:\n      swap1\n      0x00\n      mstore\n      keccak256(0x00, 0x20)\n      add\n      0x00\n      swap2\n      pop\n      swap1\n      pop\n      sload\n      dup2\n      jump\t// out\n        /* \"study/chapter07/arryBasic.sol\":79:96  uint[] public num */\n    tag_26:\n      0x00\n      dup2\n      dup2\n      sload\n      dup2\n      lt\n      tag_57\n      jumpi\n      0x00\n      dup1\n      revert\n    tag_57:\n      swap1\n      0x00\n      mstore\n      keccak256(0x00, 0x20)\n      add\n      0x00\n      swap2\n      pop\n      swap1\n      pop\n      sload\n      dup2\n      jump\t// out\n        /* \"study/chapter07/arryBasic.sol\":238:272  uint[3] public numFixed1 = [3,4,5] */\n    tag_30:\n      0x06\n      dup2\n      0x03\n      dup2\n      lt\n      tag_59\n      jumpi\n      0x00\n      dup1\n      revert\n    tag_59:\n      add\n      0x00\n      swap2\n      pop\n      swap1\n      pop\n      sload\n      dup2\n      jump\t// out\n        /* \"#utility.yul\":88:205   */\n    tag_62:\n        /* \"#utility.yul\":197:198   */\n      0x00\n        /* \"#utility.yul\":194:195   */\n      dup1\n        /* \"#utility.yul\":187:199   */\n      revert\n        /* \"#utility.yul\":334:411   */\n    tag_64:\n        /* \"#utility.yul\":371:378   */\n      0x00\n        /* \"#utility.yul\":400:405   */\n      dup2\n        /* \"#utility.yul\":389:405   */\n      swap1\n      pop\n        /* \"#utility.yul\":334:411   */\n      swap2\n      swap1\n      pop\n      jump\t// out\n        /* \"#utility.yul\":417:539   */\n    tag_65:\n        /* \"#utility.yul\":490:514   */\n      tag_74\n        /* \"#utility.yul\":508:513   */\n      dup2\n        /* \"#utility.yul\":490:514   */\n      tag_64\n      jump\t// in\n    tag_74:\n        /* \"#utility.yul\":483:488   */\n      dup2\n        /* \"#utility.yul\":480:515   */\n      eq\n        /* \"#utility.yul\":470:533   */\n      tag_75\n      jumpi\n        /* \"#utility.yul\":529:530   */\n      0x00\n        /* \"#utility.yul\":526:527   */\n      dup1\n        /* \"#utility.yul\":519:531   */\n      revert\n        /* \"#utility.yul\":470:533   */\n    tag_75:\n        /* \"#utility.yul\":417:539   */\n      pop\n      jump\t// out\n        /* \"#utility.yul\":545:684   */\n    tag_66:\n        /* \"#utility.yul\":591:596   */\n      0x00\n        /* \"#utility.yul\":629:635   */\n      dup2\n        /* \"#utility.yul\":616:636   */\n      calldataload\n        /* \"#utility.yul\":607:636   */\n      swap1\n      pop\n        /* \"#utility.yul\":645:678   */\n      tag_77\n        /* \"#utility.yul\":672:677   */\n      dup2\n        /* \"#utility.yul\":645:678   */\n      tag_65\n      jump\t// in\n    tag_77:\n        /* \"#utility.yul\":545:684   */\n      swap3\n      swap2\n      pop\n      pop\n      jump\t// out\n        /* \"#utility.yul\":690:1019   */\n    tag_11:\n        /* \"#utility.yul\":749:755   */\n      0x00\n        /* \"#utility.yul\":798:800   */\n      0x20\n        /* \"#utility.yul\":786:795   */\n      dup3\n        /* \"#utility.yul\":777:784   */\n      dup5\n        /* \"#utility.yul\":773:796   */\n      sub\n        /* \"#utility.yul\":769:801   */\n      slt\n        /* \"#utility.yul\":766:885   */\n      iszero\n      tag_79\n      jumpi\n        /* \"#utility.yul\":804:883   */\n      tag_80\n      tag_62\n      jump\t// in\n    tag_80:\n        /* \"#utility.yul\":766:885   */\n    tag_79:\n        /* \"#utility.yul\":924:925   */\n      0x00\n        /* \"#utility.yul\":949:1002   */\n      tag_81\n        /* \"#utility.yul\":994:1001   */\n      dup5\n        /* \"#utility.yul\":985:991   */\n      dup3\n        /* \"#utility.yul\":974:983   */\n      dup6\n        /* \"#utility.yul\":970:992   */\n      add\n        /* \"#utility.yul\":949:1002   */\n      tag_66\n      jump\t// in\n    tag_81:\n        /* \"#utility.yul\":939:1002   */\n      swap2\n      pop\n        /* \"#utility.yul\":895:1012   */\n      pop\n        /* \"#utility.yul\":690:1019   */\n      swap3\n      swap2\n      pop\n      pop\n      jump\t// out\n        /* \"#utility.yul\":1025:1143   */\n    tag_67:\n        /* \"#utility.yul\":1112:1136   */\n      tag_83\n        /* \"#utility.yul\":1130:1135   */\n      dup2\n        /* \"#utility.yul\":1112:1136   */\n      tag_64\n      jump\t// in\n    tag_83:\n        /* \"#utility.yul\":1107:1110   */\n      dup3\n        /* \"#utility.yul\":1100:1137   */\n      mstore\n        /* \"#utility.yul\":1025:1143   */\n      pop\n      pop\n      jump\t// out\n        /* \"#utility.yul\":1149:1371   */\n    tag_14:\n        /* \"#utility.yul\":1242:1246   */\n      0x00\n        /* \"#utility.yul\":1280:1282   */\n      0x20\n        /* \"#utility.yul\":1269:1278   */\n      dup3\n        /* \"#utility.yul\":1265:1283   */\n      add\n        /* \"#utility.yul\":1257:1283   */\n      swap1\n      pop\n        /* \"#utility.yul\":1293:1364   */\n      tag_85\n        /* \"#utility.yul\":1361:1362   */\n      0x00\n        /* \"#utility.yul\":1350:1359   */\n      dup4\n        /* \"#utility.yul\":1346:1363   */\n      add\n        /* \"#utility.yul\":1337:1343   */\n      dup5\n        /* \"#utility.yul\":1293:1364   */\n      tag_67\n      jump\t// in\n    tag_85:\n        /* \"#utility.yul\":1149:1371   */\n      swap3\n      swap2\n      pop\n      pop\n      jump\t// out\n        /* \"#utility.yul\":1377:1557   */\n    tag_38:\n        /* \"#utility.yul\":1425:1502   */\n      0x4e487b7100000000000000000000000000000000000000000000000000000000\n        /* \"#utility.yul\":1422:1423   */\n      0x00\n        /* \"#utility.yul\":1415:1503   */\n      mstore\n        /* \"#utility.yul\":1522:1526   */\n      0x32\n        /* \"#utility.yul\":1519:1520   */\n      0x04\n        /* \"#utility.yul\":1512:1527   */\n      mstore\n        /* \"#utility.yul\":1546:1550   */\n      0x24\n        /* \"#utility.yul\":1543:1544   */\n      0x00\n        /* \"#utility.yul\":1536:1551   */\n      revert\n        /* \"#utility.yul\":1563:1743   */\n    tag_42:\n        /* \"#utility.yul\":1611:1688   */\n      0x4e487b7100000000000000000000000000000000000000000000000000000000\n        /* \"#utility.yul\":1608:1609   */\n      0x00\n        /* \"#utility.yul\":1601:1689   */\n      mstore\n        /* \"#utility.yul\":1708:1712   */\n      0x31\n        /* \"#utility.yul\":1705:1706   */\n      0x04\n        /* \"#utility.yul\":1698:1713   */\n      mstore\n        /* \"#utility.yul\":1732:1736   */\n      0x24\n        /* \"#utility.yul\":1729:1730   */\n      0x00\n        /* \"#utility.yul\":1722:1737   */\n      revert\n        /* \"#utility.yul\":1749:1929   */\n    tag_51:\n        /* \"#utility.yul\":1797:1874   */\n      0x4e487b7100000000000000000000000000000000000000000000000000000000\n        /* \"#utility.yul\":1794:1795   */\n      0x00\n        /* \"#utility.yul\":1787:1875   */\n      mstore\n        /* \"#utility.yul\":1894:1898   */\n      0x41\n        /* \"#utility.yul\":1891:1892   */\n      0x04\n        /* \"#utility.yul\":1884:1899   */\n      mstore\n        /* \"#utility.yul\":1918:1922   */\n      0x24\n        /* \"#utility.yul\":1915:1916   */\n      0x00\n        /* \"#utility.yul\":1908:1923   */\n      revert\n\n    auxdata: 0xa26469706673582212200eef29cfe1b40a8ff53edc5dff72eacb0369bd8676caf33380fe90dea0b9dfe864736f6c634300080f0033\n}\n",
				"bytecode": {
					"linkReferences": {},
					"object": "60806040526000805490506004556040518060400160405280600160ff168152602001600260ff16815250600590600261003a929190610085565b506040518060600160405280600360ff168152602001600460ff168152602001600560ff1681525060069060036100729291906100d7565b5034801561007f57600080fd5b50610139565b8280548282559060005260206000209081019282156100c6579160200282015b828111156100c5578251829060ff169055916020019190600101906100a5565b5b5090506100d3919061011c565b5090565b826003810192821561010b579160200282015b8281111561010a578251829060ff169055916020019190600101906100ea565b5b509050610118919061011c565b5090565b5b8082111561013557600081600090555060010161011d565b5090565b610487806101486000396000f3fe608060405234801561001057600080fd5b50600436106100625760003560e01c80635331fdeb1461006757806354353f2f1461009757806379d3202e146100a15780638e3abf4e146100bf578063aa228b75146100ef578063b5e9c6c91461011f575b600080fd5b610081600480360381019061007c919061036d565b61014f565b60405161008e91906103a9565b60405180910390f35b61009f61016a565b005b6100a96102c9565b6040516100b691906103a9565b60405180910390f35b6100d960048036038101906100d4919061036d565b6102cf565b6040516100e691906103a9565b60405180910390f35b6101096004803603810190610104919061036d565b6102f3565b60405161011691906103a9565b60405180910390f35b6101396004803603810190610134919061036d565b610317565b60405161014691906103a9565b60405180910390f35b6001816003811061015f57600080fd5b016000915090505481565b6000600190806001815401808255809150506001900390600052602060002001600090919091909150556005600080815481106101aa576101a96103c4565b5b906000526020600020018190555060008054806101ca576101c96103f3565b5b6001900381819060005260206000200160009055905560006002908060018154018082558091505060019003906000526020600020016000909190919091505560006003908060018154018082558091505060019003906000526020600020016000909190919091505560008081548110610248576102476103c4565b5b90600052602060002001600090556000600567ffffffffffffffff81111561027357610272610422565b5b6040519080825280602002602001820160405280156102a15781602001602082028036833780820191505090505b5090506001816000815181106102ba576102b96103c4565b5b60200260200101818152505050565b60045481565b600581815481106102df57600080fd5b906000526020600020016000915090505481565b6000818154811061030357600080fd5b906000526020600020016000915090505481565b6006816003811061032757600080fd5b016000915090505481565b600080fd5b6000819050919050565b61034a81610337565b811461035557600080fd5b50565b60008135905061036781610341565b92915050565b60006020828403121561038357610382610332565b5b600061039184828501610358565b91505092915050565b6103a381610337565b82525050565b60006020820190506103be600083018461039a565b92915050565b7f4e487b7100000000000000000000000000000000000000000000000000000000600052603260045260246000fd5b7f4e487b7100000000000000000000000000000000000000000000000000000000600052603160045260246000fd5b7f4e487b7100000000000000000000000000000000000000000000000000000000600052604160045260246000fdfea26469706673582212200eef29cfe1b40a8ff53edc5dff72eacb0369bd8676caf33380fe90dea0b9dfe864736f6c634300080f0033",
					"opcodes": "PUSH1 0x80 PUSH1 0x40 MSTORE PUSH1 0x0 DUP1 SLOAD SWAP1 POP PUSH1 0x4 SSTORE PUSH1 0x40 MLOAD DUP1 PUSH1 0x40 ADD PUSH1 0x40 MSTORE DUP1 PUSH1 0x1 PUSH1 0xFF AND DUP2 MSTORE PUSH1 0x20 ADD PUSH1 0x2 PUSH1 0xFF AND DUP2 MSTORE POP PUSH1 0x5 SWAP1 PUSH1 0x2 PUSH2 0x3A SWAP3 SWAP2 SWAP1 PUSH2 0x85 JUMP JUMPDEST POP PUSH1 0x40 MLOAD DUP1 PUSH1 0x60 ADD PUSH1 0x40 MSTORE DUP1 PUSH1 0x3 PUSH1 0xFF AND DUP2 MSTORE PUSH1 0x20 ADD PUSH1 0x4 PUSH1 0xFF AND DUP2 MSTORE PUSH1 0x20 ADD PUSH1 0x5 PUSH1 0xFF AND DUP2 MSTORE POP PUSH1 0x6 SWAP1 PUSH1 0x3 PUSH2 0x72 SWAP3 SWAP2 SWAP1 PUSH2 0xD7 JUMP JUMPDEST POP CALLVALUE DUP1 ISZERO PUSH2 0x7F JUMPI PUSH1 0x0 DUP1 REVERT JUMPDEST POP PUSH2 0x139 JUMP JUMPDEST DUP3 DUP1 SLOAD DUP3 DUP3 SSTORE SWAP1 PUSH1 0x0 MSTORE PUSH1 0x20 PUSH1 0x0 KECCAK256 SWAP1 DUP2 ADD SWAP3 DUP3 ISZERO PUSH2 0xC6 JUMPI SWAP2 PUSH1 0x20 MUL DUP3 ADD JUMPDEST DUP3 DUP2 GT ISZERO PUSH2 0xC5 JUMPI DUP3 MLOAD DUP3 SWAP1 PUSH1 0xFF AND SWAP1 SSTORE SWAP2 PUSH1 0x20 ADD SWAP2 SWAP1 PUSH1 0x1 ADD SWAP1 PUSH2 0xA5 JUMP JUMPDEST JUMPDEST POP SWAP1 POP PUSH2 0xD3 SWAP2 SWAP1 PUSH2 0x11C JUMP JUMPDEST POP SWAP1 JUMP JUMPDEST DUP3 PUSH1 0x3 DUP2 ADD SWAP3 DUP3 ISZERO PUSH2 0x10B JUMPI SWAP2 PUSH1 0x20 MUL DUP3 ADD JUMPDEST DUP3 DUP2 GT ISZERO PUSH2 0x10A JUMPI DUP3 MLOAD DUP3 SWAP1 PUSH1 0xFF AND SWAP1 SSTORE SWAP2 PUSH1 0x20 ADD SWAP2 SWAP1 PUSH1 0x1 ADD SWAP1 PUSH2 0xEA JUMP JUMPDEST JUMPDEST POP SWAP1 POP PUSH2 0x118 SWAP2 SWAP1 PUSH2 0x11C JUMP JUMPDEST POP SWAP1 JUMP JUMPDEST JUMPDEST DUP1 DUP3 GT ISZERO PUSH2 0x135 JUMPI PUSH1 0x0 DUP2 PUSH1 0x0 SWAP1 SSTORE POP PUSH1 0x1 ADD PUSH2 0x11D JUMP JUMPDEST POP SWAP1 JUMP JUMPDEST PUSH2 0x487 DUP1 PUSH2 0x148 PUSH1 0x0 CODECOPY PUSH1 0x0 RETURN INVALID PUSH1 0x80 PUSH1 0x40 MSTORE CALLVALUE DUP1 ISZERO PUSH2 0x10 JUMPI PUSH1 0x0 DUP1 REVERT JUMPDEST POP PUSH1 0x4 CALLDATASIZE LT PUSH2 0x62 JUMPI PUSH1 0x0 CALLDATALOAD PUSH1 0xE0 SHR DUP1 PUSH4 0x5331FDEB EQ PUSH2 0x67 JUMPI DUP1 PUSH4 0x54353F2F EQ PUSH2 0x97 JUMPI DUP1 PUSH4 0x79D3202E EQ PUSH2 0xA1 JUMPI DUP1 PUSH4 0x8E3ABF4E EQ PUSH2 0xBF JUMPI DUP1 PUSH4 0xAA228B75 EQ PUSH2 0xEF JUMPI DUP1 PUSH4 0xB5E9C6C9 EQ PUSH2 0x11F JUMPI JUMPDEST PUSH1 0x0 DUP1 REVERT JUMPDEST PUSH2 0x81 PUSH1 0x4 DUP1 CALLDATASIZE SUB DUP2 ADD SWAP1 PUSH2 0x7C SWAP2 SWAP1 PUSH2 0x36D JUMP JUMPDEST PUSH2 0x14F JUMP JUMPDEST PUSH1 0x40 MLOAD PUSH2 0x8E SWAP2 SWAP1 PUSH2 0x3A9 JUMP JUMPDEST PUSH1 0x40 MLOAD DUP1 SWAP2 SUB SWAP1 RETURN JUMPDEST PUSH2 0x9F PUSH2 0x16A JUMP JUMPDEST STOP JUMPDEST PUSH2 0xA9 PUSH2 0x2C9 JUMP JUMPDEST PUSH1 0x40 MLOAD PUSH2 0xB6 SWAP2 SWAP1 PUSH2 0x3A9 JUMP JUMPDEST PUSH1 0x40 MLOAD DUP1 SWAP2 SUB SWAP1 RETURN JUMPDEST PUSH2 0xD9 PUSH1 0x4 DUP1 CALLDATASIZE SUB DUP2 ADD SWAP1 PUSH2 0xD4 SWAP2 SWAP1 PUSH2 0x36D JUMP JUMPDEST PUSH2 0x2CF JUMP JUMPDEST PUSH1 0x40 MLOAD PUSH2 0xE6 SWAP2 SWAP1 PUSH2 0x3A9 JUMP JUMPDEST PUSH1 0x40 MLOAD DUP1 SWAP2 SUB SWAP1 RETURN JUMPDEST PUSH2 0x109 PUSH1 0x4 DUP1 CALLDATASIZE SUB DUP2 ADD SWAP1 PUSH2 0x104 SWAP2 SWAP1 PUSH2 0x36D JUMP JUMPDEST PUSH2 0x2F3 JUMP JUMPDEST PUSH1 0x40 MLOAD PUSH2 0x116 SWAP2 SWAP1 PUSH2 0x3A9 JUMP JUMPDEST PUSH1 0x40 MLOAD DUP1 SWAP2 SUB SWAP1 RETURN JUMPDEST PUSH2 0x139 PUSH1 0x4 DUP1 CALLDATASIZE SUB DUP2 ADD SWAP1 PUSH2 0x134 SWAP2 SWAP1 PUSH2 0x36D JUMP JUMPDEST PUSH2 0x317 JUMP JUMPDEST PUSH1 0x40 MLOAD PUSH2 0x146 SWAP2 SWAP1 PUSH2 0x3A9 JUMP JUMPDEST PUSH1 0x40 MLOAD DUP1 SWAP2 SUB SWAP1 RETURN JUMPDEST PUSH1 0x1 DUP2 PUSH1 0x3 DUP2 LT PUSH2 0x15F JUMPI PUSH1 0x0 DUP1 REVERT JUMPDEST ADD PUSH1 0x0 SWAP2 POP SWAP1 POP SLOAD DUP2 JUMP JUMPDEST PUSH1 0x0 PUSH1 0x1 SWAP1 DUP1 PUSH1 0x1 DUP2 SLOAD ADD DUP1 DUP3 SSTORE DUP1 SWAP2 POP POP PUSH1 0x1 SWAP1 SUB SWAP1 PUSH1 0x0 MSTORE PUSH1 0x20 PUSH1 0x0 KECCAK256 ADD PUSH1 0x0 SWAP1 SWAP2 SWAP1 SWAP2 SWAP1 SWAP2 POP SSTORE PUSH1 0x5 PUSH1 0x0 DUP1 DUP2 SLOAD DUP2 LT PUSH2 0x1AA JUMPI PUSH2 0x1A9 PUSH2 0x3C4 JUMP JUMPDEST JUMPDEST SWAP1 PUSH1 0x0 MSTORE PUSH1 0x20 PUSH1 0x0 KECCAK256 ADD DUP2 SWAP1 SSTORE POP PUSH1 0x0 DUP1 SLOAD DUP1 PUSH2 0x1CA JUMPI PUSH2 0x1C9 PUSH2 0x3F3 JUMP JUMPDEST JUMPDEST PUSH1 0x1 SWAP1 SUB DUP2 DUP2 SWAP1 PUSH1 0x0 MSTORE PUSH1 0x20 PUSH1 0x0 KECCAK256 ADD PUSH1 0x0 SWAP1 SSTORE SWAP1 SSTORE PUSH1 0x0 PUSH1 0x2 SWAP1 DUP1 PUSH1 0x1 DUP2 SLOAD ADD DUP1 DUP3 SSTORE DUP1 SWAP2 POP POP PUSH1 0x1 SWAP1 SUB SWAP1 PUSH1 0x0 MSTORE PUSH1 0x20 PUSH1 0x0 KECCAK256 ADD PUSH1 0x0 SWAP1 SWAP2 SWAP1 SWAP2 SWAP1 SWAP2 POP SSTORE PUSH1 0x0 PUSH1 0x3 SWAP1 DUP1 PUSH1 0x1 DUP2 SLOAD ADD DUP1 DUP3 SSTORE DUP1 SWAP2 POP POP PUSH1 0x1 SWAP1 SUB SWAP1 PUSH1 0x0 MSTORE PUSH1 0x20 PUSH1 0x0 KECCAK256 ADD PUSH1 0x0 SWAP1 SWAP2 SWAP1 SWAP2 SWAP1 SWAP2 POP SSTORE PUSH1 0x0 DUP1 DUP2 SLOAD DUP2 LT PUSH2 0x248 JUMPI PUSH2 0x247 PUSH2 0x3C4 JUMP JUMPDEST JUMPDEST SWAP1 PUSH1 0x0 MSTORE PUSH1 0x20 PUSH1 0x0 KECCAK256 ADD PUSH1 0x0 SWAP1 SSTORE PUSH1 0x0 PUSH1 0x5 PUSH8 0xFFFFFFFFFFFFFFFF DUP2 GT ISZERO PUSH2 0x273 JUMPI PUSH2 0x272 PUSH2 0x422 JUMP JUMPDEST JUMPDEST PUSH1 0x40 MLOAD SWAP1 DUP1 DUP3 MSTORE DUP1 PUSH1 0x20 MUL PUSH1 0x20 ADD DUP3 ADD PUSH1 0x40 MSTORE DUP1 ISZERO PUSH2 0x2A1 JUMPI DUP2 PUSH1 0x20 ADD PUSH1 0x20 DUP3 MUL DUP1 CALLDATASIZE DUP4 CALLDATACOPY DUP1 DUP3 ADD SWAP2 POP POP SWAP1 POP JUMPDEST POP SWAP1 POP PUSH1 0x1 DUP2 PUSH1 0x0 DUP2 MLOAD DUP2 LT PUSH2 0x2BA JUMPI PUSH2 0x2B9 PUSH2 0x3C4 JUMP JUMPDEST JUMPDEST PUSH1 0x20 MUL PUSH1 0x20 ADD ADD DUP2 DUP2 MSTORE POP POP POP JUMP JUMPDEST PUSH1 0x4 SLOAD DUP2 JUMP JUMPDEST PUSH1 0x5 DUP2 DUP2 SLOAD DUP2 LT PUSH2 0x2DF JUMPI PUSH1 0x0 DUP1 REVERT JUMPDEST SWAP1 PUSH1 0x0 MSTORE PUSH1 0x20 PUSH1 0x0 KECCAK256 ADD PUSH1 0x0 SWAP2 POP SWAP1 POP SLOAD DUP2 JUMP JUMPDEST PUSH1 0x0 DUP2 DUP2 SLOAD DUP2 LT PUSH2 0x303 JUMPI PUSH1 0x0 DUP1 REVERT JUMPDEST SWAP1 PUSH1 0x0 MSTORE PUSH1 0x20 PUSH1 0x0 KECCAK256 ADD PUSH1 0x0 SWAP2 POP SWAP1 POP SLOAD DUP2 JUMP JUMPDEST PUSH1 0x6 DUP2 PUSH1 0x3 DUP2 LT PUSH2 0x327 JUMPI PUSH1 0x0 DUP1 REVERT JUMPDEST ADD PUSH1 0x0 SWAP2 POP SWAP1 POP SLOAD DUP2 JUMP JUMPDEST PUSH1 0x0 DUP1 REVERT JUMPDEST PUSH1 0x0 DUP2 SWAP1 POP SWAP2 SWAP1 POP JUMP JUMPDEST PUSH2 0x34A DUP2 PUSH2 0x337 JUMP JUMPDEST DUP2 EQ PUSH2 0x355 JUMPI PUSH1 0x0 DUP1 REVERT JUMPDEST POP JUMP JUMPDEST PUSH1 0x0 DUP2 CALLDATALOAD SWAP1 POP PUSH2 0x367 DUP2 PUSH2 0x341 JUMP JUMPDEST SWAP3 SWAP2 POP POP JUMP JUMPDEST PUSH1 0x0 PUSH1 0x20 DUP3 DUP5 SUB SLT ISZERO PUSH2 0x383 JUMPI PUSH2 0x382 PUSH2 0x332 JUMP JUMPDEST JUMPDEST PUSH1 0x0 PUSH2 0x391 DUP5 DUP3 DUP6 ADD PUSH2 0x358 JUMP JUMPDEST SWAP2 POP POP SWAP3 SWAP2 POP POP JUMP JUMPDEST PUSH2 0x3A3 DUP2 PUSH2 0x337 JUMP JUMPDEST DUP3 MSTORE POP POP JUMP JUMPDEST PUSH1 0x0 PUSH1 0x20 DUP3 ADD SWAP1 POP PUSH2 0x3BE PUSH1 0x0 DUP4 ADD DUP5 PUSH2 0x39A JUMP JUMPDEST SWAP3 SWAP2 POP POP JUMP JUMPDEST PUSH32 0x4E487B7100000000000000000000000000000000000000000000000000000000 PUSH1 0x0 MSTORE PUSH1 0x32 PUSH1 0x4 MSTORE PUSH1 0x24 PUSH1 0x0 REVERT JUMPDEST PUSH32 0x4E487B7100000000000000000000000000000000000000000000000000000000 PUSH1 0x0 MSTORE PUSH1 0x31 PUSH1 0x4 MSTORE PUSH1 0x24 PUSH1 0x0 REVERT JUMPDEST PUSH32 0x4E487B7100000000000000000000000000000000000000000000000000000000 PUSH1 0x0 MSTORE PUSH1 0x41 PUSH1 0x4 MSTORE PUSH1 0x24 PUSH1 0x0 REVERT INVALID LOG2 PUSH5 0x6970667358 0x22 SLT KECCAK256 0xE 0xEF 0x29 0xCF 0xE1 0xB4 EXP DUP16 CREATE2 RETURNDATACOPY 0xDC 0x5D SELFDESTRUCT PUSH19 0xEACB0369BD8676CAF33380FE90DEA0B9DFE864 PUSH20 0x6F6C634300080F00330000000000000000000000 "
				},
				"gasEstimates": {
					"creation": {
						"codeDepositCost": "231800",
						"executionCost": "infinite",
						"totalCost": "infinite"
					},
					"external": {
						"example()": "200458",
						"len1()": "2451",
						"num(uint256)": "infinite",
						"num1(uint256)": "infinite",
						"numFixed(uint256)": "infinite",
						"numFixed1(uint256)": "infinite"
					}
				},
				"methodIdentifiers": {
					"example()": "54353f2f",
					"len1()": "79d3202e",
					"num(uint256)": "aa228b75",
					"num1(uint256)": "8e3abf4e",
					"numFixed(uint256)": "5331fdeb",
					"numFixed1(uint256)": "b5e9c6c9"
				}
			},
			"storageLayout": {
				"storage": [
					{
						"astId": 4,
						"contract": "study/chapter07/arryBasic.sol:testArray",
						"label": "num",
						"offset": 0,
						"slot": "0",
						"type": "t_array(t_uint256)dyn_storage"
					},
					{
						"astId": 8,
						"contract": "study/chapter07/arryBasic.sol:testArray",
						"label": "numFixed",
						"offset": 0,
						"slot": "1",
						"type": "t_array(t_uint256)3_storage"
					},
					{
						"astId": 12,
						"contract": "study/chapter07/arryBasic.sol:testArray",
						"label": "len1",
						"offset": 0,
						"slot": "4",
						"type": "t_uint256"
					},
					{
						"astId": 18,
						"contract": "study/chapter07/arryBasic.sol:testArray",
						"label": "num1",
						"offset": 0,
						"slot": "5",
						"type": "t_array(t_uint256)dyn_storage"
					},
					{
						"astId": 26,
						"contract": "study/chapter07/arryBasic.sol:testArray",
						"label": "numFixed1",
						"offset": 0,
						"slot": "6",
						"type": "t_array(t_uint256)3_storage"
					}
				],
				"types": {
					"t_array(t_uint256)3_storage": {
						"base": "t_uint256",
						"encoding": "inplace",
						"label": "uint256[3]",
						"numberOfBytes": "96"
					},
					"t_array(t_uint256)dyn_storage": {
						"base": "t_uint256",
						"encoding": "dynamic_array",
						"label": "uint256[]",
						"numberOfBytes": "32"
					},
					"t_uint256": {
						"encoding": "inplace",
						"label": "uint256",
						"numberOfBytes": "32"
					}
				}
			},
			"userdoc": {
				"kind": "user",
				"methods": {},
				"version": 1
			}
		}
	}
}