{
	"study/chapter07/stirngOpt.sol": {
		"Hello": {
			"abi": [
				{
					"inputs": [],
					"name": "b1",
					"outputs": [
						{
							"internalType": "bytes",
							"name": "",
							"type": "bytes"
						}
					],
					"stateMutability": "view",
					"type": "function"
				},
				{
					"inputs": [],
					"name": "equal",
					"outputs": [
						{
							"internalType": "bool",
							"name": "",
							"type": "bool"
						}
					],
					"stateMutability": "view",
					"type": "function"
				},
				{
					"inputs": [],
					"name": "greet",
					"outputs": [
						{
							"internalType": "string",
							"name": "",
							"type": "string"
						}
					],
					"stateMutability": "view",
					"type": "function"
				},
				{
					"inputs": [],
					"name": "isEqual",
					"outputs": [
						{
							"internalType": "bool",
							"name": "",
							"type": "bool"
						}
					],
					"stateMutability": "nonpayable",
					"type": "function"
				},
				{
					"inputs": [],
					"name": "s1",
					"outputs": [
						{
							"internalType": "string",
							"name": "",
							"type": "string"
						}
					],
					"stateMutability": "view",
					"type": "function"
				},
				{
					"inputs": [],
					"name": "s2",
					"outputs": [
						{
							"internalType": "string",
							"name": "",
							"type": "string"
						}
					],
					"stateMutability": "view",
					"type": "function"
				},
				{
					"inputs": [
						{
							"internalType": "string",
							"name": "a",
							"type": "string"
						}
					],
					"name": "str",
					"outputs": [
						{
							"internalType": "string",
							"name": "",
							"type": "string"
						}
					],
					"stateMutability": "view",
					"type": "function"
				}
			],
			"devdoc": {
				"kind": "dev",
				"methods": {},
				"version": 1
			},
			"evm": {
				"assembly": "    /* \"study/chapter07/stirngOpt.sol\":56:437  contract Hello {... */\n  mstore(0x40, 0x80)\n    /* \"study/chapter07/stirngOpt.sol\":77:108  string public greet = \"Hello, \" */\n  mload(0x40)\n  dup1\n  0x40\n  add\n  0x40\n  mstore\n  dup1\n  0x07\n  dup2\n  mstore\n  0x20\n  add\n  0x48656c6c6f2c2000000000000000000000000000000000000000000000000000\n  dup2\n  mstore\n  pop\n  0x00\n  swap1\n  dup2\n  tag_1\n  swap2\n  swap1\n  tag_2\n  jump\t// in\ntag_1:\n  pop\n    /* \"study/chapter07/stirngOpt.sol\":254:276  string public s1 = \"A\" */\n  mload(0x40)\n  dup1\n  0x40\n  add\n  0x40\n  mstore\n  dup1\n  0x01\n  dup2\n  mstore\n  0x20\n  add\n  0x4100000000000000000000000000000000000000000000000000000000000000\n  dup2\n  mstore\n  pop\n  0x01\n  swap1\n  dup2\n  tag_3\n  swap2\n  swap1\n  tag_2\n  jump\t// in\ntag_3:\n  pop\n    /* \"study/chapter07/stirngOpt.sol\":282:304  string public s2 = \"B\" */\n  mload(0x40)\n  dup1\n  0x40\n  add\n  0x40\n  mstore\n  dup1\n  0x01\n  dup2\n  mstore\n  0x20\n  add\n  0x4200000000000000000000000000000000000000000000000000000000000000\n  dup2\n  mstore\n  pop\n  0x02\n  swap1\n  dup2\n  tag_4\n  swap2\n  swap1\n  tag_2\n  jump\t// in\ntag_4:\n  pop\n    /* \"study/chapter07/stirngOpt.sol\":346:348  s1 */\n  0x01\n    /* \"study/chapter07/stirngOpt.sol\":329:349  abi.encodePacked(s1) */\n  add(0x20, mload(0x40))\n  tag_5\n  swap2\n  swap1\n  tag_6\n  jump\t// in\ntag_5:\n  mload(0x40)\n  0x20\n  dup2\n  dup4\n  sub\n  sub\n  dup2\n  mstore\n  swap1\n  0x40\n  mstore\n    /* \"study/chapter07/stirngOpt.sol\":311:349  bytes public b1 = abi.encodePacked(s1) */\n  0x03\n  swap1\n  dup2\n  tag_7\n  swap2\n  swap1\n  tag_8\n  jump\t// in\ntag_7:\n  pop\n    /* \"study/chapter07/stirngOpt.sol\":56:437  contract Hello {... */\n  callvalue\n  dup1\n  iszero\n  tag_9\n  jumpi\n  0x00\n  dup1\n  revert\ntag_9:\n  pop\n  jump(tag_10)\n    /* \"#utility.yul\":7:106   */\ntag_11:\n    /* \"#utility.yul\":59:65   */\n  0x00\n    /* \"#utility.yul\":93:98   */\n  dup2\n    /* \"#utility.yul\":87:99   */\n  mload\n    /* \"#utility.yul\":77:99   */\n  swap1\n  pop\n    /* \"#utility.yul\":7:106   */\n  swap2\n  swap1\n  pop\n  jump\t// out\n    /* \"#utility.yul\":112:292   */\ntag_12:\n    /* \"#utility.yul\":160:237   */\n  0x4e487b7100000000000000000000000000000000000000000000000000000000\n    /* \"#utility.yul\":157:158   */\n  0x00\n    /* \"#utility.yul\":150:238   */\n  mstore\n    /* \"#utility.yul\":257:261   */\n  0x41\n    /* \"#utility.yul\":254:255   */\n  0x04\n    /* \"#utility.yul\":247:262   */\n  mstore\n    /* \"#utility.yul\":281:285   */\n  0x24\n    /* \"#utility.yul\":278:279   */\n  0x00\n    /* \"#utility.yul\":271:286   */\n  revert\n    /* \"#utility.yul\":298:478   */\ntag_13:\n    /* \"#utility.yul\":346:423   */\n  0x4e487b7100000000000000000000000000000000000000000000000000000000\n    /* \"#utility.yul\":343:344   */\n  0x00\n    /* \"#utility.yul\":336:424   */\n  mstore\n    /* \"#utility.yul\":443:447   */\n  0x22\n    /* \"#utility.yul\":440:441   */\n  0x04\n    /* \"#utility.yul\":433:448   */\n  mstore\n    /* \"#utility.yul\":467:471   */\n  0x24\n    /* \"#utility.yul\":464:465   */\n  0x00\n    /* \"#utility.yul\":457:472   */\n  revert\n    /* \"#utility.yul\":484:804   */\ntag_14:\n    /* \"#utility.yul\":528:534   */\n  0x00\n    /* \"#utility.yul\":565:566   */\n  0x02\n    /* \"#utility.yul\":559:563   */\n  dup3\n    /* \"#utility.yul\":555:567   */\n  div\n    /* \"#utility.yul\":545:567   */\n  swap1\n  pop\n    /* \"#utility.yul\":612:613   */\n  0x01\n    /* \"#utility.yul\":606:610   */\n  dup3\n    /* \"#utility.yul\":602:614   */\n  and\n    /* \"#utility.yul\":633:651   */\n  dup1\n    /* \"#utility.yul\":623:704   */\n  tag_41\n  jumpi\n    /* \"#utility.yul\":689:693   */\n  0x7f\n    /* \"#utility.yul\":681:687   */\n  dup3\n    /* \"#utility.yul\":677:694   */\n  and\n    /* \"#utility.yul\":667:694   */\n  swap2\n  pop\n    /* \"#utility.yul\":623:704   */\ntag_41:\n    /* \"#utility.yul\":751:753   */\n  0x20\n    /* \"#utility.yul\":743:749   */\n  dup3\n    /* \"#utility.yul\":740:754   */\n  lt\n    /* \"#utility.yul\":720:738   */\n  dup2\n    /* \"#utility.yul\":717:755   */\n  sub\n    /* \"#utility.yul\":714:798   */\n  tag_42\n  jumpi\n    /* \"#utility.yul\":770:788   */\n  tag_43\n  tag_13\n  jump\t// in\ntag_43:\n    /* \"#utility.yul\":714:798   */\ntag_42:\n    /* \"#utility.yul\":535:804   */\n  pop\n    /* \"#utility.yul\":484:804   */\n  swap2\n  swap1\n  pop\n  jump\t// out\n    /* \"#utility.yul\":810:951   */\ntag_15:\n    /* \"#utility.yul\":859:863   */\n  0x00\n    /* \"#utility.yul\":882:885   */\n  dup2\n    /* \"#utility.yul\":874:885   */\n  swap1\n  pop\n    /* \"#utility.yul\":905:908   */\n  dup2\n    /* \"#utility.yul\":902:903   */\n  0x00\n    /* \"#utility.yul\":895:909   */\n  mstore\n    /* \"#utility.yul\":939:943   */\n  0x20\n    /* \"#utility.yul\":936:937   */\n  0x00\n    /* \"#utility.yul\":926:944   */\n  keccak256\n    /* \"#utility.yul\":918:944   */\n  swap1\n  pop\n    /* \"#utility.yul\":810:951   */\n  swap2\n  swap1\n  pop\n  jump\t// out\n    /* \"#utility.yul\":957:1050   */\ntag_16:\n    /* \"#utility.yul\":994:1000   */\n  0x00\n    /* \"#utility.yul\":1041:1043   */\n  0x20\n    /* \"#utility.yul\":1036:1038   */\n  0x1f\n    /* \"#utility.yul\":1029:1034   */\n  dup4\n    /* \"#utility.yul\":1025:1039   */\n  add\n    /* \"#utility.yul\":1021:1044   */\n  div\n    /* \"#utility.yul\":1011:1044   */\n  swap1\n  pop\n    /* \"#utility.yul\":957:1050   */\n  swap2\n  swap1\n  pop\n  jump\t// out\n    /* \"#utility.yul\":1056:1163   */\ntag_17:\n    /* \"#utility.yul\":1100:1108   */\n  0x00\n    /* \"#utility.yul\":1150:1155   */\n  dup3\n    /* \"#utility.yul\":1144:1148   */\n  dup3\n    /* \"#utility.yul\":1140:1156   */\n  shl\n    /* \"#utility.yul\":1119:1156   */\n  swap1\n  pop\n    /* \"#utility.yul\":1056:1163   */\n  swap3\n  swap2\n  pop\n  pop\n  jump\t// out\n    /* \"#utility.yul\":1169:1562   */\ntag_18:\n    /* \"#utility.yul\":1238:1244   */\n  0x00\n    /* \"#utility.yul\":1288:1289   */\n  0x08\n    /* \"#utility.yul\":1276:1286   */\n  dup4\n    /* \"#utility.yul\":1272:1290   */\n  mul\n    /* \"#utility.yul\":1311:1408   */\n  tag_48\n    /* \"#utility.yul\":1341:1407   */\n  0xffffffffffffffffffffffffffffffffffffffffffffffffffffffffffffffff\n    /* \"#utility.yul\":1330:1339   */\n  dup3\n    /* \"#utility.yul\":1311:1408   */\n  tag_17\n  jump\t// in\ntag_48:\n    /* \"#utility.yul\":1429:1468   */\n  tag_49\n    /* \"#utility.yul\":1459:1467   */\n  dup7\n    /* \"#utility.yul\":1448:1457   */\n  dup4\n    /* \"#utility.yul\":1429:1468   */\n  tag_17\n  jump\t// in\ntag_49:\n    /* \"#utility.yul\":1417:1468   */\n  swap6\n  pop\n    /* \"#utility.yul\":1501:1505   */\n  dup1\n    /* \"#utility.yul\":1497:1506   */\n  not\n    /* \"#utility.yul\":1490:1495   */\n  dup5\n    /* \"#utility.yul\":1486:1507   */\n  and\n    /* \"#utility.yul\":1477:1507   */\n  swap4\n  pop\n    /* \"#utility.yul\":1550:1554   */\n  dup1\n    /* \"#utility.yul\":1540:1548   */\n  dup7\n    /* \"#utility.yul\":1536:1555   */\n  and\n    /* \"#utility.yul\":1529:1534   */\n  dup5\n    /* \"#utility.yul\":1526:1556   */\n  or\n    /* \"#utility.yul\":1516:1556   */\n  swap3\n  pop\n    /* \"#utility.yul\":1245:1562   */\n  pop\n  pop\n    /* \"#utility.yul\":1169:1562   */\n  swap4\n  swap3\n  pop\n  pop\n  pop\n  jump\t// out\n    /* \"#utility.yul\":1568:1645   */\ntag_19:\n    /* \"#utility.yul\":1605:1612   */\n  0x00\n    /* \"#utility.yul\":1634:1639   */\n  dup2\n    /* \"#utility.yul\":1623:1639   */\n  swap1\n  pop\n    /* \"#utility.yul\":1568:1645   */\n  swap2\n  swap1\n  pop\n  jump\t// out\n    /* \"#utility.yul\":1651:1711   */\ntag_20:\n    /* \"#utility.yul\":1679:1682   */\n  0x00\n    /* \"#utility.yul\":1700:1705   */\n  dup2\n    /* \"#utility.yul\":1693:1705   */\n  swap1\n  pop\n    /* \"#utility.yul\":1651:1711   */\n  swap2\n  swap1\n  pop\n  jump\t// out\n    /* \"#utility.yul\":1717:1859   */\ntag_21:\n    /* \"#utility.yul\":1767:1776   */\n  0x00\n    /* \"#utility.yul\":1800:1853   */\n  tag_53\n    /* \"#utility.yul\":1818:1852   */\n  tag_54\n    /* \"#utility.yul\":1827:1851   */\n  tag_55\n    /* \"#utility.yul\":1845:1850   */\n  dup5\n    /* \"#utility.yul\":1827:1851   */\n  tag_19\n  jump\t// in\ntag_55:\n    /* \"#utility.yul\":1818:1852   */\n  tag_20\n  jump\t// in\ntag_54:\n    /* \"#utility.yul\":1800:1853   */\n  tag_19\n  jump\t// in\ntag_53:\n    /* \"#utility.yul\":1787:1853   */\n  swap1\n  pop\n    /* \"#utility.yul\":1717:1859   */\n  swap2\n  swap1\n  pop\n  jump\t// out\n    /* \"#utility.yul\":1865:1940   */\ntag_22:\n    /* \"#utility.yul\":1908:1911   */\n  0x00\n    /* \"#utility.yul\":1929:1934   */\n  dup2\n    /* \"#utility.yul\":1922:1934   */\n  swap1\n  pop\n    /* \"#utility.yul\":1865:1940   */\n  swap2\n  swap1\n  pop\n  jump\t// out\n    /* \"#utility.yul\":1946:2215   */\ntag_23:\n    /* \"#utility.yul\":2056:2095   */\n  tag_58\n    /* \"#utility.yul\":2087:2094   */\n  dup4\n    /* \"#utility.yul\":2056:2095   */\n  tag_21\n  jump\t// in\ntag_58:\n    /* \"#utility.yul\":2117:2208   */\n  tag_59\n    /* \"#utility.yul\":2166:2207   */\n  tag_60\n    /* \"#utility.yul\":2190:2206   */\n  dup3\n    /* \"#utility.yul\":2166:2207   */\n  tag_22\n  jump\t// in\ntag_60:\n    /* \"#utility.yul\":2158:2164   */\n  dup5\n    /* \"#utility.yul\":2151:2155   */\n  dup5\n    /* \"#utility.yul\":2145:2156   */\n  sload\n    /* \"#utility.yul\":2117:2208   */\n  tag_18\n  jump\t// in\ntag_59:\n    /* \"#utility.yul\":2111:2115   */\n  dup3\n    /* \"#utility.yul\":2104:2209   */\n  sstore\n    /* \"#utility.yul\":2022:2215   */\n  pop\n    /* \"#utility.yul\":1946:2215   */\n  pop\n  pop\n  pop\n  jump\t// out\n    /* \"#utility.yul\":2221:2294   */\ntag_24:\n    /* \"#utility.yul\":2266:2269   */\n  0x00\n    /* \"#utility.yul\":2221:2294   */\n  swap1\n  jump\t// out\n    /* \"#utility.yul\":2300:2489   */\ntag_25:\n    /* \"#utility.yul\":2377:2409   */\n  tag_63\n  tag_24\n  jump\t// in\ntag_63:\n    /* \"#utility.yul\":2418:2483   */\n  tag_64\n    /* \"#utility.yul\":2476:2482   */\n  dup2\n    /* \"#utility.yul\":2468:2474   */\n  dup5\n    /* \"#utility.yul\":2462:2466   */\n  dup5\n    /* \"#utility.yul\":2418:2483   */\n  tag_23\n  jump\t// in\ntag_64:\n    /* \"#utility.yul\":2353:2489   */\n  pop\n    /* \"#utility.yul\":2300:2489   */\n  pop\n  pop\n  jump\t// out\n    /* \"#utility.yul\":2495:2681   */\ntag_26:\n    /* \"#utility.yul\":2555:2675   */\ntag_66:\n    /* \"#utility.yul\":2572:2575   */\n  dup2\n    /* \"#utility.yul\":2565:2570   */\n  dup2\n    /* \"#utility.yul\":2562:2576   */\n  lt\n    /* \"#utility.yul\":2555:2675   */\n  iszero\n  tag_68\n  jumpi\n    /* \"#utility.yul\":2626:2665   */\n  tag_69\n    /* \"#utility.yul\":2663:2664   */\n  0x00\n    /* \"#utility.yul\":2656:2661   */\n  dup3\n    /* \"#utility.yul\":2626:2665   */\n  tag_25\n  jump\t// in\ntag_69:\n    /* \"#utility.yul\":2599:2600   */\n  0x01\n    /* \"#utility.yul\":2592:2597   */\n  dup2\n    /* \"#utility.yul\":2588:2601   */\n  add\n    /* \"#utility.yul\":2579:2601   */\n  swap1\n  pop\n    /* \"#utility.yul\":2555:2675   */\n  jump(tag_66)\ntag_68:\n    /* \"#utility.yul\":2495:2681   */\n  pop\n  pop\n  jump\t// out\n    /* \"#utility.yul\":2687:3230   */\ntag_27:\n    /* \"#utility.yul\":2788:2790   */\n  0x1f\n    /* \"#utility.yul\":2783:2786   */\n  dup3\n    /* \"#utility.yul\":2780:2791   */\n  gt\n    /* \"#utility.yul\":2777:3223   */\n  iszero\n  tag_71\n  jumpi\n    /* \"#utility.yul\":2822:2860   */\n  tag_72\n    /* \"#utility.yul\":2854:2859   */\n  dup2\n    /* \"#utility.yul\":2822:2860   */\n  tag_15\n  jump\t// in\ntag_72:\n    /* \"#utility.yul\":2906:2935   */\n  tag_73\n    /* \"#utility.yul\":2924:2934   */\n  dup5\n    /* \"#utility.yul\":2906:2935   */\n  tag_16\n  jump\t// in\ntag_73:\n    /* \"#utility.yul\":2896:2904   */\n  dup2\n    /* \"#utility.yul\":2892:2936   */\n  add\n    /* \"#utility.yul\":3089:3091   */\n  0x20\n    /* \"#utility.yul\":3077:3087   */\n  dup6\n    /* \"#utility.yul\":3074:3092   */\n  lt\n    /* \"#utility.yul\":3071:3120   */\n  iszero\n  tag_74\n  jumpi\n    /* \"#utility.yul\":3110:3118   */\n  dup2\n    /* \"#utility.yul\":3095:3118   */\n  swap1\n  pop\n    /* \"#utility.yul\":3071:3120   */\ntag_74:\n    /* \"#utility.yul\":3133:3213   */\n  tag_75\n    /* \"#utility.yul\":3189:3211   */\n  tag_76\n    /* \"#utility.yul\":3207:3210   */\n  dup6\n    /* \"#utility.yul\":3189:3211   */\n  tag_16\n  jump\t// in\ntag_76:\n    /* \"#utility.yul\":3179:3187   */\n  dup4\n    /* \"#utility.yul\":3175:3212   */\n  add\n    /* \"#utility.yul\":3162:3173   */\n  dup3\n    /* \"#utility.yul\":3133:3213   */\n  tag_26\n  jump\t// in\ntag_75:\n    /* \"#utility.yul\":2792:3223   */\n  pop\n  pop\n    /* \"#utility.yul\":2777:3223   */\ntag_71:\n    /* \"#utility.yul\":2687:3230   */\n  pop\n  pop\n  pop\n  jump\t// out\n    /* \"#utility.yul\":3236:3353   */\ntag_28:\n    /* \"#utility.yul\":3290:3298   */\n  0x00\n    /* \"#utility.yul\":3340:3345   */\n  dup3\n    /* \"#utility.yul\":3334:3338   */\n  dup3\n    /* \"#utility.yul\":3330:3346   */\n  shr\n    /* \"#utility.yul\":3309:3346   */\n  swap1\n  pop\n    /* \"#utility.yul\":3236:3353   */\n  swap3\n  swap2\n  pop\n  pop\n  jump\t// out\n    /* \"#utility.yul\":3359:3528   */\ntag_29:\n    /* \"#utility.yul\":3403:3409   */\n  0x00\n    /* \"#utility.yul\":3436:3487   */\n  tag_79\n    /* \"#utility.yul\":3484:3485   */\n  0x00\n    /* \"#utility.yul\":3480:3486   */\n  not\n    /* \"#utility.yul\":3472:3477   */\n  dup5\n    /* \"#utility.yul\":3469:3470   */\n  0x08\n    /* \"#utility.yul\":3465:3478   */\n  mul\n    /* \"#utility.yul\":3436:3487   */\n  tag_28\n  jump\t// in\ntag_79:\n    /* \"#utility.yul\":3432:3488   */\n  not\n    /* \"#utility.yul\":3517:3521   */\n  dup1\n    /* \"#utility.yul\":3511:3515   */\n  dup4\n    /* \"#utility.yul\":3507:3522   */\n  and\n    /* \"#utility.yul\":3497:3522   */\n  swap2\n  pop\n    /* \"#utility.yul\":3410:3528   */\n  pop\n    /* \"#utility.yul\":3359:3528   */\n  swap3\n  swap2\n  pop\n  pop\n  jump\t// out\n    /* \"#utility.yul\":3533:3828   */\ntag_30:\n    /* \"#utility.yul\":3609:3613   */\n  0x00\n    /* \"#utility.yul\":3755:3784   */\n  tag_81\n    /* \"#utility.yul\":3780:3783   */\n  dup4\n    /* \"#utility.yul\":3774:3778   */\n  dup4\n    /* \"#utility.yul\":3755:3784   */\n  tag_29\n  jump\t// in\ntag_81:\n    /* \"#utility.yul\":3747:3784   */\n  swap2\n  pop\n    /* \"#utility.yul\":3817:3820   */\n  dup3\n    /* \"#utility.yul\":3814:3815   */\n  0x02\n    /* \"#utility.yul\":3810:3821   */\n  mul\n    /* \"#utility.yul\":3804:3808   */\n  dup3\n    /* \"#utility.yul\":3801:3822   */\n  or\n    /* \"#utility.yul\":3793:3822   */\n  swap1\n  pop\n    /* \"#utility.yul\":3533:3828   */\n  swap3\n  swap2\n  pop\n  pop\n  jump\t// out\n    /* \"#utility.yul\":3833:5228   */\ntag_2:\n    /* \"#utility.yul\":3950:3987   */\n  tag_83\n    /* \"#utility.yul\":3983:3986   */\n  dup3\n    /* \"#utility.yul\":3950:3987   */\n  tag_11\n  jump\t// in\ntag_83:\n    /* \"#utility.yul\":4052:4070   */\n  0xffffffffffffffff\n    /* \"#utility.yul\":4044:4050   */\n  dup2\n    /* \"#utility.yul\":4041:4071   */\n  gt\n    /* \"#utility.yul\":4038:4094   */\n  iszero\n  tag_84\n  jumpi\n    /* \"#utility.yul\":4074:4092   */\n  tag_85\n  tag_12\n  jump\t// in\ntag_85:\n    /* \"#utility.yul\":4038:4094   */\ntag_84:\n    /* \"#utility.yul\":4118:4156   */\n  tag_86\n    /* \"#utility.yul\":4150:4154   */\n  dup3\n    /* \"#utility.yul\":4144:4155   */\n  sload\n    /* \"#utility.yul\":4118:4156   */\n  tag_14\n  jump\t// in\ntag_86:\n    /* \"#utility.yul\":4203:4270   */\n  tag_87\n    /* \"#utility.yul\":4263:4269   */\n  dup3\n    /* \"#utility.yul\":4255:4261   */\n  dup3\n    /* \"#utility.yul\":4249:4253   */\n  dup6\n    /* \"#utility.yul\":4203:4270   */\n  tag_27\n  jump\t// in\ntag_87:\n    /* \"#utility.yul\":4297:4298   */\n  0x00\n    /* \"#utility.yul\":4321:4325   */\n  0x20\n    /* \"#utility.yul\":4308:4325   */\n  swap1\n  pop\n    /* \"#utility.yul\":4353:4355   */\n  0x1f\n    /* \"#utility.yul\":4345:4351   */\n  dup4\n    /* \"#utility.yul\":4342:4356   */\n  gt\n    /* \"#utility.yul\":4370:4371   */\n  0x01\n    /* \"#utility.yul\":4365:4983   */\n  dup2\n  eq\n  tag_89\n  jumpi\n    /* \"#utility.yul\":5027:5028   */\n  0x00\n    /* \"#utility.yul\":5044:5050   */\n  dup5\n    /* \"#utility.yul\":5041:5118   */\n  iszero\n  tag_90\n  jumpi\n    /* \"#utility.yul\":5093:5102   */\n  dup3\n    /* \"#utility.yul\":5088:5091   */\n  dup8\n    /* \"#utility.yul\":5084:5103   */\n  add\n    /* \"#utility.yul\":5078:5104   */\n  mload\n    /* \"#utility.yul\":5069:5104   */\n  swap1\n  pop\n    /* \"#utility.yul\":5041:5118   */\ntag_90:\n    /* \"#utility.yul\":5144:5211   */\n  tag_91\n    /* \"#utility.yul\":5204:5210   */\n  dup6\n    /* \"#utility.yul\":5197:5202   */\n  dup3\n    /* \"#utility.yul\":5144:5211   */\n  tag_30\n  jump\t// in\ntag_91:\n    /* \"#utility.yul\":5138:5142   */\n  dup7\n    /* \"#utility.yul\":5131:5212   */\n  sstore\n    /* \"#utility.yul\":5000:5222   */\n  pop\n    /* \"#utility.yul\":4335:5222   */\n  jump(tag_88)\n    /* \"#utility.yul\":4365:4983   */\ntag_89:\n    /* \"#utility.yul\":4417:4421   */\n  0x1f\n    /* \"#utility.yul\":4413:4422   */\n  not\n    /* \"#utility.yul\":4405:4411   */\n  dup5\n    /* \"#utility.yul\":4401:4423   */\n  and\n    /* \"#utility.yul\":4451:4488   */\n  tag_92\n    /* \"#utility.yul\":4483:4487   */\n  dup7\n    /* \"#utility.yul\":4451:4488   */\n  tag_15\n  jump\t// in\ntag_92:\n    /* \"#utility.yul\":4510:4511   */\n  0x00\n    /* \"#utility.yul\":4524:4732   */\ntag_93:\n    /* \"#utility.yul\":4538:4545   */\n  dup3\n    /* \"#utility.yul\":4535:4536   */\n  dup2\n    /* \"#utility.yul\":4532:4546   */\n  lt\n    /* \"#utility.yul\":4524:4732   */\n  iszero\n  tag_95\n  jumpi\n    /* \"#utility.yul\":4617:4626   */\n  dup5\n    /* \"#utility.yul\":4612:4615   */\n  dup10\n    /* \"#utility.yul\":4608:4627   */\n  add\n    /* \"#utility.yul\":4602:4628   */\n  mload\n    /* \"#utility.yul\":4594:4600   */\n  dup3\n    /* \"#utility.yul\":4587:4629   */\n  sstore\n    /* \"#utility.yul\":4668:4669   */\n  0x01\n    /* \"#utility.yul\":4660:4666   */\n  dup3\n    /* \"#utility.yul\":4656:4670   */\n  add\n    /* \"#utility.yul\":4646:4670   */\n  swap2\n  pop\n    /* \"#utility.yul\":4715:4717   */\n  0x20\n    /* \"#utility.yul\":4704:4713   */\n  dup6\n    /* \"#utility.yul\":4700:4718   */\n  add\n    /* \"#utility.yul\":4687:4718   */\n  swap5\n  pop\n    /* \"#utility.yul\":4561:4565   */\n  0x20\n    /* \"#utility.yul\":4558:4559   */\n  dup2\n    /* \"#utility.yul\":4554:4566   */\n  add\n    /* \"#utility.yul\":4549:4566   */\n  swap1\n  pop\n    /* \"#utility.yul\":4524:4732   */\n  jump(tag_93)\ntag_95:\n    /* \"#utility.yul\":4760:4766   */\n  dup7\n    /* \"#utility.yul\":4751:4758   */\n  dup4\n    /* \"#utility.yul\":4748:4767   */\n  lt\n    /* \"#utility.yul\":4745:4924   */\n  iszero\n  tag_96\n  jumpi\n    /* \"#utility.yul\":4818:4827   */\n  dup5\n    /* \"#utility.yul\":4813:4816   */\n  dup10\n    /* \"#utility.yul\":4809:4828   */\n  add\n    /* \"#utility.yul\":4803:4829   */\n  mload\n    /* \"#utility.yul\":4861:4909   */\n  tag_97\n    /* \"#utility.yul\":4903:4907   */\n  0x1f\n    /* \"#utility.yul\":4895:4901   */\n  dup10\n    /* \"#utility.yul\":4891:4908   */\n  and\n    /* \"#utility.yul\":4880:4889   */\n  dup3\n    /* \"#utility.yul\":4861:4909   */\n  tag_29\n  jump\t// in\ntag_97:\n    /* \"#utility.yul\":4853:4859   */\n  dup4\n    /* \"#utility.yul\":4846:4910   */\n  sstore\n    /* \"#utility.yul\":4768:4924   */\n  pop\n    /* \"#utility.yul\":4745:4924   */\ntag_96:\n    /* \"#utility.yul\":4970:4971   */\n  0x01\n    /* \"#utility.yul\":4966:4967   */\n  0x02\n    /* \"#utility.yul\":4958:4964   */\n  dup9\n    /* \"#utility.yul\":4954:4968   */\n  mul\n    /* \"#utility.yul\":4950:4972   */\n  add\n    /* \"#utility.yul\":4944:4948   */\n  dup9\n    /* \"#utility.yul\":4937:4973   */\n  sstore\n    /* \"#utility.yul\":4372:4983   */\n  pop\n  pop\n  pop\n    /* \"#utility.yul\":4335:5222   */\ntag_88:\n  pop\n    /* \"#utility.yul\":3925:5228   */\n  pop\n  pop\n  pop\n    /* \"#utility.yul\":3833:5228   */\n  pop\n  pop\n  jump\t// out\n    /* \"#utility.yul\":5234:5382   */\ntag_31:\n    /* \"#utility.yul\":5336:5347   */\n  0x00\n    /* \"#utility.yul\":5373:5376   */\n  dup2\n    /* \"#utility.yul\":5358:5376   */\n  swap1\n  pop\n    /* \"#utility.yul\":5234:5382   */\n  swap3\n  swap2\n  pop\n  pop\n  jump\t// out\n    /* \"#utility.yul\":5412:6286   */\ntag_32:\n    /* \"#utility.yul\":5515:5518   */\n  0x00\n    /* \"#utility.yul\":5552:5557   */\n  dup2\n    /* \"#utility.yul\":5546:5558   */\n  sload\n    /* \"#utility.yul\":5581:5617   */\n  tag_100\n    /* \"#utility.yul\":5607:5616   */\n  dup2\n    /* \"#utility.yul\":5581:5617   */\n  tag_14\n  jump\t// in\ntag_100:\n    /* \"#utility.yul\":5633:5722   */\n  tag_101\n    /* \"#utility.yul\":5715:5721   */\n  dup2\n    /* \"#utility.yul\":5710:5713   */\n  dup7\n    /* \"#utility.yul\":5633:5722   */\n  tag_31\n  jump\t// in\ntag_101:\n    /* \"#utility.yul\":5626:5722   */\n  swap5\n  pop\n    /* \"#utility.yul\":5753:5754   */\n  0x01\n    /* \"#utility.yul\":5742:5751   */\n  dup3\n    /* \"#utility.yul\":5738:5755   */\n  and\n    /* \"#utility.yul\":5769:5770   */\n  0x00\n    /* \"#utility.yul\":5764:5930   */\n  dup2\n  eq\n  tag_103\n  jumpi\n    /* \"#utility.yul\":5944:5945   */\n  0x01\n    /* \"#utility.yul\":5939:6280   */\n  dup2\n  eq\n  tag_104\n  jumpi\n    /* \"#utility.yul\":5731:6280   */\n  jump(tag_102)\n    /* \"#utility.yul\":5764:5930   */\ntag_103:\n    /* \"#utility.yul\":5848:5852   */\n  0xff\n    /* \"#utility.yul\":5844:5853   */\n  not\n    /* \"#utility.yul\":5833:5842   */\n  dup4\n    /* \"#utility.yul\":5829:5854   */\n  and\n    /* \"#utility.yul\":5824:5827   */\n  dup7\n    /* \"#utility.yul\":5817:5855   */\n  mstore\n    /* \"#utility.yul\":5910:5916   */\n  dup2\n    /* \"#utility.yul\":5903:5917   */\n  iszero\n    /* \"#utility.yul\":5896:5918   */\n  iszero\n    /* \"#utility.yul\":5888:5894   */\n  dup3\n    /* \"#utility.yul\":5884:5919   */\n  mul\n    /* \"#utility.yul\":5879:5882   */\n  dup7\n    /* \"#utility.yul\":5875:5920   */\n  add\n    /* \"#utility.yul\":5868:5920   */\n  swap4\n  pop\n    /* \"#utility.yul\":5764:5930   */\n  jump(tag_102)\n    /* \"#utility.yul\":5939:6280   */\ntag_104:\n    /* \"#utility.yul\":6006:6044   */\n  tag_105\n    /* \"#utility.yul\":6038:6043   */\n  dup6\n    /* \"#utility.yul\":6006:6044   */\n  tag_15\n  jump\t// in\ntag_105:\n    /* \"#utility.yul\":6066:6067   */\n  0x00\n    /* \"#utility.yul\":6080:6234   */\ntag_106:\n    /* \"#utility.yul\":6094:6100   */\n  dup4\n    /* \"#utility.yul\":6091:6092   */\n  dup2\n    /* \"#utility.yul\":6088:6101   */\n  lt\n    /* \"#utility.yul\":6080:6234   */\n  iszero\n  tag_108\n  jumpi\n    /* \"#utility.yul\":6168:6175   */\n  dup2\n    /* \"#utility.yul\":6162:6176   */\n  sload\n    /* \"#utility.yul\":6158:6159   */\n  dup2\n    /* \"#utility.yul\":6153:6156   */\n  dup10\n    /* \"#utility.yul\":6149:6160   */\n  add\n    /* \"#utility.yul\":6142:6177   */\n  mstore\n    /* \"#utility.yul\":6218:6219   */\n  0x01\n    /* \"#utility.yul\":6209:6216   */\n  dup3\n    /* \"#utility.yul\":6205:6220   */\n  add\n    /* \"#utility.yul\":6194:6220   */\n  swap2\n  pop\n    /* \"#utility.yul\":6116:6120   */\n  0x20\n    /* \"#utility.yul\":6113:6114   */\n  dup2\n    /* \"#utility.yul\":6109:6121   */\n  add\n    /* \"#utility.yul\":6104:6121   */\n  swap1\n  pop\n    /* \"#utility.yul\":6080:6234   */\n  jump(tag_106)\ntag_108:\n    /* \"#utility.yul\":6263:6269   */\n  dup4\n    /* \"#utility.yul\":6258:6261   */\n  dup9\n    /* \"#utility.yul\":6254:6270   */\n  add\n    /* \"#utility.yul\":6247:6270   */\n  swap6\n  pop\n    /* \"#utility.yul\":5946:6280   */\n  pop\n  pop\n    /* \"#utility.yul\":5731:6280   */\ntag_102:\n  pop\n    /* \"#utility.yul\":5519:6286   */\n  pop\n  pop\n    /* \"#utility.yul\":5412:6286   */\n  swap3\n  swap2\n  pop\n  pop\n  jump\t// out\n    /* \"#utility.yul\":6292:6561   */\ntag_6:\n    /* \"#utility.yul\":6421:6424   */\n  0x00\n    /* \"#utility.yul\":6443:6535   */\n  tag_110\n    /* \"#utility.yul\":6531:6534   */\n  dup3\n    /* \"#utility.yul\":6522:6528   */\n  dup5\n    /* \"#utility.yul\":6443:6535   */\n  tag_32\n  jump\t// in\ntag_110:\n    /* \"#utility.yul\":6436:6535   */\n  swap2\n  pop\n    /* \"#utility.yul\":6552:6555   */\n  dup2\n    /* \"#utility.yul\":6545:6555   */\n  swap1\n  pop\n    /* \"#utility.yul\":6292:6561   */\n  swap3\n  swap2\n  pop\n  pop\n  jump\t// out\n    /* \"#utility.yul\":6567:6665   */\ntag_33:\n    /* \"#utility.yul\":6618:6624   */\n  0x00\n    /* \"#utility.yul\":6652:6657   */\n  dup2\n    /* \"#utility.yul\":6646:6658   */\n  mload\n    /* \"#utility.yul\":6636:6658   */\n  swap1\n  pop\n    /* \"#utility.yul\":6567:6665   */\n  swap2\n  swap1\n  pop\n  jump\t// out\n    /* \"#utility.yul\":6671:6811   */\ntag_34:\n    /* \"#utility.yul\":6719:6723   */\n  0x00\n    /* \"#utility.yul\":6742:6745   */\n  dup2\n    /* \"#utility.yul\":6734:6745   */\n  swap1\n  pop\n    /* \"#utility.yul\":6765:6768   */\n  dup2\n    /* \"#utility.yul\":6762:6763   */\n  0x00\n    /* \"#utility.yul\":6755:6769   */\n  mstore\n    /* \"#utility.yul\":6799:6803   */\n  0x20\n    /* \"#utility.yul\":6796:6797   */\n  0x00\n    /* \"#utility.yul\":6786:6804   */\n  keccak256\n    /* \"#utility.yul\":6778:6804   */\n  swap1\n  pop\n    /* \"#utility.yul\":6671:6811   */\n  swap2\n  swap1\n  pop\n  jump\t// out\n    /* \"#utility.yul\":6817:7358   */\ntag_35:\n    /* \"#utility.yul\":6917:6919   */\n  0x1f\n    /* \"#utility.yul\":6912:6915   */\n  dup3\n    /* \"#utility.yul\":6909:6920   */\n  gt\n    /* \"#utility.yul\":6906:7351   */\n  iszero\n  tag_114\n  jumpi\n    /* \"#utility.yul\":6951:6988   */\n  tag_115\n    /* \"#utility.yul\":6982:6987   */\n  dup2\n    /* \"#utility.yul\":6951:6988   */\n  tag_34\n  jump\t// in\ntag_115:\n    /* \"#utility.yul\":7034:7063   */\n  tag_116\n    /* \"#utility.yul\":7052:7062   */\n  dup5\n    /* \"#utility.yul\":7034:7063   */\n  tag_16\n  jump\t// in\ntag_116:\n    /* \"#utility.yul\":7024:7032   */\n  dup2\n    /* \"#utility.yul\":7020:7064   */\n  add\n    /* \"#utility.yul\":7217:7219   */\n  0x20\n    /* \"#utility.yul\":7205:7215   */\n  dup6\n    /* \"#utility.yul\":7202:7220   */\n  lt\n    /* \"#utility.yul\":7199:7248   */\n  iszero\n  tag_117\n  jumpi\n    /* \"#utility.yul\":7238:7246   */\n  dup2\n    /* \"#utility.yul\":7223:7246   */\n  swap1\n  pop\n    /* \"#utility.yul\":7199:7248   */\ntag_117:\n    /* \"#utility.yul\":7261:7341   */\n  tag_118\n    /* \"#utility.yul\":7317:7339   */\n  tag_119\n    /* \"#utility.yul\":7335:7338   */\n  dup6\n    /* \"#utility.yul\":7317:7339   */\n  tag_16\n  jump\t// in\ntag_119:\n    /* \"#utility.yul\":7307:7315   */\n  dup4\n    /* \"#utility.yul\":7303:7340   */\n  add\n    /* \"#utility.yul\":7290:7301   */\n  dup3\n    /* \"#utility.yul\":7261:7341   */\n  tag_26\n  jump\t// in\ntag_118:\n    /* \"#utility.yul\":6921:7351   */\n  pop\n  pop\n    /* \"#utility.yul\":6906:7351   */\ntag_114:\n    /* \"#utility.yul\":6817:7358   */\n  pop\n  pop\n  pop\n  jump\t// out\n    /* \"#utility.yul\":7364:8754   */\ntag_8:\n    /* \"#utility.yul\":7479:7515   */\n  tag_121\n    /* \"#utility.yul\":7511:7514   */\n  dup3\n    /* \"#utility.yul\":7479:7515   */\n  tag_33\n  jump\t// in\ntag_121:\n    /* \"#utility.yul\":7580:7598   */\n  0xffffffffffffffff\n    /* \"#utility.yul\":7572:7578   */\n  dup2\n    /* \"#utility.yul\":7569:7599   */\n  gt\n    /* \"#utility.yul\":7566:7622   */\n  iszero\n  tag_122\n  jumpi\n    /* \"#utility.yul\":7602:7620   */\n  tag_123\n  tag_12\n  jump\t// in\ntag_123:\n    /* \"#utility.yul\":7566:7622   */\ntag_122:\n    /* \"#utility.yul\":7646:7684   */\n  tag_124\n    /* \"#utility.yul\":7678:7682   */\n  dup3\n    /* \"#utility.yul\":7672:7683   */\n  sload\n    /* \"#utility.yul\":7646:7684   */\n  tag_14\n  jump\t// in\ntag_124:\n    /* \"#utility.yul\":7731:7797   */\n  tag_125\n    /* \"#utility.yul\":7790:7796   */\n  dup3\n    /* \"#utility.yul\":7782:7788   */\n  dup3\n    /* \"#utility.yul\":7776:7780   */\n  dup6\n    /* \"#utility.yul\":7731:7797   */\n  tag_35\n  jump\t// in\ntag_125:\n    /* \"#utility.yul\":7824:7825   */\n  0x00\n    /* \"#utility.yul\":7848:7852   */\n  0x20\n    /* \"#utility.yul\":7835:7852   */\n  swap1\n  pop\n    /* \"#utility.yul\":7880:7882   */\n  0x1f\n    /* \"#utility.yul\":7872:7878   */\n  dup4\n    /* \"#utility.yul\":7869:7883   */\n  gt\n    /* \"#utility.yul\":7897:7898   */\n  0x01\n    /* \"#utility.yul\":7892:8509   */\n  dup2\n  eq\n  tag_127\n  jumpi\n    /* \"#utility.yul\":8553:8554   */\n  0x00\n    /* \"#utility.yul\":8570:8576   */\n  dup5\n    /* \"#utility.yul\":8567:8644   */\n  iszero\n  tag_128\n  jumpi\n    /* \"#utility.yul\":8619:8628   */\n  dup3\n    /* \"#utility.yul\":8614:8617   */\n  dup8\n    /* \"#utility.yul\":8610:8629   */\n  add\n    /* \"#utility.yul\":8604:8630   */\n  mload\n    /* \"#utility.yul\":8595:8630   */\n  swap1\n  pop\n    /* \"#utility.yul\":8567:8644   */\ntag_128:\n    /* \"#utility.yul\":8670:8737   */\n  tag_129\n    /* \"#utility.yul\":8730:8736   */\n  dup6\n    /* \"#utility.yul\":8723:8728   */\n  dup3\n    /* \"#utility.yul\":8670:8737   */\n  tag_30\n  jump\t// in\ntag_129:\n    /* \"#utility.yul\":8664:8668   */\n  dup7\n    /* \"#utility.yul\":8657:8738   */\n  sstore\n    /* \"#utility.yul\":8526:8748   */\n  pop\n    /* \"#utility.yul\":7862:8748   */\n  jump(tag_126)\n    /* \"#utility.yul\":7892:8509   */\ntag_127:\n    /* \"#utility.yul\":7944:7948   */\n  0x1f\n    /* \"#utility.yul\":7940:7949   */\n  not\n    /* \"#utility.yul\":7932:7938   */\n  dup5\n    /* \"#utility.yul\":7928:7950   */\n  and\n    /* \"#utility.yul\":7978:8014   */\n  tag_130\n    /* \"#utility.yul\":8009:8013   */\n  dup7\n    /* \"#utility.yul\":7978:8014   */\n  tag_34\n  jump\t// in\ntag_130:\n    /* \"#utility.yul\":8036:8037   */\n  0x00\n    /* \"#utility.yul\":8050:8258   */\ntag_131:\n    /* \"#utility.yul\":8064:8071   */\n  dup3\n    /* \"#utility.yul\":8061:8062   */\n  dup2\n    /* \"#utility.yul\":8058:8072   */\n  lt\n    /* \"#utility.yul\":8050:8258   */\n  iszero\n  tag_133\n  jumpi\n    /* \"#utility.yul\":8143:8152   */\n  dup5\n    /* \"#utility.yul\":8138:8141   */\n  dup10\n    /* \"#utility.yul\":8134:8153   */\n  add\n    /* \"#utility.yul\":8128:8154   */\n  mload\n    /* \"#utility.yul\":8120:8126   */\n  dup3\n    /* \"#utility.yul\":8113:8155   */\n  sstore\n    /* \"#utility.yul\":8194:8195   */\n  0x01\n    /* \"#utility.yul\":8186:8192   */\n  dup3\n    /* \"#utility.yul\":8182:8196   */\n  add\n    /* \"#utility.yul\":8172:8196   */\n  swap2\n  pop\n    /* \"#utility.yul\":8241:8243   */\n  0x20\n    /* \"#utility.yul\":8230:8239   */\n  dup6\n    /* \"#utility.yul\":8226:8244   */\n  add\n    /* \"#utility.yul\":8213:8244   */\n  swap5\n  pop\n    /* \"#utility.yul\":8087:8091   */\n  0x20\n    /* \"#utility.yul\":8084:8085   */\n  dup2\n    /* \"#utility.yul\":8080:8092   */\n  add\n    /* \"#utility.yul\":8075:8092   */\n  swap1\n  pop\n    /* \"#utility.yul\":8050:8258   */\n  jump(tag_131)\ntag_133:\n    /* \"#utility.yul\":8286:8292   */\n  dup7\n    /* \"#utility.yul\":8277:8284   */\n  dup4\n    /* \"#utility.yul\":8274:8293   */\n  lt\n    /* \"#utility.yul\":8271:8450   */\n  iszero\n  tag_134\n  jumpi\n    /* \"#utility.yul\":8344:8353   */\n  dup5\n    /* \"#utility.yul\":8339:8342   */\n  dup10\n    /* \"#utility.yul\":8335:8354   */\n  add\n    /* \"#utility.yul\":8329:8355   */\n  mload\n    /* \"#utility.yul\":8387:8435   */\n  tag_135\n    /* \"#utility.yul\":8429:8433   */\n  0x1f\n    /* \"#utility.yul\":8421:8427   */\n  dup10\n    /* \"#utility.yul\":8417:8434   */\n  and\n    /* \"#utility.yul\":8406:8415   */\n  dup3\n    /* \"#utility.yul\":8387:8435   */\n  tag_29\n  jump\t// in\ntag_135:\n    /* \"#utility.yul\":8379:8385   */\n  dup4\n    /* \"#utility.yul\":8372:8436   */\n  sstore\n    /* \"#utility.yul\":8294:8450   */\n  pop\n    /* \"#utility.yul\":8271:8450   */\ntag_134:\n    /* \"#utility.yul\":8496:8497   */\n  0x01\n    /* \"#utility.yul\":8492:8493   */\n  0x02\n    /* \"#utility.yul\":8484:8490   */\n  dup9\n    /* \"#utility.yul\":8480:8494   */\n  mul\n    /* \"#utility.yul\":8476:8498   */\n  add\n    /* \"#utility.yul\":8470:8474   */\n  dup9\n    /* \"#utility.yul\":8463:8499   */\n  sstore\n    /* \"#utility.yul\":7899:8509   */\n  pop\n  pop\n  pop\n    /* \"#utility.yul\":7862:8748   */\ntag_126:\n  pop\n    /* \"#utility.yul\":7454:8754   */\n  pop\n  pop\n  pop\n    /* \"#utility.yul\":7364:8754   */\n  pop\n  pop\n  jump\t// out\n    /* \"study/chapter07/stirngOpt.sol\":56:437  contract Hello {... */\ntag_10:\n  dataSize(sub_0)\n  dup1\n  dataOffset(sub_0)\n  0x00\n  codecopy\n  0x00\n  return\nstop\n\nsub_0: assembly {\n        /* \"study/chapter07/stirngOpt.sol\":56:437  contract Hello {... */\n      mstore(0x40, 0x80)\n      callvalue\n      dup1\n      iszero\n      tag_1\n      jumpi\n      0x00\n      dup1\n      revert\n    tag_1:\n      pop\n      jumpi(tag_2, lt(calldatasize, 0x04))\n      shr(0xe0, calldataload(0x00))\n      dup1\n      0xa314150f\n      gt\n      tag_10\n      jumpi\n      dup1\n      0xa314150f\n      eq\n      tag_6\n      jumpi\n      dup1\n      0xacbe8452\n      eq\n      tag_7\n      jumpi\n      dup1\n      0xcfae3217\n      eq\n      tag_8\n      jumpi\n      dup1\n      0xee495002\n      eq\n      tag_9\n      jumpi\n      jump(tag_2)\n    tag_10:\n      dup1\n      0x09fca94f\n      eq\n      tag_3\n      jumpi\n      dup1\n      0x1e228514\n      eq\n      tag_4\n      jumpi\n      dup1\n      0x6cc014de\n      eq\n      tag_5\n      jumpi\n    tag_2:\n      0x00\n      dup1\n      revert\n        /* \"study/chapter07/stirngOpt.sol\":114:249  function str(string calldata a) public view  returns (string memory){... */\n    tag_3:\n      tag_11\n      0x04\n      dup1\n      calldatasize\n      sub\n      dup2\n      add\n      swap1\n      tag_12\n      swap2\n      swap1\n      tag_13\n      jump\t// in\n    tag_12:\n      tag_14\n      jump\t// in\n    tag_11:\n      mload(0x40)\n      tag_15\n      swap2\n      swap1\n      tag_16\n      jump\t// in\n    tag_15:\n      mload(0x40)\n      dup1\n      swap2\n      sub\n      swap1\n      return\n        /* \"study/chapter07/stirngOpt.sol\":356:373  bool public equal */\n    tag_4:\n      tag_17\n      tag_18\n      jump\t// in\n    tag_17:\n      mload(0x40)\n      tag_19\n      swap2\n      swap1\n      tag_20\n      jump\t// in\n    tag_19:\n      mload(0x40)\n      dup1\n      swap2\n      sub\n      swap1\n      return\n        /* \"study/chapter07/stirngOpt.sol\":254:276  string public s1 = \"A\" */\n    tag_5:\n      tag_21\n      tag_22\n      jump\t// in\n    tag_21:\n      mload(0x40)\n      tag_23\n      swap2\n      swap1\n      tag_16\n      jump\t// in\n    tag_23:\n      mload(0x40)\n      dup1\n      swap2\n      sub\n      swap1\n      return\n        /* \"study/chapter07/stirngOpt.sol\":282:304  string public s2 = \"B\" */\n    tag_6:\n      tag_24\n      tag_25\n      jump\t// in\n    tag_24:\n      mload(0x40)\n      tag_26\n      swap2\n      swap1\n      tag_16\n      jump\t// in\n    tag_26:\n      mload(0x40)\n      dup1\n      swap2\n      sub\n      swap1\n      return\n        /* \"study/chapter07/stirngOpt.sol\":379:435  function isEqual()external returns(bool){... */\n    tag_7:\n      tag_27\n      tag_28\n      jump\t// in\n    tag_27:\n      mload(0x40)\n      tag_29\n      swap2\n      swap1\n      tag_20\n      jump\t// in\n    tag_29:\n      mload(0x40)\n      dup1\n      swap2\n      sub\n      swap1\n      return\n        /* \"study/chapter07/stirngOpt.sol\":77:108  string public greet = \"Hello, \" */\n    tag_8:\n      tag_30\n      tag_31\n      jump\t// in\n    tag_30:\n      mload(0x40)\n      tag_32\n      swap2\n      swap1\n      tag_16\n      jump\t// in\n    tag_32:\n      mload(0x40)\n      dup1\n      swap2\n      sub\n      swap1\n      return\n        /* \"study/chapter07/stirngOpt.sol\":311:349  bytes public b1 = abi.encodePacked(s1) */\n    tag_9:\n      tag_33\n      tag_34\n      jump\t// in\n    tag_33:\n      mload(0x40)\n      tag_35\n      swap2\n      swap1\n      tag_36\n      jump\t// in\n    tag_35:\n      mload(0x40)\n      dup1\n      swap2\n      sub\n      swap1\n      return\n        /* \"study/chapter07/stirngOpt.sol\":114:249  function str(string calldata a) public view  returns (string memory){... */\n    tag_14:\n        /* \"study/chapter07/stirngOpt.sol\":168:181  string memory */\n      0x60\n        /* \"study/chapter07/stirngOpt.sol\":225:230  greet */\n      0x00\n        /* \"study/chapter07/stirngOpt.sol\":238:239  a */\n      dup4\n      dup4\n        /* \"study/chapter07/stirngOpt.sol\":206:241  bytes.concat(bytes(greet),bytes(a)) */\n      add(0x20, mload(0x40))\n      tag_38\n      swap4\n      swap3\n      swap2\n      swap1\n      tag_39\n      jump\t// in\n    tag_38:\n      mload(0x40)\n      0x20\n      dup2\n      dup4\n      sub\n      sub\n      dup2\n      mstore\n      swap1\n      0x40\n      mstore\n        /* \"study/chapter07/stirngOpt.sol\":192:242  return string(bytes.concat(bytes(greet),bytes(a))) */\n      swap1\n      pop\n        /* \"study/chapter07/stirngOpt.sol\":114:249  function str(string calldata a) public view  returns (string memory){... */\n      swap3\n      swap2\n      pop\n      pop\n      jump\t// out\n        /* \"study/chapter07/stirngOpt.sol\":356:373  bool public equal */\n    tag_18:\n      0x04\n      0x00\n      swap1\n      sload\n      swap1\n      0x0100\n      exp\n      swap1\n      div\n      0xff\n      and\n      dup2\n      jump\t// out\n        /* \"study/chapter07/stirngOpt.sol\":254:276  string public s1 = \"A\" */\n    tag_22:\n      0x01\n      dup1\n      sload\n      tag_40\n      swap1\n      tag_41\n      jump\t// in\n    tag_40:\n      dup1\n      0x1f\n      add\n      0x20\n      dup1\n      swap2\n      div\n      mul\n      0x20\n      add\n      mload(0x40)\n      swap1\n      dup2\n      add\n      0x40\n      mstore\n      dup1\n      swap3\n      swap2\n      swap1\n      dup2\n      dup2\n      mstore\n      0x20\n      add\n      dup3\n      dup1\n      sload\n      tag_42\n      swap1\n      tag_41\n      jump\t// in\n    tag_42:\n      dup1\n      iszero\n      tag_43\n      jumpi\n      dup1\n      0x1f\n      lt\n      tag_44\n      jumpi\n      0x0100\n      dup1\n      dup4\n      sload\n      div\n      mul\n      dup4\n      mstore\n      swap2\n      0x20\n      add\n      swap2\n      jump(tag_43)\n    tag_44:\n      dup3\n      add\n      swap2\n      swap1\n      0x00\n      mstore\n      keccak256(0x00, 0x20)\n      swap1\n    tag_45:\n      dup2\n      sload\n      dup2\n      mstore\n      swap1\n      0x01\n      add\n      swap1\n      0x20\n      add\n      dup1\n      dup4\n      gt\n      tag_45\n      jumpi\n      dup3\n      swap1\n      sub\n      0x1f\n      and\n      dup3\n      add\n      swap2\n    tag_43:\n      pop\n      pop\n      pop\n      pop\n      pop\n      dup2\n      jump\t// out\n        /* \"study/chapter07/stirngOpt.sol\":282:304  string public s2 = \"B\" */\n    tag_25:\n      0x02\n      dup1\n      sload\n      tag_46\n      swap1\n      tag_41\n      jump\t// in\n    tag_46:\n      dup1\n      0x1f\n      add\n      0x20\n      dup1\n      swap2\n      div\n      mul\n      0x20\n      add\n      mload(0x40)\n      swap1\n      dup2\n      add\n      0x40\n      mstore\n      dup1\n      swap3\n      swap2\n      swap1\n      dup2\n      dup2\n      mstore\n      0x20\n      add\n      dup3\n      dup1\n      sload\n      tag_47\n      swap1\n      tag_41\n      jump\t// in\n    tag_47:\n      dup1\n      iszero\n      tag_48\n      jumpi\n      dup1\n      0x1f\n      lt\n      tag_49\n      jumpi\n      0x0100\n      dup1\n      dup4\n      sload\n      div\n      mul\n      dup4\n      mstore\n      swap2\n      0x20\n      add\n      swap2\n      jump(tag_48)\n    tag_49:\n      dup3\n      add\n      swap2\n      swap1\n      0x00\n      mstore\n      keccak256(0x00, 0x20)\n      swap1\n    tag_50:\n      dup2\n      sload\n      dup2\n      mstore\n      swap1\n      0x01\n      add\n      swap1\n      0x20\n      add\n      dup1\n      dup4\n      gt\n      tag_50\n      jumpi\n      dup3\n      swap1\n      sub\n      0x1f\n      and\n      dup3\n      add\n      swap2\n    tag_48:\n      pop\n      pop\n      pop\n      pop\n      pop\n      dup2\n      jump\t// out\n        /* \"study/chapter07/stirngOpt.sol\":379:435  function isEqual()external returns(bool){... */\n    tag_28:\n        /* \"study/chapter07/stirngOpt.sol\":414:418  bool */\n      0x00\n        /* \"study/chapter07/stirngOpt.sol\":379:435  function isEqual()external returns(bool){... */\n      swap1\n      jump\t// out\n        /* \"study/chapter07/stirngOpt.sol\":77:108  string public greet = \"Hello, \" */\n    tag_31:\n      0x00\n      dup1\n      sload\n      tag_52\n      swap1\n      tag_41\n      jump\t// in\n    tag_52:\n      dup1\n      0x1f\n      add\n      0x20\n      dup1\n      swap2\n      div\n      mul\n      0x20\n      add\n      mload(0x40)\n      swap1\n      dup2\n      add\n      0x40\n      mstore\n      dup1\n      swap3\n      swap2\n      swap1\n      dup2\n      dup2\n      mstore\n      0x20\n      add\n      dup3\n      dup1\n      sload\n      tag_53\n      swap1\n      tag_41\n      jump\t// in\n    tag_53:\n      dup1\n      iszero\n      tag_54\n      jumpi\n      dup1\n      0x1f\n      lt\n      tag_55\n      jumpi\n      0x0100\n      dup1\n      dup4\n      sload\n      div\n      mul\n      dup4\n      mstore\n      swap2\n      0x20\n      add\n      swap2\n      jump(tag_54)\n    tag_55:\n      dup3\n      add\n      swap2\n      swap1\n      0x00\n      mstore\n      keccak256(0x00, 0x20)\n      swap1\n    tag_56:\n      dup2\n      sload\n      dup2\n      mstore\n      swap1\n      0x01\n      add\n      swap1\n      0x20\n      add\n      dup1\n      dup4\n      gt\n      tag_56\n      jumpi\n      dup3\n      swap1\n      sub\n      0x1f\n      and\n      dup3\n      add\n      swap2\n    tag_54:\n      pop\n      pop\n      pop\n      pop\n      pop\n      dup2\n      jump\t// out\n        /* \"study/chapter07/stirngOpt.sol\":311:349  bytes public b1 = abi.encodePacked(s1) */\n    tag_34:\n      0x03\n      dup1\n      sload\n      tag_57\n      swap1\n      tag_41\n      jump\t// in\n    tag_57:\n      dup1\n      0x1f\n      add\n      0x20\n      dup1\n      swap2\n      div\n      mul\n      0x20\n      add\n      mload(0x40)\n      swap1\n      dup2\n      add\n      0x40\n      mstore\n      dup1\n      swap3\n      swap2\n      swap1\n      dup2\n      dup2\n      mstore\n      0x20\n      add\n      dup3\n      dup1\n      sload\n      tag_58\n      swap1\n      tag_41\n      jump\t// in\n    tag_58:\n      dup1\n      iszero\n      tag_59\n      jumpi\n      dup1\n      0x1f\n      lt\n      tag_60\n      jumpi\n      0x0100\n      dup1\n      dup4\n      sload\n      div\n      mul\n      dup4\n      mstore\n      swap2\n      0x20\n      add\n      swap2\n      jump(tag_59)\n    tag_60:\n      dup3\n      add\n      swap2\n      swap1\n      0x00\n      mstore\n      keccak256(0x00, 0x20)\n      swap1\n    tag_61:\n      dup2\n      sload\n      dup2\n      mstore\n      swap1\n      0x01\n      add\n      swap1\n      0x20\n      add\n      dup1\n      dup4\n      gt\n      tag_61\n      jumpi\n      dup3\n      swap1\n      sub\n      0x1f\n      and\n      dup3\n      add\n      swap2\n    tag_59:\n      pop\n      pop\n      pop\n      pop\n      pop\n      dup2\n      jump\t// out\n        /* \"#utility.yul\":88:205   */\n    tag_63:\n        /* \"#utility.yul\":197:198   */\n      0x00\n        /* \"#utility.yul\":194:195   */\n      dup1\n        /* \"#utility.yul\":187:199   */\n      revert\n        /* \"#utility.yul\":211:328   */\n    tag_64:\n        /* \"#utility.yul\":320:321   */\n      0x00\n        /* \"#utility.yul\":317:318   */\n      dup1\n        /* \"#utility.yul\":310:322   */\n      revert\n        /* \"#utility.yul\":334:451   */\n    tag_65:\n        /* \"#utility.yul\":443:444   */\n      0x00\n        /* \"#utility.yul\":440:441   */\n      dup1\n        /* \"#utility.yul\":433:445   */\n      revert\n        /* \"#utility.yul\":457:574   */\n    tag_66:\n        /* \"#utility.yul\":566:567   */\n      0x00\n        /* \"#utility.yul\":563:564   */\n      dup1\n        /* \"#utility.yul\":556:568   */\n      revert\n        /* \"#utility.yul\":580:697   */\n    tag_67:\n        /* \"#utility.yul\":689:690   */\n      0x00\n        /* \"#utility.yul\":686:687   */\n      dup1\n        /* \"#utility.yul\":679:691   */\n      revert\n        /* \"#utility.yul\":717:1270   */\n    tag_68:\n        /* \"#utility.yul\":775:783   */\n      0x00\n        /* \"#utility.yul\":785:791   */\n      dup1\n        /* \"#utility.yul\":835:838   */\n      dup4\n        /* \"#utility.yul\":828:832   */\n      0x1f\n        /* \"#utility.yul\":820:826   */\n      dup5\n        /* \"#utility.yul\":816:833   */\n      add\n        /* \"#utility.yul\":812:839   */\n      slt\n        /* \"#utility.yul\":802:924   */\n      tag_93\n      jumpi\n        /* \"#utility.yul\":843:922   */\n      tag_94\n      tag_65\n      jump\t// in\n    tag_94:\n        /* \"#utility.yul\":802:924   */\n    tag_93:\n        /* \"#utility.yul\":956:962   */\n      dup3\n        /* \"#utility.yul\":943:963   */\n      calldataload\n        /* \"#utility.yul\":933:963   */\n      swap1\n      pop\n        /* \"#utility.yul\":986:1004   */\n      0xffffffffffffffff\n        /* \"#utility.yul\":978:984   */\n      dup2\n        /* \"#utility.yul\":975:1005   */\n      gt\n        /* \"#utility.yul\":972:1089   */\n      iszero\n      tag_95\n      jumpi\n        /* \"#utility.yul\":1008:1087   */\n      tag_96\n      tag_66\n      jump\t// in\n    tag_96:\n        /* \"#utility.yul\":972:1089   */\n    tag_95:\n        /* \"#utility.yul\":1122:1126   */\n      0x20\n        /* \"#utility.yul\":1114:1120   */\n      dup4\n        /* \"#utility.yul\":1110:1127   */\n      add\n        /* \"#utility.yul\":1098:1127   */\n      swap2\n      pop\n        /* \"#utility.yul\":1176:1179   */\n      dup4\n        /* \"#utility.yul\":1168:1172   */\n      0x01\n        /* \"#utility.yul\":1160:1166   */\n      dup3\n        /* \"#utility.yul\":1156:1173   */\n      mul\n        /* \"#utility.yul\":1146:1154   */\n      dup4\n        /* \"#utility.yul\":1142:1174   */\n      add\n        /* \"#utility.yul\":1139:1180   */\n      gt\n        /* \"#utility.yul\":1136:1264   */\n      iszero\n      tag_97\n      jumpi\n        /* \"#utility.yul\":1183:1262   */\n      tag_98\n      tag_67\n      jump\t// in\n    tag_98:\n        /* \"#utility.yul\":1136:1264   */\n    tag_97:\n        /* \"#utility.yul\":717:1270   */\n      swap3\n      pop\n      swap3\n      swap1\n      pop\n      jump\t// out\n        /* \"#utility.yul\":1276:1805   */\n    tag_13:\n        /* \"#utility.yul\":1347:1353   */\n      0x00\n        /* \"#utility.yul\":1355:1361   */\n      dup1\n        /* \"#utility.yul\":1404:1406   */\n      0x20\n        /* \"#utility.yul\":1392:1401   */\n      dup4\n        /* \"#utility.yul\":1383:1390   */\n      dup6\n        /* \"#utility.yul\":1379:1402   */\n      sub\n        /* \"#utility.yul\":1375:1407   */\n      slt\n        /* \"#utility.yul\":1372:1491   */\n      iszero\n      tag_100\n      jumpi\n        /* \"#utility.yul\":1410:1489   */\n      tag_101\n      tag_63\n      jump\t// in\n    tag_101:\n        /* \"#utility.yul\":1372:1491   */\n    tag_100:\n        /* \"#utility.yul\":1558:1559   */\n      0x00\n        /* \"#utility.yul\":1547:1556   */\n      dup4\n        /* \"#utility.yul\":1543:1560   */\n      add\n        /* \"#utility.yul\":1530:1561   */\n      calldataload\n        /* \"#utility.yul\":1588:1606   */\n      0xffffffffffffffff\n        /* \"#utility.yul\":1580:1586   */\n      dup2\n        /* \"#utility.yul\":1577:1607   */\n      gt\n        /* \"#utility.yul\":1574:1691   */\n      iszero\n      tag_102\n      jumpi\n        /* \"#utility.yul\":1610:1689   */\n      tag_103\n      tag_64\n      jump\t// in\n    tag_103:\n        /* \"#utility.yul\":1574:1691   */\n    tag_102:\n        /* \"#utility.yul\":1723:1788   */\n      tag_104\n        /* \"#utility.yul\":1780:1787   */\n      dup6\n        /* \"#utility.yul\":1771:1777   */\n      dup3\n        /* \"#utility.yul\":1760:1769   */\n      dup7\n        /* \"#utility.yul\":1756:1778   */\n      add\n        /* \"#utility.yul\":1723:1788   */\n      tag_68\n      jump\t// in\n    tag_104:\n        /* \"#utility.yul\":1705:1788   */\n      swap3\n      pop\n      swap3\n      pop\n        /* \"#utility.yul\":1501:1798   */\n      pop\n        /* \"#utility.yul\":1276:1805   */\n      swap3\n      pop\n      swap3\n      swap1\n      pop\n      jump\t// out\n        /* \"#utility.yul\":1811:1910   */\n    tag_69:\n        /* \"#utility.yul\":1863:1869   */\n      0x00\n        /* \"#utility.yul\":1897:1902   */\n      dup2\n        /* \"#utility.yul\":1891:1903   */\n      mload\n        /* \"#utility.yul\":1881:1903   */\n      swap1\n      pop\n        /* \"#utility.yul\":1811:1910   */\n      swap2\n      swap1\n      pop\n      jump\t// out\n        /* \"#utility.yul\":1916:2085   */\n    tag_70:\n        /* \"#utility.yul\":2000:2011   */\n      0x00\n        /* \"#utility.yul\":2034:2040   */\n      dup3\n        /* \"#utility.yul\":2029:2032   */\n      dup3\n        /* \"#utility.yul\":2022:2041   */\n      mstore\n        /* \"#utility.yul\":2074:2078   */\n      0x20\n        /* \"#utility.yul\":2069:2072   */\n      dup3\n        /* \"#utility.yul\":2065:2079   */\n      add\n        /* \"#utility.yul\":2050:2079   */\n      swap1\n      pop\n        /* \"#utility.yul\":1916:2085   */\n      swap3\n      swap2\n      pop\n      pop\n      jump\t// out\n        /* \"#utility.yul\":2091:2398   */\n    tag_71:\n        /* \"#utility.yul\":2159:2160   */\n      0x00\n        /* \"#utility.yul\":2169:2282   */\n    tag_108:\n        /* \"#utility.yul\":2183:2189   */\n      dup4\n        /* \"#utility.yul\":2180:2181   */\n      dup2\n        /* \"#utility.yul\":2177:2190   */\n      lt\n        /* \"#utility.yul\":2169:2282   */\n      iszero\n      tag_110\n      jumpi\n        /* \"#utility.yul\":2268:2269   */\n      dup1\n        /* \"#utility.yul\":2263:2266   */\n      dup3\n        /* \"#utility.yul\":2259:2270   */\n      add\n        /* \"#utility.yul\":2253:2271   */\n      mload\n        /* \"#utility.yul\":2249:2250   */\n      dup2\n        /* \"#utility.yul\":2244:2247   */\n      dup5\n        /* \"#utility.yul\":2240:2251   */\n      add\n        /* \"#utility.yul\":2233:2272   */\n      mstore\n        /* \"#utility.yul\":2205:2207   */\n      0x20\n        /* \"#utility.yul\":2202:2203   */\n      dup2\n        /* \"#utility.yul\":2198:2208   */\n      add\n        /* \"#utility.yul\":2193:2208   */\n      swap1\n      pop\n        /* \"#utility.yul\":2169:2282   */\n      jump(tag_108)\n    tag_110:\n        /* \"#utility.yul\":2300:2306   */\n      dup4\n        /* \"#utility.yul\":2297:2298   */\n      dup2\n        /* \"#utility.yul\":2294:2307   */\n      gt\n        /* \"#utility.yul\":2291:2392   */\n      iszero\n      tag_111\n      jumpi\n        /* \"#utility.yul\":2380:2381   */\n      0x00\n        /* \"#utility.yul\":2371:2377   */\n      dup5\n        /* \"#utility.yul\":2366:2369   */\n      dup5\n        /* \"#utility.yul\":2362:2378   */\n      add\n        /* \"#utility.yul\":2355:2382   */\n      mstore\n        /* \"#utility.yul\":2291:2392   */\n    tag_111:\n        /* \"#utility.yul\":2140:2398   */\n      pop\n        /* \"#utility.yul\":2091:2398   */\n      pop\n      pop\n      pop\n      jump\t// out\n        /* \"#utility.yul\":2404:2506   */\n    tag_72:\n        /* \"#utility.yul\":2445:2451   */\n      0x00\n        /* \"#utility.yul\":2496:2498   */\n      0x1f\n        /* \"#utility.yul\":2492:2499   */\n      not\n        /* \"#utility.yul\":2487:2489   */\n      0x1f\n        /* \"#utility.yul\":2480:2485   */\n      dup4\n        /* \"#utility.yul\":2476:2490   */\n      add\n        /* \"#utility.yul\":2472:2500   */\n      and\n        /* \"#utility.yul\":2462:2500   */\n      swap1\n      pop\n        /* \"#utility.yul\":2404:2506   */\n      swap2\n      swap1\n      pop\n      jump\t// out\n        /* \"#utility.yul\":2512:2876   */\n    tag_73:\n        /* \"#utility.yul\":2600:2603   */\n      0x00\n        /* \"#utility.yul\":2628:2667   */\n      tag_114\n        /* \"#utility.yul\":2661:2666   */\n      dup3\n        /* \"#utility.yul\":2628:2667   */\n      tag_69\n      jump\t// in\n    tag_114:\n        /* \"#utility.yul\":2683:2754   */\n      tag_115\n        /* \"#utility.yul\":2747:2753   */\n      dup2\n        /* \"#utility.yul\":2742:2745   */\n      dup6\n        /* \"#utility.yul\":2683:2754   */\n      tag_70\n      jump\t// in\n    tag_115:\n        /* \"#utility.yul\":2676:2754   */\n      swap4\n      pop\n        /* \"#utility.yul\":2763:2815   */\n      tag_116\n        /* \"#utility.yul\":2808:2814   */\n      dup2\n        /* \"#utility.yul\":2803:2806   */\n      dup6\n        /* \"#utility.yul\":2796:2800   */\n      0x20\n        /* \"#utility.yul\":2789:2794   */\n      dup7\n        /* \"#utility.yul\":2785:2801   */\n      add\n        /* \"#utility.yul\":2763:2815   */\n      tag_71\n      jump\t// in\n    tag_116:\n        /* \"#utility.yul\":2840:2869   */\n      tag_117\n        /* \"#utility.yul\":2862:2868   */\n      dup2\n        /* \"#utility.yul\":2840:2869   */\n      tag_72\n      jump\t// in\n    tag_117:\n        /* \"#utility.yul\":2835:2838   */\n      dup5\n        /* \"#utility.yul\":2831:2870   */\n      add\n        /* \"#utility.yul\":2824:2870   */\n      swap2\n      pop\n        /* \"#utility.yul\":2604:2876   */\n      pop\n        /* \"#utility.yul\":2512:2876   */\n      swap3\n      swap2\n      pop\n      pop\n      jump\t// out\n        /* \"#utility.yul\":2882:3195   */\n    tag_16:\n        /* \"#utility.yul\":2995:2999   */\n      0x00\n        /* \"#utility.yul\":3033:3035   */\n      0x20\n        /* \"#utility.yul\":3022:3031   */\n      dup3\n        /* \"#utility.yul\":3018:3036   */\n      add\n        /* \"#utility.yul\":3010:3036   */\n      swap1\n      pop\n        /* \"#utility.yul\":3082:3091   */\n      dup2\n        /* \"#utility.yul\":3076:3080   */\n      dup2\n        /* \"#utility.yul\":3072:3092   */\n      sub\n        /* \"#utility.yul\":3068:3069   */\n      0x00\n        /* \"#utility.yul\":3057:3066   */\n      dup4\n        /* \"#utility.yul\":3053:3070   */\n      add\n        /* \"#utility.yul\":3046:3093   */\n      mstore\n        /* \"#utility.yul\":3110:3188   */\n      tag_119\n        /* \"#utility.yul\":3183:3187   */\n      dup2\n        /* \"#utility.yul\":3174:3180   */\n      dup5\n        /* \"#utility.yul\":3110:3188   */\n      tag_73\n      jump\t// in\n    tag_119:\n        /* \"#utility.yul\":3102:3188   */\n      swap1\n      pop\n        /* \"#utility.yul\":2882:3195   */\n      swap3\n      swap2\n      pop\n      pop\n      jump\t// out\n        /* \"#utility.yul\":3201:3291   */\n    tag_74:\n        /* \"#utility.yul\":3235:3242   */\n      0x00\n        /* \"#utility.yul\":3278:3283   */\n      dup2\n        /* \"#utility.yul\":3271:3284   */\n      iszero\n        /* \"#utility.yul\":3264:3285   */\n      iszero\n        /* \"#utility.yul\":3253:3285   */\n      swap1\n      pop\n        /* \"#utility.yul\":3201:3291   */\n      swap2\n      swap1\n      pop\n      jump\t// out\n        /* \"#utility.yul\":3297:3406   */\n    tag_75:\n        /* \"#utility.yul\":3378:3399   */\n      tag_122\n        /* \"#utility.yul\":3393:3398   */\n      dup2\n        /* \"#utility.yul\":3378:3399   */\n      tag_74\n      jump\t// in\n    tag_122:\n        /* \"#utility.yul\":3373:3376   */\n      dup3\n        /* \"#utility.yul\":3366:3400   */\n      mstore\n        /* \"#utility.yul\":3297:3406   */\n      pop\n      pop\n      jump\t// out\n        /* \"#utility.yul\":3412:3622   */\n    tag_20:\n        /* \"#utility.yul\":3499:3503   */\n      0x00\n        /* \"#utility.yul\":3537:3539   */\n      0x20\n        /* \"#utility.yul\":3526:3535   */\n      dup3\n        /* \"#utility.yul\":3522:3540   */\n      add\n        /* \"#utility.yul\":3514:3540   */\n      swap1\n      pop\n        /* \"#utility.yul\":3550:3615   */\n      tag_124\n        /* \"#utility.yul\":3612:3613   */\n      0x00\n        /* \"#utility.yul\":3601:3610   */\n      dup4\n        /* \"#utility.yul\":3597:3614   */\n      add\n        /* \"#utility.yul\":3588:3594   */\n      dup5\n        /* \"#utility.yul\":3550:3615   */\n      tag_75\n      jump\t// in\n    tag_124:\n        /* \"#utility.yul\":3412:3622   */\n      swap3\n      swap2\n      pop\n      pop\n      jump\t// out\n        /* \"#utility.yul\":3628:3726   */\n    tag_76:\n        /* \"#utility.yul\":3679:3685   */\n      0x00\n        /* \"#utility.yul\":3713:3718   */\n      dup2\n        /* \"#utility.yul\":3707:3719   */\n      mload\n        /* \"#utility.yul\":3697:3719   */\n      swap1\n      pop\n        /* \"#utility.yul\":3628:3726   */\n      swap2\n      swap1\n      pop\n      jump\t// out\n        /* \"#utility.yul\":3732:3900   */\n    tag_77:\n        /* \"#utility.yul\":3815:3826   */\n      0x00\n        /* \"#utility.yul\":3849:3855   */\n      dup3\n        /* \"#utility.yul\":3844:3847   */\n      dup3\n        /* \"#utility.yul\":3837:3856   */\n      mstore\n        /* \"#utility.yul\":3889:3893   */\n      0x20\n        /* \"#utility.yul\":3884:3887   */\n      dup3\n        /* \"#utility.yul\":3880:3894   */\n      add\n        /* \"#utility.yul\":3865:3894   */\n      swap1\n      pop\n        /* \"#utility.yul\":3732:3900   */\n      swap3\n      swap2\n      pop\n      pop\n      jump\t// out\n        /* \"#utility.yul\":3906:4266   */\n    tag_78:\n        /* \"#utility.yul\":3992:3995   */\n      0x00\n        /* \"#utility.yul\":4020:4058   */\n      tag_128\n        /* \"#utility.yul\":4052:4057   */\n      dup3\n        /* \"#utility.yul\":4020:4058   */\n      tag_76\n      jump\t// in\n    tag_128:\n        /* \"#utility.yul\":4074:4144   */\n      tag_129\n        /* \"#utility.yul\":4137:4143   */\n      dup2\n        /* \"#utility.yul\":4132:4135   */\n      dup6\n        /* \"#utility.yul\":4074:4144   */\n      tag_77\n      jump\t// in\n    tag_129:\n        /* \"#utility.yul\":4067:4144   */\n      swap4\n      pop\n        /* \"#utility.yul\":4153:4205   */\n      tag_130\n        /* \"#utility.yul\":4198:4204   */\n      dup2\n        /* \"#utility.yul\":4193:4196   */\n      dup6\n        /* \"#utility.yul\":4186:4190   */\n      0x20\n        /* \"#utility.yul\":4179:4184   */\n      dup7\n        /* \"#utility.yul\":4175:4191   */\n      add\n        /* \"#utility.yul\":4153:4205   */\n      tag_71\n      jump\t// in\n    tag_130:\n        /* \"#utility.yul\":4230:4259   */\n      tag_131\n        /* \"#utility.yul\":4252:4258   */\n      dup2\n        /* \"#utility.yul\":4230:4259   */\n      tag_72\n      jump\t// in\n    tag_131:\n        /* \"#utility.yul\":4225:4228   */\n      dup5\n        /* \"#utility.yul\":4221:4260   */\n      add\n        /* \"#utility.yul\":4214:4260   */\n      swap2\n      pop\n        /* \"#utility.yul\":3996:4266   */\n      pop\n        /* \"#utility.yul\":3906:4266   */\n      swap3\n      swap2\n      pop\n      pop\n      jump\t// out\n        /* \"#utility.yul\":4272:4581   */\n    tag_36:\n        /* \"#utility.yul\":4383:4387   */\n      0x00\n        /* \"#utility.yul\":4421:4423   */\n      0x20\n        /* \"#utility.yul\":4410:4419   */\n      dup3\n        /* \"#utility.yul\":4406:4424   */\n      add\n        /* \"#utility.yul\":4398:4424   */\n      swap1\n      pop\n        /* \"#utility.yul\":4470:4479   */\n      dup2\n        /* \"#utility.yul\":4464:4468   */\n      dup2\n        /* \"#utility.yul\":4460:4480   */\n      sub\n        /* \"#utility.yul\":4456:4457   */\n      0x00\n        /* \"#utility.yul\":4445:4454   */\n      dup4\n        /* \"#utility.yul\":4441:4458   */\n      add\n        /* \"#utility.yul\":4434:4481   */\n      mstore\n        /* \"#utility.yul\":4498:4574   */\n      tag_133\n        /* \"#utility.yul\":4569:4573   */\n      dup2\n        /* \"#utility.yul\":4560:4566   */\n      dup5\n        /* \"#utility.yul\":4498:4574   */\n      tag_78\n      jump\t// in\n    tag_133:\n        /* \"#utility.yul\":4490:4574   */\n      swap1\n      pop\n        /* \"#utility.yul\":4272:4581   */\n      swap3\n      swap2\n      pop\n      pop\n      jump\t// out\n        /* \"#utility.yul\":4587:4767   */\n    tag_79:\n        /* \"#utility.yul\":4635:4712   */\n      0x4e487b7100000000000000000000000000000000000000000000000000000000\n        /* \"#utility.yul\":4632:4633   */\n      0x00\n        /* \"#utility.yul\":4625:4713   */\n      mstore\n        /* \"#utility.yul\":4732:4736   */\n      0x22\n        /* \"#utility.yul\":4729:4730   */\n      0x04\n        /* \"#utility.yul\":4722:4737   */\n      mstore\n        /* \"#utility.yul\":4756:4760   */\n      0x24\n        /* \"#utility.yul\":4753:4754   */\n      0x00\n        /* \"#utility.yul\":4746:4761   */\n      revert\n        /* \"#utility.yul\":4773:5093   */\n    tag_41:\n        /* \"#utility.yul\":4817:4823   */\n      0x00\n        /* \"#utility.yul\":4854:4855   */\n      0x02\n        /* \"#utility.yul\":4848:4852   */\n      dup3\n        /* \"#utility.yul\":4844:4856   */\n      div\n        /* \"#utility.yul\":4834:4856   */\n      swap1\n      pop\n        /* \"#utility.yul\":4901:4902   */\n      0x01\n        /* \"#utility.yul\":4895:4899   */\n      dup3\n        /* \"#utility.yul\":4891:4903   */\n      and\n        /* \"#utility.yul\":4922:4940   */\n      dup1\n        /* \"#utility.yul\":4912:4993   */\n      tag_136\n      jumpi\n        /* \"#utility.yul\":4978:4982   */\n      0x7f\n        /* \"#utility.yul\":4970:4976   */\n      dup3\n        /* \"#utility.yul\":4966:4983   */\n      and\n        /* \"#utility.yul\":4956:4983   */\n      swap2\n      pop\n        /* \"#utility.yul\":4912:4993   */\n    tag_136:\n        /* \"#utility.yul\":5040:5042   */\n      0x20\n        /* \"#utility.yul\":5032:5038   */\n      dup3\n        /* \"#utility.yul\":5029:5043   */\n      lt\n        /* \"#utility.yul\":5009:5027   */\n      dup2\n        /* \"#utility.yul\":5006:5044   */\n      sub\n        /* \"#utility.yul\":5003:5087   */\n      tag_137\n      jumpi\n        /* \"#utility.yul\":5059:5077   */\n      tag_138\n      tag_79\n      jump\t// in\n    tag_138:\n        /* \"#utility.yul\":5003:5087   */\n    tag_137:\n        /* \"#utility.yul\":4824:5093   */\n      pop\n        /* \"#utility.yul\":4773:5093   */\n      swap2\n      swap1\n      pop\n      jump\t// out\n        /* \"#utility.yul\":5099:5246   */\n    tag_80:\n        /* \"#utility.yul\":5200:5211   */\n      0x00\n        /* \"#utility.yul\":5237:5240   */\n      dup2\n        /* \"#utility.yul\":5222:5240   */\n      swap1\n      pop\n        /* \"#utility.yul\":5099:5246   */\n      swap3\n      swap2\n      pop\n      pop\n      jump\t// out\n        /* \"#utility.yul\":5252:5396   */\n    tag_81:\n        /* \"#utility.yul\":5304:5308   */\n      0x00\n        /* \"#utility.yul\":5327:5330   */\n      dup2\n        /* \"#utility.yul\":5319:5330   */\n      swap1\n      pop\n        /* \"#utility.yul\":5350:5353   */\n      dup2\n        /* \"#utility.yul\":5347:5348   */\n      0x00\n        /* \"#utility.yul\":5340:5354   */\n      mstore\n        /* \"#utility.yul\":5384:5388   */\n      0x20\n        /* \"#utility.yul\":5381:5382   */\n      0x00\n        /* \"#utility.yul\":5371:5389   */\n      keccak256\n        /* \"#utility.yul\":5363:5389   */\n      swap1\n      pop\n        /* \"#utility.yul\":5252:5396   */\n      swap2\n      swap1\n      pop\n      jump\t// out\n        /* \"#utility.yul\":5424:6302   */\n    tag_82:\n        /* \"#utility.yul\":5529:5532   */\n      0x00\n        /* \"#utility.yul\":5566:5571   */\n      dup2\n        /* \"#utility.yul\":5560:5572   */\n      sload\n        /* \"#utility.yul\":5595:5631   */\n      tag_142\n        /* \"#utility.yul\":5621:5630   */\n      dup2\n        /* \"#utility.yul\":5595:5631   */\n      tag_41\n      jump\t// in\n    tag_142:\n        /* \"#utility.yul\":5647:5735   */\n      tag_143\n        /* \"#utility.yul\":5728:5734   */\n      dup2\n        /* \"#utility.yul\":5723:5726   */\n      dup7\n        /* \"#utility.yul\":5647:5735   */\n      tag_80\n      jump\t// in\n    tag_143:\n        /* \"#utility.yul\":5640:5735   */\n      swap5\n      pop\n        /* \"#utility.yul\":5766:5767   */\n      0x01\n        /* \"#utility.yul\":5755:5764   */\n      dup3\n        /* \"#utility.yul\":5751:5768   */\n      and\n        /* \"#utility.yul\":5782:5783   */\n      0x00\n        /* \"#utility.yul\":5777:5943   */\n      dup2\n      eq\n      tag_145\n      jumpi\n        /* \"#utility.yul\":5957:5958   */\n      0x01\n        /* \"#utility.yul\":5952:6296   */\n      dup2\n      eq\n      tag_146\n      jumpi\n        /* \"#utility.yul\":5744:6296   */\n      jump(tag_144)\n        /* \"#utility.yul\":5777:5943   */\n    tag_145:\n        /* \"#utility.yul\":5861:5865   */\n      0xff\n        /* \"#utility.yul\":5857:5866   */\n      not\n        /* \"#utility.yul\":5846:5855   */\n      dup4\n        /* \"#utility.yul\":5842:5867   */\n      and\n        /* \"#utility.yul\":5837:5840   */\n      dup7\n        /* \"#utility.yul\":5830:5868   */\n      mstore\n        /* \"#utility.yul\":5923:5929   */\n      dup2\n        /* \"#utility.yul\":5916:5930   */\n      iszero\n        /* \"#utility.yul\":5909:5931   */\n      iszero\n        /* \"#utility.yul\":5901:5907   */\n      dup3\n        /* \"#utility.yul\":5897:5932   */\n      mul\n        /* \"#utility.yul\":5892:5895   */\n      dup7\n        /* \"#utility.yul\":5888:5933   */\n      add\n        /* \"#utility.yul\":5881:5933   */\n      swap4\n      pop\n        /* \"#utility.yul\":5777:5943   */\n      jump(tag_144)\n        /* \"#utility.yul\":5952:6296   */\n    tag_146:\n        /* \"#utility.yul\":6019:6060   */\n      tag_147\n        /* \"#utility.yul\":6054:6059   */\n      dup6\n        /* \"#utility.yul\":6019:6060   */\n      tag_81\n      jump\t// in\n    tag_147:\n        /* \"#utility.yul\":6082:6083   */\n      0x00\n        /* \"#utility.yul\":6096:6250   */\n    tag_148:\n        /* \"#utility.yul\":6110:6116   */\n      dup4\n        /* \"#utility.yul\":6107:6108   */\n      dup2\n        /* \"#utility.yul\":6104:6117   */\n      lt\n        /* \"#utility.yul\":6096:6250   */\n      iszero\n      tag_150\n      jumpi\n        /* \"#utility.yul\":6184:6191   */\n      dup2\n        /* \"#utility.yul\":6178:6192   */\n      sload\n        /* \"#utility.yul\":6174:6175   */\n      dup2\n        /* \"#utility.yul\":6169:6172   */\n      dup10\n        /* \"#utility.yul\":6165:6176   */\n      add\n        /* \"#utility.yul\":6158:6193   */\n      mstore\n        /* \"#utility.yul\":6234:6235   */\n      0x01\n        /* \"#utility.yul\":6225:6232   */\n      dup3\n        /* \"#utility.yul\":6221:6236   */\n      add\n        /* \"#utility.yul\":6210:6236   */\n      swap2\n      pop\n        /* \"#utility.yul\":6132:6136   */\n      0x20\n        /* \"#utility.yul\":6129:6130   */\n      dup2\n        /* \"#utility.yul\":6125:6137   */\n      add\n        /* \"#utility.yul\":6120:6137   */\n      swap1\n      pop\n        /* \"#utility.yul\":6096:6250   */\n      jump(tag_148)\n    tag_150:\n        /* \"#utility.yul\":6279:6285   */\n      dup4\n        /* \"#utility.yul\":6274:6277   */\n      dup9\n        /* \"#utility.yul\":6270:6286   */\n      add\n        /* \"#utility.yul\":6263:6286   */\n      swap6\n      pop\n        /* \"#utility.yul\":5959:6296   */\n      pop\n      pop\n        /* \"#utility.yul\":5744:6296   */\n    tag_144:\n      pop\n        /* \"#utility.yul\":5533:6302   */\n      pop\n      pop\n        /* \"#utility.yul\":5424:6302   */\n      swap3\n      swap2\n      pop\n      pop\n      jump\t// out\n        /* \"#utility.yul\":6308:6462   */\n    tag_83:\n        /* \"#utility.yul\":6392:6398   */\n      dup3\n        /* \"#utility.yul\":6387:6390   */\n      dup2\n        /* \"#utility.yul\":6382:6385   */\n      dup4\n        /* \"#utility.yul\":6369:6399   */\n      calldatacopy\n        /* \"#utility.yul\":6454:6455   */\n      0x00\n        /* \"#utility.yul\":6445:6451   */\n      dup4\n        /* \"#utility.yul\":6440:6443   */\n      dup4\n        /* \"#utility.yul\":6436:6452   */\n      add\n        /* \"#utility.yul\":6429:6456   */\n      mstore\n        /* \"#utility.yul\":6308:6462   */\n      pop\n      pop\n      pop\n      jump\t// out\n        /* \"#utility.yul\":6490:6804   */\n    tag_84:\n        /* \"#utility.yul\":6604:6607   */\n      0x00\n        /* \"#utility.yul\":6625:6713   */\n      tag_153\n        /* \"#utility.yul\":6706:6712   */\n      dup4\n        /* \"#utility.yul\":6701:6704   */\n      dup6\n        /* \"#utility.yul\":6625:6713   */\n      tag_80\n      jump\t// in\n    tag_153:\n        /* \"#utility.yul\":6618:6713   */\n      swap4\n      pop\n        /* \"#utility.yul\":6723:6766   */\n      tag_154\n        /* \"#utility.yul\":6759:6765   */\n      dup4\n        /* \"#utility.yul\":6754:6757   */\n      dup6\n        /* \"#utility.yul\":6747:6752   */\n      dup5\n        /* \"#utility.yul\":6723:6766   */\n      tag_83\n      jump\t// in\n    tag_154:\n        /* \"#utility.yul\":6791:6797   */\n      dup3\n        /* \"#utility.yul\":6786:6789   */\n      dup5\n        /* \"#utility.yul\":6782:6798   */\n      add\n        /* \"#utility.yul\":6775:6798   */\n      swap1\n      pop\n        /* \"#utility.yul\":6490:6804   */\n      swap4\n      swap3\n      pop\n      pop\n      pop\n      jump\t// out\n        /* \"#utility.yul\":6810:7259   */\n    tag_39:\n        /* \"#utility.yul\":6997:7000   */\n      0x00\n        /* \"#utility.yul\":7019:7113   */\n      tag_156\n        /* \"#utility.yul\":7109:7112   */\n      dup3\n        /* \"#utility.yul\":7100:7106   */\n      dup7\n        /* \"#utility.yul\":7019:7113   */\n      tag_82\n      jump\t// in\n    tag_156:\n        /* \"#utility.yul\":7012:7113   */\n      swap2\n      pop\n        /* \"#utility.yul\":7130:7233   */\n      tag_157\n        /* \"#utility.yul\":7229:7232   */\n      dup3\n        /* \"#utility.yul\":7220:7226   */\n      dup5\n        /* \"#utility.yul\":7212:7218   */\n      dup7\n        /* \"#utility.yul\":7130:7233   */\n      tag_84\n      jump\t// in\n    tag_157:\n        /* \"#utility.yul\":7123:7233   */\n      swap2\n      pop\n        /* \"#utility.yul\":7250:7253   */\n      dup2\n        /* \"#utility.yul\":7243:7253   */\n      swap1\n      pop\n        /* \"#utility.yul\":6810:7259   */\n      swap5\n      swap4\n      pop\n      pop\n      pop\n      pop\n      jump\t// out\n\n    auxdata: 0xa2646970667358221220f3f0b273c528463e0a39b2b6431f62c59bc8a23e4cf829af9f8e07c9ecb667ad64736f6c634300080f0033\n}\n",
				"bytecode": {
					"linkReferences": {},
					"object": "60806040526040518060400160405280600781526020017f48656c6c6f2c2000000000000000000000000000000000000000000000000000815250600090816200004a91906200039b565b506040518060400160405280600181526020017f4100000000000000000000000000000000000000000000000000000000000000815250600190816200009191906200039b565b506040518060400160405280600181526020017f420000000000000000000000000000000000000000000000000000000000000081525060029081620000d891906200039b565b506001604051602001620000ed91906200051c565b604051602081830303815290604052600390816200010c9190620005a5565b503480156200011a57600080fd5b506200068c565b600081519050919050565b7f4e487b7100000000000000000000000000000000000000000000000000000000600052604160045260246000fd5b7f4e487b7100000000000000000000000000000000000000000000000000000000600052602260045260246000fd5b60006002820490506001821680620001a357607f821691505b602082108103620001b957620001b86200015b565b5b50919050565b60008190508160005260206000209050919050565b60006020601f8301049050919050565b600082821b905092915050565b600060088302620002237fffffffffffffffffffffffffffffffffffffffffffffffffffffffffffffffff82620001e4565b6200022f8683620001e4565b95508019841693508086168417925050509392505050565b6000819050919050565b6000819050919050565b60006200027c62000276620002708462000247565b62000251565b62000247565b9050919050565b6000819050919050565b62000298836200025b565b620002b0620002a78262000283565b848454620001f1565b825550505050565b600090565b620002c7620002b8565b620002d48184846200028d565b505050565b5b81811015620002fc57620002f0600082620002bd565b600181019050620002da565b5050565b601f8211156200034b576200031581620001bf565b6200032084620001d4565b8101602085101562000330578190505b620003486200033f85620001d4565b830182620002d9565b50505b505050565b600082821c905092915050565b6000620003706000198460080262000350565b1980831691505092915050565b60006200038b83836200035d565b9150826002028217905092915050565b620003a68262000121565b67ffffffffffffffff811115620003c257620003c16200012c565b5b620003ce82546200018a565b620003db82828562000300565b600060209050601f831160018114620004135760008415620003fe578287015190505b6200040a85826200037d565b8655506200047a565b601f1984166200042386620001bf565b60005b828110156200044d5784890151825560018201915060208501945060208101905062000426565b868310156200046d578489015162000469601f8916826200035d565b8355505b6001600288020188555050505b505050505050565b600081905092915050565b600081546200049c816200018a565b620004a8818662000482565b94506001821660008114620004c65760018114620004dc5762000513565b60ff198316865281151582028601935062000513565b620004e785620001bf565b60005b838110156200050b57815481890152600182019150602081019050620004ea565b838801955050505b50505092915050565b60006200052a82846200048d565b915081905092915050565b600081519050919050565b60008190508160005260206000209050919050565b601f821115620005a0576200056a8162000540565b6200057584620001d4565b8101602085101562000585578190505b6200059d6200059485620001d4565b830182620002d9565b50505b505050565b620005b08262000535565b67ffffffffffffffff811115620005cc57620005cb6200012c565b5b620005d882546200018a565b620005e582828562000555565b600060209050601f8311600181146200061d576000841562000608578287015190505b6200061485826200037d565b86555062000684565b601f1984166200062d8662000540565b60005b82811015620006575784890151825560018201915060208501945060208101905062000630565b8683101562000677578489015162000673601f8916826200035d565b8355505b6001600288020188555050505b505050505050565b61079c806200069c6000396000f3fe608060405234801561001057600080fd5b506004361061007d5760003560e01c8063a314150f1161005b578063a314150f146100ee578063acbe84521461010c578063cfae32171461012a578063ee495002146101485761007d565b806309fca94f146100825780631e228514146100b25780636cc014de146100d0575b600080fd5b61009c60048036038101906100979190610454565b610166565b6040516100a9919061053a565b60405180910390f35b6100ba610195565b6040516100c79190610577565b60405180910390f35b6100d86101a8565b6040516100e5919061053a565b60405180910390f35b6100f6610236565b604051610103919061053a565b60405180910390f35b6101146102c4565b6040516101219190610577565b60405180910390f35b6101326102c9565b60405161013f919061053a565b60405180910390f35b610150610357565b60405161015d91906105e7565b60405180910390f35b60606000838360405160200161017e93929190610740565b604051602081830303815290604052905092915050565b600460009054906101000a900460ff1681565b600180546101b590610638565b80601f01602080910402602001604051908101604052809291908181526020018280546101e190610638565b801561022e5780601f106102035761010080835404028352916020019161022e565b820191906000526020600020905b81548152906001019060200180831161021157829003601f168201915b505050505081565b6002805461024390610638565b80601f016020809104026020016040519081016040528092919081815260200182805461026f90610638565b80156102bc5780601f10610291576101008083540402835291602001916102bc565b820191906000526020600020905b81548152906001019060200180831161029f57829003601f168201915b505050505081565b600090565b600080546102d690610638565b80601f016020809104026020016040519081016040528092919081815260200182805461030290610638565b801561034f5780601f106103245761010080835404028352916020019161034f565b820191906000526020600020905b81548152906001019060200180831161033257829003601f168201915b505050505081565b6003805461036490610638565b80601f016020809104026020016040519081016040528092919081815260200182805461039090610638565b80156103dd5780601f106103b2576101008083540402835291602001916103dd565b820191906000526020600020905b8154815290600101906020018083116103c057829003601f168201915b505050505081565b600080fd5b600080fd5b600080fd5b600080fd5b600080fd5b60008083601f840112610414576104136103ef565b5b8235905067ffffffffffffffff811115610431576104306103f4565b5b60208301915083600182028301111561044d5761044c6103f9565b5b9250929050565b6000806020838503121561046b5761046a6103e5565b5b600083013567ffffffffffffffff811115610489576104886103ea565b5b610495858286016103fe565b92509250509250929050565b600081519050919050565b600082825260208201905092915050565b60005b838110156104db5780820151818401526020810190506104c0565b838111156104ea576000848401525b50505050565b6000601f19601f8301169050919050565b600061050c826104a1565b61051681856104ac565b93506105268185602086016104bd565b61052f816104f0565b840191505092915050565b600060208201905081810360008301526105548184610501565b905092915050565b60008115159050919050565b6105718161055c565b82525050565b600060208201905061058c6000830184610568565b92915050565b600081519050919050565b600082825260208201905092915050565b60006105b982610592565b6105c3818561059d565b93506105d38185602086016104bd565b6105dc816104f0565b840191505092915050565b6000602082019050818103600083015261060181846105ae565b905092915050565b7f4e487b7100000000000000000000000000000000000000000000000000000000600052602260045260246000fd5b6000600282049050600182168061065057607f821691505b60208210810361066357610662610609565b5b50919050565b600081905092915050565b60008190508160005260206000209050919050565b6000815461069681610638565b6106a08186610669565b945060018216600081146106bb57600181146106d057610703565b60ff1983168652811515820286019350610703565b6106d985610674565b60005b838110156106fb578154818901526001820191506020810190506106dc565b838801955050505b50505092915050565b82818337600083830152505050565b60006107278385610669565b935061073483858461070c565b82840190509392505050565b600061074c8286610689565b915061075982848661071b565b915081905094935050505056fea2646970667358221220f3f0b273c528463e0a39b2b6431f62c59bc8a23e4cf829af9f8e07c9ecb667ad64736f6c634300080f0033",
					"opcodes": "PUSH1 0x80 PUSH1 0x40 MSTORE PUSH1 0x40 MLOAD DUP1 PUSH1 0x40 ADD PUSH1 0x40 MSTORE DUP1 PUSH1 0x7 DUP2 MSTORE PUSH1 0x20 ADD PUSH32 0x48656C6C6F2C2000000000000000000000000000000000000000000000000000 DUP2 MSTORE POP PUSH1 0x0 SWAP1 DUP2 PUSH3 0x4A SWAP2 SWAP1 PUSH3 0x39B JUMP JUMPDEST POP PUSH1 0x40 MLOAD DUP1 PUSH1 0x40 ADD PUSH1 0x40 MSTORE DUP1 PUSH1 0x1 DUP2 MSTORE PUSH1 0x20 ADD PUSH32 0x4100000000000000000000000000000000000000000000000000000000000000 DUP2 MSTORE POP PUSH1 0x1 SWAP1 DUP2 PUSH3 0x91 SWAP2 SWAP1 PUSH3 0x39B JUMP JUMPDEST POP PUSH1 0x40 MLOAD DUP1 PUSH1 0x40 ADD PUSH1 0x40 MSTORE DUP1 PUSH1 0x1 DUP2 MSTORE PUSH1 0x20 ADD PUSH32 0x4200000000000000000000000000000000000000000000000000000000000000 DUP2 MSTORE POP PUSH1 0x2 SWAP1 DUP2 PUSH3 0xD8 SWAP2 SWAP1 PUSH3 0x39B JUMP JUMPDEST POP PUSH1 0x1 PUSH1 0x40 MLOAD PUSH1 0x20 ADD PUSH3 0xED SWAP2 SWAP1 PUSH3 0x51C JUMP JUMPDEST PUSH1 0x40 MLOAD PUSH1 0x20 DUP2 DUP4 SUB SUB DUP2 MSTORE SWAP1 PUSH1 0x40 MSTORE PUSH1 0x3 SWAP1 DUP2 PUSH3 0x10C SWAP2 SWAP1 PUSH3 0x5A5 JUMP JUMPDEST POP CALLVALUE DUP1 ISZERO PUSH3 0x11A JUMPI PUSH1 0x0 DUP1 REVERT JUMPDEST POP PUSH3 0x68C JUMP JUMPDEST PUSH1 0x0 DUP2 MLOAD SWAP1 POP SWAP2 SWAP1 POP JUMP JUMPDEST PUSH32 0x4E487B7100000000000000000000000000000000000000000000000000000000 PUSH1 0x0 MSTORE PUSH1 0x41 PUSH1 0x4 MSTORE PUSH1 0x24 PUSH1 0x0 REVERT JUMPDEST PUSH32 0x4E487B7100000000000000000000000000000000000000000000000000000000 PUSH1 0x0 MSTORE PUSH1 0x22 PUSH1 0x4 MSTORE PUSH1 0x24 PUSH1 0x0 REVERT JUMPDEST PUSH1 0x0 PUSH1 0x2 DUP3 DIV SWAP1 POP PUSH1 0x1 DUP3 AND DUP1 PUSH3 0x1A3 JUMPI PUSH1 0x7F DUP3 AND SWAP2 POP JUMPDEST PUSH1 0x20 DUP3 LT DUP2 SUB PUSH3 0x1B9 JUMPI PUSH3 0x1B8 PUSH3 0x15B JUMP JUMPDEST JUMPDEST POP SWAP2 SWAP1 POP JUMP JUMPDEST PUSH1 0x0 DUP2 SWAP1 POP DUP2 PUSH1 0x0 MSTORE PUSH1 0x20 PUSH1 0x0 KECCAK256 SWAP1 POP SWAP2 SWAP1 POP JUMP JUMPDEST PUSH1 0x0 PUSH1 0x20 PUSH1 0x1F DUP4 ADD DIV SWAP1 POP SWAP2 SWAP1 POP JUMP JUMPDEST PUSH1 0x0 DUP3 DUP3 SHL SWAP1 POP SWAP3 SWAP2 POP POP JUMP JUMPDEST PUSH1 0x0 PUSH1 0x8 DUP4 MUL PUSH3 0x223 PUSH32 0xFFFFFFFFFFFFFFFFFFFFFFFFFFFFFFFFFFFFFFFFFFFFFFFFFFFFFFFFFFFFFFFF DUP3 PUSH3 0x1E4 JUMP JUMPDEST PUSH3 0x22F DUP7 DUP4 PUSH3 0x1E4 JUMP JUMPDEST SWAP6 POP DUP1 NOT DUP5 AND SWAP4 POP DUP1 DUP7 AND DUP5 OR SWAP3 POP POP POP SWAP4 SWAP3 POP POP POP JUMP JUMPDEST PUSH1 0x0 DUP2 SWAP1 POP SWAP2 SWAP1 POP JUMP JUMPDEST PUSH1 0x0 DUP2 SWAP1 POP SWAP2 SWAP1 POP JUMP JUMPDEST PUSH1 0x0 PUSH3 0x27C PUSH3 0x276 PUSH3 0x270 DUP5 PUSH3 0x247 JUMP JUMPDEST PUSH3 0x251 JUMP JUMPDEST PUSH3 0x247 JUMP JUMPDEST SWAP1 POP SWAP2 SWAP1 POP JUMP JUMPDEST PUSH1 0x0 DUP2 SWAP1 POP SWAP2 SWAP1 POP JUMP JUMPDEST PUSH3 0x298 DUP4 PUSH3 0x25B JUMP JUMPDEST PUSH3 0x2B0 PUSH3 0x2A7 DUP3 PUSH3 0x283 JUMP JUMPDEST DUP5 DUP5 SLOAD PUSH3 0x1F1 JUMP JUMPDEST DUP3 SSTORE POP POP POP POP JUMP JUMPDEST PUSH1 0x0 SWAP1 JUMP JUMPDEST PUSH3 0x2C7 PUSH3 0x2B8 JUMP JUMPDEST PUSH3 0x2D4 DUP2 DUP5 DUP5 PUSH3 0x28D JUMP JUMPDEST POP POP POP JUMP JUMPDEST JUMPDEST DUP2 DUP2 LT ISZERO PUSH3 0x2FC JUMPI PUSH3 0x2F0 PUSH1 0x0 DUP3 PUSH3 0x2BD JUMP JUMPDEST PUSH1 0x1 DUP2 ADD SWAP1 POP PUSH3 0x2DA JUMP JUMPDEST POP POP JUMP JUMPDEST PUSH1 0x1F DUP3 GT ISZERO PUSH3 0x34B JUMPI PUSH3 0x315 DUP2 PUSH3 0x1BF JUMP JUMPDEST PUSH3 0x320 DUP5 PUSH3 0x1D4 JUMP JUMPDEST DUP2 ADD PUSH1 0x20 DUP6 LT ISZERO PUSH3 0x330 JUMPI DUP2 SWAP1 POP JUMPDEST PUSH3 0x348 PUSH3 0x33F DUP6 PUSH3 0x1D4 JUMP JUMPDEST DUP4 ADD DUP3 PUSH3 0x2D9 JUMP JUMPDEST POP POP JUMPDEST POP POP POP JUMP JUMPDEST PUSH1 0x0 DUP3 DUP3 SHR SWAP1 POP SWAP3 SWAP2 POP POP JUMP JUMPDEST PUSH1 0x0 PUSH3 0x370 PUSH1 0x0 NOT DUP5 PUSH1 0x8 MUL PUSH3 0x350 JUMP JUMPDEST NOT DUP1 DUP4 AND SWAP2 POP POP SWAP3 SWAP2 POP POP JUMP JUMPDEST PUSH1 0x0 PUSH3 0x38B DUP4 DUP4 PUSH3 0x35D JUMP JUMPDEST SWAP2 POP DUP3 PUSH1 0x2 MUL DUP3 OR SWAP1 POP SWAP3 SWAP2 POP POP JUMP JUMPDEST PUSH3 0x3A6 DUP3 PUSH3 0x121 JUMP JUMPDEST PUSH8 0xFFFFFFFFFFFFFFFF DUP2 GT ISZERO PUSH3 0x3C2 JUMPI PUSH3 0x3C1 PUSH3 0x12C JUMP JUMPDEST JUMPDEST PUSH3 0x3CE DUP3 SLOAD PUSH3 0x18A JUMP JUMPDEST PUSH3 0x3DB DUP3 DUP3 DUP6 PUSH3 0x300 JUMP JUMPDEST PUSH1 0x0 PUSH1 0x20 SWAP1 POP PUSH1 0x1F DUP4 GT PUSH1 0x1 DUP2 EQ PUSH3 0x413 JUMPI PUSH1 0x0 DUP5 ISZERO PUSH3 0x3FE JUMPI DUP3 DUP8 ADD MLOAD SWAP1 POP JUMPDEST PUSH3 0x40A DUP6 DUP3 PUSH3 0x37D JUMP JUMPDEST DUP7 SSTORE POP PUSH3 0x47A JUMP JUMPDEST PUSH1 0x1F NOT DUP5 AND PUSH3 0x423 DUP7 PUSH3 0x1BF JUMP JUMPDEST PUSH1 0x0 JUMPDEST DUP3 DUP2 LT ISZERO PUSH3 0x44D JUMPI DUP5 DUP10 ADD MLOAD DUP3 SSTORE PUSH1 0x1 DUP3 ADD SWAP2 POP PUSH1 0x20 DUP6 ADD SWAP5 POP PUSH1 0x20 DUP2 ADD SWAP1 POP PUSH3 0x426 JUMP JUMPDEST DUP7 DUP4 LT ISZERO PUSH3 0x46D JUMPI DUP5 DUP10 ADD MLOAD PUSH3 0x469 PUSH1 0x1F DUP10 AND DUP3 PUSH3 0x35D JUMP JUMPDEST DUP4 SSTORE POP JUMPDEST PUSH1 0x1 PUSH1 0x2 DUP9 MUL ADD DUP9 SSTORE POP POP POP JUMPDEST POP POP POP POP POP POP JUMP JUMPDEST PUSH1 0x0 DUP2 SWAP1 POP SWAP3 SWAP2 POP POP JUMP JUMPDEST PUSH1 0x0 DUP2 SLOAD PUSH3 0x49C DUP2 PUSH3 0x18A JUMP JUMPDEST PUSH3 0x4A8 DUP2 DUP7 PUSH3 0x482 JUMP JUMPDEST SWAP5 POP PUSH1 0x1 DUP3 AND PUSH1 0x0 DUP2 EQ PUSH3 0x4C6 JUMPI PUSH1 0x1 DUP2 EQ PUSH3 0x4DC JUMPI PUSH3 0x513 JUMP JUMPDEST PUSH1 0xFF NOT DUP4 AND DUP7 MSTORE DUP2 ISZERO ISZERO DUP3 MUL DUP7 ADD SWAP4 POP PUSH3 0x513 JUMP JUMPDEST PUSH3 0x4E7 DUP6 PUSH3 0x1BF JUMP JUMPDEST PUSH1 0x0 JUMPDEST DUP4 DUP2 LT ISZERO PUSH3 0x50B JUMPI DUP2 SLOAD DUP2 DUP10 ADD MSTORE PUSH1 0x1 DUP3 ADD SWAP2 POP PUSH1 0x20 DUP2 ADD SWAP1 POP PUSH3 0x4EA JUMP JUMPDEST DUP4 DUP9 ADD SWAP6 POP POP POP JUMPDEST POP POP POP SWAP3 SWAP2 POP POP JUMP JUMPDEST PUSH1 0x0 PUSH3 0x52A DUP3 DUP5 PUSH3 0x48D JUMP JUMPDEST SWAP2 POP DUP2 SWAP1 POP SWAP3 SWAP2 POP POP JUMP JUMPDEST PUSH1 0x0 DUP2 MLOAD SWAP1 POP SWAP2 SWAP1 POP JUMP JUMPDEST PUSH1 0x0 DUP2 SWAP1 POP DUP2 PUSH1 0x0 MSTORE PUSH1 0x20 PUSH1 0x0 KECCAK256 SWAP1 POP SWAP2 SWAP1 POP JUMP JUMPDEST PUSH1 0x1F DUP3 GT ISZERO PUSH3 0x5A0 JUMPI PUSH3 0x56A DUP2 PUSH3 0x540 JUMP JUMPDEST PUSH3 0x575 DUP5 PUSH3 0x1D4 JUMP JUMPDEST DUP2 ADD PUSH1 0x20 DUP6 LT ISZERO PUSH3 0x585 JUMPI DUP2 SWAP1 POP JUMPDEST PUSH3 0x59D PUSH3 0x594 DUP6 PUSH3 0x1D4 JUMP JUMPDEST DUP4 ADD DUP3 PUSH3 0x2D9 JUMP JUMPDEST POP POP JUMPDEST POP POP POP JUMP JUMPDEST PUSH3 0x5B0 DUP3 PUSH3 0x535 JUMP JUMPDEST PUSH8 0xFFFFFFFFFFFFFFFF DUP2 GT ISZERO PUSH3 0x5CC JUMPI PUSH3 0x5CB PUSH3 0x12C JUMP JUMPDEST JUMPDEST PUSH3 0x5D8 DUP3 SLOAD PUSH3 0x18A JUMP JUMPDEST PUSH3 0x5E5 DUP3 DUP3 DUP6 PUSH3 0x555 JUMP JUMPDEST PUSH1 0x0 PUSH1 0x20 SWAP1 POP PUSH1 0x1F DUP4 GT PUSH1 0x1 DUP2 EQ PUSH3 0x61D JUMPI PUSH1 0x0 DUP5 ISZERO PUSH3 0x608 JUMPI DUP3 DUP8 ADD MLOAD SWAP1 POP JUMPDEST PUSH3 0x614 DUP6 DUP3 PUSH3 0x37D JUMP JUMPDEST DUP7 SSTORE POP PUSH3 0x684 JUMP JUMPDEST PUSH1 0x1F NOT DUP5 AND PUSH3 0x62D DUP7 PUSH3 0x540 JUMP JUMPDEST PUSH1 0x0 JUMPDEST DUP3 DUP2 LT ISZERO PUSH3 0x657 JUMPI DUP5 DUP10 ADD MLOAD DUP3 SSTORE PUSH1 0x1 DUP3 ADD SWAP2 POP PUSH1 0x20 DUP6 ADD SWAP5 POP PUSH1 0x20 DUP2 ADD SWAP1 POP PUSH3 0x630 JUMP JUMPDEST DUP7 DUP4 LT ISZERO PUSH3 0x677 JUMPI DUP5 DUP10 ADD MLOAD PUSH3 0x673 PUSH1 0x1F DUP10 AND DUP3 PUSH3 0x35D JUMP JUMPDEST DUP4 SSTORE POP JUMPDEST PUSH1 0x1 PUSH1 0x2 DUP9 MUL ADD DUP9 SSTORE POP POP POP JUMPDEST POP POP POP POP POP POP JUMP JUMPDEST PUSH2 0x79C DUP1 PUSH3 0x69C PUSH1 0x0 CODECOPY PUSH1 0x0 RETURN INVALID PUSH1 0x80 PUSH1 0x40 MSTORE CALLVALUE DUP1 ISZERO PUSH2 0x10 JUMPI PUSH1 0x0 DUP1 REVERT JUMPDEST POP PUSH1 0x4 CALLDATASIZE LT PUSH2 0x7D JUMPI PUSH1 0x0 CALLDATALOAD PUSH1 0xE0 SHR DUP1 PUSH4 0xA314150F GT PUSH2 0x5B JUMPI DUP1 PUSH4 0xA314150F EQ PUSH2 0xEE JUMPI DUP1 PUSH4 0xACBE8452 EQ PUSH2 0x10C JUMPI DUP1 PUSH4 0xCFAE3217 EQ PUSH2 0x12A JUMPI DUP1 PUSH4 0xEE495002 EQ PUSH2 0x148 JUMPI PUSH2 0x7D JUMP JUMPDEST DUP1 PUSH4 0x9FCA94F EQ PUSH2 0x82 JUMPI DUP1 PUSH4 0x1E228514 EQ PUSH2 0xB2 JUMPI DUP1 PUSH4 0x6CC014DE EQ PUSH2 0xD0 JUMPI JUMPDEST PUSH1 0x0 DUP1 REVERT JUMPDEST PUSH2 0x9C PUSH1 0x4 DUP1 CALLDATASIZE SUB DUP2 ADD SWAP1 PUSH2 0x97 SWAP2 SWAP1 PUSH2 0x454 JUMP JUMPDEST PUSH2 0x166 JUMP JUMPDEST PUSH1 0x40 MLOAD PUSH2 0xA9 SWAP2 SWAP1 PUSH2 0x53A JUMP JUMPDEST PUSH1 0x40 MLOAD DUP1 SWAP2 SUB SWAP1 RETURN JUMPDEST PUSH2 0xBA PUSH2 0x195 JUMP JUMPDEST PUSH1 0x40 MLOAD PUSH2 0xC7 SWAP2 SWAP1 PUSH2 0x577 JUMP JUMPDEST PUSH1 0x40 MLOAD DUP1 SWAP2 SUB SWAP1 RETURN JUMPDEST PUSH2 0xD8 PUSH2 0x1A8 JUMP JUMPDEST PUSH1 0x40 MLOAD PUSH2 0xE5 SWAP2 SWAP1 PUSH2 0x53A JUMP JUMPDEST PUSH1 0x40 MLOAD DUP1 SWAP2 SUB SWAP1 RETURN JUMPDEST PUSH2 0xF6 PUSH2 0x236 JUMP JUMPDEST PUSH1 0x40 MLOAD PUSH2 0x103 SWAP2 SWAP1 PUSH2 0x53A JUMP JUMPDEST PUSH1 0x40 MLOAD DUP1 SWAP2 SUB SWAP1 RETURN JUMPDEST PUSH2 0x114 PUSH2 0x2C4 JUMP JUMPDEST PUSH1 0x40 MLOAD PUSH2 0x121 SWAP2 SWAP1 PUSH2 0x577 JUMP JUMPDEST PUSH1 0x40 MLOAD DUP1 SWAP2 SUB SWAP1 RETURN JUMPDEST PUSH2 0x132 PUSH2 0x2C9 JUMP JUMPDEST PUSH1 0x40 MLOAD PUSH2 0x13F SWAP2 SWAP1 PUSH2 0x53A JUMP JUMPDEST PUSH1 0x40 MLOAD DUP1 SWAP2 SUB SWAP1 RETURN JUMPDEST PUSH2 0x150 PUSH2 0x357 JUMP JUMPDEST PUSH1 0x40 MLOAD PUSH2 0x15D SWAP2 SWAP1 PUSH2 0x5E7 JUMP JUMPDEST PUSH1 0x40 MLOAD DUP1 SWAP2 SUB SWAP1 RETURN JUMPDEST PUSH1 0x60 PUSH1 0x0 DUP4 DUP4 PUSH1 0x40 MLOAD PUSH1 0x20 ADD PUSH2 0x17E SWAP4 SWAP3 SWAP2 SWAP1 PUSH2 0x740 JUMP JUMPDEST PUSH1 0x40 MLOAD PUSH1 0x20 DUP2 DUP4 SUB SUB DUP2 MSTORE SWAP1 PUSH1 0x40 MSTORE SWAP1 POP SWAP3 SWAP2 POP POP JUMP JUMPDEST PUSH1 0x4 PUSH1 0x0 SWAP1 SLOAD SWAP1 PUSH2 0x100 EXP SWAP1 DIV PUSH1 0xFF AND DUP2 JUMP JUMPDEST PUSH1 0x1 DUP1 SLOAD PUSH2 0x1B5 SWAP1 PUSH2 0x638 JUMP JUMPDEST DUP1 PUSH1 0x1F ADD PUSH1 0x20 DUP1 SWAP2 DIV MUL PUSH1 0x20 ADD PUSH1 0x40 MLOAD SWAP1 DUP2 ADD PUSH1 0x40 MSTORE DUP1 SWAP3 SWAP2 SWAP1 DUP2 DUP2 MSTORE PUSH1 0x20 ADD DUP3 DUP1 SLOAD PUSH2 0x1E1 SWAP1 PUSH2 0x638 JUMP JUMPDEST DUP1 ISZERO PUSH2 0x22E JUMPI DUP1 PUSH1 0x1F LT PUSH2 0x203 JUMPI PUSH2 0x100 DUP1 DUP4 SLOAD DIV MUL DUP4 MSTORE SWAP2 PUSH1 0x20 ADD SWAP2 PUSH2 0x22E JUMP JUMPDEST DUP3 ADD SWAP2 SWAP1 PUSH1 0x0 MSTORE PUSH1 0x20 PUSH1 0x0 KECCAK256 SWAP1 JUMPDEST DUP2 SLOAD DUP2 MSTORE SWAP1 PUSH1 0x1 ADD SWAP1 PUSH1 0x20 ADD DUP1 DUP4 GT PUSH2 0x211 JUMPI DUP3 SWAP1 SUB PUSH1 0x1F AND DUP3 ADD SWAP2 JUMPDEST POP POP POP POP POP DUP2 JUMP JUMPDEST PUSH1 0x2 DUP1 SLOAD PUSH2 0x243 SWAP1 PUSH2 0x638 JUMP JUMPDEST DUP1 PUSH1 0x1F ADD PUSH1 0x20 DUP1 SWAP2 DIV MUL PUSH1 0x20 ADD PUSH1 0x40 MLOAD SWAP1 DUP2 ADD PUSH1 0x40 MSTORE DUP1 SWAP3 SWAP2 SWAP1 DUP2 DUP2 MSTORE PUSH1 0x20 ADD DUP3 DUP1 SLOAD PUSH2 0x26F SWAP1 PUSH2 0x638 JUMP JUMPDEST DUP1 ISZERO PUSH2 0x2BC JUMPI DUP1 PUSH1 0x1F LT PUSH2 0x291 JUMPI PUSH2 0x100 DUP1 DUP4 SLOAD DIV MUL DUP4 MSTORE SWAP2 PUSH1 0x20 ADD SWAP2 PUSH2 0x2BC JUMP JUMPDEST DUP3 ADD SWAP2 SWAP1 PUSH1 0x0 MSTORE PUSH1 0x20 PUSH1 0x0 KECCAK256 SWAP1 JUMPDEST DUP2 SLOAD DUP2 MSTORE SWAP1 PUSH1 0x1 ADD SWAP1 PUSH1 0x20 ADD DUP1 DUP4 GT PUSH2 0x29F JUMPI DUP3 SWAP1 SUB PUSH1 0x1F AND DUP3 ADD SWAP2 JUMPDEST POP POP POP POP POP DUP2 JUMP JUMPDEST PUSH1 0x0 SWAP1 JUMP JUMPDEST PUSH1 0x0 DUP1 SLOAD PUSH2 0x2D6 SWAP1 PUSH2 0x638 JUMP JUMPDEST DUP1 PUSH1 0x1F ADD PUSH1 0x20 DUP1 SWAP2 DIV MUL PUSH1 0x20 ADD PUSH1 0x40 MLOAD SWAP1 DUP2 ADD PUSH1 0x40 MSTORE DUP1 SWAP3 SWAP2 SWAP1 DUP2 DUP2 MSTORE PUSH1 0x20 ADD DUP3 DUP1 SLOAD PUSH2 0x302 SWAP1 PUSH2 0x638 JUMP JUMPDEST DUP1 ISZERO PUSH2 0x34F JUMPI DUP1 PUSH1 0x1F LT PUSH2 0x324 JUMPI PUSH2 0x100 DUP1 DUP4 SLOAD DIV MUL DUP4 MSTORE SWAP2 PUSH1 0x20 ADD SWAP2 PUSH2 0x34F JUMP JUMPDEST DUP3 ADD SWAP2 SWAP1 PUSH1 0x0 MSTORE PUSH1 0x20 PUSH1 0x0 KECCAK256 SWAP1 JUMPDEST DUP2 SLOAD DUP2 MSTORE SWAP1 PUSH1 0x1 ADD SWAP1 PUSH1 0x20 ADD DUP1 DUP4 GT PUSH2 0x332 JUMPI DUP3 SWAP1 SUB PUSH1 0x1F AND DUP3 ADD SWAP2 JUMPDEST POP POP POP POP POP DUP2 JUMP JUMPDEST PUSH1 0x3 DUP1 SLOAD PUSH2 0x364 SWAP1 PUSH2 0x638 JUMP JUMPDEST DUP1 PUSH1 0x1F ADD PUSH1 0x20 DUP1 SWAP2 DIV MUL PUSH1 0x20 ADD PUSH1 0x40 MLOAD SWAP1 DUP2 ADD PUSH1 0x40 MSTORE DUP1 SWAP3 SWAP2 SWAP1 DUP2 DUP2 MSTORE PUSH1 0x20 ADD DUP3 DUP1 SLOAD PUSH2 0x390 SWAP1 PUSH2 0x638 JUMP JUMPDEST DUP1 ISZERO PUSH2 0x3DD JUMPI DUP1 PUSH1 0x1F LT PUSH2 0x3B2 JUMPI PUSH2 0x100 DUP1 DUP4 SLOAD DIV MUL DUP4 MSTORE SWAP2 PUSH1 0x20 ADD SWAP2 PUSH2 0x3DD JUMP JUMPDEST DUP3 ADD SWAP2 SWAP1 PUSH1 0x0 MSTORE PUSH1 0x20 PUSH1 0x0 KECCAK256 SWAP1 JUMPDEST DUP2 SLOAD DUP2 MSTORE SWAP1 PUSH1 0x1 ADD SWAP1 PUSH1 0x20 ADD DUP1 DUP4 GT PUSH2 0x3C0 JUMPI DUP3 SWAP1 SUB PUSH1 0x1F AND DUP3 ADD SWAP2 JUMPDEST POP POP POP POP POP DUP2 JUMP JUMPDEST PUSH1 0x0 DUP1 REVERT JUMPDEST PUSH1 0x0 DUP1 REVERT JUMPDEST PUSH1 0x0 DUP1 REVERT JUMPDEST PUSH1 0x0 DUP1 REVERT JUMPDEST PUSH1 0x0 DUP1 REVERT JUMPDEST PUSH1 0x0 DUP1 DUP4 PUSH1 0x1F DUP5 ADD SLT PUSH2 0x414 JUMPI PUSH2 0x413 PUSH2 0x3EF JUMP JUMPDEST JUMPDEST DUP3 CALLDATALOAD SWAP1 POP PUSH8 0xFFFFFFFFFFFFFFFF DUP2 GT ISZERO PUSH2 0x431 JUMPI PUSH2 0x430 PUSH2 0x3F4 JUMP JUMPDEST JUMPDEST PUSH1 0x20 DUP4 ADD SWAP2 POP DUP4 PUSH1 0x1 DUP3 MUL DUP4 ADD GT ISZERO PUSH2 0x44D JUMPI PUSH2 0x44C PUSH2 0x3F9 JUMP JUMPDEST JUMPDEST SWAP3 POP SWAP3 SWAP1 POP JUMP JUMPDEST PUSH1 0x0 DUP1 PUSH1 0x20 DUP4 DUP6 SUB SLT ISZERO PUSH2 0x46B JUMPI PUSH2 0x46A PUSH2 0x3E5 JUMP JUMPDEST JUMPDEST PUSH1 0x0 DUP4 ADD CALLDATALOAD PUSH8 0xFFFFFFFFFFFFFFFF DUP2 GT ISZERO PUSH2 0x489 JUMPI PUSH2 0x488 PUSH2 0x3EA JUMP JUMPDEST JUMPDEST PUSH2 0x495 DUP6 DUP3 DUP7 ADD PUSH2 0x3FE JUMP JUMPDEST SWAP3 POP SWAP3 POP POP SWAP3 POP SWAP3 SWAP1 POP JUMP JUMPDEST PUSH1 0x0 DUP2 MLOAD SWAP1 POP SWAP2 SWAP1 POP JUMP JUMPDEST PUSH1 0x0 DUP3 DUP3 MSTORE PUSH1 0x20 DUP3 ADD SWAP1 POP SWAP3 SWAP2 POP POP JUMP JUMPDEST PUSH1 0x0 JUMPDEST DUP4 DUP2 LT ISZERO PUSH2 0x4DB JUMPI DUP1 DUP3 ADD MLOAD DUP2 DUP5 ADD MSTORE PUSH1 0x20 DUP2 ADD SWAP1 POP PUSH2 0x4C0 JUMP JUMPDEST DUP4 DUP2 GT ISZERO PUSH2 0x4EA JUMPI PUSH1 0x0 DUP5 DUP5 ADD MSTORE JUMPDEST POP POP POP POP JUMP JUMPDEST PUSH1 0x0 PUSH1 0x1F NOT PUSH1 0x1F DUP4 ADD AND SWAP1 POP SWAP2 SWAP1 POP JUMP JUMPDEST PUSH1 0x0 PUSH2 0x50C DUP3 PUSH2 0x4A1 JUMP JUMPDEST PUSH2 0x516 DUP2 DUP6 PUSH2 0x4AC JUMP JUMPDEST SWAP4 POP PUSH2 0x526 DUP2 DUP6 PUSH1 0x20 DUP7 ADD PUSH2 0x4BD JUMP JUMPDEST PUSH2 0x52F DUP2 PUSH2 0x4F0 JUMP JUMPDEST DUP5 ADD SWAP2 POP POP SWAP3 SWAP2 POP POP JUMP JUMPDEST PUSH1 0x0 PUSH1 0x20 DUP3 ADD SWAP1 POP DUP2 DUP2 SUB PUSH1 0x0 DUP4 ADD MSTORE PUSH2 0x554 DUP2 DUP5 PUSH2 0x501 JUMP JUMPDEST SWAP1 POP SWAP3 SWAP2 POP POP JUMP JUMPDEST PUSH1 0x0 DUP2 ISZERO ISZERO SWAP1 POP SWAP2 SWAP1 POP JUMP JUMPDEST PUSH2 0x571 DUP2 PUSH2 0x55C JUMP JUMPDEST DUP3 MSTORE POP POP JUMP JUMPDEST PUSH1 0x0 PUSH1 0x20 DUP3 ADD SWAP1 POP PUSH2 0x58C PUSH1 0x0 DUP4 ADD DUP5 PUSH2 0x568 JUMP JUMPDEST SWAP3 SWAP2 POP POP JUMP JUMPDEST PUSH1 0x0 DUP2 MLOAD SWAP1 POP SWAP2 SWAP1 POP JUMP JUMPDEST PUSH1 0x0 DUP3 DUP3 MSTORE PUSH1 0x20 DUP3 ADD SWAP1 POP SWAP3 SWAP2 POP POP JUMP JUMPDEST PUSH1 0x0 PUSH2 0x5B9 DUP3 PUSH2 0x592 JUMP JUMPDEST PUSH2 0x5C3 DUP2 DUP6 PUSH2 0x59D JUMP JUMPDEST SWAP4 POP PUSH2 0x5D3 DUP2 DUP6 PUSH1 0x20 DUP7 ADD PUSH2 0x4BD JUMP JUMPDEST PUSH2 0x5DC DUP2 PUSH2 0x4F0 JUMP JUMPDEST DUP5 ADD SWAP2 POP POP SWAP3 SWAP2 POP POP JUMP JUMPDEST PUSH1 0x0 PUSH1 0x20 DUP3 ADD SWAP1 POP DUP2 DUP2 SUB PUSH1 0x0 DUP4 ADD MSTORE PUSH2 0x601 DUP2 DUP5 PUSH2 0x5AE JUMP JUMPDEST SWAP1 POP SWAP3 SWAP2 POP POP JUMP JUMPDEST PUSH32 0x4E487B7100000000000000000000000000000000000000000000000000000000 PUSH1 0x0 MSTORE PUSH1 0x22 PUSH1 0x4 MSTORE PUSH1 0x24 PUSH1 0x0 REVERT JUMPDEST PUSH1 0x0 PUSH1 0x2 DUP3 DIV SWAP1 POP PUSH1 0x1 DUP3 AND DUP1 PUSH2 0x650 JUMPI PUSH1 0x7F DUP3 AND SWAP2 POP JUMPDEST PUSH1 0x20 DUP3 LT DUP2 SUB PUSH2 0x663 JUMPI PUSH2 0x662 PUSH2 0x609 JUMP JUMPDEST JUMPDEST POP SWAP2 SWAP1 POP JUMP JUMPDEST PUSH1 0x0 DUP2 SWAP1 POP SWAP3 SWAP2 POP POP JUMP JUMPDEST PUSH1 0x0 DUP2 SWAP1 POP DUP2 PUSH1 0x0 MSTORE PUSH1 0x20 PUSH1 0x0 KECCAK256 SWAP1 POP SWAP2 SWAP1 POP JUMP JUMPDEST PUSH1 0x0 DUP2 SLOAD PUSH2 0x696 DUP2 PUSH2 0x638 JUMP JUMPDEST PUSH2 0x6A0 DUP2 DUP7 PUSH2 0x669 JUMP JUMPDEST SWAP5 POP PUSH1 0x1 DUP3 AND PUSH1 0x0 DUP2 EQ PUSH2 0x6BB JUMPI PUSH1 0x1 DUP2 EQ PUSH2 0x6D0 JUMPI PUSH2 0x703 JUMP JUMPDEST PUSH1 0xFF NOT DUP4 AND DUP7 MSTORE DUP2 ISZERO ISZERO DUP3 MUL DUP7 ADD SWAP4 POP PUSH2 0x703 JUMP JUMPDEST PUSH2 0x6D9 DUP6 PUSH2 0x674 JUMP JUMPDEST PUSH1 0x0 JUMPDEST DUP4 DUP2 LT ISZERO PUSH2 0x6FB JUMPI DUP2 SLOAD DUP2 DUP10 ADD MSTORE PUSH1 0x1 DUP3 ADD SWAP2 POP PUSH1 0x20 DUP2 ADD SWAP1 POP PUSH2 0x6DC JUMP JUMPDEST DUP4 DUP9 ADD SWAP6 POP POP POP JUMPDEST POP POP POP SWAP3 SWAP2 POP POP JUMP JUMPDEST DUP3 DUP2 DUP4 CALLDATACOPY PUSH1 0x0 DUP4 DUP4 ADD MSTORE POP POP POP JUMP JUMPDEST PUSH1 0x0 PUSH2 0x727 DUP4 DUP6 PUSH2 0x669 JUMP JUMPDEST SWAP4 POP PUSH2 0x734 DUP4 DUP6 DUP5 PUSH2 0x70C JUMP JUMPDEST DUP3 DUP5 ADD SWAP1 POP SWAP4 SWAP3 POP POP POP JUMP JUMPDEST PUSH1 0x0 PUSH2 0x74C DUP3 DUP7 PUSH2 0x689 JUMP JUMPDEST SWAP2 POP PUSH2 0x759 DUP3 DUP5 DUP7 PUSH2 0x71B JUMP JUMPDEST SWAP2 POP DUP2 SWAP1 POP SWAP5 SWAP4 POP POP POP POP JUMP INVALID LOG2 PUSH5 0x6970667358 0x22 SLT KECCAK256 RETURN CREATE 0xB2 PUSH20 0xC528463E0A39B2B6431F62C59BC8A23E4CF829AF SWAP16 DUP15 SMOD 0xC9 0xEC 0xB6 PUSH8 0xAD64736F6C634300 ADDMOD 0xF STOP CALLER "
				},
				"gasEstimates": {
					"creation": {
						"codeDepositCost": "389600",
						"executionCost": "infinite",
						"totalCost": "infinite"
					},
					"external": {
						"b1()": "infinite",
						"equal()": "2494",
						"greet()": "infinite",
						"isEqual()": "357",
						"s1()": "infinite",
						"s2()": "infinite",
						"str(string)": "infinite"
					}
				},
				"methodIdentifiers": {
					"b1()": "ee495002",
					"equal()": "1e228514",
					"greet()": "cfae3217",
					"isEqual()": "acbe8452",
					"s1()": "6cc014de",
					"s2()": "a314150f",
					"str(string)": "09fca94f"
				}
			},
			"storageLayout": {
				"storage": [
					{
						"astId": 4,
						"contract": "study/chapter07/stirngOpt.sol:Hello",
						"label": "greet",
						"offset": 0,
						"slot": "0",
						"type": "t_string_storage"
					},
					{
						"astId": 31,
						"contract": "study/chapter07/stirngOpt.sol:Hello",
						"label": "s1",
						"offset": 0,
						"slot": "1",
						"type": "t_string_storage"
					},
					{
						"astId": 34,
						"contract": "study/chapter07/stirngOpt.sol:Hello",
						"label": "s2",
						"offset": 0,
						"slot": "2",
						"type": "t_string_storage"
					},
					{
						"astId": 40,
						"contract": "study/chapter07/stirngOpt.sol:Hello",
						"label": "b1",
						"offset": 0,
						"slot": "3",
						"type": "t_bytes_storage"
					},
					{
						"astId": 42,
						"contract": "study/chapter07/stirngOpt.sol:Hello",
						"label": "equal",
						"offset": 0,
						"slot": "4",
						"type": "t_bool"
					}
				],
				"types": {
					"t_bool": {
						"encoding": "inplace",
						"label": "bool",
						"numberOfBytes": "1"
					},
					"t_bytes_storage": {
						"encoding": "bytes",
						"label": "bytes",
						"numberOfBytes": "32"
					},
					"t_string_storage": {
						"encoding": "bytes",
						"label": "string",
						"numberOfBytes": "32"
					}
				}
			},
			"userdoc": {
				"kind": "user",
				"methods": {},
				"version": 1
			}
		}
	}
}