{
	"code93/1payable.sol": {
		"PayAble": {
			"abi": [
				{
					"inputs": [],
					"name": "desposit",
					"outputs": [],
					"stateMutability": "payable",
					"type": "function"
				}
			],
			"devdoc": {
				"kind": "dev",
				"methods": {},
				"version": 1
			},
			"evm": {
				"assembly": "    /* \"code93/1payable.sol\":54:132  contract PayAble{... */\n  mstore(0x40, 0x80)\n  callvalue\n  dup1\n  iszero\n  tag_1\n  jumpi\n  0x00\n  dup1\n  revert\ntag_1:\n  pop\n  dataSize(sub_0)\n  dup1\n  dataOffset(sub_0)\n  0x00\n  codecopy\n  0x00\n  return\nstop\n\nsub_0: assembly {\n        /* \"code93/1payable.sol\":54:132  contract PayAble{... */\n      mstore(0x40, 0x80)\n      jumpi(tag_1, lt(calldatasize, 0x04))\n      shr(0xe0, calldataload(0x00))\n      dup1\n      0xb1197bae\n      eq\n      tag_2\n      jumpi\n    tag_1:\n      0x00\n      dup1\n      revert\n        /* \"code93/1payable.sol\":87:130  function desposit()external payable{... */\n    tag_2:\n      tag_3\n      tag_4\n      jump\t// in\n    tag_3:\n      stop\n    tag_4:\n      jump\t// out\n\n    auxdata: 0xa2646970667358221220d06fb4db353c86963da36f484d047ee618d8d9d5a890c830911440dbc8bbf96164736f6c63430008070033\n}\n",
				"bytecode": {
					"linkReferences": {},
					"object": "6080604052348015600f57600080fd5b50606180601d6000396000f3fe608060405260043610601c5760003560e01c8063b1197bae146021575b600080fd5b60276029565b005b56fea2646970667358221220d06fb4db353c86963da36f484d047ee618d8d9d5a890c830911440dbc8bbf96164736f6c63430008070033",
					"opcodes": "PUSH1 0x80 PUSH1 0x40 MSTORE CALLVALUE DUP1 ISZERO PUSH1 0xF JUMPI PUSH1 0x0 DUP1 REVERT JUMPDEST POP PUSH1 0x61 DUP1 PUSH1 0x1D PUSH1 0x0 CODECOPY PUSH1 0x0 RETURN INVALID PUSH1 0x80 PUSH1 0x40 MSTORE PUSH1 0x4 CALLDATASIZE LT PUSH1 0x1C JUMPI PUSH1 0x0 CALLDATALOAD PUSH1 0xE0 SHR DUP1 PUSH4 0xB1197BAE EQ PUSH1 0x21 JUMPI JUMPDEST PUSH1 0x0 DUP1 REVERT JUMPDEST PUSH1 0x27 PUSH1 0x29 JUMP JUMPDEST STOP JUMPDEST JUMP INVALID LOG2 PUSH5 0x6970667358 0x22 SLT KECCAK256 0xD0 PUSH16 0xB4DB353C86963DA36F484D047EE618D8 0xD9 0xD5 0xA8 SWAP1 0xC8 ADDRESS SWAP2 EQ BLOCKHASH 0xDB 0xC8 0xBB 0xF9 PUSH2 0x6473 PUSH16 0x6C634300080700330000000000000000 "
				},
				"deployedBytecode": {
					"immutableReferences": {},
					"linkReferences": {},
					"object": "608060405260043610601c5760003560e01c8063b1197bae146021575b600080fd5b60276029565b005b56fea2646970667358221220d06fb4db353c86963da36f484d047ee618d8d9d5a890c830911440dbc8bbf96164736f6c63430008070033",
					"opcodes": "PUSH1 0x80 PUSH1 0x40 MSTORE PUSH1 0x4 CALLDATASIZE LT PUSH1 0x1C JUMPI PUSH1 0x0 CALLDATALOAD PUSH1 0xE0 SHR DUP1 PUSH4 0xB1197BAE EQ PUSH1 0x21 JUMPI JUMPDEST PUSH1 0x0 DUP1 REVERT JUMPDEST PUSH1 0x27 PUSH1 0x29 JUMP JUMPDEST STOP JUMPDEST JUMP INVALID LOG2 PUSH5 0x6970667358 0x22 SLT KECCAK256 0xD0 PUSH16 0xB4DB353C86963DA36F484D047EE618D8 0xD9 0xD5 0xA8 SWAP1 0xC8 ADDRESS SWAP2 EQ BLOCKHASH 0xDB 0xC8 0xBB 0xF9 PUSH2 0x6473 PUSH16 0x6C634300080700330000000000000000 "
				},
				"gasEstimates": {
					"creation": {
						"codeDepositCost": "19400",
						"executionCost": "75",
						"totalCost": "19475"
					},
					"external": {
						"desposit()": "98"
					}
				},
				"methodIdentifiers": {
					"desposit()": "b1197bae"
				}
			},
			"storageLayout": {
				"storage": [],
				"types": null
			},
			"userdoc": {
				"kind": "user",
				"methods": {},
				"version": 1
			}
		}
	}
}