{
	"code93/1payable.sol": {
		"PayAble": {
			"abi": [
				{
					"inputs": [],
					"name": "desposit",
					"outputs": [],
					"stateMutability": "payable",
					"type": "function"
				}
			],
			"devdoc": {
				"kind": "dev",
				"methods": {},
				"version": 1
			},
			"evm": {
				"assembly": "    /* \"code93/1payable.sol\":54:136  contract PayAble{... */\n  mstore(0x40, 0x80)\n  callvalue\n  dup1\n  iszero\n  tag_1\n  jumpi\n  0x00\n  dup1\n  revert\ntag_1:\n  pop\n  dataSize(sub_0)\n  dup1\n  dataOffset(sub_0)\n  0x00\n  codecopy\n  0x00\n  return\nstop\n\nsub_0: assembly {\n        /* \"code93/1payable.sol\":54:136  contract PayAble{... */\n      mstore(0x40, 0x80)\n      jumpi(tag_1, lt(calldatasize, 0x04))\n      shr(0xe0, calldataload(0x00))\n      dup1\n      0xb1197bae\n      eq\n      tag_2\n      jumpi\n    tag_1:\n      0x00\n      dup1\n      revert\n        /* \"code93/1payable.sol\":91:134  function desposit()external payable{... */\n    tag_2:\n      tag_3\n      tag_4\n      jump\t// in\n    tag_3:\n      stop\n    tag_4:\n      jump\t// out\n\n    auxdata: 0xa2646970667358221220c11f0de8496704bf4eea5273668adaa815ba18d7079fc0a826f47c85bc332f0864736f6c63430008070033\n}\n",
				"bytecode": {
					"linkReferences": {},
					"object": "6080604052348015600f57600080fd5b50606180601d6000396000f3fe608060405260043610601c5760003560e01c8063b1197bae146021575b600080fd5b60276029565b005b56fea2646970667358221220c11f0de8496704bf4eea5273668adaa815ba18d7079fc0a826f47c85bc332f0864736f6c63430008070033",
					"opcodes": "PUSH1 0x80 PUSH1 0x40 MSTORE CALLVALUE DUP1 ISZERO PUSH1 0xF JUMPI PUSH1 0x0 DUP1 REVERT JUMPDEST POP PUSH1 0x61 DUP1 PUSH1 0x1D PUSH1 0x0 CODECOPY PUSH1 0x0 RETURN INVALID PUSH1 0x80 PUSH1 0x40 MSTORE PUSH1 0x4 CALLDATASIZE LT PUSH1 0x1C JUMPI PUSH1 0x0 CALLDATALOAD PUSH1 0xE0 SHR DUP1 PUSH4 0xB1197BAE EQ PUSH1 0x21 JUMPI JUMPDEST PUSH1 0x0 DUP1 REVERT JUMPDEST PUSH1 0x27 PUSH1 0x29 JUMP JUMPDEST STOP JUMPDEST JUMP INVALID LOG2 PUSH5 0x6970667358 0x22 SLT KECCAK256 0xC1 0x1F 0xD 0xE8 0x49 PUSH8 0x4BF4EEA5273668A 0xDA 0xA8 ISZERO 0xBA XOR 0xD7 SMOD SWAP16 0xC0 0xA8 0x26 DELEGATECALL PUSH29 0x85BC332F0864736F6C6343000807003300000000000000000000000000 "
				},
				"deployedBytecode": {
					"immutableReferences": {},
					"linkReferences": {},
					"object": "608060405260043610601c5760003560e01c8063b1197bae146021575b600080fd5b60276029565b005b56fea2646970667358221220c11f0de8496704bf4eea5273668adaa815ba18d7079fc0a826f47c85bc332f0864736f6c63430008070033",
					"opcodes": "PUSH1 0x80 PUSH1 0x40 MSTORE PUSH1 0x4 CALLDATASIZE LT PUSH1 0x1C JUMPI PUSH1 0x0 CALLDATALOAD PUSH1 0xE0 SHR DUP1 PUSH4 0xB1197BAE EQ PUSH1 0x21 JUMPI JUMPDEST PUSH1 0x0 DUP1 REVERT JUMPDEST PUSH1 0x27 PUSH1 0x29 JUMP JUMPDEST STOP JUMPDEST JUMP INVALID LOG2 PUSH5 0x6970667358 0x22 SLT KECCAK256 0xC1 0x1F 0xD 0xE8 0x49 PUSH8 0x4BF4EEA5273668A 0xDA 0xA8 ISZERO 0xBA XOR 0xD7 SMOD SWAP16 0xC0 0xA8 0x26 DELEGATECALL PUSH29 0x85BC332F0864736F6C6343000807003300000000000000000000000000 "
				},
				"gasEstimates": {
					"creation": {
						"codeDepositCost": "19400",
						"executionCost": "75",
						"totalCost": "19475"
					},
					"external": {
						"desposit()": "98"
					}
				},
				"methodIdentifiers": {
					"desposit()": "b1197bae"
				}
			},
			"storageLayout": {
				"storage": [],
				"types": null
			},
			"userdoc": {
				"kind": "user",
				"methods": {},
				"version": 1
			}
		}
	}
}