{
	"code93/3sendEth.sol": {
		"SendEth": {
			"abi": [
				{
					"inputs": [],
					"stateMutability": "payable",
					"type": "constructor"
				},
				{
					"inputs": [
						{
							"internalType": "address payable",
							"name": "_to",
							"type": "address"
						}
					],
					"name": "sendViaCall",
					"outputs": [],
					"stateMutability": "nonpayable",
					"type": "function"
				},
				{
					"inputs": [
						{
							"internalType": "address payable",
							"name": "_to",
							"type": "address"
						}
					],
					"name": "sendViaSend",
					"outputs": [],
					"stateMutability": "nonpayable",
					"type": "function"
				},
				{
					"inputs": [
						{
							"internalType": "address payable",
							"name": "_to",
							"type": "address"
						}
					],
					"name": "sendViaTransfer",
					"outputs": [],
					"stateMutability": "payable",
					"type": "function"
				},
				{
					"stateMutability": "payable",
					"type": "receive"
				}
			],
			"devdoc": {
				"kind": "dev",
				"methods": {},
				"version": 1
			},
			"evm": {
				"assembly": "    /* \"code93/3sendEth.sol\":54:324  contract SendEth{... */\n  mstore(0x40, 0x80)\n  dataSize(sub_0)\n  dup1\n  dataOffset(sub_0)\n  0x00\n  codecopy\n  0x00\n  return\nstop\n\nsub_0: assembly {\n        /* \"code93/3sendEth.sol\":54:324  contract SendEth{... */\n      mstore(0x40, 0x80)\n      jumpi(tag_1, lt(calldatasize, 0x04))\n      shr(0xe0, calldataload(0x00))\n      dup1\n      0x636e082b\n      eq\n      tag_3\n      jumpi\n      dup1\n      0x74be4806\n      eq\n      tag_4\n      jumpi\n      dup1\n      0x830c29ae\n      eq\n      tag_5\n      jumpi\n      jump(tag_2)\n    tag_1:\n      jumpi(tag_2, calldatasize)\n      stop\n    tag_2:\n      0x00\n      dup1\n      revert\n        /* \"code93/3sendEth.sol\":143:207  function sendViaTransfer(address payable _to)external payable {} */\n    tag_3:\n      tag_8\n      0x04\n      dup1\n      calldatasize\n      sub\n      dup2\n      add\n      swap1\n      tag_9\n      swap2\n      swap1\n      tag_10\n      jump\t// in\n    tag_9:\n      tag_11\n      jump\t// in\n    tag_8:\n      stop\n        /* \"code93/3sendEth.sol\":212:264  function sendViaSend(address payable _to)external {} */\n    tag_4:\n      callvalue\n      dup1\n      iszero\n      tag_12\n      jumpi\n      0x00\n      dup1\n      revert\n    tag_12:\n      pop\n      tag_13\n      0x04\n      dup1\n      calldatasize\n      sub\n      dup2\n      add\n      swap1\n      tag_14\n      swap2\n      swap1\n      tag_10\n      jump\t// in\n    tag_14:\n      tag_15\n      jump\t// in\n    tag_13:\n      stop\n        /* \"code93/3sendEth.sol\":269:321  function sendViaCall(address payable _to)external {} */\n    tag_5:\n      callvalue\n      dup1\n      iszero\n      tag_16\n      jumpi\n      0x00\n      dup1\n      revert\n    tag_16:\n      pop\n      tag_17\n      0x04\n      dup1\n      calldatasize\n      sub\n      dup2\n      add\n      swap1\n      tag_18\n      swap2\n      swap1\n      tag_10\n      jump\t// in\n    tag_18:\n      tag_19\n      jump\t// in\n    tag_17:\n      stop\n        /* \"code93/3sendEth.sol\":143:207  function sendViaTransfer(address payable _to)external payable {} */\n    tag_11:\n      pop\n      jump\t// out\n        /* \"code93/3sendEth.sol\":212:264  function sendViaSend(address payable _to)external {} */\n    tag_15:\n      pop\n      jump\t// out\n        /* \"code93/3sendEth.sol\":269:321  function sendViaCall(address payable _to)external {} */\n    tag_19:\n      pop\n      jump\t// out\n        /* \"#utility.yul\":7:162   */\n    tag_24:\n        /* \"#utility.yul\":61:66   */\n      0x00\n        /* \"#utility.yul\":99:105   */\n      dup2\n        /* \"#utility.yul\":86:106   */\n      calldataload\n        /* \"#utility.yul\":77:106   */\n      swap1\n      pop\n        /* \"#utility.yul\":115:156   */\n      tag_26\n        /* \"#utility.yul\":150:155   */\n      dup2\n        /* \"#utility.yul\":115:156   */\n      tag_27\n      jump\t// in\n    tag_26:\n        /* \"#utility.yul\":7:162   */\n      swap3\n      swap2\n      pop\n      pop\n      jump\t// out\n        /* \"#utility.yul\":168:513   */\n    tag_10:\n        /* \"#utility.yul\":235:241   */\n      0x00\n        /* \"#utility.yul\":284:286   */\n      0x20\n        /* \"#utility.yul\":272:281   */\n      dup3\n        /* \"#utility.yul\":263:270   */\n      dup5\n        /* \"#utility.yul\":259:282   */\n      sub\n        /* \"#utility.yul\":255:287   */\n      slt\n        /* \"#utility.yul\":252:371   */\n      iszero\n      tag_29\n      jumpi\n        /* \"#utility.yul\":290:369   */\n      tag_30\n      tag_31\n      jump\t// in\n    tag_30:\n        /* \"#utility.yul\":252:371   */\n    tag_29:\n        /* \"#utility.yul\":410:411   */\n      0x00\n        /* \"#utility.yul\":435:496   */\n      tag_32\n        /* \"#utility.yul\":488:495   */\n      dup5\n        /* \"#utility.yul\":479:485   */\n      dup3\n        /* \"#utility.yul\":468:477   */\n      dup6\n        /* \"#utility.yul\":464:486   */\n      add\n        /* \"#utility.yul\":435:496   */\n      tag_24\n      jump\t// in\n    tag_32:\n        /* \"#utility.yul\":425:496   */\n      swap2\n      pop\n        /* \"#utility.yul\":381:506   */\n      pop\n        /* \"#utility.yul\":168:513   */\n      swap3\n      swap2\n      pop\n      pop\n      jump\t// out\n        /* \"#utility.yul\":600:704   */\n    tag_35:\n        /* \"#utility.yul\":645:652   */\n      0x00\n        /* \"#utility.yul\":674:698   */\n      tag_37\n        /* \"#utility.yul\":692:697   */\n      dup3\n        /* \"#utility.yul\":674:698   */\n      tag_38\n      jump\t// in\n    tag_37:\n        /* \"#utility.yul\":663:698   */\n      swap1\n      pop\n        /* \"#utility.yul\":600:704   */\n      swap2\n      swap1\n      pop\n      jump\t// out\n        /* \"#utility.yul\":710:836   */\n    tag_38:\n        /* \"#utility.yul\":747:754   */\n      0x00\n        /* \"#utility.yul\":787:829   */\n      0xffffffffffffffffffffffffffffffffffffffff\n        /* \"#utility.yul\":780:785   */\n      dup3\n        /* \"#utility.yul\":776:830   */\n      and\n        /* \"#utility.yul\":765:830   */\n      swap1\n      pop\n        /* \"#utility.yul\":710:836   */\n      swap2\n      swap1\n      pop\n      jump\t// out\n        /* \"#utility.yul\":965:1082   */\n    tag_31:\n        /* \"#utility.yul\":1074:1075   */\n      0x00\n        /* \"#utility.yul\":1071:1072   */\n      dup1\n        /* \"#utility.yul\":1064:1076   */\n      revert\n        /* \"#utility.yul\":1088:1226   */\n    tag_27:\n        /* \"#utility.yul\":1169:1201   */\n      tag_44\n        /* \"#utility.yul\":1195:1200   */\n      dup2\n        /* \"#utility.yul\":1169:1201   */\n      tag_35\n      jump\t// in\n    tag_44:\n        /* \"#utility.yul\":1162:1167   */\n      dup2\n        /* \"#utility.yul\":1159:1202   */\n      eq\n        /* \"#utility.yul\":1149:1220   */\n      tag_45\n      jumpi\n        /* \"#utility.yul\":1216:1217   */\n      0x00\n        /* \"#utility.yul\":1213:1214   */\n      dup1\n        /* \"#utility.yul\":1206:1218   */\n      revert\n        /* \"#utility.yul\":1149:1220   */\n    tag_45:\n        /* \"#utility.yul\":1088:1226   */\n      pop\n      jump\t// out\n\n    auxdata: 0xa2646970667358221220d00d2d265c9b9df96c713f39fd6befecefdfd7f74384819bc8f5de6acc34f38e64736f6c63430008070033\n}\n",
				"bytecode": {
					"linkReferences": {},
					"object": "6080604052610181806100136000396000f3fe6080604052600436106100385760003560e01c8063636e082b1461004457806374be480614610060578063830c29ae146100895761003f565b3661003f57005b600080fd5b61005e600480360381019061005991906100d0565b6100b2565b005b34801561006c57600080fd5b50610087600480360381019061008291906100d0565b6100b5565b005b34801561009557600080fd5b506100b060048036038101906100ab91906100d0565b6100b8565b005b50565b50565b50565b6000813590506100ca81610134565b92915050565b6000602082840312156100e6576100e561012f565b5b60006100f4848285016100bb565b91505092915050565b60006101088261010f565b9050919050565b600073ffffffffffffffffffffffffffffffffffffffff82169050919050565b600080fd5b61013d816100fd565b811461014857600080fd5b5056fea2646970667358221220d00d2d265c9b9df96c713f39fd6befecefdfd7f74384819bc8f5de6acc34f38e64736f6c63430008070033",
					"opcodes": "PUSH1 0x80 PUSH1 0x40 MSTORE PUSH2 0x181 DUP1 PUSH2 0x13 PUSH1 0x0 CODECOPY PUSH1 0x0 RETURN INVALID PUSH1 0x80 PUSH1 0x40 MSTORE PUSH1 0x4 CALLDATASIZE LT PUSH2 0x38 JUMPI PUSH1 0x0 CALLDATALOAD PUSH1 0xE0 SHR DUP1 PUSH4 0x636E082B EQ PUSH2 0x44 JUMPI DUP1 PUSH4 0x74BE4806 EQ PUSH2 0x60 JUMPI DUP1 PUSH4 0x830C29AE EQ PUSH2 0x89 JUMPI PUSH2 0x3F JUMP JUMPDEST CALLDATASIZE PUSH2 0x3F JUMPI STOP JUMPDEST PUSH1 0x0 DUP1 REVERT JUMPDEST PUSH2 0x5E PUSH1 0x4 DUP1 CALLDATASIZE SUB DUP2 ADD SWAP1 PUSH2 0x59 SWAP2 SWAP1 PUSH2 0xD0 JUMP JUMPDEST PUSH2 0xB2 JUMP JUMPDEST STOP JUMPDEST CALLVALUE DUP1 ISZERO PUSH2 0x6C JUMPI PUSH1 0x0 DUP1 REVERT JUMPDEST POP PUSH2 0x87 PUSH1 0x4 DUP1 CALLDATASIZE SUB DUP2 ADD SWAP1 PUSH2 0x82 SWAP2 SWAP1 PUSH2 0xD0 JUMP JUMPDEST PUSH2 0xB5 JUMP JUMPDEST STOP JUMPDEST CALLVALUE DUP1 ISZERO PUSH2 0x95 JUMPI PUSH1 0x0 DUP1 REVERT JUMPDEST POP PUSH2 0xB0 PUSH1 0x4 DUP1 CALLDATASIZE SUB DUP2 ADD SWAP1 PUSH2 0xAB SWAP2 SWAP1 PUSH2 0xD0 JUMP JUMPDEST PUSH2 0xB8 JUMP JUMPDEST STOP JUMPDEST POP JUMP JUMPDEST POP JUMP JUMPDEST POP JUMP JUMPDEST PUSH1 0x0 DUP2 CALLDATALOAD SWAP1 POP PUSH2 0xCA DUP2 PUSH2 0x134 JUMP JUMPDEST SWAP3 SWAP2 POP POP JUMP JUMPDEST PUSH1 0x0 PUSH1 0x20 DUP3 DUP5 SUB SLT ISZERO PUSH2 0xE6 JUMPI PUSH2 0xE5 PUSH2 0x12F JUMP JUMPDEST JUMPDEST PUSH1 0x0 PUSH2 0xF4 DUP5 DUP3 DUP6 ADD PUSH2 0xBB JUMP JUMPDEST SWAP2 POP POP SWAP3 SWAP2 POP POP JUMP JUMPDEST PUSH1 0x0 PUSH2 0x108 DUP3 PUSH2 0x10F JUMP JUMPDEST SWAP1 POP SWAP2 SWAP1 POP JUMP JUMPDEST PUSH1 0x0 PUSH20 0xFFFFFFFFFFFFFFFFFFFFFFFFFFFFFFFFFFFFFFFF DUP3 AND SWAP1 POP SWAP2 SWAP1 POP JUMP JUMPDEST PUSH1 0x0 DUP1 REVERT JUMPDEST PUSH2 0x13D DUP2 PUSH2 0xFD JUMP JUMPDEST DUP2 EQ PUSH2 0x148 JUMPI PUSH1 0x0 DUP1 REVERT JUMPDEST POP JUMP INVALID LOG2 PUSH5 0x6970667358 0x22 SLT KECCAK256 0xD0 0xD 0x2D 0x26 0x5C SWAP12 SWAP14 0xF9 PUSH13 0x713F39FD6BEFECEFDFD7F74384 DUP2 SWAP12 0xC8 CREATE2 0xDE PUSH11 0xCC34F38E64736F6C634300 ADDMOD SMOD STOP CALLER "
				},
				"gasEstimates": {
					"creation": {
						"codeDepositCost": "77000",
						"executionCost": "105",
						"totalCost": "77105"
					},
					"external": {
						"sendViaCall(address)": "477",
						"sendViaSend(address)": "455",
						"sendViaTransfer(address)": "409"
					}
				},
				"methodIdentifiers": {
					"sendViaCall(address)": "830c29ae",
					"sendViaSend(address)": "74be4806",
					"sendViaTransfer(address)": "636e082b"
				}
			},
			"storageLayout": {
				"storage": [],
				"types": null
			},
			"userdoc": {
				"kind": "user",
				"methods": {},
				"version": 1
			}
		}
	}
}