{
	"code93/2Fallback.sol": {
		"SendEth": {
			"abi": [
				{
					"inputs": [],
					"stateMutability": "payable",
					"type": "constructor"
				},
				{
					"inputs": [],
					"name": "getBalance",
					"outputs": [
						{
							"internalType": "uint256",
							"name": "",
							"type": "uint256"
						}
					],
					"stateMutability": "view",
					"type": "function"
				},
				{
					"inputs": [
						{
							"internalType": "address payable",
							"name": "_to",
							"type": "address"
						}
					],
					"name": "sendViaTransfer",
					"outputs": [],
					"stateMutability": "payable",
					"type": "function"
				},
				{
					"stateMutability": "payable",
					"type": "receive"
				}
			],
			"devdoc": {
				"kind": "dev",
				"methods": {},
				"version": 1
			},
			"evm": {
				"assembly": "    /* \"code93/2Fallback.sol\":689:992  contract SendEth{... */\n  mstore(0x40, 0x80)\n  dataSize(sub_0)\n  dup1\n  dataOffset(sub_0)\n  0x00\n  codecopy\n  0x00\n  return\nstop\n\nsub_0: assembly {\n        /* \"code93/2Fallback.sol\":689:992  contract SendEth{... */\n      mstore(0x40, 0x80)\n      jumpi(tag_1, lt(calldatasize, 0x04))\n      shr(0xe0, calldataload(0x00))\n      dup1\n      0x12065fe0\n      eq\n      tag_3\n      jumpi\n      dup1\n      0x636e082b\n      eq\n      tag_4\n      jumpi\n      jump(tag_2)\n    tag_1:\n      jumpi(tag_2, calldatasize)\n      stop\n    tag_2:\n      0x00\n      dup1\n      revert\n        /* \"code93/2Fallback.sol\":897:990  function getBalance()external view returns(uint){... */\n    tag_3:\n      callvalue\n      dup1\n      iszero\n      tag_7\n      jumpi\n      0x00\n      dup1\n      revert\n    tag_7:\n      pop\n      tag_8\n      tag_9\n      jump\t// in\n    tag_8:\n      mload(0x40)\n      tag_10\n      swap2\n      swap1\n      tag_11\n      jump\t// in\n    tag_10:\n      mload(0x40)\n      dup1\n      swap2\n      sub\n      swap1\n      return\n        /* \"code93/2Fallback.sol\":778:892  function sendViaTransfer(address payable _to)external payable {... */\n    tag_4:\n      tag_12\n      0x04\n      dup1\n      calldatasize\n      sub\n      dup2\n      add\n      swap1\n      tag_13\n      swap2\n      swap1\n      tag_14\n      jump\t// in\n    tag_13:\n      tag_15\n      jump\t// in\n    tag_12:\n      stop\n        /* \"code93/2Fallback.sol\":897:990  function getBalance()external view returns(uint){... */\n    tag_9:\n        /* \"code93/2Fallback.sol\":940:944  uint */\n      0x00\n        /* \"code93/2Fallback.sol\":962:983  address(this).balance */\n      selfbalance\n        /* \"code93/2Fallback.sol\":955:983  return address(this).balance */\n      swap1\n      pop\n        /* \"code93/2Fallback.sol\":897:990  function getBalance()external view returns(uint){... */\n      swap1\n      jump\t// out\n        /* \"code93/2Fallback.sol\":778:892  function sendViaTransfer(address payable _to)external payable {... */\n    tag_15:\n        /* \"code93/2Fallback.sol\":850:853  _to */\n      dup1\n        /* \"code93/2Fallback.sol\":850:862  _to.transfer */\n      0xffffffffffffffffffffffffffffffffffffffff\n      and\n        /* \"code93/2Fallback.sol\":850:865  _to.transfer(1) */\n      0x08fc\n        /* \"code93/2Fallback.sol\":863:864  1 */\n      0x01\n        /* \"code93/2Fallback.sol\":850:865  _to.transfer(1) */\n      swap1\n      dup2\n      iszero\n      mul\n      swap1\n      mload(0x40)\n      0x00\n      mload(0x40)\n      dup1\n      dup4\n      sub\n      dup2\n      dup6\n      dup9\n      dup9\n      call\n      swap4\n      pop\n      pop\n      pop\n      pop\n      iszero\n      dup1\n      iszero\n      tag_19\n      jumpi\n      returndatasize\n      0x00\n      dup1\n      returndatacopy\n      revert(0x00, returndatasize)\n    tag_19:\n      pop\n        /* \"code93/2Fallback.sol\":778:892  function sendViaTransfer(address payable _to)external payable {... */\n      pop\n      jump\t// out\n        /* \"#utility.yul\":7:162   */\n    tag_21:\n        /* \"#utility.yul\":61:66   */\n      0x00\n        /* \"#utility.yul\":99:105   */\n      dup2\n        /* \"#utility.yul\":86:106   */\n      calldataload\n        /* \"#utility.yul\":77:106   */\n      swap1\n      pop\n        /* \"#utility.yul\":115:156   */\n      tag_23\n        /* \"#utility.yul\":150:155   */\n      dup2\n        /* \"#utility.yul\":115:156   */\n      tag_24\n      jump\t// in\n    tag_23:\n        /* \"#utility.yul\":7:162   */\n      swap3\n      swap2\n      pop\n      pop\n      jump\t// out\n        /* \"#utility.yul\":168:513   */\n    tag_14:\n        /* \"#utility.yul\":235:241   */\n      0x00\n        /* \"#utility.yul\":284:286   */\n      0x20\n        /* \"#utility.yul\":272:281   */\n      dup3\n        /* \"#utility.yul\":263:270   */\n      dup5\n        /* \"#utility.yul\":259:282   */\n      sub\n        /* \"#utility.yul\":255:287   */\n      slt\n        /* \"#utility.yul\":252:371   */\n      iszero\n      tag_26\n      jumpi\n        /* \"#utility.yul\":290:369   */\n      tag_27\n      tag_28\n      jump\t// in\n    tag_27:\n        /* \"#utility.yul\":252:371   */\n    tag_26:\n        /* \"#utility.yul\":410:411   */\n      0x00\n        /* \"#utility.yul\":435:496   */\n      tag_29\n        /* \"#utility.yul\":488:495   */\n      dup5\n        /* \"#utility.yul\":479:485   */\n      dup3\n        /* \"#utility.yul\":468:477   */\n      dup6\n        /* \"#utility.yul\":464:486   */\n      add\n        /* \"#utility.yul\":435:496   */\n      tag_21\n      jump\t// in\n    tag_29:\n        /* \"#utility.yul\":425:496   */\n      swap2\n      pop\n        /* \"#utility.yul\":381:506   */\n      pop\n        /* \"#utility.yul\":168:513   */\n      swap3\n      swap2\n      pop\n      pop\n      jump\t// out\n        /* \"#utility.yul\":519:637   */\n    tag_30:\n        /* \"#utility.yul\":606:630   */\n      tag_32\n        /* \"#utility.yul\":624:629   */\n      dup2\n        /* \"#utility.yul\":606:630   */\n      tag_33\n      jump\t// in\n    tag_32:\n        /* \"#utility.yul\":601:604   */\n      dup3\n        /* \"#utility.yul\":594:631   */\n      mstore\n        /* \"#utility.yul\":519:637   */\n      pop\n      pop\n      jump\t// out\n        /* \"#utility.yul\":643:865   */\n    tag_11:\n        /* \"#utility.yul\":736:740   */\n      0x00\n        /* \"#utility.yul\":774:776   */\n      0x20\n        /* \"#utility.yul\":763:772   */\n      dup3\n        /* \"#utility.yul\":759:777   */\n      add\n        /* \"#utility.yul\":751:777   */\n      swap1\n      pop\n        /* \"#utility.yul\":787:858   */\n      tag_35\n        /* \"#utility.yul\":855:856   */\n      0x00\n        /* \"#utility.yul\":844:853   */\n      dup4\n        /* \"#utility.yul\":840:857   */\n      add\n        /* \"#utility.yul\":831:837   */\n      dup5\n        /* \"#utility.yul\":787:858   */\n      tag_30\n      jump\t// in\n    tag_35:\n        /* \"#utility.yul\":643:865   */\n      swap3\n      swap2\n      pop\n      pop\n      jump\t// out\n        /* \"#utility.yul\":952:1056   */\n    tag_38:\n        /* \"#utility.yul\":997:1004   */\n      0x00\n        /* \"#utility.yul\":1026:1050   */\n      tag_40\n        /* \"#utility.yul\":1044:1049   */\n      dup3\n        /* \"#utility.yul\":1026:1050   */\n      tag_41\n      jump\t// in\n    tag_40:\n        /* \"#utility.yul\":1015:1050   */\n      swap1\n      pop\n        /* \"#utility.yul\":952:1056   */\n      swap2\n      swap1\n      pop\n      jump\t// out\n        /* \"#utility.yul\":1062:1188   */\n    tag_41:\n        /* \"#utility.yul\":1099:1106   */\n      0x00\n        /* \"#utility.yul\":1139:1181   */\n      0xffffffffffffffffffffffffffffffffffffffff\n        /* \"#utility.yul\":1132:1137   */\n      dup3\n        /* \"#utility.yul\":1128:1182   */\n      and\n        /* \"#utility.yul\":1117:1182   */\n      swap1\n      pop\n        /* \"#utility.yul\":1062:1188   */\n      swap2\n      swap1\n      pop\n      jump\t// out\n        /* \"#utility.yul\":1194:1271   */\n    tag_33:\n        /* \"#utility.yul\":1231:1238   */\n      0x00\n        /* \"#utility.yul\":1260:1265   */\n      dup2\n        /* \"#utility.yul\":1249:1265   */\n      swap1\n      pop\n        /* \"#utility.yul\":1194:1271   */\n      swap2\n      swap1\n      pop\n      jump\t// out\n        /* \"#utility.yul\":1400:1517   */\n    tag_28:\n        /* \"#utility.yul\":1509:1510   */\n      0x00\n        /* \"#utility.yul\":1506:1507   */\n      dup1\n        /* \"#utility.yul\":1499:1511   */\n      revert\n        /* \"#utility.yul\":1523:1661   */\n    tag_24:\n        /* \"#utility.yul\":1604:1636   */\n      tag_48\n        /* \"#utility.yul\":1630:1635   */\n      dup2\n        /* \"#utility.yul\":1604:1636   */\n      tag_38\n      jump\t// in\n    tag_48:\n        /* \"#utility.yul\":1597:1602   */\n      dup2\n        /* \"#utility.yul\":1594:1637   */\n      eq\n        /* \"#utility.yul\":1584:1655   */\n      tag_49\n      jumpi\n        /* \"#utility.yul\":1651:1652   */\n      0x00\n        /* \"#utility.yul\":1648:1649   */\n      dup1\n        /* \"#utility.yul\":1641:1653   */\n      revert\n        /* \"#utility.yul\":1584:1655   */\n    tag_49:\n        /* \"#utility.yul\":1523:1661   */\n      pop\n      jump\t// out\n\n    auxdata: 0xa2646970667358221220265e5a021d5c3ae1d15faca9b420cdfdaaa50aee0d3573550c53cca30d3c05c664736f6c63430008070033\n}\n",
				"bytecode": {
					"linkReferences": {},
					"object": "60806040526101cd806100136000396000f3fe60806040526004361061002d5760003560e01c806312065fe014610039578063636e082b1461006457610034565b3661003457005b600080fd5b34801561004557600080fd5b5061004e610080565b60405161005b9190610124565b60405180910390f35b61007e600480360381019061007991906100e8565b610088565b005b600047905090565b8073ffffffffffffffffffffffffffffffffffffffff166108fc60019081150290604051600060405180830381858888f193505050501580156100cf573d6000803e3d6000fd5b5050565b6000813590506100e281610180565b92915050565b6000602082840312156100fe576100fd61017b565b5b600061010c848285016100d3565b91505092915050565b61011e81610171565b82525050565b60006020820190506101396000830184610115565b92915050565b600061014a82610151565b9050919050565b600073ffffffffffffffffffffffffffffffffffffffff82169050919050565b6000819050919050565b600080fd5b6101898161013f565b811461019457600080fd5b5056fea2646970667358221220265e5a021d5c3ae1d15faca9b420cdfdaaa50aee0d3573550c53cca30d3c05c664736f6c63430008070033",
					"opcodes": "PUSH1 0x80 PUSH1 0x40 MSTORE PUSH2 0x1CD DUP1 PUSH2 0x13 PUSH1 0x0 CODECOPY PUSH1 0x0 RETURN INVALID PUSH1 0x80 PUSH1 0x40 MSTORE PUSH1 0x4 CALLDATASIZE LT PUSH2 0x2D JUMPI PUSH1 0x0 CALLDATALOAD PUSH1 0xE0 SHR DUP1 PUSH4 0x12065FE0 EQ PUSH2 0x39 JUMPI DUP1 PUSH4 0x636E082B EQ PUSH2 0x64 JUMPI PUSH2 0x34 JUMP JUMPDEST CALLDATASIZE PUSH2 0x34 JUMPI STOP JUMPDEST PUSH1 0x0 DUP1 REVERT JUMPDEST CALLVALUE DUP1 ISZERO PUSH2 0x45 JUMPI PUSH1 0x0 DUP1 REVERT JUMPDEST POP PUSH2 0x4E PUSH2 0x80 JUMP JUMPDEST PUSH1 0x40 MLOAD PUSH2 0x5B SWAP2 SWAP1 PUSH2 0x124 JUMP JUMPDEST PUSH1 0x40 MLOAD DUP1 SWAP2 SUB SWAP1 RETURN JUMPDEST PUSH2 0x7E PUSH1 0x4 DUP1 CALLDATASIZE SUB DUP2 ADD SWAP1 PUSH2 0x79 SWAP2 SWAP1 PUSH2 0xE8 JUMP JUMPDEST PUSH2 0x88 JUMP JUMPDEST STOP JUMPDEST PUSH1 0x0 SELFBALANCE SWAP1 POP SWAP1 JUMP JUMPDEST DUP1 PUSH20 0xFFFFFFFFFFFFFFFFFFFFFFFFFFFFFFFFFFFFFFFF AND PUSH2 0x8FC PUSH1 0x1 SWAP1 DUP2 ISZERO MUL SWAP1 PUSH1 0x40 MLOAD PUSH1 0x0 PUSH1 0x40 MLOAD DUP1 DUP4 SUB DUP2 DUP6 DUP9 DUP9 CALL SWAP4 POP POP POP POP ISZERO DUP1 ISZERO PUSH2 0xCF JUMPI RETURNDATASIZE PUSH1 0x0 DUP1 RETURNDATACOPY RETURNDATASIZE PUSH1 0x0 REVERT JUMPDEST POP POP JUMP JUMPDEST PUSH1 0x0 DUP2 CALLDATALOAD SWAP1 POP PUSH2 0xE2 DUP2 PUSH2 0x180 JUMP JUMPDEST SWAP3 SWAP2 POP POP JUMP JUMPDEST PUSH1 0x0 PUSH1 0x20 DUP3 DUP5 SUB SLT ISZERO PUSH2 0xFE JUMPI PUSH2 0xFD PUSH2 0x17B JUMP JUMPDEST JUMPDEST PUSH1 0x0 PUSH2 0x10C DUP5 DUP3 DUP6 ADD PUSH2 0xD3 JUMP JUMPDEST SWAP2 POP POP SWAP3 SWAP2 POP POP JUMP JUMPDEST PUSH2 0x11E DUP2 PUSH2 0x171 JUMP JUMPDEST DUP3 MSTORE POP POP JUMP JUMPDEST PUSH1 0x0 PUSH1 0x20 DUP3 ADD SWAP1 POP PUSH2 0x139 PUSH1 0x0 DUP4 ADD DUP5 PUSH2 0x115 JUMP JUMPDEST SWAP3 SWAP2 POP POP JUMP JUMPDEST PUSH1 0x0 PUSH2 0x14A DUP3 PUSH2 0x151 JUMP JUMPDEST SWAP1 POP SWAP2 SWAP1 POP JUMP JUMPDEST PUSH1 0x0 PUSH20 0xFFFFFFFFFFFFFFFFFFFFFFFFFFFFFFFFFFFFFFFF DUP3 AND SWAP1 POP SWAP2 SWAP1 POP JUMP JUMPDEST PUSH1 0x0 DUP2 SWAP1 POP SWAP2 SWAP1 POP JUMP JUMPDEST PUSH1 0x0 DUP1 REVERT JUMPDEST PUSH2 0x189 DUP2 PUSH2 0x13F JUMP JUMPDEST DUP2 EQ PUSH2 0x194 JUMPI PUSH1 0x0 DUP1 REVERT JUMPDEST POP JUMP INVALID LOG2 PUSH5 0x6970667358 0x22 SLT KECCAK256 0x26 0x5E GAS MUL SAR 0x5C GASPRICE 0xE1 0xD1 0x5F 0xAC 0xA9 0xB4 KECCAK256 0xCD REVERT 0xAA 0xA5 EXP 0xEE 0xD CALLDATALOAD PUSH20 0x550C53CCA30D3C05C664736F6C63430008070033 "
				},
				"gasEstimates": {
					"creation": {
						"codeDepositCost": "92200",
						"executionCost": "117",
						"totalCost": "92317"
					},
					"external": {
						"getBalance()": "317",
						"sendViaTransfer(address)": "infinite"
					}
				},
				"methodIdentifiers": {
					"getBalance()": "12065fe0",
					"sendViaTransfer(address)": "636e082b"
				}
			},
			"storageLayout": {
				"storage": [],
				"types": null
			},
			"userdoc": {
				"kind": "user",
				"methods": {},
				"version": 1
			}
		}
	}
}