{
	"data": {
		"bytecode": {
			"linkReferences": {},
			"object": "60806040526040518060400160405280600181526020017f6100000000000000000000000000000000000000000000000000000000000000815250600090816200004a919062000425565b506040518060400160405280600b81526020017f6920616d20737472696e670000000000000000000000000000000000000000008152506001908162000091919062000571565b506000808154620000a29062000214565b8110620000b457620000b362000658565b5b815460011615620000d45790600052602060002090602091828204019190065b9054901a7f010000000000000000000000000000000000000000000000000000000000000002600260006101000a81548160ff021916908360f81c0217905550600160008154620001259062000214565b811062000137576200013662000658565b5b815460011615620001575790600052602060002090602091828204019190065b9054901a7f010000000000000000000000000000000000000000000000000000000000000002600260016101000a81548160ff021916908360f81c0217905550348015620001a457600080fd5b5062000687565b600081519050919050565b7f4e487b7100000000000000000000000000000000000000000000000000000000600052604160045260246000fd5b7f4e487b7100000000000000000000000000000000000000000000000000000000600052602260045260246000fd5b600060028204905060018216806200022d57607f821691505b602082108103620002435762000242620001e5565b5b50919050565b60008190508160005260206000209050919050565b60006020601f8301049050919050565b600082821b905092915050565b600060088302620002ad7fffffffffffffffffffffffffffffffffffffffffffffffffffffffffffffffff826200026e565b620002b986836200026e565b95508019841693508086168417925050509392505050565b6000819050919050565b6000819050919050565b60006200030662000300620002fa84620002d1565b620002db565b620002d1565b9050919050565b6000819050919050565b6200032283620002e5565b6200033a62000331826200030d565b8484546200027b565b825550505050565b600090565b6200035162000342565b6200035e81848462000317565b505050565b5b8181101562000386576200037a60008262000347565b60018101905062000364565b5050565b601f821115620003d5576200039f8162000249565b620003aa846200025e565b81016020851015620003ba578190505b620003d2620003c9856200025e565b83018262000363565b50505b505050565b600082821c905092915050565b6000620003fa60001984600802620003da565b1980831691505092915050565b6000620004158383620003e7565b9150826002028217905092915050565b6200043082620001ab565b67ffffffffffffffff8111156200044c576200044b620001b6565b5b62000458825462000214565b620004658282856200038a565b600060209050601f8311600181146200049d576000841562000488578287015190505b62000494858262000407565b86555062000504565b601f198416620004ad8662000249565b60005b82811015620004d757848901518255600182019150602085019450602081019050620004b0565b86831015620004f75784890151620004f3601f891682620003e7565b8355505b6001600288020188555050505b505050505050565b60008190508160005260206000209050919050565b601f8211156200056c5762000536816200050c565b62000541846200025e565b8101602085101562000551578190505b6200056962000560856200025e565b83018262000363565b50505b505050565b6200057c82620001ab565b67ffffffffffffffff811115620005985762000597620001b6565b5b620005a4825462000214565b620005b182828562000521565b600060209050601f831160018114620005e95760008415620005d4578287015190505b620005e0858262000407565b86555062000650565b601f198416620005f9866200050c565b60005b828110156200062357848901518255600182019150602085019450602081019050620005fc565b868310156200064357848901516200063f601f891682620003e7565b8355505b6001600288020188555050505b505050505050565b7f4e487b7100000000000000000000000000000000000000000000000000000000600052603260045260246000fd5b61042980620006976000396000f3fe608060405234801561001057600080fd5b506004361061004c5760003560e01c80630dbe671f146100515780634df7e3d01461006f57806386b714e21461008d5780638a054ac2146100ab575b600080fd5b6100596100c9565b6040516100669190610246565b60405180910390f35b6100776100dc565b60405161008491906102fa565b60405180910390f35b61009561016a565b6040516100a29190610371565b60405180910390f35b6100b36101f8565b6040516100c09190610246565b60405180910390f35b600260009054906101000a900460f81b81565b600080546100e9906103c2565b80601f0160208091040260200160405190810160405280929190818152602001828054610115906103c2565b80156101625780601f1061013757610100808354040283529160200191610162565b820191906000526020600020905b81548152906001019060200180831161014557829003601f168201915b505050505081565b60018054610177906103c2565b80601f01602080910402602001604051908101604052809291908181526020018280546101a3906103c2565b80156101f05780601f106101c5576101008083540402835291602001916101f0565b820191906000526020600020905b8154815290600101906020018083116101d357829003601f168201915b505050505081565b600260019054906101000a900460f81b81565b60007fff0000000000000000000000000000000000000000000000000000000000000082169050919050565b6102408161020b565b82525050565b600060208201905061025b6000830184610237565b92915050565b600081519050919050565b600082825260208201905092915050565b60005b8381101561029b578082015181840152602081019050610280565b838111156102aa576000848401525b50505050565b6000601f19601f8301169050919050565b60006102cc82610261565b6102d6818561026c565b93506102e681856020860161027d565b6102ef816102b0565b840191505092915050565b6000602082019050818103600083015261031481846102c1565b905092915050565b600081519050919050565b600082825260208201905092915050565b60006103438261031c565b61034d8185610327565b935061035d81856020860161027d565b610366816102b0565b840191505092915050565b6000602082019050818103600083015261038b8184610338565b905092915050565b7f4e487b7100000000000000000000000000000000000000000000000000000000600052602260045260246000fd5b600060028204905060018216806103da57607f821691505b6020821081036103ed576103ec610393565b5b5091905056fea264697066735822122084003a3a25f836273a24f6b1291673309a59d03459578c9b08ef5f940111b89d64736f6c634300080f0033",
			"opcodes": "PUSH1 0x80 PUSH1 0x40 MSTORE PUSH1 0x40 MLOAD DUP1 PUSH1 0x40 ADD PUSH1 0x40 MSTORE DUP1 PUSH1 0x1 DUP2 MSTORE PUSH1 0x20 ADD PUSH32 0x6100000000000000000000000000000000000000000000000000000000000000 DUP2 MSTORE POP PUSH1 0x0 SWAP1 DUP2 PUSH3 0x4A SWAP2 SWAP1 PUSH3 0x425 JUMP JUMPDEST POP PUSH1 0x40 MLOAD DUP1 PUSH1 0x40 ADD PUSH1 0x40 MSTORE DUP1 PUSH1 0xB DUP2 MSTORE PUSH1 0x20 ADD PUSH32 0x6920616D20737472696E67000000000000000000000000000000000000000000 DUP2 MSTORE POP PUSH1 0x1 SWAP1 DUP2 PUSH3 0x91 SWAP2 SWAP1 PUSH3 0x571 JUMP JUMPDEST POP PUSH1 0x0 DUP1 DUP2 SLOAD PUSH3 0xA2 SWAP1 PUSH3 0x214 JUMP JUMPDEST DUP2 LT PUSH3 0xB4 JUMPI PUSH3 0xB3 PUSH3 0x658 JUMP JUMPDEST JUMPDEST DUP2 SLOAD PUSH1 0x1 AND ISZERO PUSH3 0xD4 JUMPI SWAP1 PUSH1 0x0 MSTORE PUSH1 0x20 PUSH1 0x0 KECCAK256 SWAP1 PUSH1 0x20 SWAP2 DUP3 DUP3 DIV ADD SWAP2 SWAP1 MOD JUMPDEST SWAP1 SLOAD SWAP1 BYTE PUSH32 0x100000000000000000000000000000000000000000000000000000000000000 MUL PUSH1 0x2 PUSH1 0x0 PUSH2 0x100 EXP DUP2 SLOAD DUP2 PUSH1 0xFF MUL NOT AND SWAP1 DUP4 PUSH1 0xF8 SHR MUL OR SWAP1 SSTORE POP PUSH1 0x1 PUSH1 0x0 DUP2 SLOAD PUSH3 0x125 SWAP1 PUSH3 0x214 JUMP JUMPDEST DUP2 LT PUSH3 0x137 JUMPI PUSH3 0x136 PUSH3 0x658 JUMP JUMPDEST JUMPDEST DUP2 SLOAD PUSH1 0x1 AND ISZERO PUSH3 0x157 JUMPI SWAP1 PUSH1 0x0 MSTORE PUSH1 0x20 PUSH1 0x0 KECCAK256 SWAP1 PUSH1 0x20 SWAP2 DUP3 DUP3 DIV ADD SWAP2 SWAP1 MOD JUMPDEST SWAP1 SLOAD SWAP1 BYTE PUSH32 0x100000000000000000000000000000000000000000000000000000000000000 MUL PUSH1 0x2 PUSH1 0x1 PUSH2 0x100 EXP DUP2 SLOAD DUP2 PUSH1 0xFF MUL NOT AND SWAP1 DUP4 PUSH1 0xF8 SHR MUL OR SWAP1 SSTORE POP CALLVALUE DUP1 ISZERO PUSH3 0x1A4 JUMPI PUSH1 0x0 DUP1 REVERT JUMPDEST POP PUSH3 0x687 JUMP JUMPDEST PUSH1 0x0 DUP2 MLOAD SWAP1 POP SWAP2 SWAP1 POP JUMP JUMPDEST PUSH32 0x4E487B7100000000000000000000000000000000000000000000000000000000 PUSH1 0x0 MSTORE PUSH1 0x41 PUSH1 0x4 MSTORE PUSH1 0x24 PUSH1 0x0 REVERT JUMPDEST PUSH32 0x4E487B7100000000000000000000000000000000000000000000000000000000 PUSH1 0x0 MSTORE PUSH1 0x22 PUSH1 0x4 MSTORE PUSH1 0x24 PUSH1 0x0 REVERT JUMPDEST PUSH1 0x0 PUSH1 0x2 DUP3 DIV SWAP1 POP PUSH1 0x1 DUP3 AND DUP1 PUSH3 0x22D JUMPI PUSH1 0x7F DUP3 AND SWAP2 POP JUMPDEST PUSH1 0x20 DUP3 LT DUP2 SUB PUSH3 0x243 JUMPI PUSH3 0x242 PUSH3 0x1E5 JUMP JUMPDEST JUMPDEST POP SWAP2 SWAP1 POP JUMP JUMPDEST PUSH1 0x0 DUP2 SWAP1 POP DUP2 PUSH1 0x0 MSTORE PUSH1 0x20 PUSH1 0x0 KECCAK256 SWAP1 POP SWAP2 SWAP1 POP JUMP JUMPDEST PUSH1 0x0 PUSH1 0x20 PUSH1 0x1F DUP4 ADD DIV SWAP1 POP SWAP2 SWAP1 POP JUMP JUMPDEST PUSH1 0x0 DUP3 DUP3 SHL SWAP1 POP SWAP3 SWAP2 POP POP JUMP JUMPDEST PUSH1 0x0 PUSH1 0x8 DUP4 MUL PUSH3 0x2AD PUSH32 0xFFFFFFFFFFFFFFFFFFFFFFFFFFFFFFFFFFFFFFFFFFFFFFFFFFFFFFFFFFFFFFFF DUP3 PUSH3 0x26E JUMP JUMPDEST PUSH3 0x2B9 DUP7 DUP4 PUSH3 0x26E JUMP JUMPDEST SWAP6 POP DUP1 NOT DUP5 AND SWAP4 POP DUP1 DUP7 AND DUP5 OR SWAP3 POP POP POP SWAP4 SWAP3 POP POP POP JUMP JUMPDEST PUSH1 0x0 DUP2 SWAP1 POP SWAP2 SWAP1 POP JUMP JUMPDEST PUSH1 0x0 DUP2 SWAP1 POP SWAP2 SWAP1 POP JUMP JUMPDEST PUSH1 0x0 PUSH3 0x306 PUSH3 0x300 PUSH3 0x2FA DUP5 PUSH3 0x2D1 JUMP JUMPDEST PUSH3 0x2DB JUMP JUMPDEST PUSH3 0x2D1 JUMP JUMPDEST SWAP1 POP SWAP2 SWAP1 POP JUMP JUMPDEST PUSH1 0x0 DUP2 SWAP1 POP SWAP2 SWAP1 POP JUMP JUMPDEST PUSH3 0x322 DUP4 PUSH3 0x2E5 JUMP JUMPDEST PUSH3 0x33A PUSH3 0x331 DUP3 PUSH3 0x30D JUMP JUMPDEST DUP5 DUP5 SLOAD PUSH3 0x27B JUMP JUMPDEST DUP3 SSTORE POP POP POP POP JUMP JUMPDEST PUSH1 0x0 SWAP1 JUMP JUMPDEST PUSH3 0x351 PUSH3 0x342 JUMP JUMPDEST PUSH3 0x35E DUP2 DUP5 DUP5 PUSH3 0x317 JUMP JUMPDEST POP POP POP JUMP JUMPDEST JUMPDEST DUP2 DUP2 LT ISZERO PUSH3 0x386 JUMPI PUSH3 0x37A PUSH1 0x0 DUP3 PUSH3 0x347 JUMP JUMPDEST PUSH1 0x1 DUP2 ADD SWAP1 POP PUSH3 0x364 JUMP JUMPDEST POP POP JUMP JUMPDEST PUSH1 0x1F DUP3 GT ISZERO PUSH3 0x3D5 JUMPI PUSH3 0x39F DUP2 PUSH3 0x249 JUMP JUMPDEST PUSH3 0x3AA DUP5 PUSH3 0x25E JUMP JUMPDEST DUP2 ADD PUSH1 0x20 DUP6 LT ISZERO PUSH3 0x3BA JUMPI DUP2 SWAP1 POP JUMPDEST PUSH3 0x3D2 PUSH3 0x3C9 DUP6 PUSH3 0x25E JUMP JUMPDEST DUP4 ADD DUP3 PUSH3 0x363 JUMP JUMPDEST POP POP JUMPDEST POP POP POP JUMP JUMPDEST PUSH1 0x0 DUP3 DUP3 SHR SWAP1 POP SWAP3 SWAP2 POP POP JUMP JUMPDEST PUSH1 0x0 PUSH3 0x3FA PUSH1 0x0 NOT DUP5 PUSH1 0x8 MUL PUSH3 0x3DA JUMP JUMPDEST NOT DUP1 DUP4 AND SWAP2 POP POP SWAP3 SWAP2 POP POP JUMP JUMPDEST PUSH1 0x0 PUSH3 0x415 DUP4 DUP4 PUSH3 0x3E7 JUMP JUMPDEST SWAP2 POP DUP3 PUSH1 0x2 MUL DUP3 OR SWAP1 POP SWAP3 SWAP2 POP POP JUMP JUMPDEST PUSH3 0x430 DUP3 PUSH3 0x1AB JUMP JUMPDEST PUSH8 0xFFFFFFFFFFFFFFFF DUP2 GT ISZERO PUSH3 0x44C JUMPI PUSH3 0x44B PUSH3 0x1B6 JUMP JUMPDEST JUMPDEST PUSH3 0x458 DUP3 SLOAD PUSH3 0x214 JUMP JUMPDEST PUSH3 0x465 DUP3 DUP3 DUP6 PUSH3 0x38A JUMP JUMPDEST PUSH1 0x0 PUSH1 0x20 SWAP1 POP PUSH1 0x1F DUP4 GT PUSH1 0x1 DUP2 EQ PUSH3 0x49D JUMPI PUSH1 0x0 DUP5 ISZERO PUSH3 0x488 JUMPI DUP3 DUP8 ADD MLOAD SWAP1 POP JUMPDEST PUSH3 0x494 DUP6 DUP3 PUSH3 0x407 JUMP JUMPDEST DUP7 SSTORE POP PUSH3 0x504 JUMP JUMPDEST PUSH1 0x1F NOT DUP5 AND PUSH3 0x4AD DUP7 PUSH3 0x249 JUMP JUMPDEST PUSH1 0x0 JUMPDEST DUP3 DUP2 LT ISZERO PUSH3 0x4D7 JUMPI DUP5 DUP10 ADD MLOAD DUP3 SSTORE PUSH1 0x1 DUP3 ADD SWAP2 POP PUSH1 0x20 DUP6 ADD SWAP5 POP PUSH1 0x20 DUP2 ADD SWAP1 POP PUSH3 0x4B0 JUMP JUMPDEST DUP7 DUP4 LT ISZERO PUSH3 0x4F7 JUMPI DUP5 DUP10 ADD MLOAD PUSH3 0x4F3 PUSH1 0x1F DUP10 AND DUP3 PUSH3 0x3E7 JUMP JUMPDEST DUP4 SSTORE POP JUMPDEST PUSH1 0x1 PUSH1 0x2 DUP9 MUL ADD DUP9 SSTORE POP POP POP JUMPDEST POP POP POP POP POP POP JUMP JUMPDEST PUSH1 0x0 DUP2 SWAP1 POP DUP2 PUSH1 0x0 MSTORE PUSH1 0x20 PUSH1 0x0 KECCAK256 SWAP1 POP SWAP2 SWAP1 POP JUMP JUMPDEST PUSH1 0x1F DUP3 GT ISZERO PUSH3 0x56C JUMPI PUSH3 0x536 DUP2 PUSH3 0x50C JUMP JUMPDEST PUSH3 0x541 DUP5 PUSH3 0x25E JUMP JUMPDEST DUP2 ADD PUSH1 0x20 DUP6 LT ISZERO PUSH3 0x551 JUMPI DUP2 SWAP1 POP JUMPDEST PUSH3 0x569 PUSH3 0x560 DUP6 PUSH3 0x25E JUMP JUMPDEST DUP4 ADD DUP3 PUSH3 0x363 JUMP JUMPDEST POP POP JUMPDEST POP POP POP JUMP JUMPDEST PUSH3 0x57C DUP3 PUSH3 0x1AB JUMP JUMPDEST PUSH8 0xFFFFFFFFFFFFFFFF DUP2 GT ISZERO PUSH3 0x598 JUMPI PUSH3 0x597 PUSH3 0x1B6 JUMP JUMPDEST JUMPDEST PUSH3 0x5A4 DUP3 SLOAD PUSH3 0x214 JUMP JUMPDEST PUSH3 0x5B1 DUP3 DUP3 DUP6 PUSH3 0x521 JUMP JUMPDEST PUSH1 0x0 PUSH1 0x20 SWAP1 POP PUSH1 0x1F DUP4 GT PUSH1 0x1 DUP2 EQ PUSH3 0x5E9 JUMPI PUSH1 0x0 DUP5 ISZERO PUSH3 0x5D4 JUMPI DUP3 DUP8 ADD MLOAD SWAP1 POP JUMPDEST PUSH3 0x5E0 DUP6 DUP3 PUSH3 0x407 JUMP JUMPDEST DUP7 SSTORE POP PUSH3 0x650 JUMP JUMPDEST PUSH1 0x1F NOT DUP5 AND PUSH3 0x5F9 DUP7 PUSH3 0x50C JUMP JUMPDEST PUSH1 0x0 JUMPDEST DUP3 DUP2 LT ISZERO PUSH3 0x623 JUMPI DUP5 DUP10 ADD MLOAD DUP3 SSTORE PUSH1 0x1 DUP3 ADD SWAP2 POP PUSH1 0x20 DUP6 ADD SWAP5 POP PUSH1 0x20 DUP2 ADD SWAP1 POP PUSH3 0x5FC JUMP JUMPDEST DUP7 DUP4 LT ISZERO PUSH3 0x643 JUMPI DUP5 DUP10 ADD MLOAD PUSH3 0x63F PUSH1 0x1F DUP10 AND DUP3 PUSH3 0x3E7 JUMP JUMPDEST DUP4 SSTORE POP JUMPDEST PUSH1 0x1 PUSH1 0x2 DUP9 MUL ADD DUP9 SSTORE POP POP POP JUMPDEST POP POP POP POP POP POP JUMP JUMPDEST PUSH32 0x4E487B7100000000000000000000000000000000000000000000000000000000 PUSH1 0x0 MSTORE PUSH1 0x32 PUSH1 0x4 MSTORE PUSH1 0x24 PUSH1 0x0 REVERT JUMPDEST PUSH2 0x429 DUP1 PUSH3 0x697 PUSH1 0x0 CODECOPY PUSH1 0x0 RETURN INVALID PUSH1 0x80 PUSH1 0x40 MSTORE CALLVALUE DUP1 ISZERO PUSH2 0x10 JUMPI PUSH1 0x0 DUP1 REVERT JUMPDEST POP PUSH1 0x4 CALLDATASIZE LT PUSH2 0x4C JUMPI PUSH1 0x0 CALLDATALOAD PUSH1 0xE0 SHR DUP1 PUSH4 0xDBE671F EQ PUSH2 0x51 JUMPI DUP1 PUSH4 0x4DF7E3D0 EQ PUSH2 0x6F JUMPI DUP1 PUSH4 0x86B714E2 EQ PUSH2 0x8D JUMPI DUP1 PUSH4 0x8A054AC2 EQ PUSH2 0xAB JUMPI JUMPDEST PUSH1 0x0 DUP1 REVERT JUMPDEST PUSH2 0x59 PUSH2 0xC9 JUMP JUMPDEST PUSH1 0x40 MLOAD PUSH2 0x66 SWAP2 SWAP1 PUSH2 0x246 JUMP JUMPDEST PUSH1 0x40 MLOAD DUP1 SWAP2 SUB SWAP1 RETURN JUMPDEST PUSH2 0x77 PUSH2 0xDC JUMP JUMPDEST PUSH1 0x40 MLOAD PUSH2 0x84 SWAP2 SWAP1 PUSH2 0x2FA JUMP JUMPDEST PUSH1 0x40 MLOAD DUP1 SWAP2 SUB SWAP1 RETURN JUMPDEST PUSH2 0x95 PUSH2 0x16A JUMP JUMPDEST PUSH1 0x40 MLOAD PUSH2 0xA2 SWAP2 SWAP1 PUSH2 0x371 JUMP JUMPDEST PUSH1 0x40 MLOAD DUP1 SWAP2 SUB SWAP1 RETURN JUMPDEST PUSH2 0xB3 PUSH2 0x1F8 JUMP JUMPDEST PUSH1 0x40 MLOAD PUSH2 0xC0 SWAP2 SWAP1 PUSH2 0x246 JUMP JUMPDEST PUSH1 0x40 MLOAD DUP1 SWAP2 SUB SWAP1 RETURN JUMPDEST PUSH1 0x2 PUSH1 0x0 SWAP1 SLOAD SWAP1 PUSH2 0x100 EXP SWAP1 DIV PUSH1 0xF8 SHL DUP2 JUMP JUMPDEST PUSH1 0x0 DUP1 SLOAD PUSH2 0xE9 SWAP1 PUSH2 0x3C2 JUMP JUMPDEST DUP1 PUSH1 0x1F ADD PUSH1 0x20 DUP1 SWAP2 DIV MUL PUSH1 0x20 ADD PUSH1 0x40 MLOAD SWAP1 DUP2 ADD PUSH1 0x40 MSTORE DUP1 SWAP3 SWAP2 SWAP1 DUP2 DUP2 MSTORE PUSH1 0x20 ADD DUP3 DUP1 SLOAD PUSH2 0x115 SWAP1 PUSH2 0x3C2 JUMP JUMPDEST DUP1 ISZERO PUSH2 0x162 JUMPI DUP1 PUSH1 0x1F LT PUSH2 0x137 JUMPI PUSH2 0x100 DUP1 DUP4 SLOAD DIV MUL DUP4 MSTORE SWAP2 PUSH1 0x20 ADD SWAP2 PUSH2 0x162 JUMP JUMPDEST DUP3 ADD SWAP2 SWAP1 PUSH1 0x0 MSTORE PUSH1 0x20 PUSH1 0x0 KECCAK256 SWAP1 JUMPDEST DUP2 SLOAD DUP2 MSTORE SWAP1 PUSH1 0x1 ADD SWAP1 PUSH1 0x20 ADD DUP1 DUP4 GT PUSH2 0x145 JUMPI DUP3 SWAP1 SUB PUSH1 0x1F AND DUP3 ADD SWAP2 JUMPDEST POP POP POP POP POP DUP2 JUMP JUMPDEST PUSH1 0x1 DUP1 SLOAD PUSH2 0x177 SWAP1 PUSH2 0x3C2 JUMP JUMPDEST DUP1 PUSH1 0x1F ADD PUSH1 0x20 DUP1 SWAP2 DIV MUL PUSH1 0x20 ADD PUSH1 0x40 MLOAD SWAP1 DUP2 ADD PUSH1 0x40 MSTORE DUP1 SWAP3 SWAP2 SWAP1 DUP2 DUP2 MSTORE PUSH1 0x20 ADD DUP3 DUP1 SLOAD PUSH2 0x1A3 SWAP1 PUSH2 0x3C2 JUMP JUMPDEST DUP1 ISZERO PUSH2 0x1F0 JUMPI DUP1 PUSH1 0x1F LT PUSH2 0x1C5 JUMPI PUSH2 0x100 DUP1 DUP4 SLOAD DIV MUL DUP4 MSTORE SWAP2 PUSH1 0x20 ADD SWAP2 PUSH2 0x1F0 JUMP JUMPDEST DUP3 ADD SWAP2 SWAP1 PUSH1 0x0 MSTORE PUSH1 0x20 PUSH1 0x0 KECCAK256 SWAP1 JUMPDEST DUP2 SLOAD DUP2 MSTORE SWAP1 PUSH1 0x1 ADD SWAP1 PUSH1 0x20 ADD DUP1 DUP4 GT PUSH2 0x1D3 JUMPI DUP3 SWAP1 SUB PUSH1 0x1F AND DUP3 ADD SWAP2 JUMPDEST POP POP POP POP POP DUP2 JUMP JUMPDEST PUSH1 0x2 PUSH1 0x1 SWAP1 SLOAD SWAP1 PUSH2 0x100 EXP SWAP1 DIV PUSH1 0xF8 SHL DUP2 JUMP JUMPDEST PUSH1 0x0 PUSH32 0xFF00000000000000000000000000000000000000000000000000000000000000 DUP3 AND SWAP1 POP SWAP2 SWAP1 POP JUMP JUMPDEST PUSH2 0x240 DUP2 PUSH2 0x20B JUMP JUMPDEST DUP3 MSTORE POP POP JUMP JUMPDEST PUSH1 0x0 PUSH1 0x20 DUP3 ADD SWAP1 POP PUSH2 0x25B PUSH1 0x0 DUP4 ADD DUP5 PUSH2 0x237 JUMP JUMPDEST SWAP3 SWAP2 POP POP JUMP JUMPDEST PUSH1 0x0 DUP2 MLOAD SWAP1 POP SWAP2 SWAP1 POP JUMP JUMPDEST PUSH1 0x0 DUP3 DUP3 MSTORE PUSH1 0x20 DUP3 ADD SWAP1 POP SWAP3 SWAP2 POP POP JUMP JUMPDEST PUSH1 0x0 JUMPDEST DUP4 DUP2 LT ISZERO PUSH2 0x29B JUMPI DUP1 DUP3 ADD MLOAD DUP2 DUP5 ADD MSTORE PUSH1 0x20 DUP2 ADD SWAP1 POP PUSH2 0x280 JUMP JUMPDEST DUP4 DUP2 GT ISZERO PUSH2 0x2AA JUMPI PUSH1 0x0 DUP5 DUP5 ADD MSTORE JUMPDEST POP POP POP POP JUMP JUMPDEST PUSH1 0x0 PUSH1 0x1F NOT PUSH1 0x1F DUP4 ADD AND SWAP1 POP SWAP2 SWAP1 POP JUMP JUMPDEST PUSH1 0x0 PUSH2 0x2CC DUP3 PUSH2 0x261 JUMP JUMPDEST PUSH2 0x2D6 DUP2 DUP6 PUSH2 0x26C JUMP JUMPDEST SWAP4 POP PUSH2 0x2E6 DUP2 DUP6 PUSH1 0x20 DUP7 ADD PUSH2 0x27D JUMP JUMPDEST PUSH2 0x2EF DUP2 PUSH2 0x2B0 JUMP JUMPDEST DUP5 ADD SWAP2 POP POP SWAP3 SWAP2 POP POP JUMP JUMPDEST PUSH1 0x0 PUSH1 0x20 DUP3 ADD SWAP1 POP DUP2 DUP2 SUB PUSH1 0x0 DUP4 ADD MSTORE PUSH2 0x314 DUP2 DUP5 PUSH2 0x2C1 JUMP JUMPDEST SWAP1 POP SWAP3 SWAP2 POP POP JUMP JUMPDEST PUSH1 0x0 DUP2 MLOAD SWAP1 POP SWAP2 SWAP1 POP JUMP JUMPDEST PUSH1 0x0 DUP3 DUP3 MSTORE PUSH1 0x20 DUP3 ADD SWAP1 POP SWAP3 SWAP2 POP POP JUMP JUMPDEST PUSH1 0x0 PUSH2 0x343 DUP3 PUSH2 0x31C JUMP JUMPDEST PUSH2 0x34D DUP2 DUP6 PUSH2 0x327 JUMP JUMPDEST SWAP4 POP PUSH2 0x35D DUP2 DUP6 PUSH1 0x20 DUP7 ADD PUSH2 0x27D JUMP JUMPDEST PUSH2 0x366 DUP2 PUSH2 0x2B0 JUMP JUMPDEST DUP5 ADD SWAP2 POP POP SWAP3 SWAP2 POP POP JUMP JUMPDEST PUSH1 0x0 PUSH1 0x20 DUP3 ADD SWAP1 POP DUP2 DUP2 SUB PUSH1 0x0 DUP4 ADD MSTORE PUSH2 0x38B DUP2 DUP5 PUSH2 0x338 JUMP JUMPDEST SWAP1 POP SWAP3 SWAP2 POP POP JUMP JUMPDEST PUSH32 0x4E487B7100000000000000000000000000000000000000000000000000000000 PUSH1 0x0 MSTORE PUSH1 0x22 PUSH1 0x4 MSTORE PUSH1 0x24 PUSH1 0x0 REVERT JUMPDEST PUSH1 0x0 PUSH1 0x2 DUP3 DIV SWAP1 POP PUSH1 0x1 DUP3 AND DUP1 PUSH2 0x3DA JUMPI PUSH1 0x7F DUP3 AND SWAP2 POP JUMPDEST PUSH1 0x20 DUP3 LT DUP2 SUB PUSH2 0x3ED JUMPI PUSH2 0x3EC PUSH2 0x393 JUMP JUMPDEST JUMPDEST POP SWAP2 SWAP1 POP JUMP INVALID LOG2 PUSH5 0x6970667358 0x22 SLT KECCAK256 DUP5 STOP GASPRICE GASPRICE 0x25 0xF8 CALLDATASIZE 0x27 GASPRICE 0x24 0xF6 0xB1 0x29 AND PUSH20 0x309A59D03459578C9B08EF5F940111B89D64736F PUSH13 0x634300080F0033000000000000 "
		},
		"gasEstimates": {
			"creation": {
				"codeDepositCost": "213000",
				"executionCost": "infinite",
				"totalCost": "infinite"
			},
			"external": {
				"a()": "2449",
				"b()": "infinite",
				"d()": "2565",
				"s()": "infinite"
			}
		},
		"methodIdentifiers": {
			"a()": "0dbe671f",
			"b()": "4df7e3d0",
			"d()": "8a054ac2",
			"s()": "86b714e2"
		}
	},
	"abi": [
		{
			"inputs": [],
			"name": "a",
			"outputs": [
				{
					"internalType": "bytes1",
					"name": "",
					"type": "bytes1"
				}
			],
			"stateMutability": "view",
			"type": "function"
		},
		{
			"inputs": [],
			"name": "b",
			"outputs": [
				{
					"internalType": "bytes",
					"name": "",
					"type": "bytes"
				}
			],
			"stateMutability": "view",
			"type": "function"
		},
		{
			"inputs": [],
			"name": "d",
			"outputs": [
				{
					"internalType": "bytes1",
					"name": "",
					"type": "bytes1"
				}
			],
			"stateMutability": "view",
			"type": "function"
		},
		{
			"inputs": [],
			"name": "s",
			"outputs": [
				{
					"internalType": "string",
					"name": "",
					"type": "string"
				}
			],
			"stateMutability": "view",
			"type": "function"
		}
	]
}