{
	"code98/1signature.sol": {
		"VerifySig": {
			"abi": [
				{
					"inputs": [
						{
							"internalType": "bytes32",
							"name": "texthash",
							"type": "bytes32"
						}
					],
					"name": "getEthSigHasg",
					"outputs": [
						{
							"internalType": "bytes32",
							"name": "",
							"type": "bytes32"
						}
					],
					"stateMutability": "pure",
					"type": "function"
				},
				{
					"inputs": [
						{
							"internalType": "bytes32",
							"name": "_ethSigHash",
							"type": "bytes32"
						},
						{
							"internalType": "bytes",
							"name": "_sig",
							"type": "bytes"
						}
					],
					"name": "getRecover",
					"outputs": [
						{
							"internalType": "address",
							"name": "",
							"type": "address"
						}
					],
					"stateMutability": "pure",
					"type": "function"
				},
				{
					"inputs": [
						{
							"internalType": "string",
							"name": "_text",
							"type": "string"
						}
					],
					"name": "getTextHash",
					"outputs": [
						{
							"internalType": "bytes32",
							"name": "",
							"type": "bytes32"
						}
					],
					"stateMutability": "pure",
					"type": "function"
				},
				{
					"inputs": [
						{
							"internalType": "address",
							"name": "sig",
							"type": "address"
						},
						{
							"internalType": "string",
							"name": "_text",
							"type": "string"
						},
						{
							"internalType": "bytes",
							"name": "_sig",
							"type": "bytes"
						}
					],
					"name": "verify",
					"outputs": [
						{
							"internalType": "bool",
							"name": "",
							"type": "bool"
						}
					],
					"stateMutability": "pure",
					"type": "function"
				}
			],
			"devdoc": {
				"kind": "dev",
				"methods": {},
				"version": 1
			},
			"evm": {
				"assembly": "    /* \"code98/1signature.sol\":54:1116  contract VerifySig{... */\n  mstore(0x40, 0x80)\n  callvalue\n  dup1\n  iszero\n  tag_1\n  jumpi\n  0x00\n  dup1\n  revert\ntag_1:\n  pop\n  dataSize(sub_0)\n  dup1\n  dataOffset(sub_0)\n  0x00\n  codecopy\n  0x00\n  return\nstop\n\nsub_0: assembly {\n        /* \"code98/1signature.sol\":54:1116  contract VerifySig{... */\n      mstore(0x40, 0x80)\n      callvalue\n      dup1\n      iszero\n      tag_1\n      jumpi\n      0x00\n      dup1\n      revert\n    tag_1:\n      pop\n      jumpi(tag_2, lt(calldatasize, 0x04))\n      shr(0xe0, calldataload(0x00))\n      dup1\n      0x01822554\n      eq\n      tag_3\n      jumpi\n      dup1\n      0x2dd34f0f\n      eq\n      tag_4\n      jumpi\n      dup1\n      0x6e55df11\n      eq\n      tag_5\n      jumpi\n      dup1\n      0xbec00bf8\n      eq\n      tag_6\n      jumpi\n    tag_2:\n      0x00\n      dup1\n      revert\n        /* \"code98/1signature.sol\":469:605  function getEthSigHasg(bytes32 texthash)public pure returns(bytes32){... */\n    tag_3:\n      tag_7\n      0x04\n      dup1\n      calldatasize\n      sub\n      dup2\n      add\n      swap1\n      tag_8\n      swap2\n      swap1\n      tag_9\n      jump\t// in\n    tag_8:\n      tag_10\n      jump\t// in\n    tag_7:\n      mload(0x40)\n      tag_11\n      swap2\n      swap1\n      tag_12\n      jump\t// in\n    tag_11:\n      mload(0x40)\n      dup1\n      swap2\n      sub\n      swap1\n      return\n        /* \"code98/1signature.sol\":78:330  function verify(address sig,string memory _text,bytes memory _sig)external pure returns(bool){... */\n    tag_4:\n      tag_13\n      0x04\n      dup1\n      calldatasize\n      sub\n      dup2\n      add\n      swap1\n      tag_14\n      swap2\n      swap1\n      tag_15\n      jump\t// in\n    tag_14:\n      tag_16\n      jump\t// in\n    tag_13:\n      mload(0x40)\n      tag_17\n      swap2\n      swap1\n      tag_18\n      jump\t// in\n    tag_17:\n      mload(0x40)\n      dup1\n      swap2\n      sub\n      swap1\n      return\n        /* \"code98/1signature.sol\":611:803  function getRecover(bytes32 _ethSigHash,bytes memory _sig )public pure returns(address){... */\n    tag_5:\n      tag_19\n      0x04\n      dup1\n      calldatasize\n      sub\n      dup2\n      add\n      swap1\n      tag_20\n      swap2\n      swap1\n      tag_21\n      jump\t// in\n    tag_20:\n      tag_22\n      jump\t// in\n    tag_19:\n      mload(0x40)\n      tag_23\n      swap2\n      swap1\n      tag_24\n      jump\t// in\n    tag_23:\n      mload(0x40)\n      dup1\n      swap2\n      sub\n      swap1\n      return\n        /* \"code98/1signature.sol\":336:464  function getTextHash(string memory _text)public pure returns(bytes32){... */\n    tag_6:\n      tag_25\n      0x04\n      dup1\n      calldatasize\n      sub\n      dup2\n      add\n      swap1\n      tag_26\n      swap2\n      swap1\n      tag_27\n      jump\t// in\n    tag_26:\n      tag_28\n      jump\t// in\n    tag_25:\n      mload(0x40)\n      tag_29\n      swap2\n      swap1\n      tag_12\n      jump\t// in\n    tag_29:\n      mload(0x40)\n      dup1\n      swap2\n      sub\n      swap1\n      return\n        /* \"code98/1signature.sol\":469:605  function getEthSigHasg(bytes32 texthash)public pure returns(bytes32){... */\n    tag_10:\n        /* \"code98/1signature.sol\":529:536  bytes32 */\n      0x00\n        /* \"code98/1signature.sol\":587:595  texthash */\n      dup2\n        /* \"code98/1signature.sol\":564:596  abi.encodePacked(\"sig\",texthash) */\n      add(0x20, mload(0x40))\n      tag_31\n      swap2\n      swap1\n      tag_32\n      jump\t// in\n    tag_31:\n      mload(0x40)\n      0x20\n      dup2\n      dup4\n      sub\n      sub\n      dup2\n      mstore\n      swap1\n      0x40\n      mstore\n        /* \"code98/1signature.sol\":554:597  keccak256(abi.encodePacked(\"sig\",texthash)) */\n      dup1\n      mload\n      swap1\n      0x20\n      add\n      keccak256\n        /* \"code98/1signature.sol\":547:597  return keccak256(abi.encodePacked(\"sig\",texthash)) */\n      swap1\n      pop\n        /* \"code98/1signature.sol\":469:605  function getEthSigHasg(bytes32 texthash)public pure returns(bytes32){... */\n      swap2\n      swap1\n      pop\n      jump\t// out\n        /* \"code98/1signature.sol\":78:330  function verify(address sig,string memory _text,bytes memory _sig)external pure returns(bool){... */\n    tag_16:\n        /* \"code98/1signature.sol\":166:170  bool */\n      0x00\n        /* \"code98/1signature.sol\":181:197  bytes32 texthash */\n      dup1\n        /* \"code98/1signature.sol\":200:218  getTextHash(_text) */\n      tag_34\n        /* \"code98/1signature.sol\":212:217  _text */\n      dup5\n        /* \"code98/1signature.sol\":200:211  getTextHash */\n      tag_28\n        /* \"code98/1signature.sol\":200:218  getTextHash(_text) */\n      jump\t// in\n    tag_34:\n        /* \"code98/1signature.sol\":181:218  bytes32 texthash = getTextHash(_text) */\n      swap1\n      pop\n        /* \"code98/1signature.sol\":228:246  bytes32 ethSigHash */\n      0x00\n        /* \"code98/1signature.sol\":249:272  getEthSigHasg(texthash) */\n      tag_35\n        /* \"code98/1signature.sol\":263:271  texthash */\n      dup3\n        /* \"code98/1signature.sol\":249:262  getEthSigHasg */\n      tag_10\n        /* \"code98/1signature.sol\":249:272  getEthSigHasg(texthash) */\n      jump\t// in\n    tag_35:\n        /* \"code98/1signature.sol\":228:272  bytes32 ethSigHash = getEthSigHasg(texthash) */\n      swap1\n      pop\n        /* \"code98/1signature.sol\":320:323  sig */\n      dup6\n        /* \"code98/1signature.sol\":289:323  getRecover(ethSigHash,_sig) == sig */\n      0xffffffffffffffffffffffffffffffffffffffff\n      and\n        /* \"code98/1signature.sol\":289:316  getRecover(ethSigHash,_sig) */\n      tag_36\n        /* \"code98/1signature.sol\":300:310  ethSigHash */\n      dup3\n        /* \"code98/1signature.sol\":311:315  _sig */\n      dup7\n        /* \"code98/1signature.sol\":289:299  getRecover */\n      tag_22\n        /* \"code98/1signature.sol\":289:316  getRecover(ethSigHash,_sig) */\n      jump\t// in\n    tag_36:\n        /* \"code98/1signature.sol\":289:323  getRecover(ethSigHash,_sig) == sig */\n      0xffffffffffffffffffffffffffffffffffffffff\n      and\n      eq\n        /* \"code98/1signature.sol\":282:323  return getRecover(ethSigHash,_sig) == sig */\n      swap3\n      pop\n      pop\n      pop\n        /* \"code98/1signature.sol\":78:330  function verify(address sig,string memory _text,bytes memory _sig)external pure returns(bool){... */\n      swap4\n      swap3\n      pop\n      pop\n      pop\n      jump\t// out\n        /* \"code98/1signature.sol\":611:803  function getRecover(bytes32 _ethSigHash,bytes memory _sig )public pure returns(address){... */\n    tag_22:\n        /* \"code98/1signature.sol\":690:697  address */\n      0x00\n        /* \"code98/1signature.sol\":709:718  bytes32 r */\n      dup1\n        /* \"code98/1signature.sol\":719:728  bytes32 s */\n      0x00\n        /* \"code98/1signature.sol\":729:736  uint8 v */\n      dup1\n        /* \"code98/1signature.sol\":740:751  _spit(_sig) */\n      tag_38\n        /* \"code98/1signature.sol\":746:750  _sig */\n      dup6\n        /* \"code98/1signature.sol\":740:745  _spit */\n      tag_39\n        /* \"code98/1signature.sol\":740:751  _spit(_sig) */\n      jump\t// in\n    tag_38:\n        /* \"code98/1signature.sol\":708:751  (bytes32 r,bytes32 s,uint8 v) = _spit(_sig) */\n      swap3\n      pop\n      swap3\n      pop\n      swap3\n      pop\n        /* \"code98/1signature.sol\":768:796  ecrecover(_ethSigHash,v,r,s) */\n      0x01\n        /* \"code98/1signature.sol\":778:789  _ethSigHash */\n      dup7\n        /* \"code98/1signature.sol\":790:791  v */\n      dup3\n        /* \"code98/1signature.sol\":792:793  r */\n      dup6\n        /* \"code98/1signature.sol\":794:795  s */\n      dup6\n        /* \"code98/1signature.sol\":768:796  ecrecover(_ethSigHash,v,r,s) */\n      mload(0x40)\n      0x00\n      dup2\n      mstore\n      0x20\n      add\n      0x40\n      mstore\n      mload(0x40)\n      tag_40\n      swap5\n      swap4\n      swap3\n      swap2\n      swap1\n      tag_41\n      jump\t// in\n    tag_40:\n      0x20\n      mload(0x40)\n      0x20\n      dup2\n      sub\n      swap1\n      dup1\n      dup5\n      sub\n      swap1\n      dup6\n      gas\n      staticcall\n      iszero\n      dup1\n      iszero\n      tag_43\n      jumpi\n      returndatasize\n      0x00\n      dup1\n      returndatacopy\n      revert(0x00, returndatasize)\n    tag_43:\n      pop\n      pop\n      pop\n      mload(sub(mload(0x40), 0x20))\n        /* \"code98/1signature.sol\":761:796  return ecrecover(_ethSigHash,v,r,s) */\n      swap4\n      pop\n      pop\n      pop\n      pop\n        /* \"code98/1signature.sol\":611:803  function getRecover(bytes32 _ethSigHash,bytes memory _sig )public pure returns(address){... */\n      swap3\n      swap2\n      pop\n      pop\n      jump\t// out\n        /* \"code98/1signature.sol\":336:464  function getTextHash(string memory _text)public pure returns(bytes32){... */\n    tag_28:\n        /* \"code98/1signature.sol\":397:404  bytes32 */\n      0x00\n        /* \"code98/1signature.sol\":449:454  _text */\n      dup2\n        /* \"code98/1signature.sol\":432:455  abi.encodePacked(_text) */\n      add(0x20, mload(0x40))\n      tag_45\n      swap2\n      swap1\n      tag_46\n      jump\t// in\n    tag_45:\n      mload(0x40)\n      0x20\n      dup2\n      dup4\n      sub\n      sub\n      dup2\n      mstore\n      swap1\n      0x40\n      mstore\n        /* \"code98/1signature.sol\":422:456  keccak256(abi.encodePacked(_text)) */\n      dup1\n      mload\n      swap1\n      0x20\n      add\n      keccak256\n        /* \"code98/1signature.sol\":415:456  return keccak256(abi.encodePacked(_text)) */\n      swap1\n      pop\n        /* \"code98/1signature.sol\":336:464  function getTextHash(string memory _text)public pure returns(bytes32){... */\n      swap2\n      swap1\n      pop\n      jump\t// out\n        /* \"code98/1signature.sol\":808:1113  function _spit(bytes memory _sig)internal pure returns(bytes32 r,bytes32 s,uint8 v){... */\n    tag_39:\n        /* \"code98/1signature.sol\":863:872  bytes32 r */\n      0x00\n        /* \"code98/1signature.sol\":873:882  bytes32 s */\n      dup1\n        /* \"code98/1signature.sol\":883:890  uint8 v */\n      0x00\n        /* \"code98/1signature.sol\":922:924  65 */\n      0x41\n        /* \"code98/1signature.sol\":909:913  _sig */\n      dup5\n        /* \"code98/1signature.sol\":909:920  _sig.length */\n      mload\n        /* \"code98/1signature.sol\":909:924  _sig.length==65 */\n      eq\n        /* \"code98/1signature.sol\":901:934  require(_sig.length==65,\"error1\") */\n      tag_48\n      jumpi\n      mload(0x40)\n      0x08c379a000000000000000000000000000000000000000000000000000000000\n      dup2\n      mstore\n      0x04\n      add\n      tag_49\n      swap1\n      tag_50\n      jump\t// in\n    tag_49:\n      mload(0x40)\n      dup1\n      swap2\n      sub\n      swap1\n      revert\n    tag_48:\n        /* \"code98/1signature.sol\":1014:1016  32 */\n      0x20\n        /* \"code98/1signature.sol\":1009:1013  _sig */\n      dup5\n        /* \"code98/1signature.sol\":1005:1017  add(_sig,32) */\n      add\n        /* \"code98/1signature.sol\":999:1018  mload(add(_sig,32)) */\n      mload\n        /* \"code98/1signature.sol\":996:1018  r:=mload(add(_sig,32)) */\n      swap3\n      pop\n        /* \"code98/1signature.sol\":1049:1051  64 */\n      0x40\n        /* \"code98/1signature.sol\":1044:1048  _sig */\n      dup5\n        /* \"code98/1signature.sol\":1040:1052  add(_sig,64) */\n      add\n        /* \"code98/1signature.sol\":1034:1053  mload(add(_sig,64)) */\n      mload\n        /* \"code98/1signature.sol\":1031:1053  s:=mload(add(_sig,64)) */\n      swap2\n      pop\n        /* \"code98/1signature.sol\":1091:1093  96 */\n      0x60\n        /* \"code98/1signature.sol\":1086:1090  _sig */\n      dup5\n        /* \"code98/1signature.sol\":1082:1094  add(_sig,96) */\n      add\n        /* \"code98/1signature.sol\":1076:1095  mload(add(_sig,96)) */\n      mload\n        /* \"code98/1signature.sol\":1074:1075  0 */\n      0x00\n        /* \"code98/1signature.sol\":1069:1096  byte(0,mload(add(_sig,96))) */\n      byte\n        /* \"code98/1signature.sol\":1066:1096  v:=byte(0,mload(add(_sig,96))) */\n      swap1\n      pop\n        /* \"code98/1signature.sol\":808:1113  function _spit(bytes memory _sig)internal pure returns(bytes32 r,bytes32 s,uint8 v){... */\n      swap2\n      swap4\n      swap1\n      swap3\n      pop\n      jump\t// out\n        /* \"#utility.yul\":7:417   */\n    tag_52:\n        /* \"#utility.yul\":84:89   */\n      0x00\n        /* \"#utility.yul\":109:174   */\n      tag_54\n        /* \"#utility.yul\":125:173   */\n      tag_55\n        /* \"#utility.yul\":166:172   */\n      dup5\n        /* \"#utility.yul\":125:173   */\n      tag_56\n      jump\t// in\n    tag_55:\n        /* \"#utility.yul\":109:174   */\n      tag_57\n      jump\t// in\n    tag_54:\n        /* \"#utility.yul\":100:174   */\n      swap1\n      pop\n        /* \"#utility.yul\":197:203   */\n      dup3\n        /* \"#utility.yul\":190:195   */\n      dup2\n        /* \"#utility.yul\":183:204   */\n      mstore\n        /* \"#utility.yul\":235:239   */\n      0x20\n        /* \"#utility.yul\":228:233   */\n      dup2\n        /* \"#utility.yul\":224:240   */\n      add\n        /* \"#utility.yul\":273:276   */\n      dup5\n        /* \"#utility.yul\":264:270   */\n      dup5\n        /* \"#utility.yul\":259:262   */\n      dup5\n        /* \"#utility.yul\":255:271   */\n      add\n        /* \"#utility.yul\":252:277   */\n      gt\n        /* \"#utility.yul\":249:361   */\n      iszero\n      tag_58\n      jumpi\n        /* \"#utility.yul\":280:359   */\n      tag_59\n      tag_60\n      jump\t// in\n    tag_59:\n        /* \"#utility.yul\":249:361   */\n    tag_58:\n        /* \"#utility.yul\":370:411   */\n      tag_61\n        /* \"#utility.yul\":404:410   */\n      dup5\n        /* \"#utility.yul\":399:402   */\n      dup3\n        /* \"#utility.yul\":394:397   */\n      dup6\n        /* \"#utility.yul\":370:411   */\n      tag_62\n      jump\t// in\n    tag_61:\n        /* \"#utility.yul\":90:417   */\n      pop\n        /* \"#utility.yul\":7:417   */\n      swap4\n      swap3\n      pop\n      pop\n      pop\n      jump\t// out\n        /* \"#utility.yul\":423:835   */\n    tag_63:\n        /* \"#utility.yul\":501:506   */\n      0x00\n        /* \"#utility.yul\":526:592   */\n      tag_65\n        /* \"#utility.yul\":542:591   */\n      tag_66\n        /* \"#utility.yul\":584:590   */\n      dup5\n        /* \"#utility.yul\":542:591   */\n      tag_67\n      jump\t// in\n    tag_66:\n        /* \"#utility.yul\":526:592   */\n      tag_57\n      jump\t// in\n    tag_65:\n        /* \"#utility.yul\":517:592   */\n      swap1\n      pop\n        /* \"#utility.yul\":615:621   */\n      dup3\n        /* \"#utility.yul\":608:613   */\n      dup2\n        /* \"#utility.yul\":601:622   */\n      mstore\n        /* \"#utility.yul\":653:657   */\n      0x20\n        /* \"#utility.yul\":646:651   */\n      dup2\n        /* \"#utility.yul\":642:658   */\n      add\n        /* \"#utility.yul\":691:694   */\n      dup5\n        /* \"#utility.yul\":682:688   */\n      dup5\n        /* \"#utility.yul\":677:680   */\n      dup5\n        /* \"#utility.yul\":673:689   */\n      add\n        /* \"#utility.yul\":670:695   */\n      gt\n        /* \"#utility.yul\":667:779   */\n      iszero\n      tag_68\n      jumpi\n        /* \"#utility.yul\":698:777   */\n      tag_69\n      tag_60\n      jump\t// in\n    tag_69:\n        /* \"#utility.yul\":667:779   */\n    tag_68:\n        /* \"#utility.yul\":788:829   */\n      tag_70\n        /* \"#utility.yul\":822:828   */\n      dup5\n        /* \"#utility.yul\":817:820   */\n      dup3\n        /* \"#utility.yul\":812:815   */\n      dup6\n        /* \"#utility.yul\":788:829   */\n      tag_62\n      jump\t// in\n    tag_70:\n        /* \"#utility.yul\":507:835   */\n      pop\n        /* \"#utility.yul\":423:835   */\n      swap4\n      swap3\n      pop\n      pop\n      pop\n      jump\t// out\n        /* \"#utility.yul\":841:980   */\n    tag_71:\n        /* \"#utility.yul\":887:892   */\n      0x00\n        /* \"#utility.yul\":925:931   */\n      dup2\n        /* \"#utility.yul\":912:932   */\n      calldataload\n        /* \"#utility.yul\":903:932   */\n      swap1\n      pop\n        /* \"#utility.yul\":941:974   */\n      tag_73\n        /* \"#utility.yul\":968:973   */\n      dup2\n        /* \"#utility.yul\":941:974   */\n      tag_74\n      jump\t// in\n    tag_73:\n        /* \"#utility.yul\":841:980   */\n      swap3\n      swap2\n      pop\n      pop\n      jump\t// out\n        /* \"#utility.yul\":986:1125   */\n    tag_75:\n        /* \"#utility.yul\":1032:1037   */\n      0x00\n        /* \"#utility.yul\":1070:1076   */\n      dup2\n        /* \"#utility.yul\":1057:1077   */\n      calldataload\n        /* \"#utility.yul\":1048:1077   */\n      swap1\n      pop\n        /* \"#utility.yul\":1086:1119   */\n      tag_77\n        /* \"#utility.yul\":1113:1118   */\n      dup2\n        /* \"#utility.yul\":1086:1119   */\n      tag_78\n      jump\t// in\n    tag_77:\n        /* \"#utility.yul\":986:1125   */\n      swap3\n      swap2\n      pop\n      pop\n      jump\t// out\n        /* \"#utility.yul\":1144:1482   */\n    tag_79:\n        /* \"#utility.yul\":1199:1204   */\n      0x00\n        /* \"#utility.yul\":1248:1251   */\n      dup3\n        /* \"#utility.yul\":1241:1245   */\n      0x1f\n        /* \"#utility.yul\":1233:1239   */\n      dup4\n        /* \"#utility.yul\":1229:1246   */\n      add\n        /* \"#utility.yul\":1225:1252   */\n      slt\n        /* \"#utility.yul\":1215:1337   */\n      tag_81\n      jumpi\n        /* \"#utility.yul\":1256:1335   */\n      tag_82\n      tag_83\n      jump\t// in\n    tag_82:\n        /* \"#utility.yul\":1215:1337   */\n    tag_81:\n        /* \"#utility.yul\":1373:1379   */\n      dup2\n        /* \"#utility.yul\":1360:1380   */\n      calldataload\n        /* \"#utility.yul\":1398:1476   */\n      tag_84\n        /* \"#utility.yul\":1472:1475   */\n      dup5\n        /* \"#utility.yul\":1464:1470   */\n      dup3\n        /* \"#utility.yul\":1457:1461   */\n      0x20\n        /* \"#utility.yul\":1449:1455   */\n      dup7\n        /* \"#utility.yul\":1445:1462   */\n      add\n        /* \"#utility.yul\":1398:1476   */\n      tag_52\n      jump\t// in\n    tag_84:\n        /* \"#utility.yul\":1389:1476   */\n      swap2\n      pop\n        /* \"#utility.yul\":1205:1482   */\n      pop\n        /* \"#utility.yul\":1144:1482   */\n      swap3\n      swap2\n      pop\n      pop\n      jump\t// out\n        /* \"#utility.yul\":1502:1842   */\n    tag_85:\n        /* \"#utility.yul\":1558:1563   */\n      0x00\n        /* \"#utility.yul\":1607:1610   */\n      dup3\n        /* \"#utility.yul\":1600:1604   */\n      0x1f\n        /* \"#utility.yul\":1592:1598   */\n      dup4\n        /* \"#utility.yul\":1588:1605   */\n      add\n        /* \"#utility.yul\":1584:1611   */\n      slt\n        /* \"#utility.yul\":1574:1696   */\n      tag_87\n      jumpi\n        /* \"#utility.yul\":1615:1694   */\n      tag_88\n      tag_83\n      jump\t// in\n    tag_88:\n        /* \"#utility.yul\":1574:1696   */\n    tag_87:\n        /* \"#utility.yul\":1732:1738   */\n      dup2\n        /* \"#utility.yul\":1719:1739   */\n      calldataload\n        /* \"#utility.yul\":1757:1836   */\n      tag_89\n        /* \"#utility.yul\":1832:1835   */\n      dup5\n        /* \"#utility.yul\":1824:1830   */\n      dup3\n        /* \"#utility.yul\":1817:1821   */\n      0x20\n        /* \"#utility.yul\":1809:1815   */\n      dup7\n        /* \"#utility.yul\":1805:1822   */\n      add\n        /* \"#utility.yul\":1757:1836   */\n      tag_63\n      jump\t// in\n    tag_89:\n        /* \"#utility.yul\":1748:1836   */\n      swap2\n      pop\n        /* \"#utility.yul\":1564:1842   */\n      pop\n        /* \"#utility.yul\":1502:1842   */\n      swap3\n      swap2\n      pop\n      pop\n      jump\t// out\n        /* \"#utility.yul\":1848:2825   */\n    tag_15:\n        /* \"#utility.yul\":1944:1950   */\n      0x00\n        /* \"#utility.yul\":1952:1958   */\n      dup1\n        /* \"#utility.yul\":1960:1966   */\n      0x00\n        /* \"#utility.yul\":2009:2011   */\n      0x60\n        /* \"#utility.yul\":1997:2006   */\n      dup5\n        /* \"#utility.yul\":1988:1995   */\n      dup7\n        /* \"#utility.yul\":1984:2007   */\n      sub\n        /* \"#utility.yul\":1980:2012   */\n      slt\n        /* \"#utility.yul\":1977:2096   */\n      iszero\n      tag_91\n      jumpi\n        /* \"#utility.yul\":2015:2094   */\n      tag_92\n      tag_93\n      jump\t// in\n    tag_92:\n        /* \"#utility.yul\":1977:2096   */\n    tag_91:\n        /* \"#utility.yul\":2135:2136   */\n      0x00\n        /* \"#utility.yul\":2160:2213   */\n      tag_94\n        /* \"#utility.yul\":2205:2212   */\n      dup7\n        /* \"#utility.yul\":2196:2202   */\n      dup3\n        /* \"#utility.yul\":2185:2194   */\n      dup8\n        /* \"#utility.yul\":2181:2203   */\n      add\n        /* \"#utility.yul\":2160:2213   */\n      tag_71\n      jump\t// in\n    tag_94:\n        /* \"#utility.yul\":2150:2213   */\n      swap4\n      pop\n        /* \"#utility.yul\":2106:2223   */\n      pop\n        /* \"#utility.yul\":2290:2292   */\n      0x20\n        /* \"#utility.yul\":2279:2288   */\n      dup5\n        /* \"#utility.yul\":2275:2293   */\n      add\n        /* \"#utility.yul\":2262:2294   */\n      calldataload\n        /* \"#utility.yul\":2321:2339   */\n      0xffffffffffffffff\n        /* \"#utility.yul\":2313:2319   */\n      dup2\n        /* \"#utility.yul\":2310:2340   */\n      gt\n        /* \"#utility.yul\":2307:2424   */\n      iszero\n      tag_95\n      jumpi\n        /* \"#utility.yul\":2343:2422   */\n      tag_96\n      tag_97\n      jump\t// in\n    tag_96:\n        /* \"#utility.yul\":2307:2424   */\n    tag_95:\n        /* \"#utility.yul\":2448:2511   */\n      tag_98\n        /* \"#utility.yul\":2503:2510   */\n      dup7\n        /* \"#utility.yul\":2494:2500   */\n      dup3\n        /* \"#utility.yul\":2483:2492   */\n      dup8\n        /* \"#utility.yul\":2479:2501   */\n      add\n        /* \"#utility.yul\":2448:2511   */\n      tag_85\n      jump\t// in\n    tag_98:\n        /* \"#utility.yul\":2438:2511   */\n      swap3\n      pop\n        /* \"#utility.yul\":2233:2521   */\n      pop\n        /* \"#utility.yul\":2588:2590   */\n      0x40\n        /* \"#utility.yul\":2577:2586   */\n      dup5\n        /* \"#utility.yul\":2573:2591   */\n      add\n        /* \"#utility.yul\":2560:2592   */\n      calldataload\n        /* \"#utility.yul\":2619:2637   */\n      0xffffffffffffffff\n        /* \"#utility.yul\":2611:2617   */\n      dup2\n        /* \"#utility.yul\":2608:2638   */\n      gt\n        /* \"#utility.yul\":2605:2722   */\n      iszero\n      tag_99\n      jumpi\n        /* \"#utility.yul\":2641:2720   */\n      tag_100\n      tag_97\n      jump\t// in\n    tag_100:\n        /* \"#utility.yul\":2605:2722   */\n    tag_99:\n        /* \"#utility.yul\":2746:2808   */\n      tag_101\n        /* \"#utility.yul\":2800:2807   */\n      dup7\n        /* \"#utility.yul\":2791:2797   */\n      dup3\n        /* \"#utility.yul\":2780:2789   */\n      dup8\n        /* \"#utility.yul\":2776:2798   */\n      add\n        /* \"#utility.yul\":2746:2808   */\n      tag_79\n      jump\t// in\n    tag_101:\n        /* \"#utility.yul\":2736:2808   */\n      swap2\n      pop\n        /* \"#utility.yul\":2531:2818   */\n      pop\n        /* \"#utility.yul\":1848:2825   */\n      swap3\n      pop\n      swap3\n      pop\n      swap3\n      jump\t// out\n        /* \"#utility.yul\":2831:3160   */\n    tag_9:\n        /* \"#utility.yul\":2890:2896   */\n      0x00\n        /* \"#utility.yul\":2939:2941   */\n      0x20\n        /* \"#utility.yul\":2927:2936   */\n      dup3\n        /* \"#utility.yul\":2918:2925   */\n      dup5\n        /* \"#utility.yul\":2914:2937   */\n      sub\n        /* \"#utility.yul\":2910:2942   */\n      slt\n        /* \"#utility.yul\":2907:3026   */\n      iszero\n      tag_103\n      jumpi\n        /* \"#utility.yul\":2945:3024   */\n      tag_104\n      tag_93\n      jump\t// in\n    tag_104:\n        /* \"#utility.yul\":2907:3026   */\n    tag_103:\n        /* \"#utility.yul\":3065:3066   */\n      0x00\n        /* \"#utility.yul\":3090:3143   */\n      tag_105\n        /* \"#utility.yul\":3135:3142   */\n      dup5\n        /* \"#utility.yul\":3126:3132   */\n      dup3\n        /* \"#utility.yul\":3115:3124   */\n      dup6\n        /* \"#utility.yul\":3111:3133   */\n      add\n        /* \"#utility.yul\":3090:3143   */\n      tag_75\n      jump\t// in\n    tag_105:\n        /* \"#utility.yul\":3080:3143   */\n      swap2\n      pop\n        /* \"#utility.yul\":3036:3153   */\n      pop\n        /* \"#utility.yul\":2831:3160   */\n      swap3\n      swap2\n      pop\n      pop\n      jump\t// out\n        /* \"#utility.yul\":3166:3818   */\n    tag_21:\n        /* \"#utility.yul\":3243:3249   */\n      0x00\n        /* \"#utility.yul\":3251:3257   */\n      dup1\n        /* \"#utility.yul\":3300:3302   */\n      0x40\n        /* \"#utility.yul\":3288:3297   */\n      dup4\n        /* \"#utility.yul\":3279:3286   */\n      dup6\n        /* \"#utility.yul\":3275:3298   */\n      sub\n        /* \"#utility.yul\":3271:3303   */\n      slt\n        /* \"#utility.yul\":3268:3387   */\n      iszero\n      tag_107\n      jumpi\n        /* \"#utility.yul\":3306:3385   */\n      tag_108\n      tag_93\n      jump\t// in\n    tag_108:\n        /* \"#utility.yul\":3268:3387   */\n    tag_107:\n        /* \"#utility.yul\":3426:3427   */\n      0x00\n        /* \"#utility.yul\":3451:3504   */\n      tag_109\n        /* \"#utility.yul\":3496:3503   */\n      dup6\n        /* \"#utility.yul\":3487:3493   */\n      dup3\n        /* \"#utility.yul\":3476:3485   */\n      dup7\n        /* \"#utility.yul\":3472:3494   */\n      add\n        /* \"#utility.yul\":3451:3504   */\n      tag_75\n      jump\t// in\n    tag_109:\n        /* \"#utility.yul\":3441:3504   */\n      swap3\n      pop\n        /* \"#utility.yul\":3397:3514   */\n      pop\n        /* \"#utility.yul\":3581:3583   */\n      0x20\n        /* \"#utility.yul\":3570:3579   */\n      dup4\n        /* \"#utility.yul\":3566:3584   */\n      add\n        /* \"#utility.yul\":3553:3585   */\n      calldataload\n        /* \"#utility.yul\":3612:3630   */\n      0xffffffffffffffff\n        /* \"#utility.yul\":3604:3610   */\n      dup2\n        /* \"#utility.yul\":3601:3631   */\n      gt\n        /* \"#utility.yul\":3598:3715   */\n      iszero\n      tag_110\n      jumpi\n        /* \"#utility.yul\":3634:3713   */\n      tag_111\n      tag_97\n      jump\t// in\n    tag_111:\n        /* \"#utility.yul\":3598:3715   */\n    tag_110:\n        /* \"#utility.yul\":3739:3801   */\n      tag_112\n        /* \"#utility.yul\":3793:3800   */\n      dup6\n        /* \"#utility.yul\":3784:3790   */\n      dup3\n        /* \"#utility.yul\":3773:3782   */\n      dup7\n        /* \"#utility.yul\":3769:3791   */\n      add\n        /* \"#utility.yul\":3739:3801   */\n      tag_79\n      jump\t// in\n    tag_112:\n        /* \"#utility.yul\":3729:3801   */\n      swap2\n      pop\n        /* \"#utility.yul\":3524:3811   */\n      pop\n        /* \"#utility.yul\":3166:3818   */\n      swap3\n      pop\n      swap3\n      swap1\n      pop\n      jump\t// out\n        /* \"#utility.yul\":3824:4333   */\n    tag_27:\n        /* \"#utility.yul\":3893:3899   */\n      0x00\n        /* \"#utility.yul\":3942:3944   */\n      0x20\n        /* \"#utility.yul\":3930:3939   */\n      dup3\n        /* \"#utility.yul\":3921:3928   */\n      dup5\n        /* \"#utility.yul\":3917:3940   */\n      sub\n        /* \"#utility.yul\":3913:3945   */\n      slt\n        /* \"#utility.yul\":3910:4029   */\n      iszero\n      tag_114\n      jumpi\n        /* \"#utility.yul\":3948:4027   */\n      tag_115\n      tag_93\n      jump\t// in\n    tag_115:\n        /* \"#utility.yul\":3910:4029   */\n    tag_114:\n        /* \"#utility.yul\":4096:4097   */\n      0x00\n        /* \"#utility.yul\":4085:4094   */\n      dup3\n        /* \"#utility.yul\":4081:4098   */\n      add\n        /* \"#utility.yul\":4068:4099   */\n      calldataload\n        /* \"#utility.yul\":4126:4144   */\n      0xffffffffffffffff\n        /* \"#utility.yul\":4118:4124   */\n      dup2\n        /* \"#utility.yul\":4115:4145   */\n      gt\n        /* \"#utility.yul\":4112:4229   */\n      iszero\n      tag_116\n      jumpi\n        /* \"#utility.yul\":4148:4227   */\n      tag_117\n      tag_97\n      jump\t// in\n    tag_117:\n        /* \"#utility.yul\":4112:4229   */\n    tag_116:\n        /* \"#utility.yul\":4253:4316   */\n      tag_118\n        /* \"#utility.yul\":4308:4315   */\n      dup5\n        /* \"#utility.yul\":4299:4305   */\n      dup3\n        /* \"#utility.yul\":4288:4297   */\n      dup6\n        /* \"#utility.yul\":4284:4306   */\n      add\n        /* \"#utility.yul\":4253:4316   */\n      tag_85\n      jump\t// in\n    tag_118:\n        /* \"#utility.yul\":4243:4316   */\n      swap2\n      pop\n        /* \"#utility.yul\":4039:4326   */\n      pop\n        /* \"#utility.yul\":3824:4333   */\n      swap3\n      swap2\n      pop\n      pop\n      jump\t// out\n        /* \"#utility.yul\":4339:4457   */\n    tag_119:\n        /* \"#utility.yul\":4426:4450   */\n      tag_121\n        /* \"#utility.yul\":4444:4449   */\n      dup2\n        /* \"#utility.yul\":4426:4450   */\n      tag_122\n      jump\t// in\n    tag_121:\n        /* \"#utility.yul\":4421:4424   */\n      dup3\n        /* \"#utility.yul\":4414:4451   */\n      mstore\n        /* \"#utility.yul\":4339:4457   */\n      pop\n      pop\n      jump\t// out\n        /* \"#utility.yul\":4463:4572   */\n    tag_123:\n        /* \"#utility.yul\":4544:4565   */\n      tag_125\n        /* \"#utility.yul\":4559:4564   */\n      dup2\n        /* \"#utility.yul\":4544:4565   */\n      tag_126\n      jump\t// in\n    tag_125:\n        /* \"#utility.yul\":4539:4542   */\n      dup3\n        /* \"#utility.yul\":4532:4566   */\n      mstore\n        /* \"#utility.yul\":4463:4572   */\n      pop\n      pop\n      jump\t// out\n        /* \"#utility.yul\":4578:4696   */\n    tag_127:\n        /* \"#utility.yul\":4665:4689   */\n      tag_129\n        /* \"#utility.yul\":4683:4688   */\n      dup2\n        /* \"#utility.yul\":4665:4689   */\n      tag_130\n      jump\t// in\n    tag_129:\n        /* \"#utility.yul\":4660:4663   */\n      dup3\n        /* \"#utility.yul\":4653:4690   */\n      mstore\n        /* \"#utility.yul\":4578:4696   */\n      pop\n      pop\n      jump\t// out\n        /* \"#utility.yul\":4702:4859   */\n    tag_131:\n        /* \"#utility.yul\":4807:4852   */\n      tag_133\n        /* \"#utility.yul\":4827:4851   */\n      tag_134\n        /* \"#utility.yul\":4845:4850   */\n      dup3\n        /* \"#utility.yul\":4827:4851   */\n      tag_130\n      jump\t// in\n    tag_134:\n        /* \"#utility.yul\":4807:4852   */\n      tag_135\n      jump\t// in\n    tag_133:\n        /* \"#utility.yul\":4802:4805   */\n      dup3\n        /* \"#utility.yul\":4795:4853   */\n      mstore\n        /* \"#utility.yul\":4702:4859   */\n      pop\n      pop\n      jump\t// out\n        /* \"#utility.yul\":4865:5242   */\n    tag_136:\n        /* \"#utility.yul\":4971:4974   */\n      0x00\n        /* \"#utility.yul\":4999:5038   */\n      tag_138\n        /* \"#utility.yul\":5032:5037   */\n      dup3\n        /* \"#utility.yul\":4999:5038   */\n      tag_139\n      jump\t// in\n    tag_138:\n        /* \"#utility.yul\":5054:5143   */\n      tag_140\n        /* \"#utility.yul\":5136:5142   */\n      dup2\n        /* \"#utility.yul\":5131:5134   */\n      dup6\n        /* \"#utility.yul\":5054:5143   */\n      tag_141\n      jump\t// in\n    tag_140:\n        /* \"#utility.yul\":5047:5143   */\n      swap4\n      pop\n        /* \"#utility.yul\":5152:5204   */\n      tag_142\n        /* \"#utility.yul\":5197:5203   */\n      dup2\n        /* \"#utility.yul\":5192:5195   */\n      dup6\n        /* \"#utility.yul\":5185:5189   */\n      0x20\n        /* \"#utility.yul\":5178:5183   */\n      dup7\n        /* \"#utility.yul\":5174:5190   */\n      add\n        /* \"#utility.yul\":5152:5204   */\n      tag_143\n      jump\t// in\n    tag_142:\n        /* \"#utility.yul\":5229:5235   */\n      dup1\n        /* \"#utility.yul\":5224:5227   */\n      dup5\n        /* \"#utility.yul\":5220:5236   */\n      add\n        /* \"#utility.yul\":5213:5236   */\n      swap2\n      pop\n        /* \"#utility.yul\":4975:5242   */\n      pop\n        /* \"#utility.yul\":4865:5242   */\n      swap3\n      swap2\n      pop\n      pop\n      jump\t// out\n        /* \"#utility.yul\":5248:5613   */\n    tag_144:\n        /* \"#utility.yul\":5390:5393   */\n      0x00\n        /* \"#utility.yul\":5411:5477   */\n      tag_146\n        /* \"#utility.yul\":5475:5476   */\n      0x06\n        /* \"#utility.yul\":5470:5473   */\n      dup4\n        /* \"#utility.yul\":5411:5477   */\n      tag_147\n      jump\t// in\n    tag_146:\n        /* \"#utility.yul\":5404:5477   */\n      swap2\n      pop\n        /* \"#utility.yul\":5486:5579   */\n      tag_148\n        /* \"#utility.yul\":5575:5578   */\n      dup3\n        /* \"#utility.yul\":5486:5579   */\n      tag_149\n      jump\t// in\n    tag_148:\n        /* \"#utility.yul\":5604:5606   */\n      0x20\n        /* \"#utility.yul\":5599:5602   */\n      dup3\n        /* \"#utility.yul\":5595:5607   */\n      add\n        /* \"#utility.yul\":5588:5607   */\n      swap1\n      pop\n        /* \"#utility.yul\":5248:5613   */\n      swap2\n      swap1\n      pop\n      jump\t// out\n        /* \"#utility.yul\":5619:6019   */\n    tag_150:\n        /* \"#utility.yul\":5779:5782   */\n      0x00\n        /* \"#utility.yul\":5800:5884   */\n      tag_152\n        /* \"#utility.yul\":5882:5883   */\n      0x03\n        /* \"#utility.yul\":5877:5880   */\n      dup4\n        /* \"#utility.yul\":5800:5884   */\n      tag_141\n      jump\t// in\n    tag_152:\n        /* \"#utility.yul\":5793:5884   */\n      swap2\n      pop\n        /* \"#utility.yul\":5893:5986   */\n      tag_153\n        /* \"#utility.yul\":5982:5985   */\n      dup3\n        /* \"#utility.yul\":5893:5986   */\n      tag_154\n      jump\t// in\n    tag_153:\n        /* \"#utility.yul\":6011:6012   */\n      0x03\n        /* \"#utility.yul\":6006:6009   */\n      dup3\n        /* \"#utility.yul\":6002:6013   */\n      add\n        /* \"#utility.yul\":5995:6013   */\n      swap1\n      pop\n        /* \"#utility.yul\":5619:6019   */\n      swap2\n      swap1\n      pop\n      jump\t// out\n        /* \"#utility.yul\":6025:6137   */\n    tag_155:\n        /* \"#utility.yul\":6108:6130   */\n      tag_157\n        /* \"#utility.yul\":6124:6129   */\n      dup2\n        /* \"#utility.yul\":6108:6130   */\n      tag_158\n      jump\t// in\n    tag_157:\n        /* \"#utility.yul\":6103:6106   */\n      dup3\n        /* \"#utility.yul\":6096:6131   */\n      mstore\n        /* \"#utility.yul\":6025:6137   */\n      pop\n      pop\n      jump\t// out\n        /* \"#utility.yul\":6143:6418   */\n    tag_46:\n        /* \"#utility.yul\":6275:6278   */\n      0x00\n        /* \"#utility.yul\":6297:6392   */\n      tag_160\n        /* \"#utility.yul\":6388:6391   */\n      dup3\n        /* \"#utility.yul\":6379:6385   */\n      dup5\n        /* \"#utility.yul\":6297:6392   */\n      tag_136\n      jump\t// in\n    tag_160:\n        /* \"#utility.yul\":6290:6392   */\n      swap2\n      pop\n        /* \"#utility.yul\":6409:6412   */\n      dup2\n        /* \"#utility.yul\":6402:6412   */\n      swap1\n      pop\n        /* \"#utility.yul\":6143:6418   */\n      swap3\n      swap2\n      pop\n      pop\n      jump\t// out\n        /* \"#utility.yul\":6424:6946   */\n    tag_32:\n        /* \"#utility.yul\":6637:6640   */\n      0x00\n        /* \"#utility.yul\":6659:6807   */\n      tag_162\n        /* \"#utility.yul\":6803:6806   */\n      dup3\n        /* \"#utility.yul\":6659:6807   */\n      tag_150\n      jump\t// in\n    tag_162:\n        /* \"#utility.yul\":6652:6807   */\n      swap2\n      pop\n        /* \"#utility.yul\":6817:6892   */\n      tag_163\n        /* \"#utility.yul\":6888:6891   */\n      dup3\n        /* \"#utility.yul\":6879:6885   */\n      dup5\n        /* \"#utility.yul\":6817:6892   */\n      tag_131\n      jump\t// in\n    tag_163:\n        /* \"#utility.yul\":6917:6919   */\n      0x20\n        /* \"#utility.yul\":6912:6915   */\n      dup3\n        /* \"#utility.yul\":6908:6920   */\n      add\n        /* \"#utility.yul\":6901:6920   */\n      swap2\n      pop\n        /* \"#utility.yul\":6937:6940   */\n      dup2\n        /* \"#utility.yul\":6930:6940   */\n      swap1\n      pop\n        /* \"#utility.yul\":6424:6946   */\n      swap3\n      swap2\n      pop\n      pop\n      jump\t// out\n        /* \"#utility.yul\":6952:7174   */\n    tag_24:\n        /* \"#utility.yul\":7045:7049   */\n      0x00\n        /* \"#utility.yul\":7083:7085   */\n      0x20\n        /* \"#utility.yul\":7072:7081   */\n      dup3\n        /* \"#utility.yul\":7068:7086   */\n      add\n        /* \"#utility.yul\":7060:7086   */\n      swap1\n      pop\n        /* \"#utility.yul\":7096:7167   */\n      tag_165\n        /* \"#utility.yul\":7164:7165   */\n      0x00\n        /* \"#utility.yul\":7153:7162   */\n      dup4\n        /* \"#utility.yul\":7149:7166   */\n      add\n        /* \"#utility.yul\":7140:7146   */\n      dup5\n        /* \"#utility.yul\":7096:7167   */\n      tag_119\n      jump\t// in\n    tag_165:\n        /* \"#utility.yul\":6952:7174   */\n      swap3\n      swap2\n      pop\n      pop\n      jump\t// out\n        /* \"#utility.yul\":7180:7390   */\n    tag_18:\n        /* \"#utility.yul\":7267:7271   */\n      0x00\n        /* \"#utility.yul\":7305:7307   */\n      0x20\n        /* \"#utility.yul\":7294:7303   */\n      dup3\n        /* \"#utility.yul\":7290:7308   */\n      add\n        /* \"#utility.yul\":7282:7308   */\n      swap1\n      pop\n        /* \"#utility.yul\":7318:7383   */\n      tag_167\n        /* \"#utility.yul\":7380:7381   */\n      0x00\n        /* \"#utility.yul\":7369:7378   */\n      dup4\n        /* \"#utility.yul\":7365:7382   */\n      add\n        /* \"#utility.yul\":7356:7362   */\n      dup5\n        /* \"#utility.yul\":7318:7383   */\n      tag_123\n      jump\t// in\n    tag_167:\n        /* \"#utility.yul\":7180:7390   */\n      swap3\n      swap2\n      pop\n      pop\n      jump\t// out\n        /* \"#utility.yul\":7396:7618   */\n    tag_12:\n        /* \"#utility.yul\":7489:7493   */\n      0x00\n        /* \"#utility.yul\":7527:7529   */\n      0x20\n        /* \"#utility.yul\":7516:7525   */\n      dup3\n        /* \"#utility.yul\":7512:7530   */\n      add\n        /* \"#utility.yul\":7504:7530   */\n      swap1\n      pop\n        /* \"#utility.yul\":7540:7611   */\n      tag_169\n        /* \"#utility.yul\":7608:7609   */\n      0x00\n        /* \"#utility.yul\":7597:7606   */\n      dup4\n        /* \"#utility.yul\":7593:7610   */\n      add\n        /* \"#utility.yul\":7584:7590   */\n      dup5\n        /* \"#utility.yul\":7540:7611   */\n      tag_127\n      jump\t// in\n    tag_169:\n        /* \"#utility.yul\":7396:7618   */\n      swap3\n      swap2\n      pop\n      pop\n      jump\t// out\n        /* \"#utility.yul\":7624:8169   */\n    tag_41:\n        /* \"#utility.yul\":7797:7801   */\n      0x00\n        /* \"#utility.yul\":7835:7838   */\n      0x80\n        /* \"#utility.yul\":7824:7833   */\n      dup3\n        /* \"#utility.yul\":7820:7839   */\n      add\n        /* \"#utility.yul\":7812:7839   */\n      swap1\n      pop\n        /* \"#utility.yul\":7849:7920   */\n      tag_171\n        /* \"#utility.yul\":7917:7918   */\n      0x00\n        /* \"#utility.yul\":7906:7915   */\n      dup4\n        /* \"#utility.yul\":7902:7919   */\n      add\n        /* \"#utility.yul\":7893:7899   */\n      dup8\n        /* \"#utility.yul\":7849:7920   */\n      tag_127\n      jump\t// in\n    tag_171:\n        /* \"#utility.yul\":7930:7998   */\n      tag_172\n        /* \"#utility.yul\":7994:7996   */\n      0x20\n        /* \"#utility.yul\":7983:7992   */\n      dup4\n        /* \"#utility.yul\":7979:7997   */\n      add\n        /* \"#utility.yul\":7970:7976   */\n      dup7\n        /* \"#utility.yul\":7930:7998   */\n      tag_155\n      jump\t// in\n    tag_172:\n        /* \"#utility.yul\":8008:8080   */\n      tag_173\n        /* \"#utility.yul\":8076:8078   */\n      0x40\n        /* \"#utility.yul\":8065:8074   */\n      dup4\n        /* \"#utility.yul\":8061:8079   */\n      add\n        /* \"#utility.yul\":8052:8058   */\n      dup6\n        /* \"#utility.yul\":8008:8080   */\n      tag_127\n      jump\t// in\n    tag_173:\n        /* \"#utility.yul\":8090:8162   */\n      tag_174\n        /* \"#utility.yul\":8158:8160   */\n      0x60\n        /* \"#utility.yul\":8147:8156   */\n      dup4\n        /* \"#utility.yul\":8143:8161   */\n      add\n        /* \"#utility.yul\":8134:8140   */\n      dup5\n        /* \"#utility.yul\":8090:8162   */\n      tag_127\n      jump\t// in\n    tag_174:\n        /* \"#utility.yul\":7624:8169   */\n      swap6\n      swap5\n      pop\n      pop\n      pop\n      pop\n      pop\n      jump\t// out\n        /* \"#utility.yul\":8175:8594   */\n    tag_50:\n        /* \"#utility.yul\":8341:8345   */\n      0x00\n        /* \"#utility.yul\":8379:8381   */\n      0x20\n        /* \"#utility.yul\":8368:8377   */\n      dup3\n        /* \"#utility.yul\":8364:8382   */\n      add\n        /* \"#utility.yul\":8356:8382   */\n      swap1\n      pop\n        /* \"#utility.yul\":8428:8437   */\n      dup2\n        /* \"#utility.yul\":8422:8426   */\n      dup2\n        /* \"#utility.yul\":8418:8438   */\n      sub\n        /* \"#utility.yul\":8414:8415   */\n      0x00\n        /* \"#utility.yul\":8403:8412   */\n      dup4\n        /* \"#utility.yul\":8399:8416   */\n      add\n        /* \"#utility.yul\":8392:8439   */\n      mstore\n        /* \"#utility.yul\":8456:8587   */\n      tag_176\n        /* \"#utility.yul\":8582:8586   */\n      dup2\n        /* \"#utility.yul\":8456:8587   */\n      tag_144\n      jump\t// in\n    tag_176:\n        /* \"#utility.yul\":8448:8587   */\n      swap1\n      pop\n        /* \"#utility.yul\":8175:8594   */\n      swap2\n      swap1\n      pop\n      jump\t// out\n        /* \"#utility.yul\":8600:8729   */\n    tag_57:\n        /* \"#utility.yul\":8634:8640   */\n      0x00\n        /* \"#utility.yul\":8661:8681   */\n      tag_178\n      tag_179\n      jump\t// in\n    tag_178:\n        /* \"#utility.yul\":8651:8681   */\n      swap1\n      pop\n        /* \"#utility.yul\":8690:8723   */\n      tag_180\n        /* \"#utility.yul\":8718:8722   */\n      dup3\n        /* \"#utility.yul\":8710:8716   */\n      dup3\n        /* \"#utility.yul\":8690:8723   */\n      tag_181\n      jump\t// in\n    tag_180:\n        /* \"#utility.yul\":8600:8729   */\n      swap2\n      swap1\n      pop\n      jump\t// out\n        /* \"#utility.yul\":8735:8810   */\n    tag_179:\n        /* \"#utility.yul\":8768:8774   */\n      0x00\n        /* \"#utility.yul\":8801:8803   */\n      0x40\n        /* \"#utility.yul\":8795:8804   */\n      mload\n        /* \"#utility.yul\":8785:8804   */\n      swap1\n      pop\n        /* \"#utility.yul\":8735:8810   */\n      swap1\n      jump\t// out\n        /* \"#utility.yul\":8816:9123   */\n    tag_56:\n        /* \"#utility.yul\":8877:8881   */\n      0x00\n        /* \"#utility.yul\":8967:8985   */\n      0xffffffffffffffff\n        /* \"#utility.yul\":8959:8965   */\n      dup3\n        /* \"#utility.yul\":8956:8986   */\n      gt\n        /* \"#utility.yul\":8953:9009   */\n      iszero\n      tag_184\n      jumpi\n        /* \"#utility.yul\":8989:9007   */\n      tag_185\n      tag_186\n      jump\t// in\n    tag_185:\n        /* \"#utility.yul\":8953:9009   */\n    tag_184:\n        /* \"#utility.yul\":9027:9056   */\n      tag_187\n        /* \"#utility.yul\":9049:9055   */\n      dup3\n        /* \"#utility.yul\":9027:9056   */\n      tag_188\n      jump\t// in\n    tag_187:\n        /* \"#utility.yul\":9019:9056   */\n      swap1\n      pop\n        /* \"#utility.yul\":9111:9115   */\n      0x20\n        /* \"#utility.yul\":9105:9109   */\n      dup2\n        /* \"#utility.yul\":9101:9116   */\n      add\n        /* \"#utility.yul\":9093:9116   */\n      swap1\n      pop\n        /* \"#utility.yul\":8816:9123   */\n      swap2\n      swap1\n      pop\n      jump\t// out\n        /* \"#utility.yul\":9129:9437   */\n    tag_67:\n        /* \"#utility.yul\":9191:9195   */\n      0x00\n        /* \"#utility.yul\":9281:9299   */\n      0xffffffffffffffff\n        /* \"#utility.yul\":9273:9279   */\n      dup3\n        /* \"#utility.yul\":9270:9300   */\n      gt\n        /* \"#utility.yul\":9267:9323   */\n      iszero\n      tag_190\n      jumpi\n        /* \"#utility.yul\":9303:9321   */\n      tag_191\n      tag_186\n      jump\t// in\n    tag_191:\n        /* \"#utility.yul\":9267:9323   */\n    tag_190:\n        /* \"#utility.yul\":9341:9370   */\n      tag_192\n        /* \"#utility.yul\":9363:9369   */\n      dup3\n        /* \"#utility.yul\":9341:9370   */\n      tag_188\n      jump\t// in\n    tag_192:\n        /* \"#utility.yul\":9333:9370   */\n      swap1\n      pop\n        /* \"#utility.yul\":9425:9429   */\n      0x20\n        /* \"#utility.yul\":9419:9423   */\n      dup2\n        /* \"#utility.yul\":9415:9430   */\n      add\n        /* \"#utility.yul\":9407:9430   */\n      swap1\n      pop\n        /* \"#utility.yul\":9129:9437   */\n      swap2\n      swap1\n      pop\n      jump\t// out\n        /* \"#utility.yul\":9443:9542   */\n    tag_139:\n        /* \"#utility.yul\":9495:9501   */\n      0x00\n        /* \"#utility.yul\":9529:9534   */\n      dup2\n        /* \"#utility.yul\":9523:9535   */\n      mload\n        /* \"#utility.yul\":9513:9535   */\n      swap1\n      pop\n        /* \"#utility.yul\":9443:9542   */\n      swap2\n      swap1\n      pop\n      jump\t// out\n        /* \"#utility.yul\":9548:9717   */\n    tag_147:\n        /* \"#utility.yul\":9632:9643   */\n      0x00\n        /* \"#utility.yul\":9666:9672   */\n      dup3\n        /* \"#utility.yul\":9661:9664   */\n      dup3\n        /* \"#utility.yul\":9654:9673   */\n      mstore\n        /* \"#utility.yul\":9706:9710   */\n      0x20\n        /* \"#utility.yul\":9701:9704   */\n      dup3\n        /* \"#utility.yul\":9697:9711   */\n      add\n        /* \"#utility.yul\":9682:9711   */\n      swap1\n      pop\n        /* \"#utility.yul\":9548:9717   */\n      swap3\n      swap2\n      pop\n      pop\n      jump\t// out\n        /* \"#utility.yul\":9723:9871   */\n    tag_141:\n        /* \"#utility.yul\":9825:9836   */\n      0x00\n        /* \"#utility.yul\":9862:9865   */\n      dup2\n        /* \"#utility.yul\":9847:9865   */\n      swap1\n      pop\n        /* \"#utility.yul\":9723:9871   */\n      swap3\n      swap2\n      pop\n      pop\n      jump\t// out\n        /* \"#utility.yul\":9877:9973   */\n    tag_122:\n        /* \"#utility.yul\":9914:9921   */\n      0x00\n        /* \"#utility.yul\":9943:9967   */\n      tag_197\n        /* \"#utility.yul\":9961:9966   */\n      dup3\n        /* \"#utility.yul\":9943:9967   */\n      tag_198\n      jump\t// in\n    tag_197:\n        /* \"#utility.yul\":9932:9967   */\n      swap1\n      pop\n        /* \"#utility.yul\":9877:9973   */\n      swap2\n      swap1\n      pop\n      jump\t// out\n        /* \"#utility.yul\":9979:10069   */\n    tag_126:\n        /* \"#utility.yul\":10013:10020   */\n      0x00\n        /* \"#utility.yul\":10056:10061   */\n      dup2\n        /* \"#utility.yul\":10049:10062   */\n      iszero\n        /* \"#utility.yul\":10042:10063   */\n      iszero\n        /* \"#utility.yul\":10031:10063   */\n      swap1\n      pop\n        /* \"#utility.yul\":9979:10069   */\n      swap2\n      swap1\n      pop\n      jump\t// out\n        /* \"#utility.yul\":10075:10152   */\n    tag_130:\n        /* \"#utility.yul\":10112:10119   */\n      0x00\n        /* \"#utility.yul\":10141:10146   */\n      dup2\n        /* \"#utility.yul\":10130:10146   */\n      swap1\n      pop\n        /* \"#utility.yul\":10075:10152   */\n      swap2\n      swap1\n      pop\n      jump\t// out\n        /* \"#utility.yul\":10158:10284   */\n    tag_198:\n        /* \"#utility.yul\":10195:10202   */\n      0x00\n        /* \"#utility.yul\":10235:10277   */\n      0xffffffffffffffffffffffffffffffffffffffff\n        /* \"#utility.yul\":10228:10233   */\n      dup3\n        /* \"#utility.yul\":10224:10278   */\n      and\n        /* \"#utility.yul\":10213:10278   */\n      swap1\n      pop\n        /* \"#utility.yul\":10158:10284   */\n      swap2\n      swap1\n      pop\n      jump\t// out\n        /* \"#utility.yul\":10290:10376   */\n    tag_158:\n        /* \"#utility.yul\":10325:10332   */\n      0x00\n        /* \"#utility.yul\":10365:10369   */\n      0xff\n        /* \"#utility.yul\":10358:10363   */\n      dup3\n        /* \"#utility.yul\":10354:10370   */\n      and\n        /* \"#utility.yul\":10343:10370   */\n      swap1\n      pop\n        /* \"#utility.yul\":10290:10376   */\n      swap2\n      swap1\n      pop\n      jump\t// out\n        /* \"#utility.yul\":10382:10536   */\n    tag_62:\n        /* \"#utility.yul\":10466:10472   */\n      dup3\n        /* \"#utility.yul\":10461:10464   */\n      dup2\n        /* \"#utility.yul\":10456:10459   */\n      dup4\n        /* \"#utility.yul\":10443:10473   */\n      calldatacopy\n        /* \"#utility.yul\":10528:10529   */\n      0x00\n        /* \"#utility.yul\":10519:10525   */\n      dup4\n        /* \"#utility.yul\":10514:10517   */\n      dup4\n        /* \"#utility.yul\":10510:10526   */\n      add\n        /* \"#utility.yul\":10503:10530   */\n      mstore\n        /* \"#utility.yul\":10382:10536   */\n      pop\n      pop\n      pop\n      jump\t// out\n        /* \"#utility.yul\":10542:10849   */\n    tag_143:\n        /* \"#utility.yul\":10610:10611   */\n      0x00\n        /* \"#utility.yul\":10620:10733   */\n    tag_205:\n        /* \"#utility.yul\":10634:10640   */\n      dup4\n        /* \"#utility.yul\":10631:10632   */\n      dup2\n        /* \"#utility.yul\":10628:10641   */\n      lt\n        /* \"#utility.yul\":10620:10733   */\n      iszero\n      tag_207\n      jumpi\n        /* \"#utility.yul\":10719:10720   */\n      dup1\n        /* \"#utility.yul\":10714:10717   */\n      dup3\n        /* \"#utility.yul\":10710:10721   */\n      add\n        /* \"#utility.yul\":10704:10722   */\n      mload\n        /* \"#utility.yul\":10700:10701   */\n      dup2\n        /* \"#utility.yul\":10695:10698   */\n      dup5\n        /* \"#utility.yul\":10691:10702   */\n      add\n        /* \"#utility.yul\":10684:10723   */\n      mstore\n        /* \"#utility.yul\":10656:10658   */\n      0x20\n        /* \"#utility.yul\":10653:10654   */\n      dup2\n        /* \"#utility.yul\":10649:10659   */\n      add\n        /* \"#utility.yul\":10644:10659   */\n      swap1\n      pop\n        /* \"#utility.yul\":10620:10733   */\n      jump(tag_205)\n    tag_207:\n        /* \"#utility.yul\":10751:10757   */\n      dup4\n        /* \"#utility.yul\":10748:10749   */\n      dup2\n        /* \"#utility.yul\":10745:10758   */\n      gt\n        /* \"#utility.yul\":10742:10843   */\n      iszero\n      tag_208\n      jumpi\n        /* \"#utility.yul\":10831:10832   */\n      0x00\n        /* \"#utility.yul\":10822:10828   */\n      dup5\n        /* \"#utility.yul\":10817:10820   */\n      dup5\n        /* \"#utility.yul\":10813:10829   */\n      add\n        /* \"#utility.yul\":10806:10833   */\n      mstore\n        /* \"#utility.yul\":10742:10843   */\n    tag_208:\n        /* \"#utility.yul\":10591:10849   */\n      pop\n        /* \"#utility.yul\":10542:10849   */\n      pop\n      pop\n      pop\n      jump\t// out\n        /* \"#utility.yul\":10855:11136   */\n    tag_181:\n        /* \"#utility.yul\":10938:10965   */\n      tag_210\n        /* \"#utility.yul\":10960:10964   */\n      dup3\n        /* \"#utility.yul\":10938:10965   */\n      tag_188\n      jump\t// in\n    tag_210:\n        /* \"#utility.yul\":10930:10936   */\n      dup2\n        /* \"#utility.yul\":10926:10966   */\n      add\n        /* \"#utility.yul\":11068:11074   */\n      dup2\n        /* \"#utility.yul\":11056:11066   */\n      dup2\n        /* \"#utility.yul\":11053:11075   */\n      lt\n        /* \"#utility.yul\":11032:11050   */\n      0xffffffffffffffff\n        /* \"#utility.yul\":11020:11030   */\n      dup3\n        /* \"#utility.yul\":11017:11051   */\n      gt\n        /* \"#utility.yul\":11014:11076   */\n      or\n        /* \"#utility.yul\":11011:11099   */\n      iszero\n      tag_211\n      jumpi\n        /* \"#utility.yul\":11079:11097   */\n      tag_212\n      tag_186\n      jump\t// in\n    tag_212:\n        /* \"#utility.yul\":11011:11099   */\n    tag_211:\n        /* \"#utility.yul\":11119:11129   */\n      dup1\n        /* \"#utility.yul\":11115:11117   */\n      0x40\n        /* \"#utility.yul\":11108:11130   */\n      mstore\n        /* \"#utility.yul\":10898:11136   */\n      pop\n        /* \"#utility.yul\":10855:11136   */\n      pop\n      pop\n      jump\t// out\n        /* \"#utility.yul\":11142:11221   */\n    tag_135:\n        /* \"#utility.yul\":11181:11188   */\n      0x00\n        /* \"#utility.yul\":11210:11215   */\n      dup2\n        /* \"#utility.yul\":11199:11215   */\n      swap1\n      pop\n        /* \"#utility.yul\":11142:11221   */\n      swap2\n      swap1\n      pop\n      jump\t// out\n        /* \"#utility.yul\":11227:11407   */\n    tag_186:\n        /* \"#utility.yul\":11275:11352   */\n      0x4e487b7100000000000000000000000000000000000000000000000000000000\n        /* \"#utility.yul\":11272:11273   */\n      0x00\n        /* \"#utility.yul\":11265:11353   */\n      mstore\n        /* \"#utility.yul\":11372:11376   */\n      0x41\n        /* \"#utility.yul\":11369:11370   */\n      0x04\n        /* \"#utility.yul\":11362:11377   */\n      mstore\n        /* \"#utility.yul\":11396:11400   */\n      0x24\n        /* \"#utility.yul\":11393:11394   */\n      0x00\n        /* \"#utility.yul\":11386:11401   */\n      revert\n        /* \"#utility.yul\":11413:11530   */\n    tag_83:\n        /* \"#utility.yul\":11522:11523   */\n      0x00\n        /* \"#utility.yul\":11519:11520   */\n      dup1\n        /* \"#utility.yul\":11512:11524   */\n      revert\n        /* \"#utility.yul\":11536:11653   */\n    tag_60:\n        /* \"#utility.yul\":11645:11646   */\n      0x00\n        /* \"#utility.yul\":11642:11643   */\n      dup1\n        /* \"#utility.yul\":11635:11647   */\n      revert\n        /* \"#utility.yul\":11659:11776   */\n    tag_97:\n        /* \"#utility.yul\":11768:11769   */\n      0x00\n        /* \"#utility.yul\":11765:11766   */\n      dup1\n        /* \"#utility.yul\":11758:11770   */\n      revert\n        /* \"#utility.yul\":11782:11899   */\n    tag_93:\n        /* \"#utility.yul\":11891:11892   */\n      0x00\n        /* \"#utility.yul\":11888:11889   */\n      dup1\n        /* \"#utility.yul\":11881:11893   */\n      revert\n        /* \"#utility.yul\":11905:12007   */\n    tag_188:\n        /* \"#utility.yul\":11946:11952   */\n      0x00\n        /* \"#utility.yul\":11997:11999   */\n      0x1f\n        /* \"#utility.yul\":11993:12000   */\n      not\n        /* \"#utility.yul\":11988:11990   */\n      0x1f\n        /* \"#utility.yul\":11981:11986   */\n      dup4\n        /* \"#utility.yul\":11977:11991   */\n      add\n        /* \"#utility.yul\":11973:12001   */\n      and\n        /* \"#utility.yul\":11963:12001   */\n      swap1\n      pop\n        /* \"#utility.yul\":11905:12007   */\n      swap2\n      swap1\n      pop\n      jump\t// out\n        /* \"#utility.yul\":12013:12169   */\n    tag_149:\n        /* \"#utility.yul\":12153:12161   */\n      0x6572726f72310000000000000000000000000000000000000000000000000000\n        /* \"#utility.yul\":12149:12150   */\n      0x00\n        /* \"#utility.yul\":12141:12147   */\n      dup3\n        /* \"#utility.yul\":12137:12151   */\n      add\n        /* \"#utility.yul\":12130:12162   */\n      mstore\n        /* \"#utility.yul\":12013:12169   */\n      pop\n      jump\t// out\n        /* \"#utility.yul\":12175:12328   */\n    tag_154:\n        /* \"#utility.yul\":12315:12320   */\n      0x7369670000000000000000000000000000000000000000000000000000000000\n        /* \"#utility.yul\":12311:12312   */\n      0x00\n        /* \"#utility.yul\":12303:12309   */\n      dup3\n        /* \"#utility.yul\":12299:12313   */\n      add\n        /* \"#utility.yul\":12292:12321   */\n      mstore\n        /* \"#utility.yul\":12175:12328   */\n      pop\n      jump\t// out\n        /* \"#utility.yul\":12334:12456   */\n    tag_74:\n        /* \"#utility.yul\":12407:12431   */\n      tag_223\n        /* \"#utility.yul\":12425:12430   */\n      dup2\n        /* \"#utility.yul\":12407:12431   */\n      tag_122\n      jump\t// in\n    tag_223:\n        /* \"#utility.yul\":12400:12405   */\n      dup2\n        /* \"#utility.yul\":12397:12432   */\n      eq\n        /* \"#utility.yul\":12387:12450   */\n      tag_224\n      jumpi\n        /* \"#utility.yul\":12446:12447   */\n      0x00\n        /* \"#utility.yul\":12443:12444   */\n      dup1\n        /* \"#utility.yul\":12436:12448   */\n      revert\n        /* \"#utility.yul\":12387:12450   */\n    tag_224:\n        /* \"#utility.yul\":12334:12456   */\n      pop\n      jump\t// out\n        /* \"#utility.yul\":12462:12584   */\n    tag_78:\n        /* \"#utility.yul\":12535:12559   */\n      tag_226\n        /* \"#utility.yul\":12553:12558   */\n      dup2\n        /* \"#utility.yul\":12535:12559   */\n      tag_130\n      jump\t// in\n    tag_226:\n        /* \"#utility.yul\":12528:12533   */\n      dup2\n        /* \"#utility.yul\":12525:12560   */\n      eq\n        /* \"#utility.yul\":12515:12578   */\n      tag_227\n      jumpi\n        /* \"#utility.yul\":12574:12575   */\n      0x00\n        /* \"#utility.yul\":12571:12572   */\n      dup1\n        /* \"#utility.yul\":12564:12576   */\n      revert\n        /* \"#utility.yul\":12515:12578   */\n    tag_227:\n        /* \"#utility.yul\":12462:12584   */\n      pop\n      jump\t// out\n\n    auxdata: 0xa2646970667358221220349a61409306805a7788b1c383c2b6c537a705f5bee332e5d2ae644ad90bac3f64736f6c63430008070033\n}\n",
				"bytecode": {
					"linkReferences": {},
					"object": "608060405234801561001057600080fd5b50610954806100206000396000f3fe608060405234801561001057600080fd5b506004361061004c5760003560e01c806301822554146100515780632dd34f0f146100815780636e55df11146100b1578063bec00bf8146100e1575b600080fd5b61006b6004803603810190610066919061043b565b610111565b604051610078919061064a565b60405180910390f35b61009b600480360381019061009691906103b0565b610141565b6040516100a8919061062f565b60405180910390f35b6100cb60048036038101906100c69190610468565b61019f565b6040516100d89190610614565b60405180910390f35b6100fb60048036038101906100f691906104c4565b61020e565b604051610108919061064a565b60405180910390f35b60008160405160200161012491906105ee565b604051602081830303815290604052805190602001209050919050565b60008061014d8461020e565b9050600061015a82610111565b90508573ffffffffffffffffffffffffffffffffffffffff1661017d828661019f565b73ffffffffffffffffffffffffffffffffffffffff1614925050509392505050565b6000806000806101ae8561023e565b925092509250600186828585604051600081526020016040526040516101d79493929190610665565b6020604051602081039080840390855afa1580156101f9573d6000803e3d6000fd5b50505060206040510351935050505092915050565b60008160405160200161022191906105d7565b604051602081830303815290604052805190602001209050919050565b60008060006041845114610287576040517f08c379a000000000000000000000000000000000000000000000000000000000815260040161027e906106aa565b60405180910390fd5b6020840151925060408401519150606084015160001a90509193909250565b60006102b96102b4846106ef565b6106ca565b9050828152602081018484840111156102d5576102d461087e565b5b6102e08482856107cd565b509392505050565b60006102fb6102f684610720565b6106ca565b9050828152602081018484840111156103175761031661087e565b5b6103228482856107cd565b509392505050565b600081359050610339816108f0565b92915050565b60008135905061034e81610907565b92915050565b600082601f83011261036957610368610879565b5b81356103798482602086016102a6565b91505092915050565b600082601f83011261039757610396610879565b5b81356103a78482602086016102e8565b91505092915050565b6000806000606084860312156103c9576103c8610888565b5b60006103d78682870161032a565b935050602084013567ffffffffffffffff8111156103f8576103f7610883565b5b61040486828701610382565b925050604084013567ffffffffffffffff81111561042557610424610883565b5b61043186828701610354565b9150509250925092565b60006020828403121561045157610450610888565b5b600061045f8482850161033f565b91505092915050565b6000806040838503121561047f5761047e610888565b5b600061048d8582860161033f565b925050602083013567ffffffffffffffff8111156104ae576104ad610883565b5b6104ba85828601610354565b9150509250929050565b6000602082840312156104da576104d9610888565b5b600082013567ffffffffffffffff8111156104f8576104f7610883565b5b61050484828501610382565b91505092915050565b61051681610778565b82525050565b6105258161078a565b82525050565b61053481610796565b82525050565b61054b61054682610796565b610840565b82525050565b600061055c82610751565b610566818561076d565b93506105768185602086016107dc565b80840191505092915050565b600061058f60068361075c565b915061059a8261089e565b602082019050919050565b60006105b260038361076d565b91506105bd826108c7565b600382019050919050565b6105d1816107c0565b82525050565b60006105e38284610551565b915081905092915050565b60006105f9826105a5565b9150610605828461053a565b60208201915081905092915050565b6000602082019050610629600083018461050d565b92915050565b6000602082019050610644600083018461051c565b92915050565b600060208201905061065f600083018461052b565b92915050565b600060808201905061067a600083018761052b565b61068760208301866105c8565b610694604083018561052b565b6106a1606083018461052b565b95945050505050565b600060208201905081810360008301526106c381610582565b9050919050565b60006106d46106e5565b90506106e0828261080f565b919050565b6000604051905090565b600067ffffffffffffffff82111561070a5761070961084a565b5b6107138261088d565b9050602081019050919050565b600067ffffffffffffffff82111561073b5761073a61084a565b5b6107448261088d565b9050602081019050919050565b600081519050919050565b600082825260208201905092915050565b600081905092915050565b6000610783826107a0565b9050919050565b60008115159050919050565b6000819050919050565b600073ffffffffffffffffffffffffffffffffffffffff82169050919050565b600060ff82169050919050565b82818337600083830152505050565b60005b838110156107fa5780820151818401526020810190506107df565b83811115610809576000848401525b50505050565b6108188261088d565b810181811067ffffffffffffffff821117156108375761083661084a565b5b80604052505050565b6000819050919050565b7f4e487b7100000000000000000000000000000000000000000000000000000000600052604160045260246000fd5b600080fd5b600080fd5b600080fd5b600080fd5b6000601f19601f8301169050919050565b7f6572726f72310000000000000000000000000000000000000000000000000000600082015250565b7f7369670000000000000000000000000000000000000000000000000000000000600082015250565b6108f981610778565b811461090457600080fd5b50565b61091081610796565b811461091b57600080fd5b5056fea2646970667358221220349a61409306805a7788b1c383c2b6c537a705f5bee332e5d2ae644ad90bac3f64736f6c63430008070033",
					"opcodes": "PUSH1 0x80 PUSH1 0x40 MSTORE CALLVALUE DUP1 ISZERO PUSH2 0x10 JUMPI PUSH1 0x0 DUP1 REVERT JUMPDEST POP PUSH2 0x954 DUP1 PUSH2 0x20 PUSH1 0x0 CODECOPY PUSH1 0x0 RETURN INVALID PUSH1 0x80 PUSH1 0x40 MSTORE CALLVALUE DUP1 ISZERO PUSH2 0x10 JUMPI PUSH1 0x0 DUP1 REVERT JUMPDEST POP PUSH1 0x4 CALLDATASIZE LT PUSH2 0x4C JUMPI PUSH1 0x0 CALLDATALOAD PUSH1 0xE0 SHR DUP1 PUSH4 0x1822554 EQ PUSH2 0x51 JUMPI DUP1 PUSH4 0x2DD34F0F EQ PUSH2 0x81 JUMPI DUP1 PUSH4 0x6E55DF11 EQ PUSH2 0xB1 JUMPI DUP1 PUSH4 0xBEC00BF8 EQ PUSH2 0xE1 JUMPI JUMPDEST PUSH1 0x0 DUP1 REVERT JUMPDEST PUSH2 0x6B PUSH1 0x4 DUP1 CALLDATASIZE SUB DUP2 ADD SWAP1 PUSH2 0x66 SWAP2 SWAP1 PUSH2 0x43B JUMP JUMPDEST PUSH2 0x111 JUMP JUMPDEST PUSH1 0x40 MLOAD PUSH2 0x78 SWAP2 SWAP1 PUSH2 0x64A JUMP JUMPDEST PUSH1 0x40 MLOAD DUP1 SWAP2 SUB SWAP1 RETURN JUMPDEST PUSH2 0x9B PUSH1 0x4 DUP1 CALLDATASIZE SUB DUP2 ADD SWAP1 PUSH2 0x96 SWAP2 SWAP1 PUSH2 0x3B0 JUMP JUMPDEST PUSH2 0x141 JUMP JUMPDEST PUSH1 0x40 MLOAD PUSH2 0xA8 SWAP2 SWAP1 PUSH2 0x62F JUMP JUMPDEST PUSH1 0x40 MLOAD DUP1 SWAP2 SUB SWAP1 RETURN JUMPDEST PUSH2 0xCB PUSH1 0x4 DUP1 CALLDATASIZE SUB DUP2 ADD SWAP1 PUSH2 0xC6 SWAP2 SWAP1 PUSH2 0x468 JUMP JUMPDEST PUSH2 0x19F JUMP JUMPDEST PUSH1 0x40 MLOAD PUSH2 0xD8 SWAP2 SWAP1 PUSH2 0x614 JUMP JUMPDEST PUSH1 0x40 MLOAD DUP1 SWAP2 SUB SWAP1 RETURN JUMPDEST PUSH2 0xFB PUSH1 0x4 DUP1 CALLDATASIZE SUB DUP2 ADD SWAP1 PUSH2 0xF6 SWAP2 SWAP1 PUSH2 0x4C4 JUMP JUMPDEST PUSH2 0x20E JUMP JUMPDEST PUSH1 0x40 MLOAD PUSH2 0x108 SWAP2 SWAP1 PUSH2 0x64A JUMP JUMPDEST PUSH1 0x40 MLOAD DUP1 SWAP2 SUB SWAP1 RETURN JUMPDEST PUSH1 0x0 DUP2 PUSH1 0x40 MLOAD PUSH1 0x20 ADD PUSH2 0x124 SWAP2 SWAP1 PUSH2 0x5EE JUMP JUMPDEST PUSH1 0x40 MLOAD PUSH1 0x20 DUP2 DUP4 SUB SUB DUP2 MSTORE SWAP1 PUSH1 0x40 MSTORE DUP1 MLOAD SWAP1 PUSH1 0x20 ADD KECCAK256 SWAP1 POP SWAP2 SWAP1 POP JUMP JUMPDEST PUSH1 0x0 DUP1 PUSH2 0x14D DUP5 PUSH2 0x20E JUMP JUMPDEST SWAP1 POP PUSH1 0x0 PUSH2 0x15A DUP3 PUSH2 0x111 JUMP JUMPDEST SWAP1 POP DUP6 PUSH20 0xFFFFFFFFFFFFFFFFFFFFFFFFFFFFFFFFFFFFFFFF AND PUSH2 0x17D DUP3 DUP7 PUSH2 0x19F JUMP JUMPDEST PUSH20 0xFFFFFFFFFFFFFFFFFFFFFFFFFFFFFFFFFFFFFFFF AND EQ SWAP3 POP POP POP SWAP4 SWAP3 POP POP POP JUMP JUMPDEST PUSH1 0x0 DUP1 PUSH1 0x0 DUP1 PUSH2 0x1AE DUP6 PUSH2 0x23E JUMP JUMPDEST SWAP3 POP SWAP3 POP SWAP3 POP PUSH1 0x1 DUP7 DUP3 DUP6 DUP6 PUSH1 0x40 MLOAD PUSH1 0x0 DUP2 MSTORE PUSH1 0x20 ADD PUSH1 0x40 MSTORE PUSH1 0x40 MLOAD PUSH2 0x1D7 SWAP5 SWAP4 SWAP3 SWAP2 SWAP1 PUSH2 0x665 JUMP JUMPDEST PUSH1 0x20 PUSH1 0x40 MLOAD PUSH1 0x20 DUP2 SUB SWAP1 DUP1 DUP5 SUB SWAP1 DUP6 GAS STATICCALL ISZERO DUP1 ISZERO PUSH2 0x1F9 JUMPI RETURNDATASIZE PUSH1 0x0 DUP1 RETURNDATACOPY RETURNDATASIZE PUSH1 0x0 REVERT JUMPDEST POP POP POP PUSH1 0x20 PUSH1 0x40 MLOAD SUB MLOAD SWAP4 POP POP POP POP SWAP3 SWAP2 POP POP JUMP JUMPDEST PUSH1 0x0 DUP2 PUSH1 0x40 MLOAD PUSH1 0x20 ADD PUSH2 0x221 SWAP2 SWAP1 PUSH2 0x5D7 JUMP JUMPDEST PUSH1 0x40 MLOAD PUSH1 0x20 DUP2 DUP4 SUB SUB DUP2 MSTORE SWAP1 PUSH1 0x40 MSTORE DUP1 MLOAD SWAP1 PUSH1 0x20 ADD KECCAK256 SWAP1 POP SWAP2 SWAP1 POP JUMP JUMPDEST PUSH1 0x0 DUP1 PUSH1 0x0 PUSH1 0x41 DUP5 MLOAD EQ PUSH2 0x287 JUMPI PUSH1 0x40 MLOAD PUSH32 0x8C379A000000000000000000000000000000000000000000000000000000000 DUP2 MSTORE PUSH1 0x4 ADD PUSH2 0x27E SWAP1 PUSH2 0x6AA JUMP JUMPDEST PUSH1 0x40 MLOAD DUP1 SWAP2 SUB SWAP1 REVERT JUMPDEST PUSH1 0x20 DUP5 ADD MLOAD SWAP3 POP PUSH1 0x40 DUP5 ADD MLOAD SWAP2 POP PUSH1 0x60 DUP5 ADD MLOAD PUSH1 0x0 BYTE SWAP1 POP SWAP2 SWAP4 SWAP1 SWAP3 POP JUMP JUMPDEST PUSH1 0x0 PUSH2 0x2B9 PUSH2 0x2B4 DUP5 PUSH2 0x6EF JUMP JUMPDEST PUSH2 0x6CA JUMP JUMPDEST SWAP1 POP DUP3 DUP2 MSTORE PUSH1 0x20 DUP2 ADD DUP5 DUP5 DUP5 ADD GT ISZERO PUSH2 0x2D5 JUMPI PUSH2 0x2D4 PUSH2 0x87E JUMP JUMPDEST JUMPDEST PUSH2 0x2E0 DUP5 DUP3 DUP6 PUSH2 0x7CD JUMP JUMPDEST POP SWAP4 SWAP3 POP POP POP JUMP JUMPDEST PUSH1 0x0 PUSH2 0x2FB PUSH2 0x2F6 DUP5 PUSH2 0x720 JUMP JUMPDEST PUSH2 0x6CA JUMP JUMPDEST SWAP1 POP DUP3 DUP2 MSTORE PUSH1 0x20 DUP2 ADD DUP5 DUP5 DUP5 ADD GT ISZERO PUSH2 0x317 JUMPI PUSH2 0x316 PUSH2 0x87E JUMP JUMPDEST JUMPDEST PUSH2 0x322 DUP5 DUP3 DUP6 PUSH2 0x7CD JUMP JUMPDEST POP SWAP4 SWAP3 POP POP POP JUMP JUMPDEST PUSH1 0x0 DUP2 CALLDATALOAD SWAP1 POP PUSH2 0x339 DUP2 PUSH2 0x8F0 JUMP JUMPDEST SWAP3 SWAP2 POP POP JUMP JUMPDEST PUSH1 0x0 DUP2 CALLDATALOAD SWAP1 POP PUSH2 0x34E DUP2 PUSH2 0x907 JUMP JUMPDEST SWAP3 SWAP2 POP POP JUMP JUMPDEST PUSH1 0x0 DUP3 PUSH1 0x1F DUP4 ADD SLT PUSH2 0x369 JUMPI PUSH2 0x368 PUSH2 0x879 JUMP JUMPDEST JUMPDEST DUP2 CALLDATALOAD PUSH2 0x379 DUP5 DUP3 PUSH1 0x20 DUP7 ADD PUSH2 0x2A6 JUMP JUMPDEST SWAP2 POP POP SWAP3 SWAP2 POP POP JUMP JUMPDEST PUSH1 0x0 DUP3 PUSH1 0x1F DUP4 ADD SLT PUSH2 0x397 JUMPI PUSH2 0x396 PUSH2 0x879 JUMP JUMPDEST JUMPDEST DUP2 CALLDATALOAD PUSH2 0x3A7 DUP5 DUP3 PUSH1 0x20 DUP7 ADD PUSH2 0x2E8 JUMP JUMPDEST SWAP2 POP POP SWAP3 SWAP2 POP POP JUMP JUMPDEST PUSH1 0x0 DUP1 PUSH1 0x0 PUSH1 0x60 DUP5 DUP7 SUB SLT ISZERO PUSH2 0x3C9 JUMPI PUSH2 0x3C8 PUSH2 0x888 JUMP JUMPDEST JUMPDEST PUSH1 0x0 PUSH2 0x3D7 DUP7 DUP3 DUP8 ADD PUSH2 0x32A JUMP JUMPDEST SWAP4 POP POP PUSH1 0x20 DUP5 ADD CALLDATALOAD PUSH8 0xFFFFFFFFFFFFFFFF DUP2 GT ISZERO PUSH2 0x3F8 JUMPI PUSH2 0x3F7 PUSH2 0x883 JUMP JUMPDEST JUMPDEST PUSH2 0x404 DUP7 DUP3 DUP8 ADD PUSH2 0x382 JUMP JUMPDEST SWAP3 POP POP PUSH1 0x40 DUP5 ADD CALLDATALOAD PUSH8 0xFFFFFFFFFFFFFFFF DUP2 GT ISZERO PUSH2 0x425 JUMPI PUSH2 0x424 PUSH2 0x883 JUMP JUMPDEST JUMPDEST PUSH2 0x431 DUP7 DUP3 DUP8 ADD PUSH2 0x354 JUMP JUMPDEST SWAP2 POP POP SWAP3 POP SWAP3 POP SWAP3 JUMP JUMPDEST PUSH1 0x0 PUSH1 0x20 DUP3 DUP5 SUB SLT ISZERO PUSH2 0x451 JUMPI PUSH2 0x450 PUSH2 0x888 JUMP JUMPDEST JUMPDEST PUSH1 0x0 PUSH2 0x45F DUP5 DUP3 DUP6 ADD PUSH2 0x33F JUMP JUMPDEST SWAP2 POP POP SWAP3 SWAP2 POP POP JUMP JUMPDEST PUSH1 0x0 DUP1 PUSH1 0x40 DUP4 DUP6 SUB SLT ISZERO PUSH2 0x47F JUMPI PUSH2 0x47E PUSH2 0x888 JUMP JUMPDEST JUMPDEST PUSH1 0x0 PUSH2 0x48D DUP6 DUP3 DUP7 ADD PUSH2 0x33F JUMP JUMPDEST SWAP3 POP POP PUSH1 0x20 DUP4 ADD CALLDATALOAD PUSH8 0xFFFFFFFFFFFFFFFF DUP2 GT ISZERO PUSH2 0x4AE JUMPI PUSH2 0x4AD PUSH2 0x883 JUMP JUMPDEST JUMPDEST PUSH2 0x4BA DUP6 DUP3 DUP7 ADD PUSH2 0x354 JUMP JUMPDEST SWAP2 POP POP SWAP3 POP SWAP3 SWAP1 POP JUMP JUMPDEST PUSH1 0x0 PUSH1 0x20 DUP3 DUP5 SUB SLT ISZERO PUSH2 0x4DA JUMPI PUSH2 0x4D9 PUSH2 0x888 JUMP JUMPDEST JUMPDEST PUSH1 0x0 DUP3 ADD CALLDATALOAD PUSH8 0xFFFFFFFFFFFFFFFF DUP2 GT ISZERO PUSH2 0x4F8 JUMPI PUSH2 0x4F7 PUSH2 0x883 JUMP JUMPDEST JUMPDEST PUSH2 0x504 DUP5 DUP3 DUP6 ADD PUSH2 0x382 JUMP JUMPDEST SWAP2 POP POP SWAP3 SWAP2 POP POP JUMP JUMPDEST PUSH2 0x516 DUP2 PUSH2 0x778 JUMP JUMPDEST DUP3 MSTORE POP POP JUMP JUMPDEST PUSH2 0x525 DUP2 PUSH2 0x78A JUMP JUMPDEST DUP3 MSTORE POP POP JUMP JUMPDEST PUSH2 0x534 DUP2 PUSH2 0x796 JUMP JUMPDEST DUP3 MSTORE POP POP JUMP JUMPDEST PUSH2 0x54B PUSH2 0x546 DUP3 PUSH2 0x796 JUMP JUMPDEST PUSH2 0x840 JUMP JUMPDEST DUP3 MSTORE POP POP JUMP JUMPDEST PUSH1 0x0 PUSH2 0x55C DUP3 PUSH2 0x751 JUMP JUMPDEST PUSH2 0x566 DUP2 DUP6 PUSH2 0x76D JUMP JUMPDEST SWAP4 POP PUSH2 0x576 DUP2 DUP6 PUSH1 0x20 DUP7 ADD PUSH2 0x7DC JUMP JUMPDEST DUP1 DUP5 ADD SWAP2 POP POP SWAP3 SWAP2 POP POP JUMP JUMPDEST PUSH1 0x0 PUSH2 0x58F PUSH1 0x6 DUP4 PUSH2 0x75C JUMP JUMPDEST SWAP2 POP PUSH2 0x59A DUP3 PUSH2 0x89E JUMP JUMPDEST PUSH1 0x20 DUP3 ADD SWAP1 POP SWAP2 SWAP1 POP JUMP JUMPDEST PUSH1 0x0 PUSH2 0x5B2 PUSH1 0x3 DUP4 PUSH2 0x76D JUMP JUMPDEST SWAP2 POP PUSH2 0x5BD DUP3 PUSH2 0x8C7 JUMP JUMPDEST PUSH1 0x3 DUP3 ADD SWAP1 POP SWAP2 SWAP1 POP JUMP JUMPDEST PUSH2 0x5D1 DUP2 PUSH2 0x7C0 JUMP JUMPDEST DUP3 MSTORE POP POP JUMP JUMPDEST PUSH1 0x0 PUSH2 0x5E3 DUP3 DUP5 PUSH2 0x551 JUMP JUMPDEST SWAP2 POP DUP2 SWAP1 POP SWAP3 SWAP2 POP POP JUMP JUMPDEST PUSH1 0x0 PUSH2 0x5F9 DUP3 PUSH2 0x5A5 JUMP JUMPDEST SWAP2 POP PUSH2 0x605 DUP3 DUP5 PUSH2 0x53A JUMP JUMPDEST PUSH1 0x20 DUP3 ADD SWAP2 POP DUP2 SWAP1 POP SWAP3 SWAP2 POP POP JUMP JUMPDEST PUSH1 0x0 PUSH1 0x20 DUP3 ADD SWAP1 POP PUSH2 0x629 PUSH1 0x0 DUP4 ADD DUP5 PUSH2 0x50D JUMP JUMPDEST SWAP3 SWAP2 POP POP JUMP JUMPDEST PUSH1 0x0 PUSH1 0x20 DUP3 ADD SWAP1 POP PUSH2 0x644 PUSH1 0x0 DUP4 ADD DUP5 PUSH2 0x51C JUMP JUMPDEST SWAP3 SWAP2 POP POP JUMP JUMPDEST PUSH1 0x0 PUSH1 0x20 DUP3 ADD SWAP1 POP PUSH2 0x65F PUSH1 0x0 DUP4 ADD DUP5 PUSH2 0x52B JUMP JUMPDEST SWAP3 SWAP2 POP POP JUMP JUMPDEST PUSH1 0x0 PUSH1 0x80 DUP3 ADD SWAP1 POP PUSH2 0x67A PUSH1 0x0 DUP4 ADD DUP8 PUSH2 0x52B JUMP JUMPDEST PUSH2 0x687 PUSH1 0x20 DUP4 ADD DUP7 PUSH2 0x5C8 JUMP JUMPDEST PUSH2 0x694 PUSH1 0x40 DUP4 ADD DUP6 PUSH2 0x52B JUMP JUMPDEST PUSH2 0x6A1 PUSH1 0x60 DUP4 ADD DUP5 PUSH2 0x52B JUMP JUMPDEST SWAP6 SWAP5 POP POP POP POP POP JUMP JUMPDEST PUSH1 0x0 PUSH1 0x20 DUP3 ADD SWAP1 POP DUP2 DUP2 SUB PUSH1 0x0 DUP4 ADD MSTORE PUSH2 0x6C3 DUP2 PUSH2 0x582 JUMP JUMPDEST SWAP1 POP SWAP2 SWAP1 POP JUMP JUMPDEST PUSH1 0x0 PUSH2 0x6D4 PUSH2 0x6E5 JUMP JUMPDEST SWAP1 POP PUSH2 0x6E0 DUP3 DUP3 PUSH2 0x80F JUMP JUMPDEST SWAP2 SWAP1 POP JUMP JUMPDEST PUSH1 0x0 PUSH1 0x40 MLOAD SWAP1 POP SWAP1 JUMP JUMPDEST PUSH1 0x0 PUSH8 0xFFFFFFFFFFFFFFFF DUP3 GT ISZERO PUSH2 0x70A JUMPI PUSH2 0x709 PUSH2 0x84A JUMP JUMPDEST JUMPDEST PUSH2 0x713 DUP3 PUSH2 0x88D JUMP JUMPDEST SWAP1 POP PUSH1 0x20 DUP2 ADD SWAP1 POP SWAP2 SWAP1 POP JUMP JUMPDEST PUSH1 0x0 PUSH8 0xFFFFFFFFFFFFFFFF DUP3 GT ISZERO PUSH2 0x73B JUMPI PUSH2 0x73A PUSH2 0x84A JUMP JUMPDEST JUMPDEST PUSH2 0x744 DUP3 PUSH2 0x88D JUMP JUMPDEST SWAP1 POP PUSH1 0x20 DUP2 ADD SWAP1 POP SWAP2 SWAP1 POP JUMP JUMPDEST PUSH1 0x0 DUP2 MLOAD SWAP1 POP SWAP2 SWAP1 POP JUMP JUMPDEST PUSH1 0x0 DUP3 DUP3 MSTORE PUSH1 0x20 DUP3 ADD SWAP1 POP SWAP3 SWAP2 POP POP JUMP JUMPDEST PUSH1 0x0 DUP2 SWAP1 POP SWAP3 SWAP2 POP POP JUMP JUMPDEST PUSH1 0x0 PUSH2 0x783 DUP3 PUSH2 0x7A0 JUMP JUMPDEST SWAP1 POP SWAP2 SWAP1 POP JUMP JUMPDEST PUSH1 0x0 DUP2 ISZERO ISZERO SWAP1 POP SWAP2 SWAP1 POP JUMP JUMPDEST PUSH1 0x0 DUP2 SWAP1 POP SWAP2 SWAP1 POP JUMP JUMPDEST PUSH1 0x0 PUSH20 0xFFFFFFFFFFFFFFFFFFFFFFFFFFFFFFFFFFFFFFFF DUP3 AND SWAP1 POP SWAP2 SWAP1 POP JUMP JUMPDEST PUSH1 0x0 PUSH1 0xFF DUP3 AND SWAP1 POP SWAP2 SWAP1 POP JUMP JUMPDEST DUP3 DUP2 DUP4 CALLDATACOPY PUSH1 0x0 DUP4 DUP4 ADD MSTORE POP POP POP JUMP JUMPDEST PUSH1 0x0 JUMPDEST DUP4 DUP2 LT ISZERO PUSH2 0x7FA JUMPI DUP1 DUP3 ADD MLOAD DUP2 DUP5 ADD MSTORE PUSH1 0x20 DUP2 ADD SWAP1 POP PUSH2 0x7DF JUMP JUMPDEST DUP4 DUP2 GT ISZERO PUSH2 0x809 JUMPI PUSH1 0x0 DUP5 DUP5 ADD MSTORE JUMPDEST POP POP POP POP JUMP JUMPDEST PUSH2 0x818 DUP3 PUSH2 0x88D JUMP JUMPDEST DUP2 ADD DUP2 DUP2 LT PUSH8 0xFFFFFFFFFFFFFFFF DUP3 GT OR ISZERO PUSH2 0x837 JUMPI PUSH2 0x836 PUSH2 0x84A JUMP JUMPDEST JUMPDEST DUP1 PUSH1 0x40 MSTORE POP POP POP JUMP JUMPDEST PUSH1 0x0 DUP2 SWAP1 POP SWAP2 SWAP1 POP JUMP JUMPDEST PUSH32 0x4E487B7100000000000000000000000000000000000000000000000000000000 PUSH1 0x0 MSTORE PUSH1 0x41 PUSH1 0x4 MSTORE PUSH1 0x24 PUSH1 0x0 REVERT JUMPDEST PUSH1 0x0 DUP1 REVERT JUMPDEST PUSH1 0x0 DUP1 REVERT JUMPDEST PUSH1 0x0 DUP1 REVERT JUMPDEST PUSH1 0x0 DUP1 REVERT JUMPDEST PUSH1 0x0 PUSH1 0x1F NOT PUSH1 0x1F DUP4 ADD AND SWAP1 POP SWAP2 SWAP1 POP JUMP JUMPDEST PUSH32 0x6572726F72310000000000000000000000000000000000000000000000000000 PUSH1 0x0 DUP3 ADD MSTORE POP JUMP JUMPDEST PUSH32 0x7369670000000000000000000000000000000000000000000000000000000000 PUSH1 0x0 DUP3 ADD MSTORE POP JUMP JUMPDEST PUSH2 0x8F9 DUP2 PUSH2 0x778 JUMP JUMPDEST DUP2 EQ PUSH2 0x904 JUMPI PUSH1 0x0 DUP1 REVERT JUMPDEST POP JUMP JUMPDEST PUSH2 0x910 DUP2 PUSH2 0x796 JUMP JUMPDEST DUP2 EQ PUSH2 0x91B JUMPI PUSH1 0x0 DUP1 REVERT JUMPDEST POP JUMP INVALID LOG2 PUSH5 0x6970667358 0x22 SLT KECCAK256 CALLVALUE SWAP11 PUSH2 0x4093 MOD DUP1 GAS PUSH24 0x88B1C383C2B6C537A705F5BEE332E5D2AE644AD90BAC3F64 PUSH20 0x6F6C634300080700330000000000000000000000 "
				},
				"gasEstimates": {
					"creation": {
						"codeDepositCost": "477600",
						"executionCost": "511",
						"totalCost": "478111"
					},
					"external": {
						"getEthSigHasg(bytes32)": "infinite",
						"getRecover(bytes32,bytes)": "infinite",
						"getTextHash(string)": "infinite",
						"verify(address,string,bytes)": "infinite"
					},
					"internal": {
						"_spit(bytes memory)": "infinite"
					}
				},
				"methodIdentifiers": {
					"getEthSigHasg(bytes32)": "01822554",
					"getRecover(bytes32,bytes)": "6e55df11",
					"getTextHash(string)": "bec00bf8",
					"verify(address,string,bytes)": "2dd34f0f"
				}
			},
			"storageLayout": {
				"storage": [],
				"types": null
			},
			"userdoc": {
				"kind": "user",
				"methods": {},
				"version": 1
			}
		}
	}
}