{
	"study/chapter04/create2.sol": {
		"C": {
			"abi": [
				{
					"inputs": [
						{
							"internalType": "bytes32",
							"name": "salt",
							"type": "bytes32"
						},
						{
							"internalType": "uint256",
							"name": "arg",
							"type": "uint256"
						}
					],
					"name": "createDSalted",
					"outputs": [],
					"stateMutability": "nonpayable",
					"type": "function"
				},
				{
					"inputs": [],
					"name": "d",
					"outputs": [
						{
							"internalType": "contract D",
							"name": "",
							"type": "address"
						}
					],
					"stateMutability": "view",
					"type": "function"
				}
			],
			"devdoc": {
				"kind": "dev",
				"methods": {},
				"version": 1
			},
			"evm": {
				"assembly": "    /* \"study/chapter04/create2.sol\":134:800  contract C {... */\n  mstore(0x40, 0x80)\n  callvalue\n  dup1\n  iszero\n  tag_1\n  jumpi\n  0x00\n  dup1\n  revert\ntag_1:\n  pop\n  dataSize(sub_0)\n  dup1\n  dataOffset(sub_0)\n  0x00\n  codecopy\n  0x00\n  return\nstop\n\nsub_0: assembly {\n        /* \"study/chapter04/create2.sol\":134:800  contract C {... */\n      mstore(0x40, 0x80)\n      callvalue\n      dup1\n      iszero\n      tag_1\n      jumpi\n      0x00\n      dup1\n      revert\n    tag_1:\n      pop\n      jumpi(tag_2, lt(calldatasize, 0x04))\n      shr(0xe0, calldataload(0x00))\n      dup1\n      0x0bd38f2f\n      eq\n      tag_3\n      jumpi\n      dup1\n      0x8a054ac2\n      eq\n      tag_4\n      jumpi\n    tag_2:\n      0x00\n      dup1\n      revert\n        /* \"study/chapter04/create2.sol\":174:798  function createDSalted(bytes32 salt, uint arg) public {... */\n    tag_3:\n      tag_5\n      0x04\n      dup1\n      calldatasize\n      sub\n      dup2\n      add\n      swap1\n      tag_6\n      swap2\n      swap1\n      tag_7\n      jump\t// in\n    tag_6:\n      tag_8\n      jump\t// in\n    tag_5:\n      stop\n        /* \"study/chapter04/create2.sol\":151:161  D public d */\n    tag_4:\n      tag_9\n      tag_10\n      jump\t// in\n    tag_9:\n      mload(0x40)\n      tag_11\n      swap2\n      swap1\n      tag_12\n      jump\t// in\n    tag_11:\n      mload(0x40)\n      dup1\n      swap2\n      sub\n      swap1\n      return\n        /* \"study/chapter04/create2.sol\":174:798  function createDSalted(bytes32 salt, uint arg) public {... */\n    tag_8:\n        /* \"study/chapter04/create2.sol\":433:457  address predictedAddress */\n      0x00\n        /* \"study/chapter04/create2.sol\":528:532  0xff */\n      0xff\n        /* \"study/chapter04/create2.sol\":521:533  bytes1(0xff) */\n      0xf8\n      shl\n        /* \"study/chapter04/create2.sol\":555:559  this */\n      address\n        /* \"study/chapter04/create2.sol\":574:578  salt */\n      dup5\n        /* \"study/chapter04/create2.sol\":636:656  type(D).creationCode */\n      mload(0x40)\n      dup1\n      0x20\n      add\n      tag_14\n      swap1\n      tag_15\n      jump\t// in\n    tag_14:\n      0x20\n      dup3\n      add\n      dup2\n      sub\n      dup3\n      mstore\n      not(0x1f)\n      0x1f\n      dup3\n      add\n      and\n      0x40\n      mstore\n      pop\n        /* \"study/chapter04/create2.sol\":674:677  arg */\n      dup6\n        /* \"study/chapter04/create2.sol\":602:691  abi.encodePacked(... */\n      add(0x20, mload(0x40))\n      tag_16\n      swap3\n      swap2\n      swap1\n      tag_17\n      jump\t// in\n    tag_16:\n      mload(0x40)\n      0x20\n      dup2\n      dup4\n      sub\n      sub\n      dup2\n      mstore\n      swap1\n      0x40\n      mstore\n        /* \"study/chapter04/create2.sol\":592:692  keccak256(abi.encodePacked(... */\n      dup1\n      mload\n      swap1\n      0x20\n      add\n      keccak256\n        /* \"study/chapter04/create2.sol\":491:702  abi.encodePacked(... */\n      add(0x20, mload(0x40))\n      tag_18\n      swap5\n      swap4\n      swap3\n      swap2\n      swap1\n      tag_19\n      jump\t// in\n    tag_18:\n      mload(0x40)\n      0x20\n      dup2\n      dup4\n      sub\n      sub\n      dup2\n      mstore\n      swap1\n      0x40\n      mstore\n        /* \"study/chapter04/create2.sol\":481:703  keccak256(abi.encodePacked(... */\n      dup1\n      mload\n      swap1\n      0x20\n      add\n      keccak256\n        /* \"study/chapter04/create2.sol\":476:704  uint(keccak256(abi.encodePacked(... */\n      0x00\n      shr\n        /* \"study/chapter04/create2.sol\":433:706  address predictedAddress = address(uint160(uint(keccak256(abi.encodePacked(... */\n      swap1\n      pop\n        /* \"study/chapter04/create2.sol\":732:736  salt */\n      dup3\n        /* \"study/chapter04/create2.sol\":738:741  arg */\n      dup3\n        /* \"study/chapter04/create2.sol\":720:742  new D{salt: salt}(arg) */\n      mload(0x40)\n      tag_20\n      swap1\n      tag_15\n      jump\t// in\n    tag_20:\n      tag_21\n      swap2\n      swap1\n      tag_22\n      jump\t// in\n    tag_21:\n      dup2\n      swap1\n      mload(0x40)\n      dup1\n      swap2\n      sub\n      swap1\n      0x00\n      create2\n      swap1\n      pop\n      dup1\n      iszero\n      dup1\n      iszero\n      tag_23\n      jumpi\n      returndatasize\n      0x00\n      dup1\n      returndatacopy\n      revert(0x00, returndatasize)\n    tag_23:\n      pop\n        /* \"study/chapter04/create2.sol\":716:717  d */\n      0x00\n      dup1\n        /* \"study/chapter04/create2.sol\":716:742  d = new D{salt: salt}(arg) */\n      0x0100\n      exp\n      dup2\n      sload\n      dup2\n      0xffffffffffffffffffffffffffffffffffffffff\n      mul\n      not\n      and\n      swap1\n      dup4\n      0xffffffffffffffffffffffffffffffffffffffff\n      and\n      mul\n      or\n      swap1\n      sstore\n      pop\n        /* \"study/chapter04/create2.sol\":774:790  predictedAddress */\n      dup1\n        /* \"study/chapter04/create2.sol\":760:790  address(d) == predictedAddress */\n      0xffffffffffffffffffffffffffffffffffffffff\n      and\n        /* \"study/chapter04/create2.sol\":768:769  d */\n      0x00\n      dup1\n      sload\n      swap1\n      0x0100\n      exp\n      swap1\n      div\n      0xffffffffffffffffffffffffffffffffffffffff\n      and\n        /* \"study/chapter04/create2.sol\":760:790  address(d) == predictedAddress */\n      0xffffffffffffffffffffffffffffffffffffffff\n      and\n      eq\n        /* \"study/chapter04/create2.sol\":752:791  require(address(d) == predictedAddress) */\n      tag_24\n      jumpi\n      0x00\n      dup1\n      revert\n    tag_24:\n        /* \"study/chapter04/create2.sol\":228:798  {... */\n      pop\n        /* \"study/chapter04/create2.sol\":174:798  function createDSalted(bytes32 salt, uint arg) public {... */\n      pop\n      pop\n      jump\t// out\n        /* \"study/chapter04/create2.sol\":151:161  D public d */\n    tag_10:\n      0x00\n      dup1\n      sload\n      swap1\n      0x0100\n      exp\n      swap1\n      div\n      0xffffffffffffffffffffffffffffffffffffffff\n      and\n      dup2\n      jump\t// out\n    tag_15:\n      dataSize(sub_0)\n      dup1\n      dataOffset(sub_0)\n      dup4\n      codecopy\n      add\n      swap1\n      jump\t// out\n        /* \"#utility.yul\":88:205   */\n    tag_26:\n        /* \"#utility.yul\":197:198   */\n      0x00\n        /* \"#utility.yul\":194:195   */\n      dup1\n        /* \"#utility.yul\":187:199   */\n      revert\n        /* \"#utility.yul\":334:411   */\n    tag_28:\n        /* \"#utility.yul\":371:378   */\n      0x00\n        /* \"#utility.yul\":400:405   */\n      dup2\n        /* \"#utility.yul\":389:405   */\n      swap1\n      pop\n        /* \"#utility.yul\":334:411   */\n      swap2\n      swap1\n      pop\n      jump\t// out\n        /* \"#utility.yul\":417:539   */\n    tag_29:\n        /* \"#utility.yul\":490:514   */\n      tag_63\n        /* \"#utility.yul\":508:513   */\n      dup2\n        /* \"#utility.yul\":490:514   */\n      tag_28\n      jump\t// in\n    tag_63:\n        /* \"#utility.yul\":483:488   */\n      dup2\n        /* \"#utility.yul\":480:515   */\n      eq\n        /* \"#utility.yul\":470:533   */\n      tag_64\n      jumpi\n        /* \"#utility.yul\":529:530   */\n      0x00\n        /* \"#utility.yul\":526:527   */\n      dup1\n        /* \"#utility.yul\":519:531   */\n      revert\n        /* \"#utility.yul\":470:533   */\n    tag_64:\n        /* \"#utility.yul\":417:539   */\n      pop\n      jump\t// out\n        /* \"#utility.yul\":545:684   */\n    tag_30:\n        /* \"#utility.yul\":591:596   */\n      0x00\n        /* \"#utility.yul\":629:635   */\n      dup2\n        /* \"#utility.yul\":616:636   */\n      calldataload\n        /* \"#utility.yul\":607:636   */\n      swap1\n      pop\n        /* \"#utility.yul\":645:678   */\n      tag_66\n        /* \"#utility.yul\":672:677   */\n      dup2\n        /* \"#utility.yul\":645:678   */\n      tag_29\n      jump\t// in\n    tag_66:\n        /* \"#utility.yul\":545:684   */\n      swap3\n      swap2\n      pop\n      pop\n      jump\t// out\n        /* \"#utility.yul\":690:767   */\n    tag_31:\n        /* \"#utility.yul\":727:734   */\n      0x00\n        /* \"#utility.yul\":756:761   */\n      dup2\n        /* \"#utility.yul\":745:761   */\n      swap1\n      pop\n        /* \"#utility.yul\":690:767   */\n      swap2\n      swap1\n      pop\n      jump\t// out\n        /* \"#utility.yul\":773:895   */\n    tag_32:\n        /* \"#utility.yul\":846:870   */\n      tag_69\n        /* \"#utility.yul\":864:869   */\n      dup2\n        /* \"#utility.yul\":846:870   */\n      tag_31\n      jump\t// in\n    tag_69:\n        /* \"#utility.yul\":839:844   */\n      dup2\n        /* \"#utility.yul\":836:871   */\n      eq\n        /* \"#utility.yul\":826:889   */\n      tag_70\n      jumpi\n        /* \"#utility.yul\":885:886   */\n      0x00\n        /* \"#utility.yul\":882:883   */\n      dup1\n        /* \"#utility.yul\":875:887   */\n      revert\n        /* \"#utility.yul\":826:889   */\n    tag_70:\n        /* \"#utility.yul\":773:895   */\n      pop\n      jump\t// out\n        /* \"#utility.yul\":901:1040   */\n    tag_33:\n        /* \"#utility.yul\":947:952   */\n      0x00\n        /* \"#utility.yul\":985:991   */\n      dup2\n        /* \"#utility.yul\":972:992   */\n      calldataload\n        /* \"#utility.yul\":963:992   */\n      swap1\n      pop\n        /* \"#utility.yul\":1001:1034   */\n      tag_72\n        /* \"#utility.yul\":1028:1033   */\n      dup2\n        /* \"#utility.yul\":1001:1034   */\n      tag_32\n      jump\t// in\n    tag_72:\n        /* \"#utility.yul\":901:1040   */\n      swap3\n      swap2\n      pop\n      pop\n      jump\t// out\n        /* \"#utility.yul\":1046:1520   */\n    tag_7:\n        /* \"#utility.yul\":1114:1120   */\n      0x00\n        /* \"#utility.yul\":1122:1128   */\n      dup1\n        /* \"#utility.yul\":1171:1173   */\n      0x40\n        /* \"#utility.yul\":1159:1168   */\n      dup4\n        /* \"#utility.yul\":1150:1157   */\n      dup6\n        /* \"#utility.yul\":1146:1169   */\n      sub\n        /* \"#utility.yul\":1142:1174   */\n      slt\n        /* \"#utility.yul\":1139:1258   */\n      iszero\n      tag_74\n      jumpi\n        /* \"#utility.yul\":1177:1256   */\n      tag_75\n      tag_26\n      jump\t// in\n    tag_75:\n        /* \"#utility.yul\":1139:1258   */\n    tag_74:\n        /* \"#utility.yul\":1297:1298   */\n      0x00\n        /* \"#utility.yul\":1322:1375   */\n      tag_76\n        /* \"#utility.yul\":1367:1374   */\n      dup6\n        /* \"#utility.yul\":1358:1364   */\n      dup3\n        /* \"#utility.yul\":1347:1356   */\n      dup7\n        /* \"#utility.yul\":1343:1365   */\n      add\n        /* \"#utility.yul\":1322:1375   */\n      tag_30\n      jump\t// in\n    tag_76:\n        /* \"#utility.yul\":1312:1375   */\n      swap3\n      pop\n        /* \"#utility.yul\":1268:1385   */\n      pop\n        /* \"#utility.yul\":1424:1426   */\n      0x20\n        /* \"#utility.yul\":1450:1503   */\n      tag_77\n        /* \"#utility.yul\":1495:1502   */\n      dup6\n        /* \"#utility.yul\":1486:1492   */\n      dup3\n        /* \"#utility.yul\":1475:1484   */\n      dup7\n        /* \"#utility.yul\":1471:1493   */\n      add\n        /* \"#utility.yul\":1450:1503   */\n      tag_33\n      jump\t// in\n    tag_77:\n        /* \"#utility.yul\":1440:1503   */\n      swap2\n      pop\n        /* \"#utility.yul\":1395:1513   */\n      pop\n        /* \"#utility.yul\":1046:1520   */\n      swap3\n      pop\n      swap3\n      swap1\n      pop\n      jump\t// out\n        /* \"#utility.yul\":1526:1652   */\n    tag_34:\n        /* \"#utility.yul\":1563:1570   */\n      0x00\n        /* \"#utility.yul\":1603:1645   */\n      0xffffffffffffffffffffffffffffffffffffffff\n        /* \"#utility.yul\":1596:1601   */\n      dup3\n        /* \"#utility.yul\":1592:1646   */\n      and\n        /* \"#utility.yul\":1581:1646   */\n      swap1\n      pop\n        /* \"#utility.yul\":1526:1652   */\n      swap2\n      swap1\n      pop\n      jump\t// out\n        /* \"#utility.yul\":1658:1718   */\n    tag_35:\n        /* \"#utility.yul\":1686:1689   */\n      0x00\n        /* \"#utility.yul\":1707:1712   */\n      dup2\n        /* \"#utility.yul\":1700:1712   */\n      swap1\n      pop\n        /* \"#utility.yul\":1658:1718   */\n      swap2\n      swap1\n      pop\n      jump\t// out\n        /* \"#utility.yul\":1724:1866   */\n    tag_36:\n        /* \"#utility.yul\":1774:1783   */\n      0x00\n        /* \"#utility.yul\":1807:1860   */\n      tag_81\n        /* \"#utility.yul\":1825:1859   */\n      tag_82\n        /* \"#utility.yul\":1834:1858   */\n      tag_83\n        /* \"#utility.yul\":1852:1857   */\n      dup5\n        /* \"#utility.yul\":1834:1858   */\n      tag_34\n      jump\t// in\n    tag_83:\n        /* \"#utility.yul\":1825:1859   */\n      tag_35\n      jump\t// in\n    tag_82:\n        /* \"#utility.yul\":1807:1860   */\n      tag_34\n      jump\t// in\n    tag_81:\n        /* \"#utility.yul\":1794:1860   */\n      swap1\n      pop\n        /* \"#utility.yul\":1724:1866   */\n      swap2\n      swap1\n      pop\n      jump\t// out\n        /* \"#utility.yul\":1872:1998   */\n    tag_37:\n        /* \"#utility.yul\":1922:1931   */\n      0x00\n        /* \"#utility.yul\":1955:1992   */\n      tag_85\n        /* \"#utility.yul\":1986:1991   */\n      dup3\n        /* \"#utility.yul\":1955:1992   */\n      tag_36\n      jump\t// in\n    tag_85:\n        /* \"#utility.yul\":1942:1992   */\n      swap1\n      pop\n        /* \"#utility.yul\":1872:1998   */\n      swap2\n      swap1\n      pop\n      jump\t// out\n        /* \"#utility.yul\":2004:2138   */\n    tag_38:\n        /* \"#utility.yul\":2062:2071   */\n      0x00\n        /* \"#utility.yul\":2095:2132   */\n      tag_87\n        /* \"#utility.yul\":2126:2131   */\n      dup3\n        /* \"#utility.yul\":2095:2132   */\n      tag_37\n      jump\t// in\n    tag_87:\n        /* \"#utility.yul\":2082:2132   */\n      swap1\n      pop\n        /* \"#utility.yul\":2004:2138   */\n      swap2\n      swap1\n      pop\n      jump\t// out\n        /* \"#utility.yul\":2144:2291   */\n    tag_39:\n        /* \"#utility.yul\":2239:2284   */\n      tag_89\n        /* \"#utility.yul\":2278:2283   */\n      dup2\n        /* \"#utility.yul\":2239:2284   */\n      tag_38\n      jump\t// in\n    tag_89:\n        /* \"#utility.yul\":2234:2237   */\n      dup3\n        /* \"#utility.yul\":2227:2285   */\n      mstore\n        /* \"#utility.yul\":2144:2291   */\n      pop\n      pop\n      jump\t// out\n        /* \"#utility.yul\":2297:2535   */\n    tag_12:\n        /* \"#utility.yul\":2398:2402   */\n      0x00\n        /* \"#utility.yul\":2436:2438   */\n      0x20\n        /* \"#utility.yul\":2425:2434   */\n      dup3\n        /* \"#utility.yul\":2421:2439   */\n      add\n        /* \"#utility.yul\":2413:2439   */\n      swap1\n      pop\n        /* \"#utility.yul\":2449:2528   */\n      tag_91\n        /* \"#utility.yul\":2525:2526   */\n      0x00\n        /* \"#utility.yul\":2514:2523   */\n      dup4\n        /* \"#utility.yul\":2510:2527   */\n      add\n        /* \"#utility.yul\":2501:2507   */\n      dup5\n        /* \"#utility.yul\":2449:2528   */\n      tag_39\n      jump\t// in\n    tag_91:\n        /* \"#utility.yul\":2297:2535   */\n      swap3\n      swap2\n      pop\n      pop\n      jump\t// out\n        /* \"#utility.yul\":2541:2639   */\n    tag_40:\n        /* \"#utility.yul\":2592:2598   */\n      0x00\n        /* \"#utility.yul\":2626:2631   */\n      dup2\n        /* \"#utility.yul\":2620:2632   */\n      mload\n        /* \"#utility.yul\":2610:2632   */\n      swap1\n      pop\n        /* \"#utility.yul\":2541:2639   */\n      swap2\n      swap1\n      pop\n      jump\t// out\n        /* \"#utility.yul\":2645:2792   */\n    tag_41:\n        /* \"#utility.yul\":2746:2757   */\n      0x00\n        /* \"#utility.yul\":2783:2786   */\n      dup2\n        /* \"#utility.yul\":2768:2786   */\n      swap1\n      pop\n        /* \"#utility.yul\":2645:2792   */\n      swap3\n      swap2\n      pop\n      pop\n      jump\t// out\n        /* \"#utility.yul\":2798:3105   */\n    tag_42:\n        /* \"#utility.yul\":2866:2867   */\n      0x00\n        /* \"#utility.yul\":2876:2989   */\n    tag_95:\n        /* \"#utility.yul\":2890:2896   */\n      dup4\n        /* \"#utility.yul\":2887:2888   */\n      dup2\n        /* \"#utility.yul\":2884:2897   */\n      lt\n        /* \"#utility.yul\":2876:2989   */\n      iszero\n      tag_97\n      jumpi\n        /* \"#utility.yul\":2975:2976   */\n      dup1\n        /* \"#utility.yul\":2970:2973   */\n      dup3\n        /* \"#utility.yul\":2966:2977   */\n      add\n        /* \"#utility.yul\":2960:2978   */\n      mload\n        /* \"#utility.yul\":2956:2957   */\n      dup2\n        /* \"#utility.yul\":2951:2954   */\n      dup5\n        /* \"#utility.yul\":2947:2958   */\n      add\n        /* \"#utility.yul\":2940:2979   */\n      mstore\n        /* \"#utility.yul\":2912:2914   */\n      0x20\n        /* \"#utility.yul\":2909:2910   */\n      dup2\n        /* \"#utility.yul\":2905:2915   */\n      add\n        /* \"#utility.yul\":2900:2915   */\n      swap1\n      pop\n        /* \"#utility.yul\":2876:2989   */\n      jump(tag_95)\n    tag_97:\n        /* \"#utility.yul\":3007:3013   */\n      dup4\n        /* \"#utility.yul\":3004:3005   */\n      dup2\n        /* \"#utility.yul\":3001:3014   */\n      gt\n        /* \"#utility.yul\":2998:3099   */\n      iszero\n      tag_98\n      jumpi\n        /* \"#utility.yul\":3087:3088   */\n      0x00\n        /* \"#utility.yul\":3078:3084   */\n      dup5\n        /* \"#utility.yul\":3073:3076   */\n      dup5\n        /* \"#utility.yul\":3069:3085   */\n      add\n        /* \"#utility.yul\":3062:3089   */\n      mstore\n        /* \"#utility.yul\":2998:3099   */\n    tag_98:\n        /* \"#utility.yul\":2847:3105   */\n      pop\n        /* \"#utility.yul\":2798:3105   */\n      pop\n      pop\n      pop\n      jump\t// out\n        /* \"#utility.yul\":3111:3484   */\n    tag_43:\n        /* \"#utility.yul\":3215:3218   */\n      0x00\n        /* \"#utility.yul\":3243:3281   */\n      tag_100\n        /* \"#utility.yul\":3275:3280   */\n      dup3\n        /* \"#utility.yul\":3243:3281   */\n      tag_40\n      jump\t// in\n    tag_100:\n        /* \"#utility.yul\":3297:3385   */\n      tag_101\n        /* \"#utility.yul\":3378:3384   */\n      dup2\n        /* \"#utility.yul\":3373:3376   */\n      dup6\n        /* \"#utility.yul\":3297:3385   */\n      tag_41\n      jump\t// in\n    tag_101:\n        /* \"#utility.yul\":3290:3385   */\n      swap4\n      pop\n        /* \"#utility.yul\":3394:3446   */\n      tag_102\n        /* \"#utility.yul\":3439:3445   */\n      dup2\n        /* \"#utility.yul\":3434:3437   */\n      dup6\n        /* \"#utility.yul\":3427:3431   */\n      0x20\n        /* \"#utility.yul\":3420:3425   */\n      dup7\n        /* \"#utility.yul\":3416:3432   */\n      add\n        /* \"#utility.yul\":3394:3446   */\n      tag_42\n      jump\t// in\n    tag_102:\n        /* \"#utility.yul\":3471:3477   */\n      dup1\n        /* \"#utility.yul\":3466:3469   */\n      dup5\n        /* \"#utility.yul\":3462:3478   */\n      add\n        /* \"#utility.yul\":3455:3478   */\n      swap2\n      pop\n        /* \"#utility.yul\":3219:3484   */\n      pop\n        /* \"#utility.yul\":3111:3484   */\n      swap3\n      swap2\n      pop\n      pop\n      jump\t// out\n        /* \"#utility.yul\":3490:3569   */\n    tag_44:\n        /* \"#utility.yul\":3529:3536   */\n      0x00\n        /* \"#utility.yul\":3558:3563   */\n      dup2\n        /* \"#utility.yul\":3547:3563   */\n      swap1\n      pop\n        /* \"#utility.yul\":3490:3569   */\n      swap2\n      swap1\n      pop\n      jump\t// out\n        /* \"#utility.yul\":3575:3732   */\n    tag_45:\n        /* \"#utility.yul\":3680:3725   */\n      tag_105\n        /* \"#utility.yul\":3700:3724   */\n      tag_106\n        /* \"#utility.yul\":3718:3723   */\n      dup3\n        /* \"#utility.yul\":3700:3724   */\n      tag_31\n      jump\t// in\n    tag_106:\n        /* \"#utility.yul\":3680:3725   */\n      tag_44\n      jump\t// in\n    tag_105:\n        /* \"#utility.yul\":3675:3678   */\n      dup3\n        /* \"#utility.yul\":3668:3726   */\n      mstore\n        /* \"#utility.yul\":3575:3732   */\n      pop\n      pop\n      jump\t// out\n        /* \"#utility.yul\":3738:4150   */\n    tag_17:\n        /* \"#utility.yul\":3896:3899   */\n      0x00\n        /* \"#utility.yul\":3918:4011   */\n      tag_108\n        /* \"#utility.yul\":4007:4010   */\n      dup3\n        /* \"#utility.yul\":3998:4004   */\n      dup6\n        /* \"#utility.yul\":3918:4011   */\n      tag_43\n      jump\t// in\n    tag_108:\n        /* \"#utility.yul\":3911:4011   */\n      swap2\n      pop\n        /* \"#utility.yul\":4021:4096   */\n      tag_109\n        /* \"#utility.yul\":4092:4095   */\n      dup3\n        /* \"#utility.yul\":4083:4089   */\n      dup5\n        /* \"#utility.yul\":4021:4096   */\n      tag_45\n      jump\t// in\n    tag_109:\n        /* \"#utility.yul\":4121:4123   */\n      0x20\n        /* \"#utility.yul\":4116:4119   */\n      dup3\n        /* \"#utility.yul\":4112:4124   */\n      add\n        /* \"#utility.yul\":4105:4124   */\n      swap2\n      pop\n        /* \"#utility.yul\":4141:4144   */\n      dup2\n        /* \"#utility.yul\":4134:4144   */\n      swap1\n      pop\n        /* \"#utility.yul\":3738:4150   */\n      swap4\n      swap3\n      pop\n      pop\n      pop\n      jump\t// out\n        /* \"#utility.yul\":4156:4305   */\n    tag_46:\n        /* \"#utility.yul\":4192:4199   */\n      0x00\n        /* \"#utility.yul\":4232:4298   */\n      0xff00000000000000000000000000000000000000000000000000000000000000\n        /* \"#utility.yul\":4225:4230   */\n      dup3\n        /* \"#utility.yul\":4221:4299   */\n      and\n        /* \"#utility.yul\":4210:4299   */\n      swap1\n      pop\n        /* \"#utility.yul\":4156:4305   */\n      swap2\n      swap1\n      pop\n      jump\t// out\n        /* \"#utility.yul\":4311:4389   */\n    tag_47:\n        /* \"#utility.yul\":4349:4356   */\n      0x00\n        /* \"#utility.yul\":4378:4383   */\n      dup2\n        /* \"#utility.yul\":4367:4383   */\n      swap1\n      pop\n        /* \"#utility.yul\":4311:4389   */\n      swap2\n      swap1\n      pop\n      jump\t// out\n        /* \"#utility.yul\":4395:4548   */\n    tag_48:\n        /* \"#utility.yul\":4498:4541   */\n      tag_113\n        /* \"#utility.yul\":4517:4540   */\n      tag_114\n        /* \"#utility.yul\":4534:4539   */\n      dup3\n        /* \"#utility.yul\":4517:4540   */\n      tag_46\n      jump\t// in\n    tag_114:\n        /* \"#utility.yul\":4498:4541   */\n      tag_47\n      jump\t// in\n    tag_113:\n        /* \"#utility.yul\":4493:4496   */\n      dup3\n        /* \"#utility.yul\":4486:4542   */\n      mstore\n        /* \"#utility.yul\":4395:4548   */\n      pop\n      pop\n      jump\t// out\n        /* \"#utility.yul\":4554:4650   */\n    tag_49:\n        /* \"#utility.yul\":4591:4598   */\n      0x00\n        /* \"#utility.yul\":4620:4644   */\n      tag_116\n        /* \"#utility.yul\":4638:4643   */\n      dup3\n        /* \"#utility.yul\":4620:4644   */\n      tag_34\n      jump\t// in\n    tag_116:\n        /* \"#utility.yul\":4609:4644   */\n      swap1\n      pop\n        /* \"#utility.yul\":4554:4650   */\n      swap2\n      swap1\n      pop\n      jump\t// out\n        /* \"#utility.yul\":4656:4750   */\n    tag_50:\n        /* \"#utility.yul\":4689:4697   */\n      0x00\n        /* \"#utility.yul\":4737:4742   */\n      dup2\n        /* \"#utility.yul\":4733:4735   */\n      0x60\n        /* \"#utility.yul\":4729:4743   */\n      shl\n        /* \"#utility.yul\":4708:4743   */\n      swap1\n      pop\n        /* \"#utility.yul\":4656:4750   */\n      swap2\n      swap1\n      pop\n      jump\t// out\n        /* \"#utility.yul\":4756:4850   */\n    tag_51:\n        /* \"#utility.yul\":4795:4802   */\n      0x00\n        /* \"#utility.yul\":4824:4844   */\n      tag_119\n        /* \"#utility.yul\":4838:4843   */\n      dup3\n        /* \"#utility.yul\":4824:4844   */\n      tag_50\n      jump\t// in\n    tag_119:\n        /* \"#utility.yul\":4813:4844   */\n      swap1\n      pop\n        /* \"#utility.yul\":4756:4850   */\n      swap2\n      swap1\n      pop\n      jump\t// out\n        /* \"#utility.yul\":4856:4956   */\n    tag_52:\n        /* \"#utility.yul\":4895:4902   */\n      0x00\n        /* \"#utility.yul\":4924:4950   */\n      tag_121\n        /* \"#utility.yul\":4944:4949   */\n      dup3\n        /* \"#utility.yul\":4924:4950   */\n      tag_51\n      jump\t// in\n    tag_121:\n        /* \"#utility.yul\":4913:4950   */\n      swap1\n      pop\n        /* \"#utility.yul\":4856:4956   */\n      swap2\n      swap1\n      pop\n      jump\t// out\n        /* \"#utility.yul\":4962:5119   */\n    tag_53:\n        /* \"#utility.yul\":5067:5112   */\n      tag_123\n        /* \"#utility.yul\":5087:5111   */\n      tag_124\n        /* \"#utility.yul\":5105:5110   */\n      dup3\n        /* \"#utility.yul\":5087:5111   */\n      tag_49\n      jump\t// in\n    tag_124:\n        /* \"#utility.yul\":5067:5112   */\n      tag_52\n      jump\t// in\n    tag_123:\n        /* \"#utility.yul\":5062:5065   */\n      dup3\n        /* \"#utility.yul\":5055:5113   */\n      mstore\n        /* \"#utility.yul\":4962:5119   */\n      pop\n      pop\n      jump\t// out\n        /* \"#utility.yul\":5125:5204   */\n    tag_54:\n        /* \"#utility.yul\":5164:5171   */\n      0x00\n        /* \"#utility.yul\":5193:5198   */\n      dup2\n        /* \"#utility.yul\":5182:5198   */\n      swap1\n      pop\n        /* \"#utility.yul\":5125:5204   */\n      swap2\n      swap1\n      pop\n      jump\t// out\n        /* \"#utility.yul\":5210:5367   */\n    tag_55:\n        /* \"#utility.yul\":5315:5360   */\n      tag_127\n        /* \"#utility.yul\":5335:5359   */\n      tag_128\n        /* \"#utility.yul\":5353:5358   */\n      dup3\n        /* \"#utility.yul\":5335:5359   */\n      tag_28\n      jump\t// in\n    tag_128:\n        /* \"#utility.yul\":5315:5360   */\n      tag_54\n      jump\t// in\n    tag_127:\n        /* \"#utility.yul\":5310:5313   */\n      dup3\n        /* \"#utility.yul\":5303:5361   */\n      mstore\n        /* \"#utility.yul\":5210:5367   */\n      pop\n      pop\n      jump\t// out\n        /* \"#utility.yul\":5373:6047   */\n    tag_19:\n        /* \"#utility.yul\":5567:5570   */\n      0x00\n        /* \"#utility.yul\":5582:5655   */\n      tag_130\n        /* \"#utility.yul\":5651:5654   */\n      dup3\n        /* \"#utility.yul\":5642:5648   */\n      dup8\n        /* \"#utility.yul\":5582:5655   */\n      tag_48\n      jump\t// in\n    tag_130:\n        /* \"#utility.yul\":5680:5681   */\n      0x01\n        /* \"#utility.yul\":5675:5678   */\n      dup3\n        /* \"#utility.yul\":5671:5682   */\n      add\n        /* \"#utility.yul\":5664:5682   */\n      swap2\n      pop\n        /* \"#utility.yul\":5692:5767   */\n      tag_131\n        /* \"#utility.yul\":5763:5766   */\n      dup3\n        /* \"#utility.yul\":5754:5760   */\n      dup7\n        /* \"#utility.yul\":5692:5767   */\n      tag_53\n      jump\t// in\n    tag_131:\n        /* \"#utility.yul\":5792:5794   */\n      0x14\n        /* \"#utility.yul\":5787:5790   */\n      dup3\n        /* \"#utility.yul\":5783:5795   */\n      add\n        /* \"#utility.yul\":5776:5795   */\n      swap2\n      pop\n        /* \"#utility.yul\":5805:5880   */\n      tag_132\n        /* \"#utility.yul\":5876:5879   */\n      dup3\n        /* \"#utility.yul\":5867:5873   */\n      dup6\n        /* \"#utility.yul\":5805:5880   */\n      tag_55\n      jump\t// in\n    tag_132:\n        /* \"#utility.yul\":5905:5907   */\n      0x20\n        /* \"#utility.yul\":5900:5903   */\n      dup3\n        /* \"#utility.yul\":5896:5908   */\n      add\n        /* \"#utility.yul\":5889:5908   */\n      swap2\n      pop\n        /* \"#utility.yul\":5918:5993   */\n      tag_133\n        /* \"#utility.yul\":5989:5992   */\n      dup3\n        /* \"#utility.yul\":5980:5986   */\n      dup5\n        /* \"#utility.yul\":5918:5993   */\n      tag_55\n      jump\t// in\n    tag_133:\n        /* \"#utility.yul\":6018:6020   */\n      0x20\n        /* \"#utility.yul\":6013:6016   */\n      dup3\n        /* \"#utility.yul\":6009:6021   */\n      add\n        /* \"#utility.yul\":6002:6021   */\n      swap2\n      pop\n        /* \"#utility.yul\":6038:6041   */\n      dup2\n        /* \"#utility.yul\":6031:6041   */\n      swap1\n      pop\n        /* \"#utility.yul\":5373:6047   */\n      swap6\n      swap5\n      pop\n      pop\n      pop\n      pop\n      pop\n      jump\t// out\n        /* \"#utility.yul\":6053:6171   */\n    tag_56:\n        /* \"#utility.yul\":6140:6164   */\n      tag_135\n        /* \"#utility.yul\":6158:6163   */\n      dup2\n        /* \"#utility.yul\":6140:6164   */\n      tag_31\n      jump\t// in\n    tag_135:\n        /* \"#utility.yul\":6135:6138   */\n      dup3\n        /* \"#utility.yul\":6128:6165   */\n      mstore\n        /* \"#utility.yul\":6053:6171   */\n      pop\n      pop\n      jump\t// out\n        /* \"#utility.yul\":6177:6399   */\n    tag_22:\n        /* \"#utility.yul\":6270:6274   */\n      0x00\n        /* \"#utility.yul\":6308:6310   */\n      0x20\n        /* \"#utility.yul\":6297:6306   */\n      dup3\n        /* \"#utility.yul\":6293:6311   */\n      add\n        /* \"#utility.yul\":6285:6311   */\n      swap1\n      pop\n        /* \"#utility.yul\":6321:6392   */\n      tag_137\n        /* \"#utility.yul\":6389:6390   */\n      0x00\n        /* \"#utility.yul\":6378:6387   */\n      dup4\n        /* \"#utility.yul\":6374:6391   */\n      add\n        /* \"#utility.yul\":6365:6371   */\n      dup5\n        /* \"#utility.yul\":6321:6392   */\n      tag_56\n      jump\t// in\n    tag_137:\n        /* \"#utility.yul\":6177:6399   */\n      swap3\n      swap2\n      pop\n      pop\n      jump\t// out\n    stop\n\n    sub_0: assembly {\n            /* \"study/chapter04/create2.sol\":53:133  contract D {... */\n          mstore(0x40, 0x80)\n            /* \"study/chapter04/create2.sol\":89:131  constructor(uint a) {... */\n          callvalue\n          dup1\n          iszero\n          tag_1\n          jumpi\n          0x00\n          dup1\n          revert\n        tag_1:\n          pop\n          mload(0x40)\n          sub(codesize, bytecodeSize)\n          dup1\n          bytecodeSize\n          dup4\n          codecopy\n          dup2\n          dup2\n          add\n          0x40\n          mstore\n          dup2\n          add\n          swap1\n          tag_2\n          swap2\n          swap1\n          tag_3\n          jump\t// in\n        tag_2:\n            /* \"study/chapter04/create2.sol\":123:124  a */\n          dup1\n            /* \"study/chapter04/create2.sol\":119:120  x */\n          0x00\n            /* \"study/chapter04/create2.sol\":119:124  x = a */\n          dup2\n          swap1\n          sstore\n          pop\n            /* \"study/chapter04/create2.sol\":89:131  constructor(uint a) {... */\n          pop\n            /* \"study/chapter04/create2.sol\":53:133  contract D {... */\n          jump(tag_6)\n            /* \"#utility.yul\":88:205   */\n        tag_8:\n            /* \"#utility.yul\":197:198   */\n          0x00\n            /* \"#utility.yul\":194:195   */\n          dup1\n            /* \"#utility.yul\":187:199   */\n          revert\n            /* \"#utility.yul\":334:411   */\n        tag_10:\n            /* \"#utility.yul\":371:378   */\n          0x00\n            /* \"#utility.yul\":400:405   */\n          dup2\n            /* \"#utility.yul\":389:405   */\n          swap1\n          pop\n            /* \"#utility.yul\":334:411   */\n          swap2\n          swap1\n          pop\n          jump\t// out\n            /* \"#utility.yul\":417:539   */\n        tag_11:\n            /* \"#utility.yul\":490:514   */\n          tag_19\n            /* \"#utility.yul\":508:513   */\n          dup2\n            /* \"#utility.yul\":490:514   */\n          tag_10\n          jump\t// in\n        tag_19:\n            /* \"#utility.yul\":483:488   */\n          dup2\n            /* \"#utility.yul\":480:515   */\n          eq\n            /* \"#utility.yul\":470:533   */\n          tag_20\n          jumpi\n            /* \"#utility.yul\":529:530   */\n          0x00\n            /* \"#utility.yul\":526:527   */\n          dup1\n            /* \"#utility.yul\":519:531   */\n          revert\n            /* \"#utility.yul\":470:533   */\n        tag_20:\n            /* \"#utility.yul\":417:539   */\n          pop\n          jump\t// out\n            /* \"#utility.yul\":545:688   */\n        tag_12:\n            /* \"#utility.yul\":602:607   */\n          0x00\n            /* \"#utility.yul\":633:639   */\n          dup2\n            /* \"#utility.yul\":627:640   */\n          mload\n            /* \"#utility.yul\":618:640   */\n          swap1\n          pop\n            /* \"#utility.yul\":649:682   */\n          tag_22\n            /* \"#utility.yul\":676:681   */\n          dup2\n            /* \"#utility.yul\":649:682   */\n          tag_11\n          jump\t// in\n        tag_22:\n            /* \"#utility.yul\":545:688   */\n          swap3\n          swap2\n          pop\n          pop\n          jump\t// out\n            /* \"#utility.yul\":694:1045   */\n        tag_3:\n            /* \"#utility.yul\":764:770   */\n          0x00\n            /* \"#utility.yul\":813:815   */\n          0x20\n            /* \"#utility.yul\":801:810   */\n          dup3\n            /* \"#utility.yul\":792:799   */\n          dup5\n            /* \"#utility.yul\":788:811   */\n          sub\n            /* \"#utility.yul\":784:816   */\n          slt\n            /* \"#utility.yul\":781:900   */\n          iszero\n          tag_24\n          jumpi\n            /* \"#utility.yul\":819:898   */\n          tag_25\n          tag_8\n          jump\t// in\n        tag_25:\n            /* \"#utility.yul\":781:900   */\n        tag_24:\n            /* \"#utility.yul\":939:940   */\n          0x00\n            /* \"#utility.yul\":964:1028   */\n          tag_26\n            /* \"#utility.yul\":1020:1027   */\n          dup5\n            /* \"#utility.yul\":1011:1017   */\n          dup3\n            /* \"#utility.yul\":1000:1009   */\n          dup6\n            /* \"#utility.yul\":996:1018   */\n          add\n            /* \"#utility.yul\":964:1028   */\n          tag_12\n          jump\t// in\n        tag_26:\n            /* \"#utility.yul\":954:1028   */\n          swap2\n          pop\n            /* \"#utility.yul\":910:1038   */\n          pop\n            /* \"#utility.yul\":694:1045   */\n          swap3\n          swap2\n          pop\n          pop\n          jump\t// out\n            /* \"study/chapter04/create2.sol\":53:133  contract D {... */\n        tag_6:\n          dataSize(sub_0)\n          dup1\n          dataOffset(sub_0)\n          0x00\n          codecopy\n          0x00\n          return\n        stop\n\n        sub_0: assembly {\n                /* \"study/chapter04/create2.sol\":53:133  contract D {... */\n              mstore(0x40, 0x80)\n              callvalue\n              dup1\n              iszero\n              tag_1\n              jumpi\n              0x00\n              dup1\n              revert\n            tag_1:\n              pop\n              jumpi(tag_2, lt(calldatasize, 0x04))\n              shr(0xe0, calldataload(0x00))\n              dup1\n              0x0c55699c\n              eq\n              tag_3\n              jumpi\n            tag_2:\n              0x00\n              dup1\n              revert\n                /* \"study/chapter04/create2.sol\":70:83  uint public x */\n            tag_3:\n              tag_4\n              tag_5\n              jump\t// in\n            tag_4:\n              mload(0x40)\n              tag_6\n              swap2\n              swap1\n              tag_7\n              jump\t// in\n            tag_6:\n              mload(0x40)\n              dup1\n              swap2\n              sub\n              swap1\n              return\n            tag_5:\n              sload(0x00)\n              dup2\n              jump\t// out\n                /* \"#utility.yul\":7:84   */\n            tag_8:\n                /* \"#utility.yul\":44:51   */\n              0x00\n                /* \"#utility.yul\":73:78   */\n              dup2\n                /* \"#utility.yul\":62:78   */\n              swap1\n              pop\n                /* \"#utility.yul\":7:84   */\n              swap2\n              swap1\n              pop\n              jump\t// out\n                /* \"#utility.yul\":90:208   */\n            tag_9:\n                /* \"#utility.yul\":177:201   */\n              tag_13\n                /* \"#utility.yul\":195:200   */\n              dup2\n                /* \"#utility.yul\":177:201   */\n              tag_8\n              jump\t// in\n            tag_13:\n                /* \"#utility.yul\":172:175   */\n              dup3\n                /* \"#utility.yul\":165:202   */\n              mstore\n                /* \"#utility.yul\":90:208   */\n              pop\n              pop\n              jump\t// out\n                /* \"#utility.yul\":214:436   */\n            tag_7:\n                /* \"#utility.yul\":307:311   */\n              0x00\n                /* \"#utility.yul\":345:347   */\n              0x20\n                /* \"#utility.yul\":334:343   */\n              dup3\n                /* \"#utility.yul\":330:348   */\n              add\n                /* \"#utility.yul\":322:348   */\n              swap1\n              pop\n                /* \"#utility.yul\":358:429   */\n              tag_15\n                /* \"#utility.yul\":426:427   */\n              0x00\n                /* \"#utility.yul\":415:424   */\n              dup4\n                /* \"#utility.yul\":411:428   */\n              add\n                /* \"#utility.yul\":402:408   */\n              dup5\n                /* \"#utility.yul\":358:429   */\n              tag_9\n              jump\t// in\n            tag_15:\n                /* \"#utility.yul\":214:436   */\n              swap3\n              swap2\n              pop\n              pop\n              jump\t// out\n\n            auxdata: 0xa2646970667358221220f839658bd9c6aba0e38c4f659bc26b3511ca07cd2c3cb67ecc586cb702213b9464736f6c634300080f0033\n        }\n    }\n\n    auxdata: 0xa2646970667358221220a528f5026e39a1d8a2ae64e509707794693fb30cbdf8468f0951ba3875f7f3d164736f6c634300080f0033\n}\n",
				"bytecode": {
					"linkReferences": {},
					"object": "608060405234801561001057600080fd5b506106ea806100206000396000f3fe608060405234801561001057600080fd5b50600436106100365760003560e01c80630bd38f2f1461003b5780638a054ac214610057575b600080fd5b6100556004803603810190610050919061026f565b610075565b005b61005f6101cd565b60405161006c919061032e565b60405180910390f35b600060ff60f81b30846040518060200161008e906101f1565b6020820181038252601f19601f82011660405250856040516020016100b49291906103e4565b604051602081830303815290604052805190602001206040516020016100dd94939291906104d4565b6040516020818303038152906040528051906020012060001c90508282604051610106906101f1565b6101109190610531565b8190604051809103906000f5905080158015610130573d6000803e3d6000fd5b506000806101000a81548173ffffffffffffffffffffffffffffffffffffffff021916908373ffffffffffffffffffffffffffffffffffffffff1602179055508073ffffffffffffffffffffffffffffffffffffffff1660008054906101000a900473ffffffffffffffffffffffffffffffffffffffff1673ffffffffffffffffffffffffffffffffffffffff16146101c857600080fd5b505050565b60008054906101000a900473ffffffffffffffffffffffffffffffffffffffff1681565b6101688061054d83390190565b600080fd5b6000819050919050565b61021681610203565b811461022157600080fd5b50565b6000813590506102338161020d565b92915050565b6000819050919050565b61024c81610239565b811461025757600080fd5b50565b60008135905061026981610243565b92915050565b60008060408385031215610286576102856101fe565b5b600061029485828601610224565b92505060206102a58582860161025a565b9150509250929050565b600073ffffffffffffffffffffffffffffffffffffffff82169050919050565b6000819050919050565b60006102f46102ef6102ea846102af565b6102cf565b6102af565b9050919050565b6000610306826102d9565b9050919050565b6000610318826102fb565b9050919050565b6103288161030d565b82525050565b6000602082019050610343600083018461031f565b92915050565b600081519050919050565b600081905092915050565b60005b8381101561037d578082015181840152602081019050610362565b8381111561038c576000848401525b50505050565b600061039d82610349565b6103a78185610354565b93506103b781856020860161035f565b80840191505092915050565b6000819050919050565b6103de6103d982610239565b6103c3565b82525050565b60006103f08285610392565b91506103fc82846103cd565b6020820191508190509392505050565b60007fff0000000000000000000000000000000000000000000000000000000000000082169050919050565b6000819050919050565b61045361044e8261040c565b610438565b82525050565b6000610464826102af565b9050919050565b60008160601b9050919050565b60006104838261046b565b9050919050565b600061049582610478565b9050919050565b6104ad6104a882610459565b61048a565b82525050565b6000819050919050565b6104ce6104c982610203565b6104b3565b82525050565b60006104e08287610442565b6001820191506104f0828661049c565b60148201915061050082856104bd565b60208201915061051082846104bd565b60208201915081905095945050505050565b61052b81610239565b82525050565b60006020820190506105466000830184610522565b9291505056fe608060405234801561001057600080fd5b506040516101683803806101688339818101604052810190610032919061007a565b80600081905550506100a7565b600080fd5b6000819050919050565b61005781610044565b811461006257600080fd5b50565b6000815190506100748161004e565b92915050565b6000602082840312156100905761008f61003f565b5b600061009e84828501610065565b91505092915050565b60b3806100b56000396000f3fe6080604052348015600f57600080fd5b506004361060285760003560e01c80630c55699c14602d575b600080fd5b60336047565b604051603e91906064565b60405180910390f35b60005481565b6000819050919050565b605e81604d565b82525050565b6000602082019050607760008301846057565b9291505056fea2646970667358221220f839658bd9c6aba0e38c4f659bc26b3511ca07cd2c3cb67ecc586cb702213b9464736f6c634300080f0033a2646970667358221220a528f5026e39a1d8a2ae64e509707794693fb30cbdf8468f0951ba3875f7f3d164736f6c634300080f0033",
					"opcodes": "PUSH1 0x80 PUSH1 0x40 MSTORE CALLVALUE DUP1 ISZERO PUSH2 0x10 JUMPI PUSH1 0x0 DUP1 REVERT JUMPDEST POP PUSH2 0x6EA DUP1 PUSH2 0x20 PUSH1 0x0 CODECOPY PUSH1 0x0 RETURN INVALID PUSH1 0x80 PUSH1 0x40 MSTORE CALLVALUE DUP1 ISZERO PUSH2 0x10 JUMPI PUSH1 0x0 DUP1 REVERT JUMPDEST POP PUSH1 0x4 CALLDATASIZE LT PUSH2 0x36 JUMPI PUSH1 0x0 CALLDATALOAD PUSH1 0xE0 SHR DUP1 PUSH4 0xBD38F2F EQ PUSH2 0x3B JUMPI DUP1 PUSH4 0x8A054AC2 EQ PUSH2 0x57 JUMPI JUMPDEST PUSH1 0x0 DUP1 REVERT JUMPDEST PUSH2 0x55 PUSH1 0x4 DUP1 CALLDATASIZE SUB DUP2 ADD SWAP1 PUSH2 0x50 SWAP2 SWAP1 PUSH2 0x26F JUMP JUMPDEST PUSH2 0x75 JUMP JUMPDEST STOP JUMPDEST PUSH2 0x5F PUSH2 0x1CD JUMP JUMPDEST PUSH1 0x40 MLOAD PUSH2 0x6C SWAP2 SWAP1 PUSH2 0x32E JUMP JUMPDEST PUSH1 0x40 MLOAD DUP1 SWAP2 SUB SWAP1 RETURN JUMPDEST PUSH1 0x0 PUSH1 0xFF PUSH1 0xF8 SHL ADDRESS DUP5 PUSH1 0x40 MLOAD DUP1 PUSH1 0x20 ADD PUSH2 0x8E SWAP1 PUSH2 0x1F1 JUMP JUMPDEST PUSH1 0x20 DUP3 ADD DUP2 SUB DUP3 MSTORE PUSH1 0x1F NOT PUSH1 0x1F DUP3 ADD AND PUSH1 0x40 MSTORE POP DUP6 PUSH1 0x40 MLOAD PUSH1 0x20 ADD PUSH2 0xB4 SWAP3 SWAP2 SWAP1 PUSH2 0x3E4 JUMP JUMPDEST PUSH1 0x40 MLOAD PUSH1 0x20 DUP2 DUP4 SUB SUB DUP2 MSTORE SWAP1 PUSH1 0x40 MSTORE DUP1 MLOAD SWAP1 PUSH1 0x20 ADD KECCAK256 PUSH1 0x40 MLOAD PUSH1 0x20 ADD PUSH2 0xDD SWAP5 SWAP4 SWAP3 SWAP2 SWAP1 PUSH2 0x4D4 JUMP JUMPDEST PUSH1 0x40 MLOAD PUSH1 0x20 DUP2 DUP4 SUB SUB DUP2 MSTORE SWAP1 PUSH1 0x40 MSTORE DUP1 MLOAD SWAP1 PUSH1 0x20 ADD KECCAK256 PUSH1 0x0 SHR SWAP1 POP DUP3 DUP3 PUSH1 0x40 MLOAD PUSH2 0x106 SWAP1 PUSH2 0x1F1 JUMP JUMPDEST PUSH2 0x110 SWAP2 SWAP1 PUSH2 0x531 JUMP JUMPDEST DUP2 SWAP1 PUSH1 0x40 MLOAD DUP1 SWAP2 SUB SWAP1 PUSH1 0x0 CREATE2 SWAP1 POP DUP1 ISZERO DUP1 ISZERO PUSH2 0x130 JUMPI RETURNDATASIZE PUSH1 0x0 DUP1 RETURNDATACOPY RETURNDATASIZE PUSH1 0x0 REVERT JUMPDEST POP PUSH1 0x0 DUP1 PUSH2 0x100 EXP DUP2 SLOAD DUP2 PUSH20 0xFFFFFFFFFFFFFFFFFFFFFFFFFFFFFFFFFFFFFFFF MUL NOT AND SWAP1 DUP4 PUSH20 0xFFFFFFFFFFFFFFFFFFFFFFFFFFFFFFFFFFFFFFFF AND MUL OR SWAP1 SSTORE POP DUP1 PUSH20 0xFFFFFFFFFFFFFFFFFFFFFFFFFFFFFFFFFFFFFFFF AND PUSH1 0x0 DUP1 SLOAD SWAP1 PUSH2 0x100 EXP SWAP1 DIV PUSH20 0xFFFFFFFFFFFFFFFFFFFFFFFFFFFFFFFFFFFFFFFF AND PUSH20 0xFFFFFFFFFFFFFFFFFFFFFFFFFFFFFFFFFFFFFFFF AND EQ PUSH2 0x1C8 JUMPI PUSH1 0x0 DUP1 REVERT JUMPDEST POP POP POP JUMP JUMPDEST PUSH1 0x0 DUP1 SLOAD SWAP1 PUSH2 0x100 EXP SWAP1 DIV PUSH20 0xFFFFFFFFFFFFFFFFFFFFFFFFFFFFFFFFFFFFFFFF AND DUP2 JUMP JUMPDEST PUSH2 0x168 DUP1 PUSH2 0x54D DUP4 CODECOPY ADD SWAP1 JUMP JUMPDEST PUSH1 0x0 DUP1 REVERT JUMPDEST PUSH1 0x0 DUP2 SWAP1 POP SWAP2 SWAP1 POP JUMP JUMPDEST PUSH2 0x216 DUP2 PUSH2 0x203 JUMP JUMPDEST DUP2 EQ PUSH2 0x221 JUMPI PUSH1 0x0 DUP1 REVERT JUMPDEST POP JUMP JUMPDEST PUSH1 0x0 DUP2 CALLDATALOAD SWAP1 POP PUSH2 0x233 DUP2 PUSH2 0x20D JUMP JUMPDEST SWAP3 SWAP2 POP POP JUMP JUMPDEST PUSH1 0x0 DUP2 SWAP1 POP SWAP2 SWAP1 POP JUMP JUMPDEST PUSH2 0x24C DUP2 PUSH2 0x239 JUMP JUMPDEST DUP2 EQ PUSH2 0x257 JUMPI PUSH1 0x0 DUP1 REVERT JUMPDEST POP JUMP JUMPDEST PUSH1 0x0 DUP2 CALLDATALOAD SWAP1 POP PUSH2 0x269 DUP2 PUSH2 0x243 JUMP JUMPDEST SWAP3 SWAP2 POP POP JUMP JUMPDEST PUSH1 0x0 DUP1 PUSH1 0x40 DUP4 DUP6 SUB SLT ISZERO PUSH2 0x286 JUMPI PUSH2 0x285 PUSH2 0x1FE JUMP JUMPDEST JUMPDEST PUSH1 0x0 PUSH2 0x294 DUP6 DUP3 DUP7 ADD PUSH2 0x224 JUMP JUMPDEST SWAP3 POP POP PUSH1 0x20 PUSH2 0x2A5 DUP6 DUP3 DUP7 ADD PUSH2 0x25A JUMP JUMPDEST SWAP2 POP POP SWAP3 POP SWAP3 SWAP1 POP JUMP JUMPDEST PUSH1 0x0 PUSH20 0xFFFFFFFFFFFFFFFFFFFFFFFFFFFFFFFFFFFFFFFF DUP3 AND SWAP1 POP SWAP2 SWAP1 POP JUMP JUMPDEST PUSH1 0x0 DUP2 SWAP1 POP SWAP2 SWAP1 POP JUMP JUMPDEST PUSH1 0x0 PUSH2 0x2F4 PUSH2 0x2EF PUSH2 0x2EA DUP5 PUSH2 0x2AF JUMP JUMPDEST PUSH2 0x2CF JUMP JUMPDEST PUSH2 0x2AF JUMP JUMPDEST SWAP1 POP SWAP2 SWAP1 POP JUMP JUMPDEST PUSH1 0x0 PUSH2 0x306 DUP3 PUSH2 0x2D9 JUMP JUMPDEST SWAP1 POP SWAP2 SWAP1 POP JUMP JUMPDEST PUSH1 0x0 PUSH2 0x318 DUP3 PUSH2 0x2FB JUMP JUMPDEST SWAP1 POP SWAP2 SWAP1 POP JUMP JUMPDEST PUSH2 0x328 DUP2 PUSH2 0x30D JUMP JUMPDEST DUP3 MSTORE POP POP JUMP JUMPDEST PUSH1 0x0 PUSH1 0x20 DUP3 ADD SWAP1 POP PUSH2 0x343 PUSH1 0x0 DUP4 ADD DUP5 PUSH2 0x31F JUMP JUMPDEST SWAP3 SWAP2 POP POP JUMP JUMPDEST PUSH1 0x0 DUP2 MLOAD SWAP1 POP SWAP2 SWAP1 POP JUMP JUMPDEST PUSH1 0x0 DUP2 SWAP1 POP SWAP3 SWAP2 POP POP JUMP JUMPDEST PUSH1 0x0 JUMPDEST DUP4 DUP2 LT ISZERO PUSH2 0x37D JUMPI DUP1 DUP3 ADD MLOAD DUP2 DUP5 ADD MSTORE PUSH1 0x20 DUP2 ADD SWAP1 POP PUSH2 0x362 JUMP JUMPDEST DUP4 DUP2 GT ISZERO PUSH2 0x38C JUMPI PUSH1 0x0 DUP5 DUP5 ADD MSTORE JUMPDEST POP POP POP POP JUMP JUMPDEST PUSH1 0x0 PUSH2 0x39D DUP3 PUSH2 0x349 JUMP JUMPDEST PUSH2 0x3A7 DUP2 DUP6 PUSH2 0x354 JUMP JUMPDEST SWAP4 POP PUSH2 0x3B7 DUP2 DUP6 PUSH1 0x20 DUP7 ADD PUSH2 0x35F JUMP JUMPDEST DUP1 DUP5 ADD SWAP2 POP POP SWAP3 SWAP2 POP POP JUMP JUMPDEST PUSH1 0x0 DUP2 SWAP1 POP SWAP2 SWAP1 POP JUMP JUMPDEST PUSH2 0x3DE PUSH2 0x3D9 DUP3 PUSH2 0x239 JUMP JUMPDEST PUSH2 0x3C3 JUMP JUMPDEST DUP3 MSTORE POP POP JUMP JUMPDEST PUSH1 0x0 PUSH2 0x3F0 DUP3 DUP6 PUSH2 0x392 JUMP JUMPDEST SWAP2 POP PUSH2 0x3FC DUP3 DUP5 PUSH2 0x3CD JUMP JUMPDEST PUSH1 0x20 DUP3 ADD SWAP2 POP DUP2 SWAP1 POP SWAP4 SWAP3 POP POP POP JUMP JUMPDEST PUSH1 0x0 PUSH32 0xFF00000000000000000000000000000000000000000000000000000000000000 DUP3 AND SWAP1 POP SWAP2 SWAP1 POP JUMP JUMPDEST PUSH1 0x0 DUP2 SWAP1 POP SWAP2 SWAP1 POP JUMP JUMPDEST PUSH2 0x453 PUSH2 0x44E DUP3 PUSH2 0x40C JUMP JUMPDEST PUSH2 0x438 JUMP JUMPDEST DUP3 MSTORE POP POP JUMP JUMPDEST PUSH1 0x0 PUSH2 0x464 DUP3 PUSH2 0x2AF JUMP JUMPDEST SWAP1 POP SWAP2 SWAP1 POP JUMP JUMPDEST PUSH1 0x0 DUP2 PUSH1 0x60 SHL SWAP1 POP SWAP2 SWAP1 POP JUMP JUMPDEST PUSH1 0x0 PUSH2 0x483 DUP3 PUSH2 0x46B JUMP JUMPDEST SWAP1 POP SWAP2 SWAP1 POP JUMP JUMPDEST PUSH1 0x0 PUSH2 0x495 DUP3 PUSH2 0x478 JUMP JUMPDEST SWAP1 POP SWAP2 SWAP1 POP JUMP JUMPDEST PUSH2 0x4AD PUSH2 0x4A8 DUP3 PUSH2 0x459 JUMP JUMPDEST PUSH2 0x48A JUMP JUMPDEST DUP3 MSTORE POP POP JUMP JUMPDEST PUSH1 0x0 DUP2 SWAP1 POP SWAP2 SWAP1 POP JUMP JUMPDEST PUSH2 0x4CE PUSH2 0x4C9 DUP3 PUSH2 0x203 JUMP JUMPDEST PUSH2 0x4B3 JUMP JUMPDEST DUP3 MSTORE POP POP JUMP JUMPDEST PUSH1 0x0 PUSH2 0x4E0 DUP3 DUP8 PUSH2 0x442 JUMP JUMPDEST PUSH1 0x1 DUP3 ADD SWAP2 POP PUSH2 0x4F0 DUP3 DUP7 PUSH2 0x49C JUMP JUMPDEST PUSH1 0x14 DUP3 ADD SWAP2 POP PUSH2 0x500 DUP3 DUP6 PUSH2 0x4BD JUMP JUMPDEST PUSH1 0x20 DUP3 ADD SWAP2 POP PUSH2 0x510 DUP3 DUP5 PUSH2 0x4BD JUMP JUMPDEST PUSH1 0x20 DUP3 ADD SWAP2 POP DUP2 SWAP1 POP SWAP6 SWAP5 POP POP POP POP POP JUMP JUMPDEST PUSH2 0x52B DUP2 PUSH2 0x239 JUMP JUMPDEST DUP3 MSTORE POP POP JUMP JUMPDEST PUSH1 0x0 PUSH1 0x20 DUP3 ADD SWAP1 POP PUSH2 0x546 PUSH1 0x0 DUP4 ADD DUP5 PUSH2 0x522 JUMP JUMPDEST SWAP3 SWAP2 POP POP JUMP INVALID PUSH1 0x80 PUSH1 0x40 MSTORE CALLVALUE DUP1 ISZERO PUSH2 0x10 JUMPI PUSH1 0x0 DUP1 REVERT JUMPDEST POP PUSH1 0x40 MLOAD PUSH2 0x168 CODESIZE SUB DUP1 PUSH2 0x168 DUP4 CODECOPY DUP2 DUP2 ADD PUSH1 0x40 MSTORE DUP2 ADD SWAP1 PUSH2 0x32 SWAP2 SWAP1 PUSH2 0x7A JUMP JUMPDEST DUP1 PUSH1 0x0 DUP2 SWAP1 SSTORE POP POP PUSH2 0xA7 JUMP JUMPDEST PUSH1 0x0 DUP1 REVERT JUMPDEST PUSH1 0x0 DUP2 SWAP1 POP SWAP2 SWAP1 POP JUMP JUMPDEST PUSH2 0x57 DUP2 PUSH2 0x44 JUMP JUMPDEST DUP2 EQ PUSH2 0x62 JUMPI PUSH1 0x0 DUP1 REVERT JUMPDEST POP JUMP JUMPDEST PUSH1 0x0 DUP2 MLOAD SWAP1 POP PUSH2 0x74 DUP2 PUSH2 0x4E JUMP JUMPDEST SWAP3 SWAP2 POP POP JUMP JUMPDEST PUSH1 0x0 PUSH1 0x20 DUP3 DUP5 SUB SLT ISZERO PUSH2 0x90 JUMPI PUSH2 0x8F PUSH2 0x3F JUMP JUMPDEST JUMPDEST PUSH1 0x0 PUSH2 0x9E DUP5 DUP3 DUP6 ADD PUSH2 0x65 JUMP JUMPDEST SWAP2 POP POP SWAP3 SWAP2 POP POP JUMP JUMPDEST PUSH1 0xB3 DUP1 PUSH2 0xB5 PUSH1 0x0 CODECOPY PUSH1 0x0 RETURN INVALID PUSH1 0x80 PUSH1 0x40 MSTORE CALLVALUE DUP1 ISZERO PUSH1 0xF JUMPI PUSH1 0x0 DUP1 REVERT JUMPDEST POP PUSH1 0x4 CALLDATASIZE LT PUSH1 0x28 JUMPI PUSH1 0x0 CALLDATALOAD PUSH1 0xE0 SHR DUP1 PUSH4 0xC55699C EQ PUSH1 0x2D JUMPI JUMPDEST PUSH1 0x0 DUP1 REVERT JUMPDEST PUSH1 0x33 PUSH1 0x47 JUMP JUMPDEST PUSH1 0x40 MLOAD PUSH1 0x3E SWAP2 SWAP1 PUSH1 0x64 JUMP JUMPDEST PUSH1 0x40 MLOAD DUP1 SWAP2 SUB SWAP1 RETURN JUMPDEST PUSH1 0x0 SLOAD DUP2 JUMP JUMPDEST PUSH1 0x0 DUP2 SWAP1 POP SWAP2 SWAP1 POP JUMP JUMPDEST PUSH1 0x5E DUP2 PUSH1 0x4D JUMP JUMPDEST DUP3 MSTORE POP POP JUMP JUMPDEST PUSH1 0x0 PUSH1 0x20 DUP3 ADD SWAP1 POP PUSH1 0x77 PUSH1 0x0 DUP4 ADD DUP5 PUSH1 0x57 JUMP JUMPDEST SWAP3 SWAP2 POP POP JUMP INVALID LOG2 PUSH5 0x6970667358 0x22 SLT KECCAK256 0xF8 CODECOPY PUSH6 0x8BD9C6ABA0E3 DUP13 0x4F PUSH6 0x9BC26B3511CA SMOD 0xCD 0x2C EXTCODECOPY 0xB6 PUSH31 0xCC586CB702213B9464736F6C634300080F0033A2646970667358221220A528 CREATE2 MUL PUSH15 0x39A1D8A2AE64E509707794693FB30C 0xBD 0xF8 CHAINID DUP16 MULMOD MLOAD 0xBA CODESIZE PUSH22 0xF7F3D164736F6C634300080F00330000000000000000 "
				},
				"gasEstimates": {
					"creation": {
						"codeDepositCost": "354000",
						"executionCost": "393",
						"totalCost": "354393"
					},
					"external": {
						"createDSalted(bytes32,uint256)": "infinite",
						"d()": "infinite"
					}
				},
				"methodIdentifiers": {
					"createDSalted(bytes32,uint256)": "0bd38f2f",
					"d()": "8a054ac2"
				}
			},
			"storageLayout": {
				"storage": [
					{
						"astId": 17,
						"contract": "study/chapter04/create2.sol:C",
						"label": "d",
						"offset": 0,
						"slot": "0",
						"type": "t_contract(D)14"
					}
				],
				"types": {
					"t_contract(D)14": {
						"encoding": "inplace",
						"label": "contract D",
						"numberOfBytes": "20"
					}
				}
			},
			"userdoc": {
				"kind": "user",
				"methods": {},
				"version": 1
			}
		}
	}
}