{
	"contract/chapter04/ty.sol": {
		"FeedConsumer": {
			"abi": [
				{
					"inputs": [],
					"name": "testAdd",
					"outputs": [
						{
							"internalType": "uint256",
							"name": "value",
							"type": "uint256"
						},
						{
							"internalType": "bool",
							"name": "success",
							"type": "bool"
						}
					],
					"stateMutability": "nonpayable",
					"type": "function"
				}
			],
			"devdoc": {
				"kind": "dev",
				"methods": {},
				"version": 1
			},
			"evm": {
				"assembly": "    /* \"contract/chapter04/ty.sol\":294:1195  contract FeedConsumer {\r... */\n  mstore(0x40, 0x80)\n    /* \"contract/chapter04/ty.sol\":339:353  new DataFeed() */\n  mload(0x40)\n  tag_1\n  swap1\n  tag_2\n  jump\t// in\ntag_1:\n  mload(0x40)\n  dup1\n  swap2\n  sub\n  swap1\n  0x00\n  create\n  dup1\n  iszero\n  dup1\n  iszero\n  tag_3\n  jumpi\n  returndatasize\n  0x00\n  dup1\n  returndatacopy\n  revert(0x00, returndatasize)\ntag_3:\n  pop\n    /* \"contract/chapter04/ty.sol\":323:353  DataFeed feed = new DataFeed() */\n  0x00\n  dup1\n  0x0100\n  exp\n  dup2\n  sload\n  dup2\n  0xffffffffffffffffffffffffffffffffffffffff\n  mul\n  not\n  and\n  swap1\n  dup4\n  0xffffffffffffffffffffffffffffffffffffffff\n  and\n  mul\n  or\n  swap1\n  sstore\n  pop\n    /* \"contract/chapter04/ty.sol\":294:1195  contract FeedConsumer {\r... */\n  callvalue\n  dup1\n  iszero\n  tag_4\n  jumpi\n  0x00\n  dup1\n  revert\ntag_4:\n  pop\n  jump(tag_5)\ntag_2:\n  dataSize(sub_1)\n  dup1\n  dataOffset(sub_1)\n  dup4\n  codecopy\n  add\n  swap1\n  jump\t// out\ntag_5:\n  dataSize(sub_0)\n  dup1\n  dataOffset(sub_0)\n  0x00\n  codecopy\n  0x00\n  return\nstop\n\nsub_0: assembly {\n        /* \"contract/chapter04/ty.sol\":294:1195  contract FeedConsumer {\r... */\n      mstore(0x40, 0x80)\n      callvalue\n      dup1\n      iszero\n      tag_1\n      jumpi\n      0x00\n      dup1\n      revert\n    tag_1:\n      pop\n      jumpi(tag_2, lt(calldatasize, 0x04))\n      shr(0xe0, calldataload(0x00))\n      dup1\n      0xae40f72f\n      eq\n      tag_3\n      jumpi\n    tag_2:\n      0x00\n      dup1\n      revert\n        /* \"contract/chapter04/ty.sol\":425:1192  function testAdd() public returns (uint value, bool success) {\r... */\n    tag_3:\n      tag_4\n      tag_5\n      jump\t// in\n    tag_4:\n      mload(0x40)\n      tag_6\n      swap3\n      swap2\n      swap1\n      tag_7\n      jump\t// in\n    tag_6:\n      mload(0x40)\n      dup1\n      swap2\n      sub\n      swap1\n      return\n    tag_5:\n        /* \"contract/chapter04/ty.sol\":460:470  uint value */\n      0x00\n        /* \"contract/chapter04/ty.sol\":472:484  bool success */\n      dup1\n        /* \"contract/chapter04/ty.sol\":501:505  feed */\n      0x00\n      dup1\n      sload\n      swap1\n      0x0100\n      exp\n      swap1\n      div\n      0xffffffffffffffffffffffffffffffffffffffff\n      and\n        /* \"contract/chapter04/ty.sol\":501:509  feed.add */\n      0xffffffffffffffffffffffffffffffffffffffff\n      and\n      0x771602f7\n        /* \"contract/chapter04/ty.sol\":510:511  5 */\n      0x05\n        /* \"contract/chapter04/ty.sol\":512:513  0 */\n      0x00\n        /* \"contract/chapter04/ty.sol\":501:514  feed.add(5,0) */\n      mload(0x40)\n      dup4\n      0xffffffff\n      and\n      0xe0\n      shl\n      dup2\n      mstore\n      0x04\n      add\n      tag_9\n      swap3\n      swap2\n      swap1\n      tag_10\n      jump\t// in\n    tag_9:\n      0x20\n      mload(0x40)\n      dup1\n      dup4\n      sub\n      dup2\n      dup7\n      dup1\n      extcodesize\n      iszero\n      dup1\n      iszero\n      tag_11\n      jumpi\n      0x00\n      dup1\n      revert\n    tag_11:\n      pop\n      gas\n      staticcall\n      swap3\n      pop\n      pop\n      pop\n      dup1\n      iszero\n      tag_12\n      jumpi\n      pop\n      mload(0x40)\n      returndatasize\n      not(0x1f)\n      0x1f\n      dup3\n      add\n      and\n      dup3\n      add\n      dup1\n      0x40\n      mstore\n      pop\n      dup2\n      add\n      swap1\n      tag_13\n      swap2\n      swap1\n      tag_14\n      jump\t// in\n    tag_13:\n      0x01\n    tag_12:\n        /* \"contract/chapter04/ty.sol\":497:1185  try feed.add(5,0) returns (uint v) {//尝试调用 外部的 getData 函数，执行成功就获得返回值，然后继续执行花括号内的内容\r... */\n      tag_15\n      jumpi\n      tag_19\n      tag_20\n      jump\t// in\n    tag_19:\n      dup1\n      0x08c379a0\n      eq\n      iszero\n      tag_18\n      jumpi\n      pop\n      tag_21\n      tag_22\n      jump\t// in\n    tag_21:\n      dup1\n      tag_23\n      jumpi\n      pop\n      jump(tag_17)\n    tag_23:\n        /* \"contract/chapter04/ty.sol\":822:832  errorCount */\n      0x01\n      0x00\n        /* \"contract/chapter04/ty.sol\":822:834  errorCount++ */\n      dup2\n      sload\n      dup1\n      swap3\n      swap2\n      swap1\n      tag_24\n      swap1\n      tag_25\n      jump\t// in\n    tag_24:\n      swap2\n      swap1\n      pop\n      sstore\n      pop\n        /* \"contract/chapter04/ty.sol\":857:860  100 */\n      0x64\n        /* \"contract/chapter04/ty.sol\":862:867  false */\n      0x00\n        /* \"contract/chapter04/ty.sol\":849:868  return (100, false) */\n      swap3\n      pop\n      swap3\n      pop\n      pop\n      jump(tag_8)\n        /* \"contract/chapter04/ty.sol\":497:1185  try feed.add(5,0) returns (uint v) {//尝试调用 外部的 getData 函数，执行成功就获得返回值，然后继续执行花括号内的内容\r... */\n    tag_18:\n      0x4e487b71\n      eq\n      iszero\n      tag_17\n      jumpi\n      tag_26\n      tag_27\n      jump\t// in\n    tag_26:\n      swap1\n      tag_28\n      jumpi\n      pop\n      jump(tag_17)\n    tag_28:\n        /* \"contract/chapter04/ty.sol\":965:975  errorCount */\n      0x01\n      0x00\n        /* \"contract/chapter04/ty.sol\":965:977  errorCount++ */\n      dup2\n      sload\n      dup1\n      swap3\n      swap2\n      swap1\n      tag_29\n      swap1\n      tag_25\n      jump\t// in\n    tag_29:\n      swap2\n      swap1\n      pop\n      sstore\n      pop\n        /* \"contract/chapter04/ty.sol\":1000:1003  200 */\n      0xc8\n        /* \"contract/chapter04/ty.sol\":1005:1010  false */\n      0x00\n        /* \"contract/chapter04/ty.sol\":992:1011  return (200, false) */\n      swap3\n      pop\n      swap3\n      pop\n      pop\n      jump(tag_8)\n        /* \"contract/chapter04/ty.sol\":497:1185  try feed.add(5,0) returns (uint v) {//尝试调用 外部的 getData 函数，执行成功就获得返回值，然后继续执行花括号内的内容\r... */\n    tag_17:\n      returndatasize\n      dup1\n      0x00\n      dup2\n      eq\n      tag_31\n      jumpi\n      mload(0x40)\n      swap2\n      pop\n      and(add(returndatasize, 0x3f), not(0x1f))\n      dup3\n      add\n      0x40\n      mstore\n      returndatasize\n      dup3\n      mstore\n      returndatasize\n      0x00\n      0x20\n      dup5\n      add\n      returndatacopy\n      jump(tag_30)\n    tag_31:\n      0x60\n      swap2\n      pop\n    tag_30:\n      pop\n        /* \"contract/chapter04/ty.sol\":1127:1137  errorCount */\n      0x01\n      0x00\n        /* \"contract/chapter04/ty.sol\":1127:1139  errorCount++ */\n      dup2\n      sload\n      dup1\n      swap3\n      swap2\n      swap1\n      tag_32\n      swap1\n      tag_25\n      jump\t// in\n    tag_32:\n      swap2\n      swap1\n      pop\n      sstore\n      pop\n        /* \"contract/chapter04/ty.sol\":1162:1165  300 */\n      0x012c\n        /* \"contract/chapter04/ty.sol\":1167:1172  false */\n      0x00\n        /* \"contract/chapter04/ty.sol\":1154:1173  return (300, false) */\n      swap3\n      pop\n      swap3\n      pop\n      pop\n      jump(tag_8)\n        /* \"contract/chapter04/ty.sol\":497:1185  try feed.add(5,0) returns (uint v) {//尝试调用 外部的 getData 函数，执行成功就获得返回值，然后继续执行花括号内的内容\r... */\n    tag_15:\n        /* \"contract/chapter04/ty.sol\":669:670  v */\n      dup1\n        /* \"contract/chapter04/ty.sol\":672:676  true */\n      0x01\n        /* \"contract/chapter04/ty.sol\":661:677  return (v, true) */\n      swap3\n      pop\n      swap3\n      pop\n      pop\n        /* \"contract/chapter04/ty.sol\":425:1192  function testAdd() public returns (uint value, bool success) {\r... */\n    tag_8:\n      swap1\n      swap2\n      jump\t// out\n        /* \"#utility.yul\":7:150   */\n    tag_35:\n        /* \"#utility.yul\":64:69   */\n      0x00\n        /* \"#utility.yul\":95:101   */\n      dup2\n        /* \"#utility.yul\":89:102   */\n      mload\n        /* \"#utility.yul\":80:102   */\n      swap1\n      pop\n        /* \"#utility.yul\":111:144   */\n      tag_37\n        /* \"#utility.yul\":138:143   */\n      dup2\n        /* \"#utility.yul\":111:144   */\n      tag_38\n      jump\t// in\n    tag_37:\n        /* \"#utility.yul\":7:150   */\n      swap3\n      swap2\n      pop\n      pop\n      jump\t// out\n        /* \"#utility.yul\":156:507   */\n    tag_14:\n        /* \"#utility.yul\":226:232   */\n      0x00\n        /* \"#utility.yul\":275:277   */\n      0x20\n        /* \"#utility.yul\":263:272   */\n      dup3\n        /* \"#utility.yul\":254:261   */\n      dup5\n        /* \"#utility.yul\":250:273   */\n      sub\n        /* \"#utility.yul\":246:278   */\n      slt\n        /* \"#utility.yul\":243:362   */\n      iszero\n      tag_40\n      jumpi\n        /* \"#utility.yul\":281:360   */\n      tag_41\n      tag_42\n      jump\t// in\n    tag_41:\n        /* \"#utility.yul\":243:362   */\n    tag_40:\n        /* \"#utility.yul\":401:402   */\n      0x00\n        /* \"#utility.yul\":426:490   */\n      tag_43\n        /* \"#utility.yul\":482:489   */\n      dup5\n        /* \"#utility.yul\":473:479   */\n      dup3\n        /* \"#utility.yul\":462:471   */\n      dup6\n        /* \"#utility.yul\":458:480   */\n      add\n        /* \"#utility.yul\":426:490   */\n      tag_35\n      jump\t// in\n    tag_43:\n        /* \"#utility.yul\":416:490   */\n      swap2\n      pop\n        /* \"#utility.yul\":372:500   */\n      pop\n        /* \"#utility.yul\":156:507   */\n      swap3\n      swap2\n      pop\n      pop\n      jump\t// out\n        /* \"#utility.yul\":513:622   */\n    tag_44:\n        /* \"#utility.yul\":594:615   */\n      tag_46\n        /* \"#utility.yul\":609:614   */\n      dup2\n        /* \"#utility.yul\":594:615   */\n      tag_47\n      jump\t// in\n    tag_46:\n        /* \"#utility.yul\":589:592   */\n      dup3\n        /* \"#utility.yul\":582:616   */\n      mstore\n        /* \"#utility.yul\":513:622   */\n      pop\n      pop\n      jump\t// out\n        /* \"#utility.yul\":628:775   */\n    tag_48:\n        /* \"#utility.yul\":723:768   */\n      tag_50\n        /* \"#utility.yul\":762:767   */\n      dup2\n        /* \"#utility.yul\":723:768   */\n      tag_51\n      jump\t// in\n    tag_50:\n        /* \"#utility.yul\":718:721   */\n      dup3\n        /* \"#utility.yul\":711:769   */\n      mstore\n        /* \"#utility.yul\":628:775   */\n      pop\n      pop\n      jump\t// out\n        /* \"#utility.yul\":781:928   */\n    tag_52:\n        /* \"#utility.yul\":876:921   */\n      tag_54\n        /* \"#utility.yul\":915:920   */\n      dup2\n        /* \"#utility.yul\":876:921   */\n      tag_55\n      jump\t// in\n    tag_54:\n        /* \"#utility.yul\":871:874   */\n      dup3\n        /* \"#utility.yul\":864:922   */\n      mstore\n        /* \"#utility.yul\":781:928   */\n      pop\n      pop\n      jump\t// out\n        /* \"#utility.yul\":934:1052   */\n    tag_56:\n        /* \"#utility.yul\":1021:1045   */\n      tag_58\n        /* \"#utility.yul\":1039:1044   */\n      dup2\n        /* \"#utility.yul\":1021:1045   */\n      tag_59\n      jump\t// in\n    tag_58:\n        /* \"#utility.yul\":1016:1019   */\n      dup3\n        /* \"#utility.yul\":1009:1046   */\n      mstore\n        /* \"#utility.yul\":934:1052   */\n      pop\n      pop\n      jump\t// out\n        /* \"#utility.yul\":1058:1422   */\n    tag_10:\n        /* \"#utility.yul\":1195:1199   */\n      0x00\n        /* \"#utility.yul\":1233:1235   */\n      0x40\n        /* \"#utility.yul\":1222:1231   */\n      dup3\n        /* \"#utility.yul\":1218:1236   */\n      add\n        /* \"#utility.yul\":1210:1236   */\n      swap1\n      pop\n        /* \"#utility.yul\":1246:1325   */\n      tag_61\n        /* \"#utility.yul\":1322:1323   */\n      0x00\n        /* \"#utility.yul\":1311:1320   */\n      dup4\n        /* \"#utility.yul\":1307:1324   */\n      add\n        /* \"#utility.yul\":1298:1304   */\n      dup6\n        /* \"#utility.yul\":1246:1325   */\n      tag_52\n      jump\t// in\n    tag_61:\n        /* \"#utility.yul\":1335:1415   */\n      tag_62\n        /* \"#utility.yul\":1411:1413   */\n      0x20\n        /* \"#utility.yul\":1400:1409   */\n      dup4\n        /* \"#utility.yul\":1396:1414   */\n      add\n        /* \"#utility.yul\":1387:1393   */\n      dup5\n        /* \"#utility.yul\":1335:1415   */\n      tag_48\n      jump\t// in\n    tag_62:\n        /* \"#utility.yul\":1058:1422   */\n      swap4\n      swap3\n      pop\n      pop\n      pop\n      jump\t// out\n        /* \"#utility.yul\":1428:1748   */\n    tag_7:\n        /* \"#utility.yul\":1543:1547   */\n      0x00\n        /* \"#utility.yul\":1581:1583   */\n      0x40\n        /* \"#utility.yul\":1570:1579   */\n      dup3\n        /* \"#utility.yul\":1566:1584   */\n      add\n        /* \"#utility.yul\":1558:1584   */\n      swap1\n      pop\n        /* \"#utility.yul\":1594:1665   */\n      tag_64\n        /* \"#utility.yul\":1662:1663   */\n      0x00\n        /* \"#utility.yul\":1651:1660   */\n      dup4\n        /* \"#utility.yul\":1647:1664   */\n      add\n        /* \"#utility.yul\":1638:1644   */\n      dup6\n        /* \"#utility.yul\":1594:1665   */\n      tag_56\n      jump\t// in\n    tag_64:\n        /* \"#utility.yul\":1675:1741   */\n      tag_65\n        /* \"#utility.yul\":1737:1739   */\n      0x20\n        /* \"#utility.yul\":1726:1735   */\n      dup4\n        /* \"#utility.yul\":1722:1740   */\n      add\n        /* \"#utility.yul\":1713:1719   */\n      dup5\n        /* \"#utility.yul\":1675:1741   */\n      tag_44\n      jump\t// in\n    tag_65:\n        /* \"#utility.yul\":1428:1748   */\n      swap4\n      swap3\n      pop\n      pop\n      pop\n      jump\t// out\n        /* \"#utility.yul\":1754:1829   */\n    tag_66:\n        /* \"#utility.yul\":1787:1793   */\n      0x00\n        /* \"#utility.yul\":1820:1822   */\n      0x40\n        /* \"#utility.yul\":1814:1823   */\n      mload\n        /* \"#utility.yul\":1804:1823   */\n      swap1\n      pop\n        /* \"#utility.yul\":1754:1829   */\n      swap1\n      jump\t// out\n        /* \"#utility.yul\":1835:1925   */\n    tag_47:\n        /* \"#utility.yul\":1869:1876   */\n      0x00\n        /* \"#utility.yul\":1912:1917   */\n      dup2\n        /* \"#utility.yul\":1905:1918   */\n      iszero\n        /* \"#utility.yul\":1898:1919   */\n      iszero\n        /* \"#utility.yul\":1887:1919   */\n      swap1\n      pop\n        /* \"#utility.yul\":1835:1925   */\n      swap2\n      swap1\n      pop\n      jump\t// out\n        /* \"#utility.yul\":1931:2008   */\n    tag_59:\n        /* \"#utility.yul\":1968:1975   */\n      0x00\n        /* \"#utility.yul\":1997:2002   */\n      dup2\n        /* \"#utility.yul\":1986:2002   */\n      swap1\n      pop\n        /* \"#utility.yul\":1931:2008   */\n      swap2\n      swap1\n      pop\n      jump\t// out\n        /* \"#utility.yul\":2014:2135   */\n    tag_51:\n        /* \"#utility.yul\":2072:2081   */\n      0x00\n        /* \"#utility.yul\":2105:2129   */\n      tag_71\n        /* \"#utility.yul\":2123:2128   */\n      dup3\n        /* \"#utility.yul\":2105:2129   */\n      tag_59\n      jump\t// in\n    tag_71:\n        /* \"#utility.yul\":2092:2129   */\n      swap1\n      pop\n        /* \"#utility.yul\":2014:2135   */\n      swap2\n      swap1\n      pop\n      jump\t// out\n        /* \"#utility.yul\":2141:2262   */\n    tag_55:\n        /* \"#utility.yul\":2199:2208   */\n      0x00\n        /* \"#utility.yul\":2232:2256   */\n      tag_73\n        /* \"#utility.yul\":2250:2255   */\n      dup3\n        /* \"#utility.yul\":2232:2256   */\n      tag_59\n      jump\t// in\n    tag_73:\n        /* \"#utility.yul\":2219:2256   */\n      swap1\n      pop\n        /* \"#utility.yul\":2141:2262   */\n      swap2\n      swap1\n      pop\n      jump\t// out\n        /* \"#utility.yul\":2268:2549   */\n    tag_74:\n        /* \"#utility.yul\":2351:2378   */\n      tag_76\n        /* \"#utility.yul\":2373:2377   */\n      dup3\n        /* \"#utility.yul\":2351:2378   */\n      tag_77\n      jump\t// in\n    tag_76:\n        /* \"#utility.yul\":2343:2349   */\n      dup2\n        /* \"#utility.yul\":2339:2379   */\n      add\n        /* \"#utility.yul\":2481:2487   */\n      dup2\n        /* \"#utility.yul\":2469:2479   */\n      dup2\n        /* \"#utility.yul\":2466:2488   */\n      lt\n        /* \"#utility.yul\":2445:2463   */\n      0xffffffffffffffff\n        /* \"#utility.yul\":2433:2443   */\n      dup3\n        /* \"#utility.yul\":2430:2464   */\n      gt\n        /* \"#utility.yul\":2427:2489   */\n      or\n        /* \"#utility.yul\":2424:2512   */\n      iszero\n      tag_78\n      jumpi\n        /* \"#utility.yul\":2492:2510   */\n      tag_79\n      tag_80\n      jump\t// in\n    tag_79:\n        /* \"#utility.yul\":2424:2512   */\n    tag_78:\n        /* \"#utility.yul\":2532:2542   */\n      dup1\n        /* \"#utility.yul\":2528:2530   */\n      0x40\n        /* \"#utility.yul\":2521:2543   */\n      mstore\n        /* \"#utility.yul\":2311:2549   */\n      pop\n        /* \"#utility.yul\":2268:2549   */\n      pop\n      pop\n      jump\t// out\n        /* \"#utility.yul\":2555:2788   */\n    tag_25:\n        /* \"#utility.yul\":2594:2597   */\n      0x00\n        /* \"#utility.yul\":2617:2641   */\n      tag_82\n        /* \"#utility.yul\":2635:2640   */\n      dup3\n        /* \"#utility.yul\":2617:2641   */\n      tag_59\n      jump\t// in\n    tag_82:\n        /* \"#utility.yul\":2608:2641   */\n      swap2\n      pop\n        /* \"#utility.yul\":2663:2729   */\n      0xffffffffffffffffffffffffffffffffffffffffffffffffffffffffffffffff\n        /* \"#utility.yul\":2656:2661   */\n      dup3\n        /* \"#utility.yul\":2653:2730   */\n      eq\n        /* \"#utility.yul\":2650:2753   */\n      iszero\n      tag_83\n      jumpi\n        /* \"#utility.yul\":2733:2751   */\n      tag_84\n      tag_85\n      jump\t// in\n    tag_84:\n        /* \"#utility.yul\":2650:2753   */\n    tag_83:\n        /* \"#utility.yul\":2780:2781   */\n      0x01\n        /* \"#utility.yul\":2773:2778   */\n      dup3\n        /* \"#utility.yul\":2769:2782   */\n      add\n        /* \"#utility.yul\":2762:2782   */\n      swap1\n      pop\n        /* \"#utility.yul\":2555:2788   */\n      swap2\n      swap1\n      pop\n      jump\t// out\n        /* \"#utility.yul\":2794:2974   */\n    tag_85:\n        /* \"#utility.yul\":2842:2919   */\n      0x4e487b7100000000000000000000000000000000000000000000000000000000\n        /* \"#utility.yul\":2839:2840   */\n      0x00\n        /* \"#utility.yul\":2832:2920   */\n      mstore\n        /* \"#utility.yul\":2939:2943   */\n      0x11\n        /* \"#utility.yul\":2936:2937   */\n      0x04\n        /* \"#utility.yul\":2929:2944   */\n      mstore\n        /* \"#utility.yul\":2963:2967   */\n      0x24\n        /* \"#utility.yul\":2960:2961   */\n      0x00\n        /* \"#utility.yul\":2953:2968   */\n      revert\n        /* \"#utility.yul\":2980:3160   */\n    tag_80:\n        /* \"#utility.yul\":3028:3105   */\n      0x4e487b7100000000000000000000000000000000000000000000000000000000\n        /* \"#utility.yul\":3025:3026   */\n      0x00\n        /* \"#utility.yul\":3018:3106   */\n      mstore\n        /* \"#utility.yul\":3125:3129   */\n      0x41\n        /* \"#utility.yul\":3122:3123   */\n      0x04\n        /* \"#utility.yul\":3115:3130   */\n      mstore\n        /* \"#utility.yul\":3149:3153   */\n      0x24\n        /* \"#utility.yul\":3146:3147   */\n      0x00\n        /* \"#utility.yul\":3139:3154   */\n      revert\n        /* \"#utility.yul\":3166:3349   */\n    tag_20:\n        /* \"#utility.yul\":3201:3204   */\n      0x00\n        /* \"#utility.yul\":3239:3240   */\n      0x03\n        /* \"#utility.yul\":3221:3237   */\n      returndatasize\n        /* \"#utility.yul\":3218:3241   */\n      gt\n        /* \"#utility.yul\":3215:3343   */\n      iszero\n      tag_89\n      jumpi\n        /* \"#utility.yul\":3277:3278   */\n      0x04\n        /* \"#utility.yul\":3274:3275   */\n      0x00\n        /* \"#utility.yul\":3271:3272   */\n      dup1\n        /* \"#utility.yul\":3256:3279   */\n      returndatacopy\n        /* \"#utility.yul\":3299:3333   */\n      tag_90\n        /* \"#utility.yul\":3330:3331   */\n      0x00\n        /* \"#utility.yul\":3324:3332   */\n      mload\n        /* \"#utility.yul\":3299:3333   */\n      tag_91\n      jump\t// in\n    tag_90:\n        /* \"#utility.yul\":3292:3333   */\n      swap1\n      pop\n        /* \"#utility.yul\":3215:3343   */\n    tag_89:\n        /* \"#utility.yul\":3166:3349   */\n      swap1\n      jump\t// out\n        /* \"#utility.yul\":3478:3595   */\n    tag_42:\n        /* \"#utility.yul\":3587:3588   */\n      0x00\n        /* \"#utility.yul\":3584:3585   */\n      dup1\n        /* \"#utility.yul\":3577:3589   */\n      revert\n        /* \"#utility.yul\":3601:3703   */\n    tag_77:\n        /* \"#utility.yul\":3642:3648   */\n      0x00\n        /* \"#utility.yul\":3693:3695   */\n      0x1f\n        /* \"#utility.yul\":3689:3696   */\n      not\n        /* \"#utility.yul\":3684:3686   */\n      0x1f\n        /* \"#utility.yul\":3677:3682   */\n      dup4\n        /* \"#utility.yul\":3673:3687   */\n      add\n        /* \"#utility.yul\":3669:3697   */\n      and\n        /* \"#utility.yul\":3659:3697   */\n      swap1\n      pop\n        /* \"#utility.yul\":3601:3703   */\n      swap2\n      swap1\n      pop\n      jump\t// out\n        /* \"#utility.yul\":3709:3815   */\n    tag_91:\n        /* \"#utility.yul\":3753:3761   */\n      0x00\n        /* \"#utility.yul\":3802:3807   */\n      dup2\n        /* \"#utility.yul\":3797:3800   */\n      0xe0\n        /* \"#utility.yul\":3793:3808   */\n      shr\n        /* \"#utility.yul\":3772:3808   */\n      swap1\n      pop\n        /* \"#utility.yul\":3709:3815   */\n      swap2\n      swap1\n      pop\n      jump\t// out\n        /* \"#utility.yul\":3821:4532   */\n    tag_22:\n        /* \"#utility.yul\":3860:3863   */\n      0x00\n        /* \"#utility.yul\":3898:3902   */\n      0x44\n        /* \"#utility.yul\":3880:3896   */\n      returndatasize\n        /* \"#utility.yul\":3877:3903   */\n      lt\n        /* \"#utility.yul\":3874:3913   */\n      iszero\n      tag_98\n      jumpi\n        /* \"#utility.yul\":3906:3911   */\n      jump(tag_97)\n        /* \"#utility.yul\":3874:3913   */\n    tag_98:\n        /* \"#utility.yul\":3935:3955   */\n      tag_99\n      tag_66\n      jump\t// in\n    tag_99:\n        /* \"#utility.yul\":4010:4011   */\n      0x04\n        /* \"#utility.yul\":3992:4008   */\n      returndatasize\n        /* \"#utility.yul\":3988:4012   */\n      sub\n        /* \"#utility.yul\":3985:3986   */\n      0x04\n        /* \"#utility.yul\":3979:3983   */\n      dup3\n        /* \"#utility.yul\":3964:4013   */\n      returndatacopy\n        /* \"#utility.yul\":4043:4047   */\n      dup1\n        /* \"#utility.yul\":4037:4048   */\n      mload\n        /* \"#utility.yul\":4142:4158   */\n      returndatasize\n        /* \"#utility.yul\":4135:4139   */\n      0x24\n        /* \"#utility.yul\":4127:4133   */\n      dup3\n        /* \"#utility.yul\":4123:4140   */\n      add\n        /* \"#utility.yul\":4120:4159   */\n      gt\n        /* \"#utility.yul\":4087:4105   */\n      0xffffffffffffffff\n        /* \"#utility.yul\":4079:4085   */\n      dup3\n        /* \"#utility.yul\":4076:4106   */\n      gt\n        /* \"#utility.yul\":4060:4173   */\n      or\n        /* \"#utility.yul\":4057:4203   */\n      iszero\n      tag_100\n      jumpi\n        /* \"#utility.yul\":4188:4193   */\n      pop\n      pop\n      jump(tag_97)\n        /* \"#utility.yul\":4057:4203   */\n    tag_100:\n        /* \"#utility.yul\":4234:4240   */\n      dup1\n        /* \"#utility.yul\":4228:4232   */\n      dup3\n        /* \"#utility.yul\":4224:4241   */\n      add\n        /* \"#utility.yul\":4270:4273   */\n      dup1\n        /* \"#utility.yul\":4264:4274   */\n      mload\n        /* \"#utility.yul\":4297:4315   */\n      0xffffffffffffffff\n        /* \"#utility.yul\":4289:4295   */\n      dup2\n        /* \"#utility.yul\":4286:4316   */\n      gt\n        /* \"#utility.yul\":4283:4326   */\n      iszero\n      tag_101\n      jumpi\n        /* \"#utility.yul\":4319:4324   */\n      pop\n      pop\n      pop\n      pop\n      jump(tag_97)\n        /* \"#utility.yul\":4283:4326   */\n    tag_101:\n        /* \"#utility.yul\":4367:4373   */\n      dup1\n        /* \"#utility.yul\":4360:4364   */\n      0x20\n        /* \"#utility.yul\":4355:4358   */\n      dup4\n        /* \"#utility.yul\":4351:4365   */\n      add\n        /* \"#utility.yul\":4347:4374   */\n      add\n        /* \"#utility.yul\":4426:4427   */\n      0x04\n        /* \"#utility.yul\":4408:4424   */\n      returndatasize\n        /* \"#utility.yul\":4404:4428   */\n      sub\n        /* \"#utility.yul\":4398:4402   */\n      dup6\n        /* \"#utility.yul\":4394:4429   */\n      add\n        /* \"#utility.yul\":4389:4392   */\n      dup2\n        /* \"#utility.yul\":4386:4430   */\n      gt\n        /* \"#utility.yul\":4383:4440   */\n      iszero\n      tag_102\n      jumpi\n        /* \"#utility.yul\":4433:4438   */\n      pop\n      pop\n      pop\n      pop\n      pop\n      jump(tag_97)\n        /* \"#utility.yul\":4383:4440   */\n    tag_102:\n        /* \"#utility.yul\":4450:4507   */\n      tag_103\n        /* \"#utility.yul\":4498:4504   */\n      dup3\n        /* \"#utility.yul\":4492:4496   */\n      0x20\n        /* \"#utility.yul\":4488:4505   */\n      add\n        /* \"#utility.yul\":4480:4486   */\n      dup6\n        /* \"#utility.yul\":4476:4506   */\n      add\n        /* \"#utility.yul\":4470:4474   */\n      dup7\n        /* \"#utility.yul\":4450:4507   */\n      tag_74\n      jump\t// in\n    tag_103:\n        /* \"#utility.yul\":4523:4526   */\n      dup3\n        /* \"#utility.yul\":4516:4526   */\n      swap6\n      pop\n        /* \"#utility.yul\":3864:4532   */\n      pop\n      pop\n      pop\n      pop\n      pop\n        /* \"#utility.yul\":3821:4532   */\n    tag_97:\n      swap1\n      jump\t// out\n        /* \"#utility.yul\":4538:4738   */\n    tag_27:\n        /* \"#utility.yul\":4574:4581   */\n      0x00\n        /* \"#utility.yul\":4583:4587   */\n      dup1\n        /* \"#utility.yul\":4622:4626   */\n      0x23\n        /* \"#utility.yul\":4604:4620   */\n      returndatasize\n        /* \"#utility.yul\":4601:4627   */\n      gt\n        /* \"#utility.yul\":4598:4732   */\n      iszero\n      tag_105\n      jumpi\n        /* \"#utility.yul\":4663:4667   */\n      0x20\n        /* \"#utility.yul\":4660:4661   */\n      0x04\n        /* \"#utility.yul\":4657:4658   */\n      0x00\n        /* \"#utility.yul\":4642:4668   */\n      returndatacopy\n        /* \"#utility.yul\":4692:4693   */\n      0x01\n        /* \"#utility.yul\":4681:4693   */\n      swap2\n      pop\n        /* \"#utility.yul\":4720:4721   */\n      0x00\n        /* \"#utility.yul\":4714:4722   */\n      mload\n        /* \"#utility.yul\":4706:4722   */\n      swap1\n      pop\n        /* \"#utility.yul\":4598:4732   */\n    tag_105:\n        /* \"#utility.yul\":4538:4738   */\n      swap1\n      swap2\n      jump\t// out\n        /* \"#utility.yul\":4744:4866   */\n    tag_38:\n        /* \"#utility.yul\":4817:4841   */\n      tag_107\n        /* \"#utility.yul\":4835:4840   */\n      dup2\n        /* \"#utility.yul\":4817:4841   */\n      tag_59\n      jump\t// in\n    tag_107:\n        /* \"#utility.yul\":4810:4815   */\n      dup2\n        /* \"#utility.yul\":4807:4842   */\n      eq\n        /* \"#utility.yul\":4797:4860   */\n      tag_108\n      jumpi\n        /* \"#utility.yul\":4856:4857   */\n      0x00\n        /* \"#utility.yul\":4853:4854   */\n      dup1\n        /* \"#utility.yul\":4846:4858   */\n      revert\n        /* \"#utility.yul\":4797:4860   */\n    tag_108:\n        /* \"#utility.yul\":4744:4866   */\n      pop\n      jump\t// out\n\n    auxdata: 0xa2646970667358221220139c7efefc65ccf4a3e38e831610de2712d36954bb572e006d908c94f313bbbc64736f6c63430008070033\n}\n\nsub_1: assembly {\n        /* \"contract/chapter04/ty.sol\":60:292  contract DataFeed { \r... */\n      mstore(0x40, 0x80)\n      callvalue\n      dup1\n      iszero\n      tag_1\n      jumpi\n      0x00\n      dup1\n      revert\n    tag_1:\n      pop\n      dataSize(sub_0)\n      dup1\n      dataOffset(sub_0)\n      0x00\n      codecopy\n      0x00\n      return\n    stop\n\n    sub_0: assembly {\n            /* \"contract/chapter04/ty.sol\":60:292  contract DataFeed { \r... */\n          mstore(0x40, 0x80)\n          callvalue\n          dup1\n          iszero\n          tag_1\n          jumpi\n          0x00\n          dup1\n          revert\n        tag_1:\n          pop\n          jumpi(tag_2, lt(calldatasize, 0x04))\n          shr(0xe0, calldataload(0x00))\n          dup1\n          0x771602f7\n          eq\n          tag_3\n          jumpi\n        tag_2:\n          0x00\n          dup1\n          revert\n            /* \"contract/chapter04/ty.sol\":192:283  function add(uint a,uint b) external pure returns (uint value){\r... */\n        tag_3:\n          tag_4\n          0x04\n          dup1\n          calldatasize\n          sub\n          dup2\n          add\n          swap1\n          tag_5\n          swap2\n          swap1\n          tag_6\n          jump\t// in\n        tag_5:\n          tag_7\n          jump\t// in\n        tag_4:\n          mload(0x40)\n          tag_8\n          swap2\n          swap1\n          tag_9\n          jump\t// in\n        tag_8:\n          mload(0x40)\n          dup1\n          swap2\n          sub\n          swap1\n          return\n        tag_7:\n            /* \"contract/chapter04/ty.sol\":243:253  uint value */\n          0x00\n            /* \"contract/chapter04/ty.sol\":274:275  b */\n          dup2\n            /* \"contract/chapter04/ty.sol\":272:273  a */\n          dup4\n            /* \"contract/chapter04/ty.sol\":272:275  a+b */\n          tag_11\n          swap2\n          swap1\n          tag_12\n          jump\t// in\n        tag_11:\n            /* \"contract/chapter04/ty.sol\":265:275  return a+b */\n          swap1\n          pop\n            /* \"contract/chapter04/ty.sol\":192:283  function add(uint a,uint b) external pure returns (uint value){\r... */\n          swap3\n          swap2\n          pop\n          pop\n          jump\t// out\n            /* \"#utility.yul\":7:146   */\n        tag_14:\n            /* \"#utility.yul\":53:58   */\n          0x00\n            /* \"#utility.yul\":91:97   */\n          dup2\n            /* \"#utility.yul\":78:98   */\n          calldataload\n            /* \"#utility.yul\":69:98   */\n          swap1\n          pop\n            /* \"#utility.yul\":107:140   */\n          tag_16\n            /* \"#utility.yul\":134:139   */\n          dup2\n            /* \"#utility.yul\":107:140   */\n          tag_17\n          jump\t// in\n        tag_16:\n            /* \"#utility.yul\":7:146   */\n          swap3\n          swap2\n          pop\n          pop\n          jump\t// out\n            /* \"#utility.yul\":152:626   */\n        tag_6:\n            /* \"#utility.yul\":220:226   */\n          0x00\n            /* \"#utility.yul\":228:234   */\n          dup1\n            /* \"#utility.yul\":277:279   */\n          0x40\n            /* \"#utility.yul\":265:274   */\n          dup4\n            /* \"#utility.yul\":256:263   */\n          dup6\n            /* \"#utility.yul\":252:275   */\n          sub\n            /* \"#utility.yul\":248:280   */\n          slt\n            /* \"#utility.yul\":245:364   */\n          iszero\n          tag_19\n          jumpi\n            /* \"#utility.yul\":283:362   */\n          tag_20\n          tag_21\n          jump\t// in\n        tag_20:\n            /* \"#utility.yul\":245:364   */\n        tag_19:\n            /* \"#utility.yul\":403:404   */\n          0x00\n            /* \"#utility.yul\":428:481   */\n          tag_22\n            /* \"#utility.yul\":473:480   */\n          dup6\n            /* \"#utility.yul\":464:470   */\n          dup3\n            /* \"#utility.yul\":453:462   */\n          dup7\n            /* \"#utility.yul\":449:471   */\n          add\n            /* \"#utility.yul\":428:481   */\n          tag_14\n          jump\t// in\n        tag_22:\n            /* \"#utility.yul\":418:481   */\n          swap3\n          pop\n            /* \"#utility.yul\":374:491   */\n          pop\n            /* \"#utility.yul\":530:532   */\n          0x20\n            /* \"#utility.yul\":556:609   */\n          tag_23\n            /* \"#utility.yul\":601:608   */\n          dup6\n            /* \"#utility.yul\":592:598   */\n          dup3\n            /* \"#utility.yul\":581:590   */\n          dup7\n            /* \"#utility.yul\":577:599   */\n          add\n            /* \"#utility.yul\":556:609   */\n          tag_14\n          jump\t// in\n        tag_23:\n            /* \"#utility.yul\":546:609   */\n          swap2\n          pop\n            /* \"#utility.yul\":501:619   */\n          pop\n            /* \"#utility.yul\":152:626   */\n          swap3\n          pop\n          swap3\n          swap1\n          pop\n          jump\t// out\n            /* \"#utility.yul\":632:750   */\n        tag_24:\n            /* \"#utility.yul\":719:743   */\n          tag_26\n            /* \"#utility.yul\":737:742   */\n          dup2\n            /* \"#utility.yul\":719:743   */\n          tag_27\n          jump\t// in\n        tag_26:\n            /* \"#utility.yul\":714:717   */\n          dup3\n            /* \"#utility.yul\":707:744   */\n          mstore\n            /* \"#utility.yul\":632:750   */\n          pop\n          pop\n          jump\t// out\n            /* \"#utility.yul\":756:978   */\n        tag_9:\n            /* \"#utility.yul\":849:853   */\n          0x00\n            /* \"#utility.yul\":887:889   */\n          0x20\n            /* \"#utility.yul\":876:885   */\n          dup3\n            /* \"#utility.yul\":872:890   */\n          add\n            /* \"#utility.yul\":864:890   */\n          swap1\n          pop\n            /* \"#utility.yul\":900:971   */\n          tag_29\n            /* \"#utility.yul\":968:969   */\n          0x00\n            /* \"#utility.yul\":957:966   */\n          dup4\n            /* \"#utility.yul\":953:970   */\n          add\n            /* \"#utility.yul\":944:950   */\n          dup5\n            /* \"#utility.yul\":900:971   */\n          tag_24\n          jump\t// in\n        tag_29:\n            /* \"#utility.yul\":756:978   */\n          swap3\n          swap2\n          pop\n          pop\n          jump\t// out\n            /* \"#utility.yul\":1065:1370   */\n        tag_12:\n            /* \"#utility.yul\":1105:1108   */\n          0x00\n            /* \"#utility.yul\":1124:1144   */\n          tag_33\n            /* \"#utility.yul\":1142:1143   */\n          dup3\n            /* \"#utility.yul\":1124:1144   */\n          tag_27\n          jump\t// in\n        tag_33:\n            /* \"#utility.yul\":1119:1144   */\n          swap2\n          pop\n            /* \"#utility.yul\":1158:1178   */\n          tag_34\n            /* \"#utility.yul\":1176:1177   */\n          dup4\n            /* \"#utility.yul\":1158:1178   */\n          tag_27\n          jump\t// in\n        tag_34:\n            /* \"#utility.yul\":1153:1178   */\n          swap3\n          pop\n            /* \"#utility.yul\":1312:1313   */\n          dup3\n            /* \"#utility.yul\":1244:1310   */\n          0xffffffffffffffffffffffffffffffffffffffffffffffffffffffffffffffff\n            /* \"#utility.yul\":1240:1314   */\n          sub\n            /* \"#utility.yul\":1237:1238   */\n          dup3\n            /* \"#utility.yul\":1234:1315   */\n          gt\n            /* \"#utility.yul\":1231:1338   */\n          iszero\n          tag_35\n          jumpi\n            /* \"#utility.yul\":1318:1336   */\n          tag_36\n          tag_37\n          jump\t// in\n        tag_36:\n            /* \"#utility.yul\":1231:1338   */\n        tag_35:\n            /* \"#utility.yul\":1362:1363   */\n          dup3\n            /* \"#utility.yul\":1359:1360   */\n          dup3\n            /* \"#utility.yul\":1355:1364   */\n          add\n            /* \"#utility.yul\":1348:1364   */\n          swap1\n          pop\n            /* \"#utility.yul\":1065:1370   */\n          swap3\n          swap2\n          pop\n          pop\n          jump\t// out\n            /* \"#utility.yul\":1376:1453   */\n        tag_27:\n            /* \"#utility.yul\":1413:1420   */\n          0x00\n            /* \"#utility.yul\":1442:1447   */\n          dup2\n            /* \"#utility.yul\":1431:1447   */\n          swap1\n          pop\n            /* \"#utility.yul\":1376:1453   */\n          swap2\n          swap1\n          pop\n          jump\t// out\n            /* \"#utility.yul\":1459:1639   */\n        tag_37:\n            /* \"#utility.yul\":1507:1584   */\n          0x4e487b7100000000000000000000000000000000000000000000000000000000\n            /* \"#utility.yul\":1504:1505   */\n          0x00\n            /* \"#utility.yul\":1497:1585   */\n          mstore\n            /* \"#utility.yul\":1604:1608   */\n          0x11\n            /* \"#utility.yul\":1601:1602   */\n          0x04\n            /* \"#utility.yul\":1594:1609   */\n          mstore\n            /* \"#utility.yul\":1628:1632   */\n          0x24\n            /* \"#utility.yul\":1625:1626   */\n          0x00\n            /* \"#utility.yul\":1618:1633   */\n          revert\n            /* \"#utility.yul\":1768:1885   */\n        tag_21:\n            /* \"#utility.yul\":1877:1878   */\n          0x00\n            /* \"#utility.yul\":1874:1875   */\n          dup1\n            /* \"#utility.yul\":1867:1879   */\n          revert\n            /* \"#utility.yul\":1891:2013   */\n        tag_17:\n            /* \"#utility.yul\":1964:1988   */\n          tag_44\n            /* \"#utility.yul\":1982:1987   */\n          dup2\n            /* \"#utility.yul\":1964:1988   */\n          tag_27\n          jump\t// in\n        tag_44:\n            /* \"#utility.yul\":1957:1962   */\n          dup2\n            /* \"#utility.yul\":1954:1989   */\n          eq\n            /* \"#utility.yul\":1944:2007   */\n          tag_45\n          jumpi\n            /* \"#utility.yul\":2003:2004   */\n          0x00\n            /* \"#utility.yul\":2000:2001   */\n          dup1\n            /* \"#utility.yul\":1993:2005   */\n          revert\n            /* \"#utility.yul\":1944:2007   */\n        tag_45:\n            /* \"#utility.yul\":1891:2013   */\n          pop\n          jump\t// out\n\n        auxdata: 0xa26469706673582212208a7a339d476d2eaf1d5977d5d532d53ee0e61ee556cbe87ded514b46cc36e8b364736f6c63430008070033\n    }\n}\n",
				"bytecode": {
					"linkReferences": {},
					"object": "60806040526040516100109061007e565b604051809103906000f08015801561002c573d6000803e3d6000fd5b506000806101000a81548173ffffffffffffffffffffffffffffffffffffffff021916908373ffffffffffffffffffffffffffffffffffffffff16021790555034801561007857600080fd5b5061008b565b6101f6806105c383390190565b6105298061009a6000396000f3fe608060405234801561001057600080fd5b506004361061002b5760003560e01c8063ae40f72f14610030575b600080fd5b61003861004f565b60405161004692919061029b565b60405180910390f35b60008060008054906101000a900473ffffffffffffffffffffffffffffffffffffffff1673ffffffffffffffffffffffffffffffffffffffff1663771602f7600560006040518363ffffffff1660e01b81526004016100af929190610272565b60206040518083038186803b1580156100c757600080fd5b505afa9250505080156100f857506040513d601f19601f820116820180604052508101906100f59190610209565b60015b6101e7576101046103e0565b806308c379a0141561014a5750610119610425565b80610124575061018e565b6001600081548092919061013790610339565b91905055506064600092509250506101f0565b634e487b71141561018e5761015d6104bb565b90610168575061018e565b6001600081548092919061017b90610339565b919050555060c8600092509250506101f0565b3d80600081146101ba576040519150601f19603f3d011682016040523d82523d6000602084013e6101bf565b606091505b50600160008154809291906101d390610339565b919050555061012c600092509250506101f0565b80600192509250505b9091565b600081519050610203816104dc565b92915050565b60006020828403121561021f5761021e610402565b5b600061022d848285016101f4565b91505092915050565b61023f816102ce565b82525050565b61024e816102e4565b82525050565b61025d816102f6565b82525050565b61026c816102da565b82525050565b60006040820190506102876000830185610254565b6102946020830184610245565b9392505050565b60006040820190506102b06000830185610263565b6102bd6020830184610236565b9392505050565b6000604051905090565b60008115159050919050565b6000819050919050565b60006102ef826102da565b9050919050565b6000610301826102da565b9050919050565b61031182610407565b810181811067ffffffffffffffff821117156103305761032f6103b1565b5b80604052505050565b6000610344826102da565b91507fffffffffffffffffffffffffffffffffffffffffffffffffffffffffffffffff82141561037757610376610382565b5b600182019050919050565b7f4e487b7100000000000000000000000000000000000000000000000000000000600052601160045260246000fd5b7f4e487b7100000000000000000000000000000000000000000000000000000000600052604160045260246000fd5b600060033d11156103ff5760046000803e6103fc600051610418565b90505b90565b600080fd5b6000601f19601f8301169050919050565b60008160e01c9050919050565b600060443d1015610435576104b8565b61043d6102c4565b60043d036004823e80513d602482011167ffffffffffffffff821117156104655750506104b8565b808201805167ffffffffffffffff81111561048357505050506104b8565b80602083010160043d0385018111156104a05750505050506104b8565b6104af82602001850186610308565b82955050505050505b90565b60008060233d11156104d8576020600460003e6001915060005190505b9091565b6104e5816102da565b81146104f057600080fd5b5056fea2646970667358221220139c7efefc65ccf4a3e38e831610de2712d36954bb572e006d908c94f313bbbc64736f6c63430008070033608060405234801561001057600080fd5b506101d6806100206000396000f3fe608060405234801561001057600080fd5b506004361061002b5760003560e01c8063771602f714610030575b600080fd5b61004a6004803603810190610045919061008b565b610060565b60405161005791906100da565b60405180910390f35b6000818361006e91906100f5565b905092915050565b60008135905061008581610189565b92915050565b600080604083850312156100a2576100a1610184565b5b60006100b085828601610076565b92505060206100c185828601610076565b9150509250929050565b6100d48161014b565b82525050565b60006020820190506100ef60008301846100cb565b92915050565b60006101008261014b565b915061010b8361014b565b9250827fffffffffffffffffffffffffffffffffffffffffffffffffffffffffffffffff038211156101405761013f610155565b5b828201905092915050565b6000819050919050565b7f4e487b7100000000000000000000000000000000000000000000000000000000600052601160045260246000fd5b600080fd5b6101928161014b565b811461019d57600080fd5b5056fea26469706673582212208a7a339d476d2eaf1d5977d5d532d53ee0e61ee556cbe87ded514b46cc36e8b364736f6c63430008070033",
					"opcodes": "PUSH1 0x80 PUSH1 0x40 MSTORE PUSH1 0x40 MLOAD PUSH2 0x10 SWAP1 PUSH2 0x7E JUMP JUMPDEST PUSH1 0x40 MLOAD DUP1 SWAP2 SUB SWAP1 PUSH1 0x0 CREATE DUP1 ISZERO DUP1 ISZERO PUSH2 0x2C JUMPI RETURNDATASIZE PUSH1 0x0 DUP1 RETURNDATACOPY RETURNDATASIZE PUSH1 0x0 REVERT JUMPDEST POP PUSH1 0x0 DUP1 PUSH2 0x100 EXP DUP2 SLOAD DUP2 PUSH20 0xFFFFFFFFFFFFFFFFFFFFFFFFFFFFFFFFFFFFFFFF MUL NOT AND SWAP1 DUP4 PUSH20 0xFFFFFFFFFFFFFFFFFFFFFFFFFFFFFFFFFFFFFFFF AND MUL OR SWAP1 SSTORE POP CALLVALUE DUP1 ISZERO PUSH2 0x78 JUMPI PUSH1 0x0 DUP1 REVERT JUMPDEST POP PUSH2 0x8B JUMP JUMPDEST PUSH2 0x1F6 DUP1 PUSH2 0x5C3 DUP4 CODECOPY ADD SWAP1 JUMP JUMPDEST PUSH2 0x529 DUP1 PUSH2 0x9A PUSH1 0x0 CODECOPY PUSH1 0x0 RETURN INVALID PUSH1 0x80 PUSH1 0x40 MSTORE CALLVALUE DUP1 ISZERO PUSH2 0x10 JUMPI PUSH1 0x0 DUP1 REVERT JUMPDEST POP PUSH1 0x4 CALLDATASIZE LT PUSH2 0x2B JUMPI PUSH1 0x0 CALLDATALOAD PUSH1 0xE0 SHR DUP1 PUSH4 0xAE40F72F EQ PUSH2 0x30 JUMPI JUMPDEST PUSH1 0x0 DUP1 REVERT JUMPDEST PUSH2 0x38 PUSH2 0x4F JUMP JUMPDEST PUSH1 0x40 MLOAD PUSH2 0x46 SWAP3 SWAP2 SWAP1 PUSH2 0x29B JUMP JUMPDEST PUSH1 0x40 MLOAD DUP1 SWAP2 SUB SWAP1 RETURN JUMPDEST PUSH1 0x0 DUP1 PUSH1 0x0 DUP1 SLOAD SWAP1 PUSH2 0x100 EXP SWAP1 DIV PUSH20 0xFFFFFFFFFFFFFFFFFFFFFFFFFFFFFFFFFFFFFFFF AND PUSH20 0xFFFFFFFFFFFFFFFFFFFFFFFFFFFFFFFFFFFFFFFF AND PUSH4 0x771602F7 PUSH1 0x5 PUSH1 0x0 PUSH1 0x40 MLOAD DUP4 PUSH4 0xFFFFFFFF AND PUSH1 0xE0 SHL DUP2 MSTORE PUSH1 0x4 ADD PUSH2 0xAF SWAP3 SWAP2 SWAP1 PUSH2 0x272 JUMP JUMPDEST PUSH1 0x20 PUSH1 0x40 MLOAD DUP1 DUP4 SUB DUP2 DUP7 DUP1 EXTCODESIZE ISZERO DUP1 ISZERO PUSH2 0xC7 JUMPI PUSH1 0x0 DUP1 REVERT JUMPDEST POP GAS STATICCALL SWAP3 POP POP POP DUP1 ISZERO PUSH2 0xF8 JUMPI POP PUSH1 0x40 MLOAD RETURNDATASIZE PUSH1 0x1F NOT PUSH1 0x1F DUP3 ADD AND DUP3 ADD DUP1 PUSH1 0x40 MSTORE POP DUP2 ADD SWAP1 PUSH2 0xF5 SWAP2 SWAP1 PUSH2 0x209 JUMP JUMPDEST PUSH1 0x1 JUMPDEST PUSH2 0x1E7 JUMPI PUSH2 0x104 PUSH2 0x3E0 JUMP JUMPDEST DUP1 PUSH4 0x8C379A0 EQ ISZERO PUSH2 0x14A JUMPI POP PUSH2 0x119 PUSH2 0x425 JUMP JUMPDEST DUP1 PUSH2 0x124 JUMPI POP PUSH2 0x18E JUMP JUMPDEST PUSH1 0x1 PUSH1 0x0 DUP2 SLOAD DUP1 SWAP3 SWAP2 SWAP1 PUSH2 0x137 SWAP1 PUSH2 0x339 JUMP JUMPDEST SWAP2 SWAP1 POP SSTORE POP PUSH1 0x64 PUSH1 0x0 SWAP3 POP SWAP3 POP POP PUSH2 0x1F0 JUMP JUMPDEST PUSH4 0x4E487B71 EQ ISZERO PUSH2 0x18E JUMPI PUSH2 0x15D PUSH2 0x4BB JUMP JUMPDEST SWAP1 PUSH2 0x168 JUMPI POP PUSH2 0x18E JUMP JUMPDEST PUSH1 0x1 PUSH1 0x0 DUP2 SLOAD DUP1 SWAP3 SWAP2 SWAP1 PUSH2 0x17B SWAP1 PUSH2 0x339 JUMP JUMPDEST SWAP2 SWAP1 POP SSTORE POP PUSH1 0xC8 PUSH1 0x0 SWAP3 POP SWAP3 POP POP PUSH2 0x1F0 JUMP JUMPDEST RETURNDATASIZE DUP1 PUSH1 0x0 DUP2 EQ PUSH2 0x1BA JUMPI PUSH1 0x40 MLOAD SWAP2 POP PUSH1 0x1F NOT PUSH1 0x3F RETURNDATASIZE ADD AND DUP3 ADD PUSH1 0x40 MSTORE RETURNDATASIZE DUP3 MSTORE RETURNDATASIZE PUSH1 0x0 PUSH1 0x20 DUP5 ADD RETURNDATACOPY PUSH2 0x1BF JUMP JUMPDEST PUSH1 0x60 SWAP2 POP JUMPDEST POP PUSH1 0x1 PUSH1 0x0 DUP2 SLOAD DUP1 SWAP3 SWAP2 SWAP1 PUSH2 0x1D3 SWAP1 PUSH2 0x339 JUMP JUMPDEST SWAP2 SWAP1 POP SSTORE POP PUSH2 0x12C PUSH1 0x0 SWAP3 POP SWAP3 POP POP PUSH2 0x1F0 JUMP JUMPDEST DUP1 PUSH1 0x1 SWAP3 POP SWAP3 POP POP JUMPDEST SWAP1 SWAP2 JUMP JUMPDEST PUSH1 0x0 DUP2 MLOAD SWAP1 POP PUSH2 0x203 DUP2 PUSH2 0x4DC JUMP JUMPDEST SWAP3 SWAP2 POP POP JUMP JUMPDEST PUSH1 0x0 PUSH1 0x20 DUP3 DUP5 SUB SLT ISZERO PUSH2 0x21F JUMPI PUSH2 0x21E PUSH2 0x402 JUMP JUMPDEST JUMPDEST PUSH1 0x0 PUSH2 0x22D DUP5 DUP3 DUP6 ADD PUSH2 0x1F4 JUMP JUMPDEST SWAP2 POP POP SWAP3 SWAP2 POP POP JUMP JUMPDEST PUSH2 0x23F DUP2 PUSH2 0x2CE JUMP JUMPDEST DUP3 MSTORE POP POP JUMP JUMPDEST PUSH2 0x24E DUP2 PUSH2 0x2E4 JUMP JUMPDEST DUP3 MSTORE POP POP JUMP JUMPDEST PUSH2 0x25D DUP2 PUSH2 0x2F6 JUMP JUMPDEST DUP3 MSTORE POP POP JUMP JUMPDEST PUSH2 0x26C DUP2 PUSH2 0x2DA JUMP JUMPDEST DUP3 MSTORE POP POP JUMP JUMPDEST PUSH1 0x0 PUSH1 0x40 DUP3 ADD SWAP1 POP PUSH2 0x287 PUSH1 0x0 DUP4 ADD DUP6 PUSH2 0x254 JUMP JUMPDEST PUSH2 0x294 PUSH1 0x20 DUP4 ADD DUP5 PUSH2 0x245 JUMP JUMPDEST SWAP4 SWAP3 POP POP POP JUMP JUMPDEST PUSH1 0x0 PUSH1 0x40 DUP3 ADD SWAP1 POP PUSH2 0x2B0 PUSH1 0x0 DUP4 ADD DUP6 PUSH2 0x263 JUMP JUMPDEST PUSH2 0x2BD PUSH1 0x20 DUP4 ADD DUP5 PUSH2 0x236 JUMP JUMPDEST SWAP4 SWAP3 POP POP POP JUMP JUMPDEST PUSH1 0x0 PUSH1 0x40 MLOAD SWAP1 POP SWAP1 JUMP JUMPDEST PUSH1 0x0 DUP2 ISZERO ISZERO SWAP1 POP SWAP2 SWAP1 POP JUMP JUMPDEST PUSH1 0x0 DUP2 SWAP1 POP SWAP2 SWAP1 POP JUMP JUMPDEST PUSH1 0x0 PUSH2 0x2EF DUP3 PUSH2 0x2DA JUMP JUMPDEST SWAP1 POP SWAP2 SWAP1 POP JUMP JUMPDEST PUSH1 0x0 PUSH2 0x301 DUP3 PUSH2 0x2DA JUMP JUMPDEST SWAP1 POP SWAP2 SWAP1 POP JUMP JUMPDEST PUSH2 0x311 DUP3 PUSH2 0x407 JUMP JUMPDEST DUP2 ADD DUP2 DUP2 LT PUSH8 0xFFFFFFFFFFFFFFFF DUP3 GT OR ISZERO PUSH2 0x330 JUMPI PUSH2 0x32F PUSH2 0x3B1 JUMP JUMPDEST JUMPDEST DUP1 PUSH1 0x40 MSTORE POP POP POP JUMP JUMPDEST PUSH1 0x0 PUSH2 0x344 DUP3 PUSH2 0x2DA JUMP JUMPDEST SWAP2 POP PUSH32 0xFFFFFFFFFFFFFFFFFFFFFFFFFFFFFFFFFFFFFFFFFFFFFFFFFFFFFFFFFFFFFFFF DUP3 EQ ISZERO PUSH2 0x377 JUMPI PUSH2 0x376 PUSH2 0x382 JUMP JUMPDEST JUMPDEST PUSH1 0x1 DUP3 ADD SWAP1 POP SWAP2 SWAP1 POP JUMP JUMPDEST PUSH32 0x4E487B7100000000000000000000000000000000000000000000000000000000 PUSH1 0x0 MSTORE PUSH1 0x11 PUSH1 0x4 MSTORE PUSH1 0x24 PUSH1 0x0 REVERT JUMPDEST PUSH32 0x4E487B7100000000000000000000000000000000000000000000000000000000 PUSH1 0x0 MSTORE PUSH1 0x41 PUSH1 0x4 MSTORE PUSH1 0x24 PUSH1 0x0 REVERT JUMPDEST PUSH1 0x0 PUSH1 0x3 RETURNDATASIZE GT ISZERO PUSH2 0x3FF JUMPI PUSH1 0x4 PUSH1 0x0 DUP1 RETURNDATACOPY PUSH2 0x3FC PUSH1 0x0 MLOAD PUSH2 0x418 JUMP JUMPDEST SWAP1 POP JUMPDEST SWAP1 JUMP JUMPDEST PUSH1 0x0 DUP1 REVERT JUMPDEST PUSH1 0x0 PUSH1 0x1F NOT PUSH1 0x1F DUP4 ADD AND SWAP1 POP SWAP2 SWAP1 POP JUMP JUMPDEST PUSH1 0x0 DUP2 PUSH1 0xE0 SHR SWAP1 POP SWAP2 SWAP1 POP JUMP JUMPDEST PUSH1 0x0 PUSH1 0x44 RETURNDATASIZE LT ISZERO PUSH2 0x435 JUMPI PUSH2 0x4B8 JUMP JUMPDEST PUSH2 0x43D PUSH2 0x2C4 JUMP JUMPDEST PUSH1 0x4 RETURNDATASIZE SUB PUSH1 0x4 DUP3 RETURNDATACOPY DUP1 MLOAD RETURNDATASIZE PUSH1 0x24 DUP3 ADD GT PUSH8 0xFFFFFFFFFFFFFFFF DUP3 GT OR ISZERO PUSH2 0x465 JUMPI POP POP PUSH2 0x4B8 JUMP JUMPDEST DUP1 DUP3 ADD DUP1 MLOAD PUSH8 0xFFFFFFFFFFFFFFFF DUP2 GT ISZERO PUSH2 0x483 JUMPI POP POP POP POP PUSH2 0x4B8 JUMP JUMPDEST DUP1 PUSH1 0x20 DUP4 ADD ADD PUSH1 0x4 RETURNDATASIZE SUB DUP6 ADD DUP2 GT ISZERO PUSH2 0x4A0 JUMPI POP POP POP POP POP PUSH2 0x4B8 JUMP JUMPDEST PUSH2 0x4AF DUP3 PUSH1 0x20 ADD DUP6 ADD DUP7 PUSH2 0x308 JUMP JUMPDEST DUP3 SWAP6 POP POP POP POP POP POP JUMPDEST SWAP1 JUMP JUMPDEST PUSH1 0x0 DUP1 PUSH1 0x23 RETURNDATASIZE GT ISZERO PUSH2 0x4D8 JUMPI PUSH1 0x20 PUSH1 0x4 PUSH1 0x0 RETURNDATACOPY PUSH1 0x1 SWAP2 POP PUSH1 0x0 MLOAD SWAP1 POP JUMPDEST SWAP1 SWAP2 JUMP JUMPDEST PUSH2 0x4E5 DUP2 PUSH2 0x2DA JUMP JUMPDEST DUP2 EQ PUSH2 0x4F0 JUMPI PUSH1 0x0 DUP1 REVERT JUMPDEST POP JUMP INVALID LOG2 PUSH5 0x6970667358 0x22 SLT KECCAK256 SGT SWAP13 PUSH31 0xFEFC65CCF4A3E38E831610DE2712D36954BB572E006D908C94F313BBBC6473 PUSH16 0x6C634300080700336080604052348015 PUSH2 0x10 JUMPI PUSH1 0x0 DUP1 REVERT JUMPDEST POP PUSH2 0x1D6 DUP1 PUSH2 0x20 PUSH1 0x0 CODECOPY PUSH1 0x0 RETURN INVALID PUSH1 0x80 PUSH1 0x40 MSTORE CALLVALUE DUP1 ISZERO PUSH2 0x10 JUMPI PUSH1 0x0 DUP1 REVERT JUMPDEST POP PUSH1 0x4 CALLDATASIZE LT PUSH2 0x2B JUMPI PUSH1 0x0 CALLDATALOAD PUSH1 0xE0 SHR DUP1 PUSH4 0x771602F7 EQ PUSH2 0x30 JUMPI JUMPDEST PUSH1 0x0 DUP1 REVERT JUMPDEST PUSH2 0x4A PUSH1 0x4 DUP1 CALLDATASIZE SUB DUP2 ADD SWAP1 PUSH2 0x45 SWAP2 SWAP1 PUSH2 0x8B JUMP JUMPDEST PUSH2 0x60 JUMP JUMPDEST PUSH1 0x40 MLOAD PUSH2 0x57 SWAP2 SWAP1 PUSH2 0xDA JUMP JUMPDEST PUSH1 0x40 MLOAD DUP1 SWAP2 SUB SWAP1 RETURN JUMPDEST PUSH1 0x0 DUP2 DUP4 PUSH2 0x6E SWAP2 SWAP1 PUSH2 0xF5 JUMP JUMPDEST SWAP1 POP SWAP3 SWAP2 POP POP JUMP JUMPDEST PUSH1 0x0 DUP2 CALLDATALOAD SWAP1 POP PUSH2 0x85 DUP2 PUSH2 0x189 JUMP JUMPDEST SWAP3 SWAP2 POP POP JUMP JUMPDEST PUSH1 0x0 DUP1 PUSH1 0x40 DUP4 DUP6 SUB SLT ISZERO PUSH2 0xA2 JUMPI PUSH2 0xA1 PUSH2 0x184 JUMP JUMPDEST JUMPDEST PUSH1 0x0 PUSH2 0xB0 DUP6 DUP3 DUP7 ADD PUSH2 0x76 JUMP JUMPDEST SWAP3 POP POP PUSH1 0x20 PUSH2 0xC1 DUP6 DUP3 DUP7 ADD PUSH2 0x76 JUMP JUMPDEST SWAP2 POP POP SWAP3 POP SWAP3 SWAP1 POP JUMP JUMPDEST PUSH2 0xD4 DUP2 PUSH2 0x14B JUMP JUMPDEST DUP3 MSTORE POP POP JUMP JUMPDEST PUSH1 0x0 PUSH1 0x20 DUP3 ADD SWAP1 POP PUSH2 0xEF PUSH1 0x0 DUP4 ADD DUP5 PUSH2 0xCB JUMP JUMPDEST SWAP3 SWAP2 POP POP JUMP JUMPDEST PUSH1 0x0 PUSH2 0x100 DUP3 PUSH2 0x14B JUMP JUMPDEST SWAP2 POP PUSH2 0x10B DUP4 PUSH2 0x14B JUMP JUMPDEST SWAP3 POP DUP3 PUSH32 0xFFFFFFFFFFFFFFFFFFFFFFFFFFFFFFFFFFFFFFFFFFFFFFFFFFFFFFFFFFFFFFFF SUB DUP3 GT ISZERO PUSH2 0x140 JUMPI PUSH2 0x13F PUSH2 0x155 JUMP JUMPDEST JUMPDEST DUP3 DUP3 ADD SWAP1 POP SWAP3 SWAP2 POP POP JUMP JUMPDEST PUSH1 0x0 DUP2 SWAP1 POP SWAP2 SWAP1 POP JUMP JUMPDEST PUSH32 0x4E487B7100000000000000000000000000000000000000000000000000000000 PUSH1 0x0 MSTORE PUSH1 0x11 PUSH1 0x4 MSTORE PUSH1 0x24 PUSH1 0x0 REVERT JUMPDEST PUSH1 0x0 DUP1 REVERT JUMPDEST PUSH2 0x192 DUP2 PUSH2 0x14B JUMP JUMPDEST DUP2 EQ PUSH2 0x19D JUMPI PUSH1 0x0 DUP1 REVERT JUMPDEST POP JUMP INVALID LOG2 PUSH5 0x6970667358 0x22 SLT KECCAK256 DUP11 PUSH27 0x339D476D2EAF1D5977D5D532D53EE0E61EE556CBE87DED514B46CC CALLDATASIZE 0xE8 0xB3 PUSH5 0x736F6C6343 STOP ADDMOD SMOD STOP CALLER "
				},
				"gasEstimates": {
					"creation": {
						"codeDepositCost": "264200",
						"executionCost": "infinite",
						"totalCost": "infinite"
					},
					"external": {
						"testAdd()": "infinite"
					}
				},
				"methodIdentifiers": {
					"testAdd()": "ae40f72f"
				}
			},
			"storageLayout": {
				"storage": [
					{
						"astId": 23,
						"contract": "contract/chapter04/ty.sol:FeedConsumer",
						"label": "feed",
						"offset": 0,
						"slot": "0",
						"type": "t_contract(DataFeed)16"
					},
					{
						"astId": 25,
						"contract": "contract/chapter04/ty.sol:FeedConsumer",
						"label": "errorCount",
						"offset": 0,
						"slot": "1",
						"type": "t_uint256"
					}
				],
				"types": {
					"t_contract(DataFeed)16": {
						"encoding": "inplace",
						"label": "contract DataFeed",
						"numberOfBytes": "20"
					},
					"t_uint256": {
						"encoding": "inplace",
						"label": "uint256",
						"numberOfBytes": "32"
					}
				}
			},
			"userdoc": {
				"kind": "user",
				"methods": {},
				"version": 1
			}
		}
	}
}