{
	"contract/chapter04/ty.sol": {
		"FeedConsumer": {
			"abi": [
				{
					"inputs": [],
					"name": "errorCount",
					"outputs": [
						{
							"internalType": "uint256",
							"name": "",
							"type": "uint256"
						}
					],
					"stateMutability": "view",
					"type": "function"
				},
				{
					"inputs": [],
					"name": "testAdd",
					"outputs": [
						{
							"internalType": "uint256",
							"name": "_value",
							"type": "uint256"
						},
						{
							"internalType": "bool",
							"name": "_success",
							"type": "bool"
						}
					],
					"stateMutability": "nonpayable",
					"type": "function"
				}
			],
			"devdoc": {
				"kind": "dev",
				"methods": {},
				"version": 1
			},
			"evm": {
				"assembly": "    /* \"contract/chapter04/ty.sol\":341:1250  contract FeedConsumer {\r... */\n  mstore(0x40, 0x80)\n    /* \"contract/chapter04/ty.sol\":386:400  new DataFeed() */\n  mload(0x40)\n  tag_1\n  swap1\n  tag_2\n  jump\t// in\ntag_1:\n  mload(0x40)\n  dup1\n  swap2\n  sub\n  swap1\n  0x00\n  create\n  dup1\n  iszero\n  dup1\n  iszero\n  tag_3\n  jumpi\n  returndatasize\n  0x00\n  dup1\n  returndatacopy\n  revert(0x00, returndatasize)\ntag_3:\n  pop\n    /* \"contract/chapter04/ty.sol\":370:400  DataFeed feed = new DataFeed() */\n  0x00\n  dup1\n  0x0100\n  exp\n  dup2\n  sload\n  dup2\n  0xffffffffffffffffffffffffffffffffffffffff\n  mul\n  not\n  and\n  swap1\n  dup4\n  0xffffffffffffffffffffffffffffffffffffffff\n  and\n  mul\n  or\n  swap1\n  sstore\n  pop\n    /* \"contract/chapter04/ty.sol\":341:1250  contract FeedConsumer {\r... */\n  callvalue\n  dup1\n  iszero\n  tag_4\n  jumpi\n  0x00\n  dup1\n  revert\ntag_4:\n  pop\n  jump(tag_5)\ntag_2:\n  dataSize(sub_1)\n  dup1\n  dataOffset(sub_1)\n  dup4\n  codecopy\n  add\n  swap1\n  jump\t// out\ntag_5:\n  dataSize(sub_0)\n  dup1\n  dataOffset(sub_0)\n  0x00\n  codecopy\n  0x00\n  return\nstop\n\nsub_0: assembly {\n        /* \"contract/chapter04/ty.sol\":341:1250  contract FeedConsumer {\r... */\n      mstore(0x40, 0x80)\n      callvalue\n      dup1\n      iszero\n      tag_1\n      jumpi\n      0x00\n      dup1\n      revert\n    tag_1:\n      pop\n      jumpi(tag_2, lt(calldatasize, 0x04))\n      shr(0xe0, calldataload(0x00))\n      dup1\n      0xae40f72f\n      eq\n      tag_3\n      jumpi\n      dup1\n      0xd38dbee6\n      eq\n      tag_4\n      jumpi\n    tag_2:\n      0x00\n      dup1\n      revert\n        /* \"contract/chapter04/ty.sol\":479:1242  function testAdd() public returns (uint _value, bool _success) {\r... */\n    tag_3:\n      tag_5\n      tag_6\n      jump\t// in\n    tag_5:\n      mload(0x40)\n      tag_7\n      swap3\n      swap2\n      swap1\n      tag_8\n      jump\t// in\n    tag_7:\n      mload(0x40)\n      dup1\n      swap2\n      sub\n      swap1\n      return\n        /* \"contract/chapter04/ty.sol\":430:452  uint public errorCount */\n    tag_4:\n      tag_9\n      tag_10\n      jump\t// in\n    tag_9:\n      mload(0x40)\n      tag_11\n      swap2\n      swap1\n      tag_12\n      jump\t// in\n    tag_11:\n      mload(0x40)\n      dup1\n      swap2\n      sub\n      swap1\n      return\n        /* \"contract/chapter04/ty.sol\":479:1242  function testAdd() public returns (uint _value, bool _success) {\r... */\n    tag_6:\n        /* \"contract/chapter04/ty.sol\":514:525  uint _value */\n      0x00\n        /* \"contract/chapter04/ty.sol\":527:540  bool _success */\n      dup1\n        /* \"contract/chapter04/ty.sol\":557:561  feed */\n      0x00\n      dup1\n      sload\n      swap1\n      0x0100\n      exp\n      swap1\n      div\n      0xffffffffffffffffffffffffffffffffffffffff\n      and\n        /* \"contract/chapter04/ty.sol\":557:565  feed.add */\n      0xffffffffffffffffffffffffffffffffffffffff\n      and\n      0x771602f7\n        /* \"contract/chapter04/ty.sol\":566:567  5 */\n      0x05\n        /* \"contract/chapter04/ty.sol\":568:569  0 */\n      0x00\n        /* \"contract/chapter04/ty.sol\":557:570  feed.add(5,0) */\n      mload(0x40)\n      dup4\n      0xffffffff\n      and\n      0xe0\n      shl\n      dup2\n      mstore\n      0x04\n      add\n      tag_14\n      swap3\n      swap2\n      swap1\n      tag_15\n      jump\t// in\n    tag_14:\n      0x20\n      mload(0x40)\n      dup1\n      dup4\n      sub\n      dup2\n      dup7\n      dup1\n      extcodesize\n      iszero\n      dup1\n      iszero\n      tag_16\n      jumpi\n      0x00\n      dup1\n      revert\n    tag_16:\n      pop\n      gas\n      staticcall\n      swap3\n      pop\n      pop\n      pop\n      dup1\n      iszero\n      tag_17\n      jumpi\n      pop\n      mload(0x40)\n      returndatasize\n      not(0x1f)\n      0x1f\n      dup3\n      add\n      and\n      dup3\n      add\n      dup1\n      0x40\n      mstore\n      pop\n      dup2\n      add\n      swap1\n      tag_18\n      swap2\n      swap1\n      tag_19\n      jump\t// in\n    tag_18:\n      0x01\n    tag_17:\n        /* \"contract/chapter04/ty.sol\":553:1235  try feed.add(5,0) returns (uint v) {//尝试调用 外部的 getData 函数，执行成功就获得返回值，然后继续执行花括号内的内容\r... */\n      tag_20\n      jumpi\n      tag_24\n      tag_25\n      jump\t// in\n    tag_24:\n      dup1\n      0x08c379a0\n      eq\n      iszero\n      tag_23\n      jumpi\n      pop\n      tag_26\n      tag_27\n      jump\t// in\n    tag_26:\n      dup1\n      tag_28\n      jumpi\n      pop\n      jump(tag_22)\n    tag_28:\n        /* \"contract/chapter04/ty.sol\":865:866  2 */\n      0x02\n        /* \"contract/chapter04/ty.sol\":852:862  errorCount */\n      0x01\n        /* \"contract/chapter04/ty.sol\":852:866  errorCount = 2 */\n      dup2\n      swap1\n      sstore\n      pop\n        /* \"contract/chapter04/ty.sol\":889:892  100 */\n      0x64\n        /* \"contract/chapter04/ty.sol\":894:899  false */\n      0x00\n        /* \"contract/chapter04/ty.sol\":881:900  return (100, false) */\n      swap3\n      pop\n      swap3\n      pop\n      pop\n      jump(tag_13)\n        /* \"contract/chapter04/ty.sol\":553:1235  try feed.add(5,0) returns (uint v) {//尝试调用 外部的 getData 函数，执行成功就获得返回值，然后继续执行花括号内的内容\r... */\n    tag_23:\n      0x4e487b71\n      eq\n      iszero\n      tag_22\n      jumpi\n      tag_29\n      tag_30\n      jump\t// in\n    tag_29:\n      swap1\n      tag_31\n      jumpi\n      pop\n      jump(tag_22)\n    tag_31:\n        /* \"contract/chapter04/ty.sol\":990:991  1 */\n      0x01\n        /* \"contract/chapter04/ty.sol\":977:987  errorCount */\n      dup1\n        /* \"contract/chapter04/ty.sol\":977:991  errorCount = 1 */\n      dup2\n      swap1\n      sstore\n      pop\n        /* \"contract/chapter04/ty.sol\":1014:1017  200 */\n      0xc8\n        /* \"contract/chapter04/ty.sol\":1019:1024  false */\n      0x00\n        /* \"contract/chapter04/ty.sol\":1006:1025  return (200, false) */\n      swap3\n      pop\n      swap3\n      pop\n      pop\n      jump(tag_13)\n        /* \"contract/chapter04/ty.sol\":553:1235  try feed.add(5,0) returns (uint v) {//尝试调用 外部的 getData 函数，执行成功就获得返回值，然后继续执行花括号内的内容\r... */\n    tag_22:\n      returndatasize\n      dup1\n      0x00\n      dup2\n      eq\n      tag_33\n      jumpi\n      mload(0x40)\n      swap2\n      pop\n      and(add(returndatasize, 0x3f), not(0x1f))\n      dup3\n      add\n      0x40\n      mstore\n      returndatasize\n      dup3\n      mstore\n      returndatasize\n      0x00\n      0x20\n      dup5\n      add\n      returndatacopy\n      jump(tag_32)\n    tag_33:\n      0x60\n      swap2\n      pop\n    tag_32:\n      pop\n        /* \"contract/chapter04/ty.sol\":1188:1189  8 */\n      0x08\n        /* \"contract/chapter04/ty.sol\":1177:1187  errorCount */\n      0x01\n        /* \"contract/chapter04/ty.sol\":1177:1189  errorCount=8 */\n      dup2\n      swap1\n      sstore\n      pop\n        /* \"contract/chapter04/ty.sol\":1212:1215  300 */\n      0x012c\n        /* \"contract/chapter04/ty.sol\":1217:1222  false */\n      0x00\n        /* \"contract/chapter04/ty.sol\":1204:1223  return (300, false) */\n      swap3\n      pop\n      swap3\n      pop\n      pop\n      jump(tag_13)\n        /* \"contract/chapter04/ty.sol\":553:1235  try feed.add(5,0) returns (uint v) {//尝试调用 外部的 getData 函数，执行成功就获得返回值，然后继续执行花括号内的内容\r... */\n    tag_20:\n        /* \"contract/chapter04/ty.sol\":725:726  v */\n      dup1\n        /* \"contract/chapter04/ty.sol\":728:732  true */\n      0x01\n        /* \"contract/chapter04/ty.sol\":717:733  return (v, true) */\n      swap3\n      pop\n      swap3\n      pop\n      pop\n        /* \"contract/chapter04/ty.sol\":479:1242  function testAdd() public returns (uint _value, bool _success) {\r... */\n    tag_13:\n      swap1\n      swap2\n      jump\t// out\n        /* \"contract/chapter04/ty.sol\":430:452  uint public errorCount */\n    tag_10:\n      sload(0x01)\n      dup2\n      jump\t// out\n        /* \"#utility.yul\":7:150   */\n    tag_36:\n        /* \"#utility.yul\":64:69   */\n      0x00\n        /* \"#utility.yul\":95:101   */\n      dup2\n        /* \"#utility.yul\":89:102   */\n      mload\n        /* \"#utility.yul\":80:102   */\n      swap1\n      pop\n        /* \"#utility.yul\":111:144   */\n      tag_38\n        /* \"#utility.yul\":138:143   */\n      dup2\n        /* \"#utility.yul\":111:144   */\n      tag_39\n      jump\t// in\n    tag_38:\n        /* \"#utility.yul\":7:150   */\n      swap3\n      swap2\n      pop\n      pop\n      jump\t// out\n        /* \"#utility.yul\":156:507   */\n    tag_19:\n        /* \"#utility.yul\":226:232   */\n      0x00\n        /* \"#utility.yul\":275:277   */\n      0x20\n        /* \"#utility.yul\":263:272   */\n      dup3\n        /* \"#utility.yul\":254:261   */\n      dup5\n        /* \"#utility.yul\":250:273   */\n      sub\n        /* \"#utility.yul\":246:278   */\n      slt\n        /* \"#utility.yul\":243:362   */\n      iszero\n      tag_41\n      jumpi\n        /* \"#utility.yul\":281:360   */\n      tag_42\n      tag_43\n      jump\t// in\n    tag_42:\n        /* \"#utility.yul\":243:362   */\n    tag_41:\n        /* \"#utility.yul\":401:402   */\n      0x00\n        /* \"#utility.yul\":426:490   */\n      tag_44\n        /* \"#utility.yul\":482:489   */\n      dup5\n        /* \"#utility.yul\":473:479   */\n      dup3\n        /* \"#utility.yul\":462:471   */\n      dup6\n        /* \"#utility.yul\":458:480   */\n      add\n        /* \"#utility.yul\":426:490   */\n      tag_36\n      jump\t// in\n    tag_44:\n        /* \"#utility.yul\":416:490   */\n      swap2\n      pop\n        /* \"#utility.yul\":372:500   */\n      pop\n        /* \"#utility.yul\":156:507   */\n      swap3\n      swap2\n      pop\n      pop\n      jump\t// out\n        /* \"#utility.yul\":513:622   */\n    tag_45:\n        /* \"#utility.yul\":594:615   */\n      tag_47\n        /* \"#utility.yul\":609:614   */\n      dup2\n        /* \"#utility.yul\":594:615   */\n      tag_48\n      jump\t// in\n    tag_47:\n        /* \"#utility.yul\":589:592   */\n      dup3\n        /* \"#utility.yul\":582:616   */\n      mstore\n        /* \"#utility.yul\":513:622   */\n      pop\n      pop\n      jump\t// out\n        /* \"#utility.yul\":628:775   */\n    tag_49:\n        /* \"#utility.yul\":723:768   */\n      tag_51\n        /* \"#utility.yul\":762:767   */\n      dup2\n        /* \"#utility.yul\":723:768   */\n      tag_52\n      jump\t// in\n    tag_51:\n        /* \"#utility.yul\":718:721   */\n      dup3\n        /* \"#utility.yul\":711:769   */\n      mstore\n        /* \"#utility.yul\":628:775   */\n      pop\n      pop\n      jump\t// out\n        /* \"#utility.yul\":781:928   */\n    tag_53:\n        /* \"#utility.yul\":876:921   */\n      tag_55\n        /* \"#utility.yul\":915:920   */\n      dup2\n        /* \"#utility.yul\":876:921   */\n      tag_56\n      jump\t// in\n    tag_55:\n        /* \"#utility.yul\":871:874   */\n      dup3\n        /* \"#utility.yul\":864:922   */\n      mstore\n        /* \"#utility.yul\":781:928   */\n      pop\n      pop\n      jump\t// out\n        /* \"#utility.yul\":934:1052   */\n    tag_57:\n        /* \"#utility.yul\":1021:1045   */\n      tag_59\n        /* \"#utility.yul\":1039:1044   */\n      dup2\n        /* \"#utility.yul\":1021:1045   */\n      tag_60\n      jump\t// in\n    tag_59:\n        /* \"#utility.yul\":1016:1019   */\n      dup3\n        /* \"#utility.yul\":1009:1046   */\n      mstore\n        /* \"#utility.yul\":934:1052   */\n      pop\n      pop\n      jump\t// out\n        /* \"#utility.yul\":1058:1422   */\n    tag_15:\n        /* \"#utility.yul\":1195:1199   */\n      0x00\n        /* \"#utility.yul\":1233:1235   */\n      0x40\n        /* \"#utility.yul\":1222:1231   */\n      dup3\n        /* \"#utility.yul\":1218:1236   */\n      add\n        /* \"#utility.yul\":1210:1236   */\n      swap1\n      pop\n        /* \"#utility.yul\":1246:1325   */\n      tag_62\n        /* \"#utility.yul\":1322:1323   */\n      0x00\n        /* \"#utility.yul\":1311:1320   */\n      dup4\n        /* \"#utility.yul\":1307:1324   */\n      add\n        /* \"#utility.yul\":1298:1304   */\n      dup6\n        /* \"#utility.yul\":1246:1325   */\n      tag_53\n      jump\t// in\n    tag_62:\n        /* \"#utility.yul\":1335:1415   */\n      tag_63\n        /* \"#utility.yul\":1411:1413   */\n      0x20\n        /* \"#utility.yul\":1400:1409   */\n      dup4\n        /* \"#utility.yul\":1396:1414   */\n      add\n        /* \"#utility.yul\":1387:1393   */\n      dup5\n        /* \"#utility.yul\":1335:1415   */\n      tag_49\n      jump\t// in\n    tag_63:\n        /* \"#utility.yul\":1058:1422   */\n      swap4\n      swap3\n      pop\n      pop\n      pop\n      jump\t// out\n        /* \"#utility.yul\":1428:1650   */\n    tag_12:\n        /* \"#utility.yul\":1521:1525   */\n      0x00\n        /* \"#utility.yul\":1559:1561   */\n      0x20\n        /* \"#utility.yul\":1548:1557   */\n      dup3\n        /* \"#utility.yul\":1544:1562   */\n      add\n        /* \"#utility.yul\":1536:1562   */\n      swap1\n      pop\n        /* \"#utility.yul\":1572:1643   */\n      tag_65\n        /* \"#utility.yul\":1640:1641   */\n      0x00\n        /* \"#utility.yul\":1629:1638   */\n      dup4\n        /* \"#utility.yul\":1625:1642   */\n      add\n        /* \"#utility.yul\":1616:1622   */\n      dup5\n        /* \"#utility.yul\":1572:1643   */\n      tag_57\n      jump\t// in\n    tag_65:\n        /* \"#utility.yul\":1428:1650   */\n      swap3\n      swap2\n      pop\n      pop\n      jump\t// out\n        /* \"#utility.yul\":1656:1976   */\n    tag_8:\n        /* \"#utility.yul\":1771:1775   */\n      0x00\n        /* \"#utility.yul\":1809:1811   */\n      0x40\n        /* \"#utility.yul\":1798:1807   */\n      dup3\n        /* \"#utility.yul\":1794:1812   */\n      add\n        /* \"#utility.yul\":1786:1812   */\n      swap1\n      pop\n        /* \"#utility.yul\":1822:1893   */\n      tag_67\n        /* \"#utility.yul\":1890:1891   */\n      0x00\n        /* \"#utility.yul\":1879:1888   */\n      dup4\n        /* \"#utility.yul\":1875:1892   */\n      add\n        /* \"#utility.yul\":1866:1872   */\n      dup6\n        /* \"#utility.yul\":1822:1893   */\n      tag_57\n      jump\t// in\n    tag_67:\n        /* \"#utility.yul\":1903:1969   */\n      tag_68\n        /* \"#utility.yul\":1965:1967   */\n      0x20\n        /* \"#utility.yul\":1954:1963   */\n      dup4\n        /* \"#utility.yul\":1950:1968   */\n      add\n        /* \"#utility.yul\":1941:1947   */\n      dup5\n        /* \"#utility.yul\":1903:1969   */\n      tag_45\n      jump\t// in\n    tag_68:\n        /* \"#utility.yul\":1656:1976   */\n      swap4\n      swap3\n      pop\n      pop\n      pop\n      jump\t// out\n        /* \"#utility.yul\":1982:2057   */\n    tag_69:\n        /* \"#utility.yul\":2015:2021   */\n      0x00\n        /* \"#utility.yul\":2048:2050   */\n      0x40\n        /* \"#utility.yul\":2042:2051   */\n      mload\n        /* \"#utility.yul\":2032:2051   */\n      swap1\n      pop\n        /* \"#utility.yul\":1982:2057   */\n      swap1\n      jump\t// out\n        /* \"#utility.yul\":2063:2153   */\n    tag_48:\n        /* \"#utility.yul\":2097:2104   */\n      0x00\n        /* \"#utility.yul\":2140:2145   */\n      dup2\n        /* \"#utility.yul\":2133:2146   */\n      iszero\n        /* \"#utility.yul\":2126:2147   */\n      iszero\n        /* \"#utility.yul\":2115:2147   */\n      swap1\n      pop\n        /* \"#utility.yul\":2063:2153   */\n      swap2\n      swap1\n      pop\n      jump\t// out\n        /* \"#utility.yul\":2159:2236   */\n    tag_60:\n        /* \"#utility.yul\":2196:2203   */\n      0x00\n        /* \"#utility.yul\":2225:2230   */\n      dup2\n        /* \"#utility.yul\":2214:2230   */\n      swap1\n      pop\n        /* \"#utility.yul\":2159:2236   */\n      swap2\n      swap1\n      pop\n      jump\t// out\n        /* \"#utility.yul\":2242:2363   */\n    tag_52:\n        /* \"#utility.yul\":2300:2309   */\n      0x00\n        /* \"#utility.yul\":2333:2357   */\n      tag_74\n        /* \"#utility.yul\":2351:2356   */\n      dup3\n        /* \"#utility.yul\":2333:2357   */\n      tag_60\n      jump\t// in\n    tag_74:\n        /* \"#utility.yul\":2320:2357   */\n      swap1\n      pop\n        /* \"#utility.yul\":2242:2363   */\n      swap2\n      swap1\n      pop\n      jump\t// out\n        /* \"#utility.yul\":2369:2490   */\n    tag_56:\n        /* \"#utility.yul\":2427:2436   */\n      0x00\n        /* \"#utility.yul\":2460:2484   */\n      tag_76\n        /* \"#utility.yul\":2478:2483   */\n      dup3\n        /* \"#utility.yul\":2460:2484   */\n      tag_60\n      jump\t// in\n    tag_76:\n        /* \"#utility.yul\":2447:2484   */\n      swap1\n      pop\n        /* \"#utility.yul\":2369:2490   */\n      swap2\n      swap1\n      pop\n      jump\t// out\n        /* \"#utility.yul\":2496:2777   */\n    tag_77:\n        /* \"#utility.yul\":2579:2606   */\n      tag_79\n        /* \"#utility.yul\":2601:2605   */\n      dup3\n        /* \"#utility.yul\":2579:2606   */\n      tag_80\n      jump\t// in\n    tag_79:\n        /* \"#utility.yul\":2571:2577   */\n      dup2\n        /* \"#utility.yul\":2567:2607   */\n      add\n        /* \"#utility.yul\":2709:2715   */\n      dup2\n        /* \"#utility.yul\":2697:2707   */\n      dup2\n        /* \"#utility.yul\":2694:2716   */\n      lt\n        /* \"#utility.yul\":2673:2691   */\n      0xffffffffffffffff\n        /* \"#utility.yul\":2661:2671   */\n      dup3\n        /* \"#utility.yul\":2658:2692   */\n      gt\n        /* \"#utility.yul\":2655:2717   */\n      or\n        /* \"#utility.yul\":2652:2740   */\n      iszero\n      tag_81\n      jumpi\n        /* \"#utility.yul\":2720:2738   */\n      tag_82\n      tag_83\n      jump\t// in\n    tag_82:\n        /* \"#utility.yul\":2652:2740   */\n    tag_81:\n        /* \"#utility.yul\":2760:2770   */\n      dup1\n        /* \"#utility.yul\":2756:2758   */\n      0x40\n        /* \"#utility.yul\":2749:2771   */\n      mstore\n        /* \"#utility.yul\":2539:2777   */\n      pop\n        /* \"#utility.yul\":2496:2777   */\n      pop\n      pop\n      jump\t// out\n        /* \"#utility.yul\":2783:2963   */\n    tag_83:\n        /* \"#utility.yul\":2831:2908   */\n      0x4e487b7100000000000000000000000000000000000000000000000000000000\n        /* \"#utility.yul\":2828:2829   */\n      0x00\n        /* \"#utility.yul\":2821:2909   */\n      mstore\n        /* \"#utility.yul\":2928:2932   */\n      0x41\n        /* \"#utility.yul\":2925:2926   */\n      0x04\n        /* \"#utility.yul\":2918:2933   */\n      mstore\n        /* \"#utility.yul\":2952:2956   */\n      0x24\n        /* \"#utility.yul\":2949:2950   */\n      0x00\n        /* \"#utility.yul\":2942:2957   */\n      revert\n        /* \"#utility.yul\":2969:3152   */\n    tag_25:\n        /* \"#utility.yul\":3004:3007   */\n      0x00\n        /* \"#utility.yul\":3042:3043   */\n      0x03\n        /* \"#utility.yul\":3024:3040   */\n      returndatasize\n        /* \"#utility.yul\":3021:3044   */\n      gt\n        /* \"#utility.yul\":3018:3146   */\n      iszero\n      tag_86\n      jumpi\n        /* \"#utility.yul\":3080:3081   */\n      0x04\n        /* \"#utility.yul\":3077:3078   */\n      0x00\n        /* \"#utility.yul\":3074:3075   */\n      dup1\n        /* \"#utility.yul\":3059:3082   */\n      returndatacopy\n        /* \"#utility.yul\":3102:3136   */\n      tag_87\n        /* \"#utility.yul\":3133:3134   */\n      0x00\n        /* \"#utility.yul\":3127:3135   */\n      mload\n        /* \"#utility.yul\":3102:3136   */\n      tag_88\n      jump\t// in\n    tag_87:\n        /* \"#utility.yul\":3095:3136   */\n      swap1\n      pop\n        /* \"#utility.yul\":3018:3146   */\n    tag_86:\n        /* \"#utility.yul\":2969:3152   */\n      swap1\n      jump\t// out\n        /* \"#utility.yul\":3281:3398   */\n    tag_43:\n        /* \"#utility.yul\":3390:3391   */\n      0x00\n        /* \"#utility.yul\":3387:3388   */\n      dup1\n        /* \"#utility.yul\":3380:3392   */\n      revert\n        /* \"#utility.yul\":3404:3506   */\n    tag_80:\n        /* \"#utility.yul\":3445:3451   */\n      0x00\n        /* \"#utility.yul\":3496:3498   */\n      0x1f\n        /* \"#utility.yul\":3492:3499   */\n      not\n        /* \"#utility.yul\":3487:3489   */\n      0x1f\n        /* \"#utility.yul\":3480:3485   */\n      dup4\n        /* \"#utility.yul\":3476:3490   */\n      add\n        /* \"#utility.yul\":3472:3500   */\n      and\n        /* \"#utility.yul\":3462:3500   */\n      swap1\n      pop\n        /* \"#utility.yul\":3404:3506   */\n      swap2\n      swap1\n      pop\n      jump\t// out\n        /* \"#utility.yul\":3512:3618   */\n    tag_88:\n        /* \"#utility.yul\":3556:3564   */\n      0x00\n        /* \"#utility.yul\":3605:3610   */\n      dup2\n        /* \"#utility.yul\":3600:3603   */\n      0xe0\n        /* \"#utility.yul\":3596:3611   */\n      shr\n        /* \"#utility.yul\":3575:3611   */\n      swap1\n      pop\n        /* \"#utility.yul\":3512:3618   */\n      swap2\n      swap1\n      pop\n      jump\t// out\n        /* \"#utility.yul\":3624:4335   */\n    tag_27:\n        /* \"#utility.yul\":3663:3666   */\n      0x00\n        /* \"#utility.yul\":3701:3705   */\n      0x44\n        /* \"#utility.yul\":3683:3699   */\n      returndatasize\n        /* \"#utility.yul\":3680:3706   */\n      lt\n        /* \"#utility.yul\":3677:3716   */\n      iszero\n      tag_95\n      jumpi\n        /* \"#utility.yul\":3709:3714   */\n      jump(tag_94)\n        /* \"#utility.yul\":3677:3716   */\n    tag_95:\n        /* \"#utility.yul\":3738:3758   */\n      tag_96\n      tag_69\n      jump\t// in\n    tag_96:\n        /* \"#utility.yul\":3813:3814   */\n      0x04\n        /* \"#utility.yul\":3795:3811   */\n      returndatasize\n        /* \"#utility.yul\":3791:3815   */\n      sub\n        /* \"#utility.yul\":3788:3789   */\n      0x04\n        /* \"#utility.yul\":3782:3786   */\n      dup3\n        /* \"#utility.yul\":3767:3816   */\n      returndatacopy\n        /* \"#utility.yul\":3846:3850   */\n      dup1\n        /* \"#utility.yul\":3840:3851   */\n      mload\n        /* \"#utility.yul\":3945:3961   */\n      returndatasize\n        /* \"#utility.yul\":3938:3942   */\n      0x24\n        /* \"#utility.yul\":3930:3936   */\n      dup3\n        /* \"#utility.yul\":3926:3943   */\n      add\n        /* \"#utility.yul\":3923:3962   */\n      gt\n        /* \"#utility.yul\":3890:3908   */\n      0xffffffffffffffff\n        /* \"#utility.yul\":3882:3888   */\n      dup3\n        /* \"#utility.yul\":3879:3909   */\n      gt\n        /* \"#utility.yul\":3863:3976   */\n      or\n        /* \"#utility.yul\":3860:4006   */\n      iszero\n      tag_97\n      jumpi\n        /* \"#utility.yul\":3991:3996   */\n      pop\n      pop\n      jump(tag_94)\n        /* \"#utility.yul\":3860:4006   */\n    tag_97:\n        /* \"#utility.yul\":4037:4043   */\n      dup1\n        /* \"#utility.yul\":4031:4035   */\n      dup3\n        /* \"#utility.yul\":4027:4044   */\n      add\n        /* \"#utility.yul\":4073:4076   */\n      dup1\n        /* \"#utility.yul\":4067:4077   */\n      mload\n        /* \"#utility.yul\":4100:4118   */\n      0xffffffffffffffff\n        /* \"#utility.yul\":4092:4098   */\n      dup2\n        /* \"#utility.yul\":4089:4119   */\n      gt\n        /* \"#utility.yul\":4086:4129   */\n      iszero\n      tag_98\n      jumpi\n        /* \"#utility.yul\":4122:4127   */\n      pop\n      pop\n      pop\n      pop\n      jump(tag_94)\n        /* \"#utility.yul\":4086:4129   */\n    tag_98:\n        /* \"#utility.yul\":4170:4176   */\n      dup1\n        /* \"#utility.yul\":4163:4167   */\n      0x20\n        /* \"#utility.yul\":4158:4161   */\n      dup4\n        /* \"#utility.yul\":4154:4168   */\n      add\n        /* \"#utility.yul\":4150:4177   */\n      add\n        /* \"#utility.yul\":4229:4230   */\n      0x04\n        /* \"#utility.yul\":4211:4227   */\n      returndatasize\n        /* \"#utility.yul\":4207:4231   */\n      sub\n        /* \"#utility.yul\":4201:4205   */\n      dup6\n        /* \"#utility.yul\":4197:4232   */\n      add\n        /* \"#utility.yul\":4192:4195   */\n      dup2\n        /* \"#utility.yul\":4189:4233   */\n      gt\n        /* \"#utility.yul\":4186:4243   */\n      iszero\n      tag_99\n      jumpi\n        /* \"#utility.yul\":4236:4241   */\n      pop\n      pop\n      pop\n      pop\n      pop\n      jump(tag_94)\n        /* \"#utility.yul\":4186:4243   */\n    tag_99:\n        /* \"#utility.yul\":4253:4310   */\n      tag_100\n        /* \"#utility.yul\":4301:4307   */\n      dup3\n        /* \"#utility.yul\":4295:4299   */\n      0x20\n        /* \"#utility.yul\":4291:4308   */\n      add\n        /* \"#utility.yul\":4283:4289   */\n      dup6\n        /* \"#utility.yul\":4279:4309   */\n      add\n        /* \"#utility.yul\":4273:4277   */\n      dup7\n        /* \"#utility.yul\":4253:4310   */\n      tag_77\n      jump\t// in\n    tag_100:\n        /* \"#utility.yul\":4326:4329   */\n      dup3\n        /* \"#utility.yul\":4319:4329   */\n      swap6\n      pop\n        /* \"#utility.yul\":3667:4335   */\n      pop\n      pop\n      pop\n      pop\n      pop\n        /* \"#utility.yul\":3624:4335   */\n    tag_94:\n      swap1\n      jump\t// out\n        /* \"#utility.yul\":4341:4541   */\n    tag_30:\n        /* \"#utility.yul\":4377:4384   */\n      0x00\n        /* \"#utility.yul\":4386:4390   */\n      dup1\n        /* \"#utility.yul\":4425:4429   */\n      0x23\n        /* \"#utility.yul\":4407:4423   */\n      returndatasize\n        /* \"#utility.yul\":4404:4430   */\n      gt\n        /* \"#utility.yul\":4401:4535   */\n      iszero\n      tag_102\n      jumpi\n        /* \"#utility.yul\":4466:4470   */\n      0x20\n        /* \"#utility.yul\":4463:4464   */\n      0x04\n        /* \"#utility.yul\":4460:4461   */\n      0x00\n        /* \"#utility.yul\":4445:4471   */\n      returndatacopy\n        /* \"#utility.yul\":4495:4496   */\n      0x01\n        /* \"#utility.yul\":4484:4496   */\n      swap2\n      pop\n        /* \"#utility.yul\":4523:4524   */\n      0x00\n        /* \"#utility.yul\":4517:4525   */\n      mload\n        /* \"#utility.yul\":4509:4525   */\n      swap1\n      pop\n        /* \"#utility.yul\":4401:4535   */\n    tag_102:\n        /* \"#utility.yul\":4341:4541   */\n      swap1\n      swap2\n      jump\t// out\n        /* \"#utility.yul\":4547:4669   */\n    tag_39:\n        /* \"#utility.yul\":4620:4644   */\n      tag_104\n        /* \"#utility.yul\":4638:4643   */\n      dup2\n        /* \"#utility.yul\":4620:4644   */\n      tag_60\n      jump\t// in\n    tag_104:\n        /* \"#utility.yul\":4613:4618   */\n      dup2\n        /* \"#utility.yul\":4610:4645   */\n      eq\n        /* \"#utility.yul\":4600:4663   */\n      tag_105\n      jumpi\n        /* \"#utility.yul\":4659:4660   */\n      0x00\n        /* \"#utility.yul\":4656:4657   */\n      dup1\n        /* \"#utility.yul\":4649:4661   */\n      revert\n        /* \"#utility.yul\":4600:4663   */\n    tag_105:\n        /* \"#utility.yul\":4547:4669   */\n      pop\n      jump\t// out\n\n    auxdata: 0xa264697066735822122086a70f138956394b28f45e814187cd2af33181d089bfe76f00d58ac37db30a3164736f6c63430008070033\n}\n\nsub_1: assembly {\n        /* \"contract/chapter04/ty.sol\":60:339  contract DataFeed { \r... */\n      mstore(0x40, 0x80)\n      callvalue\n      dup1\n      iszero\n      tag_1\n      jumpi\n      0x00\n      dup1\n      revert\n    tag_1:\n      pop\n      dataSize(sub_0)\n      dup1\n      dataOffset(sub_0)\n      0x00\n      codecopy\n      0x00\n      return\n    stop\n\n    sub_0: assembly {\n            /* \"contract/chapter04/ty.sol\":60:339  contract DataFeed { \r... */\n          mstore(0x40, 0x80)\n          callvalue\n          dup1\n          iszero\n          tag_1\n          jumpi\n          0x00\n          dup1\n          revert\n        tag_1:\n          pop\n          jumpi(tag_2, lt(calldatasize, 0x04))\n          shr(0xe0, calldataload(0x00))\n          dup1\n          0x771602f7\n          eq\n          tag_3\n          jumpi\n        tag_2:\n          0x00\n          dup1\n          revert\n            /* \"contract/chapter04/ty.sol\":214:330  function add(uint a,uint b) external pure returns (uint value){\r... */\n        tag_3:\n          tag_4\n          0x04\n          dup1\n          calldatasize\n          sub\n          dup2\n          add\n          swap1\n          tag_5\n          swap2\n          swap1\n          tag_6\n          jump\t// in\n        tag_5:\n          tag_7\n          jump\t// in\n        tag_4:\n          mload(0x40)\n          tag_8\n          swap2\n          swap1\n          tag_9\n          jump\t// in\n        tag_8:\n          mload(0x40)\n          dup1\n          swap2\n          sub\n          swap1\n          return\n        tag_7:\n            /* \"contract/chapter04/ty.sol\":265:275  uint value */\n          0x00\n            /* \"contract/chapter04/ty.sol\":321:322  b */\n          dup2\n            /* \"contract/chapter04/ty.sol\":319:320  a */\n          dup4\n            /* \"contract/chapter04/ty.sol\":319:322  a/b */\n          tag_11\n          swap2\n          swap1\n          tag_12\n          jump\t// in\n        tag_11:\n            /* \"contract/chapter04/ty.sol\":312:322  return a/b */\n          swap1\n          pop\n            /* \"contract/chapter04/ty.sol\":214:330  function add(uint a,uint b) external pure returns (uint value){\r... */\n          swap3\n          swap2\n          pop\n          pop\n          jump\t// out\n            /* \"#utility.yul\":7:146   */\n        tag_14:\n            /* \"#utility.yul\":53:58   */\n          0x00\n            /* \"#utility.yul\":91:97   */\n          dup2\n            /* \"#utility.yul\":78:98   */\n          calldataload\n            /* \"#utility.yul\":69:98   */\n          swap1\n          pop\n            /* \"#utility.yul\":107:140   */\n          tag_16\n            /* \"#utility.yul\":134:139   */\n          dup2\n            /* \"#utility.yul\":107:140   */\n          tag_17\n          jump\t// in\n        tag_16:\n            /* \"#utility.yul\":7:146   */\n          swap3\n          swap2\n          pop\n          pop\n          jump\t// out\n            /* \"#utility.yul\":152:626   */\n        tag_6:\n            /* \"#utility.yul\":220:226   */\n          0x00\n            /* \"#utility.yul\":228:234   */\n          dup1\n            /* \"#utility.yul\":277:279   */\n          0x40\n            /* \"#utility.yul\":265:274   */\n          dup4\n            /* \"#utility.yul\":256:263   */\n          dup6\n            /* \"#utility.yul\":252:275   */\n          sub\n            /* \"#utility.yul\":248:280   */\n          slt\n            /* \"#utility.yul\":245:364   */\n          iszero\n          tag_19\n          jumpi\n            /* \"#utility.yul\":283:362   */\n          tag_20\n          tag_21\n          jump\t// in\n        tag_20:\n            /* \"#utility.yul\":245:364   */\n        tag_19:\n            /* \"#utility.yul\":403:404   */\n          0x00\n            /* \"#utility.yul\":428:481   */\n          tag_22\n            /* \"#utility.yul\":473:480   */\n          dup6\n            /* \"#utility.yul\":464:470   */\n          dup3\n            /* \"#utility.yul\":453:462   */\n          dup7\n            /* \"#utility.yul\":449:471   */\n          add\n            /* \"#utility.yul\":428:481   */\n          tag_14\n          jump\t// in\n        tag_22:\n            /* \"#utility.yul\":418:481   */\n          swap3\n          pop\n            /* \"#utility.yul\":374:491   */\n          pop\n            /* \"#utility.yul\":530:532   */\n          0x20\n            /* \"#utility.yul\":556:609   */\n          tag_23\n            /* \"#utility.yul\":601:608   */\n          dup6\n            /* \"#utility.yul\":592:598   */\n          dup3\n            /* \"#utility.yul\":581:590   */\n          dup7\n            /* \"#utility.yul\":577:599   */\n          add\n            /* \"#utility.yul\":556:609   */\n          tag_14\n          jump\t// in\n        tag_23:\n            /* \"#utility.yul\":546:609   */\n          swap2\n          pop\n            /* \"#utility.yul\":501:619   */\n          pop\n            /* \"#utility.yul\":152:626   */\n          swap3\n          pop\n          swap3\n          swap1\n          pop\n          jump\t// out\n            /* \"#utility.yul\":632:750   */\n        tag_24:\n            /* \"#utility.yul\":719:743   */\n          tag_26\n            /* \"#utility.yul\":737:742   */\n          dup2\n            /* \"#utility.yul\":719:743   */\n          tag_27\n          jump\t// in\n        tag_26:\n            /* \"#utility.yul\":714:717   */\n          dup3\n            /* \"#utility.yul\":707:744   */\n          mstore\n            /* \"#utility.yul\":632:750   */\n          pop\n          pop\n          jump\t// out\n            /* \"#utility.yul\":756:978   */\n        tag_9:\n            /* \"#utility.yul\":849:853   */\n          0x00\n            /* \"#utility.yul\":887:889   */\n          0x20\n            /* \"#utility.yul\":876:885   */\n          dup3\n            /* \"#utility.yul\":872:890   */\n          add\n            /* \"#utility.yul\":864:890   */\n          swap1\n          pop\n            /* \"#utility.yul\":900:971   */\n          tag_29\n            /* \"#utility.yul\":968:969   */\n          0x00\n            /* \"#utility.yul\":957:966   */\n          dup4\n            /* \"#utility.yul\":953:970   */\n          add\n            /* \"#utility.yul\":944:950   */\n          dup5\n            /* \"#utility.yul\":900:971   */\n          tag_24\n          jump\t// in\n        tag_29:\n            /* \"#utility.yul\":756:978   */\n          swap3\n          swap2\n          pop\n          pop\n          jump\t// out\n            /* \"#utility.yul\":1065:1250   */\n        tag_12:\n            /* \"#utility.yul\":1105:1106   */\n          0x00\n            /* \"#utility.yul\":1122:1142   */\n          tag_33\n            /* \"#utility.yul\":1140:1141   */\n          dup3\n            /* \"#utility.yul\":1122:1142   */\n          tag_27\n          jump\t// in\n        tag_33:\n            /* \"#utility.yul\":1117:1142   */\n          swap2\n          pop\n            /* \"#utility.yul\":1156:1176   */\n          tag_34\n            /* \"#utility.yul\":1174:1175   */\n          dup4\n            /* \"#utility.yul\":1156:1176   */\n          tag_27\n          jump\t// in\n        tag_34:\n            /* \"#utility.yul\":1151:1176   */\n          swap3\n          pop\n            /* \"#utility.yul\":1195:1196   */\n          dup3\n            /* \"#utility.yul\":1185:1220   */\n          tag_35\n          jumpi\n            /* \"#utility.yul\":1200:1218   */\n          tag_36\n          tag_37\n          jump\t// in\n        tag_36:\n            /* \"#utility.yul\":1185:1220   */\n        tag_35:\n            /* \"#utility.yul\":1242:1243   */\n          dup3\n            /* \"#utility.yul\":1239:1240   */\n          dup3\n            /* \"#utility.yul\":1235:1244   */\n          div\n            /* \"#utility.yul\":1230:1244   */\n          swap1\n          pop\n            /* \"#utility.yul\":1065:1250   */\n          swap3\n          swap2\n          pop\n          pop\n          jump\t// out\n            /* \"#utility.yul\":1256:1333   */\n        tag_27:\n            /* \"#utility.yul\":1293:1300   */\n          0x00\n            /* \"#utility.yul\":1322:1327   */\n          dup2\n            /* \"#utility.yul\":1311:1327   */\n          swap1\n          pop\n            /* \"#utility.yul\":1256:1333   */\n          swap2\n          swap1\n          pop\n          jump\t// out\n            /* \"#utility.yul\":1525:1705   */\n        tag_37:\n            /* \"#utility.yul\":1573:1650   */\n          0x4e487b7100000000000000000000000000000000000000000000000000000000\n            /* \"#utility.yul\":1570:1571   */\n          0x00\n            /* \"#utility.yul\":1563:1651   */\n          mstore\n            /* \"#utility.yul\":1670:1674   */\n          0x12\n            /* \"#utility.yul\":1667:1668   */\n          0x04\n            /* \"#utility.yul\":1660:1675   */\n          mstore\n            /* \"#utility.yul\":1694:1698   */\n          0x24\n            /* \"#utility.yul\":1691:1692   */\n          0x00\n            /* \"#utility.yul\":1684:1699   */\n          revert\n            /* \"#utility.yul\":1834:1951   */\n        tag_21:\n            /* \"#utility.yul\":1943:1944   */\n          0x00\n            /* \"#utility.yul\":1940:1941   */\n          dup1\n            /* \"#utility.yul\":1933:1945   */\n          revert\n            /* \"#utility.yul\":1957:2079   */\n        tag_17:\n            /* \"#utility.yul\":2030:2054   */\n          tag_46\n            /* \"#utility.yul\":2048:2053   */\n          dup2\n            /* \"#utility.yul\":2030:2054   */\n          tag_27\n          jump\t// in\n        tag_46:\n            /* \"#utility.yul\":2023:2028   */\n          dup2\n            /* \"#utility.yul\":2020:2055   */\n          eq\n            /* \"#utility.yul\":2010:2073   */\n          tag_47\n          jumpi\n            /* \"#utility.yul\":2069:2070   */\n          0x00\n            /* \"#utility.yul\":2066:2067   */\n          dup1\n            /* \"#utility.yul\":2059:2071   */\n          revert\n            /* \"#utility.yul\":2010:2073   */\n        tag_47:\n            /* \"#utility.yul\":1957:2079   */\n          pop\n          jump\t// out\n\n        auxdata: 0xa264697066735822122017b8339d81b82de805f8d655dd186ed66059ee08ec723688702cffe05c7d5cbd64736f6c63430008070033\n    }\n}\n",
				"bytecode": {
					"linkReferences": {},
					"object": "60806040526040516100109061007e565b604051809103906000f08015801561002c573d6000803e3d6000fd5b506000806101000a81548173ffffffffffffffffffffffffffffffffffffffff021916908373ffffffffffffffffffffffffffffffffffffffff16021790555034801561007857600080fd5b5061008b565b6101d18061056483390190565b6104ca8061009a6000396000f3fe608060405234801561001057600080fd5b50600436106100365760003560e01c8063ae40f72f1461003b578063d38dbee61461005a575b600080fd5b610043610078565b6040516100519291906102b4565b60405180910390f35b6100626101ec565b60405161006f9190610299565b60405180910390f35b60008060008054906101000a900473ffffffffffffffffffffffffffffffffffffffff1673ffffffffffffffffffffffffffffffffffffffff1663771602f7600560006040518363ffffffff1660e01b81526004016100d8929190610270565b60206040518083038186803b1580156100f057600080fd5b505afa92505050801561012157506040513d601f19601f8201168201806040525081019061011e9190610207565b60015b6101df5761012d610381565b806308c379a0141561016357506101426103c6565b8061014d5750610196565b60026001819055506064600092509250506101e8565b634e487b7114156101965761017661045c565b906101815750610196565b6001808190555060c8600092509250506101e8565b3d80600081146101c2576040519150601f19603f3d011682016040523d82523d6000602084013e6101c7565b606091505b50600860018190555061012c600092509250506101e8565b80600192509250505b9091565b60015481565b6000815190506102018161047d565b92915050565b60006020828403121561021d5761021c6103a3565b5b600061022b848285016101f2565b91505092915050565b61023d816102e7565b82525050565b61024c816102fd565b82525050565b61025b8161030f565b82525050565b61026a816102f3565b82525050565b60006040820190506102856000830185610252565b6102926020830184610243565b9392505050565b60006020820190506102ae6000830184610261565b92915050565b60006040820190506102c96000830185610261565b6102d66020830184610234565b9392505050565b6000604051905090565b60008115159050919050565b6000819050919050565b6000610308826102f3565b9050919050565b600061031a826102f3565b9050919050565b61032a826103a8565b810181811067ffffffffffffffff8211171561034957610348610352565b5b80604052505050565b7f4e487b7100000000000000000000000000000000000000000000000000000000600052604160045260246000fd5b600060033d11156103a05760046000803e61039d6000516103b9565b90505b90565b600080fd5b6000601f19601f8301169050919050565b60008160e01c9050919050565b600060443d10156103d657610459565b6103de6102dd565b60043d036004823e80513d602482011167ffffffffffffffff82111715610406575050610459565b808201805167ffffffffffffffff8111156104245750505050610459565b80602083010160043d038501811115610441575050505050610459565b61045082602001850186610321565b82955050505050505b90565b60008060233d1115610479576020600460003e6001915060005190505b9091565b610486816102f3565b811461049157600080fd5b5056fea264697066735822122086a70f138956394b28f45e814187cd2af33181d089bfe76f00d58ac37db30a3164736f6c63430008070033608060405234801561001057600080fd5b506101b1806100206000396000f3fe608060405234801561001057600080fd5b506004361061002b5760003560e01c8063771602f714610030575b600080fd5b61004a6004803603810190610045919061008b565b610060565b60405161005791906100da565b60405180910390f35b6000818361006e91906100f5565b905092915050565b60008135905061008581610164565b92915050565b600080604083850312156100a2576100a161015f565b5b60006100b085828601610076565b92505060206100c185828601610076565b9150509250929050565b6100d481610126565b82525050565b60006020820190506100ef60008301846100cb565b92915050565b600061010082610126565b915061010b83610126565b92508261011b5761011a610130565b5b828204905092915050565b6000819050919050565b7f4e487b7100000000000000000000000000000000000000000000000000000000600052601260045260246000fd5b600080fd5b61016d81610126565b811461017857600080fd5b5056fea264697066735822122017b8339d81b82de805f8d655dd186ed66059ee08ec723688702cffe05c7d5cbd64736f6c63430008070033",
					"opcodes": "PUSH1 0x80 PUSH1 0x40 MSTORE PUSH1 0x40 MLOAD PUSH2 0x10 SWAP1 PUSH2 0x7E JUMP JUMPDEST PUSH1 0x40 MLOAD DUP1 SWAP2 SUB SWAP1 PUSH1 0x0 CREATE DUP1 ISZERO DUP1 ISZERO PUSH2 0x2C JUMPI RETURNDATASIZE PUSH1 0x0 DUP1 RETURNDATACOPY RETURNDATASIZE PUSH1 0x0 REVERT JUMPDEST POP PUSH1 0x0 DUP1 PUSH2 0x100 EXP DUP2 SLOAD DUP2 PUSH20 0xFFFFFFFFFFFFFFFFFFFFFFFFFFFFFFFFFFFFFFFF MUL NOT AND SWAP1 DUP4 PUSH20 0xFFFFFFFFFFFFFFFFFFFFFFFFFFFFFFFFFFFFFFFF AND MUL OR SWAP1 SSTORE POP CALLVALUE DUP1 ISZERO PUSH2 0x78 JUMPI PUSH1 0x0 DUP1 REVERT JUMPDEST POP PUSH2 0x8B JUMP JUMPDEST PUSH2 0x1D1 DUP1 PUSH2 0x564 DUP4 CODECOPY ADD SWAP1 JUMP JUMPDEST PUSH2 0x4CA DUP1 PUSH2 0x9A PUSH1 0x0 CODECOPY PUSH1 0x0 RETURN INVALID PUSH1 0x80 PUSH1 0x40 MSTORE CALLVALUE DUP1 ISZERO PUSH2 0x10 JUMPI PUSH1 0x0 DUP1 REVERT JUMPDEST POP PUSH1 0x4 CALLDATASIZE LT PUSH2 0x36 JUMPI PUSH1 0x0 CALLDATALOAD PUSH1 0xE0 SHR DUP1 PUSH4 0xAE40F72F EQ PUSH2 0x3B JUMPI DUP1 PUSH4 0xD38DBEE6 EQ PUSH2 0x5A JUMPI JUMPDEST PUSH1 0x0 DUP1 REVERT JUMPDEST PUSH2 0x43 PUSH2 0x78 JUMP JUMPDEST PUSH1 0x40 MLOAD PUSH2 0x51 SWAP3 SWAP2 SWAP1 PUSH2 0x2B4 JUMP JUMPDEST PUSH1 0x40 MLOAD DUP1 SWAP2 SUB SWAP1 RETURN JUMPDEST PUSH2 0x62 PUSH2 0x1EC JUMP JUMPDEST PUSH1 0x40 MLOAD PUSH2 0x6F SWAP2 SWAP1 PUSH2 0x299 JUMP JUMPDEST PUSH1 0x40 MLOAD DUP1 SWAP2 SUB SWAP1 RETURN JUMPDEST PUSH1 0x0 DUP1 PUSH1 0x0 DUP1 SLOAD SWAP1 PUSH2 0x100 EXP SWAP1 DIV PUSH20 0xFFFFFFFFFFFFFFFFFFFFFFFFFFFFFFFFFFFFFFFF AND PUSH20 0xFFFFFFFFFFFFFFFFFFFFFFFFFFFFFFFFFFFFFFFF AND PUSH4 0x771602F7 PUSH1 0x5 PUSH1 0x0 PUSH1 0x40 MLOAD DUP4 PUSH4 0xFFFFFFFF AND PUSH1 0xE0 SHL DUP2 MSTORE PUSH1 0x4 ADD PUSH2 0xD8 SWAP3 SWAP2 SWAP1 PUSH2 0x270 JUMP JUMPDEST PUSH1 0x20 PUSH1 0x40 MLOAD DUP1 DUP4 SUB DUP2 DUP7 DUP1 EXTCODESIZE ISZERO DUP1 ISZERO PUSH2 0xF0 JUMPI PUSH1 0x0 DUP1 REVERT JUMPDEST POP GAS STATICCALL SWAP3 POP POP POP DUP1 ISZERO PUSH2 0x121 JUMPI POP PUSH1 0x40 MLOAD RETURNDATASIZE PUSH1 0x1F NOT PUSH1 0x1F DUP3 ADD AND DUP3 ADD DUP1 PUSH1 0x40 MSTORE POP DUP2 ADD SWAP1 PUSH2 0x11E SWAP2 SWAP1 PUSH2 0x207 JUMP JUMPDEST PUSH1 0x1 JUMPDEST PUSH2 0x1DF JUMPI PUSH2 0x12D PUSH2 0x381 JUMP JUMPDEST DUP1 PUSH4 0x8C379A0 EQ ISZERO PUSH2 0x163 JUMPI POP PUSH2 0x142 PUSH2 0x3C6 JUMP JUMPDEST DUP1 PUSH2 0x14D JUMPI POP PUSH2 0x196 JUMP JUMPDEST PUSH1 0x2 PUSH1 0x1 DUP2 SWAP1 SSTORE POP PUSH1 0x64 PUSH1 0x0 SWAP3 POP SWAP3 POP POP PUSH2 0x1E8 JUMP JUMPDEST PUSH4 0x4E487B71 EQ ISZERO PUSH2 0x196 JUMPI PUSH2 0x176 PUSH2 0x45C JUMP JUMPDEST SWAP1 PUSH2 0x181 JUMPI POP PUSH2 0x196 JUMP JUMPDEST PUSH1 0x1 DUP1 DUP2 SWAP1 SSTORE POP PUSH1 0xC8 PUSH1 0x0 SWAP3 POP SWAP3 POP POP PUSH2 0x1E8 JUMP JUMPDEST RETURNDATASIZE DUP1 PUSH1 0x0 DUP2 EQ PUSH2 0x1C2 JUMPI PUSH1 0x40 MLOAD SWAP2 POP PUSH1 0x1F NOT PUSH1 0x3F RETURNDATASIZE ADD AND DUP3 ADD PUSH1 0x40 MSTORE RETURNDATASIZE DUP3 MSTORE RETURNDATASIZE PUSH1 0x0 PUSH1 0x20 DUP5 ADD RETURNDATACOPY PUSH2 0x1C7 JUMP JUMPDEST PUSH1 0x60 SWAP2 POP JUMPDEST POP PUSH1 0x8 PUSH1 0x1 DUP2 SWAP1 SSTORE POP PUSH2 0x12C PUSH1 0x0 SWAP3 POP SWAP3 POP POP PUSH2 0x1E8 JUMP JUMPDEST DUP1 PUSH1 0x1 SWAP3 POP SWAP3 POP POP JUMPDEST SWAP1 SWAP2 JUMP JUMPDEST PUSH1 0x1 SLOAD DUP2 JUMP JUMPDEST PUSH1 0x0 DUP2 MLOAD SWAP1 POP PUSH2 0x201 DUP2 PUSH2 0x47D JUMP JUMPDEST SWAP3 SWAP2 POP POP JUMP JUMPDEST PUSH1 0x0 PUSH1 0x20 DUP3 DUP5 SUB SLT ISZERO PUSH2 0x21D JUMPI PUSH2 0x21C PUSH2 0x3A3 JUMP JUMPDEST JUMPDEST PUSH1 0x0 PUSH2 0x22B DUP5 DUP3 DUP6 ADD PUSH2 0x1F2 JUMP JUMPDEST SWAP2 POP POP SWAP3 SWAP2 POP POP JUMP JUMPDEST PUSH2 0x23D DUP2 PUSH2 0x2E7 JUMP JUMPDEST DUP3 MSTORE POP POP JUMP JUMPDEST PUSH2 0x24C DUP2 PUSH2 0x2FD JUMP JUMPDEST DUP3 MSTORE POP POP JUMP JUMPDEST PUSH2 0x25B DUP2 PUSH2 0x30F JUMP JUMPDEST DUP3 MSTORE POP POP JUMP JUMPDEST PUSH2 0x26A DUP2 PUSH2 0x2F3 JUMP JUMPDEST DUP3 MSTORE POP POP JUMP JUMPDEST PUSH1 0x0 PUSH1 0x40 DUP3 ADD SWAP1 POP PUSH2 0x285 PUSH1 0x0 DUP4 ADD DUP6 PUSH2 0x252 JUMP JUMPDEST PUSH2 0x292 PUSH1 0x20 DUP4 ADD DUP5 PUSH2 0x243 JUMP JUMPDEST SWAP4 SWAP3 POP POP POP JUMP JUMPDEST PUSH1 0x0 PUSH1 0x20 DUP3 ADD SWAP1 POP PUSH2 0x2AE PUSH1 0x0 DUP4 ADD DUP5 PUSH2 0x261 JUMP JUMPDEST SWAP3 SWAP2 POP POP JUMP JUMPDEST PUSH1 0x0 PUSH1 0x40 DUP3 ADD SWAP1 POP PUSH2 0x2C9 PUSH1 0x0 DUP4 ADD DUP6 PUSH2 0x261 JUMP JUMPDEST PUSH2 0x2D6 PUSH1 0x20 DUP4 ADD DUP5 PUSH2 0x234 JUMP JUMPDEST SWAP4 SWAP3 POP POP POP JUMP JUMPDEST PUSH1 0x0 PUSH1 0x40 MLOAD SWAP1 POP SWAP1 JUMP JUMPDEST PUSH1 0x0 DUP2 ISZERO ISZERO SWAP1 POP SWAP2 SWAP1 POP JUMP JUMPDEST PUSH1 0x0 DUP2 SWAP1 POP SWAP2 SWAP1 POP JUMP JUMPDEST PUSH1 0x0 PUSH2 0x308 DUP3 PUSH2 0x2F3 JUMP JUMPDEST SWAP1 POP SWAP2 SWAP1 POP JUMP JUMPDEST PUSH1 0x0 PUSH2 0x31A DUP3 PUSH2 0x2F3 JUMP JUMPDEST SWAP1 POP SWAP2 SWAP1 POP JUMP JUMPDEST PUSH2 0x32A DUP3 PUSH2 0x3A8 JUMP JUMPDEST DUP2 ADD DUP2 DUP2 LT PUSH8 0xFFFFFFFFFFFFFFFF DUP3 GT OR ISZERO PUSH2 0x349 JUMPI PUSH2 0x348 PUSH2 0x352 JUMP JUMPDEST JUMPDEST DUP1 PUSH1 0x40 MSTORE POP POP POP JUMP JUMPDEST PUSH32 0x4E487B7100000000000000000000000000000000000000000000000000000000 PUSH1 0x0 MSTORE PUSH1 0x41 PUSH1 0x4 MSTORE PUSH1 0x24 PUSH1 0x0 REVERT JUMPDEST PUSH1 0x0 PUSH1 0x3 RETURNDATASIZE GT ISZERO PUSH2 0x3A0 JUMPI PUSH1 0x4 PUSH1 0x0 DUP1 RETURNDATACOPY PUSH2 0x39D PUSH1 0x0 MLOAD PUSH2 0x3B9 JUMP JUMPDEST SWAP1 POP JUMPDEST SWAP1 JUMP JUMPDEST PUSH1 0x0 DUP1 REVERT JUMPDEST PUSH1 0x0 PUSH1 0x1F NOT PUSH1 0x1F DUP4 ADD AND SWAP1 POP SWAP2 SWAP1 POP JUMP JUMPDEST PUSH1 0x0 DUP2 PUSH1 0xE0 SHR SWAP1 POP SWAP2 SWAP1 POP JUMP JUMPDEST PUSH1 0x0 PUSH1 0x44 RETURNDATASIZE LT ISZERO PUSH2 0x3D6 JUMPI PUSH2 0x459 JUMP JUMPDEST PUSH2 0x3DE PUSH2 0x2DD JUMP JUMPDEST PUSH1 0x4 RETURNDATASIZE SUB PUSH1 0x4 DUP3 RETURNDATACOPY DUP1 MLOAD RETURNDATASIZE PUSH1 0x24 DUP3 ADD GT PUSH8 0xFFFFFFFFFFFFFFFF DUP3 GT OR ISZERO PUSH2 0x406 JUMPI POP POP PUSH2 0x459 JUMP JUMPDEST DUP1 DUP3 ADD DUP1 MLOAD PUSH8 0xFFFFFFFFFFFFFFFF DUP2 GT ISZERO PUSH2 0x424 JUMPI POP POP POP POP PUSH2 0x459 JUMP JUMPDEST DUP1 PUSH1 0x20 DUP4 ADD ADD PUSH1 0x4 RETURNDATASIZE SUB DUP6 ADD DUP2 GT ISZERO PUSH2 0x441 JUMPI POP POP POP POP POP PUSH2 0x459 JUMP JUMPDEST PUSH2 0x450 DUP3 PUSH1 0x20 ADD DUP6 ADD DUP7 PUSH2 0x321 JUMP JUMPDEST DUP3 SWAP6 POP POP POP POP POP POP JUMPDEST SWAP1 JUMP JUMPDEST PUSH1 0x0 DUP1 PUSH1 0x23 RETURNDATASIZE GT ISZERO PUSH2 0x479 JUMPI PUSH1 0x20 PUSH1 0x4 PUSH1 0x0 RETURNDATACOPY PUSH1 0x1 SWAP2 POP PUSH1 0x0 MLOAD SWAP1 POP JUMPDEST SWAP1 SWAP2 JUMP JUMPDEST PUSH2 0x486 DUP2 PUSH2 0x2F3 JUMP JUMPDEST DUP2 EQ PUSH2 0x491 JUMPI PUSH1 0x0 DUP1 REVERT JUMPDEST POP JUMP INVALID LOG2 PUSH5 0x6970667358 0x22 SLT KECCAK256 DUP7 0xA7 0xF SGT DUP10 JUMP CODECOPY 0x4B 0x28 DELEGATECALL 0x5E DUP2 COINBASE DUP8 0xCD 0x2A RETURN BALANCE DUP2 0xD0 DUP10 0xBF 0xE7 PUSH16 0xD58AC37DB30A3164736F6C63430008 SMOD STOP CALLER PUSH1 0x80 PUSH1 0x40 MSTORE CALLVALUE DUP1 ISZERO PUSH2 0x10 JUMPI PUSH1 0x0 DUP1 REVERT JUMPDEST POP PUSH2 0x1B1 DUP1 PUSH2 0x20 PUSH1 0x0 CODECOPY PUSH1 0x0 RETURN INVALID PUSH1 0x80 PUSH1 0x40 MSTORE CALLVALUE DUP1 ISZERO PUSH2 0x10 JUMPI PUSH1 0x0 DUP1 REVERT JUMPDEST POP PUSH1 0x4 CALLDATASIZE LT PUSH2 0x2B JUMPI PUSH1 0x0 CALLDATALOAD PUSH1 0xE0 SHR DUP1 PUSH4 0x771602F7 EQ PUSH2 0x30 JUMPI JUMPDEST PUSH1 0x0 DUP1 REVERT JUMPDEST PUSH2 0x4A PUSH1 0x4 DUP1 CALLDATASIZE SUB DUP2 ADD SWAP1 PUSH2 0x45 SWAP2 SWAP1 PUSH2 0x8B JUMP JUMPDEST PUSH2 0x60 JUMP JUMPDEST PUSH1 0x40 MLOAD PUSH2 0x57 SWAP2 SWAP1 PUSH2 0xDA JUMP JUMPDEST PUSH1 0x40 MLOAD DUP1 SWAP2 SUB SWAP1 RETURN JUMPDEST PUSH1 0x0 DUP2 DUP4 PUSH2 0x6E SWAP2 SWAP1 PUSH2 0xF5 JUMP JUMPDEST SWAP1 POP SWAP3 SWAP2 POP POP JUMP JUMPDEST PUSH1 0x0 DUP2 CALLDATALOAD SWAP1 POP PUSH2 0x85 DUP2 PUSH2 0x164 JUMP JUMPDEST SWAP3 SWAP2 POP POP JUMP JUMPDEST PUSH1 0x0 DUP1 PUSH1 0x40 DUP4 DUP6 SUB SLT ISZERO PUSH2 0xA2 JUMPI PUSH2 0xA1 PUSH2 0x15F JUMP JUMPDEST JUMPDEST PUSH1 0x0 PUSH2 0xB0 DUP6 DUP3 DUP7 ADD PUSH2 0x76 JUMP JUMPDEST SWAP3 POP POP PUSH1 0x20 PUSH2 0xC1 DUP6 DUP3 DUP7 ADD PUSH2 0x76 JUMP JUMPDEST SWAP2 POP POP SWAP3 POP SWAP3 SWAP1 POP JUMP JUMPDEST PUSH2 0xD4 DUP2 PUSH2 0x126 JUMP JUMPDEST DUP3 MSTORE POP POP JUMP JUMPDEST PUSH1 0x0 PUSH1 0x20 DUP3 ADD SWAP1 POP PUSH2 0xEF PUSH1 0x0 DUP4 ADD DUP5 PUSH2 0xCB JUMP JUMPDEST SWAP3 SWAP2 POP POP JUMP JUMPDEST PUSH1 0x0 PUSH2 0x100 DUP3 PUSH2 0x126 JUMP JUMPDEST SWAP2 POP PUSH2 0x10B DUP4 PUSH2 0x126 JUMP JUMPDEST SWAP3 POP DUP3 PUSH2 0x11B JUMPI PUSH2 0x11A PUSH2 0x130 JUMP JUMPDEST JUMPDEST DUP3 DUP3 DIV SWAP1 POP SWAP3 SWAP2 POP POP JUMP JUMPDEST PUSH1 0x0 DUP2 SWAP1 POP SWAP2 SWAP1 POP JUMP JUMPDEST PUSH32 0x4E487B7100000000000000000000000000000000000000000000000000000000 PUSH1 0x0 MSTORE PUSH1 0x12 PUSH1 0x4 MSTORE PUSH1 0x24 PUSH1 0x0 REVERT JUMPDEST PUSH1 0x0 DUP1 REVERT JUMPDEST PUSH2 0x16D DUP2 PUSH2 0x126 JUMP JUMPDEST DUP2 EQ PUSH2 0x178 JUMPI PUSH1 0x0 DUP1 REVERT JUMPDEST POP JUMP INVALID LOG2 PUSH5 0x6970667358 0x22 SLT KECCAK256 OR 0xB8 CALLER SWAP14 DUP2 0xB8 0x2D 0xE8 SDIV 0xF8 0xD6 SSTORE 0xDD XOR PUSH15 0xD66059EE08EC723688702CFFE05C7D 0x5C 0xBD PUSH5 0x736F6C6343 STOP ADDMOD SMOD STOP CALLER "
				},
				"gasEstimates": {
					"creation": {
						"codeDepositCost": "245200",
						"executionCost": "infinite",
						"totalCost": "infinite"
					},
					"external": {
						"errorCount()": "2429",
						"testAdd()": "infinite"
					}
				},
				"methodIdentifiers": {
					"errorCount()": "d38dbee6",
					"testAdd()": "ae40f72f"
				}
			},
			"storageLayout": {
				"storage": [
					{
						"astId": 25,
						"contract": "contract/chapter04/ty.sol:FeedConsumer",
						"label": "feed",
						"offset": 0,
						"slot": "0",
						"type": "t_contract(DataFeed)18"
					},
					{
						"astId": 27,
						"contract": "contract/chapter04/ty.sol:FeedConsumer",
						"label": "errorCount",
						"offset": 0,
						"slot": "1",
						"type": "t_uint256"
					}
				],
				"types": {
					"t_contract(DataFeed)18": {
						"encoding": "inplace",
						"label": "contract DataFeed",
						"numberOfBytes": "20"
					},
					"t_uint256": {
						"encoding": "inplace",
						"label": "uint256",
						"numberOfBytes": "32"
					}
				}
			},
			"userdoc": {
				"kind": "user",
				"methods": {},
				"version": 1
			}
		}
	}
}