{
	"contract/chapter04/ty.sol": {
		"DataFeed": {
			"abi": [
				{
					"inputs": [],
					"name": "myError",
					"type": "error"
				},
				{
					"inputs": [
						{
							"internalType": "uint256",
							"name": "a",
							"type": "uint256"
						},
						{
							"internalType": "uint256",
							"name": "b",
							"type": "uint256"
						}
					],
					"name": "add",
					"outputs": [
						{
							"internalType": "uint256",
							"name": "value",
							"type": "uint256"
						}
					],
					"stateMutability": "pure",
					"type": "function"
				}
			],
			"devdoc": {
				"kind": "dev",
				"methods": {},
				"version": 1
			},
			"evm": {
				"assembly": "    /* \"contract/chapter04/ty.sol\":60:315  contract DataFeed { \r... */\n  mstore(0x40, 0x80)\n  callvalue\n  dup1\n  iszero\n  tag_1\n  jumpi\n  0x00\n  dup1\n  revert\ntag_1:\n  pop\n  dataSize(sub_0)\n  dup1\n  dataOffset(sub_0)\n  0x00\n  codecopy\n  0x00\n  return\nstop\n\nsub_0: assembly {\n        /* \"contract/chapter04/ty.sol\":60:315  contract DataFeed { \r... */\n      mstore(0x40, 0x80)\n      callvalue\n      dup1\n      iszero\n      tag_1\n      jumpi\n      0x00\n      dup1\n      revert\n    tag_1:\n      pop\n      jumpi(tag_2, lt(calldatasize, 0x04))\n      shr(0xe0, calldataload(0x00))\n      dup1\n      0x771602f7\n      eq\n      tag_3\n      jumpi\n    tag_2:\n      0x00\n      dup1\n      revert\n        /* \"contract/chapter04/ty.sol\":214:306  function add(uint a,uint b) external pure returns (uint value){\r... */\n    tag_3:\n      tag_4\n      0x04\n      dup1\n      calldatasize\n      sub\n      dup2\n      add\n      swap1\n      tag_5\n      swap2\n      swap1\n      tag_6\n      jump\t// in\n    tag_5:\n      tag_7\n      jump\t// in\n    tag_4:\n      mload(0x40)\n      tag_8\n      swap2\n      swap1\n      tag_9\n      jump\t// in\n    tag_8:\n      mload(0x40)\n      dup1\n      swap2\n      sub\n      swap1\n      return\n    tag_7:\n        /* \"contract/chapter04/ty.sol\":265:275  uint value */\n      0x00\n        /* \"contract/chapter04/ty.sol\":287:298  revert(\"1\") */\n      mload(0x40)\n      0x08c379a000000000000000000000000000000000000000000000000000000000\n      dup2\n      mstore\n      0x04\n      add\n      tag_11\n      swap1\n      tag_12\n      jump\t// in\n    tag_11:\n      mload(0x40)\n      dup1\n      swap2\n      sub\n      swap1\n      revert\n        /* \"#utility.yul\":7:146   */\n    tag_14:\n        /* \"#utility.yul\":53:58   */\n      0x00\n        /* \"#utility.yul\":91:97   */\n      dup2\n        /* \"#utility.yul\":78:98   */\n      calldataload\n        /* \"#utility.yul\":69:98   */\n      swap1\n      pop\n        /* \"#utility.yul\":107:140   */\n      tag_16\n        /* \"#utility.yul\":134:139   */\n      dup2\n        /* \"#utility.yul\":107:140   */\n      tag_17\n      jump\t// in\n    tag_16:\n        /* \"#utility.yul\":7:146   */\n      swap3\n      swap2\n      pop\n      pop\n      jump\t// out\n        /* \"#utility.yul\":152:626   */\n    tag_6:\n        /* \"#utility.yul\":220:226   */\n      0x00\n        /* \"#utility.yul\":228:234   */\n      dup1\n        /* \"#utility.yul\":277:279   */\n      0x40\n        /* \"#utility.yul\":265:274   */\n      dup4\n        /* \"#utility.yul\":256:263   */\n      dup6\n        /* \"#utility.yul\":252:275   */\n      sub\n        /* \"#utility.yul\":248:280   */\n      slt\n        /* \"#utility.yul\":245:364   */\n      iszero\n      tag_19\n      jumpi\n        /* \"#utility.yul\":283:362   */\n      tag_20\n      tag_21\n      jump\t// in\n    tag_20:\n        /* \"#utility.yul\":245:364   */\n    tag_19:\n        /* \"#utility.yul\":403:404   */\n      0x00\n        /* \"#utility.yul\":428:481   */\n      tag_22\n        /* \"#utility.yul\":473:480   */\n      dup6\n        /* \"#utility.yul\":464:470   */\n      dup3\n        /* \"#utility.yul\":453:462   */\n      dup7\n        /* \"#utility.yul\":449:471   */\n      add\n        /* \"#utility.yul\":428:481   */\n      tag_14\n      jump\t// in\n    tag_22:\n        /* \"#utility.yul\":418:481   */\n      swap3\n      pop\n        /* \"#utility.yul\":374:491   */\n      pop\n        /* \"#utility.yul\":530:532   */\n      0x20\n        /* \"#utility.yul\":556:609   */\n      tag_23\n        /* \"#utility.yul\":601:608   */\n      dup6\n        /* \"#utility.yul\":592:598   */\n      dup3\n        /* \"#utility.yul\":581:590   */\n      dup7\n        /* \"#utility.yul\":577:599   */\n      add\n        /* \"#utility.yul\":556:609   */\n      tag_14\n      jump\t// in\n    tag_23:\n        /* \"#utility.yul\":546:609   */\n      swap2\n      pop\n        /* \"#utility.yul\":501:619   */\n      pop\n        /* \"#utility.yul\":152:626   */\n      swap3\n      pop\n      swap3\n      swap1\n      pop\n      jump\t// out\n        /* \"#utility.yul\":632:997   */\n    tag_24:\n        /* \"#utility.yul\":774:777   */\n      0x00\n        /* \"#utility.yul\":795:861   */\n      tag_26\n        /* \"#utility.yul\":859:860   */\n      0x01\n        /* \"#utility.yul\":854:857   */\n      dup4\n        /* \"#utility.yul\":795:861   */\n      tag_27\n      jump\t// in\n    tag_26:\n        /* \"#utility.yul\":788:861   */\n      swap2\n      pop\n        /* \"#utility.yul\":870:963   */\n      tag_28\n        /* \"#utility.yul\":959:962   */\n      dup3\n        /* \"#utility.yul\":870:963   */\n      tag_29\n      jump\t// in\n    tag_28:\n        /* \"#utility.yul\":988:990   */\n      0x20\n        /* \"#utility.yul\":983:986   */\n      dup3\n        /* \"#utility.yul\":979:991   */\n      add\n        /* \"#utility.yul\":972:991   */\n      swap1\n      pop\n        /* \"#utility.yul\":632:997   */\n      swap2\n      swap1\n      pop\n      jump\t// out\n        /* \"#utility.yul\":1003:1121   */\n    tag_30:\n        /* \"#utility.yul\":1090:1114   */\n      tag_32\n        /* \"#utility.yul\":1108:1113   */\n      dup2\n        /* \"#utility.yul\":1090:1114   */\n      tag_33\n      jump\t// in\n    tag_32:\n        /* \"#utility.yul\":1085:1088   */\n      dup3\n        /* \"#utility.yul\":1078:1115   */\n      mstore\n        /* \"#utility.yul\":1003:1121   */\n      pop\n      pop\n      jump\t// out\n        /* \"#utility.yul\":1127:1546   */\n    tag_12:\n        /* \"#utility.yul\":1293:1297   */\n      0x00\n        /* \"#utility.yul\":1331:1333   */\n      0x20\n        /* \"#utility.yul\":1320:1329   */\n      dup3\n        /* \"#utility.yul\":1316:1334   */\n      add\n        /* \"#utility.yul\":1308:1334   */\n      swap1\n      pop\n        /* \"#utility.yul\":1380:1389   */\n      dup2\n        /* \"#utility.yul\":1374:1378   */\n      dup2\n        /* \"#utility.yul\":1370:1390   */\n      sub\n        /* \"#utility.yul\":1366:1367   */\n      0x00\n        /* \"#utility.yul\":1355:1364   */\n      dup4\n        /* \"#utility.yul\":1351:1368   */\n      add\n        /* \"#utility.yul\":1344:1391   */\n      mstore\n        /* \"#utility.yul\":1408:1539   */\n      tag_35\n        /* \"#utility.yul\":1534:1538   */\n      dup2\n        /* \"#utility.yul\":1408:1539   */\n      tag_24\n      jump\t// in\n    tag_35:\n        /* \"#utility.yul\":1400:1539   */\n      swap1\n      pop\n        /* \"#utility.yul\":1127:1546   */\n      swap2\n      swap1\n      pop\n      jump\t// out\n        /* \"#utility.yul\":1552:1774   */\n    tag_9:\n        /* \"#utility.yul\":1645:1649   */\n      0x00\n        /* \"#utility.yul\":1683:1685   */\n      0x20\n        /* \"#utility.yul\":1672:1681   */\n      dup3\n        /* \"#utility.yul\":1668:1686   */\n      add\n        /* \"#utility.yul\":1660:1686   */\n      swap1\n      pop\n        /* \"#utility.yul\":1696:1767   */\n      tag_37\n        /* \"#utility.yul\":1764:1765   */\n      0x00\n        /* \"#utility.yul\":1753:1762   */\n      dup4\n        /* \"#utility.yul\":1749:1766   */\n      add\n        /* \"#utility.yul\":1740:1746   */\n      dup5\n        /* \"#utility.yul\":1696:1767   */\n      tag_30\n      jump\t// in\n    tag_37:\n        /* \"#utility.yul\":1552:1774   */\n      swap3\n      swap2\n      pop\n      pop\n      jump\t// out\n        /* \"#utility.yul\":1861:2030   */\n    tag_27:\n        /* \"#utility.yul\":1945:1956   */\n      0x00\n        /* \"#utility.yul\":1979:1985   */\n      dup3\n        /* \"#utility.yul\":1974:1977   */\n      dup3\n        /* \"#utility.yul\":1967:1986   */\n      mstore\n        /* \"#utility.yul\":2019:2023   */\n      0x20\n        /* \"#utility.yul\":2014:2017   */\n      dup3\n        /* \"#utility.yul\":2010:2024   */\n      add\n        /* \"#utility.yul\":1995:2024   */\n      swap1\n      pop\n        /* \"#utility.yul\":1861:2030   */\n      swap3\n      swap2\n      pop\n      pop\n      jump\t// out\n        /* \"#utility.yul\":2036:2113   */\n    tag_33:\n        /* \"#utility.yul\":2073:2080   */\n      0x00\n        /* \"#utility.yul\":2102:2107   */\n      dup2\n        /* \"#utility.yul\":2091:2107   */\n      swap1\n      pop\n        /* \"#utility.yul\":2036:2113   */\n      swap2\n      swap1\n      pop\n      jump\t// out\n        /* \"#utility.yul\":2242:2359   */\n    tag_21:\n        /* \"#utility.yul\":2351:2352   */\n      0x00\n        /* \"#utility.yul\":2348:2349   */\n      dup1\n        /* \"#utility.yul\":2341:2353   */\n      revert\n        /* \"#utility.yul\":2365:2516   */\n    tag_29:\n        /* \"#utility.yul\":2505:2508   */\n      0x3100000000000000000000000000000000000000000000000000000000000000\n        /* \"#utility.yul\":2501:2502   */\n      0x00\n        /* \"#utility.yul\":2493:2499   */\n      dup3\n        /* \"#utility.yul\":2489:2503   */\n      add\n        /* \"#utility.yul\":2482:2509   */\n      mstore\n        /* \"#utility.yul\":2365:2516   */\n      pop\n      jump\t// out\n        /* \"#utility.yul\":2522:2644   */\n    tag_17:\n        /* \"#utility.yul\":2595:2619   */\n      tag_47\n        /* \"#utility.yul\":2613:2618   */\n      dup2\n        /* \"#utility.yul\":2595:2619   */\n      tag_33\n      jump\t// in\n    tag_47:\n        /* \"#utility.yul\":2588:2593   */\n      dup2\n        /* \"#utility.yul\":2585:2620   */\n      eq\n        /* \"#utility.yul\":2575:2638   */\n      tag_48\n      jumpi\n        /* \"#utility.yul\":2634:2635   */\n      0x00\n        /* \"#utility.yul\":2631:2632   */\n      dup1\n        /* \"#utility.yul\":2624:2636   */\n      revert\n        /* \"#utility.yul\":2575:2638   */\n    tag_48:\n        /* \"#utility.yul\":2522:2644   */\n      pop\n      jump\t// out\n\n    auxdata: 0xa2646970667358221220c52119b969aa238f3c85a4309c4e0a5e69313813563598f5a6fc62c880cf51f364736f6c63430008070033\n}\n",
				"bytecode": {
					"linkReferences": {},
					"object": "608060405234801561001057600080fd5b506101f5806100206000396000f3fe608060405234801561001057600080fd5b506004361061002b5760003560e01c8063771602f714610030575b600080fd5b61004a600480360381019061004591906100b2565b610060565b6040516100579190610144565b60405180910390f35b60006040517f08c379a000000000000000000000000000000000000000000000000000000000815260040161009490610124565b60405180910390fd5b6000813590506100ac816101a8565b92915050565b600080604083850312156100c9576100c861017a565b5b60006100d78582860161009d565b92505060206100e88582860161009d565b9150509250929050565b60006100ff60018361015f565b915061010a8261017f565b602082019050919050565b61011e81610170565b82525050565b6000602082019050818103600083015261013d816100f2565b9050919050565b60006020820190506101596000830184610115565b92915050565b600082825260208201905092915050565b6000819050919050565b600080fd5b7f3100000000000000000000000000000000000000000000000000000000000000600082015250565b6101b181610170565b81146101bc57600080fd5b5056fea2646970667358221220c52119b969aa238f3c85a4309c4e0a5e69313813563598f5a6fc62c880cf51f364736f6c63430008070033",
					"opcodes": "PUSH1 0x80 PUSH1 0x40 MSTORE CALLVALUE DUP1 ISZERO PUSH2 0x10 JUMPI PUSH1 0x0 DUP1 REVERT JUMPDEST POP PUSH2 0x1F5 DUP1 PUSH2 0x20 PUSH1 0x0 CODECOPY PUSH1 0x0 RETURN INVALID PUSH1 0x80 PUSH1 0x40 MSTORE CALLVALUE DUP1 ISZERO PUSH2 0x10 JUMPI PUSH1 0x0 DUP1 REVERT JUMPDEST POP PUSH1 0x4 CALLDATASIZE LT PUSH2 0x2B JUMPI PUSH1 0x0 CALLDATALOAD PUSH1 0xE0 SHR DUP1 PUSH4 0x771602F7 EQ PUSH2 0x30 JUMPI JUMPDEST PUSH1 0x0 DUP1 REVERT JUMPDEST PUSH2 0x4A PUSH1 0x4 DUP1 CALLDATASIZE SUB DUP2 ADD SWAP1 PUSH2 0x45 SWAP2 SWAP1 PUSH2 0xB2 JUMP JUMPDEST PUSH2 0x60 JUMP JUMPDEST PUSH1 0x40 MLOAD PUSH2 0x57 SWAP2 SWAP1 PUSH2 0x144 JUMP JUMPDEST PUSH1 0x40 MLOAD DUP1 SWAP2 SUB SWAP1 RETURN JUMPDEST PUSH1 0x0 PUSH1 0x40 MLOAD PUSH32 0x8C379A000000000000000000000000000000000000000000000000000000000 DUP2 MSTORE PUSH1 0x4 ADD PUSH2 0x94 SWAP1 PUSH2 0x124 JUMP JUMPDEST PUSH1 0x40 MLOAD DUP1 SWAP2 SUB SWAP1 REVERT JUMPDEST PUSH1 0x0 DUP2 CALLDATALOAD SWAP1 POP PUSH2 0xAC DUP2 PUSH2 0x1A8 JUMP JUMPDEST SWAP3 SWAP2 POP POP JUMP JUMPDEST PUSH1 0x0 DUP1 PUSH1 0x40 DUP4 DUP6 SUB SLT ISZERO PUSH2 0xC9 JUMPI PUSH2 0xC8 PUSH2 0x17A JUMP JUMPDEST JUMPDEST PUSH1 0x0 PUSH2 0xD7 DUP6 DUP3 DUP7 ADD PUSH2 0x9D JUMP JUMPDEST SWAP3 POP POP PUSH1 0x20 PUSH2 0xE8 DUP6 DUP3 DUP7 ADD PUSH2 0x9D JUMP JUMPDEST SWAP2 POP POP SWAP3 POP SWAP3 SWAP1 POP JUMP JUMPDEST PUSH1 0x0 PUSH2 0xFF PUSH1 0x1 DUP4 PUSH2 0x15F JUMP JUMPDEST SWAP2 POP PUSH2 0x10A DUP3 PUSH2 0x17F JUMP JUMPDEST PUSH1 0x20 DUP3 ADD SWAP1 POP SWAP2 SWAP1 POP JUMP JUMPDEST PUSH2 0x11E DUP2 PUSH2 0x170 JUMP JUMPDEST DUP3 MSTORE POP POP JUMP JUMPDEST PUSH1 0x0 PUSH1 0x20 DUP3 ADD SWAP1 POP DUP2 DUP2 SUB PUSH1 0x0 DUP4 ADD MSTORE PUSH2 0x13D DUP2 PUSH2 0xF2 JUMP JUMPDEST SWAP1 POP SWAP2 SWAP1 POP JUMP JUMPDEST PUSH1 0x0 PUSH1 0x20 DUP3 ADD SWAP1 POP PUSH2 0x159 PUSH1 0x0 DUP4 ADD DUP5 PUSH2 0x115 JUMP JUMPDEST SWAP3 SWAP2 POP POP JUMP JUMPDEST PUSH1 0x0 DUP3 DUP3 MSTORE PUSH1 0x20 DUP3 ADD SWAP1 POP SWAP3 SWAP2 POP POP JUMP JUMPDEST PUSH1 0x0 DUP2 SWAP1 POP SWAP2 SWAP1 POP JUMP JUMPDEST PUSH1 0x0 DUP1 REVERT JUMPDEST PUSH32 0x3100000000000000000000000000000000000000000000000000000000000000 PUSH1 0x0 DUP3 ADD MSTORE POP JUMP JUMPDEST PUSH2 0x1B1 DUP2 PUSH2 0x170 JUMP JUMPDEST DUP2 EQ PUSH2 0x1BC JUMPI PUSH1 0x0 DUP1 REVERT JUMPDEST POP JUMP INVALID LOG2 PUSH5 0x6970667358 0x22 SLT KECCAK256 0xC5 0x21 NOT 0xB9 PUSH10 0xAA238F3C85A4309C4E0A 0x5E PUSH10 0x313813563598F5A6FC62 0xC8 DUP1 0xCF MLOAD RETURN PUSH5 0x736F6C6343 STOP ADDMOD SMOD STOP CALLER "
				},
				"gasEstimates": {
					"creation": {
						"codeDepositCost": "100200",
						"executionCost": "147",
						"totalCost": "100347"
					},
					"external": {
						"add(uint256,uint256)": "infinite"
					}
				},
				"methodIdentifiers": {
					"add(uint256,uint256)": "771602f7"
				}
			},
			"storageLayout": {
				"storage": [],
				"types": null
			},
			"userdoc": {
				"kind": "user",
				"methods": {},
				"version": 1
			}
		}
	}
}