{
	"study/chapter04/newContract.sol": {
		"callContract": {
			"abi": [
				{
					"inputs": [],
					"name": "contractaddr",
					"outputs": [
						{
							"internalType": "address",
							"name": "",
							"type": "address"
						}
					],
					"stateMutability": "view",
					"type": "function"
				},
				{
					"inputs": [
						{
							"internalType": "uint256",
							"name": "amount",
							"type": "uint256"
						}
					],
					"name": "createContractObj",
					"outputs": [],
					"stateMutability": "payable",
					"type": "function"
				}
			],
			"devdoc": {
				"kind": "dev",
				"methods": {},
				"version": 1
			},
			"evm": {
				"assembly": "    /* \"study/chapter04/newContract.sol\":306:594  contract callContract{... */\n  mstore(0x40, 0x80)\n  callvalue\n  dup1\n  iszero\n  tag_1\n  jumpi\n  0x00\n  dup1\n  revert\ntag_1:\n  pop\n  dataSize(sub_0)\n  dup1\n  dataOffset(sub_0)\n  0x00\n  codecopy\n  0x00\n  return\nstop\n\nsub_0: assembly {\n        /* \"study/chapter04/newContract.sol\":306:594  contract callContract{... */\n      mstore(0x40, 0x80)\n      jumpi(tag_1, lt(calldatasize, 0x04))\n      shr(0xe0, calldataload(0x00))\n      dup1\n      0x93d4e9a2\n      eq\n      tag_2\n      jumpi\n      dup1\n      0xd01bb4d5\n      eq\n      tag_3\n      jumpi\n    tag_1:\n      0x00\n      dup1\n      revert\n        /* \"study/chapter04/newContract.sol\":472:588  function createContractObj(uint amount)public payable{... */\n    tag_2:\n      tag_4\n      0x04\n      dup1\n      calldatasize\n      sub\n      dup2\n      add\n      swap1\n      tag_5\n      swap2\n      swap1\n      tag_6\n      jump\t// in\n    tag_5:\n      tag_7\n      jump\t// in\n    tag_4:\n      stop\n        /* \"study/chapter04/newContract.sol\":438:465  address public contractaddr */\n    tag_3:\n      callvalue\n      dup1\n      iszero\n      tag_8\n      jumpi\n      0x00\n      dup1\n      revert\n    tag_8:\n      pop\n      tag_9\n      tag_10\n      jump\t// in\n    tag_9:\n      mload(0x40)\n      tag_11\n      swap2\n      swap1\n      tag_12\n      jump\t// in\n    tag_11:\n      mload(0x40)\n      dup1\n      swap2\n      sub\n      swap1\n      return\n        /* \"study/chapter04/newContract.sol\":472:588  function createContractObj(uint amount)public payable{... */\n    tag_7:\n        /* \"study/chapter04/newContract.sol\":562:568  amount */\n      dup1\n        /* \"study/chapter04/newContract.sol\":570:571  5 */\n      0x05\n        /* \"study/chapter04/newContract.sol\":539:572  new testContract{value:amount}(5) */\n      mload(0x40)\n      tag_14\n      swap1\n      tag_15\n      jump\t// in\n    tag_14:\n      tag_16\n      swap2\n      swap1\n      tag_17\n      jump\t// in\n    tag_16:\n      mload(0x40)\n      dup1\n      swap2\n      sub\n      swap1\n      dup3\n      create\n      swap1\n      pop\n      dup1\n      iszero\n      dup1\n      iszero\n      tag_18\n      jumpi\n      returndatasize\n      0x00\n      dup1\n      returndatacopy\n      revert(0x00, returndatasize)\n    tag_18:\n      pop\n        /* \"study/chapter04/newContract.sol\":535:536  t */\n      0x00\n      dup1\n        /* \"study/chapter04/newContract.sol\":535:572  t = new testContract{value:amount}(5) */\n      0x0100\n      exp\n      dup2\n      sload\n      dup2\n      0xffffffffffffffffffffffffffffffffffffffff\n      mul\n      not\n      and\n      swap1\n      dup4\n      0xffffffffffffffffffffffffffffffffffffffff\n      and\n      mul\n      or\n      swap1\n      sstore\n      pop\n        /* \"study/chapter04/newContract.sol\":472:588  function createContractObj(uint amount)public payable{... */\n      pop\n      jump\t// out\n        /* \"study/chapter04/newContract.sol\":438:465  address public contractaddr */\n    tag_10:\n      0x01\n      0x00\n      swap1\n      sload\n      swap1\n      0x0100\n      exp\n      swap1\n      div\n      0xffffffffffffffffffffffffffffffffffffffff\n      and\n      dup2\n      jump\t// out\n    tag_15:\n      dataSize(sub_0)\n      dup1\n      dataOffset(sub_0)\n      dup4\n      codecopy\n      add\n      swap1\n      jump\t// out\n        /* \"#utility.yul\":7:146   */\n    tag_20:\n        /* \"#utility.yul\":53:58   */\n      0x00\n        /* \"#utility.yul\":91:97   */\n      dup2\n        /* \"#utility.yul\":78:98   */\n      calldataload\n        /* \"#utility.yul\":69:98   */\n      swap1\n      pop\n        /* \"#utility.yul\":107:140   */\n      tag_22\n        /* \"#utility.yul\":134:139   */\n      dup2\n        /* \"#utility.yul\":107:140   */\n      tag_23\n      jump\t// in\n    tag_22:\n        /* \"#utility.yul\":7:146   */\n      swap3\n      swap2\n      pop\n      pop\n      jump\t// out\n        /* \"#utility.yul\":152:481   */\n    tag_6:\n        /* \"#utility.yul\":211:217   */\n      0x00\n        /* \"#utility.yul\":260:262   */\n      0x20\n        /* \"#utility.yul\":248:257   */\n      dup3\n        /* \"#utility.yul\":239:246   */\n      dup5\n        /* \"#utility.yul\":235:258   */\n      sub\n        /* \"#utility.yul\":231:263   */\n      slt\n        /* \"#utility.yul\":228:347   */\n      iszero\n      tag_25\n      jumpi\n        /* \"#utility.yul\":266:345   */\n      tag_26\n      tag_27\n      jump\t// in\n    tag_26:\n        /* \"#utility.yul\":228:347   */\n    tag_25:\n        /* \"#utility.yul\":386:387   */\n      0x00\n        /* \"#utility.yul\":411:464   */\n      tag_28\n        /* \"#utility.yul\":456:463   */\n      dup5\n        /* \"#utility.yul\":447:453   */\n      dup3\n        /* \"#utility.yul\":436:445   */\n      dup6\n        /* \"#utility.yul\":432:454   */\n      add\n        /* \"#utility.yul\":411:464   */\n      tag_20\n      jump\t// in\n    tag_28:\n        /* \"#utility.yul\":401:464   */\n      swap2\n      pop\n        /* \"#utility.yul\":357:474   */\n      pop\n        /* \"#utility.yul\":152:481   */\n      swap3\n      swap2\n      pop\n      pop\n      jump\t// out\n        /* \"#utility.yul\":487:605   */\n    tag_29:\n        /* \"#utility.yul\":574:598   */\n      tag_31\n        /* \"#utility.yul\":592:597   */\n      dup2\n        /* \"#utility.yul\":574:598   */\n      tag_32\n      jump\t// in\n    tag_31:\n        /* \"#utility.yul\":569:572   */\n      dup3\n        /* \"#utility.yul\":562:599   */\n      mstore\n        /* \"#utility.yul\":487:605   */\n      pop\n      pop\n      jump\t// out\n        /* \"#utility.yul\":611:758   */\n    tag_33:\n        /* \"#utility.yul\":706:751   */\n      tag_35\n        /* \"#utility.yul\":745:750   */\n      dup2\n        /* \"#utility.yul\":706:751   */\n      tag_36\n      jump\t// in\n    tag_35:\n        /* \"#utility.yul\":701:704   */\n      dup3\n        /* \"#utility.yul\":694:752   */\n      mstore\n        /* \"#utility.yul\":611:758   */\n      pop\n      pop\n      jump\t// out\n        /* \"#utility.yul\":764:986   */\n    tag_12:\n        /* \"#utility.yul\":857:861   */\n      0x00\n        /* \"#utility.yul\":895:897   */\n      0x20\n        /* \"#utility.yul\":884:893   */\n      dup3\n        /* \"#utility.yul\":880:898   */\n      add\n        /* \"#utility.yul\":872:898   */\n      swap1\n      pop\n        /* \"#utility.yul\":908:979   */\n      tag_38\n        /* \"#utility.yul\":976:977   */\n      0x00\n        /* \"#utility.yul\":965:974   */\n      dup4\n        /* \"#utility.yul\":961:978   */\n      add\n        /* \"#utility.yul\":952:958   */\n      dup5\n        /* \"#utility.yul\":908:979   */\n      tag_29\n      jump\t// in\n    tag_38:\n        /* \"#utility.yul\":764:986   */\n      swap3\n      swap2\n      pop\n      pop\n      jump\t// out\n        /* \"#utility.yul\":992:1230   */\n    tag_17:\n        /* \"#utility.yul\":1093:1097   */\n      0x00\n        /* \"#utility.yul\":1131:1133   */\n      0x20\n        /* \"#utility.yul\":1120:1129   */\n      dup3\n        /* \"#utility.yul\":1116:1134   */\n      add\n        /* \"#utility.yul\":1108:1134   */\n      swap1\n      pop\n        /* \"#utility.yul\":1144:1223   */\n      tag_40\n        /* \"#utility.yul\":1220:1221   */\n      0x00\n        /* \"#utility.yul\":1209:1218   */\n      dup4\n        /* \"#utility.yul\":1205:1222   */\n      add\n        /* \"#utility.yul\":1196:1202   */\n      dup5\n        /* \"#utility.yul\":1144:1223   */\n      tag_33\n      jump\t// in\n    tag_40:\n        /* \"#utility.yul\":992:1230   */\n      swap3\n      swap2\n      pop\n      pop\n      jump\t// out\n        /* \"#utility.yul\":1317:1413   */\n    tag_32:\n        /* \"#utility.yul\":1354:1361   */\n      0x00\n        /* \"#utility.yul\":1383:1407   */\n      tag_44\n        /* \"#utility.yul\":1401:1406   */\n      dup3\n        /* \"#utility.yul\":1383:1407   */\n      tag_45\n      jump\t// in\n    tag_44:\n        /* \"#utility.yul\":1372:1407   */\n      swap1\n      pop\n        /* \"#utility.yul\":1317:1413   */\n      swap2\n      swap1\n      pop\n      jump\t// out\n        /* \"#utility.yul\":1419:1545   */\n    tag_45:\n        /* \"#utility.yul\":1456:1463   */\n      0x00\n        /* \"#utility.yul\":1496:1538   */\n      0xffffffffffffffffffffffffffffffffffffffff\n        /* \"#utility.yul\":1489:1494   */\n      dup3\n        /* \"#utility.yul\":1485:1539   */\n      and\n        /* \"#utility.yul\":1474:1539   */\n      swap1\n      pop\n        /* \"#utility.yul\":1419:1545   */\n      swap2\n      swap1\n      pop\n      jump\t// out\n        /* \"#utility.yul\":1551:1628   */\n    tag_47:\n        /* \"#utility.yul\":1588:1595   */\n      0x00\n        /* \"#utility.yul\":1617:1622   */\n      dup2\n        /* \"#utility.yul\":1606:1622   */\n      swap1\n      pop\n        /* \"#utility.yul\":1551:1628   */\n      swap2\n      swap1\n      pop\n      jump\t// out\n        /* \"#utility.yul\":1634:1755   */\n    tag_36:\n        /* \"#utility.yul\":1692:1701   */\n      0x00\n        /* \"#utility.yul\":1725:1749   */\n      tag_50\n        /* \"#utility.yul\":1743:1748   */\n      dup3\n        /* \"#utility.yul\":1725:1749   */\n      tag_47\n      jump\t// in\n    tag_50:\n        /* \"#utility.yul\":1712:1749   */\n      swap1\n      pop\n        /* \"#utility.yul\":1634:1755   */\n      swap2\n      swap1\n      pop\n      jump\t// out\n        /* \"#utility.yul\":1884:2001   */\n    tag_27:\n        /* \"#utility.yul\":1993:1994   */\n      0x00\n        /* \"#utility.yul\":1990:1991   */\n      dup1\n        /* \"#utility.yul\":1983:1995   */\n      revert\n        /* \"#utility.yul\":2007:2129   */\n    tag_23:\n        /* \"#utility.yul\":2080:2104   */\n      tag_55\n        /* \"#utility.yul\":2098:2103   */\n      dup2\n        /* \"#utility.yul\":2080:2104   */\n      tag_47\n      jump\t// in\n    tag_55:\n        /* \"#utility.yul\":2073:2078   */\n      dup2\n        /* \"#utility.yul\":2070:2105   */\n      eq\n        /* \"#utility.yul\":2060:2123   */\n      tag_56\n      jumpi\n        /* \"#utility.yul\":2119:2120   */\n      0x00\n        /* \"#utility.yul\":2116:2117   */\n      dup1\n        /* \"#utility.yul\":2109:2121   */\n      revert\n        /* \"#utility.yul\":2060:2123   */\n    tag_56:\n        /* \"#utility.yul\":2007:2129   */\n      pop\n      jump\t// out\n    stop\n\n    sub_0: assembly {\n            /* \"study/chapter04/newContract.sol\":53:305  contract testContract{... */\n          mstore(0x40, 0x80)\n            /* \"study/chapter04/newContract.sol\":156:205  constructor(uint _a) payable{... */\n          mload(0x40)\n          sub(codesize, bytecodeSize)\n          dup1\n          bytecodeSize\n          dup4\n          codecopy\n          dup2\n          dup2\n          add\n          0x40\n          mstore\n          dup2\n          add\n          swap1\n          tag_1\n          swap2\n          swap1\n          tag_2\n          jump\t// in\n        tag_1:\n            /* \"study/chapter04/newContract.sol\":196:198  _a */\n          dup1\n            /* \"study/chapter04/newContract.sol\":194:195  a */\n          0x00\n            /* \"study/chapter04/newContract.sol\":194:198  a=_a */\n          dup2\n          swap1\n          sstore\n          pop\n            /* \"study/chapter04/newContract.sol\":156:205  constructor(uint _a) payable{... */\n          pop\n            /* \"study/chapter04/newContract.sol\":53:305  contract testContract{... */\n          jump(tag_5)\n            /* \"#utility.yul\":7:150   */\n        tag_7:\n            /* \"#utility.yul\":64:69   */\n          0x00\n            /* \"#utility.yul\":95:101   */\n          dup2\n            /* \"#utility.yul\":89:102   */\n          mload\n            /* \"#utility.yul\":80:102   */\n          swap1\n          pop\n            /* \"#utility.yul\":111:144   */\n          tag_9\n            /* \"#utility.yul\":138:143   */\n          dup2\n            /* \"#utility.yul\":111:144   */\n          tag_10\n          jump\t// in\n        tag_9:\n            /* \"#utility.yul\":7:150   */\n          swap3\n          swap2\n          pop\n          pop\n          jump\t// out\n            /* \"#utility.yul\":156:507   */\n        tag_2:\n            /* \"#utility.yul\":226:232   */\n          0x00\n            /* \"#utility.yul\":275:277   */\n          0x20\n            /* \"#utility.yul\":263:272   */\n          dup3\n            /* \"#utility.yul\":254:261   */\n          dup5\n            /* \"#utility.yul\":250:273   */\n          sub\n            /* \"#utility.yul\":246:278   */\n          slt\n            /* \"#utility.yul\":243:362   */\n          iszero\n          tag_12\n          jumpi\n            /* \"#utility.yul\":281:360   */\n          tag_13\n          tag_14\n          jump\t// in\n        tag_13:\n            /* \"#utility.yul\":243:362   */\n        tag_12:\n            /* \"#utility.yul\":401:402   */\n          0x00\n            /* \"#utility.yul\":426:490   */\n          tag_15\n            /* \"#utility.yul\":482:489   */\n          dup5\n            /* \"#utility.yul\":473:479   */\n          dup3\n            /* \"#utility.yul\":462:471   */\n          dup6\n            /* \"#utility.yul\":458:480   */\n          add\n            /* \"#utility.yul\":426:490   */\n          tag_7\n          jump\t// in\n        tag_15:\n            /* \"#utility.yul\":416:490   */\n          swap2\n          pop\n            /* \"#utility.yul\":372:500   */\n          pop\n            /* \"#utility.yul\":156:507   */\n          swap3\n          swap2\n          pop\n          pop\n          jump\t// out\n            /* \"#utility.yul\":594:671   */\n        tag_18:\n            /* \"#utility.yul\":631:638   */\n          0x00\n            /* \"#utility.yul\":660:665   */\n          dup2\n            /* \"#utility.yul\":649:665   */\n          swap1\n          pop\n            /* \"#utility.yul\":594:671   */\n          swap2\n          swap1\n          pop\n          jump\t// out\n            /* \"#utility.yul\":800:917   */\n        tag_14:\n            /* \"#utility.yul\":909:910   */\n          0x00\n            /* \"#utility.yul\":906:907   */\n          dup1\n            /* \"#utility.yul\":899:911   */\n          revert\n            /* \"#utility.yul\":923:1045   */\n        tag_10:\n            /* \"#utility.yul\":996:1020   */\n          tag_24\n            /* \"#utility.yul\":1014:1019   */\n          dup2\n            /* \"#utility.yul\":996:1020   */\n          tag_18\n          jump\t// in\n        tag_24:\n            /* \"#utility.yul\":989:994   */\n          dup2\n            /* \"#utility.yul\":986:1021   */\n          eq\n            /* \"#utility.yul\":976:1039   */\n          tag_25\n          jumpi\n            /* \"#utility.yul\":1035:1036   */\n          0x00\n            /* \"#utility.yul\":1032:1033   */\n          dup1\n            /* \"#utility.yul\":1025:1037   */\n          revert\n            /* \"#utility.yul\":976:1039   */\n        tag_25:\n            /* \"#utility.yul\":923:1045   */\n          pop\n          jump\t// out\n            /* \"study/chapter04/newContract.sol\":53:305  contract testContract{... */\n        tag_5:\n          dataSize(sub_0)\n          dup1\n          dataOffset(sub_0)\n          0x00\n          codecopy\n          0x00\n          return\n        stop\n\n        sub_0: assembly {\n                /* \"study/chapter04/newContract.sol\":53:305  contract testContract{... */\n              mstore(0x40, 0x80)\n              jumpi(tag_1, lt(calldatasize, 0x04))\n              shr(0xe0, calldataload(0x00))\n              dup1\n              0x0dbe671f\n              eq\n              tag_3\n              jumpi\n              dup1\n              0x12065fe0\n              eq\n              tag_4\n              jumpi\n              jump(tag_2)\n            tag_1:\n              jumpi(tag_2, calldatasize)\n              stop\n            tag_2:\n              0x00\n              dup1\n              revert\n                /* \"study/chapter04/newContract.sol\":136:149  uint public a */\n            tag_3:\n              callvalue\n              dup1\n              iszero\n              tag_7\n              jumpi\n              0x00\n              dup1\n              revert\n            tag_7:\n              pop\n              tag_8\n              tag_9\n              jump\t// in\n            tag_8:\n              mload(0x40)\n              tag_10\n              swap2\n              swap1\n              tag_11\n              jump\t// in\n            tag_10:\n              mload(0x40)\n              dup1\n              swap2\n              sub\n              swap1\n              return\n                /* \"study/chapter04/newContract.sol\":210:303  function getBalance()external view returns(uint){... */\n            tag_4:\n              callvalue\n              dup1\n              iszero\n              tag_12\n              jumpi\n              0x00\n              dup1\n              revert\n            tag_12:\n              pop\n              tag_13\n              tag_14\n              jump\t// in\n            tag_13:\n              mload(0x40)\n              tag_15\n              swap2\n              swap1\n              tag_11\n              jump\t// in\n            tag_15:\n              mload(0x40)\n              dup1\n              swap2\n              sub\n              swap1\n              return\n                /* \"study/chapter04/newContract.sol\":136:149  uint public a */\n            tag_9:\n              sload(0x00)\n              dup2\n              jump\t// out\n                /* \"study/chapter04/newContract.sol\":210:303  function getBalance()external view returns(uint){... */\n            tag_14:\n                /* \"study/chapter04/newContract.sol\":253:257  uint */\n              0x00\n                /* \"study/chapter04/newContract.sol\":275:296  address(this).balance */\n              selfbalance\n                /* \"study/chapter04/newContract.sol\":268:296  return address(this).balance */\n              swap1\n              pop\n                /* \"study/chapter04/newContract.sol\":210:303  function getBalance()external view returns(uint){... */\n              swap1\n              jump\t// out\n                /* \"#utility.yul\":7:125   */\n            tag_18:\n                /* \"#utility.yul\":94:118   */\n              tag_20\n                /* \"#utility.yul\":112:117   */\n              dup2\n                /* \"#utility.yul\":94:118   */\n              tag_21\n              jump\t// in\n            tag_20:\n                /* \"#utility.yul\":89:92   */\n              dup3\n                /* \"#utility.yul\":82:119   */\n              mstore\n                /* \"#utility.yul\":7:125   */\n              pop\n              pop\n              jump\t// out\n                /* \"#utility.yul\":131:353   */\n            tag_11:\n                /* \"#utility.yul\":224:228   */\n              0x00\n                /* \"#utility.yul\":262:264   */\n              0x20\n                /* \"#utility.yul\":251:260   */\n              dup3\n                /* \"#utility.yul\":247:265   */\n              add\n                /* \"#utility.yul\":239:265   */\n              swap1\n              pop\n                /* \"#utility.yul\":275:346   */\n              tag_23\n                /* \"#utility.yul\":343:344   */\n              0x00\n                /* \"#utility.yul\":332:341   */\n              dup4\n                /* \"#utility.yul\":328:345   */\n              add\n                /* \"#utility.yul\":319:325   */\n              dup5\n                /* \"#utility.yul\":275:346   */\n              tag_18\n              jump\t// in\n            tag_23:\n                /* \"#utility.yul\":131:353   */\n              swap3\n              swap2\n              pop\n              pop\n              jump\t// out\n                /* \"#utility.yul\":359:436   */\n            tag_21:\n                /* \"#utility.yul\":396:403   */\n              0x00\n                /* \"#utility.yul\":425:430   */\n              dup2\n                /* \"#utility.yul\":414:430   */\n              swap1\n              pop\n                /* \"#utility.yul\":359:436   */\n              swap2\n              swap1\n              pop\n              jump\t// out\n\n            auxdata: 0xa2646970667358221220f6ac1829cc8d360bdbb6fbec2fd115db84d7cb039bd53cf6ff726252715b544e64736f6c63430008070033\n        }\n    }\n\n    auxdata: 0xa2646970667358221220faf9dc52f8e7428026ab08baf8d765b665c99df23d36b020cc47856a037fef3b64736f6c63430008070033\n}\n",
				"bytecode": {
					"linkReferences": {},
					"object": "608060405234801561001057600080fd5b506103f3806100206000396000f3fe6080604052600436106100295760003560e01c806393d4e9a21461002e578063d01bb4d51461004a575b600080fd5b61004860048036038101906100439190610136565b610075565b005b34801561005657600080fd5b5061005f6100ee565b60405161006c9190610181565b60405180910390f35b80600560405161008490610114565b61008e919061019c565b6040518091039082f09050801580156100ab573d6000803e3d6000fd5b506000806101000a81548173ffffffffffffffffffffffffffffffffffffffff021916908373ffffffffffffffffffffffffffffffffffffffff16021790555050565b600160009054906101000a900473ffffffffffffffffffffffffffffffffffffffff1681565b61019c8061022283390190565b6000813590506101308161020a565b92915050565b60006020828403121561014c5761014b610205565b5b600061015a84828501610121565b91505092915050565b61016c816101b7565b82525050565b61017b816101f3565b82525050565b60006020820190506101966000830184610163565b92915050565b60006020820190506101b16000830184610172565b92915050565b60006101c2826101c9565b9050919050565b600073ffffffffffffffffffffffffffffffffffffffff82169050919050565b6000819050919050565b60006101fe826101e9565b9050919050565b600080fd5b610213816101e9565b811461021e57600080fd5b5056fe608060405260405161019c38038061019c83398181016040528101906100259190610047565b806000819055505061009a565b60008151905061004181610083565b92915050565b60006020828403121561005d5761005c61007e565b5b600061006b84828501610032565b91505092915050565b6000819050919050565b600080fd5b61008c81610074565b811461009757600080fd5b50565b60f4806100a86000396000f3fe60806040526004361060295760003560e01c80630dbe671f14603457806312065fe014605a57602f565b36602f57005b600080fd5b348015603f57600080fd5b5060466080565b60405160519190609b565b60405180910390f35b348015606557600080fd5b50606c6086565b60405160779190609b565b60405180910390f35b60005481565b600047905090565b60958160b4565b82525050565b600060208201905060ae6000830184608e565b92915050565b600081905091905056fea2646970667358221220f6ac1829cc8d360bdbb6fbec2fd115db84d7cb039bd53cf6ff726252715b544e64736f6c63430008070033a2646970667358221220faf9dc52f8e7428026ab08baf8d765b665c99df23d36b020cc47856a037fef3b64736f6c63430008070033",
					"opcodes": "PUSH1 0x80 PUSH1 0x40 MSTORE CALLVALUE DUP1 ISZERO PUSH2 0x10 JUMPI PUSH1 0x0 DUP1 REVERT JUMPDEST POP PUSH2 0x3F3 DUP1 PUSH2 0x20 PUSH1 0x0 CODECOPY PUSH1 0x0 RETURN INVALID PUSH1 0x80 PUSH1 0x40 MSTORE PUSH1 0x4 CALLDATASIZE LT PUSH2 0x29 JUMPI PUSH1 0x0 CALLDATALOAD PUSH1 0xE0 SHR DUP1 PUSH4 0x93D4E9A2 EQ PUSH2 0x2E JUMPI DUP1 PUSH4 0xD01BB4D5 EQ PUSH2 0x4A JUMPI JUMPDEST PUSH1 0x0 DUP1 REVERT JUMPDEST PUSH2 0x48 PUSH1 0x4 DUP1 CALLDATASIZE SUB DUP2 ADD SWAP1 PUSH2 0x43 SWAP2 SWAP1 PUSH2 0x136 JUMP JUMPDEST PUSH2 0x75 JUMP JUMPDEST STOP JUMPDEST CALLVALUE DUP1 ISZERO PUSH2 0x56 JUMPI PUSH1 0x0 DUP1 REVERT JUMPDEST POP PUSH2 0x5F PUSH2 0xEE JUMP JUMPDEST PUSH1 0x40 MLOAD PUSH2 0x6C SWAP2 SWAP1 PUSH2 0x181 JUMP JUMPDEST PUSH1 0x40 MLOAD DUP1 SWAP2 SUB SWAP1 RETURN JUMPDEST DUP1 PUSH1 0x5 PUSH1 0x40 MLOAD PUSH2 0x84 SWAP1 PUSH2 0x114 JUMP JUMPDEST PUSH2 0x8E SWAP2 SWAP1 PUSH2 0x19C JUMP JUMPDEST PUSH1 0x40 MLOAD DUP1 SWAP2 SUB SWAP1 DUP3 CREATE SWAP1 POP DUP1 ISZERO DUP1 ISZERO PUSH2 0xAB JUMPI RETURNDATASIZE PUSH1 0x0 DUP1 RETURNDATACOPY RETURNDATASIZE PUSH1 0x0 REVERT JUMPDEST POP PUSH1 0x0 DUP1 PUSH2 0x100 EXP DUP2 SLOAD DUP2 PUSH20 0xFFFFFFFFFFFFFFFFFFFFFFFFFFFFFFFFFFFFFFFF MUL NOT AND SWAP1 DUP4 PUSH20 0xFFFFFFFFFFFFFFFFFFFFFFFFFFFFFFFFFFFFFFFF AND MUL OR SWAP1 SSTORE POP POP JUMP JUMPDEST PUSH1 0x1 PUSH1 0x0 SWAP1 SLOAD SWAP1 PUSH2 0x100 EXP SWAP1 DIV PUSH20 0xFFFFFFFFFFFFFFFFFFFFFFFFFFFFFFFFFFFFFFFF AND DUP2 JUMP JUMPDEST PUSH2 0x19C DUP1 PUSH2 0x222 DUP4 CODECOPY ADD SWAP1 JUMP JUMPDEST PUSH1 0x0 DUP2 CALLDATALOAD SWAP1 POP PUSH2 0x130 DUP2 PUSH2 0x20A JUMP JUMPDEST SWAP3 SWAP2 POP POP JUMP JUMPDEST PUSH1 0x0 PUSH1 0x20 DUP3 DUP5 SUB SLT ISZERO PUSH2 0x14C JUMPI PUSH2 0x14B PUSH2 0x205 JUMP JUMPDEST JUMPDEST PUSH1 0x0 PUSH2 0x15A DUP5 DUP3 DUP6 ADD PUSH2 0x121 JUMP JUMPDEST SWAP2 POP POP SWAP3 SWAP2 POP POP JUMP JUMPDEST PUSH2 0x16C DUP2 PUSH2 0x1B7 JUMP JUMPDEST DUP3 MSTORE POP POP JUMP JUMPDEST PUSH2 0x17B DUP2 PUSH2 0x1F3 JUMP JUMPDEST DUP3 MSTORE POP POP JUMP JUMPDEST PUSH1 0x0 PUSH1 0x20 DUP3 ADD SWAP1 POP PUSH2 0x196 PUSH1 0x0 DUP4 ADD DUP5 PUSH2 0x163 JUMP JUMPDEST SWAP3 SWAP2 POP POP JUMP JUMPDEST PUSH1 0x0 PUSH1 0x20 DUP3 ADD SWAP1 POP PUSH2 0x1B1 PUSH1 0x0 DUP4 ADD DUP5 PUSH2 0x172 JUMP JUMPDEST SWAP3 SWAP2 POP POP JUMP JUMPDEST PUSH1 0x0 PUSH2 0x1C2 DUP3 PUSH2 0x1C9 JUMP JUMPDEST SWAP1 POP SWAP2 SWAP1 POP JUMP JUMPDEST PUSH1 0x0 PUSH20 0xFFFFFFFFFFFFFFFFFFFFFFFFFFFFFFFFFFFFFFFF DUP3 AND SWAP1 POP SWAP2 SWAP1 POP JUMP JUMPDEST PUSH1 0x0 DUP2 SWAP1 POP SWAP2 SWAP1 POP JUMP JUMPDEST PUSH1 0x0 PUSH2 0x1FE DUP3 PUSH2 0x1E9 JUMP JUMPDEST SWAP1 POP SWAP2 SWAP1 POP JUMP JUMPDEST PUSH1 0x0 DUP1 REVERT JUMPDEST PUSH2 0x213 DUP2 PUSH2 0x1E9 JUMP JUMPDEST DUP2 EQ PUSH2 0x21E JUMPI PUSH1 0x0 DUP1 REVERT JUMPDEST POP JUMP INVALID PUSH1 0x80 PUSH1 0x40 MSTORE PUSH1 0x40 MLOAD PUSH2 0x19C CODESIZE SUB DUP1 PUSH2 0x19C DUP4 CODECOPY DUP2 DUP2 ADD PUSH1 0x40 MSTORE DUP2 ADD SWAP1 PUSH2 0x25 SWAP2 SWAP1 PUSH2 0x47 JUMP JUMPDEST DUP1 PUSH1 0x0 DUP2 SWAP1 SSTORE POP POP PUSH2 0x9A JUMP JUMPDEST PUSH1 0x0 DUP2 MLOAD SWAP1 POP PUSH2 0x41 DUP2 PUSH2 0x83 JUMP JUMPDEST SWAP3 SWAP2 POP POP JUMP JUMPDEST PUSH1 0x0 PUSH1 0x20 DUP3 DUP5 SUB SLT ISZERO PUSH2 0x5D JUMPI PUSH2 0x5C PUSH2 0x7E JUMP JUMPDEST JUMPDEST PUSH1 0x0 PUSH2 0x6B DUP5 DUP3 DUP6 ADD PUSH2 0x32 JUMP JUMPDEST SWAP2 POP POP SWAP3 SWAP2 POP POP JUMP JUMPDEST PUSH1 0x0 DUP2 SWAP1 POP SWAP2 SWAP1 POP JUMP JUMPDEST PUSH1 0x0 DUP1 REVERT JUMPDEST PUSH2 0x8C DUP2 PUSH2 0x74 JUMP JUMPDEST DUP2 EQ PUSH2 0x97 JUMPI PUSH1 0x0 DUP1 REVERT JUMPDEST POP JUMP JUMPDEST PUSH1 0xF4 DUP1 PUSH2 0xA8 PUSH1 0x0 CODECOPY PUSH1 0x0 RETURN INVALID PUSH1 0x80 PUSH1 0x40 MSTORE PUSH1 0x4 CALLDATASIZE LT PUSH1 0x29 JUMPI PUSH1 0x0 CALLDATALOAD PUSH1 0xE0 SHR DUP1 PUSH4 0xDBE671F EQ PUSH1 0x34 JUMPI DUP1 PUSH4 0x12065FE0 EQ PUSH1 0x5A JUMPI PUSH1 0x2F JUMP JUMPDEST CALLDATASIZE PUSH1 0x2F JUMPI STOP JUMPDEST PUSH1 0x0 DUP1 REVERT JUMPDEST CALLVALUE DUP1 ISZERO PUSH1 0x3F JUMPI PUSH1 0x0 DUP1 REVERT JUMPDEST POP PUSH1 0x46 PUSH1 0x80 JUMP JUMPDEST PUSH1 0x40 MLOAD PUSH1 0x51 SWAP2 SWAP1 PUSH1 0x9B JUMP JUMPDEST PUSH1 0x40 MLOAD DUP1 SWAP2 SUB SWAP1 RETURN JUMPDEST CALLVALUE DUP1 ISZERO PUSH1 0x65 JUMPI PUSH1 0x0 DUP1 REVERT JUMPDEST POP PUSH1 0x6C PUSH1 0x86 JUMP JUMPDEST PUSH1 0x40 MLOAD PUSH1 0x77 SWAP2 SWAP1 PUSH1 0x9B JUMP JUMPDEST PUSH1 0x40 MLOAD DUP1 SWAP2 SUB SWAP1 RETURN JUMPDEST PUSH1 0x0 SLOAD DUP2 JUMP JUMPDEST PUSH1 0x0 SELFBALANCE SWAP1 POP SWAP1 JUMP JUMPDEST PUSH1 0x95 DUP2 PUSH1 0xB4 JUMP JUMPDEST DUP3 MSTORE POP POP JUMP JUMPDEST PUSH1 0x0 PUSH1 0x20 DUP3 ADD SWAP1 POP PUSH1 0xAE PUSH1 0x0 DUP4 ADD DUP5 PUSH1 0x8E JUMP JUMPDEST SWAP3 SWAP2 POP POP JUMP JUMPDEST PUSH1 0x0 DUP2 SWAP1 POP SWAP2 SWAP1 POP JUMP INVALID LOG2 PUSH5 0x6970667358 0x22 SLT KECCAK256 0xF6 0xAC XOR 0x29 0xCC DUP14 CALLDATASIZE SIGNEXTEND 0xDB 0xB6 0xFB 0xEC 0x2F 0xD1 ISZERO 0xDB DUP5 0xD7 0xCB SUB SWAP12 0xD5 EXTCODECOPY 0xF6 SELFDESTRUCT PUSH19 0x6252715B544E64736F6C63430008070033A264 PUSH10 0x70667358221220FAF9DC MSTORE 0xF8 0xE7 TIMESTAMP DUP1 0x26 0xAB ADDMOD 0xBA 0xF8 0xD7 PUSH6 0xB665C99DF23D CALLDATASIZE 0xB0 KECCAK256 0xCC SELFBALANCE DUP6 PUSH11 0x37FEF3B64736F6C634300 ADDMOD SMOD STOP CALLER "
				},
				"gasEstimates": {
					"creation": {
						"codeDepositCost": "202200",
						"executionCost": "245",
						"totalCost": "202445"
					},
					"external": {
						"contractaddr()": "2514",
						"createContractObj(uint256)": "infinite"
					}
				},
				"methodIdentifiers": {
					"contractaddr()": "d01bb4d5",
					"createContractObj(uint256)": "93d4e9a2"
				}
			},
			"storageLayout": {
				"storage": [
					{
						"astId": 33,
						"contract": "study/chapter04/newContract.sol:callContract",
						"label": "t",
						"offset": 0,
						"slot": "0",
						"type": "t_contract(testContract)30"
					},
					{
						"astId": 35,
						"contract": "study/chapter04/newContract.sol:callContract",
						"label": "contractaddr",
						"offset": 0,
						"slot": "1",
						"type": "t_address"
					}
				],
				"types": {
					"t_address": {
						"encoding": "inplace",
						"label": "address",
						"numberOfBytes": "20"
					},
					"t_contract(testContract)30": {
						"encoding": "inplace",
						"label": "contract testContract",
						"numberOfBytes": "20"
					}
				}
			},
			"userdoc": {
				"kind": "user",
				"methods": {},
				"version": 1
			}
		}
	}
}