{
	"study/chapter04/newContract.sol": {
		"callContract": {
			"abi": [
				{
					"inputs": [],
					"name": "by",
					"outputs": [
						{
							"internalType": "bytes",
							"name": "",
							"type": "bytes"
						}
					],
					"stateMutability": "view",
					"type": "function"
				},
				{
					"inputs": [],
					"name": "contractName",
					"outputs": [
						{
							"internalType": "string",
							"name": "",
							"type": "string"
						}
					],
					"stateMutability": "view",
					"type": "function"
				},
				{
					"inputs": [],
					"name": "contractaddr",
					"outputs": [
						{
							"internalType": "address",
							"name": "",
							"type": "address"
						}
					],
					"stateMutability": "view",
					"type": "function"
				},
				{
					"inputs": [
						{
							"internalType": "uint256",
							"name": "amount",
							"type": "uint256"
						}
					],
					"name": "createContractObj",
					"outputs": [],
					"stateMutability": "payable",
					"type": "function"
				},
				{
					"inputs": [],
					"name": "getA",
					"outputs": [
						{
							"internalType": "uint256",
							"name": "",
							"type": "uint256"
						}
					],
					"stateMutability": "view",
					"type": "function"
				},
				{
					"inputs": [],
					"name": "getBalance",
					"outputs": [
						{
							"internalType": "uint256",
							"name": "",
							"type": "uint256"
						}
					],
					"stateMutability": "view",
					"type": "function"
				},
				{
					"inputs": [],
					"name": "initParams",
					"outputs": [],
					"stateMutability": "nonpayable",
					"type": "function"
				},
				{
					"inputs": [
						{
							"internalType": "uint256",
							"name": "_a",
							"type": "uint256"
						}
					],
					"name": "setA",
					"outputs": [],
					"stateMutability": "nonpayable",
					"type": "function"
				},
				{
					"inputs": [],
					"name": "str1",
					"outputs": [
						{
							"internalType": "string",
							"name": "",
							"type": "string"
						}
					],
					"stateMutability": "view",
					"type": "function"
				}
			],
			"devdoc": {
				"kind": "dev",
				"methods": {},
				"version": 1
			},
			"evm": {
				"assembly": "    /* \"study/chapter04/newContract.sol\":417:1374  contract callContract{... */\n  mstore(0x40, 0x80)\n  callvalue\n  dup1\n  iszero\n  tag_1\n  jumpi\n  0x00\n  dup1\n  revert\ntag_1:\n  pop\n  dataSize(sub_0)\n  dup1\n  dataOffset(sub_0)\n  0x00\n  codecopy\n  0x00\n  return\nstop\n\nsub_0: assembly {\n        /* \"study/chapter04/newContract.sol\":417:1374  contract callContract{... */\n      mstore(0x40, 0x80)\n      jumpi(tag_1, lt(calldatasize, 0x04))\n      shr(0xe0, calldataload(0x00))\n      dup1\n      0xd01bb4d5\n      gt\n      tag_11\n      jumpi\n      dup1\n      0xd01bb4d5\n      eq\n      tag_6\n      jumpi\n      dup1\n      0xd118d187\n      eq\n      tag_7\n      jumpi\n      dup1\n      0xd46300fd\n      eq\n      tag_8\n      jumpi\n      dup1\n      0xee919d50\n      eq\n      tag_9\n      jumpi\n      dup1\n      0xfb0c8628\n      eq\n      tag_10\n      jumpi\n      jump(tag_1)\n    tag_11:\n      dup1\n      0x12065fe0\n      eq\n      tag_2\n      jumpi\n      dup1\n      0x75d0c0dc\n      eq\n      tag_3\n      jumpi\n      dup1\n      0x7c000138\n      eq\n      tag_4\n      jumpi\n      dup1\n      0x93d4e9a2\n      eq\n      tag_5\n      jumpi\n    tag_1:\n      0x00\n      dup1\n      revert\n        /* \"study/chapter04/newContract.sol\":1275:1368  function getBalance()external view returns(uint){... */\n    tag_2:\n      callvalue\n      dup1\n      iszero\n      tag_12\n      jumpi\n      0x00\n      dup1\n      revert\n    tag_12:\n      pop\n      tag_13\n      tag_14\n      jump\t// in\n    tag_13:\n      mload(0x40)\n      tag_15\n      swap2\n      swap1\n      tag_16\n      jump\t// in\n    tag_15:\n      mload(0x40)\n      dup1\n      swap2\n      sub\n      swap1\n      return\n        /* \"study/chapter04/newContract.sol\":595:621  string public contractName */\n    tag_3:\n      callvalue\n      dup1\n      iszero\n      tag_17\n      jumpi\n      0x00\n      dup1\n      revert\n    tag_17:\n      pop\n      tag_18\n      tag_19\n      jump\t// in\n    tag_18:\n      mload(0x40)\n      tag_20\n      swap2\n      swap1\n      tag_21\n      jump\t// in\n    tag_20:\n      mload(0x40)\n      dup1\n      swap2\n      sub\n      swap1\n      return\n        /* \"study/chapter04/newContract.sol\":733:748  bytes public by */\n    tag_4:\n      callvalue\n      dup1\n      iszero\n      tag_22\n      jumpi\n      0x00\n      dup1\n      revert\n    tag_22:\n      pop\n      tag_23\n      tag_24\n      jump\t// in\n    tag_23:\n      mload(0x40)\n      tag_25\n      swap2\n      swap1\n      tag_26\n      jump\t// in\n    tag_25:\n      mload(0x40)\n      dup1\n      swap2\n      sub\n      swap1\n      return\n        /* \"study/chapter04/newContract.sol\":754:869  function createContractObj(uint amount)public payable{... */\n    tag_5:\n      tag_27\n      0x04\n      dup1\n      calldatasize\n      sub\n      dup2\n      add\n      swap1\n      tag_28\n      swap2\n      swap1\n      tag_29\n      jump\t// in\n    tag_28:\n      tag_30\n      jump\t// in\n    tag_27:\n      stop\n        /* \"study/chapter04/newContract.sol\":548:575  address public contractaddr */\n    tag_6:\n      callvalue\n      dup1\n      iszero\n      tag_31\n      jumpi\n      0x00\n      dup1\n      revert\n    tag_31:\n      pop\n      tag_32\n      tag_33\n      jump\t// in\n    tag_32:\n      mload(0x40)\n      tag_34\n      swap2\n      swap1\n      tag_35\n      jump\t// in\n    tag_34:\n      mload(0x40)\n      dup1\n      swap2\n      sub\n      swap1\n      return\n        /* \"study/chapter04/newContract.sol\":709:727  string public str1 */\n    tag_7:\n      callvalue\n      dup1\n      iszero\n      tag_36\n      jumpi\n      0x00\n      dup1\n      revert\n    tag_36:\n      pop\n      tag_37\n      tag_38\n      jump\t// in\n    tag_37:\n      mload(0x40)\n      tag_39\n      swap2\n      swap1\n      tag_21\n      jump\t// in\n    tag_39:\n      mload(0x40)\n      dup1\n      swap2\n      sub\n      swap1\n      return\n        /* \"study/chapter04/newContract.sol\":1145:1270  function getA()external view returns(uint){... */\n    tag_8:\n      callvalue\n      dup1\n      iszero\n      tag_40\n      jumpi\n      0x00\n      dup1\n      revert\n    tag_40:\n      pop\n      tag_41\n      tag_42\n      jump\t// in\n    tag_41:\n      mload(0x40)\n      tag_43\n      swap2\n      swap1\n      tag_16\n      jump\t// in\n    tag_43:\n      mload(0x40)\n      dup1\n      swap2\n      sub\n      swap1\n      return\n        /* \"study/chapter04/newContract.sol\":1082:1140  function setA(uint _a)external {... */\n    tag_9:\n      callvalue\n      dup1\n      iszero\n      tag_44\n      jumpi\n      0x00\n      dup1\n      revert\n    tag_44:\n      pop\n      tag_45\n      0x04\n      dup1\n      calldatasize\n      sub\n      dup2\n      add\n      swap1\n      tag_46\n      swap2\n      swap1\n      tag_29\n      jump\t// in\n    tag_46:\n      tag_47\n      jump\t// in\n    tag_45:\n      stop\n        /* \"study/chapter04/newContract.sol\":875:1077  function initParams()external {... */\n    tag_10:\n      callvalue\n      dup1\n      iszero\n      tag_48\n      jumpi\n      0x00\n      dup1\n      revert\n    tag_48:\n      pop\n      tag_49\n      tag_50\n      jump\t// in\n    tag_49:\n      stop\n        /* \"study/chapter04/newContract.sol\":1275:1368  function getBalance()external view returns(uint){... */\n    tag_14:\n        /* \"study/chapter04/newContract.sol\":1318:1322  uint */\n      0x00\n        /* \"study/chapter04/newContract.sol\":1340:1361  address(this).balance */\n      selfbalance\n        /* \"study/chapter04/newContract.sol\":1333:1361  return address(this).balance */\n      swap1\n      pop\n        /* \"study/chapter04/newContract.sol\":1275:1368  function getBalance()external view returns(uint){... */\n      swap1\n      jump\t// out\n        /* \"study/chapter04/newContract.sol\":595:621  string public contractName */\n    tag_19:\n      0x02\n      dup1\n      sload\n      tag_52\n      swap1\n      tag_53\n      jump\t// in\n    tag_52:\n      dup1\n      0x1f\n      add\n      0x20\n      dup1\n      swap2\n      div\n      mul\n      0x20\n      add\n      mload(0x40)\n      swap1\n      dup2\n      add\n      0x40\n      mstore\n      dup1\n      swap3\n      swap2\n      swap1\n      dup2\n      dup2\n      mstore\n      0x20\n      add\n      dup3\n      dup1\n      sload\n      tag_54\n      swap1\n      tag_53\n      jump\t// in\n    tag_54:\n      dup1\n      iszero\n      tag_55\n      jumpi\n      dup1\n      0x1f\n      lt\n      tag_56\n      jumpi\n      0x0100\n      dup1\n      dup4\n      sload\n      div\n      mul\n      dup4\n      mstore\n      swap2\n      0x20\n      add\n      swap2\n      jump(tag_55)\n    tag_56:\n      dup3\n      add\n      swap2\n      swap1\n      0x00\n      mstore\n      keccak256(0x00, 0x20)\n      swap1\n    tag_57:\n      dup2\n      sload\n      dup2\n      mstore\n      swap1\n      0x01\n      add\n      swap1\n      0x20\n      add\n      dup1\n      dup4\n      gt\n      tag_57\n      jumpi\n      dup3\n      swap1\n      sub\n      0x1f\n      and\n      dup3\n      add\n      swap2\n    tag_55:\n      pop\n      pop\n      pop\n      pop\n      pop\n      dup2\n      jump\t// out\n        /* \"study/chapter04/newContract.sol\":733:748  bytes public by */\n    tag_24:\n      0x04\n      dup1\n      sload\n      tag_58\n      swap1\n      tag_53\n      jump\t// in\n    tag_58:\n      dup1\n      0x1f\n      add\n      0x20\n      dup1\n      swap2\n      div\n      mul\n      0x20\n      add\n      mload(0x40)\n      swap1\n      dup2\n      add\n      0x40\n      mstore\n      dup1\n      swap3\n      swap2\n      swap1\n      dup2\n      dup2\n      mstore\n      0x20\n      add\n      dup3\n      dup1\n      sload\n      tag_59\n      swap1\n      tag_53\n      jump\t// in\n    tag_59:\n      dup1\n      iszero\n      tag_60\n      jumpi\n      dup1\n      0x1f\n      lt\n      tag_61\n      jumpi\n      0x0100\n      dup1\n      dup4\n      sload\n      div\n      mul\n      dup4\n      mstore\n      swap2\n      0x20\n      add\n      swap2\n      jump(tag_60)\n    tag_61:\n      dup3\n      add\n      swap2\n      swap1\n      0x00\n      mstore\n      keccak256(0x00, 0x20)\n      swap1\n    tag_62:\n      dup2\n      sload\n      dup2\n      mstore\n      swap1\n      0x01\n      add\n      swap1\n      0x20\n      add\n      dup1\n      dup4\n      gt\n      tag_62\n      jumpi\n      dup3\n      swap1\n      sub\n      0x1f\n      and\n      dup3\n      add\n      swap2\n    tag_60:\n      pop\n      pop\n      pop\n      pop\n      pop\n      dup2\n      jump\t// out\n        /* \"study/chapter04/newContract.sol\":754:869  function createContractObj(uint amount)public payable{... */\n    tag_30:\n        /* \"study/chapter04/newContract.sol\":844:850  amount */\n      dup1\n        /* \"study/chapter04/newContract.sol\":852:853  5 */\n      0x05\n        /* \"study/chapter04/newContract.sol\":821:854  new testContract{value:amount}(5) */\n      mload(0x40)\n      tag_64\n      swap1\n      tag_65\n      jump\t// in\n    tag_64:\n      tag_66\n      swap2\n      swap1\n      tag_67\n      jump\t// in\n    tag_66:\n      mload(0x40)\n      dup1\n      swap2\n      sub\n      swap1\n      dup3\n      create\n      swap1\n      pop\n      dup1\n      iszero\n      dup1\n      iszero\n      tag_68\n      jumpi\n      returndatasize\n      0x00\n      dup1\n      returndatacopy\n      revert(0x00, returndatasize)\n    tag_68:\n      pop\n        /* \"study/chapter04/newContract.sol\":817:818  t */\n      0x00\n      dup1\n        /* \"study/chapter04/newContract.sol\":817:854  t = new testContract{value:amount}(5) */\n      0x0100\n      exp\n      dup2\n      sload\n      dup2\n      0xffffffffffffffffffffffffffffffffffffffff\n      mul\n      not\n      and\n      swap1\n      dup4\n      0xffffffffffffffffffffffffffffffffffffffff\n      and\n      mul\n      or\n      swap1\n      sstore\n      pop\n        /* \"study/chapter04/newContract.sol\":754:869  function createContractObj(uint amount)public payable{... */\n      pop\n      jump\t// out\n        /* \"study/chapter04/newContract.sol\":548:575  address public contractaddr */\n    tag_33:\n      0x01\n      0x00\n      swap1\n      sload\n      swap1\n      0x0100\n      exp\n      swap1\n      div\n      0xffffffffffffffffffffffffffffffffffffffff\n      and\n      dup2\n      jump\t// out\n        /* \"study/chapter04/newContract.sol\":709:727  string public str1 */\n    tag_38:\n      0x03\n      dup1\n      sload\n      tag_69\n      swap1\n      tag_53\n      jump\t// in\n    tag_69:\n      dup1\n      0x1f\n      add\n      0x20\n      dup1\n      swap2\n      div\n      mul\n      0x20\n      add\n      mload(0x40)\n      swap1\n      dup2\n      add\n      0x40\n      mstore\n      dup1\n      swap3\n      swap2\n      swap1\n      dup2\n      dup2\n      mstore\n      0x20\n      add\n      dup3\n      dup1\n      sload\n      tag_70\n      swap1\n      tag_53\n      jump\t// in\n    tag_70:\n      dup1\n      iszero\n      tag_71\n      jumpi\n      dup1\n      0x1f\n      lt\n      tag_72\n      jumpi\n      0x0100\n      dup1\n      dup4\n      sload\n      div\n      mul\n      dup4\n      mstore\n      swap2\n      0x20\n      add\n      swap2\n      jump(tag_71)\n    tag_72:\n      dup3\n      add\n      swap2\n      swap1\n      0x00\n      mstore\n      keccak256(0x00, 0x20)\n      swap1\n    tag_73:\n      dup2\n      sload\n      dup2\n      mstore\n      swap1\n      0x01\n      add\n      swap1\n      0x20\n      add\n      dup1\n      dup4\n      gt\n      tag_73\n      jumpi\n      dup3\n      swap1\n      sub\n      0x1f\n      and\n      dup3\n      add\n      swap2\n    tag_71:\n      pop\n      pop\n      pop\n      pop\n      pop\n      dup2\n      jump\t// out\n        /* \"study/chapter04/newContract.sol\":1145:1270  function getA()external view returns(uint){... */\n    tag_42:\n        /* \"study/chapter04/newContract.sol\":1182:1186  uint */\n      0x00\n        /* \"study/chapter04/newContract.sol\":1204:1205  t */\n      dup1\n      0x00\n      swap1\n      sload\n      swap1\n      0x0100\n      exp\n      swap1\n      div\n      0xffffffffffffffffffffffffffffffffffffffff\n      and\n        /* \"study/chapter04/newContract.sol\":1204:1207  t.a */\n      0xffffffffffffffffffffffffffffffffffffffff\n      and\n      0x0dbe671f\n        /* \"study/chapter04/newContract.sol\":1204:1209  t.a() */\n      mload(0x40)\n      dup2\n      0xffffffff\n      and\n      0xe0\n      shl\n      dup2\n      mstore\n      0x04\n      add\n      0x20\n      mload(0x40)\n      dup1\n      dup4\n      sub\n      dup2\n      dup7\n      gas\n      staticcall\n      iszero\n      dup1\n      iszero\n      tag_76\n      jumpi\n      returndatasize\n      0x00\n      dup1\n      returndatacopy\n      revert(0x00, returndatasize)\n    tag_76:\n      pop\n      pop\n      pop\n      pop\n      mload(0x40)\n      returndatasize\n      not(0x1f)\n      0x1f\n      dup3\n      add\n      and\n      dup3\n      add\n      dup1\n      0x40\n      mstore\n      pop\n      dup2\n      add\n      swap1\n      tag_77\n      swap2\n      swap1\n      tag_78\n      jump\t// in\n    tag_77:\n        /* \"study/chapter04/newContract.sol\":1197:1209  return t.a() */\n      swap1\n      pop\n        /* \"study/chapter04/newContract.sol\":1145:1270  function getA()external view returns(uint){... */\n      swap1\n      jump\t// out\n        /* \"study/chapter04/newContract.sol\":1082:1140  function setA(uint _a)external {... */\n    tag_47:\n        /* \"study/chapter04/newContract.sol\":1123:1124  t */\n      0x00\n      dup1\n      sload\n      swap1\n      0x0100\n      exp\n      swap1\n      div\n      0xffffffffffffffffffffffffffffffffffffffff\n      and\n        /* \"study/chapter04/newContract.sol\":1123:1129  t.setA */\n      0xffffffffffffffffffffffffffffffffffffffff\n      and\n      0xee919d50\n        /* \"study/chapter04/newContract.sol\":1130:1132  _a */\n      dup3\n        /* \"study/chapter04/newContract.sol\":1123:1133  t.setA(_a) */\n      mload(0x40)\n      dup3\n      0xffffffff\n      and\n      0xe0\n      shl\n      dup2\n      mstore\n      0x04\n      add\n      tag_80\n      swap2\n      swap1\n      tag_16\n      jump\t// in\n    tag_80:\n      0x00\n      mload(0x40)\n      dup1\n      dup4\n      sub\n      dup2\n      0x00\n      dup8\n      dup1\n      extcodesize\n      iszero\n      dup1\n      iszero\n      tag_81\n      jumpi\n      0x00\n      dup1\n      revert\n    tag_81:\n      pop\n      gas\n      call\n      iszero\n      dup1\n      iszero\n      tag_83\n      jumpi\n      returndatasize\n      0x00\n      dup1\n      returndatacopy\n      revert(0x00, returndatasize)\n    tag_83:\n      pop\n      pop\n      pop\n      pop\n        /* \"study/chapter04/newContract.sol\":1082:1140  function setA(uint _a)external {... */\n      pop\n      jump\t// out\n        /* \"study/chapter04/newContract.sol\":875:1077  function initParams()external {... */\n    tag_50:\n        /* \"study/chapter04/newContract.sol\":937:938  t */\n      0x00\n      dup1\n      sload\n      swap1\n      0x0100\n      exp\n      swap1\n      div\n      0xffffffffffffffffffffffffffffffffffffffff\n      and\n        /* \"study/chapter04/newContract.sol\":915:927  contractaddr */\n      0x01\n      0x00\n        /* \"study/chapter04/newContract.sol\":915:939  contractaddr =address(t) */\n      0x0100\n      exp\n      dup2\n      sload\n      dup2\n      0xffffffffffffffffffffffffffffffffffffffff\n      mul\n      not\n      and\n      swap1\n      dup4\n      0xffffffffffffffffffffffffffffffffffffffff\n      and\n      mul\n      or\n      swap1\n      sstore\n      pop\n        /* \"study/chapter04/newContract.sol\":965:966  t */\n      0x00\n      dup1\n      sload\n      swap1\n      0x0100\n      exp\n      swap1\n      div\n      0xffffffffffffffffffffffffffffffffffffffff\n      and\n        /* \"study/chapter04/newContract.sol\":965:982  t.getContractName */\n      0xffffffffffffffffffffffffffffffffffffffff\n      and\n      0xf5f5ba72\n        /* \"study/chapter04/newContract.sol\":965:984  t.getContractName() */\n      mload(0x40)\n      dup2\n      0xffffffff\n      and\n      0xe0\n      shl\n      dup2\n      mstore\n      0x04\n      add\n      0x00\n      mload(0x40)\n      dup1\n      dup4\n      sub\n      dup2\n      dup7\n      gas\n      staticcall\n      iszero\n      dup1\n      iszero\n      tag_86\n      jumpi\n      returndatasize\n      0x00\n      dup1\n      returndatacopy\n      revert(0x00, returndatasize)\n    tag_86:\n      pop\n      pop\n      pop\n      pop\n      mload(0x40)\n      returndatasize\n      0x00\n      dup3\n      returndatacopy\n      returndatasize\n      not(0x1f)\n      0x1f\n      dup3\n      add\n      and\n      dup3\n      add\n      dup1\n      0x40\n      mstore\n      pop\n      dup2\n      add\n      swap1\n      tag_87\n      swap2\n      swap1\n      tag_88\n      jump\t// in\n    tag_87:\n        /* \"study/chapter04/newContract.sol\":950:962  contractName */\n      0x02\n        /* \"study/chapter04/newContract.sol\":950:984  contractName = t.getContractName() */\n      swap1\n      dup2\n      tag_89\n      swap2\n      swap1\n      tag_90\n      jump\t// in\n    tag_89:\n      pop\n        /* \"study/chapter04/newContract.sol\":1001:1024  type(testContract).name */\n      mload(0x40)\n      dup1\n      0x40\n      add\n      0x40\n      mstore\n      0x0c\n      dup2\n      mstore\n      dup1\n      0x20\n      add\n      0x74657374436f6e74726163740000000000000000000000000000000000000000\n      dup2\n      mstore\n      pop\n        /* \"study/chapter04/newContract.sol\":994:998  str1 */\n      0x03\n        /* \"study/chapter04/newContract.sol\":994:1024  str1 = type(testContract).name */\n      swap1\n      dup2\n      tag_91\n      swap2\n      swap1\n      tag_90\n      jump\t// in\n    tag_91:\n      pop\n        /* \"study/chapter04/newContract.sol\":1039:1070  type(testContract).creationCode */\n      mload(0x40)\n      dup1\n      0x20\n      add\n      tag_92\n      swap1\n      tag_65\n      jump\t// in\n    tag_92:\n      0x20\n      dup3\n      add\n      dup2\n      sub\n      dup3\n      mstore\n      not(0x1f)\n      0x1f\n      dup3\n      add\n      and\n      0x40\n      mstore\n      pop\n        /* \"study/chapter04/newContract.sol\":1034:1036  by */\n      0x04\n        /* \"study/chapter04/newContract.sol\":1034:1070  by = type(testContract).creationCode */\n      swap1\n      dup2\n      tag_93\n      swap2\n      swap1\n      tag_94\n      jump\t// in\n    tag_93:\n      pop\n        /* \"study/chapter04/newContract.sol\":875:1077  function initParams()external {... */\n      jump\t// out\n    tag_65:\n      dataSize(sub_0)\n      dup1\n      dataOffset(sub_0)\n      dup4\n      codecopy\n      add\n      swap1\n      jump\t// out\n        /* \"#utility.yul\":7:84   */\n    tag_95:\n        /* \"#utility.yul\":44:51   */\n      0x00\n        /* \"#utility.yul\":73:78   */\n      dup2\n        /* \"#utility.yul\":62:78   */\n      swap1\n      pop\n        /* \"#utility.yul\":7:84   */\n      swap2\n      swap1\n      pop\n      jump\t// out\n        /* \"#utility.yul\":90:208   */\n    tag_96:\n        /* \"#utility.yul\":177:201   */\n      tag_146\n        /* \"#utility.yul\":195:200   */\n      dup2\n        /* \"#utility.yul\":177:201   */\n      tag_95\n      jump\t// in\n    tag_146:\n        /* \"#utility.yul\":172:175   */\n      dup3\n        /* \"#utility.yul\":165:202   */\n      mstore\n        /* \"#utility.yul\":90:208   */\n      pop\n      pop\n      jump\t// out\n        /* \"#utility.yul\":214:436   */\n    tag_16:\n        /* \"#utility.yul\":307:311   */\n      0x00\n        /* \"#utility.yul\":345:347   */\n      0x20\n        /* \"#utility.yul\":334:343   */\n      dup3\n        /* \"#utility.yul\":330:348   */\n      add\n        /* \"#utility.yul\":322:348   */\n      swap1\n      pop\n        /* \"#utility.yul\":358:429   */\n      tag_148\n        /* \"#utility.yul\":426:427   */\n      0x00\n        /* \"#utility.yul\":415:424   */\n      dup4\n        /* \"#utility.yul\":411:428   */\n      add\n        /* \"#utility.yul\":402:408   */\n      dup5\n        /* \"#utility.yul\":358:429   */\n      tag_96\n      jump\t// in\n    tag_148:\n        /* \"#utility.yul\":214:436   */\n      swap3\n      swap2\n      pop\n      pop\n      jump\t// out\n        /* \"#utility.yul\":442:541   */\n    tag_97:\n        /* \"#utility.yul\":494:500   */\n      0x00\n        /* \"#utility.yul\":528:533   */\n      dup2\n        /* \"#utility.yul\":522:534   */\n      mload\n        /* \"#utility.yul\":512:534   */\n      swap1\n      pop\n        /* \"#utility.yul\":442:541   */\n      swap2\n      swap1\n      pop\n      jump\t// out\n        /* \"#utility.yul\":547:716   */\n    tag_98:\n        /* \"#utility.yul\":631:642   */\n      0x00\n        /* \"#utility.yul\":665:671   */\n      dup3\n        /* \"#utility.yul\":660:663   */\n      dup3\n        /* \"#utility.yul\":653:672   */\n      mstore\n        /* \"#utility.yul\":705:709   */\n      0x20\n        /* \"#utility.yul\":700:703   */\n      dup3\n        /* \"#utility.yul\":696:710   */\n      add\n        /* \"#utility.yul\":681:710   */\n      swap1\n      pop\n        /* \"#utility.yul\":547:716   */\n      swap3\n      swap2\n      pop\n      pop\n      jump\t// out\n        /* \"#utility.yul\":722:1029   */\n    tag_99:\n        /* \"#utility.yul\":790:791   */\n      0x00\n        /* \"#utility.yul\":800:913   */\n    tag_152:\n        /* \"#utility.yul\":814:820   */\n      dup4\n        /* \"#utility.yul\":811:812   */\n      dup2\n        /* \"#utility.yul\":808:821   */\n      lt\n        /* \"#utility.yul\":800:913   */\n      iszero\n      tag_154\n      jumpi\n        /* \"#utility.yul\":899:900   */\n      dup1\n        /* \"#utility.yul\":894:897   */\n      dup3\n        /* \"#utility.yul\":890:901   */\n      add\n        /* \"#utility.yul\":884:902   */\n      mload\n        /* \"#utility.yul\":880:881   */\n      dup2\n        /* \"#utility.yul\":875:878   */\n      dup5\n        /* \"#utility.yul\":871:882   */\n      add\n        /* \"#utility.yul\":864:903   */\n      mstore\n        /* \"#utility.yul\":836:838   */\n      0x20\n        /* \"#utility.yul\":833:834   */\n      dup2\n        /* \"#utility.yul\":829:839   */\n      add\n        /* \"#utility.yul\":824:839   */\n      swap1\n      pop\n        /* \"#utility.yul\":800:913   */\n      jump(tag_152)\n    tag_154:\n        /* \"#utility.yul\":931:937   */\n      dup4\n        /* \"#utility.yul\":928:929   */\n      dup2\n        /* \"#utility.yul\":925:938   */\n      gt\n        /* \"#utility.yul\":922:1023   */\n      iszero\n      tag_155\n      jumpi\n        /* \"#utility.yul\":1011:1012   */\n      0x00\n        /* \"#utility.yul\":1002:1008   */\n      dup5\n        /* \"#utility.yul\":997:1000   */\n      dup5\n        /* \"#utility.yul\":993:1009   */\n      add\n        /* \"#utility.yul\":986:1013   */\n      mstore\n        /* \"#utility.yul\":922:1023   */\n    tag_155:\n        /* \"#utility.yul\":771:1029   */\n      pop\n        /* \"#utility.yul\":722:1029   */\n      pop\n      pop\n      pop\n      jump\t// out\n        /* \"#utility.yul\":1035:1137   */\n    tag_100:\n        /* \"#utility.yul\":1076:1082   */\n      0x00\n        /* \"#utility.yul\":1127:1129   */\n      0x1f\n        /* \"#utility.yul\":1123:1130   */\n      not\n        /* \"#utility.yul\":1118:1120   */\n      0x1f\n        /* \"#utility.yul\":1111:1116   */\n      dup4\n        /* \"#utility.yul\":1107:1121   */\n      add\n        /* \"#utility.yul\":1103:1131   */\n      and\n        /* \"#utility.yul\":1093:1131   */\n      swap1\n      pop\n        /* \"#utility.yul\":1035:1137   */\n      swap2\n      swap1\n      pop\n      jump\t// out\n        /* \"#utility.yul\":1143:1507   */\n    tag_101:\n        /* \"#utility.yul\":1231:1234   */\n      0x00\n        /* \"#utility.yul\":1259:1298   */\n      tag_158\n        /* \"#utility.yul\":1292:1297   */\n      dup3\n        /* \"#utility.yul\":1259:1298   */\n      tag_97\n      jump\t// in\n    tag_158:\n        /* \"#utility.yul\":1314:1385   */\n      tag_159\n        /* \"#utility.yul\":1378:1384   */\n      dup2\n        /* \"#utility.yul\":1373:1376   */\n      dup6\n        /* \"#utility.yul\":1314:1385   */\n      tag_98\n      jump\t// in\n    tag_159:\n        /* \"#utility.yul\":1307:1385   */\n      swap4\n      pop\n        /* \"#utility.yul\":1394:1446   */\n      tag_160\n        /* \"#utility.yul\":1439:1445   */\n      dup2\n        /* \"#utility.yul\":1434:1437   */\n      dup6\n        /* \"#utility.yul\":1427:1431   */\n      0x20\n        /* \"#utility.yul\":1420:1425   */\n      dup7\n        /* \"#utility.yul\":1416:1432   */\n      add\n        /* \"#utility.yul\":1394:1446   */\n      tag_99\n      jump\t// in\n    tag_160:\n        /* \"#utility.yul\":1471:1500   */\n      tag_161\n        /* \"#utility.yul\":1493:1499   */\n      dup2\n        /* \"#utility.yul\":1471:1500   */\n      tag_100\n      jump\t// in\n    tag_161:\n        /* \"#utility.yul\":1466:1469   */\n      dup5\n        /* \"#utility.yul\":1462:1501   */\n      add\n        /* \"#utility.yul\":1455:1501   */\n      swap2\n      pop\n        /* \"#utility.yul\":1235:1507   */\n      pop\n        /* \"#utility.yul\":1143:1507   */\n      swap3\n      swap2\n      pop\n      pop\n      jump\t// out\n        /* \"#utility.yul\":1513:1826   */\n    tag_21:\n        /* \"#utility.yul\":1626:1630   */\n      0x00\n        /* \"#utility.yul\":1664:1666   */\n      0x20\n        /* \"#utility.yul\":1653:1662   */\n      dup3\n        /* \"#utility.yul\":1649:1667   */\n      add\n        /* \"#utility.yul\":1641:1667   */\n      swap1\n      pop\n        /* \"#utility.yul\":1713:1722   */\n      dup2\n        /* \"#utility.yul\":1707:1711   */\n      dup2\n        /* \"#utility.yul\":1703:1723   */\n      sub\n        /* \"#utility.yul\":1699:1700   */\n      0x00\n        /* \"#utility.yul\":1688:1697   */\n      dup4\n        /* \"#utility.yul\":1684:1701   */\n      add\n        /* \"#utility.yul\":1677:1724   */\n      mstore\n        /* \"#utility.yul\":1741:1819   */\n      tag_163\n        /* \"#utility.yul\":1814:1818   */\n      dup2\n        /* \"#utility.yul\":1805:1811   */\n      dup5\n        /* \"#utility.yul\":1741:1819   */\n      tag_101\n      jump\t// in\n    tag_163:\n        /* \"#utility.yul\":1733:1819   */\n      swap1\n      pop\n        /* \"#utility.yul\":1513:1826   */\n      swap3\n      swap2\n      pop\n      pop\n      jump\t// out\n        /* \"#utility.yul\":1832:1930   */\n    tag_102:\n        /* \"#utility.yul\":1883:1889   */\n      0x00\n        /* \"#utility.yul\":1917:1922   */\n      dup2\n        /* \"#utility.yul\":1911:1923   */\n      mload\n        /* \"#utility.yul\":1901:1923   */\n      swap1\n      pop\n        /* \"#utility.yul\":1832:1930   */\n      swap2\n      swap1\n      pop\n      jump\t// out\n        /* \"#utility.yul\":1936:2104   */\n    tag_103:\n        /* \"#utility.yul\":2019:2030   */\n      0x00\n        /* \"#utility.yul\":2053:2059   */\n      dup3\n        /* \"#utility.yul\":2048:2051   */\n      dup3\n        /* \"#utility.yul\":2041:2060   */\n      mstore\n        /* \"#utility.yul\":2093:2097   */\n      0x20\n        /* \"#utility.yul\":2088:2091   */\n      dup3\n        /* \"#utility.yul\":2084:2098   */\n      add\n        /* \"#utility.yul\":2069:2098   */\n      swap1\n      pop\n        /* \"#utility.yul\":1936:2104   */\n      swap3\n      swap2\n      pop\n      pop\n      jump\t// out\n        /* \"#utility.yul\":2110:2470   */\n    tag_104:\n        /* \"#utility.yul\":2196:2199   */\n      0x00\n        /* \"#utility.yul\":2224:2262   */\n      tag_167\n        /* \"#utility.yul\":2256:2261   */\n      dup3\n        /* \"#utility.yul\":2224:2262   */\n      tag_102\n      jump\t// in\n    tag_167:\n        /* \"#utility.yul\":2278:2348   */\n      tag_168\n        /* \"#utility.yul\":2341:2347   */\n      dup2\n        /* \"#utility.yul\":2336:2339   */\n      dup6\n        /* \"#utility.yul\":2278:2348   */\n      tag_103\n      jump\t// in\n    tag_168:\n        /* \"#utility.yul\":2271:2348   */\n      swap4\n      pop\n        /* \"#utility.yul\":2357:2409   */\n      tag_169\n        /* \"#utility.yul\":2402:2408   */\n      dup2\n        /* \"#utility.yul\":2397:2400   */\n      dup6\n        /* \"#utility.yul\":2390:2394   */\n      0x20\n        /* \"#utility.yul\":2383:2388   */\n      dup7\n        /* \"#utility.yul\":2379:2395   */\n      add\n        /* \"#utility.yul\":2357:2409   */\n      tag_99\n      jump\t// in\n    tag_169:\n        /* \"#utility.yul\":2434:2463   */\n      tag_170\n        /* \"#utility.yul\":2456:2462   */\n      dup2\n        /* \"#utility.yul\":2434:2463   */\n      tag_100\n      jump\t// in\n    tag_170:\n        /* \"#utility.yul\":2429:2432   */\n      dup5\n        /* \"#utility.yul\":2425:2464   */\n      add\n        /* \"#utility.yul\":2418:2464   */\n      swap2\n      pop\n        /* \"#utility.yul\":2200:2470   */\n      pop\n        /* \"#utility.yul\":2110:2470   */\n      swap3\n      swap2\n      pop\n      pop\n      jump\t// out\n        /* \"#utility.yul\":2476:2785   */\n    tag_26:\n        /* \"#utility.yul\":2587:2591   */\n      0x00\n        /* \"#utility.yul\":2625:2627   */\n      0x20\n        /* \"#utility.yul\":2614:2623   */\n      dup3\n        /* \"#utility.yul\":2610:2628   */\n      add\n        /* \"#utility.yul\":2602:2628   */\n      swap1\n      pop\n        /* \"#utility.yul\":2674:2683   */\n      dup2\n        /* \"#utility.yul\":2668:2672   */\n      dup2\n        /* \"#utility.yul\":2664:2684   */\n      sub\n        /* \"#utility.yul\":2660:2661   */\n      0x00\n        /* \"#utility.yul\":2649:2658   */\n      dup4\n        /* \"#utility.yul\":2645:2662   */\n      add\n        /* \"#utility.yul\":2638:2685   */\n      mstore\n        /* \"#utility.yul\":2702:2778   */\n      tag_172\n        /* \"#utility.yul\":2773:2777   */\n      dup2\n        /* \"#utility.yul\":2764:2770   */\n      dup5\n        /* \"#utility.yul\":2702:2778   */\n      tag_104\n      jump\t// in\n    tag_172:\n        /* \"#utility.yul\":2694:2778   */\n      swap1\n      pop\n        /* \"#utility.yul\":2476:2785   */\n      swap3\n      swap2\n      pop\n      pop\n      jump\t// out\n        /* \"#utility.yul\":2791:2866   */\n    tag_105:\n        /* \"#utility.yul\":2824:2830   */\n      0x00\n        /* \"#utility.yul\":2857:2859   */\n      0x40\n        /* \"#utility.yul\":2851:2860   */\n      mload\n        /* \"#utility.yul\":2841:2860   */\n      swap1\n      pop\n        /* \"#utility.yul\":2791:2866   */\n      swap1\n      jump\t// out\n        /* \"#utility.yul\":2872:2989   */\n    tag_106:\n        /* \"#utility.yul\":2981:2982   */\n      0x00\n        /* \"#utility.yul\":2978:2979   */\n      dup1\n        /* \"#utility.yul\":2971:2983   */\n      revert\n        /* \"#utility.yul\":2995:3112   */\n    tag_107:\n        /* \"#utility.yul\":3104:3105   */\n      0x00\n        /* \"#utility.yul\":3101:3102   */\n      dup1\n        /* \"#utility.yul\":3094:3106   */\n      revert\n        /* \"#utility.yul\":3118:3240   */\n    tag_108:\n        /* \"#utility.yul\":3191:3215   */\n      tag_177\n        /* \"#utility.yul\":3209:3214   */\n      dup2\n        /* \"#utility.yul\":3191:3215   */\n      tag_95\n      jump\t// in\n    tag_177:\n        /* \"#utility.yul\":3184:3189   */\n      dup2\n        /* \"#utility.yul\":3181:3216   */\n      eq\n        /* \"#utility.yul\":3171:3234   */\n      tag_178\n      jumpi\n        /* \"#utility.yul\":3230:3231   */\n      0x00\n        /* \"#utility.yul\":3227:3228   */\n      dup1\n        /* \"#utility.yul\":3220:3232   */\n      revert\n        /* \"#utility.yul\":3171:3234   */\n    tag_178:\n        /* \"#utility.yul\":3118:3240   */\n      pop\n      jump\t// out\n        /* \"#utility.yul\":3246:3385   */\n    tag_109:\n        /* \"#utility.yul\":3292:3297   */\n      0x00\n        /* \"#utility.yul\":3330:3336   */\n      dup2\n        /* \"#utility.yul\":3317:3337   */\n      calldataload\n        /* \"#utility.yul\":3308:3337   */\n      swap1\n      pop\n        /* \"#utility.yul\":3346:3379   */\n      tag_180\n        /* \"#utility.yul\":3373:3378   */\n      dup2\n        /* \"#utility.yul\":3346:3379   */\n      tag_108\n      jump\t// in\n    tag_180:\n        /* \"#utility.yul\":3246:3385   */\n      swap3\n      swap2\n      pop\n      pop\n      jump\t// out\n        /* \"#utility.yul\":3391:3720   */\n    tag_29:\n        /* \"#utility.yul\":3450:3456   */\n      0x00\n        /* \"#utility.yul\":3499:3501   */\n      0x20\n        /* \"#utility.yul\":3487:3496   */\n      dup3\n        /* \"#utility.yul\":3478:3485   */\n      dup5\n        /* \"#utility.yul\":3474:3497   */\n      sub\n        /* \"#utility.yul\":3470:3502   */\n      slt\n        /* \"#utility.yul\":3467:3586   */\n      iszero\n      tag_182\n      jumpi\n        /* \"#utility.yul\":3505:3584   */\n      tag_183\n      tag_106\n      jump\t// in\n    tag_183:\n        /* \"#utility.yul\":3467:3586   */\n    tag_182:\n        /* \"#utility.yul\":3625:3626   */\n      0x00\n        /* \"#utility.yul\":3650:3703   */\n      tag_184\n        /* \"#utility.yul\":3695:3702   */\n      dup5\n        /* \"#utility.yul\":3686:3692   */\n      dup3\n        /* \"#utility.yul\":3675:3684   */\n      dup6\n        /* \"#utility.yul\":3671:3693   */\n      add\n        /* \"#utility.yul\":3650:3703   */\n      tag_109\n      jump\t// in\n    tag_184:\n        /* \"#utility.yul\":3640:3703   */\n      swap2\n      pop\n        /* \"#utility.yul\":3596:3713   */\n      pop\n        /* \"#utility.yul\":3391:3720   */\n      swap3\n      swap2\n      pop\n      pop\n      jump\t// out\n        /* \"#utility.yul\":3726:3852   */\n    tag_110:\n        /* \"#utility.yul\":3763:3770   */\n      0x00\n        /* \"#utility.yul\":3803:3845   */\n      0xffffffffffffffffffffffffffffffffffffffff\n        /* \"#utility.yul\":3796:3801   */\n      dup3\n        /* \"#utility.yul\":3792:3846   */\n      and\n        /* \"#utility.yul\":3781:3846   */\n      swap1\n      pop\n        /* \"#utility.yul\":3726:3852   */\n      swap2\n      swap1\n      pop\n      jump\t// out\n        /* \"#utility.yul\":3858:3954   */\n    tag_111:\n        /* \"#utility.yul\":3895:3902   */\n      0x00\n        /* \"#utility.yul\":3924:3948   */\n      tag_187\n        /* \"#utility.yul\":3942:3947   */\n      dup3\n        /* \"#utility.yul\":3924:3948   */\n      tag_110\n      jump\t// in\n    tag_187:\n        /* \"#utility.yul\":3913:3948   */\n      swap1\n      pop\n        /* \"#utility.yul\":3858:3954   */\n      swap2\n      swap1\n      pop\n      jump\t// out\n        /* \"#utility.yul\":3960:4078   */\n    tag_112:\n        /* \"#utility.yul\":4047:4071   */\n      tag_189\n        /* \"#utility.yul\":4065:4070   */\n      dup2\n        /* \"#utility.yul\":4047:4071   */\n      tag_111\n      jump\t// in\n    tag_189:\n        /* \"#utility.yul\":4042:4045   */\n      dup3\n        /* \"#utility.yul\":4035:4072   */\n      mstore\n        /* \"#utility.yul\":3960:4078   */\n      pop\n      pop\n      jump\t// out\n        /* \"#utility.yul\":4084:4306   */\n    tag_35:\n        /* \"#utility.yul\":4177:4181   */\n      0x00\n        /* \"#utility.yul\":4215:4217   */\n      0x20\n        /* \"#utility.yul\":4204:4213   */\n      dup3\n        /* \"#utility.yul\":4200:4218   */\n      add\n        /* \"#utility.yul\":4192:4218   */\n      swap1\n      pop\n        /* \"#utility.yul\":4228:4299   */\n      tag_191\n        /* \"#utility.yul\":4296:4297   */\n      0x00\n        /* \"#utility.yul\":4285:4294   */\n      dup4\n        /* \"#utility.yul\":4281:4298   */\n      add\n        /* \"#utility.yul\":4272:4278   */\n      dup5\n        /* \"#utility.yul\":4228:4299   */\n      tag_112\n      jump\t// in\n    tag_191:\n        /* \"#utility.yul\":4084:4306   */\n      swap3\n      swap2\n      pop\n      pop\n      jump\t// out\n        /* \"#utility.yul\":4312:4492   */\n    tag_113:\n        /* \"#utility.yul\":4360:4437   */\n      0x4e487b7100000000000000000000000000000000000000000000000000000000\n        /* \"#utility.yul\":4357:4358   */\n      0x00\n        /* \"#utility.yul\":4350:4438   */\n      mstore\n        /* \"#utility.yul\":4457:4461   */\n      0x22\n        /* \"#utility.yul\":4454:4455   */\n      0x04\n        /* \"#utility.yul\":4447:4462   */\n      mstore\n        /* \"#utility.yul\":4481:4485   */\n      0x24\n        /* \"#utility.yul\":4478:4479   */\n      0x00\n        /* \"#utility.yul\":4471:4486   */\n      revert\n        /* \"#utility.yul\":4498:4818   */\n    tag_53:\n        /* \"#utility.yul\":4542:4548   */\n      0x00\n        /* \"#utility.yul\":4579:4580   */\n      0x02\n        /* \"#utility.yul\":4573:4577   */\n      dup3\n        /* \"#utility.yul\":4569:4581   */\n      div\n        /* \"#utility.yul\":4559:4581   */\n      swap1\n      pop\n        /* \"#utility.yul\":4626:4627   */\n      0x01\n        /* \"#utility.yul\":4620:4624   */\n      dup3\n        /* \"#utility.yul\":4616:4628   */\n      and\n        /* \"#utility.yul\":4647:4665   */\n      dup1\n        /* \"#utility.yul\":4637:4718   */\n      tag_194\n      jumpi\n        /* \"#utility.yul\":4703:4707   */\n      0x7f\n        /* \"#utility.yul\":4695:4701   */\n      dup3\n        /* \"#utility.yul\":4691:4708   */\n      and\n        /* \"#utility.yul\":4681:4708   */\n      swap2\n      pop\n        /* \"#utility.yul\":4637:4718   */\n    tag_194:\n        /* \"#utility.yul\":4765:4767   */\n      0x20\n        /* \"#utility.yul\":4757:4763   */\n      dup3\n        /* \"#utility.yul\":4754:4768   */\n      lt\n        /* \"#utility.yul\":4734:4752   */\n      dup2\n        /* \"#utility.yul\":4731:4769   */\n      sub\n        /* \"#utility.yul\":4728:4812   */\n      tag_195\n      jumpi\n        /* \"#utility.yul\":4784:4802   */\n      tag_196\n      tag_113\n      jump\t// in\n    tag_196:\n        /* \"#utility.yul\":4728:4812   */\n    tag_195:\n        /* \"#utility.yul\":4549:4818   */\n      pop\n        /* \"#utility.yul\":4498:4818   */\n      swap2\n      swap1\n      pop\n      jump\t// out\n        /* \"#utility.yul\":4824:4909   */\n    tag_114:\n        /* \"#utility.yul\":4869:4876   */\n      0x00\n        /* \"#utility.yul\":4898:4903   */\n      dup2\n        /* \"#utility.yul\":4887:4903   */\n      swap1\n      pop\n        /* \"#utility.yul\":4824:4909   */\n      swap2\n      swap1\n      pop\n      jump\t// out\n        /* \"#utility.yul\":4915:4975   */\n    tag_115:\n        /* \"#utility.yul\":4943:4946   */\n      0x00\n        /* \"#utility.yul\":4964:4969   */\n      dup2\n        /* \"#utility.yul\":4957:4969   */\n      swap1\n      pop\n        /* \"#utility.yul\":4915:4975   */\n      swap2\n      swap1\n      pop\n      jump\t// out\n        /* \"#utility.yul\":4981:5139   */\n    tag_116:\n        /* \"#utility.yul\":5039:5048   */\n      0x00\n        /* \"#utility.yul\":5072:5133   */\n      tag_200\n        /* \"#utility.yul\":5090:5132   */\n      tag_201\n        /* \"#utility.yul\":5099:5131   */\n      tag_202\n        /* \"#utility.yul\":5125:5130   */\n      dup5\n        /* \"#utility.yul\":5099:5131   */\n      tag_114\n      jump\t// in\n    tag_202:\n        /* \"#utility.yul\":5090:5132   */\n      tag_115\n      jump\t// in\n    tag_201:\n        /* \"#utility.yul\":5072:5133   */\n      tag_95\n      jump\t// in\n    tag_200:\n        /* \"#utility.yul\":5059:5133   */\n      swap1\n      pop\n        /* \"#utility.yul\":4981:5139   */\n      swap2\n      swap1\n      pop\n      jump\t// out\n        /* \"#utility.yul\":5145:5292   */\n    tag_117:\n        /* \"#utility.yul\":5240:5285   */\n      tag_204\n        /* \"#utility.yul\":5279:5284   */\n      dup2\n        /* \"#utility.yul\":5240:5285   */\n      tag_116\n      jump\t// in\n    tag_204:\n        /* \"#utility.yul\":5235:5238   */\n      dup3\n        /* \"#utility.yul\":5228:5286   */\n      mstore\n        /* \"#utility.yul\":5145:5292   */\n      pop\n      pop\n      jump\t// out\n        /* \"#utility.yul\":5298:5536   */\n    tag_67:\n        /* \"#utility.yul\":5399:5403   */\n      0x00\n        /* \"#utility.yul\":5437:5439   */\n      0x20\n        /* \"#utility.yul\":5426:5435   */\n      dup3\n        /* \"#utility.yul\":5422:5440   */\n      add\n        /* \"#utility.yul\":5414:5440   */\n      swap1\n      pop\n        /* \"#utility.yul\":5450:5529   */\n      tag_206\n        /* \"#utility.yul\":5526:5527   */\n      0x00\n        /* \"#utility.yul\":5515:5524   */\n      dup4\n        /* \"#utility.yul\":5511:5528   */\n      add\n        /* \"#utility.yul\":5502:5508   */\n      dup5\n        /* \"#utility.yul\":5450:5529   */\n      tag_117\n      jump\t// in\n    tag_206:\n        /* \"#utility.yul\":5298:5536   */\n      swap3\n      swap2\n      pop\n      pop\n      jump\t// out\n        /* \"#utility.yul\":5542:5685   */\n    tag_118:\n        /* \"#utility.yul\":5599:5604   */\n      0x00\n        /* \"#utility.yul\":5630:5636   */\n      dup2\n        /* \"#utility.yul\":5624:5637   */\n      mload\n        /* \"#utility.yul\":5615:5637   */\n      swap1\n      pop\n        /* \"#utility.yul\":5646:5679   */\n      tag_208\n        /* \"#utility.yul\":5673:5678   */\n      dup2\n        /* \"#utility.yul\":5646:5679   */\n      tag_108\n      jump\t// in\n    tag_208:\n        /* \"#utility.yul\":5542:5685   */\n      swap3\n      swap2\n      pop\n      pop\n      jump\t// out\n        /* \"#utility.yul\":5691:6042   */\n    tag_78:\n        /* \"#utility.yul\":5761:5767   */\n      0x00\n        /* \"#utility.yul\":5810:5812   */\n      0x20\n        /* \"#utility.yul\":5798:5807   */\n      dup3\n        /* \"#utility.yul\":5789:5796   */\n      dup5\n        /* \"#utility.yul\":5785:5808   */\n      sub\n        /* \"#utility.yul\":5781:5813   */\n      slt\n        /* \"#utility.yul\":5778:5897   */\n      iszero\n      tag_210\n      jumpi\n        /* \"#utility.yul\":5816:5895   */\n      tag_211\n      tag_106\n      jump\t// in\n    tag_211:\n        /* \"#utility.yul\":5778:5897   */\n    tag_210:\n        /* \"#utility.yul\":5936:5937   */\n      0x00\n        /* \"#utility.yul\":5961:6025   */\n      tag_212\n        /* \"#utility.yul\":6017:6024   */\n      dup5\n        /* \"#utility.yul\":6008:6014   */\n      dup3\n        /* \"#utility.yul\":5997:6006   */\n      dup6\n        /* \"#utility.yul\":5993:6015   */\n      add\n        /* \"#utility.yul\":5961:6025   */\n      tag_118\n      jump\t// in\n    tag_212:\n        /* \"#utility.yul\":5951:6025   */\n      swap2\n      pop\n        /* \"#utility.yul\":5907:6035   */\n      pop\n        /* \"#utility.yul\":5691:6042   */\n      swap3\n      swap2\n      pop\n      pop\n      jump\t// out\n        /* \"#utility.yul\":6048:6165   */\n    tag_119:\n        /* \"#utility.yul\":6157:6158   */\n      0x00\n        /* \"#utility.yul\":6154:6155   */\n      dup1\n        /* \"#utility.yul\":6147:6159   */\n      revert\n        /* \"#utility.yul\":6171:6288   */\n    tag_120:\n        /* \"#utility.yul\":6280:6281   */\n      0x00\n        /* \"#utility.yul\":6277:6278   */\n      dup1\n        /* \"#utility.yul\":6270:6282   */\n      revert\n        /* \"#utility.yul\":6294:6474   */\n    tag_121:\n        /* \"#utility.yul\":6342:6419   */\n      0x4e487b7100000000000000000000000000000000000000000000000000000000\n        /* \"#utility.yul\":6339:6340   */\n      0x00\n        /* \"#utility.yul\":6332:6420   */\n      mstore\n        /* \"#utility.yul\":6439:6443   */\n      0x41\n        /* \"#utility.yul\":6436:6437   */\n      0x04\n        /* \"#utility.yul\":6429:6444   */\n      mstore\n        /* \"#utility.yul\":6463:6467   */\n      0x24\n        /* \"#utility.yul\":6460:6461   */\n      0x00\n        /* \"#utility.yul\":6453:6468   */\n      revert\n        /* \"#utility.yul\":6480:6761   */\n    tag_122:\n        /* \"#utility.yul\":6563:6590   */\n      tag_217\n        /* \"#utility.yul\":6585:6589   */\n      dup3\n        /* \"#utility.yul\":6563:6590   */\n      tag_100\n      jump\t// in\n    tag_217:\n        /* \"#utility.yul\":6555:6561   */\n      dup2\n        /* \"#utility.yul\":6551:6591   */\n      add\n        /* \"#utility.yul\":6693:6699   */\n      dup2\n        /* \"#utility.yul\":6681:6691   */\n      dup2\n        /* \"#utility.yul\":6678:6700   */\n      lt\n        /* \"#utility.yul\":6657:6675   */\n      0xffffffffffffffff\n        /* \"#utility.yul\":6645:6655   */\n      dup3\n        /* \"#utility.yul\":6642:6676   */\n      gt\n        /* \"#utility.yul\":6639:6701   */\n      or\n        /* \"#utility.yul\":6636:6724   */\n      iszero\n      tag_218\n      jumpi\n        /* \"#utility.yul\":6704:6722   */\n      tag_219\n      tag_121\n      jump\t// in\n    tag_219:\n        /* \"#utility.yul\":6636:6724   */\n    tag_218:\n        /* \"#utility.yul\":6744:6754   */\n      dup1\n        /* \"#utility.yul\":6740:6742   */\n      0x40\n        /* \"#utility.yul\":6733:6755   */\n      mstore\n        /* \"#utility.yul\":6523:6761   */\n      pop\n        /* \"#utility.yul\":6480:6761   */\n      pop\n      pop\n      jump\t// out\n        /* \"#utility.yul\":6767:6896   */\n    tag_123:\n        /* \"#utility.yul\":6801:6807   */\n      0x00\n        /* \"#utility.yul\":6828:6848   */\n      tag_221\n      tag_105\n      jump\t// in\n    tag_221:\n        /* \"#utility.yul\":6818:6848   */\n      swap1\n      pop\n        /* \"#utility.yul\":6857:6890   */\n      tag_222\n        /* \"#utility.yul\":6885:6889   */\n      dup3\n        /* \"#utility.yul\":6877:6883   */\n      dup3\n        /* \"#utility.yul\":6857:6890   */\n      tag_122\n      jump\t// in\n    tag_222:\n        /* \"#utility.yul\":6767:6896   */\n      swap2\n      swap1\n      pop\n      jump\t// out\n        /* \"#utility.yul\":6902:7210   */\n    tag_124:\n        /* \"#utility.yul\":6964:6968   */\n      0x00\n        /* \"#utility.yul\":7054:7072   */\n      0xffffffffffffffff\n        /* \"#utility.yul\":7046:7052   */\n      dup3\n        /* \"#utility.yul\":7043:7073   */\n      gt\n        /* \"#utility.yul\":7040:7096   */\n      iszero\n      tag_224\n      jumpi\n        /* \"#utility.yul\":7076:7094   */\n      tag_225\n      tag_121\n      jump\t// in\n    tag_225:\n        /* \"#utility.yul\":7040:7096   */\n    tag_224:\n        /* \"#utility.yul\":7114:7143   */\n      tag_226\n        /* \"#utility.yul\":7136:7142   */\n      dup3\n        /* \"#utility.yul\":7114:7143   */\n      tag_100\n      jump\t// in\n    tag_226:\n        /* \"#utility.yul\":7106:7143   */\n      swap1\n      pop\n        /* \"#utility.yul\":7198:7202   */\n      0x20\n        /* \"#utility.yul\":7192:7196   */\n      dup2\n        /* \"#utility.yul\":7188:7203   */\n      add\n        /* \"#utility.yul\":7180:7203   */\n      swap1\n      pop\n        /* \"#utility.yul\":6902:7210   */\n      swap2\n      swap1\n      pop\n      jump\t// out\n        /* \"#utility.yul\":7216:7637   */\n    tag_125:\n        /* \"#utility.yul\":7305:7310   */\n      0x00\n        /* \"#utility.yul\":7330:7396   */\n      tag_228\n        /* \"#utility.yul\":7346:7395   */\n      tag_229\n        /* \"#utility.yul\":7388:7394   */\n      dup5\n        /* \"#utility.yul\":7346:7395   */\n      tag_124\n      jump\t// in\n    tag_229:\n        /* \"#utility.yul\":7330:7396   */\n      tag_123\n      jump\t// in\n    tag_228:\n        /* \"#utility.yul\":7321:7396   */\n      swap1\n      pop\n        /* \"#utility.yul\":7419:7425   */\n      dup3\n        /* \"#utility.yul\":7412:7417   */\n      dup2\n        /* \"#utility.yul\":7405:7426   */\n      mstore\n        /* \"#utility.yul\":7457:7461   */\n      0x20\n        /* \"#utility.yul\":7450:7455   */\n      dup2\n        /* \"#utility.yul\":7446:7462   */\n      add\n        /* \"#utility.yul\":7495:7498   */\n      dup5\n        /* \"#utility.yul\":7486:7492   */\n      dup5\n        /* \"#utility.yul\":7481:7484   */\n      dup5\n        /* \"#utility.yul\":7477:7493   */\n      add\n        /* \"#utility.yul\":7474:7499   */\n      gt\n        /* \"#utility.yul\":7471:7583   */\n      iszero\n      tag_230\n      jumpi\n        /* \"#utility.yul\":7502:7581   */\n      tag_231\n      tag_120\n      jump\t// in\n    tag_231:\n        /* \"#utility.yul\":7471:7583   */\n    tag_230:\n        /* \"#utility.yul\":7592:7631   */\n      tag_232\n        /* \"#utility.yul\":7624:7630   */\n      dup5\n        /* \"#utility.yul\":7619:7622   */\n      dup3\n        /* \"#utility.yul\":7614:7617   */\n      dup6\n        /* \"#utility.yul\":7592:7631   */\n      tag_99\n      jump\t// in\n    tag_232:\n        /* \"#utility.yul\":7311:7637   */\n      pop\n        /* \"#utility.yul\":7216:7637   */\n      swap4\n      swap3\n      pop\n      pop\n      pop\n      jump\t// out\n        /* \"#utility.yul\":7657:8012   */\n    tag_126:\n        /* \"#utility.yul\":7724:7729   */\n      0x00\n        /* \"#utility.yul\":7773:7776   */\n      dup3\n        /* \"#utility.yul\":7766:7770   */\n      0x1f\n        /* \"#utility.yul\":7758:7764   */\n      dup4\n        /* \"#utility.yul\":7754:7771   */\n      add\n        /* \"#utility.yul\":7750:7777   */\n      slt\n        /* \"#utility.yul\":7740:7862   */\n      tag_234\n      jumpi\n        /* \"#utility.yul\":7781:7860   */\n      tag_235\n      tag_119\n      jump\t// in\n    tag_235:\n        /* \"#utility.yul\":7740:7862   */\n    tag_234:\n        /* \"#utility.yul\":7891:7897   */\n      dup2\n        /* \"#utility.yul\":7885:7898   */\n      mload\n        /* \"#utility.yul\":7916:8006   */\n      tag_236\n        /* \"#utility.yul\":8002:8005   */\n      dup5\n        /* \"#utility.yul\":7994:8000   */\n      dup3\n        /* \"#utility.yul\":7987:7991   */\n      0x20\n        /* \"#utility.yul\":7979:7985   */\n      dup7\n        /* \"#utility.yul\":7975:7992   */\n      add\n        /* \"#utility.yul\":7916:8006   */\n      tag_125\n      jump\t// in\n    tag_236:\n        /* \"#utility.yul\":7907:8006   */\n      swap2\n      pop\n        /* \"#utility.yul\":7730:8012   */\n      pop\n        /* \"#utility.yul\":7657:8012   */\n      swap3\n      swap2\n      pop\n      pop\n      jump\t// out\n        /* \"#utility.yul\":8018:8542   */\n    tag_88:\n        /* \"#utility.yul\":8098:8104   */\n      0x00\n        /* \"#utility.yul\":8147:8149   */\n      0x20\n        /* \"#utility.yul\":8135:8144   */\n      dup3\n        /* \"#utility.yul\":8126:8133   */\n      dup5\n        /* \"#utility.yul\":8122:8145   */\n      sub\n        /* \"#utility.yul\":8118:8150   */\n      slt\n        /* \"#utility.yul\":8115:8234   */\n      iszero\n      tag_238\n      jumpi\n        /* \"#utility.yul\":8153:8232   */\n      tag_239\n      tag_106\n      jump\t// in\n    tag_239:\n        /* \"#utility.yul\":8115:8234   */\n    tag_238:\n        /* \"#utility.yul\":8294:8295   */\n      0x00\n        /* \"#utility.yul\":8283:8292   */\n      dup3\n        /* \"#utility.yul\":8279:8296   */\n      add\n        /* \"#utility.yul\":8273:8297   */\n      mload\n        /* \"#utility.yul\":8324:8342   */\n      0xffffffffffffffff\n        /* \"#utility.yul\":8316:8322   */\n      dup2\n        /* \"#utility.yul\":8313:8343   */\n      gt\n        /* \"#utility.yul\":8310:8427   */\n      iszero\n      tag_240\n      jumpi\n        /* \"#utility.yul\":8346:8425   */\n      tag_241\n      tag_107\n      jump\t// in\n    tag_241:\n        /* \"#utility.yul\":8310:8427   */\n    tag_240:\n        /* \"#utility.yul\":8451:8525   */\n      tag_242\n        /* \"#utility.yul\":8517:8524   */\n      dup5\n        /* \"#utility.yul\":8508:8514   */\n      dup3\n        /* \"#utility.yul\":8497:8506   */\n      dup6\n        /* \"#utility.yul\":8493:8515   */\n      add\n        /* \"#utility.yul\":8451:8525   */\n      tag_126\n      jump\t// in\n    tag_242:\n        /* \"#utility.yul\":8441:8525   */\n      swap2\n      pop\n        /* \"#utility.yul\":8244:8535   */\n      pop\n        /* \"#utility.yul\":8018:8542   */\n      swap3\n      swap2\n      pop\n      pop\n      jump\t// out\n        /* \"#utility.yul\":8548:8689   */\n    tag_127:\n        /* \"#utility.yul\":8597:8601   */\n      0x00\n        /* \"#utility.yul\":8620:8623   */\n      dup2\n        /* \"#utility.yul\":8612:8623   */\n      swap1\n      pop\n        /* \"#utility.yul\":8643:8646   */\n      dup2\n        /* \"#utility.yul\":8640:8641   */\n      0x00\n        /* \"#utility.yul\":8633:8647   */\n      mstore\n        /* \"#utility.yul\":8677:8681   */\n      0x20\n        /* \"#utility.yul\":8674:8675   */\n      0x00\n        /* \"#utility.yul\":8664:8682   */\n      keccak256\n        /* \"#utility.yul\":8656:8682   */\n      swap1\n      pop\n        /* \"#utility.yul\":8548:8689   */\n      swap2\n      swap1\n      pop\n      jump\t// out\n        /* \"#utility.yul\":8695:8788   */\n    tag_128:\n        /* \"#utility.yul\":8732:8738   */\n      0x00\n        /* \"#utility.yul\":8779:8781   */\n      0x20\n        /* \"#utility.yul\":8774:8776   */\n      0x1f\n        /* \"#utility.yul\":8767:8772   */\n      dup4\n        /* \"#utility.yul\":8763:8777   */\n      add\n        /* \"#utility.yul\":8759:8782   */\n      div\n        /* \"#utility.yul\":8749:8782   */\n      swap1\n      pop\n        /* \"#utility.yul\":8695:8788   */\n      swap2\n      swap1\n      pop\n      jump\t// out\n        /* \"#utility.yul\":8794:8901   */\n    tag_129:\n        /* \"#utility.yul\":8838:8846   */\n      0x00\n        /* \"#utility.yul\":8888:8893   */\n      dup3\n        /* \"#utility.yul\":8882:8886   */\n      dup3\n        /* \"#utility.yul\":8878:8894   */\n      shl\n        /* \"#utility.yul\":8857:8894   */\n      swap1\n      pop\n        /* \"#utility.yul\":8794:8901   */\n      swap3\n      swap2\n      pop\n      pop\n      jump\t// out\n        /* \"#utility.yul\":8907:9300   */\n    tag_130:\n        /* \"#utility.yul\":8976:8982   */\n      0x00\n        /* \"#utility.yul\":9026:9027   */\n      0x08\n        /* \"#utility.yul\":9014:9024   */\n      dup4\n        /* \"#utility.yul\":9010:9028   */\n      mul\n        /* \"#utility.yul\":9049:9146   */\n      tag_247\n        /* \"#utility.yul\":9079:9145   */\n      0xffffffffffffffffffffffffffffffffffffffffffffffffffffffffffffffff\n        /* \"#utility.yul\":9068:9077   */\n      dup3\n        /* \"#utility.yul\":9049:9146   */\n      tag_129\n      jump\t// in\n    tag_247:\n        /* \"#utility.yul\":9167:9206   */\n      tag_248\n        /* \"#utility.yul\":9197:9205   */\n      dup7\n        /* \"#utility.yul\":9186:9195   */\n      dup4\n        /* \"#utility.yul\":9167:9206   */\n      tag_129\n      jump\t// in\n    tag_248:\n        /* \"#utility.yul\":9155:9206   */\n      swap6\n      pop\n        /* \"#utility.yul\":9239:9243   */\n      dup1\n        /* \"#utility.yul\":9235:9244   */\n      not\n        /* \"#utility.yul\":9228:9233   */\n      dup5\n        /* \"#utility.yul\":9224:9245   */\n      and\n        /* \"#utility.yul\":9215:9245   */\n      swap4\n      pop\n        /* \"#utility.yul\":9288:9292   */\n      dup1\n        /* \"#utility.yul\":9278:9286   */\n      dup7\n        /* \"#utility.yul\":9274:9293   */\n      and\n        /* \"#utility.yul\":9267:9272   */\n      dup5\n        /* \"#utility.yul\":9264:9294   */\n      or\n        /* \"#utility.yul\":9254:9294   */\n      swap3\n      pop\n        /* \"#utility.yul\":8983:9300   */\n      pop\n      pop\n        /* \"#utility.yul\":8907:9300   */\n      swap4\n      swap3\n      pop\n      pop\n      pop\n      jump\t// out\n        /* \"#utility.yul\":9306:9448   */\n    tag_131:\n        /* \"#utility.yul\":9356:9365   */\n      0x00\n        /* \"#utility.yul\":9389:9442   */\n      tag_250\n        /* \"#utility.yul\":9407:9441   */\n      tag_251\n        /* \"#utility.yul\":9416:9440   */\n      tag_252\n        /* \"#utility.yul\":9434:9439   */\n      dup5\n        /* \"#utility.yul\":9416:9440   */\n      tag_95\n      jump\t// in\n    tag_252:\n        /* \"#utility.yul\":9407:9441   */\n      tag_115\n      jump\t// in\n    tag_251:\n        /* \"#utility.yul\":9389:9442   */\n      tag_95\n      jump\t// in\n    tag_250:\n        /* \"#utility.yul\":9376:9442   */\n      swap1\n      pop\n        /* \"#utility.yul\":9306:9448   */\n      swap2\n      swap1\n      pop\n      jump\t// out\n        /* \"#utility.yul\":9454:9529   */\n    tag_132:\n        /* \"#utility.yul\":9497:9500   */\n      0x00\n        /* \"#utility.yul\":9518:9523   */\n      dup2\n        /* \"#utility.yul\":9511:9523   */\n      swap1\n      pop\n        /* \"#utility.yul\":9454:9529   */\n      swap2\n      swap1\n      pop\n      jump\t// out\n        /* \"#utility.yul\":9535:9804   */\n    tag_133:\n        /* \"#utility.yul\":9645:9684   */\n      tag_255\n        /* \"#utility.yul\":9676:9683   */\n      dup4\n        /* \"#utility.yul\":9645:9684   */\n      tag_131\n      jump\t// in\n    tag_255:\n        /* \"#utility.yul\":9706:9797   */\n      tag_256\n        /* \"#utility.yul\":9755:9796   */\n      tag_257\n        /* \"#utility.yul\":9779:9795   */\n      dup3\n        /* \"#utility.yul\":9755:9796   */\n      tag_132\n      jump\t// in\n    tag_257:\n        /* \"#utility.yul\":9747:9753   */\n      dup5\n        /* \"#utility.yul\":9740:9744   */\n      dup5\n        /* \"#utility.yul\":9734:9745   */\n      sload\n        /* \"#utility.yul\":9706:9797   */\n      tag_130\n      jump\t// in\n    tag_256:\n        /* \"#utility.yul\":9700:9704   */\n      dup3\n        /* \"#utility.yul\":9693:9798   */\n      sstore\n        /* \"#utility.yul\":9611:9804   */\n      pop\n        /* \"#utility.yul\":9535:9804   */\n      pop\n      pop\n      pop\n      jump\t// out\n        /* \"#utility.yul\":9810:9883   */\n    tag_134:\n        /* \"#utility.yul\":9855:9858   */\n      0x00\n        /* \"#utility.yul\":9810:9883   */\n      swap1\n      jump\t// out\n        /* \"#utility.yul\":9889:10078   */\n    tag_135:\n        /* \"#utility.yul\":9966:9998   */\n      tag_260\n      tag_134\n      jump\t// in\n    tag_260:\n        /* \"#utility.yul\":10007:10072   */\n      tag_261\n        /* \"#utility.yul\":10065:10071   */\n      dup2\n        /* \"#utility.yul\":10057:10063   */\n      dup5\n        /* \"#utility.yul\":10051:10055   */\n      dup5\n        /* \"#utility.yul\":10007:10072   */\n      tag_133\n      jump\t// in\n    tag_261:\n        /* \"#utility.yul\":9942:10078   */\n      pop\n        /* \"#utility.yul\":9889:10078   */\n      pop\n      pop\n      jump\t// out\n        /* \"#utility.yul\":10084:10270   */\n    tag_136:\n        /* \"#utility.yul\":10144:10264   */\n    tag_263:\n        /* \"#utility.yul\":10161:10164   */\n      dup2\n        /* \"#utility.yul\":10154:10159   */\n      dup2\n        /* \"#utility.yul\":10151:10165   */\n      lt\n        /* \"#utility.yul\":10144:10264   */\n      iszero\n      tag_265\n      jumpi\n        /* \"#utility.yul\":10215:10254   */\n      tag_266\n        /* \"#utility.yul\":10252:10253   */\n      0x00\n        /* \"#utility.yul\":10245:10250   */\n      dup3\n        /* \"#utility.yul\":10215:10254   */\n      tag_135\n      jump\t// in\n    tag_266:\n        /* \"#utility.yul\":10188:10189   */\n      0x01\n        /* \"#utility.yul\":10181:10186   */\n      dup2\n        /* \"#utility.yul\":10177:10190   */\n      add\n        /* \"#utility.yul\":10168:10190   */\n      swap1\n      pop\n        /* \"#utility.yul\":10144:10264   */\n      jump(tag_263)\n    tag_265:\n        /* \"#utility.yul\":10084:10270   */\n      pop\n      pop\n      jump\t// out\n        /* \"#utility.yul\":10276:10819   */\n    tag_137:\n        /* \"#utility.yul\":10377:10379   */\n      0x1f\n        /* \"#utility.yul\":10372:10375   */\n      dup3\n        /* \"#utility.yul\":10369:10380   */\n      gt\n        /* \"#utility.yul\":10366:10812   */\n      iszero\n      tag_268\n      jumpi\n        /* \"#utility.yul\":10411:10449   */\n      tag_269\n        /* \"#utility.yul\":10443:10448   */\n      dup2\n        /* \"#utility.yul\":10411:10449   */\n      tag_127\n      jump\t// in\n    tag_269:\n        /* \"#utility.yul\":10495:10524   */\n      tag_270\n        /* \"#utility.yul\":10513:10523   */\n      dup5\n        /* \"#utility.yul\":10495:10524   */\n      tag_128\n      jump\t// in\n    tag_270:\n        /* \"#utility.yul\":10485:10493   */\n      dup2\n        /* \"#utility.yul\":10481:10525   */\n      add\n        /* \"#utility.yul\":10678:10680   */\n      0x20\n        /* \"#utility.yul\":10666:10676   */\n      dup6\n        /* \"#utility.yul\":10663:10681   */\n      lt\n        /* \"#utility.yul\":10660:10709   */\n      iszero\n      tag_271\n      jumpi\n        /* \"#utility.yul\":10699:10707   */\n      dup2\n        /* \"#utility.yul\":10684:10707   */\n      swap1\n      pop\n        /* \"#utility.yul\":10660:10709   */\n    tag_271:\n        /* \"#utility.yul\":10722:10802   */\n      tag_272\n        /* \"#utility.yul\":10778:10800   */\n      tag_273\n        /* \"#utility.yul\":10796:10799   */\n      dup6\n        /* \"#utility.yul\":10778:10800   */\n      tag_128\n      jump\t// in\n    tag_273:\n        /* \"#utility.yul\":10768:10776   */\n      dup4\n        /* \"#utility.yul\":10764:10801   */\n      add\n        /* \"#utility.yul\":10751:10762   */\n      dup3\n        /* \"#utility.yul\":10722:10802   */\n      tag_136\n      jump\t// in\n    tag_272:\n        /* \"#utility.yul\":10381:10812   */\n      pop\n      pop\n        /* \"#utility.yul\":10366:10812   */\n    tag_268:\n        /* \"#utility.yul\":10276:10819   */\n      pop\n      pop\n      pop\n      jump\t// out\n        /* \"#utility.yul\":10825:10942   */\n    tag_138:\n        /* \"#utility.yul\":10879:10887   */\n      0x00\n        /* \"#utility.yul\":10929:10934   */\n      dup3\n        /* \"#utility.yul\":10923:10927   */\n      dup3\n        /* \"#utility.yul\":10919:10935   */\n      shr\n        /* \"#utility.yul\":10898:10935   */\n      swap1\n      pop\n        /* \"#utility.yul\":10825:10942   */\n      swap3\n      swap2\n      pop\n      pop\n      jump\t// out\n        /* \"#utility.yul\":10948:11117   */\n    tag_139:\n        /* \"#utility.yul\":10992:10998   */\n      0x00\n        /* \"#utility.yul\":11025:11076   */\n      tag_276\n        /* \"#utility.yul\":11073:11074   */\n      0x00\n        /* \"#utility.yul\":11069:11075   */\n      not\n        /* \"#utility.yul\":11061:11066   */\n      dup5\n        /* \"#utility.yul\":11058:11059   */\n      0x08\n        /* \"#utility.yul\":11054:11067   */\n      mul\n        /* \"#utility.yul\":11025:11076   */\n      tag_138\n      jump\t// in\n    tag_276:\n        /* \"#utility.yul\":11021:11077   */\n      not\n        /* \"#utility.yul\":11106:11110   */\n      dup1\n        /* \"#utility.yul\":11100:11104   */\n      dup4\n        /* \"#utility.yul\":11096:11111   */\n      and\n        /* \"#utility.yul\":11086:11111   */\n      swap2\n      pop\n        /* \"#utility.yul\":10999:11117   */\n      pop\n        /* \"#utility.yul\":10948:11117   */\n      swap3\n      swap2\n      pop\n      pop\n      jump\t// out\n        /* \"#utility.yul\":11122:11417   */\n    tag_140:\n        /* \"#utility.yul\":11198:11202   */\n      0x00\n        /* \"#utility.yul\":11344:11373   */\n      tag_278\n        /* \"#utility.yul\":11369:11372   */\n      dup4\n        /* \"#utility.yul\":11363:11367   */\n      dup4\n        /* \"#utility.yul\":11344:11373   */\n      tag_139\n      jump\t// in\n    tag_278:\n        /* \"#utility.yul\":11336:11373   */\n      swap2\n      pop\n        /* \"#utility.yul\":11406:11409   */\n      dup3\n        /* \"#utility.yul\":11403:11404   */\n      0x02\n        /* \"#utility.yul\":11399:11410   */\n      mul\n        /* \"#utility.yul\":11393:11397   */\n      dup3\n        /* \"#utility.yul\":11390:11411   */\n      or\n        /* \"#utility.yul\":11382:11411   */\n      swap1\n      pop\n        /* \"#utility.yul\":11122:11417   */\n      swap3\n      swap2\n      pop\n      pop\n      jump\t// out\n        /* \"#utility.yul\":11422:12817   */\n    tag_90:\n        /* \"#utility.yul\":11539:11576   */\n      tag_280\n        /* \"#utility.yul\":11572:11575   */\n      dup3\n        /* \"#utility.yul\":11539:11576   */\n      tag_97\n      jump\t// in\n    tag_280:\n        /* \"#utility.yul\":11641:11659   */\n      0xffffffffffffffff\n        /* \"#utility.yul\":11633:11639   */\n      dup2\n        /* \"#utility.yul\":11630:11660   */\n      gt\n        /* \"#utility.yul\":11627:11683   */\n      iszero\n      tag_281\n      jumpi\n        /* \"#utility.yul\":11663:11681   */\n      tag_282\n      tag_121\n      jump\t// in\n    tag_282:\n        /* \"#utility.yul\":11627:11683   */\n    tag_281:\n        /* \"#utility.yul\":11707:11745   */\n      tag_283\n        /* \"#utility.yul\":11739:11743   */\n      dup3\n        /* \"#utility.yul\":11733:11744   */\n      sload\n        /* \"#utility.yul\":11707:11745   */\n      tag_53\n      jump\t// in\n    tag_283:\n        /* \"#utility.yul\":11792:11859   */\n      tag_284\n        /* \"#utility.yul\":11852:11858   */\n      dup3\n        /* \"#utility.yul\":11844:11850   */\n      dup3\n        /* \"#utility.yul\":11838:11842   */\n      dup6\n        /* \"#utility.yul\":11792:11859   */\n      tag_137\n      jump\t// in\n    tag_284:\n        /* \"#utility.yul\":11886:11887   */\n      0x00\n        /* \"#utility.yul\":11910:11914   */\n      0x20\n        /* \"#utility.yul\":11897:11914   */\n      swap1\n      pop\n        /* \"#utility.yul\":11942:11944   */\n      0x1f\n        /* \"#utility.yul\":11934:11940   */\n      dup4\n        /* \"#utility.yul\":11931:11945   */\n      gt\n        /* \"#utility.yul\":11959:11960   */\n      0x01\n        /* \"#utility.yul\":11954:12572   */\n      dup2\n      eq\n      tag_286\n      jumpi\n        /* \"#utility.yul\":12616:12617   */\n      0x00\n        /* \"#utility.yul\":12633:12639   */\n      dup5\n        /* \"#utility.yul\":12630:12707   */\n      iszero\n      tag_287\n      jumpi\n        /* \"#utility.yul\":12682:12691   */\n      dup3\n        /* \"#utility.yul\":12677:12680   */\n      dup8\n        /* \"#utility.yul\":12673:12692   */\n      add\n        /* \"#utility.yul\":12667:12693   */\n      mload\n        /* \"#utility.yul\":12658:12693   */\n      swap1\n      pop\n        /* \"#utility.yul\":12630:12707   */\n    tag_287:\n        /* \"#utility.yul\":12733:12800   */\n      tag_288\n        /* \"#utility.yul\":12793:12799   */\n      dup6\n        /* \"#utility.yul\":12786:12791   */\n      dup3\n        /* \"#utility.yul\":12733:12800   */\n      tag_140\n      jump\t// in\n    tag_288:\n        /* \"#utility.yul\":12727:12731   */\n      dup7\n        /* \"#utility.yul\":12720:12801   */\n      sstore\n        /* \"#utility.yul\":12589:12811   */\n      pop\n        /* \"#utility.yul\":11924:12811   */\n      jump(tag_285)\n        /* \"#utility.yul\":11954:12572   */\n    tag_286:\n        /* \"#utility.yul\":12006:12010   */\n      0x1f\n        /* \"#utility.yul\":12002:12011   */\n      not\n        /* \"#utility.yul\":11994:12000   */\n      dup5\n        /* \"#utility.yul\":11990:12012   */\n      and\n        /* \"#utility.yul\":12040:12077   */\n      tag_289\n        /* \"#utility.yul\":12072:12076   */\n      dup7\n        /* \"#utility.yul\":12040:12077   */\n      tag_127\n      jump\t// in\n    tag_289:\n        /* \"#utility.yul\":12099:12100   */\n      0x00\n        /* \"#utility.yul\":12113:12321   */\n    tag_290:\n        /* \"#utility.yul\":12127:12134   */\n      dup3\n        /* \"#utility.yul\":12124:12125   */\n      dup2\n        /* \"#utility.yul\":12121:12135   */\n      lt\n        /* \"#utility.yul\":12113:12321   */\n      iszero\n      tag_292\n      jumpi\n        /* \"#utility.yul\":12206:12215   */\n      dup5\n        /* \"#utility.yul\":12201:12204   */\n      dup10\n        /* \"#utility.yul\":12197:12216   */\n      add\n        /* \"#utility.yul\":12191:12217   */\n      mload\n        /* \"#utility.yul\":12183:12189   */\n      dup3\n        /* \"#utility.yul\":12176:12218   */\n      sstore\n        /* \"#utility.yul\":12257:12258   */\n      0x01\n        /* \"#utility.yul\":12249:12255   */\n      dup3\n        /* \"#utility.yul\":12245:12259   */\n      add\n        /* \"#utility.yul\":12235:12259   */\n      swap2\n      pop\n        /* \"#utility.yul\":12304:12306   */\n      0x20\n        /* \"#utility.yul\":12293:12302   */\n      dup6\n        /* \"#utility.yul\":12289:12307   */\n      add\n        /* \"#utility.yul\":12276:12307   */\n      swap5\n      pop\n        /* \"#utility.yul\":12150:12154   */\n      0x20\n        /* \"#utility.yul\":12147:12148   */\n      dup2\n        /* \"#utility.yul\":12143:12155   */\n      add\n        /* \"#utility.yul\":12138:12155   */\n      swap1\n      pop\n        /* \"#utility.yul\":12113:12321   */\n      jump(tag_290)\n    tag_292:\n        /* \"#utility.yul\":12349:12355   */\n      dup7\n        /* \"#utility.yul\":12340:12347   */\n      dup4\n        /* \"#utility.yul\":12337:12356   */\n      lt\n        /* \"#utility.yul\":12334:12513   */\n      iszero\n      tag_293\n      jumpi\n        /* \"#utility.yul\":12407:12416   */\n      dup5\n        /* \"#utility.yul\":12402:12405   */\n      dup10\n        /* \"#utility.yul\":12398:12417   */\n      add\n        /* \"#utility.yul\":12392:12418   */\n      mload\n        /* \"#utility.yul\":12450:12498   */\n      tag_294\n        /* \"#utility.yul\":12492:12496   */\n      0x1f\n        /* \"#utility.yul\":12484:12490   */\n      dup10\n        /* \"#utility.yul\":12480:12497   */\n      and\n        /* \"#utility.yul\":12469:12478   */\n      dup3\n        /* \"#utility.yul\":12450:12498   */\n      tag_139\n      jump\t// in\n    tag_294:\n        /* \"#utility.yul\":12442:12448   */\n      dup4\n        /* \"#utility.yul\":12435:12499   */\n      sstore\n        /* \"#utility.yul\":12357:12513   */\n      pop\n        /* \"#utility.yul\":12334:12513   */\n    tag_293:\n        /* \"#utility.yul\":12559:12560   */\n      0x01\n        /* \"#utility.yul\":12555:12556   */\n      0x02\n        /* \"#utility.yul\":12547:12553   */\n      dup9\n        /* \"#utility.yul\":12543:12557   */\n      mul\n        /* \"#utility.yul\":12539:12561   */\n      add\n        /* \"#utility.yul\":12533:12537   */\n      dup9\n        /* \"#utility.yul\":12526:12562   */\n      sstore\n        /* \"#utility.yul\":11961:12572   */\n      pop\n      pop\n      pop\n        /* \"#utility.yul\":11924:12811   */\n    tag_285:\n      pop\n        /* \"#utility.yul\":11514:12817   */\n      pop\n      pop\n      pop\n        /* \"#utility.yul\":11422:12817   */\n      pop\n      pop\n      jump\t// out\n        /* \"#utility.yul\":12823:12963   */\n    tag_141:\n        /* \"#utility.yul\":12871:12875   */\n      0x00\n        /* \"#utility.yul\":12894:12897   */\n      dup2\n        /* \"#utility.yul\":12886:12897   */\n      swap1\n      pop\n        /* \"#utility.yul\":12917:12920   */\n      dup2\n        /* \"#utility.yul\":12914:12915   */\n      0x00\n        /* \"#utility.yul\":12907:12921   */\n      mstore\n        /* \"#utility.yul\":12951:12955   */\n      0x20\n        /* \"#utility.yul\":12948:12949   */\n      0x00\n        /* \"#utility.yul\":12938:12956   */\n      keccak256\n        /* \"#utility.yul\":12930:12956   */\n      swap1\n      pop\n        /* \"#utility.yul\":12823:12963   */\n      swap2\n      swap1\n      pop\n      jump\t// out\n        /* \"#utility.yul\":12969:13510   */\n    tag_142:\n        /* \"#utility.yul\":13069:13071   */\n      0x1f\n        /* \"#utility.yul\":13064:13067   */\n      dup3\n        /* \"#utility.yul\":13061:13072   */\n      gt\n        /* \"#utility.yul\":13058:13503   */\n      iszero\n      tag_297\n      jumpi\n        /* \"#utility.yul\":13103:13140   */\n      tag_298\n        /* \"#utility.yul\":13134:13139   */\n      dup2\n        /* \"#utility.yul\":13103:13140   */\n      tag_141\n      jump\t// in\n    tag_298:\n        /* \"#utility.yul\":13186:13215   */\n      tag_299\n        /* \"#utility.yul\":13204:13214   */\n      dup5\n        /* \"#utility.yul\":13186:13215   */\n      tag_128\n      jump\t// in\n    tag_299:\n        /* \"#utility.yul\":13176:13184   */\n      dup2\n        /* \"#utility.yul\":13172:13216   */\n      add\n        /* \"#utility.yul\":13369:13371   */\n      0x20\n        /* \"#utility.yul\":13357:13367   */\n      dup6\n        /* \"#utility.yul\":13354:13372   */\n      lt\n        /* \"#utility.yul\":13351:13400   */\n      iszero\n      tag_300\n      jumpi\n        /* \"#utility.yul\":13390:13398   */\n      dup2\n        /* \"#utility.yul\":13375:13398   */\n      swap1\n      pop\n        /* \"#utility.yul\":13351:13400   */\n    tag_300:\n        /* \"#utility.yul\":13413:13493   */\n      tag_301\n        /* \"#utility.yul\":13469:13491   */\n      tag_302\n        /* \"#utility.yul\":13487:13490   */\n      dup6\n        /* \"#utility.yul\":13469:13491   */\n      tag_128\n      jump\t// in\n    tag_302:\n        /* \"#utility.yul\":13459:13467   */\n      dup4\n        /* \"#utility.yul\":13455:13492   */\n      add\n        /* \"#utility.yul\":13442:13453   */\n      dup3\n        /* \"#utility.yul\":13413:13493   */\n      tag_136\n      jump\t// in\n    tag_301:\n        /* \"#utility.yul\":13073:13503   */\n      pop\n      pop\n        /* \"#utility.yul\":13058:13503   */\n    tag_297:\n        /* \"#utility.yul\":12969:13510   */\n      pop\n      pop\n      pop\n      jump\t// out\n        /* \"#utility.yul\":13516:14906   */\n    tag_94:\n        /* \"#utility.yul\":13631:13667   */\n      tag_304\n        /* \"#utility.yul\":13663:13666   */\n      dup3\n        /* \"#utility.yul\":13631:13667   */\n      tag_102\n      jump\t// in\n    tag_304:\n        /* \"#utility.yul\":13732:13750   */\n      0xffffffffffffffff\n        /* \"#utility.yul\":13724:13730   */\n      dup2\n        /* \"#utility.yul\":13721:13751   */\n      gt\n        /* \"#utility.yul\":13718:13774   */\n      iszero\n      tag_305\n      jumpi\n        /* \"#utility.yul\":13754:13772   */\n      tag_306\n      tag_121\n      jump\t// in\n    tag_306:\n        /* \"#utility.yul\":13718:13774   */\n    tag_305:\n        /* \"#utility.yul\":13798:13836   */\n      tag_307\n        /* \"#utility.yul\":13830:13834   */\n      dup3\n        /* \"#utility.yul\":13824:13835   */\n      sload\n        /* \"#utility.yul\":13798:13836   */\n      tag_53\n      jump\t// in\n    tag_307:\n        /* \"#utility.yul\":13883:13949   */\n      tag_308\n        /* \"#utility.yul\":13942:13948   */\n      dup3\n        /* \"#utility.yul\":13934:13940   */\n      dup3\n        /* \"#utility.yul\":13928:13932   */\n      dup6\n        /* \"#utility.yul\":13883:13949   */\n      tag_142\n      jump\t// in\n    tag_308:\n        /* \"#utility.yul\":13976:13977   */\n      0x00\n        /* \"#utility.yul\":14000:14004   */\n      0x20\n        /* \"#utility.yul\":13987:14004   */\n      swap1\n      pop\n        /* \"#utility.yul\":14032:14034   */\n      0x1f\n        /* \"#utility.yul\":14024:14030   */\n      dup4\n        /* \"#utility.yul\":14021:14035   */\n      gt\n        /* \"#utility.yul\":14049:14050   */\n      0x01\n        /* \"#utility.yul\":14044:14661   */\n      dup2\n      eq\n      tag_310\n      jumpi\n        /* \"#utility.yul\":14705:14706   */\n      0x00\n        /* \"#utility.yul\":14722:14728   */\n      dup5\n        /* \"#utility.yul\":14719:14796   */\n      iszero\n      tag_311\n      jumpi\n        /* \"#utility.yul\":14771:14780   */\n      dup3\n        /* \"#utility.yul\":14766:14769   */\n      dup8\n        /* \"#utility.yul\":14762:14781   */\n      add\n        /* \"#utility.yul\":14756:14782   */\n      mload\n        /* \"#utility.yul\":14747:14782   */\n      swap1\n      pop\n        /* \"#utility.yul\":14719:14796   */\n    tag_311:\n        /* \"#utility.yul\":14822:14889   */\n      tag_312\n        /* \"#utility.yul\":14882:14888   */\n      dup6\n        /* \"#utility.yul\":14875:14880   */\n      dup3\n        /* \"#utility.yul\":14822:14889   */\n      tag_140\n      jump\t// in\n    tag_312:\n        /* \"#utility.yul\":14816:14820   */\n      dup7\n        /* \"#utility.yul\":14809:14890   */\n      sstore\n        /* \"#utility.yul\":14678:14900   */\n      pop\n        /* \"#utility.yul\":14014:14900   */\n      jump(tag_309)\n        /* \"#utility.yul\":14044:14661   */\n    tag_310:\n        /* \"#utility.yul\":14096:14100   */\n      0x1f\n        /* \"#utility.yul\":14092:14101   */\n      not\n        /* \"#utility.yul\":14084:14090   */\n      dup5\n        /* \"#utility.yul\":14080:14102   */\n      and\n        /* \"#utility.yul\":14130:14166   */\n      tag_313\n        /* \"#utility.yul\":14161:14165   */\n      dup7\n        /* \"#utility.yul\":14130:14166   */\n      tag_141\n      jump\t// in\n    tag_313:\n        /* \"#utility.yul\":14188:14189   */\n      0x00\n        /* \"#utility.yul\":14202:14410   */\n    tag_314:\n        /* \"#utility.yul\":14216:14223   */\n      dup3\n        /* \"#utility.yul\":14213:14214   */\n      dup2\n        /* \"#utility.yul\":14210:14224   */\n      lt\n        /* \"#utility.yul\":14202:14410   */\n      iszero\n      tag_316\n      jumpi\n        /* \"#utility.yul\":14295:14304   */\n      dup5\n        /* \"#utility.yul\":14290:14293   */\n      dup10\n        /* \"#utility.yul\":14286:14305   */\n      add\n        /* \"#utility.yul\":14280:14306   */\n      mload\n        /* \"#utility.yul\":14272:14278   */\n      dup3\n        /* \"#utility.yul\":14265:14307   */\n      sstore\n        /* \"#utility.yul\":14346:14347   */\n      0x01\n        /* \"#utility.yul\":14338:14344   */\n      dup3\n        /* \"#utility.yul\":14334:14348   */\n      add\n        /* \"#utility.yul\":14324:14348   */\n      swap2\n      pop\n        /* \"#utility.yul\":14393:14395   */\n      0x20\n        /* \"#utility.yul\":14382:14391   */\n      dup6\n        /* \"#utility.yul\":14378:14396   */\n      add\n        /* \"#utility.yul\":14365:14396   */\n      swap5\n      pop\n        /* \"#utility.yul\":14239:14243   */\n      0x20\n        /* \"#utility.yul\":14236:14237   */\n      dup2\n        /* \"#utility.yul\":14232:14244   */\n      add\n        /* \"#utility.yul\":14227:14244   */\n      swap1\n      pop\n        /* \"#utility.yul\":14202:14410   */\n      jump(tag_314)\n    tag_316:\n        /* \"#utility.yul\":14438:14444   */\n      dup7\n        /* \"#utility.yul\":14429:14436   */\n      dup4\n        /* \"#utility.yul\":14426:14445   */\n      lt\n        /* \"#utility.yul\":14423:14602   */\n      iszero\n      tag_317\n      jumpi\n        /* \"#utility.yul\":14496:14505   */\n      dup5\n        /* \"#utility.yul\":14491:14494   */\n      dup10\n        /* \"#utility.yul\":14487:14506   */\n      add\n        /* \"#utility.yul\":14481:14507   */\n      mload\n        /* \"#utility.yul\":14539:14587   */\n      tag_318\n        /* \"#utility.yul\":14581:14585   */\n      0x1f\n        /* \"#utility.yul\":14573:14579   */\n      dup10\n        /* \"#utility.yul\":14569:14586   */\n      and\n        /* \"#utility.yul\":14558:14567   */\n      dup3\n        /* \"#utility.yul\":14539:14587   */\n      tag_139\n      jump\t// in\n    tag_318:\n        /* \"#utility.yul\":14531:14537   */\n      dup4\n        /* \"#utility.yul\":14524:14588   */\n      sstore\n        /* \"#utility.yul\":14446:14602   */\n      pop\n        /* \"#utility.yul\":14423:14602   */\n    tag_317:\n        /* \"#utility.yul\":14648:14649   */\n      0x01\n        /* \"#utility.yul\":14644:14645   */\n      0x02\n        /* \"#utility.yul\":14636:14642   */\n      dup9\n        /* \"#utility.yul\":14632:14646   */\n      mul\n        /* \"#utility.yul\":14628:14650   */\n      add\n        /* \"#utility.yul\":14622:14626   */\n      dup9\n        /* \"#utility.yul\":14615:14651   */\n      sstore\n        /* \"#utility.yul\":14051:14661   */\n      pop\n      pop\n      pop\n        /* \"#utility.yul\":14014:14900   */\n    tag_309:\n      pop\n        /* \"#utility.yul\":13606:14906   */\n      pop\n      pop\n      pop\n        /* \"#utility.yul\":13516:14906   */\n      pop\n      pop\n      jump\t// out\n    stop\n\n    sub_0: assembly {\n            /* \"study/chapter04/newContract.sol\":53:416  contract testContract{... */\n          mstore(0x40, 0x80)\n            /* \"study/chapter04/newContract.sol\":99:148  constructor(uint _a) payable{... */\n          mload(0x40)\n          sub(codesize, bytecodeSize)\n          dup1\n          bytecodeSize\n          dup4\n          codecopy\n          dup2\n          dup2\n          add\n          0x40\n          mstore\n          dup2\n          add\n          swap1\n          tag_1\n          swap2\n          swap1\n          tag_2\n          jump\t// in\n        tag_1:\n            /* \"study/chapter04/newContract.sol\":139:141  _a */\n          dup1\n            /* \"study/chapter04/newContract.sol\":137:138  a */\n          0x00\n            /* \"study/chapter04/newContract.sol\":137:141  a=_a */\n          dup2\n          swap1\n          sstore\n          pop\n            /* \"study/chapter04/newContract.sol\":99:148  constructor(uint _a) payable{... */\n          pop\n            /* \"study/chapter04/newContract.sol\":53:416  contract testContract{... */\n          jump(tag_5)\n            /* \"#utility.yul\":88:205   */\n        tag_7:\n            /* \"#utility.yul\":197:198   */\n          0x00\n            /* \"#utility.yul\":194:195   */\n          dup1\n            /* \"#utility.yul\":187:199   */\n          revert\n            /* \"#utility.yul\":334:411   */\n        tag_9:\n            /* \"#utility.yul\":371:378   */\n          0x00\n            /* \"#utility.yul\":400:405   */\n          dup2\n            /* \"#utility.yul\":389:405   */\n          swap1\n          pop\n            /* \"#utility.yul\":334:411   */\n          swap2\n          swap1\n          pop\n          jump\t// out\n            /* \"#utility.yul\":417:539   */\n        tag_10:\n            /* \"#utility.yul\":490:514   */\n          tag_18\n            /* \"#utility.yul\":508:513   */\n          dup2\n            /* \"#utility.yul\":490:514   */\n          tag_9\n          jump\t// in\n        tag_18:\n            /* \"#utility.yul\":483:488   */\n          dup2\n            /* \"#utility.yul\":480:515   */\n          eq\n            /* \"#utility.yul\":470:533   */\n          tag_19\n          jumpi\n            /* \"#utility.yul\":529:530   */\n          0x00\n            /* \"#utility.yul\":526:527   */\n          dup1\n            /* \"#utility.yul\":519:531   */\n          revert\n            /* \"#utility.yul\":470:533   */\n        tag_19:\n            /* \"#utility.yul\":417:539   */\n          pop\n          jump\t// out\n            /* \"#utility.yul\":545:688   */\n        tag_11:\n            /* \"#utility.yul\":602:607   */\n          0x00\n            /* \"#utility.yul\":633:639   */\n          dup2\n            /* \"#utility.yul\":627:640   */\n          mload\n            /* \"#utility.yul\":618:640   */\n          swap1\n          pop\n            /* \"#utility.yul\":649:682   */\n          tag_21\n            /* \"#utility.yul\":676:681   */\n          dup2\n            /* \"#utility.yul\":649:682   */\n          tag_10\n          jump\t// in\n        tag_21:\n            /* \"#utility.yul\":545:688   */\n          swap3\n          swap2\n          pop\n          pop\n          jump\t// out\n            /* \"#utility.yul\":694:1045   */\n        tag_2:\n            /* \"#utility.yul\":764:770   */\n          0x00\n            /* \"#utility.yul\":813:815   */\n          0x20\n            /* \"#utility.yul\":801:810   */\n          dup3\n            /* \"#utility.yul\":792:799   */\n          dup5\n            /* \"#utility.yul\":788:811   */\n          sub\n            /* \"#utility.yul\":784:816   */\n          slt\n            /* \"#utility.yul\":781:900   */\n          iszero\n          tag_23\n          jumpi\n            /* \"#utility.yul\":819:898   */\n          tag_24\n          tag_7\n          jump\t// in\n        tag_24:\n            /* \"#utility.yul\":781:900   */\n        tag_23:\n            /* \"#utility.yul\":939:940   */\n          0x00\n            /* \"#utility.yul\":964:1028   */\n          tag_25\n            /* \"#utility.yul\":1020:1027   */\n          dup5\n            /* \"#utility.yul\":1011:1017   */\n          dup3\n            /* \"#utility.yul\":1000:1009   */\n          dup6\n            /* \"#utility.yul\":996:1018   */\n          add\n            /* \"#utility.yul\":964:1028   */\n          tag_11\n          jump\t// in\n        tag_25:\n            /* \"#utility.yul\":954:1028   */\n          swap2\n          pop\n            /* \"#utility.yul\":910:1038   */\n          pop\n            /* \"#utility.yul\":694:1045   */\n          swap3\n          swap2\n          pop\n          pop\n          jump\t// out\n            /* \"study/chapter04/newContract.sol\":53:416  contract testContract{... */\n        tag_5:\n          dataSize(sub_0)\n          dup1\n          dataOffset(sub_0)\n          0x00\n          codecopy\n          0x00\n          return\n        stop\n\n        sub_0: assembly {\n                /* \"study/chapter04/newContract.sol\":53:416  contract testContract{... */\n              mstore(0x40, 0x80)\n              callvalue\n              dup1\n              iszero\n              tag_1\n              jumpi\n              0x00\n              dup1\n              revert\n            tag_1:\n              pop\n              jumpi(tag_2, lt(calldatasize, 0x04))\n              shr(0xe0, calldataload(0x00))\n              dup1\n              0x0dbe671f\n              eq\n              tag_3\n              jumpi\n              dup1\n              0x12065fe0\n              eq\n              tag_4\n              jumpi\n              dup1\n              0xee919d50\n              eq\n              tag_5\n              jumpi\n              dup1\n              0xf5f5ba72\n              eq\n              tag_6\n              jumpi\n            tag_2:\n              0x00\n              dup1\n              revert\n                /* \"study/chapter04/newContract.sol\":80:93  uint public a */\n            tag_3:\n              tag_7\n              tag_8\n              jump\t// in\n            tag_7:\n              mload(0x40)\n              tag_9\n              swap2\n              swap1\n              tag_10\n              jump\t// in\n            tag_9:\n              mload(0x40)\n              dup1\n              swap2\n              sub\n              swap1\n              return\n                /* \"study/chapter04/newContract.sol\":153:246  function getBalance()external view returns(uint){... */\n            tag_4:\n              tag_11\n              tag_12\n              jump\t// in\n            tag_11:\n              mload(0x40)\n              tag_13\n              swap2\n              swap1\n              tag_10\n              jump\t// in\n            tag_13:\n              mload(0x40)\n              dup1\n              swap2\n              sub\n              swap1\n              return\n                /* \"study/chapter04/newContract.sol\":361:414  function setA(uint _a)external{... */\n            tag_5:\n              tag_14\n              0x04\n              dup1\n              calldatasize\n              sub\n              dup2\n              add\n              swap1\n              tag_15\n              swap2\n              swap1\n              tag_16\n              jump\t// in\n            tag_15:\n              tag_17\n              jump\t// in\n            tag_14:\n              stop\n                /* \"study/chapter04/newContract.sol\":256:356  function getContractName()external pure returns(string memory){... */\n            tag_6:\n              tag_18\n              tag_19\n              jump\t// in\n            tag_18:\n              mload(0x40)\n              tag_20\n              swap2\n              swap1\n              tag_21\n              jump\t// in\n            tag_20:\n              mload(0x40)\n              dup1\n              swap2\n              sub\n              swap1\n              return\n                /* \"study/chapter04/newContract.sol\":80:93  uint public a */\n            tag_8:\n              sload(0x00)\n              dup2\n              jump\t// out\n                /* \"study/chapter04/newContract.sol\":153:246  function getBalance()external view returns(uint){... */\n            tag_12:\n                /* \"study/chapter04/newContract.sol\":196:200  uint */\n              0x00\n                /* \"study/chapter04/newContract.sol\":218:239  address(this).balance */\n              selfbalance\n                /* \"study/chapter04/newContract.sol\":211:239  return address(this).balance */\n              swap1\n              pop\n                /* \"study/chapter04/newContract.sol\":153:246  function getBalance()external view returns(uint){... */\n              swap1\n              jump\t// out\n                /* \"study/chapter04/newContract.sol\":361:414  function setA(uint _a)external{... */\n            tag_17:\n                /* \"study/chapter04/newContract.sol\":405:407  _a */\n              dup1\n                /* \"study/chapter04/newContract.sol\":401:402  a */\n              0x00\n                /* \"study/chapter04/newContract.sol\":401:407  a = _a */\n              dup2\n              swap1\n              sstore\n              pop\n                /* \"study/chapter04/newContract.sol\":361:414  function setA(uint _a)external{... */\n              pop\n              jump\t// out\n                /* \"study/chapter04/newContract.sol\":256:356  function getContractName()external pure returns(string memory){... */\n            tag_19:\n                /* \"study/chapter04/newContract.sol\":304:317  string memory */\n              0x60\n                /* \"study/chapter04/newContract.sol\":328:349  return \"testContract\" */\n              mload(0x40)\n              dup1\n              0x40\n              add\n              0x40\n              mstore\n              dup1\n              0x0c\n              dup2\n              mstore\n              0x20\n              add\n              0x74657374436f6e74726163740000000000000000000000000000000000000000\n              dup2\n              mstore\n              pop\n              swap1\n              pop\n                /* \"study/chapter04/newContract.sol\":256:356  function getContractName()external pure returns(string memory){... */\n              swap1\n              jump\t// out\n                /* \"#utility.yul\":7:84   */\n            tag_25:\n                /* \"#utility.yul\":44:51   */\n              0x00\n                /* \"#utility.yul\":73:78   */\n              dup2\n                /* \"#utility.yul\":62:78   */\n              swap1\n              pop\n                /* \"#utility.yul\":7:84   */\n              swap2\n              swap1\n              pop\n              jump\t// out\n                /* \"#utility.yul\":90:208   */\n            tag_26:\n                /* \"#utility.yul\":177:201   */\n              tag_40\n                /* \"#utility.yul\":195:200   */\n              dup2\n                /* \"#utility.yul\":177:201   */\n              tag_25\n              jump\t// in\n            tag_40:\n                /* \"#utility.yul\":172:175   */\n              dup3\n                /* \"#utility.yul\":165:202   */\n              mstore\n                /* \"#utility.yul\":90:208   */\n              pop\n              pop\n              jump\t// out\n                /* \"#utility.yul\":214:436   */\n            tag_10:\n                /* \"#utility.yul\":307:311   */\n              0x00\n                /* \"#utility.yul\":345:347   */\n              0x20\n                /* \"#utility.yul\":334:343   */\n              dup3\n                /* \"#utility.yul\":330:348   */\n              add\n                /* \"#utility.yul\":322:348   */\n              swap1\n              pop\n                /* \"#utility.yul\":358:429   */\n              tag_42\n                /* \"#utility.yul\":426:427   */\n              0x00\n                /* \"#utility.yul\":415:424   */\n              dup4\n                /* \"#utility.yul\":411:428   */\n              add\n                /* \"#utility.yul\":402:408   */\n              dup5\n                /* \"#utility.yul\":358:429   */\n              tag_26\n              jump\t// in\n            tag_42:\n                /* \"#utility.yul\":214:436   */\n              swap3\n              swap2\n              pop\n              pop\n              jump\t// out\n                /* \"#utility.yul\":523:640   */\n            tag_28:\n                /* \"#utility.yul\":632:633   */\n              0x00\n                /* \"#utility.yul\":629:630   */\n              dup1\n                /* \"#utility.yul\":622:634   */\n              revert\n                /* \"#utility.yul\":769:891   */\n            tag_30:\n                /* \"#utility.yul\":842:866   */\n              tag_47\n                /* \"#utility.yul\":860:865   */\n              dup2\n                /* \"#utility.yul\":842:866   */\n              tag_25\n              jump\t// in\n            tag_47:\n                /* \"#utility.yul\":835:840   */\n              dup2\n                /* \"#utility.yul\":832:867   */\n              eq\n                /* \"#utility.yul\":822:885   */\n              tag_48\n              jumpi\n                /* \"#utility.yul\":881:882   */\n              0x00\n                /* \"#utility.yul\":878:879   */\n              dup1\n                /* \"#utility.yul\":871:883   */\n              revert\n                /* \"#utility.yul\":822:885   */\n            tag_48:\n                /* \"#utility.yul\":769:891   */\n              pop\n              jump\t// out\n                /* \"#utility.yul\":897:1036   */\n            tag_31:\n                /* \"#utility.yul\":943:948   */\n              0x00\n                /* \"#utility.yul\":981:987   */\n              dup2\n                /* \"#utility.yul\":968:988   */\n              calldataload\n                /* \"#utility.yul\":959:988   */\n              swap1\n              pop\n                /* \"#utility.yul\":997:1030   */\n              tag_50\n                /* \"#utility.yul\":1024:1029   */\n              dup2\n                /* \"#utility.yul\":997:1030   */\n              tag_30\n              jump\t// in\n            tag_50:\n                /* \"#utility.yul\":897:1036   */\n              swap3\n              swap2\n              pop\n              pop\n              jump\t// out\n                /* \"#utility.yul\":1042:1371   */\n            tag_16:\n                /* \"#utility.yul\":1101:1107   */\n              0x00\n                /* \"#utility.yul\":1150:1152   */\n              0x20\n                /* \"#utility.yul\":1138:1147   */\n              dup3\n                /* \"#utility.yul\":1129:1136   */\n              dup5\n                /* \"#utility.yul\":1125:1148   */\n              sub\n                /* \"#utility.yul\":1121:1153   */\n              slt\n                /* \"#utility.yul\":1118:1237   */\n              iszero\n              tag_52\n              jumpi\n                /* \"#utility.yul\":1156:1235   */\n              tag_53\n              tag_28\n              jump\t// in\n            tag_53:\n                /* \"#utility.yul\":1118:1237   */\n            tag_52:\n                /* \"#utility.yul\":1276:1277   */\n              0x00\n                /* \"#utility.yul\":1301:1354   */\n              tag_54\n                /* \"#utility.yul\":1346:1353   */\n              dup5\n                /* \"#utility.yul\":1337:1343   */\n              dup3\n                /* \"#utility.yul\":1326:1335   */\n              dup6\n                /* \"#utility.yul\":1322:1344   */\n              add\n                /* \"#utility.yul\":1301:1354   */\n              tag_31\n              jump\t// in\n            tag_54:\n                /* \"#utility.yul\":1291:1354   */\n              swap2\n              pop\n                /* \"#utility.yul\":1247:1364   */\n              pop\n                /* \"#utility.yul\":1042:1371   */\n              swap3\n              swap2\n              pop\n              pop\n              jump\t// out\n                /* \"#utility.yul\":1377:1476   */\n            tag_32:\n                /* \"#utility.yul\":1429:1435   */\n              0x00\n                /* \"#utility.yul\":1463:1468   */\n              dup2\n                /* \"#utility.yul\":1457:1469   */\n              mload\n                /* \"#utility.yul\":1447:1469   */\n              swap1\n              pop\n                /* \"#utility.yul\":1377:1476   */\n              swap2\n              swap1\n              pop\n              jump\t// out\n                /* \"#utility.yul\":1482:1651   */\n            tag_33:\n                /* \"#utility.yul\":1566:1577   */\n              0x00\n                /* \"#utility.yul\":1600:1606   */\n              dup3\n                /* \"#utility.yul\":1595:1598   */\n              dup3\n                /* \"#utility.yul\":1588:1607   */\n              mstore\n                /* \"#utility.yul\":1640:1644   */\n              0x20\n                /* \"#utility.yul\":1635:1638   */\n              dup3\n                /* \"#utility.yul\":1631:1645   */\n              add\n                /* \"#utility.yul\":1616:1645   */\n              swap1\n              pop\n                /* \"#utility.yul\":1482:1651   */\n              swap3\n              swap2\n              pop\n              pop\n              jump\t// out\n                /* \"#utility.yul\":1657:1964   */\n            tag_34:\n                /* \"#utility.yul\":1725:1726   */\n              0x00\n                /* \"#utility.yul\":1735:1848   */\n            tag_58:\n                /* \"#utility.yul\":1749:1755   */\n              dup4\n                /* \"#utility.yul\":1746:1747   */\n              dup2\n                /* \"#utility.yul\":1743:1756   */\n              lt\n                /* \"#utility.yul\":1735:1848   */\n              iszero\n              tag_60\n              jumpi\n                /* \"#utility.yul\":1834:1835   */\n              dup1\n                /* \"#utility.yul\":1829:1832   */\n              dup3\n                /* \"#utility.yul\":1825:1836   */\n              add\n                /* \"#utility.yul\":1819:1837   */\n              mload\n                /* \"#utility.yul\":1815:1816   */\n              dup2\n                /* \"#utility.yul\":1810:1813   */\n              dup5\n                /* \"#utility.yul\":1806:1817   */\n              add\n                /* \"#utility.yul\":1799:1838   */\n              mstore\n                /* \"#utility.yul\":1771:1773   */\n              0x20\n                /* \"#utility.yul\":1768:1769   */\n              dup2\n                /* \"#utility.yul\":1764:1774   */\n              add\n                /* \"#utility.yul\":1759:1774   */\n              swap1\n              pop\n                /* \"#utility.yul\":1735:1848   */\n              jump(tag_58)\n            tag_60:\n                /* \"#utility.yul\":1866:1872   */\n              dup4\n                /* \"#utility.yul\":1863:1864   */\n              dup2\n                /* \"#utility.yul\":1860:1873   */\n              gt\n                /* \"#utility.yul\":1857:1958   */\n              iszero\n              tag_61\n              jumpi\n                /* \"#utility.yul\":1946:1947   */\n              0x00\n                /* \"#utility.yul\":1937:1943   */\n              dup5\n                /* \"#utility.yul\":1932:1935   */\n              dup5\n                /* \"#utility.yul\":1928:1944   */\n              add\n                /* \"#utility.yul\":1921:1948   */\n              mstore\n                /* \"#utility.yul\":1857:1958   */\n            tag_61:\n                /* \"#utility.yul\":1706:1964   */\n              pop\n                /* \"#utility.yul\":1657:1964   */\n              pop\n              pop\n              pop\n              jump\t// out\n                /* \"#utility.yul\":1970:2072   */\n            tag_35:\n                /* \"#utility.yul\":2011:2017   */\n              0x00\n                /* \"#utility.yul\":2062:2064   */\n              0x1f\n                /* \"#utility.yul\":2058:2065   */\n              not\n                /* \"#utility.yul\":2053:2055   */\n              0x1f\n                /* \"#utility.yul\":2046:2051   */\n              dup4\n                /* \"#utility.yul\":2042:2056   */\n              add\n                /* \"#utility.yul\":2038:2066   */\n              and\n                /* \"#utility.yul\":2028:2066   */\n              swap1\n              pop\n                /* \"#utility.yul\":1970:2072   */\n              swap2\n              swap1\n              pop\n              jump\t// out\n                /* \"#utility.yul\":2078:2442   */\n            tag_36:\n                /* \"#utility.yul\":2166:2169   */\n              0x00\n                /* \"#utility.yul\":2194:2233   */\n              tag_64\n                /* \"#utility.yul\":2227:2232   */\n              dup3\n                /* \"#utility.yul\":2194:2233   */\n              tag_32\n              jump\t// in\n            tag_64:\n                /* \"#utility.yul\":2249:2320   */\n              tag_65\n                /* \"#utility.yul\":2313:2319   */\n              dup2\n                /* \"#utility.yul\":2308:2311   */\n              dup6\n                /* \"#utility.yul\":2249:2320   */\n              tag_33\n              jump\t// in\n            tag_65:\n                /* \"#utility.yul\":2242:2320   */\n              swap4\n              pop\n                /* \"#utility.yul\":2329:2381   */\n              tag_66\n                /* \"#utility.yul\":2374:2380   */\n              dup2\n                /* \"#utility.yul\":2369:2372   */\n              dup6\n                /* \"#utility.yul\":2362:2366   */\n              0x20\n                /* \"#utility.yul\":2355:2360   */\n              dup7\n                /* \"#utility.yul\":2351:2367   */\n              add\n                /* \"#utility.yul\":2329:2381   */\n              tag_34\n              jump\t// in\n            tag_66:\n                /* \"#utility.yul\":2406:2435   */\n              tag_67\n                /* \"#utility.yul\":2428:2434   */\n              dup2\n                /* \"#utility.yul\":2406:2435   */\n              tag_35\n              jump\t// in\n            tag_67:\n                /* \"#utility.yul\":2401:2404   */\n              dup5\n                /* \"#utility.yul\":2397:2436   */\n              add\n                /* \"#utility.yul\":2390:2436   */\n              swap2\n              pop\n                /* \"#utility.yul\":2170:2442   */\n              pop\n                /* \"#utility.yul\":2078:2442   */\n              swap3\n              swap2\n              pop\n              pop\n              jump\t// out\n                /* \"#utility.yul\":2448:2761   */\n            tag_21:\n                /* \"#utility.yul\":2561:2565   */\n              0x00\n                /* \"#utility.yul\":2599:2601   */\n              0x20\n                /* \"#utility.yul\":2588:2597   */\n              dup3\n                /* \"#utility.yul\":2584:2602   */\n              add\n                /* \"#utility.yul\":2576:2602   */\n              swap1\n              pop\n                /* \"#utility.yul\":2648:2657   */\n              dup2\n                /* \"#utility.yul\":2642:2646   */\n              dup2\n                /* \"#utility.yul\":2638:2658   */\n              sub\n                /* \"#utility.yul\":2634:2635   */\n              0x00\n                /* \"#utility.yul\":2623:2632   */\n              dup4\n                /* \"#utility.yul\":2619:2636   */\n              add\n                /* \"#utility.yul\":2612:2659   */\n              mstore\n                /* \"#utility.yul\":2676:2754   */\n              tag_69\n                /* \"#utility.yul\":2749:2753   */\n              dup2\n                /* \"#utility.yul\":2740:2746   */\n              dup5\n                /* \"#utility.yul\":2676:2754   */\n              tag_36\n              jump\t// in\n            tag_69:\n                /* \"#utility.yul\":2668:2754   */\n              swap1\n              pop\n                /* \"#utility.yul\":2448:2761   */\n              swap3\n              swap2\n              pop\n              pop\n              jump\t// out\n\n            auxdata: 0xa2646970667358221220b5f85d62343f9763f854b7cf4fc01821733160d2488c6483ca3214789cc526c264736f6c634300080f0033\n        }\n    }\n\n    auxdata: 0xa264697066735822122017aa6a413526af36971c9a0600181fcef7f32d401a9bb8ebe6d01bb42dad5a3364736f6c634300080f0033\n}\n",
				"bytecode": {
					"linkReferences": {},
					"object": "608060405234801561001057600080fd5b506112a9806100206000396000f3fe6080604052600436106100865760003560e01c8063d01bb4d511610059578063d01bb4d514610128578063d118d18714610153578063d46300fd1461017e578063ee919d50146101a9578063fb0c8628146101d257610086565b806312065fe01461008b57806375d0c0dc146100b65780637c000138146100e157806393d4e9a21461010c575b600080fd5b34801561009757600080fd5b506100a06101e9565b6040516100ad9190610703565b60405180910390f35b3480156100c257600080fd5b506100cb6101f1565b6040516100d891906107b7565b60405180910390f35b3480156100ed57600080fd5b506100f661027f565b604051610103919061082e565b60405180910390f35b61012660048036038101906101219190610890565b61030d565b005b34801561013457600080fd5b5061013d610386565b60405161014a91906108fe565b60405180910390f35b34801561015f57600080fd5b506101686103ac565b60405161017591906107b7565b60405180910390f35b34801561018a57600080fd5b5061019361043a565b6040516101a09190610703565b60405180910390f35b3480156101b557600080fd5b506101d060048036038101906101cb9190610890565b6104d1565b005b3480156101de57600080fd5b506101e761055f565b005b600047905090565b600280546101fe90610948565b80601f016020809104026020016040519081016040528092919081815260200182805461022a90610948565b80156102775780601f1061024c57610100808354040283529160200191610277565b820191906000526020600020905b81548152906001019060200180831161025a57829003601f168201915b505050505081565b6004805461028c90610948565b80601f01602080910402602001604051908101604052809291908181526020018280546102b890610948565b80156103055780601f106102da57610100808354040283529160200191610305565b820191906000526020600020905b8154815290600101906020018083116102e857829003601f168201915b505050505081565b80600560405161031c906106dd565b61032691906109be565b6040518091039082f0905080158015610343573d6000803e3d6000fd5b506000806101000a81548173ffffffffffffffffffffffffffffffffffffffff021916908373ffffffffffffffffffffffffffffffffffffffff16021790555050565b600160009054906101000a900473ffffffffffffffffffffffffffffffffffffffff1681565b600380546103b990610948565b80601f01602080910402602001604051908101604052809291908181526020018280546103e590610948565b80156104325780601f1061040757610100808354040283529160200191610432565b820191906000526020600020905b81548152906001019060200180831161041557829003601f168201915b505050505081565b60008060009054906101000a900473ffffffffffffffffffffffffffffffffffffffff1673ffffffffffffffffffffffffffffffffffffffff16630dbe671f6040518163ffffffff1660e01b8152600401602060405180830381865afa1580156104a8573d6000803e3d6000fd5b505050506040513d601f19601f820116820180604052508101906104cc91906109ee565b905090565b60008054906101000a900473ffffffffffffffffffffffffffffffffffffffff1673ffffffffffffffffffffffffffffffffffffffff1663ee919d50826040518263ffffffff1660e01b815260040161052a9190610703565b600060405180830381600087803b15801561054457600080fd5b505af1158015610558573d6000803e3d6000fd5b5050505050565b60008054906101000a900473ffffffffffffffffffffffffffffffffffffffff16600160006101000a81548173ffffffffffffffffffffffffffffffffffffffff021916908373ffffffffffffffffffffffffffffffffffffffff16021790555060008054906101000a900473ffffffffffffffffffffffffffffffffffffffff1673ffffffffffffffffffffffffffffffffffffffff1663f5f5ba726040518163ffffffff1660e01b8152600401600060405180830381865afa15801561062b573d6000803e3d6000fd5b505050506040513d6000823e3d601f19601f820116820180604052508101906106549190610b41565b600290816106629190610d2c565b5060405180604001604052600c8152806020017f74657374436f6e74726163740000000000000000000000000000000000000000815250600390816106a79190610d2c565b50604051806020016106b8906106dd565b6020820181038252601f19601f82011660405250600490816106da9190610e59565b50565b61034880610f2c83390190565b6000819050919050565b6106fd816106ea565b82525050565b600060208201905061071860008301846106f4565b92915050565b600081519050919050565b600082825260208201905092915050565b60005b8381101561075857808201518184015260208101905061073d565b83811115610767576000848401525b50505050565b6000601f19601f8301169050919050565b60006107898261071e565b6107938185610729565b93506107a381856020860161073a565b6107ac8161076d565b840191505092915050565b600060208201905081810360008301526107d1818461077e565b905092915050565b600081519050919050565b600082825260208201905092915050565b6000610800826107d9565b61080a81856107e4565b935061081a81856020860161073a565b6108238161076d565b840191505092915050565b6000602082019050818103600083015261084881846107f5565b905092915050565b6000604051905090565b600080fd5b600080fd5b61086d816106ea565b811461087857600080fd5b50565b60008135905061088a81610864565b92915050565b6000602082840312156108a6576108a561085a565b5b60006108b48482850161087b565b91505092915050565b600073ffffffffffffffffffffffffffffffffffffffff82169050919050565b60006108e8826108bd565b9050919050565b6108f8816108dd565b82525050565b600060208201905061091360008301846108ef565b92915050565b7f4e487b7100000000000000000000000000000000000000000000000000000000600052602260045260246000fd5b6000600282049050600182168061096057607f821691505b60208210810361097357610972610919565b5b50919050565b6000819050919050565b6000819050919050565b60006109a86109a361099e84610979565b610983565b6106ea565b9050919050565b6109b88161098d565b82525050565b60006020820190506109d360008301846109af565b92915050565b6000815190506109e881610864565b92915050565b600060208284031215610a0457610a0361085a565b5b6000610a12848285016109d9565b91505092915050565b600080fd5b600080fd5b7f4e487b7100000000000000000000000000000000000000000000000000000000600052604160045260246000fd5b610a5d8261076d565b810181811067ffffffffffffffff82111715610a7c57610a7b610a25565b5b80604052505050565b6000610a8f610850565b9050610a9b8282610a54565b919050565b600067ffffffffffffffff821115610abb57610aba610a25565b5b610ac48261076d565b9050602081019050919050565b6000610ae4610adf84610aa0565b610a85565b905082815260208101848484011115610b0057610aff610a20565b5b610b0b84828561073a565b509392505050565b600082601f830112610b2857610b27610a1b565b5b8151610b38848260208601610ad1565b91505092915050565b600060208284031215610b5757610b5661085a565b5b600082015167ffffffffffffffff811115610b7557610b7461085f565b5b610b8184828501610b13565b91505092915050565b60008190508160005260206000209050919050565b60006020601f8301049050919050565b600082821b905092915050565b600060088302610bec7fffffffffffffffffffffffffffffffffffffffffffffffffffffffffffffffff82610baf565b610bf68683610baf565b95508019841693508086168417925050509392505050565b6000610c29610c24610c1f846106ea565b610983565b6106ea565b9050919050565b6000819050919050565b610c4383610c0e565b610c57610c4f82610c30565b848454610bbc565b825550505050565b600090565b610c6c610c5f565b610c77818484610c3a565b505050565b5b81811015610c9b57610c90600082610c64565b600181019050610c7d565b5050565b601f821115610ce057610cb181610b8a565b610cba84610b9f565b81016020851015610cc9578190505b610cdd610cd585610b9f565b830182610c7c565b50505b505050565b600082821c905092915050565b6000610d0360001984600802610ce5565b1980831691505092915050565b6000610d1c8383610cf2565b9150826002028217905092915050565b610d358261071e565b67ffffffffffffffff811115610d4e57610d4d610a25565b5b610d588254610948565b610d63828285610c9f565b600060209050601f831160018114610d965760008415610d84578287015190505b610d8e8582610d10565b865550610df6565b601f198416610da486610b8a565b60005b82811015610dcc57848901518255600182019150602085019450602081019050610da7565b86831015610de95784890151610de5601f891682610cf2565b8355505b6001600288020188555050505b505050505050565b60008190508160005260206000209050919050565b601f821115610e5457610e2581610dfe565b610e2e84610b9f565b81016020851015610e3d578190505b610e51610e4985610b9f565b830182610c7c565b50505b505050565b610e62826107d9565b67ffffffffffffffff811115610e7b57610e7a610a25565b5b610e858254610948565b610e90828285610e13565b600060209050601f831160018114610ec35760008415610eb1578287015190505b610ebb8582610d10565b865550610f23565b601f198416610ed186610dfe565b60005b82811015610ef957848901518255600182019150602085019450602081019050610ed4565b86831015610f165784890151610f12601f891682610cf2565b8355505b6001600288020188555050505b50505050505056fe60806040526040516103483803806103488339818101604052810190610025919061006d565b806000819055505061009a565b600080fd5b6000819050919050565b61004a81610037565b811461005557600080fd5b50565b60008151905061006781610041565b92915050565b60006020828403121561008357610082610032565b5b600061009184828501610058565b91505092915050565b61029f806100a96000396000f3fe608060405234801561001057600080fd5b506004361061004c5760003560e01c80630dbe671f1461005157806312065fe01461006f578063ee919d501461008d578063f5f5ba72146100a9575b600080fd5b6100596100c7565b6040516100669190610135565b60405180910390f35b6100776100cd565b6040516100849190610135565b60405180910390f35b6100a760048036038101906100a29190610181565b6100d5565b005b6100b16100df565b6040516100be9190610247565b60405180910390f35b60005481565b600047905090565b8060008190555050565b60606040518060400160405280600c81526020017f74657374436f6e74726163740000000000000000000000000000000000000000815250905090565b6000819050919050565b61012f8161011c565b82525050565b600060208201905061014a6000830184610126565b92915050565b600080fd5b61015e8161011c565b811461016957600080fd5b50565b60008135905061017b81610155565b92915050565b60006020828403121561019757610196610150565b5b60006101a58482850161016c565b91505092915050565b600081519050919050565b600082825260208201905092915050565b60005b838110156101e85780820151818401526020810190506101cd565b838111156101f7576000848401525b50505050565b6000601f19601f8301169050919050565b6000610219826101ae565b61022381856101b9565b93506102338185602086016101ca565b61023c816101fd565b840191505092915050565b60006020820190508181036000830152610261818461020e565b90509291505056fea2646970667358221220b5f85d62343f9763f854b7cf4fc01821733160d2488c6483ca3214789cc526c264736f6c634300080f0033a264697066735822122017aa6a413526af36971c9a0600181fcef7f32d401a9bb8ebe6d01bb42dad5a3364736f6c634300080f0033",
					"opcodes": "PUSH1 0x80 PUSH1 0x40 MSTORE CALLVALUE DUP1 ISZERO PUSH2 0x10 JUMPI PUSH1 0x0 DUP1 REVERT JUMPDEST POP PUSH2 0x12A9 DUP1 PUSH2 0x20 PUSH1 0x0 CODECOPY PUSH1 0x0 RETURN INVALID PUSH1 0x80 PUSH1 0x40 MSTORE PUSH1 0x4 CALLDATASIZE LT PUSH2 0x86 JUMPI PUSH1 0x0 CALLDATALOAD PUSH1 0xE0 SHR DUP1 PUSH4 0xD01BB4D5 GT PUSH2 0x59 JUMPI DUP1 PUSH4 0xD01BB4D5 EQ PUSH2 0x128 JUMPI DUP1 PUSH4 0xD118D187 EQ PUSH2 0x153 JUMPI DUP1 PUSH4 0xD46300FD EQ PUSH2 0x17E JUMPI DUP1 PUSH4 0xEE919D50 EQ PUSH2 0x1A9 JUMPI DUP1 PUSH4 0xFB0C8628 EQ PUSH2 0x1D2 JUMPI PUSH2 0x86 JUMP JUMPDEST DUP1 PUSH4 0x12065FE0 EQ PUSH2 0x8B JUMPI DUP1 PUSH4 0x75D0C0DC EQ PUSH2 0xB6 JUMPI DUP1 PUSH4 0x7C000138 EQ PUSH2 0xE1 JUMPI DUP1 PUSH4 0x93D4E9A2 EQ PUSH2 0x10C JUMPI JUMPDEST PUSH1 0x0 DUP1 REVERT JUMPDEST CALLVALUE DUP1 ISZERO PUSH2 0x97 JUMPI PUSH1 0x0 DUP1 REVERT JUMPDEST POP PUSH2 0xA0 PUSH2 0x1E9 JUMP JUMPDEST PUSH1 0x40 MLOAD PUSH2 0xAD SWAP2 SWAP1 PUSH2 0x703 JUMP JUMPDEST PUSH1 0x40 MLOAD DUP1 SWAP2 SUB SWAP1 RETURN JUMPDEST CALLVALUE DUP1 ISZERO PUSH2 0xC2 JUMPI PUSH1 0x0 DUP1 REVERT JUMPDEST POP PUSH2 0xCB PUSH2 0x1F1 JUMP JUMPDEST PUSH1 0x40 MLOAD PUSH2 0xD8 SWAP2 SWAP1 PUSH2 0x7B7 JUMP JUMPDEST PUSH1 0x40 MLOAD DUP1 SWAP2 SUB SWAP1 RETURN JUMPDEST CALLVALUE DUP1 ISZERO PUSH2 0xED JUMPI PUSH1 0x0 DUP1 REVERT JUMPDEST POP PUSH2 0xF6 PUSH2 0x27F JUMP JUMPDEST PUSH1 0x40 MLOAD PUSH2 0x103 SWAP2 SWAP1 PUSH2 0x82E JUMP JUMPDEST PUSH1 0x40 MLOAD DUP1 SWAP2 SUB SWAP1 RETURN JUMPDEST PUSH2 0x126 PUSH1 0x4 DUP1 CALLDATASIZE SUB DUP2 ADD SWAP1 PUSH2 0x121 SWAP2 SWAP1 PUSH2 0x890 JUMP JUMPDEST PUSH2 0x30D JUMP JUMPDEST STOP JUMPDEST CALLVALUE DUP1 ISZERO PUSH2 0x134 JUMPI PUSH1 0x0 DUP1 REVERT JUMPDEST POP PUSH2 0x13D PUSH2 0x386 JUMP JUMPDEST PUSH1 0x40 MLOAD PUSH2 0x14A SWAP2 SWAP1 PUSH2 0x8FE JUMP JUMPDEST PUSH1 0x40 MLOAD DUP1 SWAP2 SUB SWAP1 RETURN JUMPDEST CALLVALUE DUP1 ISZERO PUSH2 0x15F JUMPI PUSH1 0x0 DUP1 REVERT JUMPDEST POP PUSH2 0x168 PUSH2 0x3AC JUMP JUMPDEST PUSH1 0x40 MLOAD PUSH2 0x175 SWAP2 SWAP1 PUSH2 0x7B7 JUMP JUMPDEST PUSH1 0x40 MLOAD DUP1 SWAP2 SUB SWAP1 RETURN JUMPDEST CALLVALUE DUP1 ISZERO PUSH2 0x18A JUMPI PUSH1 0x0 DUP1 REVERT JUMPDEST POP PUSH2 0x193 PUSH2 0x43A JUMP JUMPDEST PUSH1 0x40 MLOAD PUSH2 0x1A0 SWAP2 SWAP1 PUSH2 0x703 JUMP JUMPDEST PUSH1 0x40 MLOAD DUP1 SWAP2 SUB SWAP1 RETURN JUMPDEST CALLVALUE DUP1 ISZERO PUSH2 0x1B5 JUMPI PUSH1 0x0 DUP1 REVERT JUMPDEST POP PUSH2 0x1D0 PUSH1 0x4 DUP1 CALLDATASIZE SUB DUP2 ADD SWAP1 PUSH2 0x1CB SWAP2 SWAP1 PUSH2 0x890 JUMP JUMPDEST PUSH2 0x4D1 JUMP JUMPDEST STOP JUMPDEST CALLVALUE DUP1 ISZERO PUSH2 0x1DE JUMPI PUSH1 0x0 DUP1 REVERT JUMPDEST POP PUSH2 0x1E7 PUSH2 0x55F JUMP JUMPDEST STOP JUMPDEST PUSH1 0x0 SELFBALANCE SWAP1 POP SWAP1 JUMP JUMPDEST PUSH1 0x2 DUP1 SLOAD PUSH2 0x1FE SWAP1 PUSH2 0x948 JUMP JUMPDEST DUP1 PUSH1 0x1F ADD PUSH1 0x20 DUP1 SWAP2 DIV MUL PUSH1 0x20 ADD PUSH1 0x40 MLOAD SWAP1 DUP2 ADD PUSH1 0x40 MSTORE DUP1 SWAP3 SWAP2 SWAP1 DUP2 DUP2 MSTORE PUSH1 0x20 ADD DUP3 DUP1 SLOAD PUSH2 0x22A SWAP1 PUSH2 0x948 JUMP JUMPDEST DUP1 ISZERO PUSH2 0x277 JUMPI DUP1 PUSH1 0x1F LT PUSH2 0x24C JUMPI PUSH2 0x100 DUP1 DUP4 SLOAD DIV MUL DUP4 MSTORE SWAP2 PUSH1 0x20 ADD SWAP2 PUSH2 0x277 JUMP JUMPDEST DUP3 ADD SWAP2 SWAP1 PUSH1 0x0 MSTORE PUSH1 0x20 PUSH1 0x0 KECCAK256 SWAP1 JUMPDEST DUP2 SLOAD DUP2 MSTORE SWAP1 PUSH1 0x1 ADD SWAP1 PUSH1 0x20 ADD DUP1 DUP4 GT PUSH2 0x25A JUMPI DUP3 SWAP1 SUB PUSH1 0x1F AND DUP3 ADD SWAP2 JUMPDEST POP POP POP POP POP DUP2 JUMP JUMPDEST PUSH1 0x4 DUP1 SLOAD PUSH2 0x28C SWAP1 PUSH2 0x948 JUMP JUMPDEST DUP1 PUSH1 0x1F ADD PUSH1 0x20 DUP1 SWAP2 DIV MUL PUSH1 0x20 ADD PUSH1 0x40 MLOAD SWAP1 DUP2 ADD PUSH1 0x40 MSTORE DUP1 SWAP3 SWAP2 SWAP1 DUP2 DUP2 MSTORE PUSH1 0x20 ADD DUP3 DUP1 SLOAD PUSH2 0x2B8 SWAP1 PUSH2 0x948 JUMP JUMPDEST DUP1 ISZERO PUSH2 0x305 JUMPI DUP1 PUSH1 0x1F LT PUSH2 0x2DA JUMPI PUSH2 0x100 DUP1 DUP4 SLOAD DIV MUL DUP4 MSTORE SWAP2 PUSH1 0x20 ADD SWAP2 PUSH2 0x305 JUMP JUMPDEST DUP3 ADD SWAP2 SWAP1 PUSH1 0x0 MSTORE PUSH1 0x20 PUSH1 0x0 KECCAK256 SWAP1 JUMPDEST DUP2 SLOAD DUP2 MSTORE SWAP1 PUSH1 0x1 ADD SWAP1 PUSH1 0x20 ADD DUP1 DUP4 GT PUSH2 0x2E8 JUMPI DUP3 SWAP1 SUB PUSH1 0x1F AND DUP3 ADD SWAP2 JUMPDEST POP POP POP POP POP DUP2 JUMP JUMPDEST DUP1 PUSH1 0x5 PUSH1 0x40 MLOAD PUSH2 0x31C SWAP1 PUSH2 0x6DD JUMP JUMPDEST PUSH2 0x326 SWAP2 SWAP1 PUSH2 0x9BE JUMP JUMPDEST PUSH1 0x40 MLOAD DUP1 SWAP2 SUB SWAP1 DUP3 CREATE SWAP1 POP DUP1 ISZERO DUP1 ISZERO PUSH2 0x343 JUMPI RETURNDATASIZE PUSH1 0x0 DUP1 RETURNDATACOPY RETURNDATASIZE PUSH1 0x0 REVERT JUMPDEST POP PUSH1 0x0 DUP1 PUSH2 0x100 EXP DUP2 SLOAD DUP2 PUSH20 0xFFFFFFFFFFFFFFFFFFFFFFFFFFFFFFFFFFFFFFFF MUL NOT AND SWAP1 DUP4 PUSH20 0xFFFFFFFFFFFFFFFFFFFFFFFFFFFFFFFFFFFFFFFF AND MUL OR SWAP1 SSTORE POP POP JUMP JUMPDEST PUSH1 0x1 PUSH1 0x0 SWAP1 SLOAD SWAP1 PUSH2 0x100 EXP SWAP1 DIV PUSH20 0xFFFFFFFFFFFFFFFFFFFFFFFFFFFFFFFFFFFFFFFF AND DUP2 JUMP JUMPDEST PUSH1 0x3 DUP1 SLOAD PUSH2 0x3B9 SWAP1 PUSH2 0x948 JUMP JUMPDEST DUP1 PUSH1 0x1F ADD PUSH1 0x20 DUP1 SWAP2 DIV MUL PUSH1 0x20 ADD PUSH1 0x40 MLOAD SWAP1 DUP2 ADD PUSH1 0x40 MSTORE DUP1 SWAP3 SWAP2 SWAP1 DUP2 DUP2 MSTORE PUSH1 0x20 ADD DUP3 DUP1 SLOAD PUSH2 0x3E5 SWAP1 PUSH2 0x948 JUMP JUMPDEST DUP1 ISZERO PUSH2 0x432 JUMPI DUP1 PUSH1 0x1F LT PUSH2 0x407 JUMPI PUSH2 0x100 DUP1 DUP4 SLOAD DIV MUL DUP4 MSTORE SWAP2 PUSH1 0x20 ADD SWAP2 PUSH2 0x432 JUMP JUMPDEST DUP3 ADD SWAP2 SWAP1 PUSH1 0x0 MSTORE PUSH1 0x20 PUSH1 0x0 KECCAK256 SWAP1 JUMPDEST DUP2 SLOAD DUP2 MSTORE SWAP1 PUSH1 0x1 ADD SWAP1 PUSH1 0x20 ADD DUP1 DUP4 GT PUSH2 0x415 JUMPI DUP3 SWAP1 SUB PUSH1 0x1F AND DUP3 ADD SWAP2 JUMPDEST POP POP POP POP POP DUP2 JUMP JUMPDEST PUSH1 0x0 DUP1 PUSH1 0x0 SWAP1 SLOAD SWAP1 PUSH2 0x100 EXP SWAP1 DIV PUSH20 0xFFFFFFFFFFFFFFFFFFFFFFFFFFFFFFFFFFFFFFFF AND PUSH20 0xFFFFFFFFFFFFFFFFFFFFFFFFFFFFFFFFFFFFFFFF AND PUSH4 0xDBE671F PUSH1 0x40 MLOAD DUP2 PUSH4 0xFFFFFFFF AND PUSH1 0xE0 SHL DUP2 MSTORE PUSH1 0x4 ADD PUSH1 0x20 PUSH1 0x40 MLOAD DUP1 DUP4 SUB DUP2 DUP7 GAS STATICCALL ISZERO DUP1 ISZERO PUSH2 0x4A8 JUMPI RETURNDATASIZE PUSH1 0x0 DUP1 RETURNDATACOPY RETURNDATASIZE PUSH1 0x0 REVERT JUMPDEST POP POP POP POP PUSH1 0x40 MLOAD RETURNDATASIZE PUSH1 0x1F NOT PUSH1 0x1F DUP3 ADD AND DUP3 ADD DUP1 PUSH1 0x40 MSTORE POP DUP2 ADD SWAP1 PUSH2 0x4CC SWAP2 SWAP1 PUSH2 0x9EE JUMP JUMPDEST SWAP1 POP SWAP1 JUMP JUMPDEST PUSH1 0x0 DUP1 SLOAD SWAP1 PUSH2 0x100 EXP SWAP1 DIV PUSH20 0xFFFFFFFFFFFFFFFFFFFFFFFFFFFFFFFFFFFFFFFF AND PUSH20 0xFFFFFFFFFFFFFFFFFFFFFFFFFFFFFFFFFFFFFFFF AND PUSH4 0xEE919D50 DUP3 PUSH1 0x40 MLOAD DUP3 PUSH4 0xFFFFFFFF AND PUSH1 0xE0 SHL DUP2 MSTORE PUSH1 0x4 ADD PUSH2 0x52A SWAP2 SWAP1 PUSH2 0x703 JUMP JUMPDEST PUSH1 0x0 PUSH1 0x40 MLOAD DUP1 DUP4 SUB DUP2 PUSH1 0x0 DUP8 DUP1 EXTCODESIZE ISZERO DUP1 ISZERO PUSH2 0x544 JUMPI PUSH1 0x0 DUP1 REVERT JUMPDEST POP GAS CALL ISZERO DUP1 ISZERO PUSH2 0x558 JUMPI RETURNDATASIZE PUSH1 0x0 DUP1 RETURNDATACOPY RETURNDATASIZE PUSH1 0x0 REVERT JUMPDEST POP POP POP POP POP JUMP JUMPDEST PUSH1 0x0 DUP1 SLOAD SWAP1 PUSH2 0x100 EXP SWAP1 DIV PUSH20 0xFFFFFFFFFFFFFFFFFFFFFFFFFFFFFFFFFFFFFFFF AND PUSH1 0x1 PUSH1 0x0 PUSH2 0x100 EXP DUP2 SLOAD DUP2 PUSH20 0xFFFFFFFFFFFFFFFFFFFFFFFFFFFFFFFFFFFFFFFF MUL NOT AND SWAP1 DUP4 PUSH20 0xFFFFFFFFFFFFFFFFFFFFFFFFFFFFFFFFFFFFFFFF AND MUL OR SWAP1 SSTORE POP PUSH1 0x0 DUP1 SLOAD SWAP1 PUSH2 0x100 EXP SWAP1 DIV PUSH20 0xFFFFFFFFFFFFFFFFFFFFFFFFFFFFFFFFFFFFFFFF AND PUSH20 0xFFFFFFFFFFFFFFFFFFFFFFFFFFFFFFFFFFFFFFFF AND PUSH4 0xF5F5BA72 PUSH1 0x40 MLOAD DUP2 PUSH4 0xFFFFFFFF AND PUSH1 0xE0 SHL DUP2 MSTORE PUSH1 0x4 ADD PUSH1 0x0 PUSH1 0x40 MLOAD DUP1 DUP4 SUB DUP2 DUP7 GAS STATICCALL ISZERO DUP1 ISZERO PUSH2 0x62B JUMPI RETURNDATASIZE PUSH1 0x0 DUP1 RETURNDATACOPY RETURNDATASIZE PUSH1 0x0 REVERT JUMPDEST POP POP POP POP PUSH1 0x40 MLOAD RETURNDATASIZE PUSH1 0x0 DUP3 RETURNDATACOPY RETURNDATASIZE PUSH1 0x1F NOT PUSH1 0x1F DUP3 ADD AND DUP3 ADD DUP1 PUSH1 0x40 MSTORE POP DUP2 ADD SWAP1 PUSH2 0x654 SWAP2 SWAP1 PUSH2 0xB41 JUMP JUMPDEST PUSH1 0x2 SWAP1 DUP2 PUSH2 0x662 SWAP2 SWAP1 PUSH2 0xD2C JUMP JUMPDEST POP PUSH1 0x40 MLOAD DUP1 PUSH1 0x40 ADD PUSH1 0x40 MSTORE PUSH1 0xC DUP2 MSTORE DUP1 PUSH1 0x20 ADD PUSH32 0x74657374436F6E74726163740000000000000000000000000000000000000000 DUP2 MSTORE POP PUSH1 0x3 SWAP1 DUP2 PUSH2 0x6A7 SWAP2 SWAP1 PUSH2 0xD2C JUMP JUMPDEST POP PUSH1 0x40 MLOAD DUP1 PUSH1 0x20 ADD PUSH2 0x6B8 SWAP1 PUSH2 0x6DD JUMP JUMPDEST PUSH1 0x20 DUP3 ADD DUP2 SUB DUP3 MSTORE PUSH1 0x1F NOT PUSH1 0x1F DUP3 ADD AND PUSH1 0x40 MSTORE POP PUSH1 0x4 SWAP1 DUP2 PUSH2 0x6DA SWAP2 SWAP1 PUSH2 0xE59 JUMP JUMPDEST POP JUMP JUMPDEST PUSH2 0x348 DUP1 PUSH2 0xF2C DUP4 CODECOPY ADD SWAP1 JUMP JUMPDEST PUSH1 0x0 DUP2 SWAP1 POP SWAP2 SWAP1 POP JUMP JUMPDEST PUSH2 0x6FD DUP2 PUSH2 0x6EA JUMP JUMPDEST DUP3 MSTORE POP POP JUMP JUMPDEST PUSH1 0x0 PUSH1 0x20 DUP3 ADD SWAP1 POP PUSH2 0x718 PUSH1 0x0 DUP4 ADD DUP5 PUSH2 0x6F4 JUMP JUMPDEST SWAP3 SWAP2 POP POP JUMP JUMPDEST PUSH1 0x0 DUP2 MLOAD SWAP1 POP SWAP2 SWAP1 POP JUMP JUMPDEST PUSH1 0x0 DUP3 DUP3 MSTORE PUSH1 0x20 DUP3 ADD SWAP1 POP SWAP3 SWAP2 POP POP JUMP JUMPDEST PUSH1 0x0 JUMPDEST DUP4 DUP2 LT ISZERO PUSH2 0x758 JUMPI DUP1 DUP3 ADD MLOAD DUP2 DUP5 ADD MSTORE PUSH1 0x20 DUP2 ADD SWAP1 POP PUSH2 0x73D JUMP JUMPDEST DUP4 DUP2 GT ISZERO PUSH2 0x767 JUMPI PUSH1 0x0 DUP5 DUP5 ADD MSTORE JUMPDEST POP POP POP POP JUMP JUMPDEST PUSH1 0x0 PUSH1 0x1F NOT PUSH1 0x1F DUP4 ADD AND SWAP1 POP SWAP2 SWAP1 POP JUMP JUMPDEST PUSH1 0x0 PUSH2 0x789 DUP3 PUSH2 0x71E JUMP JUMPDEST PUSH2 0x793 DUP2 DUP6 PUSH2 0x729 JUMP JUMPDEST SWAP4 POP PUSH2 0x7A3 DUP2 DUP6 PUSH1 0x20 DUP7 ADD PUSH2 0x73A JUMP JUMPDEST PUSH2 0x7AC DUP2 PUSH2 0x76D JUMP JUMPDEST DUP5 ADD SWAP2 POP POP SWAP3 SWAP2 POP POP JUMP JUMPDEST PUSH1 0x0 PUSH1 0x20 DUP3 ADD SWAP1 POP DUP2 DUP2 SUB PUSH1 0x0 DUP4 ADD MSTORE PUSH2 0x7D1 DUP2 DUP5 PUSH2 0x77E JUMP JUMPDEST SWAP1 POP SWAP3 SWAP2 POP POP JUMP JUMPDEST PUSH1 0x0 DUP2 MLOAD SWAP1 POP SWAP2 SWAP1 POP JUMP JUMPDEST PUSH1 0x0 DUP3 DUP3 MSTORE PUSH1 0x20 DUP3 ADD SWAP1 POP SWAP3 SWAP2 POP POP JUMP JUMPDEST PUSH1 0x0 PUSH2 0x800 DUP3 PUSH2 0x7D9 JUMP JUMPDEST PUSH2 0x80A DUP2 DUP6 PUSH2 0x7E4 JUMP JUMPDEST SWAP4 POP PUSH2 0x81A DUP2 DUP6 PUSH1 0x20 DUP7 ADD PUSH2 0x73A JUMP JUMPDEST PUSH2 0x823 DUP2 PUSH2 0x76D JUMP JUMPDEST DUP5 ADD SWAP2 POP POP SWAP3 SWAP2 POP POP JUMP JUMPDEST PUSH1 0x0 PUSH1 0x20 DUP3 ADD SWAP1 POP DUP2 DUP2 SUB PUSH1 0x0 DUP4 ADD MSTORE PUSH2 0x848 DUP2 DUP5 PUSH2 0x7F5 JUMP JUMPDEST SWAP1 POP SWAP3 SWAP2 POP POP JUMP JUMPDEST PUSH1 0x0 PUSH1 0x40 MLOAD SWAP1 POP SWAP1 JUMP JUMPDEST PUSH1 0x0 DUP1 REVERT JUMPDEST PUSH1 0x0 DUP1 REVERT JUMPDEST PUSH2 0x86D DUP2 PUSH2 0x6EA JUMP JUMPDEST DUP2 EQ PUSH2 0x878 JUMPI PUSH1 0x0 DUP1 REVERT JUMPDEST POP JUMP JUMPDEST PUSH1 0x0 DUP2 CALLDATALOAD SWAP1 POP PUSH2 0x88A DUP2 PUSH2 0x864 JUMP JUMPDEST SWAP3 SWAP2 POP POP JUMP JUMPDEST PUSH1 0x0 PUSH1 0x20 DUP3 DUP5 SUB SLT ISZERO PUSH2 0x8A6 JUMPI PUSH2 0x8A5 PUSH2 0x85A JUMP JUMPDEST JUMPDEST PUSH1 0x0 PUSH2 0x8B4 DUP5 DUP3 DUP6 ADD PUSH2 0x87B JUMP JUMPDEST SWAP2 POP POP SWAP3 SWAP2 POP POP JUMP JUMPDEST PUSH1 0x0 PUSH20 0xFFFFFFFFFFFFFFFFFFFFFFFFFFFFFFFFFFFFFFFF DUP3 AND SWAP1 POP SWAP2 SWAP1 POP JUMP JUMPDEST PUSH1 0x0 PUSH2 0x8E8 DUP3 PUSH2 0x8BD JUMP JUMPDEST SWAP1 POP SWAP2 SWAP1 POP JUMP JUMPDEST PUSH2 0x8F8 DUP2 PUSH2 0x8DD JUMP JUMPDEST DUP3 MSTORE POP POP JUMP JUMPDEST PUSH1 0x0 PUSH1 0x20 DUP3 ADD SWAP1 POP PUSH2 0x913 PUSH1 0x0 DUP4 ADD DUP5 PUSH2 0x8EF JUMP JUMPDEST SWAP3 SWAP2 POP POP JUMP JUMPDEST PUSH32 0x4E487B7100000000000000000000000000000000000000000000000000000000 PUSH1 0x0 MSTORE PUSH1 0x22 PUSH1 0x4 MSTORE PUSH1 0x24 PUSH1 0x0 REVERT JUMPDEST PUSH1 0x0 PUSH1 0x2 DUP3 DIV SWAP1 POP PUSH1 0x1 DUP3 AND DUP1 PUSH2 0x960 JUMPI PUSH1 0x7F DUP3 AND SWAP2 POP JUMPDEST PUSH1 0x20 DUP3 LT DUP2 SUB PUSH2 0x973 JUMPI PUSH2 0x972 PUSH2 0x919 JUMP JUMPDEST JUMPDEST POP SWAP2 SWAP1 POP JUMP JUMPDEST PUSH1 0x0 DUP2 SWAP1 POP SWAP2 SWAP1 POP JUMP JUMPDEST PUSH1 0x0 DUP2 SWAP1 POP SWAP2 SWAP1 POP JUMP JUMPDEST PUSH1 0x0 PUSH2 0x9A8 PUSH2 0x9A3 PUSH2 0x99E DUP5 PUSH2 0x979 JUMP JUMPDEST PUSH2 0x983 JUMP JUMPDEST PUSH2 0x6EA JUMP JUMPDEST SWAP1 POP SWAP2 SWAP1 POP JUMP JUMPDEST PUSH2 0x9B8 DUP2 PUSH2 0x98D JUMP JUMPDEST DUP3 MSTORE POP POP JUMP JUMPDEST PUSH1 0x0 PUSH1 0x20 DUP3 ADD SWAP1 POP PUSH2 0x9D3 PUSH1 0x0 DUP4 ADD DUP5 PUSH2 0x9AF JUMP JUMPDEST SWAP3 SWAP2 POP POP JUMP JUMPDEST PUSH1 0x0 DUP2 MLOAD SWAP1 POP PUSH2 0x9E8 DUP2 PUSH2 0x864 JUMP JUMPDEST SWAP3 SWAP2 POP POP JUMP JUMPDEST PUSH1 0x0 PUSH1 0x20 DUP3 DUP5 SUB SLT ISZERO PUSH2 0xA04 JUMPI PUSH2 0xA03 PUSH2 0x85A JUMP JUMPDEST JUMPDEST PUSH1 0x0 PUSH2 0xA12 DUP5 DUP3 DUP6 ADD PUSH2 0x9D9 JUMP JUMPDEST SWAP2 POP POP SWAP3 SWAP2 POP POP JUMP JUMPDEST PUSH1 0x0 DUP1 REVERT JUMPDEST PUSH1 0x0 DUP1 REVERT JUMPDEST PUSH32 0x4E487B7100000000000000000000000000000000000000000000000000000000 PUSH1 0x0 MSTORE PUSH1 0x41 PUSH1 0x4 MSTORE PUSH1 0x24 PUSH1 0x0 REVERT JUMPDEST PUSH2 0xA5D DUP3 PUSH2 0x76D JUMP JUMPDEST DUP2 ADD DUP2 DUP2 LT PUSH8 0xFFFFFFFFFFFFFFFF DUP3 GT OR ISZERO PUSH2 0xA7C JUMPI PUSH2 0xA7B PUSH2 0xA25 JUMP JUMPDEST JUMPDEST DUP1 PUSH1 0x40 MSTORE POP POP POP JUMP JUMPDEST PUSH1 0x0 PUSH2 0xA8F PUSH2 0x850 JUMP JUMPDEST SWAP1 POP PUSH2 0xA9B DUP3 DUP3 PUSH2 0xA54 JUMP JUMPDEST SWAP2 SWAP1 POP JUMP JUMPDEST PUSH1 0x0 PUSH8 0xFFFFFFFFFFFFFFFF DUP3 GT ISZERO PUSH2 0xABB JUMPI PUSH2 0xABA PUSH2 0xA25 JUMP JUMPDEST JUMPDEST PUSH2 0xAC4 DUP3 PUSH2 0x76D JUMP JUMPDEST SWAP1 POP PUSH1 0x20 DUP2 ADD SWAP1 POP SWAP2 SWAP1 POP JUMP JUMPDEST PUSH1 0x0 PUSH2 0xAE4 PUSH2 0xADF DUP5 PUSH2 0xAA0 JUMP JUMPDEST PUSH2 0xA85 JUMP JUMPDEST SWAP1 POP DUP3 DUP2 MSTORE PUSH1 0x20 DUP2 ADD DUP5 DUP5 DUP5 ADD GT ISZERO PUSH2 0xB00 JUMPI PUSH2 0xAFF PUSH2 0xA20 JUMP JUMPDEST JUMPDEST PUSH2 0xB0B DUP5 DUP3 DUP6 PUSH2 0x73A JUMP JUMPDEST POP SWAP4 SWAP3 POP POP POP JUMP JUMPDEST PUSH1 0x0 DUP3 PUSH1 0x1F DUP4 ADD SLT PUSH2 0xB28 JUMPI PUSH2 0xB27 PUSH2 0xA1B JUMP JUMPDEST JUMPDEST DUP2 MLOAD PUSH2 0xB38 DUP5 DUP3 PUSH1 0x20 DUP7 ADD PUSH2 0xAD1 JUMP JUMPDEST SWAP2 POP POP SWAP3 SWAP2 POP POP JUMP JUMPDEST PUSH1 0x0 PUSH1 0x20 DUP3 DUP5 SUB SLT ISZERO PUSH2 0xB57 JUMPI PUSH2 0xB56 PUSH2 0x85A JUMP JUMPDEST JUMPDEST PUSH1 0x0 DUP3 ADD MLOAD PUSH8 0xFFFFFFFFFFFFFFFF DUP2 GT ISZERO PUSH2 0xB75 JUMPI PUSH2 0xB74 PUSH2 0x85F JUMP JUMPDEST JUMPDEST PUSH2 0xB81 DUP5 DUP3 DUP6 ADD PUSH2 0xB13 JUMP JUMPDEST SWAP2 POP POP SWAP3 SWAP2 POP POP JUMP JUMPDEST PUSH1 0x0 DUP2 SWAP1 POP DUP2 PUSH1 0x0 MSTORE PUSH1 0x20 PUSH1 0x0 KECCAK256 SWAP1 POP SWAP2 SWAP1 POP JUMP JUMPDEST PUSH1 0x0 PUSH1 0x20 PUSH1 0x1F DUP4 ADD DIV SWAP1 POP SWAP2 SWAP1 POP JUMP JUMPDEST PUSH1 0x0 DUP3 DUP3 SHL SWAP1 POP SWAP3 SWAP2 POP POP JUMP JUMPDEST PUSH1 0x0 PUSH1 0x8 DUP4 MUL PUSH2 0xBEC PUSH32 0xFFFFFFFFFFFFFFFFFFFFFFFFFFFFFFFFFFFFFFFFFFFFFFFFFFFFFFFFFFFFFFFF DUP3 PUSH2 0xBAF JUMP JUMPDEST PUSH2 0xBF6 DUP7 DUP4 PUSH2 0xBAF JUMP JUMPDEST SWAP6 POP DUP1 NOT DUP5 AND SWAP4 POP DUP1 DUP7 AND DUP5 OR SWAP3 POP POP POP SWAP4 SWAP3 POP POP POP JUMP JUMPDEST PUSH1 0x0 PUSH2 0xC29 PUSH2 0xC24 PUSH2 0xC1F DUP5 PUSH2 0x6EA JUMP JUMPDEST PUSH2 0x983 JUMP JUMPDEST PUSH2 0x6EA JUMP JUMPDEST SWAP1 POP SWAP2 SWAP1 POP JUMP JUMPDEST PUSH1 0x0 DUP2 SWAP1 POP SWAP2 SWAP1 POP JUMP JUMPDEST PUSH2 0xC43 DUP4 PUSH2 0xC0E JUMP JUMPDEST PUSH2 0xC57 PUSH2 0xC4F DUP3 PUSH2 0xC30 JUMP JUMPDEST DUP5 DUP5 SLOAD PUSH2 0xBBC JUMP JUMPDEST DUP3 SSTORE POP POP POP POP JUMP JUMPDEST PUSH1 0x0 SWAP1 JUMP JUMPDEST PUSH2 0xC6C PUSH2 0xC5F JUMP JUMPDEST PUSH2 0xC77 DUP2 DUP5 DUP5 PUSH2 0xC3A JUMP JUMPDEST POP POP POP JUMP JUMPDEST JUMPDEST DUP2 DUP2 LT ISZERO PUSH2 0xC9B JUMPI PUSH2 0xC90 PUSH1 0x0 DUP3 PUSH2 0xC64 JUMP JUMPDEST PUSH1 0x1 DUP2 ADD SWAP1 POP PUSH2 0xC7D JUMP JUMPDEST POP POP JUMP JUMPDEST PUSH1 0x1F DUP3 GT ISZERO PUSH2 0xCE0 JUMPI PUSH2 0xCB1 DUP2 PUSH2 0xB8A JUMP JUMPDEST PUSH2 0xCBA DUP5 PUSH2 0xB9F JUMP JUMPDEST DUP2 ADD PUSH1 0x20 DUP6 LT ISZERO PUSH2 0xCC9 JUMPI DUP2 SWAP1 POP JUMPDEST PUSH2 0xCDD PUSH2 0xCD5 DUP6 PUSH2 0xB9F JUMP JUMPDEST DUP4 ADD DUP3 PUSH2 0xC7C JUMP JUMPDEST POP POP JUMPDEST POP POP POP JUMP JUMPDEST PUSH1 0x0 DUP3 DUP3 SHR SWAP1 POP SWAP3 SWAP2 POP POP JUMP JUMPDEST PUSH1 0x0 PUSH2 0xD03 PUSH1 0x0 NOT DUP5 PUSH1 0x8 MUL PUSH2 0xCE5 JUMP JUMPDEST NOT DUP1 DUP4 AND SWAP2 POP POP SWAP3 SWAP2 POP POP JUMP JUMPDEST PUSH1 0x0 PUSH2 0xD1C DUP4 DUP4 PUSH2 0xCF2 JUMP JUMPDEST SWAP2 POP DUP3 PUSH1 0x2 MUL DUP3 OR SWAP1 POP SWAP3 SWAP2 POP POP JUMP JUMPDEST PUSH2 0xD35 DUP3 PUSH2 0x71E JUMP JUMPDEST PUSH8 0xFFFFFFFFFFFFFFFF DUP2 GT ISZERO PUSH2 0xD4E JUMPI PUSH2 0xD4D PUSH2 0xA25 JUMP JUMPDEST JUMPDEST PUSH2 0xD58 DUP3 SLOAD PUSH2 0x948 JUMP JUMPDEST PUSH2 0xD63 DUP3 DUP3 DUP6 PUSH2 0xC9F JUMP JUMPDEST PUSH1 0x0 PUSH1 0x20 SWAP1 POP PUSH1 0x1F DUP4 GT PUSH1 0x1 DUP2 EQ PUSH2 0xD96 JUMPI PUSH1 0x0 DUP5 ISZERO PUSH2 0xD84 JUMPI DUP3 DUP8 ADD MLOAD SWAP1 POP JUMPDEST PUSH2 0xD8E DUP6 DUP3 PUSH2 0xD10 JUMP JUMPDEST DUP7 SSTORE POP PUSH2 0xDF6 JUMP JUMPDEST PUSH1 0x1F NOT DUP5 AND PUSH2 0xDA4 DUP7 PUSH2 0xB8A JUMP JUMPDEST PUSH1 0x0 JUMPDEST DUP3 DUP2 LT ISZERO PUSH2 0xDCC JUMPI DUP5 DUP10 ADD MLOAD DUP3 SSTORE PUSH1 0x1 DUP3 ADD SWAP2 POP PUSH1 0x20 DUP6 ADD SWAP5 POP PUSH1 0x20 DUP2 ADD SWAP1 POP PUSH2 0xDA7 JUMP JUMPDEST DUP7 DUP4 LT ISZERO PUSH2 0xDE9 JUMPI DUP5 DUP10 ADD MLOAD PUSH2 0xDE5 PUSH1 0x1F DUP10 AND DUP3 PUSH2 0xCF2 JUMP JUMPDEST DUP4 SSTORE POP JUMPDEST PUSH1 0x1 PUSH1 0x2 DUP9 MUL ADD DUP9 SSTORE POP POP POP JUMPDEST POP POP POP POP POP POP JUMP JUMPDEST PUSH1 0x0 DUP2 SWAP1 POP DUP2 PUSH1 0x0 MSTORE PUSH1 0x20 PUSH1 0x0 KECCAK256 SWAP1 POP SWAP2 SWAP1 POP JUMP JUMPDEST PUSH1 0x1F DUP3 GT ISZERO PUSH2 0xE54 JUMPI PUSH2 0xE25 DUP2 PUSH2 0xDFE JUMP JUMPDEST PUSH2 0xE2E DUP5 PUSH2 0xB9F JUMP JUMPDEST DUP2 ADD PUSH1 0x20 DUP6 LT ISZERO PUSH2 0xE3D JUMPI DUP2 SWAP1 POP JUMPDEST PUSH2 0xE51 PUSH2 0xE49 DUP6 PUSH2 0xB9F JUMP JUMPDEST DUP4 ADD DUP3 PUSH2 0xC7C JUMP JUMPDEST POP POP JUMPDEST POP POP POP JUMP JUMPDEST PUSH2 0xE62 DUP3 PUSH2 0x7D9 JUMP JUMPDEST PUSH8 0xFFFFFFFFFFFFFFFF DUP2 GT ISZERO PUSH2 0xE7B JUMPI PUSH2 0xE7A PUSH2 0xA25 JUMP JUMPDEST JUMPDEST PUSH2 0xE85 DUP3 SLOAD PUSH2 0x948 JUMP JUMPDEST PUSH2 0xE90 DUP3 DUP3 DUP6 PUSH2 0xE13 JUMP JUMPDEST PUSH1 0x0 PUSH1 0x20 SWAP1 POP PUSH1 0x1F DUP4 GT PUSH1 0x1 DUP2 EQ PUSH2 0xEC3 JUMPI PUSH1 0x0 DUP5 ISZERO PUSH2 0xEB1 JUMPI DUP3 DUP8 ADD MLOAD SWAP1 POP JUMPDEST PUSH2 0xEBB DUP6 DUP3 PUSH2 0xD10 JUMP JUMPDEST DUP7 SSTORE POP PUSH2 0xF23 JUMP JUMPDEST PUSH1 0x1F NOT DUP5 AND PUSH2 0xED1 DUP7 PUSH2 0xDFE JUMP JUMPDEST PUSH1 0x0 JUMPDEST DUP3 DUP2 LT ISZERO PUSH2 0xEF9 JUMPI DUP5 DUP10 ADD MLOAD DUP3 SSTORE PUSH1 0x1 DUP3 ADD SWAP2 POP PUSH1 0x20 DUP6 ADD SWAP5 POP PUSH1 0x20 DUP2 ADD SWAP1 POP PUSH2 0xED4 JUMP JUMPDEST DUP7 DUP4 LT ISZERO PUSH2 0xF16 JUMPI DUP5 DUP10 ADD MLOAD PUSH2 0xF12 PUSH1 0x1F DUP10 AND DUP3 PUSH2 0xCF2 JUMP JUMPDEST DUP4 SSTORE POP JUMPDEST PUSH1 0x1 PUSH1 0x2 DUP9 MUL ADD DUP9 SSTORE POP POP POP JUMPDEST POP POP POP POP POP POP JUMP INVALID PUSH1 0x80 PUSH1 0x40 MSTORE PUSH1 0x40 MLOAD PUSH2 0x348 CODESIZE SUB DUP1 PUSH2 0x348 DUP4 CODECOPY DUP2 DUP2 ADD PUSH1 0x40 MSTORE DUP2 ADD SWAP1 PUSH2 0x25 SWAP2 SWAP1 PUSH2 0x6D JUMP JUMPDEST DUP1 PUSH1 0x0 DUP2 SWAP1 SSTORE POP POP PUSH2 0x9A JUMP JUMPDEST PUSH1 0x0 DUP1 REVERT JUMPDEST PUSH1 0x0 DUP2 SWAP1 POP SWAP2 SWAP1 POP JUMP JUMPDEST PUSH2 0x4A DUP2 PUSH2 0x37 JUMP JUMPDEST DUP2 EQ PUSH2 0x55 JUMPI PUSH1 0x0 DUP1 REVERT JUMPDEST POP JUMP JUMPDEST PUSH1 0x0 DUP2 MLOAD SWAP1 POP PUSH2 0x67 DUP2 PUSH2 0x41 JUMP JUMPDEST SWAP3 SWAP2 POP POP JUMP JUMPDEST PUSH1 0x0 PUSH1 0x20 DUP3 DUP5 SUB SLT ISZERO PUSH2 0x83 JUMPI PUSH2 0x82 PUSH2 0x32 JUMP JUMPDEST JUMPDEST PUSH1 0x0 PUSH2 0x91 DUP5 DUP3 DUP6 ADD PUSH2 0x58 JUMP JUMPDEST SWAP2 POP POP SWAP3 SWAP2 POP POP JUMP JUMPDEST PUSH2 0x29F DUP1 PUSH2 0xA9 PUSH1 0x0 CODECOPY PUSH1 0x0 RETURN INVALID PUSH1 0x80 PUSH1 0x40 MSTORE CALLVALUE DUP1 ISZERO PUSH2 0x10 JUMPI PUSH1 0x0 DUP1 REVERT JUMPDEST POP PUSH1 0x4 CALLDATASIZE LT PUSH2 0x4C JUMPI PUSH1 0x0 CALLDATALOAD PUSH1 0xE0 SHR DUP1 PUSH4 0xDBE671F EQ PUSH2 0x51 JUMPI DUP1 PUSH4 0x12065FE0 EQ PUSH2 0x6F JUMPI DUP1 PUSH4 0xEE919D50 EQ PUSH2 0x8D JUMPI DUP1 PUSH4 0xF5F5BA72 EQ PUSH2 0xA9 JUMPI JUMPDEST PUSH1 0x0 DUP1 REVERT JUMPDEST PUSH2 0x59 PUSH2 0xC7 JUMP JUMPDEST PUSH1 0x40 MLOAD PUSH2 0x66 SWAP2 SWAP1 PUSH2 0x135 JUMP JUMPDEST PUSH1 0x40 MLOAD DUP1 SWAP2 SUB SWAP1 RETURN JUMPDEST PUSH2 0x77 PUSH2 0xCD JUMP JUMPDEST PUSH1 0x40 MLOAD PUSH2 0x84 SWAP2 SWAP1 PUSH2 0x135 JUMP JUMPDEST PUSH1 0x40 MLOAD DUP1 SWAP2 SUB SWAP1 RETURN JUMPDEST PUSH2 0xA7 PUSH1 0x4 DUP1 CALLDATASIZE SUB DUP2 ADD SWAP1 PUSH2 0xA2 SWAP2 SWAP1 PUSH2 0x181 JUMP JUMPDEST PUSH2 0xD5 JUMP JUMPDEST STOP JUMPDEST PUSH2 0xB1 PUSH2 0xDF JUMP JUMPDEST PUSH1 0x40 MLOAD PUSH2 0xBE SWAP2 SWAP1 PUSH2 0x247 JUMP JUMPDEST PUSH1 0x40 MLOAD DUP1 SWAP2 SUB SWAP1 RETURN JUMPDEST PUSH1 0x0 SLOAD DUP2 JUMP JUMPDEST PUSH1 0x0 SELFBALANCE SWAP1 POP SWAP1 JUMP JUMPDEST DUP1 PUSH1 0x0 DUP2 SWAP1 SSTORE POP POP JUMP JUMPDEST PUSH1 0x60 PUSH1 0x40 MLOAD DUP1 PUSH1 0x40 ADD PUSH1 0x40 MSTORE DUP1 PUSH1 0xC DUP2 MSTORE PUSH1 0x20 ADD PUSH32 0x74657374436F6E74726163740000000000000000000000000000000000000000 DUP2 MSTORE POP SWAP1 POP SWAP1 JUMP JUMPDEST PUSH1 0x0 DUP2 SWAP1 POP SWAP2 SWAP1 POP JUMP JUMPDEST PUSH2 0x12F DUP2 PUSH2 0x11C JUMP JUMPDEST DUP3 MSTORE POP POP JUMP JUMPDEST PUSH1 0x0 PUSH1 0x20 DUP3 ADD SWAP1 POP PUSH2 0x14A PUSH1 0x0 DUP4 ADD DUP5 PUSH2 0x126 JUMP JUMPDEST SWAP3 SWAP2 POP POP JUMP JUMPDEST PUSH1 0x0 DUP1 REVERT JUMPDEST PUSH2 0x15E DUP2 PUSH2 0x11C JUMP JUMPDEST DUP2 EQ PUSH2 0x169 JUMPI PUSH1 0x0 DUP1 REVERT JUMPDEST POP JUMP JUMPDEST PUSH1 0x0 DUP2 CALLDATALOAD SWAP1 POP PUSH2 0x17B DUP2 PUSH2 0x155 JUMP JUMPDEST SWAP3 SWAP2 POP POP JUMP JUMPDEST PUSH1 0x0 PUSH1 0x20 DUP3 DUP5 SUB SLT ISZERO PUSH2 0x197 JUMPI PUSH2 0x196 PUSH2 0x150 JUMP JUMPDEST JUMPDEST PUSH1 0x0 PUSH2 0x1A5 DUP5 DUP3 DUP6 ADD PUSH2 0x16C JUMP JUMPDEST SWAP2 POP POP SWAP3 SWAP2 POP POP JUMP JUMPDEST PUSH1 0x0 DUP2 MLOAD SWAP1 POP SWAP2 SWAP1 POP JUMP JUMPDEST PUSH1 0x0 DUP3 DUP3 MSTORE PUSH1 0x20 DUP3 ADD SWAP1 POP SWAP3 SWAP2 POP POP JUMP JUMPDEST PUSH1 0x0 JUMPDEST DUP4 DUP2 LT ISZERO PUSH2 0x1E8 JUMPI DUP1 DUP3 ADD MLOAD DUP2 DUP5 ADD MSTORE PUSH1 0x20 DUP2 ADD SWAP1 POP PUSH2 0x1CD JUMP JUMPDEST DUP4 DUP2 GT ISZERO PUSH2 0x1F7 JUMPI PUSH1 0x0 DUP5 DUP5 ADD MSTORE JUMPDEST POP POP POP POP JUMP JUMPDEST PUSH1 0x0 PUSH1 0x1F NOT PUSH1 0x1F DUP4 ADD AND SWAP1 POP SWAP2 SWAP1 POP JUMP JUMPDEST PUSH1 0x0 PUSH2 0x219 DUP3 PUSH2 0x1AE JUMP JUMPDEST PUSH2 0x223 DUP2 DUP6 PUSH2 0x1B9 JUMP JUMPDEST SWAP4 POP PUSH2 0x233 DUP2 DUP6 PUSH1 0x20 DUP7 ADD PUSH2 0x1CA JUMP JUMPDEST PUSH2 0x23C DUP2 PUSH2 0x1FD JUMP JUMPDEST DUP5 ADD SWAP2 POP POP SWAP3 SWAP2 POP POP JUMP JUMPDEST PUSH1 0x0 PUSH1 0x20 DUP3 ADD SWAP1 POP DUP2 DUP2 SUB PUSH1 0x0 DUP4 ADD MSTORE PUSH2 0x261 DUP2 DUP5 PUSH2 0x20E JUMP JUMPDEST SWAP1 POP SWAP3 SWAP2 POP POP JUMP INVALID LOG2 PUSH5 0x6970667358 0x22 SLT KECCAK256 0xB5 0xF8 0x5D PUSH3 0x343F97 PUSH4 0xF854B7CF 0x4F 0xC0 XOR 0x21 PUSH20 0x3160D2488C6483CA3214789CC526C264736F6C63 NUMBER STOP ADDMOD 0xF STOP CALLER LOG2 PUSH5 0x6970667358 0x22 SLT KECCAK256 OR 0xAA PUSH11 0x413526AF36971C9A060018 0x1F 0xCE 0xF7 RETURN 0x2D BLOCKHASH BYTE SWAP12 0xB8 0xEB 0xE6 0xD0 SHL 0xB4 0x2D 0xAD GAS CALLER PUSH5 0x736F6C6343 STOP ADDMOD 0xF STOP CALLER "
				},
				"gasEstimates": {
					"creation": {
						"codeDepositCost": "955400",
						"executionCost": "994",
						"totalCost": "956394"
					},
					"external": {
						"by()": "infinite",
						"contractName()": "infinite",
						"contractaddr()": "2514",
						"createContractObj(uint256)": "infinite",
						"getA()": "infinite",
						"getBalance()": "340",
						"initParams()": "infinite",
						"setA(uint256)": "infinite",
						"str1()": "infinite"
					}
				},
				"methodIdentifiers": {
					"by()": "7c000138",
					"contractName()": "75d0c0dc",
					"contractaddr()": "d01bb4d5",
					"createContractObj(uint256)": "93d4e9a2",
					"getA()": "d46300fd",
					"getBalance()": "12065fe0",
					"initParams()": "fb0c8628",
					"setA(uint256)": "ee919d50",
					"str1()": "d118d187"
				}
			},
			"storageLayout": {
				"storage": [
					{
						"astId": 47,
						"contract": "study/chapter04/newContract.sol:callContract",
						"label": "t",
						"offset": 0,
						"slot": "0",
						"type": "t_contract(testContract)44"
					},
					{
						"astId": 49,
						"contract": "study/chapter04/newContract.sol:callContract",
						"label": "contractaddr",
						"offset": 0,
						"slot": "1",
						"type": "t_address"
					},
					{
						"astId": 51,
						"contract": "study/chapter04/newContract.sol:callContract",
						"label": "contractName",
						"offset": 0,
						"slot": "2",
						"type": "t_string_storage"
					},
					{
						"astId": 53,
						"contract": "study/chapter04/newContract.sol:callContract",
						"label": "str1",
						"offset": 0,
						"slot": "3",
						"type": "t_string_storage"
					},
					{
						"astId": 55,
						"contract": "study/chapter04/newContract.sol:callContract",
						"label": "by",
						"offset": 0,
						"slot": "4",
						"type": "t_bytes_storage"
					}
				],
				"types": {
					"t_address": {
						"encoding": "inplace",
						"label": "address",
						"numberOfBytes": "20"
					},
					"t_bytes_storage": {
						"encoding": "bytes",
						"label": "bytes",
						"numberOfBytes": "32"
					},
					"t_contract(testContract)44": {
						"encoding": "inplace",
						"label": "contract testContract",
						"numberOfBytes": "20"
					},
					"t_string_storage": {
						"encoding": "bytes",
						"label": "string",
						"numberOfBytes": "32"
					}
				}
			},
			"userdoc": {
				"kind": "user",
				"methods": {},
				"version": 1
			}
		}
	}
}