{
	"study/chapter04/create2.sol": {
		"Create2": {
			"abi": [
				{
					"inputs": [
						{
							"internalType": "bytes32",
							"name": "salt",
							"type": "bytes32"
						},
						{
							"internalType": "uint256",
							"name": "arg",
							"type": "uint256"
						}
					],
					"name": "createDSalted",
					"outputs": [],
					"stateMutability": "nonpayable",
					"type": "function"
				},
				{
					"inputs": [],
					"name": "d",
					"outputs": [
						{
							"internalType": "contract D",
							"name": "",
							"type": "address"
						}
					],
					"stateMutability": "view",
					"type": "function"
				},
				{
					"inputs": [
						{
							"internalType": "uint256",
							"name": "slat",
							"type": "uint256"
						},
						{
							"internalType": "uint256",
							"name": "arg",
							"type": "uint256"
						}
					],
					"name": "getAddress",
					"outputs": [
						{
							"internalType": "address",
							"name": "",
							"type": "address"
						}
					],
					"stateMutability": "view",
					"type": "function"
				},
				{
					"inputs": [
						{
							"internalType": "uint256",
							"name": "slat",
							"type": "uint256"
						}
					],
					"name": "getBytes32",
					"outputs": [
						{
							"internalType": "bytes32",
							"name": "",
							"type": "bytes32"
						}
					],
					"stateMutability": "pure",
					"type": "function"
				}
			],
			"devdoc": {
				"kind": "dev",
				"methods": {},
				"version": 1
			},
			"evm": {
				"assembly": "    /* \"study/chapter04/create2.sol\":150:803  contract Create2{... */\n  mstore(0x40, 0x80)\n  callvalue\n  dup1\n  iszero\n  tag_1\n  jumpi\n  0x00\n  dup1\n  revert\ntag_1:\n  pop\n  dataSize(sub_0)\n  dup1\n  dataOffset(sub_0)\n  0x00\n  codecopy\n  0x00\n  return\nstop\n\nsub_0: assembly {\n        /* \"study/chapter04/create2.sol\":150:803  contract Create2{... */\n      mstore(0x40, 0x80)\n      callvalue\n      dup1\n      iszero\n      tag_1\n      jumpi\n      0x00\n      dup1\n      revert\n    tag_1:\n      pop\n      jumpi(tag_2, lt(calldatasize, 0x04))\n      shr(0xe0, calldataload(0x00))\n      dup1\n      0x0bd38f2f\n      eq\n      tag_3\n      jumpi\n      dup1\n      0x24dfc9d7\n      eq\n      tag_4\n      jumpi\n      dup1\n      0x8a054ac2\n      eq\n      tag_5\n      jumpi\n      dup1\n      0x9262d759\n      eq\n      tag_6\n      jumpi\n    tag_2:\n      0x00\n      dup1\n      revert\n        /* \"study/chapter04/create2.sol\":707:801  function createDSalted(bytes32 salt,uint arg)public{... */\n    tag_3:\n      tag_7\n      0x04\n      dup1\n      calldatasize\n      sub\n      dup2\n      add\n      swap1\n      tag_8\n      swap2\n      swap1\n      tag_9\n      jump\t// in\n    tag_8:\n      tag_10\n      jump\t// in\n    tag_7:\n      stop\n        /* \"study/chapter04/create2.sol\":189:286  function getBytes32(uint slat)external pure returns(bytes32){... */\n    tag_4:\n      tag_11\n      0x04\n      dup1\n      calldatasize\n      sub\n      dup2\n      add\n      swap1\n      tag_12\n      swap2\n      swap1\n      tag_13\n      jump\t// in\n    tag_12:\n      tag_14\n      jump\t// in\n    tag_11:\n      mload(0x40)\n      tag_15\n      swap2\n      swap1\n      tag_16\n      jump\t// in\n    tag_15:\n      mload(0x40)\n      dup1\n      swap2\n      sub\n      swap1\n      return\n        /* \"study/chapter04/create2.sol\":173:183  D public d */\n    tag_5:\n      tag_17\n      tag_18\n      jump\t// in\n    tag_17:\n      mload(0x40)\n      tag_19\n      swap2\n      swap1\n      tag_20\n      jump\t// in\n    tag_19:\n      mload(0x40)\n      dup1\n      swap2\n      sub\n      swap1\n      return\n        /* \"study/chapter04/create2.sol\":334:701  function getAddress(uint slat,uint arg) external view returns(address){... */\n    tag_6:\n      tag_21\n      0x04\n      dup1\n      calldatasize\n      sub\n      dup2\n      add\n      swap1\n      tag_22\n      swap2\n      swap1\n      tag_23\n      jump\t// in\n    tag_22:\n      tag_24\n      jump\t// in\n    tag_21:\n      mload(0x40)\n      tag_25\n      swap2\n      swap1\n      tag_26\n      jump\t// in\n    tag_25:\n      mload(0x40)\n      dup1\n      swap2\n      sub\n      swap1\n      return\n        /* \"study/chapter04/create2.sol\":707:801  function createDSalted(bytes32 salt,uint arg)public{... */\n    tag_10:\n        /* \"study/chapter04/create2.sol\":784:788  salt */\n      dup2\n        /* \"study/chapter04/create2.sol\":790:793  arg */\n      dup2\n        /* \"study/chapter04/create2.sol\":772:794  new D{salt: salt}(arg) */\n      mload(0x40)\n      tag_28\n      swap1\n      tag_29\n      jump\t// in\n    tag_28:\n      tag_30\n      swap2\n      swap1\n      tag_31\n      jump\t// in\n    tag_30:\n      dup2\n      swap1\n      mload(0x40)\n      dup1\n      swap2\n      sub\n      swap1\n      0x00\n      create2\n      swap1\n      pop\n      dup1\n      iszero\n      dup1\n      iszero\n      tag_32\n      jumpi\n      returndatasize\n      0x00\n      dup1\n      returndatacopy\n      revert(0x00, returndatasize)\n    tag_32:\n      pop\n        /* \"study/chapter04/create2.sol\":768:769  d */\n      0x00\n      dup1\n        /* \"study/chapter04/create2.sol\":768:794  d = new D{salt: salt}(arg) */\n      0x0100\n      exp\n      dup2\n      sload\n      dup2\n      0xffffffffffffffffffffffffffffffffffffffff\n      mul\n      not\n      and\n      swap1\n      dup4\n      0xffffffffffffffffffffffffffffffffffffffff\n      and\n      mul\n      or\n      swap1\n      sstore\n      pop\n        /* \"study/chapter04/create2.sol\":707:801  function createDSalted(bytes32 salt,uint arg)public{... */\n      pop\n      pop\n      jump\t// out\n        /* \"study/chapter04/create2.sol\":189:286  function getBytes32(uint slat)external pure returns(bytes32){... */\n    tag_14:\n        /* \"study/chapter04/create2.sol\":241:248  bytes32 */\n      0x00\n        /* \"study/chapter04/create2.sol\":274:278  slat */\n      dup2\n        /* \"study/chapter04/create2.sol\":266:279  bytes32(slat) */\n      0x00\n      shl\n        /* \"study/chapter04/create2.sol\":259:279  return bytes32(slat) */\n      swap1\n      pop\n        /* \"study/chapter04/create2.sol\":189:286  function getBytes32(uint slat)external pure returns(bytes32){... */\n      swap2\n      swap1\n      pop\n      jump\t// out\n        /* \"study/chapter04/create2.sol\":173:183  D public d */\n    tag_18:\n      0x00\n      dup1\n      sload\n      swap1\n      0x0100\n      exp\n      swap1\n      div\n      0xffffffffffffffffffffffffffffffffffffffff\n      and\n      dup2\n      jump\t// out\n        /* \"study/chapter04/create2.sol\":334:701  function getAddress(uint slat,uint arg) external view returns(address){... */\n    tag_24:\n        /* \"study/chapter04/create2.sol\":396:403  address */\n      0x00\n        /* \"study/chapter04/create2.sol\":414:425  address add */\n      dup1\n        /* \"study/chapter04/create2.sol\":496:500  0xff */\n      0xff\n        /* \"study/chapter04/create2.sol\":489:501  bytes1(0xff) */\n      0xf8\n      shl\n        /* \"study/chapter04/create2.sol\":523:527  this */\n      address\n        /* \"study/chapter04/create2.sol\":542:546  slat */\n      dup6\n        /* \"study/chapter04/create2.sol\":604:624  type(D).creationCode */\n      mload(0x40)\n      dup1\n      0x20\n      add\n      tag_35\n      swap1\n      tag_29\n      jump\t// in\n    tag_35:\n      0x20\n      dup3\n      add\n      dup2\n      sub\n      dup3\n      mstore\n      not(0x1f)\n      0x1f\n      dup3\n      add\n      and\n      0x40\n      mstore\n      pop\n        /* \"study/chapter04/create2.sol\":642:645  arg */\n      dup7\n        /* \"study/chapter04/create2.sol\":570:659  abi.encodePacked(... */\n      add(0x20, mload(0x40))\n      tag_36\n      swap3\n      swap2\n      swap1\n      tag_37\n      jump\t// in\n    tag_36:\n      mload(0x40)\n      0x20\n      dup2\n      dup4\n      sub\n      sub\n      dup2\n      mstore\n      swap1\n      0x40\n      mstore\n        /* \"study/chapter04/create2.sol\":560:660  keccak256(abi.encodePacked(... */\n      dup1\n      mload\n      swap1\n      0x20\n      add\n      keccak256\n        /* \"study/chapter04/create2.sol\":459:670  abi.encodePacked(... */\n      add(0x20, mload(0x40))\n      tag_38\n      swap5\n      swap4\n      swap3\n      swap2\n      swap1\n      tag_39\n      jump\t// in\n    tag_38:\n      mload(0x40)\n      0x20\n      dup2\n      dup4\n      sub\n      sub\n      dup2\n      mstore\n      swap1\n      0x40\n      mstore\n        /* \"study/chapter04/create2.sol\":449:671  keccak256(abi.encodePacked(... */\n      dup1\n      mload\n      swap1\n      0x20\n      add\n      keccak256\n        /* \"study/chapter04/create2.sol\":444:672  uint(keccak256(abi.encodePacked(... */\n      0x00\n      shr\n        /* \"study/chapter04/create2.sol\":414:674  address add = address(uint160(uint(keccak256(abi.encodePacked(... */\n      swap1\n      pop\n        /* \"study/chapter04/create2.sol\":691:694  add */\n      dup1\n        /* \"study/chapter04/create2.sol\":684:694  return add */\n      swap2\n      pop\n      pop\n        /* \"study/chapter04/create2.sol\":334:701  function getAddress(uint slat,uint arg) external view returns(address){... */\n      swap3\n      swap2\n      pop\n      pop\n      jump\t// out\n    tag_29:\n      dataSize(sub_0)\n      dup1\n      dataOffset(sub_0)\n      dup4\n      codecopy\n      add\n      swap1\n      jump\t// out\n        /* \"#utility.yul\":7:146   */\n    tag_41:\n        /* \"#utility.yul\":53:58   */\n      0x00\n        /* \"#utility.yul\":91:97   */\n      dup2\n        /* \"#utility.yul\":78:98   */\n      calldataload\n        /* \"#utility.yul\":69:98   */\n      swap1\n      pop\n        /* \"#utility.yul\":107:140   */\n      tag_43\n        /* \"#utility.yul\":134:139   */\n      dup2\n        /* \"#utility.yul\":107:140   */\n      tag_44\n      jump\t// in\n    tag_43:\n        /* \"#utility.yul\":59:146   */\n      swap3\n      swap2\n      pop\n      pop\n      jump\t// out\n        /* \"#utility.yul\":152:291   */\n    tag_45:\n        /* \"#utility.yul\":198:203   */\n      0x00\n        /* \"#utility.yul\":236:242   */\n      dup2\n        /* \"#utility.yul\":223:243   */\n      calldataload\n        /* \"#utility.yul\":214:243   */\n      swap1\n      pop\n        /* \"#utility.yul\":252:285   */\n      tag_47\n        /* \"#utility.yul\":279:284   */\n      dup2\n        /* \"#utility.yul\":252:285   */\n      tag_48\n      jump\t// in\n    tag_47:\n        /* \"#utility.yul\":204:291   */\n      swap3\n      swap2\n      pop\n      pop\n      jump\t// out\n        /* \"#utility.yul\":297:771   */\n    tag_9:\n        /* \"#utility.yul\":365:371   */\n      0x00\n        /* \"#utility.yul\":373:379   */\n      dup1\n        /* \"#utility.yul\":422:424   */\n      0x40\n        /* \"#utility.yul\":410:419   */\n      dup4\n        /* \"#utility.yul\":401:408   */\n      dup6\n        /* \"#utility.yul\":397:420   */\n      sub\n        /* \"#utility.yul\":393:425   */\n      slt\n        /* \"#utility.yul\":390:392   */\n      iszero\n      tag_50\n      jumpi\n        /* \"#utility.yul\":428:507   */\n      tag_51\n      tag_52\n      jump\t// in\n    tag_51:\n        /* \"#utility.yul\":390:392   */\n    tag_50:\n        /* \"#utility.yul\":548:549   */\n      0x00\n        /* \"#utility.yul\":573:626   */\n      tag_53\n        /* \"#utility.yul\":618:625   */\n      dup6\n        /* \"#utility.yul\":609:615   */\n      dup3\n        /* \"#utility.yul\":598:607   */\n      dup7\n        /* \"#utility.yul\":594:616   */\n      add\n        /* \"#utility.yul\":573:626   */\n      tag_41\n      jump\t// in\n    tag_53:\n        /* \"#utility.yul\":563:626   */\n      swap3\n      pop\n        /* \"#utility.yul\":519:636   */\n      pop\n        /* \"#utility.yul\":675:677   */\n      0x20\n        /* \"#utility.yul\":701:754   */\n      tag_54\n        /* \"#utility.yul\":746:753   */\n      dup6\n        /* \"#utility.yul\":737:743   */\n      dup3\n        /* \"#utility.yul\":726:735   */\n      dup7\n        /* \"#utility.yul\":722:744   */\n      add\n        /* \"#utility.yul\":701:754   */\n      tag_45\n      jump\t// in\n    tag_54:\n        /* \"#utility.yul\":691:754   */\n      swap2\n      pop\n        /* \"#utility.yul\":646:764   */\n      pop\n        /* \"#utility.yul\":380:771   */\n      swap3\n      pop\n      swap3\n      swap1\n      pop\n      jump\t// out\n        /* \"#utility.yul\":777:1106   */\n    tag_13:\n        /* \"#utility.yul\":836:842   */\n      0x00\n        /* \"#utility.yul\":885:887   */\n      0x20\n        /* \"#utility.yul\":873:882   */\n      dup3\n        /* \"#utility.yul\":864:871   */\n      dup5\n        /* \"#utility.yul\":860:883   */\n      sub\n        /* \"#utility.yul\":856:888   */\n      slt\n        /* \"#utility.yul\":853:855   */\n      iszero\n      tag_56\n      jumpi\n        /* \"#utility.yul\":891:970   */\n      tag_57\n      tag_52\n      jump\t// in\n    tag_57:\n        /* \"#utility.yul\":853:855   */\n    tag_56:\n        /* \"#utility.yul\":1011:1012   */\n      0x00\n        /* \"#utility.yul\":1036:1089   */\n      tag_58\n        /* \"#utility.yul\":1081:1088   */\n      dup5\n        /* \"#utility.yul\":1072:1078   */\n      dup3\n        /* \"#utility.yul\":1061:1070   */\n      dup6\n        /* \"#utility.yul\":1057:1079   */\n      add\n        /* \"#utility.yul\":1036:1089   */\n      tag_45\n      jump\t// in\n    tag_58:\n        /* \"#utility.yul\":1026:1089   */\n      swap2\n      pop\n        /* \"#utility.yul\":982:1099   */\n      pop\n        /* \"#utility.yul\":843:1106   */\n      swap3\n      swap2\n      pop\n      pop\n      jump\t// out\n        /* \"#utility.yul\":1112:1586   */\n    tag_23:\n        /* \"#utility.yul\":1180:1186   */\n      0x00\n        /* \"#utility.yul\":1188:1194   */\n      dup1\n        /* \"#utility.yul\":1237:1239   */\n      0x40\n        /* \"#utility.yul\":1225:1234   */\n      dup4\n        /* \"#utility.yul\":1216:1223   */\n      dup6\n        /* \"#utility.yul\":1212:1235   */\n      sub\n        /* \"#utility.yul\":1208:1240   */\n      slt\n        /* \"#utility.yul\":1205:1207   */\n      iszero\n      tag_60\n      jumpi\n        /* \"#utility.yul\":1243:1322   */\n      tag_61\n      tag_52\n      jump\t// in\n    tag_61:\n        /* \"#utility.yul\":1205:1207   */\n    tag_60:\n        /* \"#utility.yul\":1363:1364   */\n      0x00\n        /* \"#utility.yul\":1388:1441   */\n      tag_62\n        /* \"#utility.yul\":1433:1440   */\n      dup6\n        /* \"#utility.yul\":1424:1430   */\n      dup3\n        /* \"#utility.yul\":1413:1422   */\n      dup7\n        /* \"#utility.yul\":1409:1431   */\n      add\n        /* \"#utility.yul\":1388:1441   */\n      tag_45\n      jump\t// in\n    tag_62:\n        /* \"#utility.yul\":1378:1441   */\n      swap3\n      pop\n        /* \"#utility.yul\":1334:1451   */\n      pop\n        /* \"#utility.yul\":1490:1492   */\n      0x20\n        /* \"#utility.yul\":1516:1569   */\n      tag_63\n        /* \"#utility.yul\":1561:1568   */\n      dup6\n        /* \"#utility.yul\":1552:1558   */\n      dup3\n        /* \"#utility.yul\":1541:1550   */\n      dup7\n        /* \"#utility.yul\":1537:1559   */\n      add\n        /* \"#utility.yul\":1516:1569   */\n      tag_45\n      jump\t// in\n    tag_63:\n        /* \"#utility.yul\":1506:1569   */\n      swap2\n      pop\n        /* \"#utility.yul\":1461:1579   */\n      pop\n        /* \"#utility.yul\":1195:1586   */\n      swap3\n      pop\n      swap3\n      swap1\n      pop\n      jump\t// out\n        /* \"#utility.yul\":1592:1710   */\n    tag_64:\n        /* \"#utility.yul\":1679:1703   */\n      tag_66\n        /* \"#utility.yul\":1697:1702   */\n      dup2\n        /* \"#utility.yul\":1679:1703   */\n      tag_67\n      jump\t// in\n    tag_66:\n        /* \"#utility.yul\":1674:1677   */\n      dup3\n        /* \"#utility.yul\":1667:1704   */\n      mstore\n        /* \"#utility.yul\":1657:1710   */\n      pop\n      pop\n      jump\t// out\n        /* \"#utility.yul\":1716:1873   */\n    tag_68:\n        /* \"#utility.yul\":1821:1866   */\n      tag_70\n        /* \"#utility.yul\":1841:1865   */\n      tag_71\n        /* \"#utility.yul\":1859:1864   */\n      dup3\n        /* \"#utility.yul\":1841:1865   */\n      tag_67\n      jump\t// in\n    tag_71:\n        /* \"#utility.yul\":1821:1866   */\n      tag_72\n      jump\t// in\n    tag_70:\n        /* \"#utility.yul\":1816:1819   */\n      dup3\n        /* \"#utility.yul\":1809:1867   */\n      mstore\n        /* \"#utility.yul\":1799:1873   */\n      pop\n      pop\n      jump\t// out\n        /* \"#utility.yul\":1879:2032   */\n    tag_73:\n        /* \"#utility.yul\":1982:2025   */\n      tag_75\n        /* \"#utility.yul\":2001:2024   */\n      tag_76\n        /* \"#utility.yul\":2018:2023   */\n      dup3\n        /* \"#utility.yul\":2001:2024   */\n      tag_77\n      jump\t// in\n    tag_76:\n        /* \"#utility.yul\":1982:2025   */\n      tag_78\n      jump\t// in\n    tag_75:\n        /* \"#utility.yul\":1977:1980   */\n      dup3\n        /* \"#utility.yul\":1970:2026   */\n      mstore\n        /* \"#utility.yul\":1960:2032   */\n      pop\n      pop\n      jump\t// out\n        /* \"#utility.yul\":2038:2156   */\n    tag_79:\n        /* \"#utility.yul\":2125:2149   */\n      tag_81\n        /* \"#utility.yul\":2143:2148   */\n      dup2\n        /* \"#utility.yul\":2125:2149   */\n      tag_82\n      jump\t// in\n    tag_81:\n        /* \"#utility.yul\":2120:2123   */\n      dup3\n        /* \"#utility.yul\":2113:2150   */\n      mstore\n        /* \"#utility.yul\":2103:2156   */\n      pop\n      pop\n      jump\t// out\n        /* \"#utility.yul\":2162:2319   */\n    tag_83:\n        /* \"#utility.yul\":2267:2312   */\n      tag_85\n        /* \"#utility.yul\":2287:2311   */\n      tag_86\n        /* \"#utility.yul\":2305:2310   */\n      dup3\n        /* \"#utility.yul\":2287:2311   */\n      tag_82\n      jump\t// in\n    tag_86:\n        /* \"#utility.yul\":2267:2312   */\n      tag_87\n      jump\t// in\n    tag_85:\n        /* \"#utility.yul\":2262:2265   */\n      dup3\n        /* \"#utility.yul\":2255:2313   */\n      mstore\n        /* \"#utility.yul\":2245:2319   */\n      pop\n      pop\n      jump\t// out\n        /* \"#utility.yul\":2325:2698   */\n    tag_88:\n        /* \"#utility.yul\":2429:2432   */\n      0x00\n        /* \"#utility.yul\":2457:2495   */\n      tag_90\n        /* \"#utility.yul\":2489:2494   */\n      dup3\n        /* \"#utility.yul\":2457:2495   */\n      tag_91\n      jump\t// in\n    tag_90:\n        /* \"#utility.yul\":2511:2599   */\n      tag_92\n        /* \"#utility.yul\":2592:2598   */\n      dup2\n        /* \"#utility.yul\":2587:2590   */\n      dup6\n        /* \"#utility.yul\":2511:2599   */\n      tag_93\n      jump\t// in\n    tag_92:\n        /* \"#utility.yul\":2504:2599   */\n      swap4\n      pop\n        /* \"#utility.yul\":2608:2660   */\n      tag_94\n        /* \"#utility.yul\":2653:2659   */\n      dup2\n        /* \"#utility.yul\":2648:2651   */\n      dup6\n        /* \"#utility.yul\":2641:2645   */\n      0x20\n        /* \"#utility.yul\":2634:2639   */\n      dup7\n        /* \"#utility.yul\":2630:2646   */\n      add\n        /* \"#utility.yul\":2608:2660   */\n      tag_95\n      jump\t// in\n    tag_94:\n        /* \"#utility.yul\":2685:2691   */\n      dup1\n        /* \"#utility.yul\":2680:2683   */\n      dup5\n        /* \"#utility.yul\":2676:2692   */\n      add\n        /* \"#utility.yul\":2669:2692   */\n      swap2\n      pop\n        /* \"#utility.yul\":2433:2698   */\n      pop\n      swap3\n      swap2\n      pop\n      pop\n      jump\t// out\n        /* \"#utility.yul\":2704:2851   */\n    tag_96:\n        /* \"#utility.yul\":2799:2844   */\n      tag_98\n        /* \"#utility.yul\":2838:2843   */\n      dup2\n        /* \"#utility.yul\":2799:2844   */\n      tag_99\n      jump\t// in\n    tag_98:\n        /* \"#utility.yul\":2794:2797   */\n      dup3\n        /* \"#utility.yul\":2787:2845   */\n      mstore\n        /* \"#utility.yul\":2777:2851   */\n      pop\n      pop\n      jump\t// out\n        /* \"#utility.yul\":2857:2975   */\n    tag_100:\n        /* \"#utility.yul\":2944:2968   */\n      tag_102\n        /* \"#utility.yul\":2962:2967   */\n      dup2\n        /* \"#utility.yul\":2944:2968   */\n      tag_103\n      jump\t// in\n    tag_102:\n        /* \"#utility.yul\":2939:2942   */\n      dup3\n        /* \"#utility.yul\":2932:2969   */\n      mstore\n        /* \"#utility.yul\":2922:2975   */\n      pop\n      pop\n      jump\t// out\n        /* \"#utility.yul\":2981:3138   */\n    tag_104:\n        /* \"#utility.yul\":3086:3131   */\n      tag_106\n        /* \"#utility.yul\":3106:3130   */\n      tag_107\n        /* \"#utility.yul\":3124:3129   */\n      dup3\n        /* \"#utility.yul\":3106:3130   */\n      tag_103\n      jump\t// in\n    tag_107:\n        /* \"#utility.yul\":3086:3131   */\n      tag_108\n      jump\t// in\n    tag_106:\n        /* \"#utility.yul\":3081:3084   */\n      dup3\n        /* \"#utility.yul\":3074:3132   */\n      mstore\n        /* \"#utility.yul\":3064:3138   */\n      pop\n      pop\n      jump\t// out\n        /* \"#utility.yul\":3144:3818   */\n    tag_39:\n        /* \"#utility.yul\":3338:3341   */\n      0x00\n        /* \"#utility.yul\":3353:3426   */\n      tag_110\n        /* \"#utility.yul\":3422:3425   */\n      dup3\n        /* \"#utility.yul\":3413:3419   */\n      dup8\n        /* \"#utility.yul\":3353:3426   */\n      tag_73\n      jump\t// in\n    tag_110:\n        /* \"#utility.yul\":3451:3452   */\n      0x01\n        /* \"#utility.yul\":3446:3449   */\n      dup3\n        /* \"#utility.yul\":3442:3453   */\n      add\n        /* \"#utility.yul\":3435:3453   */\n      swap2\n      pop\n        /* \"#utility.yul\":3463:3538   */\n      tag_111\n        /* \"#utility.yul\":3534:3537   */\n      dup3\n        /* \"#utility.yul\":3525:3531   */\n      dup7\n        /* \"#utility.yul\":3463:3538   */\n      tag_68\n      jump\t// in\n    tag_111:\n        /* \"#utility.yul\":3563:3565   */\n      0x14\n        /* \"#utility.yul\":3558:3561   */\n      dup3\n        /* \"#utility.yul\":3554:3566   */\n      add\n        /* \"#utility.yul\":3547:3566   */\n      swap2\n      pop\n        /* \"#utility.yul\":3576:3651   */\n      tag_112\n        /* \"#utility.yul\":3647:3650   */\n      dup3\n        /* \"#utility.yul\":3638:3644   */\n      dup6\n        /* \"#utility.yul\":3576:3651   */\n      tag_104\n      jump\t// in\n    tag_112:\n        /* \"#utility.yul\":3676:3678   */\n      0x20\n        /* \"#utility.yul\":3671:3674   */\n      dup3\n        /* \"#utility.yul\":3667:3679   */\n      add\n        /* \"#utility.yul\":3660:3679   */\n      swap2\n      pop\n        /* \"#utility.yul\":3689:3764   */\n      tag_113\n        /* \"#utility.yul\":3760:3763   */\n      dup3\n        /* \"#utility.yul\":3751:3757   */\n      dup5\n        /* \"#utility.yul\":3689:3764   */\n      tag_83\n      jump\t// in\n    tag_113:\n        /* \"#utility.yul\":3789:3791   */\n      0x20\n        /* \"#utility.yul\":3784:3787   */\n      dup3\n        /* \"#utility.yul\":3780:3792   */\n      add\n        /* \"#utility.yul\":3773:3792   */\n      swap2\n      pop\n        /* \"#utility.yul\":3809:3812   */\n      dup2\n        /* \"#utility.yul\":3802:3812   */\n      swap1\n      pop\n        /* \"#utility.yul\":3342:3818   */\n      swap6\n      swap5\n      pop\n      pop\n      pop\n      pop\n      pop\n      jump\t// out\n        /* \"#utility.yul\":3824:4236   */\n    tag_37:\n        /* \"#utility.yul\":3982:3985   */\n      0x00\n        /* \"#utility.yul\":4004:4097   */\n      tag_115\n        /* \"#utility.yul\":4093:4096   */\n      dup3\n        /* \"#utility.yul\":4084:4090   */\n      dup6\n        /* \"#utility.yul\":4004:4097   */\n      tag_88\n      jump\t// in\n    tag_115:\n        /* \"#utility.yul\":3997:4097   */\n      swap2\n      pop\n        /* \"#utility.yul\":4107:4182   */\n      tag_116\n        /* \"#utility.yul\":4178:4181   */\n      dup3\n        /* \"#utility.yul\":4169:4175   */\n      dup5\n        /* \"#utility.yul\":4107:4182   */\n      tag_104\n      jump\t// in\n    tag_116:\n        /* \"#utility.yul\":4207:4209   */\n      0x20\n        /* \"#utility.yul\":4202:4205   */\n      dup3\n        /* \"#utility.yul\":4198:4210   */\n      add\n        /* \"#utility.yul\":4191:4210   */\n      swap2\n      pop\n        /* \"#utility.yul\":4227:4230   */\n      dup2\n        /* \"#utility.yul\":4220:4230   */\n      swap1\n      pop\n        /* \"#utility.yul\":3986:4236   */\n      swap4\n      swap3\n      pop\n      pop\n      pop\n      jump\t// out\n        /* \"#utility.yul\":4242:4464   */\n    tag_26:\n        /* \"#utility.yul\":4335:4339   */\n      0x00\n        /* \"#utility.yul\":4373:4375   */\n      0x20\n        /* \"#utility.yul\":4362:4371   */\n      dup3\n        /* \"#utility.yul\":4358:4376   */\n      add\n        /* \"#utility.yul\":4350:4376   */\n      swap1\n      pop\n        /* \"#utility.yul\":4386:4457   */\n      tag_118\n        /* \"#utility.yul\":4454:4455   */\n      0x00\n        /* \"#utility.yul\":4443:4452   */\n      dup4\n        /* \"#utility.yul\":4439:4456   */\n      add\n        /* \"#utility.yul\":4430:4436   */\n      dup5\n        /* \"#utility.yul\":4386:4457   */\n      tag_64\n      jump\t// in\n    tag_118:\n        /* \"#utility.yul\":4340:4464   */\n      swap3\n      swap2\n      pop\n      pop\n      jump\t// out\n        /* \"#utility.yul\":4470:4692   */\n    tag_16:\n        /* \"#utility.yul\":4563:4567   */\n      0x00\n        /* \"#utility.yul\":4601:4603   */\n      0x20\n        /* \"#utility.yul\":4590:4599   */\n      dup3\n        /* \"#utility.yul\":4586:4604   */\n      add\n        /* \"#utility.yul\":4578:4604   */\n      swap1\n      pop\n        /* \"#utility.yul\":4614:4685   */\n      tag_120\n        /* \"#utility.yul\":4682:4683   */\n      0x00\n        /* \"#utility.yul\":4671:4680   */\n      dup4\n        /* \"#utility.yul\":4667:4684   */\n      add\n        /* \"#utility.yul\":4658:4664   */\n      dup5\n        /* \"#utility.yul\":4614:4685   */\n      tag_79\n      jump\t// in\n    tag_120:\n        /* \"#utility.yul\":4568:4692   */\n      swap3\n      swap2\n      pop\n      pop\n      jump\t// out\n        /* \"#utility.yul\":4698:4936   */\n    tag_20:\n        /* \"#utility.yul\":4799:4803   */\n      0x00\n        /* \"#utility.yul\":4837:4839   */\n      0x20\n        /* \"#utility.yul\":4826:4835   */\n      dup3\n        /* \"#utility.yul\":4822:4840   */\n      add\n        /* \"#utility.yul\":4814:4840   */\n      swap1\n      pop\n        /* \"#utility.yul\":4850:4929   */\n      tag_122\n        /* \"#utility.yul\":4926:4927   */\n      0x00\n        /* \"#utility.yul\":4915:4924   */\n      dup4\n        /* \"#utility.yul\":4911:4928   */\n      add\n        /* \"#utility.yul\":4902:4908   */\n      dup5\n        /* \"#utility.yul\":4850:4929   */\n      tag_96\n      jump\t// in\n    tag_122:\n        /* \"#utility.yul\":4804:4936   */\n      swap3\n      swap2\n      pop\n      pop\n      jump\t// out\n        /* \"#utility.yul\":4942:5164   */\n    tag_31:\n        /* \"#utility.yul\":5035:5039   */\n      0x00\n        /* \"#utility.yul\":5073:5075   */\n      0x20\n        /* \"#utility.yul\":5062:5071   */\n      dup3\n        /* \"#utility.yul\":5058:5076   */\n      add\n        /* \"#utility.yul\":5050:5076   */\n      swap1\n      pop\n        /* \"#utility.yul\":5086:5157   */\n      tag_124\n        /* \"#utility.yul\":5154:5155   */\n      0x00\n        /* \"#utility.yul\":5143:5152   */\n      dup4\n        /* \"#utility.yul\":5139:5156   */\n      add\n        /* \"#utility.yul\":5130:5136   */\n      dup5\n        /* \"#utility.yul\":5086:5157   */\n      tag_100\n      jump\t// in\n    tag_124:\n        /* \"#utility.yul\":5040:5164   */\n      swap3\n      swap2\n      pop\n      pop\n      jump\t// out\n        /* \"#utility.yul\":5251:5349   */\n    tag_91:\n        /* \"#utility.yul\":5302:5308   */\n      0x00\n        /* \"#utility.yul\":5336:5341   */\n      dup2\n        /* \"#utility.yul\":5330:5342   */\n      mload\n        /* \"#utility.yul\":5320:5342   */\n      swap1\n      pop\n        /* \"#utility.yul\":5309:5349   */\n      swap2\n      swap1\n      pop\n      jump\t// out\n        /* \"#utility.yul\":5355:5502   */\n    tag_93:\n        /* \"#utility.yul\":5456:5467   */\n      0x00\n        /* \"#utility.yul\":5493:5496   */\n      dup2\n        /* \"#utility.yul\":5478:5496   */\n      swap1\n      pop\n        /* \"#utility.yul\":5468:5502   */\n      swap3\n      swap2\n      pop\n      pop\n      jump\t// out\n        /* \"#utility.yul\":5508:5604   */\n    tag_67:\n        /* \"#utility.yul\":5545:5552   */\n      0x00\n        /* \"#utility.yul\":5574:5598   */\n      tag_130\n        /* \"#utility.yul\":5592:5597   */\n      dup3\n        /* \"#utility.yul\":5574:5598   */\n      tag_131\n      jump\t// in\n    tag_130:\n        /* \"#utility.yul\":5563:5598   */\n      swap1\n      pop\n        /* \"#utility.yul\":5553:5604   */\n      swap2\n      swap1\n      pop\n      jump\t// out\n        /* \"#utility.yul\":5610:5759   */\n    tag_77:\n        /* \"#utility.yul\":5646:5653   */\n      0x00\n        /* \"#utility.yul\":5686:5752   */\n      0xff00000000000000000000000000000000000000000000000000000000000000\n        /* \"#utility.yul\":5679:5684   */\n      dup3\n        /* \"#utility.yul\":5675:5753   */\n      and\n        /* \"#utility.yul\":5664:5753   */\n      swap1\n      pop\n        /* \"#utility.yul\":5654:5759   */\n      swap2\n      swap1\n      pop\n      jump\t// out\n        /* \"#utility.yul\":5765:5842   */\n    tag_82:\n        /* \"#utility.yul\":5802:5809   */\n      0x00\n        /* \"#utility.yul\":5831:5836   */\n      dup2\n        /* \"#utility.yul\":5820:5836   */\n      swap1\n      pop\n        /* \"#utility.yul\":5810:5842   */\n      swap2\n      swap1\n      pop\n      jump\t// out\n        /* \"#utility.yul\":5848:5974   */\n    tag_131:\n        /* \"#utility.yul\":5885:5892   */\n      0x00\n        /* \"#utility.yul\":5925:5967   */\n      0xffffffffffffffffffffffffffffffffffffffff\n        /* \"#utility.yul\":5918:5923   */\n      dup3\n        /* \"#utility.yul\":5914:5968   */\n      and\n        /* \"#utility.yul\":5903:5968   */\n      swap1\n      pop\n        /* \"#utility.yul\":5893:5974   */\n      swap2\n      swap1\n      pop\n      jump\t// out\n        /* \"#utility.yul\":5980:6057   */\n    tag_103:\n        /* \"#utility.yul\":6017:6024   */\n      0x00\n        /* \"#utility.yul\":6046:6051   */\n      dup2\n        /* \"#utility.yul\":6035:6051   */\n      swap1\n      pop\n        /* \"#utility.yul\":6025:6057   */\n      swap2\n      swap1\n      pop\n      jump\t// out\n        /* \"#utility.yul\":6063:6205   */\n    tag_99:\n        /* \"#utility.yul\":6121:6130   */\n      0x00\n        /* \"#utility.yul\":6154:6199   */\n      tag_137\n        /* \"#utility.yul\":6193:6198   */\n      dup3\n        /* \"#utility.yul\":6154:6199   */\n      tag_138\n      jump\t// in\n    tag_137:\n        /* \"#utility.yul\":6141:6199   */\n      swap1\n      pop\n        /* \"#utility.yul\":6131:6205   */\n      swap2\n      swap1\n      pop\n      jump\t// out\n        /* \"#utility.yul\":6211:6332   */\n    tag_138:\n        /* \"#utility.yul\":6269:6278   */\n      0x00\n        /* \"#utility.yul\":6302:6326   */\n      tag_140\n        /* \"#utility.yul\":6320:6325   */\n      dup3\n        /* \"#utility.yul\":6302:6326   */\n      tag_131\n      jump\t// in\n    tag_140:\n        /* \"#utility.yul\":6289:6326   */\n      swap1\n      pop\n        /* \"#utility.yul\":6279:6332   */\n      swap2\n      swap1\n      pop\n      jump\t// out\n        /* \"#utility.yul\":6338:6645   */\n    tag_95:\n        /* \"#utility.yul\":6406:6407   */\n      0x00\n        /* \"#utility.yul\":6416:6529   */\n    tag_142:\n        /* \"#utility.yul\":6430:6436   */\n      dup4\n        /* \"#utility.yul\":6427:6428   */\n      dup2\n        /* \"#utility.yul\":6424:6437   */\n      lt\n        /* \"#utility.yul\":6416:6529   */\n      iszero\n      tag_144\n      jumpi\n        /* \"#utility.yul\":6515:6516   */\n      dup1\n        /* \"#utility.yul\":6510:6513   */\n      dup3\n        /* \"#utility.yul\":6506:6517   */\n      add\n        /* \"#utility.yul\":6500:6518   */\n      mload\n        /* \"#utility.yul\":6496:6497   */\n      dup2\n        /* \"#utility.yul\":6491:6494   */\n      dup5\n        /* \"#utility.yul\":6487:6498   */\n      add\n        /* \"#utility.yul\":6480:6519   */\n      mstore\n        /* \"#utility.yul\":6452:6454   */\n      0x20\n        /* \"#utility.yul\":6449:6450   */\n      dup2\n        /* \"#utility.yul\":6445:6455   */\n      add\n        /* \"#utility.yul\":6440:6455   */\n      swap1\n      pop\n        /* \"#utility.yul\":6416:6529   */\n      jump(tag_142)\n    tag_144:\n        /* \"#utility.yul\":6547:6553   */\n      dup4\n        /* \"#utility.yul\":6544:6545   */\n      dup2\n        /* \"#utility.yul\":6541:6554   */\n      gt\n        /* \"#utility.yul\":6538:6540   */\n      iszero\n      tag_145\n      jumpi\n        /* \"#utility.yul\":6627:6628   */\n      0x00\n        /* \"#utility.yul\":6618:6624   */\n      dup5\n        /* \"#utility.yul\":6613:6616   */\n      dup5\n        /* \"#utility.yul\":6609:6625   */\n      add\n        /* \"#utility.yul\":6602:6629   */\n      mstore\n        /* \"#utility.yul\":6538:6540   */\n    tag_145:\n        /* \"#utility.yul\":6387:6645   */\n      pop\n      pop\n      pop\n      pop\n      jump\t// out\n        /* \"#utility.yul\":6651:6751   */\n    tag_72:\n        /* \"#utility.yul\":6690:6697   */\n      0x00\n        /* \"#utility.yul\":6719:6745   */\n      tag_147\n        /* \"#utility.yul\":6739:6744   */\n      dup3\n        /* \"#utility.yul\":6719:6745   */\n      tag_148\n      jump\t// in\n    tag_147:\n        /* \"#utility.yul\":6708:6745   */\n      swap1\n      pop\n        /* \"#utility.yul\":6698:6751   */\n      swap2\n      swap1\n      pop\n      jump\t// out\n        /* \"#utility.yul\":6757:6835   */\n    tag_78:\n        /* \"#utility.yul\":6795:6802   */\n      0x00\n        /* \"#utility.yul\":6824:6829   */\n      dup2\n        /* \"#utility.yul\":6813:6829   */\n      swap1\n      pop\n        /* \"#utility.yul\":6803:6835   */\n      swap2\n      swap1\n      pop\n      jump\t// out\n        /* \"#utility.yul\":6841:6920   */\n    tag_87:\n        /* \"#utility.yul\":6880:6887   */\n      0x00\n        /* \"#utility.yul\":6909:6914   */\n      dup2\n        /* \"#utility.yul\":6898:6914   */\n      swap1\n      pop\n        /* \"#utility.yul\":6888:6920   */\n      swap2\n      swap1\n      pop\n      jump\t// out\n        /* \"#utility.yul\":6926:7020   */\n    tag_148:\n        /* \"#utility.yul\":6965:6972   */\n      0x00\n        /* \"#utility.yul\":6994:7014   */\n      tag_152\n        /* \"#utility.yul\":7008:7013   */\n      dup3\n        /* \"#utility.yul\":6994:7014   */\n      tag_153\n      jump\t// in\n    tag_152:\n        /* \"#utility.yul\":6983:7014   */\n      swap1\n      pop\n        /* \"#utility.yul\":6973:7020   */\n      swap2\n      swap1\n      pop\n      jump\t// out\n        /* \"#utility.yul\":7026:7105   */\n    tag_108:\n        /* \"#utility.yul\":7065:7072   */\n      0x00\n        /* \"#utility.yul\":7094:7099   */\n      dup2\n        /* \"#utility.yul\":7083:7099   */\n      swap1\n      pop\n        /* \"#utility.yul\":7073:7105   */\n      swap2\n      swap1\n      pop\n      jump\t// out\n        /* \"#utility.yul\":7234:7351   */\n    tag_52:\n        /* \"#utility.yul\":7343:7344   */\n      0x00\n        /* \"#utility.yul\":7340:7341   */\n      dup1\n        /* \"#utility.yul\":7333:7345   */\n      revert\n        /* \"#utility.yul\":7357:7451   */\n    tag_153:\n        /* \"#utility.yul\":7390:7398   */\n      0x00\n        /* \"#utility.yul\":7438:7443   */\n      dup2\n        /* \"#utility.yul\":7434:7436   */\n      0x60\n        /* \"#utility.yul\":7430:7444   */\n      shl\n        /* \"#utility.yul\":7409:7444   */\n      swap1\n      pop\n        /* \"#utility.yul\":7399:7451   */\n      swap2\n      swap1\n      pop\n      jump\t// out\n        /* \"#utility.yul\":7457:7579   */\n    tag_44:\n        /* \"#utility.yul\":7530:7554   */\n      tag_160\n        /* \"#utility.yul\":7548:7553   */\n      dup2\n        /* \"#utility.yul\":7530:7554   */\n      tag_82\n      jump\t// in\n    tag_160:\n        /* \"#utility.yul\":7523:7528   */\n      dup2\n        /* \"#utility.yul\":7520:7555   */\n      eq\n        /* \"#utility.yul\":7510:7512   */\n      tag_161\n      jumpi\n        /* \"#utility.yul\":7569:7570   */\n      0x00\n        /* \"#utility.yul\":7566:7567   */\n      dup1\n        /* \"#utility.yul\":7559:7571   */\n      revert\n        /* \"#utility.yul\":7510:7512   */\n    tag_161:\n        /* \"#utility.yul\":7500:7579   */\n      pop\n      jump\t// out\n        /* \"#utility.yul\":7585:7707   */\n    tag_48:\n        /* \"#utility.yul\":7658:7682   */\n      tag_163\n        /* \"#utility.yul\":7676:7681   */\n      dup2\n        /* \"#utility.yul\":7658:7682   */\n      tag_103\n      jump\t// in\n    tag_163:\n        /* \"#utility.yul\":7651:7656   */\n      dup2\n        /* \"#utility.yul\":7648:7683   */\n      eq\n        /* \"#utility.yul\":7638:7640   */\n      tag_164\n      jumpi\n        /* \"#utility.yul\":7697:7698   */\n      0x00\n        /* \"#utility.yul\":7694:7695   */\n      dup1\n        /* \"#utility.yul\":7687:7699   */\n      revert\n        /* \"#utility.yul\":7638:7640   */\n    tag_164:\n        /* \"#utility.yul\":7628:7707   */\n      pop\n      jump\t// out\n    stop\n\n    sub_0: assembly {\n            /* \"study/chapter04/create2.sol\":55:148  contract D{... */\n          mstore(0x40, 0x80)\n            /* \"study/chapter04/create2.sol\":94:145  constructor(uint _arg){... */\n          callvalue\n          dup1\n          iszero\n          tag_1\n          jumpi\n          0x00\n          dup1\n          revert\n        tag_1:\n          pop\n          mload(0x40)\n          sub(codesize, bytecodeSize)\n          dup1\n          bytecodeSize\n          dup4\n          codecopy\n          dup2\n          dup2\n          add\n          0x40\n          mstore\n          dup2\n          add\n          swap1\n          tag_2\n          swap2\n          swap1\n          tag_3\n          jump\t// in\n        tag_2:\n            /* \"study/chapter04/create2.sol\":133:137  _arg */\n          dup1\n            /* \"study/chapter04/create2.sol\":127:130  arg */\n          0x00\n            /* \"study/chapter04/create2.sol\":127:137  arg = _arg */\n          dup2\n          swap1\n          sstore\n          pop\n            /* \"study/chapter04/create2.sol\":94:145  constructor(uint _arg){... */\n          pop\n            /* \"study/chapter04/create2.sol\":55:148  contract D{... */\n          jump(tag_6)\n            /* \"#utility.yul\":7:150   */\n        tag_8:\n            /* \"#utility.yul\":64:69   */\n          0x00\n            /* \"#utility.yul\":95:101   */\n          dup2\n            /* \"#utility.yul\":89:102   */\n          mload\n            /* \"#utility.yul\":80:102   */\n          swap1\n          pop\n            /* \"#utility.yul\":111:144   */\n          tag_10\n            /* \"#utility.yul\":138:143   */\n          dup2\n            /* \"#utility.yul\":111:144   */\n          tag_11\n          jump\t// in\n        tag_10:\n            /* \"#utility.yul\":70:150   */\n          swap3\n          swap2\n          pop\n          pop\n          jump\t// out\n            /* \"#utility.yul\":156:507   */\n        tag_3:\n            /* \"#utility.yul\":226:232   */\n          0x00\n            /* \"#utility.yul\":275:277   */\n          0x20\n            /* \"#utility.yul\":263:272   */\n          dup3\n            /* \"#utility.yul\":254:261   */\n          dup5\n            /* \"#utility.yul\":250:273   */\n          sub\n            /* \"#utility.yul\":246:278   */\n          slt\n            /* \"#utility.yul\":243:245   */\n          iszero\n          tag_13\n          jumpi\n            /* \"#utility.yul\":281:360   */\n          tag_14\n          tag_15\n          jump\t// in\n        tag_14:\n            /* \"#utility.yul\":243:245   */\n        tag_13:\n            /* \"#utility.yul\":401:402   */\n          0x00\n            /* \"#utility.yul\":426:490   */\n          tag_16\n            /* \"#utility.yul\":482:489   */\n          dup5\n            /* \"#utility.yul\":473:479   */\n          dup3\n            /* \"#utility.yul\":462:471   */\n          dup6\n            /* \"#utility.yul\":458:480   */\n          add\n            /* \"#utility.yul\":426:490   */\n          tag_8\n          jump\t// in\n        tag_16:\n            /* \"#utility.yul\":416:490   */\n          swap2\n          pop\n            /* \"#utility.yul\":372:500   */\n          pop\n            /* \"#utility.yul\":233:507   */\n          swap3\n          swap2\n          pop\n          pop\n          jump\t// out\n            /* \"#utility.yul\":594:671   */\n        tag_19:\n            /* \"#utility.yul\":631:638   */\n          0x00\n            /* \"#utility.yul\":660:665   */\n          dup2\n            /* \"#utility.yul\":649:665   */\n          swap1\n          pop\n            /* \"#utility.yul\":639:671   */\n          swap2\n          swap1\n          pop\n          jump\t// out\n            /* \"#utility.yul\":800:917   */\n        tag_15:\n            /* \"#utility.yul\":909:910   */\n          0x00\n            /* \"#utility.yul\":906:907   */\n          dup1\n            /* \"#utility.yul\":899:911   */\n          revert\n            /* \"#utility.yul\":923:1045   */\n        tag_11:\n            /* \"#utility.yul\":996:1020   */\n          tag_25\n            /* \"#utility.yul\":1014:1019   */\n          dup2\n            /* \"#utility.yul\":996:1020   */\n          tag_19\n          jump\t// in\n        tag_25:\n            /* \"#utility.yul\":989:994   */\n          dup2\n            /* \"#utility.yul\":986:1021   */\n          eq\n            /* \"#utility.yul\":976:978   */\n          tag_26\n          jumpi\n            /* \"#utility.yul\":1035:1036   */\n          0x00\n            /* \"#utility.yul\":1032:1033   */\n          dup1\n            /* \"#utility.yul\":1025:1037   */\n          revert\n            /* \"#utility.yul\":976:978   */\n        tag_26:\n            /* \"#utility.yul\":966:1045   */\n          pop\n          jump\t// out\n            /* \"study/chapter04/create2.sol\":55:148  contract D{... */\n        tag_6:\n          dataSize(sub_0)\n          dup1\n          dataOffset(sub_0)\n          0x00\n          codecopy\n          0x00\n          return\n        stop\n\n        sub_0: assembly {\n                /* \"study/chapter04/create2.sol\":55:148  contract D{... */\n              mstore(0x40, 0x80)\n              callvalue\n              dup1\n              iszero\n              tag_1\n              jumpi\n              0x00\n              dup1\n              revert\n            tag_1:\n              pop\n              jumpi(tag_2, lt(calldatasize, 0x04))\n              shr(0xe0, calldataload(0x00))\n              dup1\n              0x7435e911\n              eq\n              tag_3\n              jumpi\n            tag_2:\n              0x00\n              dup1\n              revert\n                /* \"study/chapter04/create2.sol\":72:87  uint public arg */\n            tag_3:\n              tag_4\n              tag_5\n              jump\t// in\n            tag_4:\n              mload(0x40)\n              tag_6\n              swap2\n              swap1\n              tag_7\n              jump\t// in\n            tag_6:\n              mload(0x40)\n              dup1\n              swap2\n              sub\n              swap1\n              return\n            tag_5:\n              sload(0x00)\n              dup2\n              jump\t// out\n                /* \"#utility.yul\":7:125   */\n            tag_9:\n                /* \"#utility.yul\":94:118   */\n              tag_11\n                /* \"#utility.yul\":112:117   */\n              dup2\n                /* \"#utility.yul\":94:118   */\n              tag_12\n              jump\t// in\n            tag_11:\n                /* \"#utility.yul\":89:92   */\n              dup3\n                /* \"#utility.yul\":82:119   */\n              mstore\n                /* \"#utility.yul\":72:125   */\n              pop\n              pop\n              jump\t// out\n                /* \"#utility.yul\":131:353   */\n            tag_7:\n                /* \"#utility.yul\":224:228   */\n              0x00\n                /* \"#utility.yul\":262:264   */\n              0x20\n                /* \"#utility.yul\":251:260   */\n              dup3\n                /* \"#utility.yul\":247:265   */\n              add\n                /* \"#utility.yul\":239:265   */\n              swap1\n              pop\n                /* \"#utility.yul\":275:346   */\n              tag_14\n                /* \"#utility.yul\":343:344   */\n              0x00\n                /* \"#utility.yul\":332:341   */\n              dup4\n                /* \"#utility.yul\":328:345   */\n              add\n                /* \"#utility.yul\":319:325   */\n              dup5\n                /* \"#utility.yul\":275:346   */\n              tag_9\n              jump\t// in\n            tag_14:\n                /* \"#utility.yul\":229:353   */\n              swap3\n              swap2\n              pop\n              pop\n              jump\t// out\n                /* \"#utility.yul\":359:436   */\n            tag_12:\n                /* \"#utility.yul\":396:403   */\n              0x00\n                /* \"#utility.yul\":425:430   */\n              dup2\n                /* \"#utility.yul\":414:430   */\n              swap1\n              pop\n                /* \"#utility.yul\":404:436   */\n              swap2\n              swap1\n              pop\n              jump\t// out\n\n            auxdata: 0xa2646970667358221220339c385af4571756566bca0d3e788d1c702e935ace8cf7f7363d8b265d436ddb64736f6c63430008060033\n        }\n    }\n\n    auxdata: 0xa2646970667358221220f39f164fa9098d5cc9d69dad560da69ef1d65e2501c073d8a48a2ea52d73d86e64736f6c63430008060033\n}\n",
				"bytecode": {
					"linkReferences": {},
					"object": "608060405234801561001057600080fd5b506107b4806100206000396000f3fe608060405234801561001057600080fd5b506004361061004c5760003560e01c80630bd38f2f1461005157806324dfc9d71461006d5780638a054ac21461009d5780639262d759146100bb575b600080fd5b61006b6004803603810190610066919061025d565b6100eb565b005b6100876004803603810190610082919061029d565b610167565b6040516100949190610464565b60405180910390f35b6100a5610174565b6040516100b2919061047f565b60405180910390f35b6100d560048036038101906100d091906102ca565b610198565b6040516100e29190610449565b60405180910390f35b81816040516100f990610226565b610103919061049a565b8190604051809103906000f5905080158015610123573d6000803e3d6000fd5b506000806101000a81548173ffffffffffffffffffffffffffffffffffffffff021916908373ffffffffffffffffffffffffffffffffffffffff1602179055505050565b60008160001b9050919050565b60008054906101000a900473ffffffffffffffffffffffffffffffffffffffff1681565b60008060ff60f81b3085604051806020016101b290610226565b6020820181038252601f19601f82011660405250866040516020016101d8929190610421565b6040516020818303038152906040528051906020012060405160200161020194939291906103d3565b6040516020818303038152906040528051906020012060001c90508091505092915050565b6101688061061783390190565b600081359050610242816105e8565b92915050565b600081359050610257816105ff565b92915050565b60008060408385031215610274576102736105d6565b5b600061028285828601610233565b925050602061029385828601610248565b9150509250929050565b6000602082840312156102b3576102b26105d6565b5b60006102c184828501610248565b91505092915050565b600080604083850312156102e1576102e06105d6565b5b60006102ef85828601610248565b925050602061030085828601610248565b9150509250929050565b610313816104cb565b82525050565b61032a610325826104cb565b610594565b82525050565b61034161033c826104dd565b6105a6565b82525050565b61035081610509565b82525050565b61036761036282610509565b6105b0565b82525050565b6000610378826104b5565b61038281856104c0565b9350610392818560208601610561565b80840191505092915050565b6103a78161053d565b82525050565b6103b681610533565b82525050565b6103cd6103c882610533565b6105cc565b82525050565b60006103df8287610330565b6001820191506103ef8286610319565b6014820191506103ff82856103bc565b60208201915061040f8284610356565b60208201915081905095945050505050565b600061042d828561036d565b915061043982846103bc565b6020820191508190509392505050565b600060208201905061045e600083018461030a565b92915050565b60006020820190506104796000830184610347565b92915050565b6000602082019050610494600083018461039e565b92915050565b60006020820190506104af60008301846103ad565b92915050565b600081519050919050565b600081905092915050565b60006104d682610513565b9050919050565b60007fff0000000000000000000000000000000000000000000000000000000000000082169050919050565b6000819050919050565b600073ffffffffffffffffffffffffffffffffffffffff82169050919050565b6000819050919050565b60006105488261054f565b9050919050565b600061055a82610513565b9050919050565b60005b8381101561057f578082015181840152602081019050610564565b8381111561058e576000848401525b50505050565b600061059f826105ba565b9050919050565b6000819050919050565b6000819050919050565b60006105c5826105db565b9050919050565b6000819050919050565b600080fd5b60008160601b9050919050565b6105f181610509565b81146105fc57600080fd5b50565b61060881610533565b811461061357600080fd5b5056fe608060405234801561001057600080fd5b5060405161016838038061016883398181016040528101906100329190610054565b80600081905550506100a7565b60008151905061004e81610090565b92915050565b60006020828403121561006a5761006961008b565b5b60006100788482850161003f565b91505092915050565b6000819050919050565b600080fd5b61009981610081565b81146100a457600080fd5b50565b60b3806100b56000396000f3fe6080604052348015600f57600080fd5b506004361060285760003560e01c80637435e91114602d575b600080fd5b60336047565b604051603e9190605a565b60405180910390f35b60005481565b6054816073565b82525050565b6000602082019050606d6000830184604d565b92915050565b600081905091905056fea2646970667358221220339c385af4571756566bca0d3e788d1c702e935ace8cf7f7363d8b265d436ddb64736f6c63430008060033a2646970667358221220f39f164fa9098d5cc9d69dad560da69ef1d65e2501c073d8a48a2ea52d73d86e64736f6c63430008060033",
					"opcodes": "PUSH1 0x80 PUSH1 0x40 MSTORE CALLVALUE DUP1 ISZERO PUSH2 0x10 JUMPI PUSH1 0x0 DUP1 REVERT JUMPDEST POP PUSH2 0x7B4 DUP1 PUSH2 0x20 PUSH1 0x0 CODECOPY PUSH1 0x0 RETURN INVALID PUSH1 0x80 PUSH1 0x40 MSTORE CALLVALUE DUP1 ISZERO PUSH2 0x10 JUMPI PUSH1 0x0 DUP1 REVERT JUMPDEST POP PUSH1 0x4 CALLDATASIZE LT PUSH2 0x4C JUMPI PUSH1 0x0 CALLDATALOAD PUSH1 0xE0 SHR DUP1 PUSH4 0xBD38F2F EQ PUSH2 0x51 JUMPI DUP1 PUSH4 0x24DFC9D7 EQ PUSH2 0x6D JUMPI DUP1 PUSH4 0x8A054AC2 EQ PUSH2 0x9D JUMPI DUP1 PUSH4 0x9262D759 EQ PUSH2 0xBB JUMPI JUMPDEST PUSH1 0x0 DUP1 REVERT JUMPDEST PUSH2 0x6B PUSH1 0x4 DUP1 CALLDATASIZE SUB DUP2 ADD SWAP1 PUSH2 0x66 SWAP2 SWAP1 PUSH2 0x25D JUMP JUMPDEST PUSH2 0xEB JUMP JUMPDEST STOP JUMPDEST PUSH2 0x87 PUSH1 0x4 DUP1 CALLDATASIZE SUB DUP2 ADD SWAP1 PUSH2 0x82 SWAP2 SWAP1 PUSH2 0x29D JUMP JUMPDEST PUSH2 0x167 JUMP JUMPDEST PUSH1 0x40 MLOAD PUSH2 0x94 SWAP2 SWAP1 PUSH2 0x464 JUMP JUMPDEST PUSH1 0x40 MLOAD DUP1 SWAP2 SUB SWAP1 RETURN JUMPDEST PUSH2 0xA5 PUSH2 0x174 JUMP JUMPDEST PUSH1 0x40 MLOAD PUSH2 0xB2 SWAP2 SWAP1 PUSH2 0x47F JUMP JUMPDEST PUSH1 0x40 MLOAD DUP1 SWAP2 SUB SWAP1 RETURN JUMPDEST PUSH2 0xD5 PUSH1 0x4 DUP1 CALLDATASIZE SUB DUP2 ADD SWAP1 PUSH2 0xD0 SWAP2 SWAP1 PUSH2 0x2CA JUMP JUMPDEST PUSH2 0x198 JUMP JUMPDEST PUSH1 0x40 MLOAD PUSH2 0xE2 SWAP2 SWAP1 PUSH2 0x449 JUMP JUMPDEST PUSH1 0x40 MLOAD DUP1 SWAP2 SUB SWAP1 RETURN JUMPDEST DUP2 DUP2 PUSH1 0x40 MLOAD PUSH2 0xF9 SWAP1 PUSH2 0x226 JUMP JUMPDEST PUSH2 0x103 SWAP2 SWAP1 PUSH2 0x49A JUMP JUMPDEST DUP2 SWAP1 PUSH1 0x40 MLOAD DUP1 SWAP2 SUB SWAP1 PUSH1 0x0 CREATE2 SWAP1 POP DUP1 ISZERO DUP1 ISZERO PUSH2 0x123 JUMPI RETURNDATASIZE PUSH1 0x0 DUP1 RETURNDATACOPY RETURNDATASIZE PUSH1 0x0 REVERT JUMPDEST POP PUSH1 0x0 DUP1 PUSH2 0x100 EXP DUP2 SLOAD DUP2 PUSH20 0xFFFFFFFFFFFFFFFFFFFFFFFFFFFFFFFFFFFFFFFF MUL NOT AND SWAP1 DUP4 PUSH20 0xFFFFFFFFFFFFFFFFFFFFFFFFFFFFFFFFFFFFFFFF AND MUL OR SWAP1 SSTORE POP POP POP JUMP JUMPDEST PUSH1 0x0 DUP2 PUSH1 0x0 SHL SWAP1 POP SWAP2 SWAP1 POP JUMP JUMPDEST PUSH1 0x0 DUP1 SLOAD SWAP1 PUSH2 0x100 EXP SWAP1 DIV PUSH20 0xFFFFFFFFFFFFFFFFFFFFFFFFFFFFFFFFFFFFFFFF AND DUP2 JUMP JUMPDEST PUSH1 0x0 DUP1 PUSH1 0xFF PUSH1 0xF8 SHL ADDRESS DUP6 PUSH1 0x40 MLOAD DUP1 PUSH1 0x20 ADD PUSH2 0x1B2 SWAP1 PUSH2 0x226 JUMP JUMPDEST PUSH1 0x20 DUP3 ADD DUP2 SUB DUP3 MSTORE PUSH1 0x1F NOT PUSH1 0x1F DUP3 ADD AND PUSH1 0x40 MSTORE POP DUP7 PUSH1 0x40 MLOAD PUSH1 0x20 ADD PUSH2 0x1D8 SWAP3 SWAP2 SWAP1 PUSH2 0x421 JUMP JUMPDEST PUSH1 0x40 MLOAD PUSH1 0x20 DUP2 DUP4 SUB SUB DUP2 MSTORE SWAP1 PUSH1 0x40 MSTORE DUP1 MLOAD SWAP1 PUSH1 0x20 ADD KECCAK256 PUSH1 0x40 MLOAD PUSH1 0x20 ADD PUSH2 0x201 SWAP5 SWAP4 SWAP3 SWAP2 SWAP1 PUSH2 0x3D3 JUMP JUMPDEST PUSH1 0x40 MLOAD PUSH1 0x20 DUP2 DUP4 SUB SUB DUP2 MSTORE SWAP1 PUSH1 0x40 MSTORE DUP1 MLOAD SWAP1 PUSH1 0x20 ADD KECCAK256 PUSH1 0x0 SHR SWAP1 POP DUP1 SWAP2 POP POP SWAP3 SWAP2 POP POP JUMP JUMPDEST PUSH2 0x168 DUP1 PUSH2 0x617 DUP4 CODECOPY ADD SWAP1 JUMP JUMPDEST PUSH1 0x0 DUP2 CALLDATALOAD SWAP1 POP PUSH2 0x242 DUP2 PUSH2 0x5E8 JUMP JUMPDEST SWAP3 SWAP2 POP POP JUMP JUMPDEST PUSH1 0x0 DUP2 CALLDATALOAD SWAP1 POP PUSH2 0x257 DUP2 PUSH2 0x5FF JUMP JUMPDEST SWAP3 SWAP2 POP POP JUMP JUMPDEST PUSH1 0x0 DUP1 PUSH1 0x40 DUP4 DUP6 SUB SLT ISZERO PUSH2 0x274 JUMPI PUSH2 0x273 PUSH2 0x5D6 JUMP JUMPDEST JUMPDEST PUSH1 0x0 PUSH2 0x282 DUP6 DUP3 DUP7 ADD PUSH2 0x233 JUMP JUMPDEST SWAP3 POP POP PUSH1 0x20 PUSH2 0x293 DUP6 DUP3 DUP7 ADD PUSH2 0x248 JUMP JUMPDEST SWAP2 POP POP SWAP3 POP SWAP3 SWAP1 POP JUMP JUMPDEST PUSH1 0x0 PUSH1 0x20 DUP3 DUP5 SUB SLT ISZERO PUSH2 0x2B3 JUMPI PUSH2 0x2B2 PUSH2 0x5D6 JUMP JUMPDEST JUMPDEST PUSH1 0x0 PUSH2 0x2C1 DUP5 DUP3 DUP6 ADD PUSH2 0x248 JUMP JUMPDEST SWAP2 POP POP SWAP3 SWAP2 POP POP JUMP JUMPDEST PUSH1 0x0 DUP1 PUSH1 0x40 DUP4 DUP6 SUB SLT ISZERO PUSH2 0x2E1 JUMPI PUSH2 0x2E0 PUSH2 0x5D6 JUMP JUMPDEST JUMPDEST PUSH1 0x0 PUSH2 0x2EF DUP6 DUP3 DUP7 ADD PUSH2 0x248 JUMP JUMPDEST SWAP3 POP POP PUSH1 0x20 PUSH2 0x300 DUP6 DUP3 DUP7 ADD PUSH2 0x248 JUMP JUMPDEST SWAP2 POP POP SWAP3 POP SWAP3 SWAP1 POP JUMP JUMPDEST PUSH2 0x313 DUP2 PUSH2 0x4CB JUMP JUMPDEST DUP3 MSTORE POP POP JUMP JUMPDEST PUSH2 0x32A PUSH2 0x325 DUP3 PUSH2 0x4CB JUMP JUMPDEST PUSH2 0x594 JUMP JUMPDEST DUP3 MSTORE POP POP JUMP JUMPDEST PUSH2 0x341 PUSH2 0x33C DUP3 PUSH2 0x4DD JUMP JUMPDEST PUSH2 0x5A6 JUMP JUMPDEST DUP3 MSTORE POP POP JUMP JUMPDEST PUSH2 0x350 DUP2 PUSH2 0x509 JUMP JUMPDEST DUP3 MSTORE POP POP JUMP JUMPDEST PUSH2 0x367 PUSH2 0x362 DUP3 PUSH2 0x509 JUMP JUMPDEST PUSH2 0x5B0 JUMP JUMPDEST DUP3 MSTORE POP POP JUMP JUMPDEST PUSH1 0x0 PUSH2 0x378 DUP3 PUSH2 0x4B5 JUMP JUMPDEST PUSH2 0x382 DUP2 DUP6 PUSH2 0x4C0 JUMP JUMPDEST SWAP4 POP PUSH2 0x392 DUP2 DUP6 PUSH1 0x20 DUP7 ADD PUSH2 0x561 JUMP JUMPDEST DUP1 DUP5 ADD SWAP2 POP POP SWAP3 SWAP2 POP POP JUMP JUMPDEST PUSH2 0x3A7 DUP2 PUSH2 0x53D JUMP JUMPDEST DUP3 MSTORE POP POP JUMP JUMPDEST PUSH2 0x3B6 DUP2 PUSH2 0x533 JUMP JUMPDEST DUP3 MSTORE POP POP JUMP JUMPDEST PUSH2 0x3CD PUSH2 0x3C8 DUP3 PUSH2 0x533 JUMP JUMPDEST PUSH2 0x5CC JUMP JUMPDEST DUP3 MSTORE POP POP JUMP JUMPDEST PUSH1 0x0 PUSH2 0x3DF DUP3 DUP8 PUSH2 0x330 JUMP JUMPDEST PUSH1 0x1 DUP3 ADD SWAP2 POP PUSH2 0x3EF DUP3 DUP7 PUSH2 0x319 JUMP JUMPDEST PUSH1 0x14 DUP3 ADD SWAP2 POP PUSH2 0x3FF DUP3 DUP6 PUSH2 0x3BC JUMP JUMPDEST PUSH1 0x20 DUP3 ADD SWAP2 POP PUSH2 0x40F DUP3 DUP5 PUSH2 0x356 JUMP JUMPDEST PUSH1 0x20 DUP3 ADD SWAP2 POP DUP2 SWAP1 POP SWAP6 SWAP5 POP POP POP POP POP JUMP JUMPDEST PUSH1 0x0 PUSH2 0x42D DUP3 DUP6 PUSH2 0x36D JUMP JUMPDEST SWAP2 POP PUSH2 0x439 DUP3 DUP5 PUSH2 0x3BC JUMP JUMPDEST PUSH1 0x20 DUP3 ADD SWAP2 POP DUP2 SWAP1 POP SWAP4 SWAP3 POP POP POP JUMP JUMPDEST PUSH1 0x0 PUSH1 0x20 DUP3 ADD SWAP1 POP PUSH2 0x45E PUSH1 0x0 DUP4 ADD DUP5 PUSH2 0x30A JUMP JUMPDEST SWAP3 SWAP2 POP POP JUMP JUMPDEST PUSH1 0x0 PUSH1 0x20 DUP3 ADD SWAP1 POP PUSH2 0x479 PUSH1 0x0 DUP4 ADD DUP5 PUSH2 0x347 JUMP JUMPDEST SWAP3 SWAP2 POP POP JUMP JUMPDEST PUSH1 0x0 PUSH1 0x20 DUP3 ADD SWAP1 POP PUSH2 0x494 PUSH1 0x0 DUP4 ADD DUP5 PUSH2 0x39E JUMP JUMPDEST SWAP3 SWAP2 POP POP JUMP JUMPDEST PUSH1 0x0 PUSH1 0x20 DUP3 ADD SWAP1 POP PUSH2 0x4AF PUSH1 0x0 DUP4 ADD DUP5 PUSH2 0x3AD JUMP JUMPDEST SWAP3 SWAP2 POP POP JUMP JUMPDEST PUSH1 0x0 DUP2 MLOAD SWAP1 POP SWAP2 SWAP1 POP JUMP JUMPDEST PUSH1 0x0 DUP2 SWAP1 POP SWAP3 SWAP2 POP POP JUMP JUMPDEST PUSH1 0x0 PUSH2 0x4D6 DUP3 PUSH2 0x513 JUMP JUMPDEST SWAP1 POP SWAP2 SWAP1 POP JUMP JUMPDEST PUSH1 0x0 PUSH32 0xFF00000000000000000000000000000000000000000000000000000000000000 DUP3 AND SWAP1 POP SWAP2 SWAP1 POP JUMP JUMPDEST PUSH1 0x0 DUP2 SWAP1 POP SWAP2 SWAP1 POP JUMP JUMPDEST PUSH1 0x0 PUSH20 0xFFFFFFFFFFFFFFFFFFFFFFFFFFFFFFFFFFFFFFFF DUP3 AND SWAP1 POP SWAP2 SWAP1 POP JUMP JUMPDEST PUSH1 0x0 DUP2 SWAP1 POP SWAP2 SWAP1 POP JUMP JUMPDEST PUSH1 0x0 PUSH2 0x548 DUP3 PUSH2 0x54F JUMP JUMPDEST SWAP1 POP SWAP2 SWAP1 POP JUMP JUMPDEST PUSH1 0x0 PUSH2 0x55A DUP3 PUSH2 0x513 JUMP JUMPDEST SWAP1 POP SWAP2 SWAP1 POP JUMP JUMPDEST PUSH1 0x0 JUMPDEST DUP4 DUP2 LT ISZERO PUSH2 0x57F JUMPI DUP1 DUP3 ADD MLOAD DUP2 DUP5 ADD MSTORE PUSH1 0x20 DUP2 ADD SWAP1 POP PUSH2 0x564 JUMP JUMPDEST DUP4 DUP2 GT ISZERO PUSH2 0x58E JUMPI PUSH1 0x0 DUP5 DUP5 ADD MSTORE JUMPDEST POP POP POP POP JUMP JUMPDEST PUSH1 0x0 PUSH2 0x59F DUP3 PUSH2 0x5BA JUMP JUMPDEST SWAP1 POP SWAP2 SWAP1 POP JUMP JUMPDEST PUSH1 0x0 DUP2 SWAP1 POP SWAP2 SWAP1 POP JUMP JUMPDEST PUSH1 0x0 DUP2 SWAP1 POP SWAP2 SWAP1 POP JUMP JUMPDEST PUSH1 0x0 PUSH2 0x5C5 DUP3 PUSH2 0x5DB JUMP JUMPDEST SWAP1 POP SWAP2 SWAP1 POP JUMP JUMPDEST PUSH1 0x0 DUP2 SWAP1 POP SWAP2 SWAP1 POP JUMP JUMPDEST PUSH1 0x0 DUP1 REVERT JUMPDEST PUSH1 0x0 DUP2 PUSH1 0x60 SHL SWAP1 POP SWAP2 SWAP1 POP JUMP JUMPDEST PUSH2 0x5F1 DUP2 PUSH2 0x509 JUMP JUMPDEST DUP2 EQ PUSH2 0x5FC JUMPI PUSH1 0x0 DUP1 REVERT JUMPDEST POP JUMP JUMPDEST PUSH2 0x608 DUP2 PUSH2 0x533 JUMP JUMPDEST DUP2 EQ PUSH2 0x613 JUMPI PUSH1 0x0 DUP1 REVERT JUMPDEST POP JUMP INVALID PUSH1 0x80 PUSH1 0x40 MSTORE CALLVALUE DUP1 ISZERO PUSH2 0x10 JUMPI PUSH1 0x0 DUP1 REVERT JUMPDEST POP PUSH1 0x40 MLOAD PUSH2 0x168 CODESIZE SUB DUP1 PUSH2 0x168 DUP4 CODECOPY DUP2 DUP2 ADD PUSH1 0x40 MSTORE DUP2 ADD SWAP1 PUSH2 0x32 SWAP2 SWAP1 PUSH2 0x54 JUMP JUMPDEST DUP1 PUSH1 0x0 DUP2 SWAP1 SSTORE POP POP PUSH2 0xA7 JUMP JUMPDEST PUSH1 0x0 DUP2 MLOAD SWAP1 POP PUSH2 0x4E DUP2 PUSH2 0x90 JUMP JUMPDEST SWAP3 SWAP2 POP POP JUMP JUMPDEST PUSH1 0x0 PUSH1 0x20 DUP3 DUP5 SUB SLT ISZERO PUSH2 0x6A JUMPI PUSH2 0x69 PUSH2 0x8B JUMP JUMPDEST JUMPDEST PUSH1 0x0 PUSH2 0x78 DUP5 DUP3 DUP6 ADD PUSH2 0x3F JUMP JUMPDEST SWAP2 POP POP SWAP3 SWAP2 POP POP JUMP JUMPDEST PUSH1 0x0 DUP2 SWAP1 POP SWAP2 SWAP1 POP JUMP JUMPDEST PUSH1 0x0 DUP1 REVERT JUMPDEST PUSH2 0x99 DUP2 PUSH2 0x81 JUMP JUMPDEST DUP2 EQ PUSH2 0xA4 JUMPI PUSH1 0x0 DUP1 REVERT JUMPDEST POP JUMP JUMPDEST PUSH1 0xB3 DUP1 PUSH2 0xB5 PUSH1 0x0 CODECOPY PUSH1 0x0 RETURN INVALID PUSH1 0x80 PUSH1 0x40 MSTORE CALLVALUE DUP1 ISZERO PUSH1 0xF JUMPI PUSH1 0x0 DUP1 REVERT JUMPDEST POP PUSH1 0x4 CALLDATASIZE LT PUSH1 0x28 JUMPI PUSH1 0x0 CALLDATALOAD PUSH1 0xE0 SHR DUP1 PUSH4 0x7435E911 EQ PUSH1 0x2D JUMPI JUMPDEST PUSH1 0x0 DUP1 REVERT JUMPDEST PUSH1 0x33 PUSH1 0x47 JUMP JUMPDEST PUSH1 0x40 MLOAD PUSH1 0x3E SWAP2 SWAP1 PUSH1 0x5A JUMP JUMPDEST PUSH1 0x40 MLOAD DUP1 SWAP2 SUB SWAP1 RETURN JUMPDEST PUSH1 0x0 SLOAD DUP2 JUMP JUMPDEST PUSH1 0x54 DUP2 PUSH1 0x73 JUMP JUMPDEST DUP3 MSTORE POP POP JUMP JUMPDEST PUSH1 0x0 PUSH1 0x20 DUP3 ADD SWAP1 POP PUSH1 0x6D PUSH1 0x0 DUP4 ADD DUP5 PUSH1 0x4D JUMP JUMPDEST SWAP3 SWAP2 POP POP JUMP JUMPDEST PUSH1 0x0 DUP2 SWAP1 POP SWAP2 SWAP1 POP JUMP INVALID LOG2 PUSH5 0x6970667358 0x22 SLT KECCAK256 CALLER SWAP13 CODESIZE GAS DELEGATECALL JUMPI OR JUMP JUMP PUSH12 0xCA0D3E788D1C702E935ACE8C 0xF7 0xF7 CALLDATASIZE RETURNDATASIZE DUP12 0x26 0x5D NUMBER PUSH14 0xDB64736F6C63430008060033A264 PUSH10 0x70667358221220F39F16 0x4F 0xA9 MULMOD DUP14 0x5C 0xC9 0xD6 SWAP14 0xAD JUMP 0xD 0xA6 SWAP15 CALL 0xD6 0x5E 0x25 ADD 0xC0 PUSH20 0xD8A48A2EA52D73D86E64736F6C63430008060033 "
				},
				"gasEstimates": {
					"creation": {
						"codeDepositCost": "394400",
						"executionCost": "430",
						"totalCost": "394830"
					},
					"external": {
						"createDSalted(bytes32,uint256)": "infinite",
						"d()": "2576",
						"getAddress(uint256,uint256)": "infinite",
						"getBytes32(uint256)": "608"
					}
				},
				"methodIdentifiers": {
					"createDSalted(bytes32,uint256)": "0bd38f2f",
					"d()": "8a054ac2",
					"getAddress(uint256,uint256)": "9262d759",
					"getBytes32(uint256)": "24dfc9d7"
				}
			},
			"storageLayout": {
				"storage": [
					{
						"astId": 17,
						"contract": "study/chapter04/create2.sol:Create2",
						"label": "d",
						"offset": 0,
						"slot": "0",
						"type": "t_contract(D)14"
					}
				],
				"types": {
					"t_contract(D)14": {
						"encoding": "inplace",
						"label": "contract D",
						"numberOfBytes": "20"
					}
				}
			},
			"userdoc": {
				"kind": "user",
				"methods": {},
				"version": 1
			}
		}
	}
}