{
	"contract/chapter04/ty.sol": {
		"FeedConsumer": {
			"abi": [
				{
					"inputs": [],
					"name": "errorCount",
					"outputs": [
						{
							"internalType": "uint256",
							"name": "",
							"type": "uint256"
						}
					],
					"stateMutability": "view",
					"type": "function"
				},
				{
					"inputs": [],
					"name": "success",
					"outputs": [
						{
							"internalType": "bool",
							"name": "",
							"type": "bool"
						}
					],
					"stateMutability": "view",
					"type": "function"
				},
				{
					"inputs": [],
					"name": "testAdd",
					"outputs": [
						{
							"internalType": "uint256",
							"name": "_value",
							"type": "uint256"
						},
						{
							"internalType": "bool",
							"name": "success",
							"type": "bool"
						}
					],
					"stateMutability": "nonpayable",
					"type": "function"
				},
				{
					"inputs": [],
					"name": "value",
					"outputs": [
						{
							"internalType": "uint256",
							"name": "",
							"type": "uint256"
						}
					],
					"stateMutability": "view",
					"type": "function"
				}
			],
			"devdoc": {
				"kind": "dev",
				"methods": {},
				"version": 1
			},
			"evm": {
				"assembly": "    /* \"contract/chapter04/ty.sol\":294:1255  contract FeedConsumer {\r... */\n  mstore(0x40, 0x80)\n    /* \"contract/chapter04/ty.sol\":339:353  new DataFeed() */\n  mload(0x40)\n  tag_1\n  swap1\n  tag_2\n  jump\t// in\ntag_1:\n  mload(0x40)\n  dup1\n  swap2\n  sub\n  swap1\n  0x00\n  create\n  dup1\n  iszero\n  dup1\n  iszero\n  tag_3\n  jumpi\n  returndatasize\n  0x00\n  dup1\n  returndatacopy\n  revert(0x00, returndatasize)\ntag_3:\n  pop\n    /* \"contract/chapter04/ty.sol\":323:353  DataFeed feed = new DataFeed() */\n  0x00\n  dup1\n  0x0100\n  exp\n  dup2\n  sload\n  dup2\n  0xffffffffffffffffffffffffffffffffffffffff\n  mul\n  not\n  and\n  swap1\n  dup4\n  0xffffffffffffffffffffffffffffffffffffffff\n  and\n  mul\n  or\n  swap1\n  sstore\n  pop\n    /* \"contract/chapter04/ty.sol\":294:1255  contract FeedConsumer {\r... */\n  callvalue\n  dup1\n  iszero\n  tag_4\n  jumpi\n  0x00\n  dup1\n  revert\ntag_4:\n  pop\n  jump(tag_5)\ntag_2:\n  dataSize(sub_1)\n  dup1\n  dataOffset(sub_1)\n  dup4\n  codecopy\n  add\n  swap1\n  jump\t// out\ntag_5:\n  dataSize(sub_0)\n  dup1\n  dataOffset(sub_0)\n  0x00\n  codecopy\n  0x00\n  return\nstop\n\nsub_0: assembly {\n        /* \"contract/chapter04/ty.sol\":294:1255  contract FeedConsumer {\r... */\n      mstore(0x40, 0x80)\n      callvalue\n      dup1\n      iszero\n      tag_1\n      jumpi\n      0x00\n      dup1\n      revert\n    tag_1:\n      pop\n      jumpi(tag_2, lt(calldatasize, 0x04))\n      shr(0xe0, calldataload(0x00))\n      dup1\n      0x0b93381b\n      eq\n      tag_3\n      jumpi\n      dup1\n      0x3fa4f245\n      eq\n      tag_4\n      jumpi\n      dup1\n      0xae40f72f\n      eq\n      tag_5\n      jumpi\n      dup1\n      0xd38dbee6\n      eq\n      tag_6\n      jumpi\n    tag_2:\n      0x00\n      dup1\n      revert\n        /* \"contract/chapter04/ty.sol\":1230:1249  bool public success */\n    tag_3:\n      tag_7\n      tag_8\n      jump\t// in\n    tag_7:\n      mload(0x40)\n      tag_9\n      swap2\n      swap1\n      tag_10\n      jump\t// in\n    tag_9:\n      mload(0x40)\n      dup1\n      swap2\n      sub\n      swap1\n      return\n        /* \"contract/chapter04/ty.sol\":1206:1223  uint public value */\n    tag_4:\n      tag_11\n      tag_12\n      jump\t// in\n    tag_11:\n      mload(0x40)\n      tag_13\n      swap2\n      swap1\n      tag_14\n      jump\t// in\n    tag_13:\n      mload(0x40)\n      dup1\n      swap2\n      sub\n      swap1\n      return\n        /* \"contract/chapter04/ty.sol\":432:1200  function testAdd() public returns (uint _value, bool success) {\r... */\n    tag_5:\n      tag_15\n      tag_16\n      jump\t// in\n    tag_15:\n      mload(0x40)\n      tag_17\n      swap3\n      swap2\n      swap1\n      tag_18\n      jump\t// in\n    tag_17:\n      mload(0x40)\n      dup1\n      swap2\n      sub\n      swap1\n      return\n        /* \"contract/chapter04/ty.sol\":383:405  uint public errorCount */\n    tag_6:\n      tag_19\n      tag_20\n      jump\t// in\n    tag_19:\n      mload(0x40)\n      tag_21\n      swap2\n      swap1\n      tag_14\n      jump\t// in\n    tag_21:\n      mload(0x40)\n      dup1\n      swap2\n      sub\n      swap1\n      return\n        /* \"contract/chapter04/ty.sol\":1230:1249  bool public success */\n    tag_8:\n      0x03\n      0x00\n      swap1\n      sload\n      swap1\n      0x0100\n      exp\n      swap1\n      div\n      0xff\n      and\n      dup2\n      jump\t// out\n        /* \"contract/chapter04/ty.sol\":1206:1223  uint public value */\n    tag_12:\n      sload(0x02)\n      dup2\n      jump\t// out\n        /* \"contract/chapter04/ty.sol\":432:1200  function testAdd() public returns (uint _value, bool success) {\r... */\n    tag_16:\n        /* \"contract/chapter04/ty.sol\":467:478  uint _value */\n      0x00\n        /* \"contract/chapter04/ty.sol\":480:492  bool success */\n      dup1\n        /* \"contract/chapter04/ty.sol\":509:513  feed */\n      0x00\n      dup1\n      sload\n      swap1\n      0x0100\n      exp\n      swap1\n      div\n      0xffffffffffffffffffffffffffffffffffffffff\n      and\n        /* \"contract/chapter04/ty.sol\":509:517  feed.add */\n      0xffffffffffffffffffffffffffffffffffffffff\n      and\n      0x771602f7\n        /* \"contract/chapter04/ty.sol\":518:519  5 */\n      0x05\n        /* \"contract/chapter04/ty.sol\":520:521  0 */\n      0x00\n        /* \"contract/chapter04/ty.sol\":509:522  feed.add(5,0) */\n      mload(0x40)\n      dup4\n      0xffffffff\n      and\n      0xe0\n      shl\n      dup2\n      mstore\n      0x04\n      add\n      tag_23\n      swap3\n      swap2\n      swap1\n      tag_24\n      jump\t// in\n    tag_23:\n      0x20\n      mload(0x40)\n      dup1\n      dup4\n      sub\n      dup2\n      dup7\n      dup1\n      extcodesize\n      iszero\n      dup1\n      iszero\n      tag_25\n      jumpi\n      0x00\n      dup1\n      revert\n    tag_25:\n      pop\n      gas\n      staticcall\n      swap3\n      pop\n      pop\n      pop\n      dup1\n      iszero\n      tag_26\n      jumpi\n      pop\n      mload(0x40)\n      returndatasize\n      not(0x1f)\n      0x1f\n      dup3\n      add\n      and\n      dup3\n      add\n      dup1\n      0x40\n      mstore\n      pop\n      dup2\n      add\n      swap1\n      tag_27\n      swap2\n      swap1\n      tag_28\n      jump\t// in\n    tag_27:\n      0x01\n    tag_26:\n        /* \"contract/chapter04/ty.sol\":505:1193  try feed.add(5,0) returns (uint v) {//尝试调用 外部的 getData 函数，执行成功就获得返回值，然后继续执行花括号内的内容\r... */\n      tag_29\n      jumpi\n      tag_33\n      tag_34\n      jump\t// in\n    tag_33:\n      dup1\n      0x08c379a0\n      eq\n      iszero\n      tag_32\n      jumpi\n      pop\n      tag_35\n      tag_36\n      jump\t// in\n    tag_35:\n      dup1\n      tag_37\n      jumpi\n      pop\n      jump(tag_31)\n    tag_37:\n        /* \"contract/chapter04/ty.sol\":830:840  errorCount */\n      0x01\n      0x00\n        /* \"contract/chapter04/ty.sol\":830:842  errorCount++ */\n      dup2\n      sload\n      dup1\n      swap3\n      swap2\n      swap1\n      tag_38\n      swap1\n      tag_39\n      jump\t// in\n    tag_38:\n      swap2\n      swap1\n      pop\n      sstore\n      pop\n        /* \"contract/chapter04/ty.sol\":865:868  100 */\n      0x64\n        /* \"contract/chapter04/ty.sol\":870:875  false */\n      0x00\n        /* \"contract/chapter04/ty.sol\":857:876  return (100, false) */\n      swap3\n      pop\n      swap3\n      pop\n      pop\n      jump(tag_22)\n        /* \"contract/chapter04/ty.sol\":505:1193  try feed.add(5,0) returns (uint v) {//尝试调用 外部的 getData 函数，执行成功就获得返回值，然后继续执行花括号内的内容\r... */\n    tag_32:\n      0x4e487b71\n      eq\n      iszero\n      tag_31\n      jumpi\n      tag_40\n      tag_41\n      jump\t// in\n    tag_40:\n      swap1\n      tag_42\n      jumpi\n      pop\n      jump(tag_31)\n    tag_42:\n        /* \"contract/chapter04/ty.sol\":973:983  errorCount */\n      0x01\n      0x00\n        /* \"contract/chapter04/ty.sol\":973:985  errorCount++ */\n      dup2\n      sload\n      dup1\n      swap3\n      swap2\n      swap1\n      tag_43\n      swap1\n      tag_39\n      jump\t// in\n    tag_43:\n      swap2\n      swap1\n      pop\n      sstore\n      pop\n        /* \"contract/chapter04/ty.sol\":1008:1011  200 */\n      0xc8\n        /* \"contract/chapter04/ty.sol\":1013:1018  false */\n      0x00\n        /* \"contract/chapter04/ty.sol\":1000:1019  return (200, false) */\n      swap3\n      pop\n      swap3\n      pop\n      pop\n      jump(tag_22)\n        /* \"contract/chapter04/ty.sol\":505:1193  try feed.add(5,0) returns (uint v) {//尝试调用 外部的 getData 函数，执行成功就获得返回值，然后继续执行花括号内的内容\r... */\n    tag_31:\n      returndatasize\n      dup1\n      0x00\n      dup2\n      eq\n      tag_45\n      jumpi\n      mload(0x40)\n      swap2\n      pop\n      and(add(returndatasize, 0x3f), not(0x1f))\n      dup3\n      add\n      0x40\n      mstore\n      returndatasize\n      dup3\n      mstore\n      returndatasize\n      0x00\n      0x20\n      dup5\n      add\n      returndatacopy\n      jump(tag_44)\n    tag_45:\n      0x60\n      swap2\n      pop\n    tag_44:\n      pop\n        /* \"contract/chapter04/ty.sol\":1135:1145  errorCount */\n      0x01\n      0x00\n        /* \"contract/chapter04/ty.sol\":1135:1147  errorCount++ */\n      dup2\n      sload\n      dup1\n      swap3\n      swap2\n      swap1\n      tag_46\n      swap1\n      tag_39\n      jump\t// in\n    tag_46:\n      swap2\n      swap1\n      pop\n      sstore\n      pop\n        /* \"contract/chapter04/ty.sol\":1170:1173  300 */\n      0x012c\n        /* \"contract/chapter04/ty.sol\":1175:1180  false */\n      0x00\n        /* \"contract/chapter04/ty.sol\":1162:1181  return (300, false) */\n      swap3\n      pop\n      swap3\n      pop\n      pop\n      jump(tag_22)\n        /* \"contract/chapter04/ty.sol\":505:1193  try feed.add(5,0) returns (uint v) {//尝试调用 外部的 getData 函数，执行成功就获得返回值，然后继续执行花括号内的内容\r... */\n    tag_29:\n        /* \"contract/chapter04/ty.sol\":677:678  v */\n      dup1\n        /* \"contract/chapter04/ty.sol\":680:684  true */\n      0x01\n        /* \"contract/chapter04/ty.sol\":669:685  return (v, true) */\n      swap3\n      pop\n      swap3\n      pop\n      pop\n        /* \"contract/chapter04/ty.sol\":432:1200  function testAdd() public returns (uint _value, bool success) {\r... */\n    tag_22:\n      swap1\n      swap2\n      jump\t// out\n        /* \"contract/chapter04/ty.sol\":383:405  uint public errorCount */\n    tag_20:\n      sload(0x01)\n      dup2\n      jump\t// out\n        /* \"#utility.yul\":7:150   */\n    tag_49:\n        /* \"#utility.yul\":64:69   */\n      0x00\n        /* \"#utility.yul\":95:101   */\n      dup2\n        /* \"#utility.yul\":89:102   */\n      mload\n        /* \"#utility.yul\":80:102   */\n      swap1\n      pop\n        /* \"#utility.yul\":111:144   */\n      tag_51\n        /* \"#utility.yul\":138:143   */\n      dup2\n        /* \"#utility.yul\":111:144   */\n      tag_52\n      jump\t// in\n    tag_51:\n        /* \"#utility.yul\":7:150   */\n      swap3\n      swap2\n      pop\n      pop\n      jump\t// out\n        /* \"#utility.yul\":156:507   */\n    tag_28:\n        /* \"#utility.yul\":226:232   */\n      0x00\n        /* \"#utility.yul\":275:277   */\n      0x20\n        /* \"#utility.yul\":263:272   */\n      dup3\n        /* \"#utility.yul\":254:261   */\n      dup5\n        /* \"#utility.yul\":250:273   */\n      sub\n        /* \"#utility.yul\":246:278   */\n      slt\n        /* \"#utility.yul\":243:362   */\n      iszero\n      tag_54\n      jumpi\n        /* \"#utility.yul\":281:360   */\n      tag_55\n      tag_56\n      jump\t// in\n    tag_55:\n        /* \"#utility.yul\":243:362   */\n    tag_54:\n        /* \"#utility.yul\":401:402   */\n      0x00\n        /* \"#utility.yul\":426:490   */\n      tag_57\n        /* \"#utility.yul\":482:489   */\n      dup5\n        /* \"#utility.yul\":473:479   */\n      dup3\n        /* \"#utility.yul\":462:471   */\n      dup6\n        /* \"#utility.yul\":458:480   */\n      add\n        /* \"#utility.yul\":426:490   */\n      tag_49\n      jump\t// in\n    tag_57:\n        /* \"#utility.yul\":416:490   */\n      swap2\n      pop\n        /* \"#utility.yul\":372:500   */\n      pop\n        /* \"#utility.yul\":156:507   */\n      swap3\n      swap2\n      pop\n      pop\n      jump\t// out\n        /* \"#utility.yul\":513:622   */\n    tag_58:\n        /* \"#utility.yul\":594:615   */\n      tag_60\n        /* \"#utility.yul\":609:614   */\n      dup2\n        /* \"#utility.yul\":594:615   */\n      tag_61\n      jump\t// in\n    tag_60:\n        /* \"#utility.yul\":589:592   */\n      dup3\n        /* \"#utility.yul\":582:616   */\n      mstore\n        /* \"#utility.yul\":513:622   */\n      pop\n      pop\n      jump\t// out\n        /* \"#utility.yul\":628:775   */\n    tag_62:\n        /* \"#utility.yul\":723:768   */\n      tag_64\n        /* \"#utility.yul\":762:767   */\n      dup2\n        /* \"#utility.yul\":723:768   */\n      tag_65\n      jump\t// in\n    tag_64:\n        /* \"#utility.yul\":718:721   */\n      dup3\n        /* \"#utility.yul\":711:769   */\n      mstore\n        /* \"#utility.yul\":628:775   */\n      pop\n      pop\n      jump\t// out\n        /* \"#utility.yul\":781:928   */\n    tag_66:\n        /* \"#utility.yul\":876:921   */\n      tag_68\n        /* \"#utility.yul\":915:920   */\n      dup2\n        /* \"#utility.yul\":876:921   */\n      tag_69\n      jump\t// in\n    tag_68:\n        /* \"#utility.yul\":871:874   */\n      dup3\n        /* \"#utility.yul\":864:922   */\n      mstore\n        /* \"#utility.yul\":781:928   */\n      pop\n      pop\n      jump\t// out\n        /* \"#utility.yul\":934:1052   */\n    tag_70:\n        /* \"#utility.yul\":1021:1045   */\n      tag_72\n        /* \"#utility.yul\":1039:1044   */\n      dup2\n        /* \"#utility.yul\":1021:1045   */\n      tag_73\n      jump\t// in\n    tag_72:\n        /* \"#utility.yul\":1016:1019   */\n      dup3\n        /* \"#utility.yul\":1009:1046   */\n      mstore\n        /* \"#utility.yul\":934:1052   */\n      pop\n      pop\n      jump\t// out\n        /* \"#utility.yul\":1058:1268   */\n    tag_10:\n        /* \"#utility.yul\":1145:1149   */\n      0x00\n        /* \"#utility.yul\":1183:1185   */\n      0x20\n        /* \"#utility.yul\":1172:1181   */\n      dup3\n        /* \"#utility.yul\":1168:1186   */\n      add\n        /* \"#utility.yul\":1160:1186   */\n      swap1\n      pop\n        /* \"#utility.yul\":1196:1261   */\n      tag_75\n        /* \"#utility.yul\":1258:1259   */\n      0x00\n        /* \"#utility.yul\":1247:1256   */\n      dup4\n        /* \"#utility.yul\":1243:1260   */\n      add\n        /* \"#utility.yul\":1234:1240   */\n      dup5\n        /* \"#utility.yul\":1196:1261   */\n      tag_58\n      jump\t// in\n    tag_75:\n        /* \"#utility.yul\":1058:1268   */\n      swap3\n      swap2\n      pop\n      pop\n      jump\t// out\n        /* \"#utility.yul\":1274:1638   */\n    tag_24:\n        /* \"#utility.yul\":1411:1415   */\n      0x00\n        /* \"#utility.yul\":1449:1451   */\n      0x40\n        /* \"#utility.yul\":1438:1447   */\n      dup3\n        /* \"#utility.yul\":1434:1452   */\n      add\n        /* \"#utility.yul\":1426:1452   */\n      swap1\n      pop\n        /* \"#utility.yul\":1462:1541   */\n      tag_77\n        /* \"#utility.yul\":1538:1539   */\n      0x00\n        /* \"#utility.yul\":1527:1536   */\n      dup4\n        /* \"#utility.yul\":1523:1540   */\n      add\n        /* \"#utility.yul\":1514:1520   */\n      dup6\n        /* \"#utility.yul\":1462:1541   */\n      tag_66\n      jump\t// in\n    tag_77:\n        /* \"#utility.yul\":1551:1631   */\n      tag_78\n        /* \"#utility.yul\":1627:1629   */\n      0x20\n        /* \"#utility.yul\":1616:1625   */\n      dup4\n        /* \"#utility.yul\":1612:1630   */\n      add\n        /* \"#utility.yul\":1603:1609   */\n      dup5\n        /* \"#utility.yul\":1551:1631   */\n      tag_62\n      jump\t// in\n    tag_78:\n        /* \"#utility.yul\":1274:1638   */\n      swap4\n      swap3\n      pop\n      pop\n      pop\n      jump\t// out\n        /* \"#utility.yul\":1644:1866   */\n    tag_14:\n        /* \"#utility.yul\":1737:1741   */\n      0x00\n        /* \"#utility.yul\":1775:1777   */\n      0x20\n        /* \"#utility.yul\":1764:1773   */\n      dup3\n        /* \"#utility.yul\":1760:1778   */\n      add\n        /* \"#utility.yul\":1752:1778   */\n      swap1\n      pop\n        /* \"#utility.yul\":1788:1859   */\n      tag_80\n        /* \"#utility.yul\":1856:1857   */\n      0x00\n        /* \"#utility.yul\":1845:1854   */\n      dup4\n        /* \"#utility.yul\":1841:1858   */\n      add\n        /* \"#utility.yul\":1832:1838   */\n      dup5\n        /* \"#utility.yul\":1788:1859   */\n      tag_70\n      jump\t// in\n    tag_80:\n        /* \"#utility.yul\":1644:1866   */\n      swap3\n      swap2\n      pop\n      pop\n      jump\t// out\n        /* \"#utility.yul\":1872:2192   */\n    tag_18:\n        /* \"#utility.yul\":1987:1991   */\n      0x00\n        /* \"#utility.yul\":2025:2027   */\n      0x40\n        /* \"#utility.yul\":2014:2023   */\n      dup3\n        /* \"#utility.yul\":2010:2028   */\n      add\n        /* \"#utility.yul\":2002:2028   */\n      swap1\n      pop\n        /* \"#utility.yul\":2038:2109   */\n      tag_82\n        /* \"#utility.yul\":2106:2107   */\n      0x00\n        /* \"#utility.yul\":2095:2104   */\n      dup4\n        /* \"#utility.yul\":2091:2108   */\n      add\n        /* \"#utility.yul\":2082:2088   */\n      dup6\n        /* \"#utility.yul\":2038:2109   */\n      tag_70\n      jump\t// in\n    tag_82:\n        /* \"#utility.yul\":2119:2185   */\n      tag_83\n        /* \"#utility.yul\":2181:2183   */\n      0x20\n        /* \"#utility.yul\":2170:2179   */\n      dup4\n        /* \"#utility.yul\":2166:2184   */\n      add\n        /* \"#utility.yul\":2157:2163   */\n      dup5\n        /* \"#utility.yul\":2119:2185   */\n      tag_58\n      jump\t// in\n    tag_83:\n        /* \"#utility.yul\":1872:2192   */\n      swap4\n      swap3\n      pop\n      pop\n      pop\n      jump\t// out\n        /* \"#utility.yul\":2198:2273   */\n    tag_84:\n        /* \"#utility.yul\":2231:2237   */\n      0x00\n        /* \"#utility.yul\":2264:2266   */\n      0x40\n        /* \"#utility.yul\":2258:2267   */\n      mload\n        /* \"#utility.yul\":2248:2267   */\n      swap1\n      pop\n        /* \"#utility.yul\":2198:2273   */\n      swap1\n      jump\t// out\n        /* \"#utility.yul\":2279:2369   */\n    tag_61:\n        /* \"#utility.yul\":2313:2320   */\n      0x00\n        /* \"#utility.yul\":2356:2361   */\n      dup2\n        /* \"#utility.yul\":2349:2362   */\n      iszero\n        /* \"#utility.yul\":2342:2363   */\n      iszero\n        /* \"#utility.yul\":2331:2363   */\n      swap1\n      pop\n        /* \"#utility.yul\":2279:2369   */\n      swap2\n      swap1\n      pop\n      jump\t// out\n        /* \"#utility.yul\":2375:2452   */\n    tag_73:\n        /* \"#utility.yul\":2412:2419   */\n      0x00\n        /* \"#utility.yul\":2441:2446   */\n      dup2\n        /* \"#utility.yul\":2430:2446   */\n      swap1\n      pop\n        /* \"#utility.yul\":2375:2452   */\n      swap2\n      swap1\n      pop\n      jump\t// out\n        /* \"#utility.yul\":2458:2579   */\n    tag_65:\n        /* \"#utility.yul\":2516:2525   */\n      0x00\n        /* \"#utility.yul\":2549:2573   */\n      tag_89\n        /* \"#utility.yul\":2567:2572   */\n      dup3\n        /* \"#utility.yul\":2549:2573   */\n      tag_73\n      jump\t// in\n    tag_89:\n        /* \"#utility.yul\":2536:2573   */\n      swap1\n      pop\n        /* \"#utility.yul\":2458:2579   */\n      swap2\n      swap1\n      pop\n      jump\t// out\n        /* \"#utility.yul\":2585:2706   */\n    tag_69:\n        /* \"#utility.yul\":2643:2652   */\n      0x00\n        /* \"#utility.yul\":2676:2700   */\n      tag_91\n        /* \"#utility.yul\":2694:2699   */\n      dup3\n        /* \"#utility.yul\":2676:2700   */\n      tag_73\n      jump\t// in\n    tag_91:\n        /* \"#utility.yul\":2663:2700   */\n      swap1\n      pop\n        /* \"#utility.yul\":2585:2706   */\n      swap2\n      swap1\n      pop\n      jump\t// out\n        /* \"#utility.yul\":2712:2993   */\n    tag_92:\n        /* \"#utility.yul\":2795:2822   */\n      tag_94\n        /* \"#utility.yul\":2817:2821   */\n      dup3\n        /* \"#utility.yul\":2795:2822   */\n      tag_95\n      jump\t// in\n    tag_94:\n        /* \"#utility.yul\":2787:2793   */\n      dup2\n        /* \"#utility.yul\":2783:2823   */\n      add\n        /* \"#utility.yul\":2925:2931   */\n      dup2\n        /* \"#utility.yul\":2913:2923   */\n      dup2\n        /* \"#utility.yul\":2910:2932   */\n      lt\n        /* \"#utility.yul\":2889:2907   */\n      0xffffffffffffffff\n        /* \"#utility.yul\":2877:2887   */\n      dup3\n        /* \"#utility.yul\":2874:2908   */\n      gt\n        /* \"#utility.yul\":2871:2933   */\n      or\n        /* \"#utility.yul\":2868:2956   */\n      iszero\n      tag_96\n      jumpi\n        /* \"#utility.yul\":2936:2954   */\n      tag_97\n      tag_98\n      jump\t// in\n    tag_97:\n        /* \"#utility.yul\":2868:2956   */\n    tag_96:\n        /* \"#utility.yul\":2976:2986   */\n      dup1\n        /* \"#utility.yul\":2972:2974   */\n      0x40\n        /* \"#utility.yul\":2965:2987   */\n      mstore\n        /* \"#utility.yul\":2755:2993   */\n      pop\n        /* \"#utility.yul\":2712:2993   */\n      pop\n      pop\n      jump\t// out\n        /* \"#utility.yul\":2999:3232   */\n    tag_39:\n        /* \"#utility.yul\":3038:3041   */\n      0x00\n        /* \"#utility.yul\":3061:3085   */\n      tag_100\n        /* \"#utility.yul\":3079:3084   */\n      dup3\n        /* \"#utility.yul\":3061:3085   */\n      tag_73\n      jump\t// in\n    tag_100:\n        /* \"#utility.yul\":3052:3085   */\n      swap2\n      pop\n        /* \"#utility.yul\":3107:3173   */\n      0xffffffffffffffffffffffffffffffffffffffffffffffffffffffffffffffff\n        /* \"#utility.yul\":3100:3105   */\n      dup3\n        /* \"#utility.yul\":3097:3174   */\n      eq\n        /* \"#utility.yul\":3094:3197   */\n      iszero\n      tag_101\n      jumpi\n        /* \"#utility.yul\":3177:3195   */\n      tag_102\n      tag_103\n      jump\t// in\n    tag_102:\n        /* \"#utility.yul\":3094:3197   */\n    tag_101:\n        /* \"#utility.yul\":3224:3225   */\n      0x01\n        /* \"#utility.yul\":3217:3222   */\n      dup3\n        /* \"#utility.yul\":3213:3226   */\n      add\n        /* \"#utility.yul\":3206:3226   */\n      swap1\n      pop\n        /* \"#utility.yul\":2999:3232   */\n      swap2\n      swap1\n      pop\n      jump\t// out\n        /* \"#utility.yul\":3238:3418   */\n    tag_103:\n        /* \"#utility.yul\":3286:3363   */\n      0x4e487b7100000000000000000000000000000000000000000000000000000000\n        /* \"#utility.yul\":3283:3284   */\n      0x00\n        /* \"#utility.yul\":3276:3364   */\n      mstore\n        /* \"#utility.yul\":3383:3387   */\n      0x11\n        /* \"#utility.yul\":3380:3381   */\n      0x04\n        /* \"#utility.yul\":3373:3388   */\n      mstore\n        /* \"#utility.yul\":3407:3411   */\n      0x24\n        /* \"#utility.yul\":3404:3405   */\n      0x00\n        /* \"#utility.yul\":3397:3412   */\n      revert\n        /* \"#utility.yul\":3424:3604   */\n    tag_98:\n        /* \"#utility.yul\":3472:3549   */\n      0x4e487b7100000000000000000000000000000000000000000000000000000000\n        /* \"#utility.yul\":3469:3470   */\n      0x00\n        /* \"#utility.yul\":3462:3550   */\n      mstore\n        /* \"#utility.yul\":3569:3573   */\n      0x41\n        /* \"#utility.yul\":3566:3567   */\n      0x04\n        /* \"#utility.yul\":3559:3574   */\n      mstore\n        /* \"#utility.yul\":3593:3597   */\n      0x24\n        /* \"#utility.yul\":3590:3591   */\n      0x00\n        /* \"#utility.yul\":3583:3598   */\n      revert\n        /* \"#utility.yul\":3610:3793   */\n    tag_34:\n        /* \"#utility.yul\":3645:3648   */\n      0x00\n        /* \"#utility.yul\":3683:3684   */\n      0x03\n        /* \"#utility.yul\":3665:3681   */\n      returndatasize\n        /* \"#utility.yul\":3662:3685   */\n      gt\n        /* \"#utility.yul\":3659:3787   */\n      iszero\n      tag_107\n      jumpi\n        /* \"#utility.yul\":3721:3722   */\n      0x04\n        /* \"#utility.yul\":3718:3719   */\n      0x00\n        /* \"#utility.yul\":3715:3716   */\n      dup1\n        /* \"#utility.yul\":3700:3723   */\n      returndatacopy\n        /* \"#utility.yul\":3743:3777   */\n      tag_108\n        /* \"#utility.yul\":3774:3775   */\n      0x00\n        /* \"#utility.yul\":3768:3776   */\n      mload\n        /* \"#utility.yul\":3743:3777   */\n      tag_109\n      jump\t// in\n    tag_108:\n        /* \"#utility.yul\":3736:3777   */\n      swap1\n      pop\n        /* \"#utility.yul\":3659:3787   */\n    tag_107:\n        /* \"#utility.yul\":3610:3793   */\n      swap1\n      jump\t// out\n        /* \"#utility.yul\":3922:4039   */\n    tag_56:\n        /* \"#utility.yul\":4031:4032   */\n      0x00\n        /* \"#utility.yul\":4028:4029   */\n      dup1\n        /* \"#utility.yul\":4021:4033   */\n      revert\n        /* \"#utility.yul\":4045:4147   */\n    tag_95:\n        /* \"#utility.yul\":4086:4092   */\n      0x00\n        /* \"#utility.yul\":4137:4139   */\n      0x1f\n        /* \"#utility.yul\":4133:4140   */\n      not\n        /* \"#utility.yul\":4128:4130   */\n      0x1f\n        /* \"#utility.yul\":4121:4126   */\n      dup4\n        /* \"#utility.yul\":4117:4131   */\n      add\n        /* \"#utility.yul\":4113:4141   */\n      and\n        /* \"#utility.yul\":4103:4141   */\n      swap1\n      pop\n        /* \"#utility.yul\":4045:4147   */\n      swap2\n      swap1\n      pop\n      jump\t// out\n        /* \"#utility.yul\":4153:4259   */\n    tag_109:\n        /* \"#utility.yul\":4197:4205   */\n      0x00\n        /* \"#utility.yul\":4246:4251   */\n      dup2\n        /* \"#utility.yul\":4241:4244   */\n      0xe0\n        /* \"#utility.yul\":4237:4252   */\n      shr\n        /* \"#utility.yul\":4216:4252   */\n      swap1\n      pop\n        /* \"#utility.yul\":4153:4259   */\n      swap2\n      swap1\n      pop\n      jump\t// out\n        /* \"#utility.yul\":4265:4976   */\n    tag_36:\n        /* \"#utility.yul\":4304:4307   */\n      0x00\n        /* \"#utility.yul\":4342:4346   */\n      0x44\n        /* \"#utility.yul\":4324:4340   */\n      returndatasize\n        /* \"#utility.yul\":4321:4347   */\n      lt\n        /* \"#utility.yul\":4318:4357   */\n      iszero\n      tag_116\n      jumpi\n        /* \"#utility.yul\":4350:4355   */\n      jump(tag_115)\n        /* \"#utility.yul\":4318:4357   */\n    tag_116:\n        /* \"#utility.yul\":4379:4399   */\n      tag_117\n      tag_84\n      jump\t// in\n    tag_117:\n        /* \"#utility.yul\":4454:4455   */\n      0x04\n        /* \"#utility.yul\":4436:4452   */\n      returndatasize\n        /* \"#utility.yul\":4432:4456   */\n      sub\n        /* \"#utility.yul\":4429:4430   */\n      0x04\n        /* \"#utility.yul\":4423:4427   */\n      dup3\n        /* \"#utility.yul\":4408:4457   */\n      returndatacopy\n        /* \"#utility.yul\":4487:4491   */\n      dup1\n        /* \"#utility.yul\":4481:4492   */\n      mload\n        /* \"#utility.yul\":4586:4602   */\n      returndatasize\n        /* \"#utility.yul\":4579:4583   */\n      0x24\n        /* \"#utility.yul\":4571:4577   */\n      dup3\n        /* \"#utility.yul\":4567:4584   */\n      add\n        /* \"#utility.yul\":4564:4603   */\n      gt\n        /* \"#utility.yul\":4531:4549   */\n      0xffffffffffffffff\n        /* \"#utility.yul\":4523:4529   */\n      dup3\n        /* \"#utility.yul\":4520:4550   */\n      gt\n        /* \"#utility.yul\":4504:4617   */\n      or\n        /* \"#utility.yul\":4501:4647   */\n      iszero\n      tag_118\n      jumpi\n        /* \"#utility.yul\":4632:4637   */\n      pop\n      pop\n      jump(tag_115)\n        /* \"#utility.yul\":4501:4647   */\n    tag_118:\n        /* \"#utility.yul\":4678:4684   */\n      dup1\n        /* \"#utility.yul\":4672:4676   */\n      dup3\n        /* \"#utility.yul\":4668:4685   */\n      add\n        /* \"#utility.yul\":4714:4717   */\n      dup1\n        /* \"#utility.yul\":4708:4718   */\n      mload\n        /* \"#utility.yul\":4741:4759   */\n      0xffffffffffffffff\n        /* \"#utility.yul\":4733:4739   */\n      dup2\n        /* \"#utility.yul\":4730:4760   */\n      gt\n        /* \"#utility.yul\":4727:4770   */\n      iszero\n      tag_119\n      jumpi\n        /* \"#utility.yul\":4763:4768   */\n      pop\n      pop\n      pop\n      pop\n      jump(tag_115)\n        /* \"#utility.yul\":4727:4770   */\n    tag_119:\n        /* \"#utility.yul\":4811:4817   */\n      dup1\n        /* \"#utility.yul\":4804:4808   */\n      0x20\n        /* \"#utility.yul\":4799:4802   */\n      dup4\n        /* \"#utility.yul\":4795:4809   */\n      add\n        /* \"#utility.yul\":4791:4818   */\n      add\n        /* \"#utility.yul\":4870:4871   */\n      0x04\n        /* \"#utility.yul\":4852:4868   */\n      returndatasize\n        /* \"#utility.yul\":4848:4872   */\n      sub\n        /* \"#utility.yul\":4842:4846   */\n      dup6\n        /* \"#utility.yul\":4838:4873   */\n      add\n        /* \"#utility.yul\":4833:4836   */\n      dup2\n        /* \"#utility.yul\":4830:4874   */\n      gt\n        /* \"#utility.yul\":4827:4884   */\n      iszero\n      tag_120\n      jumpi\n        /* \"#utility.yul\":4877:4882   */\n      pop\n      pop\n      pop\n      pop\n      pop\n      jump(tag_115)\n        /* \"#utility.yul\":4827:4884   */\n    tag_120:\n        /* \"#utility.yul\":4894:4951   */\n      tag_121\n        /* \"#utility.yul\":4942:4948   */\n      dup3\n        /* \"#utility.yul\":4936:4940   */\n      0x20\n        /* \"#utility.yul\":4932:4949   */\n      add\n        /* \"#utility.yul\":4924:4930   */\n      dup6\n        /* \"#utility.yul\":4920:4950   */\n      add\n        /* \"#utility.yul\":4914:4918   */\n      dup7\n        /* \"#utility.yul\":4894:4951   */\n      tag_92\n      jump\t// in\n    tag_121:\n        /* \"#utility.yul\":4967:4970   */\n      dup3\n        /* \"#utility.yul\":4960:4970   */\n      swap6\n      pop\n        /* \"#utility.yul\":4308:4976   */\n      pop\n      pop\n      pop\n      pop\n      pop\n        /* \"#utility.yul\":4265:4976   */\n    tag_115:\n      swap1\n      jump\t// out\n        /* \"#utility.yul\":4982:5182   */\n    tag_41:\n        /* \"#utility.yul\":5018:5025   */\n      0x00\n        /* \"#utility.yul\":5027:5031   */\n      dup1\n        /* \"#utility.yul\":5066:5070   */\n      0x23\n        /* \"#utility.yul\":5048:5064   */\n      returndatasize\n        /* \"#utility.yul\":5045:5071   */\n      gt\n        /* \"#utility.yul\":5042:5176   */\n      iszero\n      tag_123\n      jumpi\n        /* \"#utility.yul\":5107:5111   */\n      0x20\n        /* \"#utility.yul\":5104:5105   */\n      0x04\n        /* \"#utility.yul\":5101:5102   */\n      0x00\n        /* \"#utility.yul\":5086:5112   */\n      returndatacopy\n        /* \"#utility.yul\":5136:5137   */\n      0x01\n        /* \"#utility.yul\":5125:5137   */\n      swap2\n      pop\n        /* \"#utility.yul\":5164:5165   */\n      0x00\n        /* \"#utility.yul\":5158:5166   */\n      mload\n        /* \"#utility.yul\":5150:5166   */\n      swap1\n      pop\n        /* \"#utility.yul\":5042:5176   */\n    tag_123:\n        /* \"#utility.yul\":4982:5182   */\n      swap1\n      swap2\n      jump\t// out\n        /* \"#utility.yul\":5188:5310   */\n    tag_52:\n        /* \"#utility.yul\":5261:5285   */\n      tag_125\n        /* \"#utility.yul\":5279:5284   */\n      dup2\n        /* \"#utility.yul\":5261:5285   */\n      tag_73\n      jump\t// in\n    tag_125:\n        /* \"#utility.yul\":5254:5259   */\n      dup2\n        /* \"#utility.yul\":5251:5286   */\n      eq\n        /* \"#utility.yul\":5241:5304   */\n      tag_126\n      jumpi\n        /* \"#utility.yul\":5300:5301   */\n      0x00\n        /* \"#utility.yul\":5297:5298   */\n      dup1\n        /* \"#utility.yul\":5290:5302   */\n      revert\n        /* \"#utility.yul\":5241:5304   */\n    tag_126:\n        /* \"#utility.yul\":5188:5310   */\n      pop\n      jump\t// out\n\n    auxdata: 0xa2646970667358221220826257929ebe4cfb9aec12bb2869d690f9cc82d552dfca581744c5b9f695ac2f64736f6c63430008070033\n}\n\nsub_1: assembly {\n        /* \"contract/chapter04/ty.sol\":60:292  contract DataFeed { \r... */\n      mstore(0x40, 0x80)\n      callvalue\n      dup1\n      iszero\n      tag_1\n      jumpi\n      0x00\n      dup1\n      revert\n    tag_1:\n      pop\n      dataSize(sub_0)\n      dup1\n      dataOffset(sub_0)\n      0x00\n      codecopy\n      0x00\n      return\n    stop\n\n    sub_0: assembly {\n            /* \"contract/chapter04/ty.sol\":60:292  contract DataFeed { \r... */\n          mstore(0x40, 0x80)\n          callvalue\n          dup1\n          iszero\n          tag_1\n          jumpi\n          0x00\n          dup1\n          revert\n        tag_1:\n          pop\n          jumpi(tag_2, lt(calldatasize, 0x04))\n          shr(0xe0, calldataload(0x00))\n          dup1\n          0x771602f7\n          eq\n          tag_3\n          jumpi\n        tag_2:\n          0x00\n          dup1\n          revert\n            /* \"contract/chapter04/ty.sol\":192:283  function add(uint a,uint b) external pure returns (uint value){\r... */\n        tag_3:\n          tag_4\n          0x04\n          dup1\n          calldatasize\n          sub\n          dup2\n          add\n          swap1\n          tag_5\n          swap2\n          swap1\n          tag_6\n          jump\t// in\n        tag_5:\n          tag_7\n          jump\t// in\n        tag_4:\n          mload(0x40)\n          tag_8\n          swap2\n          swap1\n          tag_9\n          jump\t// in\n        tag_8:\n          mload(0x40)\n          dup1\n          swap2\n          sub\n          swap1\n          return\n        tag_7:\n            /* \"contract/chapter04/ty.sol\":243:253  uint value */\n          0x00\n            /* \"contract/chapter04/ty.sol\":274:275  b */\n          dup2\n            /* \"contract/chapter04/ty.sol\":272:273  a */\n          dup4\n            /* \"contract/chapter04/ty.sol\":272:275  a/b */\n          tag_11\n          swap2\n          swap1\n          tag_12\n          jump\t// in\n        tag_11:\n            /* \"contract/chapter04/ty.sol\":265:275  return a/b */\n          swap1\n          pop\n            /* \"contract/chapter04/ty.sol\":192:283  function add(uint a,uint b) external pure returns (uint value){\r... */\n          swap3\n          swap2\n          pop\n          pop\n          jump\t// out\n            /* \"#utility.yul\":7:146   */\n        tag_14:\n            /* \"#utility.yul\":53:58   */\n          0x00\n            /* \"#utility.yul\":91:97   */\n          dup2\n            /* \"#utility.yul\":78:98   */\n          calldataload\n            /* \"#utility.yul\":69:98   */\n          swap1\n          pop\n            /* \"#utility.yul\":107:140   */\n          tag_16\n            /* \"#utility.yul\":134:139   */\n          dup2\n            /* \"#utility.yul\":107:140   */\n          tag_17\n          jump\t// in\n        tag_16:\n            /* \"#utility.yul\":7:146   */\n          swap3\n          swap2\n          pop\n          pop\n          jump\t// out\n            /* \"#utility.yul\":152:626   */\n        tag_6:\n            /* \"#utility.yul\":220:226   */\n          0x00\n            /* \"#utility.yul\":228:234   */\n          dup1\n            /* \"#utility.yul\":277:279   */\n          0x40\n            /* \"#utility.yul\":265:274   */\n          dup4\n            /* \"#utility.yul\":256:263   */\n          dup6\n            /* \"#utility.yul\":252:275   */\n          sub\n            /* \"#utility.yul\":248:280   */\n          slt\n            /* \"#utility.yul\":245:364   */\n          iszero\n          tag_19\n          jumpi\n            /* \"#utility.yul\":283:362   */\n          tag_20\n          tag_21\n          jump\t// in\n        tag_20:\n            /* \"#utility.yul\":245:364   */\n        tag_19:\n            /* \"#utility.yul\":403:404   */\n          0x00\n            /* \"#utility.yul\":428:481   */\n          tag_22\n            /* \"#utility.yul\":473:480   */\n          dup6\n            /* \"#utility.yul\":464:470   */\n          dup3\n            /* \"#utility.yul\":453:462   */\n          dup7\n            /* \"#utility.yul\":449:471   */\n          add\n            /* \"#utility.yul\":428:481   */\n          tag_14\n          jump\t// in\n        tag_22:\n            /* \"#utility.yul\":418:481   */\n          swap3\n          pop\n            /* \"#utility.yul\":374:491   */\n          pop\n            /* \"#utility.yul\":530:532   */\n          0x20\n            /* \"#utility.yul\":556:609   */\n          tag_23\n            /* \"#utility.yul\":601:608   */\n          dup6\n            /* \"#utility.yul\":592:598   */\n          dup3\n            /* \"#utility.yul\":581:590   */\n          dup7\n            /* \"#utility.yul\":577:599   */\n          add\n            /* \"#utility.yul\":556:609   */\n          tag_14\n          jump\t// in\n        tag_23:\n            /* \"#utility.yul\":546:609   */\n          swap2\n          pop\n            /* \"#utility.yul\":501:619   */\n          pop\n            /* \"#utility.yul\":152:626   */\n          swap3\n          pop\n          swap3\n          swap1\n          pop\n          jump\t// out\n            /* \"#utility.yul\":632:750   */\n        tag_24:\n            /* \"#utility.yul\":719:743   */\n          tag_26\n            /* \"#utility.yul\":737:742   */\n          dup2\n            /* \"#utility.yul\":719:743   */\n          tag_27\n          jump\t// in\n        tag_26:\n            /* \"#utility.yul\":714:717   */\n          dup3\n            /* \"#utility.yul\":707:744   */\n          mstore\n            /* \"#utility.yul\":632:750   */\n          pop\n          pop\n          jump\t// out\n            /* \"#utility.yul\":756:978   */\n        tag_9:\n            /* \"#utility.yul\":849:853   */\n          0x00\n            /* \"#utility.yul\":887:889   */\n          0x20\n            /* \"#utility.yul\":876:885   */\n          dup3\n            /* \"#utility.yul\":872:890   */\n          add\n            /* \"#utility.yul\":864:890   */\n          swap1\n          pop\n            /* \"#utility.yul\":900:971   */\n          tag_29\n            /* \"#utility.yul\":968:969   */\n          0x00\n            /* \"#utility.yul\":957:966   */\n          dup4\n            /* \"#utility.yul\":953:970   */\n          add\n            /* \"#utility.yul\":944:950   */\n          dup5\n            /* \"#utility.yul\":900:971   */\n          tag_24\n          jump\t// in\n        tag_29:\n            /* \"#utility.yul\":756:978   */\n          swap3\n          swap2\n          pop\n          pop\n          jump\t// out\n            /* \"#utility.yul\":1065:1250   */\n        tag_12:\n            /* \"#utility.yul\":1105:1106   */\n          0x00\n            /* \"#utility.yul\":1122:1142   */\n          tag_33\n            /* \"#utility.yul\":1140:1141   */\n          dup3\n            /* \"#utility.yul\":1122:1142   */\n          tag_27\n          jump\t// in\n        tag_33:\n            /* \"#utility.yul\":1117:1142   */\n          swap2\n          pop\n            /* \"#utility.yul\":1156:1176   */\n          tag_34\n            /* \"#utility.yul\":1174:1175   */\n          dup4\n            /* \"#utility.yul\":1156:1176   */\n          tag_27\n          jump\t// in\n        tag_34:\n            /* \"#utility.yul\":1151:1176   */\n          swap3\n          pop\n            /* \"#utility.yul\":1195:1196   */\n          dup3\n            /* \"#utility.yul\":1185:1220   */\n          tag_35\n          jumpi\n            /* \"#utility.yul\":1200:1218   */\n          tag_36\n          tag_37\n          jump\t// in\n        tag_36:\n            /* \"#utility.yul\":1185:1220   */\n        tag_35:\n            /* \"#utility.yul\":1242:1243   */\n          dup3\n            /* \"#utility.yul\":1239:1240   */\n          dup3\n            /* \"#utility.yul\":1235:1244   */\n          div\n            /* \"#utility.yul\":1230:1244   */\n          swap1\n          pop\n            /* \"#utility.yul\":1065:1250   */\n          swap3\n          swap2\n          pop\n          pop\n          jump\t// out\n            /* \"#utility.yul\":1256:1333   */\n        tag_27:\n            /* \"#utility.yul\":1293:1300   */\n          0x00\n            /* \"#utility.yul\":1322:1327   */\n          dup2\n            /* \"#utility.yul\":1311:1327   */\n          swap1\n          pop\n            /* \"#utility.yul\":1256:1333   */\n          swap2\n          swap1\n          pop\n          jump\t// out\n            /* \"#utility.yul\":1525:1705   */\n        tag_37:\n            /* \"#utility.yul\":1573:1650   */\n          0x4e487b7100000000000000000000000000000000000000000000000000000000\n            /* \"#utility.yul\":1570:1571   */\n          0x00\n            /* \"#utility.yul\":1563:1651   */\n          mstore\n            /* \"#utility.yul\":1670:1674   */\n          0x12\n            /* \"#utility.yul\":1667:1668   */\n          0x04\n            /* \"#utility.yul\":1660:1675   */\n          mstore\n            /* \"#utility.yul\":1694:1698   */\n          0x24\n            /* \"#utility.yul\":1691:1692   */\n          0x00\n            /* \"#utility.yul\":1684:1699   */\n          revert\n            /* \"#utility.yul\":1834:1951   */\n        tag_21:\n            /* \"#utility.yul\":1943:1944   */\n          0x00\n            /* \"#utility.yul\":1940:1941   */\n          dup1\n            /* \"#utility.yul\":1933:1945   */\n          revert\n            /* \"#utility.yul\":1957:2079   */\n        tag_17:\n            /* \"#utility.yul\":2030:2054   */\n          tag_46\n            /* \"#utility.yul\":2048:2053   */\n          dup2\n            /* \"#utility.yul\":2030:2054   */\n          tag_27\n          jump\t// in\n        tag_46:\n            /* \"#utility.yul\":2023:2028   */\n          dup2\n            /* \"#utility.yul\":2020:2055   */\n          eq\n            /* \"#utility.yul\":2010:2073   */\n          tag_47\n          jumpi\n            /* \"#utility.yul\":2069:2070   */\n          0x00\n            /* \"#utility.yul\":2066:2067   */\n          dup1\n            /* \"#utility.yul\":2059:2071   */\n          revert\n            /* \"#utility.yul\":2010:2073   */\n        tag_47:\n            /* \"#utility.yul\":1957:2079   */\n          pop\n          jump\t// out\n\n        auxdata: 0xa2646970667358221220f623ba60ec3be0f6f721aa299c39df94554eddb1a09586eb232daac1e5c34c0364736f6c63430008070033\n    }\n}\n",
				"bytecode": {
					"linkReferences": {},
					"object": "60806040526040516100109061007e565b604051809103906000f08015801561002c573d6000803e3d6000fd5b506000806101000a81548173ffffffffffffffffffffffffffffffffffffffff021916908373ffffffffffffffffffffffffffffffffffffffff16021790555034801561007857600080fd5b5061008b565b6101d18061069383390190565b6105f98061009a6000396000f3fe608060405234801561001057600080fd5b506004361061004c5760003560e01c80630b93381b146100515780633fa4f2451461006f578063ae40f72f1461008d578063d38dbee6146100ac575b600080fd5b6100596100ca565b604051610066919061030c565b60405180910390f35b6100776100dd565b6040516100849190610350565b60405180910390f35b6100956100e3565b6040516100a392919061036b565b60405180910390f35b6100b4610288565b6040516100c19190610350565b60405180910390f35b600360009054906101000a900460ff1681565b60025481565b60008060008054906101000a900473ffffffffffffffffffffffffffffffffffffffff1673ffffffffffffffffffffffffffffffffffffffff1663771602f7600560006040518363ffffffff1660e01b8152600401610143929190610327565b60206040518083038186803b15801561015b57600080fd5b505afa92505050801561018c57506040513d601f19601f8201168201806040525081019061018991906102a3565b60015b61027b576101986104b0565b806308c379a014156101de57506101ad6104f5565b806101b85750610222565b600160008154809291906101cb90610409565b9190505550606460009250925050610284565b634e487b711415610222576101f161058b565b906101fc5750610222565b6001600081548092919061020f90610409565b919050555060c860009250925050610284565b3d806000811461024e576040519150601f19603f3d011682016040523d82523d6000602084013e610253565b606091505b506001600081548092919061026790610409565b919050555061012c60009250925050610284565b80600192509250505b9091565b60015481565b60008151905061029d816105ac565b92915050565b6000602082840312156102b9576102b86104d2565b5b60006102c78482850161028e565b91505092915050565b6102d98161039e565b82525050565b6102e8816103b4565b82525050565b6102f7816103c6565b82525050565b610306816103aa565b82525050565b600060208201905061032160008301846102d0565b92915050565b600060408201905061033c60008301856102ee565b61034960208301846102df565b9392505050565b600060208201905061036560008301846102fd565b92915050565b600060408201905061038060008301856102fd565b61038d60208301846102d0565b9392505050565b6000604051905090565b60008115159050919050565b6000819050919050565b60006103bf826103aa565b9050919050565b60006103d1826103aa565b9050919050565b6103e1826104d7565b810181811067ffffffffffffffff82111715610400576103ff610481565b5b80604052505050565b6000610414826103aa565b91507fffffffffffffffffffffffffffffffffffffffffffffffffffffffffffffffff82141561044757610446610452565b5b600182019050919050565b7f4e487b7100000000000000000000000000000000000000000000000000000000600052601160045260246000fd5b7f4e487b7100000000000000000000000000000000000000000000000000000000600052604160045260246000fd5b600060033d11156104cf5760046000803e6104cc6000516104e8565b90505b90565b600080fd5b6000601f19601f8301169050919050565b60008160e01c9050919050565b600060443d101561050557610588565b61050d610394565b60043d036004823e80513d602482011167ffffffffffffffff82111715610535575050610588565b808201805167ffffffffffffffff8111156105535750505050610588565b80602083010160043d038501811115610570575050505050610588565b61057f826020018501866103d8565b82955050505050505b90565b60008060233d11156105a8576020600460003e6001915060005190505b9091565b6105b5816103aa565b81146105c057600080fd5b5056fea2646970667358221220826257929ebe4cfb9aec12bb2869d690f9cc82d552dfca581744c5b9f695ac2f64736f6c63430008070033608060405234801561001057600080fd5b506101b1806100206000396000f3fe608060405234801561001057600080fd5b506004361061002b5760003560e01c8063771602f714610030575b600080fd5b61004a6004803603810190610045919061008b565b610060565b60405161005791906100da565b60405180910390f35b6000818361006e91906100f5565b905092915050565b60008135905061008581610164565b92915050565b600080604083850312156100a2576100a161015f565b5b60006100b085828601610076565b92505060206100c185828601610076565b9150509250929050565b6100d481610126565b82525050565b60006020820190506100ef60008301846100cb565b92915050565b600061010082610126565b915061010b83610126565b92508261011b5761011a610130565b5b828204905092915050565b6000819050919050565b7f4e487b7100000000000000000000000000000000000000000000000000000000600052601260045260246000fd5b600080fd5b61016d81610126565b811461017857600080fd5b5056fea2646970667358221220f623ba60ec3be0f6f721aa299c39df94554eddb1a09586eb232daac1e5c34c0364736f6c63430008070033",
					"opcodes": "PUSH1 0x80 PUSH1 0x40 MSTORE PUSH1 0x40 MLOAD PUSH2 0x10 SWAP1 PUSH2 0x7E JUMP JUMPDEST PUSH1 0x40 MLOAD DUP1 SWAP2 SUB SWAP1 PUSH1 0x0 CREATE DUP1 ISZERO DUP1 ISZERO PUSH2 0x2C JUMPI RETURNDATASIZE PUSH1 0x0 DUP1 RETURNDATACOPY RETURNDATASIZE PUSH1 0x0 REVERT JUMPDEST POP PUSH1 0x0 DUP1 PUSH2 0x100 EXP DUP2 SLOAD DUP2 PUSH20 0xFFFFFFFFFFFFFFFFFFFFFFFFFFFFFFFFFFFFFFFF MUL NOT AND SWAP1 DUP4 PUSH20 0xFFFFFFFFFFFFFFFFFFFFFFFFFFFFFFFFFFFFFFFF AND MUL OR SWAP1 SSTORE POP CALLVALUE DUP1 ISZERO PUSH2 0x78 JUMPI PUSH1 0x0 DUP1 REVERT JUMPDEST POP PUSH2 0x8B JUMP JUMPDEST PUSH2 0x1D1 DUP1 PUSH2 0x693 DUP4 CODECOPY ADD SWAP1 JUMP JUMPDEST PUSH2 0x5F9 DUP1 PUSH2 0x9A PUSH1 0x0 CODECOPY PUSH1 0x0 RETURN INVALID PUSH1 0x80 PUSH1 0x40 MSTORE CALLVALUE DUP1 ISZERO PUSH2 0x10 JUMPI PUSH1 0x0 DUP1 REVERT JUMPDEST POP PUSH1 0x4 CALLDATASIZE LT PUSH2 0x4C JUMPI PUSH1 0x0 CALLDATALOAD PUSH1 0xE0 SHR DUP1 PUSH4 0xB93381B EQ PUSH2 0x51 JUMPI DUP1 PUSH4 0x3FA4F245 EQ PUSH2 0x6F JUMPI DUP1 PUSH4 0xAE40F72F EQ PUSH2 0x8D JUMPI DUP1 PUSH4 0xD38DBEE6 EQ PUSH2 0xAC JUMPI JUMPDEST PUSH1 0x0 DUP1 REVERT JUMPDEST PUSH2 0x59 PUSH2 0xCA JUMP JUMPDEST PUSH1 0x40 MLOAD PUSH2 0x66 SWAP2 SWAP1 PUSH2 0x30C JUMP JUMPDEST PUSH1 0x40 MLOAD DUP1 SWAP2 SUB SWAP1 RETURN JUMPDEST PUSH2 0x77 PUSH2 0xDD JUMP JUMPDEST PUSH1 0x40 MLOAD PUSH2 0x84 SWAP2 SWAP1 PUSH2 0x350 JUMP JUMPDEST PUSH1 0x40 MLOAD DUP1 SWAP2 SUB SWAP1 RETURN JUMPDEST PUSH2 0x95 PUSH2 0xE3 JUMP JUMPDEST PUSH1 0x40 MLOAD PUSH2 0xA3 SWAP3 SWAP2 SWAP1 PUSH2 0x36B JUMP JUMPDEST PUSH1 0x40 MLOAD DUP1 SWAP2 SUB SWAP1 RETURN JUMPDEST PUSH2 0xB4 PUSH2 0x288 JUMP JUMPDEST PUSH1 0x40 MLOAD PUSH2 0xC1 SWAP2 SWAP1 PUSH2 0x350 JUMP JUMPDEST PUSH1 0x40 MLOAD DUP1 SWAP2 SUB SWAP1 RETURN JUMPDEST PUSH1 0x3 PUSH1 0x0 SWAP1 SLOAD SWAP1 PUSH2 0x100 EXP SWAP1 DIV PUSH1 0xFF AND DUP2 JUMP JUMPDEST PUSH1 0x2 SLOAD DUP2 JUMP JUMPDEST PUSH1 0x0 DUP1 PUSH1 0x0 DUP1 SLOAD SWAP1 PUSH2 0x100 EXP SWAP1 DIV PUSH20 0xFFFFFFFFFFFFFFFFFFFFFFFFFFFFFFFFFFFFFFFF AND PUSH20 0xFFFFFFFFFFFFFFFFFFFFFFFFFFFFFFFFFFFFFFFF AND PUSH4 0x771602F7 PUSH1 0x5 PUSH1 0x0 PUSH1 0x40 MLOAD DUP4 PUSH4 0xFFFFFFFF AND PUSH1 0xE0 SHL DUP2 MSTORE PUSH1 0x4 ADD PUSH2 0x143 SWAP3 SWAP2 SWAP1 PUSH2 0x327 JUMP JUMPDEST PUSH1 0x20 PUSH1 0x40 MLOAD DUP1 DUP4 SUB DUP2 DUP7 DUP1 EXTCODESIZE ISZERO DUP1 ISZERO PUSH2 0x15B JUMPI PUSH1 0x0 DUP1 REVERT JUMPDEST POP GAS STATICCALL SWAP3 POP POP POP DUP1 ISZERO PUSH2 0x18C JUMPI POP PUSH1 0x40 MLOAD RETURNDATASIZE PUSH1 0x1F NOT PUSH1 0x1F DUP3 ADD AND DUP3 ADD DUP1 PUSH1 0x40 MSTORE POP DUP2 ADD SWAP1 PUSH2 0x189 SWAP2 SWAP1 PUSH2 0x2A3 JUMP JUMPDEST PUSH1 0x1 JUMPDEST PUSH2 0x27B JUMPI PUSH2 0x198 PUSH2 0x4B0 JUMP JUMPDEST DUP1 PUSH4 0x8C379A0 EQ ISZERO PUSH2 0x1DE JUMPI POP PUSH2 0x1AD PUSH2 0x4F5 JUMP JUMPDEST DUP1 PUSH2 0x1B8 JUMPI POP PUSH2 0x222 JUMP JUMPDEST PUSH1 0x1 PUSH1 0x0 DUP2 SLOAD DUP1 SWAP3 SWAP2 SWAP1 PUSH2 0x1CB SWAP1 PUSH2 0x409 JUMP JUMPDEST SWAP2 SWAP1 POP SSTORE POP PUSH1 0x64 PUSH1 0x0 SWAP3 POP SWAP3 POP POP PUSH2 0x284 JUMP JUMPDEST PUSH4 0x4E487B71 EQ ISZERO PUSH2 0x222 JUMPI PUSH2 0x1F1 PUSH2 0x58B JUMP JUMPDEST SWAP1 PUSH2 0x1FC JUMPI POP PUSH2 0x222 JUMP JUMPDEST PUSH1 0x1 PUSH1 0x0 DUP2 SLOAD DUP1 SWAP3 SWAP2 SWAP1 PUSH2 0x20F SWAP1 PUSH2 0x409 JUMP JUMPDEST SWAP2 SWAP1 POP SSTORE POP PUSH1 0xC8 PUSH1 0x0 SWAP3 POP SWAP3 POP POP PUSH2 0x284 JUMP JUMPDEST RETURNDATASIZE DUP1 PUSH1 0x0 DUP2 EQ PUSH2 0x24E JUMPI PUSH1 0x40 MLOAD SWAP2 POP PUSH1 0x1F NOT PUSH1 0x3F RETURNDATASIZE ADD AND DUP3 ADD PUSH1 0x40 MSTORE RETURNDATASIZE DUP3 MSTORE RETURNDATASIZE PUSH1 0x0 PUSH1 0x20 DUP5 ADD RETURNDATACOPY PUSH2 0x253 JUMP JUMPDEST PUSH1 0x60 SWAP2 POP JUMPDEST POP PUSH1 0x1 PUSH1 0x0 DUP2 SLOAD DUP1 SWAP3 SWAP2 SWAP1 PUSH2 0x267 SWAP1 PUSH2 0x409 JUMP JUMPDEST SWAP2 SWAP1 POP SSTORE POP PUSH2 0x12C PUSH1 0x0 SWAP3 POP SWAP3 POP POP PUSH2 0x284 JUMP JUMPDEST DUP1 PUSH1 0x1 SWAP3 POP SWAP3 POP POP JUMPDEST SWAP1 SWAP2 JUMP JUMPDEST PUSH1 0x1 SLOAD DUP2 JUMP JUMPDEST PUSH1 0x0 DUP2 MLOAD SWAP1 POP PUSH2 0x29D DUP2 PUSH2 0x5AC JUMP JUMPDEST SWAP3 SWAP2 POP POP JUMP JUMPDEST PUSH1 0x0 PUSH1 0x20 DUP3 DUP5 SUB SLT ISZERO PUSH2 0x2B9 JUMPI PUSH2 0x2B8 PUSH2 0x4D2 JUMP JUMPDEST JUMPDEST PUSH1 0x0 PUSH2 0x2C7 DUP5 DUP3 DUP6 ADD PUSH2 0x28E JUMP JUMPDEST SWAP2 POP POP SWAP3 SWAP2 POP POP JUMP JUMPDEST PUSH2 0x2D9 DUP2 PUSH2 0x39E JUMP JUMPDEST DUP3 MSTORE POP POP JUMP JUMPDEST PUSH2 0x2E8 DUP2 PUSH2 0x3B4 JUMP JUMPDEST DUP3 MSTORE POP POP JUMP JUMPDEST PUSH2 0x2F7 DUP2 PUSH2 0x3C6 JUMP JUMPDEST DUP3 MSTORE POP POP JUMP JUMPDEST PUSH2 0x306 DUP2 PUSH2 0x3AA JUMP JUMPDEST DUP3 MSTORE POP POP JUMP JUMPDEST PUSH1 0x0 PUSH1 0x20 DUP3 ADD SWAP1 POP PUSH2 0x321 PUSH1 0x0 DUP4 ADD DUP5 PUSH2 0x2D0 JUMP JUMPDEST SWAP3 SWAP2 POP POP JUMP JUMPDEST PUSH1 0x0 PUSH1 0x40 DUP3 ADD SWAP1 POP PUSH2 0x33C PUSH1 0x0 DUP4 ADD DUP6 PUSH2 0x2EE JUMP JUMPDEST PUSH2 0x349 PUSH1 0x20 DUP4 ADD DUP5 PUSH2 0x2DF JUMP JUMPDEST SWAP4 SWAP3 POP POP POP JUMP JUMPDEST PUSH1 0x0 PUSH1 0x20 DUP3 ADD SWAP1 POP PUSH2 0x365 PUSH1 0x0 DUP4 ADD DUP5 PUSH2 0x2FD JUMP JUMPDEST SWAP3 SWAP2 POP POP JUMP JUMPDEST PUSH1 0x0 PUSH1 0x40 DUP3 ADD SWAP1 POP PUSH2 0x380 PUSH1 0x0 DUP4 ADD DUP6 PUSH2 0x2FD JUMP JUMPDEST PUSH2 0x38D PUSH1 0x20 DUP4 ADD DUP5 PUSH2 0x2D0 JUMP JUMPDEST SWAP4 SWAP3 POP POP POP JUMP JUMPDEST PUSH1 0x0 PUSH1 0x40 MLOAD SWAP1 POP SWAP1 JUMP JUMPDEST PUSH1 0x0 DUP2 ISZERO ISZERO SWAP1 POP SWAP2 SWAP1 POP JUMP JUMPDEST PUSH1 0x0 DUP2 SWAP1 POP SWAP2 SWAP1 POP JUMP JUMPDEST PUSH1 0x0 PUSH2 0x3BF DUP3 PUSH2 0x3AA JUMP JUMPDEST SWAP1 POP SWAP2 SWAP1 POP JUMP JUMPDEST PUSH1 0x0 PUSH2 0x3D1 DUP3 PUSH2 0x3AA JUMP JUMPDEST SWAP1 POP SWAP2 SWAP1 POP JUMP JUMPDEST PUSH2 0x3E1 DUP3 PUSH2 0x4D7 JUMP JUMPDEST DUP2 ADD DUP2 DUP2 LT PUSH8 0xFFFFFFFFFFFFFFFF DUP3 GT OR ISZERO PUSH2 0x400 JUMPI PUSH2 0x3FF PUSH2 0x481 JUMP JUMPDEST JUMPDEST DUP1 PUSH1 0x40 MSTORE POP POP POP JUMP JUMPDEST PUSH1 0x0 PUSH2 0x414 DUP3 PUSH2 0x3AA JUMP JUMPDEST SWAP2 POP PUSH32 0xFFFFFFFFFFFFFFFFFFFFFFFFFFFFFFFFFFFFFFFFFFFFFFFFFFFFFFFFFFFFFFFF DUP3 EQ ISZERO PUSH2 0x447 JUMPI PUSH2 0x446 PUSH2 0x452 JUMP JUMPDEST JUMPDEST PUSH1 0x1 DUP3 ADD SWAP1 POP SWAP2 SWAP1 POP JUMP JUMPDEST PUSH32 0x4E487B7100000000000000000000000000000000000000000000000000000000 PUSH1 0x0 MSTORE PUSH1 0x11 PUSH1 0x4 MSTORE PUSH1 0x24 PUSH1 0x0 REVERT JUMPDEST PUSH32 0x4E487B7100000000000000000000000000000000000000000000000000000000 PUSH1 0x0 MSTORE PUSH1 0x41 PUSH1 0x4 MSTORE PUSH1 0x24 PUSH1 0x0 REVERT JUMPDEST PUSH1 0x0 PUSH1 0x3 RETURNDATASIZE GT ISZERO PUSH2 0x4CF JUMPI PUSH1 0x4 PUSH1 0x0 DUP1 RETURNDATACOPY PUSH2 0x4CC PUSH1 0x0 MLOAD PUSH2 0x4E8 JUMP JUMPDEST SWAP1 POP JUMPDEST SWAP1 JUMP JUMPDEST PUSH1 0x0 DUP1 REVERT JUMPDEST PUSH1 0x0 PUSH1 0x1F NOT PUSH1 0x1F DUP4 ADD AND SWAP1 POP SWAP2 SWAP1 POP JUMP JUMPDEST PUSH1 0x0 DUP2 PUSH1 0xE0 SHR SWAP1 POP SWAP2 SWAP1 POP JUMP JUMPDEST PUSH1 0x0 PUSH1 0x44 RETURNDATASIZE LT ISZERO PUSH2 0x505 JUMPI PUSH2 0x588 JUMP JUMPDEST PUSH2 0x50D PUSH2 0x394 JUMP JUMPDEST PUSH1 0x4 RETURNDATASIZE SUB PUSH1 0x4 DUP3 RETURNDATACOPY DUP1 MLOAD RETURNDATASIZE PUSH1 0x24 DUP3 ADD GT PUSH8 0xFFFFFFFFFFFFFFFF DUP3 GT OR ISZERO PUSH2 0x535 JUMPI POP POP PUSH2 0x588 JUMP JUMPDEST DUP1 DUP3 ADD DUP1 MLOAD PUSH8 0xFFFFFFFFFFFFFFFF DUP2 GT ISZERO PUSH2 0x553 JUMPI POP POP POP POP PUSH2 0x588 JUMP JUMPDEST DUP1 PUSH1 0x20 DUP4 ADD ADD PUSH1 0x4 RETURNDATASIZE SUB DUP6 ADD DUP2 GT ISZERO PUSH2 0x570 JUMPI POP POP POP POP POP PUSH2 0x588 JUMP JUMPDEST PUSH2 0x57F DUP3 PUSH1 0x20 ADD DUP6 ADD DUP7 PUSH2 0x3D8 JUMP JUMPDEST DUP3 SWAP6 POP POP POP POP POP POP JUMPDEST SWAP1 JUMP JUMPDEST PUSH1 0x0 DUP1 PUSH1 0x23 RETURNDATASIZE GT ISZERO PUSH2 0x5A8 JUMPI PUSH1 0x20 PUSH1 0x4 PUSH1 0x0 RETURNDATACOPY PUSH1 0x1 SWAP2 POP PUSH1 0x0 MLOAD SWAP1 POP JUMPDEST SWAP1 SWAP2 JUMP JUMPDEST PUSH2 0x5B5 DUP2 PUSH2 0x3AA JUMP JUMPDEST DUP2 EQ PUSH2 0x5C0 JUMPI PUSH1 0x0 DUP1 REVERT JUMPDEST POP JUMP INVALID LOG2 PUSH5 0x6970667358 0x22 SLT KECCAK256 DUP3 PUSH3 0x57929E 0xBE 0x4C 0xFB SWAP11 0xEC SLT 0xBB 0x28 PUSH10 0xD690F9CC82D552DFCA58 OR DIFFICULTY 0xC5 0xB9 0xF6 SWAP6 0xAC 0x2F PUSH5 0x736F6C6343 STOP ADDMOD SMOD STOP CALLER PUSH1 0x80 PUSH1 0x40 MSTORE CALLVALUE DUP1 ISZERO PUSH2 0x10 JUMPI PUSH1 0x0 DUP1 REVERT JUMPDEST POP PUSH2 0x1B1 DUP1 PUSH2 0x20 PUSH1 0x0 CODECOPY PUSH1 0x0 RETURN INVALID PUSH1 0x80 PUSH1 0x40 MSTORE CALLVALUE DUP1 ISZERO PUSH2 0x10 JUMPI PUSH1 0x0 DUP1 REVERT JUMPDEST POP PUSH1 0x4 CALLDATASIZE LT PUSH2 0x2B JUMPI PUSH1 0x0 CALLDATALOAD PUSH1 0xE0 SHR DUP1 PUSH4 0x771602F7 EQ PUSH2 0x30 JUMPI JUMPDEST PUSH1 0x0 DUP1 REVERT JUMPDEST PUSH2 0x4A PUSH1 0x4 DUP1 CALLDATASIZE SUB DUP2 ADD SWAP1 PUSH2 0x45 SWAP2 SWAP1 PUSH2 0x8B JUMP JUMPDEST PUSH2 0x60 JUMP JUMPDEST PUSH1 0x40 MLOAD PUSH2 0x57 SWAP2 SWAP1 PUSH2 0xDA JUMP JUMPDEST PUSH1 0x40 MLOAD DUP1 SWAP2 SUB SWAP1 RETURN JUMPDEST PUSH1 0x0 DUP2 DUP4 PUSH2 0x6E SWAP2 SWAP1 PUSH2 0xF5 JUMP JUMPDEST SWAP1 POP SWAP3 SWAP2 POP POP JUMP JUMPDEST PUSH1 0x0 DUP2 CALLDATALOAD SWAP1 POP PUSH2 0x85 DUP2 PUSH2 0x164 JUMP JUMPDEST SWAP3 SWAP2 POP POP JUMP JUMPDEST PUSH1 0x0 DUP1 PUSH1 0x40 DUP4 DUP6 SUB SLT ISZERO PUSH2 0xA2 JUMPI PUSH2 0xA1 PUSH2 0x15F JUMP JUMPDEST JUMPDEST PUSH1 0x0 PUSH2 0xB0 DUP6 DUP3 DUP7 ADD PUSH2 0x76 JUMP JUMPDEST SWAP3 POP POP PUSH1 0x20 PUSH2 0xC1 DUP6 DUP3 DUP7 ADD PUSH2 0x76 JUMP JUMPDEST SWAP2 POP POP SWAP3 POP SWAP3 SWAP1 POP JUMP JUMPDEST PUSH2 0xD4 DUP2 PUSH2 0x126 JUMP JUMPDEST DUP3 MSTORE POP POP JUMP JUMPDEST PUSH1 0x0 PUSH1 0x20 DUP3 ADD SWAP1 POP PUSH2 0xEF PUSH1 0x0 DUP4 ADD DUP5 PUSH2 0xCB JUMP JUMPDEST SWAP3 SWAP2 POP POP JUMP JUMPDEST PUSH1 0x0 PUSH2 0x100 DUP3 PUSH2 0x126 JUMP JUMPDEST SWAP2 POP PUSH2 0x10B DUP4 PUSH2 0x126 JUMP JUMPDEST SWAP3 POP DUP3 PUSH2 0x11B JUMPI PUSH2 0x11A PUSH2 0x130 JUMP JUMPDEST JUMPDEST DUP3 DUP3 DIV SWAP1 POP SWAP3 SWAP2 POP POP JUMP JUMPDEST PUSH1 0x0 DUP2 SWAP1 POP SWAP2 SWAP1 POP JUMP JUMPDEST PUSH32 0x4E487B7100000000000000000000000000000000000000000000000000000000 PUSH1 0x0 MSTORE PUSH1 0x12 PUSH1 0x4 MSTORE PUSH1 0x24 PUSH1 0x0 REVERT JUMPDEST PUSH1 0x0 DUP1 REVERT JUMPDEST PUSH2 0x16D DUP2 PUSH2 0x126 JUMP JUMPDEST DUP2 EQ PUSH2 0x178 JUMPI PUSH1 0x0 DUP1 REVERT JUMPDEST POP JUMP INVALID LOG2 PUSH5 0x6970667358 0x22 SLT KECCAK256 0xF6 0x23 0xBA PUSH1 0xEC EXTCODESIZE 0xE0 0xF6 0xF7 0x21 0xAA 0x29 SWAP13 CODECOPY 0xDF SWAP5 SSTORE 0x4E 0xDD 0xB1 LOG0 SWAP6 DUP7 0xEB 0x23 0x2D 0xAA 0xC1 0xE5 0xC3 0x4C SUB PUSH5 0x736F6C6343 STOP ADDMOD SMOD STOP CALLER "
				},
				"gasEstimates": {
					"creation": {
						"codeDepositCost": "305800",
						"executionCost": "infinite",
						"totalCost": "infinite"
					},
					"external": {
						"errorCount()": "2473",
						"success()": "2449",
						"testAdd()": "infinite",
						"value()": "2429"
					}
				},
				"methodIdentifiers": {
					"errorCount()": "d38dbee6",
					"success()": "0b93381b",
					"testAdd()": "ae40f72f",
					"value()": "3fa4f245"
				}
			},
			"storageLayout": {
				"storage": [
					{
						"astId": 23,
						"contract": "contract/chapter04/ty.sol:FeedConsumer",
						"label": "feed",
						"offset": 0,
						"slot": "0",
						"type": "t_contract(DataFeed)16"
					},
					{
						"astId": 25,
						"contract": "contract/chapter04/ty.sol:FeedConsumer",
						"label": "errorCount",
						"offset": 0,
						"slot": "1",
						"type": "t_uint256"
					},
					{
						"astId": 86,
						"contract": "contract/chapter04/ty.sol:FeedConsumer",
						"label": "value",
						"offset": 0,
						"slot": "2",
						"type": "t_uint256"
					},
					{
						"astId": 88,
						"contract": "contract/chapter04/ty.sol:FeedConsumer",
						"label": "success",
						"offset": 0,
						"slot": "3",
						"type": "t_bool"
					}
				],
				"types": {
					"t_bool": {
						"encoding": "inplace",
						"label": "bool",
						"numberOfBytes": "1"
					},
					"t_contract(DataFeed)16": {
						"encoding": "inplace",
						"label": "contract DataFeed",
						"numberOfBytes": "20"
					},
					"t_uint256": {
						"encoding": "inplace",
						"label": "uint256",
						"numberOfBytes": "32"
					}
				}
			},
			"userdoc": {
				"kind": "user",
				"methods": {},
				"version": 1
			}
		}
	}
}