{
	"study/chapter04/newContract.sol": {
		"callContract": {
			"abi": [
				{
					"inputs": [],
					"name": "by",
					"outputs": [
						{
							"internalType": "bytes",
							"name": "",
							"type": "bytes"
						}
					],
					"stateMutability": "view",
					"type": "function"
				},
				{
					"inputs": [],
					"name": "contractaddr",
					"outputs": [
						{
							"internalType": "address",
							"name": "",
							"type": "address"
						}
					],
					"stateMutability": "view",
					"type": "function"
				},
				{
					"inputs": [],
					"name": "getA",
					"outputs": [
						{
							"internalType": "uint256",
							"name": "",
							"type": "uint256"
						}
					],
					"stateMutability": "view",
					"type": "function"
				},
				{
					"inputs": [
						{
							"internalType": "uint256",
							"name": "_a",
							"type": "uint256"
						}
					],
					"name": "setA",
					"outputs": [],
					"stateMutability": "nonpayable",
					"type": "function"
				},
				{
					"inputs": [],
					"name": "str",
					"outputs": [
						{
							"internalType": "string",
							"name": "",
							"type": "string"
						}
					],
					"stateMutability": "view",
					"type": "function"
				},
				{
					"inputs": [],
					"name": "str1",
					"outputs": [
						{
							"internalType": "string",
							"name": "",
							"type": "string"
						}
					],
					"stateMutability": "view",
					"type": "function"
				}
			],
			"devdoc": {
				"kind": "dev",
				"methods": {},
				"version": 1
			},
			"evm": {
				"assembly": "    /* \"study/chapter04/newContract.sol\":371:1028  contract callContract{... */\n  mstore(0x40, 0x80)\n    /* \"study/chapter04/newContract.sol\":467:475  5*10**18 */\n  0x4563918244f40000\n    /* \"study/chapter04/newContract.sol\":477:478  5 */\n  0x05\n    /* \"study/chapter04/newContract.sol\":444:479  new testContract{value:5*10**18}(5) */\n  mload(0x40)\n  tag_1\n  swap1\n  tag_2\n  jump\t// in\ntag_1:\n  tag_3\n  swap2\n  swap1\n  tag_4\n  jump\t// in\ntag_3:\n  mload(0x40)\n  dup1\n  swap2\n  sub\n  swap1\n  dup3\n  create\n  swap1\n  pop\n  dup1\n  iszero\n  dup1\n  iszero\n  tag_5\n  jumpi\n  returndatasize\n  0x00\n  dup1\n  returndatacopy\n  revert(0x00, returndatasize)\ntag_5:\n  pop\n    /* \"study/chapter04/newContract.sol\":427:479  testContract t = new testContract{value:5*10**18}(5) */\n  0x00\n  dup1\n  0x0100\n  exp\n  dup2\n  sload\n  dup2\n  0xffffffffffffffffffffffffffffffffffffffff\n  mul\n  not\n  and\n  swap1\n  dup4\n  0xffffffffffffffffffffffffffffffffffffffff\n  and\n  mul\n  or\n  swap1\n  sstore\n  pop\n    /* \"study/chapter04/newContract.sol\":523:524  t */\n  0x00\n  dup1\n  sload\n  swap1\n  0x0100\n  exp\n  swap1\n  div\n  0xffffffffffffffffffffffffffffffffffffffff\n  and\n    /* \"study/chapter04/newContract.sol\":485:525  address public contractaddr = address(t) */\n  0x01\n  exp(0x0100, 0x00)\n  dup2\n  sload\n  dup2\n  0xffffffffffffffffffffffffffffffffffffffff\n  mul\n  not\n  and\n  swap1\n  dup4\n  0xffffffffffffffffffffffffffffffffffffffff\n  and\n  mul\n  or\n  swap1\n  sstore\n  pop\n    /* \"study/chapter04/newContract.sol\":643:644  t */\n  0x00\n  dup1\n  sload\n  swap1\n  0x0100\n  exp\n  swap1\n  div\n  0xffffffffffffffffffffffffffffffffffffffff\n  and\n    /* \"study/chapter04/newContract.sol\":643:660  t.getContractName */\n  0xffffffffffffffffffffffffffffffffffffffff\n  and\n  0xf5f5ba72\n    /* \"study/chapter04/newContract.sol\":643:662  t.getContractName() */\n  mload(0x40)\n  dup2\n  0xffffffff\n  and\n  0xe0\n  shl\n  dup2\n  mstore\n  0x04\n  add\n  0x00\n  mload(0x40)\n  dup1\n  dup4\n  sub\n  dup2\n  dup7\n  gas\n  staticcall\n  iszero\n  dup1\n  iszero\n  tag_7\n  jumpi\n  returndatasize\n  0x00\n  dup1\n  returndatacopy\n  revert(0x00, returndatasize)\ntag_7:\n  pop\n  pop\n  pop\n  pop\n  mload(0x40)\n  returndatasize\n  0x00\n  dup3\n  returndatacopy\n  returndatasize\n  not(0x1f)\n  0x1f\n  dup3\n  add\n  and\n  dup3\n  add\n  dup1\n  0x40\n  mstore\n  pop\n  dup2\n  add\n  swap1\n  tag_8\n  swap2\n  swap1\n  tag_9\n  jump\t// in\ntag_8:\n    /* \"study/chapter04/newContract.sol\":623:662  string public str = t.getContractName() */\n  0x02\n  swap1\n  dup2\n  tag_10\n  swap2\n  swap1\n  tag_11\n  jump\t// in\ntag_10:\n  pop\n    /* \"study/chapter04/newContract.sol\":947:970  type(testContract).name */\n  mload(0x40)\n  dup1\n  0x40\n  add\n  0x40\n  mstore\n  0x0c\n  dup2\n  mstore\n  dup1\n  0x20\n  add\n  0x74657374436f6e74726163740000000000000000000000000000000000000000\n  dup2\n  mstore\n  pop\n    /* \"study/chapter04/newContract.sol\":926:970  string public str1 = type(testContract).name */\n  0x03\n  swap1\n  dup2\n  tag_12\n  swap2\n  swap1\n  tag_11\n  jump\t// in\ntag_12:\n  pop\n    /* \"study/chapter04/newContract.sol\":994:1025  type(testContract).creationCode */\n  mload(0x40)\n  dup1\n  0x20\n  add\n  tag_13\n  swap1\n  tag_2\n  jump\t// in\ntag_13:\n  0x20\n  dup3\n  add\n  dup2\n  sub\n  dup3\n  mstore\n  not(0x1f)\n  0x1f\n  dup3\n  add\n  and\n  0x40\n  mstore\n  pop\n    /* \"study/chapter04/newContract.sol\":976:1025  bytes public by = type(testContract).creationCode */\n  0x04\n  swap1\n  dup2\n  tag_14\n  swap2\n  swap1\n  tag_15\n  jump\t// in\ntag_14:\n  pop\n    /* \"study/chapter04/newContract.sol\":371:1028  contract callContract{... */\n  callvalue\n  dup1\n  iszero\n  tag_16\n  jumpi\n  0x00\n  dup1\n  revert\ntag_16:\n  pop\n  jump(tag_17)\ntag_2:\n  dataSize(sub_1)\n  dup1\n  dataOffset(sub_1)\n  dup4\n  codecopy\n  add\n  swap1\n  jump\t// out\n    /* \"#utility.yul\":7:92   */\ntag_18:\n    /* \"#utility.yul\":52:59   */\n  0x00\n    /* \"#utility.yul\":81:86   */\n  dup2\n    /* \"#utility.yul\":70:86   */\n  swap1\n  pop\n    /* \"#utility.yul\":7:92   */\n  swap2\n  swap1\n  pop\n  jump\t// out\n    /* \"#utility.yul\":98:175   */\ntag_19:\n    /* \"#utility.yul\":135:142   */\n  0x00\n    /* \"#utility.yul\":164:169   */\n  dup2\n    /* \"#utility.yul\":153:169   */\n  swap1\n  pop\n    /* \"#utility.yul\":98:175   */\n  swap2\n  swap1\n  pop\n  jump\t// out\n    /* \"#utility.yul\":181:241   */\ntag_20:\n    /* \"#utility.yul\":209:212   */\n  0x00\n    /* \"#utility.yul\":230:235   */\n  dup2\n    /* \"#utility.yul\":223:235   */\n  swap1\n  pop\n    /* \"#utility.yul\":181:241   */\n  swap2\n  swap1\n  pop\n  jump\t// out\n    /* \"#utility.yul\":247:405   */\ntag_21:\n    /* \"#utility.yul\":305:314   */\n  0x00\n    /* \"#utility.yul\":338:399   */\n  tag_61\n    /* \"#utility.yul\":356:398   */\n  tag_62\n    /* \"#utility.yul\":365:397   */\n  tag_63\n    /* \"#utility.yul\":391:396   */\n  dup5\n    /* \"#utility.yul\":365:397   */\n  tag_18\n  jump\t// in\ntag_63:\n    /* \"#utility.yul\":356:398   */\n  tag_20\n  jump\t// in\ntag_62:\n    /* \"#utility.yul\":338:399   */\n  tag_19\n  jump\t// in\ntag_61:\n    /* \"#utility.yul\":325:399   */\n  swap1\n  pop\n    /* \"#utility.yul\":247:405   */\n  swap2\n  swap1\n  pop\n  jump\t// out\n    /* \"#utility.yul\":411:558   */\ntag_22:\n    /* \"#utility.yul\":506:551   */\n  tag_65\n    /* \"#utility.yul\":545:550   */\n  dup2\n    /* \"#utility.yul\":506:551   */\n  tag_21\n  jump\t// in\ntag_65:\n    /* \"#utility.yul\":501:504   */\n  dup3\n    /* \"#utility.yul\":494:552   */\n  mstore\n    /* \"#utility.yul\":411:558   */\n  pop\n  pop\n  jump\t// out\n    /* \"#utility.yul\":564:802   */\ntag_4:\n    /* \"#utility.yul\":665:669   */\n  0x00\n    /* \"#utility.yul\":703:705   */\n  0x20\n    /* \"#utility.yul\":692:701   */\n  dup3\n    /* \"#utility.yul\":688:706   */\n  add\n    /* \"#utility.yul\":680:706   */\n  swap1\n  pop\n    /* \"#utility.yul\":716:795   */\n  tag_67\n    /* \"#utility.yul\":792:793   */\n  0x00\n    /* \"#utility.yul\":781:790   */\n  dup4\n    /* \"#utility.yul\":777:794   */\n  add\n    /* \"#utility.yul\":768:774   */\n  dup5\n    /* \"#utility.yul\":716:795   */\n  tag_22\n  jump\t// in\ntag_67:\n    /* \"#utility.yul\":564:802   */\n  swap3\n  swap2\n  pop\n  pop\n  jump\t// out\n    /* \"#utility.yul\":808:883   */\ntag_23:\n    /* \"#utility.yul\":841:847   */\n  0x00\n    /* \"#utility.yul\":874:876   */\n  0x40\n    /* \"#utility.yul\":868:877   */\n  mload\n    /* \"#utility.yul\":858:877   */\n  swap1\n  pop\n    /* \"#utility.yul\":808:883   */\n  swap1\n  jump\t// out\n    /* \"#utility.yul\":889:1006   */\ntag_24:\n    /* \"#utility.yul\":998:999   */\n  0x00\n    /* \"#utility.yul\":995:996   */\n  dup1\n    /* \"#utility.yul\":988:1000   */\n  revert\n    /* \"#utility.yul\":1012:1129   */\ntag_25:\n    /* \"#utility.yul\":1121:1122   */\n  0x00\n    /* \"#utility.yul\":1118:1119   */\n  dup1\n    /* \"#utility.yul\":1111:1123   */\n  revert\n    /* \"#utility.yul\":1135:1252   */\ntag_26:\n    /* \"#utility.yul\":1244:1245   */\n  0x00\n    /* \"#utility.yul\":1241:1242   */\n  dup1\n    /* \"#utility.yul\":1234:1246   */\n  revert\n    /* \"#utility.yul\":1258:1375   */\ntag_27:\n    /* \"#utility.yul\":1367:1368   */\n  0x00\n    /* \"#utility.yul\":1364:1365   */\n  dup1\n    /* \"#utility.yul\":1357:1369   */\n  revert\n    /* \"#utility.yul\":1381:1483   */\ntag_28:\n    /* \"#utility.yul\":1422:1428   */\n  0x00\n    /* \"#utility.yul\":1473:1475   */\n  0x1f\n    /* \"#utility.yul\":1469:1476   */\n  not\n    /* \"#utility.yul\":1464:1466   */\n  0x1f\n    /* \"#utility.yul\":1457:1462   */\n  dup4\n    /* \"#utility.yul\":1453:1467   */\n  add\n    /* \"#utility.yul\":1449:1477   */\n  and\n    /* \"#utility.yul\":1439:1477   */\n  swap1\n  pop\n    /* \"#utility.yul\":1381:1483   */\n  swap2\n  swap1\n  pop\n  jump\t// out\n    /* \"#utility.yul\":1489:1669   */\ntag_29:\n    /* \"#utility.yul\":1537:1614   */\n  0x4e487b7100000000000000000000000000000000000000000000000000000000\n    /* \"#utility.yul\":1534:1535   */\n  0x00\n    /* \"#utility.yul\":1527:1615   */\n  mstore\n    /* \"#utility.yul\":1634:1638   */\n  0x41\n    /* \"#utility.yul\":1631:1632   */\n  0x04\n    /* \"#utility.yul\":1624:1639   */\n  mstore\n    /* \"#utility.yul\":1658:1662   */\n  0x24\n    /* \"#utility.yul\":1655:1656   */\n  0x00\n    /* \"#utility.yul\":1648:1663   */\n  revert\n    /* \"#utility.yul\":1675:1956   */\ntag_30:\n    /* \"#utility.yul\":1758:1785   */\n  tag_76\n    /* \"#utility.yul\":1780:1784   */\n  dup3\n    /* \"#utility.yul\":1758:1785   */\n  tag_28\n  jump\t// in\ntag_76:\n    /* \"#utility.yul\":1750:1756   */\n  dup2\n    /* \"#utility.yul\":1746:1786   */\n  add\n    /* \"#utility.yul\":1888:1894   */\n  dup2\n    /* \"#utility.yul\":1876:1886   */\n  dup2\n    /* \"#utility.yul\":1873:1895   */\n  lt\n    /* \"#utility.yul\":1852:1870   */\n  0xffffffffffffffff\n    /* \"#utility.yul\":1840:1850   */\n  dup3\n    /* \"#utility.yul\":1837:1871   */\n  gt\n    /* \"#utility.yul\":1834:1896   */\n  or\n    /* \"#utility.yul\":1831:1919   */\n  iszero\n  tag_77\n  jumpi\n    /* \"#utility.yul\":1899:1917   */\n  tag_78\n  tag_29\n  jump\t// in\ntag_78:\n    /* \"#utility.yul\":1831:1919   */\ntag_77:\n    /* \"#utility.yul\":1939:1949   */\n  dup1\n    /* \"#utility.yul\":1935:1937   */\n  0x40\n    /* \"#utility.yul\":1928:1950   */\n  mstore\n    /* \"#utility.yul\":1718:1956   */\n  pop\n    /* \"#utility.yul\":1675:1956   */\n  pop\n  pop\n  jump\t// out\n    /* \"#utility.yul\":1962:2091   */\ntag_31:\n    /* \"#utility.yul\":1996:2002   */\n  0x00\n    /* \"#utility.yul\":2023:2043   */\n  tag_80\n  tag_23\n  jump\t// in\ntag_80:\n    /* \"#utility.yul\":2013:2043   */\n  swap1\n  pop\n    /* \"#utility.yul\":2052:2085   */\n  tag_81\n    /* \"#utility.yul\":2080:2084   */\n  dup3\n    /* \"#utility.yul\":2072:2078   */\n  dup3\n    /* \"#utility.yul\":2052:2085   */\n  tag_30\n  jump\t// in\ntag_81:\n    /* \"#utility.yul\":1962:2091   */\n  swap2\n  swap1\n  pop\n  jump\t// out\n    /* \"#utility.yul\":2097:2405   */\ntag_32:\n    /* \"#utility.yul\":2159:2163   */\n  0x00\n    /* \"#utility.yul\":2249:2267   */\n  0xffffffffffffffff\n    /* \"#utility.yul\":2241:2247   */\n  dup3\n    /* \"#utility.yul\":2238:2268   */\n  gt\n    /* \"#utility.yul\":2235:2291   */\n  iszero\n  tag_83\n  jumpi\n    /* \"#utility.yul\":2271:2289   */\n  tag_84\n  tag_29\n  jump\t// in\ntag_84:\n    /* \"#utility.yul\":2235:2291   */\ntag_83:\n    /* \"#utility.yul\":2309:2338   */\n  tag_85\n    /* \"#utility.yul\":2331:2337   */\n  dup3\n    /* \"#utility.yul\":2309:2338   */\n  tag_28\n  jump\t// in\ntag_85:\n    /* \"#utility.yul\":2301:2338   */\n  swap1\n  pop\n    /* \"#utility.yul\":2393:2397   */\n  0x20\n    /* \"#utility.yul\":2387:2391   */\n  dup2\n    /* \"#utility.yul\":2383:2398   */\n  add\n    /* \"#utility.yul\":2375:2398   */\n  swap1\n  pop\n    /* \"#utility.yul\":2097:2405   */\n  swap2\n  swap1\n  pop\n  jump\t// out\n    /* \"#utility.yul\":2411:2718   */\ntag_33:\n    /* \"#utility.yul\":2479:2480   */\n  0x00\n    /* \"#utility.yul\":2489:2602   */\ntag_87:\n    /* \"#utility.yul\":2503:2509   */\n  dup4\n    /* \"#utility.yul\":2500:2501   */\n  dup2\n    /* \"#utility.yul\":2497:2510   */\n  lt\n    /* \"#utility.yul\":2489:2602   */\n  iszero\n  tag_89\n  jumpi\n    /* \"#utility.yul\":2588:2589   */\n  dup1\n    /* \"#utility.yul\":2583:2586   */\n  dup3\n    /* \"#utility.yul\":2579:2590   */\n  add\n    /* \"#utility.yul\":2573:2591   */\n  mload\n    /* \"#utility.yul\":2569:2570   */\n  dup2\n    /* \"#utility.yul\":2564:2567   */\n  dup5\n    /* \"#utility.yul\":2560:2571   */\n  add\n    /* \"#utility.yul\":2553:2592   */\n  mstore\n    /* \"#utility.yul\":2525:2527   */\n  0x20\n    /* \"#utility.yul\":2522:2523   */\n  dup2\n    /* \"#utility.yul\":2518:2528   */\n  add\n    /* \"#utility.yul\":2513:2528   */\n  swap1\n  pop\n    /* \"#utility.yul\":2489:2602   */\n  jump(tag_87)\ntag_89:\n    /* \"#utility.yul\":2620:2626   */\n  dup4\n    /* \"#utility.yul\":2617:2618   */\n  dup2\n    /* \"#utility.yul\":2614:2627   */\n  gt\n    /* \"#utility.yul\":2611:2712   */\n  iszero\n  tag_90\n  jumpi\n    /* \"#utility.yul\":2700:2701   */\n  0x00\n    /* \"#utility.yul\":2691:2697   */\n  dup5\n    /* \"#utility.yul\":2686:2689   */\n  dup5\n    /* \"#utility.yul\":2682:2698   */\n  add\n    /* \"#utility.yul\":2675:2702   */\n  mstore\n    /* \"#utility.yul\":2611:2712   */\ntag_90:\n    /* \"#utility.yul\":2460:2718   */\n  pop\n    /* \"#utility.yul\":2411:2718   */\n  pop\n  pop\n  pop\n  jump\t// out\n    /* \"#utility.yul\":2724:3145   */\ntag_34:\n    /* \"#utility.yul\":2813:2818   */\n  0x00\n    /* \"#utility.yul\":2838:2904   */\n  tag_92\n    /* \"#utility.yul\":2854:2903   */\n  tag_93\n    /* \"#utility.yul\":2896:2902   */\n  dup5\n    /* \"#utility.yul\":2854:2903   */\n  tag_32\n  jump\t// in\ntag_93:\n    /* \"#utility.yul\":2838:2904   */\n  tag_31\n  jump\t// in\ntag_92:\n    /* \"#utility.yul\":2829:2904   */\n  swap1\n  pop\n    /* \"#utility.yul\":2927:2933   */\n  dup3\n    /* \"#utility.yul\":2920:2925   */\n  dup2\n    /* \"#utility.yul\":2913:2934   */\n  mstore\n    /* \"#utility.yul\":2965:2969   */\n  0x20\n    /* \"#utility.yul\":2958:2963   */\n  dup2\n    /* \"#utility.yul\":2954:2970   */\n  add\n    /* \"#utility.yul\":3003:3006   */\n  dup5\n    /* \"#utility.yul\":2994:3000   */\n  dup5\n    /* \"#utility.yul\":2989:2992   */\n  dup5\n    /* \"#utility.yul\":2985:3001   */\n  add\n    /* \"#utility.yul\":2982:3007   */\n  gt\n    /* \"#utility.yul\":2979:3091   */\n  iszero\n  tag_94\n  jumpi\n    /* \"#utility.yul\":3010:3089   */\n  tag_95\n  tag_27\n  jump\t// in\ntag_95:\n    /* \"#utility.yul\":2979:3091   */\ntag_94:\n    /* \"#utility.yul\":3100:3139   */\n  tag_96\n    /* \"#utility.yul\":3132:3138   */\n  dup5\n    /* \"#utility.yul\":3127:3130   */\n  dup3\n    /* \"#utility.yul\":3122:3125   */\n  dup6\n    /* \"#utility.yul\":3100:3139   */\n  tag_33\n  jump\t// in\ntag_96:\n    /* \"#utility.yul\":2819:3145   */\n  pop\n    /* \"#utility.yul\":2724:3145   */\n  swap4\n  swap3\n  pop\n  pop\n  pop\n  jump\t// out\n    /* \"#utility.yul\":3165:3520   */\ntag_35:\n    /* \"#utility.yul\":3232:3237   */\n  0x00\n    /* \"#utility.yul\":3281:3284   */\n  dup3\n    /* \"#utility.yul\":3274:3278   */\n  0x1f\n    /* \"#utility.yul\":3266:3272   */\n  dup4\n    /* \"#utility.yul\":3262:3279   */\n  add\n    /* \"#utility.yul\":3258:3285   */\n  slt\n    /* \"#utility.yul\":3248:3370   */\n  tag_98\n  jumpi\n    /* \"#utility.yul\":3289:3368   */\n  tag_99\n  tag_26\n  jump\t// in\ntag_99:\n    /* \"#utility.yul\":3248:3370   */\ntag_98:\n    /* \"#utility.yul\":3399:3405   */\n  dup2\n    /* \"#utility.yul\":3393:3406   */\n  mload\n    /* \"#utility.yul\":3424:3514   */\n  tag_100\n    /* \"#utility.yul\":3510:3513   */\n  dup5\n    /* \"#utility.yul\":3502:3508   */\n  dup3\n    /* \"#utility.yul\":3495:3499   */\n  0x20\n    /* \"#utility.yul\":3487:3493   */\n  dup7\n    /* \"#utility.yul\":3483:3500   */\n  add\n    /* \"#utility.yul\":3424:3514   */\n  tag_34\n  jump\t// in\ntag_100:\n    /* \"#utility.yul\":3415:3514   */\n  swap2\n  pop\n    /* \"#utility.yul\":3238:3520   */\n  pop\n    /* \"#utility.yul\":3165:3520   */\n  swap3\n  swap2\n  pop\n  pop\n  jump\t// out\n    /* \"#utility.yul\":3526:4050   */\ntag_9:\n    /* \"#utility.yul\":3606:3612   */\n  0x00\n    /* \"#utility.yul\":3655:3657   */\n  0x20\n    /* \"#utility.yul\":3643:3652   */\n  dup3\n    /* \"#utility.yul\":3634:3641   */\n  dup5\n    /* \"#utility.yul\":3630:3653   */\n  sub\n    /* \"#utility.yul\":3626:3658   */\n  slt\n    /* \"#utility.yul\":3623:3742   */\n  iszero\n  tag_102\n  jumpi\n    /* \"#utility.yul\":3661:3740   */\n  tag_103\n  tag_24\n  jump\t// in\ntag_103:\n    /* \"#utility.yul\":3623:3742   */\ntag_102:\n    /* \"#utility.yul\":3802:3803   */\n  0x00\n    /* \"#utility.yul\":3791:3800   */\n  dup3\n    /* \"#utility.yul\":3787:3804   */\n  add\n    /* \"#utility.yul\":3781:3805   */\n  mload\n    /* \"#utility.yul\":3832:3850   */\n  0xffffffffffffffff\n    /* \"#utility.yul\":3824:3830   */\n  dup2\n    /* \"#utility.yul\":3821:3851   */\n  gt\n    /* \"#utility.yul\":3818:3935   */\n  iszero\n  tag_104\n  jumpi\n    /* \"#utility.yul\":3854:3933   */\n  tag_105\n  tag_25\n  jump\t// in\ntag_105:\n    /* \"#utility.yul\":3818:3935   */\ntag_104:\n    /* \"#utility.yul\":3959:4033   */\n  tag_106\n    /* \"#utility.yul\":4025:4032   */\n  dup5\n    /* \"#utility.yul\":4016:4022   */\n  dup3\n    /* \"#utility.yul\":4005:4014   */\n  dup6\n    /* \"#utility.yul\":4001:4023   */\n  add\n    /* \"#utility.yul\":3959:4033   */\n  tag_35\n  jump\t// in\ntag_106:\n    /* \"#utility.yul\":3949:4033   */\n  swap2\n  pop\n    /* \"#utility.yul\":3752:4043   */\n  pop\n    /* \"#utility.yul\":3526:4050   */\n  swap3\n  swap2\n  pop\n  pop\n  jump\t// out\n    /* \"#utility.yul\":4056:4155   */\ntag_36:\n    /* \"#utility.yul\":4108:4114   */\n  0x00\n    /* \"#utility.yul\":4142:4147   */\n  dup2\n    /* \"#utility.yul\":4136:4148   */\n  mload\n    /* \"#utility.yul\":4126:4148   */\n  swap1\n  pop\n    /* \"#utility.yul\":4056:4155   */\n  swap2\n  swap1\n  pop\n  jump\t// out\n    /* \"#utility.yul\":4161:4341   */\ntag_37:\n    /* \"#utility.yul\":4209:4286   */\n  0x4e487b7100000000000000000000000000000000000000000000000000000000\n    /* \"#utility.yul\":4206:4207   */\n  0x00\n    /* \"#utility.yul\":4199:4287   */\n  mstore\n    /* \"#utility.yul\":4306:4310   */\n  0x22\n    /* \"#utility.yul\":4303:4304   */\n  0x04\n    /* \"#utility.yul\":4296:4311   */\n  mstore\n    /* \"#utility.yul\":4330:4334   */\n  0x24\n    /* \"#utility.yul\":4327:4328   */\n  0x00\n    /* \"#utility.yul\":4320:4335   */\n  revert\n    /* \"#utility.yul\":4347:4667   */\ntag_38:\n    /* \"#utility.yul\":4391:4397   */\n  0x00\n    /* \"#utility.yul\":4428:4429   */\n  0x02\n    /* \"#utility.yul\":4422:4426   */\n  dup3\n    /* \"#utility.yul\":4418:4430   */\n  div\n    /* \"#utility.yul\":4408:4430   */\n  swap1\n  pop\n    /* \"#utility.yul\":4475:4476   */\n  0x01\n    /* \"#utility.yul\":4469:4473   */\n  dup3\n    /* \"#utility.yul\":4465:4477   */\n  and\n    /* \"#utility.yul\":4496:4514   */\n  dup1\n    /* \"#utility.yul\":4486:4567   */\n  tag_110\n  jumpi\n    /* \"#utility.yul\":4552:4556   */\n  0x7f\n    /* \"#utility.yul\":4544:4550   */\n  dup3\n    /* \"#utility.yul\":4540:4557   */\n  and\n    /* \"#utility.yul\":4530:4557   */\n  swap2\n  pop\n    /* \"#utility.yul\":4486:4567   */\ntag_110:\n    /* \"#utility.yul\":4614:4616   */\n  0x20\n    /* \"#utility.yul\":4606:4612   */\n  dup3\n    /* \"#utility.yul\":4603:4617   */\n  lt\n    /* \"#utility.yul\":4583:4601   */\n  dup2\n    /* \"#utility.yul\":4580:4618   */\n  sub\n    /* \"#utility.yul\":4577:4661   */\n  tag_111\n  jumpi\n    /* \"#utility.yul\":4633:4651   */\n  tag_112\n  tag_37\n  jump\t// in\ntag_112:\n    /* \"#utility.yul\":4577:4661   */\ntag_111:\n    /* \"#utility.yul\":4398:4667   */\n  pop\n    /* \"#utility.yul\":4347:4667   */\n  swap2\n  swap1\n  pop\n  jump\t// out\n    /* \"#utility.yul\":4673:4814   */\ntag_39:\n    /* \"#utility.yul\":4722:4726   */\n  0x00\n    /* \"#utility.yul\":4745:4748   */\n  dup2\n    /* \"#utility.yul\":4737:4748   */\n  swap1\n  pop\n    /* \"#utility.yul\":4768:4771   */\n  dup2\n    /* \"#utility.yul\":4765:4766   */\n  0x00\n    /* \"#utility.yul\":4758:4772   */\n  mstore\n    /* \"#utility.yul\":4802:4806   */\n  0x20\n    /* \"#utility.yul\":4799:4800   */\n  0x00\n    /* \"#utility.yul\":4789:4807   */\n  keccak256\n    /* \"#utility.yul\":4781:4807   */\n  swap1\n  pop\n    /* \"#utility.yul\":4673:4814   */\n  swap2\n  swap1\n  pop\n  jump\t// out\n    /* \"#utility.yul\":4820:4913   */\ntag_40:\n    /* \"#utility.yul\":4857:4863   */\n  0x00\n    /* \"#utility.yul\":4904:4906   */\n  0x20\n    /* \"#utility.yul\":4899:4901   */\n  0x1f\n    /* \"#utility.yul\":4892:4897   */\n  dup4\n    /* \"#utility.yul\":4888:4902   */\n  add\n    /* \"#utility.yul\":4884:4907   */\n  div\n    /* \"#utility.yul\":4874:4907   */\n  swap1\n  pop\n    /* \"#utility.yul\":4820:4913   */\n  swap2\n  swap1\n  pop\n  jump\t// out\n    /* \"#utility.yul\":4919:5026   */\ntag_41:\n    /* \"#utility.yul\":4963:4971   */\n  0x00\n    /* \"#utility.yul\":5013:5018   */\n  dup3\n    /* \"#utility.yul\":5007:5011   */\n  dup3\n    /* \"#utility.yul\":5003:5019   */\n  shl\n    /* \"#utility.yul\":4982:5019   */\n  swap1\n  pop\n    /* \"#utility.yul\":4919:5026   */\n  swap3\n  swap2\n  pop\n  pop\n  jump\t// out\n    /* \"#utility.yul\":5032:5425   */\ntag_42:\n    /* \"#utility.yul\":5101:5107   */\n  0x00\n    /* \"#utility.yul\":5151:5152   */\n  0x08\n    /* \"#utility.yul\":5139:5149   */\n  dup4\n    /* \"#utility.yul\":5135:5153   */\n  mul\n    /* \"#utility.yul\":5174:5271   */\n  tag_117\n    /* \"#utility.yul\":5204:5270   */\n  0xffffffffffffffffffffffffffffffffffffffffffffffffffffffffffffffff\n    /* \"#utility.yul\":5193:5202   */\n  dup3\n    /* \"#utility.yul\":5174:5271   */\n  tag_41\n  jump\t// in\ntag_117:\n    /* \"#utility.yul\":5292:5331   */\n  tag_118\n    /* \"#utility.yul\":5322:5330   */\n  dup7\n    /* \"#utility.yul\":5311:5320   */\n  dup4\n    /* \"#utility.yul\":5292:5331   */\n  tag_41\n  jump\t// in\ntag_118:\n    /* \"#utility.yul\":5280:5331   */\n  swap6\n  pop\n    /* \"#utility.yul\":5364:5368   */\n  dup1\n    /* \"#utility.yul\":5360:5369   */\n  not\n    /* \"#utility.yul\":5353:5358   */\n  dup5\n    /* \"#utility.yul\":5349:5370   */\n  and\n    /* \"#utility.yul\":5340:5370   */\n  swap4\n  pop\n    /* \"#utility.yul\":5413:5417   */\n  dup1\n    /* \"#utility.yul\":5403:5411   */\n  dup7\n    /* \"#utility.yul\":5399:5418   */\n  and\n    /* \"#utility.yul\":5392:5397   */\n  dup5\n    /* \"#utility.yul\":5389:5419   */\n  or\n    /* \"#utility.yul\":5379:5419   */\n  swap3\n  pop\n    /* \"#utility.yul\":5108:5425   */\n  pop\n  pop\n    /* \"#utility.yul\":5032:5425   */\n  swap4\n  swap3\n  pop\n  pop\n  pop\n  jump\t// out\n    /* \"#utility.yul\":5431:5573   */\ntag_43:\n    /* \"#utility.yul\":5481:5490   */\n  0x00\n    /* \"#utility.yul\":5514:5567   */\n  tag_120\n    /* \"#utility.yul\":5532:5566   */\n  tag_121\n    /* \"#utility.yul\":5541:5565   */\n  tag_122\n    /* \"#utility.yul\":5559:5564   */\n  dup5\n    /* \"#utility.yul\":5541:5565   */\n  tag_19\n  jump\t// in\ntag_122:\n    /* \"#utility.yul\":5532:5566   */\n  tag_20\n  jump\t// in\ntag_121:\n    /* \"#utility.yul\":5514:5567   */\n  tag_19\n  jump\t// in\ntag_120:\n    /* \"#utility.yul\":5501:5567   */\n  swap1\n  pop\n    /* \"#utility.yul\":5431:5573   */\n  swap2\n  swap1\n  pop\n  jump\t// out\n    /* \"#utility.yul\":5579:5654   */\ntag_44:\n    /* \"#utility.yul\":5622:5625   */\n  0x00\n    /* \"#utility.yul\":5643:5648   */\n  dup2\n    /* \"#utility.yul\":5636:5648   */\n  swap1\n  pop\n    /* \"#utility.yul\":5579:5654   */\n  swap2\n  swap1\n  pop\n  jump\t// out\n    /* \"#utility.yul\":5660:5929   */\ntag_45:\n    /* \"#utility.yul\":5770:5809   */\n  tag_125\n    /* \"#utility.yul\":5801:5808   */\n  dup4\n    /* \"#utility.yul\":5770:5809   */\n  tag_43\n  jump\t// in\ntag_125:\n    /* \"#utility.yul\":5831:5922   */\n  tag_126\n    /* \"#utility.yul\":5880:5921   */\n  tag_127\n    /* \"#utility.yul\":5904:5920   */\n  dup3\n    /* \"#utility.yul\":5880:5921   */\n  tag_44\n  jump\t// in\ntag_127:\n    /* \"#utility.yul\":5872:5878   */\n  dup5\n    /* \"#utility.yul\":5865:5869   */\n  dup5\n    /* \"#utility.yul\":5859:5870   */\n  sload\n    /* \"#utility.yul\":5831:5922   */\n  tag_42\n  jump\t// in\ntag_126:\n    /* \"#utility.yul\":5825:5829   */\n  dup3\n    /* \"#utility.yul\":5818:5923   */\n  sstore\n    /* \"#utility.yul\":5736:5929   */\n  pop\n    /* \"#utility.yul\":5660:5929   */\n  pop\n  pop\n  pop\n  jump\t// out\n    /* \"#utility.yul\":5935:6008   */\ntag_46:\n    /* \"#utility.yul\":5980:5983   */\n  0x00\n    /* \"#utility.yul\":5935:6008   */\n  swap1\n  jump\t// out\n    /* \"#utility.yul\":6014:6203   */\ntag_47:\n    /* \"#utility.yul\":6091:6123   */\n  tag_130\n  tag_46\n  jump\t// in\ntag_130:\n    /* \"#utility.yul\":6132:6197   */\n  tag_131\n    /* \"#utility.yul\":6190:6196   */\n  dup2\n    /* \"#utility.yul\":6182:6188   */\n  dup5\n    /* \"#utility.yul\":6176:6180   */\n  dup5\n    /* \"#utility.yul\":6132:6197   */\n  tag_45\n  jump\t// in\ntag_131:\n    /* \"#utility.yul\":6067:6203   */\n  pop\n    /* \"#utility.yul\":6014:6203   */\n  pop\n  pop\n  jump\t// out\n    /* \"#utility.yul\":6209:6395   */\ntag_48:\n    /* \"#utility.yul\":6269:6389   */\ntag_133:\n    /* \"#utility.yul\":6286:6289   */\n  dup2\n    /* \"#utility.yul\":6279:6284   */\n  dup2\n    /* \"#utility.yul\":6276:6290   */\n  lt\n    /* \"#utility.yul\":6269:6389   */\n  iszero\n  tag_135\n  jumpi\n    /* \"#utility.yul\":6340:6379   */\n  tag_136\n    /* \"#utility.yul\":6377:6378   */\n  0x00\n    /* \"#utility.yul\":6370:6375   */\n  dup3\n    /* \"#utility.yul\":6340:6379   */\n  tag_47\n  jump\t// in\ntag_136:\n    /* \"#utility.yul\":6313:6314   */\n  0x01\n    /* \"#utility.yul\":6306:6311   */\n  dup2\n    /* \"#utility.yul\":6302:6315   */\n  add\n    /* \"#utility.yul\":6293:6315   */\n  swap1\n  pop\n    /* \"#utility.yul\":6269:6389   */\n  jump(tag_133)\ntag_135:\n    /* \"#utility.yul\":6209:6395   */\n  pop\n  pop\n  jump\t// out\n    /* \"#utility.yul\":6401:6944   */\ntag_49:\n    /* \"#utility.yul\":6502:6504   */\n  0x1f\n    /* \"#utility.yul\":6497:6500   */\n  dup3\n    /* \"#utility.yul\":6494:6505   */\n  gt\n    /* \"#utility.yul\":6491:6937   */\n  iszero\n  tag_138\n  jumpi\n    /* \"#utility.yul\":6536:6574   */\n  tag_139\n    /* \"#utility.yul\":6568:6573   */\n  dup2\n    /* \"#utility.yul\":6536:6574   */\n  tag_39\n  jump\t// in\ntag_139:\n    /* \"#utility.yul\":6620:6649   */\n  tag_140\n    /* \"#utility.yul\":6638:6648   */\n  dup5\n    /* \"#utility.yul\":6620:6649   */\n  tag_40\n  jump\t// in\ntag_140:\n    /* \"#utility.yul\":6610:6618   */\n  dup2\n    /* \"#utility.yul\":6606:6650   */\n  add\n    /* \"#utility.yul\":6803:6805   */\n  0x20\n    /* \"#utility.yul\":6791:6801   */\n  dup6\n    /* \"#utility.yul\":6788:6806   */\n  lt\n    /* \"#utility.yul\":6785:6834   */\n  iszero\n  tag_141\n  jumpi\n    /* \"#utility.yul\":6824:6832   */\n  dup2\n    /* \"#utility.yul\":6809:6832   */\n  swap1\n  pop\n    /* \"#utility.yul\":6785:6834   */\ntag_141:\n    /* \"#utility.yul\":6847:6927   */\n  tag_142\n    /* \"#utility.yul\":6903:6925   */\n  tag_143\n    /* \"#utility.yul\":6921:6924   */\n  dup6\n    /* \"#utility.yul\":6903:6925   */\n  tag_40\n  jump\t// in\ntag_143:\n    /* \"#utility.yul\":6893:6901   */\n  dup4\n    /* \"#utility.yul\":6889:6926   */\n  add\n    /* \"#utility.yul\":6876:6887   */\n  dup3\n    /* \"#utility.yul\":6847:6927   */\n  tag_48\n  jump\t// in\ntag_142:\n    /* \"#utility.yul\":6506:6937   */\n  pop\n  pop\n    /* \"#utility.yul\":6491:6937   */\ntag_138:\n    /* \"#utility.yul\":6401:6944   */\n  pop\n  pop\n  pop\n  jump\t// out\n    /* \"#utility.yul\":6950:7067   */\ntag_50:\n    /* \"#utility.yul\":7004:7012   */\n  0x00\n    /* \"#utility.yul\":7054:7059   */\n  dup3\n    /* \"#utility.yul\":7048:7052   */\n  dup3\n    /* \"#utility.yul\":7044:7060   */\n  shr\n    /* \"#utility.yul\":7023:7060   */\n  swap1\n  pop\n    /* \"#utility.yul\":6950:7067   */\n  swap3\n  swap2\n  pop\n  pop\n  jump\t// out\n    /* \"#utility.yul\":7073:7242   */\ntag_51:\n    /* \"#utility.yul\":7117:7123   */\n  0x00\n    /* \"#utility.yul\":7150:7201   */\n  tag_146\n    /* \"#utility.yul\":7198:7199   */\n  0x00\n    /* \"#utility.yul\":7194:7200   */\n  not\n    /* \"#utility.yul\":7186:7191   */\n  dup5\n    /* \"#utility.yul\":7183:7184   */\n  0x08\n    /* \"#utility.yul\":7179:7192   */\n  mul\n    /* \"#utility.yul\":7150:7201   */\n  tag_50\n  jump\t// in\ntag_146:\n    /* \"#utility.yul\":7146:7202   */\n  not\n    /* \"#utility.yul\":7231:7235   */\n  dup1\n    /* \"#utility.yul\":7225:7229   */\n  dup4\n    /* \"#utility.yul\":7221:7236   */\n  and\n    /* \"#utility.yul\":7211:7236   */\n  swap2\n  pop\n    /* \"#utility.yul\":7124:7242   */\n  pop\n    /* \"#utility.yul\":7073:7242   */\n  swap3\n  swap2\n  pop\n  pop\n  jump\t// out\n    /* \"#utility.yul\":7247:7542   */\ntag_52:\n    /* \"#utility.yul\":7323:7327   */\n  0x00\n    /* \"#utility.yul\":7469:7498   */\n  tag_148\n    /* \"#utility.yul\":7494:7497   */\n  dup4\n    /* \"#utility.yul\":7488:7492   */\n  dup4\n    /* \"#utility.yul\":7469:7498   */\n  tag_51\n  jump\t// in\ntag_148:\n    /* \"#utility.yul\":7461:7498   */\n  swap2\n  pop\n    /* \"#utility.yul\":7531:7534   */\n  dup3\n    /* \"#utility.yul\":7528:7529   */\n  0x02\n    /* \"#utility.yul\":7524:7535   */\n  mul\n    /* \"#utility.yul\":7518:7522   */\n  dup3\n    /* \"#utility.yul\":7515:7536   */\n  or\n    /* \"#utility.yul\":7507:7536   */\n  swap1\n  pop\n    /* \"#utility.yul\":7247:7542   */\n  swap3\n  swap2\n  pop\n  pop\n  jump\t// out\n    /* \"#utility.yul\":7547:8942   */\ntag_11:\n    /* \"#utility.yul\":7664:7701   */\n  tag_150\n    /* \"#utility.yul\":7697:7700   */\n  dup3\n    /* \"#utility.yul\":7664:7701   */\n  tag_36\n  jump\t// in\ntag_150:\n    /* \"#utility.yul\":7766:7784   */\n  0xffffffffffffffff\n    /* \"#utility.yul\":7758:7764   */\n  dup2\n    /* \"#utility.yul\":7755:7785   */\n  gt\n    /* \"#utility.yul\":7752:7808   */\n  iszero\n  tag_151\n  jumpi\n    /* \"#utility.yul\":7788:7806   */\n  tag_152\n  tag_29\n  jump\t// in\ntag_152:\n    /* \"#utility.yul\":7752:7808   */\ntag_151:\n    /* \"#utility.yul\":7832:7870   */\n  tag_153\n    /* \"#utility.yul\":7864:7868   */\n  dup3\n    /* \"#utility.yul\":7858:7869   */\n  sload\n    /* \"#utility.yul\":7832:7870   */\n  tag_38\n  jump\t// in\ntag_153:\n    /* \"#utility.yul\":7917:7984   */\n  tag_154\n    /* \"#utility.yul\":7977:7983   */\n  dup3\n    /* \"#utility.yul\":7969:7975   */\n  dup3\n    /* \"#utility.yul\":7963:7967   */\n  dup6\n    /* \"#utility.yul\":7917:7984   */\n  tag_49\n  jump\t// in\ntag_154:\n    /* \"#utility.yul\":8011:8012   */\n  0x00\n    /* \"#utility.yul\":8035:8039   */\n  0x20\n    /* \"#utility.yul\":8022:8039   */\n  swap1\n  pop\n    /* \"#utility.yul\":8067:8069   */\n  0x1f\n    /* \"#utility.yul\":8059:8065   */\n  dup4\n    /* \"#utility.yul\":8056:8070   */\n  gt\n    /* \"#utility.yul\":8084:8085   */\n  0x01\n    /* \"#utility.yul\":8079:8697   */\n  dup2\n  eq\n  tag_156\n  jumpi\n    /* \"#utility.yul\":8741:8742   */\n  0x00\n    /* \"#utility.yul\":8758:8764   */\n  dup5\n    /* \"#utility.yul\":8755:8832   */\n  iszero\n  tag_157\n  jumpi\n    /* \"#utility.yul\":8807:8816   */\n  dup3\n    /* \"#utility.yul\":8802:8805   */\n  dup8\n    /* \"#utility.yul\":8798:8817   */\n  add\n    /* \"#utility.yul\":8792:8818   */\n  mload\n    /* \"#utility.yul\":8783:8818   */\n  swap1\n  pop\n    /* \"#utility.yul\":8755:8832   */\ntag_157:\n    /* \"#utility.yul\":8858:8925   */\n  tag_158\n    /* \"#utility.yul\":8918:8924   */\n  dup6\n    /* \"#utility.yul\":8911:8916   */\n  dup3\n    /* \"#utility.yul\":8858:8925   */\n  tag_52\n  jump\t// in\ntag_158:\n    /* \"#utility.yul\":8852:8856   */\n  dup7\n    /* \"#utility.yul\":8845:8926   */\n  sstore\n    /* \"#utility.yul\":8714:8936   */\n  pop\n    /* \"#utility.yul\":8049:8936   */\n  jump(tag_155)\n    /* \"#utility.yul\":8079:8697   */\ntag_156:\n    /* \"#utility.yul\":8131:8135   */\n  0x1f\n    /* \"#utility.yul\":8127:8136   */\n  not\n    /* \"#utility.yul\":8119:8125   */\n  dup5\n    /* \"#utility.yul\":8115:8137   */\n  and\n    /* \"#utility.yul\":8165:8202   */\n  tag_159\n    /* \"#utility.yul\":8197:8201   */\n  dup7\n    /* \"#utility.yul\":8165:8202   */\n  tag_39\n  jump\t// in\ntag_159:\n    /* \"#utility.yul\":8224:8225   */\n  0x00\n    /* \"#utility.yul\":8238:8446   */\ntag_160:\n    /* \"#utility.yul\":8252:8259   */\n  dup3\n    /* \"#utility.yul\":8249:8250   */\n  dup2\n    /* \"#utility.yul\":8246:8260   */\n  lt\n    /* \"#utility.yul\":8238:8446   */\n  iszero\n  tag_162\n  jumpi\n    /* \"#utility.yul\":8331:8340   */\n  dup5\n    /* \"#utility.yul\":8326:8329   */\n  dup10\n    /* \"#utility.yul\":8322:8341   */\n  add\n    /* \"#utility.yul\":8316:8342   */\n  mload\n    /* \"#utility.yul\":8308:8314   */\n  dup3\n    /* \"#utility.yul\":8301:8343   */\n  sstore\n    /* \"#utility.yul\":8382:8383   */\n  0x01\n    /* \"#utility.yul\":8374:8380   */\n  dup3\n    /* \"#utility.yul\":8370:8384   */\n  add\n    /* \"#utility.yul\":8360:8384   */\n  swap2\n  pop\n    /* \"#utility.yul\":8429:8431   */\n  0x20\n    /* \"#utility.yul\":8418:8427   */\n  dup6\n    /* \"#utility.yul\":8414:8432   */\n  add\n    /* \"#utility.yul\":8401:8432   */\n  swap5\n  pop\n    /* \"#utility.yul\":8275:8279   */\n  0x20\n    /* \"#utility.yul\":8272:8273   */\n  dup2\n    /* \"#utility.yul\":8268:8280   */\n  add\n    /* \"#utility.yul\":8263:8280   */\n  swap1\n  pop\n    /* \"#utility.yul\":8238:8446   */\n  jump(tag_160)\ntag_162:\n    /* \"#utility.yul\":8474:8480   */\n  dup7\n    /* \"#utility.yul\":8465:8472   */\n  dup4\n    /* \"#utility.yul\":8462:8481   */\n  lt\n    /* \"#utility.yul\":8459:8638   */\n  iszero\n  tag_163\n  jumpi\n    /* \"#utility.yul\":8532:8541   */\n  dup5\n    /* \"#utility.yul\":8527:8530   */\n  dup10\n    /* \"#utility.yul\":8523:8542   */\n  add\n    /* \"#utility.yul\":8517:8543   */\n  mload\n    /* \"#utility.yul\":8575:8623   */\n  tag_164\n    /* \"#utility.yul\":8617:8621   */\n  0x1f\n    /* \"#utility.yul\":8609:8615   */\n  dup10\n    /* \"#utility.yul\":8605:8622   */\n  and\n    /* \"#utility.yul\":8594:8603   */\n  dup3\n    /* \"#utility.yul\":8575:8623   */\n  tag_51\n  jump\t// in\ntag_164:\n    /* \"#utility.yul\":8567:8573   */\n  dup4\n    /* \"#utility.yul\":8560:8624   */\n  sstore\n    /* \"#utility.yul\":8482:8638   */\n  pop\n    /* \"#utility.yul\":8459:8638   */\ntag_163:\n    /* \"#utility.yul\":8684:8685   */\n  0x01\n    /* \"#utility.yul\":8680:8681   */\n  0x02\n    /* \"#utility.yul\":8672:8678   */\n  dup9\n    /* \"#utility.yul\":8668:8682   */\n  mul\n    /* \"#utility.yul\":8664:8686   */\n  add\n    /* \"#utility.yul\":8658:8662   */\n  dup9\n    /* \"#utility.yul\":8651:8687   */\n  sstore\n    /* \"#utility.yul\":8086:8697   */\n  pop\n  pop\n  pop\n    /* \"#utility.yul\":8049:8936   */\ntag_155:\n  pop\n    /* \"#utility.yul\":7639:8942   */\n  pop\n  pop\n  pop\n    /* \"#utility.yul\":7547:8942   */\n  pop\n  pop\n  jump\t// out\n    /* \"#utility.yul\":8948:9046   */\ntag_53:\n    /* \"#utility.yul\":8999:9005   */\n  0x00\n    /* \"#utility.yul\":9033:9038   */\n  dup2\n    /* \"#utility.yul\":9027:9039   */\n  mload\n    /* \"#utility.yul\":9017:9039   */\n  swap1\n  pop\n    /* \"#utility.yul\":8948:9046   */\n  swap2\n  swap1\n  pop\n  jump\t// out\n    /* \"#utility.yul\":9052:9192   */\ntag_54:\n    /* \"#utility.yul\":9100:9104   */\n  0x00\n    /* \"#utility.yul\":9123:9126   */\n  dup2\n    /* \"#utility.yul\":9115:9126   */\n  swap1\n  pop\n    /* \"#utility.yul\":9146:9149   */\n  dup2\n    /* \"#utility.yul\":9143:9144   */\n  0x00\n    /* \"#utility.yul\":9136:9150   */\n  mstore\n    /* \"#utility.yul\":9180:9184   */\n  0x20\n    /* \"#utility.yul\":9177:9178   */\n  0x00\n    /* \"#utility.yul\":9167:9185   */\n  keccak256\n    /* \"#utility.yul\":9159:9185   */\n  swap1\n  pop\n    /* \"#utility.yul\":9052:9192   */\n  swap2\n  swap1\n  pop\n  jump\t// out\n    /* \"#utility.yul\":9198:9739   */\ntag_55:\n    /* \"#utility.yul\":9298:9300   */\n  0x1f\n    /* \"#utility.yul\":9293:9296   */\n  dup3\n    /* \"#utility.yul\":9290:9301   */\n  gt\n    /* \"#utility.yul\":9287:9732   */\n  iszero\n  tag_168\n  jumpi\n    /* \"#utility.yul\":9332:9369   */\n  tag_169\n    /* \"#utility.yul\":9363:9368   */\n  dup2\n    /* \"#utility.yul\":9332:9369   */\n  tag_54\n  jump\t// in\ntag_169:\n    /* \"#utility.yul\":9415:9444   */\n  tag_170\n    /* \"#utility.yul\":9433:9443   */\n  dup5\n    /* \"#utility.yul\":9415:9444   */\n  tag_40\n  jump\t// in\ntag_170:\n    /* \"#utility.yul\":9405:9413   */\n  dup2\n    /* \"#utility.yul\":9401:9445   */\n  add\n    /* \"#utility.yul\":9598:9600   */\n  0x20\n    /* \"#utility.yul\":9586:9596   */\n  dup6\n    /* \"#utility.yul\":9583:9601   */\n  lt\n    /* \"#utility.yul\":9580:9629   */\n  iszero\n  tag_171\n  jumpi\n    /* \"#utility.yul\":9619:9627   */\n  dup2\n    /* \"#utility.yul\":9604:9627   */\n  swap1\n  pop\n    /* \"#utility.yul\":9580:9629   */\ntag_171:\n    /* \"#utility.yul\":9642:9722   */\n  tag_172\n    /* \"#utility.yul\":9698:9720   */\n  tag_173\n    /* \"#utility.yul\":9716:9719   */\n  dup6\n    /* \"#utility.yul\":9698:9720   */\n  tag_40\n  jump\t// in\ntag_173:\n    /* \"#utility.yul\":9688:9696   */\n  dup4\n    /* \"#utility.yul\":9684:9721   */\n  add\n    /* \"#utility.yul\":9671:9682   */\n  dup3\n    /* \"#utility.yul\":9642:9722   */\n  tag_48\n  jump\t// in\ntag_172:\n    /* \"#utility.yul\":9302:9732   */\n  pop\n  pop\n    /* \"#utility.yul\":9287:9732   */\ntag_168:\n    /* \"#utility.yul\":9198:9739   */\n  pop\n  pop\n  pop\n  jump\t// out\n    /* \"#utility.yul\":9745:11135   */\ntag_15:\n    /* \"#utility.yul\":9860:9896   */\n  tag_175\n    /* \"#utility.yul\":9892:9895   */\n  dup3\n    /* \"#utility.yul\":9860:9896   */\n  tag_53\n  jump\t// in\ntag_175:\n    /* \"#utility.yul\":9961:9979   */\n  0xffffffffffffffff\n    /* \"#utility.yul\":9953:9959   */\n  dup2\n    /* \"#utility.yul\":9950:9980   */\n  gt\n    /* \"#utility.yul\":9947:10003   */\n  iszero\n  tag_176\n  jumpi\n    /* \"#utility.yul\":9983:10001   */\n  tag_177\n  tag_29\n  jump\t// in\ntag_177:\n    /* \"#utility.yul\":9947:10003   */\ntag_176:\n    /* \"#utility.yul\":10027:10065   */\n  tag_178\n    /* \"#utility.yul\":10059:10063   */\n  dup3\n    /* \"#utility.yul\":10053:10064   */\n  sload\n    /* \"#utility.yul\":10027:10065   */\n  tag_38\n  jump\t// in\ntag_178:\n    /* \"#utility.yul\":10112:10178   */\n  tag_179\n    /* \"#utility.yul\":10171:10177   */\n  dup3\n    /* \"#utility.yul\":10163:10169   */\n  dup3\n    /* \"#utility.yul\":10157:10161   */\n  dup6\n    /* \"#utility.yul\":10112:10178   */\n  tag_55\n  jump\t// in\ntag_179:\n    /* \"#utility.yul\":10205:10206   */\n  0x00\n    /* \"#utility.yul\":10229:10233   */\n  0x20\n    /* \"#utility.yul\":10216:10233   */\n  swap1\n  pop\n    /* \"#utility.yul\":10261:10263   */\n  0x1f\n    /* \"#utility.yul\":10253:10259   */\n  dup4\n    /* \"#utility.yul\":10250:10264   */\n  gt\n    /* \"#utility.yul\":10278:10279   */\n  0x01\n    /* \"#utility.yul\":10273:10890   */\n  dup2\n  eq\n  tag_181\n  jumpi\n    /* \"#utility.yul\":10934:10935   */\n  0x00\n    /* \"#utility.yul\":10951:10957   */\n  dup5\n    /* \"#utility.yul\":10948:11025   */\n  iszero\n  tag_182\n  jumpi\n    /* \"#utility.yul\":11000:11009   */\n  dup3\n    /* \"#utility.yul\":10995:10998   */\n  dup8\n    /* \"#utility.yul\":10991:11010   */\n  add\n    /* \"#utility.yul\":10985:11011   */\n  mload\n    /* \"#utility.yul\":10976:11011   */\n  swap1\n  pop\n    /* \"#utility.yul\":10948:11025   */\ntag_182:\n    /* \"#utility.yul\":11051:11118   */\n  tag_183\n    /* \"#utility.yul\":11111:11117   */\n  dup6\n    /* \"#utility.yul\":11104:11109   */\n  dup3\n    /* \"#utility.yul\":11051:11118   */\n  tag_52\n  jump\t// in\ntag_183:\n    /* \"#utility.yul\":11045:11049   */\n  dup7\n    /* \"#utility.yul\":11038:11119   */\n  sstore\n    /* \"#utility.yul\":10907:11129   */\n  pop\n    /* \"#utility.yul\":10243:11129   */\n  jump(tag_180)\n    /* \"#utility.yul\":10273:10890   */\ntag_181:\n    /* \"#utility.yul\":10325:10329   */\n  0x1f\n    /* \"#utility.yul\":10321:10330   */\n  not\n    /* \"#utility.yul\":10313:10319   */\n  dup5\n    /* \"#utility.yul\":10309:10331   */\n  and\n    /* \"#utility.yul\":10359:10395   */\n  tag_184\n    /* \"#utility.yul\":10390:10394   */\n  dup7\n    /* \"#utility.yul\":10359:10395   */\n  tag_54\n  jump\t// in\ntag_184:\n    /* \"#utility.yul\":10417:10418   */\n  0x00\n    /* \"#utility.yul\":10431:10639   */\ntag_185:\n    /* \"#utility.yul\":10445:10452   */\n  dup3\n    /* \"#utility.yul\":10442:10443   */\n  dup2\n    /* \"#utility.yul\":10439:10453   */\n  lt\n    /* \"#utility.yul\":10431:10639   */\n  iszero\n  tag_187\n  jumpi\n    /* \"#utility.yul\":10524:10533   */\n  dup5\n    /* \"#utility.yul\":10519:10522   */\n  dup10\n    /* \"#utility.yul\":10515:10534   */\n  add\n    /* \"#utility.yul\":10509:10535   */\n  mload\n    /* \"#utility.yul\":10501:10507   */\n  dup3\n    /* \"#utility.yul\":10494:10536   */\n  sstore\n    /* \"#utility.yul\":10575:10576   */\n  0x01\n    /* \"#utility.yul\":10567:10573   */\n  dup3\n    /* \"#utility.yul\":10563:10577   */\n  add\n    /* \"#utility.yul\":10553:10577   */\n  swap2\n  pop\n    /* \"#utility.yul\":10622:10624   */\n  0x20\n    /* \"#utility.yul\":10611:10620   */\n  dup6\n    /* \"#utility.yul\":10607:10625   */\n  add\n    /* \"#utility.yul\":10594:10625   */\n  swap5\n  pop\n    /* \"#utility.yul\":10468:10472   */\n  0x20\n    /* \"#utility.yul\":10465:10466   */\n  dup2\n    /* \"#utility.yul\":10461:10473   */\n  add\n    /* \"#utility.yul\":10456:10473   */\n  swap1\n  pop\n    /* \"#utility.yul\":10431:10639   */\n  jump(tag_185)\ntag_187:\n    /* \"#utility.yul\":10667:10673   */\n  dup7\n    /* \"#utility.yul\":10658:10665   */\n  dup4\n    /* \"#utility.yul\":10655:10674   */\n  lt\n    /* \"#utility.yul\":10652:10831   */\n  iszero\n  tag_188\n  jumpi\n    /* \"#utility.yul\":10725:10734   */\n  dup5\n    /* \"#utility.yul\":10720:10723   */\n  dup10\n    /* \"#utility.yul\":10716:10735   */\n  add\n    /* \"#utility.yul\":10710:10736   */\n  mload\n    /* \"#utility.yul\":10768:10816   */\n  tag_189\n    /* \"#utility.yul\":10810:10814   */\n  0x1f\n    /* \"#utility.yul\":10802:10808   */\n  dup10\n    /* \"#utility.yul\":10798:10815   */\n  and\n    /* \"#utility.yul\":10787:10796   */\n  dup3\n    /* \"#utility.yul\":10768:10816   */\n  tag_51\n  jump\t// in\ntag_189:\n    /* \"#utility.yul\":10760:10766   */\n  dup4\n    /* \"#utility.yul\":10753:10817   */\n  sstore\n    /* \"#utility.yul\":10675:10831   */\n  pop\n    /* \"#utility.yul\":10652:10831   */\ntag_188:\n    /* \"#utility.yul\":10877:10878   */\n  0x01\n    /* \"#utility.yul\":10873:10874   */\n  0x02\n    /* \"#utility.yul\":10865:10871   */\n  dup9\n    /* \"#utility.yul\":10861:10875   */\n  mul\n    /* \"#utility.yul\":10857:10879   */\n  add\n    /* \"#utility.yul\":10851:10855   */\n  dup9\n    /* \"#utility.yul\":10844:10880   */\n  sstore\n    /* \"#utility.yul\":10280:10890   */\n  pop\n  pop\n  pop\n    /* \"#utility.yul\":10243:11129   */\ntag_180:\n  pop\n    /* \"#utility.yul\":9835:11135   */\n  pop\n  pop\n  pop\n    /* \"#utility.yul\":9745:11135   */\n  pop\n  pop\n  jump\t// out\n    /* \"study/chapter04/newContract.sol\":371:1028  contract callContract{... */\ntag_17:\n  dataSize(sub_0)\n  dup1\n  dataOffset(sub_0)\n  0x00\n  codecopy\n  0x00\n  return\nstop\n\nsub_0: assembly {\n        /* \"study/chapter04/newContract.sol\":371:1028  contract callContract{... */\n      mstore(0x40, 0x80)\n      callvalue\n      dup1\n      iszero\n      tag_1\n      jumpi\n      0x00\n      dup1\n      revert\n    tag_1:\n      pop\n      jumpi(tag_2, lt(calldatasize, 0x04))\n      shr(0xe0, calldataload(0x00))\n      dup1\n      0x7c000138\n      eq\n      tag_3\n      jumpi\n      dup1\n      0xc15bae84\n      eq\n      tag_4\n      jumpi\n      dup1\n      0xd01bb4d5\n      eq\n      tag_5\n      jumpi\n      dup1\n      0xd118d187\n      eq\n      tag_6\n      jumpi\n      dup1\n      0xd46300fd\n      eq\n      tag_7\n      jumpi\n      dup1\n      0xee919d50\n      eq\n      tag_8\n      jumpi\n    tag_2:\n      0x00\n      dup1\n      revert\n        /* \"study/chapter04/newContract.sol\":976:1025  bytes public by = type(testContract).creationCode */\n    tag_3:\n      tag_9\n      tag_10\n      jump\t// in\n    tag_9:\n      mload(0x40)\n      tag_11\n      swap2\n      swap1\n      tag_12\n      jump\t// in\n    tag_11:\n      mload(0x40)\n      dup1\n      swap2\n      sub\n      swap1\n      return\n        /* \"study/chapter04/newContract.sol\":623:662  string public str = t.getContractName() */\n    tag_4:\n      tag_13\n      tag_14\n      jump\t// in\n    tag_13:\n      mload(0x40)\n      tag_15\n      swap2\n      swap1\n      tag_16\n      jump\t// in\n    tag_15:\n      mload(0x40)\n      dup1\n      swap2\n      sub\n      swap1\n      return\n        /* \"study/chapter04/newContract.sol\":485:525  address public contractaddr = address(t) */\n    tag_5:\n      tag_17\n      tag_18\n      jump\t// in\n    tag_17:\n      mload(0x40)\n      tag_19\n      swap2\n      swap1\n      tag_20\n      jump\t// in\n    tag_19:\n      mload(0x40)\n      dup1\n      swap2\n      sub\n      swap1\n      return\n        /* \"study/chapter04/newContract.sol\":926:970  string public str1 = type(testContract).name */\n    tag_6:\n      tag_21\n      tag_22\n      jump\t// in\n    tag_21:\n      mload(0x40)\n      tag_23\n      swap2\n      swap1\n      tag_16\n      jump\t// in\n    tag_23:\n      mload(0x40)\n      dup1\n      swap2\n      sub\n      swap1\n      return\n        /* \"study/chapter04/newContract.sol\":731:856  function getA()external view returns(uint){... */\n    tag_7:\n      tag_24\n      tag_25\n      jump\t// in\n    tag_24:\n      mload(0x40)\n      tag_26\n      swap2\n      swap1\n      tag_27\n      jump\t// in\n    tag_26:\n      mload(0x40)\n      dup1\n      swap2\n      sub\n      swap1\n      return\n        /* \"study/chapter04/newContract.sol\":668:726  function setA(uint _a)external {... */\n    tag_8:\n      tag_28\n      0x04\n      dup1\n      calldatasize\n      sub\n      dup2\n      add\n      swap1\n      tag_29\n      swap2\n      swap1\n      tag_30\n      jump\t// in\n    tag_29:\n      tag_31\n      jump\t// in\n    tag_28:\n      stop\n        /* \"study/chapter04/newContract.sol\":976:1025  bytes public by = type(testContract).creationCode */\n    tag_10:\n      0x04\n      dup1\n      sload\n      tag_32\n      swap1\n      tag_33\n      jump\t// in\n    tag_32:\n      dup1\n      0x1f\n      add\n      0x20\n      dup1\n      swap2\n      div\n      mul\n      0x20\n      add\n      mload(0x40)\n      swap1\n      dup2\n      add\n      0x40\n      mstore\n      dup1\n      swap3\n      swap2\n      swap1\n      dup2\n      dup2\n      mstore\n      0x20\n      add\n      dup3\n      dup1\n      sload\n      tag_34\n      swap1\n      tag_33\n      jump\t// in\n    tag_34:\n      dup1\n      iszero\n      tag_35\n      jumpi\n      dup1\n      0x1f\n      lt\n      tag_36\n      jumpi\n      0x0100\n      dup1\n      dup4\n      sload\n      div\n      mul\n      dup4\n      mstore\n      swap2\n      0x20\n      add\n      swap2\n      jump(tag_35)\n    tag_36:\n      dup3\n      add\n      swap2\n      swap1\n      0x00\n      mstore\n      keccak256(0x00, 0x20)\n      swap1\n    tag_37:\n      dup2\n      sload\n      dup2\n      mstore\n      swap1\n      0x01\n      add\n      swap1\n      0x20\n      add\n      dup1\n      dup4\n      gt\n      tag_37\n      jumpi\n      dup3\n      swap1\n      sub\n      0x1f\n      and\n      dup3\n      add\n      swap2\n    tag_35:\n      pop\n      pop\n      pop\n      pop\n      pop\n      dup2\n      jump\t// out\n        /* \"study/chapter04/newContract.sol\":623:662  string public str = t.getContractName() */\n    tag_14:\n      0x02\n      dup1\n      sload\n      tag_38\n      swap1\n      tag_33\n      jump\t// in\n    tag_38:\n      dup1\n      0x1f\n      add\n      0x20\n      dup1\n      swap2\n      div\n      mul\n      0x20\n      add\n      mload(0x40)\n      swap1\n      dup2\n      add\n      0x40\n      mstore\n      dup1\n      swap3\n      swap2\n      swap1\n      dup2\n      dup2\n      mstore\n      0x20\n      add\n      dup3\n      dup1\n      sload\n      tag_39\n      swap1\n      tag_33\n      jump\t// in\n    tag_39:\n      dup1\n      iszero\n      tag_40\n      jumpi\n      dup1\n      0x1f\n      lt\n      tag_41\n      jumpi\n      0x0100\n      dup1\n      dup4\n      sload\n      div\n      mul\n      dup4\n      mstore\n      swap2\n      0x20\n      add\n      swap2\n      jump(tag_40)\n    tag_41:\n      dup3\n      add\n      swap2\n      swap1\n      0x00\n      mstore\n      keccak256(0x00, 0x20)\n      swap1\n    tag_42:\n      dup2\n      sload\n      dup2\n      mstore\n      swap1\n      0x01\n      add\n      swap1\n      0x20\n      add\n      dup1\n      dup4\n      gt\n      tag_42\n      jumpi\n      dup3\n      swap1\n      sub\n      0x1f\n      and\n      dup3\n      add\n      swap2\n    tag_40:\n      pop\n      pop\n      pop\n      pop\n      pop\n      dup2\n      jump\t// out\n        /* \"study/chapter04/newContract.sol\":485:525  address public contractaddr = address(t) */\n    tag_18:\n      0x01\n      0x00\n      swap1\n      sload\n      swap1\n      0x0100\n      exp\n      swap1\n      div\n      0xffffffffffffffffffffffffffffffffffffffff\n      and\n      dup2\n      jump\t// out\n        /* \"study/chapter04/newContract.sol\":926:970  string public str1 = type(testContract).name */\n    tag_22:\n      0x03\n      dup1\n      sload\n      tag_43\n      swap1\n      tag_33\n      jump\t// in\n    tag_43:\n      dup1\n      0x1f\n      add\n      0x20\n      dup1\n      swap2\n      div\n      mul\n      0x20\n      add\n      mload(0x40)\n      swap1\n      dup2\n      add\n      0x40\n      mstore\n      dup1\n      swap3\n      swap2\n      swap1\n      dup2\n      dup2\n      mstore\n      0x20\n      add\n      dup3\n      dup1\n      sload\n      tag_44\n      swap1\n      tag_33\n      jump\t// in\n    tag_44:\n      dup1\n      iszero\n      tag_45\n      jumpi\n      dup1\n      0x1f\n      lt\n      tag_46\n      jumpi\n      0x0100\n      dup1\n      dup4\n      sload\n      div\n      mul\n      dup4\n      mstore\n      swap2\n      0x20\n      add\n      swap2\n      jump(tag_45)\n    tag_46:\n      dup3\n      add\n      swap2\n      swap1\n      0x00\n      mstore\n      keccak256(0x00, 0x20)\n      swap1\n    tag_47:\n      dup2\n      sload\n      dup2\n      mstore\n      swap1\n      0x01\n      add\n      swap1\n      0x20\n      add\n      dup1\n      dup4\n      gt\n      tag_47\n      jumpi\n      dup3\n      swap1\n      sub\n      0x1f\n      and\n      dup3\n      add\n      swap2\n    tag_45:\n      pop\n      pop\n      pop\n      pop\n      pop\n      dup2\n      jump\t// out\n        /* \"study/chapter04/newContract.sol\":731:856  function getA()external view returns(uint){... */\n    tag_25:\n        /* \"study/chapter04/newContract.sol\":768:772  uint */\n      0x00\n        /* \"study/chapter04/newContract.sol\":790:791  t */\n      dup1\n      0x00\n      swap1\n      sload\n      swap1\n      0x0100\n      exp\n      swap1\n      div\n      0xffffffffffffffffffffffffffffffffffffffff\n      and\n        /* \"study/chapter04/newContract.sol\":790:793  t.a */\n      0xffffffffffffffffffffffffffffffffffffffff\n      and\n      0x0dbe671f\n        /* \"study/chapter04/newContract.sol\":790:795  t.a() */\n      mload(0x40)\n      dup2\n      0xffffffff\n      and\n      0xe0\n      shl\n      dup2\n      mstore\n      0x04\n      add\n      0x20\n      mload(0x40)\n      dup1\n      dup4\n      sub\n      dup2\n      dup7\n      gas\n      staticcall\n      iszero\n      dup1\n      iszero\n      tag_50\n      jumpi\n      returndatasize\n      0x00\n      dup1\n      returndatacopy\n      revert(0x00, returndatasize)\n    tag_50:\n      pop\n      pop\n      pop\n      pop\n      mload(0x40)\n      returndatasize\n      not(0x1f)\n      0x1f\n      dup3\n      add\n      and\n      dup3\n      add\n      dup1\n      0x40\n      mstore\n      pop\n      dup2\n      add\n      swap1\n      tag_51\n      swap2\n      swap1\n      tag_52\n      jump\t// in\n    tag_51:\n        /* \"study/chapter04/newContract.sol\":783:795  return t.a() */\n      swap1\n      pop\n        /* \"study/chapter04/newContract.sol\":731:856  function getA()external view returns(uint){... */\n      swap1\n      jump\t// out\n        /* \"study/chapter04/newContract.sol\":668:726  function setA(uint _a)external {... */\n    tag_31:\n        /* \"study/chapter04/newContract.sol\":709:710  t */\n      0x00\n      dup1\n      sload\n      swap1\n      0x0100\n      exp\n      swap1\n      div\n      0xffffffffffffffffffffffffffffffffffffffff\n      and\n        /* \"study/chapter04/newContract.sol\":709:715  t.setA */\n      0xffffffffffffffffffffffffffffffffffffffff\n      and\n      0xee919d50\n        /* \"study/chapter04/newContract.sol\":716:718  _a */\n      dup3\n        /* \"study/chapter04/newContract.sol\":709:719  t.setA(_a) */\n      mload(0x40)\n      dup3\n      0xffffffff\n      and\n      0xe0\n      shl\n      dup2\n      mstore\n      0x04\n      add\n      tag_54\n      swap2\n      swap1\n      tag_27\n      jump\t// in\n    tag_54:\n      0x00\n      mload(0x40)\n      dup1\n      dup4\n      sub\n      dup2\n      0x00\n      dup8\n      dup1\n      extcodesize\n      iszero\n      dup1\n      iszero\n      tag_55\n      jumpi\n      0x00\n      dup1\n      revert\n    tag_55:\n      pop\n      gas\n      call\n      iszero\n      dup1\n      iszero\n      tag_57\n      jumpi\n      returndatasize\n      0x00\n      dup1\n      returndatacopy\n      revert(0x00, returndatasize)\n    tag_57:\n      pop\n      pop\n      pop\n      pop\n        /* \"study/chapter04/newContract.sol\":668:726  function setA(uint _a)external {... */\n      pop\n      jump\t// out\n        /* \"#utility.yul\":7:105   */\n    tag_58:\n        /* \"#utility.yul\":58:64   */\n      0x00\n        /* \"#utility.yul\":92:97   */\n      dup2\n        /* \"#utility.yul\":86:98   */\n      mload\n        /* \"#utility.yul\":76:98   */\n      swap1\n      pop\n        /* \"#utility.yul\":7:105   */\n      swap2\n      swap1\n      pop\n      jump\t// out\n        /* \"#utility.yul\":111:279   */\n    tag_59:\n        /* \"#utility.yul\":194:205   */\n      0x00\n        /* \"#utility.yul\":228:234   */\n      dup3\n        /* \"#utility.yul\":223:226   */\n      dup3\n        /* \"#utility.yul\":216:235   */\n      mstore\n        /* \"#utility.yul\":268:272   */\n      0x20\n        /* \"#utility.yul\":263:266   */\n      dup3\n        /* \"#utility.yul\":259:273   */\n      add\n        /* \"#utility.yul\":244:273   */\n      swap1\n      pop\n        /* \"#utility.yul\":111:279   */\n      swap3\n      swap2\n      pop\n      pop\n      jump\t// out\n        /* \"#utility.yul\":285:592   */\n    tag_60:\n        /* \"#utility.yul\":353:354   */\n      0x00\n        /* \"#utility.yul\":363:476   */\n    tag_82:\n        /* \"#utility.yul\":377:383   */\n      dup4\n        /* \"#utility.yul\":374:375   */\n      dup2\n        /* \"#utility.yul\":371:384   */\n      lt\n        /* \"#utility.yul\":363:476   */\n      iszero\n      tag_84\n      jumpi\n        /* \"#utility.yul\":462:463   */\n      dup1\n        /* \"#utility.yul\":457:460   */\n      dup3\n        /* \"#utility.yul\":453:464   */\n      add\n        /* \"#utility.yul\":447:465   */\n      mload\n        /* \"#utility.yul\":443:444   */\n      dup2\n        /* \"#utility.yul\":438:441   */\n      dup5\n        /* \"#utility.yul\":434:445   */\n      add\n        /* \"#utility.yul\":427:466   */\n      mstore\n        /* \"#utility.yul\":399:401   */\n      0x20\n        /* \"#utility.yul\":396:397   */\n      dup2\n        /* \"#utility.yul\":392:402   */\n      add\n        /* \"#utility.yul\":387:402   */\n      swap1\n      pop\n        /* \"#utility.yul\":363:476   */\n      jump(tag_82)\n    tag_84:\n        /* \"#utility.yul\":494:500   */\n      dup4\n        /* \"#utility.yul\":491:492   */\n      dup2\n        /* \"#utility.yul\":488:501   */\n      gt\n        /* \"#utility.yul\":485:586   */\n      iszero\n      tag_85\n      jumpi\n        /* \"#utility.yul\":574:575   */\n      0x00\n        /* \"#utility.yul\":565:571   */\n      dup5\n        /* \"#utility.yul\":560:563   */\n      dup5\n        /* \"#utility.yul\":556:572   */\n      add\n        /* \"#utility.yul\":549:576   */\n      mstore\n        /* \"#utility.yul\":485:586   */\n    tag_85:\n        /* \"#utility.yul\":334:592   */\n      pop\n        /* \"#utility.yul\":285:592   */\n      pop\n      pop\n      pop\n      jump\t// out\n        /* \"#utility.yul\":598:700   */\n    tag_61:\n        /* \"#utility.yul\":639:645   */\n      0x00\n        /* \"#utility.yul\":690:692   */\n      0x1f\n        /* \"#utility.yul\":686:693   */\n      not\n        /* \"#utility.yul\":681:683   */\n      0x1f\n        /* \"#utility.yul\":674:679   */\n      dup4\n        /* \"#utility.yul\":670:684   */\n      add\n        /* \"#utility.yul\":666:694   */\n      and\n        /* \"#utility.yul\":656:694   */\n      swap1\n      pop\n        /* \"#utility.yul\":598:700   */\n      swap2\n      swap1\n      pop\n      jump\t// out\n        /* \"#utility.yul\":706:1066   */\n    tag_62:\n        /* \"#utility.yul\":792:795   */\n      0x00\n        /* \"#utility.yul\":820:858   */\n      tag_88\n        /* \"#utility.yul\":852:857   */\n      dup3\n        /* \"#utility.yul\":820:858   */\n      tag_58\n      jump\t// in\n    tag_88:\n        /* \"#utility.yul\":874:944   */\n      tag_89\n        /* \"#utility.yul\":937:943   */\n      dup2\n        /* \"#utility.yul\":932:935   */\n      dup6\n        /* \"#utility.yul\":874:944   */\n      tag_59\n      jump\t// in\n    tag_89:\n        /* \"#utility.yul\":867:944   */\n      swap4\n      pop\n        /* \"#utility.yul\":953:1005   */\n      tag_90\n        /* \"#utility.yul\":998:1004   */\n      dup2\n        /* \"#utility.yul\":993:996   */\n      dup6\n        /* \"#utility.yul\":986:990   */\n      0x20\n        /* \"#utility.yul\":979:984   */\n      dup7\n        /* \"#utility.yul\":975:991   */\n      add\n        /* \"#utility.yul\":953:1005   */\n      tag_60\n      jump\t// in\n    tag_90:\n        /* \"#utility.yul\":1030:1059   */\n      tag_91\n        /* \"#utility.yul\":1052:1058   */\n      dup2\n        /* \"#utility.yul\":1030:1059   */\n      tag_61\n      jump\t// in\n    tag_91:\n        /* \"#utility.yul\":1025:1028   */\n      dup5\n        /* \"#utility.yul\":1021:1060   */\n      add\n        /* \"#utility.yul\":1014:1060   */\n      swap2\n      pop\n        /* \"#utility.yul\":796:1066   */\n      pop\n        /* \"#utility.yul\":706:1066   */\n      swap3\n      swap2\n      pop\n      pop\n      jump\t// out\n        /* \"#utility.yul\":1072:1381   */\n    tag_12:\n        /* \"#utility.yul\":1183:1187   */\n      0x00\n        /* \"#utility.yul\":1221:1223   */\n      0x20\n        /* \"#utility.yul\":1210:1219   */\n      dup3\n        /* \"#utility.yul\":1206:1224   */\n      add\n        /* \"#utility.yul\":1198:1224   */\n      swap1\n      pop\n        /* \"#utility.yul\":1270:1279   */\n      dup2\n        /* \"#utility.yul\":1264:1268   */\n      dup2\n        /* \"#utility.yul\":1260:1280   */\n      sub\n        /* \"#utility.yul\":1256:1257   */\n      0x00\n        /* \"#utility.yul\":1245:1254   */\n      dup4\n        /* \"#utility.yul\":1241:1258   */\n      add\n        /* \"#utility.yul\":1234:1281   */\n      mstore\n        /* \"#utility.yul\":1298:1374   */\n      tag_93\n        /* \"#utility.yul\":1369:1373   */\n      dup2\n        /* \"#utility.yul\":1360:1366   */\n      dup5\n        /* \"#utility.yul\":1298:1374   */\n      tag_62\n      jump\t// in\n    tag_93:\n        /* \"#utility.yul\":1290:1374   */\n      swap1\n      pop\n        /* \"#utility.yul\":1072:1381   */\n      swap3\n      swap2\n      pop\n      pop\n      jump\t// out\n        /* \"#utility.yul\":1387:1486   */\n    tag_63:\n        /* \"#utility.yul\":1439:1445   */\n      0x00\n        /* \"#utility.yul\":1473:1478   */\n      dup2\n        /* \"#utility.yul\":1467:1479   */\n      mload\n        /* \"#utility.yul\":1457:1479   */\n      swap1\n      pop\n        /* \"#utility.yul\":1387:1486   */\n      swap2\n      swap1\n      pop\n      jump\t// out\n        /* \"#utility.yul\":1492:1661   */\n    tag_64:\n        /* \"#utility.yul\":1576:1587   */\n      0x00\n        /* \"#utility.yul\":1610:1616   */\n      dup3\n        /* \"#utility.yul\":1605:1608   */\n      dup3\n        /* \"#utility.yul\":1598:1617   */\n      mstore\n        /* \"#utility.yul\":1650:1654   */\n      0x20\n        /* \"#utility.yul\":1645:1648   */\n      dup3\n        /* \"#utility.yul\":1641:1655   */\n      add\n        /* \"#utility.yul\":1626:1655   */\n      swap1\n      pop\n        /* \"#utility.yul\":1492:1661   */\n      swap3\n      swap2\n      pop\n      pop\n      jump\t// out\n        /* \"#utility.yul\":1667:2031   */\n    tag_65:\n        /* \"#utility.yul\":1755:1758   */\n      0x00\n        /* \"#utility.yul\":1783:1822   */\n      tag_97\n        /* \"#utility.yul\":1816:1821   */\n      dup3\n        /* \"#utility.yul\":1783:1822   */\n      tag_63\n      jump\t// in\n    tag_97:\n        /* \"#utility.yul\":1838:1909   */\n      tag_98\n        /* \"#utility.yul\":1902:1908   */\n      dup2\n        /* \"#utility.yul\":1897:1900   */\n      dup6\n        /* \"#utility.yul\":1838:1909   */\n      tag_64\n      jump\t// in\n    tag_98:\n        /* \"#utility.yul\":1831:1909   */\n      swap4\n      pop\n        /* \"#utility.yul\":1918:1970   */\n      tag_99\n        /* \"#utility.yul\":1963:1969   */\n      dup2\n        /* \"#utility.yul\":1958:1961   */\n      dup6\n        /* \"#utility.yul\":1951:1955   */\n      0x20\n        /* \"#utility.yul\":1944:1949   */\n      dup7\n        /* \"#utility.yul\":1940:1956   */\n      add\n        /* \"#utility.yul\":1918:1970   */\n      tag_60\n      jump\t// in\n    tag_99:\n        /* \"#utility.yul\":1995:2024   */\n      tag_100\n        /* \"#utility.yul\":2017:2023   */\n      dup2\n        /* \"#utility.yul\":1995:2024   */\n      tag_61\n      jump\t// in\n    tag_100:\n        /* \"#utility.yul\":1990:1993   */\n      dup5\n        /* \"#utility.yul\":1986:2025   */\n      add\n        /* \"#utility.yul\":1979:2025   */\n      swap2\n      pop\n        /* \"#utility.yul\":1759:2031   */\n      pop\n        /* \"#utility.yul\":1667:2031   */\n      swap3\n      swap2\n      pop\n      pop\n      jump\t// out\n        /* \"#utility.yul\":2037:2350   */\n    tag_16:\n        /* \"#utility.yul\":2150:2154   */\n      0x00\n        /* \"#utility.yul\":2188:2190   */\n      0x20\n        /* \"#utility.yul\":2177:2186   */\n      dup3\n        /* \"#utility.yul\":2173:2191   */\n      add\n        /* \"#utility.yul\":2165:2191   */\n      swap1\n      pop\n        /* \"#utility.yul\":2237:2246   */\n      dup2\n        /* \"#utility.yul\":2231:2235   */\n      dup2\n        /* \"#utility.yul\":2227:2247   */\n      sub\n        /* \"#utility.yul\":2223:2224   */\n      0x00\n        /* \"#utility.yul\":2212:2221   */\n      dup4\n        /* \"#utility.yul\":2208:2225   */\n      add\n        /* \"#utility.yul\":2201:2248   */\n      mstore\n        /* \"#utility.yul\":2265:2343   */\n      tag_102\n        /* \"#utility.yul\":2338:2342   */\n      dup2\n        /* \"#utility.yul\":2329:2335   */\n      dup5\n        /* \"#utility.yul\":2265:2343   */\n      tag_65\n      jump\t// in\n    tag_102:\n        /* \"#utility.yul\":2257:2343   */\n      swap1\n      pop\n        /* \"#utility.yul\":2037:2350   */\n      swap3\n      swap2\n      pop\n      pop\n      jump\t// out\n        /* \"#utility.yul\":2356:2482   */\n    tag_66:\n        /* \"#utility.yul\":2393:2400   */\n      0x00\n        /* \"#utility.yul\":2433:2475   */\n      0xffffffffffffffffffffffffffffffffffffffff\n        /* \"#utility.yul\":2426:2431   */\n      dup3\n        /* \"#utility.yul\":2422:2476   */\n      and\n        /* \"#utility.yul\":2411:2476   */\n      swap1\n      pop\n        /* \"#utility.yul\":2356:2482   */\n      swap2\n      swap1\n      pop\n      jump\t// out\n        /* \"#utility.yul\":2488:2584   */\n    tag_67:\n        /* \"#utility.yul\":2525:2532   */\n      0x00\n        /* \"#utility.yul\":2554:2578   */\n      tag_105\n        /* \"#utility.yul\":2572:2577   */\n      dup3\n        /* \"#utility.yul\":2554:2578   */\n      tag_66\n      jump\t// in\n    tag_105:\n        /* \"#utility.yul\":2543:2578   */\n      swap1\n      pop\n        /* \"#utility.yul\":2488:2584   */\n      swap2\n      swap1\n      pop\n      jump\t// out\n        /* \"#utility.yul\":2590:2708   */\n    tag_68:\n        /* \"#utility.yul\":2677:2701   */\n      tag_107\n        /* \"#utility.yul\":2695:2700   */\n      dup2\n        /* \"#utility.yul\":2677:2701   */\n      tag_67\n      jump\t// in\n    tag_107:\n        /* \"#utility.yul\":2672:2675   */\n      dup3\n        /* \"#utility.yul\":2665:2702   */\n      mstore\n        /* \"#utility.yul\":2590:2708   */\n      pop\n      pop\n      jump\t// out\n        /* \"#utility.yul\":2714:2936   */\n    tag_20:\n        /* \"#utility.yul\":2807:2811   */\n      0x00\n        /* \"#utility.yul\":2845:2847   */\n      0x20\n        /* \"#utility.yul\":2834:2843   */\n      dup3\n        /* \"#utility.yul\":2830:2848   */\n      add\n        /* \"#utility.yul\":2822:2848   */\n      swap1\n      pop\n        /* \"#utility.yul\":2858:2929   */\n      tag_109\n        /* \"#utility.yul\":2926:2927   */\n      0x00\n        /* \"#utility.yul\":2915:2924   */\n      dup4\n        /* \"#utility.yul\":2911:2928   */\n      add\n        /* \"#utility.yul\":2902:2908   */\n      dup5\n        /* \"#utility.yul\":2858:2929   */\n      tag_68\n      jump\t// in\n    tag_109:\n        /* \"#utility.yul\":2714:2936   */\n      swap3\n      swap2\n      pop\n      pop\n      jump\t// out\n        /* \"#utility.yul\":2942:3019   */\n    tag_69:\n        /* \"#utility.yul\":2979:2986   */\n      0x00\n        /* \"#utility.yul\":3008:3013   */\n      dup2\n        /* \"#utility.yul\":2997:3013   */\n      swap1\n      pop\n        /* \"#utility.yul\":2942:3019   */\n      swap2\n      swap1\n      pop\n      jump\t// out\n        /* \"#utility.yul\":3025:3143   */\n    tag_70:\n        /* \"#utility.yul\":3112:3136   */\n      tag_112\n        /* \"#utility.yul\":3130:3135   */\n      dup2\n        /* \"#utility.yul\":3112:3136   */\n      tag_69\n      jump\t// in\n    tag_112:\n        /* \"#utility.yul\":3107:3110   */\n      dup3\n        /* \"#utility.yul\":3100:3137   */\n      mstore\n        /* \"#utility.yul\":3025:3143   */\n      pop\n      pop\n      jump\t// out\n        /* \"#utility.yul\":3149:3371   */\n    tag_27:\n        /* \"#utility.yul\":3242:3246   */\n      0x00\n        /* \"#utility.yul\":3280:3282   */\n      0x20\n        /* \"#utility.yul\":3269:3278   */\n      dup3\n        /* \"#utility.yul\":3265:3283   */\n      add\n        /* \"#utility.yul\":3257:3283   */\n      swap1\n      pop\n        /* \"#utility.yul\":3293:3364   */\n      tag_114\n        /* \"#utility.yul\":3361:3362   */\n      0x00\n        /* \"#utility.yul\":3350:3359   */\n      dup4\n        /* \"#utility.yul\":3346:3363   */\n      add\n        /* \"#utility.yul\":3337:3343   */\n      dup5\n        /* \"#utility.yul\":3293:3364   */\n      tag_70\n      jump\t// in\n    tag_114:\n        /* \"#utility.yul\":3149:3371   */\n      swap3\n      swap2\n      pop\n      pop\n      jump\t// out\n        /* \"#utility.yul\":3458:3575   */\n    tag_72:\n        /* \"#utility.yul\":3567:3568   */\n      0x00\n        /* \"#utility.yul\":3564:3565   */\n      dup1\n        /* \"#utility.yul\":3557:3569   */\n      revert\n        /* \"#utility.yul\":3704:3826   */\n    tag_74:\n        /* \"#utility.yul\":3777:3801   */\n      tag_119\n        /* \"#utility.yul\":3795:3800   */\n      dup2\n        /* \"#utility.yul\":3777:3801   */\n      tag_69\n      jump\t// in\n    tag_119:\n        /* \"#utility.yul\":3770:3775   */\n      dup2\n        /* \"#utility.yul\":3767:3802   */\n      eq\n        /* \"#utility.yul\":3757:3820   */\n      tag_120\n      jumpi\n        /* \"#utility.yul\":3816:3817   */\n      0x00\n        /* \"#utility.yul\":3813:3814   */\n      dup1\n        /* \"#utility.yul\":3806:3818   */\n      revert\n        /* \"#utility.yul\":3757:3820   */\n    tag_120:\n        /* \"#utility.yul\":3704:3826   */\n      pop\n      jump\t// out\n        /* \"#utility.yul\":3832:3971   */\n    tag_75:\n        /* \"#utility.yul\":3878:3883   */\n      0x00\n        /* \"#utility.yul\":3916:3922   */\n      dup2\n        /* \"#utility.yul\":3903:3923   */\n      calldataload\n        /* \"#utility.yul\":3894:3923   */\n      swap1\n      pop\n        /* \"#utility.yul\":3932:3965   */\n      tag_122\n        /* \"#utility.yul\":3959:3964   */\n      dup2\n        /* \"#utility.yul\":3932:3965   */\n      tag_74\n      jump\t// in\n    tag_122:\n        /* \"#utility.yul\":3832:3971   */\n      swap3\n      swap2\n      pop\n      pop\n      jump\t// out\n        /* \"#utility.yul\":3977:4306   */\n    tag_30:\n        /* \"#utility.yul\":4036:4042   */\n      0x00\n        /* \"#utility.yul\":4085:4087   */\n      0x20\n        /* \"#utility.yul\":4073:4082   */\n      dup3\n        /* \"#utility.yul\":4064:4071   */\n      dup5\n        /* \"#utility.yul\":4060:4083   */\n      sub\n        /* \"#utility.yul\":4056:4088   */\n      slt\n        /* \"#utility.yul\":4053:4172   */\n      iszero\n      tag_124\n      jumpi\n        /* \"#utility.yul\":4091:4170   */\n      tag_125\n      tag_72\n      jump\t// in\n    tag_125:\n        /* \"#utility.yul\":4053:4172   */\n    tag_124:\n        /* \"#utility.yul\":4211:4212   */\n      0x00\n        /* \"#utility.yul\":4236:4289   */\n      tag_126\n        /* \"#utility.yul\":4281:4288   */\n      dup5\n        /* \"#utility.yul\":4272:4278   */\n      dup3\n        /* \"#utility.yul\":4261:4270   */\n      dup6\n        /* \"#utility.yul\":4257:4279   */\n      add\n        /* \"#utility.yul\":4236:4289   */\n      tag_75\n      jump\t// in\n    tag_126:\n        /* \"#utility.yul\":4226:4289   */\n      swap2\n      pop\n        /* \"#utility.yul\":4182:4299   */\n      pop\n        /* \"#utility.yul\":3977:4306   */\n      swap3\n      swap2\n      pop\n      pop\n      jump\t// out\n        /* \"#utility.yul\":4312:4492   */\n    tag_76:\n        /* \"#utility.yul\":4360:4437   */\n      0x4e487b7100000000000000000000000000000000000000000000000000000000\n        /* \"#utility.yul\":4357:4358   */\n      0x00\n        /* \"#utility.yul\":4350:4438   */\n      mstore\n        /* \"#utility.yul\":4457:4461   */\n      0x22\n        /* \"#utility.yul\":4454:4455   */\n      0x04\n        /* \"#utility.yul\":4447:4462   */\n      mstore\n        /* \"#utility.yul\":4481:4485   */\n      0x24\n        /* \"#utility.yul\":4478:4479   */\n      0x00\n        /* \"#utility.yul\":4471:4486   */\n      revert\n        /* \"#utility.yul\":4498:4818   */\n    tag_33:\n        /* \"#utility.yul\":4542:4548   */\n      0x00\n        /* \"#utility.yul\":4579:4580   */\n      0x02\n        /* \"#utility.yul\":4573:4577   */\n      dup3\n        /* \"#utility.yul\":4569:4581   */\n      div\n        /* \"#utility.yul\":4559:4581   */\n      swap1\n      pop\n        /* \"#utility.yul\":4626:4627   */\n      0x01\n        /* \"#utility.yul\":4620:4624   */\n      dup3\n        /* \"#utility.yul\":4616:4628   */\n      and\n        /* \"#utility.yul\":4647:4665   */\n      dup1\n        /* \"#utility.yul\":4637:4718   */\n      tag_129\n      jumpi\n        /* \"#utility.yul\":4703:4707   */\n      0x7f\n        /* \"#utility.yul\":4695:4701   */\n      dup3\n        /* \"#utility.yul\":4691:4708   */\n      and\n        /* \"#utility.yul\":4681:4708   */\n      swap2\n      pop\n        /* \"#utility.yul\":4637:4718   */\n    tag_129:\n        /* \"#utility.yul\":4765:4767   */\n      0x20\n        /* \"#utility.yul\":4757:4763   */\n      dup3\n        /* \"#utility.yul\":4754:4768   */\n      lt\n        /* \"#utility.yul\":4734:4752   */\n      dup2\n        /* \"#utility.yul\":4731:4769   */\n      sub\n        /* \"#utility.yul\":4728:4812   */\n      tag_130\n      jumpi\n        /* \"#utility.yul\":4784:4802   */\n      tag_131\n      tag_76\n      jump\t// in\n    tag_131:\n        /* \"#utility.yul\":4728:4812   */\n    tag_130:\n        /* \"#utility.yul\":4549:4818   */\n      pop\n        /* \"#utility.yul\":4498:4818   */\n      swap2\n      swap1\n      pop\n      jump\t// out\n        /* \"#utility.yul\":4824:4967   */\n    tag_77:\n        /* \"#utility.yul\":4881:4886   */\n      0x00\n        /* \"#utility.yul\":4912:4918   */\n      dup2\n        /* \"#utility.yul\":4906:4919   */\n      mload\n        /* \"#utility.yul\":4897:4919   */\n      swap1\n      pop\n        /* \"#utility.yul\":4928:4961   */\n      tag_133\n        /* \"#utility.yul\":4955:4960   */\n      dup2\n        /* \"#utility.yul\":4928:4961   */\n      tag_74\n      jump\t// in\n    tag_133:\n        /* \"#utility.yul\":4824:4967   */\n      swap3\n      swap2\n      pop\n      pop\n      jump\t// out\n        /* \"#utility.yul\":4973:5324   */\n    tag_52:\n        /* \"#utility.yul\":5043:5049   */\n      0x00\n        /* \"#utility.yul\":5092:5094   */\n      0x20\n        /* \"#utility.yul\":5080:5089   */\n      dup3\n        /* \"#utility.yul\":5071:5078   */\n      dup5\n        /* \"#utility.yul\":5067:5090   */\n      sub\n        /* \"#utility.yul\":5063:5095   */\n      slt\n        /* \"#utility.yul\":5060:5179   */\n      iszero\n      tag_135\n      jumpi\n        /* \"#utility.yul\":5098:5177   */\n      tag_136\n      tag_72\n      jump\t// in\n    tag_136:\n        /* \"#utility.yul\":5060:5179   */\n    tag_135:\n        /* \"#utility.yul\":5218:5219   */\n      0x00\n        /* \"#utility.yul\":5243:5307   */\n      tag_137\n        /* \"#utility.yul\":5299:5306   */\n      dup5\n        /* \"#utility.yul\":5290:5296   */\n      dup3\n        /* \"#utility.yul\":5279:5288   */\n      dup6\n        /* \"#utility.yul\":5275:5297   */\n      add\n        /* \"#utility.yul\":5243:5307   */\n      tag_77\n      jump\t// in\n    tag_137:\n        /* \"#utility.yul\":5233:5307   */\n      swap2\n      pop\n        /* \"#utility.yul\":5189:5317   */\n      pop\n        /* \"#utility.yul\":4973:5324   */\n      swap3\n      swap2\n      pop\n      pop\n      jump\t// out\n\n    auxdata: 0xa26469706673582212203ac27ac6fcd2d222b1b5aea4a1b6f495cf517ca24fd9870aa1442f880ceb888c64736f6c634300080f0033\n}\n\nsub_1: assembly {\n        /* \"study/chapter04/newContract.sol\":53:370  contract testContract{... */\n      mstore(0x40, 0x80)\n        /* \"study/chapter04/newContract.sol\":156:205  constructor(uint _a) payable{... */\n      mload(0x40)\n      sub(codesize, bytecodeSize)\n      dup1\n      bytecodeSize\n      dup4\n      codecopy\n      dup2\n      dup2\n      add\n      0x40\n      mstore\n      dup2\n      add\n      swap1\n      tag_1\n      swap2\n      swap1\n      tag_2\n      jump\t// in\n    tag_1:\n        /* \"study/chapter04/newContract.sol\":196:198  _a */\n      dup1\n        /* \"study/chapter04/newContract.sol\":194:195  a */\n      0x00\n        /* \"study/chapter04/newContract.sol\":194:198  a=_a */\n      dup2\n      swap1\n      sstore\n      pop\n        /* \"study/chapter04/newContract.sol\":156:205  constructor(uint _a) payable{... */\n      pop\n        /* \"study/chapter04/newContract.sol\":53:370  contract testContract{... */\n      jump(tag_5)\n        /* \"#utility.yul\":88:205   */\n    tag_7:\n        /* \"#utility.yul\":197:198   */\n      0x00\n        /* \"#utility.yul\":194:195   */\n      dup1\n        /* \"#utility.yul\":187:199   */\n      revert\n        /* \"#utility.yul\":334:411   */\n    tag_9:\n        /* \"#utility.yul\":371:378   */\n      0x00\n        /* \"#utility.yul\":400:405   */\n      dup2\n        /* \"#utility.yul\":389:405   */\n      swap1\n      pop\n        /* \"#utility.yul\":334:411   */\n      swap2\n      swap1\n      pop\n      jump\t// out\n        /* \"#utility.yul\":417:539   */\n    tag_10:\n        /* \"#utility.yul\":490:514   */\n      tag_18\n        /* \"#utility.yul\":508:513   */\n      dup2\n        /* \"#utility.yul\":490:514   */\n      tag_9\n      jump\t// in\n    tag_18:\n        /* \"#utility.yul\":483:488   */\n      dup2\n        /* \"#utility.yul\":480:515   */\n      eq\n        /* \"#utility.yul\":470:533   */\n      tag_19\n      jumpi\n        /* \"#utility.yul\":529:530   */\n      0x00\n        /* \"#utility.yul\":526:527   */\n      dup1\n        /* \"#utility.yul\":519:531   */\n      revert\n        /* \"#utility.yul\":470:533   */\n    tag_19:\n        /* \"#utility.yul\":417:539   */\n      pop\n      jump\t// out\n        /* \"#utility.yul\":545:688   */\n    tag_11:\n        /* \"#utility.yul\":602:607   */\n      0x00\n        /* \"#utility.yul\":633:639   */\n      dup2\n        /* \"#utility.yul\":627:640   */\n      mload\n        /* \"#utility.yul\":618:640   */\n      swap1\n      pop\n        /* \"#utility.yul\":649:682   */\n      tag_21\n        /* \"#utility.yul\":676:681   */\n      dup2\n        /* \"#utility.yul\":649:682   */\n      tag_10\n      jump\t// in\n    tag_21:\n        /* \"#utility.yul\":545:688   */\n      swap3\n      swap2\n      pop\n      pop\n      jump\t// out\n        /* \"#utility.yul\":694:1045   */\n    tag_2:\n        /* \"#utility.yul\":764:770   */\n      0x00\n        /* \"#utility.yul\":813:815   */\n      0x20\n        /* \"#utility.yul\":801:810   */\n      dup3\n        /* \"#utility.yul\":792:799   */\n      dup5\n        /* \"#utility.yul\":788:811   */\n      sub\n        /* \"#utility.yul\":784:816   */\n      slt\n        /* \"#utility.yul\":781:900   */\n      iszero\n      tag_23\n      jumpi\n        /* \"#utility.yul\":819:898   */\n      tag_24\n      tag_7\n      jump\t// in\n    tag_24:\n        /* \"#utility.yul\":781:900   */\n    tag_23:\n        /* \"#utility.yul\":939:940   */\n      0x00\n        /* \"#utility.yul\":964:1028   */\n      tag_25\n        /* \"#utility.yul\":1020:1027   */\n      dup5\n        /* \"#utility.yul\":1011:1017   */\n      dup3\n        /* \"#utility.yul\":1000:1009   */\n      dup6\n        /* \"#utility.yul\":996:1018   */\n      add\n        /* \"#utility.yul\":964:1028   */\n      tag_11\n      jump\t// in\n    tag_25:\n        /* \"#utility.yul\":954:1028   */\n      swap2\n      pop\n        /* \"#utility.yul\":910:1038   */\n      pop\n        /* \"#utility.yul\":694:1045   */\n      swap3\n      swap2\n      pop\n      pop\n      jump\t// out\n        /* \"study/chapter04/newContract.sol\":53:370  contract testContract{... */\n    tag_5:\n      dataSize(sub_0)\n      dup1\n      dataOffset(sub_0)\n      0x00\n      codecopy\n      0x00\n      return\n    stop\n\n    sub_0: assembly {\n            /* \"study/chapter04/newContract.sol\":53:370  contract testContract{... */\n          mstore(0x40, 0x80)\n          jumpi(tag_1, lt(calldatasize, 0x04))\n          shr(0xe0, calldataload(0x00))\n          dup1\n          0x0dbe671f\n          eq\n          tag_3\n          jumpi\n          dup1\n          0xee919d50\n          eq\n          tag_4\n          jumpi\n          dup1\n          0xf5f5ba72\n          eq\n          tag_5\n          jumpi\n          jump(tag_2)\n        tag_1:\n          jumpi(tag_2, calldatasize)\n          stop\n        tag_2:\n          0x00\n          dup1\n          revert\n            /* \"study/chapter04/newContract.sol\":136:149  uint public a */\n        tag_3:\n          callvalue\n          dup1\n          iszero\n          tag_8\n          jumpi\n          0x00\n          dup1\n          revert\n        tag_8:\n          pop\n          tag_9\n          tag_10\n          jump\t// in\n        tag_9:\n          mload(0x40)\n          tag_11\n          swap2\n          swap1\n          tag_12\n          jump\t// in\n        tag_11:\n          mload(0x40)\n          dup1\n          swap2\n          sub\n          swap1\n          return\n            /* \"study/chapter04/newContract.sol\":315:368  function setA(uint _a)external{... */\n        tag_4:\n          callvalue\n          dup1\n          iszero\n          tag_13\n          jumpi\n          0x00\n          dup1\n          revert\n        tag_13:\n          pop\n          tag_14\n          0x04\n          dup1\n          calldatasize\n          sub\n          dup2\n          add\n          swap1\n          tag_15\n          swap2\n          swap1\n          tag_16\n          jump\t// in\n        tag_15:\n          tag_17\n          jump\t// in\n        tag_14:\n          stop\n            /* \"study/chapter04/newContract.sol\":210:310  function getContractName()external pure returns(string memory){... */\n        tag_5:\n          callvalue\n          dup1\n          iszero\n          tag_18\n          jumpi\n          0x00\n          dup1\n          revert\n        tag_18:\n          pop\n          tag_19\n          tag_20\n          jump\t// in\n        tag_19:\n          mload(0x40)\n          tag_21\n          swap2\n          swap1\n          tag_22\n          jump\t// in\n        tag_21:\n          mload(0x40)\n          dup1\n          swap2\n          sub\n          swap1\n          return\n            /* \"study/chapter04/newContract.sol\":136:149  uint public a */\n        tag_10:\n          sload(0x00)\n          dup2\n          jump\t// out\n            /* \"study/chapter04/newContract.sol\":315:368  function setA(uint _a)external{... */\n        tag_17:\n            /* \"study/chapter04/newContract.sol\":359:361  _a */\n          dup1\n            /* \"study/chapter04/newContract.sol\":355:356  a */\n          0x00\n            /* \"study/chapter04/newContract.sol\":355:361  a = _a */\n          dup2\n          swap1\n          sstore\n          pop\n            /* \"study/chapter04/newContract.sol\":315:368  function setA(uint _a)external{... */\n          pop\n          jump\t// out\n            /* \"study/chapter04/newContract.sol\":210:310  function getContractName()external pure returns(string memory){... */\n        tag_20:\n            /* \"study/chapter04/newContract.sol\":258:271  string memory */\n          0x60\n            /* \"study/chapter04/newContract.sol\":282:303  return \"testContract\" */\n          mload(0x40)\n          dup1\n          0x40\n          add\n          0x40\n          mstore\n          dup1\n          0x0c\n          dup2\n          mstore\n          0x20\n          add\n          0x74657374436f6e74726163740000000000000000000000000000000000000000\n          dup2\n          mstore\n          pop\n          swap1\n          pop\n            /* \"study/chapter04/newContract.sol\":210:310  function getContractName()external pure returns(string memory){... */\n          swap1\n          jump\t// out\n            /* \"#utility.yul\":7:84   */\n        tag_25:\n            /* \"#utility.yul\":44:51   */\n          0x00\n            /* \"#utility.yul\":73:78   */\n          dup2\n            /* \"#utility.yul\":62:78   */\n          swap1\n          pop\n            /* \"#utility.yul\":7:84   */\n          swap2\n          swap1\n          pop\n          jump\t// out\n            /* \"#utility.yul\":90:208   */\n        tag_26:\n            /* \"#utility.yul\":177:201   */\n          tag_40\n            /* \"#utility.yul\":195:200   */\n          dup2\n            /* \"#utility.yul\":177:201   */\n          tag_25\n          jump\t// in\n        tag_40:\n            /* \"#utility.yul\":172:175   */\n          dup3\n            /* \"#utility.yul\":165:202   */\n          mstore\n            /* \"#utility.yul\":90:208   */\n          pop\n          pop\n          jump\t// out\n            /* \"#utility.yul\":214:436   */\n        tag_12:\n            /* \"#utility.yul\":307:311   */\n          0x00\n            /* \"#utility.yul\":345:347   */\n          0x20\n            /* \"#utility.yul\":334:343   */\n          dup3\n            /* \"#utility.yul\":330:348   */\n          add\n            /* \"#utility.yul\":322:348   */\n          swap1\n          pop\n            /* \"#utility.yul\":358:429   */\n          tag_42\n            /* \"#utility.yul\":426:427   */\n          0x00\n            /* \"#utility.yul\":415:424   */\n          dup4\n            /* \"#utility.yul\":411:428   */\n          add\n            /* \"#utility.yul\":402:408   */\n          dup5\n            /* \"#utility.yul\":358:429   */\n          tag_26\n          jump\t// in\n        tag_42:\n            /* \"#utility.yul\":214:436   */\n          swap3\n          swap2\n          pop\n          pop\n          jump\t// out\n            /* \"#utility.yul\":523:640   */\n        tag_28:\n            /* \"#utility.yul\":632:633   */\n          0x00\n            /* \"#utility.yul\":629:630   */\n          dup1\n            /* \"#utility.yul\":622:634   */\n          revert\n            /* \"#utility.yul\":769:891   */\n        tag_30:\n            /* \"#utility.yul\":842:866   */\n          tag_47\n            /* \"#utility.yul\":860:865   */\n          dup2\n            /* \"#utility.yul\":842:866   */\n          tag_25\n          jump\t// in\n        tag_47:\n            /* \"#utility.yul\":835:840   */\n          dup2\n            /* \"#utility.yul\":832:867   */\n          eq\n            /* \"#utility.yul\":822:885   */\n          tag_48\n          jumpi\n            /* \"#utility.yul\":881:882   */\n          0x00\n            /* \"#utility.yul\":878:879   */\n          dup1\n            /* \"#utility.yul\":871:883   */\n          revert\n            /* \"#utility.yul\":822:885   */\n        tag_48:\n            /* \"#utility.yul\":769:891   */\n          pop\n          jump\t// out\n            /* \"#utility.yul\":897:1036   */\n        tag_31:\n            /* \"#utility.yul\":943:948   */\n          0x00\n            /* \"#utility.yul\":981:987   */\n          dup2\n            /* \"#utility.yul\":968:988   */\n          calldataload\n            /* \"#utility.yul\":959:988   */\n          swap1\n          pop\n            /* \"#utility.yul\":997:1030   */\n          tag_50\n            /* \"#utility.yul\":1024:1029   */\n          dup2\n            /* \"#utility.yul\":997:1030   */\n          tag_30\n          jump\t// in\n        tag_50:\n            /* \"#utility.yul\":897:1036   */\n          swap3\n          swap2\n          pop\n          pop\n          jump\t// out\n            /* \"#utility.yul\":1042:1371   */\n        tag_16:\n            /* \"#utility.yul\":1101:1107   */\n          0x00\n            /* \"#utility.yul\":1150:1152   */\n          0x20\n            /* \"#utility.yul\":1138:1147   */\n          dup3\n            /* \"#utility.yul\":1129:1136   */\n          dup5\n            /* \"#utility.yul\":1125:1148   */\n          sub\n            /* \"#utility.yul\":1121:1153   */\n          slt\n            /* \"#utility.yul\":1118:1237   */\n          iszero\n          tag_52\n          jumpi\n            /* \"#utility.yul\":1156:1235   */\n          tag_53\n          tag_28\n          jump\t// in\n        tag_53:\n            /* \"#utility.yul\":1118:1237   */\n        tag_52:\n            /* \"#utility.yul\":1276:1277   */\n          0x00\n            /* \"#utility.yul\":1301:1354   */\n          tag_54\n            /* \"#utility.yul\":1346:1353   */\n          dup5\n            /* \"#utility.yul\":1337:1343   */\n          dup3\n            /* \"#utility.yul\":1326:1335   */\n          dup6\n            /* \"#utility.yul\":1322:1344   */\n          add\n            /* \"#utility.yul\":1301:1354   */\n          tag_31\n          jump\t// in\n        tag_54:\n            /* \"#utility.yul\":1291:1354   */\n          swap2\n          pop\n            /* \"#utility.yul\":1247:1364   */\n          pop\n            /* \"#utility.yul\":1042:1371   */\n          swap3\n          swap2\n          pop\n          pop\n          jump\t// out\n            /* \"#utility.yul\":1377:1476   */\n        tag_32:\n            /* \"#utility.yul\":1429:1435   */\n          0x00\n            /* \"#utility.yul\":1463:1468   */\n          dup2\n            /* \"#utility.yul\":1457:1469   */\n          mload\n            /* \"#utility.yul\":1447:1469   */\n          swap1\n          pop\n            /* \"#utility.yul\":1377:1476   */\n          swap2\n          swap1\n          pop\n          jump\t// out\n            /* \"#utility.yul\":1482:1651   */\n        tag_33:\n            /* \"#utility.yul\":1566:1577   */\n          0x00\n            /* \"#utility.yul\":1600:1606   */\n          dup3\n            /* \"#utility.yul\":1595:1598   */\n          dup3\n            /* \"#utility.yul\":1588:1607   */\n          mstore\n            /* \"#utility.yul\":1640:1644   */\n          0x20\n            /* \"#utility.yul\":1635:1638   */\n          dup3\n            /* \"#utility.yul\":1631:1645   */\n          add\n            /* \"#utility.yul\":1616:1645   */\n          swap1\n          pop\n            /* \"#utility.yul\":1482:1651   */\n          swap3\n          swap2\n          pop\n          pop\n          jump\t// out\n            /* \"#utility.yul\":1657:1964   */\n        tag_34:\n            /* \"#utility.yul\":1725:1726   */\n          0x00\n            /* \"#utility.yul\":1735:1848   */\n        tag_58:\n            /* \"#utility.yul\":1749:1755   */\n          dup4\n            /* \"#utility.yul\":1746:1747   */\n          dup2\n            /* \"#utility.yul\":1743:1756   */\n          lt\n            /* \"#utility.yul\":1735:1848   */\n          iszero\n          tag_60\n          jumpi\n            /* \"#utility.yul\":1834:1835   */\n          dup1\n            /* \"#utility.yul\":1829:1832   */\n          dup3\n            /* \"#utility.yul\":1825:1836   */\n          add\n            /* \"#utility.yul\":1819:1837   */\n          mload\n            /* \"#utility.yul\":1815:1816   */\n          dup2\n            /* \"#utility.yul\":1810:1813   */\n          dup5\n            /* \"#utility.yul\":1806:1817   */\n          add\n            /* \"#utility.yul\":1799:1838   */\n          mstore\n            /* \"#utility.yul\":1771:1773   */\n          0x20\n            /* \"#utility.yul\":1768:1769   */\n          dup2\n            /* \"#utility.yul\":1764:1774   */\n          add\n            /* \"#utility.yul\":1759:1774   */\n          swap1\n          pop\n            /* \"#utility.yul\":1735:1848   */\n          jump(tag_58)\n        tag_60:\n            /* \"#utility.yul\":1866:1872   */\n          dup4\n            /* \"#utility.yul\":1863:1864   */\n          dup2\n            /* \"#utility.yul\":1860:1873   */\n          gt\n            /* \"#utility.yul\":1857:1958   */\n          iszero\n          tag_61\n          jumpi\n            /* \"#utility.yul\":1946:1947   */\n          0x00\n            /* \"#utility.yul\":1937:1943   */\n          dup5\n            /* \"#utility.yul\":1932:1935   */\n          dup5\n            /* \"#utility.yul\":1928:1944   */\n          add\n            /* \"#utility.yul\":1921:1948   */\n          mstore\n            /* \"#utility.yul\":1857:1958   */\n        tag_61:\n            /* \"#utility.yul\":1706:1964   */\n          pop\n            /* \"#utility.yul\":1657:1964   */\n          pop\n          pop\n          pop\n          jump\t// out\n            /* \"#utility.yul\":1970:2072   */\n        tag_35:\n            /* \"#utility.yul\":2011:2017   */\n          0x00\n            /* \"#utility.yul\":2062:2064   */\n          0x1f\n            /* \"#utility.yul\":2058:2065   */\n          not\n            /* \"#utility.yul\":2053:2055   */\n          0x1f\n            /* \"#utility.yul\":2046:2051   */\n          dup4\n            /* \"#utility.yul\":2042:2056   */\n          add\n            /* \"#utility.yul\":2038:2066   */\n          and\n            /* \"#utility.yul\":2028:2066   */\n          swap1\n          pop\n            /* \"#utility.yul\":1970:2072   */\n          swap2\n          swap1\n          pop\n          jump\t// out\n            /* \"#utility.yul\":2078:2442   */\n        tag_36:\n            /* \"#utility.yul\":2166:2169   */\n          0x00\n            /* \"#utility.yul\":2194:2233   */\n          tag_64\n            /* \"#utility.yul\":2227:2232   */\n          dup3\n            /* \"#utility.yul\":2194:2233   */\n          tag_32\n          jump\t// in\n        tag_64:\n            /* \"#utility.yul\":2249:2320   */\n          tag_65\n            /* \"#utility.yul\":2313:2319   */\n          dup2\n            /* \"#utility.yul\":2308:2311   */\n          dup6\n            /* \"#utility.yul\":2249:2320   */\n          tag_33\n          jump\t// in\n        tag_65:\n            /* \"#utility.yul\":2242:2320   */\n          swap4\n          pop\n            /* \"#utility.yul\":2329:2381   */\n          tag_66\n            /* \"#utility.yul\":2374:2380   */\n          dup2\n            /* \"#utility.yul\":2369:2372   */\n          dup6\n            /* \"#utility.yul\":2362:2366   */\n          0x20\n            /* \"#utility.yul\":2355:2360   */\n          dup7\n            /* \"#utility.yul\":2351:2367   */\n          add\n            /* \"#utility.yul\":2329:2381   */\n          tag_34\n          jump\t// in\n        tag_66:\n            /* \"#utility.yul\":2406:2435   */\n          tag_67\n            /* \"#utility.yul\":2428:2434   */\n          dup2\n            /* \"#utility.yul\":2406:2435   */\n          tag_35\n          jump\t// in\n        tag_67:\n            /* \"#utility.yul\":2401:2404   */\n          dup5\n            /* \"#utility.yul\":2397:2436   */\n          add\n            /* \"#utility.yul\":2390:2436   */\n          swap2\n          pop\n            /* \"#utility.yul\":2170:2442   */\n          pop\n            /* \"#utility.yul\":2078:2442   */\n          swap3\n          swap2\n          pop\n          pop\n          jump\t// out\n            /* \"#utility.yul\":2448:2761   */\n        tag_22:\n            /* \"#utility.yul\":2561:2565   */\n          0x00\n            /* \"#utility.yul\":2599:2601   */\n          0x20\n            /* \"#utility.yul\":2588:2597   */\n          dup3\n            /* \"#utility.yul\":2584:2602   */\n          add\n            /* \"#utility.yul\":2576:2602   */\n          swap1\n          pop\n            /* \"#utility.yul\":2648:2657   */\n          dup2\n            /* \"#utility.yul\":2642:2646   */\n          dup2\n            /* \"#utility.yul\":2638:2658   */\n          sub\n            /* \"#utility.yul\":2634:2635   */\n          0x00\n            /* \"#utility.yul\":2623:2632   */\n          dup4\n            /* \"#utility.yul\":2619:2636   */\n          add\n            /* \"#utility.yul\":2612:2659   */\n          mstore\n            /* \"#utility.yul\":2676:2754   */\n          tag_69\n            /* \"#utility.yul\":2749:2753   */\n          dup2\n            /* \"#utility.yul\":2740:2746   */\n          dup5\n            /* \"#utility.yul\":2676:2754   */\n          tag_36\n          jump\t// in\n        tag_69:\n            /* \"#utility.yul\":2668:2754   */\n          swap1\n          pop\n            /* \"#utility.yul\":2448:2761   */\n          swap3\n          swap2\n          pop\n          pop\n          jump\t// out\n\n        auxdata: 0xa2646970667358221220cb9767ee82b61a6a0912a45eada65bddac20cc803c7020a7e04d9bf2892f24af64736f6c634300080f0033\n    }\n}\n",
				"bytecode": {
					"linkReferences": {},
					"object": "6080604052674563918244f4000060056040516200001d9062000222565b62000029919062000287565b6040518091039082f090508015801562000047573d6000803e3d6000fd5b506000806101000a81548173ffffffffffffffffffffffffffffffffffffffff021916908373ffffffffffffffffffffffffffffffffffffffff16021790555060008054906101000a900473ffffffffffffffffffffffffffffffffffffffff16600160006101000a81548173ffffffffffffffffffffffffffffffffffffffff021916908373ffffffffffffffffffffffffffffffffffffffff16021790555060008054906101000a900473ffffffffffffffffffffffffffffffffffffffff1673ffffffffffffffffffffffffffffffffffffffff1663f5f5ba726040518163ffffffff1660e01b8152600401600060405180830381865afa15801562000154573d6000803e3d6000fd5b505050506040513d6000823e3d601f19601f820116820180604052508101906200017f919062000441565b600290816200018f9190620006c9565b5060405180604001604052600c8152806020017f74657374436f6e7472616374000000000000000000000000000000000000000081525060039081620001d69190620006c9565b5060405180602001620001e99062000222565b6020820181038252601f19601f82011660405250600490816200020d919062000820565b503480156200021b57600080fd5b5062000907565b61033c806200101d83390190565b6000819050919050565b6000819050919050565b6000819050919050565b60006200026f62000269620002638462000230565b62000244565b6200023a565b9050919050565b62000281816200024e565b82525050565b60006020820190506200029e600083018462000276565b92915050565b6000604051905090565b600080fd5b600080fd5b600080fd5b600080fd5b6000601f19601f8301169050919050565b7f4e487b7100000000000000000000000000000000000000000000000000000000600052604160045260246000fd5b6200030d82620002c2565b810181811067ffffffffffffffff821117156200032f576200032e620002d3565b5b80604052505050565b600062000344620002a4565b905062000352828262000302565b919050565b600067ffffffffffffffff821115620003755762000374620002d3565b5b6200038082620002c2565b9050602081019050919050565b60005b83811015620003ad57808201518184015260208101905062000390565b83811115620003bd576000848401525b50505050565b6000620003da620003d48462000357565b62000338565b905082815260208101848484011115620003f957620003f8620002bd565b5b620004068482856200038d565b509392505050565b600082601f830112620004265762000425620002b8565b5b815162000438848260208601620003c3565b91505092915050565b6000602082840312156200045a5762000459620002ae565b5b600082015167ffffffffffffffff8111156200047b576200047a620002b3565b5b62000489848285016200040e565b91505092915050565b600081519050919050565b7f4e487b7100000000000000000000000000000000000000000000000000000000600052602260045260246000fd5b60006002820490506001821680620004e557607f821691505b602082108103620004fb57620004fa6200049d565b5b50919050565b60008190508160005260206000209050919050565b60006020601f8301049050919050565b600082821b905092915050565b600060088302620005657fffffffffffffffffffffffffffffffffffffffffffffffffffffffffffffffff8262000526565b62000571868362000526565b95508019841693508086168417925050509392505050565b6000620005aa620005a46200059e846200023a565b62000244565b6200023a565b9050919050565b6000819050919050565b620005c68362000589565b620005de620005d582620005b1565b84845462000533565b825550505050565b600090565b620005f5620005e6565b62000602818484620005bb565b505050565b5b818110156200062a576200061e600082620005eb565b60018101905062000608565b5050565b601f8211156200067957620006438162000501565b6200064e8462000516565b810160208510156200065e578190505b620006766200066d8562000516565b83018262000607565b50505b505050565b600082821c905092915050565b60006200069e600019846008026200067e565b1980831691505092915050565b6000620006b983836200068b565b9150826002028217905092915050565b620006d48262000492565b67ffffffffffffffff811115620006f057620006ef620002d3565b5b620006fc8254620004cc565b620007098282856200062e565b600060209050601f8311600181146200074157600084156200072c578287015190505b620007388582620006ab565b865550620007a8565b601f198416620007518662000501565b60005b828110156200077b5784890151825560018201915060208501945060208101905062000754565b868310156200079b578489015162000797601f8916826200068b565b8355505b6001600288020188555050505b505050505050565b600081519050919050565b60008190508160005260206000209050919050565b601f8211156200081b57620007e581620007bb565b620007f08462000516565b8101602085101562000800578190505b620008186200080f8562000516565b83018262000607565b50505b505050565b6200082b82620007b0565b67ffffffffffffffff811115620008475762000846620002d3565b5b620008538254620004cc565b62000860828285620007d0565b600060209050601f83116001811462000898576000841562000883578287015190505b6200088f8582620006ab565b865550620008ff565b601f198416620008a886620007bb565b60005b82811015620008d257848901518255600182019150602085019450602081019050620008ab565b86831015620008f25784890151620008ee601f8916826200068b565b8355505b6001600288020188555050505b505050505050565b61070680620009176000396000f3fe608060405234801561001057600080fd5b50600436106100625760003560e01c80637c00013814610067578063c15bae8414610085578063d01bb4d5146100a3578063d118d187146100c1578063d46300fd146100df578063ee919d50146100fd575b600080fd5b61006f610119565b60405161007c91906104a7565b60405180910390f35b61008d6101a7565b60405161009a919061051e565b60405180910390f35b6100ab610235565b6040516100b89190610581565b60405180910390f35b6100c961025b565b6040516100d6919061051e565b60405180910390f35b6100e76102e9565b6040516100f491906105b5565b60405180910390f35b61011760048036038101906101129190610601565b610380565b005b600480546101269061065d565b80601f01602080910402602001604051908101604052809291908181526020018280546101529061065d565b801561019f5780601f106101745761010080835404028352916020019161019f565b820191906000526020600020905b81548152906001019060200180831161018257829003601f168201915b505050505081565b600280546101b49061065d565b80601f01602080910402602001604051908101604052809291908181526020018280546101e09061065d565b801561022d5780601f106102025761010080835404028352916020019161022d565b820191906000526020600020905b81548152906001019060200180831161021057829003601f168201915b505050505081565b600160009054906101000a900473ffffffffffffffffffffffffffffffffffffffff1681565b600380546102689061065d565b80601f01602080910402602001604051908101604052809291908181526020018280546102949061065d565b80156102e15780601f106102b6576101008083540402835291602001916102e1565b820191906000526020600020905b8154815290600101906020018083116102c457829003601f168201915b505050505081565b60008060009054906101000a900473ffffffffffffffffffffffffffffffffffffffff1673ffffffffffffffffffffffffffffffffffffffff16630dbe671f6040518163ffffffff1660e01b8152600401602060405180830381865afa158015610357573d6000803e3d6000fd5b505050506040513d601f19601f8201168201806040525081019061037b91906106a3565b905090565b60008054906101000a900473ffffffffffffffffffffffffffffffffffffffff1673ffffffffffffffffffffffffffffffffffffffff1663ee919d50826040518263ffffffff1660e01b81526004016103d991906105b5565b600060405180830381600087803b1580156103f357600080fd5b505af1158015610407573d6000803e3d6000fd5b5050505050565b600081519050919050565b600082825260208201905092915050565b60005b8381101561044857808201518184015260208101905061042d565b83811115610457576000848401525b50505050565b6000601f19601f8301169050919050565b60006104798261040e565b6104838185610419565b935061049381856020860161042a565b61049c8161045d565b840191505092915050565b600060208201905081810360008301526104c1818461046e565b905092915050565b600081519050919050565b600082825260208201905092915050565b60006104f0826104c9565b6104fa81856104d4565b935061050a81856020860161042a565b6105138161045d565b840191505092915050565b6000602082019050818103600083015261053881846104e5565b905092915050565b600073ffffffffffffffffffffffffffffffffffffffff82169050919050565b600061056b82610540565b9050919050565b61057b81610560565b82525050565b60006020820190506105966000830184610572565b92915050565b6000819050919050565b6105af8161059c565b82525050565b60006020820190506105ca60008301846105a6565b92915050565b600080fd5b6105de8161059c565b81146105e957600080fd5b50565b6000813590506105fb816105d5565b92915050565b600060208284031215610617576106166105d0565b5b6000610625848285016105ec565b91505092915050565b7f4e487b7100000000000000000000000000000000000000000000000000000000600052602260045260246000fd5b6000600282049050600182168061067557607f821691505b6020821081036106885761068761062e565b5b50919050565b60008151905061069d816105d5565b92915050565b6000602082840312156106b9576106b86105d0565b5b60006106c78482850161068e565b9150509291505056fea26469706673582212203ac27ac6fcd2d222b1b5aea4a1b6f495cf517ca24fd9870aa1442f880ceb888c64736f6c634300080f0033608060405260405161033c38038061033c8339818101604052810190610025919061006d565b806000819055505061009a565b600080fd5b6000819050919050565b61004a81610037565b811461005557600080fd5b50565b60008151905061006781610041565b92915050565b60006020828403121561008357610082610032565b5b600061009184828501610058565b91505092915050565b610293806100a96000396000f3fe6080604052600436106100385760003560e01c80630dbe671f14610044578063ee919d501461006f578063f5f5ba72146100985761003f565b3661003f57005b600080fd5b34801561005057600080fd5b506100596100c3565b6040516100669190610129565b60405180910390f35b34801561007b57600080fd5b5061009660048036038101906100919190610175565b6100c9565b005b3480156100a457600080fd5b506100ad6100d3565b6040516100ba919061023b565b60405180910390f35b60005481565b8060008190555050565b60606040518060400160405280600c81526020017f74657374436f6e74726163740000000000000000000000000000000000000000815250905090565b6000819050919050565b61012381610110565b82525050565b600060208201905061013e600083018461011a565b92915050565b600080fd5b61015281610110565b811461015d57600080fd5b50565b60008135905061016f81610149565b92915050565b60006020828403121561018b5761018a610144565b5b600061019984828501610160565b91505092915050565b600081519050919050565b600082825260208201905092915050565b60005b838110156101dc5780820151818401526020810190506101c1565b838111156101eb576000848401525b50505050565b6000601f19601f8301169050919050565b600061020d826101a2565b61021781856101ad565b93506102278185602086016101be565b610230816101f1565b840191505092915050565b600060208201905081810360008301526102558184610202565b90509291505056fea2646970667358221220cb9767ee82b61a6a0912a45eada65bddac20cc803c7020a7e04d9bf2892f24af64736f6c634300080f0033",
					"opcodes": "PUSH1 0x80 PUSH1 0x40 MSTORE PUSH8 0x4563918244F40000 PUSH1 0x5 PUSH1 0x40 MLOAD PUSH3 0x1D SWAP1 PUSH3 0x222 JUMP JUMPDEST PUSH3 0x29 SWAP2 SWAP1 PUSH3 0x287 JUMP JUMPDEST PUSH1 0x40 MLOAD DUP1 SWAP2 SUB SWAP1 DUP3 CREATE SWAP1 POP DUP1 ISZERO DUP1 ISZERO PUSH3 0x47 JUMPI RETURNDATASIZE PUSH1 0x0 DUP1 RETURNDATACOPY RETURNDATASIZE PUSH1 0x0 REVERT JUMPDEST POP PUSH1 0x0 DUP1 PUSH2 0x100 EXP DUP2 SLOAD DUP2 PUSH20 0xFFFFFFFFFFFFFFFFFFFFFFFFFFFFFFFFFFFFFFFF MUL NOT AND SWAP1 DUP4 PUSH20 0xFFFFFFFFFFFFFFFFFFFFFFFFFFFFFFFFFFFFFFFF AND MUL OR SWAP1 SSTORE POP PUSH1 0x0 DUP1 SLOAD SWAP1 PUSH2 0x100 EXP SWAP1 DIV PUSH20 0xFFFFFFFFFFFFFFFFFFFFFFFFFFFFFFFFFFFFFFFF AND PUSH1 0x1 PUSH1 0x0 PUSH2 0x100 EXP DUP2 SLOAD DUP2 PUSH20 0xFFFFFFFFFFFFFFFFFFFFFFFFFFFFFFFFFFFFFFFF MUL NOT AND SWAP1 DUP4 PUSH20 0xFFFFFFFFFFFFFFFFFFFFFFFFFFFFFFFFFFFFFFFF AND MUL OR SWAP1 SSTORE POP PUSH1 0x0 DUP1 SLOAD SWAP1 PUSH2 0x100 EXP SWAP1 DIV PUSH20 0xFFFFFFFFFFFFFFFFFFFFFFFFFFFFFFFFFFFFFFFF AND PUSH20 0xFFFFFFFFFFFFFFFFFFFFFFFFFFFFFFFFFFFFFFFF AND PUSH4 0xF5F5BA72 PUSH1 0x40 MLOAD DUP2 PUSH4 0xFFFFFFFF AND PUSH1 0xE0 SHL DUP2 MSTORE PUSH1 0x4 ADD PUSH1 0x0 PUSH1 0x40 MLOAD DUP1 DUP4 SUB DUP2 DUP7 GAS STATICCALL ISZERO DUP1 ISZERO PUSH3 0x154 JUMPI RETURNDATASIZE PUSH1 0x0 DUP1 RETURNDATACOPY RETURNDATASIZE PUSH1 0x0 REVERT JUMPDEST POP POP POP POP PUSH1 0x40 MLOAD RETURNDATASIZE PUSH1 0x0 DUP3 RETURNDATACOPY RETURNDATASIZE PUSH1 0x1F NOT PUSH1 0x1F DUP3 ADD AND DUP3 ADD DUP1 PUSH1 0x40 MSTORE POP DUP2 ADD SWAP1 PUSH3 0x17F SWAP2 SWAP1 PUSH3 0x441 JUMP JUMPDEST PUSH1 0x2 SWAP1 DUP2 PUSH3 0x18F SWAP2 SWAP1 PUSH3 0x6C9 JUMP JUMPDEST POP PUSH1 0x40 MLOAD DUP1 PUSH1 0x40 ADD PUSH1 0x40 MSTORE PUSH1 0xC DUP2 MSTORE DUP1 PUSH1 0x20 ADD PUSH32 0x74657374436F6E74726163740000000000000000000000000000000000000000 DUP2 MSTORE POP PUSH1 0x3 SWAP1 DUP2 PUSH3 0x1D6 SWAP2 SWAP1 PUSH3 0x6C9 JUMP JUMPDEST POP PUSH1 0x40 MLOAD DUP1 PUSH1 0x20 ADD PUSH3 0x1E9 SWAP1 PUSH3 0x222 JUMP JUMPDEST PUSH1 0x20 DUP3 ADD DUP2 SUB DUP3 MSTORE PUSH1 0x1F NOT PUSH1 0x1F DUP3 ADD AND PUSH1 0x40 MSTORE POP PUSH1 0x4 SWAP1 DUP2 PUSH3 0x20D SWAP2 SWAP1 PUSH3 0x820 JUMP JUMPDEST POP CALLVALUE DUP1 ISZERO PUSH3 0x21B JUMPI PUSH1 0x0 DUP1 REVERT JUMPDEST POP PUSH3 0x907 JUMP JUMPDEST PUSH2 0x33C DUP1 PUSH3 0x101D DUP4 CODECOPY ADD SWAP1 JUMP JUMPDEST PUSH1 0x0 DUP2 SWAP1 POP SWAP2 SWAP1 POP JUMP JUMPDEST PUSH1 0x0 DUP2 SWAP1 POP SWAP2 SWAP1 POP JUMP JUMPDEST PUSH1 0x0 DUP2 SWAP1 POP SWAP2 SWAP1 POP JUMP JUMPDEST PUSH1 0x0 PUSH3 0x26F PUSH3 0x269 PUSH3 0x263 DUP5 PUSH3 0x230 JUMP JUMPDEST PUSH3 0x244 JUMP JUMPDEST PUSH3 0x23A JUMP JUMPDEST SWAP1 POP SWAP2 SWAP1 POP JUMP JUMPDEST PUSH3 0x281 DUP2 PUSH3 0x24E JUMP JUMPDEST DUP3 MSTORE POP POP JUMP JUMPDEST PUSH1 0x0 PUSH1 0x20 DUP3 ADD SWAP1 POP PUSH3 0x29E PUSH1 0x0 DUP4 ADD DUP5 PUSH3 0x276 JUMP JUMPDEST SWAP3 SWAP2 POP POP JUMP JUMPDEST PUSH1 0x0 PUSH1 0x40 MLOAD SWAP1 POP SWAP1 JUMP JUMPDEST PUSH1 0x0 DUP1 REVERT JUMPDEST PUSH1 0x0 DUP1 REVERT JUMPDEST PUSH1 0x0 DUP1 REVERT JUMPDEST PUSH1 0x0 DUP1 REVERT JUMPDEST PUSH1 0x0 PUSH1 0x1F NOT PUSH1 0x1F DUP4 ADD AND SWAP1 POP SWAP2 SWAP1 POP JUMP JUMPDEST PUSH32 0x4E487B7100000000000000000000000000000000000000000000000000000000 PUSH1 0x0 MSTORE PUSH1 0x41 PUSH1 0x4 MSTORE PUSH1 0x24 PUSH1 0x0 REVERT JUMPDEST PUSH3 0x30D DUP3 PUSH3 0x2C2 JUMP JUMPDEST DUP2 ADD DUP2 DUP2 LT PUSH8 0xFFFFFFFFFFFFFFFF DUP3 GT OR ISZERO PUSH3 0x32F JUMPI PUSH3 0x32E PUSH3 0x2D3 JUMP JUMPDEST JUMPDEST DUP1 PUSH1 0x40 MSTORE POP POP POP JUMP JUMPDEST PUSH1 0x0 PUSH3 0x344 PUSH3 0x2A4 JUMP JUMPDEST SWAP1 POP PUSH3 0x352 DUP3 DUP3 PUSH3 0x302 JUMP JUMPDEST SWAP2 SWAP1 POP JUMP JUMPDEST PUSH1 0x0 PUSH8 0xFFFFFFFFFFFFFFFF DUP3 GT ISZERO PUSH3 0x375 JUMPI PUSH3 0x374 PUSH3 0x2D3 JUMP JUMPDEST JUMPDEST PUSH3 0x380 DUP3 PUSH3 0x2C2 JUMP JUMPDEST SWAP1 POP PUSH1 0x20 DUP2 ADD SWAP1 POP SWAP2 SWAP1 POP JUMP JUMPDEST PUSH1 0x0 JUMPDEST DUP4 DUP2 LT ISZERO PUSH3 0x3AD JUMPI DUP1 DUP3 ADD MLOAD DUP2 DUP5 ADD MSTORE PUSH1 0x20 DUP2 ADD SWAP1 POP PUSH3 0x390 JUMP JUMPDEST DUP4 DUP2 GT ISZERO PUSH3 0x3BD JUMPI PUSH1 0x0 DUP5 DUP5 ADD MSTORE JUMPDEST POP POP POP POP JUMP JUMPDEST PUSH1 0x0 PUSH3 0x3DA PUSH3 0x3D4 DUP5 PUSH3 0x357 JUMP JUMPDEST PUSH3 0x338 JUMP JUMPDEST SWAP1 POP DUP3 DUP2 MSTORE PUSH1 0x20 DUP2 ADD DUP5 DUP5 DUP5 ADD GT ISZERO PUSH3 0x3F9 JUMPI PUSH3 0x3F8 PUSH3 0x2BD JUMP JUMPDEST JUMPDEST PUSH3 0x406 DUP5 DUP3 DUP6 PUSH3 0x38D JUMP JUMPDEST POP SWAP4 SWAP3 POP POP POP JUMP JUMPDEST PUSH1 0x0 DUP3 PUSH1 0x1F DUP4 ADD SLT PUSH3 0x426 JUMPI PUSH3 0x425 PUSH3 0x2B8 JUMP JUMPDEST JUMPDEST DUP2 MLOAD PUSH3 0x438 DUP5 DUP3 PUSH1 0x20 DUP7 ADD PUSH3 0x3C3 JUMP JUMPDEST SWAP2 POP POP SWAP3 SWAP2 POP POP JUMP JUMPDEST PUSH1 0x0 PUSH1 0x20 DUP3 DUP5 SUB SLT ISZERO PUSH3 0x45A JUMPI PUSH3 0x459 PUSH3 0x2AE JUMP JUMPDEST JUMPDEST PUSH1 0x0 DUP3 ADD MLOAD PUSH8 0xFFFFFFFFFFFFFFFF DUP2 GT ISZERO PUSH3 0x47B JUMPI PUSH3 0x47A PUSH3 0x2B3 JUMP JUMPDEST JUMPDEST PUSH3 0x489 DUP5 DUP3 DUP6 ADD PUSH3 0x40E JUMP JUMPDEST SWAP2 POP POP SWAP3 SWAP2 POP POP JUMP JUMPDEST PUSH1 0x0 DUP2 MLOAD SWAP1 POP SWAP2 SWAP1 POP JUMP JUMPDEST PUSH32 0x4E487B7100000000000000000000000000000000000000000000000000000000 PUSH1 0x0 MSTORE PUSH1 0x22 PUSH1 0x4 MSTORE PUSH1 0x24 PUSH1 0x0 REVERT JUMPDEST PUSH1 0x0 PUSH1 0x2 DUP3 DIV SWAP1 POP PUSH1 0x1 DUP3 AND DUP1 PUSH3 0x4E5 JUMPI PUSH1 0x7F DUP3 AND SWAP2 POP JUMPDEST PUSH1 0x20 DUP3 LT DUP2 SUB PUSH3 0x4FB JUMPI PUSH3 0x4FA PUSH3 0x49D JUMP JUMPDEST JUMPDEST POP SWAP2 SWAP1 POP JUMP JUMPDEST PUSH1 0x0 DUP2 SWAP1 POP DUP2 PUSH1 0x0 MSTORE PUSH1 0x20 PUSH1 0x0 KECCAK256 SWAP1 POP SWAP2 SWAP1 POP JUMP JUMPDEST PUSH1 0x0 PUSH1 0x20 PUSH1 0x1F DUP4 ADD DIV SWAP1 POP SWAP2 SWAP1 POP JUMP JUMPDEST PUSH1 0x0 DUP3 DUP3 SHL SWAP1 POP SWAP3 SWAP2 POP POP JUMP JUMPDEST PUSH1 0x0 PUSH1 0x8 DUP4 MUL PUSH3 0x565 PUSH32 0xFFFFFFFFFFFFFFFFFFFFFFFFFFFFFFFFFFFFFFFFFFFFFFFFFFFFFFFFFFFFFFFF DUP3 PUSH3 0x526 JUMP JUMPDEST PUSH3 0x571 DUP7 DUP4 PUSH3 0x526 JUMP JUMPDEST SWAP6 POP DUP1 NOT DUP5 AND SWAP4 POP DUP1 DUP7 AND DUP5 OR SWAP3 POP POP POP SWAP4 SWAP3 POP POP POP JUMP JUMPDEST PUSH1 0x0 PUSH3 0x5AA PUSH3 0x5A4 PUSH3 0x59E DUP5 PUSH3 0x23A JUMP JUMPDEST PUSH3 0x244 JUMP JUMPDEST PUSH3 0x23A JUMP JUMPDEST SWAP1 POP SWAP2 SWAP1 POP JUMP JUMPDEST PUSH1 0x0 DUP2 SWAP1 POP SWAP2 SWAP1 POP JUMP JUMPDEST PUSH3 0x5C6 DUP4 PUSH3 0x589 JUMP JUMPDEST PUSH3 0x5DE PUSH3 0x5D5 DUP3 PUSH3 0x5B1 JUMP JUMPDEST DUP5 DUP5 SLOAD PUSH3 0x533 JUMP JUMPDEST DUP3 SSTORE POP POP POP POP JUMP JUMPDEST PUSH1 0x0 SWAP1 JUMP JUMPDEST PUSH3 0x5F5 PUSH3 0x5E6 JUMP JUMPDEST PUSH3 0x602 DUP2 DUP5 DUP5 PUSH3 0x5BB JUMP JUMPDEST POP POP POP JUMP JUMPDEST JUMPDEST DUP2 DUP2 LT ISZERO PUSH3 0x62A JUMPI PUSH3 0x61E PUSH1 0x0 DUP3 PUSH3 0x5EB JUMP JUMPDEST PUSH1 0x1 DUP2 ADD SWAP1 POP PUSH3 0x608 JUMP JUMPDEST POP POP JUMP JUMPDEST PUSH1 0x1F DUP3 GT ISZERO PUSH3 0x679 JUMPI PUSH3 0x643 DUP2 PUSH3 0x501 JUMP JUMPDEST PUSH3 0x64E DUP5 PUSH3 0x516 JUMP JUMPDEST DUP2 ADD PUSH1 0x20 DUP6 LT ISZERO PUSH3 0x65E JUMPI DUP2 SWAP1 POP JUMPDEST PUSH3 0x676 PUSH3 0x66D DUP6 PUSH3 0x516 JUMP JUMPDEST DUP4 ADD DUP3 PUSH3 0x607 JUMP JUMPDEST POP POP JUMPDEST POP POP POP JUMP JUMPDEST PUSH1 0x0 DUP3 DUP3 SHR SWAP1 POP SWAP3 SWAP2 POP POP JUMP JUMPDEST PUSH1 0x0 PUSH3 0x69E PUSH1 0x0 NOT DUP5 PUSH1 0x8 MUL PUSH3 0x67E JUMP JUMPDEST NOT DUP1 DUP4 AND SWAP2 POP POP SWAP3 SWAP2 POP POP JUMP JUMPDEST PUSH1 0x0 PUSH3 0x6B9 DUP4 DUP4 PUSH3 0x68B JUMP JUMPDEST SWAP2 POP DUP3 PUSH1 0x2 MUL DUP3 OR SWAP1 POP SWAP3 SWAP2 POP POP JUMP JUMPDEST PUSH3 0x6D4 DUP3 PUSH3 0x492 JUMP JUMPDEST PUSH8 0xFFFFFFFFFFFFFFFF DUP2 GT ISZERO PUSH3 0x6F0 JUMPI PUSH3 0x6EF PUSH3 0x2D3 JUMP JUMPDEST JUMPDEST PUSH3 0x6FC DUP3 SLOAD PUSH3 0x4CC JUMP JUMPDEST PUSH3 0x709 DUP3 DUP3 DUP6 PUSH3 0x62E JUMP JUMPDEST PUSH1 0x0 PUSH1 0x20 SWAP1 POP PUSH1 0x1F DUP4 GT PUSH1 0x1 DUP2 EQ PUSH3 0x741 JUMPI PUSH1 0x0 DUP5 ISZERO PUSH3 0x72C JUMPI DUP3 DUP8 ADD MLOAD SWAP1 POP JUMPDEST PUSH3 0x738 DUP6 DUP3 PUSH3 0x6AB JUMP JUMPDEST DUP7 SSTORE POP PUSH3 0x7A8 JUMP JUMPDEST PUSH1 0x1F NOT DUP5 AND PUSH3 0x751 DUP7 PUSH3 0x501 JUMP JUMPDEST PUSH1 0x0 JUMPDEST DUP3 DUP2 LT ISZERO PUSH3 0x77B JUMPI DUP5 DUP10 ADD MLOAD DUP3 SSTORE PUSH1 0x1 DUP3 ADD SWAP2 POP PUSH1 0x20 DUP6 ADD SWAP5 POP PUSH1 0x20 DUP2 ADD SWAP1 POP PUSH3 0x754 JUMP JUMPDEST DUP7 DUP4 LT ISZERO PUSH3 0x79B JUMPI DUP5 DUP10 ADD MLOAD PUSH3 0x797 PUSH1 0x1F DUP10 AND DUP3 PUSH3 0x68B JUMP JUMPDEST DUP4 SSTORE POP JUMPDEST PUSH1 0x1 PUSH1 0x2 DUP9 MUL ADD DUP9 SSTORE POP POP POP JUMPDEST POP POP POP POP POP POP JUMP JUMPDEST PUSH1 0x0 DUP2 MLOAD SWAP1 POP SWAP2 SWAP1 POP JUMP JUMPDEST PUSH1 0x0 DUP2 SWAP1 POP DUP2 PUSH1 0x0 MSTORE PUSH1 0x20 PUSH1 0x0 KECCAK256 SWAP1 POP SWAP2 SWAP1 POP JUMP JUMPDEST PUSH1 0x1F DUP3 GT ISZERO PUSH3 0x81B JUMPI PUSH3 0x7E5 DUP2 PUSH3 0x7BB JUMP JUMPDEST PUSH3 0x7F0 DUP5 PUSH3 0x516 JUMP JUMPDEST DUP2 ADD PUSH1 0x20 DUP6 LT ISZERO PUSH3 0x800 JUMPI DUP2 SWAP1 POP JUMPDEST PUSH3 0x818 PUSH3 0x80F DUP6 PUSH3 0x516 JUMP JUMPDEST DUP4 ADD DUP3 PUSH3 0x607 JUMP JUMPDEST POP POP JUMPDEST POP POP POP JUMP JUMPDEST PUSH3 0x82B DUP3 PUSH3 0x7B0 JUMP JUMPDEST PUSH8 0xFFFFFFFFFFFFFFFF DUP2 GT ISZERO PUSH3 0x847 JUMPI PUSH3 0x846 PUSH3 0x2D3 JUMP JUMPDEST JUMPDEST PUSH3 0x853 DUP3 SLOAD PUSH3 0x4CC JUMP JUMPDEST PUSH3 0x860 DUP3 DUP3 DUP6 PUSH3 0x7D0 JUMP JUMPDEST PUSH1 0x0 PUSH1 0x20 SWAP1 POP PUSH1 0x1F DUP4 GT PUSH1 0x1 DUP2 EQ PUSH3 0x898 JUMPI PUSH1 0x0 DUP5 ISZERO PUSH3 0x883 JUMPI DUP3 DUP8 ADD MLOAD SWAP1 POP JUMPDEST PUSH3 0x88F DUP6 DUP3 PUSH3 0x6AB JUMP JUMPDEST DUP7 SSTORE POP PUSH3 0x8FF JUMP JUMPDEST PUSH1 0x1F NOT DUP5 AND PUSH3 0x8A8 DUP7 PUSH3 0x7BB JUMP JUMPDEST PUSH1 0x0 JUMPDEST DUP3 DUP2 LT ISZERO PUSH3 0x8D2 JUMPI DUP5 DUP10 ADD MLOAD DUP3 SSTORE PUSH1 0x1 DUP3 ADD SWAP2 POP PUSH1 0x20 DUP6 ADD SWAP5 POP PUSH1 0x20 DUP2 ADD SWAP1 POP PUSH3 0x8AB JUMP JUMPDEST DUP7 DUP4 LT ISZERO PUSH3 0x8F2 JUMPI DUP5 DUP10 ADD MLOAD PUSH3 0x8EE PUSH1 0x1F DUP10 AND DUP3 PUSH3 0x68B JUMP JUMPDEST DUP4 SSTORE POP JUMPDEST PUSH1 0x1 PUSH1 0x2 DUP9 MUL ADD DUP9 SSTORE POP POP POP JUMPDEST POP POP POP POP POP POP JUMP JUMPDEST PUSH2 0x706 DUP1 PUSH3 0x917 PUSH1 0x0 CODECOPY PUSH1 0x0 RETURN INVALID PUSH1 0x80 PUSH1 0x40 MSTORE CALLVALUE DUP1 ISZERO PUSH2 0x10 JUMPI PUSH1 0x0 DUP1 REVERT JUMPDEST POP PUSH1 0x4 CALLDATASIZE LT PUSH2 0x62 JUMPI PUSH1 0x0 CALLDATALOAD PUSH1 0xE0 SHR DUP1 PUSH4 0x7C000138 EQ PUSH2 0x67 JUMPI DUP1 PUSH4 0xC15BAE84 EQ PUSH2 0x85 JUMPI DUP1 PUSH4 0xD01BB4D5 EQ PUSH2 0xA3 JUMPI DUP1 PUSH4 0xD118D187 EQ PUSH2 0xC1 JUMPI DUP1 PUSH4 0xD46300FD EQ PUSH2 0xDF JUMPI DUP1 PUSH4 0xEE919D50 EQ PUSH2 0xFD JUMPI JUMPDEST PUSH1 0x0 DUP1 REVERT JUMPDEST PUSH2 0x6F PUSH2 0x119 JUMP JUMPDEST PUSH1 0x40 MLOAD PUSH2 0x7C SWAP2 SWAP1 PUSH2 0x4A7 JUMP JUMPDEST PUSH1 0x40 MLOAD DUP1 SWAP2 SUB SWAP1 RETURN JUMPDEST PUSH2 0x8D PUSH2 0x1A7 JUMP JUMPDEST PUSH1 0x40 MLOAD PUSH2 0x9A SWAP2 SWAP1 PUSH2 0x51E JUMP JUMPDEST PUSH1 0x40 MLOAD DUP1 SWAP2 SUB SWAP1 RETURN JUMPDEST PUSH2 0xAB PUSH2 0x235 JUMP JUMPDEST PUSH1 0x40 MLOAD PUSH2 0xB8 SWAP2 SWAP1 PUSH2 0x581 JUMP JUMPDEST PUSH1 0x40 MLOAD DUP1 SWAP2 SUB SWAP1 RETURN JUMPDEST PUSH2 0xC9 PUSH2 0x25B JUMP JUMPDEST PUSH1 0x40 MLOAD PUSH2 0xD6 SWAP2 SWAP1 PUSH2 0x51E JUMP JUMPDEST PUSH1 0x40 MLOAD DUP1 SWAP2 SUB SWAP1 RETURN JUMPDEST PUSH2 0xE7 PUSH2 0x2E9 JUMP JUMPDEST PUSH1 0x40 MLOAD PUSH2 0xF4 SWAP2 SWAP1 PUSH2 0x5B5 JUMP JUMPDEST PUSH1 0x40 MLOAD DUP1 SWAP2 SUB SWAP1 RETURN JUMPDEST PUSH2 0x117 PUSH1 0x4 DUP1 CALLDATASIZE SUB DUP2 ADD SWAP1 PUSH2 0x112 SWAP2 SWAP1 PUSH2 0x601 JUMP JUMPDEST PUSH2 0x380 JUMP JUMPDEST STOP JUMPDEST PUSH1 0x4 DUP1 SLOAD PUSH2 0x126 SWAP1 PUSH2 0x65D JUMP JUMPDEST DUP1 PUSH1 0x1F ADD PUSH1 0x20 DUP1 SWAP2 DIV MUL PUSH1 0x20 ADD PUSH1 0x40 MLOAD SWAP1 DUP2 ADD PUSH1 0x40 MSTORE DUP1 SWAP3 SWAP2 SWAP1 DUP2 DUP2 MSTORE PUSH1 0x20 ADD DUP3 DUP1 SLOAD PUSH2 0x152 SWAP1 PUSH2 0x65D JUMP JUMPDEST DUP1 ISZERO PUSH2 0x19F JUMPI DUP1 PUSH1 0x1F LT PUSH2 0x174 JUMPI PUSH2 0x100 DUP1 DUP4 SLOAD DIV MUL DUP4 MSTORE SWAP2 PUSH1 0x20 ADD SWAP2 PUSH2 0x19F JUMP JUMPDEST DUP3 ADD SWAP2 SWAP1 PUSH1 0x0 MSTORE PUSH1 0x20 PUSH1 0x0 KECCAK256 SWAP1 JUMPDEST DUP2 SLOAD DUP2 MSTORE SWAP1 PUSH1 0x1 ADD SWAP1 PUSH1 0x20 ADD DUP1 DUP4 GT PUSH2 0x182 JUMPI DUP3 SWAP1 SUB PUSH1 0x1F AND DUP3 ADD SWAP2 JUMPDEST POP POP POP POP POP DUP2 JUMP JUMPDEST PUSH1 0x2 DUP1 SLOAD PUSH2 0x1B4 SWAP1 PUSH2 0x65D JUMP JUMPDEST DUP1 PUSH1 0x1F ADD PUSH1 0x20 DUP1 SWAP2 DIV MUL PUSH1 0x20 ADD PUSH1 0x40 MLOAD SWAP1 DUP2 ADD PUSH1 0x40 MSTORE DUP1 SWAP3 SWAP2 SWAP1 DUP2 DUP2 MSTORE PUSH1 0x20 ADD DUP3 DUP1 SLOAD PUSH2 0x1E0 SWAP1 PUSH2 0x65D JUMP JUMPDEST DUP1 ISZERO PUSH2 0x22D JUMPI DUP1 PUSH1 0x1F LT PUSH2 0x202 JUMPI PUSH2 0x100 DUP1 DUP4 SLOAD DIV MUL DUP4 MSTORE SWAP2 PUSH1 0x20 ADD SWAP2 PUSH2 0x22D JUMP JUMPDEST DUP3 ADD SWAP2 SWAP1 PUSH1 0x0 MSTORE PUSH1 0x20 PUSH1 0x0 KECCAK256 SWAP1 JUMPDEST DUP2 SLOAD DUP2 MSTORE SWAP1 PUSH1 0x1 ADD SWAP1 PUSH1 0x20 ADD DUP1 DUP4 GT PUSH2 0x210 JUMPI DUP3 SWAP1 SUB PUSH1 0x1F AND DUP3 ADD SWAP2 JUMPDEST POP POP POP POP POP DUP2 JUMP JUMPDEST PUSH1 0x1 PUSH1 0x0 SWAP1 SLOAD SWAP1 PUSH2 0x100 EXP SWAP1 DIV PUSH20 0xFFFFFFFFFFFFFFFFFFFFFFFFFFFFFFFFFFFFFFFF AND DUP2 JUMP JUMPDEST PUSH1 0x3 DUP1 SLOAD PUSH2 0x268 SWAP1 PUSH2 0x65D JUMP JUMPDEST DUP1 PUSH1 0x1F ADD PUSH1 0x20 DUP1 SWAP2 DIV MUL PUSH1 0x20 ADD PUSH1 0x40 MLOAD SWAP1 DUP2 ADD PUSH1 0x40 MSTORE DUP1 SWAP3 SWAP2 SWAP1 DUP2 DUP2 MSTORE PUSH1 0x20 ADD DUP3 DUP1 SLOAD PUSH2 0x294 SWAP1 PUSH2 0x65D JUMP JUMPDEST DUP1 ISZERO PUSH2 0x2E1 JUMPI DUP1 PUSH1 0x1F LT PUSH2 0x2B6 JUMPI PUSH2 0x100 DUP1 DUP4 SLOAD DIV MUL DUP4 MSTORE SWAP2 PUSH1 0x20 ADD SWAP2 PUSH2 0x2E1 JUMP JUMPDEST DUP3 ADD SWAP2 SWAP1 PUSH1 0x0 MSTORE PUSH1 0x20 PUSH1 0x0 KECCAK256 SWAP1 JUMPDEST DUP2 SLOAD DUP2 MSTORE SWAP1 PUSH1 0x1 ADD SWAP1 PUSH1 0x20 ADD DUP1 DUP4 GT PUSH2 0x2C4 JUMPI DUP3 SWAP1 SUB PUSH1 0x1F AND DUP3 ADD SWAP2 JUMPDEST POP POP POP POP POP DUP2 JUMP JUMPDEST PUSH1 0x0 DUP1 PUSH1 0x0 SWAP1 SLOAD SWAP1 PUSH2 0x100 EXP SWAP1 DIV PUSH20 0xFFFFFFFFFFFFFFFFFFFFFFFFFFFFFFFFFFFFFFFF AND PUSH20 0xFFFFFFFFFFFFFFFFFFFFFFFFFFFFFFFFFFFFFFFF AND PUSH4 0xDBE671F PUSH1 0x40 MLOAD DUP2 PUSH4 0xFFFFFFFF AND PUSH1 0xE0 SHL DUP2 MSTORE PUSH1 0x4 ADD PUSH1 0x20 PUSH1 0x40 MLOAD DUP1 DUP4 SUB DUP2 DUP7 GAS STATICCALL ISZERO DUP1 ISZERO PUSH2 0x357 JUMPI RETURNDATASIZE PUSH1 0x0 DUP1 RETURNDATACOPY RETURNDATASIZE PUSH1 0x0 REVERT JUMPDEST POP POP POP POP PUSH1 0x40 MLOAD RETURNDATASIZE PUSH1 0x1F NOT PUSH1 0x1F DUP3 ADD AND DUP3 ADD DUP1 PUSH1 0x40 MSTORE POP DUP2 ADD SWAP1 PUSH2 0x37B SWAP2 SWAP1 PUSH2 0x6A3 JUMP JUMPDEST SWAP1 POP SWAP1 JUMP JUMPDEST PUSH1 0x0 DUP1 SLOAD SWAP1 PUSH2 0x100 EXP SWAP1 DIV PUSH20 0xFFFFFFFFFFFFFFFFFFFFFFFFFFFFFFFFFFFFFFFF AND PUSH20 0xFFFFFFFFFFFFFFFFFFFFFFFFFFFFFFFFFFFFFFFF AND PUSH4 0xEE919D50 DUP3 PUSH1 0x40 MLOAD DUP3 PUSH4 0xFFFFFFFF AND PUSH1 0xE0 SHL DUP2 MSTORE PUSH1 0x4 ADD PUSH2 0x3D9 SWAP2 SWAP1 PUSH2 0x5B5 JUMP JUMPDEST PUSH1 0x0 PUSH1 0x40 MLOAD DUP1 DUP4 SUB DUP2 PUSH1 0x0 DUP8 DUP1 EXTCODESIZE ISZERO DUP1 ISZERO PUSH2 0x3F3 JUMPI PUSH1 0x0 DUP1 REVERT JUMPDEST POP GAS CALL ISZERO DUP1 ISZERO PUSH2 0x407 JUMPI RETURNDATASIZE PUSH1 0x0 DUP1 RETURNDATACOPY RETURNDATASIZE PUSH1 0x0 REVERT JUMPDEST POP POP POP POP POP JUMP JUMPDEST PUSH1 0x0 DUP2 MLOAD SWAP1 POP SWAP2 SWAP1 POP JUMP JUMPDEST PUSH1 0x0 DUP3 DUP3 MSTORE PUSH1 0x20 DUP3 ADD SWAP1 POP SWAP3 SWAP2 POP POP JUMP JUMPDEST PUSH1 0x0 JUMPDEST DUP4 DUP2 LT ISZERO PUSH2 0x448 JUMPI DUP1 DUP3 ADD MLOAD DUP2 DUP5 ADD MSTORE PUSH1 0x20 DUP2 ADD SWAP1 POP PUSH2 0x42D JUMP JUMPDEST DUP4 DUP2 GT ISZERO PUSH2 0x457 JUMPI PUSH1 0x0 DUP5 DUP5 ADD MSTORE JUMPDEST POP POP POP POP JUMP JUMPDEST PUSH1 0x0 PUSH1 0x1F NOT PUSH1 0x1F DUP4 ADD AND SWAP1 POP SWAP2 SWAP1 POP JUMP JUMPDEST PUSH1 0x0 PUSH2 0x479 DUP3 PUSH2 0x40E JUMP JUMPDEST PUSH2 0x483 DUP2 DUP6 PUSH2 0x419 JUMP JUMPDEST SWAP4 POP PUSH2 0x493 DUP2 DUP6 PUSH1 0x20 DUP7 ADD PUSH2 0x42A JUMP JUMPDEST PUSH2 0x49C DUP2 PUSH2 0x45D JUMP JUMPDEST DUP5 ADD SWAP2 POP POP SWAP3 SWAP2 POP POP JUMP JUMPDEST PUSH1 0x0 PUSH1 0x20 DUP3 ADD SWAP1 POP DUP2 DUP2 SUB PUSH1 0x0 DUP4 ADD MSTORE PUSH2 0x4C1 DUP2 DUP5 PUSH2 0x46E JUMP JUMPDEST SWAP1 POP SWAP3 SWAP2 POP POP JUMP JUMPDEST PUSH1 0x0 DUP2 MLOAD SWAP1 POP SWAP2 SWAP1 POP JUMP JUMPDEST PUSH1 0x0 DUP3 DUP3 MSTORE PUSH1 0x20 DUP3 ADD SWAP1 POP SWAP3 SWAP2 POP POP JUMP JUMPDEST PUSH1 0x0 PUSH2 0x4F0 DUP3 PUSH2 0x4C9 JUMP JUMPDEST PUSH2 0x4FA DUP2 DUP6 PUSH2 0x4D4 JUMP JUMPDEST SWAP4 POP PUSH2 0x50A DUP2 DUP6 PUSH1 0x20 DUP7 ADD PUSH2 0x42A JUMP JUMPDEST PUSH2 0x513 DUP2 PUSH2 0x45D JUMP JUMPDEST DUP5 ADD SWAP2 POP POP SWAP3 SWAP2 POP POP JUMP JUMPDEST PUSH1 0x0 PUSH1 0x20 DUP3 ADD SWAP1 POP DUP2 DUP2 SUB PUSH1 0x0 DUP4 ADD MSTORE PUSH2 0x538 DUP2 DUP5 PUSH2 0x4E5 JUMP JUMPDEST SWAP1 POP SWAP3 SWAP2 POP POP JUMP JUMPDEST PUSH1 0x0 PUSH20 0xFFFFFFFFFFFFFFFFFFFFFFFFFFFFFFFFFFFFFFFF DUP3 AND SWAP1 POP SWAP2 SWAP1 POP JUMP JUMPDEST PUSH1 0x0 PUSH2 0x56B DUP3 PUSH2 0x540 JUMP JUMPDEST SWAP1 POP SWAP2 SWAP1 POP JUMP JUMPDEST PUSH2 0x57B DUP2 PUSH2 0x560 JUMP JUMPDEST DUP3 MSTORE POP POP JUMP JUMPDEST PUSH1 0x0 PUSH1 0x20 DUP3 ADD SWAP1 POP PUSH2 0x596 PUSH1 0x0 DUP4 ADD DUP5 PUSH2 0x572 JUMP JUMPDEST SWAP3 SWAP2 POP POP JUMP JUMPDEST PUSH1 0x0 DUP2 SWAP1 POP SWAP2 SWAP1 POP JUMP JUMPDEST PUSH2 0x5AF DUP2 PUSH2 0x59C JUMP JUMPDEST DUP3 MSTORE POP POP JUMP JUMPDEST PUSH1 0x0 PUSH1 0x20 DUP3 ADD SWAP1 POP PUSH2 0x5CA PUSH1 0x0 DUP4 ADD DUP5 PUSH2 0x5A6 JUMP JUMPDEST SWAP3 SWAP2 POP POP JUMP JUMPDEST PUSH1 0x0 DUP1 REVERT JUMPDEST PUSH2 0x5DE DUP2 PUSH2 0x59C JUMP JUMPDEST DUP2 EQ PUSH2 0x5E9 JUMPI PUSH1 0x0 DUP1 REVERT JUMPDEST POP JUMP JUMPDEST PUSH1 0x0 DUP2 CALLDATALOAD SWAP1 POP PUSH2 0x5FB DUP2 PUSH2 0x5D5 JUMP JUMPDEST SWAP3 SWAP2 POP POP JUMP JUMPDEST PUSH1 0x0 PUSH1 0x20 DUP3 DUP5 SUB SLT ISZERO PUSH2 0x617 JUMPI PUSH2 0x616 PUSH2 0x5D0 JUMP JUMPDEST JUMPDEST PUSH1 0x0 PUSH2 0x625 DUP5 DUP3 DUP6 ADD PUSH2 0x5EC JUMP JUMPDEST SWAP2 POP POP SWAP3 SWAP2 POP POP JUMP JUMPDEST PUSH32 0x4E487B7100000000000000000000000000000000000000000000000000000000 PUSH1 0x0 MSTORE PUSH1 0x22 PUSH1 0x4 MSTORE PUSH1 0x24 PUSH1 0x0 REVERT JUMPDEST PUSH1 0x0 PUSH1 0x2 DUP3 DIV SWAP1 POP PUSH1 0x1 DUP3 AND DUP1 PUSH2 0x675 JUMPI PUSH1 0x7F DUP3 AND SWAP2 POP JUMPDEST PUSH1 0x20 DUP3 LT DUP2 SUB PUSH2 0x688 JUMPI PUSH2 0x687 PUSH2 0x62E JUMP JUMPDEST JUMPDEST POP SWAP2 SWAP1 POP JUMP JUMPDEST PUSH1 0x0 DUP2 MLOAD SWAP1 POP PUSH2 0x69D DUP2 PUSH2 0x5D5 JUMP JUMPDEST SWAP3 SWAP2 POP POP JUMP JUMPDEST PUSH1 0x0 PUSH1 0x20 DUP3 DUP5 SUB SLT ISZERO PUSH2 0x6B9 JUMPI PUSH2 0x6B8 PUSH2 0x5D0 JUMP JUMPDEST JUMPDEST PUSH1 0x0 PUSH2 0x6C7 DUP5 DUP3 DUP6 ADD PUSH2 0x68E JUMP JUMPDEST SWAP2 POP POP SWAP3 SWAP2 POP POP JUMP INVALID LOG2 PUSH5 0x6970667358 0x22 SLT KECCAK256 GASPRICE 0xC2 PUSH27 0xC6FCD2D222B1B5AEA4A1B6F495CF517CA24FD9870AA1442F880CEB DUP9 DUP13 PUSH5 0x736F6C6343 STOP ADDMOD 0xF STOP CALLER PUSH1 0x80 PUSH1 0x40 MSTORE PUSH1 0x40 MLOAD PUSH2 0x33C CODESIZE SUB DUP1 PUSH2 0x33C DUP4 CODECOPY DUP2 DUP2 ADD PUSH1 0x40 MSTORE DUP2 ADD SWAP1 PUSH2 0x25 SWAP2 SWAP1 PUSH2 0x6D JUMP JUMPDEST DUP1 PUSH1 0x0 DUP2 SWAP1 SSTORE POP POP PUSH2 0x9A JUMP JUMPDEST PUSH1 0x0 DUP1 REVERT JUMPDEST PUSH1 0x0 DUP2 SWAP1 POP SWAP2 SWAP1 POP JUMP JUMPDEST PUSH2 0x4A DUP2 PUSH2 0x37 JUMP JUMPDEST DUP2 EQ PUSH2 0x55 JUMPI PUSH1 0x0 DUP1 REVERT JUMPDEST POP JUMP JUMPDEST PUSH1 0x0 DUP2 MLOAD SWAP1 POP PUSH2 0x67 DUP2 PUSH2 0x41 JUMP JUMPDEST SWAP3 SWAP2 POP POP JUMP JUMPDEST PUSH1 0x0 PUSH1 0x20 DUP3 DUP5 SUB SLT ISZERO PUSH2 0x83 JUMPI PUSH2 0x82 PUSH2 0x32 JUMP JUMPDEST JUMPDEST PUSH1 0x0 PUSH2 0x91 DUP5 DUP3 DUP6 ADD PUSH2 0x58 JUMP JUMPDEST SWAP2 POP POP SWAP3 SWAP2 POP POP JUMP JUMPDEST PUSH2 0x293 DUP1 PUSH2 0xA9 PUSH1 0x0 CODECOPY PUSH1 0x0 RETURN INVALID PUSH1 0x80 PUSH1 0x40 MSTORE PUSH1 0x4 CALLDATASIZE LT PUSH2 0x38 JUMPI PUSH1 0x0 CALLDATALOAD PUSH1 0xE0 SHR DUP1 PUSH4 0xDBE671F EQ PUSH2 0x44 JUMPI DUP1 PUSH4 0xEE919D50 EQ PUSH2 0x6F JUMPI DUP1 PUSH4 0xF5F5BA72 EQ PUSH2 0x98 JUMPI PUSH2 0x3F JUMP JUMPDEST CALLDATASIZE PUSH2 0x3F JUMPI STOP JUMPDEST PUSH1 0x0 DUP1 REVERT JUMPDEST CALLVALUE DUP1 ISZERO PUSH2 0x50 JUMPI PUSH1 0x0 DUP1 REVERT JUMPDEST POP PUSH2 0x59 PUSH2 0xC3 JUMP JUMPDEST PUSH1 0x40 MLOAD PUSH2 0x66 SWAP2 SWAP1 PUSH2 0x129 JUMP JUMPDEST PUSH1 0x40 MLOAD DUP1 SWAP2 SUB SWAP1 RETURN JUMPDEST CALLVALUE DUP1 ISZERO PUSH2 0x7B JUMPI PUSH1 0x0 DUP1 REVERT JUMPDEST POP PUSH2 0x96 PUSH1 0x4 DUP1 CALLDATASIZE SUB DUP2 ADD SWAP1 PUSH2 0x91 SWAP2 SWAP1 PUSH2 0x175 JUMP JUMPDEST PUSH2 0xC9 JUMP JUMPDEST STOP JUMPDEST CALLVALUE DUP1 ISZERO PUSH2 0xA4 JUMPI PUSH1 0x0 DUP1 REVERT JUMPDEST POP PUSH2 0xAD PUSH2 0xD3 JUMP JUMPDEST PUSH1 0x40 MLOAD PUSH2 0xBA SWAP2 SWAP1 PUSH2 0x23B JUMP JUMPDEST PUSH1 0x40 MLOAD DUP1 SWAP2 SUB SWAP1 RETURN JUMPDEST PUSH1 0x0 SLOAD DUP2 JUMP JUMPDEST DUP1 PUSH1 0x0 DUP2 SWAP1 SSTORE POP POP JUMP JUMPDEST PUSH1 0x60 PUSH1 0x40 MLOAD DUP1 PUSH1 0x40 ADD PUSH1 0x40 MSTORE DUP1 PUSH1 0xC DUP2 MSTORE PUSH1 0x20 ADD PUSH32 0x74657374436F6E74726163740000000000000000000000000000000000000000 DUP2 MSTORE POP SWAP1 POP SWAP1 JUMP JUMPDEST PUSH1 0x0 DUP2 SWAP1 POP SWAP2 SWAP1 POP JUMP JUMPDEST PUSH2 0x123 DUP2 PUSH2 0x110 JUMP JUMPDEST DUP3 MSTORE POP POP JUMP JUMPDEST PUSH1 0x0 PUSH1 0x20 DUP3 ADD SWAP1 POP PUSH2 0x13E PUSH1 0x0 DUP4 ADD DUP5 PUSH2 0x11A JUMP JUMPDEST SWAP3 SWAP2 POP POP JUMP JUMPDEST PUSH1 0x0 DUP1 REVERT JUMPDEST PUSH2 0x152 DUP2 PUSH2 0x110 JUMP JUMPDEST DUP2 EQ PUSH2 0x15D JUMPI PUSH1 0x0 DUP1 REVERT JUMPDEST POP JUMP JUMPDEST PUSH1 0x0 DUP2 CALLDATALOAD SWAP1 POP PUSH2 0x16F DUP2 PUSH2 0x149 JUMP JUMPDEST SWAP3 SWAP2 POP POP JUMP JUMPDEST PUSH1 0x0 PUSH1 0x20 DUP3 DUP5 SUB SLT ISZERO PUSH2 0x18B JUMPI PUSH2 0x18A PUSH2 0x144 JUMP JUMPDEST JUMPDEST PUSH1 0x0 PUSH2 0x199 DUP5 DUP3 DUP6 ADD PUSH2 0x160 JUMP JUMPDEST SWAP2 POP POP SWAP3 SWAP2 POP POP JUMP JUMPDEST PUSH1 0x0 DUP2 MLOAD SWAP1 POP SWAP2 SWAP1 POP JUMP JUMPDEST PUSH1 0x0 DUP3 DUP3 MSTORE PUSH1 0x20 DUP3 ADD SWAP1 POP SWAP3 SWAP2 POP POP JUMP JUMPDEST PUSH1 0x0 JUMPDEST DUP4 DUP2 LT ISZERO PUSH2 0x1DC JUMPI DUP1 DUP3 ADD MLOAD DUP2 DUP5 ADD MSTORE PUSH1 0x20 DUP2 ADD SWAP1 POP PUSH2 0x1C1 JUMP JUMPDEST DUP4 DUP2 GT ISZERO PUSH2 0x1EB JUMPI PUSH1 0x0 DUP5 DUP5 ADD MSTORE JUMPDEST POP POP POP POP JUMP JUMPDEST PUSH1 0x0 PUSH1 0x1F NOT PUSH1 0x1F DUP4 ADD AND SWAP1 POP SWAP2 SWAP1 POP JUMP JUMPDEST PUSH1 0x0 PUSH2 0x20D DUP3 PUSH2 0x1A2 JUMP JUMPDEST PUSH2 0x217 DUP2 DUP6 PUSH2 0x1AD JUMP JUMPDEST SWAP4 POP PUSH2 0x227 DUP2 DUP6 PUSH1 0x20 DUP7 ADD PUSH2 0x1BE JUMP JUMPDEST PUSH2 0x230 DUP2 PUSH2 0x1F1 JUMP JUMPDEST DUP5 ADD SWAP2 POP POP SWAP3 SWAP2 POP POP JUMP JUMPDEST PUSH1 0x0 PUSH1 0x20 DUP3 ADD SWAP1 POP DUP2 DUP2 SUB PUSH1 0x0 DUP4 ADD MSTORE PUSH2 0x255 DUP2 DUP5 PUSH2 0x202 JUMP JUMPDEST SWAP1 POP SWAP3 SWAP2 POP POP JUMP INVALID LOG2 PUSH5 0x6970667358 0x22 SLT KECCAK256 0xCB SWAP8 PUSH8 0xEE82B61A6A0912A4 0x5E 0xAD 0xA6 JUMPDEST 0xDD 0xAC KECCAK256 0xCC DUP1 EXTCODECOPY PUSH17 0x20A7E04D9BF2892F24AF64736F6C634300 ADDMOD 0xF STOP CALLER "
				},
				"gasEstimates": {
					"creation": {
						"codeDepositCost": "359600",
						"executionCost": "infinite",
						"totalCost": "infinite"
					},
					"external": {
						"by()": "infinite",
						"contractaddr()": "2536",
						"getA()": "infinite",
						"setA(uint256)": "infinite",
						"str()": "infinite",
						"str1()": "infinite"
					}
				},
				"methodIdentifiers": {
					"by()": "7c000138",
					"contractaddr()": "d01bb4d5",
					"getA()": "d46300fd",
					"setA(uint256)": "ee919d50",
					"str()": "c15bae84",
					"str1()": "d118d187"
				}
			},
			"storageLayout": {
				"storage": [
					{
						"astId": 50,
						"contract": "study/chapter04/newContract.sol:callContract",
						"label": "t",
						"offset": 0,
						"slot": "0",
						"type": "t_contract(testContract)36"
					},
					{
						"astId": 56,
						"contract": "study/chapter04/newContract.sol:callContract",
						"label": "contractaddr",
						"offset": 0,
						"slot": "1",
						"type": "t_address"
					},
					{
						"astId": 61,
						"contract": "study/chapter04/newContract.sol:callContract",
						"label": "str",
						"offset": 0,
						"slot": "2",
						"type": "t_string_storage"
					},
					{
						"astId": 89,
						"contract": "study/chapter04/newContract.sol:callContract",
						"label": "str1",
						"offset": 0,
						"slot": "3",
						"type": "t_string_storage"
					},
					{
						"astId": 95,
						"contract": "study/chapter04/newContract.sol:callContract",
						"label": "by",
						"offset": 0,
						"slot": "4",
						"type": "t_bytes_storage"
					}
				],
				"types": {
					"t_address": {
						"encoding": "inplace",
						"label": "address",
						"numberOfBytes": "20"
					},
					"t_bytes_storage": {
						"encoding": "bytes",
						"label": "bytes",
						"numberOfBytes": "32"
					},
					"t_contract(testContract)36": {
						"encoding": "inplace",
						"label": "contract testContract",
						"numberOfBytes": "20"
					},
					"t_string_storage": {
						"encoding": "bytes",
						"label": "string",
						"numberOfBytes": "32"
					}
				}
			},
			"userdoc": {
				"kind": "user",
				"methods": {},
				"version": 1
			}
		}
	}
}