{
	"contract/chapter04/ty.sol": {
		"FeedConsumer": {
			"abi": [
				{
					"inputs": [],
					"name": "errorCount",
					"outputs": [
						{
							"internalType": "uint256",
							"name": "",
							"type": "uint256"
						}
					],
					"stateMutability": "view",
					"type": "function"
				},
				{
					"inputs": [],
					"name": "testAdd",
					"outputs": [
						{
							"internalType": "uint256",
							"name": "value",
							"type": "uint256"
						},
						{
							"internalType": "bool",
							"name": "success",
							"type": "bool"
						}
					],
					"stateMutability": "nonpayable",
					"type": "function"
				},
				{
					"inputs": [],
					"name": "value",
					"outputs": [
						{
							"internalType": "uint256",
							"name": "",
							"type": "uint256"
						}
					],
					"stateMutability": "view",
					"type": "function"
				}
			],
			"devdoc": {
				"kind": "dev",
				"methods": {},
				"version": 1
			},
			"evm": {
				"assembly": "    /* \"contract/chapter04/ty.sol\":294:1228  contract FeedConsumer {\r... */\n  mstore(0x40, 0x80)\n    /* \"contract/chapter04/ty.sol\":339:353  new DataFeed() */\n  mload(0x40)\n  tag_1\n  swap1\n  tag_2\n  jump\t// in\ntag_1:\n  mload(0x40)\n  dup1\n  swap2\n  sub\n  swap1\n  0x00\n  create\n  dup1\n  iszero\n  dup1\n  iszero\n  tag_3\n  jumpi\n  returndatasize\n  0x00\n  dup1\n  returndatacopy\n  revert(0x00, returndatasize)\ntag_3:\n  pop\n    /* \"contract/chapter04/ty.sol\":323:353  DataFeed feed = new DataFeed() */\n  0x00\n  dup1\n  0x0100\n  exp\n  dup2\n  sload\n  dup2\n  0xffffffffffffffffffffffffffffffffffffffff\n  mul\n  not\n  and\n  swap1\n  dup4\n  0xffffffffffffffffffffffffffffffffffffffff\n  and\n  mul\n  or\n  swap1\n  sstore\n  pop\n    /* \"contract/chapter04/ty.sol\":294:1228  contract FeedConsumer {\r... */\n  callvalue\n  dup1\n  iszero\n  tag_4\n  jumpi\n  0x00\n  dup1\n  revert\ntag_4:\n  pop\n  jump(tag_5)\ntag_2:\n  dataSize(sub_1)\n  dup1\n  dataOffset(sub_1)\n  dup4\n  codecopy\n  add\n  swap1\n  jump\t// out\ntag_5:\n  dataSize(sub_0)\n  dup1\n  dataOffset(sub_0)\n  0x00\n  codecopy\n  0x00\n  return\nstop\n\nsub_0: assembly {\n        /* \"contract/chapter04/ty.sol\":294:1228  contract FeedConsumer {\r... */\n      mstore(0x40, 0x80)\n      callvalue\n      dup1\n      iszero\n      tag_1\n      jumpi\n      0x00\n      dup1\n      revert\n    tag_1:\n      pop\n      jumpi(tag_2, lt(calldatasize, 0x04))\n      shr(0xe0, calldataload(0x00))\n      dup1\n      0x3fa4f245\n      eq\n      tag_3\n      jumpi\n      dup1\n      0xae40f72f\n      eq\n      tag_4\n      jumpi\n      dup1\n      0xd38dbee6\n      eq\n      tag_5\n      jumpi\n    tag_2:\n      0x00\n      dup1\n      revert\n        /* \"contract/chapter04/ty.sol\":1205:1222  uint public value */\n    tag_3:\n      tag_6\n      tag_7\n      jump\t// in\n    tag_6:\n      mload(0x40)\n      tag_8\n      swap2\n      swap1\n      tag_9\n      jump\t// in\n    tag_8:\n      mload(0x40)\n      dup1\n      swap2\n      sub\n      swap1\n      return\n        /* \"contract/chapter04/ty.sol\":432:1199  function testAdd() public returns (uint value, bool success) {\r... */\n    tag_4:\n      tag_10\n      tag_11\n      jump\t// in\n    tag_10:\n      mload(0x40)\n      tag_12\n      swap3\n      swap2\n      swap1\n      tag_13\n      jump\t// in\n    tag_12:\n      mload(0x40)\n      dup1\n      swap2\n      sub\n      swap1\n      return\n        /* \"contract/chapter04/ty.sol\":383:405  uint public errorCount */\n    tag_5:\n      tag_14\n      tag_15\n      jump\t// in\n    tag_14:\n      mload(0x40)\n      tag_16\n      swap2\n      swap1\n      tag_9\n      jump\t// in\n    tag_16:\n      mload(0x40)\n      dup1\n      swap2\n      sub\n      swap1\n      return\n        /* \"contract/chapter04/ty.sol\":1205:1222  uint public value */\n    tag_7:\n      sload(0x02)\n      dup2\n      jump\t// out\n        /* \"contract/chapter04/ty.sol\":432:1199  function testAdd() public returns (uint value, bool success) {\r... */\n    tag_11:\n        /* \"contract/chapter04/ty.sol\":467:477  uint value */\n      0x00\n        /* \"contract/chapter04/ty.sol\":479:491  bool success */\n      dup1\n        /* \"contract/chapter04/ty.sol\":508:512  feed */\n      0x00\n      dup1\n      sload\n      swap1\n      0x0100\n      exp\n      swap1\n      div\n      0xffffffffffffffffffffffffffffffffffffffff\n      and\n        /* \"contract/chapter04/ty.sol\":508:516  feed.add */\n      0xffffffffffffffffffffffffffffffffffffffff\n      and\n      0x771602f7\n        /* \"contract/chapter04/ty.sol\":517:518  5 */\n      0x05\n        /* \"contract/chapter04/ty.sol\":519:520  0 */\n      0x00\n        /* \"contract/chapter04/ty.sol\":508:521  feed.add(5,0) */\n      mload(0x40)\n      dup4\n      0xffffffff\n      and\n      0xe0\n      shl\n      dup2\n      mstore\n      0x04\n      add\n      tag_18\n      swap3\n      swap2\n      swap1\n      tag_19\n      jump\t// in\n    tag_18:\n      0x20\n      mload(0x40)\n      dup1\n      dup4\n      sub\n      dup2\n      dup7\n      dup1\n      extcodesize\n      iszero\n      dup1\n      iszero\n      tag_20\n      jumpi\n      0x00\n      dup1\n      revert\n    tag_20:\n      pop\n      gas\n      staticcall\n      swap3\n      pop\n      pop\n      pop\n      dup1\n      iszero\n      tag_21\n      jumpi\n      pop\n      mload(0x40)\n      returndatasize\n      not(0x1f)\n      0x1f\n      dup3\n      add\n      and\n      dup3\n      add\n      dup1\n      0x40\n      mstore\n      pop\n      dup2\n      add\n      swap1\n      tag_22\n      swap2\n      swap1\n      tag_23\n      jump\t// in\n    tag_22:\n      0x01\n    tag_21:\n        /* \"contract/chapter04/ty.sol\":504:1192  try feed.add(5,0) returns (uint v) {//尝试调用 外部的 getData 函数，执行成功就获得返回值，然后继续执行花括号内的内容\r... */\n      tag_24\n      jumpi\n      tag_28\n      tag_29\n      jump\t// in\n    tag_28:\n      dup1\n      0x08c379a0\n      eq\n      iszero\n      tag_27\n      jumpi\n      pop\n      tag_30\n      tag_31\n      jump\t// in\n    tag_30:\n      dup1\n      tag_32\n      jumpi\n      pop\n      jump(tag_26)\n    tag_32:\n        /* \"contract/chapter04/ty.sol\":829:839  errorCount */\n      0x01\n      0x00\n        /* \"contract/chapter04/ty.sol\":829:841  errorCount++ */\n      dup2\n      sload\n      dup1\n      swap3\n      swap2\n      swap1\n      tag_33\n      swap1\n      tag_34\n      jump\t// in\n    tag_33:\n      swap2\n      swap1\n      pop\n      sstore\n      pop\n        /* \"contract/chapter04/ty.sol\":864:867  100 */\n      0x64\n        /* \"contract/chapter04/ty.sol\":869:874  false */\n      0x00\n        /* \"contract/chapter04/ty.sol\":856:875  return (100, false) */\n      swap3\n      pop\n      swap3\n      pop\n      pop\n      jump(tag_17)\n        /* \"contract/chapter04/ty.sol\":504:1192  try feed.add(5,0) returns (uint v) {//尝试调用 外部的 getData 函数，执行成功就获得返回值，然后继续执行花括号内的内容\r... */\n    tag_27:\n      0x4e487b71\n      eq\n      iszero\n      tag_26\n      jumpi\n      tag_35\n      tag_36\n      jump\t// in\n    tag_35:\n      swap1\n      tag_37\n      jumpi\n      pop\n      jump(tag_26)\n    tag_37:\n        /* \"contract/chapter04/ty.sol\":972:982  errorCount */\n      0x01\n      0x00\n        /* \"contract/chapter04/ty.sol\":972:984  errorCount++ */\n      dup2\n      sload\n      dup1\n      swap3\n      swap2\n      swap1\n      tag_38\n      swap1\n      tag_34\n      jump\t// in\n    tag_38:\n      swap2\n      swap1\n      pop\n      sstore\n      pop\n        /* \"contract/chapter04/ty.sol\":1007:1010  200 */\n      0xc8\n        /* \"contract/chapter04/ty.sol\":1012:1017  false */\n      0x00\n        /* \"contract/chapter04/ty.sol\":999:1018  return (200, false) */\n      swap3\n      pop\n      swap3\n      pop\n      pop\n      jump(tag_17)\n        /* \"contract/chapter04/ty.sol\":504:1192  try feed.add(5,0) returns (uint v) {//尝试调用 外部的 getData 函数，执行成功就获得返回值，然后继续执行花括号内的内容\r... */\n    tag_26:\n      returndatasize\n      dup1\n      0x00\n      dup2\n      eq\n      tag_40\n      jumpi\n      mload(0x40)\n      swap2\n      pop\n      and(add(returndatasize, 0x3f), not(0x1f))\n      dup3\n      add\n      0x40\n      mstore\n      returndatasize\n      dup3\n      mstore\n      returndatasize\n      0x00\n      0x20\n      dup5\n      add\n      returndatacopy\n      jump(tag_39)\n    tag_40:\n      0x60\n      swap2\n      pop\n    tag_39:\n      pop\n        /* \"contract/chapter04/ty.sol\":1134:1144  errorCount */\n      0x01\n      0x00\n        /* \"contract/chapter04/ty.sol\":1134:1146  errorCount++ */\n      dup2\n      sload\n      dup1\n      swap3\n      swap2\n      swap1\n      tag_41\n      swap1\n      tag_34\n      jump\t// in\n    tag_41:\n      swap2\n      swap1\n      pop\n      sstore\n      pop\n        /* \"contract/chapter04/ty.sol\":1169:1172  300 */\n      0x012c\n        /* \"contract/chapter04/ty.sol\":1174:1179  false */\n      0x00\n        /* \"contract/chapter04/ty.sol\":1161:1180  return (300, false) */\n      swap3\n      pop\n      swap3\n      pop\n      pop\n      jump(tag_17)\n        /* \"contract/chapter04/ty.sol\":504:1192  try feed.add(5,0) returns (uint v) {//尝试调用 外部的 getData 函数，执行成功就获得返回值，然后继续执行花括号内的内容\r... */\n    tag_24:\n        /* \"contract/chapter04/ty.sol\":676:677  v */\n      dup1\n        /* \"contract/chapter04/ty.sol\":679:683  true */\n      0x01\n        /* \"contract/chapter04/ty.sol\":668:684  return (v, true) */\n      swap3\n      pop\n      swap3\n      pop\n      pop\n        /* \"contract/chapter04/ty.sol\":432:1199  function testAdd() public returns (uint value, bool success) {\r... */\n    tag_17:\n      swap1\n      swap2\n      jump\t// out\n        /* \"contract/chapter04/ty.sol\":383:405  uint public errorCount */\n    tag_15:\n      sload(0x01)\n      dup2\n      jump\t// out\n        /* \"#utility.yul\":7:150   */\n    tag_44:\n        /* \"#utility.yul\":64:69   */\n      0x00\n        /* \"#utility.yul\":95:101   */\n      dup2\n        /* \"#utility.yul\":89:102   */\n      mload\n        /* \"#utility.yul\":80:102   */\n      swap1\n      pop\n        /* \"#utility.yul\":111:144   */\n      tag_46\n        /* \"#utility.yul\":138:143   */\n      dup2\n        /* \"#utility.yul\":111:144   */\n      tag_47\n      jump\t// in\n    tag_46:\n        /* \"#utility.yul\":7:150   */\n      swap3\n      swap2\n      pop\n      pop\n      jump\t// out\n        /* \"#utility.yul\":156:507   */\n    tag_23:\n        /* \"#utility.yul\":226:232   */\n      0x00\n        /* \"#utility.yul\":275:277   */\n      0x20\n        /* \"#utility.yul\":263:272   */\n      dup3\n        /* \"#utility.yul\":254:261   */\n      dup5\n        /* \"#utility.yul\":250:273   */\n      sub\n        /* \"#utility.yul\":246:278   */\n      slt\n        /* \"#utility.yul\":243:362   */\n      iszero\n      tag_49\n      jumpi\n        /* \"#utility.yul\":281:360   */\n      tag_50\n      tag_51\n      jump\t// in\n    tag_50:\n        /* \"#utility.yul\":243:362   */\n    tag_49:\n        /* \"#utility.yul\":401:402   */\n      0x00\n        /* \"#utility.yul\":426:490   */\n      tag_52\n        /* \"#utility.yul\":482:489   */\n      dup5\n        /* \"#utility.yul\":473:479   */\n      dup3\n        /* \"#utility.yul\":462:471   */\n      dup6\n        /* \"#utility.yul\":458:480   */\n      add\n        /* \"#utility.yul\":426:490   */\n      tag_44\n      jump\t// in\n    tag_52:\n        /* \"#utility.yul\":416:490   */\n      swap2\n      pop\n        /* \"#utility.yul\":372:500   */\n      pop\n        /* \"#utility.yul\":156:507   */\n      swap3\n      swap2\n      pop\n      pop\n      jump\t// out\n        /* \"#utility.yul\":513:622   */\n    tag_53:\n        /* \"#utility.yul\":594:615   */\n      tag_55\n        /* \"#utility.yul\":609:614   */\n      dup2\n        /* \"#utility.yul\":594:615   */\n      tag_56\n      jump\t// in\n    tag_55:\n        /* \"#utility.yul\":589:592   */\n      dup3\n        /* \"#utility.yul\":582:616   */\n      mstore\n        /* \"#utility.yul\":513:622   */\n      pop\n      pop\n      jump\t// out\n        /* \"#utility.yul\":628:775   */\n    tag_57:\n        /* \"#utility.yul\":723:768   */\n      tag_59\n        /* \"#utility.yul\":762:767   */\n      dup2\n        /* \"#utility.yul\":723:768   */\n      tag_60\n      jump\t// in\n    tag_59:\n        /* \"#utility.yul\":718:721   */\n      dup3\n        /* \"#utility.yul\":711:769   */\n      mstore\n        /* \"#utility.yul\":628:775   */\n      pop\n      pop\n      jump\t// out\n        /* \"#utility.yul\":781:928   */\n    tag_61:\n        /* \"#utility.yul\":876:921   */\n      tag_63\n        /* \"#utility.yul\":915:920   */\n      dup2\n        /* \"#utility.yul\":876:921   */\n      tag_64\n      jump\t// in\n    tag_63:\n        /* \"#utility.yul\":871:874   */\n      dup3\n        /* \"#utility.yul\":864:922   */\n      mstore\n        /* \"#utility.yul\":781:928   */\n      pop\n      pop\n      jump\t// out\n        /* \"#utility.yul\":934:1052   */\n    tag_65:\n        /* \"#utility.yul\":1021:1045   */\n      tag_67\n        /* \"#utility.yul\":1039:1044   */\n      dup2\n        /* \"#utility.yul\":1021:1045   */\n      tag_68\n      jump\t// in\n    tag_67:\n        /* \"#utility.yul\":1016:1019   */\n      dup3\n        /* \"#utility.yul\":1009:1046   */\n      mstore\n        /* \"#utility.yul\":934:1052   */\n      pop\n      pop\n      jump\t// out\n        /* \"#utility.yul\":1058:1422   */\n    tag_19:\n        /* \"#utility.yul\":1195:1199   */\n      0x00\n        /* \"#utility.yul\":1233:1235   */\n      0x40\n        /* \"#utility.yul\":1222:1231   */\n      dup3\n        /* \"#utility.yul\":1218:1236   */\n      add\n        /* \"#utility.yul\":1210:1236   */\n      swap1\n      pop\n        /* \"#utility.yul\":1246:1325   */\n      tag_70\n        /* \"#utility.yul\":1322:1323   */\n      0x00\n        /* \"#utility.yul\":1311:1320   */\n      dup4\n        /* \"#utility.yul\":1307:1324   */\n      add\n        /* \"#utility.yul\":1298:1304   */\n      dup6\n        /* \"#utility.yul\":1246:1325   */\n      tag_61\n      jump\t// in\n    tag_70:\n        /* \"#utility.yul\":1335:1415   */\n      tag_71\n        /* \"#utility.yul\":1411:1413   */\n      0x20\n        /* \"#utility.yul\":1400:1409   */\n      dup4\n        /* \"#utility.yul\":1396:1414   */\n      add\n        /* \"#utility.yul\":1387:1393   */\n      dup5\n        /* \"#utility.yul\":1335:1415   */\n      tag_57\n      jump\t// in\n    tag_71:\n        /* \"#utility.yul\":1058:1422   */\n      swap4\n      swap3\n      pop\n      pop\n      pop\n      jump\t// out\n        /* \"#utility.yul\":1428:1650   */\n    tag_9:\n        /* \"#utility.yul\":1521:1525   */\n      0x00\n        /* \"#utility.yul\":1559:1561   */\n      0x20\n        /* \"#utility.yul\":1548:1557   */\n      dup3\n        /* \"#utility.yul\":1544:1562   */\n      add\n        /* \"#utility.yul\":1536:1562   */\n      swap1\n      pop\n        /* \"#utility.yul\":1572:1643   */\n      tag_73\n        /* \"#utility.yul\":1640:1641   */\n      0x00\n        /* \"#utility.yul\":1629:1638   */\n      dup4\n        /* \"#utility.yul\":1625:1642   */\n      add\n        /* \"#utility.yul\":1616:1622   */\n      dup5\n        /* \"#utility.yul\":1572:1643   */\n      tag_65\n      jump\t// in\n    tag_73:\n        /* \"#utility.yul\":1428:1650   */\n      swap3\n      swap2\n      pop\n      pop\n      jump\t// out\n        /* \"#utility.yul\":1656:1976   */\n    tag_13:\n        /* \"#utility.yul\":1771:1775   */\n      0x00\n        /* \"#utility.yul\":1809:1811   */\n      0x40\n        /* \"#utility.yul\":1798:1807   */\n      dup3\n        /* \"#utility.yul\":1794:1812   */\n      add\n        /* \"#utility.yul\":1786:1812   */\n      swap1\n      pop\n        /* \"#utility.yul\":1822:1893   */\n      tag_75\n        /* \"#utility.yul\":1890:1891   */\n      0x00\n        /* \"#utility.yul\":1879:1888   */\n      dup4\n        /* \"#utility.yul\":1875:1892   */\n      add\n        /* \"#utility.yul\":1866:1872   */\n      dup6\n        /* \"#utility.yul\":1822:1893   */\n      tag_65\n      jump\t// in\n    tag_75:\n        /* \"#utility.yul\":1903:1969   */\n      tag_76\n        /* \"#utility.yul\":1965:1967   */\n      0x20\n        /* \"#utility.yul\":1954:1963   */\n      dup4\n        /* \"#utility.yul\":1950:1968   */\n      add\n        /* \"#utility.yul\":1941:1947   */\n      dup5\n        /* \"#utility.yul\":1903:1969   */\n      tag_53\n      jump\t// in\n    tag_76:\n        /* \"#utility.yul\":1656:1976   */\n      swap4\n      swap3\n      pop\n      pop\n      pop\n      jump\t// out\n        /* \"#utility.yul\":1982:2057   */\n    tag_77:\n        /* \"#utility.yul\":2015:2021   */\n      0x00\n        /* \"#utility.yul\":2048:2050   */\n      0x40\n        /* \"#utility.yul\":2042:2051   */\n      mload\n        /* \"#utility.yul\":2032:2051   */\n      swap1\n      pop\n        /* \"#utility.yul\":1982:2057   */\n      swap1\n      jump\t// out\n        /* \"#utility.yul\":2063:2153   */\n    tag_56:\n        /* \"#utility.yul\":2097:2104   */\n      0x00\n        /* \"#utility.yul\":2140:2145   */\n      dup2\n        /* \"#utility.yul\":2133:2146   */\n      iszero\n        /* \"#utility.yul\":2126:2147   */\n      iszero\n        /* \"#utility.yul\":2115:2147   */\n      swap1\n      pop\n        /* \"#utility.yul\":2063:2153   */\n      swap2\n      swap1\n      pop\n      jump\t// out\n        /* \"#utility.yul\":2159:2236   */\n    tag_68:\n        /* \"#utility.yul\":2196:2203   */\n      0x00\n        /* \"#utility.yul\":2225:2230   */\n      dup2\n        /* \"#utility.yul\":2214:2230   */\n      swap1\n      pop\n        /* \"#utility.yul\":2159:2236   */\n      swap2\n      swap1\n      pop\n      jump\t// out\n        /* \"#utility.yul\":2242:2363   */\n    tag_60:\n        /* \"#utility.yul\":2300:2309   */\n      0x00\n        /* \"#utility.yul\":2333:2357   */\n      tag_82\n        /* \"#utility.yul\":2351:2356   */\n      dup3\n        /* \"#utility.yul\":2333:2357   */\n      tag_68\n      jump\t// in\n    tag_82:\n        /* \"#utility.yul\":2320:2357   */\n      swap1\n      pop\n        /* \"#utility.yul\":2242:2363   */\n      swap2\n      swap1\n      pop\n      jump\t// out\n        /* \"#utility.yul\":2369:2490   */\n    tag_64:\n        /* \"#utility.yul\":2427:2436   */\n      0x00\n        /* \"#utility.yul\":2460:2484   */\n      tag_84\n        /* \"#utility.yul\":2478:2483   */\n      dup3\n        /* \"#utility.yul\":2460:2484   */\n      tag_68\n      jump\t// in\n    tag_84:\n        /* \"#utility.yul\":2447:2484   */\n      swap1\n      pop\n        /* \"#utility.yul\":2369:2490   */\n      swap2\n      swap1\n      pop\n      jump\t// out\n        /* \"#utility.yul\":2496:2777   */\n    tag_85:\n        /* \"#utility.yul\":2579:2606   */\n      tag_87\n        /* \"#utility.yul\":2601:2605   */\n      dup3\n        /* \"#utility.yul\":2579:2606   */\n      tag_88\n      jump\t// in\n    tag_87:\n        /* \"#utility.yul\":2571:2577   */\n      dup2\n        /* \"#utility.yul\":2567:2607   */\n      add\n        /* \"#utility.yul\":2709:2715   */\n      dup2\n        /* \"#utility.yul\":2697:2707   */\n      dup2\n        /* \"#utility.yul\":2694:2716   */\n      lt\n        /* \"#utility.yul\":2673:2691   */\n      0xffffffffffffffff\n        /* \"#utility.yul\":2661:2671   */\n      dup3\n        /* \"#utility.yul\":2658:2692   */\n      gt\n        /* \"#utility.yul\":2655:2717   */\n      or\n        /* \"#utility.yul\":2652:2740   */\n      iszero\n      tag_89\n      jumpi\n        /* \"#utility.yul\":2720:2738   */\n      tag_90\n      tag_91\n      jump\t// in\n    tag_90:\n        /* \"#utility.yul\":2652:2740   */\n    tag_89:\n        /* \"#utility.yul\":2760:2770   */\n      dup1\n        /* \"#utility.yul\":2756:2758   */\n      0x40\n        /* \"#utility.yul\":2749:2771   */\n      mstore\n        /* \"#utility.yul\":2539:2777   */\n      pop\n        /* \"#utility.yul\":2496:2777   */\n      pop\n      pop\n      jump\t// out\n        /* \"#utility.yul\":2783:3016   */\n    tag_34:\n        /* \"#utility.yul\":2822:2825   */\n      0x00\n        /* \"#utility.yul\":2845:2869   */\n      tag_93\n        /* \"#utility.yul\":2863:2868   */\n      dup3\n        /* \"#utility.yul\":2845:2869   */\n      tag_68\n      jump\t// in\n    tag_93:\n        /* \"#utility.yul\":2836:2869   */\n      swap2\n      pop\n        /* \"#utility.yul\":2891:2957   */\n      0xffffffffffffffffffffffffffffffffffffffffffffffffffffffffffffffff\n        /* \"#utility.yul\":2884:2889   */\n      dup3\n        /* \"#utility.yul\":2881:2958   */\n      eq\n        /* \"#utility.yul\":2878:2981   */\n      iszero\n      tag_94\n      jumpi\n        /* \"#utility.yul\":2961:2979   */\n      tag_95\n      tag_96\n      jump\t// in\n    tag_95:\n        /* \"#utility.yul\":2878:2981   */\n    tag_94:\n        /* \"#utility.yul\":3008:3009   */\n      0x01\n        /* \"#utility.yul\":3001:3006   */\n      dup3\n        /* \"#utility.yul\":2997:3010   */\n      add\n        /* \"#utility.yul\":2990:3010   */\n      swap1\n      pop\n        /* \"#utility.yul\":2783:3016   */\n      swap2\n      swap1\n      pop\n      jump\t// out\n        /* \"#utility.yul\":3022:3202   */\n    tag_96:\n        /* \"#utility.yul\":3070:3147   */\n      0x4e487b7100000000000000000000000000000000000000000000000000000000\n        /* \"#utility.yul\":3067:3068   */\n      0x00\n        /* \"#utility.yul\":3060:3148   */\n      mstore\n        /* \"#utility.yul\":3167:3171   */\n      0x11\n        /* \"#utility.yul\":3164:3165   */\n      0x04\n        /* \"#utility.yul\":3157:3172   */\n      mstore\n        /* \"#utility.yul\":3191:3195   */\n      0x24\n        /* \"#utility.yul\":3188:3189   */\n      0x00\n        /* \"#utility.yul\":3181:3196   */\n      revert\n        /* \"#utility.yul\":3208:3388   */\n    tag_91:\n        /* \"#utility.yul\":3256:3333   */\n      0x4e487b7100000000000000000000000000000000000000000000000000000000\n        /* \"#utility.yul\":3253:3254   */\n      0x00\n        /* \"#utility.yul\":3246:3334   */\n      mstore\n        /* \"#utility.yul\":3353:3357   */\n      0x41\n        /* \"#utility.yul\":3350:3351   */\n      0x04\n        /* \"#utility.yul\":3343:3358   */\n      mstore\n        /* \"#utility.yul\":3377:3381   */\n      0x24\n        /* \"#utility.yul\":3374:3375   */\n      0x00\n        /* \"#utility.yul\":3367:3382   */\n      revert\n        /* \"#utility.yul\":3394:3577   */\n    tag_29:\n        /* \"#utility.yul\":3429:3432   */\n      0x00\n        /* \"#utility.yul\":3467:3468   */\n      0x03\n        /* \"#utility.yul\":3449:3465   */\n      returndatasize\n        /* \"#utility.yul\":3446:3469   */\n      gt\n        /* \"#utility.yul\":3443:3571   */\n      iszero\n      tag_100\n      jumpi\n        /* \"#utility.yul\":3505:3506   */\n      0x04\n        /* \"#utility.yul\":3502:3503   */\n      0x00\n        /* \"#utility.yul\":3499:3500   */\n      dup1\n        /* \"#utility.yul\":3484:3507   */\n      returndatacopy\n        /* \"#utility.yul\":3527:3561   */\n      tag_101\n        /* \"#utility.yul\":3558:3559   */\n      0x00\n        /* \"#utility.yul\":3552:3560   */\n      mload\n        /* \"#utility.yul\":3527:3561   */\n      tag_102\n      jump\t// in\n    tag_101:\n        /* \"#utility.yul\":3520:3561   */\n      swap1\n      pop\n        /* \"#utility.yul\":3443:3571   */\n    tag_100:\n        /* \"#utility.yul\":3394:3577   */\n      swap1\n      jump\t// out\n        /* \"#utility.yul\":3706:3823   */\n    tag_51:\n        /* \"#utility.yul\":3815:3816   */\n      0x00\n        /* \"#utility.yul\":3812:3813   */\n      dup1\n        /* \"#utility.yul\":3805:3817   */\n      revert\n        /* \"#utility.yul\":3829:3931   */\n    tag_88:\n        /* \"#utility.yul\":3870:3876   */\n      0x00\n        /* \"#utility.yul\":3921:3923   */\n      0x1f\n        /* \"#utility.yul\":3917:3924   */\n      not\n        /* \"#utility.yul\":3912:3914   */\n      0x1f\n        /* \"#utility.yul\":3905:3910   */\n      dup4\n        /* \"#utility.yul\":3901:3915   */\n      add\n        /* \"#utility.yul\":3897:3925   */\n      and\n        /* \"#utility.yul\":3887:3925   */\n      swap1\n      pop\n        /* \"#utility.yul\":3829:3931   */\n      swap2\n      swap1\n      pop\n      jump\t// out\n        /* \"#utility.yul\":3937:4043   */\n    tag_102:\n        /* \"#utility.yul\":3981:3989   */\n      0x00\n        /* \"#utility.yul\":4030:4035   */\n      dup2\n        /* \"#utility.yul\":4025:4028   */\n      0xe0\n        /* \"#utility.yul\":4021:4036   */\n      shr\n        /* \"#utility.yul\":4000:4036   */\n      swap1\n      pop\n        /* \"#utility.yul\":3937:4043   */\n      swap2\n      swap1\n      pop\n      jump\t// out\n        /* \"#utility.yul\":4049:4760   */\n    tag_31:\n        /* \"#utility.yul\":4088:4091   */\n      0x00\n        /* \"#utility.yul\":4126:4130   */\n      0x44\n        /* \"#utility.yul\":4108:4124   */\n      returndatasize\n        /* \"#utility.yul\":4105:4131   */\n      lt\n        /* \"#utility.yul\":4102:4141   */\n      iszero\n      tag_109\n      jumpi\n        /* \"#utility.yul\":4134:4139   */\n      jump(tag_108)\n        /* \"#utility.yul\":4102:4141   */\n    tag_109:\n        /* \"#utility.yul\":4163:4183   */\n      tag_110\n      tag_77\n      jump\t// in\n    tag_110:\n        /* \"#utility.yul\":4238:4239   */\n      0x04\n        /* \"#utility.yul\":4220:4236   */\n      returndatasize\n        /* \"#utility.yul\":4216:4240   */\n      sub\n        /* \"#utility.yul\":4213:4214   */\n      0x04\n        /* \"#utility.yul\":4207:4211   */\n      dup3\n        /* \"#utility.yul\":4192:4241   */\n      returndatacopy\n        /* \"#utility.yul\":4271:4275   */\n      dup1\n        /* \"#utility.yul\":4265:4276   */\n      mload\n        /* \"#utility.yul\":4370:4386   */\n      returndatasize\n        /* \"#utility.yul\":4363:4367   */\n      0x24\n        /* \"#utility.yul\":4355:4361   */\n      dup3\n        /* \"#utility.yul\":4351:4368   */\n      add\n        /* \"#utility.yul\":4348:4387   */\n      gt\n        /* \"#utility.yul\":4315:4333   */\n      0xffffffffffffffff\n        /* \"#utility.yul\":4307:4313   */\n      dup3\n        /* \"#utility.yul\":4304:4334   */\n      gt\n        /* \"#utility.yul\":4288:4401   */\n      or\n        /* \"#utility.yul\":4285:4431   */\n      iszero\n      tag_111\n      jumpi\n        /* \"#utility.yul\":4416:4421   */\n      pop\n      pop\n      jump(tag_108)\n        /* \"#utility.yul\":4285:4431   */\n    tag_111:\n        /* \"#utility.yul\":4462:4468   */\n      dup1\n        /* \"#utility.yul\":4456:4460   */\n      dup3\n        /* \"#utility.yul\":4452:4469   */\n      add\n        /* \"#utility.yul\":4498:4501   */\n      dup1\n        /* \"#utility.yul\":4492:4502   */\n      mload\n        /* \"#utility.yul\":4525:4543   */\n      0xffffffffffffffff\n        /* \"#utility.yul\":4517:4523   */\n      dup2\n        /* \"#utility.yul\":4514:4544   */\n      gt\n        /* \"#utility.yul\":4511:4554   */\n      iszero\n      tag_112\n      jumpi\n        /* \"#utility.yul\":4547:4552   */\n      pop\n      pop\n      pop\n      pop\n      jump(tag_108)\n        /* \"#utility.yul\":4511:4554   */\n    tag_112:\n        /* \"#utility.yul\":4595:4601   */\n      dup1\n        /* \"#utility.yul\":4588:4592   */\n      0x20\n        /* \"#utility.yul\":4583:4586   */\n      dup4\n        /* \"#utility.yul\":4579:4593   */\n      add\n        /* \"#utility.yul\":4575:4602   */\n      add\n        /* \"#utility.yul\":4654:4655   */\n      0x04\n        /* \"#utility.yul\":4636:4652   */\n      returndatasize\n        /* \"#utility.yul\":4632:4656   */\n      sub\n        /* \"#utility.yul\":4626:4630   */\n      dup6\n        /* \"#utility.yul\":4622:4657   */\n      add\n        /* \"#utility.yul\":4617:4620   */\n      dup2\n        /* \"#utility.yul\":4614:4658   */\n      gt\n        /* \"#utility.yul\":4611:4668   */\n      iszero\n      tag_113\n      jumpi\n        /* \"#utility.yul\":4661:4666   */\n      pop\n      pop\n      pop\n      pop\n      pop\n      jump(tag_108)\n        /* \"#utility.yul\":4611:4668   */\n    tag_113:\n        /* \"#utility.yul\":4678:4735   */\n      tag_114\n        /* \"#utility.yul\":4726:4732   */\n      dup3\n        /* \"#utility.yul\":4720:4724   */\n      0x20\n        /* \"#utility.yul\":4716:4733   */\n      add\n        /* \"#utility.yul\":4708:4714   */\n      dup6\n        /* \"#utility.yul\":4704:4734   */\n      add\n        /* \"#utility.yul\":4698:4702   */\n      dup7\n        /* \"#utility.yul\":4678:4735   */\n      tag_85\n      jump\t// in\n    tag_114:\n        /* \"#utility.yul\":4751:4754   */\n      dup3\n        /* \"#utility.yul\":4744:4754   */\n      swap6\n      pop\n        /* \"#utility.yul\":4092:4760   */\n      pop\n      pop\n      pop\n      pop\n      pop\n        /* \"#utility.yul\":4049:4760   */\n    tag_108:\n      swap1\n      jump\t// out\n        /* \"#utility.yul\":4766:4966   */\n    tag_36:\n        /* \"#utility.yul\":4802:4809   */\n      0x00\n        /* \"#utility.yul\":4811:4815   */\n      dup1\n        /* \"#utility.yul\":4850:4854   */\n      0x23\n        /* \"#utility.yul\":4832:4848   */\n      returndatasize\n        /* \"#utility.yul\":4829:4855   */\n      gt\n        /* \"#utility.yul\":4826:4960   */\n      iszero\n      tag_116\n      jumpi\n        /* \"#utility.yul\":4891:4895   */\n      0x20\n        /* \"#utility.yul\":4888:4889   */\n      0x04\n        /* \"#utility.yul\":4885:4886   */\n      0x00\n        /* \"#utility.yul\":4870:4896   */\n      returndatacopy\n        /* \"#utility.yul\":4920:4921   */\n      0x01\n        /* \"#utility.yul\":4909:4921   */\n      swap2\n      pop\n        /* \"#utility.yul\":4948:4949   */\n      0x00\n        /* \"#utility.yul\":4942:4950   */\n      mload\n        /* \"#utility.yul\":4934:4950   */\n      swap1\n      pop\n        /* \"#utility.yul\":4826:4960   */\n    tag_116:\n        /* \"#utility.yul\":4766:4966   */\n      swap1\n      swap2\n      jump\t// out\n        /* \"#utility.yul\":4972:5094   */\n    tag_47:\n        /* \"#utility.yul\":5045:5069   */\n      tag_118\n        /* \"#utility.yul\":5063:5068   */\n      dup2\n        /* \"#utility.yul\":5045:5069   */\n      tag_68\n      jump\t// in\n    tag_118:\n        /* \"#utility.yul\":5038:5043   */\n      dup2\n        /* \"#utility.yul\":5035:5070   */\n      eq\n        /* \"#utility.yul\":5025:5088   */\n      tag_119\n      jumpi\n        /* \"#utility.yul\":5084:5085   */\n      0x00\n        /* \"#utility.yul\":5081:5082   */\n      dup1\n        /* \"#utility.yul\":5074:5086   */\n      revert\n        /* \"#utility.yul\":5025:5088   */\n    tag_119:\n        /* \"#utility.yul\":4972:5094   */\n      pop\n      jump\t// out\n\n    auxdata: 0xa2646970667358221220af4c90ca556cf5bdc77851e8c4338f5fb279f32c074b61e8e6d671a373bf6f4464736f6c63430008070033\n}\n\nsub_1: assembly {\n        /* \"contract/chapter04/ty.sol\":60:292  contract DataFeed { \r... */\n      mstore(0x40, 0x80)\n      callvalue\n      dup1\n      iszero\n      tag_1\n      jumpi\n      0x00\n      dup1\n      revert\n    tag_1:\n      pop\n      dataSize(sub_0)\n      dup1\n      dataOffset(sub_0)\n      0x00\n      codecopy\n      0x00\n      return\n    stop\n\n    sub_0: assembly {\n            /* \"contract/chapter04/ty.sol\":60:292  contract DataFeed { \r... */\n          mstore(0x40, 0x80)\n          callvalue\n          dup1\n          iszero\n          tag_1\n          jumpi\n          0x00\n          dup1\n          revert\n        tag_1:\n          pop\n          jumpi(tag_2, lt(calldatasize, 0x04))\n          shr(0xe0, calldataload(0x00))\n          dup1\n          0x771602f7\n          eq\n          tag_3\n          jumpi\n        tag_2:\n          0x00\n          dup1\n          revert\n            /* \"contract/chapter04/ty.sol\":192:283  function add(uint a,uint b) external pure returns (uint value){\r... */\n        tag_3:\n          tag_4\n          0x04\n          dup1\n          calldatasize\n          sub\n          dup2\n          add\n          swap1\n          tag_5\n          swap2\n          swap1\n          tag_6\n          jump\t// in\n        tag_5:\n          tag_7\n          jump\t// in\n        tag_4:\n          mload(0x40)\n          tag_8\n          swap2\n          swap1\n          tag_9\n          jump\t// in\n        tag_8:\n          mload(0x40)\n          dup1\n          swap2\n          sub\n          swap1\n          return\n        tag_7:\n            /* \"contract/chapter04/ty.sol\":243:253  uint value */\n          0x00\n            /* \"contract/chapter04/ty.sol\":274:275  b */\n          dup2\n            /* \"contract/chapter04/ty.sol\":272:273  a */\n          dup4\n            /* \"contract/chapter04/ty.sol\":272:275  a/b */\n          tag_11\n          swap2\n          swap1\n          tag_12\n          jump\t// in\n        tag_11:\n            /* \"contract/chapter04/ty.sol\":265:275  return a/b */\n          swap1\n          pop\n            /* \"contract/chapter04/ty.sol\":192:283  function add(uint a,uint b) external pure returns (uint value){\r... */\n          swap3\n          swap2\n          pop\n          pop\n          jump\t// out\n            /* \"#utility.yul\":7:146   */\n        tag_14:\n            /* \"#utility.yul\":53:58   */\n          0x00\n            /* \"#utility.yul\":91:97   */\n          dup2\n            /* \"#utility.yul\":78:98   */\n          calldataload\n            /* \"#utility.yul\":69:98   */\n          swap1\n          pop\n            /* \"#utility.yul\":107:140   */\n          tag_16\n            /* \"#utility.yul\":134:139   */\n          dup2\n            /* \"#utility.yul\":107:140   */\n          tag_17\n          jump\t// in\n        tag_16:\n            /* \"#utility.yul\":7:146   */\n          swap3\n          swap2\n          pop\n          pop\n          jump\t// out\n            /* \"#utility.yul\":152:626   */\n        tag_6:\n            /* \"#utility.yul\":220:226   */\n          0x00\n            /* \"#utility.yul\":228:234   */\n          dup1\n            /* \"#utility.yul\":277:279   */\n          0x40\n            /* \"#utility.yul\":265:274   */\n          dup4\n            /* \"#utility.yul\":256:263   */\n          dup6\n            /* \"#utility.yul\":252:275   */\n          sub\n            /* \"#utility.yul\":248:280   */\n          slt\n            /* \"#utility.yul\":245:364   */\n          iszero\n          tag_19\n          jumpi\n            /* \"#utility.yul\":283:362   */\n          tag_20\n          tag_21\n          jump\t// in\n        tag_20:\n            /* \"#utility.yul\":245:364   */\n        tag_19:\n            /* \"#utility.yul\":403:404   */\n          0x00\n            /* \"#utility.yul\":428:481   */\n          tag_22\n            /* \"#utility.yul\":473:480   */\n          dup6\n            /* \"#utility.yul\":464:470   */\n          dup3\n            /* \"#utility.yul\":453:462   */\n          dup7\n            /* \"#utility.yul\":449:471   */\n          add\n            /* \"#utility.yul\":428:481   */\n          tag_14\n          jump\t// in\n        tag_22:\n            /* \"#utility.yul\":418:481   */\n          swap3\n          pop\n            /* \"#utility.yul\":374:491   */\n          pop\n            /* \"#utility.yul\":530:532   */\n          0x20\n            /* \"#utility.yul\":556:609   */\n          tag_23\n            /* \"#utility.yul\":601:608   */\n          dup6\n            /* \"#utility.yul\":592:598   */\n          dup3\n            /* \"#utility.yul\":581:590   */\n          dup7\n            /* \"#utility.yul\":577:599   */\n          add\n            /* \"#utility.yul\":556:609   */\n          tag_14\n          jump\t// in\n        tag_23:\n            /* \"#utility.yul\":546:609   */\n          swap2\n          pop\n            /* \"#utility.yul\":501:619   */\n          pop\n            /* \"#utility.yul\":152:626   */\n          swap3\n          pop\n          swap3\n          swap1\n          pop\n          jump\t// out\n            /* \"#utility.yul\":632:750   */\n        tag_24:\n            /* \"#utility.yul\":719:743   */\n          tag_26\n            /* \"#utility.yul\":737:742   */\n          dup2\n            /* \"#utility.yul\":719:743   */\n          tag_27\n          jump\t// in\n        tag_26:\n            /* \"#utility.yul\":714:717   */\n          dup3\n            /* \"#utility.yul\":707:744   */\n          mstore\n            /* \"#utility.yul\":632:750   */\n          pop\n          pop\n          jump\t// out\n            /* \"#utility.yul\":756:978   */\n        tag_9:\n            /* \"#utility.yul\":849:853   */\n          0x00\n            /* \"#utility.yul\":887:889   */\n          0x20\n            /* \"#utility.yul\":876:885   */\n          dup3\n            /* \"#utility.yul\":872:890   */\n          add\n            /* \"#utility.yul\":864:890   */\n          swap1\n          pop\n            /* \"#utility.yul\":900:971   */\n          tag_29\n            /* \"#utility.yul\":968:969   */\n          0x00\n            /* \"#utility.yul\":957:966   */\n          dup4\n            /* \"#utility.yul\":953:970   */\n          add\n            /* \"#utility.yul\":944:950   */\n          dup5\n            /* \"#utility.yul\":900:971   */\n          tag_24\n          jump\t// in\n        tag_29:\n            /* \"#utility.yul\":756:978   */\n          swap3\n          swap2\n          pop\n          pop\n          jump\t// out\n            /* \"#utility.yul\":1065:1250   */\n        tag_12:\n            /* \"#utility.yul\":1105:1106   */\n          0x00\n            /* \"#utility.yul\":1122:1142   */\n          tag_33\n            /* \"#utility.yul\":1140:1141   */\n          dup3\n            /* \"#utility.yul\":1122:1142   */\n          tag_27\n          jump\t// in\n        tag_33:\n            /* \"#utility.yul\":1117:1142   */\n          swap2\n          pop\n            /* \"#utility.yul\":1156:1176   */\n          tag_34\n            /* \"#utility.yul\":1174:1175   */\n          dup4\n            /* \"#utility.yul\":1156:1176   */\n          tag_27\n          jump\t// in\n        tag_34:\n            /* \"#utility.yul\":1151:1176   */\n          swap3\n          pop\n            /* \"#utility.yul\":1195:1196   */\n          dup3\n            /* \"#utility.yul\":1185:1220   */\n          tag_35\n          jumpi\n            /* \"#utility.yul\":1200:1218   */\n          tag_36\n          tag_37\n          jump\t// in\n        tag_36:\n            /* \"#utility.yul\":1185:1220   */\n        tag_35:\n            /* \"#utility.yul\":1242:1243   */\n          dup3\n            /* \"#utility.yul\":1239:1240   */\n          dup3\n            /* \"#utility.yul\":1235:1244   */\n          div\n            /* \"#utility.yul\":1230:1244   */\n          swap1\n          pop\n            /* \"#utility.yul\":1065:1250   */\n          swap3\n          swap2\n          pop\n          pop\n          jump\t// out\n            /* \"#utility.yul\":1256:1333   */\n        tag_27:\n            /* \"#utility.yul\":1293:1300   */\n          0x00\n            /* \"#utility.yul\":1322:1327   */\n          dup2\n            /* \"#utility.yul\":1311:1327   */\n          swap1\n          pop\n            /* \"#utility.yul\":1256:1333   */\n          swap2\n          swap1\n          pop\n          jump\t// out\n            /* \"#utility.yul\":1525:1705   */\n        tag_37:\n            /* \"#utility.yul\":1573:1650   */\n          0x4e487b7100000000000000000000000000000000000000000000000000000000\n            /* \"#utility.yul\":1570:1571   */\n          0x00\n            /* \"#utility.yul\":1563:1651   */\n          mstore\n            /* \"#utility.yul\":1670:1674   */\n          0x12\n            /* \"#utility.yul\":1667:1668   */\n          0x04\n            /* \"#utility.yul\":1660:1675   */\n          mstore\n            /* \"#utility.yul\":1694:1698   */\n          0x24\n            /* \"#utility.yul\":1691:1692   */\n          0x00\n            /* \"#utility.yul\":1684:1699   */\n          revert\n            /* \"#utility.yul\":1834:1951   */\n        tag_21:\n            /* \"#utility.yul\":1943:1944   */\n          0x00\n            /* \"#utility.yul\":1940:1941   */\n          dup1\n            /* \"#utility.yul\":1933:1945   */\n          revert\n            /* \"#utility.yul\":1957:2079   */\n        tag_17:\n            /* \"#utility.yul\":2030:2054   */\n          tag_46\n            /* \"#utility.yul\":2048:2053   */\n          dup2\n            /* \"#utility.yul\":2030:2054   */\n          tag_27\n          jump\t// in\n        tag_46:\n            /* \"#utility.yul\":2023:2028   */\n          dup2\n            /* \"#utility.yul\":2020:2055   */\n          eq\n            /* \"#utility.yul\":2010:2073   */\n          tag_47\n          jumpi\n            /* \"#utility.yul\":2069:2070   */\n          0x00\n            /* \"#utility.yul\":2066:2067   */\n          dup1\n            /* \"#utility.yul\":2059:2071   */\n          revert\n            /* \"#utility.yul\":2010:2073   */\n        tag_47:\n            /* \"#utility.yul\":1957:2079   */\n          pop\n          jump\t// out\n\n        auxdata: 0xa264697066735822122041f22c2cbdef74b41af15853d98e1476abaa5d02071dafcd3dcb89a944ac584164736f6c63430008070033\n    }\n}\n",
				"bytecode": {
					"linkReferences": {},
					"object": "60806040526040516100109061007e565b604051809103906000f08015801561002c573d6000803e3d6000fd5b506000806101000a81548173ffffffffffffffffffffffffffffffffffffffff021916908373ffffffffffffffffffffffffffffffffffffffff16021790555034801561007857600080fd5b5061008b565b6101d18061063c83390190565b6105a28061009a6000396000f3fe608060405234801561001057600080fd5b50600436106100415760003560e01c80633fa4f24514610046578063ae40f72f14610064578063d38dbee614610083575b600080fd5b61004e6100a1565b60405161005b91906102f9565b60405180910390f35b61006c6100a7565b60405161007a929190610314565b60405180910390f35b61008b61024c565b60405161009891906102f9565b60405180910390f35b60025481565b60008060008054906101000a900473ffffffffffffffffffffffffffffffffffffffff1673ffffffffffffffffffffffffffffffffffffffff1663771602f7600560006040518363ffffffff1660e01b81526004016101079291906102d0565b60206040518083038186803b15801561011f57600080fd5b505afa92505050801561015057506040513d601f19601f8201168201806040525081019061014d9190610267565b60015b61023f5761015c610459565b806308c379a014156101a2575061017161049e565b8061017c57506101e6565b6001600081548092919061018f906103b2565b9190505550606460009250925050610248565b634e487b7114156101e6576101b5610534565b906101c057506101e6565b600160008154809291906101d3906103b2565b919050555060c860009250925050610248565b3d8060008114610212576040519150601f19603f3d011682016040523d82523d6000602084013e610217565b606091505b506001600081548092919061022b906103b2565b919050555061012c60009250925050610248565b80600192509250505b9091565b60015481565b60008151905061026181610555565b92915050565b60006020828403121561027d5761027c61047b565b5b600061028b84828501610252565b91505092915050565b61029d81610347565b82525050565b6102ac8161035d565b82525050565b6102bb8161036f565b82525050565b6102ca81610353565b82525050565b60006040820190506102e560008301856102b2565b6102f260208301846102a3565b9392505050565b600060208201905061030e60008301846102c1565b92915050565b600060408201905061032960008301856102c1565b6103366020830184610294565b9392505050565b6000604051905090565b60008115159050919050565b6000819050919050565b600061036882610353565b9050919050565b600061037a82610353565b9050919050565b61038a82610480565b810181811067ffffffffffffffff821117156103a9576103a861042a565b5b80604052505050565b60006103bd82610353565b91507fffffffffffffffffffffffffffffffffffffffffffffffffffffffffffffffff8214156103f0576103ef6103fb565b5b600182019050919050565b7f4e487b7100000000000000000000000000000000000000000000000000000000600052601160045260246000fd5b7f4e487b7100000000000000000000000000000000000000000000000000000000600052604160045260246000fd5b600060033d11156104785760046000803e610475600051610491565b90505b90565b600080fd5b6000601f19601f8301169050919050565b60008160e01c9050919050565b600060443d10156104ae57610531565b6104b661033d565b60043d036004823e80513d602482011167ffffffffffffffff821117156104de575050610531565b808201805167ffffffffffffffff8111156104fc5750505050610531565b80602083010160043d038501811115610519575050505050610531565b61052882602001850186610381565b82955050505050505b90565b60008060233d1115610551576020600460003e6001915060005190505b9091565b61055e81610353565b811461056957600080fd5b5056fea2646970667358221220af4c90ca556cf5bdc77851e8c4338f5fb279f32c074b61e8e6d671a373bf6f4464736f6c63430008070033608060405234801561001057600080fd5b506101b1806100206000396000f3fe608060405234801561001057600080fd5b506004361061002b5760003560e01c8063771602f714610030575b600080fd5b61004a6004803603810190610045919061008b565b610060565b60405161005791906100da565b60405180910390f35b6000818361006e91906100f5565b905092915050565b60008135905061008581610164565b92915050565b600080604083850312156100a2576100a161015f565b5b60006100b085828601610076565b92505060206100c185828601610076565b9150509250929050565b6100d481610126565b82525050565b60006020820190506100ef60008301846100cb565b92915050565b600061010082610126565b915061010b83610126565b92508261011b5761011a610130565b5b828204905092915050565b6000819050919050565b7f4e487b7100000000000000000000000000000000000000000000000000000000600052601260045260246000fd5b600080fd5b61016d81610126565b811461017857600080fd5b5056fea264697066735822122041f22c2cbdef74b41af15853d98e1476abaa5d02071dafcd3dcb89a944ac584164736f6c63430008070033",
					"opcodes": "PUSH1 0x80 PUSH1 0x40 MSTORE PUSH1 0x40 MLOAD PUSH2 0x10 SWAP1 PUSH2 0x7E JUMP JUMPDEST PUSH1 0x40 MLOAD DUP1 SWAP2 SUB SWAP1 PUSH1 0x0 CREATE DUP1 ISZERO DUP1 ISZERO PUSH2 0x2C JUMPI RETURNDATASIZE PUSH1 0x0 DUP1 RETURNDATACOPY RETURNDATASIZE PUSH1 0x0 REVERT JUMPDEST POP PUSH1 0x0 DUP1 PUSH2 0x100 EXP DUP2 SLOAD DUP2 PUSH20 0xFFFFFFFFFFFFFFFFFFFFFFFFFFFFFFFFFFFFFFFF MUL NOT AND SWAP1 DUP4 PUSH20 0xFFFFFFFFFFFFFFFFFFFFFFFFFFFFFFFFFFFFFFFF AND MUL OR SWAP1 SSTORE POP CALLVALUE DUP1 ISZERO PUSH2 0x78 JUMPI PUSH1 0x0 DUP1 REVERT JUMPDEST POP PUSH2 0x8B JUMP JUMPDEST PUSH2 0x1D1 DUP1 PUSH2 0x63C DUP4 CODECOPY ADD SWAP1 JUMP JUMPDEST PUSH2 0x5A2 DUP1 PUSH2 0x9A PUSH1 0x0 CODECOPY PUSH1 0x0 RETURN INVALID PUSH1 0x80 PUSH1 0x40 MSTORE CALLVALUE DUP1 ISZERO PUSH2 0x10 JUMPI PUSH1 0x0 DUP1 REVERT JUMPDEST POP PUSH1 0x4 CALLDATASIZE LT PUSH2 0x41 JUMPI PUSH1 0x0 CALLDATALOAD PUSH1 0xE0 SHR DUP1 PUSH4 0x3FA4F245 EQ PUSH2 0x46 JUMPI DUP1 PUSH4 0xAE40F72F EQ PUSH2 0x64 JUMPI DUP1 PUSH4 0xD38DBEE6 EQ PUSH2 0x83 JUMPI JUMPDEST PUSH1 0x0 DUP1 REVERT JUMPDEST PUSH2 0x4E PUSH2 0xA1 JUMP JUMPDEST PUSH1 0x40 MLOAD PUSH2 0x5B SWAP2 SWAP1 PUSH2 0x2F9 JUMP JUMPDEST PUSH1 0x40 MLOAD DUP1 SWAP2 SUB SWAP1 RETURN JUMPDEST PUSH2 0x6C PUSH2 0xA7 JUMP JUMPDEST PUSH1 0x40 MLOAD PUSH2 0x7A SWAP3 SWAP2 SWAP1 PUSH2 0x314 JUMP JUMPDEST PUSH1 0x40 MLOAD DUP1 SWAP2 SUB SWAP1 RETURN JUMPDEST PUSH2 0x8B PUSH2 0x24C JUMP JUMPDEST PUSH1 0x40 MLOAD PUSH2 0x98 SWAP2 SWAP1 PUSH2 0x2F9 JUMP JUMPDEST PUSH1 0x40 MLOAD DUP1 SWAP2 SUB SWAP1 RETURN JUMPDEST PUSH1 0x2 SLOAD DUP2 JUMP JUMPDEST PUSH1 0x0 DUP1 PUSH1 0x0 DUP1 SLOAD SWAP1 PUSH2 0x100 EXP SWAP1 DIV PUSH20 0xFFFFFFFFFFFFFFFFFFFFFFFFFFFFFFFFFFFFFFFF AND PUSH20 0xFFFFFFFFFFFFFFFFFFFFFFFFFFFFFFFFFFFFFFFF AND PUSH4 0x771602F7 PUSH1 0x5 PUSH1 0x0 PUSH1 0x40 MLOAD DUP4 PUSH4 0xFFFFFFFF AND PUSH1 0xE0 SHL DUP2 MSTORE PUSH1 0x4 ADD PUSH2 0x107 SWAP3 SWAP2 SWAP1 PUSH2 0x2D0 JUMP JUMPDEST PUSH1 0x20 PUSH1 0x40 MLOAD DUP1 DUP4 SUB DUP2 DUP7 DUP1 EXTCODESIZE ISZERO DUP1 ISZERO PUSH2 0x11F JUMPI PUSH1 0x0 DUP1 REVERT JUMPDEST POP GAS STATICCALL SWAP3 POP POP POP DUP1 ISZERO PUSH2 0x150 JUMPI POP PUSH1 0x40 MLOAD RETURNDATASIZE PUSH1 0x1F NOT PUSH1 0x1F DUP3 ADD AND DUP3 ADD DUP1 PUSH1 0x40 MSTORE POP DUP2 ADD SWAP1 PUSH2 0x14D SWAP2 SWAP1 PUSH2 0x267 JUMP JUMPDEST PUSH1 0x1 JUMPDEST PUSH2 0x23F JUMPI PUSH2 0x15C PUSH2 0x459 JUMP JUMPDEST DUP1 PUSH4 0x8C379A0 EQ ISZERO PUSH2 0x1A2 JUMPI POP PUSH2 0x171 PUSH2 0x49E JUMP JUMPDEST DUP1 PUSH2 0x17C JUMPI POP PUSH2 0x1E6 JUMP JUMPDEST PUSH1 0x1 PUSH1 0x0 DUP2 SLOAD DUP1 SWAP3 SWAP2 SWAP1 PUSH2 0x18F SWAP1 PUSH2 0x3B2 JUMP JUMPDEST SWAP2 SWAP1 POP SSTORE POP PUSH1 0x64 PUSH1 0x0 SWAP3 POP SWAP3 POP POP PUSH2 0x248 JUMP JUMPDEST PUSH4 0x4E487B71 EQ ISZERO PUSH2 0x1E6 JUMPI PUSH2 0x1B5 PUSH2 0x534 JUMP JUMPDEST SWAP1 PUSH2 0x1C0 JUMPI POP PUSH2 0x1E6 JUMP JUMPDEST PUSH1 0x1 PUSH1 0x0 DUP2 SLOAD DUP1 SWAP3 SWAP2 SWAP1 PUSH2 0x1D3 SWAP1 PUSH2 0x3B2 JUMP JUMPDEST SWAP2 SWAP1 POP SSTORE POP PUSH1 0xC8 PUSH1 0x0 SWAP3 POP SWAP3 POP POP PUSH2 0x248 JUMP JUMPDEST RETURNDATASIZE DUP1 PUSH1 0x0 DUP2 EQ PUSH2 0x212 JUMPI PUSH1 0x40 MLOAD SWAP2 POP PUSH1 0x1F NOT PUSH1 0x3F RETURNDATASIZE ADD AND DUP3 ADD PUSH1 0x40 MSTORE RETURNDATASIZE DUP3 MSTORE RETURNDATASIZE PUSH1 0x0 PUSH1 0x20 DUP5 ADD RETURNDATACOPY PUSH2 0x217 JUMP JUMPDEST PUSH1 0x60 SWAP2 POP JUMPDEST POP PUSH1 0x1 PUSH1 0x0 DUP2 SLOAD DUP1 SWAP3 SWAP2 SWAP1 PUSH2 0x22B SWAP1 PUSH2 0x3B2 JUMP JUMPDEST SWAP2 SWAP1 POP SSTORE POP PUSH2 0x12C PUSH1 0x0 SWAP3 POP SWAP3 POP POP PUSH2 0x248 JUMP JUMPDEST DUP1 PUSH1 0x1 SWAP3 POP SWAP3 POP POP JUMPDEST SWAP1 SWAP2 JUMP JUMPDEST PUSH1 0x1 SLOAD DUP2 JUMP JUMPDEST PUSH1 0x0 DUP2 MLOAD SWAP1 POP PUSH2 0x261 DUP2 PUSH2 0x555 JUMP JUMPDEST SWAP3 SWAP2 POP POP JUMP JUMPDEST PUSH1 0x0 PUSH1 0x20 DUP3 DUP5 SUB SLT ISZERO PUSH2 0x27D JUMPI PUSH2 0x27C PUSH2 0x47B JUMP JUMPDEST JUMPDEST PUSH1 0x0 PUSH2 0x28B DUP5 DUP3 DUP6 ADD PUSH2 0x252 JUMP JUMPDEST SWAP2 POP POP SWAP3 SWAP2 POP POP JUMP JUMPDEST PUSH2 0x29D DUP2 PUSH2 0x347 JUMP JUMPDEST DUP3 MSTORE POP POP JUMP JUMPDEST PUSH2 0x2AC DUP2 PUSH2 0x35D JUMP JUMPDEST DUP3 MSTORE POP POP JUMP JUMPDEST PUSH2 0x2BB DUP2 PUSH2 0x36F JUMP JUMPDEST DUP3 MSTORE POP POP JUMP JUMPDEST PUSH2 0x2CA DUP2 PUSH2 0x353 JUMP JUMPDEST DUP3 MSTORE POP POP JUMP JUMPDEST PUSH1 0x0 PUSH1 0x40 DUP3 ADD SWAP1 POP PUSH2 0x2E5 PUSH1 0x0 DUP4 ADD DUP6 PUSH2 0x2B2 JUMP JUMPDEST PUSH2 0x2F2 PUSH1 0x20 DUP4 ADD DUP5 PUSH2 0x2A3 JUMP JUMPDEST SWAP4 SWAP3 POP POP POP JUMP JUMPDEST PUSH1 0x0 PUSH1 0x20 DUP3 ADD SWAP1 POP PUSH2 0x30E PUSH1 0x0 DUP4 ADD DUP5 PUSH2 0x2C1 JUMP JUMPDEST SWAP3 SWAP2 POP POP JUMP JUMPDEST PUSH1 0x0 PUSH1 0x40 DUP3 ADD SWAP1 POP PUSH2 0x329 PUSH1 0x0 DUP4 ADD DUP6 PUSH2 0x2C1 JUMP JUMPDEST PUSH2 0x336 PUSH1 0x20 DUP4 ADD DUP5 PUSH2 0x294 JUMP JUMPDEST SWAP4 SWAP3 POP POP POP JUMP JUMPDEST PUSH1 0x0 PUSH1 0x40 MLOAD SWAP1 POP SWAP1 JUMP JUMPDEST PUSH1 0x0 DUP2 ISZERO ISZERO SWAP1 POP SWAP2 SWAP1 POP JUMP JUMPDEST PUSH1 0x0 DUP2 SWAP1 POP SWAP2 SWAP1 POP JUMP JUMPDEST PUSH1 0x0 PUSH2 0x368 DUP3 PUSH2 0x353 JUMP JUMPDEST SWAP1 POP SWAP2 SWAP1 POP JUMP JUMPDEST PUSH1 0x0 PUSH2 0x37A DUP3 PUSH2 0x353 JUMP JUMPDEST SWAP1 POP SWAP2 SWAP1 POP JUMP JUMPDEST PUSH2 0x38A DUP3 PUSH2 0x480 JUMP JUMPDEST DUP2 ADD DUP2 DUP2 LT PUSH8 0xFFFFFFFFFFFFFFFF DUP3 GT OR ISZERO PUSH2 0x3A9 JUMPI PUSH2 0x3A8 PUSH2 0x42A JUMP JUMPDEST JUMPDEST DUP1 PUSH1 0x40 MSTORE POP POP POP JUMP JUMPDEST PUSH1 0x0 PUSH2 0x3BD DUP3 PUSH2 0x353 JUMP JUMPDEST SWAP2 POP PUSH32 0xFFFFFFFFFFFFFFFFFFFFFFFFFFFFFFFFFFFFFFFFFFFFFFFFFFFFFFFFFFFFFFFF DUP3 EQ ISZERO PUSH2 0x3F0 JUMPI PUSH2 0x3EF PUSH2 0x3FB JUMP JUMPDEST JUMPDEST PUSH1 0x1 DUP3 ADD SWAP1 POP SWAP2 SWAP1 POP JUMP JUMPDEST PUSH32 0x4E487B7100000000000000000000000000000000000000000000000000000000 PUSH1 0x0 MSTORE PUSH1 0x11 PUSH1 0x4 MSTORE PUSH1 0x24 PUSH1 0x0 REVERT JUMPDEST PUSH32 0x4E487B7100000000000000000000000000000000000000000000000000000000 PUSH1 0x0 MSTORE PUSH1 0x41 PUSH1 0x4 MSTORE PUSH1 0x24 PUSH1 0x0 REVERT JUMPDEST PUSH1 0x0 PUSH1 0x3 RETURNDATASIZE GT ISZERO PUSH2 0x478 JUMPI PUSH1 0x4 PUSH1 0x0 DUP1 RETURNDATACOPY PUSH2 0x475 PUSH1 0x0 MLOAD PUSH2 0x491 JUMP JUMPDEST SWAP1 POP JUMPDEST SWAP1 JUMP JUMPDEST PUSH1 0x0 DUP1 REVERT JUMPDEST PUSH1 0x0 PUSH1 0x1F NOT PUSH1 0x1F DUP4 ADD AND SWAP1 POP SWAP2 SWAP1 POP JUMP JUMPDEST PUSH1 0x0 DUP2 PUSH1 0xE0 SHR SWAP1 POP SWAP2 SWAP1 POP JUMP JUMPDEST PUSH1 0x0 PUSH1 0x44 RETURNDATASIZE LT ISZERO PUSH2 0x4AE JUMPI PUSH2 0x531 JUMP JUMPDEST PUSH2 0x4B6 PUSH2 0x33D JUMP JUMPDEST PUSH1 0x4 RETURNDATASIZE SUB PUSH1 0x4 DUP3 RETURNDATACOPY DUP1 MLOAD RETURNDATASIZE PUSH1 0x24 DUP3 ADD GT PUSH8 0xFFFFFFFFFFFFFFFF DUP3 GT OR ISZERO PUSH2 0x4DE JUMPI POP POP PUSH2 0x531 JUMP JUMPDEST DUP1 DUP3 ADD DUP1 MLOAD PUSH8 0xFFFFFFFFFFFFFFFF DUP2 GT ISZERO PUSH2 0x4FC JUMPI POP POP POP POP PUSH2 0x531 JUMP JUMPDEST DUP1 PUSH1 0x20 DUP4 ADD ADD PUSH1 0x4 RETURNDATASIZE SUB DUP6 ADD DUP2 GT ISZERO PUSH2 0x519 JUMPI POP POP POP POP POP PUSH2 0x531 JUMP JUMPDEST PUSH2 0x528 DUP3 PUSH1 0x20 ADD DUP6 ADD DUP7 PUSH2 0x381 JUMP JUMPDEST DUP3 SWAP6 POP POP POP POP POP POP JUMPDEST SWAP1 JUMP JUMPDEST PUSH1 0x0 DUP1 PUSH1 0x23 RETURNDATASIZE GT ISZERO PUSH2 0x551 JUMPI PUSH1 0x20 PUSH1 0x4 PUSH1 0x0 RETURNDATACOPY PUSH1 0x1 SWAP2 POP PUSH1 0x0 MLOAD SWAP1 POP JUMPDEST SWAP1 SWAP2 JUMP JUMPDEST PUSH2 0x55E DUP2 PUSH2 0x353 JUMP JUMPDEST DUP2 EQ PUSH2 0x569 JUMPI PUSH1 0x0 DUP1 REVERT JUMPDEST POP JUMP INVALID LOG2 PUSH5 0x6970667358 0x22 SLT KECCAK256 0xAF 0x4C SWAP1 0xCA SSTORE PUSH13 0xF5BDC77851E8C4338F5FB279F3 0x2C SMOD 0x4B PUSH2 0xE8E6 0xD6 PUSH18 0xA373BF6F4464736F6C634300080700336080 PUSH1 0x40 MSTORE CALLVALUE DUP1 ISZERO PUSH2 0x10 JUMPI PUSH1 0x0 DUP1 REVERT JUMPDEST POP PUSH2 0x1B1 DUP1 PUSH2 0x20 PUSH1 0x0 CODECOPY PUSH1 0x0 RETURN INVALID PUSH1 0x80 PUSH1 0x40 MSTORE CALLVALUE DUP1 ISZERO PUSH2 0x10 JUMPI PUSH1 0x0 DUP1 REVERT JUMPDEST POP PUSH1 0x4 CALLDATASIZE LT PUSH2 0x2B JUMPI PUSH1 0x0 CALLDATALOAD PUSH1 0xE0 SHR DUP1 PUSH4 0x771602F7 EQ PUSH2 0x30 JUMPI JUMPDEST PUSH1 0x0 DUP1 REVERT JUMPDEST PUSH2 0x4A PUSH1 0x4 DUP1 CALLDATASIZE SUB DUP2 ADD SWAP1 PUSH2 0x45 SWAP2 SWAP1 PUSH2 0x8B JUMP JUMPDEST PUSH2 0x60 JUMP JUMPDEST PUSH1 0x40 MLOAD PUSH2 0x57 SWAP2 SWAP1 PUSH2 0xDA JUMP JUMPDEST PUSH1 0x40 MLOAD DUP1 SWAP2 SUB SWAP1 RETURN JUMPDEST PUSH1 0x0 DUP2 DUP4 PUSH2 0x6E SWAP2 SWAP1 PUSH2 0xF5 JUMP JUMPDEST SWAP1 POP SWAP3 SWAP2 POP POP JUMP JUMPDEST PUSH1 0x0 DUP2 CALLDATALOAD SWAP1 POP PUSH2 0x85 DUP2 PUSH2 0x164 JUMP JUMPDEST SWAP3 SWAP2 POP POP JUMP JUMPDEST PUSH1 0x0 DUP1 PUSH1 0x40 DUP4 DUP6 SUB SLT ISZERO PUSH2 0xA2 JUMPI PUSH2 0xA1 PUSH2 0x15F JUMP JUMPDEST JUMPDEST PUSH1 0x0 PUSH2 0xB0 DUP6 DUP3 DUP7 ADD PUSH2 0x76 JUMP JUMPDEST SWAP3 POP POP PUSH1 0x20 PUSH2 0xC1 DUP6 DUP3 DUP7 ADD PUSH2 0x76 JUMP JUMPDEST SWAP2 POP POP SWAP3 POP SWAP3 SWAP1 POP JUMP JUMPDEST PUSH2 0xD4 DUP2 PUSH2 0x126 JUMP JUMPDEST DUP3 MSTORE POP POP JUMP JUMPDEST PUSH1 0x0 PUSH1 0x20 DUP3 ADD SWAP1 POP PUSH2 0xEF PUSH1 0x0 DUP4 ADD DUP5 PUSH2 0xCB JUMP JUMPDEST SWAP3 SWAP2 POP POP JUMP JUMPDEST PUSH1 0x0 PUSH2 0x100 DUP3 PUSH2 0x126 JUMP JUMPDEST SWAP2 POP PUSH2 0x10B DUP4 PUSH2 0x126 JUMP JUMPDEST SWAP3 POP DUP3 PUSH2 0x11B JUMPI PUSH2 0x11A PUSH2 0x130 JUMP JUMPDEST JUMPDEST DUP3 DUP3 DIV SWAP1 POP SWAP3 SWAP2 POP POP JUMP JUMPDEST PUSH1 0x0 DUP2 SWAP1 POP SWAP2 SWAP1 POP JUMP JUMPDEST PUSH32 0x4E487B7100000000000000000000000000000000000000000000000000000000 PUSH1 0x0 MSTORE PUSH1 0x12 PUSH1 0x4 MSTORE PUSH1 0x24 PUSH1 0x0 REVERT JUMPDEST PUSH1 0x0 DUP1 REVERT JUMPDEST PUSH2 0x16D DUP2 PUSH2 0x126 JUMP JUMPDEST DUP2 EQ PUSH2 0x178 JUMPI PUSH1 0x0 DUP1 REVERT JUMPDEST POP JUMP INVALID LOG2 PUSH5 0x6970667358 0x22 SLT KECCAK256 COINBASE CALLCODE 0x2C 0x2C 0xBD 0xEF PUSH21 0xB41AF15853D98E1476ABAA5D02071DAFCD3DCB89A9 DIFFICULTY 0xAC PC COINBASE PUSH5 0x736F6C6343 STOP ADDMOD SMOD STOP CALLER "
				},
				"gasEstimates": {
					"creation": {
						"codeDepositCost": "288400",
						"executionCost": "infinite",
						"totalCost": "infinite"
					},
					"external": {
						"errorCount()": "2451",
						"testAdd()": "infinite",
						"value()": "2407"
					}
				},
				"methodIdentifiers": {
					"errorCount()": "d38dbee6",
					"testAdd()": "ae40f72f",
					"value()": "3fa4f245"
				}
			},
			"storageLayout": {
				"storage": [
					{
						"astId": 23,
						"contract": "contract/chapter04/ty.sol:FeedConsumer",
						"label": "feed",
						"offset": 0,
						"slot": "0",
						"type": "t_contract(DataFeed)16"
					},
					{
						"astId": 25,
						"contract": "contract/chapter04/ty.sol:FeedConsumer",
						"label": "errorCount",
						"offset": 0,
						"slot": "1",
						"type": "t_uint256"
					},
					{
						"astId": 86,
						"contract": "contract/chapter04/ty.sol:FeedConsumer",
						"label": "value",
						"offset": 0,
						"slot": "2",
						"type": "t_uint256"
					}
				],
				"types": {
					"t_contract(DataFeed)16": {
						"encoding": "inplace",
						"label": "contract DataFeed",
						"numberOfBytes": "20"
					},
					"t_uint256": {
						"encoding": "inplace",
						"label": "uint256",
						"numberOfBytes": "32"
					}
				}
			},
			"userdoc": {
				"kind": "user",
				"methods": {},
				"version": 1
			}
		}
	}
}