{
	"study/chapter04/create2.sol": {
		"Create2": {
			"abi": [
				{
					"inputs": [
						{
							"internalType": "bytes32",
							"name": "salt",
							"type": "bytes32"
						},
						{
							"internalType": "uint256",
							"name": "arg",
							"type": "uint256"
						}
					],
					"name": "createDSalted",
					"outputs": [],
					"stateMutability": "nonpayable",
					"type": "function"
				},
				{
					"inputs": [],
					"name": "d",
					"outputs": [
						{
							"internalType": "contract D",
							"name": "",
							"type": "address"
						}
					],
					"stateMutability": "view",
					"type": "function"
				},
				{
					"inputs": [
						{
							"internalType": "uint256",
							"name": "slat",
							"type": "uint256"
						},
						{
							"internalType": "uint256",
							"name": "arg",
							"type": "uint256"
						}
					],
					"name": "getAddress",
					"outputs": [
						{
							"internalType": "address",
							"name": "",
							"type": "address"
						}
					],
					"stateMutability": "view",
					"type": "function"
				},
				{
					"inputs": [
						{
							"internalType": "uint256",
							"name": "slat",
							"type": "uint256"
						}
					],
					"name": "getBytes32",
					"outputs": [
						{
							"internalType": "bytes32",
							"name": "",
							"type": "bytes32"
						}
					],
					"stateMutability": "pure",
					"type": "function"
				}
			],
			"devdoc": {
				"kind": "dev",
				"methods": {},
				"version": 1
			},
			"evm": {
				"assembly": "    /* \"study/chapter04/create2.sol\":150:769  contract Create2{... */\n  mstore(0x40, 0x80)\n  callvalue\n  dup1\n  iszero\n  tag_1\n  jumpi\n  0x00\n  dup1\n  revert\ntag_1:\n  pop\n  dataSize(sub_0)\n  dup1\n  dataOffset(sub_0)\n  0x00\n  codecopy\n  0x00\n  return\nstop\n\nsub_0: assembly {\n        /* \"study/chapter04/create2.sol\":150:769  contract Create2{... */\n      mstore(0x40, 0x80)\n      callvalue\n      dup1\n      iszero\n      tag_1\n      jumpi\n      0x00\n      dup1\n      revert\n    tag_1:\n      pop\n      jumpi(tag_2, lt(calldatasize, 0x04))\n      shr(0xe0, calldataload(0x00))\n      dup1\n      0x0bd38f2f\n      eq\n      tag_3\n      jumpi\n      dup1\n      0x24dfc9d7\n      eq\n      tag_4\n      jumpi\n      dup1\n      0x8a054ac2\n      eq\n      tag_5\n      jumpi\n      dup1\n      0x9262d759\n      eq\n      tag_6\n      jumpi\n    tag_2:\n      0x00\n      dup1\n      revert\n        /* \"study/chapter04/create2.sol\":673:767  function createDSalted(bytes32 salt,uint arg)public{... */\n    tag_3:\n      tag_7\n      0x04\n      dup1\n      calldatasize\n      sub\n      dup2\n      add\n      swap1\n      tag_8\n      swap2\n      swap1\n      tag_9\n      jump\t// in\n    tag_8:\n      tag_10\n      jump\t// in\n    tag_7:\n      stop\n        /* \"study/chapter04/create2.sol\":189:286  function getBytes32(uint slat)external pure returns(bytes32){... */\n    tag_4:\n      tag_11\n      0x04\n      dup1\n      calldatasize\n      sub\n      dup2\n      add\n      swap1\n      tag_12\n      swap2\n      swap1\n      tag_13\n      jump\t// in\n    tag_12:\n      tag_14\n      jump\t// in\n    tag_11:\n      mload(0x40)\n      tag_15\n      swap2\n      swap1\n      tag_16\n      jump\t// in\n    tag_15:\n      mload(0x40)\n      dup1\n      swap2\n      sub\n      swap1\n      return\n        /* \"study/chapter04/create2.sol\":173:183  D public d */\n    tag_5:\n      tag_17\n      tag_18\n      jump\t// in\n    tag_17:\n      mload(0x40)\n      tag_19\n      swap2\n      swap1\n      tag_20\n      jump\t// in\n    tag_19:\n      mload(0x40)\n      dup1\n      swap2\n      sub\n      swap1\n      return\n        /* \"study/chapter04/create2.sol\":300:667  function getAddress(uint slat,uint arg) external view returns(address){... */\n    tag_6:\n      tag_21\n      0x04\n      dup1\n      calldatasize\n      sub\n      dup2\n      add\n      swap1\n      tag_22\n      swap2\n      swap1\n      tag_23\n      jump\t// in\n    tag_22:\n      tag_24\n      jump\t// in\n    tag_21:\n      mload(0x40)\n      tag_25\n      swap2\n      swap1\n      tag_26\n      jump\t// in\n    tag_25:\n      mload(0x40)\n      dup1\n      swap2\n      sub\n      swap1\n      return\n        /* \"study/chapter04/create2.sol\":673:767  function createDSalted(bytes32 salt,uint arg)public{... */\n    tag_10:\n        /* \"study/chapter04/create2.sol\":750:754  salt */\n      dup2\n        /* \"study/chapter04/create2.sol\":756:759  arg */\n      dup2\n        /* \"study/chapter04/create2.sol\":738:760  new D{salt: salt}(arg) */\n      mload(0x40)\n      tag_28\n      swap1\n      tag_29\n      jump\t// in\n    tag_28:\n      tag_30\n      swap2\n      swap1\n      tag_31\n      jump\t// in\n    tag_30:\n      dup2\n      swap1\n      mload(0x40)\n      dup1\n      swap2\n      sub\n      swap1\n      0x00\n      create2\n      swap1\n      pop\n      dup1\n      iszero\n      dup1\n      iszero\n      tag_32\n      jumpi\n      returndatasize\n      0x00\n      dup1\n      returndatacopy\n      revert(0x00, returndatasize)\n    tag_32:\n      pop\n        /* \"study/chapter04/create2.sol\":734:735  d */\n      0x00\n      dup1\n        /* \"study/chapter04/create2.sol\":734:760  d = new D{salt: salt}(arg) */\n      0x0100\n      exp\n      dup2\n      sload\n      dup2\n      0xffffffffffffffffffffffffffffffffffffffff\n      mul\n      not\n      and\n      swap1\n      dup4\n      0xffffffffffffffffffffffffffffffffffffffff\n      and\n      mul\n      or\n      swap1\n      sstore\n      pop\n        /* \"study/chapter04/create2.sol\":673:767  function createDSalted(bytes32 salt,uint arg)public{... */\n      pop\n      pop\n      jump\t// out\n        /* \"study/chapter04/create2.sol\":189:286  function getBytes32(uint slat)external pure returns(bytes32){... */\n    tag_14:\n        /* \"study/chapter04/create2.sol\":241:248  bytes32 */\n      0x00\n        /* \"study/chapter04/create2.sol\":274:278  slat */\n      dup2\n        /* \"study/chapter04/create2.sol\":266:279  bytes32(slat) */\n      0x00\n      shl\n        /* \"study/chapter04/create2.sol\":259:279  return bytes32(slat) */\n      swap1\n      pop\n        /* \"study/chapter04/create2.sol\":189:286  function getBytes32(uint slat)external pure returns(bytes32){... */\n      swap2\n      swap1\n      pop\n      jump\t// out\n        /* \"study/chapter04/create2.sol\":173:183  D public d */\n    tag_18:\n      0x00\n      dup1\n      sload\n      swap1\n      0x0100\n      exp\n      swap1\n      div\n      0xffffffffffffffffffffffffffffffffffffffff\n      and\n      dup2\n      jump\t// out\n        /* \"study/chapter04/create2.sol\":300:667  function getAddress(uint slat,uint arg) external view returns(address){... */\n    tag_24:\n        /* \"study/chapter04/create2.sol\":362:369  address */\n      0x00\n        /* \"study/chapter04/create2.sol\":380:391  address add */\n      dup1\n        /* \"study/chapter04/create2.sol\":462:466  0xff */\n      0xff\n        /* \"study/chapter04/create2.sol\":455:467  bytes1(0xff) */\n      0xf8\n      shl\n        /* \"study/chapter04/create2.sol\":489:493  this */\n      address\n        /* \"study/chapter04/create2.sol\":508:512  slat */\n      dup6\n        /* \"study/chapter04/create2.sol\":570:590  type(D).creationCode */\n      mload(0x40)\n      dup1\n      0x20\n      add\n      tag_35\n      swap1\n      tag_29\n      jump\t// in\n    tag_35:\n      0x20\n      dup3\n      add\n      dup2\n      sub\n      dup3\n      mstore\n      not(0x1f)\n      0x1f\n      dup3\n      add\n      and\n      0x40\n      mstore\n      pop\n        /* \"study/chapter04/create2.sol\":608:611  arg */\n      dup7\n        /* \"study/chapter04/create2.sol\":536:625  abi.encodePacked(... */\n      add(0x20, mload(0x40))\n      tag_36\n      swap3\n      swap2\n      swap1\n      tag_37\n      jump\t// in\n    tag_36:\n      mload(0x40)\n      0x20\n      dup2\n      dup4\n      sub\n      sub\n      dup2\n      mstore\n      swap1\n      0x40\n      mstore\n        /* \"study/chapter04/create2.sol\":526:626  keccak256(abi.encodePacked(... */\n      dup1\n      mload\n      swap1\n      0x20\n      add\n      keccak256\n        /* \"study/chapter04/create2.sol\":425:636  abi.encodePacked(... */\n      add(0x20, mload(0x40))\n      tag_38\n      swap5\n      swap4\n      swap3\n      swap2\n      swap1\n      tag_39\n      jump\t// in\n    tag_38:\n      mload(0x40)\n      0x20\n      dup2\n      dup4\n      sub\n      sub\n      dup2\n      mstore\n      swap1\n      0x40\n      mstore\n        /* \"study/chapter04/create2.sol\":415:637  keccak256(abi.encodePacked(... */\n      dup1\n      mload\n      swap1\n      0x20\n      add\n      keccak256\n        /* \"study/chapter04/create2.sol\":410:638  uint(keccak256(abi.encodePacked(... */\n      0x00\n      shr\n        /* \"study/chapter04/create2.sol\":380:640  address add = address(uint160(uint(keccak256(abi.encodePacked(... */\n      swap1\n      pop\n        /* \"study/chapter04/create2.sol\":657:660  add */\n      dup1\n        /* \"study/chapter04/create2.sol\":650:660  return add */\n      swap2\n      pop\n      pop\n        /* \"study/chapter04/create2.sol\":300:667  function getAddress(uint slat,uint arg) external view returns(address){... */\n      swap3\n      swap2\n      pop\n      pop\n      jump\t// out\n    tag_29:\n      dataSize(sub_0)\n      dup1\n      dataOffset(sub_0)\n      dup4\n      codecopy\n      add\n      swap1\n      jump\t// out\n        /* \"#utility.yul\":88:205   */\n    tag_41:\n        /* \"#utility.yul\":197:198   */\n      0x00\n        /* \"#utility.yul\":194:195   */\n      dup1\n        /* \"#utility.yul\":187:199   */\n      revert\n        /* \"#utility.yul\":334:411   */\n    tag_43:\n        /* \"#utility.yul\":371:378   */\n      0x00\n        /* \"#utility.yul\":400:405   */\n      dup2\n        /* \"#utility.yul\":389:405   */\n      swap1\n      pop\n        /* \"#utility.yul\":334:411   */\n      swap2\n      swap1\n      pop\n      jump\t// out\n        /* \"#utility.yul\":417:539   */\n    tag_44:\n        /* \"#utility.yul\":490:514   */\n      tag_80\n        /* \"#utility.yul\":508:513   */\n      dup2\n        /* \"#utility.yul\":490:514   */\n      tag_43\n      jump\t// in\n    tag_80:\n        /* \"#utility.yul\":483:488   */\n      dup2\n        /* \"#utility.yul\":480:515   */\n      eq\n        /* \"#utility.yul\":470:533   */\n      tag_81\n      jumpi\n        /* \"#utility.yul\":529:530   */\n      0x00\n        /* \"#utility.yul\":526:527   */\n      dup1\n        /* \"#utility.yul\":519:531   */\n      revert\n        /* \"#utility.yul\":470:533   */\n    tag_81:\n        /* \"#utility.yul\":417:539   */\n      pop\n      jump\t// out\n        /* \"#utility.yul\":545:684   */\n    tag_45:\n        /* \"#utility.yul\":591:596   */\n      0x00\n        /* \"#utility.yul\":629:635   */\n      dup2\n        /* \"#utility.yul\":616:636   */\n      calldataload\n        /* \"#utility.yul\":607:636   */\n      swap1\n      pop\n        /* \"#utility.yul\":645:678   */\n      tag_83\n        /* \"#utility.yul\":672:677   */\n      dup2\n        /* \"#utility.yul\":645:678   */\n      tag_44\n      jump\t// in\n    tag_83:\n        /* \"#utility.yul\":545:684   */\n      swap3\n      swap2\n      pop\n      pop\n      jump\t// out\n        /* \"#utility.yul\":690:767   */\n    tag_46:\n        /* \"#utility.yul\":727:734   */\n      0x00\n        /* \"#utility.yul\":756:761   */\n      dup2\n        /* \"#utility.yul\":745:761   */\n      swap1\n      pop\n        /* \"#utility.yul\":690:767   */\n      swap2\n      swap1\n      pop\n      jump\t// out\n        /* \"#utility.yul\":773:895   */\n    tag_47:\n        /* \"#utility.yul\":846:870   */\n      tag_86\n        /* \"#utility.yul\":864:869   */\n      dup2\n        /* \"#utility.yul\":846:870   */\n      tag_46\n      jump\t// in\n    tag_86:\n        /* \"#utility.yul\":839:844   */\n      dup2\n        /* \"#utility.yul\":836:871   */\n      eq\n        /* \"#utility.yul\":826:889   */\n      tag_87\n      jumpi\n        /* \"#utility.yul\":885:886   */\n      0x00\n        /* \"#utility.yul\":882:883   */\n      dup1\n        /* \"#utility.yul\":875:887   */\n      revert\n        /* \"#utility.yul\":826:889   */\n    tag_87:\n        /* \"#utility.yul\":773:895   */\n      pop\n      jump\t// out\n        /* \"#utility.yul\":901:1040   */\n    tag_48:\n        /* \"#utility.yul\":947:952   */\n      0x00\n        /* \"#utility.yul\":985:991   */\n      dup2\n        /* \"#utility.yul\":972:992   */\n      calldataload\n        /* \"#utility.yul\":963:992   */\n      swap1\n      pop\n        /* \"#utility.yul\":1001:1034   */\n      tag_89\n        /* \"#utility.yul\":1028:1033   */\n      dup2\n        /* \"#utility.yul\":1001:1034   */\n      tag_47\n      jump\t// in\n    tag_89:\n        /* \"#utility.yul\":901:1040   */\n      swap3\n      swap2\n      pop\n      pop\n      jump\t// out\n        /* \"#utility.yul\":1046:1520   */\n    tag_9:\n        /* \"#utility.yul\":1114:1120   */\n      0x00\n        /* \"#utility.yul\":1122:1128   */\n      dup1\n        /* \"#utility.yul\":1171:1173   */\n      0x40\n        /* \"#utility.yul\":1159:1168   */\n      dup4\n        /* \"#utility.yul\":1150:1157   */\n      dup6\n        /* \"#utility.yul\":1146:1169   */\n      sub\n        /* \"#utility.yul\":1142:1174   */\n      slt\n        /* \"#utility.yul\":1139:1258   */\n      iszero\n      tag_91\n      jumpi\n        /* \"#utility.yul\":1177:1256   */\n      tag_92\n      tag_41\n      jump\t// in\n    tag_92:\n        /* \"#utility.yul\":1139:1258   */\n    tag_91:\n        /* \"#utility.yul\":1297:1298   */\n      0x00\n        /* \"#utility.yul\":1322:1375   */\n      tag_93\n        /* \"#utility.yul\":1367:1374   */\n      dup6\n        /* \"#utility.yul\":1358:1364   */\n      dup3\n        /* \"#utility.yul\":1347:1356   */\n      dup7\n        /* \"#utility.yul\":1343:1365   */\n      add\n        /* \"#utility.yul\":1322:1375   */\n      tag_45\n      jump\t// in\n    tag_93:\n        /* \"#utility.yul\":1312:1375   */\n      swap3\n      pop\n        /* \"#utility.yul\":1268:1385   */\n      pop\n        /* \"#utility.yul\":1424:1426   */\n      0x20\n        /* \"#utility.yul\":1450:1503   */\n      tag_94\n        /* \"#utility.yul\":1495:1502   */\n      dup6\n        /* \"#utility.yul\":1486:1492   */\n      dup3\n        /* \"#utility.yul\":1475:1484   */\n      dup7\n        /* \"#utility.yul\":1471:1493   */\n      add\n        /* \"#utility.yul\":1450:1503   */\n      tag_48\n      jump\t// in\n    tag_94:\n        /* \"#utility.yul\":1440:1503   */\n      swap2\n      pop\n        /* \"#utility.yul\":1395:1513   */\n      pop\n        /* \"#utility.yul\":1046:1520   */\n      swap3\n      pop\n      swap3\n      swap1\n      pop\n      jump\t// out\n        /* \"#utility.yul\":1526:1855   */\n    tag_13:\n        /* \"#utility.yul\":1585:1591   */\n      0x00\n        /* \"#utility.yul\":1634:1636   */\n      0x20\n        /* \"#utility.yul\":1622:1631   */\n      dup3\n        /* \"#utility.yul\":1613:1620   */\n      dup5\n        /* \"#utility.yul\":1609:1632   */\n      sub\n        /* \"#utility.yul\":1605:1637   */\n      slt\n        /* \"#utility.yul\":1602:1721   */\n      iszero\n      tag_96\n      jumpi\n        /* \"#utility.yul\":1640:1719   */\n      tag_97\n      tag_41\n      jump\t// in\n    tag_97:\n        /* \"#utility.yul\":1602:1721   */\n    tag_96:\n        /* \"#utility.yul\":1760:1761   */\n      0x00\n        /* \"#utility.yul\":1785:1838   */\n      tag_98\n        /* \"#utility.yul\":1830:1837   */\n      dup5\n        /* \"#utility.yul\":1821:1827   */\n      dup3\n        /* \"#utility.yul\":1810:1819   */\n      dup6\n        /* \"#utility.yul\":1806:1828   */\n      add\n        /* \"#utility.yul\":1785:1838   */\n      tag_48\n      jump\t// in\n    tag_98:\n        /* \"#utility.yul\":1775:1838   */\n      swap2\n      pop\n        /* \"#utility.yul\":1731:1848   */\n      pop\n        /* \"#utility.yul\":1526:1855   */\n      swap3\n      swap2\n      pop\n      pop\n      jump\t// out\n        /* \"#utility.yul\":1861:1979   */\n    tag_49:\n        /* \"#utility.yul\":1948:1972   */\n      tag_100\n        /* \"#utility.yul\":1966:1971   */\n      dup2\n        /* \"#utility.yul\":1948:1972   */\n      tag_43\n      jump\t// in\n    tag_100:\n        /* \"#utility.yul\":1943:1946   */\n      dup3\n        /* \"#utility.yul\":1936:1973   */\n      mstore\n        /* \"#utility.yul\":1861:1979   */\n      pop\n      pop\n      jump\t// out\n        /* \"#utility.yul\":1985:2207   */\n    tag_16:\n        /* \"#utility.yul\":2078:2082   */\n      0x00\n        /* \"#utility.yul\":2116:2118   */\n      0x20\n        /* \"#utility.yul\":2105:2114   */\n      dup3\n        /* \"#utility.yul\":2101:2119   */\n      add\n        /* \"#utility.yul\":2093:2119   */\n      swap1\n      pop\n        /* \"#utility.yul\":2129:2200   */\n      tag_102\n        /* \"#utility.yul\":2197:2198   */\n      0x00\n        /* \"#utility.yul\":2186:2195   */\n      dup4\n        /* \"#utility.yul\":2182:2199   */\n      add\n        /* \"#utility.yul\":2173:2179   */\n      dup5\n        /* \"#utility.yul\":2129:2200   */\n      tag_49\n      jump\t// in\n    tag_102:\n        /* \"#utility.yul\":1985:2207   */\n      swap3\n      swap2\n      pop\n      pop\n      jump\t// out\n        /* \"#utility.yul\":2213:2339   */\n    tag_50:\n        /* \"#utility.yul\":2250:2257   */\n      0x00\n        /* \"#utility.yul\":2290:2332   */\n      0xffffffffffffffffffffffffffffffffffffffff\n        /* \"#utility.yul\":2283:2288   */\n      dup3\n        /* \"#utility.yul\":2279:2333   */\n      and\n        /* \"#utility.yul\":2268:2333   */\n      swap1\n      pop\n        /* \"#utility.yul\":2213:2339   */\n      swap2\n      swap1\n      pop\n      jump\t// out\n        /* \"#utility.yul\":2345:2405   */\n    tag_51:\n        /* \"#utility.yul\":2373:2376   */\n      0x00\n        /* \"#utility.yul\":2394:2399   */\n      dup2\n        /* \"#utility.yul\":2387:2399   */\n      swap1\n      pop\n        /* \"#utility.yul\":2345:2405   */\n      swap2\n      swap1\n      pop\n      jump\t// out\n        /* \"#utility.yul\":2411:2553   */\n    tag_52:\n        /* \"#utility.yul\":2461:2470   */\n      0x00\n        /* \"#utility.yul\":2494:2547   */\n      tag_106\n        /* \"#utility.yul\":2512:2546   */\n      tag_107\n        /* \"#utility.yul\":2521:2545   */\n      tag_108\n        /* \"#utility.yul\":2539:2544   */\n      dup5\n        /* \"#utility.yul\":2521:2545   */\n      tag_50\n      jump\t// in\n    tag_108:\n        /* \"#utility.yul\":2512:2546   */\n      tag_51\n      jump\t// in\n    tag_107:\n        /* \"#utility.yul\":2494:2547   */\n      tag_50\n      jump\t// in\n    tag_106:\n        /* \"#utility.yul\":2481:2547   */\n      swap1\n      pop\n        /* \"#utility.yul\":2411:2553   */\n      swap2\n      swap1\n      pop\n      jump\t// out\n        /* \"#utility.yul\":2559:2685   */\n    tag_53:\n        /* \"#utility.yul\":2609:2618   */\n      0x00\n        /* \"#utility.yul\":2642:2679   */\n      tag_110\n        /* \"#utility.yul\":2673:2678   */\n      dup3\n        /* \"#utility.yul\":2642:2679   */\n      tag_52\n      jump\t// in\n    tag_110:\n        /* \"#utility.yul\":2629:2679   */\n      swap1\n      pop\n        /* \"#utility.yul\":2559:2685   */\n      swap2\n      swap1\n      pop\n      jump\t// out\n        /* \"#utility.yul\":2691:2825   */\n    tag_54:\n        /* \"#utility.yul\":2749:2758   */\n      0x00\n        /* \"#utility.yul\":2782:2819   */\n      tag_112\n        /* \"#utility.yul\":2813:2818   */\n      dup3\n        /* \"#utility.yul\":2782:2819   */\n      tag_53\n      jump\t// in\n    tag_112:\n        /* \"#utility.yul\":2769:2819   */\n      swap1\n      pop\n        /* \"#utility.yul\":2691:2825   */\n      swap2\n      swap1\n      pop\n      jump\t// out\n        /* \"#utility.yul\":2831:2978   */\n    tag_55:\n        /* \"#utility.yul\":2926:2971   */\n      tag_114\n        /* \"#utility.yul\":2965:2970   */\n      dup2\n        /* \"#utility.yul\":2926:2971   */\n      tag_54\n      jump\t// in\n    tag_114:\n        /* \"#utility.yul\":2921:2924   */\n      dup3\n        /* \"#utility.yul\":2914:2972   */\n      mstore\n        /* \"#utility.yul\":2831:2978   */\n      pop\n      pop\n      jump\t// out\n        /* \"#utility.yul\":2984:3222   */\n    tag_20:\n        /* \"#utility.yul\":3085:3089   */\n      0x00\n        /* \"#utility.yul\":3123:3125   */\n      0x20\n        /* \"#utility.yul\":3112:3121   */\n      dup3\n        /* \"#utility.yul\":3108:3126   */\n      add\n        /* \"#utility.yul\":3100:3126   */\n      swap1\n      pop\n        /* \"#utility.yul\":3136:3215   */\n      tag_116\n        /* \"#utility.yul\":3212:3213   */\n      0x00\n        /* \"#utility.yul\":3201:3210   */\n      dup4\n        /* \"#utility.yul\":3197:3214   */\n      add\n        /* \"#utility.yul\":3188:3194   */\n      dup5\n        /* \"#utility.yul\":3136:3215   */\n      tag_55\n      jump\t// in\n    tag_116:\n        /* \"#utility.yul\":2984:3222   */\n      swap3\n      swap2\n      pop\n      pop\n      jump\t// out\n        /* \"#utility.yul\":3228:3702   */\n    tag_23:\n        /* \"#utility.yul\":3296:3302   */\n      0x00\n        /* \"#utility.yul\":3304:3310   */\n      dup1\n        /* \"#utility.yul\":3353:3355   */\n      0x40\n        /* \"#utility.yul\":3341:3350   */\n      dup4\n        /* \"#utility.yul\":3332:3339   */\n      dup6\n        /* \"#utility.yul\":3328:3351   */\n      sub\n        /* \"#utility.yul\":3324:3356   */\n      slt\n        /* \"#utility.yul\":3321:3440   */\n      iszero\n      tag_118\n      jumpi\n        /* \"#utility.yul\":3359:3438   */\n      tag_119\n      tag_41\n      jump\t// in\n    tag_119:\n        /* \"#utility.yul\":3321:3440   */\n    tag_118:\n        /* \"#utility.yul\":3479:3480   */\n      0x00\n        /* \"#utility.yul\":3504:3557   */\n      tag_120\n        /* \"#utility.yul\":3549:3556   */\n      dup6\n        /* \"#utility.yul\":3540:3546   */\n      dup3\n        /* \"#utility.yul\":3529:3538   */\n      dup7\n        /* \"#utility.yul\":3525:3547   */\n      add\n        /* \"#utility.yul\":3504:3557   */\n      tag_48\n      jump\t// in\n    tag_120:\n        /* \"#utility.yul\":3494:3557   */\n      swap3\n      pop\n        /* \"#utility.yul\":3450:3567   */\n      pop\n        /* \"#utility.yul\":3606:3608   */\n      0x20\n        /* \"#utility.yul\":3632:3685   */\n      tag_121\n        /* \"#utility.yul\":3677:3684   */\n      dup6\n        /* \"#utility.yul\":3668:3674   */\n      dup3\n        /* \"#utility.yul\":3657:3666   */\n      dup7\n        /* \"#utility.yul\":3653:3675   */\n      add\n        /* \"#utility.yul\":3632:3685   */\n      tag_48\n      jump\t// in\n    tag_121:\n        /* \"#utility.yul\":3622:3685   */\n      swap2\n      pop\n        /* \"#utility.yul\":3577:3695   */\n      pop\n        /* \"#utility.yul\":3228:3702   */\n      swap3\n      pop\n      swap3\n      swap1\n      pop\n      jump\t// out\n        /* \"#utility.yul\":3708:3804   */\n    tag_56:\n        /* \"#utility.yul\":3745:3752   */\n      0x00\n        /* \"#utility.yul\":3774:3798   */\n      tag_123\n        /* \"#utility.yul\":3792:3797   */\n      dup3\n        /* \"#utility.yul\":3774:3798   */\n      tag_50\n      jump\t// in\n    tag_123:\n        /* \"#utility.yul\":3763:3798   */\n      swap1\n      pop\n        /* \"#utility.yul\":3708:3804   */\n      swap2\n      swap1\n      pop\n      jump\t// out\n        /* \"#utility.yul\":3810:3928   */\n    tag_57:\n        /* \"#utility.yul\":3897:3921   */\n      tag_125\n        /* \"#utility.yul\":3915:3920   */\n      dup2\n        /* \"#utility.yul\":3897:3921   */\n      tag_56\n      jump\t// in\n    tag_125:\n        /* \"#utility.yul\":3892:3895   */\n      dup3\n        /* \"#utility.yul\":3885:3922   */\n      mstore\n        /* \"#utility.yul\":3810:3928   */\n      pop\n      pop\n      jump\t// out\n        /* \"#utility.yul\":3934:4156   */\n    tag_26:\n        /* \"#utility.yul\":4027:4031   */\n      0x00\n        /* \"#utility.yul\":4065:4067   */\n      0x20\n        /* \"#utility.yul\":4054:4063   */\n      dup3\n        /* \"#utility.yul\":4050:4068   */\n      add\n        /* \"#utility.yul\":4042:4068   */\n      swap1\n      pop\n        /* \"#utility.yul\":4078:4149   */\n      tag_127\n        /* \"#utility.yul\":4146:4147   */\n      0x00\n        /* \"#utility.yul\":4135:4144   */\n      dup4\n        /* \"#utility.yul\":4131:4148   */\n      add\n        /* \"#utility.yul\":4122:4128   */\n      dup5\n        /* \"#utility.yul\":4078:4149   */\n      tag_57\n      jump\t// in\n    tag_127:\n        /* \"#utility.yul\":3934:4156   */\n      swap3\n      swap2\n      pop\n      pop\n      jump\t// out\n        /* \"#utility.yul\":4162:4280   */\n    tag_58:\n        /* \"#utility.yul\":4249:4273   */\n      tag_129\n        /* \"#utility.yul\":4267:4272   */\n      dup2\n        /* \"#utility.yul\":4249:4273   */\n      tag_46\n      jump\t// in\n    tag_129:\n        /* \"#utility.yul\":4244:4247   */\n      dup3\n        /* \"#utility.yul\":4237:4274   */\n      mstore\n        /* \"#utility.yul\":4162:4280   */\n      pop\n      pop\n      jump\t// out\n        /* \"#utility.yul\":4286:4508   */\n    tag_31:\n        /* \"#utility.yul\":4379:4383   */\n      0x00\n        /* \"#utility.yul\":4417:4419   */\n      0x20\n        /* \"#utility.yul\":4406:4415   */\n      dup3\n        /* \"#utility.yul\":4402:4420   */\n      add\n        /* \"#utility.yul\":4394:4420   */\n      swap1\n      pop\n        /* \"#utility.yul\":4430:4501   */\n      tag_131\n        /* \"#utility.yul\":4498:4499   */\n      0x00\n        /* \"#utility.yul\":4487:4496   */\n      dup4\n        /* \"#utility.yul\":4483:4500   */\n      add\n        /* \"#utility.yul\":4474:4480   */\n      dup5\n        /* \"#utility.yul\":4430:4501   */\n      tag_58\n      jump\t// in\n    tag_131:\n        /* \"#utility.yul\":4286:4508   */\n      swap3\n      swap2\n      pop\n      pop\n      jump\t// out\n        /* \"#utility.yul\":4514:4612   */\n    tag_59:\n        /* \"#utility.yul\":4565:4571   */\n      0x00\n        /* \"#utility.yul\":4599:4604   */\n      dup2\n        /* \"#utility.yul\":4593:4605   */\n      mload\n        /* \"#utility.yul\":4583:4605   */\n      swap1\n      pop\n        /* \"#utility.yul\":4514:4612   */\n      swap2\n      swap1\n      pop\n      jump\t// out\n        /* \"#utility.yul\":4618:4765   */\n    tag_60:\n        /* \"#utility.yul\":4719:4730   */\n      0x00\n        /* \"#utility.yul\":4756:4759   */\n      dup2\n        /* \"#utility.yul\":4741:4759   */\n      swap1\n      pop\n        /* \"#utility.yul\":4618:4765   */\n      swap3\n      swap2\n      pop\n      pop\n      jump\t// out\n        /* \"#utility.yul\":4771:5078   */\n    tag_61:\n        /* \"#utility.yul\":4839:4840   */\n      0x00\n        /* \"#utility.yul\":4849:4962   */\n    tag_135:\n        /* \"#utility.yul\":4863:4869   */\n      dup4\n        /* \"#utility.yul\":4860:4861   */\n      dup2\n        /* \"#utility.yul\":4857:4870   */\n      lt\n        /* \"#utility.yul\":4849:4962   */\n      iszero\n      tag_137\n      jumpi\n        /* \"#utility.yul\":4948:4949   */\n      dup1\n        /* \"#utility.yul\":4943:4946   */\n      dup3\n        /* \"#utility.yul\":4939:4950   */\n      add\n        /* \"#utility.yul\":4933:4951   */\n      mload\n        /* \"#utility.yul\":4929:4930   */\n      dup2\n        /* \"#utility.yul\":4924:4927   */\n      dup5\n        /* \"#utility.yul\":4920:4931   */\n      add\n        /* \"#utility.yul\":4913:4952   */\n      mstore\n        /* \"#utility.yul\":4885:4887   */\n      0x20\n        /* \"#utility.yul\":4882:4883   */\n      dup2\n        /* \"#utility.yul\":4878:4888   */\n      add\n        /* \"#utility.yul\":4873:4888   */\n      swap1\n      pop\n        /* \"#utility.yul\":4849:4962   */\n      jump(tag_135)\n    tag_137:\n        /* \"#utility.yul\":4980:4986   */\n      dup4\n        /* \"#utility.yul\":4977:4978   */\n      dup2\n        /* \"#utility.yul\":4974:4987   */\n      gt\n        /* \"#utility.yul\":4971:5072   */\n      iszero\n      tag_138\n      jumpi\n        /* \"#utility.yul\":5060:5061   */\n      0x00\n        /* \"#utility.yul\":5051:5057   */\n      dup5\n        /* \"#utility.yul\":5046:5049   */\n      dup5\n        /* \"#utility.yul\":5042:5058   */\n      add\n        /* \"#utility.yul\":5035:5062   */\n      mstore\n        /* \"#utility.yul\":4971:5072   */\n    tag_138:\n        /* \"#utility.yul\":4820:5078   */\n      pop\n        /* \"#utility.yul\":4771:5078   */\n      pop\n      pop\n      pop\n      jump\t// out\n        /* \"#utility.yul\":5084:5457   */\n    tag_62:\n        /* \"#utility.yul\":5188:5191   */\n      0x00\n        /* \"#utility.yul\":5216:5254   */\n      tag_140\n        /* \"#utility.yul\":5248:5253   */\n      dup3\n        /* \"#utility.yul\":5216:5254   */\n      tag_59\n      jump\t// in\n    tag_140:\n        /* \"#utility.yul\":5270:5358   */\n      tag_141\n        /* \"#utility.yul\":5351:5357   */\n      dup2\n        /* \"#utility.yul\":5346:5349   */\n      dup6\n        /* \"#utility.yul\":5270:5358   */\n      tag_60\n      jump\t// in\n    tag_141:\n        /* \"#utility.yul\":5263:5358   */\n      swap4\n      pop\n        /* \"#utility.yul\":5367:5419   */\n      tag_142\n        /* \"#utility.yul\":5412:5418   */\n      dup2\n        /* \"#utility.yul\":5407:5410   */\n      dup6\n        /* \"#utility.yul\":5400:5404   */\n      0x20\n        /* \"#utility.yul\":5393:5398   */\n      dup7\n        /* \"#utility.yul\":5389:5405   */\n      add\n        /* \"#utility.yul\":5367:5419   */\n      tag_61\n      jump\t// in\n    tag_142:\n        /* \"#utility.yul\":5444:5450   */\n      dup1\n        /* \"#utility.yul\":5439:5442   */\n      dup5\n        /* \"#utility.yul\":5435:5451   */\n      add\n        /* \"#utility.yul\":5428:5451   */\n      swap2\n      pop\n        /* \"#utility.yul\":5192:5457   */\n      pop\n        /* \"#utility.yul\":5084:5457   */\n      swap3\n      swap2\n      pop\n      pop\n      jump\t// out\n        /* \"#utility.yul\":5463:5542   */\n    tag_63:\n        /* \"#utility.yul\":5502:5509   */\n      0x00\n        /* \"#utility.yul\":5531:5536   */\n      dup2\n        /* \"#utility.yul\":5520:5536   */\n      swap1\n      pop\n        /* \"#utility.yul\":5463:5542   */\n      swap2\n      swap1\n      pop\n      jump\t// out\n        /* \"#utility.yul\":5548:5705   */\n    tag_64:\n        /* \"#utility.yul\":5653:5698   */\n      tag_145\n        /* \"#utility.yul\":5673:5697   */\n      tag_146\n        /* \"#utility.yul\":5691:5696   */\n      dup3\n        /* \"#utility.yul\":5673:5697   */\n      tag_46\n      jump\t// in\n    tag_146:\n        /* \"#utility.yul\":5653:5698   */\n      tag_63\n      jump\t// in\n    tag_145:\n        /* \"#utility.yul\":5648:5651   */\n      dup3\n        /* \"#utility.yul\":5641:5699   */\n      mstore\n        /* \"#utility.yul\":5548:5705   */\n      pop\n      pop\n      jump\t// out\n        /* \"#utility.yul\":5711:6123   */\n    tag_37:\n        /* \"#utility.yul\":5869:5872   */\n      0x00\n        /* \"#utility.yul\":5891:5984   */\n      tag_148\n        /* \"#utility.yul\":5980:5983   */\n      dup3\n        /* \"#utility.yul\":5971:5977   */\n      dup6\n        /* \"#utility.yul\":5891:5984   */\n      tag_62\n      jump\t// in\n    tag_148:\n        /* \"#utility.yul\":5884:5984   */\n      swap2\n      pop\n        /* \"#utility.yul\":5994:6069   */\n      tag_149\n        /* \"#utility.yul\":6065:6068   */\n      dup3\n        /* \"#utility.yul\":6056:6062   */\n      dup5\n        /* \"#utility.yul\":5994:6069   */\n      tag_64\n      jump\t// in\n    tag_149:\n        /* \"#utility.yul\":6094:6096   */\n      0x20\n        /* \"#utility.yul\":6089:6092   */\n      dup3\n        /* \"#utility.yul\":6085:6097   */\n      add\n        /* \"#utility.yul\":6078:6097   */\n      swap2\n      pop\n        /* \"#utility.yul\":6114:6117   */\n      dup2\n        /* \"#utility.yul\":6107:6117   */\n      swap1\n      pop\n        /* \"#utility.yul\":5711:6123   */\n      swap4\n      swap3\n      pop\n      pop\n      pop\n      jump\t// out\n        /* \"#utility.yul\":6129:6278   */\n    tag_65:\n        /* \"#utility.yul\":6165:6172   */\n      0x00\n        /* \"#utility.yul\":6205:6271   */\n      0xff00000000000000000000000000000000000000000000000000000000000000\n        /* \"#utility.yul\":6198:6203   */\n      dup3\n        /* \"#utility.yul\":6194:6272   */\n      and\n        /* \"#utility.yul\":6183:6272   */\n      swap1\n      pop\n        /* \"#utility.yul\":6129:6278   */\n      swap2\n      swap1\n      pop\n      jump\t// out\n        /* \"#utility.yul\":6284:6362   */\n    tag_66:\n        /* \"#utility.yul\":6322:6329   */\n      0x00\n        /* \"#utility.yul\":6351:6356   */\n      dup2\n        /* \"#utility.yul\":6340:6356   */\n      swap1\n      pop\n        /* \"#utility.yul\":6284:6362   */\n      swap2\n      swap1\n      pop\n      jump\t// out\n        /* \"#utility.yul\":6368:6521   */\n    tag_67:\n        /* \"#utility.yul\":6471:6514   */\n      tag_153\n        /* \"#utility.yul\":6490:6513   */\n      tag_154\n        /* \"#utility.yul\":6507:6512   */\n      dup3\n        /* \"#utility.yul\":6490:6513   */\n      tag_65\n      jump\t// in\n    tag_154:\n        /* \"#utility.yul\":6471:6514   */\n      tag_66\n      jump\t// in\n    tag_153:\n        /* \"#utility.yul\":6466:6469   */\n      dup3\n        /* \"#utility.yul\":6459:6515   */\n      mstore\n        /* \"#utility.yul\":6368:6521   */\n      pop\n      pop\n      jump\t// out\n        /* \"#utility.yul\":6527:6621   */\n    tag_68:\n        /* \"#utility.yul\":6560:6568   */\n      0x00\n        /* \"#utility.yul\":6608:6613   */\n      dup2\n        /* \"#utility.yul\":6604:6606   */\n      0x60\n        /* \"#utility.yul\":6600:6614   */\n      shl\n        /* \"#utility.yul\":6579:6614   */\n      swap1\n      pop\n        /* \"#utility.yul\":6527:6621   */\n      swap2\n      swap1\n      pop\n      jump\t// out\n        /* \"#utility.yul\":6627:6721   */\n    tag_69:\n        /* \"#utility.yul\":6666:6673   */\n      0x00\n        /* \"#utility.yul\":6695:6715   */\n      tag_157\n        /* \"#utility.yul\":6709:6714   */\n      dup3\n        /* \"#utility.yul\":6695:6715   */\n      tag_68\n      jump\t// in\n    tag_157:\n        /* \"#utility.yul\":6684:6715   */\n      swap1\n      pop\n        /* \"#utility.yul\":6627:6721   */\n      swap2\n      swap1\n      pop\n      jump\t// out\n        /* \"#utility.yul\":6727:6827   */\n    tag_70:\n        /* \"#utility.yul\":6766:6773   */\n      0x00\n        /* \"#utility.yul\":6795:6821   */\n      tag_159\n        /* \"#utility.yul\":6815:6820   */\n      dup3\n        /* \"#utility.yul\":6795:6821   */\n      tag_69\n      jump\t// in\n    tag_159:\n        /* \"#utility.yul\":6784:6821   */\n      swap1\n      pop\n        /* \"#utility.yul\":6727:6827   */\n      swap2\n      swap1\n      pop\n      jump\t// out\n        /* \"#utility.yul\":6833:6990   */\n    tag_71:\n        /* \"#utility.yul\":6938:6983   */\n      tag_161\n        /* \"#utility.yul\":6958:6982   */\n      tag_162\n        /* \"#utility.yul\":6976:6981   */\n      dup3\n        /* \"#utility.yul\":6958:6982   */\n      tag_56\n      jump\t// in\n    tag_162:\n        /* \"#utility.yul\":6938:6983   */\n      tag_70\n      jump\t// in\n    tag_161:\n        /* \"#utility.yul\":6933:6936   */\n      dup3\n        /* \"#utility.yul\":6926:6984   */\n      mstore\n        /* \"#utility.yul\":6833:6990   */\n      pop\n      pop\n      jump\t// out\n        /* \"#utility.yul\":6996:7075   */\n    tag_72:\n        /* \"#utility.yul\":7035:7042   */\n      0x00\n        /* \"#utility.yul\":7064:7069   */\n      dup2\n        /* \"#utility.yul\":7053:7069   */\n      swap1\n      pop\n        /* \"#utility.yul\":6996:7075   */\n      swap2\n      swap1\n      pop\n      jump\t// out\n        /* \"#utility.yul\":7081:7238   */\n    tag_73:\n        /* \"#utility.yul\":7186:7231   */\n      tag_165\n        /* \"#utility.yul\":7206:7230   */\n      tag_166\n        /* \"#utility.yul\":7224:7229   */\n      dup3\n        /* \"#utility.yul\":7206:7230   */\n      tag_43\n      jump\t// in\n    tag_166:\n        /* \"#utility.yul\":7186:7231   */\n      tag_72\n      jump\t// in\n    tag_165:\n        /* \"#utility.yul\":7181:7184   */\n      dup3\n        /* \"#utility.yul\":7174:7232   */\n      mstore\n        /* \"#utility.yul\":7081:7238   */\n      pop\n      pop\n      jump\t// out\n        /* \"#utility.yul\":7244:7918   */\n    tag_39:\n        /* \"#utility.yul\":7438:7441   */\n      0x00\n        /* \"#utility.yul\":7453:7526   */\n      tag_168\n        /* \"#utility.yul\":7522:7525   */\n      dup3\n        /* \"#utility.yul\":7513:7519   */\n      dup8\n        /* \"#utility.yul\":7453:7526   */\n      tag_67\n      jump\t// in\n    tag_168:\n        /* \"#utility.yul\":7551:7552   */\n      0x01\n        /* \"#utility.yul\":7546:7549   */\n      dup3\n        /* \"#utility.yul\":7542:7553   */\n      add\n        /* \"#utility.yul\":7535:7553   */\n      swap2\n      pop\n        /* \"#utility.yul\":7563:7638   */\n      tag_169\n        /* \"#utility.yul\":7634:7637   */\n      dup3\n        /* \"#utility.yul\":7625:7631   */\n      dup7\n        /* \"#utility.yul\":7563:7638   */\n      tag_71\n      jump\t// in\n    tag_169:\n        /* \"#utility.yul\":7663:7665   */\n      0x14\n        /* \"#utility.yul\":7658:7661   */\n      dup3\n        /* \"#utility.yul\":7654:7666   */\n      add\n        /* \"#utility.yul\":7647:7666   */\n      swap2\n      pop\n        /* \"#utility.yul\":7676:7751   */\n      tag_170\n        /* \"#utility.yul\":7747:7750   */\n      dup3\n        /* \"#utility.yul\":7738:7744   */\n      dup6\n        /* \"#utility.yul\":7676:7751   */\n      tag_64\n      jump\t// in\n    tag_170:\n        /* \"#utility.yul\":7776:7778   */\n      0x20\n        /* \"#utility.yul\":7771:7774   */\n      dup3\n        /* \"#utility.yul\":7767:7779   */\n      add\n        /* \"#utility.yul\":7760:7779   */\n      swap2\n      pop\n        /* \"#utility.yul\":7789:7864   */\n      tag_171\n        /* \"#utility.yul\":7860:7863   */\n      dup3\n        /* \"#utility.yul\":7851:7857   */\n      dup5\n        /* \"#utility.yul\":7789:7864   */\n      tag_73\n      jump\t// in\n    tag_171:\n        /* \"#utility.yul\":7889:7891   */\n      0x20\n        /* \"#utility.yul\":7884:7887   */\n      dup3\n        /* \"#utility.yul\":7880:7892   */\n      add\n        /* \"#utility.yul\":7873:7892   */\n      swap2\n      pop\n        /* \"#utility.yul\":7909:7912   */\n      dup2\n        /* \"#utility.yul\":7902:7912   */\n      swap1\n      pop\n        /* \"#utility.yul\":7244:7918   */\n      swap6\n      swap5\n      pop\n      pop\n      pop\n      pop\n      pop\n      jump\t// out\n    stop\n\n    sub_0: assembly {\n            /* \"study/chapter04/create2.sol\":55:148  contract D{... */\n          mstore(0x40, 0x80)\n            /* \"study/chapter04/create2.sol\":94:145  constructor(uint _arg){... */\n          callvalue\n          dup1\n          iszero\n          tag_1\n          jumpi\n          0x00\n          dup1\n          revert\n        tag_1:\n          pop\n          mload(0x40)\n          sub(codesize, bytecodeSize)\n          dup1\n          bytecodeSize\n          dup4\n          codecopy\n          dup2\n          dup2\n          add\n          0x40\n          mstore\n          dup2\n          add\n          swap1\n          tag_2\n          swap2\n          swap1\n          tag_3\n          jump\t// in\n        tag_2:\n            /* \"study/chapter04/create2.sol\":133:137  _arg */\n          dup1\n            /* \"study/chapter04/create2.sol\":127:130  arg */\n          0x00\n            /* \"study/chapter04/create2.sol\":127:137  arg = _arg */\n          dup2\n          swap1\n          sstore\n          pop\n            /* \"study/chapter04/create2.sol\":94:145  constructor(uint _arg){... */\n          pop\n            /* \"study/chapter04/create2.sol\":55:148  contract D{... */\n          jump(tag_6)\n            /* \"#utility.yul\":88:205   */\n        tag_8:\n            /* \"#utility.yul\":197:198   */\n          0x00\n            /* \"#utility.yul\":194:195   */\n          dup1\n            /* \"#utility.yul\":187:199   */\n          revert\n            /* \"#utility.yul\":334:411   */\n        tag_10:\n            /* \"#utility.yul\":371:378   */\n          0x00\n            /* \"#utility.yul\":400:405   */\n          dup2\n            /* \"#utility.yul\":389:405   */\n          swap1\n          pop\n            /* \"#utility.yul\":334:411   */\n          swap2\n          swap1\n          pop\n          jump\t// out\n            /* \"#utility.yul\":417:539   */\n        tag_11:\n            /* \"#utility.yul\":490:514   */\n          tag_19\n            /* \"#utility.yul\":508:513   */\n          dup2\n            /* \"#utility.yul\":490:514   */\n          tag_10\n          jump\t// in\n        tag_19:\n            /* \"#utility.yul\":483:488   */\n          dup2\n            /* \"#utility.yul\":480:515   */\n          eq\n            /* \"#utility.yul\":470:533   */\n          tag_20\n          jumpi\n            /* \"#utility.yul\":529:530   */\n          0x00\n            /* \"#utility.yul\":526:527   */\n          dup1\n            /* \"#utility.yul\":519:531   */\n          revert\n            /* \"#utility.yul\":470:533   */\n        tag_20:\n            /* \"#utility.yul\":417:539   */\n          pop\n          jump\t// out\n            /* \"#utility.yul\":545:688   */\n        tag_12:\n            /* \"#utility.yul\":602:607   */\n          0x00\n            /* \"#utility.yul\":633:639   */\n          dup2\n            /* \"#utility.yul\":627:640   */\n          mload\n            /* \"#utility.yul\":618:640   */\n          swap1\n          pop\n            /* \"#utility.yul\":649:682   */\n          tag_22\n            /* \"#utility.yul\":676:681   */\n          dup2\n            /* \"#utility.yul\":649:682   */\n          tag_11\n          jump\t// in\n        tag_22:\n            /* \"#utility.yul\":545:688   */\n          swap3\n          swap2\n          pop\n          pop\n          jump\t// out\n            /* \"#utility.yul\":694:1045   */\n        tag_3:\n            /* \"#utility.yul\":764:770   */\n          0x00\n            /* \"#utility.yul\":813:815   */\n          0x20\n            /* \"#utility.yul\":801:810   */\n          dup3\n            /* \"#utility.yul\":792:799   */\n          dup5\n            /* \"#utility.yul\":788:811   */\n          sub\n            /* \"#utility.yul\":784:816   */\n          slt\n            /* \"#utility.yul\":781:900   */\n          iszero\n          tag_24\n          jumpi\n            /* \"#utility.yul\":819:898   */\n          tag_25\n          tag_8\n          jump\t// in\n        tag_25:\n            /* \"#utility.yul\":781:900   */\n        tag_24:\n            /* \"#utility.yul\":939:940   */\n          0x00\n            /* \"#utility.yul\":964:1028   */\n          tag_26\n            /* \"#utility.yul\":1020:1027   */\n          dup5\n            /* \"#utility.yul\":1011:1017   */\n          dup3\n            /* \"#utility.yul\":1000:1009   */\n          dup6\n            /* \"#utility.yul\":996:1018   */\n          add\n            /* \"#utility.yul\":964:1028   */\n          tag_12\n          jump\t// in\n        tag_26:\n            /* \"#utility.yul\":954:1028   */\n          swap2\n          pop\n            /* \"#utility.yul\":910:1038   */\n          pop\n            /* \"#utility.yul\":694:1045   */\n          swap3\n          swap2\n          pop\n          pop\n          jump\t// out\n            /* \"study/chapter04/create2.sol\":55:148  contract D{... */\n        tag_6:\n          dataSize(sub_0)\n          dup1\n          dataOffset(sub_0)\n          0x00\n          codecopy\n          0x00\n          return\n        stop\n\n        sub_0: assembly {\n                /* \"study/chapter04/create2.sol\":55:148  contract D{... */\n              mstore(0x40, 0x80)\n              callvalue\n              dup1\n              iszero\n              tag_1\n              jumpi\n              0x00\n              dup1\n              revert\n            tag_1:\n              pop\n              jumpi(tag_2, lt(calldatasize, 0x04))\n              shr(0xe0, calldataload(0x00))\n              dup1\n              0x7435e911\n              eq\n              tag_3\n              jumpi\n            tag_2:\n              0x00\n              dup1\n              revert\n                /* \"study/chapter04/create2.sol\":72:87  uint public arg */\n            tag_3:\n              tag_4\n              tag_5\n              jump\t// in\n            tag_4:\n              mload(0x40)\n              tag_6\n              swap2\n              swap1\n              tag_7\n              jump\t// in\n            tag_6:\n              mload(0x40)\n              dup1\n              swap2\n              sub\n              swap1\n              return\n            tag_5:\n              sload(0x00)\n              dup2\n              jump\t// out\n                /* \"#utility.yul\":7:84   */\n            tag_8:\n                /* \"#utility.yul\":44:51   */\n              0x00\n                /* \"#utility.yul\":73:78   */\n              dup2\n                /* \"#utility.yul\":62:78   */\n              swap1\n              pop\n                /* \"#utility.yul\":7:84   */\n              swap2\n              swap1\n              pop\n              jump\t// out\n                /* \"#utility.yul\":90:208   */\n            tag_9:\n                /* \"#utility.yul\":177:201   */\n              tag_13\n                /* \"#utility.yul\":195:200   */\n              dup2\n                /* \"#utility.yul\":177:201   */\n              tag_8\n              jump\t// in\n            tag_13:\n                /* \"#utility.yul\":172:175   */\n              dup3\n                /* \"#utility.yul\":165:202   */\n              mstore\n                /* \"#utility.yul\":90:208   */\n              pop\n              pop\n              jump\t// out\n                /* \"#utility.yul\":214:436   */\n            tag_7:\n                /* \"#utility.yul\":307:311   */\n              0x00\n                /* \"#utility.yul\":345:347   */\n              0x20\n                /* \"#utility.yul\":334:343   */\n              dup3\n                /* \"#utility.yul\":330:348   */\n              add\n                /* \"#utility.yul\":322:348   */\n              swap1\n              pop\n                /* \"#utility.yul\":358:429   */\n              tag_15\n                /* \"#utility.yul\":426:427   */\n              0x00\n                /* \"#utility.yul\":415:424   */\n              dup4\n                /* \"#utility.yul\":411:428   */\n              add\n                /* \"#utility.yul\":402:408   */\n              dup5\n                /* \"#utility.yul\":358:429   */\n              tag_9\n              jump\t// in\n            tag_15:\n                /* \"#utility.yul\":214:436   */\n              swap3\n              swap2\n              pop\n              pop\n              jump\t// out\n\n            auxdata: 0xa264697066735822122082f79c12d88a0f68c8b6fe2db6a47d6f37880d261eaca714172f46bf84c36d6164736f6c634300080f0033\n        }\n    }\n\n    auxdata: 0xa2646970667358221220e1e20b365eaffd687491e1b8fe333078b049f133f635ed9666a30f81c4711e7c64736f6c634300080f0033\n}\n",
				"bytecode": {
					"linkReferences": {},
					"object": "608060405234801561001057600080fd5b506107e0806100206000396000f3fe608060405234801561001057600080fd5b506004361061004c5760003560e01c80630bd38f2f1461005157806324dfc9d71461006d5780638a054ac21461009d5780639262d759146100bb575b600080fd5b61006b600480360381019061006691906102a4565b6100eb565b005b610087600480360381019061008291906102e4565b610167565b6040516100949190610320565b60405180910390f35b6100a5610174565b6040516100b291906103ba565b60405180910390f35b6100d560048036038101906100d091906103d5565b610198565b6040516100e29190610436565b60405180910390f35b81816040516100f990610226565b6101039190610460565b8190604051809103906000f5905080158015610123573d6000803e3d6000fd5b506000806101000a81548173ffffffffffffffffffffffffffffffffffffffff021916908373ffffffffffffffffffffffffffffffffffffffff1602179055505050565b60008160001b9050919050565b60008054906101000a900473ffffffffffffffffffffffffffffffffffffffff1681565b60008060ff60f81b3085604051806020016101b290610226565b6020820181038252601f19601f82011660405250866040516020016101d8929190610516565b6040516020818303038152906040528051906020012060405160200161020194939291906105f4565b6040516020818303038152906040528051906020012060001c90508091505092915050565b6101688061064383390190565b600080fd5b6000819050919050565b61024b81610238565b811461025657600080fd5b50565b60008135905061026881610242565b92915050565b6000819050919050565b6102818161026e565b811461028c57600080fd5b50565b60008135905061029e81610278565b92915050565b600080604083850312156102bb576102ba610233565b5b60006102c985828601610259565b92505060206102da8582860161028f565b9150509250929050565b6000602082840312156102fa576102f9610233565b5b60006103088482850161028f565b91505092915050565b61031a81610238565b82525050565b60006020820190506103356000830184610311565b92915050565b600073ffffffffffffffffffffffffffffffffffffffff82169050919050565b6000819050919050565b600061038061037b6103768461033b565b61035b565b61033b565b9050919050565b600061039282610365565b9050919050565b60006103a482610387565b9050919050565b6103b481610399565b82525050565b60006020820190506103cf60008301846103ab565b92915050565b600080604083850312156103ec576103eb610233565b5b60006103fa8582860161028f565b925050602061040b8582860161028f565b9150509250929050565b60006104208261033b565b9050919050565b61043081610415565b82525050565b600060208201905061044b6000830184610427565b92915050565b61045a8161026e565b82525050565b60006020820190506104756000830184610451565b92915050565b600081519050919050565b600081905092915050565b60005b838110156104af578082015181840152602081019050610494565b838111156104be576000848401525b50505050565b60006104cf8261047b565b6104d98185610486565b93506104e9818560208601610491565b80840191505092915050565b6000819050919050565b61051061050b8261026e565b6104f5565b82525050565b600061052282856104c4565b915061052e82846104ff565b6020820191508190509392505050565b60007fff0000000000000000000000000000000000000000000000000000000000000082169050919050565b6000819050919050565b6105856105808261053e565b61056a565b82525050565b60008160601b9050919050565b60006105a38261058b565b9050919050565b60006105b582610598565b9050919050565b6105cd6105c882610415565b6105aa565b82525050565b6000819050919050565b6105ee6105e982610238565b6105d3565b82525050565b60006106008287610574565b60018201915061061082866105bc565b60148201915061062082856104ff565b60208201915061063082846105dd565b6020820191508190509594505050505056fe608060405234801561001057600080fd5b506040516101683803806101688339818101604052810190610032919061007a565b80600081905550506100a7565b600080fd5b6000819050919050565b61005781610044565b811461006257600080fd5b50565b6000815190506100748161004e565b92915050565b6000602082840312156100905761008f61003f565b5b600061009e84828501610065565b91505092915050565b60b3806100b56000396000f3fe6080604052348015600f57600080fd5b506004361060285760003560e01c80637435e91114602d575b600080fd5b60336047565b604051603e91906064565b60405180910390f35b60005481565b6000819050919050565b605e81604d565b82525050565b6000602082019050607760008301846057565b9291505056fea264697066735822122082f79c12d88a0f68c8b6fe2db6a47d6f37880d261eaca714172f46bf84c36d6164736f6c634300080f0033a2646970667358221220e1e20b365eaffd687491e1b8fe333078b049f133f635ed9666a30f81c4711e7c64736f6c634300080f0033",
					"opcodes": "PUSH1 0x80 PUSH1 0x40 MSTORE CALLVALUE DUP1 ISZERO PUSH2 0x10 JUMPI PUSH1 0x0 DUP1 REVERT JUMPDEST POP PUSH2 0x7E0 DUP1 PUSH2 0x20 PUSH1 0x0 CODECOPY PUSH1 0x0 RETURN INVALID PUSH1 0x80 PUSH1 0x40 MSTORE CALLVALUE DUP1 ISZERO PUSH2 0x10 JUMPI PUSH1 0x0 DUP1 REVERT JUMPDEST POP PUSH1 0x4 CALLDATASIZE LT PUSH2 0x4C JUMPI PUSH1 0x0 CALLDATALOAD PUSH1 0xE0 SHR DUP1 PUSH4 0xBD38F2F EQ PUSH2 0x51 JUMPI DUP1 PUSH4 0x24DFC9D7 EQ PUSH2 0x6D JUMPI DUP1 PUSH4 0x8A054AC2 EQ PUSH2 0x9D JUMPI DUP1 PUSH4 0x9262D759 EQ PUSH2 0xBB JUMPI JUMPDEST PUSH1 0x0 DUP1 REVERT JUMPDEST PUSH2 0x6B PUSH1 0x4 DUP1 CALLDATASIZE SUB DUP2 ADD SWAP1 PUSH2 0x66 SWAP2 SWAP1 PUSH2 0x2A4 JUMP JUMPDEST PUSH2 0xEB JUMP JUMPDEST STOP JUMPDEST PUSH2 0x87 PUSH1 0x4 DUP1 CALLDATASIZE SUB DUP2 ADD SWAP1 PUSH2 0x82 SWAP2 SWAP1 PUSH2 0x2E4 JUMP JUMPDEST PUSH2 0x167 JUMP JUMPDEST PUSH1 0x40 MLOAD PUSH2 0x94 SWAP2 SWAP1 PUSH2 0x320 JUMP JUMPDEST PUSH1 0x40 MLOAD DUP1 SWAP2 SUB SWAP1 RETURN JUMPDEST PUSH2 0xA5 PUSH2 0x174 JUMP JUMPDEST PUSH1 0x40 MLOAD PUSH2 0xB2 SWAP2 SWAP1 PUSH2 0x3BA JUMP JUMPDEST PUSH1 0x40 MLOAD DUP1 SWAP2 SUB SWAP1 RETURN JUMPDEST PUSH2 0xD5 PUSH1 0x4 DUP1 CALLDATASIZE SUB DUP2 ADD SWAP1 PUSH2 0xD0 SWAP2 SWAP1 PUSH2 0x3D5 JUMP JUMPDEST PUSH2 0x198 JUMP JUMPDEST PUSH1 0x40 MLOAD PUSH2 0xE2 SWAP2 SWAP1 PUSH2 0x436 JUMP JUMPDEST PUSH1 0x40 MLOAD DUP1 SWAP2 SUB SWAP1 RETURN JUMPDEST DUP2 DUP2 PUSH1 0x40 MLOAD PUSH2 0xF9 SWAP1 PUSH2 0x226 JUMP JUMPDEST PUSH2 0x103 SWAP2 SWAP1 PUSH2 0x460 JUMP JUMPDEST DUP2 SWAP1 PUSH1 0x40 MLOAD DUP1 SWAP2 SUB SWAP1 PUSH1 0x0 CREATE2 SWAP1 POP DUP1 ISZERO DUP1 ISZERO PUSH2 0x123 JUMPI RETURNDATASIZE PUSH1 0x0 DUP1 RETURNDATACOPY RETURNDATASIZE PUSH1 0x0 REVERT JUMPDEST POP PUSH1 0x0 DUP1 PUSH2 0x100 EXP DUP2 SLOAD DUP2 PUSH20 0xFFFFFFFFFFFFFFFFFFFFFFFFFFFFFFFFFFFFFFFF MUL NOT AND SWAP1 DUP4 PUSH20 0xFFFFFFFFFFFFFFFFFFFFFFFFFFFFFFFFFFFFFFFF AND MUL OR SWAP1 SSTORE POP POP POP JUMP JUMPDEST PUSH1 0x0 DUP2 PUSH1 0x0 SHL SWAP1 POP SWAP2 SWAP1 POP JUMP JUMPDEST PUSH1 0x0 DUP1 SLOAD SWAP1 PUSH2 0x100 EXP SWAP1 DIV PUSH20 0xFFFFFFFFFFFFFFFFFFFFFFFFFFFFFFFFFFFFFFFF AND DUP2 JUMP JUMPDEST PUSH1 0x0 DUP1 PUSH1 0xFF PUSH1 0xF8 SHL ADDRESS DUP6 PUSH1 0x40 MLOAD DUP1 PUSH1 0x20 ADD PUSH2 0x1B2 SWAP1 PUSH2 0x226 JUMP JUMPDEST PUSH1 0x20 DUP3 ADD DUP2 SUB DUP3 MSTORE PUSH1 0x1F NOT PUSH1 0x1F DUP3 ADD AND PUSH1 0x40 MSTORE POP DUP7 PUSH1 0x40 MLOAD PUSH1 0x20 ADD PUSH2 0x1D8 SWAP3 SWAP2 SWAP1 PUSH2 0x516 JUMP JUMPDEST PUSH1 0x40 MLOAD PUSH1 0x20 DUP2 DUP4 SUB SUB DUP2 MSTORE SWAP1 PUSH1 0x40 MSTORE DUP1 MLOAD SWAP1 PUSH1 0x20 ADD KECCAK256 PUSH1 0x40 MLOAD PUSH1 0x20 ADD PUSH2 0x201 SWAP5 SWAP4 SWAP3 SWAP2 SWAP1 PUSH2 0x5F4 JUMP JUMPDEST PUSH1 0x40 MLOAD PUSH1 0x20 DUP2 DUP4 SUB SUB DUP2 MSTORE SWAP1 PUSH1 0x40 MSTORE DUP1 MLOAD SWAP1 PUSH1 0x20 ADD KECCAK256 PUSH1 0x0 SHR SWAP1 POP DUP1 SWAP2 POP POP SWAP3 SWAP2 POP POP JUMP JUMPDEST PUSH2 0x168 DUP1 PUSH2 0x643 DUP4 CODECOPY ADD SWAP1 JUMP JUMPDEST PUSH1 0x0 DUP1 REVERT JUMPDEST PUSH1 0x0 DUP2 SWAP1 POP SWAP2 SWAP1 POP JUMP JUMPDEST PUSH2 0x24B DUP2 PUSH2 0x238 JUMP JUMPDEST DUP2 EQ PUSH2 0x256 JUMPI PUSH1 0x0 DUP1 REVERT JUMPDEST POP JUMP JUMPDEST PUSH1 0x0 DUP2 CALLDATALOAD SWAP1 POP PUSH2 0x268 DUP2 PUSH2 0x242 JUMP JUMPDEST SWAP3 SWAP2 POP POP JUMP JUMPDEST PUSH1 0x0 DUP2 SWAP1 POP SWAP2 SWAP1 POP JUMP JUMPDEST PUSH2 0x281 DUP2 PUSH2 0x26E JUMP JUMPDEST DUP2 EQ PUSH2 0x28C JUMPI PUSH1 0x0 DUP1 REVERT JUMPDEST POP JUMP JUMPDEST PUSH1 0x0 DUP2 CALLDATALOAD SWAP1 POP PUSH2 0x29E DUP2 PUSH2 0x278 JUMP JUMPDEST SWAP3 SWAP2 POP POP JUMP JUMPDEST PUSH1 0x0 DUP1 PUSH1 0x40 DUP4 DUP6 SUB SLT ISZERO PUSH2 0x2BB JUMPI PUSH2 0x2BA PUSH2 0x233 JUMP JUMPDEST JUMPDEST PUSH1 0x0 PUSH2 0x2C9 DUP6 DUP3 DUP7 ADD PUSH2 0x259 JUMP JUMPDEST SWAP3 POP POP PUSH1 0x20 PUSH2 0x2DA DUP6 DUP3 DUP7 ADD PUSH2 0x28F JUMP JUMPDEST SWAP2 POP POP SWAP3 POP SWAP3 SWAP1 POP JUMP JUMPDEST PUSH1 0x0 PUSH1 0x20 DUP3 DUP5 SUB SLT ISZERO PUSH2 0x2FA JUMPI PUSH2 0x2F9 PUSH2 0x233 JUMP JUMPDEST JUMPDEST PUSH1 0x0 PUSH2 0x308 DUP5 DUP3 DUP6 ADD PUSH2 0x28F JUMP JUMPDEST SWAP2 POP POP SWAP3 SWAP2 POP POP JUMP JUMPDEST PUSH2 0x31A DUP2 PUSH2 0x238 JUMP JUMPDEST DUP3 MSTORE POP POP JUMP JUMPDEST PUSH1 0x0 PUSH1 0x20 DUP3 ADD SWAP1 POP PUSH2 0x335 PUSH1 0x0 DUP4 ADD DUP5 PUSH2 0x311 JUMP JUMPDEST SWAP3 SWAP2 POP POP JUMP JUMPDEST PUSH1 0x0 PUSH20 0xFFFFFFFFFFFFFFFFFFFFFFFFFFFFFFFFFFFFFFFF DUP3 AND SWAP1 POP SWAP2 SWAP1 POP JUMP JUMPDEST PUSH1 0x0 DUP2 SWAP1 POP SWAP2 SWAP1 POP JUMP JUMPDEST PUSH1 0x0 PUSH2 0x380 PUSH2 0x37B PUSH2 0x376 DUP5 PUSH2 0x33B JUMP JUMPDEST PUSH2 0x35B JUMP JUMPDEST PUSH2 0x33B JUMP JUMPDEST SWAP1 POP SWAP2 SWAP1 POP JUMP JUMPDEST PUSH1 0x0 PUSH2 0x392 DUP3 PUSH2 0x365 JUMP JUMPDEST SWAP1 POP SWAP2 SWAP1 POP JUMP JUMPDEST PUSH1 0x0 PUSH2 0x3A4 DUP3 PUSH2 0x387 JUMP JUMPDEST SWAP1 POP SWAP2 SWAP1 POP JUMP JUMPDEST PUSH2 0x3B4 DUP2 PUSH2 0x399 JUMP JUMPDEST DUP3 MSTORE POP POP JUMP JUMPDEST PUSH1 0x0 PUSH1 0x20 DUP3 ADD SWAP1 POP PUSH2 0x3CF PUSH1 0x0 DUP4 ADD DUP5 PUSH2 0x3AB JUMP JUMPDEST SWAP3 SWAP2 POP POP JUMP JUMPDEST PUSH1 0x0 DUP1 PUSH1 0x40 DUP4 DUP6 SUB SLT ISZERO PUSH2 0x3EC JUMPI PUSH2 0x3EB PUSH2 0x233 JUMP JUMPDEST JUMPDEST PUSH1 0x0 PUSH2 0x3FA DUP6 DUP3 DUP7 ADD PUSH2 0x28F JUMP JUMPDEST SWAP3 POP POP PUSH1 0x20 PUSH2 0x40B DUP6 DUP3 DUP7 ADD PUSH2 0x28F JUMP JUMPDEST SWAP2 POP POP SWAP3 POP SWAP3 SWAP1 POP JUMP JUMPDEST PUSH1 0x0 PUSH2 0x420 DUP3 PUSH2 0x33B JUMP JUMPDEST SWAP1 POP SWAP2 SWAP1 POP JUMP JUMPDEST PUSH2 0x430 DUP2 PUSH2 0x415 JUMP JUMPDEST DUP3 MSTORE POP POP JUMP JUMPDEST PUSH1 0x0 PUSH1 0x20 DUP3 ADD SWAP1 POP PUSH2 0x44B PUSH1 0x0 DUP4 ADD DUP5 PUSH2 0x427 JUMP JUMPDEST SWAP3 SWAP2 POP POP JUMP JUMPDEST PUSH2 0x45A DUP2 PUSH2 0x26E JUMP JUMPDEST DUP3 MSTORE POP POP JUMP JUMPDEST PUSH1 0x0 PUSH1 0x20 DUP3 ADD SWAP1 POP PUSH2 0x475 PUSH1 0x0 DUP4 ADD DUP5 PUSH2 0x451 JUMP JUMPDEST SWAP3 SWAP2 POP POP JUMP JUMPDEST PUSH1 0x0 DUP2 MLOAD SWAP1 POP SWAP2 SWAP1 POP JUMP JUMPDEST PUSH1 0x0 DUP2 SWAP1 POP SWAP3 SWAP2 POP POP JUMP JUMPDEST PUSH1 0x0 JUMPDEST DUP4 DUP2 LT ISZERO PUSH2 0x4AF JUMPI DUP1 DUP3 ADD MLOAD DUP2 DUP5 ADD MSTORE PUSH1 0x20 DUP2 ADD SWAP1 POP PUSH2 0x494 JUMP JUMPDEST DUP4 DUP2 GT ISZERO PUSH2 0x4BE JUMPI PUSH1 0x0 DUP5 DUP5 ADD MSTORE JUMPDEST POP POP POP POP JUMP JUMPDEST PUSH1 0x0 PUSH2 0x4CF DUP3 PUSH2 0x47B JUMP JUMPDEST PUSH2 0x4D9 DUP2 DUP6 PUSH2 0x486 JUMP JUMPDEST SWAP4 POP PUSH2 0x4E9 DUP2 DUP6 PUSH1 0x20 DUP7 ADD PUSH2 0x491 JUMP JUMPDEST DUP1 DUP5 ADD SWAP2 POP POP SWAP3 SWAP2 POP POP JUMP JUMPDEST PUSH1 0x0 DUP2 SWAP1 POP SWAP2 SWAP1 POP JUMP JUMPDEST PUSH2 0x510 PUSH2 0x50B DUP3 PUSH2 0x26E JUMP JUMPDEST PUSH2 0x4F5 JUMP JUMPDEST DUP3 MSTORE POP POP JUMP JUMPDEST PUSH1 0x0 PUSH2 0x522 DUP3 DUP6 PUSH2 0x4C4 JUMP JUMPDEST SWAP2 POP PUSH2 0x52E DUP3 DUP5 PUSH2 0x4FF JUMP JUMPDEST PUSH1 0x20 DUP3 ADD SWAP2 POP DUP2 SWAP1 POP SWAP4 SWAP3 POP POP POP JUMP JUMPDEST PUSH1 0x0 PUSH32 0xFF00000000000000000000000000000000000000000000000000000000000000 DUP3 AND SWAP1 POP SWAP2 SWAP1 POP JUMP JUMPDEST PUSH1 0x0 DUP2 SWAP1 POP SWAP2 SWAP1 POP JUMP JUMPDEST PUSH2 0x585 PUSH2 0x580 DUP3 PUSH2 0x53E JUMP JUMPDEST PUSH2 0x56A JUMP JUMPDEST DUP3 MSTORE POP POP JUMP JUMPDEST PUSH1 0x0 DUP2 PUSH1 0x60 SHL SWAP1 POP SWAP2 SWAP1 POP JUMP JUMPDEST PUSH1 0x0 PUSH2 0x5A3 DUP3 PUSH2 0x58B JUMP JUMPDEST SWAP1 POP SWAP2 SWAP1 POP JUMP JUMPDEST PUSH1 0x0 PUSH2 0x5B5 DUP3 PUSH2 0x598 JUMP JUMPDEST SWAP1 POP SWAP2 SWAP1 POP JUMP JUMPDEST PUSH2 0x5CD PUSH2 0x5C8 DUP3 PUSH2 0x415 JUMP JUMPDEST PUSH2 0x5AA JUMP JUMPDEST DUP3 MSTORE POP POP JUMP JUMPDEST PUSH1 0x0 DUP2 SWAP1 POP SWAP2 SWAP1 POP JUMP JUMPDEST PUSH2 0x5EE PUSH2 0x5E9 DUP3 PUSH2 0x238 JUMP JUMPDEST PUSH2 0x5D3 JUMP JUMPDEST DUP3 MSTORE POP POP JUMP JUMPDEST PUSH1 0x0 PUSH2 0x600 DUP3 DUP8 PUSH2 0x574 JUMP JUMPDEST PUSH1 0x1 DUP3 ADD SWAP2 POP PUSH2 0x610 DUP3 DUP7 PUSH2 0x5BC JUMP JUMPDEST PUSH1 0x14 DUP3 ADD SWAP2 POP PUSH2 0x620 DUP3 DUP6 PUSH2 0x4FF JUMP JUMPDEST PUSH1 0x20 DUP3 ADD SWAP2 POP PUSH2 0x630 DUP3 DUP5 PUSH2 0x5DD JUMP JUMPDEST PUSH1 0x20 DUP3 ADD SWAP2 POP DUP2 SWAP1 POP SWAP6 SWAP5 POP POP POP POP POP JUMP INVALID PUSH1 0x80 PUSH1 0x40 MSTORE CALLVALUE DUP1 ISZERO PUSH2 0x10 JUMPI PUSH1 0x0 DUP1 REVERT JUMPDEST POP PUSH1 0x40 MLOAD PUSH2 0x168 CODESIZE SUB DUP1 PUSH2 0x168 DUP4 CODECOPY DUP2 DUP2 ADD PUSH1 0x40 MSTORE DUP2 ADD SWAP1 PUSH2 0x32 SWAP2 SWAP1 PUSH2 0x7A JUMP JUMPDEST DUP1 PUSH1 0x0 DUP2 SWAP1 SSTORE POP POP PUSH2 0xA7 JUMP JUMPDEST PUSH1 0x0 DUP1 REVERT JUMPDEST PUSH1 0x0 DUP2 SWAP1 POP SWAP2 SWAP1 POP JUMP JUMPDEST PUSH2 0x57 DUP2 PUSH2 0x44 JUMP JUMPDEST DUP2 EQ PUSH2 0x62 JUMPI PUSH1 0x0 DUP1 REVERT JUMPDEST POP JUMP JUMPDEST PUSH1 0x0 DUP2 MLOAD SWAP1 POP PUSH2 0x74 DUP2 PUSH2 0x4E JUMP JUMPDEST SWAP3 SWAP2 POP POP JUMP JUMPDEST PUSH1 0x0 PUSH1 0x20 DUP3 DUP5 SUB SLT ISZERO PUSH2 0x90 JUMPI PUSH2 0x8F PUSH2 0x3F JUMP JUMPDEST JUMPDEST PUSH1 0x0 PUSH2 0x9E DUP5 DUP3 DUP6 ADD PUSH2 0x65 JUMP JUMPDEST SWAP2 POP POP SWAP3 SWAP2 POP POP JUMP JUMPDEST PUSH1 0xB3 DUP1 PUSH2 0xB5 PUSH1 0x0 CODECOPY PUSH1 0x0 RETURN INVALID PUSH1 0x80 PUSH1 0x40 MSTORE CALLVALUE DUP1 ISZERO PUSH1 0xF JUMPI PUSH1 0x0 DUP1 REVERT JUMPDEST POP PUSH1 0x4 CALLDATASIZE LT PUSH1 0x28 JUMPI PUSH1 0x0 CALLDATALOAD PUSH1 0xE0 SHR DUP1 PUSH4 0x7435E911 EQ PUSH1 0x2D JUMPI JUMPDEST PUSH1 0x0 DUP1 REVERT JUMPDEST PUSH1 0x33 PUSH1 0x47 JUMP JUMPDEST PUSH1 0x40 MLOAD PUSH1 0x3E SWAP2 SWAP1 PUSH1 0x64 JUMP JUMPDEST PUSH1 0x40 MLOAD DUP1 SWAP2 SUB SWAP1 RETURN JUMPDEST PUSH1 0x0 SLOAD DUP2 JUMP JUMPDEST PUSH1 0x0 DUP2 SWAP1 POP SWAP2 SWAP1 POP JUMP JUMPDEST PUSH1 0x5E DUP2 PUSH1 0x4D JUMP JUMPDEST DUP3 MSTORE POP POP JUMP JUMPDEST PUSH1 0x0 PUSH1 0x20 DUP3 ADD SWAP1 POP PUSH1 0x77 PUSH1 0x0 DUP4 ADD DUP5 PUSH1 0x57 JUMP JUMPDEST SWAP3 SWAP2 POP POP JUMP INVALID LOG2 PUSH5 0x6970667358 0x22 SLT KECCAK256 DUP3 0xF7 SWAP13 SLT 0xD8 DUP11 0xF PUSH9 0xC8B6FE2DB6A47D6F37 DUP9 0xD 0x26 0x1E 0xAC 0xA7 EQ OR 0x2F CHAINID 0xBF DUP5 0xC3 PUSH14 0x6164736F6C634300080F0033A264 PUSH10 0x70667358221220E1E20B CALLDATASIZE 0x5E 0xAF REVERT PUSH9 0x7491E1B8FE333078B0 0x49 CALL CALLER 0xF6 CALLDATALOAD 0xED SWAP7 PUSH7 0xA30F81C4711E7C PUSH5 0x736F6C6343 STOP ADDMOD 0xF STOP CALLER "
				},
				"gasEstimates": {
					"creation": {
						"codeDepositCost": "403200",
						"executionCost": "436",
						"totalCost": "403636"
					},
					"external": {
						"createDSalted(bytes32,uint256)": "infinite",
						"d()": "infinite",
						"getAddress(uint256,uint256)": "infinite",
						"getBytes32(uint256)": "608"
					}
				},
				"methodIdentifiers": {
					"createDSalted(bytes32,uint256)": "0bd38f2f",
					"d()": "8a054ac2",
					"getAddress(uint256,uint256)": "9262d759",
					"getBytes32(uint256)": "24dfc9d7"
				}
			},
			"storageLayout": {
				"storage": [
					{
						"astId": 17,
						"contract": "study/chapter04/create2.sol:Create2",
						"label": "d",
						"offset": 0,
						"slot": "0",
						"type": "t_contract(D)14"
					}
				],
				"types": {
					"t_contract(D)14": {
						"encoding": "inplace",
						"label": "contract D",
						"numberOfBytes": "20"
					}
				}
			},
			"userdoc": {
				"kind": "user",
				"methods": {},
				"version": 1
			}
		}
	}
}