{
	"study/chapter10/extendBasic.sol": {
		"Named": {
			"abi": [
				{
					"inputs": [
						{
							"internalType": "bytes32",
							"name": "name",
							"type": "bytes32"
						}
					],
					"stateMutability": "nonpayable",
					"type": "constructor"
				},
				{
					"inputs": [],
					"name": "destroy",
					"outputs": [],
					"stateMutability": "nonpayable",
					"type": "function"
				}
			],
			"devdoc": {
				"kind": "dev",
				"methods": {},
				"version": 1
			},
			"evm": {
				"assembly": "    /* \"study/chapter10/extendBasic.sol\":1159:2130  contract Named is Owned, Destructible {... */\n  mstore(0x40, 0x80)\n    /* \"study/chapter10/extendBasic.sol\":1206:1374  constructor(bytes32 name) {... */\n  callvalue\n  dup1\n  iszero\n  tag_1\n  jumpi\n  0x00\n  dup1\n  revert\ntag_1:\n  pop\n  mload(0x40)\n  sub(codesize, bytecodeSize)\n  dup1\n  bytecodeSize\n  dup4\n  codecopy\n  dup2\n  dup2\n  add\n  0x40\n  mstore\n  dup2\n  add\n  swap1\n  tag_2\n  swap2\n  swap1\n  tag_3\n  jump\t// in\ntag_2:\n    /* \"study/chapter10/extendBasic.sol\":117:127  msg.sender */\n  caller\n    /* \"study/chapter10/extendBasic.sol\":101:106  owner */\n  0x00\n  dup1\n    /* \"study/chapter10/extendBasic.sol\":101:128  owner = payable(msg.sender) */\n  0x0100\n  exp\n  dup2\n  sload\n  dup2\n  0xffffffffffffffffffffffffffffffffffffffff\n  mul\n  not\n  and\n  swap1\n  dup4\n  0xffffffffffffffffffffffffffffffffffffffff\n  and\n  mul\n  or\n  swap1\n  sstore\n  pop\n    /* \"study/chapter10/extendBasic.sol\":1245:1258  Config config */\n  0x00\n    /* \"study/chapter10/extendBasic.sol\":1268:1310  0xD5f9D8D94886E70b06E474c3fB14Fd43E2f23970 */\n  0xd5f9d8d94886e70b06e474c3fb14fd43e2f23970\n    /* \"study/chapter10/extendBasic.sol\":1245:1311  Config config = Config(0xD5f9D8D94886E70b06E474c3fB14Fd43E2f23970) */\n  swap1\n  pop\n    /* \"study/chapter10/extendBasic.sol\":1332:1338  config */\n  dup1\n    /* \"study/chapter10/extendBasic.sol\":1332:1345  config.lookup */\n  0xffffffffffffffffffffffffffffffffffffffff\n  and\n  0x0a874df6\n    /* \"study/chapter10/extendBasic.sol\":1346:1347  1 */\n  0x01\n    /* \"study/chapter10/extendBasic.sol\":1332:1348  config.lookup(1) */\n  mload(0x40)\n  dup3\n  0xffffffff\n  and\n  0xe0\n  shl\n  dup2\n  mstore\n  0x04\n  add\n  tag_8\n  swap2\n  swap1\n  tag_9\n  jump\t// in\ntag_8:\n  0x20\n  mload(0x40)\n  dup1\n  dup4\n  sub\n  dup2\n  0x00\n  dup8\n  dup1\n  extcodesize\n  iszero\n  dup1\n  iszero\n  tag_10\n  jumpi\n  0x00\n  dup1\n  revert\ntag_10:\n  pop\n  gas\n  call\n  iszero\n  dup1\n  iszero\n  tag_12\n  jumpi\n  returndatasize\n  0x00\n  dup1\n  returndatacopy\n  revert(0x00, returndatasize)\ntag_12:\n  pop\n  pop\n  pop\n  pop\n  mload(0x40)\n  returndatasize\n  not(0x1f)\n  0x1f\n  dup3\n  add\n  and\n  dup3\n  add\n  dup1\n  0x40\n  mstore\n  pop\n  dup2\n  add\n  swap1\n  tag_13\n  swap2\n  swap1\n  tag_14\n  jump\t// in\ntag_13:\n    /* \"study/chapter10/extendBasic.sol\":1324:1358  NameReg(config.lookup(1)).register */\n  0xffffffffffffffffffffffffffffffffffffffff\n  and\n  0xe1fa8e84\n    /* \"study/chapter10/extendBasic.sol\":1359:1363  name */\n  dup4\n    /* \"study/chapter10/extendBasic.sol\":1324:1364  NameReg(config.lookup(1)).register(name) */\n  mload(0x40)\n  dup3\n  0xffffffff\n  and\n  0xe0\n  shl\n  dup2\n  mstore\n  0x04\n  add\n  tag_15\n  swap2\n  swap1\n  tag_16\n  jump\t// in\ntag_15:\n  0x00\n  mload(0x40)\n  dup1\n  dup4\n  sub\n  dup2\n  0x00\n  dup8\n  dup1\n  extcodesize\n  iszero\n  dup1\n  iszero\n  tag_17\n  jumpi\n  0x00\n  dup1\n  revert\ntag_17:\n  pop\n  gas\n  call\n  iszero\n  dup1\n  iszero\n  tag_19\n  jumpi\n  returndatasize\n  0x00\n  dup1\n  returndatacopy\n  revert(0x00, returndatasize)\ntag_19:\n  pop\n  pop\n  pop\n  pop\n    /* \"study/chapter10/extendBasic.sol\":1232:1374  {... */\n  pop\n    /* \"study/chapter10/extendBasic.sol\":1206:1374  constructor(bytes32 name) {... */\n  pop\n    /* \"study/chapter10/extendBasic.sol\":1159:2130  contract Named is Owned, Destructible {... */\n  jump(tag_20)\n    /* \"#utility.yul\":7:150   */\ntag_22:\n    /* \"#utility.yul\":64:69   */\n  0x00\n    /* \"#utility.yul\":95:101   */\n  dup2\n    /* \"#utility.yul\":89:102   */\n  mload\n    /* \"#utility.yul\":80:102   */\n  swap1\n  pop\n    /* \"#utility.yul\":111:144   */\n  tag_24\n    /* \"#utility.yul\":138:143   */\n  dup2\n    /* \"#utility.yul\":111:144   */\n  tag_25\n  jump\t// in\ntag_24:\n    /* \"#utility.yul\":7:150   */\n  swap3\n  swap2\n  pop\n  pop\n  jump\t// out\n    /* \"#utility.yul\":156:299   */\ntag_26:\n    /* \"#utility.yul\":213:218   */\n  0x00\n    /* \"#utility.yul\":244:250   */\n  dup2\n    /* \"#utility.yul\":238:251   */\n  mload\n    /* \"#utility.yul\":229:251   */\n  swap1\n  pop\n    /* \"#utility.yul\":260:293   */\n  tag_28\n    /* \"#utility.yul\":287:292   */\n  dup2\n    /* \"#utility.yul\":260:293   */\n  tag_29\n  jump\t// in\ntag_28:\n    /* \"#utility.yul\":156:299   */\n  swap3\n  swap2\n  pop\n  pop\n  jump\t// out\n    /* \"#utility.yul\":305:656   */\ntag_14:\n    /* \"#utility.yul\":375:381   */\n  0x00\n    /* \"#utility.yul\":424:426   */\n  0x20\n    /* \"#utility.yul\":412:421   */\n  dup3\n    /* \"#utility.yul\":403:410   */\n  dup5\n    /* \"#utility.yul\":399:422   */\n  sub\n    /* \"#utility.yul\":395:427   */\n  slt\n    /* \"#utility.yul\":392:511   */\n  iszero\n  tag_31\n  jumpi\n    /* \"#utility.yul\":430:509   */\n  tag_32\n  tag_33\n  jump\t// in\ntag_32:\n    /* \"#utility.yul\":392:511   */\ntag_31:\n    /* \"#utility.yul\":550:551   */\n  0x00\n    /* \"#utility.yul\":575:639   */\n  tag_34\n    /* \"#utility.yul\":631:638   */\n  dup5\n    /* \"#utility.yul\":622:628   */\n  dup3\n    /* \"#utility.yul\":611:620   */\n  dup6\n    /* \"#utility.yul\":607:629   */\n  add\n    /* \"#utility.yul\":575:639   */\n  tag_22\n  jump\t// in\ntag_34:\n    /* \"#utility.yul\":565:639   */\n  swap2\n  pop\n    /* \"#utility.yul\":521:649   */\n  pop\n    /* \"#utility.yul\":305:656   */\n  swap3\n  swap2\n  pop\n  pop\n  jump\t// out\n    /* \"#utility.yul\":662:1013   */\ntag_3:\n    /* \"#utility.yul\":732:738   */\n  0x00\n    /* \"#utility.yul\":781:783   */\n  0x20\n    /* \"#utility.yul\":769:778   */\n  dup3\n    /* \"#utility.yul\":760:767   */\n  dup5\n    /* \"#utility.yul\":756:779   */\n  sub\n    /* \"#utility.yul\":752:784   */\n  slt\n    /* \"#utility.yul\":749:868   */\n  iszero\n  tag_36\n  jumpi\n    /* \"#utility.yul\":787:866   */\n  tag_37\n  tag_33\n  jump\t// in\ntag_37:\n    /* \"#utility.yul\":749:868   */\ntag_36:\n    /* \"#utility.yul\":907:908   */\n  0x00\n    /* \"#utility.yul\":932:996   */\n  tag_38\n    /* \"#utility.yul\":988:995   */\n  dup5\n    /* \"#utility.yul\":979:985   */\n  dup3\n    /* \"#utility.yul\":968:977   */\n  dup6\n    /* \"#utility.yul\":964:986   */\n  add\n    /* \"#utility.yul\":932:996   */\n  tag_26\n  jump\t// in\ntag_38:\n    /* \"#utility.yul\":922:996   */\n  swap2\n  pop\n    /* \"#utility.yul\":878:1006   */\n  pop\n    /* \"#utility.yul\":662:1013   */\n  swap3\n  swap2\n  pop\n  pop\n  jump\t// out\n    /* \"#utility.yul\":1019:1137   */\ntag_39:\n    /* \"#utility.yul\":1106:1130   */\n  tag_41\n    /* \"#utility.yul\":1124:1129   */\n  dup2\n    /* \"#utility.yul\":1106:1130   */\n  tag_42\n  jump\t// in\ntag_41:\n    /* \"#utility.yul\":1101:1104   */\n  dup3\n    /* \"#utility.yul\":1094:1131   */\n  mstore\n    /* \"#utility.yul\":1019:1137   */\n  pop\n  pop\n  jump\t// out\n    /* \"#utility.yul\":1143:1290   */\ntag_43:\n    /* \"#utility.yul\":1238:1283   */\n  tag_45\n    /* \"#utility.yul\":1277:1282   */\n  dup2\n    /* \"#utility.yul\":1238:1283   */\n  tag_46\n  jump\t// in\ntag_45:\n    /* \"#utility.yul\":1233:1236   */\n  dup3\n    /* \"#utility.yul\":1226:1284   */\n  mstore\n    /* \"#utility.yul\":1143:1290   */\n  pop\n  pop\n  jump\t// out\n    /* \"#utility.yul\":1296:1518   */\ntag_16:\n    /* \"#utility.yul\":1389:1393   */\n  0x00\n    /* \"#utility.yul\":1427:1429   */\n  0x20\n    /* \"#utility.yul\":1416:1425   */\n  dup3\n    /* \"#utility.yul\":1412:1430   */\n  add\n    /* \"#utility.yul\":1404:1430   */\n  swap1\n  pop\n    /* \"#utility.yul\":1440:1511   */\n  tag_48\n    /* \"#utility.yul\":1508:1509   */\n  0x00\n    /* \"#utility.yul\":1497:1506   */\n  dup4\n    /* \"#utility.yul\":1493:1510   */\n  add\n    /* \"#utility.yul\":1484:1490   */\n  dup5\n    /* \"#utility.yul\":1440:1511   */\n  tag_39\n  jump\t// in\ntag_48:\n    /* \"#utility.yul\":1296:1518   */\n  swap3\n  swap2\n  pop\n  pop\n  jump\t// out\n    /* \"#utility.yul\":1524:1762   */\ntag_9:\n    /* \"#utility.yul\":1625:1629   */\n  0x00\n    /* \"#utility.yul\":1663:1665   */\n  0x20\n    /* \"#utility.yul\":1652:1661   */\n  dup3\n    /* \"#utility.yul\":1648:1666   */\n  add\n    /* \"#utility.yul\":1640:1666   */\n  swap1\n  pop\n    /* \"#utility.yul\":1676:1755   */\n  tag_50\n    /* \"#utility.yul\":1752:1753   */\n  0x00\n    /* \"#utility.yul\":1741:1750   */\n  dup4\n    /* \"#utility.yul\":1737:1754   */\n  add\n    /* \"#utility.yul\":1728:1734   */\n  dup5\n    /* \"#utility.yul\":1676:1755   */\n  tag_43\n  jump\t// in\ntag_50:\n    /* \"#utility.yul\":1524:1762   */\n  swap3\n  swap2\n  pop\n  pop\n  jump\t// out\n    /* \"#utility.yul\":1849:1945   */\ntag_53:\n    /* \"#utility.yul\":1886:1893   */\n  0x00\n    /* \"#utility.yul\":1915:1939   */\n  tag_55\n    /* \"#utility.yul\":1933:1938   */\n  dup3\n    /* \"#utility.yul\":1915:1939   */\n  tag_56\n  jump\t// in\ntag_55:\n    /* \"#utility.yul\":1904:1939   */\n  swap1\n  pop\n    /* \"#utility.yul\":1849:1945   */\n  swap2\n  swap1\n  pop\n  jump\t// out\n    /* \"#utility.yul\":1951:2028   */\ntag_42:\n    /* \"#utility.yul\":1988:1995   */\n  0x00\n    /* \"#utility.yul\":2017:2022   */\n  dup2\n    /* \"#utility.yul\":2006:2022   */\n  swap1\n  pop\n    /* \"#utility.yul\":1951:2028   */\n  swap2\n  swap1\n  pop\n  jump\t// out\n    /* \"#utility.yul\":2034:2160   */\ntag_56:\n    /* \"#utility.yul\":2071:2078   */\n  0x00\n    /* \"#utility.yul\":2111:2153   */\n  0xffffffffffffffffffffffffffffffffffffffff\n    /* \"#utility.yul\":2104:2109   */\n  dup3\n    /* \"#utility.yul\":2100:2154   */\n  and\n    /* \"#utility.yul\":2089:2154   */\n  swap1\n  pop\n    /* \"#utility.yul\":2034:2160   */\n  swap2\n  swap1\n  pop\n  jump\t// out\n    /* \"#utility.yul\":2166:2243   */\ntag_59:\n    /* \"#utility.yul\":2203:2210   */\n  0x00\n    /* \"#utility.yul\":2232:2237   */\n  dup2\n    /* \"#utility.yul\":2221:2237   */\n  swap1\n  pop\n    /* \"#utility.yul\":2166:2243   */\n  swap2\n  swap1\n  pop\n  jump\t// out\n    /* \"#utility.yul\":2249:2370   */\ntag_46:\n    /* \"#utility.yul\":2307:2316   */\n  0x00\n    /* \"#utility.yul\":2340:2364   */\n  tag_62\n    /* \"#utility.yul\":2358:2363   */\n  dup3\n    /* \"#utility.yul\":2340:2364   */\n  tag_59\n  jump\t// in\ntag_62:\n    /* \"#utility.yul\":2327:2364   */\n  swap1\n  pop\n    /* \"#utility.yul\":2249:2370   */\n  swap2\n  swap1\n  pop\n  jump\t// out\n    /* \"#utility.yul\":2499:2616   */\ntag_33:\n    /* \"#utility.yul\":2608:2609   */\n  0x00\n    /* \"#utility.yul\":2605:2606   */\n  dup1\n    /* \"#utility.yul\":2598:2610   */\n  revert\n    /* \"#utility.yul\":2622:2744   */\ntag_25:\n    /* \"#utility.yul\":2695:2719   */\n  tag_67\n    /* \"#utility.yul\":2713:2718   */\n  dup2\n    /* \"#utility.yul\":2695:2719   */\n  tag_53\n  jump\t// in\ntag_67:\n    /* \"#utility.yul\":2688:2693   */\n  dup2\n    /* \"#utility.yul\":2685:2720   */\n  eq\n    /* \"#utility.yul\":2675:2738   */\n  tag_68\n  jumpi\n    /* \"#utility.yul\":2734:2735   */\n  0x00\n    /* \"#utility.yul\":2731:2732   */\n  dup1\n    /* \"#utility.yul\":2724:2736   */\n  revert\n    /* \"#utility.yul\":2675:2738   */\ntag_68:\n    /* \"#utility.yul\":2622:2744   */\n  pop\n  jump\t// out\n    /* \"#utility.yul\":2750:2872   */\ntag_29:\n    /* \"#utility.yul\":2823:2847   */\n  tag_70\n    /* \"#utility.yul\":2841:2846   */\n  dup2\n    /* \"#utility.yul\":2823:2847   */\n  tag_42\n  jump\t// in\ntag_70:\n    /* \"#utility.yul\":2816:2821   */\n  dup2\n    /* \"#utility.yul\":2813:2848   */\n  eq\n    /* \"#utility.yul\":2803:2866   */\n  tag_71\n  jumpi\n    /* \"#utility.yul\":2862:2863   */\n  0x00\n    /* \"#utility.yul\":2859:2860   */\n  dup1\n    /* \"#utility.yul\":2852:2864   */\n  revert\n    /* \"#utility.yul\":2803:2866   */\ntag_71:\n    /* \"#utility.yul\":2750:2872   */\n  pop\n  jump\t// out\n    /* \"study/chapter10/extendBasic.sol\":1159:2130  contract Named is Owned, Destructible {... */\ntag_20:\n  dataSize(sub_0)\n  dup1\n  dataOffset(sub_0)\n  0x00\n  codecopy\n  0x00\n  return\nstop\n\nsub_0: assembly {\n        /* \"study/chapter10/extendBasic.sol\":1159:2130  contract Named is Owned, Destructible {... */\n      mstore(0x40, 0x80)\n      callvalue\n      dup1\n      iszero\n      tag_1\n      jumpi\n      0x00\n      dup1\n      revert\n    tag_1:\n      pop\n      jumpi(tag_2, lt(calldatasize, 0x04))\n      shr(0xe0, calldataload(0x00))\n      dup1\n      0x83197ef0\n      eq\n      tag_3\n      jumpi\n    tag_2:\n      0x00\n      dup1\n      revert\n        /* \"study/chapter10/extendBasic.sol\":1783:2125  function destroy() public virtual override {... */\n    tag_3:\n      tag_4\n      tag_5\n      jump\t// in\n    tag_4:\n      stop\n    tag_5:\n        /* \"study/chapter10/extendBasic.sol\":1857:1862  owner */\n      0x00\n      dup1\n      sload\n      swap1\n      0x0100\n      exp\n      swap1\n      div\n      0xffffffffffffffffffffffffffffffffffffffff\n      and\n        /* \"study/chapter10/extendBasic.sol\":1843:1862  msg.sender == owner */\n      0xffffffffffffffffffffffffffffffffffffffff\n      and\n        /* \"study/chapter10/extendBasic.sol\":1843:1853  msg.sender */\n      caller\n        /* \"study/chapter10/extendBasic.sol\":1843:1862  msg.sender == owner */\n      0xffffffffffffffffffffffffffffffffffffffff\n      and\n      eq\n        /* \"study/chapter10/extendBasic.sol\":1839:2116  if (msg.sender == owner) {... */\n      iszero\n      tag_7\n      jumpi\n        /* \"study/chapter10/extendBasic.sol\":1881:1894  Config config */\n      0x00\n        /* \"study/chapter10/extendBasic.sol\":1904:1946  0xD5f9D8D94886E70b06E474c3fB14Fd43E2f23970 */\n      0xd5f9d8d94886e70b06e474c3fb14fd43e2f23970\n        /* \"study/chapter10/extendBasic.sol\":1881:1947  Config config = Config(0xD5f9D8D94886E70b06E474c3fB14Fd43E2f23970) */\n      swap1\n      pop\n        /* \"study/chapter10/extendBasic.sol\":1972:1978  config */\n      dup1\n        /* \"study/chapter10/extendBasic.sol\":1972:1985  config.lookup */\n      0xffffffffffffffffffffffffffffffffffffffff\n      and\n      0x0a874df6\n        /* \"study/chapter10/extendBasic.sol\":1986:1987  1 */\n      0x01\n        /* \"study/chapter10/extendBasic.sol\":1972:1988  config.lookup(1) */\n      mload(0x40)\n      dup3\n      0xffffffff\n      and\n      0xe0\n      shl\n      dup2\n      mstore\n      0x04\n      add\n      tag_8\n      swap2\n      swap1\n      tag_9\n      jump\t// in\n    tag_8:\n      0x20\n      mload(0x40)\n      dup1\n      dup4\n      sub\n      dup2\n      0x00\n      dup8\n      dup1\n      extcodesize\n      iszero\n      dup1\n      iszero\n      tag_10\n      jumpi\n      0x00\n      dup1\n      revert\n    tag_10:\n      pop\n      gas\n      call\n      iszero\n      dup1\n      iszero\n      tag_12\n      jumpi\n      returndatasize\n      0x00\n      dup1\n      returndatacopy\n      revert(0x00, returndatasize)\n    tag_12:\n      pop\n      pop\n      pop\n      pop\n      mload(0x40)\n      returndatasize\n      not(0x1f)\n      0x1f\n      dup3\n      add\n      and\n      dup3\n      add\n      dup1\n      0x40\n      mstore\n      pop\n      dup2\n      add\n      swap1\n      tag_13\n      swap2\n      swap1\n      tag_14\n      jump\t// in\n    tag_13:\n        /* \"study/chapter10/extendBasic.sol\":1964:2000  NameReg(config.lookup(1)).unregister */\n      0xffffffffffffffffffffffffffffffffffffffff\n      and\n      0xe79a198f\n        /* \"study/chapter10/extendBasic.sol\":1964:2002  NameReg(config.lookup(1)).unregister() */\n      mload(0x40)\n      dup2\n      0xffffffff\n      and\n      0xe0\n      shl\n      dup2\n      mstore\n      0x04\n      add\n      0x00\n      mload(0x40)\n      dup1\n      dup4\n      sub\n      dup2\n      0x00\n      dup8\n      dup1\n      extcodesize\n      iszero\n      dup1\n      iszero\n      tag_15\n      jumpi\n      0x00\n      dup1\n      revert\n    tag_15:\n      pop\n      gas\n      call\n      iszero\n      dup1\n      iszero\n      tag_17\n      jumpi\n      returndatasize\n      0x00\n      dup1\n      returndatacopy\n      revert(0x00, returndatasize)\n    tag_17:\n      pop\n      pop\n      pop\n      pop\n        /* \"study/chapter10/extendBasic.sol\":2080:2102  Destructible.destroy() */\n      tag_18\n        /* \"study/chapter10/extendBasic.sol\":2080:2100  Destructible.destroy */\n      tag_19\n        /* \"study/chapter10/extendBasic.sol\":2080:2102  Destructible.destroy() */\n      jump\t// in\n    tag_18:\n        /* \"study/chapter10/extendBasic.sol\":1864:2116  {... */\n      pop\n        /* \"study/chapter10/extendBasic.sol\":1839:2116  if (msg.sender == owner) {... */\n    tag_7:\n        /* \"study/chapter10/extendBasic.sol\":1783:2125  function destroy() public virtual override {... */\n      jump\t// out\n        /* \"study/chapter10/extendBasic.sol\":479:580  function destroy() virtual public {... */\n    tag_19:\n        /* \"study/chapter10/extendBasic.sol\":544:549  owner */\n      0x00\n      dup1\n      sload\n      swap1\n      0x0100\n      exp\n      swap1\n      div\n      0xffffffffffffffffffffffffffffffffffffffff\n      and\n        /* \"study/chapter10/extendBasic.sol\":530:549  msg.sender == owner */\n      0xffffffffffffffffffffffffffffffffffffffff\n      and\n        /* \"study/chapter10/extendBasic.sol\":530:540  msg.sender */\n      caller\n        /* \"study/chapter10/extendBasic.sol\":530:549  msg.sender == owner */\n      0xffffffffffffffffffffffffffffffffffffffff\n      and\n      eq\n        /* \"study/chapter10/extendBasic.sol\":526:570  if (msg.sender == owner) selfdestruct(owner) */\n      iszero\n      tag_21\n      jumpi\n        /* \"study/chapter10/extendBasic.sol\":564:569  owner */\n      0x00\n      dup1\n      sload\n      swap1\n      0x0100\n      exp\n      swap1\n      div\n      0xffffffffffffffffffffffffffffffffffffffff\n      and\n        /* \"study/chapter10/extendBasic.sol\":551:570  selfdestruct(owner) */\n      0xffffffffffffffffffffffffffffffffffffffff\n      and\n      selfdestruct\n        /* \"study/chapter10/extendBasic.sol\":526:570  if (msg.sender == owner) selfdestruct(owner) */\n    tag_21:\n        /* \"study/chapter10/extendBasic.sol\":479:580  function destroy() virtual public {... */\n      jump\t// out\n        /* \"#utility.yul\":7:150   */\n    tag_23:\n        /* \"#utility.yul\":64:69   */\n      0x00\n        /* \"#utility.yul\":95:101   */\n      dup2\n        /* \"#utility.yul\":89:102   */\n      mload\n        /* \"#utility.yul\":80:102   */\n      swap1\n      pop\n        /* \"#utility.yul\":111:144   */\n      tag_25\n        /* \"#utility.yul\":138:143   */\n      dup2\n        /* \"#utility.yul\":111:144   */\n      tag_26\n      jump\t// in\n    tag_25:\n        /* \"#utility.yul\":7:150   */\n      swap3\n      swap2\n      pop\n      pop\n      jump\t// out\n        /* \"#utility.yul\":156:507   */\n    tag_14:\n        /* \"#utility.yul\":226:232   */\n      0x00\n        /* \"#utility.yul\":275:277   */\n      0x20\n        /* \"#utility.yul\":263:272   */\n      dup3\n        /* \"#utility.yul\":254:261   */\n      dup5\n        /* \"#utility.yul\":250:273   */\n      sub\n        /* \"#utility.yul\":246:278   */\n      slt\n        /* \"#utility.yul\":243:362   */\n      iszero\n      tag_28\n      jumpi\n        /* \"#utility.yul\":281:360   */\n      tag_29\n      tag_30\n      jump\t// in\n    tag_29:\n        /* \"#utility.yul\":243:362   */\n    tag_28:\n        /* \"#utility.yul\":401:402   */\n      0x00\n        /* \"#utility.yul\":426:490   */\n      tag_31\n        /* \"#utility.yul\":482:489   */\n      dup5\n        /* \"#utility.yul\":473:479   */\n      dup3\n        /* \"#utility.yul\":462:471   */\n      dup6\n        /* \"#utility.yul\":458:480   */\n      add\n        /* \"#utility.yul\":426:490   */\n      tag_23\n      jump\t// in\n    tag_31:\n        /* \"#utility.yul\":416:490   */\n      swap2\n      pop\n        /* \"#utility.yul\":372:500   */\n      pop\n        /* \"#utility.yul\":156:507   */\n      swap3\n      swap2\n      pop\n      pop\n      jump\t// out\n        /* \"#utility.yul\":513:660   */\n    tag_32:\n        /* \"#utility.yul\":608:653   */\n      tag_34\n        /* \"#utility.yul\":647:652   */\n      dup2\n        /* \"#utility.yul\":608:653   */\n      tag_35\n      jump\t// in\n    tag_34:\n        /* \"#utility.yul\":603:606   */\n      dup3\n        /* \"#utility.yul\":596:654   */\n      mstore\n        /* \"#utility.yul\":513:660   */\n      pop\n      pop\n      jump\t// out\n        /* \"#utility.yul\":666:904   */\n    tag_9:\n        /* \"#utility.yul\":767:771   */\n      0x00\n        /* \"#utility.yul\":805:807   */\n      0x20\n        /* \"#utility.yul\":794:803   */\n      dup3\n        /* \"#utility.yul\":790:808   */\n      add\n        /* \"#utility.yul\":782:808   */\n      swap1\n      pop\n        /* \"#utility.yul\":818:897   */\n      tag_37\n        /* \"#utility.yul\":894:895   */\n      0x00\n        /* \"#utility.yul\":883:892   */\n      dup4\n        /* \"#utility.yul\":879:896   */\n      add\n        /* \"#utility.yul\":870:876   */\n      dup5\n        /* \"#utility.yul\":818:897   */\n      tag_32\n      jump\t// in\n    tag_37:\n        /* \"#utility.yul\":666:904   */\n      swap3\n      swap2\n      pop\n      pop\n      jump\t// out\n        /* \"#utility.yul\":991:1087   */\n    tag_40:\n        /* \"#utility.yul\":1028:1035   */\n      0x00\n        /* \"#utility.yul\":1057:1081   */\n      tag_42\n        /* \"#utility.yul\":1075:1080   */\n      dup3\n        /* \"#utility.yul\":1057:1081   */\n      tag_43\n      jump\t// in\n    tag_42:\n        /* \"#utility.yul\":1046:1081   */\n      swap1\n      pop\n        /* \"#utility.yul\":991:1087   */\n      swap2\n      swap1\n      pop\n      jump\t// out\n        /* \"#utility.yul\":1093:1219   */\n    tag_43:\n        /* \"#utility.yul\":1130:1137   */\n      0x00\n        /* \"#utility.yul\":1170:1212   */\n      0xffffffffffffffffffffffffffffffffffffffff\n        /* \"#utility.yul\":1163:1168   */\n      dup3\n        /* \"#utility.yul\":1159:1213   */\n      and\n        /* \"#utility.yul\":1148:1213   */\n      swap1\n      pop\n        /* \"#utility.yul\":1093:1219   */\n      swap2\n      swap1\n      pop\n      jump\t// out\n        /* \"#utility.yul\":1225:1302   */\n    tag_45:\n        /* \"#utility.yul\":1262:1269   */\n      0x00\n        /* \"#utility.yul\":1291:1296   */\n      dup2\n        /* \"#utility.yul\":1280:1296   */\n      swap1\n      pop\n        /* \"#utility.yul\":1225:1302   */\n      swap2\n      swap1\n      pop\n      jump\t// out\n        /* \"#utility.yul\":1308:1429   */\n    tag_35:\n        /* \"#utility.yul\":1366:1375   */\n      0x00\n        /* \"#utility.yul\":1399:1423   */\n      tag_48\n        /* \"#utility.yul\":1417:1422   */\n      dup3\n        /* \"#utility.yul\":1399:1423   */\n      tag_45\n      jump\t// in\n    tag_48:\n        /* \"#utility.yul\":1386:1423   */\n      swap1\n      pop\n        /* \"#utility.yul\":1308:1429   */\n      swap2\n      swap1\n      pop\n      jump\t// out\n        /* \"#utility.yul\":1558:1675   */\n    tag_30:\n        /* \"#utility.yul\":1667:1668   */\n      0x00\n        /* \"#utility.yul\":1664:1665   */\n      dup1\n        /* \"#utility.yul\":1657:1669   */\n      revert\n        /* \"#utility.yul\":1681:1803   */\n    tag_26:\n        /* \"#utility.yul\":1754:1778   */\n      tag_53\n        /* \"#utility.yul\":1772:1777   */\n      dup2\n        /* \"#utility.yul\":1754:1778   */\n      tag_40\n      jump\t// in\n    tag_53:\n        /* \"#utility.yul\":1747:1752   */\n      dup2\n        /* \"#utility.yul\":1744:1779   */\n      eq\n        /* \"#utility.yul\":1734:1797   */\n      tag_54\n      jumpi\n        /* \"#utility.yul\":1793:1794   */\n      0x00\n        /* \"#utility.yul\":1790:1791   */\n      dup1\n        /* \"#utility.yul\":1783:1795   */\n      revert\n        /* \"#utility.yul\":1734:1797   */\n    tag_54:\n        /* \"#utility.yul\":1681:1803   */\n      pop\n      jump\t// out\n\n    auxdata: 0xa2646970667358221220a8b2904de4b9427e065b9003bc2fe01b1fb9597364cbdb97304bbc1f7dfe868064736f6c63430008070033\n}\n",
				"bytecode": {
					"linkReferences": {},
					"object": "608060405234801561001057600080fd5b50604051610633380380610633833981810160405281019061003291906101df565b336000806101000a81548173ffffffffffffffffffffffffffffffffffffffff021916908373ffffffffffffffffffffffffffffffffffffffff160217905550600073d5f9d8d94886e70b06e474c3fb14fd43e2f2397090508073ffffffffffffffffffffffffffffffffffffffff16630a874df660016040518263ffffffff1660e01b81526004016100c59190610245565b602060405180830381600087803b1580156100df57600080fd5b505af11580156100f3573d6000803e3d6000fd5b505050506040513d601f19601f8201168201806040525081019061011791906101b2565b73ffffffffffffffffffffffffffffffffffffffff1663e1fa8e84836040518263ffffffff1660e01b815260040161014f919061022a565b600060405180830381600087803b15801561016957600080fd5b505af115801561017d573d6000803e3d6000fd5b5050505050506102eb565b600081519050610197816102bd565b92915050565b6000815190506101ac816102d4565b92915050565b6000602082840312156101c8576101c76102b8565b5b60006101d684828501610188565b91505092915050565b6000602082840312156101f5576101f46102b8565b5b60006102038482850161019d565b91505092915050565b61021581610272565b82525050565b610224816102a6565b82525050565b600060208201905061023f600083018461020c565b92915050565b600060208201905061025a600083018461021b565b92915050565b600061026b8261027c565b9050919050565b6000819050919050565b600073ffffffffffffffffffffffffffffffffffffffff82169050919050565b6000819050919050565b60006102b18261029c565b9050919050565b600080fd5b6102c681610260565b81146102d157600080fd5b50565b6102dd81610272565b81146102e857600080fd5b50565b610339806102fa6000396000f3fe608060405234801561001057600080fd5b506004361061002b5760003560e01c806383197ef014610030575b600080fd5b61003861003a565b005b60008054906101000a900473ffffffffffffffffffffffffffffffffffffffff1673ffffffffffffffffffffffffffffffffffffffff163373ffffffffffffffffffffffffffffffffffffffff16141561019c57600073d5f9d8d94886e70b06e474c3fb14fd43e2f2397090508073ffffffffffffffffffffffffffffffffffffffff16630a874df660016040518263ffffffff1660e01b81526004016100e1919061027e565b602060405180830381600087803b1580156100fb57600080fd5b505af115801561010f573d6000803e3d6000fd5b505050506040513d601f19601f820116820180604052508101906101339190610242565b73ffffffffffffffffffffffffffffffffffffffff1663e79a198f6040518163ffffffff1660e01b8152600401600060405180830381600087803b15801561017a57600080fd5b505af115801561018e573d6000803e3d6000fd5b5050505061019a61019e565b505b565b60008054906101000a900473ffffffffffffffffffffffffffffffffffffffff1673ffffffffffffffffffffffffffffffffffffffff163373ffffffffffffffffffffffffffffffffffffffff16141561022b5760008054906101000a900473ffffffffffffffffffffffffffffffffffffffff1673ffffffffffffffffffffffffffffffffffffffff16ff5b565b60008151905061023c816102ec565b92915050565b600060208284031215610258576102576102e7565b5b60006102668482850161022d565b91505092915050565b610278816102d5565b82525050565b6000602082019050610293600083018461026f565b92915050565b60006102a4826102ab565b9050919050565b600073ffffffffffffffffffffffffffffffffffffffff82169050919050565b6000819050919050565b60006102e0826102cb565b9050919050565b600080fd5b6102f581610299565b811461030057600080fd5b5056fea2646970667358221220a8b2904de4b9427e065b9003bc2fe01b1fb9597364cbdb97304bbc1f7dfe868064736f6c63430008070033",
					"opcodes": "PUSH1 0x80 PUSH1 0x40 MSTORE CALLVALUE DUP1 ISZERO PUSH2 0x10 JUMPI PUSH1 0x0 DUP1 REVERT JUMPDEST POP PUSH1 0x40 MLOAD PUSH2 0x633 CODESIZE SUB DUP1 PUSH2 0x633 DUP4 CODECOPY DUP2 DUP2 ADD PUSH1 0x40 MSTORE DUP2 ADD SWAP1 PUSH2 0x32 SWAP2 SWAP1 PUSH2 0x1DF JUMP JUMPDEST CALLER PUSH1 0x0 DUP1 PUSH2 0x100 EXP DUP2 SLOAD DUP2 PUSH20 0xFFFFFFFFFFFFFFFFFFFFFFFFFFFFFFFFFFFFFFFF MUL NOT AND SWAP1 DUP4 PUSH20 0xFFFFFFFFFFFFFFFFFFFFFFFFFFFFFFFFFFFFFFFF AND MUL OR SWAP1 SSTORE POP PUSH1 0x0 PUSH20 0xD5F9D8D94886E70B06E474C3FB14FD43E2F23970 SWAP1 POP DUP1 PUSH20 0xFFFFFFFFFFFFFFFFFFFFFFFFFFFFFFFFFFFFFFFF AND PUSH4 0xA874DF6 PUSH1 0x1 PUSH1 0x40 MLOAD DUP3 PUSH4 0xFFFFFFFF AND PUSH1 0xE0 SHL DUP2 MSTORE PUSH1 0x4 ADD PUSH2 0xC5 SWAP2 SWAP1 PUSH2 0x245 JUMP JUMPDEST PUSH1 0x20 PUSH1 0x40 MLOAD DUP1 DUP4 SUB DUP2 PUSH1 0x0 DUP8 DUP1 EXTCODESIZE ISZERO DUP1 ISZERO PUSH2 0xDF JUMPI PUSH1 0x0 DUP1 REVERT JUMPDEST POP GAS CALL ISZERO DUP1 ISZERO PUSH2 0xF3 JUMPI RETURNDATASIZE PUSH1 0x0 DUP1 RETURNDATACOPY RETURNDATASIZE PUSH1 0x0 REVERT JUMPDEST POP POP POP POP PUSH1 0x40 MLOAD RETURNDATASIZE PUSH1 0x1F NOT PUSH1 0x1F DUP3 ADD AND DUP3 ADD DUP1 PUSH1 0x40 MSTORE POP DUP2 ADD SWAP1 PUSH2 0x117 SWAP2 SWAP1 PUSH2 0x1B2 JUMP JUMPDEST PUSH20 0xFFFFFFFFFFFFFFFFFFFFFFFFFFFFFFFFFFFFFFFF AND PUSH4 0xE1FA8E84 DUP4 PUSH1 0x40 MLOAD DUP3 PUSH4 0xFFFFFFFF AND PUSH1 0xE0 SHL DUP2 MSTORE PUSH1 0x4 ADD PUSH2 0x14F SWAP2 SWAP1 PUSH2 0x22A JUMP JUMPDEST PUSH1 0x0 PUSH1 0x40 MLOAD DUP1 DUP4 SUB DUP2 PUSH1 0x0 DUP8 DUP1 EXTCODESIZE ISZERO DUP1 ISZERO PUSH2 0x169 JUMPI PUSH1 0x0 DUP1 REVERT JUMPDEST POP GAS CALL ISZERO DUP1 ISZERO PUSH2 0x17D JUMPI RETURNDATASIZE PUSH1 0x0 DUP1 RETURNDATACOPY RETURNDATASIZE PUSH1 0x0 REVERT JUMPDEST POP POP POP POP POP POP PUSH2 0x2EB JUMP JUMPDEST PUSH1 0x0 DUP2 MLOAD SWAP1 POP PUSH2 0x197 DUP2 PUSH2 0x2BD JUMP JUMPDEST SWAP3 SWAP2 POP POP JUMP JUMPDEST PUSH1 0x0 DUP2 MLOAD SWAP1 POP PUSH2 0x1AC DUP2 PUSH2 0x2D4 JUMP JUMPDEST SWAP3 SWAP2 POP POP JUMP JUMPDEST PUSH1 0x0 PUSH1 0x20 DUP3 DUP5 SUB SLT ISZERO PUSH2 0x1C8 JUMPI PUSH2 0x1C7 PUSH2 0x2B8 JUMP JUMPDEST JUMPDEST PUSH1 0x0 PUSH2 0x1D6 DUP5 DUP3 DUP6 ADD PUSH2 0x188 JUMP JUMPDEST SWAP2 POP POP SWAP3 SWAP2 POP POP JUMP JUMPDEST PUSH1 0x0 PUSH1 0x20 DUP3 DUP5 SUB SLT ISZERO PUSH2 0x1F5 JUMPI PUSH2 0x1F4 PUSH2 0x2B8 JUMP JUMPDEST JUMPDEST PUSH1 0x0 PUSH2 0x203 DUP5 DUP3 DUP6 ADD PUSH2 0x19D JUMP JUMPDEST SWAP2 POP POP SWAP3 SWAP2 POP POP JUMP JUMPDEST PUSH2 0x215 DUP2 PUSH2 0x272 JUMP JUMPDEST DUP3 MSTORE POP POP JUMP JUMPDEST PUSH2 0x224 DUP2 PUSH2 0x2A6 JUMP JUMPDEST DUP3 MSTORE POP POP JUMP JUMPDEST PUSH1 0x0 PUSH1 0x20 DUP3 ADD SWAP1 POP PUSH2 0x23F PUSH1 0x0 DUP4 ADD DUP5 PUSH2 0x20C JUMP JUMPDEST SWAP3 SWAP2 POP POP JUMP JUMPDEST PUSH1 0x0 PUSH1 0x20 DUP3 ADD SWAP1 POP PUSH2 0x25A PUSH1 0x0 DUP4 ADD DUP5 PUSH2 0x21B JUMP JUMPDEST SWAP3 SWAP2 POP POP JUMP JUMPDEST PUSH1 0x0 PUSH2 0x26B DUP3 PUSH2 0x27C JUMP JUMPDEST SWAP1 POP SWAP2 SWAP1 POP JUMP JUMPDEST PUSH1 0x0 DUP2 SWAP1 POP SWAP2 SWAP1 POP JUMP JUMPDEST PUSH1 0x0 PUSH20 0xFFFFFFFFFFFFFFFFFFFFFFFFFFFFFFFFFFFFFFFF DUP3 AND SWAP1 POP SWAP2 SWAP1 POP JUMP JUMPDEST PUSH1 0x0 DUP2 SWAP1 POP SWAP2 SWAP1 POP JUMP JUMPDEST PUSH1 0x0 PUSH2 0x2B1 DUP3 PUSH2 0x29C JUMP JUMPDEST SWAP1 POP SWAP2 SWAP1 POP JUMP JUMPDEST PUSH1 0x0 DUP1 REVERT JUMPDEST PUSH2 0x2C6 DUP2 PUSH2 0x260 JUMP JUMPDEST DUP2 EQ PUSH2 0x2D1 JUMPI PUSH1 0x0 DUP1 REVERT JUMPDEST POP JUMP JUMPDEST PUSH2 0x2DD DUP2 PUSH2 0x272 JUMP JUMPDEST DUP2 EQ PUSH2 0x2E8 JUMPI PUSH1 0x0 DUP1 REVERT JUMPDEST POP JUMP JUMPDEST PUSH2 0x339 DUP1 PUSH2 0x2FA PUSH1 0x0 CODECOPY PUSH1 0x0 RETURN INVALID PUSH1 0x80 PUSH1 0x40 MSTORE CALLVALUE DUP1 ISZERO PUSH2 0x10 JUMPI PUSH1 0x0 DUP1 REVERT JUMPDEST POP PUSH1 0x4 CALLDATASIZE LT PUSH2 0x2B JUMPI PUSH1 0x0 CALLDATALOAD PUSH1 0xE0 SHR DUP1 PUSH4 0x83197EF0 EQ PUSH2 0x30 JUMPI JUMPDEST PUSH1 0x0 DUP1 REVERT JUMPDEST PUSH2 0x38 PUSH2 0x3A JUMP JUMPDEST STOP JUMPDEST PUSH1 0x0 DUP1 SLOAD SWAP1 PUSH2 0x100 EXP SWAP1 DIV PUSH20 0xFFFFFFFFFFFFFFFFFFFFFFFFFFFFFFFFFFFFFFFF AND PUSH20 0xFFFFFFFFFFFFFFFFFFFFFFFFFFFFFFFFFFFFFFFF AND CALLER PUSH20 0xFFFFFFFFFFFFFFFFFFFFFFFFFFFFFFFFFFFFFFFF AND EQ ISZERO PUSH2 0x19C JUMPI PUSH1 0x0 PUSH20 0xD5F9D8D94886E70B06E474C3FB14FD43E2F23970 SWAP1 POP DUP1 PUSH20 0xFFFFFFFFFFFFFFFFFFFFFFFFFFFFFFFFFFFFFFFF AND PUSH4 0xA874DF6 PUSH1 0x1 PUSH1 0x40 MLOAD DUP3 PUSH4 0xFFFFFFFF AND PUSH1 0xE0 SHL DUP2 MSTORE PUSH1 0x4 ADD PUSH2 0xE1 SWAP2 SWAP1 PUSH2 0x27E JUMP JUMPDEST PUSH1 0x20 PUSH1 0x40 MLOAD DUP1 DUP4 SUB DUP2 PUSH1 0x0 DUP8 DUP1 EXTCODESIZE ISZERO DUP1 ISZERO PUSH2 0xFB JUMPI PUSH1 0x0 DUP1 REVERT JUMPDEST POP GAS CALL ISZERO DUP1 ISZERO PUSH2 0x10F JUMPI RETURNDATASIZE PUSH1 0x0 DUP1 RETURNDATACOPY RETURNDATASIZE PUSH1 0x0 REVERT JUMPDEST POP POP POP POP PUSH1 0x40 MLOAD RETURNDATASIZE PUSH1 0x1F NOT PUSH1 0x1F DUP3 ADD AND DUP3 ADD DUP1 PUSH1 0x40 MSTORE POP DUP2 ADD SWAP1 PUSH2 0x133 SWAP2 SWAP1 PUSH2 0x242 JUMP JUMPDEST PUSH20 0xFFFFFFFFFFFFFFFFFFFFFFFFFFFFFFFFFFFFFFFF AND PUSH4 0xE79A198F PUSH1 0x40 MLOAD DUP2 PUSH4 0xFFFFFFFF AND PUSH1 0xE0 SHL DUP2 MSTORE PUSH1 0x4 ADD PUSH1 0x0 PUSH1 0x40 MLOAD DUP1 DUP4 SUB DUP2 PUSH1 0x0 DUP8 DUP1 EXTCODESIZE ISZERO DUP1 ISZERO PUSH2 0x17A JUMPI PUSH1 0x0 DUP1 REVERT JUMPDEST POP GAS CALL ISZERO DUP1 ISZERO PUSH2 0x18E JUMPI RETURNDATASIZE PUSH1 0x0 DUP1 RETURNDATACOPY RETURNDATASIZE PUSH1 0x0 REVERT JUMPDEST POP POP POP POP PUSH2 0x19A PUSH2 0x19E JUMP JUMPDEST POP JUMPDEST JUMP JUMPDEST PUSH1 0x0 DUP1 SLOAD SWAP1 PUSH2 0x100 EXP SWAP1 DIV PUSH20 0xFFFFFFFFFFFFFFFFFFFFFFFFFFFFFFFFFFFFFFFF AND PUSH20 0xFFFFFFFFFFFFFFFFFFFFFFFFFFFFFFFFFFFFFFFF AND CALLER PUSH20 0xFFFFFFFFFFFFFFFFFFFFFFFFFFFFFFFFFFFFFFFF AND EQ ISZERO PUSH2 0x22B JUMPI PUSH1 0x0 DUP1 SLOAD SWAP1 PUSH2 0x100 EXP SWAP1 DIV PUSH20 0xFFFFFFFFFFFFFFFFFFFFFFFFFFFFFFFFFFFFFFFF AND PUSH20 0xFFFFFFFFFFFFFFFFFFFFFFFFFFFFFFFFFFFFFFFF AND SELFDESTRUCT JUMPDEST JUMP JUMPDEST PUSH1 0x0 DUP2 MLOAD SWAP1 POP PUSH2 0x23C DUP2 PUSH2 0x2EC JUMP JUMPDEST SWAP3 SWAP2 POP POP JUMP JUMPDEST PUSH1 0x0 PUSH1 0x20 DUP3 DUP5 SUB SLT ISZERO PUSH2 0x258 JUMPI PUSH2 0x257 PUSH2 0x2E7 JUMP JUMPDEST JUMPDEST PUSH1 0x0 PUSH2 0x266 DUP5 DUP3 DUP6 ADD PUSH2 0x22D JUMP JUMPDEST SWAP2 POP POP SWAP3 SWAP2 POP POP JUMP JUMPDEST PUSH2 0x278 DUP2 PUSH2 0x2D5 JUMP JUMPDEST DUP3 MSTORE POP POP JUMP JUMPDEST PUSH1 0x0 PUSH1 0x20 DUP3 ADD SWAP1 POP PUSH2 0x293 PUSH1 0x0 DUP4 ADD DUP5 PUSH2 0x26F JUMP JUMPDEST SWAP3 SWAP2 POP POP JUMP JUMPDEST PUSH1 0x0 PUSH2 0x2A4 DUP3 PUSH2 0x2AB JUMP JUMPDEST SWAP1 POP SWAP2 SWAP1 POP JUMP JUMPDEST PUSH1 0x0 PUSH20 0xFFFFFFFFFFFFFFFFFFFFFFFFFFFFFFFFFFFFFFFF DUP3 AND SWAP1 POP SWAP2 SWAP1 POP JUMP JUMPDEST PUSH1 0x0 DUP2 SWAP1 POP SWAP2 SWAP1 POP JUMP JUMPDEST PUSH1 0x0 PUSH2 0x2E0 DUP3 PUSH2 0x2CB JUMP JUMPDEST SWAP1 POP SWAP2 SWAP1 POP JUMP JUMPDEST PUSH1 0x0 DUP1 REVERT JUMPDEST PUSH2 0x2F5 DUP2 PUSH2 0x299 JUMP JUMPDEST DUP2 EQ PUSH2 0x300 JUMPI PUSH1 0x0 DUP1 REVERT JUMPDEST POP JUMP INVALID LOG2 PUSH5 0x6970667358 0x22 SLT KECCAK256 0xA8 0xB2 SWAP1 0x4D 0xE4 0xB9 TIMESTAMP PUSH31 0x65B9003BC2FE01B1FB9597364CBDB97304BBC1F7DFE868064736F6C634300 ADDMOD SMOD STOP CALLER "
				},
				"gasEstimates": {
					"creation": {
						"codeDepositCost": "165000",
						"executionCost": "infinite",
						"totalCost": "infinite"
					},
					"external": {
						"destroy()": "infinite"
					}
				},
				"methodIdentifiers": {
					"destroy()": "83197ef0"
				}
			},
			"storageLayout": {
				"storage": [
					{
						"astId": 15,
						"contract": "study/chapter10/extendBasic.sol:Named",
						"label": "owner",
						"offset": 0,
						"slot": "0",
						"type": "t_address_payable"
					}
				],
				"types": {
					"t_address_payable": {
						"encoding": "inplace",
						"label": "address payable",
						"numberOfBytes": "20"
					}
				}
			},
			"userdoc": {
				"kind": "user",
				"methods": {},
				"version": 1
			}
		}
	}
}