{
	"study/chapter10/extendBasic.sol": {
		"PriceFeed": {
			"abi": [
				{
					"inputs": [],
					"name": "destroy",
					"outputs": [],
					"stateMutability": "nonpayable",
					"type": "function"
				},
				{
					"inputs": [],
					"name": "get",
					"outputs": [
						{
							"internalType": "uint256",
							"name": "r",
							"type": "uint256"
						}
					],
					"stateMutability": "view",
					"type": "function"
				},
				{
					"inputs": [
						{
							"internalType": "uint256",
							"name": "newInfo",
							"type": "uint256"
						}
					],
					"name": "updateInfo",
					"outputs": [],
					"stateMutability": "nonpayable",
					"type": "function"
				}
			],
			"devdoc": {
				"kind": "dev",
				"methods": {},
				"version": 1
			},
			"evm": {
				"assembly": "    /* \"study/chapter10/extendBasic.sol\":2333:2867  contract PriceFeed is Owned, Destructible, Named(\"GoldFeed\") {... */\n  mstore(0x40, 0x80)\n  callvalue\n  dup1\n  iszero\n  tag_1\n  jumpi\n  0x00\n  dup1\n  revert\ntag_1:\n  pop\n    /* \"study/chapter10/extendBasic.sol\":1206:1374  constructor(bytes32 name) {... */\n  0x476f6c6446656564000000000000000000000000000000000000000000000000\n    /* \"study/chapter10/extendBasic.sol\":117:127  msg.sender */\n  caller\n    /* \"study/chapter10/extendBasic.sol\":101:106  owner */\n  0x00\n  dup1\n    /* \"study/chapter10/extendBasic.sol\":101:128  owner = payable(msg.sender) */\n  0x0100\n  exp\n  dup2\n  sload\n  dup2\n  0xffffffffffffffffffffffffffffffffffffffff\n  mul\n  not\n  and\n  swap1\n  dup4\n  0xffffffffffffffffffffffffffffffffffffffff\n  and\n  mul\n  or\n  swap1\n  sstore\n  pop\n    /* \"study/chapter10/extendBasic.sol\":1245:1258  Config config */\n  0x00\n    /* \"study/chapter10/extendBasic.sol\":1268:1310  0xD5f9D8D94886E70b06E474c3fB14Fd43E2f23970 */\n  0xd5f9d8d94886e70b06e474c3fb14fd43e2f23970\n    /* \"study/chapter10/extendBasic.sol\":1245:1311  Config config = Config(0xD5f9D8D94886E70b06E474c3fB14Fd43E2f23970) */\n  swap1\n  pop\n    /* \"study/chapter10/extendBasic.sol\":1332:1338  config */\n  dup1\n    /* \"study/chapter10/extendBasic.sol\":1332:1345  config.lookup */\n  0xffffffffffffffffffffffffffffffffffffffff\n  and\n  0x0a874df6\n    /* \"study/chapter10/extendBasic.sol\":1346:1347  1 */\n  0x01\n    /* \"study/chapter10/extendBasic.sol\":1332:1348  config.lookup(1) */\n  mload(0x40)\n  dup3\n  0xffffffff\n  and\n  0xe0\n  shl\n  dup2\n  mstore\n  0x04\n  add\n  tag_6\n  swap2\n  swap1\n  tag_7\n  jump\t// in\ntag_6:\n  0x20\n  mload(0x40)\n  dup1\n  dup4\n  sub\n  dup2\n  0x00\n  dup8\n  dup1\n  extcodesize\n  iszero\n  dup1\n  iszero\n  tag_8\n  jumpi\n  0x00\n  dup1\n  revert\ntag_8:\n  pop\n  gas\n  call\n  iszero\n  dup1\n  iszero\n  tag_10\n  jumpi\n  returndatasize\n  0x00\n  dup1\n  returndatacopy\n  revert(0x00, returndatasize)\ntag_10:\n  pop\n  pop\n  pop\n  pop\n  mload(0x40)\n  returndatasize\n  not(0x1f)\n  0x1f\n  dup3\n  add\n  and\n  dup3\n  add\n  dup1\n  0x40\n  mstore\n  pop\n  dup2\n  add\n  swap1\n  tag_11\n  swap2\n  swap1\n  tag_12\n  jump\t// in\ntag_11:\n    /* \"study/chapter10/extendBasic.sol\":1324:1358  NameReg(config.lookup(1)).register */\n  0xffffffffffffffffffffffffffffffffffffffff\n  and\n  0xe1fa8e84\n    /* \"study/chapter10/extendBasic.sol\":1359:1363  name */\n  dup4\n    /* \"study/chapter10/extendBasic.sol\":1324:1364  NameReg(config.lookup(1)).register(name) */\n  mload(0x40)\n  dup3\n  0xffffffff\n  and\n  0xe0\n  shl\n  dup2\n  mstore\n  0x04\n  add\n  tag_13\n  swap2\n  swap1\n  tag_14\n  jump\t// in\ntag_13:\n  0x00\n  mload(0x40)\n  dup1\n  dup4\n  sub\n  dup2\n  0x00\n  dup8\n  dup1\n  extcodesize\n  iszero\n  dup1\n  iszero\n  tag_15\n  jumpi\n  0x00\n  dup1\n  revert\ntag_15:\n  pop\n  gas\n  call\n  iszero\n  dup1\n  iszero\n  tag_17\n  jumpi\n  returndatasize\n  0x00\n  dup1\n  returndatacopy\n  revert(0x00, returndatasize)\ntag_17:\n  pop\n  pop\n  pop\n  pop\n    /* \"study/chapter10/extendBasic.sol\":1232:1374  {... */\n  pop\n    /* \"study/chapter10/extendBasic.sol\":1206:1374  constructor(bytes32 name) {... */\n  pop\n    /* \"study/chapter10/extendBasic.sol\":2333:2867  contract PriceFeed is Owned, Destructible, Named(\"GoldFeed\") {... */\n  jump(tag_18)\n    /* \"#utility.yul\":7:150   */\ntag_20:\n    /* \"#utility.yul\":64:69   */\n  0x00\n    /* \"#utility.yul\":95:101   */\n  dup2\n    /* \"#utility.yul\":89:102   */\n  mload\n    /* \"#utility.yul\":80:102   */\n  swap1\n  pop\n    /* \"#utility.yul\":111:144   */\n  tag_22\n    /* \"#utility.yul\":138:143   */\n  dup2\n    /* \"#utility.yul\":111:144   */\n  tag_23\n  jump\t// in\ntag_22:\n    /* \"#utility.yul\":7:150   */\n  swap3\n  swap2\n  pop\n  pop\n  jump\t// out\n    /* \"#utility.yul\":156:507   */\ntag_12:\n    /* \"#utility.yul\":226:232   */\n  0x00\n    /* \"#utility.yul\":275:277   */\n  0x20\n    /* \"#utility.yul\":263:272   */\n  dup3\n    /* \"#utility.yul\":254:261   */\n  dup5\n    /* \"#utility.yul\":250:273   */\n  sub\n    /* \"#utility.yul\":246:278   */\n  slt\n    /* \"#utility.yul\":243:362   */\n  iszero\n  tag_25\n  jumpi\n    /* \"#utility.yul\":281:360   */\n  tag_26\n  tag_27\n  jump\t// in\ntag_26:\n    /* \"#utility.yul\":243:362   */\ntag_25:\n    /* \"#utility.yul\":401:402   */\n  0x00\n    /* \"#utility.yul\":426:490   */\n  tag_28\n    /* \"#utility.yul\":482:489   */\n  dup5\n    /* \"#utility.yul\":473:479   */\n  dup3\n    /* \"#utility.yul\":462:471   */\n  dup6\n    /* \"#utility.yul\":458:480   */\n  add\n    /* \"#utility.yul\":426:490   */\n  tag_20\n  jump\t// in\ntag_28:\n    /* \"#utility.yul\":416:490   */\n  swap2\n  pop\n    /* \"#utility.yul\":372:500   */\n  pop\n    /* \"#utility.yul\":156:507   */\n  swap3\n  swap2\n  pop\n  pop\n  jump\t// out\n    /* \"#utility.yul\":513:631   */\ntag_29:\n    /* \"#utility.yul\":600:624   */\n  tag_31\n    /* \"#utility.yul\":618:623   */\n  dup2\n    /* \"#utility.yul\":600:624   */\n  tag_32\n  jump\t// in\ntag_31:\n    /* \"#utility.yul\":595:598   */\n  dup3\n    /* \"#utility.yul\":588:625   */\n  mstore\n    /* \"#utility.yul\":513:631   */\n  pop\n  pop\n  jump\t// out\n    /* \"#utility.yul\":637:784   */\ntag_33:\n    /* \"#utility.yul\":732:777   */\n  tag_35\n    /* \"#utility.yul\":771:776   */\n  dup2\n    /* \"#utility.yul\":732:777   */\n  tag_36\n  jump\t// in\ntag_35:\n    /* \"#utility.yul\":727:730   */\n  dup3\n    /* \"#utility.yul\":720:778   */\n  mstore\n    /* \"#utility.yul\":637:784   */\n  pop\n  pop\n  jump\t// out\n    /* \"#utility.yul\":790:1012   */\ntag_14:\n    /* \"#utility.yul\":883:887   */\n  0x00\n    /* \"#utility.yul\":921:923   */\n  0x20\n    /* \"#utility.yul\":910:919   */\n  dup3\n    /* \"#utility.yul\":906:924   */\n  add\n    /* \"#utility.yul\":898:924   */\n  swap1\n  pop\n    /* \"#utility.yul\":934:1005   */\n  tag_38\n    /* \"#utility.yul\":1002:1003   */\n  0x00\n    /* \"#utility.yul\":991:1000   */\n  dup4\n    /* \"#utility.yul\":987:1004   */\n  add\n    /* \"#utility.yul\":978:984   */\n  dup5\n    /* \"#utility.yul\":934:1005   */\n  tag_29\n  jump\t// in\ntag_38:\n    /* \"#utility.yul\":790:1012   */\n  swap3\n  swap2\n  pop\n  pop\n  jump\t// out\n    /* \"#utility.yul\":1018:1256   */\ntag_7:\n    /* \"#utility.yul\":1119:1123   */\n  0x00\n    /* \"#utility.yul\":1157:1159   */\n  0x20\n    /* \"#utility.yul\":1146:1155   */\n  dup3\n    /* \"#utility.yul\":1142:1160   */\n  add\n    /* \"#utility.yul\":1134:1160   */\n  swap1\n  pop\n    /* \"#utility.yul\":1170:1249   */\n  tag_40\n    /* \"#utility.yul\":1246:1247   */\n  0x00\n    /* \"#utility.yul\":1235:1244   */\n  dup4\n    /* \"#utility.yul\":1231:1248   */\n  add\n    /* \"#utility.yul\":1222:1228   */\n  dup5\n    /* \"#utility.yul\":1170:1249   */\n  tag_33\n  jump\t// in\ntag_40:\n    /* \"#utility.yul\":1018:1256   */\n  swap3\n  swap2\n  pop\n  pop\n  jump\t// out\n    /* \"#utility.yul\":1343:1439   */\ntag_43:\n    /* \"#utility.yul\":1380:1387   */\n  0x00\n    /* \"#utility.yul\":1409:1433   */\n  tag_45\n    /* \"#utility.yul\":1427:1432   */\n  dup3\n    /* \"#utility.yul\":1409:1433   */\n  tag_46\n  jump\t// in\ntag_45:\n    /* \"#utility.yul\":1398:1433   */\n  swap1\n  pop\n    /* \"#utility.yul\":1343:1439   */\n  swap2\n  swap1\n  pop\n  jump\t// out\n    /* \"#utility.yul\":1445:1522   */\ntag_32:\n    /* \"#utility.yul\":1482:1489   */\n  0x00\n    /* \"#utility.yul\":1511:1516   */\n  dup2\n    /* \"#utility.yul\":1500:1516   */\n  swap1\n  pop\n    /* \"#utility.yul\":1445:1522   */\n  swap2\n  swap1\n  pop\n  jump\t// out\n    /* \"#utility.yul\":1528:1654   */\ntag_46:\n    /* \"#utility.yul\":1565:1572   */\n  0x00\n    /* \"#utility.yul\":1605:1647   */\n  0xffffffffffffffffffffffffffffffffffffffff\n    /* \"#utility.yul\":1598:1603   */\n  dup3\n    /* \"#utility.yul\":1594:1648   */\n  and\n    /* \"#utility.yul\":1583:1648   */\n  swap1\n  pop\n    /* \"#utility.yul\":1528:1654   */\n  swap2\n  swap1\n  pop\n  jump\t// out\n    /* \"#utility.yul\":1660:1737   */\ntag_49:\n    /* \"#utility.yul\":1697:1704   */\n  0x00\n    /* \"#utility.yul\":1726:1731   */\n  dup2\n    /* \"#utility.yul\":1715:1731   */\n  swap1\n  pop\n    /* \"#utility.yul\":1660:1737   */\n  swap2\n  swap1\n  pop\n  jump\t// out\n    /* \"#utility.yul\":1743:1864   */\ntag_36:\n    /* \"#utility.yul\":1801:1810   */\n  0x00\n    /* \"#utility.yul\":1834:1858   */\n  tag_52\n    /* \"#utility.yul\":1852:1857   */\n  dup3\n    /* \"#utility.yul\":1834:1858   */\n  tag_49\n  jump\t// in\ntag_52:\n    /* \"#utility.yul\":1821:1858   */\n  swap1\n  pop\n    /* \"#utility.yul\":1743:1864   */\n  swap2\n  swap1\n  pop\n  jump\t// out\n    /* \"#utility.yul\":1993:2110   */\ntag_27:\n    /* \"#utility.yul\":2102:2103   */\n  0x00\n    /* \"#utility.yul\":2099:2100   */\n  dup1\n    /* \"#utility.yul\":2092:2104   */\n  revert\n    /* \"#utility.yul\":2116:2238   */\ntag_23:\n    /* \"#utility.yul\":2189:2213   */\n  tag_57\n    /* \"#utility.yul\":2207:2212   */\n  dup2\n    /* \"#utility.yul\":2189:2213   */\n  tag_43\n  jump\t// in\ntag_57:\n    /* \"#utility.yul\":2182:2187   */\n  dup2\n    /* \"#utility.yul\":2179:2214   */\n  eq\n    /* \"#utility.yul\":2169:2232   */\n  tag_58\n  jumpi\n    /* \"#utility.yul\":2228:2229   */\n  0x00\n    /* \"#utility.yul\":2225:2226   */\n  dup1\n    /* \"#utility.yul\":2218:2230   */\n  revert\n    /* \"#utility.yul\":2169:2232   */\ntag_58:\n    /* \"#utility.yul\":2116:2238   */\n  pop\n  jump\t// out\n    /* \"study/chapter10/extendBasic.sol\":2333:2867  contract PriceFeed is Owned, Destructible, Named(\"GoldFeed\") {... */\ntag_18:\n  dataSize(sub_0)\n  dup1\n  dataOffset(sub_0)\n  0x00\n  codecopy\n  0x00\n  return\nstop\n\nsub_0: assembly {\n        /* \"study/chapter10/extendBasic.sol\":2333:2867  contract PriceFeed is Owned, Destructible, Named(\"GoldFeed\") {... */\n      mstore(0x40, 0x80)\n      callvalue\n      dup1\n      iszero\n      tag_1\n      jumpi\n      0x00\n      dup1\n      revert\n    tag_1:\n      pop\n      jumpi(tag_2, lt(calldatasize, 0x04))\n      shr(0xe0, calldataload(0x00))\n      dup1\n      0x316db7f2\n      eq\n      tag_3\n      jumpi\n      dup1\n      0x6d4ce63c\n      eq\n      tag_4\n      jumpi\n      dup1\n      0x83197ef0\n      eq\n      tag_5\n      jumpi\n    tag_2:\n      0x00\n      dup1\n      revert\n        /* \"study/chapter10/extendBasic.sol\":2403:2506  function updateInfo(uint newInfo) public {... */\n    tag_3:\n      tag_6\n      0x04\n      dup1\n      calldatasize\n      sub\n      dup2\n      add\n      swap1\n      tag_7\n      swap2\n      swap1\n      tag_8\n      jump\t// in\n    tag_7:\n      tag_9\n      jump\t// in\n    tag_6:\n      stop\n        /* \"study/chapter10/extendBasic.sol\":2784:2843  function get() public view returns(uint r) { return info; } */\n    tag_4:\n      tag_10\n      tag_11\n      jump\t// in\n    tag_10:\n      mload(0x40)\n      tag_12\n      swap2\n      swap1\n      tag_13\n      jump\t// in\n    tag_12:\n      mload(0x40)\n      dup1\n      swap2\n      sub\n      swap1\n      return\n        /* \"study/chapter10/extendBasic.sol\":2699:2775  function destroy() public override(Destructible, Named) { Named.destroy(); } */\n    tag_5:\n      tag_14\n      tag_15\n      jump\t// in\n    tag_14:\n      stop\n        /* \"study/chapter10/extendBasic.sol\":2403:2506  function updateInfo(uint newInfo) public {... */\n    tag_9:\n        /* \"study/chapter10/extendBasic.sol\":2475:2480  owner */\n      0x00\n      dup1\n      sload\n      swap1\n      0x0100\n      exp\n      swap1\n      div\n      0xffffffffffffffffffffffffffffffffffffffff\n      and\n        /* \"study/chapter10/extendBasic.sol\":2461:2480  msg.sender == owner */\n      0xffffffffffffffffffffffffffffffffffffffff\n      and\n        /* \"study/chapter10/extendBasic.sol\":2461:2471  msg.sender */\n      caller\n        /* \"study/chapter10/extendBasic.sol\":2461:2480  msg.sender == owner */\n      0xffffffffffffffffffffffffffffffffffffffff\n      and\n      eq\n        /* \"study/chapter10/extendBasic.sol\":2457:2496  if (msg.sender == owner) info = newInfo */\n      iszero\n      tag_17\n      jumpi\n        /* \"study/chapter10/extendBasic.sol\":2489:2496  newInfo */\n      dup1\n        /* \"study/chapter10/extendBasic.sol\":2482:2486  info */\n      0x01\n        /* \"study/chapter10/extendBasic.sol\":2482:2496  info = newInfo */\n      dup2\n      swap1\n      sstore\n      pop\n        /* \"study/chapter10/extendBasic.sol\":2457:2496  if (msg.sender == owner) info = newInfo */\n    tag_17:\n        /* \"study/chapter10/extendBasic.sol\":2403:2506  function updateInfo(uint newInfo) public {... */\n      pop\n      jump\t// out\n        /* \"study/chapter10/extendBasic.sol\":2784:2843  function get() public view returns(uint r) { return info; } */\n    tag_11:\n        /* \"study/chapter10/extendBasic.sol\":2819:2825  uint r */\n      0x00\n        /* \"study/chapter10/extendBasic.sol\":2836:2840  info */\n      sload(0x01)\n        /* \"study/chapter10/extendBasic.sol\":2829:2840  return info */\n      swap1\n      pop\n        /* \"study/chapter10/extendBasic.sol\":2784:2843  function get() public view returns(uint r) { return info; } */\n      swap1\n      jump\t// out\n        /* \"study/chapter10/extendBasic.sol\":2699:2775  function destroy() public override(Destructible, Named) { Named.destroy(); } */\n    tag_15:\n        /* \"study/chapter10/extendBasic.sol\":2757:2772  Named.destroy() */\n      tag_20\n        /* \"study/chapter10/extendBasic.sol\":2757:2770  Named.destroy */\n      tag_21\n        /* \"study/chapter10/extendBasic.sol\":2757:2772  Named.destroy() */\n      jump\t// in\n    tag_20:\n        /* \"study/chapter10/extendBasic.sol\":2699:2775  function destroy() public override(Destructible, Named) { Named.destroy(); } */\n      jump\t// out\n        /* \"study/chapter10/extendBasic.sol\":1783:2125  function destroy() public virtual override {... */\n    tag_21:\n        /* \"study/chapter10/extendBasic.sol\":1857:1862  owner */\n      0x00\n      dup1\n      sload\n      swap1\n      0x0100\n      exp\n      swap1\n      div\n      0xffffffffffffffffffffffffffffffffffffffff\n      and\n        /* \"study/chapter10/extendBasic.sol\":1843:1862  msg.sender == owner */\n      0xffffffffffffffffffffffffffffffffffffffff\n      and\n        /* \"study/chapter10/extendBasic.sol\":1843:1853  msg.sender */\n      caller\n        /* \"study/chapter10/extendBasic.sol\":1843:1862  msg.sender == owner */\n      0xffffffffffffffffffffffffffffffffffffffff\n      and\n      eq\n        /* \"study/chapter10/extendBasic.sol\":1839:2116  if (msg.sender == owner) {... */\n      iszero\n      tag_23\n      jumpi\n        /* \"study/chapter10/extendBasic.sol\":1881:1894  Config config */\n      0x00\n        /* \"study/chapter10/extendBasic.sol\":1904:1946  0xD5f9D8D94886E70b06E474c3fB14Fd43E2f23970 */\n      0xd5f9d8d94886e70b06e474c3fb14fd43e2f23970\n        /* \"study/chapter10/extendBasic.sol\":1881:1947  Config config = Config(0xD5f9D8D94886E70b06E474c3fB14Fd43E2f23970) */\n      swap1\n      pop\n        /* \"study/chapter10/extendBasic.sol\":1972:1978  config */\n      dup1\n        /* \"study/chapter10/extendBasic.sol\":1972:1985  config.lookup */\n      0xffffffffffffffffffffffffffffffffffffffff\n      and\n      0x0a874df6\n        /* \"study/chapter10/extendBasic.sol\":1986:1987  1 */\n      0x01\n        /* \"study/chapter10/extendBasic.sol\":1972:1988  config.lookup(1) */\n      mload(0x40)\n      dup3\n      0xffffffff\n      and\n      0xe0\n      shl\n      dup2\n      mstore\n      0x04\n      add\n      tag_24\n      swap2\n      swap1\n      tag_25\n      jump\t// in\n    tag_24:\n      0x20\n      mload(0x40)\n      dup1\n      dup4\n      sub\n      dup2\n      0x00\n      dup8\n      dup1\n      extcodesize\n      iszero\n      dup1\n      iszero\n      tag_26\n      jumpi\n      0x00\n      dup1\n      revert\n    tag_26:\n      pop\n      gas\n      call\n      iszero\n      dup1\n      iszero\n      tag_28\n      jumpi\n      returndatasize\n      0x00\n      dup1\n      returndatacopy\n      revert(0x00, returndatasize)\n    tag_28:\n      pop\n      pop\n      pop\n      pop\n      mload(0x40)\n      returndatasize\n      not(0x1f)\n      0x1f\n      dup3\n      add\n      and\n      dup3\n      add\n      dup1\n      0x40\n      mstore\n      pop\n      dup2\n      add\n      swap1\n      tag_29\n      swap2\n      swap1\n      tag_30\n      jump\t// in\n    tag_29:\n        /* \"study/chapter10/extendBasic.sol\":1964:2000  NameReg(config.lookup(1)).unregister */\n      0xffffffffffffffffffffffffffffffffffffffff\n      and\n      0xe79a198f\n        /* \"study/chapter10/extendBasic.sol\":1964:2002  NameReg(config.lookup(1)).unregister() */\n      mload(0x40)\n      dup2\n      0xffffffff\n      and\n      0xe0\n      shl\n      dup2\n      mstore\n      0x04\n      add\n      0x00\n      mload(0x40)\n      dup1\n      dup4\n      sub\n      dup2\n      0x00\n      dup8\n      dup1\n      extcodesize\n      iszero\n      dup1\n      iszero\n      tag_31\n      jumpi\n      0x00\n      dup1\n      revert\n    tag_31:\n      pop\n      gas\n      call\n      iszero\n      dup1\n      iszero\n      tag_33\n      jumpi\n      returndatasize\n      0x00\n      dup1\n      returndatacopy\n      revert(0x00, returndatasize)\n    tag_33:\n      pop\n      pop\n      pop\n      pop\n        /* \"study/chapter10/extendBasic.sol\":2080:2102  Destructible.destroy() */\n      tag_34\n        /* \"study/chapter10/extendBasic.sol\":2080:2100  Destructible.destroy */\n      tag_35\n        /* \"study/chapter10/extendBasic.sol\":2080:2102  Destructible.destroy() */\n      jump\t// in\n    tag_34:\n        /* \"study/chapter10/extendBasic.sol\":1864:2116  {... */\n      pop\n        /* \"study/chapter10/extendBasic.sol\":1839:2116  if (msg.sender == owner) {... */\n    tag_23:\n        /* \"study/chapter10/extendBasic.sol\":1783:2125  function destroy() public virtual override {... */\n      jump\t// out\n        /* \"study/chapter10/extendBasic.sol\":479:580  function destroy() virtual public {... */\n    tag_35:\n        /* \"study/chapter10/extendBasic.sol\":544:549  owner */\n      0x00\n      dup1\n      sload\n      swap1\n      0x0100\n      exp\n      swap1\n      div\n      0xffffffffffffffffffffffffffffffffffffffff\n      and\n        /* \"study/chapter10/extendBasic.sol\":530:549  msg.sender == owner */\n      0xffffffffffffffffffffffffffffffffffffffff\n      and\n        /* \"study/chapter10/extendBasic.sol\":530:540  msg.sender */\n      caller\n        /* \"study/chapter10/extendBasic.sol\":530:549  msg.sender == owner */\n      0xffffffffffffffffffffffffffffffffffffffff\n      and\n      eq\n        /* \"study/chapter10/extendBasic.sol\":526:570  if (msg.sender == owner) selfdestruct(owner) */\n      iszero\n      tag_37\n      jumpi\n        /* \"study/chapter10/extendBasic.sol\":564:569  owner */\n      0x00\n      dup1\n      sload\n      swap1\n      0x0100\n      exp\n      swap1\n      div\n      0xffffffffffffffffffffffffffffffffffffffff\n      and\n        /* \"study/chapter10/extendBasic.sol\":551:570  selfdestruct(owner) */\n      0xffffffffffffffffffffffffffffffffffffffff\n      and\n      selfdestruct\n        /* \"study/chapter10/extendBasic.sol\":526:570  if (msg.sender == owner) selfdestruct(owner) */\n    tag_37:\n        /* \"study/chapter10/extendBasic.sol\":479:580  function destroy() virtual public {... */\n      jump\t// out\n        /* \"#utility.yul\":7:150   */\n    tag_39:\n        /* \"#utility.yul\":64:69   */\n      0x00\n        /* \"#utility.yul\":95:101   */\n      dup2\n        /* \"#utility.yul\":89:102   */\n      mload\n        /* \"#utility.yul\":80:102   */\n      swap1\n      pop\n        /* \"#utility.yul\":111:144   */\n      tag_41\n        /* \"#utility.yul\":138:143   */\n      dup2\n        /* \"#utility.yul\":111:144   */\n      tag_42\n      jump\t// in\n    tag_41:\n        /* \"#utility.yul\":7:150   */\n      swap3\n      swap2\n      pop\n      pop\n      jump\t// out\n        /* \"#utility.yul\":156:295   */\n    tag_43:\n        /* \"#utility.yul\":202:207   */\n      0x00\n        /* \"#utility.yul\":240:246   */\n      dup2\n        /* \"#utility.yul\":227:247   */\n      calldataload\n        /* \"#utility.yul\":218:247   */\n      swap1\n      pop\n        /* \"#utility.yul\":256:289   */\n      tag_45\n        /* \"#utility.yul\":283:288   */\n      dup2\n        /* \"#utility.yul\":256:289   */\n      tag_46\n      jump\t// in\n    tag_45:\n        /* \"#utility.yul\":156:295   */\n      swap3\n      swap2\n      pop\n      pop\n      jump\t// out\n        /* \"#utility.yul\":301:652   */\n    tag_30:\n        /* \"#utility.yul\":371:377   */\n      0x00\n        /* \"#utility.yul\":420:422   */\n      0x20\n        /* \"#utility.yul\":408:417   */\n      dup3\n        /* \"#utility.yul\":399:406   */\n      dup5\n        /* \"#utility.yul\":395:418   */\n      sub\n        /* \"#utility.yul\":391:423   */\n      slt\n        /* \"#utility.yul\":388:507   */\n      iszero\n      tag_48\n      jumpi\n        /* \"#utility.yul\":426:505   */\n      tag_49\n      tag_50\n      jump\t// in\n    tag_49:\n        /* \"#utility.yul\":388:507   */\n    tag_48:\n        /* \"#utility.yul\":546:547   */\n      0x00\n        /* \"#utility.yul\":571:635   */\n      tag_51\n        /* \"#utility.yul\":627:634   */\n      dup5\n        /* \"#utility.yul\":618:624   */\n      dup3\n        /* \"#utility.yul\":607:616   */\n      dup6\n        /* \"#utility.yul\":603:625   */\n      add\n        /* \"#utility.yul\":571:635   */\n      tag_39\n      jump\t// in\n    tag_51:\n        /* \"#utility.yul\":561:635   */\n      swap2\n      pop\n        /* \"#utility.yul\":517:645   */\n      pop\n        /* \"#utility.yul\":301:652   */\n      swap3\n      swap2\n      pop\n      pop\n      jump\t// out\n        /* \"#utility.yul\":658:987   */\n    tag_8:\n        /* \"#utility.yul\":717:723   */\n      0x00\n        /* \"#utility.yul\":766:768   */\n      0x20\n        /* \"#utility.yul\":754:763   */\n      dup3\n        /* \"#utility.yul\":745:752   */\n      dup5\n        /* \"#utility.yul\":741:764   */\n      sub\n        /* \"#utility.yul\":737:769   */\n      slt\n        /* \"#utility.yul\":734:853   */\n      iszero\n      tag_53\n      jumpi\n        /* \"#utility.yul\":772:851   */\n      tag_54\n      tag_50\n      jump\t// in\n    tag_54:\n        /* \"#utility.yul\":734:853   */\n    tag_53:\n        /* \"#utility.yul\":892:893   */\n      0x00\n        /* \"#utility.yul\":917:970   */\n      tag_55\n        /* \"#utility.yul\":962:969   */\n      dup5\n        /* \"#utility.yul\":953:959   */\n      dup3\n        /* \"#utility.yul\":942:951   */\n      dup6\n        /* \"#utility.yul\":938:960   */\n      add\n        /* \"#utility.yul\":917:970   */\n      tag_43\n      jump\t// in\n    tag_55:\n        /* \"#utility.yul\":907:970   */\n      swap2\n      pop\n        /* \"#utility.yul\":863:980   */\n      pop\n        /* \"#utility.yul\":658:987   */\n      swap3\n      swap2\n      pop\n      pop\n      jump\t// out\n        /* \"#utility.yul\":993:1140   */\n    tag_56:\n        /* \"#utility.yul\":1088:1133   */\n      tag_58\n        /* \"#utility.yul\":1127:1132   */\n      dup2\n        /* \"#utility.yul\":1088:1133   */\n      tag_59\n      jump\t// in\n    tag_58:\n        /* \"#utility.yul\":1083:1086   */\n      dup3\n        /* \"#utility.yul\":1076:1134   */\n      mstore\n        /* \"#utility.yul\":993:1140   */\n      pop\n      pop\n      jump\t// out\n        /* \"#utility.yul\":1146:1264   */\n    tag_60:\n        /* \"#utility.yul\":1233:1257   */\n      tag_62\n        /* \"#utility.yul\":1251:1256   */\n      dup2\n        /* \"#utility.yul\":1233:1257   */\n      tag_63\n      jump\t// in\n    tag_62:\n        /* \"#utility.yul\":1228:1231   */\n      dup3\n        /* \"#utility.yul\":1221:1258   */\n      mstore\n        /* \"#utility.yul\":1146:1264   */\n      pop\n      pop\n      jump\t// out\n        /* \"#utility.yul\":1270:1508   */\n    tag_25:\n        /* \"#utility.yul\":1371:1375   */\n      0x00\n        /* \"#utility.yul\":1409:1411   */\n      0x20\n        /* \"#utility.yul\":1398:1407   */\n      dup3\n        /* \"#utility.yul\":1394:1412   */\n      add\n        /* \"#utility.yul\":1386:1412   */\n      swap1\n      pop\n        /* \"#utility.yul\":1422:1501   */\n      tag_65\n        /* \"#utility.yul\":1498:1499   */\n      0x00\n        /* \"#utility.yul\":1487:1496   */\n      dup4\n        /* \"#utility.yul\":1483:1500   */\n      add\n        /* \"#utility.yul\":1474:1480   */\n      dup5\n        /* \"#utility.yul\":1422:1501   */\n      tag_56\n      jump\t// in\n    tag_65:\n        /* \"#utility.yul\":1270:1508   */\n      swap3\n      swap2\n      pop\n      pop\n      jump\t// out\n        /* \"#utility.yul\":1514:1736   */\n    tag_13:\n        /* \"#utility.yul\":1607:1611   */\n      0x00\n        /* \"#utility.yul\":1645:1647   */\n      0x20\n        /* \"#utility.yul\":1634:1643   */\n      dup3\n        /* \"#utility.yul\":1630:1648   */\n      add\n        /* \"#utility.yul\":1622:1648   */\n      swap1\n      pop\n        /* \"#utility.yul\":1658:1729   */\n      tag_67\n        /* \"#utility.yul\":1726:1727   */\n      0x00\n        /* \"#utility.yul\":1715:1724   */\n      dup4\n        /* \"#utility.yul\":1711:1728   */\n      add\n        /* \"#utility.yul\":1702:1708   */\n      dup5\n        /* \"#utility.yul\":1658:1729   */\n      tag_60\n      jump\t// in\n    tag_67:\n        /* \"#utility.yul\":1514:1736   */\n      swap3\n      swap2\n      pop\n      pop\n      jump\t// out\n        /* \"#utility.yul\":1823:1919   */\n    tag_70:\n        /* \"#utility.yul\":1860:1867   */\n      0x00\n        /* \"#utility.yul\":1889:1913   */\n      tag_72\n        /* \"#utility.yul\":1907:1912   */\n      dup3\n        /* \"#utility.yul\":1889:1913   */\n      tag_73\n      jump\t// in\n    tag_72:\n        /* \"#utility.yul\":1878:1913   */\n      swap1\n      pop\n        /* \"#utility.yul\":1823:1919   */\n      swap2\n      swap1\n      pop\n      jump\t// out\n        /* \"#utility.yul\":1925:2051   */\n    tag_73:\n        /* \"#utility.yul\":1962:1969   */\n      0x00\n        /* \"#utility.yul\":2002:2044   */\n      0xffffffffffffffffffffffffffffffffffffffff\n        /* \"#utility.yul\":1995:2000   */\n      dup3\n        /* \"#utility.yul\":1991:2045   */\n      and\n        /* \"#utility.yul\":1980:2045   */\n      swap1\n      pop\n        /* \"#utility.yul\":1925:2051   */\n      swap2\n      swap1\n      pop\n      jump\t// out\n        /* \"#utility.yul\":2057:2134   */\n    tag_63:\n        /* \"#utility.yul\":2094:2101   */\n      0x00\n        /* \"#utility.yul\":2123:2128   */\n      dup2\n        /* \"#utility.yul\":2112:2128   */\n      swap1\n      pop\n        /* \"#utility.yul\":2057:2134   */\n      swap2\n      swap1\n      pop\n      jump\t// out\n        /* \"#utility.yul\":2140:2261   */\n    tag_59:\n        /* \"#utility.yul\":2198:2207   */\n      0x00\n        /* \"#utility.yul\":2231:2255   */\n      tag_77\n        /* \"#utility.yul\":2249:2254   */\n      dup3\n        /* \"#utility.yul\":2231:2255   */\n      tag_63\n      jump\t// in\n    tag_77:\n        /* \"#utility.yul\":2218:2255   */\n      swap1\n      pop\n        /* \"#utility.yul\":2140:2261   */\n      swap2\n      swap1\n      pop\n      jump\t// out\n        /* \"#utility.yul\":2390:2507   */\n    tag_50:\n        /* \"#utility.yul\":2499:2500   */\n      0x00\n        /* \"#utility.yul\":2496:2497   */\n      dup1\n        /* \"#utility.yul\":2489:2501   */\n      revert\n        /* \"#utility.yul\":2513:2635   */\n    tag_42:\n        /* \"#utility.yul\":2586:2610   */\n      tag_82\n        /* \"#utility.yul\":2604:2609   */\n      dup2\n        /* \"#utility.yul\":2586:2610   */\n      tag_70\n      jump\t// in\n    tag_82:\n        /* \"#utility.yul\":2579:2584   */\n      dup2\n        /* \"#utility.yul\":2576:2611   */\n      eq\n        /* \"#utility.yul\":2566:2629   */\n      tag_83\n      jumpi\n        /* \"#utility.yul\":2625:2626   */\n      0x00\n        /* \"#utility.yul\":2622:2623   */\n      dup1\n        /* \"#utility.yul\":2615:2627   */\n      revert\n        /* \"#utility.yul\":2566:2629   */\n    tag_83:\n        /* \"#utility.yul\":2513:2635   */\n      pop\n      jump\t// out\n        /* \"#utility.yul\":2641:2763   */\n    tag_46:\n        /* \"#utility.yul\":2714:2738   */\n      tag_85\n        /* \"#utility.yul\":2732:2737   */\n      dup2\n        /* \"#utility.yul\":2714:2738   */\n      tag_63\n      jump\t// in\n    tag_85:\n        /* \"#utility.yul\":2707:2712   */\n      dup2\n        /* \"#utility.yul\":2704:2739   */\n      eq\n        /* \"#utility.yul\":2694:2757   */\n      tag_86\n      jumpi\n        /* \"#utility.yul\":2753:2754   */\n      0x00\n        /* \"#utility.yul\":2750:2751   */\n      dup1\n        /* \"#utility.yul\":2743:2755   */\n      revert\n        /* \"#utility.yul\":2694:2757   */\n    tag_86:\n        /* \"#utility.yul\":2641:2763   */\n      pop\n      jump\t// out\n\n    auxdata: 0xa26469706673582212209401101a26459d27fb760b1f6891fa0674b8a0cb3c1a5fb356a1a37381154b9564736f6c63430008070033\n}\n",
				"bytecode": {
					"linkReferences": {},
					"object": "608060405234801561001057600080fd5b507f476f6c6446656564000000000000000000000000000000000000000000000000336000806101000a81548173ffffffffffffffffffffffffffffffffffffffff021916908373ffffffffffffffffffffffffffffffffffffffff160217905550600073d5f9d8d94886e70b06e474c3fb14fd43e2f2397090508073ffffffffffffffffffffffffffffffffffffffff16630a874df660016040518263ffffffff1660e01b81526004016100c59190610203565b602060405180830381600087803b1580156100df57600080fd5b505af11580156100f3573d6000803e3d6000fd5b505050506040513d601f19601f82011682018060405250810190610117919061019d565b73ffffffffffffffffffffffffffffffffffffffff1663e1fa8e84836040518263ffffffff1660e01b815260040161014f91906101e8565b600060405180830381600087803b15801561016957600080fd5b505af115801561017d573d6000803e3d6000fd5b505050505050610292565b6000815190506101978161027b565b92915050565b6000602082840312156101b3576101b2610276565b5b60006101c184828501610188565b91505092915050565b6101d381610230565b82525050565b6101e281610264565b82525050565b60006020820190506101fd60008301846101ca565b92915050565b600060208201905061021860008301846101d9565b92915050565b60006102298261023a565b9050919050565b6000819050919050565b600073ffffffffffffffffffffffffffffffffffffffff82169050919050565b6000819050919050565b600061026f8261025a565b9050919050565b600080fd5b6102848161021e565b811461028f57600080fd5b50565b61047f806102a16000396000f3fe608060405234801561001057600080fd5b50600436106100415760003560e01c8063316db7f2146100465780636d4ce63c1461006257806383197ef014610080575b600080fd5b610060600480360381019061005b9190610347565b61008a565b005b61006a6100e9565b60405161007791906103ad565b60405180910390f35b6100886100f3565b005b60008054906101000a900473ffffffffffffffffffffffffffffffffffffffff1673ffffffffffffffffffffffffffffffffffffffff163373ffffffffffffffffffffffffffffffffffffffff1614156100e657806001819055505b50565b6000600154905090565b6100fb6100fd565b565b60008054906101000a900473ffffffffffffffffffffffffffffffffffffffff1673ffffffffffffffffffffffffffffffffffffffff163373ffffffffffffffffffffffffffffffffffffffff16141561025f57600073d5f9d8d94886e70b06e474c3fb14fd43e2f2397090508073ffffffffffffffffffffffffffffffffffffffff16630a874df660016040518263ffffffff1660e01b81526004016101a49190610392565b602060405180830381600087803b1580156101be57600080fd5b505af11580156101d2573d6000803e3d6000fd5b505050506040513d601f19601f820116820180604052508101906101f6919061031a565b73ffffffffffffffffffffffffffffffffffffffff1663e79a198f6040518163ffffffff1660e01b8152600401600060405180830381600087803b15801561023d57600080fd5b505af1158015610251573d6000803e3d6000fd5b5050505061025d610261565b505b565b60008054906101000a900473ffffffffffffffffffffffffffffffffffffffff1673ffffffffffffffffffffffffffffffffffffffff163373ffffffffffffffffffffffffffffffffffffffff1614156102ee5760008054906101000a900473ffffffffffffffffffffffffffffffffffffffff1673ffffffffffffffffffffffffffffffffffffffff16ff5b565b6000815190506102ff8161041b565b92915050565b60008135905061031481610432565b92915050565b6000602082840312156103305761032f610416565b5b600061033e848285016102f0565b91505092915050565b60006020828403121561035d5761035c610416565b5b600061036b84828501610305565b91505092915050565b61037d81610404565b82525050565b61038c816103fa565b82525050565b60006020820190506103a76000830184610374565b92915050565b60006020820190506103c26000830184610383565b92915050565b60006103d3826103da565b9050919050565b600073ffffffffffffffffffffffffffffffffffffffff82169050919050565b6000819050919050565b600061040f826103fa565b9050919050565b600080fd5b610424816103c8565b811461042f57600080fd5b50565b61043b816103fa565b811461044657600080fd5b5056fea26469706673582212209401101a26459d27fb760b1f6891fa0674b8a0cb3c1a5fb356a1a37381154b9564736f6c63430008070033",
					"opcodes": "PUSH1 0x80 PUSH1 0x40 MSTORE CALLVALUE DUP1 ISZERO PUSH2 0x10 JUMPI PUSH1 0x0 DUP1 REVERT JUMPDEST POP PUSH32 0x476F6C6446656564000000000000000000000000000000000000000000000000 CALLER PUSH1 0x0 DUP1 PUSH2 0x100 EXP DUP2 SLOAD DUP2 PUSH20 0xFFFFFFFFFFFFFFFFFFFFFFFFFFFFFFFFFFFFFFFF MUL NOT AND SWAP1 DUP4 PUSH20 0xFFFFFFFFFFFFFFFFFFFFFFFFFFFFFFFFFFFFFFFF AND MUL OR SWAP1 SSTORE POP PUSH1 0x0 PUSH20 0xD5F9D8D94886E70B06E474C3FB14FD43E2F23970 SWAP1 POP DUP1 PUSH20 0xFFFFFFFFFFFFFFFFFFFFFFFFFFFFFFFFFFFFFFFF AND PUSH4 0xA874DF6 PUSH1 0x1 PUSH1 0x40 MLOAD DUP3 PUSH4 0xFFFFFFFF AND PUSH1 0xE0 SHL DUP2 MSTORE PUSH1 0x4 ADD PUSH2 0xC5 SWAP2 SWAP1 PUSH2 0x203 JUMP JUMPDEST PUSH1 0x20 PUSH1 0x40 MLOAD DUP1 DUP4 SUB DUP2 PUSH1 0x0 DUP8 DUP1 EXTCODESIZE ISZERO DUP1 ISZERO PUSH2 0xDF JUMPI PUSH1 0x0 DUP1 REVERT JUMPDEST POP GAS CALL ISZERO DUP1 ISZERO PUSH2 0xF3 JUMPI RETURNDATASIZE PUSH1 0x0 DUP1 RETURNDATACOPY RETURNDATASIZE PUSH1 0x0 REVERT JUMPDEST POP POP POP POP PUSH1 0x40 MLOAD RETURNDATASIZE PUSH1 0x1F NOT PUSH1 0x1F DUP3 ADD AND DUP3 ADD DUP1 PUSH1 0x40 MSTORE POP DUP2 ADD SWAP1 PUSH2 0x117 SWAP2 SWAP1 PUSH2 0x19D JUMP JUMPDEST PUSH20 0xFFFFFFFFFFFFFFFFFFFFFFFFFFFFFFFFFFFFFFFF AND PUSH4 0xE1FA8E84 DUP4 PUSH1 0x40 MLOAD DUP3 PUSH4 0xFFFFFFFF AND PUSH1 0xE0 SHL DUP2 MSTORE PUSH1 0x4 ADD PUSH2 0x14F SWAP2 SWAP1 PUSH2 0x1E8 JUMP JUMPDEST PUSH1 0x0 PUSH1 0x40 MLOAD DUP1 DUP4 SUB DUP2 PUSH1 0x0 DUP8 DUP1 EXTCODESIZE ISZERO DUP1 ISZERO PUSH2 0x169 JUMPI PUSH1 0x0 DUP1 REVERT JUMPDEST POP GAS CALL ISZERO DUP1 ISZERO PUSH2 0x17D JUMPI RETURNDATASIZE PUSH1 0x0 DUP1 RETURNDATACOPY RETURNDATASIZE PUSH1 0x0 REVERT JUMPDEST POP POP POP POP POP POP PUSH2 0x292 JUMP JUMPDEST PUSH1 0x0 DUP2 MLOAD SWAP1 POP PUSH2 0x197 DUP2 PUSH2 0x27B JUMP JUMPDEST SWAP3 SWAP2 POP POP JUMP JUMPDEST PUSH1 0x0 PUSH1 0x20 DUP3 DUP5 SUB SLT ISZERO PUSH2 0x1B3 JUMPI PUSH2 0x1B2 PUSH2 0x276 JUMP JUMPDEST JUMPDEST PUSH1 0x0 PUSH2 0x1C1 DUP5 DUP3 DUP6 ADD PUSH2 0x188 JUMP JUMPDEST SWAP2 POP POP SWAP3 SWAP2 POP POP JUMP JUMPDEST PUSH2 0x1D3 DUP2 PUSH2 0x230 JUMP JUMPDEST DUP3 MSTORE POP POP JUMP JUMPDEST PUSH2 0x1E2 DUP2 PUSH2 0x264 JUMP JUMPDEST DUP3 MSTORE POP POP JUMP JUMPDEST PUSH1 0x0 PUSH1 0x20 DUP3 ADD SWAP1 POP PUSH2 0x1FD PUSH1 0x0 DUP4 ADD DUP5 PUSH2 0x1CA JUMP JUMPDEST SWAP3 SWAP2 POP POP JUMP JUMPDEST PUSH1 0x0 PUSH1 0x20 DUP3 ADD SWAP1 POP PUSH2 0x218 PUSH1 0x0 DUP4 ADD DUP5 PUSH2 0x1D9 JUMP JUMPDEST SWAP3 SWAP2 POP POP JUMP JUMPDEST PUSH1 0x0 PUSH2 0x229 DUP3 PUSH2 0x23A JUMP JUMPDEST SWAP1 POP SWAP2 SWAP1 POP JUMP JUMPDEST PUSH1 0x0 DUP2 SWAP1 POP SWAP2 SWAP1 POP JUMP JUMPDEST PUSH1 0x0 PUSH20 0xFFFFFFFFFFFFFFFFFFFFFFFFFFFFFFFFFFFFFFFF DUP3 AND SWAP1 POP SWAP2 SWAP1 POP JUMP JUMPDEST PUSH1 0x0 DUP2 SWAP1 POP SWAP2 SWAP1 POP JUMP JUMPDEST PUSH1 0x0 PUSH2 0x26F DUP3 PUSH2 0x25A JUMP JUMPDEST SWAP1 POP SWAP2 SWAP1 POP JUMP JUMPDEST PUSH1 0x0 DUP1 REVERT JUMPDEST PUSH2 0x284 DUP2 PUSH2 0x21E JUMP JUMPDEST DUP2 EQ PUSH2 0x28F JUMPI PUSH1 0x0 DUP1 REVERT JUMPDEST POP JUMP JUMPDEST PUSH2 0x47F DUP1 PUSH2 0x2A1 PUSH1 0x0 CODECOPY PUSH1 0x0 RETURN INVALID PUSH1 0x80 PUSH1 0x40 MSTORE CALLVALUE DUP1 ISZERO PUSH2 0x10 JUMPI PUSH1 0x0 DUP1 REVERT JUMPDEST POP PUSH1 0x4 CALLDATASIZE LT PUSH2 0x41 JUMPI PUSH1 0x0 CALLDATALOAD PUSH1 0xE0 SHR DUP1 PUSH4 0x316DB7F2 EQ PUSH2 0x46 JUMPI DUP1 PUSH4 0x6D4CE63C EQ PUSH2 0x62 JUMPI DUP1 PUSH4 0x83197EF0 EQ PUSH2 0x80 JUMPI JUMPDEST PUSH1 0x0 DUP1 REVERT JUMPDEST PUSH2 0x60 PUSH1 0x4 DUP1 CALLDATASIZE SUB DUP2 ADD SWAP1 PUSH2 0x5B SWAP2 SWAP1 PUSH2 0x347 JUMP JUMPDEST PUSH2 0x8A JUMP JUMPDEST STOP JUMPDEST PUSH2 0x6A PUSH2 0xE9 JUMP JUMPDEST PUSH1 0x40 MLOAD PUSH2 0x77 SWAP2 SWAP1 PUSH2 0x3AD JUMP JUMPDEST PUSH1 0x40 MLOAD DUP1 SWAP2 SUB SWAP1 RETURN JUMPDEST PUSH2 0x88 PUSH2 0xF3 JUMP JUMPDEST STOP JUMPDEST PUSH1 0x0 DUP1 SLOAD SWAP1 PUSH2 0x100 EXP SWAP1 DIV PUSH20 0xFFFFFFFFFFFFFFFFFFFFFFFFFFFFFFFFFFFFFFFF AND PUSH20 0xFFFFFFFFFFFFFFFFFFFFFFFFFFFFFFFFFFFFFFFF AND CALLER PUSH20 0xFFFFFFFFFFFFFFFFFFFFFFFFFFFFFFFFFFFFFFFF AND EQ ISZERO PUSH2 0xE6 JUMPI DUP1 PUSH1 0x1 DUP2 SWAP1 SSTORE POP JUMPDEST POP JUMP JUMPDEST PUSH1 0x0 PUSH1 0x1 SLOAD SWAP1 POP SWAP1 JUMP JUMPDEST PUSH2 0xFB PUSH2 0xFD JUMP JUMPDEST JUMP JUMPDEST PUSH1 0x0 DUP1 SLOAD SWAP1 PUSH2 0x100 EXP SWAP1 DIV PUSH20 0xFFFFFFFFFFFFFFFFFFFFFFFFFFFFFFFFFFFFFFFF AND PUSH20 0xFFFFFFFFFFFFFFFFFFFFFFFFFFFFFFFFFFFFFFFF AND CALLER PUSH20 0xFFFFFFFFFFFFFFFFFFFFFFFFFFFFFFFFFFFFFFFF AND EQ ISZERO PUSH2 0x25F JUMPI PUSH1 0x0 PUSH20 0xD5F9D8D94886E70B06E474C3FB14FD43E2F23970 SWAP1 POP DUP1 PUSH20 0xFFFFFFFFFFFFFFFFFFFFFFFFFFFFFFFFFFFFFFFF AND PUSH4 0xA874DF6 PUSH1 0x1 PUSH1 0x40 MLOAD DUP3 PUSH4 0xFFFFFFFF AND PUSH1 0xE0 SHL DUP2 MSTORE PUSH1 0x4 ADD PUSH2 0x1A4 SWAP2 SWAP1 PUSH2 0x392 JUMP JUMPDEST PUSH1 0x20 PUSH1 0x40 MLOAD DUP1 DUP4 SUB DUP2 PUSH1 0x0 DUP8 DUP1 EXTCODESIZE ISZERO DUP1 ISZERO PUSH2 0x1BE JUMPI PUSH1 0x0 DUP1 REVERT JUMPDEST POP GAS CALL ISZERO DUP1 ISZERO PUSH2 0x1D2 JUMPI RETURNDATASIZE PUSH1 0x0 DUP1 RETURNDATACOPY RETURNDATASIZE PUSH1 0x0 REVERT JUMPDEST POP POP POP POP PUSH1 0x40 MLOAD RETURNDATASIZE PUSH1 0x1F NOT PUSH1 0x1F DUP3 ADD AND DUP3 ADD DUP1 PUSH1 0x40 MSTORE POP DUP2 ADD SWAP1 PUSH2 0x1F6 SWAP2 SWAP1 PUSH2 0x31A JUMP JUMPDEST PUSH20 0xFFFFFFFFFFFFFFFFFFFFFFFFFFFFFFFFFFFFFFFF AND PUSH4 0xE79A198F PUSH1 0x40 MLOAD DUP2 PUSH4 0xFFFFFFFF AND PUSH1 0xE0 SHL DUP2 MSTORE PUSH1 0x4 ADD PUSH1 0x0 PUSH1 0x40 MLOAD DUP1 DUP4 SUB DUP2 PUSH1 0x0 DUP8 DUP1 EXTCODESIZE ISZERO DUP1 ISZERO PUSH2 0x23D JUMPI PUSH1 0x0 DUP1 REVERT JUMPDEST POP GAS CALL ISZERO DUP1 ISZERO PUSH2 0x251 JUMPI RETURNDATASIZE PUSH1 0x0 DUP1 RETURNDATACOPY RETURNDATASIZE PUSH1 0x0 REVERT JUMPDEST POP POP POP POP PUSH2 0x25D PUSH2 0x261 JUMP JUMPDEST POP JUMPDEST JUMP JUMPDEST PUSH1 0x0 DUP1 SLOAD SWAP1 PUSH2 0x100 EXP SWAP1 DIV PUSH20 0xFFFFFFFFFFFFFFFFFFFFFFFFFFFFFFFFFFFFFFFF AND PUSH20 0xFFFFFFFFFFFFFFFFFFFFFFFFFFFFFFFFFFFFFFFF AND CALLER PUSH20 0xFFFFFFFFFFFFFFFFFFFFFFFFFFFFFFFFFFFFFFFF AND EQ ISZERO PUSH2 0x2EE JUMPI PUSH1 0x0 DUP1 SLOAD SWAP1 PUSH2 0x100 EXP SWAP1 DIV PUSH20 0xFFFFFFFFFFFFFFFFFFFFFFFFFFFFFFFFFFFFFFFF AND PUSH20 0xFFFFFFFFFFFFFFFFFFFFFFFFFFFFFFFFFFFFFFFF AND SELFDESTRUCT JUMPDEST JUMP JUMPDEST PUSH1 0x0 DUP2 MLOAD SWAP1 POP PUSH2 0x2FF DUP2 PUSH2 0x41B JUMP JUMPDEST SWAP3 SWAP2 POP POP JUMP JUMPDEST PUSH1 0x0 DUP2 CALLDATALOAD SWAP1 POP PUSH2 0x314 DUP2 PUSH2 0x432 JUMP JUMPDEST SWAP3 SWAP2 POP POP JUMP JUMPDEST PUSH1 0x0 PUSH1 0x20 DUP3 DUP5 SUB SLT ISZERO PUSH2 0x330 JUMPI PUSH2 0x32F PUSH2 0x416 JUMP JUMPDEST JUMPDEST PUSH1 0x0 PUSH2 0x33E DUP5 DUP3 DUP6 ADD PUSH2 0x2F0 JUMP JUMPDEST SWAP2 POP POP SWAP3 SWAP2 POP POP JUMP JUMPDEST PUSH1 0x0 PUSH1 0x20 DUP3 DUP5 SUB SLT ISZERO PUSH2 0x35D JUMPI PUSH2 0x35C PUSH2 0x416 JUMP JUMPDEST JUMPDEST PUSH1 0x0 PUSH2 0x36B DUP5 DUP3 DUP6 ADD PUSH2 0x305 JUMP JUMPDEST SWAP2 POP POP SWAP3 SWAP2 POP POP JUMP JUMPDEST PUSH2 0x37D DUP2 PUSH2 0x404 JUMP JUMPDEST DUP3 MSTORE POP POP JUMP JUMPDEST PUSH2 0x38C DUP2 PUSH2 0x3FA JUMP JUMPDEST DUP3 MSTORE POP POP JUMP JUMPDEST PUSH1 0x0 PUSH1 0x20 DUP3 ADD SWAP1 POP PUSH2 0x3A7 PUSH1 0x0 DUP4 ADD DUP5 PUSH2 0x374 JUMP JUMPDEST SWAP3 SWAP2 POP POP JUMP JUMPDEST PUSH1 0x0 PUSH1 0x20 DUP3 ADD SWAP1 POP PUSH2 0x3C2 PUSH1 0x0 DUP4 ADD DUP5 PUSH2 0x383 JUMP JUMPDEST SWAP3 SWAP2 POP POP JUMP JUMPDEST PUSH1 0x0 PUSH2 0x3D3 DUP3 PUSH2 0x3DA JUMP JUMPDEST SWAP1 POP SWAP2 SWAP1 POP JUMP JUMPDEST PUSH1 0x0 PUSH20 0xFFFFFFFFFFFFFFFFFFFFFFFFFFFFFFFFFFFFFFFF DUP3 AND SWAP1 POP SWAP2 SWAP1 POP JUMP JUMPDEST PUSH1 0x0 DUP2 SWAP1 POP SWAP2 SWAP1 POP JUMP JUMPDEST PUSH1 0x0 PUSH2 0x40F DUP3 PUSH2 0x3FA JUMP JUMPDEST SWAP1 POP SWAP2 SWAP1 POP JUMP JUMPDEST PUSH1 0x0 DUP1 REVERT JUMPDEST PUSH2 0x424 DUP2 PUSH2 0x3C8 JUMP JUMPDEST DUP2 EQ PUSH2 0x42F JUMPI PUSH1 0x0 DUP1 REVERT JUMPDEST POP JUMP JUMPDEST PUSH2 0x43B DUP2 PUSH2 0x3FA JUMP JUMPDEST DUP2 EQ PUSH2 0x446 JUMPI PUSH1 0x0 DUP1 REVERT JUMPDEST POP JUMP INVALID LOG2 PUSH5 0x6970667358 0x22 SLT KECCAK256 SWAP5 ADD LT BYTE 0x26 GASLIMIT SWAP14 0x27 0xFB PUSH23 0xB1F6891FA0674B8A0CB3C1A5FB356A1A37381154B9564 PUSH20 0x6F6C634300080700330000000000000000000000 "
				},
				"gasEstimates": {
					"creation": {
						"codeDepositCost": "230200",
						"executionCost": "infinite",
						"totalCost": "infinite"
					},
					"external": {
						"destroy()": "infinite",
						"get()": "2437",
						"updateInfo(uint256)": "24668"
					}
				},
				"methodIdentifiers": {
					"destroy()": "83197ef0",
					"get()": "6d4ce63c",
					"updateInfo(uint256)": "316db7f2"
				}
			},
			"storageLayout": {
				"storage": [
					{
						"astId": 15,
						"contract": "study/chapter10/extendBasic.sol:PriceFeed",
						"label": "owner",
						"offset": 0,
						"slot": "0",
						"type": "t_address_payable"
					},
					{
						"astId": 153,
						"contract": "study/chapter10/extendBasic.sol:PriceFeed",
						"label": "info",
						"offset": 0,
						"slot": "1",
						"type": "t_uint256"
					}
				],
				"types": {
					"t_address_payable": {
						"encoding": "inplace",
						"label": "address payable",
						"numberOfBytes": "20"
					},
					"t_uint256": {
						"encoding": "inplace",
						"label": "uint256",
						"numberOfBytes": "32"
					}
				}
			},
			"userdoc": {
				"kind": "user",
				"methods": {},
				"version": 1
			}
		}
	}
}