{
	"study/chapter10/interface.sol": {
		"MyERC20": {
			"abi": [
				{
					"inputs": [
						{
							"internalType": "address",
							"name": "account",
							"type": "address"
						}
					],
					"name": "balanceOf",
					"outputs": [
						{
							"internalType": "uint256",
							"name": "",
							"type": "uint256"
						}
					],
					"stateMutability": "view",
					"type": "function"
				},
				{
					"inputs": [],
					"name": "totalSupply",
					"outputs": [
						{
							"internalType": "uint256",
							"name": "",
							"type": "uint256"
						}
					],
					"stateMutability": "view",
					"type": "function"
				}
			],
			"devdoc": {
				"kind": "dev",
				"methods": {},
				"version": 1
			},
			"evm": {
				"assembly": "    /* \"study/chapter10/interface.sol\":434:666  contract MyERC20 is IERC20Plus,IERC20Other{... */\n  mstore(0x40, 0x80)\n  callvalue\n  dup1\n  iszero\n  tag_1\n  jumpi\n  0x00\n  dup1\n  revert\ntag_1:\n  pop\n  dataSize(sub_0)\n  dup1\n  dataOffset(sub_0)\n  0x00\n  codecopy\n  0x00\n  return\nstop\n\nsub_0: assembly {\n        /* \"study/chapter10/interface.sol\":434:666  contract MyERC20 is IERC20Plus,IERC20Other{... */\n      mstore(0x40, 0x80)\n      callvalue\n      dup1\n      iszero\n      tag_1\n      jumpi\n      0x00\n      dup1\n      revert\n    tag_1:\n      pop\n      jumpi(tag_2, lt(calldatasize, 0x04))\n      shr(0xe0, calldataload(0x00))\n      dup1\n      0x18160ddd\n      eq\n      tag_3\n      jumpi\n      dup1\n      0x70a08231\n      eq\n      tag_4\n      jumpi\n    tag_2:\n      0x00\n      dup1\n      revert\n        /* \"study/chapter10/interface.sol\":482:551  function totalSupply()external override view returns(uint256){... */\n    tag_3:\n      tag_5\n      tag_6\n      jump\t// in\n    tag_5:\n      mload(0x40)\n      tag_7\n      swap2\n      swap1\n      tag_8\n      jump\t// in\n    tag_7:\n      mload(0x40)\n      dup1\n      swap2\n      sub\n      swap1\n      return\n        /* \"study/chapter10/interface.sol\":556:664  function balanceOf(address account) external override(IERC20Plus,IERC20Other) view returns (uint256){... */\n    tag_4:\n      tag_9\n      0x04\n      dup1\n      calldatasize\n      sub\n      dup2\n      add\n      swap1\n      tag_10\n      swap2\n      swap1\n      tag_11\n      jump\t// in\n    tag_10:\n      tag_12\n      jump\t// in\n    tag_9:\n      mload(0x40)\n      tag_13\n      swap2\n      swap1\n      tag_8\n      jump\t// in\n    tag_13:\n      mload(0x40)\n      dup1\n      swap2\n      sub\n      swap1\n      return\n        /* \"study/chapter10/interface.sol\":482:551  function totalSupply()external override view returns(uint256){... */\n    tag_6:\n        /* \"study/chapter10/interface.sol\":535:542  uint256 */\n      0x00\n        /* \"study/chapter10/interface.sol\":482:551  function totalSupply()external override view returns(uint256){... */\n      swap1\n      jump\t// out\n        /* \"study/chapter10/interface.sol\":556:664  function balanceOf(address account) external override(IERC20Plus,IERC20Other) view returns (uint256){... */\n    tag_12:\n        /* \"study/chapter10/interface.sol\":648:655  uint256 */\n      0x00\n        /* \"study/chapter10/interface.sol\":556:664  function balanceOf(address account) external override(IERC20Plus,IERC20Other) view returns (uint256){... */\n      swap2\n      swap1\n      pop\n      jump\t// out\n        /* \"#utility.yul\":7:146   */\n    tag_17:\n      0x00\n        /* \"#utility.yul\":91:97   */\n      dup2\n        /* \"#utility.yul\":78:98   */\n      calldataload\n        /* \"#utility.yul\":69:98   */\n      swap1\n      pop\n        /* \"#utility.yul\":107:140   */\n      tag_19\n        /* \"#utility.yul\":134:139   */\n      dup2\n        /* \"#utility.yul\":107:140   */\n      tag_20\n      jump\t// in\n    tag_19:\n        /* \"#utility.yul\":59:146   */\n      swap3\n      swap2\n      pop\n      pop\n      jump\t// out\n        /* \"#utility.yul\":152:414   */\n    tag_11:\n      0x00\n        /* \"#utility.yul\":260:262   */\n      0x20\n        /* \"#utility.yul\":248:257   */\n      dup3\n        /* \"#utility.yul\":239:246   */\n      dup5\n        /* \"#utility.yul\":235:258   */\n      sub\n        /* \"#utility.yul\":231:263   */\n      slt\n        /* \"#utility.yul\":228:230   */\n      iszero\n      tag_22\n      jumpi\n        /* \"#utility.yul\":276:277   */\n      0x00\n        /* \"#utility.yul\":273:274   */\n      dup1\n        /* \"#utility.yul\":266:278   */\n      revert\n        /* \"#utility.yul\":228:230   */\n    tag_22:\n        /* \"#utility.yul\":319:320   */\n      0x00\n        /* \"#utility.yul\":344:397   */\n      tag_23\n        /* \"#utility.yul\":389:396   */\n      dup5\n        /* \"#utility.yul\":380:386   */\n      dup3\n        /* \"#utility.yul\":369:378   */\n      dup6\n        /* \"#utility.yul\":365:387   */\n      add\n        /* \"#utility.yul\":344:397   */\n      tag_17\n      jump\t// in\n    tag_23:\n        /* \"#utility.yul\":334:397   */\n      swap2\n      pop\n        /* \"#utility.yul\":290:407   */\n      pop\n        /* \"#utility.yul\":218:414   */\n      swap3\n      swap2\n      pop\n      pop\n      jump\t// out\n        /* \"#utility.yul\":420:538   */\n    tag_24:\n        /* \"#utility.yul\":507:531   */\n      tag_26\n        /* \"#utility.yul\":525:530   */\n      dup2\n        /* \"#utility.yul\":507:531   */\n      tag_27\n      jump\t// in\n    tag_26:\n        /* \"#utility.yul\":502:505   */\n      dup3\n        /* \"#utility.yul\":495:532   */\n      mstore\n        /* \"#utility.yul\":485:538   */\n      pop\n      pop\n      jump\t// out\n        /* \"#utility.yul\":544:766   */\n    tag_8:\n      0x00\n        /* \"#utility.yul\":675:677   */\n      0x20\n        /* \"#utility.yul\":664:673   */\n      dup3\n        /* \"#utility.yul\":660:678   */\n      add\n        /* \"#utility.yul\":652:678   */\n      swap1\n      pop\n        /* \"#utility.yul\":688:759   */\n      tag_29\n        /* \"#utility.yul\":756:757   */\n      0x00\n        /* \"#utility.yul\":745:754   */\n      dup4\n        /* \"#utility.yul\":741:758   */\n      add\n        /* \"#utility.yul\":732:738   */\n      dup5\n        /* \"#utility.yul\":688:759   */\n      tag_24\n      jump\t// in\n    tag_29:\n        /* \"#utility.yul\":642:766   */\n      swap3\n      swap2\n      pop\n      pop\n      jump\t// out\n        /* \"#utility.yul\":772:868   */\n    tag_30:\n      0x00\n        /* \"#utility.yul\":838:862   */\n      tag_32\n        /* \"#utility.yul\":856:861   */\n      dup3\n        /* \"#utility.yul\":838:862   */\n      tag_33\n      jump\t// in\n    tag_32:\n        /* \"#utility.yul\":827:862   */\n      swap1\n      pop\n        /* \"#utility.yul\":817:868   */\n      swap2\n      swap1\n      pop\n      jump\t// out\n        /* \"#utility.yul\":874:1000   */\n    tag_33:\n      0x00\n        /* \"#utility.yul\":951:993   */\n      0xffffffffffffffffffffffffffffffffffffffff\n        /* \"#utility.yul\":944:949   */\n      dup3\n        /* \"#utility.yul\":940:994   */\n      and\n        /* \"#utility.yul\":929:994   */\n      swap1\n      pop\n        /* \"#utility.yul\":919:1000   */\n      swap2\n      swap1\n      pop\n      jump\t// out\n        /* \"#utility.yul\":1006:1083   */\n    tag_27:\n      0x00\n        /* \"#utility.yul\":1072:1077   */\n      dup2\n        /* \"#utility.yul\":1061:1077   */\n      swap1\n      pop\n        /* \"#utility.yul\":1051:1083   */\n      swap2\n      swap1\n      pop\n      jump\t// out\n        /* \"#utility.yul\":1089:1211   */\n    tag_20:\n        /* \"#utility.yul\":1162:1186   */\n      tag_37\n        /* \"#utility.yul\":1180:1185   */\n      dup2\n        /* \"#utility.yul\":1162:1186   */\n      tag_30\n      jump\t// in\n    tag_37:\n        /* \"#utility.yul\":1155:1160   */\n      dup2\n        /* \"#utility.yul\":1152:1187   */\n      eq\n        /* \"#utility.yul\":1142:1144   */\n      tag_38\n      jumpi\n        /* \"#utility.yul\":1201:1202   */\n      0x00\n        /* \"#utility.yul\":1198:1199   */\n      dup1\n        /* \"#utility.yul\":1191:1203   */\n      revert\n        /* \"#utility.yul\":1142:1144   */\n    tag_38:\n        /* \"#utility.yul\":1132:1211   */\n      pop\n      jump\t// out\n\n    auxdata: 0xa26469706673582212200d6413280f68468500f92960e5822034b83744aee85b6b571cf4cdcb788e5fcb64736f6c63430008010033\n}\n",
				"bytecode": {
					"linkReferences": {},
					"object": "608060405234801561001057600080fd5b50610186806100206000396000f3fe608060405234801561001057600080fd5b50600436106100365760003560e01c806318160ddd1461003b57806370a0823114610059575b600080fd5b610043610089565b60405161005091906100e2565b60405180910390f35b610073600480360381019061006e91906100aa565b61008e565b60405161008091906100e2565b60405180910390f35b600090565b6000919050565b6000813590506100a481610139565b92915050565b6000602082840312156100bc57600080fd5b60006100ca84828501610095565b91505092915050565b6100dc8161012f565b82525050565b60006020820190506100f760008301846100d3565b92915050565b60006101088261010f565b9050919050565b600073ffffffffffffffffffffffffffffffffffffffff82169050919050565b6000819050919050565b610142816100fd565b811461014d57600080fd5b5056fea26469706673582212200d6413280f68468500f92960e5822034b83744aee85b6b571cf4cdcb788e5fcb64736f6c63430008010033",
					"opcodes": "PUSH1 0x80 PUSH1 0x40 MSTORE CALLVALUE DUP1 ISZERO PUSH2 0x10 JUMPI PUSH1 0x0 DUP1 REVERT JUMPDEST POP PUSH2 0x186 DUP1 PUSH2 0x20 PUSH1 0x0 CODECOPY PUSH1 0x0 RETURN INVALID PUSH1 0x80 PUSH1 0x40 MSTORE CALLVALUE DUP1 ISZERO PUSH2 0x10 JUMPI PUSH1 0x0 DUP1 REVERT JUMPDEST POP PUSH1 0x4 CALLDATASIZE LT PUSH2 0x36 JUMPI PUSH1 0x0 CALLDATALOAD PUSH1 0xE0 SHR DUP1 PUSH4 0x18160DDD EQ PUSH2 0x3B JUMPI DUP1 PUSH4 0x70A08231 EQ PUSH2 0x59 JUMPI JUMPDEST PUSH1 0x0 DUP1 REVERT JUMPDEST PUSH2 0x43 PUSH2 0x89 JUMP JUMPDEST PUSH1 0x40 MLOAD PUSH2 0x50 SWAP2 SWAP1 PUSH2 0xE2 JUMP JUMPDEST PUSH1 0x40 MLOAD DUP1 SWAP2 SUB SWAP1 RETURN JUMPDEST PUSH2 0x73 PUSH1 0x4 DUP1 CALLDATASIZE SUB DUP2 ADD SWAP1 PUSH2 0x6E SWAP2 SWAP1 PUSH2 0xAA JUMP JUMPDEST PUSH2 0x8E JUMP JUMPDEST PUSH1 0x40 MLOAD PUSH2 0x80 SWAP2 SWAP1 PUSH2 0xE2 JUMP JUMPDEST PUSH1 0x40 MLOAD DUP1 SWAP2 SUB SWAP1 RETURN JUMPDEST PUSH1 0x0 SWAP1 JUMP JUMPDEST PUSH1 0x0 SWAP2 SWAP1 POP JUMP JUMPDEST PUSH1 0x0 DUP2 CALLDATALOAD SWAP1 POP PUSH2 0xA4 DUP2 PUSH2 0x139 JUMP JUMPDEST SWAP3 SWAP2 POP POP JUMP JUMPDEST PUSH1 0x0 PUSH1 0x20 DUP3 DUP5 SUB SLT ISZERO PUSH2 0xBC JUMPI PUSH1 0x0 DUP1 REVERT JUMPDEST PUSH1 0x0 PUSH2 0xCA DUP5 DUP3 DUP6 ADD PUSH2 0x95 JUMP JUMPDEST SWAP2 POP POP SWAP3 SWAP2 POP POP JUMP JUMPDEST PUSH2 0xDC DUP2 PUSH2 0x12F JUMP JUMPDEST DUP3 MSTORE POP POP JUMP JUMPDEST PUSH1 0x0 PUSH1 0x20 DUP3 ADD SWAP1 POP PUSH2 0xF7 PUSH1 0x0 DUP4 ADD DUP5 PUSH2 0xD3 JUMP JUMPDEST SWAP3 SWAP2 POP POP JUMP JUMPDEST PUSH1 0x0 PUSH2 0x108 DUP3 PUSH2 0x10F JUMP JUMPDEST SWAP1 POP SWAP2 SWAP1 POP JUMP JUMPDEST PUSH1 0x0 PUSH20 0xFFFFFFFFFFFFFFFFFFFFFFFFFFFFFFFFFFFFFFFF DUP3 AND SWAP1 POP SWAP2 SWAP1 POP JUMP JUMPDEST PUSH1 0x0 DUP2 SWAP1 POP SWAP2 SWAP1 POP JUMP JUMPDEST PUSH2 0x142 DUP2 PUSH2 0xFD JUMP JUMPDEST DUP2 EQ PUSH2 0x14D JUMPI PUSH1 0x0 DUP1 REVERT JUMPDEST POP JUMP INVALID LOG2 PUSH5 0x6970667358 0x22 SLT KECCAK256 0xD PUSH5 0x13280F6846 DUP6 STOP 0xF9 0x29 PUSH1 0xE5 DUP3 KECCAK256 CALLVALUE 0xB8 CALLDATACOPY DIFFICULTY 0xAE 0xE8 JUMPDEST PUSH12 0x571CF4CDCB788E5FCB64736F PUSH13 0x63430008010033000000000000 "
				},
				"gasEstimates": {
					"creation": {
						"codeDepositCost": "78000",
						"executionCost": "129",
						"totalCost": "78129"
					},
					"external": {
						"balanceOf(address)": "643",
						"totalSupply()": "307"
					}
				},
				"methodIdentifiers": {
					"balanceOf(address)": "70a08231",
					"totalSupply()": "18160ddd"
				}
			},
			"storageLayout": {
				"storage": [],
				"types": null
			},
			"userdoc": {
				"kind": "user",
				"methods": {},
				"version": 1
			}
		}
	}
}