{
	"code3/2loop.sol": {
		"Loop": {
			"abi": [
				{
					"inputs": [],
					"name": "Loops",
					"outputs": [],
					"stateMutability": "nonpayable",
					"type": "function"
				}
			],
			"devdoc": {
				"kind": "dev",
				"methods": {},
				"version": 1
			},
			"evm": {
				"assembly": "    /* \"code3/2loop.sol\":53:278  contract Loop{... */\n  mstore(0x40, 0x80)\n  callvalue\n  dup1\n  iszero\n  tag_1\n  jumpi\n  0x00\n  dup1\n  revert\ntag_1:\n  pop\n  dataSize(sub_0)\n  dup1\n  dataOffset(sub_0)\n  0x00\n  codecopy\n  0x00\n  return\nstop\n\nsub_0: assembly {\n        /* \"code3/2loop.sol\":53:278  contract Loop{... */\n      mstore(0x40, 0x80)\n      callvalue\n      dup1\n      iszero\n      tag_1\n      jumpi\n      0x00\n      dup1\n      revert\n    tag_1:\n      pop\n      jumpi(tag_2, lt(calldatasize, 0x04))\n      shr(0xe0, calldataload(0x00))\n      dup1\n      0xfaee1d3a\n      eq\n      tag_3\n      jumpi\n    tag_2:\n      0x00\n      dup1\n      revert\n        /* \"code3/2loop.sol\":84:275  function Loops()external {... */\n    tag_3:\n      tag_4\n      tag_5\n      jump\t// in\n    tag_4:\n      stop\n    tag_5:\n        /* \"code3/2loop.sol\":124:130  uint i */\n      0x00\n        /* \"code3/2loop.sol\":119:269  for (uint i=0;i<5;i++){... */\n    tag_7:\n        /* \"code3/2loop.sol\":135:136  5 */\n      0x05\n        /* \"code3/2loop.sol\":133:134  i */\n      dup2\n        /* \"code3/2loop.sol\":133:136  i<5 */\n      lt\n        /* \"code3/2loop.sol\":119:269  for (uint i=0;i<5;i++){... */\n      iszero\n      tag_8\n      jumpi\n        /* \"code3/2loop.sol\":163:164  3 */\n      0x03\n        /* \"code3/2loop.sol\":158:159  i */\n      dup2\n        /* \"code3/2loop.sol\":158:164  i == 3 */\n      eq\n        /* \"code3/2loop.sol\":155:206  if(i == 3){... */\n      iszero\n      tag_10\n      jumpi\n        /* \"code3/2loop.sol\":183:191  continue */\n      jump(tag_9)\n        /* \"code3/2loop.sol\":155:206  if(i == 3){... */\n    tag_10:\n        /* \"code3/2loop.sol\":226:227  5 */\n      0x05\n        /* \"code3/2loop.sol\":223:224  i */\n      dup2\n        /* \"code3/2loop.sol\":223:227  i==5 */\n      eq\n        /* \"code3/2loop.sol\":219:245  if (i==5 )... */\n      iszero\n      tag_11\n      jumpi\n        /* \"code3/2loop.sol\":242:243  a */\n      0x00\n      dup1\n        /* \"code3/2loop.sol\":242:245  a++ */\n      dup2\n      sload\n      dup1\n      swap3\n      swap2\n      swap1\n      tag_12\n      swap1\n      tag_13\n      jump\t// in\n    tag_12:\n      swap2\n      swap1\n      pop\n      sstore\n      pop\n        /* \"code3/2loop.sol\":219:245  if (i==5 )... */\n    tag_11:\n        /* \"code3/2loop.sol\":119:269  for (uint i=0;i<5;i++){... */\n    tag_9:\n        /* \"code3/2loop.sol\":137:140  i++ */\n      dup1\n      dup1\n      tag_14\n      swap1\n      tag_13\n      jump\t// in\n    tag_14:\n      swap2\n      pop\n      pop\n        /* \"code3/2loop.sol\":119:269  for (uint i=0;i<5;i++){... */\n      jump(tag_7)\n    tag_8:\n      pop\n        /* \"code3/2loop.sol\":84:275  function Loops()external {... */\n      jump\t// out\n        /* \"#utility.yul\":7:84   */\n    tag_16:\n        /* \"#utility.yul\":44:51   */\n      0x00\n        /* \"#utility.yul\":73:78   */\n      dup2\n        /* \"#utility.yul\":62:78   */\n      swap1\n      pop\n        /* \"#utility.yul\":7:84   */\n      swap2\n      swap1\n      pop\n      jump\t// out\n        /* \"#utility.yul\":90:323   */\n    tag_13:\n        /* \"#utility.yul\":129:132   */\n      0x00\n        /* \"#utility.yul\":152:176   */\n      tag_19\n        /* \"#utility.yul\":170:175   */\n      dup3\n        /* \"#utility.yul\":152:176   */\n      tag_16\n      jump\t// in\n    tag_19:\n        /* \"#utility.yul\":143:176   */\n      swap2\n      pop\n        /* \"#utility.yul\":198:264   */\n      0xffffffffffffffffffffffffffffffffffffffffffffffffffffffffffffffff\n        /* \"#utility.yul\":191:196   */\n      dup3\n        /* \"#utility.yul\":188:265   */\n      eq\n        /* \"#utility.yul\":185:288   */\n      iszero\n      tag_20\n      jumpi\n        /* \"#utility.yul\":268:286   */\n      tag_21\n      tag_22\n      jump\t// in\n    tag_21:\n        /* \"#utility.yul\":185:288   */\n    tag_20:\n        /* \"#utility.yul\":315:316   */\n      0x01\n        /* \"#utility.yul\":308:313   */\n      dup3\n        /* \"#utility.yul\":304:317   */\n      add\n        /* \"#utility.yul\":297:317   */\n      swap1\n      pop\n        /* \"#utility.yul\":90:323   */\n      swap2\n      swap1\n      pop\n      jump\t// out\n        /* \"#utility.yul\":329:509   */\n    tag_22:\n        /* \"#utility.yul\":377:454   */\n      0x4e487b7100000000000000000000000000000000000000000000000000000000\n        /* \"#utility.yul\":374:375   */\n      0x00\n        /* \"#utility.yul\":367:455   */\n      mstore\n        /* \"#utility.yul\":474:478   */\n      0x11\n        /* \"#utility.yul\":471:472   */\n      0x04\n        /* \"#utility.yul\":464:479   */\n      mstore\n        /* \"#utility.yul\":498:502   */\n      0x24\n        /* \"#utility.yul\":495:496   */\n      0x00\n        /* \"#utility.yul\":488:503   */\n      revert\n\n    auxdata: 0xa264697066735822122094dda723e8dd7b82751310067b15afe14cad857c5d75fa8d9a059009ce8f6e6f64736f6c63430008070033\n}\n",
				"bytecode": {
					"linkReferences": {},
					"object": "608060405234801561001057600080fd5b50610131806100206000396000f3fe6080604052348015600f57600080fd5b506004361060285760003560e01c8063faee1d3a14602d575b600080fd5b60336035565b005b60005b6005811015607b576003811415604c57606b565b6005811415606a576000808154809291906064906088565b91905055505b5b80806074906088565b9150506038565b50565b6000819050919050565b6000609182607e565b91507fffffffffffffffffffffffffffffffffffffffffffffffffffffffffffffffff82141560c15760c060cc565b5b600182019050919050565b7f4e487b7100000000000000000000000000000000000000000000000000000000600052601160045260246000fdfea264697066735822122094dda723e8dd7b82751310067b15afe14cad857c5d75fa8d9a059009ce8f6e6f64736f6c63430008070033",
					"opcodes": "PUSH1 0x80 PUSH1 0x40 MSTORE CALLVALUE DUP1 ISZERO PUSH2 0x10 JUMPI PUSH1 0x0 DUP1 REVERT JUMPDEST POP PUSH2 0x131 DUP1 PUSH2 0x20 PUSH1 0x0 CODECOPY PUSH1 0x0 RETURN INVALID PUSH1 0x80 PUSH1 0x40 MSTORE CALLVALUE DUP1 ISZERO PUSH1 0xF JUMPI PUSH1 0x0 DUP1 REVERT JUMPDEST POP PUSH1 0x4 CALLDATASIZE LT PUSH1 0x28 JUMPI PUSH1 0x0 CALLDATALOAD PUSH1 0xE0 SHR DUP1 PUSH4 0xFAEE1D3A EQ PUSH1 0x2D JUMPI JUMPDEST PUSH1 0x0 DUP1 REVERT JUMPDEST PUSH1 0x33 PUSH1 0x35 JUMP JUMPDEST STOP JUMPDEST PUSH1 0x0 JUMPDEST PUSH1 0x5 DUP2 LT ISZERO PUSH1 0x7B JUMPI PUSH1 0x3 DUP2 EQ ISZERO PUSH1 0x4C JUMPI PUSH1 0x6B JUMP JUMPDEST PUSH1 0x5 DUP2 EQ ISZERO PUSH1 0x6A JUMPI PUSH1 0x0 DUP1 DUP2 SLOAD DUP1 SWAP3 SWAP2 SWAP1 PUSH1 0x64 SWAP1 PUSH1 0x88 JUMP JUMPDEST SWAP2 SWAP1 POP SSTORE POP JUMPDEST JUMPDEST DUP1 DUP1 PUSH1 0x74 SWAP1 PUSH1 0x88 JUMP JUMPDEST SWAP2 POP POP PUSH1 0x38 JUMP JUMPDEST POP JUMP JUMPDEST PUSH1 0x0 DUP2 SWAP1 POP SWAP2 SWAP1 POP JUMP JUMPDEST PUSH1 0x0 PUSH1 0x91 DUP3 PUSH1 0x7E JUMP JUMPDEST SWAP2 POP PUSH32 0xFFFFFFFFFFFFFFFFFFFFFFFFFFFFFFFFFFFFFFFFFFFFFFFFFFFFFFFFFFFFFFFF DUP3 EQ ISZERO PUSH1 0xC1 JUMPI PUSH1 0xC0 PUSH1 0xCC JUMP JUMPDEST JUMPDEST PUSH1 0x1 DUP3 ADD SWAP1 POP SWAP2 SWAP1 POP JUMP JUMPDEST PUSH32 0x4E487B7100000000000000000000000000000000000000000000000000000000 PUSH1 0x0 MSTORE PUSH1 0x11 PUSH1 0x4 MSTORE PUSH1 0x24 PUSH1 0x0 REVERT INVALID LOG2 PUSH5 0x6970667358 0x22 SLT KECCAK256 SWAP5 0xDD 0xA7 0x23 0xE8 0xDD PUSH28 0x82751310067B15AFE14CAD857C5D75FA8D9A059009CE8F6E6F64736F PUSH13 0x63430008070033000000000000 "
				},
				"gasEstimates": {
					"creation": {
						"codeDepositCost": "61000",
						"executionCost": "111",
						"totalCost": "61111"
					},
					"external": {
						"Loops()": "infinite"
					}
				},
				"methodIdentifiers": {
					"Loops()": "faee1d3a"
				}
			},
			"storageLayout": {
				"storage": [
					{
						"astId": 3,
						"contract": "code3/2loop.sol:Loop",
						"label": "a",
						"offset": 0,
						"slot": "0",
						"type": "t_uint256"
					}
				],
				"types": {
					"t_uint256": {
						"encoding": "inplace",
						"label": "uint256",
						"numberOfBytes": "32"
					}
				}
			},
			"userdoc": {
				"kind": "user",
				"methods": {},
				"version": 1
			}
		}
	}
}