{
	"code3/2loop.sol": {
		"Loop": {
			"abi": [
				{
					"inputs": [],
					"name": "Loops",
					"outputs": [],
					"stateMutability": "nonpayable",
					"type": "function"
				},
				{
					"inputs": [],
					"name": "sum",
					"outputs": [
						{
							"internalType": "uint256",
							"name": "",
							"type": "uint256"
						}
					],
					"stateMutability": "pure",
					"type": "function"
				}
			],
			"devdoc": {
				"kind": "dev",
				"methods": {},
				"version": 1
			},
			"evm": {
				"assembly": "    /* \"code3/2loop.sol\":53:460  contract Loop{... */\n  mstore(0x40, 0x80)\n  callvalue\n  dup1\n  iszero\n  tag_1\n  jumpi\n  0x00\n  dup1\n  revert\ntag_1:\n  pop\n  dataSize(sub_0)\n  dup1\n  dataOffset(sub_0)\n  0x00\n  codecopy\n  0x00\n  return\nstop\n\nsub_0: assembly {\n        /* \"code3/2loop.sol\":53:460  contract Loop{... */\n      mstore(0x40, 0x80)\n      callvalue\n      dup1\n      iszero\n      tag_1\n      jumpi\n      0x00\n      dup1\n      revert\n    tag_1:\n      pop\n      jumpi(tag_2, lt(calldatasize, 0x04))\n      shr(0xe0, calldataload(0x00))\n      dup1\n      0x853255cc\n      eq\n      tag_3\n      jumpi\n      dup1\n      0xfaee1d3a\n      eq\n      tag_4\n      jumpi\n    tag_2:\n      0x00\n      dup1\n      revert\n        /* \"code3/2loop.sol\":369:457  function sum()external pure returns(uint){... */\n    tag_3:\n      tag_5\n      tag_6\n      jump\t// in\n    tag_5:\n      mload(0x40)\n      tag_7\n      swap2\n      swap1\n      tag_8\n      jump\t// in\n    tag_7:\n      mload(0x40)\n      dup1\n      swap2\n      sub\n      swap1\n      return\n        /* \"code3/2loop.sol\":84:363  function Loops()external {... */\n    tag_4:\n      tag_9\n      tag_10\n      jump\t// in\n    tag_9:\n      stop\n        /* \"code3/2loop.sol\":369:457  function sum()external pure returns(uint){... */\n    tag_6:\n        /* \"code3/2loop.sol\":405:409  uint */\n      0x00\n        /* \"code3/2loop.sol\":420:428  uint sum */\n      dup1\n        /* \"code3/2loop.sol\":431:432  0 */\n      0x00\n        /* \"code3/2loop.sol\":420:432  uint sum = 0 */\n      swap1\n      pop\n        /* \"code3/2loop.sol\":410:457  {... */\n      pop\n        /* \"code3/2loop.sol\":369:457  function sum()external pure returns(uint){... */\n      swap1\n      jump\t// out\n        /* \"code3/2loop.sol\":84:363  function Loops()external {... */\n    tag_10:\n        /* \"code3/2loop.sol\":119:125  uint i */\n      0x00\n        /* \"code3/2loop.sol\":137:310  for (i=0;i<5;i++){... */\n    tag_13:\n        /* \"code3/2loop.sol\":148:149  5 */\n      0x05\n        /* \"code3/2loop.sol\":146:147  i */\n      dup2\n        /* \"code3/2loop.sol\":146:149  i<5 */\n      lt\n        /* \"code3/2loop.sol\":137:310  for (i=0;i<5;i++){... */\n      iszero\n      tag_14\n      jumpi\n        /* \"code3/2loop.sol\":176:177  3 */\n      0x03\n        /* \"code3/2loop.sol\":171:172  i */\n      dup2\n        /* \"code3/2loop.sol\":171:177  i == 3 */\n      eq\n        /* \"code3/2loop.sol\":168:219  if(i == 3){... */\n      iszero\n      tag_16\n      jumpi\n        /* \"code3/2loop.sol\":196:204  continue */\n      jump(tag_15)\n        /* \"code3/2loop.sol\":168:219  if(i == 3){... */\n    tag_16:\n        /* \"code3/2loop.sol\":239:240  5 */\n      0x05\n        /* \"code3/2loop.sol\":236:237  i */\n      dup2\n        /* \"code3/2loop.sol\":236:240  i==5 */\n      eq\n        /* \"code3/2loop.sol\":232:280  if (i==5 ){... */\n      iszero\n      tag_17\n      jumpi\n        /* \"code3/2loop.sol\":260:265  break */\n      jump(tag_14)\n        /* \"code3/2loop.sol\":232:280  if (i==5 ){... */\n    tag_17:\n        /* \"code3/2loop.sol\":293:294  a */\n      0x00\n      dup1\n        /* \"code3/2loop.sol\":293:296  a++ */\n      dup2\n      sload\n      dup1\n      swap3\n      swap2\n      swap1\n      tag_18\n      swap1\n      tag_19\n      jump\t// in\n    tag_18:\n      swap2\n      swap1\n      pop\n      sstore\n      pop\n        /* \"code3/2loop.sol\":137:310  for (i=0;i<5;i++){... */\n    tag_15:\n        /* \"code3/2loop.sol\":150:153  i++ */\n      dup1\n      dup1\n      tag_20\n      swap1\n      tag_19\n      jump\t// in\n    tag_20:\n      swap2\n      pop\n      pop\n        /* \"code3/2loop.sol\":137:310  for (i=0;i<5;i++){... */\n      jump(tag_13)\n    tag_14:\n        /* \"code3/2loop.sol\":319:357  while(i<6){... */\n    tag_21:\n        /* \"code3/2loop.sol\":327:328  6 */\n      0x06\n        /* \"code3/2loop.sol\":325:326  i */\n      dup2\n        /* \"code3/2loop.sol\":325:328  i<6 */\n      lt\n        /* \"code3/2loop.sol\":319:357  while(i<6){... */\n      iszero\n      tag_22\n      jumpi\n        /* \"code3/2loop.sol\":343:344  a */\n      0x00\n      dup1\n        /* \"code3/2loop.sol\":343:346  a++ */\n      dup2\n      sload\n      dup1\n      swap3\n      swap2\n      swap1\n      tag_23\n      swap1\n      tag_19\n      jump\t// in\n    tag_23:\n      swap2\n      swap1\n      pop\n      sstore\n      pop\n        /* \"code3/2loop.sol\":319:357  while(i<6){... */\n      jump(tag_21)\n    tag_22:\n        /* \"code3/2loop.sol\":109:363  {... */\n      pop\n        /* \"code3/2loop.sol\":84:363  function Loops()external {... */\n      jump\t// out\n        /* \"#utility.yul\":7:125   */\n    tag_25:\n        /* \"#utility.yul\":94:118   */\n      tag_27\n        /* \"#utility.yul\":112:117   */\n      dup2\n        /* \"#utility.yul\":94:118   */\n      tag_28\n      jump\t// in\n    tag_27:\n        /* \"#utility.yul\":89:92   */\n      dup3\n        /* \"#utility.yul\":82:119   */\n      mstore\n        /* \"#utility.yul\":7:125   */\n      pop\n      pop\n      jump\t// out\n        /* \"#utility.yul\":131:353   */\n    tag_8:\n        /* \"#utility.yul\":224:228   */\n      0x00\n        /* \"#utility.yul\":262:264   */\n      0x20\n        /* \"#utility.yul\":251:260   */\n      dup3\n        /* \"#utility.yul\":247:265   */\n      add\n        /* \"#utility.yul\":239:265   */\n      swap1\n      pop\n        /* \"#utility.yul\":275:346   */\n      tag_30\n        /* \"#utility.yul\":343:344   */\n      0x00\n        /* \"#utility.yul\":332:341   */\n      dup4\n        /* \"#utility.yul\":328:345   */\n      add\n        /* \"#utility.yul\":319:325   */\n      dup5\n        /* \"#utility.yul\":275:346   */\n      tag_25\n      jump\t// in\n    tag_30:\n        /* \"#utility.yul\":131:353   */\n      swap3\n      swap2\n      pop\n      pop\n      jump\t// out\n        /* \"#utility.yul\":359:436   */\n    tag_28:\n        /* \"#utility.yul\":396:403   */\n      0x00\n        /* \"#utility.yul\":425:430   */\n      dup2\n        /* \"#utility.yul\":414:430   */\n      swap1\n      pop\n        /* \"#utility.yul\":359:436   */\n      swap2\n      swap1\n      pop\n      jump\t// out\n        /* \"#utility.yul\":442:675   */\n    tag_19:\n        /* \"#utility.yul\":481:484   */\n      0x00\n        /* \"#utility.yul\":504:528   */\n      tag_33\n        /* \"#utility.yul\":522:527   */\n      dup3\n        /* \"#utility.yul\":504:528   */\n      tag_28\n      jump\t// in\n    tag_33:\n        /* \"#utility.yul\":495:528   */\n      swap2\n      pop\n        /* \"#utility.yul\":550:616   */\n      0xffffffffffffffffffffffffffffffffffffffffffffffffffffffffffffffff\n        /* \"#utility.yul\":543:548   */\n      dup3\n        /* \"#utility.yul\":540:617   */\n      eq\n        /* \"#utility.yul\":537:640   */\n      iszero\n      tag_34\n      jumpi\n        /* \"#utility.yul\":620:638   */\n      tag_35\n      tag_36\n      jump\t// in\n    tag_35:\n        /* \"#utility.yul\":537:640   */\n    tag_34:\n        /* \"#utility.yul\":667:668   */\n      0x01\n        /* \"#utility.yul\":660:665   */\n      dup3\n        /* \"#utility.yul\":656:669   */\n      add\n        /* \"#utility.yul\":649:669   */\n      swap1\n      pop\n        /* \"#utility.yul\":442:675   */\n      swap2\n      swap1\n      pop\n      jump\t// out\n        /* \"#utility.yul\":681:861   */\n    tag_36:\n        /* \"#utility.yul\":729:806   */\n      0x4e487b7100000000000000000000000000000000000000000000000000000000\n        /* \"#utility.yul\":726:727   */\n      0x00\n        /* \"#utility.yul\":719:807   */\n      mstore\n        /* \"#utility.yul\":826:830   */\n      0x11\n        /* \"#utility.yul\":823:824   */\n      0x04\n        /* \"#utility.yul\":816:831   */\n      mstore\n        /* \"#utility.yul\":850:854   */\n      0x24\n        /* \"#utility.yul\":847:848   */\n      0x00\n        /* \"#utility.yul\":840:855   */\n      revert\n\n    auxdata: 0xa2646970667358221220a9790fecf6ebecccbaaac1254b166a7802d04a634ec09a31005b1a00a9d612e264736f6c63430008070033\n}\n",
				"bytecode": {
					"linkReferences": {},
					"object": "608060405234801561001057600080fd5b506101cc806100206000396000f3fe608060405234801561001057600080fd5b50600436106100365760003560e01c8063853255cc1461003b578063faee1d3a14610059575b600080fd5b610043610063565b60405161005091906100f9565b60405180910390f35b61006161006e565b005b600080600090505090565b60005b60058110156100c1576003811415610088576100ae565b6005811415610096576100c1565b6000808154809291906100a89061011e565b91905055505b80806100b99061011e565b915050610071565b5b60068110156100e7576000808154809291906100dd9061011e565b91905055506100c2565b50565b6100f381610114565b82525050565b600060208201905061010e60008301846100ea565b92915050565b6000819050919050565b600061012982610114565b91507fffffffffffffffffffffffffffffffffffffffffffffffffffffffffffffffff82141561015c5761015b610167565b5b600182019050919050565b7f4e487b7100000000000000000000000000000000000000000000000000000000600052601160045260246000fdfea2646970667358221220a9790fecf6ebecccbaaac1254b166a7802d04a634ec09a31005b1a00a9d612e264736f6c63430008070033",
					"opcodes": "PUSH1 0x80 PUSH1 0x40 MSTORE CALLVALUE DUP1 ISZERO PUSH2 0x10 JUMPI PUSH1 0x0 DUP1 REVERT JUMPDEST POP PUSH2 0x1CC DUP1 PUSH2 0x20 PUSH1 0x0 CODECOPY PUSH1 0x0 RETURN INVALID PUSH1 0x80 PUSH1 0x40 MSTORE CALLVALUE DUP1 ISZERO PUSH2 0x10 JUMPI PUSH1 0x0 DUP1 REVERT JUMPDEST POP PUSH1 0x4 CALLDATASIZE LT PUSH2 0x36 JUMPI PUSH1 0x0 CALLDATALOAD PUSH1 0xE0 SHR DUP1 PUSH4 0x853255CC EQ PUSH2 0x3B JUMPI DUP1 PUSH4 0xFAEE1D3A EQ PUSH2 0x59 JUMPI JUMPDEST PUSH1 0x0 DUP1 REVERT JUMPDEST PUSH2 0x43 PUSH2 0x63 JUMP JUMPDEST PUSH1 0x40 MLOAD PUSH2 0x50 SWAP2 SWAP1 PUSH2 0xF9 JUMP JUMPDEST PUSH1 0x40 MLOAD DUP1 SWAP2 SUB SWAP1 RETURN JUMPDEST PUSH2 0x61 PUSH2 0x6E JUMP JUMPDEST STOP JUMPDEST PUSH1 0x0 DUP1 PUSH1 0x0 SWAP1 POP POP SWAP1 JUMP JUMPDEST PUSH1 0x0 JUMPDEST PUSH1 0x5 DUP2 LT ISZERO PUSH2 0xC1 JUMPI PUSH1 0x3 DUP2 EQ ISZERO PUSH2 0x88 JUMPI PUSH2 0xAE JUMP JUMPDEST PUSH1 0x5 DUP2 EQ ISZERO PUSH2 0x96 JUMPI PUSH2 0xC1 JUMP JUMPDEST PUSH1 0x0 DUP1 DUP2 SLOAD DUP1 SWAP3 SWAP2 SWAP1 PUSH2 0xA8 SWAP1 PUSH2 0x11E JUMP JUMPDEST SWAP2 SWAP1 POP SSTORE POP JUMPDEST DUP1 DUP1 PUSH2 0xB9 SWAP1 PUSH2 0x11E JUMP JUMPDEST SWAP2 POP POP PUSH2 0x71 JUMP JUMPDEST JUMPDEST PUSH1 0x6 DUP2 LT ISZERO PUSH2 0xE7 JUMPI PUSH1 0x0 DUP1 DUP2 SLOAD DUP1 SWAP3 SWAP2 SWAP1 PUSH2 0xDD SWAP1 PUSH2 0x11E JUMP JUMPDEST SWAP2 SWAP1 POP SSTORE POP PUSH2 0xC2 JUMP JUMPDEST POP JUMP JUMPDEST PUSH2 0xF3 DUP2 PUSH2 0x114 JUMP JUMPDEST DUP3 MSTORE POP POP JUMP JUMPDEST PUSH1 0x0 PUSH1 0x20 DUP3 ADD SWAP1 POP PUSH2 0x10E PUSH1 0x0 DUP4 ADD DUP5 PUSH2 0xEA JUMP JUMPDEST SWAP3 SWAP2 POP POP JUMP JUMPDEST PUSH1 0x0 DUP2 SWAP1 POP SWAP2 SWAP1 POP JUMP JUMPDEST PUSH1 0x0 PUSH2 0x129 DUP3 PUSH2 0x114 JUMP JUMPDEST SWAP2 POP PUSH32 0xFFFFFFFFFFFFFFFFFFFFFFFFFFFFFFFFFFFFFFFFFFFFFFFFFFFFFFFFFFFFFFFF DUP3 EQ ISZERO PUSH2 0x15C JUMPI PUSH2 0x15B PUSH2 0x167 JUMP JUMPDEST JUMPDEST PUSH1 0x1 DUP3 ADD SWAP1 POP SWAP2 SWAP1 POP JUMP JUMPDEST PUSH32 0x4E487B7100000000000000000000000000000000000000000000000000000000 PUSH1 0x0 MSTORE PUSH1 0x11 PUSH1 0x4 MSTORE PUSH1 0x24 PUSH1 0x0 REVERT INVALID LOG2 PUSH5 0x6970667358 0x22 SLT KECCAK256 0xA9 PUSH26 0xFECF6EBECCCBAAAC1254B166A7802D04A634EC09A31005B1A00 0xA9 0xD6 SLT 0xE2 PUSH5 0x736F6C6343 STOP ADDMOD SMOD STOP CALLER "
				},
				"gasEstimates": {
					"creation": {
						"codeDepositCost": "92000",
						"executionCost": "141",
						"totalCost": "92141"
					},
					"external": {
						"Loops()": "infinite",
						"sum()": "320"
					}
				},
				"methodIdentifiers": {
					"Loops()": "faee1d3a",
					"sum()": "853255cc"
				}
			},
			"storageLayout": {
				"storage": [
					{
						"astId": 3,
						"contract": "code3/2loop.sol:Loop",
						"label": "a",
						"offset": 0,
						"slot": "0",
						"type": "t_uint256"
					}
				],
				"types": {
					"t_uint256": {
						"encoding": "inplace",
						"label": "uint256",
						"numberOfBytes": "32"
					}
				}
			},
			"userdoc": {
				"kind": "user",
				"methods": {},
				"version": 1
			}
		}
	}
}