{
	"code3/2loop.sol": {
		"Loop": {
			"abi": [
				{
					"inputs": [],
					"name": "Loops",
					"outputs": [],
					"stateMutability": "nonpayable",
					"type": "function"
				},
				{
					"inputs": [],
					"name": "a",
					"outputs": [
						{
							"internalType": "uint256",
							"name": "",
							"type": "uint256"
						}
					],
					"stateMutability": "view",
					"type": "function"
				},
				{
					"inputs": [
						{
							"internalType": "uint256",
							"name": "n",
							"type": "uint256"
						}
					],
					"name": "sum",
					"outputs": [
						{
							"internalType": "uint256",
							"name": "",
							"type": "uint256"
						}
					],
					"stateMutability": "pure",
					"type": "function"
				}
			],
			"devdoc": {
				"kind": "dev",
				"methods": {},
				"version": 1
			},
			"evm": {
				"assembly": "    /* \"code3/2loop.sol\":53:565  contract Loop{... */\n  mstore(0x40, 0x80)\n  callvalue\n  dup1\n  iszero\n  tag_1\n  jumpi\n  0x00\n  dup1\n  revert\ntag_1:\n  pop\n  dataSize(sub_0)\n  dup1\n  dataOffset(sub_0)\n  0x00\n  codecopy\n  0x00\n  return\nstop\n\nsub_0: assembly {\n        /* \"code3/2loop.sol\":53:565  contract Loop{... */\n      mstore(0x40, 0x80)\n      callvalue\n      dup1\n      iszero\n      tag_1\n      jumpi\n      0x00\n      dup1\n      revert\n    tag_1:\n      pop\n      jumpi(tag_2, lt(calldatasize, 0x04))\n      shr(0xe0, calldataload(0x00))\n      dup1\n      0x0dbe671f\n      eq\n      tag_3\n      jumpi\n      dup1\n      0x188b85b4\n      eq\n      tag_4\n      jumpi\n      dup1\n      0xfaee1d3a\n      eq\n      tag_5\n      jumpi\n    tag_2:\n      0x00\n      dup1\n      revert\n        /* \"code3/2loop.sol\":72:85  uint public a */\n    tag_3:\n      tag_6\n      tag_7\n      jump\t// in\n    tag_6:\n      mload(0x40)\n      tag_8\n      swap2\n      swap1\n      tag_9\n      jump\t// in\n    tag_8:\n      mload(0x40)\n      dup1\n      swap2\n      sub\n      swap1\n      return\n        /* \"code3/2loop.sol\":396:562  function sum(uint n)external pure returns(uint){... */\n    tag_4:\n      tag_10\n      0x04\n      dup1\n      calldatasize\n      sub\n      dup2\n      add\n      swap1\n      tag_11\n      swap2\n      swap1\n      tag_12\n      jump\t// in\n    tag_11:\n      tag_13\n      jump\t// in\n    tag_10:\n      mload(0x40)\n      tag_14\n      swap2\n      swap1\n      tag_9\n      jump\t// in\n    tag_14:\n      mload(0x40)\n      dup1\n      swap2\n      sub\n      swap1\n      return\n        /* \"code3/2loop.sol\":91:390  function Loops()external {... */\n    tag_5:\n      tag_15\n      tag_16\n      jump\t// in\n    tag_15:\n      stop\n        /* \"code3/2loop.sol\":72:85  uint public a */\n    tag_7:\n      sload(0x00)\n      dup2\n      jump\t// out\n        /* \"code3/2loop.sol\":396:562  function sum(uint n)external pure returns(uint){... */\n    tag_13:\n        /* \"code3/2loop.sol\":438:442  uint */\n      0x00\n        /* \"code3/2loop.sol\":453:462  uint _sum */\n      dup1\n        /* \"code3/2loop.sol\":476:482  uint i */\n      0x00\n        /* \"code3/2loop.sol\":472:526  for(uint i=0;i<=n;i++){... */\n    tag_18:\n        /* \"code3/2loop.sol\":488:489  n */\n      dup4\n        /* \"code3/2loop.sol\":485:486  i */\n      dup2\n        /* \"code3/2loop.sol\":485:489  i<=n */\n      gt\n        /* \"code3/2loop.sol\":472:526  for(uint i=0;i<=n;i++){... */\n      tag_19\n      jumpi\n        /* \"code3/2loop.sol\":514:515  i */\n      dup1\n        /* \"code3/2loop.sol\":508:515  _sum+=i */\n      dup3\n      tag_21\n      swap2\n      swap1\n      tag_22\n      jump\t// in\n    tag_21:\n      swap2\n      pop\n        /* \"code3/2loop.sol\":490:493  i++ */\n      dup1\n      dup1\n      tag_23\n      swap1\n      tag_24\n      jump\t// in\n    tag_23:\n      swap2\n      pop\n      pop\n        /* \"code3/2loop.sol\":472:526  for(uint i=0;i<=n;i++){... */\n      jump(tag_18)\n    tag_19:\n      pop\n        /* \"code3/2loop.sol\":542:546  _sum */\n      dup1\n        /* \"code3/2loop.sol\":535:546  return _sum */\n      swap2\n      pop\n      pop\n        /* \"code3/2loop.sol\":396:562  function sum(uint n)external pure returns(uint){... */\n      swap2\n      swap1\n      pop\n      jump\t// out\n        /* \"code3/2loop.sol\":91:390  function Loops()external {... */\n    tag_16:\n        /* \"code3/2loop.sol\":126:132  uint i */\n      0x00\n        /* \"code3/2loop.sol\":144:317  for (i=0;i<5;i++){... */\n    tag_26:\n        /* \"code3/2loop.sol\":155:156  5 */\n      0x05\n        /* \"code3/2loop.sol\":153:154  i */\n      dup2\n        /* \"code3/2loop.sol\":153:156  i<5 */\n      lt\n        /* \"code3/2loop.sol\":144:317  for (i=0;i<5;i++){... */\n      iszero\n      tag_27\n      jumpi\n        /* \"code3/2loop.sol\":183:184  3 */\n      0x03\n        /* \"code3/2loop.sol\":178:179  i */\n      dup2\n        /* \"code3/2loop.sol\":178:184  i == 3 */\n      eq\n        /* \"code3/2loop.sol\":175:226  if(i == 3){... */\n      iszero\n      tag_29\n      jumpi\n        /* \"code3/2loop.sol\":203:211  continue */\n      jump(tag_28)\n        /* \"code3/2loop.sol\":175:226  if(i == 3){... */\n    tag_29:\n        /* \"code3/2loop.sol\":246:247  5 */\n      0x05\n        /* \"code3/2loop.sol\":243:244  i */\n      dup2\n        /* \"code3/2loop.sol\":243:247  i==5 */\n      eq\n        /* \"code3/2loop.sol\":239:287  if (i==5 ){... */\n      iszero\n      tag_30\n      jumpi\n        /* \"code3/2loop.sol\":267:272  break */\n      jump(tag_27)\n        /* \"code3/2loop.sol\":239:287  if (i==5 ){... */\n    tag_30:\n        /* \"code3/2loop.sol\":300:301  a */\n      0x00\n      dup1\n        /* \"code3/2loop.sol\":300:303  a++ */\n      dup2\n      sload\n      dup1\n      swap3\n      swap2\n      swap1\n      tag_31\n      swap1\n      tag_24\n      jump\t// in\n    tag_31:\n      swap2\n      swap1\n      pop\n      sstore\n      pop\n        /* \"code3/2loop.sol\":144:317  for (i=0;i<5;i++){... */\n    tag_28:\n        /* \"code3/2loop.sol\":157:160  i++ */\n      dup1\n      dup1\n      tag_32\n      swap1\n      tag_24\n      jump\t// in\n    tag_32:\n      swap2\n      pop\n      pop\n        /* \"code3/2loop.sol\":144:317  for (i=0;i<5;i++){... */\n      jump(tag_26)\n    tag_27:\n        /* \"code3/2loop.sol\":326:384  while(i<=6){... */\n    tag_33:\n        /* \"code3/2loop.sol\":335:336  6 */\n      0x06\n        /* \"code3/2loop.sol\":332:333  i */\n      dup2\n        /* \"code3/2loop.sol\":332:336  i<=6 */\n      gt\n        /* \"code3/2loop.sol\":326:384  while(i<=6){... */\n      tag_34\n      jumpi\n        /* \"code3/2loop.sol\":351:354  i++ */\n      dup1\n      dup1\n      tag_35\n      swap1\n      tag_24\n      jump\t// in\n    tag_35:\n      swap2\n      pop\n      pop\n        /* \"code3/2loop.sol\":368:369  a */\n      0x00\n      dup1\n        /* \"code3/2loop.sol\":368:371  a++ */\n      dup2\n      sload\n      dup1\n      swap3\n      swap2\n      swap1\n      tag_36\n      swap1\n      tag_24\n      jump\t// in\n    tag_36:\n      swap2\n      swap1\n      pop\n      sstore\n      pop\n        /* \"code3/2loop.sol\":326:384  while(i<=6){... */\n      jump(tag_33)\n    tag_34:\n        /* \"code3/2loop.sol\":116:390  {... */\n      pop\n        /* \"code3/2loop.sol\":91:390  function Loops()external {... */\n      jump\t// out\n        /* \"#utility.yul\":7:146   */\n    tag_38:\n        /* \"#utility.yul\":53:58   */\n      0x00\n        /* \"#utility.yul\":91:97   */\n      dup2\n        /* \"#utility.yul\":78:98   */\n      calldataload\n        /* \"#utility.yul\":69:98   */\n      swap1\n      pop\n        /* \"#utility.yul\":107:140   */\n      tag_40\n        /* \"#utility.yul\":134:139   */\n      dup2\n        /* \"#utility.yul\":107:140   */\n      tag_41\n      jump\t// in\n    tag_40:\n        /* \"#utility.yul\":7:146   */\n      swap3\n      swap2\n      pop\n      pop\n      jump\t// out\n        /* \"#utility.yul\":152:481   */\n    tag_12:\n        /* \"#utility.yul\":211:217   */\n      0x00\n        /* \"#utility.yul\":260:262   */\n      0x20\n        /* \"#utility.yul\":248:257   */\n      dup3\n        /* \"#utility.yul\":239:246   */\n      dup5\n        /* \"#utility.yul\":235:258   */\n      sub\n        /* \"#utility.yul\":231:263   */\n      slt\n        /* \"#utility.yul\":228:347   */\n      iszero\n      tag_43\n      jumpi\n        /* \"#utility.yul\":266:345   */\n      tag_44\n      tag_45\n      jump\t// in\n    tag_44:\n        /* \"#utility.yul\":228:347   */\n    tag_43:\n        /* \"#utility.yul\":386:387   */\n      0x00\n        /* \"#utility.yul\":411:464   */\n      tag_46\n        /* \"#utility.yul\":456:463   */\n      dup5\n        /* \"#utility.yul\":447:453   */\n      dup3\n        /* \"#utility.yul\":436:445   */\n      dup6\n        /* \"#utility.yul\":432:454   */\n      add\n        /* \"#utility.yul\":411:464   */\n      tag_38\n      jump\t// in\n    tag_46:\n        /* \"#utility.yul\":401:464   */\n      swap2\n      pop\n        /* \"#utility.yul\":357:474   */\n      pop\n        /* \"#utility.yul\":152:481   */\n      swap3\n      swap2\n      pop\n      pop\n      jump\t// out\n        /* \"#utility.yul\":487:605   */\n    tag_47:\n        /* \"#utility.yul\":574:598   */\n      tag_49\n        /* \"#utility.yul\":592:597   */\n      dup2\n        /* \"#utility.yul\":574:598   */\n      tag_50\n      jump\t// in\n    tag_49:\n        /* \"#utility.yul\":569:572   */\n      dup3\n        /* \"#utility.yul\":562:599   */\n      mstore\n        /* \"#utility.yul\":487:605   */\n      pop\n      pop\n      jump\t// out\n        /* \"#utility.yul\":611:833   */\n    tag_9:\n        /* \"#utility.yul\":704:708   */\n      0x00\n        /* \"#utility.yul\":742:744   */\n      0x20\n        /* \"#utility.yul\":731:740   */\n      dup3\n        /* \"#utility.yul\":727:745   */\n      add\n        /* \"#utility.yul\":719:745   */\n      swap1\n      pop\n        /* \"#utility.yul\":755:826   */\n      tag_52\n        /* \"#utility.yul\":823:824   */\n      0x00\n        /* \"#utility.yul\":812:821   */\n      dup4\n        /* \"#utility.yul\":808:825   */\n      add\n        /* \"#utility.yul\":799:805   */\n      dup5\n        /* \"#utility.yul\":755:826   */\n      tag_47\n      jump\t// in\n    tag_52:\n        /* \"#utility.yul\":611:833   */\n      swap3\n      swap2\n      pop\n      pop\n      jump\t// out\n        /* \"#utility.yul\":920:1225   */\n    tag_22:\n        /* \"#utility.yul\":960:963   */\n      0x00\n        /* \"#utility.yul\":979:999   */\n      tag_56\n        /* \"#utility.yul\":997:998   */\n      dup3\n        /* \"#utility.yul\":979:999   */\n      tag_50\n      jump\t// in\n    tag_56:\n        /* \"#utility.yul\":974:999   */\n      swap2\n      pop\n        /* \"#utility.yul\":1013:1033   */\n      tag_57\n        /* \"#utility.yul\":1031:1032   */\n      dup4\n        /* \"#utility.yul\":1013:1033   */\n      tag_50\n      jump\t// in\n    tag_57:\n        /* \"#utility.yul\":1008:1033   */\n      swap3\n      pop\n        /* \"#utility.yul\":1167:1168   */\n      dup3\n        /* \"#utility.yul\":1099:1165   */\n      0xffffffffffffffffffffffffffffffffffffffffffffffffffffffffffffffff\n        /* \"#utility.yul\":1095:1169   */\n      sub\n        /* \"#utility.yul\":1092:1093   */\n      dup3\n        /* \"#utility.yul\":1089:1170   */\n      gt\n        /* \"#utility.yul\":1086:1193   */\n      iszero\n      tag_58\n      jumpi\n        /* \"#utility.yul\":1173:1191   */\n      tag_59\n      tag_60\n      jump\t// in\n    tag_59:\n        /* \"#utility.yul\":1086:1193   */\n    tag_58:\n        /* \"#utility.yul\":1217:1218   */\n      dup3\n        /* \"#utility.yul\":1214:1215   */\n      dup3\n        /* \"#utility.yul\":1210:1219   */\n      add\n        /* \"#utility.yul\":1203:1219   */\n      swap1\n      pop\n        /* \"#utility.yul\":920:1225   */\n      swap3\n      swap2\n      pop\n      pop\n      jump\t// out\n        /* \"#utility.yul\":1231:1308   */\n    tag_50:\n        /* \"#utility.yul\":1268:1275   */\n      0x00\n        /* \"#utility.yul\":1297:1302   */\n      dup2\n        /* \"#utility.yul\":1286:1302   */\n      swap1\n      pop\n        /* \"#utility.yul\":1231:1308   */\n      swap2\n      swap1\n      pop\n      jump\t// out\n        /* \"#utility.yul\":1314:1547   */\n    tag_24:\n        /* \"#utility.yul\":1353:1356   */\n      0x00\n        /* \"#utility.yul\":1376:1400   */\n      tag_63\n        /* \"#utility.yul\":1394:1399   */\n      dup3\n        /* \"#utility.yul\":1376:1400   */\n      tag_50\n      jump\t// in\n    tag_63:\n        /* \"#utility.yul\":1367:1400   */\n      swap2\n      pop\n        /* \"#utility.yul\":1422:1488   */\n      0xffffffffffffffffffffffffffffffffffffffffffffffffffffffffffffffff\n        /* \"#utility.yul\":1415:1420   */\n      dup3\n        /* \"#utility.yul\":1412:1489   */\n      eq\n        /* \"#utility.yul\":1409:1512   */\n      iszero\n      tag_64\n      jumpi\n        /* \"#utility.yul\":1492:1510   */\n      tag_65\n      tag_60\n      jump\t// in\n    tag_65:\n        /* \"#utility.yul\":1409:1512   */\n    tag_64:\n        /* \"#utility.yul\":1539:1540   */\n      0x01\n        /* \"#utility.yul\":1532:1537   */\n      dup3\n        /* \"#utility.yul\":1528:1541   */\n      add\n        /* \"#utility.yul\":1521:1541   */\n      swap1\n      pop\n        /* \"#utility.yul\":1314:1547   */\n      swap2\n      swap1\n      pop\n      jump\t// out\n        /* \"#utility.yul\":1553:1733   */\n    tag_60:\n        /* \"#utility.yul\":1601:1678   */\n      0x4e487b7100000000000000000000000000000000000000000000000000000000\n        /* \"#utility.yul\":1598:1599   */\n      0x00\n        /* \"#utility.yul\":1591:1679   */\n      mstore\n        /* \"#utility.yul\":1698:1702   */\n      0x11\n        /* \"#utility.yul\":1695:1696   */\n      0x04\n        /* \"#utility.yul\":1688:1703   */\n      mstore\n        /* \"#utility.yul\":1722:1726   */\n      0x24\n        /* \"#utility.yul\":1719:1720   */\n      0x00\n        /* \"#utility.yul\":1712:1727   */\n      revert\n        /* \"#utility.yul\":1862:1979   */\n    tag_45:\n        /* \"#utility.yul\":1971:1972   */\n      0x00\n        /* \"#utility.yul\":1968:1969   */\n      dup1\n        /* \"#utility.yul\":1961:1973   */\n      revert\n        /* \"#utility.yul\":1985:2107   */\n    tag_41:\n        /* \"#utility.yul\":2058:2082   */\n      tag_71\n        /* \"#utility.yul\":2076:2081   */\n      dup2\n        /* \"#utility.yul\":2058:2082   */\n      tag_50\n      jump\t// in\n    tag_71:\n        /* \"#utility.yul\":2051:2056   */\n      dup2\n        /* \"#utility.yul\":2048:2083   */\n      eq\n        /* \"#utility.yul\":2038:2101   */\n      tag_72\n      jumpi\n        /* \"#utility.yul\":2097:2098   */\n      0x00\n        /* \"#utility.yul\":2094:2095   */\n      dup1\n        /* \"#utility.yul\":2087:2099   */\n      revert\n        /* \"#utility.yul\":2038:2101   */\n    tag_72:\n        /* \"#utility.yul\":1985:2107   */\n      pop\n      jump\t// out\n\n    auxdata: 0xa264697066735822122044bdb7cc051273901622723f69ea401bcca2c3037c71c0cb2173bb6817635fb164736f6c63430008070033\n}\n",
				"bytecode": {
					"linkReferences": {},
					"object": "608060405234801561001057600080fd5b506102fb806100206000396000f3fe608060405234801561001057600080fd5b50600436106100415760003560e01c80630dbe671f14610046578063188b85b414610064578063faee1d3a14610094575b600080fd5b61004e61009e565b60405161005b91906101b6565b60405180910390f35b61007e6004803603810190610079919061017a565b6100a4565b60405161008b91906101b6565b60405180910390f35b61009c6100dc565b005b60005481565b60008060005b8381116100d25780826100bd91906101d1565b915080806100ca90610231565b9150506100aa565b5080915050919050565b60005b600581101561012f5760038114156100f65761011c565b60058114156101045761012f565b60008081548092919061011690610231565b91905055505b808061012790610231565b9150506100df565b5b6006811161016257808061014390610231565b91505060008081548092919061015890610231565b9190505550610130565b50565b600081359050610174816102ae565b92915050565b6000602082840312156101905761018f6102a9565b5b600061019e84828501610165565b91505092915050565b6101b081610227565b82525050565b60006020820190506101cb60008301846101a7565b92915050565b60006101dc82610227565b91506101e783610227565b9250827fffffffffffffffffffffffffffffffffffffffffffffffffffffffffffffffff0382111561021c5761021b61027a565b5b828201905092915050565b6000819050919050565b600061023c82610227565b91507fffffffffffffffffffffffffffffffffffffffffffffffffffffffffffffffff82141561026f5761026e61027a565b5b600182019050919050565b7f4e487b7100000000000000000000000000000000000000000000000000000000600052601160045260246000fd5b600080fd5b6102b781610227565b81146102c257600080fd5b5056fea264697066735822122044bdb7cc051273901622723f69ea401bcca2c3037c71c0cb2173bb6817635fb164736f6c63430008070033",
					"opcodes": "PUSH1 0x80 PUSH1 0x40 MSTORE CALLVALUE DUP1 ISZERO PUSH2 0x10 JUMPI PUSH1 0x0 DUP1 REVERT JUMPDEST POP PUSH2 0x2FB DUP1 PUSH2 0x20 PUSH1 0x0 CODECOPY PUSH1 0x0 RETURN INVALID PUSH1 0x80 PUSH1 0x40 MSTORE CALLVALUE DUP1 ISZERO PUSH2 0x10 JUMPI PUSH1 0x0 DUP1 REVERT JUMPDEST POP PUSH1 0x4 CALLDATASIZE LT PUSH2 0x41 JUMPI PUSH1 0x0 CALLDATALOAD PUSH1 0xE0 SHR DUP1 PUSH4 0xDBE671F EQ PUSH2 0x46 JUMPI DUP1 PUSH4 0x188B85B4 EQ PUSH2 0x64 JUMPI DUP1 PUSH4 0xFAEE1D3A EQ PUSH2 0x94 JUMPI JUMPDEST PUSH1 0x0 DUP1 REVERT JUMPDEST PUSH2 0x4E PUSH2 0x9E JUMP JUMPDEST PUSH1 0x40 MLOAD PUSH2 0x5B SWAP2 SWAP1 PUSH2 0x1B6 JUMP JUMPDEST PUSH1 0x40 MLOAD DUP1 SWAP2 SUB SWAP1 RETURN JUMPDEST PUSH2 0x7E PUSH1 0x4 DUP1 CALLDATASIZE SUB DUP2 ADD SWAP1 PUSH2 0x79 SWAP2 SWAP1 PUSH2 0x17A JUMP JUMPDEST PUSH2 0xA4 JUMP JUMPDEST PUSH1 0x40 MLOAD PUSH2 0x8B SWAP2 SWAP1 PUSH2 0x1B6 JUMP JUMPDEST PUSH1 0x40 MLOAD DUP1 SWAP2 SUB SWAP1 RETURN JUMPDEST PUSH2 0x9C PUSH2 0xDC JUMP JUMPDEST STOP JUMPDEST PUSH1 0x0 SLOAD DUP2 JUMP JUMPDEST PUSH1 0x0 DUP1 PUSH1 0x0 JUMPDEST DUP4 DUP2 GT PUSH2 0xD2 JUMPI DUP1 DUP3 PUSH2 0xBD SWAP2 SWAP1 PUSH2 0x1D1 JUMP JUMPDEST SWAP2 POP DUP1 DUP1 PUSH2 0xCA SWAP1 PUSH2 0x231 JUMP JUMPDEST SWAP2 POP POP PUSH2 0xAA JUMP JUMPDEST POP DUP1 SWAP2 POP POP SWAP2 SWAP1 POP JUMP JUMPDEST PUSH1 0x0 JUMPDEST PUSH1 0x5 DUP2 LT ISZERO PUSH2 0x12F JUMPI PUSH1 0x3 DUP2 EQ ISZERO PUSH2 0xF6 JUMPI PUSH2 0x11C JUMP JUMPDEST PUSH1 0x5 DUP2 EQ ISZERO PUSH2 0x104 JUMPI PUSH2 0x12F JUMP JUMPDEST PUSH1 0x0 DUP1 DUP2 SLOAD DUP1 SWAP3 SWAP2 SWAP1 PUSH2 0x116 SWAP1 PUSH2 0x231 JUMP JUMPDEST SWAP2 SWAP1 POP SSTORE POP JUMPDEST DUP1 DUP1 PUSH2 0x127 SWAP1 PUSH2 0x231 JUMP JUMPDEST SWAP2 POP POP PUSH2 0xDF JUMP JUMPDEST JUMPDEST PUSH1 0x6 DUP2 GT PUSH2 0x162 JUMPI DUP1 DUP1 PUSH2 0x143 SWAP1 PUSH2 0x231 JUMP JUMPDEST SWAP2 POP POP PUSH1 0x0 DUP1 DUP2 SLOAD DUP1 SWAP3 SWAP2 SWAP1 PUSH2 0x158 SWAP1 PUSH2 0x231 JUMP JUMPDEST SWAP2 SWAP1 POP SSTORE POP PUSH2 0x130 JUMP JUMPDEST POP JUMP JUMPDEST PUSH1 0x0 DUP2 CALLDATALOAD SWAP1 POP PUSH2 0x174 DUP2 PUSH2 0x2AE JUMP JUMPDEST SWAP3 SWAP2 POP POP JUMP JUMPDEST PUSH1 0x0 PUSH1 0x20 DUP3 DUP5 SUB SLT ISZERO PUSH2 0x190 JUMPI PUSH2 0x18F PUSH2 0x2A9 JUMP JUMPDEST JUMPDEST PUSH1 0x0 PUSH2 0x19E DUP5 DUP3 DUP6 ADD PUSH2 0x165 JUMP JUMPDEST SWAP2 POP POP SWAP3 SWAP2 POP POP JUMP JUMPDEST PUSH2 0x1B0 DUP2 PUSH2 0x227 JUMP JUMPDEST DUP3 MSTORE POP POP JUMP JUMPDEST PUSH1 0x0 PUSH1 0x20 DUP3 ADD SWAP1 POP PUSH2 0x1CB PUSH1 0x0 DUP4 ADD DUP5 PUSH2 0x1A7 JUMP JUMPDEST SWAP3 SWAP2 POP POP JUMP JUMPDEST PUSH1 0x0 PUSH2 0x1DC DUP3 PUSH2 0x227 JUMP JUMPDEST SWAP2 POP PUSH2 0x1E7 DUP4 PUSH2 0x227 JUMP JUMPDEST SWAP3 POP DUP3 PUSH32 0xFFFFFFFFFFFFFFFFFFFFFFFFFFFFFFFFFFFFFFFFFFFFFFFFFFFFFFFFFFFFFFFF SUB DUP3 GT ISZERO PUSH2 0x21C JUMPI PUSH2 0x21B PUSH2 0x27A JUMP JUMPDEST JUMPDEST DUP3 DUP3 ADD SWAP1 POP SWAP3 SWAP2 POP POP JUMP JUMPDEST PUSH1 0x0 DUP2 SWAP1 POP SWAP2 SWAP1 POP JUMP JUMPDEST PUSH1 0x0 PUSH2 0x23C DUP3 PUSH2 0x227 JUMP JUMPDEST SWAP2 POP PUSH32 0xFFFFFFFFFFFFFFFFFFFFFFFFFFFFFFFFFFFFFFFFFFFFFFFFFFFFFFFFFFFFFFFF DUP3 EQ ISZERO PUSH2 0x26F JUMPI PUSH2 0x26E PUSH2 0x27A JUMP JUMPDEST JUMPDEST PUSH1 0x1 DUP3 ADD SWAP1 POP SWAP2 SWAP1 POP JUMP JUMPDEST PUSH32 0x4E487B7100000000000000000000000000000000000000000000000000000000 PUSH1 0x0 MSTORE PUSH1 0x11 PUSH1 0x4 MSTORE PUSH1 0x24 PUSH1 0x0 REVERT JUMPDEST PUSH1 0x0 DUP1 REVERT JUMPDEST PUSH2 0x2B7 DUP2 PUSH2 0x227 JUMP JUMPDEST DUP2 EQ PUSH2 0x2C2 JUMPI PUSH1 0x0 DUP1 REVERT JUMPDEST POP JUMP INVALID LOG2 PUSH5 0x6970667358 0x22 SLT KECCAK256 DIFFICULTY 0xBD 0xB7 0xCC SDIV SLT PUSH20 0x901622723F69EA401BCCA2C3037C71C0CB2173BB PUSH9 0x17635FB164736F6C63 NUMBER STOP ADDMOD SMOD STOP CALLER "
				},
				"gasEstimates": {
					"creation": {
						"codeDepositCost": "152600",
						"executionCost": "196",
						"totalCost": "152796"
					},
					"external": {
						"Loops()": "infinite",
						"a()": "2407",
						"sum(uint256)": "infinite"
					}
				},
				"methodIdentifiers": {
					"Loops()": "faee1d3a",
					"a()": "0dbe671f",
					"sum(uint256)": "188b85b4"
				}
			},
			"storageLayout": {
				"storage": [
					{
						"astId": 3,
						"contract": "code3/2loop.sol:Loop",
						"label": "a",
						"offset": 0,
						"slot": "0",
						"type": "t_uint256"
					}
				],
				"types": {
					"t_uint256": {
						"encoding": "inplace",
						"label": "uint256",
						"numberOfBytes": "32"
					}
				}
			},
			"userdoc": {
				"kind": "user",
				"methods": {},
				"version": 1
			}
		}
	}
}