{
	"code3/2loop.sol": {
		"Loop": {
			"abi": [
				{
					"inputs": [],
					"name": "Loops",
					"outputs": [],
					"stateMutability": "nonpayable",
					"type": "function"
				},
				{
					"inputs": [],
					"name": "sum",
					"outputs": [],
					"stateMutability": "pure",
					"type": "function"
				}
			],
			"devdoc": {
				"kind": "dev",
				"methods": {},
				"version": 1
			},
			"evm": {
				"assembly": "    /* \"code3/2loop.sol\":53:412  contract Loop{... */\n  mstore(0x40, 0x80)\n  callvalue\n  dup1\n  iszero\n  tag_1\n  jumpi\n  0x00\n  dup1\n  revert\ntag_1:\n  pop\n  dataSize(sub_0)\n  dup1\n  dataOffset(sub_0)\n  0x00\n  codecopy\n  0x00\n  return\nstop\n\nsub_0: assembly {\n        /* \"code3/2loop.sol\":53:412  contract Loop{... */\n      mstore(0x40, 0x80)\n      callvalue\n      dup1\n      iszero\n      tag_1\n      jumpi\n      0x00\n      dup1\n      revert\n    tag_1:\n      pop\n      jumpi(tag_2, lt(calldatasize, 0x04))\n      shr(0xe0, calldataload(0x00))\n      dup1\n      0x853255cc\n      eq\n      tag_3\n      jumpi\n      dup1\n      0xfaee1d3a\n      eq\n      tag_4\n      jumpi\n    tag_2:\n      0x00\n      dup1\n      revert\n        /* \"code3/2loop.sol\":374:409  function sum()external pure{... */\n    tag_3:\n      tag_5\n      tag_6\n      jump\t// in\n    tag_5:\n      stop\n        /* \"code3/2loop.sol\":84:368  function Loops()external {... */\n    tag_4:\n      tag_7\n      tag_8\n      jump\t// in\n    tag_7:\n      stop\n        /* \"code3/2loop.sol\":374:409  function sum()external pure{... */\n    tag_6:\n      jump\t// out\n        /* \"code3/2loop.sol\":84:368  function Loops()external {... */\n    tag_8:\n        /* \"code3/2loop.sol\":119:125  uint i */\n      0x00\n        /* \"code3/2loop.sol\":142:148  uint i */\n      dup1\n        /* \"code3/2loop.sol\":137:315  for (uint i=0;i<5;i++){... */\n    tag_11:\n        /* \"code3/2loop.sol\":153:154  5 */\n      0x05\n        /* \"code3/2loop.sol\":151:152  i */\n      dup2\n        /* \"code3/2loop.sol\":151:154  i<5 */\n      lt\n        /* \"code3/2loop.sol\":137:315  for (uint i=0;i<5;i++){... */\n      iszero\n      tag_12\n      jumpi\n        /* \"code3/2loop.sol\":181:182  3 */\n      0x03\n        /* \"code3/2loop.sol\":176:177  i */\n      dup2\n        /* \"code3/2loop.sol\":176:182  i == 3 */\n      eq\n        /* \"code3/2loop.sol\":173:224  if(i == 3){... */\n      iszero\n      tag_14\n      jumpi\n        /* \"code3/2loop.sol\":201:209  continue */\n      jump(tag_13)\n        /* \"code3/2loop.sol\":173:224  if(i == 3){... */\n    tag_14:\n        /* \"code3/2loop.sol\":244:245  5 */\n      0x05\n        /* \"code3/2loop.sol\":241:242  i */\n      dup2\n        /* \"code3/2loop.sol\":241:245  i==5 */\n      eq\n        /* \"code3/2loop.sol\":237:285  if (i==5 ){... */\n      iszero\n      tag_15\n      jumpi\n        /* \"code3/2loop.sol\":265:270  break */\n      jump(tag_12)\n        /* \"code3/2loop.sol\":237:285  if (i==5 ){... */\n    tag_15:\n        /* \"code3/2loop.sol\":298:299  a */\n      0x00\n      dup1\n        /* \"code3/2loop.sol\":298:301  a++ */\n      dup2\n      sload\n      dup1\n      swap3\n      swap2\n      swap1\n      tag_16\n      swap1\n      tag_17\n      jump\t// in\n    tag_16:\n      swap2\n      swap1\n      pop\n      sstore\n      pop\n        /* \"code3/2loop.sol\":137:315  for (uint i=0;i<5;i++){... */\n    tag_13:\n        /* \"code3/2loop.sol\":155:158  i++ */\n      dup1\n      dup1\n      tag_18\n      swap1\n      tag_17\n      jump\t// in\n    tag_18:\n      swap2\n      pop\n      pop\n        /* \"code3/2loop.sol\":137:315  for (uint i=0;i<5;i++){... */\n      jump(tag_11)\n    tag_12:\n      pop\n        /* \"code3/2loop.sol\":324:362  while(i<6){... */\n    tag_19:\n        /* \"code3/2loop.sol\":332:333  6 */\n      0x06\n        /* \"code3/2loop.sol\":330:331  i */\n      dup2\n        /* \"code3/2loop.sol\":330:333  i<6 */\n      lt\n        /* \"code3/2loop.sol\":324:362  while(i<6){... */\n      iszero\n      tag_20\n      jumpi\n        /* \"code3/2loop.sol\":348:349  a */\n      0x00\n      dup1\n        /* \"code3/2loop.sol\":348:351  a++ */\n      dup2\n      sload\n      dup1\n      swap3\n      swap2\n      swap1\n      tag_21\n      swap1\n      tag_17\n      jump\t// in\n    tag_21:\n      swap2\n      swap1\n      pop\n      sstore\n      pop\n        /* \"code3/2loop.sol\":324:362  while(i<6){... */\n      jump(tag_19)\n    tag_20:\n        /* \"code3/2loop.sol\":109:368  {... */\n      pop\n        /* \"code3/2loop.sol\":84:368  function Loops()external {... */\n      jump\t// out\n        /* \"#utility.yul\":7:84   */\n    tag_23:\n        /* \"#utility.yul\":44:51   */\n      0x00\n        /* \"#utility.yul\":73:78   */\n      dup2\n        /* \"#utility.yul\":62:78   */\n      swap1\n      pop\n        /* \"#utility.yul\":7:84   */\n      swap2\n      swap1\n      pop\n      jump\t// out\n        /* \"#utility.yul\":90:323   */\n    tag_17:\n        /* \"#utility.yul\":129:132   */\n      0x00\n        /* \"#utility.yul\":152:176   */\n      tag_26\n        /* \"#utility.yul\":170:175   */\n      dup3\n        /* \"#utility.yul\":152:176   */\n      tag_23\n      jump\t// in\n    tag_26:\n        /* \"#utility.yul\":143:176   */\n      swap2\n      pop\n        /* \"#utility.yul\":198:264   */\n      0xffffffffffffffffffffffffffffffffffffffffffffffffffffffffffffffff\n        /* \"#utility.yul\":191:196   */\n      dup3\n        /* \"#utility.yul\":188:265   */\n      eq\n        /* \"#utility.yul\":185:288   */\n      iszero\n      tag_27\n      jumpi\n        /* \"#utility.yul\":268:286   */\n      tag_28\n      tag_29\n      jump\t// in\n    tag_28:\n        /* \"#utility.yul\":185:288   */\n    tag_27:\n        /* \"#utility.yul\":315:316   */\n      0x01\n        /* \"#utility.yul\":308:313   */\n      dup3\n        /* \"#utility.yul\":304:317   */\n      add\n        /* \"#utility.yul\":297:317   */\n      swap1\n      pop\n        /* \"#utility.yul\":90:323   */\n      swap2\n      swap1\n      pop\n      jump\t// out\n        /* \"#utility.yul\":329:509   */\n    tag_29:\n        /* \"#utility.yul\":377:454   */\n      0x4e487b7100000000000000000000000000000000000000000000000000000000\n        /* \"#utility.yul\":374:375   */\n      0x00\n        /* \"#utility.yul\":367:455   */\n      mstore\n        /* \"#utility.yul\":474:478   */\n      0x11\n        /* \"#utility.yul\":471:472   */\n      0x04\n        /* \"#utility.yul\":464:479   */\n      mstore\n        /* \"#utility.yul\":498:502   */\n      0x24\n        /* \"#utility.yul\":495:496   */\n      0x00\n        /* \"#utility.yul\":488:503   */\n      revert\n\n    auxdata: 0xa26469706673582212202442dc62be5f6644ab687f09d99ae950ec48f1e75e63b8bf92301fb50deaae4764736f6c63430008070033\n}\n",
				"bytecode": {
					"linkReferences": {},
					"object": "608060405234801561001057600080fd5b50610187806100206000396000f3fe608060405234801561001057600080fd5b50600436106100365760003560e01c8063853255cc1461003b578063faee1d3a14610045575b600080fd5b61004361004f565b005b61004d610051565b005b565b6000805b60058110156100a557600381141561006c57610092565b600581141561007a576100a5565b60008081548092919061008c906100d9565b91905055505b808061009d906100d9565b915050610055565b505b60068110156100cc576000808154809291906100c2906100d9565b91905055506100a7565b50565b6000819050919050565b60006100e4826100cf565b91507fffffffffffffffffffffffffffffffffffffffffffffffffffffffffffffffff82141561011757610116610122565b5b600182019050919050565b7f4e487b7100000000000000000000000000000000000000000000000000000000600052601160045260246000fdfea26469706673582212202442dc62be5f6644ab687f09d99ae950ec48f1e75e63b8bf92301fb50deaae4764736f6c63430008070033",
					"opcodes": "PUSH1 0x80 PUSH1 0x40 MSTORE CALLVALUE DUP1 ISZERO PUSH2 0x10 JUMPI PUSH1 0x0 DUP1 REVERT JUMPDEST POP PUSH2 0x187 DUP1 PUSH2 0x20 PUSH1 0x0 CODECOPY PUSH1 0x0 RETURN INVALID PUSH1 0x80 PUSH1 0x40 MSTORE CALLVALUE DUP1 ISZERO PUSH2 0x10 JUMPI PUSH1 0x0 DUP1 REVERT JUMPDEST POP PUSH1 0x4 CALLDATASIZE LT PUSH2 0x36 JUMPI PUSH1 0x0 CALLDATALOAD PUSH1 0xE0 SHR DUP1 PUSH4 0x853255CC EQ PUSH2 0x3B JUMPI DUP1 PUSH4 0xFAEE1D3A EQ PUSH2 0x45 JUMPI JUMPDEST PUSH1 0x0 DUP1 REVERT JUMPDEST PUSH2 0x43 PUSH2 0x4F JUMP JUMPDEST STOP JUMPDEST PUSH2 0x4D PUSH2 0x51 JUMP JUMPDEST STOP JUMPDEST JUMP JUMPDEST PUSH1 0x0 DUP1 JUMPDEST PUSH1 0x5 DUP2 LT ISZERO PUSH2 0xA5 JUMPI PUSH1 0x3 DUP2 EQ ISZERO PUSH2 0x6C JUMPI PUSH2 0x92 JUMP JUMPDEST PUSH1 0x5 DUP2 EQ ISZERO PUSH2 0x7A JUMPI PUSH2 0xA5 JUMP JUMPDEST PUSH1 0x0 DUP1 DUP2 SLOAD DUP1 SWAP3 SWAP2 SWAP1 PUSH2 0x8C SWAP1 PUSH2 0xD9 JUMP JUMPDEST SWAP2 SWAP1 POP SSTORE POP JUMPDEST DUP1 DUP1 PUSH2 0x9D SWAP1 PUSH2 0xD9 JUMP JUMPDEST SWAP2 POP POP PUSH2 0x55 JUMP JUMPDEST POP JUMPDEST PUSH1 0x6 DUP2 LT ISZERO PUSH2 0xCC JUMPI PUSH1 0x0 DUP1 DUP2 SLOAD DUP1 SWAP3 SWAP2 SWAP1 PUSH2 0xC2 SWAP1 PUSH2 0xD9 JUMP JUMPDEST SWAP2 SWAP1 POP SSTORE POP PUSH2 0xA7 JUMP JUMPDEST POP JUMP JUMPDEST PUSH1 0x0 DUP2 SWAP1 POP SWAP2 SWAP1 POP JUMP JUMPDEST PUSH1 0x0 PUSH2 0xE4 DUP3 PUSH2 0xCF JUMP JUMPDEST SWAP2 POP PUSH32 0xFFFFFFFFFFFFFFFFFFFFFFFFFFFFFFFFFFFFFFFFFFFFFFFFFFFFFFFFFFFFFFFF DUP3 EQ ISZERO PUSH2 0x117 JUMPI PUSH2 0x116 PUSH2 0x122 JUMP JUMPDEST JUMPDEST PUSH1 0x1 DUP3 ADD SWAP1 POP SWAP2 SWAP1 POP JUMP JUMPDEST PUSH32 0x4E487B7100000000000000000000000000000000000000000000000000000000 PUSH1 0x0 MSTORE PUSH1 0x11 PUSH1 0x4 MSTORE PUSH1 0x24 PUSH1 0x0 REVERT INVALID LOG2 PUSH5 0x6970667358 0x22 SLT KECCAK256 0x24 TIMESTAMP 0xDC PUSH3 0xBE5F66 DIFFICULTY 0xAB PUSH9 0x7F09D99AE950EC48F1 0xE7 0x5E PUSH4 0xB8BF9230 0x1F 0xB5 0xD 0xEA 0xAE SELFBALANCE PUSH5 0x736F6C6343 STOP ADDMOD SMOD STOP CALLER "
				},
				"gasEstimates": {
					"creation": {
						"codeDepositCost": "78200",
						"executionCost": "129",
						"totalCost": "78329"
					},
					"external": {
						"Loops()": "infinite",
						"sum()": "122"
					}
				},
				"methodIdentifiers": {
					"Loops()": "faee1d3a",
					"sum()": "853255cc"
				}
			},
			"storageLayout": {
				"storage": [
					{
						"astId": 3,
						"contract": "code3/2loop.sol:Loop",
						"label": "a",
						"offset": 0,
						"slot": "0",
						"type": "t_uint256"
					}
				],
				"types": {
					"t_uint256": {
						"encoding": "inplace",
						"label": "uint256",
						"numberOfBytes": "32"
					}
				}
			},
			"userdoc": {
				"kind": "user",
				"methods": {},
				"version": 1
			}
		}
	}
}