{
	"data": {
		"bytecode": {
			"linkReferences": {},
			"object": "608060405234801561001057600080fd5b50610152806100206000396000f3fe608060405234801561001057600080fd5b50600436106100365760003560e01c806326121ff01461003b578063e2179b8e1461005b575b600080fd5b610043610065565b604051610052939291906100e5565b60405180910390f35b61006361007b565b005b6000806000600760016002925092509250909192565b6000806000610088610065565b925092509250808380925081945050506100a0610065565b905050600080829190505550505050565b6000819050919050565b6100c4816100b1565b82525050565b60008115159050919050565b6100df816100ca565b82525050565b60006060820190506100fa60008301866100bb565b61010760208301856100d6565b61011460408301846100bb565b94935050505056fea2646970667358221220bdee30727ab511e86785a4d6ffaeb411be78c0acfb07accdd3c9bd000ef21fef64736f6c634300080f0033",
			"opcodes": "PUSH1 0x80 PUSH1 0x40 MSTORE CALLVALUE DUP1 ISZERO PUSH2 0x10 JUMPI PUSH1 0x0 DUP1 REVERT JUMPDEST POP PUSH2 0x152 DUP1 PUSH2 0x20 PUSH1 0x0 CODECOPY PUSH1 0x0 RETURN INVALID PUSH1 0x80 PUSH1 0x40 MSTORE CALLVALUE DUP1 ISZERO PUSH2 0x10 JUMPI PUSH1 0x0 DUP1 REVERT JUMPDEST POP PUSH1 0x4 CALLDATASIZE LT PUSH2 0x36 JUMPI PUSH1 0x0 CALLDATALOAD PUSH1 0xE0 SHR DUP1 PUSH4 0x26121FF0 EQ PUSH2 0x3B JUMPI DUP1 PUSH4 0xE2179B8E EQ PUSH2 0x5B JUMPI JUMPDEST PUSH1 0x0 DUP1 REVERT JUMPDEST PUSH2 0x43 PUSH2 0x65 JUMP JUMPDEST PUSH1 0x40 MLOAD PUSH2 0x52 SWAP4 SWAP3 SWAP2 SWAP1 PUSH2 0xE5 JUMP JUMPDEST PUSH1 0x40 MLOAD DUP1 SWAP2 SUB SWAP1 RETURN JUMPDEST PUSH2 0x63 PUSH2 0x7B JUMP JUMPDEST STOP JUMPDEST PUSH1 0x0 DUP1 PUSH1 0x0 PUSH1 0x7 PUSH1 0x1 PUSH1 0x2 SWAP3 POP SWAP3 POP SWAP3 POP SWAP1 SWAP2 SWAP3 JUMP JUMPDEST PUSH1 0x0 DUP1 PUSH1 0x0 PUSH2 0x88 PUSH2 0x65 JUMP JUMPDEST SWAP3 POP SWAP3 POP SWAP3 POP DUP1 DUP4 DUP1 SWAP3 POP DUP2 SWAP5 POP POP POP PUSH2 0xA0 PUSH2 0x65 JUMP JUMPDEST SWAP1 POP POP PUSH1 0x0 DUP1 DUP3 SWAP2 SWAP1 POP SSTORE POP POP POP POP JUMP JUMPDEST PUSH1 0x0 DUP2 SWAP1 POP SWAP2 SWAP1 POP JUMP JUMPDEST PUSH2 0xC4 DUP2 PUSH2 0xB1 JUMP JUMPDEST DUP3 MSTORE POP POP JUMP JUMPDEST PUSH1 0x0 DUP2 ISZERO ISZERO SWAP1 POP SWAP2 SWAP1 POP JUMP JUMPDEST PUSH2 0xDF DUP2 PUSH2 0xCA JUMP JUMPDEST DUP3 MSTORE POP POP JUMP JUMPDEST PUSH1 0x0 PUSH1 0x60 DUP3 ADD SWAP1 POP PUSH2 0xFA PUSH1 0x0 DUP4 ADD DUP7 PUSH2 0xBB JUMP JUMPDEST PUSH2 0x107 PUSH1 0x20 DUP4 ADD DUP6 PUSH2 0xD6 JUMP JUMPDEST PUSH2 0x114 PUSH1 0x40 DUP4 ADD DUP5 PUSH2 0xBB JUMP JUMPDEST SWAP5 SWAP4 POP POP POP POP JUMP INVALID LOG2 PUSH5 0x6970667358 0x22 SLT KECCAK256 0xBD 0xEE ADDRESS PUSH19 0x7AB511E86785A4D6FFAEB411BE78C0ACFB07AC 0xCD 0xD3 0xC9 0xBD STOP 0xE CALLCODE 0x1F 0xEF PUSH5 0x736F6C6343 STOP ADDMOD 0xF STOP CALLER "
		},
		"gasEstimates": {
			"creation": {
				"codeDepositCost": "67600",
				"executionCost": "117",
				"totalCost": "67717"
			},
			"external": {
				"f()": "infinite",
				"g()": "infinite"
			}
		},
		"methodIdentifiers": {
			"f()": "26121ff0",
			"g()": "e2179b8e"
		}
	},
	"abi": [
		{
			"inputs": [],
			"name": "f",
			"outputs": [
				{
					"internalType": "uint256",
					"name": "",
					"type": "uint256"
				},
				{
					"internalType": "bool",
					"name": "",
					"type": "bool"
				},
				{
					"internalType": "uint256",
					"name": "",
					"type": "uint256"
				}
			],
			"stateMutability": "pure",
			"type": "function"
		},
		{
			"inputs": [],
			"name": "g",
			"outputs": [],
			"stateMutability": "nonpayable",
			"type": "function"
		}
	]
}