{
	"data": {
		"bytecode": {
			"linkReferences": {},
			"object": "608060405234801561001057600080fd5b506104fb806100206000396000f3fe608060405234801561001057600080fd5b50600436106100365760003560e01c80631d834a1b1461003b578063853255cc1461006b575b600080fd5b61005560048036038101906100509190610338565b610089565b6040516100629190610387565b60405180910390f35b6100736100b0565b6040516100809190610387565b60405180910390f35b60006100a1838360006101209092919063ffffffff16565b50600060020154905092915050565b6000806100bd6000610214565b90505b6100d481600061024790919063ffffffff16565b1561011c5760006100ef82600061025b90919063ffffffff16565b91505080836100fe91906103a2565b9250506101158160006102aa90919063ffffffff16565b90506100c0565b5090565b6000808460000160008581526020019081526020016000206000015490508285600001600086815260200190815260200160002060010181905550600081111561016e57600191505061020d565b8460010180549050905084600101600181600181540180825580915050039060005260206000209050506001816101a591906103a2565b85600001600086815260200190815260200160002060000181905550838560010182815481106101d8576101d761047a565b5b90600052602060002090600202016000018190555084600201600081548092919061020290610402565b919050555060009150505b9392505050565b6000610240827fffffffffffffffffffffffffffffffffffffffffffffffffffffffffffffffff6102aa565b9050919050565b600082600101805490508210905092915050565b6000808360010183815481106102745761027361047a565b5b90600052602060002090600202016000015491508360000160008381526020019081526020016000206001015490509250929050565b600081806102b790610402565b9250505b82600101805490508210801561030257508260010182815481106102e2576102e161047a565b5b906000526020600020906002020160010160009054906101000a900460ff165b1561031a57818061031290610402565b9250506102bb565b81905092915050565b600081359050610332816104ae565b92915050565b6000806040838503121561034f5761034e6104a9565b5b600061035d85828601610323565b925050602061036e85828601610323565b9150509250929050565b610381816103f8565b82525050565b600060208201905061039c6000830184610378565b92915050565b60006103ad826103f8565b91506103b8836103f8565b9250827fffffffffffffffffffffffffffffffffffffffffffffffffffffffffffffffff038211156103ed576103ec61044b565b5b828201905092915050565b6000819050919050565b600061040d826103f8565b91507fffffffffffffffffffffffffffffffffffffffffffffffffffffffffffffffff8214156104405761043f61044b565b5b600182019050919050565b7f4e487b7100000000000000000000000000000000000000000000000000000000600052601160045260246000fd5b7f4e487b7100000000000000000000000000000000000000000000000000000000600052603260045260246000fd5b600080fd5b6104b7816103f8565b81146104c257600080fd5b5056fea264697066735822122064098b60368e72c27456afeb1c2b03694d5d8305cb8f7fdb770a69d2ebd14e8964736f6c63430008070033",
			"opcodes": "PUSH1 0x80 PUSH1 0x40 MSTORE CALLVALUE DUP1 ISZERO PUSH2 0x10 JUMPI PUSH1 0x0 DUP1 REVERT JUMPDEST POP PUSH2 0x4FB DUP1 PUSH2 0x20 PUSH1 0x0 CODECOPY PUSH1 0x0 RETURN INVALID PUSH1 0x80 PUSH1 0x40 MSTORE CALLVALUE DUP1 ISZERO PUSH2 0x10 JUMPI PUSH1 0x0 DUP1 REVERT JUMPDEST POP PUSH1 0x4 CALLDATASIZE LT PUSH2 0x36 JUMPI PUSH1 0x0 CALLDATALOAD PUSH1 0xE0 SHR DUP1 PUSH4 0x1D834A1B EQ PUSH2 0x3B JUMPI DUP1 PUSH4 0x853255CC EQ PUSH2 0x6B JUMPI JUMPDEST PUSH1 0x0 DUP1 REVERT JUMPDEST PUSH2 0x55 PUSH1 0x4 DUP1 CALLDATASIZE SUB DUP2 ADD SWAP1 PUSH2 0x50 SWAP2 SWAP1 PUSH2 0x338 JUMP JUMPDEST PUSH2 0x89 JUMP JUMPDEST PUSH1 0x40 MLOAD PUSH2 0x62 SWAP2 SWAP1 PUSH2 0x387 JUMP JUMPDEST PUSH1 0x40 MLOAD DUP1 SWAP2 SUB SWAP1 RETURN JUMPDEST PUSH2 0x73 PUSH2 0xB0 JUMP JUMPDEST PUSH1 0x40 MLOAD PUSH2 0x80 SWAP2 SWAP1 PUSH2 0x387 JUMP JUMPDEST PUSH1 0x40 MLOAD DUP1 SWAP2 SUB SWAP1 RETURN JUMPDEST PUSH1 0x0 PUSH2 0xA1 DUP4 DUP4 PUSH1 0x0 PUSH2 0x120 SWAP1 SWAP3 SWAP2 SWAP1 PUSH4 0xFFFFFFFF AND JUMP JUMPDEST POP PUSH1 0x0 PUSH1 0x2 ADD SLOAD SWAP1 POP SWAP3 SWAP2 POP POP JUMP JUMPDEST PUSH1 0x0 DUP1 PUSH2 0xBD PUSH1 0x0 PUSH2 0x214 JUMP JUMPDEST SWAP1 POP JUMPDEST PUSH2 0xD4 DUP2 PUSH1 0x0 PUSH2 0x247 SWAP1 SWAP2 SWAP1 PUSH4 0xFFFFFFFF AND JUMP JUMPDEST ISZERO PUSH2 0x11C JUMPI PUSH1 0x0 PUSH2 0xEF DUP3 PUSH1 0x0 PUSH2 0x25B SWAP1 SWAP2 SWAP1 PUSH4 0xFFFFFFFF AND JUMP JUMPDEST SWAP2 POP POP DUP1 DUP4 PUSH2 0xFE SWAP2 SWAP1 PUSH2 0x3A2 JUMP JUMPDEST SWAP3 POP POP PUSH2 0x115 DUP2 PUSH1 0x0 PUSH2 0x2AA SWAP1 SWAP2 SWAP1 PUSH4 0xFFFFFFFF AND JUMP JUMPDEST SWAP1 POP PUSH2 0xC0 JUMP JUMPDEST POP SWAP1 JUMP JUMPDEST PUSH1 0x0 DUP1 DUP5 PUSH1 0x0 ADD PUSH1 0x0 DUP6 DUP2 MSTORE PUSH1 0x20 ADD SWAP1 DUP2 MSTORE PUSH1 0x20 ADD PUSH1 0x0 KECCAK256 PUSH1 0x0 ADD SLOAD SWAP1 POP DUP3 DUP6 PUSH1 0x0 ADD PUSH1 0x0 DUP7 DUP2 MSTORE PUSH1 0x20 ADD SWAP1 DUP2 MSTORE PUSH1 0x20 ADD PUSH1 0x0 KECCAK256 PUSH1 0x1 ADD DUP2 SWAP1 SSTORE POP PUSH1 0x0 DUP2 GT ISZERO PUSH2 0x16E JUMPI PUSH1 0x1 SWAP2 POP POP PUSH2 0x20D JUMP JUMPDEST DUP5 PUSH1 0x1 ADD DUP1 SLOAD SWAP1 POP SWAP1 POP DUP5 PUSH1 0x1 ADD PUSH1 0x1 DUP2 PUSH1 0x1 DUP2 SLOAD ADD DUP1 DUP3 SSTORE DUP1 SWAP2 POP POP SUB SWAP1 PUSH1 0x0 MSTORE PUSH1 0x20 PUSH1 0x0 KECCAK256 SWAP1 POP POP PUSH1 0x1 DUP2 PUSH2 0x1A5 SWAP2 SWAP1 PUSH2 0x3A2 JUMP JUMPDEST DUP6 PUSH1 0x0 ADD PUSH1 0x0 DUP7 DUP2 MSTORE PUSH1 0x20 ADD SWAP1 DUP2 MSTORE PUSH1 0x20 ADD PUSH1 0x0 KECCAK256 PUSH1 0x0 ADD DUP2 SWAP1 SSTORE POP DUP4 DUP6 PUSH1 0x1 ADD DUP3 DUP2 SLOAD DUP2 LT PUSH2 0x1D8 JUMPI PUSH2 0x1D7 PUSH2 0x47A JUMP JUMPDEST JUMPDEST SWAP1 PUSH1 0x0 MSTORE PUSH1 0x20 PUSH1 0x0 KECCAK256 SWAP1 PUSH1 0x2 MUL ADD PUSH1 0x0 ADD DUP2 SWAP1 SSTORE POP DUP5 PUSH1 0x2 ADD PUSH1 0x0 DUP2 SLOAD DUP1 SWAP3 SWAP2 SWAP1 PUSH2 0x202 SWAP1 PUSH2 0x402 JUMP JUMPDEST SWAP2 SWAP1 POP SSTORE POP PUSH1 0x0 SWAP2 POP POP JUMPDEST SWAP4 SWAP3 POP POP POP JUMP JUMPDEST PUSH1 0x0 PUSH2 0x240 DUP3 PUSH32 0xFFFFFFFFFFFFFFFFFFFFFFFFFFFFFFFFFFFFFFFFFFFFFFFFFFFFFFFFFFFFFFFF PUSH2 0x2AA JUMP JUMPDEST SWAP1 POP SWAP2 SWAP1 POP JUMP JUMPDEST PUSH1 0x0 DUP3 PUSH1 0x1 ADD DUP1 SLOAD SWAP1 POP DUP3 LT SWAP1 POP SWAP3 SWAP2 POP POP JUMP JUMPDEST PUSH1 0x0 DUP1 DUP4 PUSH1 0x1 ADD DUP4 DUP2 SLOAD DUP2 LT PUSH2 0x274 JUMPI PUSH2 0x273 PUSH2 0x47A JUMP JUMPDEST JUMPDEST SWAP1 PUSH1 0x0 MSTORE PUSH1 0x20 PUSH1 0x0 KECCAK256 SWAP1 PUSH1 0x2 MUL ADD PUSH1 0x0 ADD SLOAD SWAP2 POP DUP4 PUSH1 0x0 ADD PUSH1 0x0 DUP4 DUP2 MSTORE PUSH1 0x20 ADD SWAP1 DUP2 MSTORE PUSH1 0x20 ADD PUSH1 0x0 KECCAK256 PUSH1 0x1 ADD SLOAD SWAP1 POP SWAP3 POP SWAP3 SWAP1 POP JUMP JUMPDEST PUSH1 0x0 DUP2 DUP1 PUSH2 0x2B7 SWAP1 PUSH2 0x402 JUMP JUMPDEST SWAP3 POP POP JUMPDEST DUP3 PUSH1 0x1 ADD DUP1 SLOAD SWAP1 POP DUP3 LT DUP1 ISZERO PUSH2 0x302 JUMPI POP DUP3 PUSH1 0x1 ADD DUP3 DUP2 SLOAD DUP2 LT PUSH2 0x2E2 JUMPI PUSH2 0x2E1 PUSH2 0x47A JUMP JUMPDEST JUMPDEST SWAP1 PUSH1 0x0 MSTORE PUSH1 0x20 PUSH1 0x0 KECCAK256 SWAP1 PUSH1 0x2 MUL ADD PUSH1 0x1 ADD PUSH1 0x0 SWAP1 SLOAD SWAP1 PUSH2 0x100 EXP SWAP1 DIV PUSH1 0xFF AND JUMPDEST ISZERO PUSH2 0x31A JUMPI DUP2 DUP1 PUSH2 0x312 SWAP1 PUSH2 0x402 JUMP JUMPDEST SWAP3 POP POP PUSH2 0x2BB JUMP JUMPDEST DUP2 SWAP1 POP SWAP3 SWAP2 POP POP JUMP JUMPDEST PUSH1 0x0 DUP2 CALLDATALOAD SWAP1 POP PUSH2 0x332 DUP2 PUSH2 0x4AE JUMP JUMPDEST SWAP3 SWAP2 POP POP JUMP JUMPDEST PUSH1 0x0 DUP1 PUSH1 0x40 DUP4 DUP6 SUB SLT ISZERO PUSH2 0x34F JUMPI PUSH2 0x34E PUSH2 0x4A9 JUMP JUMPDEST JUMPDEST PUSH1 0x0 PUSH2 0x35D DUP6 DUP3 DUP7 ADD PUSH2 0x323 JUMP JUMPDEST SWAP3 POP POP PUSH1 0x20 PUSH2 0x36E DUP6 DUP3 DUP7 ADD PUSH2 0x323 JUMP JUMPDEST SWAP2 POP POP SWAP3 POP SWAP3 SWAP1 POP JUMP JUMPDEST PUSH2 0x381 DUP2 PUSH2 0x3F8 JUMP JUMPDEST DUP3 MSTORE POP POP JUMP JUMPDEST PUSH1 0x0 PUSH1 0x20 DUP3 ADD SWAP1 POP PUSH2 0x39C PUSH1 0x0 DUP4 ADD DUP5 PUSH2 0x378 JUMP JUMPDEST SWAP3 SWAP2 POP POP JUMP JUMPDEST PUSH1 0x0 PUSH2 0x3AD DUP3 PUSH2 0x3F8 JUMP JUMPDEST SWAP2 POP PUSH2 0x3B8 DUP4 PUSH2 0x3F8 JUMP JUMPDEST SWAP3 POP DUP3 PUSH32 0xFFFFFFFFFFFFFFFFFFFFFFFFFFFFFFFFFFFFFFFFFFFFFFFFFFFFFFFFFFFFFFFF SUB DUP3 GT ISZERO PUSH2 0x3ED JUMPI PUSH2 0x3EC PUSH2 0x44B JUMP JUMPDEST JUMPDEST DUP3 DUP3 ADD SWAP1 POP SWAP3 SWAP2 POP POP JUMP JUMPDEST PUSH1 0x0 DUP2 SWAP1 POP SWAP2 SWAP1 POP JUMP JUMPDEST PUSH1 0x0 PUSH2 0x40D DUP3 PUSH2 0x3F8 JUMP JUMPDEST SWAP2 POP PUSH32 0xFFFFFFFFFFFFFFFFFFFFFFFFFFFFFFFFFFFFFFFFFFFFFFFFFFFFFFFFFFFFFFFF DUP3 EQ ISZERO PUSH2 0x440 JUMPI PUSH2 0x43F PUSH2 0x44B JUMP JUMPDEST JUMPDEST PUSH1 0x1 DUP3 ADD SWAP1 POP SWAP2 SWAP1 POP JUMP JUMPDEST PUSH32 0x4E487B7100000000000000000000000000000000000000000000000000000000 PUSH1 0x0 MSTORE PUSH1 0x11 PUSH1 0x4 MSTORE PUSH1 0x24 PUSH1 0x0 REVERT JUMPDEST PUSH32 0x4E487B7100000000000000000000000000000000000000000000000000000000 PUSH1 0x0 MSTORE PUSH1 0x32 PUSH1 0x4 MSTORE PUSH1 0x24 PUSH1 0x0 REVERT JUMPDEST PUSH1 0x0 DUP1 REVERT JUMPDEST PUSH2 0x4B7 DUP2 PUSH2 0x3F8 JUMP JUMPDEST DUP2 EQ PUSH2 0x4C2 JUMPI PUSH1 0x0 DUP1 REVERT JUMPDEST POP JUMP INVALID LOG2 PUSH5 0x6970667358 0x22 SLT KECCAK256 PUSH5 0x98B60368E PUSH19 0xC27456AFEB1C2B03694D5D8305CB8F7FDB770A PUSH10 0xD2EBD14E8964736F6C63 NUMBER STOP ADDMOD SMOD STOP CALLER "
		},
		"gasEstimates": {
			"creation": {
				"codeDepositCost": "255000",
				"executionCost": "294",
				"totalCost": "255294"
			},
			"external": {
				"insert(uint256,uint256)": "infinite",
				"sum()": "328"
			}
		},
		"methodIdentifiers": {
			"insert(uint256,uint256)": "1d834a1b",
			"sum()": "853255cc"
		}
	},
	"abi": [
		{
			"inputs": [
				{
					"internalType": "uint256",
					"name": "k",
					"type": "uint256"
				},
				{
					"internalType": "uint256",
					"name": "v",
					"type": "uint256"
				}
			],
			"name": "insert",
			"outputs": [
				{
					"internalType": "uint256",
					"name": "size",
					"type": "uint256"
				}
			],
			"stateMutability": "nonpayable",
			"type": "function"
		},
		{
			"inputs": [],
			"name": "sum",
			"outputs": [
				{
					"internalType": "uint256",
					"name": "s",
					"type": "uint256"
				}
			],
			"stateMutability": "view",
			"type": "function"
		}
	]
}