{
	"study/chapter03/hash.sol": {
		"testHash": {
			"abi": [
				{
					"inputs": [],
					"name": "a",
					"outputs": [
						{
							"internalType": "uint256",
							"name": "",
							"type": "uint256"
						}
					],
					"stateMutability": "view",
					"type": "function"
				},
				{
					"inputs": [
						{
							"internalType": "uint256",
							"name": "b",
							"type": "uint256"
						}
					],
					"name": "add",
					"outputs": [],
					"stateMutability": "nonpayable",
					"type": "function"
				},
				{
					"inputs": [],
					"name": "genSelector",
					"outputs": [
						{
							"internalType": "bytes4",
							"name": "",
							"type": "bytes4"
						}
					],
					"stateMutability": "view",
					"type": "function"
				},
				{
					"inputs": [],
					"name": "isequal",
					"outputs": [
						{
							"internalType": "bool",
							"name": "",
							"type": "bool"
						}
					],
					"stateMutability": "view",
					"type": "function"
				},
				{
					"inputs": [],
					"name": "ripemd",
					"outputs": [
						{
							"internalType": "bytes32",
							"name": "",
							"type": "bytes32"
						}
					],
					"stateMutability": "view",
					"type": "function"
				},
				{
					"inputs": [],
					"name": "selector",
					"outputs": [
						{
							"internalType": "bytes4",
							"name": "",
							"type": "bytes4"
						}
					],
					"stateMutability": "view",
					"type": "function"
				},
				{
					"inputs": [],
					"name": "sha",
					"outputs": [
						{
							"internalType": "bytes32",
							"name": "",
							"type": "bytes32"
						}
					],
					"stateMutability": "view",
					"type": "function"
				}
			],
			"devdoc": {
				"kind": "dev",
				"methods": {},
				"version": 1
			},
			"evm": {
				"assembly": "    /* \"study/chapter03/hash.sol\":54:526  contract testHash{... */\n  mstore(0x40, 0x80)\n    /* \"study/chapter03/hash.sol\":279:296  this.add.selector */\n  shl(0xe0, 0x1003e2d2)\n    /* \"study/chapter03/hash.sol\":254:296  bytes4 public selector = this.add.selector */\n  0x01\n  exp(0x0100, 0x00)\n  dup2\n  sload\n  dup2\n  0xffffffff\n  mul\n  not\n  and\n  swap1\n  dup4\n  0xe0\n  shr\n  mul\n  or\n  swap1\n  sstore\n  pop\n    /* \"study/chapter03/hash.sol\":337:362  keccak256(\"add(uint256)\") */\n  0x1003e2d21e48445eba32f76cea1db2f704e754da30edaf8608ddc0f67abca5d0\n    /* \"study/chapter03/hash.sol\":302:363  bytes4 public genSelector = bytes4(keccak256(\"add(uint256)\")) */\n  0x01\n  exp(0x0100, 0x04)\n  dup2\n  sload\n  dup2\n  0xffffffff\n  mul\n  not\n  and\n  swap1\n  dup4\n  0xe0\n  shr\n  mul\n  or\n  swap1\n  sstore\n  pop\n    /* \"study/chapter03/hash.sol\":402:413  genSelector */\n  0x01\n  0x04\n  swap1\n  sload\n  swap1\n  0x0100\n  exp\n  swap1\n  div\n  0xe0\n  shl\n    /* \"study/chapter03/hash.sol\":392:413  selector==genSelector */\n  not(0xffffffffffffffffffffffffffffffffffffffffffffffffffffffff)\n  and\n    /* \"study/chapter03/hash.sol\":392:400  selector */\n  0x01\n  0x00\n  swap1\n  sload\n  swap1\n  0x0100\n  exp\n  swap1\n  div\n  0xe0\n  shl\n    /* \"study/chapter03/hash.sol\":392:413  selector==genSelector */\n  not(0xffffffffffffffffffffffffffffffffffffffffffffffffffffffff)\n  and\n  eq\n    /* \"study/chapter03/hash.sol\":369:414  bool public isequal = (selector==genSelector) */\n  0x01\n  exp(0x0100, 0x08)\n  dup2\n  sload\n  dup2\n  0xff\n  mul\n  not\n  and\n  swap1\n  dup4\n  iszero\n  iszero\n  mul\n  or\n  swap1\n  sstore\n  pop\n    /* \"study/chapter03/hash.sol\":446:468  sha256(\"add(uint256)\") */\n  0x02\n  mload(0x40)\n  tag_1\n  swap1\n  tag_2\n  jump\t// in\ntag_1:\n  0x20\n  mload(0x40)\n  dup1\n  dup4\n  sub\n  dup2\n  dup6\n  gas\n  staticcall\n  iszero\n  dup1\n  iszero\n  tag_4\n  jumpi\n  returndatasize\n  0x00\n  dup1\n  returndatacopy\n  revert(0x00, returndatasize)\ntag_4:\n  pop\n  pop\n  pop\n  mload(0x40)\n  returndatasize\n  not(0x1f)\n  0x1f\n  dup3\n  add\n  and\n  dup3\n  add\n  dup1\n  0x40\n  mstore\n  pop\n  dup2\n  add\n  swap1\n  tag_5\n  swap2\n  swap1\n  tag_6\n  jump\t// in\ntag_5:\n    /* \"study/chapter03/hash.sol\":425:468  bytes32 public sha = sha256(\"add(uint256)\") */\n  0x02\n  sstore\n    /* \"study/chapter03/hash.sol\":498:523  ripemd160(\"add(uint256)\") */\n  0x03\n  mload(0x40)\n  tag_7\n  swap1\n  tag_2\n  jump\t// in\ntag_7:\n  0x20\n  mload(0x40)\n  dup1\n  dup4\n  sub\n  dup2\n  dup6\n  gas\n  staticcall\n  iszero\n  dup1\n  iszero\n  tag_9\n  jumpi\n  returndatasize\n  0x00\n  dup1\n  returndatacopy\n  revert(0x00, returndatasize)\ntag_9:\n  pop\n  pop\n  pop\n  shl(0x60, mload(mload(0x40)))\n    /* \"study/chapter03/hash.sol\":474:523  bytes32 public ripemd = ripemd160(\"add(uint256)\") */\n  not(0xffffffffffffffffffffffff)\n  and\n  0x03\n  sstore\n    /* \"study/chapter03/hash.sol\":54:526  contract testHash{... */\n  callvalue\n  dup1\n  iszero\n  tag_10\n  jumpi\n  0x00\n  dup1\n  revert\ntag_10:\n  pop\n  jump(tag_11)\n    /* \"#utility.yul\":7:150   */\ntag_13:\n    /* \"#utility.yul\":64:69   */\n  0x00\n    /* \"#utility.yul\":95:101   */\n  dup2\n    /* \"#utility.yul\":89:102   */\n  mload\n    /* \"#utility.yul\":80:102   */\n  swap1\n  pop\n    /* \"#utility.yul\":111:144   */\n  tag_15\n    /* \"#utility.yul\":138:143   */\n  dup2\n    /* \"#utility.yul\":111:144   */\n  tag_16\n  jump\t// in\ntag_15:\n    /* \"#utility.yul\":70:150   */\n  swap3\n  swap2\n  pop\n  pop\n  jump\t// out\n    /* \"#utility.yul\":156:507   */\ntag_6:\n    /* \"#utility.yul\":226:232   */\n  0x00\n    /* \"#utility.yul\":275:277   */\n  0x20\n    /* \"#utility.yul\":263:272   */\n  dup3\n    /* \"#utility.yul\":254:261   */\n  dup5\n    /* \"#utility.yul\":250:273   */\n  sub\n    /* \"#utility.yul\":246:278   */\n  slt\n    /* \"#utility.yul\":243:245   */\n  iszero\n  tag_18\n  jumpi\n    /* \"#utility.yul\":281:360   */\n  tag_19\n  tag_20\n  jump\t// in\ntag_19:\n    /* \"#utility.yul\":243:245   */\ntag_18:\n    /* \"#utility.yul\":401:402   */\n  0x00\n    /* \"#utility.yul\":426:490   */\n  tag_21\n    /* \"#utility.yul\":482:489   */\n  dup5\n    /* \"#utility.yul\":473:479   */\n  dup3\n    /* \"#utility.yul\":462:471   */\n  dup6\n    /* \"#utility.yul\":458:480   */\n  add\n    /* \"#utility.yul\":426:490   */\n  tag_13\n  jump\t// in\ntag_21:\n    /* \"#utility.yul\":416:490   */\n  swap2\n  pop\n    /* \"#utility.yul\":372:500   */\n  pop\n    /* \"#utility.yul\":233:507   */\n  swap3\n  swap2\n  pop\n  pop\n  jump\t// out\n    /* \"#utility.yul\":513:913   */\ntag_22:\n    /* \"#utility.yul\":672:675   */\n  0x00\n    /* \"#utility.yul\":693:777   */\n  tag_24\n    /* \"#utility.yul\":774:776   */\n  0x0c\n    /* \"#utility.yul\":769:772   */\n  dup4\n    /* \"#utility.yul\":693:777   */\n  tag_25\n  jump\t// in\ntag_24:\n    /* \"#utility.yul\":686:777   */\n  swap2\n  pop\n    /* \"#utility.yul\":786:879   */\n  tag_26\n    /* \"#utility.yul\":875:878   */\n  dup3\n    /* \"#utility.yul\":786:879   */\n  tag_27\n  jump\t// in\ntag_26:\n    /* \"#utility.yul\":904:906   */\n  0x0c\n    /* \"#utility.yul\":899:902   */\n  dup3\n    /* \"#utility.yul\":895:907   */\n  add\n    /* \"#utility.yul\":888:907   */\n  swap1\n  pop\n    /* \"#utility.yul\":676:913   */\n  swap2\n  swap1\n  pop\n  jump\t// out\n    /* \"#utility.yul\":919:1298   */\ntag_2:\n    /* \"#utility.yul\":1103:1106   */\n  0x00\n    /* \"#utility.yul\":1125:1272   */\n  tag_29\n    /* \"#utility.yul\":1268:1271   */\n  dup3\n    /* \"#utility.yul\":1125:1272   */\n  tag_22\n  jump\t// in\ntag_29:\n    /* \"#utility.yul\":1118:1272   */\n  swap2\n  pop\n    /* \"#utility.yul\":1289:1292   */\n  dup2\n    /* \"#utility.yul\":1282:1292   */\n  swap1\n  pop\n    /* \"#utility.yul\":1107:1298   */\n  swap2\n  swap1\n  pop\n  jump\t// out\n    /* \"#utility.yul\":1385:1532   */\ntag_25:\n    /* \"#utility.yul\":1486:1497   */\n  0x00\n    /* \"#utility.yul\":1523:1526   */\n  dup2\n    /* \"#utility.yul\":1508:1526   */\n  swap1\n  pop\n    /* \"#utility.yul\":1498:1532   */\n  swap3\n  swap2\n  pop\n  pop\n  jump\t// out\n    /* \"#utility.yul\":1538:1615   */\ntag_33:\n    /* \"#utility.yul\":1575:1582   */\n  0x00\n    /* \"#utility.yul\":1604:1609   */\n  dup2\n    /* \"#utility.yul\":1593:1609   */\n  swap1\n  pop\n    /* \"#utility.yul\":1583:1615   */\n  swap2\n  swap1\n  pop\n  jump\t// out\n    /* \"#utility.yul\":1744:1861   */\ntag_20:\n    /* \"#utility.yul\":1853:1854   */\n  0x00\n    /* \"#utility.yul\":1850:1851   */\n  dup1\n    /* \"#utility.yul\":1843:1855   */\n  revert\n    /* \"#utility.yul\":1867:2029   */\ntag_27:\n    /* \"#utility.yul\":2007:2021   */\n  0x6164642875696e74323536290000000000000000000000000000000000000000\n    /* \"#utility.yul\":2003:2004   */\n  0x00\n    /* \"#utility.yul\":1995:2001   */\n  dup3\n    /* \"#utility.yul\":1991:2005   */\n  add\n    /* \"#utility.yul\":1984:2022   */\n  mstore\n    /* \"#utility.yul\":1973:2029   */\n  pop\n  jump\t// out\n    /* \"#utility.yul\":2035:2157   */\ntag_16:\n    /* \"#utility.yul\":2108:2132   */\n  tag_40\n    /* \"#utility.yul\":2126:2131   */\n  dup2\n    /* \"#utility.yul\":2108:2132   */\n  tag_33\n  jump\t// in\ntag_40:\n    /* \"#utility.yul\":2101:2106   */\n  dup2\n    /* \"#utility.yul\":2098:2133   */\n  eq\n    /* \"#utility.yul\":2088:2090   */\n  tag_41\n  jumpi\n    /* \"#utility.yul\":2147:2148   */\n  0x00\n    /* \"#utility.yul\":2144:2145   */\n  dup1\n    /* \"#utility.yul\":2137:2149   */\n  revert\n    /* \"#utility.yul\":2088:2090   */\ntag_41:\n    /* \"#utility.yul\":2078:2157   */\n  pop\n  jump\t// out\n    /* \"study/chapter03/hash.sol\":54:526  contract testHash{... */\ntag_11:\n  dataSize(sub_0)\n  dup1\n  dataOffset(sub_0)\n  0x00\n  codecopy\n  0x00\n  return\nstop\n\nsub_0: assembly {\n        /* \"study/chapter03/hash.sol\":54:526  contract testHash{... */\n      mstore(0x40, 0x80)\n      callvalue\n      dup1\n      iszero\n      tag_1\n      jumpi\n      0x00\n      dup1\n      revert\n    tag_1:\n      pop\n      jumpi(tag_2, lt(calldatasize, 0x04))\n      shr(0xe0, calldataload(0x00))\n      dup1\n      0x65707d6f\n      gt\n      tag_10\n      jumpi\n      dup1\n      0x65707d6f\n      eq\n      tag_6\n      jumpi\n      dup1\n      0x77aed5de\n      eq\n      tag_7\n      jumpi\n      dup1\n      0xa1e754ea\n      eq\n      tag_8\n      jumpi\n      dup1\n      0xea3d508a\n      eq\n      tag_9\n      jumpi\n      jump(tag_2)\n    tag_10:\n      dup1\n      0x011f0b2a\n      eq\n      tag_3\n      jumpi\n      dup1\n      0x0dbe671f\n      eq\n      tag_4\n      jumpi\n      dup1\n      0x1003e2d2\n      eq\n      tag_5\n      jumpi\n    tag_2:\n      0x00\n      dup1\n      revert\n        /* \"study/chapter03/hash.sol\":302:363  bytes4 public genSelector = bytes4(keccak256(\"add(uint256)\")) */\n    tag_3:\n      tag_11\n      tag_12\n      jump\t// in\n    tag_11:\n      mload(0x40)\n      tag_13\n      swap2\n      swap1\n      tag_14\n      jump\t// in\n    tag_13:\n      mload(0x40)\n      dup1\n      swap2\n      sub\n      swap1\n      return\n        /* \"study/chapter03/hash.sol\":77:90  uint public a */\n    tag_4:\n      tag_15\n      tag_16\n      jump\t// in\n    tag_15:\n      mload(0x40)\n      tag_17\n      swap2\n      swap1\n      tag_18\n      jump\t// in\n    tag_17:\n      mload(0x40)\n      dup1\n      swap2\n      sub\n      swap1\n      return\n        /* \"study/chapter03/hash.sol\":96:141  function add(uint b) public {... */\n    tag_5:\n      tag_19\n      0x04\n      dup1\n      calldatasize\n      sub\n      dup2\n      add\n      swap1\n      tag_20\n      swap2\n      swap1\n      tag_21\n      jump\t// in\n    tag_20:\n      tag_22\n      jump\t// in\n    tag_19:\n      stop\n        /* \"study/chapter03/hash.sol\":425:468  bytes32 public sha = sha256(\"add(uint256)\") */\n    tag_6:\n      tag_23\n      tag_24\n      jump\t// in\n    tag_23:\n      mload(0x40)\n      tag_25\n      swap2\n      swap1\n      tag_26\n      jump\t// in\n    tag_25:\n      mload(0x40)\n      dup1\n      swap2\n      sub\n      swap1\n      return\n        /* \"study/chapter03/hash.sol\":369:414  bool public isequal = (selector==genSelector) */\n    tag_7:\n      tag_27\n      tag_28\n      jump\t// in\n    tag_27:\n      mload(0x40)\n      tag_29\n      swap2\n      swap1\n      tag_30\n      jump\t// in\n    tag_29:\n      mload(0x40)\n      dup1\n      swap2\n      sub\n      swap1\n      return\n        /* \"study/chapter03/hash.sol\":474:523  bytes32 public ripemd = ripemd160(\"add(uint256)\") */\n    tag_8:\n      tag_31\n      tag_32\n      jump\t// in\n    tag_31:\n      mload(0x40)\n      tag_33\n      swap2\n      swap1\n      tag_26\n      jump\t// in\n    tag_33:\n      mload(0x40)\n      dup1\n      swap2\n      sub\n      swap1\n      return\n        /* \"study/chapter03/hash.sol\":254:296  bytes4 public selector = this.add.selector */\n    tag_9:\n      tag_34\n      tag_35\n      jump\t// in\n    tag_34:\n      mload(0x40)\n      tag_36\n      swap2\n      swap1\n      tag_14\n      jump\t// in\n    tag_36:\n      mload(0x40)\n      dup1\n      swap2\n      sub\n      swap1\n      return\n        /* \"study/chapter03/hash.sol\":302:363  bytes4 public genSelector = bytes4(keccak256(\"add(uint256)\")) */\n    tag_12:\n      0x01\n      0x04\n      swap1\n      sload\n      swap1\n      0x0100\n      exp\n      swap1\n      div\n      0xe0\n      shl\n      dup2\n      jump\t// out\n        /* \"study/chapter03/hash.sol\":77:90  uint public a */\n    tag_16:\n      sload(0x00)\n      dup2\n      jump\t// out\n        /* \"study/chapter03/hash.sol\":96:141  function add(uint b) public {... */\n    tag_22:\n        /* \"study/chapter03/hash.sol\":137:138  b */\n      dup1\n        /* \"study/chapter03/hash.sol\":134:135  a */\n      0x00\n      dup1\n        /* \"study/chapter03/hash.sol\":134:138  a+=b */\n      dup3\n      dup3\n      sload\n      tag_38\n      swap2\n      swap1\n      tag_39\n      jump\t// in\n    tag_38:\n      swap3\n      pop\n      pop\n      dup2\n      swap1\n      sstore\n      pop\n        /* \"study/chapter03/hash.sol\":96:141  function add(uint b) public {... */\n      pop\n      jump\t// out\n        /* \"study/chapter03/hash.sol\":425:468  bytes32 public sha = sha256(\"add(uint256)\") */\n    tag_24:\n      sload(0x02)\n      dup2\n      jump\t// out\n        /* \"study/chapter03/hash.sol\":369:414  bool public isequal = (selector==genSelector) */\n    tag_28:\n      0x01\n      0x08\n      swap1\n      sload\n      swap1\n      0x0100\n      exp\n      swap1\n      div\n      0xff\n      and\n      dup2\n      jump\t// out\n        /* \"study/chapter03/hash.sol\":474:523  bytes32 public ripemd = ripemd160(\"add(uint256)\") */\n    tag_32:\n      sload(0x03)\n      dup2\n      jump\t// out\n        /* \"study/chapter03/hash.sol\":254:296  bytes4 public selector = this.add.selector */\n    tag_35:\n      0x01\n      0x00\n      swap1\n      sload\n      swap1\n      0x0100\n      exp\n      swap1\n      div\n      0xe0\n      shl\n      dup2\n      jump\t// out\n        /* \"#utility.yul\":7:146   */\n    tag_41:\n        /* \"#utility.yul\":53:58   */\n      0x00\n        /* \"#utility.yul\":91:97   */\n      dup2\n        /* \"#utility.yul\":78:98   */\n      calldataload\n        /* \"#utility.yul\":69:98   */\n      swap1\n      pop\n        /* \"#utility.yul\":107:140   */\n      tag_43\n        /* \"#utility.yul\":134:139   */\n      dup2\n        /* \"#utility.yul\":107:140   */\n      tag_44\n      jump\t// in\n    tag_43:\n        /* \"#utility.yul\":59:146   */\n      swap3\n      swap2\n      pop\n      pop\n      jump\t// out\n        /* \"#utility.yul\":152:481   */\n    tag_21:\n        /* \"#utility.yul\":211:217   */\n      0x00\n        /* \"#utility.yul\":260:262   */\n      0x20\n        /* \"#utility.yul\":248:257   */\n      dup3\n        /* \"#utility.yul\":239:246   */\n      dup5\n        /* \"#utility.yul\":235:258   */\n      sub\n        /* \"#utility.yul\":231:263   */\n      slt\n        /* \"#utility.yul\":228:230   */\n      iszero\n      tag_46\n      jumpi\n        /* \"#utility.yul\":266:345   */\n      tag_47\n      tag_48\n      jump\t// in\n    tag_47:\n        /* \"#utility.yul\":228:230   */\n    tag_46:\n        /* \"#utility.yul\":386:387   */\n      0x00\n        /* \"#utility.yul\":411:464   */\n      tag_49\n        /* \"#utility.yul\":456:463   */\n      dup5\n        /* \"#utility.yul\":447:453   */\n      dup3\n        /* \"#utility.yul\":436:445   */\n      dup6\n        /* \"#utility.yul\":432:454   */\n      add\n        /* \"#utility.yul\":411:464   */\n      tag_41\n      jump\t// in\n    tag_49:\n        /* \"#utility.yul\":401:464   */\n      swap2\n      pop\n        /* \"#utility.yul\":357:474   */\n      pop\n        /* \"#utility.yul\":218:481   */\n      swap3\n      swap2\n      pop\n      pop\n      jump\t// out\n        /* \"#utility.yul\":487:596   */\n    tag_50:\n        /* \"#utility.yul\":568:589   */\n      tag_52\n        /* \"#utility.yul\":583:588   */\n      dup2\n        /* \"#utility.yul\":568:589   */\n      tag_53\n      jump\t// in\n    tag_52:\n        /* \"#utility.yul\":563:566   */\n      dup3\n        /* \"#utility.yul\":556:590   */\n      mstore\n        /* \"#utility.yul\":546:596   */\n      pop\n      pop\n      jump\t// out\n        /* \"#utility.yul\":602:720   */\n    tag_54:\n        /* \"#utility.yul\":689:713   */\n      tag_56\n        /* \"#utility.yul\":707:712   */\n      dup2\n        /* \"#utility.yul\":689:713   */\n      tag_57\n      jump\t// in\n    tag_56:\n        /* \"#utility.yul\":684:687   */\n      dup3\n        /* \"#utility.yul\":677:714   */\n      mstore\n        /* \"#utility.yul\":667:720   */\n      pop\n      pop\n      jump\t// out\n        /* \"#utility.yul\":726:841   */\n    tag_58:\n        /* \"#utility.yul\":811:834   */\n      tag_60\n        /* \"#utility.yul\":828:833   */\n      dup2\n        /* \"#utility.yul\":811:834   */\n      tag_61\n      jump\t// in\n    tag_60:\n        /* \"#utility.yul\":806:809   */\n      dup3\n        /* \"#utility.yul\":799:835   */\n      mstore\n        /* \"#utility.yul\":789:841   */\n      pop\n      pop\n      jump\t// out\n        /* \"#utility.yul\":847:965   */\n    tag_62:\n        /* \"#utility.yul\":934:958   */\n      tag_64\n        /* \"#utility.yul\":952:957   */\n      dup2\n        /* \"#utility.yul\":934:958   */\n      tag_65\n      jump\t// in\n    tag_64:\n        /* \"#utility.yul\":929:932   */\n      dup3\n        /* \"#utility.yul\":922:959   */\n      mstore\n        /* \"#utility.yul\":912:965   */\n      pop\n      pop\n      jump\t// out\n        /* \"#utility.yul\":971:1181   */\n    tag_30:\n        /* \"#utility.yul\":1058:1062   */\n      0x00\n        /* \"#utility.yul\":1096:1098   */\n      0x20\n        /* \"#utility.yul\":1085:1094   */\n      dup3\n        /* \"#utility.yul\":1081:1099   */\n      add\n        /* \"#utility.yul\":1073:1099   */\n      swap1\n      pop\n        /* \"#utility.yul\":1109:1174   */\n      tag_67\n        /* \"#utility.yul\":1171:1172   */\n      0x00\n        /* \"#utility.yul\":1160:1169   */\n      dup4\n        /* \"#utility.yul\":1156:1173   */\n      add\n        /* \"#utility.yul\":1147:1153   */\n      dup5\n        /* \"#utility.yul\":1109:1174   */\n      tag_50\n      jump\t// in\n    tag_67:\n        /* \"#utility.yul\":1063:1181   */\n      swap3\n      swap2\n      pop\n      pop\n      jump\t// out\n        /* \"#utility.yul\":1187:1409   */\n    tag_26:\n        /* \"#utility.yul\":1280:1284   */\n      0x00\n        /* \"#utility.yul\":1318:1320   */\n      0x20\n        /* \"#utility.yul\":1307:1316   */\n      dup3\n        /* \"#utility.yul\":1303:1321   */\n      add\n        /* \"#utility.yul\":1295:1321   */\n      swap1\n      pop\n        /* \"#utility.yul\":1331:1402   */\n      tag_69\n        /* \"#utility.yul\":1399:1400   */\n      0x00\n        /* \"#utility.yul\":1388:1397   */\n      dup4\n        /* \"#utility.yul\":1384:1401   */\n      add\n        /* \"#utility.yul\":1375:1381   */\n      dup5\n        /* \"#utility.yul\":1331:1402   */\n      tag_54\n      jump\t// in\n    tag_69:\n        /* \"#utility.yul\":1285:1409   */\n      swap3\n      swap2\n      pop\n      pop\n      jump\t// out\n        /* \"#utility.yul\":1415:1633   */\n    tag_14:\n        /* \"#utility.yul\":1506:1510   */\n      0x00\n        /* \"#utility.yul\":1544:1546   */\n      0x20\n        /* \"#utility.yul\":1533:1542   */\n      dup3\n        /* \"#utility.yul\":1529:1547   */\n      add\n        /* \"#utility.yul\":1521:1547   */\n      swap1\n      pop\n        /* \"#utility.yul\":1557:1626   */\n      tag_71\n        /* \"#utility.yul\":1623:1624   */\n      0x00\n        /* \"#utility.yul\":1612:1621   */\n      dup4\n        /* \"#utility.yul\":1608:1625   */\n      add\n        /* \"#utility.yul\":1599:1605   */\n      dup5\n        /* \"#utility.yul\":1557:1626   */\n      tag_58\n      jump\t// in\n    tag_71:\n        /* \"#utility.yul\":1511:1633   */\n      swap3\n      swap2\n      pop\n      pop\n      jump\t// out\n        /* \"#utility.yul\":1639:1861   */\n    tag_18:\n        /* \"#utility.yul\":1732:1736   */\n      0x00\n        /* \"#utility.yul\":1770:1772   */\n      0x20\n        /* \"#utility.yul\":1759:1768   */\n      dup3\n        /* \"#utility.yul\":1755:1773   */\n      add\n        /* \"#utility.yul\":1747:1773   */\n      swap1\n      pop\n        /* \"#utility.yul\":1783:1854   */\n      tag_73\n        /* \"#utility.yul\":1851:1852   */\n      0x00\n        /* \"#utility.yul\":1840:1849   */\n      dup4\n        /* \"#utility.yul\":1836:1853   */\n      add\n        /* \"#utility.yul\":1827:1833   */\n      dup5\n        /* \"#utility.yul\":1783:1854   */\n      tag_62\n      jump\t// in\n    tag_73:\n        /* \"#utility.yul\":1737:1861   */\n      swap3\n      swap2\n      pop\n      pop\n      jump\t// out\n        /* \"#utility.yul\":1948:2253   */\n    tag_39:\n        /* \"#utility.yul\":1988:1991   */\n      0x00\n        /* \"#utility.yul\":2007:2027   */\n      tag_77\n        /* \"#utility.yul\":2025:2026   */\n      dup3\n        /* \"#utility.yul\":2007:2027   */\n      tag_65\n      jump\t// in\n    tag_77:\n        /* \"#utility.yul\":2002:2027   */\n      swap2\n      pop\n        /* \"#utility.yul\":2041:2061   */\n      tag_78\n        /* \"#utility.yul\":2059:2060   */\n      dup4\n        /* \"#utility.yul\":2041:2061   */\n      tag_65\n      jump\t// in\n    tag_78:\n        /* \"#utility.yul\":2036:2061   */\n      swap3\n      pop\n        /* \"#utility.yul\":2195:2196   */\n      dup3\n        /* \"#utility.yul\":2127:2193   */\n      0xffffffffffffffffffffffffffffffffffffffffffffffffffffffffffffffff\n        /* \"#utility.yul\":2123:2197   */\n      sub\n        /* \"#utility.yul\":2120:2121   */\n      dup3\n        /* \"#utility.yul\":2117:2198   */\n      gt\n        /* \"#utility.yul\":2114:2116   */\n      iszero\n      tag_79\n      jumpi\n        /* \"#utility.yul\":2201:2219   */\n      tag_80\n      tag_81\n      jump\t// in\n    tag_80:\n        /* \"#utility.yul\":2114:2116   */\n    tag_79:\n        /* \"#utility.yul\":2245:2246   */\n      dup3\n        /* \"#utility.yul\":2242:2243   */\n      dup3\n        /* \"#utility.yul\":2238:2247   */\n      add\n        /* \"#utility.yul\":2231:2247   */\n      swap1\n      pop\n        /* \"#utility.yul\":1992:2253   */\n      swap3\n      swap2\n      pop\n      pop\n      jump\t// out\n        /* \"#utility.yul\":2259:2349   */\n    tag_53:\n        /* \"#utility.yul\":2293:2300   */\n      0x00\n        /* \"#utility.yul\":2336:2341   */\n      dup2\n        /* \"#utility.yul\":2329:2342   */\n      iszero\n        /* \"#utility.yul\":2322:2343   */\n      iszero\n        /* \"#utility.yul\":2311:2343   */\n      swap1\n      pop\n        /* \"#utility.yul\":2301:2349   */\n      swap2\n      swap1\n      pop\n      jump\t// out\n        /* \"#utility.yul\":2355:2432   */\n    tag_57:\n        /* \"#utility.yul\":2392:2399   */\n      0x00\n        /* \"#utility.yul\":2421:2426   */\n      dup2\n        /* \"#utility.yul\":2410:2426   */\n      swap1\n      pop\n        /* \"#utility.yul\":2400:2432   */\n      swap2\n      swap1\n      pop\n      jump\t// out\n        /* \"#utility.yul\":2438:2587   */\n    tag_61:\n        /* \"#utility.yul\":2474:2481   */\n      0x00\n        /* \"#utility.yul\":2514:2580   */\n      0xffffffff00000000000000000000000000000000000000000000000000000000\n        /* \"#utility.yul\":2507:2512   */\n      dup3\n        /* \"#utility.yul\":2503:2581   */\n      and\n        /* \"#utility.yul\":2492:2581   */\n      swap1\n      pop\n        /* \"#utility.yul\":2482:2587   */\n      swap2\n      swap1\n      pop\n      jump\t// out\n        /* \"#utility.yul\":2593:2670   */\n    tag_65:\n        /* \"#utility.yul\":2630:2637   */\n      0x00\n        /* \"#utility.yul\":2659:2664   */\n      dup2\n        /* \"#utility.yul\":2648:2664   */\n      swap1\n      pop\n        /* \"#utility.yul\":2638:2670   */\n      swap2\n      swap1\n      pop\n      jump\t// out\n        /* \"#utility.yul\":2676:2856   */\n    tag_81:\n        /* \"#utility.yul\":2724:2801   */\n      0x4e487b7100000000000000000000000000000000000000000000000000000000\n        /* \"#utility.yul\":2721:2722   */\n      0x00\n        /* \"#utility.yul\":2714:2802   */\n      mstore\n        /* \"#utility.yul\":2821:2825   */\n      0x11\n        /* \"#utility.yul\":2818:2819   */\n      0x04\n        /* \"#utility.yul\":2811:2826   */\n      mstore\n        /* \"#utility.yul\":2845:2849   */\n      0x24\n        /* \"#utility.yul\":2842:2843   */\n      0x00\n        /* \"#utility.yul\":2835:2850   */\n      revert\n        /* \"#utility.yul\":2985:3102   */\n    tag_48:\n        /* \"#utility.yul\":3094:3095   */\n      0x00\n        /* \"#utility.yul\":3091:3092   */\n      dup1\n        /* \"#utility.yul\":3084:3096   */\n      revert\n        /* \"#utility.yul\":3108:3230   */\n    tag_44:\n        /* \"#utility.yul\":3181:3205   */\n      tag_91\n        /* \"#utility.yul\":3199:3204   */\n      dup2\n        /* \"#utility.yul\":3181:3205   */\n      tag_65\n      jump\t// in\n    tag_91:\n        /* \"#utility.yul\":3174:3179   */\n      dup2\n        /* \"#utility.yul\":3171:3206   */\n      eq\n        /* \"#utility.yul\":3161:3163   */\n      tag_92\n      jumpi\n        /* \"#utility.yul\":3220:3221   */\n      0x00\n        /* \"#utility.yul\":3217:3218   */\n      dup1\n        /* \"#utility.yul\":3210:3222   */\n      revert\n        /* \"#utility.yul\":3161:3163   */\n    tag_92:\n        /* \"#utility.yul\":3151:3230   */\n      pop\n      jump\t// out\n\n    auxdata: 0xa264697066735822122042f97967e5e98d5b3658d5eceb5092974edcf489c1cff990c7aeb3f4d737240764736f6c63430008060033\n}\n",
				"bytecode": {
					"linkReferences": {},
					"object": "6080604052631003e2d260e01b600160006101000a81548163ffffffff021916908360e01c02179055507f1003e2d21e48445eba32f76cea1db2f704e754da30edaf8608ddc0f67abca5d0600160046101000a81548163ffffffff021916908360e01c0217905550600160049054906101000a900460e01b7bffffffffffffffffffffffffffffffffffffffffffffffffffffffff1916600160009054906101000a900460e01b7bffffffffffffffffffffffffffffffffffffffffffffffffffffffff191614600160086101000a81548160ff02191690831515021790555060026040516100ed906101ee565b602060405180830381855afa15801561010a573d6000803e3d6000fd5b5050506040513d601f19601f8201168201806040525081019061012d919061019e565b600255600360405161013e906101ee565b602060405180830381855afa15801561015b573d6000803e3d6000fd5b5050506040515160601b6bffffffffffffffffffffffff191660035534801561018357600080fd5b5061025d565b60008151905061019881610246565b92915050565b6000602082840312156101b4576101b3610218565b5b60006101c284828501610189565b91505092915050565b60006101d8600c83610203565b91506101e38261021d565b600c82019050919050565b60006101f9826101cb565b9150819050919050565b600081905092915050565b6000819050919050565b600080fd5b7f6164642875696e74323536290000000000000000000000000000000000000000600082015250565b61024f8161020e565b811461025a57600080fd5b50565b6103c58061026c6000396000f3fe608060405234801561001057600080fd5b506004361061007d5760003560e01c806365707d6f1161005b57806365707d6f146100da57806377aed5de146100f8578063a1e754ea14610116578063ea3d508a146101345761007d565b8063011f0b2a146100825780630dbe671f146100a05780631003e2d2146100be575b600080fd5b61008a610152565b604051610097919061026c565b60405180910390f35b6100a8610165565b6040516100b59190610287565b60405180910390f35b6100d860048036038101906100d391906101cd565b61016b565b005b6100e2610186565b6040516100ef9190610251565b60405180910390f35b61010061018c565b60405161010d9190610236565b60405180910390f35b61011e61019f565b60405161012b9190610251565b60405180910390f35b61013c6101a5565b604051610149919061026c565b60405180910390f35b600160049054906101000a900460e01b81565b60005481565b8060008082825461017c91906102a2565b9250508190555050565b60025481565b600160089054906101000a900460ff1681565b60035481565b600160009054906101000a900460e01b81565b6000813590506101c781610378565b92915050565b6000602082840312156101e3576101e2610373565b5b60006101f1848285016101b8565b91505092915050565b610203816102f8565b82525050565b61021281610304565b82525050565b6102218161030e565b82525050565b6102308161033a565b82525050565b600060208201905061024b60008301846101fa565b92915050565b60006020820190506102666000830184610209565b92915050565b60006020820190506102816000830184610218565b92915050565b600060208201905061029c6000830184610227565b92915050565b60006102ad8261033a565b91506102b88361033a565b9250827fffffffffffffffffffffffffffffffffffffffffffffffffffffffffffffffff038211156102ed576102ec610344565b5b828201905092915050565b60008115159050919050565b6000819050919050565b60007fffffffff0000000000000000000000000000000000000000000000000000000082169050919050565b6000819050919050565b7f4e487b7100000000000000000000000000000000000000000000000000000000600052601160045260246000fd5b600080fd5b6103818161033a565b811461038c57600080fd5b5056fea264697066735822122042f97967e5e98d5b3658d5eceb5092974edcf489c1cff990c7aeb3f4d737240764736f6c63430008060033",
					"opcodes": "PUSH1 0x80 PUSH1 0x40 MSTORE PUSH4 0x1003E2D2 PUSH1 0xE0 SHL PUSH1 0x1 PUSH1 0x0 PUSH2 0x100 EXP DUP2 SLOAD DUP2 PUSH4 0xFFFFFFFF MUL NOT AND SWAP1 DUP4 PUSH1 0xE0 SHR MUL OR SWAP1 SSTORE POP PUSH32 0x1003E2D21E48445EBA32F76CEA1DB2F704E754DA30EDAF8608DDC0F67ABCA5D0 PUSH1 0x1 PUSH1 0x4 PUSH2 0x100 EXP DUP2 SLOAD DUP2 PUSH4 0xFFFFFFFF MUL NOT AND SWAP1 DUP4 PUSH1 0xE0 SHR MUL OR SWAP1 SSTORE POP PUSH1 0x1 PUSH1 0x4 SWAP1 SLOAD SWAP1 PUSH2 0x100 EXP SWAP1 DIV PUSH1 0xE0 SHL PUSH28 0xFFFFFFFFFFFFFFFFFFFFFFFFFFFFFFFFFFFFFFFFFFFFFFFFFFFFFFFF NOT AND PUSH1 0x1 PUSH1 0x0 SWAP1 SLOAD SWAP1 PUSH2 0x100 EXP SWAP1 DIV PUSH1 0xE0 SHL PUSH28 0xFFFFFFFFFFFFFFFFFFFFFFFFFFFFFFFFFFFFFFFFFFFFFFFFFFFFFFFF NOT AND EQ PUSH1 0x1 PUSH1 0x8 PUSH2 0x100 EXP DUP2 SLOAD DUP2 PUSH1 0xFF MUL NOT AND SWAP1 DUP4 ISZERO ISZERO MUL OR SWAP1 SSTORE POP PUSH1 0x2 PUSH1 0x40 MLOAD PUSH2 0xED SWAP1 PUSH2 0x1EE JUMP JUMPDEST PUSH1 0x20 PUSH1 0x40 MLOAD DUP1 DUP4 SUB DUP2 DUP6 GAS STATICCALL ISZERO DUP1 ISZERO PUSH2 0x10A JUMPI RETURNDATASIZE PUSH1 0x0 DUP1 RETURNDATACOPY RETURNDATASIZE PUSH1 0x0 REVERT JUMPDEST POP POP POP PUSH1 0x40 MLOAD RETURNDATASIZE PUSH1 0x1F NOT PUSH1 0x1F DUP3 ADD AND DUP3 ADD DUP1 PUSH1 0x40 MSTORE POP DUP2 ADD SWAP1 PUSH2 0x12D SWAP2 SWAP1 PUSH2 0x19E JUMP JUMPDEST PUSH1 0x2 SSTORE PUSH1 0x3 PUSH1 0x40 MLOAD PUSH2 0x13E SWAP1 PUSH2 0x1EE JUMP JUMPDEST PUSH1 0x20 PUSH1 0x40 MLOAD DUP1 DUP4 SUB DUP2 DUP6 GAS STATICCALL ISZERO DUP1 ISZERO PUSH2 0x15B JUMPI RETURNDATASIZE PUSH1 0x0 DUP1 RETURNDATACOPY RETURNDATASIZE PUSH1 0x0 REVERT JUMPDEST POP POP POP PUSH1 0x40 MLOAD MLOAD PUSH1 0x60 SHL PUSH12 0xFFFFFFFFFFFFFFFFFFFFFFFF NOT AND PUSH1 0x3 SSTORE CALLVALUE DUP1 ISZERO PUSH2 0x183 JUMPI PUSH1 0x0 DUP1 REVERT JUMPDEST POP PUSH2 0x25D JUMP JUMPDEST PUSH1 0x0 DUP2 MLOAD SWAP1 POP PUSH2 0x198 DUP2 PUSH2 0x246 JUMP JUMPDEST SWAP3 SWAP2 POP POP JUMP JUMPDEST PUSH1 0x0 PUSH1 0x20 DUP3 DUP5 SUB SLT ISZERO PUSH2 0x1B4 JUMPI PUSH2 0x1B3 PUSH2 0x218 JUMP JUMPDEST JUMPDEST PUSH1 0x0 PUSH2 0x1C2 DUP5 DUP3 DUP6 ADD PUSH2 0x189 JUMP JUMPDEST SWAP2 POP POP SWAP3 SWAP2 POP POP JUMP JUMPDEST PUSH1 0x0 PUSH2 0x1D8 PUSH1 0xC DUP4 PUSH2 0x203 JUMP JUMPDEST SWAP2 POP PUSH2 0x1E3 DUP3 PUSH2 0x21D JUMP JUMPDEST PUSH1 0xC DUP3 ADD SWAP1 POP SWAP2 SWAP1 POP JUMP JUMPDEST PUSH1 0x0 PUSH2 0x1F9 DUP3 PUSH2 0x1CB JUMP JUMPDEST SWAP2 POP DUP2 SWAP1 POP SWAP2 SWAP1 POP JUMP JUMPDEST PUSH1 0x0 DUP2 SWAP1 POP SWAP3 SWAP2 POP POP JUMP JUMPDEST PUSH1 0x0 DUP2 SWAP1 POP SWAP2 SWAP1 POP JUMP JUMPDEST PUSH1 0x0 DUP1 REVERT JUMPDEST PUSH32 0x6164642875696E74323536290000000000000000000000000000000000000000 PUSH1 0x0 DUP3 ADD MSTORE POP JUMP JUMPDEST PUSH2 0x24F DUP2 PUSH2 0x20E JUMP JUMPDEST DUP2 EQ PUSH2 0x25A JUMPI PUSH1 0x0 DUP1 REVERT JUMPDEST POP JUMP JUMPDEST PUSH2 0x3C5 DUP1 PUSH2 0x26C PUSH1 0x0 CODECOPY PUSH1 0x0 RETURN INVALID PUSH1 0x80 PUSH1 0x40 MSTORE CALLVALUE DUP1 ISZERO PUSH2 0x10 JUMPI PUSH1 0x0 DUP1 REVERT JUMPDEST POP PUSH1 0x4 CALLDATASIZE LT PUSH2 0x7D JUMPI PUSH1 0x0 CALLDATALOAD PUSH1 0xE0 SHR DUP1 PUSH4 0x65707D6F GT PUSH2 0x5B JUMPI DUP1 PUSH4 0x65707D6F EQ PUSH2 0xDA JUMPI DUP1 PUSH4 0x77AED5DE EQ PUSH2 0xF8 JUMPI DUP1 PUSH4 0xA1E754EA EQ PUSH2 0x116 JUMPI DUP1 PUSH4 0xEA3D508A EQ PUSH2 0x134 JUMPI PUSH2 0x7D JUMP JUMPDEST DUP1 PUSH4 0x11F0B2A EQ PUSH2 0x82 JUMPI DUP1 PUSH4 0xDBE671F EQ PUSH2 0xA0 JUMPI DUP1 PUSH4 0x1003E2D2 EQ PUSH2 0xBE JUMPI JUMPDEST PUSH1 0x0 DUP1 REVERT JUMPDEST PUSH2 0x8A PUSH2 0x152 JUMP JUMPDEST PUSH1 0x40 MLOAD PUSH2 0x97 SWAP2 SWAP1 PUSH2 0x26C JUMP JUMPDEST PUSH1 0x40 MLOAD DUP1 SWAP2 SUB SWAP1 RETURN JUMPDEST PUSH2 0xA8 PUSH2 0x165 JUMP JUMPDEST PUSH1 0x40 MLOAD PUSH2 0xB5 SWAP2 SWAP1 PUSH2 0x287 JUMP JUMPDEST PUSH1 0x40 MLOAD DUP1 SWAP2 SUB SWAP1 RETURN JUMPDEST PUSH2 0xD8 PUSH1 0x4 DUP1 CALLDATASIZE SUB DUP2 ADD SWAP1 PUSH2 0xD3 SWAP2 SWAP1 PUSH2 0x1CD JUMP JUMPDEST PUSH2 0x16B JUMP JUMPDEST STOP JUMPDEST PUSH2 0xE2 PUSH2 0x186 JUMP JUMPDEST PUSH1 0x40 MLOAD PUSH2 0xEF SWAP2 SWAP1 PUSH2 0x251 JUMP JUMPDEST PUSH1 0x40 MLOAD DUP1 SWAP2 SUB SWAP1 RETURN JUMPDEST PUSH2 0x100 PUSH2 0x18C JUMP JUMPDEST PUSH1 0x40 MLOAD PUSH2 0x10D SWAP2 SWAP1 PUSH2 0x236 JUMP JUMPDEST PUSH1 0x40 MLOAD DUP1 SWAP2 SUB SWAP1 RETURN JUMPDEST PUSH2 0x11E PUSH2 0x19F JUMP JUMPDEST PUSH1 0x40 MLOAD PUSH2 0x12B SWAP2 SWAP1 PUSH2 0x251 JUMP JUMPDEST PUSH1 0x40 MLOAD DUP1 SWAP2 SUB SWAP1 RETURN JUMPDEST PUSH2 0x13C PUSH2 0x1A5 JUMP JUMPDEST PUSH1 0x40 MLOAD PUSH2 0x149 SWAP2 SWAP1 PUSH2 0x26C JUMP JUMPDEST PUSH1 0x40 MLOAD DUP1 SWAP2 SUB SWAP1 RETURN JUMPDEST PUSH1 0x1 PUSH1 0x4 SWAP1 SLOAD SWAP1 PUSH2 0x100 EXP SWAP1 DIV PUSH1 0xE0 SHL DUP2 JUMP JUMPDEST PUSH1 0x0 SLOAD DUP2 JUMP JUMPDEST DUP1 PUSH1 0x0 DUP1 DUP3 DUP3 SLOAD PUSH2 0x17C SWAP2 SWAP1 PUSH2 0x2A2 JUMP JUMPDEST SWAP3 POP POP DUP2 SWAP1 SSTORE POP POP JUMP JUMPDEST PUSH1 0x2 SLOAD DUP2 JUMP JUMPDEST PUSH1 0x1 PUSH1 0x8 SWAP1 SLOAD SWAP1 PUSH2 0x100 EXP SWAP1 DIV PUSH1 0xFF AND DUP2 JUMP JUMPDEST PUSH1 0x3 SLOAD DUP2 JUMP JUMPDEST PUSH1 0x1 PUSH1 0x0 SWAP1 SLOAD SWAP1 PUSH2 0x100 EXP SWAP1 DIV PUSH1 0xE0 SHL DUP2 JUMP JUMPDEST PUSH1 0x0 DUP2 CALLDATALOAD SWAP1 POP PUSH2 0x1C7 DUP2 PUSH2 0x378 JUMP JUMPDEST SWAP3 SWAP2 POP POP JUMP JUMPDEST PUSH1 0x0 PUSH1 0x20 DUP3 DUP5 SUB SLT ISZERO PUSH2 0x1E3 JUMPI PUSH2 0x1E2 PUSH2 0x373 JUMP JUMPDEST JUMPDEST PUSH1 0x0 PUSH2 0x1F1 DUP5 DUP3 DUP6 ADD PUSH2 0x1B8 JUMP JUMPDEST SWAP2 POP POP SWAP3 SWAP2 POP POP JUMP JUMPDEST PUSH2 0x203 DUP2 PUSH2 0x2F8 JUMP JUMPDEST DUP3 MSTORE POP POP JUMP JUMPDEST PUSH2 0x212 DUP2 PUSH2 0x304 JUMP JUMPDEST DUP3 MSTORE POP POP JUMP JUMPDEST PUSH2 0x221 DUP2 PUSH2 0x30E JUMP JUMPDEST DUP3 MSTORE POP POP JUMP JUMPDEST PUSH2 0x230 DUP2 PUSH2 0x33A JUMP JUMPDEST DUP3 MSTORE POP POP JUMP JUMPDEST PUSH1 0x0 PUSH1 0x20 DUP3 ADD SWAP1 POP PUSH2 0x24B PUSH1 0x0 DUP4 ADD DUP5 PUSH2 0x1FA JUMP JUMPDEST SWAP3 SWAP2 POP POP JUMP JUMPDEST PUSH1 0x0 PUSH1 0x20 DUP3 ADD SWAP1 POP PUSH2 0x266 PUSH1 0x0 DUP4 ADD DUP5 PUSH2 0x209 JUMP JUMPDEST SWAP3 SWAP2 POP POP JUMP JUMPDEST PUSH1 0x0 PUSH1 0x20 DUP3 ADD SWAP1 POP PUSH2 0x281 PUSH1 0x0 DUP4 ADD DUP5 PUSH2 0x218 JUMP JUMPDEST SWAP3 SWAP2 POP POP JUMP JUMPDEST PUSH1 0x0 PUSH1 0x20 DUP3 ADD SWAP1 POP PUSH2 0x29C PUSH1 0x0 DUP4 ADD DUP5 PUSH2 0x227 JUMP JUMPDEST SWAP3 SWAP2 POP POP JUMP JUMPDEST PUSH1 0x0 PUSH2 0x2AD DUP3 PUSH2 0x33A JUMP JUMPDEST SWAP2 POP PUSH2 0x2B8 DUP4 PUSH2 0x33A JUMP JUMPDEST SWAP3 POP DUP3 PUSH32 0xFFFFFFFFFFFFFFFFFFFFFFFFFFFFFFFFFFFFFFFFFFFFFFFFFFFFFFFFFFFFFFFF SUB DUP3 GT ISZERO PUSH2 0x2ED JUMPI PUSH2 0x2EC PUSH2 0x344 JUMP JUMPDEST JUMPDEST DUP3 DUP3 ADD SWAP1 POP SWAP3 SWAP2 POP POP JUMP JUMPDEST PUSH1 0x0 DUP2 ISZERO ISZERO SWAP1 POP SWAP2 SWAP1 POP JUMP JUMPDEST PUSH1 0x0 DUP2 SWAP1 POP SWAP2 SWAP1 POP JUMP JUMPDEST PUSH1 0x0 PUSH32 0xFFFFFFFF00000000000000000000000000000000000000000000000000000000 DUP3 AND SWAP1 POP SWAP2 SWAP1 POP JUMP JUMPDEST PUSH1 0x0 DUP2 SWAP1 POP SWAP2 SWAP1 POP JUMP JUMPDEST PUSH32 0x4E487B7100000000000000000000000000000000000000000000000000000000 PUSH1 0x0 MSTORE PUSH1 0x11 PUSH1 0x4 MSTORE PUSH1 0x24 PUSH1 0x0 REVERT JUMPDEST PUSH1 0x0 DUP1 REVERT JUMPDEST PUSH2 0x381 DUP2 PUSH2 0x33A JUMP JUMPDEST DUP2 EQ PUSH2 0x38C JUMPI PUSH1 0x0 DUP1 REVERT JUMPDEST POP JUMP INVALID LOG2 PUSH5 0x6970667358 0x22 SLT KECCAK256 TIMESTAMP 0xF9 PUSH26 0x67E5E98D5B3658D5ECEB5092974EDCF489C1CFF990C7AEB3F4D7 CALLDATACOPY 0x24 SMOD PUSH5 0x736F6C6343 STOP ADDMOD MOD STOP CALLER "
				},
				"gasEstimates": {
					"creation": {
						"codeDepositCost": "193000",
						"executionCost": "infinite",
						"totalCost": "infinite"
					},
					"external": {
						"a()": "2452",
						"add(uint256)": "infinite",
						"genSelector()": "2522",
						"isequal()": "2543",
						"ripemd()": "2473",
						"selector()": "2537",
						"sha()": "2429"
					}
				},
				"methodIdentifiers": {
					"a()": "0dbe671f",
					"add(uint256)": "1003e2d2",
					"genSelector()": "011f0b2a",
					"isequal()": "77aed5de",
					"ripemd()": "a1e754ea",
					"selector()": "ea3d508a",
					"sha()": "65707d6f"
				}
			},
			"storageLayout": {
				"storage": [
					{
						"astId": 3,
						"contract": "study/chapter03/hash.sol:testHash",
						"label": "a",
						"offset": 0,
						"slot": "0",
						"type": "t_uint256"
					},
					{
						"astId": 18,
						"contract": "study/chapter03/hash.sol:testHash",
						"label": "selector",
						"offset": 0,
						"slot": "1",
						"type": "t_bytes4"
					},
					{
						"astId": 26,
						"contract": "study/chapter03/hash.sol:testHash",
						"label": "genSelector",
						"offset": 4,
						"slot": "1",
						"type": "t_bytes4"
					},
					{
						"astId": 32,
						"contract": "study/chapter03/hash.sol:testHash",
						"label": "isequal",
						"offset": 8,
						"slot": "1",
						"type": "t_bool"
					},
					{
						"astId": 37,
						"contract": "study/chapter03/hash.sol:testHash",
						"label": "sha",
						"offset": 0,
						"slot": "2",
						"type": "t_bytes32"
					},
					{
						"astId": 42,
						"contract": "study/chapter03/hash.sol:testHash",
						"label": "ripemd",
						"offset": 0,
						"slot": "3",
						"type": "t_bytes32"
					}
				],
				"types": {
					"t_bool": {
						"encoding": "inplace",
						"label": "bool",
						"numberOfBytes": "1"
					},
					"t_bytes32": {
						"encoding": "inplace",
						"label": "bytes32",
						"numberOfBytes": "32"
					},
					"t_bytes4": {
						"encoding": "inplace",
						"label": "bytes4",
						"numberOfBytes": "4"
					},
					"t_uint256": {
						"encoding": "inplace",
						"label": "uint256",
						"numberOfBytes": "32"
					}
				}
			},
			"userdoc": {
				"kind": "user",
				"methods": {},
				"version": 1
			}
		}
	}
}