{
	"study/chapter03/abi.sol": {
		"testABI2": {
			"abi": [
				{
					"inputs": [],
					"stateMutability": "nonpayable",
					"type": "constructor"
				},
				{
					"inputs": [],
					"name": "c",
					"outputs": [
						{
							"internalType": "bytes",
							"name": "",
							"type": "bytes"
						}
					],
					"stateMutability": "view",
					"type": "function"
				},
				{
					"inputs": [],
					"name": "d",
					"outputs": [
						{
							"internalType": "uint256",
							"name": "",
							"type": "uint256"
						}
					],
					"stateMutability": "view",
					"type": "function"
				},
				{
					"inputs": [],
					"name": "e",
					"outputs": [
						{
							"internalType": "int256",
							"name": "",
							"type": "int256"
						}
					],
					"stateMutability": "view",
					"type": "function"
				}
			],
			"devdoc": {
				"kind": "dev",
				"methods": {},
				"version": 1
			},
			"evm": {
				"assembly": "    /* \"study/chapter03/abi.sol\":289:527  contract testABI2{... */\n  mstore(0x40, 0x80)\n    /* \"study/chapter03/abi.sol\":390:410  abi.encodePacked(\"\") */\n  add(0x20, mload(0x40))\n  tag_1\n  swap1\n  tag_2\n  jump\t// in\ntag_1:\n  mload(0x40)\n  0x20\n  dup2\n  dup4\n  sub\n  sub\n  dup2\n  mstore\n  swap1\n  0x40\n  mstore\n    /* \"study/chapter03/abi.sol\":373:410  bytes public c = abi.encodePacked(\"\") */\n  0x00\n  swap1\n  dup2\n  tag_3\n  swap2\n  swap1\n  tag_4\n  jump\t// in\ntag_3:\n  pop\n    /* \"study/chapter03/abi.sol\":463:525  constructor(){... */\n  callvalue\n  dup1\n  iszero\n  tag_5\n  jumpi\n  0x00\n  dup1\n  revert\ntag_5:\n  pop\n    /* \"study/chapter03/abi.sol\":505:506  c */\n  0x00\n    /* \"study/chapter03/abi.sol\":494:518  abi.decode(c,(uint,int)) */\n  dup1\n  sload\n  tag_8\n  swap1\n  tag_9\n  jump\t// in\ntag_8:\n  dup1\n  0x1f\n  add\n  0x20\n  dup1\n  swap2\n  div\n  mul\n  0x20\n  add\n  mload(0x40)\n  swap1\n  dup2\n  add\n  0x40\n  mstore\n  dup1\n  swap3\n  swap2\n  swap1\n  dup2\n  dup2\n  mstore\n  0x20\n  add\n  dup3\n  dup1\n  sload\n  tag_10\n  swap1\n  tag_9\n  jump\t// in\ntag_10:\n  dup1\n  iszero\n  tag_11\n  jumpi\n  dup1\n  0x1f\n  lt\n  tag_12\n  jumpi\n  0x0100\n  dup1\n  dup4\n  sload\n  div\n  mul\n  dup4\n  mstore\n  swap2\n  0x20\n  add\n  swap2\n  jump(tag_11)\ntag_12:\n  dup3\n  add\n  swap2\n  swap1\n  0x00\n  mstore\n  keccak256(0x00, 0x20)\n  swap1\ntag_13:\n  dup2\n  sload\n  dup2\n  mstore\n  swap1\n  0x01\n  add\n  swap1\n  0x20\n  add\n  dup1\n  dup4\n  gt\n  tag_13\n  jumpi\n  dup3\n  swap1\n  sub\n  0x1f\n  and\n  dup3\n  add\n  swap2\ntag_11:\n  pop\n  pop\n  pop\n  pop\n  pop\n  dup1\n  0x20\n  add\n  swap1\n  mload\n  dup2\n  add\n  swap1\n  tag_14\n  swap2\n  swap1\n  tag_15\n  jump\t// in\ntag_14:\n    /* \"study/chapter03/abi.sol\":487:488  d */\n  0x01\n  0x00\n    /* \"study/chapter03/abi.sol\":489:490  e */\n  0x02\n  0x00\n    /* \"study/chapter03/abi.sol\":486:518  (d,e) = abi.decode(c,(uint,int)) */\n  dup5\n  swap2\n  swap1\n  pop\n  sstore\n  dup4\n  swap2\n  swap1\n  pop\n  sstore\n  pop\n  pop\n    /* \"study/chapter03/abi.sol\":289:527  contract testABI2{... */\n  jump(tag_16)\n    /* \"#utility.yul\":7:155   */\ntag_17:\n    /* \"#utility.yul\":109:120   */\n  0x00\n    /* \"#utility.yul\":146:149   */\n  dup2\n    /* \"#utility.yul\":131:149   */\n  swap1\n  pop\n    /* \"#utility.yul\":7:155   */\n  swap3\n  swap2\n  pop\n  pop\n  jump\t// out\n    /* \"#utility.yul\":161:275   */\ntag_18:\n  pop\n  jump\t// out\n    /* \"#utility.yul\":281:681   */\ntag_19:\n    /* \"#utility.yul\":441:444   */\n  0x00\n    /* \"#utility.yul\":462:546   */\n  tag_51\n    /* \"#utility.yul\":544:545   */\n  0x00\n    /* \"#utility.yul\":539:542   */\n  dup4\n    /* \"#utility.yul\":462:546   */\n  tag_17\n  jump\t// in\ntag_51:\n    /* \"#utility.yul\":455:546   */\n  swap2\n  pop\n    /* \"#utility.yul\":555:648   */\n  tag_52\n    /* \"#utility.yul\":644:647   */\n  dup3\n    /* \"#utility.yul\":555:648   */\n  tag_18\n  jump\t// in\ntag_52:\n    /* \"#utility.yul\":673:674   */\n  0x00\n    /* \"#utility.yul\":668:671   */\n  dup3\n    /* \"#utility.yul\":664:675   */\n  add\n    /* \"#utility.yul\":657:675   */\n  swap1\n  pop\n    /* \"#utility.yul\":281:681   */\n  swap2\n  swap1\n  pop\n  jump\t// out\n    /* \"#utility.yul\":687:1068   */\ntag_2:\n    /* \"#utility.yul\":872:875   */\n  0x00\n    /* \"#utility.yul\":894:1042   */\n  tag_54\n    /* \"#utility.yul\":1038:1041   */\n  dup3\n    /* \"#utility.yul\":894:1042   */\n  tag_19\n  jump\t// in\ntag_54:\n    /* \"#utility.yul\":887:1042   */\n  swap2\n  pop\n    /* \"#utility.yul\":1059:1062   */\n  dup2\n    /* \"#utility.yul\":1052:1062   */\n  swap1\n  pop\n    /* \"#utility.yul\":687:1068   */\n  swap2\n  swap1\n  pop\n  jump\t// out\n    /* \"#utility.yul\":1074:1172   */\ntag_20:\n    /* \"#utility.yul\":1125:1131   */\n  0x00\n    /* \"#utility.yul\":1159:1164   */\n  dup2\n    /* \"#utility.yul\":1153:1165   */\n  mload\n    /* \"#utility.yul\":1143:1165   */\n  swap1\n  pop\n    /* \"#utility.yul\":1074:1172   */\n  swap2\n  swap1\n  pop\n  jump\t// out\n    /* \"#utility.yul\":1178:1358   */\ntag_21:\n    /* \"#utility.yul\":1226:1303   */\n  0x4e487b7100000000000000000000000000000000000000000000000000000000\n    /* \"#utility.yul\":1223:1224   */\n  0x00\n    /* \"#utility.yul\":1216:1304   */\n  mstore\n    /* \"#utility.yul\":1323:1327   */\n  0x41\n    /* \"#utility.yul\":1320:1321   */\n  0x04\n    /* \"#utility.yul\":1313:1328   */\n  mstore\n    /* \"#utility.yul\":1347:1351   */\n  0x24\n    /* \"#utility.yul\":1344:1345   */\n  0x00\n    /* \"#utility.yul\":1337:1352   */\n  revert\n    /* \"#utility.yul\":1364:1544   */\ntag_22:\n    /* \"#utility.yul\":1412:1489   */\n  0x4e487b7100000000000000000000000000000000000000000000000000000000\n    /* \"#utility.yul\":1409:1410   */\n  0x00\n    /* \"#utility.yul\":1402:1490   */\n  mstore\n    /* \"#utility.yul\":1509:1513   */\n  0x22\n    /* \"#utility.yul\":1506:1507   */\n  0x04\n    /* \"#utility.yul\":1499:1514   */\n  mstore\n    /* \"#utility.yul\":1533:1537   */\n  0x24\n    /* \"#utility.yul\":1530:1531   */\n  0x00\n    /* \"#utility.yul\":1523:1538   */\n  revert\n    /* \"#utility.yul\":1550:1870   */\ntag_9:\n    /* \"#utility.yul\":1594:1600   */\n  0x00\n    /* \"#utility.yul\":1631:1632   */\n  0x02\n    /* \"#utility.yul\":1625:1629   */\n  dup3\n    /* \"#utility.yul\":1621:1633   */\n  div\n    /* \"#utility.yul\":1611:1633   */\n  swap1\n  pop\n    /* \"#utility.yul\":1678:1679   */\n  0x01\n    /* \"#utility.yul\":1672:1676   */\n  dup3\n    /* \"#utility.yul\":1668:1680   */\n  and\n    /* \"#utility.yul\":1699:1717   */\n  dup1\n    /* \"#utility.yul\":1689:1770   */\n  tag_59\n  jumpi\n    /* \"#utility.yul\":1755:1759   */\n  0x7f\n    /* \"#utility.yul\":1747:1753   */\n  dup3\n    /* \"#utility.yul\":1743:1760   */\n  and\n    /* \"#utility.yul\":1733:1760   */\n  swap2\n  pop\n    /* \"#utility.yul\":1689:1770   */\ntag_59:\n    /* \"#utility.yul\":1817:1819   */\n  0x20\n    /* \"#utility.yul\":1809:1815   */\n  dup3\n    /* \"#utility.yul\":1806:1820   */\n  lt\n    /* \"#utility.yul\":1786:1804   */\n  dup2\n    /* \"#utility.yul\":1783:1821   */\n  sub\n    /* \"#utility.yul\":1780:1864   */\n  tag_60\n  jumpi\n    /* \"#utility.yul\":1836:1854   */\n  tag_61\n  tag_22\n  jump\t// in\ntag_61:\n    /* \"#utility.yul\":1780:1864   */\ntag_60:\n    /* \"#utility.yul\":1601:1870   */\n  pop\n    /* \"#utility.yul\":1550:1870   */\n  swap2\n  swap1\n  pop\n  jump\t// out\n    /* \"#utility.yul\":1876:2016   */\ntag_23:\n    /* \"#utility.yul\":1924:1928   */\n  0x00\n    /* \"#utility.yul\":1947:1950   */\n  dup2\n    /* \"#utility.yul\":1939:1950   */\n  swap1\n  pop\n    /* \"#utility.yul\":1970:1973   */\n  dup2\n    /* \"#utility.yul\":1967:1968   */\n  0x00\n    /* \"#utility.yul\":1960:1974   */\n  mstore\n    /* \"#utility.yul\":2004:2008   */\n  0x20\n    /* \"#utility.yul\":2001:2002   */\n  0x00\n    /* \"#utility.yul\":1991:2009   */\n  keccak256\n    /* \"#utility.yul\":1983:2009   */\n  swap1\n  pop\n    /* \"#utility.yul\":1876:2016   */\n  swap2\n  swap1\n  pop\n  jump\t// out\n    /* \"#utility.yul\":2022:2115   */\ntag_24:\n    /* \"#utility.yul\":2059:2065   */\n  0x00\n    /* \"#utility.yul\":2106:2108   */\n  0x20\n    /* \"#utility.yul\":2101:2103   */\n  0x1f\n    /* \"#utility.yul\":2094:2099   */\n  dup4\n    /* \"#utility.yul\":2090:2104   */\n  add\n    /* \"#utility.yul\":2086:2109   */\n  div\n    /* \"#utility.yul\":2076:2109   */\n  swap1\n  pop\n    /* \"#utility.yul\":2022:2115   */\n  swap2\n  swap1\n  pop\n  jump\t// out\n    /* \"#utility.yul\":2121:2228   */\ntag_25:\n    /* \"#utility.yul\":2165:2173   */\n  0x00\n    /* \"#utility.yul\":2215:2220   */\n  dup3\n    /* \"#utility.yul\":2209:2213   */\n  dup3\n    /* \"#utility.yul\":2205:2221   */\n  shl\n    /* \"#utility.yul\":2184:2221   */\n  swap1\n  pop\n    /* \"#utility.yul\":2121:2228   */\n  swap3\n  swap2\n  pop\n  pop\n  jump\t// out\n    /* \"#utility.yul\":2234:2627   */\ntag_26:\n    /* \"#utility.yul\":2303:2309   */\n  0x00\n    /* \"#utility.yul\":2353:2354   */\n  0x08\n    /* \"#utility.yul\":2341:2351   */\n  dup4\n    /* \"#utility.yul\":2337:2355   */\n  mul\n    /* \"#utility.yul\":2376:2473   */\n  tag_66\n    /* \"#utility.yul\":2406:2472   */\n  0xffffffffffffffffffffffffffffffffffffffffffffffffffffffffffffffff\n    /* \"#utility.yul\":2395:2404   */\n  dup3\n    /* \"#utility.yul\":2376:2473   */\n  tag_25\n  jump\t// in\ntag_66:\n    /* \"#utility.yul\":2494:2533   */\n  tag_67\n    /* \"#utility.yul\":2524:2532   */\n  dup7\n    /* \"#utility.yul\":2513:2522   */\n  dup4\n    /* \"#utility.yul\":2494:2533   */\n  tag_25\n  jump\t// in\ntag_67:\n    /* \"#utility.yul\":2482:2533   */\n  swap6\n  pop\n    /* \"#utility.yul\":2566:2570   */\n  dup1\n    /* \"#utility.yul\":2562:2571   */\n  not\n    /* \"#utility.yul\":2555:2560   */\n  dup5\n    /* \"#utility.yul\":2551:2572   */\n  and\n    /* \"#utility.yul\":2542:2572   */\n  swap4\n  pop\n    /* \"#utility.yul\":2615:2619   */\n  dup1\n    /* \"#utility.yul\":2605:2613   */\n  dup7\n    /* \"#utility.yul\":2601:2620   */\n  and\n    /* \"#utility.yul\":2594:2599   */\n  dup5\n    /* \"#utility.yul\":2591:2621   */\n  or\n    /* \"#utility.yul\":2581:2621   */\n  swap3\n  pop\n    /* \"#utility.yul\":2310:2627   */\n  pop\n  pop\n    /* \"#utility.yul\":2234:2627   */\n  swap4\n  swap3\n  pop\n  pop\n  pop\n  jump\t// out\n    /* \"#utility.yul\":2633:2710   */\ntag_27:\n    /* \"#utility.yul\":2670:2677   */\n  0x00\n    /* \"#utility.yul\":2699:2704   */\n  dup2\n    /* \"#utility.yul\":2688:2704   */\n  swap1\n  pop\n    /* \"#utility.yul\":2633:2710   */\n  swap2\n  swap1\n  pop\n  jump\t// out\n    /* \"#utility.yul\":2716:2776   */\ntag_28:\n    /* \"#utility.yul\":2744:2747   */\n  0x00\n    /* \"#utility.yul\":2765:2770   */\n  dup2\n    /* \"#utility.yul\":2758:2770   */\n  swap1\n  pop\n    /* \"#utility.yul\":2716:2776   */\n  swap2\n  swap1\n  pop\n  jump\t// out\n    /* \"#utility.yul\":2782:2924   */\ntag_29:\n    /* \"#utility.yul\":2832:2841   */\n  0x00\n    /* \"#utility.yul\":2865:2918   */\n  tag_71\n    /* \"#utility.yul\":2883:2917   */\n  tag_72\n    /* \"#utility.yul\":2892:2916   */\n  tag_73\n    /* \"#utility.yul\":2910:2915   */\n  dup5\n    /* \"#utility.yul\":2892:2916   */\n  tag_27\n  jump\t// in\ntag_73:\n    /* \"#utility.yul\":2883:2917   */\n  tag_28\n  jump\t// in\ntag_72:\n    /* \"#utility.yul\":2865:2918   */\n  tag_27\n  jump\t// in\ntag_71:\n    /* \"#utility.yul\":2852:2918   */\n  swap1\n  pop\n    /* \"#utility.yul\":2782:2924   */\n  swap2\n  swap1\n  pop\n  jump\t// out\n    /* \"#utility.yul\":2930:3005   */\ntag_30:\n    /* \"#utility.yul\":2973:2976   */\n  0x00\n    /* \"#utility.yul\":2994:2999   */\n  dup2\n    /* \"#utility.yul\":2987:2999   */\n  swap1\n  pop\n    /* \"#utility.yul\":2930:3005   */\n  swap2\n  swap1\n  pop\n  jump\t// out\n    /* \"#utility.yul\":3011:3280   */\ntag_31:\n    /* \"#utility.yul\":3121:3160   */\n  tag_76\n    /* \"#utility.yul\":3152:3159   */\n  dup4\n    /* \"#utility.yul\":3121:3160   */\n  tag_29\n  jump\t// in\ntag_76:\n    /* \"#utility.yul\":3182:3273   */\n  tag_77\n    /* \"#utility.yul\":3231:3272   */\n  tag_78\n    /* \"#utility.yul\":3255:3271   */\n  dup3\n    /* \"#utility.yul\":3231:3272   */\n  tag_30\n  jump\t// in\ntag_78:\n    /* \"#utility.yul\":3223:3229   */\n  dup5\n    /* \"#utility.yul\":3216:3220   */\n  dup5\n    /* \"#utility.yul\":3210:3221   */\n  sload\n    /* \"#utility.yul\":3182:3273   */\n  tag_26\n  jump\t// in\ntag_77:\n    /* \"#utility.yul\":3176:3180   */\n  dup3\n    /* \"#utility.yul\":3169:3274   */\n  sstore\n    /* \"#utility.yul\":3087:3280   */\n  pop\n    /* \"#utility.yul\":3011:3280   */\n  pop\n  pop\n  pop\n  jump\t// out\n    /* \"#utility.yul\":3286:3359   */\ntag_32:\n    /* \"#utility.yul\":3331:3334   */\n  0x00\n    /* \"#utility.yul\":3286:3359   */\n  swap1\n  jump\t// out\n    /* \"#utility.yul\":3365:3554   */\ntag_33:\n    /* \"#utility.yul\":3442:3474   */\n  tag_81\n  tag_32\n  jump\t// in\ntag_81:\n    /* \"#utility.yul\":3483:3548   */\n  tag_82\n    /* \"#utility.yul\":3541:3547   */\n  dup2\n    /* \"#utility.yul\":3533:3539   */\n  dup5\n    /* \"#utility.yul\":3527:3531   */\n  dup5\n    /* \"#utility.yul\":3483:3548   */\n  tag_31\n  jump\t// in\ntag_82:\n    /* \"#utility.yul\":3418:3554   */\n  pop\n    /* \"#utility.yul\":3365:3554   */\n  pop\n  pop\n  jump\t// out\n    /* \"#utility.yul\":3560:3746   */\ntag_34:\n    /* \"#utility.yul\":3620:3740   */\ntag_84:\n    /* \"#utility.yul\":3637:3640   */\n  dup2\n    /* \"#utility.yul\":3630:3635   */\n  dup2\n    /* \"#utility.yul\":3627:3641   */\n  lt\n    /* \"#utility.yul\":3620:3740   */\n  iszero\n  tag_86\n  jumpi\n    /* \"#utility.yul\":3691:3730   */\n  tag_87\n    /* \"#utility.yul\":3728:3729   */\n  0x00\n    /* \"#utility.yul\":3721:3726   */\n  dup3\n    /* \"#utility.yul\":3691:3730   */\n  tag_33\n  jump\t// in\ntag_87:\n    /* \"#utility.yul\":3664:3665   */\n  0x01\n    /* \"#utility.yul\":3657:3662   */\n  dup2\n    /* \"#utility.yul\":3653:3666   */\n  add\n    /* \"#utility.yul\":3644:3666   */\n  swap1\n  pop\n    /* \"#utility.yul\":3620:3740   */\n  jump(tag_84)\ntag_86:\n    /* \"#utility.yul\":3560:3746   */\n  pop\n  pop\n  jump\t// out\n    /* \"#utility.yul\":3752:4293   */\ntag_35:\n    /* \"#utility.yul\":3852:3854   */\n  0x1f\n    /* \"#utility.yul\":3847:3850   */\n  dup3\n    /* \"#utility.yul\":3844:3855   */\n  gt\n    /* \"#utility.yul\":3841:4286   */\n  iszero\n  tag_89\n  jumpi\n    /* \"#utility.yul\":3886:3923   */\n  tag_90\n    /* \"#utility.yul\":3917:3922   */\n  dup2\n    /* \"#utility.yul\":3886:3923   */\n  tag_23\n  jump\t// in\ntag_90:\n    /* \"#utility.yul\":3969:3998   */\n  tag_91\n    /* \"#utility.yul\":3987:3997   */\n  dup5\n    /* \"#utility.yul\":3969:3998   */\n  tag_24\n  jump\t// in\ntag_91:\n    /* \"#utility.yul\":3959:3967   */\n  dup2\n    /* \"#utility.yul\":3955:3999   */\n  add\n    /* \"#utility.yul\":4152:4154   */\n  0x20\n    /* \"#utility.yul\":4140:4150   */\n  dup6\n    /* \"#utility.yul\":4137:4155   */\n  lt\n    /* \"#utility.yul\":4134:4183   */\n  iszero\n  tag_92\n  jumpi\n    /* \"#utility.yul\":4173:4181   */\n  dup2\n    /* \"#utility.yul\":4158:4181   */\n  swap1\n  pop\n    /* \"#utility.yul\":4134:4183   */\ntag_92:\n    /* \"#utility.yul\":4196:4276   */\n  tag_93\n    /* \"#utility.yul\":4252:4274   */\n  tag_94\n    /* \"#utility.yul\":4270:4273   */\n  dup6\n    /* \"#utility.yul\":4252:4274   */\n  tag_24\n  jump\t// in\ntag_94:\n    /* \"#utility.yul\":4242:4250   */\n  dup4\n    /* \"#utility.yul\":4238:4275   */\n  add\n    /* \"#utility.yul\":4225:4236   */\n  dup3\n    /* \"#utility.yul\":4196:4276   */\n  tag_34\n  jump\t// in\ntag_93:\n    /* \"#utility.yul\":3856:4286   */\n  pop\n  pop\n    /* \"#utility.yul\":3841:4286   */\ntag_89:\n    /* \"#utility.yul\":3752:4293   */\n  pop\n  pop\n  pop\n  jump\t// out\n    /* \"#utility.yul\":4299:4416   */\ntag_36:\n    /* \"#utility.yul\":4353:4361   */\n  0x00\n    /* \"#utility.yul\":4403:4408   */\n  dup3\n    /* \"#utility.yul\":4397:4401   */\n  dup3\n    /* \"#utility.yul\":4393:4409   */\n  shr\n    /* \"#utility.yul\":4372:4409   */\n  swap1\n  pop\n    /* \"#utility.yul\":4299:4416   */\n  swap3\n  swap2\n  pop\n  pop\n  jump\t// out\n    /* \"#utility.yul\":4422:4591   */\ntag_37:\n    /* \"#utility.yul\":4466:4472   */\n  0x00\n    /* \"#utility.yul\":4499:4550   */\n  tag_97\n    /* \"#utility.yul\":4547:4548   */\n  0x00\n    /* \"#utility.yul\":4543:4549   */\n  not\n    /* \"#utility.yul\":4535:4540   */\n  dup5\n    /* \"#utility.yul\":4532:4533   */\n  0x08\n    /* \"#utility.yul\":4528:4541   */\n  mul\n    /* \"#utility.yul\":4499:4550   */\n  tag_36\n  jump\t// in\ntag_97:\n    /* \"#utility.yul\":4495:4551   */\n  not\n    /* \"#utility.yul\":4580:4584   */\n  dup1\n    /* \"#utility.yul\":4574:4578   */\n  dup4\n    /* \"#utility.yul\":4570:4585   */\n  and\n    /* \"#utility.yul\":4560:4585   */\n  swap2\n  pop\n    /* \"#utility.yul\":4473:4591   */\n  pop\n    /* \"#utility.yul\":4422:4591   */\n  swap3\n  swap2\n  pop\n  pop\n  jump\t// out\n    /* \"#utility.yul\":4596:4891   */\ntag_38:\n    /* \"#utility.yul\":4672:4676   */\n  0x00\n    /* \"#utility.yul\":4818:4847   */\n  tag_99\n    /* \"#utility.yul\":4843:4846   */\n  dup4\n    /* \"#utility.yul\":4837:4841   */\n  dup4\n    /* \"#utility.yul\":4818:4847   */\n  tag_37\n  jump\t// in\ntag_99:\n    /* \"#utility.yul\":4810:4847   */\n  swap2\n  pop\n    /* \"#utility.yul\":4880:4883   */\n  dup3\n    /* \"#utility.yul\":4877:4878   */\n  0x02\n    /* \"#utility.yul\":4873:4884   */\n  mul\n    /* \"#utility.yul\":4867:4871   */\n  dup3\n    /* \"#utility.yul\":4864:4885   */\n  or\n    /* \"#utility.yul\":4856:4885   */\n  swap1\n  pop\n    /* \"#utility.yul\":4596:4891   */\n  swap3\n  swap2\n  pop\n  pop\n  jump\t// out\n    /* \"#utility.yul\":4896:6286   */\ntag_4:\n    /* \"#utility.yul\":5011:5047   */\n  tag_101\n    /* \"#utility.yul\":5043:5046   */\n  dup3\n    /* \"#utility.yul\":5011:5047   */\n  tag_20\n  jump\t// in\ntag_101:\n    /* \"#utility.yul\":5112:5130   */\n  0xffffffffffffffff\n    /* \"#utility.yul\":5104:5110   */\n  dup2\n    /* \"#utility.yul\":5101:5131   */\n  gt\n    /* \"#utility.yul\":5098:5154   */\n  iszero\n  tag_102\n  jumpi\n    /* \"#utility.yul\":5134:5152   */\n  tag_103\n  tag_21\n  jump\t// in\ntag_103:\n    /* \"#utility.yul\":5098:5154   */\ntag_102:\n    /* \"#utility.yul\":5178:5216   */\n  tag_104\n    /* \"#utility.yul\":5210:5214   */\n  dup3\n    /* \"#utility.yul\":5204:5215   */\n  sload\n    /* \"#utility.yul\":5178:5216   */\n  tag_9\n  jump\t// in\ntag_104:\n    /* \"#utility.yul\":5263:5329   */\n  tag_105\n    /* \"#utility.yul\":5322:5328   */\n  dup3\n    /* \"#utility.yul\":5314:5320   */\n  dup3\n    /* \"#utility.yul\":5308:5312   */\n  dup6\n    /* \"#utility.yul\":5263:5329   */\n  tag_35\n  jump\t// in\ntag_105:\n    /* \"#utility.yul\":5356:5357   */\n  0x00\n    /* \"#utility.yul\":5380:5384   */\n  0x20\n    /* \"#utility.yul\":5367:5384   */\n  swap1\n  pop\n    /* \"#utility.yul\":5412:5414   */\n  0x1f\n    /* \"#utility.yul\":5404:5410   */\n  dup4\n    /* \"#utility.yul\":5401:5415   */\n  gt\n    /* \"#utility.yul\":5429:5430   */\n  0x01\n    /* \"#utility.yul\":5424:6041   */\n  dup2\n  eq\n  tag_107\n  jumpi\n    /* \"#utility.yul\":6085:6086   */\n  0x00\n    /* \"#utility.yul\":6102:6108   */\n  dup5\n    /* \"#utility.yul\":6099:6176   */\n  iszero\n  tag_108\n  jumpi\n    /* \"#utility.yul\":6151:6160   */\n  dup3\n    /* \"#utility.yul\":6146:6149   */\n  dup8\n    /* \"#utility.yul\":6142:6161   */\n  add\n    /* \"#utility.yul\":6136:6162   */\n  mload\n    /* \"#utility.yul\":6127:6162   */\n  swap1\n  pop\n    /* \"#utility.yul\":6099:6176   */\ntag_108:\n    /* \"#utility.yul\":6202:6269   */\n  tag_109\n    /* \"#utility.yul\":6262:6268   */\n  dup6\n    /* \"#utility.yul\":6255:6260   */\n  dup3\n    /* \"#utility.yul\":6202:6269   */\n  tag_38\n  jump\t// in\ntag_109:\n    /* \"#utility.yul\":6196:6200   */\n  dup7\n    /* \"#utility.yul\":6189:6270   */\n  sstore\n    /* \"#utility.yul\":6058:6280   */\n  pop\n    /* \"#utility.yul\":5394:6280   */\n  jump(tag_106)\n    /* \"#utility.yul\":5424:6041   */\ntag_107:\n    /* \"#utility.yul\":5476:5480   */\n  0x1f\n    /* \"#utility.yul\":5472:5481   */\n  not\n    /* \"#utility.yul\":5464:5470   */\n  dup5\n    /* \"#utility.yul\":5460:5482   */\n  and\n    /* \"#utility.yul\":5510:5546   */\n  tag_110\n    /* \"#utility.yul\":5541:5545   */\n  dup7\n    /* \"#utility.yul\":5510:5546   */\n  tag_23\n  jump\t// in\ntag_110:\n    /* \"#utility.yul\":5568:5569   */\n  0x00\n    /* \"#utility.yul\":5582:5790   */\ntag_111:\n    /* \"#utility.yul\":5596:5603   */\n  dup3\n    /* \"#utility.yul\":5593:5594   */\n  dup2\n    /* \"#utility.yul\":5590:5604   */\n  lt\n    /* \"#utility.yul\":5582:5790   */\n  iszero\n  tag_113\n  jumpi\n    /* \"#utility.yul\":5675:5684   */\n  dup5\n    /* \"#utility.yul\":5670:5673   */\n  dup10\n    /* \"#utility.yul\":5666:5685   */\n  add\n    /* \"#utility.yul\":5660:5686   */\n  mload\n    /* \"#utility.yul\":5652:5658   */\n  dup3\n    /* \"#utility.yul\":5645:5687   */\n  sstore\n    /* \"#utility.yul\":5726:5727   */\n  0x01\n    /* \"#utility.yul\":5718:5724   */\n  dup3\n    /* \"#utility.yul\":5714:5728   */\n  add\n    /* \"#utility.yul\":5704:5728   */\n  swap2\n  pop\n    /* \"#utility.yul\":5773:5775   */\n  0x20\n    /* \"#utility.yul\":5762:5771   */\n  dup6\n    /* \"#utility.yul\":5758:5776   */\n  add\n    /* \"#utility.yul\":5745:5776   */\n  swap5\n  pop\n    /* \"#utility.yul\":5619:5623   */\n  0x20\n    /* \"#utility.yul\":5616:5617   */\n  dup2\n    /* \"#utility.yul\":5612:5624   */\n  add\n    /* \"#utility.yul\":5607:5624   */\n  swap1\n  pop\n    /* \"#utility.yul\":5582:5790   */\n  jump(tag_111)\ntag_113:\n    /* \"#utility.yul\":5818:5824   */\n  dup7\n    /* \"#utility.yul\":5809:5816   */\n  dup4\n    /* \"#utility.yul\":5806:5825   */\n  lt\n    /* \"#utility.yul\":5803:5982   */\n  iszero\n  tag_114\n  jumpi\n    /* \"#utility.yul\":5876:5885   */\n  dup5\n    /* \"#utility.yul\":5871:5874   */\n  dup10\n    /* \"#utility.yul\":5867:5886   */\n  add\n    /* \"#utility.yul\":5861:5887   */\n  mload\n    /* \"#utility.yul\":5919:5967   */\n  tag_115\n    /* \"#utility.yul\":5961:5965   */\n  0x1f\n    /* \"#utility.yul\":5953:5959   */\n  dup10\n    /* \"#utility.yul\":5949:5966   */\n  and\n    /* \"#utility.yul\":5938:5947   */\n  dup3\n    /* \"#utility.yul\":5919:5967   */\n  tag_37\n  jump\t// in\ntag_115:\n    /* \"#utility.yul\":5911:5917   */\n  dup4\n    /* \"#utility.yul\":5904:5968   */\n  sstore\n    /* \"#utility.yul\":5826:5982   */\n  pop\n    /* \"#utility.yul\":5803:5982   */\ntag_114:\n    /* \"#utility.yul\":6028:6029   */\n  0x01\n    /* \"#utility.yul\":6024:6025   */\n  0x02\n    /* \"#utility.yul\":6016:6022   */\n  dup9\n    /* \"#utility.yul\":6012:6026   */\n  mul\n    /* \"#utility.yul\":6008:6030   */\n  add\n    /* \"#utility.yul\":6002:6006   */\n  dup9\n    /* \"#utility.yul\":5995:6031   */\n  sstore\n    /* \"#utility.yul\":5431:6041   */\n  pop\n  pop\n  pop\n    /* \"#utility.yul\":5394:6280   */\ntag_106:\n  pop\n    /* \"#utility.yul\":4986:6286   */\n  pop\n  pop\n  pop\n    /* \"#utility.yul\":4896:6286   */\n  pop\n  pop\n  jump\t// out\n    /* \"#utility.yul\":6373:6490   */\ntag_40:\n    /* \"#utility.yul\":6482:6483   */\n  0x00\n    /* \"#utility.yul\":6479:6480   */\n  dup1\n    /* \"#utility.yul\":6472:6484   */\n  revert\n    /* \"#utility.yul\":6619:6741   */\ntag_42:\n    /* \"#utility.yul\":6692:6716   */\n  tag_120\n    /* \"#utility.yul\":6710:6715   */\n  dup2\n    /* \"#utility.yul\":6692:6716   */\n  tag_27\n  jump\t// in\ntag_120:\n    /* \"#utility.yul\":6685:6690   */\n  dup2\n    /* \"#utility.yul\":6682:6717   */\n  eq\n    /* \"#utility.yul\":6672:6735   */\n  tag_121\n  jumpi\n    /* \"#utility.yul\":6731:6732   */\n  0x00\n    /* \"#utility.yul\":6728:6729   */\n  dup1\n    /* \"#utility.yul\":6721:6733   */\n  revert\n    /* \"#utility.yul\":6672:6735   */\ntag_121:\n    /* \"#utility.yul\":6619:6741   */\n  pop\n  jump\t// out\n    /* \"#utility.yul\":6747:6890   */\ntag_43:\n    /* \"#utility.yul\":6804:6809   */\n  0x00\n    /* \"#utility.yul\":6835:6841   */\n  dup2\n    /* \"#utility.yul\":6829:6842   */\n  mload\n    /* \"#utility.yul\":6820:6842   */\n  swap1\n  pop\n    /* \"#utility.yul\":6851:6884   */\n  tag_123\n    /* \"#utility.yul\":6878:6883   */\n  dup2\n    /* \"#utility.yul\":6851:6884   */\n  tag_42\n  jump\t// in\ntag_123:\n    /* \"#utility.yul\":6747:6890   */\n  swap3\n  swap2\n  pop\n  pop\n  jump\t// out\n    /* \"#utility.yul\":6896:6972   */\ntag_44:\n    /* \"#utility.yul\":6932:6939   */\n  0x00\n    /* \"#utility.yul\":6961:6966   */\n  dup2\n    /* \"#utility.yul\":6950:6966   */\n  swap1\n  pop\n    /* \"#utility.yul\":6896:6972   */\n  swap2\n  swap1\n  pop\n  jump\t// out\n    /* \"#utility.yul\":6978:7098   */\ntag_45:\n    /* \"#utility.yul\":7050:7073   */\n  tag_126\n    /* \"#utility.yul\":7067:7072   */\n  dup2\n    /* \"#utility.yul\":7050:7073   */\n  tag_44\n  jump\t// in\ntag_126:\n    /* \"#utility.yul\":7043:7048   */\n  dup2\n    /* \"#utility.yul\":7040:7074   */\n  eq\n    /* \"#utility.yul\":7030:7092   */\n  tag_127\n  jumpi\n    /* \"#utility.yul\":7088:7089   */\n  0x00\n    /* \"#utility.yul\":7085:7086   */\n  dup1\n    /* \"#utility.yul\":7078:7090   */\n  revert\n    /* \"#utility.yul\":7030:7092   */\ntag_127:\n    /* \"#utility.yul\":6978:7098   */\n  pop\n  jump\t// out\n    /* \"#utility.yul\":7104:7245   */\ntag_46:\n    /* \"#utility.yul\":7160:7165   */\n  0x00\n    /* \"#utility.yul\":7191:7197   */\n  dup2\n    /* \"#utility.yul\":7185:7198   */\n  mload\n    /* \"#utility.yul\":7176:7198   */\n  swap1\n  pop\n    /* \"#utility.yul\":7207:7239   */\n  tag_129\n    /* \"#utility.yul\":7233:7238   */\n  dup2\n    /* \"#utility.yul\":7207:7239   */\n  tag_45\n  jump\t// in\ntag_129:\n    /* \"#utility.yul\":7104:7245   */\n  swap3\n  swap2\n  pop\n  pop\n  jump\t// out\n    /* \"#utility.yul\":7251:7756   */\ntag_15:\n    /* \"#utility.yul\":7329:7335   */\n  0x00\n    /* \"#utility.yul\":7337:7343   */\n  dup1\n    /* \"#utility.yul\":7386:7388   */\n  0x40\n    /* \"#utility.yul\":7374:7383   */\n  dup4\n    /* \"#utility.yul\":7365:7372   */\n  dup6\n    /* \"#utility.yul\":7361:7384   */\n  sub\n    /* \"#utility.yul\":7357:7389   */\n  slt\n    /* \"#utility.yul\":7354:7473   */\n  iszero\n  tag_131\n  jumpi\n    /* \"#utility.yul\":7392:7471   */\n  tag_132\n  tag_40\n  jump\t// in\ntag_132:\n    /* \"#utility.yul\":7354:7473   */\ntag_131:\n    /* \"#utility.yul\":7512:7513   */\n  0x00\n    /* \"#utility.yul\":7537:7601   */\n  tag_133\n    /* \"#utility.yul\":7593:7600   */\n  dup6\n    /* \"#utility.yul\":7584:7590   */\n  dup3\n    /* \"#utility.yul\":7573:7582   */\n  dup7\n    /* \"#utility.yul\":7569:7591   */\n  add\n    /* \"#utility.yul\":7537:7601   */\n  tag_43\n  jump\t// in\ntag_133:\n    /* \"#utility.yul\":7527:7601   */\n  swap3\n  pop\n    /* \"#utility.yul\":7483:7611   */\n  pop\n    /* \"#utility.yul\":7650:7652   */\n  0x20\n    /* \"#utility.yul\":7676:7739   */\n  tag_134\n    /* \"#utility.yul\":7731:7738   */\n  dup6\n    /* \"#utility.yul\":7722:7728   */\n  dup3\n    /* \"#utility.yul\":7711:7720   */\n  dup7\n    /* \"#utility.yul\":7707:7729   */\n  add\n    /* \"#utility.yul\":7676:7739   */\n  tag_46\n  jump\t// in\ntag_134:\n    /* \"#utility.yul\":7666:7739   */\n  swap2\n  pop\n    /* \"#utility.yul\":7621:7749   */\n  pop\n    /* \"#utility.yul\":7251:7756   */\n  swap3\n  pop\n  swap3\n  swap1\n  pop\n  jump\t// out\n    /* \"study/chapter03/abi.sol\":289:527  contract testABI2{... */\ntag_16:\n  dataSize(sub_0)\n  dup1\n  dataOffset(sub_0)\n  0x00\n  codecopy\n  0x00\n  return\nstop\n\nsub_0: assembly {\n        /* \"study/chapter03/abi.sol\":289:527  contract testABI2{... */\n      mstore(0x40, 0x80)\n      callvalue\n      dup1\n      iszero\n      tag_1\n      jumpi\n      0x00\n      dup1\n      revert\n    tag_1:\n      pop\n      jumpi(tag_2, lt(calldatasize, 0x04))\n      shr(0xe0, calldataload(0x00))\n      dup1\n      0x8a054ac2\n      eq\n      tag_3\n      jumpi\n      dup1\n      0xc3da42b8\n      eq\n      tag_4\n      jumpi\n      dup1\n      0xffae15ba\n      eq\n      tag_5\n      jumpi\n    tag_2:\n      0x00\n      dup1\n      revert\n        /* \"study/chapter03/abi.sol\":421:434  uint public d */\n    tag_3:\n      tag_6\n      tag_7\n      jump\t// in\n    tag_6:\n      mload(0x40)\n      tag_8\n      swap2\n      swap1\n      tag_9\n      jump\t// in\n    tag_8:\n      mload(0x40)\n      dup1\n      swap2\n      sub\n      swap1\n      return\n        /* \"study/chapter03/abi.sol\":373:410  bytes public c = abi.encodePacked(\"\") */\n    tag_4:\n      tag_10\n      tag_11\n      jump\t// in\n    tag_10:\n      mload(0x40)\n      tag_12\n      swap2\n      swap1\n      tag_13\n      jump\t// in\n    tag_12:\n      mload(0x40)\n      dup1\n      swap2\n      sub\n      swap1\n      return\n        /* \"study/chapter03/abi.sol\":440:452  int public e */\n    tag_5:\n      tag_14\n      tag_15\n      jump\t// in\n    tag_14:\n      mload(0x40)\n      tag_16\n      swap2\n      swap1\n      tag_17\n      jump\t// in\n    tag_16:\n      mload(0x40)\n      dup1\n      swap2\n      sub\n      swap1\n      return\n        /* \"study/chapter03/abi.sol\":421:434  uint public d */\n    tag_7:\n      sload(0x01)\n      dup2\n      jump\t// out\n        /* \"study/chapter03/abi.sol\":373:410  bytes public c = abi.encodePacked(\"\") */\n    tag_11:\n      0x00\n      dup1\n      sload\n      tag_18\n      swap1\n      tag_19\n      jump\t// in\n    tag_18:\n      dup1\n      0x1f\n      add\n      0x20\n      dup1\n      swap2\n      div\n      mul\n      0x20\n      add\n      mload(0x40)\n      swap1\n      dup2\n      add\n      0x40\n      mstore\n      dup1\n      swap3\n      swap2\n      swap1\n      dup2\n      dup2\n      mstore\n      0x20\n      add\n      dup3\n      dup1\n      sload\n      tag_20\n      swap1\n      tag_19\n      jump\t// in\n    tag_20:\n      dup1\n      iszero\n      tag_21\n      jumpi\n      dup1\n      0x1f\n      lt\n      tag_22\n      jumpi\n      0x0100\n      dup1\n      dup4\n      sload\n      div\n      mul\n      dup4\n      mstore\n      swap2\n      0x20\n      add\n      swap2\n      jump(tag_21)\n    tag_22:\n      dup3\n      add\n      swap2\n      swap1\n      0x00\n      mstore\n      keccak256(0x00, 0x20)\n      swap1\n    tag_23:\n      dup2\n      sload\n      dup2\n      mstore\n      swap1\n      0x01\n      add\n      swap1\n      0x20\n      add\n      dup1\n      dup4\n      gt\n      tag_23\n      jumpi\n      dup3\n      swap1\n      sub\n      0x1f\n      and\n      dup3\n      add\n      swap2\n    tag_21:\n      pop\n      pop\n      pop\n      pop\n      pop\n      dup2\n      jump\t// out\n        /* \"study/chapter03/abi.sol\":440:452  int public e */\n    tag_15:\n      sload(0x02)\n      dup2\n      jump\t// out\n        /* \"#utility.yul\":7:84   */\n    tag_24:\n        /* \"#utility.yul\":44:51   */\n      0x00\n        /* \"#utility.yul\":73:78   */\n      dup2\n        /* \"#utility.yul\":62:78   */\n      swap1\n      pop\n        /* \"#utility.yul\":7:84   */\n      swap2\n      swap1\n      pop\n      jump\t// out\n        /* \"#utility.yul\":90:208   */\n    tag_25:\n        /* \"#utility.yul\":177:201   */\n      tag_37\n        /* \"#utility.yul\":195:200   */\n      dup2\n        /* \"#utility.yul\":177:201   */\n      tag_24\n      jump\t// in\n    tag_37:\n        /* \"#utility.yul\":172:175   */\n      dup3\n        /* \"#utility.yul\":165:202   */\n      mstore\n        /* \"#utility.yul\":90:208   */\n      pop\n      pop\n      jump\t// out\n        /* \"#utility.yul\":214:436   */\n    tag_9:\n        /* \"#utility.yul\":307:311   */\n      0x00\n        /* \"#utility.yul\":345:347   */\n      0x20\n        /* \"#utility.yul\":334:343   */\n      dup3\n        /* \"#utility.yul\":330:348   */\n      add\n        /* \"#utility.yul\":322:348   */\n      swap1\n      pop\n        /* \"#utility.yul\":358:429   */\n      tag_39\n        /* \"#utility.yul\":426:427   */\n      0x00\n        /* \"#utility.yul\":415:424   */\n      dup4\n        /* \"#utility.yul\":411:428   */\n      add\n        /* \"#utility.yul\":402:408   */\n      dup5\n        /* \"#utility.yul\":358:429   */\n      tag_25\n      jump\t// in\n    tag_39:\n        /* \"#utility.yul\":214:436   */\n      swap3\n      swap2\n      pop\n      pop\n      jump\t// out\n        /* \"#utility.yul\":442:540   */\n    tag_26:\n        /* \"#utility.yul\":493:499   */\n      0x00\n        /* \"#utility.yul\":527:532   */\n      dup2\n        /* \"#utility.yul\":521:533   */\n      mload\n        /* \"#utility.yul\":511:533   */\n      swap1\n      pop\n        /* \"#utility.yul\":442:540   */\n      swap2\n      swap1\n      pop\n      jump\t// out\n        /* \"#utility.yul\":546:714   */\n    tag_27:\n        /* \"#utility.yul\":629:640   */\n      0x00\n        /* \"#utility.yul\":663:669   */\n      dup3\n        /* \"#utility.yul\":658:661   */\n      dup3\n        /* \"#utility.yul\":651:670   */\n      mstore\n        /* \"#utility.yul\":703:707   */\n      0x20\n        /* \"#utility.yul\":698:701   */\n      dup3\n        /* \"#utility.yul\":694:708   */\n      add\n        /* \"#utility.yul\":679:708   */\n      swap1\n      pop\n        /* \"#utility.yul\":546:714   */\n      swap3\n      swap2\n      pop\n      pop\n      jump\t// out\n        /* \"#utility.yul\":720:1027   */\n    tag_28:\n        /* \"#utility.yul\":788:789   */\n      0x00\n        /* \"#utility.yul\":798:911   */\n    tag_43:\n        /* \"#utility.yul\":812:818   */\n      dup4\n        /* \"#utility.yul\":809:810   */\n      dup2\n        /* \"#utility.yul\":806:819   */\n      lt\n        /* \"#utility.yul\":798:911   */\n      iszero\n      tag_45\n      jumpi\n        /* \"#utility.yul\":897:898   */\n      dup1\n        /* \"#utility.yul\":892:895   */\n      dup3\n        /* \"#utility.yul\":888:899   */\n      add\n        /* \"#utility.yul\":882:900   */\n      mload\n        /* \"#utility.yul\":878:879   */\n      dup2\n        /* \"#utility.yul\":873:876   */\n      dup5\n        /* \"#utility.yul\":869:880   */\n      add\n        /* \"#utility.yul\":862:901   */\n      mstore\n        /* \"#utility.yul\":834:836   */\n      0x20\n        /* \"#utility.yul\":831:832   */\n      dup2\n        /* \"#utility.yul\":827:837   */\n      add\n        /* \"#utility.yul\":822:837   */\n      swap1\n      pop\n        /* \"#utility.yul\":798:911   */\n      jump(tag_43)\n    tag_45:\n        /* \"#utility.yul\":929:935   */\n      dup4\n        /* \"#utility.yul\":926:927   */\n      dup2\n        /* \"#utility.yul\":923:936   */\n      gt\n        /* \"#utility.yul\":920:1021   */\n      iszero\n      tag_46\n      jumpi\n        /* \"#utility.yul\":1009:1010   */\n      0x00\n        /* \"#utility.yul\":1000:1006   */\n      dup5\n        /* \"#utility.yul\":995:998   */\n      dup5\n        /* \"#utility.yul\":991:1007   */\n      add\n        /* \"#utility.yul\":984:1011   */\n      mstore\n        /* \"#utility.yul\":920:1021   */\n    tag_46:\n        /* \"#utility.yul\":769:1027   */\n      pop\n        /* \"#utility.yul\":720:1027   */\n      pop\n      pop\n      pop\n      jump\t// out\n        /* \"#utility.yul\":1033:1135   */\n    tag_29:\n        /* \"#utility.yul\":1074:1080   */\n      0x00\n        /* \"#utility.yul\":1125:1127   */\n      0x1f\n        /* \"#utility.yul\":1121:1128   */\n      not\n        /* \"#utility.yul\":1116:1118   */\n      0x1f\n        /* \"#utility.yul\":1109:1114   */\n      dup4\n        /* \"#utility.yul\":1105:1119   */\n      add\n        /* \"#utility.yul\":1101:1129   */\n      and\n        /* \"#utility.yul\":1091:1129   */\n      swap1\n      pop\n        /* \"#utility.yul\":1033:1135   */\n      swap2\n      swap1\n      pop\n      jump\t// out\n        /* \"#utility.yul\":1141:1501   */\n    tag_30:\n        /* \"#utility.yul\":1227:1230   */\n      0x00\n        /* \"#utility.yul\":1255:1293   */\n      tag_49\n        /* \"#utility.yul\":1287:1292   */\n      dup3\n        /* \"#utility.yul\":1255:1293   */\n      tag_26\n      jump\t// in\n    tag_49:\n        /* \"#utility.yul\":1309:1379   */\n      tag_50\n        /* \"#utility.yul\":1372:1378   */\n      dup2\n        /* \"#utility.yul\":1367:1370   */\n      dup6\n        /* \"#utility.yul\":1309:1379   */\n      tag_27\n      jump\t// in\n    tag_50:\n        /* \"#utility.yul\":1302:1379   */\n      swap4\n      pop\n        /* \"#utility.yul\":1388:1440   */\n      tag_51\n        /* \"#utility.yul\":1433:1439   */\n      dup2\n        /* \"#utility.yul\":1428:1431   */\n      dup6\n        /* \"#utility.yul\":1421:1425   */\n      0x20\n        /* \"#utility.yul\":1414:1419   */\n      dup7\n        /* \"#utility.yul\":1410:1426   */\n      add\n        /* \"#utility.yul\":1388:1440   */\n      tag_28\n      jump\t// in\n    tag_51:\n        /* \"#utility.yul\":1465:1494   */\n      tag_52\n        /* \"#utility.yul\":1487:1493   */\n      dup2\n        /* \"#utility.yul\":1465:1494   */\n      tag_29\n      jump\t// in\n    tag_52:\n        /* \"#utility.yul\":1460:1463   */\n      dup5\n        /* \"#utility.yul\":1456:1495   */\n      add\n        /* \"#utility.yul\":1449:1495   */\n      swap2\n      pop\n        /* \"#utility.yul\":1231:1501   */\n      pop\n        /* \"#utility.yul\":1141:1501   */\n      swap3\n      swap2\n      pop\n      pop\n      jump\t// out\n        /* \"#utility.yul\":1507:1816   */\n    tag_13:\n        /* \"#utility.yul\":1618:1622   */\n      0x00\n        /* \"#utility.yul\":1656:1658   */\n      0x20\n        /* \"#utility.yul\":1645:1654   */\n      dup3\n        /* \"#utility.yul\":1641:1659   */\n      add\n        /* \"#utility.yul\":1633:1659   */\n      swap1\n      pop\n        /* \"#utility.yul\":1705:1714   */\n      dup2\n        /* \"#utility.yul\":1699:1703   */\n      dup2\n        /* \"#utility.yul\":1695:1715   */\n      sub\n        /* \"#utility.yul\":1691:1692   */\n      0x00\n        /* \"#utility.yul\":1680:1689   */\n      dup4\n        /* \"#utility.yul\":1676:1693   */\n      add\n        /* \"#utility.yul\":1669:1716   */\n      mstore\n        /* \"#utility.yul\":1733:1809   */\n      tag_54\n        /* \"#utility.yul\":1804:1808   */\n      dup2\n        /* \"#utility.yul\":1795:1801   */\n      dup5\n        /* \"#utility.yul\":1733:1809   */\n      tag_30\n      jump\t// in\n    tag_54:\n        /* \"#utility.yul\":1725:1809   */\n      swap1\n      pop\n        /* \"#utility.yul\":1507:1816   */\n      swap3\n      swap2\n      pop\n      pop\n      jump\t// out\n        /* \"#utility.yul\":1822:1898   */\n    tag_31:\n        /* \"#utility.yul\":1858:1865   */\n      0x00\n        /* \"#utility.yul\":1887:1892   */\n      dup2\n        /* \"#utility.yul\":1876:1892   */\n      swap1\n      pop\n        /* \"#utility.yul\":1822:1898   */\n      swap2\n      swap1\n      pop\n      jump\t// out\n        /* \"#utility.yul\":1904:2019   */\n    tag_32:\n        /* \"#utility.yul\":1989:2012   */\n      tag_57\n        /* \"#utility.yul\":2006:2011   */\n      dup2\n        /* \"#utility.yul\":1989:2012   */\n      tag_31\n      jump\t// in\n    tag_57:\n        /* \"#utility.yul\":1984:1987   */\n      dup3\n        /* \"#utility.yul\":1977:2013   */\n      mstore\n        /* \"#utility.yul\":1904:2019   */\n      pop\n      pop\n      jump\t// out\n        /* \"#utility.yul\":2025:2243   */\n    tag_17:\n        /* \"#utility.yul\":2116:2120   */\n      0x00\n        /* \"#utility.yul\":2154:2156   */\n      0x20\n        /* \"#utility.yul\":2143:2152   */\n      dup3\n        /* \"#utility.yul\":2139:2157   */\n      add\n        /* \"#utility.yul\":2131:2157   */\n      swap1\n      pop\n        /* \"#utility.yul\":2167:2236   */\n      tag_59\n        /* \"#utility.yul\":2233:2234   */\n      0x00\n        /* \"#utility.yul\":2222:2231   */\n      dup4\n        /* \"#utility.yul\":2218:2235   */\n      add\n        /* \"#utility.yul\":2209:2215   */\n      dup5\n        /* \"#utility.yul\":2167:2236   */\n      tag_32\n      jump\t// in\n    tag_59:\n        /* \"#utility.yul\":2025:2243   */\n      swap3\n      swap2\n      pop\n      pop\n      jump\t// out\n        /* \"#utility.yul\":2249:2429   */\n    tag_33:\n        /* \"#utility.yul\":2297:2374   */\n      0x4e487b7100000000000000000000000000000000000000000000000000000000\n        /* \"#utility.yul\":2294:2295   */\n      0x00\n        /* \"#utility.yul\":2287:2375   */\n      mstore\n        /* \"#utility.yul\":2394:2398   */\n      0x22\n        /* \"#utility.yul\":2391:2392   */\n      0x04\n        /* \"#utility.yul\":2384:2399   */\n      mstore\n        /* \"#utility.yul\":2418:2422   */\n      0x24\n        /* \"#utility.yul\":2415:2416   */\n      0x00\n        /* \"#utility.yul\":2408:2423   */\n      revert\n        /* \"#utility.yul\":2435:2755   */\n    tag_19:\n        /* \"#utility.yul\":2479:2485   */\n      0x00\n        /* \"#utility.yul\":2516:2517   */\n      0x02\n        /* \"#utility.yul\":2510:2514   */\n      dup3\n        /* \"#utility.yul\":2506:2518   */\n      div\n        /* \"#utility.yul\":2496:2518   */\n      swap1\n      pop\n        /* \"#utility.yul\":2563:2564   */\n      0x01\n        /* \"#utility.yul\":2557:2561   */\n      dup3\n        /* \"#utility.yul\":2553:2565   */\n      and\n        /* \"#utility.yul\":2584:2602   */\n      dup1\n        /* \"#utility.yul\":2574:2655   */\n      tag_62\n      jumpi\n        /* \"#utility.yul\":2640:2644   */\n      0x7f\n        /* \"#utility.yul\":2632:2638   */\n      dup3\n        /* \"#utility.yul\":2628:2645   */\n      and\n        /* \"#utility.yul\":2618:2645   */\n      swap2\n      pop\n        /* \"#utility.yul\":2574:2655   */\n    tag_62:\n        /* \"#utility.yul\":2702:2704   */\n      0x20\n        /* \"#utility.yul\":2694:2700   */\n      dup3\n        /* \"#utility.yul\":2691:2705   */\n      lt\n        /* \"#utility.yul\":2671:2689   */\n      dup2\n        /* \"#utility.yul\":2668:2706   */\n      sub\n        /* \"#utility.yul\":2665:2749   */\n      tag_63\n      jumpi\n        /* \"#utility.yul\":2721:2739   */\n      tag_64\n      tag_33\n      jump\t// in\n    tag_64:\n        /* \"#utility.yul\":2665:2749   */\n    tag_63:\n        /* \"#utility.yul\":2486:2755   */\n      pop\n        /* \"#utility.yul\":2435:2755   */\n      swap2\n      swap1\n      pop\n      jump\t// out\n\n    auxdata: 0xa264697066735822122076bd0471616e2379ad92276e97860fb0b225dfa016d857220fa9a237d3b304cb64736f6c634300080f0033\n}\n",
				"bytecode": {
					"linkReferences": {},
					"object": "608060405260405160200162000015906200013a565b60405160208183030381529060405260009081620000349190620003cb565b503480156200004257600080fd5b50600080546200005290620001ba565b80601f01602080910402602001604051908101604052809291908181526020018280546200008090620001ba565b8015620000d15780601f10620000a557610100808354040283529160200191620000d1565b820191906000526020600020905b815481529060010190602001808311620000b357829003601f168201915b5050505050806020019051810190620000eb919062000523565b60016000600260008491905055839190505550506200056a565b600081905092915050565b50565b60006200012260008362000105565b91506200012f8262000110565b600082019050919050565b6000620001478262000113565b9150819050919050565b600081519050919050565b7f4e487b7100000000000000000000000000000000000000000000000000000000600052604160045260246000fd5b7f4e487b7100000000000000000000000000000000000000000000000000000000600052602260045260246000fd5b60006002820490506001821680620001d357607f821691505b602082108103620001e957620001e86200018b565b5b50919050565b60008190508160005260206000209050919050565b60006020601f8301049050919050565b600082821b905092915050565b600060088302620002537fffffffffffffffffffffffffffffffffffffffffffffffffffffffffffffffff8262000214565b6200025f868362000214565b95508019841693508086168417925050509392505050565b6000819050919050565b6000819050919050565b6000620002ac620002a6620002a08462000277565b62000281565b62000277565b9050919050565b6000819050919050565b620002c8836200028b565b620002e0620002d782620002b3565b84845462000221565b825550505050565b600090565b620002f7620002e8565b62000304818484620002bd565b505050565b5b818110156200032c5762000320600082620002ed565b6001810190506200030a565b5050565b601f8211156200037b576200034581620001ef565b620003508462000204565b8101602085101562000360578190505b620003786200036f8562000204565b83018262000309565b50505b505050565b600082821c905092915050565b6000620003a06000198460080262000380565b1980831691505092915050565b6000620003bb83836200038d565b9150826002028217905092915050565b620003d68262000151565b67ffffffffffffffff811115620003f257620003f16200015c565b5b620003fe8254620001ba565b6200040b82828562000330565b600060209050601f8311600181146200044357600084156200042e578287015190505b6200043a8582620003ad565b865550620004aa565b601f1984166200045386620001ef565b60005b828110156200047d5784890151825560018201915060208501945060208101905062000456565b868310156200049d578489015162000499601f8916826200038d565b8355505b6001600288020188555050505b505050505050565b600080fd5b620004c28162000277565b8114620004ce57600080fd5b50565b600081519050620004e281620004b7565b92915050565b6000819050919050565b620004fd81620004e8565b81146200050957600080fd5b50565b6000815190506200051d81620004f2565b92915050565b600080604083850312156200053d576200053c620004b2565b5b60006200054d85828601620004d1565b925050602062000560858286016200050c565b9150509250929050565b6102f3806200057a6000396000f3fe608060405234801561001057600080fd5b50600436106100415760003560e01c80638a054ac214610046578063c3da42b814610064578063ffae15ba14610082575b600080fd5b61004e6100a0565b60405161005b9190610153565b60405180910390f35b61006c6100a6565b6040516100799190610207565b60405180910390f35b61008a610134565b6040516100979190610242565b60405180910390f35b60015481565b600080546100b39061028c565b80601f01602080910402602001604051908101604052809291908181526020018280546100df9061028c565b801561012c5780601f106101015761010080835404028352916020019161012c565b820191906000526020600020905b81548152906001019060200180831161010f57829003601f168201915b505050505081565b60025481565b6000819050919050565b61014d8161013a565b82525050565b60006020820190506101686000830184610144565b92915050565b600081519050919050565b600082825260208201905092915050565b60005b838110156101a857808201518184015260208101905061018d565b838111156101b7576000848401525b50505050565b6000601f19601f8301169050919050565b60006101d98261016e565b6101e38185610179565b93506101f381856020860161018a565b6101fc816101bd565b840191505092915050565b6000602082019050818103600083015261022181846101ce565b905092915050565b6000819050919050565b61023c81610229565b82525050565b60006020820190506102576000830184610233565b92915050565b7f4e487b7100000000000000000000000000000000000000000000000000000000600052602260045260246000fd5b600060028204905060018216806102a457607f821691505b6020821081036102b7576102b661025d565b5b5091905056fea264697066735822122076bd0471616e2379ad92276e97860fb0b225dfa016d857220fa9a237d3b304cb64736f6c634300080f0033",
					"opcodes": "PUSH1 0x80 PUSH1 0x40 MSTORE PUSH1 0x40 MLOAD PUSH1 0x20 ADD PUSH3 0x15 SWAP1 PUSH3 0x13A JUMP JUMPDEST PUSH1 0x40 MLOAD PUSH1 0x20 DUP2 DUP4 SUB SUB DUP2 MSTORE SWAP1 PUSH1 0x40 MSTORE PUSH1 0x0 SWAP1 DUP2 PUSH3 0x34 SWAP2 SWAP1 PUSH3 0x3CB JUMP JUMPDEST POP CALLVALUE DUP1 ISZERO PUSH3 0x42 JUMPI PUSH1 0x0 DUP1 REVERT JUMPDEST POP PUSH1 0x0 DUP1 SLOAD PUSH3 0x52 SWAP1 PUSH3 0x1BA JUMP JUMPDEST DUP1 PUSH1 0x1F ADD PUSH1 0x20 DUP1 SWAP2 DIV MUL PUSH1 0x20 ADD PUSH1 0x40 MLOAD SWAP1 DUP2 ADD PUSH1 0x40 MSTORE DUP1 SWAP3 SWAP2 SWAP1 DUP2 DUP2 MSTORE PUSH1 0x20 ADD DUP3 DUP1 SLOAD PUSH3 0x80 SWAP1 PUSH3 0x1BA JUMP JUMPDEST DUP1 ISZERO PUSH3 0xD1 JUMPI DUP1 PUSH1 0x1F LT PUSH3 0xA5 JUMPI PUSH2 0x100 DUP1 DUP4 SLOAD DIV MUL DUP4 MSTORE SWAP2 PUSH1 0x20 ADD SWAP2 PUSH3 0xD1 JUMP JUMPDEST DUP3 ADD SWAP2 SWAP1 PUSH1 0x0 MSTORE PUSH1 0x20 PUSH1 0x0 KECCAK256 SWAP1 JUMPDEST DUP2 SLOAD DUP2 MSTORE SWAP1 PUSH1 0x1 ADD SWAP1 PUSH1 0x20 ADD DUP1 DUP4 GT PUSH3 0xB3 JUMPI DUP3 SWAP1 SUB PUSH1 0x1F AND DUP3 ADD SWAP2 JUMPDEST POP POP POP POP POP DUP1 PUSH1 0x20 ADD SWAP1 MLOAD DUP2 ADD SWAP1 PUSH3 0xEB SWAP2 SWAP1 PUSH3 0x523 JUMP JUMPDEST PUSH1 0x1 PUSH1 0x0 PUSH1 0x2 PUSH1 0x0 DUP5 SWAP2 SWAP1 POP SSTORE DUP4 SWAP2 SWAP1 POP SSTORE POP POP PUSH3 0x56A JUMP JUMPDEST PUSH1 0x0 DUP2 SWAP1 POP SWAP3 SWAP2 POP POP JUMP JUMPDEST POP JUMP JUMPDEST PUSH1 0x0 PUSH3 0x122 PUSH1 0x0 DUP4 PUSH3 0x105 JUMP JUMPDEST SWAP2 POP PUSH3 0x12F DUP3 PUSH3 0x110 JUMP JUMPDEST PUSH1 0x0 DUP3 ADD SWAP1 POP SWAP2 SWAP1 POP JUMP JUMPDEST PUSH1 0x0 PUSH3 0x147 DUP3 PUSH3 0x113 JUMP JUMPDEST SWAP2 POP DUP2 SWAP1 POP SWAP2 SWAP1 POP JUMP JUMPDEST PUSH1 0x0 DUP2 MLOAD SWAP1 POP SWAP2 SWAP1 POP JUMP JUMPDEST PUSH32 0x4E487B7100000000000000000000000000000000000000000000000000000000 PUSH1 0x0 MSTORE PUSH1 0x41 PUSH1 0x4 MSTORE PUSH1 0x24 PUSH1 0x0 REVERT JUMPDEST PUSH32 0x4E487B7100000000000000000000000000000000000000000000000000000000 PUSH1 0x0 MSTORE PUSH1 0x22 PUSH1 0x4 MSTORE PUSH1 0x24 PUSH1 0x0 REVERT JUMPDEST PUSH1 0x0 PUSH1 0x2 DUP3 DIV SWAP1 POP PUSH1 0x1 DUP3 AND DUP1 PUSH3 0x1D3 JUMPI PUSH1 0x7F DUP3 AND SWAP2 POP JUMPDEST PUSH1 0x20 DUP3 LT DUP2 SUB PUSH3 0x1E9 JUMPI PUSH3 0x1E8 PUSH3 0x18B JUMP JUMPDEST JUMPDEST POP SWAP2 SWAP1 POP JUMP JUMPDEST PUSH1 0x0 DUP2 SWAP1 POP DUP2 PUSH1 0x0 MSTORE PUSH1 0x20 PUSH1 0x0 KECCAK256 SWAP1 POP SWAP2 SWAP1 POP JUMP JUMPDEST PUSH1 0x0 PUSH1 0x20 PUSH1 0x1F DUP4 ADD DIV SWAP1 POP SWAP2 SWAP1 POP JUMP JUMPDEST PUSH1 0x0 DUP3 DUP3 SHL SWAP1 POP SWAP3 SWAP2 POP POP JUMP JUMPDEST PUSH1 0x0 PUSH1 0x8 DUP4 MUL PUSH3 0x253 PUSH32 0xFFFFFFFFFFFFFFFFFFFFFFFFFFFFFFFFFFFFFFFFFFFFFFFFFFFFFFFFFFFFFFFF DUP3 PUSH3 0x214 JUMP JUMPDEST PUSH3 0x25F DUP7 DUP4 PUSH3 0x214 JUMP JUMPDEST SWAP6 POP DUP1 NOT DUP5 AND SWAP4 POP DUP1 DUP7 AND DUP5 OR SWAP3 POP POP POP SWAP4 SWAP3 POP POP POP JUMP JUMPDEST PUSH1 0x0 DUP2 SWAP1 POP SWAP2 SWAP1 POP JUMP JUMPDEST PUSH1 0x0 DUP2 SWAP1 POP SWAP2 SWAP1 POP JUMP JUMPDEST PUSH1 0x0 PUSH3 0x2AC PUSH3 0x2A6 PUSH3 0x2A0 DUP5 PUSH3 0x277 JUMP JUMPDEST PUSH3 0x281 JUMP JUMPDEST PUSH3 0x277 JUMP JUMPDEST SWAP1 POP SWAP2 SWAP1 POP JUMP JUMPDEST PUSH1 0x0 DUP2 SWAP1 POP SWAP2 SWAP1 POP JUMP JUMPDEST PUSH3 0x2C8 DUP4 PUSH3 0x28B JUMP JUMPDEST PUSH3 0x2E0 PUSH3 0x2D7 DUP3 PUSH3 0x2B3 JUMP JUMPDEST DUP5 DUP5 SLOAD PUSH3 0x221 JUMP JUMPDEST DUP3 SSTORE POP POP POP POP JUMP JUMPDEST PUSH1 0x0 SWAP1 JUMP JUMPDEST PUSH3 0x2F7 PUSH3 0x2E8 JUMP JUMPDEST PUSH3 0x304 DUP2 DUP5 DUP5 PUSH3 0x2BD JUMP JUMPDEST POP POP POP JUMP JUMPDEST JUMPDEST DUP2 DUP2 LT ISZERO PUSH3 0x32C JUMPI PUSH3 0x320 PUSH1 0x0 DUP3 PUSH3 0x2ED JUMP JUMPDEST PUSH1 0x1 DUP2 ADD SWAP1 POP PUSH3 0x30A JUMP JUMPDEST POP POP JUMP JUMPDEST PUSH1 0x1F DUP3 GT ISZERO PUSH3 0x37B JUMPI PUSH3 0x345 DUP2 PUSH3 0x1EF JUMP JUMPDEST PUSH3 0x350 DUP5 PUSH3 0x204 JUMP JUMPDEST DUP2 ADD PUSH1 0x20 DUP6 LT ISZERO PUSH3 0x360 JUMPI DUP2 SWAP1 POP JUMPDEST PUSH3 0x378 PUSH3 0x36F DUP6 PUSH3 0x204 JUMP JUMPDEST DUP4 ADD DUP3 PUSH3 0x309 JUMP JUMPDEST POP POP JUMPDEST POP POP POP JUMP JUMPDEST PUSH1 0x0 DUP3 DUP3 SHR SWAP1 POP SWAP3 SWAP2 POP POP JUMP JUMPDEST PUSH1 0x0 PUSH3 0x3A0 PUSH1 0x0 NOT DUP5 PUSH1 0x8 MUL PUSH3 0x380 JUMP JUMPDEST NOT DUP1 DUP4 AND SWAP2 POP POP SWAP3 SWAP2 POP POP JUMP JUMPDEST PUSH1 0x0 PUSH3 0x3BB DUP4 DUP4 PUSH3 0x38D JUMP JUMPDEST SWAP2 POP DUP3 PUSH1 0x2 MUL DUP3 OR SWAP1 POP SWAP3 SWAP2 POP POP JUMP JUMPDEST PUSH3 0x3D6 DUP3 PUSH3 0x151 JUMP JUMPDEST PUSH8 0xFFFFFFFFFFFFFFFF DUP2 GT ISZERO PUSH3 0x3F2 JUMPI PUSH3 0x3F1 PUSH3 0x15C JUMP JUMPDEST JUMPDEST PUSH3 0x3FE DUP3 SLOAD PUSH3 0x1BA JUMP JUMPDEST PUSH3 0x40B DUP3 DUP3 DUP6 PUSH3 0x330 JUMP JUMPDEST PUSH1 0x0 PUSH1 0x20 SWAP1 POP PUSH1 0x1F DUP4 GT PUSH1 0x1 DUP2 EQ PUSH3 0x443 JUMPI PUSH1 0x0 DUP5 ISZERO PUSH3 0x42E JUMPI DUP3 DUP8 ADD MLOAD SWAP1 POP JUMPDEST PUSH3 0x43A DUP6 DUP3 PUSH3 0x3AD JUMP JUMPDEST DUP7 SSTORE POP PUSH3 0x4AA JUMP JUMPDEST PUSH1 0x1F NOT DUP5 AND PUSH3 0x453 DUP7 PUSH3 0x1EF JUMP JUMPDEST PUSH1 0x0 JUMPDEST DUP3 DUP2 LT ISZERO PUSH3 0x47D JUMPI DUP5 DUP10 ADD MLOAD DUP3 SSTORE PUSH1 0x1 DUP3 ADD SWAP2 POP PUSH1 0x20 DUP6 ADD SWAP5 POP PUSH1 0x20 DUP2 ADD SWAP1 POP PUSH3 0x456 JUMP JUMPDEST DUP7 DUP4 LT ISZERO PUSH3 0x49D JUMPI DUP5 DUP10 ADD MLOAD PUSH3 0x499 PUSH1 0x1F DUP10 AND DUP3 PUSH3 0x38D JUMP JUMPDEST DUP4 SSTORE POP JUMPDEST PUSH1 0x1 PUSH1 0x2 DUP9 MUL ADD DUP9 SSTORE POP POP POP JUMPDEST POP POP POP POP POP POP JUMP JUMPDEST PUSH1 0x0 DUP1 REVERT JUMPDEST PUSH3 0x4C2 DUP2 PUSH3 0x277 JUMP JUMPDEST DUP2 EQ PUSH3 0x4CE JUMPI PUSH1 0x0 DUP1 REVERT JUMPDEST POP JUMP JUMPDEST PUSH1 0x0 DUP2 MLOAD SWAP1 POP PUSH3 0x4E2 DUP2 PUSH3 0x4B7 JUMP JUMPDEST SWAP3 SWAP2 POP POP JUMP JUMPDEST PUSH1 0x0 DUP2 SWAP1 POP SWAP2 SWAP1 POP JUMP JUMPDEST PUSH3 0x4FD DUP2 PUSH3 0x4E8 JUMP JUMPDEST DUP2 EQ PUSH3 0x509 JUMPI PUSH1 0x0 DUP1 REVERT JUMPDEST POP JUMP JUMPDEST PUSH1 0x0 DUP2 MLOAD SWAP1 POP PUSH3 0x51D DUP2 PUSH3 0x4F2 JUMP JUMPDEST SWAP3 SWAP2 POP POP JUMP JUMPDEST PUSH1 0x0 DUP1 PUSH1 0x40 DUP4 DUP6 SUB SLT ISZERO PUSH3 0x53D JUMPI PUSH3 0x53C PUSH3 0x4B2 JUMP JUMPDEST JUMPDEST PUSH1 0x0 PUSH3 0x54D DUP6 DUP3 DUP7 ADD PUSH3 0x4D1 JUMP JUMPDEST SWAP3 POP POP PUSH1 0x20 PUSH3 0x560 DUP6 DUP3 DUP7 ADD PUSH3 0x50C JUMP JUMPDEST SWAP2 POP POP SWAP3 POP SWAP3 SWAP1 POP JUMP JUMPDEST PUSH2 0x2F3 DUP1 PUSH3 0x57A PUSH1 0x0 CODECOPY PUSH1 0x0 RETURN INVALID PUSH1 0x80 PUSH1 0x40 MSTORE CALLVALUE DUP1 ISZERO PUSH2 0x10 JUMPI PUSH1 0x0 DUP1 REVERT JUMPDEST POP PUSH1 0x4 CALLDATASIZE LT PUSH2 0x41 JUMPI PUSH1 0x0 CALLDATALOAD PUSH1 0xE0 SHR DUP1 PUSH4 0x8A054AC2 EQ PUSH2 0x46 JUMPI DUP1 PUSH4 0xC3DA42B8 EQ PUSH2 0x64 JUMPI DUP1 PUSH4 0xFFAE15BA EQ PUSH2 0x82 JUMPI JUMPDEST PUSH1 0x0 DUP1 REVERT JUMPDEST PUSH2 0x4E PUSH2 0xA0 JUMP JUMPDEST PUSH1 0x40 MLOAD PUSH2 0x5B SWAP2 SWAP1 PUSH2 0x153 JUMP JUMPDEST PUSH1 0x40 MLOAD DUP1 SWAP2 SUB SWAP1 RETURN JUMPDEST PUSH2 0x6C PUSH2 0xA6 JUMP JUMPDEST PUSH1 0x40 MLOAD PUSH2 0x79 SWAP2 SWAP1 PUSH2 0x207 JUMP JUMPDEST PUSH1 0x40 MLOAD DUP1 SWAP2 SUB SWAP1 RETURN JUMPDEST PUSH2 0x8A PUSH2 0x134 JUMP JUMPDEST PUSH1 0x40 MLOAD PUSH2 0x97 SWAP2 SWAP1 PUSH2 0x242 JUMP JUMPDEST PUSH1 0x40 MLOAD DUP1 SWAP2 SUB SWAP1 RETURN JUMPDEST PUSH1 0x1 SLOAD DUP2 JUMP JUMPDEST PUSH1 0x0 DUP1 SLOAD PUSH2 0xB3 SWAP1 PUSH2 0x28C JUMP JUMPDEST DUP1 PUSH1 0x1F ADD PUSH1 0x20 DUP1 SWAP2 DIV MUL PUSH1 0x20 ADD PUSH1 0x40 MLOAD SWAP1 DUP2 ADD PUSH1 0x40 MSTORE DUP1 SWAP3 SWAP2 SWAP1 DUP2 DUP2 MSTORE PUSH1 0x20 ADD DUP3 DUP1 SLOAD PUSH2 0xDF SWAP1 PUSH2 0x28C JUMP JUMPDEST DUP1 ISZERO PUSH2 0x12C JUMPI DUP1 PUSH1 0x1F LT PUSH2 0x101 JUMPI PUSH2 0x100 DUP1 DUP4 SLOAD DIV MUL DUP4 MSTORE SWAP2 PUSH1 0x20 ADD SWAP2 PUSH2 0x12C JUMP JUMPDEST DUP3 ADD SWAP2 SWAP1 PUSH1 0x0 MSTORE PUSH1 0x20 PUSH1 0x0 KECCAK256 SWAP1 JUMPDEST DUP2 SLOAD DUP2 MSTORE SWAP1 PUSH1 0x1 ADD SWAP1 PUSH1 0x20 ADD DUP1 DUP4 GT PUSH2 0x10F JUMPI DUP3 SWAP1 SUB PUSH1 0x1F AND DUP3 ADD SWAP2 JUMPDEST POP POP POP POP POP DUP2 JUMP JUMPDEST PUSH1 0x2 SLOAD DUP2 JUMP JUMPDEST PUSH1 0x0 DUP2 SWAP1 POP SWAP2 SWAP1 POP JUMP JUMPDEST PUSH2 0x14D DUP2 PUSH2 0x13A JUMP JUMPDEST DUP3 MSTORE POP POP JUMP JUMPDEST PUSH1 0x0 PUSH1 0x20 DUP3 ADD SWAP1 POP PUSH2 0x168 PUSH1 0x0 DUP4 ADD DUP5 PUSH2 0x144 JUMP JUMPDEST SWAP3 SWAP2 POP POP JUMP JUMPDEST PUSH1 0x0 DUP2 MLOAD SWAP1 POP SWAP2 SWAP1 POP JUMP JUMPDEST PUSH1 0x0 DUP3 DUP3 MSTORE PUSH1 0x20 DUP3 ADD SWAP1 POP SWAP3 SWAP2 POP POP JUMP JUMPDEST PUSH1 0x0 JUMPDEST DUP4 DUP2 LT ISZERO PUSH2 0x1A8 JUMPI DUP1 DUP3 ADD MLOAD DUP2 DUP5 ADD MSTORE PUSH1 0x20 DUP2 ADD SWAP1 POP PUSH2 0x18D JUMP JUMPDEST DUP4 DUP2 GT ISZERO PUSH2 0x1B7 JUMPI PUSH1 0x0 DUP5 DUP5 ADD MSTORE JUMPDEST POP POP POP POP JUMP JUMPDEST PUSH1 0x0 PUSH1 0x1F NOT PUSH1 0x1F DUP4 ADD AND SWAP1 POP SWAP2 SWAP1 POP JUMP JUMPDEST PUSH1 0x0 PUSH2 0x1D9 DUP3 PUSH2 0x16E JUMP JUMPDEST PUSH2 0x1E3 DUP2 DUP6 PUSH2 0x179 JUMP JUMPDEST SWAP4 POP PUSH2 0x1F3 DUP2 DUP6 PUSH1 0x20 DUP7 ADD PUSH2 0x18A JUMP JUMPDEST PUSH2 0x1FC DUP2 PUSH2 0x1BD JUMP JUMPDEST DUP5 ADD SWAP2 POP POP SWAP3 SWAP2 POP POP JUMP JUMPDEST PUSH1 0x0 PUSH1 0x20 DUP3 ADD SWAP1 POP DUP2 DUP2 SUB PUSH1 0x0 DUP4 ADD MSTORE PUSH2 0x221 DUP2 DUP5 PUSH2 0x1CE JUMP JUMPDEST SWAP1 POP SWAP3 SWAP2 POP POP JUMP JUMPDEST PUSH1 0x0 DUP2 SWAP1 POP SWAP2 SWAP1 POP JUMP JUMPDEST PUSH2 0x23C DUP2 PUSH2 0x229 JUMP JUMPDEST DUP3 MSTORE POP POP JUMP JUMPDEST PUSH1 0x0 PUSH1 0x20 DUP3 ADD SWAP1 POP PUSH2 0x257 PUSH1 0x0 DUP4 ADD DUP5 PUSH2 0x233 JUMP JUMPDEST SWAP3 SWAP2 POP POP JUMP JUMPDEST PUSH32 0x4E487B7100000000000000000000000000000000000000000000000000000000 PUSH1 0x0 MSTORE PUSH1 0x22 PUSH1 0x4 MSTORE PUSH1 0x24 PUSH1 0x0 REVERT JUMPDEST PUSH1 0x0 PUSH1 0x2 DUP3 DIV SWAP1 POP PUSH1 0x1 DUP3 AND DUP1 PUSH2 0x2A4 JUMPI PUSH1 0x7F DUP3 AND SWAP2 POP JUMPDEST PUSH1 0x20 DUP3 LT DUP2 SUB PUSH2 0x2B7 JUMPI PUSH2 0x2B6 PUSH2 0x25D JUMP JUMPDEST JUMPDEST POP SWAP2 SWAP1 POP JUMP INVALID LOG2 PUSH5 0x6970667358 0x22 SLT KECCAK256 PUSH23 0xBD0471616E2379AD92276E97860FB0B225DFA016D85722 0xF 0xA9 LOG2 CALLDATACOPY 0xD3 0xB3 DIV 0xCB PUSH5 0x736F6C6343 STOP ADDMOD 0xF STOP CALLER "
				},
				"gasEstimates": {
					"creation": {
						"codeDepositCost": "151000",
						"executionCost": "infinite",
						"totalCost": "infinite"
					},
					"external": {
						"c()": "infinite",
						"d()": "2407",
						"e()": "2451"
					}
				},
				"methodIdentifiers": {
					"c()": "c3da42b8",
					"d()": "8a054ac2",
					"e()": "ffae15ba"
				}
			},
			"storageLayout": {
				"storage": [
					{
						"astId": 37,
						"contract": "study/chapter03/abi.sol:testABI2",
						"label": "c",
						"offset": 0,
						"slot": "0",
						"type": "t_bytes_storage"
					},
					{
						"astId": 39,
						"contract": "study/chapter03/abi.sol:testABI2",
						"label": "d",
						"offset": 0,
						"slot": "1",
						"type": "t_uint256"
					},
					{
						"astId": 41,
						"contract": "study/chapter03/abi.sol:testABI2",
						"label": "e",
						"offset": 0,
						"slot": "2",
						"type": "t_int256"
					}
				],
				"types": {
					"t_bytes_storage": {
						"encoding": "bytes",
						"label": "bytes",
						"numberOfBytes": "32"
					},
					"t_int256": {
						"encoding": "inplace",
						"label": "int256",
						"numberOfBytes": "32"
					},
					"t_uint256": {
						"encoding": "inplace",
						"label": "uint256",
						"numberOfBytes": "32"
					}
				}
			},
			"userdoc": {
				"kind": "user",
				"methods": {},
				"version": 1
			}
		}
	}
}