{
	"study/chapter03/abi.sol": {
		"testABI2": {
			"abi": [
				{
					"inputs": [],
					"stateMutability": "nonpayable",
					"type": "constructor"
				},
				{
					"inputs": [],
					"name": "c",
					"outputs": [
						{
							"internalType": "bytes",
							"name": "",
							"type": "bytes"
						}
					],
					"stateMutability": "view",
					"type": "function"
				},
				{
					"inputs": [],
					"name": "d",
					"outputs": [
						{
							"internalType": "uint256",
							"name": "",
							"type": "uint256"
						}
					],
					"stateMutability": "view",
					"type": "function"
				},
				{
					"inputs": [],
					"name": "e",
					"outputs": [
						{
							"internalType": "int256",
							"name": "",
							"type": "int256"
						}
					],
					"stateMutability": "view",
					"type": "function"
				}
			],
			"devdoc": {
				"kind": "dev",
				"methods": {},
				"version": 1
			},
			"evm": {
				"assembly": "    /* \"study/chapter03/abi.sol\":289:530  contract testABI2{... */\n  mstore(0x40, 0x80)\n    /* \"study/chapter03/abi.sol\":390:413  abi.encodePacked(\"sig\") */\n  add(0x20, mload(0x40))\n  tag_1\n  swap1\n  tag_2\n  jump\t// in\ntag_1:\n  mload(0x40)\n  0x20\n  dup2\n  dup4\n  sub\n  sub\n  dup2\n  mstore\n  swap1\n  0x40\n  mstore\n    /* \"study/chapter03/abi.sol\":373:413  bytes public c = abi.encodePacked(\"sig\") */\n  0x00\n  swap1\n  dup2\n  tag_3\n  swap2\n  swap1\n  tag_4\n  jump\t// in\ntag_3:\n  pop\n    /* \"study/chapter03/abi.sol\":466:528  constructor(){... */\n  callvalue\n  dup1\n  iszero\n  tag_5\n  jumpi\n  0x00\n  dup1\n  revert\ntag_5:\n  pop\n    /* \"study/chapter03/abi.sol\":508:509  c */\n  0x00\n    /* \"study/chapter03/abi.sol\":497:521  abi.decode(c,(uint,int)) */\n  dup1\n  sload\n  tag_8\n  swap1\n  tag_9\n  jump\t// in\ntag_8:\n  dup1\n  0x1f\n  add\n  0x20\n  dup1\n  swap2\n  div\n  mul\n  0x20\n  add\n  mload(0x40)\n  swap1\n  dup2\n  add\n  0x40\n  mstore\n  dup1\n  swap3\n  swap2\n  swap1\n  dup2\n  dup2\n  mstore\n  0x20\n  add\n  dup3\n  dup1\n  sload\n  tag_10\n  swap1\n  tag_9\n  jump\t// in\ntag_10:\n  dup1\n  iszero\n  tag_11\n  jumpi\n  dup1\n  0x1f\n  lt\n  tag_12\n  jumpi\n  0x0100\n  dup1\n  dup4\n  sload\n  div\n  mul\n  dup4\n  mstore\n  swap2\n  0x20\n  add\n  swap2\n  jump(tag_11)\ntag_12:\n  dup3\n  add\n  swap2\n  swap1\n  0x00\n  mstore\n  keccak256(0x00, 0x20)\n  swap1\ntag_13:\n  dup2\n  sload\n  dup2\n  mstore\n  swap1\n  0x01\n  add\n  swap1\n  0x20\n  add\n  dup1\n  dup4\n  gt\n  tag_13\n  jumpi\n  dup3\n  swap1\n  sub\n  0x1f\n  and\n  dup3\n  add\n  swap2\ntag_11:\n  pop\n  pop\n  pop\n  pop\n  pop\n  dup1\n  0x20\n  add\n  swap1\n  mload\n  dup2\n  add\n  swap1\n  tag_14\n  swap2\n  swap1\n  tag_15\n  jump\t// in\ntag_14:\n    /* \"study/chapter03/abi.sol\":490:491  d */\n  0x01\n  0x00\n    /* \"study/chapter03/abi.sol\":492:493  e */\n  0x02\n  0x00\n    /* \"study/chapter03/abi.sol\":489:521  (d,e) = abi.decode(c,(uint,int)) */\n  dup5\n  swap2\n  swap1\n  pop\n  sstore\n  dup4\n  swap2\n  swap1\n  pop\n  sstore\n  pop\n  pop\n    /* \"study/chapter03/abi.sol\":289:530  contract testABI2{... */\n  jump(tag_16)\n    /* \"#utility.yul\":7:155   */\ntag_17:\n    /* \"#utility.yul\":109:120   */\n  0x00\n    /* \"#utility.yul\":146:149   */\n  dup2\n    /* \"#utility.yul\":131:149   */\n  swap1\n  pop\n    /* \"#utility.yul\":7:155   */\n  swap3\n  swap2\n  pop\n  pop\n  jump\t// out\n    /* \"#utility.yul\":161:314   */\ntag_18:\n    /* \"#utility.yul\":301:306   */\n  0x7369670000000000000000000000000000000000000000000000000000000000\n    /* \"#utility.yul\":297:298   */\n  0x00\n    /* \"#utility.yul\":289:295   */\n  dup3\n    /* \"#utility.yul\":285:299   */\n  add\n    /* \"#utility.yul\":278:307   */\n  mstore\n    /* \"#utility.yul\":161:314   */\n  pop\n  jump\t// out\n    /* \"#utility.yul\":320:720   */\ntag_19:\n    /* \"#utility.yul\":480:483   */\n  0x00\n    /* \"#utility.yul\":501:585   */\n  tag_51\n    /* \"#utility.yul\":583:584   */\n  0x03\n    /* \"#utility.yul\":578:581   */\n  dup4\n    /* \"#utility.yul\":501:585   */\n  tag_17\n  jump\t// in\ntag_51:\n    /* \"#utility.yul\":494:585   */\n  swap2\n  pop\n    /* \"#utility.yul\":594:687   */\n  tag_52\n    /* \"#utility.yul\":683:686   */\n  dup3\n    /* \"#utility.yul\":594:687   */\n  tag_18\n  jump\t// in\ntag_52:\n    /* \"#utility.yul\":712:713   */\n  0x03\n    /* \"#utility.yul\":707:710   */\n  dup3\n    /* \"#utility.yul\":703:714   */\n  add\n    /* \"#utility.yul\":696:714   */\n  swap1\n  pop\n    /* \"#utility.yul\":320:720   */\n  swap2\n  swap1\n  pop\n  jump\t// out\n    /* \"#utility.yul\":726:1107   */\ntag_2:\n    /* \"#utility.yul\":911:914   */\n  0x00\n    /* \"#utility.yul\":933:1081   */\n  tag_54\n    /* \"#utility.yul\":1077:1080   */\n  dup3\n    /* \"#utility.yul\":933:1081   */\n  tag_19\n  jump\t// in\ntag_54:\n    /* \"#utility.yul\":926:1081   */\n  swap2\n  pop\n    /* \"#utility.yul\":1098:1101   */\n  dup2\n    /* \"#utility.yul\":1091:1101   */\n  swap1\n  pop\n    /* \"#utility.yul\":726:1107   */\n  swap2\n  swap1\n  pop\n  jump\t// out\n    /* \"#utility.yul\":1113:1211   */\ntag_20:\n    /* \"#utility.yul\":1164:1170   */\n  0x00\n    /* \"#utility.yul\":1198:1203   */\n  dup2\n    /* \"#utility.yul\":1192:1204   */\n  mload\n    /* \"#utility.yul\":1182:1204   */\n  swap1\n  pop\n    /* \"#utility.yul\":1113:1211   */\n  swap2\n  swap1\n  pop\n  jump\t// out\n    /* \"#utility.yul\":1217:1397   */\ntag_21:\n    /* \"#utility.yul\":1265:1342   */\n  0x4e487b7100000000000000000000000000000000000000000000000000000000\n    /* \"#utility.yul\":1262:1263   */\n  0x00\n    /* \"#utility.yul\":1255:1343   */\n  mstore\n    /* \"#utility.yul\":1362:1366   */\n  0x41\n    /* \"#utility.yul\":1359:1360   */\n  0x04\n    /* \"#utility.yul\":1352:1367   */\n  mstore\n    /* \"#utility.yul\":1386:1390   */\n  0x24\n    /* \"#utility.yul\":1383:1384   */\n  0x00\n    /* \"#utility.yul\":1376:1391   */\n  revert\n    /* \"#utility.yul\":1403:1583   */\ntag_22:\n    /* \"#utility.yul\":1451:1528   */\n  0x4e487b7100000000000000000000000000000000000000000000000000000000\n    /* \"#utility.yul\":1448:1449   */\n  0x00\n    /* \"#utility.yul\":1441:1529   */\n  mstore\n    /* \"#utility.yul\":1548:1552   */\n  0x22\n    /* \"#utility.yul\":1545:1546   */\n  0x04\n    /* \"#utility.yul\":1538:1553   */\n  mstore\n    /* \"#utility.yul\":1572:1576   */\n  0x24\n    /* \"#utility.yul\":1569:1570   */\n  0x00\n    /* \"#utility.yul\":1562:1577   */\n  revert\n    /* \"#utility.yul\":1589:1909   */\ntag_9:\n    /* \"#utility.yul\":1633:1639   */\n  0x00\n    /* \"#utility.yul\":1670:1671   */\n  0x02\n    /* \"#utility.yul\":1664:1668   */\n  dup3\n    /* \"#utility.yul\":1660:1672   */\n  div\n    /* \"#utility.yul\":1650:1672   */\n  swap1\n  pop\n    /* \"#utility.yul\":1717:1718   */\n  0x01\n    /* \"#utility.yul\":1711:1715   */\n  dup3\n    /* \"#utility.yul\":1707:1719   */\n  and\n    /* \"#utility.yul\":1738:1756   */\n  dup1\n    /* \"#utility.yul\":1728:1809   */\n  tag_59\n  jumpi\n    /* \"#utility.yul\":1794:1798   */\n  0x7f\n    /* \"#utility.yul\":1786:1792   */\n  dup3\n    /* \"#utility.yul\":1782:1799   */\n  and\n    /* \"#utility.yul\":1772:1799   */\n  swap2\n  pop\n    /* \"#utility.yul\":1728:1809   */\ntag_59:\n    /* \"#utility.yul\":1856:1858   */\n  0x20\n    /* \"#utility.yul\":1848:1854   */\n  dup3\n    /* \"#utility.yul\":1845:1859   */\n  lt\n    /* \"#utility.yul\":1825:1843   */\n  dup2\n    /* \"#utility.yul\":1822:1860   */\n  sub\n    /* \"#utility.yul\":1819:1903   */\n  tag_60\n  jumpi\n    /* \"#utility.yul\":1875:1893   */\n  tag_61\n  tag_22\n  jump\t// in\ntag_61:\n    /* \"#utility.yul\":1819:1903   */\ntag_60:\n    /* \"#utility.yul\":1640:1909   */\n  pop\n    /* \"#utility.yul\":1589:1909   */\n  swap2\n  swap1\n  pop\n  jump\t// out\n    /* \"#utility.yul\":1915:2055   */\ntag_23:\n    /* \"#utility.yul\":1963:1967   */\n  0x00\n    /* \"#utility.yul\":1986:1989   */\n  dup2\n    /* \"#utility.yul\":1978:1989   */\n  swap1\n  pop\n    /* \"#utility.yul\":2009:2012   */\n  dup2\n    /* \"#utility.yul\":2006:2007   */\n  0x00\n    /* \"#utility.yul\":1999:2013   */\n  mstore\n    /* \"#utility.yul\":2043:2047   */\n  0x20\n    /* \"#utility.yul\":2040:2041   */\n  0x00\n    /* \"#utility.yul\":2030:2048   */\n  keccak256\n    /* \"#utility.yul\":2022:2048   */\n  swap1\n  pop\n    /* \"#utility.yul\":1915:2055   */\n  swap2\n  swap1\n  pop\n  jump\t// out\n    /* \"#utility.yul\":2061:2154   */\ntag_24:\n    /* \"#utility.yul\":2098:2104   */\n  0x00\n    /* \"#utility.yul\":2145:2147   */\n  0x20\n    /* \"#utility.yul\":2140:2142   */\n  0x1f\n    /* \"#utility.yul\":2133:2138   */\n  dup4\n    /* \"#utility.yul\":2129:2143   */\n  add\n    /* \"#utility.yul\":2125:2148   */\n  div\n    /* \"#utility.yul\":2115:2148   */\n  swap1\n  pop\n    /* \"#utility.yul\":2061:2154   */\n  swap2\n  swap1\n  pop\n  jump\t// out\n    /* \"#utility.yul\":2160:2267   */\ntag_25:\n    /* \"#utility.yul\":2204:2212   */\n  0x00\n    /* \"#utility.yul\":2254:2259   */\n  dup3\n    /* \"#utility.yul\":2248:2252   */\n  dup3\n    /* \"#utility.yul\":2244:2260   */\n  shl\n    /* \"#utility.yul\":2223:2260   */\n  swap1\n  pop\n    /* \"#utility.yul\":2160:2267   */\n  swap3\n  swap2\n  pop\n  pop\n  jump\t// out\n    /* \"#utility.yul\":2273:2666   */\ntag_26:\n    /* \"#utility.yul\":2342:2348   */\n  0x00\n    /* \"#utility.yul\":2392:2393   */\n  0x08\n    /* \"#utility.yul\":2380:2390   */\n  dup4\n    /* \"#utility.yul\":2376:2394   */\n  mul\n    /* \"#utility.yul\":2415:2512   */\n  tag_66\n    /* \"#utility.yul\":2445:2511   */\n  0xffffffffffffffffffffffffffffffffffffffffffffffffffffffffffffffff\n    /* \"#utility.yul\":2434:2443   */\n  dup3\n    /* \"#utility.yul\":2415:2512   */\n  tag_25\n  jump\t// in\ntag_66:\n    /* \"#utility.yul\":2533:2572   */\n  tag_67\n    /* \"#utility.yul\":2563:2571   */\n  dup7\n    /* \"#utility.yul\":2552:2561   */\n  dup4\n    /* \"#utility.yul\":2533:2572   */\n  tag_25\n  jump\t// in\ntag_67:\n    /* \"#utility.yul\":2521:2572   */\n  swap6\n  pop\n    /* \"#utility.yul\":2605:2609   */\n  dup1\n    /* \"#utility.yul\":2601:2610   */\n  not\n    /* \"#utility.yul\":2594:2599   */\n  dup5\n    /* \"#utility.yul\":2590:2611   */\n  and\n    /* \"#utility.yul\":2581:2611   */\n  swap4\n  pop\n    /* \"#utility.yul\":2654:2658   */\n  dup1\n    /* \"#utility.yul\":2644:2652   */\n  dup7\n    /* \"#utility.yul\":2640:2659   */\n  and\n    /* \"#utility.yul\":2633:2638   */\n  dup5\n    /* \"#utility.yul\":2630:2660   */\n  or\n    /* \"#utility.yul\":2620:2660   */\n  swap3\n  pop\n    /* \"#utility.yul\":2349:2666   */\n  pop\n  pop\n    /* \"#utility.yul\":2273:2666   */\n  swap4\n  swap3\n  pop\n  pop\n  pop\n  jump\t// out\n    /* \"#utility.yul\":2672:2749   */\ntag_27:\n    /* \"#utility.yul\":2709:2716   */\n  0x00\n    /* \"#utility.yul\":2738:2743   */\n  dup2\n    /* \"#utility.yul\":2727:2743   */\n  swap1\n  pop\n    /* \"#utility.yul\":2672:2749   */\n  swap2\n  swap1\n  pop\n  jump\t// out\n    /* \"#utility.yul\":2755:2815   */\ntag_28:\n    /* \"#utility.yul\":2783:2786   */\n  0x00\n    /* \"#utility.yul\":2804:2809   */\n  dup2\n    /* \"#utility.yul\":2797:2809   */\n  swap1\n  pop\n    /* \"#utility.yul\":2755:2815   */\n  swap2\n  swap1\n  pop\n  jump\t// out\n    /* \"#utility.yul\":2821:2963   */\ntag_29:\n    /* \"#utility.yul\":2871:2880   */\n  0x00\n    /* \"#utility.yul\":2904:2957   */\n  tag_71\n    /* \"#utility.yul\":2922:2956   */\n  tag_72\n    /* \"#utility.yul\":2931:2955   */\n  tag_73\n    /* \"#utility.yul\":2949:2954   */\n  dup5\n    /* \"#utility.yul\":2931:2955   */\n  tag_27\n  jump\t// in\ntag_73:\n    /* \"#utility.yul\":2922:2956   */\n  tag_28\n  jump\t// in\ntag_72:\n    /* \"#utility.yul\":2904:2957   */\n  tag_27\n  jump\t// in\ntag_71:\n    /* \"#utility.yul\":2891:2957   */\n  swap1\n  pop\n    /* \"#utility.yul\":2821:2963   */\n  swap2\n  swap1\n  pop\n  jump\t// out\n    /* \"#utility.yul\":2969:3044   */\ntag_30:\n    /* \"#utility.yul\":3012:3015   */\n  0x00\n    /* \"#utility.yul\":3033:3038   */\n  dup2\n    /* \"#utility.yul\":3026:3038   */\n  swap1\n  pop\n    /* \"#utility.yul\":2969:3044   */\n  swap2\n  swap1\n  pop\n  jump\t// out\n    /* \"#utility.yul\":3050:3319   */\ntag_31:\n    /* \"#utility.yul\":3160:3199   */\n  tag_76\n    /* \"#utility.yul\":3191:3198   */\n  dup4\n    /* \"#utility.yul\":3160:3199   */\n  tag_29\n  jump\t// in\ntag_76:\n    /* \"#utility.yul\":3221:3312   */\n  tag_77\n    /* \"#utility.yul\":3270:3311   */\n  tag_78\n    /* \"#utility.yul\":3294:3310   */\n  dup3\n    /* \"#utility.yul\":3270:3311   */\n  tag_30\n  jump\t// in\ntag_78:\n    /* \"#utility.yul\":3262:3268   */\n  dup5\n    /* \"#utility.yul\":3255:3259   */\n  dup5\n    /* \"#utility.yul\":3249:3260   */\n  sload\n    /* \"#utility.yul\":3221:3312   */\n  tag_26\n  jump\t// in\ntag_77:\n    /* \"#utility.yul\":3215:3219   */\n  dup3\n    /* \"#utility.yul\":3208:3313   */\n  sstore\n    /* \"#utility.yul\":3126:3319   */\n  pop\n    /* \"#utility.yul\":3050:3319   */\n  pop\n  pop\n  pop\n  jump\t// out\n    /* \"#utility.yul\":3325:3398   */\ntag_32:\n    /* \"#utility.yul\":3370:3373   */\n  0x00\n    /* \"#utility.yul\":3325:3398   */\n  swap1\n  jump\t// out\n    /* \"#utility.yul\":3404:3593   */\ntag_33:\n    /* \"#utility.yul\":3481:3513   */\n  tag_81\n  tag_32\n  jump\t// in\ntag_81:\n    /* \"#utility.yul\":3522:3587   */\n  tag_82\n    /* \"#utility.yul\":3580:3586   */\n  dup2\n    /* \"#utility.yul\":3572:3578   */\n  dup5\n    /* \"#utility.yul\":3566:3570   */\n  dup5\n    /* \"#utility.yul\":3522:3587   */\n  tag_31\n  jump\t// in\ntag_82:\n    /* \"#utility.yul\":3457:3593   */\n  pop\n    /* \"#utility.yul\":3404:3593   */\n  pop\n  pop\n  jump\t// out\n    /* \"#utility.yul\":3599:3785   */\ntag_34:\n    /* \"#utility.yul\":3659:3779   */\ntag_84:\n    /* \"#utility.yul\":3676:3679   */\n  dup2\n    /* \"#utility.yul\":3669:3674   */\n  dup2\n    /* \"#utility.yul\":3666:3680   */\n  lt\n    /* \"#utility.yul\":3659:3779   */\n  iszero\n  tag_86\n  jumpi\n    /* \"#utility.yul\":3730:3769   */\n  tag_87\n    /* \"#utility.yul\":3767:3768   */\n  0x00\n    /* \"#utility.yul\":3760:3765   */\n  dup3\n    /* \"#utility.yul\":3730:3769   */\n  tag_33\n  jump\t// in\ntag_87:\n    /* \"#utility.yul\":3703:3704   */\n  0x01\n    /* \"#utility.yul\":3696:3701   */\n  dup2\n    /* \"#utility.yul\":3692:3705   */\n  add\n    /* \"#utility.yul\":3683:3705   */\n  swap1\n  pop\n    /* \"#utility.yul\":3659:3779   */\n  jump(tag_84)\ntag_86:\n    /* \"#utility.yul\":3599:3785   */\n  pop\n  pop\n  jump\t// out\n    /* \"#utility.yul\":3791:4332   */\ntag_35:\n    /* \"#utility.yul\":3891:3893   */\n  0x1f\n    /* \"#utility.yul\":3886:3889   */\n  dup3\n    /* \"#utility.yul\":3883:3894   */\n  gt\n    /* \"#utility.yul\":3880:4325   */\n  iszero\n  tag_89\n  jumpi\n    /* \"#utility.yul\":3925:3962   */\n  tag_90\n    /* \"#utility.yul\":3956:3961   */\n  dup2\n    /* \"#utility.yul\":3925:3962   */\n  tag_23\n  jump\t// in\ntag_90:\n    /* \"#utility.yul\":4008:4037   */\n  tag_91\n    /* \"#utility.yul\":4026:4036   */\n  dup5\n    /* \"#utility.yul\":4008:4037   */\n  tag_24\n  jump\t// in\ntag_91:\n    /* \"#utility.yul\":3998:4006   */\n  dup2\n    /* \"#utility.yul\":3994:4038   */\n  add\n    /* \"#utility.yul\":4191:4193   */\n  0x20\n    /* \"#utility.yul\":4179:4189   */\n  dup6\n    /* \"#utility.yul\":4176:4194   */\n  lt\n    /* \"#utility.yul\":4173:4222   */\n  iszero\n  tag_92\n  jumpi\n    /* \"#utility.yul\":4212:4220   */\n  dup2\n    /* \"#utility.yul\":4197:4220   */\n  swap1\n  pop\n    /* \"#utility.yul\":4173:4222   */\ntag_92:\n    /* \"#utility.yul\":4235:4315   */\n  tag_93\n    /* \"#utility.yul\":4291:4313   */\n  tag_94\n    /* \"#utility.yul\":4309:4312   */\n  dup6\n    /* \"#utility.yul\":4291:4313   */\n  tag_24\n  jump\t// in\ntag_94:\n    /* \"#utility.yul\":4281:4289   */\n  dup4\n    /* \"#utility.yul\":4277:4314   */\n  add\n    /* \"#utility.yul\":4264:4275   */\n  dup3\n    /* \"#utility.yul\":4235:4315   */\n  tag_34\n  jump\t// in\ntag_93:\n    /* \"#utility.yul\":3895:4325   */\n  pop\n  pop\n    /* \"#utility.yul\":3880:4325   */\ntag_89:\n    /* \"#utility.yul\":3791:4332   */\n  pop\n  pop\n  pop\n  jump\t// out\n    /* \"#utility.yul\":4338:4455   */\ntag_36:\n    /* \"#utility.yul\":4392:4400   */\n  0x00\n    /* \"#utility.yul\":4442:4447   */\n  dup3\n    /* \"#utility.yul\":4436:4440   */\n  dup3\n    /* \"#utility.yul\":4432:4448   */\n  shr\n    /* \"#utility.yul\":4411:4448   */\n  swap1\n  pop\n    /* \"#utility.yul\":4338:4455   */\n  swap3\n  swap2\n  pop\n  pop\n  jump\t// out\n    /* \"#utility.yul\":4461:4630   */\ntag_37:\n    /* \"#utility.yul\":4505:4511   */\n  0x00\n    /* \"#utility.yul\":4538:4589   */\n  tag_97\n    /* \"#utility.yul\":4586:4587   */\n  0x00\n    /* \"#utility.yul\":4582:4588   */\n  not\n    /* \"#utility.yul\":4574:4579   */\n  dup5\n    /* \"#utility.yul\":4571:4572   */\n  0x08\n    /* \"#utility.yul\":4567:4580   */\n  mul\n    /* \"#utility.yul\":4538:4589   */\n  tag_36\n  jump\t// in\ntag_97:\n    /* \"#utility.yul\":4534:4590   */\n  not\n    /* \"#utility.yul\":4619:4623   */\n  dup1\n    /* \"#utility.yul\":4613:4617   */\n  dup4\n    /* \"#utility.yul\":4609:4624   */\n  and\n    /* \"#utility.yul\":4599:4624   */\n  swap2\n  pop\n    /* \"#utility.yul\":4512:4630   */\n  pop\n    /* \"#utility.yul\":4461:4630   */\n  swap3\n  swap2\n  pop\n  pop\n  jump\t// out\n    /* \"#utility.yul\":4635:4930   */\ntag_38:\n    /* \"#utility.yul\":4711:4715   */\n  0x00\n    /* \"#utility.yul\":4857:4886   */\n  tag_99\n    /* \"#utility.yul\":4882:4885   */\n  dup4\n    /* \"#utility.yul\":4876:4880   */\n  dup4\n    /* \"#utility.yul\":4857:4886   */\n  tag_37\n  jump\t// in\ntag_99:\n    /* \"#utility.yul\":4849:4886   */\n  swap2\n  pop\n    /* \"#utility.yul\":4919:4922   */\n  dup3\n    /* \"#utility.yul\":4916:4917   */\n  0x02\n    /* \"#utility.yul\":4912:4923   */\n  mul\n    /* \"#utility.yul\":4906:4910   */\n  dup3\n    /* \"#utility.yul\":4903:4924   */\n  or\n    /* \"#utility.yul\":4895:4924   */\n  swap1\n  pop\n    /* \"#utility.yul\":4635:4930   */\n  swap3\n  swap2\n  pop\n  pop\n  jump\t// out\n    /* \"#utility.yul\":4935:6325   */\ntag_4:\n    /* \"#utility.yul\":5050:5086   */\n  tag_101\n    /* \"#utility.yul\":5082:5085   */\n  dup3\n    /* \"#utility.yul\":5050:5086   */\n  tag_20\n  jump\t// in\ntag_101:\n    /* \"#utility.yul\":5151:5169   */\n  0xffffffffffffffff\n    /* \"#utility.yul\":5143:5149   */\n  dup2\n    /* \"#utility.yul\":5140:5170   */\n  gt\n    /* \"#utility.yul\":5137:5193   */\n  iszero\n  tag_102\n  jumpi\n    /* \"#utility.yul\":5173:5191   */\n  tag_103\n  tag_21\n  jump\t// in\ntag_103:\n    /* \"#utility.yul\":5137:5193   */\ntag_102:\n    /* \"#utility.yul\":5217:5255   */\n  tag_104\n    /* \"#utility.yul\":5249:5253   */\n  dup3\n    /* \"#utility.yul\":5243:5254   */\n  sload\n    /* \"#utility.yul\":5217:5255   */\n  tag_9\n  jump\t// in\ntag_104:\n    /* \"#utility.yul\":5302:5368   */\n  tag_105\n    /* \"#utility.yul\":5361:5367   */\n  dup3\n    /* \"#utility.yul\":5353:5359   */\n  dup3\n    /* \"#utility.yul\":5347:5351   */\n  dup6\n    /* \"#utility.yul\":5302:5368   */\n  tag_35\n  jump\t// in\ntag_105:\n    /* \"#utility.yul\":5395:5396   */\n  0x00\n    /* \"#utility.yul\":5419:5423   */\n  0x20\n    /* \"#utility.yul\":5406:5423   */\n  swap1\n  pop\n    /* \"#utility.yul\":5451:5453   */\n  0x1f\n    /* \"#utility.yul\":5443:5449   */\n  dup4\n    /* \"#utility.yul\":5440:5454   */\n  gt\n    /* \"#utility.yul\":5468:5469   */\n  0x01\n    /* \"#utility.yul\":5463:6080   */\n  dup2\n  eq\n  tag_107\n  jumpi\n    /* \"#utility.yul\":6124:6125   */\n  0x00\n    /* \"#utility.yul\":6141:6147   */\n  dup5\n    /* \"#utility.yul\":6138:6215   */\n  iszero\n  tag_108\n  jumpi\n    /* \"#utility.yul\":6190:6199   */\n  dup3\n    /* \"#utility.yul\":6185:6188   */\n  dup8\n    /* \"#utility.yul\":6181:6200   */\n  add\n    /* \"#utility.yul\":6175:6201   */\n  mload\n    /* \"#utility.yul\":6166:6201   */\n  swap1\n  pop\n    /* \"#utility.yul\":6138:6215   */\ntag_108:\n    /* \"#utility.yul\":6241:6308   */\n  tag_109\n    /* \"#utility.yul\":6301:6307   */\n  dup6\n    /* \"#utility.yul\":6294:6299   */\n  dup3\n    /* \"#utility.yul\":6241:6308   */\n  tag_38\n  jump\t// in\ntag_109:\n    /* \"#utility.yul\":6235:6239   */\n  dup7\n    /* \"#utility.yul\":6228:6309   */\n  sstore\n    /* \"#utility.yul\":6097:6319   */\n  pop\n    /* \"#utility.yul\":5433:6319   */\n  jump(tag_106)\n    /* \"#utility.yul\":5463:6080   */\ntag_107:\n    /* \"#utility.yul\":5515:5519   */\n  0x1f\n    /* \"#utility.yul\":5511:5520   */\n  not\n    /* \"#utility.yul\":5503:5509   */\n  dup5\n    /* \"#utility.yul\":5499:5521   */\n  and\n    /* \"#utility.yul\":5549:5585   */\n  tag_110\n    /* \"#utility.yul\":5580:5584   */\n  dup7\n    /* \"#utility.yul\":5549:5585   */\n  tag_23\n  jump\t// in\ntag_110:\n    /* \"#utility.yul\":5607:5608   */\n  0x00\n    /* \"#utility.yul\":5621:5829   */\ntag_111:\n    /* \"#utility.yul\":5635:5642   */\n  dup3\n    /* \"#utility.yul\":5632:5633   */\n  dup2\n    /* \"#utility.yul\":5629:5643   */\n  lt\n    /* \"#utility.yul\":5621:5829   */\n  iszero\n  tag_113\n  jumpi\n    /* \"#utility.yul\":5714:5723   */\n  dup5\n    /* \"#utility.yul\":5709:5712   */\n  dup10\n    /* \"#utility.yul\":5705:5724   */\n  add\n    /* \"#utility.yul\":5699:5725   */\n  mload\n    /* \"#utility.yul\":5691:5697   */\n  dup3\n    /* \"#utility.yul\":5684:5726   */\n  sstore\n    /* \"#utility.yul\":5765:5766   */\n  0x01\n    /* \"#utility.yul\":5757:5763   */\n  dup3\n    /* \"#utility.yul\":5753:5767   */\n  add\n    /* \"#utility.yul\":5743:5767   */\n  swap2\n  pop\n    /* \"#utility.yul\":5812:5814   */\n  0x20\n    /* \"#utility.yul\":5801:5810   */\n  dup6\n    /* \"#utility.yul\":5797:5815   */\n  add\n    /* \"#utility.yul\":5784:5815   */\n  swap5\n  pop\n    /* \"#utility.yul\":5658:5662   */\n  0x20\n    /* \"#utility.yul\":5655:5656   */\n  dup2\n    /* \"#utility.yul\":5651:5663   */\n  add\n    /* \"#utility.yul\":5646:5663   */\n  swap1\n  pop\n    /* \"#utility.yul\":5621:5829   */\n  jump(tag_111)\ntag_113:\n    /* \"#utility.yul\":5857:5863   */\n  dup7\n    /* \"#utility.yul\":5848:5855   */\n  dup4\n    /* \"#utility.yul\":5845:5864   */\n  lt\n    /* \"#utility.yul\":5842:6021   */\n  iszero\n  tag_114\n  jumpi\n    /* \"#utility.yul\":5915:5924   */\n  dup5\n    /* \"#utility.yul\":5910:5913   */\n  dup10\n    /* \"#utility.yul\":5906:5925   */\n  add\n    /* \"#utility.yul\":5900:5926   */\n  mload\n    /* \"#utility.yul\":5958:6006   */\n  tag_115\n    /* \"#utility.yul\":6000:6004   */\n  0x1f\n    /* \"#utility.yul\":5992:5998   */\n  dup10\n    /* \"#utility.yul\":5988:6005   */\n  and\n    /* \"#utility.yul\":5977:5986   */\n  dup3\n    /* \"#utility.yul\":5958:6006   */\n  tag_37\n  jump\t// in\ntag_115:\n    /* \"#utility.yul\":5950:5956   */\n  dup4\n    /* \"#utility.yul\":5943:6007   */\n  sstore\n    /* \"#utility.yul\":5865:6021   */\n  pop\n    /* \"#utility.yul\":5842:6021   */\ntag_114:\n    /* \"#utility.yul\":6067:6068   */\n  0x01\n    /* \"#utility.yul\":6063:6064   */\n  0x02\n    /* \"#utility.yul\":6055:6061   */\n  dup9\n    /* \"#utility.yul\":6051:6065   */\n  mul\n    /* \"#utility.yul\":6047:6069   */\n  add\n    /* \"#utility.yul\":6041:6045   */\n  dup9\n    /* \"#utility.yul\":6034:6070   */\n  sstore\n    /* \"#utility.yul\":5470:6080   */\n  pop\n  pop\n  pop\n    /* \"#utility.yul\":5433:6319   */\ntag_106:\n  pop\n    /* \"#utility.yul\":5025:6325   */\n  pop\n  pop\n  pop\n    /* \"#utility.yul\":4935:6325   */\n  pop\n  pop\n  jump\t// out\n    /* \"#utility.yul\":6412:6529   */\ntag_40:\n    /* \"#utility.yul\":6521:6522   */\n  0x00\n    /* \"#utility.yul\":6518:6519   */\n  dup1\n    /* \"#utility.yul\":6511:6523   */\n  revert\n    /* \"#utility.yul\":6658:6780   */\ntag_42:\n    /* \"#utility.yul\":6731:6755   */\n  tag_120\n    /* \"#utility.yul\":6749:6754   */\n  dup2\n    /* \"#utility.yul\":6731:6755   */\n  tag_27\n  jump\t// in\ntag_120:\n    /* \"#utility.yul\":6724:6729   */\n  dup2\n    /* \"#utility.yul\":6721:6756   */\n  eq\n    /* \"#utility.yul\":6711:6774   */\n  tag_121\n  jumpi\n    /* \"#utility.yul\":6770:6771   */\n  0x00\n    /* \"#utility.yul\":6767:6768   */\n  dup1\n    /* \"#utility.yul\":6760:6772   */\n  revert\n    /* \"#utility.yul\":6711:6774   */\ntag_121:\n    /* \"#utility.yul\":6658:6780   */\n  pop\n  jump\t// out\n    /* \"#utility.yul\":6786:6929   */\ntag_43:\n    /* \"#utility.yul\":6843:6848   */\n  0x00\n    /* \"#utility.yul\":6874:6880   */\n  dup2\n    /* \"#utility.yul\":6868:6881   */\n  mload\n    /* \"#utility.yul\":6859:6881   */\n  swap1\n  pop\n    /* \"#utility.yul\":6890:6923   */\n  tag_123\n    /* \"#utility.yul\":6917:6922   */\n  dup2\n    /* \"#utility.yul\":6890:6923   */\n  tag_42\n  jump\t// in\ntag_123:\n    /* \"#utility.yul\":6786:6929   */\n  swap3\n  swap2\n  pop\n  pop\n  jump\t// out\n    /* \"#utility.yul\":6935:7011   */\ntag_44:\n    /* \"#utility.yul\":6971:6978   */\n  0x00\n    /* \"#utility.yul\":7000:7005   */\n  dup2\n    /* \"#utility.yul\":6989:7005   */\n  swap1\n  pop\n    /* \"#utility.yul\":6935:7011   */\n  swap2\n  swap1\n  pop\n  jump\t// out\n    /* \"#utility.yul\":7017:7137   */\ntag_45:\n    /* \"#utility.yul\":7089:7112   */\n  tag_126\n    /* \"#utility.yul\":7106:7111   */\n  dup2\n    /* \"#utility.yul\":7089:7112   */\n  tag_44\n  jump\t// in\ntag_126:\n    /* \"#utility.yul\":7082:7087   */\n  dup2\n    /* \"#utility.yul\":7079:7113   */\n  eq\n    /* \"#utility.yul\":7069:7131   */\n  tag_127\n  jumpi\n    /* \"#utility.yul\":7127:7128   */\n  0x00\n    /* \"#utility.yul\":7124:7125   */\n  dup1\n    /* \"#utility.yul\":7117:7129   */\n  revert\n    /* \"#utility.yul\":7069:7131   */\ntag_127:\n    /* \"#utility.yul\":7017:7137   */\n  pop\n  jump\t// out\n    /* \"#utility.yul\":7143:7284   */\ntag_46:\n    /* \"#utility.yul\":7199:7204   */\n  0x00\n    /* \"#utility.yul\":7230:7236   */\n  dup2\n    /* \"#utility.yul\":7224:7237   */\n  mload\n    /* \"#utility.yul\":7215:7237   */\n  swap1\n  pop\n    /* \"#utility.yul\":7246:7278   */\n  tag_129\n    /* \"#utility.yul\":7272:7277   */\n  dup2\n    /* \"#utility.yul\":7246:7278   */\n  tag_45\n  jump\t// in\ntag_129:\n    /* \"#utility.yul\":7143:7284   */\n  swap3\n  swap2\n  pop\n  pop\n  jump\t// out\n    /* \"#utility.yul\":7290:7795   */\ntag_15:\n    /* \"#utility.yul\":7368:7374   */\n  0x00\n    /* \"#utility.yul\":7376:7382   */\n  dup1\n    /* \"#utility.yul\":7425:7427   */\n  0x40\n    /* \"#utility.yul\":7413:7422   */\n  dup4\n    /* \"#utility.yul\":7404:7411   */\n  dup6\n    /* \"#utility.yul\":7400:7423   */\n  sub\n    /* \"#utility.yul\":7396:7428   */\n  slt\n    /* \"#utility.yul\":7393:7512   */\n  iszero\n  tag_131\n  jumpi\n    /* \"#utility.yul\":7431:7510   */\n  tag_132\n  tag_40\n  jump\t// in\ntag_132:\n    /* \"#utility.yul\":7393:7512   */\ntag_131:\n    /* \"#utility.yul\":7551:7552   */\n  0x00\n    /* \"#utility.yul\":7576:7640   */\n  tag_133\n    /* \"#utility.yul\":7632:7639   */\n  dup6\n    /* \"#utility.yul\":7623:7629   */\n  dup3\n    /* \"#utility.yul\":7612:7621   */\n  dup7\n    /* \"#utility.yul\":7608:7630   */\n  add\n    /* \"#utility.yul\":7576:7640   */\n  tag_43\n  jump\t// in\ntag_133:\n    /* \"#utility.yul\":7566:7640   */\n  swap3\n  pop\n    /* \"#utility.yul\":7522:7650   */\n  pop\n    /* \"#utility.yul\":7689:7691   */\n  0x20\n    /* \"#utility.yul\":7715:7778   */\n  tag_134\n    /* \"#utility.yul\":7770:7777   */\n  dup6\n    /* \"#utility.yul\":7761:7767   */\n  dup3\n    /* \"#utility.yul\":7750:7759   */\n  dup7\n    /* \"#utility.yul\":7746:7768   */\n  add\n    /* \"#utility.yul\":7715:7778   */\n  tag_46\n  jump\t// in\ntag_134:\n    /* \"#utility.yul\":7705:7778   */\n  swap2\n  pop\n    /* \"#utility.yul\":7660:7788   */\n  pop\n    /* \"#utility.yul\":7290:7795   */\n  swap3\n  pop\n  swap3\n  swap1\n  pop\n  jump\t// out\n    /* \"study/chapter03/abi.sol\":289:530  contract testABI2{... */\ntag_16:\n  dataSize(sub_0)\n  dup1\n  dataOffset(sub_0)\n  0x00\n  codecopy\n  0x00\n  return\nstop\n\nsub_0: assembly {\n        /* \"study/chapter03/abi.sol\":289:530  contract testABI2{... */\n      mstore(0x40, 0x80)\n      callvalue\n      dup1\n      iszero\n      tag_1\n      jumpi\n      0x00\n      dup1\n      revert\n    tag_1:\n      pop\n      jumpi(tag_2, lt(calldatasize, 0x04))\n      shr(0xe0, calldataload(0x00))\n      dup1\n      0x8a054ac2\n      eq\n      tag_3\n      jumpi\n      dup1\n      0xc3da42b8\n      eq\n      tag_4\n      jumpi\n      dup1\n      0xffae15ba\n      eq\n      tag_5\n      jumpi\n    tag_2:\n      0x00\n      dup1\n      revert\n        /* \"study/chapter03/abi.sol\":424:437  uint public d */\n    tag_3:\n      tag_6\n      tag_7\n      jump\t// in\n    tag_6:\n      mload(0x40)\n      tag_8\n      swap2\n      swap1\n      tag_9\n      jump\t// in\n    tag_8:\n      mload(0x40)\n      dup1\n      swap2\n      sub\n      swap1\n      return\n        /* \"study/chapter03/abi.sol\":373:413  bytes public c = abi.encodePacked(\"sig\") */\n    tag_4:\n      tag_10\n      tag_11\n      jump\t// in\n    tag_10:\n      mload(0x40)\n      tag_12\n      swap2\n      swap1\n      tag_13\n      jump\t// in\n    tag_12:\n      mload(0x40)\n      dup1\n      swap2\n      sub\n      swap1\n      return\n        /* \"study/chapter03/abi.sol\":443:455  int public e */\n    tag_5:\n      tag_14\n      tag_15\n      jump\t// in\n    tag_14:\n      mload(0x40)\n      tag_16\n      swap2\n      swap1\n      tag_17\n      jump\t// in\n    tag_16:\n      mload(0x40)\n      dup1\n      swap2\n      sub\n      swap1\n      return\n        /* \"study/chapter03/abi.sol\":424:437  uint public d */\n    tag_7:\n      sload(0x01)\n      dup2\n      jump\t// out\n        /* \"study/chapter03/abi.sol\":373:413  bytes public c = abi.encodePacked(\"sig\") */\n    tag_11:\n      0x00\n      dup1\n      sload\n      tag_18\n      swap1\n      tag_19\n      jump\t// in\n    tag_18:\n      dup1\n      0x1f\n      add\n      0x20\n      dup1\n      swap2\n      div\n      mul\n      0x20\n      add\n      mload(0x40)\n      swap1\n      dup2\n      add\n      0x40\n      mstore\n      dup1\n      swap3\n      swap2\n      swap1\n      dup2\n      dup2\n      mstore\n      0x20\n      add\n      dup3\n      dup1\n      sload\n      tag_20\n      swap1\n      tag_19\n      jump\t// in\n    tag_20:\n      dup1\n      iszero\n      tag_21\n      jumpi\n      dup1\n      0x1f\n      lt\n      tag_22\n      jumpi\n      0x0100\n      dup1\n      dup4\n      sload\n      div\n      mul\n      dup4\n      mstore\n      swap2\n      0x20\n      add\n      swap2\n      jump(tag_21)\n    tag_22:\n      dup3\n      add\n      swap2\n      swap1\n      0x00\n      mstore\n      keccak256(0x00, 0x20)\n      swap1\n    tag_23:\n      dup2\n      sload\n      dup2\n      mstore\n      swap1\n      0x01\n      add\n      swap1\n      0x20\n      add\n      dup1\n      dup4\n      gt\n      tag_23\n      jumpi\n      dup3\n      swap1\n      sub\n      0x1f\n      and\n      dup3\n      add\n      swap2\n    tag_21:\n      pop\n      pop\n      pop\n      pop\n      pop\n      dup2\n      jump\t// out\n        /* \"study/chapter03/abi.sol\":443:455  int public e */\n    tag_15:\n      sload(0x02)\n      dup2\n      jump\t// out\n        /* \"#utility.yul\":7:84   */\n    tag_24:\n        /* \"#utility.yul\":44:51   */\n      0x00\n        /* \"#utility.yul\":73:78   */\n      dup2\n        /* \"#utility.yul\":62:78   */\n      swap1\n      pop\n        /* \"#utility.yul\":7:84   */\n      swap2\n      swap1\n      pop\n      jump\t// out\n        /* \"#utility.yul\":90:208   */\n    tag_25:\n        /* \"#utility.yul\":177:201   */\n      tag_37\n        /* \"#utility.yul\":195:200   */\n      dup2\n        /* \"#utility.yul\":177:201   */\n      tag_24\n      jump\t// in\n    tag_37:\n        /* \"#utility.yul\":172:175   */\n      dup3\n        /* \"#utility.yul\":165:202   */\n      mstore\n        /* \"#utility.yul\":90:208   */\n      pop\n      pop\n      jump\t// out\n        /* \"#utility.yul\":214:436   */\n    tag_9:\n        /* \"#utility.yul\":307:311   */\n      0x00\n        /* \"#utility.yul\":345:347   */\n      0x20\n        /* \"#utility.yul\":334:343   */\n      dup3\n        /* \"#utility.yul\":330:348   */\n      add\n        /* \"#utility.yul\":322:348   */\n      swap1\n      pop\n        /* \"#utility.yul\":358:429   */\n      tag_39\n        /* \"#utility.yul\":426:427   */\n      0x00\n        /* \"#utility.yul\":415:424   */\n      dup4\n        /* \"#utility.yul\":411:428   */\n      add\n        /* \"#utility.yul\":402:408   */\n      dup5\n        /* \"#utility.yul\":358:429   */\n      tag_25\n      jump\t// in\n    tag_39:\n        /* \"#utility.yul\":214:436   */\n      swap3\n      swap2\n      pop\n      pop\n      jump\t// out\n        /* \"#utility.yul\":442:540   */\n    tag_26:\n        /* \"#utility.yul\":493:499   */\n      0x00\n        /* \"#utility.yul\":527:532   */\n      dup2\n        /* \"#utility.yul\":521:533   */\n      mload\n        /* \"#utility.yul\":511:533   */\n      swap1\n      pop\n        /* \"#utility.yul\":442:540   */\n      swap2\n      swap1\n      pop\n      jump\t// out\n        /* \"#utility.yul\":546:714   */\n    tag_27:\n        /* \"#utility.yul\":629:640   */\n      0x00\n        /* \"#utility.yul\":663:669   */\n      dup3\n        /* \"#utility.yul\":658:661   */\n      dup3\n        /* \"#utility.yul\":651:670   */\n      mstore\n        /* \"#utility.yul\":703:707   */\n      0x20\n        /* \"#utility.yul\":698:701   */\n      dup3\n        /* \"#utility.yul\":694:708   */\n      add\n        /* \"#utility.yul\":679:708   */\n      swap1\n      pop\n        /* \"#utility.yul\":546:714   */\n      swap3\n      swap2\n      pop\n      pop\n      jump\t// out\n        /* \"#utility.yul\":720:1027   */\n    tag_28:\n        /* \"#utility.yul\":788:789   */\n      0x00\n        /* \"#utility.yul\":798:911   */\n    tag_43:\n        /* \"#utility.yul\":812:818   */\n      dup4\n        /* \"#utility.yul\":809:810   */\n      dup2\n        /* \"#utility.yul\":806:819   */\n      lt\n        /* \"#utility.yul\":798:911   */\n      iszero\n      tag_45\n      jumpi\n        /* \"#utility.yul\":897:898   */\n      dup1\n        /* \"#utility.yul\":892:895   */\n      dup3\n        /* \"#utility.yul\":888:899   */\n      add\n        /* \"#utility.yul\":882:900   */\n      mload\n        /* \"#utility.yul\":878:879   */\n      dup2\n        /* \"#utility.yul\":873:876   */\n      dup5\n        /* \"#utility.yul\":869:880   */\n      add\n        /* \"#utility.yul\":862:901   */\n      mstore\n        /* \"#utility.yul\":834:836   */\n      0x20\n        /* \"#utility.yul\":831:832   */\n      dup2\n        /* \"#utility.yul\":827:837   */\n      add\n        /* \"#utility.yul\":822:837   */\n      swap1\n      pop\n        /* \"#utility.yul\":798:911   */\n      jump(tag_43)\n    tag_45:\n        /* \"#utility.yul\":929:935   */\n      dup4\n        /* \"#utility.yul\":926:927   */\n      dup2\n        /* \"#utility.yul\":923:936   */\n      gt\n        /* \"#utility.yul\":920:1021   */\n      iszero\n      tag_46\n      jumpi\n        /* \"#utility.yul\":1009:1010   */\n      0x00\n        /* \"#utility.yul\":1000:1006   */\n      dup5\n        /* \"#utility.yul\":995:998   */\n      dup5\n        /* \"#utility.yul\":991:1007   */\n      add\n        /* \"#utility.yul\":984:1011   */\n      mstore\n        /* \"#utility.yul\":920:1021   */\n    tag_46:\n        /* \"#utility.yul\":769:1027   */\n      pop\n        /* \"#utility.yul\":720:1027   */\n      pop\n      pop\n      pop\n      jump\t// out\n        /* \"#utility.yul\":1033:1135   */\n    tag_29:\n        /* \"#utility.yul\":1074:1080   */\n      0x00\n        /* \"#utility.yul\":1125:1127   */\n      0x1f\n        /* \"#utility.yul\":1121:1128   */\n      not\n        /* \"#utility.yul\":1116:1118   */\n      0x1f\n        /* \"#utility.yul\":1109:1114   */\n      dup4\n        /* \"#utility.yul\":1105:1119   */\n      add\n        /* \"#utility.yul\":1101:1129   */\n      and\n        /* \"#utility.yul\":1091:1129   */\n      swap1\n      pop\n        /* \"#utility.yul\":1033:1135   */\n      swap2\n      swap1\n      pop\n      jump\t// out\n        /* \"#utility.yul\":1141:1501   */\n    tag_30:\n        /* \"#utility.yul\":1227:1230   */\n      0x00\n        /* \"#utility.yul\":1255:1293   */\n      tag_49\n        /* \"#utility.yul\":1287:1292   */\n      dup3\n        /* \"#utility.yul\":1255:1293   */\n      tag_26\n      jump\t// in\n    tag_49:\n        /* \"#utility.yul\":1309:1379   */\n      tag_50\n        /* \"#utility.yul\":1372:1378   */\n      dup2\n        /* \"#utility.yul\":1367:1370   */\n      dup6\n        /* \"#utility.yul\":1309:1379   */\n      tag_27\n      jump\t// in\n    tag_50:\n        /* \"#utility.yul\":1302:1379   */\n      swap4\n      pop\n        /* \"#utility.yul\":1388:1440   */\n      tag_51\n        /* \"#utility.yul\":1433:1439   */\n      dup2\n        /* \"#utility.yul\":1428:1431   */\n      dup6\n        /* \"#utility.yul\":1421:1425   */\n      0x20\n        /* \"#utility.yul\":1414:1419   */\n      dup7\n        /* \"#utility.yul\":1410:1426   */\n      add\n        /* \"#utility.yul\":1388:1440   */\n      tag_28\n      jump\t// in\n    tag_51:\n        /* \"#utility.yul\":1465:1494   */\n      tag_52\n        /* \"#utility.yul\":1487:1493   */\n      dup2\n        /* \"#utility.yul\":1465:1494   */\n      tag_29\n      jump\t// in\n    tag_52:\n        /* \"#utility.yul\":1460:1463   */\n      dup5\n        /* \"#utility.yul\":1456:1495   */\n      add\n        /* \"#utility.yul\":1449:1495   */\n      swap2\n      pop\n        /* \"#utility.yul\":1231:1501   */\n      pop\n        /* \"#utility.yul\":1141:1501   */\n      swap3\n      swap2\n      pop\n      pop\n      jump\t// out\n        /* \"#utility.yul\":1507:1816   */\n    tag_13:\n        /* \"#utility.yul\":1618:1622   */\n      0x00\n        /* \"#utility.yul\":1656:1658   */\n      0x20\n        /* \"#utility.yul\":1645:1654   */\n      dup3\n        /* \"#utility.yul\":1641:1659   */\n      add\n        /* \"#utility.yul\":1633:1659   */\n      swap1\n      pop\n        /* \"#utility.yul\":1705:1714   */\n      dup2\n        /* \"#utility.yul\":1699:1703   */\n      dup2\n        /* \"#utility.yul\":1695:1715   */\n      sub\n        /* \"#utility.yul\":1691:1692   */\n      0x00\n        /* \"#utility.yul\":1680:1689   */\n      dup4\n        /* \"#utility.yul\":1676:1693   */\n      add\n        /* \"#utility.yul\":1669:1716   */\n      mstore\n        /* \"#utility.yul\":1733:1809   */\n      tag_54\n        /* \"#utility.yul\":1804:1808   */\n      dup2\n        /* \"#utility.yul\":1795:1801   */\n      dup5\n        /* \"#utility.yul\":1733:1809   */\n      tag_30\n      jump\t// in\n    tag_54:\n        /* \"#utility.yul\":1725:1809   */\n      swap1\n      pop\n        /* \"#utility.yul\":1507:1816   */\n      swap3\n      swap2\n      pop\n      pop\n      jump\t// out\n        /* \"#utility.yul\":1822:1898   */\n    tag_31:\n        /* \"#utility.yul\":1858:1865   */\n      0x00\n        /* \"#utility.yul\":1887:1892   */\n      dup2\n        /* \"#utility.yul\":1876:1892   */\n      swap1\n      pop\n        /* \"#utility.yul\":1822:1898   */\n      swap2\n      swap1\n      pop\n      jump\t// out\n        /* \"#utility.yul\":1904:2019   */\n    tag_32:\n        /* \"#utility.yul\":1989:2012   */\n      tag_57\n        /* \"#utility.yul\":2006:2011   */\n      dup2\n        /* \"#utility.yul\":1989:2012   */\n      tag_31\n      jump\t// in\n    tag_57:\n        /* \"#utility.yul\":1984:1987   */\n      dup3\n        /* \"#utility.yul\":1977:2013   */\n      mstore\n        /* \"#utility.yul\":1904:2019   */\n      pop\n      pop\n      jump\t// out\n        /* \"#utility.yul\":2025:2243   */\n    tag_17:\n        /* \"#utility.yul\":2116:2120   */\n      0x00\n        /* \"#utility.yul\":2154:2156   */\n      0x20\n        /* \"#utility.yul\":2143:2152   */\n      dup3\n        /* \"#utility.yul\":2139:2157   */\n      add\n        /* \"#utility.yul\":2131:2157   */\n      swap1\n      pop\n        /* \"#utility.yul\":2167:2236   */\n      tag_59\n        /* \"#utility.yul\":2233:2234   */\n      0x00\n        /* \"#utility.yul\":2222:2231   */\n      dup4\n        /* \"#utility.yul\":2218:2235   */\n      add\n        /* \"#utility.yul\":2209:2215   */\n      dup5\n        /* \"#utility.yul\":2167:2236   */\n      tag_32\n      jump\t// in\n    tag_59:\n        /* \"#utility.yul\":2025:2243   */\n      swap3\n      swap2\n      pop\n      pop\n      jump\t// out\n        /* \"#utility.yul\":2249:2429   */\n    tag_33:\n        /* \"#utility.yul\":2297:2374   */\n      0x4e487b7100000000000000000000000000000000000000000000000000000000\n        /* \"#utility.yul\":2294:2295   */\n      0x00\n        /* \"#utility.yul\":2287:2375   */\n      mstore\n        /* \"#utility.yul\":2394:2398   */\n      0x22\n        /* \"#utility.yul\":2391:2392   */\n      0x04\n        /* \"#utility.yul\":2384:2399   */\n      mstore\n        /* \"#utility.yul\":2418:2422   */\n      0x24\n        /* \"#utility.yul\":2415:2416   */\n      0x00\n        /* \"#utility.yul\":2408:2423   */\n      revert\n        /* \"#utility.yul\":2435:2755   */\n    tag_19:\n        /* \"#utility.yul\":2479:2485   */\n      0x00\n        /* \"#utility.yul\":2516:2517   */\n      0x02\n        /* \"#utility.yul\":2510:2514   */\n      dup3\n        /* \"#utility.yul\":2506:2518   */\n      div\n        /* \"#utility.yul\":2496:2518   */\n      swap1\n      pop\n        /* \"#utility.yul\":2563:2564   */\n      0x01\n        /* \"#utility.yul\":2557:2561   */\n      dup3\n        /* \"#utility.yul\":2553:2565   */\n      and\n        /* \"#utility.yul\":2584:2602   */\n      dup1\n        /* \"#utility.yul\":2574:2655   */\n      tag_62\n      jumpi\n        /* \"#utility.yul\":2640:2644   */\n      0x7f\n        /* \"#utility.yul\":2632:2638   */\n      dup3\n        /* \"#utility.yul\":2628:2645   */\n      and\n        /* \"#utility.yul\":2618:2645   */\n      swap2\n      pop\n        /* \"#utility.yul\":2574:2655   */\n    tag_62:\n        /* \"#utility.yul\":2702:2704   */\n      0x20\n        /* \"#utility.yul\":2694:2700   */\n      dup3\n        /* \"#utility.yul\":2691:2705   */\n      lt\n        /* \"#utility.yul\":2671:2689   */\n      dup2\n        /* \"#utility.yul\":2668:2706   */\n      sub\n        /* \"#utility.yul\":2665:2749   */\n      tag_63\n      jumpi\n        /* \"#utility.yul\":2721:2739   */\n      tag_64\n      tag_33\n      jump\t// in\n    tag_64:\n        /* \"#utility.yul\":2665:2749   */\n    tag_63:\n        /* \"#utility.yul\":2486:2755   */\n      pop\n        /* \"#utility.yul\":2435:2755   */\n      swap2\n      swap1\n      pop\n      jump\t// out\n\n    auxdata: 0xa26469706673582212207086a2deb29924d0730a079b4c0dc3240bfe88f9a527b7f8e5a9e9b0805d0a3164736f6c634300080f0033\n}\n",
				"bytecode": {
					"linkReferences": {},
					"object": "6080604052604051602001620000159062000160565b60405160208183030381529060405260009081620000349190620003f1565b503480156200004257600080fd5b50600080546200005290620001e0565b80601f01602080910402602001604051908101604052809291908181526020018280546200008090620001e0565b8015620000d15780601f10620000a557610100808354040283529160200191620000d1565b820191906000526020600020905b815481529060010190602001808311620000b357829003601f168201915b5050505050806020019051810190620000eb919062000549565b600160006002600084919050558391905055505062000590565b600081905092915050565b7f7369670000000000000000000000000000000000000000000000000000000000600082015250565b60006200014860038362000105565b9150620001558262000110565b600382019050919050565b60006200016d8262000139565b9150819050919050565b600081519050919050565b7f4e487b7100000000000000000000000000000000000000000000000000000000600052604160045260246000fd5b7f4e487b7100000000000000000000000000000000000000000000000000000000600052602260045260246000fd5b60006002820490506001821680620001f957607f821691505b6020821081036200020f576200020e620001b1565b5b50919050565b60008190508160005260206000209050919050565b60006020601f8301049050919050565b600082821b905092915050565b600060088302620002797fffffffffffffffffffffffffffffffffffffffffffffffffffffffffffffffff826200023a565b6200028586836200023a565b95508019841693508086168417925050509392505050565b6000819050919050565b6000819050919050565b6000620002d2620002cc620002c6846200029d565b620002a7565b6200029d565b9050919050565b6000819050919050565b620002ee83620002b1565b62000306620002fd82620002d9565b84845462000247565b825550505050565b600090565b6200031d6200030e565b6200032a818484620002e3565b505050565b5b8181101562000352576200034660008262000313565b60018101905062000330565b5050565b601f821115620003a1576200036b8162000215565b62000376846200022a565b8101602085101562000386578190505b6200039e62000395856200022a565b8301826200032f565b50505b505050565b600082821c905092915050565b6000620003c660001984600802620003a6565b1980831691505092915050565b6000620003e18383620003b3565b9150826002028217905092915050565b620003fc8262000177565b67ffffffffffffffff81111562000418576200041762000182565b5b620004248254620001e0565b6200043182828562000356565b600060209050601f83116001811462000469576000841562000454578287015190505b620004608582620003d3565b865550620004d0565b601f198416620004798662000215565b60005b82811015620004a3578489015182556001820191506020850194506020810190506200047c565b86831015620004c35784890151620004bf601f891682620003b3565b8355505b6001600288020188555050505b505050505050565b600080fd5b620004e8816200029d565b8114620004f457600080fd5b50565b6000815190506200050881620004dd565b92915050565b6000819050919050565b62000523816200050e565b81146200052f57600080fd5b50565b600081519050620005438162000518565b92915050565b60008060408385031215620005635762000562620004d8565b5b60006200057385828601620004f7565b9250506020620005868582860162000532565b9150509250929050565b6102f380620005a06000396000f3fe608060405234801561001057600080fd5b50600436106100415760003560e01c80638a054ac214610046578063c3da42b814610064578063ffae15ba14610082575b600080fd5b61004e6100a0565b60405161005b9190610153565b60405180910390f35b61006c6100a6565b6040516100799190610207565b60405180910390f35b61008a610134565b6040516100979190610242565b60405180910390f35b60015481565b600080546100b39061028c565b80601f01602080910402602001604051908101604052809291908181526020018280546100df9061028c565b801561012c5780601f106101015761010080835404028352916020019161012c565b820191906000526020600020905b81548152906001019060200180831161010f57829003601f168201915b505050505081565b60025481565b6000819050919050565b61014d8161013a565b82525050565b60006020820190506101686000830184610144565b92915050565b600081519050919050565b600082825260208201905092915050565b60005b838110156101a857808201518184015260208101905061018d565b838111156101b7576000848401525b50505050565b6000601f19601f8301169050919050565b60006101d98261016e565b6101e38185610179565b93506101f381856020860161018a565b6101fc816101bd565b840191505092915050565b6000602082019050818103600083015261022181846101ce565b905092915050565b6000819050919050565b61023c81610229565b82525050565b60006020820190506102576000830184610233565b92915050565b7f4e487b7100000000000000000000000000000000000000000000000000000000600052602260045260246000fd5b600060028204905060018216806102a457607f821691505b6020821081036102b7576102b661025d565b5b5091905056fea26469706673582212207086a2deb29924d0730a079b4c0dc3240bfe88f9a527b7f8e5a9e9b0805d0a3164736f6c634300080f0033",
					"opcodes": "PUSH1 0x80 PUSH1 0x40 MSTORE PUSH1 0x40 MLOAD PUSH1 0x20 ADD PUSH3 0x15 SWAP1 PUSH3 0x160 JUMP JUMPDEST PUSH1 0x40 MLOAD PUSH1 0x20 DUP2 DUP4 SUB SUB DUP2 MSTORE SWAP1 PUSH1 0x40 MSTORE PUSH1 0x0 SWAP1 DUP2 PUSH3 0x34 SWAP2 SWAP1 PUSH3 0x3F1 JUMP JUMPDEST POP CALLVALUE DUP1 ISZERO PUSH3 0x42 JUMPI PUSH1 0x0 DUP1 REVERT JUMPDEST POP PUSH1 0x0 DUP1 SLOAD PUSH3 0x52 SWAP1 PUSH3 0x1E0 JUMP JUMPDEST DUP1 PUSH1 0x1F ADD PUSH1 0x20 DUP1 SWAP2 DIV MUL PUSH1 0x20 ADD PUSH1 0x40 MLOAD SWAP1 DUP2 ADD PUSH1 0x40 MSTORE DUP1 SWAP3 SWAP2 SWAP1 DUP2 DUP2 MSTORE PUSH1 0x20 ADD DUP3 DUP1 SLOAD PUSH3 0x80 SWAP1 PUSH3 0x1E0 JUMP JUMPDEST DUP1 ISZERO PUSH3 0xD1 JUMPI DUP1 PUSH1 0x1F LT PUSH3 0xA5 JUMPI PUSH2 0x100 DUP1 DUP4 SLOAD DIV MUL DUP4 MSTORE SWAP2 PUSH1 0x20 ADD SWAP2 PUSH3 0xD1 JUMP JUMPDEST DUP3 ADD SWAP2 SWAP1 PUSH1 0x0 MSTORE PUSH1 0x20 PUSH1 0x0 KECCAK256 SWAP1 JUMPDEST DUP2 SLOAD DUP2 MSTORE SWAP1 PUSH1 0x1 ADD SWAP1 PUSH1 0x20 ADD DUP1 DUP4 GT PUSH3 0xB3 JUMPI DUP3 SWAP1 SUB PUSH1 0x1F AND DUP3 ADD SWAP2 JUMPDEST POP POP POP POP POP DUP1 PUSH1 0x20 ADD SWAP1 MLOAD DUP2 ADD SWAP1 PUSH3 0xEB SWAP2 SWAP1 PUSH3 0x549 JUMP JUMPDEST PUSH1 0x1 PUSH1 0x0 PUSH1 0x2 PUSH1 0x0 DUP5 SWAP2 SWAP1 POP SSTORE DUP4 SWAP2 SWAP1 POP SSTORE POP POP PUSH3 0x590 JUMP JUMPDEST PUSH1 0x0 DUP2 SWAP1 POP SWAP3 SWAP2 POP POP JUMP JUMPDEST PUSH32 0x7369670000000000000000000000000000000000000000000000000000000000 PUSH1 0x0 DUP3 ADD MSTORE POP JUMP JUMPDEST PUSH1 0x0 PUSH3 0x148 PUSH1 0x3 DUP4 PUSH3 0x105 JUMP JUMPDEST SWAP2 POP PUSH3 0x155 DUP3 PUSH3 0x110 JUMP JUMPDEST PUSH1 0x3 DUP3 ADD SWAP1 POP SWAP2 SWAP1 POP JUMP JUMPDEST PUSH1 0x0 PUSH3 0x16D DUP3 PUSH3 0x139 JUMP JUMPDEST SWAP2 POP DUP2 SWAP1 POP SWAP2 SWAP1 POP JUMP JUMPDEST PUSH1 0x0 DUP2 MLOAD SWAP1 POP SWAP2 SWAP1 POP JUMP JUMPDEST PUSH32 0x4E487B7100000000000000000000000000000000000000000000000000000000 PUSH1 0x0 MSTORE PUSH1 0x41 PUSH1 0x4 MSTORE PUSH1 0x24 PUSH1 0x0 REVERT JUMPDEST PUSH32 0x4E487B7100000000000000000000000000000000000000000000000000000000 PUSH1 0x0 MSTORE PUSH1 0x22 PUSH1 0x4 MSTORE PUSH1 0x24 PUSH1 0x0 REVERT JUMPDEST PUSH1 0x0 PUSH1 0x2 DUP3 DIV SWAP1 POP PUSH1 0x1 DUP3 AND DUP1 PUSH3 0x1F9 JUMPI PUSH1 0x7F DUP3 AND SWAP2 POP JUMPDEST PUSH1 0x20 DUP3 LT DUP2 SUB PUSH3 0x20F JUMPI PUSH3 0x20E PUSH3 0x1B1 JUMP JUMPDEST JUMPDEST POP SWAP2 SWAP1 POP JUMP JUMPDEST PUSH1 0x0 DUP2 SWAP1 POP DUP2 PUSH1 0x0 MSTORE PUSH1 0x20 PUSH1 0x0 KECCAK256 SWAP1 POP SWAP2 SWAP1 POP JUMP JUMPDEST PUSH1 0x0 PUSH1 0x20 PUSH1 0x1F DUP4 ADD DIV SWAP1 POP SWAP2 SWAP1 POP JUMP JUMPDEST PUSH1 0x0 DUP3 DUP3 SHL SWAP1 POP SWAP3 SWAP2 POP POP JUMP JUMPDEST PUSH1 0x0 PUSH1 0x8 DUP4 MUL PUSH3 0x279 PUSH32 0xFFFFFFFFFFFFFFFFFFFFFFFFFFFFFFFFFFFFFFFFFFFFFFFFFFFFFFFFFFFFFFFF DUP3 PUSH3 0x23A JUMP JUMPDEST PUSH3 0x285 DUP7 DUP4 PUSH3 0x23A JUMP JUMPDEST SWAP6 POP DUP1 NOT DUP5 AND SWAP4 POP DUP1 DUP7 AND DUP5 OR SWAP3 POP POP POP SWAP4 SWAP3 POP POP POP JUMP JUMPDEST PUSH1 0x0 DUP2 SWAP1 POP SWAP2 SWAP1 POP JUMP JUMPDEST PUSH1 0x0 DUP2 SWAP1 POP SWAP2 SWAP1 POP JUMP JUMPDEST PUSH1 0x0 PUSH3 0x2D2 PUSH3 0x2CC PUSH3 0x2C6 DUP5 PUSH3 0x29D JUMP JUMPDEST PUSH3 0x2A7 JUMP JUMPDEST PUSH3 0x29D JUMP JUMPDEST SWAP1 POP SWAP2 SWAP1 POP JUMP JUMPDEST PUSH1 0x0 DUP2 SWAP1 POP SWAP2 SWAP1 POP JUMP JUMPDEST PUSH3 0x2EE DUP4 PUSH3 0x2B1 JUMP JUMPDEST PUSH3 0x306 PUSH3 0x2FD DUP3 PUSH3 0x2D9 JUMP JUMPDEST DUP5 DUP5 SLOAD PUSH3 0x247 JUMP JUMPDEST DUP3 SSTORE POP POP POP POP JUMP JUMPDEST PUSH1 0x0 SWAP1 JUMP JUMPDEST PUSH3 0x31D PUSH3 0x30E JUMP JUMPDEST PUSH3 0x32A DUP2 DUP5 DUP5 PUSH3 0x2E3 JUMP JUMPDEST POP POP POP JUMP JUMPDEST JUMPDEST DUP2 DUP2 LT ISZERO PUSH3 0x352 JUMPI PUSH3 0x346 PUSH1 0x0 DUP3 PUSH3 0x313 JUMP JUMPDEST PUSH1 0x1 DUP2 ADD SWAP1 POP PUSH3 0x330 JUMP JUMPDEST POP POP JUMP JUMPDEST PUSH1 0x1F DUP3 GT ISZERO PUSH3 0x3A1 JUMPI PUSH3 0x36B DUP2 PUSH3 0x215 JUMP JUMPDEST PUSH3 0x376 DUP5 PUSH3 0x22A JUMP JUMPDEST DUP2 ADD PUSH1 0x20 DUP6 LT ISZERO PUSH3 0x386 JUMPI DUP2 SWAP1 POP JUMPDEST PUSH3 0x39E PUSH3 0x395 DUP6 PUSH3 0x22A JUMP JUMPDEST DUP4 ADD DUP3 PUSH3 0x32F JUMP JUMPDEST POP POP JUMPDEST POP POP POP JUMP JUMPDEST PUSH1 0x0 DUP3 DUP3 SHR SWAP1 POP SWAP3 SWAP2 POP POP JUMP JUMPDEST PUSH1 0x0 PUSH3 0x3C6 PUSH1 0x0 NOT DUP5 PUSH1 0x8 MUL PUSH3 0x3A6 JUMP JUMPDEST NOT DUP1 DUP4 AND SWAP2 POP POP SWAP3 SWAP2 POP POP JUMP JUMPDEST PUSH1 0x0 PUSH3 0x3E1 DUP4 DUP4 PUSH3 0x3B3 JUMP JUMPDEST SWAP2 POP DUP3 PUSH1 0x2 MUL DUP3 OR SWAP1 POP SWAP3 SWAP2 POP POP JUMP JUMPDEST PUSH3 0x3FC DUP3 PUSH3 0x177 JUMP JUMPDEST PUSH8 0xFFFFFFFFFFFFFFFF DUP2 GT ISZERO PUSH3 0x418 JUMPI PUSH3 0x417 PUSH3 0x182 JUMP JUMPDEST JUMPDEST PUSH3 0x424 DUP3 SLOAD PUSH3 0x1E0 JUMP JUMPDEST PUSH3 0x431 DUP3 DUP3 DUP6 PUSH3 0x356 JUMP JUMPDEST PUSH1 0x0 PUSH1 0x20 SWAP1 POP PUSH1 0x1F DUP4 GT PUSH1 0x1 DUP2 EQ PUSH3 0x469 JUMPI PUSH1 0x0 DUP5 ISZERO PUSH3 0x454 JUMPI DUP3 DUP8 ADD MLOAD SWAP1 POP JUMPDEST PUSH3 0x460 DUP6 DUP3 PUSH3 0x3D3 JUMP JUMPDEST DUP7 SSTORE POP PUSH3 0x4D0 JUMP JUMPDEST PUSH1 0x1F NOT DUP5 AND PUSH3 0x479 DUP7 PUSH3 0x215 JUMP JUMPDEST PUSH1 0x0 JUMPDEST DUP3 DUP2 LT ISZERO PUSH3 0x4A3 JUMPI DUP5 DUP10 ADD MLOAD DUP3 SSTORE PUSH1 0x1 DUP3 ADD SWAP2 POP PUSH1 0x20 DUP6 ADD SWAP5 POP PUSH1 0x20 DUP2 ADD SWAP1 POP PUSH3 0x47C JUMP JUMPDEST DUP7 DUP4 LT ISZERO PUSH3 0x4C3 JUMPI DUP5 DUP10 ADD MLOAD PUSH3 0x4BF PUSH1 0x1F DUP10 AND DUP3 PUSH3 0x3B3 JUMP JUMPDEST DUP4 SSTORE POP JUMPDEST PUSH1 0x1 PUSH1 0x2 DUP9 MUL ADD DUP9 SSTORE POP POP POP JUMPDEST POP POP POP POP POP POP JUMP JUMPDEST PUSH1 0x0 DUP1 REVERT JUMPDEST PUSH3 0x4E8 DUP2 PUSH3 0x29D JUMP JUMPDEST DUP2 EQ PUSH3 0x4F4 JUMPI PUSH1 0x0 DUP1 REVERT JUMPDEST POP JUMP JUMPDEST PUSH1 0x0 DUP2 MLOAD SWAP1 POP PUSH3 0x508 DUP2 PUSH3 0x4DD JUMP JUMPDEST SWAP3 SWAP2 POP POP JUMP JUMPDEST PUSH1 0x0 DUP2 SWAP1 POP SWAP2 SWAP1 POP JUMP JUMPDEST PUSH3 0x523 DUP2 PUSH3 0x50E JUMP JUMPDEST DUP2 EQ PUSH3 0x52F JUMPI PUSH1 0x0 DUP1 REVERT JUMPDEST POP JUMP JUMPDEST PUSH1 0x0 DUP2 MLOAD SWAP1 POP PUSH3 0x543 DUP2 PUSH3 0x518 JUMP JUMPDEST SWAP3 SWAP2 POP POP JUMP JUMPDEST PUSH1 0x0 DUP1 PUSH1 0x40 DUP4 DUP6 SUB SLT ISZERO PUSH3 0x563 JUMPI PUSH3 0x562 PUSH3 0x4D8 JUMP JUMPDEST JUMPDEST PUSH1 0x0 PUSH3 0x573 DUP6 DUP3 DUP7 ADD PUSH3 0x4F7 JUMP JUMPDEST SWAP3 POP POP PUSH1 0x20 PUSH3 0x586 DUP6 DUP3 DUP7 ADD PUSH3 0x532 JUMP JUMPDEST SWAP2 POP POP SWAP3 POP SWAP3 SWAP1 POP JUMP JUMPDEST PUSH2 0x2F3 DUP1 PUSH3 0x5A0 PUSH1 0x0 CODECOPY PUSH1 0x0 RETURN INVALID PUSH1 0x80 PUSH1 0x40 MSTORE CALLVALUE DUP1 ISZERO PUSH2 0x10 JUMPI PUSH1 0x0 DUP1 REVERT JUMPDEST POP PUSH1 0x4 CALLDATASIZE LT PUSH2 0x41 JUMPI PUSH1 0x0 CALLDATALOAD PUSH1 0xE0 SHR DUP1 PUSH4 0x8A054AC2 EQ PUSH2 0x46 JUMPI DUP1 PUSH4 0xC3DA42B8 EQ PUSH2 0x64 JUMPI DUP1 PUSH4 0xFFAE15BA EQ PUSH2 0x82 JUMPI JUMPDEST PUSH1 0x0 DUP1 REVERT JUMPDEST PUSH2 0x4E PUSH2 0xA0 JUMP JUMPDEST PUSH1 0x40 MLOAD PUSH2 0x5B SWAP2 SWAP1 PUSH2 0x153 JUMP JUMPDEST PUSH1 0x40 MLOAD DUP1 SWAP2 SUB SWAP1 RETURN JUMPDEST PUSH2 0x6C PUSH2 0xA6 JUMP JUMPDEST PUSH1 0x40 MLOAD PUSH2 0x79 SWAP2 SWAP1 PUSH2 0x207 JUMP JUMPDEST PUSH1 0x40 MLOAD DUP1 SWAP2 SUB SWAP1 RETURN JUMPDEST PUSH2 0x8A PUSH2 0x134 JUMP JUMPDEST PUSH1 0x40 MLOAD PUSH2 0x97 SWAP2 SWAP1 PUSH2 0x242 JUMP JUMPDEST PUSH1 0x40 MLOAD DUP1 SWAP2 SUB SWAP1 RETURN JUMPDEST PUSH1 0x1 SLOAD DUP2 JUMP JUMPDEST PUSH1 0x0 DUP1 SLOAD PUSH2 0xB3 SWAP1 PUSH2 0x28C JUMP JUMPDEST DUP1 PUSH1 0x1F ADD PUSH1 0x20 DUP1 SWAP2 DIV MUL PUSH1 0x20 ADD PUSH1 0x40 MLOAD SWAP1 DUP2 ADD PUSH1 0x40 MSTORE DUP1 SWAP3 SWAP2 SWAP1 DUP2 DUP2 MSTORE PUSH1 0x20 ADD DUP3 DUP1 SLOAD PUSH2 0xDF SWAP1 PUSH2 0x28C JUMP JUMPDEST DUP1 ISZERO PUSH2 0x12C JUMPI DUP1 PUSH1 0x1F LT PUSH2 0x101 JUMPI PUSH2 0x100 DUP1 DUP4 SLOAD DIV MUL DUP4 MSTORE SWAP2 PUSH1 0x20 ADD SWAP2 PUSH2 0x12C JUMP JUMPDEST DUP3 ADD SWAP2 SWAP1 PUSH1 0x0 MSTORE PUSH1 0x20 PUSH1 0x0 KECCAK256 SWAP1 JUMPDEST DUP2 SLOAD DUP2 MSTORE SWAP1 PUSH1 0x1 ADD SWAP1 PUSH1 0x20 ADD DUP1 DUP4 GT PUSH2 0x10F JUMPI DUP3 SWAP1 SUB PUSH1 0x1F AND DUP3 ADD SWAP2 JUMPDEST POP POP POP POP POP DUP2 JUMP JUMPDEST PUSH1 0x2 SLOAD DUP2 JUMP JUMPDEST PUSH1 0x0 DUP2 SWAP1 POP SWAP2 SWAP1 POP JUMP JUMPDEST PUSH2 0x14D DUP2 PUSH2 0x13A JUMP JUMPDEST DUP3 MSTORE POP POP JUMP JUMPDEST PUSH1 0x0 PUSH1 0x20 DUP3 ADD SWAP1 POP PUSH2 0x168 PUSH1 0x0 DUP4 ADD DUP5 PUSH2 0x144 JUMP JUMPDEST SWAP3 SWAP2 POP POP JUMP JUMPDEST PUSH1 0x0 DUP2 MLOAD SWAP1 POP SWAP2 SWAP1 POP JUMP JUMPDEST PUSH1 0x0 DUP3 DUP3 MSTORE PUSH1 0x20 DUP3 ADD SWAP1 POP SWAP3 SWAP2 POP POP JUMP JUMPDEST PUSH1 0x0 JUMPDEST DUP4 DUP2 LT ISZERO PUSH2 0x1A8 JUMPI DUP1 DUP3 ADD MLOAD DUP2 DUP5 ADD MSTORE PUSH1 0x20 DUP2 ADD SWAP1 POP PUSH2 0x18D JUMP JUMPDEST DUP4 DUP2 GT ISZERO PUSH2 0x1B7 JUMPI PUSH1 0x0 DUP5 DUP5 ADD MSTORE JUMPDEST POP POP POP POP JUMP JUMPDEST PUSH1 0x0 PUSH1 0x1F NOT PUSH1 0x1F DUP4 ADD AND SWAP1 POP SWAP2 SWAP1 POP JUMP JUMPDEST PUSH1 0x0 PUSH2 0x1D9 DUP3 PUSH2 0x16E JUMP JUMPDEST PUSH2 0x1E3 DUP2 DUP6 PUSH2 0x179 JUMP JUMPDEST SWAP4 POP PUSH2 0x1F3 DUP2 DUP6 PUSH1 0x20 DUP7 ADD PUSH2 0x18A JUMP JUMPDEST PUSH2 0x1FC DUP2 PUSH2 0x1BD JUMP JUMPDEST DUP5 ADD SWAP2 POP POP SWAP3 SWAP2 POP POP JUMP JUMPDEST PUSH1 0x0 PUSH1 0x20 DUP3 ADD SWAP1 POP DUP2 DUP2 SUB PUSH1 0x0 DUP4 ADD MSTORE PUSH2 0x221 DUP2 DUP5 PUSH2 0x1CE JUMP JUMPDEST SWAP1 POP SWAP3 SWAP2 POP POP JUMP JUMPDEST PUSH1 0x0 DUP2 SWAP1 POP SWAP2 SWAP1 POP JUMP JUMPDEST PUSH2 0x23C DUP2 PUSH2 0x229 JUMP JUMPDEST DUP3 MSTORE POP POP JUMP JUMPDEST PUSH1 0x0 PUSH1 0x20 DUP3 ADD SWAP1 POP PUSH2 0x257 PUSH1 0x0 DUP4 ADD DUP5 PUSH2 0x233 JUMP JUMPDEST SWAP3 SWAP2 POP POP JUMP JUMPDEST PUSH32 0x4E487B7100000000000000000000000000000000000000000000000000000000 PUSH1 0x0 MSTORE PUSH1 0x22 PUSH1 0x4 MSTORE PUSH1 0x24 PUSH1 0x0 REVERT JUMPDEST PUSH1 0x0 PUSH1 0x2 DUP3 DIV SWAP1 POP PUSH1 0x1 DUP3 AND DUP1 PUSH2 0x2A4 JUMPI PUSH1 0x7F DUP3 AND SWAP2 POP JUMPDEST PUSH1 0x20 DUP3 LT DUP2 SUB PUSH2 0x2B7 JUMPI PUSH2 0x2B6 PUSH2 0x25D JUMP JUMPDEST JUMPDEST POP SWAP2 SWAP1 POP JUMP INVALID LOG2 PUSH5 0x6970667358 0x22 SLT KECCAK256 PUSH17 0x86A2DEB29924D0730A079B4C0DC3240BFE DUP9 0xF9 0xA5 0x27 0xB7 0xF8 0xE5 0xA9 0xE9 0xB0 DUP1 0x5D EXP BALANCE PUSH5 0x736F6C6343 STOP ADDMOD 0xF STOP CALLER "
				},
				"gasEstimates": {
					"creation": {
						"codeDepositCost": "151000",
						"executionCost": "infinite",
						"totalCost": "infinite"
					},
					"external": {
						"c()": "infinite",
						"d()": "2407",
						"e()": "2451"
					}
				},
				"methodIdentifiers": {
					"c()": "c3da42b8",
					"d()": "8a054ac2",
					"e()": "ffae15ba"
				}
			},
			"storageLayout": {
				"storage": [
					{
						"astId": 37,
						"contract": "study/chapter03/abi.sol:testABI2",
						"label": "c",
						"offset": 0,
						"slot": "0",
						"type": "t_bytes_storage"
					},
					{
						"astId": 39,
						"contract": "study/chapter03/abi.sol:testABI2",
						"label": "d",
						"offset": 0,
						"slot": "1",
						"type": "t_uint256"
					},
					{
						"astId": 41,
						"contract": "study/chapter03/abi.sol:testABI2",
						"label": "e",
						"offset": 0,
						"slot": "2",
						"type": "t_int256"
					}
				],
				"types": {
					"t_bytes_storage": {
						"encoding": "bytes",
						"label": "bytes",
						"numberOfBytes": "32"
					},
					"t_int256": {
						"encoding": "inplace",
						"label": "int256",
						"numberOfBytes": "32"
					},
					"t_uint256": {
						"encoding": "inplace",
						"label": "uint256",
						"numberOfBytes": "32"
					}
				}
			},
			"userdoc": {
				"kind": "user",
				"methods": {},
				"version": 1
			}
		}
	}
}