{
	"study/chapter03/abi.sol": {
		"testABI1": {
			"abi": [
				{
					"inputs": [],
					"stateMutability": "nonpayable",
					"type": "constructor"
				},
				{
					"inputs": [],
					"name": "c",
					"outputs": [
						{
							"internalType": "bytes",
							"name": "",
							"type": "bytes"
						}
					],
					"stateMutability": "view",
					"type": "function"
				},
				{
					"inputs": [],
					"name": "d",
					"outputs": [
						{
							"internalType": "uint256",
							"name": "",
							"type": "uint256"
						}
					],
					"stateMutability": "view",
					"type": "function"
				},
				{
					"inputs": [],
					"name": "e",
					"outputs": [
						{
							"internalType": "int256",
							"name": "",
							"type": "int256"
						}
					],
					"stateMutability": "view",
					"type": "function"
				}
			],
			"devdoc": {
				"kind": "dev",
				"methods": {},
				"version": 1
			},
			"evm": {
				"assembly": "    /* \"study/chapter03/abi.sol\":54:287  contract testABI1{... */\n  mstore(0x40, 0x80)\n    /* \"study/chapter03/abi.sol\":166:167  5 */\n  0x05\n    /* \"study/chapter03/abi.sol\":168:169  1 */\n  0x01\n    /* \"study/chapter03/abi.sol\":155:170  abi.encode(5,1) */\n  add(0x20, mload(0x40))\n  tag_1\n  swap3\n  swap2\n  swap1\n  tag_2\n  jump\t// in\ntag_1:\n  mload(0x40)\n  0x20\n  dup2\n  dup4\n  sub\n  sub\n  dup2\n  mstore\n  swap1\n  0x40\n  mstore\n    /* \"study/chapter03/abi.sol\":138:170  bytes public c = abi.encode(5,1) */\n  0x00\n  swap1\n  dup2\n  tag_3\n  swap2\n  swap1\n  tag_4\n  jump\t// in\ntag_3:\n  pop\n    /* \"study/chapter03/abi.sol\":223:285  constructor(){... */\n  callvalue\n  dup1\n  iszero\n  tag_5\n  jumpi\n  0x00\n  dup1\n  revert\ntag_5:\n  pop\n    /* \"study/chapter03/abi.sol\":265:266  c */\n  0x00\n    /* \"study/chapter03/abi.sol\":254:278  abi.decode(c,(uint,int)) */\n  dup1\n  sload\n  tag_8\n  swap1\n  tag_9\n  jump\t// in\ntag_8:\n  dup1\n  0x1f\n  add\n  0x20\n  dup1\n  swap2\n  div\n  mul\n  0x20\n  add\n  mload(0x40)\n  swap1\n  dup2\n  add\n  0x40\n  mstore\n  dup1\n  swap3\n  swap2\n  swap1\n  dup2\n  dup2\n  mstore\n  0x20\n  add\n  dup3\n  dup1\n  sload\n  tag_10\n  swap1\n  tag_9\n  jump\t// in\ntag_10:\n  dup1\n  iszero\n  tag_11\n  jumpi\n  dup1\n  0x1f\n  lt\n  tag_12\n  jumpi\n  0x0100\n  dup1\n  dup4\n  sload\n  div\n  mul\n  dup4\n  mstore\n  swap2\n  0x20\n  add\n  swap2\n  jump(tag_11)\ntag_12:\n  dup3\n  add\n  swap2\n  swap1\n  0x00\n  mstore\n  keccak256(0x00, 0x20)\n  swap1\ntag_13:\n  dup2\n  sload\n  dup2\n  mstore\n  swap1\n  0x01\n  add\n  swap1\n  0x20\n  add\n  dup1\n  dup4\n  gt\n  tag_13\n  jumpi\n  dup3\n  swap1\n  sub\n  0x1f\n  and\n  dup3\n  add\n  swap2\ntag_11:\n  pop\n  pop\n  pop\n  pop\n  pop\n  dup1\n  0x20\n  add\n  swap1\n  mload\n  dup2\n  add\n  swap1\n  tag_14\n  swap2\n  swap1\n  tag_15\n  jump\t// in\ntag_14:\n    /* \"study/chapter03/abi.sol\":247:248  d */\n  0x01\n  0x00\n    /* \"study/chapter03/abi.sol\":249:250  e */\n  0x02\n  0x00\n    /* \"study/chapter03/abi.sol\":246:278  (d,e) = abi.decode(c,(uint,int)) */\n  dup5\n  swap2\n  swap1\n  pop\n  sstore\n  dup4\n  swap2\n  swap1\n  pop\n  sstore\n  pop\n  pop\n    /* \"study/chapter03/abi.sol\":54:287  contract testABI1{... */\n  jump(tag_16)\n    /* \"#utility.yul\":7:92   */\ntag_17:\n    /* \"#utility.yul\":52:59   */\n  0x00\n    /* \"#utility.yul\":81:86   */\n  dup2\n    /* \"#utility.yul\":70:86   */\n  swap1\n  pop\n    /* \"#utility.yul\":7:92   */\n  swap2\n  swap1\n  pop\n  jump\t// out\n    /* \"#utility.yul\":98:184   */\ntag_18:\n    /* \"#utility.yul\":133:140   */\n  0x00\n    /* \"#utility.yul\":173:177   */\n  0xff\n    /* \"#utility.yul\":166:171   */\n  dup3\n    /* \"#utility.yul\":162:178   */\n  and\n    /* \"#utility.yul\":151:178   */\n  swap1\n  pop\n    /* \"#utility.yul\":98:184   */\n  swap2\n  swap1\n  pop\n  jump\t// out\n    /* \"#utility.yul\":190:250   */\ntag_19:\n    /* \"#utility.yul\":218:221   */\n  0x00\n    /* \"#utility.yul\":239:244   */\n  dup2\n    /* \"#utility.yul\":232:244   */\n  swap1\n  pop\n    /* \"#utility.yul\":190:250   */\n  swap2\n  swap1\n  pop\n  jump\t// out\n    /* \"#utility.yul\":256:410   */\ntag_20:\n    /* \"#utility.yul\":312:321   */\n  0x00\n    /* \"#utility.yul\":345:404   */\n  tag_56\n    /* \"#utility.yul\":361:403   */\n  tag_57\n    /* \"#utility.yul\":370:402   */\n  tag_58\n    /* \"#utility.yul\":396:401   */\n  dup5\n    /* \"#utility.yul\":370:402   */\n  tag_17\n  jump\t// in\ntag_58:\n    /* \"#utility.yul\":361:403   */\n  tag_19\n  jump\t// in\ntag_57:\n    /* \"#utility.yul\":345:404   */\n  tag_18\n  jump\t// in\ntag_56:\n    /* \"#utility.yul\":332:404   */\n  swap1\n  pop\n    /* \"#utility.yul\":256:410   */\n  swap2\n  swap1\n  pop\n  jump\t// out\n    /* \"#utility.yul\":416:559   */\ntag_21:\n    /* \"#utility.yul\":509:552   */\n  tag_60\n    /* \"#utility.yul\":546:551   */\n  dup2\n    /* \"#utility.yul\":509:552   */\n  tag_20\n  jump\t// in\ntag_60:\n    /* \"#utility.yul\":504:507   */\n  dup3\n    /* \"#utility.yul\":497:553   */\n  mstore\n    /* \"#utility.yul\":416:559   */\n  pop\n  pop\n  jump\t// out\n    /* \"#utility.yul\":565:650   */\ntag_22:\n    /* \"#utility.yul\":610:617   */\n  0x00\n    /* \"#utility.yul\":639:644   */\n  dup2\n    /* \"#utility.yul\":628:644   */\n  swap1\n  pop\n    /* \"#utility.yul\":565:650   */\n  swap2\n  swap1\n  pop\n  jump\t// out\n    /* \"#utility.yul\":656:810   */\ntag_23:\n    /* \"#utility.yul\":712:721   */\n  0x00\n    /* \"#utility.yul\":745:804   */\n  tag_63\n    /* \"#utility.yul\":761:803   */\n  tag_64\n    /* \"#utility.yul\":770:802   */\n  tag_65\n    /* \"#utility.yul\":796:801   */\n  dup5\n    /* \"#utility.yul\":770:802   */\n  tag_22\n  jump\t// in\ntag_65:\n    /* \"#utility.yul\":761:803   */\n  tag_19\n  jump\t// in\ntag_64:\n    /* \"#utility.yul\":745:804   */\n  tag_18\n  jump\t// in\ntag_63:\n    /* \"#utility.yul\":732:804   */\n  swap1\n  pop\n    /* \"#utility.yul\":656:810   */\n  swap2\n  swap1\n  pop\n  jump\t// out\n    /* \"#utility.yul\":816:959   */\ntag_24:\n    /* \"#utility.yul\":909:952   */\n  tag_67\n    /* \"#utility.yul\":946:951   */\n  dup2\n    /* \"#utility.yul\":909:952   */\n  tag_23\n  jump\t// in\ntag_67:\n    /* \"#utility.yul\":904:907   */\n  dup3\n    /* \"#utility.yul\":897:953   */\n  mstore\n    /* \"#utility.yul\":816:959   */\n  pop\n  pop\n  jump\t// out\n    /* \"#utility.yul\":965:1321   */\ntag_2:\n    /* \"#utility.yul\":1098:1102   */\n  0x00\n    /* \"#utility.yul\":1136:1138   */\n  0x40\n    /* \"#utility.yul\":1125:1134   */\n  dup3\n    /* \"#utility.yul\":1121:1139   */\n  add\n    /* \"#utility.yul\":1113:1139   */\n  swap1\n  pop\n    /* \"#utility.yul\":1149:1226   */\n  tag_69\n    /* \"#utility.yul\":1223:1224   */\n  0x00\n    /* \"#utility.yul\":1212:1221   */\n  dup4\n    /* \"#utility.yul\":1208:1225   */\n  add\n    /* \"#utility.yul\":1199:1205   */\n  dup6\n    /* \"#utility.yul\":1149:1226   */\n  tag_21\n  jump\t// in\ntag_69:\n    /* \"#utility.yul\":1236:1314   */\n  tag_70\n    /* \"#utility.yul\":1310:1312   */\n  0x20\n    /* \"#utility.yul\":1299:1308   */\n  dup4\n    /* \"#utility.yul\":1295:1313   */\n  add\n    /* \"#utility.yul\":1286:1292   */\n  dup5\n    /* \"#utility.yul\":1236:1314   */\n  tag_24\n  jump\t// in\ntag_70:\n    /* \"#utility.yul\":965:1321   */\n  swap4\n  swap3\n  pop\n  pop\n  pop\n  jump\t// out\n    /* \"#utility.yul\":1327:1425   */\ntag_25:\n    /* \"#utility.yul\":1378:1384   */\n  0x00\n    /* \"#utility.yul\":1412:1417   */\n  dup2\n    /* \"#utility.yul\":1406:1418   */\n  mload\n    /* \"#utility.yul\":1396:1418   */\n  swap1\n  pop\n    /* \"#utility.yul\":1327:1425   */\n  swap2\n  swap1\n  pop\n  jump\t// out\n    /* \"#utility.yul\":1431:1611   */\ntag_26:\n    /* \"#utility.yul\":1479:1556   */\n  0x4e487b7100000000000000000000000000000000000000000000000000000000\n    /* \"#utility.yul\":1476:1477   */\n  0x00\n    /* \"#utility.yul\":1469:1557   */\n  mstore\n    /* \"#utility.yul\":1576:1580   */\n  0x41\n    /* \"#utility.yul\":1573:1574   */\n  0x04\n    /* \"#utility.yul\":1566:1581   */\n  mstore\n    /* \"#utility.yul\":1600:1604   */\n  0x24\n    /* \"#utility.yul\":1597:1598   */\n  0x00\n    /* \"#utility.yul\":1590:1605   */\n  revert\n    /* \"#utility.yul\":1617:1797   */\ntag_27:\n    /* \"#utility.yul\":1665:1742   */\n  0x4e487b7100000000000000000000000000000000000000000000000000000000\n    /* \"#utility.yul\":1662:1663   */\n  0x00\n    /* \"#utility.yul\":1655:1743   */\n  mstore\n    /* \"#utility.yul\":1762:1766   */\n  0x22\n    /* \"#utility.yul\":1759:1760   */\n  0x04\n    /* \"#utility.yul\":1752:1767   */\n  mstore\n    /* \"#utility.yul\":1786:1790   */\n  0x24\n    /* \"#utility.yul\":1783:1784   */\n  0x00\n    /* \"#utility.yul\":1776:1791   */\n  revert\n    /* \"#utility.yul\":1803:2123   */\ntag_9:\n    /* \"#utility.yul\":1847:1853   */\n  0x00\n    /* \"#utility.yul\":1884:1885   */\n  0x02\n    /* \"#utility.yul\":1878:1882   */\n  dup3\n    /* \"#utility.yul\":1874:1886   */\n  div\n    /* \"#utility.yul\":1864:1886   */\n  swap1\n  pop\n    /* \"#utility.yul\":1931:1932   */\n  0x01\n    /* \"#utility.yul\":1925:1929   */\n  dup3\n    /* \"#utility.yul\":1921:1933   */\n  and\n    /* \"#utility.yul\":1952:1970   */\n  dup1\n    /* \"#utility.yul\":1942:2023   */\n  tag_75\n  jumpi\n    /* \"#utility.yul\":2008:2012   */\n  0x7f\n    /* \"#utility.yul\":2000:2006   */\n  dup3\n    /* \"#utility.yul\":1996:2013   */\n  and\n    /* \"#utility.yul\":1986:2013   */\n  swap2\n  pop\n    /* \"#utility.yul\":1942:2023   */\ntag_75:\n    /* \"#utility.yul\":2070:2072   */\n  0x20\n    /* \"#utility.yul\":2062:2068   */\n  dup3\n    /* \"#utility.yul\":2059:2073   */\n  lt\n    /* \"#utility.yul\":2039:2057   */\n  dup2\n    /* \"#utility.yul\":2036:2074   */\n  sub\n    /* \"#utility.yul\":2033:2117   */\n  tag_76\n  jumpi\n    /* \"#utility.yul\":2089:2107   */\n  tag_77\n  tag_27\n  jump\t// in\ntag_77:\n    /* \"#utility.yul\":2033:2117   */\ntag_76:\n    /* \"#utility.yul\":1854:2123   */\n  pop\n    /* \"#utility.yul\":1803:2123   */\n  swap2\n  swap1\n  pop\n  jump\t// out\n    /* \"#utility.yul\":2129:2269   */\ntag_28:\n    /* \"#utility.yul\":2177:2181   */\n  0x00\n    /* \"#utility.yul\":2200:2203   */\n  dup2\n    /* \"#utility.yul\":2192:2203   */\n  swap1\n  pop\n    /* \"#utility.yul\":2223:2226   */\n  dup2\n    /* \"#utility.yul\":2220:2221   */\n  0x00\n    /* \"#utility.yul\":2213:2227   */\n  mstore\n    /* \"#utility.yul\":2257:2261   */\n  0x20\n    /* \"#utility.yul\":2254:2255   */\n  0x00\n    /* \"#utility.yul\":2244:2262   */\n  keccak256\n    /* \"#utility.yul\":2236:2262   */\n  swap1\n  pop\n    /* \"#utility.yul\":2129:2269   */\n  swap2\n  swap1\n  pop\n  jump\t// out\n    /* \"#utility.yul\":2275:2368   */\ntag_29:\n    /* \"#utility.yul\":2312:2318   */\n  0x00\n    /* \"#utility.yul\":2359:2361   */\n  0x20\n    /* \"#utility.yul\":2354:2356   */\n  0x1f\n    /* \"#utility.yul\":2347:2352   */\n  dup4\n    /* \"#utility.yul\":2343:2357   */\n  add\n    /* \"#utility.yul\":2339:2362   */\n  div\n    /* \"#utility.yul\":2329:2362   */\n  swap1\n  pop\n    /* \"#utility.yul\":2275:2368   */\n  swap2\n  swap1\n  pop\n  jump\t// out\n    /* \"#utility.yul\":2374:2481   */\ntag_30:\n    /* \"#utility.yul\":2418:2426   */\n  0x00\n    /* \"#utility.yul\":2468:2473   */\n  dup3\n    /* \"#utility.yul\":2462:2466   */\n  dup3\n    /* \"#utility.yul\":2458:2474   */\n  shl\n    /* \"#utility.yul\":2437:2474   */\n  swap1\n  pop\n    /* \"#utility.yul\":2374:2481   */\n  swap3\n  swap2\n  pop\n  pop\n  jump\t// out\n    /* \"#utility.yul\":2487:2880   */\ntag_31:\n    /* \"#utility.yul\":2556:2562   */\n  0x00\n    /* \"#utility.yul\":2606:2607   */\n  0x08\n    /* \"#utility.yul\":2594:2604   */\n  dup4\n    /* \"#utility.yul\":2590:2608   */\n  mul\n    /* \"#utility.yul\":2629:2726   */\n  tag_82\n    /* \"#utility.yul\":2659:2725   */\n  0xffffffffffffffffffffffffffffffffffffffffffffffffffffffffffffffff\n    /* \"#utility.yul\":2648:2657   */\n  dup3\n    /* \"#utility.yul\":2629:2726   */\n  tag_30\n  jump\t// in\ntag_82:\n    /* \"#utility.yul\":2747:2786   */\n  tag_83\n    /* \"#utility.yul\":2777:2785   */\n  dup7\n    /* \"#utility.yul\":2766:2775   */\n  dup4\n    /* \"#utility.yul\":2747:2786   */\n  tag_30\n  jump\t// in\ntag_83:\n    /* \"#utility.yul\":2735:2786   */\n  swap6\n  pop\n    /* \"#utility.yul\":2819:2823   */\n  dup1\n    /* \"#utility.yul\":2815:2824   */\n  not\n    /* \"#utility.yul\":2808:2813   */\n  dup5\n    /* \"#utility.yul\":2804:2825   */\n  and\n    /* \"#utility.yul\":2795:2825   */\n  swap4\n  pop\n    /* \"#utility.yul\":2868:2872   */\n  dup1\n    /* \"#utility.yul\":2858:2866   */\n  dup7\n    /* \"#utility.yul\":2854:2873   */\n  and\n    /* \"#utility.yul\":2847:2852   */\n  dup5\n    /* \"#utility.yul\":2844:2874   */\n  or\n    /* \"#utility.yul\":2834:2874   */\n  swap3\n  pop\n    /* \"#utility.yul\":2563:2880   */\n  pop\n  pop\n    /* \"#utility.yul\":2487:2880   */\n  swap4\n  swap3\n  pop\n  pop\n  pop\n  jump\t// out\n    /* \"#utility.yul\":2886:2963   */\ntag_32:\n    /* \"#utility.yul\":2923:2930   */\n  0x00\n    /* \"#utility.yul\":2952:2957   */\n  dup2\n    /* \"#utility.yul\":2941:2957   */\n  swap1\n  pop\n    /* \"#utility.yul\":2886:2963   */\n  swap2\n  swap1\n  pop\n  jump\t// out\n    /* \"#utility.yul\":2969:3111   */\ntag_33:\n    /* \"#utility.yul\":3019:3028   */\n  0x00\n    /* \"#utility.yul\":3052:3105   */\n  tag_86\n    /* \"#utility.yul\":3070:3104   */\n  tag_87\n    /* \"#utility.yul\":3079:3103   */\n  tag_88\n    /* \"#utility.yul\":3097:3102   */\n  dup5\n    /* \"#utility.yul\":3079:3103   */\n  tag_32\n  jump\t// in\ntag_88:\n    /* \"#utility.yul\":3070:3104   */\n  tag_19\n  jump\t// in\ntag_87:\n    /* \"#utility.yul\":3052:3105   */\n  tag_32\n  jump\t// in\ntag_86:\n    /* \"#utility.yul\":3039:3105   */\n  swap1\n  pop\n    /* \"#utility.yul\":2969:3111   */\n  swap2\n  swap1\n  pop\n  jump\t// out\n    /* \"#utility.yul\":3117:3192   */\ntag_34:\n    /* \"#utility.yul\":3160:3163   */\n  0x00\n    /* \"#utility.yul\":3181:3186   */\n  dup2\n    /* \"#utility.yul\":3174:3186   */\n  swap1\n  pop\n    /* \"#utility.yul\":3117:3192   */\n  swap2\n  swap1\n  pop\n  jump\t// out\n    /* \"#utility.yul\":3198:3467   */\ntag_35:\n    /* \"#utility.yul\":3308:3347   */\n  tag_91\n    /* \"#utility.yul\":3339:3346   */\n  dup4\n    /* \"#utility.yul\":3308:3347   */\n  tag_33\n  jump\t// in\ntag_91:\n    /* \"#utility.yul\":3369:3460   */\n  tag_92\n    /* \"#utility.yul\":3418:3459   */\n  tag_93\n    /* \"#utility.yul\":3442:3458   */\n  dup3\n    /* \"#utility.yul\":3418:3459   */\n  tag_34\n  jump\t// in\ntag_93:\n    /* \"#utility.yul\":3410:3416   */\n  dup5\n    /* \"#utility.yul\":3403:3407   */\n  dup5\n    /* \"#utility.yul\":3397:3408   */\n  sload\n    /* \"#utility.yul\":3369:3460   */\n  tag_31\n  jump\t// in\ntag_92:\n    /* \"#utility.yul\":3363:3367   */\n  dup3\n    /* \"#utility.yul\":3356:3461   */\n  sstore\n    /* \"#utility.yul\":3274:3467   */\n  pop\n    /* \"#utility.yul\":3198:3467   */\n  pop\n  pop\n  pop\n  jump\t// out\n    /* \"#utility.yul\":3473:3546   */\ntag_36:\n    /* \"#utility.yul\":3518:3521   */\n  0x00\n    /* \"#utility.yul\":3473:3546   */\n  swap1\n  jump\t// out\n    /* \"#utility.yul\":3552:3741   */\ntag_37:\n    /* \"#utility.yul\":3629:3661   */\n  tag_96\n  tag_36\n  jump\t// in\ntag_96:\n    /* \"#utility.yul\":3670:3735   */\n  tag_97\n    /* \"#utility.yul\":3728:3734   */\n  dup2\n    /* \"#utility.yul\":3720:3726   */\n  dup5\n    /* \"#utility.yul\":3714:3718   */\n  dup5\n    /* \"#utility.yul\":3670:3735   */\n  tag_35\n  jump\t// in\ntag_97:\n    /* \"#utility.yul\":3605:3741   */\n  pop\n    /* \"#utility.yul\":3552:3741   */\n  pop\n  pop\n  jump\t// out\n    /* \"#utility.yul\":3747:3933   */\ntag_38:\n    /* \"#utility.yul\":3807:3927   */\ntag_99:\n    /* \"#utility.yul\":3824:3827   */\n  dup2\n    /* \"#utility.yul\":3817:3822   */\n  dup2\n    /* \"#utility.yul\":3814:3828   */\n  lt\n    /* \"#utility.yul\":3807:3927   */\n  iszero\n  tag_101\n  jumpi\n    /* \"#utility.yul\":3878:3917   */\n  tag_102\n    /* \"#utility.yul\":3915:3916   */\n  0x00\n    /* \"#utility.yul\":3908:3913   */\n  dup3\n    /* \"#utility.yul\":3878:3917   */\n  tag_37\n  jump\t// in\ntag_102:\n    /* \"#utility.yul\":3851:3852   */\n  0x01\n    /* \"#utility.yul\":3844:3849   */\n  dup2\n    /* \"#utility.yul\":3840:3853   */\n  add\n    /* \"#utility.yul\":3831:3853   */\n  swap1\n  pop\n    /* \"#utility.yul\":3807:3927   */\n  jump(tag_99)\ntag_101:\n    /* \"#utility.yul\":3747:3933   */\n  pop\n  pop\n  jump\t// out\n    /* \"#utility.yul\":3939:4480   */\ntag_39:\n    /* \"#utility.yul\":4039:4041   */\n  0x1f\n    /* \"#utility.yul\":4034:4037   */\n  dup3\n    /* \"#utility.yul\":4031:4042   */\n  gt\n    /* \"#utility.yul\":4028:4473   */\n  iszero\n  tag_104\n  jumpi\n    /* \"#utility.yul\":4073:4110   */\n  tag_105\n    /* \"#utility.yul\":4104:4109   */\n  dup2\n    /* \"#utility.yul\":4073:4110   */\n  tag_28\n  jump\t// in\ntag_105:\n    /* \"#utility.yul\":4156:4185   */\n  tag_106\n    /* \"#utility.yul\":4174:4184   */\n  dup5\n    /* \"#utility.yul\":4156:4185   */\n  tag_29\n  jump\t// in\ntag_106:\n    /* \"#utility.yul\":4146:4154   */\n  dup2\n    /* \"#utility.yul\":4142:4186   */\n  add\n    /* \"#utility.yul\":4339:4341   */\n  0x20\n    /* \"#utility.yul\":4327:4337   */\n  dup6\n    /* \"#utility.yul\":4324:4342   */\n  lt\n    /* \"#utility.yul\":4321:4370   */\n  iszero\n  tag_107\n  jumpi\n    /* \"#utility.yul\":4360:4368   */\n  dup2\n    /* \"#utility.yul\":4345:4368   */\n  swap1\n  pop\n    /* \"#utility.yul\":4321:4370   */\ntag_107:\n    /* \"#utility.yul\":4383:4463   */\n  tag_108\n    /* \"#utility.yul\":4439:4461   */\n  tag_109\n    /* \"#utility.yul\":4457:4460   */\n  dup6\n    /* \"#utility.yul\":4439:4461   */\n  tag_29\n  jump\t// in\ntag_109:\n    /* \"#utility.yul\":4429:4437   */\n  dup4\n    /* \"#utility.yul\":4425:4462   */\n  add\n    /* \"#utility.yul\":4412:4423   */\n  dup3\n    /* \"#utility.yul\":4383:4463   */\n  tag_38\n  jump\t// in\ntag_108:\n    /* \"#utility.yul\":4043:4473   */\n  pop\n  pop\n    /* \"#utility.yul\":4028:4473   */\ntag_104:\n    /* \"#utility.yul\":3939:4480   */\n  pop\n  pop\n  pop\n  jump\t// out\n    /* \"#utility.yul\":4486:4603   */\ntag_40:\n    /* \"#utility.yul\":4540:4548   */\n  0x00\n    /* \"#utility.yul\":4590:4595   */\n  dup3\n    /* \"#utility.yul\":4584:4588   */\n  dup3\n    /* \"#utility.yul\":4580:4596   */\n  shr\n    /* \"#utility.yul\":4559:4596   */\n  swap1\n  pop\n    /* \"#utility.yul\":4486:4603   */\n  swap3\n  swap2\n  pop\n  pop\n  jump\t// out\n    /* \"#utility.yul\":4609:4778   */\ntag_41:\n    /* \"#utility.yul\":4653:4659   */\n  0x00\n    /* \"#utility.yul\":4686:4737   */\n  tag_112\n    /* \"#utility.yul\":4734:4735   */\n  0x00\n    /* \"#utility.yul\":4730:4736   */\n  not\n    /* \"#utility.yul\":4722:4727   */\n  dup5\n    /* \"#utility.yul\":4719:4720   */\n  0x08\n    /* \"#utility.yul\":4715:4728   */\n  mul\n    /* \"#utility.yul\":4686:4737   */\n  tag_40\n  jump\t// in\ntag_112:\n    /* \"#utility.yul\":4682:4738   */\n  not\n    /* \"#utility.yul\":4767:4771   */\n  dup1\n    /* \"#utility.yul\":4761:4765   */\n  dup4\n    /* \"#utility.yul\":4757:4772   */\n  and\n    /* \"#utility.yul\":4747:4772   */\n  swap2\n  pop\n    /* \"#utility.yul\":4660:4778   */\n  pop\n    /* \"#utility.yul\":4609:4778   */\n  swap3\n  swap2\n  pop\n  pop\n  jump\t// out\n    /* \"#utility.yul\":4783:5078   */\ntag_42:\n    /* \"#utility.yul\":4859:4863   */\n  0x00\n    /* \"#utility.yul\":5005:5034   */\n  tag_114\n    /* \"#utility.yul\":5030:5033   */\n  dup4\n    /* \"#utility.yul\":5024:5028   */\n  dup4\n    /* \"#utility.yul\":5005:5034   */\n  tag_41\n  jump\t// in\ntag_114:\n    /* \"#utility.yul\":4997:5034   */\n  swap2\n  pop\n    /* \"#utility.yul\":5067:5070   */\n  dup3\n    /* \"#utility.yul\":5064:5065   */\n  0x02\n    /* \"#utility.yul\":5060:5071   */\n  mul\n    /* \"#utility.yul\":5054:5058   */\n  dup3\n    /* \"#utility.yul\":5051:5072   */\n  or\n    /* \"#utility.yul\":5043:5072   */\n  swap1\n  pop\n    /* \"#utility.yul\":4783:5078   */\n  swap3\n  swap2\n  pop\n  pop\n  jump\t// out\n    /* \"#utility.yul\":5083:6473   */\ntag_4:\n    /* \"#utility.yul\":5198:5234   */\n  tag_116\n    /* \"#utility.yul\":5230:5233   */\n  dup3\n    /* \"#utility.yul\":5198:5234   */\n  tag_25\n  jump\t// in\ntag_116:\n    /* \"#utility.yul\":5299:5317   */\n  0xffffffffffffffff\n    /* \"#utility.yul\":5291:5297   */\n  dup2\n    /* \"#utility.yul\":5288:5318   */\n  gt\n    /* \"#utility.yul\":5285:5341   */\n  iszero\n  tag_117\n  jumpi\n    /* \"#utility.yul\":5321:5339   */\n  tag_118\n  tag_26\n  jump\t// in\ntag_118:\n    /* \"#utility.yul\":5285:5341   */\ntag_117:\n    /* \"#utility.yul\":5365:5403   */\n  tag_119\n    /* \"#utility.yul\":5397:5401   */\n  dup3\n    /* \"#utility.yul\":5391:5402   */\n  sload\n    /* \"#utility.yul\":5365:5403   */\n  tag_9\n  jump\t// in\ntag_119:\n    /* \"#utility.yul\":5450:5516   */\n  tag_120\n    /* \"#utility.yul\":5509:5515   */\n  dup3\n    /* \"#utility.yul\":5501:5507   */\n  dup3\n    /* \"#utility.yul\":5495:5499   */\n  dup6\n    /* \"#utility.yul\":5450:5516   */\n  tag_39\n  jump\t// in\ntag_120:\n    /* \"#utility.yul\":5543:5544   */\n  0x00\n    /* \"#utility.yul\":5567:5571   */\n  0x20\n    /* \"#utility.yul\":5554:5571   */\n  swap1\n  pop\n    /* \"#utility.yul\":5599:5601   */\n  0x1f\n    /* \"#utility.yul\":5591:5597   */\n  dup4\n    /* \"#utility.yul\":5588:5602   */\n  gt\n    /* \"#utility.yul\":5616:5617   */\n  0x01\n    /* \"#utility.yul\":5611:6228   */\n  dup2\n  eq\n  tag_122\n  jumpi\n    /* \"#utility.yul\":6272:6273   */\n  0x00\n    /* \"#utility.yul\":6289:6295   */\n  dup5\n    /* \"#utility.yul\":6286:6363   */\n  iszero\n  tag_123\n  jumpi\n    /* \"#utility.yul\":6338:6347   */\n  dup3\n    /* \"#utility.yul\":6333:6336   */\n  dup8\n    /* \"#utility.yul\":6329:6348   */\n  add\n    /* \"#utility.yul\":6323:6349   */\n  mload\n    /* \"#utility.yul\":6314:6349   */\n  swap1\n  pop\n    /* \"#utility.yul\":6286:6363   */\ntag_123:\n    /* \"#utility.yul\":6389:6456   */\n  tag_124\n    /* \"#utility.yul\":6449:6455   */\n  dup6\n    /* \"#utility.yul\":6442:6447   */\n  dup3\n    /* \"#utility.yul\":6389:6456   */\n  tag_42\n  jump\t// in\ntag_124:\n    /* \"#utility.yul\":6383:6387   */\n  dup7\n    /* \"#utility.yul\":6376:6457   */\n  sstore\n    /* \"#utility.yul\":6245:6467   */\n  pop\n    /* \"#utility.yul\":5581:6467   */\n  jump(tag_121)\n    /* \"#utility.yul\":5611:6228   */\ntag_122:\n    /* \"#utility.yul\":5663:5667   */\n  0x1f\n    /* \"#utility.yul\":5659:5668   */\n  not\n    /* \"#utility.yul\":5651:5657   */\n  dup5\n    /* \"#utility.yul\":5647:5669   */\n  and\n    /* \"#utility.yul\":5697:5733   */\n  tag_125\n    /* \"#utility.yul\":5728:5732   */\n  dup7\n    /* \"#utility.yul\":5697:5733   */\n  tag_28\n  jump\t// in\ntag_125:\n    /* \"#utility.yul\":5755:5756   */\n  0x00\n    /* \"#utility.yul\":5769:5977   */\ntag_126:\n    /* \"#utility.yul\":5783:5790   */\n  dup3\n    /* \"#utility.yul\":5780:5781   */\n  dup2\n    /* \"#utility.yul\":5777:5791   */\n  lt\n    /* \"#utility.yul\":5769:5977   */\n  iszero\n  tag_128\n  jumpi\n    /* \"#utility.yul\":5862:5871   */\n  dup5\n    /* \"#utility.yul\":5857:5860   */\n  dup10\n    /* \"#utility.yul\":5853:5872   */\n  add\n    /* \"#utility.yul\":5847:5873   */\n  mload\n    /* \"#utility.yul\":5839:5845   */\n  dup3\n    /* \"#utility.yul\":5832:5874   */\n  sstore\n    /* \"#utility.yul\":5913:5914   */\n  0x01\n    /* \"#utility.yul\":5905:5911   */\n  dup3\n    /* \"#utility.yul\":5901:5915   */\n  add\n    /* \"#utility.yul\":5891:5915   */\n  swap2\n  pop\n    /* \"#utility.yul\":5960:5962   */\n  0x20\n    /* \"#utility.yul\":5949:5958   */\n  dup6\n    /* \"#utility.yul\":5945:5963   */\n  add\n    /* \"#utility.yul\":5932:5963   */\n  swap5\n  pop\n    /* \"#utility.yul\":5806:5810   */\n  0x20\n    /* \"#utility.yul\":5803:5804   */\n  dup2\n    /* \"#utility.yul\":5799:5811   */\n  add\n    /* \"#utility.yul\":5794:5811   */\n  swap1\n  pop\n    /* \"#utility.yul\":5769:5977   */\n  jump(tag_126)\ntag_128:\n    /* \"#utility.yul\":6005:6011   */\n  dup7\n    /* \"#utility.yul\":5996:6003   */\n  dup4\n    /* \"#utility.yul\":5993:6012   */\n  lt\n    /* \"#utility.yul\":5990:6169   */\n  iszero\n  tag_129\n  jumpi\n    /* \"#utility.yul\":6063:6072   */\n  dup5\n    /* \"#utility.yul\":6058:6061   */\n  dup10\n    /* \"#utility.yul\":6054:6073   */\n  add\n    /* \"#utility.yul\":6048:6074   */\n  mload\n    /* \"#utility.yul\":6106:6154   */\n  tag_130\n    /* \"#utility.yul\":6148:6152   */\n  0x1f\n    /* \"#utility.yul\":6140:6146   */\n  dup10\n    /* \"#utility.yul\":6136:6153   */\n  and\n    /* \"#utility.yul\":6125:6134   */\n  dup3\n    /* \"#utility.yul\":6106:6154   */\n  tag_41\n  jump\t// in\ntag_130:\n    /* \"#utility.yul\":6098:6104   */\n  dup4\n    /* \"#utility.yul\":6091:6155   */\n  sstore\n    /* \"#utility.yul\":6013:6169   */\n  pop\n    /* \"#utility.yul\":5990:6169   */\ntag_129:\n    /* \"#utility.yul\":6215:6216   */\n  0x01\n    /* \"#utility.yul\":6211:6212   */\n  0x02\n    /* \"#utility.yul\":6203:6209   */\n  dup9\n    /* \"#utility.yul\":6199:6213   */\n  mul\n    /* \"#utility.yul\":6195:6217   */\n  add\n    /* \"#utility.yul\":6189:6193   */\n  dup9\n    /* \"#utility.yul\":6182:6218   */\n  sstore\n    /* \"#utility.yul\":5618:6228   */\n  pop\n  pop\n  pop\n    /* \"#utility.yul\":5581:6467   */\ntag_121:\n  pop\n    /* \"#utility.yul\":5173:6473   */\n  pop\n  pop\n  pop\n    /* \"#utility.yul\":5083:6473   */\n  pop\n  pop\n  jump\t// out\n    /* \"#utility.yul\":6560:6677   */\ntag_44:\n    /* \"#utility.yul\":6669:6670   */\n  0x00\n    /* \"#utility.yul\":6666:6667   */\n  dup1\n    /* \"#utility.yul\":6659:6671   */\n  revert\n    /* \"#utility.yul\":6806:6928   */\ntag_46:\n    /* \"#utility.yul\":6879:6903   */\n  tag_135\n    /* \"#utility.yul\":6897:6902   */\n  dup2\n    /* \"#utility.yul\":6879:6903   */\n  tag_32\n  jump\t// in\ntag_135:\n    /* \"#utility.yul\":6872:6877   */\n  dup2\n    /* \"#utility.yul\":6869:6904   */\n  eq\n    /* \"#utility.yul\":6859:6922   */\n  tag_136\n  jumpi\n    /* \"#utility.yul\":6918:6919   */\n  0x00\n    /* \"#utility.yul\":6915:6916   */\n  dup1\n    /* \"#utility.yul\":6908:6920   */\n  revert\n    /* \"#utility.yul\":6859:6922   */\ntag_136:\n    /* \"#utility.yul\":6806:6928   */\n  pop\n  jump\t// out\n    /* \"#utility.yul\":6934:7077   */\ntag_47:\n    /* \"#utility.yul\":6991:6996   */\n  0x00\n    /* \"#utility.yul\":7022:7028   */\n  dup2\n    /* \"#utility.yul\":7016:7029   */\n  mload\n    /* \"#utility.yul\":7007:7029   */\n  swap1\n  pop\n    /* \"#utility.yul\":7038:7071   */\n  tag_138\n    /* \"#utility.yul\":7065:7070   */\n  dup2\n    /* \"#utility.yul\":7038:7071   */\n  tag_46\n  jump\t// in\ntag_138:\n    /* \"#utility.yul\":6934:7077   */\n  swap3\n  swap2\n  pop\n  pop\n  jump\t// out\n    /* \"#utility.yul\":7083:7159   */\ntag_48:\n    /* \"#utility.yul\":7119:7126   */\n  0x00\n    /* \"#utility.yul\":7148:7153   */\n  dup2\n    /* \"#utility.yul\":7137:7153   */\n  swap1\n  pop\n    /* \"#utility.yul\":7083:7159   */\n  swap2\n  swap1\n  pop\n  jump\t// out\n    /* \"#utility.yul\":7165:7285   */\ntag_49:\n    /* \"#utility.yul\":7237:7260   */\n  tag_141\n    /* \"#utility.yul\":7254:7259   */\n  dup2\n    /* \"#utility.yul\":7237:7260   */\n  tag_48\n  jump\t// in\ntag_141:\n    /* \"#utility.yul\":7230:7235   */\n  dup2\n    /* \"#utility.yul\":7227:7261   */\n  eq\n    /* \"#utility.yul\":7217:7279   */\n  tag_142\n  jumpi\n    /* \"#utility.yul\":7275:7276   */\n  0x00\n    /* \"#utility.yul\":7272:7273   */\n  dup1\n    /* \"#utility.yul\":7265:7277   */\n  revert\n    /* \"#utility.yul\":7217:7279   */\ntag_142:\n    /* \"#utility.yul\":7165:7285   */\n  pop\n  jump\t// out\n    /* \"#utility.yul\":7291:7432   */\ntag_50:\n    /* \"#utility.yul\":7347:7352   */\n  0x00\n    /* \"#utility.yul\":7378:7384   */\n  dup2\n    /* \"#utility.yul\":7372:7385   */\n  mload\n    /* \"#utility.yul\":7363:7385   */\n  swap1\n  pop\n    /* \"#utility.yul\":7394:7426   */\n  tag_144\n    /* \"#utility.yul\":7420:7425   */\n  dup2\n    /* \"#utility.yul\":7394:7426   */\n  tag_49\n  jump\t// in\ntag_144:\n    /* \"#utility.yul\":7291:7432   */\n  swap3\n  swap2\n  pop\n  pop\n  jump\t// out\n    /* \"#utility.yul\":7438:7943   */\ntag_15:\n    /* \"#utility.yul\":7516:7522   */\n  0x00\n    /* \"#utility.yul\":7524:7530   */\n  dup1\n    /* \"#utility.yul\":7573:7575   */\n  0x40\n    /* \"#utility.yul\":7561:7570   */\n  dup4\n    /* \"#utility.yul\":7552:7559   */\n  dup6\n    /* \"#utility.yul\":7548:7571   */\n  sub\n    /* \"#utility.yul\":7544:7576   */\n  slt\n    /* \"#utility.yul\":7541:7660   */\n  iszero\n  tag_146\n  jumpi\n    /* \"#utility.yul\":7579:7658   */\n  tag_147\n  tag_44\n  jump\t// in\ntag_147:\n    /* \"#utility.yul\":7541:7660   */\ntag_146:\n    /* \"#utility.yul\":7699:7700   */\n  0x00\n    /* \"#utility.yul\":7724:7788   */\n  tag_148\n    /* \"#utility.yul\":7780:7787   */\n  dup6\n    /* \"#utility.yul\":7771:7777   */\n  dup3\n    /* \"#utility.yul\":7760:7769   */\n  dup7\n    /* \"#utility.yul\":7756:7778   */\n  add\n    /* \"#utility.yul\":7724:7788   */\n  tag_47\n  jump\t// in\ntag_148:\n    /* \"#utility.yul\":7714:7788   */\n  swap3\n  pop\n    /* \"#utility.yul\":7670:7798   */\n  pop\n    /* \"#utility.yul\":7837:7839   */\n  0x20\n    /* \"#utility.yul\":7863:7926   */\n  tag_149\n    /* \"#utility.yul\":7918:7925   */\n  dup6\n    /* \"#utility.yul\":7909:7915   */\n  dup3\n    /* \"#utility.yul\":7898:7907   */\n  dup7\n    /* \"#utility.yul\":7894:7916   */\n  add\n    /* \"#utility.yul\":7863:7926   */\n  tag_50\n  jump\t// in\ntag_149:\n    /* \"#utility.yul\":7853:7926   */\n  swap2\n  pop\n    /* \"#utility.yul\":7808:7936   */\n  pop\n    /* \"#utility.yul\":7438:7943   */\n  swap3\n  pop\n  swap3\n  swap1\n  pop\n  jump\t// out\n    /* \"study/chapter03/abi.sol\":54:287  contract testABI1{... */\ntag_16:\n  dataSize(sub_0)\n  dup1\n  dataOffset(sub_0)\n  0x00\n  codecopy\n  0x00\n  return\nstop\n\nsub_0: assembly {\n        /* \"study/chapter03/abi.sol\":54:287  contract testABI1{... */\n      mstore(0x40, 0x80)\n      callvalue\n      dup1\n      iszero\n      tag_1\n      jumpi\n      0x00\n      dup1\n      revert\n    tag_1:\n      pop\n      jumpi(tag_2, lt(calldatasize, 0x04))\n      shr(0xe0, calldataload(0x00))\n      dup1\n      0x8a054ac2\n      eq\n      tag_3\n      jumpi\n      dup1\n      0xc3da42b8\n      eq\n      tag_4\n      jumpi\n      dup1\n      0xffae15ba\n      eq\n      tag_5\n      jumpi\n    tag_2:\n      0x00\n      dup1\n      revert\n        /* \"study/chapter03/abi.sol\":181:194  uint public d */\n    tag_3:\n      tag_6\n      tag_7\n      jump\t// in\n    tag_6:\n      mload(0x40)\n      tag_8\n      swap2\n      swap1\n      tag_9\n      jump\t// in\n    tag_8:\n      mload(0x40)\n      dup1\n      swap2\n      sub\n      swap1\n      return\n        /* \"study/chapter03/abi.sol\":138:170  bytes public c = abi.encode(5,1) */\n    tag_4:\n      tag_10\n      tag_11\n      jump\t// in\n    tag_10:\n      mload(0x40)\n      tag_12\n      swap2\n      swap1\n      tag_13\n      jump\t// in\n    tag_12:\n      mload(0x40)\n      dup1\n      swap2\n      sub\n      swap1\n      return\n        /* \"study/chapter03/abi.sol\":200:212  int public e */\n    tag_5:\n      tag_14\n      tag_15\n      jump\t// in\n    tag_14:\n      mload(0x40)\n      tag_16\n      swap2\n      swap1\n      tag_17\n      jump\t// in\n    tag_16:\n      mload(0x40)\n      dup1\n      swap2\n      sub\n      swap1\n      return\n        /* \"study/chapter03/abi.sol\":181:194  uint public d */\n    tag_7:\n      sload(0x01)\n      dup2\n      jump\t// out\n        /* \"study/chapter03/abi.sol\":138:170  bytes public c = abi.encode(5,1) */\n    tag_11:\n      0x00\n      dup1\n      sload\n      tag_18\n      swap1\n      tag_19\n      jump\t// in\n    tag_18:\n      dup1\n      0x1f\n      add\n      0x20\n      dup1\n      swap2\n      div\n      mul\n      0x20\n      add\n      mload(0x40)\n      swap1\n      dup2\n      add\n      0x40\n      mstore\n      dup1\n      swap3\n      swap2\n      swap1\n      dup2\n      dup2\n      mstore\n      0x20\n      add\n      dup3\n      dup1\n      sload\n      tag_20\n      swap1\n      tag_19\n      jump\t// in\n    tag_20:\n      dup1\n      iszero\n      tag_21\n      jumpi\n      dup1\n      0x1f\n      lt\n      tag_22\n      jumpi\n      0x0100\n      dup1\n      dup4\n      sload\n      div\n      mul\n      dup4\n      mstore\n      swap2\n      0x20\n      add\n      swap2\n      jump(tag_21)\n    tag_22:\n      dup3\n      add\n      swap2\n      swap1\n      0x00\n      mstore\n      keccak256(0x00, 0x20)\n      swap1\n    tag_23:\n      dup2\n      sload\n      dup2\n      mstore\n      swap1\n      0x01\n      add\n      swap1\n      0x20\n      add\n      dup1\n      dup4\n      gt\n      tag_23\n      jumpi\n      dup3\n      swap1\n      sub\n      0x1f\n      and\n      dup3\n      add\n      swap2\n    tag_21:\n      pop\n      pop\n      pop\n      pop\n      pop\n      dup2\n      jump\t// out\n        /* \"study/chapter03/abi.sol\":200:212  int public e */\n    tag_15:\n      sload(0x02)\n      dup2\n      jump\t// out\n        /* \"#utility.yul\":7:84   */\n    tag_24:\n        /* \"#utility.yul\":44:51   */\n      0x00\n        /* \"#utility.yul\":73:78   */\n      dup2\n        /* \"#utility.yul\":62:78   */\n      swap1\n      pop\n        /* \"#utility.yul\":7:84   */\n      swap2\n      swap1\n      pop\n      jump\t// out\n        /* \"#utility.yul\":90:208   */\n    tag_25:\n        /* \"#utility.yul\":177:201   */\n      tag_37\n        /* \"#utility.yul\":195:200   */\n      dup2\n        /* \"#utility.yul\":177:201   */\n      tag_24\n      jump\t// in\n    tag_37:\n        /* \"#utility.yul\":172:175   */\n      dup3\n        /* \"#utility.yul\":165:202   */\n      mstore\n        /* \"#utility.yul\":90:208   */\n      pop\n      pop\n      jump\t// out\n        /* \"#utility.yul\":214:436   */\n    tag_9:\n        /* \"#utility.yul\":307:311   */\n      0x00\n        /* \"#utility.yul\":345:347   */\n      0x20\n        /* \"#utility.yul\":334:343   */\n      dup3\n        /* \"#utility.yul\":330:348   */\n      add\n        /* \"#utility.yul\":322:348   */\n      swap1\n      pop\n        /* \"#utility.yul\":358:429   */\n      tag_39\n        /* \"#utility.yul\":426:427   */\n      0x00\n        /* \"#utility.yul\":415:424   */\n      dup4\n        /* \"#utility.yul\":411:428   */\n      add\n        /* \"#utility.yul\":402:408   */\n      dup5\n        /* \"#utility.yul\":358:429   */\n      tag_25\n      jump\t// in\n    tag_39:\n        /* \"#utility.yul\":214:436   */\n      swap3\n      swap2\n      pop\n      pop\n      jump\t// out\n        /* \"#utility.yul\":442:540   */\n    tag_26:\n        /* \"#utility.yul\":493:499   */\n      0x00\n        /* \"#utility.yul\":527:532   */\n      dup2\n        /* \"#utility.yul\":521:533   */\n      mload\n        /* \"#utility.yul\":511:533   */\n      swap1\n      pop\n        /* \"#utility.yul\":442:540   */\n      swap2\n      swap1\n      pop\n      jump\t// out\n        /* \"#utility.yul\":546:714   */\n    tag_27:\n        /* \"#utility.yul\":629:640   */\n      0x00\n        /* \"#utility.yul\":663:669   */\n      dup3\n        /* \"#utility.yul\":658:661   */\n      dup3\n        /* \"#utility.yul\":651:670   */\n      mstore\n        /* \"#utility.yul\":703:707   */\n      0x20\n        /* \"#utility.yul\":698:701   */\n      dup3\n        /* \"#utility.yul\":694:708   */\n      add\n        /* \"#utility.yul\":679:708   */\n      swap1\n      pop\n        /* \"#utility.yul\":546:714   */\n      swap3\n      swap2\n      pop\n      pop\n      jump\t// out\n        /* \"#utility.yul\":720:1027   */\n    tag_28:\n        /* \"#utility.yul\":788:789   */\n      0x00\n        /* \"#utility.yul\":798:911   */\n    tag_43:\n        /* \"#utility.yul\":812:818   */\n      dup4\n        /* \"#utility.yul\":809:810   */\n      dup2\n        /* \"#utility.yul\":806:819   */\n      lt\n        /* \"#utility.yul\":798:911   */\n      iszero\n      tag_45\n      jumpi\n        /* \"#utility.yul\":897:898   */\n      dup1\n        /* \"#utility.yul\":892:895   */\n      dup3\n        /* \"#utility.yul\":888:899   */\n      add\n        /* \"#utility.yul\":882:900   */\n      mload\n        /* \"#utility.yul\":878:879   */\n      dup2\n        /* \"#utility.yul\":873:876   */\n      dup5\n        /* \"#utility.yul\":869:880   */\n      add\n        /* \"#utility.yul\":862:901   */\n      mstore\n        /* \"#utility.yul\":834:836   */\n      0x20\n        /* \"#utility.yul\":831:832   */\n      dup2\n        /* \"#utility.yul\":827:837   */\n      add\n        /* \"#utility.yul\":822:837   */\n      swap1\n      pop\n        /* \"#utility.yul\":798:911   */\n      jump(tag_43)\n    tag_45:\n        /* \"#utility.yul\":929:935   */\n      dup4\n        /* \"#utility.yul\":926:927   */\n      dup2\n        /* \"#utility.yul\":923:936   */\n      gt\n        /* \"#utility.yul\":920:1021   */\n      iszero\n      tag_46\n      jumpi\n        /* \"#utility.yul\":1009:1010   */\n      0x00\n        /* \"#utility.yul\":1000:1006   */\n      dup5\n        /* \"#utility.yul\":995:998   */\n      dup5\n        /* \"#utility.yul\":991:1007   */\n      add\n        /* \"#utility.yul\":984:1011   */\n      mstore\n        /* \"#utility.yul\":920:1021   */\n    tag_46:\n        /* \"#utility.yul\":769:1027   */\n      pop\n        /* \"#utility.yul\":720:1027   */\n      pop\n      pop\n      pop\n      jump\t// out\n        /* \"#utility.yul\":1033:1135   */\n    tag_29:\n        /* \"#utility.yul\":1074:1080   */\n      0x00\n        /* \"#utility.yul\":1125:1127   */\n      0x1f\n        /* \"#utility.yul\":1121:1128   */\n      not\n        /* \"#utility.yul\":1116:1118   */\n      0x1f\n        /* \"#utility.yul\":1109:1114   */\n      dup4\n        /* \"#utility.yul\":1105:1119   */\n      add\n        /* \"#utility.yul\":1101:1129   */\n      and\n        /* \"#utility.yul\":1091:1129   */\n      swap1\n      pop\n        /* \"#utility.yul\":1033:1135   */\n      swap2\n      swap1\n      pop\n      jump\t// out\n        /* \"#utility.yul\":1141:1501   */\n    tag_30:\n        /* \"#utility.yul\":1227:1230   */\n      0x00\n        /* \"#utility.yul\":1255:1293   */\n      tag_49\n        /* \"#utility.yul\":1287:1292   */\n      dup3\n        /* \"#utility.yul\":1255:1293   */\n      tag_26\n      jump\t// in\n    tag_49:\n        /* \"#utility.yul\":1309:1379   */\n      tag_50\n        /* \"#utility.yul\":1372:1378   */\n      dup2\n        /* \"#utility.yul\":1367:1370   */\n      dup6\n        /* \"#utility.yul\":1309:1379   */\n      tag_27\n      jump\t// in\n    tag_50:\n        /* \"#utility.yul\":1302:1379   */\n      swap4\n      pop\n        /* \"#utility.yul\":1388:1440   */\n      tag_51\n        /* \"#utility.yul\":1433:1439   */\n      dup2\n        /* \"#utility.yul\":1428:1431   */\n      dup6\n        /* \"#utility.yul\":1421:1425   */\n      0x20\n        /* \"#utility.yul\":1414:1419   */\n      dup7\n        /* \"#utility.yul\":1410:1426   */\n      add\n        /* \"#utility.yul\":1388:1440   */\n      tag_28\n      jump\t// in\n    tag_51:\n        /* \"#utility.yul\":1465:1494   */\n      tag_52\n        /* \"#utility.yul\":1487:1493   */\n      dup2\n        /* \"#utility.yul\":1465:1494   */\n      tag_29\n      jump\t// in\n    tag_52:\n        /* \"#utility.yul\":1460:1463   */\n      dup5\n        /* \"#utility.yul\":1456:1495   */\n      add\n        /* \"#utility.yul\":1449:1495   */\n      swap2\n      pop\n        /* \"#utility.yul\":1231:1501   */\n      pop\n        /* \"#utility.yul\":1141:1501   */\n      swap3\n      swap2\n      pop\n      pop\n      jump\t// out\n        /* \"#utility.yul\":1507:1816   */\n    tag_13:\n        /* \"#utility.yul\":1618:1622   */\n      0x00\n        /* \"#utility.yul\":1656:1658   */\n      0x20\n        /* \"#utility.yul\":1645:1654   */\n      dup3\n        /* \"#utility.yul\":1641:1659   */\n      add\n        /* \"#utility.yul\":1633:1659   */\n      swap1\n      pop\n        /* \"#utility.yul\":1705:1714   */\n      dup2\n        /* \"#utility.yul\":1699:1703   */\n      dup2\n        /* \"#utility.yul\":1695:1715   */\n      sub\n        /* \"#utility.yul\":1691:1692   */\n      0x00\n        /* \"#utility.yul\":1680:1689   */\n      dup4\n        /* \"#utility.yul\":1676:1693   */\n      add\n        /* \"#utility.yul\":1669:1716   */\n      mstore\n        /* \"#utility.yul\":1733:1809   */\n      tag_54\n        /* \"#utility.yul\":1804:1808   */\n      dup2\n        /* \"#utility.yul\":1795:1801   */\n      dup5\n        /* \"#utility.yul\":1733:1809   */\n      tag_30\n      jump\t// in\n    tag_54:\n        /* \"#utility.yul\":1725:1809   */\n      swap1\n      pop\n        /* \"#utility.yul\":1507:1816   */\n      swap3\n      swap2\n      pop\n      pop\n      jump\t// out\n        /* \"#utility.yul\":1822:1898   */\n    tag_31:\n        /* \"#utility.yul\":1858:1865   */\n      0x00\n        /* \"#utility.yul\":1887:1892   */\n      dup2\n        /* \"#utility.yul\":1876:1892   */\n      swap1\n      pop\n        /* \"#utility.yul\":1822:1898   */\n      swap2\n      swap1\n      pop\n      jump\t// out\n        /* \"#utility.yul\":1904:2019   */\n    tag_32:\n        /* \"#utility.yul\":1989:2012   */\n      tag_57\n        /* \"#utility.yul\":2006:2011   */\n      dup2\n        /* \"#utility.yul\":1989:2012   */\n      tag_31\n      jump\t// in\n    tag_57:\n        /* \"#utility.yul\":1984:1987   */\n      dup3\n        /* \"#utility.yul\":1977:2013   */\n      mstore\n        /* \"#utility.yul\":1904:2019   */\n      pop\n      pop\n      jump\t// out\n        /* \"#utility.yul\":2025:2243   */\n    tag_17:\n        /* \"#utility.yul\":2116:2120   */\n      0x00\n        /* \"#utility.yul\":2154:2156   */\n      0x20\n        /* \"#utility.yul\":2143:2152   */\n      dup3\n        /* \"#utility.yul\":2139:2157   */\n      add\n        /* \"#utility.yul\":2131:2157   */\n      swap1\n      pop\n        /* \"#utility.yul\":2167:2236   */\n      tag_59\n        /* \"#utility.yul\":2233:2234   */\n      0x00\n        /* \"#utility.yul\":2222:2231   */\n      dup4\n        /* \"#utility.yul\":2218:2235   */\n      add\n        /* \"#utility.yul\":2209:2215   */\n      dup5\n        /* \"#utility.yul\":2167:2236   */\n      tag_32\n      jump\t// in\n    tag_59:\n        /* \"#utility.yul\":2025:2243   */\n      swap3\n      swap2\n      pop\n      pop\n      jump\t// out\n        /* \"#utility.yul\":2249:2429   */\n    tag_33:\n        /* \"#utility.yul\":2297:2374   */\n      0x4e487b7100000000000000000000000000000000000000000000000000000000\n        /* \"#utility.yul\":2294:2295   */\n      0x00\n        /* \"#utility.yul\":2287:2375   */\n      mstore\n        /* \"#utility.yul\":2394:2398   */\n      0x22\n        /* \"#utility.yul\":2391:2392   */\n      0x04\n        /* \"#utility.yul\":2384:2399   */\n      mstore\n        /* \"#utility.yul\":2418:2422   */\n      0x24\n        /* \"#utility.yul\":2415:2416   */\n      0x00\n        /* \"#utility.yul\":2408:2423   */\n      revert\n        /* \"#utility.yul\":2435:2755   */\n    tag_19:\n        /* \"#utility.yul\":2479:2485   */\n      0x00\n        /* \"#utility.yul\":2516:2517   */\n      0x02\n        /* \"#utility.yul\":2510:2514   */\n      dup3\n        /* \"#utility.yul\":2506:2518   */\n      div\n        /* \"#utility.yul\":2496:2518   */\n      swap1\n      pop\n        /* \"#utility.yul\":2563:2564   */\n      0x01\n        /* \"#utility.yul\":2557:2561   */\n      dup3\n        /* \"#utility.yul\":2553:2565   */\n      and\n        /* \"#utility.yul\":2584:2602   */\n      dup1\n        /* \"#utility.yul\":2574:2655   */\n      tag_62\n      jumpi\n        /* \"#utility.yul\":2640:2644   */\n      0x7f\n        /* \"#utility.yul\":2632:2638   */\n      dup3\n        /* \"#utility.yul\":2628:2645   */\n      and\n        /* \"#utility.yul\":2618:2645   */\n      swap2\n      pop\n        /* \"#utility.yul\":2574:2655   */\n    tag_62:\n        /* \"#utility.yul\":2702:2704   */\n      0x20\n        /* \"#utility.yul\":2694:2700   */\n      dup3\n        /* \"#utility.yul\":2691:2705   */\n      lt\n        /* \"#utility.yul\":2671:2689   */\n      dup2\n        /* \"#utility.yul\":2668:2706   */\n      sub\n        /* \"#utility.yul\":2665:2749   */\n      tag_63\n      jumpi\n        /* \"#utility.yul\":2721:2739   */\n      tag_64\n      tag_33\n      jump\t// in\n    tag_64:\n        /* \"#utility.yul\":2665:2749   */\n    tag_63:\n        /* \"#utility.yul\":2486:2755   */\n      pop\n        /* \"#utility.yul\":2435:2755   */\n      swap2\n      swap1\n      pop\n      jump\t// out\n\n    auxdata: 0xa264697066735822122089587be007a9dab3a976652958ffb1f0f384c50759602e4269de5421269ee29464736f6c634300080f0033\n}\n",
				"bytecode": {
					"linkReferences": {},
					"object": "6080604052600560016040516020016200001b929190620001a8565b604051602081830303815290604052600090816200003a919062000445565b503480156200004857600080fd5b506000805462000058906200023e565b80601f016020809104026020016040519081016040528092919081815260200182805462000086906200023e565b8015620000d75780601f10620000ab57610100808354040283529160200191620000d7565b820191906000526020600020905b815481529060010190602001808311620000b957829003601f168201915b5050505050806020019051810190620000f191906200059d565b6001600060026000849190505583919050555050620005e4565b6000819050919050565b600060ff82169050919050565b6000819050919050565b60006200014d6200014762000141846200010b565b62000122565b62000115565b9050919050565b6200015f816200012c565b82525050565b6000819050919050565b6000620001906200018a620001848462000165565b62000122565b62000115565b9050919050565b620001a2816200016f565b82525050565b6000604082019050620001bf600083018562000154565b620001ce602083018462000197565b9392505050565b600081519050919050565b7f4e487b7100000000000000000000000000000000000000000000000000000000600052604160045260246000fd5b7f4e487b7100000000000000000000000000000000000000000000000000000000600052602260045260246000fd5b600060028204905060018216806200025757607f821691505b6020821081036200026d576200026c6200020f565b5b50919050565b60008190508160005260206000209050919050565b60006020601f8301049050919050565b600082821b905092915050565b600060088302620002d77fffffffffffffffffffffffffffffffffffffffffffffffffffffffffffffffff8262000298565b620002e3868362000298565b95508019841693508086168417925050509392505050565b6000819050919050565b600062000326620003206200031a84620002fb565b62000122565b620002fb565b9050919050565b6000819050919050565b620003428362000305565b6200035a62000351826200032d565b848454620002a5565b825550505050565b600090565b6200037162000362565b6200037e81848462000337565b505050565b5b81811015620003a6576200039a60008262000367565b60018101905062000384565b5050565b601f821115620003f557620003bf8162000273565b620003ca8462000288565b81016020851015620003da578190505b620003f2620003e98562000288565b83018262000383565b50505b505050565b600082821c905092915050565b60006200041a60001984600802620003fa565b1980831691505092915050565b600062000435838362000407565b9150826002028217905092915050565b6200045082620001d5565b67ffffffffffffffff8111156200046c576200046b620001e0565b5b6200047882546200023e565b62000485828285620003aa565b600060209050601f831160018114620004bd5760008415620004a8578287015190505b620004b4858262000427565b86555062000524565b601f198416620004cd8662000273565b60005b82811015620004f757848901518255600182019150602085019450602081019050620004d0565b8683101562000517578489015162000513601f89168262000407565b8355505b6001600288020188555050505b505050505050565b600080fd5b6200053c81620002fb565b81146200054857600080fd5b50565b6000815190506200055c8162000531565b92915050565b6000819050919050565b620005778162000562565b81146200058357600080fd5b50565b60008151905062000597816200056c565b92915050565b60008060408385031215620005b757620005b66200052c565b5b6000620005c7858286016200054b565b9250506020620005da8582860162000586565b9150509250929050565b6102f380620005f46000396000f3fe608060405234801561001057600080fd5b50600436106100415760003560e01c80638a054ac214610046578063c3da42b814610064578063ffae15ba14610082575b600080fd5b61004e6100a0565b60405161005b9190610153565b60405180910390f35b61006c6100a6565b6040516100799190610207565b60405180910390f35b61008a610134565b6040516100979190610242565b60405180910390f35b60015481565b600080546100b39061028c565b80601f01602080910402602001604051908101604052809291908181526020018280546100df9061028c565b801561012c5780601f106101015761010080835404028352916020019161012c565b820191906000526020600020905b81548152906001019060200180831161010f57829003601f168201915b505050505081565b60025481565b6000819050919050565b61014d8161013a565b82525050565b60006020820190506101686000830184610144565b92915050565b600081519050919050565b600082825260208201905092915050565b60005b838110156101a857808201518184015260208101905061018d565b838111156101b7576000848401525b50505050565b6000601f19601f8301169050919050565b60006101d98261016e565b6101e38185610179565b93506101f381856020860161018a565b6101fc816101bd565b840191505092915050565b6000602082019050818103600083015261022181846101ce565b905092915050565b6000819050919050565b61023c81610229565b82525050565b60006020820190506102576000830184610233565b92915050565b7f4e487b7100000000000000000000000000000000000000000000000000000000600052602260045260246000fd5b600060028204905060018216806102a457607f821691505b6020821081036102b7576102b661025d565b5b5091905056fea264697066735822122089587be007a9dab3a976652958ffb1f0f384c50759602e4269de5421269ee29464736f6c634300080f0033",
					"opcodes": "PUSH1 0x80 PUSH1 0x40 MSTORE PUSH1 0x5 PUSH1 0x1 PUSH1 0x40 MLOAD PUSH1 0x20 ADD PUSH3 0x1B SWAP3 SWAP2 SWAP1 PUSH3 0x1A8 JUMP JUMPDEST PUSH1 0x40 MLOAD PUSH1 0x20 DUP2 DUP4 SUB SUB DUP2 MSTORE SWAP1 PUSH1 0x40 MSTORE PUSH1 0x0 SWAP1 DUP2 PUSH3 0x3A SWAP2 SWAP1 PUSH3 0x445 JUMP JUMPDEST POP CALLVALUE DUP1 ISZERO PUSH3 0x48 JUMPI PUSH1 0x0 DUP1 REVERT JUMPDEST POP PUSH1 0x0 DUP1 SLOAD PUSH3 0x58 SWAP1 PUSH3 0x23E JUMP JUMPDEST DUP1 PUSH1 0x1F ADD PUSH1 0x20 DUP1 SWAP2 DIV MUL PUSH1 0x20 ADD PUSH1 0x40 MLOAD SWAP1 DUP2 ADD PUSH1 0x40 MSTORE DUP1 SWAP3 SWAP2 SWAP1 DUP2 DUP2 MSTORE PUSH1 0x20 ADD DUP3 DUP1 SLOAD PUSH3 0x86 SWAP1 PUSH3 0x23E JUMP JUMPDEST DUP1 ISZERO PUSH3 0xD7 JUMPI DUP1 PUSH1 0x1F LT PUSH3 0xAB JUMPI PUSH2 0x100 DUP1 DUP4 SLOAD DIV MUL DUP4 MSTORE SWAP2 PUSH1 0x20 ADD SWAP2 PUSH3 0xD7 JUMP JUMPDEST DUP3 ADD SWAP2 SWAP1 PUSH1 0x0 MSTORE PUSH1 0x20 PUSH1 0x0 KECCAK256 SWAP1 JUMPDEST DUP2 SLOAD DUP2 MSTORE SWAP1 PUSH1 0x1 ADD SWAP1 PUSH1 0x20 ADD DUP1 DUP4 GT PUSH3 0xB9 JUMPI DUP3 SWAP1 SUB PUSH1 0x1F AND DUP3 ADD SWAP2 JUMPDEST POP POP POP POP POP DUP1 PUSH1 0x20 ADD SWAP1 MLOAD DUP2 ADD SWAP1 PUSH3 0xF1 SWAP2 SWAP1 PUSH3 0x59D JUMP JUMPDEST PUSH1 0x1 PUSH1 0x0 PUSH1 0x2 PUSH1 0x0 DUP5 SWAP2 SWAP1 POP SSTORE DUP4 SWAP2 SWAP1 POP SSTORE POP POP PUSH3 0x5E4 JUMP JUMPDEST PUSH1 0x0 DUP2 SWAP1 POP SWAP2 SWAP1 POP JUMP JUMPDEST PUSH1 0x0 PUSH1 0xFF DUP3 AND SWAP1 POP SWAP2 SWAP1 POP JUMP JUMPDEST PUSH1 0x0 DUP2 SWAP1 POP SWAP2 SWAP1 POP JUMP JUMPDEST PUSH1 0x0 PUSH3 0x14D PUSH3 0x147 PUSH3 0x141 DUP5 PUSH3 0x10B JUMP JUMPDEST PUSH3 0x122 JUMP JUMPDEST PUSH3 0x115 JUMP JUMPDEST SWAP1 POP SWAP2 SWAP1 POP JUMP JUMPDEST PUSH3 0x15F DUP2 PUSH3 0x12C JUMP JUMPDEST DUP3 MSTORE POP POP JUMP JUMPDEST PUSH1 0x0 DUP2 SWAP1 POP SWAP2 SWAP1 POP JUMP JUMPDEST PUSH1 0x0 PUSH3 0x190 PUSH3 0x18A PUSH3 0x184 DUP5 PUSH3 0x165 JUMP JUMPDEST PUSH3 0x122 JUMP JUMPDEST PUSH3 0x115 JUMP JUMPDEST SWAP1 POP SWAP2 SWAP1 POP JUMP JUMPDEST PUSH3 0x1A2 DUP2 PUSH3 0x16F JUMP JUMPDEST DUP3 MSTORE POP POP JUMP JUMPDEST PUSH1 0x0 PUSH1 0x40 DUP3 ADD SWAP1 POP PUSH3 0x1BF PUSH1 0x0 DUP4 ADD DUP6 PUSH3 0x154 JUMP JUMPDEST PUSH3 0x1CE PUSH1 0x20 DUP4 ADD DUP5 PUSH3 0x197 JUMP JUMPDEST SWAP4 SWAP3 POP POP POP JUMP JUMPDEST PUSH1 0x0 DUP2 MLOAD SWAP1 POP SWAP2 SWAP1 POP JUMP JUMPDEST PUSH32 0x4E487B7100000000000000000000000000000000000000000000000000000000 PUSH1 0x0 MSTORE PUSH1 0x41 PUSH1 0x4 MSTORE PUSH1 0x24 PUSH1 0x0 REVERT JUMPDEST PUSH32 0x4E487B7100000000000000000000000000000000000000000000000000000000 PUSH1 0x0 MSTORE PUSH1 0x22 PUSH1 0x4 MSTORE PUSH1 0x24 PUSH1 0x0 REVERT JUMPDEST PUSH1 0x0 PUSH1 0x2 DUP3 DIV SWAP1 POP PUSH1 0x1 DUP3 AND DUP1 PUSH3 0x257 JUMPI PUSH1 0x7F DUP3 AND SWAP2 POP JUMPDEST PUSH1 0x20 DUP3 LT DUP2 SUB PUSH3 0x26D JUMPI PUSH3 0x26C PUSH3 0x20F JUMP JUMPDEST JUMPDEST POP SWAP2 SWAP1 POP JUMP JUMPDEST PUSH1 0x0 DUP2 SWAP1 POP DUP2 PUSH1 0x0 MSTORE PUSH1 0x20 PUSH1 0x0 KECCAK256 SWAP1 POP SWAP2 SWAP1 POP JUMP JUMPDEST PUSH1 0x0 PUSH1 0x20 PUSH1 0x1F DUP4 ADD DIV SWAP1 POP SWAP2 SWAP1 POP JUMP JUMPDEST PUSH1 0x0 DUP3 DUP3 SHL SWAP1 POP SWAP3 SWAP2 POP POP JUMP JUMPDEST PUSH1 0x0 PUSH1 0x8 DUP4 MUL PUSH3 0x2D7 PUSH32 0xFFFFFFFFFFFFFFFFFFFFFFFFFFFFFFFFFFFFFFFFFFFFFFFFFFFFFFFFFFFFFFFF DUP3 PUSH3 0x298 JUMP JUMPDEST PUSH3 0x2E3 DUP7 DUP4 PUSH3 0x298 JUMP JUMPDEST SWAP6 POP DUP1 NOT DUP5 AND SWAP4 POP DUP1 DUP7 AND DUP5 OR SWAP3 POP POP POP SWAP4 SWAP3 POP POP POP JUMP JUMPDEST PUSH1 0x0 DUP2 SWAP1 POP SWAP2 SWAP1 POP JUMP JUMPDEST PUSH1 0x0 PUSH3 0x326 PUSH3 0x320 PUSH3 0x31A DUP5 PUSH3 0x2FB JUMP JUMPDEST PUSH3 0x122 JUMP JUMPDEST PUSH3 0x2FB JUMP JUMPDEST SWAP1 POP SWAP2 SWAP1 POP JUMP JUMPDEST PUSH1 0x0 DUP2 SWAP1 POP SWAP2 SWAP1 POP JUMP JUMPDEST PUSH3 0x342 DUP4 PUSH3 0x305 JUMP JUMPDEST PUSH3 0x35A PUSH3 0x351 DUP3 PUSH3 0x32D JUMP JUMPDEST DUP5 DUP5 SLOAD PUSH3 0x2A5 JUMP JUMPDEST DUP3 SSTORE POP POP POP POP JUMP JUMPDEST PUSH1 0x0 SWAP1 JUMP JUMPDEST PUSH3 0x371 PUSH3 0x362 JUMP JUMPDEST PUSH3 0x37E DUP2 DUP5 DUP5 PUSH3 0x337 JUMP JUMPDEST POP POP POP JUMP JUMPDEST JUMPDEST DUP2 DUP2 LT ISZERO PUSH3 0x3A6 JUMPI PUSH3 0x39A PUSH1 0x0 DUP3 PUSH3 0x367 JUMP JUMPDEST PUSH1 0x1 DUP2 ADD SWAP1 POP PUSH3 0x384 JUMP JUMPDEST POP POP JUMP JUMPDEST PUSH1 0x1F DUP3 GT ISZERO PUSH3 0x3F5 JUMPI PUSH3 0x3BF DUP2 PUSH3 0x273 JUMP JUMPDEST PUSH3 0x3CA DUP5 PUSH3 0x288 JUMP JUMPDEST DUP2 ADD PUSH1 0x20 DUP6 LT ISZERO PUSH3 0x3DA JUMPI DUP2 SWAP1 POP JUMPDEST PUSH3 0x3F2 PUSH3 0x3E9 DUP6 PUSH3 0x288 JUMP JUMPDEST DUP4 ADD DUP3 PUSH3 0x383 JUMP JUMPDEST POP POP JUMPDEST POP POP POP JUMP JUMPDEST PUSH1 0x0 DUP3 DUP3 SHR SWAP1 POP SWAP3 SWAP2 POP POP JUMP JUMPDEST PUSH1 0x0 PUSH3 0x41A PUSH1 0x0 NOT DUP5 PUSH1 0x8 MUL PUSH3 0x3FA JUMP JUMPDEST NOT DUP1 DUP4 AND SWAP2 POP POP SWAP3 SWAP2 POP POP JUMP JUMPDEST PUSH1 0x0 PUSH3 0x435 DUP4 DUP4 PUSH3 0x407 JUMP JUMPDEST SWAP2 POP DUP3 PUSH1 0x2 MUL DUP3 OR SWAP1 POP SWAP3 SWAP2 POP POP JUMP JUMPDEST PUSH3 0x450 DUP3 PUSH3 0x1D5 JUMP JUMPDEST PUSH8 0xFFFFFFFFFFFFFFFF DUP2 GT ISZERO PUSH3 0x46C JUMPI PUSH3 0x46B PUSH3 0x1E0 JUMP JUMPDEST JUMPDEST PUSH3 0x478 DUP3 SLOAD PUSH3 0x23E JUMP JUMPDEST PUSH3 0x485 DUP3 DUP3 DUP6 PUSH3 0x3AA JUMP JUMPDEST PUSH1 0x0 PUSH1 0x20 SWAP1 POP PUSH1 0x1F DUP4 GT PUSH1 0x1 DUP2 EQ PUSH3 0x4BD JUMPI PUSH1 0x0 DUP5 ISZERO PUSH3 0x4A8 JUMPI DUP3 DUP8 ADD MLOAD SWAP1 POP JUMPDEST PUSH3 0x4B4 DUP6 DUP3 PUSH3 0x427 JUMP JUMPDEST DUP7 SSTORE POP PUSH3 0x524 JUMP JUMPDEST PUSH1 0x1F NOT DUP5 AND PUSH3 0x4CD DUP7 PUSH3 0x273 JUMP JUMPDEST PUSH1 0x0 JUMPDEST DUP3 DUP2 LT ISZERO PUSH3 0x4F7 JUMPI DUP5 DUP10 ADD MLOAD DUP3 SSTORE PUSH1 0x1 DUP3 ADD SWAP2 POP PUSH1 0x20 DUP6 ADD SWAP5 POP PUSH1 0x20 DUP2 ADD SWAP1 POP PUSH3 0x4D0 JUMP JUMPDEST DUP7 DUP4 LT ISZERO PUSH3 0x517 JUMPI DUP5 DUP10 ADD MLOAD PUSH3 0x513 PUSH1 0x1F DUP10 AND DUP3 PUSH3 0x407 JUMP JUMPDEST DUP4 SSTORE POP JUMPDEST PUSH1 0x1 PUSH1 0x2 DUP9 MUL ADD DUP9 SSTORE POP POP POP JUMPDEST POP POP POP POP POP POP JUMP JUMPDEST PUSH1 0x0 DUP1 REVERT JUMPDEST PUSH3 0x53C DUP2 PUSH3 0x2FB JUMP JUMPDEST DUP2 EQ PUSH3 0x548 JUMPI PUSH1 0x0 DUP1 REVERT JUMPDEST POP JUMP JUMPDEST PUSH1 0x0 DUP2 MLOAD SWAP1 POP PUSH3 0x55C DUP2 PUSH3 0x531 JUMP JUMPDEST SWAP3 SWAP2 POP POP JUMP JUMPDEST PUSH1 0x0 DUP2 SWAP1 POP SWAP2 SWAP1 POP JUMP JUMPDEST PUSH3 0x577 DUP2 PUSH3 0x562 JUMP JUMPDEST DUP2 EQ PUSH3 0x583 JUMPI PUSH1 0x0 DUP1 REVERT JUMPDEST POP JUMP JUMPDEST PUSH1 0x0 DUP2 MLOAD SWAP1 POP PUSH3 0x597 DUP2 PUSH3 0x56C JUMP JUMPDEST SWAP3 SWAP2 POP POP JUMP JUMPDEST PUSH1 0x0 DUP1 PUSH1 0x40 DUP4 DUP6 SUB SLT ISZERO PUSH3 0x5B7 JUMPI PUSH3 0x5B6 PUSH3 0x52C JUMP JUMPDEST JUMPDEST PUSH1 0x0 PUSH3 0x5C7 DUP6 DUP3 DUP7 ADD PUSH3 0x54B JUMP JUMPDEST SWAP3 POP POP PUSH1 0x20 PUSH3 0x5DA DUP6 DUP3 DUP7 ADD PUSH3 0x586 JUMP JUMPDEST SWAP2 POP POP SWAP3 POP SWAP3 SWAP1 POP JUMP JUMPDEST PUSH2 0x2F3 DUP1 PUSH3 0x5F4 PUSH1 0x0 CODECOPY PUSH1 0x0 RETURN INVALID PUSH1 0x80 PUSH1 0x40 MSTORE CALLVALUE DUP1 ISZERO PUSH2 0x10 JUMPI PUSH1 0x0 DUP1 REVERT JUMPDEST POP PUSH1 0x4 CALLDATASIZE LT PUSH2 0x41 JUMPI PUSH1 0x0 CALLDATALOAD PUSH1 0xE0 SHR DUP1 PUSH4 0x8A054AC2 EQ PUSH2 0x46 JUMPI DUP1 PUSH4 0xC3DA42B8 EQ PUSH2 0x64 JUMPI DUP1 PUSH4 0xFFAE15BA EQ PUSH2 0x82 JUMPI JUMPDEST PUSH1 0x0 DUP1 REVERT JUMPDEST PUSH2 0x4E PUSH2 0xA0 JUMP JUMPDEST PUSH1 0x40 MLOAD PUSH2 0x5B SWAP2 SWAP1 PUSH2 0x153 JUMP JUMPDEST PUSH1 0x40 MLOAD DUP1 SWAP2 SUB SWAP1 RETURN JUMPDEST PUSH2 0x6C PUSH2 0xA6 JUMP JUMPDEST PUSH1 0x40 MLOAD PUSH2 0x79 SWAP2 SWAP1 PUSH2 0x207 JUMP JUMPDEST PUSH1 0x40 MLOAD DUP1 SWAP2 SUB SWAP1 RETURN JUMPDEST PUSH2 0x8A PUSH2 0x134 JUMP JUMPDEST PUSH1 0x40 MLOAD PUSH2 0x97 SWAP2 SWAP1 PUSH2 0x242 JUMP JUMPDEST PUSH1 0x40 MLOAD DUP1 SWAP2 SUB SWAP1 RETURN JUMPDEST PUSH1 0x1 SLOAD DUP2 JUMP JUMPDEST PUSH1 0x0 DUP1 SLOAD PUSH2 0xB3 SWAP1 PUSH2 0x28C JUMP JUMPDEST DUP1 PUSH1 0x1F ADD PUSH1 0x20 DUP1 SWAP2 DIV MUL PUSH1 0x20 ADD PUSH1 0x40 MLOAD SWAP1 DUP2 ADD PUSH1 0x40 MSTORE DUP1 SWAP3 SWAP2 SWAP1 DUP2 DUP2 MSTORE PUSH1 0x20 ADD DUP3 DUP1 SLOAD PUSH2 0xDF SWAP1 PUSH2 0x28C JUMP JUMPDEST DUP1 ISZERO PUSH2 0x12C JUMPI DUP1 PUSH1 0x1F LT PUSH2 0x101 JUMPI PUSH2 0x100 DUP1 DUP4 SLOAD DIV MUL DUP4 MSTORE SWAP2 PUSH1 0x20 ADD SWAP2 PUSH2 0x12C JUMP JUMPDEST DUP3 ADD SWAP2 SWAP1 PUSH1 0x0 MSTORE PUSH1 0x20 PUSH1 0x0 KECCAK256 SWAP1 JUMPDEST DUP2 SLOAD DUP2 MSTORE SWAP1 PUSH1 0x1 ADD SWAP1 PUSH1 0x20 ADD DUP1 DUP4 GT PUSH2 0x10F JUMPI DUP3 SWAP1 SUB PUSH1 0x1F AND DUP3 ADD SWAP2 JUMPDEST POP POP POP POP POP DUP2 JUMP JUMPDEST PUSH1 0x2 SLOAD DUP2 JUMP JUMPDEST PUSH1 0x0 DUP2 SWAP1 POP SWAP2 SWAP1 POP JUMP JUMPDEST PUSH2 0x14D DUP2 PUSH2 0x13A JUMP JUMPDEST DUP3 MSTORE POP POP JUMP JUMPDEST PUSH1 0x0 PUSH1 0x20 DUP3 ADD SWAP1 POP PUSH2 0x168 PUSH1 0x0 DUP4 ADD DUP5 PUSH2 0x144 JUMP JUMPDEST SWAP3 SWAP2 POP POP JUMP JUMPDEST PUSH1 0x0 DUP2 MLOAD SWAP1 POP SWAP2 SWAP1 POP JUMP JUMPDEST PUSH1 0x0 DUP3 DUP3 MSTORE PUSH1 0x20 DUP3 ADD SWAP1 POP SWAP3 SWAP2 POP POP JUMP JUMPDEST PUSH1 0x0 JUMPDEST DUP4 DUP2 LT ISZERO PUSH2 0x1A8 JUMPI DUP1 DUP3 ADD MLOAD DUP2 DUP5 ADD MSTORE PUSH1 0x20 DUP2 ADD SWAP1 POP PUSH2 0x18D JUMP JUMPDEST DUP4 DUP2 GT ISZERO PUSH2 0x1B7 JUMPI PUSH1 0x0 DUP5 DUP5 ADD MSTORE JUMPDEST POP POP POP POP JUMP JUMPDEST PUSH1 0x0 PUSH1 0x1F NOT PUSH1 0x1F DUP4 ADD AND SWAP1 POP SWAP2 SWAP1 POP JUMP JUMPDEST PUSH1 0x0 PUSH2 0x1D9 DUP3 PUSH2 0x16E JUMP JUMPDEST PUSH2 0x1E3 DUP2 DUP6 PUSH2 0x179 JUMP JUMPDEST SWAP4 POP PUSH2 0x1F3 DUP2 DUP6 PUSH1 0x20 DUP7 ADD PUSH2 0x18A JUMP JUMPDEST PUSH2 0x1FC DUP2 PUSH2 0x1BD JUMP JUMPDEST DUP5 ADD SWAP2 POP POP SWAP3 SWAP2 POP POP JUMP JUMPDEST PUSH1 0x0 PUSH1 0x20 DUP3 ADD SWAP1 POP DUP2 DUP2 SUB PUSH1 0x0 DUP4 ADD MSTORE PUSH2 0x221 DUP2 DUP5 PUSH2 0x1CE JUMP JUMPDEST SWAP1 POP SWAP3 SWAP2 POP POP JUMP JUMPDEST PUSH1 0x0 DUP2 SWAP1 POP SWAP2 SWAP1 POP JUMP JUMPDEST PUSH2 0x23C DUP2 PUSH2 0x229 JUMP JUMPDEST DUP3 MSTORE POP POP JUMP JUMPDEST PUSH1 0x0 PUSH1 0x20 DUP3 ADD SWAP1 POP PUSH2 0x257 PUSH1 0x0 DUP4 ADD DUP5 PUSH2 0x233 JUMP JUMPDEST SWAP3 SWAP2 POP POP JUMP JUMPDEST PUSH32 0x4E487B7100000000000000000000000000000000000000000000000000000000 PUSH1 0x0 MSTORE PUSH1 0x22 PUSH1 0x4 MSTORE PUSH1 0x24 PUSH1 0x0 REVERT JUMPDEST PUSH1 0x0 PUSH1 0x2 DUP3 DIV SWAP1 POP PUSH1 0x1 DUP3 AND DUP1 PUSH2 0x2A4 JUMPI PUSH1 0x7F DUP3 AND SWAP2 POP JUMPDEST PUSH1 0x20 DUP3 LT DUP2 SUB PUSH2 0x2B7 JUMPI PUSH2 0x2B6 PUSH2 0x25D JUMP JUMPDEST JUMPDEST POP SWAP2 SWAP1 POP JUMP INVALID LOG2 PUSH5 0x6970667358 0x22 SLT KECCAK256 DUP10 PC PUSH28 0xE007A9DAB3A976652958FFB1F0F384C50759602E4269DE5421269EE2 SWAP5 PUSH5 0x736F6C6343 STOP ADDMOD 0xF STOP CALLER "
				},
				"gasEstimates": {
					"creation": {
						"codeDepositCost": "151000",
						"executionCost": "infinite",
						"totalCost": "infinite"
					},
					"external": {
						"c()": "infinite",
						"d()": "2407",
						"e()": "2451"
					}
				},
				"methodIdentifiers": {
					"c()": "c3da42b8",
					"d()": "8a054ac2",
					"e()": "ffae15ba"
				}
			},
			"storageLayout": {
				"storage": [
					{
						"astId": 8,
						"contract": "study/chapter03/abi.sol:testABI1",
						"label": "c",
						"offset": 0,
						"slot": "0",
						"type": "t_bytes_storage"
					},
					{
						"astId": 10,
						"contract": "study/chapter03/abi.sol:testABI1",
						"label": "d",
						"offset": 0,
						"slot": "1",
						"type": "t_uint256"
					},
					{
						"astId": 12,
						"contract": "study/chapter03/abi.sol:testABI1",
						"label": "e",
						"offset": 0,
						"slot": "2",
						"type": "t_int256"
					}
				],
				"types": {
					"t_bytes_storage": {
						"encoding": "bytes",
						"label": "bytes",
						"numberOfBytes": "32"
					},
					"t_int256": {
						"encoding": "inplace",
						"label": "int256",
						"numberOfBytes": "32"
					},
					"t_uint256": {
						"encoding": "inplace",
						"label": "uint256",
						"numberOfBytes": "32"
					}
				}
			},
			"userdoc": {
				"kind": "user",
				"methods": {},
				"version": 1
			}
		}
	}
}