{
	"study/chapter03/3delete.sol": {
		"DeleteExample": {
			"abi": [
				{
					"inputs": [],
					"name": "f",
					"outputs": [],
					"stateMutability": "nonpayable",
					"type": "function"
				}
			],
			"devdoc": {
				"kind": "dev",
				"methods": {},
				"version": 1
			},
			"evm": {
				"assembly": "    /* \"study/chapter03/3delete.sol\":56:311  contract DeleteExample {... */\n  mstore(0x40, 0x80)\n  callvalue\n  dup1\n  iszero\n  tag_1\n  jumpi\n  0x00\n  dup1\n  revert\ntag_1:\n  pop\n  dataSize(sub_0)\n  dup1\n  dataOffset(sub_0)\n  0x00\n  codecopy\n  0x00\n  return\nstop\n\nsub_0: assembly {\n        /* \"study/chapter03/3delete.sol\":56:311  contract DeleteExample {... */\n      mstore(0x40, 0x80)\n      callvalue\n      dup1\n      iszero\n      tag_1\n      jumpi\n      0x00\n      dup1\n      revert\n    tag_1:\n      pop\n      jumpi(tag_2, lt(calldatasize, 0x04))\n      shr(0xe0, calldataload(0x00))\n      dup1\n      0x26121ff0\n      eq\n      tag_3\n      jumpi\n    tag_2:\n      0x00\n      dup1\n      revert\n        /* \"study/chapter03/3delete.sol\":122:309  function f() public {... */\n    tag_3:\n      tag_4\n      tag_5\n      jump\t// in\n    tag_4:\n      stop\n    tag_5:\n        /* \"study/chapter03/3delete.sol\":152:158  uint x */\n      0x00\n        /* \"study/chapter03/3delete.sol\":161:165  data */\n      dup1\n      sload\n        /* \"study/chapter03/3delete.sol\":152:165  uint x = data */\n      swap1\n      pop\n        /* \"study/chapter03/3delete.sol\":175:183  delete x */\n      0x00\n      swap1\n      pop\n        /* \"study/chapter03/3delete.sol\":201:205  data */\n      0x00\n        /* \"study/chapter03/3delete.sol\":194:205  delete data */\n      dup1\n      sstore\n        /* \"study/chapter03/3delete.sol\":216:232  uint[] storage y */\n      0x00\n        /* \"study/chapter03/3delete.sol\":235:244  dataArray */\n      0x01\n        /* \"study/chapter03/3delete.sol\":216:244  uint[] storage y = dataArray */\n      swap1\n      pop\n        /* \"study/chapter03/3delete.sol\":261:270  dataArray */\n      0x01\n      0x00\n        /* \"study/chapter03/3delete.sol\":254:270  delete dataArray */\n      tag_7\n      swap2\n      swap1\n      tag_8\n      jump\t// in\n    tag_7:\n        /* \"study/chapter03/3delete.sol\":300:301  0 */\n      0x00\n        /* \"study/chapter03/3delete.sol\":288:289  y */\n      dup2\n        /* \"study/chapter03/3delete.sol\":288:296  y.length */\n      dup1\n      sload\n      swap1\n      pop\n        /* \"study/chapter03/3delete.sol\":288:301  y.length == 0 */\n      eq\n        /* \"study/chapter03/3delete.sol\":281:302  assert(y.length == 0) */\n      tag_9\n      jumpi\n      tag_10\n      tag_11\n      jump\t// in\n    tag_10:\n    tag_9:\n        /* \"study/chapter03/3delete.sol\":142:309  {... */\n      pop\n      pop\n        /* \"study/chapter03/3delete.sol\":122:309  function f() public {... */\n      jump\t// out\n    tag_8:\n      pop\n      dup1\n      sload\n      0x00\n      dup3\n      sstore\n      swap1\n      0x00\n      mstore\n      keccak256(0x00, 0x20)\n      swap1\n      dup2\n      add\n      swap1\n      tag_13\n      swap2\n      swap1\n      tag_14\n      jump\t// in\n    tag_13:\n      pop\n      jump\t// out\n    tag_14:\n    tag_15:\n      dup1\n      dup3\n      gt\n      iszero\n      tag_16\n      jumpi\n      0x00\n      dup2\n      0x00\n      swap1\n      sstore\n      pop\n      0x01\n      add\n      jump(tag_15)\n    tag_16:\n      pop\n      swap1\n      jump\t// out\n        /* \"#utility.yul\":7:187   */\n    tag_11:\n        /* \"#utility.yul\":55:132   */\n      0x4e487b7100000000000000000000000000000000000000000000000000000000\n        /* \"#utility.yul\":52:53   */\n      0x00\n        /* \"#utility.yul\":45:133   */\n      mstore\n        /* \"#utility.yul\":152:156   */\n      0x01\n        /* \"#utility.yul\":149:150   */\n      0x04\n        /* \"#utility.yul\":142:157   */\n      mstore\n        /* \"#utility.yul\":176:180   */\n      0x24\n        /* \"#utility.yul\":173:174   */\n      0x00\n        /* \"#utility.yul\":166:181   */\n      revert\n\n    auxdata: 0xa26469706673582212200986504b79042416c989907a63b7075f7735d07066a091883197ebd9c1640a3664736f6c63430008070033\n}\n",
				"bytecode": {
					"linkReferences": {},
					"object": "608060405234801561001057600080fd5b5061010a806100206000396000f3fe6080604052348015600f57600080fd5b506004361060285760003560e01c806326121ff014602d575b600080fd5b60336035565b005b60008054905060009050600080556000600190506001600060559190606b565b6000818054905014606757606660a5565b5b5050565b508054600082559060005260206000209081019060879190608a565b50565b5b8082111560a1576000816000905550600101608b565b5090565b7f4e487b7100000000000000000000000000000000000000000000000000000000600052600160045260246000fdfea26469706673582212200986504b79042416c989907a63b7075f7735d07066a091883197ebd9c1640a3664736f6c63430008070033",
					"opcodes": "PUSH1 0x80 PUSH1 0x40 MSTORE CALLVALUE DUP1 ISZERO PUSH2 0x10 JUMPI PUSH1 0x0 DUP1 REVERT JUMPDEST POP PUSH2 0x10A DUP1 PUSH2 0x20 PUSH1 0x0 CODECOPY PUSH1 0x0 RETURN INVALID PUSH1 0x80 PUSH1 0x40 MSTORE CALLVALUE DUP1 ISZERO PUSH1 0xF JUMPI PUSH1 0x0 DUP1 REVERT JUMPDEST POP PUSH1 0x4 CALLDATASIZE LT PUSH1 0x28 JUMPI PUSH1 0x0 CALLDATALOAD PUSH1 0xE0 SHR DUP1 PUSH4 0x26121FF0 EQ PUSH1 0x2D JUMPI JUMPDEST PUSH1 0x0 DUP1 REVERT JUMPDEST PUSH1 0x33 PUSH1 0x35 JUMP JUMPDEST STOP JUMPDEST PUSH1 0x0 DUP1 SLOAD SWAP1 POP PUSH1 0x0 SWAP1 POP PUSH1 0x0 DUP1 SSTORE PUSH1 0x0 PUSH1 0x1 SWAP1 POP PUSH1 0x1 PUSH1 0x0 PUSH1 0x55 SWAP2 SWAP1 PUSH1 0x6B JUMP JUMPDEST PUSH1 0x0 DUP2 DUP1 SLOAD SWAP1 POP EQ PUSH1 0x67 JUMPI PUSH1 0x66 PUSH1 0xA5 JUMP JUMPDEST JUMPDEST POP POP JUMP JUMPDEST POP DUP1 SLOAD PUSH1 0x0 DUP3 SSTORE SWAP1 PUSH1 0x0 MSTORE PUSH1 0x20 PUSH1 0x0 KECCAK256 SWAP1 DUP2 ADD SWAP1 PUSH1 0x87 SWAP2 SWAP1 PUSH1 0x8A JUMP JUMPDEST POP JUMP JUMPDEST JUMPDEST DUP1 DUP3 GT ISZERO PUSH1 0xA1 JUMPI PUSH1 0x0 DUP2 PUSH1 0x0 SWAP1 SSTORE POP PUSH1 0x1 ADD PUSH1 0x8B JUMP JUMPDEST POP SWAP1 JUMP JUMPDEST PUSH32 0x4E487B7100000000000000000000000000000000000000000000000000000000 PUSH1 0x0 MSTORE PUSH1 0x1 PUSH1 0x4 MSTORE PUSH1 0x24 PUSH1 0x0 REVERT INVALID LOG2 PUSH5 0x6970667358 0x22 SLT KECCAK256 MULMOD DUP7 POP 0x4B PUSH26 0x42416C989907A63B7075F7735D07066A091883197EBD9C1640A CALLDATASIZE PUSH5 0x736F6C6343 STOP ADDMOD SMOD STOP CALLER "
				},
				"gasEstimates": {
					"creation": {
						"codeDepositCost": "53200",
						"executionCost": "105",
						"totalCost": "53305"
					},
					"external": {
						"f()": "infinite"
					}
				},
				"methodIdentifiers": {
					"f()": "26121ff0"
				}
			},
			"storageLayout": {
				"storage": [
					{
						"astId": 3,
						"contract": "study/chapter03/3delete.sol:DeleteExample",
						"label": "data",
						"offset": 0,
						"slot": "0",
						"type": "t_uint256"
					},
					{
						"astId": 6,
						"contract": "study/chapter03/3delete.sol:DeleteExample",
						"label": "dataArray",
						"offset": 0,
						"slot": "1",
						"type": "t_array(t_uint256)dyn_storage"
					}
				],
				"types": {
					"t_array(t_uint256)dyn_storage": {
						"base": "t_uint256",
						"encoding": "dynamic_array",
						"label": "uint256[]",
						"numberOfBytes": "32"
					},
					"t_uint256": {
						"encoding": "inplace",
						"label": "uint256",
						"numberOfBytes": "32"
					}
				}
			},
			"userdoc": {
				"kind": "user",
				"methods": {},
				"version": 1
			}
		}
	}
}