{
	"contract/test.sol": {
		"test": {
			"abi": [
				{
					"inputs": [
						{
							"internalType": "uint256",
							"name": "",
							"type": "uint256"
						}
					],
					"name": "a",
					"outputs": [
						{
							"internalType": "bytes32",
							"name": "",
							"type": "bytes32"
						}
					],
					"stateMutability": "view",
					"type": "function"
				}
			],
			"devdoc": {
				"kind": "dev",
				"methods": {},
				"version": 1
			},
			"evm": {
				"assembly": "    /* \"contract/test.sol\":72:117  contract test{\r... */\n  mstore(0x40, 0x80)\n  callvalue\n  dup1\n  iszero\n  tag_1\n  jumpi\n  0x00\n  dup1\n  revert\ntag_1:\n  pop\n  dataSize(sub_0)\n  dup1\n  dataOffset(sub_0)\n  0x00\n  codecopy\n  0x00\n  return\nstop\n\nsub_0: assembly {\n        /* \"contract/test.sol\":72:117  contract test{\r... */\n      mstore(0x40, 0x80)\n      callvalue\n      dup1\n      iszero\n      tag_1\n      jumpi\n      0x00\n      dup1\n      revert\n    tag_1:\n      pop\n      jumpi(tag_2, lt(calldatasize, 0x04))\n      shr(0xe0, calldataload(0x00))\n      dup1\n      0xf0fdf834\n      eq\n      tag_3\n      jumpi\n    tag_2:\n      0x00\n      dup1\n      revert\n        /* \"contract/test.sol\":92:113  bytes32[2]   public a */\n    tag_3:\n      tag_4\n      0x04\n      dup1\n      calldatasize\n      sub\n      dup2\n      add\n      swap1\n      tag_5\n      swap2\n      swap1\n      tag_6\n      jump\t// in\n    tag_5:\n      tag_7\n      jump\t// in\n    tag_4:\n      mload(0x40)\n      tag_8\n      swap2\n      swap1\n      tag_9\n      jump\t// in\n    tag_8:\n      mload(0x40)\n      dup1\n      swap2\n      sub\n      swap1\n      return\n    tag_7:\n      0x00\n      dup2\n      0x02\n      dup2\n      lt\n      tag_10\n      jumpi\n      0x00\n      dup1\n      revert\n    tag_10:\n      add\n      0x00\n      swap2\n      pop\n      swap1\n      pop\n      sload\n      dup2\n      jump\t// out\n        /* \"#utility.yul\":7:146   */\n    tag_13:\n        /* \"#utility.yul\":53:58   */\n      0x00\n        /* \"#utility.yul\":91:97   */\n      dup2\n        /* \"#utility.yul\":78:98   */\n      calldataload\n        /* \"#utility.yul\":69:98   */\n      swap1\n      pop\n        /* \"#utility.yul\":107:140   */\n      tag_15\n        /* \"#utility.yul\":134:139   */\n      dup2\n        /* \"#utility.yul\":107:140   */\n      tag_16\n      jump\t// in\n    tag_15:\n        /* \"#utility.yul\":7:146   */\n      swap3\n      swap2\n      pop\n      pop\n      jump\t// out\n        /* \"#utility.yul\":152:481   */\n    tag_6:\n        /* \"#utility.yul\":211:217   */\n      0x00\n        /* \"#utility.yul\":260:262   */\n      0x20\n        /* \"#utility.yul\":248:257   */\n      dup3\n        /* \"#utility.yul\":239:246   */\n      dup5\n        /* \"#utility.yul\":235:258   */\n      sub\n        /* \"#utility.yul\":231:263   */\n      slt\n        /* \"#utility.yul\":228:347   */\n      iszero\n      tag_18\n      jumpi\n        /* \"#utility.yul\":266:345   */\n      tag_19\n      tag_20\n      jump\t// in\n    tag_19:\n        /* \"#utility.yul\":228:347   */\n    tag_18:\n        /* \"#utility.yul\":386:387   */\n      0x00\n        /* \"#utility.yul\":411:464   */\n      tag_21\n        /* \"#utility.yul\":456:463   */\n      dup5\n        /* \"#utility.yul\":447:453   */\n      dup3\n        /* \"#utility.yul\":436:445   */\n      dup6\n        /* \"#utility.yul\":432:454   */\n      add\n        /* \"#utility.yul\":411:464   */\n      tag_13\n      jump\t// in\n    tag_21:\n        /* \"#utility.yul\":401:464   */\n      swap2\n      pop\n        /* \"#utility.yul\":357:474   */\n      pop\n        /* \"#utility.yul\":152:481   */\n      swap3\n      swap2\n      pop\n      pop\n      jump\t// out\n        /* \"#utility.yul\":487:605   */\n    tag_22:\n        /* \"#utility.yul\":574:598   */\n      tag_24\n        /* \"#utility.yul\":592:597   */\n      dup2\n        /* \"#utility.yul\":574:598   */\n      tag_25\n      jump\t// in\n    tag_24:\n        /* \"#utility.yul\":569:572   */\n      dup3\n        /* \"#utility.yul\":562:599   */\n      mstore\n        /* \"#utility.yul\":487:605   */\n      pop\n      pop\n      jump\t// out\n        /* \"#utility.yul\":611:833   */\n    tag_9:\n        /* \"#utility.yul\":704:708   */\n      0x00\n        /* \"#utility.yul\":742:744   */\n      0x20\n        /* \"#utility.yul\":731:740   */\n      dup3\n        /* \"#utility.yul\":727:745   */\n      add\n        /* \"#utility.yul\":719:745   */\n      swap1\n      pop\n        /* \"#utility.yul\":755:826   */\n      tag_27\n        /* \"#utility.yul\":823:824   */\n      0x00\n        /* \"#utility.yul\":812:821   */\n      dup4\n        /* \"#utility.yul\":808:825   */\n      add\n        /* \"#utility.yul\":799:805   */\n      dup5\n        /* \"#utility.yul\":755:826   */\n      tag_22\n      jump\t// in\n    tag_27:\n        /* \"#utility.yul\":611:833   */\n      swap3\n      swap2\n      pop\n      pop\n      jump\t// out\n        /* \"#utility.yul\":920:997   */\n    tag_25:\n        /* \"#utility.yul\":957:964   */\n      0x00\n        /* \"#utility.yul\":986:991   */\n      dup2\n        /* \"#utility.yul\":975:991   */\n      swap1\n      pop\n        /* \"#utility.yul\":920:997   */\n      swap2\n      swap1\n      pop\n      jump\t// out\n        /* \"#utility.yul\":1003:1080   */\n    tag_31:\n        /* \"#utility.yul\":1040:1047   */\n      0x00\n        /* \"#utility.yul\":1069:1074   */\n      dup2\n        /* \"#utility.yul\":1058:1074   */\n      swap1\n      pop\n        /* \"#utility.yul\":1003:1080   */\n      swap2\n      swap1\n      pop\n      jump\t// out\n        /* \"#utility.yul\":1209:1326   */\n    tag_20:\n        /* \"#utility.yul\":1318:1319   */\n      0x00\n        /* \"#utility.yul\":1315:1316   */\n      dup1\n        /* \"#utility.yul\":1308:1320   */\n      revert\n        /* \"#utility.yul\":1332:1454   */\n    tag_16:\n        /* \"#utility.yul\":1405:1429   */\n      tag_37\n        /* \"#utility.yul\":1423:1428   */\n      dup2\n        /* \"#utility.yul\":1405:1429   */\n      tag_31\n      jump\t// in\n    tag_37:\n        /* \"#utility.yul\":1398:1403   */\n      dup2\n        /* \"#utility.yul\":1395:1430   */\n      eq\n        /* \"#utility.yul\":1385:1448   */\n      tag_38\n      jumpi\n        /* \"#utility.yul\":1444:1445   */\n      0x00\n        /* \"#utility.yul\":1441:1442   */\n      dup1\n        /* \"#utility.yul\":1434:1446   */\n      revert\n        /* \"#utility.yul\":1385:1448   */\n    tag_38:\n        /* \"#utility.yul\":1332:1454   */\n      pop\n      jump\t// out\n\n    auxdata: 0xa2646970667358221220cd6c4e6a314f8c18a862cf70ff0cb2f25c31abc8fe30f98a70f9a61f46d26c3464736f6c63430008070033\n}\n",
				"bytecode": {
					"linkReferences": {},
					"object": "608060405234801561001057600080fd5b5061014d806100206000396000f3fe608060405234801561001057600080fd5b506004361061002b5760003560e01c8063f0fdf83414610030575b600080fd5b61004a60048036038101906100459190610090565b610060565b60405161005791906100cc565b60405180910390f35b6000816002811061007057600080fd5b016000915090505481565b60008135905061008a81610100565b92915050565b6000602082840312156100a6576100a56100fb565b5b60006100b48482850161007b565b91505092915050565b6100c6816100e7565b82525050565b60006020820190506100e160008301846100bd565b92915050565b6000819050919050565b6000819050919050565b600080fd5b610109816100f1565b811461011457600080fd5b5056fea2646970667358221220cd6c4e6a314f8c18a862cf70ff0cb2f25c31abc8fe30f98a70f9a61f46d26c3464736f6c63430008070033",
					"opcodes": "PUSH1 0x80 PUSH1 0x40 MSTORE CALLVALUE DUP1 ISZERO PUSH2 0x10 JUMPI PUSH1 0x0 DUP1 REVERT JUMPDEST POP PUSH2 0x14D DUP1 PUSH2 0x20 PUSH1 0x0 CODECOPY PUSH1 0x0 RETURN INVALID PUSH1 0x80 PUSH1 0x40 MSTORE CALLVALUE DUP1 ISZERO PUSH2 0x10 JUMPI PUSH1 0x0 DUP1 REVERT JUMPDEST POP PUSH1 0x4 CALLDATASIZE LT PUSH2 0x2B JUMPI PUSH1 0x0 CALLDATALOAD PUSH1 0xE0 SHR DUP1 PUSH4 0xF0FDF834 EQ PUSH2 0x30 JUMPI JUMPDEST PUSH1 0x0 DUP1 REVERT JUMPDEST PUSH2 0x4A PUSH1 0x4 DUP1 CALLDATASIZE SUB DUP2 ADD SWAP1 PUSH2 0x45 SWAP2 SWAP1 PUSH2 0x90 JUMP JUMPDEST PUSH2 0x60 JUMP JUMPDEST PUSH1 0x40 MLOAD PUSH2 0x57 SWAP2 SWAP1 PUSH2 0xCC JUMP JUMPDEST PUSH1 0x40 MLOAD DUP1 SWAP2 SUB SWAP1 RETURN JUMPDEST PUSH1 0x0 DUP2 PUSH1 0x2 DUP2 LT PUSH2 0x70 JUMPI PUSH1 0x0 DUP1 REVERT JUMPDEST ADD PUSH1 0x0 SWAP2 POP SWAP1 POP SLOAD DUP2 JUMP JUMPDEST PUSH1 0x0 DUP2 CALLDATALOAD SWAP1 POP PUSH2 0x8A DUP2 PUSH2 0x100 JUMP JUMPDEST SWAP3 SWAP2 POP POP JUMP JUMPDEST PUSH1 0x0 PUSH1 0x20 DUP3 DUP5 SUB SLT ISZERO PUSH2 0xA6 JUMPI PUSH2 0xA5 PUSH2 0xFB JUMP JUMPDEST JUMPDEST PUSH1 0x0 PUSH2 0xB4 DUP5 DUP3 DUP6 ADD PUSH2 0x7B JUMP JUMPDEST SWAP2 POP POP SWAP3 SWAP2 POP POP JUMP JUMPDEST PUSH2 0xC6 DUP2 PUSH2 0xE7 JUMP JUMPDEST DUP3 MSTORE POP POP JUMP JUMPDEST PUSH1 0x0 PUSH1 0x20 DUP3 ADD SWAP1 POP PUSH2 0xE1 PUSH1 0x0 DUP4 ADD DUP5 PUSH2 0xBD JUMP JUMPDEST SWAP3 SWAP2 POP POP JUMP JUMPDEST PUSH1 0x0 DUP2 SWAP1 POP SWAP2 SWAP1 POP JUMP JUMPDEST PUSH1 0x0 DUP2 SWAP1 POP SWAP2 SWAP1 POP JUMP JUMPDEST PUSH1 0x0 DUP1 REVERT JUMPDEST PUSH2 0x109 DUP2 PUSH2 0xF1 JUMP JUMPDEST DUP2 EQ PUSH2 0x114 JUMPI PUSH1 0x0 DUP1 REVERT JUMPDEST POP JUMP INVALID LOG2 PUSH5 0x6970667358 0x22 SLT KECCAK256 0xCD PUSH13 0x4E6A314F8C18A862CF70FF0CB2 CALLCODE 0x5C BALANCE 0xAB 0xC8 INVALID ADDRESS 0xF9 DUP11 PUSH17 0xF9A61F46D26C3464736F6C634300080700 CALLER "
				},
				"gasEstimates": {
					"creation": {
						"codeDepositCost": "66600",
						"executionCost": "117",
						"totalCost": "66717"
					},
					"external": {
						"a(uint256)": "2709"
					}
				},
				"methodIdentifiers": {
					"a(uint256)": "f0fdf834"
				}
			},
			"storageLayout": {
				"storage": [
					{
						"astId": 5,
						"contract": "contract/test.sol:test",
						"label": "a",
						"offset": 0,
						"slot": "0",
						"type": "t_array(t_bytes32)2_storage"
					}
				],
				"types": {
					"t_array(t_bytes32)2_storage": {
						"base": "t_bytes32",
						"encoding": "inplace",
						"label": "bytes32[2]",
						"numberOfBytes": "64"
					},
					"t_bytes32": {
						"encoding": "inplace",
						"label": "bytes32",
						"numberOfBytes": "32"
					}
				}
			},
			"userdoc": {
				"kind": "user",
				"methods": {},
				"version": 1
			}
		}
	}
}