{
	"contract/BlindAuction.sol": {
		"BlindAuction": {
			"abi": [
				{
					"inputs": [
						{
							"internalType": "uint256",
							"name": "biddingTime",
							"type": "uint256"
						},
						{
							"internalType": "uint256",
							"name": "revealTime",
							"type": "uint256"
						},
						{
							"internalType": "address payable",
							"name": "beneficiaryAddress",
							"type": "address"
						}
					],
					"stateMutability": "nonpayable",
					"type": "constructor"
				},
				{
					"inputs": [],
					"name": "AuctionEndAlreadyCalled",
					"type": "error"
				},
				{
					"inputs": [
						{
							"internalType": "uint256",
							"name": "time",
							"type": "uint256"
						}
					],
					"name": "TooEarly",
					"type": "error"
				},
				{
					"inputs": [
						{
							"internalType": "uint256",
							"name": "time",
							"type": "uint256"
						}
					],
					"name": "TooLate",
					"type": "error"
				},
				{
					"anonymous": false,
					"inputs": [
						{
							"indexed": false,
							"internalType": "address",
							"name": "winner",
							"type": "address"
						},
						{
							"indexed": false,
							"internalType": "uint256",
							"name": "highestBid",
							"type": "uint256"
						}
					],
					"name": "AuctionEnded",
					"type": "event"
				},
				{
					"inputs": [],
					"name": "auctionEnd",
					"outputs": [],
					"stateMutability": "nonpayable",
					"type": "function"
				},
				{
					"inputs": [],
					"name": "beneficiary",
					"outputs": [
						{
							"internalType": "address payable",
							"name": "",
							"type": "address"
						}
					],
					"stateMutability": "view",
					"type": "function"
				},
				{
					"inputs": [
						{
							"internalType": "bytes32",
							"name": "blindedBid",
							"type": "bytes32"
						}
					],
					"name": "bid",
					"outputs": [],
					"stateMutability": "payable",
					"type": "function"
				},
				{
					"inputs": [],
					"name": "biddingEnd",
					"outputs": [
						{
							"internalType": "uint256",
							"name": "",
							"type": "uint256"
						}
					],
					"stateMutability": "view",
					"type": "function"
				},
				{
					"inputs": [
						{
							"internalType": "address",
							"name": "",
							"type": "address"
						},
						{
							"internalType": "uint256",
							"name": "",
							"type": "uint256"
						}
					],
					"name": "bids",
					"outputs": [
						{
							"internalType": "bytes32",
							"name": "blindedBid",
							"type": "bytes32"
						},
						{
							"internalType": "uint256",
							"name": "deposit",
							"type": "uint256"
						}
					],
					"stateMutability": "view",
					"type": "function"
				},
				{
					"inputs": [],
					"name": "ended",
					"outputs": [
						{
							"internalType": "bool",
							"name": "",
							"type": "bool"
						}
					],
					"stateMutability": "view",
					"type": "function"
				},
				{
					"inputs": [],
					"name": "highestBid",
					"outputs": [
						{
							"internalType": "uint256",
							"name": "",
							"type": "uint256"
						}
					],
					"stateMutability": "view",
					"type": "function"
				},
				{
					"inputs": [],
					"name": "highestBidder",
					"outputs": [
						{
							"internalType": "address",
							"name": "",
							"type": "address"
						}
					],
					"stateMutability": "view",
					"type": "function"
				},
				{
					"inputs": [
						{
							"internalType": "uint256",
							"name": "value",
							"type": "uint256"
						},
						{
							"internalType": "bool",
							"name": "fake",
							"type": "bool"
						},
						{
							"internalType": "bytes32",
							"name": "secret",
							"type": "bytes32"
						}
					],
					"name": "myBiddData",
					"outputs": [
						{
							"internalType": "bytes32",
							"name": "blindedBid",
							"type": "bytes32"
						}
					],
					"stateMutability": "pure",
					"type": "function"
				},
				{
					"inputs": [
						{
							"internalType": "uint256[]",
							"name": "values",
							"type": "uint256[]"
						},
						{
							"internalType": "bool[]",
							"name": "fakes",
							"type": "bool[]"
						},
						{
							"internalType": "bytes32[]",
							"name": "secrets",
							"type": "bytes32[]"
						}
					],
					"name": "reveal",
					"outputs": [],
					"stateMutability": "nonpayable",
					"type": "function"
				},
				{
					"inputs": [],
					"name": "revealEnd",
					"outputs": [
						{
							"internalType": "uint256",
							"name": "",
							"type": "uint256"
						}
					],
					"stateMutability": "view",
					"type": "function"
				},
				{
					"inputs": [],
					"name": "withdraw",
					"outputs": [],
					"stateMutability": "nonpayable",
					"type": "function"
				}
			],
			"devdoc": {
				"kind": "dev",
				"methods": {},
				"version": 1
			},
			"evm": {
				"assembly": "    /* \"contract/BlindAuction.sol\":62:4701  contract BlindAuction {\r... */\n  mstore(0x40, 0x80)\n    /* \"contract/BlindAuction.sol\":1208:1475  constructor(\r... */\n  callvalue\n  dup1\n  iszero\n  tag_1\n  jumpi\n  0x00\n  dup1\n  revert\ntag_1:\n  pop\n  mload(0x40)\n  sub(codesize, bytecodeSize)\n  dup1\n  bytecodeSize\n  dup4\n  codecopy\n  dup2\n  dup2\n  add\n  0x40\n  mstore\n  dup2\n  add\n  swap1\n  tag_2\n  swap2\n  swap1\n  tag_3\n  jump\t// in\ntag_2:\n    /* \"contract/BlindAuction.sol\":1350:1368  beneficiaryAddress */\n  dup1\n    /* \"contract/BlindAuction.sol\":1336:1347  beneficiary */\n  0x00\n  dup1\n    /* \"contract/BlindAuction.sol\":1336:1368  beneficiary = beneficiaryAddress */\n  0x0100\n  exp\n  dup2\n  sload\n  dup2\n  0xffffffffffffffffffffffffffffffffffffffff\n  mul\n  not\n  and\n  swap1\n  dup4\n  0xffffffffffffffffffffffffffffffffffffffff\n  and\n  mul\n  or\n  swap1\n  sstore\n  pop\n    /* \"contract/BlindAuction.sol\":1410:1421  biddingTime */\n  dup3\n    /* \"contract/BlindAuction.sol\":1392:1407  block.timestamp */\n  timestamp\n    /* \"contract/BlindAuction.sol\":1392:1421  block.timestamp + biddingTime */\n  tag_6\n  swap2\n  swap1\n  tag_7\n  jump\t// in\ntag_6:\n    /* \"contract/BlindAuction.sol\":1379:1389  biddingEnd */\n  0x01\n    /* \"contract/BlindAuction.sol\":1379:1421  biddingEnd = block.timestamp + biddingTime */\n  dup2\n  swap1\n  sstore\n  pop\n    /* \"contract/BlindAuction.sol\":1457:1467  revealTime */\n  dup2\n    /* \"contract/BlindAuction.sol\":1444:1454  biddingEnd */\n  sload(0x01)\n    /* \"contract/BlindAuction.sol\":1444:1467  biddingEnd + revealTime */\n  tag_8\n  swap2\n  swap1\n  tag_7\n  jump\t// in\ntag_8:\n    /* \"contract/BlindAuction.sol\":1432:1441  revealEnd */\n  0x02\n    /* \"contract/BlindAuction.sol\":1432:1467  revealEnd = biddingEnd + revealTime */\n  dup2\n  swap1\n  sstore\n  pop\n    /* \"contract/BlindAuction.sol\":1208:1475  constructor(\r... */\n  pop\n  pop\n  pop\n    /* \"contract/BlindAuction.sol\":62:4701  contract BlindAuction {\r... */\n  jump(tag_9)\n    /* \"#utility.yul\":7:166   */\ntag_11:\n    /* \"#utility.yul\":72:77   */\n  0x00\n    /* \"#utility.yul\":103:109   */\n  dup2\n    /* \"#utility.yul\":97:110   */\n  mload\n    /* \"#utility.yul\":88:110   */\n  swap1\n  pop\n    /* \"#utility.yul\":119:160   */\n  tag_13\n    /* \"#utility.yul\":154:159   */\n  dup2\n    /* \"#utility.yul\":119:160   */\n  tag_14\n  jump\t// in\ntag_13:\n    /* \"#utility.yul\":7:166   */\n  swap3\n  swap2\n  pop\n  pop\n  jump\t// out\n    /* \"#utility.yul\":172:315   */\ntag_15:\n    /* \"#utility.yul\":229:234   */\n  0x00\n    /* \"#utility.yul\":260:266   */\n  dup2\n    /* \"#utility.yul\":254:267   */\n  mload\n    /* \"#utility.yul\":245:267   */\n  swap1\n  pop\n    /* \"#utility.yul\":276:309   */\n  tag_17\n    /* \"#utility.yul\":303:308   */\n  dup2\n    /* \"#utility.yul\":276:309   */\n  tag_18\n  jump\t// in\ntag_17:\n    /* \"#utility.yul\":172:315   */\n  swap3\n  swap2\n  pop\n  pop\n  jump\t// out\n    /* \"#utility.yul\":321:1000   */\ntag_3:\n    /* \"#utility.yul\":417:423   */\n  0x00\n    /* \"#utility.yul\":425:431   */\n  dup1\n    /* \"#utility.yul\":433:439   */\n  0x00\n    /* \"#utility.yul\":482:484   */\n  0x60\n    /* \"#utility.yul\":470:479   */\n  dup5\n    /* \"#utility.yul\":461:468   */\n  dup7\n    /* \"#utility.yul\":457:480   */\n  sub\n    /* \"#utility.yul\":453:485   */\n  slt\n    /* \"#utility.yul\":450:569   */\n  iszero\n  tag_20\n  jumpi\n    /* \"#utility.yul\":488:567   */\n  tag_21\n  tag_22\n  jump\t// in\ntag_21:\n    /* \"#utility.yul\":450:569   */\ntag_20:\n    /* \"#utility.yul\":608:609   */\n  0x00\n    /* \"#utility.yul\":633:697   */\n  tag_23\n    /* \"#utility.yul\":689:696   */\n  dup7\n    /* \"#utility.yul\":680:686   */\n  dup3\n    /* \"#utility.yul\":669:678   */\n  dup8\n    /* \"#utility.yul\":665:687   */\n  add\n    /* \"#utility.yul\":633:697   */\n  tag_15\n  jump\t// in\ntag_23:\n    /* \"#utility.yul\":623:697   */\n  swap4\n  pop\n    /* \"#utility.yul\":579:707   */\n  pop\n    /* \"#utility.yul\":746:748   */\n  0x20\n    /* \"#utility.yul\":772:836   */\n  tag_24\n    /* \"#utility.yul\":828:835   */\n  dup7\n    /* \"#utility.yul\":819:825   */\n  dup3\n    /* \"#utility.yul\":808:817   */\n  dup8\n    /* \"#utility.yul\":804:826   */\n  add\n    /* \"#utility.yul\":772:836   */\n  tag_15\n  jump\t// in\ntag_24:\n    /* \"#utility.yul\":762:836   */\n  swap3\n  pop\n    /* \"#utility.yul\":717:846   */\n  pop\n    /* \"#utility.yul\":885:887   */\n  0x40\n    /* \"#utility.yul\":911:983   */\n  tag_25\n    /* \"#utility.yul\":975:982   */\n  dup7\n    /* \"#utility.yul\":966:972   */\n  dup3\n    /* \"#utility.yul\":955:964   */\n  dup8\n    /* \"#utility.yul\":951:973   */\n  add\n    /* \"#utility.yul\":911:983   */\n  tag_11\n  jump\t// in\ntag_25:\n    /* \"#utility.yul\":901:983   */\n  swap2\n  pop\n    /* \"#utility.yul\":856:993   */\n  pop\n    /* \"#utility.yul\":321:1000   */\n  swap3\n  pop\n  swap3\n  pop\n  swap3\n  jump\t// out\n    /* \"#utility.yul\":1087:1392   */\ntag_7:\n    /* \"#utility.yul\":1127:1130   */\n  0x00\n    /* \"#utility.yul\":1146:1166   */\n  tag_29\n    /* \"#utility.yul\":1164:1165   */\n  dup3\n    /* \"#utility.yul\":1146:1166   */\n  tag_30\n  jump\t// in\ntag_29:\n    /* \"#utility.yul\":1141:1166   */\n  swap2\n  pop\n    /* \"#utility.yul\":1180:1200   */\n  tag_31\n    /* \"#utility.yul\":1198:1199   */\n  dup4\n    /* \"#utility.yul\":1180:1200   */\n  tag_30\n  jump\t// in\ntag_31:\n    /* \"#utility.yul\":1175:1200   */\n  swap3\n  pop\n    /* \"#utility.yul\":1334:1335   */\n  dup3\n    /* \"#utility.yul\":1266:1332   */\n  0xffffffffffffffffffffffffffffffffffffffffffffffffffffffffffffffff\n    /* \"#utility.yul\":1262:1336   */\n  sub\n    /* \"#utility.yul\":1259:1260   */\n  dup3\n    /* \"#utility.yul\":1256:1337   */\n  gt\n    /* \"#utility.yul\":1253:1360   */\n  iszero\n  tag_32\n  jumpi\n    /* \"#utility.yul\":1340:1358   */\n  tag_33\n  tag_34\n  jump\t// in\ntag_33:\n    /* \"#utility.yul\":1253:1360   */\ntag_32:\n    /* \"#utility.yul\":1384:1385   */\n  dup3\n    /* \"#utility.yul\":1381:1382   */\n  dup3\n    /* \"#utility.yul\":1377:1386   */\n  add\n    /* \"#utility.yul\":1370:1386   */\n  swap1\n  pop\n    /* \"#utility.yul\":1087:1392   */\n  swap3\n  swap2\n  pop\n  pop\n  jump\t// out\n    /* \"#utility.yul\":1398:1502   */\ntag_35:\n    /* \"#utility.yul\":1443:1450   */\n  0x00\n    /* \"#utility.yul\":1472:1496   */\n  tag_37\n    /* \"#utility.yul\":1490:1495   */\n  dup3\n    /* \"#utility.yul\":1472:1496   */\n  tag_38\n  jump\t// in\ntag_37:\n    /* \"#utility.yul\":1461:1496   */\n  swap1\n  pop\n    /* \"#utility.yul\":1398:1502   */\n  swap2\n  swap1\n  pop\n  jump\t// out\n    /* \"#utility.yul\":1508:1634   */\ntag_38:\n    /* \"#utility.yul\":1545:1552   */\n  0x00\n    /* \"#utility.yul\":1585:1627   */\n  0xffffffffffffffffffffffffffffffffffffffff\n    /* \"#utility.yul\":1578:1583   */\n  dup3\n    /* \"#utility.yul\":1574:1628   */\n  and\n    /* \"#utility.yul\":1563:1628   */\n  swap1\n  pop\n    /* \"#utility.yul\":1508:1634   */\n  swap2\n  swap1\n  pop\n  jump\t// out\n    /* \"#utility.yul\":1640:1717   */\ntag_30:\n    /* \"#utility.yul\":1677:1684   */\n  0x00\n    /* \"#utility.yul\":1706:1711   */\n  dup2\n    /* \"#utility.yul\":1695:1711   */\n  swap1\n  pop\n    /* \"#utility.yul\":1640:1717   */\n  swap2\n  swap1\n  pop\n  jump\t// out\n    /* \"#utility.yul\":1723:1903   */\ntag_34:\n    /* \"#utility.yul\":1771:1848   */\n  0x4e487b7100000000000000000000000000000000000000000000000000000000\n    /* \"#utility.yul\":1768:1769   */\n  0x00\n    /* \"#utility.yul\":1761:1849   */\n  mstore\n    /* \"#utility.yul\":1868:1872   */\n  0x11\n    /* \"#utility.yul\":1865:1866   */\n  0x04\n    /* \"#utility.yul\":1858:1873   */\n  mstore\n    /* \"#utility.yul\":1892:1896   */\n  0x24\n    /* \"#utility.yul\":1889:1890   */\n  0x00\n    /* \"#utility.yul\":1882:1897   */\n  revert\n    /* \"#utility.yul\":2032:2149   */\ntag_22:\n    /* \"#utility.yul\":2141:2142   */\n  0x00\n    /* \"#utility.yul\":2138:2139   */\n  dup1\n    /* \"#utility.yul\":2131:2143   */\n  revert\n    /* \"#utility.yul\":2155:2293   */\ntag_14:\n    /* \"#utility.yul\":2236:2268   */\n  tag_46\n    /* \"#utility.yul\":2262:2267   */\n  dup2\n    /* \"#utility.yul\":2236:2268   */\n  tag_35\n  jump\t// in\ntag_46:\n    /* \"#utility.yul\":2229:2234   */\n  dup2\n    /* \"#utility.yul\":2226:2269   */\n  eq\n    /* \"#utility.yul\":2216:2287   */\n  tag_47\n  jumpi\n    /* \"#utility.yul\":2283:2284   */\n  0x00\n    /* \"#utility.yul\":2280:2281   */\n  dup1\n    /* \"#utility.yul\":2273:2285   */\n  revert\n    /* \"#utility.yul\":2216:2287   */\ntag_47:\n    /* \"#utility.yul\":2155:2293   */\n  pop\n  jump\t// out\n    /* \"#utility.yul\":2299:2421   */\ntag_18:\n    /* \"#utility.yul\":2372:2396   */\n  tag_49\n    /* \"#utility.yul\":2390:2395   */\n  dup2\n    /* \"#utility.yul\":2372:2396   */\n  tag_30\n  jump\t// in\ntag_49:\n    /* \"#utility.yul\":2365:2370   */\n  dup2\n    /* \"#utility.yul\":2362:2397   */\n  eq\n    /* \"#utility.yul\":2352:2415   */\n  tag_50\n  jumpi\n    /* \"#utility.yul\":2411:2412   */\n  0x00\n    /* \"#utility.yul\":2408:2409   */\n  dup1\n    /* \"#utility.yul\":2401:2413   */\n  revert\n    /* \"#utility.yul\":2352:2415   */\ntag_50:\n    /* \"#utility.yul\":2299:2421   */\n  pop\n  jump\t// out\n    /* \"contract/BlindAuction.sol\":62:4701  contract BlindAuction {\r... */\ntag_9:\n  dataSize(sub_0)\n  dup1\n  dataOffset(sub_0)\n  0x00\n  codecopy\n  0x00\n  return\nstop\n\nsub_0: assembly {\n        /* \"contract/BlindAuction.sol\":62:4701  contract BlindAuction {\r... */\n      mstore(0x40, 0x80)\n      jumpi(tag_1, lt(calldatasize, 0x04))\n      shr(0xe0, calldataload(0x00))\n      dup1\n      0x62f3db77\n      gt\n      tag_14\n      jumpi\n      dup1\n      0x62f3db77\n      eq\n      tag_8\n      jumpi\n      dup1\n      0x900f080a\n      eq\n      tag_9\n      jumpi\n      dup1\n      0x91f90157\n      eq\n      tag_10\n      jumpi\n      dup1\n      0x957bb1e0\n      eq\n      tag_11\n      jumpi\n      dup1\n      0xa6e66477\n      eq\n      tag_12\n      jumpi\n      dup1\n      0xd57bde79\n      eq\n      tag_13\n      jumpi\n      jump(tag_1)\n    tag_14:\n      dup1\n      0x01495c1c\n      eq\n      tag_2\n      jumpi\n      dup1\n      0x12fa6feb\n      eq\n      tag_3\n      jumpi\n      dup1\n      0x2a24f46c\n      eq\n      tag_4\n      jumpi\n      dup1\n      0x38af3eed\n      eq\n      tag_5\n      jumpi\n      dup1\n      0x3ccfd60b\n      eq\n      tag_6\n      jumpi\n      dup1\n      0x423b217f\n      eq\n      tag_7\n      jumpi\n    tag_1:\n      0x00\n      dup1\n      revert\n        /* \"contract/BlindAuction.sol\":441:478  mapping(address => Bid[]) public bids */\n    tag_2:\n      callvalue\n      dup1\n      iszero\n      tag_15\n      jumpi\n      0x00\n      dup1\n      revert\n    tag_15:\n      pop\n      tag_16\n      0x04\n      dup1\n      calldatasize\n      sub\n      dup2\n      add\n      swap1\n      tag_17\n      swap2\n      swap1\n      tag_18\n      jump\t// in\n    tag_17:\n      tag_19\n      jump\t// in\n    tag_16:\n      mload(0x40)\n      tag_20\n      swap3\n      swap2\n      swap1\n      tag_21\n      jump\t// in\n    tag_20:\n      mload(0x40)\n      dup1\n      swap2\n      sub\n      swap1\n      return\n        /* \"contract/BlindAuction.sol\":361:378  bool public ended */\n    tag_3:\n      callvalue\n      dup1\n      iszero\n      tag_22\n      jumpi\n      0x00\n      dup1\n      revert\n    tag_22:\n      pop\n      tag_23\n      tag_24\n      jump\t// in\n    tag_23:\n      mload(0x40)\n      tag_25\n      swap2\n      swap1\n      tag_26\n      jump\t// in\n    tag_25:\n      mload(0x40)\n      dup1\n      swap2\n      sub\n      swap1\n      return\n        /* \"contract/BlindAuction.sol\":3994:4227  function auctionEnd()external onlyAfter(revealEnd){\r... */\n    tag_4:\n      callvalue\n      dup1\n      iszero\n      tag_27\n      jumpi\n      0x00\n      dup1\n      revert\n    tag_27:\n      pop\n      tag_28\n      tag_29\n      jump\t// in\n    tag_28:\n      stop\n        /* \"contract/BlindAuction.sol\":221:255  address payable public beneficiary */\n    tag_5:\n      callvalue\n      dup1\n      iszero\n      tag_30\n      jumpi\n      0x00\n      dup1\n      revert\n    tag_30:\n      pop\n      tag_31\n      tag_32\n      jump\t// in\n    tag_31:\n      mload(0x40)\n      tag_33\n      swap2\n      swap1\n      tag_34\n      jump\t// in\n    tag_33:\n      mload(0x40)\n      dup1\n      swap2\n      sub\n      swap1\n      return\n        /* \"contract/BlindAuction.sol\":3409:3907  function withdraw() external {\r... */\n    tag_6:\n      callvalue\n      dup1\n      iszero\n      tag_35\n      jumpi\n      0x00\n      dup1\n      revert\n    tag_35:\n      pop\n      tag_36\n      tag_37\n      jump\t// in\n    tag_36:\n      stop\n        /* \"contract/BlindAuction.sol\":271:293  uint public biddingEnd */\n    tag_7:\n      callvalue\n      dup1\n      iszero\n      tag_38\n      jumpi\n      0x00\n      dup1\n      revert\n    tag_38:\n      pop\n      tag_39\n      tag_40\n      jump\t// in\n    tag_39:\n      mload(0x40)\n      tag_41\n      swap2\n      swap1\n      tag_42\n      jump\t// in\n    tag_41:\n      mload(0x40)\n      dup1\n      swap2\n      sub\n      swap1\n      return\n        /* \"contract/BlindAuction.sol\":1696:1871  function myBiddData(uint value,bool fake,bytes32 secret)external pure returns(bytes32 blindedBid){\r... */\n    tag_8:\n      callvalue\n      dup1\n      iszero\n      tag_43\n      jumpi\n      0x00\n      dup1\n      revert\n    tag_43:\n      pop\n      tag_44\n      0x04\n      dup1\n      calldatasize\n      sub\n      dup2\n      add\n      swap1\n      tag_45\n      swap2\n      swap1\n      tag_46\n      jump\t// in\n    tag_45:\n      tag_47\n      jump\t// in\n    tag_44:\n      mload(0x40)\n      tag_48\n      swap2\n      swap1\n      tag_49\n      jump\t// in\n    tag_48:\n      mload(0x40)\n      dup1\n      swap2\n      sub\n      swap1\n      return\n        /* \"contract/BlindAuction.sol\":1924:3359  function reveal( uint[] calldata values,bool[] calldata fakes, bytes32[] calldata secrets) external onlyAfter(biddingEnd) onlyBefore(revealEnd){\r... */\n    tag_9:\n      callvalue\n      dup1\n      iszero\n      tag_50\n      jumpi\n      0x00\n      dup1\n      revert\n    tag_50:\n      pop\n      tag_51\n      0x04\n      dup1\n      calldatasize\n      sub\n      dup2\n      add\n      swap1\n      tag_52\n      swap2\n      swap1\n      tag_53\n      jump\t// in\n    tag_52:\n      tag_54\n      jump\t// in\n    tag_51:\n      stop\n        /* \"contract/BlindAuction.sol\":511:539  address public highestBidder */\n    tag_10:\n      callvalue\n      dup1\n      iszero\n      tag_55\n      jumpi\n      0x00\n      dup1\n      revert\n    tag_55:\n      pop\n      tag_56\n      tag_57\n      jump\t// in\n    tag_56:\n      mload(0x40)\n      tag_58\n      swap2\n      swap1\n      tag_59\n      jump\t// in\n    tag_58:\n      mload(0x40)\n      dup1\n      swap2\n      sub\n      swap1\n      return\n        /* \"contract/BlindAuction.sol\":1489:1688  function bid(bytes32 blindedBid)external payable onlyBefore(biddingEnd){\r... */\n    tag_11:\n      tag_60\n      0x04\n      dup1\n      calldatasize\n      sub\n      dup2\n      add\n      swap1\n      tag_61\n      swap2\n      swap1\n      tag_62\n      jump\t// in\n    tag_61:\n      tag_63\n      jump\t// in\n    tag_60:\n      stop\n        /* \"contract/BlindAuction.sol\":306:327  uint public revealEnd */\n    tag_12:\n      callvalue\n      dup1\n      iszero\n      tag_64\n      jumpi\n      0x00\n      dup1\n      revert\n    tag_64:\n      pop\n      tag_65\n      tag_66\n      jump\t// in\n    tag_65:\n      mload(0x40)\n      tag_67\n      swap2\n      swap1\n      tag_42\n      jump\t// in\n    tag_67:\n      mload(0x40)\n      dup1\n      swap2\n      sub\n      swap1\n      return\n        /* \"contract/BlindAuction.sol\":573:595  uint public highestBid */\n    tag_13:\n      callvalue\n      dup1\n      iszero\n      tag_68\n      jumpi\n      0x00\n      dup1\n      revert\n    tag_68:\n      pop\n      tag_69\n      tag_70\n      jump\t// in\n    tag_69:\n      mload(0x40)\n      tag_71\n      swap2\n      swap1\n      tag_42\n      jump\t// in\n    tag_71:\n      mload(0x40)\n      dup1\n      swap2\n      sub\n      swap1\n      return\n        /* \"contract/BlindAuction.sol\":441:478  mapping(address => Bid[]) public bids */\n    tag_19:\n      mstore(0x20, 0x04)\n      dup2\n      0x00\n      mstore\n      keccak256(0x00, 0x40)\n      dup2\n      dup2\n      sload\n      dup2\n      lt\n      tag_72\n      jumpi\n      0x00\n      dup1\n      revert\n    tag_72:\n      swap1\n      0x00\n      mstore\n      keccak256(0x00, 0x20)\n      swap1\n      0x02\n      mul\n      add\n      0x00\n      swap2\n      pop\n      swap2\n      pop\n      pop\n      dup1\n      0x00\n      add\n      sload\n      swap1\n      dup1\n      0x01\n      add\n      sload\n      swap1\n      pop\n      dup3\n      jump\t// out\n        /* \"contract/BlindAuction.sol\":361:378  bool public ended */\n    tag_24:\n      0x03\n      0x00\n      swap1\n      sload\n      swap1\n      0x0100\n      exp\n      swap1\n      div\n      0xff\n      and\n      dup2\n      jump\t// out\n        /* \"contract/BlindAuction.sol\":3994:4227  function auctionEnd()external onlyAfter(revealEnd){\r... */\n    tag_29:\n        /* \"contract/BlindAuction.sol\":4034:4043  revealEnd */\n      sload(0x02)\n        /* \"contract/BlindAuction.sol\":1120:1124  time */\n      dup1\n        /* \"contract/BlindAuction.sol\":1101:1116  block.timestamp */\n      timestamp\n        /* \"contract/BlindAuction.sol\":1101:1124  block.timestamp <= time */\n      gt\n        /* \"contract/BlindAuction.sol\":1097:1147  if (block.timestamp <= time) revert TooEarly(time) */\n      tag_75\n      jumpi\n        /* \"contract/BlindAuction.sol\":1142:1146  time */\n      dup1\n        /* \"contract/BlindAuction.sol\":1133:1147  TooEarly(time) */\n      mload(0x40)\n      0x2a35a32400000000000000000000000000000000000000000000000000000000\n      dup2\n      mstore\n      0x04\n      add\n      tag_76\n      swap2\n      swap1\n      tag_42\n      jump\t// in\n    tag_76:\n      mload(0x40)\n      dup1\n      swap2\n      sub\n      swap1\n      revert\n        /* \"contract/BlindAuction.sol\":1097:1147  if (block.timestamp <= time) revert TooEarly(time) */\n    tag_75:\n        /* \"contract/BlindAuction.sol\":4059:4064  ended */\n      0x03\n      0x00\n      swap1\n      sload\n      swap1\n      0x0100\n      exp\n      swap1\n      div\n      0xff\n      and\n        /* \"contract/BlindAuction.sol\":4055:4098  if (ended) revert AuctionEndAlreadyCalled() */\n      iszero\n      tag_78\n      jumpi\n        /* \"contract/BlindAuction.sol\":4073:4098  AuctionEndAlreadyCalled() */\n      mload(0x40)\n      0x61cfdcf800000000000000000000000000000000000000000000000000000000\n      dup2\n      mstore\n      0x04\n      add\n      mload(0x40)\n      dup1\n      swap2\n      sub\n      swap1\n      revert\n        /* \"contract/BlindAuction.sol\":4055:4098  if (ended) revert AuctionEndAlreadyCalled() */\n    tag_78:\n        /* \"contract/BlindAuction.sol\":4114:4153  AuctionEnded(highestBidder, highestBid) */\n      0xdaec4582d5d9595688c8c98545fdd1c696d41c6aeaeb636737e84ed2f5c00eda\n        /* \"contract/BlindAuction.sol\":4127:4140  highestBidder */\n      0x05\n      0x00\n      swap1\n      sload\n      swap1\n      0x0100\n      exp\n      swap1\n      div\n      0xffffffffffffffffffffffffffffffffffffffff\n      and\n        /* \"contract/BlindAuction.sol\":4142:4152  highestBid */\n      sload(0x06)\n        /* \"contract/BlindAuction.sol\":4114:4153  AuctionEnded(highestBidder, highestBid) */\n      mload(0x40)\n      tag_79\n      swap3\n      swap2\n      swap1\n      tag_80\n      jump\t// in\n    tag_79:\n      mload(0x40)\n      dup1\n      swap2\n      sub\n      swap1\n      log1\n        /* \"contract/BlindAuction.sol\":4172:4176  true */\n      0x01\n        /* \"contract/BlindAuction.sol\":4164:4169  ended */\n      0x03\n      0x00\n        /* \"contract/BlindAuction.sol\":4164:4176  ended = true */\n      0x0100\n      exp\n      dup2\n      sload\n      dup2\n      0xff\n      mul\n      not\n      and\n      swap1\n      dup4\n      iszero\n      iszero\n      mul\n      or\n      swap1\n      sstore\n      pop\n        /* \"contract/BlindAuction.sol\":4187:4198  beneficiary */\n      0x00\n      dup1\n      sload\n      swap1\n      0x0100\n      exp\n      swap1\n      div\n      0xffffffffffffffffffffffffffffffffffffffff\n      and\n        /* \"contract/BlindAuction.sol\":4187:4207  beneficiary.transfer */\n      0xffffffffffffffffffffffffffffffffffffffff\n      and\n        /* \"contract/BlindAuction.sol\":4187:4219  beneficiary.transfer(highestBid) */\n      0x08fc\n        /* \"contract/BlindAuction.sol\":4208:4218  highestBid */\n      sload(0x06)\n        /* \"contract/BlindAuction.sol\":4187:4219  beneficiary.transfer(highestBid) */\n      swap1\n      dup2\n      iszero\n      mul\n      swap1\n      mload(0x40)\n      0x00\n      mload(0x40)\n      dup1\n      dup4\n      sub\n      dup2\n      dup6\n      dup9\n      dup9\n      call\n      swap4\n      pop\n      pop\n      pop\n      pop\n      iszero\n      dup1\n      iszero\n      tag_82\n      jumpi\n      returndatasize\n      0x00\n      dup1\n      returndatacopy\n      revert(0x00, returndatasize)\n    tag_82:\n      pop\n        /* \"contract/BlindAuction.sol\":3994:4227  function auctionEnd()external onlyAfter(revealEnd){\r... */\n      pop\n      jump\t// out\n        /* \"contract/BlindAuction.sol\":221:255  address payable public beneficiary */\n    tag_32:\n      0x00\n      dup1\n      sload\n      swap1\n      0x0100\n      exp\n      swap1\n      div\n      0xffffffffffffffffffffffffffffffffffffffff\n      and\n      dup2\n      jump\t// out\n        /* \"contract/BlindAuction.sol\":3409:3907  function withdraw() external {\r... */\n    tag_37:\n        /* \"contract/BlindAuction.sol\":3449:3460  uint amount */\n      0x00\n        /* \"contract/BlindAuction.sol\":3463:3477  pendingReturns */\n      0x07\n        /* \"contract/BlindAuction.sol\":3463:3489  pendingReturns[msg.sender] */\n      0x00\n        /* \"contract/BlindAuction.sol\":3478:3488  msg.sender */\n      caller\n        /* \"contract/BlindAuction.sol\":3463:3489  pendingReturns[msg.sender] */\n      0xffffffffffffffffffffffffffffffffffffffff\n      and\n      0xffffffffffffffffffffffffffffffffffffffff\n      and\n      dup2\n      mstore\n      0x20\n      add\n      swap1\n      dup2\n      mstore\n      0x20\n      add\n      0x00\n      keccak256\n      sload\n        /* \"contract/BlindAuction.sol\":3449:3489  uint amount = pendingReturns[msg.sender] */\n      swap1\n      pop\n        /* \"contract/BlindAuction.sol\":3513:3514  0 */\n      0x00\n        /* \"contract/BlindAuction.sol\":3504:3510  amount */\n      dup2\n        /* \"contract/BlindAuction.sol\":3504:3514  amount > 0 */\n      gt\n        /* \"contract/BlindAuction.sol\":3500:3900  if (amount > 0) {\r... */\n      iszero\n      tag_84\n      jumpi\n        /* \"contract/BlindAuction.sol\":3834:3835  0 */\n      0x00\n        /* \"contract/BlindAuction.sol\":3805:3819  pendingReturns */\n      0x07\n        /* \"contract/BlindAuction.sol\":3805:3831  pendingReturns[msg.sender] */\n      0x00\n        /* \"contract/BlindAuction.sol\":3820:3830  msg.sender */\n      caller\n        /* \"contract/BlindAuction.sol\":3805:3831  pendingReturns[msg.sender] */\n      0xffffffffffffffffffffffffffffffffffffffff\n      and\n      0xffffffffffffffffffffffffffffffffffffffff\n      and\n      dup2\n      mstore\n      0x20\n      add\n      swap1\n      dup2\n      mstore\n      0x20\n      add\n      0x00\n      keccak256\n        /* \"contract/BlindAuction.sol\":3805:3835  pendingReturns[msg.sender] = 0 */\n      dup2\n      swap1\n      sstore\n      pop\n        /* \"contract/BlindAuction.sol\":3860:3870  msg.sender */\n      caller\n        /* \"contract/BlindAuction.sol\":3852:3880  payable(msg.sender).transfer */\n      0xffffffffffffffffffffffffffffffffffffffff\n      and\n        /* \"contract/BlindAuction.sol\":3852:3888  payable(msg.sender).transfer(amount) */\n      0x08fc\n        /* \"contract/BlindAuction.sol\":3881:3887  amount */\n      dup3\n        /* \"contract/BlindAuction.sol\":3852:3888  payable(msg.sender).transfer(amount) */\n      swap1\n      dup2\n      iszero\n      mul\n      swap1\n      mload(0x40)\n      0x00\n      mload(0x40)\n      dup1\n      dup4\n      sub\n      dup2\n      dup6\n      dup9\n      dup9\n      call\n      swap4\n      pop\n      pop\n      pop\n      pop\n      iszero\n      dup1\n      iszero\n      tag_86\n      jumpi\n      returndatasize\n      0x00\n      dup1\n      returndatacopy\n      revert(0x00, returndatasize)\n    tag_86:\n      pop\n        /* \"contract/BlindAuction.sol\":3500:3900  if (amount > 0) {\r... */\n    tag_84:\n        /* \"contract/BlindAuction.sol\":3438:3907  {\r... */\n      pop\n        /* \"contract/BlindAuction.sol\":3409:3907  function withdraw() external {\r... */\n      jump\t// out\n        /* \"contract/BlindAuction.sol\":271:293  uint public biddingEnd */\n    tag_40:\n      sload(0x01)\n      dup2\n      jump\t// out\n        /* \"contract/BlindAuction.sol\":1696:1871  function myBiddData(uint value,bool fake,bytes32 secret)external pure returns(bytes32 blindedBid){\r... */\n    tag_47:\n        /* \"contract/BlindAuction.sol\":1774:1792  bytes32 blindedBid */\n      0x00\n        /* \"contract/BlindAuction.sol\":1844:1849  value */\n      dup4\n        /* \"contract/BlindAuction.sol\":1850:1854  fake */\n      dup4\n        /* \"contract/BlindAuction.sol\":1855:1861  secret */\n      dup4\n        /* \"contract/BlindAuction.sol\":1827:1862  abi.encodePacked(value,fake,secret) */\n      add(0x20, mload(0x40))\n      tag_88\n      swap4\n      swap3\n      swap2\n      swap1\n      tag_89\n      jump\t// in\n    tag_88:\n      mload(0x40)\n      0x20\n      dup2\n      dup4\n      sub\n      sub\n      dup2\n      mstore\n      swap1\n      0x40\n      mstore\n        /* \"contract/BlindAuction.sol\":1817:1863  keccak256(abi.encodePacked(value,fake,secret)) */\n      dup1\n      mload\n      swap1\n      0x20\n      add\n      keccak256\n        /* \"contract/BlindAuction.sol\":1804:1863  blindedBid = keccak256(abi.encodePacked(value,fake,secret)) */\n      swap1\n      pop\n        /* \"contract/BlindAuction.sol\":1696:1871  function myBiddData(uint value,bool fake,bytes32 secret)external pure returns(bytes32 blindedBid){\r... */\n      swap4\n      swap3\n      pop\n      pop\n      pop\n      jump\t// out\n        /* \"contract/BlindAuction.sol\":1924:3359  function reveal( uint[] calldata values,bool[] calldata fakes, bytes32[] calldata secrets) external onlyAfter(biddingEnd) onlyBefore(revealEnd){\r... */\n    tag_54:\n        /* \"contract/BlindAuction.sol\":2034:2044  biddingEnd */\n      sload(0x01)\n        /* \"contract/BlindAuction.sol\":1120:1124  time */\n      dup1\n        /* \"contract/BlindAuction.sol\":1101:1116  block.timestamp */\n      timestamp\n        /* \"contract/BlindAuction.sol\":1101:1124  block.timestamp <= time */\n      gt\n        /* \"contract/BlindAuction.sol\":1097:1147  if (block.timestamp <= time) revert TooEarly(time) */\n      tag_91\n      jumpi\n        /* \"contract/BlindAuction.sol\":1142:1146  time */\n      dup1\n        /* \"contract/BlindAuction.sol\":1133:1147  TooEarly(time) */\n      mload(0x40)\n      0x2a35a32400000000000000000000000000000000000000000000000000000000\n      dup2\n      mstore\n      0x04\n      add\n      tag_92\n      swap2\n      swap1\n      tag_42\n      jump\t// in\n    tag_92:\n      mload(0x40)\n      dup1\n      swap2\n      sub\n      swap1\n      revert\n        /* \"contract/BlindAuction.sol\":1097:1147  if (block.timestamp <= time) revert TooEarly(time) */\n    tag_91:\n        /* \"contract/BlindAuction.sol\":2057:2066  revealEnd */\n      sload(0x02)\n        /* \"contract/BlindAuction.sol\":1004:1008  time */\n      dup1\n        /* \"contract/BlindAuction.sol\":985:1000  block.timestamp */\n      timestamp\n        /* \"contract/BlindAuction.sol\":985:1008  block.timestamp >= time */\n      lt\n        /* \"contract/BlindAuction.sol\":981:1030  if (block.timestamp >= time) revert TooLate(time) */\n      tag_94\n      jumpi\n        /* \"contract/BlindAuction.sol\":1025:1029  time */\n      dup1\n        /* \"contract/BlindAuction.sol\":1017:1030  TooLate(time) */\n      mload(0x40)\n      0x691e568200000000000000000000000000000000000000000000000000000000\n      dup2\n      mstore\n      0x04\n      add\n      tag_95\n      swap2\n      swap1\n      tag_42\n      jump\t// in\n    tag_95:\n      mload(0x40)\n      dup1\n      swap2\n      sub\n      swap1\n      revert\n        /* \"contract/BlindAuction.sol\":981:1030  if (block.timestamp >= time) revert TooLate(time) */\n    tag_94:\n        /* \"contract/BlindAuction.sol\":2112:2123  uint length */\n      0x00\n        /* \"contract/BlindAuction.sol\":2126:2130  bids */\n      0x04\n        /* \"contract/BlindAuction.sol\":2126:2142  bids[msg.sender] */\n      0x00\n        /* \"contract/BlindAuction.sol\":2131:2141  msg.sender */\n      caller\n        /* \"contract/BlindAuction.sol\":2126:2142  bids[msg.sender] */\n      0xffffffffffffffffffffffffffffffffffffffff\n      and\n      0xffffffffffffffffffffffffffffffffffffffff\n      and\n      dup2\n      mstore\n      0x20\n      add\n      swap1\n      dup2\n      mstore\n      0x20\n      add\n      0x00\n      keccak256\n        /* \"contract/BlindAuction.sol\":2126:2149  bids[msg.sender].length */\n      dup1\n      sload\n      swap1\n      pop\n        /* \"contract/BlindAuction.sol\":2112:2149  uint length = bids[msg.sender].length */\n      swap1\n      pop\n        /* \"contract/BlindAuction.sol\":2244:2250  length */\n      dup1\n        /* \"contract/BlindAuction.sol\":2227:2233  values */\n      dup10\n      dup10\n        /* \"contract/BlindAuction.sol\":2227:2240  values.length */\n      swap1\n      pop\n        /* \"contract/BlindAuction.sol\":2227:2250  values.length == length */\n      eq\n        /* \"contract/BlindAuction.sol\":2219:2251  require(values.length == length) */\n      tag_97\n      jumpi\n      0x00\n      dup1\n      revert\n    tag_97:\n        /* \"contract/BlindAuction.sol\":2286:2292  length */\n      dup1\n        /* \"contract/BlindAuction.sol\":2270:2275  fakes */\n      dup8\n      dup8\n        /* \"contract/BlindAuction.sol\":2270:2282  fakes.length */\n      swap1\n      pop\n        /* \"contract/BlindAuction.sol\":2270:2292  fakes.length == length */\n      eq\n        /* \"contract/BlindAuction.sol\":2262:2293  require(fakes.length == length) */\n      tag_98\n      jumpi\n      0x00\n      dup1\n      revert\n    tag_98:\n        /* \"contract/BlindAuction.sol\":2330:2336  length */\n      dup1\n        /* \"contract/BlindAuction.sol\":2312:2319  secrets */\n      dup6\n      dup6\n        /* \"contract/BlindAuction.sol\":2312:2326  secrets.length */\n      swap1\n      pop\n        /* \"contract/BlindAuction.sol\":2312:2336  secrets.length == length */\n      eq\n        /* \"contract/BlindAuction.sol\":2304:2337  require(secrets.length == length) */\n      tag_99\n      jumpi\n      0x00\n      dup1\n      revert\n    tag_99:\n        /* \"contract/BlindAuction.sol\":2379:2390  uint refund */\n      0x00\n        /* \"contract/BlindAuction.sol\":2443:2449  uint i */\n      dup1\n        /* \"contract/BlindAuction.sol\":2452:2453  0 */\n      0x00\n        /* \"contract/BlindAuction.sol\":2443:2453  uint i = 0 */\n      swap1\n      pop\n        /* \"contract/BlindAuction.sol\":2438:3305  for (uint i = 0; i < length; i++) {\r... */\n    tag_100:\n        /* \"contract/BlindAuction.sol\":2459:2465  length */\n      dup3\n        /* \"contract/BlindAuction.sol\":2455:2456  i */\n      dup2\n        /* \"contract/BlindAuction.sol\":2455:2465  i < length */\n      lt\n        /* \"contract/BlindAuction.sol\":2438:3305  for (uint i = 0; i < length; i++) {\r... */\n      iszero\n      tag_101\n      jumpi\n        /* \"contract/BlindAuction.sol\":2487:2509  Bid storage bidToCheck */\n      0x00\n        /* \"contract/BlindAuction.sol\":2512:2516  bids */\n      0x04\n        /* \"contract/BlindAuction.sol\":2512:2528  bids[msg.sender] */\n      0x00\n        /* \"contract/BlindAuction.sol\":2517:2527  msg.sender */\n      caller\n        /* \"contract/BlindAuction.sol\":2512:2528  bids[msg.sender] */\n      0xffffffffffffffffffffffffffffffffffffffff\n      and\n      0xffffffffffffffffffffffffffffffffffffffff\n      and\n      dup2\n      mstore\n      0x20\n      add\n      swap1\n      dup2\n      mstore\n      0x20\n      add\n      0x00\n      keccak256\n        /* \"contract/BlindAuction.sol\":2529:2530  i */\n      dup3\n        /* \"contract/BlindAuction.sol\":2512:2531  bids[msg.sender][i] */\n      dup2\n      sload\n      dup2\n      lt\n      tag_103\n      jumpi\n      tag_104\n      tag_105\n      jump\t// in\n    tag_104:\n    tag_103:\n      swap1\n      0x00\n      mstore\n      keccak256(0x00, 0x20)\n      swap1\n      0x02\n      mul\n      add\n        /* \"contract/BlindAuction.sol\":2487:2531  Bid storage bidToCheck = bids[msg.sender][i] */\n      swap1\n      pop\n        /* \"contract/BlindAuction.sol\":2547:2557  uint value */\n      0x00\n        /* \"contract/BlindAuction.sol\":2559:2568  bool fake */\n      dup1\n        /* \"contract/BlindAuction.sol\":2570:2584  bytes32 secret */\n      0x00\n        /* \"contract/BlindAuction.sol\":2588:2594  values */\n      dup15\n      dup15\n        /* \"contract/BlindAuction.sol\":2595:2596  i */\n      dup7\n        /* \"contract/BlindAuction.sol\":2588:2597  values[i] */\n      dup2\n      dup2\n      lt\n      tag_107\n      jumpi\n      tag_108\n      tag_105\n      jump\t// in\n    tag_108:\n    tag_107:\n      swap1\n      pop\n      0x20\n      mul\n      add\n      calldataload\n        /* \"contract/BlindAuction.sol\":2599:2604  fakes */\n      dup14\n      dup14\n        /* \"contract/BlindAuction.sol\":2605:2606  i */\n      dup8\n        /* \"contract/BlindAuction.sol\":2599:2607  fakes[i] */\n      dup2\n      dup2\n      lt\n      tag_109\n      jumpi\n      tag_110\n      tag_105\n      jump\t// in\n    tag_110:\n    tag_109:\n      swap1\n      pop\n      0x20\n      mul\n      add\n      0x20\n      dup2\n      add\n      swap1\n      tag_111\n      swap2\n      swap1\n      tag_112\n      jump\t// in\n    tag_111:\n        /* \"contract/BlindAuction.sol\":2609:2616  secrets */\n      dup13\n      dup13\n        /* \"contract/BlindAuction.sol\":2617:2618  i */\n      dup9\n        /* \"contract/BlindAuction.sol\":2609:2619  secrets[i] */\n      dup2\n      dup2\n      lt\n      tag_113\n      jumpi\n      tag_114\n      tag_105\n      jump\t// in\n    tag_114:\n    tag_113:\n      swap1\n      pop\n      0x20\n      mul\n      add\n      calldataload\n        /* \"contract/BlindAuction.sol\":2546:2620  (uint value, bool fake, bytes32 secret) =(values[i], fakes[i], secrets[i]) */\n      swap3\n      pop\n      swap3\n      pop\n      swap3\n      pop\n        /* \"contract/BlindAuction.sol\":2691:2696  value */\n      dup3\n        /* \"contract/BlindAuction.sol\":2698:2702  fake */\n      dup3\n        /* \"contract/BlindAuction.sol\":2704:2710  secret */\n      dup3\n        /* \"contract/BlindAuction.sol\":2674:2711  abi.encodePacked(value, fake, secret) */\n      add(0x20, mload(0x40))\n      tag_115\n      swap4\n      swap3\n      swap2\n      swap1\n      tag_89\n      jump\t// in\n    tag_115:\n      mload(0x40)\n      0x20\n      dup2\n      dup4\n      sub\n      sub\n      dup2\n      mstore\n      swap1\n      0x40\n      mstore\n        /* \"contract/BlindAuction.sol\":2664:2712  keccak256(abi.encodePacked(value, fake, secret)) */\n      dup1\n      mload\n      swap1\n      0x20\n      add\n      keccak256\n        /* \"contract/BlindAuction.sol\":2639:2649  bidToCheck */\n      dup5\n        /* \"contract/BlindAuction.sol\":2639:2660  bidToCheck.blindedBid */\n      0x00\n      add\n      sload\n        /* \"contract/BlindAuction.sol\":2639:2712  bidToCheck.blindedBid != keccak256(abi.encodePacked(value, fake, secret)) */\n      eq\n        /* \"contract/BlindAuction.sol\":2635:2851  if (bidToCheck.blindedBid != keccak256(abi.encodePacked(value, fake, secret))) {\r... */\n      tag_116\n      jumpi\n        /* \"contract/BlindAuction.sol\":2827:2835  continue */\n      pop\n      pop\n      pop\n      pop\n      jump(tag_102)\n        /* \"contract/BlindAuction.sol\":2635:2851  if (bidToCheck.blindedBid != keccak256(abi.encodePacked(value, fake, secret))) {\r... */\n    tag_116:\n        /* \"contract/BlindAuction.sol\":2910:2920  bidToCheck */\n      dup4\n        /* \"contract/BlindAuction.sol\":2910:2928  bidToCheck.deposit */\n      0x01\n      add\n      sload\n        /* \"contract/BlindAuction.sol\":2900:2928  refund += bidToCheck.deposit */\n      dup7\n      tag_117\n      swap2\n      swap1\n      tag_118\n      jump\t// in\n    tag_117:\n      swap6\n      pop\n        /* \"contract/BlindAuction.sol\":3008:3012  fake */\n      dup2\n        /* \"contract/BlindAuction.sol\":3007:3012  !fake */\n      iszero\n        /* \"contract/BlindAuction.sol\":3007:3043  !fake && bidToCheck.deposit >= value */\n      dup1\n      iszero\n      tag_119\n      jumpi\n      pop\n        /* \"contract/BlindAuction.sol\":3038:3043  value */\n      dup3\n        /* \"contract/BlindAuction.sol\":3016:3026  bidToCheck */\n      dup5\n        /* \"contract/BlindAuction.sol\":3016:3034  bidToCheck.deposit */\n      0x01\n      add\n      sload\n        /* \"contract/BlindAuction.sol\":3016:3043  bidToCheck.deposit >= value */\n      lt\n      iszero\n        /* \"contract/BlindAuction.sol\":3007:3043  !fake && bidToCheck.deposit >= value */\n    tag_119:\n        /* \"contract/BlindAuction.sol\":3003:3149  if (!fake && bidToCheck.deposit >= value) {\r... */\n      iszero\n      tag_120\n      jumpi\n        /* \"contract/BlindAuction.sol\":3068:3095  placeBid(msg.sender, value) */\n      tag_121\n        /* \"contract/BlindAuction.sol\":3077:3087  msg.sender */\n      caller\n        /* \"contract/BlindAuction.sol\":3089:3094  value */\n      dup5\n        /* \"contract/BlindAuction.sol\":3068:3076  placeBid */\n      tag_122\n        /* \"contract/BlindAuction.sol\":3068:3095  placeBid(msg.sender, value) */\n      jump\t// in\n    tag_121:\n        /* \"contract/BlindAuction.sol\":3064:3133  if (placeBid(msg.sender, value))\r... */\n      iszero\n      tag_123\n      jumpi\n        /* \"contract/BlindAuction.sol\":3128:3133  value */\n      dup3\n        /* \"contract/BlindAuction.sol\":3118:3133  refund -= value */\n      dup7\n      tag_124\n      swap2\n      swap1\n      tag_125\n      jump\t// in\n    tag_124:\n      swap6\n      pop\n        /* \"contract/BlindAuction.sol\":3064:3133  if (placeBid(msg.sender, value))\r... */\n    tag_123:\n        /* \"contract/BlindAuction.sol\":3003:3149  if (!fake && bidToCheck.deposit >= value) {\r... */\n    tag_120:\n        /* \"contract/BlindAuction.sol\":3291:3292  0 */\n      0x00\n        /* \"contract/BlindAuction.sol\":3283:3293  bytes32(0) */\n      dup1\n      shl\n        /* \"contract/BlindAuction.sol\":3259:3269  bidToCheck */\n      dup5\n        /* \"contract/BlindAuction.sol\":3259:3280  bidToCheck.blindedBid */\n      0x00\n      add\n        /* \"contract/BlindAuction.sol\":3259:3293  bidToCheck.blindedBid = bytes32(0) */\n      dup2\n      swap1\n      sstore\n      pop\n        /* \"contract/BlindAuction.sol\":2472:3305  {\r... */\n      pop\n      pop\n      pop\n      pop\n        /* \"contract/BlindAuction.sol\":2438:3305  for (uint i = 0; i < length; i++) {\r... */\n    tag_102:\n        /* \"contract/BlindAuction.sol\":2467:2470  i++ */\n      dup1\n      dup1\n      tag_126\n      swap1\n      tag_127\n      jump\t// in\n    tag_126:\n      swap2\n      pop\n      pop\n        /* \"contract/BlindAuction.sol\":2438:3305  for (uint i = 0; i < length; i++) {\r... */\n      jump(tag_100)\n    tag_101:\n      pop\n        /* \"contract/BlindAuction.sol\":3323:3333  msg.sender */\n      caller\n        /* \"contract/BlindAuction.sol\":3315:3343  payable(msg.sender).transfer */\n      0xffffffffffffffffffffffffffffffffffffffff\n      and\n        /* \"contract/BlindAuction.sol\":3315:3351  payable(msg.sender).transfer(refund) */\n      0x08fc\n        /* \"contract/BlindAuction.sol\":3344:3350  refund */\n      dup3\n        /* \"contract/BlindAuction.sol\":3315:3351  payable(msg.sender).transfer(refund) */\n      swap1\n      dup2\n      iszero\n      mul\n      swap1\n      mload(0x40)\n      0x00\n      mload(0x40)\n      dup1\n      dup4\n      sub\n      dup2\n      dup6\n      dup9\n      dup9\n      call\n      swap4\n      pop\n      pop\n      pop\n      pop\n      iszero\n      dup1\n      iszero\n      tag_129\n      jumpi\n      returndatasize\n      0x00\n      dup1\n      returndatacopy\n      revert(0x00, returndatasize)\n    tag_129:\n      pop\n        /* \"contract/BlindAuction.sol\":2067:3359  {\r... */\n      pop\n      pop\n        /* \"contract/BlindAuction.sol\":1158:1159  _ */\n      pop\n        /* \"contract/BlindAuction.sol\":1924:3359  function reveal( uint[] calldata values,bool[] calldata fakes, bytes32[] calldata secrets) external onlyAfter(biddingEnd) onlyBefore(revealEnd){\r... */\n      pop\n      pop\n      pop\n      pop\n      pop\n      pop\n      pop\n      jump\t// out\n        /* \"contract/BlindAuction.sol\":511:539  address public highestBidder */\n    tag_57:\n      0x05\n      0x00\n      swap1\n      sload\n      swap1\n      0x0100\n      exp\n      swap1\n      div\n      0xffffffffffffffffffffffffffffffffffffffff\n      and\n      dup2\n      jump\t// out\n        /* \"contract/BlindAuction.sol\":1489:1688  function bid(bytes32 blindedBid)external payable onlyBefore(biddingEnd){\r... */\n    tag_63:\n        /* \"contract/BlindAuction.sol\":1549:1559  biddingEnd */\n      sload(0x01)\n        /* \"contract/BlindAuction.sol\":1004:1008  time */\n      dup1\n        /* \"contract/BlindAuction.sol\":985:1000  block.timestamp */\n      timestamp\n        /* \"contract/BlindAuction.sol\":985:1008  block.timestamp >= time */\n      lt\n        /* \"contract/BlindAuction.sol\":981:1030  if (block.timestamp >= time) revert TooLate(time) */\n      tag_131\n      jumpi\n        /* \"contract/BlindAuction.sol\":1025:1029  time */\n      dup1\n        /* \"contract/BlindAuction.sol\":1017:1030  TooLate(time) */\n      mload(0x40)\n      0x691e568200000000000000000000000000000000000000000000000000000000\n      dup2\n      mstore\n      0x04\n      add\n      tag_132\n      swap2\n      swap1\n      tag_42\n      jump\t// in\n    tag_132:\n      mload(0x40)\n      dup1\n      swap2\n      sub\n      swap1\n      revert\n        /* \"contract/BlindAuction.sol\":981:1030  if (block.timestamp >= time) revert TooLate(time) */\n    tag_131:\n        /* \"contract/BlindAuction.sol\":1571:1575  bids */\n      0x04\n        /* \"contract/BlindAuction.sol\":1571:1587  bids[msg.sender] */\n      0x00\n        /* \"contract/BlindAuction.sol\":1576:1586  msg.sender */\n      caller\n        /* \"contract/BlindAuction.sol\":1571:1587  bids[msg.sender] */\n      0xffffffffffffffffffffffffffffffffffffffff\n      and\n      0xffffffffffffffffffffffffffffffffffffffff\n      and\n      dup2\n      mstore\n      0x20\n      add\n      swap1\n      dup2\n      mstore\n      0x20\n      add\n      0x00\n      keccak256\n        /* \"contract/BlindAuction.sol\":1593:1679  Bid({\r... */\n      mload(0x40)\n      dup1\n      0x40\n      add\n      0x40\n      mstore\n      dup1\n        /* \"contract/BlindAuction.sol\":1624:1634  blindedBid */\n      dup5\n        /* \"contract/BlindAuction.sol\":1593:1679  Bid({\r... */\n      dup2\n      mstore\n      0x20\n      add\n        /* \"contract/BlindAuction.sol\":1658:1667  msg.value */\n      callvalue\n        /* \"contract/BlindAuction.sol\":1593:1679  Bid({\r... */\n      dup2\n      mstore\n      pop\n        /* \"contract/BlindAuction.sol\":1571:1680  bids[msg.sender].push(Bid({\r... */\n      swap1\n      dup1\n      0x01\n      dup2\n      sload\n      add\n      dup1\n      dup3\n      sstore\n      dup1\n      swap2\n      pop\n      pop\n      0x01\n      swap1\n      sub\n      swap1\n      0x00\n      mstore\n      keccak256(0x00, 0x20)\n      swap1\n      0x02\n      mul\n      add\n      0x00\n      swap1\n      swap2\n      swap1\n      swap2\n      swap1\n      swap2\n      pop\n      0x00\n      dup3\n      add\n      mload\n      dup2\n      0x00\n      add\n      sstore\n      0x20\n      dup3\n      add\n      mload\n      dup2\n      0x01\n      add\n      sstore\n      pop\n      pop\n        /* \"contract/BlindAuction.sol\":1489:1688  function bid(bytes32 blindedBid)external payable onlyBefore(biddingEnd){\r... */\n      pop\n      pop\n      jump\t// out\n        /* \"contract/BlindAuction.sol\":306:327  uint public revealEnd */\n    tag_66:\n      sload(0x02)\n      dup2\n      jump\t// out\n        /* \"contract/BlindAuction.sol\":573:595  uint public highestBid */\n    tag_70:\n      sload(0x06)\n      dup2\n      jump\t// out\n        /* \"contract/BlindAuction.sol\":4288:4698  function placeBid(address bidder, uint value) internal returns (bool success){\r... */\n    tag_122:\n        /* \"contract/BlindAuction.sol\":4352:4364  bool success */\n      0x00\n        /* \"contract/BlindAuction.sol\":4389:4399  highestBid */\n      sload(0x06)\n        /* \"contract/BlindAuction.sol\":4380:4385  value */\n      dup3\n        /* \"contract/BlindAuction.sol\":4380:4399  value <= highestBid */\n      gt\n        /* \"contract/BlindAuction.sol\":4376:4440  if (value <= highestBid) {\r... */\n      tag_136\n      jumpi\n        /* \"contract/BlindAuction.sol\":4423:4428  false */\n      0x00\n        /* \"contract/BlindAuction.sol\":4416:4428  return false */\n      swap1\n      pop\n      jump(tag_135)\n        /* \"contract/BlindAuction.sol\":4376:4440  if (value <= highestBid) {\r... */\n    tag_136:\n        /* \"contract/BlindAuction.sol\":4479:4480  0 */\n      0x00\n        /* \"contract/BlindAuction.sol\":4454:4481  highestBidder != address(0) */\n      0xffffffffffffffffffffffffffffffffffffffff\n      and\n        /* \"contract/BlindAuction.sol\":4454:4467  highestBidder */\n      0x05\n      0x00\n      swap1\n      sload\n      swap1\n      0x0100\n      exp\n      swap1\n      div\n      0xffffffffffffffffffffffffffffffffffffffff\n      and\n        /* \"contract/BlindAuction.sol\":4454:4481  highestBidder != address(0) */\n      0xffffffffffffffffffffffffffffffffffffffff\n      and\n      eq\n        /* \"contract/BlindAuction.sol\":4450:4607  if (highestBidder != address(0)) {\r... */\n      tag_137\n      jumpi\n        /* \"contract/BlindAuction.sol\":4585:4595  highestBid */\n      sload(0x06)\n        /* \"contract/BlindAuction.sol\":4552:4566  pendingReturns */\n      0x07\n        /* \"contract/BlindAuction.sol\":4552:4581  pendingReturns[highestBidder] */\n      0x00\n        /* \"contract/BlindAuction.sol\":4567:4580  highestBidder */\n      0x05\n      0x00\n      swap1\n      sload\n      swap1\n      0x0100\n      exp\n      swap1\n      div\n      0xffffffffffffffffffffffffffffffffffffffff\n      and\n        /* \"contract/BlindAuction.sol\":4552:4581  pendingReturns[highestBidder] */\n      0xffffffffffffffffffffffffffffffffffffffff\n      and\n      0xffffffffffffffffffffffffffffffffffffffff\n      and\n      dup2\n      mstore\n      0x20\n      add\n      swap1\n      dup2\n      mstore\n      0x20\n      add\n      0x00\n      keccak256\n      0x00\n        /* \"contract/BlindAuction.sol\":4552:4595  pendingReturns[highestBidder] += highestBid */\n      dup3\n      dup3\n      sload\n      tag_138\n      swap2\n      swap1\n      tag_118\n      jump\t// in\n    tag_138:\n      swap3\n      pop\n      pop\n      dup2\n      swap1\n      sstore\n      pop\n        /* \"contract/BlindAuction.sol\":4450:4607  if (highestBidder != address(0)) {\r... */\n    tag_137:\n        /* \"contract/BlindAuction.sol\":4630:4635  value */\n      dup2\n        /* \"contract/BlindAuction.sol\":4617:4627  highestBid */\n      0x06\n        /* \"contract/BlindAuction.sol\":4617:4635  highestBid = value */\n      dup2\n      swap1\n      sstore\n      pop\n        /* \"contract/BlindAuction.sol\":4662:4668  bidder */\n      dup3\n        /* \"contract/BlindAuction.sol\":4646:4659  highestBidder */\n      0x05\n      0x00\n        /* \"contract/BlindAuction.sol\":4646:4668  highestBidder = bidder */\n      0x0100\n      exp\n      dup2\n      sload\n      dup2\n      0xffffffffffffffffffffffffffffffffffffffff\n      mul\n      not\n      and\n      swap1\n      dup4\n      0xffffffffffffffffffffffffffffffffffffffff\n      and\n      mul\n      or\n      swap1\n      sstore\n      pop\n        /* \"contract/BlindAuction.sol\":4686:4690  true */\n      0x01\n        /* \"contract/BlindAuction.sol\":4679:4690  return true */\n      swap1\n      pop\n        /* \"contract/BlindAuction.sol\":4288:4698  function placeBid(address bidder, uint value) internal returns (bool success){\r... */\n    tag_135:\n      swap3\n      swap2\n      pop\n      pop\n      jump\t// out\n        /* \"#utility.yul\":7:146   */\n    tag_140:\n        /* \"#utility.yul\":53:58   */\n      0x00\n        /* \"#utility.yul\":91:97   */\n      dup2\n        /* \"#utility.yul\":78:98   */\n      calldataload\n        /* \"#utility.yul\":69:98   */\n      swap1\n      pop\n        /* \"#utility.yul\":107:140   */\n      tag_142\n        /* \"#utility.yul\":134:139   */\n      dup2\n        /* \"#utility.yul\":107:140   */\n      tag_143\n      jump\t// in\n    tag_142:\n        /* \"#utility.yul\":7:146   */\n      swap3\n      swap2\n      pop\n      pop\n      jump\t// out\n        /* \"#utility.yul\":166:731   */\n    tag_144:\n        /* \"#utility.yul\":236:244   */\n      0x00\n        /* \"#utility.yul\":246:252   */\n      dup1\n        /* \"#utility.yul\":296:299   */\n      dup4\n        /* \"#utility.yul\":289:293   */\n      0x1f\n        /* \"#utility.yul\":281:287   */\n      dup5\n        /* \"#utility.yul\":277:294   */\n      add\n        /* \"#utility.yul\":273:300   */\n      slt\n        /* \"#utility.yul\":263:385   */\n      tag_146\n      jumpi\n        /* \"#utility.yul\":304:383   */\n      tag_147\n      tag_148\n      jump\t// in\n    tag_147:\n        /* \"#utility.yul\":263:385   */\n    tag_146:\n        /* \"#utility.yul\":417:423   */\n      dup3\n        /* \"#utility.yul\":404:424   */\n      calldataload\n        /* \"#utility.yul\":394:424   */\n      swap1\n      pop\n        /* \"#utility.yul\":447:465   */\n      0xffffffffffffffff\n        /* \"#utility.yul\":439:445   */\n      dup2\n        /* \"#utility.yul\":436:466   */\n      gt\n        /* \"#utility.yul\":433:550   */\n      iszero\n      tag_149\n      jumpi\n        /* \"#utility.yul\":469:548   */\n      tag_150\n      tag_151\n      jump\t// in\n    tag_150:\n        /* \"#utility.yul\":433:550   */\n    tag_149:\n        /* \"#utility.yul\":583:587   */\n      0x20\n        /* \"#utility.yul\":575:581   */\n      dup4\n        /* \"#utility.yul\":571:588   */\n      add\n        /* \"#utility.yul\":559:588   */\n      swap2\n      pop\n        /* \"#utility.yul\":637:640   */\n      dup4\n        /* \"#utility.yul\":629:633   */\n      0x20\n        /* \"#utility.yul\":621:627   */\n      dup3\n        /* \"#utility.yul\":617:634   */\n      mul\n        /* \"#utility.yul\":607:615   */\n      dup4\n        /* \"#utility.yul\":603:635   */\n      add\n        /* \"#utility.yul\":600:641   */\n      gt\n        /* \"#utility.yul\":597:725   */\n      iszero\n      tag_152\n      jumpi\n        /* \"#utility.yul\":644:723   */\n      tag_153\n      tag_154\n      jump\t// in\n    tag_153:\n        /* \"#utility.yul\":597:725   */\n    tag_152:\n        /* \"#utility.yul\":166:731   */\n      swap3\n      pop\n      swap3\n      swap1\n      pop\n      jump\t// out\n        /* \"#utility.yul\":754:1322   */\n    tag_155:\n        /* \"#utility.yul\":827:835   */\n      0x00\n        /* \"#utility.yul\":837:843   */\n      dup1\n        /* \"#utility.yul\":887:890   */\n      dup4\n        /* \"#utility.yul\":880:884   */\n      0x1f\n        /* \"#utility.yul\":872:878   */\n      dup5\n        /* \"#utility.yul\":868:885   */\n      add\n        /* \"#utility.yul\":864:891   */\n      slt\n        /* \"#utility.yul\":854:976   */\n      tag_157\n      jumpi\n        /* \"#utility.yul\":895:974   */\n      tag_158\n      tag_148\n      jump\t// in\n    tag_158:\n        /* \"#utility.yul\":854:976   */\n    tag_157:\n        /* \"#utility.yul\":1008:1014   */\n      dup3\n        /* \"#utility.yul\":995:1015   */\n      calldataload\n        /* \"#utility.yul\":985:1015   */\n      swap1\n      pop\n        /* \"#utility.yul\":1038:1056   */\n      0xffffffffffffffff\n        /* \"#utility.yul\":1030:1036   */\n      dup2\n        /* \"#utility.yul\":1027:1057   */\n      gt\n        /* \"#utility.yul\":1024:1141   */\n      iszero\n      tag_159\n      jumpi\n        /* \"#utility.yul\":1060:1139   */\n      tag_160\n      tag_151\n      jump\t// in\n    tag_160:\n        /* \"#utility.yul\":1024:1141   */\n    tag_159:\n        /* \"#utility.yul\":1174:1178   */\n      0x20\n        /* \"#utility.yul\":1166:1172   */\n      dup4\n        /* \"#utility.yul\":1162:1179   */\n      add\n        /* \"#utility.yul\":1150:1179   */\n      swap2\n      pop\n        /* \"#utility.yul\":1228:1231   */\n      dup4\n        /* \"#utility.yul\":1220:1224   */\n      0x20\n        /* \"#utility.yul\":1212:1218   */\n      dup3\n        /* \"#utility.yul\":1208:1225   */\n      mul\n        /* \"#utility.yul\":1198:1206   */\n      dup4\n        /* \"#utility.yul\":1194:1226   */\n      add\n        /* \"#utility.yul\":1191:1232   */\n      gt\n        /* \"#utility.yul\":1188:1316   */\n      iszero\n      tag_161\n      jumpi\n        /* \"#utility.yul\":1235:1314   */\n      tag_162\n      tag_154\n      jump\t// in\n    tag_162:\n        /* \"#utility.yul\":1188:1316   */\n    tag_161:\n        /* \"#utility.yul\":754:1322   */\n      swap3\n      pop\n      swap3\n      swap1\n      pop\n      jump\t// out\n        /* \"#utility.yul\":1345:1913   */\n    tag_163:\n        /* \"#utility.yul\":1418:1426   */\n      0x00\n        /* \"#utility.yul\":1428:1434   */\n      dup1\n        /* \"#utility.yul\":1478:1481   */\n      dup4\n        /* \"#utility.yul\":1471:1475   */\n      0x1f\n        /* \"#utility.yul\":1463:1469   */\n      dup5\n        /* \"#utility.yul\":1459:1476   */\n      add\n        /* \"#utility.yul\":1455:1482   */\n      slt\n        /* \"#utility.yul\":1445:1567   */\n      tag_165\n      jumpi\n        /* \"#utility.yul\":1486:1565   */\n      tag_166\n      tag_148\n      jump\t// in\n    tag_166:\n        /* \"#utility.yul\":1445:1567   */\n    tag_165:\n        /* \"#utility.yul\":1599:1605   */\n      dup3\n        /* \"#utility.yul\":1586:1606   */\n      calldataload\n        /* \"#utility.yul\":1576:1606   */\n      swap1\n      pop\n        /* \"#utility.yul\":1629:1647   */\n      0xffffffffffffffff\n        /* \"#utility.yul\":1621:1627   */\n      dup2\n        /* \"#utility.yul\":1618:1648   */\n      gt\n        /* \"#utility.yul\":1615:1732   */\n      iszero\n      tag_167\n      jumpi\n        /* \"#utility.yul\":1651:1730   */\n      tag_168\n      tag_151\n      jump\t// in\n    tag_168:\n        /* \"#utility.yul\":1615:1732   */\n    tag_167:\n        /* \"#utility.yul\":1765:1769   */\n      0x20\n        /* \"#utility.yul\":1757:1763   */\n      dup4\n        /* \"#utility.yul\":1753:1770   */\n      add\n        /* \"#utility.yul\":1741:1770   */\n      swap2\n      pop\n        /* \"#utility.yul\":1819:1822   */\n      dup4\n        /* \"#utility.yul\":1811:1815   */\n      0x20\n        /* \"#utility.yul\":1803:1809   */\n      dup3\n        /* \"#utility.yul\":1799:1816   */\n      mul\n        /* \"#utility.yul\":1789:1797   */\n      dup4\n        /* \"#utility.yul\":1785:1817   */\n      add\n        /* \"#utility.yul\":1782:1823   */\n      gt\n        /* \"#utility.yul\":1779:1907   */\n      iszero\n      tag_169\n      jumpi\n        /* \"#utility.yul\":1826:1905   */\n      tag_170\n      tag_154\n      jump\t// in\n    tag_170:\n        /* \"#utility.yul\":1779:1907   */\n    tag_169:\n        /* \"#utility.yul\":1345:1913   */\n      swap3\n      pop\n      swap3\n      swap1\n      pop\n      jump\t// out\n        /* \"#utility.yul\":1919:2052   */\n    tag_171:\n        /* \"#utility.yul\":1962:1967   */\n      0x00\n        /* \"#utility.yul\":2000:2006   */\n      dup2\n        /* \"#utility.yul\":1987:2007   */\n      calldataload\n        /* \"#utility.yul\":1978:2007   */\n      swap1\n      pop\n        /* \"#utility.yul\":2016:2046   */\n      tag_173\n        /* \"#utility.yul\":2040:2045   */\n      dup2\n        /* \"#utility.yul\":2016:2046   */\n      tag_174\n      jump\t// in\n    tag_173:\n        /* \"#utility.yul\":1919:2052   */\n      swap3\n      swap2\n      pop\n      pop\n      jump\t// out\n        /* \"#utility.yul\":2058:2197   */\n    tag_175:\n        /* \"#utility.yul\":2104:2109   */\n      0x00\n        /* \"#utility.yul\":2142:2148   */\n      dup2\n        /* \"#utility.yul\":2129:2149   */\n      calldataload\n        /* \"#utility.yul\":2120:2149   */\n      swap1\n      pop\n        /* \"#utility.yul\":2158:2191   */\n      tag_177\n        /* \"#utility.yul\":2185:2190   */\n      dup2\n        /* \"#utility.yul\":2158:2191   */\n      tag_178\n      jump\t// in\n    tag_177:\n        /* \"#utility.yul\":2058:2197   */\n      swap3\n      swap2\n      pop\n      pop\n      jump\t// out\n        /* \"#utility.yul\":2203:2342   */\n    tag_179:\n        /* \"#utility.yul\":2249:2254   */\n      0x00\n        /* \"#utility.yul\":2287:2293   */\n      dup2\n        /* \"#utility.yul\":2274:2294   */\n      calldataload\n        /* \"#utility.yul\":2265:2294   */\n      swap1\n      pop\n        /* \"#utility.yul\":2303:2336   */\n      tag_181\n        /* \"#utility.yul\":2330:2335   */\n      dup2\n        /* \"#utility.yul\":2303:2336   */\n      tag_182\n      jump\t// in\n    tag_181:\n        /* \"#utility.yul\":2203:2342   */\n      swap3\n      swap2\n      pop\n      pop\n      jump\t// out\n        /* \"#utility.yul\":2348:2822   */\n    tag_18:\n        /* \"#utility.yul\":2416:2422   */\n      0x00\n        /* \"#utility.yul\":2424:2430   */\n      dup1\n        /* \"#utility.yul\":2473:2475   */\n      0x40\n        /* \"#utility.yul\":2461:2470   */\n      dup4\n        /* \"#utility.yul\":2452:2459   */\n      dup6\n        /* \"#utility.yul\":2448:2471   */\n      sub\n        /* \"#utility.yul\":2444:2476   */\n      slt\n        /* \"#utility.yul\":2441:2560   */\n      iszero\n      tag_184\n      jumpi\n        /* \"#utility.yul\":2479:2558   */\n      tag_185\n      tag_186\n      jump\t// in\n    tag_185:\n        /* \"#utility.yul\":2441:2560   */\n    tag_184:\n        /* \"#utility.yul\":2599:2600   */\n      0x00\n        /* \"#utility.yul\":2624:2677   */\n      tag_187\n        /* \"#utility.yul\":2669:2676   */\n      dup6\n        /* \"#utility.yul\":2660:2666   */\n      dup3\n        /* \"#utility.yul\":2649:2658   */\n      dup7\n        /* \"#utility.yul\":2645:2667   */\n      add\n        /* \"#utility.yul\":2624:2677   */\n      tag_140\n      jump\t// in\n    tag_187:\n        /* \"#utility.yul\":2614:2677   */\n      swap3\n      pop\n        /* \"#utility.yul\":2570:2687   */\n      pop\n        /* \"#utility.yul\":2726:2728   */\n      0x20\n        /* \"#utility.yul\":2752:2805   */\n      tag_188\n        /* \"#utility.yul\":2797:2804   */\n      dup6\n        /* \"#utility.yul\":2788:2794   */\n      dup3\n        /* \"#utility.yul\":2777:2786   */\n      dup7\n        /* \"#utility.yul\":2773:2795   */\n      add\n        /* \"#utility.yul\":2752:2805   */\n      tag_179\n      jump\t// in\n    tag_188:\n        /* \"#utility.yul\":2742:2805   */\n      swap2\n      pop\n        /* \"#utility.yul\":2697:2815   */\n      pop\n        /* \"#utility.yul\":2348:2822   */\n      swap3\n      pop\n      swap3\n      swap1\n      pop\n      jump\t// out\n        /* \"#utility.yul\":2828:4131   */\n    tag_53:\n        /* \"#utility.yul\":2983:2989   */\n      0x00\n        /* \"#utility.yul\":2991:2997   */\n      dup1\n        /* \"#utility.yul\":2999:3005   */\n      0x00\n        /* \"#utility.yul\":3007:3013   */\n      dup1\n        /* \"#utility.yul\":3015:3021   */\n      0x00\n        /* \"#utility.yul\":3023:3029   */\n      dup1\n        /* \"#utility.yul\":3072:3074   */\n      0x60\n        /* \"#utility.yul\":3060:3069   */\n      dup8\n        /* \"#utility.yul\":3051:3058   */\n      dup10\n        /* \"#utility.yul\":3047:3070   */\n      sub\n        /* \"#utility.yul\":3043:3075   */\n      slt\n        /* \"#utility.yul\":3040:3159   */\n      iszero\n      tag_190\n      jumpi\n        /* \"#utility.yul\":3078:3157   */\n      tag_191\n      tag_186\n      jump\t// in\n    tag_191:\n        /* \"#utility.yul\":3040:3159   */\n    tag_190:\n        /* \"#utility.yul\":3226:3227   */\n      0x00\n        /* \"#utility.yul\":3215:3224   */\n      dup8\n        /* \"#utility.yul\":3211:3228   */\n      add\n        /* \"#utility.yul\":3198:3229   */\n      calldataload\n        /* \"#utility.yul\":3256:3274   */\n      0xffffffffffffffff\n        /* \"#utility.yul\":3248:3254   */\n      dup2\n        /* \"#utility.yul\":3245:3275   */\n      gt\n        /* \"#utility.yul\":3242:3359   */\n      iszero\n      tag_192\n      jumpi\n        /* \"#utility.yul\":3278:3357   */\n      tag_193\n      tag_194\n      jump\t// in\n    tag_193:\n        /* \"#utility.yul\":3242:3359   */\n    tag_192:\n        /* \"#utility.yul\":3391:3471   */\n      tag_195\n        /* \"#utility.yul\":3463:3470   */\n      dup10\n        /* \"#utility.yul\":3454:3460   */\n      dup3\n        /* \"#utility.yul\":3443:3452   */\n      dup11\n        /* \"#utility.yul\":3439:3461   */\n      add\n        /* \"#utility.yul\":3391:3471   */\n      tag_163\n      jump\t// in\n    tag_195:\n        /* \"#utility.yul\":3373:3471   */\n      swap7\n      pop\n      swap7\n      pop\n        /* \"#utility.yul\":3169:3481   */\n      pop\n        /* \"#utility.yul\":3548:3550   */\n      0x20\n        /* \"#utility.yul\":3537:3546   */\n      dup8\n        /* \"#utility.yul\":3533:3551   */\n      add\n        /* \"#utility.yul\":3520:3552   */\n      calldataload\n        /* \"#utility.yul\":3579:3597   */\n      0xffffffffffffffff\n        /* \"#utility.yul\":3571:3577   */\n      dup2\n        /* \"#utility.yul\":3568:3598   */\n      gt\n        /* \"#utility.yul\":3565:3682   */\n      iszero\n      tag_196\n      jumpi\n        /* \"#utility.yul\":3601:3680   */\n      tag_197\n      tag_194\n      jump\t// in\n    tag_197:\n        /* \"#utility.yul\":3565:3682   */\n    tag_196:\n        /* \"#utility.yul\":3714:3791   */\n      tag_198\n        /* \"#utility.yul\":3783:3790   */\n      dup10\n        /* \"#utility.yul\":3774:3780   */\n      dup3\n        /* \"#utility.yul\":3763:3772   */\n      dup11\n        /* \"#utility.yul\":3759:3781   */\n      add\n        /* \"#utility.yul\":3714:3791   */\n      tag_144\n      jump\t// in\n    tag_198:\n        /* \"#utility.yul\":3696:3791   */\n      swap5\n      pop\n      swap5\n      pop\n        /* \"#utility.yul\":3491:3801   */\n      pop\n        /* \"#utility.yul\":3868:3870   */\n      0x40\n        /* \"#utility.yul\":3857:3866   */\n      dup8\n        /* \"#utility.yul\":3853:3871   */\n      add\n        /* \"#utility.yul\":3840:3872   */\n      calldataload\n        /* \"#utility.yul\":3899:3917   */\n      0xffffffffffffffff\n        /* \"#utility.yul\":3891:3897   */\n      dup2\n        /* \"#utility.yul\":3888:3918   */\n      gt\n        /* \"#utility.yul\":3885:4002   */\n      iszero\n      tag_199\n      jumpi\n        /* \"#utility.yul\":3921:4000   */\n      tag_200\n      tag_194\n      jump\t// in\n    tag_200:\n        /* \"#utility.yul\":3885:4002   */\n    tag_199:\n        /* \"#utility.yul\":4034:4114   */\n      tag_201\n        /* \"#utility.yul\":4106:4113   */\n      dup10\n        /* \"#utility.yul\":4097:4103   */\n      dup3\n        /* \"#utility.yul\":4086:4095   */\n      dup11\n        /* \"#utility.yul\":4082:4104   */\n      add\n        /* \"#utility.yul\":4034:4114   */\n      tag_155\n      jump\t// in\n    tag_201:\n        /* \"#utility.yul\":4016:4114   */\n      swap3\n      pop\n      swap3\n      pop\n        /* \"#utility.yul\":3811:4124   */\n      pop\n        /* \"#utility.yul\":2828:4131   */\n      swap3\n      swap6\n      pop\n      swap3\n      swap6\n      pop\n      swap3\n      swap6\n      jump\t// out\n        /* \"#utility.yul\":4137:4460   */\n    tag_112:\n        /* \"#utility.yul\":4193:4199   */\n      0x00\n        /* \"#utility.yul\":4242:4244   */\n      0x20\n        /* \"#utility.yul\":4230:4239   */\n      dup3\n        /* \"#utility.yul\":4221:4228   */\n      dup5\n        /* \"#utility.yul\":4217:4240   */\n      sub\n        /* \"#utility.yul\":4213:4245   */\n      slt\n        /* \"#utility.yul\":4210:4329   */\n      iszero\n      tag_203\n      jumpi\n        /* \"#utility.yul\":4248:4327   */\n      tag_204\n      tag_186\n      jump\t// in\n    tag_204:\n        /* \"#utility.yul\":4210:4329   */\n    tag_203:\n        /* \"#utility.yul\":4368:4369   */\n      0x00\n        /* \"#utility.yul\":4393:4443   */\n      tag_205\n        /* \"#utility.yul\":4435:4442   */\n      dup5\n        /* \"#utility.yul\":4426:4432   */\n      dup3\n        /* \"#utility.yul\":4415:4424   */\n      dup6\n        /* \"#utility.yul\":4411:4433   */\n      add\n        /* \"#utility.yul\":4393:4443   */\n      tag_171\n      jump\t// in\n    tag_205:\n        /* \"#utility.yul\":4383:4443   */\n      swap2\n      pop\n        /* \"#utility.yul\":4339:4453   */\n      pop\n        /* \"#utility.yul\":4137:4460   */\n      swap3\n      swap2\n      pop\n      pop\n      jump\t// out\n        /* \"#utility.yul\":4466:4795   */\n    tag_62:\n        /* \"#utility.yul\":4525:4531   */\n      0x00\n        /* \"#utility.yul\":4574:4576   */\n      0x20\n        /* \"#utility.yul\":4562:4571   */\n      dup3\n        /* \"#utility.yul\":4553:4560   */\n      dup5\n        /* \"#utility.yul\":4549:4572   */\n      sub\n        /* \"#utility.yul\":4545:4577   */\n      slt\n        /* \"#utility.yul\":4542:4661   */\n      iszero\n      tag_207\n      jumpi\n        /* \"#utility.yul\":4580:4659   */\n      tag_208\n      tag_186\n      jump\t// in\n    tag_208:\n        /* \"#utility.yul\":4542:4661   */\n    tag_207:\n        /* \"#utility.yul\":4700:4701   */\n      0x00\n        /* \"#utility.yul\":4725:4778   */\n      tag_209\n        /* \"#utility.yul\":4770:4777   */\n      dup5\n        /* \"#utility.yul\":4761:4767   */\n      dup3\n        /* \"#utility.yul\":4750:4759   */\n      dup6\n        /* \"#utility.yul\":4746:4768   */\n      add\n        /* \"#utility.yul\":4725:4778   */\n      tag_175\n      jump\t// in\n    tag_209:\n        /* \"#utility.yul\":4715:4778   */\n      swap2\n      pop\n        /* \"#utility.yul\":4671:4788   */\n      pop\n        /* \"#utility.yul\":4466:4795   */\n      swap3\n      swap2\n      pop\n      pop\n      jump\t// out\n        /* \"#utility.yul\":4801:5414   */\n    tag_46:\n        /* \"#utility.yul\":4875:4881   */\n      0x00\n        /* \"#utility.yul\":4883:4889   */\n      dup1\n        /* \"#utility.yul\":4891:4897   */\n      0x00\n        /* \"#utility.yul\":4940:4942   */\n      0x60\n        /* \"#utility.yul\":4928:4937   */\n      dup5\n        /* \"#utility.yul\":4919:4926   */\n      dup7\n        /* \"#utility.yul\":4915:4938   */\n      sub\n        /* \"#utility.yul\":4911:4943   */\n      slt\n        /* \"#utility.yul\":4908:5027   */\n      iszero\n      tag_211\n      jumpi\n        /* \"#utility.yul\":4946:5025   */\n      tag_212\n      tag_186\n      jump\t// in\n    tag_212:\n        /* \"#utility.yul\":4908:5027   */\n    tag_211:\n        /* \"#utility.yul\":5066:5067   */\n      0x00\n        /* \"#utility.yul\":5091:5144   */\n      tag_213\n        /* \"#utility.yul\":5136:5143   */\n      dup7\n        /* \"#utility.yul\":5127:5133   */\n      dup3\n        /* \"#utility.yul\":5116:5125   */\n      dup8\n        /* \"#utility.yul\":5112:5134   */\n      add\n        /* \"#utility.yul\":5091:5144   */\n      tag_179\n      jump\t// in\n    tag_213:\n        /* \"#utility.yul\":5081:5144   */\n      swap4\n      pop\n        /* \"#utility.yul\":5037:5154   */\n      pop\n        /* \"#utility.yul\":5193:5195   */\n      0x20\n        /* \"#utility.yul\":5219:5269   */\n      tag_214\n        /* \"#utility.yul\":5261:5268   */\n      dup7\n        /* \"#utility.yul\":5252:5258   */\n      dup3\n        /* \"#utility.yul\":5241:5250   */\n      dup8\n        /* \"#utility.yul\":5237:5259   */\n      add\n        /* \"#utility.yul\":5219:5269   */\n      tag_171\n      jump\t// in\n    tag_214:\n        /* \"#utility.yul\":5209:5269   */\n      swap3\n      pop\n        /* \"#utility.yul\":5164:5279   */\n      pop\n        /* \"#utility.yul\":5318:5320   */\n      0x40\n        /* \"#utility.yul\":5344:5397   */\n      tag_215\n        /* \"#utility.yul\":5389:5396   */\n      dup7\n        /* \"#utility.yul\":5380:5386   */\n      dup3\n        /* \"#utility.yul\":5369:5378   */\n      dup8\n        /* \"#utility.yul\":5365:5387   */\n      add\n        /* \"#utility.yul\":5344:5397   */\n      tag_175\n      jump\t// in\n    tag_215:\n        /* \"#utility.yul\":5334:5397   */\n      swap2\n      pop\n        /* \"#utility.yul\":5289:5407   */\n      pop\n        /* \"#utility.yul\":4801:5414   */\n      swap3\n      pop\n      swap3\n      pop\n      swap3\n      jump\t// out\n        /* \"#utility.yul\":5420:5562   */\n    tag_216:\n        /* \"#utility.yul\":5523:5555   */\n      tag_218\n        /* \"#utility.yul\":5549:5554   */\n      dup2\n        /* \"#utility.yul\":5523:5555   */\n      tag_219\n      jump\t// in\n    tag_218:\n        /* \"#utility.yul\":5518:5521   */\n      dup3\n        /* \"#utility.yul\":5511:5556   */\n      mstore\n        /* \"#utility.yul\":5420:5562   */\n      pop\n      pop\n      jump\t// out\n        /* \"#utility.yul\":5568:5686   */\n    tag_220:\n        /* \"#utility.yul\":5655:5679   */\n      tag_222\n        /* \"#utility.yul\":5673:5678   */\n      dup2\n        /* \"#utility.yul\":5655:5679   */\n      tag_223\n      jump\t// in\n    tag_222:\n        /* \"#utility.yul\":5650:5653   */\n      dup3\n        /* \"#utility.yul\":5643:5680   */\n      mstore\n        /* \"#utility.yul\":5568:5686   */\n      pop\n      pop\n      jump\t// out\n        /* \"#utility.yul\":5692:5801   */\n    tag_224:\n        /* \"#utility.yul\":5773:5794   */\n      tag_226\n        /* \"#utility.yul\":5788:5793   */\n      dup2\n        /* \"#utility.yul\":5773:5794   */\n      tag_227\n      jump\t// in\n    tag_226:\n        /* \"#utility.yul\":5768:5771   */\n      dup3\n        /* \"#utility.yul\":5761:5795   */\n      mstore\n        /* \"#utility.yul\":5692:5801   */\n      pop\n      pop\n      jump\t// out\n        /* \"#utility.yul\":5807:5952   */\n    tag_228:\n        /* \"#utility.yul\":5906:5945   */\n      tag_230\n        /* \"#utility.yul\":5923:5944   */\n      tag_231\n        /* \"#utility.yul\":5938:5943   */\n      dup3\n        /* \"#utility.yul\":5923:5944   */\n      tag_227\n      jump\t// in\n    tag_231:\n        /* \"#utility.yul\":5906:5945   */\n      tag_232\n      jump\t// in\n    tag_230:\n        /* \"#utility.yul\":5901:5904   */\n      dup3\n        /* \"#utility.yul\":5894:5946   */\n      mstore\n        /* \"#utility.yul\":5807:5952   */\n      pop\n      pop\n      jump\t// out\n        /* \"#utility.yul\":5958:6076   */\n    tag_233:\n        /* \"#utility.yul\":6045:6069   */\n      tag_235\n        /* \"#utility.yul\":6063:6068   */\n      dup2\n        /* \"#utility.yul\":6045:6069   */\n      tag_236\n      jump\t// in\n    tag_235:\n        /* \"#utility.yul\":6040:6043   */\n      dup3\n        /* \"#utility.yul\":6033:6070   */\n      mstore\n        /* \"#utility.yul\":5958:6076   */\n      pop\n      pop\n      jump\t// out\n        /* \"#utility.yul\":6082:6239   */\n    tag_237:\n        /* \"#utility.yul\":6187:6232   */\n      tag_239\n        /* \"#utility.yul\":6207:6231   */\n      tag_240\n        /* \"#utility.yul\":6225:6230   */\n      dup3\n        /* \"#utility.yul\":6207:6231   */\n      tag_236\n      jump\t// in\n    tag_240:\n        /* \"#utility.yul\":6187:6232   */\n      tag_241\n      jump\t// in\n    tag_239:\n        /* \"#utility.yul\":6182:6185   */\n      dup3\n        /* \"#utility.yul\":6175:6233   */\n      mstore\n        /* \"#utility.yul\":6082:6239   */\n      pop\n      pop\n      jump\t// out\n        /* \"#utility.yul\":6245:6363   */\n    tag_242:\n        /* \"#utility.yul\":6332:6356   */\n      tag_244\n        /* \"#utility.yul\":6350:6355   */\n      dup2\n        /* \"#utility.yul\":6332:6356   */\n      tag_245\n      jump\t// in\n    tag_244:\n        /* \"#utility.yul\":6327:6330   */\n      dup3\n        /* \"#utility.yul\":6320:6357   */\n      mstore\n        /* \"#utility.yul\":6245:6363   */\n      pop\n      pop\n      jump\t// out\n        /* \"#utility.yul\":6369:6526   */\n    tag_246:\n        /* \"#utility.yul\":6474:6519   */\n      tag_248\n        /* \"#utility.yul\":6494:6518   */\n      tag_249\n        /* \"#utility.yul\":6512:6517   */\n      dup3\n        /* \"#utility.yul\":6494:6518   */\n      tag_245\n      jump\t// in\n    tag_249:\n        /* \"#utility.yul\":6474:6519   */\n      tag_250\n      jump\t// in\n    tag_248:\n        /* \"#utility.yul\":6469:6472   */\n      dup3\n        /* \"#utility.yul\":6462:6520   */\n      mstore\n        /* \"#utility.yul\":6369:6526   */\n      pop\n      pop\n      jump\t// out\n        /* \"#utility.yul\":6532:7057   */\n    tag_89:\n        /* \"#utility.yul\":6694:6697   */\n      0x00\n        /* \"#utility.yul\":6709:6784   */\n      tag_252\n        /* \"#utility.yul\":6780:6783   */\n      dup3\n        /* \"#utility.yul\":6771:6777   */\n      dup7\n        /* \"#utility.yul\":6709:6784   */\n      tag_246\n      jump\t// in\n    tag_252:\n        /* \"#utility.yul\":6809:6811   */\n      0x20\n        /* \"#utility.yul\":6804:6807   */\n      dup3\n        /* \"#utility.yul\":6800:6812   */\n      add\n        /* \"#utility.yul\":6793:6812   */\n      swap2\n      pop\n        /* \"#utility.yul\":6822:6891   */\n      tag_253\n        /* \"#utility.yul\":6887:6890   */\n      dup3\n        /* \"#utility.yul\":6878:6884   */\n      dup6\n        /* \"#utility.yul\":6822:6891   */\n      tag_228\n      jump\t// in\n    tag_253:\n        /* \"#utility.yul\":6916:6917   */\n      0x01\n        /* \"#utility.yul\":6911:6914   */\n      dup3\n        /* \"#utility.yul\":6907:6918   */\n      add\n        /* \"#utility.yul\":6900:6918   */\n      swap2\n      pop\n        /* \"#utility.yul\":6928:7003   */\n      tag_254\n        /* \"#utility.yul\":6999:7002   */\n      dup3\n        /* \"#utility.yul\":6990:6996   */\n      dup5\n        /* \"#utility.yul\":6928:7003   */\n      tag_237\n      jump\t// in\n    tag_254:\n        /* \"#utility.yul\":7028:7030   */\n      0x20\n        /* \"#utility.yul\":7023:7026   */\n      dup3\n        /* \"#utility.yul\":7019:7031   */\n      add\n        /* \"#utility.yul\":7012:7031   */\n      swap2\n      pop\n        /* \"#utility.yul\":7048:7051   */\n      dup2\n        /* \"#utility.yul\":7041:7051   */\n      swap1\n      pop\n        /* \"#utility.yul\":6532:7057   */\n      swap5\n      swap4\n      pop\n      pop\n      pop\n      pop\n      jump\t// out\n        /* \"#utility.yul\":7063:7285   */\n    tag_59:\n        /* \"#utility.yul\":7156:7160   */\n      0x00\n        /* \"#utility.yul\":7194:7196   */\n      0x20\n        /* \"#utility.yul\":7183:7192   */\n      dup3\n        /* \"#utility.yul\":7179:7197   */\n      add\n        /* \"#utility.yul\":7171:7197   */\n      swap1\n      pop\n        /* \"#utility.yul\":7207:7278   */\n      tag_256\n        /* \"#utility.yul\":7275:7276   */\n      0x00\n        /* \"#utility.yul\":7264:7273   */\n      dup4\n        /* \"#utility.yul\":7260:7277   */\n      add\n        /* \"#utility.yul\":7251:7257   */\n      dup5\n        /* \"#utility.yul\":7207:7278   */\n      tag_220\n      jump\t// in\n    tag_256:\n        /* \"#utility.yul\":7063:7285   */\n      swap3\n      swap2\n      pop\n      pop\n      jump\t// out\n        /* \"#utility.yul\":7291:7545   */\n    tag_34:\n        /* \"#utility.yul\":7400:7404   */\n      0x00\n        /* \"#utility.yul\":7438:7440   */\n      0x20\n        /* \"#utility.yul\":7427:7436   */\n      dup3\n        /* \"#utility.yul\":7423:7441   */\n      add\n        /* \"#utility.yul\":7415:7441   */\n      swap1\n      pop\n        /* \"#utility.yul\":7451:7538   */\n      tag_258\n        /* \"#utility.yul\":7535:7536   */\n      0x00\n        /* \"#utility.yul\":7524:7533   */\n      dup4\n        /* \"#utility.yul\":7520:7537   */\n      add\n        /* \"#utility.yul\":7511:7517   */\n      dup5\n        /* \"#utility.yul\":7451:7538   */\n      tag_216\n      jump\t// in\n    tag_258:\n        /* \"#utility.yul\":7291:7545   */\n      swap3\n      swap2\n      pop\n      pop\n      jump\t// out\n        /* \"#utility.yul\":7551:7883   */\n    tag_80:\n        /* \"#utility.yul\":7672:7676   */\n      0x00\n        /* \"#utility.yul\":7710:7712   */\n      0x40\n        /* \"#utility.yul\":7699:7708   */\n      dup3\n        /* \"#utility.yul\":7695:7713   */\n      add\n        /* \"#utility.yul\":7687:7713   */\n      swap1\n      pop\n        /* \"#utility.yul\":7723:7794   */\n      tag_260\n        /* \"#utility.yul\":7791:7792   */\n      0x00\n        /* \"#utility.yul\":7780:7789   */\n      dup4\n        /* \"#utility.yul\":7776:7793   */\n      add\n        /* \"#utility.yul\":7767:7773   */\n      dup6\n        /* \"#utility.yul\":7723:7794   */\n      tag_220\n      jump\t// in\n    tag_260:\n        /* \"#utility.yul\":7804:7876   */\n      tag_261\n        /* \"#utility.yul\":7872:7874   */\n      0x20\n        /* \"#utility.yul\":7861:7870   */\n      dup4\n        /* \"#utility.yul\":7857:7875   */\n      add\n        /* \"#utility.yul\":7848:7854   */\n      dup5\n        /* \"#utility.yul\":7804:7876   */\n      tag_242\n      jump\t// in\n    tag_261:\n        /* \"#utility.yul\":7551:7883   */\n      swap4\n      swap3\n      pop\n      pop\n      pop\n      jump\t// out\n        /* \"#utility.yul\":7889:8099   */\n    tag_26:\n        /* \"#utility.yul\":7976:7980   */\n      0x00\n        /* \"#utility.yul\":8014:8016   */\n      0x20\n        /* \"#utility.yul\":8003:8012   */\n      dup3\n        /* \"#utility.yul\":7999:8017   */\n      add\n        /* \"#utility.yul\":7991:8017   */\n      swap1\n      pop\n        /* \"#utility.yul\":8027:8092   */\n      tag_263\n        /* \"#utility.yul\":8089:8090   */\n      0x00\n        /* \"#utility.yul\":8078:8087   */\n      dup4\n        /* \"#utility.yul\":8074:8091   */\n      add\n        /* \"#utility.yul\":8065:8071   */\n      dup5\n        /* \"#utility.yul\":8027:8092   */\n      tag_224\n      jump\t// in\n    tag_263:\n        /* \"#utility.yul\":7889:8099   */\n      swap3\n      swap2\n      pop\n      pop\n      jump\t// out\n        /* \"#utility.yul\":8105:8327   */\n    tag_49:\n        /* \"#utility.yul\":8198:8202   */\n      0x00\n        /* \"#utility.yul\":8236:8238   */\n      0x20\n        /* \"#utility.yul\":8225:8234   */\n      dup3\n        /* \"#utility.yul\":8221:8239   */\n      add\n        /* \"#utility.yul\":8213:8239   */\n      swap1\n      pop\n        /* \"#utility.yul\":8249:8320   */\n      tag_265\n        /* \"#utility.yul\":8317:8318   */\n      0x00\n        /* \"#utility.yul\":8306:8315   */\n      dup4\n        /* \"#utility.yul\":8302:8319   */\n      add\n        /* \"#utility.yul\":8293:8299   */\n      dup5\n        /* \"#utility.yul\":8249:8320   */\n      tag_233\n      jump\t// in\n    tag_265:\n        /* \"#utility.yul\":8105:8327   */\n      swap3\n      swap2\n      pop\n      pop\n      jump\t// out\n        /* \"#utility.yul\":8333:8665   */\n    tag_21:\n        /* \"#utility.yul\":8454:8458   */\n      0x00\n        /* \"#utility.yul\":8492:8494   */\n      0x40\n        /* \"#utility.yul\":8481:8490   */\n      dup3\n        /* \"#utility.yul\":8477:8495   */\n      add\n        /* \"#utility.yul\":8469:8495   */\n      swap1\n      pop\n        /* \"#utility.yul\":8505:8576   */\n      tag_267\n        /* \"#utility.yul\":8573:8574   */\n      0x00\n        /* \"#utility.yul\":8562:8571   */\n      dup4\n        /* \"#utility.yul\":8558:8575   */\n      add\n        /* \"#utility.yul\":8549:8555   */\n      dup6\n        /* \"#utility.yul\":8505:8576   */\n      tag_233\n      jump\t// in\n    tag_267:\n        /* \"#utility.yul\":8586:8658   */\n      tag_268\n        /* \"#utility.yul\":8654:8656   */\n      0x20\n        /* \"#utility.yul\":8643:8652   */\n      dup4\n        /* \"#utility.yul\":8639:8657   */\n      add\n        /* \"#utility.yul\":8630:8636   */\n      dup5\n        /* \"#utility.yul\":8586:8658   */\n      tag_242\n      jump\t// in\n    tag_268:\n        /* \"#utility.yul\":8333:8665   */\n      swap4\n      swap3\n      pop\n      pop\n      pop\n      jump\t// out\n        /* \"#utility.yul\":8671:8893   */\n    tag_42:\n        /* \"#utility.yul\":8764:8768   */\n      0x00\n        /* \"#utility.yul\":8802:8804   */\n      0x20\n        /* \"#utility.yul\":8791:8800   */\n      dup3\n        /* \"#utility.yul\":8787:8805   */\n      add\n        /* \"#utility.yul\":8779:8805   */\n      swap1\n      pop\n        /* \"#utility.yul\":8815:8886   */\n      tag_270\n        /* \"#utility.yul\":8883:8884   */\n      0x00\n        /* \"#utility.yul\":8872:8881   */\n      dup4\n        /* \"#utility.yul\":8868:8885   */\n      add\n        /* \"#utility.yul\":8859:8865   */\n      dup5\n        /* \"#utility.yul\":8815:8886   */\n      tag_242\n      jump\t// in\n    tag_270:\n        /* \"#utility.yul\":8671:8893   */\n      swap3\n      swap2\n      pop\n      pop\n      jump\t// out\n        /* \"#utility.yul\":8980:9285   */\n    tag_118:\n        /* \"#utility.yul\":9020:9023   */\n      0x00\n        /* \"#utility.yul\":9039:9059   */\n      tag_274\n        /* \"#utility.yul\":9057:9058   */\n      dup3\n        /* \"#utility.yul\":9039:9059   */\n      tag_245\n      jump\t// in\n    tag_274:\n        /* \"#utility.yul\":9034:9059   */\n      swap2\n      pop\n        /* \"#utility.yul\":9073:9093   */\n      tag_275\n        /* \"#utility.yul\":9091:9092   */\n      dup4\n        /* \"#utility.yul\":9073:9093   */\n      tag_245\n      jump\t// in\n    tag_275:\n        /* \"#utility.yul\":9068:9093   */\n      swap3\n      pop\n        /* \"#utility.yul\":9227:9228   */\n      dup3\n        /* \"#utility.yul\":9159:9225   */\n      0xffffffffffffffffffffffffffffffffffffffffffffffffffffffffffffffff\n        /* \"#utility.yul\":9155:9229   */\n      sub\n        /* \"#utility.yul\":9152:9153   */\n      dup3\n        /* \"#utility.yul\":9149:9230   */\n      gt\n        /* \"#utility.yul\":9146:9253   */\n      iszero\n      tag_276\n      jumpi\n        /* \"#utility.yul\":9233:9251   */\n      tag_277\n      tag_278\n      jump\t// in\n    tag_277:\n        /* \"#utility.yul\":9146:9253   */\n    tag_276:\n        /* \"#utility.yul\":9277:9278   */\n      dup3\n        /* \"#utility.yul\":9274:9275   */\n      dup3\n        /* \"#utility.yul\":9270:9279   */\n      add\n        /* \"#utility.yul\":9263:9279   */\n      swap1\n      pop\n        /* \"#utility.yul\":8980:9285   */\n      swap3\n      swap2\n      pop\n      pop\n      jump\t// out\n        /* \"#utility.yul\":9291:9482   */\n    tag_125:\n        /* \"#utility.yul\":9331:9335   */\n      0x00\n        /* \"#utility.yul\":9351:9371   */\n      tag_280\n        /* \"#utility.yul\":9369:9370   */\n      dup3\n        /* \"#utility.yul\":9351:9371   */\n      tag_245\n      jump\t// in\n    tag_280:\n        /* \"#utility.yul\":9346:9371   */\n      swap2\n      pop\n        /* \"#utility.yul\":9385:9405   */\n      tag_281\n        /* \"#utility.yul\":9403:9404   */\n      dup4\n        /* \"#utility.yul\":9385:9405   */\n      tag_245\n      jump\t// in\n    tag_281:\n        /* \"#utility.yul\":9380:9405   */\n      swap3\n      pop\n        /* \"#utility.yul\":9424:9425   */\n      dup3\n        /* \"#utility.yul\":9421:9422   */\n      dup3\n        /* \"#utility.yul\":9418:9426   */\n      lt\n        /* \"#utility.yul\":9415:9449   */\n      iszero\n      tag_282\n      jumpi\n        /* \"#utility.yul\":9429:9447   */\n      tag_283\n      tag_278\n      jump\t// in\n    tag_283:\n        /* \"#utility.yul\":9415:9449   */\n    tag_282:\n        /* \"#utility.yul\":9474:9475   */\n      dup3\n        /* \"#utility.yul\":9471:9472   */\n      dup3\n        /* \"#utility.yul\":9467:9476   */\n      sub\n        /* \"#utility.yul\":9459:9476   */\n      swap1\n      pop\n        /* \"#utility.yul\":9291:9482   */\n      swap3\n      swap2\n      pop\n      pop\n      jump\t// out\n        /* \"#utility.yul\":9488:9584   */\n    tag_223:\n        /* \"#utility.yul\":9525:9532   */\n      0x00\n        /* \"#utility.yul\":9554:9578   */\n      tag_285\n        /* \"#utility.yul\":9572:9577   */\n      dup3\n        /* \"#utility.yul\":9554:9578   */\n      tag_286\n      jump\t// in\n    tag_285:\n        /* \"#utility.yul\":9543:9578   */\n      swap1\n      pop\n        /* \"#utility.yul\":9488:9584   */\n      swap2\n      swap1\n      pop\n      jump\t// out\n        /* \"#utility.yul\":9590:9694   */\n    tag_219:\n        /* \"#utility.yul\":9635:9642   */\n      0x00\n        /* \"#utility.yul\":9664:9688   */\n      tag_288\n        /* \"#utility.yul\":9682:9687   */\n      dup3\n        /* \"#utility.yul\":9664:9688   */\n      tag_286\n      jump\t// in\n    tag_288:\n        /* \"#utility.yul\":9653:9688   */\n      swap1\n      pop\n        /* \"#utility.yul\":9590:9694   */\n      swap2\n      swap1\n      pop\n      jump\t// out\n        /* \"#utility.yul\":9700:9790   */\n    tag_227:\n        /* \"#utility.yul\":9734:9741   */\n      0x00\n        /* \"#utility.yul\":9777:9782   */\n      dup2\n        /* \"#utility.yul\":9770:9783   */\n      iszero\n        /* \"#utility.yul\":9763:9784   */\n      iszero\n        /* \"#utility.yul\":9752:9784   */\n      swap1\n      pop\n        /* \"#utility.yul\":9700:9790   */\n      swap2\n      swap1\n      pop\n      jump\t// out\n        /* \"#utility.yul\":9796:9873   */\n    tag_236:\n        /* \"#utility.yul\":9833:9840   */\n      0x00\n        /* \"#utility.yul\":9862:9867   */\n      dup2\n        /* \"#utility.yul\":9851:9867   */\n      swap1\n      pop\n        /* \"#utility.yul\":9796:9873   */\n      swap2\n      swap1\n      pop\n      jump\t// out\n        /* \"#utility.yul\":9879:10005   */\n    tag_286:\n        /* \"#utility.yul\":9916:9923   */\n      0x00\n        /* \"#utility.yul\":9956:9998   */\n      0xffffffffffffffffffffffffffffffffffffffff\n        /* \"#utility.yul\":9949:9954   */\n      dup3\n        /* \"#utility.yul\":9945:9999   */\n      and\n        /* \"#utility.yul\":9934:9999   */\n      swap1\n      pop\n        /* \"#utility.yul\":9879:10005   */\n      swap2\n      swap1\n      pop\n      jump\t// out\n        /* \"#utility.yul\":10011:10088   */\n    tag_245:\n        /* \"#utility.yul\":10048:10055   */\n      0x00\n        /* \"#utility.yul\":10077:10082   */\n      dup2\n        /* \"#utility.yul\":10066:10082   */\n      swap1\n      pop\n        /* \"#utility.yul\":10011:10088   */\n      swap2\n      swap1\n      pop\n      jump\t// out\n        /* \"#utility.yul\":10094:10327   */\n    tag_127:\n        /* \"#utility.yul\":10133:10136   */\n      0x00\n        /* \"#utility.yul\":10156:10180   */\n      tag_294\n        /* \"#utility.yul\":10174:10179   */\n      dup3\n        /* \"#utility.yul\":10156:10180   */\n      tag_245\n      jump\t// in\n    tag_294:\n        /* \"#utility.yul\":10147:10180   */\n      swap2\n      pop\n        /* \"#utility.yul\":10202:10268   */\n      0xffffffffffffffffffffffffffffffffffffffffffffffffffffffffffffffff\n        /* \"#utility.yul\":10195:10200   */\n      dup3\n        /* \"#utility.yul\":10192:10269   */\n      eq\n        /* \"#utility.yul\":10189:10292   */\n      iszero\n      tag_295\n      jumpi\n        /* \"#utility.yul\":10272:10290   */\n      tag_296\n      tag_278\n      jump\t// in\n    tag_296:\n        /* \"#utility.yul\":10189:10292   */\n    tag_295:\n        /* \"#utility.yul\":10319:10320   */\n      0x01\n        /* \"#utility.yul\":10312:10317   */\n      dup3\n        /* \"#utility.yul\":10308:10321   */\n      add\n        /* \"#utility.yul\":10301:10321   */\n      swap1\n      pop\n        /* \"#utility.yul\":10094:10327   */\n      swap2\n      swap1\n      pop\n      jump\t// out\n        /* \"#utility.yul\":10333:10428   */\n    tag_232:\n        /* \"#utility.yul\":10369:10376   */\n      0x00\n        /* \"#utility.yul\":10398:10422   */\n      tag_298\n        /* \"#utility.yul\":10416:10421   */\n      dup3\n        /* \"#utility.yul\":10398:10422   */\n      tag_299\n      jump\t// in\n    tag_298:\n        /* \"#utility.yul\":10387:10422   */\n      swap1\n      pop\n        /* \"#utility.yul\":10333:10428   */\n      swap2\n      swap1\n      pop\n      jump\t// out\n        /* \"#utility.yul\":10434:10513   */\n    tag_241:\n        /* \"#utility.yul\":10473:10480   */\n      0x00\n        /* \"#utility.yul\":10502:10507   */\n      dup2\n        /* \"#utility.yul\":10491:10507   */\n      swap1\n      pop\n        /* \"#utility.yul\":10434:10513   */\n      swap2\n      swap1\n      pop\n      jump\t// out\n        /* \"#utility.yul\":10519:10598   */\n    tag_250:\n        /* \"#utility.yul\":10558:10565   */\n      0x00\n        /* \"#utility.yul\":10587:10592   */\n      dup2\n        /* \"#utility.yul\":10576:10592   */\n      swap1\n      pop\n        /* \"#utility.yul\":10519:10598   */\n      swap2\n      swap1\n      pop\n      jump\t// out\n        /* \"#utility.yul\":10604:10697   */\n    tag_299:\n        /* \"#utility.yul\":10641:10648   */\n      0x00\n        /* \"#utility.yul\":10670:10691   */\n      tag_303\n        /* \"#utility.yul\":10685:10690   */\n      dup3\n        /* \"#utility.yul\":10670:10691   */\n      tag_304\n      jump\t// in\n    tag_303:\n        /* \"#utility.yul\":10659:10691   */\n      swap1\n      pop\n        /* \"#utility.yul\":10604:10697   */\n      swap2\n      swap1\n      pop\n      jump\t// out\n        /* \"#utility.yul\":10703:10883   */\n    tag_278:\n        /* \"#utility.yul\":10751:10828   */\n      0x4e487b7100000000000000000000000000000000000000000000000000000000\n        /* \"#utility.yul\":10748:10749   */\n      0x00\n        /* \"#utility.yul\":10741:10829   */\n      mstore\n        /* \"#utility.yul\":10848:10852   */\n      0x11\n        /* \"#utility.yul\":10845:10846   */\n      0x04\n        /* \"#utility.yul\":10838:10853   */\n      mstore\n        /* \"#utility.yul\":10872:10876   */\n      0x24\n        /* \"#utility.yul\":10869:10870   */\n      0x00\n        /* \"#utility.yul\":10862:10877   */\n      revert\n        /* \"#utility.yul\":10889:11069   */\n    tag_105:\n        /* \"#utility.yul\":10937:11014   */\n      0x4e487b7100000000000000000000000000000000000000000000000000000000\n        /* \"#utility.yul\":10934:10935   */\n      0x00\n        /* \"#utility.yul\":10927:11015   */\n      mstore\n        /* \"#utility.yul\":11034:11038   */\n      0x32\n        /* \"#utility.yul\":11031:11032   */\n      0x04\n        /* \"#utility.yul\":11024:11039   */\n      mstore\n        /* \"#utility.yul\":11058:11062   */\n      0x24\n        /* \"#utility.yul\":11055:11056   */\n      0x00\n        /* \"#utility.yul\":11048:11063   */\n      revert\n        /* \"#utility.yul\":11075:11192   */\n    tag_151:\n        /* \"#utility.yul\":11184:11185   */\n      0x00\n        /* \"#utility.yul\":11181:11182   */\n      dup1\n        /* \"#utility.yul\":11174:11186   */\n      revert\n        /* \"#utility.yul\":11198:11315   */\n    tag_148:\n        /* \"#utility.yul\":11307:11308   */\n      0x00\n        /* \"#utility.yul\":11304:11305   */\n      dup1\n        /* \"#utility.yul\":11297:11309   */\n      revert\n        /* \"#utility.yul\":11321:11438   */\n    tag_154:\n        /* \"#utility.yul\":11430:11431   */\n      0x00\n        /* \"#utility.yul\":11427:11428   */\n      dup1\n        /* \"#utility.yul\":11420:11432   */\n      revert\n        /* \"#utility.yul\":11444:11561   */\n    tag_194:\n        /* \"#utility.yul\":11553:11554   */\n      0x00\n        /* \"#utility.yul\":11550:11551   */\n      dup1\n        /* \"#utility.yul\":11543:11555   */\n      revert\n        /* \"#utility.yul\":11567:11684   */\n    tag_186:\n        /* \"#utility.yul\":11676:11677   */\n      0x00\n        /* \"#utility.yul\":11673:11674   */\n      dup1\n        /* \"#utility.yul\":11666:11678   */\n      revert\n        /* \"#utility.yul\":11690:11786   */\n    tag_304:\n        /* \"#utility.yul\":11724:11732   */\n      0x00\n        /* \"#utility.yul\":11773:11778   */\n      dup2\n        /* \"#utility.yul\":11768:11771   */\n      0xf8\n        /* \"#utility.yul\":11764:11779   */\n      shl\n        /* \"#utility.yul\":11743:11779   */\n      swap1\n      pop\n        /* \"#utility.yul\":11690:11786   */\n      swap2\n      swap1\n      pop\n      jump\t// out\n        /* \"#utility.yul\":11792:11914   */\n    tag_143:\n        /* \"#utility.yul\":11865:11889   */\n      tag_314\n        /* \"#utility.yul\":11883:11888   */\n      dup2\n        /* \"#utility.yul\":11865:11889   */\n      tag_223\n      jump\t// in\n    tag_314:\n        /* \"#utility.yul\":11858:11863   */\n      dup2\n        /* \"#utility.yul\":11855:11890   */\n      eq\n        /* \"#utility.yul\":11845:11908   */\n      tag_315\n      jumpi\n        /* \"#utility.yul\":11904:11905   */\n      0x00\n        /* \"#utility.yul\":11901:11902   */\n      dup1\n        /* \"#utility.yul\":11894:11906   */\n      revert\n        /* \"#utility.yul\":11845:11908   */\n    tag_315:\n        /* \"#utility.yul\":11792:11914   */\n      pop\n      jump\t// out\n        /* \"#utility.yul\":11920:12036   */\n    tag_174:\n        /* \"#utility.yul\":11990:12011   */\n      tag_317\n        /* \"#utility.yul\":12005:12010   */\n      dup2\n        /* \"#utility.yul\":11990:12011   */\n      tag_227\n      jump\t// in\n    tag_317:\n        /* \"#utility.yul\":11983:11988   */\n      dup2\n        /* \"#utility.yul\":11980:12012   */\n      eq\n        /* \"#utility.yul\":11970:12030   */\n      tag_318\n      jumpi\n        /* \"#utility.yul\":12026:12027   */\n      0x00\n        /* \"#utility.yul\":12023:12024   */\n      dup1\n        /* \"#utility.yul\":12016:12028   */\n      revert\n        /* \"#utility.yul\":11970:12030   */\n    tag_318:\n        /* \"#utility.yul\":11920:12036   */\n      pop\n      jump\t// out\n        /* \"#utility.yul\":12042:12164   */\n    tag_178:\n        /* \"#utility.yul\":12115:12139   */\n      tag_320\n        /* \"#utility.yul\":12133:12138   */\n      dup2\n        /* \"#utility.yul\":12115:12139   */\n      tag_236\n      jump\t// in\n    tag_320:\n        /* \"#utility.yul\":12108:12113   */\n      dup2\n        /* \"#utility.yul\":12105:12140   */\n      eq\n        /* \"#utility.yul\":12095:12158   */\n      tag_321\n      jumpi\n        /* \"#utility.yul\":12154:12155   */\n      0x00\n        /* \"#utility.yul\":12151:12152   */\n      dup1\n        /* \"#utility.yul\":12144:12156   */\n      revert\n        /* \"#utility.yul\":12095:12158   */\n    tag_321:\n        /* \"#utility.yul\":12042:12164   */\n      pop\n      jump\t// out\n        /* \"#utility.yul\":12170:12292   */\n    tag_182:\n        /* \"#utility.yul\":12243:12267   */\n      tag_323\n        /* \"#utility.yul\":12261:12266   */\n      dup2\n        /* \"#utility.yul\":12243:12267   */\n      tag_245\n      jump\t// in\n    tag_323:\n        /* \"#utility.yul\":12236:12241   */\n      dup2\n        /* \"#utility.yul\":12233:12268   */\n      eq\n        /* \"#utility.yul\":12223:12286   */\n      tag_324\n      jumpi\n        /* \"#utility.yul\":12282:12283   */\n      0x00\n        /* \"#utility.yul\":12279:12280   */\n      dup1\n        /* \"#utility.yul\":12272:12284   */\n      revert\n        /* \"#utility.yul\":12223:12286   */\n    tag_324:\n        /* \"#utility.yul\":12170:12292   */\n      pop\n      jump\t// out\n\n    auxdata: 0xa2646970667358221220e13ffb74b8acb077dd60fdad24f45fe9ec20dfe902dd80e73dca5612aaadd57564736f6c63430008070033\n}\n",
				"bytecode": {
					"linkReferences": {},
					"object": "60806040523480156200001157600080fd5b506040516200142a3803806200142a8339818101604052810190620000379190620000d8565b806000806101000a81548173ffffffffffffffffffffffffffffffffffffffff021916908373ffffffffffffffffffffffffffffffffffffffff160217905550824262000085919062000134565b600181905550816001546200009b919062000134565b60028190555050505062000237565b600081519050620000bb8162000203565b92915050565b600081519050620000d2816200021d565b92915050565b600080600060608486031215620000f457620000f3620001fe565b5b60006200010486828701620000c1565b93505060206200011786828701620000c1565b92505060406200012a86828701620000aa565b9150509250925092565b60006200014182620001c5565b91506200014e83620001c5565b9250827fffffffffffffffffffffffffffffffffffffffffffffffffffffffffffffffff03821115620001865762000185620001cf565b5b828201905092915050565b60006200019e82620001a5565b9050919050565b600073ffffffffffffffffffffffffffffffffffffffff82169050919050565b6000819050919050565b7f4e487b7100000000000000000000000000000000000000000000000000000000600052601160045260246000fd5b600080fd5b6200020e8162000191565b81146200021a57600080fd5b50565b6200022881620001c5565b81146200023457600080fd5b50565b6111e380620002476000396000f3fe6080604052600436106100a75760003560e01c806362f3db771161006457806362f3db7714610199578063900f080a146101d657806391f90157146101ff578063957bb1e01461022a578063a6e6647714610246578063d57bde7914610271576100a7565b806301495c1c146100ac57806312fa6feb146100ea5780632a24f46c1461011557806338af3eed1461012c5780633ccfd60b14610157578063423b217f1461016e575b600080fd5b3480156100b857600080fd5b506100d360048036038101906100ce9190610c17565b61029c565b6040516100e1929190610f1a565b60405180910390f35b3480156100f657600080fd5b506100ff6102dd565b60405161010c9190610ee4565b60405180910390f35b34801561012157600080fd5b5061012a6102f0565b005b34801561013857600080fd5b50610141610462565b60405161014e9190610ea0565b60405180910390f35b34801561016357600080fd5b5061016c610486565b005b34801561017a57600080fd5b50610183610563565b6040516101909190610f43565b60405180910390f35b3480156101a557600080fd5b506101c060048036038101906101bb9190610d65565b610569565b6040516101cd9190610eff565b60405180910390f35b3480156101e257600080fd5b506101fd60048036038101906101f89190610c57565b61059f565b005b34801561020b57600080fd5b50610214610879565b6040516102219190610e85565b60405180910390f35b610244600480360381019061023f9190610d38565b61089f565b005b34801561025257600080fd5b5061025b61097d565b6040516102689190610f43565b60405180910390f35b34801561027d57600080fd5b50610286610983565b6040516102939190610f43565b60405180910390f35b600460205281600052604060002081815481106102b857600080fd5b9060005260206000209060020201600091509150508060000154908060010154905082565b600360009054906101000a900460ff1681565b60025480421161033757806040517f2a35a32400000000000000000000000000000000000000000000000000000000815260040161032e9190610f43565b60405180910390fd5b600360009054906101000a900460ff161561037e576040517f61cfdcf800000000000000000000000000000000000000000000000000000000815260040160405180910390fd5b7fdaec4582d5d9595688c8c98545fdd1c696d41c6aeaeb636737e84ed2f5c00eda600560009054906101000a900473ffffffffffffffffffffffffffffffffffffffff166006546040516103d3929190610ebb565b60405180910390a16001600360006101000a81548160ff02191690831515021790555060008054906101000a900473ffffffffffffffffffffffffffffffffffffffff1673ffffffffffffffffffffffffffffffffffffffff166108fc6006549081150290604051600060405180830381858888f1935050505015801561045e573d6000803e3d6000fd5b5050565b60008054906101000a900473ffffffffffffffffffffffffffffffffffffffff1681565b6000600760003373ffffffffffffffffffffffffffffffffffffffff1673ffffffffffffffffffffffffffffffffffffffff1681526020019081526020016000205490506000811115610560576000600760003373ffffffffffffffffffffffffffffffffffffffff1673ffffffffffffffffffffffffffffffffffffffff168152602001908152602001600020819055503373ffffffffffffffffffffffffffffffffffffffff166108fc829081150290604051600060405180830381858888f1935050505015801561055e573d6000803e3d6000fd5b505b50565b60015481565b600083838360405160200161058093929190610e48565b6040516020818303038152906040528051906020012090509392505050565b6001548042116105e657806040517f2a35a3240000000000000000000000000000000000000000000000000000000081526004016105dd9190610f43565b60405180910390fd5b60025480421061062d57806040517f691e56820000000000000000000000000000000000000000000000000000000081526004016106249190610f43565b60405180910390fd5b6000600460003373ffffffffffffffffffffffffffffffffffffffff1673ffffffffffffffffffffffffffffffffffffffff16815260200190815260200160002080549050905080898990501461068357600080fd5b80878790501461069257600080fd5b8085859050146106a157600080fd5b600080600090505b82811015610825576000600460003373ffffffffffffffffffffffffffffffffffffffff1673ffffffffffffffffffffffffffffffffffffffff1681526020019081526020016000208281548110610704576107036110fc565b5b9060005260206000209060020201905060008060008e8e8681811061072c5761072b6110fc565b5b905060200201358d8d87818110610746576107456110fc565b5b905060200201602081019061075b9190610d0b565b8c8c8881811061076e5761076d6110fc565b5b9050602002013592509250925082828260405160200161079093929190610e48565b604051602081830303815290604052805190602001208460000154146107b95750505050610812565b8360010154866107c99190610f5e565b9550811580156107dd575082846001015410155b15610801576107ec3384610989565b156108005782866107fd9190610fb4565b95505b5b6000801b8460000181905550505050505b808061081d9061104c565b9150506106a9565b503373ffffffffffffffffffffffffffffffffffffffff166108fc829081150290604051600060405180830381858888f1935050505015801561086c573d6000803e3d6000fd5b5050505050505050505050565b600560009054906101000a900473ffffffffffffffffffffffffffffffffffffffff1681565b6001548042106108e657806040517f691e56820000000000000000000000000000000000000000000000000000000081526004016108dd9190610f43565b60405180910390fd5b600460003373ffffffffffffffffffffffffffffffffffffffff1673ffffffffffffffffffffffffffffffffffffffff1681526020019081526020016000206040518060400160405280848152602001348152509080600181540180825580915050600190039060005260206000209060020201600090919091909150600082015181600001556020820151816001015550505050565b60025481565b60065481565b6000600654821161099d5760009050610abb565b600073ffffffffffffffffffffffffffffffffffffffff16600560009054906101000a900473ffffffffffffffffffffffffffffffffffffffff1673ffffffffffffffffffffffffffffffffffffffff1614610a6e5760065460076000600560009054906101000a900473ffffffffffffffffffffffffffffffffffffffff1673ffffffffffffffffffffffffffffffffffffffff1673ffffffffffffffffffffffffffffffffffffffff1681526020019081526020016000206000828254610a669190610f5e565b925050819055505b8160068190555082600560006101000a81548173ffffffffffffffffffffffffffffffffffffffff021916908373ffffffffffffffffffffffffffffffffffffffff160217905550600190505b92915050565b600081359050610ad081611151565b92915050565b60008083601f840112610aec57610aeb611130565b5b8235905067ffffffffffffffff811115610b0957610b0861112b565b5b602083019150836020820283011115610b2557610b24611135565b5b9250929050565b60008083601f840112610b4257610b41611130565b5b8235905067ffffffffffffffff811115610b5f57610b5e61112b565b5b602083019150836020820283011115610b7b57610b7a611135565b5b9250929050565b60008083601f840112610b9857610b97611130565b5b8235905067ffffffffffffffff811115610bb557610bb461112b565b5b602083019150836020820283011115610bd157610bd0611135565b5b9250929050565b600081359050610be781611168565b92915050565b600081359050610bfc8161117f565b92915050565b600081359050610c1181611196565b92915050565b60008060408385031215610c2e57610c2d61113f565b5b6000610c3c85828601610ac1565b9250506020610c4d85828601610c02565b9150509250929050565b60008060008060008060608789031215610c7457610c7361113f565b5b600087013567ffffffffffffffff811115610c9257610c9161113a565b5b610c9e89828a01610b82565b9650965050602087013567ffffffffffffffff811115610cc157610cc061113a565b5b610ccd89828a01610ad6565b9450945050604087013567ffffffffffffffff811115610cf057610cef61113a565b5b610cfc89828a01610b2c565b92509250509295509295509295565b600060208284031215610d2157610d2061113f565b5b6000610d2f84828501610bd8565b91505092915050565b600060208284031215610d4e57610d4d61113f565b5b6000610d5c84828501610bed565b91505092915050565b600080600060608486031215610d7e57610d7d61113f565b5b6000610d8c86828701610c02565b9350506020610d9d86828701610bd8565b9250506040610dae86828701610bed565b9150509250925092565b610dc181610ffa565b82525050565b610dd081610fe8565b82525050565b610ddf8161100c565b82525050565b610df6610df18261100c565b611095565b82525050565b610e0581611018565b82525050565b610e1c610e1782611018565b6110a7565b82525050565b610e2b81611042565b82525050565b610e42610e3d82611042565b6110b1565b82525050565b6000610e548286610e31565b602082019150610e648285610de5565b600182019150610e748284610e0b565b602082019150819050949350505050565b6000602082019050610e9a6000830184610dc7565b92915050565b6000602082019050610eb56000830184610db8565b92915050565b6000604082019050610ed06000830185610dc7565b610edd6020830184610e22565b9392505050565b6000602082019050610ef96000830184610dd6565b92915050565b6000602082019050610f146000830184610dfc565b92915050565b6000604082019050610f2f6000830185610dfc565b610f3c6020830184610e22565b9392505050565b6000602082019050610f586000830184610e22565b92915050565b6000610f6982611042565b9150610f7483611042565b9250827fffffffffffffffffffffffffffffffffffffffffffffffffffffffffffffffff03821115610fa957610fa86110cd565b5b828201905092915050565b6000610fbf82611042565b9150610fca83611042565b925082821015610fdd57610fdc6110cd565b5b828203905092915050565b6000610ff382611022565b9050919050565b600061100582611022565b9050919050565b60008115159050919050565b6000819050919050565b600073ffffffffffffffffffffffffffffffffffffffff82169050919050565b6000819050919050565b600061105782611042565b91507fffffffffffffffffffffffffffffffffffffffffffffffffffffffffffffffff82141561108a576110896110cd565b5b600182019050919050565b60006110a0826110bb565b9050919050565b6000819050919050565b6000819050919050565b60006110c682611144565b9050919050565b7f4e487b7100000000000000000000000000000000000000000000000000000000600052601160045260246000fd5b7f4e487b7100000000000000000000000000000000000000000000000000000000600052603260045260246000fd5b600080fd5b600080fd5b600080fd5b600080fd5b600080fd5b60008160f81b9050919050565b61115a81610fe8565b811461116557600080fd5b50565b6111718161100c565b811461117c57600080fd5b50565b61118881611018565b811461119357600080fd5b50565b61119f81611042565b81146111aa57600080fd5b5056fea2646970667358221220e13ffb74b8acb077dd60fdad24f45fe9ec20dfe902dd80e73dca5612aaadd57564736f6c63430008070033",
					"opcodes": "PUSH1 0x80 PUSH1 0x40 MSTORE CALLVALUE DUP1 ISZERO PUSH3 0x11 JUMPI PUSH1 0x0 DUP1 REVERT JUMPDEST POP PUSH1 0x40 MLOAD PUSH3 0x142A CODESIZE SUB DUP1 PUSH3 0x142A DUP4 CODECOPY DUP2 DUP2 ADD PUSH1 0x40 MSTORE DUP2 ADD SWAP1 PUSH3 0x37 SWAP2 SWAP1 PUSH3 0xD8 JUMP JUMPDEST DUP1 PUSH1 0x0 DUP1 PUSH2 0x100 EXP DUP2 SLOAD DUP2 PUSH20 0xFFFFFFFFFFFFFFFFFFFFFFFFFFFFFFFFFFFFFFFF MUL NOT AND SWAP1 DUP4 PUSH20 0xFFFFFFFFFFFFFFFFFFFFFFFFFFFFFFFFFFFFFFFF AND MUL OR SWAP1 SSTORE POP DUP3 TIMESTAMP PUSH3 0x85 SWAP2 SWAP1 PUSH3 0x134 JUMP JUMPDEST PUSH1 0x1 DUP2 SWAP1 SSTORE POP DUP2 PUSH1 0x1 SLOAD PUSH3 0x9B SWAP2 SWAP1 PUSH3 0x134 JUMP JUMPDEST PUSH1 0x2 DUP2 SWAP1 SSTORE POP POP POP POP PUSH3 0x237 JUMP JUMPDEST PUSH1 0x0 DUP2 MLOAD SWAP1 POP PUSH3 0xBB DUP2 PUSH3 0x203 JUMP JUMPDEST SWAP3 SWAP2 POP POP JUMP JUMPDEST PUSH1 0x0 DUP2 MLOAD SWAP1 POP PUSH3 0xD2 DUP2 PUSH3 0x21D JUMP JUMPDEST SWAP3 SWAP2 POP POP JUMP JUMPDEST PUSH1 0x0 DUP1 PUSH1 0x0 PUSH1 0x60 DUP5 DUP7 SUB SLT ISZERO PUSH3 0xF4 JUMPI PUSH3 0xF3 PUSH3 0x1FE JUMP JUMPDEST JUMPDEST PUSH1 0x0 PUSH3 0x104 DUP7 DUP3 DUP8 ADD PUSH3 0xC1 JUMP JUMPDEST SWAP4 POP POP PUSH1 0x20 PUSH3 0x117 DUP7 DUP3 DUP8 ADD PUSH3 0xC1 JUMP JUMPDEST SWAP3 POP POP PUSH1 0x40 PUSH3 0x12A DUP7 DUP3 DUP8 ADD PUSH3 0xAA JUMP JUMPDEST SWAP2 POP POP SWAP3 POP SWAP3 POP SWAP3 JUMP JUMPDEST PUSH1 0x0 PUSH3 0x141 DUP3 PUSH3 0x1C5 JUMP JUMPDEST SWAP2 POP PUSH3 0x14E DUP4 PUSH3 0x1C5 JUMP JUMPDEST SWAP3 POP DUP3 PUSH32 0xFFFFFFFFFFFFFFFFFFFFFFFFFFFFFFFFFFFFFFFFFFFFFFFFFFFFFFFFFFFFFFFF SUB DUP3 GT ISZERO PUSH3 0x186 JUMPI PUSH3 0x185 PUSH3 0x1CF JUMP JUMPDEST JUMPDEST DUP3 DUP3 ADD SWAP1 POP SWAP3 SWAP2 POP POP JUMP JUMPDEST PUSH1 0x0 PUSH3 0x19E DUP3 PUSH3 0x1A5 JUMP JUMPDEST SWAP1 POP SWAP2 SWAP1 POP JUMP JUMPDEST PUSH1 0x0 PUSH20 0xFFFFFFFFFFFFFFFFFFFFFFFFFFFFFFFFFFFFFFFF DUP3 AND SWAP1 POP SWAP2 SWAP1 POP JUMP JUMPDEST PUSH1 0x0 DUP2 SWAP1 POP SWAP2 SWAP1 POP JUMP JUMPDEST PUSH32 0x4E487B7100000000000000000000000000000000000000000000000000000000 PUSH1 0x0 MSTORE PUSH1 0x11 PUSH1 0x4 MSTORE PUSH1 0x24 PUSH1 0x0 REVERT JUMPDEST PUSH1 0x0 DUP1 REVERT JUMPDEST PUSH3 0x20E DUP2 PUSH3 0x191 JUMP JUMPDEST DUP2 EQ PUSH3 0x21A JUMPI PUSH1 0x0 DUP1 REVERT JUMPDEST POP JUMP JUMPDEST PUSH3 0x228 DUP2 PUSH3 0x1C5 JUMP JUMPDEST DUP2 EQ PUSH3 0x234 JUMPI PUSH1 0x0 DUP1 REVERT JUMPDEST POP JUMP JUMPDEST PUSH2 0x11E3 DUP1 PUSH3 0x247 PUSH1 0x0 CODECOPY PUSH1 0x0 RETURN INVALID PUSH1 0x80 PUSH1 0x40 MSTORE PUSH1 0x4 CALLDATASIZE LT PUSH2 0xA7 JUMPI PUSH1 0x0 CALLDATALOAD PUSH1 0xE0 SHR DUP1 PUSH4 0x62F3DB77 GT PUSH2 0x64 JUMPI DUP1 PUSH4 0x62F3DB77 EQ PUSH2 0x199 JUMPI DUP1 PUSH4 0x900F080A EQ PUSH2 0x1D6 JUMPI DUP1 PUSH4 0x91F90157 EQ PUSH2 0x1FF JUMPI DUP1 PUSH4 0x957BB1E0 EQ PUSH2 0x22A JUMPI DUP1 PUSH4 0xA6E66477 EQ PUSH2 0x246 JUMPI DUP1 PUSH4 0xD57BDE79 EQ PUSH2 0x271 JUMPI PUSH2 0xA7 JUMP JUMPDEST DUP1 PUSH4 0x1495C1C EQ PUSH2 0xAC JUMPI DUP1 PUSH4 0x12FA6FEB EQ PUSH2 0xEA JUMPI DUP1 PUSH4 0x2A24F46C EQ PUSH2 0x115 JUMPI DUP1 PUSH4 0x38AF3EED EQ PUSH2 0x12C JUMPI DUP1 PUSH4 0x3CCFD60B EQ PUSH2 0x157 JUMPI DUP1 PUSH4 0x423B217F EQ PUSH2 0x16E JUMPI JUMPDEST PUSH1 0x0 DUP1 REVERT JUMPDEST CALLVALUE DUP1 ISZERO PUSH2 0xB8 JUMPI PUSH1 0x0 DUP1 REVERT JUMPDEST POP PUSH2 0xD3 PUSH1 0x4 DUP1 CALLDATASIZE SUB DUP2 ADD SWAP1 PUSH2 0xCE SWAP2 SWAP1 PUSH2 0xC17 JUMP JUMPDEST PUSH2 0x29C JUMP JUMPDEST PUSH1 0x40 MLOAD PUSH2 0xE1 SWAP3 SWAP2 SWAP1 PUSH2 0xF1A JUMP JUMPDEST PUSH1 0x40 MLOAD DUP1 SWAP2 SUB SWAP1 RETURN JUMPDEST CALLVALUE DUP1 ISZERO PUSH2 0xF6 JUMPI PUSH1 0x0 DUP1 REVERT JUMPDEST POP PUSH2 0xFF PUSH2 0x2DD JUMP JUMPDEST PUSH1 0x40 MLOAD PUSH2 0x10C SWAP2 SWAP1 PUSH2 0xEE4 JUMP JUMPDEST PUSH1 0x40 MLOAD DUP1 SWAP2 SUB SWAP1 RETURN JUMPDEST CALLVALUE DUP1 ISZERO PUSH2 0x121 JUMPI PUSH1 0x0 DUP1 REVERT JUMPDEST POP PUSH2 0x12A PUSH2 0x2F0 JUMP JUMPDEST STOP JUMPDEST CALLVALUE DUP1 ISZERO PUSH2 0x138 JUMPI PUSH1 0x0 DUP1 REVERT JUMPDEST POP PUSH2 0x141 PUSH2 0x462 JUMP JUMPDEST PUSH1 0x40 MLOAD PUSH2 0x14E SWAP2 SWAP1 PUSH2 0xEA0 JUMP JUMPDEST PUSH1 0x40 MLOAD DUP1 SWAP2 SUB SWAP1 RETURN JUMPDEST CALLVALUE DUP1 ISZERO PUSH2 0x163 JUMPI PUSH1 0x0 DUP1 REVERT JUMPDEST POP PUSH2 0x16C PUSH2 0x486 JUMP JUMPDEST STOP JUMPDEST CALLVALUE DUP1 ISZERO PUSH2 0x17A JUMPI PUSH1 0x0 DUP1 REVERT JUMPDEST POP PUSH2 0x183 PUSH2 0x563 JUMP JUMPDEST PUSH1 0x40 MLOAD PUSH2 0x190 SWAP2 SWAP1 PUSH2 0xF43 JUMP JUMPDEST PUSH1 0x40 MLOAD DUP1 SWAP2 SUB SWAP1 RETURN JUMPDEST CALLVALUE DUP1 ISZERO PUSH2 0x1A5 JUMPI PUSH1 0x0 DUP1 REVERT JUMPDEST POP PUSH2 0x1C0 PUSH1 0x4 DUP1 CALLDATASIZE SUB DUP2 ADD SWAP1 PUSH2 0x1BB SWAP2 SWAP1 PUSH2 0xD65 JUMP JUMPDEST PUSH2 0x569 JUMP JUMPDEST PUSH1 0x40 MLOAD PUSH2 0x1CD SWAP2 SWAP1 PUSH2 0xEFF JUMP JUMPDEST PUSH1 0x40 MLOAD DUP1 SWAP2 SUB SWAP1 RETURN JUMPDEST CALLVALUE DUP1 ISZERO PUSH2 0x1E2 JUMPI PUSH1 0x0 DUP1 REVERT JUMPDEST POP PUSH2 0x1FD PUSH1 0x4 DUP1 CALLDATASIZE SUB DUP2 ADD SWAP1 PUSH2 0x1F8 SWAP2 SWAP1 PUSH2 0xC57 JUMP JUMPDEST PUSH2 0x59F JUMP JUMPDEST STOP JUMPDEST CALLVALUE DUP1 ISZERO PUSH2 0x20B JUMPI PUSH1 0x0 DUP1 REVERT JUMPDEST POP PUSH2 0x214 PUSH2 0x879 JUMP JUMPDEST PUSH1 0x40 MLOAD PUSH2 0x221 SWAP2 SWAP1 PUSH2 0xE85 JUMP JUMPDEST PUSH1 0x40 MLOAD DUP1 SWAP2 SUB SWAP1 RETURN JUMPDEST PUSH2 0x244 PUSH1 0x4 DUP1 CALLDATASIZE SUB DUP2 ADD SWAP1 PUSH2 0x23F SWAP2 SWAP1 PUSH2 0xD38 JUMP JUMPDEST PUSH2 0x89F JUMP JUMPDEST STOP JUMPDEST CALLVALUE DUP1 ISZERO PUSH2 0x252 JUMPI PUSH1 0x0 DUP1 REVERT JUMPDEST POP PUSH2 0x25B PUSH2 0x97D JUMP JUMPDEST PUSH1 0x40 MLOAD PUSH2 0x268 SWAP2 SWAP1 PUSH2 0xF43 JUMP JUMPDEST PUSH1 0x40 MLOAD DUP1 SWAP2 SUB SWAP1 RETURN JUMPDEST CALLVALUE DUP1 ISZERO PUSH2 0x27D JUMPI PUSH1 0x0 DUP1 REVERT JUMPDEST POP PUSH2 0x286 PUSH2 0x983 JUMP JUMPDEST PUSH1 0x40 MLOAD PUSH2 0x293 SWAP2 SWAP1 PUSH2 0xF43 JUMP JUMPDEST PUSH1 0x40 MLOAD DUP1 SWAP2 SUB SWAP1 RETURN JUMPDEST PUSH1 0x4 PUSH1 0x20 MSTORE DUP2 PUSH1 0x0 MSTORE PUSH1 0x40 PUSH1 0x0 KECCAK256 DUP2 DUP2 SLOAD DUP2 LT PUSH2 0x2B8 JUMPI PUSH1 0x0 DUP1 REVERT JUMPDEST SWAP1 PUSH1 0x0 MSTORE PUSH1 0x20 PUSH1 0x0 KECCAK256 SWAP1 PUSH1 0x2 MUL ADD PUSH1 0x0 SWAP2 POP SWAP2 POP POP DUP1 PUSH1 0x0 ADD SLOAD SWAP1 DUP1 PUSH1 0x1 ADD SLOAD SWAP1 POP DUP3 JUMP JUMPDEST PUSH1 0x3 PUSH1 0x0 SWAP1 SLOAD SWAP1 PUSH2 0x100 EXP SWAP1 DIV PUSH1 0xFF AND DUP2 JUMP JUMPDEST PUSH1 0x2 SLOAD DUP1 TIMESTAMP GT PUSH2 0x337 JUMPI DUP1 PUSH1 0x40 MLOAD PUSH32 0x2A35A32400000000000000000000000000000000000000000000000000000000 DUP2 MSTORE PUSH1 0x4 ADD PUSH2 0x32E SWAP2 SWAP1 PUSH2 0xF43 JUMP JUMPDEST PUSH1 0x40 MLOAD DUP1 SWAP2 SUB SWAP1 REVERT JUMPDEST PUSH1 0x3 PUSH1 0x0 SWAP1 SLOAD SWAP1 PUSH2 0x100 EXP SWAP1 DIV PUSH1 0xFF AND ISZERO PUSH2 0x37E JUMPI PUSH1 0x40 MLOAD PUSH32 0x61CFDCF800000000000000000000000000000000000000000000000000000000 DUP2 MSTORE PUSH1 0x4 ADD PUSH1 0x40 MLOAD DUP1 SWAP2 SUB SWAP1 REVERT JUMPDEST PUSH32 0xDAEC4582D5D9595688C8C98545FDD1C696D41C6AEAEB636737E84ED2F5C00EDA PUSH1 0x5 PUSH1 0x0 SWAP1 SLOAD SWAP1 PUSH2 0x100 EXP SWAP1 DIV PUSH20 0xFFFFFFFFFFFFFFFFFFFFFFFFFFFFFFFFFFFFFFFF AND PUSH1 0x6 SLOAD PUSH1 0x40 MLOAD PUSH2 0x3D3 SWAP3 SWAP2 SWAP1 PUSH2 0xEBB JUMP JUMPDEST PUSH1 0x40 MLOAD DUP1 SWAP2 SUB SWAP1 LOG1 PUSH1 0x1 PUSH1 0x3 PUSH1 0x0 PUSH2 0x100 EXP DUP2 SLOAD DUP2 PUSH1 0xFF MUL NOT AND SWAP1 DUP4 ISZERO ISZERO MUL OR SWAP1 SSTORE POP PUSH1 0x0 DUP1 SLOAD SWAP1 PUSH2 0x100 EXP SWAP1 DIV PUSH20 0xFFFFFFFFFFFFFFFFFFFFFFFFFFFFFFFFFFFFFFFF AND PUSH20 0xFFFFFFFFFFFFFFFFFFFFFFFFFFFFFFFFFFFFFFFF AND PUSH2 0x8FC PUSH1 0x6 SLOAD SWAP1 DUP2 ISZERO MUL SWAP1 PUSH1 0x40 MLOAD PUSH1 0x0 PUSH1 0x40 MLOAD DUP1 DUP4 SUB DUP2 DUP6 DUP9 DUP9 CALL SWAP4 POP POP POP POP ISZERO DUP1 ISZERO PUSH2 0x45E JUMPI RETURNDATASIZE PUSH1 0x0 DUP1 RETURNDATACOPY RETURNDATASIZE PUSH1 0x0 REVERT JUMPDEST POP POP JUMP JUMPDEST PUSH1 0x0 DUP1 SLOAD SWAP1 PUSH2 0x100 EXP SWAP1 DIV PUSH20 0xFFFFFFFFFFFFFFFFFFFFFFFFFFFFFFFFFFFFFFFF AND DUP2 JUMP JUMPDEST PUSH1 0x0 PUSH1 0x7 PUSH1 0x0 CALLER PUSH20 0xFFFFFFFFFFFFFFFFFFFFFFFFFFFFFFFFFFFFFFFF AND PUSH20 0xFFFFFFFFFFFFFFFFFFFFFFFFFFFFFFFFFFFFFFFF AND DUP2 MSTORE PUSH1 0x20 ADD SWAP1 DUP2 MSTORE PUSH1 0x20 ADD PUSH1 0x0 KECCAK256 SLOAD SWAP1 POP PUSH1 0x0 DUP2 GT ISZERO PUSH2 0x560 JUMPI PUSH1 0x0 PUSH1 0x7 PUSH1 0x0 CALLER PUSH20 0xFFFFFFFFFFFFFFFFFFFFFFFFFFFFFFFFFFFFFFFF AND PUSH20 0xFFFFFFFFFFFFFFFFFFFFFFFFFFFFFFFFFFFFFFFF AND DUP2 MSTORE PUSH1 0x20 ADD SWAP1 DUP2 MSTORE PUSH1 0x20 ADD PUSH1 0x0 KECCAK256 DUP2 SWAP1 SSTORE POP CALLER PUSH20 0xFFFFFFFFFFFFFFFFFFFFFFFFFFFFFFFFFFFFFFFF AND PUSH2 0x8FC DUP3 SWAP1 DUP2 ISZERO MUL SWAP1 PUSH1 0x40 MLOAD PUSH1 0x0 PUSH1 0x40 MLOAD DUP1 DUP4 SUB DUP2 DUP6 DUP9 DUP9 CALL SWAP4 POP POP POP POP ISZERO DUP1 ISZERO PUSH2 0x55E JUMPI RETURNDATASIZE PUSH1 0x0 DUP1 RETURNDATACOPY RETURNDATASIZE PUSH1 0x0 REVERT JUMPDEST POP JUMPDEST POP JUMP JUMPDEST PUSH1 0x1 SLOAD DUP2 JUMP JUMPDEST PUSH1 0x0 DUP4 DUP4 DUP4 PUSH1 0x40 MLOAD PUSH1 0x20 ADD PUSH2 0x580 SWAP4 SWAP3 SWAP2 SWAP1 PUSH2 0xE48 JUMP JUMPDEST PUSH1 0x40 MLOAD PUSH1 0x20 DUP2 DUP4 SUB SUB DUP2 MSTORE SWAP1 PUSH1 0x40 MSTORE DUP1 MLOAD SWAP1 PUSH1 0x20 ADD KECCAK256 SWAP1 POP SWAP4 SWAP3 POP POP POP JUMP JUMPDEST PUSH1 0x1 SLOAD DUP1 TIMESTAMP GT PUSH2 0x5E6 JUMPI DUP1 PUSH1 0x40 MLOAD PUSH32 0x2A35A32400000000000000000000000000000000000000000000000000000000 DUP2 MSTORE PUSH1 0x4 ADD PUSH2 0x5DD SWAP2 SWAP1 PUSH2 0xF43 JUMP JUMPDEST PUSH1 0x40 MLOAD DUP1 SWAP2 SUB SWAP1 REVERT JUMPDEST PUSH1 0x2 SLOAD DUP1 TIMESTAMP LT PUSH2 0x62D JUMPI DUP1 PUSH1 0x40 MLOAD PUSH32 0x691E568200000000000000000000000000000000000000000000000000000000 DUP2 MSTORE PUSH1 0x4 ADD PUSH2 0x624 SWAP2 SWAP1 PUSH2 0xF43 JUMP JUMPDEST PUSH1 0x40 MLOAD DUP1 SWAP2 SUB SWAP1 REVERT JUMPDEST PUSH1 0x0 PUSH1 0x4 PUSH1 0x0 CALLER PUSH20 0xFFFFFFFFFFFFFFFFFFFFFFFFFFFFFFFFFFFFFFFF AND PUSH20 0xFFFFFFFFFFFFFFFFFFFFFFFFFFFFFFFFFFFFFFFF AND DUP2 MSTORE PUSH1 0x20 ADD SWAP1 DUP2 MSTORE PUSH1 0x20 ADD PUSH1 0x0 KECCAK256 DUP1 SLOAD SWAP1 POP SWAP1 POP DUP1 DUP10 DUP10 SWAP1 POP EQ PUSH2 0x683 JUMPI PUSH1 0x0 DUP1 REVERT JUMPDEST DUP1 DUP8 DUP8 SWAP1 POP EQ PUSH2 0x692 JUMPI PUSH1 0x0 DUP1 REVERT JUMPDEST DUP1 DUP6 DUP6 SWAP1 POP EQ PUSH2 0x6A1 JUMPI PUSH1 0x0 DUP1 REVERT JUMPDEST PUSH1 0x0 DUP1 PUSH1 0x0 SWAP1 POP JUMPDEST DUP3 DUP2 LT ISZERO PUSH2 0x825 JUMPI PUSH1 0x0 PUSH1 0x4 PUSH1 0x0 CALLER PUSH20 0xFFFFFFFFFFFFFFFFFFFFFFFFFFFFFFFFFFFFFFFF AND PUSH20 0xFFFFFFFFFFFFFFFFFFFFFFFFFFFFFFFFFFFFFFFF AND DUP2 MSTORE PUSH1 0x20 ADD SWAP1 DUP2 MSTORE PUSH1 0x20 ADD PUSH1 0x0 KECCAK256 DUP3 DUP2 SLOAD DUP2 LT PUSH2 0x704 JUMPI PUSH2 0x703 PUSH2 0x10FC JUMP JUMPDEST JUMPDEST SWAP1 PUSH1 0x0 MSTORE PUSH1 0x20 PUSH1 0x0 KECCAK256 SWAP1 PUSH1 0x2 MUL ADD SWAP1 POP PUSH1 0x0 DUP1 PUSH1 0x0 DUP15 DUP15 DUP7 DUP2 DUP2 LT PUSH2 0x72C JUMPI PUSH2 0x72B PUSH2 0x10FC JUMP JUMPDEST JUMPDEST SWAP1 POP PUSH1 0x20 MUL ADD CALLDATALOAD DUP14 DUP14 DUP8 DUP2 DUP2 LT PUSH2 0x746 JUMPI PUSH2 0x745 PUSH2 0x10FC JUMP JUMPDEST JUMPDEST SWAP1 POP PUSH1 0x20 MUL ADD PUSH1 0x20 DUP2 ADD SWAP1 PUSH2 0x75B SWAP2 SWAP1 PUSH2 0xD0B JUMP JUMPDEST DUP13 DUP13 DUP9 DUP2 DUP2 LT PUSH2 0x76E JUMPI PUSH2 0x76D PUSH2 0x10FC JUMP JUMPDEST JUMPDEST SWAP1 POP PUSH1 0x20 MUL ADD CALLDATALOAD SWAP3 POP SWAP3 POP SWAP3 POP DUP3 DUP3 DUP3 PUSH1 0x40 MLOAD PUSH1 0x20 ADD PUSH2 0x790 SWAP4 SWAP3 SWAP2 SWAP1 PUSH2 0xE48 JUMP JUMPDEST PUSH1 0x40 MLOAD PUSH1 0x20 DUP2 DUP4 SUB SUB DUP2 MSTORE SWAP1 PUSH1 0x40 MSTORE DUP1 MLOAD SWAP1 PUSH1 0x20 ADD KECCAK256 DUP5 PUSH1 0x0 ADD SLOAD EQ PUSH2 0x7B9 JUMPI POP POP POP POP PUSH2 0x812 JUMP JUMPDEST DUP4 PUSH1 0x1 ADD SLOAD DUP7 PUSH2 0x7C9 SWAP2 SWAP1 PUSH2 0xF5E JUMP JUMPDEST SWAP6 POP DUP2 ISZERO DUP1 ISZERO PUSH2 0x7DD JUMPI POP DUP3 DUP5 PUSH1 0x1 ADD SLOAD LT ISZERO JUMPDEST ISZERO PUSH2 0x801 JUMPI PUSH2 0x7EC CALLER DUP5 PUSH2 0x989 JUMP JUMPDEST ISZERO PUSH2 0x800 JUMPI DUP3 DUP7 PUSH2 0x7FD SWAP2 SWAP1 PUSH2 0xFB4 JUMP JUMPDEST SWAP6 POP JUMPDEST JUMPDEST PUSH1 0x0 DUP1 SHL DUP5 PUSH1 0x0 ADD DUP2 SWAP1 SSTORE POP POP POP POP POP JUMPDEST DUP1 DUP1 PUSH2 0x81D SWAP1 PUSH2 0x104C JUMP JUMPDEST SWAP2 POP POP PUSH2 0x6A9 JUMP JUMPDEST POP CALLER PUSH20 0xFFFFFFFFFFFFFFFFFFFFFFFFFFFFFFFFFFFFFFFF AND PUSH2 0x8FC DUP3 SWAP1 DUP2 ISZERO MUL SWAP1 PUSH1 0x40 MLOAD PUSH1 0x0 PUSH1 0x40 MLOAD DUP1 DUP4 SUB DUP2 DUP6 DUP9 DUP9 CALL SWAP4 POP POP POP POP ISZERO DUP1 ISZERO PUSH2 0x86C JUMPI RETURNDATASIZE PUSH1 0x0 DUP1 RETURNDATACOPY RETURNDATASIZE PUSH1 0x0 REVERT JUMPDEST POP POP POP POP POP POP POP POP POP POP POP JUMP JUMPDEST PUSH1 0x5 PUSH1 0x0 SWAP1 SLOAD SWAP1 PUSH2 0x100 EXP SWAP1 DIV PUSH20 0xFFFFFFFFFFFFFFFFFFFFFFFFFFFFFFFFFFFFFFFF AND DUP2 JUMP JUMPDEST PUSH1 0x1 SLOAD DUP1 TIMESTAMP LT PUSH2 0x8E6 JUMPI DUP1 PUSH1 0x40 MLOAD PUSH32 0x691E568200000000000000000000000000000000000000000000000000000000 DUP2 MSTORE PUSH1 0x4 ADD PUSH2 0x8DD SWAP2 SWAP1 PUSH2 0xF43 JUMP JUMPDEST PUSH1 0x40 MLOAD DUP1 SWAP2 SUB SWAP1 REVERT JUMPDEST PUSH1 0x4 PUSH1 0x0 CALLER PUSH20 0xFFFFFFFFFFFFFFFFFFFFFFFFFFFFFFFFFFFFFFFF AND PUSH20 0xFFFFFFFFFFFFFFFFFFFFFFFFFFFFFFFFFFFFFFFF AND DUP2 MSTORE PUSH1 0x20 ADD SWAP1 DUP2 MSTORE PUSH1 0x20 ADD PUSH1 0x0 KECCAK256 PUSH1 0x40 MLOAD DUP1 PUSH1 0x40 ADD PUSH1 0x40 MSTORE DUP1 DUP5 DUP2 MSTORE PUSH1 0x20 ADD CALLVALUE DUP2 MSTORE POP SWAP1 DUP1 PUSH1 0x1 DUP2 SLOAD ADD DUP1 DUP3 SSTORE DUP1 SWAP2 POP POP PUSH1 0x1 SWAP1 SUB SWAP1 PUSH1 0x0 MSTORE PUSH1 0x20 PUSH1 0x0 KECCAK256 SWAP1 PUSH1 0x2 MUL ADD PUSH1 0x0 SWAP1 SWAP2 SWAP1 SWAP2 SWAP1 SWAP2 POP PUSH1 0x0 DUP3 ADD MLOAD DUP2 PUSH1 0x0 ADD SSTORE PUSH1 0x20 DUP3 ADD MLOAD DUP2 PUSH1 0x1 ADD SSTORE POP POP POP POP JUMP JUMPDEST PUSH1 0x2 SLOAD DUP2 JUMP JUMPDEST PUSH1 0x6 SLOAD DUP2 JUMP JUMPDEST PUSH1 0x0 PUSH1 0x6 SLOAD DUP3 GT PUSH2 0x99D JUMPI PUSH1 0x0 SWAP1 POP PUSH2 0xABB JUMP JUMPDEST PUSH1 0x0 PUSH20 0xFFFFFFFFFFFFFFFFFFFFFFFFFFFFFFFFFFFFFFFF AND PUSH1 0x5 PUSH1 0x0 SWAP1 SLOAD SWAP1 PUSH2 0x100 EXP SWAP1 DIV PUSH20 0xFFFFFFFFFFFFFFFFFFFFFFFFFFFFFFFFFFFFFFFF AND PUSH20 0xFFFFFFFFFFFFFFFFFFFFFFFFFFFFFFFFFFFFFFFF AND EQ PUSH2 0xA6E JUMPI PUSH1 0x6 SLOAD PUSH1 0x7 PUSH1 0x0 PUSH1 0x5 PUSH1 0x0 SWAP1 SLOAD SWAP1 PUSH2 0x100 EXP SWAP1 DIV PUSH20 0xFFFFFFFFFFFFFFFFFFFFFFFFFFFFFFFFFFFFFFFF AND PUSH20 0xFFFFFFFFFFFFFFFFFFFFFFFFFFFFFFFFFFFFFFFF AND PUSH20 0xFFFFFFFFFFFFFFFFFFFFFFFFFFFFFFFFFFFFFFFF AND DUP2 MSTORE PUSH1 0x20 ADD SWAP1 DUP2 MSTORE PUSH1 0x20 ADD PUSH1 0x0 KECCAK256 PUSH1 0x0 DUP3 DUP3 SLOAD PUSH2 0xA66 SWAP2 SWAP1 PUSH2 0xF5E JUMP JUMPDEST SWAP3 POP POP DUP2 SWAP1 SSTORE POP JUMPDEST DUP2 PUSH1 0x6 DUP2 SWAP1 SSTORE POP DUP3 PUSH1 0x5 PUSH1 0x0 PUSH2 0x100 EXP DUP2 SLOAD DUP2 PUSH20 0xFFFFFFFFFFFFFFFFFFFFFFFFFFFFFFFFFFFFFFFF MUL NOT AND SWAP1 DUP4 PUSH20 0xFFFFFFFFFFFFFFFFFFFFFFFFFFFFFFFFFFFFFFFF AND MUL OR SWAP1 SSTORE POP PUSH1 0x1 SWAP1 POP JUMPDEST SWAP3 SWAP2 POP POP JUMP JUMPDEST PUSH1 0x0 DUP2 CALLDATALOAD SWAP1 POP PUSH2 0xAD0 DUP2 PUSH2 0x1151 JUMP JUMPDEST SWAP3 SWAP2 POP POP JUMP JUMPDEST PUSH1 0x0 DUP1 DUP4 PUSH1 0x1F DUP5 ADD SLT PUSH2 0xAEC JUMPI PUSH2 0xAEB PUSH2 0x1130 JUMP JUMPDEST JUMPDEST DUP3 CALLDATALOAD SWAP1 POP PUSH8 0xFFFFFFFFFFFFFFFF DUP2 GT ISZERO PUSH2 0xB09 JUMPI PUSH2 0xB08 PUSH2 0x112B JUMP JUMPDEST JUMPDEST PUSH1 0x20 DUP4 ADD SWAP2 POP DUP4 PUSH1 0x20 DUP3 MUL DUP4 ADD GT ISZERO PUSH2 0xB25 JUMPI PUSH2 0xB24 PUSH2 0x1135 JUMP JUMPDEST JUMPDEST SWAP3 POP SWAP3 SWAP1 POP JUMP JUMPDEST PUSH1 0x0 DUP1 DUP4 PUSH1 0x1F DUP5 ADD SLT PUSH2 0xB42 JUMPI PUSH2 0xB41 PUSH2 0x1130 JUMP JUMPDEST JUMPDEST DUP3 CALLDATALOAD SWAP1 POP PUSH8 0xFFFFFFFFFFFFFFFF DUP2 GT ISZERO PUSH2 0xB5F JUMPI PUSH2 0xB5E PUSH2 0x112B JUMP JUMPDEST JUMPDEST PUSH1 0x20 DUP4 ADD SWAP2 POP DUP4 PUSH1 0x20 DUP3 MUL DUP4 ADD GT ISZERO PUSH2 0xB7B JUMPI PUSH2 0xB7A PUSH2 0x1135 JUMP JUMPDEST JUMPDEST SWAP3 POP SWAP3 SWAP1 POP JUMP JUMPDEST PUSH1 0x0 DUP1 DUP4 PUSH1 0x1F DUP5 ADD SLT PUSH2 0xB98 JUMPI PUSH2 0xB97 PUSH2 0x1130 JUMP JUMPDEST JUMPDEST DUP3 CALLDATALOAD SWAP1 POP PUSH8 0xFFFFFFFFFFFFFFFF DUP2 GT ISZERO PUSH2 0xBB5 JUMPI PUSH2 0xBB4 PUSH2 0x112B JUMP JUMPDEST JUMPDEST PUSH1 0x20 DUP4 ADD SWAP2 POP DUP4 PUSH1 0x20 DUP3 MUL DUP4 ADD GT ISZERO PUSH2 0xBD1 JUMPI PUSH2 0xBD0 PUSH2 0x1135 JUMP JUMPDEST JUMPDEST SWAP3 POP SWAP3 SWAP1 POP JUMP JUMPDEST PUSH1 0x0 DUP2 CALLDATALOAD SWAP1 POP PUSH2 0xBE7 DUP2 PUSH2 0x1168 JUMP JUMPDEST SWAP3 SWAP2 POP POP JUMP JUMPDEST PUSH1 0x0 DUP2 CALLDATALOAD SWAP1 POP PUSH2 0xBFC DUP2 PUSH2 0x117F JUMP JUMPDEST SWAP3 SWAP2 POP POP JUMP JUMPDEST PUSH1 0x0 DUP2 CALLDATALOAD SWAP1 POP PUSH2 0xC11 DUP2 PUSH2 0x1196 JUMP JUMPDEST SWAP3 SWAP2 POP POP JUMP JUMPDEST PUSH1 0x0 DUP1 PUSH1 0x40 DUP4 DUP6 SUB SLT ISZERO PUSH2 0xC2E JUMPI PUSH2 0xC2D PUSH2 0x113F JUMP JUMPDEST JUMPDEST PUSH1 0x0 PUSH2 0xC3C DUP6 DUP3 DUP7 ADD PUSH2 0xAC1 JUMP JUMPDEST SWAP3 POP POP PUSH1 0x20 PUSH2 0xC4D DUP6 DUP3 DUP7 ADD PUSH2 0xC02 JUMP JUMPDEST SWAP2 POP POP SWAP3 POP SWAP3 SWAP1 POP JUMP JUMPDEST PUSH1 0x0 DUP1 PUSH1 0x0 DUP1 PUSH1 0x0 DUP1 PUSH1 0x60 DUP8 DUP10 SUB SLT ISZERO PUSH2 0xC74 JUMPI PUSH2 0xC73 PUSH2 0x113F JUMP JUMPDEST JUMPDEST PUSH1 0x0 DUP8 ADD CALLDATALOAD PUSH8 0xFFFFFFFFFFFFFFFF DUP2 GT ISZERO PUSH2 0xC92 JUMPI PUSH2 0xC91 PUSH2 0x113A JUMP JUMPDEST JUMPDEST PUSH2 0xC9E DUP10 DUP3 DUP11 ADD PUSH2 0xB82 JUMP JUMPDEST SWAP7 POP SWAP7 POP POP PUSH1 0x20 DUP8 ADD CALLDATALOAD PUSH8 0xFFFFFFFFFFFFFFFF DUP2 GT ISZERO PUSH2 0xCC1 JUMPI PUSH2 0xCC0 PUSH2 0x113A JUMP JUMPDEST JUMPDEST PUSH2 0xCCD DUP10 DUP3 DUP11 ADD PUSH2 0xAD6 JUMP JUMPDEST SWAP5 POP SWAP5 POP POP PUSH1 0x40 DUP8 ADD CALLDATALOAD PUSH8 0xFFFFFFFFFFFFFFFF DUP2 GT ISZERO PUSH2 0xCF0 JUMPI PUSH2 0xCEF PUSH2 0x113A JUMP JUMPDEST JUMPDEST PUSH2 0xCFC DUP10 DUP3 DUP11 ADD PUSH2 0xB2C JUMP JUMPDEST SWAP3 POP SWAP3 POP POP SWAP3 SWAP6 POP SWAP3 SWAP6 POP SWAP3 SWAP6 JUMP JUMPDEST PUSH1 0x0 PUSH1 0x20 DUP3 DUP5 SUB SLT ISZERO PUSH2 0xD21 JUMPI PUSH2 0xD20 PUSH2 0x113F JUMP JUMPDEST JUMPDEST PUSH1 0x0 PUSH2 0xD2F DUP5 DUP3 DUP6 ADD PUSH2 0xBD8 JUMP JUMPDEST SWAP2 POP POP SWAP3 SWAP2 POP POP JUMP JUMPDEST PUSH1 0x0 PUSH1 0x20 DUP3 DUP5 SUB SLT ISZERO PUSH2 0xD4E JUMPI PUSH2 0xD4D PUSH2 0x113F JUMP JUMPDEST JUMPDEST PUSH1 0x0 PUSH2 0xD5C DUP5 DUP3 DUP6 ADD PUSH2 0xBED JUMP JUMPDEST SWAP2 POP POP SWAP3 SWAP2 POP POP JUMP JUMPDEST PUSH1 0x0 DUP1 PUSH1 0x0 PUSH1 0x60 DUP5 DUP7 SUB SLT ISZERO PUSH2 0xD7E JUMPI PUSH2 0xD7D PUSH2 0x113F JUMP JUMPDEST JUMPDEST PUSH1 0x0 PUSH2 0xD8C DUP7 DUP3 DUP8 ADD PUSH2 0xC02 JUMP JUMPDEST SWAP4 POP POP PUSH1 0x20 PUSH2 0xD9D DUP7 DUP3 DUP8 ADD PUSH2 0xBD8 JUMP JUMPDEST SWAP3 POP POP PUSH1 0x40 PUSH2 0xDAE DUP7 DUP3 DUP8 ADD PUSH2 0xBED JUMP JUMPDEST SWAP2 POP POP SWAP3 POP SWAP3 POP SWAP3 JUMP JUMPDEST PUSH2 0xDC1 DUP2 PUSH2 0xFFA JUMP JUMPDEST DUP3 MSTORE POP POP JUMP JUMPDEST PUSH2 0xDD0 DUP2 PUSH2 0xFE8 JUMP JUMPDEST DUP3 MSTORE POP POP JUMP JUMPDEST PUSH2 0xDDF DUP2 PUSH2 0x100C JUMP JUMPDEST DUP3 MSTORE POP POP JUMP JUMPDEST PUSH2 0xDF6 PUSH2 0xDF1 DUP3 PUSH2 0x100C JUMP JUMPDEST PUSH2 0x1095 JUMP JUMPDEST DUP3 MSTORE POP POP JUMP JUMPDEST PUSH2 0xE05 DUP2 PUSH2 0x1018 JUMP JUMPDEST DUP3 MSTORE POP POP JUMP JUMPDEST PUSH2 0xE1C PUSH2 0xE17 DUP3 PUSH2 0x1018 JUMP JUMPDEST PUSH2 0x10A7 JUMP JUMPDEST DUP3 MSTORE POP POP JUMP JUMPDEST PUSH2 0xE2B DUP2 PUSH2 0x1042 JUMP JUMPDEST DUP3 MSTORE POP POP JUMP JUMPDEST PUSH2 0xE42 PUSH2 0xE3D DUP3 PUSH2 0x1042 JUMP JUMPDEST PUSH2 0x10B1 JUMP JUMPDEST DUP3 MSTORE POP POP JUMP JUMPDEST PUSH1 0x0 PUSH2 0xE54 DUP3 DUP7 PUSH2 0xE31 JUMP JUMPDEST PUSH1 0x20 DUP3 ADD SWAP2 POP PUSH2 0xE64 DUP3 DUP6 PUSH2 0xDE5 JUMP JUMPDEST PUSH1 0x1 DUP3 ADD SWAP2 POP PUSH2 0xE74 DUP3 DUP5 PUSH2 0xE0B JUMP JUMPDEST PUSH1 0x20 DUP3 ADD SWAP2 POP DUP2 SWAP1 POP SWAP5 SWAP4 POP POP POP POP JUMP JUMPDEST PUSH1 0x0 PUSH1 0x20 DUP3 ADD SWAP1 POP PUSH2 0xE9A PUSH1 0x0 DUP4 ADD DUP5 PUSH2 0xDC7 JUMP JUMPDEST SWAP3 SWAP2 POP POP JUMP JUMPDEST PUSH1 0x0 PUSH1 0x20 DUP3 ADD SWAP1 POP PUSH2 0xEB5 PUSH1 0x0 DUP4 ADD DUP5 PUSH2 0xDB8 JUMP JUMPDEST SWAP3 SWAP2 POP POP JUMP JUMPDEST PUSH1 0x0 PUSH1 0x40 DUP3 ADD SWAP1 POP PUSH2 0xED0 PUSH1 0x0 DUP4 ADD DUP6 PUSH2 0xDC7 JUMP JUMPDEST PUSH2 0xEDD PUSH1 0x20 DUP4 ADD DUP5 PUSH2 0xE22 JUMP JUMPDEST SWAP4 SWAP3 POP POP POP JUMP JUMPDEST PUSH1 0x0 PUSH1 0x20 DUP3 ADD SWAP1 POP PUSH2 0xEF9 PUSH1 0x0 DUP4 ADD DUP5 PUSH2 0xDD6 JUMP JUMPDEST SWAP3 SWAP2 POP POP JUMP JUMPDEST PUSH1 0x0 PUSH1 0x20 DUP3 ADD SWAP1 POP PUSH2 0xF14 PUSH1 0x0 DUP4 ADD DUP5 PUSH2 0xDFC JUMP JUMPDEST SWAP3 SWAP2 POP POP JUMP JUMPDEST PUSH1 0x0 PUSH1 0x40 DUP3 ADD SWAP1 POP PUSH2 0xF2F PUSH1 0x0 DUP4 ADD DUP6 PUSH2 0xDFC JUMP JUMPDEST PUSH2 0xF3C PUSH1 0x20 DUP4 ADD DUP5 PUSH2 0xE22 JUMP JUMPDEST SWAP4 SWAP3 POP POP POP JUMP JUMPDEST PUSH1 0x0 PUSH1 0x20 DUP3 ADD SWAP1 POP PUSH2 0xF58 PUSH1 0x0 DUP4 ADD DUP5 PUSH2 0xE22 JUMP JUMPDEST SWAP3 SWAP2 POP POP JUMP JUMPDEST PUSH1 0x0 PUSH2 0xF69 DUP3 PUSH2 0x1042 JUMP JUMPDEST SWAP2 POP PUSH2 0xF74 DUP4 PUSH2 0x1042 JUMP JUMPDEST SWAP3 POP DUP3 PUSH32 0xFFFFFFFFFFFFFFFFFFFFFFFFFFFFFFFFFFFFFFFFFFFFFFFFFFFFFFFFFFFFFFFF SUB DUP3 GT ISZERO PUSH2 0xFA9 JUMPI PUSH2 0xFA8 PUSH2 0x10CD JUMP JUMPDEST JUMPDEST DUP3 DUP3 ADD SWAP1 POP SWAP3 SWAP2 POP POP JUMP JUMPDEST PUSH1 0x0 PUSH2 0xFBF DUP3 PUSH2 0x1042 JUMP JUMPDEST SWAP2 POP PUSH2 0xFCA DUP4 PUSH2 0x1042 JUMP JUMPDEST SWAP3 POP DUP3 DUP3 LT ISZERO PUSH2 0xFDD JUMPI PUSH2 0xFDC PUSH2 0x10CD JUMP JUMPDEST JUMPDEST DUP3 DUP3 SUB SWAP1 POP SWAP3 SWAP2 POP POP JUMP JUMPDEST PUSH1 0x0 PUSH2 0xFF3 DUP3 PUSH2 0x1022 JUMP JUMPDEST SWAP1 POP SWAP2 SWAP1 POP JUMP JUMPDEST PUSH1 0x0 PUSH2 0x1005 DUP3 PUSH2 0x1022 JUMP JUMPDEST SWAP1 POP SWAP2 SWAP1 POP JUMP JUMPDEST PUSH1 0x0 DUP2 ISZERO ISZERO SWAP1 POP SWAP2 SWAP1 POP JUMP JUMPDEST PUSH1 0x0 DUP2 SWAP1 POP SWAP2 SWAP1 POP JUMP JUMPDEST PUSH1 0x0 PUSH20 0xFFFFFFFFFFFFFFFFFFFFFFFFFFFFFFFFFFFFFFFF DUP3 AND SWAP1 POP SWAP2 SWAP1 POP JUMP JUMPDEST PUSH1 0x0 DUP2 SWAP1 POP SWAP2 SWAP1 POP JUMP JUMPDEST PUSH1 0x0 PUSH2 0x1057 DUP3 PUSH2 0x1042 JUMP JUMPDEST SWAP2 POP PUSH32 0xFFFFFFFFFFFFFFFFFFFFFFFFFFFFFFFFFFFFFFFFFFFFFFFFFFFFFFFFFFFFFFFF DUP3 EQ ISZERO PUSH2 0x108A JUMPI PUSH2 0x1089 PUSH2 0x10CD JUMP JUMPDEST JUMPDEST PUSH1 0x1 DUP3 ADD SWAP1 POP SWAP2 SWAP1 POP JUMP JUMPDEST PUSH1 0x0 PUSH2 0x10A0 DUP3 PUSH2 0x10BB JUMP JUMPDEST SWAP1 POP SWAP2 SWAP1 POP JUMP JUMPDEST PUSH1 0x0 DUP2 SWAP1 POP SWAP2 SWAP1 POP JUMP JUMPDEST PUSH1 0x0 DUP2 SWAP1 POP SWAP2 SWAP1 POP JUMP JUMPDEST PUSH1 0x0 PUSH2 0x10C6 DUP3 PUSH2 0x1144 JUMP JUMPDEST SWAP1 POP SWAP2 SWAP1 POP JUMP JUMPDEST PUSH32 0x4E487B7100000000000000000000000000000000000000000000000000000000 PUSH1 0x0 MSTORE PUSH1 0x11 PUSH1 0x4 MSTORE PUSH1 0x24 PUSH1 0x0 REVERT JUMPDEST PUSH32 0x4E487B7100000000000000000000000000000000000000000000000000000000 PUSH1 0x0 MSTORE PUSH1 0x32 PUSH1 0x4 MSTORE PUSH1 0x24 PUSH1 0x0 REVERT JUMPDEST PUSH1 0x0 DUP1 REVERT JUMPDEST PUSH1 0x0 DUP1 REVERT JUMPDEST PUSH1 0x0 DUP1 REVERT JUMPDEST PUSH1 0x0 DUP1 REVERT JUMPDEST PUSH1 0x0 DUP1 REVERT JUMPDEST PUSH1 0x0 DUP2 PUSH1 0xF8 SHL SWAP1 POP SWAP2 SWAP1 POP JUMP JUMPDEST PUSH2 0x115A DUP2 PUSH2 0xFE8 JUMP JUMPDEST DUP2 EQ PUSH2 0x1165 JUMPI PUSH1 0x0 DUP1 REVERT JUMPDEST POP JUMP JUMPDEST PUSH2 0x1171 DUP2 PUSH2 0x100C JUMP JUMPDEST DUP2 EQ PUSH2 0x117C JUMPI PUSH1 0x0 DUP1 REVERT JUMPDEST POP JUMP JUMPDEST PUSH2 0x1188 DUP2 PUSH2 0x1018 JUMP JUMPDEST DUP2 EQ PUSH2 0x1193 JUMPI PUSH1 0x0 DUP1 REVERT JUMPDEST POP JUMP JUMPDEST PUSH2 0x119F DUP2 PUSH2 0x1042 JUMP JUMPDEST DUP2 EQ PUSH2 0x11AA JUMPI PUSH1 0x0 DUP1 REVERT JUMPDEST POP JUMP INVALID LOG2 PUSH5 0x6970667358 0x22 SLT KECCAK256 0xE1 EXTCODEHASH 0xFB PUSH21 0xB8ACB077DD60FDAD24F45FE9EC20DFE902DD80E73D 0xCA JUMP SLT 0xAA 0xAD 0xD5 PUSH22 0x64736F6C634300080700330000000000000000000000 "
				},
				"gasEstimates": {
					"creation": {
						"codeDepositCost": "915800",
						"executionCost": "infinite",
						"totalCost": "infinite"
					},
					"external": {
						"auctionEnd()": "infinite",
						"beneficiary()": "2578",
						"bid(bytes32)": "71299",
						"biddingEnd()": "2540",
						"bids(address,uint256)": "infinite",
						"ended()": "2494",
						"highestBid()": "2539",
						"highestBidder()": "2558",
						"myBiddData(uint256,bool,bytes32)": "infinite",
						"reveal(uint256[],bool[],bytes32[])": "infinite",
						"revealEnd()": "2517",
						"withdraw()": "infinite"
					},
					"internal": {
						"placeBid(address,uint256)": "infinite"
					}
				},
				"methodIdentifiers": {
					"auctionEnd()": "2a24f46c",
					"beneficiary()": "38af3eed",
					"bid(bytes32)": "957bb1e0",
					"biddingEnd()": "423b217f",
					"bids(address,uint256)": "01495c1c",
					"ended()": "12fa6feb",
					"highestBid()": "d57bde79",
					"highestBidder()": "91f90157",
					"myBiddData(uint256,bool,bytes32)": "62f3db77",
					"reveal(uint256[],bool[],bytes32[])": "900f080a",
					"revealEnd()": "a6e66477",
					"withdraw()": "3ccfd60b"
				}
			},
			"storageLayout": {
				"storage": [
					{
						"astId": 8,
						"contract": "contract/BlindAuction.sol:BlindAuction",
						"label": "beneficiary",
						"offset": 0,
						"slot": "0",
						"type": "t_address_payable"
					},
					{
						"astId": 10,
						"contract": "contract/BlindAuction.sol:BlindAuction",
						"label": "biddingEnd",
						"offset": 0,
						"slot": "1",
						"type": "t_uint256"
					},
					{
						"astId": 12,
						"contract": "contract/BlindAuction.sol:BlindAuction",
						"label": "revealEnd",
						"offset": 0,
						"slot": "2",
						"type": "t_uint256"
					},
					{
						"astId": 14,
						"contract": "contract/BlindAuction.sol:BlindAuction",
						"label": "ended",
						"offset": 0,
						"slot": "3",
						"type": "t_bool"
					},
					{
						"astId": 20,
						"contract": "contract/BlindAuction.sol:BlindAuction",
						"label": "bids",
						"offset": 0,
						"slot": "4",
						"type": "t_mapping(t_address,t_array(t_struct(Bid)6_storage)dyn_storage)"
					},
					{
						"astId": 22,
						"contract": "contract/BlindAuction.sol:BlindAuction",
						"label": "highestBidder",
						"offset": 0,
						"slot": "5",
						"type": "t_address"
					},
					{
						"astId": 24,
						"contract": "contract/BlindAuction.sol:BlindAuction",
						"label": "highestBid",
						"offset": 0,
						"slot": "6",
						"type": "t_uint256"
					},
					{
						"astId": 28,
						"contract": "contract/BlindAuction.sol:BlindAuction",
						"label": "pendingReturns",
						"offset": 0,
						"slot": "7",
						"type": "t_mapping(t_address,t_uint256)"
					}
				],
				"types": {
					"t_address": {
						"encoding": "inplace",
						"label": "address",
						"numberOfBytes": "20"
					},
					"t_address_payable": {
						"encoding": "inplace",
						"label": "address payable",
						"numberOfBytes": "20"
					},
					"t_array(t_struct(Bid)6_storage)dyn_storage": {
						"base": "t_struct(Bid)6_storage",
						"encoding": "dynamic_array",
						"label": "struct BlindAuction.Bid[]",
						"numberOfBytes": "32"
					},
					"t_bool": {
						"encoding": "inplace",
						"label": "bool",
						"numberOfBytes": "1"
					},
					"t_bytes32": {
						"encoding": "inplace",
						"label": "bytes32",
						"numberOfBytes": "32"
					},
					"t_mapping(t_address,t_array(t_struct(Bid)6_storage)dyn_storage)": {
						"encoding": "mapping",
						"key": "t_address",
						"label": "mapping(address => struct BlindAuction.Bid[])",
						"numberOfBytes": "32",
						"value": "t_array(t_struct(Bid)6_storage)dyn_storage"
					},
					"t_mapping(t_address,t_uint256)": {
						"encoding": "mapping",
						"key": "t_address",
						"label": "mapping(address => uint256)",
						"numberOfBytes": "32",
						"value": "t_uint256"
					},
					"t_struct(Bid)6_storage": {
						"encoding": "inplace",
						"label": "struct BlindAuction.Bid",
						"members": [
							{
								"astId": 3,
								"contract": "contract/BlindAuction.sol:BlindAuction",
								"label": "blindedBid",
								"offset": 0,
								"slot": "0",
								"type": "t_bytes32"
							},
							{
								"astId": 5,
								"contract": "contract/BlindAuction.sol:BlindAuction",
								"label": "deposit",
								"offset": 0,
								"slot": "1",
								"type": "t_uint256"
							}
						],
						"numberOfBytes": "64"
					},
					"t_uint256": {
						"encoding": "inplace",
						"label": "uint256",
						"numberOfBytes": "32"
					}
				}
			},
			"userdoc": {
				"kind": "user",
				"methods": {
					"auctionEnd()": {
						"notice": "End the auction and send the highest bid to the beneficiary."
					},
					"withdraw()": {
						"notice": "Withdraw a bid that was overbid."
					}
				},
				"version": 1
			}
		}
	}
}