{
	"contract/call&delegatecall.sol": {
		"EthAlice": {
			"abi": [
				{
					"inputs": [],
					"name": "addr",
					"outputs": [
						{
							"internalType": "address",
							"name": "",
							"type": "address"
						}
					],
					"stateMutability": "view",
					"type": "function"
				},
				{
					"inputs": [
						{
							"internalType": "address",
							"name": "ads",
							"type": "address"
						},
						{
							"internalType": "uint256",
							"name": "value",
							"type": "uint256"
						}
					],
					"name": "callSetNum",
					"outputs": [
						{
							"internalType": "bool",
							"name": "success",
							"type": "bool"
						},
						{
							"internalType": "bytes",
							"name": "data",
							"type": "bytes"
						}
					],
					"stateMutability": "nonpayable",
					"type": "function"
				},
				{
					"inputs": [
						{
							"internalType": "address",
							"name": "ads",
							"type": "address"
						},
						{
							"internalType": "uint256",
							"name": "value",
							"type": "uint256"
						}
					],
					"name": "delegatecallSetNum",
					"outputs": [
						{
							"internalType": "bool",
							"name": "success",
							"type": "bool"
						},
						{
							"internalType": "bytes",
							"name": "data",
							"type": "bytes"
						}
					],
					"stateMutability": "nonpayable",
					"type": "function"
				},
				{
					"inputs": [],
					"name": "num",
					"outputs": [
						{
							"internalType": "uint256",
							"name": "",
							"type": "uint256"
						}
					],
					"stateMutability": "view",
					"type": "function"
				}
			],
			"devdoc": {
				"kind": "dev",
				"methods": {},
				"version": 1
			},
			"evm": {
				"assembly": "    /* \"contract/call&delegatecall.sol\":64:566  contract EthAlice {\r... */\n  mstore(0x40, 0x80)\n  callvalue\n  dup1\n  iszero\n  tag_1\n  jumpi\n  0x00\n  dup1\n  revert\ntag_1:\n  pop\n  dataSize(sub_0)\n  dup1\n  dataOffset(sub_0)\n  0x00\n  codecopy\n  0x00\n  return\nstop\n\nsub_0: assembly {\n        /* \"contract/call&delegatecall.sol\":64:566  contract EthAlice {\r... */\n      mstore(0x40, 0x80)\n      callvalue\n      dup1\n      iszero\n      tag_1\n      jumpi\n      0x00\n      dup1\n      revert\n    tag_1:\n      pop\n      jumpi(tag_2, lt(calldatasize, 0x04))\n      shr(0xe0, calldataload(0x00))\n      dup1\n      0x34333560\n      eq\n      tag_3\n      jumpi\n      dup1\n      0x4e70b1dc\n      eq\n      tag_4\n      jumpi\n      dup1\n      0x767800de\n      eq\n      tag_5\n      jumpi\n      dup1\n      0xff04162c\n      eq\n      tag_6\n      jumpi\n    tag_2:\n      0x00\n      dup1\n      revert\n        /* \"contract/call&delegatecall.sol\":345:558  function delegatecallSetNum(address ads, uint value) public returns(bool success,bytes memory data) {\r... */\n    tag_3:\n      tag_7\n      0x04\n      dup1\n      calldatasize\n      sub\n      dup2\n      add\n      swap1\n      tag_8\n      swap2\n      swap1\n      tag_9\n      jump\t// in\n    tag_8:\n      tag_10\n      jump\t// in\n    tag_7:\n      mload(0x40)\n      tag_11\n      swap3\n      swap2\n      swap1\n      tag_12\n      jump\t// in\n    tag_11:\n      mload(0x40)\n      dup1\n      swap2\n      sub\n      swap1\n      return\n        /* \"contract/call&delegatecall.sol\":89:107  uint    public num */\n    tag_4:\n      tag_13\n      tag_14\n      jump\t// in\n    tag_13:\n      mload(0x40)\n      tag_15\n      swap2\n      swap1\n      tag_16\n      jump\t// in\n    tag_15:\n      mload(0x40)\n      dup1\n      swap2\n      sub\n      swap1\n      return\n        /* \"contract/call&delegatecall.sol\":114:133  address public addr */\n    tag_5:\n      tag_17\n      tag_18\n      jump\t// in\n    tag_17:\n      mload(0x40)\n      tag_19\n      swap2\n      swap1\n      tag_20\n      jump\t// in\n    tag_19:\n      mload(0x40)\n      dup1\n      swap2\n      sub\n      swap1\n      return\n        /* \"contract/call&delegatecall.sol\":140:337  function callSetNum(address ads, uint value) public returns(bool success,bytes memory data) {\r... */\n    tag_6:\n      tag_21\n      0x04\n      dup1\n      calldatasize\n      sub\n      dup2\n      add\n      swap1\n      tag_22\n      swap2\n      swap1\n      tag_9\n      jump\t// in\n    tag_22:\n      tag_23\n      jump\t// in\n    tag_21:\n      mload(0x40)\n      tag_24\n      swap3\n      swap2\n      swap1\n      tag_12\n      jump\t// in\n    tag_24:\n      mload(0x40)\n      dup1\n      swap2\n      sub\n      swap1\n      return\n        /* \"contract/call&delegatecall.sol\":345:558  function delegatecallSetNum(address ads, uint value) public returns(bool success,bytes memory data) {\r... */\n    tag_10:\n        /* \"contract/call&delegatecall.sol\":413:425  bool success */\n      0x00\n        /* \"contract/call&delegatecall.sol\":426:443  bytes memory data */\n      0x60\n        /* \"contract/call&delegatecall.sol\":482:485  ads */\n      dup4\n        /* \"contract/call&delegatecall.sol\":482:498  ads.delegatecall */\n      0xffffffffffffffffffffffffffffffffffffffff\n      and\n        /* \"contract/call&delegatecall.sol\":541:546  value */\n      dup4\n        /* \"contract/call&delegatecall.sol\":499:547  abi.encodeWithSignature(\"SetNum(uint256)\",value) */\n      add(0x24, mload(0x40))\n      tag_26\n      swap2\n      swap1\n      tag_16\n      jump\t// in\n    tag_26:\n      mload(0x40)\n      0x20\n      dup2\n      dup4\n      sub\n      sub\n      dup2\n      mstore\n      swap1\n      0x40\n      mstore\n      and(not(0xffffffffffffffffffffffffffffffffffffffffffffffffffffffff), 0xb5935c8800000000000000000000000000000000000000000000000000000000)\n      0x20\n      dup3\n      add\n      dup1\n      mload\n      0xffffffffffffffffffffffffffffffffffffffffffffffffffffffff\n      dup4\n      dup2\n      dup4\n      and\n      or\n      dup4\n      mstore\n      pop\n      pop\n      pop\n      pop\n        /* \"contract/call&delegatecall.sol\":482:548  ads.delegatecall(abi.encodeWithSignature(\"SetNum(uint256)\",value)) */\n      mload(0x40)\n      tag_27\n      swap2\n      swap1\n      tag_28\n      jump\t// in\n    tag_27:\n      0x00\n      mload(0x40)\n      dup1\n      dup4\n      sub\n      dup2\n      dup6\n      gas\n      delegatecall\n      swap2\n      pop\n      pop\n      returndatasize\n      dup1\n      0x00\n      dup2\n      eq\n      tag_31\n      jumpi\n      mload(0x40)\n      swap2\n      pop\n      and(add(returndatasize, 0x3f), not(0x1f))\n      dup3\n      add\n      0x40\n      mstore\n      returndatasize\n      dup3\n      mstore\n      returndatasize\n      0x00\n      0x20\n      dup5\n      add\n      returndatacopy\n      jump(tag_30)\n    tag_31:\n      0x60\n      swap2\n      pop\n    tag_30:\n      pop\n        /* \"contract/call&delegatecall.sol\":466:548  (success,data) =ads.delegatecall(abi.encodeWithSignature(\"SetNum(uint256)\",value)) */\n      dup1\n      swap3\n      pop\n      dup2\n      swap4\n      pop\n      pop\n      pop\n        /* \"contract/call&delegatecall.sol\":345:558  function delegatecallSetNum(address ads, uint value) public returns(bool success,bytes memory data) {\r... */\n      swap3\n      pop\n      swap3\n      swap1\n      pop\n      jump\t// out\n        /* \"contract/call&delegatecall.sol\":89:107  uint    public num */\n    tag_14:\n      sload(0x00)\n      dup2\n      jump\t// out\n        /* \"contract/call&delegatecall.sol\":114:133  address public addr */\n    tag_18:\n      0x01\n      0x00\n      swap1\n      sload\n      swap1\n      0x0100\n      exp\n      swap1\n      div\n      0xffffffffffffffffffffffffffffffffffffffff\n      and\n      dup2\n      jump\t// out\n        /* \"contract/call&delegatecall.sol\":140:337  function callSetNum(address ads, uint value) public returns(bool success,bytes memory data) {\r... */\n    tag_23:\n        /* \"contract/call&delegatecall.sol\":200:212  bool success */\n      0x00\n        /* \"contract/call&delegatecall.sol\":213:230  bytes memory data */\n      0x60\n        /* \"contract/call&delegatecall.sol\":269:272  ads */\n      dup4\n        /* \"contract/call&delegatecall.sol\":269:277  ads.call */\n      0xffffffffffffffffffffffffffffffffffffffff\n      and\n        /* \"contract/call&delegatecall.sol\":320:325  value */\n      dup4\n        /* \"contract/call&delegatecall.sol\":278:326  abi.encodeWithSignature(\"SetNum(uint256)\",value) */\n      add(0x24, mload(0x40))\n      tag_33\n      swap2\n      swap1\n      tag_16\n      jump\t// in\n    tag_33:\n      mload(0x40)\n      0x20\n      dup2\n      dup4\n      sub\n      sub\n      dup2\n      mstore\n      swap1\n      0x40\n      mstore\n      and(not(0xffffffffffffffffffffffffffffffffffffffffffffffffffffffff), 0xb5935c8800000000000000000000000000000000000000000000000000000000)\n      0x20\n      dup3\n      add\n      dup1\n      mload\n      0xffffffffffffffffffffffffffffffffffffffffffffffffffffffff\n      dup4\n      dup2\n      dup4\n      and\n      or\n      dup4\n      mstore\n      pop\n      pop\n      pop\n      pop\n        /* \"contract/call&delegatecall.sol\":269:327  ads.call(abi.encodeWithSignature(\"SetNum(uint256)\",value)) */\n      mload(0x40)\n      tag_34\n      swap2\n      swap1\n      tag_28\n      jump\t// in\n    tag_34:\n      0x00\n      mload(0x40)\n      dup1\n      dup4\n      sub\n      dup2\n      0x00\n      dup7\n      gas\n      call\n      swap2\n      pop\n      pop\n      returndatasize\n      dup1\n      0x00\n      dup2\n      eq\n      tag_37\n      jumpi\n      mload(0x40)\n      swap2\n      pop\n      and(add(returndatasize, 0x3f), not(0x1f))\n      dup3\n      add\n      0x40\n      mstore\n      returndatasize\n      dup3\n      mstore\n      returndatasize\n      0x00\n      0x20\n      dup5\n      add\n      returndatacopy\n      jump(tag_36)\n    tag_37:\n      0x60\n      swap2\n      pop\n    tag_36:\n      pop\n        /* \"contract/call&delegatecall.sol\":253:327  (success,data) =ads.call(abi.encodeWithSignature(\"SetNum(uint256)\",value)) */\n      dup1\n      swap3\n      pop\n      dup2\n      swap4\n      pop\n      pop\n      pop\n        /* \"contract/call&delegatecall.sol\":140:337  function callSetNum(address ads, uint value) public returns(bool success,bytes memory data) {\r... */\n      swap3\n      pop\n      swap3\n      swap1\n      pop\n      jump\t// out\n        /* \"#utility.yul\":7:146   */\n    tag_39:\n        /* \"#utility.yul\":53:58   */\n      0x00\n        /* \"#utility.yul\":91:97   */\n      dup2\n        /* \"#utility.yul\":78:98   */\n      calldataload\n        /* \"#utility.yul\":69:98   */\n      swap1\n      pop\n        /* \"#utility.yul\":107:140   */\n      tag_41\n        /* \"#utility.yul\":134:139   */\n      dup2\n        /* \"#utility.yul\":107:140   */\n      tag_42\n      jump\t// in\n    tag_41:\n        /* \"#utility.yul\":7:146   */\n      swap3\n      swap2\n      pop\n      pop\n      jump\t// out\n        /* \"#utility.yul\":152:291   */\n    tag_43:\n        /* \"#utility.yul\":198:203   */\n      0x00\n        /* \"#utility.yul\":236:242   */\n      dup2\n        /* \"#utility.yul\":223:243   */\n      calldataload\n        /* \"#utility.yul\":214:243   */\n      swap1\n      pop\n        /* \"#utility.yul\":252:285   */\n      tag_45\n        /* \"#utility.yul\":279:284   */\n      dup2\n        /* \"#utility.yul\":252:285   */\n      tag_46\n      jump\t// in\n    tag_45:\n        /* \"#utility.yul\":152:291   */\n      swap3\n      swap2\n      pop\n      pop\n      jump\t// out\n        /* \"#utility.yul\":297:771   */\n    tag_9:\n        /* \"#utility.yul\":365:371   */\n      0x00\n        /* \"#utility.yul\":373:379   */\n      dup1\n        /* \"#utility.yul\":422:424   */\n      0x40\n        /* \"#utility.yul\":410:419   */\n      dup4\n        /* \"#utility.yul\":401:408   */\n      dup6\n        /* \"#utility.yul\":397:420   */\n      sub\n        /* \"#utility.yul\":393:425   */\n      slt\n        /* \"#utility.yul\":390:509   */\n      iszero\n      tag_48\n      jumpi\n        /* \"#utility.yul\":428:507   */\n      tag_49\n      tag_50\n      jump\t// in\n    tag_49:\n        /* \"#utility.yul\":390:509   */\n    tag_48:\n        /* \"#utility.yul\":548:549   */\n      0x00\n        /* \"#utility.yul\":573:626   */\n      tag_51\n        /* \"#utility.yul\":618:625   */\n      dup6\n        /* \"#utility.yul\":609:615   */\n      dup3\n        /* \"#utility.yul\":598:607   */\n      dup7\n        /* \"#utility.yul\":594:616   */\n      add\n        /* \"#utility.yul\":573:626   */\n      tag_39\n      jump\t// in\n    tag_51:\n        /* \"#utility.yul\":563:626   */\n      swap3\n      pop\n        /* \"#utility.yul\":519:636   */\n      pop\n        /* \"#utility.yul\":675:677   */\n      0x20\n        /* \"#utility.yul\":701:754   */\n      tag_52\n        /* \"#utility.yul\":746:753   */\n      dup6\n        /* \"#utility.yul\":737:743   */\n      dup3\n        /* \"#utility.yul\":726:735   */\n      dup7\n        /* \"#utility.yul\":722:744   */\n      add\n        /* \"#utility.yul\":701:754   */\n      tag_43\n      jump\t// in\n    tag_52:\n        /* \"#utility.yul\":691:754   */\n      swap2\n      pop\n        /* \"#utility.yul\":646:764   */\n      pop\n        /* \"#utility.yul\":297:771   */\n      swap3\n      pop\n      swap3\n      swap1\n      pop\n      jump\t// out\n        /* \"#utility.yul\":777:895   */\n    tag_53:\n        /* \"#utility.yul\":864:888   */\n      tag_55\n        /* \"#utility.yul\":882:887   */\n      dup2\n        /* \"#utility.yul\":864:888   */\n      tag_56\n      jump\t// in\n    tag_55:\n        /* \"#utility.yul\":859:862   */\n      dup3\n        /* \"#utility.yul\":852:889   */\n      mstore\n        /* \"#utility.yul\":777:895   */\n      pop\n      pop\n      jump\t// out\n        /* \"#utility.yul\":901:1010   */\n    tag_57:\n        /* \"#utility.yul\":982:1003   */\n      tag_59\n        /* \"#utility.yul\":997:1002   */\n      dup2\n        /* \"#utility.yul\":982:1003   */\n      tag_60\n      jump\t// in\n    tag_59:\n        /* \"#utility.yul\":977:980   */\n      dup3\n        /* \"#utility.yul\":970:1004   */\n      mstore\n        /* \"#utility.yul\":901:1010   */\n      pop\n      pop\n      jump\t// out\n        /* \"#utility.yul\":1016:1376   */\n    tag_61:\n        /* \"#utility.yul\":1102:1105   */\n      0x00\n        /* \"#utility.yul\":1130:1168   */\n      tag_63\n        /* \"#utility.yul\":1162:1167   */\n      dup3\n        /* \"#utility.yul\":1130:1168   */\n      tag_64\n      jump\t// in\n    tag_63:\n        /* \"#utility.yul\":1184:1254   */\n      tag_65\n        /* \"#utility.yul\":1247:1253   */\n      dup2\n        /* \"#utility.yul\":1242:1245   */\n      dup6\n        /* \"#utility.yul\":1184:1254   */\n      tag_66\n      jump\t// in\n    tag_65:\n        /* \"#utility.yul\":1177:1254   */\n      swap4\n      pop\n        /* \"#utility.yul\":1263:1315   */\n      tag_67\n        /* \"#utility.yul\":1308:1314   */\n      dup2\n        /* \"#utility.yul\":1303:1306   */\n      dup6\n        /* \"#utility.yul\":1296:1300   */\n      0x20\n        /* \"#utility.yul\":1289:1294   */\n      dup7\n        /* \"#utility.yul\":1285:1301   */\n      add\n        /* \"#utility.yul\":1263:1315   */\n      tag_68\n      jump\t// in\n    tag_67:\n        /* \"#utility.yul\":1340:1369   */\n      tag_69\n        /* \"#utility.yul\":1362:1368   */\n      dup2\n        /* \"#utility.yul\":1340:1369   */\n      tag_70\n      jump\t// in\n    tag_69:\n        /* \"#utility.yul\":1335:1338   */\n      dup5\n        /* \"#utility.yul\":1331:1370   */\n      add\n        /* \"#utility.yul\":1324:1370   */\n      swap2\n      pop\n        /* \"#utility.yul\":1106:1376   */\n      pop\n        /* \"#utility.yul\":1016:1376   */\n      swap3\n      swap2\n      pop\n      pop\n      jump\t// out\n        /* \"#utility.yul\":1382:1755   */\n    tag_71:\n        /* \"#utility.yul\":1486:1489   */\n      0x00\n        /* \"#utility.yul\":1514:1552   */\n      tag_73\n        /* \"#utility.yul\":1546:1551   */\n      dup3\n        /* \"#utility.yul\":1514:1552   */\n      tag_64\n      jump\t// in\n    tag_73:\n        /* \"#utility.yul\":1568:1656   */\n      tag_74\n        /* \"#utility.yul\":1649:1655   */\n      dup2\n        /* \"#utility.yul\":1644:1647   */\n      dup6\n        /* \"#utility.yul\":1568:1656   */\n      tag_75\n      jump\t// in\n    tag_74:\n        /* \"#utility.yul\":1561:1656   */\n      swap4\n      pop\n        /* \"#utility.yul\":1665:1717   */\n      tag_76\n        /* \"#utility.yul\":1710:1716   */\n      dup2\n        /* \"#utility.yul\":1705:1708   */\n      dup6\n        /* \"#utility.yul\":1698:1702   */\n      0x20\n        /* \"#utility.yul\":1691:1696   */\n      dup7\n        /* \"#utility.yul\":1687:1703   */\n      add\n        /* \"#utility.yul\":1665:1717   */\n      tag_68\n      jump\t// in\n    tag_76:\n        /* \"#utility.yul\":1742:1748   */\n      dup1\n        /* \"#utility.yul\":1737:1740   */\n      dup5\n        /* \"#utility.yul\":1733:1749   */\n      add\n        /* \"#utility.yul\":1726:1749   */\n      swap2\n      pop\n        /* \"#utility.yul\":1490:1755   */\n      pop\n        /* \"#utility.yul\":1382:1755   */\n      swap3\n      swap2\n      pop\n      pop\n      jump\t// out\n        /* \"#utility.yul\":1761:1879   */\n    tag_77:\n        /* \"#utility.yul\":1848:1872   */\n      tag_79\n        /* \"#utility.yul\":1866:1871   */\n      dup2\n        /* \"#utility.yul\":1848:1872   */\n      tag_80\n      jump\t// in\n    tag_79:\n        /* \"#utility.yul\":1843:1846   */\n      dup3\n        /* \"#utility.yul\":1836:1873   */\n      mstore\n        /* \"#utility.yul\":1761:1879   */\n      pop\n      pop\n      jump\t// out\n        /* \"#utility.yul\":1885:2156   */\n    tag_28:\n        /* \"#utility.yul\":2015:2018   */\n      0x00\n        /* \"#utility.yul\":2037:2130   */\n      tag_82\n        /* \"#utility.yul\":2126:2129   */\n      dup3\n        /* \"#utility.yul\":2117:2123   */\n      dup5\n        /* \"#utility.yul\":2037:2130   */\n      tag_71\n      jump\t// in\n    tag_82:\n        /* \"#utility.yul\":2030:2130   */\n      swap2\n      pop\n        /* \"#utility.yul\":2147:2150   */\n      dup2\n        /* \"#utility.yul\":2140:2150   */\n      swap1\n      pop\n        /* \"#utility.yul\":1885:2156   */\n      swap3\n      swap2\n      pop\n      pop\n      jump\t// out\n        /* \"#utility.yul\":2162:2384   */\n    tag_20:\n        /* \"#utility.yul\":2255:2259   */\n      0x00\n        /* \"#utility.yul\":2293:2295   */\n      0x20\n        /* \"#utility.yul\":2282:2291   */\n      dup3\n        /* \"#utility.yul\":2278:2296   */\n      add\n        /* \"#utility.yul\":2270:2296   */\n      swap1\n      pop\n        /* \"#utility.yul\":2306:2377   */\n      tag_84\n        /* \"#utility.yul\":2374:2375   */\n      0x00\n        /* \"#utility.yul\":2363:2372   */\n      dup4\n        /* \"#utility.yul\":2359:2376   */\n      add\n        /* \"#utility.yul\":2350:2356   */\n      dup5\n        /* \"#utility.yul\":2306:2377   */\n      tag_53\n      jump\t// in\n    tag_84:\n        /* \"#utility.yul\":2162:2384   */\n      swap3\n      swap2\n      pop\n      pop\n      jump\t// out\n        /* \"#utility.yul\":2390:2797   */\n    tag_12:\n        /* \"#utility.yul\":2523:2527   */\n      0x00\n        /* \"#utility.yul\":2561:2563   */\n      0x40\n        /* \"#utility.yul\":2550:2559   */\n      dup3\n        /* \"#utility.yul\":2546:2564   */\n      add\n        /* \"#utility.yul\":2538:2564   */\n      swap1\n      pop\n        /* \"#utility.yul\":2574:2639   */\n      tag_86\n        /* \"#utility.yul\":2636:2637   */\n      0x00\n        /* \"#utility.yul\":2625:2634   */\n      dup4\n        /* \"#utility.yul\":2621:2638   */\n      add\n        /* \"#utility.yul\":2612:2618   */\n      dup6\n        /* \"#utility.yul\":2574:2639   */\n      tag_57\n      jump\t// in\n    tag_86:\n        /* \"#utility.yul\":2686:2695   */\n      dup2\n        /* \"#utility.yul\":2680:2684   */\n      dup2\n        /* \"#utility.yul\":2676:2696   */\n      sub\n        /* \"#utility.yul\":2671:2673   */\n      0x20\n        /* \"#utility.yul\":2660:2669   */\n      dup4\n        /* \"#utility.yul\":2656:2674   */\n      add\n        /* \"#utility.yul\":2649:2697   */\n      mstore\n        /* \"#utility.yul\":2714:2790   */\n      tag_87\n        /* \"#utility.yul\":2785:2789   */\n      dup2\n        /* \"#utility.yul\":2776:2782   */\n      dup5\n        /* \"#utility.yul\":2714:2790   */\n      tag_61\n      jump\t// in\n    tag_87:\n        /* \"#utility.yul\":2706:2790   */\n      swap1\n      pop\n        /* \"#utility.yul\":2390:2797   */\n      swap4\n      swap3\n      pop\n      pop\n      pop\n      jump\t// out\n        /* \"#utility.yul\":2803:3025   */\n    tag_16:\n        /* \"#utility.yul\":2896:2900   */\n      0x00\n        /* \"#utility.yul\":2934:2936   */\n      0x20\n        /* \"#utility.yul\":2923:2932   */\n      dup3\n        /* \"#utility.yul\":2919:2937   */\n      add\n        /* \"#utility.yul\":2911:2937   */\n      swap1\n      pop\n        /* \"#utility.yul\":2947:3018   */\n      tag_89\n        /* \"#utility.yul\":3015:3016   */\n      0x00\n        /* \"#utility.yul\":3004:3013   */\n      dup4\n        /* \"#utility.yul\":3000:3017   */\n      add\n        /* \"#utility.yul\":2991:2997   */\n      dup5\n        /* \"#utility.yul\":2947:3018   */\n      tag_77\n      jump\t// in\n    tag_89:\n        /* \"#utility.yul\":2803:3025   */\n      swap3\n      swap2\n      pop\n      pop\n      jump\t// out\n        /* \"#utility.yul\":3112:3210   */\n    tag_64:\n        /* \"#utility.yul\":3163:3169   */\n      0x00\n        /* \"#utility.yul\":3197:3202   */\n      dup2\n        /* \"#utility.yul\":3191:3203   */\n      mload\n        /* \"#utility.yul\":3181:3203   */\n      swap1\n      pop\n        /* \"#utility.yul\":3112:3210   */\n      swap2\n      swap1\n      pop\n      jump\t// out\n        /* \"#utility.yul\":3216:3384   */\n    tag_66:\n        /* \"#utility.yul\":3299:3310   */\n      0x00\n        /* \"#utility.yul\":3333:3339   */\n      dup3\n        /* \"#utility.yul\":3328:3331   */\n      dup3\n        /* \"#utility.yul\":3321:3340   */\n      mstore\n        /* \"#utility.yul\":3373:3377   */\n      0x20\n        /* \"#utility.yul\":3368:3371   */\n      dup3\n        /* \"#utility.yul\":3364:3378   */\n      add\n        /* \"#utility.yul\":3349:3378   */\n      swap1\n      pop\n        /* \"#utility.yul\":3216:3384   */\n      swap3\n      swap2\n      pop\n      pop\n      jump\t// out\n        /* \"#utility.yul\":3390:3537   */\n    tag_75:\n        /* \"#utility.yul\":3491:3502   */\n      0x00\n        /* \"#utility.yul\":3528:3531   */\n      dup2\n        /* \"#utility.yul\":3513:3531   */\n      swap1\n      pop\n        /* \"#utility.yul\":3390:3537   */\n      swap3\n      swap2\n      pop\n      pop\n      jump\t// out\n        /* \"#utility.yul\":3543:3639   */\n    tag_56:\n        /* \"#utility.yul\":3580:3587   */\n      0x00\n        /* \"#utility.yul\":3609:3633   */\n      tag_96\n        /* \"#utility.yul\":3627:3632   */\n      dup3\n        /* \"#utility.yul\":3609:3633   */\n      tag_97\n      jump\t// in\n    tag_96:\n        /* \"#utility.yul\":3598:3633   */\n      swap1\n      pop\n        /* \"#utility.yul\":3543:3639   */\n      swap2\n      swap1\n      pop\n      jump\t// out\n        /* \"#utility.yul\":3645:3735   */\n    tag_60:\n        /* \"#utility.yul\":3679:3686   */\n      0x00\n        /* \"#utility.yul\":3722:3727   */\n      dup2\n        /* \"#utility.yul\":3715:3728   */\n      iszero\n        /* \"#utility.yul\":3708:3729   */\n      iszero\n        /* \"#utility.yul\":3697:3729   */\n      swap1\n      pop\n        /* \"#utility.yul\":3645:3735   */\n      swap2\n      swap1\n      pop\n      jump\t// out\n        /* \"#utility.yul\":3741:3867   */\n    tag_97:\n        /* \"#utility.yul\":3778:3785   */\n      0x00\n        /* \"#utility.yul\":3818:3860   */\n      0xffffffffffffffffffffffffffffffffffffffff\n        /* \"#utility.yul\":3811:3816   */\n      dup3\n        /* \"#utility.yul\":3807:3861   */\n      and\n        /* \"#utility.yul\":3796:3861   */\n      swap1\n      pop\n        /* \"#utility.yul\":3741:3867   */\n      swap2\n      swap1\n      pop\n      jump\t// out\n        /* \"#utility.yul\":3873:3950   */\n    tag_80:\n        /* \"#utility.yul\":3910:3917   */\n      0x00\n        /* \"#utility.yul\":3939:3944   */\n      dup2\n        /* \"#utility.yul\":3928:3944   */\n      swap1\n      pop\n        /* \"#utility.yul\":3873:3950   */\n      swap2\n      swap1\n      pop\n      jump\t// out\n        /* \"#utility.yul\":3956:4263   */\n    tag_68:\n        /* \"#utility.yul\":4024:4025   */\n      0x00\n        /* \"#utility.yul\":4034:4147   */\n    tag_102:\n        /* \"#utility.yul\":4048:4054   */\n      dup4\n        /* \"#utility.yul\":4045:4046   */\n      dup2\n        /* \"#utility.yul\":4042:4055   */\n      lt\n        /* \"#utility.yul\":4034:4147   */\n      iszero\n      tag_104\n      jumpi\n        /* \"#utility.yul\":4133:4134   */\n      dup1\n        /* \"#utility.yul\":4128:4131   */\n      dup3\n        /* \"#utility.yul\":4124:4135   */\n      add\n        /* \"#utility.yul\":4118:4136   */\n      mload\n        /* \"#utility.yul\":4114:4115   */\n      dup2\n        /* \"#utility.yul\":4109:4112   */\n      dup5\n        /* \"#utility.yul\":4105:4116   */\n      add\n        /* \"#utility.yul\":4098:4137   */\n      mstore\n        /* \"#utility.yul\":4070:4072   */\n      0x20\n        /* \"#utility.yul\":4067:4068   */\n      dup2\n        /* \"#utility.yul\":4063:4073   */\n      add\n        /* \"#utility.yul\":4058:4073   */\n      swap1\n      pop\n        /* \"#utility.yul\":4034:4147   */\n      jump(tag_102)\n    tag_104:\n        /* \"#utility.yul\":4165:4171   */\n      dup4\n        /* \"#utility.yul\":4162:4163   */\n      dup2\n        /* \"#utility.yul\":4159:4172   */\n      gt\n        /* \"#utility.yul\":4156:4257   */\n      iszero\n      tag_105\n      jumpi\n        /* \"#utility.yul\":4245:4246   */\n      0x00\n        /* \"#utility.yul\":4236:4242   */\n      dup5\n        /* \"#utility.yul\":4231:4234   */\n      dup5\n        /* \"#utility.yul\":4227:4243   */\n      add\n        /* \"#utility.yul\":4220:4247   */\n      mstore\n        /* \"#utility.yul\":4156:4257   */\n    tag_105:\n        /* \"#utility.yul\":4005:4263   */\n      pop\n        /* \"#utility.yul\":3956:4263   */\n      pop\n      pop\n      pop\n      jump\t// out\n        /* \"#utility.yul\":4392:4509   */\n    tag_50:\n        /* \"#utility.yul\":4501:4502   */\n      0x00\n        /* \"#utility.yul\":4498:4499   */\n      dup1\n        /* \"#utility.yul\":4491:4503   */\n      revert\n        /* \"#utility.yul\":4515:4617   */\n    tag_70:\n        /* \"#utility.yul\":4556:4562   */\n      0x00\n        /* \"#utility.yul\":4607:4609   */\n      0x1f\n        /* \"#utility.yul\":4603:4610   */\n      not\n        /* \"#utility.yul\":4598:4600   */\n      0x1f\n        /* \"#utility.yul\":4591:4596   */\n      dup4\n        /* \"#utility.yul\":4587:4601   */\n      add\n        /* \"#utility.yul\":4583:4611   */\n      and\n        /* \"#utility.yul\":4573:4611   */\n      swap1\n      pop\n        /* \"#utility.yul\":4515:4617   */\n      swap2\n      swap1\n      pop\n      jump\t// out\n        /* \"#utility.yul\":4623:4745   */\n    tag_42:\n        /* \"#utility.yul\":4696:4720   */\n      tag_111\n        /* \"#utility.yul\":4714:4719   */\n      dup2\n        /* \"#utility.yul\":4696:4720   */\n      tag_56\n      jump\t// in\n    tag_111:\n        /* \"#utility.yul\":4689:4694   */\n      dup2\n        /* \"#utility.yul\":4686:4721   */\n      eq\n        /* \"#utility.yul\":4676:4739   */\n      tag_112\n      jumpi\n        /* \"#utility.yul\":4735:4736   */\n      0x00\n        /* \"#utility.yul\":4732:4733   */\n      dup1\n        /* \"#utility.yul\":4725:4737   */\n      revert\n        /* \"#utility.yul\":4676:4739   */\n    tag_112:\n        /* \"#utility.yul\":4623:4745   */\n      pop\n      jump\t// out\n        /* \"#utility.yul\":4751:4873   */\n    tag_46:\n        /* \"#utility.yul\":4824:4848   */\n      tag_114\n        /* \"#utility.yul\":4842:4847   */\n      dup2\n        /* \"#utility.yul\":4824:4848   */\n      tag_80\n      jump\t// in\n    tag_114:\n        /* \"#utility.yul\":4817:4822   */\n      dup2\n        /* \"#utility.yul\":4814:4849   */\n      eq\n        /* \"#utility.yul\":4804:4867   */\n      tag_115\n      jumpi\n        /* \"#utility.yul\":4863:4864   */\n      0x00\n        /* \"#utility.yul\":4860:4861   */\n      dup1\n        /* \"#utility.yul\":4853:4865   */\n      revert\n        /* \"#utility.yul\":4804:4867   */\n    tag_115:\n        /* \"#utility.yul\":4751:4873   */\n      pop\n      jump\t// out\n\n    auxdata: 0xa2646970667358221220177a055ece175e11053fa2c03d7df98eac3ff570c2bf5c6e3f3b95ef8830419564736f6c63430008070033\n}\n",
				"bytecode": {
					"linkReferences": {},
					"object": "608060405234801561001057600080fd5b506105c3806100206000396000f3fe608060405234801561001057600080fd5b506004361061004c5760003560e01c806334333560146100515780634e70b1dc14610082578063767800de146100a0578063ff04162c146100be575b600080fd5b61006b60048036038101906100669190610353565b6100ef565b60405161007992919061045c565b60405180910390f35b61008a6101f5565b604051610097919061048c565b60405180910390f35b6100a86101fb565b6040516100b59190610441565b60405180910390f35b6100d860048036038101906100d39190610353565b610221565b6040516100e692919061045c565b60405180910390f35b600060608373ffffffffffffffffffffffffffffffffffffffff168360405160240161011b919061048c565b6040516020818303038152906040527fb5935c88000000000000000000000000000000000000000000000000000000007bffffffffffffffffffffffffffffffffffffffffffffffffffffffff19166020820180517bffffffffffffffffffffffffffffffffffffffffffffffffffffffff83818316178352505050506040516101a5919061042a565b600060405180830381855af49150503d80600081146101e0576040519150601f19603f3d011682016040523d82523d6000602084013e6101e5565b606091505b5080925081935050509250929050565b60005481565b600160009054906101000a900473ffffffffffffffffffffffffffffffffffffffff1681565b600060608373ffffffffffffffffffffffffffffffffffffffff168360405160240161024d919061048c565b6040516020818303038152906040527fb5935c88000000000000000000000000000000000000000000000000000000007bffffffffffffffffffffffffffffffffffffffffffffffffffffffff19166020820180517bffffffffffffffffffffffffffffffffffffffffffffffffffffffff83818316178352505050506040516102d7919061042a565b6000604051808303816000865af19150503d8060008114610314576040519150601f19603f3d011682016040523d82523d6000602084013e610319565b606091505b5080925081935050509250929050565b6000813590506103388161055f565b92915050565b60008135905061034d81610576565b92915050565b6000806040838503121561036a57610369610549565b5b600061037885828601610329565b92505060206103898582860161033e565b9150509250929050565b61039c816104ce565b82525050565b6103ab816104e0565b82525050565b60006103bc826104a7565b6103c681856104b2565b93506103d6818560208601610516565b6103df8161054e565b840191505092915050565b60006103f5826104a7565b6103ff81856104c3565b935061040f818560208601610516565b80840191505092915050565b6104248161050c565b82525050565b600061043682846103ea565b915081905092915050565b60006020820190506104566000830184610393565b92915050565b600060408201905061047160008301856103a2565b818103602083015261048381846103b1565b90509392505050565b60006020820190506104a1600083018461041b565b92915050565b600081519050919050565b600082825260208201905092915050565b600081905092915050565b60006104d9826104ec565b9050919050565b60008115159050919050565b600073ffffffffffffffffffffffffffffffffffffffff82169050919050565b6000819050919050565b60005b83811015610534578082015181840152602081019050610519565b83811115610543576000848401525b50505050565b600080fd5b6000601f19601f8301169050919050565b610568816104ce565b811461057357600080fd5b50565b61057f8161050c565b811461058a57600080fd5b5056fea2646970667358221220177a055ece175e11053fa2c03d7df98eac3ff570c2bf5c6e3f3b95ef8830419564736f6c63430008070033",
					"opcodes": "PUSH1 0x80 PUSH1 0x40 MSTORE CALLVALUE DUP1 ISZERO PUSH2 0x10 JUMPI PUSH1 0x0 DUP1 REVERT JUMPDEST POP PUSH2 0x5C3 DUP1 PUSH2 0x20 PUSH1 0x0 CODECOPY PUSH1 0x0 RETURN INVALID PUSH1 0x80 PUSH1 0x40 MSTORE CALLVALUE DUP1 ISZERO PUSH2 0x10 JUMPI PUSH1 0x0 DUP1 REVERT JUMPDEST POP PUSH1 0x4 CALLDATASIZE LT PUSH2 0x4C JUMPI PUSH1 0x0 CALLDATALOAD PUSH1 0xE0 SHR DUP1 PUSH4 0x34333560 EQ PUSH2 0x51 JUMPI DUP1 PUSH4 0x4E70B1DC EQ PUSH2 0x82 JUMPI DUP1 PUSH4 0x767800DE EQ PUSH2 0xA0 JUMPI DUP1 PUSH4 0xFF04162C EQ PUSH2 0xBE JUMPI JUMPDEST PUSH1 0x0 DUP1 REVERT JUMPDEST PUSH2 0x6B PUSH1 0x4 DUP1 CALLDATASIZE SUB DUP2 ADD SWAP1 PUSH2 0x66 SWAP2 SWAP1 PUSH2 0x353 JUMP JUMPDEST PUSH2 0xEF JUMP JUMPDEST PUSH1 0x40 MLOAD PUSH2 0x79 SWAP3 SWAP2 SWAP1 PUSH2 0x45C JUMP JUMPDEST PUSH1 0x40 MLOAD DUP1 SWAP2 SUB SWAP1 RETURN JUMPDEST PUSH2 0x8A PUSH2 0x1F5 JUMP JUMPDEST PUSH1 0x40 MLOAD PUSH2 0x97 SWAP2 SWAP1 PUSH2 0x48C JUMP JUMPDEST PUSH1 0x40 MLOAD DUP1 SWAP2 SUB SWAP1 RETURN JUMPDEST PUSH2 0xA8 PUSH2 0x1FB JUMP JUMPDEST PUSH1 0x40 MLOAD PUSH2 0xB5 SWAP2 SWAP1 PUSH2 0x441 JUMP JUMPDEST PUSH1 0x40 MLOAD DUP1 SWAP2 SUB SWAP1 RETURN JUMPDEST PUSH2 0xD8 PUSH1 0x4 DUP1 CALLDATASIZE SUB DUP2 ADD SWAP1 PUSH2 0xD3 SWAP2 SWAP1 PUSH2 0x353 JUMP JUMPDEST PUSH2 0x221 JUMP JUMPDEST PUSH1 0x40 MLOAD PUSH2 0xE6 SWAP3 SWAP2 SWAP1 PUSH2 0x45C JUMP JUMPDEST PUSH1 0x40 MLOAD DUP1 SWAP2 SUB SWAP1 RETURN JUMPDEST PUSH1 0x0 PUSH1 0x60 DUP4 PUSH20 0xFFFFFFFFFFFFFFFFFFFFFFFFFFFFFFFFFFFFFFFF AND DUP4 PUSH1 0x40 MLOAD PUSH1 0x24 ADD PUSH2 0x11B SWAP2 SWAP1 PUSH2 0x48C JUMP JUMPDEST PUSH1 0x40 MLOAD PUSH1 0x20 DUP2 DUP4 SUB SUB DUP2 MSTORE SWAP1 PUSH1 0x40 MSTORE PUSH32 0xB5935C8800000000000000000000000000000000000000000000000000000000 PUSH28 0xFFFFFFFFFFFFFFFFFFFFFFFFFFFFFFFFFFFFFFFFFFFFFFFFFFFFFFFF NOT AND PUSH1 0x20 DUP3 ADD DUP1 MLOAD PUSH28 0xFFFFFFFFFFFFFFFFFFFFFFFFFFFFFFFFFFFFFFFFFFFFFFFFFFFFFFFF DUP4 DUP2 DUP4 AND OR DUP4 MSTORE POP POP POP POP PUSH1 0x40 MLOAD PUSH2 0x1A5 SWAP2 SWAP1 PUSH2 0x42A JUMP JUMPDEST PUSH1 0x0 PUSH1 0x40 MLOAD DUP1 DUP4 SUB DUP2 DUP6 GAS DELEGATECALL SWAP2 POP POP RETURNDATASIZE DUP1 PUSH1 0x0 DUP2 EQ PUSH2 0x1E0 JUMPI PUSH1 0x40 MLOAD SWAP2 POP PUSH1 0x1F NOT PUSH1 0x3F RETURNDATASIZE ADD AND DUP3 ADD PUSH1 0x40 MSTORE RETURNDATASIZE DUP3 MSTORE RETURNDATASIZE PUSH1 0x0 PUSH1 0x20 DUP5 ADD RETURNDATACOPY PUSH2 0x1E5 JUMP JUMPDEST PUSH1 0x60 SWAP2 POP JUMPDEST POP DUP1 SWAP3 POP DUP2 SWAP4 POP POP POP SWAP3 POP SWAP3 SWAP1 POP JUMP JUMPDEST PUSH1 0x0 SLOAD DUP2 JUMP JUMPDEST PUSH1 0x1 PUSH1 0x0 SWAP1 SLOAD SWAP1 PUSH2 0x100 EXP SWAP1 DIV PUSH20 0xFFFFFFFFFFFFFFFFFFFFFFFFFFFFFFFFFFFFFFFF AND DUP2 JUMP JUMPDEST PUSH1 0x0 PUSH1 0x60 DUP4 PUSH20 0xFFFFFFFFFFFFFFFFFFFFFFFFFFFFFFFFFFFFFFFF AND DUP4 PUSH1 0x40 MLOAD PUSH1 0x24 ADD PUSH2 0x24D SWAP2 SWAP1 PUSH2 0x48C JUMP JUMPDEST PUSH1 0x40 MLOAD PUSH1 0x20 DUP2 DUP4 SUB SUB DUP2 MSTORE SWAP1 PUSH1 0x40 MSTORE PUSH32 0xB5935C8800000000000000000000000000000000000000000000000000000000 PUSH28 0xFFFFFFFFFFFFFFFFFFFFFFFFFFFFFFFFFFFFFFFFFFFFFFFFFFFFFFFF NOT AND PUSH1 0x20 DUP3 ADD DUP1 MLOAD PUSH28 0xFFFFFFFFFFFFFFFFFFFFFFFFFFFFFFFFFFFFFFFFFFFFFFFFFFFFFFFF DUP4 DUP2 DUP4 AND OR DUP4 MSTORE POP POP POP POP PUSH1 0x40 MLOAD PUSH2 0x2D7 SWAP2 SWAP1 PUSH2 0x42A JUMP JUMPDEST PUSH1 0x0 PUSH1 0x40 MLOAD DUP1 DUP4 SUB DUP2 PUSH1 0x0 DUP7 GAS CALL SWAP2 POP POP RETURNDATASIZE DUP1 PUSH1 0x0 DUP2 EQ PUSH2 0x314 JUMPI PUSH1 0x40 MLOAD SWAP2 POP PUSH1 0x1F NOT PUSH1 0x3F RETURNDATASIZE ADD AND DUP3 ADD PUSH1 0x40 MSTORE RETURNDATASIZE DUP3 MSTORE RETURNDATASIZE PUSH1 0x0 PUSH1 0x20 DUP5 ADD RETURNDATACOPY PUSH2 0x319 JUMP JUMPDEST PUSH1 0x60 SWAP2 POP JUMPDEST POP DUP1 SWAP3 POP DUP2 SWAP4 POP POP POP SWAP3 POP SWAP3 SWAP1 POP JUMP JUMPDEST PUSH1 0x0 DUP2 CALLDATALOAD SWAP1 POP PUSH2 0x338 DUP2 PUSH2 0x55F JUMP JUMPDEST SWAP3 SWAP2 POP POP JUMP JUMPDEST PUSH1 0x0 DUP2 CALLDATALOAD SWAP1 POP PUSH2 0x34D DUP2 PUSH2 0x576 JUMP JUMPDEST SWAP3 SWAP2 POP POP JUMP JUMPDEST PUSH1 0x0 DUP1 PUSH1 0x40 DUP4 DUP6 SUB SLT ISZERO PUSH2 0x36A JUMPI PUSH2 0x369 PUSH2 0x549 JUMP JUMPDEST JUMPDEST PUSH1 0x0 PUSH2 0x378 DUP6 DUP3 DUP7 ADD PUSH2 0x329 JUMP JUMPDEST SWAP3 POP POP PUSH1 0x20 PUSH2 0x389 DUP6 DUP3 DUP7 ADD PUSH2 0x33E JUMP JUMPDEST SWAP2 POP POP SWAP3 POP SWAP3 SWAP1 POP JUMP JUMPDEST PUSH2 0x39C DUP2 PUSH2 0x4CE JUMP JUMPDEST DUP3 MSTORE POP POP JUMP JUMPDEST PUSH2 0x3AB DUP2 PUSH2 0x4E0 JUMP JUMPDEST DUP3 MSTORE POP POP JUMP JUMPDEST PUSH1 0x0 PUSH2 0x3BC DUP3 PUSH2 0x4A7 JUMP JUMPDEST PUSH2 0x3C6 DUP2 DUP6 PUSH2 0x4B2 JUMP JUMPDEST SWAP4 POP PUSH2 0x3D6 DUP2 DUP6 PUSH1 0x20 DUP7 ADD PUSH2 0x516 JUMP JUMPDEST PUSH2 0x3DF DUP2 PUSH2 0x54E JUMP JUMPDEST DUP5 ADD SWAP2 POP POP SWAP3 SWAP2 POP POP JUMP JUMPDEST PUSH1 0x0 PUSH2 0x3F5 DUP3 PUSH2 0x4A7 JUMP JUMPDEST PUSH2 0x3FF DUP2 DUP6 PUSH2 0x4C3 JUMP JUMPDEST SWAP4 POP PUSH2 0x40F DUP2 DUP6 PUSH1 0x20 DUP7 ADD PUSH2 0x516 JUMP JUMPDEST DUP1 DUP5 ADD SWAP2 POP POP SWAP3 SWAP2 POP POP JUMP JUMPDEST PUSH2 0x424 DUP2 PUSH2 0x50C JUMP JUMPDEST DUP3 MSTORE POP POP JUMP JUMPDEST PUSH1 0x0 PUSH2 0x436 DUP3 DUP5 PUSH2 0x3EA JUMP JUMPDEST SWAP2 POP DUP2 SWAP1 POP SWAP3 SWAP2 POP POP JUMP JUMPDEST PUSH1 0x0 PUSH1 0x20 DUP3 ADD SWAP1 POP PUSH2 0x456 PUSH1 0x0 DUP4 ADD DUP5 PUSH2 0x393 JUMP JUMPDEST SWAP3 SWAP2 POP POP JUMP JUMPDEST PUSH1 0x0 PUSH1 0x40 DUP3 ADD SWAP1 POP PUSH2 0x471 PUSH1 0x0 DUP4 ADD DUP6 PUSH2 0x3A2 JUMP JUMPDEST DUP2 DUP2 SUB PUSH1 0x20 DUP4 ADD MSTORE PUSH2 0x483 DUP2 DUP5 PUSH2 0x3B1 JUMP JUMPDEST SWAP1 POP SWAP4 SWAP3 POP POP POP JUMP JUMPDEST PUSH1 0x0 PUSH1 0x20 DUP3 ADD SWAP1 POP PUSH2 0x4A1 PUSH1 0x0 DUP4 ADD DUP5 PUSH2 0x41B JUMP JUMPDEST SWAP3 SWAP2 POP POP JUMP JUMPDEST PUSH1 0x0 DUP2 MLOAD SWAP1 POP SWAP2 SWAP1 POP JUMP JUMPDEST PUSH1 0x0 DUP3 DUP3 MSTORE PUSH1 0x20 DUP3 ADD SWAP1 POP SWAP3 SWAP2 POP POP JUMP JUMPDEST PUSH1 0x0 DUP2 SWAP1 POP SWAP3 SWAP2 POP POP JUMP JUMPDEST PUSH1 0x0 PUSH2 0x4D9 DUP3 PUSH2 0x4EC JUMP JUMPDEST SWAP1 POP SWAP2 SWAP1 POP JUMP JUMPDEST PUSH1 0x0 DUP2 ISZERO ISZERO SWAP1 POP SWAP2 SWAP1 POP JUMP JUMPDEST PUSH1 0x0 PUSH20 0xFFFFFFFFFFFFFFFFFFFFFFFFFFFFFFFFFFFFFFFF DUP3 AND SWAP1 POP SWAP2 SWAP1 POP JUMP JUMPDEST PUSH1 0x0 DUP2 SWAP1 POP SWAP2 SWAP1 POP JUMP JUMPDEST PUSH1 0x0 JUMPDEST DUP4 DUP2 LT ISZERO PUSH2 0x534 JUMPI DUP1 DUP3 ADD MLOAD DUP2 DUP5 ADD MSTORE PUSH1 0x20 DUP2 ADD SWAP1 POP PUSH2 0x519 JUMP JUMPDEST DUP4 DUP2 GT ISZERO PUSH2 0x543 JUMPI PUSH1 0x0 DUP5 DUP5 ADD MSTORE JUMPDEST POP POP POP POP JUMP JUMPDEST PUSH1 0x0 DUP1 REVERT JUMPDEST PUSH1 0x0 PUSH1 0x1F NOT PUSH1 0x1F DUP4 ADD AND SWAP1 POP SWAP2 SWAP1 POP JUMP JUMPDEST PUSH2 0x568 DUP2 PUSH2 0x4CE JUMP JUMPDEST DUP2 EQ PUSH2 0x573 JUMPI PUSH1 0x0 DUP1 REVERT JUMPDEST POP JUMP JUMPDEST PUSH2 0x57F DUP2 PUSH2 0x50C JUMP JUMPDEST DUP2 EQ PUSH2 0x58A JUMPI PUSH1 0x0 DUP1 REVERT JUMPDEST POP JUMP INVALID LOG2 PUSH5 0x6970667358 0x22 SLT KECCAK256 OR PUSH27 0x55ECE175E11053FA2C03D7DF98EAC3FF570C2BF5C6E3F3B95EF88 ADDRESS COINBASE SWAP6 PUSH5 0x736F6C6343 STOP ADDMOD SMOD STOP CALLER "
				},
				"gasEstimates": {
					"creation": {
						"codeDepositCost": "295000",
						"executionCost": "337",
						"totalCost": "295337"
					},
					"external": {
						"addr()": "2536",
						"callSetNum(address,uint256)": "infinite",
						"delegatecallSetNum(address,uint256)": "infinite",
						"num()": "2429"
					}
				},
				"methodIdentifiers": {
					"addr()": "767800de",
					"callSetNum(address,uint256)": "ff04162c",
					"delegatecallSetNum(address,uint256)": "34333560",
					"num()": "4e70b1dc"
				}
			},
			"storageLayout": {
				"storage": [
					{
						"astId": 3,
						"contract": "contract/call&delegatecall.sol:EthAlice",
						"label": "num",
						"offset": 0,
						"slot": "0",
						"type": "t_uint256"
					},
					{
						"astId": 5,
						"contract": "contract/call&delegatecall.sol:EthAlice",
						"label": "addr",
						"offset": 0,
						"slot": "1",
						"type": "t_address"
					}
				],
				"types": {
					"t_address": {
						"encoding": "inplace",
						"label": "address",
						"numberOfBytes": "20"
					},
					"t_uint256": {
						"encoding": "inplace",
						"label": "uint256",
						"numberOfBytes": "32"
					}
				}
			},
			"userdoc": {
				"kind": "user",
				"methods": {},
				"version": 1
			}
		}
	}
}