{
	"contract/call&delegatecall.sol": {
		"EthBob": {
			"abi": [
				{
					"anonymous": false,
					"inputs": [
						{
							"indexed": false,
							"internalType": "address",
							"name": "",
							"type": "address"
						}
					],
					"name": "sendAddr",
					"type": "event"
				},
				{
					"inputs": [
						{
							"internalType": "uint256",
							"name": "_num",
							"type": "uint256"
						}
					],
					"name": "SetNum",
					"outputs": [],
					"stateMutability": "nonpayable",
					"type": "function"
				},
				{
					"inputs": [],
					"name": "addr",
					"outputs": [
						{
							"internalType": "address",
							"name": "",
							"type": "address"
						}
					],
					"stateMutability": "view",
					"type": "function"
				},
				{
					"inputs": [],
					"name": "num",
					"outputs": [
						{
							"internalType": "uint256",
							"name": "",
							"type": "uint256"
						}
					],
					"stateMutability": "view",
					"type": "function"
				}
			],
			"devdoc": {
				"kind": "dev",
				"methods": {},
				"version": 1
			},
			"evm": {
				"assembly": "    /* \"contract/call&delegatecall.sol\":568:804  contract EthBob {\r... */\n  mstore(0x40, 0x80)\n  callvalue\n  dup1\n  iszero\n  tag_1\n  jumpi\n  0x00\n  dup1\n  revert\ntag_1:\n  pop\n  dataSize(sub_0)\n  dup1\n  dataOffset(sub_0)\n  0x00\n  codecopy\n  0x00\n  return\nstop\n\nsub_0: assembly {\n        /* \"contract/call&delegatecall.sol\":568:804  contract EthBob {\r... */\n      mstore(0x40, 0x80)\n      callvalue\n      dup1\n      iszero\n      tag_1\n      jumpi\n      0x00\n      dup1\n      revert\n    tag_1:\n      pop\n      jumpi(tag_2, lt(calldatasize, 0x04))\n      shr(0xe0, calldataload(0x00))\n      dup1\n      0x4e70b1dc\n      eq\n      tag_3\n      jumpi\n      dup1\n      0x767800de\n      eq\n      tag_4\n      jumpi\n      dup1\n      0xb5935c88\n      eq\n      tag_5\n      jumpi\n    tag_2:\n      0x00\n      dup1\n      revert\n        /* \"contract/call&delegatecall.sol\":591:609  uint    public num */\n    tag_3:\n      tag_6\n      tag_7\n      jump\t// in\n    tag_6:\n      mload(0x40)\n      tag_8\n      swap2\n      swap1\n      tag_9\n      jump\t// in\n    tag_8:\n      mload(0x40)\n      dup1\n      swap2\n      sub\n      swap1\n      return\n        /* \"contract/call&delegatecall.sol\":616:635  address public addr */\n    tag_4:\n      tag_10\n      tag_11\n      jump\t// in\n    tag_10:\n      mload(0x40)\n      tag_12\n      swap2\n      swap1\n      tag_13\n      jump\t// in\n    tag_12:\n      mload(0x40)\n      dup1\n      swap2\n      sub\n      swap1\n      return\n        /* \"contract/call&delegatecall.sol\":674:801  function SetNum(uint _num) public {\r... */\n    tag_5:\n      tag_14\n      0x04\n      dup1\n      calldatasize\n      sub\n      dup2\n      add\n      swap1\n      tag_15\n      swap2\n      swap1\n      tag_16\n      jump\t// in\n    tag_15:\n      tag_17\n      jump\t// in\n    tag_14:\n      stop\n        /* \"contract/call&delegatecall.sol\":591:609  uint    public num */\n    tag_7:\n      sload(0x00)\n      dup2\n      jump\t// out\n        /* \"contract/call&delegatecall.sol\":616:635  address public addr */\n    tag_11:\n      0x01\n      0x00\n      swap1\n      sload\n      swap1\n      0x0100\n      exp\n      swap1\n      div\n      0xffffffffffffffffffffffffffffffffffffffff\n      and\n      dup2\n      jump\t// out\n        /* \"contract/call&delegatecall.sol\":674:801  function SetNum(uint _num) public {\r... */\n    tag_17:\n        /* \"contract/call&delegatecall.sol\":725:729  _num */\n      dup1\n        /* \"contract/call&delegatecall.sol\":719:722  num */\n      0x00\n        /* \"contract/call&delegatecall.sol\":719:729  num = _num */\n      dup2\n      swap1\n      sstore\n      pop\n        /* \"contract/call&delegatecall.sol\":747:757  msg.sender */\n      caller\n        /* \"contract/call&delegatecall.sol\":740:744  addr */\n      0x01\n      0x00\n        /* \"contract/call&delegatecall.sol\":740:757  addr = msg.sender */\n      0x0100\n      exp\n      dup2\n      sload\n      dup2\n      0xffffffffffffffffffffffffffffffffffffffff\n      mul\n      not\n      and\n      swap1\n      dup4\n      0xffffffffffffffffffffffffffffffffffffffff\n      and\n      mul\n      or\n      swap1\n      sstore\n      pop\n        /* \"contract/call&delegatecall.sol\":773:793  sendAddr(msg.sender) */\n      0x626e934f705287937f44ee5538ff73de80e8b9fcd0b0f91cdc3b5aa516734be8\n        /* \"contract/call&delegatecall.sol\":782:792  msg.sender */\n      caller\n        /* \"contract/call&delegatecall.sol\":773:793  sendAddr(msg.sender) */\n      mload(0x40)\n      tag_19\n      swap2\n      swap1\n      tag_13\n      jump\t// in\n    tag_19:\n      mload(0x40)\n      dup1\n      swap2\n      sub\n      swap1\n      log1\n        /* \"contract/call&delegatecall.sol\":674:801  function SetNum(uint _num) public {\r... */\n      pop\n      jump\t// out\n        /* \"#utility.yul\":7:146   */\n    tag_21:\n        /* \"#utility.yul\":53:58   */\n      0x00\n        /* \"#utility.yul\":91:97   */\n      dup2\n        /* \"#utility.yul\":78:98   */\n      calldataload\n        /* \"#utility.yul\":69:98   */\n      swap1\n      pop\n        /* \"#utility.yul\":107:140   */\n      tag_23\n        /* \"#utility.yul\":134:139   */\n      dup2\n        /* \"#utility.yul\":107:140   */\n      tag_24\n      jump\t// in\n    tag_23:\n        /* \"#utility.yul\":7:146   */\n      swap3\n      swap2\n      pop\n      pop\n      jump\t// out\n        /* \"#utility.yul\":152:481   */\n    tag_16:\n        /* \"#utility.yul\":211:217   */\n      0x00\n        /* \"#utility.yul\":260:262   */\n      0x20\n        /* \"#utility.yul\":248:257   */\n      dup3\n        /* \"#utility.yul\":239:246   */\n      dup5\n        /* \"#utility.yul\":235:258   */\n      sub\n        /* \"#utility.yul\":231:263   */\n      slt\n        /* \"#utility.yul\":228:347   */\n      iszero\n      tag_26\n      jumpi\n        /* \"#utility.yul\":266:345   */\n      tag_27\n      tag_28\n      jump\t// in\n    tag_27:\n        /* \"#utility.yul\":228:347   */\n    tag_26:\n        /* \"#utility.yul\":386:387   */\n      0x00\n        /* \"#utility.yul\":411:464   */\n      tag_29\n        /* \"#utility.yul\":456:463   */\n      dup5\n        /* \"#utility.yul\":447:453   */\n      dup3\n        /* \"#utility.yul\":436:445   */\n      dup6\n        /* \"#utility.yul\":432:454   */\n      add\n        /* \"#utility.yul\":411:464   */\n      tag_21\n      jump\t// in\n    tag_29:\n        /* \"#utility.yul\":401:464   */\n      swap2\n      pop\n        /* \"#utility.yul\":357:474   */\n      pop\n        /* \"#utility.yul\":152:481   */\n      swap3\n      swap2\n      pop\n      pop\n      jump\t// out\n        /* \"#utility.yul\":487:605   */\n    tag_30:\n        /* \"#utility.yul\":574:598   */\n      tag_32\n        /* \"#utility.yul\":592:597   */\n      dup2\n        /* \"#utility.yul\":574:598   */\n      tag_33\n      jump\t// in\n    tag_32:\n        /* \"#utility.yul\":569:572   */\n      dup3\n        /* \"#utility.yul\":562:599   */\n      mstore\n        /* \"#utility.yul\":487:605   */\n      pop\n      pop\n      jump\t// out\n        /* \"#utility.yul\":611:729   */\n    tag_34:\n        /* \"#utility.yul\":698:722   */\n      tag_36\n        /* \"#utility.yul\":716:721   */\n      dup2\n        /* \"#utility.yul\":698:722   */\n      tag_37\n      jump\t// in\n    tag_36:\n        /* \"#utility.yul\":693:696   */\n      dup3\n        /* \"#utility.yul\":686:723   */\n      mstore\n        /* \"#utility.yul\":611:729   */\n      pop\n      pop\n      jump\t// out\n        /* \"#utility.yul\":735:957   */\n    tag_13:\n        /* \"#utility.yul\":828:832   */\n      0x00\n        /* \"#utility.yul\":866:868   */\n      0x20\n        /* \"#utility.yul\":855:864   */\n      dup3\n        /* \"#utility.yul\":851:869   */\n      add\n        /* \"#utility.yul\":843:869   */\n      swap1\n      pop\n        /* \"#utility.yul\":879:950   */\n      tag_39\n        /* \"#utility.yul\":947:948   */\n      0x00\n        /* \"#utility.yul\":936:945   */\n      dup4\n        /* \"#utility.yul\":932:949   */\n      add\n        /* \"#utility.yul\":923:929   */\n      dup5\n        /* \"#utility.yul\":879:950   */\n      tag_30\n      jump\t// in\n    tag_39:\n        /* \"#utility.yul\":735:957   */\n      swap3\n      swap2\n      pop\n      pop\n      jump\t// out\n        /* \"#utility.yul\":963:1185   */\n    tag_9:\n        /* \"#utility.yul\":1056:1060   */\n      0x00\n        /* \"#utility.yul\":1094:1096   */\n      0x20\n        /* \"#utility.yul\":1083:1092   */\n      dup3\n        /* \"#utility.yul\":1079:1097   */\n      add\n        /* \"#utility.yul\":1071:1097   */\n      swap1\n      pop\n        /* \"#utility.yul\":1107:1178   */\n      tag_41\n        /* \"#utility.yul\":1175:1176   */\n      0x00\n        /* \"#utility.yul\":1164:1173   */\n      dup4\n        /* \"#utility.yul\":1160:1177   */\n      add\n        /* \"#utility.yul\":1151:1157   */\n      dup5\n        /* \"#utility.yul\":1107:1178   */\n      tag_34\n      jump\t// in\n    tag_41:\n        /* \"#utility.yul\":963:1185   */\n      swap3\n      swap2\n      pop\n      pop\n      jump\t// out\n        /* \"#utility.yul\":1272:1368   */\n    tag_33:\n        /* \"#utility.yul\":1309:1316   */\n      0x00\n        /* \"#utility.yul\":1338:1362   */\n      tag_45\n        /* \"#utility.yul\":1356:1361   */\n      dup3\n        /* \"#utility.yul\":1338:1362   */\n      tag_46\n      jump\t// in\n    tag_45:\n        /* \"#utility.yul\":1327:1362   */\n      swap1\n      pop\n        /* \"#utility.yul\":1272:1368   */\n      swap2\n      swap1\n      pop\n      jump\t// out\n        /* \"#utility.yul\":1374:1500   */\n    tag_46:\n        /* \"#utility.yul\":1411:1418   */\n      0x00\n        /* \"#utility.yul\":1451:1493   */\n      0xffffffffffffffffffffffffffffffffffffffff\n        /* \"#utility.yul\":1444:1449   */\n      dup3\n        /* \"#utility.yul\":1440:1494   */\n      and\n        /* \"#utility.yul\":1429:1494   */\n      swap1\n      pop\n        /* \"#utility.yul\":1374:1500   */\n      swap2\n      swap1\n      pop\n      jump\t// out\n        /* \"#utility.yul\":1506:1583   */\n    tag_37:\n        /* \"#utility.yul\":1543:1550   */\n      0x00\n        /* \"#utility.yul\":1572:1577   */\n      dup2\n        /* \"#utility.yul\":1561:1577   */\n      swap1\n      pop\n        /* \"#utility.yul\":1506:1583   */\n      swap2\n      swap1\n      pop\n      jump\t// out\n        /* \"#utility.yul\":1712:1829   */\n    tag_28:\n        /* \"#utility.yul\":1821:1822   */\n      0x00\n        /* \"#utility.yul\":1818:1819   */\n      dup1\n        /* \"#utility.yul\":1811:1823   */\n      revert\n        /* \"#utility.yul\":1835:1957   */\n    tag_24:\n        /* \"#utility.yul\":1908:1932   */\n      tag_53\n        /* \"#utility.yul\":1926:1931   */\n      dup2\n        /* \"#utility.yul\":1908:1932   */\n      tag_37\n      jump\t// in\n    tag_53:\n        /* \"#utility.yul\":1901:1906   */\n      dup2\n        /* \"#utility.yul\":1898:1933   */\n      eq\n        /* \"#utility.yul\":1888:1951   */\n      tag_54\n      jumpi\n        /* \"#utility.yul\":1947:1948   */\n      0x00\n        /* \"#utility.yul\":1944:1945   */\n      dup1\n        /* \"#utility.yul\":1937:1949   */\n      revert\n        /* \"#utility.yul\":1888:1951   */\n    tag_54:\n        /* \"#utility.yul\":1835:1957   */\n      pop\n      jump\t// out\n\n    auxdata: 0xa264697066735822122099e19f560bef346587f1589b37ab57692c2d8c04b3d24d0a1ec45b7abe8acd7064736f6c63430008070033\n}\n",
				"bytecode": {
					"linkReferences": {},
					"object": "608060405234801561001057600080fd5b50610270806100206000396000f3fe608060405234801561001057600080fd5b50600436106100415760003560e01c80634e70b1dc14610046578063767800de14610064578063b5935c8814610082575b600080fd5b61004e61009e565b60405161005b91906101c7565b60405180910390f35b61006c6100a4565b60405161007991906101ac565b60405180910390f35b61009c60048036038101906100979190610161565b6100ca565b005b60005481565b600160009054906101000a900473ffffffffffffffffffffffffffffffffffffffff1681565b8060008190555033600160006101000a81548173ffffffffffffffffffffffffffffffffffffffff021916908373ffffffffffffffffffffffffffffffffffffffff1602179055507f626e934f705287937f44ee5538ff73de80e8b9fcd0b0f91cdc3b5aa516734be83360405161014191906101ac565b60405180910390a150565b60008135905061015b81610223565b92915050565b6000602082840312156101775761017661021e565b5b60006101858482850161014c565b91505092915050565b610197816101e2565b82525050565b6101a681610214565b82525050565b60006020820190506101c1600083018461018e565b92915050565b60006020820190506101dc600083018461019d565b92915050565b60006101ed826101f4565b9050919050565b600073ffffffffffffffffffffffffffffffffffffffff82169050919050565b6000819050919050565b600080fd5b61022c81610214565b811461023757600080fd5b5056fea264697066735822122099e19f560bef346587f1589b37ab57692c2d8c04b3d24d0a1ec45b7abe8acd7064736f6c63430008070033",
					"opcodes": "PUSH1 0x80 PUSH1 0x40 MSTORE CALLVALUE DUP1 ISZERO PUSH2 0x10 JUMPI PUSH1 0x0 DUP1 REVERT JUMPDEST POP PUSH2 0x270 DUP1 PUSH2 0x20 PUSH1 0x0 CODECOPY PUSH1 0x0 RETURN INVALID PUSH1 0x80 PUSH1 0x40 MSTORE CALLVALUE DUP1 ISZERO PUSH2 0x10 JUMPI PUSH1 0x0 DUP1 REVERT JUMPDEST POP PUSH1 0x4 CALLDATASIZE LT PUSH2 0x41 JUMPI PUSH1 0x0 CALLDATALOAD PUSH1 0xE0 SHR DUP1 PUSH4 0x4E70B1DC EQ PUSH2 0x46 JUMPI DUP1 PUSH4 0x767800DE EQ PUSH2 0x64 JUMPI DUP1 PUSH4 0xB5935C88 EQ PUSH2 0x82 JUMPI JUMPDEST PUSH1 0x0 DUP1 REVERT JUMPDEST PUSH2 0x4E PUSH2 0x9E JUMP JUMPDEST PUSH1 0x40 MLOAD PUSH2 0x5B SWAP2 SWAP1 PUSH2 0x1C7 JUMP JUMPDEST PUSH1 0x40 MLOAD DUP1 SWAP2 SUB SWAP1 RETURN JUMPDEST PUSH2 0x6C PUSH2 0xA4 JUMP JUMPDEST PUSH1 0x40 MLOAD PUSH2 0x79 SWAP2 SWAP1 PUSH2 0x1AC JUMP JUMPDEST PUSH1 0x40 MLOAD DUP1 SWAP2 SUB SWAP1 RETURN JUMPDEST PUSH2 0x9C PUSH1 0x4 DUP1 CALLDATASIZE SUB DUP2 ADD SWAP1 PUSH2 0x97 SWAP2 SWAP1 PUSH2 0x161 JUMP JUMPDEST PUSH2 0xCA JUMP JUMPDEST STOP JUMPDEST PUSH1 0x0 SLOAD DUP2 JUMP JUMPDEST PUSH1 0x1 PUSH1 0x0 SWAP1 SLOAD SWAP1 PUSH2 0x100 EXP SWAP1 DIV PUSH20 0xFFFFFFFFFFFFFFFFFFFFFFFFFFFFFFFFFFFFFFFF AND DUP2 JUMP JUMPDEST DUP1 PUSH1 0x0 DUP2 SWAP1 SSTORE POP CALLER PUSH1 0x1 PUSH1 0x0 PUSH2 0x100 EXP DUP2 SLOAD DUP2 PUSH20 0xFFFFFFFFFFFFFFFFFFFFFFFFFFFFFFFFFFFFFFFF MUL NOT AND SWAP1 DUP4 PUSH20 0xFFFFFFFFFFFFFFFFFFFFFFFFFFFFFFFFFFFFFFFF AND MUL OR SWAP1 SSTORE POP PUSH32 0x626E934F705287937F44EE5538FF73DE80E8B9FCD0B0F91CDC3B5AA516734BE8 CALLER PUSH1 0x40 MLOAD PUSH2 0x141 SWAP2 SWAP1 PUSH2 0x1AC JUMP JUMPDEST PUSH1 0x40 MLOAD DUP1 SWAP2 SUB SWAP1 LOG1 POP JUMP JUMPDEST PUSH1 0x0 DUP2 CALLDATALOAD SWAP1 POP PUSH2 0x15B DUP2 PUSH2 0x223 JUMP JUMPDEST SWAP3 SWAP2 POP POP JUMP JUMPDEST PUSH1 0x0 PUSH1 0x20 DUP3 DUP5 SUB SLT ISZERO PUSH2 0x177 JUMPI PUSH2 0x176 PUSH2 0x21E JUMP JUMPDEST JUMPDEST PUSH1 0x0 PUSH2 0x185 DUP5 DUP3 DUP6 ADD PUSH2 0x14C JUMP JUMPDEST SWAP2 POP POP SWAP3 SWAP2 POP POP JUMP JUMPDEST PUSH2 0x197 DUP2 PUSH2 0x1E2 JUMP JUMPDEST DUP3 MSTORE POP POP JUMP JUMPDEST PUSH2 0x1A6 DUP2 PUSH2 0x214 JUMP JUMPDEST DUP3 MSTORE POP POP JUMP JUMPDEST PUSH1 0x0 PUSH1 0x20 DUP3 ADD SWAP1 POP PUSH2 0x1C1 PUSH1 0x0 DUP4 ADD DUP5 PUSH2 0x18E JUMP JUMPDEST SWAP3 SWAP2 POP POP JUMP JUMPDEST PUSH1 0x0 PUSH1 0x20 DUP3 ADD SWAP1 POP PUSH2 0x1DC PUSH1 0x0 DUP4 ADD DUP5 PUSH2 0x19D JUMP JUMPDEST SWAP3 SWAP2 POP POP JUMP JUMPDEST PUSH1 0x0 PUSH2 0x1ED DUP3 PUSH2 0x1F4 JUMP JUMPDEST SWAP1 POP SWAP2 SWAP1 POP JUMP JUMPDEST PUSH1 0x0 PUSH20 0xFFFFFFFFFFFFFFFFFFFFFFFFFFFFFFFFFFFFFFFF DUP3 AND SWAP1 POP SWAP2 SWAP1 POP JUMP JUMPDEST PUSH1 0x0 DUP2 SWAP1 POP SWAP2 SWAP1 POP JUMP JUMPDEST PUSH1 0x0 DUP1 REVERT JUMPDEST PUSH2 0x22C DUP2 PUSH2 0x214 JUMP JUMPDEST DUP2 EQ PUSH2 0x237 JUMPI PUSH1 0x0 DUP1 REVERT JUMPDEST POP JUMP INVALID LOG2 PUSH5 0x6970667358 0x22 SLT KECCAK256 SWAP10 0xE1 SWAP16 JUMP SIGNEXTEND 0xEF CALLVALUE PUSH6 0x87F1589B37AB JUMPI PUSH10 0x2C2D8C04B3D24D0A1EC4 JUMPDEST PUSH27 0xBE8ACD7064736F6C63430008070033000000000000000000000000 "
				},
				"gasEstimates": {
					"creation": {
						"codeDepositCost": "124800",
						"executionCost": "171",
						"totalCost": "124971"
					},
					"external": {
						"SetNum(uint256)": "48047",
						"addr()": "2514",
						"num()": "2407"
					}
				},
				"methodIdentifiers": {
					"SetNum(uint256)": "b5935c88",
					"addr()": "767800de",
					"num()": "4e70b1dc"
				}
			},
			"storageLayout": {
				"storage": [
					{
						"astId": 58,
						"contract": "contract/call&delegatecall.sol:EthBob",
						"label": "num",
						"offset": 0,
						"slot": "0",
						"type": "t_uint256"
					},
					{
						"astId": 60,
						"contract": "contract/call&delegatecall.sol:EthBob",
						"label": "addr",
						"offset": 0,
						"slot": "1",
						"type": "t_address"
					}
				],
				"types": {
					"t_address": {
						"encoding": "inplace",
						"label": "address",
						"numberOfBytes": "20"
					},
					"t_uint256": {
						"encoding": "inplace",
						"label": "uint256",
						"numberOfBytes": "32"
					}
				}
			},
			"userdoc": {
				"kind": "user",
				"methods": {},
				"version": 1
			}
		}
	}
}