{
	"contract/test.sol": {
		"test": {
			"abi": [
				{
					"inputs": [
						{
							"internalType": "uint256",
							"name": "",
							"type": "uint256"
						}
					],
					"name": "a",
					"outputs": [
						{
							"internalType": "bytes32",
							"name": "",
							"type": "bytes32"
						}
					],
					"stateMutability": "view",
					"type": "function"
				},
				{
					"inputs": [],
					"name": "getA",
					"outputs": [
						{
							"internalType": "bytes32[2]",
							"name": "_a",
							"type": "bytes32[2]"
						}
					],
					"stateMutability": "view",
					"type": "function"
				}
			],
			"devdoc": {
				"kind": "dev",
				"methods": {},
				"version": 1
			},
			"evm": {
				"assembly": "    /* \"contract/test.sol\":72:208  contract test{\r... */\n  mstore(0x40, 0x80)\n  callvalue\n  dup1\n  iszero\n  tag_1\n  jumpi\n  0x00\n  dup1\n  revert\ntag_1:\n  pop\n  dataSize(sub_0)\n  dup1\n  dataOffset(sub_0)\n  0x00\n  codecopy\n  0x00\n  return\nstop\n\nsub_0: assembly {\n        /* \"contract/test.sol\":72:208  contract test{\r... */\n      mstore(0x40, 0x80)\n      callvalue\n      dup1\n      iszero\n      tag_1\n      jumpi\n      0x00\n      dup1\n      revert\n    tag_1:\n      pop\n      jumpi(tag_2, lt(calldatasize, 0x04))\n      shr(0xe0, calldataload(0x00))\n      dup1\n      0xd46300fd\n      eq\n      tag_3\n      jumpi\n      dup1\n      0xf0fdf834\n      eq\n      tag_4\n      jumpi\n    tag_2:\n      0x00\n      dup1\n      revert\n        /* \"contract/test.sol\":120:205  function getA()external view returns(bytes32[2] memory _a){\r... */\n    tag_3:\n      tag_5\n      tag_6\n      jump\t// in\n    tag_5:\n      mload(0x40)\n      tag_7\n      swap2\n      swap1\n      tag_8\n      jump\t// in\n    tag_7:\n      mload(0x40)\n      dup1\n      swap2\n      sub\n      swap1\n      return\n        /* \"contract/test.sol\":92:113  bytes32[2]   public a */\n    tag_4:\n      tag_9\n      0x04\n      dup1\n      calldatasize\n      sub\n      dup2\n      add\n      swap1\n      tag_10\n      swap2\n      swap1\n      tag_11\n      jump\t// in\n    tag_10:\n      tag_12\n      jump\t// in\n    tag_9:\n      mload(0x40)\n      tag_13\n      swap2\n      swap1\n      tag_14\n      jump\t// in\n    tag_13:\n      mload(0x40)\n      dup1\n      swap2\n      sub\n      swap1\n      return\n        /* \"contract/test.sol\":120:205  function getA()external view returns(bytes32[2] memory _a){\r... */\n    tag_6:\n        /* \"contract/test.sol\":157:177  bytes32[2] memory _a */\n      tag_15\n      tag_16\n      jump\t// in\n    tag_15:\n        /* \"contract/test.sol\":196:197  a */\n      0x00\n        /* \"contract/test.sol\":189:197  return a */\n      0x02\n      dup1\n      0x20\n      mul\n      mload(0x40)\n      swap1\n      dup2\n      add\n      0x40\n      mstore\n      dup1\n      swap3\n      swap2\n      swap1\n      dup3\n      0x02\n      dup1\n      iszero\n      tag_18\n      jumpi\n      0x20\n      mul\n      dup3\n      add\n      swap2\n    tag_19:\n      dup2\n      sload\n      dup2\n      mstore\n      0x20\n      add\n      swap1\n      0x01\n      add\n      swap1\n      dup1\n      dup4\n      gt\n      tag_19\n      jumpi\n    tag_18:\n      pop\n      pop\n      pop\n      pop\n      pop\n      swap1\n      pop\n        /* \"contract/test.sol\":120:205  function getA()external view returns(bytes32[2] memory _a){\r... */\n      swap1\n      jump\t// out\n        /* \"contract/test.sol\":92:113  bytes32[2]   public a */\n    tag_12:\n      0x00\n      dup2\n      0x02\n      dup2\n      lt\n      tag_20\n      jumpi\n      0x00\n      dup1\n      revert\n    tag_20:\n      add\n      0x00\n      swap2\n      pop\n      swap1\n      pop\n      sload\n      dup2\n      jump\t// out\n    tag_16:\n      mload(0x40)\n      dup1\n      0x40\n      add\n      0x40\n      mstore\n      dup1\n      0x02\n      swap1\n      0x20\n      dup3\n      mul\n      dup1\n      calldatasize\n      dup4\n      calldatacopy\n      dup1\n      dup3\n      add\n      swap2\n      pop\n      pop\n      swap1\n      pop\n      pop\n      swap1\n      jump\t// out\n        /* \"#utility.yul\":7:146   */\n    tag_23:\n        /* \"#utility.yul\":53:58   */\n      0x00\n        /* \"#utility.yul\":91:97   */\n      dup2\n        /* \"#utility.yul\":78:98   */\n      calldataload\n        /* \"#utility.yul\":69:98   */\n      swap1\n      pop\n        /* \"#utility.yul\":107:140   */\n      tag_25\n        /* \"#utility.yul\":134:139   */\n      dup2\n        /* \"#utility.yul\":107:140   */\n      tag_26\n      jump\t// in\n    tag_25:\n        /* \"#utility.yul\":7:146   */\n      swap3\n      swap2\n      pop\n      pop\n      jump\t// out\n        /* \"#utility.yul\":152:481   */\n    tag_11:\n        /* \"#utility.yul\":211:217   */\n      0x00\n        /* \"#utility.yul\":260:262   */\n      0x20\n        /* \"#utility.yul\":248:257   */\n      dup3\n        /* \"#utility.yul\":239:246   */\n      dup5\n        /* \"#utility.yul\":235:258   */\n      sub\n        /* \"#utility.yul\":231:263   */\n      slt\n        /* \"#utility.yul\":228:347   */\n      iszero\n      tag_28\n      jumpi\n        /* \"#utility.yul\":266:345   */\n      tag_29\n      tag_30\n      jump\t// in\n    tag_29:\n        /* \"#utility.yul\":228:347   */\n    tag_28:\n        /* \"#utility.yul\":386:387   */\n      0x00\n        /* \"#utility.yul\":411:464   */\n      tag_31\n        /* \"#utility.yul\":456:463   */\n      dup5\n        /* \"#utility.yul\":447:453   */\n      dup3\n        /* \"#utility.yul\":436:445   */\n      dup6\n        /* \"#utility.yul\":432:454   */\n      add\n        /* \"#utility.yul\":411:464   */\n      tag_23\n      jump\t// in\n    tag_31:\n        /* \"#utility.yul\":401:464   */\n      swap2\n      pop\n        /* \"#utility.yul\":357:474   */\n      pop\n        /* \"#utility.yul\":152:481   */\n      swap3\n      swap2\n      pop\n      pop\n      jump\t// out\n        /* \"#utility.yul\":487:666   */\n    tag_32:\n        /* \"#utility.yul\":556:566   */\n      0x00\n        /* \"#utility.yul\":577:623   */\n      tag_34\n        /* \"#utility.yul\":619:622   */\n      dup4\n        /* \"#utility.yul\":611:617   */\n      dup4\n        /* \"#utility.yul\":577:623   */\n      tag_35\n      jump\t// in\n    tag_34:\n        /* \"#utility.yul\":655:659   */\n      0x20\n        /* \"#utility.yul\":650:653   */\n      dup4\n        /* \"#utility.yul\":646:660   */\n      add\n        /* \"#utility.yul\":632:660   */\n      swap1\n      pop\n        /* \"#utility.yul\":487:666   */\n      swap3\n      swap2\n      pop\n      pop\n      jump\t// out\n        /* \"#utility.yul\":704:1398   */\n    tag_36:\n        /* \"#utility.yul\":840:892   */\n      tag_38\n        /* \"#utility.yul\":886:891   */\n      dup2\n        /* \"#utility.yul\":840:892   */\n      tag_39\n      jump\t// in\n    tag_38:\n        /* \"#utility.yul\":908:992   */\n      tag_40\n        /* \"#utility.yul\":985:991   */\n      dup2\n        /* \"#utility.yul\":980:983   */\n      dup5\n        /* \"#utility.yul\":908:992   */\n      tag_41\n      jump\t// in\n    tag_40:\n        /* \"#utility.yul\":901:992   */\n      swap3\n      pop\n        /* \"#utility.yul\":1016:1070   */\n      tag_42\n        /* \"#utility.yul\":1064:1069   */\n      dup3\n        /* \"#utility.yul\":1016:1070   */\n      tag_43\n      jump\t// in\n    tag_42:\n        /* \"#utility.yul\":1093:1100   */\n      dup1\n        /* \"#utility.yul\":1124:1125   */\n      0x00\n        /* \"#utility.yul\":1109:1391   */\n    tag_44:\n        /* \"#utility.yul\":1134:1140   */\n      dup4\n        /* \"#utility.yul\":1131:1132   */\n      dup2\n        /* \"#utility.yul\":1128:1141   */\n      lt\n        /* \"#utility.yul\":1109:1391   */\n      iszero\n      tag_46\n      jumpi\n        /* \"#utility.yul\":1210:1216   */\n      dup2\n        /* \"#utility.yul\":1204:1217   */\n      mload\n        /* \"#utility.yul\":1237:1300   */\n      tag_47\n        /* \"#utility.yul\":1296:1299   */\n      dup8\n        /* \"#utility.yul\":1281:1294   */\n      dup3\n        /* \"#utility.yul\":1237:1300   */\n      tag_32\n      jump\t// in\n    tag_47:\n        /* \"#utility.yul\":1230:1300   */\n      swap7\n      pop\n        /* \"#utility.yul\":1323:1381   */\n      tag_48\n        /* \"#utility.yul\":1374:1380   */\n      dup4\n        /* \"#utility.yul\":1323:1381   */\n      tag_49\n      jump\t// in\n    tag_48:\n        /* \"#utility.yul\":1313:1381   */\n      swap3\n      pop\n        /* \"#utility.yul\":1169:1391   */\n      pop\n        /* \"#utility.yul\":1156:1157   */\n      0x01\n        /* \"#utility.yul\":1153:1154   */\n      dup2\n        /* \"#utility.yul\":1149:1158   */\n      add\n        /* \"#utility.yul\":1144:1158   */\n      swap1\n      pop\n        /* \"#utility.yul\":1109:1391   */\n      jump(tag_44)\n    tag_46:\n        /* \"#utility.yul\":1113:1127   */\n      pop\n        /* \"#utility.yul\":816:1398   */\n      pop\n      pop\n      pop\n        /* \"#utility.yul\":704:1398   */\n      pop\n      pop\n      jump\t// out\n        /* \"#utility.yul\":1404:1512   */\n    tag_35:\n        /* \"#utility.yul\":1481:1505   */\n      tag_51\n        /* \"#utility.yul\":1499:1504   */\n      dup2\n        /* \"#utility.yul\":1481:1505   */\n      tag_52\n      jump\t// in\n    tag_51:\n        /* \"#utility.yul\":1476:1479   */\n      dup3\n        /* \"#utility.yul\":1469:1506   */\n      mstore\n        /* \"#utility.yul\":1404:1512   */\n      pop\n      pop\n      jump\t// out\n        /* \"#utility.yul\":1518:1636   */\n    tag_53:\n        /* \"#utility.yul\":1605:1629   */\n      tag_55\n        /* \"#utility.yul\":1623:1628   */\n      dup2\n        /* \"#utility.yul\":1605:1629   */\n      tag_52\n      jump\t// in\n    tag_55:\n        /* \"#utility.yul\":1600:1603   */\n      dup3\n        /* \"#utility.yul\":1593:1630   */\n      mstore\n        /* \"#utility.yul\":1518:1636   */\n      pop\n      pop\n      jump\t// out\n        /* \"#utility.yul\":1642:1956   */\n    tag_8:\n        /* \"#utility.yul\":1781:1785   */\n      0x00\n        /* \"#utility.yul\":1819:1821   */\n      0x40\n        /* \"#utility.yul\":1808:1817   */\n      dup3\n        /* \"#utility.yul\":1804:1822   */\n      add\n        /* \"#utility.yul\":1796:1822   */\n      swap1\n      pop\n        /* \"#utility.yul\":1832:1949   */\n      tag_57\n        /* \"#utility.yul\":1946:1947   */\n      0x00\n        /* \"#utility.yul\":1935:1944   */\n      dup4\n        /* \"#utility.yul\":1931:1948   */\n      add\n        /* \"#utility.yul\":1922:1928   */\n      dup5\n        /* \"#utility.yul\":1832:1949   */\n      tag_36\n      jump\t// in\n    tag_57:\n        /* \"#utility.yul\":1642:1956   */\n      swap3\n      swap2\n      pop\n      pop\n      jump\t// out\n        /* \"#utility.yul\":1962:2184   */\n    tag_14:\n        /* \"#utility.yul\":2055:2059   */\n      0x00\n        /* \"#utility.yul\":2093:2095   */\n      0x20\n        /* \"#utility.yul\":2082:2091   */\n      dup3\n        /* \"#utility.yul\":2078:2096   */\n      add\n        /* \"#utility.yul\":2070:2096   */\n      swap1\n      pop\n        /* \"#utility.yul\":2106:2177   */\n      tag_59\n        /* \"#utility.yul\":2174:2175   */\n      0x00\n        /* \"#utility.yul\":2163:2172   */\n      dup4\n        /* \"#utility.yul\":2159:2176   */\n      add\n        /* \"#utility.yul\":2150:2156   */\n      dup5\n        /* \"#utility.yul\":2106:2177   */\n      tag_53\n      jump\t// in\n    tag_59:\n        /* \"#utility.yul\":1962:2184   */\n      swap3\n      swap2\n      pop\n      pop\n      jump\t// out\n        /* \"#utility.yul\":2271:2369   */\n    tag_43:\n        /* \"#utility.yul\":2336:2340   */\n      0x00\n        /* \"#utility.yul\":2359:2362   */\n      dup2\n        /* \"#utility.yul\":2351:2362   */\n      swap1\n      pop\n        /* \"#utility.yul\":2271:2369   */\n      swap2\n      swap1\n      pop\n      jump\t// out\n        /* \"#utility.yul\":2375:2479   */\n    tag_39:\n        /* \"#utility.yul\":2440:2446   */\n      0x00\n        /* \"#utility.yul\":2468:2472   */\n      0x02\n        /* \"#utility.yul\":2458:2472   */\n      swap1\n      pop\n        /* \"#utility.yul\":2375:2479   */\n      swap2\n      swap1\n      pop\n      jump\t// out\n        /* \"#utility.yul\":2485:2596   */\n    tag_49:\n        /* \"#utility.yul\":2553:2557   */\n      0x00\n        /* \"#utility.yul\":2585:2589   */\n      0x20\n        /* \"#utility.yul\":2580:2583   */\n      dup3\n        /* \"#utility.yul\":2576:2590   */\n      add\n        /* \"#utility.yul\":2568:2590   */\n      swap1\n      pop\n        /* \"#utility.yul\":2485:2596   */\n      swap2\n      swap1\n      pop\n      jump\t// out\n        /* \"#utility.yul\":2602:2745   */\n    tag_41:\n        /* \"#utility.yul\":2699:2710   */\n      0x00\n        /* \"#utility.yul\":2736:2739   */\n      dup2\n        /* \"#utility.yul\":2721:2739   */\n      swap1\n      pop\n        /* \"#utility.yul\":2602:2745   */\n      swap3\n      swap2\n      pop\n      pop\n      jump\t// out\n        /* \"#utility.yul\":2751:2828   */\n    tag_52:\n        /* \"#utility.yul\":2788:2795   */\n      0x00\n        /* \"#utility.yul\":2817:2822   */\n      dup2\n        /* \"#utility.yul\":2806:2822   */\n      swap1\n      pop\n        /* \"#utility.yul\":2751:2828   */\n      swap2\n      swap1\n      pop\n      jump\t// out\n        /* \"#utility.yul\":2834:2911   */\n    tag_67:\n        /* \"#utility.yul\":2871:2878   */\n      0x00\n        /* \"#utility.yul\":2900:2905   */\n      dup2\n        /* \"#utility.yul\":2889:2905   */\n      swap1\n      pop\n        /* \"#utility.yul\":2834:2911   */\n      swap2\n      swap1\n      pop\n      jump\t// out\n        /* \"#utility.yul\":3040:3157   */\n    tag_30:\n        /* \"#utility.yul\":3149:3150   */\n      0x00\n        /* \"#utility.yul\":3146:3147   */\n      dup1\n        /* \"#utility.yul\":3139:3151   */\n      revert\n        /* \"#utility.yul\":3163:3285   */\n    tag_26:\n        /* \"#utility.yul\":3236:3260   */\n      tag_73\n        /* \"#utility.yul\":3254:3259   */\n      dup2\n        /* \"#utility.yul\":3236:3260   */\n      tag_67\n      jump\t// in\n    tag_73:\n        /* \"#utility.yul\":3229:3234   */\n      dup2\n        /* \"#utility.yul\":3226:3261   */\n      eq\n        /* \"#utility.yul\":3216:3279   */\n      tag_74\n      jumpi\n        /* \"#utility.yul\":3275:3276   */\n      0x00\n        /* \"#utility.yul\":3272:3273   */\n      dup1\n        /* \"#utility.yul\":3265:3277   */\n      revert\n        /* \"#utility.yul\":3216:3279   */\n    tag_74:\n        /* \"#utility.yul\":3163:3285   */\n      pop\n      jump\t// out\n\n    auxdata: 0xa2646970667358221220243a16543f67892b54573b6d15fa8b831a66c4576c7c7afc2a180644e53ef77c64736f6c63430008070033\n}\n",
				"bytecode": {
					"linkReferences": {},
					"object": "608060405234801561001057600080fd5b506102a9806100206000396000f3fe608060405234801561001057600080fd5b50600436106100365760003560e01c8063d46300fd1461003b578063f0fdf83414610059575b600080fd5b610043610089565b60405161005091906101e0565b60405180910390f35b610073600480360381019061006e9190610126565b6100d4565b60405161008091906101fb565b60405180910390f35b6100916100ef565b60006002806020026040519081016040528092919082600280156100ca576020028201915b8154815260200190600101908083116100b6575b5050505050905090565b600081600281106100e457600080fd5b016000915090505481565b6040518060400160405280600290602082028036833780820191505090505090565b6000813590506101208161025c565b92915050565b60006020828403121561013c5761013b610257565b5b600061014a84828501610111565b91505092915050565b600061015f83836101c2565b60208301905092915050565b61017481610220565b61017e8184610238565b925061018982610216565b8060005b838110156101ba5781516101a18782610153565b96506101ac8361022b565b92505060018101905061018d565b505050505050565b6101cb81610243565b82525050565b6101da81610243565b82525050565b60006040820190506101f5600083018461016b565b92915050565b600060208201905061021060008301846101d1565b92915050565b6000819050919050565b600060029050919050565b6000602082019050919050565b600081905092915050565b6000819050919050565b6000819050919050565b600080fd5b6102658161024d565b811461027057600080fd5b5056fea2646970667358221220243a16543f67892b54573b6d15fa8b831a66c4576c7c7afc2a180644e53ef77c64736f6c63430008070033",
					"opcodes": "PUSH1 0x80 PUSH1 0x40 MSTORE CALLVALUE DUP1 ISZERO PUSH2 0x10 JUMPI PUSH1 0x0 DUP1 REVERT JUMPDEST POP PUSH2 0x2A9 DUP1 PUSH2 0x20 PUSH1 0x0 CODECOPY PUSH1 0x0 RETURN INVALID PUSH1 0x80 PUSH1 0x40 MSTORE CALLVALUE DUP1 ISZERO PUSH2 0x10 JUMPI PUSH1 0x0 DUP1 REVERT JUMPDEST POP PUSH1 0x4 CALLDATASIZE LT PUSH2 0x36 JUMPI PUSH1 0x0 CALLDATALOAD PUSH1 0xE0 SHR DUP1 PUSH4 0xD46300FD EQ PUSH2 0x3B JUMPI DUP1 PUSH4 0xF0FDF834 EQ PUSH2 0x59 JUMPI JUMPDEST PUSH1 0x0 DUP1 REVERT JUMPDEST PUSH2 0x43 PUSH2 0x89 JUMP JUMPDEST PUSH1 0x40 MLOAD PUSH2 0x50 SWAP2 SWAP1 PUSH2 0x1E0 JUMP JUMPDEST PUSH1 0x40 MLOAD DUP1 SWAP2 SUB SWAP1 RETURN JUMPDEST PUSH2 0x73 PUSH1 0x4 DUP1 CALLDATASIZE SUB DUP2 ADD SWAP1 PUSH2 0x6E SWAP2 SWAP1 PUSH2 0x126 JUMP JUMPDEST PUSH2 0xD4 JUMP JUMPDEST PUSH1 0x40 MLOAD PUSH2 0x80 SWAP2 SWAP1 PUSH2 0x1FB JUMP JUMPDEST PUSH1 0x40 MLOAD DUP1 SWAP2 SUB SWAP1 RETURN JUMPDEST PUSH2 0x91 PUSH2 0xEF JUMP JUMPDEST PUSH1 0x0 PUSH1 0x2 DUP1 PUSH1 0x20 MUL PUSH1 0x40 MLOAD SWAP1 DUP2 ADD PUSH1 0x40 MSTORE DUP1 SWAP3 SWAP2 SWAP1 DUP3 PUSH1 0x2 DUP1 ISZERO PUSH2 0xCA JUMPI PUSH1 0x20 MUL DUP3 ADD SWAP2 JUMPDEST DUP2 SLOAD DUP2 MSTORE PUSH1 0x20 ADD SWAP1 PUSH1 0x1 ADD SWAP1 DUP1 DUP4 GT PUSH2 0xB6 JUMPI JUMPDEST POP POP POP POP POP SWAP1 POP SWAP1 JUMP JUMPDEST PUSH1 0x0 DUP2 PUSH1 0x2 DUP2 LT PUSH2 0xE4 JUMPI PUSH1 0x0 DUP1 REVERT JUMPDEST ADD PUSH1 0x0 SWAP2 POP SWAP1 POP SLOAD DUP2 JUMP JUMPDEST PUSH1 0x40 MLOAD DUP1 PUSH1 0x40 ADD PUSH1 0x40 MSTORE DUP1 PUSH1 0x2 SWAP1 PUSH1 0x20 DUP3 MUL DUP1 CALLDATASIZE DUP4 CALLDATACOPY DUP1 DUP3 ADD SWAP2 POP POP SWAP1 POP POP SWAP1 JUMP JUMPDEST PUSH1 0x0 DUP2 CALLDATALOAD SWAP1 POP PUSH2 0x120 DUP2 PUSH2 0x25C JUMP JUMPDEST SWAP3 SWAP2 POP POP JUMP JUMPDEST PUSH1 0x0 PUSH1 0x20 DUP3 DUP5 SUB SLT ISZERO PUSH2 0x13C JUMPI PUSH2 0x13B PUSH2 0x257 JUMP JUMPDEST JUMPDEST PUSH1 0x0 PUSH2 0x14A DUP5 DUP3 DUP6 ADD PUSH2 0x111 JUMP JUMPDEST SWAP2 POP POP SWAP3 SWAP2 POP POP JUMP JUMPDEST PUSH1 0x0 PUSH2 0x15F DUP4 DUP4 PUSH2 0x1C2 JUMP JUMPDEST PUSH1 0x20 DUP4 ADD SWAP1 POP SWAP3 SWAP2 POP POP JUMP JUMPDEST PUSH2 0x174 DUP2 PUSH2 0x220 JUMP JUMPDEST PUSH2 0x17E DUP2 DUP5 PUSH2 0x238 JUMP JUMPDEST SWAP3 POP PUSH2 0x189 DUP3 PUSH2 0x216 JUMP JUMPDEST DUP1 PUSH1 0x0 JUMPDEST DUP4 DUP2 LT ISZERO PUSH2 0x1BA JUMPI DUP2 MLOAD PUSH2 0x1A1 DUP8 DUP3 PUSH2 0x153 JUMP JUMPDEST SWAP7 POP PUSH2 0x1AC DUP4 PUSH2 0x22B JUMP JUMPDEST SWAP3 POP POP PUSH1 0x1 DUP2 ADD SWAP1 POP PUSH2 0x18D JUMP JUMPDEST POP POP POP POP POP POP JUMP JUMPDEST PUSH2 0x1CB DUP2 PUSH2 0x243 JUMP JUMPDEST DUP3 MSTORE POP POP JUMP JUMPDEST PUSH2 0x1DA DUP2 PUSH2 0x243 JUMP JUMPDEST DUP3 MSTORE POP POP JUMP JUMPDEST PUSH1 0x0 PUSH1 0x40 DUP3 ADD SWAP1 POP PUSH2 0x1F5 PUSH1 0x0 DUP4 ADD DUP5 PUSH2 0x16B JUMP JUMPDEST SWAP3 SWAP2 POP POP JUMP JUMPDEST PUSH1 0x0 PUSH1 0x20 DUP3 ADD SWAP1 POP PUSH2 0x210 PUSH1 0x0 DUP4 ADD DUP5 PUSH2 0x1D1 JUMP JUMPDEST SWAP3 SWAP2 POP POP JUMP JUMPDEST PUSH1 0x0 DUP2 SWAP1 POP SWAP2 SWAP1 POP JUMP JUMPDEST PUSH1 0x0 PUSH1 0x2 SWAP1 POP SWAP2 SWAP1 POP JUMP JUMPDEST PUSH1 0x0 PUSH1 0x20 DUP3 ADD SWAP1 POP SWAP2 SWAP1 POP JUMP JUMPDEST PUSH1 0x0 DUP2 SWAP1 POP SWAP3 SWAP2 POP POP JUMP JUMPDEST PUSH1 0x0 DUP2 SWAP1 POP SWAP2 SWAP1 POP JUMP JUMPDEST PUSH1 0x0 DUP2 SWAP1 POP SWAP2 SWAP1 POP JUMP JUMPDEST PUSH1 0x0 DUP1 REVERT JUMPDEST PUSH2 0x265 DUP2 PUSH2 0x24D JUMP JUMPDEST DUP2 EQ PUSH2 0x270 JUMPI PUSH1 0x0 DUP1 REVERT JUMPDEST POP JUMP INVALID LOG2 PUSH5 0x6970667358 0x22 SLT KECCAK256 0x24 GASPRICE AND SLOAD EXTCODEHASH PUSH8 0x892B54573B6D15FA DUP12 DUP4 BYTE PUSH7 0xC4576C7C7AFC2A XOR MOD DIFFICULTY 0xE5 RETURNDATACOPY 0xF7 PUSH29 0x64736F6C63430008070033000000000000000000000000000000000000 "
				},
				"gasEstimates": {
					"creation": {
						"codeDepositCost": "136200",
						"executionCost": "183",
						"totalCost": "136383"
					},
					"external": {
						"a(uint256)": "2731",
						"getA()": "infinite"
					}
				},
				"methodIdentifiers": {
					"a(uint256)": "f0fdf834",
					"getA()": "d46300fd"
				}
			},
			"storageLayout": {
				"storage": [
					{
						"astId": 5,
						"contract": "contract/test.sol:test",
						"label": "a",
						"offset": 0,
						"slot": "0",
						"type": "t_array(t_bytes32)2_storage"
					}
				],
				"types": {
					"t_array(t_bytes32)2_storage": {
						"base": "t_bytes32",
						"encoding": "inplace",
						"label": "bytes32[2]",
						"numberOfBytes": "64"
					},
					"t_bytes32": {
						"encoding": "inplace",
						"label": "bytes32",
						"numberOfBytes": "32"
					}
				}
			},
			"userdoc": {
				"kind": "user",
				"methods": {},
				"version": 1
			}
		}
	}
}