{
	"study/chapter09/omplexMappig.sol": {
		"User": {
			"abi": [
				{
					"inputs": [
						{
							"internalType": "uint256",
							"name": "k",
							"type": "uint256"
						},
						{
							"internalType": "uint256",
							"name": "v",
							"type": "uint256"
						}
					],
					"name": "insert",
					"outputs": [
						{
							"internalType": "uint256",
							"name": "size",
							"type": "uint256"
						}
					],
					"stateMutability": "nonpayable",
					"type": "function"
				},
				{
					"inputs": [],
					"name": "sum",
					"outputs": [
						{
							"internalType": "uint256",
							"name": "s",
							"type": "uint256"
						}
					],
					"stateMutability": "view",
					"type": "function"
				}
			],
			"devdoc": {
				"kind": "dev",
				"methods": {},
				"version": 1
			},
			"evm": {
				"assembly": "    /* \"study/chapter09/omplexMappig.sol\":2370:3174  contract User {... */\n  mstore(0x40, 0x80)\n  callvalue\n  dup1\n  iszero\n  tag_1\n  jumpi\n  0x00\n  dup1\n  revert\ntag_1:\n  pop\n  dataSize(sub_0)\n  dup1\n  dataOffset(sub_0)\n  0x00\n  codecopy\n  0x00\n  return\nstop\n\nsub_0: assembly {\n        /* \"study/chapter09/omplexMappig.sol\":2370:3174  contract User {... */\n      mstore(0x40, 0x80)\n      callvalue\n      dup1\n      iszero\n      tag_1\n      jumpi\n      0x00\n      dup1\n      revert\n    tag_1:\n      pop\n      jumpi(tag_2, lt(calldatasize, 0x04))\n      shr(0xe0, calldataload(0x00))\n      dup1\n      0x1d834a1b\n      eq\n      tag_3\n      jumpi\n      dup1\n      0x853255cc\n      eq\n      tag_4\n      jumpi\n    tag_2:\n      0x00\n      dup1\n      revert\n        /* \"study/chapter09/omplexMappig.sol\":2556:2847  function insert(uint k, uint v) public returns (uint size) {... */\n    tag_3:\n      tag_5\n      0x04\n      dup1\n      calldatasize\n      sub\n      dup2\n      add\n      swap1\n      tag_6\n      swap2\n      swap1\n      tag_7\n      jump\t// in\n    tag_6:\n      tag_8\n      jump\t// in\n    tag_5:\n      mload(0x40)\n      tag_9\n      swap2\n      swap1\n      tag_10\n      jump\t// in\n    tag_9:\n      mload(0x40)\n      dup1\n      swap2\n      sub\n      swap1\n      return\n        /* \"study/chapter09/omplexMappig.sol\":2896:3172  function sum() public view returns (uint s) {... */\n    tag_4:\n      tag_11\n      tag_12\n      jump\t// in\n    tag_11:\n      mload(0x40)\n      tag_13\n      swap2\n      swap1\n      tag_10\n      jump\t// in\n    tag_13:\n      mload(0x40)\n      dup1\n      swap2\n      sub\n      swap1\n      return\n        /* \"study/chapter09/omplexMappig.sol\":2556:2847  function insert(uint k, uint v) public returns (uint size) {... */\n    tag_8:\n        /* \"study/chapter09/omplexMappig.sol\":2604:2613  uint size */\n      0x00\n        /* \"study/chapter09/omplexMappig.sol\":2682:2699  data.insert(k, v) */\n      tag_15\n        /* \"study/chapter09/omplexMappig.sol\":2694:2695  k */\n      dup4\n        /* \"study/chapter09/omplexMappig.sol\":2697:2698  v */\n      dup4\n        /* \"study/chapter09/omplexMappig.sol\":2682:2686  data */\n      0x00\n        /* \"study/chapter09/omplexMappig.sol\":2682:2693  data.insert */\n      tag_16\n      swap1\n        /* \"study/chapter09/omplexMappig.sol\":2682:2699  data.insert(k, v) */\n      swap3\n      swap2\n      swap1\n      0xffffffff\n      and\n      jump\t// in\n    tag_15:\n      pop\n        /* \"study/chapter09/omplexMappig.sol\":2828:2832  data */\n      0x00\n        /* \"study/chapter09/omplexMappig.sol\":2828:2837  data.size */\n      0x02\n      add\n      sload\n        /* \"study/chapter09/omplexMappig.sol\":2821:2837  return data.size */\n      swap1\n      pop\n        /* \"study/chapter09/omplexMappig.sol\":2556:2847  function insert(uint k, uint v) public returns (uint size) {... */\n      swap3\n      swap2\n      pop\n      pop\n      jump\t// out\n        /* \"study/chapter09/omplexMappig.sol\":2896:3172  function sum() public view returns (uint s) {... */\n    tag_12:\n        /* \"study/chapter09/omplexMappig.sol\":2932:2938  uint s */\n      0x00\n        /* \"study/chapter09/omplexMappig.sol\":2968:2974  uint i */\n      dup1\n        /* \"study/chapter09/omplexMappig.sol\":2977:2997  data.iterate_start() */\n      tag_21\n        /* \"study/chapter09/omplexMappig.sol\":2977:2981  data */\n      0x00\n        /* \"study/chapter09/omplexMappig.sol\":2977:2995  data.iterate_start */\n      tag_22\n        /* \"study/chapter09/omplexMappig.sol\":2977:2997  data.iterate_start() */\n      jump\t// in\n    tag_21:\n        /* \"study/chapter09/omplexMappig.sol\":2968:2997  uint i = data.iterate_start() */\n      swap1\n      pop\n        /* \"study/chapter09/omplexMappig.sol\":2950:3166  for (... */\n    tag_18:\n        /* \"study/chapter09/omplexMappig.sol\":3011:3032  data.iterate_valid(i) */\n      tag_23\n        /* \"study/chapter09/omplexMappig.sol\":3030:3031  i */\n      dup2\n        /* \"study/chapter09/omplexMappig.sol\":3011:3015  data */\n      0x00\n        /* \"study/chapter09/omplexMappig.sol\":3011:3029  data.iterate_valid */\n      tag_24\n      swap1\n        /* \"study/chapter09/omplexMappig.sol\":3011:3032  data.iterate_valid(i) */\n      swap2\n      swap1\n      0xffffffff\n      and\n      jump\t// in\n    tag_23:\n        /* \"study/chapter09/omplexMappig.sol\":2950:3166  for (... */\n      iszero\n      tag_19\n      jumpi\n        /* \"study/chapter09/omplexMappig.sol\":3098:3108  uint value */\n      0x00\n        /* \"study/chapter09/omplexMappig.sol\":3112:3131  data.iterate_get(i) */\n      tag_25\n        /* \"study/chapter09/omplexMappig.sol\":3129:3130  i */\n      dup3\n        /* \"study/chapter09/omplexMappig.sol\":3112:3116  data */\n      0x00\n        /* \"study/chapter09/omplexMappig.sol\":3112:3128  data.iterate_get */\n      tag_26\n      swap1\n        /* \"study/chapter09/omplexMappig.sol\":3112:3131  data.iterate_get(i) */\n      swap2\n      swap1\n      0xffffffff\n      and\n      jump\t// in\n    tag_25:\n        /* \"study/chapter09/omplexMappig.sol\":3095:3131  (, uint value) = data.iterate_get(i) */\n      swap2\n      pop\n      pop\n        /* \"study/chapter09/omplexMappig.sol\":3150:3155  value */\n      dup1\n        /* \"study/chapter09/omplexMappig.sol\":3145:3155  s += value */\n      dup4\n      tag_27\n      swap2\n      swap1\n      tag_28\n      jump\t// in\n    tag_27:\n      swap3\n      pop\n        /* \"study/chapter09/omplexMappig.sol\":3081:3166  {... */\n      pop\n        /* \"study/chapter09/omplexMappig.sol\":3050:3070  data.iterate_next(i) */\n      tag_29\n        /* \"study/chapter09/omplexMappig.sol\":3068:3069  i */\n      dup2\n        /* \"study/chapter09/omplexMappig.sol\":3050:3054  data */\n      0x00\n        /* \"study/chapter09/omplexMappig.sol\":3050:3067  data.iterate_next */\n      tag_30\n      swap1\n        /* \"study/chapter09/omplexMappig.sol\":3050:3070  data.iterate_next(i) */\n      swap2\n      swap1\n      0xffffffff\n      and\n      jump\t// in\n    tag_29:\n        /* \"study/chapter09/omplexMappig.sol\":3046:3070  i = data.iterate_next(i) */\n      swap1\n      pop\n        /* \"study/chapter09/omplexMappig.sol\":2950:3166  for (... */\n      jump(tag_18)\n    tag_19:\n      pop\n        /* \"study/chapter09/omplexMappig.sol\":2896:3172  function sum() public view returns (uint s) {... */\n      swap1\n      jump\t// out\n        /* \"study/chapter09/omplexMappig.sol\":641:1133  function insert(itmap storage self, uint key, uint value) internal returns (bool replaced) {... */\n    tag_16:\n        /* \"study/chapter09/omplexMappig.sol\":717:730  bool replaced */\n      0x00\n        /* \"study/chapter09/omplexMappig.sol\":742:755  uint keyIndex */\n      dup1\n        /* \"study/chapter09/omplexMappig.sol\":758:762  self */\n      dup5\n        /* \"study/chapter09/omplexMappig.sol\":758:767  self.data */\n      0x00\n      add\n        /* \"study/chapter09/omplexMappig.sol\":758:772  self.data[key] */\n      0x00\n        /* \"study/chapter09/omplexMappig.sol\":768:771  key */\n      dup6\n        /* \"study/chapter09/omplexMappig.sol\":758:772  self.data[key] */\n      dup2\n      mstore\n      0x20\n      add\n      swap1\n      dup2\n      mstore\n      0x20\n      add\n      0x00\n      keccak256\n        /* \"study/chapter09/omplexMappig.sol\":758:781  self.data[key].keyIndex */\n      0x00\n      add\n      sload\n        /* \"study/chapter09/omplexMappig.sol\":742:781  uint keyIndex = self.data[key].keyIndex */\n      swap1\n      pop\n        /* \"study/chapter09/omplexMappig.sol\":814:819  value */\n      dup3\n        /* \"study/chapter09/omplexMappig.sol\":791:795  self */\n      dup6\n        /* \"study/chapter09/omplexMappig.sol\":791:800  self.data */\n      0x00\n      add\n        /* \"study/chapter09/omplexMappig.sol\":791:805  self.data[key] */\n      0x00\n        /* \"study/chapter09/omplexMappig.sol\":801:804  key */\n      dup7\n        /* \"study/chapter09/omplexMappig.sol\":791:805  self.data[key] */\n      dup2\n      mstore\n      0x20\n      add\n      swap1\n      dup2\n      mstore\n      0x20\n      add\n      0x00\n      keccak256\n        /* \"study/chapter09/omplexMappig.sol\":791:811  self.data[key].value */\n      0x01\n      add\n        /* \"study/chapter09/omplexMappig.sol\":791:819  self.data[key].value = value */\n      dup2\n      swap1\n      sstore\n      pop\n        /* \"study/chapter09/omplexMappig.sol\":844:845  0 */\n      0x00\n        /* \"study/chapter09/omplexMappig.sol\":833:841  keyIndex */\n      dup2\n        /* \"study/chapter09/omplexMappig.sol\":833:845  keyIndex > 0 */\n      gt\n        /* \"study/chapter09/omplexMappig.sol\":829:1127  if (keyIndex > 0)... */\n      iszero\n      tag_32\n      jumpi\n        /* \"study/chapter09/omplexMappig.sol\":866:870  true */\n      0x01\n        /* \"study/chapter09/omplexMappig.sol\":859:870  return true */\n      swap2\n      pop\n      pop\n      jump(tag_31)\n        /* \"study/chapter09/omplexMappig.sol\":829:1127  if (keyIndex > 0)... */\n    tag_32:\n        /* \"study/chapter09/omplexMappig.sol\":924:928  self */\n      dup5\n        /* \"study/chapter09/omplexMappig.sol\":924:933  self.keys */\n      0x01\n      add\n        /* \"study/chapter09/omplexMappig.sol\":924:940  self.keys.length */\n      dup1\n      sload\n      swap1\n      pop\n        /* \"study/chapter09/omplexMappig.sol\":913:940  keyIndex = self.keys.length */\n      swap1\n      pop\n        /* \"study/chapter09/omplexMappig.sol\":954:958  self */\n      dup5\n        /* \"study/chapter09/omplexMappig.sol\":954:963  self.keys */\n      0x01\n      add\n        /* \"study/chapter09/omplexMappig.sol\":954:970  self.keys.push() */\n      0x01\n      dup2\n      0x01\n      dup2\n      sload\n      add\n      dup1\n      dup3\n      sstore\n      dup1\n      swap2\n      pop\n      pop\n      sub\n      swap1\n      0x00\n      mstore\n      keccak256(0x00, 0x20)\n      swap1\n      pop\n      pop\n        /* \"study/chapter09/omplexMappig.sol\":1021:1022  1 */\n      0x01\n        /* \"study/chapter09/omplexMappig.sol\":1010:1018  keyIndex */\n      dup2\n        /* \"study/chapter09/omplexMappig.sol\":1010:1022  keyIndex + 1 */\n      tag_35\n      swap2\n      swap1\n      tag_28\n      jump\t// in\n    tag_35:\n        /* \"study/chapter09/omplexMappig.sol\":984:988  self */\n      dup6\n        /* \"study/chapter09/omplexMappig.sol\":984:993  self.data */\n      0x00\n      add\n        /* \"study/chapter09/omplexMappig.sol\":984:998  self.data[key] */\n      0x00\n        /* \"study/chapter09/omplexMappig.sol\":994:997  key */\n      dup7\n        /* \"study/chapter09/omplexMappig.sol\":984:998  self.data[key] */\n      dup2\n      mstore\n      0x20\n      add\n      swap1\n      dup2\n      mstore\n      0x20\n      add\n      0x00\n      keccak256\n        /* \"study/chapter09/omplexMappig.sol\":984:1007  self.data[key].keyIndex */\n      0x00\n      add\n        /* \"study/chapter09/omplexMappig.sol\":984:1022  self.data[key].keyIndex = keyIndex + 1 */\n      dup2\n      swap1\n      sstore\n      pop\n        /* \"study/chapter09/omplexMappig.sol\":1062:1065  key */\n      dup4\n        /* \"study/chapter09/omplexMappig.sol\":1036:1040  self */\n      dup6\n        /* \"study/chapter09/omplexMappig.sol\":1036:1045  self.keys */\n      0x01\n      add\n        /* \"study/chapter09/omplexMappig.sol\":1046:1054  keyIndex */\n      dup3\n        /* \"study/chapter09/omplexMappig.sol\":1036:1055  self.keys[keyIndex] */\n      dup2\n      sload\n      dup2\n      lt\n      tag_36\n      jumpi\n      tag_37\n      tag_38\n      jump\t// in\n    tag_37:\n    tag_36:\n      swap1\n      0x00\n      mstore\n      keccak256(0x00, 0x20)\n      swap1\n      0x02\n      mul\n      add\n        /* \"study/chapter09/omplexMappig.sol\":1036:1059  self.keys[keyIndex].key */\n      0x00\n      add\n        /* \"study/chapter09/omplexMappig.sol\":1036:1065  self.keys[keyIndex].key = key */\n      dup2\n      swap1\n      sstore\n      pop\n        /* \"study/chapter09/omplexMappig.sol\":1079:1083  self */\n      dup5\n        /* \"study/chapter09/omplexMappig.sol\":1079:1088  self.size */\n      0x02\n      add\n      0x00\n        /* \"study/chapter09/omplexMappig.sol\":1079:1090  self.size++ */\n      dup2\n      sload\n      dup1\n      swap3\n      swap2\n      swap1\n      tag_40\n      swap1\n      tag_41\n      jump\t// in\n    tag_40:\n      swap2\n      swap1\n      pop\n      sstore\n      pop\n        /* \"study/chapter09/omplexMappig.sol\":1111:1116  false */\n      0x00\n        /* \"study/chapter09/omplexMappig.sol\":1104:1116  return false */\n      swap2\n      pop\n      pop\n        /* \"study/chapter09/omplexMappig.sol\":641:1133  function insert(itmap storage self, uint key, uint value) internal returns (bool replaced) {... */\n    tag_31:\n      swap4\n      swap3\n      pop\n      pop\n      pop\n      jump\t// out\n        /* \"study/chapter09/omplexMappig.sol\":1623:1762  function iterate_start(itmap storage self) internal view returns (uint keyIndex) {... */\n    tag_22:\n        /* \"study/chapter09/omplexMappig.sol\":1689:1702  uint keyIndex */\n      0x00\n        /* \"study/chapter09/omplexMappig.sol\":1721:1755  iterate_next(self, type(uint).max) */\n      tag_43\n        /* \"study/chapter09/omplexMappig.sol\":1734:1738  self */\n      dup3\n        /* \"study/chapter09/omplexMappig.sol\":1740:1754  type(uint).max */\n      0xffffffffffffffffffffffffffffffffffffffffffffffffffffffffffffffff\n        /* \"study/chapter09/omplexMappig.sol\":1721:1733  iterate_next */\n      tag_30\n        /* \"study/chapter09/omplexMappig.sol\":1721:1755  iterate_next(self, type(uint).max) */\n      jump\t// in\n    tag_43:\n        /* \"study/chapter09/omplexMappig.sol\":1714:1755  return iterate_next(self, type(uint).max) */\n      swap1\n      pop\n        /* \"study/chapter09/omplexMappig.sol\":1623:1762  function iterate_start(itmap storage self) internal view returns (uint keyIndex) {... */\n      swap2\n      swap1\n      pop\n      jump\t// out\n        /* \"study/chapter09/omplexMappig.sol\":1768:1906  function iterate_valid(itmap storage self, uint keyIndex) internal view returns (bool) {... */\n    tag_24:\n        /* \"study/chapter09/omplexMappig.sol\":1849:1853  bool */\n      0x00\n        /* \"study/chapter09/omplexMappig.sol\":1883:1887  self */\n      dup3\n        /* \"study/chapter09/omplexMappig.sol\":1883:1892  self.keys */\n      0x01\n      add\n        /* \"study/chapter09/omplexMappig.sol\":1883:1899  self.keys.length */\n      dup1\n      sload\n      swap1\n      pop\n        /* \"study/chapter09/omplexMappig.sol\":1872:1880  keyIndex */\n      dup3\n        /* \"study/chapter09/omplexMappig.sol\":1872:1899  keyIndex < self.keys.length */\n      lt\n        /* \"study/chapter09/omplexMappig.sol\":1865:1899  return keyIndex < self.keys.length */\n      swap1\n      pop\n        /* \"study/chapter09/omplexMappig.sol\":1768:1906  function iterate_valid(itmap storage self, uint keyIndex) internal view returns (bool) {... */\n      swap3\n      swap2\n      pop\n      pop\n      jump\t// out\n        /* \"study/chapter09/omplexMappig.sol\":2166:2351  function iterate_get(itmap storage self, uint keyIndex) internal view returns (uint key, uint value) {... */\n    tag_26:\n        /* \"study/chapter09/omplexMappig.sol\":2245:2253  uint key */\n      0x00\n        /* \"study/chapter09/omplexMappig.sol\":2255:2265  uint value */\n      dup1\n        /* \"study/chapter09/omplexMappig.sol\":2283:2287  self */\n      dup4\n        /* \"study/chapter09/omplexMappig.sol\":2283:2292  self.keys */\n      0x01\n      add\n        /* \"study/chapter09/omplexMappig.sol\":2293:2301  keyIndex */\n      dup4\n        /* \"study/chapter09/omplexMappig.sol\":2283:2302  self.keys[keyIndex] */\n      dup2\n      sload\n      dup2\n      lt\n      tag_46\n      jumpi\n      tag_47\n      tag_38\n      jump\t// in\n    tag_47:\n    tag_46:\n      swap1\n      0x00\n      mstore\n      keccak256(0x00, 0x20)\n      swap1\n      0x02\n      mul\n      add\n        /* \"study/chapter09/omplexMappig.sol\":2283:2306  self.keys[keyIndex].key */\n      0x00\n      add\n      sload\n        /* \"study/chapter09/omplexMappig.sol\":2277:2306  key = self.keys[keyIndex].key */\n      swap2\n      pop\n        /* \"study/chapter09/omplexMappig.sol\":2324:2328  self */\n      dup4\n        /* \"study/chapter09/omplexMappig.sol\":2324:2333  self.data */\n      0x00\n      add\n        /* \"study/chapter09/omplexMappig.sol\":2324:2338  self.data[key] */\n      0x00\n        /* \"study/chapter09/omplexMappig.sol\":2334:2337  key */\n      dup4\n        /* \"study/chapter09/omplexMappig.sol\":2324:2338  self.data[key] */\n      dup2\n      mstore\n      0x20\n      add\n      swap1\n      dup2\n      mstore\n      0x20\n      add\n      0x00\n      keccak256\n        /* \"study/chapter09/omplexMappig.sol\":2324:2344  self.data[key].value */\n      0x01\n      add\n      sload\n        /* \"study/chapter09/omplexMappig.sol\":2316:2344  value = self.data[key].value */\n      swap1\n      pop\n        /* \"study/chapter09/omplexMappig.sol\":2166:2351  function iterate_get(itmap storage self, uint keyIndex) internal view returns (uint key, uint value) {... */\n      swap3\n      pop\n      swap3\n      swap1\n      pop\n      jump\t// out\n        /* \"study/chapter09/omplexMappig.sol\":1912:2160  function iterate_next(itmap storage self, uint keyIndex) internal view returns (uint r_keyIndex) {... */\n    tag_30:\n        /* \"study/chapter09/omplexMappig.sol\":1992:2007  uint r_keyIndex */\n      0x00\n        /* \"study/chapter09/omplexMappig.sol\":2019:2029  keyIndex++ */\n      dup2\n      dup1\n      tag_50\n      swap1\n      tag_41\n      jump\t// in\n    tag_50:\n      swap3\n      pop\n      pop\n        /* \"study/chapter09/omplexMappig.sol\":2039:2128  while (keyIndex < self.keys.length && self.keys[keyIndex].deleted)... */\n    tag_51:\n        /* \"study/chapter09/omplexMappig.sol\":2057:2061  self */\n      dup3\n        /* \"study/chapter09/omplexMappig.sol\":2057:2066  self.keys */\n      0x01\n      add\n        /* \"study/chapter09/omplexMappig.sol\":2057:2073  self.keys.length */\n      dup1\n      sload\n      swap1\n      pop\n        /* \"study/chapter09/omplexMappig.sol\":2046:2054  keyIndex */\n      dup3\n        /* \"study/chapter09/omplexMappig.sol\":2046:2073  keyIndex < self.keys.length */\n      lt\n        /* \"study/chapter09/omplexMappig.sol\":2046:2104  keyIndex < self.keys.length && self.keys[keyIndex].deleted */\n      dup1\n      iszero\n      tag_53\n      jumpi\n      pop\n        /* \"study/chapter09/omplexMappig.sol\":2077:2081  self */\n      dup3\n        /* \"study/chapter09/omplexMappig.sol\":2077:2086  self.keys */\n      0x01\n      add\n        /* \"study/chapter09/omplexMappig.sol\":2087:2095  keyIndex */\n      dup3\n        /* \"study/chapter09/omplexMappig.sol\":2077:2096  self.keys[keyIndex] */\n      dup2\n      sload\n      dup2\n      lt\n      tag_54\n      jumpi\n      tag_55\n      tag_38\n      jump\t// in\n    tag_55:\n    tag_54:\n      swap1\n      0x00\n      mstore\n      keccak256(0x00, 0x20)\n      swap1\n      0x02\n      mul\n      add\n        /* \"study/chapter09/omplexMappig.sol\":2077:2104  self.keys[keyIndex].deleted */\n      0x01\n      add\n      0x00\n      swap1\n      sload\n      swap1\n      0x0100\n      exp\n      swap1\n      div\n      0xff\n      and\n        /* \"study/chapter09/omplexMappig.sol\":2046:2104  keyIndex < self.keys.length && self.keys[keyIndex].deleted */\n    tag_53:\n        /* \"study/chapter09/omplexMappig.sol\":2039:2128  while (keyIndex < self.keys.length && self.keys[keyIndex].deleted)... */\n      iszero\n      tag_52\n      jumpi\n        /* \"study/chapter09/omplexMappig.sol\":2118:2128  keyIndex++ */\n      dup2\n      dup1\n      tag_57\n      swap1\n      tag_41\n      jump\t// in\n    tag_57:\n      swap3\n      pop\n      pop\n        /* \"study/chapter09/omplexMappig.sol\":2039:2128  while (keyIndex < self.keys.length && self.keys[keyIndex].deleted)... */\n      jump(tag_51)\n    tag_52:\n        /* \"study/chapter09/omplexMappig.sol\":2145:2153  keyIndex */\n      dup2\n        /* \"study/chapter09/omplexMappig.sol\":2138:2153  return keyIndex */\n      swap1\n      pop\n        /* \"study/chapter09/omplexMappig.sol\":1912:2160  function iterate_next(itmap storage self, uint keyIndex) internal view returns (uint r_keyIndex) {... */\n      swap3\n      swap2\n      pop\n      pop\n      jump\t// out\n        /* \"#utility.yul\":7:146   */\n    tag_59:\n        /* \"#utility.yul\":53:58   */\n      0x00\n        /* \"#utility.yul\":91:97   */\n      dup2\n        /* \"#utility.yul\":78:98   */\n      calldataload\n        /* \"#utility.yul\":69:98   */\n      swap1\n      pop\n        /* \"#utility.yul\":107:140   */\n      tag_61\n        /* \"#utility.yul\":134:139   */\n      dup2\n        /* \"#utility.yul\":107:140   */\n      tag_62\n      jump\t// in\n    tag_61:\n        /* \"#utility.yul\":7:146   */\n      swap3\n      swap2\n      pop\n      pop\n      jump\t// out\n        /* \"#utility.yul\":152:626   */\n    tag_7:\n        /* \"#utility.yul\":220:226   */\n      0x00\n        /* \"#utility.yul\":228:234   */\n      dup1\n        /* \"#utility.yul\":277:279   */\n      0x40\n        /* \"#utility.yul\":265:274   */\n      dup4\n        /* \"#utility.yul\":256:263   */\n      dup6\n        /* \"#utility.yul\":252:275   */\n      sub\n        /* \"#utility.yul\":248:280   */\n      slt\n        /* \"#utility.yul\":245:364   */\n      iszero\n      tag_64\n      jumpi\n        /* \"#utility.yul\":283:362   */\n      tag_65\n      tag_66\n      jump\t// in\n    tag_65:\n        /* \"#utility.yul\":245:364   */\n    tag_64:\n        /* \"#utility.yul\":403:404   */\n      0x00\n        /* \"#utility.yul\":428:481   */\n      tag_67\n        /* \"#utility.yul\":473:480   */\n      dup6\n        /* \"#utility.yul\":464:470   */\n      dup3\n        /* \"#utility.yul\":453:462   */\n      dup7\n        /* \"#utility.yul\":449:471   */\n      add\n        /* \"#utility.yul\":428:481   */\n      tag_59\n      jump\t// in\n    tag_67:\n        /* \"#utility.yul\":418:481   */\n      swap3\n      pop\n        /* \"#utility.yul\":374:491   */\n      pop\n        /* \"#utility.yul\":530:532   */\n      0x20\n        /* \"#utility.yul\":556:609   */\n      tag_68\n        /* \"#utility.yul\":601:608   */\n      dup6\n        /* \"#utility.yul\":592:598   */\n      dup3\n        /* \"#utility.yul\":581:590   */\n      dup7\n        /* \"#utility.yul\":577:599   */\n      add\n        /* \"#utility.yul\":556:609   */\n      tag_59\n      jump\t// in\n    tag_68:\n        /* \"#utility.yul\":546:609   */\n      swap2\n      pop\n        /* \"#utility.yul\":501:619   */\n      pop\n        /* \"#utility.yul\":152:626   */\n      swap3\n      pop\n      swap3\n      swap1\n      pop\n      jump\t// out\n        /* \"#utility.yul\":632:750   */\n    tag_69:\n        /* \"#utility.yul\":719:743   */\n      tag_71\n        /* \"#utility.yul\":737:742   */\n      dup2\n        /* \"#utility.yul\":719:743   */\n      tag_72\n      jump\t// in\n    tag_71:\n        /* \"#utility.yul\":714:717   */\n      dup3\n        /* \"#utility.yul\":707:744   */\n      mstore\n        /* \"#utility.yul\":632:750   */\n      pop\n      pop\n      jump\t// out\n        /* \"#utility.yul\":756:978   */\n    tag_10:\n        /* \"#utility.yul\":849:853   */\n      0x00\n        /* \"#utility.yul\":887:889   */\n      0x20\n        /* \"#utility.yul\":876:885   */\n      dup3\n        /* \"#utility.yul\":872:890   */\n      add\n        /* \"#utility.yul\":864:890   */\n      swap1\n      pop\n        /* \"#utility.yul\":900:971   */\n      tag_74\n        /* \"#utility.yul\":968:969   */\n      0x00\n        /* \"#utility.yul\":957:966   */\n      dup4\n        /* \"#utility.yul\":953:970   */\n      add\n        /* \"#utility.yul\":944:950   */\n      dup5\n        /* \"#utility.yul\":900:971   */\n      tag_69\n      jump\t// in\n    tag_74:\n        /* \"#utility.yul\":756:978   */\n      swap3\n      swap2\n      pop\n      pop\n      jump\t// out\n        /* \"#utility.yul\":1065:1370   */\n    tag_28:\n        /* \"#utility.yul\":1105:1108   */\n      0x00\n        /* \"#utility.yul\":1124:1144   */\n      tag_78\n        /* \"#utility.yul\":1142:1143   */\n      dup3\n        /* \"#utility.yul\":1124:1144   */\n      tag_72\n      jump\t// in\n    tag_78:\n        /* \"#utility.yul\":1119:1144   */\n      swap2\n      pop\n        /* \"#utility.yul\":1158:1178   */\n      tag_79\n        /* \"#utility.yul\":1176:1177   */\n      dup4\n        /* \"#utility.yul\":1158:1178   */\n      tag_72\n      jump\t// in\n    tag_79:\n        /* \"#utility.yul\":1153:1178   */\n      swap3\n      pop\n        /* \"#utility.yul\":1312:1313   */\n      dup3\n        /* \"#utility.yul\":1244:1310   */\n      0xffffffffffffffffffffffffffffffffffffffffffffffffffffffffffffffff\n        /* \"#utility.yul\":1240:1314   */\n      sub\n        /* \"#utility.yul\":1237:1238   */\n      dup3\n        /* \"#utility.yul\":1234:1315   */\n      gt\n        /* \"#utility.yul\":1231:1338   */\n      iszero\n      tag_80\n      jumpi\n        /* \"#utility.yul\":1318:1336   */\n      tag_81\n      tag_82\n      jump\t// in\n    tag_81:\n        /* \"#utility.yul\":1231:1338   */\n    tag_80:\n        /* \"#utility.yul\":1362:1363   */\n      dup3\n        /* \"#utility.yul\":1359:1360   */\n      dup3\n        /* \"#utility.yul\":1355:1364   */\n      add\n        /* \"#utility.yul\":1348:1364   */\n      swap1\n      pop\n        /* \"#utility.yul\":1065:1370   */\n      swap3\n      swap2\n      pop\n      pop\n      jump\t// out\n        /* \"#utility.yul\":1376:1453   */\n    tag_72:\n        /* \"#utility.yul\":1413:1420   */\n      0x00\n        /* \"#utility.yul\":1442:1447   */\n      dup2\n        /* \"#utility.yul\":1431:1447   */\n      swap1\n      pop\n        /* \"#utility.yul\":1376:1453   */\n      swap2\n      swap1\n      pop\n      jump\t// out\n        /* \"#utility.yul\":1459:1692   */\n    tag_41:\n        /* \"#utility.yul\":1498:1501   */\n      0x00\n        /* \"#utility.yul\":1521:1545   */\n      tag_85\n        /* \"#utility.yul\":1539:1544   */\n      dup3\n        /* \"#utility.yul\":1521:1545   */\n      tag_72\n      jump\t// in\n    tag_85:\n        /* \"#utility.yul\":1512:1545   */\n      swap2\n      pop\n        /* \"#utility.yul\":1567:1633   */\n      0xffffffffffffffffffffffffffffffffffffffffffffffffffffffffffffffff\n        /* \"#utility.yul\":1560:1565   */\n      dup3\n        /* \"#utility.yul\":1557:1634   */\n      eq\n        /* \"#utility.yul\":1554:1657   */\n      iszero\n      tag_86\n      jumpi\n        /* \"#utility.yul\":1637:1655   */\n      tag_87\n      tag_82\n      jump\t// in\n    tag_87:\n        /* \"#utility.yul\":1554:1657   */\n    tag_86:\n        /* \"#utility.yul\":1684:1685   */\n      0x01\n        /* \"#utility.yul\":1677:1682   */\n      dup3\n        /* \"#utility.yul\":1673:1686   */\n      add\n        /* \"#utility.yul\":1666:1686   */\n      swap1\n      pop\n        /* \"#utility.yul\":1459:1692   */\n      swap2\n      swap1\n      pop\n      jump\t// out\n        /* \"#utility.yul\":1698:1878   */\n    tag_82:\n        /* \"#utility.yul\":1746:1823   */\n      0x4e487b7100000000000000000000000000000000000000000000000000000000\n        /* \"#utility.yul\":1743:1744   */\n      0x00\n        /* \"#utility.yul\":1736:1824   */\n      mstore\n        /* \"#utility.yul\":1843:1847   */\n      0x11\n        /* \"#utility.yul\":1840:1841   */\n      0x04\n        /* \"#utility.yul\":1833:1848   */\n      mstore\n        /* \"#utility.yul\":1867:1871   */\n      0x24\n        /* \"#utility.yul\":1864:1865   */\n      0x00\n        /* \"#utility.yul\":1857:1872   */\n      revert\n        /* \"#utility.yul\":1884:2064   */\n    tag_38:\n        /* \"#utility.yul\":1932:2009   */\n      0x4e487b7100000000000000000000000000000000000000000000000000000000\n        /* \"#utility.yul\":1929:1930   */\n      0x00\n        /* \"#utility.yul\":1922:2010   */\n      mstore\n        /* \"#utility.yul\":2029:2033   */\n      0x32\n        /* \"#utility.yul\":2026:2027   */\n      0x04\n        /* \"#utility.yul\":2019:2034   */\n      mstore\n        /* \"#utility.yul\":2053:2057   */\n      0x24\n        /* \"#utility.yul\":2050:2051   */\n      0x00\n        /* \"#utility.yul\":2043:2058   */\n      revert\n        /* \"#utility.yul\":2193:2310   */\n    tag_66:\n        /* \"#utility.yul\":2302:2303   */\n      0x00\n        /* \"#utility.yul\":2299:2300   */\n      dup1\n        /* \"#utility.yul\":2292:2304   */\n      revert\n        /* \"#utility.yul\":2316:2438   */\n    tag_62:\n        /* \"#utility.yul\":2389:2413   */\n      tag_94\n        /* \"#utility.yul\":2407:2412   */\n      dup2\n        /* \"#utility.yul\":2389:2413   */\n      tag_72\n      jump\t// in\n    tag_94:\n        /* \"#utility.yul\":2382:2387   */\n      dup2\n        /* \"#utility.yul\":2379:2414   */\n      eq\n        /* \"#utility.yul\":2369:2432   */\n      tag_95\n      jumpi\n        /* \"#utility.yul\":2428:2429   */\n      0x00\n        /* \"#utility.yul\":2425:2426   */\n      dup1\n        /* \"#utility.yul\":2418:2430   */\n      revert\n        /* \"#utility.yul\":2369:2432   */\n    tag_95:\n        /* \"#utility.yul\":2316:2438   */\n      pop\n      jump\t// out\n\n    auxdata: 0xa26469706673582212202609f038d908d95de215c5cc3bea284f7ff52f82bb7f4a44038cfd9c7bb22dcd64736f6c63430008070033\n}\n",
				"bytecode": {
					"linkReferences": {},
					"object": "608060405234801561001057600080fd5b506104fb806100206000396000f3fe608060405234801561001057600080fd5b50600436106100365760003560e01c80631d834a1b1461003b578063853255cc1461006b575b600080fd5b61005560048036038101906100509190610338565b610089565b6040516100629190610387565b60405180910390f35b6100736100b0565b6040516100809190610387565b60405180910390f35b60006100a1838360006101209092919063ffffffff16565b50600060020154905092915050565b6000806100bd6000610214565b90505b6100d481600061024790919063ffffffff16565b1561011c5760006100ef82600061025b90919063ffffffff16565b91505080836100fe91906103a2565b9250506101158160006102aa90919063ffffffff16565b90506100c0565b5090565b6000808460000160008581526020019081526020016000206000015490508285600001600086815260200190815260200160002060010181905550600081111561016e57600191505061020d565b8460010180549050905084600101600181600181540180825580915050039060005260206000209050506001816101a591906103a2565b85600001600086815260200190815260200160002060000181905550838560010182815481106101d8576101d761047a565b5b90600052602060002090600202016000018190555084600201600081548092919061020290610402565b919050555060009150505b9392505050565b6000610240827fffffffffffffffffffffffffffffffffffffffffffffffffffffffffffffffff6102aa565b9050919050565b600082600101805490508210905092915050565b6000808360010183815481106102745761027361047a565b5b90600052602060002090600202016000015491508360000160008381526020019081526020016000206001015490509250929050565b600081806102b790610402565b9250505b82600101805490508210801561030257508260010182815481106102e2576102e161047a565b5b906000526020600020906002020160010160009054906101000a900460ff165b1561031a57818061031290610402565b9250506102bb565b81905092915050565b600081359050610332816104ae565b92915050565b6000806040838503121561034f5761034e6104a9565b5b600061035d85828601610323565b925050602061036e85828601610323565b9150509250929050565b610381816103f8565b82525050565b600060208201905061039c6000830184610378565b92915050565b60006103ad826103f8565b91506103b8836103f8565b9250827fffffffffffffffffffffffffffffffffffffffffffffffffffffffffffffffff038211156103ed576103ec61044b565b5b828201905092915050565b6000819050919050565b600061040d826103f8565b91507fffffffffffffffffffffffffffffffffffffffffffffffffffffffffffffffff8214156104405761043f61044b565b5b600182019050919050565b7f4e487b7100000000000000000000000000000000000000000000000000000000600052601160045260246000fd5b7f4e487b7100000000000000000000000000000000000000000000000000000000600052603260045260246000fd5b600080fd5b6104b7816103f8565b81146104c257600080fd5b5056fea26469706673582212202609f038d908d95de215c5cc3bea284f7ff52f82bb7f4a44038cfd9c7bb22dcd64736f6c63430008070033",
					"opcodes": "PUSH1 0x80 PUSH1 0x40 MSTORE CALLVALUE DUP1 ISZERO PUSH2 0x10 JUMPI PUSH1 0x0 DUP1 REVERT JUMPDEST POP PUSH2 0x4FB DUP1 PUSH2 0x20 PUSH1 0x0 CODECOPY PUSH1 0x0 RETURN INVALID PUSH1 0x80 PUSH1 0x40 MSTORE CALLVALUE DUP1 ISZERO PUSH2 0x10 JUMPI PUSH1 0x0 DUP1 REVERT JUMPDEST POP PUSH1 0x4 CALLDATASIZE LT PUSH2 0x36 JUMPI PUSH1 0x0 CALLDATALOAD PUSH1 0xE0 SHR DUP1 PUSH4 0x1D834A1B EQ PUSH2 0x3B JUMPI DUP1 PUSH4 0x853255CC EQ PUSH2 0x6B JUMPI JUMPDEST PUSH1 0x0 DUP1 REVERT JUMPDEST PUSH2 0x55 PUSH1 0x4 DUP1 CALLDATASIZE SUB DUP2 ADD SWAP1 PUSH2 0x50 SWAP2 SWAP1 PUSH2 0x338 JUMP JUMPDEST PUSH2 0x89 JUMP JUMPDEST PUSH1 0x40 MLOAD PUSH2 0x62 SWAP2 SWAP1 PUSH2 0x387 JUMP JUMPDEST PUSH1 0x40 MLOAD DUP1 SWAP2 SUB SWAP1 RETURN JUMPDEST PUSH2 0x73 PUSH2 0xB0 JUMP JUMPDEST PUSH1 0x40 MLOAD PUSH2 0x80 SWAP2 SWAP1 PUSH2 0x387 JUMP JUMPDEST PUSH1 0x40 MLOAD DUP1 SWAP2 SUB SWAP1 RETURN JUMPDEST PUSH1 0x0 PUSH2 0xA1 DUP4 DUP4 PUSH1 0x0 PUSH2 0x120 SWAP1 SWAP3 SWAP2 SWAP1 PUSH4 0xFFFFFFFF AND JUMP JUMPDEST POP PUSH1 0x0 PUSH1 0x2 ADD SLOAD SWAP1 POP SWAP3 SWAP2 POP POP JUMP JUMPDEST PUSH1 0x0 DUP1 PUSH2 0xBD PUSH1 0x0 PUSH2 0x214 JUMP JUMPDEST SWAP1 POP JUMPDEST PUSH2 0xD4 DUP2 PUSH1 0x0 PUSH2 0x247 SWAP1 SWAP2 SWAP1 PUSH4 0xFFFFFFFF AND JUMP JUMPDEST ISZERO PUSH2 0x11C JUMPI PUSH1 0x0 PUSH2 0xEF DUP3 PUSH1 0x0 PUSH2 0x25B SWAP1 SWAP2 SWAP1 PUSH4 0xFFFFFFFF AND JUMP JUMPDEST SWAP2 POP POP DUP1 DUP4 PUSH2 0xFE SWAP2 SWAP1 PUSH2 0x3A2 JUMP JUMPDEST SWAP3 POP POP PUSH2 0x115 DUP2 PUSH1 0x0 PUSH2 0x2AA SWAP1 SWAP2 SWAP1 PUSH4 0xFFFFFFFF AND JUMP JUMPDEST SWAP1 POP PUSH2 0xC0 JUMP JUMPDEST POP SWAP1 JUMP JUMPDEST PUSH1 0x0 DUP1 DUP5 PUSH1 0x0 ADD PUSH1 0x0 DUP6 DUP2 MSTORE PUSH1 0x20 ADD SWAP1 DUP2 MSTORE PUSH1 0x20 ADD PUSH1 0x0 KECCAK256 PUSH1 0x0 ADD SLOAD SWAP1 POP DUP3 DUP6 PUSH1 0x0 ADD PUSH1 0x0 DUP7 DUP2 MSTORE PUSH1 0x20 ADD SWAP1 DUP2 MSTORE PUSH1 0x20 ADD PUSH1 0x0 KECCAK256 PUSH1 0x1 ADD DUP2 SWAP1 SSTORE POP PUSH1 0x0 DUP2 GT ISZERO PUSH2 0x16E JUMPI PUSH1 0x1 SWAP2 POP POP PUSH2 0x20D JUMP JUMPDEST DUP5 PUSH1 0x1 ADD DUP1 SLOAD SWAP1 POP SWAP1 POP DUP5 PUSH1 0x1 ADD PUSH1 0x1 DUP2 PUSH1 0x1 DUP2 SLOAD ADD DUP1 DUP3 SSTORE DUP1 SWAP2 POP POP SUB SWAP1 PUSH1 0x0 MSTORE PUSH1 0x20 PUSH1 0x0 KECCAK256 SWAP1 POP POP PUSH1 0x1 DUP2 PUSH2 0x1A5 SWAP2 SWAP1 PUSH2 0x3A2 JUMP JUMPDEST DUP6 PUSH1 0x0 ADD PUSH1 0x0 DUP7 DUP2 MSTORE PUSH1 0x20 ADD SWAP1 DUP2 MSTORE PUSH1 0x20 ADD PUSH1 0x0 KECCAK256 PUSH1 0x0 ADD DUP2 SWAP1 SSTORE POP DUP4 DUP6 PUSH1 0x1 ADD DUP3 DUP2 SLOAD DUP2 LT PUSH2 0x1D8 JUMPI PUSH2 0x1D7 PUSH2 0x47A JUMP JUMPDEST JUMPDEST SWAP1 PUSH1 0x0 MSTORE PUSH1 0x20 PUSH1 0x0 KECCAK256 SWAP1 PUSH1 0x2 MUL ADD PUSH1 0x0 ADD DUP2 SWAP1 SSTORE POP DUP5 PUSH1 0x2 ADD PUSH1 0x0 DUP2 SLOAD DUP1 SWAP3 SWAP2 SWAP1 PUSH2 0x202 SWAP1 PUSH2 0x402 JUMP JUMPDEST SWAP2 SWAP1 POP SSTORE POP PUSH1 0x0 SWAP2 POP POP JUMPDEST SWAP4 SWAP3 POP POP POP JUMP JUMPDEST PUSH1 0x0 PUSH2 0x240 DUP3 PUSH32 0xFFFFFFFFFFFFFFFFFFFFFFFFFFFFFFFFFFFFFFFFFFFFFFFFFFFFFFFFFFFFFFFF PUSH2 0x2AA JUMP JUMPDEST SWAP1 POP SWAP2 SWAP1 POP JUMP JUMPDEST PUSH1 0x0 DUP3 PUSH1 0x1 ADD DUP1 SLOAD SWAP1 POP DUP3 LT SWAP1 POP SWAP3 SWAP2 POP POP JUMP JUMPDEST PUSH1 0x0 DUP1 DUP4 PUSH1 0x1 ADD DUP4 DUP2 SLOAD DUP2 LT PUSH2 0x274 JUMPI PUSH2 0x273 PUSH2 0x47A JUMP JUMPDEST JUMPDEST SWAP1 PUSH1 0x0 MSTORE PUSH1 0x20 PUSH1 0x0 KECCAK256 SWAP1 PUSH1 0x2 MUL ADD PUSH1 0x0 ADD SLOAD SWAP2 POP DUP4 PUSH1 0x0 ADD PUSH1 0x0 DUP4 DUP2 MSTORE PUSH1 0x20 ADD SWAP1 DUP2 MSTORE PUSH1 0x20 ADD PUSH1 0x0 KECCAK256 PUSH1 0x1 ADD SLOAD SWAP1 POP SWAP3 POP SWAP3 SWAP1 POP JUMP JUMPDEST PUSH1 0x0 DUP2 DUP1 PUSH2 0x2B7 SWAP1 PUSH2 0x402 JUMP JUMPDEST SWAP3 POP POP JUMPDEST DUP3 PUSH1 0x1 ADD DUP1 SLOAD SWAP1 POP DUP3 LT DUP1 ISZERO PUSH2 0x302 JUMPI POP DUP3 PUSH1 0x1 ADD DUP3 DUP2 SLOAD DUP2 LT PUSH2 0x2E2 JUMPI PUSH2 0x2E1 PUSH2 0x47A JUMP JUMPDEST JUMPDEST SWAP1 PUSH1 0x0 MSTORE PUSH1 0x20 PUSH1 0x0 KECCAK256 SWAP1 PUSH1 0x2 MUL ADD PUSH1 0x1 ADD PUSH1 0x0 SWAP1 SLOAD SWAP1 PUSH2 0x100 EXP SWAP1 DIV PUSH1 0xFF AND JUMPDEST ISZERO PUSH2 0x31A JUMPI DUP2 DUP1 PUSH2 0x312 SWAP1 PUSH2 0x402 JUMP JUMPDEST SWAP3 POP POP PUSH2 0x2BB JUMP JUMPDEST DUP2 SWAP1 POP SWAP3 SWAP2 POP POP JUMP JUMPDEST PUSH1 0x0 DUP2 CALLDATALOAD SWAP1 POP PUSH2 0x332 DUP2 PUSH2 0x4AE JUMP JUMPDEST SWAP3 SWAP2 POP POP JUMP JUMPDEST PUSH1 0x0 DUP1 PUSH1 0x40 DUP4 DUP6 SUB SLT ISZERO PUSH2 0x34F JUMPI PUSH2 0x34E PUSH2 0x4A9 JUMP JUMPDEST JUMPDEST PUSH1 0x0 PUSH2 0x35D DUP6 DUP3 DUP7 ADD PUSH2 0x323 JUMP JUMPDEST SWAP3 POP POP PUSH1 0x20 PUSH2 0x36E DUP6 DUP3 DUP7 ADD PUSH2 0x323 JUMP JUMPDEST SWAP2 POP POP SWAP3 POP SWAP3 SWAP1 POP JUMP JUMPDEST PUSH2 0x381 DUP2 PUSH2 0x3F8 JUMP JUMPDEST DUP3 MSTORE POP POP JUMP JUMPDEST PUSH1 0x0 PUSH1 0x20 DUP3 ADD SWAP1 POP PUSH2 0x39C PUSH1 0x0 DUP4 ADD DUP5 PUSH2 0x378 JUMP JUMPDEST SWAP3 SWAP2 POP POP JUMP JUMPDEST PUSH1 0x0 PUSH2 0x3AD DUP3 PUSH2 0x3F8 JUMP JUMPDEST SWAP2 POP PUSH2 0x3B8 DUP4 PUSH2 0x3F8 JUMP JUMPDEST SWAP3 POP DUP3 PUSH32 0xFFFFFFFFFFFFFFFFFFFFFFFFFFFFFFFFFFFFFFFFFFFFFFFFFFFFFFFFFFFFFFFF SUB DUP3 GT ISZERO PUSH2 0x3ED JUMPI PUSH2 0x3EC PUSH2 0x44B JUMP JUMPDEST JUMPDEST DUP3 DUP3 ADD SWAP1 POP SWAP3 SWAP2 POP POP JUMP JUMPDEST PUSH1 0x0 DUP2 SWAP1 POP SWAP2 SWAP1 POP JUMP JUMPDEST PUSH1 0x0 PUSH2 0x40D DUP3 PUSH2 0x3F8 JUMP JUMPDEST SWAP2 POP PUSH32 0xFFFFFFFFFFFFFFFFFFFFFFFFFFFFFFFFFFFFFFFFFFFFFFFFFFFFFFFFFFFFFFFF DUP3 EQ ISZERO PUSH2 0x440 JUMPI PUSH2 0x43F PUSH2 0x44B JUMP JUMPDEST JUMPDEST PUSH1 0x1 DUP3 ADD SWAP1 POP SWAP2 SWAP1 POP JUMP JUMPDEST PUSH32 0x4E487B7100000000000000000000000000000000000000000000000000000000 PUSH1 0x0 MSTORE PUSH1 0x11 PUSH1 0x4 MSTORE PUSH1 0x24 PUSH1 0x0 REVERT JUMPDEST PUSH32 0x4E487B7100000000000000000000000000000000000000000000000000000000 PUSH1 0x0 MSTORE PUSH1 0x32 PUSH1 0x4 MSTORE PUSH1 0x24 PUSH1 0x0 REVERT JUMPDEST PUSH1 0x0 DUP1 REVERT JUMPDEST PUSH2 0x4B7 DUP2 PUSH2 0x3F8 JUMP JUMPDEST DUP2 EQ PUSH2 0x4C2 JUMPI PUSH1 0x0 DUP1 REVERT JUMPDEST POP JUMP INVALID LOG2 PUSH5 0x6970667358 0x22 SLT KECCAK256 0x26 MULMOD CREATE CODESIZE 0xD9 ADDMOD 0xD9 0x5D 0xE2 ISZERO 0xC5 0xCC EXTCODESIZE 0xEA 0x28 0x4F PUSH32 0xF52F82BB7F4A44038CFD9C7BB22DCD64736F6C63430008070033000000000000 "
				},
				"gasEstimates": {
					"creation": {
						"codeDepositCost": "255000",
						"executionCost": "294",
						"totalCost": "255294"
					},
					"external": {
						"insert(uint256,uint256)": "infinite",
						"sum()": "328"
					}
				},
				"methodIdentifiers": {
					"insert(uint256,uint256)": "1d834a1b",
					"sum()": "853255cc"
				}
			},
			"storageLayout": {
				"storage": [
					{
						"astId": 265,
						"contract": "study/chapter09/omplexMappig.sol:User",
						"label": "data",
						"offset": 0,
						"slot": "0",
						"type": "t_struct(itmap)23_storage"
					}
				],
				"types": {
					"t_array(t_struct(KeyFlag)11_storage)dyn_storage": {
						"base": "t_struct(KeyFlag)11_storage",
						"encoding": "dynamic_array",
						"label": "struct KeyFlag[]",
						"numberOfBytes": "32"
					},
					"t_bool": {
						"encoding": "inplace",
						"label": "bool",
						"numberOfBytes": "1"
					},
					"t_mapping(t_uint256,t_struct(IndexValue)6_storage)": {
						"encoding": "mapping",
						"key": "t_uint256",
						"label": "mapping(uint256 => struct IndexValue)",
						"numberOfBytes": "32",
						"value": "t_struct(IndexValue)6_storage"
					},
					"t_struct(IndexValue)6_storage": {
						"encoding": "inplace",
						"label": "struct IndexValue",
						"members": [
							{
								"astId": 3,
								"contract": "study/chapter09/omplexMappig.sol:User",
								"label": "keyIndex",
								"offset": 0,
								"slot": "0",
								"type": "t_uint256"
							},
							{
								"astId": 5,
								"contract": "study/chapter09/omplexMappig.sol:User",
								"label": "value",
								"offset": 0,
								"slot": "1",
								"type": "t_uint256"
							}
						],
						"numberOfBytes": "64"
					},
					"t_struct(KeyFlag)11_storage": {
						"encoding": "inplace",
						"label": "struct KeyFlag",
						"members": [
							{
								"astId": 8,
								"contract": "study/chapter09/omplexMappig.sol:User",
								"label": "key",
								"offset": 0,
								"slot": "0",
								"type": "t_uint256"
							},
							{
								"astId": 10,
								"contract": "study/chapter09/omplexMappig.sol:User",
								"label": "deleted",
								"offset": 0,
								"slot": "1",
								"type": "t_bool"
							}
						],
						"numberOfBytes": "64"
					},
					"t_struct(itmap)23_storage": {
						"encoding": "inplace",
						"label": "struct itmap",
						"members": [
							{
								"astId": 16,
								"contract": "study/chapter09/omplexMappig.sol:User",
								"label": "data",
								"offset": 0,
								"slot": "0",
								"type": "t_mapping(t_uint256,t_struct(IndexValue)6_storage)"
							},
							{
								"astId": 20,
								"contract": "study/chapter09/omplexMappig.sol:User",
								"label": "keys",
								"offset": 0,
								"slot": "1",
								"type": "t_array(t_struct(KeyFlag)11_storage)dyn_storage"
							},
							{
								"astId": 22,
								"contract": "study/chapter09/omplexMappig.sol:User",
								"label": "size",
								"offset": 0,
								"slot": "2",
								"type": "t_uint256"
							}
						],
						"numberOfBytes": "96"
					},
					"t_uint256": {
						"encoding": "inplace",
						"label": "uint256",
						"numberOfBytes": "32"
					}
				}
			},
			"userdoc": {
				"kind": "user",
				"methods": {},
				"version": 1
			}
		}
	}
}