{
	"study/chapter09/omplexMappig.sol": {
		"User": {
			"abi": [
				{
					"inputs": [],
					"name": "sum",
					"outputs": [
						{
							"internalType": "uint256",
							"name": "s",
							"type": "uint256"
						}
					],
					"stateMutability": "view",
					"type": "function"
				}
			],
			"devdoc": {
				"kind": "dev",
				"methods": {},
				"version": 1
			},
			"evm": {
				"assembly": "    /* \"study/chapter09/omplexMappig.sol\":2411:2921  contract User {... */\n  mstore(0x40, 0x80)\n  callvalue\n  dup1\n  iszero\n  tag_1\n  jumpi\n  0x00\n  dup1\n  revert\ntag_1:\n  pop\n  dataSize(sub_0)\n  dup1\n  dataOffset(sub_0)\n  0x00\n  codecopy\n  0x00\n  return\nstop\n\nsub_0: assembly {\n        /* \"study/chapter09/omplexMappig.sol\":2411:2921  contract User {... */\n      mstore(0x40, 0x80)\n      callvalue\n      dup1\n      iszero\n      tag_1\n      jumpi\n      0x00\n      dup1\n      revert\n    tag_1:\n      pop\n      jumpi(tag_2, lt(calldatasize, 0x04))\n      shr(0xe0, calldataload(0x00))\n      dup1\n      0x853255cc\n      eq\n      tag_3\n      jumpi\n    tag_2:\n      0x00\n      dup1\n      revert\n        /* \"study/chapter09/omplexMappig.sol\":2643:2919  function sum() public view returns (uint s) {... */\n    tag_3:\n      tag_4\n      tag_5\n      jump\t// in\n    tag_4:\n      mload(0x40)\n      tag_6\n      swap2\n      swap1\n      tag_7\n      jump\t// in\n    tag_6:\n      mload(0x40)\n      dup1\n      swap2\n      sub\n      swap1\n      return\n    tag_5:\n        /* \"study/chapter09/omplexMappig.sol\":2679:2685  uint s */\n      0x00\n        /* \"study/chapter09/omplexMappig.sol\":2715:2721  uint i */\n      dup1\n        /* \"study/chapter09/omplexMappig.sol\":2724:2744  data.iterate_start() */\n      tag_12\n        /* \"study/chapter09/omplexMappig.sol\":2724:2728  data */\n      0x00\n        /* \"study/chapter09/omplexMappig.sol\":2724:2742  data.iterate_start */\n      tag_13\n        /* \"study/chapter09/omplexMappig.sol\":2724:2744  data.iterate_start() */\n      jump\t// in\n    tag_12:\n        /* \"study/chapter09/omplexMappig.sol\":2715:2744  uint i = data.iterate_start() */\n      swap1\n      pop\n        /* \"study/chapter09/omplexMappig.sol\":2697:2913  for (... */\n    tag_9:\n        /* \"study/chapter09/omplexMappig.sol\":2758:2779  data.iterate_valid(i) */\n      tag_14\n        /* \"study/chapter09/omplexMappig.sol\":2777:2778  i */\n      dup2\n        /* \"study/chapter09/omplexMappig.sol\":2758:2762  data */\n      0x00\n        /* \"study/chapter09/omplexMappig.sol\":2758:2776  data.iterate_valid */\n      tag_15\n      swap1\n        /* \"study/chapter09/omplexMappig.sol\":2758:2779  data.iterate_valid(i) */\n      swap2\n      swap1\n      0xffffffff\n      and\n      jump\t// in\n    tag_14:\n        /* \"study/chapter09/omplexMappig.sol\":2697:2913  for (... */\n      iszero\n      tag_10\n      jumpi\n        /* \"study/chapter09/omplexMappig.sol\":2845:2855  uint value */\n      0x00\n        /* \"study/chapter09/omplexMappig.sol\":2859:2878  data.iterate_get(i) */\n      tag_16\n        /* \"study/chapter09/omplexMappig.sol\":2876:2877  i */\n      dup3\n        /* \"study/chapter09/omplexMappig.sol\":2859:2863  data */\n      0x00\n        /* \"study/chapter09/omplexMappig.sol\":2859:2875  data.iterate_get */\n      tag_17\n      swap1\n        /* \"study/chapter09/omplexMappig.sol\":2859:2878  data.iterate_get(i) */\n      swap2\n      swap1\n      0xffffffff\n      and\n      jump\t// in\n    tag_16:\n        /* \"study/chapter09/omplexMappig.sol\":2842:2878  (, uint value) = data.iterate_get(i) */\n      swap2\n      pop\n      pop\n        /* \"study/chapter09/omplexMappig.sol\":2897:2902  value */\n      dup1\n        /* \"study/chapter09/omplexMappig.sol\":2892:2902  s += value */\n      dup4\n      tag_18\n      swap2\n      swap1\n      tag_19\n      jump\t// in\n    tag_18:\n      swap3\n      pop\n        /* \"study/chapter09/omplexMappig.sol\":2828:2913  {... */\n      pop\n        /* \"study/chapter09/omplexMappig.sol\":2797:2817  data.iterate_next(i) */\n      tag_20\n        /* \"study/chapter09/omplexMappig.sol\":2815:2816  i */\n      dup2\n        /* \"study/chapter09/omplexMappig.sol\":2797:2801  data */\n      0x00\n        /* \"study/chapter09/omplexMappig.sol\":2797:2814  data.iterate_next */\n      tag_21\n      swap1\n        /* \"study/chapter09/omplexMappig.sol\":2797:2817  data.iterate_next(i) */\n      swap2\n      swap1\n      0xffffffff\n      and\n      jump\t// in\n    tag_20:\n        /* \"study/chapter09/omplexMappig.sol\":2793:2817  i = data.iterate_next(i) */\n      swap1\n      pop\n        /* \"study/chapter09/omplexMappig.sol\":2697:2913  for (... */\n      jump(tag_9)\n    tag_10:\n      pop\n        /* \"study/chapter09/omplexMappig.sol\":2643:2919  function sum() public view returns (uint s) {... */\n      swap1\n      jump\t// out\n        /* \"study/chapter09/omplexMappig.sol\":1664:1803  function iterate_start(itmap storage self) internal view returns (uint keyIndex) {... */\n    tag_13:\n        /* \"study/chapter09/omplexMappig.sol\":1730:1743  uint keyIndex */\n      0x00\n        /* \"study/chapter09/omplexMappig.sol\":1762:1796  iterate_next(self, type(uint).max) */\n      tag_23\n        /* \"study/chapter09/omplexMappig.sol\":1775:1779  self */\n      dup3\n        /* \"study/chapter09/omplexMappig.sol\":1781:1795  type(uint).max */\n      0xffffffffffffffffffffffffffffffffffffffffffffffffffffffffffffffff\n        /* \"study/chapter09/omplexMappig.sol\":1762:1774  iterate_next */\n      tag_21\n        /* \"study/chapter09/omplexMappig.sol\":1762:1796  iterate_next(self, type(uint).max) */\n      jump\t// in\n    tag_23:\n        /* \"study/chapter09/omplexMappig.sol\":1755:1796  return iterate_next(self, type(uint).max) */\n      swap1\n      pop\n        /* \"study/chapter09/omplexMappig.sol\":1664:1803  function iterate_start(itmap storage self) internal view returns (uint keyIndex) {... */\n      swap2\n      swap1\n      pop\n      jump\t// out\n        /* \"study/chapter09/omplexMappig.sol\":1809:1947  function iterate_valid(itmap storage self, uint keyIndex) internal view returns (bool) {... */\n    tag_15:\n        /* \"study/chapter09/omplexMappig.sol\":1890:1894  bool */\n      0x00\n        /* \"study/chapter09/omplexMappig.sol\":1924:1928  self */\n      dup3\n        /* \"study/chapter09/omplexMappig.sol\":1924:1933  self.keys */\n      0x01\n      add\n        /* \"study/chapter09/omplexMappig.sol\":1924:1940  self.keys.length */\n      dup1\n      sload\n      swap1\n      pop\n        /* \"study/chapter09/omplexMappig.sol\":1913:1921  keyIndex */\n      dup3\n        /* \"study/chapter09/omplexMappig.sol\":1913:1940  keyIndex < self.keys.length */\n      lt\n        /* \"study/chapter09/omplexMappig.sol\":1906:1940  return keyIndex < self.keys.length */\n      swap1\n      pop\n        /* \"study/chapter09/omplexMappig.sol\":1809:1947  function iterate_valid(itmap storage self, uint keyIndex) internal view returns (bool) {... */\n      swap3\n      swap2\n      pop\n      pop\n      jump\t// out\n        /* \"study/chapter09/omplexMappig.sol\":2207:2392  function iterate_get(itmap storage self, uint keyIndex) internal view returns (uint key, uint value) {... */\n    tag_17:\n        /* \"study/chapter09/omplexMappig.sol\":2286:2294  uint key */\n      0x00\n        /* \"study/chapter09/omplexMappig.sol\":2296:2306  uint value */\n      dup1\n        /* \"study/chapter09/omplexMappig.sol\":2324:2328  self */\n      dup4\n        /* \"study/chapter09/omplexMappig.sol\":2324:2333  self.keys */\n      0x01\n      add\n        /* \"study/chapter09/omplexMappig.sol\":2334:2342  keyIndex */\n      dup4\n        /* \"study/chapter09/omplexMappig.sol\":2324:2343  self.keys[keyIndex] */\n      dup2\n      sload\n      dup2\n      lt\n      tag_26\n      jumpi\n      tag_27\n      tag_28\n      jump\t// in\n    tag_27:\n    tag_26:\n      swap1\n      0x00\n      mstore\n      keccak256(0x00, 0x20)\n      swap1\n      0x02\n      mul\n      add\n        /* \"study/chapter09/omplexMappig.sol\":2324:2347  self.keys[keyIndex].key */\n      0x00\n      add\n      sload\n        /* \"study/chapter09/omplexMappig.sol\":2318:2347  key = self.keys[keyIndex].key */\n      swap2\n      pop\n        /* \"study/chapter09/omplexMappig.sol\":2365:2369  self */\n      dup4\n        /* \"study/chapter09/omplexMappig.sol\":2365:2374  self.data */\n      0x00\n      add\n        /* \"study/chapter09/omplexMappig.sol\":2365:2379  self.data[key] */\n      0x00\n        /* \"study/chapter09/omplexMappig.sol\":2375:2378  key */\n      dup4\n        /* \"study/chapter09/omplexMappig.sol\":2365:2379  self.data[key] */\n      dup2\n      mstore\n      0x20\n      add\n      swap1\n      dup2\n      mstore\n      0x20\n      add\n      0x00\n      keccak256\n        /* \"study/chapter09/omplexMappig.sol\":2365:2385  self.data[key].value */\n      0x01\n      add\n      sload\n        /* \"study/chapter09/omplexMappig.sol\":2357:2385  value = self.data[key].value */\n      swap1\n      pop\n        /* \"study/chapter09/omplexMappig.sol\":2207:2392  function iterate_get(itmap storage self, uint keyIndex) internal view returns (uint key, uint value) {... */\n      swap3\n      pop\n      swap3\n      swap1\n      pop\n      jump\t// out\n        /* \"study/chapter09/omplexMappig.sol\":1953:2201  function iterate_next(itmap storage self, uint keyIndex) internal view returns (uint r_keyIndex) {... */\n    tag_21:\n        /* \"study/chapter09/omplexMappig.sol\":2033:2048  uint r_keyIndex */\n      0x00\n        /* \"study/chapter09/omplexMappig.sol\":2060:2070  keyIndex++ */\n      dup2\n      dup1\n      tag_31\n      swap1\n      tag_32\n      jump\t// in\n    tag_31:\n      swap3\n      pop\n      pop\n        /* \"study/chapter09/omplexMappig.sol\":2080:2169  while (keyIndex < self.keys.length && self.keys[keyIndex].deleted)... */\n    tag_33:\n        /* \"study/chapter09/omplexMappig.sol\":2098:2102  self */\n      dup3\n        /* \"study/chapter09/omplexMappig.sol\":2098:2107  self.keys */\n      0x01\n      add\n        /* \"study/chapter09/omplexMappig.sol\":2098:2114  self.keys.length */\n      dup1\n      sload\n      swap1\n      pop\n        /* \"study/chapter09/omplexMappig.sol\":2087:2095  keyIndex */\n      dup3\n        /* \"study/chapter09/omplexMappig.sol\":2087:2114  keyIndex < self.keys.length */\n      lt\n        /* \"study/chapter09/omplexMappig.sol\":2087:2145  keyIndex < self.keys.length && self.keys[keyIndex].deleted */\n      dup1\n      iszero\n      tag_35\n      jumpi\n      pop\n        /* \"study/chapter09/omplexMappig.sol\":2118:2122  self */\n      dup3\n        /* \"study/chapter09/omplexMappig.sol\":2118:2127  self.keys */\n      0x01\n      add\n        /* \"study/chapter09/omplexMappig.sol\":2128:2136  keyIndex */\n      dup3\n        /* \"study/chapter09/omplexMappig.sol\":2118:2137  self.keys[keyIndex] */\n      dup2\n      sload\n      dup2\n      lt\n      tag_36\n      jumpi\n      tag_37\n      tag_28\n      jump\t// in\n    tag_37:\n    tag_36:\n      swap1\n      0x00\n      mstore\n      keccak256(0x00, 0x20)\n      swap1\n      0x02\n      mul\n      add\n        /* \"study/chapter09/omplexMappig.sol\":2118:2145  self.keys[keyIndex].deleted */\n      0x01\n      add\n      0x00\n      swap1\n      sload\n      swap1\n      0x0100\n      exp\n      swap1\n      div\n      0xff\n      and\n        /* \"study/chapter09/omplexMappig.sol\":2087:2145  keyIndex < self.keys.length && self.keys[keyIndex].deleted */\n    tag_35:\n        /* \"study/chapter09/omplexMappig.sol\":2080:2169  while (keyIndex < self.keys.length && self.keys[keyIndex].deleted)... */\n      iszero\n      tag_34\n      jumpi\n        /* \"study/chapter09/omplexMappig.sol\":2159:2169  keyIndex++ */\n      dup2\n      dup1\n      tag_39\n      swap1\n      tag_32\n      jump\t// in\n    tag_39:\n      swap3\n      pop\n      pop\n        /* \"study/chapter09/omplexMappig.sol\":2080:2169  while (keyIndex < self.keys.length && self.keys[keyIndex].deleted)... */\n      jump(tag_33)\n    tag_34:\n        /* \"study/chapter09/omplexMappig.sol\":2186:2194  keyIndex */\n      dup2\n        /* \"study/chapter09/omplexMappig.sol\":2179:2194  return keyIndex */\n      swap1\n      pop\n        /* \"study/chapter09/omplexMappig.sol\":1953:2201  function iterate_next(itmap storage self, uint keyIndex) internal view returns (uint r_keyIndex) {... */\n      swap3\n      swap2\n      pop\n      pop\n      jump\t// out\n        /* \"#utility.yul\":7:125   */\n    tag_41:\n        /* \"#utility.yul\":94:118   */\n      tag_43\n        /* \"#utility.yul\":112:117   */\n      dup2\n        /* \"#utility.yul\":94:118   */\n      tag_44\n      jump\t// in\n    tag_43:\n        /* \"#utility.yul\":89:92   */\n      dup3\n        /* \"#utility.yul\":82:119   */\n      mstore\n        /* \"#utility.yul\":7:125   */\n      pop\n      pop\n      jump\t// out\n        /* \"#utility.yul\":131:353   */\n    tag_7:\n        /* \"#utility.yul\":224:228   */\n      0x00\n        /* \"#utility.yul\":262:264   */\n      0x20\n        /* \"#utility.yul\":251:260   */\n      dup3\n        /* \"#utility.yul\":247:265   */\n      add\n        /* \"#utility.yul\":239:265   */\n      swap1\n      pop\n        /* \"#utility.yul\":275:346   */\n      tag_46\n        /* \"#utility.yul\":343:344   */\n      0x00\n        /* \"#utility.yul\":332:341   */\n      dup4\n        /* \"#utility.yul\":328:345   */\n      add\n        /* \"#utility.yul\":319:325   */\n      dup5\n        /* \"#utility.yul\":275:346   */\n      tag_41\n      jump\t// in\n    tag_46:\n        /* \"#utility.yul\":131:353   */\n      swap3\n      swap2\n      pop\n      pop\n      jump\t// out\n        /* \"#utility.yul\":359:664   */\n    tag_19:\n        /* \"#utility.yul\":399:402   */\n      0x00\n        /* \"#utility.yul\":418:438   */\n      tag_48\n        /* \"#utility.yul\":436:437   */\n      dup3\n        /* \"#utility.yul\":418:438   */\n      tag_44\n      jump\t// in\n    tag_48:\n        /* \"#utility.yul\":413:438   */\n      swap2\n      pop\n        /* \"#utility.yul\":452:472   */\n      tag_49\n        /* \"#utility.yul\":470:471   */\n      dup4\n        /* \"#utility.yul\":452:472   */\n      tag_44\n      jump\t// in\n    tag_49:\n        /* \"#utility.yul\":447:472   */\n      swap3\n      pop\n        /* \"#utility.yul\":606:607   */\n      dup3\n        /* \"#utility.yul\":538:604   */\n      0xffffffffffffffffffffffffffffffffffffffffffffffffffffffffffffffff\n        /* \"#utility.yul\":534:608   */\n      sub\n        /* \"#utility.yul\":531:532   */\n      dup3\n        /* \"#utility.yul\":528:609   */\n      gt\n        /* \"#utility.yul\":525:632   */\n      iszero\n      tag_50\n      jumpi\n        /* \"#utility.yul\":612:630   */\n      tag_51\n      tag_52\n      jump\t// in\n    tag_51:\n        /* \"#utility.yul\":525:632   */\n    tag_50:\n        /* \"#utility.yul\":656:657   */\n      dup3\n        /* \"#utility.yul\":653:654   */\n      dup3\n        /* \"#utility.yul\":649:658   */\n      add\n        /* \"#utility.yul\":642:658   */\n      swap1\n      pop\n        /* \"#utility.yul\":359:664   */\n      swap3\n      swap2\n      pop\n      pop\n      jump\t// out\n        /* \"#utility.yul\":670:747   */\n    tag_44:\n        /* \"#utility.yul\":707:714   */\n      0x00\n        /* \"#utility.yul\":736:741   */\n      dup2\n        /* \"#utility.yul\":725:741   */\n      swap1\n      pop\n        /* \"#utility.yul\":670:747   */\n      swap2\n      swap1\n      pop\n      jump\t// out\n        /* \"#utility.yul\":753:986   */\n    tag_32:\n        /* \"#utility.yul\":792:795   */\n      0x00\n        /* \"#utility.yul\":815:839   */\n      tag_55\n        /* \"#utility.yul\":833:838   */\n      dup3\n        /* \"#utility.yul\":815:839   */\n      tag_44\n      jump\t// in\n    tag_55:\n        /* \"#utility.yul\":806:839   */\n      swap2\n      pop\n        /* \"#utility.yul\":861:927   */\n      0xffffffffffffffffffffffffffffffffffffffffffffffffffffffffffffffff\n        /* \"#utility.yul\":854:859   */\n      dup3\n        /* \"#utility.yul\":851:928   */\n      eq\n        /* \"#utility.yul\":848:951   */\n      iszero\n      tag_56\n      jumpi\n        /* \"#utility.yul\":931:949   */\n      tag_57\n      tag_52\n      jump\t// in\n    tag_57:\n        /* \"#utility.yul\":848:951   */\n    tag_56:\n        /* \"#utility.yul\":978:979   */\n      0x01\n        /* \"#utility.yul\":971:976   */\n      dup3\n        /* \"#utility.yul\":967:980   */\n      add\n        /* \"#utility.yul\":960:980   */\n      swap1\n      pop\n        /* \"#utility.yul\":753:986   */\n      swap2\n      swap1\n      pop\n      jump\t// out\n        /* \"#utility.yul\":992:1172   */\n    tag_52:\n        /* \"#utility.yul\":1040:1117   */\n      0x4e487b7100000000000000000000000000000000000000000000000000000000\n        /* \"#utility.yul\":1037:1038   */\n      0x00\n        /* \"#utility.yul\":1030:1118   */\n      mstore\n        /* \"#utility.yul\":1137:1141   */\n      0x11\n        /* \"#utility.yul\":1134:1135   */\n      0x04\n        /* \"#utility.yul\":1127:1142   */\n      mstore\n        /* \"#utility.yul\":1161:1165   */\n      0x24\n        /* \"#utility.yul\":1158:1159   */\n      0x00\n        /* \"#utility.yul\":1151:1166   */\n      revert\n        /* \"#utility.yul\":1178:1358   */\n    tag_28:\n        /* \"#utility.yul\":1226:1303   */\n      0x4e487b7100000000000000000000000000000000000000000000000000000000\n        /* \"#utility.yul\":1223:1224   */\n      0x00\n        /* \"#utility.yul\":1216:1304   */\n      mstore\n        /* \"#utility.yul\":1323:1327   */\n      0x32\n        /* \"#utility.yul\":1320:1321   */\n      0x04\n        /* \"#utility.yul\":1313:1328   */\n      mstore\n        /* \"#utility.yul\":1347:1351   */\n      0x24\n        /* \"#utility.yul\":1344:1345   */\n      0x00\n        /* \"#utility.yul\":1337:1352   */\n      revert\n\n    auxdata: 0xa26469706673582212203c4a35d528eaa35acaaf952ae81f4437e378bb4247972330a73d4a503e8cd00564736f6c63430008070033\n}\n",
				"bytecode": {
					"linkReferences": {},
					"object": "608060405234801561001057600080fd5b50610334806100206000396000f3fe608060405234801561001057600080fd5b506004361061002b5760003560e01c8063853255cc14610030575b600080fd5b61003861004e565b60405161004591906101dc565b60405180910390f35b60008061005b60006100be565b90505b6100728160006100f190919063ffffffff16565b156100ba57600061008d82600061010590919063ffffffff16565b915050808361009c91906101f7565b9250506100b381600061015490919063ffffffff16565b905061005e565b5090565b60006100ea827fffffffffffffffffffffffffffffffffffffffffffffffffffffffffffffffff610154565b9050919050565b600082600101805490508210905092915050565b60008083600101838154811061011e5761011d6102cf565b5b90600052602060002090600202016000015491508360000160008381526020019081526020016000206001015490509250929050565b6000818061016190610257565b9250505b8260010180549050821080156101ac575082600101828154811061018c5761018b6102cf565b5b906000526020600020906002020160010160009054906101000a900460ff165b156101c45781806101bc90610257565b925050610165565b81905092915050565b6101d68161024d565b82525050565b60006020820190506101f160008301846101cd565b92915050565b60006102028261024d565b915061020d8361024d565b9250827fffffffffffffffffffffffffffffffffffffffffffffffffffffffffffffffff03821115610242576102416102a0565b5b828201905092915050565b6000819050919050565b60006102628261024d565b91507fffffffffffffffffffffffffffffffffffffffffffffffffffffffffffffffff821415610295576102946102a0565b5b600182019050919050565b7f4e487b7100000000000000000000000000000000000000000000000000000000600052601160045260246000fd5b7f4e487b7100000000000000000000000000000000000000000000000000000000600052603260045260246000fdfea26469706673582212203c4a35d528eaa35acaaf952ae81f4437e378bb4247972330a73d4a503e8cd00564736f6c63430008070033",
					"opcodes": "PUSH1 0x80 PUSH1 0x40 MSTORE CALLVALUE DUP1 ISZERO PUSH2 0x10 JUMPI PUSH1 0x0 DUP1 REVERT JUMPDEST POP PUSH2 0x334 DUP1 PUSH2 0x20 PUSH1 0x0 CODECOPY PUSH1 0x0 RETURN INVALID PUSH1 0x80 PUSH1 0x40 MSTORE CALLVALUE DUP1 ISZERO PUSH2 0x10 JUMPI PUSH1 0x0 DUP1 REVERT JUMPDEST POP PUSH1 0x4 CALLDATASIZE LT PUSH2 0x2B JUMPI PUSH1 0x0 CALLDATALOAD PUSH1 0xE0 SHR DUP1 PUSH4 0x853255CC EQ PUSH2 0x30 JUMPI JUMPDEST PUSH1 0x0 DUP1 REVERT JUMPDEST PUSH2 0x38 PUSH2 0x4E JUMP JUMPDEST PUSH1 0x40 MLOAD PUSH2 0x45 SWAP2 SWAP1 PUSH2 0x1DC JUMP JUMPDEST PUSH1 0x40 MLOAD DUP1 SWAP2 SUB SWAP1 RETURN JUMPDEST PUSH1 0x0 DUP1 PUSH2 0x5B PUSH1 0x0 PUSH2 0xBE JUMP JUMPDEST SWAP1 POP JUMPDEST PUSH2 0x72 DUP2 PUSH1 0x0 PUSH2 0xF1 SWAP1 SWAP2 SWAP1 PUSH4 0xFFFFFFFF AND JUMP JUMPDEST ISZERO PUSH2 0xBA JUMPI PUSH1 0x0 PUSH2 0x8D DUP3 PUSH1 0x0 PUSH2 0x105 SWAP1 SWAP2 SWAP1 PUSH4 0xFFFFFFFF AND JUMP JUMPDEST SWAP2 POP POP DUP1 DUP4 PUSH2 0x9C SWAP2 SWAP1 PUSH2 0x1F7 JUMP JUMPDEST SWAP3 POP POP PUSH2 0xB3 DUP2 PUSH1 0x0 PUSH2 0x154 SWAP1 SWAP2 SWAP1 PUSH4 0xFFFFFFFF AND JUMP JUMPDEST SWAP1 POP PUSH2 0x5E JUMP JUMPDEST POP SWAP1 JUMP JUMPDEST PUSH1 0x0 PUSH2 0xEA DUP3 PUSH32 0xFFFFFFFFFFFFFFFFFFFFFFFFFFFFFFFFFFFFFFFFFFFFFFFFFFFFFFFFFFFFFFFF PUSH2 0x154 JUMP JUMPDEST SWAP1 POP SWAP2 SWAP1 POP JUMP JUMPDEST PUSH1 0x0 DUP3 PUSH1 0x1 ADD DUP1 SLOAD SWAP1 POP DUP3 LT SWAP1 POP SWAP3 SWAP2 POP POP JUMP JUMPDEST PUSH1 0x0 DUP1 DUP4 PUSH1 0x1 ADD DUP4 DUP2 SLOAD DUP2 LT PUSH2 0x11E JUMPI PUSH2 0x11D PUSH2 0x2CF JUMP JUMPDEST JUMPDEST SWAP1 PUSH1 0x0 MSTORE PUSH1 0x20 PUSH1 0x0 KECCAK256 SWAP1 PUSH1 0x2 MUL ADD PUSH1 0x0 ADD SLOAD SWAP2 POP DUP4 PUSH1 0x0 ADD PUSH1 0x0 DUP4 DUP2 MSTORE PUSH1 0x20 ADD SWAP1 DUP2 MSTORE PUSH1 0x20 ADD PUSH1 0x0 KECCAK256 PUSH1 0x1 ADD SLOAD SWAP1 POP SWAP3 POP SWAP3 SWAP1 POP JUMP JUMPDEST PUSH1 0x0 DUP2 DUP1 PUSH2 0x161 SWAP1 PUSH2 0x257 JUMP JUMPDEST SWAP3 POP POP JUMPDEST DUP3 PUSH1 0x1 ADD DUP1 SLOAD SWAP1 POP DUP3 LT DUP1 ISZERO PUSH2 0x1AC JUMPI POP DUP3 PUSH1 0x1 ADD DUP3 DUP2 SLOAD DUP2 LT PUSH2 0x18C JUMPI PUSH2 0x18B PUSH2 0x2CF JUMP JUMPDEST JUMPDEST SWAP1 PUSH1 0x0 MSTORE PUSH1 0x20 PUSH1 0x0 KECCAK256 SWAP1 PUSH1 0x2 MUL ADD PUSH1 0x1 ADD PUSH1 0x0 SWAP1 SLOAD SWAP1 PUSH2 0x100 EXP SWAP1 DIV PUSH1 0xFF AND JUMPDEST ISZERO PUSH2 0x1C4 JUMPI DUP2 DUP1 PUSH2 0x1BC SWAP1 PUSH2 0x257 JUMP JUMPDEST SWAP3 POP POP PUSH2 0x165 JUMP JUMPDEST DUP2 SWAP1 POP SWAP3 SWAP2 POP POP JUMP JUMPDEST PUSH2 0x1D6 DUP2 PUSH2 0x24D JUMP JUMPDEST DUP3 MSTORE POP POP JUMP JUMPDEST PUSH1 0x0 PUSH1 0x20 DUP3 ADD SWAP1 POP PUSH2 0x1F1 PUSH1 0x0 DUP4 ADD DUP5 PUSH2 0x1CD JUMP JUMPDEST SWAP3 SWAP2 POP POP JUMP JUMPDEST PUSH1 0x0 PUSH2 0x202 DUP3 PUSH2 0x24D JUMP JUMPDEST SWAP2 POP PUSH2 0x20D DUP4 PUSH2 0x24D JUMP JUMPDEST SWAP3 POP DUP3 PUSH32 0xFFFFFFFFFFFFFFFFFFFFFFFFFFFFFFFFFFFFFFFFFFFFFFFFFFFFFFFFFFFFFFFF SUB DUP3 GT ISZERO PUSH2 0x242 JUMPI PUSH2 0x241 PUSH2 0x2A0 JUMP JUMPDEST JUMPDEST DUP3 DUP3 ADD SWAP1 POP SWAP3 SWAP2 POP POP JUMP JUMPDEST PUSH1 0x0 DUP2 SWAP1 POP SWAP2 SWAP1 POP JUMP JUMPDEST PUSH1 0x0 PUSH2 0x262 DUP3 PUSH2 0x24D JUMP JUMPDEST SWAP2 POP PUSH32 0xFFFFFFFFFFFFFFFFFFFFFFFFFFFFFFFFFFFFFFFFFFFFFFFFFFFFFFFFFFFFFFFF DUP3 EQ ISZERO PUSH2 0x295 JUMPI PUSH2 0x294 PUSH2 0x2A0 JUMP JUMPDEST JUMPDEST PUSH1 0x1 DUP3 ADD SWAP1 POP SWAP2 SWAP1 POP JUMP JUMPDEST PUSH32 0x4E487B7100000000000000000000000000000000000000000000000000000000 PUSH1 0x0 MSTORE PUSH1 0x11 PUSH1 0x4 MSTORE PUSH1 0x24 PUSH1 0x0 REVERT JUMPDEST PUSH32 0x4E487B7100000000000000000000000000000000000000000000000000000000 PUSH1 0x0 MSTORE PUSH1 0x32 PUSH1 0x4 MSTORE PUSH1 0x24 PUSH1 0x0 REVERT INVALID LOG2 PUSH5 0x6970667358 0x22 SLT KECCAK256 EXTCODECOPY 0x4A CALLDATALOAD 0xD5 0x28 0xEA LOG3 GAS 0xCA 0xAF SWAP6 0x2A 0xE8 0x1F DIFFICULTY CALLDATACOPY 0xE3 PUSH25 0xBB4247972330A73D4A503E8CD00564736F6C63430008070033 "
				},
				"gasEstimates": {
					"creation": {
						"codeDepositCost": "164000",
						"executionCost": "208",
						"totalCost": "164208"
					},
					"external": {
						"sum()": "306"
					}
				},
				"methodIdentifiers": {
					"sum()": "853255cc"
				}
			},
			"storageLayout": {
				"storage": [
					{
						"astId": 265,
						"contract": "study/chapter09/omplexMappig.sol:User",
						"label": "data",
						"offset": 0,
						"slot": "0",
						"type": "t_struct(itmap)23_storage"
					}
				],
				"types": {
					"t_array(t_struct(KeyFlag)11_storage)dyn_storage": {
						"base": "t_struct(KeyFlag)11_storage",
						"encoding": "dynamic_array",
						"label": "struct KeyFlag[]",
						"numberOfBytes": "32"
					},
					"t_bool": {
						"encoding": "inplace",
						"label": "bool",
						"numberOfBytes": "1"
					},
					"t_mapping(t_uint256,t_struct(IndexValue)6_storage)": {
						"encoding": "mapping",
						"key": "t_uint256",
						"label": "mapping(uint256 => struct IndexValue)",
						"numberOfBytes": "32",
						"value": "t_struct(IndexValue)6_storage"
					},
					"t_struct(IndexValue)6_storage": {
						"encoding": "inplace",
						"label": "struct IndexValue",
						"members": [
							{
								"astId": 3,
								"contract": "study/chapter09/omplexMappig.sol:User",
								"label": "keyIndex",
								"offset": 0,
								"slot": "0",
								"type": "t_uint256"
							},
							{
								"astId": 5,
								"contract": "study/chapter09/omplexMappig.sol:User",
								"label": "value",
								"offset": 0,
								"slot": "1",
								"type": "t_uint256"
							}
						],
						"numberOfBytes": "64"
					},
					"t_struct(KeyFlag)11_storage": {
						"encoding": "inplace",
						"label": "struct KeyFlag",
						"members": [
							{
								"astId": 8,
								"contract": "study/chapter09/omplexMappig.sol:User",
								"label": "key",
								"offset": 0,
								"slot": "0",
								"type": "t_uint256"
							},
							{
								"astId": 10,
								"contract": "study/chapter09/omplexMappig.sol:User",
								"label": "deleted",
								"offset": 0,
								"slot": "1",
								"type": "t_bool"
							}
						],
						"numberOfBytes": "64"
					},
					"t_struct(itmap)23_storage": {
						"encoding": "inplace",
						"label": "struct itmap",
						"members": [
							{
								"astId": 16,
								"contract": "study/chapter09/omplexMappig.sol:User",
								"label": "data",
								"offset": 0,
								"slot": "0",
								"type": "t_mapping(t_uint256,t_struct(IndexValue)6_storage)"
							},
							{
								"astId": 20,
								"contract": "study/chapter09/omplexMappig.sol:User",
								"label": "keys",
								"offset": 0,
								"slot": "1",
								"type": "t_array(t_struct(KeyFlag)11_storage)dyn_storage"
							},
							{
								"astId": 22,
								"contract": "study/chapter09/omplexMappig.sol:User",
								"label": "size",
								"offset": 0,
								"slot": "2",
								"type": "t_uint256"
							}
						],
						"numberOfBytes": "96"
					},
					"t_uint256": {
						"encoding": "inplace",
						"label": "uint256",
						"numberOfBytes": "32"
					}
				}
			},
			"userdoc": {
				"kind": "user",
				"methods": {},
				"version": 1
			}
		}
	}
}