{
	"study/chapter11/selfDestruct.sol": {
		"Kill": {
			"abi": [
				{
					"inputs": [],
					"stateMutability": "payable",
					"type": "constructor"
				},
				{
					"inputs": [],
					"name": "disable",
					"outputs": [
						{
							"internalType": "bool",
							"name": "",
							"type": "bool"
						}
					],
					"stateMutability": "view",
					"type": "function"
				},
				{
					"inputs": [],
					"name": "kill",
					"outputs": [],
					"stateMutability": "nonpayable",
					"type": "function"
				},
				{
					"inputs": [],
					"name": "test",
					"outputs": [
						{
							"internalType": "uint256",
							"name": "",
							"type": "uint256"
						}
					],
					"stateMutability": "view",
					"type": "function"
				}
			],
			"devdoc": {
				"kind": "dev",
				"methods": {},
				"version": 1
			},
			"evm": {
				"assembly": "    /* \"study/chapter11/selfDestruct.sol\":56:509  contract Kill{... */\n  mstore(0x40, 0x80)\n  dataSize(sub_0)\n  dup1\n  dataOffset(sub_0)\n  0x00\n  codecopy\n  0x00\n  return\nstop\n\nsub_0: assembly {\n        /* \"study/chapter11/selfDestruct.sol\":56:509  contract Kill{... */\n      mstore(0x40, 0x80)\n      callvalue\n      dup1\n      iszero\n      tag_1\n      jumpi\n      0x00\n      dup1\n      revert\n    tag_1:\n      pop\n      jumpi(tag_2, lt(calldatasize, 0x04))\n      shr(0xe0, calldataload(0x00))\n      dup1\n      0x2f2770db\n      eq\n      tag_3\n      jumpi\n      dup1\n      0x41c0e1b5\n      eq\n      tag_4\n      jumpi\n      dup1\n      0xf8a8fd6d\n      eq\n      tag_5\n      jumpi\n    tag_2:\n      0x00\n      dup1\n      revert\n        /* \"study/chapter11/selfDestruct.sol\":75:94  bool public disable */\n    tag_3:\n      tag_6\n      tag_7\n      jump\t// in\n    tag_6:\n      mload(0x40)\n      tag_8\n      swap2\n      swap1\n      tag_9\n      jump\t// in\n    tag_8:\n      mload(0x40)\n      dup1\n      swap2\n      sub\n      swap1\n      return\n        /* \"study/chapter11/selfDestruct.sol\":218:424  function kill()external Disable{... */\n    tag_4:\n      tag_10\n      tag_11\n      jump\t// in\n    tag_10:\n      stop\n        /* \"study/chapter11/selfDestruct.sol\":430:507  function test()external view Disable returns(uint){... */\n    tag_5:\n      tag_12\n      tag_13\n      jump\t// in\n    tag_12:\n      mload(0x40)\n      tag_14\n      swap2\n      swap1\n      tag_15\n      jump\t// in\n    tag_14:\n      mload(0x40)\n      dup1\n      swap2\n      sub\n      swap1\n      return\n        /* \"study/chapter11/selfDestruct.sol\":75:94  bool public disable */\n    tag_7:\n      0x00\n      dup1\n      sload\n      swap1\n      0x0100\n      exp\n      swap1\n      div\n      0xff\n      and\n      dup2\n      jump\t// out\n        /* \"study/chapter11/selfDestruct.sol\":218:424  function kill()external Disable{... */\n    tag_11:\n        /* \"study/chapter11/selfDestruct.sol\":170:177  disable */\n      0x00\n      dup1\n      sload\n      swap1\n      0x0100\n      exp\n      swap1\n      div\n      0xff\n      and\n        /* \"study/chapter11/selfDestruct.sol\":169:177  !disable */\n      iszero\n        /* \"study/chapter11/selfDestruct.sol\":161:194  require(!disable,\"Already annul\") */\n      tag_17\n      jumpi\n      mload(0x40)\n      0x08c379a000000000000000000000000000000000000000000000000000000000\n      dup2\n      mstore\n      0x04\n      add\n      tag_18\n      swap1\n      tag_19\n      jump\t// in\n    tag_18:\n      mload(0x40)\n      dup1\n      swap2\n      sub\n      swap1\n      revert\n    tag_17:\n        /* \"study/chapter11/selfDestruct.sol\":269:273  true */\n      0x01\n        /* \"study/chapter11/selfDestruct.sol\":259:266  disable */\n      0x00\n      dup1\n        /* \"study/chapter11/selfDestruct.sol\":259:273  disable = true */\n      0x0100\n      exp\n      dup2\n      sload\n      dup2\n      0xff\n      mul\n      not\n      and\n      swap1\n      dup4\n      iszero\n      iszero\n      mul\n      or\n      swap1\n      sstore\n      pop\n        /* \"study/chapter11/selfDestruct.sol\":405:415  msg.sender */\n      caller\n        /* \"study/chapter11/selfDestruct.sol\":384:417  selfdestruct(payable(msg.sender)) */\n      0xffffffffffffffffffffffffffffffffffffffff\n      and\n      selfdestruct\n        /* \"study/chapter11/selfDestruct.sol\":430:507  function test()external view Disable returns(uint){... */\n    tag_13:\n        /* \"study/chapter11/selfDestruct.sol\":475:479  uint */\n      0x00\n        /* \"study/chapter11/selfDestruct.sol\":170:177  disable */\n      dup1\n      0x00\n      swap1\n      sload\n      swap1\n      0x0100\n      exp\n      swap1\n      div\n      0xff\n      and\n        /* \"study/chapter11/selfDestruct.sol\":169:177  !disable */\n      iszero\n        /* \"study/chapter11/selfDestruct.sol\":161:194  require(!disable,\"Already annul\") */\n      tag_22\n      jumpi\n      mload(0x40)\n      0x08c379a000000000000000000000000000000000000000000000000000000000\n      dup2\n      mstore\n      0x04\n      add\n      tag_23\n      swap1\n      tag_19\n      jump\t// in\n    tag_23:\n      mload(0x40)\n      dup1\n      swap2\n      sub\n      swap1\n      revert\n    tag_22:\n        /* \"study/chapter11/selfDestruct.sol\":497:500  123 */\n      0x7b\n        /* \"study/chapter11/selfDestruct.sol\":490:500  return 123 */\n      swap1\n      pop\n        /* \"study/chapter11/selfDestruct.sol\":430:507  function test()external view Disable returns(uint){... */\n      swap1\n      jump\t// out\n        /* \"#utility.yul\":7:97   */\n    tag_25:\n        /* \"#utility.yul\":41:48   */\n      0x00\n        /* \"#utility.yul\":84:89   */\n      dup2\n        /* \"#utility.yul\":77:90   */\n      iszero\n        /* \"#utility.yul\":70:91   */\n      iszero\n        /* \"#utility.yul\":59:91   */\n      swap1\n      pop\n        /* \"#utility.yul\":7:97   */\n      swap2\n      swap1\n      pop\n      jump\t// out\n        /* \"#utility.yul\":103:212   */\n    tag_26:\n        /* \"#utility.yul\":184:205   */\n      tag_35\n        /* \"#utility.yul\":199:204   */\n      dup2\n        /* \"#utility.yul\":184:205   */\n      tag_25\n      jump\t// in\n    tag_35:\n        /* \"#utility.yul\":179:182   */\n      dup3\n        /* \"#utility.yul\":172:206   */\n      mstore\n        /* \"#utility.yul\":103:212   */\n      pop\n      pop\n      jump\t// out\n        /* \"#utility.yul\":218:428   */\n    tag_9:\n        /* \"#utility.yul\":305:309   */\n      0x00\n        /* \"#utility.yul\":343:345   */\n      0x20\n        /* \"#utility.yul\":332:341   */\n      dup3\n        /* \"#utility.yul\":328:346   */\n      add\n        /* \"#utility.yul\":320:346   */\n      swap1\n      pop\n        /* \"#utility.yul\":356:421   */\n      tag_37\n        /* \"#utility.yul\":418:419   */\n      0x00\n        /* \"#utility.yul\":407:416   */\n      dup4\n        /* \"#utility.yul\":403:420   */\n      add\n        /* \"#utility.yul\":394:400   */\n      dup5\n        /* \"#utility.yul\":356:421   */\n      tag_26\n      jump\t// in\n    tag_37:\n        /* \"#utility.yul\":218:428   */\n      swap3\n      swap2\n      pop\n      pop\n      jump\t// out\n        /* \"#utility.yul\":434:511   */\n    tag_27:\n        /* \"#utility.yul\":471:478   */\n      0x00\n        /* \"#utility.yul\":500:505   */\n      dup2\n        /* \"#utility.yul\":489:505   */\n      swap1\n      pop\n        /* \"#utility.yul\":434:511   */\n      swap2\n      swap1\n      pop\n      jump\t// out\n        /* \"#utility.yul\":517:635   */\n    tag_28:\n        /* \"#utility.yul\":604:628   */\n      tag_40\n        /* \"#utility.yul\":622:627   */\n      dup2\n        /* \"#utility.yul\":604:628   */\n      tag_27\n      jump\t// in\n    tag_40:\n        /* \"#utility.yul\":599:602   */\n      dup3\n        /* \"#utility.yul\":592:629   */\n      mstore\n        /* \"#utility.yul\":517:635   */\n      pop\n      pop\n      jump\t// out\n        /* \"#utility.yul\":641:863   */\n    tag_15:\n        /* \"#utility.yul\":734:738   */\n      0x00\n        /* \"#utility.yul\":772:774   */\n      0x20\n        /* \"#utility.yul\":761:770   */\n      dup3\n        /* \"#utility.yul\":757:775   */\n      add\n        /* \"#utility.yul\":749:775   */\n      swap1\n      pop\n        /* \"#utility.yul\":785:856   */\n      tag_42\n        /* \"#utility.yul\":853:854   */\n      0x00\n        /* \"#utility.yul\":842:851   */\n      dup4\n        /* \"#utility.yul\":838:855   */\n      add\n        /* \"#utility.yul\":829:835   */\n      dup5\n        /* \"#utility.yul\":785:856   */\n      tag_28\n      jump\t// in\n    tag_42:\n        /* \"#utility.yul\":641:863   */\n      swap3\n      swap2\n      pop\n      pop\n      jump\t// out\n        /* \"#utility.yul\":869:1038   */\n    tag_29:\n        /* \"#utility.yul\":953:964   */\n      0x00\n        /* \"#utility.yul\":987:993   */\n      dup3\n        /* \"#utility.yul\":982:985   */\n      dup3\n        /* \"#utility.yul\":975:994   */\n      mstore\n        /* \"#utility.yul\":1027:1031   */\n      0x20\n        /* \"#utility.yul\":1022:1025   */\n      dup3\n        /* \"#utility.yul\":1018:1032   */\n      add\n        /* \"#utility.yul\":1003:1032   */\n      swap1\n      pop\n        /* \"#utility.yul\":869:1038   */\n      swap3\n      swap2\n      pop\n      pop\n      jump\t// out\n        /* \"#utility.yul\":1044:1207   */\n    tag_30:\n        /* \"#utility.yul\":1184:1199   */\n      0x416c726561647920616e6e756c00000000000000000000000000000000000000\n        /* \"#utility.yul\":1180:1181   */\n      0x00\n        /* \"#utility.yul\":1172:1178   */\n      dup3\n        /* \"#utility.yul\":1168:1182   */\n      add\n        /* \"#utility.yul\":1161:1200   */\n      mstore\n        /* \"#utility.yul\":1044:1207   */\n      pop\n      jump\t// out\n        /* \"#utility.yul\":1213:1579   */\n    tag_31:\n        /* \"#utility.yul\":1355:1358   */\n      0x00\n        /* \"#utility.yul\":1376:1443   */\n      tag_46\n        /* \"#utility.yul\":1440:1442   */\n      0x0d\n        /* \"#utility.yul\":1435:1438   */\n      dup4\n        /* \"#utility.yul\":1376:1443   */\n      tag_29\n      jump\t// in\n    tag_46:\n        /* \"#utility.yul\":1369:1443   */\n      swap2\n      pop\n        /* \"#utility.yul\":1452:1545   */\n      tag_47\n        /* \"#utility.yul\":1541:1544   */\n      dup3\n        /* \"#utility.yul\":1452:1545   */\n      tag_30\n      jump\t// in\n    tag_47:\n        /* \"#utility.yul\":1570:1572   */\n      0x20\n        /* \"#utility.yul\":1565:1568   */\n      dup3\n        /* \"#utility.yul\":1561:1573   */\n      add\n        /* \"#utility.yul\":1554:1573   */\n      swap1\n      pop\n        /* \"#utility.yul\":1213:1579   */\n      swap2\n      swap1\n      pop\n      jump\t// out\n        /* \"#utility.yul\":1585:2004   */\n    tag_19:\n        /* \"#utility.yul\":1751:1755   */\n      0x00\n        /* \"#utility.yul\":1789:1791   */\n      0x20\n        /* \"#utility.yul\":1778:1787   */\n      dup3\n        /* \"#utility.yul\":1774:1792   */\n      add\n        /* \"#utility.yul\":1766:1792   */\n      swap1\n      pop\n        /* \"#utility.yul\":1838:1847   */\n      dup2\n        /* \"#utility.yul\":1832:1836   */\n      dup2\n        /* \"#utility.yul\":1828:1848   */\n      sub\n        /* \"#utility.yul\":1824:1825   */\n      0x00\n        /* \"#utility.yul\":1813:1822   */\n      dup4\n        /* \"#utility.yul\":1809:1826   */\n      add\n        /* \"#utility.yul\":1802:1849   */\n      mstore\n        /* \"#utility.yul\":1866:1997   */\n      tag_49\n        /* \"#utility.yul\":1992:1996   */\n      dup2\n        /* \"#utility.yul\":1866:1997   */\n      tag_31\n      jump\t// in\n    tag_49:\n        /* \"#utility.yul\":1858:1997   */\n      swap1\n      pop\n        /* \"#utility.yul\":1585:2004   */\n      swap2\n      swap1\n      pop\n      jump\t// out\n\n    auxdata: 0xa26469706673582212203000e9123d731d9627137386b4ad13cccdc1b557635d5ae3588302534a3fbf2b64736f6c634300080f0033\n}\n",
				"bytecode": {
					"linkReferences": {},
					"object": "6080604052610293806100136000396000f3fe608060405234801561001057600080fd5b50600436106100415760003560e01c80632f2770db1461004657806341c0e1b514610064578063f8a8fd6d1461006e575b600080fd5b61004e61008c565b60405161005b9190610191565b60405180910390f35b61006c61009d565b005b61007661011e565b60405161008391906101c5565b60405180910390f35b60008054906101000a900460ff1681565b60008054906101000a900460ff16156100eb576040517f08c379a00000000000000000000000000000000000000000000000000000000081526004016100e29061023d565b60405180910390fd5b60016000806101000a81548160ff0219169083151502179055503373ffffffffffffffffffffffffffffffffffffffff16ff5b60008060009054906101000a900460ff161561016f576040517f08c379a00000000000000000000000000000000000000000000000000000000081526004016101669061023d565b60405180910390fd5b607b905090565b60008115159050919050565b61018b81610176565b82525050565b60006020820190506101a66000830184610182565b92915050565b6000819050919050565b6101bf816101ac565b82525050565b60006020820190506101da60008301846101b6565b92915050565b600082825260208201905092915050565b7f416c726561647920616e6e756c00000000000000000000000000000000000000600082015250565b6000610227600d836101e0565b9150610232826101f1565b602082019050919050565b600060208201905081810360008301526102568161021a565b905091905056fea26469706673582212203000e9123d731d9627137386b4ad13cccdc1b557635d5ae3588302534a3fbf2b64736f6c634300080f0033",
					"opcodes": "PUSH1 0x80 PUSH1 0x40 MSTORE PUSH2 0x293 DUP1 PUSH2 0x13 PUSH1 0x0 CODECOPY PUSH1 0x0 RETURN INVALID PUSH1 0x80 PUSH1 0x40 MSTORE CALLVALUE DUP1 ISZERO PUSH2 0x10 JUMPI PUSH1 0x0 DUP1 REVERT JUMPDEST POP PUSH1 0x4 CALLDATASIZE LT PUSH2 0x41 JUMPI PUSH1 0x0 CALLDATALOAD PUSH1 0xE0 SHR DUP1 PUSH4 0x2F2770DB EQ PUSH2 0x46 JUMPI DUP1 PUSH4 0x41C0E1B5 EQ PUSH2 0x64 JUMPI DUP1 PUSH4 0xF8A8FD6D EQ PUSH2 0x6E JUMPI JUMPDEST PUSH1 0x0 DUP1 REVERT JUMPDEST PUSH2 0x4E PUSH2 0x8C JUMP JUMPDEST PUSH1 0x40 MLOAD PUSH2 0x5B SWAP2 SWAP1 PUSH2 0x191 JUMP JUMPDEST PUSH1 0x40 MLOAD DUP1 SWAP2 SUB SWAP1 RETURN JUMPDEST PUSH2 0x6C PUSH2 0x9D JUMP JUMPDEST STOP JUMPDEST PUSH2 0x76 PUSH2 0x11E JUMP JUMPDEST PUSH1 0x40 MLOAD PUSH2 0x83 SWAP2 SWAP1 PUSH2 0x1C5 JUMP JUMPDEST PUSH1 0x40 MLOAD DUP1 SWAP2 SUB SWAP1 RETURN JUMPDEST PUSH1 0x0 DUP1 SLOAD SWAP1 PUSH2 0x100 EXP SWAP1 DIV PUSH1 0xFF AND DUP2 JUMP JUMPDEST PUSH1 0x0 DUP1 SLOAD SWAP1 PUSH2 0x100 EXP SWAP1 DIV PUSH1 0xFF AND ISZERO PUSH2 0xEB JUMPI PUSH1 0x40 MLOAD PUSH32 0x8C379A000000000000000000000000000000000000000000000000000000000 DUP2 MSTORE PUSH1 0x4 ADD PUSH2 0xE2 SWAP1 PUSH2 0x23D JUMP JUMPDEST PUSH1 0x40 MLOAD DUP1 SWAP2 SUB SWAP1 REVERT JUMPDEST PUSH1 0x1 PUSH1 0x0 DUP1 PUSH2 0x100 EXP DUP2 SLOAD DUP2 PUSH1 0xFF MUL NOT AND SWAP1 DUP4 ISZERO ISZERO MUL OR SWAP1 SSTORE POP CALLER PUSH20 0xFFFFFFFFFFFFFFFFFFFFFFFFFFFFFFFFFFFFFFFF AND SELFDESTRUCT JUMPDEST PUSH1 0x0 DUP1 PUSH1 0x0 SWAP1 SLOAD SWAP1 PUSH2 0x100 EXP SWAP1 DIV PUSH1 0xFF AND ISZERO PUSH2 0x16F JUMPI PUSH1 0x40 MLOAD PUSH32 0x8C379A000000000000000000000000000000000000000000000000000000000 DUP2 MSTORE PUSH1 0x4 ADD PUSH2 0x166 SWAP1 PUSH2 0x23D JUMP JUMPDEST PUSH1 0x40 MLOAD DUP1 SWAP2 SUB SWAP1 REVERT JUMPDEST PUSH1 0x7B SWAP1 POP SWAP1 JUMP JUMPDEST PUSH1 0x0 DUP2 ISZERO ISZERO SWAP1 POP SWAP2 SWAP1 POP JUMP JUMPDEST PUSH2 0x18B DUP2 PUSH2 0x176 JUMP JUMPDEST DUP3 MSTORE POP POP JUMP JUMPDEST PUSH1 0x0 PUSH1 0x20 DUP3 ADD SWAP1 POP PUSH2 0x1A6 PUSH1 0x0 DUP4 ADD DUP5 PUSH2 0x182 JUMP JUMPDEST SWAP3 SWAP2 POP POP JUMP JUMPDEST PUSH1 0x0 DUP2 SWAP1 POP SWAP2 SWAP1 POP JUMP JUMPDEST PUSH2 0x1BF DUP2 PUSH2 0x1AC JUMP JUMPDEST DUP3 MSTORE POP POP JUMP JUMPDEST PUSH1 0x0 PUSH1 0x20 DUP3 ADD SWAP1 POP PUSH2 0x1DA PUSH1 0x0 DUP4 ADD DUP5 PUSH2 0x1B6 JUMP JUMPDEST SWAP3 SWAP2 POP POP JUMP JUMPDEST PUSH1 0x0 DUP3 DUP3 MSTORE PUSH1 0x20 DUP3 ADD SWAP1 POP SWAP3 SWAP2 POP POP JUMP JUMPDEST PUSH32 0x416C726561647920616E6E756C00000000000000000000000000000000000000 PUSH1 0x0 DUP3 ADD MSTORE POP JUMP JUMPDEST PUSH1 0x0 PUSH2 0x227 PUSH1 0xD DUP4 PUSH2 0x1E0 JUMP JUMPDEST SWAP2 POP PUSH2 0x232 DUP3 PUSH2 0x1F1 JUMP JUMPDEST PUSH1 0x20 DUP3 ADD SWAP1 POP SWAP2 SWAP1 POP JUMP JUMPDEST PUSH1 0x0 PUSH1 0x20 DUP3 ADD SWAP1 POP DUP2 DUP2 SUB PUSH1 0x0 DUP4 ADD MSTORE PUSH2 0x256 DUP2 PUSH2 0x21A JUMP JUMPDEST SWAP1 POP SWAP2 SWAP1 POP JUMP INVALID LOG2 PUSH5 0x6970667358 0x22 SLT KECCAK256 ADDRESS STOP 0xE9 SLT RETURNDATASIZE PUSH20 0x1D9627137386B4AD13CCCDC1B557635D5AE35883 MUL MSTORE8 0x4A EXTCODEHASH 0xBF 0x2B PUSH5 0x736F6C6343 STOP ADDMOD 0xF STOP CALLER "
				},
				"gasEstimates": {
					"creation": {
						"codeDepositCost": "131800",
						"executionCost": "153",
						"totalCost": "131953"
					},
					"external": {
						"disable()": "2446",
						"kill()": "54163",
						"test()": "2614"
					}
				},
				"methodIdentifiers": {
					"disable()": "2f2770db",
					"kill()": "41c0e1b5",
					"test()": "f8a8fd6d"
				}
			},
			"storageLayout": {
				"storage": [
					{
						"astId": 3,
						"contract": "study/chapter11/selfDestruct.sol:Kill",
						"label": "disable",
						"offset": 0,
						"slot": "0",
						"type": "t_bool"
					}
				],
				"types": {
					"t_bool": {
						"encoding": "inplace",
						"label": "bool",
						"numberOfBytes": "1"
					}
				}
			},
			"userdoc": {
				"kind": "user",
				"methods": {},
				"version": 1
			}
		}
	}
}