{
	"study/chapter11/selfDestruct.sol": {
		"Kill": {
			"abi": [
				{
					"inputs": [],
					"stateMutability": "payable",
					"type": "constructor"
				},
				{
					"inputs": [],
					"name": "kill",
					"outputs": [],
					"stateMutability": "nonpayable",
					"type": "function"
				},
				{
					"inputs": [],
					"name": "test",
					"outputs": [
						{
							"internalType": "uint256",
							"name": "",
							"type": "uint256"
						}
					],
					"stateMutability": "pure",
					"type": "function"
				}
			],
			"devdoc": {
				"kind": "dev",
				"methods": {},
				"version": 1
			},
			"evm": {
				"assembly": "    /* \"study/chapter11/selfDestruct.sol\":56:502  contract Kill{... */\n  mstore(0x40, 0x80)\n  dataSize(sub_0)\n  dup1\n  dataOffset(sub_0)\n  0x00\n  codecopy\n  0x00\n  return\nstop\n\nsub_0: assembly {\n        /* \"study/chapter11/selfDestruct.sol\":56:502  contract Kill{... */\n      mstore(0x40, 0x80)\n      callvalue\n      dup1\n      iszero\n      tag_1\n      jumpi\n      0x00\n      dup1\n      revert\n    tag_1:\n      pop\n      jumpi(tag_2, lt(calldatasize, 0x04))\n      shr(0xe0, calldataload(0x00))\n      dup1\n      0x41c0e1b5\n      eq\n      tag_3\n      jumpi\n      dup1\n      0xf8a8fd6d\n      eq\n      tag_4\n      jumpi\n    tag_2:\n      0x00\n      dup1\n      revert\n        /* \"study/chapter11/selfDestruct.sol\":219:425  function kill()external Disable{... */\n    tag_3:\n      tag_5\n      tag_6\n      jump\t// in\n    tag_5:\n      stop\n        /* \"study/chapter11/selfDestruct.sol\":431:500  function test()external pure returns(uint){... */\n    tag_4:\n      tag_7\n      tag_8\n      jump\t// in\n    tag_7:\n      mload(0x40)\n      tag_9\n      swap2\n      swap1\n      tag_10\n      jump\t// in\n    tag_9:\n      mload(0x40)\n      dup1\n      swap2\n      sub\n      swap1\n      return\n        /* \"study/chapter11/selfDestruct.sol\":219:425  function kill()external Disable{... */\n    tag_6:\n        /* \"study/chapter11/selfDestruct.sol\":171:178  disable */\n      0x00\n      dup1\n      sload\n      swap1\n      0x0100\n      exp\n      swap1\n      div\n      0xff\n      and\n        /* \"study/chapter11/selfDestruct.sol\":170:178  !disable */\n      iszero\n        /* \"study/chapter11/selfDestruct.sol\":162:195  require(!disable,\"Already annul\") */\n      tag_12\n      jumpi\n      mload(0x40)\n      0x08c379a000000000000000000000000000000000000000000000000000000000\n      dup2\n      mstore\n      0x04\n      add\n      tag_13\n      swap1\n      tag_14\n      jump\t// in\n    tag_13:\n      mload(0x40)\n      dup1\n      swap2\n      sub\n      swap1\n      revert\n    tag_12:\n        /* \"study/chapter11/selfDestruct.sol\":270:274  true */\n      0x01\n        /* \"study/chapter11/selfDestruct.sol\":260:267  disable */\n      0x00\n      dup1\n        /* \"study/chapter11/selfDestruct.sol\":260:274  disable = true */\n      0x0100\n      exp\n      dup2\n      sload\n      dup2\n      0xff\n      mul\n      not\n      and\n      swap1\n      dup4\n      iszero\n      iszero\n      mul\n      or\n      swap1\n      sstore\n      pop\n        /* \"study/chapter11/selfDestruct.sol\":406:416  msg.sender */\n      caller\n        /* \"study/chapter11/selfDestruct.sol\":385:418  selfdestruct(payable(msg.sender)) */\n      0xffffffffffffffffffffffffffffffffffffffff\n      and\n      selfdestruct\n        /* \"study/chapter11/selfDestruct.sol\":431:500  function test()external pure returns(uint){... */\n    tag_8:\n        /* \"study/chapter11/selfDestruct.sol\":468:472  uint */\n      0x00\n        /* \"study/chapter11/selfDestruct.sol\":490:493  123 */\n      0x7b\n        /* \"study/chapter11/selfDestruct.sol\":483:493  return 123 */\n      swap1\n      pop\n        /* \"study/chapter11/selfDestruct.sol\":431:500  function test()external pure returns(uint){... */\n      swap1\n      jump\t// out\n        /* \"#utility.yul\":7:84   */\n    tag_17:\n        /* \"#utility.yul\":44:51   */\n      0x00\n        /* \"#utility.yul\":73:78   */\n      dup2\n        /* \"#utility.yul\":62:78   */\n      swap1\n      pop\n        /* \"#utility.yul\":7:84   */\n      swap2\n      swap1\n      pop\n      jump\t// out\n        /* \"#utility.yul\":90:208   */\n    tag_18:\n        /* \"#utility.yul\":177:201   */\n      tag_25\n        /* \"#utility.yul\":195:200   */\n      dup2\n        /* \"#utility.yul\":177:201   */\n      tag_17\n      jump\t// in\n    tag_25:\n        /* \"#utility.yul\":172:175   */\n      dup3\n        /* \"#utility.yul\":165:202   */\n      mstore\n        /* \"#utility.yul\":90:208   */\n      pop\n      pop\n      jump\t// out\n        /* \"#utility.yul\":214:436   */\n    tag_10:\n        /* \"#utility.yul\":307:311   */\n      0x00\n        /* \"#utility.yul\":345:347   */\n      0x20\n        /* \"#utility.yul\":334:343   */\n      dup3\n        /* \"#utility.yul\":330:348   */\n      add\n        /* \"#utility.yul\":322:348   */\n      swap1\n      pop\n        /* \"#utility.yul\":358:429   */\n      tag_27\n        /* \"#utility.yul\":426:427   */\n      0x00\n        /* \"#utility.yul\":415:424   */\n      dup4\n        /* \"#utility.yul\":411:428   */\n      add\n        /* \"#utility.yul\":402:408   */\n      dup5\n        /* \"#utility.yul\":358:429   */\n      tag_18\n      jump\t// in\n    tag_27:\n        /* \"#utility.yul\":214:436   */\n      swap3\n      swap2\n      pop\n      pop\n      jump\t// out\n        /* \"#utility.yul\":442:611   */\n    tag_19:\n        /* \"#utility.yul\":526:537   */\n      0x00\n        /* \"#utility.yul\":560:566   */\n      dup3\n        /* \"#utility.yul\":555:558   */\n      dup3\n        /* \"#utility.yul\":548:567   */\n      mstore\n        /* \"#utility.yul\":600:604   */\n      0x20\n        /* \"#utility.yul\":595:598   */\n      dup3\n        /* \"#utility.yul\":591:605   */\n      add\n        /* \"#utility.yul\":576:605   */\n      swap1\n      pop\n        /* \"#utility.yul\":442:611   */\n      swap3\n      swap2\n      pop\n      pop\n      jump\t// out\n        /* \"#utility.yul\":617:780   */\n    tag_20:\n        /* \"#utility.yul\":757:772   */\n      0x416c726561647920616e6e756c00000000000000000000000000000000000000\n        /* \"#utility.yul\":753:754   */\n      0x00\n        /* \"#utility.yul\":745:751   */\n      dup3\n        /* \"#utility.yul\":741:755   */\n      add\n        /* \"#utility.yul\":734:773   */\n      mstore\n        /* \"#utility.yul\":617:780   */\n      pop\n      jump\t// out\n        /* \"#utility.yul\":786:1152   */\n    tag_21:\n        /* \"#utility.yul\":928:931   */\n      0x00\n        /* \"#utility.yul\":949:1016   */\n      tag_31\n        /* \"#utility.yul\":1013:1015   */\n      0x0d\n        /* \"#utility.yul\":1008:1011   */\n      dup4\n        /* \"#utility.yul\":949:1016   */\n      tag_19\n      jump\t// in\n    tag_31:\n        /* \"#utility.yul\":942:1016   */\n      swap2\n      pop\n        /* \"#utility.yul\":1025:1118   */\n      tag_32\n        /* \"#utility.yul\":1114:1117   */\n      dup3\n        /* \"#utility.yul\":1025:1118   */\n      tag_20\n      jump\t// in\n    tag_32:\n        /* \"#utility.yul\":1143:1145   */\n      0x20\n        /* \"#utility.yul\":1138:1141   */\n      dup3\n        /* \"#utility.yul\":1134:1146   */\n      add\n        /* \"#utility.yul\":1127:1146   */\n      swap1\n      pop\n        /* \"#utility.yul\":786:1152   */\n      swap2\n      swap1\n      pop\n      jump\t// out\n        /* \"#utility.yul\":1158:1577   */\n    tag_14:\n        /* \"#utility.yul\":1324:1328   */\n      0x00\n        /* \"#utility.yul\":1362:1364   */\n      0x20\n        /* \"#utility.yul\":1351:1360   */\n      dup3\n        /* \"#utility.yul\":1347:1365   */\n      add\n        /* \"#utility.yul\":1339:1365   */\n      swap1\n      pop\n        /* \"#utility.yul\":1411:1420   */\n      dup2\n        /* \"#utility.yul\":1405:1409   */\n      dup2\n        /* \"#utility.yul\":1401:1421   */\n      sub\n        /* \"#utility.yul\":1397:1398   */\n      0x00\n        /* \"#utility.yul\":1386:1395   */\n      dup4\n        /* \"#utility.yul\":1382:1399   */\n      add\n        /* \"#utility.yul\":1375:1422   */\n      mstore\n        /* \"#utility.yul\":1439:1570   */\n      tag_34\n        /* \"#utility.yul\":1565:1569   */\n      dup2\n        /* \"#utility.yul\":1439:1570   */\n      tag_21\n      jump\t// in\n    tag_34:\n        /* \"#utility.yul\":1431:1570   */\n      swap1\n      pop\n        /* \"#utility.yul\":1158:1577   */\n      swap2\n      swap1\n      pop\n      jump\t// out\n\n    auxdata: 0xa2646970667358221220f90b32935f597f04192830c441f5ffdd95943b00d17e72266c4bc50c2b2d56b164736f6c634300080f0033\n}\n",
				"bytecode": {
					"linkReferences": {},
					"object": "60806040526101d4806100136000396000f3fe608060405234801561001057600080fd5b50600436106100365760003560e01c806341c0e1b51461003b578063f8a8fd6d14610045575b600080fd5b610043610063565b005b61004d6100e4565b60405161005a9190610106565b60405180910390f35b60008054906101000a900460ff16156100b1576040517f08c379a00000000000000000000000000000000000000000000000000000000081526004016100a89061017e565b60405180910390fd5b60016000806101000a81548160ff0219169083151502179055503373ffffffffffffffffffffffffffffffffffffffff16ff5b6000607b905090565b6000819050919050565b610100816100ed565b82525050565b600060208201905061011b60008301846100f7565b92915050565b600082825260208201905092915050565b7f416c726561647920616e6e756c00000000000000000000000000000000000000600082015250565b6000610168600d83610121565b915061017382610132565b602082019050919050565b600060208201905081810360008301526101978161015b565b905091905056fea2646970667358221220f90b32935f597f04192830c441f5ffdd95943b00d17e72266c4bc50c2b2d56b164736f6c634300080f0033",
					"opcodes": "PUSH1 0x80 PUSH1 0x40 MSTORE PUSH2 0x1D4 DUP1 PUSH2 0x13 PUSH1 0x0 CODECOPY PUSH1 0x0 RETURN INVALID PUSH1 0x80 PUSH1 0x40 MSTORE CALLVALUE DUP1 ISZERO PUSH2 0x10 JUMPI PUSH1 0x0 DUP1 REVERT JUMPDEST POP PUSH1 0x4 CALLDATASIZE LT PUSH2 0x36 JUMPI PUSH1 0x0 CALLDATALOAD PUSH1 0xE0 SHR DUP1 PUSH4 0x41C0E1B5 EQ PUSH2 0x3B JUMPI DUP1 PUSH4 0xF8A8FD6D EQ PUSH2 0x45 JUMPI JUMPDEST PUSH1 0x0 DUP1 REVERT JUMPDEST PUSH2 0x43 PUSH2 0x63 JUMP JUMPDEST STOP JUMPDEST PUSH2 0x4D PUSH2 0xE4 JUMP JUMPDEST PUSH1 0x40 MLOAD PUSH2 0x5A SWAP2 SWAP1 PUSH2 0x106 JUMP JUMPDEST PUSH1 0x40 MLOAD DUP1 SWAP2 SUB SWAP1 RETURN JUMPDEST PUSH1 0x0 DUP1 SLOAD SWAP1 PUSH2 0x100 EXP SWAP1 DIV PUSH1 0xFF AND ISZERO PUSH2 0xB1 JUMPI PUSH1 0x40 MLOAD PUSH32 0x8C379A000000000000000000000000000000000000000000000000000000000 DUP2 MSTORE PUSH1 0x4 ADD PUSH2 0xA8 SWAP1 PUSH2 0x17E JUMP JUMPDEST PUSH1 0x40 MLOAD DUP1 SWAP2 SUB SWAP1 REVERT JUMPDEST PUSH1 0x1 PUSH1 0x0 DUP1 PUSH2 0x100 EXP DUP2 SLOAD DUP2 PUSH1 0xFF MUL NOT AND SWAP1 DUP4 ISZERO ISZERO MUL OR SWAP1 SSTORE POP CALLER PUSH20 0xFFFFFFFFFFFFFFFFFFFFFFFFFFFFFFFFFFFFFFFF AND SELFDESTRUCT JUMPDEST PUSH1 0x0 PUSH1 0x7B SWAP1 POP SWAP1 JUMP JUMPDEST PUSH1 0x0 DUP2 SWAP1 POP SWAP2 SWAP1 POP JUMP JUMPDEST PUSH2 0x100 DUP2 PUSH2 0xED JUMP JUMPDEST DUP3 MSTORE POP POP JUMP JUMPDEST PUSH1 0x0 PUSH1 0x20 DUP3 ADD SWAP1 POP PUSH2 0x11B PUSH1 0x0 DUP4 ADD DUP5 PUSH2 0xF7 JUMP JUMPDEST SWAP3 SWAP2 POP POP JUMP JUMPDEST PUSH1 0x0 DUP3 DUP3 MSTORE PUSH1 0x20 DUP3 ADD SWAP1 POP SWAP3 SWAP2 POP POP JUMP JUMPDEST PUSH32 0x416C726561647920616E6E756C00000000000000000000000000000000000000 PUSH1 0x0 DUP3 ADD MSTORE POP JUMP JUMPDEST PUSH1 0x0 PUSH2 0x168 PUSH1 0xD DUP4 PUSH2 0x121 JUMP JUMPDEST SWAP2 POP PUSH2 0x173 DUP3 PUSH2 0x132 JUMP JUMPDEST PUSH1 0x20 DUP3 ADD SWAP1 POP SWAP2 SWAP1 POP JUMP JUMPDEST PUSH1 0x0 PUSH1 0x20 DUP3 ADD SWAP1 POP DUP2 DUP2 SUB PUSH1 0x0 DUP4 ADD MSTORE PUSH2 0x197 DUP2 PUSH2 0x15B JUMP JUMPDEST SWAP1 POP SWAP2 SWAP1 POP JUMP INVALID LOG2 PUSH5 0x6970667358 0x22 SLT KECCAK256 0xF9 SIGNEXTEND ORIGIN SWAP4 0x5F MSIZE PUSH32 0x4192830C441F5FFDD95943B00D17E72266C4BC50C2B2D56B164736F6C634300 ADDMOD 0xF STOP CALLER "
				},
				"gasEstimates": {
					"creation": {
						"codeDepositCost": "93600",
						"executionCost": "117",
						"totalCost": "93717"
					},
					"external": {
						"kill()": "54141",
						"test()": "337"
					}
				},
				"methodIdentifiers": {
					"kill()": "41c0e1b5",
					"test()": "f8a8fd6d"
				}
			},
			"storageLayout": {
				"storage": [
					{
						"astId": 3,
						"contract": "study/chapter11/selfDestruct.sol:Kill",
						"label": "disable",
						"offset": 0,
						"slot": "0",
						"type": "t_bool"
					}
				],
				"types": {
					"t_bool": {
						"encoding": "inplace",
						"label": "bool",
						"numberOfBytes": "1"
					}
				}
			},
			"userdoc": {
				"kind": "user",
				"methods": {},
				"version": 1
			}
		}
	}
}